{
	"contracts/erc721.sol": {
		"ERC721": {
			"abi": [
				{
					"inputs": [
						{
							"internalType": "string",
							"name": "name_",
							"type": "string"
						},
						{
							"internalType": "string",
							"name": "symbol_",
							"type": "string"
						}
					],
					"stateMutability": "nonpayable",
					"type": "constructor"
				},
				{
					"anonymous": false,
					"inputs": [
						{
							"indexed": true,
							"internalType": "address",
							"name": "owner",
							"type": "address"
						},
						{
							"indexed": true,
							"internalType": "address",
							"name": "approved",
							"type": "address"
						},
						{
							"indexed": true,
							"internalType": "uint256",
							"name": "tokenId",
							"type": "uint256"
						}
					],
					"name": "Approval",
					"type": "event"
				},
				{
					"anonymous": false,
					"inputs": [
						{
							"indexed": true,
							"internalType": "address",
							"name": "owner",
							"type": "address"
						},
						{
							"indexed": true,
							"internalType": "address",
							"name": "operator",
							"type": "address"
						},
						{
							"indexed": false,
							"internalType": "bool",
							"name": "approved",
							"type": "bool"
						}
					],
					"name": "ApprovalForAll",
					"type": "event"
				},
				{
					"anonymous": false,
					"inputs": [
						{
							"indexed": true,
							"internalType": "address",
							"name": "from",
							"type": "address"
						},
						{
							"indexed": true,
							"internalType": "address",
							"name": "to",
							"type": "address"
						},
						{
							"indexed": true,
							"internalType": "uint256",
							"name": "tokenId",
							"type": "uint256"
						}
					],
					"name": "Transfer",
					"type": "event"
				},
				{
					"inputs": [
						{
							"internalType": "address",
							"name": "to",
							"type": "address"
						},
						{
							"internalType": "uint256",
							"name": "tokenId",
							"type": "uint256"
						}
					],
					"name": "approve",
					"outputs": [],
					"stateMutability": "nonpayable",
					"type": "function"
				},
				{
					"inputs": [
						{
							"internalType": "address",
							"name": "owner",
							"type": "address"
						}
					],
					"name": "balanceOf",
					"outputs": [
						{
							"internalType": "uint256",
							"name": "",
							"type": "uint256"
						}
					],
					"stateMutability": "view",
					"type": "function"
				},
				{
					"inputs": [
						{
							"internalType": "uint256",
							"name": "tokenId",
							"type": "uint256"
						}
					],
					"name": "getApproved",
					"outputs": [
						{
							"internalType": "address",
							"name": "",
							"type": "address"
						}
					],
					"stateMutability": "view",
					"type": "function"
				},
				{
					"inputs": [
						{
							"internalType": "address",
							"name": "owner",
							"type": "address"
						},
						{
							"internalType": "address",
							"name": "operator",
							"type": "address"
						}
					],
					"name": "isApprovedForAll",
					"outputs": [
						{
							"internalType": "bool",
							"name": "",
							"type": "bool"
						}
					],
					"stateMutability": "view",
					"type": "function"
				},
				{
					"inputs": [],
					"name": "name",
					"outputs": [
						{
							"internalType": "string",
							"name": "",
							"type": "string"
						}
					],
					"stateMutability": "view",
					"type": "function"
				},
				{
					"inputs": [
						{
							"internalType": "uint256",
							"name": "tokenId",
							"type": "uint256"
						}
					],
					"name": "ownerOf",
					"outputs": [
						{
							"internalType": "address",
							"name": "",
							"type": "address"
						}
					],
					"stateMutability": "view",
					"type": "function"
				},
				{
					"inputs": [
						{
							"internalType": "address",
							"name": "to",
							"type": "address"
						},
						{
							"internalType": "uint256",
							"name": "tokenId",
							"type": "uint256"
						},
						{
							"internalType": "string",
							"name": "uri",
							"type": "string"
						}
					],
					"name": "safeMint",
					"outputs": [],
					"stateMutability": "nonpayable",
					"type": "function"
				},
				{
					"inputs": [
						{
							"internalType": "address",
							"name": "from",
							"type": "address"
						},
						{
							"internalType": "address",
							"name": "to",
							"type": "address"
						},
						{
							"internalType": "uint256",
							"name": "tokenId",
							"type": "uint256"
						}
					],
					"name": "safeTransferFrom",
					"outputs": [],
					"stateMutability": "nonpayable",
					"type": "function"
				},
				{
					"inputs": [
						{
							"internalType": "address",
							"name": "from",
							"type": "address"
						},
						{
							"internalType": "address",
							"name": "to",
							"type": "address"
						},
						{
							"internalType": "uint256",
							"name": "tokenId",
							"type": "uint256"
						},
						{
							"internalType": "bytes",
							"name": "data",
							"type": "bytes"
						}
					],
					"name": "safeTransferFrom",
					"outputs": [],
					"stateMutability": "nonpayable",
					"type": "function"
				},
				{
					"inputs": [
						{
							"internalType": "address",
							"name": "operator",
							"type": "address"
						},
						{
							"internalType": "bool",
							"name": "approved",
							"type": "bool"
						}
					],
					"name": "setApprovalForAll",
					"outputs": [],
					"stateMutability": "nonpayable",
					"type": "function"
				},
				{
					"inputs": [
						{
							"internalType": "bytes4",
							"name": "interfaceId",
							"type": "bytes4"
						}
					],
					"name": "supportsInterface",
					"outputs": [
						{
							"internalType": "bool",
							"name": "",
							"type": "bool"
						}
					],
					"stateMutability": "view",
					"type": "function"
				},
				{
					"inputs": [],
					"name": "symbol",
					"outputs": [
						{
							"internalType": "string",
							"name": "",
							"type": "string"
						}
					],
					"stateMutability": "view",
					"type": "function"
				},
				{
					"inputs": [
						{
							"internalType": "uint256",
							"name": "tokenId",
							"type": "uint256"
						}
					],
					"name": "tokenURI",
					"outputs": [
						{
							"internalType": "string",
							"name": "",
							"type": "string"
						}
					],
					"stateMutability": "view",
					"type": "function"
				},
				{
					"inputs": [
						{
							"internalType": "address",
							"name": "from",
							"type": "address"
						},
						{
							"internalType": "address",
							"name": "to",
							"type": "address"
						},
						{
							"internalType": "uint256",
							"name": "tokenId",
							"type": "uint256"
						}
					],
					"name": "transferFrom",
					"outputs": [],
					"stateMutability": "nonpayable",
					"type": "function"
				}
			],
			"devdoc": {
				"kind": "dev",
				"methods": {
					"approve(address,uint256)": {
						"details": "Gives permission to `to` to transfer `tokenId` token to another account. The approval is cleared when the token is transferred. Only a single account can be approved at a time, so approving the zero address clears previous approvals. Requirements: - The caller must own the token or be an approved operator. - `tokenId` must exist. Emits an {Approval} event."
					},
					"balanceOf(address)": {
						"details": "Returns the number of tokens in ``owner``'s account."
					},
					"getApproved(uint256)": {
						"details": "Returns the account approved for `tokenId` token. Requirements: - `tokenId` must exist."
					},
					"isApprovedForAll(address,address)": {
						"details": "Returns if the `operator` is allowed to manage all of the assets of `owner`. See {setApprovalForAll}"
					},
					"name()": {
						"details": "Returns the token collection name."
					},
					"ownerOf(uint256)": {
						"details": "Returns the owner of the `tokenId` token. Requirements: - `tokenId` must exist."
					},
					"safeTransferFrom(address,address,uint256)": {
						"details": "Safely transfers `tokenId` token from `from` to `to`, checking first that contract recipients are aware of the ERC721 protocol to prevent tokens from being forever locked. Requirements: - `from` cannot be the zero address. - `to` cannot be the zero address. - `tokenId` token must exist and be owned by `from`. - If the caller is not `from`, it must be have been allowed to move this token by either {approve} or {setApprovalForAll}. - If `to` refers to a smart contract, it must implement {IERC721Receiver-onERC721Received}, which is called upon a safe transfer. Emits a {Transfer} event."
					},
					"safeTransferFrom(address,address,uint256,bytes)": {
						"details": "Safely transfers `tokenId` token from `from` to `to`. Requirements: - `from` cannot be the zero address. - `to` cannot be the zero address. - `tokenId` token must exist and be owned by `from`. - If the caller is not `from`, it must be approved to move this token by either {approve} or {setApprovalForAll}. - If `to` refers to a smart contract, it must implement {IERC721Receiver-onERC721Received}, which is called upon a safe transfer. Emits a {Transfer} event."
					},
					"symbol()": {
						"details": "Returns the token collection symbol."
					},
					"tokenURI(uint256)": {
						"details": "Returns the Uniform Resource Identifier (URI) for `tokenId` token."
					},
					"transferFrom(address,address,uint256)": {
						"details": "Transfers `tokenId` token from `from` to `to`. WARNING: Usage of this method is discouraged, use {safeTransferFrom} whenever possible. Requirements: - `from` cannot be the zero address. - `to` cannot be the zero address. - `tokenId` token must be owned by `from`. - If the caller is not `from`, it must be approved to move this token by either {approve} or {setApprovalForAll}. Emits a {Transfer} event."
					}
				},
				"version": 1
			},
			"evm": {
				"assembly": "    /* \"contracts/erc721.sol\":617:9593  contract ERC721 is Context, ERC165, IERC721, IERC721Metadata {\r... */\n  mstore(0x40, 0x80)\n    /* \"contracts/erc721.sol\":1172:1288  constructor(string memory name_, string memory symbol_) {\r... */\n  callvalue\n  dup1\n  iszero\n  tag_1\n  jumpi\n  0x00\n  dup1\n  revert\ntag_1:\n  pop\n  mload(0x40)\n  sub(codesize, bytecodeSize)\n  dup1\n  bytecodeSize\n  dup4\n  codecopy\n  dup2\n  dup2\n  add\n  0x40\n  mstore\n  dup2\n  add\n  swap1\n  tag_2\n  swap2\n  swap1\n  tag_3\n  jump\t// in\ntag_2:\n    /* \"contracts/erc721.sol\":1247:1252  name_ */\n  dup2\n    /* \"contracts/erc721.sol\":1239:1244  _name */\n  0x00\n    /* \"contracts/erc721.sol\":1239:1252  _name = name_ */\n  swap1\n  dup1\n  mload\n  swap1\n  0x20\n  add\n  swap1\n  tag_6\n  swap3\n  swap2\n  swap1\n  tag_7\n  jump\t// in\ntag_6:\n  pop\n    /* \"contracts/erc721.sol\":1273:1280  symbol_ */\n  dup1\n    /* \"contracts/erc721.sol\":1263:1270  _symbol */\n  0x01\n    /* \"contracts/erc721.sol\":1263:1280  _symbol = symbol_ */\n  swap1\n  dup1\n  mload\n  swap1\n  0x20\n  add\n  swap1\n  tag_8\n  swap3\n  swap2\n  swap1\n  tag_7\n  jump\t// in\ntag_8:\n  pop\n    /* \"contracts/erc721.sol\":1172:1288  constructor(string memory name_, string memory symbol_) {\r... */\n  pop\n  pop\n    /* \"contracts/erc721.sol\":617:9593  contract ERC721 is Context, ERC165, IERC721, IERC721Metadata {\r... */\n  jump(tag_9)\ntag_7:\n  dup3\n  dup1\n  sload\n  tag_10\n  swap1\n  tag_11\n  jump\t// in\ntag_10:\n  swap1\n  0x00\n  mstore\n  keccak256(0x00, 0x20)\n  swap1\n  0x1f\n  add\n  0x20\n  swap1\n  div\n  dup2\n  add\n  swap3\n  dup3\n  tag_13\n  jumpi\n  0x00\n  dup6\n  sstore\n  jump(tag_12)\ntag_13:\n  dup3\n  0x1f\n  lt\n  tag_14\n  jumpi\n  dup1\n  mload\n  not(0xff)\n  and\n  dup4\n  dup1\n  add\n  or\n  dup6\n  sstore\n  jump(tag_12)\ntag_14:\n  dup3\n  dup1\n  add\n  0x01\n  add\n  dup6\n  sstore\n  dup3\n  iszero\n  tag_12\n  jumpi\n  swap2\n  dup3\n  add\ntag_15:\n  dup3\n  dup2\n  gt\n  iszero\n  tag_16\n  jumpi\n  dup3\n  mload\n  dup3\n  sstore\n  swap2\n  0x20\n  add\n  swap2\n  swap1\n  0x01\n  add\n  swap1\n  jump(tag_15)\ntag_16:\ntag_12:\n  pop\n  swap1\n  pop\n  tag_17\n  swap2\n  swap1\n  tag_18\n  jump\t// in\ntag_17:\n  pop\n  swap1\n  jump\t// out\ntag_18:\ntag_19:\n  dup1\n  dup3\n  gt\n  iszero\n  tag_20\n  jumpi\n  0x00\n  dup2\n  0x00\n  swap1\n  sstore\n  pop\n  0x01\n  add\n  jump(tag_19)\ntag_20:\n  pop\n  swap1\n  jump\t// out\n    /* \"#utility.yul\":7:361   */\ntag_22:\n    /* \"#utility.yul\":96:101   */\n  0x00\n    /* \"#utility.yul\":121:187   */\n  tag_24\n    /* \"#utility.yul\":137:186   */\n  tag_25\n    /* \"#utility.yul\":179:185   */\n  dup5\n    /* \"#utility.yul\":137:186   */\n  tag_26\n  jump\t// in\ntag_25:\n    /* \"#utility.yul\":121:187   */\n  tag_27\n  jump\t// in\ntag_24:\n    /* \"#utility.yul\":112:187   */\n  swap1\n  pop\n    /* \"#utility.yul\":210:216   */\n  dup3\n    /* \"#utility.yul\":203:208   */\n  dup2\n    /* \"#utility.yul\":196:217   */\n  mstore\n    /* \"#utility.yul\":248:252   */\n  0x20\n    /* \"#utility.yul\":241:246   */\n  dup2\n    /* \"#utility.yul\":237:253   */\n  add\n    /* \"#utility.yul\":286:289   */\n  dup5\n    /* \"#utility.yul\":277:283   */\n  dup5\n    /* \"#utility.yul\":272:275   */\n  dup5\n    /* \"#utility.yul\":268:284   */\n  add\n    /* \"#utility.yul\":265:290   */\n  gt\n    /* \"#utility.yul\":262:264   */\n  iszero\n  tag_28\n  jumpi\n    /* \"#utility.yul\":303:304   */\n  0x00\n    /* \"#utility.yul\":300:301   */\n  dup1\n    /* \"#utility.yul\":293:305   */\n  revert\n    /* \"#utility.yul\":262:264   */\ntag_28:\n    /* \"#utility.yul\":316:355   */\n  tag_29\n    /* \"#utility.yul\":348:354   */\n  dup5\n    /* \"#utility.yul\":343:346   */\n  dup3\n    /* \"#utility.yul\":338:341   */\n  dup6\n    /* \"#utility.yul\":316:355   */\n  tag_30\n  jump\t// in\ntag_29:\n    /* \"#utility.yul\":102:361   */\n  pop\n  swap4\n  swap3\n  pop\n  pop\n  pop\n  jump\t// out\n    /* \"#utility.yul\":381:669   */\ntag_31:\n    /* \"#utility.yul\":448:453   */\n  0x00\n    /* \"#utility.yul\":497:500   */\n  dup3\n    /* \"#utility.yul\":490:494   */\n  0x1f\n    /* \"#utility.yul\":482:488   */\n  dup4\n    /* \"#utility.yul\":478:495   */\n  add\n    /* \"#utility.yul\":474:501   */\n  slt\n    /* \"#utility.yul\":464:466   */\n  tag_33\n  jumpi\n    /* \"#utility.yul\":515:516   */\n  0x00\n    /* \"#utility.yul\":512:513   */\n  dup1\n    /* \"#utility.yul\":505:517   */\n  revert\n    /* \"#utility.yul\":464:466   */\ntag_33:\n    /* \"#utility.yul\":548:554   */\n  dup2\n    /* \"#utility.yul\":542:555   */\n  mload\n    /* \"#utility.yul\":573:663   */\n  tag_34\n    /* \"#utility.yul\":659:662   */\n  dup5\n    /* \"#utility.yul\":651:657   */\n  dup3\n    /* \"#utility.yul\":644:648   */\n  0x20\n    /* \"#utility.yul\":636:642   */\n  dup7\n    /* \"#utility.yul\":632:649   */\n  add\n    /* \"#utility.yul\":573:663   */\n  tag_22\n  jump\t// in\ntag_34:\n    /* \"#utility.yul\":564:663   */\n  swap2\n  pop\n    /* \"#utility.yul\":454:669   */\n  pop\n  swap3\n  swap2\n  pop\n  pop\n  jump\t// out\n    /* \"#utility.yul\":675:1327   */\ntag_3:\n    /* \"#utility.yul\":774:780   */\n  0x00\n    /* \"#utility.yul\":782:788   */\n  dup1\n    /* \"#utility.yul\":831:833   */\n  0x40\n    /* \"#utility.yul\":819:828   */\n  dup4\n    /* \"#utility.yul\":810:817   */\n  dup6\n    /* \"#utility.yul\":806:829   */\n  sub\n    /* \"#utility.yul\":802:834   */\n  slt\n    /* \"#utility.yul\":799:801   */\n  iszero\n  tag_36\n  jumpi\n    /* \"#utility.yul\":847:848   */\n  0x00\n    /* \"#utility.yul\":844:845   */\n  dup1\n    /* \"#utility.yul\":837:849   */\n  revert\n    /* \"#utility.yul\":799:801   */\ntag_36:\n    /* \"#utility.yul\":911:912   */\n  0x00\n    /* \"#utility.yul\":900:909   */\n  dup4\n    /* \"#utility.yul\":896:913   */\n  add\n    /* \"#utility.yul\":890:914   */\n  mload\n    /* \"#utility.yul\":941:959   */\n  0xffffffffffffffff\n    /* \"#utility.yul\":933:939   */\n  dup2\n    /* \"#utility.yul\":930:960   */\n  gt\n    /* \"#utility.yul\":927:929   */\n  iszero\n  tag_37\n  jumpi\n    /* \"#utility.yul\":973:974   */\n  0x00\n    /* \"#utility.yul\":970:971   */\n  dup1\n    /* \"#utility.yul\":963:975   */\n  revert\n    /* \"#utility.yul\":927:929   */\ntag_37:\n    /* \"#utility.yul\":1001:1075   */\n  tag_38\n    /* \"#utility.yul\":1067:1074   */\n  dup6\n    /* \"#utility.yul\":1058:1064   */\n  dup3\n    /* \"#utility.yul\":1047:1056   */\n  dup7\n    /* \"#utility.yul\":1043:1065   */\n  add\n    /* \"#utility.yul\":1001:1075   */\n  tag_31\n  jump\t// in\ntag_38:\n    /* \"#utility.yul\":991:1075   */\n  swap3\n  pop\n    /* \"#utility.yul\":861:1085   */\n  pop\n    /* \"#utility.yul\":1145:1147   */\n  0x20\n    /* \"#utility.yul\":1134:1143   */\n  dup4\n    /* \"#utility.yul\":1130:1148   */\n  add\n    /* \"#utility.yul\":1124:1149   */\n  mload\n    /* \"#utility.yul\":1176:1194   */\n  0xffffffffffffffff\n    /* \"#utility.yul\":1168:1174   */\n  dup2\n    /* \"#utility.yul\":1165:1195   */\n  gt\n    /* \"#utility.yul\":1162:1164   */\n  iszero\n  tag_39\n  jumpi\n    /* \"#utility.yul\":1208:1209   */\n  0x00\n    /* \"#utility.yul\":1205:1206   */\n  dup1\n    /* \"#utility.yul\":1198:1210   */\n  revert\n    /* \"#utility.yul\":1162:1164   */\ntag_39:\n    /* \"#utility.yul\":1236:1310   */\n  tag_40\n    /* \"#utility.yul\":1302:1309   */\n  dup6\n    /* \"#utility.yul\":1293:1299   */\n  dup3\n    /* \"#utility.yul\":1282:1291   */\n  dup7\n    /* \"#utility.yul\":1278:1300   */\n  add\n    /* \"#utility.yul\":1236:1310   */\n  tag_31\n  jump\t// in\ntag_40:\n    /* \"#utility.yul\":1226:1310   */\n  swap2\n  pop\n    /* \"#utility.yul\":1095:1320   */\n  pop\n    /* \"#utility.yul\":789:1327   */\n  swap3\n  pop\n  swap3\n  swap1\n  pop\n  jump\t// out\n    /* \"#utility.yul\":1333:1462   */\ntag_27:\n    /* \"#utility.yul\":1367:1373   */\n  0x00\n    /* \"#utility.yul\":1394:1414   */\n  tag_42\n  tag_43\n  jump\t// in\ntag_42:\n    /* \"#utility.yul\":1384:1414   */\n  swap1\n  pop\n    /* \"#utility.yul\":1423:1456   */\n  tag_44\n    /* \"#utility.yul\":1451:1455   */\n  dup3\n    /* \"#utility.yul\":1443:1449   */\n  dup3\n    /* \"#utility.yul\":1423:1456   */\n  tag_45\n  jump\t// in\ntag_44:\n    /* \"#utility.yul\":1374:1462   */\n  swap2\n  swap1\n  pop\n  jump\t// out\n    /* \"#utility.yul\":1468:1543   */\ntag_43:\n    /* \"#utility.yul\":1501:1507   */\n  0x00\n    /* \"#utility.yul\":1534:1536   */\n  0x40\n    /* \"#utility.yul\":1528:1537   */\n  mload\n    /* \"#utility.yul\":1518:1537   */\n  swap1\n  pop\n    /* \"#utility.yul\":1508:1543   */\n  swap1\n  jump\t// out\n    /* \"#utility.yul\":1549:1857   */\ntag_26:\n    /* \"#utility.yul\":1611:1615   */\n  0x00\n    /* \"#utility.yul\":1701:1719   */\n  0xffffffffffffffff\n    /* \"#utility.yul\":1693:1699   */\n  dup3\n    /* \"#utility.yul\":1690:1720   */\n  gt\n    /* \"#utility.yul\":1687:1689   */\n  iszero\n  tag_48\n  jumpi\n    /* \"#utility.yul\":1723:1741   */\n  tag_49\n  tag_50\n  jump\t// in\ntag_49:\n    /* \"#utility.yul\":1687:1689   */\ntag_48:\n    /* \"#utility.yul\":1761:1790   */\n  tag_51\n    /* \"#utility.yul\":1783:1789   */\n  dup3\n    /* \"#utility.yul\":1761:1790   */\n  tag_52\n  jump\t// in\ntag_51:\n    /* \"#utility.yul\":1753:1790   */\n  swap1\n  pop\n    /* \"#utility.yul\":1845:1849   */\n  0x20\n    /* \"#utility.yul\":1839:1843   */\n  dup2\n    /* \"#utility.yul\":1835:1850   */\n  add\n    /* \"#utility.yul\":1827:1850   */\n  swap1\n  pop\n    /* \"#utility.yul\":1616:1857   */\n  swap2\n  swap1\n  pop\n  jump\t// out\n    /* \"#utility.yul\":1863:2170   */\ntag_30:\n    /* \"#utility.yul\":1931:1932   */\n  0x00\n    /* \"#utility.yul\":1941:2054   */\ntag_54:\n    /* \"#utility.yul\":1955:1961   */\n  dup4\n    /* \"#utility.yul\":1952:1953   */\n  dup2\n    /* \"#utility.yul\":1949:1962   */\n  lt\n    /* \"#utility.yul\":1941:2054   */\n  iszero\n  tag_56\n  jumpi\n    /* \"#utility.yul\":2040:2041   */\n  dup1\n    /* \"#utility.yul\":2035:2038   */\n  dup3\n    /* \"#utility.yul\":2031:2042   */\n  add\n    /* \"#utility.yul\":2025:2043   */\n  mload\n    /* \"#utility.yul\":2021:2022   */\n  dup2\n    /* \"#utility.yul\":2016:2019   */\n  dup5\n    /* \"#utility.yul\":2012:2023   */\n  add\n    /* \"#utility.yul\":2005:2044   */\n  mstore\n    /* \"#utility.yul\":1977:1979   */\n  0x20\n    /* \"#utility.yul\":1974:1975   */\n  dup2\n    /* \"#utility.yul\":1970:1980   */\n  add\n    /* \"#utility.yul\":1965:1980   */\n  swap1\n  pop\n    /* \"#utility.yul\":1941:2054   */\n  jump(tag_54)\ntag_56:\n    /* \"#utility.yul\":2072:2078   */\n  dup4\n    /* \"#utility.yul\":2069:2070   */\n  dup2\n    /* \"#utility.yul\":2066:2079   */\n  gt\n    /* \"#utility.yul\":2063:2065   */\n  iszero\n  tag_57\n  jumpi\n    /* \"#utility.yul\":2152:2153   */\n  0x00\n    /* \"#utility.yul\":2143:2149   */\n  dup5\n    /* \"#utility.yul\":2138:2141   */\n  dup5\n    /* \"#utility.yul\":2134:2150   */\n  add\n    /* \"#utility.yul\":2127:2154   */\n  mstore\n    /* \"#utility.yul\":2063:2065   */\ntag_57:\n    /* \"#utility.yul\":1912:2170   */\n  pop\n  pop\n  pop\n  pop\n  jump\t// out\n    /* \"#utility.yul\":2176:2496   */\ntag_11:\n    /* \"#utility.yul\":2220:2226   */\n  0x00\n    /* \"#utility.yul\":2257:2258   */\n  0x02\n    /* \"#utility.yul\":2251:2255   */\n  dup3\n    /* \"#utility.yul\":2247:2259   */\n  div\n    /* \"#utility.yul\":2237:2259   */\n  swap1\n  pop\n    /* \"#utility.yul\":2304:2305   */\n  0x01\n    /* \"#utility.yul\":2298:2302   */\n  dup3\n    /* \"#utility.yul\":2294:2306   */\n  and\n    /* \"#utility.yul\":2325:2343   */\n  dup1\n    /* \"#utility.yul\":2315:2317   */\n  tag_59\n  jumpi\n    /* \"#utility.yul\":2381:2385   */\n  0x7f\n    /* \"#utility.yul\":2373:2379   */\n  dup3\n    /* \"#utility.yul\":2369:2386   */\n  and\n    /* \"#utility.yul\":2359:2386   */\n  swap2\n  pop\n    /* \"#utility.yul\":2315:2317   */\ntag_59:\n    /* \"#utility.yul\":2443:2445   */\n  0x20\n    /* \"#utility.yul\":2435:2441   */\n  dup3\n    /* \"#utility.yul\":2432:2446   */\n  lt\n    /* \"#utility.yul\":2412:2430   */\n  dup2\n    /* \"#utility.yul\":2409:2447   */\n  eq\n    /* \"#utility.yul\":2406:2408   */\n  iszero\n  tag_60\n  jumpi\n    /* \"#utility.yul\":2462:2480   */\n  tag_61\n  tag_62\n  jump\t// in\ntag_61:\n    /* \"#utility.yul\":2406:2408   */\ntag_60:\n    /* \"#utility.yul\":2227:2496   */\n  pop\n  swap2\n  swap1\n  pop\n  jump\t// out\n    /* \"#utility.yul\":2502:2783   */\ntag_45:\n    /* \"#utility.yul\":2585:2612   */\n  tag_64\n    /* \"#utility.yul\":2607:2611   */\n  dup3\n    /* \"#utility.yul\":2585:2612   */\n  tag_52\n  jump\t// in\ntag_64:\n    /* \"#utility.yul\":2577:2583   */\n  dup2\n    /* \"#utility.yul\":2573:2613   */\n  add\n    /* \"#utility.yul\":2715:2721   */\n  dup2\n    /* \"#utility.yul\":2703:2713   */\n  dup2\n    /* \"#utility.yul\":2700:2722   */\n  lt\n    /* \"#utility.yul\":2679:2697   */\n  0xffffffffffffffff\n    /* \"#utility.yul\":2667:2677   */\n  dup3\n    /* \"#utility.yul\":2664:2698   */\n  gt\n    /* \"#utility.yul\":2661:2723   */\n  or\n    /* \"#utility.yul\":2658:2660   */\n  iszero\n  tag_65\n  jumpi\n    /* \"#utility.yul\":2726:2744   */\n  tag_66\n  tag_50\n  jump\t// in\ntag_66:\n    /* \"#utility.yul\":2658:2660   */\ntag_65:\n    /* \"#utility.yul\":2766:2776   */\n  dup1\n    /* \"#utility.yul\":2762:2764   */\n  0x40\n    /* \"#utility.yul\":2755:2777   */\n  mstore\n    /* \"#utility.yul\":2545:2783   */\n  pop\n  pop\n  pop\n  jump\t// out\n    /* \"#utility.yul\":2789:2969   */\ntag_62:\n    /* \"#utility.yul\":2837:2914   */\n  0x4e487b7100000000000000000000000000000000000000000000000000000000\n    /* \"#utility.yul\":2834:2835   */\n  0x00\n    /* \"#utility.yul\":2827:2915   */\n  mstore\n    /* \"#utility.yul\":2934:2938   */\n  0x22\n    /* \"#utility.yul\":2931:2932   */\n  0x04\n    /* \"#utility.yul\":2924:2939   */\n  mstore\n    /* \"#utility.yul\":2958:2962   */\n  0x24\n    /* \"#utility.yul\":2955:2956   */\n  0x00\n    /* \"#utility.yul\":2948:2963   */\n  revert\n    /* \"#utility.yul\":2975:3155   */\ntag_50:\n    /* \"#utility.yul\":3023:3100   */\n  0x4e487b7100000000000000000000000000000000000000000000000000000000\n    /* \"#utility.yul\":3020:3021   */\n  0x00\n    /* \"#utility.yul\":3013:3101   */\n  mstore\n    /* \"#utility.yul\":3120:3124   */\n  0x41\n    /* \"#utility.yul\":3117:3118   */\n  0x04\n    /* \"#utility.yul\":3110:3125   */\n  mstore\n    /* \"#utility.yul\":3144:3148   */\n  0x24\n    /* \"#utility.yul\":3141:3142   */\n  0x00\n    /* \"#utility.yul\":3134:3149   */\n  revert\n    /* \"#utility.yul\":3161:3263   */\ntag_52:\n    /* \"#utility.yul\":3202:3208   */\n  0x00\n    /* \"#utility.yul\":3253:3255   */\n  0x1f\n    /* \"#utility.yul\":3249:3256   */\n  not\n    /* \"#utility.yul\":3244:3246   */\n  0x1f\n    /* \"#utility.yul\":3237:3242   */\n  dup4\n    /* \"#utility.yul\":3233:3247   */\n  add\n    /* \"#utility.yul\":3229:3257   */\n  and\n    /* \"#utility.yul\":3219:3257   */\n  swap1\n  pop\n    /* \"#utility.yul\":3209:3263   */\n  swap2\n  swap1\n  pop\n  jump\t// out\n    /* \"contracts/erc721.sol\":617:9593  contract ERC721 is Context, ERC165, IERC721, IERC721Metadata {\r... */\ntag_9:\n  dataSize(sub_0)\n  dup1\n  dataOffset(sub_0)\n  0x00\n  codecopy\n  0x00\n  return\nstop\n\nsub_0: assembly {\n        /* \"contracts/erc721.sol\":617:9593  contract ERC721 is Context, ERC165, IERC721, IERC721Metadata {\r... */\n      mstore(0x40, 0x80)\n      callvalue\n      dup1\n      iszero\n      tag_1\n      jumpi\n      0x00\n      dup1\n      revert\n    tag_1:\n      pop\n      jumpi(tag_2, lt(calldatasize, 0x04))\n      shr(0xe0, calldataload(0x00))\n      dup1\n      0x70a08231\n      gt\n      tag_17\n      jumpi\n      dup1\n      0xb88d4fde\n      gt\n      tag_18\n      jumpi\n      dup1\n      0xb88d4fde\n      eq\n      tag_13\n      jumpi\n      dup1\n      0xc87b56dd\n      eq\n      tag_14\n      jumpi\n      dup1\n      0xcd279c7c\n      eq\n      tag_15\n      jumpi\n      dup1\n      0xe985e9c5\n      eq\n      tag_16\n      jumpi\n      jump(tag_2)\n    tag_18:\n      dup1\n      0x70a08231\n      eq\n      tag_10\n      jumpi\n      dup1\n      0x95d89b41\n      eq\n      tag_11\n      jumpi\n      dup1\n      0xa22cb465\n      eq\n      tag_12\n      jumpi\n      jump(tag_2)\n    tag_17:\n      dup1\n      0x095ea7b3\n      gt\n      tag_19\n      jumpi\n      dup1\n      0x095ea7b3\n      eq\n      tag_6\n      jumpi\n      dup1\n      0x23b872dd\n      eq\n      tag_7\n      jumpi\n      dup1\n      0x42842e0e\n      eq\n      tag_8\n      jumpi\n      dup1\n      0x6352211e\n      eq\n      tag_9\n      jumpi\n      jump(tag_2)\n    tag_19:\n      dup1\n      0x01ffc9a7\n      eq\n      tag_3\n      jumpi\n      dup1\n      0x06fdde03\n      eq\n      tag_4\n      jumpi\n      dup1\n      0x081812fc\n      eq\n      tag_5\n      jumpi\n    tag_2:\n      0x00\n      dup1\n      revert\n        /* \"contracts/erc721.sol\":1298:1603  function supportsInterface(bytes4 interfaceId) public view virtual override(ERC165, IERC165) returns (bool) {\r... */\n    tag_3:\n      tag_20\n      0x04\n      dup1\n      calldatasize\n      sub\n      dup2\n      add\n      swap1\n      tag_21\n      swap2\n      swap1\n      tag_22\n      jump\t// in\n    tag_21:\n      tag_23\n      jump\t// in\n    tag_20:\n      mload(0x40)\n      tag_24\n      swap2\n      swap1\n      tag_25\n      jump\t// in\n    tag_24:\n      mload(0x40)\n      dup1\n      swap2\n      sub\n      swap1\n      return\n        /* \"contracts/erc721.sol\":2062:2162  function name() public view virtual override returns (string memory) {\r... */\n    tag_4:\n      tag_26\n      tag_27\n      jump\t// in\n    tag_26:\n      mload(0x40)\n      tag_28\n      swap2\n      swap1\n      tag_29\n      jump\t// in\n    tag_28:\n      mload(0x40)\n      dup1\n      swap2\n      sub\n      swap1\n      return\n        /* \"contracts/erc721.sol\":3107:3278  function getApproved(uint256 tokenId) public view virtual override returns (address) {\r... */\n    tag_5:\n      tag_30\n      0x04\n      dup1\n      calldatasize\n      sub\n      dup2\n      add\n      swap1\n      tag_31\n      swap2\n      swap1\n      tag_32\n      jump\t// in\n    tag_31:\n      tag_33\n      jump\t// in\n    tag_30:\n      mload(0x40)\n      tag_34\n      swap2\n      swap1\n      tag_35\n      jump\t// in\n    tag_34:\n      mload(0x40)\n      dup1\n      swap2\n      sub\n      swap1\n      return\n        /* \"contracts/erc721.sol\":2680:3096  function approve(address to, uint256 tokenId) public virtual override {\r... */\n    tag_6:\n      tag_36\n      0x04\n      dup1\n      calldatasize\n      sub\n      dup2\n      add\n      swap1\n      tag_37\n      swap2\n      swap1\n      tag_38\n      jump\t// in\n    tag_37:\n      tag_39\n      jump\t// in\n    tag_36:\n      stop\n        /* \"contracts/erc721.sol\":3629:3911  function transferFrom(\r... */\n    tag_7:\n      tag_40\n      0x04\n      dup1\n      calldatasize\n      sub\n      dup2\n      add\n      swap1\n      tag_41\n      swap2\n      swap1\n      tag_42\n      jump\t// in\n    tag_41:\n      tag_43\n      jump\t// in\n    tag_40:\n      stop\n        /* \"contracts/erc721.sol\":3921:4106  function safeTransferFrom(\r... */\n    tag_8:\n      tag_44\n      0x04\n      dup1\n      calldatasize\n      sub\n      dup2\n      add\n      swap1\n      tag_45\n      swap2\n      swap1\n      tag_42\n      jump\t// in\n    tag_45:\n      tag_46\n      jump\t// in\n    tag_44:\n      stop\n        /* \"contracts/erc721.sol\":1830:2052  function ownerOf(uint256 tokenId) public view virtual override returns (address) {\r... */\n    tag_9:\n      tag_47\n      0x04\n      dup1\n      calldatasize\n      sub\n      dup2\n      add\n      swap1\n      tag_48\n      swap2\n      swap1\n      tag_32\n      jump\t// in\n    tag_48:\n      tag_49\n      jump\t// in\n    tag_47:\n      mload(0x40)\n      tag_50\n      swap2\n      swap1\n      tag_35\n      jump\t// in\n    tag_50:\n      mload(0x40)\n      dup1\n      swap2\n      sub\n      swap1\n      return\n        /* \"contracts/erc721.sol\":1613:1820  function balanceOf(address owner) public view virtual override returns (uint256) {\r... */\n    tag_10:\n      tag_51\n      0x04\n      dup1\n      calldatasize\n      sub\n      dup2\n      add\n      swap1\n      tag_52\n      swap2\n      swap1\n      tag_53\n      jump\t// in\n    tag_52:\n      tag_54\n      jump\t// in\n    tag_51:\n      mload(0x40)\n      tag_55\n      swap2\n      swap1\n      tag_56\n      jump\t// in\n    tag_55:\n      mload(0x40)\n      dup1\n      swap2\n      sub\n      swap1\n      return\n        /* \"contracts/erc721.sol\":2173:2277  function symbol() public view virtual override returns (string memory) {\r... */\n    tag_11:\n      tag_57\n      tag_58\n      jump\t// in\n    tag_57:\n      mload(0x40)\n      tag_59\n      swap2\n      swap1\n      tag_29\n      jump\t// in\n    tag_59:\n      mload(0x40)\n      dup1\n      swap2\n      sub\n      swap1\n      return\n        /* \"contracts/erc721.sol\":3290:3445  function setApprovalForAll(address operator, bool approved) public virtual override {\r... */\n    tag_12:\n      tag_60\n      0x04\n      dup1\n      calldatasize\n      sub\n      dup2\n      add\n      swap1\n      tag_61\n      swap2\n      swap1\n      tag_62\n      jump\t// in\n    tag_61:\n      tag_63\n      jump\t// in\n    tag_60:\n      stop\n        /* \"contracts/erc721.sol\":4116:4438  function safeTransferFrom(\r... */\n    tag_13:\n      tag_64\n      0x04\n      dup1\n      calldatasize\n      sub\n      dup2\n      add\n      swap1\n      tag_65\n      swap2\n      swap1\n      tag_66\n      jump\t// in\n    tag_65:\n      tag_67\n      jump\t// in\n    tag_64:\n      stop\n        /* \"contracts/erc721.sol\":2285:2566  function tokenURI(uint256 tokenId) public view virtual override returns (string memory) {\r... */\n    tag_14:\n      tag_68\n      0x04\n      dup1\n      calldatasize\n      sub\n      dup2\n      add\n      swap1\n      tag_69\n      swap2\n      swap1\n      tag_32\n      jump\t// in\n    tag_69:\n      tag_70\n      jump\t// in\n    tag_68:\n      mload(0x40)\n      tag_71\n      swap2\n      swap1\n      tag_29\n      jump\t// in\n    tag_71:\n      mload(0x40)\n      dup1\n      swap2\n      sub\n      swap1\n      return\n        /* \"contracts/erc721.sol\":4447:4592  function safeMint(address to,uint tokenId,string memory uri) public{\r... */\n    tag_15:\n      tag_72\n      0x04\n      dup1\n      calldatasize\n      sub\n      dup2\n      add\n      swap1\n      tag_73\n      swap2\n      swap1\n      tag_74\n      jump\t// in\n    tag_73:\n      tag_75\n      jump\t// in\n    tag_72:\n      stop\n        /* \"contracts/erc721.sol\":3455:3619  function isApprovedForAll(address owner, address operator) public view virtual override returns (bool) {\r... */\n    tag_16:\n      tag_76\n      0x04\n      dup1\n      calldatasize\n      sub\n      dup2\n      add\n      swap1\n      tag_77\n      swap2\n      swap1\n      tag_78\n      jump\t// in\n    tag_77:\n      tag_79\n      jump\t// in\n    tag_76:\n      mload(0x40)\n      tag_80\n      swap2\n      swap1\n      tag_25\n      jump\t// in\n    tag_80:\n      mload(0x40)\n      dup1\n      swap2\n      sub\n      swap1\n      return\n        /* \"contracts/erc721.sol\":1298:1603  function supportsInterface(bytes4 interfaceId) public view virtual override(ERC165, IERC165) returns (bool) {\r... */\n    tag_23:\n        /* \"contracts/erc721.sol\":1400:1404  bool */\n      0x00\n        /* \"contracts/erc721.sol\":1452:1477  type(IERC721).interfaceId */\n      0x80ac58cd00000000000000000000000000000000000000000000000000000000\n        /* \"contracts/erc721.sol\":1437:1477  interfaceId == type(IERC721).interfaceId */\n      not(0xffffffffffffffffffffffffffffffffffffffffffffffffffffffff)\n      and\n        /* \"contracts/erc721.sol\":1437:1448  interfaceId */\n      dup3\n        /* \"contracts/erc721.sol\":1437:1477  interfaceId == type(IERC721).interfaceId */\n      not(0xffffffffffffffffffffffffffffffffffffffffffffffffffffffff)\n      and\n      eq\n        /* \"contracts/erc721.sol\":1437:1542  interfaceId == type(IERC721).interfaceId ||\r... */\n      dup1\n      tag_82\n      jumpi\n      pop\n        /* \"contracts/erc721.sol\":1509:1542  type(IERC721Metadata).interfaceId */\n      0x5b5e139f00000000000000000000000000000000000000000000000000000000\n        /* \"contracts/erc721.sol\":1494:1542  interfaceId == type(IERC721Metadata).interfaceId */\n      not(0xffffffffffffffffffffffffffffffffffffffffffffffffffffffff)\n      and\n        /* \"contracts/erc721.sol\":1494:1505  interfaceId */\n      dup3\n        /* \"contracts/erc721.sol\":1494:1542  interfaceId == type(IERC721Metadata).interfaceId */\n      not(0xffffffffffffffffffffffffffffffffffffffffffffffffffffffff)\n      and\n      eq\n        /* \"contracts/erc721.sol\":1437:1542  interfaceId == type(IERC721).interfaceId ||\r... */\n    tag_82:\n        /* \"contracts/erc721.sol\":1437:1595  interfaceId == type(IERC721).interfaceId ||\r... */\n      dup1\n      tag_83\n      jumpi\n      pop\n        /* \"contracts/erc721.sol\":1559:1595  super.supportsInterface(interfaceId) */\n      tag_84\n        /* \"contracts/erc721.sol\":1583:1594  interfaceId */\n      dup3\n        /* \"contracts/erc721.sol\":1559:1582  super.supportsInterface */\n      tag_85\n        /* \"contracts/erc721.sol\":1559:1595  super.supportsInterface(interfaceId) */\n      jump\t// in\n    tag_84:\n        /* \"contracts/erc721.sol\":1437:1595  interfaceId == type(IERC721).interfaceId ||\r... */\n    tag_83:\n        /* \"contracts/erc721.sol\":1417:1595  return\r... */\n      swap1\n      pop\n        /* \"contracts/erc721.sol\":1298:1603  function supportsInterface(bytes4 interfaceId) public view virtual override(ERC165, IERC165) returns (bool) {\r... */\n      swap2\n      swap1\n      pop\n      jump\t// out\n        /* \"contracts/erc721.sol\":2062:2162  function name() public view virtual override returns (string memory) {\r... */\n    tag_27:\n        /* \"contracts/erc721.sol\":2116:2129  string memory */\n      0x60\n        /* \"contracts/erc721.sol\":2149:2154  _name */\n      0x00\n        /* \"contracts/erc721.sol\":2142:2154  return _name */\n      dup1\n      sload\n      tag_87\n      swap1\n      tag_88\n      jump\t// in\n    tag_87:\n      dup1\n      0x1f\n      add\n      0x20\n      dup1\n      swap2\n      div\n      mul\n      0x20\n      add\n      mload(0x40)\n      swap1\n      dup2\n      add\n      0x40\n      mstore\n      dup1\n      swap3\n      swap2\n      swap1\n      dup2\n      dup2\n      mstore\n      0x20\n      add\n      dup3\n      dup1\n      sload\n      tag_89\n      swap1\n      tag_88\n      jump\t// in\n    tag_89:\n      dup1\n      iszero\n      tag_90\n      jumpi\n      dup1\n      0x1f\n      lt\n      tag_91\n      jumpi\n      0x0100\n      dup1\n      dup4\n      sload\n      div\n      mul\n      dup4\n      mstore\n      swap2\n      0x20\n      add\n      swap2\n      jump(tag_90)\n    tag_91:\n      dup3\n      add\n      swap2\n      swap1\n      0x00\n      mstore\n      keccak256(0x00, 0x20)\n      swap1\n    tag_92:\n      dup2\n      sload\n      dup2\n      mstore\n      swap1\n      0x01\n      add\n      swap1\n      0x20\n      add\n      dup1\n      dup4\n      gt\n      tag_92\n      jumpi\n      dup3\n      swap1\n      sub\n      0x1f\n      and\n      dup3\n      add\n      swap2\n    tag_90:\n      pop\n      pop\n      pop\n      pop\n      pop\n      swap1\n      pop\n        /* \"contracts/erc721.sol\":2062:2162  function name() public view virtual override returns (string memory) {\r... */\n      swap1\n      jump\t// out\n        /* \"contracts/erc721.sol\":3107:3278  function getApproved(uint256 tokenId) public view virtual override returns (address) {\r... */\n    tag_33:\n        /* \"contracts/erc721.sol\":3183:3190  address */\n      0x00\n        /* \"contracts/erc721.sol\":3203:3226  _requireMinted(tokenId) */\n      tag_94\n        /* \"contracts/erc721.sol\":3218:3225  tokenId */\n      dup3\n        /* \"contracts/erc721.sol\":3203:3217  _requireMinted */\n      tag_95\n        /* \"contracts/erc721.sol\":3203:3226  _requireMinted(tokenId) */\n      jump\t// in\n    tag_94:\n        /* \"contracts/erc721.sol\":3246:3261  _tokenApprovals */\n      0x05\n        /* \"contracts/erc721.sol\":3246:3270  _tokenApprovals[tokenId] */\n      0x00\n        /* \"contracts/erc721.sol\":3262:3269  tokenId */\n      dup4\n        /* \"contracts/erc721.sol\":3246:3270  _tokenApprovals[tokenId] */\n      dup2\n      mstore\n      0x20\n      add\n      swap1\n      dup2\n      mstore\n      0x20\n      add\n      0x00\n      keccak256\n      0x00\n      swap1\n      sload\n      swap1\n      0x0100\n      exp\n      swap1\n      div\n      0xffffffffffffffffffffffffffffffffffffffff\n      and\n        /* \"contracts/erc721.sol\":3239:3270  return _tokenApprovals[tokenId] */\n      swap1\n      pop\n        /* \"contracts/erc721.sol\":3107:3278  function getApproved(uint256 tokenId) public view virtual override returns (address) {\r... */\n      swap2\n      swap1\n      pop\n      jump\t// out\n        /* \"contracts/erc721.sol\":2680:3096  function approve(address to, uint256 tokenId) public virtual override {\r... */\n    tag_39:\n        /* \"contracts/erc721.sol\":2761:2774  address owner */\n      0x00\n        /* \"contracts/erc721.sol\":2777:2800  ERC721.ownerOf(tokenId) */\n      tag_97\n        /* \"contracts/erc721.sol\":2792:2799  tokenId */\n      dup3\n        /* \"contracts/erc721.sol\":2777:2791  ERC721.ownerOf */\n      tag_49\n        /* \"contracts/erc721.sol\":2777:2800  ERC721.ownerOf(tokenId) */\n      jump\t// in\n    tag_97:\n        /* \"contracts/erc721.sol\":2761:2800  address owner = ERC721.ownerOf(tokenId) */\n      swap1\n      pop\n        /* \"contracts/erc721.sol\":2825:2830  owner */\n      dup1\n        /* \"contracts/erc721.sol\":2819:2830  to != owner */\n      0xffffffffffffffffffffffffffffffffffffffff\n      and\n        /* \"contracts/erc721.sol\":2819:2821  to */\n      dup4\n        /* \"contracts/erc721.sol\":2819:2830  to != owner */\n      0xffffffffffffffffffffffffffffffffffffffff\n      and\n      eq\n      iszero\n        /* \"contracts/erc721.sol\":2811:2868  require(to != owner, \"ERC721: approval to current owner\") */\n      tag_98\n      jumpi\n      mload(0x40)\n      0x08c379a000000000000000000000000000000000000000000000000000000000\n      dup2\n      mstore\n      0x04\n      add\n      tag_99\n      swap1\n      tag_100\n      jump\t// in\n    tag_99:\n      mload(0x40)\n      dup1\n      swap2\n      sub\n      swap1\n      revert\n    tag_98:\n        /* \"contracts/erc721.sol\":2919:2924  owner */\n      dup1\n        /* \"contracts/erc721.sol\":2903:2924  _msgSender() == owner */\n      0xffffffffffffffffffffffffffffffffffffffff\n      and\n        /* \"contracts/erc721.sol\":2903:2915  _msgSender() */\n      tag_101\n        /* \"contracts/erc721.sol\":2903:2913  _msgSender */\n      tag_102\n        /* \"contracts/erc721.sol\":2903:2915  _msgSender() */\n      jump\t// in\n    tag_101:\n        /* \"contracts/erc721.sol\":2903:2924  _msgSender() == owner */\n      0xffffffffffffffffffffffffffffffffffffffff\n      and\n      eq\n        /* \"contracts/erc721.sol\":2903:2965  _msgSender() == owner || isApprovedForAll(owner, _msgSender()) */\n      dup1\n      tag_103\n      jumpi\n      pop\n        /* \"contracts/erc721.sol\":2928:2965  isApprovedForAll(owner, _msgSender()) */\n      tag_104\n        /* \"contracts/erc721.sol\":2945:2950  owner */\n      dup2\n        /* \"contracts/erc721.sol\":2952:2964  _msgSender() */\n      tag_105\n        /* \"contracts/erc721.sol\":2952:2962  _msgSender */\n      tag_102\n        /* \"contracts/erc721.sol\":2952:2964  _msgSender() */\n      jump\t// in\n    tag_105:\n        /* \"contracts/erc721.sol\":2928:2944  isApprovedForAll */\n      tag_79\n        /* \"contracts/erc721.sol\":2928:2965  isApprovedForAll(owner, _msgSender()) */\n      jump\t// in\n    tag_104:\n        /* \"contracts/erc721.sol\":2903:2965  _msgSender() == owner || isApprovedForAll(owner, _msgSender()) */\n    tag_103:\n        /* \"contracts/erc721.sol\":2881:3054  require(\r... */\n      tag_106\n      jumpi\n      mload(0x40)\n      0x08c379a000000000000000000000000000000000000000000000000000000000\n      dup2\n      mstore\n      0x04\n      add\n      tag_107\n      swap1\n      tag_108\n      jump\t// in\n    tag_107:\n      mload(0x40)\n      dup1\n      swap2\n      sub\n      swap1\n      revert\n    tag_106:\n        /* \"contracts/erc721.sol\":3067:3088  _approve(to, tokenId) */\n      tag_109\n        /* \"contracts/erc721.sol\":3076:3078  to */\n      dup4\n        /* \"contracts/erc721.sol\":3080:3087  tokenId */\n      dup4\n        /* \"contracts/erc721.sol\":3067:3075  _approve */\n      tag_110\n        /* \"contracts/erc721.sol\":3067:3088  _approve(to, tokenId) */\n      jump\t// in\n    tag_109:\n        /* \"contracts/erc721.sol\":2680:3096  function approve(address to, uint256 tokenId) public virtual override {\r... */\n      pop\n      pop\n      pop\n      jump\t// out\n        /* \"contracts/erc721.sol\":3629:3911  function transferFrom(\r... */\n    tag_43:\n        /* \"contracts/erc721.sol\":3771:3812  _isApprovedOrOwner(_msgSender(), tokenId) */\n      tag_112\n        /* \"contracts/erc721.sol\":3790:3802  _msgSender() */\n      tag_113\n        /* \"contracts/erc721.sol\":3790:3800  _msgSender */\n      tag_102\n        /* \"contracts/erc721.sol\":3790:3802  _msgSender() */\n      jump\t// in\n    tag_113:\n        /* \"contracts/erc721.sol\":3804:3811  tokenId */\n      dup3\n        /* \"contracts/erc721.sol\":3771:3789  _isApprovedOrOwner */\n      tag_114\n        /* \"contracts/erc721.sol\":3771:3812  _isApprovedOrOwner(_msgSender(), tokenId) */\n      jump\t// in\n    tag_112:\n        /* \"contracts/erc721.sol\":3763:3862  require(_isApprovedOrOwner(_msgSender(), tokenId), \"ERC721: caller is not token owner or approved\") */\n      tag_115\n      jumpi\n      mload(0x40)\n      0x08c379a000000000000000000000000000000000000000000000000000000000\n      dup2\n      mstore\n      0x04\n      add\n      tag_116\n      swap1\n      tag_117\n      jump\t// in\n    tag_116:\n      mload(0x40)\n      dup1\n      swap2\n      sub\n      swap1\n      revert\n    tag_115:\n        /* \"contracts/erc721.sol\":3875:3903  _transfer(from, to, tokenId) */\n      tag_118\n        /* \"contracts/erc721.sol\":3885:3889  from */\n      dup4\n        /* \"contracts/erc721.sol\":3891:3893  to */\n      dup4\n        /* \"contracts/erc721.sol\":3895:3902  tokenId */\n      dup4\n        /* \"contracts/erc721.sol\":3875:3884  _transfer */\n      tag_119\n        /* \"contracts/erc721.sol\":3875:3903  _transfer(from, to, tokenId) */\n      jump\t// in\n    tag_118:\n        /* \"contracts/erc721.sol\":3629:3911  function transferFrom(\r... */\n      pop\n      pop\n      pop\n      jump\t// out\n        /* \"contracts/erc721.sol\":3921:4106  function safeTransferFrom(\r... */\n    tag_46:\n        /* \"contracts/erc721.sol\":4059:4098  safeTransferFrom(from, to, tokenId, \"\") */\n      tag_121\n        /* \"contracts/erc721.sol\":4076:4080  from */\n      dup4\n        /* \"contracts/erc721.sol\":4082:4084  to */\n      dup4\n        /* \"contracts/erc721.sol\":4086:4093  tokenId */\n      dup4\n        /* \"contracts/erc721.sol\":4059:4098  safeTransferFrom(from, to, tokenId, \"\") */\n      mload(0x40)\n      dup1\n      0x20\n      add\n      0x40\n      mstore\n      dup1\n      0x00\n      dup2\n      mstore\n      pop\n        /* \"contracts/erc721.sol\":4059:4075  safeTransferFrom */\n      tag_67\n        /* \"contracts/erc721.sol\":4059:4098  safeTransferFrom(from, to, tokenId, \"\") */\n      jump\t// in\n    tag_121:\n        /* \"contracts/erc721.sol\":3921:4106  function safeTransferFrom(\r... */\n      pop\n      pop\n      pop\n      jump\t// out\n        /* \"contracts/erc721.sol\":1830:2052  function ownerOf(uint256 tokenId) public view virtual override returns (address) {\r... */\n    tag_49:\n        /* \"contracts/erc721.sol\":1902:1909  address */\n      0x00\n        /* \"contracts/erc721.sol\":1922:1935  address owner */\n      dup1\n        /* \"contracts/erc721.sol\":1938:1945  _owners */\n      0x02\n        /* \"contracts/erc721.sol\":1938:1954  _owners[tokenId] */\n      0x00\n        /* \"contracts/erc721.sol\":1946:1953  tokenId */\n      dup5\n        /* \"contracts/erc721.sol\":1938:1954  _owners[tokenId] */\n      dup2\n      mstore\n      0x20\n      add\n      swap1\n      dup2\n      mstore\n      0x20\n      add\n      0x00\n      keccak256\n      0x00\n      swap1\n      sload\n      swap1\n      0x0100\n      exp\n      swap1\n      div\n      0xffffffffffffffffffffffffffffffffffffffff\n      and\n        /* \"contracts/erc721.sol\":1922:1954  address owner = _owners[tokenId] */\n      swap1\n      pop\n        /* \"contracts/erc721.sol\":1990:1991  0 */\n      0x00\n        /* \"contracts/erc721.sol\":1973:1992  owner != address(0) */\n      0xffffffffffffffffffffffffffffffffffffffff\n      and\n        /* \"contracts/erc721.sol\":1973:1978  owner */\n      dup2\n        /* \"contracts/erc721.sol\":1973:1992  owner != address(0) */\n      0xffffffffffffffffffffffffffffffffffffffff\n      and\n      eq\n      iszero\n        /* \"contracts/erc721.sol\":1965:2021  require(owner != address(0), \"ERC721: invalid token ID\") */\n      tag_123\n      jumpi\n      mload(0x40)\n      0x08c379a000000000000000000000000000000000000000000000000000000000\n      dup2\n      mstore\n      0x04\n      add\n      tag_124\n      swap1\n      tag_125\n      jump\t// in\n    tag_124:\n      mload(0x40)\n      dup1\n      swap2\n      sub\n      swap1\n      revert\n    tag_123:\n        /* \"contracts/erc721.sol\":2039:2044  owner */\n      dup1\n        /* \"contracts/erc721.sol\":2032:2044  return owner */\n      swap2\n      pop\n      pop\n        /* \"contracts/erc721.sol\":1830:2052  function ownerOf(uint256 tokenId) public view virtual override returns (address) {\r... */\n      swap2\n      swap1\n      pop\n      jump\t// out\n        /* \"contracts/erc721.sol\":1613:1820  function balanceOf(address owner) public view virtual override returns (uint256) {\r... */\n    tag_54:\n        /* \"contracts/erc721.sol\":1685:1692  uint256 */\n      0x00\n        /* \"contracts/erc721.sol\":1730:1731  0 */\n      dup1\n        /* \"contracts/erc721.sol\":1713:1732  owner != address(0) */\n      0xffffffffffffffffffffffffffffffffffffffff\n      and\n        /* \"contracts/erc721.sol\":1713:1718  owner */\n      dup3\n        /* \"contracts/erc721.sol\":1713:1732  owner != address(0) */\n      0xffffffffffffffffffffffffffffffffffffffff\n      and\n      eq\n      iszero\n        /* \"contracts/erc721.sol\":1705:1778  require(owner != address(0), \"ERC721: address zero is not a valid owner\") */\n      tag_127\n      jumpi\n      mload(0x40)\n      0x08c379a000000000000000000000000000000000000000000000000000000000\n      dup2\n      mstore\n      0x04\n      add\n      tag_128\n      swap1\n      tag_129\n      jump\t// in\n    tag_128:\n      mload(0x40)\n      dup1\n      swap2\n      sub\n      swap1\n      revert\n    tag_127:\n        /* \"contracts/erc721.sol\":1796:1805  _balances */\n      0x04\n        /* \"contracts/erc721.sol\":1796:1812  _balances[owner] */\n      0x00\n        /* \"contracts/erc721.sol\":1806:1811  owner */\n      dup4\n        /* \"contracts/erc721.sol\":1796:1812  _balances[owner] */\n      0xffffffffffffffffffffffffffffffffffffffff\n      and\n      0xffffffffffffffffffffffffffffffffffffffff\n      and\n      dup2\n      mstore\n      0x20\n      add\n      swap1\n      dup2\n      mstore\n      0x20\n      add\n      0x00\n      keccak256\n      sload\n        /* \"contracts/erc721.sol\":1789:1812  return _balances[owner] */\n      swap1\n      pop\n        /* \"contracts/erc721.sol\":1613:1820  function balanceOf(address owner) public view virtual override returns (uint256) {\r... */\n      swap2\n      swap1\n      pop\n      jump\t// out\n        /* \"contracts/erc721.sol\":2173:2277  function symbol() public view virtual override returns (string memory) {\r... */\n    tag_58:\n        /* \"contracts/erc721.sol\":2229:2242  string memory */\n      0x60\n        /* \"contracts/erc721.sol\":2262:2269  _symbol */\n      0x01\n        /* \"contracts/erc721.sol\":2255:2269  return _symbol */\n      dup1\n      sload\n      tag_131\n      swap1\n      tag_88\n      jump\t// in\n    tag_131:\n      dup1\n      0x1f\n      add\n      0x20\n      dup1\n      swap2\n      div\n      mul\n      0x20\n      add\n      mload(0x40)\n      swap1\n      dup2\n      add\n      0x40\n      mstore\n      dup1\n      swap3\n      swap2\n      swap1\n      dup2\n      dup2\n      mstore\n      0x20\n      add\n      dup3\n      dup1\n      sload\n      tag_132\n      swap1\n      tag_88\n      jump\t// in\n    tag_132:\n      dup1\n      iszero\n      tag_133\n      jumpi\n      dup1\n      0x1f\n      lt\n      tag_134\n      jumpi\n      0x0100\n      dup1\n      dup4\n      sload\n      div\n      mul\n      dup4\n      mstore\n      swap2\n      0x20\n      add\n      swap2\n      jump(tag_133)\n    tag_134:\n      dup3\n      add\n      swap2\n      swap1\n      0x00\n      mstore\n      keccak256(0x00, 0x20)\n      swap1\n    tag_135:\n      dup2\n      sload\n      dup2\n      mstore\n      swap1\n      0x01\n      add\n      swap1\n      0x20\n      add\n      dup1\n      dup4\n      gt\n      tag_135\n      jumpi\n      dup3\n      swap1\n      sub\n      0x1f\n      and\n      dup3\n      add\n      swap2\n    tag_133:\n      pop\n      pop\n      pop\n      pop\n      pop\n      swap1\n      pop\n        /* \"contracts/erc721.sol\":2173:2277  function symbol() public view virtual override returns (string memory) {\r... */\n      swap1\n      jump\t// out\n        /* \"contracts/erc721.sol\":3290:3445  function setApprovalForAll(address operator, bool approved) public virtual override {\r... */\n    tag_63:\n        /* \"contracts/erc721.sol\":3385:3437  _setApprovalForAll(_msgSender(), operator, approved) */\n      tag_137\n        /* \"contracts/erc721.sol\":3404:3416  _msgSender() */\n      tag_138\n        /* \"contracts/erc721.sol\":3404:3414  _msgSender */\n      tag_102\n        /* \"contracts/erc721.sol\":3404:3416  _msgSender() */\n      jump\t// in\n    tag_138:\n        /* \"contracts/erc721.sol\":3418:3426  operator */\n      dup4\n        /* \"contracts/erc721.sol\":3428:3436  approved */\n      dup4\n        /* \"contracts/erc721.sol\":3385:3403  _setApprovalForAll */\n      tag_139\n        /* \"contracts/erc721.sol\":3385:3437  _setApprovalForAll(_msgSender(), operator, approved) */\n      jump\t// in\n    tag_137:\n        /* \"contracts/erc721.sol\":3290:3445  function setApprovalForAll(address operator, bool approved) public virtual override {\r... */\n      pop\n      pop\n      jump\t// out\n        /* \"contracts/erc721.sol\":4116:4438  function safeTransferFrom(\r... */\n    tag_67:\n        /* \"contracts/erc721.sol\":4290:4331  _isApprovedOrOwner(_msgSender(), tokenId) */\n      tag_141\n        /* \"contracts/erc721.sol\":4309:4321  _msgSender() */\n      tag_142\n        /* \"contracts/erc721.sol\":4309:4319  _msgSender */\n      tag_102\n        /* \"contracts/erc721.sol\":4309:4321  _msgSender() */\n      jump\t// in\n    tag_142:\n        /* \"contracts/erc721.sol\":4323:4330  tokenId */\n      dup4\n        /* \"contracts/erc721.sol\":4290:4308  _isApprovedOrOwner */\n      tag_114\n        /* \"contracts/erc721.sol\":4290:4331  _isApprovedOrOwner(_msgSender(), tokenId) */\n      jump\t// in\n    tag_141:\n        /* \"contracts/erc721.sol\":4282:4381  require(_isApprovedOrOwner(_msgSender(), tokenId), \"ERC721: caller is not token owner or approved\") */\n      tag_143\n      jumpi\n      mload(0x40)\n      0x08c379a000000000000000000000000000000000000000000000000000000000\n      dup2\n      mstore\n      0x04\n      add\n      tag_144\n      swap1\n      tag_117\n      jump\t// in\n    tag_144:\n      mload(0x40)\n      dup1\n      swap2\n      sub\n      swap1\n      revert\n    tag_143:\n        /* \"contracts/erc721.sol\":4392:4430  _safeTransfer(from, to, tokenId, data) */\n      tag_145\n        /* \"contracts/erc721.sol\":4406:4410  from */\n      dup5\n        /* \"contracts/erc721.sol\":4412:4414  to */\n      dup5\n        /* \"contracts/erc721.sol\":4416:4423  tokenId */\n      dup5\n        /* \"contracts/erc721.sol\":4425:4429  data */\n      dup5\n        /* \"contracts/erc721.sol\":4392:4405  _safeTransfer */\n      tag_146\n        /* \"contracts/erc721.sol\":4392:4430  _safeTransfer(from, to, tokenId, data) */\n      jump\t// in\n    tag_145:\n        /* \"contracts/erc721.sol\":4116:4438  function safeTransferFrom(\r... */\n      pop\n      pop\n      pop\n      pop\n      jump\t// out\n        /* \"contracts/erc721.sol\":2285:2566  function tokenURI(uint256 tokenId) public view virtual override returns (string memory) {\r... */\n    tag_70:\n        /* \"contracts/erc721.sol\":2358:2371  string memory */\n      0x60\n        /* \"contracts/erc721.sol\":2384:2407  _requireMinted(tokenId) */\n      tag_148\n        /* \"contracts/erc721.sol\":2399:2406  tokenId */\n      dup3\n        /* \"contracts/erc721.sol\":2384:2398  _requireMinted */\n      tag_95\n        /* \"contracts/erc721.sol\":2384:2407  _requireMinted(tokenId) */\n      jump\t// in\n    tag_148:\n        /* \"contracts/erc721.sol\":2420:2441  string memory baseURI */\n      0x00\n        /* \"contracts/erc721.sol\":2444:2454  _baseURI() */\n      tag_149\n        /* \"contracts/erc721.sol\":2444:2452  _baseURI */\n      tag_150\n        /* \"contracts/erc721.sol\":2444:2454  _baseURI() */\n      jump\t// in\n    tag_149:\n        /* \"contracts/erc721.sol\":2420:2454  string memory baseURI = _baseURI() */\n      swap1\n      pop\n        /* \"contracts/erc721.sol\":2496:2497  0 */\n      0x00\n        /* \"contracts/erc721.sol\":2478:2485  baseURI */\n      dup2\n        /* \"contracts/erc721.sol\":2472:2493  bytes(baseURI).length */\n      mload\n        /* \"contracts/erc721.sol\":2472:2497  bytes(baseURI).length > 0 */\n      gt\n        /* \"contracts/erc721.sol\":2472:2558  bytes(baseURI).length > 0 ? string(abi.encodePacked(baseURI, tokenId.toString())) : \"\" */\n      tag_151\n      jumpi\n      mload(0x40)\n      dup1\n      0x20\n      add\n      0x40\n      mstore\n      dup1\n      0x00\n      dup2\n      mstore\n      pop\n      jump(tag_152)\n    tag_151:\n        /* \"contracts/erc721.sol\":2524:2531  baseURI */\n      dup1\n        /* \"contracts/erc721.sol\":2533:2551  tokenId.toString() */\n      tag_153\n        /* \"contracts/erc721.sol\":2533:2540  tokenId */\n      dup5\n        /* \"contracts/erc721.sol\":2533:2549  tokenId.toString */\n      tag_154\n        /* \"contracts/erc721.sol\":2533:2551  tokenId.toString() */\n      jump\t// in\n    tag_153:\n        /* \"contracts/erc721.sol\":2507:2552  abi.encodePacked(baseURI, tokenId.toString()) */\n      add(0x20, mload(0x40))\n      tag_155\n      swap3\n      swap2\n      swap1\n      tag_156\n      jump\t// in\n    tag_155:\n      mload(0x40)\n      0x20\n      dup2\n      dup4\n      sub\n      sub\n      dup2\n      mstore\n      swap1\n      0x40\n      mstore\n        /* \"contracts/erc721.sol\":2472:2558  bytes(baseURI).length > 0 ? string(abi.encodePacked(baseURI, tokenId.toString())) : \"\" */\n    tag_152:\n        /* \"contracts/erc721.sol\":2465:2558  return bytes(baseURI).length > 0 ? string(abi.encodePacked(baseURI, tokenId.toString())) : \"\" */\n      swap2\n      pop\n      pop\n        /* \"contracts/erc721.sol\":2285:2566  function tokenURI(uint256 tokenId) public view virtual override returns (string memory) {\r... */\n      swap2\n      swap1\n      pop\n      jump\t// out\n        /* \"contracts/erc721.sol\":4447:4592  function safeMint(address to,uint tokenId,string memory uri) public{\r... */\n    tag_75:\n        /* \"contracts/erc721.sol\":4525:4547  _safeMint(to, tokenId) */\n      tag_158\n        /* \"contracts/erc721.sol\":4535:4537  to */\n      dup4\n        /* \"contracts/erc721.sol\":4539:4546  tokenId */\n      dup4\n        /* \"contracts/erc721.sol\":4525:4534  _safeMint */\n      tag_159\n        /* \"contracts/erc721.sol\":4525:4547  _safeMint(to, tokenId) */\n      jump\t// in\n    tag_158:\n        /* \"contracts/erc721.sol\":4558:4584  _setTokenURI(tokenId, uri) */\n      tag_160\n        /* \"contracts/erc721.sol\":4571:4578  tokenId */\n      dup3\n        /* \"contracts/erc721.sol\":4580:4583  uri */\n      dup3\n        /* \"contracts/erc721.sol\":4558:4570  _setTokenURI */\n      tag_161\n        /* \"contracts/erc721.sol\":4558:4584  _setTokenURI(tokenId, uri) */\n      jump\t// in\n    tag_160:\n        /* \"contracts/erc721.sol\":4447:4592  function safeMint(address to,uint tokenId,string memory uri) public{\r... */\n      pop\n      pop\n      pop\n      jump\t// out\n        /* \"contracts/erc721.sol\":3455:3619  function isApprovedForAll(address owner, address operator) public view virtual override returns (bool) {\r... */\n    tag_79:\n        /* \"contracts/erc721.sol\":3552:3556  bool */\n      0x00\n        /* \"contracts/erc721.sol\":3576:3594  _operatorApprovals */\n      0x06\n        /* \"contracts/erc721.sol\":3576:3601  _operatorApprovals[owner] */\n      0x00\n        /* \"contracts/erc721.sol\":3595:3600  owner */\n      dup5\n        /* \"contracts/erc721.sol\":3576:3601  _operatorApprovals[owner] */\n      0xffffffffffffffffffffffffffffffffffffffff\n      and\n      0xffffffffffffffffffffffffffffffffffffffff\n      and\n      dup2\n      mstore\n      0x20\n      add\n      swap1\n      dup2\n      mstore\n      0x20\n      add\n      0x00\n      keccak256\n        /* \"contracts/erc721.sol\":3576:3611  _operatorApprovals[owner][operator] */\n      0x00\n        /* \"contracts/erc721.sol\":3602:3610  operator */\n      dup4\n        /* \"contracts/erc721.sol\":3576:3611  _operatorApprovals[owner][operator] */\n      0xffffffffffffffffffffffffffffffffffffffff\n      and\n      0xffffffffffffffffffffffffffffffffffffffff\n      and\n      dup2\n      mstore\n      0x20\n      add\n      swap1\n      dup2\n      mstore\n      0x20\n      add\n      0x00\n      keccak256\n      0x00\n      swap1\n      sload\n      swap1\n      0x0100\n      exp\n      swap1\n      div\n      0xff\n      and\n        /* \"contracts/erc721.sol\":3569:3611  return _operatorApprovals[owner][operator] */\n      swap1\n      pop\n        /* \"contracts/erc721.sol\":3455:3619  function isApprovedForAll(address owner, address operator) public view virtual override returns (bool) {\r... */\n      swap3\n      swap2\n      pop\n      pop\n      jump\t// out\n        /* \"@openzeppelin/contracts@4.6.0/utils/introspection/ERC165.sol\":829:984  function supportsInterface(bytes4 interfaceId) public view virtual override returns (bool) {... */\n    tag_85:\n        /* \"@openzeppelin/contracts@4.6.0/utils/introspection/ERC165.sol\":914:918  bool */\n      0x00\n        /* \"@openzeppelin/contracts@4.6.0/utils/introspection/ERC165.sol\":952:977  type(IERC165).interfaceId */\n      0x01ffc9a700000000000000000000000000000000000000000000000000000000\n        /* \"@openzeppelin/contracts@4.6.0/utils/introspection/ERC165.sol\":937:977  interfaceId == type(IERC165).interfaceId */\n      not(0xffffffffffffffffffffffffffffffffffffffffffffffffffffffff)\n      and\n        /* \"@openzeppelin/contracts@4.6.0/utils/introspection/ERC165.sol\":937:948  interfaceId */\n      dup3\n        /* \"@openzeppelin/contracts@4.6.0/utils/introspection/ERC165.sol\":937:977  interfaceId == type(IERC165).interfaceId */\n      not(0xffffffffffffffffffffffffffffffffffffffffffffffffffffffff)\n      and\n      eq\n        /* \"@openzeppelin/contracts@4.6.0/utils/introspection/ERC165.sol\":930:977  return interfaceId == type(IERC165).interfaceId */\n      swap1\n      pop\n        /* \"@openzeppelin/contracts@4.6.0/utils/introspection/ERC165.sol\":829:984  function supportsInterface(bytes4 interfaceId) public view virtual override returns (bool) {... */\n      swap2\n      swap1\n      pop\n      jump\t// out\n        /* \"contracts/erc721.sol\":8323:8458  function _requireMinted(uint256 tokenId) internal view virtual {\r... */\n    tag_95:\n        /* \"contracts/erc721.sol\":8405:8421  _exists(tokenId) */\n      tag_165\n        /* \"contracts/erc721.sol\":8413:8420  tokenId */\n      dup2\n        /* \"contracts/erc721.sol\":8405:8412  _exists */\n      tag_166\n        /* \"contracts/erc721.sol\":8405:8421  _exists(tokenId) */\n      jump\t// in\n    tag_165:\n        /* \"contracts/erc721.sol\":8397:8450  require(_exists(tokenId), \"ERC721: invalid token ID\") */\n      tag_167\n      jumpi\n      mload(0x40)\n      0x08c379a000000000000000000000000000000000000000000000000000000000\n      dup2\n      mstore\n      0x04\n      add\n      tag_168\n      swap1\n      tag_125\n      jump\t// in\n    tag_168:\n      mload(0x40)\n      dup1\n      swap2\n      sub\n      swap1\n      revert\n    tag_167:\n        /* \"contracts/erc721.sol\":8323:8458  function _requireMinted(uint256 tokenId) internal view virtual {\r... */\n      pop\n      jump\t// out\n        /* \"@openzeppelin/contracts@4.6.0/utils/Context.sol\":640:736  function _msgSender() internal view virtual returns (address) {... */\n    tag_102:\n        /* \"@openzeppelin/contracts@4.6.0/utils/Context.sol\":693:700  address */\n      0x00\n        /* \"@openzeppelin/contracts@4.6.0/utils/Context.sol\":719:729  msg.sender */\n      caller\n        /* \"@openzeppelin/contracts@4.6.0/utils/Context.sol\":712:729  return msg.sender */\n      swap1\n      pop\n        /* \"@openzeppelin/contracts@4.6.0/utils/Context.sol\":640:736  function _msgSender() internal view virtual returns (address) {... */\n      swap1\n      jump\t// out\n        /* \"contracts/erc721.sol\":7818:7992  function _approve(address to, uint256 tokenId) internal virtual {\r... */\n    tag_110:\n        /* \"contracts/erc721.sol\":7920:7922  to */\n      dup2\n        /* \"contracts/erc721.sol\":7893:7908  _tokenApprovals */\n      0x05\n        /* \"contracts/erc721.sol\":7893:7917  _tokenApprovals[tokenId] */\n      0x00\n        /* \"contracts/erc721.sol\":7909:7916  tokenId */\n      dup4\n        /* \"contracts/erc721.sol\":7893:7917  _tokenApprovals[tokenId] */\n      dup2\n      mstore\n      0x20\n      add\n      swap1\n      dup2\n      mstore\n      0x20\n      add\n      0x00\n      keccak256\n      0x00\n        /* \"contracts/erc721.sol\":7893:7922  _tokenApprovals[tokenId] = to */\n      0x0100\n      exp\n      dup2\n      sload\n      dup2\n      0xffffffffffffffffffffffffffffffffffffffff\n      mul\n      not\n      and\n      swap1\n      dup4\n      0xffffffffffffffffffffffffffffffffffffffff\n      and\n      mul\n      or\n      swap1\n      sstore\n      pop\n        /* \"contracts/erc721.sol\":7976:7983  tokenId */\n      dup1\n        /* \"contracts/erc721.sol\":7972:7974  to */\n      dup3\n        /* \"contracts/erc721.sol\":7938:7984  Approval(ERC721.ownerOf(tokenId), to, tokenId) */\n      0xffffffffffffffffffffffffffffffffffffffff\n      and\n        /* \"contracts/erc721.sol\":7947:7970  ERC721.ownerOf(tokenId) */\n      tag_171\n        /* \"contracts/erc721.sol\":7962:7969  tokenId */\n      dup4\n        /* \"contracts/erc721.sol\":7947:7961  ERC721.ownerOf */\n      tag_49\n        /* \"contracts/erc721.sol\":7947:7970  ERC721.ownerOf(tokenId) */\n      jump\t// in\n    tag_171:\n        /* \"contracts/erc721.sol\":7938:7984  Approval(ERC721.ownerOf(tokenId), to, tokenId) */\n      0xffffffffffffffffffffffffffffffffffffffff\n      and\n      0x8c5be1e5ebec7d5bd14f71427d1e84f3dd0314c0f7b2291e5b200ac8c7c3b925\n      mload(0x40)\n      mload(0x40)\n      dup1\n      swap2\n      sub\n      swap1\n      log4\n        /* \"contracts/erc721.sol\":7818:7992  function _approve(address to, uint256 tokenId) internal virtual {\r... */\n      pop\n      pop\n      jump\t// out\n        /* \"contracts/erc721.sol\":5058:5322  function _isApprovedOrOwner(address spender, uint256 tokenId) internal view virtual returns (bool) {\r... */\n    tag_114:\n        /* \"contracts/erc721.sol\":5151:5155  bool */\n      0x00\n        /* \"contracts/erc721.sol\":5168:5181  address owner */\n      dup1\n        /* \"contracts/erc721.sol\":5184:5207  ERC721.ownerOf(tokenId) */\n      tag_173\n        /* \"contracts/erc721.sol\":5199:5206  tokenId */\n      dup4\n        /* \"contracts/erc721.sol\":5184:5198  ERC721.ownerOf */\n      tag_49\n        /* \"contracts/erc721.sol\":5184:5207  ERC721.ownerOf(tokenId) */\n      jump\t// in\n    tag_173:\n        /* \"contracts/erc721.sol\":5168:5207  address owner = ERC721.ownerOf(tokenId) */\n      swap1\n      pop\n        /* \"contracts/erc721.sol\":5237:5242  owner */\n      dup1\n        /* \"contracts/erc721.sol\":5226:5242  spender == owner */\n      0xffffffffffffffffffffffffffffffffffffffff\n      and\n        /* \"contracts/erc721.sol\":5226:5233  spender */\n      dup5\n        /* \"contracts/erc721.sol\":5226:5242  spender == owner */\n      0xffffffffffffffffffffffffffffffffffffffff\n      and\n      eq\n        /* \"contracts/erc721.sol\":5226:5278  spender == owner || isApprovedForAll(owner, spender) */\n      dup1\n      tag_174\n      jumpi\n      pop\n        /* \"contracts/erc721.sol\":5246:5278  isApprovedForAll(owner, spender) */\n      tag_175\n        /* \"contracts/erc721.sol\":5263:5268  owner */\n      dup2\n        /* \"contracts/erc721.sol\":5270:5277  spender */\n      dup6\n        /* \"contracts/erc721.sol\":5246:5262  isApprovedForAll */\n      tag_79\n        /* \"contracts/erc721.sol\":5246:5278  isApprovedForAll(owner, spender) */\n      jump\t// in\n    tag_175:\n        /* \"contracts/erc721.sol\":5226:5278  spender == owner || isApprovedForAll(owner, spender) */\n    tag_174:\n        /* \"contracts/erc721.sol\":5226:5313  spender == owner || isApprovedForAll(owner, spender) || getApproved(tokenId) == spender */\n      dup1\n      tag_176\n      jumpi\n      pop\n        /* \"contracts/erc721.sol\":5306:5313  spender */\n      dup4\n        /* \"contracts/erc721.sol\":5282:5313  getApproved(tokenId) == spender */\n      0xffffffffffffffffffffffffffffffffffffffff\n      and\n        /* \"contracts/erc721.sol\":5282:5302  getApproved(tokenId) */\n      tag_177\n        /* \"contracts/erc721.sol\":5294:5301  tokenId */\n      dup5\n        /* \"contracts/erc721.sol\":5282:5293  getApproved */\n      tag_33\n        /* \"contracts/erc721.sol\":5282:5302  getApproved(tokenId) */\n      jump\t// in\n    tag_177:\n        /* \"contracts/erc721.sol\":5282:5313  getApproved(tokenId) == spender */\n      0xffffffffffffffffffffffffffffffffffffffff\n      and\n      eq\n        /* \"contracts/erc721.sol\":5226:5313  spender == owner || isApprovedForAll(owner, spender) || getApproved(tokenId) == spender */\n    tag_176:\n        /* \"contracts/erc721.sol\":5218:5314  return (spender == owner || isApprovedForAll(owner, spender) || getApproved(tokenId) == spender) */\n      swap2\n      pop\n      pop\n        /* \"contracts/erc721.sol\":5058:5322  function _isApprovedOrOwner(address spender, uint256 tokenId) internal view virtual returns (bool) {\r... */\n      swap3\n      swap2\n      pop\n      pop\n      jump\t// out\n        /* \"contracts/erc721.sol\":7045:7808  function _transfer(\r... */\n    tag_119:\n        /* \"contracts/erc721.sol\":7204:7208  from */\n      dup3\n        /* \"contracts/erc721.sol\":7177:7208  ERC721.ownerOf(tokenId) == from */\n      0xffffffffffffffffffffffffffffffffffffffff\n      and\n        /* \"contracts/erc721.sol\":7177:7200  ERC721.ownerOf(tokenId) */\n      tag_179\n        /* \"contracts/erc721.sol\":7192:7199  tokenId */\n      dup3\n        /* \"contracts/erc721.sol\":7177:7191  ERC721.ownerOf */\n      tag_49\n        /* \"contracts/erc721.sol\":7177:7200  ERC721.ownerOf(tokenId) */\n      jump\t// in\n    tag_179:\n        /* \"contracts/erc721.sol\":7177:7208  ERC721.ownerOf(tokenId) == from */\n      0xffffffffffffffffffffffffffffffffffffffff\n      and\n      eq\n        /* \"contracts/erc721.sol\":7169:7250  require(ERC721.ownerOf(tokenId) == from, \"ERC721: transfer from incorrect owner\") */\n      tag_180\n      jumpi\n      mload(0x40)\n      0x08c379a000000000000000000000000000000000000000000000000000000000\n      dup2\n      mstore\n      0x04\n      add\n      tag_181\n      swap1\n      tag_182\n      jump\t// in\n    tag_181:\n      mload(0x40)\n      dup1\n      swap2\n      sub\n      swap1\n      revert\n    tag_180:\n        /* \"contracts/erc721.sol\":7283:7284  0 */\n      0x00\n        /* \"contracts/erc721.sol\":7269:7285  to != address(0) */\n      0xffffffffffffffffffffffffffffffffffffffff\n      and\n        /* \"contracts/erc721.sol\":7269:7271  to */\n      dup3\n        /* \"contracts/erc721.sol\":7269:7285  to != address(0) */\n      0xffffffffffffffffffffffffffffffffffffffff\n      and\n      eq\n      iszero\n        /* \"contracts/erc721.sol\":7261:7326  require(to != address(0), \"ERC721: transfer to the zero address\") */\n      tag_183\n      jumpi\n      mload(0x40)\n      0x08c379a000000000000000000000000000000000000000000000000000000000\n      dup2\n      mstore\n      0x04\n      add\n      tag_184\n      swap1\n      tag_185\n      jump\t// in\n    tag_184:\n      mload(0x40)\n      dup1\n      swap2\n      sub\n      swap1\n      revert\n    tag_183:\n        /* \"contracts/erc721.sol\":7339:7378  _beforeTokenTransfer(from, to, tokenId) */\n      tag_186\n        /* \"contracts/erc721.sol\":7360:7364  from */\n      dup4\n        /* \"contracts/erc721.sol\":7366:7368  to */\n      dup4\n        /* \"contracts/erc721.sol\":7370:7377  tokenId */\n      dup4\n        /* \"contracts/erc721.sol\":7339:7359  _beforeTokenTransfer */\n      tag_187\n        /* \"contracts/erc721.sol\":7339:7378  _beforeTokenTransfer(from, to, tokenId) */\n      jump\t// in\n    tag_186:\n        /* \"contracts/erc721.sol\":7426:7430  from */\n      dup3\n        /* \"contracts/erc721.sol\":7399:7430  ERC721.ownerOf(tokenId) == from */\n      0xffffffffffffffffffffffffffffffffffffffff\n      and\n        /* \"contracts/erc721.sol\":7399:7422  ERC721.ownerOf(tokenId) */\n      tag_188\n        /* \"contracts/erc721.sol\":7414:7421  tokenId */\n      dup3\n        /* \"contracts/erc721.sol\":7399:7413  ERC721.ownerOf */\n      tag_49\n        /* \"contracts/erc721.sol\":7399:7422  ERC721.ownerOf(tokenId) */\n      jump\t// in\n    tag_188:\n        /* \"contracts/erc721.sol\":7399:7430  ERC721.ownerOf(tokenId) == from */\n      0xffffffffffffffffffffffffffffffffffffffff\n      and\n      eq\n        /* \"contracts/erc721.sol\":7391:7472  require(ERC721.ownerOf(tokenId) == from, \"ERC721: transfer from incorrect owner\") */\n      tag_189\n      jumpi\n      mload(0x40)\n      0x08c379a000000000000000000000000000000000000000000000000000000000\n      dup2\n      mstore\n      0x04\n      add\n      tag_190\n      swap1\n      tag_182\n      jump\t// in\n    tag_190:\n      mload(0x40)\n      dup1\n      swap2\n      sub\n      swap1\n      revert\n    tag_189:\n        /* \"contracts/erc721.sol\":7544:7559  _tokenApprovals */\n      0x05\n        /* \"contracts/erc721.sol\":7544:7568  _tokenApprovals[tokenId] */\n      0x00\n        /* \"contracts/erc721.sol\":7560:7567  tokenId */\n      dup3\n        /* \"contracts/erc721.sol\":7544:7568  _tokenApprovals[tokenId] */\n      dup2\n      mstore\n      0x20\n      add\n      swap1\n      dup2\n      mstore\n      0x20\n      add\n      0x00\n      keccak256\n      0x00\n        /* \"contracts/erc721.sol\":7537:7568  delete _tokenApprovals[tokenId] */\n      0x0100\n      exp\n      dup2\n      sload\n      swap1\n      0xffffffffffffffffffffffffffffffffffffffff\n      mul\n      not\n      and\n      swap1\n      sstore\n        /* \"contracts/erc721.sol\":7627:7628  1 */\n      0x01\n        /* \"contracts/erc721.sol\":7608:7617  _balances */\n      0x04\n        /* \"contracts/erc721.sol\":7608:7623  _balances[from] */\n      0x00\n        /* \"contracts/erc721.sol\":7618:7622  from */\n      dup6\n        /* \"contracts/erc721.sol\":7608:7623  _balances[from] */\n      0xffffffffffffffffffffffffffffffffffffffff\n      and\n      0xffffffffffffffffffffffffffffffffffffffff\n      and\n      dup2\n      mstore\n      0x20\n      add\n      swap1\n      dup2\n      mstore\n      0x20\n      add\n      0x00\n      keccak256\n      0x00\n        /* \"contracts/erc721.sol\":7608:7628  _balances[from] -= 1 */\n      dup3\n      dup3\n      sload\n      sub\n      swap3\n      pop\n      pop\n      dup2\n      swap1\n      sstore\n      pop\n        /* \"contracts/erc721.sol\":7660:7661  1 */\n      0x01\n        /* \"contracts/erc721.sol\":7643:7652  _balances */\n      0x04\n        /* \"contracts/erc721.sol\":7643:7656  _balances[to] */\n      0x00\n        /* \"contracts/erc721.sol\":7653:7655  to */\n      dup5\n        /* \"contracts/erc721.sol\":7643:7656  _balances[to] */\n      0xffffffffffffffffffffffffffffffffffffffff\n      and\n      0xffffffffffffffffffffffffffffffffffffffff\n      and\n      dup2\n      mstore\n      0x20\n      add\n      swap1\n      dup2\n      mstore\n      0x20\n      add\n      0x00\n      keccak256\n      0x00\n        /* \"contracts/erc721.sol\":7643:7661  _balances[to] += 1 */\n      dup3\n      dup3\n      sload\n      add\n      swap3\n      pop\n      pop\n      dup2\n      swap1\n      sstore\n      pop\n        /* \"contracts/erc721.sol\":7702:7704  to */\n      dup2\n        /* \"contracts/erc721.sol\":7683:7690  _owners */\n      0x02\n        /* \"contracts/erc721.sol\":7683:7699  _owners[tokenId] */\n      0x00\n        /* \"contracts/erc721.sol\":7691:7698  tokenId */\n      dup4\n        /* \"contracts/erc721.sol\":7683:7699  _owners[tokenId] */\n      dup2\n      mstore\n      0x20\n      add\n      swap1\n      dup2\n      mstore\n      0x20\n      add\n      0x00\n      keccak256\n      0x00\n        /* \"contracts/erc721.sol\":7683:7704  _owners[tokenId] = to */\n      0x0100\n      exp\n      dup2\n      sload\n      dup2\n      0xffffffffffffffffffffffffffffffffffffffff\n      mul\n      not\n      and\n      swap1\n      dup4\n      0xffffffffffffffffffffffffffffffffffffffff\n      and\n      mul\n      or\n      swap1\n      sstore\n      pop\n        /* \"contracts/erc721.sol\":7741:7748  tokenId */\n      dup1\n        /* \"contracts/erc721.sol\":7737:7739  to */\n      dup3\n        /* \"contracts/erc721.sol\":7722:7749  Transfer(from, to, tokenId) */\n      0xffffffffffffffffffffffffffffffffffffffff\n      and\n        /* \"contracts/erc721.sol\":7731:7735  from */\n      dup5\n        /* \"contracts/erc721.sol\":7722:7749  Transfer(from, to, tokenId) */\n      0xffffffffffffffffffffffffffffffffffffffff\n      and\n      0xddf252ad1be2c89b69c2b068fc378daa952ba7f163c4a11628f55a4df523b3ef\n      mload(0x40)\n      mload(0x40)\n      dup1\n      swap2\n      sub\n      swap1\n      log4\n        /* \"contracts/erc721.sol\":7762:7800  _afterTokenTransfer(from, to, tokenId) */\n      tag_191\n        /* \"contracts/erc721.sol\":7782:7786  from */\n      dup4\n        /* \"contracts/erc721.sol\":7788:7790  to */\n      dup4\n        /* \"contracts/erc721.sol\":7792:7799  tokenId */\n      dup4\n        /* \"contracts/erc721.sol\":7762:7781  _afterTokenTransfer */\n      tag_192\n        /* \"contracts/erc721.sol\":7762:7800  _afterTokenTransfer(from, to, tokenId) */\n      jump\t// in\n    tag_191:\n        /* \"contracts/erc721.sol\":7045:7808  function _transfer(\r... */\n      pop\n      pop\n      pop\n      jump\t// out\n        /* \"contracts/erc721.sol\":8000:8315  function _setApprovalForAll(\r... */\n    tag_139:\n        /* \"contracts/erc721.sol\":8155:8163  operator */\n      dup2\n        /* \"contracts/erc721.sol\":8146:8163  owner != operator */\n      0xffffffffffffffffffffffffffffffffffffffff\n      and\n        /* \"contracts/erc721.sol\":8146:8151  owner */\n      dup4\n        /* \"contracts/erc721.sol\":8146:8163  owner != operator */\n      0xffffffffffffffffffffffffffffffffffffffff\n      and\n      eq\n      iszero\n        /* \"contracts/erc721.sol\":8138:8193  require(owner != operator, \"ERC721: approve to caller\") */\n      tag_194\n      jumpi\n      mload(0x40)\n      0x08c379a000000000000000000000000000000000000000000000000000000000\n      dup2\n      mstore\n      0x04\n      add\n      tag_195\n      swap1\n      tag_196\n      jump\t// in\n    tag_195:\n      mload(0x40)\n      dup1\n      swap2\n      sub\n      swap1\n      revert\n    tag_194:\n        /* \"contracts/erc721.sol\":8242:8250  approved */\n      dup1\n        /* \"contracts/erc721.sol\":8204:8222  _operatorApprovals */\n      0x06\n        /* \"contracts/erc721.sol\":8204:8229  _operatorApprovals[owner] */\n      0x00\n        /* \"contracts/erc721.sol\":8223:8228  owner */\n      dup6\n        /* \"contracts/erc721.sol\":8204:8229  _operatorApprovals[owner] */\n      0xffffffffffffffffffffffffffffffffffffffff\n      and\n      0xffffffffffffffffffffffffffffffffffffffff\n      and\n      dup2\n      mstore\n      0x20\n      add\n      swap1\n      dup2\n      mstore\n      0x20\n      add\n      0x00\n      keccak256\n        /* \"contracts/erc721.sol\":8204:8239  _operatorApprovals[owner][operator] */\n      0x00\n        /* \"contracts/erc721.sol\":8230:8238  operator */\n      dup5\n        /* \"contracts/erc721.sol\":8204:8239  _operatorApprovals[owner][operator] */\n      0xffffffffffffffffffffffffffffffffffffffff\n      and\n      0xffffffffffffffffffffffffffffffffffffffff\n      and\n      dup2\n      mstore\n      0x20\n      add\n      swap1\n      dup2\n      mstore\n      0x20\n      add\n      0x00\n      keccak256\n      0x00\n        /* \"contracts/erc721.sol\":8204:8250  _operatorApprovals[owner][operator] = approved */\n      0x0100\n      exp\n      dup2\n      sload\n      dup2\n      0xff\n      mul\n      not\n      and\n      swap1\n      dup4\n      iszero\n      iszero\n      mul\n      or\n      swap1\n      sstore\n      pop\n        /* \"contracts/erc721.sol\":8288:8296  operator */\n      dup2\n        /* \"contracts/erc721.sol\":8266:8307  ApprovalForAll(owner, operator, approved) */\n      0xffffffffffffffffffffffffffffffffffffffff\n      and\n        /* \"contracts/erc721.sol\":8281:8286  owner */\n      dup4\n        /* \"contracts/erc721.sol\":8266:8307  ApprovalForAll(owner, operator, approved) */\n      0xffffffffffffffffffffffffffffffffffffffff\n      and\n      0x17307eab39ab6107e8899845ad3d59bd9653f200f220920489ca2b5937696c31\n        /* \"contracts/erc721.sol\":8298:8306  approved */\n      dup4\n        /* \"contracts/erc721.sol\":8266:8307  ApprovalForAll(owner, operator, approved) */\n      mload(0x40)\n      tag_197\n      swap2\n      swap1\n      tag_25\n      jump\t// in\n    tag_197:\n      mload(0x40)\n      dup1\n      swap2\n      sub\n      swap1\n      log3\n        /* \"contracts/erc721.sol\":8000:8315  function _setApprovalForAll(\r... */\n      pop\n      pop\n      pop\n      jump\t// out\n        /* \"contracts/erc721.sol\":4600:4913  function _safeTransfer(\r... */\n    tag_146:\n        /* \"contracts/erc721.sol\":4756:4784  _transfer(from, to, tokenId) */\n      tag_199\n        /* \"contracts/erc721.sol\":4766:4770  from */\n      dup5\n        /* \"contracts/erc721.sol\":4772:4774  to */\n      dup5\n        /* \"contracts/erc721.sol\":4776:4783  tokenId */\n      dup5\n        /* \"contracts/erc721.sol\":4756:4765  _transfer */\n      tag_119\n        /* \"contracts/erc721.sol\":4756:4784  _transfer(from, to, tokenId) */\n      jump\t// in\n    tag_199:\n        /* \"contracts/erc721.sol\":4803:4850  _checkOnERC721Received(from, to, tokenId, data) */\n      tag_200\n        /* \"contracts/erc721.sol\":4826:4830  from */\n      dup5\n        /* \"contracts/erc721.sol\":4832:4834  to */\n      dup5\n        /* \"contracts/erc721.sol\":4836:4843  tokenId */\n      dup5\n        /* \"contracts/erc721.sol\":4845:4849  data */\n      dup5\n        /* \"contracts/erc721.sol\":4803:4825  _checkOnERC721Received */\n      tag_201\n        /* \"contracts/erc721.sol\":4803:4850  _checkOnERC721Received(from, to, tokenId, data) */\n      jump\t// in\n    tag_200:\n        /* \"contracts/erc721.sol\":4795:4905  require(_checkOnERC721Received(from, to, tokenId, data), \"ERC721: transfer to non ERC721Receiver implementer\") */\n      tag_202\n      jumpi\n      mload(0x40)\n      0x08c379a000000000000000000000000000000000000000000000000000000000\n      dup2\n      mstore\n      0x04\n      add\n      tag_203\n      swap1\n      tag_204\n      jump\t// in\n    tag_203:\n      mload(0x40)\n      dup1\n      swap2\n      sub\n      swap1\n      revert\n    tag_202:\n        /* \"contracts/erc721.sol\":4600:4913  function _safeTransfer(\r... */\n      pop\n      pop\n      pop\n      pop\n      jump\t// out\n        /* \"contracts/erc721.sol\":2578:2672  function _baseURI() internal view virtual returns (string memory) {\r... */\n    tag_150:\n        /* \"contracts/erc721.sol\":2629:2642  string memory */\n      0x60\n        /* \"contracts/erc721.sol\":2655:2664  return \"\" */\n      mload(0x40)\n      dup1\n      0x20\n      add\n      0x40\n      mstore\n      dup1\n      0x00\n      dup2\n      mstore\n      pop\n      swap1\n      pop\n        /* \"contracts/erc721.sol\":2578:2672  function _baseURI() internal view virtual returns (string memory) {\r... */\n      swap1\n      jump\t// out\n        /* \"@openzeppelin/contracts@4.6.0/utils/Strings.sol\":328:1031  function toString(uint256 value) internal pure returns (string memory) {... */\n    tag_154:\n        /* \"@openzeppelin/contracts@4.6.0/utils/Strings.sol\":384:397  string memory */\n      0x60\n        /* \"@openzeppelin/contracts@4.6.0/utils/Strings.sol\":610:611  0 */\n      0x00\n        /* \"@openzeppelin/contracts@4.6.0/utils/Strings.sol\":601:606  value */\n      dup3\n        /* \"@openzeppelin/contracts@4.6.0/utils/Strings.sol\":601:611  value == 0 */\n      eq\n        /* \"@openzeppelin/contracts@4.6.0/utils/Strings.sol\":597:648  if (value == 0) {... */\n      iszero\n      tag_207\n      jumpi\n        /* \"@openzeppelin/contracts@4.6.0/utils/Strings.sol\":627:637  return \"0\" */\n      mload(0x40)\n      dup1\n      0x40\n      add\n      0x40\n      mstore\n      dup1\n      0x01\n      dup2\n      mstore\n      0x20\n      add\n      0x3000000000000000000000000000000000000000000000000000000000000000\n      dup2\n      mstore\n      pop\n      swap1\n      pop\n      jump(tag_206)\n        /* \"@openzeppelin/contracts@4.6.0/utils/Strings.sol\":597:648  if (value == 0) {... */\n    tag_207:\n        /* \"@openzeppelin/contracts@4.6.0/utils/Strings.sol\":657:669  uint256 temp */\n      0x00\n        /* \"@openzeppelin/contracts@4.6.0/utils/Strings.sol\":672:677  value */\n      dup3\n        /* \"@openzeppelin/contracts@4.6.0/utils/Strings.sol\":657:677  uint256 temp = value */\n      swap1\n      pop\n        /* \"@openzeppelin/contracts@4.6.0/utils/Strings.sol\":687:701  uint256 digits */\n      0x00\n        /* \"@openzeppelin/contracts@4.6.0/utils/Strings.sol\":711:786  while (temp != 0) {... */\n    tag_208:\n        /* \"@openzeppelin/contracts@4.6.0/utils/Strings.sol\":726:727  0 */\n      0x00\n        /* \"@openzeppelin/contracts@4.6.0/utils/Strings.sol\":718:722  temp */\n      dup3\n        /* \"@openzeppelin/contracts@4.6.0/utils/Strings.sol\":718:727  temp != 0 */\n      eq\n        /* \"@openzeppelin/contracts@4.6.0/utils/Strings.sol\":711:786  while (temp != 0) {... */\n      tag_209\n      jumpi\n        /* \"@openzeppelin/contracts@4.6.0/utils/Strings.sol\":743:751  digits++ */\n      dup1\n      dup1\n      tag_210\n      swap1\n      tag_211\n      jump\t// in\n    tag_210:\n      swap2\n      pop\n      pop\n        /* \"@openzeppelin/contracts@4.6.0/utils/Strings.sol\":773:775  10 */\n      0x0a\n        /* \"@openzeppelin/contracts@4.6.0/utils/Strings.sol\":765:775  temp /= 10 */\n      dup3\n      tag_212\n      swap2\n      swap1\n      tag_213\n      jump\t// in\n    tag_212:\n      swap2\n      pop\n        /* \"@openzeppelin/contracts@4.6.0/utils/Strings.sol\":711:786  while (temp != 0) {... */\n      jump(tag_208)\n    tag_209:\n        /* \"@openzeppelin/contracts@4.6.0/utils/Strings.sol\":795:814  bytes memory buffer */\n      0x00\n        /* \"@openzeppelin/contracts@4.6.0/utils/Strings.sol\":827:833  digits */\n      dup2\n        /* \"@openzeppelin/contracts@4.6.0/utils/Strings.sol\":817:834  new bytes(digits) */\n      0xffffffffffffffff\n      dup2\n      gt\n      iszero\n      tag_214\n      jumpi\n      mstore(0x00, 0x4e487b7100000000000000000000000000000000000000000000000000000000)\n      mstore(0x04, 0x41)\n      revert(0x00, 0x24)\n    tag_214:\n      mload(0x40)\n      swap1\n      dup1\n      dup3\n      mstore\n      dup1\n      0x1f\n      add\n      not(0x1f)\n      and\n      0x20\n      add\n      dup3\n      add\n      0x40\n      mstore\n      dup1\n      iszero\n      tag_215\n      jumpi\n      dup2\n      0x20\n      add\n      0x01\n      dup3\n      mul\n      dup1\n      calldatasize\n      dup4\n      calldatacopy\n      dup1\n      dup3\n      add\n      swap2\n      pop\n      pop\n      swap1\n      pop\n    tag_215:\n      pop\n        /* \"@openzeppelin/contracts@4.6.0/utils/Strings.sol\":795:834  bytes memory buffer = new bytes(digits) */\n      swap1\n      pop\n        /* \"@openzeppelin/contracts@4.6.0/utils/Strings.sol\":844:994  while (value != 0) {... */\n    tag_216:\n        /* \"@openzeppelin/contracts@4.6.0/utils/Strings.sol\":860:861  0 */\n      0x00\n        /* \"@openzeppelin/contracts@4.6.0/utils/Strings.sol\":851:856  value */\n      dup6\n        /* \"@openzeppelin/contracts@4.6.0/utils/Strings.sol\":851:861  value != 0 */\n      eq\n        /* \"@openzeppelin/contracts@4.6.0/utils/Strings.sol\":844:994  while (value != 0) {... */\n      tag_217\n      jumpi\n        /* \"@openzeppelin/contracts@4.6.0/utils/Strings.sol\":887:888  1 */\n      0x01\n        /* \"@openzeppelin/contracts@4.6.0/utils/Strings.sol\":877:888  digits -= 1 */\n      dup3\n      tag_218\n      swap2\n      swap1\n      tag_219\n      jump\t// in\n    tag_218:\n      swap2\n      pop\n        /* \"@openzeppelin/contracts@4.6.0/utils/Strings.sol\":953:955  10 */\n      0x0a\n        /* \"@openzeppelin/contracts@4.6.0/utils/Strings.sol\":945:950  value */\n      dup6\n        /* \"@openzeppelin/contracts@4.6.0/utils/Strings.sol\":945:955  value % 10 */\n      tag_220\n      swap2\n      swap1\n      tag_221\n      jump\t// in\n    tag_220:\n        /* \"@openzeppelin/contracts@4.6.0/utils/Strings.sol\":932:934  48 */\n      0x30\n        /* \"@openzeppelin/contracts@4.6.0/utils/Strings.sol\":932:956  48 + uint256(value % 10) */\n      tag_222\n      swap2\n      swap1\n      tag_223\n      jump\t// in\n    tag_222:\n        /* \"@openzeppelin/contracts@4.6.0/utils/Strings.sol\":919:958  bytes1(uint8(48 + uint256(value % 10))) */\n      0xf8\n      shl\n        /* \"@openzeppelin/contracts@4.6.0/utils/Strings.sol\":902:908  buffer */\n      dup2\n        /* \"@openzeppelin/contracts@4.6.0/utils/Strings.sol\":909:915  digits */\n      dup4\n        /* \"@openzeppelin/contracts@4.6.0/utils/Strings.sol\":902:916  buffer[digits] */\n      dup2\n      mload\n      dup2\n      lt\n      tag_224\n      jumpi\n      mstore(0x00, 0x4e487b7100000000000000000000000000000000000000000000000000000000)\n      mstore(0x04, 0x32)\n      revert(0x00, 0x24)\n    tag_224:\n      0x20\n      add\n      add\n        /* \"@openzeppelin/contracts@4.6.0/utils/Strings.sol\":902:958  buffer[digits] = bytes1(uint8(48 + uint256(value % 10))) */\n      swap1\n      not(0xffffffffffffffffffffffffffffffffffffffffffffffffffffffffffffff)\n      and\n      swap1\n      dup2\n      0x00\n      byte\n      swap1\n      mstore8\n      pop\n        /* \"@openzeppelin/contracts@4.6.0/utils/Strings.sol\":981:983  10 */\n      0x0a\n        /* \"@openzeppelin/contracts@4.6.0/utils/Strings.sol\":972:983  value /= 10 */\n      dup6\n      tag_225\n      swap2\n      swap1\n      tag_213\n      jump\t// in\n    tag_225:\n      swap5\n      pop\n        /* \"@openzeppelin/contracts@4.6.0/utils/Strings.sol\":844:994  while (value != 0) {... */\n      jump(tag_216)\n    tag_217:\n        /* \"@openzeppelin/contracts@4.6.0/utils/Strings.sol\":1017:1023  buffer */\n      dup1\n        /* \"@openzeppelin/contracts@4.6.0/utils/Strings.sol\":1003:1024  return string(buffer) */\n      swap4\n      pop\n      pop\n      pop\n      pop\n        /* \"@openzeppelin/contracts@4.6.0/utils/Strings.sol\":328:1031  function toString(uint256 value) internal pure returns (string memory) {... */\n    tag_206:\n      swap2\n      swap1\n      pop\n      jump\t// out\n        /* \"contracts/erc721.sol\":5330:5440  function _safeMint(address to, uint256 tokenId) internal virtual {\r... */\n    tag_159:\n        /* \"contracts/erc721.sol\":5406:5432  _safeMint(to, tokenId, \"\") */\n      tag_227\n        /* \"contracts/erc721.sol\":5416:5418  to */\n      dup3\n        /* \"contracts/erc721.sol\":5420:5427  tokenId */\n      dup3\n        /* \"contracts/erc721.sol\":5406:5432  _safeMint(to, tokenId, \"\") */\n      mload(0x40)\n      dup1\n      0x20\n      add\n      0x40\n      mstore\n      dup1\n      0x00\n      dup2\n      mstore\n      pop\n        /* \"contracts/erc721.sol\":5406:5415  _safeMint */\n      tag_228\n        /* \"contracts/erc721.sol\":5406:5432  _safeMint(to, tokenId, \"\") */\n      jump\t// in\n    tag_227:\n        /* \"contracts/erc721.sol\":5330:5440  function _safeMint(address to, uint256 tokenId) internal virtual {\r... */\n      pop\n      pop\n      jump\t// out\n        /* \"contracts/erc721.sol\":6818:7035  function _setTokenURI(uint256 tokenId, string memory _tokenURI) internal virtual {\r... */\n    tag_161:\n        /* \"contracts/erc721.sol\":6918:6934  _exists(tokenId) */\n      tag_230\n        /* \"contracts/erc721.sol\":6926:6933  tokenId */\n      dup3\n        /* \"contracts/erc721.sol\":6918:6925  _exists */\n      tag_166\n        /* \"contracts/erc721.sol\":6918:6934  _exists(tokenId) */\n      jump\t// in\n    tag_230:\n        /* \"contracts/erc721.sol\":6910:6985  require(_exists(tokenId), \"ERC721URIStorage: URI set of nonexistent token\") */\n      tag_231\n      jumpi\n      mload(0x40)\n      0x08c379a000000000000000000000000000000000000000000000000000000000\n      dup2\n      mstore\n      0x04\n      add\n      tag_232\n      swap1\n      tag_233\n      jump\t// in\n    tag_232:\n      mload(0x40)\n      dup1\n      swap2\n      sub\n      swap1\n      revert\n    tag_231:\n        /* \"contracts/erc721.sol\":7018:7027  _tokenURI */\n      dup1\n        /* \"contracts/erc721.sol\":6996:7006  _tokenURIs */\n      0x07\n        /* \"contracts/erc721.sol\":6996:7015  _tokenURIs[tokenId] */\n      0x00\n        /* \"contracts/erc721.sol\":7007:7014  tokenId */\n      dup5\n        /* \"contracts/erc721.sol\":6996:7015  _tokenURIs[tokenId] */\n      dup2\n      mstore\n      0x20\n      add\n      swap1\n      dup2\n      mstore\n      0x20\n      add\n      0x00\n      keccak256\n        /* \"contracts/erc721.sol\":6996:7027  _tokenURIs[tokenId] = _tokenURI */\n      swap1\n      dup1\n      mload\n      swap1\n      0x20\n      add\n      swap1\n      tag_234\n      swap3\n      swap2\n      swap1\n      tag_235\n      jump\t// in\n    tag_234:\n      pop\n        /* \"contracts/erc721.sol\":6818:7035  function _setTokenURI(uint256 tokenId, string memory _tokenURI) internal virtual {\r... */\n      pop\n      pop\n      jump\t// out\n        /* \"contracts/erc721.sol\":4921:5048  function _exists(uint256 tokenId) internal view virtual returns (bool) {\r... */\n    tag_166:\n        /* \"contracts/erc721.sol\":4986:4990  bool */\n      0x00\n        /* \"contracts/erc721.sol\":5038:5039  0 */\n      dup1\n        /* \"contracts/erc721.sol\":5010:5040  _owners[tokenId] != address(0) */\n      0xffffffffffffffffffffffffffffffffffffffff\n      and\n        /* \"contracts/erc721.sol\":5010:5017  _owners */\n      0x02\n        /* \"contracts/erc721.sol\":5010:5026  _owners[tokenId] */\n      0x00\n        /* \"contracts/erc721.sol\":5018:5025  tokenId */\n      dup5\n        /* \"contracts/erc721.sol\":5010:5026  _owners[tokenId] */\n      dup2\n      mstore\n      0x20\n      add\n      swap1\n      dup2\n      mstore\n      0x20\n      add\n      0x00\n      keccak256\n      0x00\n      swap1\n      sload\n      swap1\n      0x0100\n      exp\n      swap1\n      div\n      0xffffffffffffffffffffffffffffffffffffffff\n      and\n        /* \"contracts/erc721.sol\":5010:5040  _owners[tokenId] != address(0) */\n      0xffffffffffffffffffffffffffffffffffffffff\n      and\n      eq\n      iszero\n        /* \"contracts/erc721.sol\":5003:5040  return _owners[tokenId] != address(0) */\n      swap1\n      pop\n        /* \"contracts/erc721.sol\":4921:5048  function _exists(uint256 tokenId) internal view virtual returns (bool) {\r... */\n      swap2\n      swap1\n      pop\n      jump\t// out\n        /* \"contracts/erc721.sol\":9331:9457  function _beforeTokenTransfer(\r... */\n    tag_187:\n      pop\n      pop\n      pop\n      jump\t// out\n        /* \"contracts/erc721.sol\":9465:9590  function _afterTokenTransfer(\r... */\n    tag_192:\n      pop\n      pop\n      pop\n      jump\t// out\n        /* \"contracts/erc721.sol\":8468:9321  function _checkOnERC721Received(\r... */\n    tag_201:\n        /* \"contracts/erc721.sol\":8622:8626  bool */\n      0x00\n        /* \"contracts/erc721.sol\":8643:8658  to.isContract() */\n      tag_240\n        /* \"contracts/erc721.sol\":8643:8645  to */\n      dup5\n        /* \"contracts/erc721.sol\":8643:8656  to.isContract */\n      0xffffffffffffffffffffffffffffffffffffffff\n      and\n      tag_241\n        /* \"contracts/erc721.sol\":8643:8658  to.isContract() */\n      jump\t// in\n    tag_240:\n        /* \"contracts/erc721.sol\":8639:9314  if (to.isContract()) {\r... */\n      iszero\n      tag_242\n      jumpi\n        /* \"contracts/erc721.sol\":8695:8697  to */\n      dup4\n        /* \"contracts/erc721.sol\":8679:8715  IERC721Receiver(to).onERC721Received */\n      0xffffffffffffffffffffffffffffffffffffffff\n      and\n      0x150b7a02\n        /* \"contracts/erc721.sol\":8716:8728  _msgSender() */\n      tag_243\n        /* \"contracts/erc721.sol\":8716:8726  _msgSender */\n      tag_102\n        /* \"contracts/erc721.sol\":8716:8728  _msgSender() */\n      jump\t// in\n    tag_243:\n        /* \"contracts/erc721.sol\":8730:8734  from */\n      dup8\n        /* \"contracts/erc721.sol\":8736:8743  tokenId */\n      dup7\n        /* \"contracts/erc721.sol\":8745:8749  data */\n      dup7\n        /* \"contracts/erc721.sol\":8679:8750  IERC721Receiver(to).onERC721Received(_msgSender(), from, tokenId, data) */\n      mload(0x40)\n      dup6\n      0xffffffff\n      and\n      0xe0\n      shl\n      dup2\n      mstore\n      0x04\n      add\n      tag_244\n      swap5\n      swap4\n      swap3\n      swap2\n      swap1\n      tag_245\n      jump\t// in\n    tag_244:\n      0x20\n      mload(0x40)\n      dup1\n      dup4\n      sub\n      dup2\n      0x00\n      dup8\n      dup1\n      extcodesize\n      iszero\n      dup1\n      iszero\n      tag_246\n      jumpi\n      0x00\n      dup1\n      revert\n    tag_246:\n      pop\n      gas\n      call\n      swap3\n      pop\n      pop\n      pop\n      dup1\n      iszero\n      tag_247\n      jumpi\n      pop\n      mload(0x40)\n      returndatasize\n      not(0x1f)\n      0x1f\n      dup3\n      add\n      and\n      dup3\n      add\n      dup1\n      0x40\n      mstore\n      pop\n      dup2\n      add\n      swap1\n      tag_248\n      swap2\n      swap1\n      tag_249\n      jump\t// in\n    tag_248:\n      0x01\n    tag_247:\n        /* \"contracts/erc721.sol\":8675:9259  try IERC721Receiver(to).onERC721Received(_msgSender(), from, tokenId, data) returns (bytes4 retval) {\r... */\n      tag_250\n      jumpi\n      returndatasize\n      dup1\n      0x00\n      dup2\n      eq\n      tag_255\n      jumpi\n      mload(0x40)\n      swap2\n      pop\n      and(add(returndatasize, 0x3f), not(0x1f))\n      dup3\n      add\n      0x40\n      mstore\n      returndatasize\n      dup3\n      mstore\n      returndatasize\n      0x00\n      0x20\n      dup5\n      add\n      returndatacopy\n      jump(tag_254)\n    tag_255:\n      0x60\n      swap2\n      pop\n    tag_254:\n      pop\n        /* \"contracts/erc721.sol\":8937:8938  0 */\n      0x00\n        /* \"contracts/erc721.sol\":8920:8926  reason */\n      dup2\n        /* \"contracts/erc721.sol\":8920:8933  reason.length */\n      mload\n        /* \"contracts/erc721.sol\":8920:8938  reason.length == 0 */\n      eq\n        /* \"contracts/erc721.sol\":8916:9244  if (reason.length == 0) {\r... */\n      iszero\n      tag_256\n      jumpi\n        /* \"contracts/erc721.sol\":8963:9023  revert(\"ERC721: transfer to non ERC721Receiver implementer\") */\n      mload(0x40)\n      0x08c379a000000000000000000000000000000000000000000000000000000000\n      dup2\n      mstore\n      0x04\n      add\n      tag_257\n      swap1\n      tag_204\n      jump\t// in\n    tag_257:\n      mload(0x40)\n      dup1\n      swap2\n      sub\n      swap1\n      revert\n        /* \"contracts/erc721.sol\":8916:9244  if (reason.length == 0) {\r... */\n    tag_256:\n        /* \"contracts/erc721.sol\":9194:9200  reason */\n      dup1\n        /* \"contracts/erc721.sol\":9188:9201  mload(reason) */\n      mload\n        /* \"contracts/erc721.sol\":9179:9185  reason */\n      dup2\n        /* \"contracts/erc721.sol\":9175:9177  32 */\n      0x20\n        /* \"contracts/erc721.sol\":9171:9186  add(32, reason) */\n      add\n        /* \"contracts/erc721.sol\":9164:9202  revert(add(32, reason), mload(reason)) */\n      revert\n        /* \"contracts/erc721.sol\":8675:9259  try IERC721Receiver(to).onERC721Received(_msgSender(), from, tokenId, data) returns (bytes4 retval) {\r... */\n    tag_250:\n        /* \"contracts/erc721.sol\":8811:8852  IERC721Receiver.onERC721Received.selector */\n      shl(0xe0, 0x150b7a02)\n        /* \"contracts/erc721.sol\":8801:8852  retval == IERC721Receiver.onERC721Received.selector */\n      not(0xffffffffffffffffffffffffffffffffffffffffffffffffffffffff)\n      and\n        /* \"contracts/erc721.sol\":8801:8807  retval */\n      dup2\n        /* \"contracts/erc721.sol\":8801:8852  retval == IERC721Receiver.onERC721Received.selector */\n      not(0xffffffffffffffffffffffffffffffffffffffffffffffffffffffff)\n      and\n      eq\n        /* \"contracts/erc721.sol\":8794:8852  return retval == IERC721Receiver.onERC721Received.selector */\n      swap2\n      pop\n      pop\n      jump(tag_239)\n        /* \"contracts/erc721.sol\":8639:9314  if (to.isContract()) {\r... */\n    tag_242:\n        /* \"contracts/erc721.sol\":9298:9302  true */\n      0x01\n        /* \"contracts/erc721.sol\":9291:9302  return true */\n      swap1\n      pop\n        /* \"contracts/erc721.sol\":8468:9321  function _checkOnERC721Received(\r... */\n    tag_239:\n      swap5\n      swap4\n      pop\n      pop\n      pop\n      pop\n      jump\t// out\n        /* \"contracts/erc721.sol\":5448:5767  function _safeMint(\r... */\n    tag_228:\n        /* \"contracts/erc721.sol\":5577:5595  _mint(to, tokenId) */\n      tag_262\n        /* \"contracts/erc721.sol\":5583:5585  to */\n      dup4\n        /* \"contracts/erc721.sol\":5587:5594  tokenId */\n      dup4\n        /* \"contracts/erc721.sol\":5577:5582  _mint */\n      tag_263\n        /* \"contracts/erc721.sol\":5577:5595  _mint(to, tokenId) */\n      jump\t// in\n    tag_262:\n        /* \"contracts/erc721.sol\":5628:5681  _checkOnERC721Received(address(0), to, tokenId, data) */\n      tag_264\n        /* \"contracts/erc721.sol\":5659:5660  0 */\n      0x00\n        /* \"contracts/erc721.sol\":5663:5665  to */\n      dup5\n        /* \"contracts/erc721.sol\":5667:5674  tokenId */\n      dup5\n        /* \"contracts/erc721.sol\":5676:5680  data */\n      dup5\n        /* \"contracts/erc721.sol\":5628:5650  _checkOnERC721Received */\n      tag_201\n        /* \"contracts/erc721.sol\":5628:5681  _checkOnERC721Received(address(0), to, tokenId, data) */\n      jump\t// in\n    tag_264:\n        /* \"contracts/erc721.sol\":5606:5759  require(\r... */\n      tag_265\n      jumpi\n      mload(0x40)\n      0x08c379a000000000000000000000000000000000000000000000000000000000\n      dup2\n      mstore\n      0x04\n      add\n      tag_266\n      swap1\n      tag_204\n      jump\t// in\n    tag_266:\n      mload(0x40)\n      dup1\n      swap2\n      sub\n      swap1\n      revert\n    tag_265:\n        /* \"contracts/erc721.sol\":5448:5767  function _safeMint(\r... */\n      pop\n      pop\n      pop\n      jump\t// out\n        /* \"@openzeppelin/contracts@4.6.0/utils/Address.sol\":1175:1495  function isContract(address account) internal view returns (bool) {... */\n    tag_241:\n        /* \"@openzeppelin/contracts@4.6.0/utils/Address.sol\":1235:1239  bool */\n      0x00\n        /* \"@openzeppelin/contracts@4.6.0/utils/Address.sol\":1487:1488  0 */\n      dup1\n        /* \"@openzeppelin/contracts@4.6.0/utils/Address.sol\":1465:1472  account */\n      dup3\n        /* \"@openzeppelin/contracts@4.6.0/utils/Address.sol\":1465:1484  account.code.length */\n      0xffffffffffffffffffffffffffffffffffffffff\n      and\n      extcodesize\n        /* \"@openzeppelin/contracts@4.6.0/utils/Address.sol\":1465:1488  account.code.length > 0 */\n      gt\n        /* \"@openzeppelin/contracts@4.6.0/utils/Address.sol\":1458:1488  return account.code.length > 0 */\n      swap1\n      pop\n        /* \"@openzeppelin/contracts@4.6.0/utils/Address.sol\":1175:1495  function isContract(address account) internal view returns (bool) {... */\n      swap2\n      swap1\n      pop\n      jump\t// out\n        /* \"contracts/erc721.sol\":5775:6323  function _mint(address to, uint256 tokenId) internal virtual {\r... */\n    tag_263:\n        /* \"contracts/erc721.sol\":5869:5870  0 */\n      0x00\n        /* \"contracts/erc721.sol\":5855:5871  to != address(0) */\n      0xffffffffffffffffffffffffffffffffffffffff\n      and\n        /* \"contracts/erc721.sol\":5855:5857  to */\n      dup3\n        /* \"contracts/erc721.sol\":5855:5871  to != address(0) */\n      0xffffffffffffffffffffffffffffffffffffffff\n      and\n      eq\n      iszero\n        /* \"contracts/erc721.sol\":5847:5908  require(to != address(0), \"ERC721: mint to the zero address\") */\n      tag_269\n      jumpi\n      mload(0x40)\n      0x08c379a000000000000000000000000000000000000000000000000000000000\n      dup2\n      mstore\n      0x04\n      add\n      tag_270\n      swap1\n      tag_271\n      jump\t// in\n    tag_270:\n      mload(0x40)\n      dup1\n      swap2\n      sub\n      swap1\n      revert\n    tag_269:\n        /* \"contracts/erc721.sol\":5928:5944  _exists(tokenId) */\n      tag_272\n        /* \"contracts/erc721.sol\":5936:5943  tokenId */\n      dup2\n        /* \"contracts/erc721.sol\":5928:5935  _exists */\n      tag_166\n        /* \"contracts/erc721.sol\":5928:5944  _exists(tokenId) */\n      jump\t// in\n    tag_272:\n        /* \"contracts/erc721.sol\":5927:5944  !_exists(tokenId) */\n      iszero\n        /* \"contracts/erc721.sol\":5919:5977  require(!_exists(tokenId), \"ERC721: token already minted\") */\n      tag_273\n      jumpi\n      mload(0x40)\n      0x08c379a000000000000000000000000000000000000000000000000000000000\n      dup2\n      mstore\n      0x04\n      add\n      tag_274\n      swap1\n      tag_275\n      jump\t// in\n    tag_274:\n      mload(0x40)\n      dup1\n      swap2\n      sub\n      swap1\n      revert\n    tag_273:\n        /* \"contracts/erc721.sol\":5990:6035  _beforeTokenTransfer(address(0), to, tokenId) */\n      tag_276\n        /* \"contracts/erc721.sol\":6019:6020  0 */\n      0x00\n        /* \"contracts/erc721.sol\":6023:6025  to */\n      dup4\n        /* \"contracts/erc721.sol\":6027:6034  tokenId */\n      dup4\n        /* \"contracts/erc721.sol\":5990:6010  _beforeTokenTransfer */\n      tag_187\n        /* \"contracts/erc721.sol\":5990:6035  _beforeTokenTransfer(address(0), to, tokenId) */\n      jump\t// in\n    tag_276:\n        /* \"contracts/erc721.sol\":6057:6073  _exists(tokenId) */\n      tag_277\n        /* \"contracts/erc721.sol\":6065:6072  tokenId */\n      dup2\n        /* \"contracts/erc721.sol\":6057:6064  _exists */\n      tag_166\n        /* \"contracts/erc721.sol\":6057:6073  _exists(tokenId) */\n      jump\t// in\n    tag_277:\n        /* \"contracts/erc721.sol\":6056:6073  !_exists(tokenId) */\n      iszero\n        /* \"contracts/erc721.sol\":6048:6106  require(!_exists(tokenId), \"ERC721: token already minted\") */\n      tag_278\n      jumpi\n      mload(0x40)\n      0x08c379a000000000000000000000000000000000000000000000000000000000\n      dup2\n      mstore\n      0x04\n      add\n      tag_279\n      swap1\n      tag_275\n      jump\t// in\n    tag_279:\n      mload(0x40)\n      dup1\n      swap2\n      sub\n      swap1\n      revert\n    tag_278:\n        /* \"contracts/erc721.sol\":6161:6162  1 */\n      0x01\n        /* \"contracts/erc721.sol\":6144:6153  _balances */\n      0x04\n        /* \"contracts/erc721.sol\":6144:6157  _balances[to] */\n      0x00\n        /* \"contracts/erc721.sol\":6154:6156  to */\n      dup5\n        /* \"contracts/erc721.sol\":6144:6157  _balances[to] */\n      0xffffffffffffffffffffffffffffffffffffffff\n      and\n      0xffffffffffffffffffffffffffffffffffffffff\n      and\n      dup2\n      mstore\n      0x20\n      add\n      swap1\n      dup2\n      mstore\n      0x20\n      add\n      0x00\n      keccak256\n      0x00\n        /* \"contracts/erc721.sol\":6144:6162  _balances[to] += 1 */\n      dup3\n      dup3\n      sload\n      add\n      swap3\n      pop\n      pop\n      dup2\n      swap1\n      sstore\n      pop\n        /* \"contracts/erc721.sol\":6205:6207  to */\n      dup2\n        /* \"contracts/erc721.sol\":6186:6193  _owners */\n      0x02\n        /* \"contracts/erc721.sol\":6186:6202  _owners[tokenId] */\n      0x00\n        /* \"contracts/erc721.sol\":6194:6201  tokenId */\n      dup4\n        /* \"contracts/erc721.sol\":6186:6202  _owners[tokenId] */\n      dup2\n      mstore\n      0x20\n      add\n      swap1\n      dup2\n      mstore\n      0x20\n      add\n      0x00\n      keccak256\n      0x00\n        /* \"contracts/erc721.sol\":6186:6207  _owners[tokenId] = to */\n      0x0100\n      exp\n      dup2\n      sload\n      dup2\n      0xffffffffffffffffffffffffffffffffffffffff\n      mul\n      not\n      and\n      swap1\n      dup4\n      0xffffffffffffffffffffffffffffffffffffffff\n      and\n      mul\n      or\n      swap1\n      sstore\n      pop\n        /* \"contracts/erc721.sol\":6250:6257  tokenId */\n      dup1\n        /* \"contracts/erc721.sol\":6246:6248  to */\n      dup3\n        /* \"contracts/erc721.sol\":6225:6258  Transfer(address(0), to, tokenId) */\n      0xffffffffffffffffffffffffffffffffffffffff\n      and\n        /* \"contracts/erc721.sol\":6242:6243  0 */\n      0x00\n        /* \"contracts/erc721.sol\":6225:6258  Transfer(address(0), to, tokenId) */\n      0xffffffffffffffffffffffffffffffffffffffff\n      and\n      0xddf252ad1be2c89b69c2b068fc378daa952ba7f163c4a11628f55a4df523b3ef\n      mload(0x40)\n      mload(0x40)\n      dup1\n      swap2\n      sub\n      swap1\n      log4\n        /* \"contracts/erc721.sol\":6271:6315  _afterTokenTransfer(address(0), to, tokenId) */\n      tag_280\n        /* \"contracts/erc721.sol\":6299:6300  0 */\n      0x00\n        /* \"contracts/erc721.sol\":6303:6305  to */\n      dup4\n        /* \"contracts/erc721.sol\":6307:6314  tokenId */\n      dup4\n        /* \"contracts/erc721.sol\":6271:6290  _afterTokenTransfer */\n      tag_192\n        /* \"contracts/erc721.sol\":6271:6315  _afterTokenTransfer(address(0), to, tokenId) */\n      jump\t// in\n    tag_280:\n        /* \"contracts/erc721.sol\":5775:6323  function _mint(address to, uint256 tokenId) internal virtual {\r... */\n      pop\n      pop\n      jump\t// out\n    tag_235:\n      dup3\n      dup1\n      sload\n      tag_281\n      swap1\n      tag_88\n      jump\t// in\n    tag_281:\n      swap1\n      0x00\n      mstore\n      keccak256(0x00, 0x20)\n      swap1\n      0x1f\n      add\n      0x20\n      swap1\n      div\n      dup2\n      add\n      swap3\n      dup3\n      tag_283\n      jumpi\n      0x00\n      dup6\n      sstore\n      jump(tag_282)\n    tag_283:\n      dup3\n      0x1f\n      lt\n      tag_284\n      jumpi\n      dup1\n      mload\n      not(0xff)\n      and\n      dup4\n      dup1\n      add\n      or\n      dup6\n      sstore\n      jump(tag_282)\n    tag_284:\n      dup3\n      dup1\n      add\n      0x01\n      add\n      dup6\n      sstore\n      dup3\n      iszero\n      tag_282\n      jumpi\n      swap2\n      dup3\n      add\n    tag_285:\n      dup3\n      dup2\n      gt\n      iszero\n      tag_286\n      jumpi\n      dup3\n      mload\n      dup3\n      sstore\n      swap2\n      0x20\n      add\n      swap2\n      swap1\n      0x01\n      add\n      swap1\n      jump(tag_285)\n    tag_286:\n    tag_282:\n      pop\n      swap1\n      pop\n      tag_287\n      swap2\n      swap1\n      tag_288\n      jump\t// in\n    tag_287:\n      pop\n      swap1\n      jump\t// out\n    tag_288:\n    tag_289:\n      dup1\n      dup3\n      gt\n      iszero\n      tag_290\n      jumpi\n      0x00\n      dup2\n      0x00\n      swap1\n      sstore\n      pop\n      0x01\n      add\n      jump(tag_289)\n    tag_290:\n      pop\n      swap1\n      jump\t// out\n        /* \"#utility.yul\":7:350   */\n    tag_292:\n        /* \"#utility.yul\":84:89   */\n      0x00\n        /* \"#utility.yul\":109:174   */\n      tag_294\n        /* \"#utility.yul\":125:173   */\n      tag_295\n        /* \"#utility.yul\":166:172   */\n      dup5\n        /* \"#utility.yul\":125:173   */\n      tag_296\n      jump\t// in\n    tag_295:\n        /* \"#utility.yul\":109:174   */\n      tag_297\n      jump\t// in\n    tag_294:\n        /* \"#utility.yul\":100:174   */\n      swap1\n      pop\n        /* \"#utility.yul\":197:203   */\n      dup3\n        /* \"#utility.yul\":190:195   */\n      dup2\n        /* \"#utility.yul\":183:204   */\n      mstore\n        /* \"#utility.yul\":235:239   */\n      0x20\n        /* \"#utility.yul\":228:233   */\n      dup2\n        /* \"#utility.yul\":224:240   */\n      add\n        /* \"#utility.yul\":273:276   */\n      dup5\n        /* \"#utility.yul\":264:270   */\n      dup5\n        /* \"#utility.yul\":259:262   */\n      dup5\n        /* \"#utility.yul\":255:271   */\n      add\n        /* \"#utility.yul\":252:277   */\n      gt\n        /* \"#utility.yul\":249:251   */\n      iszero\n      tag_298\n      jumpi\n        /* \"#utility.yul\":290:291   */\n      0x00\n        /* \"#utility.yul\":287:288   */\n      dup1\n        /* \"#utility.yul\":280:292   */\n      revert\n        /* \"#utility.yul\":249:251   */\n    tag_298:\n        /* \"#utility.yul\":303:344   */\n      tag_299\n        /* \"#utility.yul\":337:343   */\n      dup5\n        /* \"#utility.yul\":332:335   */\n      dup3\n        /* \"#utility.yul\":327:330   */\n      dup6\n        /* \"#utility.yul\":303:344   */\n      tag_300\n      jump\t// in\n    tag_299:\n        /* \"#utility.yul\":90:350   */\n      pop\n      swap4\n      swap3\n      pop\n      pop\n      pop\n      jump\t// out\n        /* \"#utility.yul\":356:701   */\n    tag_301:\n        /* \"#utility.yul\":434:439   */\n      0x00\n        /* \"#utility.yul\":459:525   */\n      tag_303\n        /* \"#utility.yul\":475:524   */\n      tag_304\n        /* \"#utility.yul\":517:523   */\n      dup5\n        /* \"#utility.yul\":475:524   */\n      tag_305\n      jump\t// in\n    tag_304:\n        /* \"#utility.yul\":459:525   */\n      tag_297\n      jump\t// in\n    tag_303:\n        /* \"#utility.yul\":450:525   */\n      swap1\n      pop\n        /* \"#utility.yul\":548:554   */\n      dup3\n        /* \"#utility.yul\":541:546   */\n      dup2\n        /* \"#utility.yul\":534:555   */\n      mstore\n        /* \"#utility.yul\":586:590   */\n      0x20\n        /* \"#utility.yul\":579:584   */\n      dup2\n        /* \"#utility.yul\":575:591   */\n      add\n        /* \"#utility.yul\":624:627   */\n      dup5\n        /* \"#utility.yul\":615:621   */\n      dup5\n        /* \"#utility.yul\":610:613   */\n      dup5\n        /* \"#utility.yul\":606:622   */\n      add\n        /* \"#utility.yul\":603:628   */\n      gt\n        /* \"#utility.yul\":600:602   */\n      iszero\n      tag_306\n      jumpi\n        /* \"#utility.yul\":641:642   */\n      0x00\n        /* \"#utility.yul\":638:639   */\n      dup1\n        /* \"#utility.yul\":631:643   */\n      revert\n        /* \"#utility.yul\":600:602   */\n    tag_306:\n        /* \"#utility.yul\":654:695   */\n      tag_307\n        /* \"#utility.yul\":688:694   */\n      dup5\n        /* \"#utility.yul\":683:686   */\n      dup3\n        /* \"#utility.yul\":678:681   */\n      dup6\n        /* \"#utility.yul\":654:695   */\n      tag_300\n      jump\t// in\n    tag_307:\n        /* \"#utility.yul\":440:701   */\n      pop\n      swap4\n      swap3\n      pop\n      pop\n      pop\n      jump\t// out\n        /* \"#utility.yul\":707:846   */\n    tag_308:\n        /* \"#utility.yul\":753:758   */\n      0x00\n        /* \"#utility.yul\":791:797   */\n      dup2\n        /* \"#utility.yul\":778:798   */\n      calldataload\n        /* \"#utility.yul\":769:798   */\n      swap1\n      pop\n        /* \"#utility.yul\":807:840   */\n      tag_310\n        /* \"#utility.yul\":834:839   */\n      dup2\n        /* \"#utility.yul\":807:840   */\n      tag_311\n      jump\t// in\n    tag_310:\n        /* \"#utility.yul\":759:846   */\n      swap3\n      swap2\n      pop\n      pop\n      jump\t// out\n        /* \"#utility.yul\":852:985   */\n    tag_312:\n        /* \"#utility.yul\":895:900   */\n      0x00\n        /* \"#utility.yul\":933:939   */\n      dup2\n        /* \"#utility.yul\":920:940   */\n      calldataload\n        /* \"#utility.yul\":911:940   */\n      swap1\n      pop\n        /* \"#utility.yul\":949:979   */\n      tag_314\n        /* \"#utility.yul\":973:978   */\n      dup2\n        /* \"#utility.yul\":949:979   */\n      tag_315\n      jump\t// in\n    tag_314:\n        /* \"#utility.yul\":901:985   */\n      swap3\n      swap2\n      pop\n      pop\n      jump\t// out\n        /* \"#utility.yul\":991:1128   */\n    tag_316:\n        /* \"#utility.yul\":1036:1041   */\n      0x00\n        /* \"#utility.yul\":1074:1080   */\n      dup2\n        /* \"#utility.yul\":1061:1081   */\n      calldataload\n        /* \"#utility.yul\":1052:1081   */\n      swap1\n      pop\n        /* \"#utility.yul\":1090:1122   */\n      tag_318\n        /* \"#utility.yul\":1116:1121   */\n      dup2\n        /* \"#utility.yul\":1090:1122   */\n      tag_319\n      jump\t// in\n    tag_318:\n        /* \"#utility.yul\":1042:1128   */\n      swap3\n      swap2\n      pop\n      pop\n      jump\t// out\n        /* \"#utility.yul\":1134:1275   */\n    tag_320:\n        /* \"#utility.yul\":1190:1195   */\n      0x00\n        /* \"#utility.yul\":1221:1227   */\n      dup2\n        /* \"#utility.yul\":1215:1228   */\n      mload\n        /* \"#utility.yul\":1206:1228   */\n      swap1\n      pop\n        /* \"#utility.yul\":1237:1269   */\n      tag_322\n        /* \"#utility.yul\":1263:1268   */\n      dup2\n        /* \"#utility.yul\":1237:1269   */\n      tag_319\n      jump\t// in\n    tag_322:\n        /* \"#utility.yul\":1196:1275   */\n      swap3\n      swap2\n      pop\n      pop\n      jump\t// out\n        /* \"#utility.yul\":1294:1565   */\n    tag_323:\n        /* \"#utility.yul\":1349:1354   */\n      0x00\n        /* \"#utility.yul\":1398:1401   */\n      dup3\n        /* \"#utility.yul\":1391:1395   */\n      0x1f\n        /* \"#utility.yul\":1383:1389   */\n      dup4\n        /* \"#utility.yul\":1379:1396   */\n      add\n        /* \"#utility.yul\":1375:1402   */\n      slt\n        /* \"#utility.yul\":1365:1367   */\n      tag_325\n      jumpi\n        /* \"#utility.yul\":1416:1417   */\n      0x00\n        /* \"#utility.yul\":1413:1414   */\n      dup1\n        /* \"#utility.yul\":1406:1418   */\n      revert\n        /* \"#utility.yul\":1365:1367   */\n    tag_325:\n        /* \"#utility.yul\":1456:1462   */\n      dup2\n        /* \"#utility.yul\":1443:1463   */\n      calldataload\n        /* \"#utility.yul\":1481:1559   */\n      tag_326\n        /* \"#utility.yul\":1555:1558   */\n      dup5\n        /* \"#utility.yul\":1547:1553   */\n      dup3\n        /* \"#utility.yul\":1540:1544   */\n      0x20\n        /* \"#utility.yul\":1532:1538   */\n      dup7\n        /* \"#utility.yul\":1528:1545   */\n      add\n        /* \"#utility.yul\":1481:1559   */\n      tag_292\n      jump\t// in\n    tag_326:\n        /* \"#utility.yul\":1472:1559   */\n      swap2\n      pop\n        /* \"#utility.yul\":1355:1565   */\n      pop\n      swap3\n      swap2\n      pop\n      pop\n      jump\t// out\n        /* \"#utility.yul\":1585:1858   */\n    tag_327:\n        /* \"#utility.yul\":1641:1646   */\n      0x00\n        /* \"#utility.yul\":1690:1693   */\n      dup3\n        /* \"#utility.yul\":1683:1687   */\n      0x1f\n        /* \"#utility.yul\":1675:1681   */\n      dup4\n        /* \"#utility.yul\":1671:1688   */\n      add\n        /* \"#utility.yul\":1667:1694   */\n      slt\n        /* \"#utility.yul\":1657:1659   */\n      tag_329\n      jumpi\n        /* \"#utility.yul\":1708:1709   */\n      0x00\n        /* \"#utility.yul\":1705:1706   */\n      dup1\n        /* \"#utility.yul\":1698:1710   */\n      revert\n        /* \"#utility.yul\":1657:1659   */\n    tag_329:\n        /* \"#utility.yul\":1748:1754   */\n      dup2\n        /* \"#utility.yul\":1735:1755   */\n      calldataload\n        /* \"#utility.yul\":1773:1852   */\n      tag_330\n        /* \"#utility.yul\":1848:1851   */\n      dup5\n        /* \"#utility.yul\":1840:1846   */\n      dup3\n        /* \"#utility.yul\":1833:1837   */\n      0x20\n        /* \"#utility.yul\":1825:1831   */\n      dup7\n        /* \"#utility.yul\":1821:1838   */\n      add\n        /* \"#utility.yul\":1773:1852   */\n      tag_301\n      jump\t// in\n    tag_330:\n        /* \"#utility.yul\":1764:1852   */\n      swap2\n      pop\n        /* \"#utility.yul\":1647:1858   */\n      pop\n      swap3\n      swap2\n      pop\n      pop\n      jump\t// out\n        /* \"#utility.yul\":1864:2003   */\n    tag_331:\n        /* \"#utility.yul\":1910:1915   */\n      0x00\n        /* \"#utility.yul\":1948:1954   */\n      dup2\n        /* \"#utility.yul\":1935:1955   */\n      calldataload\n        /* \"#utility.yul\":1926:1955   */\n      swap1\n      pop\n        /* \"#utility.yul\":1964:1997   */\n      tag_333\n        /* \"#utility.yul\":1991:1996   */\n      dup2\n        /* \"#utility.yul\":1964:1997   */\n      tag_334\n      jump\t// in\n    tag_333:\n        /* \"#utility.yul\":1916:2003   */\n      swap3\n      swap2\n      pop\n      pop\n      jump\t// out\n        /* \"#utility.yul\":2009:2271   */\n    tag_53:\n        /* \"#utility.yul\":2068:2074   */\n      0x00\n        /* \"#utility.yul\":2117:2119   */\n      0x20\n        /* \"#utility.yul\":2105:2114   */\n      dup3\n        /* \"#utility.yul\":2096:2103   */\n      dup5\n        /* \"#utility.yul\":2092:2115   */\n      sub\n        /* \"#utility.yul\":2088:2120   */\n      slt\n        /* \"#utility.yul\":2085:2087   */\n      iszero\n      tag_336\n      jumpi\n        /* \"#utility.yul\":2133:2134   */\n      0x00\n        /* \"#utility.yul\":2130:2131   */\n      dup1\n        /* \"#utility.yul\":2123:2135   */\n      revert\n        /* \"#utility.yul\":2085:2087   */\n    tag_336:\n        /* \"#utility.yul\":2176:2177   */\n      0x00\n        /* \"#utility.yul\":2201:2254   */\n      tag_337\n        /* \"#utility.yul\":2246:2253   */\n      dup5\n        /* \"#utility.yul\":2237:2243   */\n      dup3\n        /* \"#utility.yul\":2226:2235   */\n      dup6\n        /* \"#utility.yul\":2222:2244   */\n      add\n        /* \"#utility.yul\":2201:2254   */\n      tag_308\n      jump\t// in\n    tag_337:\n        /* \"#utility.yul\":2191:2254   */\n      swap2\n      pop\n        /* \"#utility.yul\":2147:2264   */\n      pop\n        /* \"#utility.yul\":2075:2271   */\n      swap3\n      swap2\n      pop\n      pop\n      jump\t// out\n        /* \"#utility.yul\":2277:2684   */\n    tag_78:\n        /* \"#utility.yul\":2345:2351   */\n      0x00\n        /* \"#utility.yul\":2353:2359   */\n      dup1\n        /* \"#utility.yul\":2402:2404   */\n      0x40\n        /* \"#utility.yul\":2390:2399   */\n      dup4\n        /* \"#utility.yul\":2381:2388   */\n      dup6\n        /* \"#utility.yul\":2377:2400   */\n      sub\n        /* \"#utility.yul\":2373:2405   */\n      slt\n        /* \"#utility.yul\":2370:2372   */\n      iszero\n      tag_339\n      jumpi\n        /* \"#utility.yul\":2418:2419   */\n      0x00\n        /* \"#utility.yul\":2415:2416   */\n      dup1\n        /* \"#utility.yul\":2408:2420   */\n      revert\n        /* \"#utility.yul\":2370:2372   */\n    tag_339:\n        /* \"#utility.yul\":2461:2462   */\n      0x00\n        /* \"#utility.yul\":2486:2539   */\n      tag_340\n        /* \"#utility.yul\":2531:2538   */\n      dup6\n        /* \"#utility.yul\":2522:2528   */\n      dup3\n        /* \"#utility.yul\":2511:2520   */\n      dup7\n        /* \"#utility.yul\":2507:2529   */\n      add\n        /* \"#utility.yul\":2486:2539   */\n      tag_308\n      jump\t// in\n    tag_340:\n        /* \"#utility.yul\":2476:2539   */\n      swap3\n      pop\n        /* \"#utility.yul\":2432:2549   */\n      pop\n        /* \"#utility.yul\":2588:2590   */\n      0x20\n        /* \"#utility.yul\":2614:2667   */\n      tag_341\n        /* \"#utility.yul\":2659:2666   */\n      dup6\n        /* \"#utility.yul\":2650:2656   */\n      dup3\n        /* \"#utility.yul\":2639:2648   */\n      dup7\n        /* \"#utility.yul\":2635:2657   */\n      add\n        /* \"#utility.yul\":2614:2667   */\n      tag_308\n      jump\t// in\n    tag_341:\n        /* \"#utility.yul\":2604:2667   */\n      swap2\n      pop\n        /* \"#utility.yul\":2559:2677   */\n      pop\n        /* \"#utility.yul\":2360:2684   */\n      swap3\n      pop\n      swap3\n      swap1\n      pop\n      jump\t// out\n        /* \"#utility.yul\":2690:3242   */\n    tag_42:\n        /* \"#utility.yul\":2767:2773   */\n      0x00\n        /* \"#utility.yul\":2775:2781   */\n      dup1\n        /* \"#utility.yul\":2783:2789   */\n      0x00\n        /* \"#utility.yul\":2832:2834   */\n      0x60\n        /* \"#utility.yul\":2820:2829   */\n      dup5\n        /* \"#utility.yul\":2811:2818   */\n      dup7\n        /* \"#utility.yul\":2807:2830   */\n      sub\n        /* \"#utility.yul\":2803:2835   */\n      slt\n        /* \"#utility.yul\":2800:2802   */\n      iszero\n      tag_343\n      jumpi\n        /* \"#utility.yul\":2848:2849   */\n      0x00\n        /* \"#utility.yul\":2845:2846   */\n      dup1\n        /* \"#utility.yul\":2838:2850   */\n      revert\n        /* \"#utility.yul\":2800:2802   */\n    tag_343:\n        /* \"#utility.yul\":2891:2892   */\n      0x00\n        /* \"#utility.yul\":2916:2969   */\n      tag_344\n        /* \"#utility.yul\":2961:2968   */\n      dup7\n        /* \"#utility.yul\":2952:2958   */\n      dup3\n        /* \"#utility.yul\":2941:2950   */\n      dup8\n        /* \"#utility.yul\":2937:2959   */\n      add\n        /* \"#utility.yul\":2916:2969   */\n      tag_308\n      jump\t// in\n    tag_344:\n        /* \"#utility.yul\":2906:2969   */\n      swap4\n      pop\n        /* \"#utility.yul\":2862:2979   */\n      pop\n        /* \"#utility.yul\":3018:3020   */\n      0x20\n        /* \"#utility.yul\":3044:3097   */\n      tag_345\n        /* \"#utility.yul\":3089:3096   */\n      dup7\n        /* \"#utility.yul\":3080:3086   */\n      dup3\n        /* \"#utility.yul\":3069:3078   */\n      dup8\n        /* \"#utility.yul\":3065:3087   */\n      add\n        /* \"#utility.yul\":3044:3097   */\n      tag_308\n      jump\t// in\n    tag_345:\n        /* \"#utility.yul\":3034:3097   */\n      swap3\n      pop\n        /* \"#utility.yul\":2989:3107   */\n      pop\n        /* \"#utility.yul\":3146:3148   */\n      0x40\n        /* \"#utility.yul\":3172:3225   */\n      tag_346\n        /* \"#utility.yul\":3217:3224   */\n      dup7\n        /* \"#utility.yul\":3208:3214   */\n      dup3\n        /* \"#utility.yul\":3197:3206   */\n      dup8\n        /* \"#utility.yul\":3193:3215   */\n      add\n        /* \"#utility.yul\":3172:3225   */\n      tag_331\n      jump\t// in\n    tag_346:\n        /* \"#utility.yul\":3162:3225   */\n      swap2\n      pop\n        /* \"#utility.yul\":3117:3235   */\n      pop\n        /* \"#utility.yul\":2790:3242   */\n      swap3\n      pop\n      swap3\n      pop\n      swap3\n      jump\t// out\n        /* \"#utility.yul\":3248:4057   */\n    tag_66:\n        /* \"#utility.yul\":3343:3349   */\n      0x00\n        /* \"#utility.yul\":3351:3357   */\n      dup1\n        /* \"#utility.yul\":3359:3365   */\n      0x00\n        /* \"#utility.yul\":3367:3373   */\n      dup1\n        /* \"#utility.yul\":3416:3419   */\n      0x80\n        /* \"#utility.yul\":3404:3413   */\n      dup6\n        /* \"#utility.yul\":3395:3402   */\n      dup8\n        /* \"#utility.yul\":3391:3414   */\n      sub\n        /* \"#utility.yul\":3387:3420   */\n      slt\n        /* \"#utility.yul\":3384:3386   */\n      iszero\n      tag_348\n      jumpi\n        /* \"#utility.yul\":3433:3434   */\n      0x00\n        /* \"#utility.yul\":3430:3431   */\n      dup1\n        /* \"#utility.yul\":3423:3435   */\n      revert\n        /* \"#utility.yul\":3384:3386   */\n    tag_348:\n        /* \"#utility.yul\":3476:3477   */\n      0x00\n        /* \"#utility.yul\":3501:3554   */\n      tag_349\n        /* \"#utility.yul\":3546:3553   */\n      dup8\n        /* \"#utility.yul\":3537:3543   */\n      dup3\n        /* \"#utility.yul\":3526:3535   */\n      dup9\n        /* \"#utility.yul\":3522:3544   */\n      add\n        /* \"#utility.yul\":3501:3554   */\n      tag_308\n      jump\t// in\n    tag_349:\n        /* \"#utility.yul\":3491:3554   */\n      swap5\n      pop\n        /* \"#utility.yul\":3447:3564   */\n      pop\n        /* \"#utility.yul\":3603:3605   */\n      0x20\n        /* \"#utility.yul\":3629:3682   */\n      tag_350\n        /* \"#utility.yul\":3674:3681   */\n      dup8\n        /* \"#utility.yul\":3665:3671   */\n      dup3\n        /* \"#utility.yul\":3654:3663   */\n      dup9\n        /* \"#utility.yul\":3650:3672   */\n      add\n        /* \"#utility.yul\":3629:3682   */\n      tag_308\n      jump\t// in\n    tag_350:\n        /* \"#utility.yul\":3619:3682   */\n      swap4\n      pop\n        /* \"#utility.yul\":3574:3692   */\n      pop\n        /* \"#utility.yul\":3731:3733   */\n      0x40\n        /* \"#utility.yul\":3757:3810   */\n      tag_351\n        /* \"#utility.yul\":3802:3809   */\n      dup8\n        /* \"#utility.yul\":3793:3799   */\n      dup3\n        /* \"#utility.yul\":3782:3791   */\n      dup9\n        /* \"#utility.yul\":3778:3800   */\n      add\n        /* \"#utility.yul\":3757:3810   */\n      tag_331\n      jump\t// in\n    tag_351:\n        /* \"#utility.yul\":3747:3810   */\n      swap3\n      pop\n        /* \"#utility.yul\":3702:3820   */\n      pop\n        /* \"#utility.yul\":3887:3889   */\n      0x60\n        /* \"#utility.yul\":3876:3885   */\n      dup6\n        /* \"#utility.yul\":3872:3890   */\n      add\n        /* \"#utility.yul\":3859:3891   */\n      calldataload\n        /* \"#utility.yul\":3918:3936   */\n      0xffffffffffffffff\n        /* \"#utility.yul\":3910:3916   */\n      dup2\n        /* \"#utility.yul\":3907:3937   */\n      gt\n        /* \"#utility.yul\":3904:3906   */\n      iszero\n      tag_352\n      jumpi\n        /* \"#utility.yul\":3950:3951   */\n      0x00\n        /* \"#utility.yul\":3947:3948   */\n      dup1\n        /* \"#utility.yul\":3940:3952   */\n      revert\n        /* \"#utility.yul\":3904:3906   */\n    tag_352:\n        /* \"#utility.yul\":3978:4040   */\n      tag_353\n        /* \"#utility.yul\":4032:4039   */\n      dup8\n        /* \"#utility.yul\":4023:4029   */\n      dup3\n        /* \"#utility.yul\":4012:4021   */\n      dup9\n        /* \"#utility.yul\":4008:4030   */\n      add\n        /* \"#utility.yul\":3978:4040   */\n      tag_323\n      jump\t// in\n    tag_353:\n        /* \"#utility.yul\":3968:4040   */\n      swap2\n      pop\n        /* \"#utility.yul\":3830:4050   */\n      pop\n        /* \"#utility.yul\":3374:4057   */\n      swap3\n      swap6\n      swap2\n      swap5\n      pop\n      swap3\n      pop\n      jump\t// out\n        /* \"#utility.yul\":4063:4464   */\n    tag_62:\n        /* \"#utility.yul\":4128:4134   */\n      0x00\n        /* \"#utility.yul\":4136:4142   */\n      dup1\n        /* \"#utility.yul\":4185:4187   */\n      0x40\n        /* \"#utility.yul\":4173:4182   */\n      dup4\n        /* \"#utility.yul\":4164:4171   */\n      dup6\n        /* \"#utility.yul\":4160:4183   */\n      sub\n        /* \"#utility.yul\":4156:4188   */\n      slt\n        /* \"#utility.yul\":4153:4155   */\n      iszero\n      tag_355\n      jumpi\n        /* \"#utility.yul\":4201:4202   */\n      0x00\n        /* \"#utility.yul\":4198:4199   */\n      dup1\n        /* \"#utility.yul\":4191:4203   */\n      revert\n        /* \"#utility.yul\":4153:4155   */\n    tag_355:\n        /* \"#utility.yul\":4244:4245   */\n      0x00\n        /* \"#utility.yul\":4269:4322   */\n      tag_356\n        /* \"#utility.yul\":4314:4321   */\n      dup6\n        /* \"#utility.yul\":4305:4311   */\n      dup3\n        /* \"#utility.yul\":4294:4303   */\n      dup7\n        /* \"#utility.yul\":4290:4312   */\n      add\n        /* \"#utility.yul\":4269:4322   */\n      tag_308\n      jump\t// in\n    tag_356:\n        /* \"#utility.yul\":4259:4322   */\n      swap3\n      pop\n        /* \"#utility.yul\":4215:4332   */\n      pop\n        /* \"#utility.yul\":4371:4373   */\n      0x20\n        /* \"#utility.yul\":4397:4447   */\n      tag_357\n        /* \"#utility.yul\":4439:4446   */\n      dup6\n        /* \"#utility.yul\":4430:4436   */\n      dup3\n        /* \"#utility.yul\":4419:4428   */\n      dup7\n        /* \"#utility.yul\":4415:4437   */\n      add\n        /* \"#utility.yul\":4397:4447   */\n      tag_312\n      jump\t// in\n    tag_357:\n        /* \"#utility.yul\":4387:4447   */\n      swap2\n      pop\n        /* \"#utility.yul\":4342:4457   */\n      pop\n        /* \"#utility.yul\":4143:4464   */\n      swap3\n      pop\n      swap3\n      swap1\n      pop\n      jump\t// out\n        /* \"#utility.yul\":4470:4877   */\n    tag_38:\n        /* \"#utility.yul\":4538:4544   */\n      0x00\n        /* \"#utility.yul\":4546:4552   */\n      dup1\n        /* \"#utility.yul\":4595:4597   */\n      0x40\n        /* \"#utility.yul\":4583:4592   */\n      dup4\n        /* \"#utility.yul\":4574:4581   */\n      dup6\n        /* \"#utility.yul\":4570:4593   */\n      sub\n        /* \"#utility.yul\":4566:4598   */\n      slt\n        /* \"#utility.yul\":4563:4565   */\n      iszero\n      tag_359\n      jumpi\n        /* \"#utility.yul\":4611:4612   */\n      0x00\n        /* \"#utility.yul\":4608:4609   */\n      dup1\n        /* \"#utility.yul\":4601:4613   */\n      revert\n        /* \"#utility.yul\":4563:4565   */\n    tag_359:\n        /* \"#utility.yul\":4654:4655   */\n      0x00\n        /* \"#utility.yul\":4679:4732   */\n      tag_360\n        /* \"#utility.yul\":4724:4731   */\n      dup6\n        /* \"#utility.yul\":4715:4721   */\n      dup3\n        /* \"#utility.yul\":4704:4713   */\n      dup7\n        /* \"#utility.yul\":4700:4722   */\n      add\n        /* \"#utility.yul\":4679:4732   */\n      tag_308\n      jump\t// in\n    tag_360:\n        /* \"#utility.yul\":4669:4732   */\n      swap3\n      pop\n        /* \"#utility.yul\":4625:4742   */\n      pop\n        /* \"#utility.yul\":4781:4783   */\n      0x20\n        /* \"#utility.yul\":4807:4860   */\n      tag_361\n        /* \"#utility.yul\":4852:4859   */\n      dup6\n        /* \"#utility.yul\":4843:4849   */\n      dup3\n        /* \"#utility.yul\":4832:4841   */\n      dup7\n        /* \"#utility.yul\":4828:4850   */\n      add\n        /* \"#utility.yul\":4807:4860   */\n      tag_331\n      jump\t// in\n    tag_361:\n        /* \"#utility.yul\":4797:4860   */\n      swap2\n      pop\n        /* \"#utility.yul\":4752:4870   */\n      pop\n        /* \"#utility.yul\":4553:4877   */\n      swap3\n      pop\n      swap3\n      swap1\n      pop\n      jump\t// out\n        /* \"#utility.yul\":4883:5548   */\n    tag_74:\n        /* \"#utility.yul\":4970:4976   */\n      0x00\n        /* \"#utility.yul\":4978:4984   */\n      dup1\n        /* \"#utility.yul\":4986:4992   */\n      0x00\n        /* \"#utility.yul\":5035:5037   */\n      0x60\n        /* \"#utility.yul\":5023:5032   */\n      dup5\n        /* \"#utility.yul\":5014:5021   */\n      dup7\n        /* \"#utility.yul\":5010:5033   */\n      sub\n        /* \"#utility.yul\":5006:5038   */\n      slt\n        /* \"#utility.yul\":5003:5005   */\n      iszero\n      tag_363\n      jumpi\n        /* \"#utility.yul\":5051:5052   */\n      0x00\n        /* \"#utility.yul\":5048:5049   */\n      dup1\n        /* \"#utility.yul\":5041:5053   */\n      revert\n        /* \"#utility.yul\":5003:5005   */\n    tag_363:\n        /* \"#utility.yul\":5094:5095   */\n      0x00\n        /* \"#utility.yul\":5119:5172   */\n      tag_364\n        /* \"#utility.yul\":5164:5171   */\n      dup7\n        /* \"#utility.yul\":5155:5161   */\n      dup3\n        /* \"#utility.yul\":5144:5153   */\n      dup8\n        /* \"#utility.yul\":5140:5162   */\n      add\n        /* \"#utility.yul\":5119:5172   */\n      tag_308\n      jump\t// in\n    tag_364:\n        /* \"#utility.yul\":5109:5172   */\n      swap4\n      pop\n        /* \"#utility.yul\":5065:5182   */\n      pop\n        /* \"#utility.yul\":5221:5223   */\n      0x20\n        /* \"#utility.yul\":5247:5300   */\n      tag_365\n        /* \"#utility.yul\":5292:5299   */\n      dup7\n        /* \"#utility.yul\":5283:5289   */\n      dup3\n        /* \"#utility.yul\":5272:5281   */\n      dup8\n        /* \"#utility.yul\":5268:5290   */\n      add\n        /* \"#utility.yul\":5247:5300   */\n      tag_331\n      jump\t// in\n    tag_365:\n        /* \"#utility.yul\":5237:5300   */\n      swap3\n      pop\n        /* \"#utility.yul\":5192:5310   */\n      pop\n        /* \"#utility.yul\":5377:5379   */\n      0x40\n        /* \"#utility.yul\":5366:5375   */\n      dup5\n        /* \"#utility.yul\":5362:5380   */\n      add\n        /* \"#utility.yul\":5349:5381   */\n      calldataload\n        /* \"#utility.yul\":5408:5426   */\n      0xffffffffffffffff\n        /* \"#utility.yul\":5400:5406   */\n      dup2\n        /* \"#utility.yul\":5397:5427   */\n      gt\n        /* \"#utility.yul\":5394:5396   */\n      iszero\n      tag_366\n      jumpi\n        /* \"#utility.yul\":5440:5441   */\n      0x00\n        /* \"#utility.yul\":5437:5438   */\n      dup1\n        /* \"#utility.yul\":5430:5442   */\n      revert\n        /* \"#utility.yul\":5394:5396   */\n    tag_366:\n        /* \"#utility.yul\":5468:5531   */\n      tag_367\n        /* \"#utility.yul\":5523:5530   */\n      dup7\n        /* \"#utility.yul\":5514:5520   */\n      dup3\n        /* \"#utility.yul\":5503:5512   */\n      dup8\n        /* \"#utility.yul\":5499:5521   */\n      add\n        /* \"#utility.yul\":5468:5531   */\n      tag_327\n      jump\t// in\n    tag_367:\n        /* \"#utility.yul\":5458:5531   */\n      swap2\n      pop\n        /* \"#utility.yul\":5320:5541   */\n      pop\n        /* \"#utility.yul\":4993:5548   */\n      swap3\n      pop\n      swap3\n      pop\n      swap3\n      jump\t// out\n        /* \"#utility.yul\":5554:5814   */\n    tag_22:\n        /* \"#utility.yul\":5612:5618   */\n      0x00\n        /* \"#utility.yul\":5661:5663   */\n      0x20\n        /* \"#utility.yul\":5649:5658   */\n      dup3\n        /* \"#utility.yul\":5640:5647   */\n      dup5\n        /* \"#utility.yul\":5636:5659   */\n      sub\n        /* \"#utility.yul\":5632:5664   */\n      slt\n        /* \"#utility.yul\":5629:5631   */\n      iszero\n      tag_369\n      jumpi\n        /* \"#utility.yul\":5677:5678   */\n      0x00\n        /* \"#utility.yul\":5674:5675   */\n      dup1\n        /* \"#utility.yul\":5667:5679   */\n      revert\n        /* \"#utility.yul\":5629:5631   */\n    tag_369:\n        /* \"#utility.yul\":5720:5721   */\n      0x00\n        /* \"#utility.yul\":5745:5797   */\n      tag_370\n        /* \"#utility.yul\":5789:5796   */\n      dup5\n        /* \"#utility.yul\":5780:5786   */\n      dup3\n        /* \"#utility.yul\":5769:5778   */\n      dup6\n        /* \"#utility.yul\":5765:5787   */\n      add\n        /* \"#utility.yul\":5745:5797   */\n      tag_316\n      jump\t// in\n    tag_370:\n        /* \"#utility.yul\":5735:5797   */\n      swap2\n      pop\n        /* \"#utility.yul\":5691:5807   */\n      pop\n        /* \"#utility.yul\":5619:5814   */\n      swap3\n      swap2\n      pop\n      pop\n      jump\t// out\n        /* \"#utility.yul\":5820:6102   */\n    tag_249:\n        /* \"#utility.yul\":5889:5895   */\n      0x00\n        /* \"#utility.yul\":5938:5940   */\n      0x20\n        /* \"#utility.yul\":5926:5935   */\n      dup3\n        /* \"#utility.yul\":5917:5924   */\n      dup5\n        /* \"#utility.yul\":5913:5936   */\n      sub\n        /* \"#utility.yul\":5909:5941   */\n      slt\n        /* \"#utility.yul\":5906:5908   */\n      iszero\n      tag_372\n      jumpi\n        /* \"#utility.yul\":5954:5955   */\n      0x00\n        /* \"#utility.yul\":5951:5952   */\n      dup1\n        /* \"#utility.yul\":5944:5956   */\n      revert\n        /* \"#utility.yul\":5906:5908   */\n    tag_372:\n        /* \"#utility.yul\":5997:5998   */\n      0x00\n        /* \"#utility.yul\":6022:6085   */\n      tag_373\n        /* \"#utility.yul\":6077:6084   */\n      dup5\n        /* \"#utility.yul\":6068:6074   */\n      dup3\n        /* \"#utility.yul\":6057:6066   */\n      dup6\n        /* \"#utility.yul\":6053:6075   */\n      add\n        /* \"#utility.yul\":6022:6085   */\n      tag_320\n      jump\t// in\n    tag_373:\n        /* \"#utility.yul\":6012:6085   */\n      swap2\n      pop\n        /* \"#utility.yul\":5968:6095   */\n      pop\n        /* \"#utility.yul\":5896:6102   */\n      swap3\n      swap2\n      pop\n      pop\n      jump\t// out\n        /* \"#utility.yul\":6108:6370   */\n    tag_32:\n        /* \"#utility.yul\":6167:6173   */\n      0x00\n        /* \"#utility.yul\":6216:6218   */\n      0x20\n        /* \"#utility.yul\":6204:6213   */\n      dup3\n        /* \"#utility.yul\":6195:6202   */\n      dup5\n        /* \"#utility.yul\":6191:6214   */\n      sub\n        /* \"#utility.yul\":6187:6219   */\n      slt\n        /* \"#utility.yul\":6184:6186   */\n      iszero\n      tag_375\n      jumpi\n        /* \"#utility.yul\":6232:6233   */\n      0x00\n        /* \"#utility.yul\":6229:6230   */\n      dup1\n        /* \"#utility.yul\":6222:6234   */\n      revert\n        /* \"#utility.yul\":6184:6186   */\n    tag_375:\n        /* \"#utility.yul\":6275:6276   */\n      0x00\n        /* \"#utility.yul\":6300:6353   */\n      tag_376\n        /* \"#utility.yul\":6345:6352   */\n      dup5\n        /* \"#utility.yul\":6336:6342   */\n      dup3\n        /* \"#utility.yul\":6325:6334   */\n      dup6\n        /* \"#utility.yul\":6321:6343   */\n      add\n        /* \"#utility.yul\":6300:6353   */\n      tag_331\n      jump\t// in\n    tag_376:\n        /* \"#utility.yul\":6290:6353   */\n      swap2\n      pop\n        /* \"#utility.yul\":6246:6363   */\n      pop\n        /* \"#utility.yul\":6174:6370   */\n      swap3\n      swap2\n      pop\n      pop\n      jump\t// out\n        /* \"#utility.yul\":6376:6494   */\n    tag_377:\n        /* \"#utility.yul\":6463:6487   */\n      tag_379\n        /* \"#utility.yul\":6481:6486   */\n      dup2\n        /* \"#utility.yul\":6463:6487   */\n      tag_380\n      jump\t// in\n    tag_379:\n        /* \"#utility.yul\":6458:6461   */\n      dup3\n        /* \"#utility.yul\":6451:6488   */\n      mstore\n        /* \"#utility.yul\":6441:6494   */\n      pop\n      pop\n      jump\t// out\n        /* \"#utility.yul\":6500:6609   */\n    tag_381:\n        /* \"#utility.yul\":6581:6602   */\n      tag_383\n        /* \"#utility.yul\":6596:6601   */\n      dup2\n        /* \"#utility.yul\":6581:6602   */\n      tag_384\n      jump\t// in\n    tag_383:\n        /* \"#utility.yul\":6576:6579   */\n      dup3\n        /* \"#utility.yul\":6569:6603   */\n      mstore\n        /* \"#utility.yul\":6559:6609   */\n      pop\n      pop\n      jump\t// out\n        /* \"#utility.yul\":6615:6975   */\n    tag_385:\n        /* \"#utility.yul\":6701:6704   */\n      0x00\n        /* \"#utility.yul\":6729:6767   */\n      tag_387\n        /* \"#utility.yul\":6761:6766   */\n      dup3\n        /* \"#utility.yul\":6729:6767   */\n      tag_388\n      jump\t// in\n    tag_387:\n        /* \"#utility.yul\":6783:6853   */\n      tag_389\n        /* \"#utility.yul\":6846:6852   */\n      dup2\n        /* \"#utility.yul\":6841:6844   */\n      dup6\n        /* \"#utility.yul\":6783:6853   */\n      tag_390\n      jump\t// in\n    tag_389:\n        /* \"#utility.yul\":6776:6853   */\n      swap4\n      pop\n        /* \"#utility.yul\":6862:6914   */\n      tag_391\n        /* \"#utility.yul\":6907:6913   */\n      dup2\n        /* \"#utility.yul\":6902:6905   */\n      dup6\n        /* \"#utility.yul\":6895:6899   */\n      0x20\n        /* \"#utility.yul\":6888:6893   */\n      dup7\n        /* \"#utility.yul\":6884:6900   */\n      add\n        /* \"#utility.yul\":6862:6914   */\n      tag_392\n      jump\t// in\n    tag_391:\n        /* \"#utility.yul\":6939:6968   */\n      tag_393\n        /* \"#utility.yul\":6961:6967   */\n      dup2\n        /* \"#utility.yul\":6939:6968   */\n      tag_394\n      jump\t// in\n    tag_393:\n        /* \"#utility.yul\":6934:6937   */\n      dup5\n        /* \"#utility.yul\":6930:6969   */\n      add\n        /* \"#utility.yul\":6923:6969   */\n      swap2\n      pop\n        /* \"#utility.yul\":6705:6975   */\n      pop\n      swap3\n      swap2\n      pop\n      pop\n      jump\t// out\n        /* \"#utility.yul\":6981:7345   */\n    tag_395:\n        /* \"#utility.yul\":7069:7072   */\n      0x00\n        /* \"#utility.yul\":7097:7136   */\n      tag_397\n        /* \"#utility.yul\":7130:7135   */\n      dup3\n        /* \"#utility.yul\":7097:7136   */\n      tag_398\n      jump\t// in\n    tag_397:\n        /* \"#utility.yul\":7152:7223   */\n      tag_399\n        /* \"#utility.yul\":7216:7222   */\n      dup2\n        /* \"#utility.yul\":7211:7214   */\n      dup6\n        /* \"#utility.yul\":7152:7223   */\n      tag_400\n      jump\t// in\n    tag_399:\n        /* \"#utility.yul\":7145:7223   */\n      swap4\n      pop\n        /* \"#utility.yul\":7232:7284   */\n      tag_401\n        /* \"#utility.yul\":7277:7283   */\n      dup2\n        /* \"#utility.yul\":7272:7275   */\n      dup6\n        /* \"#utility.yul\":7265:7269   */\n      0x20\n        /* \"#utility.yul\":7258:7263   */\n      dup7\n        /* \"#utility.yul\":7254:7270   */\n      add\n        /* \"#utility.yul\":7232:7284   */\n      tag_392\n      jump\t// in\n    tag_401:\n        /* \"#utility.yul\":7309:7338   */\n      tag_402\n        /* \"#utility.yul\":7331:7337   */\n      dup2\n        /* \"#utility.yul\":7309:7338   */\n      tag_394\n      jump\t// in\n    tag_402:\n        /* \"#utility.yul\":7304:7307   */\n      dup5\n        /* \"#utility.yul\":7300:7339   */\n      add\n        /* \"#utility.yul\":7293:7339   */\n      swap2\n      pop\n        /* \"#utility.yul\":7073:7345   */\n      pop\n      swap3\n      swap2\n      pop\n      pop\n      jump\t// out\n        /* \"#utility.yul\":7351:7728   */\n    tag_403:\n        /* \"#utility.yul\":7457:7460   */\n      0x00\n        /* \"#utility.yul\":7485:7524   */\n      tag_405\n        /* \"#utility.yul\":7518:7523   */\n      dup3\n        /* \"#utility.yul\":7485:7524   */\n      tag_398\n      jump\t// in\n    tag_405:\n        /* \"#utility.yul\":7540:7629   */\n      tag_406\n        /* \"#utility.yul\":7622:7628   */\n      dup2\n        /* \"#utility.yul\":7617:7620   */\n      dup6\n        /* \"#utility.yul\":7540:7629   */\n      tag_407\n      jump\t// in\n    tag_406:\n        /* \"#utility.yul\":7533:7629   */\n      swap4\n      pop\n        /* \"#utility.yul\":7638:7690   */\n      tag_408\n        /* \"#utility.yul\":7683:7689   */\n      dup2\n        /* \"#utility.yul\":7678:7681   */\n      dup6\n        /* \"#utility.yul\":7671:7675   */\n      0x20\n        /* \"#utility.yul\":7664:7669   */\n      dup7\n        /* \"#utility.yul\":7660:7676   */\n      add\n        /* \"#utility.yul\":7638:7690   */\n      tag_392\n      jump\t// in\n    tag_408:\n        /* \"#utility.yul\":7715:7721   */\n      dup1\n        /* \"#utility.yul\":7710:7713   */\n      dup5\n        /* \"#utility.yul\":7706:7722   */\n      add\n        /* \"#utility.yul\":7699:7722   */\n      swap2\n      pop\n        /* \"#utility.yul\":7461:7728   */\n      pop\n      swap3\n      swap2\n      pop\n      pop\n      jump\t// out\n        /* \"#utility.yul\":7734:8100   */\n    tag_409:\n        /* \"#utility.yul\":7876:7879   */\n      0x00\n        /* \"#utility.yul\":7897:7964   */\n      tag_411\n        /* \"#utility.yul\":7961:7963   */\n      0x2d\n        /* \"#utility.yul\":7956:7959   */\n      dup4\n        /* \"#utility.yul\":7897:7964   */\n      tag_400\n      jump\t// in\n    tag_411:\n        /* \"#utility.yul\":7890:7964   */\n      swap2\n      pop\n        /* \"#utility.yul\":7973:8066   */\n      tag_412\n        /* \"#utility.yul\":8062:8065   */\n      dup3\n        /* \"#utility.yul\":7973:8066   */\n      tag_413\n      jump\t// in\n    tag_412:\n        /* \"#utility.yul\":8091:8093   */\n      0x40\n        /* \"#utility.yul\":8086:8089   */\n      dup3\n        /* \"#utility.yul\":8082:8094   */\n      add\n        /* \"#utility.yul\":8075:8094   */\n      swap1\n      pop\n        /* \"#utility.yul\":7880:8100   */\n      swap2\n      swap1\n      pop\n      jump\t// out\n        /* \"#utility.yul\":8106:8472   */\n    tag_414:\n        /* \"#utility.yul\":8248:8251   */\n      0x00\n        /* \"#utility.yul\":8269:8336   */\n      tag_416\n        /* \"#utility.yul\":8333:8335   */\n      0x32\n        /* \"#utility.yul\":8328:8331   */\n      dup4\n        /* \"#utility.yul\":8269:8336   */\n      tag_400\n      jump\t// in\n    tag_416:\n        /* \"#utility.yul\":8262:8336   */\n      swap2\n      pop\n        /* \"#utility.yul\":8345:8438   */\n      tag_417\n        /* \"#utility.yul\":8434:8437   */\n      dup3\n        /* \"#utility.yul\":8345:8438   */\n      tag_418\n      jump\t// in\n    tag_417:\n        /* \"#utility.yul\":8463:8465   */\n      0x40\n        /* \"#utility.yul\":8458:8461   */\n      dup3\n        /* \"#utility.yul\":8454:8466   */\n      add\n        /* \"#utility.yul\":8447:8466   */\n      swap1\n      pop\n        /* \"#utility.yul\":8252:8472   */\n      swap2\n      swap1\n      pop\n      jump\t// out\n        /* \"#utility.yul\":8478:8844   */\n    tag_419:\n        /* \"#utility.yul\":8620:8623   */\n      0x00\n        /* \"#utility.yul\":8641:8708   */\n      tag_421\n        /* \"#utility.yul\":8705:8707   */\n      0x25\n        /* \"#utility.yul\":8700:8703   */\n      dup4\n        /* \"#utility.yul\":8641:8708   */\n      tag_400\n      jump\t// in\n    tag_421:\n        /* \"#utility.yul\":8634:8708   */\n      swap2\n      pop\n        /* \"#utility.yul\":8717:8810   */\n      tag_422\n        /* \"#utility.yul\":8806:8809   */\n      dup3\n        /* \"#utility.yul\":8717:8810   */\n      tag_423\n      jump\t// in\n    tag_422:\n        /* \"#utility.yul\":8835:8837   */\n      0x40\n        /* \"#utility.yul\":8830:8833   */\n      dup3\n        /* \"#utility.yul\":8826:8838   */\n      add\n        /* \"#utility.yul\":8819:8838   */\n      swap1\n      pop\n        /* \"#utility.yul\":8624:8844   */\n      swap2\n      swap1\n      pop\n      jump\t// out\n        /* \"#utility.yul\":8850:9216   */\n    tag_424:\n        /* \"#utility.yul\":8992:8995   */\n      0x00\n        /* \"#utility.yul\":9013:9080   */\n      tag_426\n        /* \"#utility.yul\":9077:9079   */\n      0x1c\n        /* \"#utility.yul\":9072:9075   */\n      dup4\n        /* \"#utility.yul\":9013:9080   */\n      tag_400\n      jump\t// in\n    tag_426:\n        /* \"#utility.yul\":9006:9080   */\n      swap2\n      pop\n        /* \"#utility.yul\":9089:9182   */\n      tag_427\n        /* \"#utility.yul\":9178:9181   */\n      dup3\n        /* \"#utility.yul\":9089:9182   */\n      tag_428\n      jump\t// in\n    tag_427:\n        /* \"#utility.yul\":9207:9209   */\n      0x20\n        /* \"#utility.yul\":9202:9205   */\n      dup3\n        /* \"#utility.yul\":9198:9210   */\n      add\n        /* \"#utility.yul\":9191:9210   */\n      swap1\n      pop\n        /* \"#utility.yul\":8996:9216   */\n      swap2\n      swap1\n      pop\n      jump\t// out\n        /* \"#utility.yul\":9222:9588   */\n    tag_429:\n        /* \"#utility.yul\":9364:9367   */\n      0x00\n        /* \"#utility.yul\":9385:9452   */\n      tag_431\n        /* \"#utility.yul\":9449:9451   */\n      0x24\n        /* \"#utility.yul\":9444:9447   */\n      dup4\n        /* \"#utility.yul\":9385:9452   */\n      tag_400\n      jump\t// in\n    tag_431:\n        /* \"#utility.yul\":9378:9452   */\n      swap2\n      pop\n        /* \"#utility.yul\":9461:9554   */\n      tag_432\n        /* \"#utility.yul\":9550:9553   */\n      dup3\n        /* \"#utility.yul\":9461:9554   */\n      tag_433\n      jump\t// in\n    tag_432:\n        /* \"#utility.yul\":9579:9581   */\n      0x40\n        /* \"#utility.yul\":9574:9577   */\n      dup3\n        /* \"#utility.yul\":9570:9582   */\n      add\n        /* \"#utility.yul\":9563:9582   */\n      swap1\n      pop\n        /* \"#utility.yul\":9368:9588   */\n      swap2\n      swap1\n      pop\n      jump\t// out\n        /* \"#utility.yul\":9594:9960   */\n    tag_434:\n        /* \"#utility.yul\":9736:9739   */\n      0x00\n        /* \"#utility.yul\":9757:9824   */\n      tag_436\n        /* \"#utility.yul\":9821:9823   */\n      0x19\n        /* \"#utility.yul\":9816:9819   */\n      dup4\n        /* \"#utility.yul\":9757:9824   */\n      tag_400\n      jump\t// in\n    tag_436:\n        /* \"#utility.yul\":9750:9824   */\n      swap2\n      pop\n        /* \"#utility.yul\":9833:9926   */\n      tag_437\n        /* \"#utility.yul\":9922:9925   */\n      dup3\n        /* \"#utility.yul\":9833:9926   */\n      tag_438\n      jump\t// in\n    tag_437:\n        /* \"#utility.yul\":9951:9953   */\n      0x20\n        /* \"#utility.yul\":9946:9949   */\n      dup3\n        /* \"#utility.yul\":9942:9954   */\n      add\n        /* \"#utility.yul\":9935:9954   */\n      swap1\n      pop\n        /* \"#utility.yul\":9740:9960   */\n      swap2\n      swap1\n      pop\n      jump\t// out\n        /* \"#utility.yul\":9966:10332   */\n    tag_439:\n        /* \"#utility.yul\":10108:10111   */\n      0x00\n        /* \"#utility.yul\":10129:10196   */\n      tag_441\n        /* \"#utility.yul\":10193:10195   */\n      0x29\n        /* \"#utility.yul\":10188:10191   */\n      dup4\n        /* \"#utility.yul\":10129:10196   */\n      tag_400\n      jump\t// in\n    tag_441:\n        /* \"#utility.yul\":10122:10196   */\n      swap2\n      pop\n        /* \"#utility.yul\":10205:10298   */\n      tag_442\n        /* \"#utility.yul\":10294:10297   */\n      dup3\n        /* \"#utility.yul\":10205:10298   */\n      tag_443\n      jump\t// in\n    tag_442:\n        /* \"#utility.yul\":10323:10325   */\n      0x40\n        /* \"#utility.yul\":10318:10321   */\n      dup3\n        /* \"#utility.yul\":10314:10326   */\n      add\n        /* \"#utility.yul\":10307:10326   */\n      swap1\n      pop\n        /* \"#utility.yul\":10112:10332   */\n      swap2\n      swap1\n      pop\n      jump\t// out\n        /* \"#utility.yul\":10338:10704   */\n    tag_444:\n        /* \"#utility.yul\":10480:10483   */\n      0x00\n        /* \"#utility.yul\":10501:10568   */\n      tag_446\n        /* \"#utility.yul\":10565:10567   */\n      0x2e\n        /* \"#utility.yul\":10560:10563   */\n      dup4\n        /* \"#utility.yul\":10501:10568   */\n      tag_400\n      jump\t// in\n    tag_446:\n        /* \"#utility.yul\":10494:10568   */\n      swap2\n      pop\n        /* \"#utility.yul\":10577:10670   */\n      tag_447\n        /* \"#utility.yul\":10666:10669   */\n      dup3\n        /* \"#utility.yul\":10577:10670   */\n      tag_448\n      jump\t// in\n    tag_447:\n        /* \"#utility.yul\":10695:10697   */\n      0x40\n        /* \"#utility.yul\":10690:10693   */\n      dup3\n        /* \"#utility.yul\":10686:10698   */\n      add\n        /* \"#utility.yul\":10679:10698   */\n      swap1\n      pop\n        /* \"#utility.yul\":10484:10704   */\n      swap2\n      swap1\n      pop\n      jump\t// out\n        /* \"#utility.yul\":10710:11076   */\n    tag_449:\n        /* \"#utility.yul\":10852:10855   */\n      0x00\n        /* \"#utility.yul\":10873:10940   */\n      tag_451\n        /* \"#utility.yul\":10937:10939   */\n      0x20\n        /* \"#utility.yul\":10932:10935   */\n      dup4\n        /* \"#utility.yul\":10873:10940   */\n      tag_400\n      jump\t// in\n    tag_451:\n        /* \"#utility.yul\":10866:10940   */\n      swap2\n      pop\n        /* \"#utility.yul\":10949:11042   */\n      tag_452\n        /* \"#utility.yul\":11038:11041   */\n      dup3\n        /* \"#utility.yul\":10949:11042   */\n      tag_453\n      jump\t// in\n    tag_452:\n        /* \"#utility.yul\":11067:11069   */\n      0x20\n        /* \"#utility.yul\":11062:11065   */\n      dup3\n        /* \"#utility.yul\":11058:11070   */\n      add\n        /* \"#utility.yul\":11051:11070   */\n      swap1\n      pop\n        /* \"#utility.yul\":10856:11076   */\n      swap2\n      swap1\n      pop\n      jump\t// out\n        /* \"#utility.yul\":11082:11448   */\n    tag_454:\n        /* \"#utility.yul\":11224:11227   */\n      0x00\n        /* \"#utility.yul\":11245:11312   */\n      tag_456\n        /* \"#utility.yul\":11309:11311   */\n      0x18\n        /* \"#utility.yul\":11304:11307   */\n      dup4\n        /* \"#utility.yul\":11245:11312   */\n      tag_400\n      jump\t// in\n    tag_456:\n        /* \"#utility.yul\":11238:11312   */\n      swap2\n      pop\n        /* \"#utility.yul\":11321:11414   */\n      tag_457\n        /* \"#utility.yul\":11410:11413   */\n      dup3\n        /* \"#utility.yul\":11321:11414   */\n      tag_458\n      jump\t// in\n    tag_457:\n        /* \"#utility.yul\":11439:11441   */\n      0x20\n        /* \"#utility.yul\":11434:11437   */\n      dup3\n        /* \"#utility.yul\":11430:11442   */\n      add\n        /* \"#utility.yul\":11423:11442   */\n      swap1\n      pop\n        /* \"#utility.yul\":11228:11448   */\n      swap2\n      swap1\n      pop\n      jump\t// out\n        /* \"#utility.yul\":11454:11820   */\n    tag_459:\n        /* \"#utility.yul\":11596:11599   */\n      0x00\n        /* \"#utility.yul\":11617:11684   */\n      tag_461\n        /* \"#utility.yul\":11681:11683   */\n      0x21\n        /* \"#utility.yul\":11676:11679   */\n      dup4\n        /* \"#utility.yul\":11617:11684   */\n      tag_400\n      jump\t// in\n    tag_461:\n        /* \"#utility.yul\":11610:11684   */\n      swap2\n      pop\n        /* \"#utility.yul\":11693:11786   */\n      tag_462\n        /* \"#utility.yul\":11782:11785   */\n      dup3\n        /* \"#utility.yul\":11693:11786   */\n      tag_463\n      jump\t// in\n    tag_462:\n        /* \"#utility.yul\":11811:11813   */\n      0x40\n        /* \"#utility.yul\":11806:11809   */\n      dup3\n        /* \"#utility.yul\":11802:11814   */\n      add\n        /* \"#utility.yul\":11795:11814   */\n      swap1\n      pop\n        /* \"#utility.yul\":11600:11820   */\n      swap2\n      swap1\n      pop\n      jump\t// out\n        /* \"#utility.yul\":11826:12192   */\n    tag_464:\n        /* \"#utility.yul\":11968:11971   */\n      0x00\n        /* \"#utility.yul\":11989:12056   */\n      tag_466\n        /* \"#utility.yul\":12053:12055   */\n      0x3d\n        /* \"#utility.yul\":12048:12051   */\n      dup4\n        /* \"#utility.yul\":11989:12056   */\n      tag_400\n      jump\t// in\n    tag_466:\n        /* \"#utility.yul\":11982:12056   */\n      swap2\n      pop\n        /* \"#utility.yul\":12065:12158   */\n      tag_467\n        /* \"#utility.yul\":12154:12157   */\n      dup3\n        /* \"#utility.yul\":12065:12158   */\n      tag_468\n      jump\t// in\n    tag_467:\n        /* \"#utility.yul\":12183:12185   */\n      0x40\n        /* \"#utility.yul\":12178:12181   */\n      dup3\n        /* \"#utility.yul\":12174:12186   */\n      add\n        /* \"#utility.yul\":12167:12186   */\n      swap1\n      pop\n        /* \"#utility.yul\":11972:12192   */\n      swap2\n      swap1\n      pop\n      jump\t// out\n        /* \"#utility.yul\":12198:12316   */\n    tag_469:\n        /* \"#utility.yul\":12285:12309   */\n      tag_471\n        /* \"#utility.yul\":12303:12308   */\n      dup2\n        /* \"#utility.yul\":12285:12309   */\n      tag_472\n      jump\t// in\n    tag_471:\n        /* \"#utility.yul\":12280:12283   */\n      dup3\n        /* \"#utility.yul\":12273:12310   */\n      mstore\n        /* \"#utility.yul\":12263:12316   */\n      pop\n      pop\n      jump\t// out\n        /* \"#utility.yul\":12322:12757   */\n    tag_156:\n        /* \"#utility.yul\":12502:12505   */\n      0x00\n        /* \"#utility.yul\":12524:12619   */\n      tag_474\n        /* \"#utility.yul\":12615:12618   */\n      dup3\n        /* \"#utility.yul\":12606:12612   */\n      dup6\n        /* \"#utility.yul\":12524:12619   */\n      tag_403\n      jump\t// in\n    tag_474:\n        /* \"#utility.yul\":12517:12619   */\n      swap2\n      pop\n        /* \"#utility.yul\":12636:12731   */\n      tag_475\n        /* \"#utility.yul\":12727:12730   */\n      dup3\n        /* \"#utility.yul\":12718:12724   */\n      dup5\n        /* \"#utility.yul\":12636:12731   */\n      tag_403\n      jump\t// in\n    tag_475:\n        /* \"#utility.yul\":12629:12731   */\n      swap2\n      pop\n        /* \"#utility.yul\":12748:12751   */\n      dup2\n        /* \"#utility.yul\":12741:12751   */\n      swap1\n      pop\n        /* \"#utility.yul\":12506:12757   */\n      swap4\n      swap3\n      pop\n      pop\n      pop\n      jump\t// out\n        /* \"#utility.yul\":12763:12985   */\n    tag_35:\n        /* \"#utility.yul\":12856:12860   */\n      0x00\n        /* \"#utility.yul\":12894:12896   */\n      0x20\n        /* \"#utility.yul\":12883:12892   */\n      dup3\n        /* \"#utility.yul\":12879:12897   */\n      add\n        /* \"#utility.yul\":12871:12897   */\n      swap1\n      pop\n        /* \"#utility.yul\":12907:12978   */\n      tag_477\n        /* \"#utility.yul\":12975:12976   */\n      0x00\n        /* \"#utility.yul\":12964:12973   */\n      dup4\n        /* \"#utility.yul\":12960:12977   */\n      add\n        /* \"#utility.yul\":12951:12957   */\n      dup5\n        /* \"#utility.yul\":12907:12978   */\n      tag_377\n      jump\t// in\n    tag_477:\n        /* \"#utility.yul\":12861:12985   */\n      swap3\n      swap2\n      pop\n      pop\n      jump\t// out\n        /* \"#utility.yul\":12991:13631   */\n    tag_245:\n        /* \"#utility.yul\":13186:13190   */\n      0x00\n        /* \"#utility.yul\":13224:13227   */\n      0x80\n        /* \"#utility.yul\":13213:13222   */\n      dup3\n        /* \"#utility.yul\":13209:13228   */\n      add\n        /* \"#utility.yul\":13201:13228   */\n      swap1\n      pop\n        /* \"#utility.yul\":13238:13309   */\n      tag_479\n        /* \"#utility.yul\":13306:13307   */\n      0x00\n        /* \"#utility.yul\":13295:13304   */\n      dup4\n        /* \"#utility.yul\":13291:13308   */\n      add\n        /* \"#utility.yul\":13282:13288   */\n      dup8\n        /* \"#utility.yul\":13238:13309   */\n      tag_377\n      jump\t// in\n    tag_479:\n        /* \"#utility.yul\":13319:13391   */\n      tag_480\n        /* \"#utility.yul\":13387:13389   */\n      0x20\n        /* \"#utility.yul\":13376:13385   */\n      dup4\n        /* \"#utility.yul\":13372:13390   */\n      add\n        /* \"#utility.yul\":13363:13369   */\n      dup7\n        /* \"#utility.yul\":13319:13391   */\n      tag_377\n      jump\t// in\n    tag_480:\n        /* \"#utility.yul\":13401:13473   */\n      tag_481\n        /* \"#utility.yul\":13469:13471   */\n      0x40\n        /* \"#utility.yul\":13458:13467   */\n      dup4\n        /* \"#utility.yul\":13454:13472   */\n      add\n        /* \"#utility.yul\":13445:13451   */\n      dup6\n        /* \"#utility.yul\":13401:13473   */\n      tag_469\n      jump\t// in\n    tag_481:\n        /* \"#utility.yul\":13520:13529   */\n      dup2\n        /* \"#utility.yul\":13514:13518   */\n      dup2\n        /* \"#utility.yul\":13510:13530   */\n      sub\n        /* \"#utility.yul\":13505:13507   */\n      0x60\n        /* \"#utility.yul\":13494:13503   */\n      dup4\n        /* \"#utility.yul\":13490:13508   */\n      add\n        /* \"#utility.yul\":13483:13531   */\n      mstore\n        /* \"#utility.yul\":13548:13624   */\n      tag_482\n        /* \"#utility.yul\":13619:13623   */\n      dup2\n        /* \"#utility.yul\":13610:13616   */\n      dup5\n        /* \"#utility.yul\":13548:13624   */\n      tag_385\n      jump\t// in\n    tag_482:\n        /* \"#utility.yul\":13540:13624   */\n      swap1\n      pop\n        /* \"#utility.yul\":13191:13631   */\n      swap6\n      swap5\n      pop\n      pop\n      pop\n      pop\n      pop\n      jump\t// out\n        /* \"#utility.yul\":13637:13847   */\n    tag_25:\n        /* \"#utility.yul\":13724:13728   */\n      0x00\n        /* \"#utility.yul\":13762:13764   */\n      0x20\n        /* \"#utility.yul\":13751:13760   */\n      dup3\n        /* \"#utility.yul\":13747:13765   */\n      add\n        /* \"#utility.yul\":13739:13765   */\n      swap1\n      pop\n        /* \"#utility.yul\":13775:13840   */\n      tag_484\n        /* \"#utility.yul\":13837:13838   */\n      0x00\n        /* \"#utility.yul\":13826:13835   */\n      dup4\n        /* \"#utility.yul\":13822:13839   */\n      add\n        /* \"#utility.yul\":13813:13819   */\n      dup5\n        /* \"#utility.yul\":13775:13840   */\n      tag_381\n      jump\t// in\n    tag_484:\n        /* \"#utility.yul\":13729:13847   */\n      swap3\n      swap2\n      pop\n      pop\n      jump\t// out\n        /* \"#utility.yul\":13853:14166   */\n    tag_29:\n        /* \"#utility.yul\":13966:13970   */\n      0x00\n        /* \"#utility.yul\":14004:14006   */\n      0x20\n        /* \"#utility.yul\":13993:14002   */\n      dup3\n        /* \"#utility.yul\":13989:14007   */\n      add\n        /* \"#utility.yul\":13981:14007   */\n      swap1\n      pop\n        /* \"#utility.yul\":14053:14062   */\n      dup2\n        /* \"#utility.yul\":14047:14051   */\n      dup2\n        /* \"#utility.yul\":14043:14063   */\n      sub\n        /* \"#utility.yul\":14039:14040   */\n      0x00\n        /* \"#utility.yul\":14028:14037   */\n      dup4\n        /* \"#utility.yul\":14024:14041   */\n      add\n        /* \"#utility.yul\":14017:14064   */\n      mstore\n        /* \"#utility.yul\":14081:14159   */\n      tag_486\n        /* \"#utility.yul\":14154:14158   */\n      dup2\n        /* \"#utility.yul\":14145:14151   */\n      dup5\n        /* \"#utility.yul\":14081:14159   */\n      tag_395\n      jump\t// in\n    tag_486:\n        /* \"#utility.yul\":14073:14159   */\n      swap1\n      pop\n        /* \"#utility.yul\":13971:14166   */\n      swap3\n      swap2\n      pop\n      pop\n      jump\t// out\n        /* \"#utility.yul\":14172:14591   */\n    tag_117:\n        /* \"#utility.yul\":14338:14342   */\n      0x00\n        /* \"#utility.yul\":14376:14378   */\n      0x20\n        /* \"#utility.yul\":14365:14374   */\n      dup3\n        /* \"#utility.yul\":14361:14379   */\n      add\n        /* \"#utility.yul\":14353:14379   */\n      swap1\n      pop\n        /* \"#utility.yul\":14425:14434   */\n      dup2\n        /* \"#utility.yul\":14419:14423   */\n      dup2\n        /* \"#utility.yul\":14415:14435   */\n      sub\n        /* \"#utility.yul\":14411:14412   */\n      0x00\n        /* \"#utility.yul\":14400:14409   */\n      dup4\n        /* \"#utility.yul\":14396:14413   */\n      add\n        /* \"#utility.yul\":14389:14436   */\n      mstore\n        /* \"#utility.yul\":14453:14584   */\n      tag_488\n        /* \"#utility.yul\":14579:14583   */\n      dup2\n        /* \"#utility.yul\":14453:14584   */\n      tag_409\n      jump\t// in\n    tag_488:\n        /* \"#utility.yul\":14445:14584   */\n      swap1\n      pop\n        /* \"#utility.yul\":14343:14591   */\n      swap2\n      swap1\n      pop\n      jump\t// out\n        /* \"#utility.yul\":14597:15016   */\n    tag_204:\n        /* \"#utility.yul\":14763:14767   */\n      0x00\n        /* \"#utility.yul\":14801:14803   */\n      0x20\n        /* \"#utility.yul\":14790:14799   */\n      dup3\n        /* \"#utility.yul\":14786:14804   */\n      add\n        /* \"#utility.yul\":14778:14804   */\n      swap1\n      pop\n        /* \"#utility.yul\":14850:14859   */\n      dup2\n        /* \"#utility.yul\":14844:14848   */\n      dup2\n        /* \"#utility.yul\":14840:14860   */\n      sub\n        /* \"#utility.yul\":14836:14837   */\n      0x00\n        /* \"#utility.yul\":14825:14834   */\n      dup4\n        /* \"#utility.yul\":14821:14838   */\n      add\n        /* \"#utility.yul\":14814:14861   */\n      mstore\n        /* \"#utility.yul\":14878:15009   */\n      tag_490\n        /* \"#utility.yul\":15004:15008   */\n      dup2\n        /* \"#utility.yul\":14878:15009   */\n      tag_414\n      jump\t// in\n    tag_490:\n        /* \"#utility.yul\":14870:15009   */\n      swap1\n      pop\n        /* \"#utility.yul\":14768:15016   */\n      swap2\n      swap1\n      pop\n      jump\t// out\n        /* \"#utility.yul\":15022:15441   */\n    tag_182:\n        /* \"#utility.yul\":15188:15192   */\n      0x00\n        /* \"#utility.yul\":15226:15228   */\n      0x20\n        /* \"#utility.yul\":15215:15224   */\n      dup3\n        /* \"#utility.yul\":15211:15229   */\n      add\n        /* \"#utility.yul\":15203:15229   */\n      swap1\n      pop\n        /* \"#utility.yul\":15275:15284   */\n      dup2\n        /* \"#utility.yul\":15269:15273   */\n      dup2\n        /* \"#utility.yul\":15265:15285   */\n      sub\n        /* \"#utility.yul\":15261:15262   */\n      0x00\n        /* \"#utility.yul\":15250:15259   */\n      dup4\n        /* \"#utility.yul\":15246:15263   */\n      add\n        /* \"#utility.yul\":15239:15286   */\n      mstore\n        /* \"#utility.yul\":15303:15434   */\n      tag_492\n        /* \"#utility.yul\":15429:15433   */\n      dup2\n        /* \"#utility.yul\":15303:15434   */\n      tag_419\n      jump\t// in\n    tag_492:\n        /* \"#utility.yul\":15295:15434   */\n      swap1\n      pop\n        /* \"#utility.yul\":15193:15441   */\n      swap2\n      swap1\n      pop\n      jump\t// out\n        /* \"#utility.yul\":15447:15866   */\n    tag_275:\n        /* \"#utility.yul\":15613:15617   */\n      0x00\n        /* \"#utility.yul\":15651:15653   */\n      0x20\n        /* \"#utility.yul\":15640:15649   */\n      dup3\n        /* \"#utility.yul\":15636:15654   */\n      add\n        /* \"#utility.yul\":15628:15654   */\n      swap1\n      pop\n        /* \"#utility.yul\":15700:15709   */\n      dup2\n        /* \"#utility.yul\":15694:15698   */\n      dup2\n        /* \"#utility.yul\":15690:15710   */\n      sub\n        /* \"#utility.yul\":15686:15687   */\n      0x00\n        /* \"#utility.yul\":15675:15684   */\n      dup4\n        /* \"#utility.yul\":15671:15688   */\n      add\n        /* \"#utility.yul\":15664:15711   */\n      mstore\n        /* \"#utility.yul\":15728:15859   */\n      tag_494\n        /* \"#utility.yul\":15854:15858   */\n      dup2\n        /* \"#utility.yul\":15728:15859   */\n      tag_424\n      jump\t// in\n    tag_494:\n        /* \"#utility.yul\":15720:15859   */\n      swap1\n      pop\n        /* \"#utility.yul\":15618:15866   */\n      swap2\n      swap1\n      pop\n      jump\t// out\n        /* \"#utility.yul\":15872:16291   */\n    tag_185:\n        /* \"#utility.yul\":16038:16042   */\n      0x00\n        /* \"#utility.yul\":16076:16078   */\n      0x20\n        /* \"#utility.yul\":16065:16074   */\n      dup3\n        /* \"#utility.yul\":16061:16079   */\n      add\n        /* \"#utility.yul\":16053:16079   */\n      swap1\n      pop\n        /* \"#utility.yul\":16125:16134   */\n      dup2\n        /* \"#utility.yul\":16119:16123   */\n      dup2\n        /* \"#utility.yul\":16115:16135   */\n      sub\n        /* \"#utility.yul\":16111:16112   */\n      0x00\n        /* \"#utility.yul\":16100:16109   */\n      dup4\n        /* \"#utility.yul\":16096:16113   */\n      add\n        /* \"#utility.yul\":16089:16136   */\n      mstore\n        /* \"#utility.yul\":16153:16284   */\n      tag_496\n        /* \"#utility.yul\":16279:16283   */\n      dup2\n        /* \"#utility.yul\":16153:16284   */\n      tag_429\n      jump\t// in\n    tag_496:\n        /* \"#utility.yul\":16145:16284   */\n      swap1\n      pop\n        /* \"#utility.yul\":16043:16291   */\n      swap2\n      swap1\n      pop\n      jump\t// out\n        /* \"#utility.yul\":16297:16716   */\n    tag_196:\n        /* \"#utility.yul\":16463:16467   */\n      0x00\n        /* \"#utility.yul\":16501:16503   */\n      0x20\n        /* \"#utility.yul\":16490:16499   */\n      dup3\n        /* \"#utility.yul\":16486:16504   */\n      add\n        /* \"#utility.yul\":16478:16504   */\n      swap1\n      pop\n        /* \"#utility.yul\":16550:16559   */\n      dup2\n        /* \"#utility.yul\":16544:16548   */\n      dup2\n        /* \"#utility.yul\":16540:16560   */\n      sub\n        /* \"#utility.yul\":16536:16537   */\n      0x00\n        /* \"#utility.yul\":16525:16534   */\n      dup4\n        /* \"#utility.yul\":16521:16538   */\n      add\n        /* \"#utility.yul\":16514:16561   */\n      mstore\n        /* \"#utility.yul\":16578:16709   */\n      tag_498\n        /* \"#utility.yul\":16704:16708   */\n      dup2\n        /* \"#utility.yul\":16578:16709   */\n      tag_434\n      jump\t// in\n    tag_498:\n        /* \"#utility.yul\":16570:16709   */\n      swap1\n      pop\n        /* \"#utility.yul\":16468:16716   */\n      swap2\n      swap1\n      pop\n      jump\t// out\n        /* \"#utility.yul\":16722:17141   */\n    tag_129:\n        /* \"#utility.yul\":16888:16892   */\n      0x00\n        /* \"#utility.yul\":16926:16928   */\n      0x20\n        /* \"#utility.yul\":16915:16924   */\n      dup3\n        /* \"#utility.yul\":16911:16929   */\n      add\n        /* \"#utility.yul\":16903:16929   */\n      swap1\n      pop\n        /* \"#utility.yul\":16975:16984   */\n      dup2\n        /* \"#utility.yul\":16969:16973   */\n      dup2\n        /* \"#utility.yul\":16965:16985   */\n      sub\n        /* \"#utility.yul\":16961:16962   */\n      0x00\n        /* \"#utility.yul\":16950:16959   */\n      dup4\n        /* \"#utility.yul\":16946:16963   */\n      add\n        /* \"#utility.yul\":16939:16986   */\n      mstore\n        /* \"#utility.yul\":17003:17134   */\n      tag_500\n        /* \"#utility.yul\":17129:17133   */\n      dup2\n        /* \"#utility.yul\":17003:17134   */\n      tag_439\n      jump\t// in\n    tag_500:\n        /* \"#utility.yul\":16995:17134   */\n      swap1\n      pop\n        /* \"#utility.yul\":16893:17141   */\n      swap2\n      swap1\n      pop\n      jump\t// out\n        /* \"#utility.yul\":17147:17566   */\n    tag_233:\n        /* \"#utility.yul\":17313:17317   */\n      0x00\n        /* \"#utility.yul\":17351:17353   */\n      0x20\n        /* \"#utility.yul\":17340:17349   */\n      dup3\n        /* \"#utility.yul\":17336:17354   */\n      add\n        /* \"#utility.yul\":17328:17354   */\n      swap1\n      pop\n        /* \"#utility.yul\":17400:17409   */\n      dup2\n        /* \"#utility.yul\":17394:17398   */\n      dup2\n        /* \"#utility.yul\":17390:17410   */\n      sub\n        /* \"#utility.yul\":17386:17387   */\n      0x00\n        /* \"#utility.yul\":17375:17384   */\n      dup4\n        /* \"#utility.yul\":17371:17388   */\n      add\n        /* \"#utility.yul\":17364:17411   */\n      mstore\n        /* \"#utility.yul\":17428:17559   */\n      tag_502\n        /* \"#utility.yul\":17554:17558   */\n      dup2\n        /* \"#utility.yul\":17428:17559   */\n      tag_444\n      jump\t// in\n    tag_502:\n        /* \"#utility.yul\":17420:17559   */\n      swap1\n      pop\n        /* \"#utility.yul\":17318:17566   */\n      swap2\n      swap1\n      pop\n      jump\t// out\n        /* \"#utility.yul\":17572:17991   */\n    tag_271:\n        /* \"#utility.yul\":17738:17742   */\n      0x00\n        /* \"#utility.yul\":17776:17778   */\n      0x20\n        /* \"#utility.yul\":17765:17774   */\n      dup3\n        /* \"#utility.yul\":17761:17779   */\n      add\n        /* \"#utility.yul\":17753:17779   */\n      swap1\n      pop\n        /* \"#utility.yul\":17825:17834   */\n      dup2\n        /* \"#utility.yul\":17819:17823   */\n      dup2\n        /* \"#utility.yul\":17815:17835   */\n      sub\n        /* \"#utility.yul\":17811:17812   */\n      0x00\n        /* \"#utility.yul\":17800:17809   */\n      dup4\n        /* \"#utility.yul\":17796:17813   */\n      add\n        /* \"#utility.yul\":17789:17836   */\n      mstore\n        /* \"#utility.yul\":17853:17984   */\n      tag_504\n        /* \"#utility.yul\":17979:17983   */\n      dup2\n        /* \"#utility.yul\":17853:17984   */\n      tag_449\n      jump\t// in\n    tag_504:\n        /* \"#utility.yul\":17845:17984   */\n      swap1\n      pop\n        /* \"#utility.yul\":17743:17991   */\n      swap2\n      swap1\n      pop\n      jump\t// out\n        /* \"#utility.yul\":17997:18416   */\n    tag_125:\n        /* \"#utility.yul\":18163:18167   */\n      0x00\n        /* \"#utility.yul\":18201:18203   */\n      0x20\n        /* \"#utility.yul\":18190:18199   */\n      dup3\n        /* \"#utility.yul\":18186:18204   */\n      add\n        /* \"#utility.yul\":18178:18204   */\n      swap1\n      pop\n        /* \"#utility.yul\":18250:18259   */\n      dup2\n        /* \"#utility.yul\":18244:18248   */\n      dup2\n        /* \"#utility.yul\":18240:18260   */\n      sub\n        /* \"#utility.yul\":18236:18237   */\n      0x00\n        /* \"#utility.yul\":18225:18234   */\n      dup4\n        /* \"#utility.yul\":18221:18238   */\n      add\n        /* \"#utility.yul\":18214:18261   */\n      mstore\n        /* \"#utility.yul\":18278:18409   */\n      tag_506\n        /* \"#utility.yul\":18404:18408   */\n      dup2\n        /* \"#utility.yul\":18278:18409   */\n      tag_454\n      jump\t// in\n    tag_506:\n        /* \"#utility.yul\":18270:18409   */\n      swap1\n      pop\n        /* \"#utility.yul\":18168:18416   */\n      swap2\n      swap1\n      pop\n      jump\t// out\n        /* \"#utility.yul\":18422:18841   */\n    tag_100:\n        /* \"#utility.yul\":18588:18592   */\n      0x00\n        /* \"#utility.yul\":18626:18628   */\n      0x20\n        /* \"#utility.yul\":18615:18624   */\n      dup3\n        /* \"#utility.yul\":18611:18629   */\n      add\n        /* \"#utility.yul\":18603:18629   */\n      swap1\n      pop\n        /* \"#utility.yul\":18675:18684   */\n      dup2\n        /* \"#utility.yul\":18669:18673   */\n      dup2\n        /* \"#utility.yul\":18665:18685   */\n      sub\n        /* \"#utility.yul\":18661:18662   */\n      0x00\n        /* \"#utility.yul\":18650:18659   */\n      dup4\n        /* \"#utility.yul\":18646:18663   */\n      add\n        /* \"#utility.yul\":18639:18686   */\n      mstore\n        /* \"#utility.yul\":18703:18834   */\n      tag_508\n        /* \"#utility.yul\":18829:18833   */\n      dup2\n        /* \"#utility.yul\":18703:18834   */\n      tag_459\n      jump\t// in\n    tag_508:\n        /* \"#utility.yul\":18695:18834   */\n      swap1\n      pop\n        /* \"#utility.yul\":18593:18841   */\n      swap2\n      swap1\n      pop\n      jump\t// out\n        /* \"#utility.yul\":18847:19266   */\n    tag_108:\n        /* \"#utility.yul\":19013:19017   */\n      0x00\n        /* \"#utility.yul\":19051:19053   */\n      0x20\n        /* \"#utility.yul\":19040:19049   */\n      dup3\n        /* \"#utility.yul\":19036:19054   */\n      add\n        /* \"#utility.yul\":19028:19054   */\n      swap1\n      pop\n        /* \"#utility.yul\":19100:19109   */\n      dup2\n        /* \"#utility.yul\":19094:19098   */\n      dup2\n        /* \"#utility.yul\":19090:19110   */\n      sub\n        /* \"#utility.yul\":19086:19087   */\n      0x00\n        /* \"#utility.yul\":19075:19084   */\n      dup4\n        /* \"#utility.yul\":19071:19088   */\n      add\n        /* \"#utility.yul\":19064:19111   */\n      mstore\n        /* \"#utility.yul\":19128:19259   */\n      tag_510\n        /* \"#utility.yul\":19254:19258   */\n      dup2\n        /* \"#utility.yul\":19128:19259   */\n      tag_464\n      jump\t// in\n    tag_510:\n        /* \"#utility.yul\":19120:19259   */\n      swap1\n      pop\n        /* \"#utility.yul\":19018:19266   */\n      swap2\n      swap1\n      pop\n      jump\t// out\n        /* \"#utility.yul\":19272:19494   */\n    tag_56:\n        /* \"#utility.yul\":19365:19369   */\n      0x00\n        /* \"#utility.yul\":19403:19405   */\n      0x20\n        /* \"#utility.yul\":19392:19401   */\n      dup3\n        /* \"#utility.yul\":19388:19406   */\n      add\n        /* \"#utility.yul\":19380:19406   */\n      swap1\n      pop\n        /* \"#utility.yul\":19416:19487   */\n      tag_512\n        /* \"#utility.yul\":19484:19485   */\n      0x00\n        /* \"#utility.yul\":19473:19482   */\n      dup4\n        /* \"#utility.yul\":19469:19486   */\n      add\n        /* \"#utility.yul\":19460:19466   */\n      dup5\n        /* \"#utility.yul\":19416:19487   */\n      tag_469\n      jump\t// in\n    tag_512:\n        /* \"#utility.yul\":19370:19494   */\n      swap3\n      swap2\n      pop\n      pop\n      jump\t// out\n        /* \"#utility.yul\":19500:19629   */\n    tag_297:\n        /* \"#utility.yul\":19534:19540   */\n      0x00\n        /* \"#utility.yul\":19561:19581   */\n      tag_514\n      tag_515\n      jump\t// in\n    tag_514:\n        /* \"#utility.yul\":19551:19581   */\n      swap1\n      pop\n        /* \"#utility.yul\":19590:19623   */\n      tag_516\n        /* \"#utility.yul\":19618:19622   */\n      dup3\n        /* \"#utility.yul\":19610:19616   */\n      dup3\n        /* \"#utility.yul\":19590:19623   */\n      tag_517\n      jump\t// in\n    tag_516:\n        /* \"#utility.yul\":19541:19629   */\n      swap2\n      swap1\n      pop\n      jump\t// out\n        /* \"#utility.yul\":19635:19710   */\n    tag_515:\n        /* \"#utility.yul\":19668:19674   */\n      0x00\n        /* \"#utility.yul\":19701:19703   */\n      0x40\n        /* \"#utility.yul\":19695:19704   */\n      mload\n        /* \"#utility.yul\":19685:19704   */\n      swap1\n      pop\n        /* \"#utility.yul\":19675:19710   */\n      swap1\n      jump\t// out\n        /* \"#utility.yul\":19716:20023   */\n    tag_296:\n        /* \"#utility.yul\":19777:19781   */\n      0x00\n        /* \"#utility.yul\":19867:19885   */\n      0xffffffffffffffff\n        /* \"#utility.yul\":19859:19865   */\n      dup3\n        /* \"#utility.yul\":19856:19886   */\n      gt\n        /* \"#utility.yul\":19853:19855   */\n      iszero\n      tag_520\n      jumpi\n        /* \"#utility.yul\":19889:19907   */\n      tag_521\n      tag_522\n      jump\t// in\n    tag_521:\n        /* \"#utility.yul\":19853:19855   */\n    tag_520:\n        /* \"#utility.yul\":19927:19956   */\n      tag_523\n        /* \"#utility.yul\":19949:19955   */\n      dup3\n        /* \"#utility.yul\":19927:19956   */\n      tag_394\n      jump\t// in\n    tag_523:\n        /* \"#utility.yul\":19919:19956   */\n      swap1\n      pop\n        /* \"#utility.yul\":20011:20015   */\n      0x20\n        /* \"#utility.yul\":20005:20009   */\n      dup2\n        /* \"#utility.yul\":20001:20016   */\n      add\n        /* \"#utility.yul\":19993:20016   */\n      swap1\n      pop\n        /* \"#utility.yul\":19782:20023   */\n      swap2\n      swap1\n      pop\n      jump\t// out\n        /* \"#utility.yul\":20029:20337   */\n    tag_305:\n        /* \"#utility.yul\":20091:20095   */\n      0x00\n        /* \"#utility.yul\":20181:20199   */\n      0xffffffffffffffff\n        /* \"#utility.yul\":20173:20179   */\n      dup3\n        /* \"#utility.yul\":20170:20200   */\n      gt\n        /* \"#utility.yul\":20167:20169   */\n      iszero\n      tag_525\n      jumpi\n        /* \"#utility.yul\":20203:20221   */\n      tag_526\n      tag_522\n      jump\t// in\n    tag_526:\n        /* \"#utility.yul\":20167:20169   */\n    tag_525:\n        /* \"#utility.yul\":20241:20270   */\n      tag_527\n        /* \"#utility.yul\":20263:20269   */\n      dup3\n        /* \"#utility.yul\":20241:20270   */\n      tag_394\n      jump\t// in\n    tag_527:\n        /* \"#utility.yul\":20233:20270   */\n      swap1\n      pop\n        /* \"#utility.yul\":20325:20329   */\n      0x20\n        /* \"#utility.yul\":20319:20323   */\n      dup2\n        /* \"#utility.yul\":20315:20330   */\n      add\n        /* \"#utility.yul\":20307:20330   */\n      swap1\n      pop\n        /* \"#utility.yul\":20096:20337   */\n      swap2\n      swap1\n      pop\n      jump\t// out\n        /* \"#utility.yul\":20343:20441   */\n    tag_388:\n        /* \"#utility.yul\":20394:20400   */\n      0x00\n        /* \"#utility.yul\":20428:20433   */\n      dup2\n        /* \"#utility.yul\":20422:20434   */\n      mload\n        /* \"#utility.yul\":20412:20434   */\n      swap1\n      pop\n        /* \"#utility.yul\":20401:20441   */\n      swap2\n      swap1\n      pop\n      jump\t// out\n        /* \"#utility.yul\":20447:20546   */\n    tag_398:\n        /* \"#utility.yul\":20499:20505   */\n      0x00\n        /* \"#utility.yul\":20533:20538   */\n      dup2\n        /* \"#utility.yul\":20527:20539   */\n      mload\n        /* \"#utility.yul\":20517:20539   */\n      swap1\n      pop\n        /* \"#utility.yul\":20506:20546   */\n      swap2\n      swap1\n      pop\n      jump\t// out\n        /* \"#utility.yul\":20552:20720   */\n    tag_390:\n        /* \"#utility.yul\":20635:20646   */\n      0x00\n        /* \"#utility.yul\":20669:20675   */\n      dup3\n        /* \"#utility.yul\":20664:20667   */\n      dup3\n        /* \"#utility.yul\":20657:20676   */\n      mstore\n        /* \"#utility.yul\":20709:20713   */\n      0x20\n        /* \"#utility.yul\":20704:20707   */\n      dup3\n        /* \"#utility.yul\":20700:20714   */\n      add\n        /* \"#utility.yul\":20685:20714   */\n      swap1\n      pop\n        /* \"#utility.yul\":20647:20720   */\n      swap3\n      swap2\n      pop\n      pop\n      jump\t// out\n        /* \"#utility.yul\":20726:20895   */\n    tag_400:\n        /* \"#utility.yul\":20810:20821   */\n      0x00\n        /* \"#utility.yul\":20844:20850   */\n      dup3\n        /* \"#utility.yul\":20839:20842   */\n      dup3\n        /* \"#utility.yul\":20832:20851   */\n      mstore\n        /* \"#utility.yul\":20884:20888   */\n      0x20\n        /* \"#utility.yul\":20879:20882   */\n      dup3\n        /* \"#utility.yul\":20875:20889   */\n      add\n        /* \"#utility.yul\":20860:20889   */\n      swap1\n      pop\n        /* \"#utility.yul\":20822:20895   */\n      swap3\n      swap2\n      pop\n      pop\n      jump\t// out\n        /* \"#utility.yul\":20901:21049   */\n    tag_407:\n        /* \"#utility.yul\":21003:21014   */\n      0x00\n        /* \"#utility.yul\":21040:21043   */\n      dup2\n        /* \"#utility.yul\":21025:21043   */\n      swap1\n      pop\n        /* \"#utility.yul\":21015:21049   */\n      swap3\n      swap2\n      pop\n      pop\n      jump\t// out\n        /* \"#utility.yul\":21055:21360   */\n    tag_223:\n        /* \"#utility.yul\":21095:21098   */\n      0x00\n        /* \"#utility.yul\":21114:21134   */\n      tag_534\n        /* \"#utility.yul\":21132:21133   */\n      dup3\n        /* \"#utility.yul\":21114:21134   */\n      tag_472\n      jump\t// in\n    tag_534:\n        /* \"#utility.yul\":21109:21134   */\n      swap2\n      pop\n        /* \"#utility.yul\":21148:21168   */\n      tag_535\n        /* \"#utility.yul\":21166:21167   */\n      dup4\n        /* \"#utility.yul\":21148:21168   */\n      tag_472\n      jump\t// in\n    tag_535:\n        /* \"#utility.yul\":21143:21168   */\n      swap3\n      pop\n        /* \"#utility.yul\":21302:21303   */\n      dup3\n        /* \"#utility.yul\":21234:21300   */\n      0xffffffffffffffffffffffffffffffffffffffffffffffffffffffffffffffff\n        /* \"#utility.yul\":21230:21304   */\n      sub\n        /* \"#utility.yul\":21227:21228   */\n      dup3\n        /* \"#utility.yul\":21224:21305   */\n      gt\n        /* \"#utility.yul\":21221:21223   */\n      iszero\n      tag_536\n      jumpi\n        /* \"#utility.yul\":21308:21326   */\n      tag_537\n      tag_538\n      jump\t// in\n    tag_537:\n        /* \"#utility.yul\":21221:21223   */\n    tag_536:\n        /* \"#utility.yul\":21352:21353   */\n      dup3\n        /* \"#utility.yul\":21349:21350   */\n      dup3\n        /* \"#utility.yul\":21345:21354   */\n      add\n        /* \"#utility.yul\":21338:21354   */\n      swap1\n      pop\n        /* \"#utility.yul\":21099:21360   */\n      swap3\n      swap2\n      pop\n      pop\n      jump\t// out\n        /* \"#utility.yul\":21366:21551   */\n    tag_213:\n        /* \"#utility.yul\":21406:21407   */\n      0x00\n        /* \"#utility.yul\":21423:21443   */\n      tag_540\n        /* \"#utility.yul\":21441:21442   */\n      dup3\n        /* \"#utility.yul\":21423:21443   */\n      tag_472\n      jump\t// in\n    tag_540:\n        /* \"#utility.yul\":21418:21443   */\n      swap2\n      pop\n        /* \"#utility.yul\":21457:21477   */\n      tag_541\n        /* \"#utility.yul\":21475:21476   */\n      dup4\n        /* \"#utility.yul\":21457:21477   */\n      tag_472\n      jump\t// in\n    tag_541:\n        /* \"#utility.yul\":21452:21477   */\n      swap3\n      pop\n        /* \"#utility.yul\":21496:21497   */\n      dup3\n        /* \"#utility.yul\":21486:21488   */\n      tag_542\n      jumpi\n        /* \"#utility.yul\":21501:21519   */\n      tag_543\n      tag_544\n      jump\t// in\n    tag_543:\n        /* \"#utility.yul\":21486:21488   */\n    tag_542:\n        /* \"#utility.yul\":21543:21544   */\n      dup3\n        /* \"#utility.yul\":21540:21541   */\n      dup3\n        /* \"#utility.yul\":21536:21545   */\n      div\n        /* \"#utility.yul\":21531:21545   */\n      swap1\n      pop\n        /* \"#utility.yul\":21408:21551   */\n      swap3\n      swap2\n      pop\n      pop\n      jump\t// out\n        /* \"#utility.yul\":21557:21748   */\n    tag_219:\n        /* \"#utility.yul\":21597:21601   */\n      0x00\n        /* \"#utility.yul\":21617:21637   */\n      tag_546\n        /* \"#utility.yul\":21635:21636   */\n      dup3\n        /* \"#utility.yul\":21617:21637   */\n      tag_472\n      jump\t// in\n    tag_546:\n        /* \"#utility.yul\":21612:21637   */\n      swap2\n      pop\n        /* \"#utility.yul\":21651:21671   */\n      tag_547\n        /* \"#utility.yul\":21669:21670   */\n      dup4\n        /* \"#utility.yul\":21651:21671   */\n      tag_472\n      jump\t// in\n    tag_547:\n        /* \"#utility.yul\":21646:21671   */\n      swap3\n      pop\n        /* \"#utility.yul\":21690:21691   */\n      dup3\n        /* \"#utility.yul\":21687:21688   */\n      dup3\n        /* \"#utility.yul\":21684:21692   */\n      lt\n        /* \"#utility.yul\":21681:21683   */\n      iszero\n      tag_548\n      jumpi\n        /* \"#utility.yul\":21695:21713   */\n      tag_549\n      tag_538\n      jump\t// in\n    tag_549:\n        /* \"#utility.yul\":21681:21683   */\n    tag_548:\n        /* \"#utility.yul\":21740:21741   */\n      dup3\n        /* \"#utility.yul\":21737:21738   */\n      dup3\n        /* \"#utility.yul\":21733:21742   */\n      sub\n        /* \"#utility.yul\":21725:21742   */\n      swap1\n      pop\n        /* \"#utility.yul\":21602:21748   */\n      swap3\n      swap2\n      pop\n      pop\n      jump\t// out\n        /* \"#utility.yul\":21754:21850   */\n    tag_380:\n        /* \"#utility.yul\":21791:21798   */\n      0x00\n        /* \"#utility.yul\":21820:21844   */\n      tag_551\n        /* \"#utility.yul\":21838:21843   */\n      dup3\n        /* \"#utility.yul\":21820:21844   */\n      tag_552\n      jump\t// in\n    tag_551:\n        /* \"#utility.yul\":21809:21844   */\n      swap1\n      pop\n        /* \"#utility.yul\":21799:21850   */\n      swap2\n      swap1\n      pop\n      jump\t// out\n        /* \"#utility.yul\":21856:21946   */\n    tag_384:\n        /* \"#utility.yul\":21890:21897   */\n      0x00\n        /* \"#utility.yul\":21933:21938   */\n      dup2\n        /* \"#utility.yul\":21926:21939   */\n      iszero\n        /* \"#utility.yul\":21919:21940   */\n      iszero\n        /* \"#utility.yul\":21908:21940   */\n      swap1\n      pop\n        /* \"#utility.yul\":21898:21946   */\n      swap2\n      swap1\n      pop\n      jump\t// out\n        /* \"#utility.yul\":21952:22101   */\n    tag_554:\n        /* \"#utility.yul\":21988:21995   */\n      0x00\n        /* \"#utility.yul\":22028:22094   */\n      0xffffffff00000000000000000000000000000000000000000000000000000000\n        /* \"#utility.yul\":22021:22026   */\n      dup3\n        /* \"#utility.yul\":22017:22095   */\n      and\n        /* \"#utility.yul\":22006:22095   */\n      swap1\n      pop\n        /* \"#utility.yul\":21996:22101   */\n      swap2\n      swap1\n      pop\n      jump\t// out\n        /* \"#utility.yul\":22107:22233   */\n    tag_552:\n        /* \"#utility.yul\":22144:22151   */\n      0x00\n        /* \"#utility.yul\":22184:22226   */\n      0xffffffffffffffffffffffffffffffffffffffff\n        /* \"#utility.yul\":22177:22182   */\n      dup3\n        /* \"#utility.yul\":22173:22227   */\n      and\n        /* \"#utility.yul\":22162:22227   */\n      swap1\n      pop\n        /* \"#utility.yul\":22152:22233   */\n      swap2\n      swap1\n      pop\n      jump\t// out\n        /* \"#utility.yul\":22239:22316   */\n    tag_472:\n        /* \"#utility.yul\":22276:22283   */\n      0x00\n        /* \"#utility.yul\":22305:22310   */\n      dup2\n        /* \"#utility.yul\":22294:22310   */\n      swap1\n      pop\n        /* \"#utility.yul\":22284:22316   */\n      swap2\n      swap1\n      pop\n      jump\t// out\n        /* \"#utility.yul\":22322:22476   */\n    tag_300:\n        /* \"#utility.yul\":22406:22412   */\n      dup3\n        /* \"#utility.yul\":22401:22404   */\n      dup2\n        /* \"#utility.yul\":22396:22399   */\n      dup4\n        /* \"#utility.yul\":22383:22413   */\n      calldatacopy\n        /* \"#utility.yul\":22468:22469   */\n      0x00\n        /* \"#utility.yul\":22459:22465   */\n      dup4\n        /* \"#utility.yul\":22454:22457   */\n      dup4\n        /* \"#utility.yul\":22450:22466   */\n      add\n        /* \"#utility.yul\":22443:22470   */\n      mstore\n        /* \"#utility.yul\":22373:22476   */\n      pop\n      pop\n      pop\n      jump\t// out\n        /* \"#utility.yul\":22482:22789   */\n    tag_392:\n        /* \"#utility.yul\":22550:22551   */\n      0x00\n        /* \"#utility.yul\":22560:22673   */\n    tag_560:\n        /* \"#utility.yul\":22574:22580   */\n      dup4\n        /* \"#utility.yul\":22571:22572   */\n      dup2\n        /* \"#utility.yul\":22568:22581   */\n      lt\n        /* \"#utility.yul\":22560:22673   */\n      iszero\n      tag_562\n      jumpi\n        /* \"#utility.yul\":22659:22660   */\n      dup1\n        /* \"#utility.yul\":22654:22657   */\n      dup3\n        /* \"#utility.yul\":22650:22661   */\n      add\n        /* \"#utility.yul\":22644:22662   */\n      mload\n        /* \"#utility.yul\":22640:22641   */\n      dup2\n        /* \"#utility.yul\":22635:22638   */\n      dup5\n        /* \"#utility.yul\":22631:22642   */\n      add\n        /* \"#utility.yul\":22624:22663   */\n      mstore\n        /* \"#utility.yul\":22596:22598   */\n      0x20\n        /* \"#utility.yul\":22593:22594   */\n      dup2\n        /* \"#utility.yul\":22589:22599   */\n      add\n        /* \"#utility.yul\":22584:22599   */\n      swap1\n      pop\n        /* \"#utility.yul\":22560:22673   */\n      jump(tag_560)\n    tag_562:\n        /* \"#utility.yul\":22691:22697   */\n      dup4\n        /* \"#utility.yul\":22688:22689   */\n      dup2\n        /* \"#utility.yul\":22685:22698   */\n      gt\n        /* \"#utility.yul\":22682:22684   */\n      iszero\n      tag_563\n      jumpi\n        /* \"#utility.yul\":22771:22772   */\n      0x00\n        /* \"#utility.yul\":22762:22768   */\n      dup5\n        /* \"#utility.yul\":22757:22760   */\n      dup5\n        /* \"#utility.yul\":22753:22769   */\n      add\n        /* \"#utility.yul\":22746:22773   */\n      mstore\n        /* \"#utility.yul\":22682:22684   */\n    tag_563:\n        /* \"#utility.yul\":22531:22789   */\n      pop\n      pop\n      pop\n      pop\n      jump\t// out\n        /* \"#utility.yul\":22795:23115   */\n    tag_88:\n        /* \"#utility.yul\":22839:22845   */\n      0x00\n        /* \"#utility.yul\":22876:22877   */\n      0x02\n        /* \"#utility.yul\":22870:22874   */\n      dup3\n        /* \"#utility.yul\":22866:22878   */\n      div\n        /* \"#utility.yul\":22856:22878   */\n      swap1\n      pop\n        /* \"#utility.yul\":22923:22924   */\n      0x01\n        /* \"#utility.yul\":22917:22921   */\n      dup3\n        /* \"#utility.yul\":22913:22925   */\n      and\n        /* \"#utility.yul\":22944:22962   */\n      dup1\n        /* \"#utility.yul\":22934:22936   */\n      tag_565\n      jumpi\n        /* \"#utility.yul\":23000:23004   */\n      0x7f\n        /* \"#utility.yul\":22992:22998   */\n      dup3\n        /* \"#utility.yul\":22988:23005   */\n      and\n        /* \"#utility.yul\":22978:23005   */\n      swap2\n      pop\n        /* \"#utility.yul\":22934:22936   */\n    tag_565:\n        /* \"#utility.yul\":23062:23064   */\n      0x20\n        /* \"#utility.yul\":23054:23060   */\n      dup3\n        /* \"#utility.yul\":23051:23065   */\n      lt\n        /* \"#utility.yul\":23031:23049   */\n      dup2\n        /* \"#utility.yul\":23028:23066   */\n      eq\n        /* \"#utility.yul\":23025:23027   */\n      iszero\n      tag_566\n      jumpi\n        /* \"#utility.yul\":23081:23099   */\n      tag_567\n      tag_568\n      jump\t// in\n    tag_567:\n        /* \"#utility.yul\":23025:23027   */\n    tag_566:\n        /* \"#utility.yul\":22846:23115   */\n      pop\n      swap2\n      swap1\n      pop\n      jump\t// out\n        /* \"#utility.yul\":23121:23402   */\n    tag_517:\n        /* \"#utility.yul\":23204:23231   */\n      tag_570\n        /* \"#utility.yul\":23226:23230   */\n      dup3\n        /* \"#utility.yul\":23204:23231   */\n      tag_394\n      jump\t// in\n    tag_570:\n        /* \"#utility.yul\":23196:23202   */\n      dup2\n        /* \"#utility.yul\":23192:23232   */\n      add\n        /* \"#utility.yul\":23334:23340   */\n      dup2\n        /* \"#utility.yul\":23322:23332   */\n      dup2\n        /* \"#utility.yul\":23319:23341   */\n      lt\n        /* \"#utility.yul\":23298:23316   */\n      0xffffffffffffffff\n        /* \"#utility.yul\":23286:23296   */\n      dup3\n        /* \"#utility.yul\":23283:23317   */\n      gt\n        /* \"#utility.yul\":23280:23342   */\n      or\n        /* \"#utility.yul\":23277:23279   */\n      iszero\n      tag_571\n      jumpi\n        /* \"#utility.yul\":23345:23363   */\n      tag_572\n      tag_522\n      jump\t// in\n    tag_572:\n        /* \"#utility.yul\":23277:23279   */\n    tag_571:\n        /* \"#utility.yul\":23385:23395   */\n      dup1\n        /* \"#utility.yul\":23381:23383   */\n      0x40\n        /* \"#utility.yul\":23374:23396   */\n      mstore\n        /* \"#utility.yul\":23164:23402   */\n      pop\n      pop\n      pop\n      jump\t// out\n        /* \"#utility.yul\":23408:23641   */\n    tag_211:\n        /* \"#utility.yul\":23447:23450   */\n      0x00\n        /* \"#utility.yul\":23470:23494   */\n      tag_574\n        /* \"#utility.yul\":23488:23493   */\n      dup3\n        /* \"#utility.yul\":23470:23494   */\n      tag_472\n      jump\t// in\n    tag_574:\n        /* \"#utility.yul\":23461:23494   */\n      swap2\n      pop\n        /* \"#utility.yul\":23516:23582   */\n      0xffffffffffffffffffffffffffffffffffffffffffffffffffffffffffffffff\n        /* \"#utility.yul\":23509:23514   */\n      dup3\n        /* \"#utility.yul\":23506:23583   */\n      eq\n        /* \"#utility.yul\":23503:23505   */\n      iszero\n      tag_575\n      jumpi\n        /* \"#utility.yul\":23586:23604   */\n      tag_576\n      tag_538\n      jump\t// in\n    tag_576:\n        /* \"#utility.yul\":23503:23505   */\n    tag_575:\n        /* \"#utility.yul\":23633:23634   */\n      0x01\n        /* \"#utility.yul\":23626:23631   */\n      dup3\n        /* \"#utility.yul\":23622:23635   */\n      add\n        /* \"#utility.yul\":23615:23635   */\n      swap1\n      pop\n        /* \"#utility.yul\":23451:23641   */\n      swap2\n      swap1\n      pop\n      jump\t// out\n        /* \"#utility.yul\":23647:23823   */\n    tag_221:\n        /* \"#utility.yul\":23679:23680   */\n      0x00\n        /* \"#utility.yul\":23696:23716   */\n      tag_578\n        /* \"#utility.yul\":23714:23715   */\n      dup3\n        /* \"#utility.yul\":23696:23716   */\n      tag_472\n      jump\t// in\n    tag_578:\n        /* \"#utility.yul\":23691:23716   */\n      swap2\n      pop\n        /* \"#utility.yul\":23730:23750   */\n      tag_579\n        /* \"#utility.yul\":23748:23749   */\n      dup4\n        /* \"#utility.yul\":23730:23750   */\n      tag_472\n      jump\t// in\n    tag_579:\n        /* \"#utility.yul\":23725:23750   */\n      swap3\n      pop\n        /* \"#utility.yul\":23769:23770   */\n      dup3\n        /* \"#utility.yul\":23759:23761   */\n      tag_580\n      jumpi\n        /* \"#utility.yul\":23774:23792   */\n      tag_581\n      tag_544\n      jump\t// in\n    tag_581:\n        /* \"#utility.yul\":23759:23761   */\n    tag_580:\n        /* \"#utility.yul\":23815:23816   */\n      dup3\n        /* \"#utility.yul\":23812:23813   */\n      dup3\n        /* \"#utility.yul\":23808:23817   */\n      mod\n        /* \"#utility.yul\":23803:23817   */\n      swap1\n      pop\n        /* \"#utility.yul\":23681:23823   */\n      swap3\n      swap2\n      pop\n      pop\n      jump\t// out\n        /* \"#utility.yul\":23829:24009   */\n    tag_538:\n        /* \"#utility.yul\":23877:23954   */\n      0x4e487b7100000000000000000000000000000000000000000000000000000000\n        /* \"#utility.yul\":23874:23875   */\n      0x00\n        /* \"#utility.yul\":23867:23955   */\n      mstore\n        /* \"#utility.yul\":23974:23978   */\n      0x11\n        /* \"#utility.yul\":23971:23972   */\n      0x04\n        /* \"#utility.yul\":23964:23979   */\n      mstore\n        /* \"#utility.yul\":23998:24002   */\n      0x24\n        /* \"#utility.yul\":23995:23996   */\n      0x00\n        /* \"#utility.yul\":23988:24003   */\n      revert\n        /* \"#utility.yul\":24015:24195   */\n    tag_544:\n        /* \"#utility.yul\":24063:24140   */\n      0x4e487b7100000000000000000000000000000000000000000000000000000000\n        /* \"#utility.yul\":24060:24061   */\n      0x00\n        /* \"#utility.yul\":24053:24141   */\n      mstore\n        /* \"#utility.yul\":24160:24164   */\n      0x12\n        /* \"#utility.yul\":24157:24158   */\n      0x04\n        /* \"#utility.yul\":24150:24165   */\n      mstore\n        /* \"#utility.yul\":24184:24188   */\n      0x24\n        /* \"#utility.yul\":24181:24182   */\n      0x00\n        /* \"#utility.yul\":24174:24189   */\n      revert\n        /* \"#utility.yul\":24201:24381   */\n    tag_568:\n        /* \"#utility.yul\":24249:24326   */\n      0x4e487b7100000000000000000000000000000000000000000000000000000000\n        /* \"#utility.yul\":24246:24247   */\n      0x00\n        /* \"#utility.yul\":24239:24327   */\n      mstore\n        /* \"#utility.yul\":24346:24350   */\n      0x22\n        /* \"#utility.yul\":24343:24344   */\n      0x04\n        /* \"#utility.yul\":24336:24351   */\n      mstore\n        /* \"#utility.yul\":24370:24374   */\n      0x24\n        /* \"#utility.yul\":24367:24368   */\n      0x00\n        /* \"#utility.yul\":24360:24375   */\n      revert\n        /* \"#utility.yul\":24387:24567   */\n    tag_522:\n        /* \"#utility.yul\":24435:24512   */\n      0x4e487b7100000000000000000000000000000000000000000000000000000000\n        /* \"#utility.yul\":24432:24433   */\n      0x00\n        /* \"#utility.yul\":24425:24513   */\n      mstore\n        /* \"#utility.yul\":24532:24536   */\n      0x41\n        /* \"#utility.yul\":24529:24530   */\n      0x04\n        /* \"#utility.yul\":24522:24537   */\n      mstore\n        /* \"#utility.yul\":24556:24560   */\n      0x24\n        /* \"#utility.yul\":24553:24554   */\n      0x00\n        /* \"#utility.yul\":24546:24561   */\n      revert\n        /* \"#utility.yul\":24573:24675   */\n    tag_394:\n        /* \"#utility.yul\":24614:24620   */\n      0x00\n        /* \"#utility.yul\":24665:24667   */\n      0x1f\n        /* \"#utility.yul\":24661:24668   */\n      not\n        /* \"#utility.yul\":24656:24658   */\n      0x1f\n        /* \"#utility.yul\":24649:24654   */\n      dup4\n        /* \"#utility.yul\":24645:24659   */\n      add\n        /* \"#utility.yul\":24641:24669   */\n      and\n        /* \"#utility.yul\":24631:24669   */\n      swap1\n      pop\n        /* \"#utility.yul\":24621:24675   */\n      swap2\n      swap1\n      pop\n      jump\t// out\n        /* \"#utility.yul\":24681:24913   */\n    tag_413:\n        /* \"#utility.yul\":24821:24855   */\n      0x4552433732313a2063616c6c6572206973206e6f7420746f6b656e206f776e65\n        /* \"#utility.yul\":24817:24818   */\n      0x00\n        /* \"#utility.yul\":24809:24815   */\n      dup3\n        /* \"#utility.yul\":24805:24819   */\n      add\n        /* \"#utility.yul\":24798:24856   */\n      mstore\n        /* \"#utility.yul\":24890:24905   */\n      0x72206f7220617070726f76656400000000000000000000000000000000000000\n        /* \"#utility.yul\":24885:24887   */\n      0x20\n        /* \"#utility.yul\":24877:24883   */\n      dup3\n        /* \"#utility.yul\":24873:24888   */\n      add\n        /* \"#utility.yul\":24866:24906   */\n      mstore\n        /* \"#utility.yul\":24787:24913   */\n      pop\n      jump\t// out\n        /* \"#utility.yul\":24919:25156   */\n    tag_418:\n        /* \"#utility.yul\":25059:25093   */\n      0x4552433732313a207472616e7366657220746f206e6f6e204552433732315265\n        /* \"#utility.yul\":25055:25056   */\n      0x00\n        /* \"#utility.yul\":25047:25053   */\n      dup3\n        /* \"#utility.yul\":25043:25057   */\n      add\n        /* \"#utility.yul\":25036:25094   */\n      mstore\n        /* \"#utility.yul\":25128:25148   */\n      0x63656976657220696d706c656d656e7465720000000000000000000000000000\n        /* \"#utility.yul\":25123:25125   */\n      0x20\n        /* \"#utility.yul\":25115:25121   */\n      dup3\n        /* \"#utility.yul\":25111:25126   */\n      add\n        /* \"#utility.yul\":25104:25149   */\n      mstore\n        /* \"#utility.yul\":25025:25156   */\n      pop\n      jump\t// out\n        /* \"#utility.yul\":25162:25386   */\n    tag_423:\n        /* \"#utility.yul\":25302:25336   */\n      0x4552433732313a207472616e736665722066726f6d20696e636f727265637420\n        /* \"#utility.yul\":25298:25299   */\n      0x00\n        /* \"#utility.yul\":25290:25296   */\n      dup3\n        /* \"#utility.yul\":25286:25300   */\n      add\n        /* \"#utility.yul\":25279:25337   */\n      mstore\n        /* \"#utility.yul\":25371:25378   */\n      0x6f776e6572000000000000000000000000000000000000000000000000000000\n        /* \"#utility.yul\":25366:25368   */\n      0x20\n        /* \"#utility.yul\":25358:25364   */\n      dup3\n        /* \"#utility.yul\":25354:25369   */\n      add\n        /* \"#utility.yul\":25347:25379   */\n      mstore\n        /* \"#utility.yul\":25268:25386   */\n      pop\n      jump\t// out\n        /* \"#utility.yul\":25392:25570   */\n    tag_428:\n        /* \"#utility.yul\":25532:25562   */\n      0x4552433732313a20746f6b656e20616c7265616479206d696e74656400000000\n        /* \"#utility.yul\":25528:25529   */\n      0x00\n        /* \"#utility.yul\":25520:25526   */\n      dup3\n        /* \"#utility.yul\":25516:25530   */\n      add\n        /* \"#utility.yul\":25509:25563   */\n      mstore\n        /* \"#utility.yul\":25498:25570   */\n      pop\n      jump\t// out\n        /* \"#utility.yul\":25576:25799   */\n    tag_433:\n        /* \"#utility.yul\":25716:25750   */\n      0x4552433732313a207472616e7366657220746f20746865207a65726f20616464\n        /* \"#utility.yul\":25712:25713   */\n      0x00\n        /* \"#utility.yul\":25704:25710   */\n      dup3\n        /* \"#utility.yul\":25700:25714   */\n      add\n        /* \"#utility.yul\":25693:25751   */\n      mstore\n        /* \"#utility.yul\":25785:25791   */\n      0x7265737300000000000000000000000000000000000000000000000000000000\n        /* \"#utility.yul\":25780:25782   */\n      0x20\n        /* \"#utility.yul\":25772:25778   */\n      dup3\n        /* \"#utility.yul\":25768:25783   */\n      add\n        /* \"#utility.yul\":25761:25792   */\n      mstore\n        /* \"#utility.yul\":25682:25799   */\n      pop\n      jump\t// out\n        /* \"#utility.yul\":25805:25980   */\n    tag_438:\n        /* \"#utility.yul\":25945:25972   */\n      0x4552433732313a20617070726f766520746f2063616c6c657200000000000000\n        /* \"#utility.yul\":25941:25942   */\n      0x00\n        /* \"#utility.yul\":25933:25939   */\n      dup3\n        /* \"#utility.yul\":25929:25943   */\n      add\n        /* \"#utility.yul\":25922:25973   */\n      mstore\n        /* \"#utility.yul\":25911:25980   */\n      pop\n      jump\t// out\n        /* \"#utility.yul\":25986:26214   */\n    tag_443:\n        /* \"#utility.yul\":26126:26160   */\n      0x4552433732313a2061646472657373207a65726f206973206e6f742061207661\n        /* \"#utility.yul\":26122:26123   */\n      0x00\n        /* \"#utility.yul\":26114:26120   */\n      dup3\n        /* \"#utility.yul\":26110:26124   */\n      add\n        /* \"#utility.yul\":26103:26161   */\n      mstore\n        /* \"#utility.yul\":26195:26206   */\n      0x6c6964206f776e65720000000000000000000000000000000000000000000000\n        /* \"#utility.yul\":26190:26192   */\n      0x20\n        /* \"#utility.yul\":26182:26188   */\n      dup3\n        /* \"#utility.yul\":26178:26193   */\n      add\n        /* \"#utility.yul\":26171:26207   */\n      mstore\n        /* \"#utility.yul\":26092:26214   */\n      pop\n      jump\t// out\n        /* \"#utility.yul\":26220:26453   */\n    tag_448:\n        /* \"#utility.yul\":26360:26394   */\n      0x45524337323155524953746f726167653a2055524920736574206f66206e6f6e\n        /* \"#utility.yul\":26356:26357   */\n      0x00\n        /* \"#utility.yul\":26348:26354   */\n      dup3\n        /* \"#utility.yul\":26344:26358   */\n      add\n        /* \"#utility.yul\":26337:26395   */\n      mstore\n        /* \"#utility.yul\":26429:26445   */\n      0x6578697374656e7420746f6b656e000000000000000000000000000000000000\n        /* \"#utility.yul\":26424:26426   */\n      0x20\n        /* \"#utility.yul\":26416:26422   */\n      dup3\n        /* \"#utility.yul\":26412:26427   */\n      add\n        /* \"#utility.yul\":26405:26446   */\n      mstore\n        /* \"#utility.yul\":26326:26453   */\n      pop\n      jump\t// out\n        /* \"#utility.yul\":26459:26641   */\n    tag_453:\n        /* \"#utility.yul\":26599:26633   */\n      0x4552433732313a206d696e7420746f20746865207a65726f2061646472657373\n        /* \"#utility.yul\":26595:26596   */\n      0x00\n        /* \"#utility.yul\":26587:26593   */\n      dup3\n        /* \"#utility.yul\":26583:26597   */\n      add\n        /* \"#utility.yul\":26576:26634   */\n      mstore\n        /* \"#utility.yul\":26565:26641   */\n      pop\n      jump\t// out\n        /* \"#utility.yul\":26647:26821   */\n    tag_458:\n        /* \"#utility.yul\":26787:26813   */\n      0x4552433732313a20696e76616c696420746f6b656e2049440000000000000000\n        /* \"#utility.yul\":26783:26784   */\n      0x00\n        /* \"#utility.yul\":26775:26781   */\n      dup3\n        /* \"#utility.yul\":26771:26785   */\n      add\n        /* \"#utility.yul\":26764:26814   */\n      mstore\n        /* \"#utility.yul\":26753:26821   */\n      pop\n      jump\t// out\n        /* \"#utility.yul\":26827:27047   */\n    tag_463:\n        /* \"#utility.yul\":26967:27001   */\n      0x4552433732313a20617070726f76616c20746f2063757272656e74206f776e65\n        /* \"#utility.yul\":26963:26964   */\n      0x00\n        /* \"#utility.yul\":26955:26961   */\n      dup3\n        /* \"#utility.yul\":26951:26965   */\n      add\n        /* \"#utility.yul\":26944:27002   */\n      mstore\n        /* \"#utility.yul\":27036:27039   */\n      0x7200000000000000000000000000000000000000000000000000000000000000\n        /* \"#utility.yul\":27031:27033   */\n      0x20\n        /* \"#utility.yul\":27023:27029   */\n      dup3\n        /* \"#utility.yul\":27019:27034   */\n      add\n        /* \"#utility.yul\":27012:27040   */\n      mstore\n        /* \"#utility.yul\":26933:27047   */\n      pop\n      jump\t// out\n        /* \"#utility.yul\":27053:27301   */\n    tag_468:\n        /* \"#utility.yul\":27193:27227   */\n      0x4552433732313a20617070726f76652063616c6c6572206973206e6f7420746f\n        /* \"#utility.yul\":27189:27190   */\n      0x00\n        /* \"#utility.yul\":27181:27187   */\n      dup3\n        /* \"#utility.yul\":27177:27191   */\n      add\n        /* \"#utility.yul\":27170:27228   */\n      mstore\n        /* \"#utility.yul\":27262:27293   */\n      0x6b656e206f776e6572206f7220617070726f76656420666f7220616c6c000000\n        /* \"#utility.yul\":27257:27259   */\n      0x20\n        /* \"#utility.yul\":27249:27255   */\n      dup3\n        /* \"#utility.yul\":27245:27260   */\n      add\n        /* \"#utility.yul\":27238:27294   */\n      mstore\n        /* \"#utility.yul\":27159:27301   */\n      pop\n      jump\t// out\n        /* \"#utility.yul\":27307:27429   */\n    tag_311:\n        /* \"#utility.yul\":27380:27404   */\n      tag_600\n        /* \"#utility.yul\":27398:27403   */\n      dup2\n        /* \"#utility.yul\":27380:27404   */\n      tag_380\n      jump\t// in\n    tag_600:\n        /* \"#utility.yul\":27373:27378   */\n      dup2\n        /* \"#utility.yul\":27370:27405   */\n      eq\n        /* \"#utility.yul\":27360:27362   */\n      tag_601\n      jumpi\n        /* \"#utility.yul\":27419:27420   */\n      0x00\n        /* \"#utility.yul\":27416:27417   */\n      dup1\n        /* \"#utility.yul\":27409:27421   */\n      revert\n        /* \"#utility.yul\":27360:27362   */\n    tag_601:\n        /* \"#utility.yul\":27350:27429   */\n      pop\n      jump\t// out\n        /* \"#utility.yul\":27435:27551   */\n    tag_315:\n        /* \"#utility.yul\":27505:27526   */\n      tag_603\n        /* \"#utility.yul\":27520:27525   */\n      dup2\n        /* \"#utility.yul\":27505:27526   */\n      tag_384\n      jump\t// in\n    tag_603:\n        /* \"#utility.yul\":27498:27503   */\n      dup2\n        /* \"#utility.yul\":27495:27527   */\n      eq\n        /* \"#utility.yul\":27485:27487   */\n      tag_604\n      jumpi\n        /* \"#utility.yul\":27541:27542   */\n      0x00\n        /* \"#utility.yul\":27538:27539   */\n      dup1\n        /* \"#utility.yul\":27531:27543   */\n      revert\n        /* \"#utility.yul\":27485:27487   */\n    tag_604:\n        /* \"#utility.yul\":27475:27551   */\n      pop\n      jump\t// out\n        /* \"#utility.yul\":27557:27677   */\n    tag_319:\n        /* \"#utility.yul\":27629:27652   */\n      tag_606\n        /* \"#utility.yul\":27646:27651   */\n      dup2\n        /* \"#utility.yul\":27629:27652   */\n      tag_554\n      jump\t// in\n    tag_606:\n        /* \"#utility.yul\":27622:27627   */\n      dup2\n        /* \"#utility.yul\":27619:27653   */\n      eq\n        /* \"#utility.yul\":27609:27611   */\n      tag_607\n      jumpi\n        /* \"#utility.yul\":27667:27668   */\n      0x00\n        /* \"#utility.yul\":27664:27665   */\n      dup1\n        /* \"#utility.yul\":27657:27669   */\n      revert\n        /* \"#utility.yul\":27609:27611   */\n    tag_607:\n        /* \"#utility.yul\":27599:27677   */\n      pop\n      jump\t// out\n        /* \"#utility.yul\":27683:27805   */\n    tag_334:\n        /* \"#utility.yul\":27756:27780   */\n      tag_609\n        /* \"#utility.yul\":27774:27779   */\n      dup2\n        /* \"#utility.yul\":27756:27780   */\n      tag_472\n      jump\t// in\n    tag_609:\n        /* \"#utility.yul\":27749:27754   */\n      dup2\n        /* \"#utility.yul\":27746:27781   */\n      eq\n        /* \"#utility.yul\":27736:27738   */\n      tag_610\n      jumpi\n        /* \"#utility.yul\":27795:27796   */\n      0x00\n        /* \"#utility.yul\":27792:27793   */\n      dup1\n        /* \"#utility.yul\":27785:27797   */\n      revert\n        /* \"#utility.yul\":27736:27738   */\n    tag_610:\n        /* \"#utility.yul\":27726:27805   */\n      pop\n      jump\t// out\n\n    auxdata: 0xa2646970667358221220a86c3f26742ecfe84dbcaf9f57f87aeae692982bb4a473fa6b60043ac629dcfa64736f6c63430008040033\n}\n",
				"bytecode": {
					"linkReferences": {},
					"object": "60806040523480156200001157600080fd5b5060405162002be838038062002be8833981810160405281019062000037919062000193565b81600090805190602001906200004f92919062000071565b5080600190805190602001906200006892919062000071565b50505062000376565b8280546200007f906200029b565b90600052602060002090601f016020900481019282620000a35760008555620000ef565b82601f10620000be57805160ff1916838001178555620000ef565b82800160010185558215620000ef579182015b82811115620000ee578251825591602001919060010190620000d1565b5b509050620000fe919062000102565b5090565b5b808211156200011d57600081600090555060010162000103565b5090565b60006200013862000132846200022f565b62000206565b9050828152602081018484840111156200015157600080fd5b6200015e84828562000265565b509392505050565b600082601f8301126200017857600080fd5b81516200018a84826020860162000121565b91505092915050565b60008060408385031215620001a757600080fd5b600083015167ffffffffffffffff811115620001c257600080fd5b620001d08582860162000166565b925050602083015167ffffffffffffffff811115620001ee57600080fd5b620001fc8582860162000166565b9150509250929050565b60006200021262000225565b9050620002208282620002d1565b919050565b6000604051905090565b600067ffffffffffffffff8211156200024d576200024c62000336565b5b620002588262000365565b9050602081019050919050565b60005b838110156200028557808201518184015260208101905062000268565b8381111562000295576000848401525b50505050565b60006002820490506001821680620002b457607f821691505b60208210811415620002cb57620002ca62000307565b5b50919050565b620002dc8262000365565b810181811067ffffffffffffffff82111715620002fe57620002fd62000336565b5b80604052505050565b7f4e487b7100000000000000000000000000000000000000000000000000000000600052602260045260246000fd5b7f4e487b7100000000000000000000000000000000000000000000000000000000600052604160045260246000fd5b6000601f19601f8301169050919050565b61286280620003866000396000f3fe608060405234801561001057600080fd5b50600436106100ea5760003560e01c806370a082311161008c578063b88d4fde11610066578063b88d4fde1461025b578063c87b56dd14610277578063cd279c7c146102a7578063e985e9c5146102c3576100ea565b806370a08231146101f157806395d89b4114610221578063a22cb4651461023f576100ea565b8063095ea7b3116100c8578063095ea7b31461016d57806323b872dd1461018957806342842e0e146101a55780636352211e146101c1576100ea565b806301ffc9a7146100ef57806306fdde031461011f578063081812fc1461013d575b600080fd5b61010960048036038101906101049190611b7d565b6102f3565b6040516101169190611ef7565b60405180910390f35b6101276103d5565b6040516101349190611f12565b60405180910390f35b61015760048036038101906101529190611bcf565b610467565b6040516101649190611e90565b60405180910390f35b61018760048036038101906101829190611ada565b6104ad565b005b6101a3600480360381019061019e91906119d4565b6105c5565b005b6101bf60048036038101906101ba91906119d4565b610625565b005b6101db60048036038101906101d69190611bcf565b610645565b6040516101e89190611e90565b60405180910390f35b61020b6004803603810190610206919061196f565b6106f7565b60405161021891906120b4565b60405180910390f35b6102296107af565b6040516102369190611f12565b60405180910390f35b61025960048036038101906102549190611a9e565b610841565b005b61027560048036038101906102709190611a23565b610857565b005b610291600480360381019061028c9190611bcf565b6108b9565b60405161029e9190611f12565b60405180910390f35b6102c160048036038101906102bc9190611b16565b610921565b005b6102dd60048036038101906102d89190611998565b61093a565b6040516102ea9190611ef7565b60405180910390f35b60007f80ac58cd000000000000000000000000000000000000000000000000000000007bffffffffffffffffffffffffffffffffffffffffffffffffffffffff1916827bffffffffffffffffffffffffffffffffffffffffffffffffffffffff191614806103be57507f5b5e139f000000000000000000000000000000000000000000000000000000007bffffffffffffffffffffffffffffffffffffffffffffffffffffffff1916827bffffffffffffffffffffffffffffffffffffffffffffffffffffffff1916145b806103ce57506103cd826109ce565b5b9050919050565b6060600080546103e49061230a565b80601f01602080910402602001604051908101604052809291908181526020018280546104109061230a565b801561045d5780601f106104325761010080835404028352916020019161045d565b820191906000526020600020905b81548152906001019060200180831161044057829003601f168201915b5050505050905090565b600061047282610a38565b6005600083815260200190815260200160002060009054906101000a900473ffffffffffffffffffffffffffffffffffffffff169050919050565b60006104b882610645565b90508073ffffffffffffffffffffffffffffffffffffffff168373ffffffffffffffffffffffffffffffffffffffff161415610529576040517f08c379a000000000000000000000000000000000000000000000000000000000815260040161052090612074565b60405180910390fd5b8073ffffffffffffffffffffffffffffffffffffffff16610548610a83565b73ffffffffffffffffffffffffffffffffffffffff161480610577575061057681610571610a83565b61093a565b5b6105b6576040517f08c379a00000000000000000000000000000000000000000000000000000000081526004016105ad90612094565b60405180910390fd5b6105c08383610a8b565b505050565b6105d66105d0610a83565b82610b44565b610615576040517f08c379a000000000000000000000000000000000000000000000000000000000815260040161060c90611f34565b60405180910390fd5b610620838383610bd9565b505050565b61064083838360405180602001604052806000815250610857565b505050565b6000806002600084815260200190815260200160002060009054906101000a900473ffffffffffffffffffffffffffffffffffffffff169050600073ffffffffffffffffffffffffffffffffffffffff168173ffffffffffffffffffffffffffffffffffffffff1614156106ee576040517f08c379a00000000000000000000000000000000000000000000000000000000081526004016106e590612054565b60405180910390fd5b80915050919050565b60008073ffffffffffffffffffffffffffffffffffffffff168273ffffffffffffffffffffffffffffffffffffffff161415610768576040517f08c379a000000000000000000000000000000000000000000000000000000000815260040161075f90611ff4565b60405180910390fd5b600460008373ffffffffffffffffffffffffffffffffffffffff1673ffffffffffffffffffffffffffffffffffffffff168152602001908152602001600020549050919050565b6060600180546107be9061230a565b80601f01602080910402602001604051908101604052809291908181526020018280546107ea9061230a565b80156108375780601f1061080c57610100808354040283529160200191610837565b820191906000526020600020905b81548152906001019060200180831161081a57829003601f168201915b5050505050905090565b61085361084c610a83565b8383610ecf565b5050565b610868610862610a83565b83610b44565b6108a7576040517f08c379a000000000000000000000000000000000000000000000000000000000815260040161089e90611f34565b60405180910390fd5b6108b38484848461103c565b50505050565b60606108c482610a38565b60006108ce611098565b905060008151116108ee5760405180602001604052806000815250610919565b806108f8846110af565b604051602001610909929190611e6c565b6040516020818303038152906040525b915050919050565b61092b838361125c565b610935828261127a565b505050565b6000600660008473ffffffffffffffffffffffffffffffffffffffff1673ffffffffffffffffffffffffffffffffffffffff16815260200190815260200160002060008373ffffffffffffffffffffffffffffffffffffffff1673ffffffffffffffffffffffffffffffffffffffff16815260200190815260200160002060009054906101000a900460ff16905092915050565b60007f01ffc9a7000000000000000000000000000000000000000000000000000000007bffffffffffffffffffffffffffffffffffffffffffffffffffffffff1916827bffffffffffffffffffffffffffffffffffffffffffffffffffffffff1916149050919050565b610a41816112ee565b610a80576040517f08c379a0000000000000000000000000000000000000000000000000000000008152600401610a7790612054565b60405180910390fd5b50565b600033905090565b816005600083815260200190815260200160002060006101000a81548173ffffffffffffffffffffffffffffffffffffffff021916908373ffffffffffffffffffffffffffffffffffffffff160217905550808273ffffffffffffffffffffffffffffffffffffffff16610afe83610645565b73ffffffffffffffffffffffffffffffffffffffff167f8c5be1e5ebec7d5bd14f71427d1e84f3dd0314c0f7b2291e5b200ac8c7c3b92560405160405180910390a45050565b600080610b5083610645565b90508073ffffffffffffffffffffffffffffffffffffffff168473ffffffffffffffffffffffffffffffffffffffff161480610b925750610b91818561093a565b5b80610bd057508373ffffffffffffffffffffffffffffffffffffffff16610bb884610467565b73ffffffffffffffffffffffffffffffffffffffff16145b91505092915050565b8273ffffffffffffffffffffffffffffffffffffffff16610bf982610645565b73ffffffffffffffffffffffffffffffffffffffff1614610c4f576040517f08c379a0000000000000000000000000000000000000000000000000000000008152600401610c4690611f74565b60405180910390fd5b600073ffffffffffffffffffffffffffffffffffffffff168273ffffffffffffffffffffffffffffffffffffffff161415610cbf576040517f08c379a0000000000000000000000000000000000000000000000000000000008152600401610cb690611fb4565b60405180910390fd5b610cca83838361135a565b8273ffffffffffffffffffffffffffffffffffffffff16610cea82610645565b73ffffffffffffffffffffffffffffffffffffffff1614610d40576040517f08c379a0000000000000000000000000000000000000000000000000000000008152600401610d3790611f74565b60405180910390fd5b6005600082815260200190815260200160002060006101000a81549073ffffffffffffffffffffffffffffffffffffffff02191690556001600460008573ffffffffffffffffffffffffffffffffffffffff1673ffffffffffffffffffffffffffffffffffffffff168152602001908152602001600020600082825403925050819055506001600460008473ffffffffffffffffffffffffffffffffffffffff1673ffffffffffffffffffffffffffffffffffffffff16815260200190815260200160002060008282540192505081905550816002600083815260200190815260200160002060006101000a81548173ffffffffffffffffffffffffffffffffffffffff021916908373ffffffffffffffffffffffffffffffffffffffff160217905550808273ffffffffffffffffffffffffffffffffffffffff168473ffffffffffffffffffffffffffffffffffffffff167fddf252ad1be2c89b69c2b068fc378daa952ba7f163c4a11628f55a4df523b3ef60405160405180910390a4610eca83838361135f565b505050565b8173ffffffffffffffffffffffffffffffffffffffff168373ffffffffffffffffffffffffffffffffffffffff161415610f3e576040517f08c379a0000000000000000000000000000000000000000000000000000000008152600401610f3590611fd4565b60405180910390fd5b80600660008573ffffffffffffffffffffffffffffffffffffffff1673ffffffffffffffffffffffffffffffffffffffff16815260200190815260200160002060008473ffffffffffffffffffffffffffffffffffffffff1673ffffffffffffffffffffffffffffffffffffffff16815260200190815260200160002060006101000a81548160ff0219169083151502179055508173ffffffffffffffffffffffffffffffffffffffff168373ffffffffffffffffffffffffffffffffffffffff167f17307eab39ab6107e8899845ad3d59bd9653f200f220920489ca2b5937696c318360405161102f9190611ef7565b60405180910390a3505050565b611047848484610bd9565b61105384848484611364565b611092576040517f08c379a000000000000000000000000000000000000000000000000000000000815260040161108990611f54565b60405180910390fd5b50505050565b606060405180602001604052806000815250905090565b606060008214156110f7576040518060400160405280600181526020017f30000000000000000000000000000000000000000000000000000000000000008152509050611257565b600082905060005b600082146111295780806111129061236d565b915050600a8261112291906121ef565b91506110ff565b60008167ffffffffffffffff81111561116b577f4e487b7100000000000000000000000000000000000000000000000000000000600052604160045260246000fd5b6040519080825280601f01601f19166020018201604052801561119d5781602001600182028036833780820191505090505b5090505b60008514611250576001826111b69190612220565b9150600a856111c591906123b6565b60306111d19190612199565b60f81b81838151811061120d577f4e487b7100000000000000000000000000000000000000000000000000000000600052603260045260246000fd5b60200101907effffffffffffffffffffffffffffffffffffffffffffffffffffffffffffff1916908160001a905350600a8561124991906121ef565b94506111a1565b8093505050505b919050565b6112768282604051806020016040528060008152506114fb565b5050565b611283826112ee565b6112c2576040517f08c379a00000000000000000000000000000000000000000000000000000000081526004016112b990612014565b60405180910390fd5b806007600084815260200190815260200160002090805190602001906112e9929190611793565b505050565b60008073ffffffffffffffffffffffffffffffffffffffff166002600084815260200190815260200160002060009054906101000a900473ffffffffffffffffffffffffffffffffffffffff1673ffffffffffffffffffffffffffffffffffffffff1614159050919050565b505050565b505050565b60006113858473ffffffffffffffffffffffffffffffffffffffff16611556565b156114ee578373ffffffffffffffffffffffffffffffffffffffff1663150b7a026113ae610a83565b8786866040518563ffffffff1660e01b81526004016113d09493929190611eab565b602060405180830381600087803b1580156113ea57600080fd5b505af192505050801561141b57506040513d601f19601f820116820180604052508101906114189190611ba6565b60015b61149e573d806000811461144b576040519150601f19603f3d011682016040523d82523d6000602084013e611450565b606091505b50600081511415611496576040517f08c379a000000000000000000000000000000000000000000000000000000000815260040161148d90611f54565b60405180910390fd5b805181602001fd5b63150b7a0260e01b7bffffffffffffffffffffffffffffffffffffffffffffffffffffffff1916817bffffffffffffffffffffffffffffffffffffffffffffffffffffffff1916149150506114f3565b600190505b949350505050565b6115058383611579565b6115126000848484611364565b611551576040517f08c379a000000000000000000000000000000000000000000000000000000000815260040161154890611f54565b60405180910390fd5b505050565b6000808273ffffffffffffffffffffffffffffffffffffffff163b119050919050565b600073ffffffffffffffffffffffffffffffffffffffff168273ffffffffffffffffffffffffffffffffffffffff1614156115e9576040517f08c379a00000000000000000000000000000000000000000000000000000000081526004016115e090612034565b60405180910390fd5b6115f2816112ee565b15611632576040517f08c379a000000000000000000000000000000000000000000000000000000000815260040161162990611f94565b60405180910390fd5b61163e6000838361135a565b611647816112ee565b15611687576040517f08c379a000000000000000000000000000000000000000000000000000000000815260040161167e90611f94565b60405180910390fd5b6001600460008473ffffffffffffffffffffffffffffffffffffffff1673ffffffffffffffffffffffffffffffffffffffff16815260200190815260200160002060008282540192505081905550816002600083815260200190815260200160002060006101000a81548173ffffffffffffffffffffffffffffffffffffffff021916908373ffffffffffffffffffffffffffffffffffffffff160217905550808273ffffffffffffffffffffffffffffffffffffffff16600073ffffffffffffffffffffffffffffffffffffffff167fddf252ad1be2c89b69c2b068fc378daa952ba7f163c4a11628f55a4df523b3ef60405160405180910390a461178f6000838361135f565b5050565b82805461179f9061230a565b90600052602060002090601f0160209004810192826117c15760008555611808565b82601f106117da57805160ff1916838001178555611808565b82800160010185558215611808579182015b828111156118075782518255916020019190600101906117ec565b5b5090506118159190611819565b5090565b5b8082111561183257600081600090555060010161181a565b5090565b6000611849611844846120f4565b6120cf565b90508281526020810184848401111561186157600080fd5b61186c8482856122c8565b509392505050565b600061188761188284612125565b6120cf565b90508281526020810184848401111561189f57600080fd5b6118aa8482856122c8565b509392505050565b6000813590506118c1816127d0565b92915050565b6000813590506118d6816127e7565b92915050565b6000813590506118eb816127fe565b92915050565b600081519050611900816127fe565b92915050565b600082601f83011261191757600080fd5b8135611927848260208601611836565b91505092915050565b600082601f83011261194157600080fd5b8135611951848260208601611874565b91505092915050565b60008135905061196981612815565b92915050565b60006020828403121561198157600080fd5b600061198f848285016118b2565b91505092915050565b600080604083850312156119ab57600080fd5b60006119b9858286016118b2565b92505060206119ca858286016118b2565b9150509250929050565b6000806000606084860312156119e957600080fd5b60006119f7868287016118b2565b9350506020611a08868287016118b2565b9250506040611a198682870161195a565b9150509250925092565b60008060008060808587031215611a3957600080fd5b6000611a47878288016118b2565b9450506020611a58878288016118b2565b9350506040611a698782880161195a565b925050606085013567ffffffffffffffff811115611a8657600080fd5b611a9287828801611906565b91505092959194509250565b60008060408385031215611ab157600080fd5b6000611abf858286016118b2565b9250506020611ad0858286016118c7565b9150509250929050565b60008060408385031215611aed57600080fd5b6000611afb858286016118b2565b9250506020611b0c8582860161195a565b9150509250929050565b600080600060608486031215611b2b57600080fd5b6000611b39868287016118b2565b9350506020611b4a8682870161195a565b925050604084013567ffffffffffffffff811115611b6757600080fd5b611b7386828701611930565b9150509250925092565b600060208284031215611b8f57600080fd5b6000611b9d848285016118dc565b91505092915050565b600060208284031215611bb857600080fd5b6000611bc6848285016118f1565b91505092915050565b600060208284031215611be157600080fd5b6000611bef8482850161195a565b91505092915050565b611c0181612254565b82525050565b611c1081612266565b82525050565b6000611c2182612156565b611c2b818561216c565b9350611c3b8185602086016122d7565b611c44816124a3565b840191505092915050565b6000611c5a82612161565b611c64818561217d565b9350611c748185602086016122d7565b611c7d816124a3565b840191505092915050565b6000611c9382612161565b611c9d818561218e565b9350611cad8185602086016122d7565b80840191505092915050565b6000611cc6602d8361217d565b9150611cd1826124b4565b604082019050919050565b6000611ce960328361217d565b9150611cf482612503565b604082019050919050565b6000611d0c60258361217d565b9150611d1782612552565b604082019050919050565b6000611d2f601c8361217d565b9150611d3a826125a1565b602082019050919050565b6000611d5260248361217d565b9150611d5d826125ca565b604082019050919050565b6000611d7560198361217d565b9150611d8082612619565b602082019050919050565b6000611d9860298361217d565b9150611da382612642565b604082019050919050565b6000611dbb602e8361217d565b9150611dc682612691565b604082019050919050565b6000611dde60208361217d565b9150611de9826126e0565b602082019050919050565b6000611e0160188361217d565b9150611e0c82612709565b602082019050919050565b6000611e2460218361217d565b9150611e2f82612732565b604082019050919050565b6000611e47603d8361217d565b9150611e5282612781565b604082019050919050565b611e66816122be565b82525050565b6000611e788285611c88565b9150611e848284611c88565b91508190509392505050565b6000602082019050611ea56000830184611bf8565b92915050565b6000608082019050611ec06000830187611bf8565b611ecd6020830186611bf8565b611eda6040830185611e5d565b8181036060830152611eec8184611c16565b905095945050505050565b6000602082019050611f0c6000830184611c07565b92915050565b60006020820190508181036000830152611f2c8184611c4f565b905092915050565b60006020820190508181036000830152611f4d81611cb9565b9050919050565b60006020820190508181036000830152611f6d81611cdc565b9050919050565b60006020820190508181036000830152611f8d81611cff565b9050919050565b60006020820190508181036000830152611fad81611d22565b9050919050565b60006020820190508181036000830152611fcd81611d45565b9050919050565b60006020820190508181036000830152611fed81611d68565b9050919050565b6000602082019050818103600083015261200d81611d8b565b9050919050565b6000602082019050818103600083015261202d81611dae565b9050919050565b6000602082019050818103600083015261204d81611dd1565b9050919050565b6000602082019050818103600083015261206d81611df4565b9050919050565b6000602082019050818103600083015261208d81611e17565b9050919050565b600060208201905081810360008301526120ad81611e3a565b9050919050565b60006020820190506120c96000830184611e5d565b92915050565b60006120d96120ea565b90506120e5828261233c565b919050565b6000604051905090565b600067ffffffffffffffff82111561210f5761210e612474565b5b612118826124a3565b9050602081019050919050565b600067ffffffffffffffff8211156121405761213f612474565b5b612149826124a3565b9050602081019050919050565b600081519050919050565b600081519050919050565b600082825260208201905092915050565b600082825260208201905092915050565b600081905092915050565b60006121a4826122be565b91506121af836122be565b9250827fffffffffffffffffffffffffffffffffffffffffffffffffffffffffffffffff038211156121e4576121e36123e7565b5b828201905092915050565b60006121fa826122be565b9150612205836122be565b92508261221557612214612416565b5b828204905092915050565b600061222b826122be565b9150612236836122be565b925082821015612249576122486123e7565b5b828203905092915050565b600061225f8261229e565b9050919050565b60008115159050919050565b60007fffffffff0000000000000000000000000000000000000000000000000000000082169050919050565b600073ffffffffffffffffffffffffffffffffffffffff82169050919050565b6000819050919050565b82818337600083830152505050565b60005b838110156122f55780820151818401526020810190506122da565b83811115612304576000848401525b50505050565b6000600282049050600182168061232257607f821691505b6020821081141561233657612335612445565b5b50919050565b612345826124a3565b810181811067ffffffffffffffff8211171561236457612363612474565b5b80604052505050565b6000612378826122be565b91507fffffffffffffffffffffffffffffffffffffffffffffffffffffffffffffffff8214156123ab576123aa6123e7565b5b600182019050919050565b60006123c1826122be565b91506123cc836122be565b9250826123dc576123db612416565b5b828206905092915050565b7f4e487b7100000000000000000000000000000000000000000000000000000000600052601160045260246000fd5b7f4e487b7100000000000000000000000000000000000000000000000000000000600052601260045260246000fd5b7f4e487b7100000000000000000000000000000000000000000000000000000000600052602260045260246000fd5b7f4e487b7100000000000000000000000000000000000000000000000000000000600052604160045260246000fd5b6000601f19601f8301169050919050565b7f4552433732313a2063616c6c6572206973206e6f7420746f6b656e206f776e6560008201527f72206f7220617070726f76656400000000000000000000000000000000000000602082015250565b7f4552433732313a207472616e7366657220746f206e6f6e20455243373231526560008201527f63656976657220696d706c656d656e7465720000000000000000000000000000602082015250565b7f4552433732313a207472616e736665722066726f6d20696e636f72726563742060008201527f6f776e6572000000000000000000000000000000000000000000000000000000602082015250565b7f4552433732313a20746f6b656e20616c7265616479206d696e74656400000000600082015250565b7f4552433732313a207472616e7366657220746f20746865207a65726f2061646460008201527f7265737300000000000000000000000000000000000000000000000000000000602082015250565b7f4552433732313a20617070726f766520746f2063616c6c657200000000000000600082015250565b7f4552433732313a2061646472657373207a65726f206973206e6f74206120766160008201527f6c6964206f776e65720000000000000000000000000000000000000000000000602082015250565b7f45524337323155524953746f726167653a2055524920736574206f66206e6f6e60008201527f6578697374656e7420746f6b656e000000000000000000000000000000000000602082015250565b7f4552433732313a206d696e7420746f20746865207a65726f2061646472657373600082015250565b7f4552433732313a20696e76616c696420746f6b656e2049440000000000000000600082015250565b7f4552433732313a20617070726f76616c20746f2063757272656e74206f776e6560008201527f7200000000000000000000000000000000000000000000000000000000000000602082015250565b7f4552433732313a20617070726f76652063616c6c6572206973206e6f7420746f60008201527f6b656e206f776e6572206f7220617070726f76656420666f7220616c6c000000602082015250565b6127d981612254565b81146127e457600080fd5b50565b6127f081612266565b81146127fb57600080fd5b50565b61280781612272565b811461281257600080fd5b50565b61281e816122be565b811461282957600080fd5b5056fea2646970667358221220a86c3f26742ecfe84dbcaf9f57f87aeae692982bb4a473fa6b60043ac629dcfa64736f6c63430008040033",
					"opcodes": "PUSH1 0x80 PUSH1 0x40 MSTORE CALLVALUE DUP1 ISZERO PUSH3 0x11 JUMPI PUSH1 0x0 DUP1 REVERT JUMPDEST POP PUSH1 0x40 MLOAD PUSH3 0x2BE8 CODESIZE SUB DUP1 PUSH3 0x2BE8 DUP4 CODECOPY DUP2 DUP2 ADD PUSH1 0x40 MSTORE DUP2 ADD SWAP1 PUSH3 0x37 SWAP2 SWAP1 PUSH3 0x193 JUMP JUMPDEST DUP2 PUSH1 0x0 SWAP1 DUP1 MLOAD SWAP1 PUSH1 0x20 ADD SWAP1 PUSH3 0x4F SWAP3 SWAP2 SWAP1 PUSH3 0x71 JUMP JUMPDEST POP DUP1 PUSH1 0x1 SWAP1 DUP1 MLOAD SWAP1 PUSH1 0x20 ADD SWAP1 PUSH3 0x68 SWAP3 SWAP2 SWAP1 PUSH3 0x71 JUMP JUMPDEST POP POP POP PUSH3 0x376 JUMP JUMPDEST DUP3 DUP1 SLOAD PUSH3 0x7F SWAP1 PUSH3 0x29B JUMP JUMPDEST SWAP1 PUSH1 0x0 MSTORE PUSH1 0x20 PUSH1 0x0 KECCAK256 SWAP1 PUSH1 0x1F ADD PUSH1 0x20 SWAP1 DIV DUP2 ADD SWAP3 DUP3 PUSH3 0xA3 JUMPI PUSH1 0x0 DUP6 SSTORE PUSH3 0xEF JUMP JUMPDEST DUP3 PUSH1 0x1F LT PUSH3 0xBE JUMPI DUP1 MLOAD PUSH1 0xFF NOT AND DUP4 DUP1 ADD OR DUP6 SSTORE PUSH3 0xEF JUMP JUMPDEST DUP3 DUP1 ADD PUSH1 0x1 ADD DUP6 SSTORE DUP3 ISZERO PUSH3 0xEF JUMPI SWAP2 DUP3 ADD JUMPDEST DUP3 DUP2 GT ISZERO PUSH3 0xEE JUMPI DUP3 MLOAD DUP3 SSTORE SWAP2 PUSH1 0x20 ADD SWAP2 SWAP1 PUSH1 0x1 ADD SWAP1 PUSH3 0xD1 JUMP JUMPDEST JUMPDEST POP SWAP1 POP PUSH3 0xFE SWAP2 SWAP1 PUSH3 0x102 JUMP JUMPDEST POP SWAP1 JUMP JUMPDEST JUMPDEST DUP1 DUP3 GT ISZERO PUSH3 0x11D JUMPI PUSH1 0x0 DUP2 PUSH1 0x0 SWAP1 SSTORE POP PUSH1 0x1 ADD PUSH3 0x103 JUMP JUMPDEST POP SWAP1 JUMP JUMPDEST PUSH1 0x0 PUSH3 0x138 PUSH3 0x132 DUP5 PUSH3 0x22F JUMP JUMPDEST PUSH3 0x206 JUMP JUMPDEST SWAP1 POP DUP3 DUP2 MSTORE PUSH1 0x20 DUP2 ADD DUP5 DUP5 DUP5 ADD GT ISZERO PUSH3 0x151 JUMPI PUSH1 0x0 DUP1 REVERT JUMPDEST PUSH3 0x15E DUP5 DUP3 DUP6 PUSH3 0x265 JUMP JUMPDEST POP SWAP4 SWAP3 POP POP POP JUMP JUMPDEST PUSH1 0x0 DUP3 PUSH1 0x1F DUP4 ADD SLT PUSH3 0x178 JUMPI PUSH1 0x0 DUP1 REVERT JUMPDEST DUP2 MLOAD PUSH3 0x18A DUP5 DUP3 PUSH1 0x20 DUP7 ADD PUSH3 0x121 JUMP JUMPDEST SWAP2 POP POP SWAP3 SWAP2 POP POP JUMP JUMPDEST PUSH1 0x0 DUP1 PUSH1 0x40 DUP4 DUP6 SUB SLT ISZERO PUSH3 0x1A7 JUMPI PUSH1 0x0 DUP1 REVERT JUMPDEST PUSH1 0x0 DUP4 ADD MLOAD PUSH8 0xFFFFFFFFFFFFFFFF DUP2 GT ISZERO PUSH3 0x1C2 JUMPI PUSH1 0x0 DUP1 REVERT JUMPDEST PUSH3 0x1D0 DUP6 DUP3 DUP7 ADD PUSH3 0x166 JUMP JUMPDEST SWAP3 POP POP PUSH1 0x20 DUP4 ADD MLOAD PUSH8 0xFFFFFFFFFFFFFFFF DUP2 GT ISZERO PUSH3 0x1EE JUMPI PUSH1 0x0 DUP1 REVERT JUMPDEST PUSH3 0x1FC DUP6 DUP3 DUP7 ADD PUSH3 0x166 JUMP JUMPDEST SWAP2 POP POP SWAP3 POP SWAP3 SWAP1 POP JUMP JUMPDEST PUSH1 0x0 PUSH3 0x212 PUSH3 0x225 JUMP JUMPDEST SWAP1 POP PUSH3 0x220 DUP3 DUP3 PUSH3 0x2D1 JUMP JUMPDEST SWAP2 SWAP1 POP JUMP JUMPDEST PUSH1 0x0 PUSH1 0x40 MLOAD SWAP1 POP SWAP1 JUMP JUMPDEST PUSH1 0x0 PUSH8 0xFFFFFFFFFFFFFFFF DUP3 GT ISZERO PUSH3 0x24D JUMPI PUSH3 0x24C PUSH3 0x336 JUMP JUMPDEST JUMPDEST PUSH3 0x258 DUP3 PUSH3 0x365 JUMP JUMPDEST SWAP1 POP PUSH1 0x20 DUP2 ADD SWAP1 POP SWAP2 SWAP1 POP JUMP JUMPDEST PUSH1 0x0 JUMPDEST DUP4 DUP2 LT ISZERO PUSH3 0x285 JUMPI DUP1 DUP3 ADD MLOAD DUP2 DUP5 ADD MSTORE PUSH1 0x20 DUP2 ADD SWAP1 POP PUSH3 0x268 JUMP JUMPDEST DUP4 DUP2 GT ISZERO PUSH3 0x295 JUMPI PUSH1 0x0 DUP5 DUP5 ADD MSTORE JUMPDEST POP POP POP POP JUMP JUMPDEST PUSH1 0x0 PUSH1 0x2 DUP3 DIV SWAP1 POP PUSH1 0x1 DUP3 AND DUP1 PUSH3 0x2B4 JUMPI PUSH1 0x7F DUP3 AND SWAP2 POP JUMPDEST PUSH1 0x20 DUP3 LT DUP2 EQ ISZERO PUSH3 0x2CB JUMPI PUSH3 0x2CA PUSH3 0x307 JUMP JUMPDEST JUMPDEST POP SWAP2 SWAP1 POP JUMP JUMPDEST PUSH3 0x2DC DUP3 PUSH3 0x365 JUMP JUMPDEST DUP2 ADD DUP2 DUP2 LT PUSH8 0xFFFFFFFFFFFFFFFF DUP3 GT OR ISZERO PUSH3 0x2FE JUMPI PUSH3 0x2FD PUSH3 0x336 JUMP JUMPDEST JUMPDEST DUP1 PUSH1 0x40 MSTORE POP POP POP JUMP JUMPDEST PUSH32 0x4E487B7100000000000000000000000000000000000000000000000000000000 PUSH1 0x0 MSTORE PUSH1 0x22 PUSH1 0x4 MSTORE PUSH1 0x24 PUSH1 0x0 REVERT JUMPDEST PUSH32 0x4E487B7100000000000000000000000000000000000000000000000000000000 PUSH1 0x0 MSTORE PUSH1 0x41 PUSH1 0x4 MSTORE PUSH1 0x24 PUSH1 0x0 REVERT JUMPDEST PUSH1 0x0 PUSH1 0x1F NOT PUSH1 0x1F DUP4 ADD AND SWAP1 POP SWAP2 SWAP1 POP JUMP JUMPDEST PUSH2 0x2862 DUP1 PUSH3 0x386 PUSH1 0x0 CODECOPY PUSH1 0x0 RETURN INVALID PUSH1 0x80 PUSH1 0x40 MSTORE CALLVALUE DUP1 ISZERO PUSH2 0x10 JUMPI PUSH1 0x0 DUP1 REVERT JUMPDEST POP PUSH1 0x4 CALLDATASIZE LT PUSH2 0xEA JUMPI PUSH1 0x0 CALLDATALOAD PUSH1 0xE0 SHR DUP1 PUSH4 0x70A08231 GT PUSH2 0x8C JUMPI DUP1 PUSH4 0xB88D4FDE GT PUSH2 0x66 JUMPI DUP1 PUSH4 0xB88D4FDE EQ PUSH2 0x25B JUMPI DUP1 PUSH4 0xC87B56DD EQ PUSH2 0x277 JUMPI DUP1 PUSH4 0xCD279C7C EQ PUSH2 0x2A7 JUMPI DUP1 PUSH4 0xE985E9C5 EQ PUSH2 0x2C3 JUMPI PUSH2 0xEA JUMP JUMPDEST DUP1 PUSH4 0x70A08231 EQ PUSH2 0x1F1 JUMPI DUP1 PUSH4 0x95D89B41 EQ PUSH2 0x221 JUMPI DUP1 PUSH4 0xA22CB465 EQ PUSH2 0x23F JUMPI PUSH2 0xEA JUMP JUMPDEST DUP1 PUSH4 0x95EA7B3 GT PUSH2 0xC8 JUMPI DUP1 PUSH4 0x95EA7B3 EQ PUSH2 0x16D JUMPI DUP1 PUSH4 0x23B872DD EQ PUSH2 0x189 JUMPI DUP1 PUSH4 0x42842E0E EQ PUSH2 0x1A5 JUMPI DUP1 PUSH4 0x6352211E EQ PUSH2 0x1C1 JUMPI PUSH2 0xEA JUMP JUMPDEST DUP1 PUSH4 0x1FFC9A7 EQ PUSH2 0xEF JUMPI DUP1 PUSH4 0x6FDDE03 EQ PUSH2 0x11F JUMPI DUP1 PUSH4 0x81812FC EQ PUSH2 0x13D JUMPI JUMPDEST PUSH1 0x0 DUP1 REVERT JUMPDEST PUSH2 0x109 PUSH1 0x4 DUP1 CALLDATASIZE SUB DUP2 ADD SWAP1 PUSH2 0x104 SWAP2 SWAP1 PUSH2 0x1B7D JUMP JUMPDEST PUSH2 0x2F3 JUMP JUMPDEST PUSH1 0x40 MLOAD PUSH2 0x116 SWAP2 SWAP1 PUSH2 0x1EF7 JUMP JUMPDEST PUSH1 0x40 MLOAD DUP1 SWAP2 SUB SWAP1 RETURN JUMPDEST PUSH2 0x127 PUSH2 0x3D5 JUMP JUMPDEST PUSH1 0x40 MLOAD PUSH2 0x134 SWAP2 SWAP1 PUSH2 0x1F12 JUMP JUMPDEST PUSH1 0x40 MLOAD DUP1 SWAP2 SUB SWAP1 RETURN JUMPDEST PUSH2 0x157 PUSH1 0x4 DUP1 CALLDATASIZE SUB DUP2 ADD SWAP1 PUSH2 0x152 SWAP2 SWAP1 PUSH2 0x1BCF JUMP JUMPDEST PUSH2 0x467 JUMP JUMPDEST PUSH1 0x40 MLOAD PUSH2 0x164 SWAP2 SWAP1 PUSH2 0x1E90 JUMP JUMPDEST PUSH1 0x40 MLOAD DUP1 SWAP2 SUB SWAP1 RETURN JUMPDEST PUSH2 0x187 PUSH1 0x4 DUP1 CALLDATASIZE SUB DUP2 ADD SWAP1 PUSH2 0x182 SWAP2 SWAP1 PUSH2 0x1ADA JUMP JUMPDEST PUSH2 0x4AD JUMP JUMPDEST STOP JUMPDEST PUSH2 0x1A3 PUSH1 0x4 DUP1 CALLDATASIZE SUB DUP2 ADD SWAP1 PUSH2 0x19E SWAP2 SWAP1 PUSH2 0x19D4 JUMP JUMPDEST PUSH2 0x5C5 JUMP JUMPDEST STOP JUMPDEST PUSH2 0x1BF PUSH1 0x4 DUP1 CALLDATASIZE SUB DUP2 ADD SWAP1 PUSH2 0x1BA SWAP2 SWAP1 PUSH2 0x19D4 JUMP JUMPDEST PUSH2 0x625 JUMP JUMPDEST STOP JUMPDEST PUSH2 0x1DB PUSH1 0x4 DUP1 CALLDATASIZE SUB DUP2 ADD SWAP1 PUSH2 0x1D6 SWAP2 SWAP1 PUSH2 0x1BCF JUMP JUMPDEST PUSH2 0x645 JUMP JUMPDEST PUSH1 0x40 MLOAD PUSH2 0x1E8 SWAP2 SWAP1 PUSH2 0x1E90 JUMP JUMPDEST PUSH1 0x40 MLOAD DUP1 SWAP2 SUB SWAP1 RETURN JUMPDEST PUSH2 0x20B PUSH1 0x4 DUP1 CALLDATASIZE SUB DUP2 ADD SWAP1 PUSH2 0x206 SWAP2 SWAP1 PUSH2 0x196F JUMP JUMPDEST PUSH2 0x6F7 JUMP JUMPDEST PUSH1 0x40 MLOAD PUSH2 0x218 SWAP2 SWAP1 PUSH2 0x20B4 JUMP JUMPDEST PUSH1 0x40 MLOAD DUP1 SWAP2 SUB SWAP1 RETURN JUMPDEST PUSH2 0x229 PUSH2 0x7AF JUMP JUMPDEST PUSH1 0x40 MLOAD PUSH2 0x236 SWAP2 SWAP1 PUSH2 0x1F12 JUMP JUMPDEST PUSH1 0x40 MLOAD DUP1 SWAP2 SUB SWAP1 RETURN JUMPDEST PUSH2 0x259 PUSH1 0x4 DUP1 CALLDATASIZE SUB DUP2 ADD SWAP1 PUSH2 0x254 SWAP2 SWAP1 PUSH2 0x1A9E JUMP JUMPDEST PUSH2 0x841 JUMP JUMPDEST STOP JUMPDEST PUSH2 0x275 PUSH1 0x4 DUP1 CALLDATASIZE SUB DUP2 ADD SWAP1 PUSH2 0x270 SWAP2 SWAP1 PUSH2 0x1A23 JUMP JUMPDEST PUSH2 0x857 JUMP JUMPDEST STOP JUMPDEST PUSH2 0x291 PUSH1 0x4 DUP1 CALLDATASIZE SUB DUP2 ADD SWAP1 PUSH2 0x28C SWAP2 SWAP1 PUSH2 0x1BCF JUMP JUMPDEST PUSH2 0x8B9 JUMP JUMPDEST PUSH1 0x40 MLOAD PUSH2 0x29E SWAP2 SWAP1 PUSH2 0x1F12 JUMP JUMPDEST PUSH1 0x40 MLOAD DUP1 SWAP2 SUB SWAP1 RETURN JUMPDEST PUSH2 0x2C1 PUSH1 0x4 DUP1 CALLDATASIZE SUB DUP2 ADD SWAP1 PUSH2 0x2BC SWAP2 SWAP1 PUSH2 0x1B16 JUMP JUMPDEST PUSH2 0x921 JUMP JUMPDEST STOP JUMPDEST PUSH2 0x2DD PUSH1 0x4 DUP1 CALLDATASIZE SUB DUP2 ADD SWAP1 PUSH2 0x2D8 SWAP2 SWAP1 PUSH2 0x1998 JUMP JUMPDEST PUSH2 0x93A JUMP JUMPDEST PUSH1 0x40 MLOAD PUSH2 0x2EA SWAP2 SWAP1 PUSH2 0x1EF7 JUMP JUMPDEST PUSH1 0x40 MLOAD DUP1 SWAP2 SUB SWAP1 RETURN JUMPDEST PUSH1 0x0 PUSH32 0x80AC58CD00000000000000000000000000000000000000000000000000000000 PUSH28 0xFFFFFFFFFFFFFFFFFFFFFFFFFFFFFFFFFFFFFFFFFFFFFFFFFFFFFFFF NOT AND DUP3 PUSH28 0xFFFFFFFFFFFFFFFFFFFFFFFFFFFFFFFFFFFFFFFFFFFFFFFFFFFFFFFF NOT AND EQ DUP1 PUSH2 0x3BE JUMPI POP PUSH32 0x5B5E139F00000000000000000000000000000000000000000000000000000000 PUSH28 0xFFFFFFFFFFFFFFFFFFFFFFFFFFFFFFFFFFFFFFFFFFFFFFFFFFFFFFFF NOT AND DUP3 PUSH28 0xFFFFFFFFFFFFFFFFFFFFFFFFFFFFFFFFFFFFFFFFFFFFFFFFFFFFFFFF NOT AND EQ JUMPDEST DUP1 PUSH2 0x3CE JUMPI POP PUSH2 0x3CD DUP3 PUSH2 0x9CE JUMP JUMPDEST JUMPDEST SWAP1 POP SWAP2 SWAP1 POP JUMP JUMPDEST PUSH1 0x60 PUSH1 0x0 DUP1 SLOAD PUSH2 0x3E4 SWAP1 PUSH2 0x230A JUMP JUMPDEST DUP1 PUSH1 0x1F ADD PUSH1 0x20 DUP1 SWAP2 DIV MUL PUSH1 0x20 ADD PUSH1 0x40 MLOAD SWAP1 DUP2 ADD PUSH1 0x40 MSTORE DUP1 SWAP3 SWAP2 SWAP1 DUP2 DUP2 MSTORE PUSH1 0x20 ADD DUP3 DUP1 SLOAD PUSH2 0x410 SWAP1 PUSH2 0x230A JUMP JUMPDEST DUP1 ISZERO PUSH2 0x45D JUMPI DUP1 PUSH1 0x1F LT PUSH2 0x432 JUMPI PUSH2 0x100 DUP1 DUP4 SLOAD DIV MUL DUP4 MSTORE SWAP2 PUSH1 0x20 ADD SWAP2 PUSH2 0x45D JUMP JUMPDEST DUP3 ADD SWAP2 SWAP1 PUSH1 0x0 MSTORE PUSH1 0x20 PUSH1 0x0 KECCAK256 SWAP1 JUMPDEST DUP2 SLOAD DUP2 MSTORE SWAP1 PUSH1 0x1 ADD SWAP1 PUSH1 0x20 ADD DUP1 DUP4 GT PUSH2 0x440 JUMPI DUP3 SWAP1 SUB PUSH1 0x1F AND DUP3 ADD SWAP2 JUMPDEST POP POP POP POP POP SWAP1 POP SWAP1 JUMP JUMPDEST PUSH1 0x0 PUSH2 0x472 DUP3 PUSH2 0xA38 JUMP JUMPDEST PUSH1 0x5 PUSH1 0x0 DUP4 DUP2 MSTORE PUSH1 0x20 ADD SWAP1 DUP2 MSTORE PUSH1 0x20 ADD PUSH1 0x0 KECCAK256 PUSH1 0x0 SWAP1 SLOAD SWAP1 PUSH2 0x100 EXP SWAP1 DIV PUSH20 0xFFFFFFFFFFFFFFFFFFFFFFFFFFFFFFFFFFFFFFFF AND SWAP1 POP SWAP2 SWAP1 POP JUMP JUMPDEST PUSH1 0x0 PUSH2 0x4B8 DUP3 PUSH2 0x645 JUMP JUMPDEST SWAP1 POP DUP1 PUSH20 0xFFFFFFFFFFFFFFFFFFFFFFFFFFFFFFFFFFFFFFFF AND DUP4 PUSH20 0xFFFFFFFFFFFFFFFFFFFFFFFFFFFFFFFFFFFFFFFF AND EQ ISZERO PUSH2 0x529 JUMPI PUSH1 0x40 MLOAD PUSH32 0x8C379A000000000000000000000000000000000000000000000000000000000 DUP2 MSTORE PUSH1 0x4 ADD PUSH2 0x520 SWAP1 PUSH2 0x2074 JUMP JUMPDEST PUSH1 0x40 MLOAD DUP1 SWAP2 SUB SWAP1 REVERT JUMPDEST DUP1 PUSH20 0xFFFFFFFFFFFFFFFFFFFFFFFFFFFFFFFFFFFFFFFF AND PUSH2 0x548 PUSH2 0xA83 JUMP JUMPDEST PUSH20 0xFFFFFFFFFFFFFFFFFFFFFFFFFFFFFFFFFFFFFFFF AND EQ DUP1 PUSH2 0x577 JUMPI POP PUSH2 0x576 DUP2 PUSH2 0x571 PUSH2 0xA83 JUMP JUMPDEST PUSH2 0x93A JUMP JUMPDEST JUMPDEST PUSH2 0x5B6 JUMPI PUSH1 0x40 MLOAD PUSH32 0x8C379A000000000000000000000000000000000000000000000000000000000 DUP2 MSTORE PUSH1 0x4 ADD PUSH2 0x5AD SWAP1 PUSH2 0x2094 JUMP JUMPDEST PUSH1 0x40 MLOAD DUP1 SWAP2 SUB SWAP1 REVERT JUMPDEST PUSH2 0x5C0 DUP4 DUP4 PUSH2 0xA8B JUMP JUMPDEST POP POP POP JUMP JUMPDEST PUSH2 0x5D6 PUSH2 0x5D0 PUSH2 0xA83 JUMP JUMPDEST DUP3 PUSH2 0xB44 JUMP JUMPDEST PUSH2 0x615 JUMPI PUSH1 0x40 MLOAD PUSH32 0x8C379A000000000000000000000000000000000000000000000000000000000 DUP2 MSTORE PUSH1 0x4 ADD PUSH2 0x60C SWAP1 PUSH2 0x1F34 JUMP JUMPDEST PUSH1 0x40 MLOAD DUP1 SWAP2 SUB SWAP1 REVERT JUMPDEST PUSH2 0x620 DUP4 DUP4 DUP4 PUSH2 0xBD9 JUMP JUMPDEST POP POP POP JUMP JUMPDEST PUSH2 0x640 DUP4 DUP4 DUP4 PUSH1 0x40 MLOAD DUP1 PUSH1 0x20 ADD PUSH1 0x40 MSTORE DUP1 PUSH1 0x0 DUP2 MSTORE POP PUSH2 0x857 JUMP JUMPDEST POP POP POP JUMP JUMPDEST PUSH1 0x0 DUP1 PUSH1 0x2 PUSH1 0x0 DUP5 DUP2 MSTORE PUSH1 0x20 ADD SWAP1 DUP2 MSTORE PUSH1 0x20 ADD PUSH1 0x0 KECCAK256 PUSH1 0x0 SWAP1 SLOAD SWAP1 PUSH2 0x100 EXP SWAP1 DIV PUSH20 0xFFFFFFFFFFFFFFFFFFFFFFFFFFFFFFFFFFFFFFFF AND SWAP1 POP PUSH1 0x0 PUSH20 0xFFFFFFFFFFFFFFFFFFFFFFFFFFFFFFFFFFFFFFFF AND DUP2 PUSH20 0xFFFFFFFFFFFFFFFFFFFFFFFFFFFFFFFFFFFFFFFF AND EQ ISZERO PUSH2 0x6EE JUMPI PUSH1 0x40 MLOAD PUSH32 0x8C379A000000000000000000000000000000000000000000000000000000000 DUP2 MSTORE PUSH1 0x4 ADD PUSH2 0x6E5 SWAP1 PUSH2 0x2054 JUMP JUMPDEST PUSH1 0x40 MLOAD DUP1 SWAP2 SUB SWAP1 REVERT JUMPDEST DUP1 SWAP2 POP POP SWAP2 SWAP1 POP JUMP JUMPDEST PUSH1 0x0 DUP1 PUSH20 0xFFFFFFFFFFFFFFFFFFFFFFFFFFFFFFFFFFFFFFFF AND DUP3 PUSH20 0xFFFFFFFFFFFFFFFFFFFFFFFFFFFFFFFFFFFFFFFF AND EQ ISZERO PUSH2 0x768 JUMPI PUSH1 0x40 MLOAD PUSH32 0x8C379A000000000000000000000000000000000000000000000000000000000 DUP2 MSTORE PUSH1 0x4 ADD PUSH2 0x75F SWAP1 PUSH2 0x1FF4 JUMP JUMPDEST PUSH1 0x40 MLOAD DUP1 SWAP2 SUB SWAP1 REVERT JUMPDEST PUSH1 0x4 PUSH1 0x0 DUP4 PUSH20 0xFFFFFFFFFFFFFFFFFFFFFFFFFFFFFFFFFFFFFFFF AND PUSH20 0xFFFFFFFFFFFFFFFFFFFFFFFFFFFFFFFFFFFFFFFF AND DUP2 MSTORE PUSH1 0x20 ADD SWAP1 DUP2 MSTORE PUSH1 0x20 ADD PUSH1 0x0 KECCAK256 SLOAD SWAP1 POP SWAP2 SWAP1 POP JUMP JUMPDEST PUSH1 0x60 PUSH1 0x1 DUP1 SLOAD PUSH2 0x7BE SWAP1 PUSH2 0x230A JUMP JUMPDEST DUP1 PUSH1 0x1F ADD PUSH1 0x20 DUP1 SWAP2 DIV MUL PUSH1 0x20 ADD PUSH1 0x40 MLOAD SWAP1 DUP2 ADD PUSH1 0x40 MSTORE DUP1 SWAP3 SWAP2 SWAP1 DUP2 DUP2 MSTORE PUSH1 0x20 ADD DUP3 DUP1 SLOAD PUSH2 0x7EA SWAP1 PUSH2 0x230A JUMP JUMPDEST DUP1 ISZERO PUSH2 0x837 JUMPI DUP1 PUSH1 0x1F LT PUSH2 0x80C JUMPI PUSH2 0x100 DUP1 DUP4 SLOAD DIV MUL DUP4 MSTORE SWAP2 PUSH1 0x20 ADD SWAP2 PUSH2 0x837 JUMP JUMPDEST DUP3 ADD SWAP2 SWAP1 PUSH1 0x0 MSTORE PUSH1 0x20 PUSH1 0x0 KECCAK256 SWAP1 JUMPDEST DUP2 SLOAD DUP2 MSTORE SWAP1 PUSH1 0x1 ADD SWAP1 PUSH1 0x20 ADD DUP1 DUP4 GT PUSH2 0x81A JUMPI DUP3 SWAP1 SUB PUSH1 0x1F AND DUP3 ADD SWAP2 JUMPDEST POP POP POP POP POP SWAP1 POP SWAP1 JUMP JUMPDEST PUSH2 0x853 PUSH2 0x84C PUSH2 0xA83 JUMP JUMPDEST DUP4 DUP4 PUSH2 0xECF JUMP JUMPDEST POP POP JUMP JUMPDEST PUSH2 0x868 PUSH2 0x862 PUSH2 0xA83 JUMP JUMPDEST DUP4 PUSH2 0xB44 JUMP JUMPDEST PUSH2 0x8A7 JUMPI PUSH1 0x40 MLOAD PUSH32 0x8C379A000000000000000000000000000000000000000000000000000000000 DUP2 MSTORE PUSH1 0x4 ADD PUSH2 0x89E SWAP1 PUSH2 0x1F34 JUMP JUMPDEST PUSH1 0x40 MLOAD DUP1 SWAP2 SUB SWAP1 REVERT JUMPDEST PUSH2 0x8B3 DUP5 DUP5 DUP5 DUP5 PUSH2 0x103C JUMP JUMPDEST POP POP POP POP JUMP JUMPDEST PUSH1 0x60 PUSH2 0x8C4 DUP3 PUSH2 0xA38 JUMP JUMPDEST PUSH1 0x0 PUSH2 0x8CE PUSH2 0x1098 JUMP JUMPDEST SWAP1 POP PUSH1 0x0 DUP2 MLOAD GT PUSH2 0x8EE JUMPI PUSH1 0x40 MLOAD DUP1 PUSH1 0x20 ADD PUSH1 0x40 MSTORE DUP1 PUSH1 0x0 DUP2 MSTORE POP PUSH2 0x919 JUMP JUMPDEST DUP1 PUSH2 0x8F8 DUP5 PUSH2 0x10AF JUMP JUMPDEST PUSH1 0x40 MLOAD PUSH1 0x20 ADD PUSH2 0x909 SWAP3 SWAP2 SWAP1 PUSH2 0x1E6C JUMP JUMPDEST PUSH1 0x40 MLOAD PUSH1 0x20 DUP2 DUP4 SUB SUB DUP2 MSTORE SWAP1 PUSH1 0x40 MSTORE JUMPDEST SWAP2 POP POP SWAP2 SWAP1 POP JUMP JUMPDEST PUSH2 0x92B DUP4 DUP4 PUSH2 0x125C JUMP JUMPDEST PUSH2 0x935 DUP3 DUP3 PUSH2 0x127A JUMP JUMPDEST POP POP POP JUMP JUMPDEST PUSH1 0x0 PUSH1 0x6 PUSH1 0x0 DUP5 PUSH20 0xFFFFFFFFFFFFFFFFFFFFFFFFFFFFFFFFFFFFFFFF AND PUSH20 0xFFFFFFFFFFFFFFFFFFFFFFFFFFFFFFFFFFFFFFFF AND DUP2 MSTORE PUSH1 0x20 ADD SWAP1 DUP2 MSTORE PUSH1 0x20 ADD PUSH1 0x0 KECCAK256 PUSH1 0x0 DUP4 PUSH20 0xFFFFFFFFFFFFFFFFFFFFFFFFFFFFFFFFFFFFFFFF AND PUSH20 0xFFFFFFFFFFFFFFFFFFFFFFFFFFFFFFFFFFFFFFFF AND DUP2 MSTORE PUSH1 0x20 ADD SWAP1 DUP2 MSTORE PUSH1 0x20 ADD PUSH1 0x0 KECCAK256 PUSH1 0x0 SWAP1 SLOAD SWAP1 PUSH2 0x100 EXP SWAP1 DIV PUSH1 0xFF AND SWAP1 POP SWAP3 SWAP2 POP POP JUMP JUMPDEST PUSH1 0x0 PUSH32 0x1FFC9A700000000000000000000000000000000000000000000000000000000 PUSH28 0xFFFFFFFFFFFFFFFFFFFFFFFFFFFFFFFFFFFFFFFFFFFFFFFFFFFFFFFF NOT AND DUP3 PUSH28 0xFFFFFFFFFFFFFFFFFFFFFFFFFFFFFFFFFFFFFFFFFFFFFFFFFFFFFFFF NOT AND EQ SWAP1 POP SWAP2 SWAP1 POP JUMP JUMPDEST PUSH2 0xA41 DUP2 PUSH2 0x12EE JUMP JUMPDEST PUSH2 0xA80 JUMPI PUSH1 0x40 MLOAD PUSH32 0x8C379A000000000000000000000000000000000000000000000000000000000 DUP2 MSTORE PUSH1 0x4 ADD PUSH2 0xA77 SWAP1 PUSH2 0x2054 JUMP JUMPDEST PUSH1 0x40 MLOAD DUP1 SWAP2 SUB SWAP1 REVERT JUMPDEST POP JUMP JUMPDEST PUSH1 0x0 CALLER SWAP1 POP SWAP1 JUMP JUMPDEST DUP2 PUSH1 0x5 PUSH1 0x0 DUP4 DUP2 MSTORE PUSH1 0x20 ADD SWAP1 DUP2 MSTORE PUSH1 0x20 ADD PUSH1 0x0 KECCAK256 PUSH1 0x0 PUSH2 0x100 EXP DUP2 SLOAD DUP2 PUSH20 0xFFFFFFFFFFFFFFFFFFFFFFFFFFFFFFFFFFFFFFFF MUL NOT AND SWAP1 DUP4 PUSH20 0xFFFFFFFFFFFFFFFFFFFFFFFFFFFFFFFFFFFFFFFF AND MUL OR SWAP1 SSTORE POP DUP1 DUP3 PUSH20 0xFFFFFFFFFFFFFFFFFFFFFFFFFFFFFFFFFFFFFFFF AND PUSH2 0xAFE DUP4 PUSH2 0x645 JUMP JUMPDEST PUSH20 0xFFFFFFFFFFFFFFFFFFFFFFFFFFFFFFFFFFFFFFFF AND PUSH32 0x8C5BE1E5EBEC7D5BD14F71427D1E84F3DD0314C0F7B2291E5B200AC8C7C3B925 PUSH1 0x40 MLOAD PUSH1 0x40 MLOAD DUP1 SWAP2 SUB SWAP1 LOG4 POP POP JUMP JUMPDEST PUSH1 0x0 DUP1 PUSH2 0xB50 DUP4 PUSH2 0x645 JUMP JUMPDEST SWAP1 POP DUP1 PUSH20 0xFFFFFFFFFFFFFFFFFFFFFFFFFFFFFFFFFFFFFFFF AND DUP5 PUSH20 0xFFFFFFFFFFFFFFFFFFFFFFFFFFFFFFFFFFFFFFFF AND EQ DUP1 PUSH2 0xB92 JUMPI POP PUSH2 0xB91 DUP2 DUP6 PUSH2 0x93A JUMP JUMPDEST JUMPDEST DUP1 PUSH2 0xBD0 JUMPI POP DUP4 PUSH20 0xFFFFFFFFFFFFFFFFFFFFFFFFFFFFFFFFFFFFFFFF AND PUSH2 0xBB8 DUP5 PUSH2 0x467 JUMP JUMPDEST PUSH20 0xFFFFFFFFFFFFFFFFFFFFFFFFFFFFFFFFFFFFFFFF AND EQ JUMPDEST SWAP2 POP POP SWAP3 SWAP2 POP POP JUMP JUMPDEST DUP3 PUSH20 0xFFFFFFFFFFFFFFFFFFFFFFFFFFFFFFFFFFFFFFFF AND PUSH2 0xBF9 DUP3 PUSH2 0x645 JUMP JUMPDEST PUSH20 0xFFFFFFFFFFFFFFFFFFFFFFFFFFFFFFFFFFFFFFFF AND EQ PUSH2 0xC4F JUMPI PUSH1 0x40 MLOAD PUSH32 0x8C379A000000000000000000000000000000000000000000000000000000000 DUP2 MSTORE PUSH1 0x4 ADD PUSH2 0xC46 SWAP1 PUSH2 0x1F74 JUMP JUMPDEST PUSH1 0x40 MLOAD DUP1 SWAP2 SUB SWAP1 REVERT JUMPDEST PUSH1 0x0 PUSH20 0xFFFFFFFFFFFFFFFFFFFFFFFFFFFFFFFFFFFFFFFF AND DUP3 PUSH20 0xFFFFFFFFFFFFFFFFFFFFFFFFFFFFFFFFFFFFFFFF AND EQ ISZERO PUSH2 0xCBF JUMPI PUSH1 0x40 MLOAD PUSH32 0x8C379A000000000000000000000000000000000000000000000000000000000 DUP2 MSTORE PUSH1 0x4 ADD PUSH2 0xCB6 SWAP1 PUSH2 0x1FB4 JUMP JUMPDEST PUSH1 0x40 MLOAD DUP1 SWAP2 SUB SWAP1 REVERT JUMPDEST PUSH2 0xCCA DUP4 DUP4 DUP4 PUSH2 0x135A JUMP JUMPDEST DUP3 PUSH20 0xFFFFFFFFFFFFFFFFFFFFFFFFFFFFFFFFFFFFFFFF AND PUSH2 0xCEA DUP3 PUSH2 0x645 JUMP JUMPDEST PUSH20 0xFFFFFFFFFFFFFFFFFFFFFFFFFFFFFFFFFFFFFFFF AND EQ PUSH2 0xD40 JUMPI PUSH1 0x40 MLOAD PUSH32 0x8C379A000000000000000000000000000000000000000000000000000000000 DUP2 MSTORE PUSH1 0x4 ADD PUSH2 0xD37 SWAP1 PUSH2 0x1F74 JUMP JUMPDEST PUSH1 0x40 MLOAD DUP1 SWAP2 SUB SWAP1 REVERT JUMPDEST PUSH1 0x5 PUSH1 0x0 DUP3 DUP2 MSTORE PUSH1 0x20 ADD SWAP1 DUP2 MSTORE PUSH1 0x20 ADD PUSH1 0x0 KECCAK256 PUSH1 0x0 PUSH2 0x100 EXP DUP2 SLOAD SWAP1 PUSH20 0xFFFFFFFFFFFFFFFFFFFFFFFFFFFFFFFFFFFFFFFF MUL NOT AND SWAP1 SSTORE PUSH1 0x1 PUSH1 0x4 PUSH1 0x0 DUP6 PUSH20 0xFFFFFFFFFFFFFFFFFFFFFFFFFFFFFFFFFFFFFFFF AND PUSH20 0xFFFFFFFFFFFFFFFFFFFFFFFFFFFFFFFFFFFFFFFF AND DUP2 MSTORE PUSH1 0x20 ADD SWAP1 DUP2 MSTORE PUSH1 0x20 ADD PUSH1 0x0 KECCAK256 PUSH1 0x0 DUP3 DUP3 SLOAD SUB SWAP3 POP POP DUP2 SWAP1 SSTORE POP PUSH1 0x1 PUSH1 0x4 PUSH1 0x0 DUP5 PUSH20 0xFFFFFFFFFFFFFFFFFFFFFFFFFFFFFFFFFFFFFFFF AND PUSH20 0xFFFFFFFFFFFFFFFFFFFFFFFFFFFFFFFFFFFFFFFF AND DUP2 MSTORE PUSH1 0x20 ADD SWAP1 DUP2 MSTORE PUSH1 0x20 ADD PUSH1 0x0 KECCAK256 PUSH1 0x0 DUP3 DUP3 SLOAD ADD SWAP3 POP POP DUP2 SWAP1 SSTORE POP DUP2 PUSH1 0x2 PUSH1 0x0 DUP4 DUP2 MSTORE PUSH1 0x20 ADD SWAP1 DUP2 MSTORE PUSH1 0x20 ADD PUSH1 0x0 KECCAK256 PUSH1 0x0 PUSH2 0x100 EXP DUP2 SLOAD DUP2 PUSH20 0xFFFFFFFFFFFFFFFFFFFFFFFFFFFFFFFFFFFFFFFF MUL NOT AND SWAP1 DUP4 PUSH20 0xFFFFFFFFFFFFFFFFFFFFFFFFFFFFFFFFFFFFFFFF AND MUL OR SWAP1 SSTORE POP DUP1 DUP3 PUSH20 0xFFFFFFFFFFFFFFFFFFFFFFFFFFFFFFFFFFFFFFFF AND DUP5 PUSH20 0xFFFFFFFFFFFFFFFFFFFFFFFFFFFFFFFFFFFFFFFF AND PUSH32 0xDDF252AD1BE2C89B69C2B068FC378DAA952BA7F163C4A11628F55A4DF523B3EF PUSH1 0x40 MLOAD PUSH1 0x40 MLOAD DUP1 SWAP2 SUB SWAP1 LOG4 PUSH2 0xECA DUP4 DUP4 DUP4 PUSH2 0x135F JUMP JUMPDEST POP POP POP JUMP JUMPDEST DUP2 PUSH20 0xFFFFFFFFFFFFFFFFFFFFFFFFFFFFFFFFFFFFFFFF AND DUP4 PUSH20 0xFFFFFFFFFFFFFFFFFFFFFFFFFFFFFFFFFFFFFFFF AND EQ ISZERO PUSH2 0xF3E JUMPI PUSH1 0x40 MLOAD PUSH32 0x8C379A000000000000000000000000000000000000000000000000000000000 DUP2 MSTORE PUSH1 0x4 ADD PUSH2 0xF35 SWAP1 PUSH2 0x1FD4 JUMP JUMPDEST PUSH1 0x40 MLOAD DUP1 SWAP2 SUB SWAP1 REVERT JUMPDEST DUP1 PUSH1 0x6 PUSH1 0x0 DUP6 PUSH20 0xFFFFFFFFFFFFFFFFFFFFFFFFFFFFFFFFFFFFFFFF AND PUSH20 0xFFFFFFFFFFFFFFFFFFFFFFFFFFFFFFFFFFFFFFFF AND DUP2 MSTORE PUSH1 0x20 ADD SWAP1 DUP2 MSTORE PUSH1 0x20 ADD PUSH1 0x0 KECCAK256 PUSH1 0x0 DUP5 PUSH20 0xFFFFFFFFFFFFFFFFFFFFFFFFFFFFFFFFFFFFFFFF AND PUSH20 0xFFFFFFFFFFFFFFFFFFFFFFFFFFFFFFFFFFFFFFFF AND DUP2 MSTORE PUSH1 0x20 ADD SWAP1 DUP2 MSTORE PUSH1 0x20 ADD PUSH1 0x0 KECCAK256 PUSH1 0x0 PUSH2 0x100 EXP DUP2 SLOAD DUP2 PUSH1 0xFF MUL NOT AND SWAP1 DUP4 ISZERO ISZERO MUL OR SWAP1 SSTORE POP DUP2 PUSH20 0xFFFFFFFFFFFFFFFFFFFFFFFFFFFFFFFFFFFFFFFF AND DUP4 PUSH20 0xFFFFFFFFFFFFFFFFFFFFFFFFFFFFFFFFFFFFFFFF AND PUSH32 0x17307EAB39AB6107E8899845AD3D59BD9653F200F220920489CA2B5937696C31 DUP4 PUSH1 0x40 MLOAD PUSH2 0x102F SWAP2 SWAP1 PUSH2 0x1EF7 JUMP JUMPDEST PUSH1 0x40 MLOAD DUP1 SWAP2 SUB SWAP1 LOG3 POP POP POP JUMP JUMPDEST PUSH2 0x1047 DUP5 DUP5 DUP5 PUSH2 0xBD9 JUMP JUMPDEST PUSH2 0x1053 DUP5 DUP5 DUP5 DUP5 PUSH2 0x1364 JUMP JUMPDEST PUSH2 0x1092 JUMPI PUSH1 0x40 MLOAD PUSH32 0x8C379A000000000000000000000000000000000000000000000000000000000 DUP2 MSTORE PUSH1 0x4 ADD PUSH2 0x1089 SWAP1 PUSH2 0x1F54 JUMP JUMPDEST PUSH1 0x40 MLOAD DUP1 SWAP2 SUB SWAP1 REVERT JUMPDEST POP POP POP POP JUMP JUMPDEST PUSH1 0x60 PUSH1 0x40 MLOAD DUP1 PUSH1 0x20 ADD PUSH1 0x40 MSTORE DUP1 PUSH1 0x0 DUP2 MSTORE POP SWAP1 POP SWAP1 JUMP JUMPDEST PUSH1 0x60 PUSH1 0x0 DUP3 EQ ISZERO PUSH2 0x10F7 JUMPI PUSH1 0x40 MLOAD DUP1 PUSH1 0x40 ADD PUSH1 0x40 MSTORE DUP1 PUSH1 0x1 DUP2 MSTORE PUSH1 0x20 ADD PUSH32 0x3000000000000000000000000000000000000000000000000000000000000000 DUP2 MSTORE POP SWAP1 POP PUSH2 0x1257 JUMP JUMPDEST PUSH1 0x0 DUP3 SWAP1 POP PUSH1 0x0 JUMPDEST PUSH1 0x0 DUP3 EQ PUSH2 0x1129 JUMPI DUP1 DUP1 PUSH2 0x1112 SWAP1 PUSH2 0x236D JUMP JUMPDEST SWAP2 POP POP PUSH1 0xA DUP3 PUSH2 0x1122 SWAP2 SWAP1 PUSH2 0x21EF JUMP JUMPDEST SWAP2 POP PUSH2 0x10FF JUMP JUMPDEST PUSH1 0x0 DUP2 PUSH8 0xFFFFFFFFFFFFFFFF DUP2 GT ISZERO PUSH2 0x116B JUMPI PUSH32 0x4E487B7100000000000000000000000000000000000000000000000000000000 PUSH1 0x0 MSTORE PUSH1 0x41 PUSH1 0x4 MSTORE PUSH1 0x24 PUSH1 0x0 REVERT JUMPDEST PUSH1 0x40 MLOAD SWAP1 DUP1 DUP3 MSTORE DUP1 PUSH1 0x1F ADD PUSH1 0x1F NOT AND PUSH1 0x20 ADD DUP3 ADD PUSH1 0x40 MSTORE DUP1 ISZERO PUSH2 0x119D JUMPI DUP2 PUSH1 0x20 ADD PUSH1 0x1 DUP3 MUL DUP1 CALLDATASIZE DUP4 CALLDATACOPY DUP1 DUP3 ADD SWAP2 POP POP SWAP1 POP JUMPDEST POP SWAP1 POP JUMPDEST PUSH1 0x0 DUP6 EQ PUSH2 0x1250 JUMPI PUSH1 0x1 DUP3 PUSH2 0x11B6 SWAP2 SWAP1 PUSH2 0x2220 JUMP JUMPDEST SWAP2 POP PUSH1 0xA DUP6 PUSH2 0x11C5 SWAP2 SWAP1 PUSH2 0x23B6 JUMP JUMPDEST PUSH1 0x30 PUSH2 0x11D1 SWAP2 SWAP1 PUSH2 0x2199 JUMP JUMPDEST PUSH1 0xF8 SHL DUP2 DUP4 DUP2 MLOAD DUP2 LT PUSH2 0x120D JUMPI PUSH32 0x4E487B7100000000000000000000000000000000000000000000000000000000 PUSH1 0x0 MSTORE PUSH1 0x32 PUSH1 0x4 MSTORE PUSH1 0x24 PUSH1 0x0 REVERT JUMPDEST PUSH1 0x20 ADD ADD SWAP1 PUSH31 0xFFFFFFFFFFFFFFFFFFFFFFFFFFFFFFFFFFFFFFFFFFFFFFFFFFFFFFFFFFFFFF NOT AND SWAP1 DUP2 PUSH1 0x0 BYTE SWAP1 MSTORE8 POP PUSH1 0xA DUP6 PUSH2 0x1249 SWAP2 SWAP1 PUSH2 0x21EF JUMP JUMPDEST SWAP5 POP PUSH2 0x11A1 JUMP JUMPDEST DUP1 SWAP4 POP POP POP POP JUMPDEST SWAP2 SWAP1 POP JUMP JUMPDEST PUSH2 0x1276 DUP3 DUP3 PUSH1 0x40 MLOAD DUP1 PUSH1 0x20 ADD PUSH1 0x40 MSTORE DUP1 PUSH1 0x0 DUP2 MSTORE POP PUSH2 0x14FB JUMP JUMPDEST POP POP JUMP JUMPDEST PUSH2 0x1283 DUP3 PUSH2 0x12EE JUMP JUMPDEST PUSH2 0x12C2 JUMPI PUSH1 0x40 MLOAD PUSH32 0x8C379A000000000000000000000000000000000000000000000000000000000 DUP2 MSTORE PUSH1 0x4 ADD PUSH2 0x12B9 SWAP1 PUSH2 0x2014 JUMP JUMPDEST PUSH1 0x40 MLOAD DUP1 SWAP2 SUB SWAP1 REVERT JUMPDEST DUP1 PUSH1 0x7 PUSH1 0x0 DUP5 DUP2 MSTORE PUSH1 0x20 ADD SWAP1 DUP2 MSTORE PUSH1 0x20 ADD PUSH1 0x0 KECCAK256 SWAP1 DUP1 MLOAD SWAP1 PUSH1 0x20 ADD SWAP1 PUSH2 0x12E9 SWAP3 SWAP2 SWAP1 PUSH2 0x1793 JUMP JUMPDEST POP POP POP JUMP JUMPDEST PUSH1 0x0 DUP1 PUSH20 0xFFFFFFFFFFFFFFFFFFFFFFFFFFFFFFFFFFFFFFFF AND PUSH1 0x2 PUSH1 0x0 DUP5 DUP2 MSTORE PUSH1 0x20 ADD SWAP1 DUP2 MSTORE PUSH1 0x20 ADD PUSH1 0x0 KECCAK256 PUSH1 0x0 SWAP1 SLOAD SWAP1 PUSH2 0x100 EXP SWAP1 DIV PUSH20 0xFFFFFFFFFFFFFFFFFFFFFFFFFFFFFFFFFFFFFFFF AND PUSH20 0xFFFFFFFFFFFFFFFFFFFFFFFFFFFFFFFFFFFFFFFF AND EQ ISZERO SWAP1 POP SWAP2 SWAP1 POP JUMP JUMPDEST POP POP POP JUMP JUMPDEST POP POP POP JUMP JUMPDEST PUSH1 0x0 PUSH2 0x1385 DUP5 PUSH20 0xFFFFFFFFFFFFFFFFFFFFFFFFFFFFFFFFFFFFFFFF AND PUSH2 0x1556 JUMP JUMPDEST ISZERO PUSH2 0x14EE JUMPI DUP4 PUSH20 0xFFFFFFFFFFFFFFFFFFFFFFFFFFFFFFFFFFFFFFFF AND PUSH4 0x150B7A02 PUSH2 0x13AE PUSH2 0xA83 JUMP JUMPDEST DUP8 DUP7 DUP7 PUSH1 0x40 MLOAD DUP6 PUSH4 0xFFFFFFFF AND PUSH1 0xE0 SHL DUP2 MSTORE PUSH1 0x4 ADD PUSH2 0x13D0 SWAP5 SWAP4 SWAP3 SWAP2 SWAP1 PUSH2 0x1EAB JUMP JUMPDEST PUSH1 0x20 PUSH1 0x40 MLOAD DUP1 DUP4 SUB DUP2 PUSH1 0x0 DUP8 DUP1 EXTCODESIZE ISZERO DUP1 ISZERO PUSH2 0x13EA JUMPI PUSH1 0x0 DUP1 REVERT JUMPDEST POP GAS CALL SWAP3 POP POP POP DUP1 ISZERO PUSH2 0x141B JUMPI POP PUSH1 0x40 MLOAD RETURNDATASIZE PUSH1 0x1F NOT PUSH1 0x1F DUP3 ADD AND DUP3 ADD DUP1 PUSH1 0x40 MSTORE POP DUP2 ADD SWAP1 PUSH2 0x1418 SWAP2 SWAP1 PUSH2 0x1BA6 JUMP JUMPDEST PUSH1 0x1 JUMPDEST PUSH2 0x149E JUMPI RETURNDATASIZE DUP1 PUSH1 0x0 DUP2 EQ PUSH2 0x144B JUMPI PUSH1 0x40 MLOAD SWAP2 POP PUSH1 0x1F NOT PUSH1 0x3F RETURNDATASIZE ADD AND DUP3 ADD PUSH1 0x40 MSTORE RETURNDATASIZE DUP3 MSTORE RETURNDATASIZE PUSH1 0x0 PUSH1 0x20 DUP5 ADD RETURNDATACOPY PUSH2 0x1450 JUMP JUMPDEST PUSH1 0x60 SWAP2 POP JUMPDEST POP PUSH1 0x0 DUP2 MLOAD EQ ISZERO PUSH2 0x1496 JUMPI PUSH1 0x40 MLOAD PUSH32 0x8C379A000000000000000000000000000000000000000000000000000000000 DUP2 MSTORE PUSH1 0x4 ADD PUSH2 0x148D SWAP1 PUSH2 0x1F54 JUMP JUMPDEST PUSH1 0x40 MLOAD DUP1 SWAP2 SUB SWAP1 REVERT JUMPDEST DUP1 MLOAD DUP2 PUSH1 0x20 ADD REVERT JUMPDEST PUSH4 0x150B7A02 PUSH1 0xE0 SHL PUSH28 0xFFFFFFFFFFFFFFFFFFFFFFFFFFFFFFFFFFFFFFFFFFFFFFFFFFFFFFFF NOT AND DUP2 PUSH28 0xFFFFFFFFFFFFFFFFFFFFFFFFFFFFFFFFFFFFFFFFFFFFFFFFFFFFFFFF NOT AND EQ SWAP2 POP POP PUSH2 0x14F3 JUMP JUMPDEST PUSH1 0x1 SWAP1 POP JUMPDEST SWAP5 SWAP4 POP POP POP POP JUMP JUMPDEST PUSH2 0x1505 DUP4 DUP4 PUSH2 0x1579 JUMP JUMPDEST PUSH2 0x1512 PUSH1 0x0 DUP5 DUP5 DUP5 PUSH2 0x1364 JUMP JUMPDEST PUSH2 0x1551 JUMPI PUSH1 0x40 MLOAD PUSH32 0x8C379A000000000000000000000000000000000000000000000000000000000 DUP2 MSTORE PUSH1 0x4 ADD PUSH2 0x1548 SWAP1 PUSH2 0x1F54 JUMP JUMPDEST PUSH1 0x40 MLOAD DUP1 SWAP2 SUB SWAP1 REVERT JUMPDEST POP POP POP JUMP JUMPDEST PUSH1 0x0 DUP1 DUP3 PUSH20 0xFFFFFFFFFFFFFFFFFFFFFFFFFFFFFFFFFFFFFFFF AND EXTCODESIZE GT SWAP1 POP SWAP2 SWAP1 POP JUMP JUMPDEST PUSH1 0x0 PUSH20 0xFFFFFFFFFFFFFFFFFFFFFFFFFFFFFFFFFFFFFFFF AND DUP3 PUSH20 0xFFFFFFFFFFFFFFFFFFFFFFFFFFFFFFFFFFFFFFFF AND EQ ISZERO PUSH2 0x15E9 JUMPI PUSH1 0x40 MLOAD PUSH32 0x8C379A000000000000000000000000000000000000000000000000000000000 DUP2 MSTORE PUSH1 0x4 ADD PUSH2 0x15E0 SWAP1 PUSH2 0x2034 JUMP JUMPDEST PUSH1 0x40 MLOAD DUP1 SWAP2 SUB SWAP1 REVERT JUMPDEST PUSH2 0x15F2 DUP2 PUSH2 0x12EE JUMP JUMPDEST ISZERO PUSH2 0x1632 JUMPI PUSH1 0x40 MLOAD PUSH32 0x8C379A000000000000000000000000000000000000000000000000000000000 DUP2 MSTORE PUSH1 0x4 ADD PUSH2 0x1629 SWAP1 PUSH2 0x1F94 JUMP JUMPDEST PUSH1 0x40 MLOAD DUP1 SWAP2 SUB SWAP1 REVERT JUMPDEST PUSH2 0x163E PUSH1 0x0 DUP4 DUP4 PUSH2 0x135A JUMP JUMPDEST PUSH2 0x1647 DUP2 PUSH2 0x12EE JUMP JUMPDEST ISZERO PUSH2 0x1687 JUMPI PUSH1 0x40 MLOAD PUSH32 0x8C379A000000000000000000000000000000000000000000000000000000000 DUP2 MSTORE PUSH1 0x4 ADD PUSH2 0x167E SWAP1 PUSH2 0x1F94 JUMP JUMPDEST PUSH1 0x40 MLOAD DUP1 SWAP2 SUB SWAP1 REVERT JUMPDEST PUSH1 0x1 PUSH1 0x4 PUSH1 0x0 DUP5 PUSH20 0xFFFFFFFFFFFFFFFFFFFFFFFFFFFFFFFFFFFFFFFF AND PUSH20 0xFFFFFFFFFFFFFFFFFFFFFFFFFFFFFFFFFFFFFFFF AND DUP2 MSTORE PUSH1 0x20 ADD SWAP1 DUP2 MSTORE PUSH1 0x20 ADD PUSH1 0x0 KECCAK256 PUSH1 0x0 DUP3 DUP3 SLOAD ADD SWAP3 POP POP DUP2 SWAP1 SSTORE POP DUP2 PUSH1 0x2 PUSH1 0x0 DUP4 DUP2 MSTORE PUSH1 0x20 ADD SWAP1 DUP2 MSTORE PUSH1 0x20 ADD PUSH1 0x0 KECCAK256 PUSH1 0x0 PUSH2 0x100 EXP DUP2 SLOAD DUP2 PUSH20 0xFFFFFFFFFFFFFFFFFFFFFFFFFFFFFFFFFFFFFFFF MUL NOT AND SWAP1 DUP4 PUSH20 0xFFFFFFFFFFFFFFFFFFFFFFFFFFFFFFFFFFFFFFFF AND MUL OR SWAP1 SSTORE POP DUP1 DUP3 PUSH20 0xFFFFFFFFFFFFFFFFFFFFFFFFFFFFFFFFFFFFFFFF AND PUSH1 0x0 PUSH20 0xFFFFFFFFFFFFFFFFFFFFFFFFFFFFFFFFFFFFFFFF AND PUSH32 0xDDF252AD1BE2C89B69C2B068FC378DAA952BA7F163C4A11628F55A4DF523B3EF PUSH1 0x40 MLOAD PUSH1 0x40 MLOAD DUP1 SWAP2 SUB SWAP1 LOG4 PUSH2 0x178F PUSH1 0x0 DUP4 DUP4 PUSH2 0x135F JUMP JUMPDEST POP POP JUMP JUMPDEST DUP3 DUP1 SLOAD PUSH2 0x179F SWAP1 PUSH2 0x230A JUMP JUMPDEST SWAP1 PUSH1 0x0 MSTORE PUSH1 0x20 PUSH1 0x0 KECCAK256 SWAP1 PUSH1 0x1F ADD PUSH1 0x20 SWAP1 DIV DUP2 ADD SWAP3 DUP3 PUSH2 0x17C1 JUMPI PUSH1 0x0 DUP6 SSTORE PUSH2 0x1808 JUMP JUMPDEST DUP3 PUSH1 0x1F LT PUSH2 0x17DA JUMPI DUP1 MLOAD PUSH1 0xFF NOT AND DUP4 DUP1 ADD OR DUP6 SSTORE PUSH2 0x1808 JUMP JUMPDEST DUP3 DUP1 ADD PUSH1 0x1 ADD DUP6 SSTORE DUP3 ISZERO PUSH2 0x1808 JUMPI SWAP2 DUP3 ADD JUMPDEST DUP3 DUP2 GT ISZERO PUSH2 0x1807 JUMPI DUP3 MLOAD DUP3 SSTORE SWAP2 PUSH1 0x20 ADD SWAP2 SWAP1 PUSH1 0x1 ADD SWAP1 PUSH2 0x17EC JUMP JUMPDEST JUMPDEST POP SWAP1 POP PUSH2 0x1815 SWAP2 SWAP1 PUSH2 0x1819 JUMP JUMPDEST POP SWAP1 JUMP JUMPDEST JUMPDEST DUP1 DUP3 GT ISZERO PUSH2 0x1832 JUMPI PUSH1 0x0 DUP2 PUSH1 0x0 SWAP1 SSTORE POP PUSH1 0x1 ADD PUSH2 0x181A JUMP JUMPDEST POP SWAP1 JUMP JUMPDEST PUSH1 0x0 PUSH2 0x1849 PUSH2 0x1844 DUP5 PUSH2 0x20F4 JUMP JUMPDEST PUSH2 0x20CF JUMP JUMPDEST SWAP1 POP DUP3 DUP2 MSTORE PUSH1 0x20 DUP2 ADD DUP5 DUP5 DUP5 ADD GT ISZERO PUSH2 0x1861 JUMPI PUSH1 0x0 DUP1 REVERT JUMPDEST PUSH2 0x186C DUP5 DUP3 DUP6 PUSH2 0x22C8 JUMP JUMPDEST POP SWAP4 SWAP3 POP POP POP JUMP JUMPDEST PUSH1 0x0 PUSH2 0x1887 PUSH2 0x1882 DUP5 PUSH2 0x2125 JUMP JUMPDEST PUSH2 0x20CF JUMP JUMPDEST SWAP1 POP DUP3 DUP2 MSTORE PUSH1 0x20 DUP2 ADD DUP5 DUP5 DUP5 ADD GT ISZERO PUSH2 0x189F JUMPI PUSH1 0x0 DUP1 REVERT JUMPDEST PUSH2 0x18AA DUP5 DUP3 DUP6 PUSH2 0x22C8 JUMP JUMPDEST POP SWAP4 SWAP3 POP POP POP JUMP JUMPDEST PUSH1 0x0 DUP2 CALLDATALOAD SWAP1 POP PUSH2 0x18C1 DUP2 PUSH2 0x27D0 JUMP JUMPDEST SWAP3 SWAP2 POP POP JUMP JUMPDEST PUSH1 0x0 DUP2 CALLDATALOAD SWAP1 POP PUSH2 0x18D6 DUP2 PUSH2 0x27E7 JUMP JUMPDEST SWAP3 SWAP2 POP POP JUMP JUMPDEST PUSH1 0x0 DUP2 CALLDATALOAD SWAP1 POP PUSH2 0x18EB DUP2 PUSH2 0x27FE JUMP JUMPDEST SWAP3 SWAP2 POP POP JUMP JUMPDEST PUSH1 0x0 DUP2 MLOAD SWAP1 POP PUSH2 0x1900 DUP2 PUSH2 0x27FE JUMP JUMPDEST SWAP3 SWAP2 POP POP JUMP JUMPDEST PUSH1 0x0 DUP3 PUSH1 0x1F DUP4 ADD SLT PUSH2 0x1917 JUMPI PUSH1 0x0 DUP1 REVERT JUMPDEST DUP2 CALLDATALOAD PUSH2 0x1927 DUP5 DUP3 PUSH1 0x20 DUP7 ADD PUSH2 0x1836 JUMP JUMPDEST SWAP2 POP POP SWAP3 SWAP2 POP POP JUMP JUMPDEST PUSH1 0x0 DUP3 PUSH1 0x1F DUP4 ADD SLT PUSH2 0x1941 JUMPI PUSH1 0x0 DUP1 REVERT JUMPDEST DUP2 CALLDATALOAD PUSH2 0x1951 DUP5 DUP3 PUSH1 0x20 DUP7 ADD PUSH2 0x1874 JUMP JUMPDEST SWAP2 POP POP SWAP3 SWAP2 POP POP JUMP JUMPDEST PUSH1 0x0 DUP2 CALLDATALOAD SWAP1 POP PUSH2 0x1969 DUP2 PUSH2 0x2815 JUMP JUMPDEST SWAP3 SWAP2 POP POP JUMP JUMPDEST PUSH1 0x0 PUSH1 0x20 DUP3 DUP5 SUB SLT ISZERO PUSH2 0x1981 JUMPI PUSH1 0x0 DUP1 REVERT JUMPDEST PUSH1 0x0 PUSH2 0x198F DUP5 DUP3 DUP6 ADD PUSH2 0x18B2 JUMP JUMPDEST SWAP2 POP POP SWAP3 SWAP2 POP POP JUMP JUMPDEST PUSH1 0x0 DUP1 PUSH1 0x40 DUP4 DUP6 SUB SLT ISZERO PUSH2 0x19AB JUMPI PUSH1 0x0 DUP1 REVERT JUMPDEST PUSH1 0x0 PUSH2 0x19B9 DUP6 DUP3 DUP7 ADD PUSH2 0x18B2 JUMP JUMPDEST SWAP3 POP POP PUSH1 0x20 PUSH2 0x19CA DUP6 DUP3 DUP7 ADD PUSH2 0x18B2 JUMP JUMPDEST SWAP2 POP POP SWAP3 POP SWAP3 SWAP1 POP JUMP JUMPDEST PUSH1 0x0 DUP1 PUSH1 0x0 PUSH1 0x60 DUP5 DUP7 SUB SLT ISZERO PUSH2 0x19E9 JUMPI PUSH1 0x0 DUP1 REVERT JUMPDEST PUSH1 0x0 PUSH2 0x19F7 DUP7 DUP3 DUP8 ADD PUSH2 0x18B2 JUMP JUMPDEST SWAP4 POP POP PUSH1 0x20 PUSH2 0x1A08 DUP7 DUP3 DUP8 ADD PUSH2 0x18B2 JUMP JUMPDEST SWAP3 POP POP PUSH1 0x40 PUSH2 0x1A19 DUP7 DUP3 DUP8 ADD PUSH2 0x195A JUMP JUMPDEST SWAP2 POP POP SWAP3 POP SWAP3 POP SWAP3 JUMP JUMPDEST PUSH1 0x0 DUP1 PUSH1 0x0 DUP1 PUSH1 0x80 DUP6 DUP8 SUB SLT ISZERO PUSH2 0x1A39 JUMPI PUSH1 0x0 DUP1 REVERT JUMPDEST PUSH1 0x0 PUSH2 0x1A47 DUP8 DUP3 DUP9 ADD PUSH2 0x18B2 JUMP JUMPDEST SWAP5 POP POP PUSH1 0x20 PUSH2 0x1A58 DUP8 DUP3 DUP9 ADD PUSH2 0x18B2 JUMP JUMPDEST SWAP4 POP POP PUSH1 0x40 PUSH2 0x1A69 DUP8 DUP3 DUP9 ADD PUSH2 0x195A JUMP JUMPDEST SWAP3 POP POP PUSH1 0x60 DUP6 ADD CALLDATALOAD PUSH8 0xFFFFFFFFFFFFFFFF DUP2 GT ISZERO PUSH2 0x1A86 JUMPI PUSH1 0x0 DUP1 REVERT JUMPDEST PUSH2 0x1A92 DUP8 DUP3 DUP9 ADD PUSH2 0x1906 JUMP JUMPDEST SWAP2 POP POP SWAP3 SWAP6 SWAP2 SWAP5 POP SWAP3 POP JUMP JUMPDEST PUSH1 0x0 DUP1 PUSH1 0x40 DUP4 DUP6 SUB SLT ISZERO PUSH2 0x1AB1 JUMPI PUSH1 0x0 DUP1 REVERT JUMPDEST PUSH1 0x0 PUSH2 0x1ABF DUP6 DUP3 DUP7 ADD PUSH2 0x18B2 JUMP JUMPDEST SWAP3 POP POP PUSH1 0x20 PUSH2 0x1AD0 DUP6 DUP3 DUP7 ADD PUSH2 0x18C7 JUMP JUMPDEST SWAP2 POP POP SWAP3 POP SWAP3 SWAP1 POP JUMP JUMPDEST PUSH1 0x0 DUP1 PUSH1 0x40 DUP4 DUP6 SUB SLT ISZERO PUSH2 0x1AED JUMPI PUSH1 0x0 DUP1 REVERT JUMPDEST PUSH1 0x0 PUSH2 0x1AFB DUP6 DUP3 DUP7 ADD PUSH2 0x18B2 JUMP JUMPDEST SWAP3 POP POP PUSH1 0x20 PUSH2 0x1B0C DUP6 DUP3 DUP7 ADD PUSH2 0x195A JUMP JUMPDEST SWAP2 POP POP SWAP3 POP SWAP3 SWAP1 POP JUMP JUMPDEST PUSH1 0x0 DUP1 PUSH1 0x0 PUSH1 0x60 DUP5 DUP7 SUB SLT ISZERO PUSH2 0x1B2B JUMPI PUSH1 0x0 DUP1 REVERT JUMPDEST PUSH1 0x0 PUSH2 0x1B39 DUP7 DUP3 DUP8 ADD PUSH2 0x18B2 JUMP JUMPDEST SWAP4 POP POP PUSH1 0x20 PUSH2 0x1B4A DUP7 DUP3 DUP8 ADD PUSH2 0x195A JUMP JUMPDEST SWAP3 POP POP PUSH1 0x40 DUP5 ADD CALLDATALOAD PUSH8 0xFFFFFFFFFFFFFFFF DUP2 GT ISZERO PUSH2 0x1B67 JUMPI PUSH1 0x0 DUP1 REVERT JUMPDEST PUSH2 0x1B73 DUP7 DUP3 DUP8 ADD PUSH2 0x1930 JUMP JUMPDEST SWAP2 POP POP SWAP3 POP SWAP3 POP SWAP3 JUMP JUMPDEST PUSH1 0x0 PUSH1 0x20 DUP3 DUP5 SUB SLT ISZERO PUSH2 0x1B8F JUMPI PUSH1 0x0 DUP1 REVERT JUMPDEST PUSH1 0x0 PUSH2 0x1B9D DUP5 DUP3 DUP6 ADD PUSH2 0x18DC JUMP JUMPDEST SWAP2 POP POP SWAP3 SWAP2 POP POP JUMP JUMPDEST PUSH1 0x0 PUSH1 0x20 DUP3 DUP5 SUB SLT ISZERO PUSH2 0x1BB8 JUMPI PUSH1 0x0 DUP1 REVERT JUMPDEST PUSH1 0x0 PUSH2 0x1BC6 DUP5 DUP3 DUP6 ADD PUSH2 0x18F1 JUMP JUMPDEST SWAP2 POP POP SWAP3 SWAP2 POP POP JUMP JUMPDEST PUSH1 0x0 PUSH1 0x20 DUP3 DUP5 SUB SLT ISZERO PUSH2 0x1BE1 JUMPI PUSH1 0x0 DUP1 REVERT JUMPDEST PUSH1 0x0 PUSH2 0x1BEF DUP5 DUP3 DUP6 ADD PUSH2 0x195A JUMP JUMPDEST SWAP2 POP POP SWAP3 SWAP2 POP POP JUMP JUMPDEST PUSH2 0x1C01 DUP2 PUSH2 0x2254 JUMP JUMPDEST DUP3 MSTORE POP POP JUMP JUMPDEST PUSH2 0x1C10 DUP2 PUSH2 0x2266 JUMP JUMPDEST DUP3 MSTORE POP POP JUMP JUMPDEST PUSH1 0x0 PUSH2 0x1C21 DUP3 PUSH2 0x2156 JUMP JUMPDEST PUSH2 0x1C2B DUP2 DUP6 PUSH2 0x216C JUMP JUMPDEST SWAP4 POP PUSH2 0x1C3B DUP2 DUP6 PUSH1 0x20 DUP7 ADD PUSH2 0x22D7 JUMP JUMPDEST PUSH2 0x1C44 DUP2 PUSH2 0x24A3 JUMP JUMPDEST DUP5 ADD SWAP2 POP POP SWAP3 SWAP2 POP POP JUMP JUMPDEST PUSH1 0x0 PUSH2 0x1C5A DUP3 PUSH2 0x2161 JUMP JUMPDEST PUSH2 0x1C64 DUP2 DUP6 PUSH2 0x217D JUMP JUMPDEST SWAP4 POP PUSH2 0x1C74 DUP2 DUP6 PUSH1 0x20 DUP7 ADD PUSH2 0x22D7 JUMP JUMPDEST PUSH2 0x1C7D DUP2 PUSH2 0x24A3 JUMP JUMPDEST DUP5 ADD SWAP2 POP POP SWAP3 SWAP2 POP POP JUMP JUMPDEST PUSH1 0x0 PUSH2 0x1C93 DUP3 PUSH2 0x2161 JUMP JUMPDEST PUSH2 0x1C9D DUP2 DUP6 PUSH2 0x218E JUMP JUMPDEST SWAP4 POP PUSH2 0x1CAD DUP2 DUP6 PUSH1 0x20 DUP7 ADD PUSH2 0x22D7 JUMP JUMPDEST DUP1 DUP5 ADD SWAP2 POP POP SWAP3 SWAP2 POP POP JUMP JUMPDEST PUSH1 0x0 PUSH2 0x1CC6 PUSH1 0x2D DUP4 PUSH2 0x217D JUMP JUMPDEST SWAP2 POP PUSH2 0x1CD1 DUP3 PUSH2 0x24B4 JUMP JUMPDEST PUSH1 0x40 DUP3 ADD SWAP1 POP SWAP2 SWAP1 POP JUMP JUMPDEST PUSH1 0x0 PUSH2 0x1CE9 PUSH1 0x32 DUP4 PUSH2 0x217D JUMP JUMPDEST SWAP2 POP PUSH2 0x1CF4 DUP3 PUSH2 0x2503 JUMP JUMPDEST PUSH1 0x40 DUP3 ADD SWAP1 POP SWAP2 SWAP1 POP JUMP JUMPDEST PUSH1 0x0 PUSH2 0x1D0C PUSH1 0x25 DUP4 PUSH2 0x217D JUMP JUMPDEST SWAP2 POP PUSH2 0x1D17 DUP3 PUSH2 0x2552 JUMP JUMPDEST PUSH1 0x40 DUP3 ADD SWAP1 POP SWAP2 SWAP1 POP JUMP JUMPDEST PUSH1 0x0 PUSH2 0x1D2F PUSH1 0x1C DUP4 PUSH2 0x217D JUMP JUMPDEST SWAP2 POP PUSH2 0x1D3A DUP3 PUSH2 0x25A1 JUMP JUMPDEST PUSH1 0x20 DUP3 ADD SWAP1 POP SWAP2 SWAP1 POP JUMP JUMPDEST PUSH1 0x0 PUSH2 0x1D52 PUSH1 0x24 DUP4 PUSH2 0x217D JUMP JUMPDEST SWAP2 POP PUSH2 0x1D5D DUP3 PUSH2 0x25CA JUMP JUMPDEST PUSH1 0x40 DUP3 ADD SWAP1 POP SWAP2 SWAP1 POP JUMP JUMPDEST PUSH1 0x0 PUSH2 0x1D75 PUSH1 0x19 DUP4 PUSH2 0x217D JUMP JUMPDEST SWAP2 POP PUSH2 0x1D80 DUP3 PUSH2 0x2619 JUMP JUMPDEST PUSH1 0x20 DUP3 ADD SWAP1 POP SWAP2 SWAP1 POP JUMP JUMPDEST PUSH1 0x0 PUSH2 0x1D98 PUSH1 0x29 DUP4 PUSH2 0x217D JUMP JUMPDEST SWAP2 POP PUSH2 0x1DA3 DUP3 PUSH2 0x2642 JUMP JUMPDEST PUSH1 0x40 DUP3 ADD SWAP1 POP SWAP2 SWAP1 POP JUMP JUMPDEST PUSH1 0x0 PUSH2 0x1DBB PUSH1 0x2E DUP4 PUSH2 0x217D JUMP JUMPDEST SWAP2 POP PUSH2 0x1DC6 DUP3 PUSH2 0x2691 JUMP JUMPDEST PUSH1 0x40 DUP3 ADD SWAP1 POP SWAP2 SWAP1 POP JUMP JUMPDEST PUSH1 0x0 PUSH2 0x1DDE PUSH1 0x20 DUP4 PUSH2 0x217D JUMP JUMPDEST SWAP2 POP PUSH2 0x1DE9 DUP3 PUSH2 0x26E0 JUMP JUMPDEST PUSH1 0x20 DUP3 ADD SWAP1 POP SWAP2 SWAP1 POP JUMP JUMPDEST PUSH1 0x0 PUSH2 0x1E01 PUSH1 0x18 DUP4 PUSH2 0x217D JUMP JUMPDEST SWAP2 POP PUSH2 0x1E0C DUP3 PUSH2 0x2709 JUMP JUMPDEST PUSH1 0x20 DUP3 ADD SWAP1 POP SWAP2 SWAP1 POP JUMP JUMPDEST PUSH1 0x0 PUSH2 0x1E24 PUSH1 0x21 DUP4 PUSH2 0x217D JUMP JUMPDEST SWAP2 POP PUSH2 0x1E2F DUP3 PUSH2 0x2732 JUMP JUMPDEST PUSH1 0x40 DUP3 ADD SWAP1 POP SWAP2 SWAP1 POP JUMP JUMPDEST PUSH1 0x0 PUSH2 0x1E47 PUSH1 0x3D DUP4 PUSH2 0x217D JUMP JUMPDEST SWAP2 POP PUSH2 0x1E52 DUP3 PUSH2 0x2781 JUMP JUMPDEST PUSH1 0x40 DUP3 ADD SWAP1 POP SWAP2 SWAP1 POP JUMP JUMPDEST PUSH2 0x1E66 DUP2 PUSH2 0x22BE JUMP JUMPDEST DUP3 MSTORE POP POP JUMP JUMPDEST PUSH1 0x0 PUSH2 0x1E78 DUP3 DUP6 PUSH2 0x1C88 JUMP JUMPDEST SWAP2 POP PUSH2 0x1E84 DUP3 DUP5 PUSH2 0x1C88 JUMP JUMPDEST SWAP2 POP DUP2 SWAP1 POP SWAP4 SWAP3 POP POP POP JUMP JUMPDEST PUSH1 0x0 PUSH1 0x20 DUP3 ADD SWAP1 POP PUSH2 0x1EA5 PUSH1 0x0 DUP4 ADD DUP5 PUSH2 0x1BF8 JUMP JUMPDEST SWAP3 SWAP2 POP POP JUMP JUMPDEST PUSH1 0x0 PUSH1 0x80 DUP3 ADD SWAP1 POP PUSH2 0x1EC0 PUSH1 0x0 DUP4 ADD DUP8 PUSH2 0x1BF8 JUMP JUMPDEST PUSH2 0x1ECD PUSH1 0x20 DUP4 ADD DUP7 PUSH2 0x1BF8 JUMP JUMPDEST PUSH2 0x1EDA PUSH1 0x40 DUP4 ADD DUP6 PUSH2 0x1E5D JUMP JUMPDEST DUP2 DUP2 SUB PUSH1 0x60 DUP4 ADD MSTORE PUSH2 0x1EEC DUP2 DUP5 PUSH2 0x1C16 JUMP JUMPDEST SWAP1 POP SWAP6 SWAP5 POP POP POP POP POP JUMP JUMPDEST PUSH1 0x0 PUSH1 0x20 DUP3 ADD SWAP1 POP PUSH2 0x1F0C PUSH1 0x0 DUP4 ADD DUP5 PUSH2 0x1C07 JUMP JUMPDEST SWAP3 SWAP2 POP POP JUMP JUMPDEST PUSH1 0x0 PUSH1 0x20 DUP3 ADD SWAP1 POP DUP2 DUP2 SUB PUSH1 0x0 DUP4 ADD MSTORE PUSH2 0x1F2C DUP2 DUP5 PUSH2 0x1C4F JUMP JUMPDEST SWAP1 POP SWAP3 SWAP2 POP POP JUMP JUMPDEST PUSH1 0x0 PUSH1 0x20 DUP3 ADD SWAP1 POP DUP2 DUP2 SUB PUSH1 0x0 DUP4 ADD MSTORE PUSH2 0x1F4D DUP2 PUSH2 0x1CB9 JUMP JUMPDEST SWAP1 POP SWAP2 SWAP1 POP JUMP JUMPDEST PUSH1 0x0 PUSH1 0x20 DUP3 ADD SWAP1 POP DUP2 DUP2 SUB PUSH1 0x0 DUP4 ADD MSTORE PUSH2 0x1F6D DUP2 PUSH2 0x1CDC JUMP JUMPDEST SWAP1 POP SWAP2 SWAP1 POP JUMP JUMPDEST PUSH1 0x0 PUSH1 0x20 DUP3 ADD SWAP1 POP DUP2 DUP2 SUB PUSH1 0x0 DUP4 ADD MSTORE PUSH2 0x1F8D DUP2 PUSH2 0x1CFF JUMP JUMPDEST SWAP1 POP SWAP2 SWAP1 POP JUMP JUMPDEST PUSH1 0x0 PUSH1 0x20 DUP3 ADD SWAP1 POP DUP2 DUP2 SUB PUSH1 0x0 DUP4 ADD MSTORE PUSH2 0x1FAD DUP2 PUSH2 0x1D22 JUMP JUMPDEST SWAP1 POP SWAP2 SWAP1 POP JUMP JUMPDEST PUSH1 0x0 PUSH1 0x20 DUP3 ADD SWAP1 POP DUP2 DUP2 SUB PUSH1 0x0 DUP4 ADD MSTORE PUSH2 0x1FCD DUP2 PUSH2 0x1D45 JUMP JUMPDEST SWAP1 POP SWAP2 SWAP1 POP JUMP JUMPDEST PUSH1 0x0 PUSH1 0x20 DUP3 ADD SWAP1 POP DUP2 DUP2 SUB PUSH1 0x0 DUP4 ADD MSTORE PUSH2 0x1FED DUP2 PUSH2 0x1D68 JUMP JUMPDEST SWAP1 POP SWAP2 SWAP1 POP JUMP JUMPDEST PUSH1 0x0 PUSH1 0x20 DUP3 ADD SWAP1 POP DUP2 DUP2 SUB PUSH1 0x0 DUP4 ADD MSTORE PUSH2 0x200D DUP2 PUSH2 0x1D8B JUMP JUMPDEST SWAP1 POP SWAP2 SWAP1 POP JUMP JUMPDEST PUSH1 0x0 PUSH1 0x20 DUP3 ADD SWAP1 POP DUP2 DUP2 SUB PUSH1 0x0 DUP4 ADD MSTORE PUSH2 0x202D DUP2 PUSH2 0x1DAE JUMP JUMPDEST SWAP1 POP SWAP2 SWAP1 POP JUMP JUMPDEST PUSH1 0x0 PUSH1 0x20 DUP3 ADD SWAP1 POP DUP2 DUP2 SUB PUSH1 0x0 DUP4 ADD MSTORE PUSH2 0x204D DUP2 PUSH2 0x1DD1 JUMP JUMPDEST SWAP1 POP SWAP2 SWAP1 POP JUMP JUMPDEST PUSH1 0x0 PUSH1 0x20 DUP3 ADD SWAP1 POP DUP2 DUP2 SUB PUSH1 0x0 DUP4 ADD MSTORE PUSH2 0x206D DUP2 PUSH2 0x1DF4 JUMP JUMPDEST SWAP1 POP SWAP2 SWAP1 POP JUMP JUMPDEST PUSH1 0x0 PUSH1 0x20 DUP3 ADD SWAP1 POP DUP2 DUP2 SUB PUSH1 0x0 DUP4 ADD MSTORE PUSH2 0x208D DUP2 PUSH2 0x1E17 JUMP JUMPDEST SWAP1 POP SWAP2 SWAP1 POP JUMP JUMPDEST PUSH1 0x0 PUSH1 0x20 DUP3 ADD SWAP1 POP DUP2 DUP2 SUB PUSH1 0x0 DUP4 ADD MSTORE PUSH2 0x20AD DUP2 PUSH2 0x1E3A JUMP JUMPDEST SWAP1 POP SWAP2 SWAP1 POP JUMP JUMPDEST PUSH1 0x0 PUSH1 0x20 DUP3 ADD SWAP1 POP PUSH2 0x20C9 PUSH1 0x0 DUP4 ADD DUP5 PUSH2 0x1E5D JUMP JUMPDEST SWAP3 SWAP2 POP POP JUMP JUMPDEST PUSH1 0x0 PUSH2 0x20D9 PUSH2 0x20EA JUMP JUMPDEST SWAP1 POP PUSH2 0x20E5 DUP3 DUP3 PUSH2 0x233C JUMP JUMPDEST SWAP2 SWAP1 POP JUMP JUMPDEST PUSH1 0x0 PUSH1 0x40 MLOAD SWAP1 POP SWAP1 JUMP JUMPDEST PUSH1 0x0 PUSH8 0xFFFFFFFFFFFFFFFF DUP3 GT ISZERO PUSH2 0x210F JUMPI PUSH2 0x210E PUSH2 0x2474 JUMP JUMPDEST JUMPDEST PUSH2 0x2118 DUP3 PUSH2 0x24A3 JUMP JUMPDEST SWAP1 POP PUSH1 0x20 DUP2 ADD SWAP1 POP SWAP2 SWAP1 POP JUMP JUMPDEST PUSH1 0x0 PUSH8 0xFFFFFFFFFFFFFFFF DUP3 GT ISZERO PUSH2 0x2140 JUMPI PUSH2 0x213F PUSH2 0x2474 JUMP JUMPDEST JUMPDEST PUSH2 0x2149 DUP3 PUSH2 0x24A3 JUMP JUMPDEST SWAP1 POP PUSH1 0x20 DUP2 ADD SWAP1 POP SWAP2 SWAP1 POP JUMP JUMPDEST PUSH1 0x0 DUP2 MLOAD SWAP1 POP SWAP2 SWAP1 POP JUMP JUMPDEST PUSH1 0x0 DUP2 MLOAD SWAP1 POP SWAP2 SWAP1 POP JUMP JUMPDEST PUSH1 0x0 DUP3 DUP3 MSTORE PUSH1 0x20 DUP3 ADD SWAP1 POP SWAP3 SWAP2 POP POP JUMP JUMPDEST PUSH1 0x0 DUP3 DUP3 MSTORE PUSH1 0x20 DUP3 ADD SWAP1 POP SWAP3 SWAP2 POP POP JUMP JUMPDEST PUSH1 0x0 DUP2 SWAP1 POP SWAP3 SWAP2 POP POP JUMP JUMPDEST PUSH1 0x0 PUSH2 0x21A4 DUP3 PUSH2 0x22BE JUMP JUMPDEST SWAP2 POP PUSH2 0x21AF DUP4 PUSH2 0x22BE JUMP JUMPDEST SWAP3 POP DUP3 PUSH32 0xFFFFFFFFFFFFFFFFFFFFFFFFFFFFFFFFFFFFFFFFFFFFFFFFFFFFFFFFFFFFFFFF SUB DUP3 GT ISZERO PUSH2 0x21E4 JUMPI PUSH2 0x21E3 PUSH2 0x23E7 JUMP JUMPDEST JUMPDEST DUP3 DUP3 ADD SWAP1 POP SWAP3 SWAP2 POP POP JUMP JUMPDEST PUSH1 0x0 PUSH2 0x21FA DUP3 PUSH2 0x22BE JUMP JUMPDEST SWAP2 POP PUSH2 0x2205 DUP4 PUSH2 0x22BE JUMP JUMPDEST SWAP3 POP DUP3 PUSH2 0x2215 JUMPI PUSH2 0x2214 PUSH2 0x2416 JUMP JUMPDEST JUMPDEST DUP3 DUP3 DIV SWAP1 POP SWAP3 SWAP2 POP POP JUMP JUMPDEST PUSH1 0x0 PUSH2 0x222B DUP3 PUSH2 0x22BE JUMP JUMPDEST SWAP2 POP PUSH2 0x2236 DUP4 PUSH2 0x22BE JUMP JUMPDEST SWAP3 POP DUP3 DUP3 LT ISZERO PUSH2 0x2249 JUMPI PUSH2 0x2248 PUSH2 0x23E7 JUMP JUMPDEST JUMPDEST DUP3 DUP3 SUB SWAP1 POP SWAP3 SWAP2 POP POP JUMP JUMPDEST PUSH1 0x0 PUSH2 0x225F DUP3 PUSH2 0x229E JUMP JUMPDEST SWAP1 POP SWAP2 SWAP1 POP JUMP JUMPDEST PUSH1 0x0 DUP2 ISZERO ISZERO SWAP1 POP SWAP2 SWAP1 POP JUMP JUMPDEST PUSH1 0x0 PUSH32 0xFFFFFFFF00000000000000000000000000000000000000000000000000000000 DUP3 AND SWAP1 POP SWAP2 SWAP1 POP JUMP JUMPDEST PUSH1 0x0 PUSH20 0xFFFFFFFFFFFFFFFFFFFFFFFFFFFFFFFFFFFFFFFF DUP3 AND SWAP1 POP SWAP2 SWAP1 POP JUMP JUMPDEST PUSH1 0x0 DUP2 SWAP1 POP SWAP2 SWAP1 POP JUMP JUMPDEST DUP3 DUP2 DUP4 CALLDATACOPY PUSH1 0x0 DUP4 DUP4 ADD MSTORE POP POP POP JUMP JUMPDEST PUSH1 0x0 JUMPDEST DUP4 DUP2 LT ISZERO PUSH2 0x22F5 JUMPI DUP1 DUP3 ADD MLOAD DUP2 DUP5 ADD MSTORE PUSH1 0x20 DUP2 ADD SWAP1 POP PUSH2 0x22DA JUMP JUMPDEST DUP4 DUP2 GT ISZERO PUSH2 0x2304 JUMPI PUSH1 0x0 DUP5 DUP5 ADD MSTORE JUMPDEST POP POP POP POP JUMP JUMPDEST PUSH1 0x0 PUSH1 0x2 DUP3 DIV SWAP1 POP PUSH1 0x1 DUP3 AND DUP1 PUSH2 0x2322 JUMPI PUSH1 0x7F DUP3 AND SWAP2 POP JUMPDEST PUSH1 0x20 DUP3 LT DUP2 EQ ISZERO PUSH2 0x2336 JUMPI PUSH2 0x2335 PUSH2 0x2445 JUMP JUMPDEST JUMPDEST POP SWAP2 SWAP1 POP JUMP JUMPDEST PUSH2 0x2345 DUP3 PUSH2 0x24A3 JUMP JUMPDEST DUP2 ADD DUP2 DUP2 LT PUSH8 0xFFFFFFFFFFFFFFFF DUP3 GT OR ISZERO PUSH2 0x2364 JUMPI PUSH2 0x2363 PUSH2 0x2474 JUMP JUMPDEST JUMPDEST DUP1 PUSH1 0x40 MSTORE POP POP POP JUMP JUMPDEST PUSH1 0x0 PUSH2 0x2378 DUP3 PUSH2 0x22BE JUMP JUMPDEST SWAP2 POP PUSH32 0xFFFFFFFFFFFFFFFFFFFFFFFFFFFFFFFFFFFFFFFFFFFFFFFFFFFFFFFFFFFFFFFF DUP3 EQ ISZERO PUSH2 0x23AB JUMPI PUSH2 0x23AA PUSH2 0x23E7 JUMP JUMPDEST JUMPDEST PUSH1 0x1 DUP3 ADD SWAP1 POP SWAP2 SWAP1 POP JUMP JUMPDEST PUSH1 0x0 PUSH2 0x23C1 DUP3 PUSH2 0x22BE JUMP JUMPDEST SWAP2 POP PUSH2 0x23CC DUP4 PUSH2 0x22BE JUMP JUMPDEST SWAP3 POP DUP3 PUSH2 0x23DC JUMPI PUSH2 0x23DB PUSH2 0x2416 JUMP JUMPDEST JUMPDEST DUP3 DUP3 MOD SWAP1 POP SWAP3 SWAP2 POP POP JUMP JUMPDEST PUSH32 0x4E487B7100000000000000000000000000000000000000000000000000000000 PUSH1 0x0 MSTORE PUSH1 0x11 PUSH1 0x4 MSTORE PUSH1 0x24 PUSH1 0x0 REVERT JUMPDEST PUSH32 0x4E487B7100000000000000000000000000000000000000000000000000000000 PUSH1 0x0 MSTORE PUSH1 0x12 PUSH1 0x4 MSTORE PUSH1 0x24 PUSH1 0x0 REVERT JUMPDEST PUSH32 0x4E487B7100000000000000000000000000000000000000000000000000000000 PUSH1 0x0 MSTORE PUSH1 0x22 PUSH1 0x4 MSTORE PUSH1 0x24 PUSH1 0x0 REVERT JUMPDEST PUSH32 0x4E487B7100000000000000000000000000000000000000000000000000000000 PUSH1 0x0 MSTORE PUSH1 0x41 PUSH1 0x4 MSTORE PUSH1 0x24 PUSH1 0x0 REVERT JUMPDEST PUSH1 0x0 PUSH1 0x1F NOT PUSH1 0x1F DUP4 ADD AND SWAP1 POP SWAP2 SWAP1 POP JUMP JUMPDEST PUSH32 0x4552433732313A2063616C6C6572206973206E6F7420746F6B656E206F776E65 PUSH1 0x0 DUP3 ADD MSTORE PUSH32 0x72206F7220617070726F76656400000000000000000000000000000000000000 PUSH1 0x20 DUP3 ADD MSTORE POP JUMP JUMPDEST PUSH32 0x4552433732313A207472616E7366657220746F206E6F6E204552433732315265 PUSH1 0x0 DUP3 ADD MSTORE PUSH32 0x63656976657220696D706C656D656E7465720000000000000000000000000000 PUSH1 0x20 DUP3 ADD MSTORE POP JUMP JUMPDEST PUSH32 0x4552433732313A207472616E736665722066726F6D20696E636F727265637420 PUSH1 0x0 DUP3 ADD MSTORE PUSH32 0x6F776E6572000000000000000000000000000000000000000000000000000000 PUSH1 0x20 DUP3 ADD MSTORE POP JUMP JUMPDEST PUSH32 0x4552433732313A20746F6B656E20616C7265616479206D696E74656400000000 PUSH1 0x0 DUP3 ADD MSTORE POP JUMP JUMPDEST PUSH32 0x4552433732313A207472616E7366657220746F20746865207A65726F20616464 PUSH1 0x0 DUP3 ADD MSTORE PUSH32 0x7265737300000000000000000000000000000000000000000000000000000000 PUSH1 0x20 DUP3 ADD MSTORE POP JUMP JUMPDEST PUSH32 0x4552433732313A20617070726F766520746F2063616C6C657200000000000000 PUSH1 0x0 DUP3 ADD MSTORE POP JUMP JUMPDEST PUSH32 0x4552433732313A2061646472657373207A65726F206973206E6F742061207661 PUSH1 0x0 DUP3 ADD MSTORE PUSH32 0x6C6964206F776E65720000000000000000000000000000000000000000000000 PUSH1 0x20 DUP3 ADD MSTORE POP JUMP JUMPDEST PUSH32 0x45524337323155524953746F726167653A2055524920736574206F66206E6F6E PUSH1 0x0 DUP3 ADD MSTORE PUSH32 0x6578697374656E7420746F6B656E000000000000000000000000000000000000 PUSH1 0x20 DUP3 ADD MSTORE POP JUMP JUMPDEST PUSH32 0x4552433732313A206D696E7420746F20746865207A65726F2061646472657373 PUSH1 0x0 DUP3 ADD MSTORE POP JUMP JUMPDEST PUSH32 0x4552433732313A20696E76616C696420746F6B656E2049440000000000000000 PUSH1 0x0 DUP3 ADD MSTORE POP JUMP JUMPDEST PUSH32 0x4552433732313A20617070726F76616C20746F2063757272656E74206F776E65 PUSH1 0x0 DUP3 ADD MSTORE PUSH32 0x7200000000000000000000000000000000000000000000000000000000000000 PUSH1 0x20 DUP3 ADD MSTORE POP JUMP JUMPDEST PUSH32 0x4552433732313A20617070726F76652063616C6C6572206973206E6F7420746F PUSH1 0x0 DUP3 ADD MSTORE PUSH32 0x6B656E206F776E6572206F7220617070726F76656420666F7220616C6C000000 PUSH1 0x20 DUP3 ADD MSTORE POP JUMP JUMPDEST PUSH2 0x27D9 DUP2 PUSH2 0x2254 JUMP JUMPDEST DUP2 EQ PUSH2 0x27E4 JUMPI PUSH1 0x0 DUP1 REVERT JUMPDEST POP JUMP JUMPDEST PUSH2 0x27F0 DUP2 PUSH2 0x2266 JUMP JUMPDEST DUP2 EQ PUSH2 0x27FB JUMPI PUSH1 0x0 DUP1 REVERT JUMPDEST POP JUMP JUMPDEST PUSH2 0x2807 DUP2 PUSH2 0x2272 JUMP JUMPDEST DUP2 EQ PUSH2 0x2812 JUMPI PUSH1 0x0 DUP1 REVERT JUMPDEST POP JUMP JUMPDEST PUSH2 0x281E DUP2 PUSH2 0x22BE JUMP JUMPDEST DUP2 EQ PUSH2 0x2829 JUMPI PUSH1 0x0 DUP1 REVERT JUMPDEST POP JUMP INVALID LOG2 PUSH5 0x6970667358 0x22 SLT KECCAK256 0xA8 PUSH13 0x3F26742ECFE84DBCAF9F57F87A 0xEA 0xE6 SWAP3 SWAP9 0x2B 0xB4 LOG4 PUSH20 0xFA6B60043AC629DCFA64736F6C63430008040033 "
				},
				"gasEstimates": {
					"creation": {
						"codeDepositCost": "2067600",
						"executionCost": "infinite",
						"totalCost": "infinite"
					},
					"external": {
						"approve(address,uint256)": "infinite",
						"balanceOf(address)": "1602",
						"getApproved(uint256)": "2657",
						"isApprovedForAll(address,address)": "infinite",
						"name()": "infinite",
						"ownerOf(uint256)": "1748",
						"safeMint(address,uint256,string)": "infinite",
						"safeTransferFrom(address,address,uint256)": "infinite",
						"safeTransferFrom(address,address,uint256,bytes)": "infinite",
						"setApprovalForAll(address,bool)": "infinite",
						"supportsInterface(bytes4)": "797",
						"symbol()": "infinite",
						"tokenURI(uint256)": "2102",
						"transferFrom(address,address,uint256)": "infinite"
					},
					"internal": {
						"_afterTokenTransfer(address,address,uint256)": "15",
						"_approve(address,uint256)": "infinite",
						"_baseURI()": "infinite",
						"_beforeTokenTransfer(address,address,uint256)": "15",
						"_burn(uint256)": "infinite",
						"_checkOnERC721Received(address,address,uint256,bytes memory)": "infinite",
						"_exists(uint256)": "969",
						"_isApprovedOrOwner(address,uint256)": "infinite",
						"_mint(address,uint256)": "infinite",
						"_requireMinted(uint256)": "infinite",
						"_safeMint(address,uint256)": "infinite",
						"_safeMint(address,uint256,bytes memory)": "infinite",
						"_safeTransfer(address,address,uint256,bytes memory)": "infinite",
						"_setApprovalForAll(address,address,bool)": "infinite",
						"_setTokenURI(uint256,string memory)": "infinite",
						"_transfer(address,address,uint256)": "infinite"
					}
				},
				"methodIdentifiers": {
					"approve(address,uint256)": "095ea7b3",
					"balanceOf(address)": "70a08231",
					"getApproved(uint256)": "081812fc",
					"isApprovedForAll(address,address)": "e985e9c5",
					"name()": "06fdde03",
					"ownerOf(uint256)": "6352211e",
					"safeMint(address,uint256,string)": "cd279c7c",
					"safeTransferFrom(address,address,uint256)": "42842e0e",
					"safeTransferFrom(address,address,uint256,bytes)": "b88d4fde",
					"setApprovalForAll(address,bool)": "a22cb465",
					"supportsInterface(bytes4)": "01ffc9a7",
					"symbol()": "95d89b41",
					"tokenURI(uint256)": "c87b56dd",
					"transferFrom(address,address,uint256)": "23b872dd"
				}
			},
			"storageLayout": {
				"storage": [
					{
						"astId": 741,
						"contract": "contracts/erc721.sol:ERC721",
						"label": "_name",
						"offset": 0,
						"slot": "0",
						"type": "t_string_storage"
					},
					{
						"astId": 743,
						"contract": "contracts/erc721.sol:ERC721",
						"label": "_symbol",
						"offset": 0,
						"slot": "1",
						"type": "t_string_storage"
					},
					{
						"astId": 747,
						"contract": "contracts/erc721.sol:ERC721",
						"label": "_owners",
						"offset": 0,
						"slot": "2",
						"type": "t_mapping(t_uint256,t_address)"
					},
					{
						"astId": 751,
						"contract": "contracts/erc721.sol:ERC721",
						"label": "_collaborators",
						"offset": 0,
						"slot": "3",
						"type": "t_mapping(t_uint256,t_address)"
					},
					{
						"astId": 755,
						"contract": "contracts/erc721.sol:ERC721",
						"label": "_balances",
						"offset": 0,
						"slot": "4",
						"type": "t_mapping(t_address,t_uint256)"
					},
					{
						"astId": 759,
						"contract": "contracts/erc721.sol:ERC721",
						"label": "_tokenApprovals",
						"offset": 0,
						"slot": "5",
						"type": "t_mapping(t_uint256,t_address)"
					},
					{
						"astId": 765,
						"contract": "contracts/erc721.sol:ERC721",
						"label": "_operatorApprovals",
						"offset": 0,
						"slot": "6",
						"type": "t_mapping(t_address,t_mapping(t_address,t_bool))"
					},
					{
						"astId": 769,
						"contract": "contracts/erc721.sol:ERC721",
						"label": "_tokenURIs",
						"offset": 0,
						"slot": "7",
						"type": "t_mapping(t_uint256,t_string_storage)"
					}
				],
				"types": {
					"t_address": {
						"encoding": "inplace",
						"label": "address",
						"numberOfBytes": "20"
					},
					"t_bool": {
						"encoding": "inplace",
						"label": "bool",
						"numberOfBytes": "1"
					},
					"t_mapping(t_address,t_bool)": {
						"encoding": "mapping",
						"key": "t_address",
						"label": "mapping(address => bool)",
						"numberOfBytes": "32",
						"value": "t_bool"
					},
					"t_mapping(t_address,t_mapping(t_address,t_bool))": {
						"encoding": "mapping",
						"key": "t_address",
						"label": "mapping(address => mapping(address => bool))",
						"numberOfBytes": "32",
						"value": "t_mapping(t_address,t_bool)"
					},
					"t_mapping(t_address,t_uint256)": {
						"encoding": "mapping",
						"key": "t_address",
						"label": "mapping(address => uint256)",
						"numberOfBytes": "32",
						"value": "t_uint256"
					},
					"t_mapping(t_uint256,t_address)": {
						"encoding": "mapping",
						"key": "t_uint256",
						"label": "mapping(uint256 => address)",
						"numberOfBytes": "32",
						"value": "t_address"
					},
					"t_mapping(t_uint256,t_string_storage)": {
						"encoding": "mapping",
						"key": "t_uint256",
						"label": "mapping(uint256 => string)",
						"numberOfBytes": "32",
						"value": "t_string_storage"
					},
					"t_string_storage": {
						"encoding": "bytes",
						"label": "string",
						"numberOfBytes": "32"
					},
					"t_uint256": {
						"encoding": "inplace",
						"label": "uint256",
						"numberOfBytes": "32"
					}
				}
			},
			"userdoc": {
				"kind": "user",
				"methods": {},
				"version": 1
			}
		}
	}
}