{
	"contracts/erc721.sol": {
		"ERC721": {
			"abi": [
				{
					"inputs": [
						{
							"internalType": "string",
							"name": "name_",
							"type": "string"
						},
						{
							"internalType": "string",
							"name": "symbol_",
							"type": "string"
						}
					],
					"stateMutability": "nonpayable",
					"type": "constructor"
				},
				{
					"anonymous": false,
					"inputs": [
						{
							"indexed": true,
							"internalType": "address",
							"name": "owner",
							"type": "address"
						},
						{
							"indexed": true,
							"internalType": "address",
							"name": "approved",
							"type": "address"
						},
						{
							"indexed": true,
							"internalType": "uint256",
							"name": "tokenId",
							"type": "uint256"
						}
					],
					"name": "Approval",
					"type": "event"
				},
				{
					"anonymous": false,
					"inputs": [
						{
							"indexed": true,
							"internalType": "address",
							"name": "owner",
							"type": "address"
						},
						{
							"indexed": true,
							"internalType": "address",
							"name": "operator",
							"type": "address"
						},
						{
							"indexed": false,
							"internalType": "bool",
							"name": "approved",
							"type": "bool"
						}
					],
					"name": "ApprovalForAll",
					"type": "event"
				},
				{
					"anonymous": false,
					"inputs": [
						{
							"indexed": true,
							"internalType": "address",
							"name": "from",
							"type": "address"
						},
						{
							"indexed": true,
							"internalType": "address",
							"name": "to",
							"type": "address"
						},
						{
							"indexed": true,
							"internalType": "uint256",
							"name": "tokenId",
							"type": "uint256"
						}
					],
					"name": "Transfer",
					"type": "event"
				},
				{
					"inputs": [
						{
							"internalType": "uint256",
							"name": "tokenId",
							"type": "uint256"
						}
					],
					"name": "_tokenURI",
					"outputs": [
						{
							"internalType": "string",
							"name": "",
							"type": "string"
						}
					],
					"stateMutability": "view",
					"type": "function"
				},
				{
					"inputs": [
						{
							"internalType": "address",
							"name": "to",
							"type": "address"
						},
						{
							"internalType": "uint256",
							"name": "tokenId",
							"type": "uint256"
						}
					],
					"name": "approve",
					"outputs": [],
					"stateMutability": "nonpayable",
					"type": "function"
				},
				{
					"inputs": [
						{
							"internalType": "address",
							"name": "owner",
							"type": "address"
						}
					],
					"name": "balanceOf",
					"outputs": [
						{
							"internalType": "uint256",
							"name": "",
							"type": "uint256"
						}
					],
					"stateMutability": "view",
					"type": "function"
				},
				{
					"inputs": [
						{
							"internalType": "uint256",
							"name": "tokenId",
							"type": "uint256"
						}
					],
					"name": "getApproved",
					"outputs": [
						{
							"internalType": "address",
							"name": "",
							"type": "address"
						}
					],
					"stateMutability": "view",
					"type": "function"
				},
				{
					"inputs": [
						{
							"internalType": "address",
							"name": "owner",
							"type": "address"
						},
						{
							"internalType": "address",
							"name": "operator",
							"type": "address"
						}
					],
					"name": "isApprovedForAll",
					"outputs": [
						{
							"internalType": "bool",
							"name": "",
							"type": "bool"
						}
					],
					"stateMutability": "view",
					"type": "function"
				},
				{
					"inputs": [],
					"name": "name",
					"outputs": [
						{
							"internalType": "string",
							"name": "",
							"type": "string"
						}
					],
					"stateMutability": "view",
					"type": "function"
				},
				{
					"inputs": [
						{
							"internalType": "uint256",
							"name": "tokenId",
							"type": "uint256"
						}
					],
					"name": "ownerOf",
					"outputs": [
						{
							"internalType": "address",
							"name": "",
							"type": "address"
						}
					],
					"stateMutability": "view",
					"type": "function"
				},
				{
					"inputs": [
						{
							"internalType": "address",
							"name": "to",
							"type": "address"
						},
						{
							"internalType": "uint256",
							"name": "tokenId",
							"type": "uint256"
						},
						{
							"internalType": "string",
							"name": "uri",
							"type": "string"
						}
					],
					"name": "safeMint",
					"outputs": [],
					"stateMutability": "nonpayable",
					"type": "function"
				},
				{
					"inputs": [
						{
							"internalType": "address",
							"name": "from",
							"type": "address"
						},
						{
							"internalType": "address",
							"name": "to",
							"type": "address"
						},
						{
							"internalType": "uint256",
							"name": "tokenId",
							"type": "uint256"
						}
					],
					"name": "safeTransferFrom",
					"outputs": [],
					"stateMutability": "nonpayable",
					"type": "function"
				},
				{
					"inputs": [
						{
							"internalType": "address",
							"name": "from",
							"type": "address"
						},
						{
							"internalType": "address",
							"name": "to",
							"type": "address"
						},
						{
							"internalType": "uint256",
							"name": "tokenId",
							"type": "uint256"
						},
						{
							"internalType": "bytes",
							"name": "data",
							"type": "bytes"
						}
					],
					"name": "safeTransferFrom",
					"outputs": [],
					"stateMutability": "nonpayable",
					"type": "function"
				},
				{
					"inputs": [
						{
							"internalType": "address",
							"name": "operator",
							"type": "address"
						},
						{
							"internalType": "bool",
							"name": "approved",
							"type": "bool"
						}
					],
					"name": "setApprovalForAll",
					"outputs": [],
					"stateMutability": "nonpayable",
					"type": "function"
				},
				{
					"inputs": [
						{
							"internalType": "bytes4",
							"name": "interfaceId",
							"type": "bytes4"
						}
					],
					"name": "supportsInterface",
					"outputs": [
						{
							"internalType": "bool",
							"name": "",
							"type": "bool"
						}
					],
					"stateMutability": "view",
					"type": "function"
				},
				{
					"inputs": [],
					"name": "symbol",
					"outputs": [
						{
							"internalType": "string",
							"name": "",
							"type": "string"
						}
					],
					"stateMutability": "view",
					"type": "function"
				},
				{
					"inputs": [
						{
							"internalType": "uint256",
							"name": "tokenId",
							"type": "uint256"
						}
					],
					"name": "tokenURI",
					"outputs": [
						{
							"internalType": "string",
							"name": "",
							"type": "string"
						}
					],
					"stateMutability": "view",
					"type": "function"
				},
				{
					"inputs": [
						{
							"internalType": "address",
							"name": "from",
							"type": "address"
						},
						{
							"internalType": "address",
							"name": "to",
							"type": "address"
						},
						{
							"internalType": "uint256",
							"name": "tokenId",
							"type": "uint256"
						}
					],
					"name": "transferFrom",
					"outputs": [],
					"stateMutability": "nonpayable",
					"type": "function"
				}
			],
			"devdoc": {
				"kind": "dev",
				"methods": {
					"approve(address,uint256)": {
						"details": "Gives permission to `to` to transfer `tokenId` token to another account. The approval is cleared when the token is transferred. Only a single account can be approved at a time, so approving the zero address clears previous approvals. Requirements: - The caller must own the token or be an approved operator. - `tokenId` must exist. Emits an {Approval} event."
					},
					"balanceOf(address)": {
						"details": "Returns the number of tokens in ``owner``'s account."
					},
					"getApproved(uint256)": {
						"details": "Returns the account approved for `tokenId` token. Requirements: - `tokenId` must exist."
					},
					"isApprovedForAll(address,address)": {
						"details": "Returns if the `operator` is allowed to manage all of the assets of `owner`. See {setApprovalForAll}"
					},
					"name()": {
						"details": "Returns the token collection name."
					},
					"ownerOf(uint256)": {
						"details": "Returns the owner of the `tokenId` token. Requirements: - `tokenId` must exist."
					},
					"safeTransferFrom(address,address,uint256)": {
						"details": "Safely transfers `tokenId` token from `from` to `to`, checking first that contract recipients are aware of the ERC721 protocol to prevent tokens from being forever locked. Requirements: - `from` cannot be the zero address. - `to` cannot be the zero address. - `tokenId` token must exist and be owned by `from`. - If the caller is not `from`, it must be have been allowed to move this token by either {approve} or {setApprovalForAll}. - If `to` refers to a smart contract, it must implement {IERC721Receiver-onERC721Received}, which is called upon a safe transfer. Emits a {Transfer} event."
					},
					"safeTransferFrom(address,address,uint256,bytes)": {
						"details": "Safely transfers `tokenId` token from `from` to `to`. Requirements: - `from` cannot be the zero address. - `to` cannot be the zero address. - `tokenId` token must exist and be owned by `from`. - If the caller is not `from`, it must be approved to move this token by either {approve} or {setApprovalForAll}. - If `to` refers to a smart contract, it must implement {IERC721Receiver-onERC721Received}, which is called upon a safe transfer. Emits a {Transfer} event."
					},
					"symbol()": {
						"details": "Returns the token collection symbol."
					},
					"tokenURI(uint256)": {
						"details": "Returns the Uniform Resource Identifier (URI) for `tokenId` token."
					},
					"transferFrom(address,address,uint256)": {
						"details": "Transfers `tokenId` token from `from` to `to`. WARNING: Usage of this method is discouraged, use {safeTransferFrom} whenever possible. Requirements: - `from` cannot be the zero address. - `to` cannot be the zero address. - `tokenId` token must be owned by `from`. - If the caller is not `from`, it must be approved to move this token by either {approve} or {setApprovalForAll}. Emits a {Transfer} event."
					}
				},
				"version": 1
			},
			"evm": {
				"assembly": "    /* \"contracts/erc721.sol\":617:10162  contract ERC721 is Context, ERC165, IERC721, IERC721Metadata {\r... */\n  mstore(0x40, 0x80)\n    /* \"contracts/erc721.sol\":1113:1229  constructor(string memory name_, string memory symbol_) {\r... */\n  callvalue\n  dup1\n  iszero\n  tag_1\n  jumpi\n  0x00\n  dup1\n  revert\ntag_1:\n  pop\n  mload(0x40)\n  sub(codesize, bytecodeSize)\n  dup1\n  bytecodeSize\n  dup4\n  codecopy\n  dup2\n  dup2\n  add\n  0x40\n  mstore\n  dup2\n  add\n  swap1\n  tag_2\n  swap2\n  swap1\n  tag_3\n  jump\t// in\ntag_2:\n    /* \"contracts/erc721.sol\":1188:1193  name_ */\n  dup2\n    /* \"contracts/erc721.sol\":1180:1185  _name */\n  0x00\n    /* \"contracts/erc721.sol\":1180:1193  _name = name_ */\n  swap1\n  dup1\n  mload\n  swap1\n  0x20\n  add\n  swap1\n  tag_6\n  swap3\n  swap2\n  swap1\n  tag_7\n  jump\t// in\ntag_6:\n  pop\n    /* \"contracts/erc721.sol\":1214:1221  symbol_ */\n  dup1\n    /* \"contracts/erc721.sol\":1204:1211  _symbol */\n  0x01\n    /* \"contracts/erc721.sol\":1204:1221  _symbol = symbol_ */\n  swap1\n  dup1\n  mload\n  swap1\n  0x20\n  add\n  swap1\n  tag_8\n  swap3\n  swap2\n  swap1\n  tag_7\n  jump\t// in\ntag_8:\n  pop\n    /* \"contracts/erc721.sol\":1113:1229  constructor(string memory name_, string memory symbol_) {\r... */\n  pop\n  pop\n    /* \"contracts/erc721.sol\":617:10162  contract ERC721 is Context, ERC165, IERC721, IERC721Metadata {\r... */\n  jump(tag_9)\ntag_7:\n  dup3\n  dup1\n  sload\n  tag_10\n  swap1\n  tag_11\n  jump\t// in\ntag_10:\n  swap1\n  0x00\n  mstore\n  keccak256(0x00, 0x20)\n  swap1\n  0x1f\n  add\n  0x20\n  swap1\n  div\n  dup2\n  add\n  swap3\n  dup3\n  tag_13\n  jumpi\n  0x00\n  dup6\n  sstore\n  jump(tag_12)\ntag_13:\n  dup3\n  0x1f\n  lt\n  tag_14\n  jumpi\n  dup1\n  mload\n  not(0xff)\n  and\n  dup4\n  dup1\n  add\n  or\n  dup6\n  sstore\n  jump(tag_12)\ntag_14:\n  dup3\n  dup1\n  add\n  0x01\n  add\n  dup6\n  sstore\n  dup3\n  iszero\n  tag_12\n  jumpi\n  swap2\n  dup3\n  add\ntag_15:\n  dup3\n  dup2\n  gt\n  iszero\n  tag_16\n  jumpi\n  dup3\n  mload\n  dup3\n  sstore\n  swap2\n  0x20\n  add\n  swap2\n  swap1\n  0x01\n  add\n  swap1\n  jump(tag_15)\ntag_16:\ntag_12:\n  pop\n  swap1\n  pop\n  tag_17\n  swap2\n  swap1\n  tag_18\n  jump\t// in\ntag_17:\n  pop\n  swap1\n  jump\t// out\ntag_18:\ntag_19:\n  dup1\n  dup3\n  gt\n  iszero\n  tag_20\n  jumpi\n  0x00\n  dup2\n  0x00\n  swap1\n  sstore\n  pop\n  0x01\n  add\n  jump(tag_19)\ntag_20:\n  pop\n  swap1\n  jump\t// out\n    /* \"#utility.yul\":7:361   */\ntag_22:\n    /* \"#utility.yul\":96:101   */\n  0x00\n    /* \"#utility.yul\":121:187   */\n  tag_24\n    /* \"#utility.yul\":137:186   */\n  tag_25\n    /* \"#utility.yul\":179:185   */\n  dup5\n    /* \"#utility.yul\":137:186   */\n  tag_26\n  jump\t// in\ntag_25:\n    /* \"#utility.yul\":121:187   */\n  tag_27\n  jump\t// in\ntag_24:\n    /* \"#utility.yul\":112:187   */\n  swap1\n  pop\n    /* \"#utility.yul\":210:216   */\n  dup3\n    /* \"#utility.yul\":203:208   */\n  dup2\n    /* \"#utility.yul\":196:217   */\n  mstore\n    /* \"#utility.yul\":248:252   */\n  0x20\n    /* \"#utility.yul\":241:246   */\n  dup2\n    /* \"#utility.yul\":237:253   */\n  add\n    /* \"#utility.yul\":286:289   */\n  dup5\n    /* \"#utility.yul\":277:283   */\n  dup5\n    /* \"#utility.yul\":272:275   */\n  dup5\n    /* \"#utility.yul\":268:284   */\n  add\n    /* \"#utility.yul\":265:290   */\n  gt\n    /* \"#utility.yul\":262:264   */\n  iszero\n  tag_28\n  jumpi\n    /* \"#utility.yul\":303:304   */\n  0x00\n    /* \"#utility.yul\":300:301   */\n  dup1\n    /* \"#utility.yul\":293:305   */\n  revert\n    /* \"#utility.yul\":262:264   */\ntag_28:\n    /* \"#utility.yul\":316:355   */\n  tag_29\n    /* \"#utility.yul\":348:354   */\n  dup5\n    /* \"#utility.yul\":343:346   */\n  dup3\n    /* \"#utility.yul\":338:341   */\n  dup6\n    /* \"#utility.yul\":316:355   */\n  tag_30\n  jump\t// in\ntag_29:\n    /* \"#utility.yul\":102:361   */\n  pop\n  swap4\n  swap3\n  pop\n  pop\n  pop\n  jump\t// out\n    /* \"#utility.yul\":381:669   */\ntag_31:\n    /* \"#utility.yul\":448:453   */\n  0x00\n    /* \"#utility.yul\":497:500   */\n  dup3\n    /* \"#utility.yul\":490:494   */\n  0x1f\n    /* \"#utility.yul\":482:488   */\n  dup4\n    /* \"#utility.yul\":478:495   */\n  add\n    /* \"#utility.yul\":474:501   */\n  slt\n    /* \"#utility.yul\":464:466   */\n  tag_33\n  jumpi\n    /* \"#utility.yul\":515:516   */\n  0x00\n    /* \"#utility.yul\":512:513   */\n  dup1\n    /* \"#utility.yul\":505:517   */\n  revert\n    /* \"#utility.yul\":464:466   */\ntag_33:\n    /* \"#utility.yul\":548:554   */\n  dup2\n    /* \"#utility.yul\":542:555   */\n  mload\n    /* \"#utility.yul\":573:663   */\n  tag_34\n    /* \"#utility.yul\":659:662   */\n  dup5\n    /* \"#utility.yul\":651:657   */\n  dup3\n    /* \"#utility.yul\":644:648   */\n  0x20\n    /* \"#utility.yul\":636:642   */\n  dup7\n    /* \"#utility.yul\":632:649   */\n  add\n    /* \"#utility.yul\":573:663   */\n  tag_22\n  jump\t// in\ntag_34:\n    /* \"#utility.yul\":564:663   */\n  swap2\n  pop\n    /* \"#utility.yul\":454:669   */\n  pop\n  swap3\n  swap2\n  pop\n  pop\n  jump\t// out\n    /* \"#utility.yul\":675:1327   */\ntag_3:\n    /* \"#utility.yul\":774:780   */\n  0x00\n    /* \"#utility.yul\":782:788   */\n  dup1\n    /* \"#utility.yul\":831:833   */\n  0x40\n    /* \"#utility.yul\":819:828   */\n  dup4\n    /* \"#utility.yul\":810:817   */\n  dup6\n    /* \"#utility.yul\":806:829   */\n  sub\n    /* \"#utility.yul\":802:834   */\n  slt\n    /* \"#utility.yul\":799:801   */\n  iszero\n  tag_36\n  jumpi\n    /* \"#utility.yul\":847:848   */\n  0x00\n    /* \"#utility.yul\":844:845   */\n  dup1\n    /* \"#utility.yul\":837:849   */\n  revert\n    /* \"#utility.yul\":799:801   */\ntag_36:\n    /* \"#utility.yul\":911:912   */\n  0x00\n    /* \"#utility.yul\":900:909   */\n  dup4\n    /* \"#utility.yul\":896:913   */\n  add\n    /* \"#utility.yul\":890:914   */\n  mload\n    /* \"#utility.yul\":941:959   */\n  0xffffffffffffffff\n    /* \"#utility.yul\":933:939   */\n  dup2\n    /* \"#utility.yul\":930:960   */\n  gt\n    /* \"#utility.yul\":927:929   */\n  iszero\n  tag_37\n  jumpi\n    /* \"#utility.yul\":973:974   */\n  0x00\n    /* \"#utility.yul\":970:971   */\n  dup1\n    /* \"#utility.yul\":963:975   */\n  revert\n    /* \"#utility.yul\":927:929   */\ntag_37:\n    /* \"#utility.yul\":1001:1075   */\n  tag_38\n    /* \"#utility.yul\":1067:1074   */\n  dup6\n    /* \"#utility.yul\":1058:1064   */\n  dup3\n    /* \"#utility.yul\":1047:1056   */\n  dup7\n    /* \"#utility.yul\":1043:1065   */\n  add\n    /* \"#utility.yul\":1001:1075   */\n  tag_31\n  jump\t// in\ntag_38:\n    /* \"#utility.yul\":991:1075   */\n  swap3\n  pop\n    /* \"#utility.yul\":861:1085   */\n  pop\n    /* \"#utility.yul\":1145:1147   */\n  0x20\n    /* \"#utility.yul\":1134:1143   */\n  dup4\n    /* \"#utility.yul\":1130:1148   */\n  add\n    /* \"#utility.yul\":1124:1149   */\n  mload\n    /* \"#utility.yul\":1176:1194   */\n  0xffffffffffffffff\n    /* \"#utility.yul\":1168:1174   */\n  dup2\n    /* \"#utility.yul\":1165:1195   */\n  gt\n    /* \"#utility.yul\":1162:1164   */\n  iszero\n  tag_39\n  jumpi\n    /* \"#utility.yul\":1208:1209   */\n  0x00\n    /* \"#utility.yul\":1205:1206   */\n  dup1\n    /* \"#utility.yul\":1198:1210   */\n  revert\n    /* \"#utility.yul\":1162:1164   */\ntag_39:\n    /* \"#utility.yul\":1236:1310   */\n  tag_40\n    /* \"#utility.yul\":1302:1309   */\n  dup6\n    /* \"#utility.yul\":1293:1299   */\n  dup3\n    /* \"#utility.yul\":1282:1291   */\n  dup7\n    /* \"#utility.yul\":1278:1300   */\n  add\n    /* \"#utility.yul\":1236:1310   */\n  tag_31\n  jump\t// in\ntag_40:\n    /* \"#utility.yul\":1226:1310   */\n  swap2\n  pop\n    /* \"#utility.yul\":1095:1320   */\n  pop\n    /* \"#utility.yul\":789:1327   */\n  swap3\n  pop\n  swap3\n  swap1\n  pop\n  jump\t// out\n    /* \"#utility.yul\":1333:1462   */\ntag_27:\n    /* \"#utility.yul\":1367:1373   */\n  0x00\n    /* \"#utility.yul\":1394:1414   */\n  tag_42\n  tag_43\n  jump\t// in\ntag_42:\n    /* \"#utility.yul\":1384:1414   */\n  swap1\n  pop\n    /* \"#utility.yul\":1423:1456   */\n  tag_44\n    /* \"#utility.yul\":1451:1455   */\n  dup3\n    /* \"#utility.yul\":1443:1449   */\n  dup3\n    /* \"#utility.yul\":1423:1456   */\n  tag_45\n  jump\t// in\ntag_44:\n    /* \"#utility.yul\":1374:1462   */\n  swap2\n  swap1\n  pop\n  jump\t// out\n    /* \"#utility.yul\":1468:1543   */\ntag_43:\n    /* \"#utility.yul\":1501:1507   */\n  0x00\n    /* \"#utility.yul\":1534:1536   */\n  0x40\n    /* \"#utility.yul\":1528:1537   */\n  mload\n    /* \"#utility.yul\":1518:1537   */\n  swap1\n  pop\n    /* \"#utility.yul\":1508:1543   */\n  swap1\n  jump\t// out\n    /* \"#utility.yul\":1549:1857   */\ntag_26:\n    /* \"#utility.yul\":1611:1615   */\n  0x00\n    /* \"#utility.yul\":1701:1719   */\n  0xffffffffffffffff\n    /* \"#utility.yul\":1693:1699   */\n  dup3\n    /* \"#utility.yul\":1690:1720   */\n  gt\n    /* \"#utility.yul\":1687:1689   */\n  iszero\n  tag_48\n  jumpi\n    /* \"#utility.yul\":1723:1741   */\n  tag_49\n  tag_50\n  jump\t// in\ntag_49:\n    /* \"#utility.yul\":1687:1689   */\ntag_48:\n    /* \"#utility.yul\":1761:1790   */\n  tag_51\n    /* \"#utility.yul\":1783:1789   */\n  dup3\n    /* \"#utility.yul\":1761:1790   */\n  tag_52\n  jump\t// in\ntag_51:\n    /* \"#utility.yul\":1753:1790   */\n  swap1\n  pop\n    /* \"#utility.yul\":1845:1849   */\n  0x20\n    /* \"#utility.yul\":1839:1843   */\n  dup2\n    /* \"#utility.yul\":1835:1850   */\n  add\n    /* \"#utility.yul\":1827:1850   */\n  swap1\n  pop\n    /* \"#utility.yul\":1616:1857   */\n  swap2\n  swap1\n  pop\n  jump\t// out\n    /* \"#utility.yul\":1863:2170   */\ntag_30:\n    /* \"#utility.yul\":1931:1932   */\n  0x00\n    /* \"#utility.yul\":1941:2054   */\ntag_54:\n    /* \"#utility.yul\":1955:1961   */\n  dup4\n    /* \"#utility.yul\":1952:1953   */\n  dup2\n    /* \"#utility.yul\":1949:1962   */\n  lt\n    /* \"#utility.yul\":1941:2054   */\n  iszero\n  tag_56\n  jumpi\n    /* \"#utility.yul\":2040:2041   */\n  dup1\n    /* \"#utility.yul\":2035:2038   */\n  dup3\n    /* \"#utility.yul\":2031:2042   */\n  add\n    /* \"#utility.yul\":2025:2043   */\n  mload\n    /* \"#utility.yul\":2021:2022   */\n  dup2\n    /* \"#utility.yul\":2016:2019   */\n  dup5\n    /* \"#utility.yul\":2012:2023   */\n  add\n    /* \"#utility.yul\":2005:2044   */\n  mstore\n    /* \"#utility.yul\":1977:1979   */\n  0x20\n    /* \"#utility.yul\":1974:1975   */\n  dup2\n    /* \"#utility.yul\":1970:1980   */\n  add\n    /* \"#utility.yul\":1965:1980   */\n  swap1\n  pop\n    /* \"#utility.yul\":1941:2054   */\n  jump(tag_54)\ntag_56:\n    /* \"#utility.yul\":2072:2078   */\n  dup4\n    /* \"#utility.yul\":2069:2070   */\n  dup2\n    /* \"#utility.yul\":2066:2079   */\n  gt\n    /* \"#utility.yul\":2063:2065   */\n  iszero\n  tag_57\n  jumpi\n    /* \"#utility.yul\":2152:2153   */\n  0x00\n    /* \"#utility.yul\":2143:2149   */\n  dup5\n    /* \"#utility.yul\":2138:2141   */\n  dup5\n    /* \"#utility.yul\":2134:2150   */\n  add\n    /* \"#utility.yul\":2127:2154   */\n  mstore\n    /* \"#utility.yul\":2063:2065   */\ntag_57:\n    /* \"#utility.yul\":1912:2170   */\n  pop\n  pop\n  pop\n  pop\n  jump\t// out\n    /* \"#utility.yul\":2176:2496   */\ntag_11:\n    /* \"#utility.yul\":2220:2226   */\n  0x00\n    /* \"#utility.yul\":2257:2258   */\n  0x02\n    /* \"#utility.yul\":2251:2255   */\n  dup3\n    /* \"#utility.yul\":2247:2259   */\n  div\n    /* \"#utility.yul\":2237:2259   */\n  swap1\n  pop\n    /* \"#utility.yul\":2304:2305   */\n  0x01\n    /* \"#utility.yul\":2298:2302   */\n  dup3\n    /* \"#utility.yul\":2294:2306   */\n  and\n    /* \"#utility.yul\":2325:2343   */\n  dup1\n    /* \"#utility.yul\":2315:2317   */\n  tag_59\n  jumpi\n    /* \"#utility.yul\":2381:2385   */\n  0x7f\n    /* \"#utility.yul\":2373:2379   */\n  dup3\n    /* \"#utility.yul\":2369:2386   */\n  and\n    /* \"#utility.yul\":2359:2386   */\n  swap2\n  pop\n    /* \"#utility.yul\":2315:2317   */\ntag_59:\n    /* \"#utility.yul\":2443:2445   */\n  0x20\n    /* \"#utility.yul\":2435:2441   */\n  dup3\n    /* \"#utility.yul\":2432:2446   */\n  lt\n    /* \"#utility.yul\":2412:2430   */\n  dup2\n    /* \"#utility.yul\":2409:2447   */\n  eq\n    /* \"#utility.yul\":2406:2408   */\n  iszero\n  tag_60\n  jumpi\n    /* \"#utility.yul\":2462:2480   */\n  tag_61\n  tag_62\n  jump\t// in\ntag_61:\n    /* \"#utility.yul\":2406:2408   */\ntag_60:\n    /* \"#utility.yul\":2227:2496   */\n  pop\n  swap2\n  swap1\n  pop\n  jump\t// out\n    /* \"#utility.yul\":2502:2783   */\ntag_45:\n    /* \"#utility.yul\":2585:2612   */\n  tag_64\n    /* \"#utility.yul\":2607:2611   */\n  dup3\n    /* \"#utility.yul\":2585:2612   */\n  tag_52\n  jump\t// in\ntag_64:\n    /* \"#utility.yul\":2577:2583   */\n  dup2\n    /* \"#utility.yul\":2573:2613   */\n  add\n    /* \"#utility.yul\":2715:2721   */\n  dup2\n    /* \"#utility.yul\":2703:2713   */\n  dup2\n    /* \"#utility.yul\":2700:2722   */\n  lt\n    /* \"#utility.yul\":2679:2697   */\n  0xffffffffffffffff\n    /* \"#utility.yul\":2667:2677   */\n  dup3\n    /* \"#utility.yul\":2664:2698   */\n  gt\n    /* \"#utility.yul\":2661:2723   */\n  or\n    /* \"#utility.yul\":2658:2660   */\n  iszero\n  tag_65\n  jumpi\n    /* \"#utility.yul\":2726:2744   */\n  tag_66\n  tag_50\n  jump\t// in\ntag_66:\n    /* \"#utility.yul\":2658:2660   */\ntag_65:\n    /* \"#utility.yul\":2766:2776   */\n  dup1\n    /* \"#utility.yul\":2762:2764   */\n  0x40\n    /* \"#utility.yul\":2755:2777   */\n  mstore\n    /* \"#utility.yul\":2545:2783   */\n  pop\n  pop\n  pop\n  jump\t// out\n    /* \"#utility.yul\":2789:2969   */\ntag_62:\n    /* \"#utility.yul\":2837:2914   */\n  0x4e487b7100000000000000000000000000000000000000000000000000000000\n    /* \"#utility.yul\":2834:2835   */\n  0x00\n    /* \"#utility.yul\":2827:2915   */\n  mstore\n    /* \"#utility.yul\":2934:2938   */\n  0x22\n    /* \"#utility.yul\":2931:2932   */\n  0x04\n    /* \"#utility.yul\":2924:2939   */\n  mstore\n    /* \"#utility.yul\":2958:2962   */\n  0x24\n    /* \"#utility.yul\":2955:2956   */\n  0x00\n    /* \"#utility.yul\":2948:2963   */\n  revert\n    /* \"#utility.yul\":2975:3155   */\ntag_50:\n    /* \"#utility.yul\":3023:3100   */\n  0x4e487b7100000000000000000000000000000000000000000000000000000000\n    /* \"#utility.yul\":3020:3021   */\n  0x00\n    /* \"#utility.yul\":3013:3101   */\n  mstore\n    /* \"#utility.yul\":3120:3124   */\n  0x41\n    /* \"#utility.yul\":3117:3118   */\n  0x04\n    /* \"#utility.yul\":3110:3125   */\n  mstore\n    /* \"#utility.yul\":3144:3148   */\n  0x24\n    /* \"#utility.yul\":3141:3142   */\n  0x00\n    /* \"#utility.yul\":3134:3149   */\n  revert\n    /* \"#utility.yul\":3161:3263   */\ntag_52:\n    /* \"#utility.yul\":3202:3208   */\n  0x00\n    /* \"#utility.yul\":3253:3255   */\n  0x1f\n    /* \"#utility.yul\":3249:3256   */\n  not\n    /* \"#utility.yul\":3244:3246   */\n  0x1f\n    /* \"#utility.yul\":3237:3242   */\n  dup4\n    /* \"#utility.yul\":3233:3247   */\n  add\n    /* \"#utility.yul\":3229:3257   */\n  and\n    /* \"#utility.yul\":3219:3257   */\n  swap1\n  pop\n    /* \"#utility.yul\":3209:3263   */\n  swap2\n  swap1\n  pop\n  jump\t// out\n    /* \"contracts/erc721.sol\":617:10162  contract ERC721 is Context, ERC165, IERC721, IERC721Metadata {\r... */\ntag_9:\n  dataSize(sub_0)\n  dup1\n  dataOffset(sub_0)\n  0x00\n  codecopy\n  0x00\n  return\nstop\n\nsub_0: assembly {\n        /* \"contracts/erc721.sol\":617:10162  contract ERC721 is Context, ERC165, IERC721, IERC721Metadata {\r... */\n      mstore(0x40, 0x80)\n      callvalue\n      dup1\n      iszero\n      tag_1\n      jumpi\n      0x00\n      dup1\n      revert\n    tag_1:\n      pop\n      jumpi(tag_2, lt(calldatasize, 0x04))\n      shr(0xe0, calldataload(0x00))\n      dup1\n      0x70a08231\n      gt\n      tag_18\n      jumpi\n      dup1\n      0xb88d4fde\n      gt\n      tag_19\n      jumpi\n      dup1\n      0xb88d4fde\n      eq\n      tag_14\n      jumpi\n      dup1\n      0xc87b56dd\n      eq\n      tag_15\n      jumpi\n      dup1\n      0xcd279c7c\n      eq\n      tag_16\n      jumpi\n      dup1\n      0xe985e9c5\n      eq\n      tag_17\n      jumpi\n      jump(tag_2)\n    tag_19:\n      dup1\n      0x70a08231\n      eq\n      tag_10\n      jumpi\n      dup1\n      0x8d17e712\n      eq\n      tag_11\n      jumpi\n      dup1\n      0x95d89b41\n      eq\n      tag_12\n      jumpi\n      dup1\n      0xa22cb465\n      eq\n      tag_13\n      jumpi\n      jump(tag_2)\n    tag_18:\n      dup1\n      0x095ea7b3\n      gt\n      tag_20\n      jumpi\n      dup1\n      0x095ea7b3\n      eq\n      tag_6\n      jumpi\n      dup1\n      0x23b872dd\n      eq\n      tag_7\n      jumpi\n      dup1\n      0x42842e0e\n      eq\n      tag_8\n      jumpi\n      dup1\n      0x6352211e\n      eq\n      tag_9\n      jumpi\n      jump(tag_2)\n    tag_20:\n      dup1\n      0x01ffc9a7\n      eq\n      tag_3\n      jumpi\n      dup1\n      0x06fdde03\n      eq\n      tag_4\n      jumpi\n      dup1\n      0x081812fc\n      eq\n      tag_5\n      jumpi\n    tag_2:\n      0x00\n      dup1\n      revert\n        /* \"contracts/erc721.sol\":1239:1544  function supportsInterface(bytes4 interfaceId) public view virtual override(ERC165, IERC165) returns (bool) {\r... */\n    tag_3:\n      tag_21\n      0x04\n      dup1\n      calldatasize\n      sub\n      dup2\n      add\n      swap1\n      tag_22\n      swap2\n      swap1\n      tag_23\n      jump\t// in\n    tag_22:\n      tag_24\n      jump\t// in\n    tag_21:\n      mload(0x40)\n      tag_25\n      swap2\n      swap1\n      tag_26\n      jump\t// in\n    tag_25:\n      mload(0x40)\n      dup1\n      swap2\n      sub\n      swap1\n      return\n        /* \"contracts/erc721.sol\":2003:2103  function name() public view virtual override returns (string memory) {\r... */\n    tag_4:\n      tag_27\n      tag_28\n      jump\t// in\n    tag_27:\n      mload(0x40)\n      tag_29\n      swap2\n      swap1\n      tag_30\n      jump\t// in\n    tag_29:\n      mload(0x40)\n      dup1\n      swap2\n      sub\n      swap1\n      return\n        /* \"contracts/erc721.sol\":3685:3856  function getApproved(uint256 tokenId) public view virtual override returns (address) {\r... */\n    tag_5:\n      tag_31\n      0x04\n      dup1\n      calldatasize\n      sub\n      dup2\n      add\n      swap1\n      tag_32\n      swap2\n      swap1\n      tag_33\n      jump\t// in\n    tag_32:\n      tag_34\n      jump\t// in\n    tag_31:\n      mload(0x40)\n      tag_35\n      swap2\n      swap1\n      tag_36\n      jump\t// in\n    tag_35:\n      mload(0x40)\n      dup1\n      swap2\n      sub\n      swap1\n      return\n        /* \"contracts/erc721.sol\":3258:3674  function approve(address to, uint256 tokenId) public virtual override {\r... */\n    tag_6:\n      tag_37\n      0x04\n      dup1\n      calldatasize\n      sub\n      dup2\n      add\n      swap1\n      tag_38\n      swap2\n      swap1\n      tag_39\n      jump\t// in\n    tag_38:\n      tag_40\n      jump\t// in\n    tag_37:\n      stop\n        /* \"contracts/erc721.sol\":4207:4489  function transferFrom(\r... */\n    tag_7:\n      tag_41\n      0x04\n      dup1\n      calldatasize\n      sub\n      dup2\n      add\n      swap1\n      tag_42\n      swap2\n      swap1\n      tag_43\n      jump\t// in\n    tag_42:\n      tag_44\n      jump\t// in\n    tag_41:\n      stop\n        /* \"contracts/erc721.sol\":4499:4684  function safeTransferFrom(\r... */\n    tag_8:\n      tag_45\n      0x04\n      dup1\n      calldatasize\n      sub\n      dup2\n      add\n      swap1\n      tag_46\n      swap2\n      swap1\n      tag_43\n      jump\t// in\n    tag_46:\n      tag_47\n      jump\t// in\n    tag_45:\n      stop\n        /* \"contracts/erc721.sol\":1771:1993  function ownerOf(uint256 tokenId) public view virtual override returns (address) {\r... */\n    tag_9:\n      tag_48\n      0x04\n      dup1\n      calldatasize\n      sub\n      dup2\n      add\n      swap1\n      tag_49\n      swap2\n      swap1\n      tag_33\n      jump\t// in\n    tag_49:\n      tag_50\n      jump\t// in\n    tag_48:\n      mload(0x40)\n      tag_51\n      swap2\n      swap1\n      tag_36\n      jump\t// in\n    tag_51:\n      mload(0x40)\n      dup1\n      swap2\n      sub\n      swap1\n      return\n        /* \"contracts/erc721.sol\":1554:1761  function balanceOf(address owner) public view virtual override returns (uint256) {\r... */\n    tag_10:\n      tag_52\n      0x04\n      dup1\n      calldatasize\n      sub\n      dup2\n      add\n      swap1\n      tag_53\n      swap2\n      swap1\n      tag_54\n      jump\t// in\n    tag_53:\n      tag_55\n      jump\t// in\n    tag_52:\n      mload(0x40)\n      tag_56\n      swap2\n      swap1\n      tag_57\n      jump\t// in\n    tag_56:\n      mload(0x40)\n      dup1\n      swap2\n      sub\n      swap1\n      return\n        /* \"contracts/erc721.sol\":2884:3146  function _tokenURI(uint256 tokenId) public view virtual returns (string memory) {\r... */\n    tag_11:\n      tag_58\n      0x04\n      dup1\n      calldatasize\n      sub\n      dup2\n      add\n      swap1\n      tag_59\n      swap2\n      swap1\n      tag_33\n      jump\t// in\n    tag_59:\n      tag_60\n      jump\t// in\n    tag_58:\n      mload(0x40)\n      tag_61\n      swap2\n      swap1\n      tag_30\n      jump\t// in\n    tag_61:\n      mload(0x40)\n      dup1\n      swap2\n      sub\n      swap1\n      return\n        /* \"contracts/erc721.sol\":2114:2218  function symbol() public view virtual override returns (string memory) {\r... */\n    tag_12:\n      tag_62\n      tag_63\n      jump\t// in\n    tag_62:\n      mload(0x40)\n      tag_64\n      swap2\n      swap1\n      tag_30\n      jump\t// in\n    tag_64:\n      mload(0x40)\n      dup1\n      swap2\n      sub\n      swap1\n      return\n        /* \"contracts/erc721.sol\":3868:4023  function setApprovalForAll(address operator, bool approved) public virtual override {\r... */\n    tag_13:\n      tag_65\n      0x04\n      dup1\n      calldatasize\n      sub\n      dup2\n      add\n      swap1\n      tag_66\n      swap2\n      swap1\n      tag_67\n      jump\t// in\n    tag_66:\n      tag_68\n      jump\t// in\n    tag_65:\n      stop\n        /* \"contracts/erc721.sol\":4694:5016  function safeTransferFrom(\r... */\n    tag_14:\n      tag_69\n      0x04\n      dup1\n      calldatasize\n      sub\n      dup2\n      add\n      swap1\n      tag_70\n      swap2\n      swap1\n      tag_71\n      jump\t// in\n    tag_70:\n      tag_72\n      jump\t// in\n    tag_69:\n      stop\n        /* \"contracts/erc721.sol\":2226:2874  function tokenURI(uint256 tokenId) public view virtual override returns (string memory) {\r... */\n    tag_15:\n      tag_73\n      0x04\n      dup1\n      calldatasize\n      sub\n      dup2\n      add\n      swap1\n      tag_74\n      swap2\n      swap1\n      tag_33\n      jump\t// in\n    tag_74:\n      tag_75\n      jump\t// in\n    tag_73:\n      mload(0x40)\n      tag_76\n      swap2\n      swap1\n      tag_30\n      jump\t// in\n    tag_76:\n      mload(0x40)\n      dup1\n      swap2\n      sub\n      swap1\n      return\n        /* \"contracts/erc721.sol\":5025:5161  function safeMint(address to,uint tokenId,string memory uri) public{\r... */\n    tag_16:\n      tag_77\n      0x04\n      dup1\n      calldatasize\n      sub\n      dup2\n      add\n      swap1\n      tag_78\n      swap2\n      swap1\n      tag_79\n      jump\t// in\n    tag_78:\n      tag_80\n      jump\t// in\n    tag_77:\n      stop\n        /* \"contracts/erc721.sol\":4033:4197  function isApprovedForAll(address owner, address operator) public view virtual override returns (bool) {\r... */\n    tag_17:\n      tag_81\n      0x04\n      dup1\n      calldatasize\n      sub\n      dup2\n      add\n      swap1\n      tag_82\n      swap2\n      swap1\n      tag_83\n      jump\t// in\n    tag_82:\n      tag_84\n      jump\t// in\n    tag_81:\n      mload(0x40)\n      tag_85\n      swap2\n      swap1\n      tag_26\n      jump\t// in\n    tag_85:\n      mload(0x40)\n      dup1\n      swap2\n      sub\n      swap1\n      return\n        /* \"contracts/erc721.sol\":1239:1544  function supportsInterface(bytes4 interfaceId) public view virtual override(ERC165, IERC165) returns (bool) {\r... */\n    tag_24:\n        /* \"contracts/erc721.sol\":1341:1345  bool */\n      0x00\n        /* \"contracts/erc721.sol\":1393:1418  type(IERC721).interfaceId */\n      0x80ac58cd00000000000000000000000000000000000000000000000000000000\n        /* \"contracts/erc721.sol\":1378:1418  interfaceId == type(IERC721).interfaceId */\n      not(0xffffffffffffffffffffffffffffffffffffffffffffffffffffffff)\n      and\n        /* \"contracts/erc721.sol\":1378:1389  interfaceId */\n      dup3\n        /* \"contracts/erc721.sol\":1378:1418  interfaceId == type(IERC721).interfaceId */\n      not(0xffffffffffffffffffffffffffffffffffffffffffffffffffffffff)\n      and\n      eq\n        /* \"contracts/erc721.sol\":1378:1483  interfaceId == type(IERC721).interfaceId ||\r... */\n      dup1\n      tag_87\n      jumpi\n      pop\n        /* \"contracts/erc721.sol\":1450:1483  type(IERC721Metadata).interfaceId */\n      0x5b5e139f00000000000000000000000000000000000000000000000000000000\n        /* \"contracts/erc721.sol\":1435:1483  interfaceId == type(IERC721Metadata).interfaceId */\n      not(0xffffffffffffffffffffffffffffffffffffffffffffffffffffffff)\n      and\n        /* \"contracts/erc721.sol\":1435:1446  interfaceId */\n      dup3\n        /* \"contracts/erc721.sol\":1435:1483  interfaceId == type(IERC721Metadata).interfaceId */\n      not(0xffffffffffffffffffffffffffffffffffffffffffffffffffffffff)\n      and\n      eq\n        /* \"contracts/erc721.sol\":1378:1483  interfaceId == type(IERC721).interfaceId ||\r... */\n    tag_87:\n        /* \"contracts/erc721.sol\":1378:1536  interfaceId == type(IERC721).interfaceId ||\r... */\n      dup1\n      tag_88\n      jumpi\n      pop\n        /* \"contracts/erc721.sol\":1500:1536  super.supportsInterface(interfaceId) */\n      tag_89\n        /* \"contracts/erc721.sol\":1524:1535  interfaceId */\n      dup3\n        /* \"contracts/erc721.sol\":1500:1523  super.supportsInterface */\n      tag_90\n        /* \"contracts/erc721.sol\":1500:1536  super.supportsInterface(interfaceId) */\n      jump\t// in\n    tag_89:\n        /* \"contracts/erc721.sol\":1378:1536  interfaceId == type(IERC721).interfaceId ||\r... */\n    tag_88:\n        /* \"contracts/erc721.sol\":1358:1536  return\r... */\n      swap1\n      pop\n        /* \"contracts/erc721.sol\":1239:1544  function supportsInterface(bytes4 interfaceId) public view virtual override(ERC165, IERC165) returns (bool) {\r... */\n      swap2\n      swap1\n      pop\n      jump\t// out\n        /* \"contracts/erc721.sol\":2003:2103  function name() public view virtual override returns (string memory) {\r... */\n    tag_28:\n        /* \"contracts/erc721.sol\":2057:2070  string memory */\n      0x60\n        /* \"contracts/erc721.sol\":2090:2095  _name */\n      0x00\n        /* \"contracts/erc721.sol\":2083:2095  return _name */\n      dup1\n      sload\n      tag_92\n      swap1\n      tag_93\n      jump\t// in\n    tag_92:\n      dup1\n      0x1f\n      add\n      0x20\n      dup1\n      swap2\n      div\n      mul\n      0x20\n      add\n      mload(0x40)\n      swap1\n      dup2\n      add\n      0x40\n      mstore\n      dup1\n      swap3\n      swap2\n      swap1\n      dup2\n      dup2\n      mstore\n      0x20\n      add\n      dup3\n      dup1\n      sload\n      tag_94\n      swap1\n      tag_93\n      jump\t// in\n    tag_94:\n      dup1\n      iszero\n      tag_95\n      jumpi\n      dup1\n      0x1f\n      lt\n      tag_96\n      jumpi\n      0x0100\n      dup1\n      dup4\n      sload\n      div\n      mul\n      dup4\n      mstore\n      swap2\n      0x20\n      add\n      swap2\n      jump(tag_95)\n    tag_96:\n      dup3\n      add\n      swap2\n      swap1\n      0x00\n      mstore\n      keccak256(0x00, 0x20)\n      swap1\n    tag_97:\n      dup2\n      sload\n      dup2\n      mstore\n      swap1\n      0x01\n      add\n      swap1\n      0x20\n      add\n      dup1\n      dup4\n      gt\n      tag_97\n      jumpi\n      dup3\n      swap1\n      sub\n      0x1f\n      and\n      dup3\n      add\n      swap2\n    tag_95:\n      pop\n      pop\n      pop\n      pop\n      pop\n      swap1\n      pop\n        /* \"contracts/erc721.sol\":2003:2103  function name() public view virtual override returns (string memory) {\r... */\n      swap1\n      jump\t// out\n        /* \"contracts/erc721.sol\":3685:3856  function getApproved(uint256 tokenId) public view virtual override returns (address) {\r... */\n    tag_34:\n        /* \"contracts/erc721.sol\":3761:3768  address */\n      0x00\n        /* \"contracts/erc721.sol\":3781:3804  _requireMinted(tokenId) */\n      tag_99\n        /* \"contracts/erc721.sol\":3796:3803  tokenId */\n      dup3\n        /* \"contracts/erc721.sol\":3781:3795  _requireMinted */\n      tag_100\n        /* \"contracts/erc721.sol\":3781:3804  _requireMinted(tokenId) */\n      jump\t// in\n    tag_99:\n        /* \"contracts/erc721.sol\":3824:3839  _tokenApprovals */\n      0x04\n        /* \"contracts/erc721.sol\":3824:3848  _tokenApprovals[tokenId] */\n      0x00\n        /* \"contracts/erc721.sol\":3840:3847  tokenId */\n      dup4\n        /* \"contracts/erc721.sol\":3824:3848  _tokenApprovals[tokenId] */\n      dup2\n      mstore\n      0x20\n      add\n      swap1\n      dup2\n      mstore\n      0x20\n      add\n      0x00\n      keccak256\n      0x00\n      swap1\n      sload\n      swap1\n      0x0100\n      exp\n      swap1\n      div\n      0xffffffffffffffffffffffffffffffffffffffff\n      and\n        /* \"contracts/erc721.sol\":3817:3848  return _tokenApprovals[tokenId] */\n      swap1\n      pop\n        /* \"contracts/erc721.sol\":3685:3856  function getApproved(uint256 tokenId) public view virtual override returns (address) {\r... */\n      swap2\n      swap1\n      pop\n      jump\t// out\n        /* \"contracts/erc721.sol\":3258:3674  function approve(address to, uint256 tokenId) public virtual override {\r... */\n    tag_40:\n        /* \"contracts/erc721.sol\":3339:3352  address owner */\n      0x00\n        /* \"contracts/erc721.sol\":3355:3378  ERC721.ownerOf(tokenId) */\n      tag_102\n        /* \"contracts/erc721.sol\":3370:3377  tokenId */\n      dup3\n        /* \"contracts/erc721.sol\":3355:3369  ERC721.ownerOf */\n      tag_50\n        /* \"contracts/erc721.sol\":3355:3378  ERC721.ownerOf(tokenId) */\n      jump\t// in\n    tag_102:\n        /* \"contracts/erc721.sol\":3339:3378  address owner = ERC721.ownerOf(tokenId) */\n      swap1\n      pop\n        /* \"contracts/erc721.sol\":3403:3408  owner */\n      dup1\n        /* \"contracts/erc721.sol\":3397:3408  to != owner */\n      0xffffffffffffffffffffffffffffffffffffffff\n      and\n        /* \"contracts/erc721.sol\":3397:3399  to */\n      dup4\n        /* \"contracts/erc721.sol\":3397:3408  to != owner */\n      0xffffffffffffffffffffffffffffffffffffffff\n      and\n      eq\n      iszero\n        /* \"contracts/erc721.sol\":3389:3446  require(to != owner, \"ERC721: approval to current owner\") */\n      tag_103\n      jumpi\n      mload(0x40)\n      0x08c379a000000000000000000000000000000000000000000000000000000000\n      dup2\n      mstore\n      0x04\n      add\n      tag_104\n      swap1\n      tag_105\n      jump\t// in\n    tag_104:\n      mload(0x40)\n      dup1\n      swap2\n      sub\n      swap1\n      revert\n    tag_103:\n        /* \"contracts/erc721.sol\":3497:3502  owner */\n      dup1\n        /* \"contracts/erc721.sol\":3481:3502  _msgSender() == owner */\n      0xffffffffffffffffffffffffffffffffffffffff\n      and\n        /* \"contracts/erc721.sol\":3481:3493  _msgSender() */\n      tag_106\n        /* \"contracts/erc721.sol\":3481:3491  _msgSender */\n      tag_107\n        /* \"contracts/erc721.sol\":3481:3493  _msgSender() */\n      jump\t// in\n    tag_106:\n        /* \"contracts/erc721.sol\":3481:3502  _msgSender() == owner */\n      0xffffffffffffffffffffffffffffffffffffffff\n      and\n      eq\n        /* \"contracts/erc721.sol\":3481:3543  _msgSender() == owner || isApprovedForAll(owner, _msgSender()) */\n      dup1\n      tag_108\n      jumpi\n      pop\n        /* \"contracts/erc721.sol\":3506:3543  isApprovedForAll(owner, _msgSender()) */\n      tag_109\n        /* \"contracts/erc721.sol\":3523:3528  owner */\n      dup2\n        /* \"contracts/erc721.sol\":3530:3542  _msgSender() */\n      tag_110\n        /* \"contracts/erc721.sol\":3530:3540  _msgSender */\n      tag_107\n        /* \"contracts/erc721.sol\":3530:3542  _msgSender() */\n      jump\t// in\n    tag_110:\n        /* \"contracts/erc721.sol\":3506:3522  isApprovedForAll */\n      tag_84\n        /* \"contracts/erc721.sol\":3506:3543  isApprovedForAll(owner, _msgSender()) */\n      jump\t// in\n    tag_109:\n        /* \"contracts/erc721.sol\":3481:3543  _msgSender() == owner || isApprovedForAll(owner, _msgSender()) */\n    tag_108:\n        /* \"contracts/erc721.sol\":3459:3632  require(\r... */\n      tag_111\n      jumpi\n      mload(0x40)\n      0x08c379a000000000000000000000000000000000000000000000000000000000\n      dup2\n      mstore\n      0x04\n      add\n      tag_112\n      swap1\n      tag_113\n      jump\t// in\n    tag_112:\n      mload(0x40)\n      dup1\n      swap2\n      sub\n      swap1\n      revert\n    tag_111:\n        /* \"contracts/erc721.sol\":3645:3666  _approve(to, tokenId) */\n      tag_114\n        /* \"contracts/erc721.sol\":3654:3656  to */\n      dup4\n        /* \"contracts/erc721.sol\":3658:3665  tokenId */\n      dup4\n        /* \"contracts/erc721.sol\":3645:3653  _approve */\n      tag_115\n        /* \"contracts/erc721.sol\":3645:3666  _approve(to, tokenId) */\n      jump\t// in\n    tag_114:\n        /* \"contracts/erc721.sol\":3258:3674  function approve(address to, uint256 tokenId) public virtual override {\r... */\n      pop\n      pop\n      pop\n      jump\t// out\n        /* \"contracts/erc721.sol\":4207:4489  function transferFrom(\r... */\n    tag_44:\n        /* \"contracts/erc721.sol\":4349:4390  _isApprovedOrOwner(_msgSender(), tokenId) */\n      tag_117\n        /* \"contracts/erc721.sol\":4368:4380  _msgSender() */\n      tag_118\n        /* \"contracts/erc721.sol\":4368:4378  _msgSender */\n      tag_107\n        /* \"contracts/erc721.sol\":4368:4380  _msgSender() */\n      jump\t// in\n    tag_118:\n        /* \"contracts/erc721.sol\":4382:4389  tokenId */\n      dup3\n        /* \"contracts/erc721.sol\":4349:4367  _isApprovedOrOwner */\n      tag_119\n        /* \"contracts/erc721.sol\":4349:4390  _isApprovedOrOwner(_msgSender(), tokenId) */\n      jump\t// in\n    tag_117:\n        /* \"contracts/erc721.sol\":4341:4440  require(_isApprovedOrOwner(_msgSender(), tokenId), \"ERC721: caller is not token owner or approved\") */\n      tag_120\n      jumpi\n      mload(0x40)\n      0x08c379a000000000000000000000000000000000000000000000000000000000\n      dup2\n      mstore\n      0x04\n      add\n      tag_121\n      swap1\n      tag_122\n      jump\t// in\n    tag_121:\n      mload(0x40)\n      dup1\n      swap2\n      sub\n      swap1\n      revert\n    tag_120:\n        /* \"contracts/erc721.sol\":4453:4481  _transfer(from, to, tokenId) */\n      tag_123\n        /* \"contracts/erc721.sol\":4463:4467  from */\n      dup4\n        /* \"contracts/erc721.sol\":4469:4471  to */\n      dup4\n        /* \"contracts/erc721.sol\":4473:4480  tokenId */\n      dup4\n        /* \"contracts/erc721.sol\":4453:4462  _transfer */\n      tag_124\n        /* \"contracts/erc721.sol\":4453:4481  _transfer(from, to, tokenId) */\n      jump\t// in\n    tag_123:\n        /* \"contracts/erc721.sol\":4207:4489  function transferFrom(\r... */\n      pop\n      pop\n      pop\n      jump\t// out\n        /* \"contracts/erc721.sol\":4499:4684  function safeTransferFrom(\r... */\n    tag_47:\n        /* \"contracts/erc721.sol\":4637:4676  safeTransferFrom(from, to, tokenId, \"\") */\n      tag_126\n        /* \"contracts/erc721.sol\":4654:4658  from */\n      dup4\n        /* \"contracts/erc721.sol\":4660:4662  to */\n      dup4\n        /* \"contracts/erc721.sol\":4664:4671  tokenId */\n      dup4\n        /* \"contracts/erc721.sol\":4637:4676  safeTransferFrom(from, to, tokenId, \"\") */\n      mload(0x40)\n      dup1\n      0x20\n      add\n      0x40\n      mstore\n      dup1\n      0x00\n      dup2\n      mstore\n      pop\n        /* \"contracts/erc721.sol\":4637:4653  safeTransferFrom */\n      tag_72\n        /* \"contracts/erc721.sol\":4637:4676  safeTransferFrom(from, to, tokenId, \"\") */\n      jump\t// in\n    tag_126:\n        /* \"contracts/erc721.sol\":4499:4684  function safeTransferFrom(\r... */\n      pop\n      pop\n      pop\n      jump\t// out\n        /* \"contracts/erc721.sol\":1771:1993  function ownerOf(uint256 tokenId) public view virtual override returns (address) {\r... */\n    tag_50:\n        /* \"contracts/erc721.sol\":1843:1850  address */\n      0x00\n        /* \"contracts/erc721.sol\":1863:1876  address owner */\n      dup1\n        /* \"contracts/erc721.sol\":1879:1886  _owners */\n      0x02\n        /* \"contracts/erc721.sol\":1879:1895  _owners[tokenId] */\n      0x00\n        /* \"contracts/erc721.sol\":1887:1894  tokenId */\n      dup5\n        /* \"contracts/erc721.sol\":1879:1895  _owners[tokenId] */\n      dup2\n      mstore\n      0x20\n      add\n      swap1\n      dup2\n      mstore\n      0x20\n      add\n      0x00\n      keccak256\n      0x00\n      swap1\n      sload\n      swap1\n      0x0100\n      exp\n      swap1\n      div\n      0xffffffffffffffffffffffffffffffffffffffff\n      and\n        /* \"contracts/erc721.sol\":1863:1895  address owner = _owners[tokenId] */\n      swap1\n      pop\n        /* \"contracts/erc721.sol\":1931:1932  0 */\n      0x00\n        /* \"contracts/erc721.sol\":1914:1933  owner != address(0) */\n      0xffffffffffffffffffffffffffffffffffffffff\n      and\n        /* \"contracts/erc721.sol\":1914:1919  owner */\n      dup2\n        /* \"contracts/erc721.sol\":1914:1933  owner != address(0) */\n      0xffffffffffffffffffffffffffffffffffffffff\n      and\n      eq\n      iszero\n        /* \"contracts/erc721.sol\":1906:1962  require(owner != address(0), \"ERC721: invalid token ID\") */\n      tag_128\n      jumpi\n      mload(0x40)\n      0x08c379a000000000000000000000000000000000000000000000000000000000\n      dup2\n      mstore\n      0x04\n      add\n      tag_129\n      swap1\n      tag_130\n      jump\t// in\n    tag_129:\n      mload(0x40)\n      dup1\n      swap2\n      sub\n      swap1\n      revert\n    tag_128:\n        /* \"contracts/erc721.sol\":1980:1985  owner */\n      dup1\n        /* \"contracts/erc721.sol\":1973:1985  return owner */\n      swap2\n      pop\n      pop\n        /* \"contracts/erc721.sol\":1771:1993  function ownerOf(uint256 tokenId) public view virtual override returns (address) {\r... */\n      swap2\n      swap1\n      pop\n      jump\t// out\n        /* \"contracts/erc721.sol\":1554:1761  function balanceOf(address owner) public view virtual override returns (uint256) {\r... */\n    tag_55:\n        /* \"contracts/erc721.sol\":1626:1633  uint256 */\n      0x00\n        /* \"contracts/erc721.sol\":1671:1672  0 */\n      dup1\n        /* \"contracts/erc721.sol\":1654:1673  owner != address(0) */\n      0xffffffffffffffffffffffffffffffffffffffff\n      and\n        /* \"contracts/erc721.sol\":1654:1659  owner */\n      dup3\n        /* \"contracts/erc721.sol\":1654:1673  owner != address(0) */\n      0xffffffffffffffffffffffffffffffffffffffff\n      and\n      eq\n      iszero\n        /* \"contracts/erc721.sol\":1646:1719  require(owner != address(0), \"ERC721: address zero is not a valid owner\") */\n      tag_132\n      jumpi\n      mload(0x40)\n      0x08c379a000000000000000000000000000000000000000000000000000000000\n      dup2\n      mstore\n      0x04\n      add\n      tag_133\n      swap1\n      tag_134\n      jump\t// in\n    tag_133:\n      mload(0x40)\n      dup1\n      swap2\n      sub\n      swap1\n      revert\n    tag_132:\n        /* \"contracts/erc721.sol\":1737:1746  _balances */\n      0x03\n        /* \"contracts/erc721.sol\":1737:1753  _balances[owner] */\n      0x00\n        /* \"contracts/erc721.sol\":1747:1752  owner */\n      dup4\n        /* \"contracts/erc721.sol\":1737:1753  _balances[owner] */\n      0xffffffffffffffffffffffffffffffffffffffff\n      and\n      0xffffffffffffffffffffffffffffffffffffffff\n      and\n      dup2\n      mstore\n      0x20\n      add\n      swap1\n      dup2\n      mstore\n      0x20\n      add\n      0x00\n      keccak256\n      sload\n        /* \"contracts/erc721.sol\":1730:1753  return _balances[owner] */\n      swap1\n      pop\n        /* \"contracts/erc721.sol\":1554:1761  function balanceOf(address owner) public view virtual override returns (uint256) {\r... */\n      swap2\n      swap1\n      pop\n      jump\t// out\n        /* \"contracts/erc721.sol\":2884:3146  function _tokenURI(uint256 tokenId) public view virtual returns (string memory) {\r... */\n    tag_60:\n        /* \"contracts/erc721.sol\":2949:2962  string memory */\n      0x60\n        /* \"contracts/erc721.sol\":2975:2998  _requireMinted(tokenId) */\n      tag_136\n        /* \"contracts/erc721.sol\":2990:2997  tokenId */\n      dup3\n        /* \"contracts/erc721.sol\":2975:2989  _requireMinted */\n      tag_100\n        /* \"contracts/erc721.sol\":2975:2998  _requireMinted(tokenId) */\n      jump\t// in\n    tag_136:\n        /* \"contracts/erc721.sol\":3011:3032  string memory baseURI */\n      0x00\n        /* \"contracts/erc721.sol\":3035:3045  _baseURI() */\n      tag_137\n        /* \"contracts/erc721.sol\":3035:3043  _baseURI */\n      tag_138\n        /* \"contracts/erc721.sol\":3035:3045  _baseURI() */\n      jump\t// in\n    tag_137:\n        /* \"contracts/erc721.sol\":3011:3045  string memory baseURI = _baseURI() */\n      swap1\n      pop\n        /* \"contracts/erc721.sol\":3087:3088  0 */\n      0x00\n        /* \"contracts/erc721.sol\":3069:3076  baseURI */\n      dup2\n        /* \"contracts/erc721.sol\":3063:3084  bytes(baseURI).length */\n      mload\n        /* \"contracts/erc721.sol\":3063:3088  bytes(baseURI).length > 0 */\n      gt\n        /* \"contracts/erc721.sol\":3063:3138  bytes(baseURI).length > 0 ? string(abi.encodePacked(baseURI, tokenId)) : \"\" */\n      tag_139\n      jumpi\n      mload(0x40)\n      dup1\n      0x20\n      add\n      0x40\n      mstore\n      dup1\n      0x00\n      dup2\n      mstore\n      pop\n      jump(tag_140)\n    tag_139:\n        /* \"contracts/erc721.sol\":3115:3122  baseURI */\n      dup1\n        /* \"contracts/erc721.sol\":3124:3131  tokenId */\n      dup4\n        /* \"contracts/erc721.sol\":3098:3132  abi.encodePacked(baseURI, tokenId) */\n      add(0x20, mload(0x40))\n      tag_141\n      swap3\n      swap2\n      swap1\n      tag_142\n      jump\t// in\n    tag_141:\n      mload(0x40)\n      0x20\n      dup2\n      dup4\n      sub\n      sub\n      dup2\n      mstore\n      swap1\n      0x40\n      mstore\n        /* \"contracts/erc721.sol\":3063:3138  bytes(baseURI).length > 0 ? string(abi.encodePacked(baseURI, tokenId)) : \"\" */\n    tag_140:\n        /* \"contracts/erc721.sol\":3056:3138  return bytes(baseURI).length > 0 ? string(abi.encodePacked(baseURI, tokenId)) : \"\" */\n      swap2\n      pop\n      pop\n        /* \"contracts/erc721.sol\":2884:3146  function _tokenURI(uint256 tokenId) public view virtual returns (string memory) {\r... */\n      swap2\n      swap1\n      pop\n      jump\t// out\n        /* \"contracts/erc721.sol\":2114:2218  function symbol() public view virtual override returns (string memory) {\r... */\n    tag_63:\n        /* \"contracts/erc721.sol\":2170:2183  string memory */\n      0x60\n        /* \"contracts/erc721.sol\":2203:2210  _symbol */\n      0x01\n        /* \"contracts/erc721.sol\":2196:2210  return _symbol */\n      dup1\n      sload\n      tag_144\n      swap1\n      tag_93\n      jump\t// in\n    tag_144:\n      dup1\n      0x1f\n      add\n      0x20\n      dup1\n      swap2\n      div\n      mul\n      0x20\n      add\n      mload(0x40)\n      swap1\n      dup2\n      add\n      0x40\n      mstore\n      dup1\n      swap3\n      swap2\n      swap1\n      dup2\n      dup2\n      mstore\n      0x20\n      add\n      dup3\n      dup1\n      sload\n      tag_145\n      swap1\n      tag_93\n      jump\t// in\n    tag_145:\n      dup1\n      iszero\n      tag_146\n      jumpi\n      dup1\n      0x1f\n      lt\n      tag_147\n      jumpi\n      0x0100\n      dup1\n      dup4\n      sload\n      div\n      mul\n      dup4\n      mstore\n      swap2\n      0x20\n      add\n      swap2\n      jump(tag_146)\n    tag_147:\n      dup3\n      add\n      swap2\n      swap1\n      0x00\n      mstore\n      keccak256(0x00, 0x20)\n      swap1\n    tag_148:\n      dup2\n      sload\n      dup2\n      mstore\n      swap1\n      0x01\n      add\n      swap1\n      0x20\n      add\n      dup1\n      dup4\n      gt\n      tag_148\n      jumpi\n      dup3\n      swap1\n      sub\n      0x1f\n      and\n      dup3\n      add\n      swap2\n    tag_146:\n      pop\n      pop\n      pop\n      pop\n      pop\n      swap1\n      pop\n        /* \"contracts/erc721.sol\":2114:2218  function symbol() public view virtual override returns (string memory) {\r... */\n      swap1\n      jump\t// out\n        /* \"contracts/erc721.sol\":3868:4023  function setApprovalForAll(address operator, bool approved) public virtual override {\r... */\n    tag_68:\n        /* \"contracts/erc721.sol\":3963:4015  _setApprovalForAll(_msgSender(), operator, approved) */\n      tag_150\n        /* \"contracts/erc721.sol\":3982:3994  _msgSender() */\n      tag_151\n        /* \"contracts/erc721.sol\":3982:3992  _msgSender */\n      tag_107\n        /* \"contracts/erc721.sol\":3982:3994  _msgSender() */\n      jump\t// in\n    tag_151:\n        /* \"contracts/erc721.sol\":3996:4004  operator */\n      dup4\n        /* \"contracts/erc721.sol\":4006:4014  approved */\n      dup4\n        /* \"contracts/erc721.sol\":3963:3981  _setApprovalForAll */\n      tag_152\n        /* \"contracts/erc721.sol\":3963:4015  _setApprovalForAll(_msgSender(), operator, approved) */\n      jump\t// in\n    tag_150:\n        /* \"contracts/erc721.sol\":3868:4023  function setApprovalForAll(address operator, bool approved) public virtual override {\r... */\n      pop\n      pop\n      jump\t// out\n        /* \"contracts/erc721.sol\":4694:5016  function safeTransferFrom(\r... */\n    tag_72:\n        /* \"contracts/erc721.sol\":4868:4909  _isApprovedOrOwner(_msgSender(), tokenId) */\n      tag_154\n        /* \"contracts/erc721.sol\":4887:4899  _msgSender() */\n      tag_155\n        /* \"contracts/erc721.sol\":4887:4897  _msgSender */\n      tag_107\n        /* \"contracts/erc721.sol\":4887:4899  _msgSender() */\n      jump\t// in\n    tag_155:\n        /* \"contracts/erc721.sol\":4901:4908  tokenId */\n      dup4\n        /* \"contracts/erc721.sol\":4868:4886  _isApprovedOrOwner */\n      tag_119\n        /* \"contracts/erc721.sol\":4868:4909  _isApprovedOrOwner(_msgSender(), tokenId) */\n      jump\t// in\n    tag_154:\n        /* \"contracts/erc721.sol\":4860:4959  require(_isApprovedOrOwner(_msgSender(), tokenId), \"ERC721: caller is not token owner or approved\") */\n      tag_156\n      jumpi\n      mload(0x40)\n      0x08c379a000000000000000000000000000000000000000000000000000000000\n      dup2\n      mstore\n      0x04\n      add\n      tag_157\n      swap1\n      tag_122\n      jump\t// in\n    tag_157:\n      mload(0x40)\n      dup1\n      swap2\n      sub\n      swap1\n      revert\n    tag_156:\n        /* \"contracts/erc721.sol\":4970:5008  _safeTransfer(from, to, tokenId, data) */\n      tag_158\n        /* \"contracts/erc721.sol\":4984:4988  from */\n      dup5\n        /* \"contracts/erc721.sol\":4990:4992  to */\n      dup5\n        /* \"contracts/erc721.sol\":4994:5001  tokenId */\n      dup5\n        /* \"contracts/erc721.sol\":5003:5007  data */\n      dup5\n        /* \"contracts/erc721.sol\":4970:4983  _safeTransfer */\n      tag_159\n        /* \"contracts/erc721.sol\":4970:5008  _safeTransfer(from, to, tokenId, data) */\n      jump\t// in\n    tag_158:\n        /* \"contracts/erc721.sol\":4694:5016  function safeTransferFrom(\r... */\n      pop\n      pop\n      pop\n      pop\n      jump\t// out\n        /* \"contracts/erc721.sol\":2226:2874  function tokenURI(uint256 tokenId) public view virtual override returns (string memory) {\r... */\n    tag_75:\n        /* \"contracts/erc721.sol\":2299:2312  string memory */\n      0x60\n        /* \"contracts/erc721.sol\":2325:2348  _requireMinted(tokenId) */\n      tag_161\n        /* \"contracts/erc721.sol\":2340:2347  tokenId */\n      dup3\n        /* \"contracts/erc721.sol\":2325:2339  _requireMinted */\n      tag_100\n        /* \"contracts/erc721.sol\":2325:2348  _requireMinted(tokenId) */\n      jump\t// in\n    tag_161:\n        /* \"contracts/erc721.sol\":2361:2383  string memory tokenUri */\n      0x00\n        /* \"contracts/erc721.sol\":2386:2396  _tokenURIs */\n      0x06\n        /* \"contracts/erc721.sol\":2386:2405  _tokenURIs[tokenId] */\n      0x00\n        /* \"contracts/erc721.sol\":2397:2404  tokenId */\n      dup5\n        /* \"contracts/erc721.sol\":2386:2405  _tokenURIs[tokenId] */\n      dup2\n      mstore\n      0x20\n      add\n      swap1\n      dup2\n      mstore\n      0x20\n      add\n      0x00\n      keccak256\n        /* \"contracts/erc721.sol\":2361:2405  string memory tokenUri = _tokenURIs[tokenId] */\n      dup1\n      sload\n      tag_162\n      swap1\n      tag_93\n      jump\t// in\n    tag_162:\n      dup1\n      0x1f\n      add\n      0x20\n      dup1\n      swap2\n      div\n      mul\n      0x20\n      add\n      mload(0x40)\n      swap1\n      dup2\n      add\n      0x40\n      mstore\n      dup1\n      swap3\n      swap2\n      swap1\n      dup2\n      dup2\n      mstore\n      0x20\n      add\n      dup3\n      dup1\n      sload\n      tag_163\n      swap1\n      tag_93\n      jump\t// in\n    tag_163:\n      dup1\n      iszero\n      tag_164\n      jumpi\n      dup1\n      0x1f\n      lt\n      tag_165\n      jumpi\n      0x0100\n      dup1\n      dup4\n      sload\n      div\n      mul\n      dup4\n      mstore\n      swap2\n      0x20\n      add\n      swap2\n      jump(tag_164)\n    tag_165:\n      dup3\n      add\n      swap2\n      swap1\n      0x00\n      mstore\n      keccak256(0x00, 0x20)\n      swap1\n    tag_166:\n      dup2\n      sload\n      dup2\n      mstore\n      swap1\n      0x01\n      add\n      swap1\n      0x20\n      add\n      dup1\n      dup4\n      gt\n      tag_166\n      jumpi\n      dup3\n      swap1\n      sub\n      0x1f\n      and\n      dup3\n      add\n      swap2\n    tag_164:\n      pop\n      pop\n      pop\n      pop\n      pop\n      swap1\n      pop\n        /* \"contracts/erc721.sol\":2416:2434  string memory base */\n      0x00\n        /* \"contracts/erc721.sol\":2437:2447  _baseURI() */\n      tag_167\n        /* \"contracts/erc721.sol\":2437:2445  _baseURI */\n      tag_138\n        /* \"contracts/erc721.sol\":2437:2447  _baseURI() */\n      jump\t// in\n    tag_167:\n        /* \"contracts/erc721.sol\":2416:2447  string memory base = _baseURI() */\n      swap1\n      pop\n        /* \"contracts/erc721.sol\":2545:2546  0 */\n      0x00\n        /* \"contracts/erc721.sol\":2529:2533  base */\n      dup2\n        /* \"contracts/erc721.sol\":2523:2541  bytes(base).length */\n      mload\n        /* \"contracts/erc721.sol\":2523:2546  bytes(base).length == 0 */\n      eq\n        /* \"contracts/erc721.sol\":2519:2590  if (bytes(base).length == 0) {\r... */\n      iszero\n      tag_168\n      jumpi\n        /* \"contracts/erc721.sol\":2570:2578  tokenUri */\n      dup2\n        /* \"contracts/erc721.sol\":2563:2578  return tokenUri */\n      swap3\n      pop\n      pop\n      pop\n      jump(tag_160)\n        /* \"contracts/erc721.sol\":2519:2590  if (bytes(base).length == 0) {\r... */\n    tag_168:\n        /* \"contracts/erc721.sol\":2719:2720  0 */\n      0x00\n        /* \"contracts/erc721.sol\":2700:2708  tokenUri */\n      dup3\n        /* \"contracts/erc721.sol\":2694:2716  bytes(tokenUri).length */\n      mload\n        /* \"contracts/erc721.sol\":2694:2720  bytes(tokenUri).length > 0 */\n      gt\n        /* \"contracts/erc721.sol\":2690:2796  if (bytes(tokenUri).length > 0) {\r... */\n      iszero\n      tag_169\n      jumpi\n        /* \"contracts/erc721.sol\":2768:2772  base */\n      dup1\n        /* \"contracts/erc721.sol\":2774:2782  tokenUri */\n      dup3\n        /* \"contracts/erc721.sol\":2751:2783  abi.encodePacked(base, tokenUri) */\n      add(0x20, mload(0x40))\n      tag_170\n      swap3\n      swap2\n      swap1\n      tag_171\n      jump\t// in\n    tag_170:\n      mload(0x40)\n      0x20\n      dup2\n      dup4\n      sub\n      sub\n      dup2\n      mstore\n      swap1\n      0x40\n      mstore\n        /* \"contracts/erc721.sol\":2737:2784  return string(abi.encodePacked(base, tokenUri)) */\n      swap3\n      pop\n      pop\n      pop\n      jump(tag_160)\n        /* \"contracts/erc721.sol\":2690:2796  if (bytes(tokenUri).length > 0) {\r... */\n    tag_169:\n        /* \"contracts/erc721.sol\":2808:2823  string memory a */\n      0x00\n        /* \"contracts/erc721.sol\":2827:2845  _tokenURI(tokenId) */\n      tag_172\n        /* \"contracts/erc721.sol\":2837:2844  tokenId */\n      dup6\n        /* \"contracts/erc721.sol\":2827:2836  _tokenURI */\n      tag_60\n        /* \"contracts/erc721.sol\":2827:2845  _tokenURI(tokenId) */\n      jump\t// in\n    tag_172:\n        /* \"contracts/erc721.sol\":2808:2845  string memory a =  _tokenURI(tokenId) */\n      swap1\n      pop\n        /* \"contracts/erc721.sol\":2865:2866  a */\n      dup1\n        /* \"contracts/erc721.sol\":2858:2866  return a */\n      swap4\n      pop\n      pop\n      pop\n      pop\n        /* \"contracts/erc721.sol\":2226:2874  function tokenURI(uint256 tokenId) public view virtual override returns (string memory) {\r... */\n    tag_160:\n      swap2\n      swap1\n      pop\n      jump\t// out\n        /* \"contracts/erc721.sol\":5025:5161  function safeMint(address to,uint tokenId,string memory uri) public{\r... */\n    tag_80:\n        /* \"contracts/erc721.sol\":5103:5125  _safeMint(to, tokenId) */\n      tag_174\n        /* \"contracts/erc721.sol\":5113:5115  to */\n      dup4\n        /* \"contracts/erc721.sol\":5117:5124  tokenId */\n      dup4\n        /* \"contracts/erc721.sol\":5103:5112  _safeMint */\n      tag_175\n        /* \"contracts/erc721.sol\":5103:5125  _safeMint(to, tokenId) */\n      jump\t// in\n    tag_174:\n        /* \"contracts/erc721.sol\":5136:5153  tokenURI(tokenId) */\n      tag_176\n        /* \"contracts/erc721.sol\":5145:5152  tokenId */\n      dup3\n        /* \"contracts/erc721.sol\":5136:5144  tokenURI */\n      tag_75\n        /* \"contracts/erc721.sol\":5136:5153  tokenURI(tokenId) */\n      jump\t// in\n    tag_176:\n      pop\n        /* \"contracts/erc721.sol\":5025:5161  function safeMint(address to,uint tokenId,string memory uri) public{\r... */\n      pop\n      pop\n      pop\n      jump\t// out\n        /* \"contracts/erc721.sol\":4033:4197  function isApprovedForAll(address owner, address operator) public view virtual override returns (bool) {\r... */\n    tag_84:\n        /* \"contracts/erc721.sol\":4130:4134  bool */\n      0x00\n        /* \"contracts/erc721.sol\":4154:4172  _operatorApprovals */\n      0x05\n        /* \"contracts/erc721.sol\":4154:4179  _operatorApprovals[owner] */\n      0x00\n        /* \"contracts/erc721.sol\":4173:4178  owner */\n      dup5\n        /* \"contracts/erc721.sol\":4154:4179  _operatorApprovals[owner] */\n      0xffffffffffffffffffffffffffffffffffffffff\n      and\n      0xffffffffffffffffffffffffffffffffffffffff\n      and\n      dup2\n      mstore\n      0x20\n      add\n      swap1\n      dup2\n      mstore\n      0x20\n      add\n      0x00\n      keccak256\n        /* \"contracts/erc721.sol\":4154:4189  _operatorApprovals[owner][operator] */\n      0x00\n        /* \"contracts/erc721.sol\":4180:4188  operator */\n      dup4\n        /* \"contracts/erc721.sol\":4154:4189  _operatorApprovals[owner][operator] */\n      0xffffffffffffffffffffffffffffffffffffffff\n      and\n      0xffffffffffffffffffffffffffffffffffffffff\n      and\n      dup2\n      mstore\n      0x20\n      add\n      swap1\n      dup2\n      mstore\n      0x20\n      add\n      0x00\n      keccak256\n      0x00\n      swap1\n      sload\n      swap1\n      0x0100\n      exp\n      swap1\n      div\n      0xff\n      and\n        /* \"contracts/erc721.sol\":4147:4189  return _operatorApprovals[owner][operator] */\n      swap1\n      pop\n        /* \"contracts/erc721.sol\":4033:4197  function isApprovedForAll(address owner, address operator) public view virtual override returns (bool) {\r... */\n      swap3\n      swap2\n      pop\n      pop\n      jump\t// out\n        /* \"@openzeppelin/contracts@4.6.0/utils/introspection/ERC165.sol\":829:984  function supportsInterface(bytes4 interfaceId) public view virtual override returns (bool) {... */\n    tag_90:\n        /* \"@openzeppelin/contracts@4.6.0/utils/introspection/ERC165.sol\":914:918  bool */\n      0x00\n        /* \"@openzeppelin/contracts@4.6.0/utils/introspection/ERC165.sol\":952:977  type(IERC165).interfaceId */\n      0x01ffc9a700000000000000000000000000000000000000000000000000000000\n        /* \"@openzeppelin/contracts@4.6.0/utils/introspection/ERC165.sol\":937:977  interfaceId == type(IERC165).interfaceId */\n      not(0xffffffffffffffffffffffffffffffffffffffffffffffffffffffff)\n      and\n        /* \"@openzeppelin/contracts@4.6.0/utils/introspection/ERC165.sol\":937:948  interfaceId */\n      dup3\n        /* \"@openzeppelin/contracts@4.6.0/utils/introspection/ERC165.sol\":937:977  interfaceId == type(IERC165).interfaceId */\n      not(0xffffffffffffffffffffffffffffffffffffffffffffffffffffffff)\n      and\n      eq\n        /* \"@openzeppelin/contracts@4.6.0/utils/introspection/ERC165.sol\":930:977  return interfaceId == type(IERC165).interfaceId */\n      swap1\n      pop\n        /* \"@openzeppelin/contracts@4.6.0/utils/introspection/ERC165.sol\":829:984  function supportsInterface(bytes4 interfaceId) public view virtual override returns (bool) {... */\n      swap2\n      swap1\n      pop\n      jump\t// out\n        /* \"contracts/erc721.sol\":8892:9027  function _requireMinted(uint256 tokenId) internal view virtual {\r... */\n    tag_100:\n        /* \"contracts/erc721.sol\":8974:8990  _exists(tokenId) */\n      tag_180\n        /* \"contracts/erc721.sol\":8982:8989  tokenId */\n      dup2\n        /* \"contracts/erc721.sol\":8974:8981  _exists */\n      tag_181\n        /* \"contracts/erc721.sol\":8974:8990  _exists(tokenId) */\n      jump\t// in\n    tag_180:\n        /* \"contracts/erc721.sol\":8966:9019  require(_exists(tokenId), \"ERC721: invalid token ID\") */\n      tag_182\n      jumpi\n      mload(0x40)\n      0x08c379a000000000000000000000000000000000000000000000000000000000\n      dup2\n      mstore\n      0x04\n      add\n      tag_183\n      swap1\n      tag_130\n      jump\t// in\n    tag_183:\n      mload(0x40)\n      dup1\n      swap2\n      sub\n      swap1\n      revert\n    tag_182:\n        /* \"contracts/erc721.sol\":8892:9027  function _requireMinted(uint256 tokenId) internal view virtual {\r... */\n      pop\n      jump\t// out\n        /* \"@openzeppelin/contracts@4.6.0/utils/Context.sol\":640:736  function _msgSender() internal view virtual returns (address) {... */\n    tag_107:\n        /* \"@openzeppelin/contracts@4.6.0/utils/Context.sol\":693:700  address */\n      0x00\n        /* \"@openzeppelin/contracts@4.6.0/utils/Context.sol\":719:729  msg.sender */\n      caller\n        /* \"@openzeppelin/contracts@4.6.0/utils/Context.sol\":712:729  return msg.sender */\n      swap1\n      pop\n        /* \"@openzeppelin/contracts@4.6.0/utils/Context.sol\":640:736  function _msgSender() internal view virtual returns (address) {... */\n      swap1\n      jump\t// out\n        /* \"contracts/erc721.sol\":8387:8561  function _approve(address to, uint256 tokenId) internal virtual {\r... */\n    tag_115:\n        /* \"contracts/erc721.sol\":8489:8491  to */\n      dup2\n        /* \"contracts/erc721.sol\":8462:8477  _tokenApprovals */\n      0x04\n        /* \"contracts/erc721.sol\":8462:8486  _tokenApprovals[tokenId] */\n      0x00\n        /* \"contracts/erc721.sol\":8478:8485  tokenId */\n      dup4\n        /* \"contracts/erc721.sol\":8462:8486  _tokenApprovals[tokenId] */\n      dup2\n      mstore\n      0x20\n      add\n      swap1\n      dup2\n      mstore\n      0x20\n      add\n      0x00\n      keccak256\n      0x00\n        /* \"contracts/erc721.sol\":8462:8491  _tokenApprovals[tokenId] = to */\n      0x0100\n      exp\n      dup2\n      sload\n      dup2\n      0xffffffffffffffffffffffffffffffffffffffff\n      mul\n      not\n      and\n      swap1\n      dup4\n      0xffffffffffffffffffffffffffffffffffffffff\n      and\n      mul\n      or\n      swap1\n      sstore\n      pop\n        /* \"contracts/erc721.sol\":8545:8552  tokenId */\n      dup1\n        /* \"contracts/erc721.sol\":8541:8543  to */\n      dup3\n        /* \"contracts/erc721.sol\":8507:8553  Approval(ERC721.ownerOf(tokenId), to, tokenId) */\n      0xffffffffffffffffffffffffffffffffffffffff\n      and\n        /* \"contracts/erc721.sol\":8516:8539  ERC721.ownerOf(tokenId) */\n      tag_186\n        /* \"contracts/erc721.sol\":8531:8538  tokenId */\n      dup4\n        /* \"contracts/erc721.sol\":8516:8530  ERC721.ownerOf */\n      tag_50\n        /* \"contracts/erc721.sol\":8516:8539  ERC721.ownerOf(tokenId) */\n      jump\t// in\n    tag_186:\n        /* \"contracts/erc721.sol\":8507:8553  Approval(ERC721.ownerOf(tokenId), to, tokenId) */\n      0xffffffffffffffffffffffffffffffffffffffff\n      and\n      0x8c5be1e5ebec7d5bd14f71427d1e84f3dd0314c0f7b2291e5b200ac8c7c3b925\n      mload(0x40)\n      mload(0x40)\n      dup1\n      swap2\n      sub\n      swap1\n      log4\n        /* \"contracts/erc721.sol\":8387:8561  function _approve(address to, uint256 tokenId) internal virtual {\r... */\n      pop\n      pop\n      jump\t// out\n        /* \"contracts/erc721.sol\":5627:5891  function _isApprovedOrOwner(address spender, uint256 tokenId) internal view virtual returns (bool) {\r... */\n    tag_119:\n        /* \"contracts/erc721.sol\":5720:5724  bool */\n      0x00\n        /* \"contracts/erc721.sol\":5737:5750  address owner */\n      dup1\n        /* \"contracts/erc721.sol\":5753:5776  ERC721.ownerOf(tokenId) */\n      tag_188\n        /* \"contracts/erc721.sol\":5768:5775  tokenId */\n      dup4\n        /* \"contracts/erc721.sol\":5753:5767  ERC721.ownerOf */\n      tag_50\n        /* \"contracts/erc721.sol\":5753:5776  ERC721.ownerOf(tokenId) */\n      jump\t// in\n    tag_188:\n        /* \"contracts/erc721.sol\":5737:5776  address owner = ERC721.ownerOf(tokenId) */\n      swap1\n      pop\n        /* \"contracts/erc721.sol\":5806:5811  owner */\n      dup1\n        /* \"contracts/erc721.sol\":5795:5811  spender == owner */\n      0xffffffffffffffffffffffffffffffffffffffff\n      and\n        /* \"contracts/erc721.sol\":5795:5802  spender */\n      dup5\n        /* \"contracts/erc721.sol\":5795:5811  spender == owner */\n      0xffffffffffffffffffffffffffffffffffffffff\n      and\n      eq\n        /* \"contracts/erc721.sol\":5795:5847  spender == owner || isApprovedForAll(owner, spender) */\n      dup1\n      tag_189\n      jumpi\n      pop\n        /* \"contracts/erc721.sol\":5815:5847  isApprovedForAll(owner, spender) */\n      tag_190\n        /* \"contracts/erc721.sol\":5832:5837  owner */\n      dup2\n        /* \"contracts/erc721.sol\":5839:5846  spender */\n      dup6\n        /* \"contracts/erc721.sol\":5815:5831  isApprovedForAll */\n      tag_84\n        /* \"contracts/erc721.sol\":5815:5847  isApprovedForAll(owner, spender) */\n      jump\t// in\n    tag_190:\n        /* \"contracts/erc721.sol\":5795:5847  spender == owner || isApprovedForAll(owner, spender) */\n    tag_189:\n        /* \"contracts/erc721.sol\":5795:5882  spender == owner || isApprovedForAll(owner, spender) || getApproved(tokenId) == spender */\n      dup1\n      tag_191\n      jumpi\n      pop\n        /* \"contracts/erc721.sol\":5875:5882  spender */\n      dup4\n        /* \"contracts/erc721.sol\":5851:5882  getApproved(tokenId) == spender */\n      0xffffffffffffffffffffffffffffffffffffffff\n      and\n        /* \"contracts/erc721.sol\":5851:5871  getApproved(tokenId) */\n      tag_192\n        /* \"contracts/erc721.sol\":5863:5870  tokenId */\n      dup5\n        /* \"contracts/erc721.sol\":5851:5862  getApproved */\n      tag_34\n        /* \"contracts/erc721.sol\":5851:5871  getApproved(tokenId) */\n      jump\t// in\n    tag_192:\n        /* \"contracts/erc721.sol\":5851:5882  getApproved(tokenId) == spender */\n      0xffffffffffffffffffffffffffffffffffffffff\n      and\n      eq\n        /* \"contracts/erc721.sol\":5795:5882  spender == owner || isApprovedForAll(owner, spender) || getApproved(tokenId) == spender */\n    tag_191:\n        /* \"contracts/erc721.sol\":5787:5883  return (spender == owner || isApprovedForAll(owner, spender) || getApproved(tokenId) == spender) */\n      swap2\n      pop\n      pop\n        /* \"contracts/erc721.sol\":5627:5891  function _isApprovedOrOwner(address spender, uint256 tokenId) internal view virtual returns (bool) {\r... */\n      swap3\n      swap2\n      pop\n      pop\n      jump\t// out\n        /* \"contracts/erc721.sol\":7614:8377  function _transfer(\r... */\n    tag_124:\n        /* \"contracts/erc721.sol\":7773:7777  from */\n      dup3\n        /* \"contracts/erc721.sol\":7746:7777  ERC721.ownerOf(tokenId) == from */\n      0xffffffffffffffffffffffffffffffffffffffff\n      and\n        /* \"contracts/erc721.sol\":7746:7769  ERC721.ownerOf(tokenId) */\n      tag_194\n        /* \"contracts/erc721.sol\":7761:7768  tokenId */\n      dup3\n        /* \"contracts/erc721.sol\":7746:7760  ERC721.ownerOf */\n      tag_50\n        /* \"contracts/erc721.sol\":7746:7769  ERC721.ownerOf(tokenId) */\n      jump\t// in\n    tag_194:\n        /* \"contracts/erc721.sol\":7746:7777  ERC721.ownerOf(tokenId) == from */\n      0xffffffffffffffffffffffffffffffffffffffff\n      and\n      eq\n        /* \"contracts/erc721.sol\":7738:7819  require(ERC721.ownerOf(tokenId) == from, \"ERC721: transfer from incorrect owner\") */\n      tag_195\n      jumpi\n      mload(0x40)\n      0x08c379a000000000000000000000000000000000000000000000000000000000\n      dup2\n      mstore\n      0x04\n      add\n      tag_196\n      swap1\n      tag_197\n      jump\t// in\n    tag_196:\n      mload(0x40)\n      dup1\n      swap2\n      sub\n      swap1\n      revert\n    tag_195:\n        /* \"contracts/erc721.sol\":7852:7853  0 */\n      0x00\n        /* \"contracts/erc721.sol\":7838:7854  to != address(0) */\n      0xffffffffffffffffffffffffffffffffffffffff\n      and\n        /* \"contracts/erc721.sol\":7838:7840  to */\n      dup3\n        /* \"contracts/erc721.sol\":7838:7854  to != address(0) */\n      0xffffffffffffffffffffffffffffffffffffffff\n      and\n      eq\n      iszero\n        /* \"contracts/erc721.sol\":7830:7895  require(to != address(0), \"ERC721: transfer to the zero address\") */\n      tag_198\n      jumpi\n      mload(0x40)\n      0x08c379a000000000000000000000000000000000000000000000000000000000\n      dup2\n      mstore\n      0x04\n      add\n      tag_199\n      swap1\n      tag_200\n      jump\t// in\n    tag_199:\n      mload(0x40)\n      dup1\n      swap2\n      sub\n      swap1\n      revert\n    tag_198:\n        /* \"contracts/erc721.sol\":7908:7947  _beforeTokenTransfer(from, to, tokenId) */\n      tag_201\n        /* \"contracts/erc721.sol\":7929:7933  from */\n      dup4\n        /* \"contracts/erc721.sol\":7935:7937  to */\n      dup4\n        /* \"contracts/erc721.sol\":7939:7946  tokenId */\n      dup4\n        /* \"contracts/erc721.sol\":7908:7928  _beforeTokenTransfer */\n      tag_202\n        /* \"contracts/erc721.sol\":7908:7947  _beforeTokenTransfer(from, to, tokenId) */\n      jump\t// in\n    tag_201:\n        /* \"contracts/erc721.sol\":7995:7999  from */\n      dup3\n        /* \"contracts/erc721.sol\":7968:7999  ERC721.ownerOf(tokenId) == from */\n      0xffffffffffffffffffffffffffffffffffffffff\n      and\n        /* \"contracts/erc721.sol\":7968:7991  ERC721.ownerOf(tokenId) */\n      tag_203\n        /* \"contracts/erc721.sol\":7983:7990  tokenId */\n      dup3\n        /* \"contracts/erc721.sol\":7968:7982  ERC721.ownerOf */\n      tag_50\n        /* \"contracts/erc721.sol\":7968:7991  ERC721.ownerOf(tokenId) */\n      jump\t// in\n    tag_203:\n        /* \"contracts/erc721.sol\":7968:7999  ERC721.ownerOf(tokenId) == from */\n      0xffffffffffffffffffffffffffffffffffffffff\n      and\n      eq\n        /* \"contracts/erc721.sol\":7960:8041  require(ERC721.ownerOf(tokenId) == from, \"ERC721: transfer from incorrect owner\") */\n      tag_204\n      jumpi\n      mload(0x40)\n      0x08c379a000000000000000000000000000000000000000000000000000000000\n      dup2\n      mstore\n      0x04\n      add\n      tag_205\n      swap1\n      tag_197\n      jump\t// in\n    tag_205:\n      mload(0x40)\n      dup1\n      swap2\n      sub\n      swap1\n      revert\n    tag_204:\n        /* \"contracts/erc721.sol\":8113:8128  _tokenApprovals */\n      0x04\n        /* \"contracts/erc721.sol\":8113:8137  _tokenApprovals[tokenId] */\n      0x00\n        /* \"contracts/erc721.sol\":8129:8136  tokenId */\n      dup3\n        /* \"contracts/erc721.sol\":8113:8137  _tokenApprovals[tokenId] */\n      dup2\n      mstore\n      0x20\n      add\n      swap1\n      dup2\n      mstore\n      0x20\n      add\n      0x00\n      keccak256\n      0x00\n        /* \"contracts/erc721.sol\":8106:8137  delete _tokenApprovals[tokenId] */\n      0x0100\n      exp\n      dup2\n      sload\n      swap1\n      0xffffffffffffffffffffffffffffffffffffffff\n      mul\n      not\n      and\n      swap1\n      sstore\n        /* \"contracts/erc721.sol\":8196:8197  1 */\n      0x01\n        /* \"contracts/erc721.sol\":8177:8186  _balances */\n      0x03\n        /* \"contracts/erc721.sol\":8177:8192  _balances[from] */\n      0x00\n        /* \"contracts/erc721.sol\":8187:8191  from */\n      dup6\n        /* \"contracts/erc721.sol\":8177:8192  _balances[from] */\n      0xffffffffffffffffffffffffffffffffffffffff\n      and\n      0xffffffffffffffffffffffffffffffffffffffff\n      and\n      dup2\n      mstore\n      0x20\n      add\n      swap1\n      dup2\n      mstore\n      0x20\n      add\n      0x00\n      keccak256\n      0x00\n        /* \"contracts/erc721.sol\":8177:8197  _balances[from] -= 1 */\n      dup3\n      dup3\n      sload\n      sub\n      swap3\n      pop\n      pop\n      dup2\n      swap1\n      sstore\n      pop\n        /* \"contracts/erc721.sol\":8229:8230  1 */\n      0x01\n        /* \"contracts/erc721.sol\":8212:8221  _balances */\n      0x03\n        /* \"contracts/erc721.sol\":8212:8225  _balances[to] */\n      0x00\n        /* \"contracts/erc721.sol\":8222:8224  to */\n      dup5\n        /* \"contracts/erc721.sol\":8212:8225  _balances[to] */\n      0xffffffffffffffffffffffffffffffffffffffff\n      and\n      0xffffffffffffffffffffffffffffffffffffffff\n      and\n      dup2\n      mstore\n      0x20\n      add\n      swap1\n      dup2\n      mstore\n      0x20\n      add\n      0x00\n      keccak256\n      0x00\n        /* \"contracts/erc721.sol\":8212:8230  _balances[to] += 1 */\n      dup3\n      dup3\n      sload\n      add\n      swap3\n      pop\n      pop\n      dup2\n      swap1\n      sstore\n      pop\n        /* \"contracts/erc721.sol\":8271:8273  to */\n      dup2\n        /* \"contracts/erc721.sol\":8252:8259  _owners */\n      0x02\n        /* \"contracts/erc721.sol\":8252:8268  _owners[tokenId] */\n      0x00\n        /* \"contracts/erc721.sol\":8260:8267  tokenId */\n      dup4\n        /* \"contracts/erc721.sol\":8252:8268  _owners[tokenId] */\n      dup2\n      mstore\n      0x20\n      add\n      swap1\n      dup2\n      mstore\n      0x20\n      add\n      0x00\n      keccak256\n      0x00\n        /* \"contracts/erc721.sol\":8252:8273  _owners[tokenId] = to */\n      0x0100\n      exp\n      dup2\n      sload\n      dup2\n      0xffffffffffffffffffffffffffffffffffffffff\n      mul\n      not\n      and\n      swap1\n      dup4\n      0xffffffffffffffffffffffffffffffffffffffff\n      and\n      mul\n      or\n      swap1\n      sstore\n      pop\n        /* \"contracts/erc721.sol\":8310:8317  tokenId */\n      dup1\n        /* \"contracts/erc721.sol\":8306:8308  to */\n      dup3\n        /* \"contracts/erc721.sol\":8291:8318  Transfer(from, to, tokenId) */\n      0xffffffffffffffffffffffffffffffffffffffff\n      and\n        /* \"contracts/erc721.sol\":8300:8304  from */\n      dup5\n        /* \"contracts/erc721.sol\":8291:8318  Transfer(from, to, tokenId) */\n      0xffffffffffffffffffffffffffffffffffffffff\n      and\n      0xddf252ad1be2c89b69c2b068fc378daa952ba7f163c4a11628f55a4df523b3ef\n      mload(0x40)\n      mload(0x40)\n      dup1\n      swap2\n      sub\n      swap1\n      log4\n        /* \"contracts/erc721.sol\":8331:8369  _afterTokenTransfer(from, to, tokenId) */\n      tag_206\n        /* \"contracts/erc721.sol\":8351:8355  from */\n      dup4\n        /* \"contracts/erc721.sol\":8357:8359  to */\n      dup4\n        /* \"contracts/erc721.sol\":8361:8368  tokenId */\n      dup4\n        /* \"contracts/erc721.sol\":8331:8350  _afterTokenTransfer */\n      tag_207\n        /* \"contracts/erc721.sol\":8331:8369  _afterTokenTransfer(from, to, tokenId) */\n      jump\t// in\n    tag_206:\n        /* \"contracts/erc721.sol\":7614:8377  function _transfer(\r... */\n      pop\n      pop\n      pop\n      jump\t// out\n        /* \"contracts/erc721.sol\":3156:3250  function _baseURI() internal view virtual returns (string memory) {\r... */\n    tag_138:\n        /* \"contracts/erc721.sol\":3207:3220  string memory */\n      0x60\n        /* \"contracts/erc721.sol\":3233:3242  return \"\" */\n      mload(0x40)\n      dup1\n      0x20\n      add\n      0x40\n      mstore\n      dup1\n      0x00\n      dup2\n      mstore\n      pop\n      swap1\n      pop\n        /* \"contracts/erc721.sol\":3156:3250  function _baseURI() internal view virtual returns (string memory) {\r... */\n      swap1\n      jump\t// out\n        /* \"contracts/erc721.sol\":8569:8884  function _setApprovalForAll(\r... */\n    tag_152:\n        /* \"contracts/erc721.sol\":8724:8732  operator */\n      dup2\n        /* \"contracts/erc721.sol\":8715:8732  owner != operator */\n      0xffffffffffffffffffffffffffffffffffffffff\n      and\n        /* \"contracts/erc721.sol\":8715:8720  owner */\n      dup4\n        /* \"contracts/erc721.sol\":8715:8732  owner != operator */\n      0xffffffffffffffffffffffffffffffffffffffff\n      and\n      eq\n      iszero\n        /* \"contracts/erc721.sol\":8707:8762  require(owner != operator, \"ERC721: approve to caller\") */\n      tag_210\n      jumpi\n      mload(0x40)\n      0x08c379a000000000000000000000000000000000000000000000000000000000\n      dup2\n      mstore\n      0x04\n      add\n      tag_211\n      swap1\n      tag_212\n      jump\t// in\n    tag_211:\n      mload(0x40)\n      dup1\n      swap2\n      sub\n      swap1\n      revert\n    tag_210:\n        /* \"contracts/erc721.sol\":8811:8819  approved */\n      dup1\n        /* \"contracts/erc721.sol\":8773:8791  _operatorApprovals */\n      0x05\n        /* \"contracts/erc721.sol\":8773:8798  _operatorApprovals[owner] */\n      0x00\n        /* \"contracts/erc721.sol\":8792:8797  owner */\n      dup6\n        /* \"contracts/erc721.sol\":8773:8798  _operatorApprovals[owner] */\n      0xffffffffffffffffffffffffffffffffffffffff\n      and\n      0xffffffffffffffffffffffffffffffffffffffff\n      and\n      dup2\n      mstore\n      0x20\n      add\n      swap1\n      dup2\n      mstore\n      0x20\n      add\n      0x00\n      keccak256\n        /* \"contracts/erc721.sol\":8773:8808  _operatorApprovals[owner][operator] */\n      0x00\n        /* \"contracts/erc721.sol\":8799:8807  operator */\n      dup5\n        /* \"contracts/erc721.sol\":8773:8808  _operatorApprovals[owner][operator] */\n      0xffffffffffffffffffffffffffffffffffffffff\n      and\n      0xffffffffffffffffffffffffffffffffffffffff\n      and\n      dup2\n      mstore\n      0x20\n      add\n      swap1\n      dup2\n      mstore\n      0x20\n      add\n      0x00\n      keccak256\n      0x00\n        /* \"contracts/erc721.sol\":8773:8819  _operatorApprovals[owner][operator] = approved */\n      0x0100\n      exp\n      dup2\n      sload\n      dup2\n      0xff\n      mul\n      not\n      and\n      swap1\n      dup4\n      iszero\n      iszero\n      mul\n      or\n      swap1\n      sstore\n      pop\n        /* \"contracts/erc721.sol\":8857:8865  operator */\n      dup2\n        /* \"contracts/erc721.sol\":8835:8876  ApprovalForAll(owner, operator, approved) */\n      0xffffffffffffffffffffffffffffffffffffffff\n      and\n        /* \"contracts/erc721.sol\":8850:8855  owner */\n      dup4\n        /* \"contracts/erc721.sol\":8835:8876  ApprovalForAll(owner, operator, approved) */\n      0xffffffffffffffffffffffffffffffffffffffff\n      and\n      0x17307eab39ab6107e8899845ad3d59bd9653f200f220920489ca2b5937696c31\n        /* \"contracts/erc721.sol\":8867:8875  approved */\n      dup4\n        /* \"contracts/erc721.sol\":8835:8876  ApprovalForAll(owner, operator, approved) */\n      mload(0x40)\n      tag_213\n      swap2\n      swap1\n      tag_26\n      jump\t// in\n    tag_213:\n      mload(0x40)\n      dup1\n      swap2\n      sub\n      swap1\n      log3\n        /* \"contracts/erc721.sol\":8569:8884  function _setApprovalForAll(\r... */\n      pop\n      pop\n      pop\n      jump\t// out\n        /* \"contracts/erc721.sol\":5169:5482  function _safeTransfer(\r... */\n    tag_159:\n        /* \"contracts/erc721.sol\":5325:5353  _transfer(from, to, tokenId) */\n      tag_215\n        /* \"contracts/erc721.sol\":5335:5339  from */\n      dup5\n        /* \"contracts/erc721.sol\":5341:5343  to */\n      dup5\n        /* \"contracts/erc721.sol\":5345:5352  tokenId */\n      dup5\n        /* \"contracts/erc721.sol\":5325:5334  _transfer */\n      tag_124\n        /* \"contracts/erc721.sol\":5325:5353  _transfer(from, to, tokenId) */\n      jump\t// in\n    tag_215:\n        /* \"contracts/erc721.sol\":5372:5419  _checkOnERC721Received(from, to, tokenId, data) */\n      tag_216\n        /* \"contracts/erc721.sol\":5395:5399  from */\n      dup5\n        /* \"contracts/erc721.sol\":5401:5403  to */\n      dup5\n        /* \"contracts/erc721.sol\":5405:5412  tokenId */\n      dup5\n        /* \"contracts/erc721.sol\":5414:5418  data */\n      dup5\n        /* \"contracts/erc721.sol\":5372:5394  _checkOnERC721Received */\n      tag_217\n        /* \"contracts/erc721.sol\":5372:5419  _checkOnERC721Received(from, to, tokenId, data) */\n      jump\t// in\n    tag_216:\n        /* \"contracts/erc721.sol\":5364:5474  require(_checkOnERC721Received(from, to, tokenId, data), \"ERC721: transfer to non ERC721Receiver implementer\") */\n      tag_218\n      jumpi\n      mload(0x40)\n      0x08c379a000000000000000000000000000000000000000000000000000000000\n      dup2\n      mstore\n      0x04\n      add\n      tag_219\n      swap1\n      tag_220\n      jump\t// in\n    tag_219:\n      mload(0x40)\n      dup1\n      swap2\n      sub\n      swap1\n      revert\n    tag_218:\n        /* \"contracts/erc721.sol\":5169:5482  function _safeTransfer(\r... */\n      pop\n      pop\n      pop\n      pop\n      jump\t// out\n        /* \"contracts/erc721.sol\":5899:6009  function _safeMint(address to, uint256 tokenId) internal virtual {\r... */\n    tag_175:\n        /* \"contracts/erc721.sol\":5975:6001  _safeMint(to, tokenId, \"\") */\n      tag_222\n        /* \"contracts/erc721.sol\":5985:5987  to */\n      dup3\n        /* \"contracts/erc721.sol\":5989:5996  tokenId */\n      dup3\n        /* \"contracts/erc721.sol\":5975:6001  _safeMint(to, tokenId, \"\") */\n      mload(0x40)\n      dup1\n      0x20\n      add\n      0x40\n      mstore\n      dup1\n      0x00\n      dup2\n      mstore\n      pop\n        /* \"contracts/erc721.sol\":5975:5984  _safeMint */\n      tag_223\n        /* \"contracts/erc721.sol\":5975:6001  _safeMint(to, tokenId, \"\") */\n      jump\t// in\n    tag_222:\n        /* \"contracts/erc721.sol\":5899:6009  function _safeMint(address to, uint256 tokenId) internal virtual {\r... */\n      pop\n      pop\n      jump\t// out\n        /* \"contracts/erc721.sol\":5490:5617  function _exists(uint256 tokenId) internal view virtual returns (bool) {\r... */\n    tag_181:\n        /* \"contracts/erc721.sol\":5555:5559  bool */\n      0x00\n        /* \"contracts/erc721.sol\":5607:5608  0 */\n      dup1\n        /* \"contracts/erc721.sol\":5579:5609  _owners[tokenId] != address(0) */\n      0xffffffffffffffffffffffffffffffffffffffff\n      and\n        /* \"contracts/erc721.sol\":5579:5586  _owners */\n      0x02\n        /* \"contracts/erc721.sol\":5579:5595  _owners[tokenId] */\n      0x00\n        /* \"contracts/erc721.sol\":5587:5594  tokenId */\n      dup5\n        /* \"contracts/erc721.sol\":5579:5595  _owners[tokenId] */\n      dup2\n      mstore\n      0x20\n      add\n      swap1\n      dup2\n      mstore\n      0x20\n      add\n      0x00\n      keccak256\n      0x00\n      swap1\n      sload\n      swap1\n      0x0100\n      exp\n      swap1\n      div\n      0xffffffffffffffffffffffffffffffffffffffff\n      and\n        /* \"contracts/erc721.sol\":5579:5609  _owners[tokenId] != address(0) */\n      0xffffffffffffffffffffffffffffffffffffffff\n      and\n      eq\n      iszero\n        /* \"contracts/erc721.sol\":5572:5609  return _owners[tokenId] != address(0) */\n      swap1\n      pop\n        /* \"contracts/erc721.sol\":5490:5617  function _exists(uint256 tokenId) internal view virtual returns (bool) {\r... */\n      swap2\n      swap1\n      pop\n      jump\t// out\n        /* \"contracts/erc721.sol\":9900:10026  function _beforeTokenTransfer(\r... */\n    tag_202:\n      pop\n      pop\n      pop\n      jump\t// out\n        /* \"contracts/erc721.sol\":10034:10159  function _afterTokenTransfer(\r... */\n    tag_207:\n      pop\n      pop\n      pop\n      jump\t// out\n        /* \"contracts/erc721.sol\":9037:9890  function _checkOnERC721Received(\r... */\n    tag_217:\n        /* \"contracts/erc721.sol\":9191:9195  bool */\n      0x00\n        /* \"contracts/erc721.sol\":9212:9227  to.isContract() */\n      tag_228\n        /* \"contracts/erc721.sol\":9212:9214  to */\n      dup5\n        /* \"contracts/erc721.sol\":9212:9225  to.isContract */\n      0xffffffffffffffffffffffffffffffffffffffff\n      and\n      tag_229\n        /* \"contracts/erc721.sol\":9212:9227  to.isContract() */\n      jump\t// in\n    tag_228:\n        /* \"contracts/erc721.sol\":9208:9883  if (to.isContract()) {\r... */\n      iszero\n      tag_230\n      jumpi\n        /* \"contracts/erc721.sol\":9264:9266  to */\n      dup4\n        /* \"contracts/erc721.sol\":9248:9284  IERC721Receiver(to).onERC721Received */\n      0xffffffffffffffffffffffffffffffffffffffff\n      and\n      0x150b7a02\n        /* \"contracts/erc721.sol\":9285:9297  _msgSender() */\n      tag_231\n        /* \"contracts/erc721.sol\":9285:9295  _msgSender */\n      tag_107\n        /* \"contracts/erc721.sol\":9285:9297  _msgSender() */\n      jump\t// in\n    tag_231:\n        /* \"contracts/erc721.sol\":9299:9303  from */\n      dup8\n        /* \"contracts/erc721.sol\":9305:9312  tokenId */\n      dup7\n        /* \"contracts/erc721.sol\":9314:9318  data */\n      dup7\n        /* \"contracts/erc721.sol\":9248:9319  IERC721Receiver(to).onERC721Received(_msgSender(), from, tokenId, data) */\n      mload(0x40)\n      dup6\n      0xffffffff\n      and\n      0xe0\n      shl\n      dup2\n      mstore\n      0x04\n      add\n      tag_232\n      swap5\n      swap4\n      swap3\n      swap2\n      swap1\n      tag_233\n      jump\t// in\n    tag_232:\n      0x20\n      mload(0x40)\n      dup1\n      dup4\n      sub\n      dup2\n      0x00\n      dup8\n      dup1\n      extcodesize\n      iszero\n      dup1\n      iszero\n      tag_234\n      jumpi\n      0x00\n      dup1\n      revert\n    tag_234:\n      pop\n      gas\n      call\n      swap3\n      pop\n      pop\n      pop\n      dup1\n      iszero\n      tag_235\n      jumpi\n      pop\n      mload(0x40)\n      returndatasize\n      not(0x1f)\n      0x1f\n      dup3\n      add\n      and\n      dup3\n      add\n      dup1\n      0x40\n      mstore\n      pop\n      dup2\n      add\n      swap1\n      tag_236\n      swap2\n      swap1\n      tag_237\n      jump\t// in\n    tag_236:\n      0x01\n    tag_235:\n        /* \"contracts/erc721.sol\":9244:9828  try IERC721Receiver(to).onERC721Received(_msgSender(), from, tokenId, data) returns (bytes4 retval) {\r... */\n      tag_238\n      jumpi\n      returndatasize\n      dup1\n      0x00\n      dup2\n      eq\n      tag_243\n      jumpi\n      mload(0x40)\n      swap2\n      pop\n      and(add(returndatasize, 0x3f), not(0x1f))\n      dup3\n      add\n      0x40\n      mstore\n      returndatasize\n      dup3\n      mstore\n      returndatasize\n      0x00\n      0x20\n      dup5\n      add\n      returndatacopy\n      jump(tag_242)\n    tag_243:\n      0x60\n      swap2\n      pop\n    tag_242:\n      pop\n        /* \"contracts/erc721.sol\":9506:9507  0 */\n      0x00\n        /* \"contracts/erc721.sol\":9489:9495  reason */\n      dup2\n        /* \"contracts/erc721.sol\":9489:9502  reason.length */\n      mload\n        /* \"contracts/erc721.sol\":9489:9507  reason.length == 0 */\n      eq\n        /* \"contracts/erc721.sol\":9485:9813  if (reason.length == 0) {\r... */\n      iszero\n      tag_244\n      jumpi\n        /* \"contracts/erc721.sol\":9532:9592  revert(\"ERC721: transfer to non ERC721Receiver implementer\") */\n      mload(0x40)\n      0x08c379a000000000000000000000000000000000000000000000000000000000\n      dup2\n      mstore\n      0x04\n      add\n      tag_245\n      swap1\n      tag_220\n      jump\t// in\n    tag_245:\n      mload(0x40)\n      dup1\n      swap2\n      sub\n      swap1\n      revert\n        /* \"contracts/erc721.sol\":9485:9813  if (reason.length == 0) {\r... */\n    tag_244:\n        /* \"contracts/erc721.sol\":9763:9769  reason */\n      dup1\n        /* \"contracts/erc721.sol\":9757:9770  mload(reason) */\n      mload\n        /* \"contracts/erc721.sol\":9748:9754  reason */\n      dup2\n        /* \"contracts/erc721.sol\":9744:9746  32 */\n      0x20\n        /* \"contracts/erc721.sol\":9740:9755  add(32, reason) */\n      add\n        /* \"contracts/erc721.sol\":9733:9771  revert(add(32, reason), mload(reason)) */\n      revert\n        /* \"contracts/erc721.sol\":9244:9828  try IERC721Receiver(to).onERC721Received(_msgSender(), from, tokenId, data) returns (bytes4 retval) {\r... */\n    tag_238:\n        /* \"contracts/erc721.sol\":9380:9421  IERC721Receiver.onERC721Received.selector */\n      shl(0xe0, 0x150b7a02)\n        /* \"contracts/erc721.sol\":9370:9421  retval == IERC721Receiver.onERC721Received.selector */\n      not(0xffffffffffffffffffffffffffffffffffffffffffffffffffffffff)\n      and\n        /* \"contracts/erc721.sol\":9370:9376  retval */\n      dup2\n        /* \"contracts/erc721.sol\":9370:9421  retval == IERC721Receiver.onERC721Received.selector */\n      not(0xffffffffffffffffffffffffffffffffffffffffffffffffffffffff)\n      and\n      eq\n        /* \"contracts/erc721.sol\":9363:9421  return retval == IERC721Receiver.onERC721Received.selector */\n      swap2\n      pop\n      pop\n      jump(tag_227)\n        /* \"contracts/erc721.sol\":9208:9883  if (to.isContract()) {\r... */\n    tag_230:\n        /* \"contracts/erc721.sol\":9867:9871  true */\n      0x01\n        /* \"contracts/erc721.sol\":9860:9871  return true */\n      swap1\n      pop\n        /* \"contracts/erc721.sol\":9037:9890  function _checkOnERC721Received(\r... */\n    tag_227:\n      swap5\n      swap4\n      pop\n      pop\n      pop\n      pop\n      jump\t// out\n        /* \"contracts/erc721.sol\":6017:6336  function _safeMint(\r... */\n    tag_223:\n        /* \"contracts/erc721.sol\":6146:6164  _mint(to, tokenId) */\n      tag_250\n        /* \"contracts/erc721.sol\":6152:6154  to */\n      dup4\n        /* \"contracts/erc721.sol\":6156:6163  tokenId */\n      dup4\n        /* \"contracts/erc721.sol\":6146:6151  _mint */\n      tag_251\n        /* \"contracts/erc721.sol\":6146:6164  _mint(to, tokenId) */\n      jump\t// in\n    tag_250:\n        /* \"contracts/erc721.sol\":6197:6250  _checkOnERC721Received(address(0), to, tokenId, data) */\n      tag_252\n        /* \"contracts/erc721.sol\":6228:6229  0 */\n      0x00\n        /* \"contracts/erc721.sol\":6232:6234  to */\n      dup5\n        /* \"contracts/erc721.sol\":6236:6243  tokenId */\n      dup5\n        /* \"contracts/erc721.sol\":6245:6249  data */\n      dup5\n        /* \"contracts/erc721.sol\":6197:6219  _checkOnERC721Received */\n      tag_217\n        /* \"contracts/erc721.sol\":6197:6250  _checkOnERC721Received(address(0), to, tokenId, data) */\n      jump\t// in\n    tag_252:\n        /* \"contracts/erc721.sol\":6175:6328  require(\r... */\n      tag_253\n      jumpi\n      mload(0x40)\n      0x08c379a000000000000000000000000000000000000000000000000000000000\n      dup2\n      mstore\n      0x04\n      add\n      tag_254\n      swap1\n      tag_220\n      jump\t// in\n    tag_254:\n      mload(0x40)\n      dup1\n      swap2\n      sub\n      swap1\n      revert\n    tag_253:\n        /* \"contracts/erc721.sol\":6017:6336  function _safeMint(\r... */\n      pop\n      pop\n      pop\n      jump\t// out\n        /* \"@openzeppelin/contracts@4.6.0/utils/Address.sol\":1175:1495  function isContract(address account) internal view returns (bool) {... */\n    tag_229:\n        /* \"@openzeppelin/contracts@4.6.0/utils/Address.sol\":1235:1239  bool */\n      0x00\n        /* \"@openzeppelin/contracts@4.6.0/utils/Address.sol\":1487:1488  0 */\n      dup1\n        /* \"@openzeppelin/contracts@4.6.0/utils/Address.sol\":1465:1472  account */\n      dup3\n        /* \"@openzeppelin/contracts@4.6.0/utils/Address.sol\":1465:1484  account.code.length */\n      0xffffffffffffffffffffffffffffffffffffffff\n      and\n      extcodesize\n        /* \"@openzeppelin/contracts@4.6.0/utils/Address.sol\":1465:1488  account.code.length > 0 */\n      gt\n        /* \"@openzeppelin/contracts@4.6.0/utils/Address.sol\":1458:1488  return account.code.length > 0 */\n      swap1\n      pop\n        /* \"@openzeppelin/contracts@4.6.0/utils/Address.sol\":1175:1495  function isContract(address account) internal view returns (bool) {... */\n      swap2\n      swap1\n      pop\n      jump\t// out\n        /* \"contracts/erc721.sol\":6344:6892  function _mint(address to, uint256 tokenId) internal virtual {\r... */\n    tag_251:\n        /* \"contracts/erc721.sol\":6438:6439  0 */\n      0x00\n        /* \"contracts/erc721.sol\":6424:6440  to != address(0) */\n      0xffffffffffffffffffffffffffffffffffffffff\n      and\n        /* \"contracts/erc721.sol\":6424:6426  to */\n      dup3\n        /* \"contracts/erc721.sol\":6424:6440  to != address(0) */\n      0xffffffffffffffffffffffffffffffffffffffff\n      and\n      eq\n      iszero\n        /* \"contracts/erc721.sol\":6416:6477  require(to != address(0), \"ERC721: mint to the zero address\") */\n      tag_257\n      jumpi\n      mload(0x40)\n      0x08c379a000000000000000000000000000000000000000000000000000000000\n      dup2\n      mstore\n      0x04\n      add\n      tag_258\n      swap1\n      tag_259\n      jump\t// in\n    tag_258:\n      mload(0x40)\n      dup1\n      swap2\n      sub\n      swap1\n      revert\n    tag_257:\n        /* \"contracts/erc721.sol\":6497:6513  _exists(tokenId) */\n      tag_260\n        /* \"contracts/erc721.sol\":6505:6512  tokenId */\n      dup2\n        /* \"contracts/erc721.sol\":6497:6504  _exists */\n      tag_181\n        /* \"contracts/erc721.sol\":6497:6513  _exists(tokenId) */\n      jump\t// in\n    tag_260:\n        /* \"contracts/erc721.sol\":6496:6513  !_exists(tokenId) */\n      iszero\n        /* \"contracts/erc721.sol\":6488:6546  require(!_exists(tokenId), \"ERC721: token already minted\") */\n      tag_261\n      jumpi\n      mload(0x40)\n      0x08c379a000000000000000000000000000000000000000000000000000000000\n      dup2\n      mstore\n      0x04\n      add\n      tag_262\n      swap1\n      tag_263\n      jump\t// in\n    tag_262:\n      mload(0x40)\n      dup1\n      swap2\n      sub\n      swap1\n      revert\n    tag_261:\n        /* \"contracts/erc721.sol\":6559:6604  _beforeTokenTransfer(address(0), to, tokenId) */\n      tag_264\n        /* \"contracts/erc721.sol\":6588:6589  0 */\n      0x00\n        /* \"contracts/erc721.sol\":6592:6594  to */\n      dup4\n        /* \"contracts/erc721.sol\":6596:6603  tokenId */\n      dup4\n        /* \"contracts/erc721.sol\":6559:6579  _beforeTokenTransfer */\n      tag_202\n        /* \"contracts/erc721.sol\":6559:6604  _beforeTokenTransfer(address(0), to, tokenId) */\n      jump\t// in\n    tag_264:\n        /* \"contracts/erc721.sol\":6626:6642  _exists(tokenId) */\n      tag_265\n        /* \"contracts/erc721.sol\":6634:6641  tokenId */\n      dup2\n        /* \"contracts/erc721.sol\":6626:6633  _exists */\n      tag_181\n        /* \"contracts/erc721.sol\":6626:6642  _exists(tokenId) */\n      jump\t// in\n    tag_265:\n        /* \"contracts/erc721.sol\":6625:6642  !_exists(tokenId) */\n      iszero\n        /* \"contracts/erc721.sol\":6617:6675  require(!_exists(tokenId), \"ERC721: token already minted\") */\n      tag_266\n      jumpi\n      mload(0x40)\n      0x08c379a000000000000000000000000000000000000000000000000000000000\n      dup2\n      mstore\n      0x04\n      add\n      tag_267\n      swap1\n      tag_263\n      jump\t// in\n    tag_267:\n      mload(0x40)\n      dup1\n      swap2\n      sub\n      swap1\n      revert\n    tag_266:\n        /* \"contracts/erc721.sol\":6730:6731  1 */\n      0x01\n        /* \"contracts/erc721.sol\":6713:6722  _balances */\n      0x03\n        /* \"contracts/erc721.sol\":6713:6726  _balances[to] */\n      0x00\n        /* \"contracts/erc721.sol\":6723:6725  to */\n      dup5\n        /* \"contracts/erc721.sol\":6713:6726  _balances[to] */\n      0xffffffffffffffffffffffffffffffffffffffff\n      and\n      0xffffffffffffffffffffffffffffffffffffffff\n      and\n      dup2\n      mstore\n      0x20\n      add\n      swap1\n      dup2\n      mstore\n      0x20\n      add\n      0x00\n      keccak256\n      0x00\n        /* \"contracts/erc721.sol\":6713:6731  _balances[to] += 1 */\n      dup3\n      dup3\n      sload\n      add\n      swap3\n      pop\n      pop\n      dup2\n      swap1\n      sstore\n      pop\n        /* \"contracts/erc721.sol\":6774:6776  to */\n      dup2\n        /* \"contracts/erc721.sol\":6755:6762  _owners */\n      0x02\n        /* \"contracts/erc721.sol\":6755:6771  _owners[tokenId] */\n      0x00\n        /* \"contracts/erc721.sol\":6763:6770  tokenId */\n      dup4\n        /* \"contracts/erc721.sol\":6755:6771  _owners[tokenId] */\n      dup2\n      mstore\n      0x20\n      add\n      swap1\n      dup2\n      mstore\n      0x20\n      add\n      0x00\n      keccak256\n      0x00\n        /* \"contracts/erc721.sol\":6755:6776  _owners[tokenId] = to */\n      0x0100\n      exp\n      dup2\n      sload\n      dup2\n      0xffffffffffffffffffffffffffffffffffffffff\n      mul\n      not\n      and\n      swap1\n      dup4\n      0xffffffffffffffffffffffffffffffffffffffff\n      and\n      mul\n      or\n      swap1\n      sstore\n      pop\n        /* \"contracts/erc721.sol\":6819:6826  tokenId */\n      dup1\n        /* \"contracts/erc721.sol\":6815:6817  to */\n      dup3\n        /* \"contracts/erc721.sol\":6794:6827  Transfer(address(0), to, tokenId) */\n      0xffffffffffffffffffffffffffffffffffffffff\n      and\n        /* \"contracts/erc721.sol\":6811:6812  0 */\n      0x00\n        /* \"contracts/erc721.sol\":6794:6827  Transfer(address(0), to, tokenId) */\n      0xffffffffffffffffffffffffffffffffffffffff\n      and\n      0xddf252ad1be2c89b69c2b068fc378daa952ba7f163c4a11628f55a4df523b3ef\n      mload(0x40)\n      mload(0x40)\n      dup1\n      swap2\n      sub\n      swap1\n      log4\n        /* \"contracts/erc721.sol\":6840:6884  _afterTokenTransfer(address(0), to, tokenId) */\n      tag_268\n        /* \"contracts/erc721.sol\":6868:6869  0 */\n      0x00\n        /* \"contracts/erc721.sol\":6872:6874  to */\n      dup4\n        /* \"contracts/erc721.sol\":6876:6883  tokenId */\n      dup4\n        /* \"contracts/erc721.sol\":6840:6859  _afterTokenTransfer */\n      tag_207\n        /* \"contracts/erc721.sol\":6840:6884  _afterTokenTransfer(address(0), to, tokenId) */\n      jump\t// in\n    tag_268:\n        /* \"contracts/erc721.sol\":6344:6892  function _mint(address to, uint256 tokenId) internal virtual {\r... */\n      pop\n      pop\n      jump\t// out\n        /* \"#utility.yul\":7:350   */\n    tag_270:\n        /* \"#utility.yul\":84:89   */\n      0x00\n        /* \"#utility.yul\":109:174   */\n      tag_272\n        /* \"#utility.yul\":125:173   */\n      tag_273\n        /* \"#utility.yul\":166:172   */\n      dup5\n        /* \"#utility.yul\":125:173   */\n      tag_274\n      jump\t// in\n    tag_273:\n        /* \"#utility.yul\":109:174   */\n      tag_275\n      jump\t// in\n    tag_272:\n        /* \"#utility.yul\":100:174   */\n      swap1\n      pop\n        /* \"#utility.yul\":197:203   */\n      dup3\n        /* \"#utility.yul\":190:195   */\n      dup2\n        /* \"#utility.yul\":183:204   */\n      mstore\n        /* \"#utility.yul\":235:239   */\n      0x20\n        /* \"#utility.yul\":228:233   */\n      dup2\n        /* \"#utility.yul\":224:240   */\n      add\n        /* \"#utility.yul\":273:276   */\n      dup5\n        /* \"#utility.yul\":264:270   */\n      dup5\n        /* \"#utility.yul\":259:262   */\n      dup5\n        /* \"#utility.yul\":255:271   */\n      add\n        /* \"#utility.yul\":252:277   */\n      gt\n        /* \"#utility.yul\":249:251   */\n      iszero\n      tag_276\n      jumpi\n        /* \"#utility.yul\":290:291   */\n      0x00\n        /* \"#utility.yul\":287:288   */\n      dup1\n        /* \"#utility.yul\":280:292   */\n      revert\n        /* \"#utility.yul\":249:251   */\n    tag_276:\n        /* \"#utility.yul\":303:344   */\n      tag_277\n        /* \"#utility.yul\":337:343   */\n      dup5\n        /* \"#utility.yul\":332:335   */\n      dup3\n        /* \"#utility.yul\":327:330   */\n      dup6\n        /* \"#utility.yul\":303:344   */\n      tag_278\n      jump\t// in\n    tag_277:\n        /* \"#utility.yul\":90:350   */\n      pop\n      swap4\n      swap3\n      pop\n      pop\n      pop\n      jump\t// out\n        /* \"#utility.yul\":356:701   */\n    tag_279:\n        /* \"#utility.yul\":434:439   */\n      0x00\n        /* \"#utility.yul\":459:525   */\n      tag_281\n        /* \"#utility.yul\":475:524   */\n      tag_282\n        /* \"#utility.yul\":517:523   */\n      dup5\n        /* \"#utility.yul\":475:524   */\n      tag_283\n      jump\t// in\n    tag_282:\n        /* \"#utility.yul\":459:525   */\n      tag_275\n      jump\t// in\n    tag_281:\n        /* \"#utility.yul\":450:525   */\n      swap1\n      pop\n        /* \"#utility.yul\":548:554   */\n      dup3\n        /* \"#utility.yul\":541:546   */\n      dup2\n        /* \"#utility.yul\":534:555   */\n      mstore\n        /* \"#utility.yul\":586:590   */\n      0x20\n        /* \"#utility.yul\":579:584   */\n      dup2\n        /* \"#utility.yul\":575:591   */\n      add\n        /* \"#utility.yul\":624:627   */\n      dup5\n        /* \"#utility.yul\":615:621   */\n      dup5\n        /* \"#utility.yul\":610:613   */\n      dup5\n        /* \"#utility.yul\":606:622   */\n      add\n        /* \"#utility.yul\":603:628   */\n      gt\n        /* \"#utility.yul\":600:602   */\n      iszero\n      tag_284\n      jumpi\n        /* \"#utility.yul\":641:642   */\n      0x00\n        /* \"#utility.yul\":638:639   */\n      dup1\n        /* \"#utility.yul\":631:643   */\n      revert\n        /* \"#utility.yul\":600:602   */\n    tag_284:\n        /* \"#utility.yul\":654:695   */\n      tag_285\n        /* \"#utility.yul\":688:694   */\n      dup5\n        /* \"#utility.yul\":683:686   */\n      dup3\n        /* \"#utility.yul\":678:681   */\n      dup6\n        /* \"#utility.yul\":654:695   */\n      tag_278\n      jump\t// in\n    tag_285:\n        /* \"#utility.yul\":440:701   */\n      pop\n      swap4\n      swap3\n      pop\n      pop\n      pop\n      jump\t// out\n        /* \"#utility.yul\":707:846   */\n    tag_286:\n        /* \"#utility.yul\":753:758   */\n      0x00\n        /* \"#utility.yul\":791:797   */\n      dup2\n        /* \"#utility.yul\":778:798   */\n      calldataload\n        /* \"#utility.yul\":769:798   */\n      swap1\n      pop\n        /* \"#utility.yul\":807:840   */\n      tag_288\n        /* \"#utility.yul\":834:839   */\n      dup2\n        /* \"#utility.yul\":807:840   */\n      tag_289\n      jump\t// in\n    tag_288:\n        /* \"#utility.yul\":759:846   */\n      swap3\n      swap2\n      pop\n      pop\n      jump\t// out\n        /* \"#utility.yul\":852:985   */\n    tag_290:\n        /* \"#utility.yul\":895:900   */\n      0x00\n        /* \"#utility.yul\":933:939   */\n      dup2\n        /* \"#utility.yul\":920:940   */\n      calldataload\n        /* \"#utility.yul\":911:940   */\n      swap1\n      pop\n        /* \"#utility.yul\":949:979   */\n      tag_292\n        /* \"#utility.yul\":973:978   */\n      dup2\n        /* \"#utility.yul\":949:979   */\n      tag_293\n      jump\t// in\n    tag_292:\n        /* \"#utility.yul\":901:985   */\n      swap3\n      swap2\n      pop\n      pop\n      jump\t// out\n        /* \"#utility.yul\":991:1128   */\n    tag_294:\n        /* \"#utility.yul\":1036:1041   */\n      0x00\n        /* \"#utility.yul\":1074:1080   */\n      dup2\n        /* \"#utility.yul\":1061:1081   */\n      calldataload\n        /* \"#utility.yul\":1052:1081   */\n      swap1\n      pop\n        /* \"#utility.yul\":1090:1122   */\n      tag_296\n        /* \"#utility.yul\":1116:1121   */\n      dup2\n        /* \"#utility.yul\":1090:1122   */\n      tag_297\n      jump\t// in\n    tag_296:\n        /* \"#utility.yul\":1042:1128   */\n      swap3\n      swap2\n      pop\n      pop\n      jump\t// out\n        /* \"#utility.yul\":1134:1275   */\n    tag_298:\n        /* \"#utility.yul\":1190:1195   */\n      0x00\n        /* \"#utility.yul\":1221:1227   */\n      dup2\n        /* \"#utility.yul\":1215:1228   */\n      mload\n        /* \"#utility.yul\":1206:1228   */\n      swap1\n      pop\n        /* \"#utility.yul\":1237:1269   */\n      tag_300\n        /* \"#utility.yul\":1263:1268   */\n      dup2\n        /* \"#utility.yul\":1237:1269   */\n      tag_297\n      jump\t// in\n    tag_300:\n        /* \"#utility.yul\":1196:1275   */\n      swap3\n      swap2\n      pop\n      pop\n      jump\t// out\n        /* \"#utility.yul\":1294:1565   */\n    tag_301:\n        /* \"#utility.yul\":1349:1354   */\n      0x00\n        /* \"#utility.yul\":1398:1401   */\n      dup3\n        /* \"#utility.yul\":1391:1395   */\n      0x1f\n        /* \"#utility.yul\":1383:1389   */\n      dup4\n        /* \"#utility.yul\":1379:1396   */\n      add\n        /* \"#utility.yul\":1375:1402   */\n      slt\n        /* \"#utility.yul\":1365:1367   */\n      tag_303\n      jumpi\n        /* \"#utility.yul\":1416:1417   */\n      0x00\n        /* \"#utility.yul\":1413:1414   */\n      dup1\n        /* \"#utility.yul\":1406:1418   */\n      revert\n        /* \"#utility.yul\":1365:1367   */\n    tag_303:\n        /* \"#utility.yul\":1456:1462   */\n      dup2\n        /* \"#utility.yul\":1443:1463   */\n      calldataload\n        /* \"#utility.yul\":1481:1559   */\n      tag_304\n        /* \"#utility.yul\":1555:1558   */\n      dup5\n        /* \"#utility.yul\":1547:1553   */\n      dup3\n        /* \"#utility.yul\":1540:1544   */\n      0x20\n        /* \"#utility.yul\":1532:1538   */\n      dup7\n        /* \"#utility.yul\":1528:1545   */\n      add\n        /* \"#utility.yul\":1481:1559   */\n      tag_270\n      jump\t// in\n    tag_304:\n        /* \"#utility.yul\":1472:1559   */\n      swap2\n      pop\n        /* \"#utility.yul\":1355:1565   */\n      pop\n      swap3\n      swap2\n      pop\n      pop\n      jump\t// out\n        /* \"#utility.yul\":1585:1858   */\n    tag_305:\n        /* \"#utility.yul\":1641:1646   */\n      0x00\n        /* \"#utility.yul\":1690:1693   */\n      dup3\n        /* \"#utility.yul\":1683:1687   */\n      0x1f\n        /* \"#utility.yul\":1675:1681   */\n      dup4\n        /* \"#utility.yul\":1671:1688   */\n      add\n        /* \"#utility.yul\":1667:1694   */\n      slt\n        /* \"#utility.yul\":1657:1659   */\n      tag_307\n      jumpi\n        /* \"#utility.yul\":1708:1709   */\n      0x00\n        /* \"#utility.yul\":1705:1706   */\n      dup1\n        /* \"#utility.yul\":1698:1710   */\n      revert\n        /* \"#utility.yul\":1657:1659   */\n    tag_307:\n        /* \"#utility.yul\":1748:1754   */\n      dup2\n        /* \"#utility.yul\":1735:1755   */\n      calldataload\n        /* \"#utility.yul\":1773:1852   */\n      tag_308\n        /* \"#utility.yul\":1848:1851   */\n      dup5\n        /* \"#utility.yul\":1840:1846   */\n      dup3\n        /* \"#utility.yul\":1833:1837   */\n      0x20\n        /* \"#utility.yul\":1825:1831   */\n      dup7\n        /* \"#utility.yul\":1821:1838   */\n      add\n        /* \"#utility.yul\":1773:1852   */\n      tag_279\n      jump\t// in\n    tag_308:\n        /* \"#utility.yul\":1764:1852   */\n      swap2\n      pop\n        /* \"#utility.yul\":1647:1858   */\n      pop\n      swap3\n      swap2\n      pop\n      pop\n      jump\t// out\n        /* \"#utility.yul\":1864:2003   */\n    tag_309:\n        /* \"#utility.yul\":1910:1915   */\n      0x00\n        /* \"#utility.yul\":1948:1954   */\n      dup2\n        /* \"#utility.yul\":1935:1955   */\n      calldataload\n        /* \"#utility.yul\":1926:1955   */\n      swap1\n      pop\n        /* \"#utility.yul\":1964:1997   */\n      tag_311\n        /* \"#utility.yul\":1991:1996   */\n      dup2\n        /* \"#utility.yul\":1964:1997   */\n      tag_312\n      jump\t// in\n    tag_311:\n        /* \"#utility.yul\":1916:2003   */\n      swap3\n      swap2\n      pop\n      pop\n      jump\t// out\n        /* \"#utility.yul\":2009:2271   */\n    tag_54:\n        /* \"#utility.yul\":2068:2074   */\n      0x00\n        /* \"#utility.yul\":2117:2119   */\n      0x20\n        /* \"#utility.yul\":2105:2114   */\n      dup3\n        /* \"#utility.yul\":2096:2103   */\n      dup5\n        /* \"#utility.yul\":2092:2115   */\n      sub\n        /* \"#utility.yul\":2088:2120   */\n      slt\n        /* \"#utility.yul\":2085:2087   */\n      iszero\n      tag_314\n      jumpi\n        /* \"#utility.yul\":2133:2134   */\n      0x00\n        /* \"#utility.yul\":2130:2131   */\n      dup1\n        /* \"#utility.yul\":2123:2135   */\n      revert\n        /* \"#utility.yul\":2085:2087   */\n    tag_314:\n        /* \"#utility.yul\":2176:2177   */\n      0x00\n        /* \"#utility.yul\":2201:2254   */\n      tag_315\n        /* \"#utility.yul\":2246:2253   */\n      dup5\n        /* \"#utility.yul\":2237:2243   */\n      dup3\n        /* \"#utility.yul\":2226:2235   */\n      dup6\n        /* \"#utility.yul\":2222:2244   */\n      add\n        /* \"#utility.yul\":2201:2254   */\n      tag_286\n      jump\t// in\n    tag_315:\n        /* \"#utility.yul\":2191:2254   */\n      swap2\n      pop\n        /* \"#utility.yul\":2147:2264   */\n      pop\n        /* \"#utility.yul\":2075:2271   */\n      swap3\n      swap2\n      pop\n      pop\n      jump\t// out\n        /* \"#utility.yul\":2277:2684   */\n    tag_83:\n        /* \"#utility.yul\":2345:2351   */\n      0x00\n        /* \"#utility.yul\":2353:2359   */\n      dup1\n        /* \"#utility.yul\":2402:2404   */\n      0x40\n        /* \"#utility.yul\":2390:2399   */\n      dup4\n        /* \"#utility.yul\":2381:2388   */\n      dup6\n        /* \"#utility.yul\":2377:2400   */\n      sub\n        /* \"#utility.yul\":2373:2405   */\n      slt\n        /* \"#utility.yul\":2370:2372   */\n      iszero\n      tag_317\n      jumpi\n        /* \"#utility.yul\":2418:2419   */\n      0x00\n        /* \"#utility.yul\":2415:2416   */\n      dup1\n        /* \"#utility.yul\":2408:2420   */\n      revert\n        /* \"#utility.yul\":2370:2372   */\n    tag_317:\n        /* \"#utility.yul\":2461:2462   */\n      0x00\n        /* \"#utility.yul\":2486:2539   */\n      tag_318\n        /* \"#utility.yul\":2531:2538   */\n      dup6\n        /* \"#utility.yul\":2522:2528   */\n      dup3\n        /* \"#utility.yul\":2511:2520   */\n      dup7\n        /* \"#utility.yul\":2507:2529   */\n      add\n        /* \"#utility.yul\":2486:2539   */\n      tag_286\n      jump\t// in\n    tag_318:\n        /* \"#utility.yul\":2476:2539   */\n      swap3\n      pop\n        /* \"#utility.yul\":2432:2549   */\n      pop\n        /* \"#utility.yul\":2588:2590   */\n      0x20\n        /* \"#utility.yul\":2614:2667   */\n      tag_319\n        /* \"#utility.yul\":2659:2666   */\n      dup6\n        /* \"#utility.yul\":2650:2656   */\n      dup3\n        /* \"#utility.yul\":2639:2648   */\n      dup7\n        /* \"#utility.yul\":2635:2657   */\n      add\n        /* \"#utility.yul\":2614:2667   */\n      tag_286\n      jump\t// in\n    tag_319:\n        /* \"#utility.yul\":2604:2667   */\n      swap2\n      pop\n        /* \"#utility.yul\":2559:2677   */\n      pop\n        /* \"#utility.yul\":2360:2684   */\n      swap3\n      pop\n      swap3\n      swap1\n      pop\n      jump\t// out\n        /* \"#utility.yul\":2690:3242   */\n    tag_43:\n        /* \"#utility.yul\":2767:2773   */\n      0x00\n        /* \"#utility.yul\":2775:2781   */\n      dup1\n        /* \"#utility.yul\":2783:2789   */\n      0x00\n        /* \"#utility.yul\":2832:2834   */\n      0x60\n        /* \"#utility.yul\":2820:2829   */\n      dup5\n        /* \"#utility.yul\":2811:2818   */\n      dup7\n        /* \"#utility.yul\":2807:2830   */\n      sub\n        /* \"#utility.yul\":2803:2835   */\n      slt\n        /* \"#utility.yul\":2800:2802   */\n      iszero\n      tag_321\n      jumpi\n        /* \"#utility.yul\":2848:2849   */\n      0x00\n        /* \"#utility.yul\":2845:2846   */\n      dup1\n        /* \"#utility.yul\":2838:2850   */\n      revert\n        /* \"#utility.yul\":2800:2802   */\n    tag_321:\n        /* \"#utility.yul\":2891:2892   */\n      0x00\n        /* \"#utility.yul\":2916:2969   */\n      tag_322\n        /* \"#utility.yul\":2961:2968   */\n      dup7\n        /* \"#utility.yul\":2952:2958   */\n      dup3\n        /* \"#utility.yul\":2941:2950   */\n      dup8\n        /* \"#utility.yul\":2937:2959   */\n      add\n        /* \"#utility.yul\":2916:2969   */\n      tag_286\n      jump\t// in\n    tag_322:\n        /* \"#utility.yul\":2906:2969   */\n      swap4\n      pop\n        /* \"#utility.yul\":2862:2979   */\n      pop\n        /* \"#utility.yul\":3018:3020   */\n      0x20\n        /* \"#utility.yul\":3044:3097   */\n      tag_323\n        /* \"#utility.yul\":3089:3096   */\n      dup7\n        /* \"#utility.yul\":3080:3086   */\n      dup3\n        /* \"#utility.yul\":3069:3078   */\n      dup8\n        /* \"#utility.yul\":3065:3087   */\n      add\n        /* \"#utility.yul\":3044:3097   */\n      tag_286\n      jump\t// in\n    tag_323:\n        /* \"#utility.yul\":3034:3097   */\n      swap3\n      pop\n        /* \"#utility.yul\":2989:3107   */\n      pop\n        /* \"#utility.yul\":3146:3148   */\n      0x40\n        /* \"#utility.yul\":3172:3225   */\n      tag_324\n        /* \"#utility.yul\":3217:3224   */\n      dup7\n        /* \"#utility.yul\":3208:3214   */\n      dup3\n        /* \"#utility.yul\":3197:3206   */\n      dup8\n        /* \"#utility.yul\":3193:3215   */\n      add\n        /* \"#utility.yul\":3172:3225   */\n      tag_309\n      jump\t// in\n    tag_324:\n        /* \"#utility.yul\":3162:3225   */\n      swap2\n      pop\n        /* \"#utility.yul\":3117:3235   */\n      pop\n        /* \"#utility.yul\":2790:3242   */\n      swap3\n      pop\n      swap3\n      pop\n      swap3\n      jump\t// out\n        /* \"#utility.yul\":3248:4057   */\n    tag_71:\n        /* \"#utility.yul\":3343:3349   */\n      0x00\n        /* \"#utility.yul\":3351:3357   */\n      dup1\n        /* \"#utility.yul\":3359:3365   */\n      0x00\n        /* \"#utility.yul\":3367:3373   */\n      dup1\n        /* \"#utility.yul\":3416:3419   */\n      0x80\n        /* \"#utility.yul\":3404:3413   */\n      dup6\n        /* \"#utility.yul\":3395:3402   */\n      dup8\n        /* \"#utility.yul\":3391:3414   */\n      sub\n        /* \"#utility.yul\":3387:3420   */\n      slt\n        /* \"#utility.yul\":3384:3386   */\n      iszero\n      tag_326\n      jumpi\n        /* \"#utility.yul\":3433:3434   */\n      0x00\n        /* \"#utility.yul\":3430:3431   */\n      dup1\n        /* \"#utility.yul\":3423:3435   */\n      revert\n        /* \"#utility.yul\":3384:3386   */\n    tag_326:\n        /* \"#utility.yul\":3476:3477   */\n      0x00\n        /* \"#utility.yul\":3501:3554   */\n      tag_327\n        /* \"#utility.yul\":3546:3553   */\n      dup8\n        /* \"#utility.yul\":3537:3543   */\n      dup3\n        /* \"#utility.yul\":3526:3535   */\n      dup9\n        /* \"#utility.yul\":3522:3544   */\n      add\n        /* \"#utility.yul\":3501:3554   */\n      tag_286\n      jump\t// in\n    tag_327:\n        /* \"#utility.yul\":3491:3554   */\n      swap5\n      pop\n        /* \"#utility.yul\":3447:3564   */\n      pop\n        /* \"#utility.yul\":3603:3605   */\n      0x20\n        /* \"#utility.yul\":3629:3682   */\n      tag_328\n        /* \"#utility.yul\":3674:3681   */\n      dup8\n        /* \"#utility.yul\":3665:3671   */\n      dup3\n        /* \"#utility.yul\":3654:3663   */\n      dup9\n        /* \"#utility.yul\":3650:3672   */\n      add\n        /* \"#utility.yul\":3629:3682   */\n      tag_286\n      jump\t// in\n    tag_328:\n        /* \"#utility.yul\":3619:3682   */\n      swap4\n      pop\n        /* \"#utility.yul\":3574:3692   */\n      pop\n        /* \"#utility.yul\":3731:3733   */\n      0x40\n        /* \"#utility.yul\":3757:3810   */\n      tag_329\n        /* \"#utility.yul\":3802:3809   */\n      dup8\n        /* \"#utility.yul\":3793:3799   */\n      dup3\n        /* \"#utility.yul\":3782:3791   */\n      dup9\n        /* \"#utility.yul\":3778:3800   */\n      add\n        /* \"#utility.yul\":3757:3810   */\n      tag_309\n      jump\t// in\n    tag_329:\n        /* \"#utility.yul\":3747:3810   */\n      swap3\n      pop\n        /* \"#utility.yul\":3702:3820   */\n      pop\n        /* \"#utility.yul\":3887:3889   */\n      0x60\n        /* \"#utility.yul\":3876:3885   */\n      dup6\n        /* \"#utility.yul\":3872:3890   */\n      add\n        /* \"#utility.yul\":3859:3891   */\n      calldataload\n        /* \"#utility.yul\":3918:3936   */\n      0xffffffffffffffff\n        /* \"#utility.yul\":3910:3916   */\n      dup2\n        /* \"#utility.yul\":3907:3937   */\n      gt\n        /* \"#utility.yul\":3904:3906   */\n      iszero\n      tag_330\n      jumpi\n        /* \"#utility.yul\":3950:3951   */\n      0x00\n        /* \"#utility.yul\":3947:3948   */\n      dup1\n        /* \"#utility.yul\":3940:3952   */\n      revert\n        /* \"#utility.yul\":3904:3906   */\n    tag_330:\n        /* \"#utility.yul\":3978:4040   */\n      tag_331\n        /* \"#utility.yul\":4032:4039   */\n      dup8\n        /* \"#utility.yul\":4023:4029   */\n      dup3\n        /* \"#utility.yul\":4012:4021   */\n      dup9\n        /* \"#utility.yul\":4008:4030   */\n      add\n        /* \"#utility.yul\":3978:4040   */\n      tag_301\n      jump\t// in\n    tag_331:\n        /* \"#utility.yul\":3968:4040   */\n      swap2\n      pop\n        /* \"#utility.yul\":3830:4050   */\n      pop\n        /* \"#utility.yul\":3374:4057   */\n      swap3\n      swap6\n      swap2\n      swap5\n      pop\n      swap3\n      pop\n      jump\t// out\n        /* \"#utility.yul\":4063:4464   */\n    tag_67:\n        /* \"#utility.yul\":4128:4134   */\n      0x00\n        /* \"#utility.yul\":4136:4142   */\n      dup1\n        /* \"#utility.yul\":4185:4187   */\n      0x40\n        /* \"#utility.yul\":4173:4182   */\n      dup4\n        /* \"#utility.yul\":4164:4171   */\n      dup6\n        /* \"#utility.yul\":4160:4183   */\n      sub\n        /* \"#utility.yul\":4156:4188   */\n      slt\n        /* \"#utility.yul\":4153:4155   */\n      iszero\n      tag_333\n      jumpi\n        /* \"#utility.yul\":4201:4202   */\n      0x00\n        /* \"#utility.yul\":4198:4199   */\n      dup1\n        /* \"#utility.yul\":4191:4203   */\n      revert\n        /* \"#utility.yul\":4153:4155   */\n    tag_333:\n        /* \"#utility.yul\":4244:4245   */\n      0x00\n        /* \"#utility.yul\":4269:4322   */\n      tag_334\n        /* \"#utility.yul\":4314:4321   */\n      dup6\n        /* \"#utility.yul\":4305:4311   */\n      dup3\n        /* \"#utility.yul\":4294:4303   */\n      dup7\n        /* \"#utility.yul\":4290:4312   */\n      add\n        /* \"#utility.yul\":4269:4322   */\n      tag_286\n      jump\t// in\n    tag_334:\n        /* \"#utility.yul\":4259:4322   */\n      swap3\n      pop\n        /* \"#utility.yul\":4215:4332   */\n      pop\n        /* \"#utility.yul\":4371:4373   */\n      0x20\n        /* \"#utility.yul\":4397:4447   */\n      tag_335\n        /* \"#utility.yul\":4439:4446   */\n      dup6\n        /* \"#utility.yul\":4430:4436   */\n      dup3\n        /* \"#utility.yul\":4419:4428   */\n      dup7\n        /* \"#utility.yul\":4415:4437   */\n      add\n        /* \"#utility.yul\":4397:4447   */\n      tag_290\n      jump\t// in\n    tag_335:\n        /* \"#utility.yul\":4387:4447   */\n      swap2\n      pop\n        /* \"#utility.yul\":4342:4457   */\n      pop\n        /* \"#utility.yul\":4143:4464   */\n      swap3\n      pop\n      swap3\n      swap1\n      pop\n      jump\t// out\n        /* \"#utility.yul\":4470:4877   */\n    tag_39:\n        /* \"#utility.yul\":4538:4544   */\n      0x00\n        /* \"#utility.yul\":4546:4552   */\n      dup1\n        /* \"#utility.yul\":4595:4597   */\n      0x40\n        /* \"#utility.yul\":4583:4592   */\n      dup4\n        /* \"#utility.yul\":4574:4581   */\n      dup6\n        /* \"#utility.yul\":4570:4593   */\n      sub\n        /* \"#utility.yul\":4566:4598   */\n      slt\n        /* \"#utility.yul\":4563:4565   */\n      iszero\n      tag_337\n      jumpi\n        /* \"#utility.yul\":4611:4612   */\n      0x00\n        /* \"#utility.yul\":4608:4609   */\n      dup1\n        /* \"#utility.yul\":4601:4613   */\n      revert\n        /* \"#utility.yul\":4563:4565   */\n    tag_337:\n        /* \"#utility.yul\":4654:4655   */\n      0x00\n        /* \"#utility.yul\":4679:4732   */\n      tag_338\n        /* \"#utility.yul\":4724:4731   */\n      dup6\n        /* \"#utility.yul\":4715:4721   */\n      dup3\n        /* \"#utility.yul\":4704:4713   */\n      dup7\n        /* \"#utility.yul\":4700:4722   */\n      add\n        /* \"#utility.yul\":4679:4732   */\n      tag_286\n      jump\t// in\n    tag_338:\n        /* \"#utility.yul\":4669:4732   */\n      swap3\n      pop\n        /* \"#utility.yul\":4625:4742   */\n      pop\n        /* \"#utility.yul\":4781:4783   */\n      0x20\n        /* \"#utility.yul\":4807:4860   */\n      tag_339\n        /* \"#utility.yul\":4852:4859   */\n      dup6\n        /* \"#utility.yul\":4843:4849   */\n      dup3\n        /* \"#utility.yul\":4832:4841   */\n      dup7\n        /* \"#utility.yul\":4828:4850   */\n      add\n        /* \"#utility.yul\":4807:4860   */\n      tag_309\n      jump\t// in\n    tag_339:\n        /* \"#utility.yul\":4797:4860   */\n      swap2\n      pop\n        /* \"#utility.yul\":4752:4870   */\n      pop\n        /* \"#utility.yul\":4553:4877   */\n      swap3\n      pop\n      swap3\n      swap1\n      pop\n      jump\t// out\n        /* \"#utility.yul\":4883:5548   */\n    tag_79:\n        /* \"#utility.yul\":4970:4976   */\n      0x00\n        /* \"#utility.yul\":4978:4984   */\n      dup1\n        /* \"#utility.yul\":4986:4992   */\n      0x00\n        /* \"#utility.yul\":5035:5037   */\n      0x60\n        /* \"#utility.yul\":5023:5032   */\n      dup5\n        /* \"#utility.yul\":5014:5021   */\n      dup7\n        /* \"#utility.yul\":5010:5033   */\n      sub\n        /* \"#utility.yul\":5006:5038   */\n      slt\n        /* \"#utility.yul\":5003:5005   */\n      iszero\n      tag_341\n      jumpi\n        /* \"#utility.yul\":5051:5052   */\n      0x00\n        /* \"#utility.yul\":5048:5049   */\n      dup1\n        /* \"#utility.yul\":5041:5053   */\n      revert\n        /* \"#utility.yul\":5003:5005   */\n    tag_341:\n        /* \"#utility.yul\":5094:5095   */\n      0x00\n        /* \"#utility.yul\":5119:5172   */\n      tag_342\n        /* \"#utility.yul\":5164:5171   */\n      dup7\n        /* \"#utility.yul\":5155:5161   */\n      dup3\n        /* \"#utility.yul\":5144:5153   */\n      dup8\n        /* \"#utility.yul\":5140:5162   */\n      add\n        /* \"#utility.yul\":5119:5172   */\n      tag_286\n      jump\t// in\n    tag_342:\n        /* \"#utility.yul\":5109:5172   */\n      swap4\n      pop\n        /* \"#utility.yul\":5065:5182   */\n      pop\n        /* \"#utility.yul\":5221:5223   */\n      0x20\n        /* \"#utility.yul\":5247:5300   */\n      tag_343\n        /* \"#utility.yul\":5292:5299   */\n      dup7\n        /* \"#utility.yul\":5283:5289   */\n      dup3\n        /* \"#utility.yul\":5272:5281   */\n      dup8\n        /* \"#utility.yul\":5268:5290   */\n      add\n        /* \"#utility.yul\":5247:5300   */\n      tag_309\n      jump\t// in\n    tag_343:\n        /* \"#utility.yul\":5237:5300   */\n      swap3\n      pop\n        /* \"#utility.yul\":5192:5310   */\n      pop\n        /* \"#utility.yul\":5377:5379   */\n      0x40\n        /* \"#utility.yul\":5366:5375   */\n      dup5\n        /* \"#utility.yul\":5362:5380   */\n      add\n        /* \"#utility.yul\":5349:5381   */\n      calldataload\n        /* \"#utility.yul\":5408:5426   */\n      0xffffffffffffffff\n        /* \"#utility.yul\":5400:5406   */\n      dup2\n        /* \"#utility.yul\":5397:5427   */\n      gt\n        /* \"#utility.yul\":5394:5396   */\n      iszero\n      tag_344\n      jumpi\n        /* \"#utility.yul\":5440:5441   */\n      0x00\n        /* \"#utility.yul\":5437:5438   */\n      dup1\n        /* \"#utility.yul\":5430:5442   */\n      revert\n        /* \"#utility.yul\":5394:5396   */\n    tag_344:\n        /* \"#utility.yul\":5468:5531   */\n      tag_345\n        /* \"#utility.yul\":5523:5530   */\n      dup7\n        /* \"#utility.yul\":5514:5520   */\n      dup3\n        /* \"#utility.yul\":5503:5512   */\n      dup8\n        /* \"#utility.yul\":5499:5521   */\n      add\n        /* \"#utility.yul\":5468:5531   */\n      tag_305\n      jump\t// in\n    tag_345:\n        /* \"#utility.yul\":5458:5531   */\n      swap2\n      pop\n        /* \"#utility.yul\":5320:5541   */\n      pop\n        /* \"#utility.yul\":4993:5548   */\n      swap3\n      pop\n      swap3\n      pop\n      swap3\n      jump\t// out\n        /* \"#utility.yul\":5554:5814   */\n    tag_23:\n        /* \"#utility.yul\":5612:5618   */\n      0x00\n        /* \"#utility.yul\":5661:5663   */\n      0x20\n        /* \"#utility.yul\":5649:5658   */\n      dup3\n        /* \"#utility.yul\":5640:5647   */\n      dup5\n        /* \"#utility.yul\":5636:5659   */\n      sub\n        /* \"#utility.yul\":5632:5664   */\n      slt\n        /* \"#utility.yul\":5629:5631   */\n      iszero\n      tag_347\n      jumpi\n        /* \"#utility.yul\":5677:5678   */\n      0x00\n        /* \"#utility.yul\":5674:5675   */\n      dup1\n        /* \"#utility.yul\":5667:5679   */\n      revert\n        /* \"#utility.yul\":5629:5631   */\n    tag_347:\n        /* \"#utility.yul\":5720:5721   */\n      0x00\n        /* \"#utility.yul\":5745:5797   */\n      tag_348\n        /* \"#utility.yul\":5789:5796   */\n      dup5\n        /* \"#utility.yul\":5780:5786   */\n      dup3\n        /* \"#utility.yul\":5769:5778   */\n      dup6\n        /* \"#utility.yul\":5765:5787   */\n      add\n        /* \"#utility.yul\":5745:5797   */\n      tag_294\n      jump\t// in\n    tag_348:\n        /* \"#utility.yul\":5735:5797   */\n      swap2\n      pop\n        /* \"#utility.yul\":5691:5807   */\n      pop\n        /* \"#utility.yul\":5619:5814   */\n      swap3\n      swap2\n      pop\n      pop\n      jump\t// out\n        /* \"#utility.yul\":5820:6102   */\n    tag_237:\n        /* \"#utility.yul\":5889:5895   */\n      0x00\n        /* \"#utility.yul\":5938:5940   */\n      0x20\n        /* \"#utility.yul\":5926:5935   */\n      dup3\n        /* \"#utility.yul\":5917:5924   */\n      dup5\n        /* \"#utility.yul\":5913:5936   */\n      sub\n        /* \"#utility.yul\":5909:5941   */\n      slt\n        /* \"#utility.yul\":5906:5908   */\n      iszero\n      tag_350\n      jumpi\n        /* \"#utility.yul\":5954:5955   */\n      0x00\n        /* \"#utility.yul\":5951:5952   */\n      dup1\n        /* \"#utility.yul\":5944:5956   */\n      revert\n        /* \"#utility.yul\":5906:5908   */\n    tag_350:\n        /* \"#utility.yul\":5997:5998   */\n      0x00\n        /* \"#utility.yul\":6022:6085   */\n      tag_351\n        /* \"#utility.yul\":6077:6084   */\n      dup5\n        /* \"#utility.yul\":6068:6074   */\n      dup3\n        /* \"#utility.yul\":6057:6066   */\n      dup6\n        /* \"#utility.yul\":6053:6075   */\n      add\n        /* \"#utility.yul\":6022:6085   */\n      tag_298\n      jump\t// in\n    tag_351:\n        /* \"#utility.yul\":6012:6085   */\n      swap2\n      pop\n        /* \"#utility.yul\":5968:6095   */\n      pop\n        /* \"#utility.yul\":5896:6102   */\n      swap3\n      swap2\n      pop\n      pop\n      jump\t// out\n        /* \"#utility.yul\":6108:6370   */\n    tag_33:\n        /* \"#utility.yul\":6167:6173   */\n      0x00\n        /* \"#utility.yul\":6216:6218   */\n      0x20\n        /* \"#utility.yul\":6204:6213   */\n      dup3\n        /* \"#utility.yul\":6195:6202   */\n      dup5\n        /* \"#utility.yul\":6191:6214   */\n      sub\n        /* \"#utility.yul\":6187:6219   */\n      slt\n        /* \"#utility.yul\":6184:6186   */\n      iszero\n      tag_353\n      jumpi\n        /* \"#utility.yul\":6232:6233   */\n      0x00\n        /* \"#utility.yul\":6229:6230   */\n      dup1\n        /* \"#utility.yul\":6222:6234   */\n      revert\n        /* \"#utility.yul\":6184:6186   */\n    tag_353:\n        /* \"#utility.yul\":6275:6276   */\n      0x00\n        /* \"#utility.yul\":6300:6353   */\n      tag_354\n        /* \"#utility.yul\":6345:6352   */\n      dup5\n        /* \"#utility.yul\":6336:6342   */\n      dup3\n        /* \"#utility.yul\":6325:6334   */\n      dup6\n        /* \"#utility.yul\":6321:6343   */\n      add\n        /* \"#utility.yul\":6300:6353   */\n      tag_309\n      jump\t// in\n    tag_354:\n        /* \"#utility.yul\":6290:6353   */\n      swap2\n      pop\n        /* \"#utility.yul\":6246:6363   */\n      pop\n        /* \"#utility.yul\":6174:6370   */\n      swap3\n      swap2\n      pop\n      pop\n      jump\t// out\n        /* \"#utility.yul\":6376:6494   */\n    tag_355:\n        /* \"#utility.yul\":6463:6487   */\n      tag_357\n        /* \"#utility.yul\":6481:6486   */\n      dup2\n        /* \"#utility.yul\":6463:6487   */\n      tag_358\n      jump\t// in\n    tag_357:\n        /* \"#utility.yul\":6458:6461   */\n      dup3\n        /* \"#utility.yul\":6451:6488   */\n      mstore\n        /* \"#utility.yul\":6441:6494   */\n      pop\n      pop\n      jump\t// out\n        /* \"#utility.yul\":6500:6609   */\n    tag_359:\n        /* \"#utility.yul\":6581:6602   */\n      tag_361\n        /* \"#utility.yul\":6596:6601   */\n      dup2\n        /* \"#utility.yul\":6581:6602   */\n      tag_362\n      jump\t// in\n    tag_361:\n        /* \"#utility.yul\":6576:6579   */\n      dup3\n        /* \"#utility.yul\":6569:6603   */\n      mstore\n        /* \"#utility.yul\":6559:6609   */\n      pop\n      pop\n      jump\t// out\n        /* \"#utility.yul\":6615:6975   */\n    tag_363:\n        /* \"#utility.yul\":6701:6704   */\n      0x00\n        /* \"#utility.yul\":6729:6767   */\n      tag_365\n        /* \"#utility.yul\":6761:6766   */\n      dup3\n        /* \"#utility.yul\":6729:6767   */\n      tag_366\n      jump\t// in\n    tag_365:\n        /* \"#utility.yul\":6783:6853   */\n      tag_367\n        /* \"#utility.yul\":6846:6852   */\n      dup2\n        /* \"#utility.yul\":6841:6844   */\n      dup6\n        /* \"#utility.yul\":6783:6853   */\n      tag_368\n      jump\t// in\n    tag_367:\n        /* \"#utility.yul\":6776:6853   */\n      swap4\n      pop\n        /* \"#utility.yul\":6862:6914   */\n      tag_369\n        /* \"#utility.yul\":6907:6913   */\n      dup2\n        /* \"#utility.yul\":6902:6905   */\n      dup6\n        /* \"#utility.yul\":6895:6899   */\n      0x20\n        /* \"#utility.yul\":6888:6893   */\n      dup7\n        /* \"#utility.yul\":6884:6900   */\n      add\n        /* \"#utility.yul\":6862:6914   */\n      tag_370\n      jump\t// in\n    tag_369:\n        /* \"#utility.yul\":6939:6968   */\n      tag_371\n        /* \"#utility.yul\":6961:6967   */\n      dup2\n        /* \"#utility.yul\":6939:6968   */\n      tag_372\n      jump\t// in\n    tag_371:\n        /* \"#utility.yul\":6934:6937   */\n      dup5\n        /* \"#utility.yul\":6930:6969   */\n      add\n        /* \"#utility.yul\":6923:6969   */\n      swap2\n      pop\n        /* \"#utility.yul\":6705:6975   */\n      pop\n      swap3\n      swap2\n      pop\n      pop\n      jump\t// out\n        /* \"#utility.yul\":6981:7345   */\n    tag_373:\n        /* \"#utility.yul\":7069:7072   */\n      0x00\n        /* \"#utility.yul\":7097:7136   */\n      tag_375\n        /* \"#utility.yul\":7130:7135   */\n      dup3\n        /* \"#utility.yul\":7097:7136   */\n      tag_376\n      jump\t// in\n    tag_375:\n        /* \"#utility.yul\":7152:7223   */\n      tag_377\n        /* \"#utility.yul\":7216:7222   */\n      dup2\n        /* \"#utility.yul\":7211:7214   */\n      dup6\n        /* \"#utility.yul\":7152:7223   */\n      tag_378\n      jump\t// in\n    tag_377:\n        /* \"#utility.yul\":7145:7223   */\n      swap4\n      pop\n        /* \"#utility.yul\":7232:7284   */\n      tag_379\n        /* \"#utility.yul\":7277:7283   */\n      dup2\n        /* \"#utility.yul\":7272:7275   */\n      dup6\n        /* \"#utility.yul\":7265:7269   */\n      0x20\n        /* \"#utility.yul\":7258:7263   */\n      dup7\n        /* \"#utility.yul\":7254:7270   */\n      add\n        /* \"#utility.yul\":7232:7284   */\n      tag_370\n      jump\t// in\n    tag_379:\n        /* \"#utility.yul\":7309:7338   */\n      tag_380\n        /* \"#utility.yul\":7331:7337   */\n      dup2\n        /* \"#utility.yul\":7309:7338   */\n      tag_372\n      jump\t// in\n    tag_380:\n        /* \"#utility.yul\":7304:7307   */\n      dup5\n        /* \"#utility.yul\":7300:7339   */\n      add\n        /* \"#utility.yul\":7293:7339   */\n      swap2\n      pop\n        /* \"#utility.yul\":7073:7345   */\n      pop\n      swap3\n      swap2\n      pop\n      pop\n      jump\t// out\n        /* \"#utility.yul\":7351:7728   */\n    tag_381:\n        /* \"#utility.yul\":7457:7460   */\n      0x00\n        /* \"#utility.yul\":7485:7524   */\n      tag_383\n        /* \"#utility.yul\":7518:7523   */\n      dup3\n        /* \"#utility.yul\":7485:7524   */\n      tag_376\n      jump\t// in\n    tag_383:\n        /* \"#utility.yul\":7540:7629   */\n      tag_384\n        /* \"#utility.yul\":7622:7628   */\n      dup2\n        /* \"#utility.yul\":7617:7620   */\n      dup6\n        /* \"#utility.yul\":7540:7629   */\n      tag_385\n      jump\t// in\n    tag_384:\n        /* \"#utility.yul\":7533:7629   */\n      swap4\n      pop\n        /* \"#utility.yul\":7638:7690   */\n      tag_386\n        /* \"#utility.yul\":7683:7689   */\n      dup2\n        /* \"#utility.yul\":7678:7681   */\n      dup6\n        /* \"#utility.yul\":7671:7675   */\n      0x20\n        /* \"#utility.yul\":7664:7669   */\n      dup7\n        /* \"#utility.yul\":7660:7676   */\n      add\n        /* \"#utility.yul\":7638:7690   */\n      tag_370\n      jump\t// in\n    tag_386:\n        /* \"#utility.yul\":7715:7721   */\n      dup1\n        /* \"#utility.yul\":7710:7713   */\n      dup5\n        /* \"#utility.yul\":7706:7722   */\n      add\n        /* \"#utility.yul\":7699:7722   */\n      swap2\n      pop\n        /* \"#utility.yul\":7461:7728   */\n      pop\n      swap3\n      swap2\n      pop\n      pop\n      jump\t// out\n        /* \"#utility.yul\":7734:8100   */\n    tag_387:\n        /* \"#utility.yul\":7876:7879   */\n      0x00\n        /* \"#utility.yul\":7897:7964   */\n      tag_389\n        /* \"#utility.yul\":7961:7963   */\n      0x2d\n        /* \"#utility.yul\":7956:7959   */\n      dup4\n        /* \"#utility.yul\":7897:7964   */\n      tag_378\n      jump\t// in\n    tag_389:\n        /* \"#utility.yul\":7890:7964   */\n      swap2\n      pop\n        /* \"#utility.yul\":7973:8066   */\n      tag_390\n        /* \"#utility.yul\":8062:8065   */\n      dup3\n        /* \"#utility.yul\":7973:8066   */\n      tag_391\n      jump\t// in\n    tag_390:\n        /* \"#utility.yul\":8091:8093   */\n      0x40\n        /* \"#utility.yul\":8086:8089   */\n      dup3\n        /* \"#utility.yul\":8082:8094   */\n      add\n        /* \"#utility.yul\":8075:8094   */\n      swap1\n      pop\n        /* \"#utility.yul\":7880:8100   */\n      swap2\n      swap1\n      pop\n      jump\t// out\n        /* \"#utility.yul\":8106:8472   */\n    tag_392:\n        /* \"#utility.yul\":8248:8251   */\n      0x00\n        /* \"#utility.yul\":8269:8336   */\n      tag_394\n        /* \"#utility.yul\":8333:8335   */\n      0x32\n        /* \"#utility.yul\":8328:8331   */\n      dup4\n        /* \"#utility.yul\":8269:8336   */\n      tag_378\n      jump\t// in\n    tag_394:\n        /* \"#utility.yul\":8262:8336   */\n      swap2\n      pop\n        /* \"#utility.yul\":8345:8438   */\n      tag_395\n        /* \"#utility.yul\":8434:8437   */\n      dup3\n        /* \"#utility.yul\":8345:8438   */\n      tag_396\n      jump\t// in\n    tag_395:\n        /* \"#utility.yul\":8463:8465   */\n      0x40\n        /* \"#utility.yul\":8458:8461   */\n      dup3\n        /* \"#utility.yul\":8454:8466   */\n      add\n        /* \"#utility.yul\":8447:8466   */\n      swap1\n      pop\n        /* \"#utility.yul\":8252:8472   */\n      swap2\n      swap1\n      pop\n      jump\t// out\n        /* \"#utility.yul\":8478:8844   */\n    tag_397:\n        /* \"#utility.yul\":8620:8623   */\n      0x00\n        /* \"#utility.yul\":8641:8708   */\n      tag_399\n        /* \"#utility.yul\":8705:8707   */\n      0x25\n        /* \"#utility.yul\":8700:8703   */\n      dup4\n        /* \"#utility.yul\":8641:8708   */\n      tag_378\n      jump\t// in\n    tag_399:\n        /* \"#utility.yul\":8634:8708   */\n      swap2\n      pop\n        /* \"#utility.yul\":8717:8810   */\n      tag_400\n        /* \"#utility.yul\":8806:8809   */\n      dup3\n        /* \"#utility.yul\":8717:8810   */\n      tag_401\n      jump\t// in\n    tag_400:\n        /* \"#utility.yul\":8835:8837   */\n      0x40\n        /* \"#utility.yul\":8830:8833   */\n      dup3\n        /* \"#utility.yul\":8826:8838   */\n      add\n        /* \"#utility.yul\":8819:8838   */\n      swap1\n      pop\n        /* \"#utility.yul\":8624:8844   */\n      swap2\n      swap1\n      pop\n      jump\t// out\n        /* \"#utility.yul\":8850:9216   */\n    tag_402:\n        /* \"#utility.yul\":8992:8995   */\n      0x00\n        /* \"#utility.yul\":9013:9080   */\n      tag_404\n        /* \"#utility.yul\":9077:9079   */\n      0x1c\n        /* \"#utility.yul\":9072:9075   */\n      dup4\n        /* \"#utility.yul\":9013:9080   */\n      tag_378\n      jump\t// in\n    tag_404:\n        /* \"#utility.yul\":9006:9080   */\n      swap2\n      pop\n        /* \"#utility.yul\":9089:9182   */\n      tag_405\n        /* \"#utility.yul\":9178:9181   */\n      dup3\n        /* \"#utility.yul\":9089:9182   */\n      tag_406\n      jump\t// in\n    tag_405:\n        /* \"#utility.yul\":9207:9209   */\n      0x20\n        /* \"#utility.yul\":9202:9205   */\n      dup3\n        /* \"#utility.yul\":9198:9210   */\n      add\n        /* \"#utility.yul\":9191:9210   */\n      swap1\n      pop\n        /* \"#utility.yul\":8996:9216   */\n      swap2\n      swap1\n      pop\n      jump\t// out\n        /* \"#utility.yul\":9222:9588   */\n    tag_407:\n        /* \"#utility.yul\":9364:9367   */\n      0x00\n        /* \"#utility.yul\":9385:9452   */\n      tag_409\n        /* \"#utility.yul\":9449:9451   */\n      0x24\n        /* \"#utility.yul\":9444:9447   */\n      dup4\n        /* \"#utility.yul\":9385:9452   */\n      tag_378\n      jump\t// in\n    tag_409:\n        /* \"#utility.yul\":9378:9452   */\n      swap2\n      pop\n        /* \"#utility.yul\":9461:9554   */\n      tag_410\n        /* \"#utility.yul\":9550:9553   */\n      dup3\n        /* \"#utility.yul\":9461:9554   */\n      tag_411\n      jump\t// in\n    tag_410:\n        /* \"#utility.yul\":9579:9581   */\n      0x40\n        /* \"#utility.yul\":9574:9577   */\n      dup3\n        /* \"#utility.yul\":9570:9582   */\n      add\n        /* \"#utility.yul\":9563:9582   */\n      swap1\n      pop\n        /* \"#utility.yul\":9368:9588   */\n      swap2\n      swap1\n      pop\n      jump\t// out\n        /* \"#utility.yul\":9594:9960   */\n    tag_412:\n        /* \"#utility.yul\":9736:9739   */\n      0x00\n        /* \"#utility.yul\":9757:9824   */\n      tag_414\n        /* \"#utility.yul\":9821:9823   */\n      0x19\n        /* \"#utility.yul\":9816:9819   */\n      dup4\n        /* \"#utility.yul\":9757:9824   */\n      tag_378\n      jump\t// in\n    tag_414:\n        /* \"#utility.yul\":9750:9824   */\n      swap2\n      pop\n        /* \"#utility.yul\":9833:9926   */\n      tag_415\n        /* \"#utility.yul\":9922:9925   */\n      dup3\n        /* \"#utility.yul\":9833:9926   */\n      tag_416\n      jump\t// in\n    tag_415:\n        /* \"#utility.yul\":9951:9953   */\n      0x20\n        /* \"#utility.yul\":9946:9949   */\n      dup3\n        /* \"#utility.yul\":9942:9954   */\n      add\n        /* \"#utility.yul\":9935:9954   */\n      swap1\n      pop\n        /* \"#utility.yul\":9740:9960   */\n      swap2\n      swap1\n      pop\n      jump\t// out\n        /* \"#utility.yul\":9966:10332   */\n    tag_417:\n        /* \"#utility.yul\":10108:10111   */\n      0x00\n        /* \"#utility.yul\":10129:10196   */\n      tag_419\n        /* \"#utility.yul\":10193:10195   */\n      0x29\n        /* \"#utility.yul\":10188:10191   */\n      dup4\n        /* \"#utility.yul\":10129:10196   */\n      tag_378\n      jump\t// in\n    tag_419:\n        /* \"#utility.yul\":10122:10196   */\n      swap2\n      pop\n        /* \"#utility.yul\":10205:10298   */\n      tag_420\n        /* \"#utility.yul\":10294:10297   */\n      dup3\n        /* \"#utility.yul\":10205:10298   */\n      tag_421\n      jump\t// in\n    tag_420:\n        /* \"#utility.yul\":10323:10325   */\n      0x40\n        /* \"#utility.yul\":10318:10321   */\n      dup3\n        /* \"#utility.yul\":10314:10326   */\n      add\n        /* \"#utility.yul\":10307:10326   */\n      swap1\n      pop\n        /* \"#utility.yul\":10112:10332   */\n      swap2\n      swap1\n      pop\n      jump\t// out\n        /* \"#utility.yul\":10338:10704   */\n    tag_422:\n        /* \"#utility.yul\":10480:10483   */\n      0x00\n        /* \"#utility.yul\":10501:10568   */\n      tag_424\n        /* \"#utility.yul\":10565:10567   */\n      0x20\n        /* \"#utility.yul\":10560:10563   */\n      dup4\n        /* \"#utility.yul\":10501:10568   */\n      tag_378\n      jump\t// in\n    tag_424:\n        /* \"#utility.yul\":10494:10568   */\n      swap2\n      pop\n        /* \"#utility.yul\":10577:10670   */\n      tag_425\n        /* \"#utility.yul\":10666:10669   */\n      dup3\n        /* \"#utility.yul\":10577:10670   */\n      tag_426\n      jump\t// in\n    tag_425:\n        /* \"#utility.yul\":10695:10697   */\n      0x20\n        /* \"#utility.yul\":10690:10693   */\n      dup3\n        /* \"#utility.yul\":10686:10698   */\n      add\n        /* \"#utility.yul\":10679:10698   */\n      swap1\n      pop\n        /* \"#utility.yul\":10484:10704   */\n      swap2\n      swap1\n      pop\n      jump\t// out\n        /* \"#utility.yul\":10710:11076   */\n    tag_427:\n        /* \"#utility.yul\":10852:10855   */\n      0x00\n        /* \"#utility.yul\":10873:10940   */\n      tag_429\n        /* \"#utility.yul\":10937:10939   */\n      0x18\n        /* \"#utility.yul\":10932:10935   */\n      dup4\n        /* \"#utility.yul\":10873:10940   */\n      tag_378\n      jump\t// in\n    tag_429:\n        /* \"#utility.yul\":10866:10940   */\n      swap2\n      pop\n        /* \"#utility.yul\":10949:11042   */\n      tag_430\n        /* \"#utility.yul\":11038:11041   */\n      dup3\n        /* \"#utility.yul\":10949:11042   */\n      tag_431\n      jump\t// in\n    tag_430:\n        /* \"#utility.yul\":11067:11069   */\n      0x20\n        /* \"#utility.yul\":11062:11065   */\n      dup3\n        /* \"#utility.yul\":11058:11070   */\n      add\n        /* \"#utility.yul\":11051:11070   */\n      swap1\n      pop\n        /* \"#utility.yul\":10856:11076   */\n      swap2\n      swap1\n      pop\n      jump\t// out\n        /* \"#utility.yul\":11082:11448   */\n    tag_432:\n        /* \"#utility.yul\":11224:11227   */\n      0x00\n        /* \"#utility.yul\":11245:11312   */\n      tag_434\n        /* \"#utility.yul\":11309:11311   */\n      0x21\n        /* \"#utility.yul\":11304:11307   */\n      dup4\n        /* \"#utility.yul\":11245:11312   */\n      tag_378\n      jump\t// in\n    tag_434:\n        /* \"#utility.yul\":11238:11312   */\n      swap2\n      pop\n        /* \"#utility.yul\":11321:11414   */\n      tag_435\n        /* \"#utility.yul\":11410:11413   */\n      dup3\n        /* \"#utility.yul\":11321:11414   */\n      tag_436\n      jump\t// in\n    tag_435:\n        /* \"#utility.yul\":11439:11441   */\n      0x40\n        /* \"#utility.yul\":11434:11437   */\n      dup3\n        /* \"#utility.yul\":11430:11442   */\n      add\n        /* \"#utility.yul\":11423:11442   */\n      swap1\n      pop\n        /* \"#utility.yul\":11228:11448   */\n      swap2\n      swap1\n      pop\n      jump\t// out\n        /* \"#utility.yul\":11454:11820   */\n    tag_437:\n        /* \"#utility.yul\":11596:11599   */\n      0x00\n        /* \"#utility.yul\":11617:11684   */\n      tag_439\n        /* \"#utility.yul\":11681:11683   */\n      0x3d\n        /* \"#utility.yul\":11676:11679   */\n      dup4\n        /* \"#utility.yul\":11617:11684   */\n      tag_378\n      jump\t// in\n    tag_439:\n        /* \"#utility.yul\":11610:11684   */\n      swap2\n      pop\n        /* \"#utility.yul\":11693:11786   */\n      tag_440\n        /* \"#utility.yul\":11782:11785   */\n      dup3\n        /* \"#utility.yul\":11693:11786   */\n      tag_441\n      jump\t// in\n    tag_440:\n        /* \"#utility.yul\":11811:11813   */\n      0x40\n        /* \"#utility.yul\":11806:11809   */\n      dup3\n        /* \"#utility.yul\":11802:11814   */\n      add\n        /* \"#utility.yul\":11795:11814   */\n      swap1\n      pop\n        /* \"#utility.yul\":11600:11820   */\n      swap2\n      swap1\n      pop\n      jump\t// out\n        /* \"#utility.yul\":11826:11944   */\n    tag_442:\n        /* \"#utility.yul\":11913:11937   */\n      tag_444\n        /* \"#utility.yul\":11931:11936   */\n      dup2\n        /* \"#utility.yul\":11913:11937   */\n      tag_445\n      jump\t// in\n    tag_444:\n        /* \"#utility.yul\":11908:11911   */\n      dup3\n        /* \"#utility.yul\":11901:11938   */\n      mstore\n        /* \"#utility.yul\":11891:11944   */\n      pop\n      pop\n      jump\t// out\n        /* \"#utility.yul\":11950:12107   */\n    tag_446:\n        /* \"#utility.yul\":12055:12100   */\n      tag_448\n        /* \"#utility.yul\":12075:12099   */\n      tag_449\n        /* \"#utility.yul\":12093:12098   */\n      dup3\n        /* \"#utility.yul\":12075:12099   */\n      tag_445\n      jump\t// in\n    tag_449:\n        /* \"#utility.yul\":12055:12100   */\n      tag_450\n      jump\t// in\n    tag_448:\n        /* \"#utility.yul\":12050:12053   */\n      dup3\n        /* \"#utility.yul\":12043:12101   */\n      mstore\n        /* \"#utility.yul\":12033:12107   */\n      pop\n      pop\n      jump\t// out\n        /* \"#utility.yul\":12113:12548   */\n    tag_171:\n        /* \"#utility.yul\":12293:12296   */\n      0x00\n        /* \"#utility.yul\":12315:12410   */\n      tag_452\n        /* \"#utility.yul\":12406:12409   */\n      dup3\n        /* \"#utility.yul\":12397:12403   */\n      dup6\n        /* \"#utility.yul\":12315:12410   */\n      tag_381\n      jump\t// in\n    tag_452:\n        /* \"#utility.yul\":12308:12410   */\n      swap2\n      pop\n        /* \"#utility.yul\":12427:12522   */\n      tag_453\n        /* \"#utility.yul\":12518:12521   */\n      dup3\n        /* \"#utility.yul\":12509:12515   */\n      dup5\n        /* \"#utility.yul\":12427:12522   */\n      tag_381\n      jump\t// in\n    tag_453:\n        /* \"#utility.yul\":12420:12522   */\n      swap2\n      pop\n        /* \"#utility.yul\":12539:12542   */\n      dup2\n        /* \"#utility.yul\":12532:12542   */\n      swap1\n      pop\n        /* \"#utility.yul\":12297:12548   */\n      swap4\n      swap3\n      pop\n      pop\n      pop\n      jump\t// out\n        /* \"#utility.yul\":12554:12970   */\n    tag_142:\n        /* \"#utility.yul\":12714:12717   */\n      0x00\n        /* \"#utility.yul\":12736:12831   */\n      tag_455\n        /* \"#utility.yul\":12827:12830   */\n      dup3\n        /* \"#utility.yul\":12818:12824   */\n      dup6\n        /* \"#utility.yul\":12736:12831   */\n      tag_381\n      jump\t// in\n    tag_455:\n        /* \"#utility.yul\":12729:12831   */\n      swap2\n      pop\n        /* \"#utility.yul\":12841:12916   */\n      tag_456\n        /* \"#utility.yul\":12912:12915   */\n      dup3\n        /* \"#utility.yul\":12903:12909   */\n      dup5\n        /* \"#utility.yul\":12841:12916   */\n      tag_446\n      jump\t// in\n    tag_456:\n        /* \"#utility.yul\":12941:12943   */\n      0x20\n        /* \"#utility.yul\":12936:12939   */\n      dup3\n        /* \"#utility.yul\":12932:12944   */\n      add\n        /* \"#utility.yul\":12925:12944   */\n      swap2\n      pop\n        /* \"#utility.yul\":12961:12964   */\n      dup2\n        /* \"#utility.yul\":12954:12964   */\n      swap1\n      pop\n        /* \"#utility.yul\":12718:12970   */\n      swap4\n      swap3\n      pop\n      pop\n      pop\n      jump\t// out\n        /* \"#utility.yul\":12976:13198   */\n    tag_36:\n        /* \"#utility.yul\":13069:13073   */\n      0x00\n        /* \"#utility.yul\":13107:13109   */\n      0x20\n        /* \"#utility.yul\":13096:13105   */\n      dup3\n        /* \"#utility.yul\":13092:13110   */\n      add\n        /* \"#utility.yul\":13084:13110   */\n      swap1\n      pop\n        /* \"#utility.yul\":13120:13191   */\n      tag_458\n        /* \"#utility.yul\":13188:13189   */\n      0x00\n        /* \"#utility.yul\":13177:13186   */\n      dup4\n        /* \"#utility.yul\":13173:13190   */\n      add\n        /* \"#utility.yul\":13164:13170   */\n      dup5\n        /* \"#utility.yul\":13120:13191   */\n      tag_355\n      jump\t// in\n    tag_458:\n        /* \"#utility.yul\":13074:13198   */\n      swap3\n      swap2\n      pop\n      pop\n      jump\t// out\n        /* \"#utility.yul\":13204:13844   */\n    tag_233:\n        /* \"#utility.yul\":13399:13403   */\n      0x00\n        /* \"#utility.yul\":13437:13440   */\n      0x80\n        /* \"#utility.yul\":13426:13435   */\n      dup3\n        /* \"#utility.yul\":13422:13441   */\n      add\n        /* \"#utility.yul\":13414:13441   */\n      swap1\n      pop\n        /* \"#utility.yul\":13451:13522   */\n      tag_460\n        /* \"#utility.yul\":13519:13520   */\n      0x00\n        /* \"#utility.yul\":13508:13517   */\n      dup4\n        /* \"#utility.yul\":13504:13521   */\n      add\n        /* \"#utility.yul\":13495:13501   */\n      dup8\n        /* \"#utility.yul\":13451:13522   */\n      tag_355\n      jump\t// in\n    tag_460:\n        /* \"#utility.yul\":13532:13604   */\n      tag_461\n        /* \"#utility.yul\":13600:13602   */\n      0x20\n        /* \"#utility.yul\":13589:13598   */\n      dup4\n        /* \"#utility.yul\":13585:13603   */\n      add\n        /* \"#utility.yul\":13576:13582   */\n      dup7\n        /* \"#utility.yul\":13532:13604   */\n      tag_355\n      jump\t// in\n    tag_461:\n        /* \"#utility.yul\":13614:13686   */\n      tag_462\n        /* \"#utility.yul\":13682:13684   */\n      0x40\n        /* \"#utility.yul\":13671:13680   */\n      dup4\n        /* \"#utility.yul\":13667:13685   */\n      add\n        /* \"#utility.yul\":13658:13664   */\n      dup6\n        /* \"#utility.yul\":13614:13686   */\n      tag_442\n      jump\t// in\n    tag_462:\n        /* \"#utility.yul\":13733:13742   */\n      dup2\n        /* \"#utility.yul\":13727:13731   */\n      dup2\n        /* \"#utility.yul\":13723:13743   */\n      sub\n        /* \"#utility.yul\":13718:13720   */\n      0x60\n        /* \"#utility.yul\":13707:13716   */\n      dup4\n        /* \"#utility.yul\":13703:13721   */\n      add\n        /* \"#utility.yul\":13696:13744   */\n      mstore\n        /* \"#utility.yul\":13761:13837   */\n      tag_463\n        /* \"#utility.yul\":13832:13836   */\n      dup2\n        /* \"#utility.yul\":13823:13829   */\n      dup5\n        /* \"#utility.yul\":13761:13837   */\n      tag_363\n      jump\t// in\n    tag_463:\n        /* \"#utility.yul\":13753:13837   */\n      swap1\n      pop\n        /* \"#utility.yul\":13404:13844   */\n      swap6\n      swap5\n      pop\n      pop\n      pop\n      pop\n      pop\n      jump\t// out\n        /* \"#utility.yul\":13850:14060   */\n    tag_26:\n        /* \"#utility.yul\":13937:13941   */\n      0x00\n        /* \"#utility.yul\":13975:13977   */\n      0x20\n        /* \"#utility.yul\":13964:13973   */\n      dup3\n        /* \"#utility.yul\":13960:13978   */\n      add\n        /* \"#utility.yul\":13952:13978   */\n      swap1\n      pop\n        /* \"#utility.yul\":13988:14053   */\n      tag_465\n        /* \"#utility.yul\":14050:14051   */\n      0x00\n        /* \"#utility.yul\":14039:14048   */\n      dup4\n        /* \"#utility.yul\":14035:14052   */\n      add\n        /* \"#utility.yul\":14026:14032   */\n      dup5\n        /* \"#utility.yul\":13988:14053   */\n      tag_359\n      jump\t// in\n    tag_465:\n        /* \"#utility.yul\":13942:14060   */\n      swap3\n      swap2\n      pop\n      pop\n      jump\t// out\n        /* \"#utility.yul\":14066:14379   */\n    tag_30:\n        /* \"#utility.yul\":14179:14183   */\n      0x00\n        /* \"#utility.yul\":14217:14219   */\n      0x20\n        /* \"#utility.yul\":14206:14215   */\n      dup3\n        /* \"#utility.yul\":14202:14220   */\n      add\n        /* \"#utility.yul\":14194:14220   */\n      swap1\n      pop\n        /* \"#utility.yul\":14266:14275   */\n      dup2\n        /* \"#utility.yul\":14260:14264   */\n      dup2\n        /* \"#utility.yul\":14256:14276   */\n      sub\n        /* \"#utility.yul\":14252:14253   */\n      0x00\n        /* \"#utility.yul\":14241:14250   */\n      dup4\n        /* \"#utility.yul\":14237:14254   */\n      add\n        /* \"#utility.yul\":14230:14277   */\n      mstore\n        /* \"#utility.yul\":14294:14372   */\n      tag_467\n        /* \"#utility.yul\":14367:14371   */\n      dup2\n        /* \"#utility.yul\":14358:14364   */\n      dup5\n        /* \"#utility.yul\":14294:14372   */\n      tag_373\n      jump\t// in\n    tag_467:\n        /* \"#utility.yul\":14286:14372   */\n      swap1\n      pop\n        /* \"#utility.yul\":14184:14379   */\n      swap3\n      swap2\n      pop\n      pop\n      jump\t// out\n        /* \"#utility.yul\":14385:14804   */\n    tag_122:\n        /* \"#utility.yul\":14551:14555   */\n      0x00\n        /* \"#utility.yul\":14589:14591   */\n      0x20\n        /* \"#utility.yul\":14578:14587   */\n      dup3\n        /* \"#utility.yul\":14574:14592   */\n      add\n        /* \"#utility.yul\":14566:14592   */\n      swap1\n      pop\n        /* \"#utility.yul\":14638:14647   */\n      dup2\n        /* \"#utility.yul\":14632:14636   */\n      dup2\n        /* \"#utility.yul\":14628:14648   */\n      sub\n        /* \"#utility.yul\":14624:14625   */\n      0x00\n        /* \"#utility.yul\":14613:14622   */\n      dup4\n        /* \"#utility.yul\":14609:14626   */\n      add\n        /* \"#utility.yul\":14602:14649   */\n      mstore\n        /* \"#utility.yul\":14666:14797   */\n      tag_469\n        /* \"#utility.yul\":14792:14796   */\n      dup2\n        /* \"#utility.yul\":14666:14797   */\n      tag_387\n      jump\t// in\n    tag_469:\n        /* \"#utility.yul\":14658:14797   */\n      swap1\n      pop\n        /* \"#utility.yul\":14556:14804   */\n      swap2\n      swap1\n      pop\n      jump\t// out\n        /* \"#utility.yul\":14810:15229   */\n    tag_220:\n        /* \"#utility.yul\":14976:14980   */\n      0x00\n        /* \"#utility.yul\":15014:15016   */\n      0x20\n        /* \"#utility.yul\":15003:15012   */\n      dup3\n        /* \"#utility.yul\":14999:15017   */\n      add\n        /* \"#utility.yul\":14991:15017   */\n      swap1\n      pop\n        /* \"#utility.yul\":15063:15072   */\n      dup2\n        /* \"#utility.yul\":15057:15061   */\n      dup2\n        /* \"#utility.yul\":15053:15073   */\n      sub\n        /* \"#utility.yul\":15049:15050   */\n      0x00\n        /* \"#utility.yul\":15038:15047   */\n      dup4\n        /* \"#utility.yul\":15034:15051   */\n      add\n        /* \"#utility.yul\":15027:15074   */\n      mstore\n        /* \"#utility.yul\":15091:15222   */\n      tag_471\n        /* \"#utility.yul\":15217:15221   */\n      dup2\n        /* \"#utility.yul\":15091:15222   */\n      tag_392\n      jump\t// in\n    tag_471:\n        /* \"#utility.yul\":15083:15222   */\n      swap1\n      pop\n        /* \"#utility.yul\":14981:15229   */\n      swap2\n      swap1\n      pop\n      jump\t// out\n        /* \"#utility.yul\":15235:15654   */\n    tag_197:\n        /* \"#utility.yul\":15401:15405   */\n      0x00\n        /* \"#utility.yul\":15439:15441   */\n      0x20\n        /* \"#utility.yul\":15428:15437   */\n      dup3\n        /* \"#utility.yul\":15424:15442   */\n      add\n        /* \"#utility.yul\":15416:15442   */\n      swap1\n      pop\n        /* \"#utility.yul\":15488:15497   */\n      dup2\n        /* \"#utility.yul\":15482:15486   */\n      dup2\n        /* \"#utility.yul\":15478:15498   */\n      sub\n        /* \"#utility.yul\":15474:15475   */\n      0x00\n        /* \"#utility.yul\":15463:15472   */\n      dup4\n        /* \"#utility.yul\":15459:15476   */\n      add\n        /* \"#utility.yul\":15452:15499   */\n      mstore\n        /* \"#utility.yul\":15516:15647   */\n      tag_473\n        /* \"#utility.yul\":15642:15646   */\n      dup2\n        /* \"#utility.yul\":15516:15647   */\n      tag_397\n      jump\t// in\n    tag_473:\n        /* \"#utility.yul\":15508:15647   */\n      swap1\n      pop\n        /* \"#utility.yul\":15406:15654   */\n      swap2\n      swap1\n      pop\n      jump\t// out\n        /* \"#utility.yul\":15660:16079   */\n    tag_263:\n        /* \"#utility.yul\":15826:15830   */\n      0x00\n        /* \"#utility.yul\":15864:15866   */\n      0x20\n        /* \"#utility.yul\":15853:15862   */\n      dup3\n        /* \"#utility.yul\":15849:15867   */\n      add\n        /* \"#utility.yul\":15841:15867   */\n      swap1\n      pop\n        /* \"#utility.yul\":15913:15922   */\n      dup2\n        /* \"#utility.yul\":15907:15911   */\n      dup2\n        /* \"#utility.yul\":15903:15923   */\n      sub\n        /* \"#utility.yul\":15899:15900   */\n      0x00\n        /* \"#utility.yul\":15888:15897   */\n      dup4\n        /* \"#utility.yul\":15884:15901   */\n      add\n        /* \"#utility.yul\":15877:15924   */\n      mstore\n        /* \"#utility.yul\":15941:16072   */\n      tag_475\n        /* \"#utility.yul\":16067:16071   */\n      dup2\n        /* \"#utility.yul\":15941:16072   */\n      tag_402\n      jump\t// in\n    tag_475:\n        /* \"#utility.yul\":15933:16072   */\n      swap1\n      pop\n        /* \"#utility.yul\":15831:16079   */\n      swap2\n      swap1\n      pop\n      jump\t// out\n        /* \"#utility.yul\":16085:16504   */\n    tag_200:\n        /* \"#utility.yul\":16251:16255   */\n      0x00\n        /* \"#utility.yul\":16289:16291   */\n      0x20\n        /* \"#utility.yul\":16278:16287   */\n      dup3\n        /* \"#utility.yul\":16274:16292   */\n      add\n        /* \"#utility.yul\":16266:16292   */\n      swap1\n      pop\n        /* \"#utility.yul\":16338:16347   */\n      dup2\n        /* \"#utility.yul\":16332:16336   */\n      dup2\n        /* \"#utility.yul\":16328:16348   */\n      sub\n        /* \"#utility.yul\":16324:16325   */\n      0x00\n        /* \"#utility.yul\":16313:16322   */\n      dup4\n        /* \"#utility.yul\":16309:16326   */\n      add\n        /* \"#utility.yul\":16302:16349   */\n      mstore\n        /* \"#utility.yul\":16366:16497   */\n      tag_477\n        /* \"#utility.yul\":16492:16496   */\n      dup2\n        /* \"#utility.yul\":16366:16497   */\n      tag_407\n      jump\t// in\n    tag_477:\n        /* \"#utility.yul\":16358:16497   */\n      swap1\n      pop\n        /* \"#utility.yul\":16256:16504   */\n      swap2\n      swap1\n      pop\n      jump\t// out\n        /* \"#utility.yul\":16510:16929   */\n    tag_212:\n        /* \"#utility.yul\":16676:16680   */\n      0x00\n        /* \"#utility.yul\":16714:16716   */\n      0x20\n        /* \"#utility.yul\":16703:16712   */\n      dup3\n        /* \"#utility.yul\":16699:16717   */\n      add\n        /* \"#utility.yul\":16691:16717   */\n      swap1\n      pop\n        /* \"#utility.yul\":16763:16772   */\n      dup2\n        /* \"#utility.yul\":16757:16761   */\n      dup2\n        /* \"#utility.yul\":16753:16773   */\n      sub\n        /* \"#utility.yul\":16749:16750   */\n      0x00\n        /* \"#utility.yul\":16738:16747   */\n      dup4\n        /* \"#utility.yul\":16734:16751   */\n      add\n        /* \"#utility.yul\":16727:16774   */\n      mstore\n        /* \"#utility.yul\":16791:16922   */\n      tag_479\n        /* \"#utility.yul\":16917:16921   */\n      dup2\n        /* \"#utility.yul\":16791:16922   */\n      tag_412\n      jump\t// in\n    tag_479:\n        /* \"#utility.yul\":16783:16922   */\n      swap1\n      pop\n        /* \"#utility.yul\":16681:16929   */\n      swap2\n      swap1\n      pop\n      jump\t// out\n        /* \"#utility.yul\":16935:17354   */\n    tag_134:\n        /* \"#utility.yul\":17101:17105   */\n      0x00\n        /* \"#utility.yul\":17139:17141   */\n      0x20\n        /* \"#utility.yul\":17128:17137   */\n      dup3\n        /* \"#utility.yul\":17124:17142   */\n      add\n        /* \"#utility.yul\":17116:17142   */\n      swap1\n      pop\n        /* \"#utility.yul\":17188:17197   */\n      dup2\n        /* \"#utility.yul\":17182:17186   */\n      dup2\n        /* \"#utility.yul\":17178:17198   */\n      sub\n        /* \"#utility.yul\":17174:17175   */\n      0x00\n        /* \"#utility.yul\":17163:17172   */\n      dup4\n        /* \"#utility.yul\":17159:17176   */\n      add\n        /* \"#utility.yul\":17152:17199   */\n      mstore\n        /* \"#utility.yul\":17216:17347   */\n      tag_481\n        /* \"#utility.yul\":17342:17346   */\n      dup2\n        /* \"#utility.yul\":17216:17347   */\n      tag_417\n      jump\t// in\n    tag_481:\n        /* \"#utility.yul\":17208:17347   */\n      swap1\n      pop\n        /* \"#utility.yul\":17106:17354   */\n      swap2\n      swap1\n      pop\n      jump\t// out\n        /* \"#utility.yul\":17360:17779   */\n    tag_259:\n        /* \"#utility.yul\":17526:17530   */\n      0x00\n        /* \"#utility.yul\":17564:17566   */\n      0x20\n        /* \"#utility.yul\":17553:17562   */\n      dup3\n        /* \"#utility.yul\":17549:17567   */\n      add\n        /* \"#utility.yul\":17541:17567   */\n      swap1\n      pop\n        /* \"#utility.yul\":17613:17622   */\n      dup2\n        /* \"#utility.yul\":17607:17611   */\n      dup2\n        /* \"#utility.yul\":17603:17623   */\n      sub\n        /* \"#utility.yul\":17599:17600   */\n      0x00\n        /* \"#utility.yul\":17588:17597   */\n      dup4\n        /* \"#utility.yul\":17584:17601   */\n      add\n        /* \"#utility.yul\":17577:17624   */\n      mstore\n        /* \"#utility.yul\":17641:17772   */\n      tag_483\n        /* \"#utility.yul\":17767:17771   */\n      dup2\n        /* \"#utility.yul\":17641:17772   */\n      tag_422\n      jump\t// in\n    tag_483:\n        /* \"#utility.yul\":17633:17772   */\n      swap1\n      pop\n        /* \"#utility.yul\":17531:17779   */\n      swap2\n      swap1\n      pop\n      jump\t// out\n        /* \"#utility.yul\":17785:18204   */\n    tag_130:\n        /* \"#utility.yul\":17951:17955   */\n      0x00\n        /* \"#utility.yul\":17989:17991   */\n      0x20\n        /* \"#utility.yul\":17978:17987   */\n      dup3\n        /* \"#utility.yul\":17974:17992   */\n      add\n        /* \"#utility.yul\":17966:17992   */\n      swap1\n      pop\n        /* \"#utility.yul\":18038:18047   */\n      dup2\n        /* \"#utility.yul\":18032:18036   */\n      dup2\n        /* \"#utility.yul\":18028:18048   */\n      sub\n        /* \"#utility.yul\":18024:18025   */\n      0x00\n        /* \"#utility.yul\":18013:18022   */\n      dup4\n        /* \"#utility.yul\":18009:18026   */\n      add\n        /* \"#utility.yul\":18002:18049   */\n      mstore\n        /* \"#utility.yul\":18066:18197   */\n      tag_485\n        /* \"#utility.yul\":18192:18196   */\n      dup2\n        /* \"#utility.yul\":18066:18197   */\n      tag_427\n      jump\t// in\n    tag_485:\n        /* \"#utility.yul\":18058:18197   */\n      swap1\n      pop\n        /* \"#utility.yul\":17956:18204   */\n      swap2\n      swap1\n      pop\n      jump\t// out\n        /* \"#utility.yul\":18210:18629   */\n    tag_105:\n        /* \"#utility.yul\":18376:18380   */\n      0x00\n        /* \"#utility.yul\":18414:18416   */\n      0x20\n        /* \"#utility.yul\":18403:18412   */\n      dup3\n        /* \"#utility.yul\":18399:18417   */\n      add\n        /* \"#utility.yul\":18391:18417   */\n      swap1\n      pop\n        /* \"#utility.yul\":18463:18472   */\n      dup2\n        /* \"#utility.yul\":18457:18461   */\n      dup2\n        /* \"#utility.yul\":18453:18473   */\n      sub\n        /* \"#utility.yul\":18449:18450   */\n      0x00\n        /* \"#utility.yul\":18438:18447   */\n      dup4\n        /* \"#utility.yul\":18434:18451   */\n      add\n        /* \"#utility.yul\":18427:18474   */\n      mstore\n        /* \"#utility.yul\":18491:18622   */\n      tag_487\n        /* \"#utility.yul\":18617:18621   */\n      dup2\n        /* \"#utility.yul\":18491:18622   */\n      tag_432\n      jump\t// in\n    tag_487:\n        /* \"#utility.yul\":18483:18622   */\n      swap1\n      pop\n        /* \"#utility.yul\":18381:18629   */\n      swap2\n      swap1\n      pop\n      jump\t// out\n        /* \"#utility.yul\":18635:19054   */\n    tag_113:\n        /* \"#utility.yul\":18801:18805   */\n      0x00\n        /* \"#utility.yul\":18839:18841   */\n      0x20\n        /* \"#utility.yul\":18828:18837   */\n      dup3\n        /* \"#utility.yul\":18824:18842   */\n      add\n        /* \"#utility.yul\":18816:18842   */\n      swap1\n      pop\n        /* \"#utility.yul\":18888:18897   */\n      dup2\n        /* \"#utility.yul\":18882:18886   */\n      dup2\n        /* \"#utility.yul\":18878:18898   */\n      sub\n        /* \"#utility.yul\":18874:18875   */\n      0x00\n        /* \"#utility.yul\":18863:18872   */\n      dup4\n        /* \"#utility.yul\":18859:18876   */\n      add\n        /* \"#utility.yul\":18852:18899   */\n      mstore\n        /* \"#utility.yul\":18916:19047   */\n      tag_489\n        /* \"#utility.yul\":19042:19046   */\n      dup2\n        /* \"#utility.yul\":18916:19047   */\n      tag_437\n      jump\t// in\n    tag_489:\n        /* \"#utility.yul\":18908:19047   */\n      swap1\n      pop\n        /* \"#utility.yul\":18806:19054   */\n      swap2\n      swap1\n      pop\n      jump\t// out\n        /* \"#utility.yul\":19060:19282   */\n    tag_57:\n        /* \"#utility.yul\":19153:19157   */\n      0x00\n        /* \"#utility.yul\":19191:19193   */\n      0x20\n        /* \"#utility.yul\":19180:19189   */\n      dup3\n        /* \"#utility.yul\":19176:19194   */\n      add\n        /* \"#utility.yul\":19168:19194   */\n      swap1\n      pop\n        /* \"#utility.yul\":19204:19275   */\n      tag_491\n        /* \"#utility.yul\":19272:19273   */\n      0x00\n        /* \"#utility.yul\":19261:19270   */\n      dup4\n        /* \"#utility.yul\":19257:19274   */\n      add\n        /* \"#utility.yul\":19248:19254   */\n      dup5\n        /* \"#utility.yul\":19204:19275   */\n      tag_442\n      jump\t// in\n    tag_491:\n        /* \"#utility.yul\":19158:19282   */\n      swap3\n      swap2\n      pop\n      pop\n      jump\t// out\n        /* \"#utility.yul\":19288:19417   */\n    tag_275:\n        /* \"#utility.yul\":19322:19328   */\n      0x00\n        /* \"#utility.yul\":19349:19369   */\n      tag_493\n      tag_494\n      jump\t// in\n    tag_493:\n        /* \"#utility.yul\":19339:19369   */\n      swap1\n      pop\n        /* \"#utility.yul\":19378:19411   */\n      tag_495\n        /* \"#utility.yul\":19406:19410   */\n      dup3\n        /* \"#utility.yul\":19398:19404   */\n      dup3\n        /* \"#utility.yul\":19378:19411   */\n      tag_496\n      jump\t// in\n    tag_495:\n        /* \"#utility.yul\":19329:19417   */\n      swap2\n      swap1\n      pop\n      jump\t// out\n        /* \"#utility.yul\":19423:19498   */\n    tag_494:\n        /* \"#utility.yul\":19456:19462   */\n      0x00\n        /* \"#utility.yul\":19489:19491   */\n      0x40\n        /* \"#utility.yul\":19483:19492   */\n      mload\n        /* \"#utility.yul\":19473:19492   */\n      swap1\n      pop\n        /* \"#utility.yul\":19463:19498   */\n      swap1\n      jump\t// out\n        /* \"#utility.yul\":19504:19811   */\n    tag_274:\n        /* \"#utility.yul\":19565:19569   */\n      0x00\n        /* \"#utility.yul\":19655:19673   */\n      0xffffffffffffffff\n        /* \"#utility.yul\":19647:19653   */\n      dup3\n        /* \"#utility.yul\":19644:19674   */\n      gt\n        /* \"#utility.yul\":19641:19643   */\n      iszero\n      tag_499\n      jumpi\n        /* \"#utility.yul\":19677:19695   */\n      tag_500\n      tag_501\n      jump\t// in\n    tag_500:\n        /* \"#utility.yul\":19641:19643   */\n    tag_499:\n        /* \"#utility.yul\":19715:19744   */\n      tag_502\n        /* \"#utility.yul\":19737:19743   */\n      dup3\n        /* \"#utility.yul\":19715:19744   */\n      tag_372\n      jump\t// in\n    tag_502:\n        /* \"#utility.yul\":19707:19744   */\n      swap1\n      pop\n        /* \"#utility.yul\":19799:19803   */\n      0x20\n        /* \"#utility.yul\":19793:19797   */\n      dup2\n        /* \"#utility.yul\":19789:19804   */\n      add\n        /* \"#utility.yul\":19781:19804   */\n      swap1\n      pop\n        /* \"#utility.yul\":19570:19811   */\n      swap2\n      swap1\n      pop\n      jump\t// out\n        /* \"#utility.yul\":19817:20125   */\n    tag_283:\n        /* \"#utility.yul\":19879:19883   */\n      0x00\n        /* \"#utility.yul\":19969:19987   */\n      0xffffffffffffffff\n        /* \"#utility.yul\":19961:19967   */\n      dup3\n        /* \"#utility.yul\":19958:19988   */\n      gt\n        /* \"#utility.yul\":19955:19957   */\n      iszero\n      tag_504\n      jumpi\n        /* \"#utility.yul\":19991:20009   */\n      tag_505\n      tag_501\n      jump\t// in\n    tag_505:\n        /* \"#utility.yul\":19955:19957   */\n    tag_504:\n        /* \"#utility.yul\":20029:20058   */\n      tag_506\n        /* \"#utility.yul\":20051:20057   */\n      dup3\n        /* \"#utility.yul\":20029:20058   */\n      tag_372\n      jump\t// in\n    tag_506:\n        /* \"#utility.yul\":20021:20058   */\n      swap1\n      pop\n        /* \"#utility.yul\":20113:20117   */\n      0x20\n        /* \"#utility.yul\":20107:20111   */\n      dup2\n        /* \"#utility.yul\":20103:20118   */\n      add\n        /* \"#utility.yul\":20095:20118   */\n      swap1\n      pop\n        /* \"#utility.yul\":19884:20125   */\n      swap2\n      swap1\n      pop\n      jump\t// out\n        /* \"#utility.yul\":20131:20229   */\n    tag_366:\n        /* \"#utility.yul\":20182:20188   */\n      0x00\n        /* \"#utility.yul\":20216:20221   */\n      dup2\n        /* \"#utility.yul\":20210:20222   */\n      mload\n        /* \"#utility.yul\":20200:20222   */\n      swap1\n      pop\n        /* \"#utility.yul\":20189:20229   */\n      swap2\n      swap1\n      pop\n      jump\t// out\n        /* \"#utility.yul\":20235:20334   */\n    tag_376:\n        /* \"#utility.yul\":20287:20293   */\n      0x00\n        /* \"#utility.yul\":20321:20326   */\n      dup2\n        /* \"#utility.yul\":20315:20327   */\n      mload\n        /* \"#utility.yul\":20305:20327   */\n      swap1\n      pop\n        /* \"#utility.yul\":20294:20334   */\n      swap2\n      swap1\n      pop\n      jump\t// out\n        /* \"#utility.yul\":20340:20508   */\n    tag_368:\n        /* \"#utility.yul\":20423:20434   */\n      0x00\n        /* \"#utility.yul\":20457:20463   */\n      dup3\n        /* \"#utility.yul\":20452:20455   */\n      dup3\n        /* \"#utility.yul\":20445:20464   */\n      mstore\n        /* \"#utility.yul\":20497:20501   */\n      0x20\n        /* \"#utility.yul\":20492:20495   */\n      dup3\n        /* \"#utility.yul\":20488:20502   */\n      add\n        /* \"#utility.yul\":20473:20502   */\n      swap1\n      pop\n        /* \"#utility.yul\":20435:20508   */\n      swap3\n      swap2\n      pop\n      pop\n      jump\t// out\n        /* \"#utility.yul\":20514:20683   */\n    tag_378:\n        /* \"#utility.yul\":20598:20609   */\n      0x00\n        /* \"#utility.yul\":20632:20638   */\n      dup3\n        /* \"#utility.yul\":20627:20630   */\n      dup3\n        /* \"#utility.yul\":20620:20639   */\n      mstore\n        /* \"#utility.yul\":20672:20676   */\n      0x20\n        /* \"#utility.yul\":20667:20670   */\n      dup3\n        /* \"#utility.yul\":20663:20677   */\n      add\n        /* \"#utility.yul\":20648:20677   */\n      swap1\n      pop\n        /* \"#utility.yul\":20610:20683   */\n      swap3\n      swap2\n      pop\n      pop\n      jump\t// out\n        /* \"#utility.yul\":20689:20837   */\n    tag_385:\n        /* \"#utility.yul\":20791:20802   */\n      0x00\n        /* \"#utility.yul\":20828:20831   */\n      dup2\n        /* \"#utility.yul\":20813:20831   */\n      swap1\n      pop\n        /* \"#utility.yul\":20803:20837   */\n      swap3\n      swap2\n      pop\n      pop\n      jump\t// out\n        /* \"#utility.yul\":20843:20939   */\n    tag_358:\n        /* \"#utility.yul\":20880:20887   */\n      0x00\n        /* \"#utility.yul\":20909:20933   */\n      tag_513\n        /* \"#utility.yul\":20927:20932   */\n      dup3\n        /* \"#utility.yul\":20909:20933   */\n      tag_514\n      jump\t// in\n    tag_513:\n        /* \"#utility.yul\":20898:20933   */\n      swap1\n      pop\n        /* \"#utility.yul\":20888:20939   */\n      swap2\n      swap1\n      pop\n      jump\t// out\n        /* \"#utility.yul\":20945:21035   */\n    tag_362:\n        /* \"#utility.yul\":20979:20986   */\n      0x00\n        /* \"#utility.yul\":21022:21027   */\n      dup2\n        /* \"#utility.yul\":21015:21028   */\n      iszero\n        /* \"#utility.yul\":21008:21029   */\n      iszero\n        /* \"#utility.yul\":20997:21029   */\n      swap1\n      pop\n        /* \"#utility.yul\":20987:21035   */\n      swap2\n      swap1\n      pop\n      jump\t// out\n        /* \"#utility.yul\":21041:21190   */\n    tag_516:\n        /* \"#utility.yul\":21077:21084   */\n      0x00\n        /* \"#utility.yul\":21117:21183   */\n      0xffffffff00000000000000000000000000000000000000000000000000000000\n        /* \"#utility.yul\":21110:21115   */\n      dup3\n        /* \"#utility.yul\":21106:21184   */\n      and\n        /* \"#utility.yul\":21095:21184   */\n      swap1\n      pop\n        /* \"#utility.yul\":21085:21190   */\n      swap2\n      swap1\n      pop\n      jump\t// out\n        /* \"#utility.yul\":21196:21322   */\n    tag_514:\n        /* \"#utility.yul\":21233:21240   */\n      0x00\n        /* \"#utility.yul\":21273:21315   */\n      0xffffffffffffffffffffffffffffffffffffffff\n        /* \"#utility.yul\":21266:21271   */\n      dup3\n        /* \"#utility.yul\":21262:21316   */\n      and\n        /* \"#utility.yul\":21251:21316   */\n      swap1\n      pop\n        /* \"#utility.yul\":21241:21322   */\n      swap2\n      swap1\n      pop\n      jump\t// out\n        /* \"#utility.yul\":21328:21405   */\n    tag_445:\n        /* \"#utility.yul\":21365:21372   */\n      0x00\n        /* \"#utility.yul\":21394:21399   */\n      dup2\n        /* \"#utility.yul\":21383:21399   */\n      swap1\n      pop\n        /* \"#utility.yul\":21373:21405   */\n      swap2\n      swap1\n      pop\n      jump\t// out\n        /* \"#utility.yul\":21411:21565   */\n    tag_278:\n        /* \"#utility.yul\":21495:21501   */\n      dup3\n        /* \"#utility.yul\":21490:21493   */\n      dup2\n        /* \"#utility.yul\":21485:21488   */\n      dup4\n        /* \"#utility.yul\":21472:21502   */\n      calldatacopy\n        /* \"#utility.yul\":21557:21558   */\n      0x00\n        /* \"#utility.yul\":21548:21554   */\n      dup4\n        /* \"#utility.yul\":21543:21546   */\n      dup4\n        /* \"#utility.yul\":21539:21555   */\n      add\n        /* \"#utility.yul\":21532:21559   */\n      mstore\n        /* \"#utility.yul\":21462:21565   */\n      pop\n      pop\n      pop\n      jump\t// out\n        /* \"#utility.yul\":21571:21878   */\n    tag_370:\n        /* \"#utility.yul\":21639:21640   */\n      0x00\n        /* \"#utility.yul\":21649:21762   */\n    tag_522:\n        /* \"#utility.yul\":21663:21669   */\n      dup4\n        /* \"#utility.yul\":21660:21661   */\n      dup2\n        /* \"#utility.yul\":21657:21670   */\n      lt\n        /* \"#utility.yul\":21649:21762   */\n      iszero\n      tag_524\n      jumpi\n        /* \"#utility.yul\":21748:21749   */\n      dup1\n        /* \"#utility.yul\":21743:21746   */\n      dup3\n        /* \"#utility.yul\":21739:21750   */\n      add\n        /* \"#utility.yul\":21733:21751   */\n      mload\n        /* \"#utility.yul\":21729:21730   */\n      dup2\n        /* \"#utility.yul\":21724:21727   */\n      dup5\n        /* \"#utility.yul\":21720:21731   */\n      add\n        /* \"#utility.yul\":21713:21752   */\n      mstore\n        /* \"#utility.yul\":21685:21687   */\n      0x20\n        /* \"#utility.yul\":21682:21683   */\n      dup2\n        /* \"#utility.yul\":21678:21688   */\n      add\n        /* \"#utility.yul\":21673:21688   */\n      swap1\n      pop\n        /* \"#utility.yul\":21649:21762   */\n      jump(tag_522)\n    tag_524:\n        /* \"#utility.yul\":21780:21786   */\n      dup4\n        /* \"#utility.yul\":21777:21778   */\n      dup2\n        /* \"#utility.yul\":21774:21787   */\n      gt\n        /* \"#utility.yul\":21771:21773   */\n      iszero\n      tag_525\n      jumpi\n        /* \"#utility.yul\":21860:21861   */\n      0x00\n        /* \"#utility.yul\":21851:21857   */\n      dup5\n        /* \"#utility.yul\":21846:21849   */\n      dup5\n        /* \"#utility.yul\":21842:21858   */\n      add\n        /* \"#utility.yul\":21835:21862   */\n      mstore\n        /* \"#utility.yul\":21771:21773   */\n    tag_525:\n        /* \"#utility.yul\":21620:21878   */\n      pop\n      pop\n      pop\n      pop\n      jump\t// out\n        /* \"#utility.yul\":21884:22204   */\n    tag_93:\n        /* \"#utility.yul\":21928:21934   */\n      0x00\n        /* \"#utility.yul\":21965:21966   */\n      0x02\n        /* \"#utility.yul\":21959:21963   */\n      dup3\n        /* \"#utility.yul\":21955:21967   */\n      div\n        /* \"#utility.yul\":21945:21967   */\n      swap1\n      pop\n        /* \"#utility.yul\":22012:22013   */\n      0x01\n        /* \"#utility.yul\":22006:22010   */\n      dup3\n        /* \"#utility.yul\":22002:22014   */\n      and\n        /* \"#utility.yul\":22033:22051   */\n      dup1\n        /* \"#utility.yul\":22023:22025   */\n      tag_527\n      jumpi\n        /* \"#utility.yul\":22089:22093   */\n      0x7f\n        /* \"#utility.yul\":22081:22087   */\n      dup3\n        /* \"#utility.yul\":22077:22094   */\n      and\n        /* \"#utility.yul\":22067:22094   */\n      swap2\n      pop\n        /* \"#utility.yul\":22023:22025   */\n    tag_527:\n        /* \"#utility.yul\":22151:22153   */\n      0x20\n        /* \"#utility.yul\":22143:22149   */\n      dup3\n        /* \"#utility.yul\":22140:22154   */\n      lt\n        /* \"#utility.yul\":22120:22138   */\n      dup2\n        /* \"#utility.yul\":22117:22155   */\n      eq\n        /* \"#utility.yul\":22114:22116   */\n      iszero\n      tag_528\n      jumpi\n        /* \"#utility.yul\":22170:22188   */\n      tag_529\n      tag_530\n      jump\t// in\n    tag_529:\n        /* \"#utility.yul\":22114:22116   */\n    tag_528:\n        /* \"#utility.yul\":21935:22204   */\n      pop\n      swap2\n      swap1\n      pop\n      jump\t// out\n        /* \"#utility.yul\":22210:22491   */\n    tag_496:\n        /* \"#utility.yul\":22293:22320   */\n      tag_532\n        /* \"#utility.yul\":22315:22319   */\n      dup3\n        /* \"#utility.yul\":22293:22320   */\n      tag_372\n      jump\t// in\n    tag_532:\n        /* \"#utility.yul\":22285:22291   */\n      dup2\n        /* \"#utility.yul\":22281:22321   */\n      add\n        /* \"#utility.yul\":22423:22429   */\n      dup2\n        /* \"#utility.yul\":22411:22421   */\n      dup2\n        /* \"#utility.yul\":22408:22430   */\n      lt\n        /* \"#utility.yul\":22387:22405   */\n      0xffffffffffffffff\n        /* \"#utility.yul\":22375:22385   */\n      dup3\n        /* \"#utility.yul\":22372:22406   */\n      gt\n        /* \"#utility.yul\":22369:22431   */\n      or\n        /* \"#utility.yul\":22366:22368   */\n      iszero\n      tag_533\n      jumpi\n        /* \"#utility.yul\":22434:22452   */\n      tag_534\n      tag_501\n      jump\t// in\n    tag_534:\n        /* \"#utility.yul\":22366:22368   */\n    tag_533:\n        /* \"#utility.yul\":22474:22484   */\n      dup1\n        /* \"#utility.yul\":22470:22472   */\n      0x40\n        /* \"#utility.yul\":22463:22485   */\n      mstore\n        /* \"#utility.yul\":22253:22491   */\n      pop\n      pop\n      pop\n      jump\t// out\n        /* \"#utility.yul\":22497:22576   */\n    tag_450:\n        /* \"#utility.yul\":22536:22543   */\n      0x00\n        /* \"#utility.yul\":22565:22570   */\n      dup2\n        /* \"#utility.yul\":22554:22570   */\n      swap1\n      pop\n        /* \"#utility.yul\":22544:22576   */\n      swap2\n      swap1\n      pop\n      jump\t// out\n        /* \"#utility.yul\":22582:22762   */\n    tag_530:\n        /* \"#utility.yul\":22630:22707   */\n      0x4e487b7100000000000000000000000000000000000000000000000000000000\n        /* \"#utility.yul\":22627:22628   */\n      0x00\n        /* \"#utility.yul\":22620:22708   */\n      mstore\n        /* \"#utility.yul\":22727:22731   */\n      0x22\n        /* \"#utility.yul\":22724:22725   */\n      0x04\n        /* \"#utility.yul\":22717:22732   */\n      mstore\n        /* \"#utility.yul\":22751:22755   */\n      0x24\n        /* \"#utility.yul\":22748:22749   */\n      0x00\n        /* \"#utility.yul\":22741:22756   */\n      revert\n        /* \"#utility.yul\":22768:22948   */\n    tag_501:\n        /* \"#utility.yul\":22816:22893   */\n      0x4e487b7100000000000000000000000000000000000000000000000000000000\n        /* \"#utility.yul\":22813:22814   */\n      0x00\n        /* \"#utility.yul\":22806:22894   */\n      mstore\n        /* \"#utility.yul\":22913:22917   */\n      0x41\n        /* \"#utility.yul\":22910:22911   */\n      0x04\n        /* \"#utility.yul\":22903:22918   */\n      mstore\n        /* \"#utility.yul\":22937:22941   */\n      0x24\n        /* \"#utility.yul\":22934:22935   */\n      0x00\n        /* \"#utility.yul\":22927:22942   */\n      revert\n        /* \"#utility.yul\":22954:23056   */\n    tag_372:\n        /* \"#utility.yul\":22995:23001   */\n      0x00\n        /* \"#utility.yul\":23046:23048   */\n      0x1f\n        /* \"#utility.yul\":23042:23049   */\n      not\n        /* \"#utility.yul\":23037:23039   */\n      0x1f\n        /* \"#utility.yul\":23030:23035   */\n      dup4\n        /* \"#utility.yul\":23026:23040   */\n      add\n        /* \"#utility.yul\":23022:23050   */\n      and\n        /* \"#utility.yul\":23012:23050   */\n      swap1\n      pop\n        /* \"#utility.yul\":23002:23056   */\n      swap2\n      swap1\n      pop\n      jump\t// out\n        /* \"#utility.yul\":23062:23294   */\n    tag_391:\n        /* \"#utility.yul\":23202:23236   */\n      0x4552433732313a2063616c6c6572206973206e6f7420746f6b656e206f776e65\n        /* \"#utility.yul\":23198:23199   */\n      0x00\n        /* \"#utility.yul\":23190:23196   */\n      dup3\n        /* \"#utility.yul\":23186:23200   */\n      add\n        /* \"#utility.yul\":23179:23237   */\n      mstore\n        /* \"#utility.yul\":23271:23286   */\n      0x72206f7220617070726f76656400000000000000000000000000000000000000\n        /* \"#utility.yul\":23266:23268   */\n      0x20\n        /* \"#utility.yul\":23258:23264   */\n      dup3\n        /* \"#utility.yul\":23254:23269   */\n      add\n        /* \"#utility.yul\":23247:23287   */\n      mstore\n        /* \"#utility.yul\":23168:23294   */\n      pop\n      jump\t// out\n        /* \"#utility.yul\":23300:23537   */\n    tag_396:\n        /* \"#utility.yul\":23440:23474   */\n      0x4552433732313a207472616e7366657220746f206e6f6e204552433732315265\n        /* \"#utility.yul\":23436:23437   */\n      0x00\n        /* \"#utility.yul\":23428:23434   */\n      dup3\n        /* \"#utility.yul\":23424:23438   */\n      add\n        /* \"#utility.yul\":23417:23475   */\n      mstore\n        /* \"#utility.yul\":23509:23529   */\n      0x63656976657220696d706c656d656e7465720000000000000000000000000000\n        /* \"#utility.yul\":23504:23506   */\n      0x20\n        /* \"#utility.yul\":23496:23502   */\n      dup3\n        /* \"#utility.yul\":23492:23507   */\n      add\n        /* \"#utility.yul\":23485:23530   */\n      mstore\n        /* \"#utility.yul\":23406:23537   */\n      pop\n      jump\t// out\n        /* \"#utility.yul\":23543:23767   */\n    tag_401:\n        /* \"#utility.yul\":23683:23717   */\n      0x4552433732313a207472616e736665722066726f6d20696e636f727265637420\n        /* \"#utility.yul\":23679:23680   */\n      0x00\n        /* \"#utility.yul\":23671:23677   */\n      dup3\n        /* \"#utility.yul\":23667:23681   */\n      add\n        /* \"#utility.yul\":23660:23718   */\n      mstore\n        /* \"#utility.yul\":23752:23759   */\n      0x6f776e6572000000000000000000000000000000000000000000000000000000\n        /* \"#utility.yul\":23747:23749   */\n      0x20\n        /* \"#utility.yul\":23739:23745   */\n      dup3\n        /* \"#utility.yul\":23735:23750   */\n      add\n        /* \"#utility.yul\":23728:23760   */\n      mstore\n        /* \"#utility.yul\":23649:23767   */\n      pop\n      jump\t// out\n        /* \"#utility.yul\":23773:23951   */\n    tag_406:\n        /* \"#utility.yul\":23913:23943   */\n      0x4552433732313a20746f6b656e20616c7265616479206d696e74656400000000\n        /* \"#utility.yul\":23909:23910   */\n      0x00\n        /* \"#utility.yul\":23901:23907   */\n      dup3\n        /* \"#utility.yul\":23897:23911   */\n      add\n        /* \"#utility.yul\":23890:23944   */\n      mstore\n        /* \"#utility.yul\":23879:23951   */\n      pop\n      jump\t// out\n        /* \"#utility.yul\":23957:24180   */\n    tag_411:\n        /* \"#utility.yul\":24097:24131   */\n      0x4552433732313a207472616e7366657220746f20746865207a65726f20616464\n        /* \"#utility.yul\":24093:24094   */\n      0x00\n        /* \"#utility.yul\":24085:24091   */\n      dup3\n        /* \"#utility.yul\":24081:24095   */\n      add\n        /* \"#utility.yul\":24074:24132   */\n      mstore\n        /* \"#utility.yul\":24166:24172   */\n      0x7265737300000000000000000000000000000000000000000000000000000000\n        /* \"#utility.yul\":24161:24163   */\n      0x20\n        /* \"#utility.yul\":24153:24159   */\n      dup3\n        /* \"#utility.yul\":24149:24164   */\n      add\n        /* \"#utility.yul\":24142:24173   */\n      mstore\n        /* \"#utility.yul\":24063:24180   */\n      pop\n      jump\t// out\n        /* \"#utility.yul\":24186:24361   */\n    tag_416:\n        /* \"#utility.yul\":24326:24353   */\n      0x4552433732313a20617070726f766520746f2063616c6c657200000000000000\n        /* \"#utility.yul\":24322:24323   */\n      0x00\n        /* \"#utility.yul\":24314:24320   */\n      dup3\n        /* \"#utility.yul\":24310:24324   */\n      add\n        /* \"#utility.yul\":24303:24354   */\n      mstore\n        /* \"#utility.yul\":24292:24361   */\n      pop\n      jump\t// out\n        /* \"#utility.yul\":24367:24595   */\n    tag_421:\n        /* \"#utility.yul\":24507:24541   */\n      0x4552433732313a2061646472657373207a65726f206973206e6f742061207661\n        /* \"#utility.yul\":24503:24504   */\n      0x00\n        /* \"#utility.yul\":24495:24501   */\n      dup3\n        /* \"#utility.yul\":24491:24505   */\n      add\n        /* \"#utility.yul\":24484:24542   */\n      mstore\n        /* \"#utility.yul\":24576:24587   */\n      0x6c6964206f776e65720000000000000000000000000000000000000000000000\n        /* \"#utility.yul\":24571:24573   */\n      0x20\n        /* \"#utility.yul\":24563:24569   */\n      dup3\n        /* \"#utility.yul\":24559:24574   */\n      add\n        /* \"#utility.yul\":24552:24588   */\n      mstore\n        /* \"#utility.yul\":24473:24595   */\n      pop\n      jump\t// out\n        /* \"#utility.yul\":24601:24783   */\n    tag_426:\n        /* \"#utility.yul\":24741:24775   */\n      0x4552433732313a206d696e7420746f20746865207a65726f2061646472657373\n        /* \"#utility.yul\":24737:24738   */\n      0x00\n        /* \"#utility.yul\":24729:24735   */\n      dup3\n        /* \"#utility.yul\":24725:24739   */\n      add\n        /* \"#utility.yul\":24718:24776   */\n      mstore\n        /* \"#utility.yul\":24707:24783   */\n      pop\n      jump\t// out\n        /* \"#utility.yul\":24789:24963   */\n    tag_431:\n        /* \"#utility.yul\":24929:24955   */\n      0x4552433732313a20696e76616c696420746f6b656e2049440000000000000000\n        /* \"#utility.yul\":24925:24926   */\n      0x00\n        /* \"#utility.yul\":24917:24923   */\n      dup3\n        /* \"#utility.yul\":24913:24927   */\n      add\n        /* \"#utility.yul\":24906:24956   */\n      mstore\n        /* \"#utility.yul\":24895:24963   */\n      pop\n      jump\t// out\n        /* \"#utility.yul\":24969:25189   */\n    tag_436:\n        /* \"#utility.yul\":25109:25143   */\n      0x4552433732313a20617070726f76616c20746f2063757272656e74206f776e65\n        /* \"#utility.yul\":25105:25106   */\n      0x00\n        /* \"#utility.yul\":25097:25103   */\n      dup3\n        /* \"#utility.yul\":25093:25107   */\n      add\n        /* \"#utility.yul\":25086:25144   */\n      mstore\n        /* \"#utility.yul\":25178:25181   */\n      0x7200000000000000000000000000000000000000000000000000000000000000\n        /* \"#utility.yul\":25173:25175   */\n      0x20\n        /* \"#utility.yul\":25165:25171   */\n      dup3\n        /* \"#utility.yul\":25161:25176   */\n      add\n        /* \"#utility.yul\":25154:25182   */\n      mstore\n        /* \"#utility.yul\":25075:25189   */\n      pop\n      jump\t// out\n        /* \"#utility.yul\":25195:25443   */\n    tag_441:\n        /* \"#utility.yul\":25335:25369   */\n      0x4552433732313a20617070726f76652063616c6c6572206973206e6f7420746f\n        /* \"#utility.yul\":25331:25332   */\n      0x00\n        /* \"#utility.yul\":25323:25329   */\n      dup3\n        /* \"#utility.yul\":25319:25333   */\n      add\n        /* \"#utility.yul\":25312:25370   */\n      mstore\n        /* \"#utility.yul\":25404:25435   */\n      0x6b656e206f776e6572206f7220617070726f76656420666f7220616c6c000000\n        /* \"#utility.yul\":25399:25401   */\n      0x20\n        /* \"#utility.yul\":25391:25397   */\n      dup3\n        /* \"#utility.yul\":25387:25402   */\n      add\n        /* \"#utility.yul\":25380:25436   */\n      mstore\n        /* \"#utility.yul\":25301:25443   */\n      pop\n      jump\t// out\n        /* \"#utility.yul\":25449:25571   */\n    tag_289:\n        /* \"#utility.yul\":25522:25546   */\n      tag_551\n        /* \"#utility.yul\":25540:25545   */\n      dup2\n        /* \"#utility.yul\":25522:25546   */\n      tag_358\n      jump\t// in\n    tag_551:\n        /* \"#utility.yul\":25515:25520   */\n      dup2\n        /* \"#utility.yul\":25512:25547   */\n      eq\n        /* \"#utility.yul\":25502:25504   */\n      tag_552\n      jumpi\n        /* \"#utility.yul\":25561:25562   */\n      0x00\n        /* \"#utility.yul\":25558:25559   */\n      dup1\n        /* \"#utility.yul\":25551:25563   */\n      revert\n        /* \"#utility.yul\":25502:25504   */\n    tag_552:\n        /* \"#utility.yul\":25492:25571   */\n      pop\n      jump\t// out\n        /* \"#utility.yul\":25577:25693   */\n    tag_293:\n        /* \"#utility.yul\":25647:25668   */\n      tag_554\n        /* \"#utility.yul\":25662:25667   */\n      dup2\n        /* \"#utility.yul\":25647:25668   */\n      tag_362\n      jump\t// in\n    tag_554:\n        /* \"#utility.yul\":25640:25645   */\n      dup2\n        /* \"#utility.yul\":25637:25669   */\n      eq\n        /* \"#utility.yul\":25627:25629   */\n      tag_555\n      jumpi\n        /* \"#utility.yul\":25683:25684   */\n      0x00\n        /* \"#utility.yul\":25680:25681   */\n      dup1\n        /* \"#utility.yul\":25673:25685   */\n      revert\n        /* \"#utility.yul\":25627:25629   */\n    tag_555:\n        /* \"#utility.yul\":25617:25693   */\n      pop\n      jump\t// out\n        /* \"#utility.yul\":25699:25819   */\n    tag_297:\n        /* \"#utility.yul\":25771:25794   */\n      tag_557\n        /* \"#utility.yul\":25788:25793   */\n      dup2\n        /* \"#utility.yul\":25771:25794   */\n      tag_516\n      jump\t// in\n    tag_557:\n        /* \"#utility.yul\":25764:25769   */\n      dup2\n        /* \"#utility.yul\":25761:25795   */\n      eq\n        /* \"#utility.yul\":25751:25753   */\n      tag_558\n      jumpi\n        /* \"#utility.yul\":25809:25810   */\n      0x00\n        /* \"#utility.yul\":25806:25807   */\n      dup1\n        /* \"#utility.yul\":25799:25811   */\n      revert\n        /* \"#utility.yul\":25751:25753   */\n    tag_558:\n        /* \"#utility.yul\":25741:25819   */\n      pop\n      jump\t// out\n        /* \"#utility.yul\":25825:25947   */\n    tag_312:\n        /* \"#utility.yul\":25898:25922   */\n      tag_560\n        /* \"#utility.yul\":25916:25921   */\n      dup2\n        /* \"#utility.yul\":25898:25922   */\n      tag_445\n      jump\t// in\n    tag_560:\n        /* \"#utility.yul\":25891:25896   */\n      dup2\n        /* \"#utility.yul\":25888:25923   */\n      eq\n        /* \"#utility.yul\":25878:25880   */\n      tag_561\n      jumpi\n        /* \"#utility.yul\":25937:25938   */\n      0x00\n        /* \"#utility.yul\":25934:25935   */\n      dup1\n        /* \"#utility.yul\":25927:25939   */\n      revert\n        /* \"#utility.yul\":25878:25880   */\n    tag_561:\n        /* \"#utility.yul\":25868:25947   */\n      pop\n      jump\t// out\n\n    auxdata: 0xa2646970667358221220baeb6644811205fa2a325541509dbf89a490c8e597d9c447d13353110b0e66fc64736f6c63430008040033\n}\n",
				"bytecode": {
					"linkReferences": {},
					"object": "60806040523480156200001157600080fd5b506040516200289438038062002894833981810160405281019062000037919062000193565b81600090805190602001906200004f92919062000071565b5080600190805190602001906200006892919062000071565b50505062000376565b8280546200007f906200029b565b90600052602060002090601f016020900481019282620000a35760008555620000ef565b82601f10620000be57805160ff1916838001178555620000ef565b82800160010185558215620000ef579182015b82811115620000ee578251825591602001919060010190620000d1565b5b509050620000fe919062000102565b5090565b5b808211156200011d57600081600090555060010162000103565b5090565b60006200013862000132846200022f565b62000206565b9050828152602081018484840111156200015157600080fd5b6200015e84828562000265565b509392505050565b600082601f8301126200017857600080fd5b81516200018a84826020860162000121565b91505092915050565b60008060408385031215620001a757600080fd5b600083015167ffffffffffffffff811115620001c257600080fd5b620001d08582860162000166565b925050602083015167ffffffffffffffff811115620001ee57600080fd5b620001fc8582860162000166565b9150509250929050565b60006200021262000225565b9050620002208282620002d1565b919050565b6000604051905090565b600067ffffffffffffffff8211156200024d576200024c62000336565b5b620002588262000365565b9050602081019050919050565b60005b838110156200028557808201518184015260208101905062000268565b8381111562000295576000848401525b50505050565b60006002820490506001821680620002b457607f821691505b60208210811415620002cb57620002ca62000307565b5b50919050565b620002dc8262000365565b810181811067ffffffffffffffff82111715620002fe57620002fd62000336565b5b80604052505050565b7f4e487b7100000000000000000000000000000000000000000000000000000000600052602260045260246000fd5b7f4e487b7100000000000000000000000000000000000000000000000000000000600052604160045260246000fd5b6000601f19601f8301169050919050565b61250e80620003866000396000f3fe608060405234801561001057600080fd5b50600436106100f55760003560e01c806370a0823111610097578063b88d4fde11610066578063b88d4fde14610296578063c87b56dd146102b2578063cd279c7c146102e2578063e985e9c5146102fe576100f5565b806370a08231146101fc5780638d17e7121461022c57806395d89b411461025c578063a22cb4651461027a576100f5565b8063095ea7b3116100d3578063095ea7b31461017857806323b872dd1461019457806342842e0e146101b05780636352211e146101cc576100f5565b806301ffc9a7146100fa57806306fdde031461012a578063081812fc14610148575b600080fd5b610114600480360381019061010f9190611a05565b61032e565b6040516101219190611d9b565b60405180910390f35b610132610410565b60405161013f9190611db6565b60405180910390f35b610162600480360381019061015d9190611a57565b6104a2565b60405161016f9190611d34565b60405180910390f35b610192600480360381019061018d9190611962565b6104e8565b005b6101ae60048036038101906101a9919061185c565b610600565b005b6101ca60048036038101906101c5919061185c565b610660565b005b6101e660048036038101906101e19190611a57565b610680565b6040516101f39190611d34565b60405180910390f35b610216600480360381019061021191906117f7565b610732565b6040516102239190611f38565b60405180910390f35b61024660048036038101906102419190611a57565b6107ea565b6040516102539190611db6565b60405180910390f35b61026461084a565b6040516102719190611db6565b60405180910390f35b610294600480360381019061028f9190611926565b6108dc565b005b6102b060048036038101906102ab91906118ab565b6108f2565b005b6102cc60048036038101906102c79190611a57565b610954565b6040516102d99190611db6565b60405180910390f35b6102fc60048036038101906102f7919061199e565b610a6d565b005b61031860048036038101906103139190611820565b610a86565b6040516103259190611d9b565b60405180910390f35b60007f80ac58cd000000000000000000000000000000000000000000000000000000007bffffffffffffffffffffffffffffffffffffffffffffffffffffffff1916827bffffffffffffffffffffffffffffffffffffffffffffffffffffffff191614806103f957507f5b5e139f000000000000000000000000000000000000000000000000000000007bffffffffffffffffffffffffffffffffffffffffffffffffffffffff1916827bffffffffffffffffffffffffffffffffffffffffffffffffffffffff1916145b80610409575061040882610b1a565b5b9050919050565b60606000805461041f906120d3565b80601f016020809104026020016040519081016040528092919081815260200182805461044b906120d3565b80156104985780601f1061046d57610100808354040283529160200191610498565b820191906000526020600020905b81548152906001019060200180831161047b57829003601f168201915b5050505050905090565b60006104ad82610b84565b6004600083815260200190815260200160002060009054906101000a900473ffffffffffffffffffffffffffffffffffffffff169050919050565b60006104f382610680565b90508073ffffffffffffffffffffffffffffffffffffffff168373ffffffffffffffffffffffffffffffffffffffff161415610564576040517f08c379a000000000000000000000000000000000000000000000000000000000815260040161055b90611ef8565b60405180910390fd5b8073ffffffffffffffffffffffffffffffffffffffff16610583610bcf565b73ffffffffffffffffffffffffffffffffffffffff1614806105b257506105b1816105ac610bcf565b610a86565b5b6105f1576040517f08c379a00000000000000000000000000000000000000000000000000000000081526004016105e890611f18565b60405180910390fd5b6105fb8383610bd7565b505050565b61061161060b610bcf565b82610c90565b610650576040517f08c379a000000000000000000000000000000000000000000000000000000000815260040161064790611dd8565b60405180910390fd5b61065b838383610d25565b505050565b61067b838383604051806020016040528060008152506108f2565b505050565b6000806002600084815260200190815260200160002060009054906101000a900473ffffffffffffffffffffffffffffffffffffffff169050600073ffffffffffffffffffffffffffffffffffffffff168173ffffffffffffffffffffffffffffffffffffffff161415610729576040517f08c379a000000000000000000000000000000000000000000000000000000000815260040161072090611ed8565b60405180910390fd5b80915050919050565b60008073ffffffffffffffffffffffffffffffffffffffff168273ffffffffffffffffffffffffffffffffffffffff1614156107a3576040517f08c379a000000000000000000000000000000000000000000000000000000000815260040161079a90611e98565b60405180910390fd5b600360008373ffffffffffffffffffffffffffffffffffffffff1673ffffffffffffffffffffffffffffffffffffffff168152602001908152602001600020549050919050565b60606107f582610b84565b60006107ff61101b565b9050600081511161081f5760405180602001604052806000815250610842565b8083604051602001610832929190611d0c565b6040516020818303038152906040525b915050919050565b606060018054610859906120d3565b80601f0160208091040260200160405190810160405280929190818152602001828054610885906120d3565b80156108d25780601f106108a7576101008083540402835291602001916108d2565b820191906000526020600020905b8154815290600101906020018083116108b557829003601f168201915b5050505050905090565b6108ee6108e7610bcf565b8383611032565b5050565b6109036108fd610bcf565b83610c90565b610942576040517f08c379a000000000000000000000000000000000000000000000000000000000815260040161093990611dd8565b60405180910390fd5b61094e8484848461119f565b50505050565b606061095f82610b84565b600060066000848152602001908152602001600020805461097f906120d3565b80601f01602080910402602001604051908101604052809291908181526020018280546109ab906120d3565b80156109f85780601f106109cd576101008083540402835291602001916109f8565b820191906000526020600020905b8154815290600101906020018083116109db57829003601f168201915b505050505090506000610a0961101b565b9050600081511415610a1f578192505050610a68565b600082511115610a54578082604051602001610a3c929190611ce8565b60405160208183030381529060405292505050610a68565b6000610a5f856107ea565b90508093505050505b919050565b610a7783836111fb565b610a8082610954565b50505050565b6000600560008473ffffffffffffffffffffffffffffffffffffffff1673ffffffffffffffffffffffffffffffffffffffff16815260200190815260200160002060008373ffffffffffffffffffffffffffffffffffffffff1673ffffffffffffffffffffffffffffffffffffffff16815260200190815260200160002060009054906101000a900460ff16905092915050565b60007f01ffc9a7000000000000000000000000000000000000000000000000000000007bffffffffffffffffffffffffffffffffffffffffffffffffffffffff1916827bffffffffffffffffffffffffffffffffffffffffffffffffffffffff1916149050919050565b610b8d81611219565b610bcc576040517f08c379a0000000000000000000000000000000000000000000000000000000008152600401610bc390611ed8565b60405180910390fd5b50565b600033905090565b816004600083815260200190815260200160002060006101000a81548173ffffffffffffffffffffffffffffffffffffffff021916908373ffffffffffffffffffffffffffffffffffffffff160217905550808273ffffffffffffffffffffffffffffffffffffffff16610c4a83610680565b73ffffffffffffffffffffffffffffffffffffffff167f8c5be1e5ebec7d5bd14f71427d1e84f3dd0314c0f7b2291e5b200ac8c7c3b92560405160405180910390a45050565b600080610c9c83610680565b90508073ffffffffffffffffffffffffffffffffffffffff168473ffffffffffffffffffffffffffffffffffffffff161480610cde5750610cdd8185610a86565b5b80610d1c57508373ffffffffffffffffffffffffffffffffffffffff16610d04846104a2565b73ffffffffffffffffffffffffffffffffffffffff16145b91505092915050565b8273ffffffffffffffffffffffffffffffffffffffff16610d4582610680565b73ffffffffffffffffffffffffffffffffffffffff1614610d9b576040517f08c379a0000000000000000000000000000000000000000000000000000000008152600401610d9290611e18565b60405180910390fd5b600073ffffffffffffffffffffffffffffffffffffffff168273ffffffffffffffffffffffffffffffffffffffff161415610e0b576040517f08c379a0000000000000000000000000000000000000000000000000000000008152600401610e0290611e58565b60405180910390fd5b610e16838383611285565b8273ffffffffffffffffffffffffffffffffffffffff16610e3682610680565b73ffffffffffffffffffffffffffffffffffffffff1614610e8c576040517f08c379a0000000000000000000000000000000000000000000000000000000008152600401610e8390611e18565b60405180910390fd5b6004600082815260200190815260200160002060006101000a81549073ffffffffffffffffffffffffffffffffffffffff02191690556001600360008573ffffffffffffffffffffffffffffffffffffffff1673ffffffffffffffffffffffffffffffffffffffff168152602001908152602001600020600082825403925050819055506001600360008473ffffffffffffffffffffffffffffffffffffffff1673ffffffffffffffffffffffffffffffffffffffff16815260200190815260200160002060008282540192505081905550816002600083815260200190815260200160002060006101000a81548173ffffffffffffffffffffffffffffffffffffffff021916908373ffffffffffffffffffffffffffffffffffffffff160217905550808273ffffffffffffffffffffffffffffffffffffffff168473ffffffffffffffffffffffffffffffffffffffff167fddf252ad1be2c89b69c2b068fc378daa952ba7f163c4a11628f55a4df523b3ef60405160405180910390a461101683838361128a565b505050565b606060405180602001604052806000815250905090565b8173ffffffffffffffffffffffffffffffffffffffff168373ffffffffffffffffffffffffffffffffffffffff1614156110a1576040517f08c379a000000000000000000000000000000000000000000000000000000000815260040161109890611e78565b60405180910390fd5b80600560008573ffffffffffffffffffffffffffffffffffffffff1673ffffffffffffffffffffffffffffffffffffffff16815260200190815260200160002060008473ffffffffffffffffffffffffffffffffffffffff1673ffffffffffffffffffffffffffffffffffffffff16815260200190815260200160002060006101000a81548160ff0219169083151502179055508173ffffffffffffffffffffffffffffffffffffffff168373ffffffffffffffffffffffffffffffffffffffff167f17307eab39ab6107e8899845ad3d59bd9653f200f220920489ca2b5937696c31836040516111929190611d9b565b60405180910390a3505050565b6111aa848484610d25565b6111b68484848461128f565b6111f5576040517f08c379a00000000000000000000000000000000000000000000000000000000081526004016111ec90611df8565b60405180910390fd5b50505050565b611215828260405180602001604052806000815250611426565b5050565b60008073ffffffffffffffffffffffffffffffffffffffff166002600084815260200190815260200160002060009054906101000a900473ffffffffffffffffffffffffffffffffffffffff1673ffffffffffffffffffffffffffffffffffffffff1614159050919050565b505050565b505050565b60006112b08473ffffffffffffffffffffffffffffffffffffffff16611481565b15611419578373ffffffffffffffffffffffffffffffffffffffff1663150b7a026112d9610bcf565b8786866040518563ffffffff1660e01b81526004016112fb9493929190611d4f565b602060405180830381600087803b15801561131557600080fd5b505af192505050801561134657506040513d601f19601f820116820180604052508101906113439190611a2e565b60015b6113c9573d8060008114611376576040519150601f19603f3d011682016040523d82523d6000602084013e61137b565b606091505b506000815114156113c1576040517f08c379a00000000000000000000000000000000000000000000000000000000081526004016113b890611df8565b60405180910390fd5b805181602001fd5b63150b7a0260e01b7bffffffffffffffffffffffffffffffffffffffffffffffffffffffff1916817bffffffffffffffffffffffffffffffffffffffffffffffffffffffff19161491505061141e565b600190505b949350505050565b61143083836114a4565b61143d600084848461128f565b61147c576040517f08c379a000000000000000000000000000000000000000000000000000000000815260040161147390611df8565b60405180910390fd5b505050565b6000808273ffffffffffffffffffffffffffffffffffffffff163b119050919050565b600073ffffffffffffffffffffffffffffffffffffffff168273ffffffffffffffffffffffffffffffffffffffff161415611514576040517f08c379a000000000000000000000000000000000000000000000000000000000815260040161150b90611eb8565b60405180910390fd5b61151d81611219565b1561155d576040517f08c379a000000000000000000000000000000000000000000000000000000000815260040161155490611e38565b60405180910390fd5b61156960008383611285565b61157281611219565b156115b2576040517f08c379a00000000000000000000000000000000000000000000000000000000081526004016115a990611e38565b60405180910390fd5b6001600360008473ffffffffffffffffffffffffffffffffffffffff1673ffffffffffffffffffffffffffffffffffffffff16815260200190815260200160002060008282540192505081905550816002600083815260200190815260200160002060006101000a81548173ffffffffffffffffffffffffffffffffffffffff021916908373ffffffffffffffffffffffffffffffffffffffff160217905550808273ffffffffffffffffffffffffffffffffffffffff16600073ffffffffffffffffffffffffffffffffffffffff167fddf252ad1be2c89b69c2b068fc378daa952ba7f163c4a11628f55a4df523b3ef60405160405180910390a46116ba6000838361128a565b5050565b60006116d16116cc84611f78565b611f53565b9050828152602081018484840111156116e957600080fd5b6116f4848285612091565b509392505050565b600061170f61170a84611fa9565b611f53565b90508281526020810184848401111561172757600080fd5b611732848285612091565b509392505050565b6000813590506117498161247c565b92915050565b60008135905061175e81612493565b92915050565b600081359050611773816124aa565b92915050565b600081519050611788816124aa565b92915050565b600082601f83011261179f57600080fd5b81356117af8482602086016116be565b91505092915050565b600082601f8301126117c957600080fd5b81356117d98482602086016116fc565b91505092915050565b6000813590506117f1816124c1565b92915050565b60006020828403121561180957600080fd5b60006118178482850161173a565b91505092915050565b6000806040838503121561183357600080fd5b60006118418582860161173a565b92505060206118528582860161173a565b9150509250929050565b60008060006060848603121561187157600080fd5b600061187f8682870161173a565b93505060206118908682870161173a565b92505060406118a1868287016117e2565b9150509250925092565b600080600080608085870312156118c157600080fd5b60006118cf8782880161173a565b94505060206118e08782880161173a565b93505060406118f1878288016117e2565b925050606085013567ffffffffffffffff81111561190e57600080fd5b61191a8782880161178e565b91505092959194509250565b6000806040838503121561193957600080fd5b60006119478582860161173a565b92505060206119588582860161174f565b9150509250929050565b6000806040838503121561197557600080fd5b60006119838582860161173a565b9250506020611994858286016117e2565b9150509250929050565b6000806000606084860312156119b357600080fd5b60006119c18682870161173a565b93505060206119d2868287016117e2565b925050604084013567ffffffffffffffff8111156119ef57600080fd5b6119fb868287016117b8565b9150509250925092565b600060208284031215611a1757600080fd5b6000611a2584828501611764565b91505092915050565b600060208284031215611a4057600080fd5b6000611a4e84828501611779565b91505092915050565b600060208284031215611a6957600080fd5b6000611a77848285016117e2565b91505092915050565b611a898161201d565b82525050565b611a988161202f565b82525050565b6000611aa982611fda565b611ab38185611ff0565b9350611ac38185602086016120a0565b611acc8161219e565b840191505092915050565b6000611ae282611fe5565b611aec8185612001565b9350611afc8185602086016120a0565b611b058161219e565b840191505092915050565b6000611b1b82611fe5565b611b258185612012565b9350611b358185602086016120a0565b80840191505092915050565b6000611b4e602d83612001565b9150611b59826121af565b604082019050919050565b6000611b71603283612001565b9150611b7c826121fe565b604082019050919050565b6000611b94602583612001565b9150611b9f8261224d565b604082019050919050565b6000611bb7601c83612001565b9150611bc28261229c565b602082019050919050565b6000611bda602483612001565b9150611be5826122c5565b604082019050919050565b6000611bfd601983612001565b9150611c0882612314565b602082019050919050565b6000611c20602983612001565b9150611c2b8261233d565b604082019050919050565b6000611c43602083612001565b9150611c4e8261238c565b602082019050919050565b6000611c66601883612001565b9150611c71826123b5565b602082019050919050565b6000611c89602183612001565b9150611c94826123de565b604082019050919050565b6000611cac603d83612001565b9150611cb78261242d565b604082019050919050565b611ccb81612087565b82525050565b611ce2611cdd82612087565b612136565b82525050565b6000611cf48285611b10565b9150611d008284611b10565b91508190509392505050565b6000611d188285611b10565b9150611d248284611cd1565b6020820191508190509392505050565b6000602082019050611d496000830184611a80565b92915050565b6000608082019050611d646000830187611a80565b611d716020830186611a80565b611d7e6040830185611cc2565b8181036060830152611d908184611a9e565b905095945050505050565b6000602082019050611db06000830184611a8f565b92915050565b60006020820190508181036000830152611dd08184611ad7565b905092915050565b60006020820190508181036000830152611df181611b41565b9050919050565b60006020820190508181036000830152611e1181611b64565b9050919050565b60006020820190508181036000830152611e3181611b87565b9050919050565b60006020820190508181036000830152611e5181611baa565b9050919050565b60006020820190508181036000830152611e7181611bcd565b9050919050565b60006020820190508181036000830152611e9181611bf0565b9050919050565b60006020820190508181036000830152611eb181611c13565b9050919050565b60006020820190508181036000830152611ed181611c36565b9050919050565b60006020820190508181036000830152611ef181611c59565b9050919050565b60006020820190508181036000830152611f1181611c7c565b9050919050565b60006020820190508181036000830152611f3181611c9f565b9050919050565b6000602082019050611f4d6000830184611cc2565b92915050565b6000611f5d611f6e565b9050611f698282612105565b919050565b6000604051905090565b600067ffffffffffffffff821115611f9357611f9261216f565b5b611f9c8261219e565b9050602081019050919050565b600067ffffffffffffffff821115611fc457611fc361216f565b5b611fcd8261219e565b9050602081019050919050565b600081519050919050565b600081519050919050565b600082825260208201905092915050565b600082825260208201905092915050565b600081905092915050565b600061202882612067565b9050919050565b60008115159050919050565b60007fffffffff0000000000000000000000000000000000000000000000000000000082169050919050565b600073ffffffffffffffffffffffffffffffffffffffff82169050919050565b6000819050919050565b82818337600083830152505050565b60005b838110156120be5780820151818401526020810190506120a3565b838111156120cd576000848401525b50505050565b600060028204905060018216806120eb57607f821691505b602082108114156120ff576120fe612140565b5b50919050565b61210e8261219e565b810181811067ffffffffffffffff8211171561212d5761212c61216f565b5b80604052505050565b6000819050919050565b7f4e487b7100000000000000000000000000000000000000000000000000000000600052602260045260246000fd5b7f4e487b7100000000000000000000000000000000000000000000000000000000600052604160045260246000fd5b6000601f19601f8301169050919050565b7f4552433732313a2063616c6c6572206973206e6f7420746f6b656e206f776e6560008201527f72206f7220617070726f76656400000000000000000000000000000000000000602082015250565b7f4552433732313a207472616e7366657220746f206e6f6e20455243373231526560008201527f63656976657220696d706c656d656e7465720000000000000000000000000000602082015250565b7f4552433732313a207472616e736665722066726f6d20696e636f72726563742060008201527f6f776e6572000000000000000000000000000000000000000000000000000000602082015250565b7f4552433732313a20746f6b656e20616c7265616479206d696e74656400000000600082015250565b7f4552433732313a207472616e7366657220746f20746865207a65726f2061646460008201527f7265737300000000000000000000000000000000000000000000000000000000602082015250565b7f4552433732313a20617070726f766520746f2063616c6c657200000000000000600082015250565b7f4552433732313a2061646472657373207a65726f206973206e6f74206120766160008201527f6c6964206f776e65720000000000000000000000000000000000000000000000602082015250565b7f4552433732313a206d696e7420746f20746865207a65726f2061646472657373600082015250565b7f4552433732313a20696e76616c696420746f6b656e2049440000000000000000600082015250565b7f4552433732313a20617070726f76616c20746f2063757272656e74206f776e6560008201527f7200000000000000000000000000000000000000000000000000000000000000602082015250565b7f4552433732313a20617070726f76652063616c6c6572206973206e6f7420746f60008201527f6b656e206f776e6572206f7220617070726f76656420666f7220616c6c000000602082015250565b6124858161201d565b811461249057600080fd5b50565b61249c8161202f565b81146124a757600080fd5b50565b6124b38161203b565b81146124be57600080fd5b50565b6124ca81612087565b81146124d557600080fd5b5056fea2646970667358221220baeb6644811205fa2a325541509dbf89a490c8e597d9c447d13353110b0e66fc64736f6c63430008040033",
					"opcodes": "PUSH1 0x80 PUSH1 0x40 MSTORE CALLVALUE DUP1 ISZERO PUSH3 0x11 JUMPI PUSH1 0x0 DUP1 REVERT JUMPDEST POP PUSH1 0x40 MLOAD PUSH3 0x2894 CODESIZE SUB DUP1 PUSH3 0x2894 DUP4 CODECOPY DUP2 DUP2 ADD PUSH1 0x40 MSTORE DUP2 ADD SWAP1 PUSH3 0x37 SWAP2 SWAP1 PUSH3 0x193 JUMP JUMPDEST DUP2 PUSH1 0x0 SWAP1 DUP1 MLOAD SWAP1 PUSH1 0x20 ADD SWAP1 PUSH3 0x4F SWAP3 SWAP2 SWAP1 PUSH3 0x71 JUMP JUMPDEST POP DUP1 PUSH1 0x1 SWAP1 DUP1 MLOAD SWAP1 PUSH1 0x20 ADD SWAP1 PUSH3 0x68 SWAP3 SWAP2 SWAP1 PUSH3 0x71 JUMP JUMPDEST POP POP POP PUSH3 0x376 JUMP JUMPDEST DUP3 DUP1 SLOAD PUSH3 0x7F SWAP1 PUSH3 0x29B JUMP JUMPDEST SWAP1 PUSH1 0x0 MSTORE PUSH1 0x20 PUSH1 0x0 KECCAK256 SWAP1 PUSH1 0x1F ADD PUSH1 0x20 SWAP1 DIV DUP2 ADD SWAP3 DUP3 PUSH3 0xA3 JUMPI PUSH1 0x0 DUP6 SSTORE PUSH3 0xEF JUMP JUMPDEST DUP3 PUSH1 0x1F LT PUSH3 0xBE JUMPI DUP1 MLOAD PUSH1 0xFF NOT AND DUP4 DUP1 ADD OR DUP6 SSTORE PUSH3 0xEF JUMP JUMPDEST DUP3 DUP1 ADD PUSH1 0x1 ADD DUP6 SSTORE DUP3 ISZERO PUSH3 0xEF JUMPI SWAP2 DUP3 ADD JUMPDEST DUP3 DUP2 GT ISZERO PUSH3 0xEE JUMPI DUP3 MLOAD DUP3 SSTORE SWAP2 PUSH1 0x20 ADD SWAP2 SWAP1 PUSH1 0x1 ADD SWAP1 PUSH3 0xD1 JUMP JUMPDEST JUMPDEST POP SWAP1 POP PUSH3 0xFE SWAP2 SWAP1 PUSH3 0x102 JUMP JUMPDEST POP SWAP1 JUMP JUMPDEST JUMPDEST DUP1 DUP3 GT ISZERO PUSH3 0x11D JUMPI PUSH1 0x0 DUP2 PUSH1 0x0 SWAP1 SSTORE POP PUSH1 0x1 ADD PUSH3 0x103 JUMP JUMPDEST POP SWAP1 JUMP JUMPDEST PUSH1 0x0 PUSH3 0x138 PUSH3 0x132 DUP5 PUSH3 0x22F JUMP JUMPDEST PUSH3 0x206 JUMP JUMPDEST SWAP1 POP DUP3 DUP2 MSTORE PUSH1 0x20 DUP2 ADD DUP5 DUP5 DUP5 ADD GT ISZERO PUSH3 0x151 JUMPI PUSH1 0x0 DUP1 REVERT JUMPDEST PUSH3 0x15E DUP5 DUP3 DUP6 PUSH3 0x265 JUMP JUMPDEST POP SWAP4 SWAP3 POP POP POP JUMP JUMPDEST PUSH1 0x0 DUP3 PUSH1 0x1F DUP4 ADD SLT PUSH3 0x178 JUMPI PUSH1 0x0 DUP1 REVERT JUMPDEST DUP2 MLOAD PUSH3 0x18A DUP5 DUP3 PUSH1 0x20 DUP7 ADD PUSH3 0x121 JUMP JUMPDEST SWAP2 POP POP SWAP3 SWAP2 POP POP JUMP JUMPDEST PUSH1 0x0 DUP1 PUSH1 0x40 DUP4 DUP6 SUB SLT ISZERO PUSH3 0x1A7 JUMPI PUSH1 0x0 DUP1 REVERT JUMPDEST PUSH1 0x0 DUP4 ADD MLOAD PUSH8 0xFFFFFFFFFFFFFFFF DUP2 GT ISZERO PUSH3 0x1C2 JUMPI PUSH1 0x0 DUP1 REVERT JUMPDEST PUSH3 0x1D0 DUP6 DUP3 DUP7 ADD PUSH3 0x166 JUMP JUMPDEST SWAP3 POP POP PUSH1 0x20 DUP4 ADD MLOAD PUSH8 0xFFFFFFFFFFFFFFFF DUP2 GT ISZERO PUSH3 0x1EE JUMPI PUSH1 0x0 DUP1 REVERT JUMPDEST PUSH3 0x1FC DUP6 DUP3 DUP7 ADD PUSH3 0x166 JUMP JUMPDEST SWAP2 POP POP SWAP3 POP SWAP3 SWAP1 POP JUMP JUMPDEST PUSH1 0x0 PUSH3 0x212 PUSH3 0x225 JUMP JUMPDEST SWAP1 POP PUSH3 0x220 DUP3 DUP3 PUSH3 0x2D1 JUMP JUMPDEST SWAP2 SWAP1 POP JUMP JUMPDEST PUSH1 0x0 PUSH1 0x40 MLOAD SWAP1 POP SWAP1 JUMP JUMPDEST PUSH1 0x0 PUSH8 0xFFFFFFFFFFFFFFFF DUP3 GT ISZERO PUSH3 0x24D JUMPI PUSH3 0x24C PUSH3 0x336 JUMP JUMPDEST JUMPDEST PUSH3 0x258 DUP3 PUSH3 0x365 JUMP JUMPDEST SWAP1 POP PUSH1 0x20 DUP2 ADD SWAP1 POP SWAP2 SWAP1 POP JUMP JUMPDEST PUSH1 0x0 JUMPDEST DUP4 DUP2 LT ISZERO PUSH3 0x285 JUMPI DUP1 DUP3 ADD MLOAD DUP2 DUP5 ADD MSTORE PUSH1 0x20 DUP2 ADD SWAP1 POP PUSH3 0x268 JUMP JUMPDEST DUP4 DUP2 GT ISZERO PUSH3 0x295 JUMPI PUSH1 0x0 DUP5 DUP5 ADD MSTORE JUMPDEST POP POP POP POP JUMP JUMPDEST PUSH1 0x0 PUSH1 0x2 DUP3 DIV SWAP1 POP PUSH1 0x1 DUP3 AND DUP1 PUSH3 0x2B4 JUMPI PUSH1 0x7F DUP3 AND SWAP2 POP JUMPDEST PUSH1 0x20 DUP3 LT DUP2 EQ ISZERO PUSH3 0x2CB JUMPI PUSH3 0x2CA PUSH3 0x307 JUMP JUMPDEST JUMPDEST POP SWAP2 SWAP1 POP JUMP JUMPDEST PUSH3 0x2DC DUP3 PUSH3 0x365 JUMP JUMPDEST DUP2 ADD DUP2 DUP2 LT PUSH8 0xFFFFFFFFFFFFFFFF DUP3 GT OR ISZERO PUSH3 0x2FE JUMPI PUSH3 0x2FD PUSH3 0x336 JUMP JUMPDEST JUMPDEST DUP1 PUSH1 0x40 MSTORE POP POP POP JUMP JUMPDEST PUSH32 0x4E487B7100000000000000000000000000000000000000000000000000000000 PUSH1 0x0 MSTORE PUSH1 0x22 PUSH1 0x4 MSTORE PUSH1 0x24 PUSH1 0x0 REVERT JUMPDEST PUSH32 0x4E487B7100000000000000000000000000000000000000000000000000000000 PUSH1 0x0 MSTORE PUSH1 0x41 PUSH1 0x4 MSTORE PUSH1 0x24 PUSH1 0x0 REVERT JUMPDEST PUSH1 0x0 PUSH1 0x1F NOT PUSH1 0x1F DUP4 ADD AND SWAP1 POP SWAP2 SWAP1 POP JUMP JUMPDEST PUSH2 0x250E DUP1 PUSH3 0x386 PUSH1 0x0 CODECOPY PUSH1 0x0 RETURN INVALID PUSH1 0x80 PUSH1 0x40 MSTORE CALLVALUE DUP1 ISZERO PUSH2 0x10 JUMPI PUSH1 0x0 DUP1 REVERT JUMPDEST POP PUSH1 0x4 CALLDATASIZE LT PUSH2 0xF5 JUMPI PUSH1 0x0 CALLDATALOAD PUSH1 0xE0 SHR DUP1 PUSH4 0x70A08231 GT PUSH2 0x97 JUMPI DUP1 PUSH4 0xB88D4FDE GT PUSH2 0x66 JUMPI DUP1 PUSH4 0xB88D4FDE EQ PUSH2 0x296 JUMPI DUP1 PUSH4 0xC87B56DD EQ PUSH2 0x2B2 JUMPI DUP1 PUSH4 0xCD279C7C EQ PUSH2 0x2E2 JUMPI DUP1 PUSH4 0xE985E9C5 EQ PUSH2 0x2FE JUMPI PUSH2 0xF5 JUMP JUMPDEST DUP1 PUSH4 0x70A08231 EQ PUSH2 0x1FC JUMPI DUP1 PUSH4 0x8D17E712 EQ PUSH2 0x22C JUMPI DUP1 PUSH4 0x95D89B41 EQ PUSH2 0x25C JUMPI DUP1 PUSH4 0xA22CB465 EQ PUSH2 0x27A JUMPI PUSH2 0xF5 JUMP JUMPDEST DUP1 PUSH4 0x95EA7B3 GT PUSH2 0xD3 JUMPI DUP1 PUSH4 0x95EA7B3 EQ PUSH2 0x178 JUMPI DUP1 PUSH4 0x23B872DD EQ PUSH2 0x194 JUMPI DUP1 PUSH4 0x42842E0E EQ PUSH2 0x1B0 JUMPI DUP1 PUSH4 0x6352211E EQ PUSH2 0x1CC JUMPI PUSH2 0xF5 JUMP JUMPDEST DUP1 PUSH4 0x1FFC9A7 EQ PUSH2 0xFA JUMPI DUP1 PUSH4 0x6FDDE03 EQ PUSH2 0x12A JUMPI DUP1 PUSH4 0x81812FC EQ PUSH2 0x148 JUMPI JUMPDEST PUSH1 0x0 DUP1 REVERT JUMPDEST PUSH2 0x114 PUSH1 0x4 DUP1 CALLDATASIZE SUB DUP2 ADD SWAP1 PUSH2 0x10F SWAP2 SWAP1 PUSH2 0x1A05 JUMP JUMPDEST PUSH2 0x32E JUMP JUMPDEST PUSH1 0x40 MLOAD PUSH2 0x121 SWAP2 SWAP1 PUSH2 0x1D9B JUMP JUMPDEST PUSH1 0x40 MLOAD DUP1 SWAP2 SUB SWAP1 RETURN JUMPDEST PUSH2 0x132 PUSH2 0x410 JUMP JUMPDEST PUSH1 0x40 MLOAD PUSH2 0x13F SWAP2 SWAP1 PUSH2 0x1DB6 JUMP JUMPDEST PUSH1 0x40 MLOAD DUP1 SWAP2 SUB SWAP1 RETURN JUMPDEST PUSH2 0x162 PUSH1 0x4 DUP1 CALLDATASIZE SUB DUP2 ADD SWAP1 PUSH2 0x15D SWAP2 SWAP1 PUSH2 0x1A57 JUMP JUMPDEST PUSH2 0x4A2 JUMP JUMPDEST PUSH1 0x40 MLOAD PUSH2 0x16F SWAP2 SWAP1 PUSH2 0x1D34 JUMP JUMPDEST PUSH1 0x40 MLOAD DUP1 SWAP2 SUB SWAP1 RETURN JUMPDEST PUSH2 0x192 PUSH1 0x4 DUP1 CALLDATASIZE SUB DUP2 ADD SWAP1 PUSH2 0x18D SWAP2 SWAP1 PUSH2 0x1962 JUMP JUMPDEST PUSH2 0x4E8 JUMP JUMPDEST STOP JUMPDEST PUSH2 0x1AE PUSH1 0x4 DUP1 CALLDATASIZE SUB DUP2 ADD SWAP1 PUSH2 0x1A9 SWAP2 SWAP1 PUSH2 0x185C JUMP JUMPDEST PUSH2 0x600 JUMP JUMPDEST STOP JUMPDEST PUSH2 0x1CA PUSH1 0x4 DUP1 CALLDATASIZE SUB DUP2 ADD SWAP1 PUSH2 0x1C5 SWAP2 SWAP1 PUSH2 0x185C JUMP JUMPDEST PUSH2 0x660 JUMP JUMPDEST STOP JUMPDEST PUSH2 0x1E6 PUSH1 0x4 DUP1 CALLDATASIZE SUB DUP2 ADD SWAP1 PUSH2 0x1E1 SWAP2 SWAP1 PUSH2 0x1A57 JUMP JUMPDEST PUSH2 0x680 JUMP JUMPDEST PUSH1 0x40 MLOAD PUSH2 0x1F3 SWAP2 SWAP1 PUSH2 0x1D34 JUMP JUMPDEST PUSH1 0x40 MLOAD DUP1 SWAP2 SUB SWAP1 RETURN JUMPDEST PUSH2 0x216 PUSH1 0x4 DUP1 CALLDATASIZE SUB DUP2 ADD SWAP1 PUSH2 0x211 SWAP2 SWAP1 PUSH2 0x17F7 JUMP JUMPDEST PUSH2 0x732 JUMP JUMPDEST PUSH1 0x40 MLOAD PUSH2 0x223 SWAP2 SWAP1 PUSH2 0x1F38 JUMP JUMPDEST PUSH1 0x40 MLOAD DUP1 SWAP2 SUB SWAP1 RETURN JUMPDEST PUSH2 0x246 PUSH1 0x4 DUP1 CALLDATASIZE SUB DUP2 ADD SWAP1 PUSH2 0x241 SWAP2 SWAP1 PUSH2 0x1A57 JUMP JUMPDEST PUSH2 0x7EA JUMP JUMPDEST PUSH1 0x40 MLOAD PUSH2 0x253 SWAP2 SWAP1 PUSH2 0x1DB6 JUMP JUMPDEST PUSH1 0x40 MLOAD DUP1 SWAP2 SUB SWAP1 RETURN JUMPDEST PUSH2 0x264 PUSH2 0x84A JUMP JUMPDEST PUSH1 0x40 MLOAD PUSH2 0x271 SWAP2 SWAP1 PUSH2 0x1DB6 JUMP JUMPDEST PUSH1 0x40 MLOAD DUP1 SWAP2 SUB SWAP1 RETURN JUMPDEST PUSH2 0x294 PUSH1 0x4 DUP1 CALLDATASIZE SUB DUP2 ADD SWAP1 PUSH2 0x28F SWAP2 SWAP1 PUSH2 0x1926 JUMP JUMPDEST PUSH2 0x8DC JUMP JUMPDEST STOP JUMPDEST PUSH2 0x2B0 PUSH1 0x4 DUP1 CALLDATASIZE SUB DUP2 ADD SWAP1 PUSH2 0x2AB SWAP2 SWAP1 PUSH2 0x18AB JUMP JUMPDEST PUSH2 0x8F2 JUMP JUMPDEST STOP JUMPDEST PUSH2 0x2CC PUSH1 0x4 DUP1 CALLDATASIZE SUB DUP2 ADD SWAP1 PUSH2 0x2C7 SWAP2 SWAP1 PUSH2 0x1A57 JUMP JUMPDEST PUSH2 0x954 JUMP JUMPDEST PUSH1 0x40 MLOAD PUSH2 0x2D9 SWAP2 SWAP1 PUSH2 0x1DB6 JUMP JUMPDEST PUSH1 0x40 MLOAD DUP1 SWAP2 SUB SWAP1 RETURN JUMPDEST PUSH2 0x2FC PUSH1 0x4 DUP1 CALLDATASIZE SUB DUP2 ADD SWAP1 PUSH2 0x2F7 SWAP2 SWAP1 PUSH2 0x199E JUMP JUMPDEST PUSH2 0xA6D JUMP JUMPDEST STOP JUMPDEST PUSH2 0x318 PUSH1 0x4 DUP1 CALLDATASIZE SUB DUP2 ADD SWAP1 PUSH2 0x313 SWAP2 SWAP1 PUSH2 0x1820 JUMP JUMPDEST PUSH2 0xA86 JUMP JUMPDEST PUSH1 0x40 MLOAD PUSH2 0x325 SWAP2 SWAP1 PUSH2 0x1D9B JUMP JUMPDEST PUSH1 0x40 MLOAD DUP1 SWAP2 SUB SWAP1 RETURN JUMPDEST PUSH1 0x0 PUSH32 0x80AC58CD00000000000000000000000000000000000000000000000000000000 PUSH28 0xFFFFFFFFFFFFFFFFFFFFFFFFFFFFFFFFFFFFFFFFFFFFFFFFFFFFFFFF NOT AND DUP3 PUSH28 0xFFFFFFFFFFFFFFFFFFFFFFFFFFFFFFFFFFFFFFFFFFFFFFFFFFFFFFFF NOT AND EQ DUP1 PUSH2 0x3F9 JUMPI POP PUSH32 0x5B5E139F00000000000000000000000000000000000000000000000000000000 PUSH28 0xFFFFFFFFFFFFFFFFFFFFFFFFFFFFFFFFFFFFFFFFFFFFFFFFFFFFFFFF NOT AND DUP3 PUSH28 0xFFFFFFFFFFFFFFFFFFFFFFFFFFFFFFFFFFFFFFFFFFFFFFFFFFFFFFFF NOT AND EQ JUMPDEST DUP1 PUSH2 0x409 JUMPI POP PUSH2 0x408 DUP3 PUSH2 0xB1A JUMP JUMPDEST JUMPDEST SWAP1 POP SWAP2 SWAP1 POP JUMP JUMPDEST PUSH1 0x60 PUSH1 0x0 DUP1 SLOAD PUSH2 0x41F SWAP1 PUSH2 0x20D3 JUMP JUMPDEST DUP1 PUSH1 0x1F ADD PUSH1 0x20 DUP1 SWAP2 DIV MUL PUSH1 0x20 ADD PUSH1 0x40 MLOAD SWAP1 DUP2 ADD PUSH1 0x40 MSTORE DUP1 SWAP3 SWAP2 SWAP1 DUP2 DUP2 MSTORE PUSH1 0x20 ADD DUP3 DUP1 SLOAD PUSH2 0x44B SWAP1 PUSH2 0x20D3 JUMP JUMPDEST DUP1 ISZERO PUSH2 0x498 JUMPI DUP1 PUSH1 0x1F LT PUSH2 0x46D JUMPI PUSH2 0x100 DUP1 DUP4 SLOAD DIV MUL DUP4 MSTORE SWAP2 PUSH1 0x20 ADD SWAP2 PUSH2 0x498 JUMP JUMPDEST DUP3 ADD SWAP2 SWAP1 PUSH1 0x0 MSTORE PUSH1 0x20 PUSH1 0x0 KECCAK256 SWAP1 JUMPDEST DUP2 SLOAD DUP2 MSTORE SWAP1 PUSH1 0x1 ADD SWAP1 PUSH1 0x20 ADD DUP1 DUP4 GT PUSH2 0x47B JUMPI DUP3 SWAP1 SUB PUSH1 0x1F AND DUP3 ADD SWAP2 JUMPDEST POP POP POP POP POP SWAP1 POP SWAP1 JUMP JUMPDEST PUSH1 0x0 PUSH2 0x4AD DUP3 PUSH2 0xB84 JUMP JUMPDEST PUSH1 0x4 PUSH1 0x0 DUP4 DUP2 MSTORE PUSH1 0x20 ADD SWAP1 DUP2 MSTORE PUSH1 0x20 ADD PUSH1 0x0 KECCAK256 PUSH1 0x0 SWAP1 SLOAD SWAP1 PUSH2 0x100 EXP SWAP1 DIV PUSH20 0xFFFFFFFFFFFFFFFFFFFFFFFFFFFFFFFFFFFFFFFF AND SWAP1 POP SWAP2 SWAP1 POP JUMP JUMPDEST PUSH1 0x0 PUSH2 0x4F3 DUP3 PUSH2 0x680 JUMP JUMPDEST SWAP1 POP DUP1 PUSH20 0xFFFFFFFFFFFFFFFFFFFFFFFFFFFFFFFFFFFFFFFF AND DUP4 PUSH20 0xFFFFFFFFFFFFFFFFFFFFFFFFFFFFFFFFFFFFFFFF AND EQ ISZERO PUSH2 0x564 JUMPI PUSH1 0x40 MLOAD PUSH32 0x8C379A000000000000000000000000000000000000000000000000000000000 DUP2 MSTORE PUSH1 0x4 ADD PUSH2 0x55B SWAP1 PUSH2 0x1EF8 JUMP JUMPDEST PUSH1 0x40 MLOAD DUP1 SWAP2 SUB SWAP1 REVERT JUMPDEST DUP1 PUSH20 0xFFFFFFFFFFFFFFFFFFFFFFFFFFFFFFFFFFFFFFFF AND PUSH2 0x583 PUSH2 0xBCF JUMP JUMPDEST PUSH20 0xFFFFFFFFFFFFFFFFFFFFFFFFFFFFFFFFFFFFFFFF AND EQ DUP1 PUSH2 0x5B2 JUMPI POP PUSH2 0x5B1 DUP2 PUSH2 0x5AC PUSH2 0xBCF JUMP JUMPDEST PUSH2 0xA86 JUMP JUMPDEST JUMPDEST PUSH2 0x5F1 JUMPI PUSH1 0x40 MLOAD PUSH32 0x8C379A000000000000000000000000000000000000000000000000000000000 DUP2 MSTORE PUSH1 0x4 ADD PUSH2 0x5E8 SWAP1 PUSH2 0x1F18 JUMP JUMPDEST PUSH1 0x40 MLOAD DUP1 SWAP2 SUB SWAP1 REVERT JUMPDEST PUSH2 0x5FB DUP4 DUP4 PUSH2 0xBD7 JUMP JUMPDEST POP POP POP JUMP JUMPDEST PUSH2 0x611 PUSH2 0x60B PUSH2 0xBCF JUMP JUMPDEST DUP3 PUSH2 0xC90 JUMP JUMPDEST PUSH2 0x650 JUMPI PUSH1 0x40 MLOAD PUSH32 0x8C379A000000000000000000000000000000000000000000000000000000000 DUP2 MSTORE PUSH1 0x4 ADD PUSH2 0x647 SWAP1 PUSH2 0x1DD8 JUMP JUMPDEST PUSH1 0x40 MLOAD DUP1 SWAP2 SUB SWAP1 REVERT JUMPDEST PUSH2 0x65B DUP4 DUP4 DUP4 PUSH2 0xD25 JUMP JUMPDEST POP POP POP JUMP JUMPDEST PUSH2 0x67B DUP4 DUP4 DUP4 PUSH1 0x40 MLOAD DUP1 PUSH1 0x20 ADD PUSH1 0x40 MSTORE DUP1 PUSH1 0x0 DUP2 MSTORE POP PUSH2 0x8F2 JUMP JUMPDEST POP POP POP JUMP JUMPDEST PUSH1 0x0 DUP1 PUSH1 0x2 PUSH1 0x0 DUP5 DUP2 MSTORE PUSH1 0x20 ADD SWAP1 DUP2 MSTORE PUSH1 0x20 ADD PUSH1 0x0 KECCAK256 PUSH1 0x0 SWAP1 SLOAD SWAP1 PUSH2 0x100 EXP SWAP1 DIV PUSH20 0xFFFFFFFFFFFFFFFFFFFFFFFFFFFFFFFFFFFFFFFF AND SWAP1 POP PUSH1 0x0 PUSH20 0xFFFFFFFFFFFFFFFFFFFFFFFFFFFFFFFFFFFFFFFF AND DUP2 PUSH20 0xFFFFFFFFFFFFFFFFFFFFFFFFFFFFFFFFFFFFFFFF AND EQ ISZERO PUSH2 0x729 JUMPI PUSH1 0x40 MLOAD PUSH32 0x8C379A000000000000000000000000000000000000000000000000000000000 DUP2 MSTORE PUSH1 0x4 ADD PUSH2 0x720 SWAP1 PUSH2 0x1ED8 JUMP JUMPDEST PUSH1 0x40 MLOAD DUP1 SWAP2 SUB SWAP1 REVERT JUMPDEST DUP1 SWAP2 POP POP SWAP2 SWAP1 POP JUMP JUMPDEST PUSH1 0x0 DUP1 PUSH20 0xFFFFFFFFFFFFFFFFFFFFFFFFFFFFFFFFFFFFFFFF AND DUP3 PUSH20 0xFFFFFFFFFFFFFFFFFFFFFFFFFFFFFFFFFFFFFFFF AND EQ ISZERO PUSH2 0x7A3 JUMPI PUSH1 0x40 MLOAD PUSH32 0x8C379A000000000000000000000000000000000000000000000000000000000 DUP2 MSTORE PUSH1 0x4 ADD PUSH2 0x79A SWAP1 PUSH2 0x1E98 JUMP JUMPDEST PUSH1 0x40 MLOAD DUP1 SWAP2 SUB SWAP1 REVERT JUMPDEST PUSH1 0x3 PUSH1 0x0 DUP4 PUSH20 0xFFFFFFFFFFFFFFFFFFFFFFFFFFFFFFFFFFFFFFFF AND PUSH20 0xFFFFFFFFFFFFFFFFFFFFFFFFFFFFFFFFFFFFFFFF AND DUP2 MSTORE PUSH1 0x20 ADD SWAP1 DUP2 MSTORE PUSH1 0x20 ADD PUSH1 0x0 KECCAK256 SLOAD SWAP1 POP SWAP2 SWAP1 POP JUMP JUMPDEST PUSH1 0x60 PUSH2 0x7F5 DUP3 PUSH2 0xB84 JUMP JUMPDEST PUSH1 0x0 PUSH2 0x7FF PUSH2 0x101B JUMP JUMPDEST SWAP1 POP PUSH1 0x0 DUP2 MLOAD GT PUSH2 0x81F JUMPI PUSH1 0x40 MLOAD DUP1 PUSH1 0x20 ADD PUSH1 0x40 MSTORE DUP1 PUSH1 0x0 DUP2 MSTORE POP PUSH2 0x842 JUMP JUMPDEST DUP1 DUP4 PUSH1 0x40 MLOAD PUSH1 0x20 ADD PUSH2 0x832 SWAP3 SWAP2 SWAP1 PUSH2 0x1D0C JUMP JUMPDEST PUSH1 0x40 MLOAD PUSH1 0x20 DUP2 DUP4 SUB SUB DUP2 MSTORE SWAP1 PUSH1 0x40 MSTORE JUMPDEST SWAP2 POP POP SWAP2 SWAP1 POP JUMP JUMPDEST PUSH1 0x60 PUSH1 0x1 DUP1 SLOAD PUSH2 0x859 SWAP1 PUSH2 0x20D3 JUMP JUMPDEST DUP1 PUSH1 0x1F ADD PUSH1 0x20 DUP1 SWAP2 DIV MUL PUSH1 0x20 ADD PUSH1 0x40 MLOAD SWAP1 DUP2 ADD PUSH1 0x40 MSTORE DUP1 SWAP3 SWAP2 SWAP1 DUP2 DUP2 MSTORE PUSH1 0x20 ADD DUP3 DUP1 SLOAD PUSH2 0x885 SWAP1 PUSH2 0x20D3 JUMP JUMPDEST DUP1 ISZERO PUSH2 0x8D2 JUMPI DUP1 PUSH1 0x1F LT PUSH2 0x8A7 JUMPI PUSH2 0x100 DUP1 DUP4 SLOAD DIV MUL DUP4 MSTORE SWAP2 PUSH1 0x20 ADD SWAP2 PUSH2 0x8D2 JUMP JUMPDEST DUP3 ADD SWAP2 SWAP1 PUSH1 0x0 MSTORE PUSH1 0x20 PUSH1 0x0 KECCAK256 SWAP1 JUMPDEST DUP2 SLOAD DUP2 MSTORE SWAP1 PUSH1 0x1 ADD SWAP1 PUSH1 0x20 ADD DUP1 DUP4 GT PUSH2 0x8B5 JUMPI DUP3 SWAP1 SUB PUSH1 0x1F AND DUP3 ADD SWAP2 JUMPDEST POP POP POP POP POP SWAP1 POP SWAP1 JUMP JUMPDEST PUSH2 0x8EE PUSH2 0x8E7 PUSH2 0xBCF JUMP JUMPDEST DUP4 DUP4 PUSH2 0x1032 JUMP JUMPDEST POP POP JUMP JUMPDEST PUSH2 0x903 PUSH2 0x8FD PUSH2 0xBCF JUMP JUMPDEST DUP4 PUSH2 0xC90 JUMP JUMPDEST PUSH2 0x942 JUMPI PUSH1 0x40 MLOAD PUSH32 0x8C379A000000000000000000000000000000000000000000000000000000000 DUP2 MSTORE PUSH1 0x4 ADD PUSH2 0x939 SWAP1 PUSH2 0x1DD8 JUMP JUMPDEST PUSH1 0x40 MLOAD DUP1 SWAP2 SUB SWAP1 REVERT JUMPDEST PUSH2 0x94E DUP5 DUP5 DUP5 DUP5 PUSH2 0x119F JUMP JUMPDEST POP POP POP POP JUMP JUMPDEST PUSH1 0x60 PUSH2 0x95F DUP3 PUSH2 0xB84 JUMP JUMPDEST PUSH1 0x0 PUSH1 0x6 PUSH1 0x0 DUP5 DUP2 MSTORE PUSH1 0x20 ADD SWAP1 DUP2 MSTORE PUSH1 0x20 ADD PUSH1 0x0 KECCAK256 DUP1 SLOAD PUSH2 0x97F SWAP1 PUSH2 0x20D3 JUMP JUMPDEST DUP1 PUSH1 0x1F ADD PUSH1 0x20 DUP1 SWAP2 DIV MUL PUSH1 0x20 ADD PUSH1 0x40 MLOAD SWAP1 DUP2 ADD PUSH1 0x40 MSTORE DUP1 SWAP3 SWAP2 SWAP1 DUP2 DUP2 MSTORE PUSH1 0x20 ADD DUP3 DUP1 SLOAD PUSH2 0x9AB SWAP1 PUSH2 0x20D3 JUMP JUMPDEST DUP1 ISZERO PUSH2 0x9F8 JUMPI DUP1 PUSH1 0x1F LT PUSH2 0x9CD JUMPI PUSH2 0x100 DUP1 DUP4 SLOAD DIV MUL DUP4 MSTORE SWAP2 PUSH1 0x20 ADD SWAP2 PUSH2 0x9F8 JUMP JUMPDEST DUP3 ADD SWAP2 SWAP1 PUSH1 0x0 MSTORE PUSH1 0x20 PUSH1 0x0 KECCAK256 SWAP1 JUMPDEST DUP2 SLOAD DUP2 MSTORE SWAP1 PUSH1 0x1 ADD SWAP1 PUSH1 0x20 ADD DUP1 DUP4 GT PUSH2 0x9DB JUMPI DUP3 SWAP1 SUB PUSH1 0x1F AND DUP3 ADD SWAP2 JUMPDEST POP POP POP POP POP SWAP1 POP PUSH1 0x0 PUSH2 0xA09 PUSH2 0x101B JUMP JUMPDEST SWAP1 POP PUSH1 0x0 DUP2 MLOAD EQ ISZERO PUSH2 0xA1F JUMPI DUP2 SWAP3 POP POP POP PUSH2 0xA68 JUMP JUMPDEST PUSH1 0x0 DUP3 MLOAD GT ISZERO PUSH2 0xA54 JUMPI DUP1 DUP3 PUSH1 0x40 MLOAD PUSH1 0x20 ADD PUSH2 0xA3C SWAP3 SWAP2 SWAP1 PUSH2 0x1CE8 JUMP JUMPDEST PUSH1 0x40 MLOAD PUSH1 0x20 DUP2 DUP4 SUB SUB DUP2 MSTORE SWAP1 PUSH1 0x40 MSTORE SWAP3 POP POP POP PUSH2 0xA68 JUMP JUMPDEST PUSH1 0x0 PUSH2 0xA5F DUP6 PUSH2 0x7EA JUMP JUMPDEST SWAP1 POP DUP1 SWAP4 POP POP POP POP JUMPDEST SWAP2 SWAP1 POP JUMP JUMPDEST PUSH2 0xA77 DUP4 DUP4 PUSH2 0x11FB JUMP JUMPDEST PUSH2 0xA80 DUP3 PUSH2 0x954 JUMP JUMPDEST POP POP POP POP JUMP JUMPDEST PUSH1 0x0 PUSH1 0x5 PUSH1 0x0 DUP5 PUSH20 0xFFFFFFFFFFFFFFFFFFFFFFFFFFFFFFFFFFFFFFFF AND PUSH20 0xFFFFFFFFFFFFFFFFFFFFFFFFFFFFFFFFFFFFFFFF AND DUP2 MSTORE PUSH1 0x20 ADD SWAP1 DUP2 MSTORE PUSH1 0x20 ADD PUSH1 0x0 KECCAK256 PUSH1 0x0 DUP4 PUSH20 0xFFFFFFFFFFFFFFFFFFFFFFFFFFFFFFFFFFFFFFFF AND PUSH20 0xFFFFFFFFFFFFFFFFFFFFFFFFFFFFFFFFFFFFFFFF AND DUP2 MSTORE PUSH1 0x20 ADD SWAP1 DUP2 MSTORE PUSH1 0x20 ADD PUSH1 0x0 KECCAK256 PUSH1 0x0 SWAP1 SLOAD SWAP1 PUSH2 0x100 EXP SWAP1 DIV PUSH1 0xFF AND SWAP1 POP SWAP3 SWAP2 POP POP JUMP JUMPDEST PUSH1 0x0 PUSH32 0x1FFC9A700000000000000000000000000000000000000000000000000000000 PUSH28 0xFFFFFFFFFFFFFFFFFFFFFFFFFFFFFFFFFFFFFFFFFFFFFFFFFFFFFFFF NOT AND DUP3 PUSH28 0xFFFFFFFFFFFFFFFFFFFFFFFFFFFFFFFFFFFFFFFFFFFFFFFFFFFFFFFF NOT AND EQ SWAP1 POP SWAP2 SWAP1 POP JUMP JUMPDEST PUSH2 0xB8D DUP2 PUSH2 0x1219 JUMP JUMPDEST PUSH2 0xBCC JUMPI PUSH1 0x40 MLOAD PUSH32 0x8C379A000000000000000000000000000000000000000000000000000000000 DUP2 MSTORE PUSH1 0x4 ADD PUSH2 0xBC3 SWAP1 PUSH2 0x1ED8 JUMP JUMPDEST PUSH1 0x40 MLOAD DUP1 SWAP2 SUB SWAP1 REVERT JUMPDEST POP JUMP JUMPDEST PUSH1 0x0 CALLER SWAP1 POP SWAP1 JUMP JUMPDEST DUP2 PUSH1 0x4 PUSH1 0x0 DUP4 DUP2 MSTORE PUSH1 0x20 ADD SWAP1 DUP2 MSTORE PUSH1 0x20 ADD PUSH1 0x0 KECCAK256 PUSH1 0x0 PUSH2 0x100 EXP DUP2 SLOAD DUP2 PUSH20 0xFFFFFFFFFFFFFFFFFFFFFFFFFFFFFFFFFFFFFFFF MUL NOT AND SWAP1 DUP4 PUSH20 0xFFFFFFFFFFFFFFFFFFFFFFFFFFFFFFFFFFFFFFFF AND MUL OR SWAP1 SSTORE POP DUP1 DUP3 PUSH20 0xFFFFFFFFFFFFFFFFFFFFFFFFFFFFFFFFFFFFFFFF AND PUSH2 0xC4A DUP4 PUSH2 0x680 JUMP JUMPDEST PUSH20 0xFFFFFFFFFFFFFFFFFFFFFFFFFFFFFFFFFFFFFFFF AND PUSH32 0x8C5BE1E5EBEC7D5BD14F71427D1E84F3DD0314C0F7B2291E5B200AC8C7C3B925 PUSH1 0x40 MLOAD PUSH1 0x40 MLOAD DUP1 SWAP2 SUB SWAP1 LOG4 POP POP JUMP JUMPDEST PUSH1 0x0 DUP1 PUSH2 0xC9C DUP4 PUSH2 0x680 JUMP JUMPDEST SWAP1 POP DUP1 PUSH20 0xFFFFFFFFFFFFFFFFFFFFFFFFFFFFFFFFFFFFFFFF AND DUP5 PUSH20 0xFFFFFFFFFFFFFFFFFFFFFFFFFFFFFFFFFFFFFFFF AND EQ DUP1 PUSH2 0xCDE JUMPI POP PUSH2 0xCDD DUP2 DUP6 PUSH2 0xA86 JUMP JUMPDEST JUMPDEST DUP1 PUSH2 0xD1C JUMPI POP DUP4 PUSH20 0xFFFFFFFFFFFFFFFFFFFFFFFFFFFFFFFFFFFFFFFF AND PUSH2 0xD04 DUP5 PUSH2 0x4A2 JUMP JUMPDEST PUSH20 0xFFFFFFFFFFFFFFFFFFFFFFFFFFFFFFFFFFFFFFFF AND EQ JUMPDEST SWAP2 POP POP SWAP3 SWAP2 POP POP JUMP JUMPDEST DUP3 PUSH20 0xFFFFFFFFFFFFFFFFFFFFFFFFFFFFFFFFFFFFFFFF AND PUSH2 0xD45 DUP3 PUSH2 0x680 JUMP JUMPDEST PUSH20 0xFFFFFFFFFFFFFFFFFFFFFFFFFFFFFFFFFFFFFFFF AND EQ PUSH2 0xD9B JUMPI PUSH1 0x40 MLOAD PUSH32 0x8C379A000000000000000000000000000000000000000000000000000000000 DUP2 MSTORE PUSH1 0x4 ADD PUSH2 0xD92 SWAP1 PUSH2 0x1E18 JUMP JUMPDEST PUSH1 0x40 MLOAD DUP1 SWAP2 SUB SWAP1 REVERT JUMPDEST PUSH1 0x0 PUSH20 0xFFFFFFFFFFFFFFFFFFFFFFFFFFFFFFFFFFFFFFFF AND DUP3 PUSH20 0xFFFFFFFFFFFFFFFFFFFFFFFFFFFFFFFFFFFFFFFF AND EQ ISZERO PUSH2 0xE0B JUMPI PUSH1 0x40 MLOAD PUSH32 0x8C379A000000000000000000000000000000000000000000000000000000000 DUP2 MSTORE PUSH1 0x4 ADD PUSH2 0xE02 SWAP1 PUSH2 0x1E58 JUMP JUMPDEST PUSH1 0x40 MLOAD DUP1 SWAP2 SUB SWAP1 REVERT JUMPDEST PUSH2 0xE16 DUP4 DUP4 DUP4 PUSH2 0x1285 JUMP JUMPDEST DUP3 PUSH20 0xFFFFFFFFFFFFFFFFFFFFFFFFFFFFFFFFFFFFFFFF AND PUSH2 0xE36 DUP3 PUSH2 0x680 JUMP JUMPDEST PUSH20 0xFFFFFFFFFFFFFFFFFFFFFFFFFFFFFFFFFFFFFFFF AND EQ PUSH2 0xE8C JUMPI PUSH1 0x40 MLOAD PUSH32 0x8C379A000000000000000000000000000000000000000000000000000000000 DUP2 MSTORE PUSH1 0x4 ADD PUSH2 0xE83 SWAP1 PUSH2 0x1E18 JUMP JUMPDEST PUSH1 0x40 MLOAD DUP1 SWAP2 SUB SWAP1 REVERT JUMPDEST PUSH1 0x4 PUSH1 0x0 DUP3 DUP2 MSTORE PUSH1 0x20 ADD SWAP1 DUP2 MSTORE PUSH1 0x20 ADD PUSH1 0x0 KECCAK256 PUSH1 0x0 PUSH2 0x100 EXP DUP2 SLOAD SWAP1 PUSH20 0xFFFFFFFFFFFFFFFFFFFFFFFFFFFFFFFFFFFFFFFF MUL NOT AND SWAP1 SSTORE PUSH1 0x1 PUSH1 0x3 PUSH1 0x0 DUP6 PUSH20 0xFFFFFFFFFFFFFFFFFFFFFFFFFFFFFFFFFFFFFFFF AND PUSH20 0xFFFFFFFFFFFFFFFFFFFFFFFFFFFFFFFFFFFFFFFF AND DUP2 MSTORE PUSH1 0x20 ADD SWAP1 DUP2 MSTORE PUSH1 0x20 ADD PUSH1 0x0 KECCAK256 PUSH1 0x0 DUP3 DUP3 SLOAD SUB SWAP3 POP POP DUP2 SWAP1 SSTORE POP PUSH1 0x1 PUSH1 0x3 PUSH1 0x0 DUP5 PUSH20 0xFFFFFFFFFFFFFFFFFFFFFFFFFFFFFFFFFFFFFFFF AND PUSH20 0xFFFFFFFFFFFFFFFFFFFFFFFFFFFFFFFFFFFFFFFF AND DUP2 MSTORE PUSH1 0x20 ADD SWAP1 DUP2 MSTORE PUSH1 0x20 ADD PUSH1 0x0 KECCAK256 PUSH1 0x0 DUP3 DUP3 SLOAD ADD SWAP3 POP POP DUP2 SWAP1 SSTORE POP DUP2 PUSH1 0x2 PUSH1 0x0 DUP4 DUP2 MSTORE PUSH1 0x20 ADD SWAP1 DUP2 MSTORE PUSH1 0x20 ADD PUSH1 0x0 KECCAK256 PUSH1 0x0 PUSH2 0x100 EXP DUP2 SLOAD DUP2 PUSH20 0xFFFFFFFFFFFFFFFFFFFFFFFFFFFFFFFFFFFFFFFF MUL NOT AND SWAP1 DUP4 PUSH20 0xFFFFFFFFFFFFFFFFFFFFFFFFFFFFFFFFFFFFFFFF AND MUL OR SWAP1 SSTORE POP DUP1 DUP3 PUSH20 0xFFFFFFFFFFFFFFFFFFFFFFFFFFFFFFFFFFFFFFFF AND DUP5 PUSH20 0xFFFFFFFFFFFFFFFFFFFFFFFFFFFFFFFFFFFFFFFF AND PUSH32 0xDDF252AD1BE2C89B69C2B068FC378DAA952BA7F163C4A11628F55A4DF523B3EF PUSH1 0x40 MLOAD PUSH1 0x40 MLOAD DUP1 SWAP2 SUB SWAP1 LOG4 PUSH2 0x1016 DUP4 DUP4 DUP4 PUSH2 0x128A JUMP JUMPDEST POP POP POP JUMP JUMPDEST PUSH1 0x60 PUSH1 0x40 MLOAD DUP1 PUSH1 0x20 ADD PUSH1 0x40 MSTORE DUP1 PUSH1 0x0 DUP2 MSTORE POP SWAP1 POP SWAP1 JUMP JUMPDEST DUP2 PUSH20 0xFFFFFFFFFFFFFFFFFFFFFFFFFFFFFFFFFFFFFFFF AND DUP4 PUSH20 0xFFFFFFFFFFFFFFFFFFFFFFFFFFFFFFFFFFFFFFFF AND EQ ISZERO PUSH2 0x10A1 JUMPI PUSH1 0x40 MLOAD PUSH32 0x8C379A000000000000000000000000000000000000000000000000000000000 DUP2 MSTORE PUSH1 0x4 ADD PUSH2 0x1098 SWAP1 PUSH2 0x1E78 JUMP JUMPDEST PUSH1 0x40 MLOAD DUP1 SWAP2 SUB SWAP1 REVERT JUMPDEST DUP1 PUSH1 0x5 PUSH1 0x0 DUP6 PUSH20 0xFFFFFFFFFFFFFFFFFFFFFFFFFFFFFFFFFFFFFFFF AND PUSH20 0xFFFFFFFFFFFFFFFFFFFFFFFFFFFFFFFFFFFFFFFF AND DUP2 MSTORE PUSH1 0x20 ADD SWAP1 DUP2 MSTORE PUSH1 0x20 ADD PUSH1 0x0 KECCAK256 PUSH1 0x0 DUP5 PUSH20 0xFFFFFFFFFFFFFFFFFFFFFFFFFFFFFFFFFFFFFFFF AND PUSH20 0xFFFFFFFFFFFFFFFFFFFFFFFFFFFFFFFFFFFFFFFF AND DUP2 MSTORE PUSH1 0x20 ADD SWAP1 DUP2 MSTORE PUSH1 0x20 ADD PUSH1 0x0 KECCAK256 PUSH1 0x0 PUSH2 0x100 EXP DUP2 SLOAD DUP2 PUSH1 0xFF MUL NOT AND SWAP1 DUP4 ISZERO ISZERO MUL OR SWAP1 SSTORE POP DUP2 PUSH20 0xFFFFFFFFFFFFFFFFFFFFFFFFFFFFFFFFFFFFFFFF AND DUP4 PUSH20 0xFFFFFFFFFFFFFFFFFFFFFFFFFFFFFFFFFFFFFFFF AND PUSH32 0x17307EAB39AB6107E8899845AD3D59BD9653F200F220920489CA2B5937696C31 DUP4 PUSH1 0x40 MLOAD PUSH2 0x1192 SWAP2 SWAP1 PUSH2 0x1D9B JUMP JUMPDEST PUSH1 0x40 MLOAD DUP1 SWAP2 SUB SWAP1 LOG3 POP POP POP JUMP JUMPDEST PUSH2 0x11AA DUP5 DUP5 DUP5 PUSH2 0xD25 JUMP JUMPDEST PUSH2 0x11B6 DUP5 DUP5 DUP5 DUP5 PUSH2 0x128F JUMP JUMPDEST PUSH2 0x11F5 JUMPI PUSH1 0x40 MLOAD PUSH32 0x8C379A000000000000000000000000000000000000000000000000000000000 DUP2 MSTORE PUSH1 0x4 ADD PUSH2 0x11EC SWAP1 PUSH2 0x1DF8 JUMP JUMPDEST PUSH1 0x40 MLOAD DUP1 SWAP2 SUB SWAP1 REVERT JUMPDEST POP POP POP POP JUMP JUMPDEST PUSH2 0x1215 DUP3 DUP3 PUSH1 0x40 MLOAD DUP1 PUSH1 0x20 ADD PUSH1 0x40 MSTORE DUP1 PUSH1 0x0 DUP2 MSTORE POP PUSH2 0x1426 JUMP JUMPDEST POP POP JUMP JUMPDEST PUSH1 0x0 DUP1 PUSH20 0xFFFFFFFFFFFFFFFFFFFFFFFFFFFFFFFFFFFFFFFF AND PUSH1 0x2 PUSH1 0x0 DUP5 DUP2 MSTORE PUSH1 0x20 ADD SWAP1 DUP2 MSTORE PUSH1 0x20 ADD PUSH1 0x0 KECCAK256 PUSH1 0x0 SWAP1 SLOAD SWAP1 PUSH2 0x100 EXP SWAP1 DIV PUSH20 0xFFFFFFFFFFFFFFFFFFFFFFFFFFFFFFFFFFFFFFFF AND PUSH20 0xFFFFFFFFFFFFFFFFFFFFFFFFFFFFFFFFFFFFFFFF AND EQ ISZERO SWAP1 POP SWAP2 SWAP1 POP JUMP JUMPDEST POP POP POP JUMP JUMPDEST POP POP POP JUMP JUMPDEST PUSH1 0x0 PUSH2 0x12B0 DUP5 PUSH20 0xFFFFFFFFFFFFFFFFFFFFFFFFFFFFFFFFFFFFFFFF AND PUSH2 0x1481 JUMP JUMPDEST ISZERO PUSH2 0x1419 JUMPI DUP4 PUSH20 0xFFFFFFFFFFFFFFFFFFFFFFFFFFFFFFFFFFFFFFFF AND PUSH4 0x150B7A02 PUSH2 0x12D9 PUSH2 0xBCF JUMP JUMPDEST DUP8 DUP7 DUP7 PUSH1 0x40 MLOAD DUP6 PUSH4 0xFFFFFFFF AND PUSH1 0xE0 SHL DUP2 MSTORE PUSH1 0x4 ADD PUSH2 0x12FB SWAP5 SWAP4 SWAP3 SWAP2 SWAP1 PUSH2 0x1D4F JUMP JUMPDEST PUSH1 0x20 PUSH1 0x40 MLOAD DUP1 DUP4 SUB DUP2 PUSH1 0x0 DUP8 DUP1 EXTCODESIZE ISZERO DUP1 ISZERO PUSH2 0x1315 JUMPI PUSH1 0x0 DUP1 REVERT JUMPDEST POP GAS CALL SWAP3 POP POP POP DUP1 ISZERO PUSH2 0x1346 JUMPI POP PUSH1 0x40 MLOAD RETURNDATASIZE PUSH1 0x1F NOT PUSH1 0x1F DUP3 ADD AND DUP3 ADD DUP1 PUSH1 0x40 MSTORE POP DUP2 ADD SWAP1 PUSH2 0x1343 SWAP2 SWAP1 PUSH2 0x1A2E JUMP JUMPDEST PUSH1 0x1 JUMPDEST PUSH2 0x13C9 JUMPI RETURNDATASIZE DUP1 PUSH1 0x0 DUP2 EQ PUSH2 0x1376 JUMPI PUSH1 0x40 MLOAD SWAP2 POP PUSH1 0x1F NOT PUSH1 0x3F RETURNDATASIZE ADD AND DUP3 ADD PUSH1 0x40 MSTORE RETURNDATASIZE DUP3 MSTORE RETURNDATASIZE PUSH1 0x0 PUSH1 0x20 DUP5 ADD RETURNDATACOPY PUSH2 0x137B JUMP JUMPDEST PUSH1 0x60 SWAP2 POP JUMPDEST POP PUSH1 0x0 DUP2 MLOAD EQ ISZERO PUSH2 0x13C1 JUMPI PUSH1 0x40 MLOAD PUSH32 0x8C379A000000000000000000000000000000000000000000000000000000000 DUP2 MSTORE PUSH1 0x4 ADD PUSH2 0x13B8 SWAP1 PUSH2 0x1DF8 JUMP JUMPDEST PUSH1 0x40 MLOAD DUP1 SWAP2 SUB SWAP1 REVERT JUMPDEST DUP1 MLOAD DUP2 PUSH1 0x20 ADD REVERT JUMPDEST PUSH4 0x150B7A02 PUSH1 0xE0 SHL PUSH28 0xFFFFFFFFFFFFFFFFFFFFFFFFFFFFFFFFFFFFFFFFFFFFFFFFFFFFFFFF NOT AND DUP2 PUSH28 0xFFFFFFFFFFFFFFFFFFFFFFFFFFFFFFFFFFFFFFFFFFFFFFFFFFFFFFFF NOT AND EQ SWAP2 POP POP PUSH2 0x141E JUMP JUMPDEST PUSH1 0x1 SWAP1 POP JUMPDEST SWAP5 SWAP4 POP POP POP POP JUMP JUMPDEST PUSH2 0x1430 DUP4 DUP4 PUSH2 0x14A4 JUMP JUMPDEST PUSH2 0x143D PUSH1 0x0 DUP5 DUP5 DUP5 PUSH2 0x128F JUMP JUMPDEST PUSH2 0x147C JUMPI PUSH1 0x40 MLOAD PUSH32 0x8C379A000000000000000000000000000000000000000000000000000000000 DUP2 MSTORE PUSH1 0x4 ADD PUSH2 0x1473 SWAP1 PUSH2 0x1DF8 JUMP JUMPDEST PUSH1 0x40 MLOAD DUP1 SWAP2 SUB SWAP1 REVERT JUMPDEST POP POP POP JUMP JUMPDEST PUSH1 0x0 DUP1 DUP3 PUSH20 0xFFFFFFFFFFFFFFFFFFFFFFFFFFFFFFFFFFFFFFFF AND EXTCODESIZE GT SWAP1 POP SWAP2 SWAP1 POP JUMP JUMPDEST PUSH1 0x0 PUSH20 0xFFFFFFFFFFFFFFFFFFFFFFFFFFFFFFFFFFFFFFFF AND DUP3 PUSH20 0xFFFFFFFFFFFFFFFFFFFFFFFFFFFFFFFFFFFFFFFF AND EQ ISZERO PUSH2 0x1514 JUMPI PUSH1 0x40 MLOAD PUSH32 0x8C379A000000000000000000000000000000000000000000000000000000000 DUP2 MSTORE PUSH1 0x4 ADD PUSH2 0x150B SWAP1 PUSH2 0x1EB8 JUMP JUMPDEST PUSH1 0x40 MLOAD DUP1 SWAP2 SUB SWAP1 REVERT JUMPDEST PUSH2 0x151D DUP2 PUSH2 0x1219 JUMP JUMPDEST ISZERO PUSH2 0x155D JUMPI PUSH1 0x40 MLOAD PUSH32 0x8C379A000000000000000000000000000000000000000000000000000000000 DUP2 MSTORE PUSH1 0x4 ADD PUSH2 0x1554 SWAP1 PUSH2 0x1E38 JUMP JUMPDEST PUSH1 0x40 MLOAD DUP1 SWAP2 SUB SWAP1 REVERT JUMPDEST PUSH2 0x1569 PUSH1 0x0 DUP4 DUP4 PUSH2 0x1285 JUMP JUMPDEST PUSH2 0x1572 DUP2 PUSH2 0x1219 JUMP JUMPDEST ISZERO PUSH2 0x15B2 JUMPI PUSH1 0x40 MLOAD PUSH32 0x8C379A000000000000000000000000000000000000000000000000000000000 DUP2 MSTORE PUSH1 0x4 ADD PUSH2 0x15A9 SWAP1 PUSH2 0x1E38 JUMP JUMPDEST PUSH1 0x40 MLOAD DUP1 SWAP2 SUB SWAP1 REVERT JUMPDEST PUSH1 0x1 PUSH1 0x3 PUSH1 0x0 DUP5 PUSH20 0xFFFFFFFFFFFFFFFFFFFFFFFFFFFFFFFFFFFFFFFF AND PUSH20 0xFFFFFFFFFFFFFFFFFFFFFFFFFFFFFFFFFFFFFFFF AND DUP2 MSTORE PUSH1 0x20 ADD SWAP1 DUP2 MSTORE PUSH1 0x20 ADD PUSH1 0x0 KECCAK256 PUSH1 0x0 DUP3 DUP3 SLOAD ADD SWAP3 POP POP DUP2 SWAP1 SSTORE POP DUP2 PUSH1 0x2 PUSH1 0x0 DUP4 DUP2 MSTORE PUSH1 0x20 ADD SWAP1 DUP2 MSTORE PUSH1 0x20 ADD PUSH1 0x0 KECCAK256 PUSH1 0x0 PUSH2 0x100 EXP DUP2 SLOAD DUP2 PUSH20 0xFFFFFFFFFFFFFFFFFFFFFFFFFFFFFFFFFFFFFFFF MUL NOT AND SWAP1 DUP4 PUSH20 0xFFFFFFFFFFFFFFFFFFFFFFFFFFFFFFFFFFFFFFFF AND MUL OR SWAP1 SSTORE POP DUP1 DUP3 PUSH20 0xFFFFFFFFFFFFFFFFFFFFFFFFFFFFFFFFFFFFFFFF AND PUSH1 0x0 PUSH20 0xFFFFFFFFFFFFFFFFFFFFFFFFFFFFFFFFFFFFFFFF AND PUSH32 0xDDF252AD1BE2C89B69C2B068FC378DAA952BA7F163C4A11628F55A4DF523B3EF PUSH1 0x40 MLOAD PUSH1 0x40 MLOAD DUP1 SWAP2 SUB SWAP1 LOG4 PUSH2 0x16BA PUSH1 0x0 DUP4 DUP4 PUSH2 0x128A JUMP JUMPDEST POP POP JUMP JUMPDEST PUSH1 0x0 PUSH2 0x16D1 PUSH2 0x16CC DUP5 PUSH2 0x1F78 JUMP JUMPDEST PUSH2 0x1F53 JUMP JUMPDEST SWAP1 POP DUP3 DUP2 MSTORE PUSH1 0x20 DUP2 ADD DUP5 DUP5 DUP5 ADD GT ISZERO PUSH2 0x16E9 JUMPI PUSH1 0x0 DUP1 REVERT JUMPDEST PUSH2 0x16F4 DUP5 DUP3 DUP6 PUSH2 0x2091 JUMP JUMPDEST POP SWAP4 SWAP3 POP POP POP JUMP JUMPDEST PUSH1 0x0 PUSH2 0x170F PUSH2 0x170A DUP5 PUSH2 0x1FA9 JUMP JUMPDEST PUSH2 0x1F53 JUMP JUMPDEST SWAP1 POP DUP3 DUP2 MSTORE PUSH1 0x20 DUP2 ADD DUP5 DUP5 DUP5 ADD GT ISZERO PUSH2 0x1727 JUMPI PUSH1 0x0 DUP1 REVERT JUMPDEST PUSH2 0x1732 DUP5 DUP3 DUP6 PUSH2 0x2091 JUMP JUMPDEST POP SWAP4 SWAP3 POP POP POP JUMP JUMPDEST PUSH1 0x0 DUP2 CALLDATALOAD SWAP1 POP PUSH2 0x1749 DUP2 PUSH2 0x247C JUMP JUMPDEST SWAP3 SWAP2 POP POP JUMP JUMPDEST PUSH1 0x0 DUP2 CALLDATALOAD SWAP1 POP PUSH2 0x175E DUP2 PUSH2 0x2493 JUMP JUMPDEST SWAP3 SWAP2 POP POP JUMP JUMPDEST PUSH1 0x0 DUP2 CALLDATALOAD SWAP1 POP PUSH2 0x1773 DUP2 PUSH2 0x24AA JUMP JUMPDEST SWAP3 SWAP2 POP POP JUMP JUMPDEST PUSH1 0x0 DUP2 MLOAD SWAP1 POP PUSH2 0x1788 DUP2 PUSH2 0x24AA JUMP JUMPDEST SWAP3 SWAP2 POP POP JUMP JUMPDEST PUSH1 0x0 DUP3 PUSH1 0x1F DUP4 ADD SLT PUSH2 0x179F JUMPI PUSH1 0x0 DUP1 REVERT JUMPDEST DUP2 CALLDATALOAD PUSH2 0x17AF DUP5 DUP3 PUSH1 0x20 DUP7 ADD PUSH2 0x16BE JUMP JUMPDEST SWAP2 POP POP SWAP3 SWAP2 POP POP JUMP JUMPDEST PUSH1 0x0 DUP3 PUSH1 0x1F DUP4 ADD SLT PUSH2 0x17C9 JUMPI PUSH1 0x0 DUP1 REVERT JUMPDEST DUP2 CALLDATALOAD PUSH2 0x17D9 DUP5 DUP3 PUSH1 0x20 DUP7 ADD PUSH2 0x16FC JUMP JUMPDEST SWAP2 POP POP SWAP3 SWAP2 POP POP JUMP JUMPDEST PUSH1 0x0 DUP2 CALLDATALOAD SWAP1 POP PUSH2 0x17F1 DUP2 PUSH2 0x24C1 JUMP JUMPDEST SWAP3 SWAP2 POP POP JUMP JUMPDEST PUSH1 0x0 PUSH1 0x20 DUP3 DUP5 SUB SLT ISZERO PUSH2 0x1809 JUMPI PUSH1 0x0 DUP1 REVERT JUMPDEST PUSH1 0x0 PUSH2 0x1817 DUP5 DUP3 DUP6 ADD PUSH2 0x173A JUMP JUMPDEST SWAP2 POP POP SWAP3 SWAP2 POP POP JUMP JUMPDEST PUSH1 0x0 DUP1 PUSH1 0x40 DUP4 DUP6 SUB SLT ISZERO PUSH2 0x1833 JUMPI PUSH1 0x0 DUP1 REVERT JUMPDEST PUSH1 0x0 PUSH2 0x1841 DUP6 DUP3 DUP7 ADD PUSH2 0x173A JUMP JUMPDEST SWAP3 POP POP PUSH1 0x20 PUSH2 0x1852 DUP6 DUP3 DUP7 ADD PUSH2 0x173A JUMP JUMPDEST SWAP2 POP POP SWAP3 POP SWAP3 SWAP1 POP JUMP JUMPDEST PUSH1 0x0 DUP1 PUSH1 0x0 PUSH1 0x60 DUP5 DUP7 SUB SLT ISZERO PUSH2 0x1871 JUMPI PUSH1 0x0 DUP1 REVERT JUMPDEST PUSH1 0x0 PUSH2 0x187F DUP7 DUP3 DUP8 ADD PUSH2 0x173A JUMP JUMPDEST SWAP4 POP POP PUSH1 0x20 PUSH2 0x1890 DUP7 DUP3 DUP8 ADD PUSH2 0x173A JUMP JUMPDEST SWAP3 POP POP PUSH1 0x40 PUSH2 0x18A1 DUP7 DUP3 DUP8 ADD PUSH2 0x17E2 JUMP JUMPDEST SWAP2 POP POP SWAP3 POP SWAP3 POP SWAP3 JUMP JUMPDEST PUSH1 0x0 DUP1 PUSH1 0x0 DUP1 PUSH1 0x80 DUP6 DUP8 SUB SLT ISZERO PUSH2 0x18C1 JUMPI PUSH1 0x0 DUP1 REVERT JUMPDEST PUSH1 0x0 PUSH2 0x18CF DUP8 DUP3 DUP9 ADD PUSH2 0x173A JUMP JUMPDEST SWAP5 POP POP PUSH1 0x20 PUSH2 0x18E0 DUP8 DUP3 DUP9 ADD PUSH2 0x173A JUMP JUMPDEST SWAP4 POP POP PUSH1 0x40 PUSH2 0x18F1 DUP8 DUP3 DUP9 ADD PUSH2 0x17E2 JUMP JUMPDEST SWAP3 POP POP PUSH1 0x60 DUP6 ADD CALLDATALOAD PUSH8 0xFFFFFFFFFFFFFFFF DUP2 GT ISZERO PUSH2 0x190E JUMPI PUSH1 0x0 DUP1 REVERT JUMPDEST PUSH2 0x191A DUP8 DUP3 DUP9 ADD PUSH2 0x178E JUMP JUMPDEST SWAP2 POP POP SWAP3 SWAP6 SWAP2 SWAP5 POP SWAP3 POP JUMP JUMPDEST PUSH1 0x0 DUP1 PUSH1 0x40 DUP4 DUP6 SUB SLT ISZERO PUSH2 0x1939 JUMPI PUSH1 0x0 DUP1 REVERT JUMPDEST PUSH1 0x0 PUSH2 0x1947 DUP6 DUP3 DUP7 ADD PUSH2 0x173A JUMP JUMPDEST SWAP3 POP POP PUSH1 0x20 PUSH2 0x1958 DUP6 DUP3 DUP7 ADD PUSH2 0x174F JUMP JUMPDEST SWAP2 POP POP SWAP3 POP SWAP3 SWAP1 POP JUMP JUMPDEST PUSH1 0x0 DUP1 PUSH1 0x40 DUP4 DUP6 SUB SLT ISZERO PUSH2 0x1975 JUMPI PUSH1 0x0 DUP1 REVERT JUMPDEST PUSH1 0x0 PUSH2 0x1983 DUP6 DUP3 DUP7 ADD PUSH2 0x173A JUMP JUMPDEST SWAP3 POP POP PUSH1 0x20 PUSH2 0x1994 DUP6 DUP3 DUP7 ADD PUSH2 0x17E2 JUMP JUMPDEST SWAP2 POP POP SWAP3 POP SWAP3 SWAP1 POP JUMP JUMPDEST PUSH1 0x0 DUP1 PUSH1 0x0 PUSH1 0x60 DUP5 DUP7 SUB SLT ISZERO PUSH2 0x19B3 JUMPI PUSH1 0x0 DUP1 REVERT JUMPDEST PUSH1 0x0 PUSH2 0x19C1 DUP7 DUP3 DUP8 ADD PUSH2 0x173A JUMP JUMPDEST SWAP4 POP POP PUSH1 0x20 PUSH2 0x19D2 DUP7 DUP3 DUP8 ADD PUSH2 0x17E2 JUMP JUMPDEST SWAP3 POP POP PUSH1 0x40 DUP5 ADD CALLDATALOAD PUSH8 0xFFFFFFFFFFFFFFFF DUP2 GT ISZERO PUSH2 0x19EF JUMPI PUSH1 0x0 DUP1 REVERT JUMPDEST PUSH2 0x19FB DUP7 DUP3 DUP8 ADD PUSH2 0x17B8 JUMP JUMPDEST SWAP2 POP POP SWAP3 POP SWAP3 POP SWAP3 JUMP JUMPDEST PUSH1 0x0 PUSH1 0x20 DUP3 DUP5 SUB SLT ISZERO PUSH2 0x1A17 JUMPI PUSH1 0x0 DUP1 REVERT JUMPDEST PUSH1 0x0 PUSH2 0x1A25 DUP5 DUP3 DUP6 ADD PUSH2 0x1764 JUMP JUMPDEST SWAP2 POP POP SWAP3 SWAP2 POP POP JUMP JUMPDEST PUSH1 0x0 PUSH1 0x20 DUP3 DUP5 SUB SLT ISZERO PUSH2 0x1A40 JUMPI PUSH1 0x0 DUP1 REVERT JUMPDEST PUSH1 0x0 PUSH2 0x1A4E DUP5 DUP3 DUP6 ADD PUSH2 0x1779 JUMP JUMPDEST SWAP2 POP POP SWAP3 SWAP2 POP POP JUMP JUMPDEST PUSH1 0x0 PUSH1 0x20 DUP3 DUP5 SUB SLT ISZERO PUSH2 0x1A69 JUMPI PUSH1 0x0 DUP1 REVERT JUMPDEST PUSH1 0x0 PUSH2 0x1A77 DUP5 DUP3 DUP6 ADD PUSH2 0x17E2 JUMP JUMPDEST SWAP2 POP POP SWAP3 SWAP2 POP POP JUMP JUMPDEST PUSH2 0x1A89 DUP2 PUSH2 0x201D JUMP JUMPDEST DUP3 MSTORE POP POP JUMP JUMPDEST PUSH2 0x1A98 DUP2 PUSH2 0x202F JUMP JUMPDEST DUP3 MSTORE POP POP JUMP JUMPDEST PUSH1 0x0 PUSH2 0x1AA9 DUP3 PUSH2 0x1FDA JUMP JUMPDEST PUSH2 0x1AB3 DUP2 DUP6 PUSH2 0x1FF0 JUMP JUMPDEST SWAP4 POP PUSH2 0x1AC3 DUP2 DUP6 PUSH1 0x20 DUP7 ADD PUSH2 0x20A0 JUMP JUMPDEST PUSH2 0x1ACC DUP2 PUSH2 0x219E JUMP JUMPDEST DUP5 ADD SWAP2 POP POP SWAP3 SWAP2 POP POP JUMP JUMPDEST PUSH1 0x0 PUSH2 0x1AE2 DUP3 PUSH2 0x1FE5 JUMP JUMPDEST PUSH2 0x1AEC DUP2 DUP6 PUSH2 0x2001 JUMP JUMPDEST SWAP4 POP PUSH2 0x1AFC DUP2 DUP6 PUSH1 0x20 DUP7 ADD PUSH2 0x20A0 JUMP JUMPDEST PUSH2 0x1B05 DUP2 PUSH2 0x219E JUMP JUMPDEST DUP5 ADD SWAP2 POP POP SWAP3 SWAP2 POP POP JUMP JUMPDEST PUSH1 0x0 PUSH2 0x1B1B DUP3 PUSH2 0x1FE5 JUMP JUMPDEST PUSH2 0x1B25 DUP2 DUP6 PUSH2 0x2012 JUMP JUMPDEST SWAP4 POP PUSH2 0x1B35 DUP2 DUP6 PUSH1 0x20 DUP7 ADD PUSH2 0x20A0 JUMP JUMPDEST DUP1 DUP5 ADD SWAP2 POP POP SWAP3 SWAP2 POP POP JUMP JUMPDEST PUSH1 0x0 PUSH2 0x1B4E PUSH1 0x2D DUP4 PUSH2 0x2001 JUMP JUMPDEST SWAP2 POP PUSH2 0x1B59 DUP3 PUSH2 0x21AF JUMP JUMPDEST PUSH1 0x40 DUP3 ADD SWAP1 POP SWAP2 SWAP1 POP JUMP JUMPDEST PUSH1 0x0 PUSH2 0x1B71 PUSH1 0x32 DUP4 PUSH2 0x2001 JUMP JUMPDEST SWAP2 POP PUSH2 0x1B7C DUP3 PUSH2 0x21FE JUMP JUMPDEST PUSH1 0x40 DUP3 ADD SWAP1 POP SWAP2 SWAP1 POP JUMP JUMPDEST PUSH1 0x0 PUSH2 0x1B94 PUSH1 0x25 DUP4 PUSH2 0x2001 JUMP JUMPDEST SWAP2 POP PUSH2 0x1B9F DUP3 PUSH2 0x224D JUMP JUMPDEST PUSH1 0x40 DUP3 ADD SWAP1 POP SWAP2 SWAP1 POP JUMP JUMPDEST PUSH1 0x0 PUSH2 0x1BB7 PUSH1 0x1C DUP4 PUSH2 0x2001 JUMP JUMPDEST SWAP2 POP PUSH2 0x1BC2 DUP3 PUSH2 0x229C JUMP JUMPDEST PUSH1 0x20 DUP3 ADD SWAP1 POP SWAP2 SWAP1 POP JUMP JUMPDEST PUSH1 0x0 PUSH2 0x1BDA PUSH1 0x24 DUP4 PUSH2 0x2001 JUMP JUMPDEST SWAP2 POP PUSH2 0x1BE5 DUP3 PUSH2 0x22C5 JUMP JUMPDEST PUSH1 0x40 DUP3 ADD SWAP1 POP SWAP2 SWAP1 POP JUMP JUMPDEST PUSH1 0x0 PUSH2 0x1BFD PUSH1 0x19 DUP4 PUSH2 0x2001 JUMP JUMPDEST SWAP2 POP PUSH2 0x1C08 DUP3 PUSH2 0x2314 JUMP JUMPDEST PUSH1 0x20 DUP3 ADD SWAP1 POP SWAP2 SWAP1 POP JUMP JUMPDEST PUSH1 0x0 PUSH2 0x1C20 PUSH1 0x29 DUP4 PUSH2 0x2001 JUMP JUMPDEST SWAP2 POP PUSH2 0x1C2B DUP3 PUSH2 0x233D JUMP JUMPDEST PUSH1 0x40 DUP3 ADD SWAP1 POP SWAP2 SWAP1 POP JUMP JUMPDEST PUSH1 0x0 PUSH2 0x1C43 PUSH1 0x20 DUP4 PUSH2 0x2001 JUMP JUMPDEST SWAP2 POP PUSH2 0x1C4E DUP3 PUSH2 0x238C JUMP JUMPDEST PUSH1 0x20 DUP3 ADD SWAP1 POP SWAP2 SWAP1 POP JUMP JUMPDEST PUSH1 0x0 PUSH2 0x1C66 PUSH1 0x18 DUP4 PUSH2 0x2001 JUMP JUMPDEST SWAP2 POP PUSH2 0x1C71 DUP3 PUSH2 0x23B5 JUMP JUMPDEST PUSH1 0x20 DUP3 ADD SWAP1 POP SWAP2 SWAP1 POP JUMP JUMPDEST PUSH1 0x0 PUSH2 0x1C89 PUSH1 0x21 DUP4 PUSH2 0x2001 JUMP JUMPDEST SWAP2 POP PUSH2 0x1C94 DUP3 PUSH2 0x23DE JUMP JUMPDEST PUSH1 0x40 DUP3 ADD SWAP1 POP SWAP2 SWAP1 POP JUMP JUMPDEST PUSH1 0x0 PUSH2 0x1CAC PUSH1 0x3D DUP4 PUSH2 0x2001 JUMP JUMPDEST SWAP2 POP PUSH2 0x1CB7 DUP3 PUSH2 0x242D JUMP JUMPDEST PUSH1 0x40 DUP3 ADD SWAP1 POP SWAP2 SWAP1 POP JUMP JUMPDEST PUSH2 0x1CCB DUP2 PUSH2 0x2087 JUMP JUMPDEST DUP3 MSTORE POP POP JUMP JUMPDEST PUSH2 0x1CE2 PUSH2 0x1CDD DUP3 PUSH2 0x2087 JUMP JUMPDEST PUSH2 0x2136 JUMP JUMPDEST DUP3 MSTORE POP POP JUMP JUMPDEST PUSH1 0x0 PUSH2 0x1CF4 DUP3 DUP6 PUSH2 0x1B10 JUMP JUMPDEST SWAP2 POP PUSH2 0x1D00 DUP3 DUP5 PUSH2 0x1B10 JUMP JUMPDEST SWAP2 POP DUP2 SWAP1 POP SWAP4 SWAP3 POP POP POP JUMP JUMPDEST PUSH1 0x0 PUSH2 0x1D18 DUP3 DUP6 PUSH2 0x1B10 JUMP JUMPDEST SWAP2 POP PUSH2 0x1D24 DUP3 DUP5 PUSH2 0x1CD1 JUMP JUMPDEST PUSH1 0x20 DUP3 ADD SWAP2 POP DUP2 SWAP1 POP SWAP4 SWAP3 POP POP POP JUMP JUMPDEST PUSH1 0x0 PUSH1 0x20 DUP3 ADD SWAP1 POP PUSH2 0x1D49 PUSH1 0x0 DUP4 ADD DUP5 PUSH2 0x1A80 JUMP JUMPDEST SWAP3 SWAP2 POP POP JUMP JUMPDEST PUSH1 0x0 PUSH1 0x80 DUP3 ADD SWAP1 POP PUSH2 0x1D64 PUSH1 0x0 DUP4 ADD DUP8 PUSH2 0x1A80 JUMP JUMPDEST PUSH2 0x1D71 PUSH1 0x20 DUP4 ADD DUP7 PUSH2 0x1A80 JUMP JUMPDEST PUSH2 0x1D7E PUSH1 0x40 DUP4 ADD DUP6 PUSH2 0x1CC2 JUMP JUMPDEST DUP2 DUP2 SUB PUSH1 0x60 DUP4 ADD MSTORE PUSH2 0x1D90 DUP2 DUP5 PUSH2 0x1A9E JUMP JUMPDEST SWAP1 POP SWAP6 SWAP5 POP POP POP POP POP JUMP JUMPDEST PUSH1 0x0 PUSH1 0x20 DUP3 ADD SWAP1 POP PUSH2 0x1DB0 PUSH1 0x0 DUP4 ADD DUP5 PUSH2 0x1A8F JUMP JUMPDEST SWAP3 SWAP2 POP POP JUMP JUMPDEST PUSH1 0x0 PUSH1 0x20 DUP3 ADD SWAP1 POP DUP2 DUP2 SUB PUSH1 0x0 DUP4 ADD MSTORE PUSH2 0x1DD0 DUP2 DUP5 PUSH2 0x1AD7 JUMP JUMPDEST SWAP1 POP SWAP3 SWAP2 POP POP JUMP JUMPDEST PUSH1 0x0 PUSH1 0x20 DUP3 ADD SWAP1 POP DUP2 DUP2 SUB PUSH1 0x0 DUP4 ADD MSTORE PUSH2 0x1DF1 DUP2 PUSH2 0x1B41 JUMP JUMPDEST SWAP1 POP SWAP2 SWAP1 POP JUMP JUMPDEST PUSH1 0x0 PUSH1 0x20 DUP3 ADD SWAP1 POP DUP2 DUP2 SUB PUSH1 0x0 DUP4 ADD MSTORE PUSH2 0x1E11 DUP2 PUSH2 0x1B64 JUMP JUMPDEST SWAP1 POP SWAP2 SWAP1 POP JUMP JUMPDEST PUSH1 0x0 PUSH1 0x20 DUP3 ADD SWAP1 POP DUP2 DUP2 SUB PUSH1 0x0 DUP4 ADD MSTORE PUSH2 0x1E31 DUP2 PUSH2 0x1B87 JUMP JUMPDEST SWAP1 POP SWAP2 SWAP1 POP JUMP JUMPDEST PUSH1 0x0 PUSH1 0x20 DUP3 ADD SWAP1 POP DUP2 DUP2 SUB PUSH1 0x0 DUP4 ADD MSTORE PUSH2 0x1E51 DUP2 PUSH2 0x1BAA JUMP JUMPDEST SWAP1 POP SWAP2 SWAP1 POP JUMP JUMPDEST PUSH1 0x0 PUSH1 0x20 DUP3 ADD SWAP1 POP DUP2 DUP2 SUB PUSH1 0x0 DUP4 ADD MSTORE PUSH2 0x1E71 DUP2 PUSH2 0x1BCD JUMP JUMPDEST SWAP1 POP SWAP2 SWAP1 POP JUMP JUMPDEST PUSH1 0x0 PUSH1 0x20 DUP3 ADD SWAP1 POP DUP2 DUP2 SUB PUSH1 0x0 DUP4 ADD MSTORE PUSH2 0x1E91 DUP2 PUSH2 0x1BF0 JUMP JUMPDEST SWAP1 POP SWAP2 SWAP1 POP JUMP JUMPDEST PUSH1 0x0 PUSH1 0x20 DUP3 ADD SWAP1 POP DUP2 DUP2 SUB PUSH1 0x0 DUP4 ADD MSTORE PUSH2 0x1EB1 DUP2 PUSH2 0x1C13 JUMP JUMPDEST SWAP1 POP SWAP2 SWAP1 POP JUMP JUMPDEST PUSH1 0x0 PUSH1 0x20 DUP3 ADD SWAP1 POP DUP2 DUP2 SUB PUSH1 0x0 DUP4 ADD MSTORE PUSH2 0x1ED1 DUP2 PUSH2 0x1C36 JUMP JUMPDEST SWAP1 POP SWAP2 SWAP1 POP JUMP JUMPDEST PUSH1 0x0 PUSH1 0x20 DUP3 ADD SWAP1 POP DUP2 DUP2 SUB PUSH1 0x0 DUP4 ADD MSTORE PUSH2 0x1EF1 DUP2 PUSH2 0x1C59 JUMP JUMPDEST SWAP1 POP SWAP2 SWAP1 POP JUMP JUMPDEST PUSH1 0x0 PUSH1 0x20 DUP3 ADD SWAP1 POP DUP2 DUP2 SUB PUSH1 0x0 DUP4 ADD MSTORE PUSH2 0x1F11 DUP2 PUSH2 0x1C7C JUMP JUMPDEST SWAP1 POP SWAP2 SWAP1 POP JUMP JUMPDEST PUSH1 0x0 PUSH1 0x20 DUP3 ADD SWAP1 POP DUP2 DUP2 SUB PUSH1 0x0 DUP4 ADD MSTORE PUSH2 0x1F31 DUP2 PUSH2 0x1C9F JUMP JUMPDEST SWAP1 POP SWAP2 SWAP1 POP JUMP JUMPDEST PUSH1 0x0 PUSH1 0x20 DUP3 ADD SWAP1 POP PUSH2 0x1F4D PUSH1 0x0 DUP4 ADD DUP5 PUSH2 0x1CC2 JUMP JUMPDEST SWAP3 SWAP2 POP POP JUMP JUMPDEST PUSH1 0x0 PUSH2 0x1F5D PUSH2 0x1F6E JUMP JUMPDEST SWAP1 POP PUSH2 0x1F69 DUP3 DUP3 PUSH2 0x2105 JUMP JUMPDEST SWAP2 SWAP1 POP JUMP JUMPDEST PUSH1 0x0 PUSH1 0x40 MLOAD SWAP1 POP SWAP1 JUMP JUMPDEST PUSH1 0x0 PUSH8 0xFFFFFFFFFFFFFFFF DUP3 GT ISZERO PUSH2 0x1F93 JUMPI PUSH2 0x1F92 PUSH2 0x216F JUMP JUMPDEST JUMPDEST PUSH2 0x1F9C DUP3 PUSH2 0x219E JUMP JUMPDEST SWAP1 POP PUSH1 0x20 DUP2 ADD SWAP1 POP SWAP2 SWAP1 POP JUMP JUMPDEST PUSH1 0x0 PUSH8 0xFFFFFFFFFFFFFFFF DUP3 GT ISZERO PUSH2 0x1FC4 JUMPI PUSH2 0x1FC3 PUSH2 0x216F JUMP JUMPDEST JUMPDEST PUSH2 0x1FCD DUP3 PUSH2 0x219E JUMP JUMPDEST SWAP1 POP PUSH1 0x20 DUP2 ADD SWAP1 POP SWAP2 SWAP1 POP JUMP JUMPDEST PUSH1 0x0 DUP2 MLOAD SWAP1 POP SWAP2 SWAP1 POP JUMP JUMPDEST PUSH1 0x0 DUP2 MLOAD SWAP1 POP SWAP2 SWAP1 POP JUMP JUMPDEST PUSH1 0x0 DUP3 DUP3 MSTORE PUSH1 0x20 DUP3 ADD SWAP1 POP SWAP3 SWAP2 POP POP JUMP JUMPDEST PUSH1 0x0 DUP3 DUP3 MSTORE PUSH1 0x20 DUP3 ADD SWAP1 POP SWAP3 SWAP2 POP POP JUMP JUMPDEST PUSH1 0x0 DUP2 SWAP1 POP SWAP3 SWAP2 POP POP JUMP JUMPDEST PUSH1 0x0 PUSH2 0x2028 DUP3 PUSH2 0x2067 JUMP JUMPDEST SWAP1 POP SWAP2 SWAP1 POP JUMP JUMPDEST PUSH1 0x0 DUP2 ISZERO ISZERO SWAP1 POP SWAP2 SWAP1 POP JUMP JUMPDEST PUSH1 0x0 PUSH32 0xFFFFFFFF00000000000000000000000000000000000000000000000000000000 DUP3 AND SWAP1 POP SWAP2 SWAP1 POP JUMP JUMPDEST PUSH1 0x0 PUSH20 0xFFFFFFFFFFFFFFFFFFFFFFFFFFFFFFFFFFFFFFFF DUP3 AND SWAP1 POP SWAP2 SWAP1 POP JUMP JUMPDEST PUSH1 0x0 DUP2 SWAP1 POP SWAP2 SWAP1 POP JUMP JUMPDEST DUP3 DUP2 DUP4 CALLDATACOPY PUSH1 0x0 DUP4 DUP4 ADD MSTORE POP POP POP JUMP JUMPDEST PUSH1 0x0 JUMPDEST DUP4 DUP2 LT ISZERO PUSH2 0x20BE JUMPI DUP1 DUP3 ADD MLOAD DUP2 DUP5 ADD MSTORE PUSH1 0x20 DUP2 ADD SWAP1 POP PUSH2 0x20A3 JUMP JUMPDEST DUP4 DUP2 GT ISZERO PUSH2 0x20CD JUMPI PUSH1 0x0 DUP5 DUP5 ADD MSTORE JUMPDEST POP POP POP POP JUMP JUMPDEST PUSH1 0x0 PUSH1 0x2 DUP3 DIV SWAP1 POP PUSH1 0x1 DUP3 AND DUP1 PUSH2 0x20EB JUMPI PUSH1 0x7F DUP3 AND SWAP2 POP JUMPDEST PUSH1 0x20 DUP3 LT DUP2 EQ ISZERO PUSH2 0x20FF JUMPI PUSH2 0x20FE PUSH2 0x2140 JUMP JUMPDEST JUMPDEST POP SWAP2 SWAP1 POP JUMP JUMPDEST PUSH2 0x210E DUP3 PUSH2 0x219E JUMP JUMPDEST DUP2 ADD DUP2 DUP2 LT PUSH8 0xFFFFFFFFFFFFFFFF DUP3 GT OR ISZERO PUSH2 0x212D JUMPI PUSH2 0x212C PUSH2 0x216F JUMP JUMPDEST JUMPDEST DUP1 PUSH1 0x40 MSTORE POP POP POP JUMP JUMPDEST PUSH1 0x0 DUP2 SWAP1 POP SWAP2 SWAP1 POP JUMP JUMPDEST PUSH32 0x4E487B7100000000000000000000000000000000000000000000000000000000 PUSH1 0x0 MSTORE PUSH1 0x22 PUSH1 0x4 MSTORE PUSH1 0x24 PUSH1 0x0 REVERT JUMPDEST PUSH32 0x4E487B7100000000000000000000000000000000000000000000000000000000 PUSH1 0x0 MSTORE PUSH1 0x41 PUSH1 0x4 MSTORE PUSH1 0x24 PUSH1 0x0 REVERT JUMPDEST PUSH1 0x0 PUSH1 0x1F NOT PUSH1 0x1F DUP4 ADD AND SWAP1 POP SWAP2 SWAP1 POP JUMP JUMPDEST PUSH32 0x4552433732313A2063616C6C6572206973206E6F7420746F6B656E206F776E65 PUSH1 0x0 DUP3 ADD MSTORE PUSH32 0x72206F7220617070726F76656400000000000000000000000000000000000000 PUSH1 0x20 DUP3 ADD MSTORE POP JUMP JUMPDEST PUSH32 0x4552433732313A207472616E7366657220746F206E6F6E204552433732315265 PUSH1 0x0 DUP3 ADD MSTORE PUSH32 0x63656976657220696D706C656D656E7465720000000000000000000000000000 PUSH1 0x20 DUP3 ADD MSTORE POP JUMP JUMPDEST PUSH32 0x4552433732313A207472616E736665722066726F6D20696E636F727265637420 PUSH1 0x0 DUP3 ADD MSTORE PUSH32 0x6F776E6572000000000000000000000000000000000000000000000000000000 PUSH1 0x20 DUP3 ADD MSTORE POP JUMP JUMPDEST PUSH32 0x4552433732313A20746F6B656E20616C7265616479206D696E74656400000000 PUSH1 0x0 DUP3 ADD MSTORE POP JUMP JUMPDEST PUSH32 0x4552433732313A207472616E7366657220746F20746865207A65726F20616464 PUSH1 0x0 DUP3 ADD MSTORE PUSH32 0x7265737300000000000000000000000000000000000000000000000000000000 PUSH1 0x20 DUP3 ADD MSTORE POP JUMP JUMPDEST PUSH32 0x4552433732313A20617070726F766520746F2063616C6C657200000000000000 PUSH1 0x0 DUP3 ADD MSTORE POP JUMP JUMPDEST PUSH32 0x4552433732313A2061646472657373207A65726F206973206E6F742061207661 PUSH1 0x0 DUP3 ADD MSTORE PUSH32 0x6C6964206F776E65720000000000000000000000000000000000000000000000 PUSH1 0x20 DUP3 ADD MSTORE POP JUMP JUMPDEST PUSH32 0x4552433732313A206D696E7420746F20746865207A65726F2061646472657373 PUSH1 0x0 DUP3 ADD MSTORE POP JUMP JUMPDEST PUSH32 0x4552433732313A20696E76616C696420746F6B656E2049440000000000000000 PUSH1 0x0 DUP3 ADD MSTORE POP JUMP JUMPDEST PUSH32 0x4552433732313A20617070726F76616C20746F2063757272656E74206F776E65 PUSH1 0x0 DUP3 ADD MSTORE PUSH32 0x7200000000000000000000000000000000000000000000000000000000000000 PUSH1 0x20 DUP3 ADD MSTORE POP JUMP JUMPDEST PUSH32 0x4552433732313A20617070726F76652063616C6C6572206973206E6F7420746F PUSH1 0x0 DUP3 ADD MSTORE PUSH32 0x6B656E206F776E6572206F7220617070726F76656420666F7220616C6C000000 PUSH1 0x20 DUP3 ADD MSTORE POP JUMP JUMPDEST PUSH2 0x2485 DUP2 PUSH2 0x201D JUMP JUMPDEST DUP2 EQ PUSH2 0x2490 JUMPI PUSH1 0x0 DUP1 REVERT JUMPDEST POP JUMP JUMPDEST PUSH2 0x249C DUP2 PUSH2 0x202F JUMP JUMPDEST DUP2 EQ PUSH2 0x24A7 JUMPI PUSH1 0x0 DUP1 REVERT JUMPDEST POP JUMP JUMPDEST PUSH2 0x24B3 DUP2 PUSH2 0x203B JUMP JUMPDEST DUP2 EQ PUSH2 0x24BE JUMPI PUSH1 0x0 DUP1 REVERT JUMPDEST POP JUMP JUMPDEST PUSH2 0x24CA DUP2 PUSH2 0x2087 JUMP JUMPDEST DUP2 EQ PUSH2 0x24D5 JUMPI PUSH1 0x0 DUP1 REVERT JUMPDEST POP JUMP INVALID LOG2 PUSH5 0x6970667358 0x22 SLT KECCAK256 0xBA 0xEB PUSH7 0x44811205FA2A32 SSTORE COINBASE POP SWAP14 0xBF DUP10 LOG4 SWAP1 0xC8 0xE5 SWAP8 0xD9 0xC4 SELFBALANCE 0xD1 CALLER MSTORE8 GT SIGNEXTEND 0xE PUSH7 0xFC64736F6C6343 STOP ADDMOD DIV STOP CALLER "
				},
				"gasEstimates": {
					"creation": {
						"codeDepositCost": "1897200",
						"executionCost": "infinite",
						"totalCost": "infinite"
					},
					"external": {
						"_tokenURI(uint256)": "2103",
						"approve(address,uint256)": "infinite",
						"balanceOf(address)": "1602",
						"getApproved(uint256)": "2657",
						"isApprovedForAll(address,address)": "infinite",
						"name()": "infinite",
						"ownerOf(uint256)": "1748",
						"safeMint(address,uint256,string)": "infinite",
						"safeTransferFrom(address,address,uint256)": "infinite",
						"safeTransferFrom(address,address,uint256,bytes)": "infinite",
						"setApprovalForAll(address,bool)": "infinite",
						"supportsInterface(bytes4)": "797",
						"symbol()": "infinite",
						"tokenURI(uint256)": "infinite",
						"transferFrom(address,address,uint256)": "infinite"
					},
					"internal": {
						"_afterTokenTransfer(address,address,uint256)": "15",
						"_approve(address,uint256)": "infinite",
						"_baseURI()": "infinite",
						"_beforeTokenTransfer(address,address,uint256)": "15",
						"_burn(uint256)": "infinite",
						"_checkOnERC721Received(address,address,uint256,bytes memory)": "infinite",
						"_exists(uint256)": "969",
						"_isApprovedOrOwner(address,uint256)": "infinite",
						"_mint(address,uint256)": "infinite",
						"_requireMinted(uint256)": "infinite",
						"_safeMint(address,uint256)": "infinite",
						"_safeMint(address,uint256,bytes memory)": "infinite",
						"_safeTransfer(address,address,uint256,bytes memory)": "infinite",
						"_setApprovalForAll(address,address,bool)": "infinite",
						"_setTokenURI(uint256,string memory)": "infinite",
						"_transfer(address,address,uint256)": "infinite"
					}
				},
				"methodIdentifiers": {
					"_tokenURI(uint256)": "8d17e712",
					"approve(address,uint256)": "095ea7b3",
					"balanceOf(address)": "70a08231",
					"getApproved(uint256)": "081812fc",
					"isApprovedForAll(address,address)": "e985e9c5",
					"name()": "06fdde03",
					"ownerOf(uint256)": "6352211e",
					"safeMint(address,uint256,string)": "cd279c7c",
					"safeTransferFrom(address,address,uint256)": "42842e0e",
					"safeTransferFrom(address,address,uint256,bytes)": "b88d4fde",
					"setApprovalForAll(address,bool)": "a22cb465",
					"supportsInterface(bytes4)": "01ffc9a7",
					"symbol()": "95d89b41",
					"tokenURI(uint256)": "c87b56dd",
					"transferFrom(address,address,uint256)": "23b872dd"
				}
			},
			"storageLayout": {
				"storage": [
					{
						"astId": 741,
						"contract": "contracts/erc721.sol:ERC721",
						"label": "_name",
						"offset": 0,
						"slot": "0",
						"type": "t_string_storage"
					},
					{
						"astId": 743,
						"contract": "contracts/erc721.sol:ERC721",
						"label": "_symbol",
						"offset": 0,
						"slot": "1",
						"type": "t_string_storage"
					},
					{
						"astId": 747,
						"contract": "contracts/erc721.sol:ERC721",
						"label": "_owners",
						"offset": 0,
						"slot": "2",
						"type": "t_mapping(t_uint256,t_address)"
					},
					{
						"astId": 751,
						"contract": "contracts/erc721.sol:ERC721",
						"label": "_balances",
						"offset": 0,
						"slot": "3",
						"type": "t_mapping(t_address,t_uint256)"
					},
					{
						"astId": 755,
						"contract": "contracts/erc721.sol:ERC721",
						"label": "_tokenApprovals",
						"offset": 0,
						"slot": "4",
						"type": "t_mapping(t_uint256,t_address)"
					},
					{
						"astId": 761,
						"contract": "contracts/erc721.sol:ERC721",
						"label": "_operatorApprovals",
						"offset": 0,
						"slot": "5",
						"type": "t_mapping(t_address,t_mapping(t_address,t_bool))"
					},
					{
						"astId": 765,
						"contract": "contracts/erc721.sol:ERC721",
						"label": "_tokenURIs",
						"offset": 0,
						"slot": "6",
						"type": "t_mapping(t_uint256,t_string_storage)"
					}
				],
				"types": {
					"t_address": {
						"encoding": "inplace",
						"label": "address",
						"numberOfBytes": "20"
					},
					"t_bool": {
						"encoding": "inplace",
						"label": "bool",
						"numberOfBytes": "1"
					},
					"t_mapping(t_address,t_bool)": {
						"encoding": "mapping",
						"key": "t_address",
						"label": "mapping(address => bool)",
						"numberOfBytes": "32",
						"value": "t_bool"
					},
					"t_mapping(t_address,t_mapping(t_address,t_bool))": {
						"encoding": "mapping",
						"key": "t_address",
						"label": "mapping(address => mapping(address => bool))",
						"numberOfBytes": "32",
						"value": "t_mapping(t_address,t_bool)"
					},
					"t_mapping(t_address,t_uint256)": {
						"encoding": "mapping",
						"key": "t_address",
						"label": "mapping(address => uint256)",
						"numberOfBytes": "32",
						"value": "t_uint256"
					},
					"t_mapping(t_uint256,t_address)": {
						"encoding": "mapping",
						"key": "t_uint256",
						"label": "mapping(uint256 => address)",
						"numberOfBytes": "32",
						"value": "t_address"
					},
					"t_mapping(t_uint256,t_string_storage)": {
						"encoding": "mapping",
						"key": "t_uint256",
						"label": "mapping(uint256 => string)",
						"numberOfBytes": "32",
						"value": "t_string_storage"
					},
					"t_string_storage": {
						"encoding": "bytes",
						"label": "string",
						"numberOfBytes": "32"
					},
					"t_uint256": {
						"encoding": "inplace",
						"label": "uint256",
						"numberOfBytes": "32"
					}
				}
			},
			"userdoc": {
				"kind": "user",
				"methods": {},
				"version": 1
			}
		}
	}
}