{
	"contracts/erc721.sol": {
		"ERC721": {
			"abi": [
				{
					"inputs": [
						{
							"internalType": "string",
							"name": "name_",
							"type": "string"
						},
						{
							"internalType": "string",
							"name": "symbol_",
							"type": "string"
						}
					],
					"stateMutability": "nonpayable",
					"type": "constructor"
				},
				{
					"anonymous": false,
					"inputs": [
						{
							"indexed": true,
							"internalType": "address",
							"name": "owner",
							"type": "address"
						},
						{
							"indexed": true,
							"internalType": "address",
							"name": "approved",
							"type": "address"
						},
						{
							"indexed": true,
							"internalType": "uint256",
							"name": "tokenId",
							"type": "uint256"
						}
					],
					"name": "Approval",
					"type": "event"
				},
				{
					"anonymous": false,
					"inputs": [
						{
							"indexed": true,
							"internalType": "address",
							"name": "owner",
							"type": "address"
						},
						{
							"indexed": true,
							"internalType": "address",
							"name": "operator",
							"type": "address"
						},
						{
							"indexed": false,
							"internalType": "bool",
							"name": "approved",
							"type": "bool"
						}
					],
					"name": "ApprovalForAll",
					"type": "event"
				},
				{
					"anonymous": false,
					"inputs": [
						{
							"indexed": true,
							"internalType": "address",
							"name": "from",
							"type": "address"
						},
						{
							"indexed": true,
							"internalType": "address",
							"name": "to",
							"type": "address"
						},
						{
							"indexed": true,
							"internalType": "uint256",
							"name": "tokenId",
							"type": "uint256"
						}
					],
					"name": "Transfer",
					"type": "event"
				},
				{
					"inputs": [
						{
							"internalType": "address",
							"name": "to",
							"type": "address"
						},
						{
							"internalType": "uint256",
							"name": "tokenId",
							"type": "uint256"
						}
					],
					"name": "approve",
					"outputs": [],
					"stateMutability": "nonpayable",
					"type": "function"
				},
				{
					"inputs": [
						{
							"internalType": "address",
							"name": "owner",
							"type": "address"
						}
					],
					"name": "balanceOf",
					"outputs": [
						{
							"internalType": "uint256",
							"name": "",
							"type": "uint256"
						}
					],
					"stateMutability": "view",
					"type": "function"
				},
				{
					"inputs": [
						{
							"internalType": "uint256",
							"name": "tokenId",
							"type": "uint256"
						}
					],
					"name": "getApproved",
					"outputs": [
						{
							"internalType": "address",
							"name": "",
							"type": "address"
						}
					],
					"stateMutability": "view",
					"type": "function"
				},
				{
					"inputs": [
						{
							"internalType": "address",
							"name": "owner",
							"type": "address"
						},
						{
							"internalType": "address",
							"name": "operator",
							"type": "address"
						}
					],
					"name": "isApprovedForAll",
					"outputs": [
						{
							"internalType": "bool",
							"name": "",
							"type": "bool"
						}
					],
					"stateMutability": "view",
					"type": "function"
				},
				{
					"inputs": [],
					"name": "name",
					"outputs": [
						{
							"internalType": "string",
							"name": "",
							"type": "string"
						}
					],
					"stateMutability": "view",
					"type": "function"
				},
				{
					"inputs": [
						{
							"internalType": "uint256",
							"name": "tokenId",
							"type": "uint256"
						}
					],
					"name": "ownerOf",
					"outputs": [
						{
							"internalType": "address",
							"name": "",
							"type": "address"
						}
					],
					"stateMutability": "view",
					"type": "function"
				},
				{
					"inputs": [
						{
							"internalType": "address",
							"name": "to",
							"type": "address"
						},
						{
							"internalType": "address",
							"name": "collaborator",
							"type": "address"
						},
						{
							"internalType": "uint256",
							"name": "tokenId",
							"type": "uint256"
						},
						{
							"internalType": "string",
							"name": "uri",
							"type": "string"
						}
					],
					"name": "safeMint",
					"outputs": [],
					"stateMutability": "nonpayable",
					"type": "function"
				},
				{
					"inputs": [
						{
							"internalType": "address",
							"name": "from",
							"type": "address"
						},
						{
							"internalType": "address",
							"name": "to",
							"type": "address"
						},
						{
							"internalType": "uint256",
							"name": "tokenId",
							"type": "uint256"
						}
					],
					"name": "safeTransferFrom",
					"outputs": [],
					"stateMutability": "nonpayable",
					"type": "function"
				},
				{
					"inputs": [
						{
							"internalType": "address",
							"name": "from",
							"type": "address"
						},
						{
							"internalType": "address",
							"name": "to",
							"type": "address"
						},
						{
							"internalType": "uint256",
							"name": "tokenId",
							"type": "uint256"
						},
						{
							"internalType": "bytes",
							"name": "data",
							"type": "bytes"
						}
					],
					"name": "safeTransferFrom",
					"outputs": [],
					"stateMutability": "nonpayable",
					"type": "function"
				},
				{
					"inputs": [
						{
							"internalType": "address",
							"name": "operator",
							"type": "address"
						},
						{
							"internalType": "bool",
							"name": "approved",
							"type": "bool"
						}
					],
					"name": "setApprovalForAll",
					"outputs": [],
					"stateMutability": "nonpayable",
					"type": "function"
				},
				{
					"inputs": [
						{
							"internalType": "bytes4",
							"name": "interfaceId",
							"type": "bytes4"
						}
					],
					"name": "supportsInterface",
					"outputs": [
						{
							"internalType": "bool",
							"name": "",
							"type": "bool"
						}
					],
					"stateMutability": "view",
					"type": "function"
				},
				{
					"inputs": [],
					"name": "symbol",
					"outputs": [
						{
							"internalType": "string",
							"name": "",
							"type": "string"
						}
					],
					"stateMutability": "view",
					"type": "function"
				},
				{
					"inputs": [
						{
							"internalType": "uint256",
							"name": "tokenId",
							"type": "uint256"
						}
					],
					"name": "tokenURI",
					"outputs": [
						{
							"internalType": "string",
							"name": "",
							"type": "string"
						}
					],
					"stateMutability": "view",
					"type": "function"
				},
				{
					"inputs": [
						{
							"internalType": "address",
							"name": "from",
							"type": "address"
						},
						{
							"internalType": "address",
							"name": "to",
							"type": "address"
						},
						{
							"internalType": "uint256",
							"name": "tokenId",
							"type": "uint256"
						}
					],
					"name": "transferFrom",
					"outputs": [],
					"stateMutability": "nonpayable",
					"type": "function"
				}
			],
			"devdoc": {
				"kind": "dev",
				"methods": {
					"approve(address,uint256)": {
						"details": "Gives permission to `to` to transfer `tokenId` token to another account. The approval is cleared when the token is transferred. Only a single account can be approved at a time, so approving the zero address clears previous approvals. Requirements: - The caller must own the token or be an approved operator. - `tokenId` must exist. Emits an {Approval} event."
					},
					"balanceOf(address)": {
						"details": "Returns the number of tokens in ``owner``'s account."
					},
					"getApproved(uint256)": {
						"details": "Returns the account approved for `tokenId` token. Requirements: - `tokenId` must exist."
					},
					"isApprovedForAll(address,address)": {
						"details": "Returns if the `operator` is allowed to manage all of the assets of `owner`. See {setApprovalForAll}"
					},
					"name()": {
						"details": "Returns the token collection name."
					},
					"ownerOf(uint256)": {
						"details": "Returns the owner of the `tokenId` token. Requirements: - `tokenId` must exist."
					},
					"safeTransferFrom(address,address,uint256)": {
						"details": "Safely transfers `tokenId` token from `from` to `to`, checking first that contract recipients are aware of the ERC721 protocol to prevent tokens from being forever locked. Requirements: - `from` cannot be the zero address. - `to` cannot be the zero address. - `tokenId` token must exist and be owned by `from`. - If the caller is not `from`, it must be have been allowed to move this token by either {approve} or {setApprovalForAll}. - If `to` refers to a smart contract, it must implement {IERC721Receiver-onERC721Received}, which is called upon a safe transfer. Emits a {Transfer} event."
					},
					"safeTransferFrom(address,address,uint256,bytes)": {
						"details": "Safely transfers `tokenId` token from `from` to `to`. Requirements: - `from` cannot be the zero address. - `to` cannot be the zero address. - `tokenId` token must exist and be owned by `from`. - If the caller is not `from`, it must be approved to move this token by either {approve} or {setApprovalForAll}. - If `to` refers to a smart contract, it must implement {IERC721Receiver-onERC721Received}, which is called upon a safe transfer. Emits a {Transfer} event."
					},
					"symbol()": {
						"details": "Returns the token collection symbol."
					},
					"tokenURI(uint256)": {
						"details": "Returns the Uniform Resource Identifier (URI) for `tokenId` token."
					},
					"transferFrom(address,address,uint256)": {
						"details": "Transfers `tokenId` token from `from` to `to`. WARNING: Usage of this method is discouraged, use {safeTransferFrom} whenever possible. Requirements: - `from` cannot be the zero address. - `to` cannot be the zero address. - `tokenId` token must be owned by `from`. - If the caller is not `from`, it must be approved to move this token by either {approve} or {setApprovalForAll}. Emits a {Transfer} event."
					}
				},
				"version": 1
			},
			"evm": {
				"assembly": "    /* \"contracts/erc721.sol\":617:9719  contract ERC721 is Context, ERC165, IERC721, IERC721Metadata {\r... */\n  mstore(0x40, 0x80)\n    /* \"contracts/erc721.sol\":1172:1288  constructor(string memory name_, string memory symbol_) {\r... */\n  callvalue\n  dup1\n  iszero\n  tag_1\n  jumpi\n  0x00\n  dup1\n  revert\ntag_1:\n  pop\n  mload(0x40)\n  sub(codesize, bytecodeSize)\n  dup1\n  bytecodeSize\n  dup4\n  codecopy\n  dup2\n  dup2\n  add\n  0x40\n  mstore\n  dup2\n  add\n  swap1\n  tag_2\n  swap2\n  swap1\n  tag_3\n  jump\t// in\ntag_2:\n    /* \"contracts/erc721.sol\":1247:1252  name_ */\n  dup2\n    /* \"contracts/erc721.sol\":1239:1244  _name */\n  0x00\n    /* \"contracts/erc721.sol\":1239:1252  _name = name_ */\n  swap1\n  dup1\n  mload\n  swap1\n  0x20\n  add\n  swap1\n  tag_6\n  swap3\n  swap2\n  swap1\n  tag_7\n  jump\t// in\ntag_6:\n  pop\n    /* \"contracts/erc721.sol\":1273:1280  symbol_ */\n  dup1\n    /* \"contracts/erc721.sol\":1263:1270  _symbol */\n  0x01\n    /* \"contracts/erc721.sol\":1263:1280  _symbol = symbol_ */\n  swap1\n  dup1\n  mload\n  swap1\n  0x20\n  add\n  swap1\n  tag_8\n  swap3\n  swap2\n  swap1\n  tag_7\n  jump\t// in\ntag_8:\n  pop\n    /* \"contracts/erc721.sol\":1172:1288  constructor(string memory name_, string memory symbol_) {\r... */\n  pop\n  pop\n    /* \"contracts/erc721.sol\":617:9719  contract ERC721 is Context, ERC165, IERC721, IERC721Metadata {\r... */\n  jump(tag_9)\ntag_7:\n  dup3\n  dup1\n  sload\n  tag_10\n  swap1\n  tag_11\n  jump\t// in\ntag_10:\n  swap1\n  0x00\n  mstore\n  keccak256(0x00, 0x20)\n  swap1\n  0x1f\n  add\n  0x20\n  swap1\n  div\n  dup2\n  add\n  swap3\n  dup3\n  tag_13\n  jumpi\n  0x00\n  dup6\n  sstore\n  jump(tag_12)\ntag_13:\n  dup3\n  0x1f\n  lt\n  tag_14\n  jumpi\n  dup1\n  mload\n  not(0xff)\n  and\n  dup4\n  dup1\n  add\n  or\n  dup6\n  sstore\n  jump(tag_12)\ntag_14:\n  dup3\n  dup1\n  add\n  0x01\n  add\n  dup6\n  sstore\n  dup3\n  iszero\n  tag_12\n  jumpi\n  swap2\n  dup3\n  add\ntag_15:\n  dup3\n  dup2\n  gt\n  iszero\n  tag_16\n  jumpi\n  dup3\n  mload\n  dup3\n  sstore\n  swap2\n  0x20\n  add\n  swap2\n  swap1\n  0x01\n  add\n  swap1\n  jump(tag_15)\ntag_16:\ntag_12:\n  pop\n  swap1\n  pop\n  tag_17\n  swap2\n  swap1\n  tag_18\n  jump\t// in\ntag_17:\n  pop\n  swap1\n  jump\t// out\ntag_18:\ntag_19:\n  dup1\n  dup3\n  gt\n  iszero\n  tag_20\n  jumpi\n  0x00\n  dup2\n  0x00\n  swap1\n  sstore\n  pop\n  0x01\n  add\n  jump(tag_19)\ntag_20:\n  pop\n  swap1\n  jump\t// out\n    /* \"#utility.yul\":7:361   */\ntag_22:\n    /* \"#utility.yul\":96:101   */\n  0x00\n    /* \"#utility.yul\":121:187   */\n  tag_24\n    /* \"#utility.yul\":137:186   */\n  tag_25\n    /* \"#utility.yul\":179:185   */\n  dup5\n    /* \"#utility.yul\":137:186   */\n  tag_26\n  jump\t// in\ntag_25:\n    /* \"#utility.yul\":121:187   */\n  tag_27\n  jump\t// in\ntag_24:\n    /* \"#utility.yul\":112:187   */\n  swap1\n  pop\n    /* \"#utility.yul\":210:216   */\n  dup3\n    /* \"#utility.yul\":203:208   */\n  dup2\n    /* \"#utility.yul\":196:217   */\n  mstore\n    /* \"#utility.yul\":248:252   */\n  0x20\n    /* \"#utility.yul\":241:246   */\n  dup2\n    /* \"#utility.yul\":237:253   */\n  add\n    /* \"#utility.yul\":286:289   */\n  dup5\n    /* \"#utility.yul\":277:283   */\n  dup5\n    /* \"#utility.yul\":272:275   */\n  dup5\n    /* \"#utility.yul\":268:284   */\n  add\n    /* \"#utility.yul\":265:290   */\n  gt\n    /* \"#utility.yul\":262:264   */\n  iszero\n  tag_28\n  jumpi\n    /* \"#utility.yul\":303:304   */\n  0x00\n    /* \"#utility.yul\":300:301   */\n  dup1\n    /* \"#utility.yul\":293:305   */\n  revert\n    /* \"#utility.yul\":262:264   */\ntag_28:\n    /* \"#utility.yul\":316:355   */\n  tag_29\n    /* \"#utility.yul\":348:354   */\n  dup5\n    /* \"#utility.yul\":343:346   */\n  dup3\n    /* \"#utility.yul\":338:341   */\n  dup6\n    /* \"#utility.yul\":316:355   */\n  tag_30\n  jump\t// in\ntag_29:\n    /* \"#utility.yul\":102:361   */\n  pop\n  swap4\n  swap3\n  pop\n  pop\n  pop\n  jump\t// out\n    /* \"#utility.yul\":381:669   */\ntag_31:\n    /* \"#utility.yul\":448:453   */\n  0x00\n    /* \"#utility.yul\":497:500   */\n  dup3\n    /* \"#utility.yul\":490:494   */\n  0x1f\n    /* \"#utility.yul\":482:488   */\n  dup4\n    /* \"#utility.yul\":478:495   */\n  add\n    /* \"#utility.yul\":474:501   */\n  slt\n    /* \"#utility.yul\":464:466   */\n  tag_33\n  jumpi\n    /* \"#utility.yul\":515:516   */\n  0x00\n    /* \"#utility.yul\":512:513   */\n  dup1\n    /* \"#utility.yul\":505:517   */\n  revert\n    /* \"#utility.yul\":464:466   */\ntag_33:\n    /* \"#utility.yul\":548:554   */\n  dup2\n    /* \"#utility.yul\":542:555   */\n  mload\n    /* \"#utility.yul\":573:663   */\n  tag_34\n    /* \"#utility.yul\":659:662   */\n  dup5\n    /* \"#utility.yul\":651:657   */\n  dup3\n    /* \"#utility.yul\":644:648   */\n  0x20\n    /* \"#utility.yul\":636:642   */\n  dup7\n    /* \"#utility.yul\":632:649   */\n  add\n    /* \"#utility.yul\":573:663   */\n  tag_22\n  jump\t// in\ntag_34:\n    /* \"#utility.yul\":564:663   */\n  swap2\n  pop\n    /* \"#utility.yul\":454:669   */\n  pop\n  swap3\n  swap2\n  pop\n  pop\n  jump\t// out\n    /* \"#utility.yul\":675:1327   */\ntag_3:\n    /* \"#utility.yul\":774:780   */\n  0x00\n    /* \"#utility.yul\":782:788   */\n  dup1\n    /* \"#utility.yul\":831:833   */\n  0x40\n    /* \"#utility.yul\":819:828   */\n  dup4\n    /* \"#utility.yul\":810:817   */\n  dup6\n    /* \"#utility.yul\":806:829   */\n  sub\n    /* \"#utility.yul\":802:834   */\n  slt\n    /* \"#utility.yul\":799:801   */\n  iszero\n  tag_36\n  jumpi\n    /* \"#utility.yul\":847:848   */\n  0x00\n    /* \"#utility.yul\":844:845   */\n  dup1\n    /* \"#utility.yul\":837:849   */\n  revert\n    /* \"#utility.yul\":799:801   */\ntag_36:\n    /* \"#utility.yul\":911:912   */\n  0x00\n    /* \"#utility.yul\":900:909   */\n  dup4\n    /* \"#utility.yul\":896:913   */\n  add\n    /* \"#utility.yul\":890:914   */\n  mload\n    /* \"#utility.yul\":941:959   */\n  0xffffffffffffffff\n    /* \"#utility.yul\":933:939   */\n  dup2\n    /* \"#utility.yul\":930:960   */\n  gt\n    /* \"#utility.yul\":927:929   */\n  iszero\n  tag_37\n  jumpi\n    /* \"#utility.yul\":973:974   */\n  0x00\n    /* \"#utility.yul\":970:971   */\n  dup1\n    /* \"#utility.yul\":963:975   */\n  revert\n    /* \"#utility.yul\":927:929   */\ntag_37:\n    /* \"#utility.yul\":1001:1075   */\n  tag_38\n    /* \"#utility.yul\":1067:1074   */\n  dup6\n    /* \"#utility.yul\":1058:1064   */\n  dup3\n    /* \"#utility.yul\":1047:1056   */\n  dup7\n    /* \"#utility.yul\":1043:1065   */\n  add\n    /* \"#utility.yul\":1001:1075   */\n  tag_31\n  jump\t// in\ntag_38:\n    /* \"#utility.yul\":991:1075   */\n  swap3\n  pop\n    /* \"#utility.yul\":861:1085   */\n  pop\n    /* \"#utility.yul\":1145:1147   */\n  0x20\n    /* \"#utility.yul\":1134:1143   */\n  dup4\n    /* \"#utility.yul\":1130:1148   */\n  add\n    /* \"#utility.yul\":1124:1149   */\n  mload\n    /* \"#utility.yul\":1176:1194   */\n  0xffffffffffffffff\n    /* \"#utility.yul\":1168:1174   */\n  dup2\n    /* \"#utility.yul\":1165:1195   */\n  gt\n    /* \"#utility.yul\":1162:1164   */\n  iszero\n  tag_39\n  jumpi\n    /* \"#utility.yul\":1208:1209   */\n  0x00\n    /* \"#utility.yul\":1205:1206   */\n  dup1\n    /* \"#utility.yul\":1198:1210   */\n  revert\n    /* \"#utility.yul\":1162:1164   */\ntag_39:\n    /* \"#utility.yul\":1236:1310   */\n  tag_40\n    /* \"#utility.yul\":1302:1309   */\n  dup6\n    /* \"#utility.yul\":1293:1299   */\n  dup3\n    /* \"#utility.yul\":1282:1291   */\n  dup7\n    /* \"#utility.yul\":1278:1300   */\n  add\n    /* \"#utility.yul\":1236:1310   */\n  tag_31\n  jump\t// in\ntag_40:\n    /* \"#utility.yul\":1226:1310   */\n  swap2\n  pop\n    /* \"#utility.yul\":1095:1320   */\n  pop\n    /* \"#utility.yul\":789:1327   */\n  swap3\n  pop\n  swap3\n  swap1\n  pop\n  jump\t// out\n    /* \"#utility.yul\":1333:1462   */\ntag_27:\n    /* \"#utility.yul\":1367:1373   */\n  0x00\n    /* \"#utility.yul\":1394:1414   */\n  tag_42\n  tag_43\n  jump\t// in\ntag_42:\n    /* \"#utility.yul\":1384:1414   */\n  swap1\n  pop\n    /* \"#utility.yul\":1423:1456   */\n  tag_44\n    /* \"#utility.yul\":1451:1455   */\n  dup3\n    /* \"#utility.yul\":1443:1449   */\n  dup3\n    /* \"#utility.yul\":1423:1456   */\n  tag_45\n  jump\t// in\ntag_44:\n    /* \"#utility.yul\":1374:1462   */\n  swap2\n  swap1\n  pop\n  jump\t// out\n    /* \"#utility.yul\":1468:1543   */\ntag_43:\n    /* \"#utility.yul\":1501:1507   */\n  0x00\n    /* \"#utility.yul\":1534:1536   */\n  0x40\n    /* \"#utility.yul\":1528:1537   */\n  mload\n    /* \"#utility.yul\":1518:1537   */\n  swap1\n  pop\n    /* \"#utility.yul\":1508:1543   */\n  swap1\n  jump\t// out\n    /* \"#utility.yul\":1549:1857   */\ntag_26:\n    /* \"#utility.yul\":1611:1615   */\n  0x00\n    /* \"#utility.yul\":1701:1719   */\n  0xffffffffffffffff\n    /* \"#utility.yul\":1693:1699   */\n  dup3\n    /* \"#utility.yul\":1690:1720   */\n  gt\n    /* \"#utility.yul\":1687:1689   */\n  iszero\n  tag_48\n  jumpi\n    /* \"#utility.yul\":1723:1741   */\n  tag_49\n  tag_50\n  jump\t// in\ntag_49:\n    /* \"#utility.yul\":1687:1689   */\ntag_48:\n    /* \"#utility.yul\":1761:1790   */\n  tag_51\n    /* \"#utility.yul\":1783:1789   */\n  dup3\n    /* \"#utility.yul\":1761:1790   */\n  tag_52\n  jump\t// in\ntag_51:\n    /* \"#utility.yul\":1753:1790   */\n  swap1\n  pop\n    /* \"#utility.yul\":1845:1849   */\n  0x20\n    /* \"#utility.yul\":1839:1843   */\n  dup2\n    /* \"#utility.yul\":1835:1850   */\n  add\n    /* \"#utility.yul\":1827:1850   */\n  swap1\n  pop\n    /* \"#utility.yul\":1616:1857   */\n  swap2\n  swap1\n  pop\n  jump\t// out\n    /* \"#utility.yul\":1863:2170   */\ntag_30:\n    /* \"#utility.yul\":1931:1932   */\n  0x00\n    /* \"#utility.yul\":1941:2054   */\ntag_54:\n    /* \"#utility.yul\":1955:1961   */\n  dup4\n    /* \"#utility.yul\":1952:1953   */\n  dup2\n    /* \"#utility.yul\":1949:1962   */\n  lt\n    /* \"#utility.yul\":1941:2054   */\n  iszero\n  tag_56\n  jumpi\n    /* \"#utility.yul\":2040:2041   */\n  dup1\n    /* \"#utility.yul\":2035:2038   */\n  dup3\n    /* \"#utility.yul\":2031:2042   */\n  add\n    /* \"#utility.yul\":2025:2043   */\n  mload\n    /* \"#utility.yul\":2021:2022   */\n  dup2\n    /* \"#utility.yul\":2016:2019   */\n  dup5\n    /* \"#utility.yul\":2012:2023   */\n  add\n    /* \"#utility.yul\":2005:2044   */\n  mstore\n    /* \"#utility.yul\":1977:1979   */\n  0x20\n    /* \"#utility.yul\":1974:1975   */\n  dup2\n    /* \"#utility.yul\":1970:1980   */\n  add\n    /* \"#utility.yul\":1965:1980   */\n  swap1\n  pop\n    /* \"#utility.yul\":1941:2054   */\n  jump(tag_54)\ntag_56:\n    /* \"#utility.yul\":2072:2078   */\n  dup4\n    /* \"#utility.yul\":2069:2070   */\n  dup2\n    /* \"#utility.yul\":2066:2079   */\n  gt\n    /* \"#utility.yul\":2063:2065   */\n  iszero\n  tag_57\n  jumpi\n    /* \"#utility.yul\":2152:2153   */\n  0x00\n    /* \"#utility.yul\":2143:2149   */\n  dup5\n    /* \"#utility.yul\":2138:2141   */\n  dup5\n    /* \"#utility.yul\":2134:2150   */\n  add\n    /* \"#utility.yul\":2127:2154   */\n  mstore\n    /* \"#utility.yul\":2063:2065   */\ntag_57:\n    /* \"#utility.yul\":1912:2170   */\n  pop\n  pop\n  pop\n  pop\n  jump\t// out\n    /* \"#utility.yul\":2176:2496   */\ntag_11:\n    /* \"#utility.yul\":2220:2226   */\n  0x00\n    /* \"#utility.yul\":2257:2258   */\n  0x02\n    /* \"#utility.yul\":2251:2255   */\n  dup3\n    /* \"#utility.yul\":2247:2259   */\n  div\n    /* \"#utility.yul\":2237:2259   */\n  swap1\n  pop\n    /* \"#utility.yul\":2304:2305   */\n  0x01\n    /* \"#utility.yul\":2298:2302   */\n  dup3\n    /* \"#utility.yul\":2294:2306   */\n  and\n    /* \"#utility.yul\":2325:2343   */\n  dup1\n    /* \"#utility.yul\":2315:2317   */\n  tag_59\n  jumpi\n    /* \"#utility.yul\":2381:2385   */\n  0x7f\n    /* \"#utility.yul\":2373:2379   */\n  dup3\n    /* \"#utility.yul\":2369:2386   */\n  and\n    /* \"#utility.yul\":2359:2386   */\n  swap2\n  pop\n    /* \"#utility.yul\":2315:2317   */\ntag_59:\n    /* \"#utility.yul\":2443:2445   */\n  0x20\n    /* \"#utility.yul\":2435:2441   */\n  dup3\n    /* \"#utility.yul\":2432:2446   */\n  lt\n    /* \"#utility.yul\":2412:2430   */\n  dup2\n    /* \"#utility.yul\":2409:2447   */\n  eq\n    /* \"#utility.yul\":2406:2408   */\n  iszero\n  tag_60\n  jumpi\n    /* \"#utility.yul\":2462:2480   */\n  tag_61\n  tag_62\n  jump\t// in\ntag_61:\n    /* \"#utility.yul\":2406:2408   */\ntag_60:\n    /* \"#utility.yul\":2227:2496   */\n  pop\n  swap2\n  swap1\n  pop\n  jump\t// out\n    /* \"#utility.yul\":2502:2783   */\ntag_45:\n    /* \"#utility.yul\":2585:2612   */\n  tag_64\n    /* \"#utility.yul\":2607:2611   */\n  dup3\n    /* \"#utility.yul\":2585:2612   */\n  tag_52\n  jump\t// in\ntag_64:\n    /* \"#utility.yul\":2577:2583   */\n  dup2\n    /* \"#utility.yul\":2573:2613   */\n  add\n    /* \"#utility.yul\":2715:2721   */\n  dup2\n    /* \"#utility.yul\":2703:2713   */\n  dup2\n    /* \"#utility.yul\":2700:2722   */\n  lt\n    /* \"#utility.yul\":2679:2697   */\n  0xffffffffffffffff\n    /* \"#utility.yul\":2667:2677   */\n  dup3\n    /* \"#utility.yul\":2664:2698   */\n  gt\n    /* \"#utility.yul\":2661:2723   */\n  or\n    /* \"#utility.yul\":2658:2660   */\n  iszero\n  tag_65\n  jumpi\n    /* \"#utility.yul\":2726:2744   */\n  tag_66\n  tag_50\n  jump\t// in\ntag_66:\n    /* \"#utility.yul\":2658:2660   */\ntag_65:\n    /* \"#utility.yul\":2766:2776   */\n  dup1\n    /* \"#utility.yul\":2762:2764   */\n  0x40\n    /* \"#utility.yul\":2755:2777   */\n  mstore\n    /* \"#utility.yul\":2545:2783   */\n  pop\n  pop\n  pop\n  jump\t// out\n    /* \"#utility.yul\":2789:2969   */\ntag_62:\n    /* \"#utility.yul\":2837:2914   */\n  0x4e487b7100000000000000000000000000000000000000000000000000000000\n    /* \"#utility.yul\":2834:2835   */\n  0x00\n    /* \"#utility.yul\":2827:2915   */\n  mstore\n    /* \"#utility.yul\":2934:2938   */\n  0x22\n    /* \"#utility.yul\":2931:2932   */\n  0x04\n    /* \"#utility.yul\":2924:2939   */\n  mstore\n    /* \"#utility.yul\":2958:2962   */\n  0x24\n    /* \"#utility.yul\":2955:2956   */\n  0x00\n    /* \"#utility.yul\":2948:2963   */\n  revert\n    /* \"#utility.yul\":2975:3155   */\ntag_50:\n    /* \"#utility.yul\":3023:3100   */\n  0x4e487b7100000000000000000000000000000000000000000000000000000000\n    /* \"#utility.yul\":3020:3021   */\n  0x00\n    /* \"#utility.yul\":3013:3101   */\n  mstore\n    /* \"#utility.yul\":3120:3124   */\n  0x41\n    /* \"#utility.yul\":3117:3118   */\n  0x04\n    /* \"#utility.yul\":3110:3125   */\n  mstore\n    /* \"#utility.yul\":3144:3148   */\n  0x24\n    /* \"#utility.yul\":3141:3142   */\n  0x00\n    /* \"#utility.yul\":3134:3149   */\n  revert\n    /* \"#utility.yul\":3161:3263   */\ntag_52:\n    /* \"#utility.yul\":3202:3208   */\n  0x00\n    /* \"#utility.yul\":3253:3255   */\n  0x1f\n    /* \"#utility.yul\":3249:3256   */\n  not\n    /* \"#utility.yul\":3244:3246   */\n  0x1f\n    /* \"#utility.yul\":3237:3242   */\n  dup4\n    /* \"#utility.yul\":3233:3247   */\n  add\n    /* \"#utility.yul\":3229:3257   */\n  and\n    /* \"#utility.yul\":3219:3257   */\n  swap1\n  pop\n    /* \"#utility.yul\":3209:3263   */\n  swap2\n  swap1\n  pop\n  jump\t// out\n    /* \"contracts/erc721.sol\":617:9719  contract ERC721 is Context, ERC165, IERC721, IERC721Metadata {\r... */\ntag_9:\n  dataSize(sub_0)\n  dup1\n  dataOffset(sub_0)\n  0x00\n  codecopy\n  0x00\n  return\nstop\n\nsub_0: assembly {\n        /* \"contracts/erc721.sol\":617:9719  contract ERC721 is Context, ERC165, IERC721, IERC721Metadata {\r... */\n      mstore(0x40, 0x80)\n      callvalue\n      dup1\n      iszero\n      tag_1\n      jumpi\n      0x00\n      dup1\n      revert\n    tag_1:\n      pop\n      jumpi(tag_2, lt(calldatasize, 0x04))\n      shr(0xe0, calldataload(0x00))\n      dup1\n      0x70a08231\n      gt\n      tag_17\n      jumpi\n      dup1\n      0xab33a3ad\n      gt\n      tag_18\n      jumpi\n      dup1\n      0xab33a3ad\n      eq\n      tag_13\n      jumpi\n      dup1\n      0xb88d4fde\n      eq\n      tag_14\n      jumpi\n      dup1\n      0xc87b56dd\n      eq\n      tag_15\n      jumpi\n      dup1\n      0xe985e9c5\n      eq\n      tag_16\n      jumpi\n      jump(tag_2)\n    tag_18:\n      dup1\n      0x70a08231\n      eq\n      tag_10\n      jumpi\n      dup1\n      0x95d89b41\n      eq\n      tag_11\n      jumpi\n      dup1\n      0xa22cb465\n      eq\n      tag_12\n      jumpi\n      jump(tag_2)\n    tag_17:\n      dup1\n      0x095ea7b3\n      gt\n      tag_19\n      jumpi\n      dup1\n      0x095ea7b3\n      eq\n      tag_6\n      jumpi\n      dup1\n      0x23b872dd\n      eq\n      tag_7\n      jumpi\n      dup1\n      0x42842e0e\n      eq\n      tag_8\n      jumpi\n      dup1\n      0x6352211e\n      eq\n      tag_9\n      jumpi\n      jump(tag_2)\n    tag_19:\n      dup1\n      0x01ffc9a7\n      eq\n      tag_3\n      jumpi\n      dup1\n      0x06fdde03\n      eq\n      tag_4\n      jumpi\n      dup1\n      0x081812fc\n      eq\n      tag_5\n      jumpi\n    tag_2:\n      0x00\n      dup1\n      revert\n        /* \"contracts/erc721.sol\":1298:1603  function supportsInterface(bytes4 interfaceId) public view virtual override(ERC165, IERC165) returns (bool) {\r... */\n    tag_3:\n      tag_20\n      0x04\n      dup1\n      calldatasize\n      sub\n      dup2\n      add\n      swap1\n      tag_21\n      swap2\n      swap1\n      tag_22\n      jump\t// in\n    tag_21:\n      tag_23\n      jump\t// in\n    tag_20:\n      mload(0x40)\n      tag_24\n      swap2\n      swap1\n      tag_25\n      jump\t// in\n    tag_24:\n      mload(0x40)\n      dup1\n      swap2\n      sub\n      swap1\n      return\n        /* \"contracts/erc721.sol\":2062:2162  function name() public view virtual override returns (string memory) {\r... */\n    tag_4:\n      tag_26\n      tag_27\n      jump\t// in\n    tag_26:\n      mload(0x40)\n      tag_28\n      swap2\n      swap1\n      tag_29\n      jump\t// in\n    tag_28:\n      mload(0x40)\n      dup1\n      swap2\n      sub\n      swap1\n      return\n        /* \"contracts/erc721.sol\":3107:3278  function getApproved(uint256 tokenId) public view virtual override returns (address) {\r... */\n    tag_5:\n      tag_30\n      0x04\n      dup1\n      calldatasize\n      sub\n      dup2\n      add\n      swap1\n      tag_31\n      swap2\n      swap1\n      tag_32\n      jump\t// in\n    tag_31:\n      tag_33\n      jump\t// in\n    tag_30:\n      mload(0x40)\n      tag_34\n      swap2\n      swap1\n      tag_35\n      jump\t// in\n    tag_34:\n      mload(0x40)\n      dup1\n      swap2\n      sub\n      swap1\n      return\n        /* \"contracts/erc721.sol\":2680:3096  function approve(address to, uint256 tokenId) public virtual override {\r... */\n    tag_6:\n      tag_36\n      0x04\n      dup1\n      calldatasize\n      sub\n      dup2\n      add\n      swap1\n      tag_37\n      swap2\n      swap1\n      tag_38\n      jump\t// in\n    tag_37:\n      tag_39\n      jump\t// in\n    tag_36:\n      stop\n        /* \"contracts/erc721.sol\":3629:3911  function transferFrom(\r... */\n    tag_7:\n      tag_40\n      0x04\n      dup1\n      calldatasize\n      sub\n      dup2\n      add\n      swap1\n      tag_41\n      swap2\n      swap1\n      tag_42\n      jump\t// in\n    tag_41:\n      tag_43\n      jump\t// in\n    tag_40:\n      stop\n        /* \"contracts/erc721.sol\":3921:4106  function safeTransferFrom(\r... */\n    tag_8:\n      tag_44\n      0x04\n      dup1\n      calldatasize\n      sub\n      dup2\n      add\n      swap1\n      tag_45\n      swap2\n      swap1\n      tag_42\n      jump\t// in\n    tag_45:\n      tag_46\n      jump\t// in\n    tag_44:\n      stop\n        /* \"contracts/erc721.sol\":1830:2052  function ownerOf(uint256 tokenId) public view virtual override returns (address) {\r... */\n    tag_9:\n      tag_47\n      0x04\n      dup1\n      calldatasize\n      sub\n      dup2\n      add\n      swap1\n      tag_48\n      swap2\n      swap1\n      tag_32\n      jump\t// in\n    tag_48:\n      tag_49\n      jump\t// in\n    tag_47:\n      mload(0x40)\n      tag_50\n      swap2\n      swap1\n      tag_35\n      jump\t// in\n    tag_50:\n      mload(0x40)\n      dup1\n      swap2\n      sub\n      swap1\n      return\n        /* \"contracts/erc721.sol\":1613:1820  function balanceOf(address owner) public view virtual override returns (uint256) {\r... */\n    tag_10:\n      tag_51\n      0x04\n      dup1\n      calldatasize\n      sub\n      dup2\n      add\n      swap1\n      tag_52\n      swap2\n      swap1\n      tag_53\n      jump\t// in\n    tag_52:\n      tag_54\n      jump\t// in\n    tag_51:\n      mload(0x40)\n      tag_55\n      swap2\n      swap1\n      tag_56\n      jump\t// in\n    tag_55:\n      mload(0x40)\n      dup1\n      swap2\n      sub\n      swap1\n      return\n        /* \"contracts/erc721.sol\":2173:2277  function symbol() public view virtual override returns (string memory) {\r... */\n    tag_11:\n      tag_57\n      tag_58\n      jump\t// in\n    tag_57:\n      mload(0x40)\n      tag_59\n      swap2\n      swap1\n      tag_29\n      jump\t// in\n    tag_59:\n      mload(0x40)\n      dup1\n      swap2\n      sub\n      swap1\n      return\n        /* \"contracts/erc721.sol\":3290:3445  function setApprovalForAll(address operator, bool approved) public virtual override {\r... */\n    tag_12:\n      tag_60\n      0x04\n      dup1\n      calldatasize\n      sub\n      dup2\n      add\n      swap1\n      tag_61\n      swap2\n      swap1\n      tag_62\n      jump\t// in\n    tag_61:\n      tag_63\n      jump\t// in\n    tag_60:\n      stop\n        /* \"contracts/erc721.sol\":4447:4618  function safeMint(address to,address collaborator,uint tokenId,string memory uri) public{\r... */\n    tag_13:\n      tag_64\n      0x04\n      dup1\n      calldatasize\n      sub\n      dup2\n      add\n      swap1\n      tag_65\n      swap2\n      swap1\n      tag_66\n      jump\t// in\n    tag_65:\n      tag_67\n      jump\t// in\n    tag_64:\n      stop\n        /* \"contracts/erc721.sol\":4116:4438  function safeTransferFrom(\r... */\n    tag_14:\n      tag_68\n      0x04\n      dup1\n      calldatasize\n      sub\n      dup2\n      add\n      swap1\n      tag_69\n      swap2\n      swap1\n      tag_70\n      jump\t// in\n    tag_69:\n      tag_71\n      jump\t// in\n    tag_68:\n      stop\n        /* \"contracts/erc721.sol\":2285:2566  function tokenURI(uint256 tokenId) public view virtual override returns (string memory) {\r... */\n    tag_15:\n      tag_72\n      0x04\n      dup1\n      calldatasize\n      sub\n      dup2\n      add\n      swap1\n      tag_73\n      swap2\n      swap1\n      tag_32\n      jump\t// in\n    tag_73:\n      tag_74\n      jump\t// in\n    tag_72:\n      mload(0x40)\n      tag_75\n      swap2\n      swap1\n      tag_29\n      jump\t// in\n    tag_75:\n      mload(0x40)\n      dup1\n      swap2\n      sub\n      swap1\n      return\n        /* \"contracts/erc721.sol\":3455:3619  function isApprovedForAll(address owner, address operator) public view virtual override returns (bool) {\r... */\n    tag_16:\n      tag_76\n      0x04\n      dup1\n      calldatasize\n      sub\n      dup2\n      add\n      swap1\n      tag_77\n      swap2\n      swap1\n      tag_78\n      jump\t// in\n    tag_77:\n      tag_79\n      jump\t// in\n    tag_76:\n      mload(0x40)\n      tag_80\n      swap2\n      swap1\n      tag_25\n      jump\t// in\n    tag_80:\n      mload(0x40)\n      dup1\n      swap2\n      sub\n      swap1\n      return\n        /* \"contracts/erc721.sol\":1298:1603  function supportsInterface(bytes4 interfaceId) public view virtual override(ERC165, IERC165) returns (bool) {\r... */\n    tag_23:\n        /* \"contracts/erc721.sol\":1400:1404  bool */\n      0x00\n        /* \"contracts/erc721.sol\":1452:1477  type(IERC721).interfaceId */\n      0x80ac58cd00000000000000000000000000000000000000000000000000000000\n        /* \"contracts/erc721.sol\":1437:1477  interfaceId == type(IERC721).interfaceId */\n      not(0xffffffffffffffffffffffffffffffffffffffffffffffffffffffff)\n      and\n        /* \"contracts/erc721.sol\":1437:1448  interfaceId */\n      dup3\n        /* \"contracts/erc721.sol\":1437:1477  interfaceId == type(IERC721).interfaceId */\n      not(0xffffffffffffffffffffffffffffffffffffffffffffffffffffffff)\n      and\n      eq\n        /* \"contracts/erc721.sol\":1437:1542  interfaceId == type(IERC721).interfaceId ||\r... */\n      dup1\n      tag_82\n      jumpi\n      pop\n        /* \"contracts/erc721.sol\":1509:1542  type(IERC721Metadata).interfaceId */\n      0x5b5e139f00000000000000000000000000000000000000000000000000000000\n        /* \"contracts/erc721.sol\":1494:1542  interfaceId == type(IERC721Metadata).interfaceId */\n      not(0xffffffffffffffffffffffffffffffffffffffffffffffffffffffff)\n      and\n        /* \"contracts/erc721.sol\":1494:1505  interfaceId */\n      dup3\n        /* \"contracts/erc721.sol\":1494:1542  interfaceId == type(IERC721Metadata).interfaceId */\n      not(0xffffffffffffffffffffffffffffffffffffffffffffffffffffffff)\n      and\n      eq\n        /* \"contracts/erc721.sol\":1437:1542  interfaceId == type(IERC721).interfaceId ||\r... */\n    tag_82:\n        /* \"contracts/erc721.sol\":1437:1595  interfaceId == type(IERC721).interfaceId ||\r... */\n      dup1\n      tag_83\n      jumpi\n      pop\n        /* \"contracts/erc721.sol\":1559:1595  super.supportsInterface(interfaceId) */\n      tag_84\n        /* \"contracts/erc721.sol\":1583:1594  interfaceId */\n      dup3\n        /* \"contracts/erc721.sol\":1559:1582  super.supportsInterface */\n      tag_85\n        /* \"contracts/erc721.sol\":1559:1595  super.supportsInterface(interfaceId) */\n      jump\t// in\n    tag_84:\n        /* \"contracts/erc721.sol\":1437:1595  interfaceId == type(IERC721).interfaceId ||\r... */\n    tag_83:\n        /* \"contracts/erc721.sol\":1417:1595  return\r... */\n      swap1\n      pop\n        /* \"contracts/erc721.sol\":1298:1603  function supportsInterface(bytes4 interfaceId) public view virtual override(ERC165, IERC165) returns (bool) {\r... */\n      swap2\n      swap1\n      pop\n      jump\t// out\n        /* \"contracts/erc721.sol\":2062:2162  function name() public view virtual override returns (string memory) {\r... */\n    tag_27:\n        /* \"contracts/erc721.sol\":2116:2129  string memory */\n      0x60\n        /* \"contracts/erc721.sol\":2149:2154  _name */\n      0x00\n        /* \"contracts/erc721.sol\":2142:2154  return _name */\n      dup1\n      sload\n      tag_87\n      swap1\n      tag_88\n      jump\t// in\n    tag_87:\n      dup1\n      0x1f\n      add\n      0x20\n      dup1\n      swap2\n      div\n      mul\n      0x20\n      add\n      mload(0x40)\n      swap1\n      dup2\n      add\n      0x40\n      mstore\n      dup1\n      swap3\n      swap2\n      swap1\n      dup2\n      dup2\n      mstore\n      0x20\n      add\n      dup3\n      dup1\n      sload\n      tag_89\n      swap1\n      tag_88\n      jump\t// in\n    tag_89:\n      dup1\n      iszero\n      tag_90\n      jumpi\n      dup1\n      0x1f\n      lt\n      tag_91\n      jumpi\n      0x0100\n      dup1\n      dup4\n      sload\n      div\n      mul\n      dup4\n      mstore\n      swap2\n      0x20\n      add\n      swap2\n      jump(tag_90)\n    tag_91:\n      dup3\n      add\n      swap2\n      swap1\n      0x00\n      mstore\n      keccak256(0x00, 0x20)\n      swap1\n    tag_92:\n      dup2\n      sload\n      dup2\n      mstore\n      swap1\n      0x01\n      add\n      swap1\n      0x20\n      add\n      dup1\n      dup4\n      gt\n      tag_92\n      jumpi\n      dup3\n      swap1\n      sub\n      0x1f\n      and\n      dup3\n      add\n      swap2\n    tag_90:\n      pop\n      pop\n      pop\n      pop\n      pop\n      swap1\n      pop\n        /* \"contracts/erc721.sol\":2062:2162  function name() public view virtual override returns (string memory) {\r... */\n      swap1\n      jump\t// out\n        /* \"contracts/erc721.sol\":3107:3278  function getApproved(uint256 tokenId) public view virtual override returns (address) {\r... */\n    tag_33:\n        /* \"contracts/erc721.sol\":3183:3190  address */\n      0x00\n        /* \"contracts/erc721.sol\":3203:3226  _requireMinted(tokenId) */\n      tag_94\n        /* \"contracts/erc721.sol\":3218:3225  tokenId */\n      dup3\n        /* \"contracts/erc721.sol\":3203:3217  _requireMinted */\n      tag_95\n        /* \"contracts/erc721.sol\":3203:3226  _requireMinted(tokenId) */\n      jump\t// in\n    tag_94:\n        /* \"contracts/erc721.sol\":3246:3261  _tokenApprovals */\n      0x05\n        /* \"contracts/erc721.sol\":3246:3270  _tokenApprovals[tokenId] */\n      0x00\n        /* \"contracts/erc721.sol\":3262:3269  tokenId */\n      dup4\n        /* \"contracts/erc721.sol\":3246:3270  _tokenApprovals[tokenId] */\n      dup2\n      mstore\n      0x20\n      add\n      swap1\n      dup2\n      mstore\n      0x20\n      add\n      0x00\n      keccak256\n      0x00\n      swap1\n      sload\n      swap1\n      0x0100\n      exp\n      swap1\n      div\n      0xffffffffffffffffffffffffffffffffffffffff\n      and\n        /* \"contracts/erc721.sol\":3239:3270  return _tokenApprovals[tokenId] */\n      swap1\n      pop\n        /* \"contracts/erc721.sol\":3107:3278  function getApproved(uint256 tokenId) public view virtual override returns (address) {\r... */\n      swap2\n      swap1\n      pop\n      jump\t// out\n        /* \"contracts/erc721.sol\":2680:3096  function approve(address to, uint256 tokenId) public virtual override {\r... */\n    tag_39:\n        /* \"contracts/erc721.sol\":2761:2774  address owner */\n      0x00\n        /* \"contracts/erc721.sol\":2777:2800  ERC721.ownerOf(tokenId) */\n      tag_97\n        /* \"contracts/erc721.sol\":2792:2799  tokenId */\n      dup3\n        /* \"contracts/erc721.sol\":2777:2791  ERC721.ownerOf */\n      tag_49\n        /* \"contracts/erc721.sol\":2777:2800  ERC721.ownerOf(tokenId) */\n      jump\t// in\n    tag_97:\n        /* \"contracts/erc721.sol\":2761:2800  address owner = ERC721.ownerOf(tokenId) */\n      swap1\n      pop\n        /* \"contracts/erc721.sol\":2825:2830  owner */\n      dup1\n        /* \"contracts/erc721.sol\":2819:2830  to != owner */\n      0xffffffffffffffffffffffffffffffffffffffff\n      and\n        /* \"contracts/erc721.sol\":2819:2821  to */\n      dup4\n        /* \"contracts/erc721.sol\":2819:2830  to != owner */\n      0xffffffffffffffffffffffffffffffffffffffff\n      and\n      eq\n      iszero\n        /* \"contracts/erc721.sol\":2811:2868  require(to != owner, \"ERC721: approval to current owner\") */\n      tag_98\n      jumpi\n      mload(0x40)\n      0x08c379a000000000000000000000000000000000000000000000000000000000\n      dup2\n      mstore\n      0x04\n      add\n      tag_99\n      swap1\n      tag_100\n      jump\t// in\n    tag_99:\n      mload(0x40)\n      dup1\n      swap2\n      sub\n      swap1\n      revert\n    tag_98:\n        /* \"contracts/erc721.sol\":2919:2924  owner */\n      dup1\n        /* \"contracts/erc721.sol\":2903:2924  _msgSender() == owner */\n      0xffffffffffffffffffffffffffffffffffffffff\n      and\n        /* \"contracts/erc721.sol\":2903:2915  _msgSender() */\n      tag_101\n        /* \"contracts/erc721.sol\":2903:2913  _msgSender */\n      tag_102\n        /* \"contracts/erc721.sol\":2903:2915  _msgSender() */\n      jump\t// in\n    tag_101:\n        /* \"contracts/erc721.sol\":2903:2924  _msgSender() == owner */\n      0xffffffffffffffffffffffffffffffffffffffff\n      and\n      eq\n        /* \"contracts/erc721.sol\":2903:2965  _msgSender() == owner || isApprovedForAll(owner, _msgSender()) */\n      dup1\n      tag_103\n      jumpi\n      pop\n        /* \"contracts/erc721.sol\":2928:2965  isApprovedForAll(owner, _msgSender()) */\n      tag_104\n        /* \"contracts/erc721.sol\":2945:2950  owner */\n      dup2\n        /* \"contracts/erc721.sol\":2952:2964  _msgSender() */\n      tag_105\n        /* \"contracts/erc721.sol\":2952:2962  _msgSender */\n      tag_102\n        /* \"contracts/erc721.sol\":2952:2964  _msgSender() */\n      jump\t// in\n    tag_105:\n        /* \"contracts/erc721.sol\":2928:2944  isApprovedForAll */\n      tag_79\n        /* \"contracts/erc721.sol\":2928:2965  isApprovedForAll(owner, _msgSender()) */\n      jump\t// in\n    tag_104:\n        /* \"contracts/erc721.sol\":2903:2965  _msgSender() == owner || isApprovedForAll(owner, _msgSender()) */\n    tag_103:\n        /* \"contracts/erc721.sol\":2881:3054  require(\r... */\n      tag_106\n      jumpi\n      mload(0x40)\n      0x08c379a000000000000000000000000000000000000000000000000000000000\n      dup2\n      mstore\n      0x04\n      add\n      tag_107\n      swap1\n      tag_108\n      jump\t// in\n    tag_107:\n      mload(0x40)\n      dup1\n      swap2\n      sub\n      swap1\n      revert\n    tag_106:\n        /* \"contracts/erc721.sol\":3067:3088  _approve(to, tokenId) */\n      tag_109\n        /* \"contracts/erc721.sol\":3076:3078  to */\n      dup4\n        /* \"contracts/erc721.sol\":3080:3087  tokenId */\n      dup4\n        /* \"contracts/erc721.sol\":3067:3075  _approve */\n      tag_110\n        /* \"contracts/erc721.sol\":3067:3088  _approve(to, tokenId) */\n      jump\t// in\n    tag_109:\n        /* \"contracts/erc721.sol\":2680:3096  function approve(address to, uint256 tokenId) public virtual override {\r... */\n      pop\n      pop\n      pop\n      jump\t// out\n        /* \"contracts/erc721.sol\":3629:3911  function transferFrom(\r... */\n    tag_43:\n        /* \"contracts/erc721.sol\":3771:3812  _isApprovedOrOwner(_msgSender(), tokenId) */\n      tag_112\n        /* \"contracts/erc721.sol\":3790:3802  _msgSender() */\n      tag_113\n        /* \"contracts/erc721.sol\":3790:3800  _msgSender */\n      tag_102\n        /* \"contracts/erc721.sol\":3790:3802  _msgSender() */\n      jump\t// in\n    tag_113:\n        /* \"contracts/erc721.sol\":3804:3811  tokenId */\n      dup3\n        /* \"contracts/erc721.sol\":3771:3789  _isApprovedOrOwner */\n      tag_114\n        /* \"contracts/erc721.sol\":3771:3812  _isApprovedOrOwner(_msgSender(), tokenId) */\n      jump\t// in\n    tag_112:\n        /* \"contracts/erc721.sol\":3763:3862  require(_isApprovedOrOwner(_msgSender(), tokenId), \"ERC721: caller is not token owner or approved\") */\n      tag_115\n      jumpi\n      mload(0x40)\n      0x08c379a000000000000000000000000000000000000000000000000000000000\n      dup2\n      mstore\n      0x04\n      add\n      tag_116\n      swap1\n      tag_117\n      jump\t// in\n    tag_116:\n      mload(0x40)\n      dup1\n      swap2\n      sub\n      swap1\n      revert\n    tag_115:\n        /* \"contracts/erc721.sol\":3875:3903  _transfer(from, to, tokenId) */\n      tag_118\n        /* \"contracts/erc721.sol\":3885:3889  from */\n      dup4\n        /* \"contracts/erc721.sol\":3891:3893  to */\n      dup4\n        /* \"contracts/erc721.sol\":3895:3902  tokenId */\n      dup4\n        /* \"contracts/erc721.sol\":3875:3884  _transfer */\n      tag_119\n        /* \"contracts/erc721.sol\":3875:3903  _transfer(from, to, tokenId) */\n      jump\t// in\n    tag_118:\n        /* \"contracts/erc721.sol\":3629:3911  function transferFrom(\r... */\n      pop\n      pop\n      pop\n      jump\t// out\n        /* \"contracts/erc721.sol\":3921:4106  function safeTransferFrom(\r... */\n    tag_46:\n        /* \"contracts/erc721.sol\":4059:4098  safeTransferFrom(from, to, tokenId, \"\") */\n      tag_121\n        /* \"contracts/erc721.sol\":4076:4080  from */\n      dup4\n        /* \"contracts/erc721.sol\":4082:4084  to */\n      dup4\n        /* \"contracts/erc721.sol\":4086:4093  tokenId */\n      dup4\n        /* \"contracts/erc721.sol\":4059:4098  safeTransferFrom(from, to, tokenId, \"\") */\n      mload(0x40)\n      dup1\n      0x20\n      add\n      0x40\n      mstore\n      dup1\n      0x00\n      dup2\n      mstore\n      pop\n        /* \"contracts/erc721.sol\":4059:4075  safeTransferFrom */\n      tag_71\n        /* \"contracts/erc721.sol\":4059:4098  safeTransferFrom(from, to, tokenId, \"\") */\n      jump\t// in\n    tag_121:\n        /* \"contracts/erc721.sol\":3921:4106  function safeTransferFrom(\r... */\n      pop\n      pop\n      pop\n      jump\t// out\n        /* \"contracts/erc721.sol\":1830:2052  function ownerOf(uint256 tokenId) public view virtual override returns (address) {\r... */\n    tag_49:\n        /* \"contracts/erc721.sol\":1902:1909  address */\n      0x00\n        /* \"contracts/erc721.sol\":1922:1935  address owner */\n      dup1\n        /* \"contracts/erc721.sol\":1938:1945  _owners */\n      0x02\n        /* \"contracts/erc721.sol\":1938:1954  _owners[tokenId] */\n      0x00\n        /* \"contracts/erc721.sol\":1946:1953  tokenId */\n      dup5\n        /* \"contracts/erc721.sol\":1938:1954  _owners[tokenId] */\n      dup2\n      mstore\n      0x20\n      add\n      swap1\n      dup2\n      mstore\n      0x20\n      add\n      0x00\n      keccak256\n      0x00\n      swap1\n      sload\n      swap1\n      0x0100\n      exp\n      swap1\n      div\n      0xffffffffffffffffffffffffffffffffffffffff\n      and\n        /* \"contracts/erc721.sol\":1922:1954  address owner = _owners[tokenId] */\n      swap1\n      pop\n        /* \"contracts/erc721.sol\":1990:1991  0 */\n      0x00\n        /* \"contracts/erc721.sol\":1973:1992  owner != address(0) */\n      0xffffffffffffffffffffffffffffffffffffffff\n      and\n        /* \"contracts/erc721.sol\":1973:1978  owner */\n      dup2\n        /* \"contracts/erc721.sol\":1973:1992  owner != address(0) */\n      0xffffffffffffffffffffffffffffffffffffffff\n      and\n      eq\n      iszero\n        /* \"contracts/erc721.sol\":1965:2021  require(owner != address(0), \"ERC721: invalid token ID\") */\n      tag_123\n      jumpi\n      mload(0x40)\n      0x08c379a000000000000000000000000000000000000000000000000000000000\n      dup2\n      mstore\n      0x04\n      add\n      tag_124\n      swap1\n      tag_125\n      jump\t// in\n    tag_124:\n      mload(0x40)\n      dup1\n      swap2\n      sub\n      swap1\n      revert\n    tag_123:\n        /* \"contracts/erc721.sol\":2039:2044  owner */\n      dup1\n        /* \"contracts/erc721.sol\":2032:2044  return owner */\n      swap2\n      pop\n      pop\n        /* \"contracts/erc721.sol\":1830:2052  function ownerOf(uint256 tokenId) public view virtual override returns (address) {\r... */\n      swap2\n      swap1\n      pop\n      jump\t// out\n        /* \"contracts/erc721.sol\":1613:1820  function balanceOf(address owner) public view virtual override returns (uint256) {\r... */\n    tag_54:\n        /* \"contracts/erc721.sol\":1685:1692  uint256 */\n      0x00\n        /* \"contracts/erc721.sol\":1730:1731  0 */\n      dup1\n        /* \"contracts/erc721.sol\":1713:1732  owner != address(0) */\n      0xffffffffffffffffffffffffffffffffffffffff\n      and\n        /* \"contracts/erc721.sol\":1713:1718  owner */\n      dup3\n        /* \"contracts/erc721.sol\":1713:1732  owner != address(0) */\n      0xffffffffffffffffffffffffffffffffffffffff\n      and\n      eq\n      iszero\n        /* \"contracts/erc721.sol\":1705:1778  require(owner != address(0), \"ERC721: address zero is not a valid owner\") */\n      tag_127\n      jumpi\n      mload(0x40)\n      0x08c379a000000000000000000000000000000000000000000000000000000000\n      dup2\n      mstore\n      0x04\n      add\n      tag_128\n      swap1\n      tag_129\n      jump\t// in\n    tag_128:\n      mload(0x40)\n      dup1\n      swap2\n      sub\n      swap1\n      revert\n    tag_127:\n        /* \"contracts/erc721.sol\":1796:1805  _balances */\n      0x04\n        /* \"contracts/erc721.sol\":1796:1812  _balances[owner] */\n      0x00\n        /* \"contracts/erc721.sol\":1806:1811  owner */\n      dup4\n        /* \"contracts/erc721.sol\":1796:1812  _balances[owner] */\n      0xffffffffffffffffffffffffffffffffffffffff\n      and\n      0xffffffffffffffffffffffffffffffffffffffff\n      and\n      dup2\n      mstore\n      0x20\n      add\n      swap1\n      dup2\n      mstore\n      0x20\n      add\n      0x00\n      keccak256\n      sload\n        /* \"contracts/erc721.sol\":1789:1812  return _balances[owner] */\n      swap1\n      pop\n        /* \"contracts/erc721.sol\":1613:1820  function balanceOf(address owner) public view virtual override returns (uint256) {\r... */\n      swap2\n      swap1\n      pop\n      jump\t// out\n        /* \"contracts/erc721.sol\":2173:2277  function symbol() public view virtual override returns (string memory) {\r... */\n    tag_58:\n        /* \"contracts/erc721.sol\":2229:2242  string memory */\n      0x60\n        /* \"contracts/erc721.sol\":2262:2269  _symbol */\n      0x01\n        /* \"contracts/erc721.sol\":2255:2269  return _symbol */\n      dup1\n      sload\n      tag_131\n      swap1\n      tag_88\n      jump\t// in\n    tag_131:\n      dup1\n      0x1f\n      add\n      0x20\n      dup1\n      swap2\n      div\n      mul\n      0x20\n      add\n      mload(0x40)\n      swap1\n      dup2\n      add\n      0x40\n      mstore\n      dup1\n      swap3\n      swap2\n      swap1\n      dup2\n      dup2\n      mstore\n      0x20\n      add\n      dup3\n      dup1\n      sload\n      tag_132\n      swap1\n      tag_88\n      jump\t// in\n    tag_132:\n      dup1\n      iszero\n      tag_133\n      jumpi\n      dup1\n      0x1f\n      lt\n      tag_134\n      jumpi\n      0x0100\n      dup1\n      dup4\n      sload\n      div\n      mul\n      dup4\n      mstore\n      swap2\n      0x20\n      add\n      swap2\n      jump(tag_133)\n    tag_134:\n      dup3\n      add\n      swap2\n      swap1\n      0x00\n      mstore\n      keccak256(0x00, 0x20)\n      swap1\n    tag_135:\n      dup2\n      sload\n      dup2\n      mstore\n      swap1\n      0x01\n      add\n      swap1\n      0x20\n      add\n      dup1\n      dup4\n      gt\n      tag_135\n      jumpi\n      dup3\n      swap1\n      sub\n      0x1f\n      and\n      dup3\n      add\n      swap2\n    tag_133:\n      pop\n      pop\n      pop\n      pop\n      pop\n      swap1\n      pop\n        /* \"contracts/erc721.sol\":2173:2277  function symbol() public view virtual override returns (string memory) {\r... */\n      swap1\n      jump\t// out\n        /* \"contracts/erc721.sol\":3290:3445  function setApprovalForAll(address operator, bool approved) public virtual override {\r... */\n    tag_63:\n        /* \"contracts/erc721.sol\":3385:3437  _setApprovalForAll(_msgSender(), operator, approved) */\n      tag_137\n        /* \"contracts/erc721.sol\":3404:3416  _msgSender() */\n      tag_138\n        /* \"contracts/erc721.sol\":3404:3414  _msgSender */\n      tag_102\n        /* \"contracts/erc721.sol\":3404:3416  _msgSender() */\n      jump\t// in\n    tag_138:\n        /* \"contracts/erc721.sol\":3418:3426  operator */\n      dup4\n        /* \"contracts/erc721.sol\":3428:3436  approved */\n      dup4\n        /* \"contracts/erc721.sol\":3385:3403  _setApprovalForAll */\n      tag_139\n        /* \"contracts/erc721.sol\":3385:3437  _setApprovalForAll(_msgSender(), operator, approved) */\n      jump\t// in\n    tag_137:\n        /* \"contracts/erc721.sol\":3290:3445  function setApprovalForAll(address operator, bool approved) public virtual override {\r... */\n      pop\n      pop\n      jump\t// out\n        /* \"contracts/erc721.sol\":4447:4618  function safeMint(address to,address collaborator,uint tokenId,string memory uri) public{\r... */\n    tag_67:\n        /* \"contracts/erc721.sol\":4546:4582  _safeMint(to, collaborator, tokenId) */\n      tag_141\n        /* \"contracts/erc721.sol\":4556:4558  to */\n      dup5\n        /* \"contracts/erc721.sol\":4560:4572  collaborator */\n      dup5\n        /* \"contracts/erc721.sol\":4574:4581  tokenId */\n      dup5\n        /* \"contracts/erc721.sol\":4546:4555  _safeMint */\n      tag_142\n        /* \"contracts/erc721.sol\":4546:4582  _safeMint(to, collaborator, tokenId) */\n      jump\t// in\n    tag_141:\n        /* \"contracts/erc721.sol\":4593:4610  tokenURI(tokenId) */\n      tag_143\n        /* \"contracts/erc721.sol\":4602:4609  tokenId */\n      dup3\n        /* \"contracts/erc721.sol\":4593:4601  tokenURI */\n      tag_74\n        /* \"contracts/erc721.sol\":4593:4610  tokenURI(tokenId) */\n      jump\t// in\n    tag_143:\n      pop\n        /* \"contracts/erc721.sol\":4447:4618  function safeMint(address to,address collaborator,uint tokenId,string memory uri) public{\r... */\n      pop\n      pop\n      pop\n      pop\n      jump\t// out\n        /* \"contracts/erc721.sol\":4116:4438  function safeTransferFrom(\r... */\n    tag_71:\n        /* \"contracts/erc721.sol\":4290:4331  _isApprovedOrOwner(_msgSender(), tokenId) */\n      tag_145\n        /* \"contracts/erc721.sol\":4309:4321  _msgSender() */\n      tag_146\n        /* \"contracts/erc721.sol\":4309:4319  _msgSender */\n      tag_102\n        /* \"contracts/erc721.sol\":4309:4321  _msgSender() */\n      jump\t// in\n    tag_146:\n        /* \"contracts/erc721.sol\":4323:4330  tokenId */\n      dup4\n        /* \"contracts/erc721.sol\":4290:4308  _isApprovedOrOwner */\n      tag_114\n        /* \"contracts/erc721.sol\":4290:4331  _isApprovedOrOwner(_msgSender(), tokenId) */\n      jump\t// in\n    tag_145:\n        /* \"contracts/erc721.sol\":4282:4381  require(_isApprovedOrOwner(_msgSender(), tokenId), \"ERC721: caller is not token owner or approved\") */\n      tag_147\n      jumpi\n      mload(0x40)\n      0x08c379a000000000000000000000000000000000000000000000000000000000\n      dup2\n      mstore\n      0x04\n      add\n      tag_148\n      swap1\n      tag_117\n      jump\t// in\n    tag_148:\n      mload(0x40)\n      dup1\n      swap2\n      sub\n      swap1\n      revert\n    tag_147:\n        /* \"contracts/erc721.sol\":4392:4430  _safeTransfer(from, to, tokenId, data) */\n      tag_149\n        /* \"contracts/erc721.sol\":4406:4410  from */\n      dup5\n        /* \"contracts/erc721.sol\":4412:4414  to */\n      dup5\n        /* \"contracts/erc721.sol\":4416:4423  tokenId */\n      dup5\n        /* \"contracts/erc721.sol\":4425:4429  data */\n      dup5\n        /* \"contracts/erc721.sol\":4392:4405  _safeTransfer */\n      tag_150\n        /* \"contracts/erc721.sol\":4392:4430  _safeTransfer(from, to, tokenId, data) */\n      jump\t// in\n    tag_149:\n        /* \"contracts/erc721.sol\":4116:4438  function safeTransferFrom(\r... */\n      pop\n      pop\n      pop\n      pop\n      jump\t// out\n        /* \"contracts/erc721.sol\":2285:2566  function tokenURI(uint256 tokenId) public view virtual override returns (string memory) {\r... */\n    tag_74:\n        /* \"contracts/erc721.sol\":2358:2371  string memory */\n      0x60\n        /* \"contracts/erc721.sol\":2384:2407  _requireMinted(tokenId) */\n      tag_152\n        /* \"contracts/erc721.sol\":2399:2406  tokenId */\n      dup3\n        /* \"contracts/erc721.sol\":2384:2398  _requireMinted */\n      tag_95\n        /* \"contracts/erc721.sol\":2384:2407  _requireMinted(tokenId) */\n      jump\t// in\n    tag_152:\n        /* \"contracts/erc721.sol\":2420:2441  string memory baseURI */\n      0x00\n        /* \"contracts/erc721.sol\":2444:2454  _baseURI() */\n      tag_153\n        /* \"contracts/erc721.sol\":2444:2452  _baseURI */\n      tag_154\n        /* \"contracts/erc721.sol\":2444:2454  _baseURI() */\n      jump\t// in\n    tag_153:\n        /* \"contracts/erc721.sol\":2420:2454  string memory baseURI = _baseURI() */\n      swap1\n      pop\n        /* \"contracts/erc721.sol\":2496:2497  0 */\n      0x00\n        /* \"contracts/erc721.sol\":2478:2485  baseURI */\n      dup2\n        /* \"contracts/erc721.sol\":2472:2493  bytes(baseURI).length */\n      mload\n        /* \"contracts/erc721.sol\":2472:2497  bytes(baseURI).length > 0 */\n      gt\n        /* \"contracts/erc721.sol\":2472:2558  bytes(baseURI).length > 0 ? string(abi.encodePacked(baseURI, tokenId.toString())) : \"\" */\n      tag_155\n      jumpi\n      mload(0x40)\n      dup1\n      0x20\n      add\n      0x40\n      mstore\n      dup1\n      0x00\n      dup2\n      mstore\n      pop\n      jump(tag_156)\n    tag_155:\n        /* \"contracts/erc721.sol\":2524:2531  baseURI */\n      dup1\n        /* \"contracts/erc721.sol\":2533:2551  tokenId.toString() */\n      tag_157\n        /* \"contracts/erc721.sol\":2533:2540  tokenId */\n      dup5\n        /* \"contracts/erc721.sol\":2533:2549  tokenId.toString */\n      tag_158\n        /* \"contracts/erc721.sol\":2533:2551  tokenId.toString() */\n      jump\t// in\n    tag_157:\n        /* \"contracts/erc721.sol\":2507:2552  abi.encodePacked(baseURI, tokenId.toString()) */\n      add(0x20, mload(0x40))\n      tag_159\n      swap3\n      swap2\n      swap1\n      tag_160\n      jump\t// in\n    tag_159:\n      mload(0x40)\n      0x20\n      dup2\n      dup4\n      sub\n      sub\n      dup2\n      mstore\n      swap1\n      0x40\n      mstore\n        /* \"contracts/erc721.sol\":2472:2558  bytes(baseURI).length > 0 ? string(abi.encodePacked(baseURI, tokenId.toString())) : \"\" */\n    tag_156:\n        /* \"contracts/erc721.sol\":2465:2558  return bytes(baseURI).length > 0 ? string(abi.encodePacked(baseURI, tokenId.toString())) : \"\" */\n      swap2\n      pop\n      pop\n        /* \"contracts/erc721.sol\":2285:2566  function tokenURI(uint256 tokenId) public view virtual override returns (string memory) {\r... */\n      swap2\n      swap1\n      pop\n      jump\t// out\n        /* \"contracts/erc721.sol\":3455:3619  function isApprovedForAll(address owner, address operator) public view virtual override returns (bool) {\r... */\n    tag_79:\n        /* \"contracts/erc721.sol\":3552:3556  bool */\n      0x00\n        /* \"contracts/erc721.sol\":3576:3594  _operatorApprovals */\n      0x06\n        /* \"contracts/erc721.sol\":3576:3601  _operatorApprovals[owner] */\n      0x00\n        /* \"contracts/erc721.sol\":3595:3600  owner */\n      dup5\n        /* \"contracts/erc721.sol\":3576:3601  _operatorApprovals[owner] */\n      0xffffffffffffffffffffffffffffffffffffffff\n      and\n      0xffffffffffffffffffffffffffffffffffffffff\n      and\n      dup2\n      mstore\n      0x20\n      add\n      swap1\n      dup2\n      mstore\n      0x20\n      add\n      0x00\n      keccak256\n        /* \"contracts/erc721.sol\":3576:3611  _operatorApprovals[owner][operator] */\n      0x00\n        /* \"contracts/erc721.sol\":3602:3610  operator */\n      dup4\n        /* \"contracts/erc721.sol\":3576:3611  _operatorApprovals[owner][operator] */\n      0xffffffffffffffffffffffffffffffffffffffff\n      and\n      0xffffffffffffffffffffffffffffffffffffffff\n      and\n      dup2\n      mstore\n      0x20\n      add\n      swap1\n      dup2\n      mstore\n      0x20\n      add\n      0x00\n      keccak256\n      0x00\n      swap1\n      sload\n      swap1\n      0x0100\n      exp\n      swap1\n      div\n      0xff\n      and\n        /* \"contracts/erc721.sol\":3569:3611  return _operatorApprovals[owner][operator] */\n      swap1\n      pop\n        /* \"contracts/erc721.sol\":3455:3619  function isApprovedForAll(address owner, address operator) public view virtual override returns (bool) {\r... */\n      swap3\n      swap2\n      pop\n      pop\n      jump\t// out\n        /* \"@openzeppelin/contracts@4.6.0/utils/introspection/ERC165.sol\":829:984  function supportsInterface(bytes4 interfaceId) public view virtual override returns (bool) {... */\n    tag_85:\n        /* \"@openzeppelin/contracts@4.6.0/utils/introspection/ERC165.sol\":914:918  bool */\n      0x00\n        /* \"@openzeppelin/contracts@4.6.0/utils/introspection/ERC165.sol\":952:977  type(IERC165).interfaceId */\n      0x01ffc9a700000000000000000000000000000000000000000000000000000000\n        /* \"@openzeppelin/contracts@4.6.0/utils/introspection/ERC165.sol\":937:977  interfaceId == type(IERC165).interfaceId */\n      not(0xffffffffffffffffffffffffffffffffffffffffffffffffffffffff)\n      and\n        /* \"@openzeppelin/contracts@4.6.0/utils/introspection/ERC165.sol\":937:948  interfaceId */\n      dup3\n        /* \"@openzeppelin/contracts@4.6.0/utils/introspection/ERC165.sol\":937:977  interfaceId == type(IERC165).interfaceId */\n      not(0xffffffffffffffffffffffffffffffffffffffffffffffffffffffff)\n      and\n      eq\n        /* \"@openzeppelin/contracts@4.6.0/utils/introspection/ERC165.sol\":930:977  return interfaceId == type(IERC165).interfaceId */\n      swap1\n      pop\n        /* \"@openzeppelin/contracts@4.6.0/utils/introspection/ERC165.sol\":829:984  function supportsInterface(bytes4 interfaceId) public view virtual override returns (bool) {... */\n      swap2\n      swap1\n      pop\n      jump\t// out\n        /* \"contracts/erc721.sol\":8449:8584  function _requireMinted(uint256 tokenId) internal view virtual {\r... */\n    tag_95:\n        /* \"contracts/erc721.sol\":8531:8547  _exists(tokenId) */\n      tag_164\n        /* \"contracts/erc721.sol\":8539:8546  tokenId */\n      dup2\n        /* \"contracts/erc721.sol\":8531:8538  _exists */\n      tag_165\n        /* \"contracts/erc721.sol\":8531:8547  _exists(tokenId) */\n      jump\t// in\n    tag_164:\n        /* \"contracts/erc721.sol\":8523:8576  require(_exists(tokenId), \"ERC721: invalid token ID\") */\n      tag_166\n      jumpi\n      mload(0x40)\n      0x08c379a000000000000000000000000000000000000000000000000000000000\n      dup2\n      mstore\n      0x04\n      add\n      tag_167\n      swap1\n      tag_125\n      jump\t// in\n    tag_167:\n      mload(0x40)\n      dup1\n      swap2\n      sub\n      swap1\n      revert\n    tag_166:\n        /* \"contracts/erc721.sol\":8449:8584  function _requireMinted(uint256 tokenId) internal view virtual {\r... */\n      pop\n      jump\t// out\n        /* \"@openzeppelin/contracts@4.6.0/utils/Context.sol\":640:736  function _msgSender() internal view virtual returns (address) {... */\n    tag_102:\n        /* \"@openzeppelin/contracts@4.6.0/utils/Context.sol\":693:700  address */\n      0x00\n        /* \"@openzeppelin/contracts@4.6.0/utils/Context.sol\":719:729  msg.sender */\n      caller\n        /* \"@openzeppelin/contracts@4.6.0/utils/Context.sol\":712:729  return msg.sender */\n      swap1\n      pop\n        /* \"@openzeppelin/contracts@4.6.0/utils/Context.sol\":640:736  function _msgSender() internal view virtual returns (address) {... */\n      swap1\n      jump\t// out\n        /* \"contracts/erc721.sol\":7944:8118  function _approve(address to, uint256 tokenId) internal virtual {\r... */\n    tag_110:\n        /* \"contracts/erc721.sol\":8046:8048  to */\n      dup2\n        /* \"contracts/erc721.sol\":8019:8034  _tokenApprovals */\n      0x05\n        /* \"contracts/erc721.sol\":8019:8043  _tokenApprovals[tokenId] */\n      0x00\n        /* \"contracts/erc721.sol\":8035:8042  tokenId */\n      dup4\n        /* \"contracts/erc721.sol\":8019:8043  _tokenApprovals[tokenId] */\n      dup2\n      mstore\n      0x20\n      add\n      swap1\n      dup2\n      mstore\n      0x20\n      add\n      0x00\n      keccak256\n      0x00\n        /* \"contracts/erc721.sol\":8019:8048  _tokenApprovals[tokenId] = to */\n      0x0100\n      exp\n      dup2\n      sload\n      dup2\n      0xffffffffffffffffffffffffffffffffffffffff\n      mul\n      not\n      and\n      swap1\n      dup4\n      0xffffffffffffffffffffffffffffffffffffffff\n      and\n      mul\n      or\n      swap1\n      sstore\n      pop\n        /* \"contracts/erc721.sol\":8102:8109  tokenId */\n      dup1\n        /* \"contracts/erc721.sol\":8098:8100  to */\n      dup3\n        /* \"contracts/erc721.sol\":8064:8110  Approval(ERC721.ownerOf(tokenId), to, tokenId) */\n      0xffffffffffffffffffffffffffffffffffffffff\n      and\n        /* \"contracts/erc721.sol\":8073:8096  ERC721.ownerOf(tokenId) */\n      tag_170\n        /* \"contracts/erc721.sol\":8088:8095  tokenId */\n      dup4\n        /* \"contracts/erc721.sol\":8073:8087  ERC721.ownerOf */\n      tag_49\n        /* \"contracts/erc721.sol\":8073:8096  ERC721.ownerOf(tokenId) */\n      jump\t// in\n    tag_170:\n        /* \"contracts/erc721.sol\":8064:8110  Approval(ERC721.ownerOf(tokenId), to, tokenId) */\n      0xffffffffffffffffffffffffffffffffffffffff\n      and\n      0x8c5be1e5ebec7d5bd14f71427d1e84f3dd0314c0f7b2291e5b200ac8c7c3b925\n      mload(0x40)\n      mload(0x40)\n      dup1\n      swap2\n      sub\n      swap1\n      log4\n        /* \"contracts/erc721.sol\":7944:8118  function _approve(address to, uint256 tokenId) internal virtual {\r... */\n      pop\n      pop\n      jump\t// out\n        /* \"contracts/erc721.sol\":5084:5348  function _isApprovedOrOwner(address spender, uint256 tokenId) internal view virtual returns (bool) {\r... */\n    tag_114:\n        /* \"contracts/erc721.sol\":5177:5181  bool */\n      0x00\n        /* \"contracts/erc721.sol\":5194:5207  address owner */\n      dup1\n        /* \"contracts/erc721.sol\":5210:5233  ERC721.ownerOf(tokenId) */\n      tag_172\n        /* \"contracts/erc721.sol\":5225:5232  tokenId */\n      dup4\n        /* \"contracts/erc721.sol\":5210:5224  ERC721.ownerOf */\n      tag_49\n        /* \"contracts/erc721.sol\":5210:5233  ERC721.ownerOf(tokenId) */\n      jump\t// in\n    tag_172:\n        /* \"contracts/erc721.sol\":5194:5233  address owner = ERC721.ownerOf(tokenId) */\n      swap1\n      pop\n        /* \"contracts/erc721.sol\":5263:5268  owner */\n      dup1\n        /* \"contracts/erc721.sol\":5252:5268  spender == owner */\n      0xffffffffffffffffffffffffffffffffffffffff\n      and\n        /* \"contracts/erc721.sol\":5252:5259  spender */\n      dup5\n        /* \"contracts/erc721.sol\":5252:5268  spender == owner */\n      0xffffffffffffffffffffffffffffffffffffffff\n      and\n      eq\n        /* \"contracts/erc721.sol\":5252:5304  spender == owner || isApprovedForAll(owner, spender) */\n      dup1\n      tag_173\n      jumpi\n      pop\n        /* \"contracts/erc721.sol\":5272:5304  isApprovedForAll(owner, spender) */\n      tag_174\n        /* \"contracts/erc721.sol\":5289:5294  owner */\n      dup2\n        /* \"contracts/erc721.sol\":5296:5303  spender */\n      dup6\n        /* \"contracts/erc721.sol\":5272:5288  isApprovedForAll */\n      tag_79\n        /* \"contracts/erc721.sol\":5272:5304  isApprovedForAll(owner, spender) */\n      jump\t// in\n    tag_174:\n        /* \"contracts/erc721.sol\":5252:5304  spender == owner || isApprovedForAll(owner, spender) */\n    tag_173:\n        /* \"contracts/erc721.sol\":5252:5339  spender == owner || isApprovedForAll(owner, spender) || getApproved(tokenId) == spender */\n      dup1\n      tag_175\n      jumpi\n      pop\n        /* \"contracts/erc721.sol\":5332:5339  spender */\n      dup4\n        /* \"contracts/erc721.sol\":5308:5339  getApproved(tokenId) == spender */\n      0xffffffffffffffffffffffffffffffffffffffff\n      and\n        /* \"contracts/erc721.sol\":5308:5328  getApproved(tokenId) */\n      tag_176\n        /* \"contracts/erc721.sol\":5320:5327  tokenId */\n      dup5\n        /* \"contracts/erc721.sol\":5308:5319  getApproved */\n      tag_33\n        /* \"contracts/erc721.sol\":5308:5328  getApproved(tokenId) */\n      jump\t// in\n    tag_176:\n        /* \"contracts/erc721.sol\":5308:5339  getApproved(tokenId) == spender */\n      0xffffffffffffffffffffffffffffffffffffffff\n      and\n      eq\n        /* \"contracts/erc721.sol\":5252:5339  spender == owner || isApprovedForAll(owner, spender) || getApproved(tokenId) == spender */\n    tag_175:\n        /* \"contracts/erc721.sol\":5244:5340  return (spender == owner || isApprovedForAll(owner, spender) || getApproved(tokenId) == spender) */\n      swap2\n      pop\n      pop\n        /* \"contracts/erc721.sol\":5084:5348  function _isApprovedOrOwner(address spender, uint256 tokenId) internal view virtual returns (bool) {\r... */\n      swap3\n      swap2\n      pop\n      pop\n      jump\t// out\n        /* \"contracts/erc721.sol\":7171:7934  function _transfer(\r... */\n    tag_119:\n        /* \"contracts/erc721.sol\":7330:7334  from */\n      dup3\n        /* \"contracts/erc721.sol\":7303:7334  ERC721.ownerOf(tokenId) == from */\n      0xffffffffffffffffffffffffffffffffffffffff\n      and\n        /* \"contracts/erc721.sol\":7303:7326  ERC721.ownerOf(tokenId) */\n      tag_178\n        /* \"contracts/erc721.sol\":7318:7325  tokenId */\n      dup3\n        /* \"contracts/erc721.sol\":7303:7317  ERC721.ownerOf */\n      tag_49\n        /* \"contracts/erc721.sol\":7303:7326  ERC721.ownerOf(tokenId) */\n      jump\t// in\n    tag_178:\n        /* \"contracts/erc721.sol\":7303:7334  ERC721.ownerOf(tokenId) == from */\n      0xffffffffffffffffffffffffffffffffffffffff\n      and\n      eq\n        /* \"contracts/erc721.sol\":7295:7376  require(ERC721.ownerOf(tokenId) == from, \"ERC721: transfer from incorrect owner\") */\n      tag_179\n      jumpi\n      mload(0x40)\n      0x08c379a000000000000000000000000000000000000000000000000000000000\n      dup2\n      mstore\n      0x04\n      add\n      tag_180\n      swap1\n      tag_181\n      jump\t// in\n    tag_180:\n      mload(0x40)\n      dup1\n      swap2\n      sub\n      swap1\n      revert\n    tag_179:\n        /* \"contracts/erc721.sol\":7409:7410  0 */\n      0x00\n        /* \"contracts/erc721.sol\":7395:7411  to != address(0) */\n      0xffffffffffffffffffffffffffffffffffffffff\n      and\n        /* \"contracts/erc721.sol\":7395:7397  to */\n      dup3\n        /* \"contracts/erc721.sol\":7395:7411  to != address(0) */\n      0xffffffffffffffffffffffffffffffffffffffff\n      and\n      eq\n      iszero\n        /* \"contracts/erc721.sol\":7387:7452  require(to != address(0), \"ERC721: transfer to the zero address\") */\n      tag_182\n      jumpi\n      mload(0x40)\n      0x08c379a000000000000000000000000000000000000000000000000000000000\n      dup2\n      mstore\n      0x04\n      add\n      tag_183\n      swap1\n      tag_184\n      jump\t// in\n    tag_183:\n      mload(0x40)\n      dup1\n      swap2\n      sub\n      swap1\n      revert\n    tag_182:\n        /* \"contracts/erc721.sol\":7465:7504  _beforeTokenTransfer(from, to, tokenId) */\n      tag_185\n        /* \"contracts/erc721.sol\":7486:7490  from */\n      dup4\n        /* \"contracts/erc721.sol\":7492:7494  to */\n      dup4\n        /* \"contracts/erc721.sol\":7496:7503  tokenId */\n      dup4\n        /* \"contracts/erc721.sol\":7465:7485  _beforeTokenTransfer */\n      tag_186\n        /* \"contracts/erc721.sol\":7465:7504  _beforeTokenTransfer(from, to, tokenId) */\n      jump\t// in\n    tag_185:\n        /* \"contracts/erc721.sol\":7552:7556  from */\n      dup3\n        /* \"contracts/erc721.sol\":7525:7556  ERC721.ownerOf(tokenId) == from */\n      0xffffffffffffffffffffffffffffffffffffffff\n      and\n        /* \"contracts/erc721.sol\":7525:7548  ERC721.ownerOf(tokenId) */\n      tag_187\n        /* \"contracts/erc721.sol\":7540:7547  tokenId */\n      dup3\n        /* \"contracts/erc721.sol\":7525:7539  ERC721.ownerOf */\n      tag_49\n        /* \"contracts/erc721.sol\":7525:7548  ERC721.ownerOf(tokenId) */\n      jump\t// in\n    tag_187:\n        /* \"contracts/erc721.sol\":7525:7556  ERC721.ownerOf(tokenId) == from */\n      0xffffffffffffffffffffffffffffffffffffffff\n      and\n      eq\n        /* \"contracts/erc721.sol\":7517:7598  require(ERC721.ownerOf(tokenId) == from, \"ERC721: transfer from incorrect owner\") */\n      tag_188\n      jumpi\n      mload(0x40)\n      0x08c379a000000000000000000000000000000000000000000000000000000000\n      dup2\n      mstore\n      0x04\n      add\n      tag_189\n      swap1\n      tag_181\n      jump\t// in\n    tag_189:\n      mload(0x40)\n      dup1\n      swap2\n      sub\n      swap1\n      revert\n    tag_188:\n        /* \"contracts/erc721.sol\":7670:7685  _tokenApprovals */\n      0x05\n        /* \"contracts/erc721.sol\":7670:7694  _tokenApprovals[tokenId] */\n      0x00\n        /* \"contracts/erc721.sol\":7686:7693  tokenId */\n      dup3\n        /* \"contracts/erc721.sol\":7670:7694  _tokenApprovals[tokenId] */\n      dup2\n      mstore\n      0x20\n      add\n      swap1\n      dup2\n      mstore\n      0x20\n      add\n      0x00\n      keccak256\n      0x00\n        /* \"contracts/erc721.sol\":7663:7694  delete _tokenApprovals[tokenId] */\n      0x0100\n      exp\n      dup2\n      sload\n      swap1\n      0xffffffffffffffffffffffffffffffffffffffff\n      mul\n      not\n      and\n      swap1\n      sstore\n        /* \"contracts/erc721.sol\":7753:7754  1 */\n      0x01\n        /* \"contracts/erc721.sol\":7734:7743  _balances */\n      0x04\n        /* \"contracts/erc721.sol\":7734:7749  _balances[from] */\n      0x00\n        /* \"contracts/erc721.sol\":7744:7748  from */\n      dup6\n        /* \"contracts/erc721.sol\":7734:7749  _balances[from] */\n      0xffffffffffffffffffffffffffffffffffffffff\n      and\n      0xffffffffffffffffffffffffffffffffffffffff\n      and\n      dup2\n      mstore\n      0x20\n      add\n      swap1\n      dup2\n      mstore\n      0x20\n      add\n      0x00\n      keccak256\n      0x00\n        /* \"contracts/erc721.sol\":7734:7754  _balances[from] -= 1 */\n      dup3\n      dup3\n      sload\n      sub\n      swap3\n      pop\n      pop\n      dup2\n      swap1\n      sstore\n      pop\n        /* \"contracts/erc721.sol\":7786:7787  1 */\n      0x01\n        /* \"contracts/erc721.sol\":7769:7778  _balances */\n      0x04\n        /* \"contracts/erc721.sol\":7769:7782  _balances[to] */\n      0x00\n        /* \"contracts/erc721.sol\":7779:7781  to */\n      dup5\n        /* \"contracts/erc721.sol\":7769:7782  _balances[to] */\n      0xffffffffffffffffffffffffffffffffffffffff\n      and\n      0xffffffffffffffffffffffffffffffffffffffff\n      and\n      dup2\n      mstore\n      0x20\n      add\n      swap1\n      dup2\n      mstore\n      0x20\n      add\n      0x00\n      keccak256\n      0x00\n        /* \"contracts/erc721.sol\":7769:7787  _balances[to] += 1 */\n      dup3\n      dup3\n      sload\n      add\n      swap3\n      pop\n      pop\n      dup2\n      swap1\n      sstore\n      pop\n        /* \"contracts/erc721.sol\":7828:7830  to */\n      dup2\n        /* \"contracts/erc721.sol\":7809:7816  _owners */\n      0x02\n        /* \"contracts/erc721.sol\":7809:7825  _owners[tokenId] */\n      0x00\n        /* \"contracts/erc721.sol\":7817:7824  tokenId */\n      dup4\n        /* \"contracts/erc721.sol\":7809:7825  _owners[tokenId] */\n      dup2\n      mstore\n      0x20\n      add\n      swap1\n      dup2\n      mstore\n      0x20\n      add\n      0x00\n      keccak256\n      0x00\n        /* \"contracts/erc721.sol\":7809:7830  _owners[tokenId] = to */\n      0x0100\n      exp\n      dup2\n      sload\n      dup2\n      0xffffffffffffffffffffffffffffffffffffffff\n      mul\n      not\n      and\n      swap1\n      dup4\n      0xffffffffffffffffffffffffffffffffffffffff\n      and\n      mul\n      or\n      swap1\n      sstore\n      pop\n        /* \"contracts/erc721.sol\":7867:7874  tokenId */\n      dup1\n        /* \"contracts/erc721.sol\":7863:7865  to */\n      dup3\n        /* \"contracts/erc721.sol\":7848:7875  Transfer(from, to, tokenId) */\n      0xffffffffffffffffffffffffffffffffffffffff\n      and\n        /* \"contracts/erc721.sol\":7857:7861  from */\n      dup5\n        /* \"contracts/erc721.sol\":7848:7875  Transfer(from, to, tokenId) */\n      0xffffffffffffffffffffffffffffffffffffffff\n      and\n      0xddf252ad1be2c89b69c2b068fc378daa952ba7f163c4a11628f55a4df523b3ef\n      mload(0x40)\n      mload(0x40)\n      dup1\n      swap2\n      sub\n      swap1\n      log4\n        /* \"contracts/erc721.sol\":7888:7926  _afterTokenTransfer(from, to, tokenId) */\n      tag_190\n        /* \"contracts/erc721.sol\":7908:7912  from */\n      dup4\n        /* \"contracts/erc721.sol\":7914:7916  to */\n      dup4\n        /* \"contracts/erc721.sol\":7918:7925  tokenId */\n      dup4\n        /* \"contracts/erc721.sol\":7888:7907  _afterTokenTransfer */\n      tag_191\n        /* \"contracts/erc721.sol\":7888:7926  _afterTokenTransfer(from, to, tokenId) */\n      jump\t// in\n    tag_190:\n        /* \"contracts/erc721.sol\":7171:7934  function _transfer(\r... */\n      pop\n      pop\n      pop\n      jump\t// out\n        /* \"contracts/erc721.sol\":8126:8441  function _setApprovalForAll(\r... */\n    tag_139:\n        /* \"contracts/erc721.sol\":8281:8289  operator */\n      dup2\n        /* \"contracts/erc721.sol\":8272:8289  owner != operator */\n      0xffffffffffffffffffffffffffffffffffffffff\n      and\n        /* \"contracts/erc721.sol\":8272:8277  owner */\n      dup4\n        /* \"contracts/erc721.sol\":8272:8289  owner != operator */\n      0xffffffffffffffffffffffffffffffffffffffff\n      and\n      eq\n      iszero\n        /* \"contracts/erc721.sol\":8264:8319  require(owner != operator, \"ERC721: approve to caller\") */\n      tag_193\n      jumpi\n      mload(0x40)\n      0x08c379a000000000000000000000000000000000000000000000000000000000\n      dup2\n      mstore\n      0x04\n      add\n      tag_194\n      swap1\n      tag_195\n      jump\t// in\n    tag_194:\n      mload(0x40)\n      dup1\n      swap2\n      sub\n      swap1\n      revert\n    tag_193:\n        /* \"contracts/erc721.sol\":8368:8376  approved */\n      dup1\n        /* \"contracts/erc721.sol\":8330:8348  _operatorApprovals */\n      0x06\n        /* \"contracts/erc721.sol\":8330:8355  _operatorApprovals[owner] */\n      0x00\n        /* \"contracts/erc721.sol\":8349:8354  owner */\n      dup6\n        /* \"contracts/erc721.sol\":8330:8355  _operatorApprovals[owner] */\n      0xffffffffffffffffffffffffffffffffffffffff\n      and\n      0xffffffffffffffffffffffffffffffffffffffff\n      and\n      dup2\n      mstore\n      0x20\n      add\n      swap1\n      dup2\n      mstore\n      0x20\n      add\n      0x00\n      keccak256\n        /* \"contracts/erc721.sol\":8330:8365  _operatorApprovals[owner][operator] */\n      0x00\n        /* \"contracts/erc721.sol\":8356:8364  operator */\n      dup5\n        /* \"contracts/erc721.sol\":8330:8365  _operatorApprovals[owner][operator] */\n      0xffffffffffffffffffffffffffffffffffffffff\n      and\n      0xffffffffffffffffffffffffffffffffffffffff\n      and\n      dup2\n      mstore\n      0x20\n      add\n      swap1\n      dup2\n      mstore\n      0x20\n      add\n      0x00\n      keccak256\n      0x00\n        /* \"contracts/erc721.sol\":8330:8376  _operatorApprovals[owner][operator] = approved */\n      0x0100\n      exp\n      dup2\n      sload\n      dup2\n      0xff\n      mul\n      not\n      and\n      swap1\n      dup4\n      iszero\n      iszero\n      mul\n      or\n      swap1\n      sstore\n      pop\n        /* \"contracts/erc721.sol\":8414:8422  operator */\n      dup2\n        /* \"contracts/erc721.sol\":8392:8433  ApprovalForAll(owner, operator, approved) */\n      0xffffffffffffffffffffffffffffffffffffffff\n      and\n        /* \"contracts/erc721.sol\":8407:8412  owner */\n      dup4\n        /* \"contracts/erc721.sol\":8392:8433  ApprovalForAll(owner, operator, approved) */\n      0xffffffffffffffffffffffffffffffffffffffff\n      and\n      0x17307eab39ab6107e8899845ad3d59bd9653f200f220920489ca2b5937696c31\n        /* \"contracts/erc721.sol\":8424:8432  approved */\n      dup4\n        /* \"contracts/erc721.sol\":8392:8433  ApprovalForAll(owner, operator, approved) */\n      mload(0x40)\n      tag_196\n      swap2\n      swap1\n      tag_25\n      jump\t// in\n    tag_196:\n      mload(0x40)\n      dup1\n      swap2\n      sub\n      swap1\n      log3\n        /* \"contracts/erc721.sol\":8126:8441  function _setApprovalForAll(\r... */\n      pop\n      pop\n      pop\n      jump\t// out\n        /* \"contracts/erc721.sol\":5356:5500  function _safeMint(address to, address collaborator, uint256 tokenId) internal virtual {\r... */\n    tag_142:\n        /* \"contracts/erc721.sol\":5454:5492  _safeMint(to,collaborator,tokenId, \"\") */\n      tag_198\n        /* \"contracts/erc721.sol\":5464:5466  to */\n      dup4\n        /* \"contracts/erc721.sol\":5467:5479  collaborator */\n      dup4\n        /* \"contracts/erc721.sol\":5480:5487  tokenId */\n      dup4\n        /* \"contracts/erc721.sol\":5454:5492  _safeMint(to,collaborator,tokenId, \"\") */\n      mload(0x40)\n      dup1\n      0x20\n      add\n      0x40\n      mstore\n      dup1\n      0x00\n      dup2\n      mstore\n      pop\n        /* \"contracts/erc721.sol\":5454:5463  _safeMint */\n      tag_199\n        /* \"contracts/erc721.sol\":5454:5492  _safeMint(to,collaborator,tokenId, \"\") */\n      jump\t// in\n    tag_198:\n        /* \"contracts/erc721.sol\":5356:5500  function _safeMint(address to, address collaborator, uint256 tokenId) internal virtual {\r... */\n      pop\n      pop\n      pop\n      jump\t// out\n        /* \"contracts/erc721.sol\":4626:4939  function _safeTransfer(\r... */\n    tag_150:\n        /* \"contracts/erc721.sol\":4782:4810  _transfer(from, to, tokenId) */\n      tag_201\n        /* \"contracts/erc721.sol\":4792:4796  from */\n      dup5\n        /* \"contracts/erc721.sol\":4798:4800  to */\n      dup5\n        /* \"contracts/erc721.sol\":4802:4809  tokenId */\n      dup5\n        /* \"contracts/erc721.sol\":4782:4791  _transfer */\n      tag_119\n        /* \"contracts/erc721.sol\":4782:4810  _transfer(from, to, tokenId) */\n      jump\t// in\n    tag_201:\n        /* \"contracts/erc721.sol\":4829:4876  _checkOnERC721Received(from, to, tokenId, data) */\n      tag_202\n        /* \"contracts/erc721.sol\":4852:4856  from */\n      dup5\n        /* \"contracts/erc721.sol\":4858:4860  to */\n      dup5\n        /* \"contracts/erc721.sol\":4862:4869  tokenId */\n      dup5\n        /* \"contracts/erc721.sol\":4871:4875  data */\n      dup5\n        /* \"contracts/erc721.sol\":4829:4851  _checkOnERC721Received */\n      tag_203\n        /* \"contracts/erc721.sol\":4829:4876  _checkOnERC721Received(from, to, tokenId, data) */\n      jump\t// in\n    tag_202:\n        /* \"contracts/erc721.sol\":4821:4931  require(_checkOnERC721Received(from, to, tokenId, data), \"ERC721: transfer to non ERC721Receiver implementer\") */\n      tag_204\n      jumpi\n      mload(0x40)\n      0x08c379a000000000000000000000000000000000000000000000000000000000\n      dup2\n      mstore\n      0x04\n      add\n      tag_205\n      swap1\n      tag_206\n      jump\t// in\n    tag_205:\n      mload(0x40)\n      dup1\n      swap2\n      sub\n      swap1\n      revert\n    tag_204:\n        /* \"contracts/erc721.sol\":4626:4939  function _safeTransfer(\r... */\n      pop\n      pop\n      pop\n      pop\n      jump\t// out\n        /* \"contracts/erc721.sol\":2578:2672  function _baseURI() internal view virtual returns (string memory) {\r... */\n    tag_154:\n        /* \"contracts/erc721.sol\":2629:2642  string memory */\n      0x60\n        /* \"contracts/erc721.sol\":2655:2664  return \"\" */\n      mload(0x40)\n      dup1\n      0x20\n      add\n      0x40\n      mstore\n      dup1\n      0x00\n      dup2\n      mstore\n      pop\n      swap1\n      pop\n        /* \"contracts/erc721.sol\":2578:2672  function _baseURI() internal view virtual returns (string memory) {\r... */\n      swap1\n      jump\t// out\n        /* \"@openzeppelin/contracts@4.6.0/utils/Strings.sol\":328:1031  function toString(uint256 value) internal pure returns (string memory) {... */\n    tag_158:\n        /* \"@openzeppelin/contracts@4.6.0/utils/Strings.sol\":384:397  string memory */\n      0x60\n        /* \"@openzeppelin/contracts@4.6.0/utils/Strings.sol\":610:611  0 */\n      0x00\n        /* \"@openzeppelin/contracts@4.6.0/utils/Strings.sol\":601:606  value */\n      dup3\n        /* \"@openzeppelin/contracts@4.6.0/utils/Strings.sol\":601:611  value == 0 */\n      eq\n        /* \"@openzeppelin/contracts@4.6.0/utils/Strings.sol\":597:648  if (value == 0) {... */\n      iszero\n      tag_209\n      jumpi\n        /* \"@openzeppelin/contracts@4.6.0/utils/Strings.sol\":627:637  return \"0\" */\n      mload(0x40)\n      dup1\n      0x40\n      add\n      0x40\n      mstore\n      dup1\n      0x01\n      dup2\n      mstore\n      0x20\n      add\n      0x3000000000000000000000000000000000000000000000000000000000000000\n      dup2\n      mstore\n      pop\n      swap1\n      pop\n      jump(tag_208)\n        /* \"@openzeppelin/contracts@4.6.0/utils/Strings.sol\":597:648  if (value == 0) {... */\n    tag_209:\n        /* \"@openzeppelin/contracts@4.6.0/utils/Strings.sol\":657:669  uint256 temp */\n      0x00\n        /* \"@openzeppelin/contracts@4.6.0/utils/Strings.sol\":672:677  value */\n      dup3\n        /* \"@openzeppelin/contracts@4.6.0/utils/Strings.sol\":657:677  uint256 temp = value */\n      swap1\n      pop\n        /* \"@openzeppelin/contracts@4.6.0/utils/Strings.sol\":687:701  uint256 digits */\n      0x00\n        /* \"@openzeppelin/contracts@4.6.0/utils/Strings.sol\":711:786  while (temp != 0) {... */\n    tag_210:\n        /* \"@openzeppelin/contracts@4.6.0/utils/Strings.sol\":726:727  0 */\n      0x00\n        /* \"@openzeppelin/contracts@4.6.0/utils/Strings.sol\":718:722  temp */\n      dup3\n        /* \"@openzeppelin/contracts@4.6.0/utils/Strings.sol\":718:727  temp != 0 */\n      eq\n        /* \"@openzeppelin/contracts@4.6.0/utils/Strings.sol\":711:786  while (temp != 0) {... */\n      tag_211\n      jumpi\n        /* \"@openzeppelin/contracts@4.6.0/utils/Strings.sol\":743:751  digits++ */\n      dup1\n      dup1\n      tag_212\n      swap1\n      tag_213\n      jump\t// in\n    tag_212:\n      swap2\n      pop\n      pop\n        /* \"@openzeppelin/contracts@4.6.0/utils/Strings.sol\":773:775  10 */\n      0x0a\n        /* \"@openzeppelin/contracts@4.6.0/utils/Strings.sol\":765:775  temp /= 10 */\n      dup3\n      tag_214\n      swap2\n      swap1\n      tag_215\n      jump\t// in\n    tag_214:\n      swap2\n      pop\n        /* \"@openzeppelin/contracts@4.6.0/utils/Strings.sol\":711:786  while (temp != 0) {... */\n      jump(tag_210)\n    tag_211:\n        /* \"@openzeppelin/contracts@4.6.0/utils/Strings.sol\":795:814  bytes memory buffer */\n      0x00\n        /* \"@openzeppelin/contracts@4.6.0/utils/Strings.sol\":827:833  digits */\n      dup2\n        /* \"@openzeppelin/contracts@4.6.0/utils/Strings.sol\":817:834  new bytes(digits) */\n      0xffffffffffffffff\n      dup2\n      gt\n      iszero\n      tag_216\n      jumpi\n      mstore(0x00, 0x4e487b7100000000000000000000000000000000000000000000000000000000)\n      mstore(0x04, 0x41)\n      revert(0x00, 0x24)\n    tag_216:\n      mload(0x40)\n      swap1\n      dup1\n      dup3\n      mstore\n      dup1\n      0x1f\n      add\n      not(0x1f)\n      and\n      0x20\n      add\n      dup3\n      add\n      0x40\n      mstore\n      dup1\n      iszero\n      tag_217\n      jumpi\n      dup2\n      0x20\n      add\n      0x01\n      dup3\n      mul\n      dup1\n      calldatasize\n      dup4\n      calldatacopy\n      dup1\n      dup3\n      add\n      swap2\n      pop\n      pop\n      swap1\n      pop\n    tag_217:\n      pop\n        /* \"@openzeppelin/contracts@4.6.0/utils/Strings.sol\":795:834  bytes memory buffer = new bytes(digits) */\n      swap1\n      pop\n        /* \"@openzeppelin/contracts@4.6.0/utils/Strings.sol\":844:994  while (value != 0) {... */\n    tag_218:\n        /* \"@openzeppelin/contracts@4.6.0/utils/Strings.sol\":860:861  0 */\n      0x00\n        /* \"@openzeppelin/contracts@4.6.0/utils/Strings.sol\":851:856  value */\n      dup6\n        /* \"@openzeppelin/contracts@4.6.0/utils/Strings.sol\":851:861  value != 0 */\n      eq\n        /* \"@openzeppelin/contracts@4.6.0/utils/Strings.sol\":844:994  while (value != 0) {... */\n      tag_219\n      jumpi\n        /* \"@openzeppelin/contracts@4.6.0/utils/Strings.sol\":887:888  1 */\n      0x01\n        /* \"@openzeppelin/contracts@4.6.0/utils/Strings.sol\":877:888  digits -= 1 */\n      dup3\n      tag_220\n      swap2\n      swap1\n      tag_221\n      jump\t// in\n    tag_220:\n      swap2\n      pop\n        /* \"@openzeppelin/contracts@4.6.0/utils/Strings.sol\":953:955  10 */\n      0x0a\n        /* \"@openzeppelin/contracts@4.6.0/utils/Strings.sol\":945:950  value */\n      dup6\n        /* \"@openzeppelin/contracts@4.6.0/utils/Strings.sol\":945:955  value % 10 */\n      tag_222\n      swap2\n      swap1\n      tag_223\n      jump\t// in\n    tag_222:\n        /* \"@openzeppelin/contracts@4.6.0/utils/Strings.sol\":932:934  48 */\n      0x30\n        /* \"@openzeppelin/contracts@4.6.0/utils/Strings.sol\":932:956  48 + uint256(value % 10) */\n      tag_224\n      swap2\n      swap1\n      tag_225\n      jump\t// in\n    tag_224:\n        /* \"@openzeppelin/contracts@4.6.0/utils/Strings.sol\":919:958  bytes1(uint8(48 + uint256(value % 10))) */\n      0xf8\n      shl\n        /* \"@openzeppelin/contracts@4.6.0/utils/Strings.sol\":902:908  buffer */\n      dup2\n        /* \"@openzeppelin/contracts@4.6.0/utils/Strings.sol\":909:915  digits */\n      dup4\n        /* \"@openzeppelin/contracts@4.6.0/utils/Strings.sol\":902:916  buffer[digits] */\n      dup2\n      mload\n      dup2\n      lt\n      tag_226\n      jumpi\n      mstore(0x00, 0x4e487b7100000000000000000000000000000000000000000000000000000000)\n      mstore(0x04, 0x32)\n      revert(0x00, 0x24)\n    tag_226:\n      0x20\n      add\n      add\n        /* \"@openzeppelin/contracts@4.6.0/utils/Strings.sol\":902:958  buffer[digits] = bytes1(uint8(48 + uint256(value % 10))) */\n      swap1\n      not(0xffffffffffffffffffffffffffffffffffffffffffffffffffffffffffffff)\n      and\n      swap1\n      dup2\n      0x00\n      byte\n      swap1\n      mstore8\n      pop\n        /* \"@openzeppelin/contracts@4.6.0/utils/Strings.sol\":981:983  10 */\n      0x0a\n        /* \"@openzeppelin/contracts@4.6.0/utils/Strings.sol\":972:983  value /= 10 */\n      dup6\n      tag_227\n      swap2\n      swap1\n      tag_215\n      jump\t// in\n    tag_227:\n      swap5\n      pop\n        /* \"@openzeppelin/contracts@4.6.0/utils/Strings.sol\":844:994  while (value != 0) {... */\n      jump(tag_218)\n    tag_219:\n        /* \"@openzeppelin/contracts@4.6.0/utils/Strings.sol\":1017:1023  buffer */\n      dup1\n        /* \"@openzeppelin/contracts@4.6.0/utils/Strings.sol\":1003:1024  return string(buffer) */\n      swap4\n      pop\n      pop\n      pop\n      pop\n        /* \"@openzeppelin/contracts@4.6.0/utils/Strings.sol\":328:1031  function toString(uint256 value) internal pure returns (string memory) {... */\n    tag_208:\n      swap2\n      swap1\n      pop\n      jump\t// out\n        /* \"contracts/erc721.sol\":4947:5074  function _exists(uint256 tokenId) internal view virtual returns (bool) {\r... */\n    tag_165:\n        /* \"contracts/erc721.sol\":5012:5016  bool */\n      0x00\n        /* \"contracts/erc721.sol\":5064:5065  0 */\n      dup1\n        /* \"contracts/erc721.sol\":5036:5066  _owners[tokenId] != address(0) */\n      0xffffffffffffffffffffffffffffffffffffffff\n      and\n        /* \"contracts/erc721.sol\":5036:5043  _owners */\n      0x02\n        /* \"contracts/erc721.sol\":5036:5052  _owners[tokenId] */\n      0x00\n        /* \"contracts/erc721.sol\":5044:5051  tokenId */\n      dup5\n        /* \"contracts/erc721.sol\":5036:5052  _owners[tokenId] */\n      dup2\n      mstore\n      0x20\n      add\n      swap1\n      dup2\n      mstore\n      0x20\n      add\n      0x00\n      keccak256\n      0x00\n      swap1\n      sload\n      swap1\n      0x0100\n      exp\n      swap1\n      div\n      0xffffffffffffffffffffffffffffffffffffffff\n      and\n        /* \"contracts/erc721.sol\":5036:5066  _owners[tokenId] != address(0) */\n      0xffffffffffffffffffffffffffffffffffffffff\n      and\n      eq\n      iszero\n        /* \"contracts/erc721.sol\":5029:5066  return _owners[tokenId] != address(0) */\n      swap1\n      pop\n        /* \"contracts/erc721.sol\":4947:5074  function _exists(uint256 tokenId) internal view virtual returns (bool) {\r... */\n      swap2\n      swap1\n      pop\n      jump\t// out\n        /* \"contracts/erc721.sol\":9457:9583  function _beforeTokenTransfer(\r... */\n    tag_186:\n      pop\n      pop\n      pop\n      jump\t// out\n        /* \"contracts/erc721.sol\":9591:9716  function _afterTokenTransfer(\r... */\n    tag_191:\n      pop\n      pop\n      pop\n      jump\t// out\n        /* \"contracts/erc721.sol\":5508:5871  function _safeMint(\r... */\n    tag_199:\n        /* \"contracts/erc721.sol\":5668:5699  _mint(to, collaborator,tokenId) */\n      tag_232\n        /* \"contracts/erc721.sol\":5674:5676  to */\n      dup5\n        /* \"contracts/erc721.sol\":5678:5690  collaborator */\n      dup5\n        /* \"contracts/erc721.sol\":5691:5698  tokenId */\n      dup5\n        /* \"contracts/erc721.sol\":5668:5673  _mint */\n      tag_233\n        /* \"contracts/erc721.sol\":5668:5699  _mint(to, collaborator,tokenId) */\n      jump\t// in\n    tag_232:\n        /* \"contracts/erc721.sol\":5732:5785  _checkOnERC721Received(address(0), to, tokenId, data) */\n      tag_234\n        /* \"contracts/erc721.sol\":5763:5764  0 */\n      0x00\n        /* \"contracts/erc721.sol\":5767:5769  to */\n      dup6\n        /* \"contracts/erc721.sol\":5771:5778  tokenId */\n      dup5\n        /* \"contracts/erc721.sol\":5780:5784  data */\n      dup5\n        /* \"contracts/erc721.sol\":5732:5754  _checkOnERC721Received */\n      tag_203\n        /* \"contracts/erc721.sol\":5732:5785  _checkOnERC721Received(address(0), to, tokenId, data) */\n      jump\t// in\n    tag_234:\n        /* \"contracts/erc721.sol\":5710:5863  require(\r... */\n      tag_235\n      jumpi\n      mload(0x40)\n      0x08c379a000000000000000000000000000000000000000000000000000000000\n      dup2\n      mstore\n      0x04\n      add\n      tag_236\n      swap1\n      tag_206\n      jump\t// in\n    tag_236:\n      mload(0x40)\n      dup1\n      swap2\n      sub\n      swap1\n      revert\n    tag_235:\n        /* \"contracts/erc721.sol\":5508:5871  function _safeMint(\r... */\n      pop\n      pop\n      pop\n      pop\n      jump\t// out\n        /* \"contracts/erc721.sol\":8594:9447  function _checkOnERC721Received(\r... */\n    tag_203:\n        /* \"contracts/erc721.sol\":8748:8752  bool */\n      0x00\n        /* \"contracts/erc721.sol\":8769:8784  to.isContract() */\n      tag_238\n        /* \"contracts/erc721.sol\":8769:8771  to */\n      dup5\n        /* \"contracts/erc721.sol\":8769:8782  to.isContract */\n      0xffffffffffffffffffffffffffffffffffffffff\n      and\n      tag_239\n        /* \"contracts/erc721.sol\":8769:8784  to.isContract() */\n      jump\t// in\n    tag_238:\n        /* \"contracts/erc721.sol\":8765:9440  if (to.isContract()) {\r... */\n      iszero\n      tag_240\n      jumpi\n        /* \"contracts/erc721.sol\":8821:8823  to */\n      dup4\n        /* \"contracts/erc721.sol\":8805:8841  IERC721Receiver(to).onERC721Received */\n      0xffffffffffffffffffffffffffffffffffffffff\n      and\n      0x150b7a02\n        /* \"contracts/erc721.sol\":8842:8854  _msgSender() */\n      tag_241\n        /* \"contracts/erc721.sol\":8842:8852  _msgSender */\n      tag_102\n        /* \"contracts/erc721.sol\":8842:8854  _msgSender() */\n      jump\t// in\n    tag_241:\n        /* \"contracts/erc721.sol\":8856:8860  from */\n      dup8\n        /* \"contracts/erc721.sol\":8862:8869  tokenId */\n      dup7\n        /* \"contracts/erc721.sol\":8871:8875  data */\n      dup7\n        /* \"contracts/erc721.sol\":8805:8876  IERC721Receiver(to).onERC721Received(_msgSender(), from, tokenId, data) */\n      mload(0x40)\n      dup6\n      0xffffffff\n      and\n      0xe0\n      shl\n      dup2\n      mstore\n      0x04\n      add\n      tag_242\n      swap5\n      swap4\n      swap3\n      swap2\n      swap1\n      tag_243\n      jump\t// in\n    tag_242:\n      0x20\n      mload(0x40)\n      dup1\n      dup4\n      sub\n      dup2\n      0x00\n      dup8\n      dup1\n      extcodesize\n      iszero\n      dup1\n      iszero\n      tag_244\n      jumpi\n      0x00\n      dup1\n      revert\n    tag_244:\n      pop\n      gas\n      call\n      swap3\n      pop\n      pop\n      pop\n      dup1\n      iszero\n      tag_245\n      jumpi\n      pop\n      mload(0x40)\n      returndatasize\n      not(0x1f)\n      0x1f\n      dup3\n      add\n      and\n      dup3\n      add\n      dup1\n      0x40\n      mstore\n      pop\n      dup2\n      add\n      swap1\n      tag_246\n      swap2\n      swap1\n      tag_247\n      jump\t// in\n    tag_246:\n      0x01\n    tag_245:\n        /* \"contracts/erc721.sol\":8801:9385  try IERC721Receiver(to).onERC721Received(_msgSender(), from, tokenId, data) returns (bytes4 retval) {\r... */\n      tag_248\n      jumpi\n      returndatasize\n      dup1\n      0x00\n      dup2\n      eq\n      tag_253\n      jumpi\n      mload(0x40)\n      swap2\n      pop\n      and(add(returndatasize, 0x3f), not(0x1f))\n      dup3\n      add\n      0x40\n      mstore\n      returndatasize\n      dup3\n      mstore\n      returndatasize\n      0x00\n      0x20\n      dup5\n      add\n      returndatacopy\n      jump(tag_252)\n    tag_253:\n      0x60\n      swap2\n      pop\n    tag_252:\n      pop\n        /* \"contracts/erc721.sol\":9063:9064  0 */\n      0x00\n        /* \"contracts/erc721.sol\":9046:9052  reason */\n      dup2\n        /* \"contracts/erc721.sol\":9046:9059  reason.length */\n      mload\n        /* \"contracts/erc721.sol\":9046:9064  reason.length == 0 */\n      eq\n        /* \"contracts/erc721.sol\":9042:9370  if (reason.length == 0) {\r... */\n      iszero\n      tag_254\n      jumpi\n        /* \"contracts/erc721.sol\":9089:9149  revert(\"ERC721: transfer to non ERC721Receiver implementer\") */\n      mload(0x40)\n      0x08c379a000000000000000000000000000000000000000000000000000000000\n      dup2\n      mstore\n      0x04\n      add\n      tag_255\n      swap1\n      tag_206\n      jump\t// in\n    tag_255:\n      mload(0x40)\n      dup1\n      swap2\n      sub\n      swap1\n      revert\n        /* \"contracts/erc721.sol\":9042:9370  if (reason.length == 0) {\r... */\n    tag_254:\n        /* \"contracts/erc721.sol\":9320:9326  reason */\n      dup1\n        /* \"contracts/erc721.sol\":9314:9327  mload(reason) */\n      mload\n        /* \"contracts/erc721.sol\":9305:9311  reason */\n      dup2\n        /* \"contracts/erc721.sol\":9301:9303  32 */\n      0x20\n        /* \"contracts/erc721.sol\":9297:9312  add(32, reason) */\n      add\n        /* \"contracts/erc721.sol\":9290:9328  revert(add(32, reason), mload(reason)) */\n      revert\n        /* \"contracts/erc721.sol\":8801:9385  try IERC721Receiver(to).onERC721Received(_msgSender(), from, tokenId, data) returns (bytes4 retval) {\r... */\n    tag_248:\n        /* \"contracts/erc721.sol\":8937:8978  IERC721Receiver.onERC721Received.selector */\n      shl(0xe0, 0x150b7a02)\n        /* \"contracts/erc721.sol\":8927:8978  retval == IERC721Receiver.onERC721Received.selector */\n      not(0xffffffffffffffffffffffffffffffffffffffffffffffffffffffff)\n      and\n        /* \"contracts/erc721.sol\":8927:8933  retval */\n      dup2\n        /* \"contracts/erc721.sol\":8927:8978  retval == IERC721Receiver.onERC721Received.selector */\n      not(0xffffffffffffffffffffffffffffffffffffffffffffffffffffffff)\n      and\n      eq\n        /* \"contracts/erc721.sol\":8920:8978  return retval == IERC721Receiver.onERC721Received.selector */\n      swap2\n      pop\n      pop\n      jump(tag_237)\n        /* \"contracts/erc721.sol\":8765:9440  if (to.isContract()) {\r... */\n    tag_240:\n        /* \"contracts/erc721.sol\":9424:9428  true */\n      0x01\n        /* \"contracts/erc721.sol\":9417:9428  return true */\n      swap1\n      pop\n        /* \"contracts/erc721.sol\":8594:9447  function _checkOnERC721Received(\r... */\n    tag_237:\n      swap5\n      swap4\n      pop\n      pop\n      pop\n      pop\n      jump\t// out\n        /* \"contracts/erc721.sol\":5879:6449  function _mint(address to, address collaborator, uint256 tokenId) internal virtual {\r... */\n    tag_233:\n        /* \"contracts/erc721.sol\":5995:5996  0 */\n      0x00\n        /* \"contracts/erc721.sol\":5981:5997  to != address(0) */\n      0xffffffffffffffffffffffffffffffffffffffff\n      and\n        /* \"contracts/erc721.sol\":5981:5983  to */\n      dup4\n        /* \"contracts/erc721.sol\":5981:5997  to != address(0) */\n      0xffffffffffffffffffffffffffffffffffffffff\n      and\n      eq\n      iszero\n        /* \"contracts/erc721.sol\":5973:6034  require(to != address(0), \"ERC721: mint to the zero address\") */\n      tag_260\n      jumpi\n      mload(0x40)\n      0x08c379a000000000000000000000000000000000000000000000000000000000\n      dup2\n      mstore\n      0x04\n      add\n      tag_261\n      swap1\n      tag_262\n      jump\t// in\n    tag_261:\n      mload(0x40)\n      dup1\n      swap2\n      sub\n      swap1\n      revert\n    tag_260:\n        /* \"contracts/erc721.sol\":6054:6070  _exists(tokenId) */\n      tag_263\n        /* \"contracts/erc721.sol\":6062:6069  tokenId */\n      dup2\n        /* \"contracts/erc721.sol\":6054:6061  _exists */\n      tag_165\n        /* \"contracts/erc721.sol\":6054:6070  _exists(tokenId) */\n      jump\t// in\n    tag_263:\n        /* \"contracts/erc721.sol\":6053:6070  !_exists(tokenId) */\n      iszero\n        /* \"contracts/erc721.sol\":6045:6103  require(!_exists(tokenId), \"ERC721: token already minted\") */\n      tag_264\n      jumpi\n      mload(0x40)\n      0x08c379a000000000000000000000000000000000000000000000000000000000\n      dup2\n      mstore\n      0x04\n      add\n      tag_265\n      swap1\n      tag_266\n      jump\t// in\n    tag_265:\n      mload(0x40)\n      dup1\n      swap2\n      sub\n      swap1\n      revert\n    tag_264:\n        /* \"contracts/erc721.sol\":6116:6161  _beforeTokenTransfer(address(0), to, tokenId) */\n      tag_267\n        /* \"contracts/erc721.sol\":6145:6146  0 */\n      0x00\n        /* \"contracts/erc721.sol\":6149:6151  to */\n      dup5\n        /* \"contracts/erc721.sol\":6153:6160  tokenId */\n      dup4\n        /* \"contracts/erc721.sol\":6116:6136  _beforeTokenTransfer */\n      tag_186\n        /* \"contracts/erc721.sol\":6116:6161  _beforeTokenTransfer(address(0), to, tokenId) */\n      jump\t// in\n    tag_267:\n        /* \"contracts/erc721.sol\":6183:6199  _exists(tokenId) */\n      tag_268\n        /* \"contracts/erc721.sol\":6191:6198  tokenId */\n      dup2\n        /* \"contracts/erc721.sol\":6183:6190  _exists */\n      tag_165\n        /* \"contracts/erc721.sol\":6183:6199  _exists(tokenId) */\n      jump\t// in\n    tag_268:\n        /* \"contracts/erc721.sol\":6182:6199  !_exists(tokenId) */\n      iszero\n        /* \"contracts/erc721.sol\":6174:6232  require(!_exists(tokenId), \"ERC721: token already minted\") */\n      tag_269\n      jumpi\n      mload(0x40)\n      0x08c379a000000000000000000000000000000000000000000000000000000000\n      dup2\n      mstore\n      0x04\n      add\n      tag_270\n      swap1\n      tag_266\n      jump\t// in\n    tag_270:\n      mload(0x40)\n      dup1\n      swap2\n      sub\n      swap1\n      revert\n    tag_269:\n        /* \"contracts/erc721.sol\":6287:6288  1 */\n      0x01\n        /* \"contracts/erc721.sol\":6270:6279  _balances */\n      0x04\n        /* \"contracts/erc721.sol\":6270:6283  _balances[to] */\n      0x00\n        /* \"contracts/erc721.sol\":6280:6282  to */\n      dup6\n        /* \"contracts/erc721.sol\":6270:6283  _balances[to] */\n      0xffffffffffffffffffffffffffffffffffffffff\n      and\n      0xffffffffffffffffffffffffffffffffffffffff\n      and\n      dup2\n      mstore\n      0x20\n      add\n      swap1\n      dup2\n      mstore\n      0x20\n      add\n      0x00\n      keccak256\n      0x00\n        /* \"contracts/erc721.sol\":6270:6288  _balances[to] += 1 */\n      dup3\n      dup3\n      sload\n      add\n      swap3\n      pop\n      pop\n      dup2\n      swap1\n      sstore\n      pop\n        /* \"contracts/erc721.sol\":6331:6333  to */\n      dup3\n        /* \"contracts/erc721.sol\":6312:6319  _owners */\n      0x02\n        /* \"contracts/erc721.sol\":6312:6328  _owners[tokenId] */\n      0x00\n        /* \"contracts/erc721.sol\":6320:6327  tokenId */\n      dup4\n        /* \"contracts/erc721.sol\":6312:6328  _owners[tokenId] */\n      dup2\n      mstore\n      0x20\n      add\n      swap1\n      dup2\n      mstore\n      0x20\n      add\n      0x00\n      keccak256\n      0x00\n        /* \"contracts/erc721.sol\":6312:6333  _owners[tokenId] = to */\n      0x0100\n      exp\n      dup2\n      sload\n      dup2\n      0xffffffffffffffffffffffffffffffffffffffff\n      mul\n      not\n      and\n      swap1\n      dup4\n      0xffffffffffffffffffffffffffffffffffffffff\n      and\n      mul\n      or\n      swap1\n      sstore\n      pop\n        /* \"contracts/erc721.sol\":6376:6383  tokenId */\n      dup1\n        /* \"contracts/erc721.sol\":6372:6374  to */\n      dup4\n        /* \"contracts/erc721.sol\":6351:6384  Transfer(address(0), to, tokenId) */\n      0xffffffffffffffffffffffffffffffffffffffff\n      and\n        /* \"contracts/erc721.sol\":6368:6369  0 */\n      0x00\n        /* \"contracts/erc721.sol\":6351:6384  Transfer(address(0), to, tokenId) */\n      0xffffffffffffffffffffffffffffffffffffffff\n      and\n      0xddf252ad1be2c89b69c2b068fc378daa952ba7f163c4a11628f55a4df523b3ef\n      mload(0x40)\n      mload(0x40)\n      dup1\n      swap2\n      sub\n      swap1\n      log4\n        /* \"contracts/erc721.sol\":6397:6441  _afterTokenTransfer(address(0), to, tokenId) */\n      tag_271\n        /* \"contracts/erc721.sol\":6425:6426  0 */\n      0x00\n        /* \"contracts/erc721.sol\":6429:6431  to */\n      dup5\n        /* \"contracts/erc721.sol\":6433:6440  tokenId */\n      dup4\n        /* \"contracts/erc721.sol\":6397:6416  _afterTokenTransfer */\n      tag_191\n        /* \"contracts/erc721.sol\":6397:6441  _afterTokenTransfer(address(0), to, tokenId) */\n      jump\t// in\n    tag_271:\n        /* \"contracts/erc721.sol\":5879:6449  function _mint(address to, address collaborator, uint256 tokenId) internal virtual {\r... */\n      pop\n      pop\n      pop\n      jump\t// out\n        /* \"@openzeppelin/contracts@4.6.0/utils/Address.sol\":1175:1495  function isContract(address account) internal view returns (bool) {... */\n    tag_239:\n        /* \"@openzeppelin/contracts@4.6.0/utils/Address.sol\":1235:1239  bool */\n      0x00\n        /* \"@openzeppelin/contracts@4.6.0/utils/Address.sol\":1487:1488  0 */\n      dup1\n        /* \"@openzeppelin/contracts@4.6.0/utils/Address.sol\":1465:1472  account */\n      dup3\n        /* \"@openzeppelin/contracts@4.6.0/utils/Address.sol\":1465:1484  account.code.length */\n      0xffffffffffffffffffffffffffffffffffffffff\n      and\n      extcodesize\n        /* \"@openzeppelin/contracts@4.6.0/utils/Address.sol\":1465:1488  account.code.length > 0 */\n      gt\n        /* \"@openzeppelin/contracts@4.6.0/utils/Address.sol\":1458:1488  return account.code.length > 0 */\n      swap1\n      pop\n        /* \"@openzeppelin/contracts@4.6.0/utils/Address.sol\":1175:1495  function isContract(address account) internal view returns (bool) {... */\n      swap2\n      swap1\n      pop\n      jump\t// out\n        /* \"#utility.yul\":7:350   */\n    tag_274:\n        /* \"#utility.yul\":84:89   */\n      0x00\n        /* \"#utility.yul\":109:174   */\n      tag_276\n        /* \"#utility.yul\":125:173   */\n      tag_277\n        /* \"#utility.yul\":166:172   */\n      dup5\n        /* \"#utility.yul\":125:173   */\n      tag_278\n      jump\t// in\n    tag_277:\n        /* \"#utility.yul\":109:174   */\n      tag_279\n      jump\t// in\n    tag_276:\n        /* \"#utility.yul\":100:174   */\n      swap1\n      pop\n        /* \"#utility.yul\":197:203   */\n      dup3\n        /* \"#utility.yul\":190:195   */\n      dup2\n        /* \"#utility.yul\":183:204   */\n      mstore\n        /* \"#utility.yul\":235:239   */\n      0x20\n        /* \"#utility.yul\":228:233   */\n      dup2\n        /* \"#utility.yul\":224:240   */\n      add\n        /* \"#utility.yul\":273:276   */\n      dup5\n        /* \"#utility.yul\":264:270   */\n      dup5\n        /* \"#utility.yul\":259:262   */\n      dup5\n        /* \"#utility.yul\":255:271   */\n      add\n        /* \"#utility.yul\":252:277   */\n      gt\n        /* \"#utility.yul\":249:251   */\n      iszero\n      tag_280\n      jumpi\n        /* \"#utility.yul\":290:291   */\n      0x00\n        /* \"#utility.yul\":287:288   */\n      dup1\n        /* \"#utility.yul\":280:292   */\n      revert\n        /* \"#utility.yul\":249:251   */\n    tag_280:\n        /* \"#utility.yul\":303:344   */\n      tag_281\n        /* \"#utility.yul\":337:343   */\n      dup5\n        /* \"#utility.yul\":332:335   */\n      dup3\n        /* \"#utility.yul\":327:330   */\n      dup6\n        /* \"#utility.yul\":303:344   */\n      tag_282\n      jump\t// in\n    tag_281:\n        /* \"#utility.yul\":90:350   */\n      pop\n      swap4\n      swap3\n      pop\n      pop\n      pop\n      jump\t// out\n        /* \"#utility.yul\":356:701   */\n    tag_283:\n        /* \"#utility.yul\":434:439   */\n      0x00\n        /* \"#utility.yul\":459:525   */\n      tag_285\n        /* \"#utility.yul\":475:524   */\n      tag_286\n        /* \"#utility.yul\":517:523   */\n      dup5\n        /* \"#utility.yul\":475:524   */\n      tag_287\n      jump\t// in\n    tag_286:\n        /* \"#utility.yul\":459:525   */\n      tag_279\n      jump\t// in\n    tag_285:\n        /* \"#utility.yul\":450:525   */\n      swap1\n      pop\n        /* \"#utility.yul\":548:554   */\n      dup3\n        /* \"#utility.yul\":541:546   */\n      dup2\n        /* \"#utility.yul\":534:555   */\n      mstore\n        /* \"#utility.yul\":586:590   */\n      0x20\n        /* \"#utility.yul\":579:584   */\n      dup2\n        /* \"#utility.yul\":575:591   */\n      add\n        /* \"#utility.yul\":624:627   */\n      dup5\n        /* \"#utility.yul\":615:621   */\n      dup5\n        /* \"#utility.yul\":610:613   */\n      dup5\n        /* \"#utility.yul\":606:622   */\n      add\n        /* \"#utility.yul\":603:628   */\n      gt\n        /* \"#utility.yul\":600:602   */\n      iszero\n      tag_288\n      jumpi\n        /* \"#utility.yul\":641:642   */\n      0x00\n        /* \"#utility.yul\":638:639   */\n      dup1\n        /* \"#utility.yul\":631:643   */\n      revert\n        /* \"#utility.yul\":600:602   */\n    tag_288:\n        /* \"#utility.yul\":654:695   */\n      tag_289\n        /* \"#utility.yul\":688:694   */\n      dup5\n        /* \"#utility.yul\":683:686   */\n      dup3\n        /* \"#utility.yul\":678:681   */\n      dup6\n        /* \"#utility.yul\":654:695   */\n      tag_282\n      jump\t// in\n    tag_289:\n        /* \"#utility.yul\":440:701   */\n      pop\n      swap4\n      swap3\n      pop\n      pop\n      pop\n      jump\t// out\n        /* \"#utility.yul\":707:846   */\n    tag_290:\n        /* \"#utility.yul\":753:758   */\n      0x00\n        /* \"#utility.yul\":791:797   */\n      dup2\n        /* \"#utility.yul\":778:798   */\n      calldataload\n        /* \"#utility.yul\":769:798   */\n      swap1\n      pop\n        /* \"#utility.yul\":807:840   */\n      tag_292\n        /* \"#utility.yul\":834:839   */\n      dup2\n        /* \"#utility.yul\":807:840   */\n      tag_293\n      jump\t// in\n    tag_292:\n        /* \"#utility.yul\":759:846   */\n      swap3\n      swap2\n      pop\n      pop\n      jump\t// out\n        /* \"#utility.yul\":852:985   */\n    tag_294:\n        /* \"#utility.yul\":895:900   */\n      0x00\n        /* \"#utility.yul\":933:939   */\n      dup2\n        /* \"#utility.yul\":920:940   */\n      calldataload\n        /* \"#utility.yul\":911:940   */\n      swap1\n      pop\n        /* \"#utility.yul\":949:979   */\n      tag_296\n        /* \"#utility.yul\":973:978   */\n      dup2\n        /* \"#utility.yul\":949:979   */\n      tag_297\n      jump\t// in\n    tag_296:\n        /* \"#utility.yul\":901:985   */\n      swap3\n      swap2\n      pop\n      pop\n      jump\t// out\n        /* \"#utility.yul\":991:1128   */\n    tag_298:\n        /* \"#utility.yul\":1036:1041   */\n      0x00\n        /* \"#utility.yul\":1074:1080   */\n      dup2\n        /* \"#utility.yul\":1061:1081   */\n      calldataload\n        /* \"#utility.yul\":1052:1081   */\n      swap1\n      pop\n        /* \"#utility.yul\":1090:1122   */\n      tag_300\n        /* \"#utility.yul\":1116:1121   */\n      dup2\n        /* \"#utility.yul\":1090:1122   */\n      tag_301\n      jump\t// in\n    tag_300:\n        /* \"#utility.yul\":1042:1128   */\n      swap3\n      swap2\n      pop\n      pop\n      jump\t// out\n        /* \"#utility.yul\":1134:1275   */\n    tag_302:\n        /* \"#utility.yul\":1190:1195   */\n      0x00\n        /* \"#utility.yul\":1221:1227   */\n      dup2\n        /* \"#utility.yul\":1215:1228   */\n      mload\n        /* \"#utility.yul\":1206:1228   */\n      swap1\n      pop\n        /* \"#utility.yul\":1237:1269   */\n      tag_304\n        /* \"#utility.yul\":1263:1268   */\n      dup2\n        /* \"#utility.yul\":1237:1269   */\n      tag_301\n      jump\t// in\n    tag_304:\n        /* \"#utility.yul\":1196:1275   */\n      swap3\n      swap2\n      pop\n      pop\n      jump\t// out\n        /* \"#utility.yul\":1294:1565   */\n    tag_305:\n        /* \"#utility.yul\":1349:1354   */\n      0x00\n        /* \"#utility.yul\":1398:1401   */\n      dup3\n        /* \"#utility.yul\":1391:1395   */\n      0x1f\n        /* \"#utility.yul\":1383:1389   */\n      dup4\n        /* \"#utility.yul\":1379:1396   */\n      add\n        /* \"#utility.yul\":1375:1402   */\n      slt\n        /* \"#utility.yul\":1365:1367   */\n      tag_307\n      jumpi\n        /* \"#utility.yul\":1416:1417   */\n      0x00\n        /* \"#utility.yul\":1413:1414   */\n      dup1\n        /* \"#utility.yul\":1406:1418   */\n      revert\n        /* \"#utility.yul\":1365:1367   */\n    tag_307:\n        /* \"#utility.yul\":1456:1462   */\n      dup2\n        /* \"#utility.yul\":1443:1463   */\n      calldataload\n        /* \"#utility.yul\":1481:1559   */\n      tag_308\n        /* \"#utility.yul\":1555:1558   */\n      dup5\n        /* \"#utility.yul\":1547:1553   */\n      dup3\n        /* \"#utility.yul\":1540:1544   */\n      0x20\n        /* \"#utility.yul\":1532:1538   */\n      dup7\n        /* \"#utility.yul\":1528:1545   */\n      add\n        /* \"#utility.yul\":1481:1559   */\n      tag_274\n      jump\t// in\n    tag_308:\n        /* \"#utility.yul\":1472:1559   */\n      swap2\n      pop\n        /* \"#utility.yul\":1355:1565   */\n      pop\n      swap3\n      swap2\n      pop\n      pop\n      jump\t// out\n        /* \"#utility.yul\":1585:1858   */\n    tag_309:\n        /* \"#utility.yul\":1641:1646   */\n      0x00\n        /* \"#utility.yul\":1690:1693   */\n      dup3\n        /* \"#utility.yul\":1683:1687   */\n      0x1f\n        /* \"#utility.yul\":1675:1681   */\n      dup4\n        /* \"#utility.yul\":1671:1688   */\n      add\n        /* \"#utility.yul\":1667:1694   */\n      slt\n        /* \"#utility.yul\":1657:1659   */\n      tag_311\n      jumpi\n        /* \"#utility.yul\":1708:1709   */\n      0x00\n        /* \"#utility.yul\":1705:1706   */\n      dup1\n        /* \"#utility.yul\":1698:1710   */\n      revert\n        /* \"#utility.yul\":1657:1659   */\n    tag_311:\n        /* \"#utility.yul\":1748:1754   */\n      dup2\n        /* \"#utility.yul\":1735:1755   */\n      calldataload\n        /* \"#utility.yul\":1773:1852   */\n      tag_312\n        /* \"#utility.yul\":1848:1851   */\n      dup5\n        /* \"#utility.yul\":1840:1846   */\n      dup3\n        /* \"#utility.yul\":1833:1837   */\n      0x20\n        /* \"#utility.yul\":1825:1831   */\n      dup7\n        /* \"#utility.yul\":1821:1838   */\n      add\n        /* \"#utility.yul\":1773:1852   */\n      tag_283\n      jump\t// in\n    tag_312:\n        /* \"#utility.yul\":1764:1852   */\n      swap2\n      pop\n        /* \"#utility.yul\":1647:1858   */\n      pop\n      swap3\n      swap2\n      pop\n      pop\n      jump\t// out\n        /* \"#utility.yul\":1864:2003   */\n    tag_313:\n        /* \"#utility.yul\":1910:1915   */\n      0x00\n        /* \"#utility.yul\":1948:1954   */\n      dup2\n        /* \"#utility.yul\":1935:1955   */\n      calldataload\n        /* \"#utility.yul\":1926:1955   */\n      swap1\n      pop\n        /* \"#utility.yul\":1964:1997   */\n      tag_315\n        /* \"#utility.yul\":1991:1996   */\n      dup2\n        /* \"#utility.yul\":1964:1997   */\n      tag_316\n      jump\t// in\n    tag_315:\n        /* \"#utility.yul\":1916:2003   */\n      swap3\n      swap2\n      pop\n      pop\n      jump\t// out\n        /* \"#utility.yul\":2009:2271   */\n    tag_53:\n        /* \"#utility.yul\":2068:2074   */\n      0x00\n        /* \"#utility.yul\":2117:2119   */\n      0x20\n        /* \"#utility.yul\":2105:2114   */\n      dup3\n        /* \"#utility.yul\":2096:2103   */\n      dup5\n        /* \"#utility.yul\":2092:2115   */\n      sub\n        /* \"#utility.yul\":2088:2120   */\n      slt\n        /* \"#utility.yul\":2085:2087   */\n      iszero\n      tag_318\n      jumpi\n        /* \"#utility.yul\":2133:2134   */\n      0x00\n        /* \"#utility.yul\":2130:2131   */\n      dup1\n        /* \"#utility.yul\":2123:2135   */\n      revert\n        /* \"#utility.yul\":2085:2087   */\n    tag_318:\n        /* \"#utility.yul\":2176:2177   */\n      0x00\n        /* \"#utility.yul\":2201:2254   */\n      tag_319\n        /* \"#utility.yul\":2246:2253   */\n      dup5\n        /* \"#utility.yul\":2237:2243   */\n      dup3\n        /* \"#utility.yul\":2226:2235   */\n      dup6\n        /* \"#utility.yul\":2222:2244   */\n      add\n        /* \"#utility.yul\":2201:2254   */\n      tag_290\n      jump\t// in\n    tag_319:\n        /* \"#utility.yul\":2191:2254   */\n      swap2\n      pop\n        /* \"#utility.yul\":2147:2264   */\n      pop\n        /* \"#utility.yul\":2075:2271   */\n      swap3\n      swap2\n      pop\n      pop\n      jump\t// out\n        /* \"#utility.yul\":2277:2684   */\n    tag_78:\n        /* \"#utility.yul\":2345:2351   */\n      0x00\n        /* \"#utility.yul\":2353:2359   */\n      dup1\n        /* \"#utility.yul\":2402:2404   */\n      0x40\n        /* \"#utility.yul\":2390:2399   */\n      dup4\n        /* \"#utility.yul\":2381:2388   */\n      dup6\n        /* \"#utility.yul\":2377:2400   */\n      sub\n        /* \"#utility.yul\":2373:2405   */\n      slt\n        /* \"#utility.yul\":2370:2372   */\n      iszero\n      tag_321\n      jumpi\n        /* \"#utility.yul\":2418:2419   */\n      0x00\n        /* \"#utility.yul\":2415:2416   */\n      dup1\n        /* \"#utility.yul\":2408:2420   */\n      revert\n        /* \"#utility.yul\":2370:2372   */\n    tag_321:\n        /* \"#utility.yul\":2461:2462   */\n      0x00\n        /* \"#utility.yul\":2486:2539   */\n      tag_322\n        /* \"#utility.yul\":2531:2538   */\n      dup6\n        /* \"#utility.yul\":2522:2528   */\n      dup3\n        /* \"#utility.yul\":2511:2520   */\n      dup7\n        /* \"#utility.yul\":2507:2529   */\n      add\n        /* \"#utility.yul\":2486:2539   */\n      tag_290\n      jump\t// in\n    tag_322:\n        /* \"#utility.yul\":2476:2539   */\n      swap3\n      pop\n        /* \"#utility.yul\":2432:2549   */\n      pop\n        /* \"#utility.yul\":2588:2590   */\n      0x20\n        /* \"#utility.yul\":2614:2667   */\n      tag_323\n        /* \"#utility.yul\":2659:2666   */\n      dup6\n        /* \"#utility.yul\":2650:2656   */\n      dup3\n        /* \"#utility.yul\":2639:2648   */\n      dup7\n        /* \"#utility.yul\":2635:2657   */\n      add\n        /* \"#utility.yul\":2614:2667   */\n      tag_290\n      jump\t// in\n    tag_323:\n        /* \"#utility.yul\":2604:2667   */\n      swap2\n      pop\n        /* \"#utility.yul\":2559:2677   */\n      pop\n        /* \"#utility.yul\":2360:2684   */\n      swap3\n      pop\n      swap3\n      swap1\n      pop\n      jump\t// out\n        /* \"#utility.yul\":2690:3242   */\n    tag_42:\n        /* \"#utility.yul\":2767:2773   */\n      0x00\n        /* \"#utility.yul\":2775:2781   */\n      dup1\n        /* \"#utility.yul\":2783:2789   */\n      0x00\n        /* \"#utility.yul\":2832:2834   */\n      0x60\n        /* \"#utility.yul\":2820:2829   */\n      dup5\n        /* \"#utility.yul\":2811:2818   */\n      dup7\n        /* \"#utility.yul\":2807:2830   */\n      sub\n        /* \"#utility.yul\":2803:2835   */\n      slt\n        /* \"#utility.yul\":2800:2802   */\n      iszero\n      tag_325\n      jumpi\n        /* \"#utility.yul\":2848:2849   */\n      0x00\n        /* \"#utility.yul\":2845:2846   */\n      dup1\n        /* \"#utility.yul\":2838:2850   */\n      revert\n        /* \"#utility.yul\":2800:2802   */\n    tag_325:\n        /* \"#utility.yul\":2891:2892   */\n      0x00\n        /* \"#utility.yul\":2916:2969   */\n      tag_326\n        /* \"#utility.yul\":2961:2968   */\n      dup7\n        /* \"#utility.yul\":2952:2958   */\n      dup3\n        /* \"#utility.yul\":2941:2950   */\n      dup8\n        /* \"#utility.yul\":2937:2959   */\n      add\n        /* \"#utility.yul\":2916:2969   */\n      tag_290\n      jump\t// in\n    tag_326:\n        /* \"#utility.yul\":2906:2969   */\n      swap4\n      pop\n        /* \"#utility.yul\":2862:2979   */\n      pop\n        /* \"#utility.yul\":3018:3020   */\n      0x20\n        /* \"#utility.yul\":3044:3097   */\n      tag_327\n        /* \"#utility.yul\":3089:3096   */\n      dup7\n        /* \"#utility.yul\":3080:3086   */\n      dup3\n        /* \"#utility.yul\":3069:3078   */\n      dup8\n        /* \"#utility.yul\":3065:3087   */\n      add\n        /* \"#utility.yul\":3044:3097   */\n      tag_290\n      jump\t// in\n    tag_327:\n        /* \"#utility.yul\":3034:3097   */\n      swap3\n      pop\n        /* \"#utility.yul\":2989:3107   */\n      pop\n        /* \"#utility.yul\":3146:3148   */\n      0x40\n        /* \"#utility.yul\":3172:3225   */\n      tag_328\n        /* \"#utility.yul\":3217:3224   */\n      dup7\n        /* \"#utility.yul\":3208:3214   */\n      dup3\n        /* \"#utility.yul\":3197:3206   */\n      dup8\n        /* \"#utility.yul\":3193:3215   */\n      add\n        /* \"#utility.yul\":3172:3225   */\n      tag_313\n      jump\t// in\n    tag_328:\n        /* \"#utility.yul\":3162:3225   */\n      swap2\n      pop\n        /* \"#utility.yul\":3117:3235   */\n      pop\n        /* \"#utility.yul\":2790:3242   */\n      swap3\n      pop\n      swap3\n      pop\n      swap3\n      jump\t// out\n        /* \"#utility.yul\":3248:4057   */\n    tag_70:\n        /* \"#utility.yul\":3343:3349   */\n      0x00\n        /* \"#utility.yul\":3351:3357   */\n      dup1\n        /* \"#utility.yul\":3359:3365   */\n      0x00\n        /* \"#utility.yul\":3367:3373   */\n      dup1\n        /* \"#utility.yul\":3416:3419   */\n      0x80\n        /* \"#utility.yul\":3404:3413   */\n      dup6\n        /* \"#utility.yul\":3395:3402   */\n      dup8\n        /* \"#utility.yul\":3391:3414   */\n      sub\n        /* \"#utility.yul\":3387:3420   */\n      slt\n        /* \"#utility.yul\":3384:3386   */\n      iszero\n      tag_330\n      jumpi\n        /* \"#utility.yul\":3433:3434   */\n      0x00\n        /* \"#utility.yul\":3430:3431   */\n      dup1\n        /* \"#utility.yul\":3423:3435   */\n      revert\n        /* \"#utility.yul\":3384:3386   */\n    tag_330:\n        /* \"#utility.yul\":3476:3477   */\n      0x00\n        /* \"#utility.yul\":3501:3554   */\n      tag_331\n        /* \"#utility.yul\":3546:3553   */\n      dup8\n        /* \"#utility.yul\":3537:3543   */\n      dup3\n        /* \"#utility.yul\":3526:3535   */\n      dup9\n        /* \"#utility.yul\":3522:3544   */\n      add\n        /* \"#utility.yul\":3501:3554   */\n      tag_290\n      jump\t// in\n    tag_331:\n        /* \"#utility.yul\":3491:3554   */\n      swap5\n      pop\n        /* \"#utility.yul\":3447:3564   */\n      pop\n        /* \"#utility.yul\":3603:3605   */\n      0x20\n        /* \"#utility.yul\":3629:3682   */\n      tag_332\n        /* \"#utility.yul\":3674:3681   */\n      dup8\n        /* \"#utility.yul\":3665:3671   */\n      dup3\n        /* \"#utility.yul\":3654:3663   */\n      dup9\n        /* \"#utility.yul\":3650:3672   */\n      add\n        /* \"#utility.yul\":3629:3682   */\n      tag_290\n      jump\t// in\n    tag_332:\n        /* \"#utility.yul\":3619:3682   */\n      swap4\n      pop\n        /* \"#utility.yul\":3574:3692   */\n      pop\n        /* \"#utility.yul\":3731:3733   */\n      0x40\n        /* \"#utility.yul\":3757:3810   */\n      tag_333\n        /* \"#utility.yul\":3802:3809   */\n      dup8\n        /* \"#utility.yul\":3793:3799   */\n      dup3\n        /* \"#utility.yul\":3782:3791   */\n      dup9\n        /* \"#utility.yul\":3778:3800   */\n      add\n        /* \"#utility.yul\":3757:3810   */\n      tag_313\n      jump\t// in\n    tag_333:\n        /* \"#utility.yul\":3747:3810   */\n      swap3\n      pop\n        /* \"#utility.yul\":3702:3820   */\n      pop\n        /* \"#utility.yul\":3887:3889   */\n      0x60\n        /* \"#utility.yul\":3876:3885   */\n      dup6\n        /* \"#utility.yul\":3872:3890   */\n      add\n        /* \"#utility.yul\":3859:3891   */\n      calldataload\n        /* \"#utility.yul\":3918:3936   */\n      0xffffffffffffffff\n        /* \"#utility.yul\":3910:3916   */\n      dup2\n        /* \"#utility.yul\":3907:3937   */\n      gt\n        /* \"#utility.yul\":3904:3906   */\n      iszero\n      tag_334\n      jumpi\n        /* \"#utility.yul\":3950:3951   */\n      0x00\n        /* \"#utility.yul\":3947:3948   */\n      dup1\n        /* \"#utility.yul\":3940:3952   */\n      revert\n        /* \"#utility.yul\":3904:3906   */\n    tag_334:\n        /* \"#utility.yul\":3978:4040   */\n      tag_335\n        /* \"#utility.yul\":4032:4039   */\n      dup8\n        /* \"#utility.yul\":4023:4029   */\n      dup3\n        /* \"#utility.yul\":4012:4021   */\n      dup9\n        /* \"#utility.yul\":4008:4030   */\n      add\n        /* \"#utility.yul\":3978:4040   */\n      tag_305\n      jump\t// in\n    tag_335:\n        /* \"#utility.yul\":3968:4040   */\n      swap2\n      pop\n        /* \"#utility.yul\":3830:4050   */\n      pop\n        /* \"#utility.yul\":3374:4057   */\n      swap3\n      swap6\n      swap2\n      swap5\n      pop\n      swap3\n      pop\n      jump\t// out\n        /* \"#utility.yul\":4063:4874   */\n    tag_66:\n        /* \"#utility.yul\":4159:4165   */\n      0x00\n        /* \"#utility.yul\":4167:4173   */\n      dup1\n        /* \"#utility.yul\":4175:4181   */\n      0x00\n        /* \"#utility.yul\":4183:4189   */\n      dup1\n        /* \"#utility.yul\":4232:4235   */\n      0x80\n        /* \"#utility.yul\":4220:4229   */\n      dup6\n        /* \"#utility.yul\":4211:4218   */\n      dup8\n        /* \"#utility.yul\":4207:4230   */\n      sub\n        /* \"#utility.yul\":4203:4236   */\n      slt\n        /* \"#utility.yul\":4200:4202   */\n      iszero\n      tag_337\n      jumpi\n        /* \"#utility.yul\":4249:4250   */\n      0x00\n        /* \"#utility.yul\":4246:4247   */\n      dup1\n        /* \"#utility.yul\":4239:4251   */\n      revert\n        /* \"#utility.yul\":4200:4202   */\n    tag_337:\n        /* \"#utility.yul\":4292:4293   */\n      0x00\n        /* \"#utility.yul\":4317:4370   */\n      tag_338\n        /* \"#utility.yul\":4362:4369   */\n      dup8\n        /* \"#utility.yul\":4353:4359   */\n      dup3\n        /* \"#utility.yul\":4342:4351   */\n      dup9\n        /* \"#utility.yul\":4338:4360   */\n      add\n        /* \"#utility.yul\":4317:4370   */\n      tag_290\n      jump\t// in\n    tag_338:\n        /* \"#utility.yul\":4307:4370   */\n      swap5\n      pop\n        /* \"#utility.yul\":4263:4380   */\n      pop\n        /* \"#utility.yul\":4419:4421   */\n      0x20\n        /* \"#utility.yul\":4445:4498   */\n      tag_339\n        /* \"#utility.yul\":4490:4497   */\n      dup8\n        /* \"#utility.yul\":4481:4487   */\n      dup3\n        /* \"#utility.yul\":4470:4479   */\n      dup9\n        /* \"#utility.yul\":4466:4488   */\n      add\n        /* \"#utility.yul\":4445:4498   */\n      tag_290\n      jump\t// in\n    tag_339:\n        /* \"#utility.yul\":4435:4498   */\n      swap4\n      pop\n        /* \"#utility.yul\":4390:4508   */\n      pop\n        /* \"#utility.yul\":4547:4549   */\n      0x40\n        /* \"#utility.yul\":4573:4626   */\n      tag_340\n        /* \"#utility.yul\":4618:4625   */\n      dup8\n        /* \"#utility.yul\":4609:4615   */\n      dup3\n        /* \"#utility.yul\":4598:4607   */\n      dup9\n        /* \"#utility.yul\":4594:4616   */\n      add\n        /* \"#utility.yul\":4573:4626   */\n      tag_313\n      jump\t// in\n    tag_340:\n        /* \"#utility.yul\":4563:4626   */\n      swap3\n      pop\n        /* \"#utility.yul\":4518:4636   */\n      pop\n        /* \"#utility.yul\":4703:4705   */\n      0x60\n        /* \"#utility.yul\":4692:4701   */\n      dup6\n        /* \"#utility.yul\":4688:4706   */\n      add\n        /* \"#utility.yul\":4675:4707   */\n      calldataload\n        /* \"#utility.yul\":4734:4752   */\n      0xffffffffffffffff\n        /* \"#utility.yul\":4726:4732   */\n      dup2\n        /* \"#utility.yul\":4723:4753   */\n      gt\n        /* \"#utility.yul\":4720:4722   */\n      iszero\n      tag_341\n      jumpi\n        /* \"#utility.yul\":4766:4767   */\n      0x00\n        /* \"#utility.yul\":4763:4764   */\n      dup1\n        /* \"#utility.yul\":4756:4768   */\n      revert\n        /* \"#utility.yul\":4720:4722   */\n    tag_341:\n        /* \"#utility.yul\":4794:4857   */\n      tag_342\n        /* \"#utility.yul\":4849:4856   */\n      dup8\n        /* \"#utility.yul\":4840:4846   */\n      dup3\n        /* \"#utility.yul\":4829:4838   */\n      dup9\n        /* \"#utility.yul\":4825:4847   */\n      add\n        /* \"#utility.yul\":4794:4857   */\n      tag_309\n      jump\t// in\n    tag_342:\n        /* \"#utility.yul\":4784:4857   */\n      swap2\n      pop\n        /* \"#utility.yul\":4646:4867   */\n      pop\n        /* \"#utility.yul\":4190:4874   */\n      swap3\n      swap6\n      swap2\n      swap5\n      pop\n      swap3\n      pop\n      jump\t// out\n        /* \"#utility.yul\":4880:5281   */\n    tag_62:\n        /* \"#utility.yul\":4945:4951   */\n      0x00\n        /* \"#utility.yul\":4953:4959   */\n      dup1\n        /* \"#utility.yul\":5002:5004   */\n      0x40\n        /* \"#utility.yul\":4990:4999   */\n      dup4\n        /* \"#utility.yul\":4981:4988   */\n      dup6\n        /* \"#utility.yul\":4977:5000   */\n      sub\n        /* \"#utility.yul\":4973:5005   */\n      slt\n        /* \"#utility.yul\":4970:4972   */\n      iszero\n      tag_344\n      jumpi\n        /* \"#utility.yul\":5018:5019   */\n      0x00\n        /* \"#utility.yul\":5015:5016   */\n      dup1\n        /* \"#utility.yul\":5008:5020   */\n      revert\n        /* \"#utility.yul\":4970:4972   */\n    tag_344:\n        /* \"#utility.yul\":5061:5062   */\n      0x00\n        /* \"#utility.yul\":5086:5139   */\n      tag_345\n        /* \"#utility.yul\":5131:5138   */\n      dup6\n        /* \"#utility.yul\":5122:5128   */\n      dup3\n        /* \"#utility.yul\":5111:5120   */\n      dup7\n        /* \"#utility.yul\":5107:5129   */\n      add\n        /* \"#utility.yul\":5086:5139   */\n      tag_290\n      jump\t// in\n    tag_345:\n        /* \"#utility.yul\":5076:5139   */\n      swap3\n      pop\n        /* \"#utility.yul\":5032:5149   */\n      pop\n        /* \"#utility.yul\":5188:5190   */\n      0x20\n        /* \"#utility.yul\":5214:5264   */\n      tag_346\n        /* \"#utility.yul\":5256:5263   */\n      dup6\n        /* \"#utility.yul\":5247:5253   */\n      dup3\n        /* \"#utility.yul\":5236:5245   */\n      dup7\n        /* \"#utility.yul\":5232:5254   */\n      add\n        /* \"#utility.yul\":5214:5264   */\n      tag_294\n      jump\t// in\n    tag_346:\n        /* \"#utility.yul\":5204:5264   */\n      swap2\n      pop\n        /* \"#utility.yul\":5159:5274   */\n      pop\n        /* \"#utility.yul\":4960:5281   */\n      swap3\n      pop\n      swap3\n      swap1\n      pop\n      jump\t// out\n        /* \"#utility.yul\":5287:5694   */\n    tag_38:\n        /* \"#utility.yul\":5355:5361   */\n      0x00\n        /* \"#utility.yul\":5363:5369   */\n      dup1\n        /* \"#utility.yul\":5412:5414   */\n      0x40\n        /* \"#utility.yul\":5400:5409   */\n      dup4\n        /* \"#utility.yul\":5391:5398   */\n      dup6\n        /* \"#utility.yul\":5387:5410   */\n      sub\n        /* \"#utility.yul\":5383:5415   */\n      slt\n        /* \"#utility.yul\":5380:5382   */\n      iszero\n      tag_348\n      jumpi\n        /* \"#utility.yul\":5428:5429   */\n      0x00\n        /* \"#utility.yul\":5425:5426   */\n      dup1\n        /* \"#utility.yul\":5418:5430   */\n      revert\n        /* \"#utility.yul\":5380:5382   */\n    tag_348:\n        /* \"#utility.yul\":5471:5472   */\n      0x00\n        /* \"#utility.yul\":5496:5549   */\n      tag_349\n        /* \"#utility.yul\":5541:5548   */\n      dup6\n        /* \"#utility.yul\":5532:5538   */\n      dup3\n        /* \"#utility.yul\":5521:5530   */\n      dup7\n        /* \"#utility.yul\":5517:5539   */\n      add\n        /* \"#utility.yul\":5496:5549   */\n      tag_290\n      jump\t// in\n    tag_349:\n        /* \"#utility.yul\":5486:5549   */\n      swap3\n      pop\n        /* \"#utility.yul\":5442:5559   */\n      pop\n        /* \"#utility.yul\":5598:5600   */\n      0x20\n        /* \"#utility.yul\":5624:5677   */\n      tag_350\n        /* \"#utility.yul\":5669:5676   */\n      dup6\n        /* \"#utility.yul\":5660:5666   */\n      dup3\n        /* \"#utility.yul\":5649:5658   */\n      dup7\n        /* \"#utility.yul\":5645:5667   */\n      add\n        /* \"#utility.yul\":5624:5677   */\n      tag_313\n      jump\t// in\n    tag_350:\n        /* \"#utility.yul\":5614:5677   */\n      swap2\n      pop\n        /* \"#utility.yul\":5569:5687   */\n      pop\n        /* \"#utility.yul\":5370:5694   */\n      swap3\n      pop\n      swap3\n      swap1\n      pop\n      jump\t// out\n        /* \"#utility.yul\":5700:5960   */\n    tag_22:\n        /* \"#utility.yul\":5758:5764   */\n      0x00\n        /* \"#utility.yul\":5807:5809   */\n      0x20\n        /* \"#utility.yul\":5795:5804   */\n      dup3\n        /* \"#utility.yul\":5786:5793   */\n      dup5\n        /* \"#utility.yul\":5782:5805   */\n      sub\n        /* \"#utility.yul\":5778:5810   */\n      slt\n        /* \"#utility.yul\":5775:5777   */\n      iszero\n      tag_352\n      jumpi\n        /* \"#utility.yul\":5823:5824   */\n      0x00\n        /* \"#utility.yul\":5820:5821   */\n      dup1\n        /* \"#utility.yul\":5813:5825   */\n      revert\n        /* \"#utility.yul\":5775:5777   */\n    tag_352:\n        /* \"#utility.yul\":5866:5867   */\n      0x00\n        /* \"#utility.yul\":5891:5943   */\n      tag_353\n        /* \"#utility.yul\":5935:5942   */\n      dup5\n        /* \"#utility.yul\":5926:5932   */\n      dup3\n        /* \"#utility.yul\":5915:5924   */\n      dup6\n        /* \"#utility.yul\":5911:5933   */\n      add\n        /* \"#utility.yul\":5891:5943   */\n      tag_298\n      jump\t// in\n    tag_353:\n        /* \"#utility.yul\":5881:5943   */\n      swap2\n      pop\n        /* \"#utility.yul\":5837:5953   */\n      pop\n        /* \"#utility.yul\":5765:5960   */\n      swap3\n      swap2\n      pop\n      pop\n      jump\t// out\n        /* \"#utility.yul\":5966:6248   */\n    tag_247:\n        /* \"#utility.yul\":6035:6041   */\n      0x00\n        /* \"#utility.yul\":6084:6086   */\n      0x20\n        /* \"#utility.yul\":6072:6081   */\n      dup3\n        /* \"#utility.yul\":6063:6070   */\n      dup5\n        /* \"#utility.yul\":6059:6082   */\n      sub\n        /* \"#utility.yul\":6055:6087   */\n      slt\n        /* \"#utility.yul\":6052:6054   */\n      iszero\n      tag_355\n      jumpi\n        /* \"#utility.yul\":6100:6101   */\n      0x00\n        /* \"#utility.yul\":6097:6098   */\n      dup1\n        /* \"#utility.yul\":6090:6102   */\n      revert\n        /* \"#utility.yul\":6052:6054   */\n    tag_355:\n        /* \"#utility.yul\":6143:6144   */\n      0x00\n        /* \"#utility.yul\":6168:6231   */\n      tag_356\n        /* \"#utility.yul\":6223:6230   */\n      dup5\n        /* \"#utility.yul\":6214:6220   */\n      dup3\n        /* \"#utility.yul\":6203:6212   */\n      dup6\n        /* \"#utility.yul\":6199:6221   */\n      add\n        /* \"#utility.yul\":6168:6231   */\n      tag_302\n      jump\t// in\n    tag_356:\n        /* \"#utility.yul\":6158:6231   */\n      swap2\n      pop\n        /* \"#utility.yul\":6114:6241   */\n      pop\n        /* \"#utility.yul\":6042:6248   */\n      swap3\n      swap2\n      pop\n      pop\n      jump\t// out\n        /* \"#utility.yul\":6254:6516   */\n    tag_32:\n        /* \"#utility.yul\":6313:6319   */\n      0x00\n        /* \"#utility.yul\":6362:6364   */\n      0x20\n        /* \"#utility.yul\":6350:6359   */\n      dup3\n        /* \"#utility.yul\":6341:6348   */\n      dup5\n        /* \"#utility.yul\":6337:6360   */\n      sub\n        /* \"#utility.yul\":6333:6365   */\n      slt\n        /* \"#utility.yul\":6330:6332   */\n      iszero\n      tag_358\n      jumpi\n        /* \"#utility.yul\":6378:6379   */\n      0x00\n        /* \"#utility.yul\":6375:6376   */\n      dup1\n        /* \"#utility.yul\":6368:6380   */\n      revert\n        /* \"#utility.yul\":6330:6332   */\n    tag_358:\n        /* \"#utility.yul\":6421:6422   */\n      0x00\n        /* \"#utility.yul\":6446:6499   */\n      tag_359\n        /* \"#utility.yul\":6491:6498   */\n      dup5\n        /* \"#utility.yul\":6482:6488   */\n      dup3\n        /* \"#utility.yul\":6471:6480   */\n      dup6\n        /* \"#utility.yul\":6467:6489   */\n      add\n        /* \"#utility.yul\":6446:6499   */\n      tag_313\n      jump\t// in\n    tag_359:\n        /* \"#utility.yul\":6436:6499   */\n      swap2\n      pop\n        /* \"#utility.yul\":6392:6509   */\n      pop\n        /* \"#utility.yul\":6320:6516   */\n      swap3\n      swap2\n      pop\n      pop\n      jump\t// out\n        /* \"#utility.yul\":6522:6640   */\n    tag_360:\n        /* \"#utility.yul\":6609:6633   */\n      tag_362\n        /* \"#utility.yul\":6627:6632   */\n      dup2\n        /* \"#utility.yul\":6609:6633   */\n      tag_363\n      jump\t// in\n    tag_362:\n        /* \"#utility.yul\":6604:6607   */\n      dup3\n        /* \"#utility.yul\":6597:6634   */\n      mstore\n        /* \"#utility.yul\":6587:6640   */\n      pop\n      pop\n      jump\t// out\n        /* \"#utility.yul\":6646:6755   */\n    tag_364:\n        /* \"#utility.yul\":6727:6748   */\n      tag_366\n        /* \"#utility.yul\":6742:6747   */\n      dup2\n        /* \"#utility.yul\":6727:6748   */\n      tag_367\n      jump\t// in\n    tag_366:\n        /* \"#utility.yul\":6722:6725   */\n      dup3\n        /* \"#utility.yul\":6715:6749   */\n      mstore\n        /* \"#utility.yul\":6705:6755   */\n      pop\n      pop\n      jump\t// out\n        /* \"#utility.yul\":6761:7121   */\n    tag_368:\n        /* \"#utility.yul\":6847:6850   */\n      0x00\n        /* \"#utility.yul\":6875:6913   */\n      tag_370\n        /* \"#utility.yul\":6907:6912   */\n      dup3\n        /* \"#utility.yul\":6875:6913   */\n      tag_371\n      jump\t// in\n    tag_370:\n        /* \"#utility.yul\":6929:6999   */\n      tag_372\n        /* \"#utility.yul\":6992:6998   */\n      dup2\n        /* \"#utility.yul\":6987:6990   */\n      dup6\n        /* \"#utility.yul\":6929:6999   */\n      tag_373\n      jump\t// in\n    tag_372:\n        /* \"#utility.yul\":6922:6999   */\n      swap4\n      pop\n        /* \"#utility.yul\":7008:7060   */\n      tag_374\n        /* \"#utility.yul\":7053:7059   */\n      dup2\n        /* \"#utility.yul\":7048:7051   */\n      dup6\n        /* \"#utility.yul\":7041:7045   */\n      0x20\n        /* \"#utility.yul\":7034:7039   */\n      dup7\n        /* \"#utility.yul\":7030:7046   */\n      add\n        /* \"#utility.yul\":7008:7060   */\n      tag_375\n      jump\t// in\n    tag_374:\n        /* \"#utility.yul\":7085:7114   */\n      tag_376\n        /* \"#utility.yul\":7107:7113   */\n      dup2\n        /* \"#utility.yul\":7085:7114   */\n      tag_377\n      jump\t// in\n    tag_376:\n        /* \"#utility.yul\":7080:7083   */\n      dup5\n        /* \"#utility.yul\":7076:7115   */\n      add\n        /* \"#utility.yul\":7069:7115   */\n      swap2\n      pop\n        /* \"#utility.yul\":6851:7121   */\n      pop\n      swap3\n      swap2\n      pop\n      pop\n      jump\t// out\n        /* \"#utility.yul\":7127:7491   */\n    tag_378:\n        /* \"#utility.yul\":7215:7218   */\n      0x00\n        /* \"#utility.yul\":7243:7282   */\n      tag_380\n        /* \"#utility.yul\":7276:7281   */\n      dup3\n        /* \"#utility.yul\":7243:7282   */\n      tag_381\n      jump\t// in\n    tag_380:\n        /* \"#utility.yul\":7298:7369   */\n      tag_382\n        /* \"#utility.yul\":7362:7368   */\n      dup2\n        /* \"#utility.yul\":7357:7360   */\n      dup6\n        /* \"#utility.yul\":7298:7369   */\n      tag_383\n      jump\t// in\n    tag_382:\n        /* \"#utility.yul\":7291:7369   */\n      swap4\n      pop\n        /* \"#utility.yul\":7378:7430   */\n      tag_384\n        /* \"#utility.yul\":7423:7429   */\n      dup2\n        /* \"#utility.yul\":7418:7421   */\n      dup6\n        /* \"#utility.yul\":7411:7415   */\n      0x20\n        /* \"#utility.yul\":7404:7409   */\n      dup7\n        /* \"#utility.yul\":7400:7416   */\n      add\n        /* \"#utility.yul\":7378:7430   */\n      tag_375\n      jump\t// in\n    tag_384:\n        /* \"#utility.yul\":7455:7484   */\n      tag_385\n        /* \"#utility.yul\":7477:7483   */\n      dup2\n        /* \"#utility.yul\":7455:7484   */\n      tag_377\n      jump\t// in\n    tag_385:\n        /* \"#utility.yul\":7450:7453   */\n      dup5\n        /* \"#utility.yul\":7446:7485   */\n      add\n        /* \"#utility.yul\":7439:7485   */\n      swap2\n      pop\n        /* \"#utility.yul\":7219:7491   */\n      pop\n      swap3\n      swap2\n      pop\n      pop\n      jump\t// out\n        /* \"#utility.yul\":7497:7874   */\n    tag_386:\n        /* \"#utility.yul\":7603:7606   */\n      0x00\n        /* \"#utility.yul\":7631:7670   */\n      tag_388\n        /* \"#utility.yul\":7664:7669   */\n      dup3\n        /* \"#utility.yul\":7631:7670   */\n      tag_381\n      jump\t// in\n    tag_388:\n        /* \"#utility.yul\":7686:7775   */\n      tag_389\n        /* \"#utility.yul\":7768:7774   */\n      dup2\n        /* \"#utility.yul\":7763:7766   */\n      dup6\n        /* \"#utility.yul\":7686:7775   */\n      tag_390\n      jump\t// in\n    tag_389:\n        /* \"#utility.yul\":7679:7775   */\n      swap4\n      pop\n        /* \"#utility.yul\":7784:7836   */\n      tag_391\n        /* \"#utility.yul\":7829:7835   */\n      dup2\n        /* \"#utility.yul\":7824:7827   */\n      dup6\n        /* \"#utility.yul\":7817:7821   */\n      0x20\n        /* \"#utility.yul\":7810:7815   */\n      dup7\n        /* \"#utility.yul\":7806:7822   */\n      add\n        /* \"#utility.yul\":7784:7836   */\n      tag_375\n      jump\t// in\n    tag_391:\n        /* \"#utility.yul\":7861:7867   */\n      dup1\n        /* \"#utility.yul\":7856:7859   */\n      dup5\n        /* \"#utility.yul\":7852:7868   */\n      add\n        /* \"#utility.yul\":7845:7868   */\n      swap2\n      pop\n        /* \"#utility.yul\":7607:7874   */\n      pop\n      swap3\n      swap2\n      pop\n      pop\n      jump\t// out\n        /* \"#utility.yul\":7880:8246   */\n    tag_392:\n        /* \"#utility.yul\":8022:8025   */\n      0x00\n        /* \"#utility.yul\":8043:8110   */\n      tag_394\n        /* \"#utility.yul\":8107:8109   */\n      0x2d\n        /* \"#utility.yul\":8102:8105   */\n      dup4\n        /* \"#utility.yul\":8043:8110   */\n      tag_383\n      jump\t// in\n    tag_394:\n        /* \"#utility.yul\":8036:8110   */\n      swap2\n      pop\n        /* \"#utility.yul\":8119:8212   */\n      tag_395\n        /* \"#utility.yul\":8208:8211   */\n      dup3\n        /* \"#utility.yul\":8119:8212   */\n      tag_396\n      jump\t// in\n    tag_395:\n        /* \"#utility.yul\":8237:8239   */\n      0x40\n        /* \"#utility.yul\":8232:8235   */\n      dup3\n        /* \"#utility.yul\":8228:8240   */\n      add\n        /* \"#utility.yul\":8221:8240   */\n      swap1\n      pop\n        /* \"#utility.yul\":8026:8246   */\n      swap2\n      swap1\n      pop\n      jump\t// out\n        /* \"#utility.yul\":8252:8618   */\n    tag_397:\n        /* \"#utility.yul\":8394:8397   */\n      0x00\n        /* \"#utility.yul\":8415:8482   */\n      tag_399\n        /* \"#utility.yul\":8479:8481   */\n      0x32\n        /* \"#utility.yul\":8474:8477   */\n      dup4\n        /* \"#utility.yul\":8415:8482   */\n      tag_383\n      jump\t// in\n    tag_399:\n        /* \"#utility.yul\":8408:8482   */\n      swap2\n      pop\n        /* \"#utility.yul\":8491:8584   */\n      tag_400\n        /* \"#utility.yul\":8580:8583   */\n      dup3\n        /* \"#utility.yul\":8491:8584   */\n      tag_401\n      jump\t// in\n    tag_400:\n        /* \"#utility.yul\":8609:8611   */\n      0x40\n        /* \"#utility.yul\":8604:8607   */\n      dup3\n        /* \"#utility.yul\":8600:8612   */\n      add\n        /* \"#utility.yul\":8593:8612   */\n      swap1\n      pop\n        /* \"#utility.yul\":8398:8618   */\n      swap2\n      swap1\n      pop\n      jump\t// out\n        /* \"#utility.yul\":8624:8990   */\n    tag_402:\n        /* \"#utility.yul\":8766:8769   */\n      0x00\n        /* \"#utility.yul\":8787:8854   */\n      tag_404\n        /* \"#utility.yul\":8851:8853   */\n      0x25\n        /* \"#utility.yul\":8846:8849   */\n      dup4\n        /* \"#utility.yul\":8787:8854   */\n      tag_383\n      jump\t// in\n    tag_404:\n        /* \"#utility.yul\":8780:8854   */\n      swap2\n      pop\n        /* \"#utility.yul\":8863:8956   */\n      tag_405\n        /* \"#utility.yul\":8952:8955   */\n      dup3\n        /* \"#utility.yul\":8863:8956   */\n      tag_406\n      jump\t// in\n    tag_405:\n        /* \"#utility.yul\":8981:8983   */\n      0x40\n        /* \"#utility.yul\":8976:8979   */\n      dup3\n        /* \"#utility.yul\":8972:8984   */\n      add\n        /* \"#utility.yul\":8965:8984   */\n      swap1\n      pop\n        /* \"#utility.yul\":8770:8990   */\n      swap2\n      swap1\n      pop\n      jump\t// out\n        /* \"#utility.yul\":8996:9362   */\n    tag_407:\n        /* \"#utility.yul\":9138:9141   */\n      0x00\n        /* \"#utility.yul\":9159:9226   */\n      tag_409\n        /* \"#utility.yul\":9223:9225   */\n      0x1c\n        /* \"#utility.yul\":9218:9221   */\n      dup4\n        /* \"#utility.yul\":9159:9226   */\n      tag_383\n      jump\t// in\n    tag_409:\n        /* \"#utility.yul\":9152:9226   */\n      swap2\n      pop\n        /* \"#utility.yul\":9235:9328   */\n      tag_410\n        /* \"#utility.yul\":9324:9327   */\n      dup3\n        /* \"#utility.yul\":9235:9328   */\n      tag_411\n      jump\t// in\n    tag_410:\n        /* \"#utility.yul\":9353:9355   */\n      0x20\n        /* \"#utility.yul\":9348:9351   */\n      dup3\n        /* \"#utility.yul\":9344:9356   */\n      add\n        /* \"#utility.yul\":9337:9356   */\n      swap1\n      pop\n        /* \"#utility.yul\":9142:9362   */\n      swap2\n      swap1\n      pop\n      jump\t// out\n        /* \"#utility.yul\":9368:9734   */\n    tag_412:\n        /* \"#utility.yul\":9510:9513   */\n      0x00\n        /* \"#utility.yul\":9531:9598   */\n      tag_414\n        /* \"#utility.yul\":9595:9597   */\n      0x24\n        /* \"#utility.yul\":9590:9593   */\n      dup4\n        /* \"#utility.yul\":9531:9598   */\n      tag_383\n      jump\t// in\n    tag_414:\n        /* \"#utility.yul\":9524:9598   */\n      swap2\n      pop\n        /* \"#utility.yul\":9607:9700   */\n      tag_415\n        /* \"#utility.yul\":9696:9699   */\n      dup3\n        /* \"#utility.yul\":9607:9700   */\n      tag_416\n      jump\t// in\n    tag_415:\n        /* \"#utility.yul\":9725:9727   */\n      0x40\n        /* \"#utility.yul\":9720:9723   */\n      dup3\n        /* \"#utility.yul\":9716:9728   */\n      add\n        /* \"#utility.yul\":9709:9728   */\n      swap1\n      pop\n        /* \"#utility.yul\":9514:9734   */\n      swap2\n      swap1\n      pop\n      jump\t// out\n        /* \"#utility.yul\":9740:10106   */\n    tag_417:\n        /* \"#utility.yul\":9882:9885   */\n      0x00\n        /* \"#utility.yul\":9903:9970   */\n      tag_419\n        /* \"#utility.yul\":9967:9969   */\n      0x19\n        /* \"#utility.yul\":9962:9965   */\n      dup4\n        /* \"#utility.yul\":9903:9970   */\n      tag_383\n      jump\t// in\n    tag_419:\n        /* \"#utility.yul\":9896:9970   */\n      swap2\n      pop\n        /* \"#utility.yul\":9979:10072   */\n      tag_420\n        /* \"#utility.yul\":10068:10071   */\n      dup3\n        /* \"#utility.yul\":9979:10072   */\n      tag_421\n      jump\t// in\n    tag_420:\n        /* \"#utility.yul\":10097:10099   */\n      0x20\n        /* \"#utility.yul\":10092:10095   */\n      dup3\n        /* \"#utility.yul\":10088:10100   */\n      add\n        /* \"#utility.yul\":10081:10100   */\n      swap1\n      pop\n        /* \"#utility.yul\":9886:10106   */\n      swap2\n      swap1\n      pop\n      jump\t// out\n        /* \"#utility.yul\":10112:10478   */\n    tag_422:\n        /* \"#utility.yul\":10254:10257   */\n      0x00\n        /* \"#utility.yul\":10275:10342   */\n      tag_424\n        /* \"#utility.yul\":10339:10341   */\n      0x29\n        /* \"#utility.yul\":10334:10337   */\n      dup4\n        /* \"#utility.yul\":10275:10342   */\n      tag_383\n      jump\t// in\n    tag_424:\n        /* \"#utility.yul\":10268:10342   */\n      swap2\n      pop\n        /* \"#utility.yul\":10351:10444   */\n      tag_425\n        /* \"#utility.yul\":10440:10443   */\n      dup3\n        /* \"#utility.yul\":10351:10444   */\n      tag_426\n      jump\t// in\n    tag_425:\n        /* \"#utility.yul\":10469:10471   */\n      0x40\n        /* \"#utility.yul\":10464:10467   */\n      dup3\n        /* \"#utility.yul\":10460:10472   */\n      add\n        /* \"#utility.yul\":10453:10472   */\n      swap1\n      pop\n        /* \"#utility.yul\":10258:10478   */\n      swap2\n      swap1\n      pop\n      jump\t// out\n        /* \"#utility.yul\":10484:10850   */\n    tag_427:\n        /* \"#utility.yul\":10626:10629   */\n      0x00\n        /* \"#utility.yul\":10647:10714   */\n      tag_429\n        /* \"#utility.yul\":10711:10713   */\n      0x20\n        /* \"#utility.yul\":10706:10709   */\n      dup4\n        /* \"#utility.yul\":10647:10714   */\n      tag_383\n      jump\t// in\n    tag_429:\n        /* \"#utility.yul\":10640:10714   */\n      swap2\n      pop\n        /* \"#utility.yul\":10723:10816   */\n      tag_430\n        /* \"#utility.yul\":10812:10815   */\n      dup3\n        /* \"#utility.yul\":10723:10816   */\n      tag_431\n      jump\t// in\n    tag_430:\n        /* \"#utility.yul\":10841:10843   */\n      0x20\n        /* \"#utility.yul\":10836:10839   */\n      dup3\n        /* \"#utility.yul\":10832:10844   */\n      add\n        /* \"#utility.yul\":10825:10844   */\n      swap1\n      pop\n        /* \"#utility.yul\":10630:10850   */\n      swap2\n      swap1\n      pop\n      jump\t// out\n        /* \"#utility.yul\":10856:11222   */\n    tag_432:\n        /* \"#utility.yul\":10998:11001   */\n      0x00\n        /* \"#utility.yul\":11019:11086   */\n      tag_434\n        /* \"#utility.yul\":11083:11085   */\n      0x18\n        /* \"#utility.yul\":11078:11081   */\n      dup4\n        /* \"#utility.yul\":11019:11086   */\n      tag_383\n      jump\t// in\n    tag_434:\n        /* \"#utility.yul\":11012:11086   */\n      swap2\n      pop\n        /* \"#utility.yul\":11095:11188   */\n      tag_435\n        /* \"#utility.yul\":11184:11187   */\n      dup3\n        /* \"#utility.yul\":11095:11188   */\n      tag_436\n      jump\t// in\n    tag_435:\n        /* \"#utility.yul\":11213:11215   */\n      0x20\n        /* \"#utility.yul\":11208:11211   */\n      dup3\n        /* \"#utility.yul\":11204:11216   */\n      add\n        /* \"#utility.yul\":11197:11216   */\n      swap1\n      pop\n        /* \"#utility.yul\":11002:11222   */\n      swap2\n      swap1\n      pop\n      jump\t// out\n        /* \"#utility.yul\":11228:11594   */\n    tag_437:\n        /* \"#utility.yul\":11370:11373   */\n      0x00\n        /* \"#utility.yul\":11391:11458   */\n      tag_439\n        /* \"#utility.yul\":11455:11457   */\n      0x21\n        /* \"#utility.yul\":11450:11453   */\n      dup4\n        /* \"#utility.yul\":11391:11458   */\n      tag_383\n      jump\t// in\n    tag_439:\n        /* \"#utility.yul\":11384:11458   */\n      swap2\n      pop\n        /* \"#utility.yul\":11467:11560   */\n      tag_440\n        /* \"#utility.yul\":11556:11559   */\n      dup3\n        /* \"#utility.yul\":11467:11560   */\n      tag_441\n      jump\t// in\n    tag_440:\n        /* \"#utility.yul\":11585:11587   */\n      0x40\n        /* \"#utility.yul\":11580:11583   */\n      dup3\n        /* \"#utility.yul\":11576:11588   */\n      add\n        /* \"#utility.yul\":11569:11588   */\n      swap1\n      pop\n        /* \"#utility.yul\":11374:11594   */\n      swap2\n      swap1\n      pop\n      jump\t// out\n        /* \"#utility.yul\":11600:11966   */\n    tag_442:\n        /* \"#utility.yul\":11742:11745   */\n      0x00\n        /* \"#utility.yul\":11763:11830   */\n      tag_444\n        /* \"#utility.yul\":11827:11829   */\n      0x3d\n        /* \"#utility.yul\":11822:11825   */\n      dup4\n        /* \"#utility.yul\":11763:11830   */\n      tag_383\n      jump\t// in\n    tag_444:\n        /* \"#utility.yul\":11756:11830   */\n      swap2\n      pop\n        /* \"#utility.yul\":11839:11932   */\n      tag_445\n        /* \"#utility.yul\":11928:11931   */\n      dup3\n        /* \"#utility.yul\":11839:11932   */\n      tag_446\n      jump\t// in\n    tag_445:\n        /* \"#utility.yul\":11957:11959   */\n      0x40\n        /* \"#utility.yul\":11952:11955   */\n      dup3\n        /* \"#utility.yul\":11948:11960   */\n      add\n        /* \"#utility.yul\":11941:11960   */\n      swap1\n      pop\n        /* \"#utility.yul\":11746:11966   */\n      swap2\n      swap1\n      pop\n      jump\t// out\n        /* \"#utility.yul\":11972:12090   */\n    tag_447:\n        /* \"#utility.yul\":12059:12083   */\n      tag_449\n        /* \"#utility.yul\":12077:12082   */\n      dup2\n        /* \"#utility.yul\":12059:12083   */\n      tag_450\n      jump\t// in\n    tag_449:\n        /* \"#utility.yul\":12054:12057   */\n      dup3\n        /* \"#utility.yul\":12047:12084   */\n      mstore\n        /* \"#utility.yul\":12037:12090   */\n      pop\n      pop\n      jump\t// out\n        /* \"#utility.yul\":12096:12531   */\n    tag_160:\n        /* \"#utility.yul\":12276:12279   */\n      0x00\n        /* \"#utility.yul\":12298:12393   */\n      tag_452\n        /* \"#utility.yul\":12389:12392   */\n      dup3\n        /* \"#utility.yul\":12380:12386   */\n      dup6\n        /* \"#utility.yul\":12298:12393   */\n      tag_386\n      jump\t// in\n    tag_452:\n        /* \"#utility.yul\":12291:12393   */\n      swap2\n      pop\n        /* \"#utility.yul\":12410:12505   */\n      tag_453\n        /* \"#utility.yul\":12501:12504   */\n      dup3\n        /* \"#utility.yul\":12492:12498   */\n      dup5\n        /* \"#utility.yul\":12410:12505   */\n      tag_386\n      jump\t// in\n    tag_453:\n        /* \"#utility.yul\":12403:12505   */\n      swap2\n      pop\n        /* \"#utility.yul\":12522:12525   */\n      dup2\n        /* \"#utility.yul\":12515:12525   */\n      swap1\n      pop\n        /* \"#utility.yul\":12280:12531   */\n      swap4\n      swap3\n      pop\n      pop\n      pop\n      jump\t// out\n        /* \"#utility.yul\":12537:12759   */\n    tag_35:\n        /* \"#utility.yul\":12630:12634   */\n      0x00\n        /* \"#utility.yul\":12668:12670   */\n      0x20\n        /* \"#utility.yul\":12657:12666   */\n      dup3\n        /* \"#utility.yul\":12653:12671   */\n      add\n        /* \"#utility.yul\":12645:12671   */\n      swap1\n      pop\n        /* \"#utility.yul\":12681:12752   */\n      tag_455\n        /* \"#utility.yul\":12749:12750   */\n      0x00\n        /* \"#utility.yul\":12738:12747   */\n      dup4\n        /* \"#utility.yul\":12734:12751   */\n      add\n        /* \"#utility.yul\":12725:12731   */\n      dup5\n        /* \"#utility.yul\":12681:12752   */\n      tag_360\n      jump\t// in\n    tag_455:\n        /* \"#utility.yul\":12635:12759   */\n      swap3\n      swap2\n      pop\n      pop\n      jump\t// out\n        /* \"#utility.yul\":12765:13405   */\n    tag_243:\n        /* \"#utility.yul\":12960:12964   */\n      0x00\n        /* \"#utility.yul\":12998:13001   */\n      0x80\n        /* \"#utility.yul\":12987:12996   */\n      dup3\n        /* \"#utility.yul\":12983:13002   */\n      add\n        /* \"#utility.yul\":12975:13002   */\n      swap1\n      pop\n        /* \"#utility.yul\":13012:13083   */\n      tag_457\n        /* \"#utility.yul\":13080:13081   */\n      0x00\n        /* \"#utility.yul\":13069:13078   */\n      dup4\n        /* \"#utility.yul\":13065:13082   */\n      add\n        /* \"#utility.yul\":13056:13062   */\n      dup8\n        /* \"#utility.yul\":13012:13083   */\n      tag_360\n      jump\t// in\n    tag_457:\n        /* \"#utility.yul\":13093:13165   */\n      tag_458\n        /* \"#utility.yul\":13161:13163   */\n      0x20\n        /* \"#utility.yul\":13150:13159   */\n      dup4\n        /* \"#utility.yul\":13146:13164   */\n      add\n        /* \"#utility.yul\":13137:13143   */\n      dup7\n        /* \"#utility.yul\":13093:13165   */\n      tag_360\n      jump\t// in\n    tag_458:\n        /* \"#utility.yul\":13175:13247   */\n      tag_459\n        /* \"#utility.yul\":13243:13245   */\n      0x40\n        /* \"#utility.yul\":13232:13241   */\n      dup4\n        /* \"#utility.yul\":13228:13246   */\n      add\n        /* \"#utility.yul\":13219:13225   */\n      dup6\n        /* \"#utility.yul\":13175:13247   */\n      tag_447\n      jump\t// in\n    tag_459:\n        /* \"#utility.yul\":13294:13303   */\n      dup2\n        /* \"#utility.yul\":13288:13292   */\n      dup2\n        /* \"#utility.yul\":13284:13304   */\n      sub\n        /* \"#utility.yul\":13279:13281   */\n      0x60\n        /* \"#utility.yul\":13268:13277   */\n      dup4\n        /* \"#utility.yul\":13264:13282   */\n      add\n        /* \"#utility.yul\":13257:13305   */\n      mstore\n        /* \"#utility.yul\":13322:13398   */\n      tag_460\n        /* \"#utility.yul\":13393:13397   */\n      dup2\n        /* \"#utility.yul\":13384:13390   */\n      dup5\n        /* \"#utility.yul\":13322:13398   */\n      tag_368\n      jump\t// in\n    tag_460:\n        /* \"#utility.yul\":13314:13398   */\n      swap1\n      pop\n        /* \"#utility.yul\":12965:13405   */\n      swap6\n      swap5\n      pop\n      pop\n      pop\n      pop\n      pop\n      jump\t// out\n        /* \"#utility.yul\":13411:13621   */\n    tag_25:\n        /* \"#utility.yul\":13498:13502   */\n      0x00\n        /* \"#utility.yul\":13536:13538   */\n      0x20\n        /* \"#utility.yul\":13525:13534   */\n      dup3\n        /* \"#utility.yul\":13521:13539   */\n      add\n        /* \"#utility.yul\":13513:13539   */\n      swap1\n      pop\n        /* \"#utility.yul\":13549:13614   */\n      tag_462\n        /* \"#utility.yul\":13611:13612   */\n      0x00\n        /* \"#utility.yul\":13600:13609   */\n      dup4\n        /* \"#utility.yul\":13596:13613   */\n      add\n        /* \"#utility.yul\":13587:13593   */\n      dup5\n        /* \"#utility.yul\":13549:13614   */\n      tag_364\n      jump\t// in\n    tag_462:\n        /* \"#utility.yul\":13503:13621   */\n      swap3\n      swap2\n      pop\n      pop\n      jump\t// out\n        /* \"#utility.yul\":13627:13940   */\n    tag_29:\n        /* \"#utility.yul\":13740:13744   */\n      0x00\n        /* \"#utility.yul\":13778:13780   */\n      0x20\n        /* \"#utility.yul\":13767:13776   */\n      dup3\n        /* \"#utility.yul\":13763:13781   */\n      add\n        /* \"#utility.yul\":13755:13781   */\n      swap1\n      pop\n        /* \"#utility.yul\":13827:13836   */\n      dup2\n        /* \"#utility.yul\":13821:13825   */\n      dup2\n        /* \"#utility.yul\":13817:13837   */\n      sub\n        /* \"#utility.yul\":13813:13814   */\n      0x00\n        /* \"#utility.yul\":13802:13811   */\n      dup4\n        /* \"#utility.yul\":13798:13815   */\n      add\n        /* \"#utility.yul\":13791:13838   */\n      mstore\n        /* \"#utility.yul\":13855:13933   */\n      tag_464\n        /* \"#utility.yul\":13928:13932   */\n      dup2\n        /* \"#utility.yul\":13919:13925   */\n      dup5\n        /* \"#utility.yul\":13855:13933   */\n      tag_378\n      jump\t// in\n    tag_464:\n        /* \"#utility.yul\":13847:13933   */\n      swap1\n      pop\n        /* \"#utility.yul\":13745:13940   */\n      swap3\n      swap2\n      pop\n      pop\n      jump\t// out\n        /* \"#utility.yul\":13946:14365   */\n    tag_117:\n        /* \"#utility.yul\":14112:14116   */\n      0x00\n        /* \"#utility.yul\":14150:14152   */\n      0x20\n        /* \"#utility.yul\":14139:14148   */\n      dup3\n        /* \"#utility.yul\":14135:14153   */\n      add\n        /* \"#utility.yul\":14127:14153   */\n      swap1\n      pop\n        /* \"#utility.yul\":14199:14208   */\n      dup2\n        /* \"#utility.yul\":14193:14197   */\n      dup2\n        /* \"#utility.yul\":14189:14209   */\n      sub\n        /* \"#utility.yul\":14185:14186   */\n      0x00\n        /* \"#utility.yul\":14174:14183   */\n      dup4\n        /* \"#utility.yul\":14170:14187   */\n      add\n        /* \"#utility.yul\":14163:14210   */\n      mstore\n        /* \"#utility.yul\":14227:14358   */\n      tag_466\n        /* \"#utility.yul\":14353:14357   */\n      dup2\n        /* \"#utility.yul\":14227:14358   */\n      tag_392\n      jump\t// in\n    tag_466:\n        /* \"#utility.yul\":14219:14358   */\n      swap1\n      pop\n        /* \"#utility.yul\":14117:14365   */\n      swap2\n      swap1\n      pop\n      jump\t// out\n        /* \"#utility.yul\":14371:14790   */\n    tag_206:\n        /* \"#utility.yul\":14537:14541   */\n      0x00\n        /* \"#utility.yul\":14575:14577   */\n      0x20\n        /* \"#utility.yul\":14564:14573   */\n      dup3\n        /* \"#utility.yul\":14560:14578   */\n      add\n        /* \"#utility.yul\":14552:14578   */\n      swap1\n      pop\n        /* \"#utility.yul\":14624:14633   */\n      dup2\n        /* \"#utility.yul\":14618:14622   */\n      dup2\n        /* \"#utility.yul\":14614:14634   */\n      sub\n        /* \"#utility.yul\":14610:14611   */\n      0x00\n        /* \"#utility.yul\":14599:14608   */\n      dup4\n        /* \"#utility.yul\":14595:14612   */\n      add\n        /* \"#utility.yul\":14588:14635   */\n      mstore\n        /* \"#utility.yul\":14652:14783   */\n      tag_468\n        /* \"#utility.yul\":14778:14782   */\n      dup2\n        /* \"#utility.yul\":14652:14783   */\n      tag_397\n      jump\t// in\n    tag_468:\n        /* \"#utility.yul\":14644:14783   */\n      swap1\n      pop\n        /* \"#utility.yul\":14542:14790   */\n      swap2\n      swap1\n      pop\n      jump\t// out\n        /* \"#utility.yul\":14796:15215   */\n    tag_181:\n        /* \"#utility.yul\":14962:14966   */\n      0x00\n        /* \"#utility.yul\":15000:15002   */\n      0x20\n        /* \"#utility.yul\":14989:14998   */\n      dup3\n        /* \"#utility.yul\":14985:15003   */\n      add\n        /* \"#utility.yul\":14977:15003   */\n      swap1\n      pop\n        /* \"#utility.yul\":15049:15058   */\n      dup2\n        /* \"#utility.yul\":15043:15047   */\n      dup2\n        /* \"#utility.yul\":15039:15059   */\n      sub\n        /* \"#utility.yul\":15035:15036   */\n      0x00\n        /* \"#utility.yul\":15024:15033   */\n      dup4\n        /* \"#utility.yul\":15020:15037   */\n      add\n        /* \"#utility.yul\":15013:15060   */\n      mstore\n        /* \"#utility.yul\":15077:15208   */\n      tag_470\n        /* \"#utility.yul\":15203:15207   */\n      dup2\n        /* \"#utility.yul\":15077:15208   */\n      tag_402\n      jump\t// in\n    tag_470:\n        /* \"#utility.yul\":15069:15208   */\n      swap1\n      pop\n        /* \"#utility.yul\":14967:15215   */\n      swap2\n      swap1\n      pop\n      jump\t// out\n        /* \"#utility.yul\":15221:15640   */\n    tag_266:\n        /* \"#utility.yul\":15387:15391   */\n      0x00\n        /* \"#utility.yul\":15425:15427   */\n      0x20\n        /* \"#utility.yul\":15414:15423   */\n      dup3\n        /* \"#utility.yul\":15410:15428   */\n      add\n        /* \"#utility.yul\":15402:15428   */\n      swap1\n      pop\n        /* \"#utility.yul\":15474:15483   */\n      dup2\n        /* \"#utility.yul\":15468:15472   */\n      dup2\n        /* \"#utility.yul\":15464:15484   */\n      sub\n        /* \"#utility.yul\":15460:15461   */\n      0x00\n        /* \"#utility.yul\":15449:15458   */\n      dup4\n        /* \"#utility.yul\":15445:15462   */\n      add\n        /* \"#utility.yul\":15438:15485   */\n      mstore\n        /* \"#utility.yul\":15502:15633   */\n      tag_472\n        /* \"#utility.yul\":15628:15632   */\n      dup2\n        /* \"#utility.yul\":15502:15633   */\n      tag_407\n      jump\t// in\n    tag_472:\n        /* \"#utility.yul\":15494:15633   */\n      swap1\n      pop\n        /* \"#utility.yul\":15392:15640   */\n      swap2\n      swap1\n      pop\n      jump\t// out\n        /* \"#utility.yul\":15646:16065   */\n    tag_184:\n        /* \"#utility.yul\":15812:15816   */\n      0x00\n        /* \"#utility.yul\":15850:15852   */\n      0x20\n        /* \"#utility.yul\":15839:15848   */\n      dup3\n        /* \"#utility.yul\":15835:15853   */\n      add\n        /* \"#utility.yul\":15827:15853   */\n      swap1\n      pop\n        /* \"#utility.yul\":15899:15908   */\n      dup2\n        /* \"#utility.yul\":15893:15897   */\n      dup2\n        /* \"#utility.yul\":15889:15909   */\n      sub\n        /* \"#utility.yul\":15885:15886   */\n      0x00\n        /* \"#utility.yul\":15874:15883   */\n      dup4\n        /* \"#utility.yul\":15870:15887   */\n      add\n        /* \"#utility.yul\":15863:15910   */\n      mstore\n        /* \"#utility.yul\":15927:16058   */\n      tag_474\n        /* \"#utility.yul\":16053:16057   */\n      dup2\n        /* \"#utility.yul\":15927:16058   */\n      tag_412\n      jump\t// in\n    tag_474:\n        /* \"#utility.yul\":15919:16058   */\n      swap1\n      pop\n        /* \"#utility.yul\":15817:16065   */\n      swap2\n      swap1\n      pop\n      jump\t// out\n        /* \"#utility.yul\":16071:16490   */\n    tag_195:\n        /* \"#utility.yul\":16237:16241   */\n      0x00\n        /* \"#utility.yul\":16275:16277   */\n      0x20\n        /* \"#utility.yul\":16264:16273   */\n      dup3\n        /* \"#utility.yul\":16260:16278   */\n      add\n        /* \"#utility.yul\":16252:16278   */\n      swap1\n      pop\n        /* \"#utility.yul\":16324:16333   */\n      dup2\n        /* \"#utility.yul\":16318:16322   */\n      dup2\n        /* \"#utility.yul\":16314:16334   */\n      sub\n        /* \"#utility.yul\":16310:16311   */\n      0x00\n        /* \"#utility.yul\":16299:16308   */\n      dup4\n        /* \"#utility.yul\":16295:16312   */\n      add\n        /* \"#utility.yul\":16288:16335   */\n      mstore\n        /* \"#utility.yul\":16352:16483   */\n      tag_476\n        /* \"#utility.yul\":16478:16482   */\n      dup2\n        /* \"#utility.yul\":16352:16483   */\n      tag_417\n      jump\t// in\n    tag_476:\n        /* \"#utility.yul\":16344:16483   */\n      swap1\n      pop\n        /* \"#utility.yul\":16242:16490   */\n      swap2\n      swap1\n      pop\n      jump\t// out\n        /* \"#utility.yul\":16496:16915   */\n    tag_129:\n        /* \"#utility.yul\":16662:16666   */\n      0x00\n        /* \"#utility.yul\":16700:16702   */\n      0x20\n        /* \"#utility.yul\":16689:16698   */\n      dup3\n        /* \"#utility.yul\":16685:16703   */\n      add\n        /* \"#utility.yul\":16677:16703   */\n      swap1\n      pop\n        /* \"#utility.yul\":16749:16758   */\n      dup2\n        /* \"#utility.yul\":16743:16747   */\n      dup2\n        /* \"#utility.yul\":16739:16759   */\n      sub\n        /* \"#utility.yul\":16735:16736   */\n      0x00\n        /* \"#utility.yul\":16724:16733   */\n      dup4\n        /* \"#utility.yul\":16720:16737   */\n      add\n        /* \"#utility.yul\":16713:16760   */\n      mstore\n        /* \"#utility.yul\":16777:16908   */\n      tag_478\n        /* \"#utility.yul\":16903:16907   */\n      dup2\n        /* \"#utility.yul\":16777:16908   */\n      tag_422\n      jump\t// in\n    tag_478:\n        /* \"#utility.yul\":16769:16908   */\n      swap1\n      pop\n        /* \"#utility.yul\":16667:16915   */\n      swap2\n      swap1\n      pop\n      jump\t// out\n        /* \"#utility.yul\":16921:17340   */\n    tag_262:\n        /* \"#utility.yul\":17087:17091   */\n      0x00\n        /* \"#utility.yul\":17125:17127   */\n      0x20\n        /* \"#utility.yul\":17114:17123   */\n      dup3\n        /* \"#utility.yul\":17110:17128   */\n      add\n        /* \"#utility.yul\":17102:17128   */\n      swap1\n      pop\n        /* \"#utility.yul\":17174:17183   */\n      dup2\n        /* \"#utility.yul\":17168:17172   */\n      dup2\n        /* \"#utility.yul\":17164:17184   */\n      sub\n        /* \"#utility.yul\":17160:17161   */\n      0x00\n        /* \"#utility.yul\":17149:17158   */\n      dup4\n        /* \"#utility.yul\":17145:17162   */\n      add\n        /* \"#utility.yul\":17138:17185   */\n      mstore\n        /* \"#utility.yul\":17202:17333   */\n      tag_480\n        /* \"#utility.yul\":17328:17332   */\n      dup2\n        /* \"#utility.yul\":17202:17333   */\n      tag_427\n      jump\t// in\n    tag_480:\n        /* \"#utility.yul\":17194:17333   */\n      swap1\n      pop\n        /* \"#utility.yul\":17092:17340   */\n      swap2\n      swap1\n      pop\n      jump\t// out\n        /* \"#utility.yul\":17346:17765   */\n    tag_125:\n        /* \"#utility.yul\":17512:17516   */\n      0x00\n        /* \"#utility.yul\":17550:17552   */\n      0x20\n        /* \"#utility.yul\":17539:17548   */\n      dup3\n        /* \"#utility.yul\":17535:17553   */\n      add\n        /* \"#utility.yul\":17527:17553   */\n      swap1\n      pop\n        /* \"#utility.yul\":17599:17608   */\n      dup2\n        /* \"#utility.yul\":17593:17597   */\n      dup2\n        /* \"#utility.yul\":17589:17609   */\n      sub\n        /* \"#utility.yul\":17585:17586   */\n      0x00\n        /* \"#utility.yul\":17574:17583   */\n      dup4\n        /* \"#utility.yul\":17570:17587   */\n      add\n        /* \"#utility.yul\":17563:17610   */\n      mstore\n        /* \"#utility.yul\":17627:17758   */\n      tag_482\n        /* \"#utility.yul\":17753:17757   */\n      dup2\n        /* \"#utility.yul\":17627:17758   */\n      tag_432\n      jump\t// in\n    tag_482:\n        /* \"#utility.yul\":17619:17758   */\n      swap1\n      pop\n        /* \"#utility.yul\":17517:17765   */\n      swap2\n      swap1\n      pop\n      jump\t// out\n        /* \"#utility.yul\":17771:18190   */\n    tag_100:\n        /* \"#utility.yul\":17937:17941   */\n      0x00\n        /* \"#utility.yul\":17975:17977   */\n      0x20\n        /* \"#utility.yul\":17964:17973   */\n      dup3\n        /* \"#utility.yul\":17960:17978   */\n      add\n        /* \"#utility.yul\":17952:17978   */\n      swap1\n      pop\n        /* \"#utility.yul\":18024:18033   */\n      dup2\n        /* \"#utility.yul\":18018:18022   */\n      dup2\n        /* \"#utility.yul\":18014:18034   */\n      sub\n        /* \"#utility.yul\":18010:18011   */\n      0x00\n        /* \"#utility.yul\":17999:18008   */\n      dup4\n        /* \"#utility.yul\":17995:18012   */\n      add\n        /* \"#utility.yul\":17988:18035   */\n      mstore\n        /* \"#utility.yul\":18052:18183   */\n      tag_484\n        /* \"#utility.yul\":18178:18182   */\n      dup2\n        /* \"#utility.yul\":18052:18183   */\n      tag_437\n      jump\t// in\n    tag_484:\n        /* \"#utility.yul\":18044:18183   */\n      swap1\n      pop\n        /* \"#utility.yul\":17942:18190   */\n      swap2\n      swap1\n      pop\n      jump\t// out\n        /* \"#utility.yul\":18196:18615   */\n    tag_108:\n        /* \"#utility.yul\":18362:18366   */\n      0x00\n        /* \"#utility.yul\":18400:18402   */\n      0x20\n        /* \"#utility.yul\":18389:18398   */\n      dup3\n        /* \"#utility.yul\":18385:18403   */\n      add\n        /* \"#utility.yul\":18377:18403   */\n      swap1\n      pop\n        /* \"#utility.yul\":18449:18458   */\n      dup2\n        /* \"#utility.yul\":18443:18447   */\n      dup2\n        /* \"#utility.yul\":18439:18459   */\n      sub\n        /* \"#utility.yul\":18435:18436   */\n      0x00\n        /* \"#utility.yul\":18424:18433   */\n      dup4\n        /* \"#utility.yul\":18420:18437   */\n      add\n        /* \"#utility.yul\":18413:18460   */\n      mstore\n        /* \"#utility.yul\":18477:18608   */\n      tag_486\n        /* \"#utility.yul\":18603:18607   */\n      dup2\n        /* \"#utility.yul\":18477:18608   */\n      tag_442\n      jump\t// in\n    tag_486:\n        /* \"#utility.yul\":18469:18608   */\n      swap1\n      pop\n        /* \"#utility.yul\":18367:18615   */\n      swap2\n      swap1\n      pop\n      jump\t// out\n        /* \"#utility.yul\":18621:18843   */\n    tag_56:\n        /* \"#utility.yul\":18714:18718   */\n      0x00\n        /* \"#utility.yul\":18752:18754   */\n      0x20\n        /* \"#utility.yul\":18741:18750   */\n      dup3\n        /* \"#utility.yul\":18737:18755   */\n      add\n        /* \"#utility.yul\":18729:18755   */\n      swap1\n      pop\n        /* \"#utility.yul\":18765:18836   */\n      tag_488\n        /* \"#utility.yul\":18833:18834   */\n      0x00\n        /* \"#utility.yul\":18822:18831   */\n      dup4\n        /* \"#utility.yul\":18818:18835   */\n      add\n        /* \"#utility.yul\":18809:18815   */\n      dup5\n        /* \"#utility.yul\":18765:18836   */\n      tag_447\n      jump\t// in\n    tag_488:\n        /* \"#utility.yul\":18719:18843   */\n      swap3\n      swap2\n      pop\n      pop\n      jump\t// out\n        /* \"#utility.yul\":18849:18978   */\n    tag_279:\n        /* \"#utility.yul\":18883:18889   */\n      0x00\n        /* \"#utility.yul\":18910:18930   */\n      tag_490\n      tag_491\n      jump\t// in\n    tag_490:\n        /* \"#utility.yul\":18900:18930   */\n      swap1\n      pop\n        /* \"#utility.yul\":18939:18972   */\n      tag_492\n        /* \"#utility.yul\":18967:18971   */\n      dup3\n        /* \"#utility.yul\":18959:18965   */\n      dup3\n        /* \"#utility.yul\":18939:18972   */\n      tag_493\n      jump\t// in\n    tag_492:\n        /* \"#utility.yul\":18890:18978   */\n      swap2\n      swap1\n      pop\n      jump\t// out\n        /* \"#utility.yul\":18984:19059   */\n    tag_491:\n        /* \"#utility.yul\":19017:19023   */\n      0x00\n        /* \"#utility.yul\":19050:19052   */\n      0x40\n        /* \"#utility.yul\":19044:19053   */\n      mload\n        /* \"#utility.yul\":19034:19053   */\n      swap1\n      pop\n        /* \"#utility.yul\":19024:19059   */\n      swap1\n      jump\t// out\n        /* \"#utility.yul\":19065:19372   */\n    tag_278:\n        /* \"#utility.yul\":19126:19130   */\n      0x00\n        /* \"#utility.yul\":19216:19234   */\n      0xffffffffffffffff\n        /* \"#utility.yul\":19208:19214   */\n      dup3\n        /* \"#utility.yul\":19205:19235   */\n      gt\n        /* \"#utility.yul\":19202:19204   */\n      iszero\n      tag_496\n      jumpi\n        /* \"#utility.yul\":19238:19256   */\n      tag_497\n      tag_498\n      jump\t// in\n    tag_497:\n        /* \"#utility.yul\":19202:19204   */\n    tag_496:\n        /* \"#utility.yul\":19276:19305   */\n      tag_499\n        /* \"#utility.yul\":19298:19304   */\n      dup3\n        /* \"#utility.yul\":19276:19305   */\n      tag_377\n      jump\t// in\n    tag_499:\n        /* \"#utility.yul\":19268:19305   */\n      swap1\n      pop\n        /* \"#utility.yul\":19360:19364   */\n      0x20\n        /* \"#utility.yul\":19354:19358   */\n      dup2\n        /* \"#utility.yul\":19350:19365   */\n      add\n        /* \"#utility.yul\":19342:19365   */\n      swap1\n      pop\n        /* \"#utility.yul\":19131:19372   */\n      swap2\n      swap1\n      pop\n      jump\t// out\n        /* \"#utility.yul\":19378:19686   */\n    tag_287:\n        /* \"#utility.yul\":19440:19444   */\n      0x00\n        /* \"#utility.yul\":19530:19548   */\n      0xffffffffffffffff\n        /* \"#utility.yul\":19522:19528   */\n      dup3\n        /* \"#utility.yul\":19519:19549   */\n      gt\n        /* \"#utility.yul\":19516:19518   */\n      iszero\n      tag_501\n      jumpi\n        /* \"#utility.yul\":19552:19570   */\n      tag_502\n      tag_498\n      jump\t// in\n    tag_502:\n        /* \"#utility.yul\":19516:19518   */\n    tag_501:\n        /* \"#utility.yul\":19590:19619   */\n      tag_503\n        /* \"#utility.yul\":19612:19618   */\n      dup3\n        /* \"#utility.yul\":19590:19619   */\n      tag_377\n      jump\t// in\n    tag_503:\n        /* \"#utility.yul\":19582:19619   */\n      swap1\n      pop\n        /* \"#utility.yul\":19674:19678   */\n      0x20\n        /* \"#utility.yul\":19668:19672   */\n      dup2\n        /* \"#utility.yul\":19664:19679   */\n      add\n        /* \"#utility.yul\":19656:19679   */\n      swap1\n      pop\n        /* \"#utility.yul\":19445:19686   */\n      swap2\n      swap1\n      pop\n      jump\t// out\n        /* \"#utility.yul\":19692:19790   */\n    tag_371:\n        /* \"#utility.yul\":19743:19749   */\n      0x00\n        /* \"#utility.yul\":19777:19782   */\n      dup2\n        /* \"#utility.yul\":19771:19783   */\n      mload\n        /* \"#utility.yul\":19761:19783   */\n      swap1\n      pop\n        /* \"#utility.yul\":19750:19790   */\n      swap2\n      swap1\n      pop\n      jump\t// out\n        /* \"#utility.yul\":19796:19895   */\n    tag_381:\n        /* \"#utility.yul\":19848:19854   */\n      0x00\n        /* \"#utility.yul\":19882:19887   */\n      dup2\n        /* \"#utility.yul\":19876:19888   */\n      mload\n        /* \"#utility.yul\":19866:19888   */\n      swap1\n      pop\n        /* \"#utility.yul\":19855:19895   */\n      swap2\n      swap1\n      pop\n      jump\t// out\n        /* \"#utility.yul\":19901:20069   */\n    tag_373:\n        /* \"#utility.yul\":19984:19995   */\n      0x00\n        /* \"#utility.yul\":20018:20024   */\n      dup3\n        /* \"#utility.yul\":20013:20016   */\n      dup3\n        /* \"#utility.yul\":20006:20025   */\n      mstore\n        /* \"#utility.yul\":20058:20062   */\n      0x20\n        /* \"#utility.yul\":20053:20056   */\n      dup3\n        /* \"#utility.yul\":20049:20063   */\n      add\n        /* \"#utility.yul\":20034:20063   */\n      swap1\n      pop\n        /* \"#utility.yul\":19996:20069   */\n      swap3\n      swap2\n      pop\n      pop\n      jump\t// out\n        /* \"#utility.yul\":20075:20244   */\n    tag_383:\n        /* \"#utility.yul\":20159:20170   */\n      0x00\n        /* \"#utility.yul\":20193:20199   */\n      dup3\n        /* \"#utility.yul\":20188:20191   */\n      dup3\n        /* \"#utility.yul\":20181:20200   */\n      mstore\n        /* \"#utility.yul\":20233:20237   */\n      0x20\n        /* \"#utility.yul\":20228:20231   */\n      dup3\n        /* \"#utility.yul\":20224:20238   */\n      add\n        /* \"#utility.yul\":20209:20238   */\n      swap1\n      pop\n        /* \"#utility.yul\":20171:20244   */\n      swap3\n      swap2\n      pop\n      pop\n      jump\t// out\n        /* \"#utility.yul\":20250:20398   */\n    tag_390:\n        /* \"#utility.yul\":20352:20363   */\n      0x00\n        /* \"#utility.yul\":20389:20392   */\n      dup2\n        /* \"#utility.yul\":20374:20392   */\n      swap1\n      pop\n        /* \"#utility.yul\":20364:20398   */\n      swap3\n      swap2\n      pop\n      pop\n      jump\t// out\n        /* \"#utility.yul\":20404:20709   */\n    tag_225:\n        /* \"#utility.yul\":20444:20447   */\n      0x00\n        /* \"#utility.yul\":20463:20483   */\n      tag_510\n        /* \"#utility.yul\":20481:20482   */\n      dup3\n        /* \"#utility.yul\":20463:20483   */\n      tag_450\n      jump\t// in\n    tag_510:\n        /* \"#utility.yul\":20458:20483   */\n      swap2\n      pop\n        /* \"#utility.yul\":20497:20517   */\n      tag_511\n        /* \"#utility.yul\":20515:20516   */\n      dup4\n        /* \"#utility.yul\":20497:20517   */\n      tag_450\n      jump\t// in\n    tag_511:\n        /* \"#utility.yul\":20492:20517   */\n      swap3\n      pop\n        /* \"#utility.yul\":20651:20652   */\n      dup3\n        /* \"#utility.yul\":20583:20649   */\n      0xffffffffffffffffffffffffffffffffffffffffffffffffffffffffffffffff\n        /* \"#utility.yul\":20579:20653   */\n      sub\n        /* \"#utility.yul\":20576:20577   */\n      dup3\n        /* \"#utility.yul\":20573:20654   */\n      gt\n        /* \"#utility.yul\":20570:20572   */\n      iszero\n      tag_512\n      jumpi\n        /* \"#utility.yul\":20657:20675   */\n      tag_513\n      tag_514\n      jump\t// in\n    tag_513:\n        /* \"#utility.yul\":20570:20572   */\n    tag_512:\n        /* \"#utility.yul\":20701:20702   */\n      dup3\n        /* \"#utility.yul\":20698:20699   */\n      dup3\n        /* \"#utility.yul\":20694:20703   */\n      add\n        /* \"#utility.yul\":20687:20703   */\n      swap1\n      pop\n        /* \"#utility.yul\":20448:20709   */\n      swap3\n      swap2\n      pop\n      pop\n      jump\t// out\n        /* \"#utility.yul\":20715:20900   */\n    tag_215:\n        /* \"#utility.yul\":20755:20756   */\n      0x00\n        /* \"#utility.yul\":20772:20792   */\n      tag_516\n        /* \"#utility.yul\":20790:20791   */\n      dup3\n        /* \"#utility.yul\":20772:20792   */\n      tag_450\n      jump\t// in\n    tag_516:\n        /* \"#utility.yul\":20767:20792   */\n      swap2\n      pop\n        /* \"#utility.yul\":20806:20826   */\n      tag_517\n        /* \"#utility.yul\":20824:20825   */\n      dup4\n        /* \"#utility.yul\":20806:20826   */\n      tag_450\n      jump\t// in\n    tag_517:\n        /* \"#utility.yul\":20801:20826   */\n      swap3\n      pop\n        /* \"#utility.yul\":20845:20846   */\n      dup3\n        /* \"#utility.yul\":20835:20837   */\n      tag_518\n      jumpi\n        /* \"#utility.yul\":20850:20868   */\n      tag_519\n      tag_520\n      jump\t// in\n    tag_519:\n        /* \"#utility.yul\":20835:20837   */\n    tag_518:\n        /* \"#utility.yul\":20892:20893   */\n      dup3\n        /* \"#utility.yul\":20889:20890   */\n      dup3\n        /* \"#utility.yul\":20885:20894   */\n      div\n        /* \"#utility.yul\":20880:20894   */\n      swap1\n      pop\n        /* \"#utility.yul\":20757:20900   */\n      swap3\n      swap2\n      pop\n      pop\n      jump\t// out\n        /* \"#utility.yul\":20906:21097   */\n    tag_221:\n        /* \"#utility.yul\":20946:20950   */\n      0x00\n        /* \"#utility.yul\":20966:20986   */\n      tag_522\n        /* \"#utility.yul\":20984:20985   */\n      dup3\n        /* \"#utility.yul\":20966:20986   */\n      tag_450\n      jump\t// in\n    tag_522:\n        /* \"#utility.yul\":20961:20986   */\n      swap2\n      pop\n        /* \"#utility.yul\":21000:21020   */\n      tag_523\n        /* \"#utility.yul\":21018:21019   */\n      dup4\n        /* \"#utility.yul\":21000:21020   */\n      tag_450\n      jump\t// in\n    tag_523:\n        /* \"#utility.yul\":20995:21020   */\n      swap3\n      pop\n        /* \"#utility.yul\":21039:21040   */\n      dup3\n        /* \"#utility.yul\":21036:21037   */\n      dup3\n        /* \"#utility.yul\":21033:21041   */\n      lt\n        /* \"#utility.yul\":21030:21032   */\n      iszero\n      tag_524\n      jumpi\n        /* \"#utility.yul\":21044:21062   */\n      tag_525\n      tag_514\n      jump\t// in\n    tag_525:\n        /* \"#utility.yul\":21030:21032   */\n    tag_524:\n        /* \"#utility.yul\":21089:21090   */\n      dup3\n        /* \"#utility.yul\":21086:21087   */\n      dup3\n        /* \"#utility.yul\":21082:21091   */\n      sub\n        /* \"#utility.yul\":21074:21091   */\n      swap1\n      pop\n        /* \"#utility.yul\":20951:21097   */\n      swap3\n      swap2\n      pop\n      pop\n      jump\t// out\n        /* \"#utility.yul\":21103:21199   */\n    tag_363:\n        /* \"#utility.yul\":21140:21147   */\n      0x00\n        /* \"#utility.yul\":21169:21193   */\n      tag_527\n        /* \"#utility.yul\":21187:21192   */\n      dup3\n        /* \"#utility.yul\":21169:21193   */\n      tag_528\n      jump\t// in\n    tag_527:\n        /* \"#utility.yul\":21158:21193   */\n      swap1\n      pop\n        /* \"#utility.yul\":21148:21199   */\n      swap2\n      swap1\n      pop\n      jump\t// out\n        /* \"#utility.yul\":21205:21295   */\n    tag_367:\n        /* \"#utility.yul\":21239:21246   */\n      0x00\n        /* \"#utility.yul\":21282:21287   */\n      dup2\n        /* \"#utility.yul\":21275:21288   */\n      iszero\n        /* \"#utility.yul\":21268:21289   */\n      iszero\n        /* \"#utility.yul\":21257:21289   */\n      swap1\n      pop\n        /* \"#utility.yul\":21247:21295   */\n      swap2\n      swap1\n      pop\n      jump\t// out\n        /* \"#utility.yul\":21301:21450   */\n    tag_530:\n        /* \"#utility.yul\":21337:21344   */\n      0x00\n        /* \"#utility.yul\":21377:21443   */\n      0xffffffff00000000000000000000000000000000000000000000000000000000\n        /* \"#utility.yul\":21370:21375   */\n      dup3\n        /* \"#utility.yul\":21366:21444   */\n      and\n        /* \"#utility.yul\":21355:21444   */\n      swap1\n      pop\n        /* \"#utility.yul\":21345:21450   */\n      swap2\n      swap1\n      pop\n      jump\t// out\n        /* \"#utility.yul\":21456:21582   */\n    tag_528:\n        /* \"#utility.yul\":21493:21500   */\n      0x00\n        /* \"#utility.yul\":21533:21575   */\n      0xffffffffffffffffffffffffffffffffffffffff\n        /* \"#utility.yul\":21526:21531   */\n      dup3\n        /* \"#utility.yul\":21522:21576   */\n      and\n        /* \"#utility.yul\":21511:21576   */\n      swap1\n      pop\n        /* \"#utility.yul\":21501:21582   */\n      swap2\n      swap1\n      pop\n      jump\t// out\n        /* \"#utility.yul\":21588:21665   */\n    tag_450:\n        /* \"#utility.yul\":21625:21632   */\n      0x00\n        /* \"#utility.yul\":21654:21659   */\n      dup2\n        /* \"#utility.yul\":21643:21659   */\n      swap1\n      pop\n        /* \"#utility.yul\":21633:21665   */\n      swap2\n      swap1\n      pop\n      jump\t// out\n        /* \"#utility.yul\":21671:21825   */\n    tag_282:\n        /* \"#utility.yul\":21755:21761   */\n      dup3\n        /* \"#utility.yul\":21750:21753   */\n      dup2\n        /* \"#utility.yul\":21745:21748   */\n      dup4\n        /* \"#utility.yul\":21732:21762   */\n      calldatacopy\n        /* \"#utility.yul\":21817:21818   */\n      0x00\n        /* \"#utility.yul\":21808:21814   */\n      dup4\n        /* \"#utility.yul\":21803:21806   */\n      dup4\n        /* \"#utility.yul\":21799:21815   */\n      add\n        /* \"#utility.yul\":21792:21819   */\n      mstore\n        /* \"#utility.yul\":21722:21825   */\n      pop\n      pop\n      pop\n      jump\t// out\n        /* \"#utility.yul\":21831:22138   */\n    tag_375:\n        /* \"#utility.yul\":21899:21900   */\n      0x00\n        /* \"#utility.yul\":21909:22022   */\n    tag_536:\n        /* \"#utility.yul\":21923:21929   */\n      dup4\n        /* \"#utility.yul\":21920:21921   */\n      dup2\n        /* \"#utility.yul\":21917:21930   */\n      lt\n        /* \"#utility.yul\":21909:22022   */\n      iszero\n      tag_538\n      jumpi\n        /* \"#utility.yul\":22008:22009   */\n      dup1\n        /* \"#utility.yul\":22003:22006   */\n      dup3\n        /* \"#utility.yul\":21999:22010   */\n      add\n        /* \"#utility.yul\":21993:22011   */\n      mload\n        /* \"#utility.yul\":21989:21990   */\n      dup2\n        /* \"#utility.yul\":21984:21987   */\n      dup5\n        /* \"#utility.yul\":21980:21991   */\n      add\n        /* \"#utility.yul\":21973:22012   */\n      mstore\n        /* \"#utility.yul\":21945:21947   */\n      0x20\n        /* \"#utility.yul\":21942:21943   */\n      dup2\n        /* \"#utility.yul\":21938:21948   */\n      add\n        /* \"#utility.yul\":21933:21948   */\n      swap1\n      pop\n        /* \"#utility.yul\":21909:22022   */\n      jump(tag_536)\n    tag_538:\n        /* \"#utility.yul\":22040:22046   */\n      dup4\n        /* \"#utility.yul\":22037:22038   */\n      dup2\n        /* \"#utility.yul\":22034:22047   */\n      gt\n        /* \"#utility.yul\":22031:22033   */\n      iszero\n      tag_539\n      jumpi\n        /* \"#utility.yul\":22120:22121   */\n      0x00\n        /* \"#utility.yul\":22111:22117   */\n      dup5\n        /* \"#utility.yul\":22106:22109   */\n      dup5\n        /* \"#utility.yul\":22102:22118   */\n      add\n        /* \"#utility.yul\":22095:22122   */\n      mstore\n        /* \"#utility.yul\":22031:22033   */\n    tag_539:\n        /* \"#utility.yul\":21880:22138   */\n      pop\n      pop\n      pop\n      pop\n      jump\t// out\n        /* \"#utility.yul\":22144:22464   */\n    tag_88:\n        /* \"#utility.yul\":22188:22194   */\n      0x00\n        /* \"#utility.yul\":22225:22226   */\n      0x02\n        /* \"#utility.yul\":22219:22223   */\n      dup3\n        /* \"#utility.yul\":22215:22227   */\n      div\n        /* \"#utility.yul\":22205:22227   */\n      swap1\n      pop\n        /* \"#utility.yul\":22272:22273   */\n      0x01\n        /* \"#utility.yul\":22266:22270   */\n      dup3\n        /* \"#utility.yul\":22262:22274   */\n      and\n        /* \"#utility.yul\":22293:22311   */\n      dup1\n        /* \"#utility.yul\":22283:22285   */\n      tag_541\n      jumpi\n        /* \"#utility.yul\":22349:22353   */\n      0x7f\n        /* \"#utility.yul\":22341:22347   */\n      dup3\n        /* \"#utility.yul\":22337:22354   */\n      and\n        /* \"#utility.yul\":22327:22354   */\n      swap2\n      pop\n        /* \"#utility.yul\":22283:22285   */\n    tag_541:\n        /* \"#utility.yul\":22411:22413   */\n      0x20\n        /* \"#utility.yul\":22403:22409   */\n      dup3\n        /* \"#utility.yul\":22400:22414   */\n      lt\n        /* \"#utility.yul\":22380:22398   */\n      dup2\n        /* \"#utility.yul\":22377:22415   */\n      eq\n        /* \"#utility.yul\":22374:22376   */\n      iszero\n      tag_542\n      jumpi\n        /* \"#utility.yul\":22430:22448   */\n      tag_543\n      tag_544\n      jump\t// in\n    tag_543:\n        /* \"#utility.yul\":22374:22376   */\n    tag_542:\n        /* \"#utility.yul\":22195:22464   */\n      pop\n      swap2\n      swap1\n      pop\n      jump\t// out\n        /* \"#utility.yul\":22470:22751   */\n    tag_493:\n        /* \"#utility.yul\":22553:22580   */\n      tag_546\n        /* \"#utility.yul\":22575:22579   */\n      dup3\n        /* \"#utility.yul\":22553:22580   */\n      tag_377\n      jump\t// in\n    tag_546:\n        /* \"#utility.yul\":22545:22551   */\n      dup2\n        /* \"#utility.yul\":22541:22581   */\n      add\n        /* \"#utility.yul\":22683:22689   */\n      dup2\n        /* \"#utility.yul\":22671:22681   */\n      dup2\n        /* \"#utility.yul\":22668:22690   */\n      lt\n        /* \"#utility.yul\":22647:22665   */\n      0xffffffffffffffff\n        /* \"#utility.yul\":22635:22645   */\n      dup3\n        /* \"#utility.yul\":22632:22666   */\n      gt\n        /* \"#utility.yul\":22629:22691   */\n      or\n        /* \"#utility.yul\":22626:22628   */\n      iszero\n      tag_547\n      jumpi\n        /* \"#utility.yul\":22694:22712   */\n      tag_548\n      tag_498\n      jump\t// in\n    tag_548:\n        /* \"#utility.yul\":22626:22628   */\n    tag_547:\n        /* \"#utility.yul\":22734:22744   */\n      dup1\n        /* \"#utility.yul\":22730:22732   */\n      0x40\n        /* \"#utility.yul\":22723:22745   */\n      mstore\n        /* \"#utility.yul\":22513:22751   */\n      pop\n      pop\n      pop\n      jump\t// out\n        /* \"#utility.yul\":22757:22990   */\n    tag_213:\n        /* \"#utility.yul\":22796:22799   */\n      0x00\n        /* \"#utility.yul\":22819:22843   */\n      tag_550\n        /* \"#utility.yul\":22837:22842   */\n      dup3\n        /* \"#utility.yul\":22819:22843   */\n      tag_450\n      jump\t// in\n    tag_550:\n        /* \"#utility.yul\":22810:22843   */\n      swap2\n      pop\n        /* \"#utility.yul\":22865:22931   */\n      0xffffffffffffffffffffffffffffffffffffffffffffffffffffffffffffffff\n        /* \"#utility.yul\":22858:22863   */\n      dup3\n        /* \"#utility.yul\":22855:22932   */\n      eq\n        /* \"#utility.yul\":22852:22854   */\n      iszero\n      tag_551\n      jumpi\n        /* \"#utility.yul\":22935:22953   */\n      tag_552\n      tag_514\n      jump\t// in\n    tag_552:\n        /* \"#utility.yul\":22852:22854   */\n    tag_551:\n        /* \"#utility.yul\":22982:22983   */\n      0x01\n        /* \"#utility.yul\":22975:22980   */\n      dup3\n        /* \"#utility.yul\":22971:22984   */\n      add\n        /* \"#utility.yul\":22964:22984   */\n      swap1\n      pop\n        /* \"#utility.yul\":22800:22990   */\n      swap2\n      swap1\n      pop\n      jump\t// out\n        /* \"#utility.yul\":22996:23172   */\n    tag_223:\n        /* \"#utility.yul\":23028:23029   */\n      0x00\n        /* \"#utility.yul\":23045:23065   */\n      tag_554\n        /* \"#utility.yul\":23063:23064   */\n      dup3\n        /* \"#utility.yul\":23045:23065   */\n      tag_450\n      jump\t// in\n    tag_554:\n        /* \"#utility.yul\":23040:23065   */\n      swap2\n      pop\n        /* \"#utility.yul\":23079:23099   */\n      tag_555\n        /* \"#utility.yul\":23097:23098   */\n      dup4\n        /* \"#utility.yul\":23079:23099   */\n      tag_450\n      jump\t// in\n    tag_555:\n        /* \"#utility.yul\":23074:23099   */\n      swap3\n      pop\n        /* \"#utility.yul\":23118:23119   */\n      dup3\n        /* \"#utility.yul\":23108:23110   */\n      tag_556\n      jumpi\n        /* \"#utility.yul\":23123:23141   */\n      tag_557\n      tag_520\n      jump\t// in\n    tag_557:\n        /* \"#utility.yul\":23108:23110   */\n    tag_556:\n        /* \"#utility.yul\":23164:23165   */\n      dup3\n        /* \"#utility.yul\":23161:23162   */\n      dup3\n        /* \"#utility.yul\":23157:23166   */\n      mod\n        /* \"#utility.yul\":23152:23166   */\n      swap1\n      pop\n        /* \"#utility.yul\":23030:23172   */\n      swap3\n      swap2\n      pop\n      pop\n      jump\t// out\n        /* \"#utility.yul\":23178:23358   */\n    tag_514:\n        /* \"#utility.yul\":23226:23303   */\n      0x4e487b7100000000000000000000000000000000000000000000000000000000\n        /* \"#utility.yul\":23223:23224   */\n      0x00\n        /* \"#utility.yul\":23216:23304   */\n      mstore\n        /* \"#utility.yul\":23323:23327   */\n      0x11\n        /* \"#utility.yul\":23320:23321   */\n      0x04\n        /* \"#utility.yul\":23313:23328   */\n      mstore\n        /* \"#utility.yul\":23347:23351   */\n      0x24\n        /* \"#utility.yul\":23344:23345   */\n      0x00\n        /* \"#utility.yul\":23337:23352   */\n      revert\n        /* \"#utility.yul\":23364:23544   */\n    tag_520:\n        /* \"#utility.yul\":23412:23489   */\n      0x4e487b7100000000000000000000000000000000000000000000000000000000\n        /* \"#utility.yul\":23409:23410   */\n      0x00\n        /* \"#utility.yul\":23402:23490   */\n      mstore\n        /* \"#utility.yul\":23509:23513   */\n      0x12\n        /* \"#utility.yul\":23506:23507   */\n      0x04\n        /* \"#utility.yul\":23499:23514   */\n      mstore\n        /* \"#utility.yul\":23533:23537   */\n      0x24\n        /* \"#utility.yul\":23530:23531   */\n      0x00\n        /* \"#utility.yul\":23523:23538   */\n      revert\n        /* \"#utility.yul\":23550:23730   */\n    tag_544:\n        /* \"#utility.yul\":23598:23675   */\n      0x4e487b7100000000000000000000000000000000000000000000000000000000\n        /* \"#utility.yul\":23595:23596   */\n      0x00\n        /* \"#utility.yul\":23588:23676   */\n      mstore\n        /* \"#utility.yul\":23695:23699   */\n      0x22\n        /* \"#utility.yul\":23692:23693   */\n      0x04\n        /* \"#utility.yul\":23685:23700   */\n      mstore\n        /* \"#utility.yul\":23719:23723   */\n      0x24\n        /* \"#utility.yul\":23716:23717   */\n      0x00\n        /* \"#utility.yul\":23709:23724   */\n      revert\n        /* \"#utility.yul\":23736:23916   */\n    tag_498:\n        /* \"#utility.yul\":23784:23861   */\n      0x4e487b7100000000000000000000000000000000000000000000000000000000\n        /* \"#utility.yul\":23781:23782   */\n      0x00\n        /* \"#utility.yul\":23774:23862   */\n      mstore\n        /* \"#utility.yul\":23881:23885   */\n      0x41\n        /* \"#utility.yul\":23878:23879   */\n      0x04\n        /* \"#utility.yul\":23871:23886   */\n      mstore\n        /* \"#utility.yul\":23905:23909   */\n      0x24\n        /* \"#utility.yul\":23902:23903   */\n      0x00\n        /* \"#utility.yul\":23895:23910   */\n      revert\n        /* \"#utility.yul\":23922:24024   */\n    tag_377:\n        /* \"#utility.yul\":23963:23969   */\n      0x00\n        /* \"#utility.yul\":24014:24016   */\n      0x1f\n        /* \"#utility.yul\":24010:24017   */\n      not\n        /* \"#utility.yul\":24005:24007   */\n      0x1f\n        /* \"#utility.yul\":23998:24003   */\n      dup4\n        /* \"#utility.yul\":23994:24008   */\n      add\n        /* \"#utility.yul\":23990:24018   */\n      and\n        /* \"#utility.yul\":23980:24018   */\n      swap1\n      pop\n        /* \"#utility.yul\":23970:24024   */\n      swap2\n      swap1\n      pop\n      jump\t// out\n        /* \"#utility.yul\":24030:24262   */\n    tag_396:\n        /* \"#utility.yul\":24170:24204   */\n      0x4552433732313a2063616c6c6572206973206e6f7420746f6b656e206f776e65\n        /* \"#utility.yul\":24166:24167   */\n      0x00\n        /* \"#utility.yul\":24158:24164   */\n      dup3\n        /* \"#utility.yul\":24154:24168   */\n      add\n        /* \"#utility.yul\":24147:24205   */\n      mstore\n        /* \"#utility.yul\":24239:24254   */\n      0x72206f7220617070726f76656400000000000000000000000000000000000000\n        /* \"#utility.yul\":24234:24236   */\n      0x20\n        /* \"#utility.yul\":24226:24232   */\n      dup3\n        /* \"#utility.yul\":24222:24237   */\n      add\n        /* \"#utility.yul\":24215:24255   */\n      mstore\n        /* \"#utility.yul\":24136:24262   */\n      pop\n      jump\t// out\n        /* \"#utility.yul\":24268:24505   */\n    tag_401:\n        /* \"#utility.yul\":24408:24442   */\n      0x4552433732313a207472616e7366657220746f206e6f6e204552433732315265\n        /* \"#utility.yul\":24404:24405   */\n      0x00\n        /* \"#utility.yul\":24396:24402   */\n      dup3\n        /* \"#utility.yul\":24392:24406   */\n      add\n        /* \"#utility.yul\":24385:24443   */\n      mstore\n        /* \"#utility.yul\":24477:24497   */\n      0x63656976657220696d706c656d656e7465720000000000000000000000000000\n        /* \"#utility.yul\":24472:24474   */\n      0x20\n        /* \"#utility.yul\":24464:24470   */\n      dup3\n        /* \"#utility.yul\":24460:24475   */\n      add\n        /* \"#utility.yul\":24453:24498   */\n      mstore\n        /* \"#utility.yul\":24374:24505   */\n      pop\n      jump\t// out\n        /* \"#utility.yul\":24511:24735   */\n    tag_406:\n        /* \"#utility.yul\":24651:24685   */\n      0x4552433732313a207472616e736665722066726f6d20696e636f727265637420\n        /* \"#utility.yul\":24647:24648   */\n      0x00\n        /* \"#utility.yul\":24639:24645   */\n      dup3\n        /* \"#utility.yul\":24635:24649   */\n      add\n        /* \"#utility.yul\":24628:24686   */\n      mstore\n        /* \"#utility.yul\":24720:24727   */\n      0x6f776e6572000000000000000000000000000000000000000000000000000000\n        /* \"#utility.yul\":24715:24717   */\n      0x20\n        /* \"#utility.yul\":24707:24713   */\n      dup3\n        /* \"#utility.yul\":24703:24718   */\n      add\n        /* \"#utility.yul\":24696:24728   */\n      mstore\n        /* \"#utility.yul\":24617:24735   */\n      pop\n      jump\t// out\n        /* \"#utility.yul\":24741:24919   */\n    tag_411:\n        /* \"#utility.yul\":24881:24911   */\n      0x4552433732313a20746f6b656e20616c7265616479206d696e74656400000000\n        /* \"#utility.yul\":24877:24878   */\n      0x00\n        /* \"#utility.yul\":24869:24875   */\n      dup3\n        /* \"#utility.yul\":24865:24879   */\n      add\n        /* \"#utility.yul\":24858:24912   */\n      mstore\n        /* \"#utility.yul\":24847:24919   */\n      pop\n      jump\t// out\n        /* \"#utility.yul\":24925:25148   */\n    tag_416:\n        /* \"#utility.yul\":25065:25099   */\n      0x4552433732313a207472616e7366657220746f20746865207a65726f20616464\n        /* \"#utility.yul\":25061:25062   */\n      0x00\n        /* \"#utility.yul\":25053:25059   */\n      dup3\n        /* \"#utility.yul\":25049:25063   */\n      add\n        /* \"#utility.yul\":25042:25100   */\n      mstore\n        /* \"#utility.yul\":25134:25140   */\n      0x7265737300000000000000000000000000000000000000000000000000000000\n        /* \"#utility.yul\":25129:25131   */\n      0x20\n        /* \"#utility.yul\":25121:25127   */\n      dup3\n        /* \"#utility.yul\":25117:25132   */\n      add\n        /* \"#utility.yul\":25110:25141   */\n      mstore\n        /* \"#utility.yul\":25031:25148   */\n      pop\n      jump\t// out\n        /* \"#utility.yul\":25154:25329   */\n    tag_421:\n        /* \"#utility.yul\":25294:25321   */\n      0x4552433732313a20617070726f766520746f2063616c6c657200000000000000\n        /* \"#utility.yul\":25290:25291   */\n      0x00\n        /* \"#utility.yul\":25282:25288   */\n      dup3\n        /* \"#utility.yul\":25278:25292   */\n      add\n        /* \"#utility.yul\":25271:25322   */\n      mstore\n        /* \"#utility.yul\":25260:25329   */\n      pop\n      jump\t// out\n        /* \"#utility.yul\":25335:25563   */\n    tag_426:\n        /* \"#utility.yul\":25475:25509   */\n      0x4552433732313a2061646472657373207a65726f206973206e6f742061207661\n        /* \"#utility.yul\":25471:25472   */\n      0x00\n        /* \"#utility.yul\":25463:25469   */\n      dup3\n        /* \"#utility.yul\":25459:25473   */\n      add\n        /* \"#utility.yul\":25452:25510   */\n      mstore\n        /* \"#utility.yul\":25544:25555   */\n      0x6c6964206f776e65720000000000000000000000000000000000000000000000\n        /* \"#utility.yul\":25539:25541   */\n      0x20\n        /* \"#utility.yul\":25531:25537   */\n      dup3\n        /* \"#utility.yul\":25527:25542   */\n      add\n        /* \"#utility.yul\":25520:25556   */\n      mstore\n        /* \"#utility.yul\":25441:25563   */\n      pop\n      jump\t// out\n        /* \"#utility.yul\":25569:25751   */\n    tag_431:\n        /* \"#utility.yul\":25709:25743   */\n      0x4552433732313a206d696e7420746f20746865207a65726f2061646472657373\n        /* \"#utility.yul\":25705:25706   */\n      0x00\n        /* \"#utility.yul\":25697:25703   */\n      dup3\n        /* \"#utility.yul\":25693:25707   */\n      add\n        /* \"#utility.yul\":25686:25744   */\n      mstore\n        /* \"#utility.yul\":25675:25751   */\n      pop\n      jump\t// out\n        /* \"#utility.yul\":25757:25931   */\n    tag_436:\n        /* \"#utility.yul\":25897:25923   */\n      0x4552433732313a20696e76616c696420746f6b656e2049440000000000000000\n        /* \"#utility.yul\":25893:25894   */\n      0x00\n        /* \"#utility.yul\":25885:25891   */\n      dup3\n        /* \"#utility.yul\":25881:25895   */\n      add\n        /* \"#utility.yul\":25874:25924   */\n      mstore\n        /* \"#utility.yul\":25863:25931   */\n      pop\n      jump\t// out\n        /* \"#utility.yul\":25937:26157   */\n    tag_441:\n        /* \"#utility.yul\":26077:26111   */\n      0x4552433732313a20617070726f76616c20746f2063757272656e74206f776e65\n        /* \"#utility.yul\":26073:26074   */\n      0x00\n        /* \"#utility.yul\":26065:26071   */\n      dup3\n        /* \"#utility.yul\":26061:26075   */\n      add\n        /* \"#utility.yul\":26054:26112   */\n      mstore\n        /* \"#utility.yul\":26146:26149   */\n      0x7200000000000000000000000000000000000000000000000000000000000000\n        /* \"#utility.yul\":26141:26143   */\n      0x20\n        /* \"#utility.yul\":26133:26139   */\n      dup3\n        /* \"#utility.yul\":26129:26144   */\n      add\n        /* \"#utility.yul\":26122:26150   */\n      mstore\n        /* \"#utility.yul\":26043:26157   */\n      pop\n      jump\t// out\n        /* \"#utility.yul\":26163:26411   */\n    tag_446:\n        /* \"#utility.yul\":26303:26337   */\n      0x4552433732313a20617070726f76652063616c6c6572206973206e6f7420746f\n        /* \"#utility.yul\":26299:26300   */\n      0x00\n        /* \"#utility.yul\":26291:26297   */\n      dup3\n        /* \"#utility.yul\":26287:26301   */\n      add\n        /* \"#utility.yul\":26280:26338   */\n      mstore\n        /* \"#utility.yul\":26372:26403   */\n      0x6b656e206f776e6572206f7220617070726f76656420666f7220616c6c000000\n        /* \"#utility.yul\":26367:26369   */\n      0x20\n        /* \"#utility.yul\":26359:26365   */\n      dup3\n        /* \"#utility.yul\":26355:26370   */\n      add\n        /* \"#utility.yul\":26348:26404   */\n      mstore\n        /* \"#utility.yul\":26269:26411   */\n      pop\n      jump\t// out\n        /* \"#utility.yul\":26417:26539   */\n    tag_293:\n        /* \"#utility.yul\":26490:26514   */\n      tag_575\n        /* \"#utility.yul\":26508:26513   */\n      dup2\n        /* \"#utility.yul\":26490:26514   */\n      tag_363\n      jump\t// in\n    tag_575:\n        /* \"#utility.yul\":26483:26488   */\n      dup2\n        /* \"#utility.yul\":26480:26515   */\n      eq\n        /* \"#utility.yul\":26470:26472   */\n      tag_576\n      jumpi\n        /* \"#utility.yul\":26529:26530   */\n      0x00\n        /* \"#utility.yul\":26526:26527   */\n      dup1\n        /* \"#utility.yul\":26519:26531   */\n      revert\n        /* \"#utility.yul\":26470:26472   */\n    tag_576:\n        /* \"#utility.yul\":26460:26539   */\n      pop\n      jump\t// out\n        /* \"#utility.yul\":26545:26661   */\n    tag_297:\n        /* \"#utility.yul\":26615:26636   */\n      tag_578\n        /* \"#utility.yul\":26630:26635   */\n      dup2\n        /* \"#utility.yul\":26615:26636   */\n      tag_367\n      jump\t// in\n    tag_578:\n        /* \"#utility.yul\":26608:26613   */\n      dup2\n        /* \"#utility.yul\":26605:26637   */\n      eq\n        /* \"#utility.yul\":26595:26597   */\n      tag_579\n      jumpi\n        /* \"#utility.yul\":26651:26652   */\n      0x00\n        /* \"#utility.yul\":26648:26649   */\n      dup1\n        /* \"#utility.yul\":26641:26653   */\n      revert\n        /* \"#utility.yul\":26595:26597   */\n    tag_579:\n        /* \"#utility.yul\":26585:26661   */\n      pop\n      jump\t// out\n        /* \"#utility.yul\":26667:26787   */\n    tag_301:\n        /* \"#utility.yul\":26739:26762   */\n      tag_581\n        /* \"#utility.yul\":26756:26761   */\n      dup2\n        /* \"#utility.yul\":26739:26762   */\n      tag_530\n      jump\t// in\n    tag_581:\n        /* \"#utility.yul\":26732:26737   */\n      dup2\n        /* \"#utility.yul\":26729:26763   */\n      eq\n        /* \"#utility.yul\":26719:26721   */\n      tag_582\n      jumpi\n        /* \"#utility.yul\":26777:26778   */\n      0x00\n        /* \"#utility.yul\":26774:26775   */\n      dup1\n        /* \"#utility.yul\":26767:26779   */\n      revert\n        /* \"#utility.yul\":26719:26721   */\n    tag_582:\n        /* \"#utility.yul\":26709:26787   */\n      pop\n      jump\t// out\n        /* \"#utility.yul\":26793:26915   */\n    tag_316:\n        /* \"#utility.yul\":26866:26890   */\n      tag_584\n        /* \"#utility.yul\":26884:26889   */\n      dup2\n        /* \"#utility.yul\":26866:26890   */\n      tag_450\n      jump\t// in\n    tag_584:\n        /* \"#utility.yul\":26859:26864   */\n      dup2\n        /* \"#utility.yul\":26856:26891   */\n      eq\n        /* \"#utility.yul\":26846:26848   */\n      tag_585\n      jumpi\n        /* \"#utility.yul\":26905:26906   */\n      0x00\n        /* \"#utility.yul\":26902:26903   */\n      dup1\n        /* \"#utility.yul\":26895:26907   */\n      revert\n        /* \"#utility.yul\":26846:26848   */\n    tag_585:\n        /* \"#utility.yul\":26836:26915   */\n      pop\n      jump\t// out\n\n    auxdata: 0xa264697066735822122059b8578ebd54f59f2c03818103fa6598fcf903770bd9c27743ecdab03b30f39964736f6c63430008040033\n}\n",
				"bytecode": {
					"linkReferences": {},
					"object": "60806040523480156200001157600080fd5b5060405162002a5a38038062002a5a833981810160405281019062000037919062000193565b81600090805190602001906200004f92919062000071565b5080600190805190602001906200006892919062000071565b50505062000376565b8280546200007f906200029b565b90600052602060002090601f016020900481019282620000a35760008555620000ef565b82601f10620000be57805160ff1916838001178555620000ef565b82800160010185558215620000ef579182015b82811115620000ee578251825591602001919060010190620000d1565b5b509050620000fe919062000102565b5090565b5b808211156200011d57600081600090555060010162000103565b5090565b60006200013862000132846200022f565b62000206565b9050828152602081018484840111156200015157600080fd5b6200015e84828562000265565b509392505050565b600082601f8301126200017857600080fd5b81516200018a84826020860162000121565b91505092915050565b60008060408385031215620001a757600080fd5b600083015167ffffffffffffffff811115620001c257600080fd5b620001d08582860162000166565b925050602083015167ffffffffffffffff811115620001ee57600080fd5b620001fc8582860162000166565b9150509250929050565b60006200021262000225565b9050620002208282620002d1565b919050565b6000604051905090565b600067ffffffffffffffff8211156200024d576200024c62000336565b5b620002588262000365565b9050602081019050919050565b60005b838110156200028557808201518184015260208101905062000268565b8381111562000295576000848401525b50505050565b60006002820490506001821680620002b457607f821691505b60208210811415620002cb57620002ca62000307565b5b50919050565b620002dc8262000365565b810181811067ffffffffffffffff82111715620002fe57620002fd62000336565b5b80604052505050565b7f4e487b7100000000000000000000000000000000000000000000000000000000600052602260045260246000fd5b7f4e487b7100000000000000000000000000000000000000000000000000000000600052604160045260246000fd5b6000601f19601f8301169050919050565b6126d480620003866000396000f3fe608060405234801561001057600080fd5b50600436106100ea5760003560e01c806370a082311161008c578063ab33a3ad11610066578063ab33a3ad1461025b578063b88d4fde14610277578063c87b56dd14610293578063e985e9c5146102c3576100ea565b806370a08231146101f157806395d89b4114610221578063a22cb4651461023f576100ea565b8063095ea7b3116100c8578063095ea7b31461016d57806323b872dd1461018957806342842e0e146101a55780636352211e146101c1576100ea565b806301ffc9a7146100ef57806306fdde031461011f578063081812fc1461013d575b600080fd5b61010960048036038101906101049190611a81565b6102f3565b6040516101169190611dd8565b60405180910390f35b6101276103d5565b6040516101349190611df3565b60405180910390f35b61015760048036038101906101529190611ad3565b610467565b6040516101649190611d71565b60405180910390f35b61018760048036038101906101829190611a45565b6104ad565b005b6101a3600480360381019061019e91906118c4565b6105c5565b005b6101bf60048036038101906101ba91906118c4565b610625565b005b6101db60048036038101906101d69190611ad3565b610645565b6040516101e89190611d71565b60405180910390f35b61020b6004803603810190610206919061185f565b6106f7565b6040516102189190611f75565b60405180910390f35b6102296107af565b6040516102369190611df3565b60405180910390f35b61025960048036038101906102549190611a09565b610841565b005b6102756004803603810190610270919061198e565b610857565b005b610291600480360381019061028c9190611913565b610872565b005b6102ad60048036038101906102a89190611ad3565b6108d4565b6040516102ba9190611df3565b60405180910390f35b6102dd60048036038101906102d89190611888565b61093c565b6040516102ea9190611dd8565b60405180910390f35b60007f80ac58cd000000000000000000000000000000000000000000000000000000007bffffffffffffffffffffffffffffffffffffffffffffffffffffffff1916827bffffffffffffffffffffffffffffffffffffffffffffffffffffffff191614806103be57507f5b5e139f000000000000000000000000000000000000000000000000000000007bffffffffffffffffffffffffffffffffffffffffffffffffffffffff1916827bffffffffffffffffffffffffffffffffffffffffffffffffffffffff1916145b806103ce57506103cd826109d0565b5b9050919050565b6060600080546103e4906121cb565b80601f0160208091040260200160405190810160405280929190818152602001828054610410906121cb565b801561045d5780601f106104325761010080835404028352916020019161045d565b820191906000526020600020905b81548152906001019060200180831161044057829003601f168201915b5050505050905090565b600061047282610a3a565b6005600083815260200190815260200160002060009054906101000a900473ffffffffffffffffffffffffffffffffffffffff169050919050565b60006104b882610645565b90508073ffffffffffffffffffffffffffffffffffffffff168373ffffffffffffffffffffffffffffffffffffffff161415610529576040517f08c379a000000000000000000000000000000000000000000000000000000000815260040161052090611f35565b60405180910390fd5b8073ffffffffffffffffffffffffffffffffffffffff16610548610a85565b73ffffffffffffffffffffffffffffffffffffffff161480610577575061057681610571610a85565b61093c565b5b6105b6576040517f08c379a00000000000000000000000000000000000000000000000000000000081526004016105ad90611f55565b60405180910390fd5b6105c08383610a8d565b505050565b6105d66105d0610a85565b82610b46565b610615576040517f08c379a000000000000000000000000000000000000000000000000000000000815260040161060c90611e15565b60405180910390fd5b610620838383610bdb565b505050565b61064083838360405180602001604052806000815250610872565b505050565b6000806002600084815260200190815260200160002060009054906101000a900473ffffffffffffffffffffffffffffffffffffffff169050600073ffffffffffffffffffffffffffffffffffffffff168173ffffffffffffffffffffffffffffffffffffffff1614156106ee576040517f08c379a00000000000000000000000000000000000000000000000000000000081526004016106e590611f15565b60405180910390fd5b80915050919050565b60008073ffffffffffffffffffffffffffffffffffffffff168273ffffffffffffffffffffffffffffffffffffffff161415610768576040517f08c379a000000000000000000000000000000000000000000000000000000000815260040161075f90611ed5565b60405180910390fd5b600460008373ffffffffffffffffffffffffffffffffffffffff1673ffffffffffffffffffffffffffffffffffffffff168152602001908152602001600020549050919050565b6060600180546107be906121cb565b80601f01602080910402602001604051908101604052809291908181526020018280546107ea906121cb565b80156108375780601f1061080c57610100808354040283529160200191610837565b820191906000526020600020905b81548152906001019060200180831161081a57829003601f168201915b5050505050905090565b61085361084c610a85565b8383610ed1565b5050565b61086284848461103e565b61086b826108d4565b5050505050565b61088361087d610a85565b83610b46565b6108c2576040517f08c379a00000000000000000000000000000000000000000000000000000000081526004016108b990611e15565b60405180910390fd5b6108ce8484848461105e565b50505050565b60606108df82610a3a565b60006108e96110ba565b905060008151116109095760405180602001604052806000815250610934565b80610913846110d1565b604051602001610924929190611d4d565b6040516020818303038152906040525b915050919050565b6000600660008473ffffffffffffffffffffffffffffffffffffffff1673ffffffffffffffffffffffffffffffffffffffff16815260200190815260200160002060008373ffffffffffffffffffffffffffffffffffffffff1673ffffffffffffffffffffffffffffffffffffffff16815260200190815260200160002060009054906101000a900460ff16905092915050565b60007f01ffc9a7000000000000000000000000000000000000000000000000000000007bffffffffffffffffffffffffffffffffffffffffffffffffffffffff1916827bffffffffffffffffffffffffffffffffffffffffffffffffffffffff1916149050919050565b610a438161127e565b610a82576040517f08c379a0000000000000000000000000000000000000000000000000000000008152600401610a7990611f15565b60405180910390fd5b50565b600033905090565b816005600083815260200190815260200160002060006101000a81548173ffffffffffffffffffffffffffffffffffffffff021916908373ffffffffffffffffffffffffffffffffffffffff160217905550808273ffffffffffffffffffffffffffffffffffffffff16610b0083610645565b73ffffffffffffffffffffffffffffffffffffffff167f8c5be1e5ebec7d5bd14f71427d1e84f3dd0314c0f7b2291e5b200ac8c7c3b92560405160405180910390a45050565b600080610b5283610645565b90508073ffffffffffffffffffffffffffffffffffffffff168473ffffffffffffffffffffffffffffffffffffffff161480610b945750610b93818561093c565b5b80610bd257508373ffffffffffffffffffffffffffffffffffffffff16610bba84610467565b73ffffffffffffffffffffffffffffffffffffffff16145b91505092915050565b8273ffffffffffffffffffffffffffffffffffffffff16610bfb82610645565b73ffffffffffffffffffffffffffffffffffffffff1614610c51576040517f08c379a0000000000000000000000000000000000000000000000000000000008152600401610c4890611e55565b60405180910390fd5b600073ffffffffffffffffffffffffffffffffffffffff168273ffffffffffffffffffffffffffffffffffffffff161415610cc1576040517f08c379a0000000000000000000000000000000000000000000000000000000008152600401610cb890611e95565b60405180910390fd5b610ccc8383836112ea565b8273ffffffffffffffffffffffffffffffffffffffff16610cec82610645565b73ffffffffffffffffffffffffffffffffffffffff1614610d42576040517f08c379a0000000000000000000000000000000000000000000000000000000008152600401610d3990611e55565b60405180910390fd5b6005600082815260200190815260200160002060006101000a81549073ffffffffffffffffffffffffffffffffffffffff02191690556001600460008573ffffffffffffffffffffffffffffffffffffffff1673ffffffffffffffffffffffffffffffffffffffff168152602001908152602001600020600082825403925050819055506001600460008473ffffffffffffffffffffffffffffffffffffffff1673ffffffffffffffffffffffffffffffffffffffff16815260200190815260200160002060008282540192505081905550816002600083815260200190815260200160002060006101000a81548173ffffffffffffffffffffffffffffffffffffffff021916908373ffffffffffffffffffffffffffffffffffffffff160217905550808273ffffffffffffffffffffffffffffffffffffffff168473ffffffffffffffffffffffffffffffffffffffff167fddf252ad1be2c89b69c2b068fc378daa952ba7f163c4a11628f55a4df523b3ef60405160405180910390a4610ecc8383836112ef565b505050565b8173ffffffffffffffffffffffffffffffffffffffff168373ffffffffffffffffffffffffffffffffffffffff161415610f40576040517f08c379a0000000000000000000000000000000000000000000000000000000008152600401610f3790611eb5565b60405180910390fd5b80600660008573ffffffffffffffffffffffffffffffffffffffff1673ffffffffffffffffffffffffffffffffffffffff16815260200190815260200160002060008473ffffffffffffffffffffffffffffffffffffffff1673ffffffffffffffffffffffffffffffffffffffff16815260200190815260200160002060006101000a81548160ff0219169083151502179055508173ffffffffffffffffffffffffffffffffffffffff168373ffffffffffffffffffffffffffffffffffffffff167f17307eab39ab6107e8899845ad3d59bd9653f200f220920489ca2b5937696c31836040516110319190611dd8565b60405180910390a3505050565b611059838383604051806020016040528060008152506112f4565b505050565b611069848484610bdb565b61107584848484611351565b6110b4576040517f08c379a00000000000000000000000000000000000000000000000000000000081526004016110ab90611e35565b60405180910390fd5b50505050565b606060405180602001604052806000815250905090565b60606000821415611119576040518060400160405280600181526020017f30000000000000000000000000000000000000000000000000000000000000008152509050611279565b600082905060005b6000821461114b5780806111349061222e565b915050600a8261114491906120b0565b9150611121565b60008167ffffffffffffffff81111561118d577f4e487b7100000000000000000000000000000000000000000000000000000000600052604160045260246000fd5b6040519080825280601f01601f1916602001820160405280156111bf5781602001600182028036833780820191505090505b5090505b60008514611272576001826111d891906120e1565b9150600a856111e79190612277565b60306111f3919061205a565b60f81b81838151811061122f577f4e487b7100000000000000000000000000000000000000000000000000000000600052603260045260246000fd5b60200101907effffffffffffffffffffffffffffffffffffffffffffffffffffffffffffff1916908160001a905350600a8561126b91906120b0565b94506111c3565b8093505050505b919050565b60008073ffffffffffffffffffffffffffffffffffffffff166002600084815260200190815260200160002060009054906101000a900473ffffffffffffffffffffffffffffffffffffffff1673ffffffffffffffffffffffffffffffffffffffff1614159050919050565b505050565b505050565b6112ff8484846114e8565b61130c6000858484611351565b61134b576040517f08c379a000000000000000000000000000000000000000000000000000000000815260040161134290611e35565b60405180910390fd5b50505050565b60006113728473ffffffffffffffffffffffffffffffffffffffff16611703565b156114db578373ffffffffffffffffffffffffffffffffffffffff1663150b7a0261139b610a85565b8786866040518563ffffffff1660e01b81526004016113bd9493929190611d8c565b602060405180830381600087803b1580156113d757600080fd5b505af192505050801561140857506040513d601f19601f820116820180604052508101906114059190611aaa565b60015b61148b573d8060008114611438576040519150601f19603f3d011682016040523d82523d6000602084013e61143d565b606091505b50600081511415611483576040517f08c379a000000000000000000000000000000000000000000000000000000000815260040161147a90611e35565b60405180910390fd5b805181602001fd5b63150b7a0260e01b7bffffffffffffffffffffffffffffffffffffffffffffffffffffffff1916817bffffffffffffffffffffffffffffffffffffffffffffffffffffffff1916149150506114e0565b600190505b949350505050565b600073ffffffffffffffffffffffffffffffffffffffff168373ffffffffffffffffffffffffffffffffffffffff161415611558576040517f08c379a000000000000000000000000000000000000000000000000000000000815260040161154f90611ef5565b60405180910390fd5b6115618161127e565b156115a1576040517f08c379a000000000000000000000000000000000000000000000000000000000815260040161159890611e75565b60405180910390fd5b6115ad600084836112ea565b6115b68161127e565b156115f6576040517f08c379a00000000000000000000000000000000000000000000000000000000081526004016115ed90611e75565b60405180910390fd5b6001600460008573ffffffffffffffffffffffffffffffffffffffff1673ffffffffffffffffffffffffffffffffffffffff16815260200190815260200160002060008282540192505081905550826002600083815260200190815260200160002060006101000a81548173ffffffffffffffffffffffffffffffffffffffff021916908373ffffffffffffffffffffffffffffffffffffffff160217905550808373ffffffffffffffffffffffffffffffffffffffff16600073ffffffffffffffffffffffffffffffffffffffff167fddf252ad1be2c89b69c2b068fc378daa952ba7f163c4a11628f55a4df523b3ef60405160405180910390a46116fe600084836112ef565b505050565b6000808273ffffffffffffffffffffffffffffffffffffffff163b119050919050565b600061173961173484611fb5565b611f90565b90508281526020810184848401111561175157600080fd5b61175c848285612189565b509392505050565b600061177761177284611fe6565b611f90565b90508281526020810184848401111561178f57600080fd5b61179a848285612189565b509392505050565b6000813590506117b181612642565b92915050565b6000813590506117c681612659565b92915050565b6000813590506117db81612670565b92915050565b6000815190506117f081612670565b92915050565b600082601f83011261180757600080fd5b8135611817848260208601611726565b91505092915050565b600082601f83011261183157600080fd5b8135611841848260208601611764565b91505092915050565b60008135905061185981612687565b92915050565b60006020828403121561187157600080fd5b600061187f848285016117a2565b91505092915050565b6000806040838503121561189b57600080fd5b60006118a9858286016117a2565b92505060206118ba858286016117a2565b9150509250929050565b6000806000606084860312156118d957600080fd5b60006118e7868287016117a2565b93505060206118f8868287016117a2565b92505060406119098682870161184a565b9150509250925092565b6000806000806080858703121561192957600080fd5b6000611937878288016117a2565b9450506020611948878288016117a2565b93505060406119598782880161184a565b925050606085013567ffffffffffffffff81111561197657600080fd5b611982878288016117f6565b91505092959194509250565b600080600080608085870312156119a457600080fd5b60006119b2878288016117a2565b94505060206119c3878288016117a2565b93505060406119d48782880161184a565b925050606085013567ffffffffffffffff8111156119f157600080fd5b6119fd87828801611820565b91505092959194509250565b60008060408385031215611a1c57600080fd5b6000611a2a858286016117a2565b9250506020611a3b858286016117b7565b9150509250929050565b60008060408385031215611a5857600080fd5b6000611a66858286016117a2565b9250506020611a778582860161184a565b9150509250929050565b600060208284031215611a9357600080fd5b6000611aa1848285016117cc565b91505092915050565b600060208284031215611abc57600080fd5b6000611aca848285016117e1565b91505092915050565b600060208284031215611ae557600080fd5b6000611af38482850161184a565b91505092915050565b611b0581612115565b82525050565b611b1481612127565b82525050565b6000611b2582612017565b611b2f818561202d565b9350611b3f818560208601612198565b611b4881612364565b840191505092915050565b6000611b5e82612022565b611b68818561203e565b9350611b78818560208601612198565b611b8181612364565b840191505092915050565b6000611b9782612022565b611ba1818561204f565b9350611bb1818560208601612198565b80840191505092915050565b6000611bca602d8361203e565b9150611bd582612375565b604082019050919050565b6000611bed60328361203e565b9150611bf8826123c4565b604082019050919050565b6000611c1060258361203e565b9150611c1b82612413565b604082019050919050565b6000611c33601c8361203e565b9150611c3e82612462565b602082019050919050565b6000611c5660248361203e565b9150611c618261248b565b604082019050919050565b6000611c7960198361203e565b9150611c84826124da565b602082019050919050565b6000611c9c60298361203e565b9150611ca782612503565b604082019050919050565b6000611cbf60208361203e565b9150611cca82612552565b602082019050919050565b6000611ce260188361203e565b9150611ced8261257b565b602082019050919050565b6000611d0560218361203e565b9150611d10826125a4565b604082019050919050565b6000611d28603d8361203e565b9150611d33826125f3565b604082019050919050565b611d478161217f565b82525050565b6000611d598285611b8c565b9150611d658284611b8c565b91508190509392505050565b6000602082019050611d866000830184611afc565b92915050565b6000608082019050611da16000830187611afc565b611dae6020830186611afc565b611dbb6040830185611d3e565b8181036060830152611dcd8184611b1a565b905095945050505050565b6000602082019050611ded6000830184611b0b565b92915050565b60006020820190508181036000830152611e0d8184611b53565b905092915050565b60006020820190508181036000830152611e2e81611bbd565b9050919050565b60006020820190508181036000830152611e4e81611be0565b9050919050565b60006020820190508181036000830152611e6e81611c03565b9050919050565b60006020820190508181036000830152611e8e81611c26565b9050919050565b60006020820190508181036000830152611eae81611c49565b9050919050565b60006020820190508181036000830152611ece81611c6c565b9050919050565b60006020820190508181036000830152611eee81611c8f565b9050919050565b60006020820190508181036000830152611f0e81611cb2565b9050919050565b60006020820190508181036000830152611f2e81611cd5565b9050919050565b60006020820190508181036000830152611f4e81611cf8565b9050919050565b60006020820190508181036000830152611f6e81611d1b565b9050919050565b6000602082019050611f8a6000830184611d3e565b92915050565b6000611f9a611fab565b9050611fa682826121fd565b919050565b6000604051905090565b600067ffffffffffffffff821115611fd057611fcf612335565b5b611fd982612364565b9050602081019050919050565b600067ffffffffffffffff82111561200157612000612335565b5b61200a82612364565b9050602081019050919050565b600081519050919050565b600081519050919050565b600082825260208201905092915050565b600082825260208201905092915050565b600081905092915050565b60006120658261217f565b91506120708361217f565b9250827fffffffffffffffffffffffffffffffffffffffffffffffffffffffffffffffff038211156120a5576120a46122a8565b5b828201905092915050565b60006120bb8261217f565b91506120c68361217f565b9250826120d6576120d56122d7565b5b828204905092915050565b60006120ec8261217f565b91506120f78361217f565b92508282101561210a576121096122a8565b5b828203905092915050565b60006121208261215f565b9050919050565b60008115159050919050565b60007fffffffff0000000000000000000000000000000000000000000000000000000082169050919050565b600073ffffffffffffffffffffffffffffffffffffffff82169050919050565b6000819050919050565b82818337600083830152505050565b60005b838110156121b657808201518184015260208101905061219b565b838111156121c5576000848401525b50505050565b600060028204905060018216806121e357607f821691505b602082108114156121f7576121f6612306565b5b50919050565b61220682612364565b810181811067ffffffffffffffff8211171561222557612224612335565b5b80604052505050565b60006122398261217f565b91507fffffffffffffffffffffffffffffffffffffffffffffffffffffffffffffffff82141561226c5761226b6122a8565b5b600182019050919050565b60006122828261217f565b915061228d8361217f565b92508261229d5761229c6122d7565b5b828206905092915050565b7f4e487b7100000000000000000000000000000000000000000000000000000000600052601160045260246000fd5b7f4e487b7100000000000000000000000000000000000000000000000000000000600052601260045260246000fd5b7f4e487b7100000000000000000000000000000000000000000000000000000000600052602260045260246000fd5b7f4e487b7100000000000000000000000000000000000000000000000000000000600052604160045260246000fd5b6000601f19601f8301169050919050565b7f4552433732313a2063616c6c6572206973206e6f7420746f6b656e206f776e6560008201527f72206f7220617070726f76656400000000000000000000000000000000000000602082015250565b7f4552433732313a207472616e7366657220746f206e6f6e20455243373231526560008201527f63656976657220696d706c656d656e7465720000000000000000000000000000602082015250565b7f4552433732313a207472616e736665722066726f6d20696e636f72726563742060008201527f6f776e6572000000000000000000000000000000000000000000000000000000602082015250565b7f4552433732313a20746f6b656e20616c7265616479206d696e74656400000000600082015250565b7f4552433732313a207472616e7366657220746f20746865207a65726f2061646460008201527f7265737300000000000000000000000000000000000000000000000000000000602082015250565b7f4552433732313a20617070726f766520746f2063616c6c657200000000000000600082015250565b7f4552433732313a2061646472657373207a65726f206973206e6f74206120766160008201527f6c6964206f776e65720000000000000000000000000000000000000000000000602082015250565b7f4552433732313a206d696e7420746f20746865207a65726f2061646472657373600082015250565b7f4552433732313a20696e76616c696420746f6b656e2049440000000000000000600082015250565b7f4552433732313a20617070726f76616c20746f2063757272656e74206f776e6560008201527f7200000000000000000000000000000000000000000000000000000000000000602082015250565b7f4552433732313a20617070726f76652063616c6c6572206973206e6f7420746f60008201527f6b656e206f776e6572206f7220617070726f76656420666f7220616c6c000000602082015250565b61264b81612115565b811461265657600080fd5b50565b61266281612127565b811461266d57600080fd5b50565b61267981612133565b811461268457600080fd5b50565b6126908161217f565b811461269b57600080fd5b5056fea264697066735822122059b8578ebd54f59f2c03818103fa6598fcf903770bd9c27743ecdab03b30f39964736f6c63430008040033",
					"opcodes": "PUSH1 0x80 PUSH1 0x40 MSTORE CALLVALUE DUP1 ISZERO PUSH3 0x11 JUMPI PUSH1 0x0 DUP1 REVERT JUMPDEST POP PUSH1 0x40 MLOAD PUSH3 0x2A5A CODESIZE SUB DUP1 PUSH3 0x2A5A DUP4 CODECOPY DUP2 DUP2 ADD PUSH1 0x40 MSTORE DUP2 ADD SWAP1 PUSH3 0x37 SWAP2 SWAP1 PUSH3 0x193 JUMP JUMPDEST DUP2 PUSH1 0x0 SWAP1 DUP1 MLOAD SWAP1 PUSH1 0x20 ADD SWAP1 PUSH3 0x4F SWAP3 SWAP2 SWAP1 PUSH3 0x71 JUMP JUMPDEST POP DUP1 PUSH1 0x1 SWAP1 DUP1 MLOAD SWAP1 PUSH1 0x20 ADD SWAP1 PUSH3 0x68 SWAP3 SWAP2 SWAP1 PUSH3 0x71 JUMP JUMPDEST POP POP POP PUSH3 0x376 JUMP JUMPDEST DUP3 DUP1 SLOAD PUSH3 0x7F SWAP1 PUSH3 0x29B JUMP JUMPDEST SWAP1 PUSH1 0x0 MSTORE PUSH1 0x20 PUSH1 0x0 KECCAK256 SWAP1 PUSH1 0x1F ADD PUSH1 0x20 SWAP1 DIV DUP2 ADD SWAP3 DUP3 PUSH3 0xA3 JUMPI PUSH1 0x0 DUP6 SSTORE PUSH3 0xEF JUMP JUMPDEST DUP3 PUSH1 0x1F LT PUSH3 0xBE JUMPI DUP1 MLOAD PUSH1 0xFF NOT AND DUP4 DUP1 ADD OR DUP6 SSTORE PUSH3 0xEF JUMP JUMPDEST DUP3 DUP1 ADD PUSH1 0x1 ADD DUP6 SSTORE DUP3 ISZERO PUSH3 0xEF JUMPI SWAP2 DUP3 ADD JUMPDEST DUP3 DUP2 GT ISZERO PUSH3 0xEE JUMPI DUP3 MLOAD DUP3 SSTORE SWAP2 PUSH1 0x20 ADD SWAP2 SWAP1 PUSH1 0x1 ADD SWAP1 PUSH3 0xD1 JUMP JUMPDEST JUMPDEST POP SWAP1 POP PUSH3 0xFE SWAP2 SWAP1 PUSH3 0x102 JUMP JUMPDEST POP SWAP1 JUMP JUMPDEST JUMPDEST DUP1 DUP3 GT ISZERO PUSH3 0x11D JUMPI PUSH1 0x0 DUP2 PUSH1 0x0 SWAP1 SSTORE POP PUSH1 0x1 ADD PUSH3 0x103 JUMP JUMPDEST POP SWAP1 JUMP JUMPDEST PUSH1 0x0 PUSH3 0x138 PUSH3 0x132 DUP5 PUSH3 0x22F JUMP JUMPDEST PUSH3 0x206 JUMP JUMPDEST SWAP1 POP DUP3 DUP2 MSTORE PUSH1 0x20 DUP2 ADD DUP5 DUP5 DUP5 ADD GT ISZERO PUSH3 0x151 JUMPI PUSH1 0x0 DUP1 REVERT JUMPDEST PUSH3 0x15E DUP5 DUP3 DUP6 PUSH3 0x265 JUMP JUMPDEST POP SWAP4 SWAP3 POP POP POP JUMP JUMPDEST PUSH1 0x0 DUP3 PUSH1 0x1F DUP4 ADD SLT PUSH3 0x178 JUMPI PUSH1 0x0 DUP1 REVERT JUMPDEST DUP2 MLOAD PUSH3 0x18A DUP5 DUP3 PUSH1 0x20 DUP7 ADD PUSH3 0x121 JUMP JUMPDEST SWAP2 POP POP SWAP3 SWAP2 POP POP JUMP JUMPDEST PUSH1 0x0 DUP1 PUSH1 0x40 DUP4 DUP6 SUB SLT ISZERO PUSH3 0x1A7 JUMPI PUSH1 0x0 DUP1 REVERT JUMPDEST PUSH1 0x0 DUP4 ADD MLOAD PUSH8 0xFFFFFFFFFFFFFFFF DUP2 GT ISZERO PUSH3 0x1C2 JUMPI PUSH1 0x0 DUP1 REVERT JUMPDEST PUSH3 0x1D0 DUP6 DUP3 DUP7 ADD PUSH3 0x166 JUMP JUMPDEST SWAP3 POP POP PUSH1 0x20 DUP4 ADD MLOAD PUSH8 0xFFFFFFFFFFFFFFFF DUP2 GT ISZERO PUSH3 0x1EE JUMPI PUSH1 0x0 DUP1 REVERT JUMPDEST PUSH3 0x1FC DUP6 DUP3 DUP7 ADD PUSH3 0x166 JUMP JUMPDEST SWAP2 POP POP SWAP3 POP SWAP3 SWAP1 POP JUMP JUMPDEST PUSH1 0x0 PUSH3 0x212 PUSH3 0x225 JUMP JUMPDEST SWAP1 POP PUSH3 0x220 DUP3 DUP3 PUSH3 0x2D1 JUMP JUMPDEST SWAP2 SWAP1 POP JUMP JUMPDEST PUSH1 0x0 PUSH1 0x40 MLOAD SWAP1 POP SWAP1 JUMP JUMPDEST PUSH1 0x0 PUSH8 0xFFFFFFFFFFFFFFFF DUP3 GT ISZERO PUSH3 0x24D JUMPI PUSH3 0x24C PUSH3 0x336 JUMP JUMPDEST JUMPDEST PUSH3 0x258 DUP3 PUSH3 0x365 JUMP JUMPDEST SWAP1 POP PUSH1 0x20 DUP2 ADD SWAP1 POP SWAP2 SWAP1 POP JUMP JUMPDEST PUSH1 0x0 JUMPDEST DUP4 DUP2 LT ISZERO PUSH3 0x285 JUMPI DUP1 DUP3 ADD MLOAD DUP2 DUP5 ADD MSTORE PUSH1 0x20 DUP2 ADD SWAP1 POP PUSH3 0x268 JUMP JUMPDEST DUP4 DUP2 GT ISZERO PUSH3 0x295 JUMPI PUSH1 0x0 DUP5 DUP5 ADD MSTORE JUMPDEST POP POP POP POP JUMP JUMPDEST PUSH1 0x0 PUSH1 0x2 DUP3 DIV SWAP1 POP PUSH1 0x1 DUP3 AND DUP1 PUSH3 0x2B4 JUMPI PUSH1 0x7F DUP3 AND SWAP2 POP JUMPDEST PUSH1 0x20 DUP3 LT DUP2 EQ ISZERO PUSH3 0x2CB JUMPI PUSH3 0x2CA PUSH3 0x307 JUMP JUMPDEST JUMPDEST POP SWAP2 SWAP1 POP JUMP JUMPDEST PUSH3 0x2DC DUP3 PUSH3 0x365 JUMP JUMPDEST DUP2 ADD DUP2 DUP2 LT PUSH8 0xFFFFFFFFFFFFFFFF DUP3 GT OR ISZERO PUSH3 0x2FE JUMPI PUSH3 0x2FD PUSH3 0x336 JUMP JUMPDEST JUMPDEST DUP1 PUSH1 0x40 MSTORE POP POP POP JUMP JUMPDEST PUSH32 0x4E487B7100000000000000000000000000000000000000000000000000000000 PUSH1 0x0 MSTORE PUSH1 0x22 PUSH1 0x4 MSTORE PUSH1 0x24 PUSH1 0x0 REVERT JUMPDEST PUSH32 0x4E487B7100000000000000000000000000000000000000000000000000000000 PUSH1 0x0 MSTORE PUSH1 0x41 PUSH1 0x4 MSTORE PUSH1 0x24 PUSH1 0x0 REVERT JUMPDEST PUSH1 0x0 PUSH1 0x1F NOT PUSH1 0x1F DUP4 ADD AND SWAP1 POP SWAP2 SWAP1 POP JUMP JUMPDEST PUSH2 0x26D4 DUP1 PUSH3 0x386 PUSH1 0x0 CODECOPY PUSH1 0x0 RETURN INVALID PUSH1 0x80 PUSH1 0x40 MSTORE CALLVALUE DUP1 ISZERO PUSH2 0x10 JUMPI PUSH1 0x0 DUP1 REVERT JUMPDEST POP PUSH1 0x4 CALLDATASIZE LT PUSH2 0xEA JUMPI PUSH1 0x0 CALLDATALOAD PUSH1 0xE0 SHR DUP1 PUSH4 0x70A08231 GT PUSH2 0x8C JUMPI DUP1 PUSH4 0xAB33A3AD GT PUSH2 0x66 JUMPI DUP1 PUSH4 0xAB33A3AD EQ PUSH2 0x25B JUMPI DUP1 PUSH4 0xB88D4FDE EQ PUSH2 0x277 JUMPI DUP1 PUSH4 0xC87B56DD EQ PUSH2 0x293 JUMPI DUP1 PUSH4 0xE985E9C5 EQ PUSH2 0x2C3 JUMPI PUSH2 0xEA JUMP JUMPDEST DUP1 PUSH4 0x70A08231 EQ PUSH2 0x1F1 JUMPI DUP1 PUSH4 0x95D89B41 EQ PUSH2 0x221 JUMPI DUP1 PUSH4 0xA22CB465 EQ PUSH2 0x23F JUMPI PUSH2 0xEA JUMP JUMPDEST DUP1 PUSH4 0x95EA7B3 GT PUSH2 0xC8 JUMPI DUP1 PUSH4 0x95EA7B3 EQ PUSH2 0x16D JUMPI DUP1 PUSH4 0x23B872DD EQ PUSH2 0x189 JUMPI DUP1 PUSH4 0x42842E0E EQ PUSH2 0x1A5 JUMPI DUP1 PUSH4 0x6352211E EQ PUSH2 0x1C1 JUMPI PUSH2 0xEA JUMP JUMPDEST DUP1 PUSH4 0x1FFC9A7 EQ PUSH2 0xEF JUMPI DUP1 PUSH4 0x6FDDE03 EQ PUSH2 0x11F JUMPI DUP1 PUSH4 0x81812FC EQ PUSH2 0x13D JUMPI JUMPDEST PUSH1 0x0 DUP1 REVERT JUMPDEST PUSH2 0x109 PUSH1 0x4 DUP1 CALLDATASIZE SUB DUP2 ADD SWAP1 PUSH2 0x104 SWAP2 SWAP1 PUSH2 0x1A81 JUMP JUMPDEST PUSH2 0x2F3 JUMP JUMPDEST PUSH1 0x40 MLOAD PUSH2 0x116 SWAP2 SWAP1 PUSH2 0x1DD8 JUMP JUMPDEST PUSH1 0x40 MLOAD DUP1 SWAP2 SUB SWAP1 RETURN JUMPDEST PUSH2 0x127 PUSH2 0x3D5 JUMP JUMPDEST PUSH1 0x40 MLOAD PUSH2 0x134 SWAP2 SWAP1 PUSH2 0x1DF3 JUMP JUMPDEST PUSH1 0x40 MLOAD DUP1 SWAP2 SUB SWAP1 RETURN JUMPDEST PUSH2 0x157 PUSH1 0x4 DUP1 CALLDATASIZE SUB DUP2 ADD SWAP1 PUSH2 0x152 SWAP2 SWAP1 PUSH2 0x1AD3 JUMP JUMPDEST PUSH2 0x467 JUMP JUMPDEST PUSH1 0x40 MLOAD PUSH2 0x164 SWAP2 SWAP1 PUSH2 0x1D71 JUMP JUMPDEST PUSH1 0x40 MLOAD DUP1 SWAP2 SUB SWAP1 RETURN JUMPDEST PUSH2 0x187 PUSH1 0x4 DUP1 CALLDATASIZE SUB DUP2 ADD SWAP1 PUSH2 0x182 SWAP2 SWAP1 PUSH2 0x1A45 JUMP JUMPDEST PUSH2 0x4AD JUMP JUMPDEST STOP JUMPDEST PUSH2 0x1A3 PUSH1 0x4 DUP1 CALLDATASIZE SUB DUP2 ADD SWAP1 PUSH2 0x19E SWAP2 SWAP1 PUSH2 0x18C4 JUMP JUMPDEST PUSH2 0x5C5 JUMP JUMPDEST STOP JUMPDEST PUSH2 0x1BF PUSH1 0x4 DUP1 CALLDATASIZE SUB DUP2 ADD SWAP1 PUSH2 0x1BA SWAP2 SWAP1 PUSH2 0x18C4 JUMP JUMPDEST PUSH2 0x625 JUMP JUMPDEST STOP JUMPDEST PUSH2 0x1DB PUSH1 0x4 DUP1 CALLDATASIZE SUB DUP2 ADD SWAP1 PUSH2 0x1D6 SWAP2 SWAP1 PUSH2 0x1AD3 JUMP JUMPDEST PUSH2 0x645 JUMP JUMPDEST PUSH1 0x40 MLOAD PUSH2 0x1E8 SWAP2 SWAP1 PUSH2 0x1D71 JUMP JUMPDEST PUSH1 0x40 MLOAD DUP1 SWAP2 SUB SWAP1 RETURN JUMPDEST PUSH2 0x20B PUSH1 0x4 DUP1 CALLDATASIZE SUB DUP2 ADD SWAP1 PUSH2 0x206 SWAP2 SWAP1 PUSH2 0x185F JUMP JUMPDEST PUSH2 0x6F7 JUMP JUMPDEST PUSH1 0x40 MLOAD PUSH2 0x218 SWAP2 SWAP1 PUSH2 0x1F75 JUMP JUMPDEST PUSH1 0x40 MLOAD DUP1 SWAP2 SUB SWAP1 RETURN JUMPDEST PUSH2 0x229 PUSH2 0x7AF JUMP JUMPDEST PUSH1 0x40 MLOAD PUSH2 0x236 SWAP2 SWAP1 PUSH2 0x1DF3 JUMP JUMPDEST PUSH1 0x40 MLOAD DUP1 SWAP2 SUB SWAP1 RETURN JUMPDEST PUSH2 0x259 PUSH1 0x4 DUP1 CALLDATASIZE SUB DUP2 ADD SWAP1 PUSH2 0x254 SWAP2 SWAP1 PUSH2 0x1A09 JUMP JUMPDEST PUSH2 0x841 JUMP JUMPDEST STOP JUMPDEST PUSH2 0x275 PUSH1 0x4 DUP1 CALLDATASIZE SUB DUP2 ADD SWAP1 PUSH2 0x270 SWAP2 SWAP1 PUSH2 0x198E JUMP JUMPDEST PUSH2 0x857 JUMP JUMPDEST STOP JUMPDEST PUSH2 0x291 PUSH1 0x4 DUP1 CALLDATASIZE SUB DUP2 ADD SWAP1 PUSH2 0x28C SWAP2 SWAP1 PUSH2 0x1913 JUMP JUMPDEST PUSH2 0x872 JUMP JUMPDEST STOP JUMPDEST PUSH2 0x2AD PUSH1 0x4 DUP1 CALLDATASIZE SUB DUP2 ADD SWAP1 PUSH2 0x2A8 SWAP2 SWAP1 PUSH2 0x1AD3 JUMP JUMPDEST PUSH2 0x8D4 JUMP JUMPDEST PUSH1 0x40 MLOAD PUSH2 0x2BA SWAP2 SWAP1 PUSH2 0x1DF3 JUMP JUMPDEST PUSH1 0x40 MLOAD DUP1 SWAP2 SUB SWAP1 RETURN JUMPDEST PUSH2 0x2DD PUSH1 0x4 DUP1 CALLDATASIZE SUB DUP2 ADD SWAP1 PUSH2 0x2D8 SWAP2 SWAP1 PUSH2 0x1888 JUMP JUMPDEST PUSH2 0x93C JUMP JUMPDEST PUSH1 0x40 MLOAD PUSH2 0x2EA SWAP2 SWAP1 PUSH2 0x1DD8 JUMP JUMPDEST PUSH1 0x40 MLOAD DUP1 SWAP2 SUB SWAP1 RETURN JUMPDEST PUSH1 0x0 PUSH32 0x80AC58CD00000000000000000000000000000000000000000000000000000000 PUSH28 0xFFFFFFFFFFFFFFFFFFFFFFFFFFFFFFFFFFFFFFFFFFFFFFFFFFFFFFFF NOT AND DUP3 PUSH28 0xFFFFFFFFFFFFFFFFFFFFFFFFFFFFFFFFFFFFFFFFFFFFFFFFFFFFFFFF NOT AND EQ DUP1 PUSH2 0x3BE JUMPI POP PUSH32 0x5B5E139F00000000000000000000000000000000000000000000000000000000 PUSH28 0xFFFFFFFFFFFFFFFFFFFFFFFFFFFFFFFFFFFFFFFFFFFFFFFFFFFFFFFF NOT AND DUP3 PUSH28 0xFFFFFFFFFFFFFFFFFFFFFFFFFFFFFFFFFFFFFFFFFFFFFFFFFFFFFFFF NOT AND EQ JUMPDEST DUP1 PUSH2 0x3CE JUMPI POP PUSH2 0x3CD DUP3 PUSH2 0x9D0 JUMP JUMPDEST JUMPDEST SWAP1 POP SWAP2 SWAP1 POP JUMP JUMPDEST PUSH1 0x60 PUSH1 0x0 DUP1 SLOAD PUSH2 0x3E4 SWAP1 PUSH2 0x21CB JUMP JUMPDEST DUP1 PUSH1 0x1F ADD PUSH1 0x20 DUP1 SWAP2 DIV MUL PUSH1 0x20 ADD PUSH1 0x40 MLOAD SWAP1 DUP2 ADD PUSH1 0x40 MSTORE DUP1 SWAP3 SWAP2 SWAP1 DUP2 DUP2 MSTORE PUSH1 0x20 ADD DUP3 DUP1 SLOAD PUSH2 0x410 SWAP1 PUSH2 0x21CB JUMP JUMPDEST DUP1 ISZERO PUSH2 0x45D JUMPI DUP1 PUSH1 0x1F LT PUSH2 0x432 JUMPI PUSH2 0x100 DUP1 DUP4 SLOAD DIV MUL DUP4 MSTORE SWAP2 PUSH1 0x20 ADD SWAP2 PUSH2 0x45D JUMP JUMPDEST DUP3 ADD SWAP2 SWAP1 PUSH1 0x0 MSTORE PUSH1 0x20 PUSH1 0x0 KECCAK256 SWAP1 JUMPDEST DUP2 SLOAD DUP2 MSTORE SWAP1 PUSH1 0x1 ADD SWAP1 PUSH1 0x20 ADD DUP1 DUP4 GT PUSH2 0x440 JUMPI DUP3 SWAP1 SUB PUSH1 0x1F AND DUP3 ADD SWAP2 JUMPDEST POP POP POP POP POP SWAP1 POP SWAP1 JUMP JUMPDEST PUSH1 0x0 PUSH2 0x472 DUP3 PUSH2 0xA3A JUMP JUMPDEST PUSH1 0x5 PUSH1 0x0 DUP4 DUP2 MSTORE PUSH1 0x20 ADD SWAP1 DUP2 MSTORE PUSH1 0x20 ADD PUSH1 0x0 KECCAK256 PUSH1 0x0 SWAP1 SLOAD SWAP1 PUSH2 0x100 EXP SWAP1 DIV PUSH20 0xFFFFFFFFFFFFFFFFFFFFFFFFFFFFFFFFFFFFFFFF AND SWAP1 POP SWAP2 SWAP1 POP JUMP JUMPDEST PUSH1 0x0 PUSH2 0x4B8 DUP3 PUSH2 0x645 JUMP JUMPDEST SWAP1 POP DUP1 PUSH20 0xFFFFFFFFFFFFFFFFFFFFFFFFFFFFFFFFFFFFFFFF AND DUP4 PUSH20 0xFFFFFFFFFFFFFFFFFFFFFFFFFFFFFFFFFFFFFFFF AND EQ ISZERO PUSH2 0x529 JUMPI PUSH1 0x40 MLOAD PUSH32 0x8C379A000000000000000000000000000000000000000000000000000000000 DUP2 MSTORE PUSH1 0x4 ADD PUSH2 0x520 SWAP1 PUSH2 0x1F35 JUMP JUMPDEST PUSH1 0x40 MLOAD DUP1 SWAP2 SUB SWAP1 REVERT JUMPDEST DUP1 PUSH20 0xFFFFFFFFFFFFFFFFFFFFFFFFFFFFFFFFFFFFFFFF AND PUSH2 0x548 PUSH2 0xA85 JUMP JUMPDEST PUSH20 0xFFFFFFFFFFFFFFFFFFFFFFFFFFFFFFFFFFFFFFFF AND EQ DUP1 PUSH2 0x577 JUMPI POP PUSH2 0x576 DUP2 PUSH2 0x571 PUSH2 0xA85 JUMP JUMPDEST PUSH2 0x93C JUMP JUMPDEST JUMPDEST PUSH2 0x5B6 JUMPI PUSH1 0x40 MLOAD PUSH32 0x8C379A000000000000000000000000000000000000000000000000000000000 DUP2 MSTORE PUSH1 0x4 ADD PUSH2 0x5AD SWAP1 PUSH2 0x1F55 JUMP JUMPDEST PUSH1 0x40 MLOAD DUP1 SWAP2 SUB SWAP1 REVERT JUMPDEST PUSH2 0x5C0 DUP4 DUP4 PUSH2 0xA8D JUMP JUMPDEST POP POP POP JUMP JUMPDEST PUSH2 0x5D6 PUSH2 0x5D0 PUSH2 0xA85 JUMP JUMPDEST DUP3 PUSH2 0xB46 JUMP JUMPDEST PUSH2 0x615 JUMPI PUSH1 0x40 MLOAD PUSH32 0x8C379A000000000000000000000000000000000000000000000000000000000 DUP2 MSTORE PUSH1 0x4 ADD PUSH2 0x60C SWAP1 PUSH2 0x1E15 JUMP JUMPDEST PUSH1 0x40 MLOAD DUP1 SWAP2 SUB SWAP1 REVERT JUMPDEST PUSH2 0x620 DUP4 DUP4 DUP4 PUSH2 0xBDB JUMP JUMPDEST POP POP POP JUMP JUMPDEST PUSH2 0x640 DUP4 DUP4 DUP4 PUSH1 0x40 MLOAD DUP1 PUSH1 0x20 ADD PUSH1 0x40 MSTORE DUP1 PUSH1 0x0 DUP2 MSTORE POP PUSH2 0x872 JUMP JUMPDEST POP POP POP JUMP JUMPDEST PUSH1 0x0 DUP1 PUSH1 0x2 PUSH1 0x0 DUP5 DUP2 MSTORE PUSH1 0x20 ADD SWAP1 DUP2 MSTORE PUSH1 0x20 ADD PUSH1 0x0 KECCAK256 PUSH1 0x0 SWAP1 SLOAD SWAP1 PUSH2 0x100 EXP SWAP1 DIV PUSH20 0xFFFFFFFFFFFFFFFFFFFFFFFFFFFFFFFFFFFFFFFF AND SWAP1 POP PUSH1 0x0 PUSH20 0xFFFFFFFFFFFFFFFFFFFFFFFFFFFFFFFFFFFFFFFF AND DUP2 PUSH20 0xFFFFFFFFFFFFFFFFFFFFFFFFFFFFFFFFFFFFFFFF AND EQ ISZERO PUSH2 0x6EE JUMPI PUSH1 0x40 MLOAD PUSH32 0x8C379A000000000000000000000000000000000000000000000000000000000 DUP2 MSTORE PUSH1 0x4 ADD PUSH2 0x6E5 SWAP1 PUSH2 0x1F15 JUMP JUMPDEST PUSH1 0x40 MLOAD DUP1 SWAP2 SUB SWAP1 REVERT JUMPDEST DUP1 SWAP2 POP POP SWAP2 SWAP1 POP JUMP JUMPDEST PUSH1 0x0 DUP1 PUSH20 0xFFFFFFFFFFFFFFFFFFFFFFFFFFFFFFFFFFFFFFFF AND DUP3 PUSH20 0xFFFFFFFFFFFFFFFFFFFFFFFFFFFFFFFFFFFFFFFF AND EQ ISZERO PUSH2 0x768 JUMPI PUSH1 0x40 MLOAD PUSH32 0x8C379A000000000000000000000000000000000000000000000000000000000 DUP2 MSTORE PUSH1 0x4 ADD PUSH2 0x75F SWAP1 PUSH2 0x1ED5 JUMP JUMPDEST PUSH1 0x40 MLOAD DUP1 SWAP2 SUB SWAP1 REVERT JUMPDEST PUSH1 0x4 PUSH1 0x0 DUP4 PUSH20 0xFFFFFFFFFFFFFFFFFFFFFFFFFFFFFFFFFFFFFFFF AND PUSH20 0xFFFFFFFFFFFFFFFFFFFFFFFFFFFFFFFFFFFFFFFF AND DUP2 MSTORE PUSH1 0x20 ADD SWAP1 DUP2 MSTORE PUSH1 0x20 ADD PUSH1 0x0 KECCAK256 SLOAD SWAP1 POP SWAP2 SWAP1 POP JUMP JUMPDEST PUSH1 0x60 PUSH1 0x1 DUP1 SLOAD PUSH2 0x7BE SWAP1 PUSH2 0x21CB JUMP JUMPDEST DUP1 PUSH1 0x1F ADD PUSH1 0x20 DUP1 SWAP2 DIV MUL PUSH1 0x20 ADD PUSH1 0x40 MLOAD SWAP1 DUP2 ADD PUSH1 0x40 MSTORE DUP1 SWAP3 SWAP2 SWAP1 DUP2 DUP2 MSTORE PUSH1 0x20 ADD DUP3 DUP1 SLOAD PUSH2 0x7EA SWAP1 PUSH2 0x21CB JUMP JUMPDEST DUP1 ISZERO PUSH2 0x837 JUMPI DUP1 PUSH1 0x1F LT PUSH2 0x80C JUMPI PUSH2 0x100 DUP1 DUP4 SLOAD DIV MUL DUP4 MSTORE SWAP2 PUSH1 0x20 ADD SWAP2 PUSH2 0x837 JUMP JUMPDEST DUP3 ADD SWAP2 SWAP1 PUSH1 0x0 MSTORE PUSH1 0x20 PUSH1 0x0 KECCAK256 SWAP1 JUMPDEST DUP2 SLOAD DUP2 MSTORE SWAP1 PUSH1 0x1 ADD SWAP1 PUSH1 0x20 ADD DUP1 DUP4 GT PUSH2 0x81A JUMPI DUP3 SWAP1 SUB PUSH1 0x1F AND DUP3 ADD SWAP2 JUMPDEST POP POP POP POP POP SWAP1 POP SWAP1 JUMP JUMPDEST PUSH2 0x853 PUSH2 0x84C PUSH2 0xA85 JUMP JUMPDEST DUP4 DUP4 PUSH2 0xED1 JUMP JUMPDEST POP POP JUMP JUMPDEST PUSH2 0x862 DUP5 DUP5 DUP5 PUSH2 0x103E JUMP JUMPDEST PUSH2 0x86B DUP3 PUSH2 0x8D4 JUMP JUMPDEST POP POP POP POP POP JUMP JUMPDEST PUSH2 0x883 PUSH2 0x87D PUSH2 0xA85 JUMP JUMPDEST DUP4 PUSH2 0xB46 JUMP JUMPDEST PUSH2 0x8C2 JUMPI PUSH1 0x40 MLOAD PUSH32 0x8C379A000000000000000000000000000000000000000000000000000000000 DUP2 MSTORE PUSH1 0x4 ADD PUSH2 0x8B9 SWAP1 PUSH2 0x1E15 JUMP JUMPDEST PUSH1 0x40 MLOAD DUP1 SWAP2 SUB SWAP1 REVERT JUMPDEST PUSH2 0x8CE DUP5 DUP5 DUP5 DUP5 PUSH2 0x105E JUMP JUMPDEST POP POP POP POP JUMP JUMPDEST PUSH1 0x60 PUSH2 0x8DF DUP3 PUSH2 0xA3A JUMP JUMPDEST PUSH1 0x0 PUSH2 0x8E9 PUSH2 0x10BA JUMP JUMPDEST SWAP1 POP PUSH1 0x0 DUP2 MLOAD GT PUSH2 0x909 JUMPI PUSH1 0x40 MLOAD DUP1 PUSH1 0x20 ADD PUSH1 0x40 MSTORE DUP1 PUSH1 0x0 DUP2 MSTORE POP PUSH2 0x934 JUMP JUMPDEST DUP1 PUSH2 0x913 DUP5 PUSH2 0x10D1 JUMP JUMPDEST PUSH1 0x40 MLOAD PUSH1 0x20 ADD PUSH2 0x924 SWAP3 SWAP2 SWAP1 PUSH2 0x1D4D JUMP JUMPDEST PUSH1 0x40 MLOAD PUSH1 0x20 DUP2 DUP4 SUB SUB DUP2 MSTORE SWAP1 PUSH1 0x40 MSTORE JUMPDEST SWAP2 POP POP SWAP2 SWAP1 POP JUMP JUMPDEST PUSH1 0x0 PUSH1 0x6 PUSH1 0x0 DUP5 PUSH20 0xFFFFFFFFFFFFFFFFFFFFFFFFFFFFFFFFFFFFFFFF AND PUSH20 0xFFFFFFFFFFFFFFFFFFFFFFFFFFFFFFFFFFFFFFFF AND DUP2 MSTORE PUSH1 0x20 ADD SWAP1 DUP2 MSTORE PUSH1 0x20 ADD PUSH1 0x0 KECCAK256 PUSH1 0x0 DUP4 PUSH20 0xFFFFFFFFFFFFFFFFFFFFFFFFFFFFFFFFFFFFFFFF AND PUSH20 0xFFFFFFFFFFFFFFFFFFFFFFFFFFFFFFFFFFFFFFFF AND DUP2 MSTORE PUSH1 0x20 ADD SWAP1 DUP2 MSTORE PUSH1 0x20 ADD PUSH1 0x0 KECCAK256 PUSH1 0x0 SWAP1 SLOAD SWAP1 PUSH2 0x100 EXP SWAP1 DIV PUSH1 0xFF AND SWAP1 POP SWAP3 SWAP2 POP POP JUMP JUMPDEST PUSH1 0x0 PUSH32 0x1FFC9A700000000000000000000000000000000000000000000000000000000 PUSH28 0xFFFFFFFFFFFFFFFFFFFFFFFFFFFFFFFFFFFFFFFFFFFFFFFFFFFFFFFF NOT AND DUP3 PUSH28 0xFFFFFFFFFFFFFFFFFFFFFFFFFFFFFFFFFFFFFFFFFFFFFFFFFFFFFFFF NOT AND EQ SWAP1 POP SWAP2 SWAP1 POP JUMP JUMPDEST PUSH2 0xA43 DUP2 PUSH2 0x127E JUMP JUMPDEST PUSH2 0xA82 JUMPI PUSH1 0x40 MLOAD PUSH32 0x8C379A000000000000000000000000000000000000000000000000000000000 DUP2 MSTORE PUSH1 0x4 ADD PUSH2 0xA79 SWAP1 PUSH2 0x1F15 JUMP JUMPDEST PUSH1 0x40 MLOAD DUP1 SWAP2 SUB SWAP1 REVERT JUMPDEST POP JUMP JUMPDEST PUSH1 0x0 CALLER SWAP1 POP SWAP1 JUMP JUMPDEST DUP2 PUSH1 0x5 PUSH1 0x0 DUP4 DUP2 MSTORE PUSH1 0x20 ADD SWAP1 DUP2 MSTORE PUSH1 0x20 ADD PUSH1 0x0 KECCAK256 PUSH1 0x0 PUSH2 0x100 EXP DUP2 SLOAD DUP2 PUSH20 0xFFFFFFFFFFFFFFFFFFFFFFFFFFFFFFFFFFFFFFFF MUL NOT AND SWAP1 DUP4 PUSH20 0xFFFFFFFFFFFFFFFFFFFFFFFFFFFFFFFFFFFFFFFF AND MUL OR SWAP1 SSTORE POP DUP1 DUP3 PUSH20 0xFFFFFFFFFFFFFFFFFFFFFFFFFFFFFFFFFFFFFFFF AND PUSH2 0xB00 DUP4 PUSH2 0x645 JUMP JUMPDEST PUSH20 0xFFFFFFFFFFFFFFFFFFFFFFFFFFFFFFFFFFFFFFFF AND PUSH32 0x8C5BE1E5EBEC7D5BD14F71427D1E84F3DD0314C0F7B2291E5B200AC8C7C3B925 PUSH1 0x40 MLOAD PUSH1 0x40 MLOAD DUP1 SWAP2 SUB SWAP1 LOG4 POP POP JUMP JUMPDEST PUSH1 0x0 DUP1 PUSH2 0xB52 DUP4 PUSH2 0x645 JUMP JUMPDEST SWAP1 POP DUP1 PUSH20 0xFFFFFFFFFFFFFFFFFFFFFFFFFFFFFFFFFFFFFFFF AND DUP5 PUSH20 0xFFFFFFFFFFFFFFFFFFFFFFFFFFFFFFFFFFFFFFFF AND EQ DUP1 PUSH2 0xB94 JUMPI POP PUSH2 0xB93 DUP2 DUP6 PUSH2 0x93C JUMP JUMPDEST JUMPDEST DUP1 PUSH2 0xBD2 JUMPI POP DUP4 PUSH20 0xFFFFFFFFFFFFFFFFFFFFFFFFFFFFFFFFFFFFFFFF AND PUSH2 0xBBA DUP5 PUSH2 0x467 JUMP JUMPDEST PUSH20 0xFFFFFFFFFFFFFFFFFFFFFFFFFFFFFFFFFFFFFFFF AND EQ JUMPDEST SWAP2 POP POP SWAP3 SWAP2 POP POP JUMP JUMPDEST DUP3 PUSH20 0xFFFFFFFFFFFFFFFFFFFFFFFFFFFFFFFFFFFFFFFF AND PUSH2 0xBFB DUP3 PUSH2 0x645 JUMP JUMPDEST PUSH20 0xFFFFFFFFFFFFFFFFFFFFFFFFFFFFFFFFFFFFFFFF AND EQ PUSH2 0xC51 JUMPI PUSH1 0x40 MLOAD PUSH32 0x8C379A000000000000000000000000000000000000000000000000000000000 DUP2 MSTORE PUSH1 0x4 ADD PUSH2 0xC48 SWAP1 PUSH2 0x1E55 JUMP JUMPDEST PUSH1 0x40 MLOAD DUP1 SWAP2 SUB SWAP1 REVERT JUMPDEST PUSH1 0x0 PUSH20 0xFFFFFFFFFFFFFFFFFFFFFFFFFFFFFFFFFFFFFFFF AND DUP3 PUSH20 0xFFFFFFFFFFFFFFFFFFFFFFFFFFFFFFFFFFFFFFFF AND EQ ISZERO PUSH2 0xCC1 JUMPI PUSH1 0x40 MLOAD PUSH32 0x8C379A000000000000000000000000000000000000000000000000000000000 DUP2 MSTORE PUSH1 0x4 ADD PUSH2 0xCB8 SWAP1 PUSH2 0x1E95 JUMP JUMPDEST PUSH1 0x40 MLOAD DUP1 SWAP2 SUB SWAP1 REVERT JUMPDEST PUSH2 0xCCC DUP4 DUP4 DUP4 PUSH2 0x12EA JUMP JUMPDEST DUP3 PUSH20 0xFFFFFFFFFFFFFFFFFFFFFFFFFFFFFFFFFFFFFFFF AND PUSH2 0xCEC DUP3 PUSH2 0x645 JUMP JUMPDEST PUSH20 0xFFFFFFFFFFFFFFFFFFFFFFFFFFFFFFFFFFFFFFFF AND EQ PUSH2 0xD42 JUMPI PUSH1 0x40 MLOAD PUSH32 0x8C379A000000000000000000000000000000000000000000000000000000000 DUP2 MSTORE PUSH1 0x4 ADD PUSH2 0xD39 SWAP1 PUSH2 0x1E55 JUMP JUMPDEST PUSH1 0x40 MLOAD DUP1 SWAP2 SUB SWAP1 REVERT JUMPDEST PUSH1 0x5 PUSH1 0x0 DUP3 DUP2 MSTORE PUSH1 0x20 ADD SWAP1 DUP2 MSTORE PUSH1 0x20 ADD PUSH1 0x0 KECCAK256 PUSH1 0x0 PUSH2 0x100 EXP DUP2 SLOAD SWAP1 PUSH20 0xFFFFFFFFFFFFFFFFFFFFFFFFFFFFFFFFFFFFFFFF MUL NOT AND SWAP1 SSTORE PUSH1 0x1 PUSH1 0x4 PUSH1 0x0 DUP6 PUSH20 0xFFFFFFFFFFFFFFFFFFFFFFFFFFFFFFFFFFFFFFFF AND PUSH20 0xFFFFFFFFFFFFFFFFFFFFFFFFFFFFFFFFFFFFFFFF AND DUP2 MSTORE PUSH1 0x20 ADD SWAP1 DUP2 MSTORE PUSH1 0x20 ADD PUSH1 0x0 KECCAK256 PUSH1 0x0 DUP3 DUP3 SLOAD SUB SWAP3 POP POP DUP2 SWAP1 SSTORE POP PUSH1 0x1 PUSH1 0x4 PUSH1 0x0 DUP5 PUSH20 0xFFFFFFFFFFFFFFFFFFFFFFFFFFFFFFFFFFFFFFFF AND PUSH20 0xFFFFFFFFFFFFFFFFFFFFFFFFFFFFFFFFFFFFFFFF AND DUP2 MSTORE PUSH1 0x20 ADD SWAP1 DUP2 MSTORE PUSH1 0x20 ADD PUSH1 0x0 KECCAK256 PUSH1 0x0 DUP3 DUP3 SLOAD ADD SWAP3 POP POP DUP2 SWAP1 SSTORE POP DUP2 PUSH1 0x2 PUSH1 0x0 DUP4 DUP2 MSTORE PUSH1 0x20 ADD SWAP1 DUP2 MSTORE PUSH1 0x20 ADD PUSH1 0x0 KECCAK256 PUSH1 0x0 PUSH2 0x100 EXP DUP2 SLOAD DUP2 PUSH20 0xFFFFFFFFFFFFFFFFFFFFFFFFFFFFFFFFFFFFFFFF MUL NOT AND SWAP1 DUP4 PUSH20 0xFFFFFFFFFFFFFFFFFFFFFFFFFFFFFFFFFFFFFFFF AND MUL OR SWAP1 SSTORE POP DUP1 DUP3 PUSH20 0xFFFFFFFFFFFFFFFFFFFFFFFFFFFFFFFFFFFFFFFF AND DUP5 PUSH20 0xFFFFFFFFFFFFFFFFFFFFFFFFFFFFFFFFFFFFFFFF AND PUSH32 0xDDF252AD1BE2C89B69C2B068FC378DAA952BA7F163C4A11628F55A4DF523B3EF PUSH1 0x40 MLOAD PUSH1 0x40 MLOAD DUP1 SWAP2 SUB SWAP1 LOG4 PUSH2 0xECC DUP4 DUP4 DUP4 PUSH2 0x12EF JUMP JUMPDEST POP POP POP JUMP JUMPDEST DUP2 PUSH20 0xFFFFFFFFFFFFFFFFFFFFFFFFFFFFFFFFFFFFFFFF AND DUP4 PUSH20 0xFFFFFFFFFFFFFFFFFFFFFFFFFFFFFFFFFFFFFFFF AND EQ ISZERO PUSH2 0xF40 JUMPI PUSH1 0x40 MLOAD PUSH32 0x8C379A000000000000000000000000000000000000000000000000000000000 DUP2 MSTORE PUSH1 0x4 ADD PUSH2 0xF37 SWAP1 PUSH2 0x1EB5 JUMP JUMPDEST PUSH1 0x40 MLOAD DUP1 SWAP2 SUB SWAP1 REVERT JUMPDEST DUP1 PUSH1 0x6 PUSH1 0x0 DUP6 PUSH20 0xFFFFFFFFFFFFFFFFFFFFFFFFFFFFFFFFFFFFFFFF AND PUSH20 0xFFFFFFFFFFFFFFFFFFFFFFFFFFFFFFFFFFFFFFFF AND DUP2 MSTORE PUSH1 0x20 ADD SWAP1 DUP2 MSTORE PUSH1 0x20 ADD PUSH1 0x0 KECCAK256 PUSH1 0x0 DUP5 PUSH20 0xFFFFFFFFFFFFFFFFFFFFFFFFFFFFFFFFFFFFFFFF AND PUSH20 0xFFFFFFFFFFFFFFFFFFFFFFFFFFFFFFFFFFFFFFFF AND DUP2 MSTORE PUSH1 0x20 ADD SWAP1 DUP2 MSTORE PUSH1 0x20 ADD PUSH1 0x0 KECCAK256 PUSH1 0x0 PUSH2 0x100 EXP DUP2 SLOAD DUP2 PUSH1 0xFF MUL NOT AND SWAP1 DUP4 ISZERO ISZERO MUL OR SWAP1 SSTORE POP DUP2 PUSH20 0xFFFFFFFFFFFFFFFFFFFFFFFFFFFFFFFFFFFFFFFF AND DUP4 PUSH20 0xFFFFFFFFFFFFFFFFFFFFFFFFFFFFFFFFFFFFFFFF AND PUSH32 0x17307EAB39AB6107E8899845AD3D59BD9653F200F220920489CA2B5937696C31 DUP4 PUSH1 0x40 MLOAD PUSH2 0x1031 SWAP2 SWAP1 PUSH2 0x1DD8 JUMP JUMPDEST PUSH1 0x40 MLOAD DUP1 SWAP2 SUB SWAP1 LOG3 POP POP POP JUMP JUMPDEST PUSH2 0x1059 DUP4 DUP4 DUP4 PUSH1 0x40 MLOAD DUP1 PUSH1 0x20 ADD PUSH1 0x40 MSTORE DUP1 PUSH1 0x0 DUP2 MSTORE POP PUSH2 0x12F4 JUMP JUMPDEST POP POP POP JUMP JUMPDEST PUSH2 0x1069 DUP5 DUP5 DUP5 PUSH2 0xBDB JUMP JUMPDEST PUSH2 0x1075 DUP5 DUP5 DUP5 DUP5 PUSH2 0x1351 JUMP JUMPDEST PUSH2 0x10B4 JUMPI PUSH1 0x40 MLOAD PUSH32 0x8C379A000000000000000000000000000000000000000000000000000000000 DUP2 MSTORE PUSH1 0x4 ADD PUSH2 0x10AB SWAP1 PUSH2 0x1E35 JUMP JUMPDEST PUSH1 0x40 MLOAD DUP1 SWAP2 SUB SWAP1 REVERT JUMPDEST POP POP POP POP JUMP JUMPDEST PUSH1 0x60 PUSH1 0x40 MLOAD DUP1 PUSH1 0x20 ADD PUSH1 0x40 MSTORE DUP1 PUSH1 0x0 DUP2 MSTORE POP SWAP1 POP SWAP1 JUMP JUMPDEST PUSH1 0x60 PUSH1 0x0 DUP3 EQ ISZERO PUSH2 0x1119 JUMPI PUSH1 0x40 MLOAD DUP1 PUSH1 0x40 ADD PUSH1 0x40 MSTORE DUP1 PUSH1 0x1 DUP2 MSTORE PUSH1 0x20 ADD PUSH32 0x3000000000000000000000000000000000000000000000000000000000000000 DUP2 MSTORE POP SWAP1 POP PUSH2 0x1279 JUMP JUMPDEST PUSH1 0x0 DUP3 SWAP1 POP PUSH1 0x0 JUMPDEST PUSH1 0x0 DUP3 EQ PUSH2 0x114B JUMPI DUP1 DUP1 PUSH2 0x1134 SWAP1 PUSH2 0x222E JUMP JUMPDEST SWAP2 POP POP PUSH1 0xA DUP3 PUSH2 0x1144 SWAP2 SWAP1 PUSH2 0x20B0 JUMP JUMPDEST SWAP2 POP PUSH2 0x1121 JUMP JUMPDEST PUSH1 0x0 DUP2 PUSH8 0xFFFFFFFFFFFFFFFF DUP2 GT ISZERO PUSH2 0x118D JUMPI PUSH32 0x4E487B7100000000000000000000000000000000000000000000000000000000 PUSH1 0x0 MSTORE PUSH1 0x41 PUSH1 0x4 MSTORE PUSH1 0x24 PUSH1 0x0 REVERT JUMPDEST PUSH1 0x40 MLOAD SWAP1 DUP1 DUP3 MSTORE DUP1 PUSH1 0x1F ADD PUSH1 0x1F NOT AND PUSH1 0x20 ADD DUP3 ADD PUSH1 0x40 MSTORE DUP1 ISZERO PUSH2 0x11BF JUMPI DUP2 PUSH1 0x20 ADD PUSH1 0x1 DUP3 MUL DUP1 CALLDATASIZE DUP4 CALLDATACOPY DUP1 DUP3 ADD SWAP2 POP POP SWAP1 POP JUMPDEST POP SWAP1 POP JUMPDEST PUSH1 0x0 DUP6 EQ PUSH2 0x1272 JUMPI PUSH1 0x1 DUP3 PUSH2 0x11D8 SWAP2 SWAP1 PUSH2 0x20E1 JUMP JUMPDEST SWAP2 POP PUSH1 0xA DUP6 PUSH2 0x11E7 SWAP2 SWAP1 PUSH2 0x2277 JUMP JUMPDEST PUSH1 0x30 PUSH2 0x11F3 SWAP2 SWAP1 PUSH2 0x205A JUMP JUMPDEST PUSH1 0xF8 SHL DUP2 DUP4 DUP2 MLOAD DUP2 LT PUSH2 0x122F JUMPI PUSH32 0x4E487B7100000000000000000000000000000000000000000000000000000000 PUSH1 0x0 MSTORE PUSH1 0x32 PUSH1 0x4 MSTORE PUSH1 0x24 PUSH1 0x0 REVERT JUMPDEST PUSH1 0x20 ADD ADD SWAP1 PUSH31 0xFFFFFFFFFFFFFFFFFFFFFFFFFFFFFFFFFFFFFFFFFFFFFFFFFFFFFFFFFFFFFF NOT AND SWAP1 DUP2 PUSH1 0x0 BYTE SWAP1 MSTORE8 POP PUSH1 0xA DUP6 PUSH2 0x126B SWAP2 SWAP1 PUSH2 0x20B0 JUMP JUMPDEST SWAP5 POP PUSH2 0x11C3 JUMP JUMPDEST DUP1 SWAP4 POP POP POP POP JUMPDEST SWAP2 SWAP1 POP JUMP JUMPDEST PUSH1 0x0 DUP1 PUSH20 0xFFFFFFFFFFFFFFFFFFFFFFFFFFFFFFFFFFFFFFFF AND PUSH1 0x2 PUSH1 0x0 DUP5 DUP2 MSTORE PUSH1 0x20 ADD SWAP1 DUP2 MSTORE PUSH1 0x20 ADD PUSH1 0x0 KECCAK256 PUSH1 0x0 SWAP1 SLOAD SWAP1 PUSH2 0x100 EXP SWAP1 DIV PUSH20 0xFFFFFFFFFFFFFFFFFFFFFFFFFFFFFFFFFFFFFFFF AND PUSH20 0xFFFFFFFFFFFFFFFFFFFFFFFFFFFFFFFFFFFFFFFF AND EQ ISZERO SWAP1 POP SWAP2 SWAP1 POP JUMP JUMPDEST POP POP POP JUMP JUMPDEST POP POP POP JUMP JUMPDEST PUSH2 0x12FF DUP5 DUP5 DUP5 PUSH2 0x14E8 JUMP JUMPDEST PUSH2 0x130C PUSH1 0x0 DUP6 DUP5 DUP5 PUSH2 0x1351 JUMP JUMPDEST PUSH2 0x134B JUMPI PUSH1 0x40 MLOAD PUSH32 0x8C379A000000000000000000000000000000000000000000000000000000000 DUP2 MSTORE PUSH1 0x4 ADD PUSH2 0x1342 SWAP1 PUSH2 0x1E35 JUMP JUMPDEST PUSH1 0x40 MLOAD DUP1 SWAP2 SUB SWAP1 REVERT JUMPDEST POP POP POP POP JUMP JUMPDEST PUSH1 0x0 PUSH2 0x1372 DUP5 PUSH20 0xFFFFFFFFFFFFFFFFFFFFFFFFFFFFFFFFFFFFFFFF AND PUSH2 0x1703 JUMP JUMPDEST ISZERO PUSH2 0x14DB JUMPI DUP4 PUSH20 0xFFFFFFFFFFFFFFFFFFFFFFFFFFFFFFFFFFFFFFFF AND PUSH4 0x150B7A02 PUSH2 0x139B PUSH2 0xA85 JUMP JUMPDEST DUP8 DUP7 DUP7 PUSH1 0x40 MLOAD DUP6 PUSH4 0xFFFFFFFF AND PUSH1 0xE0 SHL DUP2 MSTORE PUSH1 0x4 ADD PUSH2 0x13BD SWAP5 SWAP4 SWAP3 SWAP2 SWAP1 PUSH2 0x1D8C JUMP JUMPDEST PUSH1 0x20 PUSH1 0x40 MLOAD DUP1 DUP4 SUB DUP2 PUSH1 0x0 DUP8 DUP1 EXTCODESIZE ISZERO DUP1 ISZERO PUSH2 0x13D7 JUMPI PUSH1 0x0 DUP1 REVERT JUMPDEST POP GAS CALL SWAP3 POP POP POP DUP1 ISZERO PUSH2 0x1408 JUMPI POP PUSH1 0x40 MLOAD RETURNDATASIZE PUSH1 0x1F NOT PUSH1 0x1F DUP3 ADD AND DUP3 ADD DUP1 PUSH1 0x40 MSTORE POP DUP2 ADD SWAP1 PUSH2 0x1405 SWAP2 SWAP1 PUSH2 0x1AAA JUMP JUMPDEST PUSH1 0x1 JUMPDEST PUSH2 0x148B JUMPI RETURNDATASIZE DUP1 PUSH1 0x0 DUP2 EQ PUSH2 0x1438 JUMPI PUSH1 0x40 MLOAD SWAP2 POP PUSH1 0x1F NOT PUSH1 0x3F RETURNDATASIZE ADD AND DUP3 ADD PUSH1 0x40 MSTORE RETURNDATASIZE DUP3 MSTORE RETURNDATASIZE PUSH1 0x0 PUSH1 0x20 DUP5 ADD RETURNDATACOPY PUSH2 0x143D JUMP JUMPDEST PUSH1 0x60 SWAP2 POP JUMPDEST POP PUSH1 0x0 DUP2 MLOAD EQ ISZERO PUSH2 0x1483 JUMPI PUSH1 0x40 MLOAD PUSH32 0x8C379A000000000000000000000000000000000000000000000000000000000 DUP2 MSTORE PUSH1 0x4 ADD PUSH2 0x147A SWAP1 PUSH2 0x1E35 JUMP JUMPDEST PUSH1 0x40 MLOAD DUP1 SWAP2 SUB SWAP1 REVERT JUMPDEST DUP1 MLOAD DUP2 PUSH1 0x20 ADD REVERT JUMPDEST PUSH4 0x150B7A02 PUSH1 0xE0 SHL PUSH28 0xFFFFFFFFFFFFFFFFFFFFFFFFFFFFFFFFFFFFFFFFFFFFFFFFFFFFFFFF NOT AND DUP2 PUSH28 0xFFFFFFFFFFFFFFFFFFFFFFFFFFFFFFFFFFFFFFFFFFFFFFFFFFFFFFFF NOT AND EQ SWAP2 POP POP PUSH2 0x14E0 JUMP JUMPDEST PUSH1 0x1 SWAP1 POP JUMPDEST SWAP5 SWAP4 POP POP POP POP JUMP JUMPDEST PUSH1 0x0 PUSH20 0xFFFFFFFFFFFFFFFFFFFFFFFFFFFFFFFFFFFFFFFF AND DUP4 PUSH20 0xFFFFFFFFFFFFFFFFFFFFFFFFFFFFFFFFFFFFFFFF AND EQ ISZERO PUSH2 0x1558 JUMPI PUSH1 0x40 MLOAD PUSH32 0x8C379A000000000000000000000000000000000000000000000000000000000 DUP2 MSTORE PUSH1 0x4 ADD PUSH2 0x154F SWAP1 PUSH2 0x1EF5 JUMP JUMPDEST PUSH1 0x40 MLOAD DUP1 SWAP2 SUB SWAP1 REVERT JUMPDEST PUSH2 0x1561 DUP2 PUSH2 0x127E JUMP JUMPDEST ISZERO PUSH2 0x15A1 JUMPI PUSH1 0x40 MLOAD PUSH32 0x8C379A000000000000000000000000000000000000000000000000000000000 DUP2 MSTORE PUSH1 0x4 ADD PUSH2 0x1598 SWAP1 PUSH2 0x1E75 JUMP JUMPDEST PUSH1 0x40 MLOAD DUP1 SWAP2 SUB SWAP1 REVERT JUMPDEST PUSH2 0x15AD PUSH1 0x0 DUP5 DUP4 PUSH2 0x12EA JUMP JUMPDEST PUSH2 0x15B6 DUP2 PUSH2 0x127E JUMP JUMPDEST ISZERO PUSH2 0x15F6 JUMPI PUSH1 0x40 MLOAD PUSH32 0x8C379A000000000000000000000000000000000000000000000000000000000 DUP2 MSTORE PUSH1 0x4 ADD PUSH2 0x15ED SWAP1 PUSH2 0x1E75 JUMP JUMPDEST PUSH1 0x40 MLOAD DUP1 SWAP2 SUB SWAP1 REVERT JUMPDEST PUSH1 0x1 PUSH1 0x4 PUSH1 0x0 DUP6 PUSH20 0xFFFFFFFFFFFFFFFFFFFFFFFFFFFFFFFFFFFFFFFF AND PUSH20 0xFFFFFFFFFFFFFFFFFFFFFFFFFFFFFFFFFFFFFFFF AND DUP2 MSTORE PUSH1 0x20 ADD SWAP1 DUP2 MSTORE PUSH1 0x20 ADD PUSH1 0x0 KECCAK256 PUSH1 0x0 DUP3 DUP3 SLOAD ADD SWAP3 POP POP DUP2 SWAP1 SSTORE POP DUP3 PUSH1 0x2 PUSH1 0x0 DUP4 DUP2 MSTORE PUSH1 0x20 ADD SWAP1 DUP2 MSTORE PUSH1 0x20 ADD PUSH1 0x0 KECCAK256 PUSH1 0x0 PUSH2 0x100 EXP DUP2 SLOAD DUP2 PUSH20 0xFFFFFFFFFFFFFFFFFFFFFFFFFFFFFFFFFFFFFFFF MUL NOT AND SWAP1 DUP4 PUSH20 0xFFFFFFFFFFFFFFFFFFFFFFFFFFFFFFFFFFFFFFFF AND MUL OR SWAP1 SSTORE POP DUP1 DUP4 PUSH20 0xFFFFFFFFFFFFFFFFFFFFFFFFFFFFFFFFFFFFFFFF AND PUSH1 0x0 PUSH20 0xFFFFFFFFFFFFFFFFFFFFFFFFFFFFFFFFFFFFFFFF AND PUSH32 0xDDF252AD1BE2C89B69C2B068FC378DAA952BA7F163C4A11628F55A4DF523B3EF PUSH1 0x40 MLOAD PUSH1 0x40 MLOAD DUP1 SWAP2 SUB SWAP1 LOG4 PUSH2 0x16FE PUSH1 0x0 DUP5 DUP4 PUSH2 0x12EF JUMP JUMPDEST POP POP POP JUMP JUMPDEST PUSH1 0x0 DUP1 DUP3 PUSH20 0xFFFFFFFFFFFFFFFFFFFFFFFFFFFFFFFFFFFFFFFF AND EXTCODESIZE GT SWAP1 POP SWAP2 SWAP1 POP JUMP JUMPDEST PUSH1 0x0 PUSH2 0x1739 PUSH2 0x1734 DUP5 PUSH2 0x1FB5 JUMP JUMPDEST PUSH2 0x1F90 JUMP JUMPDEST SWAP1 POP DUP3 DUP2 MSTORE PUSH1 0x20 DUP2 ADD DUP5 DUP5 DUP5 ADD GT ISZERO PUSH2 0x1751 JUMPI PUSH1 0x0 DUP1 REVERT JUMPDEST PUSH2 0x175C DUP5 DUP3 DUP6 PUSH2 0x2189 JUMP JUMPDEST POP SWAP4 SWAP3 POP POP POP JUMP JUMPDEST PUSH1 0x0 PUSH2 0x1777 PUSH2 0x1772 DUP5 PUSH2 0x1FE6 JUMP JUMPDEST PUSH2 0x1F90 JUMP JUMPDEST SWAP1 POP DUP3 DUP2 MSTORE PUSH1 0x20 DUP2 ADD DUP5 DUP5 DUP5 ADD GT ISZERO PUSH2 0x178F JUMPI PUSH1 0x0 DUP1 REVERT JUMPDEST PUSH2 0x179A DUP5 DUP3 DUP6 PUSH2 0x2189 JUMP JUMPDEST POP SWAP4 SWAP3 POP POP POP JUMP JUMPDEST PUSH1 0x0 DUP2 CALLDATALOAD SWAP1 POP PUSH2 0x17B1 DUP2 PUSH2 0x2642 JUMP JUMPDEST SWAP3 SWAP2 POP POP JUMP JUMPDEST PUSH1 0x0 DUP2 CALLDATALOAD SWAP1 POP PUSH2 0x17C6 DUP2 PUSH2 0x2659 JUMP JUMPDEST SWAP3 SWAP2 POP POP JUMP JUMPDEST PUSH1 0x0 DUP2 CALLDATALOAD SWAP1 POP PUSH2 0x17DB DUP2 PUSH2 0x2670 JUMP JUMPDEST SWAP3 SWAP2 POP POP JUMP JUMPDEST PUSH1 0x0 DUP2 MLOAD SWAP1 POP PUSH2 0x17F0 DUP2 PUSH2 0x2670 JUMP JUMPDEST SWAP3 SWAP2 POP POP JUMP JUMPDEST PUSH1 0x0 DUP3 PUSH1 0x1F DUP4 ADD SLT PUSH2 0x1807 JUMPI PUSH1 0x0 DUP1 REVERT JUMPDEST DUP2 CALLDATALOAD PUSH2 0x1817 DUP5 DUP3 PUSH1 0x20 DUP7 ADD PUSH2 0x1726 JUMP JUMPDEST SWAP2 POP POP SWAP3 SWAP2 POP POP JUMP JUMPDEST PUSH1 0x0 DUP3 PUSH1 0x1F DUP4 ADD SLT PUSH2 0x1831 JUMPI PUSH1 0x0 DUP1 REVERT JUMPDEST DUP2 CALLDATALOAD PUSH2 0x1841 DUP5 DUP3 PUSH1 0x20 DUP7 ADD PUSH2 0x1764 JUMP JUMPDEST SWAP2 POP POP SWAP3 SWAP2 POP POP JUMP JUMPDEST PUSH1 0x0 DUP2 CALLDATALOAD SWAP1 POP PUSH2 0x1859 DUP2 PUSH2 0x2687 JUMP JUMPDEST SWAP3 SWAP2 POP POP JUMP JUMPDEST PUSH1 0x0 PUSH1 0x20 DUP3 DUP5 SUB SLT ISZERO PUSH2 0x1871 JUMPI PUSH1 0x0 DUP1 REVERT JUMPDEST PUSH1 0x0 PUSH2 0x187F DUP5 DUP3 DUP6 ADD PUSH2 0x17A2 JUMP JUMPDEST SWAP2 POP POP SWAP3 SWAP2 POP POP JUMP JUMPDEST PUSH1 0x0 DUP1 PUSH1 0x40 DUP4 DUP6 SUB SLT ISZERO PUSH2 0x189B JUMPI PUSH1 0x0 DUP1 REVERT JUMPDEST PUSH1 0x0 PUSH2 0x18A9 DUP6 DUP3 DUP7 ADD PUSH2 0x17A2 JUMP JUMPDEST SWAP3 POP POP PUSH1 0x20 PUSH2 0x18BA DUP6 DUP3 DUP7 ADD PUSH2 0x17A2 JUMP JUMPDEST SWAP2 POP POP SWAP3 POP SWAP3 SWAP1 POP JUMP JUMPDEST PUSH1 0x0 DUP1 PUSH1 0x0 PUSH1 0x60 DUP5 DUP7 SUB SLT ISZERO PUSH2 0x18D9 JUMPI PUSH1 0x0 DUP1 REVERT JUMPDEST PUSH1 0x0 PUSH2 0x18E7 DUP7 DUP3 DUP8 ADD PUSH2 0x17A2 JUMP JUMPDEST SWAP4 POP POP PUSH1 0x20 PUSH2 0x18F8 DUP7 DUP3 DUP8 ADD PUSH2 0x17A2 JUMP JUMPDEST SWAP3 POP POP PUSH1 0x40 PUSH2 0x1909 DUP7 DUP3 DUP8 ADD PUSH2 0x184A JUMP JUMPDEST SWAP2 POP POP SWAP3 POP SWAP3 POP SWAP3 JUMP JUMPDEST PUSH1 0x0 DUP1 PUSH1 0x0 DUP1 PUSH1 0x80 DUP6 DUP8 SUB SLT ISZERO PUSH2 0x1929 JUMPI PUSH1 0x0 DUP1 REVERT JUMPDEST PUSH1 0x0 PUSH2 0x1937 DUP8 DUP3 DUP9 ADD PUSH2 0x17A2 JUMP JUMPDEST SWAP5 POP POP PUSH1 0x20 PUSH2 0x1948 DUP8 DUP3 DUP9 ADD PUSH2 0x17A2 JUMP JUMPDEST SWAP4 POP POP PUSH1 0x40 PUSH2 0x1959 DUP8 DUP3 DUP9 ADD PUSH2 0x184A JUMP JUMPDEST SWAP3 POP POP PUSH1 0x60 DUP6 ADD CALLDATALOAD PUSH8 0xFFFFFFFFFFFFFFFF DUP2 GT ISZERO PUSH2 0x1976 JUMPI PUSH1 0x0 DUP1 REVERT JUMPDEST PUSH2 0x1982 DUP8 DUP3 DUP9 ADD PUSH2 0x17F6 JUMP JUMPDEST SWAP2 POP POP SWAP3 SWAP6 SWAP2 SWAP5 POP SWAP3 POP JUMP JUMPDEST PUSH1 0x0 DUP1 PUSH1 0x0 DUP1 PUSH1 0x80 DUP6 DUP8 SUB SLT ISZERO PUSH2 0x19A4 JUMPI PUSH1 0x0 DUP1 REVERT JUMPDEST PUSH1 0x0 PUSH2 0x19B2 DUP8 DUP3 DUP9 ADD PUSH2 0x17A2 JUMP JUMPDEST SWAP5 POP POP PUSH1 0x20 PUSH2 0x19C3 DUP8 DUP3 DUP9 ADD PUSH2 0x17A2 JUMP JUMPDEST SWAP4 POP POP PUSH1 0x40 PUSH2 0x19D4 DUP8 DUP3 DUP9 ADD PUSH2 0x184A JUMP JUMPDEST SWAP3 POP POP PUSH1 0x60 DUP6 ADD CALLDATALOAD PUSH8 0xFFFFFFFFFFFFFFFF DUP2 GT ISZERO PUSH2 0x19F1 JUMPI PUSH1 0x0 DUP1 REVERT JUMPDEST PUSH2 0x19FD DUP8 DUP3 DUP9 ADD PUSH2 0x1820 JUMP JUMPDEST SWAP2 POP POP SWAP3 SWAP6 SWAP2 SWAP5 POP SWAP3 POP JUMP JUMPDEST PUSH1 0x0 DUP1 PUSH1 0x40 DUP4 DUP6 SUB SLT ISZERO PUSH2 0x1A1C JUMPI PUSH1 0x0 DUP1 REVERT JUMPDEST PUSH1 0x0 PUSH2 0x1A2A DUP6 DUP3 DUP7 ADD PUSH2 0x17A2 JUMP JUMPDEST SWAP3 POP POP PUSH1 0x20 PUSH2 0x1A3B DUP6 DUP3 DUP7 ADD PUSH2 0x17B7 JUMP JUMPDEST SWAP2 POP POP SWAP3 POP SWAP3 SWAP1 POP JUMP JUMPDEST PUSH1 0x0 DUP1 PUSH1 0x40 DUP4 DUP6 SUB SLT ISZERO PUSH2 0x1A58 JUMPI PUSH1 0x0 DUP1 REVERT JUMPDEST PUSH1 0x0 PUSH2 0x1A66 DUP6 DUP3 DUP7 ADD PUSH2 0x17A2 JUMP JUMPDEST SWAP3 POP POP PUSH1 0x20 PUSH2 0x1A77 DUP6 DUP3 DUP7 ADD PUSH2 0x184A JUMP JUMPDEST SWAP2 POP POP SWAP3 POP SWAP3 SWAP1 POP JUMP JUMPDEST PUSH1 0x0 PUSH1 0x20 DUP3 DUP5 SUB SLT ISZERO PUSH2 0x1A93 JUMPI PUSH1 0x0 DUP1 REVERT JUMPDEST PUSH1 0x0 PUSH2 0x1AA1 DUP5 DUP3 DUP6 ADD PUSH2 0x17CC JUMP JUMPDEST SWAP2 POP POP SWAP3 SWAP2 POP POP JUMP JUMPDEST PUSH1 0x0 PUSH1 0x20 DUP3 DUP5 SUB SLT ISZERO PUSH2 0x1ABC JUMPI PUSH1 0x0 DUP1 REVERT JUMPDEST PUSH1 0x0 PUSH2 0x1ACA DUP5 DUP3 DUP6 ADD PUSH2 0x17E1 JUMP JUMPDEST SWAP2 POP POP SWAP3 SWAP2 POP POP JUMP JUMPDEST PUSH1 0x0 PUSH1 0x20 DUP3 DUP5 SUB SLT ISZERO PUSH2 0x1AE5 JUMPI PUSH1 0x0 DUP1 REVERT JUMPDEST PUSH1 0x0 PUSH2 0x1AF3 DUP5 DUP3 DUP6 ADD PUSH2 0x184A JUMP JUMPDEST SWAP2 POP POP SWAP3 SWAP2 POP POP JUMP JUMPDEST PUSH2 0x1B05 DUP2 PUSH2 0x2115 JUMP JUMPDEST DUP3 MSTORE POP POP JUMP JUMPDEST PUSH2 0x1B14 DUP2 PUSH2 0x2127 JUMP JUMPDEST DUP3 MSTORE POP POP JUMP JUMPDEST PUSH1 0x0 PUSH2 0x1B25 DUP3 PUSH2 0x2017 JUMP JUMPDEST PUSH2 0x1B2F DUP2 DUP6 PUSH2 0x202D JUMP JUMPDEST SWAP4 POP PUSH2 0x1B3F DUP2 DUP6 PUSH1 0x20 DUP7 ADD PUSH2 0x2198 JUMP JUMPDEST PUSH2 0x1B48 DUP2 PUSH2 0x2364 JUMP JUMPDEST DUP5 ADD SWAP2 POP POP SWAP3 SWAP2 POP POP JUMP JUMPDEST PUSH1 0x0 PUSH2 0x1B5E DUP3 PUSH2 0x2022 JUMP JUMPDEST PUSH2 0x1B68 DUP2 DUP6 PUSH2 0x203E JUMP JUMPDEST SWAP4 POP PUSH2 0x1B78 DUP2 DUP6 PUSH1 0x20 DUP7 ADD PUSH2 0x2198 JUMP JUMPDEST PUSH2 0x1B81 DUP2 PUSH2 0x2364 JUMP JUMPDEST DUP5 ADD SWAP2 POP POP SWAP3 SWAP2 POP POP JUMP JUMPDEST PUSH1 0x0 PUSH2 0x1B97 DUP3 PUSH2 0x2022 JUMP JUMPDEST PUSH2 0x1BA1 DUP2 DUP6 PUSH2 0x204F JUMP JUMPDEST SWAP4 POP PUSH2 0x1BB1 DUP2 DUP6 PUSH1 0x20 DUP7 ADD PUSH2 0x2198 JUMP JUMPDEST DUP1 DUP5 ADD SWAP2 POP POP SWAP3 SWAP2 POP POP JUMP JUMPDEST PUSH1 0x0 PUSH2 0x1BCA PUSH1 0x2D DUP4 PUSH2 0x203E JUMP JUMPDEST SWAP2 POP PUSH2 0x1BD5 DUP3 PUSH2 0x2375 JUMP JUMPDEST PUSH1 0x40 DUP3 ADD SWAP1 POP SWAP2 SWAP1 POP JUMP JUMPDEST PUSH1 0x0 PUSH2 0x1BED PUSH1 0x32 DUP4 PUSH2 0x203E JUMP JUMPDEST SWAP2 POP PUSH2 0x1BF8 DUP3 PUSH2 0x23C4 JUMP JUMPDEST PUSH1 0x40 DUP3 ADD SWAP1 POP SWAP2 SWAP1 POP JUMP JUMPDEST PUSH1 0x0 PUSH2 0x1C10 PUSH1 0x25 DUP4 PUSH2 0x203E JUMP JUMPDEST SWAP2 POP PUSH2 0x1C1B DUP3 PUSH2 0x2413 JUMP JUMPDEST PUSH1 0x40 DUP3 ADD SWAP1 POP SWAP2 SWAP1 POP JUMP JUMPDEST PUSH1 0x0 PUSH2 0x1C33 PUSH1 0x1C DUP4 PUSH2 0x203E JUMP JUMPDEST SWAP2 POP PUSH2 0x1C3E DUP3 PUSH2 0x2462 JUMP JUMPDEST PUSH1 0x20 DUP3 ADD SWAP1 POP SWAP2 SWAP1 POP JUMP JUMPDEST PUSH1 0x0 PUSH2 0x1C56 PUSH1 0x24 DUP4 PUSH2 0x203E JUMP JUMPDEST SWAP2 POP PUSH2 0x1C61 DUP3 PUSH2 0x248B JUMP JUMPDEST PUSH1 0x40 DUP3 ADD SWAP1 POP SWAP2 SWAP1 POP JUMP JUMPDEST PUSH1 0x0 PUSH2 0x1C79 PUSH1 0x19 DUP4 PUSH2 0x203E JUMP JUMPDEST SWAP2 POP PUSH2 0x1C84 DUP3 PUSH2 0x24DA JUMP JUMPDEST PUSH1 0x20 DUP3 ADD SWAP1 POP SWAP2 SWAP1 POP JUMP JUMPDEST PUSH1 0x0 PUSH2 0x1C9C PUSH1 0x29 DUP4 PUSH2 0x203E JUMP JUMPDEST SWAP2 POP PUSH2 0x1CA7 DUP3 PUSH2 0x2503 JUMP JUMPDEST PUSH1 0x40 DUP3 ADD SWAP1 POP SWAP2 SWAP1 POP JUMP JUMPDEST PUSH1 0x0 PUSH2 0x1CBF PUSH1 0x20 DUP4 PUSH2 0x203E JUMP JUMPDEST SWAP2 POP PUSH2 0x1CCA DUP3 PUSH2 0x2552 JUMP JUMPDEST PUSH1 0x20 DUP3 ADD SWAP1 POP SWAP2 SWAP1 POP JUMP JUMPDEST PUSH1 0x0 PUSH2 0x1CE2 PUSH1 0x18 DUP4 PUSH2 0x203E JUMP JUMPDEST SWAP2 POP PUSH2 0x1CED DUP3 PUSH2 0x257B JUMP JUMPDEST PUSH1 0x20 DUP3 ADD SWAP1 POP SWAP2 SWAP1 POP JUMP JUMPDEST PUSH1 0x0 PUSH2 0x1D05 PUSH1 0x21 DUP4 PUSH2 0x203E JUMP JUMPDEST SWAP2 POP PUSH2 0x1D10 DUP3 PUSH2 0x25A4 JUMP JUMPDEST PUSH1 0x40 DUP3 ADD SWAP1 POP SWAP2 SWAP1 POP JUMP JUMPDEST PUSH1 0x0 PUSH2 0x1D28 PUSH1 0x3D DUP4 PUSH2 0x203E JUMP JUMPDEST SWAP2 POP PUSH2 0x1D33 DUP3 PUSH2 0x25F3 JUMP JUMPDEST PUSH1 0x40 DUP3 ADD SWAP1 POP SWAP2 SWAP1 POP JUMP JUMPDEST PUSH2 0x1D47 DUP2 PUSH2 0x217F JUMP JUMPDEST DUP3 MSTORE POP POP JUMP JUMPDEST PUSH1 0x0 PUSH2 0x1D59 DUP3 DUP6 PUSH2 0x1B8C JUMP JUMPDEST SWAP2 POP PUSH2 0x1D65 DUP3 DUP5 PUSH2 0x1B8C JUMP JUMPDEST SWAP2 POP DUP2 SWAP1 POP SWAP4 SWAP3 POP POP POP JUMP JUMPDEST PUSH1 0x0 PUSH1 0x20 DUP3 ADD SWAP1 POP PUSH2 0x1D86 PUSH1 0x0 DUP4 ADD DUP5 PUSH2 0x1AFC JUMP JUMPDEST SWAP3 SWAP2 POP POP JUMP JUMPDEST PUSH1 0x0 PUSH1 0x80 DUP3 ADD SWAP1 POP PUSH2 0x1DA1 PUSH1 0x0 DUP4 ADD DUP8 PUSH2 0x1AFC JUMP JUMPDEST PUSH2 0x1DAE PUSH1 0x20 DUP4 ADD DUP7 PUSH2 0x1AFC JUMP JUMPDEST PUSH2 0x1DBB PUSH1 0x40 DUP4 ADD DUP6 PUSH2 0x1D3E JUMP JUMPDEST DUP2 DUP2 SUB PUSH1 0x60 DUP4 ADD MSTORE PUSH2 0x1DCD DUP2 DUP5 PUSH2 0x1B1A JUMP JUMPDEST SWAP1 POP SWAP6 SWAP5 POP POP POP POP POP JUMP JUMPDEST PUSH1 0x0 PUSH1 0x20 DUP3 ADD SWAP1 POP PUSH2 0x1DED PUSH1 0x0 DUP4 ADD DUP5 PUSH2 0x1B0B JUMP JUMPDEST SWAP3 SWAP2 POP POP JUMP JUMPDEST PUSH1 0x0 PUSH1 0x20 DUP3 ADD SWAP1 POP DUP2 DUP2 SUB PUSH1 0x0 DUP4 ADD MSTORE PUSH2 0x1E0D DUP2 DUP5 PUSH2 0x1B53 JUMP JUMPDEST SWAP1 POP SWAP3 SWAP2 POP POP JUMP JUMPDEST PUSH1 0x0 PUSH1 0x20 DUP3 ADD SWAP1 POP DUP2 DUP2 SUB PUSH1 0x0 DUP4 ADD MSTORE PUSH2 0x1E2E DUP2 PUSH2 0x1BBD JUMP JUMPDEST SWAP1 POP SWAP2 SWAP1 POP JUMP JUMPDEST PUSH1 0x0 PUSH1 0x20 DUP3 ADD SWAP1 POP DUP2 DUP2 SUB PUSH1 0x0 DUP4 ADD MSTORE PUSH2 0x1E4E DUP2 PUSH2 0x1BE0 JUMP JUMPDEST SWAP1 POP SWAP2 SWAP1 POP JUMP JUMPDEST PUSH1 0x0 PUSH1 0x20 DUP3 ADD SWAP1 POP DUP2 DUP2 SUB PUSH1 0x0 DUP4 ADD MSTORE PUSH2 0x1E6E DUP2 PUSH2 0x1C03 JUMP JUMPDEST SWAP1 POP SWAP2 SWAP1 POP JUMP JUMPDEST PUSH1 0x0 PUSH1 0x20 DUP3 ADD SWAP1 POP DUP2 DUP2 SUB PUSH1 0x0 DUP4 ADD MSTORE PUSH2 0x1E8E DUP2 PUSH2 0x1C26 JUMP JUMPDEST SWAP1 POP SWAP2 SWAP1 POP JUMP JUMPDEST PUSH1 0x0 PUSH1 0x20 DUP3 ADD SWAP1 POP DUP2 DUP2 SUB PUSH1 0x0 DUP4 ADD MSTORE PUSH2 0x1EAE DUP2 PUSH2 0x1C49 JUMP JUMPDEST SWAP1 POP SWAP2 SWAP1 POP JUMP JUMPDEST PUSH1 0x0 PUSH1 0x20 DUP3 ADD SWAP1 POP DUP2 DUP2 SUB PUSH1 0x0 DUP4 ADD MSTORE PUSH2 0x1ECE DUP2 PUSH2 0x1C6C JUMP JUMPDEST SWAP1 POP SWAP2 SWAP1 POP JUMP JUMPDEST PUSH1 0x0 PUSH1 0x20 DUP3 ADD SWAP1 POP DUP2 DUP2 SUB PUSH1 0x0 DUP4 ADD MSTORE PUSH2 0x1EEE DUP2 PUSH2 0x1C8F JUMP JUMPDEST SWAP1 POP SWAP2 SWAP1 POP JUMP JUMPDEST PUSH1 0x0 PUSH1 0x20 DUP3 ADD SWAP1 POP DUP2 DUP2 SUB PUSH1 0x0 DUP4 ADD MSTORE PUSH2 0x1F0E DUP2 PUSH2 0x1CB2 JUMP JUMPDEST SWAP1 POP SWAP2 SWAP1 POP JUMP JUMPDEST PUSH1 0x0 PUSH1 0x20 DUP3 ADD SWAP1 POP DUP2 DUP2 SUB PUSH1 0x0 DUP4 ADD MSTORE PUSH2 0x1F2E DUP2 PUSH2 0x1CD5 JUMP JUMPDEST SWAP1 POP SWAP2 SWAP1 POP JUMP JUMPDEST PUSH1 0x0 PUSH1 0x20 DUP3 ADD SWAP1 POP DUP2 DUP2 SUB PUSH1 0x0 DUP4 ADD MSTORE PUSH2 0x1F4E DUP2 PUSH2 0x1CF8 JUMP JUMPDEST SWAP1 POP SWAP2 SWAP1 POP JUMP JUMPDEST PUSH1 0x0 PUSH1 0x20 DUP3 ADD SWAP1 POP DUP2 DUP2 SUB PUSH1 0x0 DUP4 ADD MSTORE PUSH2 0x1F6E DUP2 PUSH2 0x1D1B JUMP JUMPDEST SWAP1 POP SWAP2 SWAP1 POP JUMP JUMPDEST PUSH1 0x0 PUSH1 0x20 DUP3 ADD SWAP1 POP PUSH2 0x1F8A PUSH1 0x0 DUP4 ADD DUP5 PUSH2 0x1D3E JUMP JUMPDEST SWAP3 SWAP2 POP POP JUMP JUMPDEST PUSH1 0x0 PUSH2 0x1F9A PUSH2 0x1FAB JUMP JUMPDEST SWAP1 POP PUSH2 0x1FA6 DUP3 DUP3 PUSH2 0x21FD JUMP JUMPDEST SWAP2 SWAP1 POP JUMP JUMPDEST PUSH1 0x0 PUSH1 0x40 MLOAD SWAP1 POP SWAP1 JUMP JUMPDEST PUSH1 0x0 PUSH8 0xFFFFFFFFFFFFFFFF DUP3 GT ISZERO PUSH2 0x1FD0 JUMPI PUSH2 0x1FCF PUSH2 0x2335 JUMP JUMPDEST JUMPDEST PUSH2 0x1FD9 DUP3 PUSH2 0x2364 JUMP JUMPDEST SWAP1 POP PUSH1 0x20 DUP2 ADD SWAP1 POP SWAP2 SWAP1 POP JUMP JUMPDEST PUSH1 0x0 PUSH8 0xFFFFFFFFFFFFFFFF DUP3 GT ISZERO PUSH2 0x2001 JUMPI PUSH2 0x2000 PUSH2 0x2335 JUMP JUMPDEST JUMPDEST PUSH2 0x200A DUP3 PUSH2 0x2364 JUMP JUMPDEST SWAP1 POP PUSH1 0x20 DUP2 ADD SWAP1 POP SWAP2 SWAP1 POP JUMP JUMPDEST PUSH1 0x0 DUP2 MLOAD SWAP1 POP SWAP2 SWAP1 POP JUMP JUMPDEST PUSH1 0x0 DUP2 MLOAD SWAP1 POP SWAP2 SWAP1 POP JUMP JUMPDEST PUSH1 0x0 DUP3 DUP3 MSTORE PUSH1 0x20 DUP3 ADD SWAP1 POP SWAP3 SWAP2 POP POP JUMP JUMPDEST PUSH1 0x0 DUP3 DUP3 MSTORE PUSH1 0x20 DUP3 ADD SWAP1 POP SWAP3 SWAP2 POP POP JUMP JUMPDEST PUSH1 0x0 DUP2 SWAP1 POP SWAP3 SWAP2 POP POP JUMP JUMPDEST PUSH1 0x0 PUSH2 0x2065 DUP3 PUSH2 0x217F JUMP JUMPDEST SWAP2 POP PUSH2 0x2070 DUP4 PUSH2 0x217F JUMP JUMPDEST SWAP3 POP DUP3 PUSH32 0xFFFFFFFFFFFFFFFFFFFFFFFFFFFFFFFFFFFFFFFFFFFFFFFFFFFFFFFFFFFFFFFF SUB DUP3 GT ISZERO PUSH2 0x20A5 JUMPI PUSH2 0x20A4 PUSH2 0x22A8 JUMP JUMPDEST JUMPDEST DUP3 DUP3 ADD SWAP1 POP SWAP3 SWAP2 POP POP JUMP JUMPDEST PUSH1 0x0 PUSH2 0x20BB DUP3 PUSH2 0x217F JUMP JUMPDEST SWAP2 POP PUSH2 0x20C6 DUP4 PUSH2 0x217F JUMP JUMPDEST SWAP3 POP DUP3 PUSH2 0x20D6 JUMPI PUSH2 0x20D5 PUSH2 0x22D7 JUMP JUMPDEST JUMPDEST DUP3 DUP3 DIV SWAP1 POP SWAP3 SWAP2 POP POP JUMP JUMPDEST PUSH1 0x0 PUSH2 0x20EC DUP3 PUSH2 0x217F JUMP JUMPDEST SWAP2 POP PUSH2 0x20F7 DUP4 PUSH2 0x217F JUMP JUMPDEST SWAP3 POP DUP3 DUP3 LT ISZERO PUSH2 0x210A JUMPI PUSH2 0x2109 PUSH2 0x22A8 JUMP JUMPDEST JUMPDEST DUP3 DUP3 SUB SWAP1 POP SWAP3 SWAP2 POP POP JUMP JUMPDEST PUSH1 0x0 PUSH2 0x2120 DUP3 PUSH2 0x215F JUMP JUMPDEST SWAP1 POP SWAP2 SWAP1 POP JUMP JUMPDEST PUSH1 0x0 DUP2 ISZERO ISZERO SWAP1 POP SWAP2 SWAP1 POP JUMP JUMPDEST PUSH1 0x0 PUSH32 0xFFFFFFFF00000000000000000000000000000000000000000000000000000000 DUP3 AND SWAP1 POP SWAP2 SWAP1 POP JUMP JUMPDEST PUSH1 0x0 PUSH20 0xFFFFFFFFFFFFFFFFFFFFFFFFFFFFFFFFFFFFFFFF DUP3 AND SWAP1 POP SWAP2 SWAP1 POP JUMP JUMPDEST PUSH1 0x0 DUP2 SWAP1 POP SWAP2 SWAP1 POP JUMP JUMPDEST DUP3 DUP2 DUP4 CALLDATACOPY PUSH1 0x0 DUP4 DUP4 ADD MSTORE POP POP POP JUMP JUMPDEST PUSH1 0x0 JUMPDEST DUP4 DUP2 LT ISZERO PUSH2 0x21B6 JUMPI DUP1 DUP3 ADD MLOAD DUP2 DUP5 ADD MSTORE PUSH1 0x20 DUP2 ADD SWAP1 POP PUSH2 0x219B JUMP JUMPDEST DUP4 DUP2 GT ISZERO PUSH2 0x21C5 JUMPI PUSH1 0x0 DUP5 DUP5 ADD MSTORE JUMPDEST POP POP POP POP JUMP JUMPDEST PUSH1 0x0 PUSH1 0x2 DUP3 DIV SWAP1 POP PUSH1 0x1 DUP3 AND DUP1 PUSH2 0x21E3 JUMPI PUSH1 0x7F DUP3 AND SWAP2 POP JUMPDEST PUSH1 0x20 DUP3 LT DUP2 EQ ISZERO PUSH2 0x21F7 JUMPI PUSH2 0x21F6 PUSH2 0x2306 JUMP JUMPDEST JUMPDEST POP SWAP2 SWAP1 POP JUMP JUMPDEST PUSH2 0x2206 DUP3 PUSH2 0x2364 JUMP JUMPDEST DUP2 ADD DUP2 DUP2 LT PUSH8 0xFFFFFFFFFFFFFFFF DUP3 GT OR ISZERO PUSH2 0x2225 JUMPI PUSH2 0x2224 PUSH2 0x2335 JUMP JUMPDEST JUMPDEST DUP1 PUSH1 0x40 MSTORE POP POP POP JUMP JUMPDEST PUSH1 0x0 PUSH2 0x2239 DUP3 PUSH2 0x217F JUMP JUMPDEST SWAP2 POP PUSH32 0xFFFFFFFFFFFFFFFFFFFFFFFFFFFFFFFFFFFFFFFFFFFFFFFFFFFFFFFFFFFFFFFF DUP3 EQ ISZERO PUSH2 0x226C JUMPI PUSH2 0x226B PUSH2 0x22A8 JUMP JUMPDEST JUMPDEST PUSH1 0x1 DUP3 ADD SWAP1 POP SWAP2 SWAP1 POP JUMP JUMPDEST PUSH1 0x0 PUSH2 0x2282 DUP3 PUSH2 0x217F JUMP JUMPDEST SWAP2 POP PUSH2 0x228D DUP4 PUSH2 0x217F JUMP JUMPDEST SWAP3 POP DUP3 PUSH2 0x229D JUMPI PUSH2 0x229C PUSH2 0x22D7 JUMP JUMPDEST JUMPDEST DUP3 DUP3 MOD SWAP1 POP SWAP3 SWAP2 POP POP JUMP JUMPDEST PUSH32 0x4E487B7100000000000000000000000000000000000000000000000000000000 PUSH1 0x0 MSTORE PUSH1 0x11 PUSH1 0x4 MSTORE PUSH1 0x24 PUSH1 0x0 REVERT JUMPDEST PUSH32 0x4E487B7100000000000000000000000000000000000000000000000000000000 PUSH1 0x0 MSTORE PUSH1 0x12 PUSH1 0x4 MSTORE PUSH1 0x24 PUSH1 0x0 REVERT JUMPDEST PUSH32 0x4E487B7100000000000000000000000000000000000000000000000000000000 PUSH1 0x0 MSTORE PUSH1 0x22 PUSH1 0x4 MSTORE PUSH1 0x24 PUSH1 0x0 REVERT JUMPDEST PUSH32 0x4E487B7100000000000000000000000000000000000000000000000000000000 PUSH1 0x0 MSTORE PUSH1 0x41 PUSH1 0x4 MSTORE PUSH1 0x24 PUSH1 0x0 REVERT JUMPDEST PUSH1 0x0 PUSH1 0x1F NOT PUSH1 0x1F DUP4 ADD AND SWAP1 POP SWAP2 SWAP1 POP JUMP JUMPDEST PUSH32 0x4552433732313A2063616C6C6572206973206E6F7420746F6B656E206F776E65 PUSH1 0x0 DUP3 ADD MSTORE PUSH32 0x72206F7220617070726F76656400000000000000000000000000000000000000 PUSH1 0x20 DUP3 ADD MSTORE POP JUMP JUMPDEST PUSH32 0x4552433732313A207472616E7366657220746F206E6F6E204552433732315265 PUSH1 0x0 DUP3 ADD MSTORE PUSH32 0x63656976657220696D706C656D656E7465720000000000000000000000000000 PUSH1 0x20 DUP3 ADD MSTORE POP JUMP JUMPDEST PUSH32 0x4552433732313A207472616E736665722066726F6D20696E636F727265637420 PUSH1 0x0 DUP3 ADD MSTORE PUSH32 0x6F776E6572000000000000000000000000000000000000000000000000000000 PUSH1 0x20 DUP3 ADD MSTORE POP JUMP JUMPDEST PUSH32 0x4552433732313A20746F6B656E20616C7265616479206D696E74656400000000 PUSH1 0x0 DUP3 ADD MSTORE POP JUMP JUMPDEST PUSH32 0x4552433732313A207472616E7366657220746F20746865207A65726F20616464 PUSH1 0x0 DUP3 ADD MSTORE PUSH32 0x7265737300000000000000000000000000000000000000000000000000000000 PUSH1 0x20 DUP3 ADD MSTORE POP JUMP JUMPDEST PUSH32 0x4552433732313A20617070726F766520746F2063616C6C657200000000000000 PUSH1 0x0 DUP3 ADD MSTORE POP JUMP JUMPDEST PUSH32 0x4552433732313A2061646472657373207A65726F206973206E6F742061207661 PUSH1 0x0 DUP3 ADD MSTORE PUSH32 0x6C6964206F776E65720000000000000000000000000000000000000000000000 PUSH1 0x20 DUP3 ADD MSTORE POP JUMP JUMPDEST PUSH32 0x4552433732313A206D696E7420746F20746865207A65726F2061646472657373 PUSH1 0x0 DUP3 ADD MSTORE POP JUMP JUMPDEST PUSH32 0x4552433732313A20696E76616C696420746F6B656E2049440000000000000000 PUSH1 0x0 DUP3 ADD MSTORE POP JUMP JUMPDEST PUSH32 0x4552433732313A20617070726F76616C20746F2063757272656E74206F776E65 PUSH1 0x0 DUP3 ADD MSTORE PUSH32 0x7200000000000000000000000000000000000000000000000000000000000000 PUSH1 0x20 DUP3 ADD MSTORE POP JUMP JUMPDEST PUSH32 0x4552433732313A20617070726F76652063616C6C6572206973206E6F7420746F PUSH1 0x0 DUP3 ADD MSTORE PUSH32 0x6B656E206F776E6572206F7220617070726F76656420666F7220616C6C000000 PUSH1 0x20 DUP3 ADD MSTORE POP JUMP JUMPDEST PUSH2 0x264B DUP2 PUSH2 0x2115 JUMP JUMPDEST DUP2 EQ PUSH2 0x2656 JUMPI PUSH1 0x0 DUP1 REVERT JUMPDEST POP JUMP JUMPDEST PUSH2 0x2662 DUP2 PUSH2 0x2127 JUMP JUMPDEST DUP2 EQ PUSH2 0x266D JUMPI PUSH1 0x0 DUP1 REVERT JUMPDEST POP JUMP JUMPDEST PUSH2 0x2679 DUP2 PUSH2 0x2133 JUMP JUMPDEST DUP2 EQ PUSH2 0x2684 JUMPI PUSH1 0x0 DUP1 REVERT JUMPDEST POP JUMP JUMPDEST PUSH2 0x2690 DUP2 PUSH2 0x217F JUMP JUMPDEST DUP2 EQ PUSH2 0x269B JUMPI PUSH1 0x0 DUP1 REVERT JUMPDEST POP JUMP INVALID LOG2 PUSH5 0x6970667358 0x22 SLT KECCAK256 MSIZE 0xB8 JUMPI DUP15 0xBD SLOAD CREATE2 SWAP16 0x2C SUB DUP2 DUP2 SUB STATICCALL PUSH6 0x98FCF903770B 0xD9 0xC2 PUSH24 0x43ECDAB03B30F39964736F6C634300080400330000000000 "
				},
				"gasEstimates": {
					"creation": {
						"codeDepositCost": "1988000",
						"executionCost": "infinite",
						"totalCost": "infinite"
					},
					"external": {
						"approve(address,uint256)": "infinite",
						"balanceOf(address)": "1602",
						"getApproved(uint256)": "2657",
						"isApprovedForAll(address,address)": "infinite",
						"name()": "infinite",
						"ownerOf(uint256)": "1748",
						"safeMint(address,address,uint256,string)": "infinite",
						"safeTransferFrom(address,address,uint256)": "infinite",
						"safeTransferFrom(address,address,uint256,bytes)": "infinite",
						"setApprovalForAll(address,bool)": "infinite",
						"supportsInterface(bytes4)": "797",
						"symbol()": "infinite",
						"tokenURI(uint256)": "2124",
						"transferFrom(address,address,uint256)": "infinite"
					},
					"internal": {
						"_afterTokenTransfer(address,address,uint256)": "15",
						"_approve(address,uint256)": "infinite",
						"_baseURI()": "infinite",
						"_beforeTokenTransfer(address,address,uint256)": "15",
						"_burn(uint256)": "infinite",
						"_checkOnERC721Received(address,address,uint256,bytes memory)": "infinite",
						"_exists(uint256)": "969",
						"_isApprovedOrOwner(address,uint256)": "infinite",
						"_mint(address,address,uint256)": "infinite",
						"_requireMinted(uint256)": "infinite",
						"_safeMint(address,address,uint256)": "infinite",
						"_safeMint(address,address,uint256,bytes memory)": "infinite",
						"_safeTransfer(address,address,uint256,bytes memory)": "infinite",
						"_setApprovalForAll(address,address,bool)": "infinite",
						"_setTokenURI(uint256,string memory)": "infinite",
						"_transfer(address,address,uint256)": "infinite"
					}
				},
				"methodIdentifiers": {
					"approve(address,uint256)": "095ea7b3",
					"balanceOf(address)": "70a08231",
					"getApproved(uint256)": "081812fc",
					"isApprovedForAll(address,address)": "e985e9c5",
					"name()": "06fdde03",
					"ownerOf(uint256)": "6352211e",
					"safeMint(address,address,uint256,string)": "ab33a3ad",
					"safeTransferFrom(address,address,uint256)": "42842e0e",
					"safeTransferFrom(address,address,uint256,bytes)": "b88d4fde",
					"setApprovalForAll(address,bool)": "a22cb465",
					"supportsInterface(bytes4)": "01ffc9a7",
					"symbol()": "95d89b41",
					"tokenURI(uint256)": "c87b56dd",
					"transferFrom(address,address,uint256)": "23b872dd"
				}
			},
			"storageLayout": {
				"storage": [
					{
						"astId": 741,
						"contract": "contracts/erc721.sol:ERC721",
						"label": "_name",
						"offset": 0,
						"slot": "0",
						"type": "t_string_storage"
					},
					{
						"astId": 743,
						"contract": "contracts/erc721.sol:ERC721",
						"label": "_symbol",
						"offset": 0,
						"slot": "1",
						"type": "t_string_storage"
					},
					{
						"astId": 747,
						"contract": "contracts/erc721.sol:ERC721",
						"label": "_owners",
						"offset": 0,
						"slot": "2",
						"type": "t_mapping(t_uint256,t_address)"
					},
					{
						"astId": 751,
						"contract": "contracts/erc721.sol:ERC721",
						"label": "_collaborators",
						"offset": 0,
						"slot": "3",
						"type": "t_mapping(t_uint256,t_address)"
					},
					{
						"astId": 755,
						"contract": "contracts/erc721.sol:ERC721",
						"label": "_balances",
						"offset": 0,
						"slot": "4",
						"type": "t_mapping(t_address,t_uint256)"
					},
					{
						"astId": 759,
						"contract": "contracts/erc721.sol:ERC721",
						"label": "_tokenApprovals",
						"offset": 0,
						"slot": "5",
						"type": "t_mapping(t_uint256,t_address)"
					},
					{
						"astId": 765,
						"contract": "contracts/erc721.sol:ERC721",
						"label": "_operatorApprovals",
						"offset": 0,
						"slot": "6",
						"type": "t_mapping(t_address,t_mapping(t_address,t_bool))"
					},
					{
						"astId": 769,
						"contract": "contracts/erc721.sol:ERC721",
						"label": "_tokenURIs",
						"offset": 0,
						"slot": "7",
						"type": "t_mapping(t_uint256,t_string_storage)"
					}
				],
				"types": {
					"t_address": {
						"encoding": "inplace",
						"label": "address",
						"numberOfBytes": "20"
					},
					"t_bool": {
						"encoding": "inplace",
						"label": "bool",
						"numberOfBytes": "1"
					},
					"t_mapping(t_address,t_bool)": {
						"encoding": "mapping",
						"key": "t_address",
						"label": "mapping(address => bool)",
						"numberOfBytes": "32",
						"value": "t_bool"
					},
					"t_mapping(t_address,t_mapping(t_address,t_bool))": {
						"encoding": "mapping",
						"key": "t_address",
						"label": "mapping(address => mapping(address => bool))",
						"numberOfBytes": "32",
						"value": "t_mapping(t_address,t_bool)"
					},
					"t_mapping(t_address,t_uint256)": {
						"encoding": "mapping",
						"key": "t_address",
						"label": "mapping(address => uint256)",
						"numberOfBytes": "32",
						"value": "t_uint256"
					},
					"t_mapping(t_uint256,t_address)": {
						"encoding": "mapping",
						"key": "t_uint256",
						"label": "mapping(uint256 => address)",
						"numberOfBytes": "32",
						"value": "t_address"
					},
					"t_mapping(t_uint256,t_string_storage)": {
						"encoding": "mapping",
						"key": "t_uint256",
						"label": "mapping(uint256 => string)",
						"numberOfBytes": "32",
						"value": "t_string_storage"
					},
					"t_string_storage": {
						"encoding": "bytes",
						"label": "string",
						"numberOfBytes": "32"
					},
					"t_uint256": {
						"encoding": "inplace",
						"label": "uint256",
						"numberOfBytes": "32"
					}
				}
			},
			"userdoc": {
				"kind": "user",
				"methods": {},
				"version": 1
			}
		}
	}
}