{
	"contracts/nft.sol": {
		"nft": {
			"abi": [
				{
					"inputs": [
						{
							"internalType": "string",
							"name": "name_",
							"type": "string"
						},
						{
							"internalType": "string",
							"name": "symbol_",
							"type": "string"
						}
					],
					"stateMutability": "nonpayable",
					"type": "constructor"
				},
				{
					"anonymous": false,
					"inputs": [
						{
							"indexed": true,
							"internalType": "address",
							"name": "owner",
							"type": "address"
						},
						{
							"indexed": true,
							"internalType": "address",
							"name": "approved",
							"type": "address"
						},
						{
							"indexed": true,
							"internalType": "uint256",
							"name": "tokenId",
							"type": "uint256"
						}
					],
					"name": "Approval",
					"type": "event"
				},
				{
					"anonymous": false,
					"inputs": [
						{
							"indexed": true,
							"internalType": "address",
							"name": "owner",
							"type": "address"
						},
						{
							"indexed": true,
							"internalType": "address",
							"name": "operator",
							"type": "address"
						},
						{
							"indexed": false,
							"internalType": "bool",
							"name": "approved",
							"type": "bool"
						}
					],
					"name": "ApprovalForAll",
					"type": "event"
				},
				{
					"anonymous": false,
					"inputs": [
						{
							"indexed": true,
							"internalType": "address",
							"name": "from",
							"type": "address"
						},
						{
							"indexed": true,
							"internalType": "address",
							"name": "to",
							"type": "address"
						},
						{
							"indexed": true,
							"internalType": "uint256",
							"name": "tokenId",
							"type": "uint256"
						}
					],
					"name": "Transfer",
					"type": "event"
				},
				{
					"inputs": [
						{
							"internalType": "address",
							"name": "to",
							"type": "address"
						},
						{
							"internalType": "uint256",
							"name": "tokenId",
							"type": "uint256"
						}
					],
					"name": "approve",
					"outputs": [],
					"stateMutability": "nonpayable",
					"type": "function"
				},
				{
					"inputs": [
						{
							"internalType": "address",
							"name": "owner",
							"type": "address"
						}
					],
					"name": "balanceOf",
					"outputs": [
						{
							"internalType": "uint256",
							"name": "",
							"type": "uint256"
						}
					],
					"stateMutability": "view",
					"type": "function"
				},
				{
					"inputs": [
						{
							"internalType": "uint256",
							"name": "tokenId",
							"type": "uint256"
						}
					],
					"name": "collaboratotOf",
					"outputs": [
						{
							"internalType": "address[]",
							"name": "",
							"type": "address[]"
						}
					],
					"stateMutability": "view",
					"type": "function"
				},
				{
					"inputs": [
						{
							"internalType": "uint256",
							"name": "tokenId",
							"type": "uint256"
						}
					],
					"name": "collaboratotPercentageOf",
					"outputs": [
						{
							"internalType": "uint256[]",
							"name": "",
							"type": "uint256[]"
						}
					],
					"stateMutability": "view",
					"type": "function"
				},
				{
					"inputs": [
						{
							"internalType": "uint256",
							"name": "tokenId",
							"type": "uint256"
						}
					],
					"name": "getApproved",
					"outputs": [
						{
							"internalType": "address",
							"name": "",
							"type": "address"
						}
					],
					"stateMutability": "view",
					"type": "function"
				},
				{
					"inputs": [
						{
							"internalType": "address",
							"name": "owner",
							"type": "address"
						},
						{
							"internalType": "address",
							"name": "operator",
							"type": "address"
						}
					],
					"name": "isApprovedForAll",
					"outputs": [
						{
							"internalType": "bool",
							"name": "",
							"type": "bool"
						}
					],
					"stateMutability": "view",
					"type": "function"
				},
				{
					"inputs": [
						{
							"internalType": "address",
							"name": "to",
							"type": "address"
						},
						{
							"internalType": "address[]",
							"name": "collaborator",
							"type": "address[]"
						},
						{
							"internalType": "uint256[]",
							"name": "collaboratorPercent",
							"type": "uint256[]"
						},
						{
							"internalType": "string",
							"name": "uri",
							"type": "string"
						}
					],
					"name": "mint",
					"outputs": [
						{
							"internalType": "uint256",
							"name": "",
							"type": "uint256"
						}
					],
					"stateMutability": "nonpayable",
					"type": "function"
				},
				{
					"inputs": [],
					"name": "name",
					"outputs": [
						{
							"internalType": "string",
							"name": "",
							"type": "string"
						}
					],
					"stateMutability": "view",
					"type": "function"
				},
				{
					"inputs": [
						{
							"internalType": "uint256",
							"name": "tokenId",
							"type": "uint256"
						}
					],
					"name": "ownerOf",
					"outputs": [
						{
							"internalType": "address",
							"name": "",
							"type": "address"
						}
					],
					"stateMutability": "view",
					"type": "function"
				},
				{
					"inputs": [
						{
							"internalType": "address",
							"name": "from",
							"type": "address"
						},
						{
							"internalType": "address",
							"name": "to",
							"type": "address"
						},
						{
							"internalType": "uint256",
							"name": "tokenId",
							"type": "uint256"
						}
					],
					"name": "safeTransferFrom",
					"outputs": [],
					"stateMutability": "nonpayable",
					"type": "function"
				},
				{
					"inputs": [
						{
							"internalType": "address",
							"name": "from",
							"type": "address"
						},
						{
							"internalType": "address",
							"name": "to",
							"type": "address"
						},
						{
							"internalType": "uint256",
							"name": "tokenId",
							"type": "uint256"
						},
						{
							"internalType": "bytes",
							"name": "data",
							"type": "bytes"
						}
					],
					"name": "safeTransferFrom",
					"outputs": [],
					"stateMutability": "nonpayable",
					"type": "function"
				},
				{
					"inputs": [
						{
							"internalType": "address",
							"name": "operator",
							"type": "address"
						},
						{
							"internalType": "bool",
							"name": "approved",
							"type": "bool"
						}
					],
					"name": "setApprovalForAll",
					"outputs": [],
					"stateMutability": "nonpayable",
					"type": "function"
				},
				{
					"inputs": [
						{
							"internalType": "bytes4",
							"name": "interfaceId",
							"type": "bytes4"
						}
					],
					"name": "supportsInterface",
					"outputs": [
						{
							"internalType": "bool",
							"name": "",
							"type": "bool"
						}
					],
					"stateMutability": "view",
					"type": "function"
				},
				{
					"inputs": [],
					"name": "symbol",
					"outputs": [
						{
							"internalType": "string",
							"name": "",
							"type": "string"
						}
					],
					"stateMutability": "view",
					"type": "function"
				},
				{
					"inputs": [
						{
							"internalType": "uint256",
							"name": "tokenId",
							"type": "uint256"
						}
					],
					"name": "tokenURI",
					"outputs": [
						{
							"internalType": "string",
							"name": "",
							"type": "string"
						}
					],
					"stateMutability": "view",
					"type": "function"
				},
				{
					"inputs": [
						{
							"internalType": "address",
							"name": "from",
							"type": "address"
						},
						{
							"internalType": "address",
							"name": "to",
							"type": "address"
						},
						{
							"internalType": "uint256",
							"name": "tokenId",
							"type": "uint256"
						}
					],
					"name": "transferFrom",
					"outputs": [],
					"stateMutability": "nonpayable",
					"type": "function"
				}
			],
			"devdoc": {
				"kind": "dev",
				"methods": {
					"approve(address,uint256)": {
						"details": "Gives permission to `to` to transfer `tokenId` token to another account. The approval is cleared when the token is transferred. Only a single account can be approved at a time, so approving the zero address clears previous approvals. Requirements: - The caller must own the token or be an approved operator. - `tokenId` must exist. Emits an {Approval} event."
					},
					"balanceOf(address)": {
						"details": "Returns the number of tokens in ``owner``'s account."
					},
					"getApproved(uint256)": {
						"details": "Returns the account approved for `tokenId` token. Requirements: - `tokenId` must exist."
					},
					"isApprovedForAll(address,address)": {
						"details": "Returns if the `operator` is allowed to manage all of the assets of `owner`. See {setApprovalForAll}"
					},
					"name()": {
						"details": "Returns the token collection name."
					},
					"ownerOf(uint256)": {
						"details": "Returns the owner of the `tokenId` token. Requirements: - `tokenId` must exist."
					},
					"safeTransferFrom(address,address,uint256)": {
						"details": "Safely transfers `tokenId` token from `from` to `to`, checking first that contract recipients are aware of the ERC721 protocol to prevent tokens from being forever locked. Requirements: - `from` cannot be the zero address. - `to` cannot be the zero address. - `tokenId` token must exist and be owned by `from`. - If the caller is not `from`, it must be have been allowed to move this token by either {approve} or {setApprovalForAll}. - If `to` refers to a smart contract, it must implement {IERC721Receiver-onERC721Received}, which is called upon a safe transfer. Emits a {Transfer} event."
					},
					"safeTransferFrom(address,address,uint256,bytes)": {
						"details": "Safely transfers `tokenId` token from `from` to `to`. Requirements: - `from` cannot be the zero address. - `to` cannot be the zero address. - `tokenId` token must exist and be owned by `from`. - If the caller is not `from`, it must be approved to move this token by either {approve} or {setApprovalForAll}. - If `to` refers to a smart contract, it must implement {IERC721Receiver-onERC721Received}, which is called upon a safe transfer. Emits a {Transfer} event."
					},
					"symbol()": {
						"details": "Returns the token collection symbol."
					},
					"tokenURI(uint256)": {
						"details": "Returns the Uniform Resource Identifier (URI) for `tokenId` token."
					},
					"transferFrom(address,address,uint256)": {
						"details": "Transfers `tokenId` token from `from` to `to`. WARNING: Usage of this method is discouraged, use {safeTransferFrom} whenever possible. Requirements: - `from` cannot be the zero address. - `to` cannot be the zero address. - `tokenId` token must be owned by `from`. - If the caller is not `from`, it must be approved to move this token by either {approve} or {setApprovalForAll}. Emits a {Transfer} event."
					}
				},
				"version": 1
			},
			"evm": {
				"assembly": "    /* \"contracts/nft.sol\":677:10897  contract nft is Context, ERC165, IERC721, IERC721Metadata {\r... */\n  mstore(0x40, 0x80)\n    /* \"contracts/nft.sol\":1449:1565  constructor(string memory name_, string memory symbol_) {\r... */\n  callvalue\n  dup1\n  iszero\n  tag_1\n  jumpi\n  0x00\n  dup1\n  revert\ntag_1:\n  pop\n  mload(0x40)\n  sub(codesize, bytecodeSize)\n  dup1\n  bytecodeSize\n  dup4\n  codecopy\n  dup2\n  dup2\n  add\n  0x40\n  mstore\n  dup2\n  add\n  swap1\n  tag_2\n  swap2\n  swap1\n  tag_3\n  jump\t// in\ntag_2:\n    /* \"contracts/nft.sol\":1524:1529  name_ */\n  dup2\n    /* \"contracts/nft.sol\":1516:1521  _name */\n  0x01\n    /* \"contracts/nft.sol\":1516:1529  _name = name_ */\n  swap1\n  dup1\n  mload\n  swap1\n  0x20\n  add\n  swap1\n  tag_6\n  swap3\n  swap2\n  swap1\n  tag_7\n  jump\t// in\ntag_6:\n  pop\n    /* \"contracts/nft.sol\":1550:1557  symbol_ */\n  dup1\n    /* \"contracts/nft.sol\":1540:1547  _symbol */\n  0x02\n    /* \"contracts/nft.sol\":1540:1557  _symbol = symbol_ */\n  swap1\n  dup1\n  mload\n  swap1\n  0x20\n  add\n  swap1\n  tag_8\n  swap3\n  swap2\n  swap1\n  tag_7\n  jump\t// in\ntag_8:\n  pop\n    /* \"contracts/nft.sol\":1449:1565  constructor(string memory name_, string memory symbol_) {\r... */\n  pop\n  pop\n    /* \"contracts/nft.sol\":677:10897  contract nft is Context, ERC165, IERC721, IERC721Metadata {\r... */\n  jump(tag_9)\ntag_7:\n  dup3\n  dup1\n  sload\n  tag_10\n  swap1\n  tag_11\n  jump\t// in\ntag_10:\n  swap1\n  0x00\n  mstore\n  keccak256(0x00, 0x20)\n  swap1\n  0x1f\n  add\n  0x20\n  swap1\n  div\n  dup2\n  add\n  swap3\n  dup3\n  tag_13\n  jumpi\n  0x00\n  dup6\n  sstore\n  jump(tag_12)\ntag_13:\n  dup3\n  0x1f\n  lt\n  tag_14\n  jumpi\n  dup1\n  mload\n  not(0xff)\n  and\n  dup4\n  dup1\n  add\n  or\n  dup6\n  sstore\n  jump(tag_12)\ntag_14:\n  dup3\n  dup1\n  add\n  0x01\n  add\n  dup6\n  sstore\n  dup3\n  iszero\n  tag_12\n  jumpi\n  swap2\n  dup3\n  add\ntag_15:\n  dup3\n  dup2\n  gt\n  iszero\n  tag_16\n  jumpi\n  dup3\n  mload\n  dup3\n  sstore\n  swap2\n  0x20\n  add\n  swap2\n  swap1\n  0x01\n  add\n  swap1\n  jump(tag_15)\ntag_16:\ntag_12:\n  pop\n  swap1\n  pop\n  tag_17\n  swap2\n  swap1\n  tag_18\n  jump\t// in\ntag_17:\n  pop\n  swap1\n  jump\t// out\ntag_18:\ntag_19:\n  dup1\n  dup3\n  gt\n  iszero\n  tag_20\n  jumpi\n  0x00\n  dup2\n  0x00\n  swap1\n  sstore\n  pop\n  0x01\n  add\n  jump(tag_19)\ntag_20:\n  pop\n  swap1\n  jump\t// out\n    /* \"#utility.yul\":7:361   */\ntag_22:\n    /* \"#utility.yul\":96:101   */\n  0x00\n    /* \"#utility.yul\":121:187   */\n  tag_24\n    /* \"#utility.yul\":137:186   */\n  tag_25\n    /* \"#utility.yul\":179:185   */\n  dup5\n    /* \"#utility.yul\":137:186   */\n  tag_26\n  jump\t// in\ntag_25:\n    /* \"#utility.yul\":121:187   */\n  tag_27\n  jump\t// in\ntag_24:\n    /* \"#utility.yul\":112:187   */\n  swap1\n  pop\n    /* \"#utility.yul\":210:216   */\n  dup3\n    /* \"#utility.yul\":203:208   */\n  dup2\n    /* \"#utility.yul\":196:217   */\n  mstore\n    /* \"#utility.yul\":248:252   */\n  0x20\n    /* \"#utility.yul\":241:246   */\n  dup2\n    /* \"#utility.yul\":237:253   */\n  add\n    /* \"#utility.yul\":286:289   */\n  dup5\n    /* \"#utility.yul\":277:283   */\n  dup5\n    /* \"#utility.yul\":272:275   */\n  dup5\n    /* \"#utility.yul\":268:284   */\n  add\n    /* \"#utility.yul\":265:290   */\n  gt\n    /* \"#utility.yul\":262:264   */\n  iszero\n  tag_28\n  jumpi\n    /* \"#utility.yul\":303:304   */\n  0x00\n    /* \"#utility.yul\":300:301   */\n  dup1\n    /* \"#utility.yul\":293:305   */\n  revert\n    /* \"#utility.yul\":262:264   */\ntag_28:\n    /* \"#utility.yul\":316:355   */\n  tag_29\n    /* \"#utility.yul\":348:354   */\n  dup5\n    /* \"#utility.yul\":343:346   */\n  dup3\n    /* \"#utility.yul\":338:341   */\n  dup6\n    /* \"#utility.yul\":316:355   */\n  tag_30\n  jump\t// in\ntag_29:\n    /* \"#utility.yul\":102:361   */\n  pop\n  swap4\n  swap3\n  pop\n  pop\n  pop\n  jump\t// out\n    /* \"#utility.yul\":381:669   */\ntag_31:\n    /* \"#utility.yul\":448:453   */\n  0x00\n    /* \"#utility.yul\":497:500   */\n  dup3\n    /* \"#utility.yul\":490:494   */\n  0x1f\n    /* \"#utility.yul\":482:488   */\n  dup4\n    /* \"#utility.yul\":478:495   */\n  add\n    /* \"#utility.yul\":474:501   */\n  slt\n    /* \"#utility.yul\":464:466   */\n  tag_33\n  jumpi\n    /* \"#utility.yul\":515:516   */\n  0x00\n    /* \"#utility.yul\":512:513   */\n  dup1\n    /* \"#utility.yul\":505:517   */\n  revert\n    /* \"#utility.yul\":464:466   */\ntag_33:\n    /* \"#utility.yul\":548:554   */\n  dup2\n    /* \"#utility.yul\":542:555   */\n  mload\n    /* \"#utility.yul\":573:663   */\n  tag_34\n    /* \"#utility.yul\":659:662   */\n  dup5\n    /* \"#utility.yul\":651:657   */\n  dup3\n    /* \"#utility.yul\":644:648   */\n  0x20\n    /* \"#utility.yul\":636:642   */\n  dup7\n    /* \"#utility.yul\":632:649   */\n  add\n    /* \"#utility.yul\":573:663   */\n  tag_22\n  jump\t// in\ntag_34:\n    /* \"#utility.yul\":564:663   */\n  swap2\n  pop\n    /* \"#utility.yul\":454:669   */\n  pop\n  swap3\n  swap2\n  pop\n  pop\n  jump\t// out\n    /* \"#utility.yul\":675:1327   */\ntag_3:\n    /* \"#utility.yul\":774:780   */\n  0x00\n    /* \"#utility.yul\":782:788   */\n  dup1\n    /* \"#utility.yul\":831:833   */\n  0x40\n    /* \"#utility.yul\":819:828   */\n  dup4\n    /* \"#utility.yul\":810:817   */\n  dup6\n    /* \"#utility.yul\":806:829   */\n  sub\n    /* \"#utility.yul\":802:834   */\n  slt\n    /* \"#utility.yul\":799:801   */\n  iszero\n  tag_36\n  jumpi\n    /* \"#utility.yul\":847:848   */\n  0x00\n    /* \"#utility.yul\":844:845   */\n  dup1\n    /* \"#utility.yul\":837:849   */\n  revert\n    /* \"#utility.yul\":799:801   */\ntag_36:\n    /* \"#utility.yul\":911:912   */\n  0x00\n    /* \"#utility.yul\":900:909   */\n  dup4\n    /* \"#utility.yul\":896:913   */\n  add\n    /* \"#utility.yul\":890:914   */\n  mload\n    /* \"#utility.yul\":941:959   */\n  0xffffffffffffffff\n    /* \"#utility.yul\":933:939   */\n  dup2\n    /* \"#utility.yul\":930:960   */\n  gt\n    /* \"#utility.yul\":927:929   */\n  iszero\n  tag_37\n  jumpi\n    /* \"#utility.yul\":973:974   */\n  0x00\n    /* \"#utility.yul\":970:971   */\n  dup1\n    /* \"#utility.yul\":963:975   */\n  revert\n    /* \"#utility.yul\":927:929   */\ntag_37:\n    /* \"#utility.yul\":1001:1075   */\n  tag_38\n    /* \"#utility.yul\":1067:1074   */\n  dup6\n    /* \"#utility.yul\":1058:1064   */\n  dup3\n    /* \"#utility.yul\":1047:1056   */\n  dup7\n    /* \"#utility.yul\":1043:1065   */\n  add\n    /* \"#utility.yul\":1001:1075   */\n  tag_31\n  jump\t// in\ntag_38:\n    /* \"#utility.yul\":991:1075   */\n  swap3\n  pop\n    /* \"#utility.yul\":861:1085   */\n  pop\n    /* \"#utility.yul\":1145:1147   */\n  0x20\n    /* \"#utility.yul\":1134:1143   */\n  dup4\n    /* \"#utility.yul\":1130:1148   */\n  add\n    /* \"#utility.yul\":1124:1149   */\n  mload\n    /* \"#utility.yul\":1176:1194   */\n  0xffffffffffffffff\n    /* \"#utility.yul\":1168:1174   */\n  dup2\n    /* \"#utility.yul\":1165:1195   */\n  gt\n    /* \"#utility.yul\":1162:1164   */\n  iszero\n  tag_39\n  jumpi\n    /* \"#utility.yul\":1208:1209   */\n  0x00\n    /* \"#utility.yul\":1205:1206   */\n  dup1\n    /* \"#utility.yul\":1198:1210   */\n  revert\n    /* \"#utility.yul\":1162:1164   */\ntag_39:\n    /* \"#utility.yul\":1236:1310   */\n  tag_40\n    /* \"#utility.yul\":1302:1309   */\n  dup6\n    /* \"#utility.yul\":1293:1299   */\n  dup3\n    /* \"#utility.yul\":1282:1291   */\n  dup7\n    /* \"#utility.yul\":1278:1300   */\n  add\n    /* \"#utility.yul\":1236:1310   */\n  tag_31\n  jump\t// in\ntag_40:\n    /* \"#utility.yul\":1226:1310   */\n  swap2\n  pop\n    /* \"#utility.yul\":1095:1320   */\n  pop\n    /* \"#utility.yul\":789:1327   */\n  swap3\n  pop\n  swap3\n  swap1\n  pop\n  jump\t// out\n    /* \"#utility.yul\":1333:1462   */\ntag_27:\n    /* \"#utility.yul\":1367:1373   */\n  0x00\n    /* \"#utility.yul\":1394:1414   */\n  tag_42\n  tag_43\n  jump\t// in\ntag_42:\n    /* \"#utility.yul\":1384:1414   */\n  swap1\n  pop\n    /* \"#utility.yul\":1423:1456   */\n  tag_44\n    /* \"#utility.yul\":1451:1455   */\n  dup3\n    /* \"#utility.yul\":1443:1449   */\n  dup3\n    /* \"#utility.yul\":1423:1456   */\n  tag_45\n  jump\t// in\ntag_44:\n    /* \"#utility.yul\":1374:1462   */\n  swap2\n  swap1\n  pop\n  jump\t// out\n    /* \"#utility.yul\":1468:1543   */\ntag_43:\n    /* \"#utility.yul\":1501:1507   */\n  0x00\n    /* \"#utility.yul\":1534:1536   */\n  0x40\n    /* \"#utility.yul\":1528:1537   */\n  mload\n    /* \"#utility.yul\":1518:1537   */\n  swap1\n  pop\n    /* \"#utility.yul\":1508:1543   */\n  swap1\n  jump\t// out\n    /* \"#utility.yul\":1549:1857   */\ntag_26:\n    /* \"#utility.yul\":1611:1615   */\n  0x00\n    /* \"#utility.yul\":1701:1719   */\n  0xffffffffffffffff\n    /* \"#utility.yul\":1693:1699   */\n  dup3\n    /* \"#utility.yul\":1690:1720   */\n  gt\n    /* \"#utility.yul\":1687:1689   */\n  iszero\n  tag_48\n  jumpi\n    /* \"#utility.yul\":1723:1741   */\n  tag_49\n  tag_50\n  jump\t// in\ntag_49:\n    /* \"#utility.yul\":1687:1689   */\ntag_48:\n    /* \"#utility.yul\":1761:1790   */\n  tag_51\n    /* \"#utility.yul\":1783:1789   */\n  dup3\n    /* \"#utility.yul\":1761:1790   */\n  tag_52\n  jump\t// in\ntag_51:\n    /* \"#utility.yul\":1753:1790   */\n  swap1\n  pop\n    /* \"#utility.yul\":1845:1849   */\n  0x20\n    /* \"#utility.yul\":1839:1843   */\n  dup2\n    /* \"#utility.yul\":1835:1850   */\n  add\n    /* \"#utility.yul\":1827:1850   */\n  swap1\n  pop\n    /* \"#utility.yul\":1616:1857   */\n  swap2\n  swap1\n  pop\n  jump\t// out\n    /* \"#utility.yul\":1863:2170   */\ntag_30:\n    /* \"#utility.yul\":1931:1932   */\n  0x00\n    /* \"#utility.yul\":1941:2054   */\ntag_54:\n    /* \"#utility.yul\":1955:1961   */\n  dup4\n    /* \"#utility.yul\":1952:1953   */\n  dup2\n    /* \"#utility.yul\":1949:1962   */\n  lt\n    /* \"#utility.yul\":1941:2054   */\n  iszero\n  tag_56\n  jumpi\n    /* \"#utility.yul\":2040:2041   */\n  dup1\n    /* \"#utility.yul\":2035:2038   */\n  dup3\n    /* \"#utility.yul\":2031:2042   */\n  add\n    /* \"#utility.yul\":2025:2043   */\n  mload\n    /* \"#utility.yul\":2021:2022   */\n  dup2\n    /* \"#utility.yul\":2016:2019   */\n  dup5\n    /* \"#utility.yul\":2012:2023   */\n  add\n    /* \"#utility.yul\":2005:2044   */\n  mstore\n    /* \"#utility.yul\":1977:1979   */\n  0x20\n    /* \"#utility.yul\":1974:1975   */\n  dup2\n    /* \"#utility.yul\":1970:1980   */\n  add\n    /* \"#utility.yul\":1965:1980   */\n  swap1\n  pop\n    /* \"#utility.yul\":1941:2054   */\n  jump(tag_54)\ntag_56:\n    /* \"#utility.yul\":2072:2078   */\n  dup4\n    /* \"#utility.yul\":2069:2070   */\n  dup2\n    /* \"#utility.yul\":2066:2079   */\n  gt\n    /* \"#utility.yul\":2063:2065   */\n  iszero\n  tag_57\n  jumpi\n    /* \"#utility.yul\":2152:2153   */\n  0x00\n    /* \"#utility.yul\":2143:2149   */\n  dup5\n    /* \"#utility.yul\":2138:2141   */\n  dup5\n    /* \"#utility.yul\":2134:2150   */\n  add\n    /* \"#utility.yul\":2127:2154   */\n  mstore\n    /* \"#utility.yul\":2063:2065   */\ntag_57:\n    /* \"#utility.yul\":1912:2170   */\n  pop\n  pop\n  pop\n  pop\n  jump\t// out\n    /* \"#utility.yul\":2176:2496   */\ntag_11:\n    /* \"#utility.yul\":2220:2226   */\n  0x00\n    /* \"#utility.yul\":2257:2258   */\n  0x02\n    /* \"#utility.yul\":2251:2255   */\n  dup3\n    /* \"#utility.yul\":2247:2259   */\n  div\n    /* \"#utility.yul\":2237:2259   */\n  swap1\n  pop\n    /* \"#utility.yul\":2304:2305   */\n  0x01\n    /* \"#utility.yul\":2298:2302   */\n  dup3\n    /* \"#utility.yul\":2294:2306   */\n  and\n    /* \"#utility.yul\":2325:2343   */\n  dup1\n    /* \"#utility.yul\":2315:2317   */\n  tag_59\n  jumpi\n    /* \"#utility.yul\":2381:2385   */\n  0x7f\n    /* \"#utility.yul\":2373:2379   */\n  dup3\n    /* \"#utility.yul\":2369:2386   */\n  and\n    /* \"#utility.yul\":2359:2386   */\n  swap2\n  pop\n    /* \"#utility.yul\":2315:2317   */\ntag_59:\n    /* \"#utility.yul\":2443:2445   */\n  0x20\n    /* \"#utility.yul\":2435:2441   */\n  dup3\n    /* \"#utility.yul\":2432:2446   */\n  lt\n    /* \"#utility.yul\":2412:2430   */\n  dup2\n    /* \"#utility.yul\":2409:2447   */\n  eq\n    /* \"#utility.yul\":2406:2408   */\n  iszero\n  tag_60\n  jumpi\n    /* \"#utility.yul\":2462:2480   */\n  tag_61\n  tag_62\n  jump\t// in\ntag_61:\n    /* \"#utility.yul\":2406:2408   */\ntag_60:\n    /* \"#utility.yul\":2227:2496   */\n  pop\n  swap2\n  swap1\n  pop\n  jump\t// out\n    /* \"#utility.yul\":2502:2783   */\ntag_45:\n    /* \"#utility.yul\":2585:2612   */\n  tag_64\n    /* \"#utility.yul\":2607:2611   */\n  dup3\n    /* \"#utility.yul\":2585:2612   */\n  tag_52\n  jump\t// in\ntag_64:\n    /* \"#utility.yul\":2577:2583   */\n  dup2\n    /* \"#utility.yul\":2573:2613   */\n  add\n    /* \"#utility.yul\":2715:2721   */\n  dup2\n    /* \"#utility.yul\":2703:2713   */\n  dup2\n    /* \"#utility.yul\":2700:2722   */\n  lt\n    /* \"#utility.yul\":2679:2697   */\n  0xffffffffffffffff\n    /* \"#utility.yul\":2667:2677   */\n  dup3\n    /* \"#utility.yul\":2664:2698   */\n  gt\n    /* \"#utility.yul\":2661:2723   */\n  or\n    /* \"#utility.yul\":2658:2660   */\n  iszero\n  tag_65\n  jumpi\n    /* \"#utility.yul\":2726:2744   */\n  tag_66\n  tag_50\n  jump\t// in\ntag_66:\n    /* \"#utility.yul\":2658:2660   */\ntag_65:\n    /* \"#utility.yul\":2766:2776   */\n  dup1\n    /* \"#utility.yul\":2762:2764   */\n  0x40\n    /* \"#utility.yul\":2755:2777   */\n  mstore\n    /* \"#utility.yul\":2545:2783   */\n  pop\n  pop\n  pop\n  jump\t// out\n    /* \"#utility.yul\":2789:2969   */\ntag_62:\n    /* \"#utility.yul\":2837:2914   */\n  0x4e487b7100000000000000000000000000000000000000000000000000000000\n    /* \"#utility.yul\":2834:2835   */\n  0x00\n    /* \"#utility.yul\":2827:2915   */\n  mstore\n    /* \"#utility.yul\":2934:2938   */\n  0x22\n    /* \"#utility.yul\":2931:2932   */\n  0x04\n    /* \"#utility.yul\":2924:2939   */\n  mstore\n    /* \"#utility.yul\":2958:2962   */\n  0x24\n    /* \"#utility.yul\":2955:2956   */\n  0x00\n    /* \"#utility.yul\":2948:2963   */\n  revert\n    /* \"#utility.yul\":2975:3155   */\ntag_50:\n    /* \"#utility.yul\":3023:3100   */\n  0x4e487b7100000000000000000000000000000000000000000000000000000000\n    /* \"#utility.yul\":3020:3021   */\n  0x00\n    /* \"#utility.yul\":3013:3101   */\n  mstore\n    /* \"#utility.yul\":3120:3124   */\n  0x41\n    /* \"#utility.yul\":3117:3118   */\n  0x04\n    /* \"#utility.yul\":3110:3125   */\n  mstore\n    /* \"#utility.yul\":3144:3148   */\n  0x24\n    /* \"#utility.yul\":3141:3142   */\n  0x00\n    /* \"#utility.yul\":3134:3149   */\n  revert\n    /* \"#utility.yul\":3161:3263   */\ntag_52:\n    /* \"#utility.yul\":3202:3208   */\n  0x00\n    /* \"#utility.yul\":3253:3255   */\n  0x1f\n    /* \"#utility.yul\":3249:3256   */\n  not\n    /* \"#utility.yul\":3244:3246   */\n  0x1f\n    /* \"#utility.yul\":3237:3242   */\n  dup4\n    /* \"#utility.yul\":3233:3247   */\n  add\n    /* \"#utility.yul\":3229:3257   */\n  and\n    /* \"#utility.yul\":3219:3257   */\n  swap1\n  pop\n    /* \"#utility.yul\":3209:3263   */\n  swap2\n  swap1\n  pop\n  jump\t// out\n    /* \"contracts/nft.sol\":677:10897  contract nft is Context, ERC165, IERC721, IERC721Metadata {\r... */\ntag_9:\n  dataSize(sub_0)\n  dup1\n  dataOffset(sub_0)\n  0x00\n  codecopy\n  0x00\n  return\nstop\n\nsub_0: assembly {\n        /* \"contracts/nft.sol\":677:10897  contract nft is Context, ERC165, IERC721, IERC721Metadata {\r... */\n      mstore(0x40, 0x80)\n      callvalue\n      dup1\n      iszero\n      tag_1\n      jumpi\n      0x00\n      dup1\n      revert\n    tag_1:\n      pop\n      jumpi(tag_2, lt(calldatasize, 0x04))\n      shr(0xe0, calldataload(0x00))\n      dup1\n      0x6352211e\n      gt\n      tag_19\n      jumpi\n      dup1\n      0xb88d4fde\n      gt\n      tag_20\n      jumpi\n      dup1\n      0xb88d4fde\n      eq\n      tag_15\n      jumpi\n      dup1\n      0xc87b56dd\n      eq\n      tag_16\n      jumpi\n      dup1\n      0xe985e9c5\n      eq\n      tag_17\n      jumpi\n      dup1\n      0xee48cda2\n      eq\n      tag_18\n      jumpi\n      jump(tag_2)\n    tag_20:\n      dup1\n      0x6352211e\n      eq\n      tag_11\n      jumpi\n      dup1\n      0x70a08231\n      eq\n      tag_12\n      jumpi\n      dup1\n      0x95d89b41\n      eq\n      tag_13\n      jumpi\n      dup1\n      0xa22cb465\n      eq\n      tag_14\n      jumpi\n      jump(tag_2)\n    tag_19:\n      dup1\n      0x23b872dd\n      gt\n      tag_21\n      jumpi\n      dup1\n      0x23b872dd\n      eq\n      tag_7\n      jumpi\n      dup1\n      0x381568d8\n      eq\n      tag_8\n      jumpi\n      dup1\n      0x42842e0e\n      eq\n      tag_9\n      jumpi\n      dup1\n      0x52e04825\n      eq\n      tag_10\n      jumpi\n      jump(tag_2)\n    tag_21:\n      dup1\n      0x01ffc9a7\n      eq\n      tag_3\n      jumpi\n      dup1\n      0x06fdde03\n      eq\n      tag_4\n      jumpi\n      dup1\n      0x081812fc\n      eq\n      tag_5\n      jumpi\n      dup1\n      0x095ea7b3\n      eq\n      tag_6\n      jumpi\n    tag_2:\n      0x00\n      dup1\n      revert\n        /* \"contracts/nft.sol\":1575:1880  function supportsInterface(bytes4 interfaceId) public view virtual override(ERC165, IERC165) returns (bool) {\r... */\n    tag_3:\n      tag_22\n      0x04\n      dup1\n      calldatasize\n      sub\n      dup2\n      add\n      swap1\n      tag_23\n      swap2\n      swap1\n      tag_24\n      jump\t// in\n    tag_23:\n      tag_25\n      jump\t// in\n    tag_22:\n      mload(0x40)\n      tag_26\n      swap2\n      swap1\n      tag_27\n      jump\t// in\n    tag_26:\n      mload(0x40)\n      dup1\n      swap2\n      sub\n      swap1\n      return\n        /* \"contracts/nft.sol\":2778:2878  function name() public view virtual override returns (string memory) {\r... */\n    tag_4:\n      tag_28\n      tag_29\n      jump\t// in\n    tag_28:\n      mload(0x40)\n      tag_30\n      swap2\n      swap1\n      tag_31\n      jump\t// in\n    tag_30:\n      mload(0x40)\n      dup1\n      swap2\n      sub\n      swap1\n      return\n        /* \"contracts/nft.sol\":3814:3985  function getApproved(uint256 tokenId) public view virtual override returns (address) {\r... */\n    tag_5:\n      tag_32\n      0x04\n      dup1\n      calldatasize\n      sub\n      dup2\n      add\n      swap1\n      tag_33\n      swap2\n      swap1\n      tag_34\n      jump\t// in\n    tag_33:\n      tag_35\n      jump\t// in\n    tag_32:\n      mload(0x40)\n      tag_36\n      swap2\n      swap1\n      tag_37\n      jump\t// in\n    tag_36:\n      mload(0x40)\n      dup1\n      swap2\n      sub\n      swap1\n      return\n        /* \"contracts/nft.sol\":3390:3803  function approve(address to, uint256 tokenId) public virtual override {\r... */\n    tag_6:\n      tag_38\n      0x04\n      dup1\n      calldatasize\n      sub\n      dup2\n      add\n      swap1\n      tag_39\n      swap2\n      swap1\n      tag_40\n      jump\t// in\n    tag_39:\n      tag_41\n      jump\t// in\n    tag_38:\n      stop\n        /* \"contracts/nft.sol\":4336:4618  function transferFrom(\r... */\n    tag_7:\n      tag_42\n      0x04\n      dup1\n      calldatasize\n      sub\n      dup2\n      add\n      swap1\n      tag_43\n      swap2\n      swap1\n      tag_44\n      jump\t// in\n    tag_43:\n      tag_45\n      jump\t// in\n    tag_42:\n      stop\n        /* \"contracts/nft.sol\":5154:5508  function mint(address to,address[] memory collaborator,uint256[] memory collaboratorPercent,string memory uri) public returns(uint256){\r... */\n    tag_8:\n      tag_46\n      0x04\n      dup1\n      calldatasize\n      sub\n      dup2\n      add\n      swap1\n      tag_47\n      swap2\n      swap1\n      tag_48\n      jump\t// in\n    tag_47:\n      tag_49\n      jump\t// in\n    tag_46:\n      mload(0x40)\n      tag_50\n      swap2\n      swap1\n      tag_51\n      jump\t// in\n    tag_50:\n      mload(0x40)\n      dup1\n      swap2\n      sub\n      swap1\n      return\n        /* \"contracts/nft.sol\":4628:4813  function safeTransferFrom(\r... */\n    tag_9:\n      tag_52\n      0x04\n      dup1\n      calldatasize\n      sub\n      dup2\n      add\n      swap1\n      tag_53\n      swap2\n      swap1\n      tag_44\n      jump\t// in\n    tag_53:\n      tag_54\n      jump\t// in\n    tag_52:\n      stop\n        /* \"contracts/nft.sol\":2338:2530  function collaboratotOf(uint256 tokenId) public view virtual returns (address[] memory) {\r... */\n    tag_10:\n      tag_55\n      0x04\n      dup1\n      calldatasize\n      sub\n      dup2\n      add\n      swap1\n      tag_56\n      swap2\n      swap1\n      tag_34\n      jump\t// in\n    tag_56:\n      tag_57\n      jump\t// in\n    tag_55:\n      mload(0x40)\n      tag_58\n      swap2\n      swap1\n      tag_59\n      jump\t// in\n    tag_58:\n      mload(0x40)\n      dup1\n      swap2\n      sub\n      swap1\n      return\n        /* \"contracts/nft.sol\":2107:2329  function ownerOf(uint256 tokenId) public view virtual override returns (address) {\r... */\n    tag_11:\n      tag_60\n      0x04\n      dup1\n      calldatasize\n      sub\n      dup2\n      add\n      swap1\n      tag_61\n      swap2\n      swap1\n      tag_34\n      jump\t// in\n    tag_61:\n      tag_62\n      jump\t// in\n    tag_60:\n      mload(0x40)\n      tag_63\n      swap2\n      swap1\n      tag_37\n      jump\t// in\n    tag_63:\n      mload(0x40)\n      dup1\n      swap2\n      sub\n      swap1\n      return\n        /* \"contracts/nft.sol\":1890:2097  function balanceOf(address owner) public view virtual override returns (uint256) {\r... */\n    tag_12:\n      tag_64\n      0x04\n      dup1\n      calldatasize\n      sub\n      dup2\n      add\n      swap1\n      tag_65\n      swap2\n      swap1\n      tag_66\n      jump\t// in\n    tag_65:\n      tag_67\n      jump\t// in\n    tag_64:\n      mload(0x40)\n      tag_68\n      swap2\n      swap1\n      tag_51\n      jump\t// in\n    tag_68:\n      mload(0x40)\n      dup1\n      swap2\n      sub\n      swap1\n      return\n        /* \"contracts/nft.sol\":2887:2991  function symbol() public view virtual override returns (string memory) {\r... */\n    tag_13:\n      tag_69\n      tag_70\n      jump\t// in\n    tag_69:\n      mload(0x40)\n      tag_71\n      swap2\n      swap1\n      tag_31\n      jump\t// in\n    tag_71:\n      mload(0x40)\n      dup1\n      swap2\n      sub\n      swap1\n      return\n        /* \"contracts/nft.sol\":3997:4152  function setApprovalForAll(address operator, bool approved) public virtual override {\r... */\n    tag_14:\n      tag_72\n      0x04\n      dup1\n      calldatasize\n      sub\n      dup2\n      add\n      swap1\n      tag_73\n      swap2\n      swap1\n      tag_74\n      jump\t// in\n    tag_73:\n      tag_75\n      jump\t// in\n    tag_72:\n      stop\n        /* \"contracts/nft.sol\":4823:5145  function safeTransferFrom(\r... */\n    tag_15:\n      tag_76\n      0x04\n      dup1\n      calldatasize\n      sub\n      dup2\n      add\n      swap1\n      tag_77\n      swap2\n      swap1\n      tag_78\n      jump\t// in\n    tag_77:\n      tag_79\n      jump\t// in\n    tag_76:\n      stop\n        /* \"contracts/nft.sol\":2999:3280  function tokenURI(uint256 tokenId) public view virtual override returns (string memory) {\r... */\n    tag_16:\n      tag_80\n      0x04\n      dup1\n      calldatasize\n      sub\n      dup2\n      add\n      swap1\n      tag_81\n      swap2\n      swap1\n      tag_34\n      jump\t// in\n    tag_81:\n      tag_82\n      jump\t// in\n    tag_80:\n      mload(0x40)\n      tag_83\n      swap2\n      swap1\n      tag_31\n      jump\t// in\n    tag_83:\n      mload(0x40)\n      dup1\n      swap2\n      sub\n      swap1\n      return\n        /* \"contracts/nft.sol\":4162:4326  function isApprovedForAll(address owner, address operator) public view virtual override returns (bool) {\r... */\n    tag_17:\n      tag_84\n      0x04\n      dup1\n      calldatasize\n      sub\n      dup2\n      add\n      swap1\n      tag_85\n      swap2\n      swap1\n      tag_86\n      jump\t// in\n    tag_85:\n      tag_87\n      jump\t// in\n    tag_84:\n      mload(0x40)\n      tag_88\n      swap2\n      swap1\n      tag_27\n      jump\t// in\n    tag_88:\n      mload(0x40)\n      dup1\n      swap2\n      sub\n      swap1\n      return\n        /* \"contracts/nft.sol\":2538:2770  function collaboratotPercentageOf(uint256 tokenId) public view virtual returns (uint256[] memory) {\r... */\n    tag_18:\n      tag_89\n      0x04\n      dup1\n      calldatasize\n      sub\n      dup2\n      add\n      swap1\n      tag_90\n      swap2\n      swap1\n      tag_34\n      jump\t// in\n    tag_90:\n      tag_91\n      jump\t// in\n    tag_89:\n      mload(0x40)\n      tag_92\n      swap2\n      swap1\n      tag_93\n      jump\t// in\n    tag_92:\n      mload(0x40)\n      dup1\n      swap2\n      sub\n      swap1\n      return\n        /* \"contracts/nft.sol\":1575:1880  function supportsInterface(bytes4 interfaceId) public view virtual override(ERC165, IERC165) returns (bool) {\r... */\n    tag_25:\n        /* \"contracts/nft.sol\":1677:1681  bool */\n      0x00\n        /* \"contracts/nft.sol\":1729:1754  type(IERC721).interfaceId */\n      0x80ac58cd00000000000000000000000000000000000000000000000000000000\n        /* \"contracts/nft.sol\":1714:1754  interfaceId == type(IERC721).interfaceId */\n      not(0xffffffffffffffffffffffffffffffffffffffffffffffffffffffff)\n      and\n        /* \"contracts/nft.sol\":1714:1725  interfaceId */\n      dup3\n        /* \"contracts/nft.sol\":1714:1754  interfaceId == type(IERC721).interfaceId */\n      not(0xffffffffffffffffffffffffffffffffffffffffffffffffffffffff)\n      and\n      eq\n        /* \"contracts/nft.sol\":1714:1819  interfaceId == type(IERC721).interfaceId ||\r... */\n      dup1\n      tag_95\n      jumpi\n      pop\n        /* \"contracts/nft.sol\":1786:1819  type(IERC721Metadata).interfaceId */\n      0x5b5e139f00000000000000000000000000000000000000000000000000000000\n        /* \"contracts/nft.sol\":1771:1819  interfaceId == type(IERC721Metadata).interfaceId */\n      not(0xffffffffffffffffffffffffffffffffffffffffffffffffffffffff)\n      and\n        /* \"contracts/nft.sol\":1771:1782  interfaceId */\n      dup3\n        /* \"contracts/nft.sol\":1771:1819  interfaceId == type(IERC721Metadata).interfaceId */\n      not(0xffffffffffffffffffffffffffffffffffffffffffffffffffffffff)\n      and\n      eq\n        /* \"contracts/nft.sol\":1714:1819  interfaceId == type(IERC721).interfaceId ||\r... */\n    tag_95:\n        /* \"contracts/nft.sol\":1714:1872  interfaceId == type(IERC721).interfaceId ||\r... */\n      dup1\n      tag_96\n      jumpi\n      pop\n        /* \"contracts/nft.sol\":1836:1872  super.supportsInterface(interfaceId) */\n      tag_97\n        /* \"contracts/nft.sol\":1860:1871  interfaceId */\n      dup3\n        /* \"contracts/nft.sol\":1836:1859  super.supportsInterface */\n      tag_98\n        /* \"contracts/nft.sol\":1836:1872  super.supportsInterface(interfaceId) */\n      jump\t// in\n    tag_97:\n        /* \"contracts/nft.sol\":1714:1872  interfaceId == type(IERC721).interfaceId ||\r... */\n    tag_96:\n        /* \"contracts/nft.sol\":1694:1872  return\r... */\n      swap1\n      pop\n        /* \"contracts/nft.sol\":1575:1880  function supportsInterface(bytes4 interfaceId) public view virtual override(ERC165, IERC165) returns (bool) {\r... */\n      swap2\n      swap1\n      pop\n      jump\t// out\n        /* \"contracts/nft.sol\":2778:2878  function name() public view virtual override returns (string memory) {\r... */\n    tag_29:\n        /* \"contracts/nft.sol\":2832:2845  string memory */\n      0x60\n        /* \"contracts/nft.sol\":2865:2870  _name */\n      0x01\n        /* \"contracts/nft.sol\":2858:2870  return _name */\n      dup1\n      sload\n      tag_100\n      swap1\n      tag_101\n      jump\t// in\n    tag_100:\n      dup1\n      0x1f\n      add\n      0x20\n      dup1\n      swap2\n      div\n      mul\n      0x20\n      add\n      mload(0x40)\n      swap1\n      dup2\n      add\n      0x40\n      mstore\n      dup1\n      swap3\n      swap2\n      swap1\n      dup2\n      dup2\n      mstore\n      0x20\n      add\n      dup3\n      dup1\n      sload\n      tag_102\n      swap1\n      tag_101\n      jump\t// in\n    tag_102:\n      dup1\n      iszero\n      tag_103\n      jumpi\n      dup1\n      0x1f\n      lt\n      tag_104\n      jumpi\n      0x0100\n      dup1\n      dup4\n      sload\n      div\n      mul\n      dup4\n      mstore\n      swap2\n      0x20\n      add\n      swap2\n      jump(tag_103)\n    tag_104:\n      dup3\n      add\n      swap2\n      swap1\n      0x00\n      mstore\n      keccak256(0x00, 0x20)\n      swap1\n    tag_105:\n      dup2\n      sload\n      dup2\n      mstore\n      swap1\n      0x01\n      add\n      swap1\n      0x20\n      add\n      dup1\n      dup4\n      gt\n      tag_105\n      jumpi\n      dup3\n      swap1\n      sub\n      0x1f\n      and\n      dup3\n      add\n      swap2\n    tag_103:\n      pop\n      pop\n      pop\n      pop\n      pop\n      swap1\n      pop\n        /* \"contracts/nft.sol\":2778:2878  function name() public view virtual override returns (string memory) {\r... */\n      swap1\n      jump\t// out\n        /* \"contracts/nft.sol\":3814:3985  function getApproved(uint256 tokenId) public view virtual override returns (address) {\r... */\n    tag_35:\n        /* \"contracts/nft.sol\":3890:3897  address */\n      0x00\n        /* \"contracts/nft.sol\":3910:3933  _requireMinted(tokenId) */\n      tag_107\n        /* \"contracts/nft.sol\":3925:3932  tokenId */\n      dup3\n        /* \"contracts/nft.sol\":3910:3924  _requireMinted */\n      tag_108\n        /* \"contracts/nft.sol\":3910:3933  _requireMinted(tokenId) */\n      jump\t// in\n    tag_107:\n        /* \"contracts/nft.sol\":3953:3968  _tokenApprovals */\n      0x07\n        /* \"contracts/nft.sol\":3953:3977  _tokenApprovals[tokenId] */\n      0x00\n        /* \"contracts/nft.sol\":3969:3976  tokenId */\n      dup4\n        /* \"contracts/nft.sol\":3953:3977  _tokenApprovals[tokenId] */\n      dup2\n      mstore\n      0x20\n      add\n      swap1\n      dup2\n      mstore\n      0x20\n      add\n      0x00\n      keccak256\n      0x00\n      swap1\n      sload\n      swap1\n      0x0100\n      exp\n      swap1\n      div\n      0xffffffffffffffffffffffffffffffffffffffff\n      and\n        /* \"contracts/nft.sol\":3946:3977  return _tokenApprovals[tokenId] */\n      swap1\n      pop\n        /* \"contracts/nft.sol\":3814:3985  function getApproved(uint256 tokenId) public view virtual override returns (address) {\r... */\n      swap2\n      swap1\n      pop\n      jump\t// out\n        /* \"contracts/nft.sol\":3390:3803  function approve(address to, uint256 tokenId) public virtual override {\r... */\n    tag_41:\n        /* \"contracts/nft.sol\":3471:3484  address owner */\n      0x00\n        /* \"contracts/nft.sol\":3487:3507  nft.ownerOf(tokenId) */\n      tag_110\n        /* \"contracts/nft.sol\":3499:3506  tokenId */\n      dup3\n        /* \"contracts/nft.sol\":3487:3498  nft.ownerOf */\n      tag_62\n        /* \"contracts/nft.sol\":3487:3507  nft.ownerOf(tokenId) */\n      jump\t// in\n    tag_110:\n        /* \"contracts/nft.sol\":3471:3507  address owner = nft.ownerOf(tokenId) */\n      swap1\n      pop\n        /* \"contracts/nft.sol\":3532:3537  owner */\n      dup1\n        /* \"contracts/nft.sol\":3526:3537  to != owner */\n      0xffffffffffffffffffffffffffffffffffffffff\n      and\n        /* \"contracts/nft.sol\":3526:3528  to */\n      dup4\n        /* \"contracts/nft.sol\":3526:3537  to != owner */\n      0xffffffffffffffffffffffffffffffffffffffff\n      and\n      eq\n      iszero\n        /* \"contracts/nft.sol\":3518:3575  require(to != owner, \"ERC721: approval to current owner\") */\n      tag_111\n      jumpi\n      mload(0x40)\n      0x08c379a000000000000000000000000000000000000000000000000000000000\n      dup2\n      mstore\n      0x04\n      add\n      tag_112\n      swap1\n      tag_113\n      jump\t// in\n    tag_112:\n      mload(0x40)\n      dup1\n      swap2\n      sub\n      swap1\n      revert\n    tag_111:\n        /* \"contracts/nft.sol\":3626:3631  owner */\n      dup1\n        /* \"contracts/nft.sol\":3610:3631  _msgSender() == owner */\n      0xffffffffffffffffffffffffffffffffffffffff\n      and\n        /* \"contracts/nft.sol\":3610:3622  _msgSender() */\n      tag_114\n        /* \"contracts/nft.sol\":3610:3620  _msgSender */\n      tag_115\n        /* \"contracts/nft.sol\":3610:3622  _msgSender() */\n      jump\t// in\n    tag_114:\n        /* \"contracts/nft.sol\":3610:3631  _msgSender() == owner */\n      0xffffffffffffffffffffffffffffffffffffffff\n      and\n      eq\n        /* \"contracts/nft.sol\":3610:3672  _msgSender() == owner || isApprovedForAll(owner, _msgSender()) */\n      dup1\n      tag_116\n      jumpi\n      pop\n        /* \"contracts/nft.sol\":3635:3672  isApprovedForAll(owner, _msgSender()) */\n      tag_117\n        /* \"contracts/nft.sol\":3652:3657  owner */\n      dup2\n        /* \"contracts/nft.sol\":3659:3671  _msgSender() */\n      tag_118\n        /* \"contracts/nft.sol\":3659:3669  _msgSender */\n      tag_115\n        /* \"contracts/nft.sol\":3659:3671  _msgSender() */\n      jump\t// in\n    tag_118:\n        /* \"contracts/nft.sol\":3635:3651  isApprovedForAll */\n      tag_87\n        /* \"contracts/nft.sol\":3635:3672  isApprovedForAll(owner, _msgSender()) */\n      jump\t// in\n    tag_117:\n        /* \"contracts/nft.sol\":3610:3672  _msgSender() == owner || isApprovedForAll(owner, _msgSender()) */\n    tag_116:\n        /* \"contracts/nft.sol\":3588:3761  require(\r... */\n      tag_119\n      jumpi\n      mload(0x40)\n      0x08c379a000000000000000000000000000000000000000000000000000000000\n      dup2\n      mstore\n      0x04\n      add\n      tag_120\n      swap1\n      tag_121\n      jump\t// in\n    tag_120:\n      mload(0x40)\n      dup1\n      swap2\n      sub\n      swap1\n      revert\n    tag_119:\n        /* \"contracts/nft.sol\":3774:3795  _approve(to, tokenId) */\n      tag_122\n        /* \"contracts/nft.sol\":3783:3785  to */\n      dup4\n        /* \"contracts/nft.sol\":3787:3794  tokenId */\n      dup4\n        /* \"contracts/nft.sol\":3774:3782  _approve */\n      tag_123\n        /* \"contracts/nft.sol\":3774:3795  _approve(to, tokenId) */\n      jump\t// in\n    tag_122:\n        /* \"contracts/nft.sol\":3390:3803  function approve(address to, uint256 tokenId) public virtual override {\r... */\n      pop\n      pop\n      pop\n      jump\t// out\n        /* \"contracts/nft.sol\":4336:4618  function transferFrom(\r... */\n    tag_45:\n        /* \"contracts/nft.sol\":4478:4519  _isApprovedOrOwner(_msgSender(), tokenId) */\n      tag_125\n        /* \"contracts/nft.sol\":4497:4509  _msgSender() */\n      tag_126\n        /* \"contracts/nft.sol\":4497:4507  _msgSender */\n      tag_115\n        /* \"contracts/nft.sol\":4497:4509  _msgSender() */\n      jump\t// in\n    tag_126:\n        /* \"contracts/nft.sol\":4511:4518  tokenId */\n      dup3\n        /* \"contracts/nft.sol\":4478:4496  _isApprovedOrOwner */\n      tag_127\n        /* \"contracts/nft.sol\":4478:4519  _isApprovedOrOwner(_msgSender(), tokenId) */\n      jump\t// in\n    tag_125:\n        /* \"contracts/nft.sol\":4470:4569  require(_isApprovedOrOwner(_msgSender(), tokenId), \"ERC721: caller is not token owner or approved\") */\n      tag_128\n      jumpi\n      mload(0x40)\n      0x08c379a000000000000000000000000000000000000000000000000000000000\n      dup2\n      mstore\n      0x04\n      add\n      tag_129\n      swap1\n      tag_130\n      jump\t// in\n    tag_129:\n      mload(0x40)\n      dup1\n      swap2\n      sub\n      swap1\n      revert\n    tag_128:\n        /* \"contracts/nft.sol\":4582:4610  _transfer(from, to, tokenId) */\n      tag_131\n        /* \"contracts/nft.sol\":4592:4596  from */\n      dup4\n        /* \"contracts/nft.sol\":4598:4600  to */\n      dup4\n        /* \"contracts/nft.sol\":4602:4609  tokenId */\n      dup4\n        /* \"contracts/nft.sol\":4582:4591  _transfer */\n      tag_132\n        /* \"contracts/nft.sol\":4582:4610  _transfer(from, to, tokenId) */\n      jump\t// in\n    tag_131:\n        /* \"contracts/nft.sol\":4336:4618  function transferFrom(\r... */\n      pop\n      pop\n      pop\n      jump\t// out\n        /* \"contracts/nft.sol\":5154:5508  function mint(address to,address[] memory collaborator,uint256[] memory collaboratorPercent,string memory uri) public returns(uint256){\r... */\n    tag_49:\n        /* \"contracts/nft.sol\":5280:5287  uint256 */\n      0x00\n        /* \"contracts/nft.sol\":5301:5322  _tokenIds.increment() */\n      tag_134\n        /* \"contracts/nft.sol\":5301:5310  _tokenIds */\n      0x00\n        /* \"contracts/nft.sol\":5301:5320  _tokenIds.increment */\n      tag_135\n        /* \"contracts/nft.sol\":5301:5322  _tokenIds.increment() */\n      jump\t// in\n    tag_134:\n        /* \"contracts/nft.sol\":5333:5348  uint256 tokenId */\n      0x00\n        /* \"contracts/nft.sol\":5351:5370  _tokenIds.current() */\n      tag_136\n        /* \"contracts/nft.sol\":5351:5360  _tokenIds */\n      0x00\n        /* \"contracts/nft.sol\":5351:5368  _tokenIds.current */\n      tag_137\n        /* \"contracts/nft.sol\":5351:5370  _tokenIds.current() */\n      jump\t// in\n    tag_136:\n        /* \"contracts/nft.sol\":5333:5370  uint256 tokenId = _tokenIds.current() */\n      swap1\n      pop\n        /* \"contracts/nft.sol\":5381:5436  _safeMint(to, collaborator,collaboratorPercent,tokenId) */\n      tag_138\n        /* \"contracts/nft.sol\":5391:5393  to */\n      dup7\n        /* \"contracts/nft.sol\":5395:5407  collaborator */\n      dup7\n        /* \"contracts/nft.sol\":5408:5427  collaboratorPercent */\n      dup7\n        /* \"contracts/nft.sol\":5428:5435  tokenId */\n      dup5\n        /* \"contracts/nft.sol\":5381:5390  _safeMint */\n      tag_139\n        /* \"contracts/nft.sol\":5381:5436  _safeMint(to, collaborator,collaboratorPercent,tokenId) */\n      jump\t// in\n    tag_138:\n        /* \"contracts/nft.sol\":5447:5473  _setTokenURI(tokenId, uri) */\n      tag_140\n        /* \"contracts/nft.sol\":5460:5467  tokenId */\n      dup2\n        /* \"contracts/nft.sol\":5469:5472  uri */\n      dup5\n        /* \"contracts/nft.sol\":5447:5459  _setTokenURI */\n      tag_141\n        /* \"contracts/nft.sol\":5447:5473  _setTokenURI(tokenId, uri) */\n      jump\t// in\n    tag_140:\n        /* \"contracts/nft.sol\":5493:5500  tokenId */\n      dup1\n        /* \"contracts/nft.sol\":5486:5500  return tokenId */\n      swap2\n      pop\n      pop\n        /* \"contracts/nft.sol\":5154:5508  function mint(address to,address[] memory collaborator,uint256[] memory collaboratorPercent,string memory uri) public returns(uint256){\r... */\n      swap5\n      swap4\n      pop\n      pop\n      pop\n      pop\n      jump\t// out\n        /* \"contracts/nft.sol\":4628:4813  function safeTransferFrom(\r... */\n    tag_54:\n        /* \"contracts/nft.sol\":4766:4805  safeTransferFrom(from, to, tokenId, \"\") */\n      tag_143\n        /* \"contracts/nft.sol\":4783:4787  from */\n      dup4\n        /* \"contracts/nft.sol\":4789:4791  to */\n      dup4\n        /* \"contracts/nft.sol\":4793:4800  tokenId */\n      dup4\n        /* \"contracts/nft.sol\":4766:4805  safeTransferFrom(from, to, tokenId, \"\") */\n      mload(0x40)\n      dup1\n      0x20\n      add\n      0x40\n      mstore\n      dup1\n      0x00\n      dup2\n      mstore\n      pop\n        /* \"contracts/nft.sol\":4766:4782  safeTransferFrom */\n      tag_79\n        /* \"contracts/nft.sol\":4766:4805  safeTransferFrom(from, to, tokenId, \"\") */\n      jump\t// in\n    tag_143:\n        /* \"contracts/nft.sol\":4628:4813  function safeTransferFrom(\r... */\n      pop\n      pop\n      pop\n      jump\t// out\n        /* \"contracts/nft.sol\":2338:2530  function collaboratotOf(uint256 tokenId) public view virtual returns (address[] memory) {\r... */\n    tag_57:\n        /* \"contracts/nft.sol\":2408:2424  address[] memory */\n      0x60\n        /* \"contracts/nft.sol\":2437:2466  address[] memory collaborator */\n      0x00\n        /* \"contracts/nft.sol\":2469:2483  _collaborators */\n      0x04\n        /* \"contracts/nft.sol\":2469:2492  _collaborators[tokenId] */\n      0x00\n        /* \"contracts/nft.sol\":2484:2491  tokenId */\n      dup5\n        /* \"contracts/nft.sol\":2469:2492  _collaborators[tokenId] */\n      dup2\n      mstore\n      0x20\n      add\n      swap1\n      dup2\n      mstore\n      0x20\n      add\n      0x00\n      keccak256\n        /* \"contracts/nft.sol\":2437:2492  address[] memory collaborator = _collaborators[tokenId] */\n      dup1\n      sload\n      dup1\n      0x20\n      mul\n      0x20\n      add\n      mload(0x40)\n      swap1\n      dup2\n      add\n      0x40\n      mstore\n      dup1\n      swap3\n      swap2\n      swap1\n      dup2\n      dup2\n      mstore\n      0x20\n      add\n      dup3\n      dup1\n      sload\n      dup1\n      iszero\n      tag_145\n      jumpi\n      0x20\n      mul\n      dup3\n      add\n      swap2\n      swap1\n      0x00\n      mstore\n      keccak256(0x00, 0x20)\n      swap1\n    tag_146:\n      dup2\n      0x00\n      swap1\n      sload\n      swap1\n      0x0100\n      exp\n      swap1\n      div\n      0xffffffffffffffffffffffffffffffffffffffff\n      and\n      0xffffffffffffffffffffffffffffffffffffffff\n      and\n      dup2\n      mstore\n      0x20\n      add\n      swap1\n      0x01\n      add\n      swap1\n      dup1\n      dup4\n      gt\n      tag_146\n      jumpi\n    tag_145:\n      pop\n      pop\n      pop\n      pop\n      pop\n      swap1\n      pop\n        /* \"contracts/nft.sol\":2510:2522  collaborator */\n      dup1\n        /* \"contracts/nft.sol\":2503:2522  return collaborator */\n      swap2\n      pop\n      pop\n        /* \"contracts/nft.sol\":2338:2530  function collaboratotOf(uint256 tokenId) public view virtual returns (address[] memory) {\r... */\n      swap2\n      swap1\n      pop\n      jump\t// out\n        /* \"contracts/nft.sol\":2107:2329  function ownerOf(uint256 tokenId) public view virtual override returns (address) {\r... */\n    tag_62:\n        /* \"contracts/nft.sol\":2179:2186  address */\n      0x00\n        /* \"contracts/nft.sol\":2199:2212  address owner */\n      dup1\n        /* \"contracts/nft.sol\":2215:2222  _owners */\n      0x03\n        /* \"contracts/nft.sol\":2215:2231  _owners[tokenId] */\n      0x00\n        /* \"contracts/nft.sol\":2223:2230  tokenId */\n      dup5\n        /* \"contracts/nft.sol\":2215:2231  _owners[tokenId] */\n      dup2\n      mstore\n      0x20\n      add\n      swap1\n      dup2\n      mstore\n      0x20\n      add\n      0x00\n      keccak256\n      0x00\n      swap1\n      sload\n      swap1\n      0x0100\n      exp\n      swap1\n      div\n      0xffffffffffffffffffffffffffffffffffffffff\n      and\n        /* \"contracts/nft.sol\":2199:2231  address owner = _owners[tokenId] */\n      swap1\n      pop\n        /* \"contracts/nft.sol\":2267:2268  0 */\n      0x00\n        /* \"contracts/nft.sol\":2250:2269  owner != address(0) */\n      0xffffffffffffffffffffffffffffffffffffffff\n      and\n        /* \"contracts/nft.sol\":2250:2255  owner */\n      dup2\n        /* \"contracts/nft.sol\":2250:2269  owner != address(0) */\n      0xffffffffffffffffffffffffffffffffffffffff\n      and\n      eq\n      iszero\n        /* \"contracts/nft.sol\":2242:2298  require(owner != address(0), \"ERC721: invalid token ID\") */\n      tag_148\n      jumpi\n      mload(0x40)\n      0x08c379a000000000000000000000000000000000000000000000000000000000\n      dup2\n      mstore\n      0x04\n      add\n      tag_149\n      swap1\n      tag_150\n      jump\t// in\n    tag_149:\n      mload(0x40)\n      dup1\n      swap2\n      sub\n      swap1\n      revert\n    tag_148:\n        /* \"contracts/nft.sol\":2316:2321  owner */\n      dup1\n        /* \"contracts/nft.sol\":2309:2321  return owner */\n      swap2\n      pop\n      pop\n        /* \"contracts/nft.sol\":2107:2329  function ownerOf(uint256 tokenId) public view virtual override returns (address) {\r... */\n      swap2\n      swap1\n      pop\n      jump\t// out\n        /* \"contracts/nft.sol\":1890:2097  function balanceOf(address owner) public view virtual override returns (uint256) {\r... */\n    tag_67:\n        /* \"contracts/nft.sol\":1962:1969  uint256 */\n      0x00\n        /* \"contracts/nft.sol\":2007:2008  0 */\n      dup1\n        /* \"contracts/nft.sol\":1990:2009  owner != address(0) */\n      0xffffffffffffffffffffffffffffffffffffffff\n      and\n        /* \"contracts/nft.sol\":1990:1995  owner */\n      dup3\n        /* \"contracts/nft.sol\":1990:2009  owner != address(0) */\n      0xffffffffffffffffffffffffffffffffffffffff\n      and\n      eq\n      iszero\n        /* \"contracts/nft.sol\":1982:2055  require(owner != address(0), \"ERC721: address zero is not a valid owner\") */\n      tag_152\n      jumpi\n      mload(0x40)\n      0x08c379a000000000000000000000000000000000000000000000000000000000\n      dup2\n      mstore\n      0x04\n      add\n      tag_153\n      swap1\n      tag_154\n      jump\t// in\n    tag_153:\n      mload(0x40)\n      dup1\n      swap2\n      sub\n      swap1\n      revert\n    tag_152:\n        /* \"contracts/nft.sol\":2073:2082  _balances */\n      0x06\n        /* \"contracts/nft.sol\":2073:2089  _balances[owner] */\n      0x00\n        /* \"contracts/nft.sol\":2083:2088  owner */\n      dup4\n        /* \"contracts/nft.sol\":2073:2089  _balances[owner] */\n      0xffffffffffffffffffffffffffffffffffffffff\n      and\n      0xffffffffffffffffffffffffffffffffffffffff\n      and\n      dup2\n      mstore\n      0x20\n      add\n      swap1\n      dup2\n      mstore\n      0x20\n      add\n      0x00\n      keccak256\n      sload\n        /* \"contracts/nft.sol\":2066:2089  return _balances[owner] */\n      swap1\n      pop\n        /* \"contracts/nft.sol\":1890:2097  function balanceOf(address owner) public view virtual override returns (uint256) {\r... */\n      swap2\n      swap1\n      pop\n      jump\t// out\n        /* \"contracts/nft.sol\":2887:2991  function symbol() public view virtual override returns (string memory) {\r... */\n    tag_70:\n        /* \"contracts/nft.sol\":2943:2956  string memory */\n      0x60\n        /* \"contracts/nft.sol\":2976:2983  _symbol */\n      0x02\n        /* \"contracts/nft.sol\":2969:2983  return _symbol */\n      dup1\n      sload\n      tag_156\n      swap1\n      tag_101\n      jump\t// in\n    tag_156:\n      dup1\n      0x1f\n      add\n      0x20\n      dup1\n      swap2\n      div\n      mul\n      0x20\n      add\n      mload(0x40)\n      swap1\n      dup2\n      add\n      0x40\n      mstore\n      dup1\n      swap3\n      swap2\n      swap1\n      dup2\n      dup2\n      mstore\n      0x20\n      add\n      dup3\n      dup1\n      sload\n      tag_157\n      swap1\n      tag_101\n      jump\t// in\n    tag_157:\n      dup1\n      iszero\n      tag_158\n      jumpi\n      dup1\n      0x1f\n      lt\n      tag_159\n      jumpi\n      0x0100\n      dup1\n      dup4\n      sload\n      div\n      mul\n      dup4\n      mstore\n      swap2\n      0x20\n      add\n      swap2\n      jump(tag_158)\n    tag_159:\n      dup3\n      add\n      swap2\n      swap1\n      0x00\n      mstore\n      keccak256(0x00, 0x20)\n      swap1\n    tag_160:\n      dup2\n      sload\n      dup2\n      mstore\n      swap1\n      0x01\n      add\n      swap1\n      0x20\n      add\n      dup1\n      dup4\n      gt\n      tag_160\n      jumpi\n      dup3\n      swap1\n      sub\n      0x1f\n      and\n      dup3\n      add\n      swap2\n    tag_158:\n      pop\n      pop\n      pop\n      pop\n      pop\n      swap1\n      pop\n        /* \"contracts/nft.sol\":2887:2991  function symbol() public view virtual override returns (string memory) {\r... */\n      swap1\n      jump\t// out\n        /* \"contracts/nft.sol\":3997:4152  function setApprovalForAll(address operator, bool approved) public virtual override {\r... */\n    tag_75:\n        /* \"contracts/nft.sol\":4092:4144  _setApprovalForAll(_msgSender(), operator, approved) */\n      tag_162\n        /* \"contracts/nft.sol\":4111:4123  _msgSender() */\n      tag_163\n        /* \"contracts/nft.sol\":4111:4121  _msgSender */\n      tag_115\n        /* \"contracts/nft.sol\":4111:4123  _msgSender() */\n      jump\t// in\n    tag_163:\n        /* \"contracts/nft.sol\":4125:4133  operator */\n      dup4\n        /* \"contracts/nft.sol\":4135:4143  approved */\n      dup4\n        /* \"contracts/nft.sol\":4092:4110  _setApprovalForAll */\n      tag_164\n        /* \"contracts/nft.sol\":4092:4144  _setApprovalForAll(_msgSender(), operator, approved) */\n      jump\t// in\n    tag_162:\n        /* \"contracts/nft.sol\":3997:4152  function setApprovalForAll(address operator, bool approved) public virtual override {\r... */\n      pop\n      pop\n      jump\t// out\n        /* \"contracts/nft.sol\":4823:5145  function safeTransferFrom(\r... */\n    tag_79:\n        /* \"contracts/nft.sol\":4997:5038  _isApprovedOrOwner(_msgSender(), tokenId) */\n      tag_166\n        /* \"contracts/nft.sol\":5016:5028  _msgSender() */\n      tag_167\n        /* \"contracts/nft.sol\":5016:5026  _msgSender */\n      tag_115\n        /* \"contracts/nft.sol\":5016:5028  _msgSender() */\n      jump\t// in\n    tag_167:\n        /* \"contracts/nft.sol\":5030:5037  tokenId */\n      dup4\n        /* \"contracts/nft.sol\":4997:5015  _isApprovedOrOwner */\n      tag_127\n        /* \"contracts/nft.sol\":4997:5038  _isApprovedOrOwner(_msgSender(), tokenId) */\n      jump\t// in\n    tag_166:\n        /* \"contracts/nft.sol\":4989:5088  require(_isApprovedOrOwner(_msgSender(), tokenId), \"ERC721: caller is not token owner or approved\") */\n      tag_168\n      jumpi\n      mload(0x40)\n      0x08c379a000000000000000000000000000000000000000000000000000000000\n      dup2\n      mstore\n      0x04\n      add\n      tag_169\n      swap1\n      tag_130\n      jump\t// in\n    tag_169:\n      mload(0x40)\n      dup1\n      swap2\n      sub\n      swap1\n      revert\n    tag_168:\n        /* \"contracts/nft.sol\":5099:5137  _safeTransfer(from, to, tokenId, data) */\n      tag_170\n        /* \"contracts/nft.sol\":5113:5117  from */\n      dup5\n        /* \"contracts/nft.sol\":5119:5121  to */\n      dup5\n        /* \"contracts/nft.sol\":5123:5130  tokenId */\n      dup5\n        /* \"contracts/nft.sol\":5132:5136  data */\n      dup5\n        /* \"contracts/nft.sol\":5099:5112  _safeTransfer */\n      tag_171\n        /* \"contracts/nft.sol\":5099:5137  _safeTransfer(from, to, tokenId, data) */\n      jump\t// in\n    tag_170:\n        /* \"contracts/nft.sol\":4823:5145  function safeTransferFrom(\r... */\n      pop\n      pop\n      pop\n      pop\n      jump\t// out\n        /* \"contracts/nft.sol\":2999:3280  function tokenURI(uint256 tokenId) public view virtual override returns (string memory) {\r... */\n    tag_82:\n        /* \"contracts/nft.sol\":3072:3085  string memory */\n      0x60\n        /* \"contracts/nft.sol\":3098:3121  _requireMinted(tokenId) */\n      tag_173\n        /* \"contracts/nft.sol\":3113:3120  tokenId */\n      dup3\n        /* \"contracts/nft.sol\":3098:3112  _requireMinted */\n      tag_108\n        /* \"contracts/nft.sol\":3098:3121  _requireMinted(tokenId) */\n      jump\t// in\n    tag_173:\n        /* \"contracts/nft.sol\":3134:3155  string memory baseURI */\n      0x00\n        /* \"contracts/nft.sol\":3158:3168  _baseURI() */\n      tag_174\n        /* \"contracts/nft.sol\":3158:3166  _baseURI */\n      tag_175\n        /* \"contracts/nft.sol\":3158:3168  _baseURI() */\n      jump\t// in\n    tag_174:\n        /* \"contracts/nft.sol\":3134:3168  string memory baseURI = _baseURI() */\n      swap1\n      pop\n        /* \"contracts/nft.sol\":3210:3211  0 */\n      0x00\n        /* \"contracts/nft.sol\":3192:3199  baseURI */\n      dup2\n        /* \"contracts/nft.sol\":3186:3207  bytes(baseURI).length */\n      mload\n        /* \"contracts/nft.sol\":3186:3211  bytes(baseURI).length > 0 */\n      gt\n        /* \"contracts/nft.sol\":3186:3272  bytes(baseURI).length > 0 ? string(abi.encodePacked(baseURI, tokenId.toString())) : \"\" */\n      tag_176\n      jumpi\n      mload(0x40)\n      dup1\n      0x20\n      add\n      0x40\n      mstore\n      dup1\n      0x00\n      dup2\n      mstore\n      pop\n      jump(tag_177)\n    tag_176:\n        /* \"contracts/nft.sol\":3238:3245  baseURI */\n      dup1\n        /* \"contracts/nft.sol\":3247:3265  tokenId.toString() */\n      tag_178\n        /* \"contracts/nft.sol\":3247:3254  tokenId */\n      dup5\n        /* \"contracts/nft.sol\":3247:3263  tokenId.toString */\n      tag_179\n        /* \"contracts/nft.sol\":3247:3265  tokenId.toString() */\n      jump\t// in\n    tag_178:\n        /* \"contracts/nft.sol\":3221:3266  abi.encodePacked(baseURI, tokenId.toString()) */\n      add(0x20, mload(0x40))\n      tag_180\n      swap3\n      swap2\n      swap1\n      tag_181\n      jump\t// in\n    tag_180:\n      mload(0x40)\n      0x20\n      dup2\n      dup4\n      sub\n      sub\n      dup2\n      mstore\n      swap1\n      0x40\n      mstore\n        /* \"contracts/nft.sol\":3186:3272  bytes(baseURI).length > 0 ? string(abi.encodePacked(baseURI, tokenId.toString())) : \"\" */\n    tag_177:\n        /* \"contracts/nft.sol\":3179:3272  return bytes(baseURI).length > 0 ? string(abi.encodePacked(baseURI, tokenId.toString())) : \"\" */\n      swap2\n      pop\n      pop\n        /* \"contracts/nft.sol\":2999:3280  function tokenURI(uint256 tokenId) public view virtual override returns (string memory) {\r... */\n      swap2\n      swap1\n      pop\n      jump\t// out\n        /* \"contracts/nft.sol\":4162:4326  function isApprovedForAll(address owner, address operator) public view virtual override returns (bool) {\r... */\n    tag_87:\n        /* \"contracts/nft.sol\":4259:4263  bool */\n      0x00\n        /* \"contracts/nft.sol\":4283:4301  _operatorApprovals */\n      0x08\n        /* \"contracts/nft.sol\":4283:4308  _operatorApprovals[owner] */\n      0x00\n        /* \"contracts/nft.sol\":4302:4307  owner */\n      dup5\n        /* \"contracts/nft.sol\":4283:4308  _operatorApprovals[owner] */\n      0xffffffffffffffffffffffffffffffffffffffff\n      and\n      0xffffffffffffffffffffffffffffffffffffffff\n      and\n      dup2\n      mstore\n      0x20\n      add\n      swap1\n      dup2\n      mstore\n      0x20\n      add\n      0x00\n      keccak256\n        /* \"contracts/nft.sol\":4283:4318  _operatorApprovals[owner][operator] */\n      0x00\n        /* \"contracts/nft.sol\":4309:4317  operator */\n      dup4\n        /* \"contracts/nft.sol\":4283:4318  _operatorApprovals[owner][operator] */\n      0xffffffffffffffffffffffffffffffffffffffff\n      and\n      0xffffffffffffffffffffffffffffffffffffffff\n      and\n      dup2\n      mstore\n      0x20\n      add\n      swap1\n      dup2\n      mstore\n      0x20\n      add\n      0x00\n      keccak256\n      0x00\n      swap1\n      sload\n      swap1\n      0x0100\n      exp\n      swap1\n      div\n      0xff\n      and\n        /* \"contracts/nft.sol\":4276:4318  return _operatorApprovals[owner][operator] */\n      swap1\n      pop\n        /* \"contracts/nft.sol\":4162:4326  function isApprovedForAll(address owner, address operator) public view virtual override returns (bool) {\r... */\n      swap3\n      swap2\n      pop\n      pop\n      jump\t// out\n        /* \"contracts/nft.sol\":2538:2770  function collaboratotPercentageOf(uint256 tokenId) public view virtual returns (uint256[] memory) {\r... */\n    tag_91:\n        /* \"contracts/nft.sol\":2618:2634  uint256[] memory */\n      0x60\n        /* \"contracts/nft.sol\":2647:2686  uint256[] memory collaboratorPercentage */\n      0x00\n        /* \"contracts/nft.sol\":2689:2713  _collaboratorsPercentage */\n      0x05\n        /* \"contracts/nft.sol\":2689:2722  _collaboratorsPercentage[tokenId] */\n      0x00\n        /* \"contracts/nft.sol\":2714:2721  tokenId */\n      dup5\n        /* \"contracts/nft.sol\":2689:2722  _collaboratorsPercentage[tokenId] */\n      dup2\n      mstore\n      0x20\n      add\n      swap1\n      dup2\n      mstore\n      0x20\n      add\n      0x00\n      keccak256\n        /* \"contracts/nft.sol\":2647:2722  uint256[] memory collaboratorPercentage = _collaboratorsPercentage[tokenId] */\n      dup1\n      sload\n      dup1\n      0x20\n      mul\n      0x20\n      add\n      mload(0x40)\n      swap1\n      dup2\n      add\n      0x40\n      mstore\n      dup1\n      swap3\n      swap2\n      swap1\n      dup2\n      dup2\n      mstore\n      0x20\n      add\n      dup3\n      dup1\n      sload\n      dup1\n      iszero\n      tag_184\n      jumpi\n      0x20\n      mul\n      dup3\n      add\n      swap2\n      swap1\n      0x00\n      mstore\n      keccak256(0x00, 0x20)\n      swap1\n    tag_185:\n      dup2\n      sload\n      dup2\n      mstore\n      0x20\n      add\n      swap1\n      0x01\n      add\n      swap1\n      dup1\n      dup4\n      gt\n      tag_185\n      jumpi\n    tag_184:\n      pop\n      pop\n      pop\n      pop\n      pop\n      swap1\n      pop\n        /* \"contracts/nft.sol\":2740:2762  collaboratorPercentage */\n      dup1\n        /* \"contracts/nft.sol\":2733:2762  return collaboratorPercentage */\n      swap2\n      pop\n      pop\n        /* \"contracts/nft.sol\":2538:2770  function collaboratotPercentageOf(uint256 tokenId) public view virtual returns (uint256[] memory) {\r... */\n      swap2\n      swap1\n      pop\n      jump\t// out\n        /* \"@openzeppelin/contracts@4.6.0/utils/introspection/ERC165.sol\":829:984  function supportsInterface(bytes4 interfaceId) public view virtual override returns (bool) {... */\n    tag_98:\n        /* \"@openzeppelin/contracts@4.6.0/utils/introspection/ERC165.sol\":914:918  bool */\n      0x00\n        /* \"@openzeppelin/contracts@4.6.0/utils/introspection/ERC165.sol\":952:977  type(IERC165).interfaceId */\n      0x01ffc9a700000000000000000000000000000000000000000000000000000000\n        /* \"@openzeppelin/contracts@4.6.0/utils/introspection/ERC165.sol\":937:977  interfaceId == type(IERC165).interfaceId */\n      not(0xffffffffffffffffffffffffffffffffffffffffffffffffffffffff)\n      and\n        /* \"@openzeppelin/contracts@4.6.0/utils/introspection/ERC165.sol\":937:948  interfaceId */\n      dup3\n        /* \"@openzeppelin/contracts@4.6.0/utils/introspection/ERC165.sol\":937:977  interfaceId == type(IERC165).interfaceId */\n      not(0xffffffffffffffffffffffffffffffffffffffffffffffffffffffff)\n      and\n      eq\n        /* \"@openzeppelin/contracts@4.6.0/utils/introspection/ERC165.sol\":930:977  return interfaceId == type(IERC165).interfaceId */\n      swap1\n      pop\n        /* \"@openzeppelin/contracts@4.6.0/utils/introspection/ERC165.sol\":829:984  function supportsInterface(bytes4 interfaceId) public view virtual override returns (bool) {... */\n      swap2\n      swap1\n      pop\n      jump\t// out\n        /* \"contracts/nft.sol\":9625:9760  function _requireMinted(uint256 tokenId) internal view virtual {\r... */\n    tag_108:\n        /* \"contracts/nft.sol\":9707:9723  _exists(tokenId) */\n      tag_188\n        /* \"contracts/nft.sol\":9715:9722  tokenId */\n      dup2\n        /* \"contracts/nft.sol\":9707:9714  _exists */\n      tag_189\n        /* \"contracts/nft.sol\":9707:9723  _exists(tokenId) */\n      jump\t// in\n    tag_188:\n        /* \"contracts/nft.sol\":9699:9752  require(_exists(tokenId), \"ERC721: invalid token ID\") */\n      tag_190\n      jumpi\n      mload(0x40)\n      0x08c379a000000000000000000000000000000000000000000000000000000000\n      dup2\n      mstore\n      0x04\n      add\n      tag_191\n      swap1\n      tag_150\n      jump\t// in\n    tag_191:\n      mload(0x40)\n      dup1\n      swap2\n      sub\n      swap1\n      revert\n    tag_190:\n        /* \"contracts/nft.sol\":9625:9760  function _requireMinted(uint256 tokenId) internal view virtual {\r... */\n      pop\n      jump\t// out\n        /* \"@openzeppelin/contracts@4.6.0/utils/Context.sol\":640:736  function _msgSender() internal view virtual returns (address) {... */\n    tag_115:\n        /* \"@openzeppelin/contracts@4.6.0/utils/Context.sol\":693:700  address */\n      0x00\n        /* \"@openzeppelin/contracts@4.6.0/utils/Context.sol\":719:729  msg.sender */\n      caller\n        /* \"@openzeppelin/contracts@4.6.0/utils/Context.sol\":712:729  return msg.sender */\n      swap1\n      pop\n        /* \"@openzeppelin/contracts@4.6.0/utils/Context.sol\":640:736  function _msgSender() internal view virtual returns (address) {... */\n      swap1\n      jump\t// out\n        /* \"contracts/nft.sol\":9123:9294  function _approve(address to, uint256 tokenId) internal virtual {\r... */\n    tag_123:\n        /* \"contracts/nft.sol\":9225:9227  to */\n      dup2\n        /* \"contracts/nft.sol\":9198:9213  _tokenApprovals */\n      0x07\n        /* \"contracts/nft.sol\":9198:9222  _tokenApprovals[tokenId] */\n      0x00\n        /* \"contracts/nft.sol\":9214:9221  tokenId */\n      dup4\n        /* \"contracts/nft.sol\":9198:9222  _tokenApprovals[tokenId] */\n      dup2\n      mstore\n      0x20\n      add\n      swap1\n      dup2\n      mstore\n      0x20\n      add\n      0x00\n      keccak256\n      0x00\n        /* \"contracts/nft.sol\":9198:9227  _tokenApprovals[tokenId] = to */\n      0x0100\n      exp\n      dup2\n      sload\n      dup2\n      0xffffffffffffffffffffffffffffffffffffffff\n      mul\n      not\n      and\n      swap1\n      dup4\n      0xffffffffffffffffffffffffffffffffffffffff\n      and\n      mul\n      or\n      swap1\n      sstore\n      pop\n        /* \"contracts/nft.sol\":9278:9285  tokenId */\n      dup1\n        /* \"contracts/nft.sol\":9274:9276  to */\n      dup3\n        /* \"contracts/nft.sol\":9243:9286  Approval(nft.ownerOf(tokenId), to, tokenId) */\n      0xffffffffffffffffffffffffffffffffffffffff\n      and\n        /* \"contracts/nft.sol\":9252:9272  nft.ownerOf(tokenId) */\n      tag_194\n        /* \"contracts/nft.sol\":9264:9271  tokenId */\n      dup4\n        /* \"contracts/nft.sol\":9252:9263  nft.ownerOf */\n      tag_62\n        /* \"contracts/nft.sol\":9252:9272  nft.ownerOf(tokenId) */\n      jump\t// in\n    tag_194:\n        /* \"contracts/nft.sol\":9243:9286  Approval(nft.ownerOf(tokenId), to, tokenId) */\n      0xffffffffffffffffffffffffffffffffffffffff\n      and\n      0x8c5be1e5ebec7d5bd14f71427d1e84f3dd0314c0f7b2291e5b200ac8c7c3b925\n      mload(0x40)\n      mload(0x40)\n      dup1\n      swap2\n      sub\n      swap1\n      log4\n        /* \"contracts/nft.sol\":9123:9294  function _approve(address to, uint256 tokenId) internal virtual {\r... */\n      pop\n      pop\n      jump\t// out\n        /* \"contracts/nft.sol\":5974:6235  function _isApprovedOrOwner(address spender, uint256 tokenId) internal view virtual returns (bool) {\r... */\n    tag_127:\n        /* \"contracts/nft.sol\":6067:6071  bool */\n      0x00\n        /* \"contracts/nft.sol\":6084:6097  address owner */\n      dup1\n        /* \"contracts/nft.sol\":6100:6120  nft.ownerOf(tokenId) */\n      tag_196\n        /* \"contracts/nft.sol\":6112:6119  tokenId */\n      dup4\n        /* \"contracts/nft.sol\":6100:6111  nft.ownerOf */\n      tag_62\n        /* \"contracts/nft.sol\":6100:6120  nft.ownerOf(tokenId) */\n      jump\t// in\n    tag_196:\n        /* \"contracts/nft.sol\":6084:6120  address owner = nft.ownerOf(tokenId) */\n      swap1\n      pop\n        /* \"contracts/nft.sol\":6150:6155  owner */\n      dup1\n        /* \"contracts/nft.sol\":6139:6155  spender == owner */\n      0xffffffffffffffffffffffffffffffffffffffff\n      and\n        /* \"contracts/nft.sol\":6139:6146  spender */\n      dup5\n        /* \"contracts/nft.sol\":6139:6155  spender == owner */\n      0xffffffffffffffffffffffffffffffffffffffff\n      and\n      eq\n        /* \"contracts/nft.sol\":6139:6191  spender == owner || isApprovedForAll(owner, spender) */\n      dup1\n      tag_197\n      jumpi\n      pop\n        /* \"contracts/nft.sol\":6159:6191  isApprovedForAll(owner, spender) */\n      tag_198\n        /* \"contracts/nft.sol\":6176:6181  owner */\n      dup2\n        /* \"contracts/nft.sol\":6183:6190  spender */\n      dup6\n        /* \"contracts/nft.sol\":6159:6175  isApprovedForAll */\n      tag_87\n        /* \"contracts/nft.sol\":6159:6191  isApprovedForAll(owner, spender) */\n      jump\t// in\n    tag_198:\n        /* \"contracts/nft.sol\":6139:6191  spender == owner || isApprovedForAll(owner, spender) */\n    tag_197:\n        /* \"contracts/nft.sol\":6139:6226  spender == owner || isApprovedForAll(owner, spender) || getApproved(tokenId) == spender */\n      dup1\n      tag_199\n      jumpi\n      pop\n        /* \"contracts/nft.sol\":6219:6226  spender */\n      dup4\n        /* \"contracts/nft.sol\":6195:6226  getApproved(tokenId) == spender */\n      0xffffffffffffffffffffffffffffffffffffffff\n      and\n        /* \"contracts/nft.sol\":6195:6215  getApproved(tokenId) */\n      tag_200\n        /* \"contracts/nft.sol\":6207:6214  tokenId */\n      dup5\n        /* \"contracts/nft.sol\":6195:6206  getApproved */\n      tag_35\n        /* \"contracts/nft.sol\":6195:6215  getApproved(tokenId) */\n      jump\t// in\n    tag_200:\n        /* \"contracts/nft.sol\":6195:6226  getApproved(tokenId) == spender */\n      0xffffffffffffffffffffffffffffffffffffffff\n      and\n      eq\n        /* \"contracts/nft.sol\":6139:6226  spender == owner || isApprovedForAll(owner, spender) || getApproved(tokenId) == spender */\n    tag_199:\n        /* \"contracts/nft.sol\":6131:6227  return (spender == owner || isApprovedForAll(owner, spender) || getApproved(tokenId) == spender) */\n      swap2\n      pop\n      pop\n        /* \"contracts/nft.sol\":5974:6235  function _isApprovedOrOwner(address spender, uint256 tokenId) internal view virtual returns (bool) {\r... */\n      swap3\n      swap2\n      pop\n      pop\n      jump\t// out\n        /* \"contracts/nft.sol\":8356:9113  function _transfer(\r... */\n    tag_132:\n        /* \"contracts/nft.sol\":8512:8516  from */\n      dup3\n        /* \"contracts/nft.sol\":8488:8516  nft.ownerOf(tokenId) == from */\n      0xffffffffffffffffffffffffffffffffffffffff\n      and\n        /* \"contracts/nft.sol\":8488:8508  nft.ownerOf(tokenId) */\n      tag_202\n        /* \"contracts/nft.sol\":8500:8507  tokenId */\n      dup3\n        /* \"contracts/nft.sol\":8488:8499  nft.ownerOf */\n      tag_62\n        /* \"contracts/nft.sol\":8488:8508  nft.ownerOf(tokenId) */\n      jump\t// in\n    tag_202:\n        /* \"contracts/nft.sol\":8488:8516  nft.ownerOf(tokenId) == from */\n      0xffffffffffffffffffffffffffffffffffffffff\n      and\n      eq\n        /* \"contracts/nft.sol\":8480:8558  require(nft.ownerOf(tokenId) == from, \"ERC721: transfer from incorrect owner\") */\n      tag_203\n      jumpi\n      mload(0x40)\n      0x08c379a000000000000000000000000000000000000000000000000000000000\n      dup2\n      mstore\n      0x04\n      add\n      tag_204\n      swap1\n      tag_205\n      jump\t// in\n    tag_204:\n      mload(0x40)\n      dup1\n      swap2\n      sub\n      swap1\n      revert\n    tag_203:\n        /* \"contracts/nft.sol\":8591:8592  0 */\n      0x00\n        /* \"contracts/nft.sol\":8577:8593  to != address(0) */\n      0xffffffffffffffffffffffffffffffffffffffff\n      and\n        /* \"contracts/nft.sol\":8577:8579  to */\n      dup3\n        /* \"contracts/nft.sol\":8577:8593  to != address(0) */\n      0xffffffffffffffffffffffffffffffffffffffff\n      and\n      eq\n      iszero\n        /* \"contracts/nft.sol\":8569:8634  require(to != address(0), \"ERC721: transfer to the zero address\") */\n      tag_206\n      jumpi\n      mload(0x40)\n      0x08c379a000000000000000000000000000000000000000000000000000000000\n      dup2\n      mstore\n      0x04\n      add\n      tag_207\n      swap1\n      tag_208\n      jump\t// in\n    tag_207:\n      mload(0x40)\n      dup1\n      swap2\n      sub\n      swap1\n      revert\n    tag_206:\n        /* \"contracts/nft.sol\":8647:8686  _beforeTokenTransfer(from, to, tokenId) */\n      tag_209\n        /* \"contracts/nft.sol\":8668:8672  from */\n      dup4\n        /* \"contracts/nft.sol\":8674:8676  to */\n      dup4\n        /* \"contracts/nft.sol\":8678:8685  tokenId */\n      dup4\n        /* \"contracts/nft.sol\":8647:8667  _beforeTokenTransfer */\n      tag_210\n        /* \"contracts/nft.sol\":8647:8686  _beforeTokenTransfer(from, to, tokenId) */\n      jump\t// in\n    tag_209:\n        /* \"contracts/nft.sol\":8731:8735  from */\n      dup3\n        /* \"contracts/nft.sol\":8707:8735  nft.ownerOf(tokenId) == from */\n      0xffffffffffffffffffffffffffffffffffffffff\n      and\n        /* \"contracts/nft.sol\":8707:8727  nft.ownerOf(tokenId) */\n      tag_211\n        /* \"contracts/nft.sol\":8719:8726  tokenId */\n      dup3\n        /* \"contracts/nft.sol\":8707:8718  nft.ownerOf */\n      tag_62\n        /* \"contracts/nft.sol\":8707:8727  nft.ownerOf(tokenId) */\n      jump\t// in\n    tag_211:\n        /* \"contracts/nft.sol\":8707:8735  nft.ownerOf(tokenId) == from */\n      0xffffffffffffffffffffffffffffffffffffffff\n      and\n      eq\n        /* \"contracts/nft.sol\":8699:8777  require(nft.ownerOf(tokenId) == from, \"ERC721: transfer from incorrect owner\") */\n      tag_212\n      jumpi\n      mload(0x40)\n      0x08c379a000000000000000000000000000000000000000000000000000000000\n      dup2\n      mstore\n      0x04\n      add\n      tag_213\n      swap1\n      tag_205\n      jump\t// in\n    tag_213:\n      mload(0x40)\n      dup1\n      swap2\n      sub\n      swap1\n      revert\n    tag_212:\n        /* \"contracts/nft.sol\":8849:8864  _tokenApprovals */\n      0x07\n        /* \"contracts/nft.sol\":8849:8873  _tokenApprovals[tokenId] */\n      0x00\n        /* \"contracts/nft.sol\":8865:8872  tokenId */\n      dup3\n        /* \"contracts/nft.sol\":8849:8873  _tokenApprovals[tokenId] */\n      dup2\n      mstore\n      0x20\n      add\n      swap1\n      dup2\n      mstore\n      0x20\n      add\n      0x00\n      keccak256\n      0x00\n        /* \"contracts/nft.sol\":8842:8873  delete _tokenApprovals[tokenId] */\n      0x0100\n      exp\n      dup2\n      sload\n      swap1\n      0xffffffffffffffffffffffffffffffffffffffff\n      mul\n      not\n      and\n      swap1\n      sstore\n        /* \"contracts/nft.sol\":8932:8933  1 */\n      0x01\n        /* \"contracts/nft.sol\":8913:8922  _balances */\n      0x06\n        /* \"contracts/nft.sol\":8913:8928  _balances[from] */\n      0x00\n        /* \"contracts/nft.sol\":8923:8927  from */\n      dup6\n        /* \"contracts/nft.sol\":8913:8928  _balances[from] */\n      0xffffffffffffffffffffffffffffffffffffffff\n      and\n      0xffffffffffffffffffffffffffffffffffffffff\n      and\n      dup2\n      mstore\n      0x20\n      add\n      swap1\n      dup2\n      mstore\n      0x20\n      add\n      0x00\n      keccak256\n      0x00\n        /* \"contracts/nft.sol\":8913:8933  _balances[from] -= 1 */\n      dup3\n      dup3\n      sload\n      sub\n      swap3\n      pop\n      pop\n      dup2\n      swap1\n      sstore\n      pop\n        /* \"contracts/nft.sol\":8965:8966  1 */\n      0x01\n        /* \"contracts/nft.sol\":8948:8957  _balances */\n      0x06\n        /* \"contracts/nft.sol\":8948:8961  _balances[to] */\n      0x00\n        /* \"contracts/nft.sol\":8958:8960  to */\n      dup5\n        /* \"contracts/nft.sol\":8948:8961  _balances[to] */\n      0xffffffffffffffffffffffffffffffffffffffff\n      and\n      0xffffffffffffffffffffffffffffffffffffffff\n      and\n      dup2\n      mstore\n      0x20\n      add\n      swap1\n      dup2\n      mstore\n      0x20\n      add\n      0x00\n      keccak256\n      0x00\n        /* \"contracts/nft.sol\":8948:8966  _balances[to] += 1 */\n      dup3\n      dup3\n      sload\n      add\n      swap3\n      pop\n      pop\n      dup2\n      swap1\n      sstore\n      pop\n        /* \"contracts/nft.sol\":9007:9009  to */\n      dup2\n        /* \"contracts/nft.sol\":8988:8995  _owners */\n      0x03\n        /* \"contracts/nft.sol\":8988:9004  _owners[tokenId] */\n      0x00\n        /* \"contracts/nft.sol\":8996:9003  tokenId */\n      dup4\n        /* \"contracts/nft.sol\":8988:9004  _owners[tokenId] */\n      dup2\n      mstore\n      0x20\n      add\n      swap1\n      dup2\n      mstore\n      0x20\n      add\n      0x00\n      keccak256\n      0x00\n        /* \"contracts/nft.sol\":8988:9009  _owners[tokenId] = to */\n      0x0100\n      exp\n      dup2\n      sload\n      dup2\n      0xffffffffffffffffffffffffffffffffffffffff\n      mul\n      not\n      and\n      swap1\n      dup4\n      0xffffffffffffffffffffffffffffffffffffffff\n      and\n      mul\n      or\n      swap1\n      sstore\n      pop\n        /* \"contracts/nft.sol\":9046:9053  tokenId */\n      dup1\n        /* \"contracts/nft.sol\":9042:9044  to */\n      dup3\n        /* \"contracts/nft.sol\":9027:9054  Transfer(from, to, tokenId) */\n      0xffffffffffffffffffffffffffffffffffffffff\n      and\n        /* \"contracts/nft.sol\":9036:9040  from */\n      dup5\n        /* \"contracts/nft.sol\":9027:9054  Transfer(from, to, tokenId) */\n      0xffffffffffffffffffffffffffffffffffffffff\n      and\n      0xddf252ad1be2c89b69c2b068fc378daa952ba7f163c4a11628f55a4df523b3ef\n      mload(0x40)\n      mload(0x40)\n      dup1\n      swap2\n      sub\n      swap1\n      log4\n        /* \"contracts/nft.sol\":9067:9105  _afterTokenTransfer(from, to, tokenId) */\n      tag_214\n        /* \"contracts/nft.sol\":9087:9091  from */\n      dup4\n        /* \"contracts/nft.sol\":9093:9095  to */\n      dup4\n        /* \"contracts/nft.sol\":9097:9104  tokenId */\n      dup4\n        /* \"contracts/nft.sol\":9067:9086  _afterTokenTransfer */\n      tag_215\n        /* \"contracts/nft.sol\":9067:9105  _afterTokenTransfer(from, to, tokenId) */\n      jump\t// in\n    tag_214:\n        /* \"contracts/nft.sol\":8356:9113  function _transfer(\r... */\n      pop\n      pop\n      pop\n      jump\t// out\n        /* \"@openzeppelin/contracts@4.6.0/utils/Counters.sol\":945:1068  function increment(Counter storage counter) internal {... */\n    tag_135:\n        /* \"@openzeppelin/contracts@4.6.0/utils/Counters.sol\":1050:1051  1 */\n      0x01\n        /* \"@openzeppelin/contracts@4.6.0/utils/Counters.sol\":1032:1039  counter */\n      dup2\n        /* \"@openzeppelin/contracts@4.6.0/utils/Counters.sol\":1032:1046  counter._value */\n      0x00\n      add\n      0x00\n        /* \"@openzeppelin/contracts@4.6.0/utils/Counters.sol\":1032:1051  counter._value += 1 */\n      dup3\n      dup3\n      sload\n      add\n      swap3\n      pop\n      pop\n      dup2\n      swap1\n      sstore\n      pop\n        /* \"@openzeppelin/contracts@4.6.0/utils/Counters.sol\":945:1068  function increment(Counter storage counter) internal {... */\n      pop\n      jump\t// out\n        /* \"@openzeppelin/contracts@4.6.0/utils/Counters.sol\":827:939  function current(Counter storage counter) internal view returns (uint256) {... */\n    tag_137:\n        /* \"@openzeppelin/contracts@4.6.0/utils/Counters.sol\":892:899  uint256 */\n      0x00\n        /* \"@openzeppelin/contracts@4.6.0/utils/Counters.sol\":918:925  counter */\n      dup2\n        /* \"@openzeppelin/contracts@4.6.0/utils/Counters.sol\":918:932  counter._value */\n      0x00\n      add\n      sload\n        /* \"@openzeppelin/contracts@4.6.0/utils/Counters.sol\":911:932  return counter._value */\n      swap1\n      pop\n        /* \"@openzeppelin/contracts@4.6.0/utils/Counters.sol\":827:939  function current(Counter storage counter) internal view returns (uint256) {... */\n      swap2\n      swap1\n      pop\n      jump\t// out\n        /* \"contracts/nft.sol\":6243:6452  function _safeMint(address to,address[] memory collaborator,uint256[] memory collaboratorPercent,uint256 tokenId) internal virtual {\r... */\n    tag_139:\n        /* \"contracts/nft.sol\":6385:6444  _safeMint(to, collaborator,collaboratorPercent,tokenId, \"\") */\n      tag_219\n        /* \"contracts/nft.sol\":6395:6397  to */\n      dup5\n        /* \"contracts/nft.sol\":6399:6411  collaborator */\n      dup5\n        /* \"contracts/nft.sol\":6412:6431  collaboratorPercent */\n      dup5\n        /* \"contracts/nft.sol\":6432:6439  tokenId */\n      dup5\n        /* \"contracts/nft.sol\":6385:6444  _safeMint(to, collaborator,collaboratorPercent,tokenId, \"\") */\n      mload(0x40)\n      dup1\n      0x20\n      add\n      0x40\n      mstore\n      dup1\n      0x00\n      dup2\n      mstore\n      pop\n        /* \"contracts/nft.sol\":6385:6394  _safeMint */\n      tag_220\n        /* \"contracts/nft.sol\":6385:6444  _safeMint(to, collaborator,collaboratorPercent,tokenId, \"\") */\n      jump\t// in\n    tag_219:\n        /* \"contracts/nft.sol\":6243:6452  function _safeMint(address to,address[] memory collaborator,uint256[] memory collaboratorPercent,uint256 tokenId) internal virtual {\r... */\n      pop\n      pop\n      pop\n      pop\n      jump\t// out\n        /* \"contracts/nft.sol\":8126:8346  function _setTokenURI(uint256 tokenId, string memory _tokenURI) internal virtual {\r... */\n    tag_141:\n        /* \"contracts/nft.sol\":8329:8338  _tokenURI */\n      dup1\n        /* \"contracts/nft.sol\":8307:8317  _tokenURIs */\n      0x09\n        /* \"contracts/nft.sol\":8307:8326  _tokenURIs[tokenId] */\n      0x00\n        /* \"contracts/nft.sol\":8318:8325  tokenId */\n      dup5\n        /* \"contracts/nft.sol\":8307:8326  _tokenURIs[tokenId] */\n      dup2\n      mstore\n      0x20\n      add\n      swap1\n      dup2\n      mstore\n      0x20\n      add\n      0x00\n      keccak256\n        /* \"contracts/nft.sol\":8307:8338  _tokenURIs[tokenId] = _tokenURI */\n      swap1\n      dup1\n      mload\n      swap1\n      0x20\n      add\n      swap1\n      tag_222\n      swap3\n      swap2\n      swap1\n      tag_223\n      jump\t// in\n    tag_222:\n      pop\n        /* \"contracts/nft.sol\":8126:8346  function _setTokenURI(uint256 tokenId, string memory _tokenURI) internal virtual {\r... */\n      pop\n      pop\n      jump\t// out\n        /* \"contracts/nft.sol\":9302:9617  function _setApprovalForAll(\r... */\n    tag_164:\n        /* \"contracts/nft.sol\":9457:9465  operator */\n      dup2\n        /* \"contracts/nft.sol\":9448:9465  owner != operator */\n      0xffffffffffffffffffffffffffffffffffffffff\n      and\n        /* \"contracts/nft.sol\":9448:9453  owner */\n      dup4\n        /* \"contracts/nft.sol\":9448:9465  owner != operator */\n      0xffffffffffffffffffffffffffffffffffffffff\n      and\n      eq\n      iszero\n        /* \"contracts/nft.sol\":9440:9495  require(owner != operator, \"ERC721: approve to caller\") */\n      tag_225\n      jumpi\n      mload(0x40)\n      0x08c379a000000000000000000000000000000000000000000000000000000000\n      dup2\n      mstore\n      0x04\n      add\n      tag_226\n      swap1\n      tag_227\n      jump\t// in\n    tag_226:\n      mload(0x40)\n      dup1\n      swap2\n      sub\n      swap1\n      revert\n    tag_225:\n        /* \"contracts/nft.sol\":9544:9552  approved */\n      dup1\n        /* \"contracts/nft.sol\":9506:9524  _operatorApprovals */\n      0x08\n        /* \"contracts/nft.sol\":9506:9531  _operatorApprovals[owner] */\n      0x00\n        /* \"contracts/nft.sol\":9525:9530  owner */\n      dup6\n        /* \"contracts/nft.sol\":9506:9531  _operatorApprovals[owner] */\n      0xffffffffffffffffffffffffffffffffffffffff\n      and\n      0xffffffffffffffffffffffffffffffffffffffff\n      and\n      dup2\n      mstore\n      0x20\n      add\n      swap1\n      dup2\n      mstore\n      0x20\n      add\n      0x00\n      keccak256\n        /* \"contracts/nft.sol\":9506:9541  _operatorApprovals[owner][operator] */\n      0x00\n        /* \"contracts/nft.sol\":9532:9540  operator */\n      dup5\n        /* \"contracts/nft.sol\":9506:9541  _operatorApprovals[owner][operator] */\n      0xffffffffffffffffffffffffffffffffffffffff\n      and\n      0xffffffffffffffffffffffffffffffffffffffff\n      and\n      dup2\n      mstore\n      0x20\n      add\n      swap1\n      dup2\n      mstore\n      0x20\n      add\n      0x00\n      keccak256\n      0x00\n        /* \"contracts/nft.sol\":9506:9552  _operatorApprovals[owner][operator] = approved */\n      0x0100\n      exp\n      dup2\n      sload\n      dup2\n      0xff\n      mul\n      not\n      and\n      swap1\n      dup4\n      iszero\n      iszero\n      mul\n      or\n      swap1\n      sstore\n      pop\n        /* \"contracts/nft.sol\":9590:9598  operator */\n      dup2\n        /* \"contracts/nft.sol\":9568:9609  ApprovalForAll(owner, operator, approved) */\n      0xffffffffffffffffffffffffffffffffffffffff\n      and\n        /* \"contracts/nft.sol\":9583:9588  owner */\n      dup4\n        /* \"contracts/nft.sol\":9568:9609  ApprovalForAll(owner, operator, approved) */\n      0xffffffffffffffffffffffffffffffffffffffff\n      and\n      0x17307eab39ab6107e8899845ad3d59bd9653f200f220920489ca2b5937696c31\n        /* \"contracts/nft.sol\":9600:9608  approved */\n      dup4\n        /* \"contracts/nft.sol\":9568:9609  ApprovalForAll(owner, operator, approved) */\n      mload(0x40)\n      tag_228\n      swap2\n      swap1\n      tag_27\n      jump\t// in\n    tag_228:\n      mload(0x40)\n      dup1\n      swap2\n      sub\n      swap1\n      log3\n        /* \"contracts/nft.sol\":9302:9617  function _setApprovalForAll(\r... */\n      pop\n      pop\n      pop\n      jump\t// out\n        /* \"contracts/nft.sol\":5516:5829  function _safeTransfer(\r... */\n    tag_171:\n        /* \"contracts/nft.sol\":5672:5700  _transfer(from, to, tokenId) */\n      tag_230\n        /* \"contracts/nft.sol\":5682:5686  from */\n      dup5\n        /* \"contracts/nft.sol\":5688:5690  to */\n      dup5\n        /* \"contracts/nft.sol\":5692:5699  tokenId */\n      dup5\n        /* \"contracts/nft.sol\":5672:5681  _transfer */\n      tag_132\n        /* \"contracts/nft.sol\":5672:5700  _transfer(from, to, tokenId) */\n      jump\t// in\n    tag_230:\n        /* \"contracts/nft.sol\":5719:5766  _checkOnERC721Received(from, to, tokenId, data) */\n      tag_231\n        /* \"contracts/nft.sol\":5742:5746  from */\n      dup5\n        /* \"contracts/nft.sol\":5748:5750  to */\n      dup5\n        /* \"contracts/nft.sol\":5752:5759  tokenId */\n      dup5\n        /* \"contracts/nft.sol\":5761:5765  data */\n      dup5\n        /* \"contracts/nft.sol\":5719:5741  _checkOnERC721Received */\n      tag_232\n        /* \"contracts/nft.sol\":5719:5766  _checkOnERC721Received(from, to, tokenId, data) */\n      jump\t// in\n    tag_231:\n        /* \"contracts/nft.sol\":5711:5821  require(_checkOnERC721Received(from, to, tokenId, data), \"ERC721: transfer to non ERC721Receiver implementer\") */\n      tag_233\n      jumpi\n      mload(0x40)\n      0x08c379a000000000000000000000000000000000000000000000000000000000\n      dup2\n      mstore\n      0x04\n      add\n      tag_234\n      swap1\n      tag_235\n      jump\t// in\n    tag_234:\n      mload(0x40)\n      dup1\n      swap2\n      sub\n      swap1\n      revert\n    tag_233:\n        /* \"contracts/nft.sol\":5516:5829  function _safeTransfer(\r... */\n      pop\n      pop\n      pop\n      pop\n      jump\t// out\n        /* \"contracts/nft.sol\":3288:3382  function _baseURI() internal view virtual returns (string memory) {\r... */\n    tag_175:\n        /* \"contracts/nft.sol\":3339:3352  string memory */\n      0x60\n        /* \"contracts/nft.sol\":3365:3374  return \"\" */\n      mload(0x40)\n      dup1\n      0x20\n      add\n      0x40\n      mstore\n      dup1\n      0x00\n      dup2\n      mstore\n      pop\n      swap1\n      pop\n        /* \"contracts/nft.sol\":3288:3382  function _baseURI() internal view virtual returns (string memory) {\r... */\n      swap1\n      jump\t// out\n        /* \"@openzeppelin/contracts@4.6.0/utils/Strings.sol\":328:1031  function toString(uint256 value) internal pure returns (string memory) {... */\n    tag_179:\n        /* \"@openzeppelin/contracts@4.6.0/utils/Strings.sol\":384:397  string memory */\n      0x60\n        /* \"@openzeppelin/contracts@4.6.0/utils/Strings.sol\":610:611  0 */\n      0x00\n        /* \"@openzeppelin/contracts@4.6.0/utils/Strings.sol\":601:606  value */\n      dup3\n        /* \"@openzeppelin/contracts@4.6.0/utils/Strings.sol\":601:611  value == 0 */\n      eq\n        /* \"@openzeppelin/contracts@4.6.0/utils/Strings.sol\":597:648  if (value == 0) {... */\n      iszero\n      tag_238\n      jumpi\n        /* \"@openzeppelin/contracts@4.6.0/utils/Strings.sol\":627:637  return \"0\" */\n      mload(0x40)\n      dup1\n      0x40\n      add\n      0x40\n      mstore\n      dup1\n      0x01\n      dup2\n      mstore\n      0x20\n      add\n      0x3000000000000000000000000000000000000000000000000000000000000000\n      dup2\n      mstore\n      pop\n      swap1\n      pop\n      jump(tag_237)\n        /* \"@openzeppelin/contracts@4.6.0/utils/Strings.sol\":597:648  if (value == 0) {... */\n    tag_238:\n        /* \"@openzeppelin/contracts@4.6.0/utils/Strings.sol\":657:669  uint256 temp */\n      0x00\n        /* \"@openzeppelin/contracts@4.6.0/utils/Strings.sol\":672:677  value */\n      dup3\n        /* \"@openzeppelin/contracts@4.6.0/utils/Strings.sol\":657:677  uint256 temp = value */\n      swap1\n      pop\n        /* \"@openzeppelin/contracts@4.6.0/utils/Strings.sol\":687:701  uint256 digits */\n      0x00\n        /* \"@openzeppelin/contracts@4.6.0/utils/Strings.sol\":711:786  while (temp != 0) {... */\n    tag_239:\n        /* \"@openzeppelin/contracts@4.6.0/utils/Strings.sol\":726:727  0 */\n      0x00\n        /* \"@openzeppelin/contracts@4.6.0/utils/Strings.sol\":718:722  temp */\n      dup3\n        /* \"@openzeppelin/contracts@4.6.0/utils/Strings.sol\":718:727  temp != 0 */\n      eq\n        /* \"@openzeppelin/contracts@4.6.0/utils/Strings.sol\":711:786  while (temp != 0) {... */\n      tag_240\n      jumpi\n        /* \"@openzeppelin/contracts@4.6.0/utils/Strings.sol\":743:751  digits++ */\n      dup1\n      dup1\n      tag_241\n      swap1\n      tag_242\n      jump\t// in\n    tag_241:\n      swap2\n      pop\n      pop\n        /* \"@openzeppelin/contracts@4.6.0/utils/Strings.sol\":773:775  10 */\n      0x0a\n        /* \"@openzeppelin/contracts@4.6.0/utils/Strings.sol\":765:775  temp /= 10 */\n      dup3\n      tag_243\n      swap2\n      swap1\n      tag_244\n      jump\t// in\n    tag_243:\n      swap2\n      pop\n        /* \"@openzeppelin/contracts@4.6.0/utils/Strings.sol\":711:786  while (temp != 0) {... */\n      jump(tag_239)\n    tag_240:\n        /* \"@openzeppelin/contracts@4.6.0/utils/Strings.sol\":795:814  bytes memory buffer */\n      0x00\n        /* \"@openzeppelin/contracts@4.6.0/utils/Strings.sol\":827:833  digits */\n      dup2\n        /* \"@openzeppelin/contracts@4.6.0/utils/Strings.sol\":817:834  new bytes(digits) */\n      0xffffffffffffffff\n      dup2\n      gt\n      iszero\n      tag_245\n      jumpi\n      mstore(0x00, 0x4e487b7100000000000000000000000000000000000000000000000000000000)\n      mstore(0x04, 0x41)\n      revert(0x00, 0x24)\n    tag_245:\n      mload(0x40)\n      swap1\n      dup1\n      dup3\n      mstore\n      dup1\n      0x1f\n      add\n      not(0x1f)\n      and\n      0x20\n      add\n      dup3\n      add\n      0x40\n      mstore\n      dup1\n      iszero\n      tag_246\n      jumpi\n      dup2\n      0x20\n      add\n      0x01\n      dup3\n      mul\n      dup1\n      calldatasize\n      dup4\n      calldatacopy\n      dup1\n      dup3\n      add\n      swap2\n      pop\n      pop\n      swap1\n      pop\n    tag_246:\n      pop\n        /* \"@openzeppelin/contracts@4.6.0/utils/Strings.sol\":795:834  bytes memory buffer = new bytes(digits) */\n      swap1\n      pop\n        /* \"@openzeppelin/contracts@4.6.0/utils/Strings.sol\":844:994  while (value != 0) {... */\n    tag_247:\n        /* \"@openzeppelin/contracts@4.6.0/utils/Strings.sol\":860:861  0 */\n      0x00\n        /* \"@openzeppelin/contracts@4.6.0/utils/Strings.sol\":851:856  value */\n      dup6\n        /* \"@openzeppelin/contracts@4.6.0/utils/Strings.sol\":851:861  value != 0 */\n      eq\n        /* \"@openzeppelin/contracts@4.6.0/utils/Strings.sol\":844:994  while (value != 0) {... */\n      tag_248\n      jumpi\n        /* \"@openzeppelin/contracts@4.6.0/utils/Strings.sol\":887:888  1 */\n      0x01\n        /* \"@openzeppelin/contracts@4.6.0/utils/Strings.sol\":877:888  digits -= 1 */\n      dup3\n      tag_249\n      swap2\n      swap1\n      tag_250\n      jump\t// in\n    tag_249:\n      swap2\n      pop\n        /* \"@openzeppelin/contracts@4.6.0/utils/Strings.sol\":953:955  10 */\n      0x0a\n        /* \"@openzeppelin/contracts@4.6.0/utils/Strings.sol\":945:950  value */\n      dup6\n        /* \"@openzeppelin/contracts@4.6.0/utils/Strings.sol\":945:955  value % 10 */\n      tag_251\n      swap2\n      swap1\n      tag_252\n      jump\t// in\n    tag_251:\n        /* \"@openzeppelin/contracts@4.6.0/utils/Strings.sol\":932:934  48 */\n      0x30\n        /* \"@openzeppelin/contracts@4.6.0/utils/Strings.sol\":932:956  48 + uint256(value % 10) */\n      tag_253\n      swap2\n      swap1\n      tag_254\n      jump\t// in\n    tag_253:\n        /* \"@openzeppelin/contracts@4.6.0/utils/Strings.sol\":919:958  bytes1(uint8(48 + uint256(value % 10))) */\n      0xf8\n      shl\n        /* \"@openzeppelin/contracts@4.6.0/utils/Strings.sol\":902:908  buffer */\n      dup2\n        /* \"@openzeppelin/contracts@4.6.0/utils/Strings.sol\":909:915  digits */\n      dup4\n        /* \"@openzeppelin/contracts@4.6.0/utils/Strings.sol\":902:916  buffer[digits] */\n      dup2\n      mload\n      dup2\n      lt\n      tag_255\n      jumpi\n      mstore(0x00, 0x4e487b7100000000000000000000000000000000000000000000000000000000)\n      mstore(0x04, 0x32)\n      revert(0x00, 0x24)\n    tag_255:\n      0x20\n      add\n      add\n        /* \"@openzeppelin/contracts@4.6.0/utils/Strings.sol\":902:958  buffer[digits] = bytes1(uint8(48 + uint256(value % 10))) */\n      swap1\n      not(0xffffffffffffffffffffffffffffffffffffffffffffffffffffffffffffff)\n      and\n      swap1\n      dup2\n      0x00\n      byte\n      swap1\n      mstore8\n      pop\n        /* \"@openzeppelin/contracts@4.6.0/utils/Strings.sol\":981:983  10 */\n      0x0a\n        /* \"@openzeppelin/contracts@4.6.0/utils/Strings.sol\":972:983  value /= 10 */\n      dup6\n      tag_256\n      swap2\n      swap1\n      tag_244\n      jump\t// in\n    tag_256:\n      swap5\n      pop\n        /* \"@openzeppelin/contracts@4.6.0/utils/Strings.sol\":844:994  while (value != 0) {... */\n      jump(tag_247)\n    tag_248:\n        /* \"@openzeppelin/contracts@4.6.0/utils/Strings.sol\":1017:1023  buffer */\n      dup1\n        /* \"@openzeppelin/contracts@4.6.0/utils/Strings.sol\":1003:1024  return string(buffer) */\n      swap4\n      pop\n      pop\n      pop\n      pop\n        /* \"@openzeppelin/contracts@4.6.0/utils/Strings.sol\":328:1031  function toString(uint256 value) internal pure returns (string memory) {... */\n    tag_237:\n      swap2\n      swap1\n      pop\n      jump\t// out\n        /* \"contracts/nft.sol\":5837:5964  function _exists(uint256 tokenId) internal view virtual returns (bool) {\r... */\n    tag_189:\n        /* \"contracts/nft.sol\":5902:5906  bool */\n      0x00\n        /* \"contracts/nft.sol\":5954:5955  0 */\n      dup1\n        /* \"contracts/nft.sol\":5926:5956  _owners[tokenId] != address(0) */\n      0xffffffffffffffffffffffffffffffffffffffff\n      and\n        /* \"contracts/nft.sol\":5926:5933  _owners */\n      0x03\n        /* \"contracts/nft.sol\":5926:5942  _owners[tokenId] */\n      0x00\n        /* \"contracts/nft.sol\":5934:5941  tokenId */\n      dup5\n        /* \"contracts/nft.sol\":5926:5942  _owners[tokenId] */\n      dup2\n      mstore\n      0x20\n      add\n      swap1\n      dup2\n      mstore\n      0x20\n      add\n      0x00\n      keccak256\n      0x00\n      swap1\n      sload\n      swap1\n      0x0100\n      exp\n      swap1\n      div\n      0xffffffffffffffffffffffffffffffffffffffff\n      and\n        /* \"contracts/nft.sol\":5926:5956  _owners[tokenId] != address(0) */\n      0xffffffffffffffffffffffffffffffffffffffff\n      and\n      eq\n      iszero\n        /* \"contracts/nft.sol\":5919:5956  return _owners[tokenId] != address(0) */\n      swap1\n      pop\n        /* \"contracts/nft.sol\":5837:5964  function _exists(uint256 tokenId) internal view virtual returns (bool) {\r... */\n      swap2\n      swap1\n      pop\n      jump\t// out\n        /* \"contracts/nft.sol\":10633:10759  function _beforeTokenTransfer(\r... */\n    tag_210:\n      pop\n      pop\n      pop\n      jump\t// out\n        /* \"contracts/nft.sol\":10767:10892  function _afterTokenTransfer(\r... */\n    tag_215:\n      pop\n      pop\n      pop\n      jump\t// out\n        /* \"contracts/nft.sol\":6460:6901  function _safeMint(\r... */\n    tag_220:\n        /* \"contracts/nft.sol\":6677:6729  _mint(to, collaborator,collaboratorPercent, tokenId) */\n      tag_261\n        /* \"contracts/nft.sol\":6683:6685  to */\n      dup6\n        /* \"contracts/nft.sol\":6687:6699  collaborator */\n      dup6\n        /* \"contracts/nft.sol\":6700:6719  collaboratorPercent */\n      dup6\n        /* \"contracts/nft.sol\":6721:6728  tokenId */\n      dup6\n        /* \"contracts/nft.sol\":6677:6682  _mint */\n      tag_262\n        /* \"contracts/nft.sol\":6677:6729  _mint(to, collaborator,collaboratorPercent, tokenId) */\n      jump\t// in\n    tag_261:\n        /* \"contracts/nft.sol\":6762:6815  _checkOnERC721Received(address(0), to, tokenId, data) */\n      tag_263\n        /* \"contracts/nft.sol\":6793:6794  0 */\n      0x00\n        /* \"contracts/nft.sol\":6797:6799  to */\n      dup7\n        /* \"contracts/nft.sol\":6801:6808  tokenId */\n      dup5\n        /* \"contracts/nft.sol\":6810:6814  data */\n      dup5\n        /* \"contracts/nft.sol\":6762:6784  _checkOnERC721Received */\n      tag_232\n        /* \"contracts/nft.sol\":6762:6815  _checkOnERC721Received(address(0), to, tokenId, data) */\n      jump\t// in\n    tag_263:\n        /* \"contracts/nft.sol\":6740:6893  require(\r... */\n      tag_264\n      jumpi\n      mload(0x40)\n      0x08c379a000000000000000000000000000000000000000000000000000000000\n      dup2\n      mstore\n      0x04\n      add\n      tag_265\n      swap1\n      tag_235\n      jump\t// in\n    tag_265:\n      mload(0x40)\n      dup1\n      swap2\n      sub\n      swap1\n      revert\n    tag_264:\n        /* \"contracts/nft.sol\":6460:6901  function _safeMint(\r... */\n      pop\n      pop\n      pop\n      pop\n      pop\n      jump\t// out\n        /* \"contracts/nft.sol\":9770:10623  function _checkOnERC721Received(\r... */\n    tag_232:\n        /* \"contracts/nft.sol\":9924:9928  bool */\n      0x00\n        /* \"contracts/nft.sol\":9945:9960  to.isContract() */\n      tag_267\n        /* \"contracts/nft.sol\":9945:9947  to */\n      dup5\n        /* \"contracts/nft.sol\":9945:9958  to.isContract */\n      0xffffffffffffffffffffffffffffffffffffffff\n      and\n      tag_268\n        /* \"contracts/nft.sol\":9945:9960  to.isContract() */\n      jump\t// in\n    tag_267:\n        /* \"contracts/nft.sol\":9941:10616  if (to.isContract()) {\r... */\n      iszero\n      tag_269\n      jumpi\n        /* \"contracts/nft.sol\":9997:9999  to */\n      dup4\n        /* \"contracts/nft.sol\":9981:10017  IERC721Receiver(to).onERC721Received */\n      0xffffffffffffffffffffffffffffffffffffffff\n      and\n      0x150b7a02\n        /* \"contracts/nft.sol\":10018:10030  _msgSender() */\n      tag_270\n        /* \"contracts/nft.sol\":10018:10028  _msgSender */\n      tag_115\n        /* \"contracts/nft.sol\":10018:10030  _msgSender() */\n      jump\t// in\n    tag_270:\n        /* \"contracts/nft.sol\":10032:10036  from */\n      dup8\n        /* \"contracts/nft.sol\":10038:10045  tokenId */\n      dup7\n        /* \"contracts/nft.sol\":10047:10051  data */\n      dup7\n        /* \"contracts/nft.sol\":9981:10052  IERC721Receiver(to).onERC721Received(_msgSender(), from, tokenId, data) */\n      mload(0x40)\n      dup6\n      0xffffffff\n      and\n      0xe0\n      shl\n      dup2\n      mstore\n      0x04\n      add\n      tag_271\n      swap5\n      swap4\n      swap3\n      swap2\n      swap1\n      tag_272\n      jump\t// in\n    tag_271:\n      0x20\n      mload(0x40)\n      dup1\n      dup4\n      sub\n      dup2\n      0x00\n      dup8\n      dup1\n      extcodesize\n      iszero\n      dup1\n      iszero\n      tag_273\n      jumpi\n      0x00\n      dup1\n      revert\n    tag_273:\n      pop\n      gas\n      call\n      swap3\n      pop\n      pop\n      pop\n      dup1\n      iszero\n      tag_274\n      jumpi\n      pop\n      mload(0x40)\n      returndatasize\n      not(0x1f)\n      0x1f\n      dup3\n      add\n      and\n      dup3\n      add\n      dup1\n      0x40\n      mstore\n      pop\n      dup2\n      add\n      swap1\n      tag_275\n      swap2\n      swap1\n      tag_276\n      jump\t// in\n    tag_275:\n      0x01\n    tag_274:\n        /* \"contracts/nft.sol\":9977:10561  try IERC721Receiver(to).onERC721Received(_msgSender(), from, tokenId, data) returns (bytes4 retval) {\r... */\n      tag_277\n      jumpi\n      returndatasize\n      dup1\n      0x00\n      dup2\n      eq\n      tag_282\n      jumpi\n      mload(0x40)\n      swap2\n      pop\n      and(add(returndatasize, 0x3f), not(0x1f))\n      dup3\n      add\n      0x40\n      mstore\n      returndatasize\n      dup3\n      mstore\n      returndatasize\n      0x00\n      0x20\n      dup5\n      add\n      returndatacopy\n      jump(tag_281)\n    tag_282:\n      0x60\n      swap2\n      pop\n    tag_281:\n      pop\n        /* \"contracts/nft.sol\":10239:10240  0 */\n      0x00\n        /* \"contracts/nft.sol\":10222:10228  reason */\n      dup2\n        /* \"contracts/nft.sol\":10222:10235  reason.length */\n      mload\n        /* \"contracts/nft.sol\":10222:10240  reason.length == 0 */\n      eq\n        /* \"contracts/nft.sol\":10218:10546  if (reason.length == 0) {\r... */\n      iszero\n      tag_283\n      jumpi\n        /* \"contracts/nft.sol\":10265:10325  revert(\"ERC721: transfer to non ERC721Receiver implementer\") */\n      mload(0x40)\n      0x08c379a000000000000000000000000000000000000000000000000000000000\n      dup2\n      mstore\n      0x04\n      add\n      tag_284\n      swap1\n      tag_235\n      jump\t// in\n    tag_284:\n      mload(0x40)\n      dup1\n      swap2\n      sub\n      swap1\n      revert\n        /* \"contracts/nft.sol\":10218:10546  if (reason.length == 0) {\r... */\n    tag_283:\n        /* \"contracts/nft.sol\":10496:10502  reason */\n      dup1\n        /* \"contracts/nft.sol\":10490:10503  mload(reason) */\n      mload\n        /* \"contracts/nft.sol\":10481:10487  reason */\n      dup2\n        /* \"contracts/nft.sol\":10477:10479  32 */\n      0x20\n        /* \"contracts/nft.sol\":10473:10488  add(32, reason) */\n      add\n        /* \"contracts/nft.sol\":10466:10504  revert(add(32, reason), mload(reason)) */\n      revert\n        /* \"contracts/nft.sol\":9977:10561  try IERC721Receiver(to).onERC721Received(_msgSender(), from, tokenId, data) returns (bytes4 retval) {\r... */\n    tag_277:\n        /* \"contracts/nft.sol\":10113:10154  IERC721Receiver.onERC721Received.selector */\n      shl(0xe0, 0x150b7a02)\n        /* \"contracts/nft.sol\":10103:10154  retval == IERC721Receiver.onERC721Received.selector */\n      not(0xffffffffffffffffffffffffffffffffffffffffffffffffffffffff)\n      and\n        /* \"contracts/nft.sol\":10103:10109  retval */\n      dup2\n        /* \"contracts/nft.sol\":10103:10154  retval == IERC721Receiver.onERC721Received.selector */\n      not(0xffffffffffffffffffffffffffffffffffffffffffffffffffffffff)\n      and\n      eq\n        /* \"contracts/nft.sol\":10096:10154  return retval == IERC721Receiver.onERC721Received.selector */\n      swap2\n      pop\n      pop\n      jump(tag_266)\n        /* \"contracts/nft.sol\":9941:10616  if (to.isContract()) {\r... */\n    tag_269:\n        /* \"contracts/nft.sol\":10600:10604  true */\n      0x01\n        /* \"contracts/nft.sol\":10593:10604  return true */\n      swap1\n      pop\n        /* \"contracts/nft.sol\":9770:10623  function _checkOnERC721Received(\r... */\n    tag_266:\n      swap5\n      swap4\n      pop\n      pop\n      pop\n      pop\n      jump\t// out\n        /* \"contracts/nft.sol\":6909:7637  function _mint(address to,address[] memory collaborator,uint256[] memory collaboratorPercent,uint256 tokenId) internal virtual {\r... */\n    tag_262:\n        /* \"contracts/nft.sol\":7069:7070  0 */\n      0x00\n        /* \"contracts/nft.sol\":7055:7071  to != address(0) */\n      0xffffffffffffffffffffffffffffffffffffffff\n      and\n        /* \"contracts/nft.sol\":7055:7057  to */\n      dup5\n        /* \"contracts/nft.sol\":7055:7071  to != address(0) */\n      0xffffffffffffffffffffffffffffffffffffffff\n      and\n      eq\n      iszero\n        /* \"contracts/nft.sol\":7047:7108  require(to != address(0), \"ERC721: mint to the zero address\") */\n      tag_289\n      jumpi\n      mload(0x40)\n      0x08c379a000000000000000000000000000000000000000000000000000000000\n      dup2\n      mstore\n      0x04\n      add\n      tag_290\n      swap1\n      tag_291\n      jump\t// in\n    tag_290:\n      mload(0x40)\n      dup1\n      swap2\n      sub\n      swap1\n      revert\n    tag_289:\n        /* \"contracts/nft.sol\":7128:7144  _exists(tokenId) */\n      tag_292\n        /* \"contracts/nft.sol\":7136:7143  tokenId */\n      dup2\n        /* \"contracts/nft.sol\":7128:7135  _exists */\n      tag_189\n        /* \"contracts/nft.sol\":7128:7144  _exists(tokenId) */\n      jump\t// in\n    tag_292:\n        /* \"contracts/nft.sol\":7127:7144  !_exists(tokenId) */\n      iszero\n        /* \"contracts/nft.sol\":7119:7177  require(!_exists(tokenId), \"ERC721: token already minted\") */\n      tag_293\n      jumpi\n      mload(0x40)\n      0x08c379a000000000000000000000000000000000000000000000000000000000\n      dup2\n      mstore\n      0x04\n      add\n      tag_294\n      swap1\n      tag_295\n      jump\t// in\n    tag_294:\n      mload(0x40)\n      dup1\n      swap2\n      sub\n      swap1\n      revert\n    tag_293:\n        /* \"contracts/nft.sol\":7190:7235  _beforeTokenTransfer(address(0), to, tokenId) */\n      tag_296\n        /* \"contracts/nft.sol\":7219:7220  0 */\n      0x00\n        /* \"contracts/nft.sol\":7223:7225  to */\n      dup6\n        /* \"contracts/nft.sol\":7227:7234  tokenId */\n      dup4\n        /* \"contracts/nft.sol\":7190:7210  _beforeTokenTransfer */\n      tag_210\n        /* \"contracts/nft.sol\":7190:7235  _beforeTokenTransfer(address(0), to, tokenId) */\n      jump\t// in\n    tag_296:\n        /* \"contracts/nft.sol\":7257:7273  _exists(tokenId) */\n      tag_297\n        /* \"contracts/nft.sol\":7265:7272  tokenId */\n      dup2\n        /* \"contracts/nft.sol\":7257:7264  _exists */\n      tag_189\n        /* \"contracts/nft.sol\":7257:7273  _exists(tokenId) */\n      jump\t// in\n    tag_297:\n        /* \"contracts/nft.sol\":7256:7273  !_exists(tokenId) */\n      iszero\n        /* \"contracts/nft.sol\":7248:7306  require(!_exists(tokenId), \"ERC721: token already minted\") */\n      tag_298\n      jumpi\n      mload(0x40)\n      0x08c379a000000000000000000000000000000000000000000000000000000000\n      dup2\n      mstore\n      0x04\n      add\n      tag_299\n      swap1\n      tag_295\n      jump\t// in\n    tag_299:\n      mload(0x40)\n      dup1\n      swap2\n      sub\n      swap1\n      revert\n    tag_298:\n        /* \"contracts/nft.sol\":7361:7362  1 */\n      0x01\n        /* \"contracts/nft.sol\":7344:7353  _balances */\n      0x06\n        /* \"contracts/nft.sol\":7344:7357  _balances[to] */\n      0x00\n        /* \"contracts/nft.sol\":7354:7356  to */\n      dup7\n        /* \"contracts/nft.sol\":7344:7357  _balances[to] */\n      0xffffffffffffffffffffffffffffffffffffffff\n      and\n      0xffffffffffffffffffffffffffffffffffffffff\n      and\n      dup2\n      mstore\n      0x20\n      add\n      swap1\n      dup2\n      mstore\n      0x20\n      add\n      0x00\n      keccak256\n      0x00\n        /* \"contracts/nft.sol\":7344:7362  _balances[to] += 1 */\n      dup3\n      dup3\n      sload\n      add\n      swap3\n      pop\n      pop\n      dup2\n      swap1\n      sstore\n      pop\n        /* \"contracts/nft.sol\":7405:7407  to */\n      dup4\n        /* \"contracts/nft.sol\":7386:7393  _owners */\n      0x03\n        /* \"contracts/nft.sol\":7386:7402  _owners[tokenId] */\n      0x00\n        /* \"contracts/nft.sol\":7394:7401  tokenId */\n      dup4\n        /* \"contracts/nft.sol\":7386:7402  _owners[tokenId] */\n      dup2\n      mstore\n      0x20\n      add\n      swap1\n      dup2\n      mstore\n      0x20\n      add\n      0x00\n      keccak256\n      0x00\n        /* \"contracts/nft.sol\":7386:7407  _owners[tokenId] = to */\n      0x0100\n      exp\n      dup2\n      sload\n      dup2\n      0xffffffffffffffffffffffffffffffffffffffff\n      mul\n      not\n      and\n      swap1\n      dup4\n      0xffffffffffffffffffffffffffffffffffffffff\n      and\n      mul\n      or\n      swap1\n      sstore\n      pop\n        /* \"contracts/nft.sol\":7444:7456  collaborator */\n      dup3\n        /* \"contracts/nft.sol\":7418:7432  _collaborators */\n      0x04\n        /* \"contracts/nft.sol\":7418:7441  _collaborators[tokenId] */\n      0x00\n        /* \"contracts/nft.sol\":7433:7440  tokenId */\n      dup4\n        /* \"contracts/nft.sol\":7418:7441  _collaborators[tokenId] */\n      dup2\n      mstore\n      0x20\n      add\n      swap1\n      dup2\n      mstore\n      0x20\n      add\n      0x00\n      keccak256\n        /* \"contracts/nft.sol\":7418:7456  _collaborators[tokenId] = collaborator */\n      swap1\n      dup1\n      mload\n      swap1\n      0x20\n      add\n      swap1\n      tag_300\n      swap3\n      swap2\n      swap1\n      tag_301\n      jump\t// in\n    tag_300:\n      pop\n        /* \"contracts/nft.sol\":7502:7521  collaboratorPercent */\n      dup2\n        /* \"contracts/nft.sol\":7466:7490  _collaboratorsPercentage */\n      0x05\n        /* \"contracts/nft.sol\":7466:7499  _collaboratorsPercentage[tokenId] */\n      0x00\n        /* \"contracts/nft.sol\":7491:7498  tokenId */\n      dup4\n        /* \"contracts/nft.sol\":7466:7499  _collaboratorsPercentage[tokenId] */\n      dup2\n      mstore\n      0x20\n      add\n      swap1\n      dup2\n      mstore\n      0x20\n      add\n      0x00\n      keccak256\n        /* \"contracts/nft.sol\":7466:7521  _collaboratorsPercentage[tokenId] = collaboratorPercent */\n      swap1\n      dup1\n      mload\n      swap1\n      0x20\n      add\n      swap1\n      tag_302\n      swap3\n      swap2\n      swap1\n      tag_303\n      jump\t// in\n    tag_302:\n      pop\n        /* \"contracts/nft.sol\":7564:7571  tokenId */\n      dup1\n        /* \"contracts/nft.sol\":7560:7562  to */\n      dup5\n        /* \"contracts/nft.sol\":7539:7572  Transfer(address(0), to, tokenId) */\n      0xffffffffffffffffffffffffffffffffffffffff\n      and\n        /* \"contracts/nft.sol\":7556:7557  0 */\n      0x00\n        /* \"contracts/nft.sol\":7539:7572  Transfer(address(0), to, tokenId) */\n      0xffffffffffffffffffffffffffffffffffffffff\n      and\n      0xddf252ad1be2c89b69c2b068fc378daa952ba7f163c4a11628f55a4df523b3ef\n      mload(0x40)\n      mload(0x40)\n      dup1\n      swap2\n      sub\n      swap1\n      log4\n        /* \"contracts/nft.sol\":7585:7629  _afterTokenTransfer(address(0), to, tokenId) */\n      tag_304\n        /* \"contracts/nft.sol\":7613:7614  0 */\n      0x00\n        /* \"contracts/nft.sol\":7617:7619  to */\n      dup6\n        /* \"contracts/nft.sol\":7621:7628  tokenId */\n      dup4\n        /* \"contracts/nft.sol\":7585:7604  _afterTokenTransfer */\n      tag_215\n        /* \"contracts/nft.sol\":7585:7629  _afterTokenTransfer(address(0), to, tokenId) */\n      jump\t// in\n    tag_304:\n        /* \"contracts/nft.sol\":6909:7637  function _mint(address to,address[] memory collaborator,uint256[] memory collaboratorPercent,uint256 tokenId) internal virtual {\r... */\n      pop\n      pop\n      pop\n      pop\n      jump\t// out\n        /* \"@openzeppelin/contracts@4.6.0/utils/Address.sol\":1175:1495  function isContract(address account) internal view returns (bool) {... */\n    tag_268:\n        /* \"@openzeppelin/contracts@4.6.0/utils/Address.sol\":1235:1239  bool */\n      0x00\n        /* \"@openzeppelin/contracts@4.6.0/utils/Address.sol\":1487:1488  0 */\n      dup1\n        /* \"@openzeppelin/contracts@4.6.0/utils/Address.sol\":1465:1472  account */\n      dup3\n        /* \"@openzeppelin/contracts@4.6.0/utils/Address.sol\":1465:1484  account.code.length */\n      0xffffffffffffffffffffffffffffffffffffffff\n      and\n      extcodesize\n        /* \"@openzeppelin/contracts@4.6.0/utils/Address.sol\":1465:1488  account.code.length > 0 */\n      gt\n        /* \"@openzeppelin/contracts@4.6.0/utils/Address.sol\":1458:1488  return account.code.length > 0 */\n      swap1\n      pop\n        /* \"@openzeppelin/contracts@4.6.0/utils/Address.sol\":1175:1495  function isContract(address account) internal view returns (bool) {... */\n      swap2\n      swap1\n      pop\n      jump\t// out\n    tag_223:\n      dup3\n      dup1\n      sload\n      tag_306\n      swap1\n      tag_101\n      jump\t// in\n    tag_306:\n      swap1\n      0x00\n      mstore\n      keccak256(0x00, 0x20)\n      swap1\n      0x1f\n      add\n      0x20\n      swap1\n      div\n      dup2\n      add\n      swap3\n      dup3\n      tag_308\n      jumpi\n      0x00\n      dup6\n      sstore\n      jump(tag_307)\n    tag_308:\n      dup3\n      0x1f\n      lt\n      tag_309\n      jumpi\n      dup1\n      mload\n      not(0xff)\n      and\n      dup4\n      dup1\n      add\n      or\n      dup6\n      sstore\n      jump(tag_307)\n    tag_309:\n      dup3\n      dup1\n      add\n      0x01\n      add\n      dup6\n      sstore\n      dup3\n      iszero\n      tag_307\n      jumpi\n      swap2\n      dup3\n      add\n    tag_310:\n      dup3\n      dup2\n      gt\n      iszero\n      tag_311\n      jumpi\n      dup3\n      mload\n      dup3\n      sstore\n      swap2\n      0x20\n      add\n      swap2\n      swap1\n      0x01\n      add\n      swap1\n      jump(tag_310)\n    tag_311:\n    tag_307:\n      pop\n      swap1\n      pop\n      tag_312\n      swap2\n      swap1\n      tag_313\n      jump\t// in\n    tag_312:\n      pop\n      swap1\n      jump\t// out\n    tag_301:\n      dup3\n      dup1\n      sload\n      dup3\n      dup3\n      sstore\n      swap1\n      0x00\n      mstore\n      keccak256(0x00, 0x20)\n      swap1\n      dup2\n      add\n      swap3\n      dup3\n      iszero\n      tag_314\n      jumpi\n      swap2\n      0x20\n      mul\n      dup3\n      add\n    tag_315:\n      dup3\n      dup2\n      gt\n      iszero\n      tag_316\n      jumpi\n      dup3\n      mload\n      dup3\n      exp(0x0100, 0x00)\n      dup2\n      sload\n      dup2\n      0xffffffffffffffffffffffffffffffffffffffff\n      mul\n      not\n      and\n      swap1\n      dup4\n      0xffffffffffffffffffffffffffffffffffffffff\n      and\n      mul\n      or\n      swap1\n      sstore\n      pop\n      swap2\n      0x20\n      add\n      swap2\n      swap1\n      0x01\n      add\n      swap1\n      jump(tag_315)\n    tag_316:\n    tag_314:\n      pop\n      swap1\n      pop\n      tag_317\n      swap2\n      swap1\n      tag_313\n      jump\t// in\n    tag_317:\n      pop\n      swap1\n      jump\t// out\n    tag_303:\n      dup3\n      dup1\n      sload\n      dup3\n      dup3\n      sstore\n      swap1\n      0x00\n      mstore\n      keccak256(0x00, 0x20)\n      swap1\n      dup2\n      add\n      swap3\n      dup3\n      iszero\n      tag_318\n      jumpi\n      swap2\n      0x20\n      mul\n      dup3\n      add\n    tag_319:\n      dup3\n      dup2\n      gt\n      iszero\n      tag_320\n      jumpi\n      dup3\n      mload\n      dup3\n      sstore\n      swap2\n      0x20\n      add\n      swap2\n      swap1\n      0x01\n      add\n      swap1\n      jump(tag_319)\n    tag_320:\n    tag_318:\n      pop\n      swap1\n      pop\n      tag_321\n      swap2\n      swap1\n      tag_313\n      jump\t// in\n    tag_321:\n      pop\n      swap1\n      jump\t// out\n    tag_313:\n    tag_322:\n      dup1\n      dup3\n      gt\n      iszero\n      tag_323\n      jumpi\n      0x00\n      dup2\n      0x00\n      swap1\n      sstore\n      pop\n      0x01\n      add\n      jump(tag_322)\n    tag_323:\n      pop\n      swap1\n      jump\t// out\n        /* \"#utility.yul\":24:679   */\n    tag_325:\n        /* \"#utility.yul\":120:125   */\n      0x00\n        /* \"#utility.yul\":145:226   */\n      tag_327\n        /* \"#utility.yul\":161:225   */\n      tag_328\n        /* \"#utility.yul\":218:224   */\n      dup5\n        /* \"#utility.yul\":161:225   */\n      tag_329\n      jump\t// in\n    tag_328:\n        /* \"#utility.yul\":145:226   */\n      tag_330\n      jump\t// in\n    tag_327:\n        /* \"#utility.yul\":136:226   */\n      swap1\n      pop\n        /* \"#utility.yul\":246:251   */\n      dup1\n        /* \"#utility.yul\":275:281   */\n      dup4\n        /* \"#utility.yul\":268:273   */\n      dup3\n        /* \"#utility.yul\":261:282   */\n      mstore\n        /* \"#utility.yul\":309:313   */\n      0x20\n        /* \"#utility.yul\":302:307   */\n      dup3\n        /* \"#utility.yul\":298:314   */\n      add\n        /* \"#utility.yul\":291:314   */\n      swap1\n      pop\n        /* \"#utility.yul\":335:341   */\n      dup3\n        /* \"#utility.yul\":385:388   */\n      dup6\n        /* \"#utility.yul\":377:381   */\n      0x20\n        /* \"#utility.yul\":369:375   */\n      dup7\n        /* \"#utility.yul\":365:382   */\n      mul\n        /* \"#utility.yul\":360:363   */\n      dup3\n        /* \"#utility.yul\":356:383   */\n      add\n        /* \"#utility.yul\":353:389   */\n      gt\n        /* \"#utility.yul\":350:352   */\n      iszero\n      tag_331\n      jumpi\n        /* \"#utility.yul\":414:415   */\n      0x00\n        /* \"#utility.yul\":411:412   */\n      dup1\n        /* \"#utility.yul\":404:416   */\n      revert\n        /* \"#utility.yul\":350:352   */\n    tag_331:\n        /* \"#utility.yul\":450:451   */\n      0x00\n        /* \"#utility.yul\":435:673   */\n    tag_332:\n        /* \"#utility.yul\":460:466   */\n      dup6\n        /* \"#utility.yul\":457:458   */\n      dup2\n        /* \"#utility.yul\":454:467   */\n      lt\n        /* \"#utility.yul\":435:673   */\n      iszero\n      tag_334\n      jumpi\n        /* \"#utility.yul\":528:531   */\n      dup2\n        /* \"#utility.yul\":557:594   */\n      tag_335\n        /* \"#utility.yul\":590:593   */\n      dup9\n        /* \"#utility.yul\":578:588   */\n      dup3\n        /* \"#utility.yul\":557:594   */\n      tag_336\n      jump\t// in\n    tag_335:\n        /* \"#utility.yul\":552:555   */\n      dup5\n        /* \"#utility.yul\":545:595   */\n      mstore\n        /* \"#utility.yul\":624:628   */\n      0x20\n        /* \"#utility.yul\":619:622   */\n      dup5\n        /* \"#utility.yul\":615:629   */\n      add\n        /* \"#utility.yul\":608:629   */\n      swap4\n      pop\n        /* \"#utility.yul\":658:662   */\n      0x20\n        /* \"#utility.yul\":653:656   */\n      dup4\n        /* \"#utility.yul\":649:663   */\n      add\n        /* \"#utility.yul\":642:663   */\n      swap3\n      pop\n        /* \"#utility.yul\":495:673   */\n      pop\n        /* \"#utility.yul\":482:483   */\n      0x01\n        /* \"#utility.yul\":479:480   */\n      dup2\n        /* \"#utility.yul\":475:484   */\n      add\n        /* \"#utility.yul\":470:484   */\n      swap1\n      pop\n        /* \"#utility.yul\":435:673   */\n      jump(tag_332)\n    tag_334:\n        /* \"#utility.yul\":439:453   */\n      pop\n        /* \"#utility.yul\":126:679   */\n      pop\n      pop\n      swap4\n      swap3\n      pop\n      pop\n      pop\n      jump\t// out\n        /* \"#utility.yul\":702:1357   */\n    tag_337:\n        /* \"#utility.yul\":798:803   */\n      0x00\n        /* \"#utility.yul\":823:904   */\n      tag_339\n        /* \"#utility.yul\":839:903   */\n      tag_340\n        /* \"#utility.yul\":896:902   */\n      dup5\n        /* \"#utility.yul\":839:903   */\n      tag_341\n      jump\t// in\n    tag_340:\n        /* \"#utility.yul\":823:904   */\n      tag_330\n      jump\t// in\n    tag_339:\n        /* \"#utility.yul\":814:904   */\n      swap1\n      pop\n        /* \"#utility.yul\":924:929   */\n      dup1\n        /* \"#utility.yul\":953:959   */\n      dup4\n        /* \"#utility.yul\":946:951   */\n      dup3\n        /* \"#utility.yul\":939:960   */\n      mstore\n        /* \"#utility.yul\":987:991   */\n      0x20\n        /* \"#utility.yul\":980:985   */\n      dup3\n        /* \"#utility.yul\":976:992   */\n      add\n        /* \"#utility.yul\":969:992   */\n      swap1\n      pop\n        /* \"#utility.yul\":1013:1019   */\n      dup3\n        /* \"#utility.yul\":1063:1066   */\n      dup6\n        /* \"#utility.yul\":1055:1059   */\n      0x20\n        /* \"#utility.yul\":1047:1053   */\n      dup7\n        /* \"#utility.yul\":1043:1060   */\n      mul\n        /* \"#utility.yul\":1038:1041   */\n      dup3\n        /* \"#utility.yul\":1034:1061   */\n      add\n        /* \"#utility.yul\":1031:1067   */\n      gt\n        /* \"#utility.yul\":1028:1030   */\n      iszero\n      tag_342\n      jumpi\n        /* \"#utility.yul\":1092:1093   */\n      0x00\n        /* \"#utility.yul\":1089:1090   */\n      dup1\n        /* \"#utility.yul\":1082:1094   */\n      revert\n        /* \"#utility.yul\":1028:1030   */\n    tag_342:\n        /* \"#utility.yul\":1128:1129   */\n      0x00\n        /* \"#utility.yul\":1113:1351   */\n    tag_343:\n        /* \"#utility.yul\":1138:1144   */\n      dup6\n        /* \"#utility.yul\":1135:1136   */\n      dup2\n        /* \"#utility.yul\":1132:1145   */\n      lt\n        /* \"#utility.yul\":1113:1351   */\n      iszero\n      tag_345\n      jumpi\n        /* \"#utility.yul\":1206:1209   */\n      dup2\n        /* \"#utility.yul\":1235:1272   */\n      tag_346\n        /* \"#utility.yul\":1268:1271   */\n      dup9\n        /* \"#utility.yul\":1256:1266   */\n      dup3\n        /* \"#utility.yul\":1235:1272   */\n      tag_347\n      jump\t// in\n    tag_346:\n        /* \"#utility.yul\":1230:1233   */\n      dup5\n        /* \"#utility.yul\":1223:1273   */\n      mstore\n        /* \"#utility.yul\":1302:1306   */\n      0x20\n        /* \"#utility.yul\":1297:1300   */\n      dup5\n        /* \"#utility.yul\":1293:1307   */\n      add\n        /* \"#utility.yul\":1286:1307   */\n      swap4\n      pop\n        /* \"#utility.yul\":1336:1340   */\n      0x20\n        /* \"#utility.yul\":1331:1334   */\n      dup4\n        /* \"#utility.yul\":1327:1341   */\n      add\n        /* \"#utility.yul\":1320:1341   */\n      swap3\n      pop\n        /* \"#utility.yul\":1173:1351   */\n      pop\n        /* \"#utility.yul\":1160:1161   */\n      0x01\n        /* \"#utility.yul\":1157:1158   */\n      dup2\n        /* \"#utility.yul\":1153:1162   */\n      add\n        /* \"#utility.yul\":1148:1162   */\n      swap1\n      pop\n        /* \"#utility.yul\":1113:1351   */\n      jump(tag_343)\n    tag_345:\n        /* \"#utility.yul\":1117:1131   */\n      pop\n        /* \"#utility.yul\":804:1357   */\n      pop\n      pop\n      swap4\n      swap3\n      pop\n      pop\n      pop\n      jump\t// out\n        /* \"#utility.yul\":1363:1706   */\n    tag_348:\n        /* \"#utility.yul\":1440:1445   */\n      0x00\n        /* \"#utility.yul\":1465:1530   */\n      tag_350\n        /* \"#utility.yul\":1481:1529   */\n      tag_351\n        /* \"#utility.yul\":1522:1528   */\n      dup5\n        /* \"#utility.yul\":1481:1529   */\n      tag_352\n      jump\t// in\n    tag_351:\n        /* \"#utility.yul\":1465:1530   */\n      tag_330\n      jump\t// in\n    tag_350:\n        /* \"#utility.yul\":1456:1530   */\n      swap1\n      pop\n        /* \"#utility.yul\":1553:1559   */\n      dup3\n        /* \"#utility.yul\":1546:1551   */\n      dup2\n        /* \"#utility.yul\":1539:1560   */\n      mstore\n        /* \"#utility.yul\":1591:1595   */\n      0x20\n        /* \"#utility.yul\":1584:1589   */\n      dup2\n        /* \"#utility.yul\":1580:1596   */\n      add\n        /* \"#utility.yul\":1629:1632   */\n      dup5\n        /* \"#utility.yul\":1620:1626   */\n      dup5\n        /* \"#utility.yul\":1615:1618   */\n      dup5\n        /* \"#utility.yul\":1611:1627   */\n      add\n        /* \"#utility.yul\":1608:1633   */\n      gt\n        /* \"#utility.yul\":1605:1607   */\n      iszero\n      tag_353\n      jumpi\n        /* \"#utility.yul\":1646:1647   */\n      0x00\n        /* \"#utility.yul\":1643:1644   */\n      dup1\n        /* \"#utility.yul\":1636:1648   */\n      revert\n        /* \"#utility.yul\":1605:1607   */\n    tag_353:\n        /* \"#utility.yul\":1659:1700   */\n      tag_354\n        /* \"#utility.yul\":1693:1699   */\n      dup5\n        /* \"#utility.yul\":1688:1691   */\n      dup3\n        /* \"#utility.yul\":1683:1686   */\n      dup6\n        /* \"#utility.yul\":1659:1700   */\n      tag_355\n      jump\t// in\n    tag_354:\n        /* \"#utility.yul\":1446:1706   */\n      pop\n      swap4\n      swap3\n      pop\n      pop\n      pop\n      jump\t// out\n        /* \"#utility.yul\":1712:2057   */\n    tag_356:\n        /* \"#utility.yul\":1790:1795   */\n      0x00\n        /* \"#utility.yul\":1815:1881   */\n      tag_358\n        /* \"#utility.yul\":1831:1880   */\n      tag_359\n        /* \"#utility.yul\":1873:1879   */\n      dup5\n        /* \"#utility.yul\":1831:1880   */\n      tag_360\n      jump\t// in\n    tag_359:\n        /* \"#utility.yul\":1815:1881   */\n      tag_330\n      jump\t// in\n    tag_358:\n        /* \"#utility.yul\":1806:1881   */\n      swap1\n      pop\n        /* \"#utility.yul\":1904:1910   */\n      dup3\n        /* \"#utility.yul\":1897:1902   */\n      dup2\n        /* \"#utility.yul\":1890:1911   */\n      mstore\n        /* \"#utility.yul\":1942:1946   */\n      0x20\n        /* \"#utility.yul\":1935:1940   */\n      dup2\n        /* \"#utility.yul\":1931:1947   */\n      add\n        /* \"#utility.yul\":1980:1983   */\n      dup5\n        /* \"#utility.yul\":1971:1977   */\n      dup5\n        /* \"#utility.yul\":1966:1969   */\n      dup5\n        /* \"#utility.yul\":1962:1978   */\n      add\n        /* \"#utility.yul\":1959:1984   */\n      gt\n        /* \"#utility.yul\":1956:1958   */\n      iszero\n      tag_361\n      jumpi\n        /* \"#utility.yul\":1997:1998   */\n      0x00\n        /* \"#utility.yul\":1994:1995   */\n      dup1\n        /* \"#utility.yul\":1987:1999   */\n      revert\n        /* \"#utility.yul\":1956:1958   */\n    tag_361:\n        /* \"#utility.yul\":2010:2051   */\n      tag_362\n        /* \"#utility.yul\":2044:2050   */\n      dup5\n        /* \"#utility.yul\":2039:2042   */\n      dup3\n        /* \"#utility.yul\":2034:2037   */\n      dup6\n        /* \"#utility.yul\":2010:2051   */\n      tag_355\n      jump\t// in\n    tag_362:\n        /* \"#utility.yul\":1796:2057   */\n      pop\n      swap4\n      swap3\n      pop\n      pop\n      pop\n      jump\t// out\n        /* \"#utility.yul\":2063:2202   */\n    tag_336:\n        /* \"#utility.yul\":2109:2114   */\n      0x00\n        /* \"#utility.yul\":2147:2153   */\n      dup2\n        /* \"#utility.yul\":2134:2154   */\n      calldataload\n        /* \"#utility.yul\":2125:2154   */\n      swap1\n      pop\n        /* \"#utility.yul\":2163:2196   */\n      tag_364\n        /* \"#utility.yul\":2190:2195   */\n      dup2\n        /* \"#utility.yul\":2163:2196   */\n      tag_365\n      jump\t// in\n    tag_364:\n        /* \"#utility.yul\":2115:2202   */\n      swap3\n      swap2\n      pop\n      pop\n      jump\t// out\n        /* \"#utility.yul\":2225:2528   */\n    tag_366:\n        /* \"#utility.yul\":2296:2301   */\n      0x00\n        /* \"#utility.yul\":2345:2348   */\n      dup3\n        /* \"#utility.yul\":2338:2342   */\n      0x1f\n        /* \"#utility.yul\":2330:2336   */\n      dup4\n        /* \"#utility.yul\":2326:2343   */\n      add\n        /* \"#utility.yul\":2322:2349   */\n      slt\n        /* \"#utility.yul\":2312:2314   */\n      tag_368\n      jumpi\n        /* \"#utility.yul\":2363:2364   */\n      0x00\n        /* \"#utility.yul\":2360:2361   */\n      dup1\n        /* \"#utility.yul\":2353:2365   */\n      revert\n        /* \"#utility.yul\":2312:2314   */\n    tag_368:\n        /* \"#utility.yul\":2403:2409   */\n      dup2\n        /* \"#utility.yul\":2390:2410   */\n      calldataload\n        /* \"#utility.yul\":2428:2522   */\n      tag_369\n        /* \"#utility.yul\":2518:2521   */\n      dup5\n        /* \"#utility.yul\":2510:2516   */\n      dup3\n        /* \"#utility.yul\":2503:2507   */\n      0x20\n        /* \"#utility.yul\":2495:2501   */\n      dup7\n        /* \"#utility.yul\":2491:2508   */\n      add\n        /* \"#utility.yul\":2428:2522   */\n      tag_325\n      jump\t// in\n    tag_369:\n        /* \"#utility.yul\":2419:2522   */\n      swap2\n      pop\n        /* \"#utility.yul\":2302:2528   */\n      pop\n      swap3\n      swap2\n      pop\n      pop\n      jump\t// out\n        /* \"#utility.yul\":2551:2854   */\n    tag_370:\n        /* \"#utility.yul\":2622:2627   */\n      0x00\n        /* \"#utility.yul\":2671:2674   */\n      dup3\n        /* \"#utility.yul\":2664:2668   */\n      0x1f\n        /* \"#utility.yul\":2656:2662   */\n      dup4\n        /* \"#utility.yul\":2652:2669   */\n      add\n        /* \"#utility.yul\":2648:2675   */\n      slt\n        /* \"#utility.yul\":2638:2640   */\n      tag_372\n      jumpi\n        /* \"#utility.yul\":2689:2690   */\n      0x00\n        /* \"#utility.yul\":2686:2687   */\n      dup1\n        /* \"#utility.yul\":2679:2691   */\n      revert\n        /* \"#utility.yul\":2638:2640   */\n    tag_372:\n        /* \"#utility.yul\":2729:2735   */\n      dup2\n        /* \"#utility.yul\":2716:2736   */\n      calldataload\n        /* \"#utility.yul\":2754:2848   */\n      tag_373\n        /* \"#utility.yul\":2844:2847   */\n      dup5\n        /* \"#utility.yul\":2836:2842   */\n      dup3\n        /* \"#utility.yul\":2829:2833   */\n      0x20\n        /* \"#utility.yul\":2821:2827   */\n      dup7\n        /* \"#utility.yul\":2817:2834   */\n      add\n        /* \"#utility.yul\":2754:2848   */\n      tag_337\n      jump\t// in\n    tag_373:\n        /* \"#utility.yul\":2745:2848   */\n      swap2\n      pop\n        /* \"#utility.yul\":2628:2854   */\n      pop\n      swap3\n      swap2\n      pop\n      pop\n      jump\t// out\n        /* \"#utility.yul\":2860:2993   */\n    tag_374:\n        /* \"#utility.yul\":2903:2908   */\n      0x00\n        /* \"#utility.yul\":2941:2947   */\n      dup2\n        /* \"#utility.yul\":2928:2948   */\n      calldataload\n        /* \"#utility.yul\":2919:2948   */\n      swap1\n      pop\n        /* \"#utility.yul\":2957:2987   */\n      tag_376\n        /* \"#utility.yul\":2981:2986   */\n      dup2\n        /* \"#utility.yul\":2957:2987   */\n      tag_377\n      jump\t// in\n    tag_376:\n        /* \"#utility.yul\":2909:2993   */\n      swap3\n      swap2\n      pop\n      pop\n      jump\t// out\n        /* \"#utility.yul\":2999:3136   */\n    tag_378:\n        /* \"#utility.yul\":3044:3049   */\n      0x00\n        /* \"#utility.yul\":3082:3088   */\n      dup2\n        /* \"#utility.yul\":3069:3089   */\n      calldataload\n        /* \"#utility.yul\":3060:3089   */\n      swap1\n      pop\n        /* \"#utility.yul\":3098:3130   */\n      tag_380\n        /* \"#utility.yul\":3124:3129   */\n      dup2\n        /* \"#utility.yul\":3098:3130   */\n      tag_381\n      jump\t// in\n    tag_380:\n        /* \"#utility.yul\":3050:3136   */\n      swap3\n      swap2\n      pop\n      pop\n      jump\t// out\n        /* \"#utility.yul\":3142:3283   */\n    tag_382:\n        /* \"#utility.yul\":3198:3203   */\n      0x00\n        /* \"#utility.yul\":3229:3235   */\n      dup2\n        /* \"#utility.yul\":3223:3236   */\n      mload\n        /* \"#utility.yul\":3214:3236   */\n      swap1\n      pop\n        /* \"#utility.yul\":3245:3277   */\n      tag_384\n        /* \"#utility.yul\":3271:3276   */\n      dup2\n        /* \"#utility.yul\":3245:3277   */\n      tag_381\n      jump\t// in\n    tag_384:\n        /* \"#utility.yul\":3204:3283   */\n      swap3\n      swap2\n      pop\n      pop\n      jump\t// out\n        /* \"#utility.yul\":3302:3573   */\n    tag_385:\n        /* \"#utility.yul\":3357:3362   */\n      0x00\n        /* \"#utility.yul\":3406:3409   */\n      dup3\n        /* \"#utility.yul\":3399:3403   */\n      0x1f\n        /* \"#utility.yul\":3391:3397   */\n      dup4\n        /* \"#utility.yul\":3387:3404   */\n      add\n        /* \"#utility.yul\":3383:3410   */\n      slt\n        /* \"#utility.yul\":3373:3375   */\n      tag_387\n      jumpi\n        /* \"#utility.yul\":3424:3425   */\n      0x00\n        /* \"#utility.yul\":3421:3422   */\n      dup1\n        /* \"#utility.yul\":3414:3426   */\n      revert\n        /* \"#utility.yul\":3373:3375   */\n    tag_387:\n        /* \"#utility.yul\":3464:3470   */\n      dup2\n        /* \"#utility.yul\":3451:3471   */\n      calldataload\n        /* \"#utility.yul\":3489:3567   */\n      tag_388\n        /* \"#utility.yul\":3563:3566   */\n      dup5\n        /* \"#utility.yul\":3555:3561   */\n      dup3\n        /* \"#utility.yul\":3548:3552   */\n      0x20\n        /* \"#utility.yul\":3540:3546   */\n      dup7\n        /* \"#utility.yul\":3536:3553   */\n      add\n        /* \"#utility.yul\":3489:3567   */\n      tag_348\n      jump\t// in\n    tag_388:\n        /* \"#utility.yul\":3480:3567   */\n      swap2\n      pop\n        /* \"#utility.yul\":3363:3573   */\n      pop\n      swap3\n      swap2\n      pop\n      pop\n      jump\t// out\n        /* \"#utility.yul\":3593:3866   */\n    tag_389:\n        /* \"#utility.yul\":3649:3654   */\n      0x00\n        /* \"#utility.yul\":3698:3701   */\n      dup3\n        /* \"#utility.yul\":3691:3695   */\n      0x1f\n        /* \"#utility.yul\":3683:3689   */\n      dup4\n        /* \"#utility.yul\":3679:3696   */\n      add\n        /* \"#utility.yul\":3675:3702   */\n      slt\n        /* \"#utility.yul\":3665:3667   */\n      tag_391\n      jumpi\n        /* \"#utility.yul\":3716:3717   */\n      0x00\n        /* \"#utility.yul\":3713:3714   */\n      dup1\n        /* \"#utility.yul\":3706:3718   */\n      revert\n        /* \"#utility.yul\":3665:3667   */\n    tag_391:\n        /* \"#utility.yul\":3756:3762   */\n      dup2\n        /* \"#utility.yul\":3743:3763   */\n      calldataload\n        /* \"#utility.yul\":3781:3860   */\n      tag_392\n        /* \"#utility.yul\":3856:3859   */\n      dup5\n        /* \"#utility.yul\":3848:3854   */\n      dup3\n        /* \"#utility.yul\":3841:3845   */\n      0x20\n        /* \"#utility.yul\":3833:3839   */\n      dup7\n        /* \"#utility.yul\":3829:3846   */\n      add\n        /* \"#utility.yul\":3781:3860   */\n      tag_356\n      jump\t// in\n    tag_392:\n        /* \"#utility.yul\":3772:3860   */\n      swap2\n      pop\n        /* \"#utility.yul\":3655:3866   */\n      pop\n      swap3\n      swap2\n      pop\n      pop\n      jump\t// out\n        /* \"#utility.yul\":3872:4011   */\n    tag_347:\n        /* \"#utility.yul\":3918:3923   */\n      0x00\n        /* \"#utility.yul\":3956:3962   */\n      dup2\n        /* \"#utility.yul\":3943:3963   */\n      calldataload\n        /* \"#utility.yul\":3934:3963   */\n      swap1\n      pop\n        /* \"#utility.yul\":3972:4005   */\n      tag_394\n        /* \"#utility.yul\":3999:4004   */\n      dup2\n        /* \"#utility.yul\":3972:4005   */\n      tag_395\n      jump\t// in\n    tag_394:\n        /* \"#utility.yul\":3924:4011   */\n      swap3\n      swap2\n      pop\n      pop\n      jump\t// out\n        /* \"#utility.yul\":4017:4279   */\n    tag_66:\n        /* \"#utility.yul\":4076:4082   */\n      0x00\n        /* \"#utility.yul\":4125:4127   */\n      0x20\n        /* \"#utility.yul\":4113:4122   */\n      dup3\n        /* \"#utility.yul\":4104:4111   */\n      dup5\n        /* \"#utility.yul\":4100:4123   */\n      sub\n        /* \"#utility.yul\":4096:4128   */\n      slt\n        /* \"#utility.yul\":4093:4095   */\n      iszero\n      tag_397\n      jumpi\n        /* \"#utility.yul\":4141:4142   */\n      0x00\n        /* \"#utility.yul\":4138:4139   */\n      dup1\n        /* \"#utility.yul\":4131:4143   */\n      revert\n        /* \"#utility.yul\":4093:4095   */\n    tag_397:\n        /* \"#utility.yul\":4184:4185   */\n      0x00\n        /* \"#utility.yul\":4209:4262   */\n      tag_398\n        /* \"#utility.yul\":4254:4261   */\n      dup5\n        /* \"#utility.yul\":4245:4251   */\n      dup3\n        /* \"#utility.yul\":4234:4243   */\n      dup6\n        /* \"#utility.yul\":4230:4252   */\n      add\n        /* \"#utility.yul\":4209:4262   */\n      tag_336\n      jump\t// in\n    tag_398:\n        /* \"#utility.yul\":4199:4262   */\n      swap2\n      pop\n        /* \"#utility.yul\":4155:4272   */\n      pop\n        /* \"#utility.yul\":4083:4279   */\n      swap3\n      swap2\n      pop\n      pop\n      jump\t// out\n        /* \"#utility.yul\":4285:4692   */\n    tag_86:\n        /* \"#utility.yul\":4353:4359   */\n      0x00\n        /* \"#utility.yul\":4361:4367   */\n      dup1\n        /* \"#utility.yul\":4410:4412   */\n      0x40\n        /* \"#utility.yul\":4398:4407   */\n      dup4\n        /* \"#utility.yul\":4389:4396   */\n      dup6\n        /* \"#utility.yul\":4385:4408   */\n      sub\n        /* \"#utility.yul\":4381:4413   */\n      slt\n        /* \"#utility.yul\":4378:4380   */\n      iszero\n      tag_400\n      jumpi\n        /* \"#utility.yul\":4426:4427   */\n      0x00\n        /* \"#utility.yul\":4423:4424   */\n      dup1\n        /* \"#utility.yul\":4416:4428   */\n      revert\n        /* \"#utility.yul\":4378:4380   */\n    tag_400:\n        /* \"#utility.yul\":4469:4470   */\n      0x00\n        /* \"#utility.yul\":4494:4547   */\n      tag_401\n        /* \"#utility.yul\":4539:4546   */\n      dup6\n        /* \"#utility.yul\":4530:4536   */\n      dup3\n        /* \"#utility.yul\":4519:4528   */\n      dup7\n        /* \"#utility.yul\":4515:4537   */\n      add\n        /* \"#utility.yul\":4494:4547   */\n      tag_336\n      jump\t// in\n    tag_401:\n        /* \"#utility.yul\":4484:4547   */\n      swap3\n      pop\n        /* \"#utility.yul\":4440:4557   */\n      pop\n        /* \"#utility.yul\":4596:4598   */\n      0x20\n        /* \"#utility.yul\":4622:4675   */\n      tag_402\n        /* \"#utility.yul\":4667:4674   */\n      dup6\n        /* \"#utility.yul\":4658:4664   */\n      dup3\n        /* \"#utility.yul\":4647:4656   */\n      dup7\n        /* \"#utility.yul\":4643:4665   */\n      add\n        /* \"#utility.yul\":4622:4675   */\n      tag_336\n      jump\t// in\n    tag_402:\n        /* \"#utility.yul\":4612:4675   */\n      swap2\n      pop\n        /* \"#utility.yul\":4567:4685   */\n      pop\n        /* \"#utility.yul\":4368:4692   */\n      swap3\n      pop\n      swap3\n      swap1\n      pop\n      jump\t// out\n        /* \"#utility.yul\":4698:5250   */\n    tag_44:\n        /* \"#utility.yul\":4775:4781   */\n      0x00\n        /* \"#utility.yul\":4783:4789   */\n      dup1\n        /* \"#utility.yul\":4791:4797   */\n      0x00\n        /* \"#utility.yul\":4840:4842   */\n      0x60\n        /* \"#utility.yul\":4828:4837   */\n      dup5\n        /* \"#utility.yul\":4819:4826   */\n      dup7\n        /* \"#utility.yul\":4815:4838   */\n      sub\n        /* \"#utility.yul\":4811:4843   */\n      slt\n        /* \"#utility.yul\":4808:4810   */\n      iszero\n      tag_404\n      jumpi\n        /* \"#utility.yul\":4856:4857   */\n      0x00\n        /* \"#utility.yul\":4853:4854   */\n      dup1\n        /* \"#utility.yul\":4846:4858   */\n      revert\n        /* \"#utility.yul\":4808:4810   */\n    tag_404:\n        /* \"#utility.yul\":4899:4900   */\n      0x00\n        /* \"#utility.yul\":4924:4977   */\n      tag_405\n        /* \"#utility.yul\":4969:4976   */\n      dup7\n        /* \"#utility.yul\":4960:4966   */\n      dup3\n        /* \"#utility.yul\":4949:4958   */\n      dup8\n        /* \"#utility.yul\":4945:4967   */\n      add\n        /* \"#utility.yul\":4924:4977   */\n      tag_336\n      jump\t// in\n    tag_405:\n        /* \"#utility.yul\":4914:4977   */\n      swap4\n      pop\n        /* \"#utility.yul\":4870:4987   */\n      pop\n        /* \"#utility.yul\":5026:5028   */\n      0x20\n        /* \"#utility.yul\":5052:5105   */\n      tag_406\n        /* \"#utility.yul\":5097:5104   */\n      dup7\n        /* \"#utility.yul\":5088:5094   */\n      dup3\n        /* \"#utility.yul\":5077:5086   */\n      dup8\n        /* \"#utility.yul\":5073:5095   */\n      add\n        /* \"#utility.yul\":5052:5105   */\n      tag_336\n      jump\t// in\n    tag_406:\n        /* \"#utility.yul\":5042:5105   */\n      swap3\n      pop\n        /* \"#utility.yul\":4997:5115   */\n      pop\n        /* \"#utility.yul\":5154:5156   */\n      0x40\n        /* \"#utility.yul\":5180:5233   */\n      tag_407\n        /* \"#utility.yul\":5225:5232   */\n      dup7\n        /* \"#utility.yul\":5216:5222   */\n      dup3\n        /* \"#utility.yul\":5205:5214   */\n      dup8\n        /* \"#utility.yul\":5201:5223   */\n      add\n        /* \"#utility.yul\":5180:5233   */\n      tag_347\n      jump\t// in\n    tag_407:\n        /* \"#utility.yul\":5170:5233   */\n      swap2\n      pop\n        /* \"#utility.yul\":5125:5243   */\n      pop\n        /* \"#utility.yul\":4798:5250   */\n      swap3\n      pop\n      swap3\n      pop\n      swap3\n      jump\t// out\n        /* \"#utility.yul\":5256:6065   */\n    tag_78:\n        /* \"#utility.yul\":5351:5357   */\n      0x00\n        /* \"#utility.yul\":5359:5365   */\n      dup1\n        /* \"#utility.yul\":5367:5373   */\n      0x00\n        /* \"#utility.yul\":5375:5381   */\n      dup1\n        /* \"#utility.yul\":5424:5427   */\n      0x80\n        /* \"#utility.yul\":5412:5421   */\n      dup6\n        /* \"#utility.yul\":5403:5410   */\n      dup8\n        /* \"#utility.yul\":5399:5422   */\n      sub\n        /* \"#utility.yul\":5395:5428   */\n      slt\n        /* \"#utility.yul\":5392:5394   */\n      iszero\n      tag_409\n      jumpi\n        /* \"#utility.yul\":5441:5442   */\n      0x00\n        /* \"#utility.yul\":5438:5439   */\n      dup1\n        /* \"#utility.yul\":5431:5443   */\n      revert\n        /* \"#utility.yul\":5392:5394   */\n    tag_409:\n        /* \"#utility.yul\":5484:5485   */\n      0x00\n        /* \"#utility.yul\":5509:5562   */\n      tag_410\n        /* \"#utility.yul\":5554:5561   */\n      dup8\n        /* \"#utility.yul\":5545:5551   */\n      dup3\n        /* \"#utility.yul\":5534:5543   */\n      dup9\n        /* \"#utility.yul\":5530:5552   */\n      add\n        /* \"#utility.yul\":5509:5562   */\n      tag_336\n      jump\t// in\n    tag_410:\n        /* \"#utility.yul\":5499:5562   */\n      swap5\n      pop\n        /* \"#utility.yul\":5455:5572   */\n      pop\n        /* \"#utility.yul\":5611:5613   */\n      0x20\n        /* \"#utility.yul\":5637:5690   */\n      tag_411\n        /* \"#utility.yul\":5682:5689   */\n      dup8\n        /* \"#utility.yul\":5673:5679   */\n      dup3\n        /* \"#utility.yul\":5662:5671   */\n      dup9\n        /* \"#utility.yul\":5658:5680   */\n      add\n        /* \"#utility.yul\":5637:5690   */\n      tag_336\n      jump\t// in\n    tag_411:\n        /* \"#utility.yul\":5627:5690   */\n      swap4\n      pop\n        /* \"#utility.yul\":5582:5700   */\n      pop\n        /* \"#utility.yul\":5739:5741   */\n      0x40\n        /* \"#utility.yul\":5765:5818   */\n      tag_412\n        /* \"#utility.yul\":5810:5817   */\n      dup8\n        /* \"#utility.yul\":5801:5807   */\n      dup3\n        /* \"#utility.yul\":5790:5799   */\n      dup9\n        /* \"#utility.yul\":5786:5808   */\n      add\n        /* \"#utility.yul\":5765:5818   */\n      tag_347\n      jump\t// in\n    tag_412:\n        /* \"#utility.yul\":5755:5818   */\n      swap3\n      pop\n        /* \"#utility.yul\":5710:5828   */\n      pop\n        /* \"#utility.yul\":5895:5897   */\n      0x60\n        /* \"#utility.yul\":5884:5893   */\n      dup6\n        /* \"#utility.yul\":5880:5898   */\n      add\n        /* \"#utility.yul\":5867:5899   */\n      calldataload\n        /* \"#utility.yul\":5926:5944   */\n      0xffffffffffffffff\n        /* \"#utility.yul\":5918:5924   */\n      dup2\n        /* \"#utility.yul\":5915:5945   */\n      gt\n        /* \"#utility.yul\":5912:5914   */\n      iszero\n      tag_413\n      jumpi\n        /* \"#utility.yul\":5958:5959   */\n      0x00\n        /* \"#utility.yul\":5955:5956   */\n      dup1\n        /* \"#utility.yul\":5948:5960   */\n      revert\n        /* \"#utility.yul\":5912:5914   */\n    tag_413:\n        /* \"#utility.yul\":5986:6048   */\n      tag_414\n        /* \"#utility.yul\":6040:6047   */\n      dup8\n        /* \"#utility.yul\":6031:6037   */\n      dup3\n        /* \"#utility.yul\":6020:6029   */\n      dup9\n        /* \"#utility.yul\":6016:6038   */\n      add\n        /* \"#utility.yul\":5986:6048   */\n      tag_385\n      jump\t// in\n    tag_414:\n        /* \"#utility.yul\":5976:6048   */\n      swap2\n      pop\n        /* \"#utility.yul\":5838:6058   */\n      pop\n        /* \"#utility.yul\":5382:6065   */\n      swap3\n      swap6\n      swap2\n      swap5\n      pop\n      swap3\n      pop\n      jump\t// out\n        /* \"#utility.yul\":6071:7168   */\n    tag_48:\n        /* \"#utility.yul\":6217:6223   */\n      0x00\n        /* \"#utility.yul\":6225:6231   */\n      dup1\n        /* \"#utility.yul\":6233:6239   */\n      0x00\n        /* \"#utility.yul\":6241:6247   */\n      dup1\n        /* \"#utility.yul\":6290:6293   */\n      0x80\n        /* \"#utility.yul\":6278:6287   */\n      dup6\n        /* \"#utility.yul\":6269:6276   */\n      dup8\n        /* \"#utility.yul\":6265:6288   */\n      sub\n        /* \"#utility.yul\":6261:6294   */\n      slt\n        /* \"#utility.yul\":6258:6260   */\n      iszero\n      tag_416\n      jumpi\n        /* \"#utility.yul\":6307:6308   */\n      0x00\n        /* \"#utility.yul\":6304:6305   */\n      dup1\n        /* \"#utility.yul\":6297:6309   */\n      revert\n        /* \"#utility.yul\":6258:6260   */\n    tag_416:\n        /* \"#utility.yul\":6350:6351   */\n      0x00\n        /* \"#utility.yul\":6375:6428   */\n      tag_417\n        /* \"#utility.yul\":6420:6427   */\n      dup8\n        /* \"#utility.yul\":6411:6417   */\n      dup3\n        /* \"#utility.yul\":6400:6409   */\n      dup9\n        /* \"#utility.yul\":6396:6418   */\n      add\n        /* \"#utility.yul\":6375:6428   */\n      tag_336\n      jump\t// in\n    tag_417:\n        /* \"#utility.yul\":6365:6428   */\n      swap5\n      pop\n        /* \"#utility.yul\":6321:6438   */\n      pop\n        /* \"#utility.yul\":6505:6507   */\n      0x20\n        /* \"#utility.yul\":6494:6503   */\n      dup6\n        /* \"#utility.yul\":6490:6508   */\n      add\n        /* \"#utility.yul\":6477:6509   */\n      calldataload\n        /* \"#utility.yul\":6536:6554   */\n      0xffffffffffffffff\n        /* \"#utility.yul\":6528:6534   */\n      dup2\n        /* \"#utility.yul\":6525:6555   */\n      gt\n        /* \"#utility.yul\":6522:6524   */\n      iszero\n      tag_418\n      jumpi\n        /* \"#utility.yul\":6568:6569   */\n      0x00\n        /* \"#utility.yul\":6565:6566   */\n      dup1\n        /* \"#utility.yul\":6558:6570   */\n      revert\n        /* \"#utility.yul\":6522:6524   */\n    tag_418:\n        /* \"#utility.yul\":6596:6674   */\n      tag_419\n        /* \"#utility.yul\":6666:6673   */\n      dup8\n        /* \"#utility.yul\":6657:6663   */\n      dup3\n        /* \"#utility.yul\":6646:6655   */\n      dup9\n        /* \"#utility.yul\":6642:6664   */\n      add\n        /* \"#utility.yul\":6596:6674   */\n      tag_366\n      jump\t// in\n    tag_419:\n        /* \"#utility.yul\":6586:6674   */\n      swap4\n      pop\n        /* \"#utility.yul\":6448:6684   */\n      pop\n        /* \"#utility.yul\":6751:6753   */\n      0x40\n        /* \"#utility.yul\":6740:6749   */\n      dup6\n        /* \"#utility.yul\":6736:6754   */\n      add\n        /* \"#utility.yul\":6723:6755   */\n      calldataload\n        /* \"#utility.yul\":6782:6800   */\n      0xffffffffffffffff\n        /* \"#utility.yul\":6774:6780   */\n      dup2\n        /* \"#utility.yul\":6771:6801   */\n      gt\n        /* \"#utility.yul\":6768:6770   */\n      iszero\n      tag_420\n      jumpi\n        /* \"#utility.yul\":6814:6815   */\n      0x00\n        /* \"#utility.yul\":6811:6812   */\n      dup1\n        /* \"#utility.yul\":6804:6816   */\n      revert\n        /* \"#utility.yul\":6768:6770   */\n    tag_420:\n        /* \"#utility.yul\":6842:6920   */\n      tag_421\n        /* \"#utility.yul\":6912:6919   */\n      dup8\n        /* \"#utility.yul\":6903:6909   */\n      dup3\n        /* \"#utility.yul\":6892:6901   */\n      dup9\n        /* \"#utility.yul\":6888:6910   */\n      add\n        /* \"#utility.yul\":6842:6920   */\n      tag_370\n      jump\t// in\n    tag_421:\n        /* \"#utility.yul\":6832:6920   */\n      swap3\n      pop\n        /* \"#utility.yul\":6694:6930   */\n      pop\n        /* \"#utility.yul\":6997:6999   */\n      0x60\n        /* \"#utility.yul\":6986:6995   */\n      dup6\n        /* \"#utility.yul\":6982:7000   */\n      add\n        /* \"#utility.yul\":6969:7001   */\n      calldataload\n        /* \"#utility.yul\":7028:7046   */\n      0xffffffffffffffff\n        /* \"#utility.yul\":7020:7026   */\n      dup2\n        /* \"#utility.yul\":7017:7047   */\n      gt\n        /* \"#utility.yul\":7014:7016   */\n      iszero\n      tag_422\n      jumpi\n        /* \"#utility.yul\":7060:7061   */\n      0x00\n        /* \"#utility.yul\":7057:7058   */\n      dup1\n        /* \"#utility.yul\":7050:7062   */\n      revert\n        /* \"#utility.yul\":7014:7016   */\n    tag_422:\n        /* \"#utility.yul\":7088:7151   */\n      tag_423\n        /* \"#utility.yul\":7143:7150   */\n      dup8\n        /* \"#utility.yul\":7134:7140   */\n      dup3\n        /* \"#utility.yul\":7123:7132   */\n      dup9\n        /* \"#utility.yul\":7119:7141   */\n      add\n        /* \"#utility.yul\":7088:7151   */\n      tag_389\n      jump\t// in\n    tag_423:\n        /* \"#utility.yul\":7078:7151   */\n      swap2\n      pop\n        /* \"#utility.yul\":6940:7161   */\n      pop\n        /* \"#utility.yul\":6248:7168   */\n      swap3\n      swap6\n      swap2\n      swap5\n      pop\n      swap3\n      pop\n      jump\t// out\n        /* \"#utility.yul\":7174:7575   */\n    tag_74:\n        /* \"#utility.yul\":7239:7245   */\n      0x00\n        /* \"#utility.yul\":7247:7253   */\n      dup1\n        /* \"#utility.yul\":7296:7298   */\n      0x40\n        /* \"#utility.yul\":7284:7293   */\n      dup4\n        /* \"#utility.yul\":7275:7282   */\n      dup6\n        /* \"#utility.yul\":7271:7294   */\n      sub\n        /* \"#utility.yul\":7267:7299   */\n      slt\n        /* \"#utility.yul\":7264:7266   */\n      iszero\n      tag_425\n      jumpi\n        /* \"#utility.yul\":7312:7313   */\n      0x00\n        /* \"#utility.yul\":7309:7310   */\n      dup1\n        /* \"#utility.yul\":7302:7314   */\n      revert\n        /* \"#utility.yul\":7264:7266   */\n    tag_425:\n        /* \"#utility.yul\":7355:7356   */\n      0x00\n        /* \"#utility.yul\":7380:7433   */\n      tag_426\n        /* \"#utility.yul\":7425:7432   */\n      dup6\n        /* \"#utility.yul\":7416:7422   */\n      dup3\n        /* \"#utility.yul\":7405:7414   */\n      dup7\n        /* \"#utility.yul\":7401:7423   */\n      add\n        /* \"#utility.yul\":7380:7433   */\n      tag_336\n      jump\t// in\n    tag_426:\n        /* \"#utility.yul\":7370:7433   */\n      swap3\n      pop\n        /* \"#utility.yul\":7326:7443   */\n      pop\n        /* \"#utility.yul\":7482:7484   */\n      0x20\n        /* \"#utility.yul\":7508:7558   */\n      tag_427\n        /* \"#utility.yul\":7550:7557   */\n      dup6\n        /* \"#utility.yul\":7541:7547   */\n      dup3\n        /* \"#utility.yul\":7530:7539   */\n      dup7\n        /* \"#utility.yul\":7526:7548   */\n      add\n        /* \"#utility.yul\":7508:7558   */\n      tag_374\n      jump\t// in\n    tag_427:\n        /* \"#utility.yul\":7498:7558   */\n      swap2\n      pop\n        /* \"#utility.yul\":7453:7568   */\n      pop\n        /* \"#utility.yul\":7254:7575   */\n      swap3\n      pop\n      swap3\n      swap1\n      pop\n      jump\t// out\n        /* \"#utility.yul\":7581:7988   */\n    tag_40:\n        /* \"#utility.yul\":7649:7655   */\n      0x00\n        /* \"#utility.yul\":7657:7663   */\n      dup1\n        /* \"#utility.yul\":7706:7708   */\n      0x40\n        /* \"#utility.yul\":7694:7703   */\n      dup4\n        /* \"#utility.yul\":7685:7692   */\n      dup6\n        /* \"#utility.yul\":7681:7704   */\n      sub\n        /* \"#utility.yul\":7677:7709   */\n      slt\n        /* \"#utility.yul\":7674:7676   */\n      iszero\n      tag_429\n      jumpi\n        /* \"#utility.yul\":7722:7723   */\n      0x00\n        /* \"#utility.yul\":7719:7720   */\n      dup1\n        /* \"#utility.yul\":7712:7724   */\n      revert\n        /* \"#utility.yul\":7674:7676   */\n    tag_429:\n        /* \"#utility.yul\":7765:7766   */\n      0x00\n        /* \"#utility.yul\":7790:7843   */\n      tag_430\n        /* \"#utility.yul\":7835:7842   */\n      dup6\n        /* \"#utility.yul\":7826:7832   */\n      dup3\n        /* \"#utility.yul\":7815:7824   */\n      dup7\n        /* \"#utility.yul\":7811:7833   */\n      add\n        /* \"#utility.yul\":7790:7843   */\n      tag_336\n      jump\t// in\n    tag_430:\n        /* \"#utility.yul\":7780:7843   */\n      swap3\n      pop\n        /* \"#utility.yul\":7736:7853   */\n      pop\n        /* \"#utility.yul\":7892:7894   */\n      0x20\n        /* \"#utility.yul\":7918:7971   */\n      tag_431\n        /* \"#utility.yul\":7963:7970   */\n      dup6\n        /* \"#utility.yul\":7954:7960   */\n      dup3\n        /* \"#utility.yul\":7943:7952   */\n      dup7\n        /* \"#utility.yul\":7939:7961   */\n      add\n        /* \"#utility.yul\":7918:7971   */\n      tag_347\n      jump\t// in\n    tag_431:\n        /* \"#utility.yul\":7908:7971   */\n      swap2\n      pop\n        /* \"#utility.yul\":7863:7981   */\n      pop\n        /* \"#utility.yul\":7664:7988   */\n      swap3\n      pop\n      swap3\n      swap1\n      pop\n      jump\t// out\n        /* \"#utility.yul\":7994:8254   */\n    tag_24:\n        /* \"#utility.yul\":8052:8058   */\n      0x00\n        /* \"#utility.yul\":8101:8103   */\n      0x20\n        /* \"#utility.yul\":8089:8098   */\n      dup3\n        /* \"#utility.yul\":8080:8087   */\n      dup5\n        /* \"#utility.yul\":8076:8099   */\n      sub\n        /* \"#utility.yul\":8072:8104   */\n      slt\n        /* \"#utility.yul\":8069:8071   */\n      iszero\n      tag_433\n      jumpi\n        /* \"#utility.yul\":8117:8118   */\n      0x00\n        /* \"#utility.yul\":8114:8115   */\n      dup1\n        /* \"#utility.yul\":8107:8119   */\n      revert\n        /* \"#utility.yul\":8069:8071   */\n    tag_433:\n        /* \"#utility.yul\":8160:8161   */\n      0x00\n        /* \"#utility.yul\":8185:8237   */\n      tag_434\n        /* \"#utility.yul\":8229:8236   */\n      dup5\n        /* \"#utility.yul\":8220:8226   */\n      dup3\n        /* \"#utility.yul\":8209:8218   */\n      dup6\n        /* \"#utility.yul\":8205:8227   */\n      add\n        /* \"#utility.yul\":8185:8237   */\n      tag_378\n      jump\t// in\n    tag_434:\n        /* \"#utility.yul\":8175:8237   */\n      swap2\n      pop\n        /* \"#utility.yul\":8131:8247   */\n      pop\n        /* \"#utility.yul\":8059:8254   */\n      swap3\n      swap2\n      pop\n      pop\n      jump\t// out\n        /* \"#utility.yul\":8260:8542   */\n    tag_276:\n        /* \"#utility.yul\":8329:8335   */\n      0x00\n        /* \"#utility.yul\":8378:8380   */\n      0x20\n        /* \"#utility.yul\":8366:8375   */\n      dup3\n        /* \"#utility.yul\":8357:8364   */\n      dup5\n        /* \"#utility.yul\":8353:8376   */\n      sub\n        /* \"#utility.yul\":8349:8381   */\n      slt\n        /* \"#utility.yul\":8346:8348   */\n      iszero\n      tag_436\n      jumpi\n        /* \"#utility.yul\":8394:8395   */\n      0x00\n        /* \"#utility.yul\":8391:8392   */\n      dup1\n        /* \"#utility.yul\":8384:8396   */\n      revert\n        /* \"#utility.yul\":8346:8348   */\n    tag_436:\n        /* \"#utility.yul\":8437:8438   */\n      0x00\n        /* \"#utility.yul\":8462:8525   */\n      tag_437\n        /* \"#utility.yul\":8517:8524   */\n      dup5\n        /* \"#utility.yul\":8508:8514   */\n      dup3\n        /* \"#utility.yul\":8497:8506   */\n      dup6\n        /* \"#utility.yul\":8493:8515   */\n      add\n        /* \"#utility.yul\":8462:8525   */\n      tag_382\n      jump\t// in\n    tag_437:\n        /* \"#utility.yul\":8452:8525   */\n      swap2\n      pop\n        /* \"#utility.yul\":8408:8535   */\n      pop\n        /* \"#utility.yul\":8336:8542   */\n      swap3\n      swap2\n      pop\n      pop\n      jump\t// out\n        /* \"#utility.yul\":8548:8810   */\n    tag_34:\n        /* \"#utility.yul\":8607:8613   */\n      0x00\n        /* \"#utility.yul\":8656:8658   */\n      0x20\n        /* \"#utility.yul\":8644:8653   */\n      dup3\n        /* \"#utility.yul\":8635:8642   */\n      dup5\n        /* \"#utility.yul\":8631:8654   */\n      sub\n        /* \"#utility.yul\":8627:8659   */\n      slt\n        /* \"#utility.yul\":8624:8626   */\n      iszero\n      tag_439\n      jumpi\n        /* \"#utility.yul\":8672:8673   */\n      0x00\n        /* \"#utility.yul\":8669:8670   */\n      dup1\n        /* \"#utility.yul\":8662:8674   */\n      revert\n        /* \"#utility.yul\":8624:8626   */\n    tag_439:\n        /* \"#utility.yul\":8715:8716   */\n      0x00\n        /* \"#utility.yul\":8740:8793   */\n      tag_440\n        /* \"#utility.yul\":8785:8792   */\n      dup5\n        /* \"#utility.yul\":8776:8782   */\n      dup3\n        /* \"#utility.yul\":8765:8774   */\n      dup6\n        /* \"#utility.yul\":8761:8783   */\n      add\n        /* \"#utility.yul\":8740:8793   */\n      tag_347\n      jump\t// in\n    tag_440:\n        /* \"#utility.yul\":8730:8793   */\n      swap2\n      pop\n        /* \"#utility.yul\":8686:8803   */\n      pop\n        /* \"#utility.yul\":8614:8810   */\n      swap3\n      swap2\n      pop\n      pop\n      jump\t// out\n        /* \"#utility.yul\":8816:8995   */\n    tag_441:\n        /* \"#utility.yul\":8885:8895   */\n      0x00\n        /* \"#utility.yul\":8906:8952   */\n      tag_443\n        /* \"#utility.yul\":8948:8951   */\n      dup4\n        /* \"#utility.yul\":8940:8946   */\n      dup4\n        /* \"#utility.yul\":8906:8952   */\n      tag_444\n      jump\t// in\n    tag_443:\n        /* \"#utility.yul\":8984:8988   */\n      0x20\n        /* \"#utility.yul\":8979:8982   */\n      dup4\n        /* \"#utility.yul\":8975:8989   */\n      add\n        /* \"#utility.yul\":8961:8989   */\n      swap1\n      pop\n        /* \"#utility.yul\":8896:8995   */\n      swap3\n      swap2\n      pop\n      pop\n      jump\t// out\n        /* \"#utility.yul\":9001:9180   */\n    tag_445:\n        /* \"#utility.yul\":9070:9080   */\n      0x00\n        /* \"#utility.yul\":9091:9137   */\n      tag_447\n        /* \"#utility.yul\":9133:9136   */\n      dup4\n        /* \"#utility.yul\":9125:9131   */\n      dup4\n        /* \"#utility.yul\":9091:9137   */\n      tag_448\n      jump\t// in\n    tag_447:\n        /* \"#utility.yul\":9169:9173   */\n      0x20\n        /* \"#utility.yul\":9164:9167   */\n      dup4\n        /* \"#utility.yul\":9160:9174   */\n      add\n        /* \"#utility.yul\":9146:9174   */\n      swap1\n      pop\n        /* \"#utility.yul\":9081:9180   */\n      swap3\n      swap2\n      pop\n      pop\n      jump\t// out\n        /* \"#utility.yul\":9186:9294   */\n    tag_444:\n        /* \"#utility.yul\":9263:9287   */\n      tag_450\n        /* \"#utility.yul\":9281:9286   */\n      dup2\n        /* \"#utility.yul\":9263:9287   */\n      tag_451\n      jump\t// in\n    tag_450:\n        /* \"#utility.yul\":9258:9261   */\n      dup3\n        /* \"#utility.yul\":9251:9288   */\n      mstore\n        /* \"#utility.yul\":9241:9294   */\n      pop\n      pop\n      jump\t// out\n        /* \"#utility.yul\":9300:9418   */\n    tag_452:\n        /* \"#utility.yul\":9387:9411   */\n      tag_454\n        /* \"#utility.yul\":9405:9410   */\n      dup2\n        /* \"#utility.yul\":9387:9411   */\n      tag_451\n      jump\t// in\n    tag_454:\n        /* \"#utility.yul\":9382:9385   */\n      dup3\n        /* \"#utility.yul\":9375:9412   */\n      mstore\n        /* \"#utility.yul\":9365:9418   */\n      pop\n      pop\n      jump\t// out\n        /* \"#utility.yul\":9454:10186   */\n    tag_455:\n        /* \"#utility.yul\":9573:9576   */\n      0x00\n        /* \"#utility.yul\":9602:9656   */\n      tag_457\n        /* \"#utility.yul\":9650:9655   */\n      dup3\n        /* \"#utility.yul\":9602:9656   */\n      tag_458\n      jump\t// in\n    tag_457:\n        /* \"#utility.yul\":9672:9758   */\n      tag_459\n        /* \"#utility.yul\":9751:9757   */\n      dup2\n        /* \"#utility.yul\":9746:9749   */\n      dup6\n        /* \"#utility.yul\":9672:9758   */\n      tag_460\n      jump\t// in\n    tag_459:\n        /* \"#utility.yul\":9665:9758   */\n      swap4\n      pop\n        /* \"#utility.yul\":9782:9838   */\n      tag_461\n        /* \"#utility.yul\":9832:9837   */\n      dup4\n        /* \"#utility.yul\":9782:9838   */\n      tag_462\n      jump\t// in\n    tag_461:\n        /* \"#utility.yul\":9861:9868   */\n      dup1\n        /* \"#utility.yul\":9892:9893   */\n      0x00\n        /* \"#utility.yul\":9877:10161   */\n    tag_463:\n        /* \"#utility.yul\":9902:9908   */\n      dup4\n        /* \"#utility.yul\":9899:9900   */\n      dup2\n        /* \"#utility.yul\":9896:9909   */\n      lt\n        /* \"#utility.yul\":9877:10161   */\n      iszero\n      tag_465\n      jumpi\n        /* \"#utility.yul\":9978:9984   */\n      dup2\n        /* \"#utility.yul\":9972:9985   */\n      mload\n        /* \"#utility.yul\":10005:10068   */\n      tag_466\n        /* \"#utility.yul\":10064:10067   */\n      dup9\n        /* \"#utility.yul\":10049:10062   */\n      dup3\n        /* \"#utility.yul\":10005:10068   */\n      tag_441\n      jump\t// in\n    tag_466:\n        /* \"#utility.yul\":9998:10068   */\n      swap8\n      pop\n        /* \"#utility.yul\":10091:10151   */\n      tag_467\n        /* \"#utility.yul\":10144:10150   */\n      dup4\n        /* \"#utility.yul\":10091:10151   */\n      tag_468\n      jump\t// in\n    tag_467:\n        /* \"#utility.yul\":10081:10151   */\n      swap3\n      pop\n        /* \"#utility.yul\":9937:10161   */\n      pop\n        /* \"#utility.yul\":9924:9925   */\n      0x01\n        /* \"#utility.yul\":9921:9922   */\n      dup2\n        /* \"#utility.yul\":9917:9926   */\n      add\n        /* \"#utility.yul\":9912:9926   */\n      swap1\n      pop\n        /* \"#utility.yul\":9877:10161   */\n      jump(tag_463)\n    tag_465:\n        /* \"#utility.yul\":9881:9895   */\n      pop\n        /* \"#utility.yul\":10177:10180   */\n      dup6\n        /* \"#utility.yul\":10170:10180   */\n      swap4\n      pop\n        /* \"#utility.yul\":9578:10186   */\n      pop\n      pop\n      pop\n      swap3\n      swap2\n      pop\n      pop\n      jump\t// out\n        /* \"#utility.yul\":10222:10954   */\n    tag_469:\n        /* \"#utility.yul\":10341:10344   */\n      0x00\n        /* \"#utility.yul\":10370:10424   */\n      tag_471\n        /* \"#utility.yul\":10418:10423   */\n      dup3\n        /* \"#utility.yul\":10370:10424   */\n      tag_472\n      jump\t// in\n    tag_471:\n        /* \"#utility.yul\":10440:10526   */\n      tag_473\n        /* \"#utility.yul\":10519:10525   */\n      dup2\n        /* \"#utility.yul\":10514:10517   */\n      dup6\n        /* \"#utility.yul\":10440:10526   */\n      tag_474\n      jump\t// in\n    tag_473:\n        /* \"#utility.yul\":10433:10526   */\n      swap4\n      pop\n        /* \"#utility.yul\":10550:10606   */\n      tag_475\n        /* \"#utility.yul\":10600:10605   */\n      dup4\n        /* \"#utility.yul\":10550:10606   */\n      tag_476\n      jump\t// in\n    tag_475:\n        /* \"#utility.yul\":10629:10636   */\n      dup1\n        /* \"#utility.yul\":10660:10661   */\n      0x00\n        /* \"#utility.yul\":10645:10929   */\n    tag_477:\n        /* \"#utility.yul\":10670:10676   */\n      dup4\n        /* \"#utility.yul\":10667:10668   */\n      dup2\n        /* \"#utility.yul\":10664:10677   */\n      lt\n        /* \"#utility.yul\":10645:10929   */\n      iszero\n      tag_479\n      jumpi\n        /* \"#utility.yul\":10746:10752   */\n      dup2\n        /* \"#utility.yul\":10740:10753   */\n      mload\n        /* \"#utility.yul\":10773:10836   */\n      tag_480\n        /* \"#utility.yul\":10832:10835   */\n      dup9\n        /* \"#utility.yul\":10817:10830   */\n      dup3\n        /* \"#utility.yul\":10773:10836   */\n      tag_445\n      jump\t// in\n    tag_480:\n        /* \"#utility.yul\":10766:10836   */\n      swap8\n      pop\n        /* \"#utility.yul\":10859:10919   */\n      tag_481\n        /* \"#utility.yul\":10912:10918   */\n      dup4\n        /* \"#utility.yul\":10859:10919   */\n      tag_482\n      jump\t// in\n    tag_481:\n        /* \"#utility.yul\":10849:10919   */\n      swap3\n      pop\n        /* \"#utility.yul\":10705:10929   */\n      pop\n        /* \"#utility.yul\":10692:10693   */\n      0x01\n        /* \"#utility.yul\":10689:10690   */\n      dup2\n        /* \"#utility.yul\":10685:10694   */\n      add\n        /* \"#utility.yul\":10680:10694   */\n      swap1\n      pop\n        /* \"#utility.yul\":10645:10929   */\n      jump(tag_477)\n    tag_479:\n        /* \"#utility.yul\":10649:10663   */\n      pop\n        /* \"#utility.yul\":10945:10948   */\n      dup6\n        /* \"#utility.yul\":10938:10948   */\n      swap4\n      pop\n        /* \"#utility.yul\":10346:10954   */\n      pop\n      pop\n      pop\n      swap3\n      swap2\n      pop\n      pop\n      jump\t// out\n        /* \"#utility.yul\":10960:11069   */\n    tag_483:\n        /* \"#utility.yul\":11041:11062   */\n      tag_485\n        /* \"#utility.yul\":11056:11061   */\n      dup2\n        /* \"#utility.yul\":11041:11062   */\n      tag_486\n      jump\t// in\n    tag_485:\n        /* \"#utility.yul\":11036:11039   */\n      dup3\n        /* \"#utility.yul\":11029:11063   */\n      mstore\n        /* \"#utility.yul\":11019:11069   */\n      pop\n      pop\n      jump\t// out\n        /* \"#utility.yul\":11075:11435   */\n    tag_487:\n        /* \"#utility.yul\":11161:11164   */\n      0x00\n        /* \"#utility.yul\":11189:11227   */\n      tag_489\n        /* \"#utility.yul\":11221:11226   */\n      dup3\n        /* \"#utility.yul\":11189:11227   */\n      tag_490\n      jump\t// in\n    tag_489:\n        /* \"#utility.yul\":11243:11313   */\n      tag_491\n        /* \"#utility.yul\":11306:11312   */\n      dup2\n        /* \"#utility.yul\":11301:11304   */\n      dup6\n        /* \"#utility.yul\":11243:11313   */\n      tag_492\n      jump\t// in\n    tag_491:\n        /* \"#utility.yul\":11236:11313   */\n      swap4\n      pop\n        /* \"#utility.yul\":11322:11374   */\n      tag_493\n        /* \"#utility.yul\":11367:11373   */\n      dup2\n        /* \"#utility.yul\":11362:11365   */\n      dup6\n        /* \"#utility.yul\":11355:11359   */\n      0x20\n        /* \"#utility.yul\":11348:11353   */\n      dup7\n        /* \"#utility.yul\":11344:11360   */\n      add\n        /* \"#utility.yul\":11322:11374   */\n      tag_494\n      jump\t// in\n    tag_493:\n        /* \"#utility.yul\":11399:11428   */\n      tag_495\n        /* \"#utility.yul\":11421:11427   */\n      dup2\n        /* \"#utility.yul\":11399:11428   */\n      tag_496\n      jump\t// in\n    tag_495:\n        /* \"#utility.yul\":11394:11397   */\n      dup5\n        /* \"#utility.yul\":11390:11429   */\n      add\n        /* \"#utility.yul\":11383:11429   */\n      swap2\n      pop\n        /* \"#utility.yul\":11165:11435   */\n      pop\n      swap3\n      swap2\n      pop\n      pop\n      jump\t// out\n        /* \"#utility.yul\":11441:11805   */\n    tag_497:\n        /* \"#utility.yul\":11529:11532   */\n      0x00\n        /* \"#utility.yul\":11557:11596   */\n      tag_499\n        /* \"#utility.yul\":11590:11595   */\n      dup3\n        /* \"#utility.yul\":11557:11596   */\n      tag_500\n      jump\t// in\n    tag_499:\n        /* \"#utility.yul\":11612:11683   */\n      tag_501\n        /* \"#utility.yul\":11676:11682   */\n      dup2\n        /* \"#utility.yul\":11671:11674   */\n      dup6\n        /* \"#utility.yul\":11612:11683   */\n      tag_502\n      jump\t// in\n    tag_501:\n        /* \"#utility.yul\":11605:11683   */\n      swap4\n      pop\n        /* \"#utility.yul\":11692:11744   */\n      tag_503\n        /* \"#utility.yul\":11737:11743   */\n      dup2\n        /* \"#utility.yul\":11732:11735   */\n      dup6\n        /* \"#utility.yul\":11725:11729   */\n      0x20\n        /* \"#utility.yul\":11718:11723   */\n      dup7\n        /* \"#utility.yul\":11714:11730   */\n      add\n        /* \"#utility.yul\":11692:11744   */\n      tag_494\n      jump\t// in\n    tag_503:\n        /* \"#utility.yul\":11769:11798   */\n      tag_504\n        /* \"#utility.yul\":11791:11797   */\n      dup2\n        /* \"#utility.yul\":11769:11798   */\n      tag_496\n      jump\t// in\n    tag_504:\n        /* \"#utility.yul\":11764:11767   */\n      dup5\n        /* \"#utility.yul\":11760:11799   */\n      add\n        /* \"#utility.yul\":11753:11799   */\n      swap2\n      pop\n        /* \"#utility.yul\":11533:11805   */\n      pop\n      swap3\n      swap2\n      pop\n      pop\n      jump\t// out\n        /* \"#utility.yul\":11811:12188   */\n    tag_505:\n        /* \"#utility.yul\":11917:11920   */\n      0x00\n        /* \"#utility.yul\":11945:11984   */\n      tag_507\n        /* \"#utility.yul\":11978:11983   */\n      dup3\n        /* \"#utility.yul\":11945:11984   */\n      tag_500\n      jump\t// in\n    tag_507:\n        /* \"#utility.yul\":12000:12089   */\n      tag_508\n        /* \"#utility.yul\":12082:12088   */\n      dup2\n        /* \"#utility.yul\":12077:12080   */\n      dup6\n        /* \"#utility.yul\":12000:12089   */\n      tag_509\n      jump\t// in\n    tag_508:\n        /* \"#utility.yul\":11993:12089   */\n      swap4\n      pop\n        /* \"#utility.yul\":12098:12150   */\n      tag_510\n        /* \"#utility.yul\":12143:12149   */\n      dup2\n        /* \"#utility.yul\":12138:12141   */\n      dup6\n        /* \"#utility.yul\":12131:12135   */\n      0x20\n        /* \"#utility.yul\":12124:12129   */\n      dup7\n        /* \"#utility.yul\":12120:12136   */\n      add\n        /* \"#utility.yul\":12098:12150   */\n      tag_494\n      jump\t// in\n    tag_510:\n        /* \"#utility.yul\":12175:12181   */\n      dup1\n        /* \"#utility.yul\":12170:12173   */\n      dup5\n        /* \"#utility.yul\":12166:12182   */\n      add\n        /* \"#utility.yul\":12159:12182   */\n      swap2\n      pop\n        /* \"#utility.yul\":11921:12188   */\n      pop\n      swap3\n      swap2\n      pop\n      pop\n      jump\t// out\n        /* \"#utility.yul\":12194:12560   */\n    tag_511:\n        /* \"#utility.yul\":12336:12339   */\n      0x00\n        /* \"#utility.yul\":12357:12424   */\n      tag_513\n        /* \"#utility.yul\":12421:12423   */\n      0x2d\n        /* \"#utility.yul\":12416:12419   */\n      dup4\n        /* \"#utility.yul\":12357:12424   */\n      tag_502\n      jump\t// in\n    tag_513:\n        /* \"#utility.yul\":12350:12424   */\n      swap2\n      pop\n        /* \"#utility.yul\":12433:12526   */\n      tag_514\n        /* \"#utility.yul\":12522:12525   */\n      dup3\n        /* \"#utility.yul\":12433:12526   */\n      tag_515\n      jump\t// in\n    tag_514:\n        /* \"#utility.yul\":12551:12553   */\n      0x40\n        /* \"#utility.yul\":12546:12549   */\n      dup3\n        /* \"#utility.yul\":12542:12554   */\n      add\n        /* \"#utility.yul\":12535:12554   */\n      swap1\n      pop\n        /* \"#utility.yul\":12340:12560   */\n      swap2\n      swap1\n      pop\n      jump\t// out\n        /* \"#utility.yul\":12566:12932   */\n    tag_516:\n        /* \"#utility.yul\":12708:12711   */\n      0x00\n        /* \"#utility.yul\":12729:12796   */\n      tag_518\n        /* \"#utility.yul\":12793:12795   */\n      0x32\n        /* \"#utility.yul\":12788:12791   */\n      dup4\n        /* \"#utility.yul\":12729:12796   */\n      tag_502\n      jump\t// in\n    tag_518:\n        /* \"#utility.yul\":12722:12796   */\n      swap2\n      pop\n        /* \"#utility.yul\":12805:12898   */\n      tag_519\n        /* \"#utility.yul\":12894:12897   */\n      dup3\n        /* \"#utility.yul\":12805:12898   */\n      tag_520\n      jump\t// in\n    tag_519:\n        /* \"#utility.yul\":12923:12925   */\n      0x40\n        /* \"#utility.yul\":12918:12921   */\n      dup3\n        /* \"#utility.yul\":12914:12926   */\n      add\n        /* \"#utility.yul\":12907:12926   */\n      swap1\n      pop\n        /* \"#utility.yul\":12712:12932   */\n      swap2\n      swap1\n      pop\n      jump\t// out\n        /* \"#utility.yul\":12938:13304   */\n    tag_521:\n        /* \"#utility.yul\":13080:13083   */\n      0x00\n        /* \"#utility.yul\":13101:13168   */\n      tag_523\n        /* \"#utility.yul\":13165:13167   */\n      0x25\n        /* \"#utility.yul\":13160:13163   */\n      dup4\n        /* \"#utility.yul\":13101:13168   */\n      tag_502\n      jump\t// in\n    tag_523:\n        /* \"#utility.yul\":13094:13168   */\n      swap2\n      pop\n        /* \"#utility.yul\":13177:13270   */\n      tag_524\n        /* \"#utility.yul\":13266:13269   */\n      dup3\n        /* \"#utility.yul\":13177:13270   */\n      tag_525\n      jump\t// in\n    tag_524:\n        /* \"#utility.yul\":13295:13297   */\n      0x40\n        /* \"#utility.yul\":13290:13293   */\n      dup3\n        /* \"#utility.yul\":13286:13298   */\n      add\n        /* \"#utility.yul\":13279:13298   */\n      swap1\n      pop\n        /* \"#utility.yul\":13084:13304   */\n      swap2\n      swap1\n      pop\n      jump\t// out\n        /* \"#utility.yul\":13310:13676   */\n    tag_526:\n        /* \"#utility.yul\":13452:13455   */\n      0x00\n        /* \"#utility.yul\":13473:13540   */\n      tag_528\n        /* \"#utility.yul\":13537:13539   */\n      0x1c\n        /* \"#utility.yul\":13532:13535   */\n      dup4\n        /* \"#utility.yul\":13473:13540   */\n      tag_502\n      jump\t// in\n    tag_528:\n        /* \"#utility.yul\":13466:13540   */\n      swap2\n      pop\n        /* \"#utility.yul\":13549:13642   */\n      tag_529\n        /* \"#utility.yul\":13638:13641   */\n      dup3\n        /* \"#utility.yul\":13549:13642   */\n      tag_530\n      jump\t// in\n    tag_529:\n        /* \"#utility.yul\":13667:13669   */\n      0x20\n        /* \"#utility.yul\":13662:13665   */\n      dup3\n        /* \"#utility.yul\":13658:13670   */\n      add\n        /* \"#utility.yul\":13651:13670   */\n      swap1\n      pop\n        /* \"#utility.yul\":13456:13676   */\n      swap2\n      swap1\n      pop\n      jump\t// out\n        /* \"#utility.yul\":13682:14048   */\n    tag_531:\n        /* \"#utility.yul\":13824:13827   */\n      0x00\n        /* \"#utility.yul\":13845:13912   */\n      tag_533\n        /* \"#utility.yul\":13909:13911   */\n      0x24\n        /* \"#utility.yul\":13904:13907   */\n      dup4\n        /* \"#utility.yul\":13845:13912   */\n      tag_502\n      jump\t// in\n    tag_533:\n        /* \"#utility.yul\":13838:13912   */\n      swap2\n      pop\n        /* \"#utility.yul\":13921:14014   */\n      tag_534\n        /* \"#utility.yul\":14010:14013   */\n      dup3\n        /* \"#utility.yul\":13921:14014   */\n      tag_535\n      jump\t// in\n    tag_534:\n        /* \"#utility.yul\":14039:14041   */\n      0x40\n        /* \"#utility.yul\":14034:14037   */\n      dup3\n        /* \"#utility.yul\":14030:14042   */\n      add\n        /* \"#utility.yul\":14023:14042   */\n      swap1\n      pop\n        /* \"#utility.yul\":13828:14048   */\n      swap2\n      swap1\n      pop\n      jump\t// out\n        /* \"#utility.yul\":14054:14420   */\n    tag_536:\n        /* \"#utility.yul\":14196:14199   */\n      0x00\n        /* \"#utility.yul\":14217:14284   */\n      tag_538\n        /* \"#utility.yul\":14281:14283   */\n      0x19\n        /* \"#utility.yul\":14276:14279   */\n      dup4\n        /* \"#utility.yul\":14217:14284   */\n      tag_502\n      jump\t// in\n    tag_538:\n        /* \"#utility.yul\":14210:14284   */\n      swap2\n      pop\n        /* \"#utility.yul\":14293:14386   */\n      tag_539\n        /* \"#utility.yul\":14382:14385   */\n      dup3\n        /* \"#utility.yul\":14293:14386   */\n      tag_540\n      jump\t// in\n    tag_539:\n        /* \"#utility.yul\":14411:14413   */\n      0x20\n        /* \"#utility.yul\":14406:14409   */\n      dup3\n        /* \"#utility.yul\":14402:14414   */\n      add\n        /* \"#utility.yul\":14395:14414   */\n      swap1\n      pop\n        /* \"#utility.yul\":14200:14420   */\n      swap2\n      swap1\n      pop\n      jump\t// out\n        /* \"#utility.yul\":14426:14792   */\n    tag_541:\n        /* \"#utility.yul\":14568:14571   */\n      0x00\n        /* \"#utility.yul\":14589:14656   */\n      tag_543\n        /* \"#utility.yul\":14653:14655   */\n      0x29\n        /* \"#utility.yul\":14648:14651   */\n      dup4\n        /* \"#utility.yul\":14589:14656   */\n      tag_502\n      jump\t// in\n    tag_543:\n        /* \"#utility.yul\":14582:14656   */\n      swap2\n      pop\n        /* \"#utility.yul\":14665:14758   */\n      tag_544\n        /* \"#utility.yul\":14754:14757   */\n      dup3\n        /* \"#utility.yul\":14665:14758   */\n      tag_545\n      jump\t// in\n    tag_544:\n        /* \"#utility.yul\":14783:14785   */\n      0x40\n        /* \"#utility.yul\":14778:14781   */\n      dup3\n        /* \"#utility.yul\":14774:14786   */\n      add\n        /* \"#utility.yul\":14767:14786   */\n      swap1\n      pop\n        /* \"#utility.yul\":14572:14792   */\n      swap2\n      swap1\n      pop\n      jump\t// out\n        /* \"#utility.yul\":14798:15164   */\n    tag_546:\n        /* \"#utility.yul\":14940:14943   */\n      0x00\n        /* \"#utility.yul\":14961:15028   */\n      tag_548\n        /* \"#utility.yul\":15025:15027   */\n      0x20\n        /* \"#utility.yul\":15020:15023   */\n      dup4\n        /* \"#utility.yul\":14961:15028   */\n      tag_502\n      jump\t// in\n    tag_548:\n        /* \"#utility.yul\":14954:15028   */\n      swap2\n      pop\n        /* \"#utility.yul\":15037:15130   */\n      tag_549\n        /* \"#utility.yul\":15126:15129   */\n      dup3\n        /* \"#utility.yul\":15037:15130   */\n      tag_550\n      jump\t// in\n    tag_549:\n        /* \"#utility.yul\":15155:15157   */\n      0x20\n        /* \"#utility.yul\":15150:15153   */\n      dup3\n        /* \"#utility.yul\":15146:15158   */\n      add\n        /* \"#utility.yul\":15139:15158   */\n      swap1\n      pop\n        /* \"#utility.yul\":14944:15164   */\n      swap2\n      swap1\n      pop\n      jump\t// out\n        /* \"#utility.yul\":15170:15536   */\n    tag_551:\n        /* \"#utility.yul\":15312:15315   */\n      0x00\n        /* \"#utility.yul\":15333:15400   */\n      tag_553\n        /* \"#utility.yul\":15397:15399   */\n      0x18\n        /* \"#utility.yul\":15392:15395   */\n      dup4\n        /* \"#utility.yul\":15333:15400   */\n      tag_502\n      jump\t// in\n    tag_553:\n        /* \"#utility.yul\":15326:15400   */\n      swap2\n      pop\n        /* \"#utility.yul\":15409:15502   */\n      tag_554\n        /* \"#utility.yul\":15498:15501   */\n      dup3\n        /* \"#utility.yul\":15409:15502   */\n      tag_555\n      jump\t// in\n    tag_554:\n        /* \"#utility.yul\":15527:15529   */\n      0x20\n        /* \"#utility.yul\":15522:15525   */\n      dup3\n        /* \"#utility.yul\":15518:15530   */\n      add\n        /* \"#utility.yul\":15511:15530   */\n      swap1\n      pop\n        /* \"#utility.yul\":15316:15536   */\n      swap2\n      swap1\n      pop\n      jump\t// out\n        /* \"#utility.yul\":15542:15908   */\n    tag_556:\n        /* \"#utility.yul\":15684:15687   */\n      0x00\n        /* \"#utility.yul\":15705:15772   */\n      tag_558\n        /* \"#utility.yul\":15769:15771   */\n      0x21\n        /* \"#utility.yul\":15764:15767   */\n      dup4\n        /* \"#utility.yul\":15705:15772   */\n      tag_502\n      jump\t// in\n    tag_558:\n        /* \"#utility.yul\":15698:15772   */\n      swap2\n      pop\n        /* \"#utility.yul\":15781:15874   */\n      tag_559\n        /* \"#utility.yul\":15870:15873   */\n      dup3\n        /* \"#utility.yul\":15781:15874   */\n      tag_560\n      jump\t// in\n    tag_559:\n        /* \"#utility.yul\":15899:15901   */\n      0x40\n        /* \"#utility.yul\":15894:15897   */\n      dup3\n        /* \"#utility.yul\":15890:15902   */\n      add\n        /* \"#utility.yul\":15883:15902   */\n      swap1\n      pop\n        /* \"#utility.yul\":15688:15908   */\n      swap2\n      swap1\n      pop\n      jump\t// out\n        /* \"#utility.yul\":15914:16280   */\n    tag_561:\n        /* \"#utility.yul\":16056:16059   */\n      0x00\n        /* \"#utility.yul\":16077:16144   */\n      tag_563\n        /* \"#utility.yul\":16141:16143   */\n      0x3d\n        /* \"#utility.yul\":16136:16139   */\n      dup4\n        /* \"#utility.yul\":16077:16144   */\n      tag_502\n      jump\t// in\n    tag_563:\n        /* \"#utility.yul\":16070:16144   */\n      swap2\n      pop\n        /* \"#utility.yul\":16153:16246   */\n      tag_564\n        /* \"#utility.yul\":16242:16245   */\n      dup3\n        /* \"#utility.yul\":16153:16246   */\n      tag_565\n      jump\t// in\n    tag_564:\n        /* \"#utility.yul\":16271:16273   */\n      0x40\n        /* \"#utility.yul\":16266:16269   */\n      dup3\n        /* \"#utility.yul\":16262:16274   */\n      add\n        /* \"#utility.yul\":16255:16274   */\n      swap1\n      pop\n        /* \"#utility.yul\":16060:16280   */\n      swap2\n      swap1\n      pop\n      jump\t// out\n        /* \"#utility.yul\":16286:16394   */\n    tag_448:\n        /* \"#utility.yul\":16363:16387   */\n      tag_567\n        /* \"#utility.yul\":16381:16386   */\n      dup2\n        /* \"#utility.yul\":16363:16387   */\n      tag_568\n      jump\t// in\n    tag_567:\n        /* \"#utility.yul\":16358:16361   */\n      dup3\n        /* \"#utility.yul\":16351:16388   */\n      mstore\n        /* \"#utility.yul\":16341:16394   */\n      pop\n      pop\n      jump\t// out\n        /* \"#utility.yul\":16400:16518   */\n    tag_569:\n        /* \"#utility.yul\":16487:16511   */\n      tag_571\n        /* \"#utility.yul\":16505:16510   */\n      dup2\n        /* \"#utility.yul\":16487:16511   */\n      tag_568\n      jump\t// in\n    tag_571:\n        /* \"#utility.yul\":16482:16485   */\n      dup3\n        /* \"#utility.yul\":16475:16512   */\n      mstore\n        /* \"#utility.yul\":16465:16518   */\n      pop\n      pop\n      jump\t// out\n        /* \"#utility.yul\":16524:16959   */\n    tag_181:\n        /* \"#utility.yul\":16704:16707   */\n      0x00\n        /* \"#utility.yul\":16726:16821   */\n      tag_573\n        /* \"#utility.yul\":16817:16820   */\n      dup3\n        /* \"#utility.yul\":16808:16814   */\n      dup6\n        /* \"#utility.yul\":16726:16821   */\n      tag_505\n      jump\t// in\n    tag_573:\n        /* \"#utility.yul\":16719:16821   */\n      swap2\n      pop\n        /* \"#utility.yul\":16838:16933   */\n      tag_574\n        /* \"#utility.yul\":16929:16932   */\n      dup3\n        /* \"#utility.yul\":16920:16926   */\n      dup5\n        /* \"#utility.yul\":16838:16933   */\n      tag_505\n      jump\t// in\n    tag_574:\n        /* \"#utility.yul\":16831:16933   */\n      swap2\n      pop\n        /* \"#utility.yul\":16950:16953   */\n      dup2\n        /* \"#utility.yul\":16943:16953   */\n      swap1\n      pop\n        /* \"#utility.yul\":16708:16959   */\n      swap4\n      swap3\n      pop\n      pop\n      pop\n      jump\t// out\n        /* \"#utility.yul\":16965:17187   */\n    tag_37:\n        /* \"#utility.yul\":17058:17062   */\n      0x00\n        /* \"#utility.yul\":17096:17098   */\n      0x20\n        /* \"#utility.yul\":17085:17094   */\n      dup3\n        /* \"#utility.yul\":17081:17099   */\n      add\n        /* \"#utility.yul\":17073:17099   */\n      swap1\n      pop\n        /* \"#utility.yul\":17109:17180   */\n      tag_576\n        /* \"#utility.yul\":17177:17178   */\n      0x00\n        /* \"#utility.yul\":17166:17175   */\n      dup4\n        /* \"#utility.yul\":17162:17179   */\n      add\n        /* \"#utility.yul\":17153:17159   */\n      dup5\n        /* \"#utility.yul\":17109:17180   */\n      tag_452\n      jump\t// in\n    tag_576:\n        /* \"#utility.yul\":17063:17187   */\n      swap3\n      swap2\n      pop\n      pop\n      jump\t// out\n        /* \"#utility.yul\":17193:17833   */\n    tag_272:\n        /* \"#utility.yul\":17388:17392   */\n      0x00\n        /* \"#utility.yul\":17426:17429   */\n      0x80\n        /* \"#utility.yul\":17415:17424   */\n      dup3\n        /* \"#utility.yul\":17411:17430   */\n      add\n        /* \"#utility.yul\":17403:17430   */\n      swap1\n      pop\n        /* \"#utility.yul\":17440:17511   */\n      tag_578\n        /* \"#utility.yul\":17508:17509   */\n      0x00\n        /* \"#utility.yul\":17497:17506   */\n      dup4\n        /* \"#utility.yul\":17493:17510   */\n      add\n        /* \"#utility.yul\":17484:17490   */\n      dup8\n        /* \"#utility.yul\":17440:17511   */\n      tag_452\n      jump\t// in\n    tag_578:\n        /* \"#utility.yul\":17521:17593   */\n      tag_579\n        /* \"#utility.yul\":17589:17591   */\n      0x20\n        /* \"#utility.yul\":17578:17587   */\n      dup4\n        /* \"#utility.yul\":17574:17592   */\n      add\n        /* \"#utility.yul\":17565:17571   */\n      dup7\n        /* \"#utility.yul\":17521:17593   */\n      tag_452\n      jump\t// in\n    tag_579:\n        /* \"#utility.yul\":17603:17675   */\n      tag_580\n        /* \"#utility.yul\":17671:17673   */\n      0x40\n        /* \"#utility.yul\":17660:17669   */\n      dup4\n        /* \"#utility.yul\":17656:17674   */\n      add\n        /* \"#utility.yul\":17647:17653   */\n      dup6\n        /* \"#utility.yul\":17603:17675   */\n      tag_569\n      jump\t// in\n    tag_580:\n        /* \"#utility.yul\":17722:17731   */\n      dup2\n        /* \"#utility.yul\":17716:17720   */\n      dup2\n        /* \"#utility.yul\":17712:17732   */\n      sub\n        /* \"#utility.yul\":17707:17709   */\n      0x60\n        /* \"#utility.yul\":17696:17705   */\n      dup4\n        /* \"#utility.yul\":17692:17710   */\n      add\n        /* \"#utility.yul\":17685:17733   */\n      mstore\n        /* \"#utility.yul\":17750:17826   */\n      tag_581\n        /* \"#utility.yul\":17821:17825   */\n      dup2\n        /* \"#utility.yul\":17812:17818   */\n      dup5\n        /* \"#utility.yul\":17750:17826   */\n      tag_487\n      jump\t// in\n    tag_581:\n        /* \"#utility.yul\":17742:17826   */\n      swap1\n      pop\n        /* \"#utility.yul\":17393:17833   */\n      swap6\n      swap5\n      pop\n      pop\n      pop\n      pop\n      pop\n      jump\t// out\n        /* \"#utility.yul\":17839:18212   */\n    tag_59:\n        /* \"#utility.yul\":17982:17986   */\n      0x00\n        /* \"#utility.yul\":18020:18022   */\n      0x20\n        /* \"#utility.yul\":18009:18018   */\n      dup3\n        /* \"#utility.yul\":18005:18023   */\n      add\n        /* \"#utility.yul\":17997:18023   */\n      swap1\n      pop\n        /* \"#utility.yul\":18069:18078   */\n      dup2\n        /* \"#utility.yul\":18063:18067   */\n      dup2\n        /* \"#utility.yul\":18059:18079   */\n      sub\n        /* \"#utility.yul\":18055:18056   */\n      0x00\n        /* \"#utility.yul\":18044:18053   */\n      dup4\n        /* \"#utility.yul\":18040:18057   */\n      add\n        /* \"#utility.yul\":18033:18080   */\n      mstore\n        /* \"#utility.yul\":18097:18205   */\n      tag_583\n        /* \"#utility.yul\":18200:18204   */\n      dup2\n        /* \"#utility.yul\":18191:18197   */\n      dup5\n        /* \"#utility.yul\":18097:18205   */\n      tag_455\n      jump\t// in\n    tag_583:\n        /* \"#utility.yul\":18089:18205   */\n      swap1\n      pop\n        /* \"#utility.yul\":17987:18212   */\n      swap3\n      swap2\n      pop\n      pop\n      jump\t// out\n        /* \"#utility.yul\":18218:18591   */\n    tag_93:\n        /* \"#utility.yul\":18361:18365   */\n      0x00\n        /* \"#utility.yul\":18399:18401   */\n      0x20\n        /* \"#utility.yul\":18388:18397   */\n      dup3\n        /* \"#utility.yul\":18384:18402   */\n      add\n        /* \"#utility.yul\":18376:18402   */\n      swap1\n      pop\n        /* \"#utility.yul\":18448:18457   */\n      dup2\n        /* \"#utility.yul\":18442:18446   */\n      dup2\n        /* \"#utility.yul\":18438:18458   */\n      sub\n        /* \"#utility.yul\":18434:18435   */\n      0x00\n        /* \"#utility.yul\":18423:18432   */\n      dup4\n        /* \"#utility.yul\":18419:18436   */\n      add\n        /* \"#utility.yul\":18412:18459   */\n      mstore\n        /* \"#utility.yul\":18476:18584   */\n      tag_585\n        /* \"#utility.yul\":18579:18583   */\n      dup2\n        /* \"#utility.yul\":18570:18576   */\n      dup5\n        /* \"#utility.yul\":18476:18584   */\n      tag_469\n      jump\t// in\n    tag_585:\n        /* \"#utility.yul\":18468:18584   */\n      swap1\n      pop\n        /* \"#utility.yul\":18366:18591   */\n      swap3\n      swap2\n      pop\n      pop\n      jump\t// out\n        /* \"#utility.yul\":18597:18807   */\n    tag_27:\n        /* \"#utility.yul\":18684:18688   */\n      0x00\n        /* \"#utility.yul\":18722:18724   */\n      0x20\n        /* \"#utility.yul\":18711:18720   */\n      dup3\n        /* \"#utility.yul\":18707:18725   */\n      add\n        /* \"#utility.yul\":18699:18725   */\n      swap1\n      pop\n        /* \"#utility.yul\":18735:18800   */\n      tag_587\n        /* \"#utility.yul\":18797:18798   */\n      0x00\n        /* \"#utility.yul\":18786:18795   */\n      dup4\n        /* \"#utility.yul\":18782:18799   */\n      add\n        /* \"#utility.yul\":18773:18779   */\n      dup5\n        /* \"#utility.yul\":18735:18800   */\n      tag_483\n      jump\t// in\n    tag_587:\n        /* \"#utility.yul\":18689:18807   */\n      swap3\n      swap2\n      pop\n      pop\n      jump\t// out\n        /* \"#utility.yul\":18813:19126   */\n    tag_31:\n        /* \"#utility.yul\":18926:18930   */\n      0x00\n        /* \"#utility.yul\":18964:18966   */\n      0x20\n        /* \"#utility.yul\":18953:18962   */\n      dup3\n        /* \"#utility.yul\":18949:18967   */\n      add\n        /* \"#utility.yul\":18941:18967   */\n      swap1\n      pop\n        /* \"#utility.yul\":19013:19022   */\n      dup2\n        /* \"#utility.yul\":19007:19011   */\n      dup2\n        /* \"#utility.yul\":19003:19023   */\n      sub\n        /* \"#utility.yul\":18999:19000   */\n      0x00\n        /* \"#utility.yul\":18988:18997   */\n      dup4\n        /* \"#utility.yul\":18984:19001   */\n      add\n        /* \"#utility.yul\":18977:19024   */\n      mstore\n        /* \"#utility.yul\":19041:19119   */\n      tag_589\n        /* \"#utility.yul\":19114:19118   */\n      dup2\n        /* \"#utility.yul\":19105:19111   */\n      dup5\n        /* \"#utility.yul\":19041:19119   */\n      tag_497\n      jump\t// in\n    tag_589:\n        /* \"#utility.yul\":19033:19119   */\n      swap1\n      pop\n        /* \"#utility.yul\":18931:19126   */\n      swap3\n      swap2\n      pop\n      pop\n      jump\t// out\n        /* \"#utility.yul\":19132:19551   */\n    tag_130:\n        /* \"#utility.yul\":19298:19302   */\n      0x00\n        /* \"#utility.yul\":19336:19338   */\n      0x20\n        /* \"#utility.yul\":19325:19334   */\n      dup3\n        /* \"#utility.yul\":19321:19339   */\n      add\n        /* \"#utility.yul\":19313:19339   */\n      swap1\n      pop\n        /* \"#utility.yul\":19385:19394   */\n      dup2\n        /* \"#utility.yul\":19379:19383   */\n      dup2\n        /* \"#utility.yul\":19375:19395   */\n      sub\n        /* \"#utility.yul\":19371:19372   */\n      0x00\n        /* \"#utility.yul\":19360:19369   */\n      dup4\n        /* \"#utility.yul\":19356:19373   */\n      add\n        /* \"#utility.yul\":19349:19396   */\n      mstore\n        /* \"#utility.yul\":19413:19544   */\n      tag_591\n        /* \"#utility.yul\":19539:19543   */\n      dup2\n        /* \"#utility.yul\":19413:19544   */\n      tag_511\n      jump\t// in\n    tag_591:\n        /* \"#utility.yul\":19405:19544   */\n      swap1\n      pop\n        /* \"#utility.yul\":19303:19551   */\n      swap2\n      swap1\n      pop\n      jump\t// out\n        /* \"#utility.yul\":19557:19976   */\n    tag_235:\n        /* \"#utility.yul\":19723:19727   */\n      0x00\n        /* \"#utility.yul\":19761:19763   */\n      0x20\n        /* \"#utility.yul\":19750:19759   */\n      dup3\n        /* \"#utility.yul\":19746:19764   */\n      add\n        /* \"#utility.yul\":19738:19764   */\n      swap1\n      pop\n        /* \"#utility.yul\":19810:19819   */\n      dup2\n        /* \"#utility.yul\":19804:19808   */\n      dup2\n        /* \"#utility.yul\":19800:19820   */\n      sub\n        /* \"#utility.yul\":19796:19797   */\n      0x00\n        /* \"#utility.yul\":19785:19794   */\n      dup4\n        /* \"#utility.yul\":19781:19798   */\n      add\n        /* \"#utility.yul\":19774:19821   */\n      mstore\n        /* \"#utility.yul\":19838:19969   */\n      tag_593\n        /* \"#utility.yul\":19964:19968   */\n      dup2\n        /* \"#utility.yul\":19838:19969   */\n      tag_516\n      jump\t// in\n    tag_593:\n        /* \"#utility.yul\":19830:19969   */\n      swap1\n      pop\n        /* \"#utility.yul\":19728:19976   */\n      swap2\n      swap1\n      pop\n      jump\t// out\n        /* \"#utility.yul\":19982:20401   */\n    tag_205:\n        /* \"#utility.yul\":20148:20152   */\n      0x00\n        /* \"#utility.yul\":20186:20188   */\n      0x20\n        /* \"#utility.yul\":20175:20184   */\n      dup3\n        /* \"#utility.yul\":20171:20189   */\n      add\n        /* \"#utility.yul\":20163:20189   */\n      swap1\n      pop\n        /* \"#utility.yul\":20235:20244   */\n      dup2\n        /* \"#utility.yul\":20229:20233   */\n      dup2\n        /* \"#utility.yul\":20225:20245   */\n      sub\n        /* \"#utility.yul\":20221:20222   */\n      0x00\n        /* \"#utility.yul\":20210:20219   */\n      dup4\n        /* \"#utility.yul\":20206:20223   */\n      add\n        /* \"#utility.yul\":20199:20246   */\n      mstore\n        /* \"#utility.yul\":20263:20394   */\n      tag_595\n        /* \"#utility.yul\":20389:20393   */\n      dup2\n        /* \"#utility.yul\":20263:20394   */\n      tag_521\n      jump\t// in\n    tag_595:\n        /* \"#utility.yul\":20255:20394   */\n      swap1\n      pop\n        /* \"#utility.yul\":20153:20401   */\n      swap2\n      swap1\n      pop\n      jump\t// out\n        /* \"#utility.yul\":20407:20826   */\n    tag_295:\n        /* \"#utility.yul\":20573:20577   */\n      0x00\n        /* \"#utility.yul\":20611:20613   */\n      0x20\n        /* \"#utility.yul\":20600:20609   */\n      dup3\n        /* \"#utility.yul\":20596:20614   */\n      add\n        /* \"#utility.yul\":20588:20614   */\n      swap1\n      pop\n        /* \"#utility.yul\":20660:20669   */\n      dup2\n        /* \"#utility.yul\":20654:20658   */\n      dup2\n        /* \"#utility.yul\":20650:20670   */\n      sub\n        /* \"#utility.yul\":20646:20647   */\n      0x00\n        /* \"#utility.yul\":20635:20644   */\n      dup4\n        /* \"#utility.yul\":20631:20648   */\n      add\n        /* \"#utility.yul\":20624:20671   */\n      mstore\n        /* \"#utility.yul\":20688:20819   */\n      tag_597\n        /* \"#utility.yul\":20814:20818   */\n      dup2\n        /* \"#utility.yul\":20688:20819   */\n      tag_526\n      jump\t// in\n    tag_597:\n        /* \"#utility.yul\":20680:20819   */\n      swap1\n      pop\n        /* \"#utility.yul\":20578:20826   */\n      swap2\n      swap1\n      pop\n      jump\t// out\n        /* \"#utility.yul\":20832:21251   */\n    tag_208:\n        /* \"#utility.yul\":20998:21002   */\n      0x00\n        /* \"#utility.yul\":21036:21038   */\n      0x20\n        /* \"#utility.yul\":21025:21034   */\n      dup3\n        /* \"#utility.yul\":21021:21039   */\n      add\n        /* \"#utility.yul\":21013:21039   */\n      swap1\n      pop\n        /* \"#utility.yul\":21085:21094   */\n      dup2\n        /* \"#utility.yul\":21079:21083   */\n      dup2\n        /* \"#utility.yul\":21075:21095   */\n      sub\n        /* \"#utility.yul\":21071:21072   */\n      0x00\n        /* \"#utility.yul\":21060:21069   */\n      dup4\n        /* \"#utility.yul\":21056:21073   */\n      add\n        /* \"#utility.yul\":21049:21096   */\n      mstore\n        /* \"#utility.yul\":21113:21244   */\n      tag_599\n        /* \"#utility.yul\":21239:21243   */\n      dup2\n        /* \"#utility.yul\":21113:21244   */\n      tag_531\n      jump\t// in\n    tag_599:\n        /* \"#utility.yul\":21105:21244   */\n      swap1\n      pop\n        /* \"#utility.yul\":21003:21251   */\n      swap2\n      swap1\n      pop\n      jump\t// out\n        /* \"#utility.yul\":21257:21676   */\n    tag_227:\n        /* \"#utility.yul\":21423:21427   */\n      0x00\n        /* \"#utility.yul\":21461:21463   */\n      0x20\n        /* \"#utility.yul\":21450:21459   */\n      dup3\n        /* \"#utility.yul\":21446:21464   */\n      add\n        /* \"#utility.yul\":21438:21464   */\n      swap1\n      pop\n        /* \"#utility.yul\":21510:21519   */\n      dup2\n        /* \"#utility.yul\":21504:21508   */\n      dup2\n        /* \"#utility.yul\":21500:21520   */\n      sub\n        /* \"#utility.yul\":21496:21497   */\n      0x00\n        /* \"#utility.yul\":21485:21494   */\n      dup4\n        /* \"#utility.yul\":21481:21498   */\n      add\n        /* \"#utility.yul\":21474:21521   */\n      mstore\n        /* \"#utility.yul\":21538:21669   */\n      tag_601\n        /* \"#utility.yul\":21664:21668   */\n      dup2\n        /* \"#utility.yul\":21538:21669   */\n      tag_536\n      jump\t// in\n    tag_601:\n        /* \"#utility.yul\":21530:21669   */\n      swap1\n      pop\n        /* \"#utility.yul\":21428:21676   */\n      swap2\n      swap1\n      pop\n      jump\t// out\n        /* \"#utility.yul\":21682:22101   */\n    tag_154:\n        /* \"#utility.yul\":21848:21852   */\n      0x00\n        /* \"#utility.yul\":21886:21888   */\n      0x20\n        /* \"#utility.yul\":21875:21884   */\n      dup3\n        /* \"#utility.yul\":21871:21889   */\n      add\n        /* \"#utility.yul\":21863:21889   */\n      swap1\n      pop\n        /* \"#utility.yul\":21935:21944   */\n      dup2\n        /* \"#utility.yul\":21929:21933   */\n      dup2\n        /* \"#utility.yul\":21925:21945   */\n      sub\n        /* \"#utility.yul\":21921:21922   */\n      0x00\n        /* \"#utility.yul\":21910:21919   */\n      dup4\n        /* \"#utility.yul\":21906:21923   */\n      add\n        /* \"#utility.yul\":21899:21946   */\n      mstore\n        /* \"#utility.yul\":21963:22094   */\n      tag_603\n        /* \"#utility.yul\":22089:22093   */\n      dup2\n        /* \"#utility.yul\":21963:22094   */\n      tag_541\n      jump\t// in\n    tag_603:\n        /* \"#utility.yul\":21955:22094   */\n      swap1\n      pop\n        /* \"#utility.yul\":21853:22101   */\n      swap2\n      swap1\n      pop\n      jump\t// out\n        /* \"#utility.yul\":22107:22526   */\n    tag_291:\n        /* \"#utility.yul\":22273:22277   */\n      0x00\n        /* \"#utility.yul\":22311:22313   */\n      0x20\n        /* \"#utility.yul\":22300:22309   */\n      dup3\n        /* \"#utility.yul\":22296:22314   */\n      add\n        /* \"#utility.yul\":22288:22314   */\n      swap1\n      pop\n        /* \"#utility.yul\":22360:22369   */\n      dup2\n        /* \"#utility.yul\":22354:22358   */\n      dup2\n        /* \"#utility.yul\":22350:22370   */\n      sub\n        /* \"#utility.yul\":22346:22347   */\n      0x00\n        /* \"#utility.yul\":22335:22344   */\n      dup4\n        /* \"#utility.yul\":22331:22348   */\n      add\n        /* \"#utility.yul\":22324:22371   */\n      mstore\n        /* \"#utility.yul\":22388:22519   */\n      tag_605\n        /* \"#utility.yul\":22514:22518   */\n      dup2\n        /* \"#utility.yul\":22388:22519   */\n      tag_546\n      jump\t// in\n    tag_605:\n        /* \"#utility.yul\":22380:22519   */\n      swap1\n      pop\n        /* \"#utility.yul\":22278:22526   */\n      swap2\n      swap1\n      pop\n      jump\t// out\n        /* \"#utility.yul\":22532:22951   */\n    tag_150:\n        /* \"#utility.yul\":22698:22702   */\n      0x00\n        /* \"#utility.yul\":22736:22738   */\n      0x20\n        /* \"#utility.yul\":22725:22734   */\n      dup3\n        /* \"#utility.yul\":22721:22739   */\n      add\n        /* \"#utility.yul\":22713:22739   */\n      swap1\n      pop\n        /* \"#utility.yul\":22785:22794   */\n      dup2\n        /* \"#utility.yul\":22779:22783   */\n      dup2\n        /* \"#utility.yul\":22775:22795   */\n      sub\n        /* \"#utility.yul\":22771:22772   */\n      0x00\n        /* \"#utility.yul\":22760:22769   */\n      dup4\n        /* \"#utility.yul\":22756:22773   */\n      add\n        /* \"#utility.yul\":22749:22796   */\n      mstore\n        /* \"#utility.yul\":22813:22944   */\n      tag_607\n        /* \"#utility.yul\":22939:22943   */\n      dup2\n        /* \"#utility.yul\":22813:22944   */\n      tag_551\n      jump\t// in\n    tag_607:\n        /* \"#utility.yul\":22805:22944   */\n      swap1\n      pop\n        /* \"#utility.yul\":22703:22951   */\n      swap2\n      swap1\n      pop\n      jump\t// out\n        /* \"#utility.yul\":22957:23376   */\n    tag_113:\n        /* \"#utility.yul\":23123:23127   */\n      0x00\n        /* \"#utility.yul\":23161:23163   */\n      0x20\n        /* \"#utility.yul\":23150:23159   */\n      dup3\n        /* \"#utility.yul\":23146:23164   */\n      add\n        /* \"#utility.yul\":23138:23164   */\n      swap1\n      pop\n        /* \"#utility.yul\":23210:23219   */\n      dup2\n        /* \"#utility.yul\":23204:23208   */\n      dup2\n        /* \"#utility.yul\":23200:23220   */\n      sub\n        /* \"#utility.yul\":23196:23197   */\n      0x00\n        /* \"#utility.yul\":23185:23194   */\n      dup4\n        /* \"#utility.yul\":23181:23198   */\n      add\n        /* \"#utility.yul\":23174:23221   */\n      mstore\n        /* \"#utility.yul\":23238:23369   */\n      tag_609\n        /* \"#utility.yul\":23364:23368   */\n      dup2\n        /* \"#utility.yul\":23238:23369   */\n      tag_556\n      jump\t// in\n    tag_609:\n        /* \"#utility.yul\":23230:23369   */\n      swap1\n      pop\n        /* \"#utility.yul\":23128:23376   */\n      swap2\n      swap1\n      pop\n      jump\t// out\n        /* \"#utility.yul\":23382:23801   */\n    tag_121:\n        /* \"#utility.yul\":23548:23552   */\n      0x00\n        /* \"#utility.yul\":23586:23588   */\n      0x20\n        /* \"#utility.yul\":23575:23584   */\n      dup3\n        /* \"#utility.yul\":23571:23589   */\n      add\n        /* \"#utility.yul\":23563:23589   */\n      swap1\n      pop\n        /* \"#utility.yul\":23635:23644   */\n      dup2\n        /* \"#utility.yul\":23629:23633   */\n      dup2\n        /* \"#utility.yul\":23625:23645   */\n      sub\n        /* \"#utility.yul\":23621:23622   */\n      0x00\n        /* \"#utility.yul\":23610:23619   */\n      dup4\n        /* \"#utility.yul\":23606:23623   */\n      add\n        /* \"#utility.yul\":23599:23646   */\n      mstore\n        /* \"#utility.yul\":23663:23794   */\n      tag_611\n        /* \"#utility.yul\":23789:23793   */\n      dup2\n        /* \"#utility.yul\":23663:23794   */\n      tag_561\n      jump\t// in\n    tag_611:\n        /* \"#utility.yul\":23655:23794   */\n      swap1\n      pop\n        /* \"#utility.yul\":23553:23801   */\n      swap2\n      swap1\n      pop\n      jump\t// out\n        /* \"#utility.yul\":23807:24029   */\n    tag_51:\n        /* \"#utility.yul\":23900:23904   */\n      0x00\n        /* \"#utility.yul\":23938:23940   */\n      0x20\n        /* \"#utility.yul\":23927:23936   */\n      dup3\n        /* \"#utility.yul\":23923:23941   */\n      add\n        /* \"#utility.yul\":23915:23941   */\n      swap1\n      pop\n        /* \"#utility.yul\":23951:24022   */\n      tag_613\n        /* \"#utility.yul\":24019:24020   */\n      0x00\n        /* \"#utility.yul\":24008:24017   */\n      dup4\n        /* \"#utility.yul\":24004:24021   */\n      add\n        /* \"#utility.yul\":23995:24001   */\n      dup5\n        /* \"#utility.yul\":23951:24022   */\n      tag_569\n      jump\t// in\n    tag_613:\n        /* \"#utility.yul\":23905:24029   */\n      swap3\n      swap2\n      pop\n      pop\n      jump\t// out\n        /* \"#utility.yul\":24035:24164   */\n    tag_330:\n        /* \"#utility.yul\":24069:24075   */\n      0x00\n        /* \"#utility.yul\":24096:24116   */\n      tag_615\n      tag_616\n      jump\t// in\n    tag_615:\n        /* \"#utility.yul\":24086:24116   */\n      swap1\n      pop\n        /* \"#utility.yul\":24125:24158   */\n      tag_617\n        /* \"#utility.yul\":24153:24157   */\n      dup3\n        /* \"#utility.yul\":24145:24151   */\n      dup3\n        /* \"#utility.yul\":24125:24158   */\n      tag_618\n      jump\t// in\n    tag_617:\n        /* \"#utility.yul\":24076:24164   */\n      swap2\n      swap1\n      pop\n      jump\t// out\n        /* \"#utility.yul\":24170:24245   */\n    tag_616:\n        /* \"#utility.yul\":24203:24209   */\n      0x00\n        /* \"#utility.yul\":24236:24238   */\n      0x40\n        /* \"#utility.yul\":24230:24239   */\n      mload\n        /* \"#utility.yul\":24220:24239   */\n      swap1\n      pop\n        /* \"#utility.yul\":24210:24245   */\n      swap1\n      jump\t// out\n        /* \"#utility.yul\":24251:24562   */\n    tag_329:\n        /* \"#utility.yul\":24328:24332   */\n      0x00\n        /* \"#utility.yul\":24418:24436   */\n      0xffffffffffffffff\n        /* \"#utility.yul\":24410:24416   */\n      dup3\n        /* \"#utility.yul\":24407:24437   */\n      gt\n        /* \"#utility.yul\":24404:24406   */\n      iszero\n      tag_621\n      jumpi\n        /* \"#utility.yul\":24440:24458   */\n      tag_622\n      tag_623\n      jump\t// in\n    tag_622:\n        /* \"#utility.yul\":24404:24406   */\n    tag_621:\n        /* \"#utility.yul\":24490:24494   */\n      0x20\n        /* \"#utility.yul\":24482:24488   */\n      dup3\n        /* \"#utility.yul\":24478:24495   */\n      mul\n        /* \"#utility.yul\":24470:24495   */\n      swap1\n      pop\n        /* \"#utility.yul\":24550:24554   */\n      0x20\n        /* \"#utility.yul\":24544:24548   */\n      dup2\n        /* \"#utility.yul\":24540:24555   */\n      add\n        /* \"#utility.yul\":24532:24555   */\n      swap1\n      pop\n        /* \"#utility.yul\":24333:24562   */\n      swap2\n      swap1\n      pop\n      jump\t// out\n        /* \"#utility.yul\":24568:24879   */\n    tag_341:\n        /* \"#utility.yul\":24645:24649   */\n      0x00\n        /* \"#utility.yul\":24735:24753   */\n      0xffffffffffffffff\n        /* \"#utility.yul\":24727:24733   */\n      dup3\n        /* \"#utility.yul\":24724:24754   */\n      gt\n        /* \"#utility.yul\":24721:24723   */\n      iszero\n      tag_625\n      jumpi\n        /* \"#utility.yul\":24757:24775   */\n      tag_626\n      tag_623\n      jump\t// in\n    tag_626:\n        /* \"#utility.yul\":24721:24723   */\n    tag_625:\n        /* \"#utility.yul\":24807:24811   */\n      0x20\n        /* \"#utility.yul\":24799:24805   */\n      dup3\n        /* \"#utility.yul\":24795:24812   */\n      mul\n        /* \"#utility.yul\":24787:24812   */\n      swap1\n      pop\n        /* \"#utility.yul\":24867:24871   */\n      0x20\n        /* \"#utility.yul\":24861:24865   */\n      dup2\n        /* \"#utility.yul\":24857:24872   */\n      add\n        /* \"#utility.yul\":24849:24872   */\n      swap1\n      pop\n        /* \"#utility.yul\":24650:24879   */\n      swap2\n      swap1\n      pop\n      jump\t// out\n        /* \"#utility.yul\":24885:25192   */\n    tag_352:\n        /* \"#utility.yul\":24946:24950   */\n      0x00\n        /* \"#utility.yul\":25036:25054   */\n      0xffffffffffffffff\n        /* \"#utility.yul\":25028:25034   */\n      dup3\n        /* \"#utility.yul\":25025:25055   */\n      gt\n        /* \"#utility.yul\":25022:25024   */\n      iszero\n      tag_628\n      jumpi\n        /* \"#utility.yul\":25058:25076   */\n      tag_629\n      tag_623\n      jump\t// in\n    tag_629:\n        /* \"#utility.yul\":25022:25024   */\n    tag_628:\n        /* \"#utility.yul\":25096:25125   */\n      tag_630\n        /* \"#utility.yul\":25118:25124   */\n      dup3\n        /* \"#utility.yul\":25096:25125   */\n      tag_496\n      jump\t// in\n    tag_630:\n        /* \"#utility.yul\":25088:25125   */\n      swap1\n      pop\n        /* \"#utility.yul\":25180:25184   */\n      0x20\n        /* \"#utility.yul\":25174:25178   */\n      dup2\n        /* \"#utility.yul\":25170:25185   */\n      add\n        /* \"#utility.yul\":25162:25185   */\n      swap1\n      pop\n        /* \"#utility.yul\":24951:25192   */\n      swap2\n      swap1\n      pop\n      jump\t// out\n        /* \"#utility.yul\":25198:25506   */\n    tag_360:\n        /* \"#utility.yul\":25260:25264   */\n      0x00\n        /* \"#utility.yul\":25350:25368   */\n      0xffffffffffffffff\n        /* \"#utility.yul\":25342:25348   */\n      dup3\n        /* \"#utility.yul\":25339:25369   */\n      gt\n        /* \"#utility.yul\":25336:25338   */\n      iszero\n      tag_632\n      jumpi\n        /* \"#utility.yul\":25372:25390   */\n      tag_633\n      tag_623\n      jump\t// in\n    tag_633:\n        /* \"#utility.yul\":25336:25338   */\n    tag_632:\n        /* \"#utility.yul\":25410:25439   */\n      tag_634\n        /* \"#utility.yul\":25432:25438   */\n      dup3\n        /* \"#utility.yul\":25410:25439   */\n      tag_496\n      jump\t// in\n    tag_634:\n        /* \"#utility.yul\":25402:25439   */\n      swap1\n      pop\n        /* \"#utility.yul\":25494:25498   */\n      0x20\n        /* \"#utility.yul\":25488:25492   */\n      dup2\n        /* \"#utility.yul\":25484:25499   */\n      add\n        /* \"#utility.yul\":25476:25499   */\n      swap1\n      pop\n        /* \"#utility.yul\":25265:25506   */\n      swap2\n      swap1\n      pop\n      jump\t// out\n        /* \"#utility.yul\":25512:25644   */\n    tag_462:\n        /* \"#utility.yul\":25579:25583   */\n      0x00\n        /* \"#utility.yul\":25602:25605   */\n      dup2\n        /* \"#utility.yul\":25594:25605   */\n      swap1\n      pop\n        /* \"#utility.yul\":25632:25636   */\n      0x20\n        /* \"#utility.yul\":25627:25630   */\n      dup3\n        /* \"#utility.yul\":25623:25637   */\n      add\n        /* \"#utility.yul\":25615:25637   */\n      swap1\n      pop\n        /* \"#utility.yul\":25584:25644   */\n      swap2\n      swap1\n      pop\n      jump\t// out\n        /* \"#utility.yul\":25650:25782   */\n    tag_476:\n        /* \"#utility.yul\":25717:25721   */\n      0x00\n        /* \"#utility.yul\":25740:25743   */\n      dup2\n        /* \"#utility.yul\":25732:25743   */\n      swap1\n      pop\n        /* \"#utility.yul\":25770:25774   */\n      0x20\n        /* \"#utility.yul\":25765:25768   */\n      dup3\n        /* \"#utility.yul\":25761:25775   */\n      add\n        /* \"#utility.yul\":25753:25775   */\n      swap1\n      pop\n        /* \"#utility.yul\":25722:25782   */\n      swap2\n      swap1\n      pop\n      jump\t// out\n        /* \"#utility.yul\":25788:25902   */\n    tag_458:\n        /* \"#utility.yul\":25855:25861   */\n      0x00\n        /* \"#utility.yul\":25889:25894   */\n      dup2\n        /* \"#utility.yul\":25883:25895   */\n      mload\n        /* \"#utility.yul\":25873:25895   */\n      swap1\n      pop\n        /* \"#utility.yul\":25862:25902   */\n      swap2\n      swap1\n      pop\n      jump\t// out\n        /* \"#utility.yul\":25908:26022   */\n    tag_472:\n        /* \"#utility.yul\":25975:25981   */\n      0x00\n        /* \"#utility.yul\":26009:26014   */\n      dup2\n        /* \"#utility.yul\":26003:26015   */\n      mload\n        /* \"#utility.yul\":25993:26015   */\n      swap1\n      pop\n        /* \"#utility.yul\":25982:26022   */\n      swap2\n      swap1\n      pop\n      jump\t// out\n        /* \"#utility.yul\":26028:26126   */\n    tag_490:\n        /* \"#utility.yul\":26079:26085   */\n      0x00\n        /* \"#utility.yul\":26113:26118   */\n      dup2\n        /* \"#utility.yul\":26107:26119   */\n      mload\n        /* \"#utility.yul\":26097:26119   */\n      swap1\n      pop\n        /* \"#utility.yul\":26086:26126   */\n      swap2\n      swap1\n      pop\n      jump\t// out\n        /* \"#utility.yul\":26132:26231   */\n    tag_500:\n        /* \"#utility.yul\":26184:26190   */\n      0x00\n        /* \"#utility.yul\":26218:26223   */\n      dup2\n        /* \"#utility.yul\":26212:26224   */\n      mload\n        /* \"#utility.yul\":26202:26224   */\n      swap1\n      pop\n        /* \"#utility.yul\":26191:26231   */\n      swap2\n      swap1\n      pop\n      jump\t// out\n        /* \"#utility.yul\":26237:26350   */\n    tag_468:\n        /* \"#utility.yul\":26307:26311   */\n      0x00\n        /* \"#utility.yul\":26339:26343   */\n      0x20\n        /* \"#utility.yul\":26334:26337   */\n      dup3\n        /* \"#utility.yul\":26330:26344   */\n      add\n        /* \"#utility.yul\":26322:26344   */\n      swap1\n      pop\n        /* \"#utility.yul\":26312:26350   */\n      swap2\n      swap1\n      pop\n      jump\t// out\n        /* \"#utility.yul\":26356:26469   */\n    tag_482:\n        /* \"#utility.yul\":26426:26430   */\n      0x00\n        /* \"#utility.yul\":26458:26462   */\n      0x20\n        /* \"#utility.yul\":26453:26456   */\n      dup3\n        /* \"#utility.yul\":26449:26463   */\n      add\n        /* \"#utility.yul\":26441:26463   */\n      swap1\n      pop\n        /* \"#utility.yul\":26431:26469   */\n      swap2\n      swap1\n      pop\n      jump\t// out\n        /* \"#utility.yul\":26475:26659   */\n    tag_460:\n        /* \"#utility.yul\":26574:26585   */\n      0x00\n        /* \"#utility.yul\":26608:26614   */\n      dup3\n        /* \"#utility.yul\":26603:26606   */\n      dup3\n        /* \"#utility.yul\":26596:26615   */\n      mstore\n        /* \"#utility.yul\":26648:26652   */\n      0x20\n        /* \"#utility.yul\":26643:26646   */\n      dup3\n        /* \"#utility.yul\":26639:26653   */\n      add\n        /* \"#utility.yul\":26624:26653   */\n      swap1\n      pop\n        /* \"#utility.yul\":26586:26659   */\n      swap3\n      swap2\n      pop\n      pop\n      jump\t// out\n        /* \"#utility.yul\":26665:26849   */\n    tag_474:\n        /* \"#utility.yul\":26764:26775   */\n      0x00\n        /* \"#utility.yul\":26798:26804   */\n      dup3\n        /* \"#utility.yul\":26793:26796   */\n      dup3\n        /* \"#utility.yul\":26786:26805   */\n      mstore\n        /* \"#utility.yul\":26838:26842   */\n      0x20\n        /* \"#utility.yul\":26833:26836   */\n      dup3\n        /* \"#utility.yul\":26829:26843   */\n      add\n        /* \"#utility.yul\":26814:26843   */\n      swap1\n      pop\n        /* \"#utility.yul\":26776:26849   */\n      swap3\n      swap2\n      pop\n      pop\n      jump\t// out\n        /* \"#utility.yul\":26855:27023   */\n    tag_492:\n        /* \"#utility.yul\":26938:26949   */\n      0x00\n        /* \"#utility.yul\":26972:26978   */\n      dup3\n        /* \"#utility.yul\":26967:26970   */\n      dup3\n        /* \"#utility.yul\":26960:26979   */\n      mstore\n        /* \"#utility.yul\":27012:27016   */\n      0x20\n        /* \"#utility.yul\":27007:27010   */\n      dup3\n        /* \"#utility.yul\":27003:27017   */\n      add\n        /* \"#utility.yul\":26988:27017   */\n      swap1\n      pop\n        /* \"#utility.yul\":26950:27023   */\n      swap3\n      swap2\n      pop\n      pop\n      jump\t// out\n        /* \"#utility.yul\":27029:27198   */\n    tag_502:\n        /* \"#utility.yul\":27113:27124   */\n      0x00\n        /* \"#utility.yul\":27147:27153   */\n      dup3\n        /* \"#utility.yul\":27142:27145   */\n      dup3\n        /* \"#utility.yul\":27135:27154   */\n      mstore\n        /* \"#utility.yul\":27187:27191   */\n      0x20\n        /* \"#utility.yul\":27182:27185   */\n      dup3\n        /* \"#utility.yul\":27178:27192   */\n      add\n        /* \"#utility.yul\":27163:27192   */\n      swap1\n      pop\n        /* \"#utility.yul\":27125:27198   */\n      swap3\n      swap2\n      pop\n      pop\n      jump\t// out\n        /* \"#utility.yul\":27204:27352   */\n    tag_509:\n        /* \"#utility.yul\":27306:27317   */\n      0x00\n        /* \"#utility.yul\":27343:27346   */\n      dup2\n        /* \"#utility.yul\":27328:27346   */\n      swap1\n      pop\n        /* \"#utility.yul\":27318:27352   */\n      swap3\n      swap2\n      pop\n      pop\n      jump\t// out\n        /* \"#utility.yul\":27358:27663   */\n    tag_254:\n        /* \"#utility.yul\":27398:27401   */\n      0x00\n        /* \"#utility.yul\":27417:27437   */\n      tag_649\n        /* \"#utility.yul\":27435:27436   */\n      dup3\n        /* \"#utility.yul\":27417:27437   */\n      tag_568\n      jump\t// in\n    tag_649:\n        /* \"#utility.yul\":27412:27437   */\n      swap2\n      pop\n        /* \"#utility.yul\":27451:27471   */\n      tag_650\n        /* \"#utility.yul\":27469:27470   */\n      dup4\n        /* \"#utility.yul\":27451:27471   */\n      tag_568\n      jump\t// in\n    tag_650:\n        /* \"#utility.yul\":27446:27471   */\n      swap3\n      pop\n        /* \"#utility.yul\":27605:27606   */\n      dup3\n        /* \"#utility.yul\":27537:27603   */\n      0xffffffffffffffffffffffffffffffffffffffffffffffffffffffffffffffff\n        /* \"#utility.yul\":27533:27607   */\n      sub\n        /* \"#utility.yul\":27530:27531   */\n      dup3\n        /* \"#utility.yul\":27527:27608   */\n      gt\n        /* \"#utility.yul\":27524:27526   */\n      iszero\n      tag_651\n      jumpi\n        /* \"#utility.yul\":27611:27629   */\n      tag_652\n      tag_653\n      jump\t// in\n    tag_652:\n        /* \"#utility.yul\":27524:27526   */\n    tag_651:\n        /* \"#utility.yul\":27655:27656   */\n      dup3\n        /* \"#utility.yul\":27652:27653   */\n      dup3\n        /* \"#utility.yul\":27648:27657   */\n      add\n        /* \"#utility.yul\":27641:27657   */\n      swap1\n      pop\n        /* \"#utility.yul\":27402:27663   */\n      swap3\n      swap2\n      pop\n      pop\n      jump\t// out\n        /* \"#utility.yul\":27669:27854   */\n    tag_244:\n        /* \"#utility.yul\":27709:27710   */\n      0x00\n        /* \"#utility.yul\":27726:27746   */\n      tag_655\n        /* \"#utility.yul\":27744:27745   */\n      dup3\n        /* \"#utility.yul\":27726:27746   */\n      tag_568\n      jump\t// in\n    tag_655:\n        /* \"#utility.yul\":27721:27746   */\n      swap2\n      pop\n        /* \"#utility.yul\":27760:27780   */\n      tag_656\n        /* \"#utility.yul\":27778:27779   */\n      dup4\n        /* \"#utility.yul\":27760:27780   */\n      tag_568\n      jump\t// in\n    tag_656:\n        /* \"#utility.yul\":27755:27780   */\n      swap3\n      pop\n        /* \"#utility.yul\":27799:27800   */\n      dup3\n        /* \"#utility.yul\":27789:27791   */\n      tag_657\n      jumpi\n        /* \"#utility.yul\":27804:27822   */\n      tag_658\n      tag_659\n      jump\t// in\n    tag_658:\n        /* \"#utility.yul\":27789:27791   */\n    tag_657:\n        /* \"#utility.yul\":27846:27847   */\n      dup3\n        /* \"#utility.yul\":27843:27844   */\n      dup3\n        /* \"#utility.yul\":27839:27848   */\n      div\n        /* \"#utility.yul\":27834:27848   */\n      swap1\n      pop\n        /* \"#utility.yul\":27711:27854   */\n      swap3\n      swap2\n      pop\n      pop\n      jump\t// out\n        /* \"#utility.yul\":27860:28051   */\n    tag_250:\n        /* \"#utility.yul\":27900:27904   */\n      0x00\n        /* \"#utility.yul\":27920:27940   */\n      tag_661\n        /* \"#utility.yul\":27938:27939   */\n      dup3\n        /* \"#utility.yul\":27920:27940   */\n      tag_568\n      jump\t// in\n    tag_661:\n        /* \"#utility.yul\":27915:27940   */\n      swap2\n      pop\n        /* \"#utility.yul\":27954:27974   */\n      tag_662\n        /* \"#utility.yul\":27972:27973   */\n      dup4\n        /* \"#utility.yul\":27954:27974   */\n      tag_568\n      jump\t// in\n    tag_662:\n        /* \"#utility.yul\":27949:27974   */\n      swap3\n      pop\n        /* \"#utility.yul\":27993:27994   */\n      dup3\n        /* \"#utility.yul\":27990:27991   */\n      dup3\n        /* \"#utility.yul\":27987:27995   */\n      lt\n        /* \"#utility.yul\":27984:27986   */\n      iszero\n      tag_663\n      jumpi\n        /* \"#utility.yul\":27998:28016   */\n      tag_664\n      tag_653\n      jump\t// in\n    tag_664:\n        /* \"#utility.yul\":27984:27986   */\n    tag_663:\n        /* \"#utility.yul\":28043:28044   */\n      dup3\n        /* \"#utility.yul\":28040:28041   */\n      dup3\n        /* \"#utility.yul\":28036:28045   */\n      sub\n        /* \"#utility.yul\":28028:28045   */\n      swap1\n      pop\n        /* \"#utility.yul\":27905:28051   */\n      swap3\n      swap2\n      pop\n      pop\n      jump\t// out\n        /* \"#utility.yul\":28057:28153   */\n    tag_451:\n        /* \"#utility.yul\":28094:28101   */\n      0x00\n        /* \"#utility.yul\":28123:28147   */\n      tag_666\n        /* \"#utility.yul\":28141:28146   */\n      dup3\n        /* \"#utility.yul\":28123:28147   */\n      tag_667\n      jump\t// in\n    tag_666:\n        /* \"#utility.yul\":28112:28147   */\n      swap1\n      pop\n        /* \"#utility.yul\":28102:28153   */\n      swap2\n      swap1\n      pop\n      jump\t// out\n        /* \"#utility.yul\":28159:28249   */\n    tag_486:\n        /* \"#utility.yul\":28193:28200   */\n      0x00\n        /* \"#utility.yul\":28236:28241   */\n      dup2\n        /* \"#utility.yul\":28229:28242   */\n      iszero\n        /* \"#utility.yul\":28222:28243   */\n      iszero\n        /* \"#utility.yul\":28211:28243   */\n      swap1\n      pop\n        /* \"#utility.yul\":28201:28249   */\n      swap2\n      swap1\n      pop\n      jump\t// out\n        /* \"#utility.yul\":28255:28404   */\n    tag_669:\n        /* \"#utility.yul\":28291:28298   */\n      0x00\n        /* \"#utility.yul\":28331:28397   */\n      0xffffffff00000000000000000000000000000000000000000000000000000000\n        /* \"#utility.yul\":28324:28329   */\n      dup3\n        /* \"#utility.yul\":28320:28398   */\n      and\n        /* \"#utility.yul\":28309:28398   */\n      swap1\n      pop\n        /* \"#utility.yul\":28299:28404   */\n      swap2\n      swap1\n      pop\n      jump\t// out\n        /* \"#utility.yul\":28410:28536   */\n    tag_667:\n        /* \"#utility.yul\":28447:28454   */\n      0x00\n        /* \"#utility.yul\":28487:28529   */\n      0xffffffffffffffffffffffffffffffffffffffff\n        /* \"#utility.yul\":28480:28485   */\n      dup3\n        /* \"#utility.yul\":28476:28530   */\n      and\n        /* \"#utility.yul\":28465:28530   */\n      swap1\n      pop\n        /* \"#utility.yul\":28455:28536   */\n      swap2\n      swap1\n      pop\n      jump\t// out\n        /* \"#utility.yul\":28542:28619   */\n    tag_568:\n        /* \"#utility.yul\":28579:28586   */\n      0x00\n        /* \"#utility.yul\":28608:28613   */\n      dup2\n        /* \"#utility.yul\":28597:28613   */\n      swap1\n      pop\n        /* \"#utility.yul\":28587:28619   */\n      swap2\n      swap1\n      pop\n      jump\t// out\n        /* \"#utility.yul\":28625:28779   */\n    tag_355:\n        /* \"#utility.yul\":28709:28715   */\n      dup3\n        /* \"#utility.yul\":28704:28707   */\n      dup2\n        /* \"#utility.yul\":28699:28702   */\n      dup4\n        /* \"#utility.yul\":28686:28716   */\n      calldatacopy\n        /* \"#utility.yul\":28771:28772   */\n      0x00\n        /* \"#utility.yul\":28762:28768   */\n      dup4\n        /* \"#utility.yul\":28757:28760   */\n      dup4\n        /* \"#utility.yul\":28753:28769   */\n      add\n        /* \"#utility.yul\":28746:28773   */\n      mstore\n        /* \"#utility.yul\":28676:28779   */\n      pop\n      pop\n      pop\n      jump\t// out\n        /* \"#utility.yul\":28785:29092   */\n    tag_494:\n        /* \"#utility.yul\":28853:28854   */\n      0x00\n        /* \"#utility.yul\":28863:28976   */\n    tag_675:\n        /* \"#utility.yul\":28877:28883   */\n      dup4\n        /* \"#utility.yul\":28874:28875   */\n      dup2\n        /* \"#utility.yul\":28871:28884   */\n      lt\n        /* \"#utility.yul\":28863:28976   */\n      iszero\n      tag_677\n      jumpi\n        /* \"#utility.yul\":28962:28963   */\n      dup1\n        /* \"#utility.yul\":28957:28960   */\n      dup3\n        /* \"#utility.yul\":28953:28964   */\n      add\n        /* \"#utility.yul\":28947:28965   */\n      mload\n        /* \"#utility.yul\":28943:28944   */\n      dup2\n        /* \"#utility.yul\":28938:28941   */\n      dup5\n        /* \"#utility.yul\":28934:28945   */\n      add\n        /* \"#utility.yul\":28927:28966   */\n      mstore\n        /* \"#utility.yul\":28899:28901   */\n      0x20\n        /* \"#utility.yul\":28896:28897   */\n      dup2\n        /* \"#utility.yul\":28892:28902   */\n      add\n        /* \"#utility.yul\":28887:28902   */\n      swap1\n      pop\n        /* \"#utility.yul\":28863:28976   */\n      jump(tag_675)\n    tag_677:\n        /* \"#utility.yul\":28994:29000   */\n      dup4\n        /* \"#utility.yul\":28991:28992   */\n      dup2\n        /* \"#utility.yul\":28988:29001   */\n      gt\n        /* \"#utility.yul\":28985:28987   */\n      iszero\n      tag_678\n      jumpi\n        /* \"#utility.yul\":29074:29075   */\n      0x00\n        /* \"#utility.yul\":29065:29071   */\n      dup5\n        /* \"#utility.yul\":29060:29063   */\n      dup5\n        /* \"#utility.yul\":29056:29072   */\n      add\n        /* \"#utility.yul\":29049:29076   */\n      mstore\n        /* \"#utility.yul\":28985:28987   */\n    tag_678:\n        /* \"#utility.yul\":28834:29092   */\n      pop\n      pop\n      pop\n      pop\n      jump\t// out\n        /* \"#utility.yul\":29098:29418   */\n    tag_101:\n        /* \"#utility.yul\":29142:29148   */\n      0x00\n        /* \"#utility.yul\":29179:29180   */\n      0x02\n        /* \"#utility.yul\":29173:29177   */\n      dup3\n        /* \"#utility.yul\":29169:29181   */\n      div\n        /* \"#utility.yul\":29159:29181   */\n      swap1\n      pop\n        /* \"#utility.yul\":29226:29227   */\n      0x01\n        /* \"#utility.yul\":29220:29224   */\n      dup3\n        /* \"#utility.yul\":29216:29228   */\n      and\n        /* \"#utility.yul\":29247:29265   */\n      dup1\n        /* \"#utility.yul\":29237:29239   */\n      tag_680\n      jumpi\n        /* \"#utility.yul\":29303:29307   */\n      0x7f\n        /* \"#utility.yul\":29295:29301   */\n      dup3\n        /* \"#utility.yul\":29291:29308   */\n      and\n        /* \"#utility.yul\":29281:29308   */\n      swap2\n      pop\n        /* \"#utility.yul\":29237:29239   */\n    tag_680:\n        /* \"#utility.yul\":29365:29367   */\n      0x20\n        /* \"#utility.yul\":29357:29363   */\n      dup3\n        /* \"#utility.yul\":29354:29368   */\n      lt\n        /* \"#utility.yul\":29334:29352   */\n      dup2\n        /* \"#utility.yul\":29331:29369   */\n      eq\n        /* \"#utility.yul\":29328:29330   */\n      iszero\n      tag_681\n      jumpi\n        /* \"#utility.yul\":29384:29402   */\n      tag_682\n      tag_683\n      jump\t// in\n    tag_682:\n        /* \"#utility.yul\":29328:29330   */\n    tag_681:\n        /* \"#utility.yul\":29149:29418   */\n      pop\n      swap2\n      swap1\n      pop\n      jump\t// out\n        /* \"#utility.yul\":29424:29705   */\n    tag_618:\n        /* \"#utility.yul\":29507:29534   */\n      tag_685\n        /* \"#utility.yul\":29529:29533   */\n      dup3\n        /* \"#utility.yul\":29507:29534   */\n      tag_496\n      jump\t// in\n    tag_685:\n        /* \"#utility.yul\":29499:29505   */\n      dup2\n        /* \"#utility.yul\":29495:29535   */\n      add\n        /* \"#utility.yul\":29637:29643   */\n      dup2\n        /* \"#utility.yul\":29625:29635   */\n      dup2\n        /* \"#utility.yul\":29622:29644   */\n      lt\n        /* \"#utility.yul\":29601:29619   */\n      0xffffffffffffffff\n        /* \"#utility.yul\":29589:29599   */\n      dup3\n        /* \"#utility.yul\":29586:29620   */\n      gt\n        /* \"#utility.yul\":29583:29645   */\n      or\n        /* \"#utility.yul\":29580:29582   */\n      iszero\n      tag_686\n      jumpi\n        /* \"#utility.yul\":29648:29666   */\n      tag_687\n      tag_623\n      jump\t// in\n    tag_687:\n        /* \"#utility.yul\":29580:29582   */\n    tag_686:\n        /* \"#utility.yul\":29688:29698   */\n      dup1\n        /* \"#utility.yul\":29684:29686   */\n      0x40\n        /* \"#utility.yul\":29677:29699   */\n      mstore\n        /* \"#utility.yul\":29467:29705   */\n      pop\n      pop\n      pop\n      jump\t// out\n        /* \"#utility.yul\":29711:29944   */\n    tag_242:\n        /* \"#utility.yul\":29750:29753   */\n      0x00\n        /* \"#utility.yul\":29773:29797   */\n      tag_689\n        /* \"#utility.yul\":29791:29796   */\n      dup3\n        /* \"#utility.yul\":29773:29797   */\n      tag_568\n      jump\t// in\n    tag_689:\n        /* \"#utility.yul\":29764:29797   */\n      swap2\n      pop\n        /* \"#utility.yul\":29819:29885   */\n      0xffffffffffffffffffffffffffffffffffffffffffffffffffffffffffffffff\n        /* \"#utility.yul\":29812:29817   */\n      dup3\n        /* \"#utility.yul\":29809:29886   */\n      eq\n        /* \"#utility.yul\":29806:29808   */\n      iszero\n      tag_690\n      jumpi\n        /* \"#utility.yul\":29889:29907   */\n      tag_691\n      tag_653\n      jump\t// in\n    tag_691:\n        /* \"#utility.yul\":29806:29808   */\n    tag_690:\n        /* \"#utility.yul\":29936:29937   */\n      0x01\n        /* \"#utility.yul\":29929:29934   */\n      dup3\n        /* \"#utility.yul\":29925:29938   */\n      add\n        /* \"#utility.yul\":29918:29938   */\n      swap1\n      pop\n        /* \"#utility.yul\":29754:29944   */\n      swap2\n      swap1\n      pop\n      jump\t// out\n        /* \"#utility.yul\":29950:30126   */\n    tag_252:\n        /* \"#utility.yul\":29982:29983   */\n      0x00\n        /* \"#utility.yul\":29999:30019   */\n      tag_693\n        /* \"#utility.yul\":30017:30018   */\n      dup3\n        /* \"#utility.yul\":29999:30019   */\n      tag_568\n      jump\t// in\n    tag_693:\n        /* \"#utility.yul\":29994:30019   */\n      swap2\n      pop\n        /* \"#utility.yul\":30033:30053   */\n      tag_694\n        /* \"#utility.yul\":30051:30052   */\n      dup4\n        /* \"#utility.yul\":30033:30053   */\n      tag_568\n      jump\t// in\n    tag_694:\n        /* \"#utility.yul\":30028:30053   */\n      swap3\n      pop\n        /* \"#utility.yul\":30072:30073   */\n      dup3\n        /* \"#utility.yul\":30062:30064   */\n      tag_695\n      jumpi\n        /* \"#utility.yul\":30077:30095   */\n      tag_696\n      tag_659\n      jump\t// in\n    tag_696:\n        /* \"#utility.yul\":30062:30064   */\n    tag_695:\n        /* \"#utility.yul\":30118:30119   */\n      dup3\n        /* \"#utility.yul\":30115:30116   */\n      dup3\n        /* \"#utility.yul\":30111:30120   */\n      mod\n        /* \"#utility.yul\":30106:30120   */\n      swap1\n      pop\n        /* \"#utility.yul\":29984:30126   */\n      swap3\n      swap2\n      pop\n      pop\n      jump\t// out\n        /* \"#utility.yul\":30132:30312   */\n    tag_653:\n        /* \"#utility.yul\":30180:30257   */\n      0x4e487b7100000000000000000000000000000000000000000000000000000000\n        /* \"#utility.yul\":30177:30178   */\n      0x00\n        /* \"#utility.yul\":30170:30258   */\n      mstore\n        /* \"#utility.yul\":30277:30281   */\n      0x11\n        /* \"#utility.yul\":30274:30275   */\n      0x04\n        /* \"#utility.yul\":30267:30282   */\n      mstore\n        /* \"#utility.yul\":30301:30305   */\n      0x24\n        /* \"#utility.yul\":30298:30299   */\n      0x00\n        /* \"#utility.yul\":30291:30306   */\n      revert\n        /* \"#utility.yul\":30318:30498   */\n    tag_659:\n        /* \"#utility.yul\":30366:30443   */\n      0x4e487b7100000000000000000000000000000000000000000000000000000000\n        /* \"#utility.yul\":30363:30364   */\n      0x00\n        /* \"#utility.yul\":30356:30444   */\n      mstore\n        /* \"#utility.yul\":30463:30467   */\n      0x12\n        /* \"#utility.yul\":30460:30461   */\n      0x04\n        /* \"#utility.yul\":30453:30468   */\n      mstore\n        /* \"#utility.yul\":30487:30491   */\n      0x24\n        /* \"#utility.yul\":30484:30485   */\n      0x00\n        /* \"#utility.yul\":30477:30492   */\n      revert\n        /* \"#utility.yul\":30504:30684   */\n    tag_683:\n        /* \"#utility.yul\":30552:30629   */\n      0x4e487b7100000000000000000000000000000000000000000000000000000000\n        /* \"#utility.yul\":30549:30550   */\n      0x00\n        /* \"#utility.yul\":30542:30630   */\n      mstore\n        /* \"#utility.yul\":30649:30653   */\n      0x22\n        /* \"#utility.yul\":30646:30647   */\n      0x04\n        /* \"#utility.yul\":30639:30654   */\n      mstore\n        /* \"#utility.yul\":30673:30677   */\n      0x24\n        /* \"#utility.yul\":30670:30671   */\n      0x00\n        /* \"#utility.yul\":30663:30678   */\n      revert\n        /* \"#utility.yul\":30690:30870   */\n    tag_623:\n        /* \"#utility.yul\":30738:30815   */\n      0x4e487b7100000000000000000000000000000000000000000000000000000000\n        /* \"#utility.yul\":30735:30736   */\n      0x00\n        /* \"#utility.yul\":30728:30816   */\n      mstore\n        /* \"#utility.yul\":30835:30839   */\n      0x41\n        /* \"#utility.yul\":30832:30833   */\n      0x04\n        /* \"#utility.yul\":30825:30840   */\n      mstore\n        /* \"#utility.yul\":30859:30863   */\n      0x24\n        /* \"#utility.yul\":30856:30857   */\n      0x00\n        /* \"#utility.yul\":30849:30864   */\n      revert\n        /* \"#utility.yul\":30876:30978   */\n    tag_496:\n        /* \"#utility.yul\":30917:30923   */\n      0x00\n        /* \"#utility.yul\":30968:30970   */\n      0x1f\n        /* \"#utility.yul\":30964:30971   */\n      not\n        /* \"#utility.yul\":30959:30961   */\n      0x1f\n        /* \"#utility.yul\":30952:30957   */\n      dup4\n        /* \"#utility.yul\":30948:30962   */\n      add\n        /* \"#utility.yul\":30944:30972   */\n      and\n        /* \"#utility.yul\":30934:30972   */\n      swap1\n      pop\n        /* \"#utility.yul\":30924:30978   */\n      swap2\n      swap1\n      pop\n      jump\t// out\n        /* \"#utility.yul\":30984:31216   */\n    tag_515:\n        /* \"#utility.yul\":31124:31158   */\n      0x4552433732313a2063616c6c6572206973206e6f7420746f6b656e206f776e65\n        /* \"#utility.yul\":31120:31121   */\n      0x00\n        /* \"#utility.yul\":31112:31118   */\n      dup3\n        /* \"#utility.yul\":31108:31122   */\n      add\n        /* \"#utility.yul\":31101:31159   */\n      mstore\n        /* \"#utility.yul\":31193:31208   */\n      0x72206f7220617070726f76656400000000000000000000000000000000000000\n        /* \"#utility.yul\":31188:31190   */\n      0x20\n        /* \"#utility.yul\":31180:31186   */\n      dup3\n        /* \"#utility.yul\":31176:31191   */\n      add\n        /* \"#utility.yul\":31169:31209   */\n      mstore\n        /* \"#utility.yul\":31090:31216   */\n      pop\n      jump\t// out\n        /* \"#utility.yul\":31222:31459   */\n    tag_520:\n        /* \"#utility.yul\":31362:31396   */\n      0x4552433732313a207472616e7366657220746f206e6f6e204552433732315265\n        /* \"#utility.yul\":31358:31359   */\n      0x00\n        /* \"#utility.yul\":31350:31356   */\n      dup3\n        /* \"#utility.yul\":31346:31360   */\n      add\n        /* \"#utility.yul\":31339:31397   */\n      mstore\n        /* \"#utility.yul\":31431:31451   */\n      0x63656976657220696d706c656d656e7465720000000000000000000000000000\n        /* \"#utility.yul\":31426:31428   */\n      0x20\n        /* \"#utility.yul\":31418:31424   */\n      dup3\n        /* \"#utility.yul\":31414:31429   */\n      add\n        /* \"#utility.yul\":31407:31452   */\n      mstore\n        /* \"#utility.yul\":31328:31459   */\n      pop\n      jump\t// out\n        /* \"#utility.yul\":31465:31689   */\n    tag_525:\n        /* \"#utility.yul\":31605:31639   */\n      0x4552433732313a207472616e736665722066726f6d20696e636f727265637420\n        /* \"#utility.yul\":31601:31602   */\n      0x00\n        /* \"#utility.yul\":31593:31599   */\n      dup3\n        /* \"#utility.yul\":31589:31603   */\n      add\n        /* \"#utility.yul\":31582:31640   */\n      mstore\n        /* \"#utility.yul\":31674:31681   */\n      0x6f776e6572000000000000000000000000000000000000000000000000000000\n        /* \"#utility.yul\":31669:31671   */\n      0x20\n        /* \"#utility.yul\":31661:31667   */\n      dup3\n        /* \"#utility.yul\":31657:31672   */\n      add\n        /* \"#utility.yul\":31650:31682   */\n      mstore\n        /* \"#utility.yul\":31571:31689   */\n      pop\n      jump\t// out\n        /* \"#utility.yul\":31695:31873   */\n    tag_530:\n        /* \"#utility.yul\":31835:31865   */\n      0x4552433732313a20746f6b656e20616c7265616479206d696e74656400000000\n        /* \"#utility.yul\":31831:31832   */\n      0x00\n        /* \"#utility.yul\":31823:31829   */\n      dup3\n        /* \"#utility.yul\":31819:31833   */\n      add\n        /* \"#utility.yul\":31812:31866   */\n      mstore\n        /* \"#utility.yul\":31801:31873   */\n      pop\n      jump\t// out\n        /* \"#utility.yul\":31879:32102   */\n    tag_535:\n        /* \"#utility.yul\":32019:32053   */\n      0x4552433732313a207472616e7366657220746f20746865207a65726f20616464\n        /* \"#utility.yul\":32015:32016   */\n      0x00\n        /* \"#utility.yul\":32007:32013   */\n      dup3\n        /* \"#utility.yul\":32003:32017   */\n      add\n        /* \"#utility.yul\":31996:32054   */\n      mstore\n        /* \"#utility.yul\":32088:32094   */\n      0x7265737300000000000000000000000000000000000000000000000000000000\n        /* \"#utility.yul\":32083:32085   */\n      0x20\n        /* \"#utility.yul\":32075:32081   */\n      dup3\n        /* \"#utility.yul\":32071:32086   */\n      add\n        /* \"#utility.yul\":32064:32095   */\n      mstore\n        /* \"#utility.yul\":31985:32102   */\n      pop\n      jump\t// out\n        /* \"#utility.yul\":32108:32283   */\n    tag_540:\n        /* \"#utility.yul\":32248:32275   */\n      0x4552433732313a20617070726f766520746f2063616c6c657200000000000000\n        /* \"#utility.yul\":32244:32245   */\n      0x00\n        /* \"#utility.yul\":32236:32242   */\n      dup3\n        /* \"#utility.yul\":32232:32246   */\n      add\n        /* \"#utility.yul\":32225:32276   */\n      mstore\n        /* \"#utility.yul\":32214:32283   */\n      pop\n      jump\t// out\n        /* \"#utility.yul\":32289:32517   */\n    tag_545:\n        /* \"#utility.yul\":32429:32463   */\n      0x4552433732313a2061646472657373207a65726f206973206e6f742061207661\n        /* \"#utility.yul\":32425:32426   */\n      0x00\n        /* \"#utility.yul\":32417:32423   */\n      dup3\n        /* \"#utility.yul\":32413:32427   */\n      add\n        /* \"#utility.yul\":32406:32464   */\n      mstore\n        /* \"#utility.yul\":32498:32509   */\n      0x6c6964206f776e65720000000000000000000000000000000000000000000000\n        /* \"#utility.yul\":32493:32495   */\n      0x20\n        /* \"#utility.yul\":32485:32491   */\n      dup3\n        /* \"#utility.yul\":32481:32496   */\n      add\n        /* \"#utility.yul\":32474:32510   */\n      mstore\n        /* \"#utility.yul\":32395:32517   */\n      pop\n      jump\t// out\n        /* \"#utility.yul\":32523:32705   */\n    tag_550:\n        /* \"#utility.yul\":32663:32697   */\n      0x4552433732313a206d696e7420746f20746865207a65726f2061646472657373\n        /* \"#utility.yul\":32659:32660   */\n      0x00\n        /* \"#utility.yul\":32651:32657   */\n      dup3\n        /* \"#utility.yul\":32647:32661   */\n      add\n        /* \"#utility.yul\":32640:32698   */\n      mstore\n        /* \"#utility.yul\":32629:32705   */\n      pop\n      jump\t// out\n        /* \"#utility.yul\":32711:32885   */\n    tag_555:\n        /* \"#utility.yul\":32851:32877   */\n      0x4552433732313a20696e76616c696420746f6b656e2049440000000000000000\n        /* \"#utility.yul\":32847:32848   */\n      0x00\n        /* \"#utility.yul\":32839:32845   */\n      dup3\n        /* \"#utility.yul\":32835:32849   */\n      add\n        /* \"#utility.yul\":32828:32878   */\n      mstore\n        /* \"#utility.yul\":32817:32885   */\n      pop\n      jump\t// out\n        /* \"#utility.yul\":32891:33111   */\n    tag_560:\n        /* \"#utility.yul\":33031:33065   */\n      0x4552433732313a20617070726f76616c20746f2063757272656e74206f776e65\n        /* \"#utility.yul\":33027:33028   */\n      0x00\n        /* \"#utility.yul\":33019:33025   */\n      dup3\n        /* \"#utility.yul\":33015:33029   */\n      add\n        /* \"#utility.yul\":33008:33066   */\n      mstore\n        /* \"#utility.yul\":33100:33103   */\n      0x7200000000000000000000000000000000000000000000000000000000000000\n        /* \"#utility.yul\":33095:33097   */\n      0x20\n        /* \"#utility.yul\":33087:33093   */\n      dup3\n        /* \"#utility.yul\":33083:33098   */\n      add\n        /* \"#utility.yul\":33076:33104   */\n      mstore\n        /* \"#utility.yul\":32997:33111   */\n      pop\n      jump\t// out\n        /* \"#utility.yul\":33117:33365   */\n    tag_565:\n        /* \"#utility.yul\":33257:33291   */\n      0x4552433732313a20617070726f76652063616c6c6572206973206e6f7420746f\n        /* \"#utility.yul\":33253:33254   */\n      0x00\n        /* \"#utility.yul\":33245:33251   */\n      dup3\n        /* \"#utility.yul\":33241:33255   */\n      add\n        /* \"#utility.yul\":33234:33292   */\n      mstore\n        /* \"#utility.yul\":33326:33357   */\n      0x6b656e206f776e6572206f7220617070726f76656420666f7220616c6c000000\n        /* \"#utility.yul\":33321:33323   */\n      0x20\n        /* \"#utility.yul\":33313:33319   */\n      dup3\n        /* \"#utility.yul\":33309:33324   */\n      add\n        /* \"#utility.yul\":33302:33358   */\n      mstore\n        /* \"#utility.yul\":33223:33365   */\n      pop\n      jump\t// out\n        /* \"#utility.yul\":33371:33493   */\n    tag_365:\n        /* \"#utility.yul\":33444:33468   */\n      tag_714\n        /* \"#utility.yul\":33462:33467   */\n      dup2\n        /* \"#utility.yul\":33444:33468   */\n      tag_451\n      jump\t// in\n    tag_714:\n        /* \"#utility.yul\":33437:33442   */\n      dup2\n        /* \"#utility.yul\":33434:33469   */\n      eq\n        /* \"#utility.yul\":33424:33426   */\n      tag_715\n      jumpi\n        /* \"#utility.yul\":33483:33484   */\n      0x00\n        /* \"#utility.yul\":33480:33481   */\n      dup1\n        /* \"#utility.yul\":33473:33485   */\n      revert\n        /* \"#utility.yul\":33424:33426   */\n    tag_715:\n        /* \"#utility.yul\":33414:33493   */\n      pop\n      jump\t// out\n        /* \"#utility.yul\":33499:33615   */\n    tag_377:\n        /* \"#utility.yul\":33569:33590   */\n      tag_717\n        /* \"#utility.yul\":33584:33589   */\n      dup2\n        /* \"#utility.yul\":33569:33590   */\n      tag_486\n      jump\t// in\n    tag_717:\n        /* \"#utility.yul\":33562:33567   */\n      dup2\n        /* \"#utility.yul\":33559:33591   */\n      eq\n        /* \"#utility.yul\":33549:33551   */\n      tag_718\n      jumpi\n        /* \"#utility.yul\":33605:33606   */\n      0x00\n        /* \"#utility.yul\":33602:33603   */\n      dup1\n        /* \"#utility.yul\":33595:33607   */\n      revert\n        /* \"#utility.yul\":33549:33551   */\n    tag_718:\n        /* \"#utility.yul\":33539:33615   */\n      pop\n      jump\t// out\n        /* \"#utility.yul\":33621:33741   */\n    tag_381:\n        /* \"#utility.yul\":33693:33716   */\n      tag_720\n        /* \"#utility.yul\":33710:33715   */\n      dup2\n        /* \"#utility.yul\":33693:33716   */\n      tag_669\n      jump\t// in\n    tag_720:\n        /* \"#utility.yul\":33686:33691   */\n      dup2\n        /* \"#utility.yul\":33683:33717   */\n      eq\n        /* \"#utility.yul\":33673:33675   */\n      tag_721\n      jumpi\n        /* \"#utility.yul\":33731:33732   */\n      0x00\n        /* \"#utility.yul\":33728:33729   */\n      dup1\n        /* \"#utility.yul\":33721:33733   */\n      revert\n        /* \"#utility.yul\":33673:33675   */\n    tag_721:\n        /* \"#utility.yul\":33663:33741   */\n      pop\n      jump\t// out\n        /* \"#utility.yul\":33747:33869   */\n    tag_395:\n        /* \"#utility.yul\":33820:33844   */\n      tag_723\n        /* \"#utility.yul\":33838:33843   */\n      dup2\n        /* \"#utility.yul\":33820:33844   */\n      tag_568\n      jump\t// in\n    tag_723:\n        /* \"#utility.yul\":33813:33818   */\n      dup2\n        /* \"#utility.yul\":33810:33845   */\n      eq\n        /* \"#utility.yul\":33800:33802   */\n      tag_724\n      jumpi\n        /* \"#utility.yul\":33859:33860   */\n      0x00\n        /* \"#utility.yul\":33856:33857   */\n      dup1\n        /* \"#utility.yul\":33849:33861   */\n      revert\n        /* \"#utility.yul\":33800:33802   */\n    tag_724:\n        /* \"#utility.yul\":33790:33869   */\n      pop\n      jump\t// out\n\n    auxdata: 0xa26469706673582212206fc76b1f4c898e167933a26d92ac506551dfe3aa3dec45af073192e9e98b997864736f6c63430008040033\n}\n",
				"bytecode": {
					"linkReferences": {},
					"object": "60806040523480156200001157600080fd5b50604051620031b0380380620031b0833981810160405281019062000037919062000193565b81600190805190602001906200004f92919062000071565b5080600290805190602001906200006892919062000071565b50505062000376565b8280546200007f906200029b565b90600052602060002090601f016020900481019282620000a35760008555620000ef565b82601f10620000be57805160ff1916838001178555620000ef565b82800160010185558215620000ef579182015b82811115620000ee578251825591602001919060010190620000d1565b5b509050620000fe919062000102565b5090565b5b808211156200011d57600081600090555060010162000103565b5090565b60006200013862000132846200022f565b62000206565b9050828152602081018484840111156200015157600080fd5b6200015e84828562000265565b509392505050565b600082601f8301126200017857600080fd5b81516200018a84826020860162000121565b91505092915050565b60008060408385031215620001a757600080fd5b600083015167ffffffffffffffff811115620001c257600080fd5b620001d08582860162000166565b925050602083015167ffffffffffffffff811115620001ee57600080fd5b620001fc8582860162000166565b9150509250929050565b60006200021262000225565b9050620002208282620002d1565b919050565b6000604051905090565b600067ffffffffffffffff8211156200024d576200024c62000336565b5b620002588262000365565b9050602081019050919050565b60005b838110156200028557808201518184015260208101905062000268565b8381111562000295576000848401525b50505050565b60006002820490506001821680620002b457607f821691505b60208210811415620002cb57620002ca62000307565b5b50919050565b620002dc8262000365565b810181811067ffffffffffffffff82111715620002fe57620002fd62000336565b5b80604052505050565b7f4e487b7100000000000000000000000000000000000000000000000000000000600052602260045260246000fd5b7f4e487b7100000000000000000000000000000000000000000000000000000000600052604160045260246000fd5b6000601f19601f8301169050919050565b612e2a80620003866000396000f3fe608060405234801561001057600080fd5b50600436106101005760003560e01c80636352211e11610097578063b88d4fde11610066578063b88d4fde146102d1578063c87b56dd146102ed578063e985e9c51461031d578063ee48cda21461034d57610100565b80636352211e1461023757806370a082311461026757806395d89b4114610297578063a22cb465146102b557610100565b806323b872dd116100d357806323b872dd1461019f578063381568d8146101bb57806342842e0e146101eb57806352e048251461020757610100565b806301ffc9a71461010557806306fdde0314610135578063081812fc14610153578063095ea7b314610183575b600080fd5b61011f600480360381019061011a9190611fbf565b61037d565b60405161012c9190612464565b60405180910390f35b61013d61045f565b60405161014a919061247f565b60405180910390f35b61016d60048036038101906101689190612011565b6104f1565b60405161017a91906123b9565b60405180910390f35b61019d60048036038101906101989190611f83565b610537565b005b6101b960048036038101906101b49190611dd2565b61064f565b005b6101d560048036038101906101d09190611e9c565b6106af565b6040516101e29190612601565b60405180910390f35b61020560048036038101906102009190611dd2565b6106eb565b005b610221600480360381019061021c9190612011565b61070b565b60405161022e9190612420565b60405180910390f35b610251600480360381019061024c9190612011565b6107b2565b60405161025e91906123b9565b60405180910390f35b610281600480360381019061027c9190611d6d565b610864565b60405161028e9190612601565b60405180910390f35b61029f61091c565b6040516102ac919061247f565b60405180910390f35b6102cf60048036038101906102ca9190611f47565b6109ae565b005b6102eb60048036038101906102e69190611e21565b6109c4565b005b61030760048036038101906103029190612011565b610a26565b604051610314919061247f565b60405180910390f35b61033760048036038101906103329190611d96565b610a8e565b6040516103449190612464565b60405180910390f35b61036760048036038101906103629190612011565b610b22565b6040516103749190612442565b60405180910390f35b60007f80ac58cd000000000000000000000000000000000000000000000000000000007bffffffffffffffffffffffffffffffffffffffffffffffffffffffff1916827bffffffffffffffffffffffffffffffffffffffffffffffffffffffff1916148061044857507f5b5e139f000000000000000000000000000000000000000000000000000000007bffffffffffffffffffffffffffffffffffffffffffffffffffffffff1916827bffffffffffffffffffffffffffffffffffffffffffffffffffffffff1916145b80610458575061045782610b93565b5b9050919050565b60606001805461046e90612921565b80601f016020809104026020016040519081016040528092919081815260200182805461049a90612921565b80156104e75780601f106104bc576101008083540402835291602001916104e7565b820191906000526020600020905b8154815290600101906020018083116104ca57829003601f168201915b5050505050905090565b60006104fc82610bfd565b6007600083815260200190815260200160002060009054906101000a900473ffffffffffffffffffffffffffffffffffffffff169050919050565b6000610542826107b2565b90508073ffffffffffffffffffffffffffffffffffffffff168373ffffffffffffffffffffffffffffffffffffffff1614156105b3576040517f08c379a00000000000000000000000000000000000000000000000000000000081526004016105aa906125c1565b60405180910390fd5b8073ffffffffffffffffffffffffffffffffffffffff166105d2610c48565b73ffffffffffffffffffffffffffffffffffffffff1614806106015750610600816105fb610c48565b610a8e565b5b610640576040517f08c379a0000000000000000000000000000000000000000000000000000000008152600401610637906125e1565b60405180910390fd5b61064a8383610c50565b505050565b61066061065a610c48565b82610d09565b61069f576040517f08c379a0000000000000000000000000000000000000000000000000000000008152600401610696906124a1565b60405180910390fd5b6106aa838383610d9e565b505050565b60006106bb6000611094565b60006106c760006110aa565b90506106d5868686846110b8565b6106df81846110da565b80915050949350505050565b610706838383604051806020016040528060008152506109c4565b505050565b60606000600460008481526020019081526020016000208054806020026020016040519081016040528092919081815260200182805480156107a257602002820191906000526020600020905b8160009054906101000a900473ffffffffffffffffffffffffffffffffffffffff1673ffffffffffffffffffffffffffffffffffffffff1681526020019060010190808311610758575b5050505050905080915050919050565b6000806003600084815260200190815260200160002060009054906101000a900473ffffffffffffffffffffffffffffffffffffffff169050600073ffffffffffffffffffffffffffffffffffffffff168173ffffffffffffffffffffffffffffffffffffffff16141561085b576040517f08c379a0000000000000000000000000000000000000000000000000000000008152600401610852906125a1565b60405180910390fd5b80915050919050565b60008073ffffffffffffffffffffffffffffffffffffffff168273ffffffffffffffffffffffffffffffffffffffff1614156108d5576040517f08c379a00000000000000000000000000000000000000000000000000000000081526004016108cc90612561565b60405180910390fd5b600660008373ffffffffffffffffffffffffffffffffffffffff1673ffffffffffffffffffffffffffffffffffffffff168152602001908152602001600020549050919050565b60606002805461092b90612921565b80601f016020809104026020016040519081016040528092919081815260200182805461095790612921565b80156109a45780601f10610979576101008083540402835291602001916109a4565b820191906000526020600020905b81548152906001019060200180831161098757829003601f168201915b5050505050905090565b6109c06109b9610c48565b8383611106565b5050565b6109d56109cf610c48565b83610d09565b610a14576040517f08c379a0000000000000000000000000000000000000000000000000000000008152600401610a0b906124a1565b60405180910390fd5b610a2084848484611273565b50505050565b6060610a3182610bfd565b6000610a3b6112cf565b90506000815111610a5b5760405180602001604052806000815250610a86565b80610a65846112e6565b604051602001610a76929190612395565b6040516020818303038152906040525b915050919050565b6000600860008473ffffffffffffffffffffffffffffffffffffffff1673ffffffffffffffffffffffffffffffffffffffff16815260200190815260200160002060008373ffffffffffffffffffffffffffffffffffffffff1673ffffffffffffffffffffffffffffffffffffffff16815260200190815260200160002060009054906101000a900460ff16905092915050565b6060600060056000848152602001908152602001600020805480602002602001604051908101604052809291908181526020018280548015610b8357602002820191906000526020600020905b815481526020019060010190808311610b6f575b5050505050905080915050919050565b60007f01ffc9a7000000000000000000000000000000000000000000000000000000007bffffffffffffffffffffffffffffffffffffffffffffffffffffffff1916827bffffffffffffffffffffffffffffffffffffffffffffffffffffffff1916149050919050565b610c0681611493565b610c45576040517f08c379a0000000000000000000000000000000000000000000000000000000008152600401610c3c906125a1565b60405180910390fd5b50565b600033905090565b816007600083815260200190815260200160002060006101000a81548173ffffffffffffffffffffffffffffffffffffffff021916908373ffffffffffffffffffffffffffffffffffffffff160217905550808273ffffffffffffffffffffffffffffffffffffffff16610cc3836107b2565b73ffffffffffffffffffffffffffffffffffffffff167f8c5be1e5ebec7d5bd14f71427d1e84f3dd0314c0f7b2291e5b200ac8c7c3b92560405160405180910390a45050565b600080610d15836107b2565b90508073ffffffffffffffffffffffffffffffffffffffff168473ffffffffffffffffffffffffffffffffffffffff161480610d575750610d568185610a8e565b5b80610d9557508373ffffffffffffffffffffffffffffffffffffffff16610d7d846104f1565b73ffffffffffffffffffffffffffffffffffffffff16145b91505092915050565b8273ffffffffffffffffffffffffffffffffffffffff16610dbe826107b2565b73ffffffffffffffffffffffffffffffffffffffff1614610e14576040517f08c379a0000000000000000000000000000000000000000000000000000000008152600401610e0b906124e1565b60405180910390fd5b600073ffffffffffffffffffffffffffffffffffffffff168273ffffffffffffffffffffffffffffffffffffffff161415610e84576040517f08c379a0000000000000000000000000000000000000000000000000000000008152600401610e7b90612521565b60405180910390fd5b610e8f8383836114ff565b8273ffffffffffffffffffffffffffffffffffffffff16610eaf826107b2565b73ffffffffffffffffffffffffffffffffffffffff1614610f05576040517f08c379a0000000000000000000000000000000000000000000000000000000008152600401610efc906124e1565b60405180910390fd5b6007600082815260200190815260200160002060006101000a81549073ffffffffffffffffffffffffffffffffffffffff02191690556001600660008573ffffffffffffffffffffffffffffffffffffffff1673ffffffffffffffffffffffffffffffffffffffff168152602001908152602001600020600082825403925050819055506001600660008473ffffffffffffffffffffffffffffffffffffffff1673ffffffffffffffffffffffffffffffffffffffff16815260200190815260200160002060008282540192505081905550816003600083815260200190815260200160002060006101000a81548173ffffffffffffffffffffffffffffffffffffffff021916908373ffffffffffffffffffffffffffffffffffffffff160217905550808273ffffffffffffffffffffffffffffffffffffffff168473ffffffffffffffffffffffffffffffffffffffff167fddf252ad1be2c89b69c2b068fc378daa952ba7f163c4a11628f55a4df523b3ef60405160405180910390a461108f838383611504565b505050565b6001816000016000828254019250508190555050565b600081600001549050919050565b6110d48484848460405180602001604052806000815250611509565b50505050565b8060096000848152602001908152602001600020908051906020019061110192919061198e565b505050565b8173ffffffffffffffffffffffffffffffffffffffff168373ffffffffffffffffffffffffffffffffffffffff161415611175576040517f08c379a000000000000000000000000000000000000000000000000000000000815260040161116c90612541565b60405180910390fd5b80600860008573ffffffffffffffffffffffffffffffffffffffff1673ffffffffffffffffffffffffffffffffffffffff16815260200190815260200160002060008473ffffffffffffffffffffffffffffffffffffffff1673ffffffffffffffffffffffffffffffffffffffff16815260200190815260200160002060006101000a81548160ff0219169083151502179055508173ffffffffffffffffffffffffffffffffffffffff168373ffffffffffffffffffffffffffffffffffffffff167f17307eab39ab6107e8899845ad3d59bd9653f200f220920489ca2b5937696c31836040516112669190612464565b60405180910390a3505050565b61127e848484610d9e565b61128a84848484611568565b6112c9576040517f08c379a00000000000000000000000000000000000000000000000000000000081526004016112c0906124c1565b60405180910390fd5b50505050565b606060405180602001604052806000815250905090565b6060600082141561132e576040518060400160405280600181526020017f3000000000000000000000000000000000000000000000000000000000000000815250905061148e565b600082905060005b6000821461136057808061134990612984565b915050600a826113599190612806565b9150611336565b60008167ffffffffffffffff8111156113a2577f4e487b7100000000000000000000000000000000000000000000000000000000600052604160045260246000fd5b6040519080825280601f01601f1916602001820160405280156113d45781602001600182028036833780820191505090505b5090505b60008514611487576001826113ed9190612837565b9150600a856113fc91906129cd565b603061140891906127b0565b60f81b818381518110611444577f4e487b7100000000000000000000000000000000000000000000000000000000600052603260045260246000fd5b60200101907effffffffffffffffffffffffffffffffffffffffffffffffffffffffffffff1916908160001a905350600a856114809190612806565b94506113d8565b8093505050505b919050565b60008073ffffffffffffffffffffffffffffffffffffffff166003600084815260200190815260200160002060009054906101000a900473ffffffffffffffffffffffffffffffffffffffff1673ffffffffffffffffffffffffffffffffffffffff1614159050919050565b505050565b505050565b611515858585856116ff565b6115226000868484611568565b611561576040517f08c379a0000000000000000000000000000000000000000000000000000000008152600401611558906124c1565b60405180910390fd5b5050505050565b60006115898473ffffffffffffffffffffffffffffffffffffffff1661196b565b156116f2578373ffffffffffffffffffffffffffffffffffffffff1663150b7a026115b2610c48565b8786866040518563ffffffff1660e01b81526004016115d494939291906123d4565b602060405180830381600087803b1580156115ee57600080fd5b505af192505050801561161f57506040513d601f19601f8201168201806040525081019061161c9190611fe8565b60015b6116a2573d806000811461164f576040519150601f19603f3d011682016040523d82523d6000602084013e611654565b606091505b5060008151141561169a576040517f08c379a0000000000000000000000000000000000000000000000000000000008152600401611691906124c1565b60405180910390fd5b805181602001fd5b63150b7a0260e01b7bffffffffffffffffffffffffffffffffffffffffffffffffffffffff1916817bffffffffffffffffffffffffffffffffffffffffffffffffffffffff1916149150506116f7565b600190505b949350505050565b600073ffffffffffffffffffffffffffffffffffffffff168473ffffffffffffffffffffffffffffffffffffffff16141561176f576040517f08c379a000000000000000000000000000000000000000000000000000000000815260040161176690612581565b60405180910390fd5b61177881611493565b156117b8576040517f08c379a00000000000000000000000000000000000000000000000000000000081526004016117af90612501565b60405180910390fd5b6117c4600085836114ff565b6117cd81611493565b1561180d576040517f08c379a000000000000000000000000000000000000000000000000000000000815260040161180490612501565b60405180910390fd5b6001600660008673ffffffffffffffffffffffffffffffffffffffff1673ffffffffffffffffffffffffffffffffffffffff16815260200190815260200160002060008282540192505081905550836003600083815260200190815260200160002060006101000a81548173ffffffffffffffffffffffffffffffffffffffff021916908373ffffffffffffffffffffffffffffffffffffffff160217905550826004600083815260200190815260200160002090805190602001906118d4929190611a14565b50816005600083815260200190815260200160002090805190602001906118fc929190611a9e565b50808473ffffffffffffffffffffffffffffffffffffffff16600073ffffffffffffffffffffffffffffffffffffffff167fddf252ad1be2c89b69c2b068fc378daa952ba7f163c4a11628f55a4df523b3ef60405160405180910390a461196560008583611504565b50505050565b6000808273ffffffffffffffffffffffffffffffffffffffff163b119050919050565b82805461199a90612921565b90600052602060002090601f0160209004810192826119bc5760008555611a03565b82601f106119d557805160ff1916838001178555611a03565b82800160010185558215611a03579182015b82811115611a025782518255916020019190600101906119e7565b5b509050611a109190611aeb565b5090565b828054828255906000526020600020908101928215611a8d579160200282015b82811115611a8c5782518260006101000a81548173ffffffffffffffffffffffffffffffffffffffff021916908373ffffffffffffffffffffffffffffffffffffffff16021790555091602001919060010190611a34565b5b509050611a9a9190611aeb565b5090565b828054828255906000526020600020908101928215611ada579160200282015b82811115611ad9578251825591602001919060010190611abe565b5b509050611ae79190611aeb565b5090565b5b80821115611b04576000816000905550600101611aec565b5090565b6000611b1b611b1684612641565b61261c565b90508083825260208201905082856020860282011115611b3a57600080fd5b60005b85811015611b6a5781611b508882611c5c565b845260208401935060208301925050600181019050611b3d565b5050509392505050565b6000611b87611b828461266d565b61261c565b90508083825260208201905082856020860282011115611ba657600080fd5b60005b85811015611bd65781611bbc8882611d58565b845260208401935060208301925050600181019050611ba9565b5050509392505050565b6000611bf3611bee84612699565b61261c565b905082815260208101848484011115611c0b57600080fd5b611c168482856128df565b509392505050565b6000611c31611c2c846126ca565b61261c565b905082815260208101848484011115611c4957600080fd5b611c548482856128df565b509392505050565b600081359050611c6b81612d98565b92915050565b600082601f830112611c8257600080fd5b8135611c92848260208601611b08565b91505092915050565b600082601f830112611cac57600080fd5b8135611cbc848260208601611b74565b91505092915050565b600081359050611cd481612daf565b92915050565b600081359050611ce981612dc6565b92915050565b600081519050611cfe81612dc6565b92915050565b600082601f830112611d1557600080fd5b8135611d25848260208601611be0565b91505092915050565b600082601f830112611d3f57600080fd5b8135611d4f848260208601611c1e565b91505092915050565b600081359050611d6781612ddd565b92915050565b600060208284031215611d7f57600080fd5b6000611d8d84828501611c5c565b91505092915050565b60008060408385031215611da957600080fd5b6000611db785828601611c5c565b9250506020611dc885828601611c5c565b9150509250929050565b600080600060608486031215611de757600080fd5b6000611df586828701611c5c565b9350506020611e0686828701611c5c565b9250506040611e1786828701611d58565b9150509250925092565b60008060008060808587031215611e3757600080fd5b6000611e4587828801611c5c565b9450506020611e5687828801611c5c565b9350506040611e6787828801611d58565b925050606085013567ffffffffffffffff811115611e8457600080fd5b611e9087828801611d04565b91505092959194509250565b60008060008060808587031215611eb257600080fd5b6000611ec087828801611c5c565b945050602085013567ffffffffffffffff811115611edd57600080fd5b611ee987828801611c71565b935050604085013567ffffffffffffffff811115611f0657600080fd5b611f1287828801611c9b565b925050606085013567ffffffffffffffff811115611f2f57600080fd5b611f3b87828801611d2e565b91505092959194509250565b60008060408385031215611f5a57600080fd5b6000611f6885828601611c5c565b9250506020611f7985828601611cc5565b9150509250929050565b60008060408385031215611f9657600080fd5b6000611fa485828601611c5c565b9250506020611fb585828601611d58565b9150509250929050565b600060208284031215611fd157600080fd5b6000611fdf84828501611cda565b91505092915050565b600060208284031215611ffa57600080fd5b600061200884828501611cef565b91505092915050565b60006020828403121561202357600080fd5b600061203184828501611d58565b91505092915050565b6000612046838361206a565b60208301905092915050565b600061205e8383612377565b60208301905092915050565b6120738161286b565b82525050565b6120828161286b565b82525050565b60006120938261271b565b61209d8185612761565b93506120a8836126fb565b8060005b838110156120d95781516120c0888261203a565b97506120cb83612747565b9250506001810190506120ac565b5085935050505092915050565b60006120f182612726565b6120fb8185612772565b93506121068361270b565b8060005b8381101561213757815161211e8882612052565b975061212983612754565b92505060018101905061210a565b5085935050505092915050565b61214d8161287d565b82525050565b600061215e82612731565b6121688185612783565b93506121788185602086016128ee565b61218181612aba565b840191505092915050565b60006121978261273c565b6121a18185612794565b93506121b18185602086016128ee565b6121ba81612aba565b840191505092915050565b60006121d08261273c565b6121da81856127a5565b93506121ea8185602086016128ee565b80840191505092915050565b6000612203602d83612794565b915061220e82612acb565b604082019050919050565b6000612226603283612794565b915061223182612b1a565b604082019050919050565b6000612249602583612794565b915061225482612b69565b604082019050919050565b600061226c601c83612794565b915061227782612bb8565b602082019050919050565b600061228f602483612794565b915061229a82612be1565b604082019050919050565b60006122b2601983612794565b91506122bd82612c30565b602082019050919050565b60006122d5602983612794565b91506122e082612c59565b604082019050919050565b60006122f8602083612794565b915061230382612ca8565b602082019050919050565b600061231b601883612794565b915061232682612cd1565b602082019050919050565b600061233e602183612794565b915061234982612cfa565b604082019050919050565b6000612361603d83612794565b915061236c82612d49565b604082019050919050565b612380816128d5565b82525050565b61238f816128d5565b82525050565b60006123a182856121c5565b91506123ad82846121c5565b91508190509392505050565b60006020820190506123ce6000830184612079565b92915050565b60006080820190506123e96000830187612079565b6123f66020830186612079565b6124036040830185612386565b81810360608301526124158184612153565b905095945050505050565b6000602082019050818103600083015261243a8184612088565b905092915050565b6000602082019050818103600083015261245c81846120e6565b905092915050565b60006020820190506124796000830184612144565b92915050565b60006020820190508181036000830152612499818461218c565b905092915050565b600060208201905081810360008301526124ba816121f6565b9050919050565b600060208201905081810360008301526124da81612219565b9050919050565b600060208201905081810360008301526124fa8161223c565b9050919050565b6000602082019050818103600083015261251a8161225f565b9050919050565b6000602082019050818103600083015261253a81612282565b9050919050565b6000602082019050818103600083015261255a816122a5565b9050919050565b6000602082019050818103600083015261257a816122c8565b9050919050565b6000602082019050818103600083015261259a816122eb565b9050919050565b600060208201905081810360008301526125ba8161230e565b9050919050565b600060208201905081810360008301526125da81612331565b9050919050565b600060208201905081810360008301526125fa81612354565b9050919050565b60006020820190506126166000830184612386565b92915050565b6000612626612637565b90506126328282612953565b919050565b6000604051905090565b600067ffffffffffffffff82111561265c5761265b612a8b565b5b602082029050602081019050919050565b600067ffffffffffffffff82111561268857612687612a8b565b5b602082029050602081019050919050565b600067ffffffffffffffff8211156126b4576126b3612a8b565b5b6126bd82612aba565b9050602081019050919050565b600067ffffffffffffffff8211156126e5576126e4612a8b565b5b6126ee82612aba565b9050602081019050919050565b6000819050602082019050919050565b6000819050602082019050919050565b600081519050919050565b600081519050919050565b600081519050919050565b600081519050919050565b6000602082019050919050565b6000602082019050919050565b600082825260208201905092915050565b600082825260208201905092915050565b600082825260208201905092915050565b600082825260208201905092915050565b600081905092915050565b60006127bb826128d5565b91506127c6836128d5565b9250827fffffffffffffffffffffffffffffffffffffffffffffffffffffffffffffffff038211156127fb576127fa6129fe565b5b828201905092915050565b6000612811826128d5565b915061281c836128d5565b92508261282c5761282b612a2d565b5b828204905092915050565b6000612842826128d5565b915061284d836128d5565b9250828210156128605761285f6129fe565b5b828203905092915050565b6000612876826128b5565b9050919050565b60008115159050919050565b60007fffffffff0000000000000000000000000000000000000000000000000000000082169050919050565b600073ffffffffffffffffffffffffffffffffffffffff82169050919050565b6000819050919050565b82818337600083830152505050565b60005b8381101561290c5780820151818401526020810190506128f1565b8381111561291b576000848401525b50505050565b6000600282049050600182168061293957607f821691505b6020821081141561294d5761294c612a5c565b5b50919050565b61295c82612aba565b810181811067ffffffffffffffff8211171561297b5761297a612a8b565b5b80604052505050565b600061298f826128d5565b91507fffffffffffffffffffffffffffffffffffffffffffffffffffffffffffffffff8214156129c2576129c16129fe565b5b600182019050919050565b60006129d8826128d5565b91506129e3836128d5565b9250826129f3576129f2612a2d565b5b828206905092915050565b7f4e487b7100000000000000000000000000000000000000000000000000000000600052601160045260246000fd5b7f4e487b7100000000000000000000000000000000000000000000000000000000600052601260045260246000fd5b7f4e487b7100000000000000000000000000000000000000000000000000000000600052602260045260246000fd5b7f4e487b7100000000000000000000000000000000000000000000000000000000600052604160045260246000fd5b6000601f19601f8301169050919050565b7f4552433732313a2063616c6c6572206973206e6f7420746f6b656e206f776e6560008201527f72206f7220617070726f76656400000000000000000000000000000000000000602082015250565b7f4552433732313a207472616e7366657220746f206e6f6e20455243373231526560008201527f63656976657220696d706c656d656e7465720000000000000000000000000000602082015250565b7f4552433732313a207472616e736665722066726f6d20696e636f72726563742060008201527f6f776e6572000000000000000000000000000000000000000000000000000000602082015250565b7f4552433732313a20746f6b656e20616c7265616479206d696e74656400000000600082015250565b7f4552433732313a207472616e7366657220746f20746865207a65726f2061646460008201527f7265737300000000000000000000000000000000000000000000000000000000602082015250565b7f4552433732313a20617070726f766520746f2063616c6c657200000000000000600082015250565b7f4552433732313a2061646472657373207a65726f206973206e6f74206120766160008201527f6c6964206f776e65720000000000000000000000000000000000000000000000602082015250565b7f4552433732313a206d696e7420746f20746865207a65726f2061646472657373600082015250565b7f4552433732313a20696e76616c696420746f6b656e2049440000000000000000600082015250565b7f4552433732313a20617070726f76616c20746f2063757272656e74206f776e6560008201527f7200000000000000000000000000000000000000000000000000000000000000602082015250565b7f4552433732313a20617070726f76652063616c6c6572206973206e6f7420746f60008201527f6b656e206f776e6572206f7220617070726f76656420666f7220616c6c000000602082015250565b612da18161286b565b8114612dac57600080fd5b50565b612db88161287d565b8114612dc357600080fd5b50565b612dcf81612889565b8114612dda57600080fd5b50565b612de6816128d5565b8114612df157600080fd5b5056fea26469706673582212206fc76b1f4c898e167933a26d92ac506551dfe3aa3dec45af073192e9e98b997864736f6c63430008040033",
					"opcodes": "PUSH1 0x80 PUSH1 0x40 MSTORE CALLVALUE DUP1 ISZERO PUSH3 0x11 JUMPI PUSH1 0x0 DUP1 REVERT JUMPDEST POP PUSH1 0x40 MLOAD PUSH3 0x31B0 CODESIZE SUB DUP1 PUSH3 0x31B0 DUP4 CODECOPY DUP2 DUP2 ADD PUSH1 0x40 MSTORE DUP2 ADD SWAP1 PUSH3 0x37 SWAP2 SWAP1 PUSH3 0x193 JUMP JUMPDEST DUP2 PUSH1 0x1 SWAP1 DUP1 MLOAD SWAP1 PUSH1 0x20 ADD SWAP1 PUSH3 0x4F SWAP3 SWAP2 SWAP1 PUSH3 0x71 JUMP JUMPDEST POP DUP1 PUSH1 0x2 SWAP1 DUP1 MLOAD SWAP1 PUSH1 0x20 ADD SWAP1 PUSH3 0x68 SWAP3 SWAP2 SWAP1 PUSH3 0x71 JUMP JUMPDEST POP POP POP PUSH3 0x376 JUMP JUMPDEST DUP3 DUP1 SLOAD PUSH3 0x7F SWAP1 PUSH3 0x29B JUMP JUMPDEST SWAP1 PUSH1 0x0 MSTORE PUSH1 0x20 PUSH1 0x0 KECCAK256 SWAP1 PUSH1 0x1F ADD PUSH1 0x20 SWAP1 DIV DUP2 ADD SWAP3 DUP3 PUSH3 0xA3 JUMPI PUSH1 0x0 DUP6 SSTORE PUSH3 0xEF JUMP JUMPDEST DUP3 PUSH1 0x1F LT PUSH3 0xBE JUMPI DUP1 MLOAD PUSH1 0xFF NOT AND DUP4 DUP1 ADD OR DUP6 SSTORE PUSH3 0xEF JUMP JUMPDEST DUP3 DUP1 ADD PUSH1 0x1 ADD DUP6 SSTORE DUP3 ISZERO PUSH3 0xEF JUMPI SWAP2 DUP3 ADD JUMPDEST DUP3 DUP2 GT ISZERO PUSH3 0xEE JUMPI DUP3 MLOAD DUP3 SSTORE SWAP2 PUSH1 0x20 ADD SWAP2 SWAP1 PUSH1 0x1 ADD SWAP1 PUSH3 0xD1 JUMP JUMPDEST JUMPDEST POP SWAP1 POP PUSH3 0xFE SWAP2 SWAP1 PUSH3 0x102 JUMP JUMPDEST POP SWAP1 JUMP JUMPDEST JUMPDEST DUP1 DUP3 GT ISZERO PUSH3 0x11D JUMPI PUSH1 0x0 DUP2 PUSH1 0x0 SWAP1 SSTORE POP PUSH1 0x1 ADD PUSH3 0x103 JUMP JUMPDEST POP SWAP1 JUMP JUMPDEST PUSH1 0x0 PUSH3 0x138 PUSH3 0x132 DUP5 PUSH3 0x22F JUMP JUMPDEST PUSH3 0x206 JUMP JUMPDEST SWAP1 POP DUP3 DUP2 MSTORE PUSH1 0x20 DUP2 ADD DUP5 DUP5 DUP5 ADD GT ISZERO PUSH3 0x151 JUMPI PUSH1 0x0 DUP1 REVERT JUMPDEST PUSH3 0x15E DUP5 DUP3 DUP6 PUSH3 0x265 JUMP JUMPDEST POP SWAP4 SWAP3 POP POP POP JUMP JUMPDEST PUSH1 0x0 DUP3 PUSH1 0x1F DUP4 ADD SLT PUSH3 0x178 JUMPI PUSH1 0x0 DUP1 REVERT JUMPDEST DUP2 MLOAD PUSH3 0x18A DUP5 DUP3 PUSH1 0x20 DUP7 ADD PUSH3 0x121 JUMP JUMPDEST SWAP2 POP POP SWAP3 SWAP2 POP POP JUMP JUMPDEST PUSH1 0x0 DUP1 PUSH1 0x40 DUP4 DUP6 SUB SLT ISZERO PUSH3 0x1A7 JUMPI PUSH1 0x0 DUP1 REVERT JUMPDEST PUSH1 0x0 DUP4 ADD MLOAD PUSH8 0xFFFFFFFFFFFFFFFF DUP2 GT ISZERO PUSH3 0x1C2 JUMPI PUSH1 0x0 DUP1 REVERT JUMPDEST PUSH3 0x1D0 DUP6 DUP3 DUP7 ADD PUSH3 0x166 JUMP JUMPDEST SWAP3 POP POP PUSH1 0x20 DUP4 ADD MLOAD PUSH8 0xFFFFFFFFFFFFFFFF DUP2 GT ISZERO PUSH3 0x1EE JUMPI PUSH1 0x0 DUP1 REVERT JUMPDEST PUSH3 0x1FC DUP6 DUP3 DUP7 ADD PUSH3 0x166 JUMP JUMPDEST SWAP2 POP POP SWAP3 POP SWAP3 SWAP1 POP JUMP JUMPDEST PUSH1 0x0 PUSH3 0x212 PUSH3 0x225 JUMP JUMPDEST SWAP1 POP PUSH3 0x220 DUP3 DUP3 PUSH3 0x2D1 JUMP JUMPDEST SWAP2 SWAP1 POP JUMP JUMPDEST PUSH1 0x0 PUSH1 0x40 MLOAD SWAP1 POP SWAP1 JUMP JUMPDEST PUSH1 0x0 PUSH8 0xFFFFFFFFFFFFFFFF DUP3 GT ISZERO PUSH3 0x24D JUMPI PUSH3 0x24C PUSH3 0x336 JUMP JUMPDEST JUMPDEST PUSH3 0x258 DUP3 PUSH3 0x365 JUMP JUMPDEST SWAP1 POP PUSH1 0x20 DUP2 ADD SWAP1 POP SWAP2 SWAP1 POP JUMP JUMPDEST PUSH1 0x0 JUMPDEST DUP4 DUP2 LT ISZERO PUSH3 0x285 JUMPI DUP1 DUP3 ADD MLOAD DUP2 DUP5 ADD MSTORE PUSH1 0x20 DUP2 ADD SWAP1 POP PUSH3 0x268 JUMP JUMPDEST DUP4 DUP2 GT ISZERO PUSH3 0x295 JUMPI PUSH1 0x0 DUP5 DUP5 ADD MSTORE JUMPDEST POP POP POP POP JUMP JUMPDEST PUSH1 0x0 PUSH1 0x2 DUP3 DIV SWAP1 POP PUSH1 0x1 DUP3 AND DUP1 PUSH3 0x2B4 JUMPI PUSH1 0x7F DUP3 AND SWAP2 POP JUMPDEST PUSH1 0x20 DUP3 LT DUP2 EQ ISZERO PUSH3 0x2CB JUMPI PUSH3 0x2CA PUSH3 0x307 JUMP JUMPDEST JUMPDEST POP SWAP2 SWAP1 POP JUMP JUMPDEST PUSH3 0x2DC DUP3 PUSH3 0x365 JUMP JUMPDEST DUP2 ADD DUP2 DUP2 LT PUSH8 0xFFFFFFFFFFFFFFFF DUP3 GT OR ISZERO PUSH3 0x2FE JUMPI PUSH3 0x2FD PUSH3 0x336 JUMP JUMPDEST JUMPDEST DUP1 PUSH1 0x40 MSTORE POP POP POP JUMP JUMPDEST PUSH32 0x4E487B7100000000000000000000000000000000000000000000000000000000 PUSH1 0x0 MSTORE PUSH1 0x22 PUSH1 0x4 MSTORE PUSH1 0x24 PUSH1 0x0 REVERT JUMPDEST PUSH32 0x4E487B7100000000000000000000000000000000000000000000000000000000 PUSH1 0x0 MSTORE PUSH1 0x41 PUSH1 0x4 MSTORE PUSH1 0x24 PUSH1 0x0 REVERT JUMPDEST PUSH1 0x0 PUSH1 0x1F NOT PUSH1 0x1F DUP4 ADD AND SWAP1 POP SWAP2 SWAP1 POP JUMP JUMPDEST PUSH2 0x2E2A DUP1 PUSH3 0x386 PUSH1 0x0 CODECOPY PUSH1 0x0 RETURN INVALID PUSH1 0x80 PUSH1 0x40 MSTORE CALLVALUE DUP1 ISZERO PUSH2 0x10 JUMPI PUSH1 0x0 DUP1 REVERT JUMPDEST POP PUSH1 0x4 CALLDATASIZE LT PUSH2 0x100 JUMPI PUSH1 0x0 CALLDATALOAD PUSH1 0xE0 SHR DUP1 PUSH4 0x6352211E GT PUSH2 0x97 JUMPI DUP1 PUSH4 0xB88D4FDE GT PUSH2 0x66 JUMPI DUP1 PUSH4 0xB88D4FDE EQ PUSH2 0x2D1 JUMPI DUP1 PUSH4 0xC87B56DD EQ PUSH2 0x2ED JUMPI DUP1 PUSH4 0xE985E9C5 EQ PUSH2 0x31D JUMPI DUP1 PUSH4 0xEE48CDA2 EQ PUSH2 0x34D JUMPI PUSH2 0x100 JUMP JUMPDEST DUP1 PUSH4 0x6352211E EQ PUSH2 0x237 JUMPI DUP1 PUSH4 0x70A08231 EQ PUSH2 0x267 JUMPI DUP1 PUSH4 0x95D89B41 EQ PUSH2 0x297 JUMPI DUP1 PUSH4 0xA22CB465 EQ PUSH2 0x2B5 JUMPI PUSH2 0x100 JUMP JUMPDEST DUP1 PUSH4 0x23B872DD GT PUSH2 0xD3 JUMPI DUP1 PUSH4 0x23B872DD EQ PUSH2 0x19F JUMPI DUP1 PUSH4 0x381568D8 EQ PUSH2 0x1BB JUMPI DUP1 PUSH4 0x42842E0E EQ PUSH2 0x1EB JUMPI DUP1 PUSH4 0x52E04825 EQ PUSH2 0x207 JUMPI PUSH2 0x100 JUMP JUMPDEST DUP1 PUSH4 0x1FFC9A7 EQ PUSH2 0x105 JUMPI DUP1 PUSH4 0x6FDDE03 EQ PUSH2 0x135 JUMPI DUP1 PUSH4 0x81812FC EQ PUSH2 0x153 JUMPI DUP1 PUSH4 0x95EA7B3 EQ PUSH2 0x183 JUMPI JUMPDEST PUSH1 0x0 DUP1 REVERT JUMPDEST PUSH2 0x11F PUSH1 0x4 DUP1 CALLDATASIZE SUB DUP2 ADD SWAP1 PUSH2 0x11A SWAP2 SWAP1 PUSH2 0x1FBF JUMP JUMPDEST PUSH2 0x37D JUMP JUMPDEST PUSH1 0x40 MLOAD PUSH2 0x12C SWAP2 SWAP1 PUSH2 0x2464 JUMP JUMPDEST PUSH1 0x40 MLOAD DUP1 SWAP2 SUB SWAP1 RETURN JUMPDEST PUSH2 0x13D PUSH2 0x45F JUMP JUMPDEST PUSH1 0x40 MLOAD PUSH2 0x14A SWAP2 SWAP1 PUSH2 0x247F JUMP JUMPDEST PUSH1 0x40 MLOAD DUP1 SWAP2 SUB SWAP1 RETURN JUMPDEST PUSH2 0x16D PUSH1 0x4 DUP1 CALLDATASIZE SUB DUP2 ADD SWAP1 PUSH2 0x168 SWAP2 SWAP1 PUSH2 0x2011 JUMP JUMPDEST PUSH2 0x4F1 JUMP JUMPDEST PUSH1 0x40 MLOAD PUSH2 0x17A SWAP2 SWAP1 PUSH2 0x23B9 JUMP JUMPDEST PUSH1 0x40 MLOAD DUP1 SWAP2 SUB SWAP1 RETURN JUMPDEST PUSH2 0x19D PUSH1 0x4 DUP1 CALLDATASIZE SUB DUP2 ADD SWAP1 PUSH2 0x198 SWAP2 SWAP1 PUSH2 0x1F83 JUMP JUMPDEST PUSH2 0x537 JUMP JUMPDEST STOP JUMPDEST PUSH2 0x1B9 PUSH1 0x4 DUP1 CALLDATASIZE SUB DUP2 ADD SWAP1 PUSH2 0x1B4 SWAP2 SWAP1 PUSH2 0x1DD2 JUMP JUMPDEST PUSH2 0x64F JUMP JUMPDEST STOP JUMPDEST PUSH2 0x1D5 PUSH1 0x4 DUP1 CALLDATASIZE SUB DUP2 ADD SWAP1 PUSH2 0x1D0 SWAP2 SWAP1 PUSH2 0x1E9C JUMP JUMPDEST PUSH2 0x6AF JUMP JUMPDEST PUSH1 0x40 MLOAD PUSH2 0x1E2 SWAP2 SWAP1 PUSH2 0x2601 JUMP JUMPDEST PUSH1 0x40 MLOAD DUP1 SWAP2 SUB SWAP1 RETURN JUMPDEST PUSH2 0x205 PUSH1 0x4 DUP1 CALLDATASIZE SUB DUP2 ADD SWAP1 PUSH2 0x200 SWAP2 SWAP1 PUSH2 0x1DD2 JUMP JUMPDEST PUSH2 0x6EB JUMP JUMPDEST STOP JUMPDEST PUSH2 0x221 PUSH1 0x4 DUP1 CALLDATASIZE SUB DUP2 ADD SWAP1 PUSH2 0x21C SWAP2 SWAP1 PUSH2 0x2011 JUMP JUMPDEST PUSH2 0x70B JUMP JUMPDEST PUSH1 0x40 MLOAD PUSH2 0x22E SWAP2 SWAP1 PUSH2 0x2420 JUMP JUMPDEST PUSH1 0x40 MLOAD DUP1 SWAP2 SUB SWAP1 RETURN JUMPDEST PUSH2 0x251 PUSH1 0x4 DUP1 CALLDATASIZE SUB DUP2 ADD SWAP1 PUSH2 0x24C SWAP2 SWAP1 PUSH2 0x2011 JUMP JUMPDEST PUSH2 0x7B2 JUMP JUMPDEST PUSH1 0x40 MLOAD PUSH2 0x25E SWAP2 SWAP1 PUSH2 0x23B9 JUMP JUMPDEST PUSH1 0x40 MLOAD DUP1 SWAP2 SUB SWAP1 RETURN JUMPDEST PUSH2 0x281 PUSH1 0x4 DUP1 CALLDATASIZE SUB DUP2 ADD SWAP1 PUSH2 0x27C SWAP2 SWAP1 PUSH2 0x1D6D JUMP JUMPDEST PUSH2 0x864 JUMP JUMPDEST PUSH1 0x40 MLOAD PUSH2 0x28E SWAP2 SWAP1 PUSH2 0x2601 JUMP JUMPDEST PUSH1 0x40 MLOAD DUP1 SWAP2 SUB SWAP1 RETURN JUMPDEST PUSH2 0x29F PUSH2 0x91C JUMP JUMPDEST PUSH1 0x40 MLOAD PUSH2 0x2AC SWAP2 SWAP1 PUSH2 0x247F JUMP JUMPDEST PUSH1 0x40 MLOAD DUP1 SWAP2 SUB SWAP1 RETURN JUMPDEST PUSH2 0x2CF PUSH1 0x4 DUP1 CALLDATASIZE SUB DUP2 ADD SWAP1 PUSH2 0x2CA SWAP2 SWAP1 PUSH2 0x1F47 JUMP JUMPDEST PUSH2 0x9AE JUMP JUMPDEST STOP JUMPDEST PUSH2 0x2EB PUSH1 0x4 DUP1 CALLDATASIZE SUB DUP2 ADD SWAP1 PUSH2 0x2E6 SWAP2 SWAP1 PUSH2 0x1E21 JUMP JUMPDEST PUSH2 0x9C4 JUMP JUMPDEST STOP JUMPDEST PUSH2 0x307 PUSH1 0x4 DUP1 CALLDATASIZE SUB DUP2 ADD SWAP1 PUSH2 0x302 SWAP2 SWAP1 PUSH2 0x2011 JUMP JUMPDEST PUSH2 0xA26 JUMP JUMPDEST PUSH1 0x40 MLOAD PUSH2 0x314 SWAP2 SWAP1 PUSH2 0x247F JUMP JUMPDEST PUSH1 0x40 MLOAD DUP1 SWAP2 SUB SWAP1 RETURN JUMPDEST PUSH2 0x337 PUSH1 0x4 DUP1 CALLDATASIZE SUB DUP2 ADD SWAP1 PUSH2 0x332 SWAP2 SWAP1 PUSH2 0x1D96 JUMP JUMPDEST PUSH2 0xA8E JUMP JUMPDEST PUSH1 0x40 MLOAD PUSH2 0x344 SWAP2 SWAP1 PUSH2 0x2464 JUMP JUMPDEST PUSH1 0x40 MLOAD DUP1 SWAP2 SUB SWAP1 RETURN JUMPDEST PUSH2 0x367 PUSH1 0x4 DUP1 CALLDATASIZE SUB DUP2 ADD SWAP1 PUSH2 0x362 SWAP2 SWAP1 PUSH2 0x2011 JUMP JUMPDEST PUSH2 0xB22 JUMP JUMPDEST PUSH1 0x40 MLOAD PUSH2 0x374 SWAP2 SWAP1 PUSH2 0x2442 JUMP JUMPDEST PUSH1 0x40 MLOAD DUP1 SWAP2 SUB SWAP1 RETURN JUMPDEST PUSH1 0x0 PUSH32 0x80AC58CD00000000000000000000000000000000000000000000000000000000 PUSH28 0xFFFFFFFFFFFFFFFFFFFFFFFFFFFFFFFFFFFFFFFFFFFFFFFFFFFFFFFF NOT AND DUP3 PUSH28 0xFFFFFFFFFFFFFFFFFFFFFFFFFFFFFFFFFFFFFFFFFFFFFFFFFFFFFFFF NOT AND EQ DUP1 PUSH2 0x448 JUMPI POP PUSH32 0x5B5E139F00000000000000000000000000000000000000000000000000000000 PUSH28 0xFFFFFFFFFFFFFFFFFFFFFFFFFFFFFFFFFFFFFFFFFFFFFFFFFFFFFFFF NOT AND DUP3 PUSH28 0xFFFFFFFFFFFFFFFFFFFFFFFFFFFFFFFFFFFFFFFFFFFFFFFFFFFFFFFF NOT AND EQ JUMPDEST DUP1 PUSH2 0x458 JUMPI POP PUSH2 0x457 DUP3 PUSH2 0xB93 JUMP JUMPDEST JUMPDEST SWAP1 POP SWAP2 SWAP1 POP JUMP JUMPDEST PUSH1 0x60 PUSH1 0x1 DUP1 SLOAD PUSH2 0x46E SWAP1 PUSH2 0x2921 JUMP JUMPDEST DUP1 PUSH1 0x1F ADD PUSH1 0x20 DUP1 SWAP2 DIV MUL PUSH1 0x20 ADD PUSH1 0x40 MLOAD SWAP1 DUP2 ADD PUSH1 0x40 MSTORE DUP1 SWAP3 SWAP2 SWAP1 DUP2 DUP2 MSTORE PUSH1 0x20 ADD DUP3 DUP1 SLOAD PUSH2 0x49A SWAP1 PUSH2 0x2921 JUMP JUMPDEST DUP1 ISZERO PUSH2 0x4E7 JUMPI DUP1 PUSH1 0x1F LT PUSH2 0x4BC JUMPI PUSH2 0x100 DUP1 DUP4 SLOAD DIV MUL DUP4 MSTORE SWAP2 PUSH1 0x20 ADD SWAP2 PUSH2 0x4E7 JUMP JUMPDEST DUP3 ADD SWAP2 SWAP1 PUSH1 0x0 MSTORE PUSH1 0x20 PUSH1 0x0 KECCAK256 SWAP1 JUMPDEST DUP2 SLOAD DUP2 MSTORE SWAP1 PUSH1 0x1 ADD SWAP1 PUSH1 0x20 ADD DUP1 DUP4 GT PUSH2 0x4CA JUMPI DUP3 SWAP1 SUB PUSH1 0x1F AND DUP3 ADD SWAP2 JUMPDEST POP POP POP POP POP SWAP1 POP SWAP1 JUMP JUMPDEST PUSH1 0x0 PUSH2 0x4FC DUP3 PUSH2 0xBFD JUMP JUMPDEST PUSH1 0x7 PUSH1 0x0 DUP4 DUP2 MSTORE PUSH1 0x20 ADD SWAP1 DUP2 MSTORE PUSH1 0x20 ADD PUSH1 0x0 KECCAK256 PUSH1 0x0 SWAP1 SLOAD SWAP1 PUSH2 0x100 EXP SWAP1 DIV PUSH20 0xFFFFFFFFFFFFFFFFFFFFFFFFFFFFFFFFFFFFFFFF AND SWAP1 POP SWAP2 SWAP1 POP JUMP JUMPDEST PUSH1 0x0 PUSH2 0x542 DUP3 PUSH2 0x7B2 JUMP JUMPDEST SWAP1 POP DUP1 PUSH20 0xFFFFFFFFFFFFFFFFFFFFFFFFFFFFFFFFFFFFFFFF AND DUP4 PUSH20 0xFFFFFFFFFFFFFFFFFFFFFFFFFFFFFFFFFFFFFFFF AND EQ ISZERO PUSH2 0x5B3 JUMPI PUSH1 0x40 MLOAD PUSH32 0x8C379A000000000000000000000000000000000000000000000000000000000 DUP2 MSTORE PUSH1 0x4 ADD PUSH2 0x5AA SWAP1 PUSH2 0x25C1 JUMP JUMPDEST PUSH1 0x40 MLOAD DUP1 SWAP2 SUB SWAP1 REVERT JUMPDEST DUP1 PUSH20 0xFFFFFFFFFFFFFFFFFFFFFFFFFFFFFFFFFFFFFFFF AND PUSH2 0x5D2 PUSH2 0xC48 JUMP JUMPDEST PUSH20 0xFFFFFFFFFFFFFFFFFFFFFFFFFFFFFFFFFFFFFFFF AND EQ DUP1 PUSH2 0x601 JUMPI POP PUSH2 0x600 DUP2 PUSH2 0x5FB PUSH2 0xC48 JUMP JUMPDEST PUSH2 0xA8E JUMP JUMPDEST JUMPDEST PUSH2 0x640 JUMPI PUSH1 0x40 MLOAD PUSH32 0x8C379A000000000000000000000000000000000000000000000000000000000 DUP2 MSTORE PUSH1 0x4 ADD PUSH2 0x637 SWAP1 PUSH2 0x25E1 JUMP JUMPDEST PUSH1 0x40 MLOAD DUP1 SWAP2 SUB SWAP1 REVERT JUMPDEST PUSH2 0x64A DUP4 DUP4 PUSH2 0xC50 JUMP JUMPDEST POP POP POP JUMP JUMPDEST PUSH2 0x660 PUSH2 0x65A PUSH2 0xC48 JUMP JUMPDEST DUP3 PUSH2 0xD09 JUMP JUMPDEST PUSH2 0x69F JUMPI PUSH1 0x40 MLOAD PUSH32 0x8C379A000000000000000000000000000000000000000000000000000000000 DUP2 MSTORE PUSH1 0x4 ADD PUSH2 0x696 SWAP1 PUSH2 0x24A1 JUMP JUMPDEST PUSH1 0x40 MLOAD DUP1 SWAP2 SUB SWAP1 REVERT JUMPDEST PUSH2 0x6AA DUP4 DUP4 DUP4 PUSH2 0xD9E JUMP JUMPDEST POP POP POP JUMP JUMPDEST PUSH1 0x0 PUSH2 0x6BB PUSH1 0x0 PUSH2 0x1094 JUMP JUMPDEST PUSH1 0x0 PUSH2 0x6C7 PUSH1 0x0 PUSH2 0x10AA JUMP JUMPDEST SWAP1 POP PUSH2 0x6D5 DUP7 DUP7 DUP7 DUP5 PUSH2 0x10B8 JUMP JUMPDEST PUSH2 0x6DF DUP2 DUP5 PUSH2 0x10DA JUMP JUMPDEST DUP1 SWAP2 POP POP SWAP5 SWAP4 POP POP POP POP JUMP JUMPDEST PUSH2 0x706 DUP4 DUP4 DUP4 PUSH1 0x40 MLOAD DUP1 PUSH1 0x20 ADD PUSH1 0x40 MSTORE DUP1 PUSH1 0x0 DUP2 MSTORE POP PUSH2 0x9C4 JUMP JUMPDEST POP POP POP JUMP JUMPDEST PUSH1 0x60 PUSH1 0x0 PUSH1 0x4 PUSH1 0x0 DUP5 DUP2 MSTORE PUSH1 0x20 ADD SWAP1 DUP2 MSTORE PUSH1 0x20 ADD PUSH1 0x0 KECCAK256 DUP1 SLOAD DUP1 PUSH1 0x20 MUL PUSH1 0x20 ADD PUSH1 0x40 MLOAD SWAP1 DUP2 ADD PUSH1 0x40 MSTORE DUP1 SWAP3 SWAP2 SWAP1 DUP2 DUP2 MSTORE PUSH1 0x20 ADD DUP3 DUP1 SLOAD DUP1 ISZERO PUSH2 0x7A2 JUMPI PUSH1 0x20 MUL DUP3 ADD SWAP2 SWAP1 PUSH1 0x0 MSTORE PUSH1 0x20 PUSH1 0x0 KECCAK256 SWAP1 JUMPDEST DUP2 PUSH1 0x0 SWAP1 SLOAD SWAP1 PUSH2 0x100 EXP SWAP1 DIV PUSH20 0xFFFFFFFFFFFFFFFFFFFFFFFFFFFFFFFFFFFFFFFF AND PUSH20 0xFFFFFFFFFFFFFFFFFFFFFFFFFFFFFFFFFFFFFFFF AND DUP2 MSTORE PUSH1 0x20 ADD SWAP1 PUSH1 0x1 ADD SWAP1 DUP1 DUP4 GT PUSH2 0x758 JUMPI JUMPDEST POP POP POP POP POP SWAP1 POP DUP1 SWAP2 POP POP SWAP2 SWAP1 POP JUMP JUMPDEST PUSH1 0x0 DUP1 PUSH1 0x3 PUSH1 0x0 DUP5 DUP2 MSTORE PUSH1 0x20 ADD SWAP1 DUP2 MSTORE PUSH1 0x20 ADD PUSH1 0x0 KECCAK256 PUSH1 0x0 SWAP1 SLOAD SWAP1 PUSH2 0x100 EXP SWAP1 DIV PUSH20 0xFFFFFFFFFFFFFFFFFFFFFFFFFFFFFFFFFFFFFFFF AND SWAP1 POP PUSH1 0x0 PUSH20 0xFFFFFFFFFFFFFFFFFFFFFFFFFFFFFFFFFFFFFFFF AND DUP2 PUSH20 0xFFFFFFFFFFFFFFFFFFFFFFFFFFFFFFFFFFFFFFFF AND EQ ISZERO PUSH2 0x85B JUMPI PUSH1 0x40 MLOAD PUSH32 0x8C379A000000000000000000000000000000000000000000000000000000000 DUP2 MSTORE PUSH1 0x4 ADD PUSH2 0x852 SWAP1 PUSH2 0x25A1 JUMP JUMPDEST PUSH1 0x40 MLOAD DUP1 SWAP2 SUB SWAP1 REVERT JUMPDEST DUP1 SWAP2 POP POP SWAP2 SWAP1 POP JUMP JUMPDEST PUSH1 0x0 DUP1 PUSH20 0xFFFFFFFFFFFFFFFFFFFFFFFFFFFFFFFFFFFFFFFF AND DUP3 PUSH20 0xFFFFFFFFFFFFFFFFFFFFFFFFFFFFFFFFFFFFFFFF AND EQ ISZERO PUSH2 0x8D5 JUMPI PUSH1 0x40 MLOAD PUSH32 0x8C379A000000000000000000000000000000000000000000000000000000000 DUP2 MSTORE PUSH1 0x4 ADD PUSH2 0x8CC SWAP1 PUSH2 0x2561 JUMP JUMPDEST PUSH1 0x40 MLOAD DUP1 SWAP2 SUB SWAP1 REVERT JUMPDEST PUSH1 0x6 PUSH1 0x0 DUP4 PUSH20 0xFFFFFFFFFFFFFFFFFFFFFFFFFFFFFFFFFFFFFFFF AND PUSH20 0xFFFFFFFFFFFFFFFFFFFFFFFFFFFFFFFFFFFFFFFF AND DUP2 MSTORE PUSH1 0x20 ADD SWAP1 DUP2 MSTORE PUSH1 0x20 ADD PUSH1 0x0 KECCAK256 SLOAD SWAP1 POP SWAP2 SWAP1 POP JUMP JUMPDEST PUSH1 0x60 PUSH1 0x2 DUP1 SLOAD PUSH2 0x92B SWAP1 PUSH2 0x2921 JUMP JUMPDEST DUP1 PUSH1 0x1F ADD PUSH1 0x20 DUP1 SWAP2 DIV MUL PUSH1 0x20 ADD PUSH1 0x40 MLOAD SWAP1 DUP2 ADD PUSH1 0x40 MSTORE DUP1 SWAP3 SWAP2 SWAP1 DUP2 DUP2 MSTORE PUSH1 0x20 ADD DUP3 DUP1 SLOAD PUSH2 0x957 SWAP1 PUSH2 0x2921 JUMP JUMPDEST DUP1 ISZERO PUSH2 0x9A4 JUMPI DUP1 PUSH1 0x1F LT PUSH2 0x979 JUMPI PUSH2 0x100 DUP1 DUP4 SLOAD DIV MUL DUP4 MSTORE SWAP2 PUSH1 0x20 ADD SWAP2 PUSH2 0x9A4 JUMP JUMPDEST DUP3 ADD SWAP2 SWAP1 PUSH1 0x0 MSTORE PUSH1 0x20 PUSH1 0x0 KECCAK256 SWAP1 JUMPDEST DUP2 SLOAD DUP2 MSTORE SWAP1 PUSH1 0x1 ADD SWAP1 PUSH1 0x20 ADD DUP1 DUP4 GT PUSH2 0x987 JUMPI DUP3 SWAP1 SUB PUSH1 0x1F AND DUP3 ADD SWAP2 JUMPDEST POP POP POP POP POP SWAP1 POP SWAP1 JUMP JUMPDEST PUSH2 0x9C0 PUSH2 0x9B9 PUSH2 0xC48 JUMP JUMPDEST DUP4 DUP4 PUSH2 0x1106 JUMP JUMPDEST POP POP JUMP JUMPDEST PUSH2 0x9D5 PUSH2 0x9CF PUSH2 0xC48 JUMP JUMPDEST DUP4 PUSH2 0xD09 JUMP JUMPDEST PUSH2 0xA14 JUMPI PUSH1 0x40 MLOAD PUSH32 0x8C379A000000000000000000000000000000000000000000000000000000000 DUP2 MSTORE PUSH1 0x4 ADD PUSH2 0xA0B SWAP1 PUSH2 0x24A1 JUMP JUMPDEST PUSH1 0x40 MLOAD DUP1 SWAP2 SUB SWAP1 REVERT JUMPDEST PUSH2 0xA20 DUP5 DUP5 DUP5 DUP5 PUSH2 0x1273 JUMP JUMPDEST POP POP POP POP JUMP JUMPDEST PUSH1 0x60 PUSH2 0xA31 DUP3 PUSH2 0xBFD JUMP JUMPDEST PUSH1 0x0 PUSH2 0xA3B PUSH2 0x12CF JUMP JUMPDEST SWAP1 POP PUSH1 0x0 DUP2 MLOAD GT PUSH2 0xA5B JUMPI PUSH1 0x40 MLOAD DUP1 PUSH1 0x20 ADD PUSH1 0x40 MSTORE DUP1 PUSH1 0x0 DUP2 MSTORE POP PUSH2 0xA86 JUMP JUMPDEST DUP1 PUSH2 0xA65 DUP5 PUSH2 0x12E6 JUMP JUMPDEST PUSH1 0x40 MLOAD PUSH1 0x20 ADD PUSH2 0xA76 SWAP3 SWAP2 SWAP1 PUSH2 0x2395 JUMP JUMPDEST PUSH1 0x40 MLOAD PUSH1 0x20 DUP2 DUP4 SUB SUB DUP2 MSTORE SWAP1 PUSH1 0x40 MSTORE JUMPDEST SWAP2 POP POP SWAP2 SWAP1 POP JUMP JUMPDEST PUSH1 0x0 PUSH1 0x8 PUSH1 0x0 DUP5 PUSH20 0xFFFFFFFFFFFFFFFFFFFFFFFFFFFFFFFFFFFFFFFF AND PUSH20 0xFFFFFFFFFFFFFFFFFFFFFFFFFFFFFFFFFFFFFFFF AND DUP2 MSTORE PUSH1 0x20 ADD SWAP1 DUP2 MSTORE PUSH1 0x20 ADD PUSH1 0x0 KECCAK256 PUSH1 0x0 DUP4 PUSH20 0xFFFFFFFFFFFFFFFFFFFFFFFFFFFFFFFFFFFFFFFF AND PUSH20 0xFFFFFFFFFFFFFFFFFFFFFFFFFFFFFFFFFFFFFFFF AND DUP2 MSTORE PUSH1 0x20 ADD SWAP1 DUP2 MSTORE PUSH1 0x20 ADD PUSH1 0x0 KECCAK256 PUSH1 0x0 SWAP1 SLOAD SWAP1 PUSH2 0x100 EXP SWAP1 DIV PUSH1 0xFF AND SWAP1 POP SWAP3 SWAP2 POP POP JUMP JUMPDEST PUSH1 0x60 PUSH1 0x0 PUSH1 0x5 PUSH1 0x0 DUP5 DUP2 MSTORE PUSH1 0x20 ADD SWAP1 DUP2 MSTORE PUSH1 0x20 ADD PUSH1 0x0 KECCAK256 DUP1 SLOAD DUP1 PUSH1 0x20 MUL PUSH1 0x20 ADD PUSH1 0x40 MLOAD SWAP1 DUP2 ADD PUSH1 0x40 MSTORE DUP1 SWAP3 SWAP2 SWAP1 DUP2 DUP2 MSTORE PUSH1 0x20 ADD DUP3 DUP1 SLOAD DUP1 ISZERO PUSH2 0xB83 JUMPI PUSH1 0x20 MUL DUP3 ADD SWAP2 SWAP1 PUSH1 0x0 MSTORE PUSH1 0x20 PUSH1 0x0 KECCAK256 SWAP1 JUMPDEST DUP2 SLOAD DUP2 MSTORE PUSH1 0x20 ADD SWAP1 PUSH1 0x1 ADD SWAP1 DUP1 DUP4 GT PUSH2 0xB6F JUMPI JUMPDEST POP POP POP POP POP SWAP1 POP DUP1 SWAP2 POP POP SWAP2 SWAP1 POP JUMP JUMPDEST PUSH1 0x0 PUSH32 0x1FFC9A700000000000000000000000000000000000000000000000000000000 PUSH28 0xFFFFFFFFFFFFFFFFFFFFFFFFFFFFFFFFFFFFFFFFFFFFFFFFFFFFFFFF NOT AND DUP3 PUSH28 0xFFFFFFFFFFFFFFFFFFFFFFFFFFFFFFFFFFFFFFFFFFFFFFFFFFFFFFFF NOT AND EQ SWAP1 POP SWAP2 SWAP1 POP JUMP JUMPDEST PUSH2 0xC06 DUP2 PUSH2 0x1493 JUMP JUMPDEST PUSH2 0xC45 JUMPI PUSH1 0x40 MLOAD PUSH32 0x8C379A000000000000000000000000000000000000000000000000000000000 DUP2 MSTORE PUSH1 0x4 ADD PUSH2 0xC3C SWAP1 PUSH2 0x25A1 JUMP JUMPDEST PUSH1 0x40 MLOAD DUP1 SWAP2 SUB SWAP1 REVERT JUMPDEST POP JUMP JUMPDEST PUSH1 0x0 CALLER SWAP1 POP SWAP1 JUMP JUMPDEST DUP2 PUSH1 0x7 PUSH1 0x0 DUP4 DUP2 MSTORE PUSH1 0x20 ADD SWAP1 DUP2 MSTORE PUSH1 0x20 ADD PUSH1 0x0 KECCAK256 PUSH1 0x0 PUSH2 0x100 EXP DUP2 SLOAD DUP2 PUSH20 0xFFFFFFFFFFFFFFFFFFFFFFFFFFFFFFFFFFFFFFFF MUL NOT AND SWAP1 DUP4 PUSH20 0xFFFFFFFFFFFFFFFFFFFFFFFFFFFFFFFFFFFFFFFF AND MUL OR SWAP1 SSTORE POP DUP1 DUP3 PUSH20 0xFFFFFFFFFFFFFFFFFFFFFFFFFFFFFFFFFFFFFFFF AND PUSH2 0xCC3 DUP4 PUSH2 0x7B2 JUMP JUMPDEST PUSH20 0xFFFFFFFFFFFFFFFFFFFFFFFFFFFFFFFFFFFFFFFF AND PUSH32 0x8C5BE1E5EBEC7D5BD14F71427D1E84F3DD0314C0F7B2291E5B200AC8C7C3B925 PUSH1 0x40 MLOAD PUSH1 0x40 MLOAD DUP1 SWAP2 SUB SWAP1 LOG4 POP POP JUMP JUMPDEST PUSH1 0x0 DUP1 PUSH2 0xD15 DUP4 PUSH2 0x7B2 JUMP JUMPDEST SWAP1 POP DUP1 PUSH20 0xFFFFFFFFFFFFFFFFFFFFFFFFFFFFFFFFFFFFFFFF AND DUP5 PUSH20 0xFFFFFFFFFFFFFFFFFFFFFFFFFFFFFFFFFFFFFFFF AND EQ DUP1 PUSH2 0xD57 JUMPI POP PUSH2 0xD56 DUP2 DUP6 PUSH2 0xA8E JUMP JUMPDEST JUMPDEST DUP1 PUSH2 0xD95 JUMPI POP DUP4 PUSH20 0xFFFFFFFFFFFFFFFFFFFFFFFFFFFFFFFFFFFFFFFF AND PUSH2 0xD7D DUP5 PUSH2 0x4F1 JUMP JUMPDEST PUSH20 0xFFFFFFFFFFFFFFFFFFFFFFFFFFFFFFFFFFFFFFFF AND EQ JUMPDEST SWAP2 POP POP SWAP3 SWAP2 POP POP JUMP JUMPDEST DUP3 PUSH20 0xFFFFFFFFFFFFFFFFFFFFFFFFFFFFFFFFFFFFFFFF AND PUSH2 0xDBE DUP3 PUSH2 0x7B2 JUMP JUMPDEST PUSH20 0xFFFFFFFFFFFFFFFFFFFFFFFFFFFFFFFFFFFFFFFF AND EQ PUSH2 0xE14 JUMPI PUSH1 0x40 MLOAD PUSH32 0x8C379A000000000000000000000000000000000000000000000000000000000 DUP2 MSTORE PUSH1 0x4 ADD PUSH2 0xE0B SWAP1 PUSH2 0x24E1 JUMP JUMPDEST PUSH1 0x40 MLOAD DUP1 SWAP2 SUB SWAP1 REVERT JUMPDEST PUSH1 0x0 PUSH20 0xFFFFFFFFFFFFFFFFFFFFFFFFFFFFFFFFFFFFFFFF AND DUP3 PUSH20 0xFFFFFFFFFFFFFFFFFFFFFFFFFFFFFFFFFFFFFFFF AND EQ ISZERO PUSH2 0xE84 JUMPI PUSH1 0x40 MLOAD PUSH32 0x8C379A000000000000000000000000000000000000000000000000000000000 DUP2 MSTORE PUSH1 0x4 ADD PUSH2 0xE7B SWAP1 PUSH2 0x2521 JUMP JUMPDEST PUSH1 0x40 MLOAD DUP1 SWAP2 SUB SWAP1 REVERT JUMPDEST PUSH2 0xE8F DUP4 DUP4 DUP4 PUSH2 0x14FF JUMP JUMPDEST DUP3 PUSH20 0xFFFFFFFFFFFFFFFFFFFFFFFFFFFFFFFFFFFFFFFF AND PUSH2 0xEAF DUP3 PUSH2 0x7B2 JUMP JUMPDEST PUSH20 0xFFFFFFFFFFFFFFFFFFFFFFFFFFFFFFFFFFFFFFFF AND EQ PUSH2 0xF05 JUMPI PUSH1 0x40 MLOAD PUSH32 0x8C379A000000000000000000000000000000000000000000000000000000000 DUP2 MSTORE PUSH1 0x4 ADD PUSH2 0xEFC SWAP1 PUSH2 0x24E1 JUMP JUMPDEST PUSH1 0x40 MLOAD DUP1 SWAP2 SUB SWAP1 REVERT JUMPDEST PUSH1 0x7 PUSH1 0x0 DUP3 DUP2 MSTORE PUSH1 0x20 ADD SWAP1 DUP2 MSTORE PUSH1 0x20 ADD PUSH1 0x0 KECCAK256 PUSH1 0x0 PUSH2 0x100 EXP DUP2 SLOAD SWAP1 PUSH20 0xFFFFFFFFFFFFFFFFFFFFFFFFFFFFFFFFFFFFFFFF MUL NOT AND SWAP1 SSTORE PUSH1 0x1 PUSH1 0x6 PUSH1 0x0 DUP6 PUSH20 0xFFFFFFFFFFFFFFFFFFFFFFFFFFFFFFFFFFFFFFFF AND PUSH20 0xFFFFFFFFFFFFFFFFFFFFFFFFFFFFFFFFFFFFFFFF AND DUP2 MSTORE PUSH1 0x20 ADD SWAP1 DUP2 MSTORE PUSH1 0x20 ADD PUSH1 0x0 KECCAK256 PUSH1 0x0 DUP3 DUP3 SLOAD SUB SWAP3 POP POP DUP2 SWAP1 SSTORE POP PUSH1 0x1 PUSH1 0x6 PUSH1 0x0 DUP5 PUSH20 0xFFFFFFFFFFFFFFFFFFFFFFFFFFFFFFFFFFFFFFFF AND PUSH20 0xFFFFFFFFFFFFFFFFFFFFFFFFFFFFFFFFFFFFFFFF AND DUP2 MSTORE PUSH1 0x20 ADD SWAP1 DUP2 MSTORE PUSH1 0x20 ADD PUSH1 0x0 KECCAK256 PUSH1 0x0 DUP3 DUP3 SLOAD ADD SWAP3 POP POP DUP2 SWAP1 SSTORE POP DUP2 PUSH1 0x3 PUSH1 0x0 DUP4 DUP2 MSTORE PUSH1 0x20 ADD SWAP1 DUP2 MSTORE PUSH1 0x20 ADD PUSH1 0x0 KECCAK256 PUSH1 0x0 PUSH2 0x100 EXP DUP2 SLOAD DUP2 PUSH20 0xFFFFFFFFFFFFFFFFFFFFFFFFFFFFFFFFFFFFFFFF MUL NOT AND SWAP1 DUP4 PUSH20 0xFFFFFFFFFFFFFFFFFFFFFFFFFFFFFFFFFFFFFFFF AND MUL OR SWAP1 SSTORE POP DUP1 DUP3 PUSH20 0xFFFFFFFFFFFFFFFFFFFFFFFFFFFFFFFFFFFFFFFF AND DUP5 PUSH20 0xFFFFFFFFFFFFFFFFFFFFFFFFFFFFFFFFFFFFFFFF AND PUSH32 0xDDF252AD1BE2C89B69C2B068FC378DAA952BA7F163C4A11628F55A4DF523B3EF PUSH1 0x40 MLOAD PUSH1 0x40 MLOAD DUP1 SWAP2 SUB SWAP1 LOG4 PUSH2 0x108F DUP4 DUP4 DUP4 PUSH2 0x1504 JUMP JUMPDEST POP POP POP JUMP JUMPDEST PUSH1 0x1 DUP2 PUSH1 0x0 ADD PUSH1 0x0 DUP3 DUP3 SLOAD ADD SWAP3 POP POP DUP2 SWAP1 SSTORE POP POP JUMP JUMPDEST PUSH1 0x0 DUP2 PUSH1 0x0 ADD SLOAD SWAP1 POP SWAP2 SWAP1 POP JUMP JUMPDEST PUSH2 0x10D4 DUP5 DUP5 DUP5 DUP5 PUSH1 0x40 MLOAD DUP1 PUSH1 0x20 ADD PUSH1 0x40 MSTORE DUP1 PUSH1 0x0 DUP2 MSTORE POP PUSH2 0x1509 JUMP JUMPDEST POP POP POP POP JUMP JUMPDEST DUP1 PUSH1 0x9 PUSH1 0x0 DUP5 DUP2 MSTORE PUSH1 0x20 ADD SWAP1 DUP2 MSTORE PUSH1 0x20 ADD PUSH1 0x0 KECCAK256 SWAP1 DUP1 MLOAD SWAP1 PUSH1 0x20 ADD SWAP1 PUSH2 0x1101 SWAP3 SWAP2 SWAP1 PUSH2 0x198E JUMP JUMPDEST POP POP POP JUMP JUMPDEST DUP2 PUSH20 0xFFFFFFFFFFFFFFFFFFFFFFFFFFFFFFFFFFFFFFFF AND DUP4 PUSH20 0xFFFFFFFFFFFFFFFFFFFFFFFFFFFFFFFFFFFFFFFF AND EQ ISZERO PUSH2 0x1175 JUMPI PUSH1 0x40 MLOAD PUSH32 0x8C379A000000000000000000000000000000000000000000000000000000000 DUP2 MSTORE PUSH1 0x4 ADD PUSH2 0x116C SWAP1 PUSH2 0x2541 JUMP JUMPDEST PUSH1 0x40 MLOAD DUP1 SWAP2 SUB SWAP1 REVERT JUMPDEST DUP1 PUSH1 0x8 PUSH1 0x0 DUP6 PUSH20 0xFFFFFFFFFFFFFFFFFFFFFFFFFFFFFFFFFFFFFFFF AND PUSH20 0xFFFFFFFFFFFFFFFFFFFFFFFFFFFFFFFFFFFFFFFF AND DUP2 MSTORE PUSH1 0x20 ADD SWAP1 DUP2 MSTORE PUSH1 0x20 ADD PUSH1 0x0 KECCAK256 PUSH1 0x0 DUP5 PUSH20 0xFFFFFFFFFFFFFFFFFFFFFFFFFFFFFFFFFFFFFFFF AND PUSH20 0xFFFFFFFFFFFFFFFFFFFFFFFFFFFFFFFFFFFFFFFF AND DUP2 MSTORE PUSH1 0x20 ADD SWAP1 DUP2 MSTORE PUSH1 0x20 ADD PUSH1 0x0 KECCAK256 PUSH1 0x0 PUSH2 0x100 EXP DUP2 SLOAD DUP2 PUSH1 0xFF MUL NOT AND SWAP1 DUP4 ISZERO ISZERO MUL OR SWAP1 SSTORE POP DUP2 PUSH20 0xFFFFFFFFFFFFFFFFFFFFFFFFFFFFFFFFFFFFFFFF AND DUP4 PUSH20 0xFFFFFFFFFFFFFFFFFFFFFFFFFFFFFFFFFFFFFFFF AND PUSH32 0x17307EAB39AB6107E8899845AD3D59BD9653F200F220920489CA2B5937696C31 DUP4 PUSH1 0x40 MLOAD PUSH2 0x1266 SWAP2 SWAP1 PUSH2 0x2464 JUMP JUMPDEST PUSH1 0x40 MLOAD DUP1 SWAP2 SUB SWAP1 LOG3 POP POP POP JUMP JUMPDEST PUSH2 0x127E DUP5 DUP5 DUP5 PUSH2 0xD9E JUMP JUMPDEST PUSH2 0x128A DUP5 DUP5 DUP5 DUP5 PUSH2 0x1568 JUMP JUMPDEST PUSH2 0x12C9 JUMPI PUSH1 0x40 MLOAD PUSH32 0x8C379A000000000000000000000000000000000000000000000000000000000 DUP2 MSTORE PUSH1 0x4 ADD PUSH2 0x12C0 SWAP1 PUSH2 0x24C1 JUMP JUMPDEST PUSH1 0x40 MLOAD DUP1 SWAP2 SUB SWAP1 REVERT JUMPDEST POP POP POP POP JUMP JUMPDEST PUSH1 0x60 PUSH1 0x40 MLOAD DUP1 PUSH1 0x20 ADD PUSH1 0x40 MSTORE DUP1 PUSH1 0x0 DUP2 MSTORE POP SWAP1 POP SWAP1 JUMP JUMPDEST PUSH1 0x60 PUSH1 0x0 DUP3 EQ ISZERO PUSH2 0x132E JUMPI PUSH1 0x40 MLOAD DUP1 PUSH1 0x40 ADD PUSH1 0x40 MSTORE DUP1 PUSH1 0x1 DUP2 MSTORE PUSH1 0x20 ADD PUSH32 0x3000000000000000000000000000000000000000000000000000000000000000 DUP2 MSTORE POP SWAP1 POP PUSH2 0x148E JUMP JUMPDEST PUSH1 0x0 DUP3 SWAP1 POP PUSH1 0x0 JUMPDEST PUSH1 0x0 DUP3 EQ PUSH2 0x1360 JUMPI DUP1 DUP1 PUSH2 0x1349 SWAP1 PUSH2 0x2984 JUMP JUMPDEST SWAP2 POP POP PUSH1 0xA DUP3 PUSH2 0x1359 SWAP2 SWAP1 PUSH2 0x2806 JUMP JUMPDEST SWAP2 POP PUSH2 0x1336 JUMP JUMPDEST PUSH1 0x0 DUP2 PUSH8 0xFFFFFFFFFFFFFFFF DUP2 GT ISZERO PUSH2 0x13A2 JUMPI PUSH32 0x4E487B7100000000000000000000000000000000000000000000000000000000 PUSH1 0x0 MSTORE PUSH1 0x41 PUSH1 0x4 MSTORE PUSH1 0x24 PUSH1 0x0 REVERT JUMPDEST PUSH1 0x40 MLOAD SWAP1 DUP1 DUP3 MSTORE DUP1 PUSH1 0x1F ADD PUSH1 0x1F NOT AND PUSH1 0x20 ADD DUP3 ADD PUSH1 0x40 MSTORE DUP1 ISZERO PUSH2 0x13D4 JUMPI DUP2 PUSH1 0x20 ADD PUSH1 0x1 DUP3 MUL DUP1 CALLDATASIZE DUP4 CALLDATACOPY DUP1 DUP3 ADD SWAP2 POP POP SWAP1 POP JUMPDEST POP SWAP1 POP JUMPDEST PUSH1 0x0 DUP6 EQ PUSH2 0x1487 JUMPI PUSH1 0x1 DUP3 PUSH2 0x13ED SWAP2 SWAP1 PUSH2 0x2837 JUMP JUMPDEST SWAP2 POP PUSH1 0xA DUP6 PUSH2 0x13FC SWAP2 SWAP1 PUSH2 0x29CD JUMP JUMPDEST PUSH1 0x30 PUSH2 0x1408 SWAP2 SWAP1 PUSH2 0x27B0 JUMP JUMPDEST PUSH1 0xF8 SHL DUP2 DUP4 DUP2 MLOAD DUP2 LT PUSH2 0x1444 JUMPI PUSH32 0x4E487B7100000000000000000000000000000000000000000000000000000000 PUSH1 0x0 MSTORE PUSH1 0x32 PUSH1 0x4 MSTORE PUSH1 0x24 PUSH1 0x0 REVERT JUMPDEST PUSH1 0x20 ADD ADD SWAP1 PUSH31 0xFFFFFFFFFFFFFFFFFFFFFFFFFFFFFFFFFFFFFFFFFFFFFFFFFFFFFFFFFFFFFF NOT AND SWAP1 DUP2 PUSH1 0x0 BYTE SWAP1 MSTORE8 POP PUSH1 0xA DUP6 PUSH2 0x1480 SWAP2 SWAP1 PUSH2 0x2806 JUMP JUMPDEST SWAP5 POP PUSH2 0x13D8 JUMP JUMPDEST DUP1 SWAP4 POP POP POP POP JUMPDEST SWAP2 SWAP1 POP JUMP JUMPDEST PUSH1 0x0 DUP1 PUSH20 0xFFFFFFFFFFFFFFFFFFFFFFFFFFFFFFFFFFFFFFFF AND PUSH1 0x3 PUSH1 0x0 DUP5 DUP2 MSTORE PUSH1 0x20 ADD SWAP1 DUP2 MSTORE PUSH1 0x20 ADD PUSH1 0x0 KECCAK256 PUSH1 0x0 SWAP1 SLOAD SWAP1 PUSH2 0x100 EXP SWAP1 DIV PUSH20 0xFFFFFFFFFFFFFFFFFFFFFFFFFFFFFFFFFFFFFFFF AND PUSH20 0xFFFFFFFFFFFFFFFFFFFFFFFFFFFFFFFFFFFFFFFF AND EQ ISZERO SWAP1 POP SWAP2 SWAP1 POP JUMP JUMPDEST POP POP POP JUMP JUMPDEST POP POP POP JUMP JUMPDEST PUSH2 0x1515 DUP6 DUP6 DUP6 DUP6 PUSH2 0x16FF JUMP JUMPDEST PUSH2 0x1522 PUSH1 0x0 DUP7 DUP5 DUP5 PUSH2 0x1568 JUMP JUMPDEST PUSH2 0x1561 JUMPI PUSH1 0x40 MLOAD PUSH32 0x8C379A000000000000000000000000000000000000000000000000000000000 DUP2 MSTORE PUSH1 0x4 ADD PUSH2 0x1558 SWAP1 PUSH2 0x24C1 JUMP JUMPDEST PUSH1 0x40 MLOAD DUP1 SWAP2 SUB SWAP1 REVERT JUMPDEST POP POP POP POP POP JUMP JUMPDEST PUSH1 0x0 PUSH2 0x1589 DUP5 PUSH20 0xFFFFFFFFFFFFFFFFFFFFFFFFFFFFFFFFFFFFFFFF AND PUSH2 0x196B JUMP JUMPDEST ISZERO PUSH2 0x16F2 JUMPI DUP4 PUSH20 0xFFFFFFFFFFFFFFFFFFFFFFFFFFFFFFFFFFFFFFFF AND PUSH4 0x150B7A02 PUSH2 0x15B2 PUSH2 0xC48 JUMP JUMPDEST DUP8 DUP7 DUP7 PUSH1 0x40 MLOAD DUP6 PUSH4 0xFFFFFFFF AND PUSH1 0xE0 SHL DUP2 MSTORE PUSH1 0x4 ADD PUSH2 0x15D4 SWAP5 SWAP4 SWAP3 SWAP2 SWAP1 PUSH2 0x23D4 JUMP JUMPDEST PUSH1 0x20 PUSH1 0x40 MLOAD DUP1 DUP4 SUB DUP2 PUSH1 0x0 DUP8 DUP1 EXTCODESIZE ISZERO DUP1 ISZERO PUSH2 0x15EE JUMPI PUSH1 0x0 DUP1 REVERT JUMPDEST POP GAS CALL SWAP3 POP POP POP DUP1 ISZERO PUSH2 0x161F JUMPI POP PUSH1 0x40 MLOAD RETURNDATASIZE PUSH1 0x1F NOT PUSH1 0x1F DUP3 ADD AND DUP3 ADD DUP1 PUSH1 0x40 MSTORE POP DUP2 ADD SWAP1 PUSH2 0x161C SWAP2 SWAP1 PUSH2 0x1FE8 JUMP JUMPDEST PUSH1 0x1 JUMPDEST PUSH2 0x16A2 JUMPI RETURNDATASIZE DUP1 PUSH1 0x0 DUP2 EQ PUSH2 0x164F JUMPI PUSH1 0x40 MLOAD SWAP2 POP PUSH1 0x1F NOT PUSH1 0x3F RETURNDATASIZE ADD AND DUP3 ADD PUSH1 0x40 MSTORE RETURNDATASIZE DUP3 MSTORE RETURNDATASIZE PUSH1 0x0 PUSH1 0x20 DUP5 ADD RETURNDATACOPY PUSH2 0x1654 JUMP JUMPDEST PUSH1 0x60 SWAP2 POP JUMPDEST POP PUSH1 0x0 DUP2 MLOAD EQ ISZERO PUSH2 0x169A JUMPI PUSH1 0x40 MLOAD PUSH32 0x8C379A000000000000000000000000000000000000000000000000000000000 DUP2 MSTORE PUSH1 0x4 ADD PUSH2 0x1691 SWAP1 PUSH2 0x24C1 JUMP JUMPDEST PUSH1 0x40 MLOAD DUP1 SWAP2 SUB SWAP1 REVERT JUMPDEST DUP1 MLOAD DUP2 PUSH1 0x20 ADD REVERT JUMPDEST PUSH4 0x150B7A02 PUSH1 0xE0 SHL PUSH28 0xFFFFFFFFFFFFFFFFFFFFFFFFFFFFFFFFFFFFFFFFFFFFFFFFFFFFFFFF NOT AND DUP2 PUSH28 0xFFFFFFFFFFFFFFFFFFFFFFFFFFFFFFFFFFFFFFFFFFFFFFFFFFFFFFFF NOT AND EQ SWAP2 POP POP PUSH2 0x16F7 JUMP JUMPDEST PUSH1 0x1 SWAP1 POP JUMPDEST SWAP5 SWAP4 POP POP POP POP JUMP JUMPDEST PUSH1 0x0 PUSH20 0xFFFFFFFFFFFFFFFFFFFFFFFFFFFFFFFFFFFFFFFF AND DUP5 PUSH20 0xFFFFFFFFFFFFFFFFFFFFFFFFFFFFFFFFFFFFFFFF AND EQ ISZERO PUSH2 0x176F JUMPI PUSH1 0x40 MLOAD PUSH32 0x8C379A000000000000000000000000000000000000000000000000000000000 DUP2 MSTORE PUSH1 0x4 ADD PUSH2 0x1766 SWAP1 PUSH2 0x2581 JUMP JUMPDEST PUSH1 0x40 MLOAD DUP1 SWAP2 SUB SWAP1 REVERT JUMPDEST PUSH2 0x1778 DUP2 PUSH2 0x1493 JUMP JUMPDEST ISZERO PUSH2 0x17B8 JUMPI PUSH1 0x40 MLOAD PUSH32 0x8C379A000000000000000000000000000000000000000000000000000000000 DUP2 MSTORE PUSH1 0x4 ADD PUSH2 0x17AF SWAP1 PUSH2 0x2501 JUMP JUMPDEST PUSH1 0x40 MLOAD DUP1 SWAP2 SUB SWAP1 REVERT JUMPDEST PUSH2 0x17C4 PUSH1 0x0 DUP6 DUP4 PUSH2 0x14FF JUMP JUMPDEST PUSH2 0x17CD DUP2 PUSH2 0x1493 JUMP JUMPDEST ISZERO PUSH2 0x180D JUMPI PUSH1 0x40 MLOAD PUSH32 0x8C379A000000000000000000000000000000000000000000000000000000000 DUP2 MSTORE PUSH1 0x4 ADD PUSH2 0x1804 SWAP1 PUSH2 0x2501 JUMP JUMPDEST PUSH1 0x40 MLOAD DUP1 SWAP2 SUB SWAP1 REVERT JUMPDEST PUSH1 0x1 PUSH1 0x6 PUSH1 0x0 DUP7 PUSH20 0xFFFFFFFFFFFFFFFFFFFFFFFFFFFFFFFFFFFFFFFF AND PUSH20 0xFFFFFFFFFFFFFFFFFFFFFFFFFFFFFFFFFFFFFFFF AND DUP2 MSTORE PUSH1 0x20 ADD SWAP1 DUP2 MSTORE PUSH1 0x20 ADD PUSH1 0x0 KECCAK256 PUSH1 0x0 DUP3 DUP3 SLOAD ADD SWAP3 POP POP DUP2 SWAP1 SSTORE POP DUP4 PUSH1 0x3 PUSH1 0x0 DUP4 DUP2 MSTORE PUSH1 0x20 ADD SWAP1 DUP2 MSTORE PUSH1 0x20 ADD PUSH1 0x0 KECCAK256 PUSH1 0x0 PUSH2 0x100 EXP DUP2 SLOAD DUP2 PUSH20 0xFFFFFFFFFFFFFFFFFFFFFFFFFFFFFFFFFFFFFFFF MUL NOT AND SWAP1 DUP4 PUSH20 0xFFFFFFFFFFFFFFFFFFFFFFFFFFFFFFFFFFFFFFFF AND MUL OR SWAP1 SSTORE POP DUP3 PUSH1 0x4 PUSH1 0x0 DUP4 DUP2 MSTORE PUSH1 0x20 ADD SWAP1 DUP2 MSTORE PUSH1 0x20 ADD PUSH1 0x0 KECCAK256 SWAP1 DUP1 MLOAD SWAP1 PUSH1 0x20 ADD SWAP1 PUSH2 0x18D4 SWAP3 SWAP2 SWAP1 PUSH2 0x1A14 JUMP JUMPDEST POP DUP2 PUSH1 0x5 PUSH1 0x0 DUP4 DUP2 MSTORE PUSH1 0x20 ADD SWAP1 DUP2 MSTORE PUSH1 0x20 ADD PUSH1 0x0 KECCAK256 SWAP1 DUP1 MLOAD SWAP1 PUSH1 0x20 ADD SWAP1 PUSH2 0x18FC SWAP3 SWAP2 SWAP1 PUSH2 0x1A9E JUMP JUMPDEST POP DUP1 DUP5 PUSH20 0xFFFFFFFFFFFFFFFFFFFFFFFFFFFFFFFFFFFFFFFF AND PUSH1 0x0 PUSH20 0xFFFFFFFFFFFFFFFFFFFFFFFFFFFFFFFFFFFFFFFF AND PUSH32 0xDDF252AD1BE2C89B69C2B068FC378DAA952BA7F163C4A11628F55A4DF523B3EF PUSH1 0x40 MLOAD PUSH1 0x40 MLOAD DUP1 SWAP2 SUB SWAP1 LOG4 PUSH2 0x1965 PUSH1 0x0 DUP6 DUP4 PUSH2 0x1504 JUMP JUMPDEST POP POP POP POP JUMP JUMPDEST PUSH1 0x0 DUP1 DUP3 PUSH20 0xFFFFFFFFFFFFFFFFFFFFFFFFFFFFFFFFFFFFFFFF AND EXTCODESIZE GT SWAP1 POP SWAP2 SWAP1 POP JUMP JUMPDEST DUP3 DUP1 SLOAD PUSH2 0x199A SWAP1 PUSH2 0x2921 JUMP JUMPDEST SWAP1 PUSH1 0x0 MSTORE PUSH1 0x20 PUSH1 0x0 KECCAK256 SWAP1 PUSH1 0x1F ADD PUSH1 0x20 SWAP1 DIV DUP2 ADD SWAP3 DUP3 PUSH2 0x19BC JUMPI PUSH1 0x0 DUP6 SSTORE PUSH2 0x1A03 JUMP JUMPDEST DUP3 PUSH1 0x1F LT PUSH2 0x19D5 JUMPI DUP1 MLOAD PUSH1 0xFF NOT AND DUP4 DUP1 ADD OR DUP6 SSTORE PUSH2 0x1A03 JUMP JUMPDEST DUP3 DUP1 ADD PUSH1 0x1 ADD DUP6 SSTORE DUP3 ISZERO PUSH2 0x1A03 JUMPI SWAP2 DUP3 ADD JUMPDEST DUP3 DUP2 GT ISZERO PUSH2 0x1A02 JUMPI DUP3 MLOAD DUP3 SSTORE SWAP2 PUSH1 0x20 ADD SWAP2 SWAP1 PUSH1 0x1 ADD SWAP1 PUSH2 0x19E7 JUMP JUMPDEST JUMPDEST POP SWAP1 POP PUSH2 0x1A10 SWAP2 SWAP1 PUSH2 0x1AEB JUMP JUMPDEST POP SWAP1 JUMP JUMPDEST DUP3 DUP1 SLOAD DUP3 DUP3 SSTORE SWAP1 PUSH1 0x0 MSTORE PUSH1 0x20 PUSH1 0x0 KECCAK256 SWAP1 DUP2 ADD SWAP3 DUP3 ISZERO PUSH2 0x1A8D JUMPI SWAP2 PUSH1 0x20 MUL DUP3 ADD JUMPDEST DUP3 DUP2 GT ISZERO PUSH2 0x1A8C JUMPI DUP3 MLOAD DUP3 PUSH1 0x0 PUSH2 0x100 EXP DUP2 SLOAD DUP2 PUSH20 0xFFFFFFFFFFFFFFFFFFFFFFFFFFFFFFFFFFFFFFFF MUL NOT AND SWAP1 DUP4 PUSH20 0xFFFFFFFFFFFFFFFFFFFFFFFFFFFFFFFFFFFFFFFF AND MUL OR SWAP1 SSTORE POP SWAP2 PUSH1 0x20 ADD SWAP2 SWAP1 PUSH1 0x1 ADD SWAP1 PUSH2 0x1A34 JUMP JUMPDEST JUMPDEST POP SWAP1 POP PUSH2 0x1A9A SWAP2 SWAP1 PUSH2 0x1AEB JUMP JUMPDEST POP SWAP1 JUMP JUMPDEST DUP3 DUP1 SLOAD DUP3 DUP3 SSTORE SWAP1 PUSH1 0x0 MSTORE PUSH1 0x20 PUSH1 0x0 KECCAK256 SWAP1 DUP2 ADD SWAP3 DUP3 ISZERO PUSH2 0x1ADA JUMPI SWAP2 PUSH1 0x20 MUL DUP3 ADD JUMPDEST DUP3 DUP2 GT ISZERO PUSH2 0x1AD9 JUMPI DUP3 MLOAD DUP3 SSTORE SWAP2 PUSH1 0x20 ADD SWAP2 SWAP1 PUSH1 0x1 ADD SWAP1 PUSH2 0x1ABE JUMP JUMPDEST JUMPDEST POP SWAP1 POP PUSH2 0x1AE7 SWAP2 SWAP1 PUSH2 0x1AEB JUMP JUMPDEST POP SWAP1 JUMP JUMPDEST JUMPDEST DUP1 DUP3 GT ISZERO PUSH2 0x1B04 JUMPI PUSH1 0x0 DUP2 PUSH1 0x0 SWAP1 SSTORE POP PUSH1 0x1 ADD PUSH2 0x1AEC JUMP JUMPDEST POP SWAP1 JUMP JUMPDEST PUSH1 0x0 PUSH2 0x1B1B PUSH2 0x1B16 DUP5 PUSH2 0x2641 JUMP JUMPDEST PUSH2 0x261C JUMP JUMPDEST SWAP1 POP DUP1 DUP4 DUP3 MSTORE PUSH1 0x20 DUP3 ADD SWAP1 POP DUP3 DUP6 PUSH1 0x20 DUP7 MUL DUP3 ADD GT ISZERO PUSH2 0x1B3A JUMPI PUSH1 0x0 DUP1 REVERT JUMPDEST PUSH1 0x0 JUMPDEST DUP6 DUP2 LT ISZERO PUSH2 0x1B6A JUMPI DUP2 PUSH2 0x1B50 DUP9 DUP3 PUSH2 0x1C5C JUMP JUMPDEST DUP5 MSTORE PUSH1 0x20 DUP5 ADD SWAP4 POP PUSH1 0x20 DUP4 ADD SWAP3 POP POP PUSH1 0x1 DUP2 ADD SWAP1 POP PUSH2 0x1B3D JUMP JUMPDEST POP POP POP SWAP4 SWAP3 POP POP POP JUMP JUMPDEST PUSH1 0x0 PUSH2 0x1B87 PUSH2 0x1B82 DUP5 PUSH2 0x266D JUMP JUMPDEST PUSH2 0x261C JUMP JUMPDEST SWAP1 POP DUP1 DUP4 DUP3 MSTORE PUSH1 0x20 DUP3 ADD SWAP1 POP DUP3 DUP6 PUSH1 0x20 DUP7 MUL DUP3 ADD GT ISZERO PUSH2 0x1BA6 JUMPI PUSH1 0x0 DUP1 REVERT JUMPDEST PUSH1 0x0 JUMPDEST DUP6 DUP2 LT ISZERO PUSH2 0x1BD6 JUMPI DUP2 PUSH2 0x1BBC DUP9 DUP3 PUSH2 0x1D58 JUMP JUMPDEST DUP5 MSTORE PUSH1 0x20 DUP5 ADD SWAP4 POP PUSH1 0x20 DUP4 ADD SWAP3 POP POP PUSH1 0x1 DUP2 ADD SWAP1 POP PUSH2 0x1BA9 JUMP JUMPDEST POP POP POP SWAP4 SWAP3 POP POP POP JUMP JUMPDEST PUSH1 0x0 PUSH2 0x1BF3 PUSH2 0x1BEE DUP5 PUSH2 0x2699 JUMP JUMPDEST PUSH2 0x261C JUMP JUMPDEST SWAP1 POP DUP3 DUP2 MSTORE PUSH1 0x20 DUP2 ADD DUP5 DUP5 DUP5 ADD GT ISZERO PUSH2 0x1C0B JUMPI PUSH1 0x0 DUP1 REVERT JUMPDEST PUSH2 0x1C16 DUP5 DUP3 DUP6 PUSH2 0x28DF JUMP JUMPDEST POP SWAP4 SWAP3 POP POP POP JUMP JUMPDEST PUSH1 0x0 PUSH2 0x1C31 PUSH2 0x1C2C DUP5 PUSH2 0x26CA JUMP JUMPDEST PUSH2 0x261C JUMP JUMPDEST SWAP1 POP DUP3 DUP2 MSTORE PUSH1 0x20 DUP2 ADD DUP5 DUP5 DUP5 ADD GT ISZERO PUSH2 0x1C49 JUMPI PUSH1 0x0 DUP1 REVERT JUMPDEST PUSH2 0x1C54 DUP5 DUP3 DUP6 PUSH2 0x28DF JUMP JUMPDEST POP SWAP4 SWAP3 POP POP POP JUMP JUMPDEST PUSH1 0x0 DUP2 CALLDATALOAD SWAP1 POP PUSH2 0x1C6B DUP2 PUSH2 0x2D98 JUMP JUMPDEST SWAP3 SWAP2 POP POP JUMP JUMPDEST PUSH1 0x0 DUP3 PUSH1 0x1F DUP4 ADD SLT PUSH2 0x1C82 JUMPI PUSH1 0x0 DUP1 REVERT JUMPDEST DUP2 CALLDATALOAD PUSH2 0x1C92 DUP5 DUP3 PUSH1 0x20 DUP7 ADD PUSH2 0x1B08 JUMP JUMPDEST SWAP2 POP POP SWAP3 SWAP2 POP POP JUMP JUMPDEST PUSH1 0x0 DUP3 PUSH1 0x1F DUP4 ADD SLT PUSH2 0x1CAC JUMPI PUSH1 0x0 DUP1 REVERT JUMPDEST DUP2 CALLDATALOAD PUSH2 0x1CBC DUP5 DUP3 PUSH1 0x20 DUP7 ADD PUSH2 0x1B74 JUMP JUMPDEST SWAP2 POP POP SWAP3 SWAP2 POP POP JUMP JUMPDEST PUSH1 0x0 DUP2 CALLDATALOAD SWAP1 POP PUSH2 0x1CD4 DUP2 PUSH2 0x2DAF JUMP JUMPDEST SWAP3 SWAP2 POP POP JUMP JUMPDEST PUSH1 0x0 DUP2 CALLDATALOAD SWAP1 POP PUSH2 0x1CE9 DUP2 PUSH2 0x2DC6 JUMP JUMPDEST SWAP3 SWAP2 POP POP JUMP JUMPDEST PUSH1 0x0 DUP2 MLOAD SWAP1 POP PUSH2 0x1CFE DUP2 PUSH2 0x2DC6 JUMP JUMPDEST SWAP3 SWAP2 POP POP JUMP JUMPDEST PUSH1 0x0 DUP3 PUSH1 0x1F DUP4 ADD SLT PUSH2 0x1D15 JUMPI PUSH1 0x0 DUP1 REVERT JUMPDEST DUP2 CALLDATALOAD PUSH2 0x1D25 DUP5 DUP3 PUSH1 0x20 DUP7 ADD PUSH2 0x1BE0 JUMP JUMPDEST SWAP2 POP POP SWAP3 SWAP2 POP POP JUMP JUMPDEST PUSH1 0x0 DUP3 PUSH1 0x1F DUP4 ADD SLT PUSH2 0x1D3F JUMPI PUSH1 0x0 DUP1 REVERT JUMPDEST DUP2 CALLDATALOAD PUSH2 0x1D4F DUP5 DUP3 PUSH1 0x20 DUP7 ADD PUSH2 0x1C1E JUMP JUMPDEST SWAP2 POP POP SWAP3 SWAP2 POP POP JUMP JUMPDEST PUSH1 0x0 DUP2 CALLDATALOAD SWAP1 POP PUSH2 0x1D67 DUP2 PUSH2 0x2DDD JUMP JUMPDEST SWAP3 SWAP2 POP POP JUMP JUMPDEST PUSH1 0x0 PUSH1 0x20 DUP3 DUP5 SUB SLT ISZERO PUSH2 0x1D7F JUMPI PUSH1 0x0 DUP1 REVERT JUMPDEST PUSH1 0x0 PUSH2 0x1D8D DUP5 DUP3 DUP6 ADD PUSH2 0x1C5C JUMP JUMPDEST SWAP2 POP POP SWAP3 SWAP2 POP POP JUMP JUMPDEST PUSH1 0x0 DUP1 PUSH1 0x40 DUP4 DUP6 SUB SLT ISZERO PUSH2 0x1DA9 JUMPI PUSH1 0x0 DUP1 REVERT JUMPDEST PUSH1 0x0 PUSH2 0x1DB7 DUP6 DUP3 DUP7 ADD PUSH2 0x1C5C JUMP JUMPDEST SWAP3 POP POP PUSH1 0x20 PUSH2 0x1DC8 DUP6 DUP3 DUP7 ADD PUSH2 0x1C5C JUMP JUMPDEST SWAP2 POP POP SWAP3 POP SWAP3 SWAP1 POP JUMP JUMPDEST PUSH1 0x0 DUP1 PUSH1 0x0 PUSH1 0x60 DUP5 DUP7 SUB SLT ISZERO PUSH2 0x1DE7 JUMPI PUSH1 0x0 DUP1 REVERT JUMPDEST PUSH1 0x0 PUSH2 0x1DF5 DUP7 DUP3 DUP8 ADD PUSH2 0x1C5C JUMP JUMPDEST SWAP4 POP POP PUSH1 0x20 PUSH2 0x1E06 DUP7 DUP3 DUP8 ADD PUSH2 0x1C5C JUMP JUMPDEST SWAP3 POP POP PUSH1 0x40 PUSH2 0x1E17 DUP7 DUP3 DUP8 ADD PUSH2 0x1D58 JUMP JUMPDEST SWAP2 POP POP SWAP3 POP SWAP3 POP SWAP3 JUMP JUMPDEST PUSH1 0x0 DUP1 PUSH1 0x0 DUP1 PUSH1 0x80 DUP6 DUP8 SUB SLT ISZERO PUSH2 0x1E37 JUMPI PUSH1 0x0 DUP1 REVERT JUMPDEST PUSH1 0x0 PUSH2 0x1E45 DUP8 DUP3 DUP9 ADD PUSH2 0x1C5C JUMP JUMPDEST SWAP5 POP POP PUSH1 0x20 PUSH2 0x1E56 DUP8 DUP3 DUP9 ADD PUSH2 0x1C5C JUMP JUMPDEST SWAP4 POP POP PUSH1 0x40 PUSH2 0x1E67 DUP8 DUP3 DUP9 ADD PUSH2 0x1D58 JUMP JUMPDEST SWAP3 POP POP PUSH1 0x60 DUP6 ADD CALLDATALOAD PUSH8 0xFFFFFFFFFFFFFFFF DUP2 GT ISZERO PUSH2 0x1E84 JUMPI PUSH1 0x0 DUP1 REVERT JUMPDEST PUSH2 0x1E90 DUP8 DUP3 DUP9 ADD PUSH2 0x1D04 JUMP JUMPDEST SWAP2 POP POP SWAP3 SWAP6 SWAP2 SWAP5 POP SWAP3 POP JUMP JUMPDEST PUSH1 0x0 DUP1 PUSH1 0x0 DUP1 PUSH1 0x80 DUP6 DUP8 SUB SLT ISZERO PUSH2 0x1EB2 JUMPI PUSH1 0x0 DUP1 REVERT JUMPDEST PUSH1 0x0 PUSH2 0x1EC0 DUP8 DUP3 DUP9 ADD PUSH2 0x1C5C JUMP JUMPDEST SWAP5 POP POP PUSH1 0x20 DUP6 ADD CALLDATALOAD PUSH8 0xFFFFFFFFFFFFFFFF DUP2 GT ISZERO PUSH2 0x1EDD JUMPI PUSH1 0x0 DUP1 REVERT JUMPDEST PUSH2 0x1EE9 DUP8 DUP3 DUP9 ADD PUSH2 0x1C71 JUMP JUMPDEST SWAP4 POP POP PUSH1 0x40 DUP6 ADD CALLDATALOAD PUSH8 0xFFFFFFFFFFFFFFFF DUP2 GT ISZERO PUSH2 0x1F06 JUMPI PUSH1 0x0 DUP1 REVERT JUMPDEST PUSH2 0x1F12 DUP8 DUP3 DUP9 ADD PUSH2 0x1C9B JUMP JUMPDEST SWAP3 POP POP PUSH1 0x60 DUP6 ADD CALLDATALOAD PUSH8 0xFFFFFFFFFFFFFFFF DUP2 GT ISZERO PUSH2 0x1F2F JUMPI PUSH1 0x0 DUP1 REVERT JUMPDEST PUSH2 0x1F3B DUP8 DUP3 DUP9 ADD PUSH2 0x1D2E JUMP JUMPDEST SWAP2 POP POP SWAP3 SWAP6 SWAP2 SWAP5 POP SWAP3 POP JUMP JUMPDEST PUSH1 0x0 DUP1 PUSH1 0x40 DUP4 DUP6 SUB SLT ISZERO PUSH2 0x1F5A JUMPI PUSH1 0x0 DUP1 REVERT JUMPDEST PUSH1 0x0 PUSH2 0x1F68 DUP6 DUP3 DUP7 ADD PUSH2 0x1C5C JUMP JUMPDEST SWAP3 POP POP PUSH1 0x20 PUSH2 0x1F79 DUP6 DUP3 DUP7 ADD PUSH2 0x1CC5 JUMP JUMPDEST SWAP2 POP POP SWAP3 POP SWAP3 SWAP1 POP JUMP JUMPDEST PUSH1 0x0 DUP1 PUSH1 0x40 DUP4 DUP6 SUB SLT ISZERO PUSH2 0x1F96 JUMPI PUSH1 0x0 DUP1 REVERT JUMPDEST PUSH1 0x0 PUSH2 0x1FA4 DUP6 DUP3 DUP7 ADD PUSH2 0x1C5C JUMP JUMPDEST SWAP3 POP POP PUSH1 0x20 PUSH2 0x1FB5 DUP6 DUP3 DUP7 ADD PUSH2 0x1D58 JUMP JUMPDEST SWAP2 POP POP SWAP3 POP SWAP3 SWAP1 POP JUMP JUMPDEST PUSH1 0x0 PUSH1 0x20 DUP3 DUP5 SUB SLT ISZERO PUSH2 0x1FD1 JUMPI PUSH1 0x0 DUP1 REVERT JUMPDEST PUSH1 0x0 PUSH2 0x1FDF DUP5 DUP3 DUP6 ADD PUSH2 0x1CDA JUMP JUMPDEST SWAP2 POP POP SWAP3 SWAP2 POP POP JUMP JUMPDEST PUSH1 0x0 PUSH1 0x20 DUP3 DUP5 SUB SLT ISZERO PUSH2 0x1FFA JUMPI PUSH1 0x0 DUP1 REVERT JUMPDEST PUSH1 0x0 PUSH2 0x2008 DUP5 DUP3 DUP6 ADD PUSH2 0x1CEF JUMP JUMPDEST SWAP2 POP POP SWAP3 SWAP2 POP POP JUMP JUMPDEST PUSH1 0x0 PUSH1 0x20 DUP3 DUP5 SUB SLT ISZERO PUSH2 0x2023 JUMPI PUSH1 0x0 DUP1 REVERT JUMPDEST PUSH1 0x0 PUSH2 0x2031 DUP5 DUP3 DUP6 ADD PUSH2 0x1D58 JUMP JUMPDEST SWAP2 POP POP SWAP3 SWAP2 POP POP JUMP JUMPDEST PUSH1 0x0 PUSH2 0x2046 DUP4 DUP4 PUSH2 0x206A JUMP JUMPDEST PUSH1 0x20 DUP4 ADD SWAP1 POP SWAP3 SWAP2 POP POP JUMP JUMPDEST PUSH1 0x0 PUSH2 0x205E DUP4 DUP4 PUSH2 0x2377 JUMP JUMPDEST PUSH1 0x20 DUP4 ADD SWAP1 POP SWAP3 SWAP2 POP POP JUMP JUMPDEST PUSH2 0x2073 DUP2 PUSH2 0x286B JUMP JUMPDEST DUP3 MSTORE POP POP JUMP JUMPDEST PUSH2 0x2082 DUP2 PUSH2 0x286B JUMP JUMPDEST DUP3 MSTORE POP POP JUMP JUMPDEST PUSH1 0x0 PUSH2 0x2093 DUP3 PUSH2 0x271B JUMP JUMPDEST PUSH2 0x209D DUP2 DUP6 PUSH2 0x2761 JUMP JUMPDEST SWAP4 POP PUSH2 0x20A8 DUP4 PUSH2 0x26FB JUMP JUMPDEST DUP1 PUSH1 0x0 JUMPDEST DUP4 DUP2 LT ISZERO PUSH2 0x20D9 JUMPI DUP2 MLOAD PUSH2 0x20C0 DUP9 DUP3 PUSH2 0x203A JUMP JUMPDEST SWAP8 POP PUSH2 0x20CB DUP4 PUSH2 0x2747 JUMP JUMPDEST SWAP3 POP POP PUSH1 0x1 DUP2 ADD SWAP1 POP PUSH2 0x20AC JUMP JUMPDEST POP DUP6 SWAP4 POP POP POP POP SWAP3 SWAP2 POP POP JUMP JUMPDEST PUSH1 0x0 PUSH2 0x20F1 DUP3 PUSH2 0x2726 JUMP JUMPDEST PUSH2 0x20FB DUP2 DUP6 PUSH2 0x2772 JUMP JUMPDEST SWAP4 POP PUSH2 0x2106 DUP4 PUSH2 0x270B JUMP JUMPDEST DUP1 PUSH1 0x0 JUMPDEST DUP4 DUP2 LT ISZERO PUSH2 0x2137 JUMPI DUP2 MLOAD PUSH2 0x211E DUP9 DUP3 PUSH2 0x2052 JUMP JUMPDEST SWAP8 POP PUSH2 0x2129 DUP4 PUSH2 0x2754 JUMP JUMPDEST SWAP3 POP POP PUSH1 0x1 DUP2 ADD SWAP1 POP PUSH2 0x210A JUMP JUMPDEST POP DUP6 SWAP4 POP POP POP POP SWAP3 SWAP2 POP POP JUMP JUMPDEST PUSH2 0x214D DUP2 PUSH2 0x287D JUMP JUMPDEST DUP3 MSTORE POP POP JUMP JUMPDEST PUSH1 0x0 PUSH2 0x215E DUP3 PUSH2 0x2731 JUMP JUMPDEST PUSH2 0x2168 DUP2 DUP6 PUSH2 0x2783 JUMP JUMPDEST SWAP4 POP PUSH2 0x2178 DUP2 DUP6 PUSH1 0x20 DUP7 ADD PUSH2 0x28EE JUMP JUMPDEST PUSH2 0x2181 DUP2 PUSH2 0x2ABA JUMP JUMPDEST DUP5 ADD SWAP2 POP POP SWAP3 SWAP2 POP POP JUMP JUMPDEST PUSH1 0x0 PUSH2 0x2197 DUP3 PUSH2 0x273C JUMP JUMPDEST PUSH2 0x21A1 DUP2 DUP6 PUSH2 0x2794 JUMP JUMPDEST SWAP4 POP PUSH2 0x21B1 DUP2 DUP6 PUSH1 0x20 DUP7 ADD PUSH2 0x28EE JUMP JUMPDEST PUSH2 0x21BA DUP2 PUSH2 0x2ABA JUMP JUMPDEST DUP5 ADD SWAP2 POP POP SWAP3 SWAP2 POP POP JUMP JUMPDEST PUSH1 0x0 PUSH2 0x21D0 DUP3 PUSH2 0x273C JUMP JUMPDEST PUSH2 0x21DA DUP2 DUP6 PUSH2 0x27A5 JUMP JUMPDEST SWAP4 POP PUSH2 0x21EA DUP2 DUP6 PUSH1 0x20 DUP7 ADD PUSH2 0x28EE JUMP JUMPDEST DUP1 DUP5 ADD SWAP2 POP POP SWAP3 SWAP2 POP POP JUMP JUMPDEST PUSH1 0x0 PUSH2 0x2203 PUSH1 0x2D DUP4 PUSH2 0x2794 JUMP JUMPDEST SWAP2 POP PUSH2 0x220E DUP3 PUSH2 0x2ACB JUMP JUMPDEST PUSH1 0x40 DUP3 ADD SWAP1 POP SWAP2 SWAP1 POP JUMP JUMPDEST PUSH1 0x0 PUSH2 0x2226 PUSH1 0x32 DUP4 PUSH2 0x2794 JUMP JUMPDEST SWAP2 POP PUSH2 0x2231 DUP3 PUSH2 0x2B1A JUMP JUMPDEST PUSH1 0x40 DUP3 ADD SWAP1 POP SWAP2 SWAP1 POP JUMP JUMPDEST PUSH1 0x0 PUSH2 0x2249 PUSH1 0x25 DUP4 PUSH2 0x2794 JUMP JUMPDEST SWAP2 POP PUSH2 0x2254 DUP3 PUSH2 0x2B69 JUMP JUMPDEST PUSH1 0x40 DUP3 ADD SWAP1 POP SWAP2 SWAP1 POP JUMP JUMPDEST PUSH1 0x0 PUSH2 0x226C PUSH1 0x1C DUP4 PUSH2 0x2794 JUMP JUMPDEST SWAP2 POP PUSH2 0x2277 DUP3 PUSH2 0x2BB8 JUMP JUMPDEST PUSH1 0x20 DUP3 ADD SWAP1 POP SWAP2 SWAP1 POP JUMP JUMPDEST PUSH1 0x0 PUSH2 0x228F PUSH1 0x24 DUP4 PUSH2 0x2794 JUMP JUMPDEST SWAP2 POP PUSH2 0x229A DUP3 PUSH2 0x2BE1 JUMP JUMPDEST PUSH1 0x40 DUP3 ADD SWAP1 POP SWAP2 SWAP1 POP JUMP JUMPDEST PUSH1 0x0 PUSH2 0x22B2 PUSH1 0x19 DUP4 PUSH2 0x2794 JUMP JUMPDEST SWAP2 POP PUSH2 0x22BD DUP3 PUSH2 0x2C30 JUMP JUMPDEST PUSH1 0x20 DUP3 ADD SWAP1 POP SWAP2 SWAP1 POP JUMP JUMPDEST PUSH1 0x0 PUSH2 0x22D5 PUSH1 0x29 DUP4 PUSH2 0x2794 JUMP JUMPDEST SWAP2 POP PUSH2 0x22E0 DUP3 PUSH2 0x2C59 JUMP JUMPDEST PUSH1 0x40 DUP3 ADD SWAP1 POP SWAP2 SWAP1 POP JUMP JUMPDEST PUSH1 0x0 PUSH2 0x22F8 PUSH1 0x20 DUP4 PUSH2 0x2794 JUMP JUMPDEST SWAP2 POP PUSH2 0x2303 DUP3 PUSH2 0x2CA8 JUMP JUMPDEST PUSH1 0x20 DUP3 ADD SWAP1 POP SWAP2 SWAP1 POP JUMP JUMPDEST PUSH1 0x0 PUSH2 0x231B PUSH1 0x18 DUP4 PUSH2 0x2794 JUMP JUMPDEST SWAP2 POP PUSH2 0x2326 DUP3 PUSH2 0x2CD1 JUMP JUMPDEST PUSH1 0x20 DUP3 ADD SWAP1 POP SWAP2 SWAP1 POP JUMP JUMPDEST PUSH1 0x0 PUSH2 0x233E PUSH1 0x21 DUP4 PUSH2 0x2794 JUMP JUMPDEST SWAP2 POP PUSH2 0x2349 DUP3 PUSH2 0x2CFA JUMP JUMPDEST PUSH1 0x40 DUP3 ADD SWAP1 POP SWAP2 SWAP1 POP JUMP JUMPDEST PUSH1 0x0 PUSH2 0x2361 PUSH1 0x3D DUP4 PUSH2 0x2794 JUMP JUMPDEST SWAP2 POP PUSH2 0x236C DUP3 PUSH2 0x2D49 JUMP JUMPDEST PUSH1 0x40 DUP3 ADD SWAP1 POP SWAP2 SWAP1 POP JUMP JUMPDEST PUSH2 0x2380 DUP2 PUSH2 0x28D5 JUMP JUMPDEST DUP3 MSTORE POP POP JUMP JUMPDEST PUSH2 0x238F DUP2 PUSH2 0x28D5 JUMP JUMPDEST DUP3 MSTORE POP POP JUMP JUMPDEST PUSH1 0x0 PUSH2 0x23A1 DUP3 DUP6 PUSH2 0x21C5 JUMP JUMPDEST SWAP2 POP PUSH2 0x23AD DUP3 DUP5 PUSH2 0x21C5 JUMP JUMPDEST SWAP2 POP DUP2 SWAP1 POP SWAP4 SWAP3 POP POP POP JUMP JUMPDEST PUSH1 0x0 PUSH1 0x20 DUP3 ADD SWAP1 POP PUSH2 0x23CE PUSH1 0x0 DUP4 ADD DUP5 PUSH2 0x2079 JUMP JUMPDEST SWAP3 SWAP2 POP POP JUMP JUMPDEST PUSH1 0x0 PUSH1 0x80 DUP3 ADD SWAP1 POP PUSH2 0x23E9 PUSH1 0x0 DUP4 ADD DUP8 PUSH2 0x2079 JUMP JUMPDEST PUSH2 0x23F6 PUSH1 0x20 DUP4 ADD DUP7 PUSH2 0x2079 JUMP JUMPDEST PUSH2 0x2403 PUSH1 0x40 DUP4 ADD DUP6 PUSH2 0x2386 JUMP JUMPDEST DUP2 DUP2 SUB PUSH1 0x60 DUP4 ADD MSTORE PUSH2 0x2415 DUP2 DUP5 PUSH2 0x2153 JUMP JUMPDEST SWAP1 POP SWAP6 SWAP5 POP POP POP POP POP JUMP JUMPDEST PUSH1 0x0 PUSH1 0x20 DUP3 ADD SWAP1 POP DUP2 DUP2 SUB PUSH1 0x0 DUP4 ADD MSTORE PUSH2 0x243A DUP2 DUP5 PUSH2 0x2088 JUMP JUMPDEST SWAP1 POP SWAP3 SWAP2 POP POP JUMP JUMPDEST PUSH1 0x0 PUSH1 0x20 DUP3 ADD SWAP1 POP DUP2 DUP2 SUB PUSH1 0x0 DUP4 ADD MSTORE PUSH2 0x245C DUP2 DUP5 PUSH2 0x20E6 JUMP JUMPDEST SWAP1 POP SWAP3 SWAP2 POP POP JUMP JUMPDEST PUSH1 0x0 PUSH1 0x20 DUP3 ADD SWAP1 POP PUSH2 0x2479 PUSH1 0x0 DUP4 ADD DUP5 PUSH2 0x2144 JUMP JUMPDEST SWAP3 SWAP2 POP POP JUMP JUMPDEST PUSH1 0x0 PUSH1 0x20 DUP3 ADD SWAP1 POP DUP2 DUP2 SUB PUSH1 0x0 DUP4 ADD MSTORE PUSH2 0x2499 DUP2 DUP5 PUSH2 0x218C JUMP JUMPDEST SWAP1 POP SWAP3 SWAP2 POP POP JUMP JUMPDEST PUSH1 0x0 PUSH1 0x20 DUP3 ADD SWAP1 POP DUP2 DUP2 SUB PUSH1 0x0 DUP4 ADD MSTORE PUSH2 0x24BA DUP2 PUSH2 0x21F6 JUMP JUMPDEST SWAP1 POP SWAP2 SWAP1 POP JUMP JUMPDEST PUSH1 0x0 PUSH1 0x20 DUP3 ADD SWAP1 POP DUP2 DUP2 SUB PUSH1 0x0 DUP4 ADD MSTORE PUSH2 0x24DA DUP2 PUSH2 0x2219 JUMP JUMPDEST SWAP1 POP SWAP2 SWAP1 POP JUMP JUMPDEST PUSH1 0x0 PUSH1 0x20 DUP3 ADD SWAP1 POP DUP2 DUP2 SUB PUSH1 0x0 DUP4 ADD MSTORE PUSH2 0x24FA DUP2 PUSH2 0x223C JUMP JUMPDEST SWAP1 POP SWAP2 SWAP1 POP JUMP JUMPDEST PUSH1 0x0 PUSH1 0x20 DUP3 ADD SWAP1 POP DUP2 DUP2 SUB PUSH1 0x0 DUP4 ADD MSTORE PUSH2 0x251A DUP2 PUSH2 0x225F JUMP JUMPDEST SWAP1 POP SWAP2 SWAP1 POP JUMP JUMPDEST PUSH1 0x0 PUSH1 0x20 DUP3 ADD SWAP1 POP DUP2 DUP2 SUB PUSH1 0x0 DUP4 ADD MSTORE PUSH2 0x253A DUP2 PUSH2 0x2282 JUMP JUMPDEST SWAP1 POP SWAP2 SWAP1 POP JUMP JUMPDEST PUSH1 0x0 PUSH1 0x20 DUP3 ADD SWAP1 POP DUP2 DUP2 SUB PUSH1 0x0 DUP4 ADD MSTORE PUSH2 0x255A DUP2 PUSH2 0x22A5 JUMP JUMPDEST SWAP1 POP SWAP2 SWAP1 POP JUMP JUMPDEST PUSH1 0x0 PUSH1 0x20 DUP3 ADD SWAP1 POP DUP2 DUP2 SUB PUSH1 0x0 DUP4 ADD MSTORE PUSH2 0x257A DUP2 PUSH2 0x22C8 JUMP JUMPDEST SWAP1 POP SWAP2 SWAP1 POP JUMP JUMPDEST PUSH1 0x0 PUSH1 0x20 DUP3 ADD SWAP1 POP DUP2 DUP2 SUB PUSH1 0x0 DUP4 ADD MSTORE PUSH2 0x259A DUP2 PUSH2 0x22EB JUMP JUMPDEST SWAP1 POP SWAP2 SWAP1 POP JUMP JUMPDEST PUSH1 0x0 PUSH1 0x20 DUP3 ADD SWAP1 POP DUP2 DUP2 SUB PUSH1 0x0 DUP4 ADD MSTORE PUSH2 0x25BA DUP2 PUSH2 0x230E JUMP JUMPDEST SWAP1 POP SWAP2 SWAP1 POP JUMP JUMPDEST PUSH1 0x0 PUSH1 0x20 DUP3 ADD SWAP1 POP DUP2 DUP2 SUB PUSH1 0x0 DUP4 ADD MSTORE PUSH2 0x25DA DUP2 PUSH2 0x2331 JUMP JUMPDEST SWAP1 POP SWAP2 SWAP1 POP JUMP JUMPDEST PUSH1 0x0 PUSH1 0x20 DUP3 ADD SWAP1 POP DUP2 DUP2 SUB PUSH1 0x0 DUP4 ADD MSTORE PUSH2 0x25FA DUP2 PUSH2 0x2354 JUMP JUMPDEST SWAP1 POP SWAP2 SWAP1 POP JUMP JUMPDEST PUSH1 0x0 PUSH1 0x20 DUP3 ADD SWAP1 POP PUSH2 0x2616 PUSH1 0x0 DUP4 ADD DUP5 PUSH2 0x2386 JUMP JUMPDEST SWAP3 SWAP2 POP POP JUMP JUMPDEST PUSH1 0x0 PUSH2 0x2626 PUSH2 0x2637 JUMP JUMPDEST SWAP1 POP PUSH2 0x2632 DUP3 DUP3 PUSH2 0x2953 JUMP JUMPDEST SWAP2 SWAP1 POP JUMP JUMPDEST PUSH1 0x0 PUSH1 0x40 MLOAD SWAP1 POP SWAP1 JUMP JUMPDEST PUSH1 0x0 PUSH8 0xFFFFFFFFFFFFFFFF DUP3 GT ISZERO PUSH2 0x265C JUMPI PUSH2 0x265B PUSH2 0x2A8B JUMP JUMPDEST JUMPDEST PUSH1 0x20 DUP3 MUL SWAP1 POP PUSH1 0x20 DUP2 ADD SWAP1 POP SWAP2 SWAP1 POP JUMP JUMPDEST PUSH1 0x0 PUSH8 0xFFFFFFFFFFFFFFFF DUP3 GT ISZERO PUSH2 0x2688 JUMPI PUSH2 0x2687 PUSH2 0x2A8B JUMP JUMPDEST JUMPDEST PUSH1 0x20 DUP3 MUL SWAP1 POP PUSH1 0x20 DUP2 ADD SWAP1 POP SWAP2 SWAP1 POP JUMP JUMPDEST PUSH1 0x0 PUSH8 0xFFFFFFFFFFFFFFFF DUP3 GT ISZERO PUSH2 0x26B4 JUMPI PUSH2 0x26B3 PUSH2 0x2A8B JUMP JUMPDEST JUMPDEST PUSH2 0x26BD DUP3 PUSH2 0x2ABA JUMP JUMPDEST SWAP1 POP PUSH1 0x20 DUP2 ADD SWAP1 POP SWAP2 SWAP1 POP JUMP JUMPDEST PUSH1 0x0 PUSH8 0xFFFFFFFFFFFFFFFF DUP3 GT ISZERO PUSH2 0x26E5 JUMPI PUSH2 0x26E4 PUSH2 0x2A8B JUMP JUMPDEST JUMPDEST PUSH2 0x26EE DUP3 PUSH2 0x2ABA JUMP JUMPDEST SWAP1 POP PUSH1 0x20 DUP2 ADD SWAP1 POP SWAP2 SWAP1 POP JUMP JUMPDEST PUSH1 0x0 DUP2 SWAP1 POP PUSH1 0x20 DUP3 ADD SWAP1 POP SWAP2 SWAP1 POP JUMP JUMPDEST PUSH1 0x0 DUP2 SWAP1 POP PUSH1 0x20 DUP3 ADD SWAP1 POP SWAP2 SWAP1 POP JUMP JUMPDEST PUSH1 0x0 DUP2 MLOAD SWAP1 POP SWAP2 SWAP1 POP JUMP JUMPDEST PUSH1 0x0 DUP2 MLOAD SWAP1 POP SWAP2 SWAP1 POP JUMP JUMPDEST PUSH1 0x0 DUP2 MLOAD SWAP1 POP SWAP2 SWAP1 POP JUMP JUMPDEST PUSH1 0x0 DUP2 MLOAD SWAP1 POP SWAP2 SWAP1 POP JUMP JUMPDEST PUSH1 0x0 PUSH1 0x20 DUP3 ADD SWAP1 POP SWAP2 SWAP1 POP JUMP JUMPDEST PUSH1 0x0 PUSH1 0x20 DUP3 ADD SWAP1 POP SWAP2 SWAP1 POP JUMP JUMPDEST PUSH1 0x0 DUP3 DUP3 MSTORE PUSH1 0x20 DUP3 ADD SWAP1 POP SWAP3 SWAP2 POP POP JUMP JUMPDEST PUSH1 0x0 DUP3 DUP3 MSTORE PUSH1 0x20 DUP3 ADD SWAP1 POP SWAP3 SWAP2 POP POP JUMP JUMPDEST PUSH1 0x0 DUP3 DUP3 MSTORE PUSH1 0x20 DUP3 ADD SWAP1 POP SWAP3 SWAP2 POP POP JUMP JUMPDEST PUSH1 0x0 DUP3 DUP3 MSTORE PUSH1 0x20 DUP3 ADD SWAP1 POP SWAP3 SWAP2 POP POP JUMP JUMPDEST PUSH1 0x0 DUP2 SWAP1 POP SWAP3 SWAP2 POP POP JUMP JUMPDEST PUSH1 0x0 PUSH2 0x27BB DUP3 PUSH2 0x28D5 JUMP JUMPDEST SWAP2 POP PUSH2 0x27C6 DUP4 PUSH2 0x28D5 JUMP JUMPDEST SWAP3 POP DUP3 PUSH32 0xFFFFFFFFFFFFFFFFFFFFFFFFFFFFFFFFFFFFFFFFFFFFFFFFFFFFFFFFFFFFFFFF SUB DUP3 GT ISZERO PUSH2 0x27FB JUMPI PUSH2 0x27FA PUSH2 0x29FE JUMP JUMPDEST JUMPDEST DUP3 DUP3 ADD SWAP1 POP SWAP3 SWAP2 POP POP JUMP JUMPDEST PUSH1 0x0 PUSH2 0x2811 DUP3 PUSH2 0x28D5 JUMP JUMPDEST SWAP2 POP PUSH2 0x281C DUP4 PUSH2 0x28D5 JUMP JUMPDEST SWAP3 POP DUP3 PUSH2 0x282C JUMPI PUSH2 0x282B PUSH2 0x2A2D JUMP JUMPDEST JUMPDEST DUP3 DUP3 DIV SWAP1 POP SWAP3 SWAP2 POP POP JUMP JUMPDEST PUSH1 0x0 PUSH2 0x2842 DUP3 PUSH2 0x28D5 JUMP JUMPDEST SWAP2 POP PUSH2 0x284D DUP4 PUSH2 0x28D5 JUMP JUMPDEST SWAP3 POP DUP3 DUP3 LT ISZERO PUSH2 0x2860 JUMPI PUSH2 0x285F PUSH2 0x29FE JUMP JUMPDEST JUMPDEST DUP3 DUP3 SUB SWAP1 POP SWAP3 SWAP2 POP POP JUMP JUMPDEST PUSH1 0x0 PUSH2 0x2876 DUP3 PUSH2 0x28B5 JUMP JUMPDEST SWAP1 POP SWAP2 SWAP1 POP JUMP JUMPDEST PUSH1 0x0 DUP2 ISZERO ISZERO SWAP1 POP SWAP2 SWAP1 POP JUMP JUMPDEST PUSH1 0x0 PUSH32 0xFFFFFFFF00000000000000000000000000000000000000000000000000000000 DUP3 AND SWAP1 POP SWAP2 SWAP1 POP JUMP JUMPDEST PUSH1 0x0 PUSH20 0xFFFFFFFFFFFFFFFFFFFFFFFFFFFFFFFFFFFFFFFF DUP3 AND SWAP1 POP SWAP2 SWAP1 POP JUMP JUMPDEST PUSH1 0x0 DUP2 SWAP1 POP SWAP2 SWAP1 POP JUMP JUMPDEST DUP3 DUP2 DUP4 CALLDATACOPY PUSH1 0x0 DUP4 DUP4 ADD MSTORE POP POP POP JUMP JUMPDEST PUSH1 0x0 JUMPDEST DUP4 DUP2 LT ISZERO PUSH2 0x290C JUMPI DUP1 DUP3 ADD MLOAD DUP2 DUP5 ADD MSTORE PUSH1 0x20 DUP2 ADD SWAP1 POP PUSH2 0x28F1 JUMP JUMPDEST DUP4 DUP2 GT ISZERO PUSH2 0x291B JUMPI PUSH1 0x0 DUP5 DUP5 ADD MSTORE JUMPDEST POP POP POP POP JUMP JUMPDEST PUSH1 0x0 PUSH1 0x2 DUP3 DIV SWAP1 POP PUSH1 0x1 DUP3 AND DUP1 PUSH2 0x2939 JUMPI PUSH1 0x7F DUP3 AND SWAP2 POP JUMPDEST PUSH1 0x20 DUP3 LT DUP2 EQ ISZERO PUSH2 0x294D JUMPI PUSH2 0x294C PUSH2 0x2A5C JUMP JUMPDEST JUMPDEST POP SWAP2 SWAP1 POP JUMP JUMPDEST PUSH2 0x295C DUP3 PUSH2 0x2ABA JUMP JUMPDEST DUP2 ADD DUP2 DUP2 LT PUSH8 0xFFFFFFFFFFFFFFFF DUP3 GT OR ISZERO PUSH2 0x297B JUMPI PUSH2 0x297A PUSH2 0x2A8B JUMP JUMPDEST JUMPDEST DUP1 PUSH1 0x40 MSTORE POP POP POP JUMP JUMPDEST PUSH1 0x0 PUSH2 0x298F DUP3 PUSH2 0x28D5 JUMP JUMPDEST SWAP2 POP PUSH32 0xFFFFFFFFFFFFFFFFFFFFFFFFFFFFFFFFFFFFFFFFFFFFFFFFFFFFFFFFFFFFFFFF DUP3 EQ ISZERO PUSH2 0x29C2 JUMPI PUSH2 0x29C1 PUSH2 0x29FE JUMP JUMPDEST JUMPDEST PUSH1 0x1 DUP3 ADD SWAP1 POP SWAP2 SWAP1 POP JUMP JUMPDEST PUSH1 0x0 PUSH2 0x29D8 DUP3 PUSH2 0x28D5 JUMP JUMPDEST SWAP2 POP PUSH2 0x29E3 DUP4 PUSH2 0x28D5 JUMP JUMPDEST SWAP3 POP DUP3 PUSH2 0x29F3 JUMPI PUSH2 0x29F2 PUSH2 0x2A2D JUMP JUMPDEST JUMPDEST DUP3 DUP3 MOD SWAP1 POP SWAP3 SWAP2 POP POP JUMP JUMPDEST PUSH32 0x4E487B7100000000000000000000000000000000000000000000000000000000 PUSH1 0x0 MSTORE PUSH1 0x11 PUSH1 0x4 MSTORE PUSH1 0x24 PUSH1 0x0 REVERT JUMPDEST PUSH32 0x4E487B7100000000000000000000000000000000000000000000000000000000 PUSH1 0x0 MSTORE PUSH1 0x12 PUSH1 0x4 MSTORE PUSH1 0x24 PUSH1 0x0 REVERT JUMPDEST PUSH32 0x4E487B7100000000000000000000000000000000000000000000000000000000 PUSH1 0x0 MSTORE PUSH1 0x22 PUSH1 0x4 MSTORE PUSH1 0x24 PUSH1 0x0 REVERT JUMPDEST PUSH32 0x4E487B7100000000000000000000000000000000000000000000000000000000 PUSH1 0x0 MSTORE PUSH1 0x41 PUSH1 0x4 MSTORE PUSH1 0x24 PUSH1 0x0 REVERT JUMPDEST PUSH1 0x0 PUSH1 0x1F NOT PUSH1 0x1F DUP4 ADD AND SWAP1 POP SWAP2 SWAP1 POP JUMP JUMPDEST PUSH32 0x4552433732313A2063616C6C6572206973206E6F7420746F6B656E206F776E65 PUSH1 0x0 DUP3 ADD MSTORE PUSH32 0x72206F7220617070726F76656400000000000000000000000000000000000000 PUSH1 0x20 DUP3 ADD MSTORE POP JUMP JUMPDEST PUSH32 0x4552433732313A207472616E7366657220746F206E6F6E204552433732315265 PUSH1 0x0 DUP3 ADD MSTORE PUSH32 0x63656976657220696D706C656D656E7465720000000000000000000000000000 PUSH1 0x20 DUP3 ADD MSTORE POP JUMP JUMPDEST PUSH32 0x4552433732313A207472616E736665722066726F6D20696E636F727265637420 PUSH1 0x0 DUP3 ADD MSTORE PUSH32 0x6F776E6572000000000000000000000000000000000000000000000000000000 PUSH1 0x20 DUP3 ADD MSTORE POP JUMP JUMPDEST PUSH32 0x4552433732313A20746F6B656E20616C7265616479206D696E74656400000000 PUSH1 0x0 DUP3 ADD MSTORE POP JUMP JUMPDEST PUSH32 0x4552433732313A207472616E7366657220746F20746865207A65726F20616464 PUSH1 0x0 DUP3 ADD MSTORE PUSH32 0x7265737300000000000000000000000000000000000000000000000000000000 PUSH1 0x20 DUP3 ADD MSTORE POP JUMP JUMPDEST PUSH32 0x4552433732313A20617070726F766520746F2063616C6C657200000000000000 PUSH1 0x0 DUP3 ADD MSTORE POP JUMP JUMPDEST PUSH32 0x4552433732313A2061646472657373207A65726F206973206E6F742061207661 PUSH1 0x0 DUP3 ADD MSTORE PUSH32 0x6C6964206F776E65720000000000000000000000000000000000000000000000 PUSH1 0x20 DUP3 ADD MSTORE POP JUMP JUMPDEST PUSH32 0x4552433732313A206D696E7420746F20746865207A65726F2061646472657373 PUSH1 0x0 DUP3 ADD MSTORE POP JUMP JUMPDEST PUSH32 0x4552433732313A20696E76616C696420746F6B656E2049440000000000000000 PUSH1 0x0 DUP3 ADD MSTORE POP JUMP JUMPDEST PUSH32 0x4552433732313A20617070726F76616C20746F2063757272656E74206F776E65 PUSH1 0x0 DUP3 ADD MSTORE PUSH32 0x7200000000000000000000000000000000000000000000000000000000000000 PUSH1 0x20 DUP3 ADD MSTORE POP JUMP JUMPDEST PUSH32 0x4552433732313A20617070726F76652063616C6C6572206973206E6F7420746F PUSH1 0x0 DUP3 ADD MSTORE PUSH32 0x6B656E206F776E6572206F7220617070726F76656420666F7220616C6C000000 PUSH1 0x20 DUP3 ADD MSTORE POP JUMP JUMPDEST PUSH2 0x2DA1 DUP2 PUSH2 0x286B JUMP JUMPDEST DUP2 EQ PUSH2 0x2DAC JUMPI PUSH1 0x0 DUP1 REVERT JUMPDEST POP JUMP JUMPDEST PUSH2 0x2DB8 DUP2 PUSH2 0x287D JUMP JUMPDEST DUP2 EQ PUSH2 0x2DC3 JUMPI PUSH1 0x0 DUP1 REVERT JUMPDEST POP JUMP JUMPDEST PUSH2 0x2DCF DUP2 PUSH2 0x2889 JUMP JUMPDEST DUP2 EQ PUSH2 0x2DDA JUMPI PUSH1 0x0 DUP1 REVERT JUMPDEST POP JUMP JUMPDEST PUSH2 0x2DE6 DUP2 PUSH2 0x28D5 JUMP JUMPDEST DUP2 EQ PUSH2 0x2DF1 JUMPI PUSH1 0x0 DUP1 REVERT JUMPDEST POP JUMP INVALID LOG2 PUSH5 0x6970667358 0x22 SLT KECCAK256 PUSH16 0xC76B1F4C898E167933A26D92AC506551 0xDF 0xE3 0xAA RETURNDATASIZE 0xEC GASLIMIT 0xAF SMOD BALANCE SWAP3 0xE9 0xE9 DUP12 SWAP10 PUSH25 0x64736F6C634300080400330000000000000000000000000000 "
				},
				"gasEstimates": {
					"creation": {
						"codeDepositCost": "2363600",
						"executionCost": "infinite",
						"totalCost": "infinite"
					},
					"external": {
						"approve(address,uint256)": "infinite",
						"balanceOf(address)": "1624",
						"collaboratotOf(uint256)": "infinite",
						"collaboratotPercentageOf(uint256)": "infinite",
						"getApproved(uint256)": "2657",
						"isApprovedForAll(address,address)": "infinite",
						"mint(address,address[],uint256[],string)": "infinite",
						"name()": "infinite",
						"ownerOf(uint256)": "1682",
						"safeTransferFrom(address,address,uint256)": "infinite",
						"safeTransferFrom(address,address,uint256,bytes)": "infinite",
						"setApprovalForAll(address,bool)": "infinite",
						"supportsInterface(bytes4)": "797",
						"symbol()": "infinite",
						"tokenURI(uint256)": "2102",
						"transferFrom(address,address,uint256)": "infinite"
					},
					"internal": {
						"_afterTokenTransfer(address,address,uint256)": "15",
						"_approve(address,uint256)": "infinite",
						"_baseURI()": "infinite",
						"_beforeTokenTransfer(address,address,uint256)": "15",
						"_burn(uint256)": "infinite",
						"_checkOnERC721Received(address,address,uint256,bytes memory)": "infinite",
						"_exists(uint256)": "969",
						"_isApprovedOrOwner(address,uint256)": "infinite",
						"_mint(address,address[] memory,uint256[] memory,uint256)": "infinite",
						"_requireMinted(uint256)": "infinite",
						"_safeMint(address,address[] memory,uint256[] memory,uint256)": "infinite",
						"_safeMint(address,address[] memory,uint256[] memory,uint256,bytes memory)": "infinite",
						"_safeTransfer(address,address,uint256,bytes memory)": "infinite",
						"_setApprovalForAll(address,address,bool)": "infinite",
						"_setTokenURI(uint256,string memory)": "infinite",
						"_transfer(address,address,uint256)": "infinite"
					}
				},
				"methodIdentifiers": {
					"approve(address,uint256)": "095ea7b3",
					"balanceOf(address)": "70a08231",
					"collaboratotOf(uint256)": "52e04825",
					"collaboratotPercentageOf(uint256)": "ee48cda2",
					"getApproved(uint256)": "081812fc",
					"isApprovedForAll(address,address)": "e985e9c5",
					"mint(address,address[],uint256[],string)": "381568d8",
					"name()": "06fdde03",
					"ownerOf(uint256)": "6352211e",
					"safeTransferFrom(address,address,uint256)": "42842e0e",
					"safeTransferFrom(address,address,uint256,bytes)": "b88d4fde",
					"setApprovalForAll(address,bool)": "a22cb465",
					"supportsInterface(bytes4)": "01ffc9a7",
					"symbol()": "95d89b41",
					"tokenURI(uint256)": "c87b56dd",
					"transferFrom(address,address,uint256)": "23b872dd"
				}
			},
			"storageLayout": {
				"storage": [
					{
						"astId": 821,
						"contract": "contracts/nft.sol:nft",
						"label": "_tokenIds",
						"offset": 0,
						"slot": "0",
						"type": "t_struct(Counter)483_storage"
					},
					{
						"astId": 823,
						"contract": "contracts/nft.sol:nft",
						"label": "_name",
						"offset": 0,
						"slot": "1",
						"type": "t_string_storage"
					},
					{
						"astId": 825,
						"contract": "contracts/nft.sol:nft",
						"label": "_symbol",
						"offset": 0,
						"slot": "2",
						"type": "t_string_storage"
					},
					{
						"astId": 829,
						"contract": "contracts/nft.sol:nft",
						"label": "_owners",
						"offset": 0,
						"slot": "3",
						"type": "t_mapping(t_uint256,t_address)"
					},
					{
						"astId": 834,
						"contract": "contracts/nft.sol:nft",
						"label": "_collaborators",
						"offset": 0,
						"slot": "4",
						"type": "t_mapping(t_uint256,t_array(t_address)dyn_storage)"
					},
					{
						"astId": 839,
						"contract": "contracts/nft.sol:nft",
						"label": "_collaboratorsPercentage",
						"offset": 0,
						"slot": "5",
						"type": "t_mapping(t_uint256,t_array(t_uint256)dyn_storage)"
					},
					{
						"astId": 843,
						"contract": "contracts/nft.sol:nft",
						"label": "_balances",
						"offset": 0,
						"slot": "6",
						"type": "t_mapping(t_address,t_uint256)"
					},
					{
						"astId": 847,
						"contract": "contracts/nft.sol:nft",
						"label": "_tokenApprovals",
						"offset": 0,
						"slot": "7",
						"type": "t_mapping(t_uint256,t_address)"
					},
					{
						"astId": 853,
						"contract": "contracts/nft.sol:nft",
						"label": "_operatorApprovals",
						"offset": 0,
						"slot": "8",
						"type": "t_mapping(t_address,t_mapping(t_address,t_bool))"
					},
					{
						"astId": 857,
						"contract": "contracts/nft.sol:nft",
						"label": "_tokenURIs",
						"offset": 0,
						"slot": "9",
						"type": "t_mapping(t_uint256,t_string_storage)"
					}
				],
				"types": {
					"t_address": {
						"encoding": "inplace",
						"label": "address",
						"numberOfBytes": "20"
					},
					"t_array(t_address)dyn_storage": {
						"base": "t_address",
						"encoding": "dynamic_array",
						"label": "address[]",
						"numberOfBytes": "32"
					},
					"t_array(t_uint256)dyn_storage": {
						"base": "t_uint256",
						"encoding": "dynamic_array",
						"label": "uint256[]",
						"numberOfBytes": "32"
					},
					"t_bool": {
						"encoding": "inplace",
						"label": "bool",
						"numberOfBytes": "1"
					},
					"t_mapping(t_address,t_bool)": {
						"encoding": "mapping",
						"key": "t_address",
						"label": "mapping(address => bool)",
						"numberOfBytes": "32",
						"value": "t_bool"
					},
					"t_mapping(t_address,t_mapping(t_address,t_bool))": {
						"encoding": "mapping",
						"key": "t_address",
						"label": "mapping(address => mapping(address => bool))",
						"numberOfBytes": "32",
						"value": "t_mapping(t_address,t_bool)"
					},
					"t_mapping(t_address,t_uint256)": {
						"encoding": "mapping",
						"key": "t_address",
						"label": "mapping(address => uint256)",
						"numberOfBytes": "32",
						"value": "t_uint256"
					},
					"t_mapping(t_uint256,t_address)": {
						"encoding": "mapping",
						"key": "t_uint256",
						"label": "mapping(uint256 => address)",
						"numberOfBytes": "32",
						"value": "t_address"
					},
					"t_mapping(t_uint256,t_array(t_address)dyn_storage)": {
						"encoding": "mapping",
						"key": "t_uint256",
						"label": "mapping(uint256 => address[])",
						"numberOfBytes": "32",
						"value": "t_array(t_address)dyn_storage"
					},
					"t_mapping(t_uint256,t_array(t_uint256)dyn_storage)": {
						"encoding": "mapping",
						"key": "t_uint256",
						"label": "mapping(uint256 => uint256[])",
						"numberOfBytes": "32",
						"value": "t_array(t_uint256)dyn_storage"
					},
					"t_mapping(t_uint256,t_string_storage)": {
						"encoding": "mapping",
						"key": "t_uint256",
						"label": "mapping(uint256 => string)",
						"numberOfBytes": "32",
						"value": "t_string_storage"
					},
					"t_string_storage": {
						"encoding": "bytes",
						"label": "string",
						"numberOfBytes": "32"
					},
					"t_struct(Counter)483_storage": {
						"encoding": "inplace",
						"label": "struct Counters.Counter",
						"members": [
							{
								"astId": 482,
								"contract": "contracts/nft.sol:nft",
								"label": "_value",
								"offset": 0,
								"slot": "0",
								"type": "t_uint256"
							}
						],
						"numberOfBytes": "32"
					},
					"t_uint256": {
						"encoding": "inplace",
						"label": "uint256",
						"numberOfBytes": "32"
					}
				}
			},
			"userdoc": {
				"kind": "user",
				"methods": {},
				"version": 1
			}
		}
	}
}