{
	"contracts/marketplace.sol": {
		"marketplace": {
			"abi": [
				{
					"inputs": [
						{
							"internalType": "string",
							"name": "name_",
							"type": "string"
						},
						{
							"internalType": "string",
							"name": "symbol_",
							"type": "string"
						}
					],
					"stateMutability": "nonpayable",
					"type": "constructor"
				},
				{
					"anonymous": false,
					"inputs": [
						{
							"indexed": true,
							"internalType": "address",
							"name": "owner",
							"type": "address"
						},
						{
							"indexed": true,
							"internalType": "address",
							"name": "approved",
							"type": "address"
						},
						{
							"indexed": true,
							"internalType": "uint256",
							"name": "tokenId",
							"type": "uint256"
						}
					],
					"name": "Approval",
					"type": "event"
				},
				{
					"anonymous": false,
					"inputs": [
						{
							"indexed": true,
							"internalType": "address",
							"name": "owner",
							"type": "address"
						},
						{
							"indexed": true,
							"internalType": "address",
							"name": "operator",
							"type": "address"
						},
						{
							"indexed": false,
							"internalType": "bool",
							"name": "approved",
							"type": "bool"
						}
					],
					"name": "ApprovalForAll",
					"type": "event"
				},
				{
					"anonymous": false,
					"inputs": [
						{
							"indexed": false,
							"internalType": "address",
							"name": "nftContract",
							"type": "address"
						},
						{
							"indexed": false,
							"internalType": "uint256",
							"name": "tokenId",
							"type": "uint256"
						},
						{
							"indexed": false,
							"internalType": "address",
							"name": "seller",
							"type": "address"
						},
						{
							"indexed": false,
							"internalType": "address",
							"name": "owner",
							"type": "address"
						},
						{
							"indexed": false,
							"internalType": "uint256",
							"name": "price",
							"type": "uint256"
						}
					],
					"name": "NFTListed",
					"type": "event"
				},
				{
					"anonymous": false,
					"inputs": [
						{
							"indexed": false,
							"internalType": "address",
							"name": "nftContract",
							"type": "address"
						},
						{
							"indexed": false,
							"internalType": "uint256",
							"name": "tokenId",
							"type": "uint256"
						},
						{
							"indexed": false,
							"internalType": "address",
							"name": "seller",
							"type": "address"
						},
						{
							"indexed": false,
							"internalType": "address",
							"name": "owner",
							"type": "address"
						},
						{
							"indexed": false,
							"internalType": "uint256",
							"name": "price",
							"type": "uint256"
						}
					],
					"name": "NFTSold",
					"type": "event"
				},
				{
					"anonymous": false,
					"inputs": [
						{
							"indexed": true,
							"internalType": "address",
							"name": "from",
							"type": "address"
						},
						{
							"indexed": true,
							"internalType": "address",
							"name": "to",
							"type": "address"
						},
						{
							"indexed": true,
							"internalType": "uint256",
							"name": "tokenId",
							"type": "uint256"
						}
					],
					"name": "Transfer",
					"type": "event"
				},
				{
					"inputs": [
						{
							"internalType": "address",
							"name": "to",
							"type": "address"
						},
						{
							"internalType": "uint256",
							"name": "tokenId",
							"type": "uint256"
						}
					],
					"name": "approve",
					"outputs": [],
					"stateMutability": "nonpayable",
					"type": "function"
				},
				{
					"inputs": [
						{
							"internalType": "address",
							"name": "owner",
							"type": "address"
						}
					],
					"name": "balanceOf",
					"outputs": [
						{
							"internalType": "uint256",
							"name": "",
							"type": "uint256"
						}
					],
					"stateMutability": "view",
					"type": "function"
				},
				{
					"inputs": [
						{
							"internalType": "uint256",
							"name": "tokenId",
							"type": "uint256"
						}
					],
					"name": "collaboratotOf",
					"outputs": [
						{
							"internalType": "address",
							"name": "",
							"type": "address"
						}
					],
					"stateMutability": "view",
					"type": "function"
				},
				{
					"inputs": [
						{
							"internalType": "uint256",
							"name": "tokenId",
							"type": "uint256"
						}
					],
					"name": "getApproved",
					"outputs": [
						{
							"internalType": "address",
							"name": "",
							"type": "address"
						}
					],
					"stateMutability": "view",
					"type": "function"
				},
				{
					"inputs": [
						{
							"internalType": "address",
							"name": "owner",
							"type": "address"
						},
						{
							"internalType": "address",
							"name": "operator",
							"type": "address"
						}
					],
					"name": "isApprovedForAll",
					"outputs": [
						{
							"internalType": "bool",
							"name": "",
							"type": "bool"
						}
					],
					"stateMutability": "view",
					"type": "function"
				},
				{
					"inputs": [
						{
							"internalType": "address",
							"name": "to",
							"type": "address"
						},
						{
							"internalType": "address",
							"name": "collaborator",
							"type": "address"
						},
						{
							"internalType": "uint256",
							"name": "tokenId",
							"type": "uint256"
						},
						{
							"internalType": "string",
							"name": "uri",
							"type": "string"
						}
					],
					"name": "mint",
					"outputs": [],
					"stateMutability": "nonpayable",
					"type": "function"
				},
				{
					"inputs": [],
					"name": "name",
					"outputs": [
						{
							"internalType": "string",
							"name": "",
							"type": "string"
						}
					],
					"stateMutability": "view",
					"type": "function"
				},
				{
					"inputs": [
						{
							"internalType": "uint256",
							"name": "tokenId",
							"type": "uint256"
						}
					],
					"name": "ownerOf",
					"outputs": [
						{
							"internalType": "address",
							"name": "",
							"type": "address"
						}
					],
					"stateMutability": "view",
					"type": "function"
				},
				{
					"inputs": [
						{
							"internalType": "address",
							"name": "from",
							"type": "address"
						},
						{
							"internalType": "address",
							"name": "to",
							"type": "address"
						},
						{
							"internalType": "uint256",
							"name": "tokenId",
							"type": "uint256"
						}
					],
					"name": "safeTransferFrom",
					"outputs": [],
					"stateMutability": "nonpayable",
					"type": "function"
				},
				{
					"inputs": [
						{
							"internalType": "address",
							"name": "from",
							"type": "address"
						},
						{
							"internalType": "address",
							"name": "to",
							"type": "address"
						},
						{
							"internalType": "uint256",
							"name": "tokenId",
							"type": "uint256"
						},
						{
							"internalType": "bytes",
							"name": "data",
							"type": "bytes"
						}
					],
					"name": "safeTransferFrom",
					"outputs": [],
					"stateMutability": "nonpayable",
					"type": "function"
				},
				{
					"inputs": [
						{
							"internalType": "address",
							"name": "operator",
							"type": "address"
						},
						{
							"internalType": "bool",
							"name": "approved",
							"type": "bool"
						}
					],
					"name": "setApprovalForAll",
					"outputs": [],
					"stateMutability": "nonpayable",
					"type": "function"
				},
				{
					"inputs": [
						{
							"internalType": "bytes4",
							"name": "interfaceId",
							"type": "bytes4"
						}
					],
					"name": "supportsInterface",
					"outputs": [
						{
							"internalType": "bool",
							"name": "",
							"type": "bool"
						}
					],
					"stateMutability": "view",
					"type": "function"
				},
				{
					"inputs": [],
					"name": "symbol",
					"outputs": [
						{
							"internalType": "string",
							"name": "",
							"type": "string"
						}
					],
					"stateMutability": "view",
					"type": "function"
				},
				{
					"inputs": [
						{
							"internalType": "uint256",
							"name": "tokenId",
							"type": "uint256"
						}
					],
					"name": "tokenURI",
					"outputs": [
						{
							"internalType": "string",
							"name": "",
							"type": "string"
						}
					],
					"stateMutability": "view",
					"type": "function"
				},
				{
					"inputs": [
						{
							"internalType": "address",
							"name": "from",
							"type": "address"
						},
						{
							"internalType": "address",
							"name": "to",
							"type": "address"
						},
						{
							"internalType": "uint256",
							"name": "tokenId",
							"type": "uint256"
						}
					],
					"name": "transferFrom",
					"outputs": [],
					"stateMutability": "nonpayable",
					"type": "function"
				}
			],
			"devdoc": {
				"kind": "dev",
				"methods": {
					"approve(address,uint256)": {
						"details": "Gives permission to `to` to transfer `tokenId` token to another account. The approval is cleared when the token is transferred. Only a single account can be approved at a time, so approving the zero address clears previous approvals. Requirements: - The caller must own the token or be an approved operator. - `tokenId` must exist. Emits an {Approval} event."
					},
					"balanceOf(address)": {
						"details": "Returns the number of tokens in ``owner``'s account."
					},
					"getApproved(uint256)": {
						"details": "Returns the account approved for `tokenId` token. Requirements: - `tokenId` must exist."
					},
					"isApprovedForAll(address,address)": {
						"details": "Returns if the `operator` is allowed to manage all of the assets of `owner`. See {setApprovalForAll}"
					},
					"name()": {
						"details": "Returns the token collection name."
					},
					"ownerOf(uint256)": {
						"details": "Returns the owner of the `tokenId` token. Requirements: - `tokenId` must exist."
					},
					"safeTransferFrom(address,address,uint256)": {
						"details": "Safely transfers `tokenId` token from `from` to `to`, checking first that contract recipients are aware of the ERC721 protocol to prevent tokens from being forever locked. Requirements: - `from` cannot be the zero address. - `to` cannot be the zero address. - `tokenId` token must exist and be owned by `from`. - If the caller is not `from`, it must be have been allowed to move this token by either {approve} or {setApprovalForAll}. - If `to` refers to a smart contract, it must implement {IERC721Receiver-onERC721Received}, which is called upon a safe transfer. Emits a {Transfer} event."
					},
					"safeTransferFrom(address,address,uint256,bytes)": {
						"details": "Safely transfers `tokenId` token from `from` to `to`. Requirements: - `from` cannot be the zero address. - `to` cannot be the zero address. - `tokenId` token must exist and be owned by `from`. - If the caller is not `from`, it must be approved to move this token by either {approve} or {setApprovalForAll}. - If `to` refers to a smart contract, it must implement {IERC721Receiver-onERC721Received}, which is called upon a safe transfer. Emits a {Transfer} event."
					},
					"symbol()": {
						"details": "Returns the token collection symbol."
					},
					"tokenURI(uint256)": {
						"details": "Returns the Uniform Resource Identifier (URI) for `tokenId` token."
					},
					"transferFrom(address,address,uint256)": {
						"details": "Transfers `tokenId` token from `from` to `to`. WARNING: Usage of this method is discouraged, use {safeTransferFrom} whenever possible. Requirements: - `from` cannot be the zero address. - `to` cannot be the zero address. - `tokenId` token must be owned by `from`. - If the caller is not `from`, it must be approved to move this token by either {approve} or {setApprovalForAll}. Emits a {Transfer} event."
					}
				},
				"version": 1
			},
			"evm": {
				"assembly": "    /* \"contracts/marketplace.sol\":687:10656  contract marketplace is Context, ERC165, IERC721, IERC721Metadata {\r... */\n  mstore(0x40, 0x80)\n    /* \"contracts/marketplace.sol\":1681:1797  constructor(string memory name_, string memory symbol_) {\r... */\n  callvalue\n  dup1\n  iszero\n  tag_1\n  jumpi\n  0x00\n  dup1\n  revert\ntag_1:\n  pop\n  mload(0x40)\n  sub(codesize, bytecodeSize)\n  dup1\n  bytecodeSize\n  dup4\n  codecopy\n  dup2\n  dup2\n  add\n  0x40\n  mstore\n  dup2\n  add\n  swap1\n  tag_2\n  swap2\n  swap1\n  tag_3\n  jump\t// in\ntag_2:\n    /* \"contracts/marketplace.sol\":1756:1761  name_ */\n  dup2\n    /* \"contracts/marketplace.sol\":1748:1753  _name */\n  0x00\n    /* \"contracts/marketplace.sol\":1748:1761  _name = name_ */\n  swap1\n  dup1\n  mload\n  swap1\n  0x20\n  add\n  swap1\n  tag_6\n  swap3\n  swap2\n  swap1\n  tag_7\n  jump\t// in\ntag_6:\n  pop\n    /* \"contracts/marketplace.sol\":1782:1789  symbol_ */\n  dup1\n    /* \"contracts/marketplace.sol\":1772:1779  _symbol */\n  0x01\n    /* \"contracts/marketplace.sol\":1772:1789  _symbol = symbol_ */\n  swap1\n  dup1\n  mload\n  swap1\n  0x20\n  add\n  swap1\n  tag_8\n  swap3\n  swap2\n  swap1\n  tag_7\n  jump\t// in\ntag_8:\n  pop\n    /* \"contracts/marketplace.sol\":1681:1797  constructor(string memory name_, string memory symbol_) {\r... */\n  pop\n  pop\n    /* \"contracts/marketplace.sol\":687:10656  contract marketplace is Context, ERC165, IERC721, IERC721Metadata {\r... */\n  jump(tag_9)\ntag_7:\n  dup3\n  dup1\n  sload\n  tag_10\n  swap1\n  tag_11\n  jump\t// in\ntag_10:\n  swap1\n  0x00\n  mstore\n  keccak256(0x00, 0x20)\n  swap1\n  0x1f\n  add\n  0x20\n  swap1\n  div\n  dup2\n  add\n  swap3\n  dup3\n  tag_13\n  jumpi\n  0x00\n  dup6\n  sstore\n  jump(tag_12)\ntag_13:\n  dup3\n  0x1f\n  lt\n  tag_14\n  jumpi\n  dup1\n  mload\n  not(0xff)\n  and\n  dup4\n  dup1\n  add\n  or\n  dup6\n  sstore\n  jump(tag_12)\ntag_14:\n  dup3\n  dup1\n  add\n  0x01\n  add\n  dup6\n  sstore\n  dup3\n  iszero\n  tag_12\n  jumpi\n  swap2\n  dup3\n  add\ntag_15:\n  dup3\n  dup2\n  gt\n  iszero\n  tag_16\n  jumpi\n  dup3\n  mload\n  dup3\n  sstore\n  swap2\n  0x20\n  add\n  swap2\n  swap1\n  0x01\n  add\n  swap1\n  jump(tag_15)\ntag_16:\ntag_12:\n  pop\n  swap1\n  pop\n  tag_17\n  swap2\n  swap1\n  tag_18\n  jump\t// in\ntag_17:\n  pop\n  swap1\n  jump\t// out\ntag_18:\ntag_19:\n  dup1\n  dup3\n  gt\n  iszero\n  tag_20\n  jumpi\n  0x00\n  dup2\n  0x00\n  swap1\n  sstore\n  pop\n  0x01\n  add\n  jump(tag_19)\ntag_20:\n  pop\n  swap1\n  jump\t// out\n    /* \"#utility.yul\":7:361   */\ntag_22:\n    /* \"#utility.yul\":96:101   */\n  0x00\n    /* \"#utility.yul\":121:187   */\n  tag_24\n    /* \"#utility.yul\":137:186   */\n  tag_25\n    /* \"#utility.yul\":179:185   */\n  dup5\n    /* \"#utility.yul\":137:186   */\n  tag_26\n  jump\t// in\ntag_25:\n    /* \"#utility.yul\":121:187   */\n  tag_27\n  jump\t// in\ntag_24:\n    /* \"#utility.yul\":112:187   */\n  swap1\n  pop\n    /* \"#utility.yul\":210:216   */\n  dup3\n    /* \"#utility.yul\":203:208   */\n  dup2\n    /* \"#utility.yul\":196:217   */\n  mstore\n    /* \"#utility.yul\":248:252   */\n  0x20\n    /* \"#utility.yul\":241:246   */\n  dup2\n    /* \"#utility.yul\":237:253   */\n  add\n    /* \"#utility.yul\":286:289   */\n  dup5\n    /* \"#utility.yul\":277:283   */\n  dup5\n    /* \"#utility.yul\":272:275   */\n  dup5\n    /* \"#utility.yul\":268:284   */\n  add\n    /* \"#utility.yul\":265:290   */\n  gt\n    /* \"#utility.yul\":262:264   */\n  iszero\n  tag_28\n  jumpi\n    /* \"#utility.yul\":303:304   */\n  0x00\n    /* \"#utility.yul\":300:301   */\n  dup1\n    /* \"#utility.yul\":293:305   */\n  revert\n    /* \"#utility.yul\":262:264   */\ntag_28:\n    /* \"#utility.yul\":316:355   */\n  tag_29\n    /* \"#utility.yul\":348:354   */\n  dup5\n    /* \"#utility.yul\":343:346   */\n  dup3\n    /* \"#utility.yul\":338:341   */\n  dup6\n    /* \"#utility.yul\":316:355   */\n  tag_30\n  jump\t// in\ntag_29:\n    /* \"#utility.yul\":102:361   */\n  pop\n  swap4\n  swap3\n  pop\n  pop\n  pop\n  jump\t// out\n    /* \"#utility.yul\":381:669   */\ntag_31:\n    /* \"#utility.yul\":448:453   */\n  0x00\n    /* \"#utility.yul\":497:500   */\n  dup3\n    /* \"#utility.yul\":490:494   */\n  0x1f\n    /* \"#utility.yul\":482:488   */\n  dup4\n    /* \"#utility.yul\":478:495   */\n  add\n    /* \"#utility.yul\":474:501   */\n  slt\n    /* \"#utility.yul\":464:466   */\n  tag_33\n  jumpi\n    /* \"#utility.yul\":515:516   */\n  0x00\n    /* \"#utility.yul\":512:513   */\n  dup1\n    /* \"#utility.yul\":505:517   */\n  revert\n    /* \"#utility.yul\":464:466   */\ntag_33:\n    /* \"#utility.yul\":548:554   */\n  dup2\n    /* \"#utility.yul\":542:555   */\n  mload\n    /* \"#utility.yul\":573:663   */\n  tag_34\n    /* \"#utility.yul\":659:662   */\n  dup5\n    /* \"#utility.yul\":651:657   */\n  dup3\n    /* \"#utility.yul\":644:648   */\n  0x20\n    /* \"#utility.yul\":636:642   */\n  dup7\n    /* \"#utility.yul\":632:649   */\n  add\n    /* \"#utility.yul\":573:663   */\n  tag_22\n  jump\t// in\ntag_34:\n    /* \"#utility.yul\":564:663   */\n  swap2\n  pop\n    /* \"#utility.yul\":454:669   */\n  pop\n  swap3\n  swap2\n  pop\n  pop\n  jump\t// out\n    /* \"#utility.yul\":675:1327   */\ntag_3:\n    /* \"#utility.yul\":774:780   */\n  0x00\n    /* \"#utility.yul\":782:788   */\n  dup1\n    /* \"#utility.yul\":831:833   */\n  0x40\n    /* \"#utility.yul\":819:828   */\n  dup4\n    /* \"#utility.yul\":810:817   */\n  dup6\n    /* \"#utility.yul\":806:829   */\n  sub\n    /* \"#utility.yul\":802:834   */\n  slt\n    /* \"#utility.yul\":799:801   */\n  iszero\n  tag_36\n  jumpi\n    /* \"#utility.yul\":847:848   */\n  0x00\n    /* \"#utility.yul\":844:845   */\n  dup1\n    /* \"#utility.yul\":837:849   */\n  revert\n    /* \"#utility.yul\":799:801   */\ntag_36:\n    /* \"#utility.yul\":911:912   */\n  0x00\n    /* \"#utility.yul\":900:909   */\n  dup4\n    /* \"#utility.yul\":896:913   */\n  add\n    /* \"#utility.yul\":890:914   */\n  mload\n    /* \"#utility.yul\":941:959   */\n  0xffffffffffffffff\n    /* \"#utility.yul\":933:939   */\n  dup2\n    /* \"#utility.yul\":930:960   */\n  gt\n    /* \"#utility.yul\":927:929   */\n  iszero\n  tag_37\n  jumpi\n    /* \"#utility.yul\":973:974   */\n  0x00\n    /* \"#utility.yul\":970:971   */\n  dup1\n    /* \"#utility.yul\":963:975   */\n  revert\n    /* \"#utility.yul\":927:929   */\ntag_37:\n    /* \"#utility.yul\":1001:1075   */\n  tag_38\n    /* \"#utility.yul\":1067:1074   */\n  dup6\n    /* \"#utility.yul\":1058:1064   */\n  dup3\n    /* \"#utility.yul\":1047:1056   */\n  dup7\n    /* \"#utility.yul\":1043:1065   */\n  add\n    /* \"#utility.yul\":1001:1075   */\n  tag_31\n  jump\t// in\ntag_38:\n    /* \"#utility.yul\":991:1075   */\n  swap3\n  pop\n    /* \"#utility.yul\":861:1085   */\n  pop\n    /* \"#utility.yul\":1145:1147   */\n  0x20\n    /* \"#utility.yul\":1134:1143   */\n  dup4\n    /* \"#utility.yul\":1130:1148   */\n  add\n    /* \"#utility.yul\":1124:1149   */\n  mload\n    /* \"#utility.yul\":1176:1194   */\n  0xffffffffffffffff\n    /* \"#utility.yul\":1168:1174   */\n  dup2\n    /* \"#utility.yul\":1165:1195   */\n  gt\n    /* \"#utility.yul\":1162:1164   */\n  iszero\n  tag_39\n  jumpi\n    /* \"#utility.yul\":1208:1209   */\n  0x00\n    /* \"#utility.yul\":1205:1206   */\n  dup1\n    /* \"#utility.yul\":1198:1210   */\n  revert\n    /* \"#utility.yul\":1162:1164   */\ntag_39:\n    /* \"#utility.yul\":1236:1310   */\n  tag_40\n    /* \"#utility.yul\":1302:1309   */\n  dup6\n    /* \"#utility.yul\":1293:1299   */\n  dup3\n    /* \"#utility.yul\":1282:1291   */\n  dup7\n    /* \"#utility.yul\":1278:1300   */\n  add\n    /* \"#utility.yul\":1236:1310   */\n  tag_31\n  jump\t// in\ntag_40:\n    /* \"#utility.yul\":1226:1310   */\n  swap2\n  pop\n    /* \"#utility.yul\":1095:1320   */\n  pop\n    /* \"#utility.yul\":789:1327   */\n  swap3\n  pop\n  swap3\n  swap1\n  pop\n  jump\t// out\n    /* \"#utility.yul\":1333:1462   */\ntag_27:\n    /* \"#utility.yul\":1367:1373   */\n  0x00\n    /* \"#utility.yul\":1394:1414   */\n  tag_42\n  tag_43\n  jump\t// in\ntag_42:\n    /* \"#utility.yul\":1384:1414   */\n  swap1\n  pop\n    /* \"#utility.yul\":1423:1456   */\n  tag_44\n    /* \"#utility.yul\":1451:1455   */\n  dup3\n    /* \"#utility.yul\":1443:1449   */\n  dup3\n    /* \"#utility.yul\":1423:1456   */\n  tag_45\n  jump\t// in\ntag_44:\n    /* \"#utility.yul\":1374:1462   */\n  swap2\n  swap1\n  pop\n  jump\t// out\n    /* \"#utility.yul\":1468:1543   */\ntag_43:\n    /* \"#utility.yul\":1501:1507   */\n  0x00\n    /* \"#utility.yul\":1534:1536   */\n  0x40\n    /* \"#utility.yul\":1528:1537   */\n  mload\n    /* \"#utility.yul\":1518:1537   */\n  swap1\n  pop\n    /* \"#utility.yul\":1508:1543   */\n  swap1\n  jump\t// out\n    /* \"#utility.yul\":1549:1857   */\ntag_26:\n    /* \"#utility.yul\":1611:1615   */\n  0x00\n    /* \"#utility.yul\":1701:1719   */\n  0xffffffffffffffff\n    /* \"#utility.yul\":1693:1699   */\n  dup3\n    /* \"#utility.yul\":1690:1720   */\n  gt\n    /* \"#utility.yul\":1687:1689   */\n  iszero\n  tag_48\n  jumpi\n    /* \"#utility.yul\":1723:1741   */\n  tag_49\n  tag_50\n  jump\t// in\ntag_49:\n    /* \"#utility.yul\":1687:1689   */\ntag_48:\n    /* \"#utility.yul\":1761:1790   */\n  tag_51\n    /* \"#utility.yul\":1783:1789   */\n  dup3\n    /* \"#utility.yul\":1761:1790   */\n  tag_52\n  jump\t// in\ntag_51:\n    /* \"#utility.yul\":1753:1790   */\n  swap1\n  pop\n    /* \"#utility.yul\":1845:1849   */\n  0x20\n    /* \"#utility.yul\":1839:1843   */\n  dup2\n    /* \"#utility.yul\":1835:1850   */\n  add\n    /* \"#utility.yul\":1827:1850   */\n  swap1\n  pop\n    /* \"#utility.yul\":1616:1857   */\n  swap2\n  swap1\n  pop\n  jump\t// out\n    /* \"#utility.yul\":1863:2170   */\ntag_30:\n    /* \"#utility.yul\":1931:1932   */\n  0x00\n    /* \"#utility.yul\":1941:2054   */\ntag_54:\n    /* \"#utility.yul\":1955:1961   */\n  dup4\n    /* \"#utility.yul\":1952:1953   */\n  dup2\n    /* \"#utility.yul\":1949:1962   */\n  lt\n    /* \"#utility.yul\":1941:2054   */\n  iszero\n  tag_56\n  jumpi\n    /* \"#utility.yul\":2040:2041   */\n  dup1\n    /* \"#utility.yul\":2035:2038   */\n  dup3\n    /* \"#utility.yul\":2031:2042   */\n  add\n    /* \"#utility.yul\":2025:2043   */\n  mload\n    /* \"#utility.yul\":2021:2022   */\n  dup2\n    /* \"#utility.yul\":2016:2019   */\n  dup5\n    /* \"#utility.yul\":2012:2023   */\n  add\n    /* \"#utility.yul\":2005:2044   */\n  mstore\n    /* \"#utility.yul\":1977:1979   */\n  0x20\n    /* \"#utility.yul\":1974:1975   */\n  dup2\n    /* \"#utility.yul\":1970:1980   */\n  add\n    /* \"#utility.yul\":1965:1980   */\n  swap1\n  pop\n    /* \"#utility.yul\":1941:2054   */\n  jump(tag_54)\ntag_56:\n    /* \"#utility.yul\":2072:2078   */\n  dup4\n    /* \"#utility.yul\":2069:2070   */\n  dup2\n    /* \"#utility.yul\":2066:2079   */\n  gt\n    /* \"#utility.yul\":2063:2065   */\n  iszero\n  tag_57\n  jumpi\n    /* \"#utility.yul\":2152:2153   */\n  0x00\n    /* \"#utility.yul\":2143:2149   */\n  dup5\n    /* \"#utility.yul\":2138:2141   */\n  dup5\n    /* \"#utility.yul\":2134:2150   */\n  add\n    /* \"#utility.yul\":2127:2154   */\n  mstore\n    /* \"#utility.yul\":2063:2065   */\ntag_57:\n    /* \"#utility.yul\":1912:2170   */\n  pop\n  pop\n  pop\n  pop\n  jump\t// out\n    /* \"#utility.yul\":2176:2496   */\ntag_11:\n    /* \"#utility.yul\":2220:2226   */\n  0x00\n    /* \"#utility.yul\":2257:2258   */\n  0x02\n    /* \"#utility.yul\":2251:2255   */\n  dup3\n    /* \"#utility.yul\":2247:2259   */\n  div\n    /* \"#utility.yul\":2237:2259   */\n  swap1\n  pop\n    /* \"#utility.yul\":2304:2305   */\n  0x01\n    /* \"#utility.yul\":2298:2302   */\n  dup3\n    /* \"#utility.yul\":2294:2306   */\n  and\n    /* \"#utility.yul\":2325:2343   */\n  dup1\n    /* \"#utility.yul\":2315:2317   */\n  tag_59\n  jumpi\n    /* \"#utility.yul\":2381:2385   */\n  0x7f\n    /* \"#utility.yul\":2373:2379   */\n  dup3\n    /* \"#utility.yul\":2369:2386   */\n  and\n    /* \"#utility.yul\":2359:2386   */\n  swap2\n  pop\n    /* \"#utility.yul\":2315:2317   */\ntag_59:\n    /* \"#utility.yul\":2443:2445   */\n  0x20\n    /* \"#utility.yul\":2435:2441   */\n  dup3\n    /* \"#utility.yul\":2432:2446   */\n  lt\n    /* \"#utility.yul\":2412:2430   */\n  dup2\n    /* \"#utility.yul\":2409:2447   */\n  eq\n    /* \"#utility.yul\":2406:2408   */\n  iszero\n  tag_60\n  jumpi\n    /* \"#utility.yul\":2462:2480   */\n  tag_61\n  tag_62\n  jump\t// in\ntag_61:\n    /* \"#utility.yul\":2406:2408   */\ntag_60:\n    /* \"#utility.yul\":2227:2496   */\n  pop\n  swap2\n  swap1\n  pop\n  jump\t// out\n    /* \"#utility.yul\":2502:2783   */\ntag_45:\n    /* \"#utility.yul\":2585:2612   */\n  tag_64\n    /* \"#utility.yul\":2607:2611   */\n  dup3\n    /* \"#utility.yul\":2585:2612   */\n  tag_52\n  jump\t// in\ntag_64:\n    /* \"#utility.yul\":2577:2583   */\n  dup2\n    /* \"#utility.yul\":2573:2613   */\n  add\n    /* \"#utility.yul\":2715:2721   */\n  dup2\n    /* \"#utility.yul\":2703:2713   */\n  dup2\n    /* \"#utility.yul\":2700:2722   */\n  lt\n    /* \"#utility.yul\":2679:2697   */\n  0xffffffffffffffff\n    /* \"#utility.yul\":2667:2677   */\n  dup3\n    /* \"#utility.yul\":2664:2698   */\n  gt\n    /* \"#utility.yul\":2661:2723   */\n  or\n    /* \"#utility.yul\":2658:2660   */\n  iszero\n  tag_65\n  jumpi\n    /* \"#utility.yul\":2726:2744   */\n  tag_66\n  tag_50\n  jump\t// in\ntag_66:\n    /* \"#utility.yul\":2658:2660   */\ntag_65:\n    /* \"#utility.yul\":2766:2776   */\n  dup1\n    /* \"#utility.yul\":2762:2764   */\n  0x40\n    /* \"#utility.yul\":2755:2777   */\n  mstore\n    /* \"#utility.yul\":2545:2783   */\n  pop\n  pop\n  pop\n  jump\t// out\n    /* \"#utility.yul\":2789:2969   */\ntag_62:\n    /* \"#utility.yul\":2837:2914   */\n  0x4e487b7100000000000000000000000000000000000000000000000000000000\n    /* \"#utility.yul\":2834:2835   */\n  0x00\n    /* \"#utility.yul\":2827:2915   */\n  mstore\n    /* \"#utility.yul\":2934:2938   */\n  0x22\n    /* \"#utility.yul\":2931:2932   */\n  0x04\n    /* \"#utility.yul\":2924:2939   */\n  mstore\n    /* \"#utility.yul\":2958:2962   */\n  0x24\n    /* \"#utility.yul\":2955:2956   */\n  0x00\n    /* \"#utility.yul\":2948:2963   */\n  revert\n    /* \"#utility.yul\":2975:3155   */\ntag_50:\n    /* \"#utility.yul\":3023:3100   */\n  0x4e487b7100000000000000000000000000000000000000000000000000000000\n    /* \"#utility.yul\":3020:3021   */\n  0x00\n    /* \"#utility.yul\":3013:3101   */\n  mstore\n    /* \"#utility.yul\":3120:3124   */\n  0x41\n    /* \"#utility.yul\":3117:3118   */\n  0x04\n    /* \"#utility.yul\":3110:3125   */\n  mstore\n    /* \"#utility.yul\":3144:3148   */\n  0x24\n    /* \"#utility.yul\":3141:3142   */\n  0x00\n    /* \"#utility.yul\":3134:3149   */\n  revert\n    /* \"#utility.yul\":3161:3263   */\ntag_52:\n    /* \"#utility.yul\":3202:3208   */\n  0x00\n    /* \"#utility.yul\":3253:3255   */\n  0x1f\n    /* \"#utility.yul\":3249:3256   */\n  not\n    /* \"#utility.yul\":3244:3246   */\n  0x1f\n    /* \"#utility.yul\":3237:3242   */\n  dup4\n    /* \"#utility.yul\":3233:3247   */\n  add\n    /* \"#utility.yul\":3229:3257   */\n  and\n    /* \"#utility.yul\":3219:3257   */\n  swap1\n  pop\n    /* \"#utility.yul\":3209:3263   */\n  swap2\n  swap1\n  pop\n  jump\t// out\n    /* \"contracts/marketplace.sol\":687:10656  contract marketplace is Context, ERC165, IERC721, IERC721Metadata {\r... */\ntag_9:\n  dataSize(sub_0)\n  dup1\n  dataOffset(sub_0)\n  0x00\n  codecopy\n  0x00\n  return\nstop\n\nsub_0: assembly {\n        /* \"contracts/marketplace.sol\":687:10656  contract marketplace is Context, ERC165, IERC721, IERC721Metadata {\r... */\n      mstore(0x40, 0x80)\n      callvalue\n      dup1\n      iszero\n      tag_1\n      jumpi\n      0x00\n      dup1\n      revert\n    tag_1:\n      pop\n      jumpi(tag_2, lt(calldatasize, 0x04))\n      shr(0xe0, calldataload(0x00))\n      dup1\n      0x6352211e\n      gt\n      tag_18\n      jumpi\n      dup1\n      0xb85cbc79\n      gt\n      tag_19\n      jumpi\n      dup1\n      0xb85cbc79\n      eq\n      tag_14\n      jumpi\n      dup1\n      0xb88d4fde\n      eq\n      tag_15\n      jumpi\n      dup1\n      0xc87b56dd\n      eq\n      tag_16\n      jumpi\n      dup1\n      0xe985e9c5\n      eq\n      tag_17\n      jumpi\n      jump(tag_2)\n    tag_19:\n      dup1\n      0x6352211e\n      eq\n      tag_10\n      jumpi\n      dup1\n      0x70a08231\n      eq\n      tag_11\n      jumpi\n      dup1\n      0x95d89b41\n      eq\n      tag_12\n      jumpi\n      dup1\n      0xa22cb465\n      eq\n      tag_13\n      jumpi\n      jump(tag_2)\n    tag_18:\n      dup1\n      0x095ea7b3\n      gt\n      tag_20\n      jumpi\n      dup1\n      0x095ea7b3\n      eq\n      tag_6\n      jumpi\n      dup1\n      0x23b872dd\n      eq\n      tag_7\n      jumpi\n      dup1\n      0x42842e0e\n      eq\n      tag_8\n      jumpi\n      dup1\n      0x52e04825\n      eq\n      tag_9\n      jumpi\n      jump(tag_2)\n    tag_20:\n      dup1\n      0x01ffc9a7\n      eq\n      tag_3\n      jumpi\n      dup1\n      0x06fdde03\n      eq\n      tag_4\n      jumpi\n      dup1\n      0x081812fc\n      eq\n      tag_5\n      jumpi\n    tag_2:\n      0x00\n      dup1\n      revert\n        /* \"contracts/marketplace.sol\":1807:2112  function supportsInterface(bytes4 interfaceId) public view virtual override(ERC165, IERC165) returns (bool) {\r... */\n    tag_3:\n      tag_21\n      0x04\n      dup1\n      calldatasize\n      sub\n      dup2\n      add\n      swap1\n      tag_22\n      swap2\n      swap1\n      tag_23\n      jump\t// in\n    tag_22:\n      tag_24\n      jump\t// in\n    tag_21:\n      mload(0x40)\n      tag_25\n      swap2\n      swap1\n      tag_26\n      jump\t// in\n    tag_25:\n      mload(0x40)\n      dup1\n      swap2\n      sub\n      swap1\n      return\n        /* \"contracts/marketplace.sol\":2828:2928  function name() public view virtual override returns (string memory) {\r... */\n    tag_4:\n      tag_27\n      tag_28\n      jump\t// in\n    tag_27:\n      mload(0x40)\n      tag_29\n      swap2\n      swap1\n      tag_30\n      jump\t// in\n    tag_29:\n      mload(0x40)\n      dup1\n      swap2\n      sub\n      swap1\n      return\n        /* \"contracts/marketplace.sol\":3878:4049  function getApproved(uint256 tokenId) public view virtual override returns (address) {\r... */\n    tag_5:\n      tag_31\n      0x04\n      dup1\n      calldatasize\n      sub\n      dup2\n      add\n      swap1\n      tag_32\n      swap2\n      swap1\n      tag_33\n      jump\t// in\n    tag_32:\n      tag_34\n      jump\t// in\n    tag_31:\n      mload(0x40)\n      tag_35\n      swap2\n      swap1\n      tag_36\n      jump\t// in\n    tag_35:\n      mload(0x40)\n      dup1\n      swap2\n      sub\n      swap1\n      return\n        /* \"contracts/marketplace.sol\":3446:3867  function approve(address to, uint256 tokenId) public virtual override {\r... */\n    tag_6:\n      tag_37\n      0x04\n      dup1\n      calldatasize\n      sub\n      dup2\n      add\n      swap1\n      tag_38\n      swap2\n      swap1\n      tag_39\n      jump\t// in\n    tag_38:\n      tag_40\n      jump\t// in\n    tag_37:\n      stop\n        /* \"contracts/marketplace.sol\":4400:4682  function transferFrom(\r... */\n    tag_7:\n      tag_41\n      0x04\n      dup1\n      calldatasize\n      sub\n      dup2\n      add\n      swap1\n      tag_42\n      swap2\n      swap1\n      tag_43\n      jump\t// in\n    tag_42:\n      tag_44\n      jump\t// in\n    tag_41:\n      stop\n        /* \"contracts/marketplace.sol\":4692:4877  function safeTransferFrom(\r... */\n    tag_8:\n      tag_45\n      0x04\n      dup1\n      calldatasize\n      sub\n      dup2\n      add\n      swap1\n      tag_46\n      swap2\n      swap1\n      tag_43\n      jump\t// in\n    tag_46:\n      tag_47\n      jump\t// in\n    tag_45:\n      stop\n        /* \"contracts/marketplace.sol\":2570:2818  function collaboratotOf(uint256 tokenId) public view virtual returns (address) {\r... */\n    tag_9:\n      tag_48\n      0x04\n      dup1\n      calldatasize\n      sub\n      dup2\n      add\n      swap1\n      tag_49\n      swap2\n      swap1\n      tag_33\n      jump\t// in\n    tag_49:\n      tag_50\n      jump\t// in\n    tag_48:\n      mload(0x40)\n      tag_51\n      swap2\n      swap1\n      tag_36\n      jump\t// in\n    tag_51:\n      mload(0x40)\n      dup1\n      swap2\n      sub\n      swap1\n      return\n        /* \"contracts/marketplace.sol\":2339:2561  function ownerOf(uint256 tokenId) public view virtual override returns (address) {\r... */\n    tag_10:\n      tag_52\n      0x04\n      dup1\n      calldatasize\n      sub\n      dup2\n      add\n      swap1\n      tag_53\n      swap2\n      swap1\n      tag_33\n      jump\t// in\n    tag_53:\n      tag_54\n      jump\t// in\n    tag_52:\n      mload(0x40)\n      tag_55\n      swap2\n      swap1\n      tag_36\n      jump\t// in\n    tag_55:\n      mload(0x40)\n      dup1\n      swap2\n      sub\n      swap1\n      return\n        /* \"contracts/marketplace.sol\":2122:2329  function balanceOf(address owner) public view virtual override returns (uint256) {\r... */\n    tag_11:\n      tag_56\n      0x04\n      dup1\n      calldatasize\n      sub\n      dup2\n      add\n      swap1\n      tag_57\n      swap2\n      swap1\n      tag_58\n      jump\t// in\n    tag_57:\n      tag_59\n      jump\t// in\n    tag_56:\n      mload(0x40)\n      tag_60\n      swap2\n      swap1\n      tag_61\n      jump\t// in\n    tag_60:\n      mload(0x40)\n      dup1\n      swap2\n      sub\n      swap1\n      return\n        /* \"contracts/marketplace.sol\":2939:3043  function symbol() public view virtual override returns (string memory) {\r... */\n    tag_12:\n      tag_62\n      tag_63\n      jump\t// in\n    tag_62:\n      mload(0x40)\n      tag_64\n      swap2\n      swap1\n      tag_30\n      jump\t// in\n    tag_64:\n      mload(0x40)\n      dup1\n      swap2\n      sub\n      swap1\n      return\n        /* \"contracts/marketplace.sol\":4061:4216  function setApprovalForAll(address operator, bool approved) public virtual override {\r... */\n    tag_13:\n      tag_65\n      0x04\n      dup1\n      calldatasize\n      sub\n      dup2\n      add\n      swap1\n      tag_66\n      swap2\n      swap1\n      tag_67\n      jump\t// in\n    tag_66:\n      tag_68\n      jump\t// in\n    tag_65:\n      stop\n        /* \"contracts/marketplace.sol\":5218:5395  function mint(address to,address collaborator,uint tokenId,string memory uri) public{\r... */\n    tag_14:\n      tag_69\n      0x04\n      dup1\n      calldatasize\n      sub\n      dup2\n      add\n      swap1\n      tag_70\n      swap2\n      swap1\n      tag_71\n      jump\t// in\n    tag_70:\n      tag_72\n      jump\t// in\n    tag_69:\n      stop\n        /* \"contracts/marketplace.sol\":4887:5209  function safeTransferFrom(\r... */\n    tag_15:\n      tag_73\n      0x04\n      dup1\n      calldatasize\n      sub\n      dup2\n      add\n      swap1\n      tag_74\n      swap2\n      swap1\n      tag_75\n      jump\t// in\n    tag_74:\n      tag_76\n      jump\t// in\n    tag_73:\n      stop\n        /* \"contracts/marketplace.sol\":3051:3332  function tokenURI(uint256 tokenId) public view virtual override returns (string memory) {\r... */\n    tag_16:\n      tag_77\n      0x04\n      dup1\n      calldatasize\n      sub\n      dup2\n      add\n      swap1\n      tag_78\n      swap2\n      swap1\n      tag_33\n      jump\t// in\n    tag_78:\n      tag_79\n      jump\t// in\n    tag_77:\n      mload(0x40)\n      tag_80\n      swap2\n      swap1\n      tag_30\n      jump\t// in\n    tag_80:\n      mload(0x40)\n      dup1\n      swap2\n      sub\n      swap1\n      return\n        /* \"contracts/marketplace.sol\":4226:4390  function isApprovedForAll(address owner, address operator) public view virtual override returns (bool) {\r... */\n    tag_17:\n      tag_81\n      0x04\n      dup1\n      calldatasize\n      sub\n      dup2\n      add\n      swap1\n      tag_82\n      swap2\n      swap1\n      tag_83\n      jump\t// in\n    tag_82:\n      tag_84\n      jump\t// in\n    tag_81:\n      mload(0x40)\n      tag_85\n      swap2\n      swap1\n      tag_26\n      jump\t// in\n    tag_85:\n      mload(0x40)\n      dup1\n      swap2\n      sub\n      swap1\n      return\n        /* \"contracts/marketplace.sol\":1807:2112  function supportsInterface(bytes4 interfaceId) public view virtual override(ERC165, IERC165) returns (bool) {\r... */\n    tag_24:\n        /* \"contracts/marketplace.sol\":1909:1913  bool */\n      0x00\n        /* \"contracts/marketplace.sol\":1961:1986  type(IERC721).interfaceId */\n      0x80ac58cd00000000000000000000000000000000000000000000000000000000\n        /* \"contracts/marketplace.sol\":1946:1986  interfaceId == type(IERC721).interfaceId */\n      not(0xffffffffffffffffffffffffffffffffffffffffffffffffffffffff)\n      and\n        /* \"contracts/marketplace.sol\":1946:1957  interfaceId */\n      dup3\n        /* \"contracts/marketplace.sol\":1946:1986  interfaceId == type(IERC721).interfaceId */\n      not(0xffffffffffffffffffffffffffffffffffffffffffffffffffffffff)\n      and\n      eq\n        /* \"contracts/marketplace.sol\":1946:2051  interfaceId == type(IERC721).interfaceId ||\r... */\n      dup1\n      tag_87\n      jumpi\n      pop\n        /* \"contracts/marketplace.sol\":2018:2051  type(IERC721Metadata).interfaceId */\n      0x5b5e139f00000000000000000000000000000000000000000000000000000000\n        /* \"contracts/marketplace.sol\":2003:2051  interfaceId == type(IERC721Metadata).interfaceId */\n      not(0xffffffffffffffffffffffffffffffffffffffffffffffffffffffff)\n      and\n        /* \"contracts/marketplace.sol\":2003:2014  interfaceId */\n      dup3\n        /* \"contracts/marketplace.sol\":2003:2051  interfaceId == type(IERC721Metadata).interfaceId */\n      not(0xffffffffffffffffffffffffffffffffffffffffffffffffffffffff)\n      and\n      eq\n        /* \"contracts/marketplace.sol\":1946:2051  interfaceId == type(IERC721).interfaceId ||\r... */\n    tag_87:\n        /* \"contracts/marketplace.sol\":1946:2104  interfaceId == type(IERC721).interfaceId ||\r... */\n      dup1\n      tag_88\n      jumpi\n      pop\n        /* \"contracts/marketplace.sol\":2068:2104  super.supportsInterface(interfaceId) */\n      tag_89\n        /* \"contracts/marketplace.sol\":2092:2103  interfaceId */\n      dup3\n        /* \"contracts/marketplace.sol\":2068:2091  super.supportsInterface */\n      tag_90\n        /* \"contracts/marketplace.sol\":2068:2104  super.supportsInterface(interfaceId) */\n      jump\t// in\n    tag_89:\n        /* \"contracts/marketplace.sol\":1946:2104  interfaceId == type(IERC721).interfaceId ||\r... */\n    tag_88:\n        /* \"contracts/marketplace.sol\":1926:2104  return\r... */\n      swap1\n      pop\n        /* \"contracts/marketplace.sol\":1807:2112  function supportsInterface(bytes4 interfaceId) public view virtual override(ERC165, IERC165) returns (bool) {\r... */\n      swap2\n      swap1\n      pop\n      jump\t// out\n        /* \"contracts/marketplace.sol\":2828:2928  function name() public view virtual override returns (string memory) {\r... */\n    tag_28:\n        /* \"contracts/marketplace.sol\":2882:2895  string memory */\n      0x60\n        /* \"contracts/marketplace.sol\":2915:2920  _name */\n      0x00\n        /* \"contracts/marketplace.sol\":2908:2920  return _name */\n      dup1\n      sload\n      tag_92\n      swap1\n      tag_93\n      jump\t// in\n    tag_92:\n      dup1\n      0x1f\n      add\n      0x20\n      dup1\n      swap2\n      div\n      mul\n      0x20\n      add\n      mload(0x40)\n      swap1\n      dup2\n      add\n      0x40\n      mstore\n      dup1\n      swap3\n      swap2\n      swap1\n      dup2\n      dup2\n      mstore\n      0x20\n      add\n      dup3\n      dup1\n      sload\n      tag_94\n      swap1\n      tag_93\n      jump\t// in\n    tag_94:\n      dup1\n      iszero\n      tag_95\n      jumpi\n      dup1\n      0x1f\n      lt\n      tag_96\n      jumpi\n      0x0100\n      dup1\n      dup4\n      sload\n      div\n      mul\n      dup4\n      mstore\n      swap2\n      0x20\n      add\n      swap2\n      jump(tag_95)\n    tag_96:\n      dup3\n      add\n      swap2\n      swap1\n      0x00\n      mstore\n      keccak256(0x00, 0x20)\n      swap1\n    tag_97:\n      dup2\n      sload\n      dup2\n      mstore\n      swap1\n      0x01\n      add\n      swap1\n      0x20\n      add\n      dup1\n      dup4\n      gt\n      tag_97\n      jumpi\n      dup3\n      swap1\n      sub\n      0x1f\n      and\n      dup3\n      add\n      swap2\n    tag_95:\n      pop\n      pop\n      pop\n      pop\n      pop\n      swap1\n      pop\n        /* \"contracts/marketplace.sol\":2828:2928  function name() public view virtual override returns (string memory) {\r... */\n      swap1\n      jump\t// out\n        /* \"contracts/marketplace.sol\":3878:4049  function getApproved(uint256 tokenId) public view virtual override returns (address) {\r... */\n    tag_34:\n        /* \"contracts/marketplace.sol\":3954:3961  address */\n      0x00\n        /* \"contracts/marketplace.sol\":3974:3997  _requireMinted(tokenId) */\n      tag_99\n        /* \"contracts/marketplace.sol\":3989:3996  tokenId */\n      dup3\n        /* \"contracts/marketplace.sol\":3974:3988  _requireMinted */\n      tag_100\n        /* \"contracts/marketplace.sol\":3974:3997  _requireMinted(tokenId) */\n      jump\t// in\n    tag_99:\n        /* \"contracts/marketplace.sol\":4017:4032  _tokenApprovals */\n      0x05\n        /* \"contracts/marketplace.sol\":4017:4041  _tokenApprovals[tokenId] */\n      0x00\n        /* \"contracts/marketplace.sol\":4033:4040  tokenId */\n      dup4\n        /* \"contracts/marketplace.sol\":4017:4041  _tokenApprovals[tokenId] */\n      dup2\n      mstore\n      0x20\n      add\n      swap1\n      dup2\n      mstore\n      0x20\n      add\n      0x00\n      keccak256\n      0x00\n      swap1\n      sload\n      swap1\n      0x0100\n      exp\n      swap1\n      div\n      0xffffffffffffffffffffffffffffffffffffffff\n      and\n        /* \"contracts/marketplace.sol\":4010:4041  return _tokenApprovals[tokenId] */\n      swap1\n      pop\n        /* \"contracts/marketplace.sol\":3878:4049  function getApproved(uint256 tokenId) public view virtual override returns (address) {\r... */\n      swap2\n      swap1\n      pop\n      jump\t// out\n        /* \"contracts/marketplace.sol\":3446:3867  function approve(address to, uint256 tokenId) public virtual override {\r... */\n    tag_40:\n        /* \"contracts/marketplace.sol\":3527:3540  address owner */\n      0x00\n        /* \"contracts/marketplace.sol\":3543:3571  marketplace.ownerOf(tokenId) */\n      tag_102\n        /* \"contracts/marketplace.sol\":3563:3570  tokenId */\n      dup3\n        /* \"contracts/marketplace.sol\":3543:3562  marketplace.ownerOf */\n      tag_54\n        /* \"contracts/marketplace.sol\":3543:3571  marketplace.ownerOf(tokenId) */\n      jump\t// in\n    tag_102:\n        /* \"contracts/marketplace.sol\":3527:3571  address owner = marketplace.ownerOf(tokenId) */\n      swap1\n      pop\n        /* \"contracts/marketplace.sol\":3596:3601  owner */\n      dup1\n        /* \"contracts/marketplace.sol\":3590:3601  to != owner */\n      0xffffffffffffffffffffffffffffffffffffffff\n      and\n        /* \"contracts/marketplace.sol\":3590:3592  to */\n      dup4\n        /* \"contracts/marketplace.sol\":3590:3601  to != owner */\n      0xffffffffffffffffffffffffffffffffffffffff\n      and\n      eq\n      iszero\n        /* \"contracts/marketplace.sol\":3582:3639  require(to != owner, \"ERC721: approval to current owner\") */\n      tag_103\n      jumpi\n      mload(0x40)\n      0x08c379a000000000000000000000000000000000000000000000000000000000\n      dup2\n      mstore\n      0x04\n      add\n      tag_104\n      swap1\n      tag_105\n      jump\t// in\n    tag_104:\n      mload(0x40)\n      dup1\n      swap2\n      sub\n      swap1\n      revert\n    tag_103:\n        /* \"contracts/marketplace.sol\":3690:3695  owner */\n      dup1\n        /* \"contracts/marketplace.sol\":3674:3695  _msgSender() == owner */\n      0xffffffffffffffffffffffffffffffffffffffff\n      and\n        /* \"contracts/marketplace.sol\":3674:3686  _msgSender() */\n      tag_106\n        /* \"contracts/marketplace.sol\":3674:3684  _msgSender */\n      tag_107\n        /* \"contracts/marketplace.sol\":3674:3686  _msgSender() */\n      jump\t// in\n    tag_106:\n        /* \"contracts/marketplace.sol\":3674:3695  _msgSender() == owner */\n      0xffffffffffffffffffffffffffffffffffffffff\n      and\n      eq\n        /* \"contracts/marketplace.sol\":3674:3736  _msgSender() == owner || isApprovedForAll(owner, _msgSender()) */\n      dup1\n      tag_108\n      jumpi\n      pop\n        /* \"contracts/marketplace.sol\":3699:3736  isApprovedForAll(owner, _msgSender()) */\n      tag_109\n        /* \"contracts/marketplace.sol\":3716:3721  owner */\n      dup2\n        /* \"contracts/marketplace.sol\":3723:3735  _msgSender() */\n      tag_110\n        /* \"contracts/marketplace.sol\":3723:3733  _msgSender */\n      tag_107\n        /* \"contracts/marketplace.sol\":3723:3735  _msgSender() */\n      jump\t// in\n    tag_110:\n        /* \"contracts/marketplace.sol\":3699:3715  isApprovedForAll */\n      tag_84\n        /* \"contracts/marketplace.sol\":3699:3736  isApprovedForAll(owner, _msgSender()) */\n      jump\t// in\n    tag_109:\n        /* \"contracts/marketplace.sol\":3674:3736  _msgSender() == owner || isApprovedForAll(owner, _msgSender()) */\n    tag_108:\n        /* \"contracts/marketplace.sol\":3652:3825  require(\r... */\n      tag_111\n      jumpi\n      mload(0x40)\n      0x08c379a000000000000000000000000000000000000000000000000000000000\n      dup2\n      mstore\n      0x04\n      add\n      tag_112\n      swap1\n      tag_113\n      jump\t// in\n    tag_112:\n      mload(0x40)\n      dup1\n      swap2\n      sub\n      swap1\n      revert\n    tag_111:\n        /* \"contracts/marketplace.sol\":3838:3859  _approve(to, tokenId) */\n      tag_114\n        /* \"contracts/marketplace.sol\":3847:3849  to */\n      dup4\n        /* \"contracts/marketplace.sol\":3851:3858  tokenId */\n      dup4\n        /* \"contracts/marketplace.sol\":3838:3846  _approve */\n      tag_115\n        /* \"contracts/marketplace.sol\":3838:3859  _approve(to, tokenId) */\n      jump\t// in\n    tag_114:\n        /* \"contracts/marketplace.sol\":3446:3867  function approve(address to, uint256 tokenId) public virtual override {\r... */\n      pop\n      pop\n      pop\n      jump\t// out\n        /* \"contracts/marketplace.sol\":4400:4682  function transferFrom(\r... */\n    tag_44:\n        /* \"contracts/marketplace.sol\":4542:4583  _isApprovedOrOwner(_msgSender(), tokenId) */\n      tag_117\n        /* \"contracts/marketplace.sol\":4561:4573  _msgSender() */\n      tag_118\n        /* \"contracts/marketplace.sol\":4561:4571  _msgSender */\n      tag_107\n        /* \"contracts/marketplace.sol\":4561:4573  _msgSender() */\n      jump\t// in\n    tag_118:\n        /* \"contracts/marketplace.sol\":4575:4582  tokenId */\n      dup3\n        /* \"contracts/marketplace.sol\":4542:4560  _isApprovedOrOwner */\n      tag_119\n        /* \"contracts/marketplace.sol\":4542:4583  _isApprovedOrOwner(_msgSender(), tokenId) */\n      jump\t// in\n    tag_117:\n        /* \"contracts/marketplace.sol\":4534:4633  require(_isApprovedOrOwner(_msgSender(), tokenId), \"ERC721: caller is not token owner or approved\") */\n      tag_120\n      jumpi\n      mload(0x40)\n      0x08c379a000000000000000000000000000000000000000000000000000000000\n      dup2\n      mstore\n      0x04\n      add\n      tag_121\n      swap1\n      tag_122\n      jump\t// in\n    tag_121:\n      mload(0x40)\n      dup1\n      swap2\n      sub\n      swap1\n      revert\n    tag_120:\n        /* \"contracts/marketplace.sol\":4646:4674  _transfer(from, to, tokenId) */\n      tag_123\n        /* \"contracts/marketplace.sol\":4656:4660  from */\n      dup4\n        /* \"contracts/marketplace.sol\":4662:4664  to */\n      dup4\n        /* \"contracts/marketplace.sol\":4666:4673  tokenId */\n      dup4\n        /* \"contracts/marketplace.sol\":4646:4655  _transfer */\n      tag_124\n        /* \"contracts/marketplace.sol\":4646:4674  _transfer(from, to, tokenId) */\n      jump\t// in\n    tag_123:\n        /* \"contracts/marketplace.sol\":4400:4682  function transferFrom(\r... */\n      pop\n      pop\n      pop\n      jump\t// out\n        /* \"contracts/marketplace.sol\":4692:4877  function safeTransferFrom(\r... */\n    tag_47:\n        /* \"contracts/marketplace.sol\":4830:4869  safeTransferFrom(from, to, tokenId, \"\") */\n      tag_126\n        /* \"contracts/marketplace.sol\":4847:4851  from */\n      dup4\n        /* \"contracts/marketplace.sol\":4853:4855  to */\n      dup4\n        /* \"contracts/marketplace.sol\":4857:4864  tokenId */\n      dup4\n        /* \"contracts/marketplace.sol\":4830:4869  safeTransferFrom(from, to, tokenId, \"\") */\n      mload(0x40)\n      dup1\n      0x20\n      add\n      0x40\n      mstore\n      dup1\n      0x00\n      dup2\n      mstore\n      pop\n        /* \"contracts/marketplace.sol\":4830:4846  safeTransferFrom */\n      tag_76\n        /* \"contracts/marketplace.sol\":4830:4869  safeTransferFrom(from, to, tokenId, \"\") */\n      jump\t// in\n    tag_126:\n        /* \"contracts/marketplace.sol\":4692:4877  function safeTransferFrom(\r... */\n      pop\n      pop\n      pop\n      jump\t// out\n        /* \"contracts/marketplace.sol\":2570:2818  function collaboratotOf(uint256 tokenId) public view virtual returns (address) {\r... */\n    tag_50:\n        /* \"contracts/marketplace.sol\":2640:2647  address */\n      0x00\n        /* \"contracts/marketplace.sol\":2660:2680  address collaborator */\n      dup1\n        /* \"contracts/marketplace.sol\":2683:2697  _collaborators */\n      0x03\n        /* \"contracts/marketplace.sol\":2683:2706  _collaborators[tokenId] */\n      0x00\n        /* \"contracts/marketplace.sol\":2698:2705  tokenId */\n      dup5\n        /* \"contracts/marketplace.sol\":2683:2706  _collaborators[tokenId] */\n      dup2\n      mstore\n      0x20\n      add\n      swap1\n      dup2\n      mstore\n      0x20\n      add\n      0x00\n      keccak256\n      0x00\n      swap1\n      sload\n      swap1\n      0x0100\n      exp\n      swap1\n      div\n      0xffffffffffffffffffffffffffffffffffffffff\n      and\n        /* \"contracts/marketplace.sol\":2660:2706  address collaborator = _collaborators[tokenId] */\n      swap1\n      pop\n        /* \"contracts/marketplace.sol\":2749:2750  0 */\n      0x00\n        /* \"contracts/marketplace.sol\":2725:2751  collaborator != address(0) */\n      0xffffffffffffffffffffffffffffffffffffffff\n      and\n        /* \"contracts/marketplace.sol\":2725:2737  collaborator */\n      dup2\n        /* \"contracts/marketplace.sol\":2725:2751  collaborator != address(0) */\n      0xffffffffffffffffffffffffffffffffffffffff\n      and\n      eq\n      iszero\n        /* \"contracts/marketplace.sol\":2717:2780  require(collaborator != address(0), \"ERC721: invalid token ID\") */\n      tag_128\n      jumpi\n      mload(0x40)\n      0x08c379a000000000000000000000000000000000000000000000000000000000\n      dup2\n      mstore\n      0x04\n      add\n      tag_129\n      swap1\n      tag_130\n      jump\t// in\n    tag_129:\n      mload(0x40)\n      dup1\n      swap2\n      sub\n      swap1\n      revert\n    tag_128:\n        /* \"contracts/marketplace.sol\":2798:2810  collaborator */\n      dup1\n        /* \"contracts/marketplace.sol\":2791:2810  return collaborator */\n      swap2\n      pop\n      pop\n        /* \"contracts/marketplace.sol\":2570:2818  function collaboratotOf(uint256 tokenId) public view virtual returns (address) {\r... */\n      swap2\n      swap1\n      pop\n      jump\t// out\n        /* \"contracts/marketplace.sol\":2339:2561  function ownerOf(uint256 tokenId) public view virtual override returns (address) {\r... */\n    tag_54:\n        /* \"contracts/marketplace.sol\":2411:2418  address */\n      0x00\n        /* \"contracts/marketplace.sol\":2431:2444  address owner */\n      dup1\n        /* \"contracts/marketplace.sol\":2447:2454  _owners */\n      0x02\n        /* \"contracts/marketplace.sol\":2447:2463  _owners[tokenId] */\n      0x00\n        /* \"contracts/marketplace.sol\":2455:2462  tokenId */\n      dup5\n        /* \"contracts/marketplace.sol\":2447:2463  _owners[tokenId] */\n      dup2\n      mstore\n      0x20\n      add\n      swap1\n      dup2\n      mstore\n      0x20\n      add\n      0x00\n      keccak256\n      0x00\n      swap1\n      sload\n      swap1\n      0x0100\n      exp\n      swap1\n      div\n      0xffffffffffffffffffffffffffffffffffffffff\n      and\n        /* \"contracts/marketplace.sol\":2431:2463  address owner = _owners[tokenId] */\n      swap1\n      pop\n        /* \"contracts/marketplace.sol\":2499:2500  0 */\n      0x00\n        /* \"contracts/marketplace.sol\":2482:2501  owner != address(0) */\n      0xffffffffffffffffffffffffffffffffffffffff\n      and\n        /* \"contracts/marketplace.sol\":2482:2487  owner */\n      dup2\n        /* \"contracts/marketplace.sol\":2482:2501  owner != address(0) */\n      0xffffffffffffffffffffffffffffffffffffffff\n      and\n      eq\n      iszero\n        /* \"contracts/marketplace.sol\":2474:2530  require(owner != address(0), \"ERC721: invalid token ID\") */\n      tag_132\n      jumpi\n      mload(0x40)\n      0x08c379a000000000000000000000000000000000000000000000000000000000\n      dup2\n      mstore\n      0x04\n      add\n      tag_133\n      swap1\n      tag_130\n      jump\t// in\n    tag_133:\n      mload(0x40)\n      dup1\n      swap2\n      sub\n      swap1\n      revert\n    tag_132:\n        /* \"contracts/marketplace.sol\":2548:2553  owner */\n      dup1\n        /* \"contracts/marketplace.sol\":2541:2553  return owner */\n      swap2\n      pop\n      pop\n        /* \"contracts/marketplace.sol\":2339:2561  function ownerOf(uint256 tokenId) public view virtual override returns (address) {\r... */\n      swap2\n      swap1\n      pop\n      jump\t// out\n        /* \"contracts/marketplace.sol\":2122:2329  function balanceOf(address owner) public view virtual override returns (uint256) {\r... */\n    tag_59:\n        /* \"contracts/marketplace.sol\":2194:2201  uint256 */\n      0x00\n        /* \"contracts/marketplace.sol\":2239:2240  0 */\n      dup1\n        /* \"contracts/marketplace.sol\":2222:2241  owner != address(0) */\n      0xffffffffffffffffffffffffffffffffffffffff\n      and\n        /* \"contracts/marketplace.sol\":2222:2227  owner */\n      dup3\n        /* \"contracts/marketplace.sol\":2222:2241  owner != address(0) */\n      0xffffffffffffffffffffffffffffffffffffffff\n      and\n      eq\n      iszero\n        /* \"contracts/marketplace.sol\":2214:2287  require(owner != address(0), \"ERC721: address zero is not a valid owner\") */\n      tag_135\n      jumpi\n      mload(0x40)\n      0x08c379a000000000000000000000000000000000000000000000000000000000\n      dup2\n      mstore\n      0x04\n      add\n      tag_136\n      swap1\n      tag_137\n      jump\t// in\n    tag_136:\n      mload(0x40)\n      dup1\n      swap2\n      sub\n      swap1\n      revert\n    tag_135:\n        /* \"contracts/marketplace.sol\":2305:2314  _balances */\n      0x04\n        /* \"contracts/marketplace.sol\":2305:2321  _balances[owner] */\n      0x00\n        /* \"contracts/marketplace.sol\":2315:2320  owner */\n      dup4\n        /* \"contracts/marketplace.sol\":2305:2321  _balances[owner] */\n      0xffffffffffffffffffffffffffffffffffffffff\n      and\n      0xffffffffffffffffffffffffffffffffffffffff\n      and\n      dup2\n      mstore\n      0x20\n      add\n      swap1\n      dup2\n      mstore\n      0x20\n      add\n      0x00\n      keccak256\n      sload\n        /* \"contracts/marketplace.sol\":2298:2321  return _balances[owner] */\n      swap1\n      pop\n        /* \"contracts/marketplace.sol\":2122:2329  function balanceOf(address owner) public view virtual override returns (uint256) {\r... */\n      swap2\n      swap1\n      pop\n      jump\t// out\n        /* \"contracts/marketplace.sol\":2939:3043  function symbol() public view virtual override returns (string memory) {\r... */\n    tag_63:\n        /* \"contracts/marketplace.sol\":2995:3008  string memory */\n      0x60\n        /* \"contracts/marketplace.sol\":3028:3035  _symbol */\n      0x01\n        /* \"contracts/marketplace.sol\":3021:3035  return _symbol */\n      dup1\n      sload\n      tag_139\n      swap1\n      tag_93\n      jump\t// in\n    tag_139:\n      dup1\n      0x1f\n      add\n      0x20\n      dup1\n      swap2\n      div\n      mul\n      0x20\n      add\n      mload(0x40)\n      swap1\n      dup2\n      add\n      0x40\n      mstore\n      dup1\n      swap3\n      swap2\n      swap1\n      dup2\n      dup2\n      mstore\n      0x20\n      add\n      dup3\n      dup1\n      sload\n      tag_140\n      swap1\n      tag_93\n      jump\t// in\n    tag_140:\n      dup1\n      iszero\n      tag_141\n      jumpi\n      dup1\n      0x1f\n      lt\n      tag_142\n      jumpi\n      0x0100\n      dup1\n      dup4\n      sload\n      div\n      mul\n      dup4\n      mstore\n      swap2\n      0x20\n      add\n      swap2\n      jump(tag_141)\n    tag_142:\n      dup3\n      add\n      swap2\n      swap1\n      0x00\n      mstore\n      keccak256(0x00, 0x20)\n      swap1\n    tag_143:\n      dup2\n      sload\n      dup2\n      mstore\n      swap1\n      0x01\n      add\n      swap1\n      0x20\n      add\n      dup1\n      dup4\n      gt\n      tag_143\n      jumpi\n      dup3\n      swap1\n      sub\n      0x1f\n      and\n      dup3\n      add\n      swap2\n    tag_141:\n      pop\n      pop\n      pop\n      pop\n      pop\n      swap1\n      pop\n        /* \"contracts/marketplace.sol\":2939:3043  function symbol() public view virtual override returns (string memory) {\r... */\n      swap1\n      jump\t// out\n        /* \"contracts/marketplace.sol\":4061:4216  function setApprovalForAll(address operator, bool approved) public virtual override {\r... */\n    tag_68:\n        /* \"contracts/marketplace.sol\":4156:4208  _setApprovalForAll(_msgSender(), operator, approved) */\n      tag_145\n        /* \"contracts/marketplace.sol\":4175:4187  _msgSender() */\n      tag_146\n        /* \"contracts/marketplace.sol\":4175:4185  _msgSender */\n      tag_107\n        /* \"contracts/marketplace.sol\":4175:4187  _msgSender() */\n      jump\t// in\n    tag_146:\n        /* \"contracts/marketplace.sol\":4189:4197  operator */\n      dup4\n        /* \"contracts/marketplace.sol\":4199:4207  approved */\n      dup4\n        /* \"contracts/marketplace.sol\":4156:4174  _setApprovalForAll */\n      tag_147\n        /* \"contracts/marketplace.sol\":4156:4208  _setApprovalForAll(_msgSender(), operator, approved) */\n      jump\t// in\n    tag_145:\n        /* \"contracts/marketplace.sol\":4061:4216  function setApprovalForAll(address operator, bool approved) public virtual override {\r... */\n      pop\n      pop\n      jump\t// out\n        /* \"contracts/marketplace.sol\":5218:5395  function mint(address to,address collaborator,uint tokenId,string memory uri) public{\r... */\n    tag_72:\n        /* \"contracts/marketplace.sol\":5315:5350  _safeMint(to, collaborator,tokenId) */\n      tag_149\n        /* \"contracts/marketplace.sol\":5325:5327  to */\n      dup5\n        /* \"contracts/marketplace.sol\":5329:5341  collaborator */\n      dup5\n        /* \"contracts/marketplace.sol\":5342:5349  tokenId */\n      dup5\n        /* \"contracts/marketplace.sol\":5315:5324  _safeMint */\n      tag_150\n        /* \"contracts/marketplace.sol\":5315:5350  _safeMint(to, collaborator,tokenId) */\n      jump\t// in\n    tag_149:\n        /* \"contracts/marketplace.sol\":5361:5387  _setTokenURI(tokenId, uri) */\n      tag_151\n        /* \"contracts/marketplace.sol\":5374:5381  tokenId */\n      dup3\n        /* \"contracts/marketplace.sol\":5383:5386  uri */\n      dup3\n        /* \"contracts/marketplace.sol\":5361:5373  _setTokenURI */\n      tag_152\n        /* \"contracts/marketplace.sol\":5361:5387  _setTokenURI(tokenId, uri) */\n      jump\t// in\n    tag_151:\n        /* \"contracts/marketplace.sol\":5218:5395  function mint(address to,address collaborator,uint tokenId,string memory uri) public{\r... */\n      pop\n      pop\n      pop\n      pop\n      jump\t// out\n        /* \"contracts/marketplace.sol\":4887:5209  function safeTransferFrom(\r... */\n    tag_76:\n        /* \"contracts/marketplace.sol\":5061:5102  _isApprovedOrOwner(_msgSender(), tokenId) */\n      tag_154\n        /* \"contracts/marketplace.sol\":5080:5092  _msgSender() */\n      tag_155\n        /* \"contracts/marketplace.sol\":5080:5090  _msgSender */\n      tag_107\n        /* \"contracts/marketplace.sol\":5080:5092  _msgSender() */\n      jump\t// in\n    tag_155:\n        /* \"contracts/marketplace.sol\":5094:5101  tokenId */\n      dup4\n        /* \"contracts/marketplace.sol\":5061:5079  _isApprovedOrOwner */\n      tag_119\n        /* \"contracts/marketplace.sol\":5061:5102  _isApprovedOrOwner(_msgSender(), tokenId) */\n      jump\t// in\n    tag_154:\n        /* \"contracts/marketplace.sol\":5053:5152  require(_isApprovedOrOwner(_msgSender(), tokenId), \"ERC721: caller is not token owner or approved\") */\n      tag_156\n      jumpi\n      mload(0x40)\n      0x08c379a000000000000000000000000000000000000000000000000000000000\n      dup2\n      mstore\n      0x04\n      add\n      tag_157\n      swap1\n      tag_122\n      jump\t// in\n    tag_157:\n      mload(0x40)\n      dup1\n      swap2\n      sub\n      swap1\n      revert\n    tag_156:\n        /* \"contracts/marketplace.sol\":5163:5201  _safeTransfer(from, to, tokenId, data) */\n      tag_158\n        /* \"contracts/marketplace.sol\":5177:5181  from */\n      dup5\n        /* \"contracts/marketplace.sol\":5183:5185  to */\n      dup5\n        /* \"contracts/marketplace.sol\":5187:5194  tokenId */\n      dup5\n        /* \"contracts/marketplace.sol\":5196:5200  data */\n      dup5\n        /* \"contracts/marketplace.sol\":5163:5176  _safeTransfer */\n      tag_159\n        /* \"contracts/marketplace.sol\":5163:5201  _safeTransfer(from, to, tokenId, data) */\n      jump\t// in\n    tag_158:\n        /* \"contracts/marketplace.sol\":4887:5209  function safeTransferFrom(\r... */\n      pop\n      pop\n      pop\n      pop\n      jump\t// out\n        /* \"contracts/marketplace.sol\":3051:3332  function tokenURI(uint256 tokenId) public view virtual override returns (string memory) {\r... */\n    tag_79:\n        /* \"contracts/marketplace.sol\":3124:3137  string memory */\n      0x60\n        /* \"contracts/marketplace.sol\":3150:3173  _requireMinted(tokenId) */\n      tag_161\n        /* \"contracts/marketplace.sol\":3165:3172  tokenId */\n      dup3\n        /* \"contracts/marketplace.sol\":3150:3164  _requireMinted */\n      tag_100\n        /* \"contracts/marketplace.sol\":3150:3173  _requireMinted(tokenId) */\n      jump\t// in\n    tag_161:\n        /* \"contracts/marketplace.sol\":3186:3207  string memory baseURI */\n      0x00\n        /* \"contracts/marketplace.sol\":3210:3220  _baseURI() */\n      tag_162\n        /* \"contracts/marketplace.sol\":3210:3218  _baseURI */\n      tag_163\n        /* \"contracts/marketplace.sol\":3210:3220  _baseURI() */\n      jump\t// in\n    tag_162:\n        /* \"contracts/marketplace.sol\":3186:3220  string memory baseURI = _baseURI() */\n      swap1\n      pop\n        /* \"contracts/marketplace.sol\":3262:3263  0 */\n      0x00\n        /* \"contracts/marketplace.sol\":3244:3251  baseURI */\n      dup2\n        /* \"contracts/marketplace.sol\":3238:3259  bytes(baseURI).length */\n      mload\n        /* \"contracts/marketplace.sol\":3238:3263  bytes(baseURI).length > 0 */\n      gt\n        /* \"contracts/marketplace.sol\":3238:3324  bytes(baseURI).length > 0 ? string(abi.encodePacked(baseURI, tokenId.toString())) : \"\" */\n      tag_164\n      jumpi\n      mload(0x40)\n      dup1\n      0x20\n      add\n      0x40\n      mstore\n      dup1\n      0x00\n      dup2\n      mstore\n      pop\n      jump(tag_165)\n    tag_164:\n        /* \"contracts/marketplace.sol\":3290:3297  baseURI */\n      dup1\n        /* \"contracts/marketplace.sol\":3299:3317  tokenId.toString() */\n      tag_166\n        /* \"contracts/marketplace.sol\":3299:3306  tokenId */\n      dup5\n        /* \"contracts/marketplace.sol\":3299:3315  tokenId.toString */\n      tag_167\n        /* \"contracts/marketplace.sol\":3299:3317  tokenId.toString() */\n      jump\t// in\n    tag_166:\n        /* \"contracts/marketplace.sol\":3273:3318  abi.encodePacked(baseURI, tokenId.toString()) */\n      add(0x20, mload(0x40))\n      tag_168\n      swap3\n      swap2\n      swap1\n      tag_169\n      jump\t// in\n    tag_168:\n      mload(0x40)\n      0x20\n      dup2\n      dup4\n      sub\n      sub\n      dup2\n      mstore\n      swap1\n      0x40\n      mstore\n        /* \"contracts/marketplace.sol\":3238:3324  bytes(baseURI).length > 0 ? string(abi.encodePacked(baseURI, tokenId.toString())) : \"\" */\n    tag_165:\n        /* \"contracts/marketplace.sol\":3231:3324  return bytes(baseURI).length > 0 ? string(abi.encodePacked(baseURI, tokenId.toString())) : \"\" */\n      swap2\n      pop\n      pop\n        /* \"contracts/marketplace.sol\":3051:3332  function tokenURI(uint256 tokenId) public view virtual override returns (string memory) {\r... */\n      swap2\n      swap1\n      pop\n      jump\t// out\n        /* \"contracts/marketplace.sol\":4226:4390  function isApprovedForAll(address owner, address operator) public view virtual override returns (bool) {\r... */\n    tag_84:\n        /* \"contracts/marketplace.sol\":4323:4327  bool */\n      0x00\n        /* \"contracts/marketplace.sol\":4347:4365  _operatorApprovals */\n      0x06\n        /* \"contracts/marketplace.sol\":4347:4372  _operatorApprovals[owner] */\n      0x00\n        /* \"contracts/marketplace.sol\":4366:4371  owner */\n      dup5\n        /* \"contracts/marketplace.sol\":4347:4372  _operatorApprovals[owner] */\n      0xffffffffffffffffffffffffffffffffffffffff\n      and\n      0xffffffffffffffffffffffffffffffffffffffff\n      and\n      dup2\n      mstore\n      0x20\n      add\n      swap1\n      dup2\n      mstore\n      0x20\n      add\n      0x00\n      keccak256\n        /* \"contracts/marketplace.sol\":4347:4382  _operatorApprovals[owner][operator] */\n      0x00\n        /* \"contracts/marketplace.sol\":4373:4381  operator */\n      dup4\n        /* \"contracts/marketplace.sol\":4347:4382  _operatorApprovals[owner][operator] */\n      0xffffffffffffffffffffffffffffffffffffffff\n      and\n      0xffffffffffffffffffffffffffffffffffffffff\n      and\n      dup2\n      mstore\n      0x20\n      add\n      swap1\n      dup2\n      mstore\n      0x20\n      add\n      0x00\n      keccak256\n      0x00\n      swap1\n      sload\n      swap1\n      0x0100\n      exp\n      swap1\n      div\n      0xff\n      and\n        /* \"contracts/marketplace.sol\":4340:4382  return _operatorApprovals[owner][operator] */\n      swap1\n      pop\n        /* \"contracts/marketplace.sol\":4226:4390  function isApprovedForAll(address owner, address operator) public view virtual override returns (bool) {\r... */\n      swap3\n      swap2\n      pop\n      pop\n      jump\t// out\n        /* \"@openzeppelin/contracts@4.6.0/utils/introspection/ERC165.sol\":829:984  function supportsInterface(bytes4 interfaceId) public view virtual override returns (bool) {... */\n    tag_90:\n        /* \"@openzeppelin/contracts@4.6.0/utils/introspection/ERC165.sol\":914:918  bool */\n      0x00\n        /* \"@openzeppelin/contracts@4.6.0/utils/introspection/ERC165.sol\":952:977  type(IERC165).interfaceId */\n      0x01ffc9a700000000000000000000000000000000000000000000000000000000\n        /* \"@openzeppelin/contracts@4.6.0/utils/introspection/ERC165.sol\":937:977  interfaceId == type(IERC165).interfaceId */\n      not(0xffffffffffffffffffffffffffffffffffffffffffffffffffffffff)\n      and\n        /* \"@openzeppelin/contracts@4.6.0/utils/introspection/ERC165.sol\":937:948  interfaceId */\n      dup3\n        /* \"@openzeppelin/contracts@4.6.0/utils/introspection/ERC165.sol\":937:977  interfaceId == type(IERC165).interfaceId */\n      not(0xffffffffffffffffffffffffffffffffffffffffffffffffffffffff)\n      and\n      eq\n        /* \"@openzeppelin/contracts@4.6.0/utils/introspection/ERC165.sol\":930:977  return interfaceId == type(IERC165).interfaceId */\n      swap1\n      pop\n        /* \"@openzeppelin/contracts@4.6.0/utils/introspection/ERC165.sol\":829:984  function supportsInterface(bytes4 interfaceId) public view virtual override returns (bool) {... */\n      swap2\n      swap1\n      pop\n      jump\t// out\n        /* \"contracts/marketplace.sol\":9386:9521  function _requireMinted(uint256 tokenId) internal view virtual {\r... */\n    tag_100:\n        /* \"contracts/marketplace.sol\":9468:9484  _exists(tokenId) */\n      tag_173\n        /* \"contracts/marketplace.sol\":9476:9483  tokenId */\n      dup2\n        /* \"contracts/marketplace.sol\":9468:9475  _exists */\n      tag_174\n        /* \"contracts/marketplace.sol\":9468:9484  _exists(tokenId) */\n      jump\t// in\n    tag_173:\n        /* \"contracts/marketplace.sol\":9460:9513  require(_exists(tokenId), \"ERC721: invalid token ID\") */\n      tag_175\n      jumpi\n      mload(0x40)\n      0x08c379a000000000000000000000000000000000000000000000000000000000\n      dup2\n      mstore\n      0x04\n      add\n      tag_176\n      swap1\n      tag_130\n      jump\t// in\n    tag_176:\n      mload(0x40)\n      dup1\n      swap2\n      sub\n      swap1\n      revert\n    tag_175:\n        /* \"contracts/marketplace.sol\":9386:9521  function _requireMinted(uint256 tokenId) internal view virtual {\r... */\n      pop\n      jump\t// out\n        /* \"@openzeppelin/contracts@4.6.0/utils/Context.sol\":640:736  function _msgSender() internal view virtual returns (address) {... */\n    tag_107:\n        /* \"@openzeppelin/contracts@4.6.0/utils/Context.sol\":693:700  address */\n      0x00\n        /* \"@openzeppelin/contracts@4.6.0/utils/Context.sol\":719:729  msg.sender */\n      caller\n        /* \"@openzeppelin/contracts@4.6.0/utils/Context.sol\":712:729  return msg.sender */\n      swap1\n      pop\n        /* \"@openzeppelin/contracts@4.6.0/utils/Context.sol\":640:736  function _msgSender() internal view virtual returns (address) {... */\n      swap1\n      jump\t// out\n        /* \"contracts/marketplace.sol\":8876:9055  function _approve(address to, uint256 tokenId) internal virtual {\r... */\n    tag_115:\n        /* \"contracts/marketplace.sol\":8978:8980  to */\n      dup2\n        /* \"contracts/marketplace.sol\":8951:8966  _tokenApprovals */\n      0x05\n        /* \"contracts/marketplace.sol\":8951:8975  _tokenApprovals[tokenId] */\n      0x00\n        /* \"contracts/marketplace.sol\":8967:8974  tokenId */\n      dup4\n        /* \"contracts/marketplace.sol\":8951:8975  _tokenApprovals[tokenId] */\n      dup2\n      mstore\n      0x20\n      add\n      swap1\n      dup2\n      mstore\n      0x20\n      add\n      0x00\n      keccak256\n      0x00\n        /* \"contracts/marketplace.sol\":8951:8980  _tokenApprovals[tokenId] = to */\n      0x0100\n      exp\n      dup2\n      sload\n      dup2\n      0xffffffffffffffffffffffffffffffffffffffff\n      mul\n      not\n      and\n      swap1\n      dup4\n      0xffffffffffffffffffffffffffffffffffffffff\n      and\n      mul\n      or\n      swap1\n      sstore\n      pop\n        /* \"contracts/marketplace.sol\":9039:9046  tokenId */\n      dup1\n        /* \"contracts/marketplace.sol\":9035:9037  to */\n      dup3\n        /* \"contracts/marketplace.sol\":8996:9047  Approval(marketplace.ownerOf(tokenId), to, tokenId) */\n      0xffffffffffffffffffffffffffffffffffffffff\n      and\n        /* \"contracts/marketplace.sol\":9005:9033  marketplace.ownerOf(tokenId) */\n      tag_179\n        /* \"contracts/marketplace.sol\":9025:9032  tokenId */\n      dup4\n        /* \"contracts/marketplace.sol\":9005:9024  marketplace.ownerOf */\n      tag_54\n        /* \"contracts/marketplace.sol\":9005:9033  marketplace.ownerOf(tokenId) */\n      jump\t// in\n    tag_179:\n        /* \"contracts/marketplace.sol\":8996:9047  Approval(marketplace.ownerOf(tokenId), to, tokenId) */\n      0xffffffffffffffffffffffffffffffffffffffff\n      and\n      0x8c5be1e5ebec7d5bd14f71427d1e84f3dd0314c0f7b2291e5b200ac8c7c3b925\n      mload(0x40)\n      mload(0x40)\n      dup1\n      swap2\n      sub\n      swap1\n      log4\n        /* \"contracts/marketplace.sol\":8876:9055  function _approve(address to, uint256 tokenId) internal virtual {\r... */\n      pop\n      pop\n      jump\t// out\n        /* \"contracts/marketplace.sol\":5861:6130  function _isApprovedOrOwner(address spender, uint256 tokenId) internal view virtual returns (bool) {\r... */\n    tag_119:\n        /* \"contracts/marketplace.sol\":5954:5958  bool */\n      0x00\n        /* \"contracts/marketplace.sol\":5971:5984  address owner */\n      dup1\n        /* \"contracts/marketplace.sol\":5987:6015  marketplace.ownerOf(tokenId) */\n      tag_181\n        /* \"contracts/marketplace.sol\":6007:6014  tokenId */\n      dup4\n        /* \"contracts/marketplace.sol\":5987:6006  marketplace.ownerOf */\n      tag_54\n        /* \"contracts/marketplace.sol\":5987:6015  marketplace.ownerOf(tokenId) */\n      jump\t// in\n    tag_181:\n        /* \"contracts/marketplace.sol\":5971:6015  address owner = marketplace.ownerOf(tokenId) */\n      swap1\n      pop\n        /* \"contracts/marketplace.sol\":6045:6050  owner */\n      dup1\n        /* \"contracts/marketplace.sol\":6034:6050  spender == owner */\n      0xffffffffffffffffffffffffffffffffffffffff\n      and\n        /* \"contracts/marketplace.sol\":6034:6041  spender */\n      dup5\n        /* \"contracts/marketplace.sol\":6034:6050  spender == owner */\n      0xffffffffffffffffffffffffffffffffffffffff\n      and\n      eq\n        /* \"contracts/marketplace.sol\":6034:6086  spender == owner || isApprovedForAll(owner, spender) */\n      dup1\n      tag_182\n      jumpi\n      pop\n        /* \"contracts/marketplace.sol\":6054:6086  isApprovedForAll(owner, spender) */\n      tag_183\n        /* \"contracts/marketplace.sol\":6071:6076  owner */\n      dup2\n        /* \"contracts/marketplace.sol\":6078:6085  spender */\n      dup6\n        /* \"contracts/marketplace.sol\":6054:6070  isApprovedForAll */\n      tag_84\n        /* \"contracts/marketplace.sol\":6054:6086  isApprovedForAll(owner, spender) */\n      jump\t// in\n    tag_183:\n        /* \"contracts/marketplace.sol\":6034:6086  spender == owner || isApprovedForAll(owner, spender) */\n    tag_182:\n        /* \"contracts/marketplace.sol\":6034:6121  spender == owner || isApprovedForAll(owner, spender) || getApproved(tokenId) == spender */\n      dup1\n      tag_184\n      jumpi\n      pop\n        /* \"contracts/marketplace.sol\":6114:6121  spender */\n      dup4\n        /* \"contracts/marketplace.sol\":6090:6121  getApproved(tokenId) == spender */\n      0xffffffffffffffffffffffffffffffffffffffff\n      and\n        /* \"contracts/marketplace.sol\":6090:6110  getApproved(tokenId) */\n      tag_185\n        /* \"contracts/marketplace.sol\":6102:6109  tokenId */\n      dup5\n        /* \"contracts/marketplace.sol\":6090:6101  getApproved */\n      tag_34\n        /* \"contracts/marketplace.sol\":6090:6110  getApproved(tokenId) */\n      jump\t// in\n    tag_185:\n        /* \"contracts/marketplace.sol\":6090:6121  getApproved(tokenId) == spender */\n      0xffffffffffffffffffffffffffffffffffffffff\n      and\n      eq\n        /* \"contracts/marketplace.sol\":6034:6121  spender == owner || isApprovedForAll(owner, spender) || getApproved(tokenId) == spender */\n    tag_184:\n        /* \"contracts/marketplace.sol\":6026:6122  return (spender == owner || isApprovedForAll(owner, spender) || getApproved(tokenId) == spender) */\n      swap2\n      pop\n      pop\n        /* \"contracts/marketplace.sol\":5861:6130  function _isApprovedOrOwner(address spender, uint256 tokenId) internal view virtual returns (bool) {\r... */\n      swap3\n      swap2\n      pop\n      pop\n      jump\t// out\n        /* \"contracts/marketplace.sol\":8093:8866  function _transfer(\r... */\n    tag_124:\n        /* \"contracts/marketplace.sol\":8257:8261  from */\n      dup3\n        /* \"contracts/marketplace.sol\":8225:8261  marketplace.ownerOf(tokenId) == from */\n      0xffffffffffffffffffffffffffffffffffffffff\n      and\n        /* \"contracts/marketplace.sol\":8225:8253  marketplace.ownerOf(tokenId) */\n      tag_187\n        /* \"contracts/marketplace.sol\":8245:8252  tokenId */\n      dup3\n        /* \"contracts/marketplace.sol\":8225:8244  marketplace.ownerOf */\n      tag_54\n        /* \"contracts/marketplace.sol\":8225:8253  marketplace.ownerOf(tokenId) */\n      jump\t// in\n    tag_187:\n        /* \"contracts/marketplace.sol\":8225:8261  marketplace.ownerOf(tokenId) == from */\n      0xffffffffffffffffffffffffffffffffffffffff\n      and\n      eq\n        /* \"contracts/marketplace.sol\":8217:8303  require(marketplace.ownerOf(tokenId) == from, \"ERC721: transfer from incorrect owner\") */\n      tag_188\n      jumpi\n      mload(0x40)\n      0x08c379a000000000000000000000000000000000000000000000000000000000\n      dup2\n      mstore\n      0x04\n      add\n      tag_189\n      swap1\n      tag_190\n      jump\t// in\n    tag_189:\n      mload(0x40)\n      dup1\n      swap2\n      sub\n      swap1\n      revert\n    tag_188:\n        /* \"contracts/marketplace.sol\":8336:8337  0 */\n      0x00\n        /* \"contracts/marketplace.sol\":8322:8338  to != address(0) */\n      0xffffffffffffffffffffffffffffffffffffffff\n      and\n        /* \"contracts/marketplace.sol\":8322:8324  to */\n      dup3\n        /* \"contracts/marketplace.sol\":8322:8338  to != address(0) */\n      0xffffffffffffffffffffffffffffffffffffffff\n      and\n      eq\n      iszero\n        /* \"contracts/marketplace.sol\":8314:8379  require(to != address(0), \"ERC721: transfer to the zero address\") */\n      tag_191\n      jumpi\n      mload(0x40)\n      0x08c379a000000000000000000000000000000000000000000000000000000000\n      dup2\n      mstore\n      0x04\n      add\n      tag_192\n      swap1\n      tag_193\n      jump\t// in\n    tag_192:\n      mload(0x40)\n      dup1\n      swap2\n      sub\n      swap1\n      revert\n    tag_191:\n        /* \"contracts/marketplace.sol\":8392:8431  _beforeTokenTransfer(from, to, tokenId) */\n      tag_194\n        /* \"contracts/marketplace.sol\":8413:8417  from */\n      dup4\n        /* \"contracts/marketplace.sol\":8419:8421  to */\n      dup4\n        /* \"contracts/marketplace.sol\":8423:8430  tokenId */\n      dup4\n        /* \"contracts/marketplace.sol\":8392:8412  _beforeTokenTransfer */\n      tag_195\n        /* \"contracts/marketplace.sol\":8392:8431  _beforeTokenTransfer(from, to, tokenId) */\n      jump\t// in\n    tag_194:\n        /* \"contracts/marketplace.sol\":8484:8488  from */\n      dup3\n        /* \"contracts/marketplace.sol\":8452:8488  marketplace.ownerOf(tokenId) == from */\n      0xffffffffffffffffffffffffffffffffffffffff\n      and\n        /* \"contracts/marketplace.sol\":8452:8480  marketplace.ownerOf(tokenId) */\n      tag_196\n        /* \"contracts/marketplace.sol\":8472:8479  tokenId */\n      dup3\n        /* \"contracts/marketplace.sol\":8452:8471  marketplace.ownerOf */\n      tag_54\n        /* \"contracts/marketplace.sol\":8452:8480  marketplace.ownerOf(tokenId) */\n      jump\t// in\n    tag_196:\n        /* \"contracts/marketplace.sol\":8452:8488  marketplace.ownerOf(tokenId) == from */\n      0xffffffffffffffffffffffffffffffffffffffff\n      and\n      eq\n        /* \"contracts/marketplace.sol\":8444:8530  require(marketplace.ownerOf(tokenId) == from, \"ERC721: transfer from incorrect owner\") */\n      tag_197\n      jumpi\n      mload(0x40)\n      0x08c379a000000000000000000000000000000000000000000000000000000000\n      dup2\n      mstore\n      0x04\n      add\n      tag_198\n      swap1\n      tag_190\n      jump\t// in\n    tag_198:\n      mload(0x40)\n      dup1\n      swap2\n      sub\n      swap1\n      revert\n    tag_197:\n        /* \"contracts/marketplace.sol\":8602:8617  _tokenApprovals */\n      0x05\n        /* \"contracts/marketplace.sol\":8602:8626  _tokenApprovals[tokenId] */\n      0x00\n        /* \"contracts/marketplace.sol\":8618:8625  tokenId */\n      dup3\n        /* \"contracts/marketplace.sol\":8602:8626  _tokenApprovals[tokenId] */\n      dup2\n      mstore\n      0x20\n      add\n      swap1\n      dup2\n      mstore\n      0x20\n      add\n      0x00\n      keccak256\n      0x00\n        /* \"contracts/marketplace.sol\":8595:8626  delete _tokenApprovals[tokenId] */\n      0x0100\n      exp\n      dup2\n      sload\n      swap1\n      0xffffffffffffffffffffffffffffffffffffffff\n      mul\n      not\n      and\n      swap1\n      sstore\n        /* \"contracts/marketplace.sol\":8685:8686  1 */\n      0x01\n        /* \"contracts/marketplace.sol\":8666:8675  _balances */\n      0x04\n        /* \"contracts/marketplace.sol\":8666:8681  _balances[from] */\n      0x00\n        /* \"contracts/marketplace.sol\":8676:8680  from */\n      dup6\n        /* \"contracts/marketplace.sol\":8666:8681  _balances[from] */\n      0xffffffffffffffffffffffffffffffffffffffff\n      and\n      0xffffffffffffffffffffffffffffffffffffffff\n      and\n      dup2\n      mstore\n      0x20\n      add\n      swap1\n      dup2\n      mstore\n      0x20\n      add\n      0x00\n      keccak256\n      0x00\n        /* \"contracts/marketplace.sol\":8666:8686  _balances[from] -= 1 */\n      dup3\n      dup3\n      sload\n      sub\n      swap3\n      pop\n      pop\n      dup2\n      swap1\n      sstore\n      pop\n        /* \"contracts/marketplace.sol\":8718:8719  1 */\n      0x01\n        /* \"contracts/marketplace.sol\":8701:8710  _balances */\n      0x04\n        /* \"contracts/marketplace.sol\":8701:8714  _balances[to] */\n      0x00\n        /* \"contracts/marketplace.sol\":8711:8713  to */\n      dup5\n        /* \"contracts/marketplace.sol\":8701:8714  _balances[to] */\n      0xffffffffffffffffffffffffffffffffffffffff\n      and\n      0xffffffffffffffffffffffffffffffffffffffff\n      and\n      dup2\n      mstore\n      0x20\n      add\n      swap1\n      dup2\n      mstore\n      0x20\n      add\n      0x00\n      keccak256\n      0x00\n        /* \"contracts/marketplace.sol\":8701:8719  _balances[to] += 1 */\n      dup3\n      dup3\n      sload\n      add\n      swap3\n      pop\n      pop\n      dup2\n      swap1\n      sstore\n      pop\n        /* \"contracts/marketplace.sol\":8760:8762  to */\n      dup2\n        /* \"contracts/marketplace.sol\":8741:8748  _owners */\n      0x02\n        /* \"contracts/marketplace.sol\":8741:8757  _owners[tokenId] */\n      0x00\n        /* \"contracts/marketplace.sol\":8749:8756  tokenId */\n      dup4\n        /* \"contracts/marketplace.sol\":8741:8757  _owners[tokenId] */\n      dup2\n      mstore\n      0x20\n      add\n      swap1\n      dup2\n      mstore\n      0x20\n      add\n      0x00\n      keccak256\n      0x00\n        /* \"contracts/marketplace.sol\":8741:8762  _owners[tokenId] = to */\n      0x0100\n      exp\n      dup2\n      sload\n      dup2\n      0xffffffffffffffffffffffffffffffffffffffff\n      mul\n      not\n      and\n      swap1\n      dup4\n      0xffffffffffffffffffffffffffffffffffffffff\n      and\n      mul\n      or\n      swap1\n      sstore\n      pop\n        /* \"contracts/marketplace.sol\":8799:8806  tokenId */\n      dup1\n        /* \"contracts/marketplace.sol\":8795:8797  to */\n      dup3\n        /* \"contracts/marketplace.sol\":8780:8807  Transfer(from, to, tokenId) */\n      0xffffffffffffffffffffffffffffffffffffffff\n      and\n        /* \"contracts/marketplace.sol\":8789:8793  from */\n      dup5\n        /* \"contracts/marketplace.sol\":8780:8807  Transfer(from, to, tokenId) */\n      0xffffffffffffffffffffffffffffffffffffffff\n      and\n      0xddf252ad1be2c89b69c2b068fc378daa952ba7f163c4a11628f55a4df523b3ef\n      mload(0x40)\n      mload(0x40)\n      dup1\n      swap2\n      sub\n      swap1\n      log4\n        /* \"contracts/marketplace.sol\":8820:8858  _afterTokenTransfer(from, to, tokenId) */\n      tag_199\n        /* \"contracts/marketplace.sol\":8840:8844  from */\n      dup4\n        /* \"contracts/marketplace.sol\":8846:8848  to */\n      dup4\n        /* \"contracts/marketplace.sol\":8850:8857  tokenId */\n      dup4\n        /* \"contracts/marketplace.sol\":8820:8839  _afterTokenTransfer */\n      tag_200\n        /* \"contracts/marketplace.sol\":8820:8858  _afterTokenTransfer(from, to, tokenId) */\n      jump\t// in\n    tag_199:\n        /* \"contracts/marketplace.sol\":8093:8866  function _transfer(\r... */\n      pop\n      pop\n      pop\n      jump\t// out\n        /* \"contracts/marketplace.sol\":9063:9378  function _setApprovalForAll(\r... */\n    tag_147:\n        /* \"contracts/marketplace.sol\":9218:9226  operator */\n      dup2\n        /* \"contracts/marketplace.sol\":9209:9226  owner != operator */\n      0xffffffffffffffffffffffffffffffffffffffff\n      and\n        /* \"contracts/marketplace.sol\":9209:9214  owner */\n      dup4\n        /* \"contracts/marketplace.sol\":9209:9226  owner != operator */\n      0xffffffffffffffffffffffffffffffffffffffff\n      and\n      eq\n      iszero\n        /* \"contracts/marketplace.sol\":9201:9256  require(owner != operator, \"ERC721: approve to caller\") */\n      tag_202\n      jumpi\n      mload(0x40)\n      0x08c379a000000000000000000000000000000000000000000000000000000000\n      dup2\n      mstore\n      0x04\n      add\n      tag_203\n      swap1\n      tag_204\n      jump\t// in\n    tag_203:\n      mload(0x40)\n      dup1\n      swap2\n      sub\n      swap1\n      revert\n    tag_202:\n        /* \"contracts/marketplace.sol\":9305:9313  approved */\n      dup1\n        /* \"contracts/marketplace.sol\":9267:9285  _operatorApprovals */\n      0x06\n        /* \"contracts/marketplace.sol\":9267:9292  _operatorApprovals[owner] */\n      0x00\n        /* \"contracts/marketplace.sol\":9286:9291  owner */\n      dup6\n        /* \"contracts/marketplace.sol\":9267:9292  _operatorApprovals[owner] */\n      0xffffffffffffffffffffffffffffffffffffffff\n      and\n      0xffffffffffffffffffffffffffffffffffffffff\n      and\n      dup2\n      mstore\n      0x20\n      add\n      swap1\n      dup2\n      mstore\n      0x20\n      add\n      0x00\n      keccak256\n        /* \"contracts/marketplace.sol\":9267:9302  _operatorApprovals[owner][operator] */\n      0x00\n        /* \"contracts/marketplace.sol\":9293:9301  operator */\n      dup5\n        /* \"contracts/marketplace.sol\":9267:9302  _operatorApprovals[owner][operator] */\n      0xffffffffffffffffffffffffffffffffffffffff\n      and\n      0xffffffffffffffffffffffffffffffffffffffff\n      and\n      dup2\n      mstore\n      0x20\n      add\n      swap1\n      dup2\n      mstore\n      0x20\n      add\n      0x00\n      keccak256\n      0x00\n        /* \"contracts/marketplace.sol\":9267:9313  _operatorApprovals[owner][operator] = approved */\n      0x0100\n      exp\n      dup2\n      sload\n      dup2\n      0xff\n      mul\n      not\n      and\n      swap1\n      dup4\n      iszero\n      iszero\n      mul\n      or\n      swap1\n      sstore\n      pop\n        /* \"contracts/marketplace.sol\":9351:9359  operator */\n      dup2\n        /* \"contracts/marketplace.sol\":9329:9370  ApprovalForAll(owner, operator, approved) */\n      0xffffffffffffffffffffffffffffffffffffffff\n      and\n        /* \"contracts/marketplace.sol\":9344:9349  owner */\n      dup4\n        /* \"contracts/marketplace.sol\":9329:9370  ApprovalForAll(owner, operator, approved) */\n      0xffffffffffffffffffffffffffffffffffffffff\n      and\n      0x17307eab39ab6107e8899845ad3d59bd9653f200f220920489ca2b5937696c31\n        /* \"contracts/marketplace.sol\":9361:9369  approved */\n      dup4\n        /* \"contracts/marketplace.sol\":9329:9370  ApprovalForAll(owner, operator, approved) */\n      mload(0x40)\n      tag_205\n      swap2\n      swap1\n      tag_26\n      jump\t// in\n    tag_205:\n      mload(0x40)\n      dup1\n      swap2\n      sub\n      swap1\n      log3\n        /* \"contracts/marketplace.sol\":9063:9378  function _setApprovalForAll(\r... */\n      pop\n      pop\n      pop\n      jump\t// out\n        /* \"contracts/marketplace.sol\":6138:6282  function _safeMint(address to,address collaborator ,uint256 tokenId) internal virtual {\r... */\n    tag_150:\n        /* \"contracts/marketplace.sol\":6235:6274  _safeMint(to, collaborator,tokenId, \"\") */\n      tag_207\n        /* \"contracts/marketplace.sol\":6245:6247  to */\n      dup4\n        /* \"contracts/marketplace.sol\":6249:6261  collaborator */\n      dup4\n        /* \"contracts/marketplace.sol\":6262:6269  tokenId */\n      dup4\n        /* \"contracts/marketplace.sol\":6235:6274  _safeMint(to, collaborator,tokenId, \"\") */\n      mload(0x40)\n      dup1\n      0x20\n      add\n      0x40\n      mstore\n      dup1\n      0x00\n      dup2\n      mstore\n      pop\n        /* \"contracts/marketplace.sol\":6235:6244  _safeMint */\n      tag_208\n        /* \"contracts/marketplace.sol\":6235:6274  _safeMint(to, collaborator,tokenId, \"\") */\n      jump\t// in\n    tag_207:\n        /* \"contracts/marketplace.sol\":6138:6282  function _safeMint(address to,address collaborator ,uint256 tokenId) internal virtual {\r... */\n      pop\n      pop\n      pop\n      jump\t// out\n        /* \"contracts/marketplace.sol\":7866:8083  function _setTokenURI(uint256 tokenId, string memory _tokenURI) internal virtual {\r... */\n    tag_152:\n        /* \"contracts/marketplace.sol\":7966:7982  _exists(tokenId) */\n      tag_210\n        /* \"contracts/marketplace.sol\":7974:7981  tokenId */\n      dup3\n        /* \"contracts/marketplace.sol\":7966:7973  _exists */\n      tag_174\n        /* \"contracts/marketplace.sol\":7966:7982  _exists(tokenId) */\n      jump\t// in\n    tag_210:\n        /* \"contracts/marketplace.sol\":7958:8033  require(_exists(tokenId), \"ERC721URIStorage: URI set of nonexistent token\") */\n      tag_211\n      jumpi\n      mload(0x40)\n      0x08c379a000000000000000000000000000000000000000000000000000000000\n      dup2\n      mstore\n      0x04\n      add\n      tag_212\n      swap1\n      tag_213\n      jump\t// in\n    tag_212:\n      mload(0x40)\n      dup1\n      swap2\n      sub\n      swap1\n      revert\n    tag_211:\n        /* \"contracts/marketplace.sol\":8066:8075  _tokenURI */\n      dup1\n        /* \"contracts/marketplace.sol\":8044:8054  _tokenURIs */\n      0x07\n        /* \"contracts/marketplace.sol\":8044:8063  _tokenURIs[tokenId] */\n      0x00\n        /* \"contracts/marketplace.sol\":8055:8062  tokenId */\n      dup5\n        /* \"contracts/marketplace.sol\":8044:8063  _tokenURIs[tokenId] */\n      dup2\n      mstore\n      0x20\n      add\n      swap1\n      dup2\n      mstore\n      0x20\n      add\n      0x00\n      keccak256\n        /* \"contracts/marketplace.sol\":8044:8075  _tokenURIs[tokenId] = _tokenURI */\n      swap1\n      dup1\n      mload\n      swap1\n      0x20\n      add\n      swap1\n      tag_214\n      swap3\n      swap2\n      swap1\n      tag_215\n      jump\t// in\n    tag_214:\n      pop\n        /* \"contracts/marketplace.sol\":7866:8083  function _setTokenURI(uint256 tokenId, string memory _tokenURI) internal virtual {\r... */\n      pop\n      pop\n      jump\t// out\n        /* \"contracts/marketplace.sol\":5403:5716  function _safeTransfer(\r... */\n    tag_159:\n        /* \"contracts/marketplace.sol\":5559:5587  _transfer(from, to, tokenId) */\n      tag_217\n        /* \"contracts/marketplace.sol\":5569:5573  from */\n      dup5\n        /* \"contracts/marketplace.sol\":5575:5577  to */\n      dup5\n        /* \"contracts/marketplace.sol\":5579:5586  tokenId */\n      dup5\n        /* \"contracts/marketplace.sol\":5559:5568  _transfer */\n      tag_124\n        /* \"contracts/marketplace.sol\":5559:5587  _transfer(from, to, tokenId) */\n      jump\t// in\n    tag_217:\n        /* \"contracts/marketplace.sol\":5606:5653  _checkOnERC721Received(from, to, tokenId, data) */\n      tag_218\n        /* \"contracts/marketplace.sol\":5629:5633  from */\n      dup5\n        /* \"contracts/marketplace.sol\":5635:5637  to */\n      dup5\n        /* \"contracts/marketplace.sol\":5639:5646  tokenId */\n      dup5\n        /* \"contracts/marketplace.sol\":5648:5652  data */\n      dup5\n        /* \"contracts/marketplace.sol\":5606:5628  _checkOnERC721Received */\n      tag_219\n        /* \"contracts/marketplace.sol\":5606:5653  _checkOnERC721Received(from, to, tokenId, data) */\n      jump\t// in\n    tag_218:\n        /* \"contracts/marketplace.sol\":5598:5708  require(_checkOnERC721Received(from, to, tokenId, data), \"ERC721: transfer to non ERC721Receiver implementer\") */\n      tag_220\n      jumpi\n      mload(0x40)\n      0x08c379a000000000000000000000000000000000000000000000000000000000\n      dup2\n      mstore\n      0x04\n      add\n      tag_221\n      swap1\n      tag_222\n      jump\t// in\n    tag_221:\n      mload(0x40)\n      dup1\n      swap2\n      sub\n      swap1\n      revert\n    tag_220:\n        /* \"contracts/marketplace.sol\":5403:5716  function _safeTransfer(\r... */\n      pop\n      pop\n      pop\n      pop\n      jump\t// out\n        /* \"contracts/marketplace.sol\":3344:3438  function _baseURI() internal view virtual returns (string memory) {\r... */\n    tag_163:\n        /* \"contracts/marketplace.sol\":3395:3408  string memory */\n      0x60\n        /* \"contracts/marketplace.sol\":3421:3430  return \"\" */\n      mload(0x40)\n      dup1\n      0x20\n      add\n      0x40\n      mstore\n      dup1\n      0x00\n      dup2\n      mstore\n      pop\n      swap1\n      pop\n        /* \"contracts/marketplace.sol\":3344:3438  function _baseURI() internal view virtual returns (string memory) {\r... */\n      swap1\n      jump\t// out\n        /* \"@openzeppelin/contracts@4.6.0/utils/Strings.sol\":328:1031  function toString(uint256 value) internal pure returns (string memory) {... */\n    tag_167:\n        /* \"@openzeppelin/contracts@4.6.0/utils/Strings.sol\":384:397  string memory */\n      0x60\n        /* \"@openzeppelin/contracts@4.6.0/utils/Strings.sol\":610:611  0 */\n      0x00\n        /* \"@openzeppelin/contracts@4.6.0/utils/Strings.sol\":601:606  value */\n      dup3\n        /* \"@openzeppelin/contracts@4.6.0/utils/Strings.sol\":601:611  value == 0 */\n      eq\n        /* \"@openzeppelin/contracts@4.6.0/utils/Strings.sol\":597:648  if (value == 0) {... */\n      iszero\n      tag_225\n      jumpi\n        /* \"@openzeppelin/contracts@4.6.0/utils/Strings.sol\":627:637  return \"0\" */\n      mload(0x40)\n      dup1\n      0x40\n      add\n      0x40\n      mstore\n      dup1\n      0x01\n      dup2\n      mstore\n      0x20\n      add\n      0x3000000000000000000000000000000000000000000000000000000000000000\n      dup2\n      mstore\n      pop\n      swap1\n      pop\n      jump(tag_224)\n        /* \"@openzeppelin/contracts@4.6.0/utils/Strings.sol\":597:648  if (value == 0) {... */\n    tag_225:\n        /* \"@openzeppelin/contracts@4.6.0/utils/Strings.sol\":657:669  uint256 temp */\n      0x00\n        /* \"@openzeppelin/contracts@4.6.0/utils/Strings.sol\":672:677  value */\n      dup3\n        /* \"@openzeppelin/contracts@4.6.0/utils/Strings.sol\":657:677  uint256 temp = value */\n      swap1\n      pop\n        /* \"@openzeppelin/contracts@4.6.0/utils/Strings.sol\":687:701  uint256 digits */\n      0x00\n        /* \"@openzeppelin/contracts@4.6.0/utils/Strings.sol\":711:786  while (temp != 0) {... */\n    tag_226:\n        /* \"@openzeppelin/contracts@4.6.0/utils/Strings.sol\":726:727  0 */\n      0x00\n        /* \"@openzeppelin/contracts@4.6.0/utils/Strings.sol\":718:722  temp */\n      dup3\n        /* \"@openzeppelin/contracts@4.6.0/utils/Strings.sol\":718:727  temp != 0 */\n      eq\n        /* \"@openzeppelin/contracts@4.6.0/utils/Strings.sol\":711:786  while (temp != 0) {... */\n      tag_227\n      jumpi\n        /* \"@openzeppelin/contracts@4.6.0/utils/Strings.sol\":743:751  digits++ */\n      dup1\n      dup1\n      tag_228\n      swap1\n      tag_229\n      jump\t// in\n    tag_228:\n      swap2\n      pop\n      pop\n        /* \"@openzeppelin/contracts@4.6.0/utils/Strings.sol\":773:775  10 */\n      0x0a\n        /* \"@openzeppelin/contracts@4.6.0/utils/Strings.sol\":765:775  temp /= 10 */\n      dup3\n      tag_230\n      swap2\n      swap1\n      tag_231\n      jump\t// in\n    tag_230:\n      swap2\n      pop\n        /* \"@openzeppelin/contracts@4.6.0/utils/Strings.sol\":711:786  while (temp != 0) {... */\n      jump(tag_226)\n    tag_227:\n        /* \"@openzeppelin/contracts@4.6.0/utils/Strings.sol\":795:814  bytes memory buffer */\n      0x00\n        /* \"@openzeppelin/contracts@4.6.0/utils/Strings.sol\":827:833  digits */\n      dup2\n        /* \"@openzeppelin/contracts@4.6.0/utils/Strings.sol\":817:834  new bytes(digits) */\n      0xffffffffffffffff\n      dup2\n      gt\n      iszero\n      tag_232\n      jumpi\n      mstore(0x00, 0x4e487b7100000000000000000000000000000000000000000000000000000000)\n      mstore(0x04, 0x41)\n      revert(0x00, 0x24)\n    tag_232:\n      mload(0x40)\n      swap1\n      dup1\n      dup3\n      mstore\n      dup1\n      0x1f\n      add\n      not(0x1f)\n      and\n      0x20\n      add\n      dup3\n      add\n      0x40\n      mstore\n      dup1\n      iszero\n      tag_233\n      jumpi\n      dup2\n      0x20\n      add\n      0x01\n      dup3\n      mul\n      dup1\n      calldatasize\n      dup4\n      calldatacopy\n      dup1\n      dup3\n      add\n      swap2\n      pop\n      pop\n      swap1\n      pop\n    tag_233:\n      pop\n        /* \"@openzeppelin/contracts@4.6.0/utils/Strings.sol\":795:834  bytes memory buffer = new bytes(digits) */\n      swap1\n      pop\n        /* \"@openzeppelin/contracts@4.6.0/utils/Strings.sol\":844:994  while (value != 0) {... */\n    tag_234:\n        /* \"@openzeppelin/contracts@4.6.0/utils/Strings.sol\":860:861  0 */\n      0x00\n        /* \"@openzeppelin/contracts@4.6.0/utils/Strings.sol\":851:856  value */\n      dup6\n        /* \"@openzeppelin/contracts@4.6.0/utils/Strings.sol\":851:861  value != 0 */\n      eq\n        /* \"@openzeppelin/contracts@4.6.0/utils/Strings.sol\":844:994  while (value != 0) {... */\n      tag_235\n      jumpi\n        /* \"@openzeppelin/contracts@4.6.0/utils/Strings.sol\":887:888  1 */\n      0x01\n        /* \"@openzeppelin/contracts@4.6.0/utils/Strings.sol\":877:888  digits -= 1 */\n      dup3\n      tag_236\n      swap2\n      swap1\n      tag_237\n      jump\t// in\n    tag_236:\n      swap2\n      pop\n        /* \"@openzeppelin/contracts@4.6.0/utils/Strings.sol\":953:955  10 */\n      0x0a\n        /* \"@openzeppelin/contracts@4.6.0/utils/Strings.sol\":945:950  value */\n      dup6\n        /* \"@openzeppelin/contracts@4.6.0/utils/Strings.sol\":945:955  value % 10 */\n      tag_238\n      swap2\n      swap1\n      tag_239\n      jump\t// in\n    tag_238:\n        /* \"@openzeppelin/contracts@4.6.0/utils/Strings.sol\":932:934  48 */\n      0x30\n        /* \"@openzeppelin/contracts@4.6.0/utils/Strings.sol\":932:956  48 + uint256(value % 10) */\n      tag_240\n      swap2\n      swap1\n      tag_241\n      jump\t// in\n    tag_240:\n        /* \"@openzeppelin/contracts@4.6.0/utils/Strings.sol\":919:958  bytes1(uint8(48 + uint256(value % 10))) */\n      0xf8\n      shl\n        /* \"@openzeppelin/contracts@4.6.0/utils/Strings.sol\":902:908  buffer */\n      dup2\n        /* \"@openzeppelin/contracts@4.6.0/utils/Strings.sol\":909:915  digits */\n      dup4\n        /* \"@openzeppelin/contracts@4.6.0/utils/Strings.sol\":902:916  buffer[digits] */\n      dup2\n      mload\n      dup2\n      lt\n      tag_242\n      jumpi\n      mstore(0x00, 0x4e487b7100000000000000000000000000000000000000000000000000000000)\n      mstore(0x04, 0x32)\n      revert(0x00, 0x24)\n    tag_242:\n      0x20\n      add\n      add\n        /* \"@openzeppelin/contracts@4.6.0/utils/Strings.sol\":902:958  buffer[digits] = bytes1(uint8(48 + uint256(value % 10))) */\n      swap1\n      not(0xffffffffffffffffffffffffffffffffffffffffffffffffffffffffffffff)\n      and\n      swap1\n      dup2\n      0x00\n      byte\n      swap1\n      mstore8\n      pop\n        /* \"@openzeppelin/contracts@4.6.0/utils/Strings.sol\":981:983  10 */\n      0x0a\n        /* \"@openzeppelin/contracts@4.6.0/utils/Strings.sol\":972:983  value /= 10 */\n      dup6\n      tag_243\n      swap2\n      swap1\n      tag_231\n      jump\t// in\n    tag_243:\n      swap5\n      pop\n        /* \"@openzeppelin/contracts@4.6.0/utils/Strings.sol\":844:994  while (value != 0) {... */\n      jump(tag_234)\n    tag_235:\n        /* \"@openzeppelin/contracts@4.6.0/utils/Strings.sol\":1017:1023  buffer */\n      dup1\n        /* \"@openzeppelin/contracts@4.6.0/utils/Strings.sol\":1003:1024  return string(buffer) */\n      swap4\n      pop\n      pop\n      pop\n      pop\n        /* \"@openzeppelin/contracts@4.6.0/utils/Strings.sol\":328:1031  function toString(uint256 value) internal pure returns (string memory) {... */\n    tag_224:\n      swap2\n      swap1\n      pop\n      jump\t// out\n        /* \"contracts/marketplace.sol\":5724:5851  function _exists(uint256 tokenId) internal view virtual returns (bool) {\r... */\n    tag_174:\n        /* \"contracts/marketplace.sol\":5789:5793  bool */\n      0x00\n        /* \"contracts/marketplace.sol\":5841:5842  0 */\n      dup1\n        /* \"contracts/marketplace.sol\":5813:5843  _owners[tokenId] != address(0) */\n      0xffffffffffffffffffffffffffffffffffffffff\n      and\n        /* \"contracts/marketplace.sol\":5813:5820  _owners */\n      0x02\n        /* \"contracts/marketplace.sol\":5813:5829  _owners[tokenId] */\n      0x00\n        /* \"contracts/marketplace.sol\":5821:5828  tokenId */\n      dup5\n        /* \"contracts/marketplace.sol\":5813:5829  _owners[tokenId] */\n      dup2\n      mstore\n      0x20\n      add\n      swap1\n      dup2\n      mstore\n      0x20\n      add\n      0x00\n      keccak256\n      0x00\n      swap1\n      sload\n      swap1\n      0x0100\n      exp\n      swap1\n      div\n      0xffffffffffffffffffffffffffffffffffffffff\n      and\n        /* \"contracts/marketplace.sol\":5813:5843  _owners[tokenId] != address(0) */\n      0xffffffffffffffffffffffffffffffffffffffff\n      and\n      eq\n      iszero\n        /* \"contracts/marketplace.sol\":5806:5843  return _owners[tokenId] != address(0) */\n      swap1\n      pop\n        /* \"contracts/marketplace.sol\":5724:5851  function _exists(uint256 tokenId) internal view virtual returns (bool) {\r... */\n      swap2\n      swap1\n      pop\n      jump\t// out\n        /* \"contracts/marketplace.sol\":10394:10520  function _beforeTokenTransfer(\r... */\n    tag_195:\n      pop\n      pop\n      pop\n      jump\t// out\n        /* \"contracts/marketplace.sol\":10528:10653  function _afterTokenTransfer(\r... */\n    tag_200:\n      pop\n      pop\n      pop\n      jump\t// out\n        /* \"contracts/marketplace.sol\":6290:6654  function _safeMint(\r... */\n    tag_208:\n        /* \"contracts/marketplace.sol\":6450:6482  _mint(to, collaborator, tokenId) */\n      tag_248\n        /* \"contracts/marketplace.sol\":6456:6458  to */\n      dup5\n        /* \"contracts/marketplace.sol\":6460:6472  collaborator */\n      dup5\n        /* \"contracts/marketplace.sol\":6474:6481  tokenId */\n      dup5\n        /* \"contracts/marketplace.sol\":6450:6455  _mint */\n      tag_249\n        /* \"contracts/marketplace.sol\":6450:6482  _mint(to, collaborator, tokenId) */\n      jump\t// in\n    tag_248:\n        /* \"contracts/marketplace.sol\":6515:6568  _checkOnERC721Received(address(0), to, tokenId, data) */\n      tag_250\n        /* \"contracts/marketplace.sol\":6546:6547  0 */\n      0x00\n        /* \"contracts/marketplace.sol\":6550:6552  to */\n      dup6\n        /* \"contracts/marketplace.sol\":6554:6561  tokenId */\n      dup5\n        /* \"contracts/marketplace.sol\":6563:6567  data */\n      dup5\n        /* \"contracts/marketplace.sol\":6515:6537  _checkOnERC721Received */\n      tag_219\n        /* \"contracts/marketplace.sol\":6515:6568  _checkOnERC721Received(address(0), to, tokenId, data) */\n      jump\t// in\n    tag_250:\n        /* \"contracts/marketplace.sol\":6493:6646  require(\r... */\n      tag_251\n      jumpi\n      mload(0x40)\n      0x08c379a000000000000000000000000000000000000000000000000000000000\n      dup2\n      mstore\n      0x04\n      add\n      tag_252\n      swap1\n      tag_222\n      jump\t// in\n    tag_252:\n      mload(0x40)\n      dup1\n      swap2\n      sub\n      swap1\n      revert\n    tag_251:\n        /* \"contracts/marketplace.sol\":6290:6654  function _safeMint(\r... */\n      pop\n      pop\n      pop\n      pop\n      jump\t// out\n        /* \"contracts/marketplace.sol\":9531:10384  function _checkOnERC721Received(\r... */\n    tag_219:\n        /* \"contracts/marketplace.sol\":9685:9689  bool */\n      0x00\n        /* \"contracts/marketplace.sol\":9706:9721  to.isContract() */\n      tag_254\n        /* \"contracts/marketplace.sol\":9706:9708  to */\n      dup5\n        /* \"contracts/marketplace.sol\":9706:9719  to.isContract */\n      0xffffffffffffffffffffffffffffffffffffffff\n      and\n      tag_255\n        /* \"contracts/marketplace.sol\":9706:9721  to.isContract() */\n      jump\t// in\n    tag_254:\n        /* \"contracts/marketplace.sol\":9702:10377  if (to.isContract()) {\r... */\n      iszero\n      tag_256\n      jumpi\n        /* \"contracts/marketplace.sol\":9758:9760  to */\n      dup4\n        /* \"contracts/marketplace.sol\":9742:9778  IERC721Receiver(to).onERC721Received */\n      0xffffffffffffffffffffffffffffffffffffffff\n      and\n      0x150b7a02\n        /* \"contracts/marketplace.sol\":9779:9791  _msgSender() */\n      tag_257\n        /* \"contracts/marketplace.sol\":9779:9789  _msgSender */\n      tag_107\n        /* \"contracts/marketplace.sol\":9779:9791  _msgSender() */\n      jump\t// in\n    tag_257:\n        /* \"contracts/marketplace.sol\":9793:9797  from */\n      dup8\n        /* \"contracts/marketplace.sol\":9799:9806  tokenId */\n      dup7\n        /* \"contracts/marketplace.sol\":9808:9812  data */\n      dup7\n        /* \"contracts/marketplace.sol\":9742:9813  IERC721Receiver(to).onERC721Received(_msgSender(), from, tokenId, data) */\n      mload(0x40)\n      dup6\n      0xffffffff\n      and\n      0xe0\n      shl\n      dup2\n      mstore\n      0x04\n      add\n      tag_258\n      swap5\n      swap4\n      swap3\n      swap2\n      swap1\n      tag_259\n      jump\t// in\n    tag_258:\n      0x20\n      mload(0x40)\n      dup1\n      dup4\n      sub\n      dup2\n      0x00\n      dup8\n      dup1\n      extcodesize\n      iszero\n      dup1\n      iszero\n      tag_260\n      jumpi\n      0x00\n      dup1\n      revert\n    tag_260:\n      pop\n      gas\n      call\n      swap3\n      pop\n      pop\n      pop\n      dup1\n      iszero\n      tag_261\n      jumpi\n      pop\n      mload(0x40)\n      returndatasize\n      not(0x1f)\n      0x1f\n      dup3\n      add\n      and\n      dup3\n      add\n      dup1\n      0x40\n      mstore\n      pop\n      dup2\n      add\n      swap1\n      tag_262\n      swap2\n      swap1\n      tag_263\n      jump\t// in\n    tag_262:\n      0x01\n    tag_261:\n        /* \"contracts/marketplace.sol\":9738:10322  try IERC721Receiver(to).onERC721Received(_msgSender(), from, tokenId, data) returns (bytes4 retval) {\r... */\n      tag_264\n      jumpi\n      returndatasize\n      dup1\n      0x00\n      dup2\n      eq\n      tag_269\n      jumpi\n      mload(0x40)\n      swap2\n      pop\n      and(add(returndatasize, 0x3f), not(0x1f))\n      dup3\n      add\n      0x40\n      mstore\n      returndatasize\n      dup3\n      mstore\n      returndatasize\n      0x00\n      0x20\n      dup5\n      add\n      returndatacopy\n      jump(tag_268)\n    tag_269:\n      0x60\n      swap2\n      pop\n    tag_268:\n      pop\n        /* \"contracts/marketplace.sol\":10000:10001  0 */\n      0x00\n        /* \"contracts/marketplace.sol\":9983:9989  reason */\n      dup2\n        /* \"contracts/marketplace.sol\":9983:9996  reason.length */\n      mload\n        /* \"contracts/marketplace.sol\":9983:10001  reason.length == 0 */\n      eq\n        /* \"contracts/marketplace.sol\":9979:10307  if (reason.length == 0) {\r... */\n      iszero\n      tag_270\n      jumpi\n        /* \"contracts/marketplace.sol\":10026:10086  revert(\"ERC721: transfer to non ERC721Receiver implementer\") */\n      mload(0x40)\n      0x08c379a000000000000000000000000000000000000000000000000000000000\n      dup2\n      mstore\n      0x04\n      add\n      tag_271\n      swap1\n      tag_222\n      jump\t// in\n    tag_271:\n      mload(0x40)\n      dup1\n      swap2\n      sub\n      swap1\n      revert\n        /* \"contracts/marketplace.sol\":9979:10307  if (reason.length == 0) {\r... */\n    tag_270:\n        /* \"contracts/marketplace.sol\":10257:10263  reason */\n      dup1\n        /* \"contracts/marketplace.sol\":10251:10264  mload(reason) */\n      mload\n        /* \"contracts/marketplace.sol\":10242:10248  reason */\n      dup2\n        /* \"contracts/marketplace.sol\":10238:10240  32 */\n      0x20\n        /* \"contracts/marketplace.sol\":10234:10249  add(32, reason) */\n      add\n        /* \"contracts/marketplace.sol\":10227:10265  revert(add(32, reason), mload(reason)) */\n      revert\n        /* \"contracts/marketplace.sol\":9738:10322  try IERC721Receiver(to).onERC721Received(_msgSender(), from, tokenId, data) returns (bytes4 retval) {\r... */\n    tag_264:\n        /* \"contracts/marketplace.sol\":9874:9915  IERC721Receiver.onERC721Received.selector */\n      shl(0xe0, 0x150b7a02)\n        /* \"contracts/marketplace.sol\":9864:9915  retval == IERC721Receiver.onERC721Received.selector */\n      not(0xffffffffffffffffffffffffffffffffffffffffffffffffffffffff)\n      and\n        /* \"contracts/marketplace.sol\":9864:9870  retval */\n      dup2\n        /* \"contracts/marketplace.sol\":9864:9915  retval == IERC721Receiver.onERC721Received.selector */\n      not(0xffffffffffffffffffffffffffffffffffffffffffffffffffffffff)\n      and\n      eq\n        /* \"contracts/marketplace.sol\":9857:9915  return retval == IERC721Receiver.onERC721Received.selector */\n      swap2\n      pop\n      pop\n      jump(tag_253)\n        /* \"contracts/marketplace.sol\":9702:10377  if (to.isContract()) {\r... */\n    tag_256:\n        /* \"contracts/marketplace.sol\":10361:10365  true */\n      0x01\n        /* \"contracts/marketplace.sol\":10354:10365  return true */\n      swap1\n      pop\n        /* \"contracts/marketplace.sol\":9531:10384  function _checkOnERC721Received(\r... */\n    tag_253:\n      swap5\n      swap4\n      pop\n      pop\n      pop\n      pop\n      jump\t// out\n        /* \"contracts/marketplace.sol\":6662:7361  function _mint(address to,address collaborator,uint256 tokenId) internal virtual {\r... */\n    tag_249:\n        /* \"contracts/marketplace.sol\":6776:6777  0 */\n      0x00\n        /* \"contracts/marketplace.sol\":6762:6778  to != address(0) */\n      0xffffffffffffffffffffffffffffffffffffffff\n      and\n        /* \"contracts/marketplace.sol\":6762:6764  to */\n      dup4\n        /* \"contracts/marketplace.sol\":6762:6778  to != address(0) */\n      0xffffffffffffffffffffffffffffffffffffffff\n      and\n      eq\n      iszero\n        /* \"contracts/marketplace.sol\":6754:6815  require(to != address(0), \"ERC721: mint to the zero address\") */\n      tag_276\n      jumpi\n      mload(0x40)\n      0x08c379a000000000000000000000000000000000000000000000000000000000\n      dup2\n      mstore\n      0x04\n      add\n      tag_277\n      swap1\n      tag_278\n      jump\t// in\n    tag_277:\n      mload(0x40)\n      dup1\n      swap2\n      sub\n      swap1\n      revert\n    tag_276:\n        /* \"contracts/marketplace.sol\":6858:6859  0 */\n      0x00\n        /* \"contracts/marketplace.sol\":6834:6860  collaborator != address(0) */\n      0xffffffffffffffffffffffffffffffffffffffff\n      and\n        /* \"contracts/marketplace.sol\":6834:6846  collaborator */\n      dup3\n        /* \"contracts/marketplace.sol\":6834:6860  collaborator != address(0) */\n      0xffffffffffffffffffffffffffffffffffffffff\n      and\n      eq\n      iszero\n        /* \"contracts/marketplace.sol\":6826:6897  require(collaborator != address(0), \"ERC721: mint to the zero address\") */\n      tag_279\n      jumpi\n      mload(0x40)\n      0x08c379a000000000000000000000000000000000000000000000000000000000\n      dup2\n      mstore\n      0x04\n      add\n      tag_280\n      swap1\n      tag_278\n      jump\t// in\n    tag_280:\n      mload(0x40)\n      dup1\n      swap2\n      sub\n      swap1\n      revert\n    tag_279:\n        /* \"contracts/marketplace.sol\":6917:6933  _exists(tokenId) */\n      tag_281\n        /* \"contracts/marketplace.sol\":6925:6932  tokenId */\n      dup2\n        /* \"contracts/marketplace.sol\":6917:6924  _exists */\n      tag_174\n        /* \"contracts/marketplace.sol\":6917:6933  _exists(tokenId) */\n      jump\t// in\n    tag_281:\n        /* \"contracts/marketplace.sol\":6916:6933  !_exists(tokenId) */\n      iszero\n        /* \"contracts/marketplace.sol\":6908:6966  require(!_exists(tokenId), \"ERC721: token already minted\") */\n      tag_282\n      jumpi\n      mload(0x40)\n      0x08c379a000000000000000000000000000000000000000000000000000000000\n      dup2\n      mstore\n      0x04\n      add\n      tag_283\n      swap1\n      tag_284\n      jump\t// in\n    tag_283:\n      mload(0x40)\n      dup1\n      swap2\n      sub\n      swap1\n      revert\n    tag_282:\n        /* \"contracts/marketplace.sol\":6979:7024  _beforeTokenTransfer(address(0), to, tokenId) */\n      tag_285\n        /* \"contracts/marketplace.sol\":7008:7009  0 */\n      0x00\n        /* \"contracts/marketplace.sol\":7012:7014  to */\n      dup5\n        /* \"contracts/marketplace.sol\":7016:7023  tokenId */\n      dup4\n        /* \"contracts/marketplace.sol\":6979:6999  _beforeTokenTransfer */\n      tag_195\n        /* \"contracts/marketplace.sol\":6979:7024  _beforeTokenTransfer(address(0), to, tokenId) */\n      jump\t// in\n    tag_285:\n        /* \"contracts/marketplace.sol\":7046:7062  _exists(tokenId) */\n      tag_286\n        /* \"contracts/marketplace.sol\":7054:7061  tokenId */\n      dup2\n        /* \"contracts/marketplace.sol\":7046:7053  _exists */\n      tag_174\n        /* \"contracts/marketplace.sol\":7046:7062  _exists(tokenId) */\n      jump\t// in\n    tag_286:\n        /* \"contracts/marketplace.sol\":7045:7062  !_exists(tokenId) */\n      iszero\n        /* \"contracts/marketplace.sol\":7037:7095  require(!_exists(tokenId), \"ERC721: token already minted\") */\n      tag_287\n      jumpi\n      mload(0x40)\n      0x08c379a000000000000000000000000000000000000000000000000000000000\n      dup2\n      mstore\n      0x04\n      add\n      tag_288\n      swap1\n      tag_284\n      jump\t// in\n    tag_288:\n      mload(0x40)\n      dup1\n      swap2\n      sub\n      swap1\n      revert\n    tag_287:\n        /* \"contracts/marketplace.sol\":7150:7151  1 */\n      0x01\n        /* \"contracts/marketplace.sol\":7133:7142  _balances */\n      0x04\n        /* \"contracts/marketplace.sol\":7133:7146  _balances[to] */\n      0x00\n        /* \"contracts/marketplace.sol\":7143:7145  to */\n      dup6\n        /* \"contracts/marketplace.sol\":7133:7146  _balances[to] */\n      0xffffffffffffffffffffffffffffffffffffffff\n      and\n      0xffffffffffffffffffffffffffffffffffffffff\n      and\n      dup2\n      mstore\n      0x20\n      add\n      swap1\n      dup2\n      mstore\n      0x20\n      add\n      0x00\n      keccak256\n      0x00\n        /* \"contracts/marketplace.sol\":7133:7151  _balances[to] += 1 */\n      dup3\n      dup3\n      sload\n      add\n      swap3\n      pop\n      pop\n      dup2\n      swap1\n      sstore\n      pop\n        /* \"contracts/marketplace.sol\":7194:7196  to */\n      dup3\n        /* \"contracts/marketplace.sol\":7175:7182  _owners */\n      0x02\n        /* \"contracts/marketplace.sol\":7175:7191  _owners[tokenId] */\n      0x00\n        /* \"contracts/marketplace.sol\":7183:7190  tokenId */\n      dup4\n        /* \"contracts/marketplace.sol\":7175:7191  _owners[tokenId] */\n      dup2\n      mstore\n      0x20\n      add\n      swap1\n      dup2\n      mstore\n      0x20\n      add\n      0x00\n      keccak256\n      0x00\n        /* \"contracts/marketplace.sol\":7175:7196  _owners[tokenId] = to */\n      0x0100\n      exp\n      dup2\n      sload\n      dup2\n      0xffffffffffffffffffffffffffffffffffffffff\n      mul\n      not\n      and\n      swap1\n      dup4\n      0xffffffffffffffffffffffffffffffffffffffff\n      and\n      mul\n      or\n      swap1\n      sstore\n      pop\n        /* \"contracts/marketplace.sol\":7233:7245  collaborator */\n      dup2\n        /* \"contracts/marketplace.sol\":7207:7221  _collaborators */\n      0x03\n        /* \"contracts/marketplace.sol\":7207:7230  _collaborators[tokenId] */\n      0x00\n        /* \"contracts/marketplace.sol\":7222:7229  tokenId */\n      dup4\n        /* \"contracts/marketplace.sol\":7207:7230  _collaborators[tokenId] */\n      dup2\n      mstore\n      0x20\n      add\n      swap1\n      dup2\n      mstore\n      0x20\n      add\n      0x00\n      keccak256\n      0x00\n        /* \"contracts/marketplace.sol\":7207:7245  _collaborators[tokenId] = collaborator */\n      0x0100\n      exp\n      dup2\n      sload\n      dup2\n      0xffffffffffffffffffffffffffffffffffffffff\n      mul\n      not\n      and\n      swap1\n      dup4\n      0xffffffffffffffffffffffffffffffffffffffff\n      and\n      mul\n      or\n      swap1\n      sstore\n      pop\n        /* \"contracts/marketplace.sol\":7288:7295  tokenId */\n      dup1\n        /* \"contracts/marketplace.sol\":7284:7286  to */\n      dup4\n        /* \"contracts/marketplace.sol\":7263:7296  Transfer(address(0), to, tokenId) */\n      0xffffffffffffffffffffffffffffffffffffffff\n      and\n        /* \"contracts/marketplace.sol\":7280:7281  0 */\n      0x00\n        /* \"contracts/marketplace.sol\":7263:7296  Transfer(address(0), to, tokenId) */\n      0xffffffffffffffffffffffffffffffffffffffff\n      and\n      0xddf252ad1be2c89b69c2b068fc378daa952ba7f163c4a11628f55a4df523b3ef\n      mload(0x40)\n      mload(0x40)\n      dup1\n      swap2\n      sub\n      swap1\n      log4\n        /* \"contracts/marketplace.sol\":7309:7353  _afterTokenTransfer(address(0), to, tokenId) */\n      tag_289\n        /* \"contracts/marketplace.sol\":7337:7338  0 */\n      0x00\n        /* \"contracts/marketplace.sol\":7341:7343  to */\n      dup5\n        /* \"contracts/marketplace.sol\":7345:7352  tokenId */\n      dup4\n        /* \"contracts/marketplace.sol\":7309:7328  _afterTokenTransfer */\n      tag_200\n        /* \"contracts/marketplace.sol\":7309:7353  _afterTokenTransfer(address(0), to, tokenId) */\n      jump\t// in\n    tag_289:\n        /* \"contracts/marketplace.sol\":6662:7361  function _mint(address to,address collaborator,uint256 tokenId) internal virtual {\r... */\n      pop\n      pop\n      pop\n      jump\t// out\n        /* \"@openzeppelin/contracts@4.6.0/utils/Address.sol\":1175:1495  function isContract(address account) internal view returns (bool) {... */\n    tag_255:\n        /* \"@openzeppelin/contracts@4.6.0/utils/Address.sol\":1235:1239  bool */\n      0x00\n        /* \"@openzeppelin/contracts@4.6.0/utils/Address.sol\":1487:1488  0 */\n      dup1\n        /* \"@openzeppelin/contracts@4.6.0/utils/Address.sol\":1465:1472  account */\n      dup3\n        /* \"@openzeppelin/contracts@4.6.0/utils/Address.sol\":1465:1484  account.code.length */\n      0xffffffffffffffffffffffffffffffffffffffff\n      and\n      extcodesize\n        /* \"@openzeppelin/contracts@4.6.0/utils/Address.sol\":1465:1488  account.code.length > 0 */\n      gt\n        /* \"@openzeppelin/contracts@4.6.0/utils/Address.sol\":1458:1488  return account.code.length > 0 */\n      swap1\n      pop\n        /* \"@openzeppelin/contracts@4.6.0/utils/Address.sol\":1175:1495  function isContract(address account) internal view returns (bool) {... */\n      swap2\n      swap1\n      pop\n      jump\t// out\n    tag_215:\n      dup3\n      dup1\n      sload\n      tag_291\n      swap1\n      tag_93\n      jump\t// in\n    tag_291:\n      swap1\n      0x00\n      mstore\n      keccak256(0x00, 0x20)\n      swap1\n      0x1f\n      add\n      0x20\n      swap1\n      div\n      dup2\n      add\n      swap3\n      dup3\n      tag_293\n      jumpi\n      0x00\n      dup6\n      sstore\n      jump(tag_292)\n    tag_293:\n      dup3\n      0x1f\n      lt\n      tag_294\n      jumpi\n      dup1\n      mload\n      not(0xff)\n      and\n      dup4\n      dup1\n      add\n      or\n      dup6\n      sstore\n      jump(tag_292)\n    tag_294:\n      dup3\n      dup1\n      add\n      0x01\n      add\n      dup6\n      sstore\n      dup3\n      iszero\n      tag_292\n      jumpi\n      swap2\n      dup3\n      add\n    tag_295:\n      dup3\n      dup2\n      gt\n      iszero\n      tag_296\n      jumpi\n      dup3\n      mload\n      dup3\n      sstore\n      swap2\n      0x20\n      add\n      swap2\n      swap1\n      0x01\n      add\n      swap1\n      jump(tag_295)\n    tag_296:\n    tag_292:\n      pop\n      swap1\n      pop\n      tag_297\n      swap2\n      swap1\n      tag_298\n      jump\t// in\n    tag_297:\n      pop\n      swap1\n      jump\t// out\n    tag_298:\n    tag_299:\n      dup1\n      dup3\n      gt\n      iszero\n      tag_300\n      jumpi\n      0x00\n      dup2\n      0x00\n      swap1\n      sstore\n      pop\n      0x01\n      add\n      jump(tag_299)\n    tag_300:\n      pop\n      swap1\n      jump\t// out\n        /* \"#utility.yul\":7:350   */\n    tag_302:\n        /* \"#utility.yul\":84:89   */\n      0x00\n        /* \"#utility.yul\":109:174   */\n      tag_304\n        /* \"#utility.yul\":125:173   */\n      tag_305\n        /* \"#utility.yul\":166:172   */\n      dup5\n        /* \"#utility.yul\":125:173   */\n      tag_306\n      jump\t// in\n    tag_305:\n        /* \"#utility.yul\":109:174   */\n      tag_307\n      jump\t// in\n    tag_304:\n        /* \"#utility.yul\":100:174   */\n      swap1\n      pop\n        /* \"#utility.yul\":197:203   */\n      dup3\n        /* \"#utility.yul\":190:195   */\n      dup2\n        /* \"#utility.yul\":183:204   */\n      mstore\n        /* \"#utility.yul\":235:239   */\n      0x20\n        /* \"#utility.yul\":228:233   */\n      dup2\n        /* \"#utility.yul\":224:240   */\n      add\n        /* \"#utility.yul\":273:276   */\n      dup5\n        /* \"#utility.yul\":264:270   */\n      dup5\n        /* \"#utility.yul\":259:262   */\n      dup5\n        /* \"#utility.yul\":255:271   */\n      add\n        /* \"#utility.yul\":252:277   */\n      gt\n        /* \"#utility.yul\":249:251   */\n      iszero\n      tag_308\n      jumpi\n        /* \"#utility.yul\":290:291   */\n      0x00\n        /* \"#utility.yul\":287:288   */\n      dup1\n        /* \"#utility.yul\":280:292   */\n      revert\n        /* \"#utility.yul\":249:251   */\n    tag_308:\n        /* \"#utility.yul\":303:344   */\n      tag_309\n        /* \"#utility.yul\":337:343   */\n      dup5\n        /* \"#utility.yul\":332:335   */\n      dup3\n        /* \"#utility.yul\":327:330   */\n      dup6\n        /* \"#utility.yul\":303:344   */\n      tag_310\n      jump\t// in\n    tag_309:\n        /* \"#utility.yul\":90:350   */\n      pop\n      swap4\n      swap3\n      pop\n      pop\n      pop\n      jump\t// out\n        /* \"#utility.yul\":356:701   */\n    tag_311:\n        /* \"#utility.yul\":434:439   */\n      0x00\n        /* \"#utility.yul\":459:525   */\n      tag_313\n        /* \"#utility.yul\":475:524   */\n      tag_314\n        /* \"#utility.yul\":517:523   */\n      dup5\n        /* \"#utility.yul\":475:524   */\n      tag_315\n      jump\t// in\n    tag_314:\n        /* \"#utility.yul\":459:525   */\n      tag_307\n      jump\t// in\n    tag_313:\n        /* \"#utility.yul\":450:525   */\n      swap1\n      pop\n        /* \"#utility.yul\":548:554   */\n      dup3\n        /* \"#utility.yul\":541:546   */\n      dup2\n        /* \"#utility.yul\":534:555   */\n      mstore\n        /* \"#utility.yul\":586:590   */\n      0x20\n        /* \"#utility.yul\":579:584   */\n      dup2\n        /* \"#utility.yul\":575:591   */\n      add\n        /* \"#utility.yul\":624:627   */\n      dup5\n        /* \"#utility.yul\":615:621   */\n      dup5\n        /* \"#utility.yul\":610:613   */\n      dup5\n        /* \"#utility.yul\":606:622   */\n      add\n        /* \"#utility.yul\":603:628   */\n      gt\n        /* \"#utility.yul\":600:602   */\n      iszero\n      tag_316\n      jumpi\n        /* \"#utility.yul\":641:642   */\n      0x00\n        /* \"#utility.yul\":638:639   */\n      dup1\n        /* \"#utility.yul\":631:643   */\n      revert\n        /* \"#utility.yul\":600:602   */\n    tag_316:\n        /* \"#utility.yul\":654:695   */\n      tag_317\n        /* \"#utility.yul\":688:694   */\n      dup5\n        /* \"#utility.yul\":683:686   */\n      dup3\n        /* \"#utility.yul\":678:681   */\n      dup6\n        /* \"#utility.yul\":654:695   */\n      tag_310\n      jump\t// in\n    tag_317:\n        /* \"#utility.yul\":440:701   */\n      pop\n      swap4\n      swap3\n      pop\n      pop\n      pop\n      jump\t// out\n        /* \"#utility.yul\":707:846   */\n    tag_318:\n        /* \"#utility.yul\":753:758   */\n      0x00\n        /* \"#utility.yul\":791:797   */\n      dup2\n        /* \"#utility.yul\":778:798   */\n      calldataload\n        /* \"#utility.yul\":769:798   */\n      swap1\n      pop\n        /* \"#utility.yul\":807:840   */\n      tag_320\n        /* \"#utility.yul\":834:839   */\n      dup2\n        /* \"#utility.yul\":807:840   */\n      tag_321\n      jump\t// in\n    tag_320:\n        /* \"#utility.yul\":759:846   */\n      swap3\n      swap2\n      pop\n      pop\n      jump\t// out\n        /* \"#utility.yul\":852:985   */\n    tag_322:\n        /* \"#utility.yul\":895:900   */\n      0x00\n        /* \"#utility.yul\":933:939   */\n      dup2\n        /* \"#utility.yul\":920:940   */\n      calldataload\n        /* \"#utility.yul\":911:940   */\n      swap1\n      pop\n        /* \"#utility.yul\":949:979   */\n      tag_324\n        /* \"#utility.yul\":973:978   */\n      dup2\n        /* \"#utility.yul\":949:979   */\n      tag_325\n      jump\t// in\n    tag_324:\n        /* \"#utility.yul\":901:985   */\n      swap3\n      swap2\n      pop\n      pop\n      jump\t// out\n        /* \"#utility.yul\":991:1128   */\n    tag_326:\n        /* \"#utility.yul\":1036:1041   */\n      0x00\n        /* \"#utility.yul\":1074:1080   */\n      dup2\n        /* \"#utility.yul\":1061:1081   */\n      calldataload\n        /* \"#utility.yul\":1052:1081   */\n      swap1\n      pop\n        /* \"#utility.yul\":1090:1122   */\n      tag_328\n        /* \"#utility.yul\":1116:1121   */\n      dup2\n        /* \"#utility.yul\":1090:1122   */\n      tag_329\n      jump\t// in\n    tag_328:\n        /* \"#utility.yul\":1042:1128   */\n      swap3\n      swap2\n      pop\n      pop\n      jump\t// out\n        /* \"#utility.yul\":1134:1275   */\n    tag_330:\n        /* \"#utility.yul\":1190:1195   */\n      0x00\n        /* \"#utility.yul\":1221:1227   */\n      dup2\n        /* \"#utility.yul\":1215:1228   */\n      mload\n        /* \"#utility.yul\":1206:1228   */\n      swap1\n      pop\n        /* \"#utility.yul\":1237:1269   */\n      tag_332\n        /* \"#utility.yul\":1263:1268   */\n      dup2\n        /* \"#utility.yul\":1237:1269   */\n      tag_329\n      jump\t// in\n    tag_332:\n        /* \"#utility.yul\":1196:1275   */\n      swap3\n      swap2\n      pop\n      pop\n      jump\t// out\n        /* \"#utility.yul\":1294:1565   */\n    tag_333:\n        /* \"#utility.yul\":1349:1354   */\n      0x00\n        /* \"#utility.yul\":1398:1401   */\n      dup3\n        /* \"#utility.yul\":1391:1395   */\n      0x1f\n        /* \"#utility.yul\":1383:1389   */\n      dup4\n        /* \"#utility.yul\":1379:1396   */\n      add\n        /* \"#utility.yul\":1375:1402   */\n      slt\n        /* \"#utility.yul\":1365:1367   */\n      tag_335\n      jumpi\n        /* \"#utility.yul\":1416:1417   */\n      0x00\n        /* \"#utility.yul\":1413:1414   */\n      dup1\n        /* \"#utility.yul\":1406:1418   */\n      revert\n        /* \"#utility.yul\":1365:1367   */\n    tag_335:\n        /* \"#utility.yul\":1456:1462   */\n      dup2\n        /* \"#utility.yul\":1443:1463   */\n      calldataload\n        /* \"#utility.yul\":1481:1559   */\n      tag_336\n        /* \"#utility.yul\":1555:1558   */\n      dup5\n        /* \"#utility.yul\":1547:1553   */\n      dup3\n        /* \"#utility.yul\":1540:1544   */\n      0x20\n        /* \"#utility.yul\":1532:1538   */\n      dup7\n        /* \"#utility.yul\":1528:1545   */\n      add\n        /* \"#utility.yul\":1481:1559   */\n      tag_302\n      jump\t// in\n    tag_336:\n        /* \"#utility.yul\":1472:1559   */\n      swap2\n      pop\n        /* \"#utility.yul\":1355:1565   */\n      pop\n      swap3\n      swap2\n      pop\n      pop\n      jump\t// out\n        /* \"#utility.yul\":1585:1858   */\n    tag_337:\n        /* \"#utility.yul\":1641:1646   */\n      0x00\n        /* \"#utility.yul\":1690:1693   */\n      dup3\n        /* \"#utility.yul\":1683:1687   */\n      0x1f\n        /* \"#utility.yul\":1675:1681   */\n      dup4\n        /* \"#utility.yul\":1671:1688   */\n      add\n        /* \"#utility.yul\":1667:1694   */\n      slt\n        /* \"#utility.yul\":1657:1659   */\n      tag_339\n      jumpi\n        /* \"#utility.yul\":1708:1709   */\n      0x00\n        /* \"#utility.yul\":1705:1706   */\n      dup1\n        /* \"#utility.yul\":1698:1710   */\n      revert\n        /* \"#utility.yul\":1657:1659   */\n    tag_339:\n        /* \"#utility.yul\":1748:1754   */\n      dup2\n        /* \"#utility.yul\":1735:1755   */\n      calldataload\n        /* \"#utility.yul\":1773:1852   */\n      tag_340\n        /* \"#utility.yul\":1848:1851   */\n      dup5\n        /* \"#utility.yul\":1840:1846   */\n      dup3\n        /* \"#utility.yul\":1833:1837   */\n      0x20\n        /* \"#utility.yul\":1825:1831   */\n      dup7\n        /* \"#utility.yul\":1821:1838   */\n      add\n        /* \"#utility.yul\":1773:1852   */\n      tag_311\n      jump\t// in\n    tag_340:\n        /* \"#utility.yul\":1764:1852   */\n      swap2\n      pop\n        /* \"#utility.yul\":1647:1858   */\n      pop\n      swap3\n      swap2\n      pop\n      pop\n      jump\t// out\n        /* \"#utility.yul\":1864:2003   */\n    tag_341:\n        /* \"#utility.yul\":1910:1915   */\n      0x00\n        /* \"#utility.yul\":1948:1954   */\n      dup2\n        /* \"#utility.yul\":1935:1955   */\n      calldataload\n        /* \"#utility.yul\":1926:1955   */\n      swap1\n      pop\n        /* \"#utility.yul\":1964:1997   */\n      tag_343\n        /* \"#utility.yul\":1991:1996   */\n      dup2\n        /* \"#utility.yul\":1964:1997   */\n      tag_344\n      jump\t// in\n    tag_343:\n        /* \"#utility.yul\":1916:2003   */\n      swap3\n      swap2\n      pop\n      pop\n      jump\t// out\n        /* \"#utility.yul\":2009:2271   */\n    tag_58:\n        /* \"#utility.yul\":2068:2074   */\n      0x00\n        /* \"#utility.yul\":2117:2119   */\n      0x20\n        /* \"#utility.yul\":2105:2114   */\n      dup3\n        /* \"#utility.yul\":2096:2103   */\n      dup5\n        /* \"#utility.yul\":2092:2115   */\n      sub\n        /* \"#utility.yul\":2088:2120   */\n      slt\n        /* \"#utility.yul\":2085:2087   */\n      iszero\n      tag_346\n      jumpi\n        /* \"#utility.yul\":2133:2134   */\n      0x00\n        /* \"#utility.yul\":2130:2131   */\n      dup1\n        /* \"#utility.yul\":2123:2135   */\n      revert\n        /* \"#utility.yul\":2085:2087   */\n    tag_346:\n        /* \"#utility.yul\":2176:2177   */\n      0x00\n        /* \"#utility.yul\":2201:2254   */\n      tag_347\n        /* \"#utility.yul\":2246:2253   */\n      dup5\n        /* \"#utility.yul\":2237:2243   */\n      dup3\n        /* \"#utility.yul\":2226:2235   */\n      dup6\n        /* \"#utility.yul\":2222:2244   */\n      add\n        /* \"#utility.yul\":2201:2254   */\n      tag_318\n      jump\t// in\n    tag_347:\n        /* \"#utility.yul\":2191:2254   */\n      swap2\n      pop\n        /* \"#utility.yul\":2147:2264   */\n      pop\n        /* \"#utility.yul\":2075:2271   */\n      swap3\n      swap2\n      pop\n      pop\n      jump\t// out\n        /* \"#utility.yul\":2277:2684   */\n    tag_83:\n        /* \"#utility.yul\":2345:2351   */\n      0x00\n        /* \"#utility.yul\":2353:2359   */\n      dup1\n        /* \"#utility.yul\":2402:2404   */\n      0x40\n        /* \"#utility.yul\":2390:2399   */\n      dup4\n        /* \"#utility.yul\":2381:2388   */\n      dup6\n        /* \"#utility.yul\":2377:2400   */\n      sub\n        /* \"#utility.yul\":2373:2405   */\n      slt\n        /* \"#utility.yul\":2370:2372   */\n      iszero\n      tag_349\n      jumpi\n        /* \"#utility.yul\":2418:2419   */\n      0x00\n        /* \"#utility.yul\":2415:2416   */\n      dup1\n        /* \"#utility.yul\":2408:2420   */\n      revert\n        /* \"#utility.yul\":2370:2372   */\n    tag_349:\n        /* \"#utility.yul\":2461:2462   */\n      0x00\n        /* \"#utility.yul\":2486:2539   */\n      tag_350\n        /* \"#utility.yul\":2531:2538   */\n      dup6\n        /* \"#utility.yul\":2522:2528   */\n      dup3\n        /* \"#utility.yul\":2511:2520   */\n      dup7\n        /* \"#utility.yul\":2507:2529   */\n      add\n        /* \"#utility.yul\":2486:2539   */\n      tag_318\n      jump\t// in\n    tag_350:\n        /* \"#utility.yul\":2476:2539   */\n      swap3\n      pop\n        /* \"#utility.yul\":2432:2549   */\n      pop\n        /* \"#utility.yul\":2588:2590   */\n      0x20\n        /* \"#utility.yul\":2614:2667   */\n      tag_351\n        /* \"#utility.yul\":2659:2666   */\n      dup6\n        /* \"#utility.yul\":2650:2656   */\n      dup3\n        /* \"#utility.yul\":2639:2648   */\n      dup7\n        /* \"#utility.yul\":2635:2657   */\n      add\n        /* \"#utility.yul\":2614:2667   */\n      tag_318\n      jump\t// in\n    tag_351:\n        /* \"#utility.yul\":2604:2667   */\n      swap2\n      pop\n        /* \"#utility.yul\":2559:2677   */\n      pop\n        /* \"#utility.yul\":2360:2684   */\n      swap3\n      pop\n      swap3\n      swap1\n      pop\n      jump\t// out\n        /* \"#utility.yul\":2690:3242   */\n    tag_43:\n        /* \"#utility.yul\":2767:2773   */\n      0x00\n        /* \"#utility.yul\":2775:2781   */\n      dup1\n        /* \"#utility.yul\":2783:2789   */\n      0x00\n        /* \"#utility.yul\":2832:2834   */\n      0x60\n        /* \"#utility.yul\":2820:2829   */\n      dup5\n        /* \"#utility.yul\":2811:2818   */\n      dup7\n        /* \"#utility.yul\":2807:2830   */\n      sub\n        /* \"#utility.yul\":2803:2835   */\n      slt\n        /* \"#utility.yul\":2800:2802   */\n      iszero\n      tag_353\n      jumpi\n        /* \"#utility.yul\":2848:2849   */\n      0x00\n        /* \"#utility.yul\":2845:2846   */\n      dup1\n        /* \"#utility.yul\":2838:2850   */\n      revert\n        /* \"#utility.yul\":2800:2802   */\n    tag_353:\n        /* \"#utility.yul\":2891:2892   */\n      0x00\n        /* \"#utility.yul\":2916:2969   */\n      tag_354\n        /* \"#utility.yul\":2961:2968   */\n      dup7\n        /* \"#utility.yul\":2952:2958   */\n      dup3\n        /* \"#utility.yul\":2941:2950   */\n      dup8\n        /* \"#utility.yul\":2937:2959   */\n      add\n        /* \"#utility.yul\":2916:2969   */\n      tag_318\n      jump\t// in\n    tag_354:\n        /* \"#utility.yul\":2906:2969   */\n      swap4\n      pop\n        /* \"#utility.yul\":2862:2979   */\n      pop\n        /* \"#utility.yul\":3018:3020   */\n      0x20\n        /* \"#utility.yul\":3044:3097   */\n      tag_355\n        /* \"#utility.yul\":3089:3096   */\n      dup7\n        /* \"#utility.yul\":3080:3086   */\n      dup3\n        /* \"#utility.yul\":3069:3078   */\n      dup8\n        /* \"#utility.yul\":3065:3087   */\n      add\n        /* \"#utility.yul\":3044:3097   */\n      tag_318\n      jump\t// in\n    tag_355:\n        /* \"#utility.yul\":3034:3097   */\n      swap3\n      pop\n        /* \"#utility.yul\":2989:3107   */\n      pop\n        /* \"#utility.yul\":3146:3148   */\n      0x40\n        /* \"#utility.yul\":3172:3225   */\n      tag_356\n        /* \"#utility.yul\":3217:3224   */\n      dup7\n        /* \"#utility.yul\":3208:3214   */\n      dup3\n        /* \"#utility.yul\":3197:3206   */\n      dup8\n        /* \"#utility.yul\":3193:3215   */\n      add\n        /* \"#utility.yul\":3172:3225   */\n      tag_341\n      jump\t// in\n    tag_356:\n        /* \"#utility.yul\":3162:3225   */\n      swap2\n      pop\n        /* \"#utility.yul\":3117:3235   */\n      pop\n        /* \"#utility.yul\":2790:3242   */\n      swap3\n      pop\n      swap3\n      pop\n      swap3\n      jump\t// out\n        /* \"#utility.yul\":3248:4057   */\n    tag_75:\n        /* \"#utility.yul\":3343:3349   */\n      0x00\n        /* \"#utility.yul\":3351:3357   */\n      dup1\n        /* \"#utility.yul\":3359:3365   */\n      0x00\n        /* \"#utility.yul\":3367:3373   */\n      dup1\n        /* \"#utility.yul\":3416:3419   */\n      0x80\n        /* \"#utility.yul\":3404:3413   */\n      dup6\n        /* \"#utility.yul\":3395:3402   */\n      dup8\n        /* \"#utility.yul\":3391:3414   */\n      sub\n        /* \"#utility.yul\":3387:3420   */\n      slt\n        /* \"#utility.yul\":3384:3386   */\n      iszero\n      tag_358\n      jumpi\n        /* \"#utility.yul\":3433:3434   */\n      0x00\n        /* \"#utility.yul\":3430:3431   */\n      dup1\n        /* \"#utility.yul\":3423:3435   */\n      revert\n        /* \"#utility.yul\":3384:3386   */\n    tag_358:\n        /* \"#utility.yul\":3476:3477   */\n      0x00\n        /* \"#utility.yul\":3501:3554   */\n      tag_359\n        /* \"#utility.yul\":3546:3553   */\n      dup8\n        /* \"#utility.yul\":3537:3543   */\n      dup3\n        /* \"#utility.yul\":3526:3535   */\n      dup9\n        /* \"#utility.yul\":3522:3544   */\n      add\n        /* \"#utility.yul\":3501:3554   */\n      tag_318\n      jump\t// in\n    tag_359:\n        /* \"#utility.yul\":3491:3554   */\n      swap5\n      pop\n        /* \"#utility.yul\":3447:3564   */\n      pop\n        /* \"#utility.yul\":3603:3605   */\n      0x20\n        /* \"#utility.yul\":3629:3682   */\n      tag_360\n        /* \"#utility.yul\":3674:3681   */\n      dup8\n        /* \"#utility.yul\":3665:3671   */\n      dup3\n        /* \"#utility.yul\":3654:3663   */\n      dup9\n        /* \"#utility.yul\":3650:3672   */\n      add\n        /* \"#utility.yul\":3629:3682   */\n      tag_318\n      jump\t// in\n    tag_360:\n        /* \"#utility.yul\":3619:3682   */\n      swap4\n      pop\n        /* \"#utility.yul\":3574:3692   */\n      pop\n        /* \"#utility.yul\":3731:3733   */\n      0x40\n        /* \"#utility.yul\":3757:3810   */\n      tag_361\n        /* \"#utility.yul\":3802:3809   */\n      dup8\n        /* \"#utility.yul\":3793:3799   */\n      dup3\n        /* \"#utility.yul\":3782:3791   */\n      dup9\n        /* \"#utility.yul\":3778:3800   */\n      add\n        /* \"#utility.yul\":3757:3810   */\n      tag_341\n      jump\t// in\n    tag_361:\n        /* \"#utility.yul\":3747:3810   */\n      swap3\n      pop\n        /* \"#utility.yul\":3702:3820   */\n      pop\n        /* \"#utility.yul\":3887:3889   */\n      0x60\n        /* \"#utility.yul\":3876:3885   */\n      dup6\n        /* \"#utility.yul\":3872:3890   */\n      add\n        /* \"#utility.yul\":3859:3891   */\n      calldataload\n        /* \"#utility.yul\":3918:3936   */\n      0xffffffffffffffff\n        /* \"#utility.yul\":3910:3916   */\n      dup2\n        /* \"#utility.yul\":3907:3937   */\n      gt\n        /* \"#utility.yul\":3904:3906   */\n      iszero\n      tag_362\n      jumpi\n        /* \"#utility.yul\":3950:3951   */\n      0x00\n        /* \"#utility.yul\":3947:3948   */\n      dup1\n        /* \"#utility.yul\":3940:3952   */\n      revert\n        /* \"#utility.yul\":3904:3906   */\n    tag_362:\n        /* \"#utility.yul\":3978:4040   */\n      tag_363\n        /* \"#utility.yul\":4032:4039   */\n      dup8\n        /* \"#utility.yul\":4023:4029   */\n      dup3\n        /* \"#utility.yul\":4012:4021   */\n      dup9\n        /* \"#utility.yul\":4008:4030   */\n      add\n        /* \"#utility.yul\":3978:4040   */\n      tag_333\n      jump\t// in\n    tag_363:\n        /* \"#utility.yul\":3968:4040   */\n      swap2\n      pop\n        /* \"#utility.yul\":3830:4050   */\n      pop\n        /* \"#utility.yul\":3374:4057   */\n      swap3\n      swap6\n      swap2\n      swap5\n      pop\n      swap3\n      pop\n      jump\t// out\n        /* \"#utility.yul\":4063:4874   */\n    tag_71:\n        /* \"#utility.yul\":4159:4165   */\n      0x00\n        /* \"#utility.yul\":4167:4173   */\n      dup1\n        /* \"#utility.yul\":4175:4181   */\n      0x00\n        /* \"#utility.yul\":4183:4189   */\n      dup1\n        /* \"#utility.yul\":4232:4235   */\n      0x80\n        /* \"#utility.yul\":4220:4229   */\n      dup6\n        /* \"#utility.yul\":4211:4218   */\n      dup8\n        /* \"#utility.yul\":4207:4230   */\n      sub\n        /* \"#utility.yul\":4203:4236   */\n      slt\n        /* \"#utility.yul\":4200:4202   */\n      iszero\n      tag_365\n      jumpi\n        /* \"#utility.yul\":4249:4250   */\n      0x00\n        /* \"#utility.yul\":4246:4247   */\n      dup1\n        /* \"#utility.yul\":4239:4251   */\n      revert\n        /* \"#utility.yul\":4200:4202   */\n    tag_365:\n        /* \"#utility.yul\":4292:4293   */\n      0x00\n        /* \"#utility.yul\":4317:4370   */\n      tag_366\n        /* \"#utility.yul\":4362:4369   */\n      dup8\n        /* \"#utility.yul\":4353:4359   */\n      dup3\n        /* \"#utility.yul\":4342:4351   */\n      dup9\n        /* \"#utility.yul\":4338:4360   */\n      add\n        /* \"#utility.yul\":4317:4370   */\n      tag_318\n      jump\t// in\n    tag_366:\n        /* \"#utility.yul\":4307:4370   */\n      swap5\n      pop\n        /* \"#utility.yul\":4263:4380   */\n      pop\n        /* \"#utility.yul\":4419:4421   */\n      0x20\n        /* \"#utility.yul\":4445:4498   */\n      tag_367\n        /* \"#utility.yul\":4490:4497   */\n      dup8\n        /* \"#utility.yul\":4481:4487   */\n      dup3\n        /* \"#utility.yul\":4470:4479   */\n      dup9\n        /* \"#utility.yul\":4466:4488   */\n      add\n        /* \"#utility.yul\":4445:4498   */\n      tag_318\n      jump\t// in\n    tag_367:\n        /* \"#utility.yul\":4435:4498   */\n      swap4\n      pop\n        /* \"#utility.yul\":4390:4508   */\n      pop\n        /* \"#utility.yul\":4547:4549   */\n      0x40\n        /* \"#utility.yul\":4573:4626   */\n      tag_368\n        /* \"#utility.yul\":4618:4625   */\n      dup8\n        /* \"#utility.yul\":4609:4615   */\n      dup3\n        /* \"#utility.yul\":4598:4607   */\n      dup9\n        /* \"#utility.yul\":4594:4616   */\n      add\n        /* \"#utility.yul\":4573:4626   */\n      tag_341\n      jump\t// in\n    tag_368:\n        /* \"#utility.yul\":4563:4626   */\n      swap3\n      pop\n        /* \"#utility.yul\":4518:4636   */\n      pop\n        /* \"#utility.yul\":4703:4705   */\n      0x60\n        /* \"#utility.yul\":4692:4701   */\n      dup6\n        /* \"#utility.yul\":4688:4706   */\n      add\n        /* \"#utility.yul\":4675:4707   */\n      calldataload\n        /* \"#utility.yul\":4734:4752   */\n      0xffffffffffffffff\n        /* \"#utility.yul\":4726:4732   */\n      dup2\n        /* \"#utility.yul\":4723:4753   */\n      gt\n        /* \"#utility.yul\":4720:4722   */\n      iszero\n      tag_369\n      jumpi\n        /* \"#utility.yul\":4766:4767   */\n      0x00\n        /* \"#utility.yul\":4763:4764   */\n      dup1\n        /* \"#utility.yul\":4756:4768   */\n      revert\n        /* \"#utility.yul\":4720:4722   */\n    tag_369:\n        /* \"#utility.yul\":4794:4857   */\n      tag_370\n        /* \"#utility.yul\":4849:4856   */\n      dup8\n        /* \"#utility.yul\":4840:4846   */\n      dup3\n        /* \"#utility.yul\":4829:4838   */\n      dup9\n        /* \"#utility.yul\":4825:4847   */\n      add\n        /* \"#utility.yul\":4794:4857   */\n      tag_337\n      jump\t// in\n    tag_370:\n        /* \"#utility.yul\":4784:4857   */\n      swap2\n      pop\n        /* \"#utility.yul\":4646:4867   */\n      pop\n        /* \"#utility.yul\":4190:4874   */\n      swap3\n      swap6\n      swap2\n      swap5\n      pop\n      swap3\n      pop\n      jump\t// out\n        /* \"#utility.yul\":4880:5281   */\n    tag_67:\n        /* \"#utility.yul\":4945:4951   */\n      0x00\n        /* \"#utility.yul\":4953:4959   */\n      dup1\n        /* \"#utility.yul\":5002:5004   */\n      0x40\n        /* \"#utility.yul\":4990:4999   */\n      dup4\n        /* \"#utility.yul\":4981:4988   */\n      dup6\n        /* \"#utility.yul\":4977:5000   */\n      sub\n        /* \"#utility.yul\":4973:5005   */\n      slt\n        /* \"#utility.yul\":4970:4972   */\n      iszero\n      tag_372\n      jumpi\n        /* \"#utility.yul\":5018:5019   */\n      0x00\n        /* \"#utility.yul\":5015:5016   */\n      dup1\n        /* \"#utility.yul\":5008:5020   */\n      revert\n        /* \"#utility.yul\":4970:4972   */\n    tag_372:\n        /* \"#utility.yul\":5061:5062   */\n      0x00\n        /* \"#utility.yul\":5086:5139   */\n      tag_373\n        /* \"#utility.yul\":5131:5138   */\n      dup6\n        /* \"#utility.yul\":5122:5128   */\n      dup3\n        /* \"#utility.yul\":5111:5120   */\n      dup7\n        /* \"#utility.yul\":5107:5129   */\n      add\n        /* \"#utility.yul\":5086:5139   */\n      tag_318\n      jump\t// in\n    tag_373:\n        /* \"#utility.yul\":5076:5139   */\n      swap3\n      pop\n        /* \"#utility.yul\":5032:5149   */\n      pop\n        /* \"#utility.yul\":5188:5190   */\n      0x20\n        /* \"#utility.yul\":5214:5264   */\n      tag_374\n        /* \"#utility.yul\":5256:5263   */\n      dup6\n        /* \"#utility.yul\":5247:5253   */\n      dup3\n        /* \"#utility.yul\":5236:5245   */\n      dup7\n        /* \"#utility.yul\":5232:5254   */\n      add\n        /* \"#utility.yul\":5214:5264   */\n      tag_322\n      jump\t// in\n    tag_374:\n        /* \"#utility.yul\":5204:5264   */\n      swap2\n      pop\n        /* \"#utility.yul\":5159:5274   */\n      pop\n        /* \"#utility.yul\":4960:5281   */\n      swap3\n      pop\n      swap3\n      swap1\n      pop\n      jump\t// out\n        /* \"#utility.yul\":5287:5694   */\n    tag_39:\n        /* \"#utility.yul\":5355:5361   */\n      0x00\n        /* \"#utility.yul\":5363:5369   */\n      dup1\n        /* \"#utility.yul\":5412:5414   */\n      0x40\n        /* \"#utility.yul\":5400:5409   */\n      dup4\n        /* \"#utility.yul\":5391:5398   */\n      dup6\n        /* \"#utility.yul\":5387:5410   */\n      sub\n        /* \"#utility.yul\":5383:5415   */\n      slt\n        /* \"#utility.yul\":5380:5382   */\n      iszero\n      tag_376\n      jumpi\n        /* \"#utility.yul\":5428:5429   */\n      0x00\n        /* \"#utility.yul\":5425:5426   */\n      dup1\n        /* \"#utility.yul\":5418:5430   */\n      revert\n        /* \"#utility.yul\":5380:5382   */\n    tag_376:\n        /* \"#utility.yul\":5471:5472   */\n      0x00\n        /* \"#utility.yul\":5496:5549   */\n      tag_377\n        /* \"#utility.yul\":5541:5548   */\n      dup6\n        /* \"#utility.yul\":5532:5538   */\n      dup3\n        /* \"#utility.yul\":5521:5530   */\n      dup7\n        /* \"#utility.yul\":5517:5539   */\n      add\n        /* \"#utility.yul\":5496:5549   */\n      tag_318\n      jump\t// in\n    tag_377:\n        /* \"#utility.yul\":5486:5549   */\n      swap3\n      pop\n        /* \"#utility.yul\":5442:5559   */\n      pop\n        /* \"#utility.yul\":5598:5600   */\n      0x20\n        /* \"#utility.yul\":5624:5677   */\n      tag_378\n        /* \"#utility.yul\":5669:5676   */\n      dup6\n        /* \"#utility.yul\":5660:5666   */\n      dup3\n        /* \"#utility.yul\":5649:5658   */\n      dup7\n        /* \"#utility.yul\":5645:5667   */\n      add\n        /* \"#utility.yul\":5624:5677   */\n      tag_341\n      jump\t// in\n    tag_378:\n        /* \"#utility.yul\":5614:5677   */\n      swap2\n      pop\n        /* \"#utility.yul\":5569:5687   */\n      pop\n        /* \"#utility.yul\":5370:5694   */\n      swap3\n      pop\n      swap3\n      swap1\n      pop\n      jump\t// out\n        /* \"#utility.yul\":5700:5960   */\n    tag_23:\n        /* \"#utility.yul\":5758:5764   */\n      0x00\n        /* \"#utility.yul\":5807:5809   */\n      0x20\n        /* \"#utility.yul\":5795:5804   */\n      dup3\n        /* \"#utility.yul\":5786:5793   */\n      dup5\n        /* \"#utility.yul\":5782:5805   */\n      sub\n        /* \"#utility.yul\":5778:5810   */\n      slt\n        /* \"#utility.yul\":5775:5777   */\n      iszero\n      tag_380\n      jumpi\n        /* \"#utility.yul\":5823:5824   */\n      0x00\n        /* \"#utility.yul\":5820:5821   */\n      dup1\n        /* \"#utility.yul\":5813:5825   */\n      revert\n        /* \"#utility.yul\":5775:5777   */\n    tag_380:\n        /* \"#utility.yul\":5866:5867   */\n      0x00\n        /* \"#utility.yul\":5891:5943   */\n      tag_381\n        /* \"#utility.yul\":5935:5942   */\n      dup5\n        /* \"#utility.yul\":5926:5932   */\n      dup3\n        /* \"#utility.yul\":5915:5924   */\n      dup6\n        /* \"#utility.yul\":5911:5933   */\n      add\n        /* \"#utility.yul\":5891:5943   */\n      tag_326\n      jump\t// in\n    tag_381:\n        /* \"#utility.yul\":5881:5943   */\n      swap2\n      pop\n        /* \"#utility.yul\":5837:5953   */\n      pop\n        /* \"#utility.yul\":5765:5960   */\n      swap3\n      swap2\n      pop\n      pop\n      jump\t// out\n        /* \"#utility.yul\":5966:6248   */\n    tag_263:\n        /* \"#utility.yul\":6035:6041   */\n      0x00\n        /* \"#utility.yul\":6084:6086   */\n      0x20\n        /* \"#utility.yul\":6072:6081   */\n      dup3\n        /* \"#utility.yul\":6063:6070   */\n      dup5\n        /* \"#utility.yul\":6059:6082   */\n      sub\n        /* \"#utility.yul\":6055:6087   */\n      slt\n        /* \"#utility.yul\":6052:6054   */\n      iszero\n      tag_383\n      jumpi\n        /* \"#utility.yul\":6100:6101   */\n      0x00\n        /* \"#utility.yul\":6097:6098   */\n      dup1\n        /* \"#utility.yul\":6090:6102   */\n      revert\n        /* \"#utility.yul\":6052:6054   */\n    tag_383:\n        /* \"#utility.yul\":6143:6144   */\n      0x00\n        /* \"#utility.yul\":6168:6231   */\n      tag_384\n        /* \"#utility.yul\":6223:6230   */\n      dup5\n        /* \"#utility.yul\":6214:6220   */\n      dup3\n        /* \"#utility.yul\":6203:6212   */\n      dup6\n        /* \"#utility.yul\":6199:6221   */\n      add\n        /* \"#utility.yul\":6168:6231   */\n      tag_330\n      jump\t// in\n    tag_384:\n        /* \"#utility.yul\":6158:6231   */\n      swap2\n      pop\n        /* \"#utility.yul\":6114:6241   */\n      pop\n        /* \"#utility.yul\":6042:6248   */\n      swap3\n      swap2\n      pop\n      pop\n      jump\t// out\n        /* \"#utility.yul\":6254:6516   */\n    tag_33:\n        /* \"#utility.yul\":6313:6319   */\n      0x00\n        /* \"#utility.yul\":6362:6364   */\n      0x20\n        /* \"#utility.yul\":6350:6359   */\n      dup3\n        /* \"#utility.yul\":6341:6348   */\n      dup5\n        /* \"#utility.yul\":6337:6360   */\n      sub\n        /* \"#utility.yul\":6333:6365   */\n      slt\n        /* \"#utility.yul\":6330:6332   */\n      iszero\n      tag_386\n      jumpi\n        /* \"#utility.yul\":6378:6379   */\n      0x00\n        /* \"#utility.yul\":6375:6376   */\n      dup1\n        /* \"#utility.yul\":6368:6380   */\n      revert\n        /* \"#utility.yul\":6330:6332   */\n    tag_386:\n        /* \"#utility.yul\":6421:6422   */\n      0x00\n        /* \"#utility.yul\":6446:6499   */\n      tag_387\n        /* \"#utility.yul\":6491:6498   */\n      dup5\n        /* \"#utility.yul\":6482:6488   */\n      dup3\n        /* \"#utility.yul\":6471:6480   */\n      dup6\n        /* \"#utility.yul\":6467:6489   */\n      add\n        /* \"#utility.yul\":6446:6499   */\n      tag_341\n      jump\t// in\n    tag_387:\n        /* \"#utility.yul\":6436:6499   */\n      swap2\n      pop\n        /* \"#utility.yul\":6392:6509   */\n      pop\n        /* \"#utility.yul\":6320:6516   */\n      swap3\n      swap2\n      pop\n      pop\n      jump\t// out\n        /* \"#utility.yul\":6522:6640   */\n    tag_388:\n        /* \"#utility.yul\":6609:6633   */\n      tag_390\n        /* \"#utility.yul\":6627:6632   */\n      dup2\n        /* \"#utility.yul\":6609:6633   */\n      tag_391\n      jump\t// in\n    tag_390:\n        /* \"#utility.yul\":6604:6607   */\n      dup3\n        /* \"#utility.yul\":6597:6634   */\n      mstore\n        /* \"#utility.yul\":6587:6640   */\n      pop\n      pop\n      jump\t// out\n        /* \"#utility.yul\":6646:6755   */\n    tag_392:\n        /* \"#utility.yul\":6727:6748   */\n      tag_394\n        /* \"#utility.yul\":6742:6747   */\n      dup2\n        /* \"#utility.yul\":6727:6748   */\n      tag_395\n      jump\t// in\n    tag_394:\n        /* \"#utility.yul\":6722:6725   */\n      dup3\n        /* \"#utility.yul\":6715:6749   */\n      mstore\n        /* \"#utility.yul\":6705:6755   */\n      pop\n      pop\n      jump\t// out\n        /* \"#utility.yul\":6761:7121   */\n    tag_396:\n        /* \"#utility.yul\":6847:6850   */\n      0x00\n        /* \"#utility.yul\":6875:6913   */\n      tag_398\n        /* \"#utility.yul\":6907:6912   */\n      dup3\n        /* \"#utility.yul\":6875:6913   */\n      tag_399\n      jump\t// in\n    tag_398:\n        /* \"#utility.yul\":6929:6999   */\n      tag_400\n        /* \"#utility.yul\":6992:6998   */\n      dup2\n        /* \"#utility.yul\":6987:6990   */\n      dup6\n        /* \"#utility.yul\":6929:6999   */\n      tag_401\n      jump\t// in\n    tag_400:\n        /* \"#utility.yul\":6922:6999   */\n      swap4\n      pop\n        /* \"#utility.yul\":7008:7060   */\n      tag_402\n        /* \"#utility.yul\":7053:7059   */\n      dup2\n        /* \"#utility.yul\":7048:7051   */\n      dup6\n        /* \"#utility.yul\":7041:7045   */\n      0x20\n        /* \"#utility.yul\":7034:7039   */\n      dup7\n        /* \"#utility.yul\":7030:7046   */\n      add\n        /* \"#utility.yul\":7008:7060   */\n      tag_403\n      jump\t// in\n    tag_402:\n        /* \"#utility.yul\":7085:7114   */\n      tag_404\n        /* \"#utility.yul\":7107:7113   */\n      dup2\n        /* \"#utility.yul\":7085:7114   */\n      tag_405\n      jump\t// in\n    tag_404:\n        /* \"#utility.yul\":7080:7083   */\n      dup5\n        /* \"#utility.yul\":7076:7115   */\n      add\n        /* \"#utility.yul\":7069:7115   */\n      swap2\n      pop\n        /* \"#utility.yul\":6851:7121   */\n      pop\n      swap3\n      swap2\n      pop\n      pop\n      jump\t// out\n        /* \"#utility.yul\":7127:7491   */\n    tag_406:\n        /* \"#utility.yul\":7215:7218   */\n      0x00\n        /* \"#utility.yul\":7243:7282   */\n      tag_408\n        /* \"#utility.yul\":7276:7281   */\n      dup3\n        /* \"#utility.yul\":7243:7282   */\n      tag_409\n      jump\t// in\n    tag_408:\n        /* \"#utility.yul\":7298:7369   */\n      tag_410\n        /* \"#utility.yul\":7362:7368   */\n      dup2\n        /* \"#utility.yul\":7357:7360   */\n      dup6\n        /* \"#utility.yul\":7298:7369   */\n      tag_411\n      jump\t// in\n    tag_410:\n        /* \"#utility.yul\":7291:7369   */\n      swap4\n      pop\n        /* \"#utility.yul\":7378:7430   */\n      tag_412\n        /* \"#utility.yul\":7423:7429   */\n      dup2\n        /* \"#utility.yul\":7418:7421   */\n      dup6\n        /* \"#utility.yul\":7411:7415   */\n      0x20\n        /* \"#utility.yul\":7404:7409   */\n      dup7\n        /* \"#utility.yul\":7400:7416   */\n      add\n        /* \"#utility.yul\":7378:7430   */\n      tag_403\n      jump\t// in\n    tag_412:\n        /* \"#utility.yul\":7455:7484   */\n      tag_413\n        /* \"#utility.yul\":7477:7483   */\n      dup2\n        /* \"#utility.yul\":7455:7484   */\n      tag_405\n      jump\t// in\n    tag_413:\n        /* \"#utility.yul\":7450:7453   */\n      dup5\n        /* \"#utility.yul\":7446:7485   */\n      add\n        /* \"#utility.yul\":7439:7485   */\n      swap2\n      pop\n        /* \"#utility.yul\":7219:7491   */\n      pop\n      swap3\n      swap2\n      pop\n      pop\n      jump\t// out\n        /* \"#utility.yul\":7497:7874   */\n    tag_414:\n        /* \"#utility.yul\":7603:7606   */\n      0x00\n        /* \"#utility.yul\":7631:7670   */\n      tag_416\n        /* \"#utility.yul\":7664:7669   */\n      dup3\n        /* \"#utility.yul\":7631:7670   */\n      tag_409\n      jump\t// in\n    tag_416:\n        /* \"#utility.yul\":7686:7775   */\n      tag_417\n        /* \"#utility.yul\":7768:7774   */\n      dup2\n        /* \"#utility.yul\":7763:7766   */\n      dup6\n        /* \"#utility.yul\":7686:7775   */\n      tag_418\n      jump\t// in\n    tag_417:\n        /* \"#utility.yul\":7679:7775   */\n      swap4\n      pop\n        /* \"#utility.yul\":7784:7836   */\n      tag_419\n        /* \"#utility.yul\":7829:7835   */\n      dup2\n        /* \"#utility.yul\":7824:7827   */\n      dup6\n        /* \"#utility.yul\":7817:7821   */\n      0x20\n        /* \"#utility.yul\":7810:7815   */\n      dup7\n        /* \"#utility.yul\":7806:7822   */\n      add\n        /* \"#utility.yul\":7784:7836   */\n      tag_403\n      jump\t// in\n    tag_419:\n        /* \"#utility.yul\":7861:7867   */\n      dup1\n        /* \"#utility.yul\":7856:7859   */\n      dup5\n        /* \"#utility.yul\":7852:7868   */\n      add\n        /* \"#utility.yul\":7845:7868   */\n      swap2\n      pop\n        /* \"#utility.yul\":7607:7874   */\n      pop\n      swap3\n      swap2\n      pop\n      pop\n      jump\t// out\n        /* \"#utility.yul\":7880:8246   */\n    tag_420:\n        /* \"#utility.yul\":8022:8025   */\n      0x00\n        /* \"#utility.yul\":8043:8110   */\n      tag_422\n        /* \"#utility.yul\":8107:8109   */\n      0x2d\n        /* \"#utility.yul\":8102:8105   */\n      dup4\n        /* \"#utility.yul\":8043:8110   */\n      tag_411\n      jump\t// in\n    tag_422:\n        /* \"#utility.yul\":8036:8110   */\n      swap2\n      pop\n        /* \"#utility.yul\":8119:8212   */\n      tag_423\n        /* \"#utility.yul\":8208:8211   */\n      dup3\n        /* \"#utility.yul\":8119:8212   */\n      tag_424\n      jump\t// in\n    tag_423:\n        /* \"#utility.yul\":8237:8239   */\n      0x40\n        /* \"#utility.yul\":8232:8235   */\n      dup3\n        /* \"#utility.yul\":8228:8240   */\n      add\n        /* \"#utility.yul\":8221:8240   */\n      swap1\n      pop\n        /* \"#utility.yul\":8026:8246   */\n      swap2\n      swap1\n      pop\n      jump\t// out\n        /* \"#utility.yul\":8252:8618   */\n    tag_425:\n        /* \"#utility.yul\":8394:8397   */\n      0x00\n        /* \"#utility.yul\":8415:8482   */\n      tag_427\n        /* \"#utility.yul\":8479:8481   */\n      0x32\n        /* \"#utility.yul\":8474:8477   */\n      dup4\n        /* \"#utility.yul\":8415:8482   */\n      tag_411\n      jump\t// in\n    tag_427:\n        /* \"#utility.yul\":8408:8482   */\n      swap2\n      pop\n        /* \"#utility.yul\":8491:8584   */\n      tag_428\n        /* \"#utility.yul\":8580:8583   */\n      dup3\n        /* \"#utility.yul\":8491:8584   */\n      tag_429\n      jump\t// in\n    tag_428:\n        /* \"#utility.yul\":8609:8611   */\n      0x40\n        /* \"#utility.yul\":8604:8607   */\n      dup3\n        /* \"#utility.yul\":8600:8612   */\n      add\n        /* \"#utility.yul\":8593:8612   */\n      swap1\n      pop\n        /* \"#utility.yul\":8398:8618   */\n      swap2\n      swap1\n      pop\n      jump\t// out\n        /* \"#utility.yul\":8624:8990   */\n    tag_430:\n        /* \"#utility.yul\":8766:8769   */\n      0x00\n        /* \"#utility.yul\":8787:8854   */\n      tag_432\n        /* \"#utility.yul\":8851:8853   */\n      0x25\n        /* \"#utility.yul\":8846:8849   */\n      dup4\n        /* \"#utility.yul\":8787:8854   */\n      tag_411\n      jump\t// in\n    tag_432:\n        /* \"#utility.yul\":8780:8854   */\n      swap2\n      pop\n        /* \"#utility.yul\":8863:8956   */\n      tag_433\n        /* \"#utility.yul\":8952:8955   */\n      dup3\n        /* \"#utility.yul\":8863:8956   */\n      tag_434\n      jump\t// in\n    tag_433:\n        /* \"#utility.yul\":8981:8983   */\n      0x40\n        /* \"#utility.yul\":8976:8979   */\n      dup3\n        /* \"#utility.yul\":8972:8984   */\n      add\n        /* \"#utility.yul\":8965:8984   */\n      swap1\n      pop\n        /* \"#utility.yul\":8770:8990   */\n      swap2\n      swap1\n      pop\n      jump\t// out\n        /* \"#utility.yul\":8996:9362   */\n    tag_435:\n        /* \"#utility.yul\":9138:9141   */\n      0x00\n        /* \"#utility.yul\":9159:9226   */\n      tag_437\n        /* \"#utility.yul\":9223:9225   */\n      0x1c\n        /* \"#utility.yul\":9218:9221   */\n      dup4\n        /* \"#utility.yul\":9159:9226   */\n      tag_411\n      jump\t// in\n    tag_437:\n        /* \"#utility.yul\":9152:9226   */\n      swap2\n      pop\n        /* \"#utility.yul\":9235:9328   */\n      tag_438\n        /* \"#utility.yul\":9324:9327   */\n      dup3\n        /* \"#utility.yul\":9235:9328   */\n      tag_439\n      jump\t// in\n    tag_438:\n        /* \"#utility.yul\":9353:9355   */\n      0x20\n        /* \"#utility.yul\":9348:9351   */\n      dup3\n        /* \"#utility.yul\":9344:9356   */\n      add\n        /* \"#utility.yul\":9337:9356   */\n      swap1\n      pop\n        /* \"#utility.yul\":9142:9362   */\n      swap2\n      swap1\n      pop\n      jump\t// out\n        /* \"#utility.yul\":9368:9734   */\n    tag_440:\n        /* \"#utility.yul\":9510:9513   */\n      0x00\n        /* \"#utility.yul\":9531:9598   */\n      tag_442\n        /* \"#utility.yul\":9595:9597   */\n      0x24\n        /* \"#utility.yul\":9590:9593   */\n      dup4\n        /* \"#utility.yul\":9531:9598   */\n      tag_411\n      jump\t// in\n    tag_442:\n        /* \"#utility.yul\":9524:9598   */\n      swap2\n      pop\n        /* \"#utility.yul\":9607:9700   */\n      tag_443\n        /* \"#utility.yul\":9696:9699   */\n      dup3\n        /* \"#utility.yul\":9607:9700   */\n      tag_444\n      jump\t// in\n    tag_443:\n        /* \"#utility.yul\":9725:9727   */\n      0x40\n        /* \"#utility.yul\":9720:9723   */\n      dup3\n        /* \"#utility.yul\":9716:9728   */\n      add\n        /* \"#utility.yul\":9709:9728   */\n      swap1\n      pop\n        /* \"#utility.yul\":9514:9734   */\n      swap2\n      swap1\n      pop\n      jump\t// out\n        /* \"#utility.yul\":9740:10106   */\n    tag_445:\n        /* \"#utility.yul\":9882:9885   */\n      0x00\n        /* \"#utility.yul\":9903:9970   */\n      tag_447\n        /* \"#utility.yul\":9967:9969   */\n      0x19\n        /* \"#utility.yul\":9962:9965   */\n      dup4\n        /* \"#utility.yul\":9903:9970   */\n      tag_411\n      jump\t// in\n    tag_447:\n        /* \"#utility.yul\":9896:9970   */\n      swap2\n      pop\n        /* \"#utility.yul\":9979:10072   */\n      tag_448\n        /* \"#utility.yul\":10068:10071   */\n      dup3\n        /* \"#utility.yul\":9979:10072   */\n      tag_449\n      jump\t// in\n    tag_448:\n        /* \"#utility.yul\":10097:10099   */\n      0x20\n        /* \"#utility.yul\":10092:10095   */\n      dup3\n        /* \"#utility.yul\":10088:10100   */\n      add\n        /* \"#utility.yul\":10081:10100   */\n      swap1\n      pop\n        /* \"#utility.yul\":9886:10106   */\n      swap2\n      swap1\n      pop\n      jump\t// out\n        /* \"#utility.yul\":10112:10478   */\n    tag_450:\n        /* \"#utility.yul\":10254:10257   */\n      0x00\n        /* \"#utility.yul\":10275:10342   */\n      tag_452\n        /* \"#utility.yul\":10339:10341   */\n      0x29\n        /* \"#utility.yul\":10334:10337   */\n      dup4\n        /* \"#utility.yul\":10275:10342   */\n      tag_411\n      jump\t// in\n    tag_452:\n        /* \"#utility.yul\":10268:10342   */\n      swap2\n      pop\n        /* \"#utility.yul\":10351:10444   */\n      tag_453\n        /* \"#utility.yul\":10440:10443   */\n      dup3\n        /* \"#utility.yul\":10351:10444   */\n      tag_454\n      jump\t// in\n    tag_453:\n        /* \"#utility.yul\":10469:10471   */\n      0x40\n        /* \"#utility.yul\":10464:10467   */\n      dup3\n        /* \"#utility.yul\":10460:10472   */\n      add\n        /* \"#utility.yul\":10453:10472   */\n      swap1\n      pop\n        /* \"#utility.yul\":10258:10478   */\n      swap2\n      swap1\n      pop\n      jump\t// out\n        /* \"#utility.yul\":10484:10850   */\n    tag_455:\n        /* \"#utility.yul\":10626:10629   */\n      0x00\n        /* \"#utility.yul\":10647:10714   */\n      tag_457\n        /* \"#utility.yul\":10711:10713   */\n      0x2e\n        /* \"#utility.yul\":10706:10709   */\n      dup4\n        /* \"#utility.yul\":10647:10714   */\n      tag_411\n      jump\t// in\n    tag_457:\n        /* \"#utility.yul\":10640:10714   */\n      swap2\n      pop\n        /* \"#utility.yul\":10723:10816   */\n      tag_458\n        /* \"#utility.yul\":10812:10815   */\n      dup3\n        /* \"#utility.yul\":10723:10816   */\n      tag_459\n      jump\t// in\n    tag_458:\n        /* \"#utility.yul\":10841:10843   */\n      0x40\n        /* \"#utility.yul\":10836:10839   */\n      dup3\n        /* \"#utility.yul\":10832:10844   */\n      add\n        /* \"#utility.yul\":10825:10844   */\n      swap1\n      pop\n        /* \"#utility.yul\":10630:10850   */\n      swap2\n      swap1\n      pop\n      jump\t// out\n        /* \"#utility.yul\":10856:11222   */\n    tag_460:\n        /* \"#utility.yul\":10998:11001   */\n      0x00\n        /* \"#utility.yul\":11019:11086   */\n      tag_462\n        /* \"#utility.yul\":11083:11085   */\n      0x20\n        /* \"#utility.yul\":11078:11081   */\n      dup4\n        /* \"#utility.yul\":11019:11086   */\n      tag_411\n      jump\t// in\n    tag_462:\n        /* \"#utility.yul\":11012:11086   */\n      swap2\n      pop\n        /* \"#utility.yul\":11095:11188   */\n      tag_463\n        /* \"#utility.yul\":11184:11187   */\n      dup3\n        /* \"#utility.yul\":11095:11188   */\n      tag_464\n      jump\t// in\n    tag_463:\n        /* \"#utility.yul\":11213:11215   */\n      0x20\n        /* \"#utility.yul\":11208:11211   */\n      dup3\n        /* \"#utility.yul\":11204:11216   */\n      add\n        /* \"#utility.yul\":11197:11216   */\n      swap1\n      pop\n        /* \"#utility.yul\":11002:11222   */\n      swap2\n      swap1\n      pop\n      jump\t// out\n        /* \"#utility.yul\":11228:11594   */\n    tag_465:\n        /* \"#utility.yul\":11370:11373   */\n      0x00\n        /* \"#utility.yul\":11391:11458   */\n      tag_467\n        /* \"#utility.yul\":11455:11457   */\n      0x18\n        /* \"#utility.yul\":11450:11453   */\n      dup4\n        /* \"#utility.yul\":11391:11458   */\n      tag_411\n      jump\t// in\n    tag_467:\n        /* \"#utility.yul\":11384:11458   */\n      swap2\n      pop\n        /* \"#utility.yul\":11467:11560   */\n      tag_468\n        /* \"#utility.yul\":11556:11559   */\n      dup3\n        /* \"#utility.yul\":11467:11560   */\n      tag_469\n      jump\t// in\n    tag_468:\n        /* \"#utility.yul\":11585:11587   */\n      0x20\n        /* \"#utility.yul\":11580:11583   */\n      dup3\n        /* \"#utility.yul\":11576:11588   */\n      add\n        /* \"#utility.yul\":11569:11588   */\n      swap1\n      pop\n        /* \"#utility.yul\":11374:11594   */\n      swap2\n      swap1\n      pop\n      jump\t// out\n        /* \"#utility.yul\":11600:11966   */\n    tag_470:\n        /* \"#utility.yul\":11742:11745   */\n      0x00\n        /* \"#utility.yul\":11763:11830   */\n      tag_472\n        /* \"#utility.yul\":11827:11829   */\n      0x21\n        /* \"#utility.yul\":11822:11825   */\n      dup4\n        /* \"#utility.yul\":11763:11830   */\n      tag_411\n      jump\t// in\n    tag_472:\n        /* \"#utility.yul\":11756:11830   */\n      swap2\n      pop\n        /* \"#utility.yul\":11839:11932   */\n      tag_473\n        /* \"#utility.yul\":11928:11931   */\n      dup3\n        /* \"#utility.yul\":11839:11932   */\n      tag_474\n      jump\t// in\n    tag_473:\n        /* \"#utility.yul\":11957:11959   */\n      0x40\n        /* \"#utility.yul\":11952:11955   */\n      dup3\n        /* \"#utility.yul\":11948:11960   */\n      add\n        /* \"#utility.yul\":11941:11960   */\n      swap1\n      pop\n        /* \"#utility.yul\":11746:11966   */\n      swap2\n      swap1\n      pop\n      jump\t// out\n        /* \"#utility.yul\":11972:12338   */\n    tag_475:\n        /* \"#utility.yul\":12114:12117   */\n      0x00\n        /* \"#utility.yul\":12135:12202   */\n      tag_477\n        /* \"#utility.yul\":12199:12201   */\n      0x3d\n        /* \"#utility.yul\":12194:12197   */\n      dup4\n        /* \"#utility.yul\":12135:12202   */\n      tag_411\n      jump\t// in\n    tag_477:\n        /* \"#utility.yul\":12128:12202   */\n      swap2\n      pop\n        /* \"#utility.yul\":12211:12304   */\n      tag_478\n        /* \"#utility.yul\":12300:12303   */\n      dup3\n        /* \"#utility.yul\":12211:12304   */\n      tag_479\n      jump\t// in\n    tag_478:\n        /* \"#utility.yul\":12329:12331   */\n      0x40\n        /* \"#utility.yul\":12324:12327   */\n      dup3\n        /* \"#utility.yul\":12320:12332   */\n      add\n        /* \"#utility.yul\":12313:12332   */\n      swap1\n      pop\n        /* \"#utility.yul\":12118:12338   */\n      swap2\n      swap1\n      pop\n      jump\t// out\n        /* \"#utility.yul\":12344:12462   */\n    tag_480:\n        /* \"#utility.yul\":12431:12455   */\n      tag_482\n        /* \"#utility.yul\":12449:12454   */\n      dup2\n        /* \"#utility.yul\":12431:12455   */\n      tag_483\n      jump\t// in\n    tag_482:\n        /* \"#utility.yul\":12426:12429   */\n      dup3\n        /* \"#utility.yul\":12419:12456   */\n      mstore\n        /* \"#utility.yul\":12409:12462   */\n      pop\n      pop\n      jump\t// out\n        /* \"#utility.yul\":12468:12903   */\n    tag_169:\n        /* \"#utility.yul\":12648:12651   */\n      0x00\n        /* \"#utility.yul\":12670:12765   */\n      tag_485\n        /* \"#utility.yul\":12761:12764   */\n      dup3\n        /* \"#utility.yul\":12752:12758   */\n      dup6\n        /* \"#utility.yul\":12670:12765   */\n      tag_414\n      jump\t// in\n    tag_485:\n        /* \"#utility.yul\":12663:12765   */\n      swap2\n      pop\n        /* \"#utility.yul\":12782:12877   */\n      tag_486\n        /* \"#utility.yul\":12873:12876   */\n      dup3\n        /* \"#utility.yul\":12864:12870   */\n      dup5\n        /* \"#utility.yul\":12782:12877   */\n      tag_414\n      jump\t// in\n    tag_486:\n        /* \"#utility.yul\":12775:12877   */\n      swap2\n      pop\n        /* \"#utility.yul\":12894:12897   */\n      dup2\n        /* \"#utility.yul\":12887:12897   */\n      swap1\n      pop\n        /* \"#utility.yul\":12652:12903   */\n      swap4\n      swap3\n      pop\n      pop\n      pop\n      jump\t// out\n        /* \"#utility.yul\":12909:13131   */\n    tag_36:\n        /* \"#utility.yul\":13002:13006   */\n      0x00\n        /* \"#utility.yul\":13040:13042   */\n      0x20\n        /* \"#utility.yul\":13029:13038   */\n      dup3\n        /* \"#utility.yul\":13025:13043   */\n      add\n        /* \"#utility.yul\":13017:13043   */\n      swap1\n      pop\n        /* \"#utility.yul\":13053:13124   */\n      tag_488\n        /* \"#utility.yul\":13121:13122   */\n      0x00\n        /* \"#utility.yul\":13110:13119   */\n      dup4\n        /* \"#utility.yul\":13106:13123   */\n      add\n        /* \"#utility.yul\":13097:13103   */\n      dup5\n        /* \"#utility.yul\":13053:13124   */\n      tag_388\n      jump\t// in\n    tag_488:\n        /* \"#utility.yul\":13007:13131   */\n      swap3\n      swap2\n      pop\n      pop\n      jump\t// out\n        /* \"#utility.yul\":13137:13777   */\n    tag_259:\n        /* \"#utility.yul\":13332:13336   */\n      0x00\n        /* \"#utility.yul\":13370:13373   */\n      0x80\n        /* \"#utility.yul\":13359:13368   */\n      dup3\n        /* \"#utility.yul\":13355:13374   */\n      add\n        /* \"#utility.yul\":13347:13374   */\n      swap1\n      pop\n        /* \"#utility.yul\":13384:13455   */\n      tag_490\n        /* \"#utility.yul\":13452:13453   */\n      0x00\n        /* \"#utility.yul\":13441:13450   */\n      dup4\n        /* \"#utility.yul\":13437:13454   */\n      add\n        /* \"#utility.yul\":13428:13434   */\n      dup8\n        /* \"#utility.yul\":13384:13455   */\n      tag_388\n      jump\t// in\n    tag_490:\n        /* \"#utility.yul\":13465:13537   */\n      tag_491\n        /* \"#utility.yul\":13533:13535   */\n      0x20\n        /* \"#utility.yul\":13522:13531   */\n      dup4\n        /* \"#utility.yul\":13518:13536   */\n      add\n        /* \"#utility.yul\":13509:13515   */\n      dup7\n        /* \"#utility.yul\":13465:13537   */\n      tag_388\n      jump\t// in\n    tag_491:\n        /* \"#utility.yul\":13547:13619   */\n      tag_492\n        /* \"#utility.yul\":13615:13617   */\n      0x40\n        /* \"#utility.yul\":13604:13613   */\n      dup4\n        /* \"#utility.yul\":13600:13618   */\n      add\n        /* \"#utility.yul\":13591:13597   */\n      dup6\n        /* \"#utility.yul\":13547:13619   */\n      tag_480\n      jump\t// in\n    tag_492:\n        /* \"#utility.yul\":13666:13675   */\n      dup2\n        /* \"#utility.yul\":13660:13664   */\n      dup2\n        /* \"#utility.yul\":13656:13676   */\n      sub\n        /* \"#utility.yul\":13651:13653   */\n      0x60\n        /* \"#utility.yul\":13640:13649   */\n      dup4\n        /* \"#utility.yul\":13636:13654   */\n      add\n        /* \"#utility.yul\":13629:13677   */\n      mstore\n        /* \"#utility.yul\":13694:13770   */\n      tag_493\n        /* \"#utility.yul\":13765:13769   */\n      dup2\n        /* \"#utility.yul\":13756:13762   */\n      dup5\n        /* \"#utility.yul\":13694:13770   */\n      tag_396\n      jump\t// in\n    tag_493:\n        /* \"#utility.yul\":13686:13770   */\n      swap1\n      pop\n        /* \"#utility.yul\":13337:13777   */\n      swap6\n      swap5\n      pop\n      pop\n      pop\n      pop\n      pop\n      jump\t// out\n        /* \"#utility.yul\":13783:13993   */\n    tag_26:\n        /* \"#utility.yul\":13870:13874   */\n      0x00\n        /* \"#utility.yul\":13908:13910   */\n      0x20\n        /* \"#utility.yul\":13897:13906   */\n      dup3\n        /* \"#utility.yul\":13893:13911   */\n      add\n        /* \"#utility.yul\":13885:13911   */\n      swap1\n      pop\n        /* \"#utility.yul\":13921:13986   */\n      tag_495\n        /* \"#utility.yul\":13983:13984   */\n      0x00\n        /* \"#utility.yul\":13972:13981   */\n      dup4\n        /* \"#utility.yul\":13968:13985   */\n      add\n        /* \"#utility.yul\":13959:13965   */\n      dup5\n        /* \"#utility.yul\":13921:13986   */\n      tag_392\n      jump\t// in\n    tag_495:\n        /* \"#utility.yul\":13875:13993   */\n      swap3\n      swap2\n      pop\n      pop\n      jump\t// out\n        /* \"#utility.yul\":13999:14312   */\n    tag_30:\n        /* \"#utility.yul\":14112:14116   */\n      0x00\n        /* \"#utility.yul\":14150:14152   */\n      0x20\n        /* \"#utility.yul\":14139:14148   */\n      dup3\n        /* \"#utility.yul\":14135:14153   */\n      add\n        /* \"#utility.yul\":14127:14153   */\n      swap1\n      pop\n        /* \"#utility.yul\":14199:14208   */\n      dup2\n        /* \"#utility.yul\":14193:14197   */\n      dup2\n        /* \"#utility.yul\":14189:14209   */\n      sub\n        /* \"#utility.yul\":14185:14186   */\n      0x00\n        /* \"#utility.yul\":14174:14183   */\n      dup4\n        /* \"#utility.yul\":14170:14187   */\n      add\n        /* \"#utility.yul\":14163:14210   */\n      mstore\n        /* \"#utility.yul\":14227:14305   */\n      tag_497\n        /* \"#utility.yul\":14300:14304   */\n      dup2\n        /* \"#utility.yul\":14291:14297   */\n      dup5\n        /* \"#utility.yul\":14227:14305   */\n      tag_406\n      jump\t// in\n    tag_497:\n        /* \"#utility.yul\":14219:14305   */\n      swap1\n      pop\n        /* \"#utility.yul\":14117:14312   */\n      swap3\n      swap2\n      pop\n      pop\n      jump\t// out\n        /* \"#utility.yul\":14318:14737   */\n    tag_122:\n        /* \"#utility.yul\":14484:14488   */\n      0x00\n        /* \"#utility.yul\":14522:14524   */\n      0x20\n        /* \"#utility.yul\":14511:14520   */\n      dup3\n        /* \"#utility.yul\":14507:14525   */\n      add\n        /* \"#utility.yul\":14499:14525   */\n      swap1\n      pop\n        /* \"#utility.yul\":14571:14580   */\n      dup2\n        /* \"#utility.yul\":14565:14569   */\n      dup2\n        /* \"#utility.yul\":14561:14581   */\n      sub\n        /* \"#utility.yul\":14557:14558   */\n      0x00\n        /* \"#utility.yul\":14546:14555   */\n      dup4\n        /* \"#utility.yul\":14542:14559   */\n      add\n        /* \"#utility.yul\":14535:14582   */\n      mstore\n        /* \"#utility.yul\":14599:14730   */\n      tag_499\n        /* \"#utility.yul\":14725:14729   */\n      dup2\n        /* \"#utility.yul\":14599:14730   */\n      tag_420\n      jump\t// in\n    tag_499:\n        /* \"#utility.yul\":14591:14730   */\n      swap1\n      pop\n        /* \"#utility.yul\":14489:14737   */\n      swap2\n      swap1\n      pop\n      jump\t// out\n        /* \"#utility.yul\":14743:15162   */\n    tag_222:\n        /* \"#utility.yul\":14909:14913   */\n      0x00\n        /* \"#utility.yul\":14947:14949   */\n      0x20\n        /* \"#utility.yul\":14936:14945   */\n      dup3\n        /* \"#utility.yul\":14932:14950   */\n      add\n        /* \"#utility.yul\":14924:14950   */\n      swap1\n      pop\n        /* \"#utility.yul\":14996:15005   */\n      dup2\n        /* \"#utility.yul\":14990:14994   */\n      dup2\n        /* \"#utility.yul\":14986:15006   */\n      sub\n        /* \"#utility.yul\":14982:14983   */\n      0x00\n        /* \"#utility.yul\":14971:14980   */\n      dup4\n        /* \"#utility.yul\":14967:14984   */\n      add\n        /* \"#utility.yul\":14960:15007   */\n      mstore\n        /* \"#utility.yul\":15024:15155   */\n      tag_501\n        /* \"#utility.yul\":15150:15154   */\n      dup2\n        /* \"#utility.yul\":15024:15155   */\n      tag_425\n      jump\t// in\n    tag_501:\n        /* \"#utility.yul\":15016:15155   */\n      swap1\n      pop\n        /* \"#utility.yul\":14914:15162   */\n      swap2\n      swap1\n      pop\n      jump\t// out\n        /* \"#utility.yul\":15168:15587   */\n    tag_190:\n        /* \"#utility.yul\":15334:15338   */\n      0x00\n        /* \"#utility.yul\":15372:15374   */\n      0x20\n        /* \"#utility.yul\":15361:15370   */\n      dup3\n        /* \"#utility.yul\":15357:15375   */\n      add\n        /* \"#utility.yul\":15349:15375   */\n      swap1\n      pop\n        /* \"#utility.yul\":15421:15430   */\n      dup2\n        /* \"#utility.yul\":15415:15419   */\n      dup2\n        /* \"#utility.yul\":15411:15431   */\n      sub\n        /* \"#utility.yul\":15407:15408   */\n      0x00\n        /* \"#utility.yul\":15396:15405   */\n      dup4\n        /* \"#utility.yul\":15392:15409   */\n      add\n        /* \"#utility.yul\":15385:15432   */\n      mstore\n        /* \"#utility.yul\":15449:15580   */\n      tag_503\n        /* \"#utility.yul\":15575:15579   */\n      dup2\n        /* \"#utility.yul\":15449:15580   */\n      tag_430\n      jump\t// in\n    tag_503:\n        /* \"#utility.yul\":15441:15580   */\n      swap1\n      pop\n        /* \"#utility.yul\":15339:15587   */\n      swap2\n      swap1\n      pop\n      jump\t// out\n        /* \"#utility.yul\":15593:16012   */\n    tag_284:\n        /* \"#utility.yul\":15759:15763   */\n      0x00\n        /* \"#utility.yul\":15797:15799   */\n      0x20\n        /* \"#utility.yul\":15786:15795   */\n      dup3\n        /* \"#utility.yul\":15782:15800   */\n      add\n        /* \"#utility.yul\":15774:15800   */\n      swap1\n      pop\n        /* \"#utility.yul\":15846:15855   */\n      dup2\n        /* \"#utility.yul\":15840:15844   */\n      dup2\n        /* \"#utility.yul\":15836:15856   */\n      sub\n        /* \"#utility.yul\":15832:15833   */\n      0x00\n        /* \"#utility.yul\":15821:15830   */\n      dup4\n        /* \"#utility.yul\":15817:15834   */\n      add\n        /* \"#utility.yul\":15810:15857   */\n      mstore\n        /* \"#utility.yul\":15874:16005   */\n      tag_505\n        /* \"#utility.yul\":16000:16004   */\n      dup2\n        /* \"#utility.yul\":15874:16005   */\n      tag_435\n      jump\t// in\n    tag_505:\n        /* \"#utility.yul\":15866:16005   */\n      swap1\n      pop\n        /* \"#utility.yul\":15764:16012   */\n      swap2\n      swap1\n      pop\n      jump\t// out\n        /* \"#utility.yul\":16018:16437   */\n    tag_193:\n        /* \"#utility.yul\":16184:16188   */\n      0x00\n        /* \"#utility.yul\":16222:16224   */\n      0x20\n        /* \"#utility.yul\":16211:16220   */\n      dup3\n        /* \"#utility.yul\":16207:16225   */\n      add\n        /* \"#utility.yul\":16199:16225   */\n      swap1\n      pop\n        /* \"#utility.yul\":16271:16280   */\n      dup2\n        /* \"#utility.yul\":16265:16269   */\n      dup2\n        /* \"#utility.yul\":16261:16281   */\n      sub\n        /* \"#utility.yul\":16257:16258   */\n      0x00\n        /* \"#utility.yul\":16246:16255   */\n      dup4\n        /* \"#utility.yul\":16242:16259   */\n      add\n        /* \"#utility.yul\":16235:16282   */\n      mstore\n        /* \"#utility.yul\":16299:16430   */\n      tag_507\n        /* \"#utility.yul\":16425:16429   */\n      dup2\n        /* \"#utility.yul\":16299:16430   */\n      tag_440\n      jump\t// in\n    tag_507:\n        /* \"#utility.yul\":16291:16430   */\n      swap1\n      pop\n        /* \"#utility.yul\":16189:16437   */\n      swap2\n      swap1\n      pop\n      jump\t// out\n        /* \"#utility.yul\":16443:16862   */\n    tag_204:\n        /* \"#utility.yul\":16609:16613   */\n      0x00\n        /* \"#utility.yul\":16647:16649   */\n      0x20\n        /* \"#utility.yul\":16636:16645   */\n      dup3\n        /* \"#utility.yul\":16632:16650   */\n      add\n        /* \"#utility.yul\":16624:16650   */\n      swap1\n      pop\n        /* \"#utility.yul\":16696:16705   */\n      dup2\n        /* \"#utility.yul\":16690:16694   */\n      dup2\n        /* \"#utility.yul\":16686:16706   */\n      sub\n        /* \"#utility.yul\":16682:16683   */\n      0x00\n        /* \"#utility.yul\":16671:16680   */\n      dup4\n        /* \"#utility.yul\":16667:16684   */\n      add\n        /* \"#utility.yul\":16660:16707   */\n      mstore\n        /* \"#utility.yul\":16724:16855   */\n      tag_509\n        /* \"#utility.yul\":16850:16854   */\n      dup2\n        /* \"#utility.yul\":16724:16855   */\n      tag_445\n      jump\t// in\n    tag_509:\n        /* \"#utility.yul\":16716:16855   */\n      swap1\n      pop\n        /* \"#utility.yul\":16614:16862   */\n      swap2\n      swap1\n      pop\n      jump\t// out\n        /* \"#utility.yul\":16868:17287   */\n    tag_137:\n        /* \"#utility.yul\":17034:17038   */\n      0x00\n        /* \"#utility.yul\":17072:17074   */\n      0x20\n        /* \"#utility.yul\":17061:17070   */\n      dup3\n        /* \"#utility.yul\":17057:17075   */\n      add\n        /* \"#utility.yul\":17049:17075   */\n      swap1\n      pop\n        /* \"#utility.yul\":17121:17130   */\n      dup2\n        /* \"#utility.yul\":17115:17119   */\n      dup2\n        /* \"#utility.yul\":17111:17131   */\n      sub\n        /* \"#utility.yul\":17107:17108   */\n      0x00\n        /* \"#utility.yul\":17096:17105   */\n      dup4\n        /* \"#utility.yul\":17092:17109   */\n      add\n        /* \"#utility.yul\":17085:17132   */\n      mstore\n        /* \"#utility.yul\":17149:17280   */\n      tag_511\n        /* \"#utility.yul\":17275:17279   */\n      dup2\n        /* \"#utility.yul\":17149:17280   */\n      tag_450\n      jump\t// in\n    tag_511:\n        /* \"#utility.yul\":17141:17280   */\n      swap1\n      pop\n        /* \"#utility.yul\":17039:17287   */\n      swap2\n      swap1\n      pop\n      jump\t// out\n        /* \"#utility.yul\":17293:17712   */\n    tag_213:\n        /* \"#utility.yul\":17459:17463   */\n      0x00\n        /* \"#utility.yul\":17497:17499   */\n      0x20\n        /* \"#utility.yul\":17486:17495   */\n      dup3\n        /* \"#utility.yul\":17482:17500   */\n      add\n        /* \"#utility.yul\":17474:17500   */\n      swap1\n      pop\n        /* \"#utility.yul\":17546:17555   */\n      dup2\n        /* \"#utility.yul\":17540:17544   */\n      dup2\n        /* \"#utility.yul\":17536:17556   */\n      sub\n        /* \"#utility.yul\":17532:17533   */\n      0x00\n        /* \"#utility.yul\":17521:17530   */\n      dup4\n        /* \"#utility.yul\":17517:17534   */\n      add\n        /* \"#utility.yul\":17510:17557   */\n      mstore\n        /* \"#utility.yul\":17574:17705   */\n      tag_513\n        /* \"#utility.yul\":17700:17704   */\n      dup2\n        /* \"#utility.yul\":17574:17705   */\n      tag_455\n      jump\t// in\n    tag_513:\n        /* \"#utility.yul\":17566:17705   */\n      swap1\n      pop\n        /* \"#utility.yul\":17464:17712   */\n      swap2\n      swap1\n      pop\n      jump\t// out\n        /* \"#utility.yul\":17718:18137   */\n    tag_278:\n        /* \"#utility.yul\":17884:17888   */\n      0x00\n        /* \"#utility.yul\":17922:17924   */\n      0x20\n        /* \"#utility.yul\":17911:17920   */\n      dup3\n        /* \"#utility.yul\":17907:17925   */\n      add\n        /* \"#utility.yul\":17899:17925   */\n      swap1\n      pop\n        /* \"#utility.yul\":17971:17980   */\n      dup2\n        /* \"#utility.yul\":17965:17969   */\n      dup2\n        /* \"#utility.yul\":17961:17981   */\n      sub\n        /* \"#utility.yul\":17957:17958   */\n      0x00\n        /* \"#utility.yul\":17946:17955   */\n      dup4\n        /* \"#utility.yul\":17942:17959   */\n      add\n        /* \"#utility.yul\":17935:17982   */\n      mstore\n        /* \"#utility.yul\":17999:18130   */\n      tag_515\n        /* \"#utility.yul\":18125:18129   */\n      dup2\n        /* \"#utility.yul\":17999:18130   */\n      tag_460\n      jump\t// in\n    tag_515:\n        /* \"#utility.yul\":17991:18130   */\n      swap1\n      pop\n        /* \"#utility.yul\":17889:18137   */\n      swap2\n      swap1\n      pop\n      jump\t// out\n        /* \"#utility.yul\":18143:18562   */\n    tag_130:\n        /* \"#utility.yul\":18309:18313   */\n      0x00\n        /* \"#utility.yul\":18347:18349   */\n      0x20\n        /* \"#utility.yul\":18336:18345   */\n      dup3\n        /* \"#utility.yul\":18332:18350   */\n      add\n        /* \"#utility.yul\":18324:18350   */\n      swap1\n      pop\n        /* \"#utility.yul\":18396:18405   */\n      dup2\n        /* \"#utility.yul\":18390:18394   */\n      dup2\n        /* \"#utility.yul\":18386:18406   */\n      sub\n        /* \"#utility.yul\":18382:18383   */\n      0x00\n        /* \"#utility.yul\":18371:18380   */\n      dup4\n        /* \"#utility.yul\":18367:18384   */\n      add\n        /* \"#utility.yul\":18360:18407   */\n      mstore\n        /* \"#utility.yul\":18424:18555   */\n      tag_517\n        /* \"#utility.yul\":18550:18554   */\n      dup2\n        /* \"#utility.yul\":18424:18555   */\n      tag_465\n      jump\t// in\n    tag_517:\n        /* \"#utility.yul\":18416:18555   */\n      swap1\n      pop\n        /* \"#utility.yul\":18314:18562   */\n      swap2\n      swap1\n      pop\n      jump\t// out\n        /* \"#utility.yul\":18568:18987   */\n    tag_105:\n        /* \"#utility.yul\":18734:18738   */\n      0x00\n        /* \"#utility.yul\":18772:18774   */\n      0x20\n        /* \"#utility.yul\":18761:18770   */\n      dup3\n        /* \"#utility.yul\":18757:18775   */\n      add\n        /* \"#utility.yul\":18749:18775   */\n      swap1\n      pop\n        /* \"#utility.yul\":18821:18830   */\n      dup2\n        /* \"#utility.yul\":18815:18819   */\n      dup2\n        /* \"#utility.yul\":18811:18831   */\n      sub\n        /* \"#utility.yul\":18807:18808   */\n      0x00\n        /* \"#utility.yul\":18796:18805   */\n      dup4\n        /* \"#utility.yul\":18792:18809   */\n      add\n        /* \"#utility.yul\":18785:18832   */\n      mstore\n        /* \"#utility.yul\":18849:18980   */\n      tag_519\n        /* \"#utility.yul\":18975:18979   */\n      dup2\n        /* \"#utility.yul\":18849:18980   */\n      tag_470\n      jump\t// in\n    tag_519:\n        /* \"#utility.yul\":18841:18980   */\n      swap1\n      pop\n        /* \"#utility.yul\":18739:18987   */\n      swap2\n      swap1\n      pop\n      jump\t// out\n        /* \"#utility.yul\":18993:19412   */\n    tag_113:\n        /* \"#utility.yul\":19159:19163   */\n      0x00\n        /* \"#utility.yul\":19197:19199   */\n      0x20\n        /* \"#utility.yul\":19186:19195   */\n      dup3\n        /* \"#utility.yul\":19182:19200   */\n      add\n        /* \"#utility.yul\":19174:19200   */\n      swap1\n      pop\n        /* \"#utility.yul\":19246:19255   */\n      dup2\n        /* \"#utility.yul\":19240:19244   */\n      dup2\n        /* \"#utility.yul\":19236:19256   */\n      sub\n        /* \"#utility.yul\":19232:19233   */\n      0x00\n        /* \"#utility.yul\":19221:19230   */\n      dup4\n        /* \"#utility.yul\":19217:19234   */\n      add\n        /* \"#utility.yul\":19210:19257   */\n      mstore\n        /* \"#utility.yul\":19274:19405   */\n      tag_521\n        /* \"#utility.yul\":19400:19404   */\n      dup2\n        /* \"#utility.yul\":19274:19405   */\n      tag_475\n      jump\t// in\n    tag_521:\n        /* \"#utility.yul\":19266:19405   */\n      swap1\n      pop\n        /* \"#utility.yul\":19164:19412   */\n      swap2\n      swap1\n      pop\n      jump\t// out\n        /* \"#utility.yul\":19418:19640   */\n    tag_61:\n        /* \"#utility.yul\":19511:19515   */\n      0x00\n        /* \"#utility.yul\":19549:19551   */\n      0x20\n        /* \"#utility.yul\":19538:19547   */\n      dup3\n        /* \"#utility.yul\":19534:19552   */\n      add\n        /* \"#utility.yul\":19526:19552   */\n      swap1\n      pop\n        /* \"#utility.yul\":19562:19633   */\n      tag_523\n        /* \"#utility.yul\":19630:19631   */\n      0x00\n        /* \"#utility.yul\":19619:19628   */\n      dup4\n        /* \"#utility.yul\":19615:19632   */\n      add\n        /* \"#utility.yul\":19606:19612   */\n      dup5\n        /* \"#utility.yul\":19562:19633   */\n      tag_480\n      jump\t// in\n    tag_523:\n        /* \"#utility.yul\":19516:19640   */\n      swap3\n      swap2\n      pop\n      pop\n      jump\t// out\n        /* \"#utility.yul\":19646:19775   */\n    tag_307:\n        /* \"#utility.yul\":19680:19686   */\n      0x00\n        /* \"#utility.yul\":19707:19727   */\n      tag_525\n      tag_526\n      jump\t// in\n    tag_525:\n        /* \"#utility.yul\":19697:19727   */\n      swap1\n      pop\n        /* \"#utility.yul\":19736:19769   */\n      tag_527\n        /* \"#utility.yul\":19764:19768   */\n      dup3\n        /* \"#utility.yul\":19756:19762   */\n      dup3\n        /* \"#utility.yul\":19736:19769   */\n      tag_528\n      jump\t// in\n    tag_527:\n        /* \"#utility.yul\":19687:19775   */\n      swap2\n      swap1\n      pop\n      jump\t// out\n        /* \"#utility.yul\":19781:19856   */\n    tag_526:\n        /* \"#utility.yul\":19814:19820   */\n      0x00\n        /* \"#utility.yul\":19847:19849   */\n      0x40\n        /* \"#utility.yul\":19841:19850   */\n      mload\n        /* \"#utility.yul\":19831:19850   */\n      swap1\n      pop\n        /* \"#utility.yul\":19821:19856   */\n      swap1\n      jump\t// out\n        /* \"#utility.yul\":19862:20169   */\n    tag_306:\n        /* \"#utility.yul\":19923:19927   */\n      0x00\n        /* \"#utility.yul\":20013:20031   */\n      0xffffffffffffffff\n        /* \"#utility.yul\":20005:20011   */\n      dup3\n        /* \"#utility.yul\":20002:20032   */\n      gt\n        /* \"#utility.yul\":19999:20001   */\n      iszero\n      tag_531\n      jumpi\n        /* \"#utility.yul\":20035:20053   */\n      tag_532\n      tag_533\n      jump\t// in\n    tag_532:\n        /* \"#utility.yul\":19999:20001   */\n    tag_531:\n        /* \"#utility.yul\":20073:20102   */\n      tag_534\n        /* \"#utility.yul\":20095:20101   */\n      dup3\n        /* \"#utility.yul\":20073:20102   */\n      tag_405\n      jump\t// in\n    tag_534:\n        /* \"#utility.yul\":20065:20102   */\n      swap1\n      pop\n        /* \"#utility.yul\":20157:20161   */\n      0x20\n        /* \"#utility.yul\":20151:20155   */\n      dup2\n        /* \"#utility.yul\":20147:20162   */\n      add\n        /* \"#utility.yul\":20139:20162   */\n      swap1\n      pop\n        /* \"#utility.yul\":19928:20169   */\n      swap2\n      swap1\n      pop\n      jump\t// out\n        /* \"#utility.yul\":20175:20483   */\n    tag_315:\n        /* \"#utility.yul\":20237:20241   */\n      0x00\n        /* \"#utility.yul\":20327:20345   */\n      0xffffffffffffffff\n        /* \"#utility.yul\":20319:20325   */\n      dup3\n        /* \"#utility.yul\":20316:20346   */\n      gt\n        /* \"#utility.yul\":20313:20315   */\n      iszero\n      tag_536\n      jumpi\n        /* \"#utility.yul\":20349:20367   */\n      tag_537\n      tag_533\n      jump\t// in\n    tag_537:\n        /* \"#utility.yul\":20313:20315   */\n    tag_536:\n        /* \"#utility.yul\":20387:20416   */\n      tag_538\n        /* \"#utility.yul\":20409:20415   */\n      dup3\n        /* \"#utility.yul\":20387:20416   */\n      tag_405\n      jump\t// in\n    tag_538:\n        /* \"#utility.yul\":20379:20416   */\n      swap1\n      pop\n        /* \"#utility.yul\":20471:20475   */\n      0x20\n        /* \"#utility.yul\":20465:20469   */\n      dup2\n        /* \"#utility.yul\":20461:20476   */\n      add\n        /* \"#utility.yul\":20453:20476   */\n      swap1\n      pop\n        /* \"#utility.yul\":20242:20483   */\n      swap2\n      swap1\n      pop\n      jump\t// out\n        /* \"#utility.yul\":20489:20587   */\n    tag_399:\n        /* \"#utility.yul\":20540:20546   */\n      0x00\n        /* \"#utility.yul\":20574:20579   */\n      dup2\n        /* \"#utility.yul\":20568:20580   */\n      mload\n        /* \"#utility.yul\":20558:20580   */\n      swap1\n      pop\n        /* \"#utility.yul\":20547:20587   */\n      swap2\n      swap1\n      pop\n      jump\t// out\n        /* \"#utility.yul\":20593:20692   */\n    tag_409:\n        /* \"#utility.yul\":20645:20651   */\n      0x00\n        /* \"#utility.yul\":20679:20684   */\n      dup2\n        /* \"#utility.yul\":20673:20685   */\n      mload\n        /* \"#utility.yul\":20663:20685   */\n      swap1\n      pop\n        /* \"#utility.yul\":20652:20692   */\n      swap2\n      swap1\n      pop\n      jump\t// out\n        /* \"#utility.yul\":20698:20866   */\n    tag_401:\n        /* \"#utility.yul\":20781:20792   */\n      0x00\n        /* \"#utility.yul\":20815:20821   */\n      dup3\n        /* \"#utility.yul\":20810:20813   */\n      dup3\n        /* \"#utility.yul\":20803:20822   */\n      mstore\n        /* \"#utility.yul\":20855:20859   */\n      0x20\n        /* \"#utility.yul\":20850:20853   */\n      dup3\n        /* \"#utility.yul\":20846:20860   */\n      add\n        /* \"#utility.yul\":20831:20860   */\n      swap1\n      pop\n        /* \"#utility.yul\":20793:20866   */\n      swap3\n      swap2\n      pop\n      pop\n      jump\t// out\n        /* \"#utility.yul\":20872:21041   */\n    tag_411:\n        /* \"#utility.yul\":20956:20967   */\n      0x00\n        /* \"#utility.yul\":20990:20996   */\n      dup3\n        /* \"#utility.yul\":20985:20988   */\n      dup3\n        /* \"#utility.yul\":20978:20997   */\n      mstore\n        /* \"#utility.yul\":21030:21034   */\n      0x20\n        /* \"#utility.yul\":21025:21028   */\n      dup3\n        /* \"#utility.yul\":21021:21035   */\n      add\n        /* \"#utility.yul\":21006:21035   */\n      swap1\n      pop\n        /* \"#utility.yul\":20968:21041   */\n      swap3\n      swap2\n      pop\n      pop\n      jump\t// out\n        /* \"#utility.yul\":21047:21195   */\n    tag_418:\n        /* \"#utility.yul\":21149:21160   */\n      0x00\n        /* \"#utility.yul\":21186:21189   */\n      dup2\n        /* \"#utility.yul\":21171:21189   */\n      swap1\n      pop\n        /* \"#utility.yul\":21161:21195   */\n      swap3\n      swap2\n      pop\n      pop\n      jump\t// out\n        /* \"#utility.yul\":21201:21506   */\n    tag_241:\n        /* \"#utility.yul\":21241:21244   */\n      0x00\n        /* \"#utility.yul\":21260:21280   */\n      tag_545\n        /* \"#utility.yul\":21278:21279   */\n      dup3\n        /* \"#utility.yul\":21260:21280   */\n      tag_483\n      jump\t// in\n    tag_545:\n        /* \"#utility.yul\":21255:21280   */\n      swap2\n      pop\n        /* \"#utility.yul\":21294:21314   */\n      tag_546\n        /* \"#utility.yul\":21312:21313   */\n      dup4\n        /* \"#utility.yul\":21294:21314   */\n      tag_483\n      jump\t// in\n    tag_546:\n        /* \"#utility.yul\":21289:21314   */\n      swap3\n      pop\n        /* \"#utility.yul\":21448:21449   */\n      dup3\n        /* \"#utility.yul\":21380:21446   */\n      0xffffffffffffffffffffffffffffffffffffffffffffffffffffffffffffffff\n        /* \"#utility.yul\":21376:21450   */\n      sub\n        /* \"#utility.yul\":21373:21374   */\n      dup3\n        /* \"#utility.yul\":21370:21451   */\n      gt\n        /* \"#utility.yul\":21367:21369   */\n      iszero\n      tag_547\n      jumpi\n        /* \"#utility.yul\":21454:21472   */\n      tag_548\n      tag_549\n      jump\t// in\n    tag_548:\n        /* \"#utility.yul\":21367:21369   */\n    tag_547:\n        /* \"#utility.yul\":21498:21499   */\n      dup3\n        /* \"#utility.yul\":21495:21496   */\n      dup3\n        /* \"#utility.yul\":21491:21500   */\n      add\n        /* \"#utility.yul\":21484:21500   */\n      swap1\n      pop\n        /* \"#utility.yul\":21245:21506   */\n      swap3\n      swap2\n      pop\n      pop\n      jump\t// out\n        /* \"#utility.yul\":21512:21697   */\n    tag_231:\n        /* \"#utility.yul\":21552:21553   */\n      0x00\n        /* \"#utility.yul\":21569:21589   */\n      tag_551\n        /* \"#utility.yul\":21587:21588   */\n      dup3\n        /* \"#utility.yul\":21569:21589   */\n      tag_483\n      jump\t// in\n    tag_551:\n        /* \"#utility.yul\":21564:21589   */\n      swap2\n      pop\n        /* \"#utility.yul\":21603:21623   */\n      tag_552\n        /* \"#utility.yul\":21621:21622   */\n      dup4\n        /* \"#utility.yul\":21603:21623   */\n      tag_483\n      jump\t// in\n    tag_552:\n        /* \"#utility.yul\":21598:21623   */\n      swap3\n      pop\n        /* \"#utility.yul\":21642:21643   */\n      dup3\n        /* \"#utility.yul\":21632:21634   */\n      tag_553\n      jumpi\n        /* \"#utility.yul\":21647:21665   */\n      tag_554\n      tag_555\n      jump\t// in\n    tag_554:\n        /* \"#utility.yul\":21632:21634   */\n    tag_553:\n        /* \"#utility.yul\":21689:21690   */\n      dup3\n        /* \"#utility.yul\":21686:21687   */\n      dup3\n        /* \"#utility.yul\":21682:21691   */\n      div\n        /* \"#utility.yul\":21677:21691   */\n      swap1\n      pop\n        /* \"#utility.yul\":21554:21697   */\n      swap3\n      swap2\n      pop\n      pop\n      jump\t// out\n        /* \"#utility.yul\":21703:21894   */\n    tag_237:\n        /* \"#utility.yul\":21743:21747   */\n      0x00\n        /* \"#utility.yul\":21763:21783   */\n      tag_557\n        /* \"#utility.yul\":21781:21782   */\n      dup3\n        /* \"#utility.yul\":21763:21783   */\n      tag_483\n      jump\t// in\n    tag_557:\n        /* \"#utility.yul\":21758:21783   */\n      swap2\n      pop\n        /* \"#utility.yul\":21797:21817   */\n      tag_558\n        /* \"#utility.yul\":21815:21816   */\n      dup4\n        /* \"#utility.yul\":21797:21817   */\n      tag_483\n      jump\t// in\n    tag_558:\n        /* \"#utility.yul\":21792:21817   */\n      swap3\n      pop\n        /* \"#utility.yul\":21836:21837   */\n      dup3\n        /* \"#utility.yul\":21833:21834   */\n      dup3\n        /* \"#utility.yul\":21830:21838   */\n      lt\n        /* \"#utility.yul\":21827:21829   */\n      iszero\n      tag_559\n      jumpi\n        /* \"#utility.yul\":21841:21859   */\n      tag_560\n      tag_549\n      jump\t// in\n    tag_560:\n        /* \"#utility.yul\":21827:21829   */\n    tag_559:\n        /* \"#utility.yul\":21886:21887   */\n      dup3\n        /* \"#utility.yul\":21883:21884   */\n      dup3\n        /* \"#utility.yul\":21879:21888   */\n      sub\n        /* \"#utility.yul\":21871:21888   */\n      swap1\n      pop\n        /* \"#utility.yul\":21748:21894   */\n      swap3\n      swap2\n      pop\n      pop\n      jump\t// out\n        /* \"#utility.yul\":21900:21996   */\n    tag_391:\n        /* \"#utility.yul\":21937:21944   */\n      0x00\n        /* \"#utility.yul\":21966:21990   */\n      tag_562\n        /* \"#utility.yul\":21984:21989   */\n      dup3\n        /* \"#utility.yul\":21966:21990   */\n      tag_563\n      jump\t// in\n    tag_562:\n        /* \"#utility.yul\":21955:21990   */\n      swap1\n      pop\n        /* \"#utility.yul\":21945:21996   */\n      swap2\n      swap1\n      pop\n      jump\t// out\n        /* \"#utility.yul\":22002:22092   */\n    tag_395:\n        /* \"#utility.yul\":22036:22043   */\n      0x00\n        /* \"#utility.yul\":22079:22084   */\n      dup2\n        /* \"#utility.yul\":22072:22085   */\n      iszero\n        /* \"#utility.yul\":22065:22086   */\n      iszero\n        /* \"#utility.yul\":22054:22086   */\n      swap1\n      pop\n        /* \"#utility.yul\":22044:22092   */\n      swap2\n      swap1\n      pop\n      jump\t// out\n        /* \"#utility.yul\":22098:22247   */\n    tag_565:\n        /* \"#utility.yul\":22134:22141   */\n      0x00\n        /* \"#utility.yul\":22174:22240   */\n      0xffffffff00000000000000000000000000000000000000000000000000000000\n        /* \"#utility.yul\":22167:22172   */\n      dup3\n        /* \"#utility.yul\":22163:22241   */\n      and\n        /* \"#utility.yul\":22152:22241   */\n      swap1\n      pop\n        /* \"#utility.yul\":22142:22247   */\n      swap2\n      swap1\n      pop\n      jump\t// out\n        /* \"#utility.yul\":22253:22379   */\n    tag_563:\n        /* \"#utility.yul\":22290:22297   */\n      0x00\n        /* \"#utility.yul\":22330:22372   */\n      0xffffffffffffffffffffffffffffffffffffffff\n        /* \"#utility.yul\":22323:22328   */\n      dup3\n        /* \"#utility.yul\":22319:22373   */\n      and\n        /* \"#utility.yul\":22308:22373   */\n      swap1\n      pop\n        /* \"#utility.yul\":22298:22379   */\n      swap2\n      swap1\n      pop\n      jump\t// out\n        /* \"#utility.yul\":22385:22462   */\n    tag_483:\n        /* \"#utility.yul\":22422:22429   */\n      0x00\n        /* \"#utility.yul\":22451:22456   */\n      dup2\n        /* \"#utility.yul\":22440:22456   */\n      swap1\n      pop\n        /* \"#utility.yul\":22430:22462   */\n      swap2\n      swap1\n      pop\n      jump\t// out\n        /* \"#utility.yul\":22468:22622   */\n    tag_310:\n        /* \"#utility.yul\":22552:22558   */\n      dup3\n        /* \"#utility.yul\":22547:22550   */\n      dup2\n        /* \"#utility.yul\":22542:22545   */\n      dup4\n        /* \"#utility.yul\":22529:22559   */\n      calldatacopy\n        /* \"#utility.yul\":22614:22615   */\n      0x00\n        /* \"#utility.yul\":22605:22611   */\n      dup4\n        /* \"#utility.yul\":22600:22603   */\n      dup4\n        /* \"#utility.yul\":22596:22612   */\n      add\n        /* \"#utility.yul\":22589:22616   */\n      mstore\n        /* \"#utility.yul\":22519:22622   */\n      pop\n      pop\n      pop\n      jump\t// out\n        /* \"#utility.yul\":22628:22935   */\n    tag_403:\n        /* \"#utility.yul\":22696:22697   */\n      0x00\n        /* \"#utility.yul\":22706:22819   */\n    tag_571:\n        /* \"#utility.yul\":22720:22726   */\n      dup4\n        /* \"#utility.yul\":22717:22718   */\n      dup2\n        /* \"#utility.yul\":22714:22727   */\n      lt\n        /* \"#utility.yul\":22706:22819   */\n      iszero\n      tag_573\n      jumpi\n        /* \"#utility.yul\":22805:22806   */\n      dup1\n        /* \"#utility.yul\":22800:22803   */\n      dup3\n        /* \"#utility.yul\":22796:22807   */\n      add\n        /* \"#utility.yul\":22790:22808   */\n      mload\n        /* \"#utility.yul\":22786:22787   */\n      dup2\n        /* \"#utility.yul\":22781:22784   */\n      dup5\n        /* \"#utility.yul\":22777:22788   */\n      add\n        /* \"#utility.yul\":22770:22809   */\n      mstore\n        /* \"#utility.yul\":22742:22744   */\n      0x20\n        /* \"#utility.yul\":22739:22740   */\n      dup2\n        /* \"#utility.yul\":22735:22745   */\n      add\n        /* \"#utility.yul\":22730:22745   */\n      swap1\n      pop\n        /* \"#utility.yul\":22706:22819   */\n      jump(tag_571)\n    tag_573:\n        /* \"#utility.yul\":22837:22843   */\n      dup4\n        /* \"#utility.yul\":22834:22835   */\n      dup2\n        /* \"#utility.yul\":22831:22844   */\n      gt\n        /* \"#utility.yul\":22828:22830   */\n      iszero\n      tag_574\n      jumpi\n        /* \"#utility.yul\":22917:22918   */\n      0x00\n        /* \"#utility.yul\":22908:22914   */\n      dup5\n        /* \"#utility.yul\":22903:22906   */\n      dup5\n        /* \"#utility.yul\":22899:22915   */\n      add\n        /* \"#utility.yul\":22892:22919   */\n      mstore\n        /* \"#utility.yul\":22828:22830   */\n    tag_574:\n        /* \"#utility.yul\":22677:22935   */\n      pop\n      pop\n      pop\n      pop\n      jump\t// out\n        /* \"#utility.yul\":22941:23261   */\n    tag_93:\n        /* \"#utility.yul\":22985:22991   */\n      0x00\n        /* \"#utility.yul\":23022:23023   */\n      0x02\n        /* \"#utility.yul\":23016:23020   */\n      dup3\n        /* \"#utility.yul\":23012:23024   */\n      div\n        /* \"#utility.yul\":23002:23024   */\n      swap1\n      pop\n        /* \"#utility.yul\":23069:23070   */\n      0x01\n        /* \"#utility.yul\":23063:23067   */\n      dup3\n        /* \"#utility.yul\":23059:23071   */\n      and\n        /* \"#utility.yul\":23090:23108   */\n      dup1\n        /* \"#utility.yul\":23080:23082   */\n      tag_576\n      jumpi\n        /* \"#utility.yul\":23146:23150   */\n      0x7f\n        /* \"#utility.yul\":23138:23144   */\n      dup3\n        /* \"#utility.yul\":23134:23151   */\n      and\n        /* \"#utility.yul\":23124:23151   */\n      swap2\n      pop\n        /* \"#utility.yul\":23080:23082   */\n    tag_576:\n        /* \"#utility.yul\":23208:23210   */\n      0x20\n        /* \"#utility.yul\":23200:23206   */\n      dup3\n        /* \"#utility.yul\":23197:23211   */\n      lt\n        /* \"#utility.yul\":23177:23195   */\n      dup2\n        /* \"#utility.yul\":23174:23212   */\n      eq\n        /* \"#utility.yul\":23171:23173   */\n      iszero\n      tag_577\n      jumpi\n        /* \"#utility.yul\":23227:23245   */\n      tag_578\n      tag_579\n      jump\t// in\n    tag_578:\n        /* \"#utility.yul\":23171:23173   */\n    tag_577:\n        /* \"#utility.yul\":22992:23261   */\n      pop\n      swap2\n      swap1\n      pop\n      jump\t// out\n        /* \"#utility.yul\":23267:23548   */\n    tag_528:\n        /* \"#utility.yul\":23350:23377   */\n      tag_581\n        /* \"#utility.yul\":23372:23376   */\n      dup3\n        /* \"#utility.yul\":23350:23377   */\n      tag_405\n      jump\t// in\n    tag_581:\n        /* \"#utility.yul\":23342:23348   */\n      dup2\n        /* \"#utility.yul\":23338:23378   */\n      add\n        /* \"#utility.yul\":23480:23486   */\n      dup2\n        /* \"#utility.yul\":23468:23478   */\n      dup2\n        /* \"#utility.yul\":23465:23487   */\n      lt\n        /* \"#utility.yul\":23444:23462   */\n      0xffffffffffffffff\n        /* \"#utility.yul\":23432:23442   */\n      dup3\n        /* \"#utility.yul\":23429:23463   */\n      gt\n        /* \"#utility.yul\":23426:23488   */\n      or\n        /* \"#utility.yul\":23423:23425   */\n      iszero\n      tag_582\n      jumpi\n        /* \"#utility.yul\":23491:23509   */\n      tag_583\n      tag_533\n      jump\t// in\n    tag_583:\n        /* \"#utility.yul\":23423:23425   */\n    tag_582:\n        /* \"#utility.yul\":23531:23541   */\n      dup1\n        /* \"#utility.yul\":23527:23529   */\n      0x40\n        /* \"#utility.yul\":23520:23542   */\n      mstore\n        /* \"#utility.yul\":23310:23548   */\n      pop\n      pop\n      pop\n      jump\t// out\n        /* \"#utility.yul\":23554:23787   */\n    tag_229:\n        /* \"#utility.yul\":23593:23596   */\n      0x00\n        /* \"#utility.yul\":23616:23640   */\n      tag_585\n        /* \"#utility.yul\":23634:23639   */\n      dup3\n        /* \"#utility.yul\":23616:23640   */\n      tag_483\n      jump\t// in\n    tag_585:\n        /* \"#utility.yul\":23607:23640   */\n      swap2\n      pop\n        /* \"#utility.yul\":23662:23728   */\n      0xffffffffffffffffffffffffffffffffffffffffffffffffffffffffffffffff\n        /* \"#utility.yul\":23655:23660   */\n      dup3\n        /* \"#utility.yul\":23652:23729   */\n      eq\n        /* \"#utility.yul\":23649:23651   */\n      iszero\n      tag_586\n      jumpi\n        /* \"#utility.yul\":23732:23750   */\n      tag_587\n      tag_549\n      jump\t// in\n    tag_587:\n        /* \"#utility.yul\":23649:23651   */\n    tag_586:\n        /* \"#utility.yul\":23779:23780   */\n      0x01\n        /* \"#utility.yul\":23772:23777   */\n      dup3\n        /* \"#utility.yul\":23768:23781   */\n      add\n        /* \"#utility.yul\":23761:23781   */\n      swap1\n      pop\n        /* \"#utility.yul\":23597:23787   */\n      swap2\n      swap1\n      pop\n      jump\t// out\n        /* \"#utility.yul\":23793:23969   */\n    tag_239:\n        /* \"#utility.yul\":23825:23826   */\n      0x00\n        /* \"#utility.yul\":23842:23862   */\n      tag_589\n        /* \"#utility.yul\":23860:23861   */\n      dup3\n        /* \"#utility.yul\":23842:23862   */\n      tag_483\n      jump\t// in\n    tag_589:\n        /* \"#utility.yul\":23837:23862   */\n      swap2\n      pop\n        /* \"#utility.yul\":23876:23896   */\n      tag_590\n        /* \"#utility.yul\":23894:23895   */\n      dup4\n        /* \"#utility.yul\":23876:23896   */\n      tag_483\n      jump\t// in\n    tag_590:\n        /* \"#utility.yul\":23871:23896   */\n      swap3\n      pop\n        /* \"#utility.yul\":23915:23916   */\n      dup3\n        /* \"#utility.yul\":23905:23907   */\n      tag_591\n      jumpi\n        /* \"#utility.yul\":23920:23938   */\n      tag_592\n      tag_555\n      jump\t// in\n    tag_592:\n        /* \"#utility.yul\":23905:23907   */\n    tag_591:\n        /* \"#utility.yul\":23961:23962   */\n      dup3\n        /* \"#utility.yul\":23958:23959   */\n      dup3\n        /* \"#utility.yul\":23954:23963   */\n      mod\n        /* \"#utility.yul\":23949:23963   */\n      swap1\n      pop\n        /* \"#utility.yul\":23827:23969   */\n      swap3\n      swap2\n      pop\n      pop\n      jump\t// out\n        /* \"#utility.yul\":23975:24155   */\n    tag_549:\n        /* \"#utility.yul\":24023:24100   */\n      0x4e487b7100000000000000000000000000000000000000000000000000000000\n        /* \"#utility.yul\":24020:24021   */\n      0x00\n        /* \"#utility.yul\":24013:24101   */\n      mstore\n        /* \"#utility.yul\":24120:24124   */\n      0x11\n        /* \"#utility.yul\":24117:24118   */\n      0x04\n        /* \"#utility.yul\":24110:24125   */\n      mstore\n        /* \"#utility.yul\":24144:24148   */\n      0x24\n        /* \"#utility.yul\":24141:24142   */\n      0x00\n        /* \"#utility.yul\":24134:24149   */\n      revert\n        /* \"#utility.yul\":24161:24341   */\n    tag_555:\n        /* \"#utility.yul\":24209:24286   */\n      0x4e487b7100000000000000000000000000000000000000000000000000000000\n        /* \"#utility.yul\":24206:24207   */\n      0x00\n        /* \"#utility.yul\":24199:24287   */\n      mstore\n        /* \"#utility.yul\":24306:24310   */\n      0x12\n        /* \"#utility.yul\":24303:24304   */\n      0x04\n        /* \"#utility.yul\":24296:24311   */\n      mstore\n        /* \"#utility.yul\":24330:24334   */\n      0x24\n        /* \"#utility.yul\":24327:24328   */\n      0x00\n        /* \"#utility.yul\":24320:24335   */\n      revert\n        /* \"#utility.yul\":24347:24527   */\n    tag_579:\n        /* \"#utility.yul\":24395:24472   */\n      0x4e487b7100000000000000000000000000000000000000000000000000000000\n        /* \"#utility.yul\":24392:24393   */\n      0x00\n        /* \"#utility.yul\":24385:24473   */\n      mstore\n        /* \"#utility.yul\":24492:24496   */\n      0x22\n        /* \"#utility.yul\":24489:24490   */\n      0x04\n        /* \"#utility.yul\":24482:24497   */\n      mstore\n        /* \"#utility.yul\":24516:24520   */\n      0x24\n        /* \"#utility.yul\":24513:24514   */\n      0x00\n        /* \"#utility.yul\":24506:24521   */\n      revert\n        /* \"#utility.yul\":24533:24713   */\n    tag_533:\n        /* \"#utility.yul\":24581:24658   */\n      0x4e487b7100000000000000000000000000000000000000000000000000000000\n        /* \"#utility.yul\":24578:24579   */\n      0x00\n        /* \"#utility.yul\":24571:24659   */\n      mstore\n        /* \"#utility.yul\":24678:24682   */\n      0x41\n        /* \"#utility.yul\":24675:24676   */\n      0x04\n        /* \"#utility.yul\":24668:24683   */\n      mstore\n        /* \"#utility.yul\":24702:24706   */\n      0x24\n        /* \"#utility.yul\":24699:24700   */\n      0x00\n        /* \"#utility.yul\":24692:24707   */\n      revert\n        /* \"#utility.yul\":24719:24821   */\n    tag_405:\n        /* \"#utility.yul\":24760:24766   */\n      0x00\n        /* \"#utility.yul\":24811:24813   */\n      0x1f\n        /* \"#utility.yul\":24807:24814   */\n      not\n        /* \"#utility.yul\":24802:24804   */\n      0x1f\n        /* \"#utility.yul\":24795:24800   */\n      dup4\n        /* \"#utility.yul\":24791:24805   */\n      add\n        /* \"#utility.yul\":24787:24815   */\n      and\n        /* \"#utility.yul\":24777:24815   */\n      swap1\n      pop\n        /* \"#utility.yul\":24767:24821   */\n      swap2\n      swap1\n      pop\n      jump\t// out\n        /* \"#utility.yul\":24827:25059   */\n    tag_424:\n        /* \"#utility.yul\":24967:25001   */\n      0x4552433732313a2063616c6c6572206973206e6f7420746f6b656e206f776e65\n        /* \"#utility.yul\":24963:24964   */\n      0x00\n        /* \"#utility.yul\":24955:24961   */\n      dup3\n        /* \"#utility.yul\":24951:24965   */\n      add\n        /* \"#utility.yul\":24944:25002   */\n      mstore\n        /* \"#utility.yul\":25036:25051   */\n      0x72206f7220617070726f76656400000000000000000000000000000000000000\n        /* \"#utility.yul\":25031:25033   */\n      0x20\n        /* \"#utility.yul\":25023:25029   */\n      dup3\n        /* \"#utility.yul\":25019:25034   */\n      add\n        /* \"#utility.yul\":25012:25052   */\n      mstore\n        /* \"#utility.yul\":24933:25059   */\n      pop\n      jump\t// out\n        /* \"#utility.yul\":25065:25302   */\n    tag_429:\n        /* \"#utility.yul\":25205:25239   */\n      0x4552433732313a207472616e7366657220746f206e6f6e204552433732315265\n        /* \"#utility.yul\":25201:25202   */\n      0x00\n        /* \"#utility.yul\":25193:25199   */\n      dup3\n        /* \"#utility.yul\":25189:25203   */\n      add\n        /* \"#utility.yul\":25182:25240   */\n      mstore\n        /* \"#utility.yul\":25274:25294   */\n      0x63656976657220696d706c656d656e7465720000000000000000000000000000\n        /* \"#utility.yul\":25269:25271   */\n      0x20\n        /* \"#utility.yul\":25261:25267   */\n      dup3\n        /* \"#utility.yul\":25257:25272   */\n      add\n        /* \"#utility.yul\":25250:25295   */\n      mstore\n        /* \"#utility.yul\":25171:25302   */\n      pop\n      jump\t// out\n        /* \"#utility.yul\":25308:25532   */\n    tag_434:\n        /* \"#utility.yul\":25448:25482   */\n      0x4552433732313a207472616e736665722066726f6d20696e636f727265637420\n        /* \"#utility.yul\":25444:25445   */\n      0x00\n        /* \"#utility.yul\":25436:25442   */\n      dup3\n        /* \"#utility.yul\":25432:25446   */\n      add\n        /* \"#utility.yul\":25425:25483   */\n      mstore\n        /* \"#utility.yul\":25517:25524   */\n      0x6f776e6572000000000000000000000000000000000000000000000000000000\n        /* \"#utility.yul\":25512:25514   */\n      0x20\n        /* \"#utility.yul\":25504:25510   */\n      dup3\n        /* \"#utility.yul\":25500:25515   */\n      add\n        /* \"#utility.yul\":25493:25525   */\n      mstore\n        /* \"#utility.yul\":25414:25532   */\n      pop\n      jump\t// out\n        /* \"#utility.yul\":25538:25716   */\n    tag_439:\n        /* \"#utility.yul\":25678:25708   */\n      0x4552433732313a20746f6b656e20616c7265616479206d696e74656400000000\n        /* \"#utility.yul\":25674:25675   */\n      0x00\n        /* \"#utility.yul\":25666:25672   */\n      dup3\n        /* \"#utility.yul\":25662:25676   */\n      add\n        /* \"#utility.yul\":25655:25709   */\n      mstore\n        /* \"#utility.yul\":25644:25716   */\n      pop\n      jump\t// out\n        /* \"#utility.yul\":25722:25945   */\n    tag_444:\n        /* \"#utility.yul\":25862:25896   */\n      0x4552433732313a207472616e7366657220746f20746865207a65726f20616464\n        /* \"#utility.yul\":25858:25859   */\n      0x00\n        /* \"#utility.yul\":25850:25856   */\n      dup3\n        /* \"#utility.yul\":25846:25860   */\n      add\n        /* \"#utility.yul\":25839:25897   */\n      mstore\n        /* \"#utility.yul\":25931:25937   */\n      0x7265737300000000000000000000000000000000000000000000000000000000\n        /* \"#utility.yul\":25926:25928   */\n      0x20\n        /* \"#utility.yul\":25918:25924   */\n      dup3\n        /* \"#utility.yul\":25914:25929   */\n      add\n        /* \"#utility.yul\":25907:25938   */\n      mstore\n        /* \"#utility.yul\":25828:25945   */\n      pop\n      jump\t// out\n        /* \"#utility.yul\":25951:26126   */\n    tag_449:\n        /* \"#utility.yul\":26091:26118   */\n      0x4552433732313a20617070726f766520746f2063616c6c657200000000000000\n        /* \"#utility.yul\":26087:26088   */\n      0x00\n        /* \"#utility.yul\":26079:26085   */\n      dup3\n        /* \"#utility.yul\":26075:26089   */\n      add\n        /* \"#utility.yul\":26068:26119   */\n      mstore\n        /* \"#utility.yul\":26057:26126   */\n      pop\n      jump\t// out\n        /* \"#utility.yul\":26132:26360   */\n    tag_454:\n        /* \"#utility.yul\":26272:26306   */\n      0x4552433732313a2061646472657373207a65726f206973206e6f742061207661\n        /* \"#utility.yul\":26268:26269   */\n      0x00\n        /* \"#utility.yul\":26260:26266   */\n      dup3\n        /* \"#utility.yul\":26256:26270   */\n      add\n        /* \"#utility.yul\":26249:26307   */\n      mstore\n        /* \"#utility.yul\":26341:26352   */\n      0x6c6964206f776e65720000000000000000000000000000000000000000000000\n        /* \"#utility.yul\":26336:26338   */\n      0x20\n        /* \"#utility.yul\":26328:26334   */\n      dup3\n        /* \"#utility.yul\":26324:26339   */\n      add\n        /* \"#utility.yul\":26317:26353   */\n      mstore\n        /* \"#utility.yul\":26238:26360   */\n      pop\n      jump\t// out\n        /* \"#utility.yul\":26366:26599   */\n    tag_459:\n        /* \"#utility.yul\":26506:26540   */\n      0x45524337323155524953746f726167653a2055524920736574206f66206e6f6e\n        /* \"#utility.yul\":26502:26503   */\n      0x00\n        /* \"#utility.yul\":26494:26500   */\n      dup3\n        /* \"#utility.yul\":26490:26504   */\n      add\n        /* \"#utility.yul\":26483:26541   */\n      mstore\n        /* \"#utility.yul\":26575:26591   */\n      0x6578697374656e7420746f6b656e000000000000000000000000000000000000\n        /* \"#utility.yul\":26570:26572   */\n      0x20\n        /* \"#utility.yul\":26562:26568   */\n      dup3\n        /* \"#utility.yul\":26558:26573   */\n      add\n        /* \"#utility.yul\":26551:26592   */\n      mstore\n        /* \"#utility.yul\":26472:26599   */\n      pop\n      jump\t// out\n        /* \"#utility.yul\":26605:26787   */\n    tag_464:\n        /* \"#utility.yul\":26745:26779   */\n      0x4552433732313a206d696e7420746f20746865207a65726f2061646472657373\n        /* \"#utility.yul\":26741:26742   */\n      0x00\n        /* \"#utility.yul\":26733:26739   */\n      dup3\n        /* \"#utility.yul\":26729:26743   */\n      add\n        /* \"#utility.yul\":26722:26780   */\n      mstore\n        /* \"#utility.yul\":26711:26787   */\n      pop\n      jump\t// out\n        /* \"#utility.yul\":26793:26967   */\n    tag_469:\n        /* \"#utility.yul\":26933:26959   */\n      0x4552433732313a20696e76616c696420746f6b656e2049440000000000000000\n        /* \"#utility.yul\":26929:26930   */\n      0x00\n        /* \"#utility.yul\":26921:26927   */\n      dup3\n        /* \"#utility.yul\":26917:26931   */\n      add\n        /* \"#utility.yul\":26910:26960   */\n      mstore\n        /* \"#utility.yul\":26899:26967   */\n      pop\n      jump\t// out\n        /* \"#utility.yul\":26973:27193   */\n    tag_474:\n        /* \"#utility.yul\":27113:27147   */\n      0x4552433732313a20617070726f76616c20746f2063757272656e74206f776e65\n        /* \"#utility.yul\":27109:27110   */\n      0x00\n        /* \"#utility.yul\":27101:27107   */\n      dup3\n        /* \"#utility.yul\":27097:27111   */\n      add\n        /* \"#utility.yul\":27090:27148   */\n      mstore\n        /* \"#utility.yul\":27182:27185   */\n      0x7200000000000000000000000000000000000000000000000000000000000000\n        /* \"#utility.yul\":27177:27179   */\n      0x20\n        /* \"#utility.yul\":27169:27175   */\n      dup3\n        /* \"#utility.yul\":27165:27180   */\n      add\n        /* \"#utility.yul\":27158:27186   */\n      mstore\n        /* \"#utility.yul\":27079:27193   */\n      pop\n      jump\t// out\n        /* \"#utility.yul\":27199:27447   */\n    tag_479:\n        /* \"#utility.yul\":27339:27373   */\n      0x4552433732313a20617070726f76652063616c6c6572206973206e6f7420746f\n        /* \"#utility.yul\":27335:27336   */\n      0x00\n        /* \"#utility.yul\":27327:27333   */\n      dup3\n        /* \"#utility.yul\":27323:27337   */\n      add\n        /* \"#utility.yul\":27316:27374   */\n      mstore\n        /* \"#utility.yul\":27408:27439   */\n      0x6b656e206f776e6572206f7220617070726f76656420666f7220616c6c000000\n        /* \"#utility.yul\":27403:27405   */\n      0x20\n        /* \"#utility.yul\":27395:27401   */\n      dup3\n        /* \"#utility.yul\":27391:27406   */\n      add\n        /* \"#utility.yul\":27384:27440   */\n      mstore\n        /* \"#utility.yul\":27305:27447   */\n      pop\n      jump\t// out\n        /* \"#utility.yul\":27453:27575   */\n    tag_321:\n        /* \"#utility.yul\":27526:27550   */\n      tag_611\n        /* \"#utility.yul\":27544:27549   */\n      dup2\n        /* \"#utility.yul\":27526:27550   */\n      tag_391\n      jump\t// in\n    tag_611:\n        /* \"#utility.yul\":27519:27524   */\n      dup2\n        /* \"#utility.yul\":27516:27551   */\n      eq\n        /* \"#utility.yul\":27506:27508   */\n      tag_612\n      jumpi\n        /* \"#utility.yul\":27565:27566   */\n      0x00\n        /* \"#utility.yul\":27562:27563   */\n      dup1\n        /* \"#utility.yul\":27555:27567   */\n      revert\n        /* \"#utility.yul\":27506:27508   */\n    tag_612:\n        /* \"#utility.yul\":27496:27575   */\n      pop\n      jump\t// out\n        /* \"#utility.yul\":27581:27697   */\n    tag_325:\n        /* \"#utility.yul\":27651:27672   */\n      tag_614\n        /* \"#utility.yul\":27666:27671   */\n      dup2\n        /* \"#utility.yul\":27651:27672   */\n      tag_395\n      jump\t// in\n    tag_614:\n        /* \"#utility.yul\":27644:27649   */\n      dup2\n        /* \"#utility.yul\":27641:27673   */\n      eq\n        /* \"#utility.yul\":27631:27633   */\n      tag_615\n      jumpi\n        /* \"#utility.yul\":27687:27688   */\n      0x00\n        /* \"#utility.yul\":27684:27685   */\n      dup1\n        /* \"#utility.yul\":27677:27689   */\n      revert\n        /* \"#utility.yul\":27631:27633   */\n    tag_615:\n        /* \"#utility.yul\":27621:27697   */\n      pop\n      jump\t// out\n        /* \"#utility.yul\":27703:27823   */\n    tag_329:\n        /* \"#utility.yul\":27775:27798   */\n      tag_617\n        /* \"#utility.yul\":27792:27797   */\n      dup2\n        /* \"#utility.yul\":27775:27798   */\n      tag_565\n      jump\t// in\n    tag_617:\n        /* \"#utility.yul\":27768:27773   */\n      dup2\n        /* \"#utility.yul\":27765:27799   */\n      eq\n        /* \"#utility.yul\":27755:27757   */\n      tag_618\n      jumpi\n        /* \"#utility.yul\":27813:27814   */\n      0x00\n        /* \"#utility.yul\":27810:27811   */\n      dup1\n        /* \"#utility.yul\":27803:27815   */\n      revert\n        /* \"#utility.yul\":27755:27757   */\n    tag_618:\n        /* \"#utility.yul\":27745:27823   */\n      pop\n      jump\t// out\n        /* \"#utility.yul\":27829:27951   */\n    tag_344:\n        /* \"#utility.yul\":27902:27926   */\n      tag_620\n        /* \"#utility.yul\":27920:27925   */\n      dup2\n        /* \"#utility.yul\":27902:27926   */\n      tag_483\n      jump\t// in\n    tag_620:\n        /* \"#utility.yul\":27895:27900   */\n      dup2\n        /* \"#utility.yul\":27892:27927   */\n      eq\n        /* \"#utility.yul\":27882:27884   */\n      tag_621\n      jumpi\n        /* \"#utility.yul\":27941:27942   */\n      0x00\n        /* \"#utility.yul\":27938:27939   */\n      dup1\n        /* \"#utility.yul\":27931:27943   */\n      revert\n        /* \"#utility.yul\":27882:27884   */\n    tag_621:\n        /* \"#utility.yul\":27872:27951   */\n      pop\n      jump\t// out\n\n    auxdata: 0xa2646970667358221220ba0f223c743643a06b3d91f4f9e9e4ff02642ddd9807de9bab8277a176eb614264736f6c63430008040033\n}\n",
				"bytecode": {
					"linkReferences": {},
					"object": "60806040523480156200001157600080fd5b5060405162002db238038062002db2833981810160405281019062000037919062000193565b81600090805190602001906200004f92919062000071565b5080600190805190602001906200006892919062000071565b50505062000376565b8280546200007f906200029b565b90600052602060002090601f016020900481019282620000a35760008555620000ef565b82601f10620000be57805160ff1916838001178555620000ef565b82800160010185558215620000ef579182015b82811115620000ee578251825591602001919060010190620000d1565b5b509050620000fe919062000102565b5090565b5b808211156200011d57600081600090555060010162000103565b5090565b60006200013862000132846200022f565b62000206565b9050828152602081018484840111156200015157600080fd5b6200015e84828562000265565b509392505050565b600082601f8301126200017857600080fd5b81516200018a84826020860162000121565b91505092915050565b60008060408385031215620001a757600080fd5b600083015167ffffffffffffffff811115620001c257600080fd5b620001d08582860162000166565b925050602083015167ffffffffffffffff811115620001ee57600080fd5b620001fc8582860162000166565b9150509250929050565b60006200021262000225565b9050620002208282620002d1565b919050565b6000604051905090565b600067ffffffffffffffff8211156200024d576200024c62000336565b5b620002588262000365565b9050602081019050919050565b60005b838110156200028557808201518184015260208101905062000268565b8381111562000295576000848401525b50505050565b60006002820490506001821680620002b457607f821691505b60208210811415620002cb57620002ca62000307565b5b50919050565b620002dc8262000365565b810181811067ffffffffffffffff82111715620002fe57620002fd62000336565b5b80604052505050565b7f4e487b7100000000000000000000000000000000000000000000000000000000600052602260045260246000fd5b7f4e487b7100000000000000000000000000000000000000000000000000000000600052604160045260246000fd5b6000601f19601f8301169050919050565b612a2c80620003866000396000f3fe608060405234801561001057600080fd5b50600436106100f55760003560e01c80636352211e11610097578063b85cbc7911610066578063b85cbc7914610296578063b88d4fde146102b2578063c87b56dd146102ce578063e985e9c5146102fe576100f5565b80636352211e146101fc57806370a082311461022c57806395d89b411461025c578063a22cb4651461027a576100f5565b8063095ea7b3116100d3578063095ea7b31461017857806323b872dd1461019457806342842e0e146101b057806352e04825146101cc576100f5565b806301ffc9a7146100fa57806306fdde031461012a578063081812fc14610148575b600080fd5b610114600480360381019061010f9190611d47565b61032e565b60405161012191906120c1565b60405180910390f35b610132610410565b60405161013f91906120dc565b60405180910390f35b610162600480360381019061015d9190611d99565b6104a2565b60405161016f919061205a565b60405180910390f35b610192600480360381019061018d9190611d0b565b6104e8565b005b6101ae60048036038101906101a99190611b8a565b610600565b005b6101ca60048036038101906101c59190611b8a565b610660565b005b6101e660048036038101906101e19190611d99565b610680565b6040516101f3919061205a565b60405180910390f35b61021660048036038101906102119190611d99565b610732565b604051610223919061205a565b60405180910390f35b61024660048036038101906102419190611b25565b6107e4565b604051610253919061227e565b60405180910390f35b61026461089c565b60405161027191906120dc565b60405180910390f35b610294600480360381019061028f9190611ccf565b61092e565b005b6102b060048036038101906102ab9190611c54565b610944565b005b6102cc60048036038101906102c79190611bd9565b61095f565b005b6102e860048036038101906102e39190611d99565b6109c1565b6040516102f591906120dc565b60405180910390f35b61031860048036038101906103139190611b4e565b610a29565b60405161032591906120c1565b60405180910390f35b60007f80ac58cd000000000000000000000000000000000000000000000000000000007bffffffffffffffffffffffffffffffffffffffffffffffffffffffff1916827bffffffffffffffffffffffffffffffffffffffffffffffffffffffff191614806103f957507f5b5e139f000000000000000000000000000000000000000000000000000000007bffffffffffffffffffffffffffffffffffffffffffffffffffffffff1916827bffffffffffffffffffffffffffffffffffffffffffffffffffffffff1916145b80610409575061040882610abd565b5b9050919050565b60606000805461041f906124d4565b80601f016020809104026020016040519081016040528092919081815260200182805461044b906124d4565b80156104985780601f1061046d57610100808354040283529160200191610498565b820191906000526020600020905b81548152906001019060200180831161047b57829003601f168201915b5050505050905090565b60006104ad82610b27565b6005600083815260200190815260200160002060009054906101000a900473ffffffffffffffffffffffffffffffffffffffff169050919050565b60006104f382610732565b90508073ffffffffffffffffffffffffffffffffffffffff168373ffffffffffffffffffffffffffffffffffffffff161415610564576040517f08c379a000000000000000000000000000000000000000000000000000000000815260040161055b9061223e565b60405180910390fd5b8073ffffffffffffffffffffffffffffffffffffffff16610583610b72565b73ffffffffffffffffffffffffffffffffffffffff1614806105b257506105b1816105ac610b72565b610a29565b5b6105f1576040517f08c379a00000000000000000000000000000000000000000000000000000000081526004016105e89061225e565b60405180910390fd5b6105fb8383610b7a565b505050565b61061161060b610b72565b82610c33565b610650576040517f08c379a0000000000000000000000000000000000000000000000000000000008152600401610647906120fe565b60405180910390fd5b61065b838383610cc8565b505050565b61067b8383836040518060200160405280600081525061095f565b505050565b6000806003600084815260200190815260200160002060009054906101000a900473ffffffffffffffffffffffffffffffffffffffff169050600073ffffffffffffffffffffffffffffffffffffffff168173ffffffffffffffffffffffffffffffffffffffff161415610729576040517f08c379a00000000000000000000000000000000000000000000000000000000081526004016107209061221e565b60405180910390fd5b80915050919050565b6000806002600084815260200190815260200160002060009054906101000a900473ffffffffffffffffffffffffffffffffffffffff169050600073ffffffffffffffffffffffffffffffffffffffff168173ffffffffffffffffffffffffffffffffffffffff1614156107db576040517f08c379a00000000000000000000000000000000000000000000000000000000081526004016107d29061221e565b60405180910390fd5b80915050919050565b60008073ffffffffffffffffffffffffffffffffffffffff168273ffffffffffffffffffffffffffffffffffffffff161415610855576040517f08c379a000000000000000000000000000000000000000000000000000000000815260040161084c906121be565b60405180910390fd5b600460008373ffffffffffffffffffffffffffffffffffffffff1673ffffffffffffffffffffffffffffffffffffffff168152602001908152602001600020549050919050565b6060600180546108ab906124d4565b80601f01602080910402602001604051908101604052809291908181526020018280546108d7906124d4565b80156109245780601f106108f957610100808354040283529160200191610924565b820191906000526020600020905b81548152906001019060200180831161090757829003601f168201915b5050505050905090565b610940610939610b72565b8383610fbe565b5050565b61094f84848461112b565b610959828261114b565b50505050565b61097061096a610b72565b83610c33565b6109af576040517f08c379a00000000000000000000000000000000000000000000000000000000081526004016109a6906120fe565b60405180910390fd5b6109bb848484846111bf565b50505050565b60606109cc82610b27565b60006109d661121b565b905060008151116109f65760405180602001604052806000815250610a21565b80610a0084611232565b604051602001610a11929190612036565b6040516020818303038152906040525b915050919050565b6000600660008473ffffffffffffffffffffffffffffffffffffffff1673ffffffffffffffffffffffffffffffffffffffff16815260200190815260200160002060008373ffffffffffffffffffffffffffffffffffffffff1673ffffffffffffffffffffffffffffffffffffffff16815260200190815260200160002060009054906101000a900460ff16905092915050565b60007f01ffc9a7000000000000000000000000000000000000000000000000000000007bffffffffffffffffffffffffffffffffffffffffffffffffffffffff1916827bffffffffffffffffffffffffffffffffffffffffffffffffffffffff1916149050919050565b610b30816113df565b610b6f576040517f08c379a0000000000000000000000000000000000000000000000000000000008152600401610b669061221e565b60405180910390fd5b50565b600033905090565b816005600083815260200190815260200160002060006101000a81548173ffffffffffffffffffffffffffffffffffffffff021916908373ffffffffffffffffffffffffffffffffffffffff160217905550808273ffffffffffffffffffffffffffffffffffffffff16610bed83610732565b73ffffffffffffffffffffffffffffffffffffffff167f8c5be1e5ebec7d5bd14f71427d1e84f3dd0314c0f7b2291e5b200ac8c7c3b92560405160405180910390a45050565b600080610c3f83610732565b90508073ffffffffffffffffffffffffffffffffffffffff168473ffffffffffffffffffffffffffffffffffffffff161480610c815750610c808185610a29565b5b80610cbf57508373ffffffffffffffffffffffffffffffffffffffff16610ca7846104a2565b73ffffffffffffffffffffffffffffffffffffffff16145b91505092915050565b8273ffffffffffffffffffffffffffffffffffffffff16610ce882610732565b73ffffffffffffffffffffffffffffffffffffffff1614610d3e576040517f08c379a0000000000000000000000000000000000000000000000000000000008152600401610d359061213e565b60405180910390fd5b600073ffffffffffffffffffffffffffffffffffffffff168273ffffffffffffffffffffffffffffffffffffffff161415610dae576040517f08c379a0000000000000000000000000000000000000000000000000000000008152600401610da59061217e565b60405180910390fd5b610db983838361144b565b8273ffffffffffffffffffffffffffffffffffffffff16610dd982610732565b73ffffffffffffffffffffffffffffffffffffffff1614610e2f576040517f08c379a0000000000000000000000000000000000000000000000000000000008152600401610e269061213e565b60405180910390fd5b6005600082815260200190815260200160002060006101000a81549073ffffffffffffffffffffffffffffffffffffffff02191690556001600460008573ffffffffffffffffffffffffffffffffffffffff1673ffffffffffffffffffffffffffffffffffffffff168152602001908152602001600020600082825403925050819055506001600460008473ffffffffffffffffffffffffffffffffffffffff1673ffffffffffffffffffffffffffffffffffffffff16815260200190815260200160002060008282540192505081905550816002600083815260200190815260200160002060006101000a81548173ffffffffffffffffffffffffffffffffffffffff021916908373ffffffffffffffffffffffffffffffffffffffff160217905550808273ffffffffffffffffffffffffffffffffffffffff168473ffffffffffffffffffffffffffffffffffffffff167fddf252ad1be2c89b69c2b068fc378daa952ba7f163c4a11628f55a4df523b3ef60405160405180910390a4610fb9838383611450565b505050565b8173ffffffffffffffffffffffffffffffffffffffff168373ffffffffffffffffffffffffffffffffffffffff16141561102d576040517f08c379a00000000000000000000000000000000000000000000000000000000081526004016110249061219e565b60405180910390fd5b80600660008573ffffffffffffffffffffffffffffffffffffffff1673ffffffffffffffffffffffffffffffffffffffff16815260200190815260200160002060008473ffffffffffffffffffffffffffffffffffffffff1673ffffffffffffffffffffffffffffffffffffffff16815260200190815260200160002060006101000a81548160ff0219169083151502179055508173ffffffffffffffffffffffffffffffffffffffff168373ffffffffffffffffffffffffffffffffffffffff167f17307eab39ab6107e8899845ad3d59bd9653f200f220920489ca2b5937696c318360405161111e91906120c1565b60405180910390a3505050565b61114683838360405180602001604052806000815250611455565b505050565b611154826113df565b611193576040517f08c379a000000000000000000000000000000000000000000000000000000000815260040161118a906121de565b60405180910390fd5b806007600084815260200190815260200160002090805190602001906111ba929190611949565b505050565b6111ca848484610cc8565b6111d6848484846114b2565b611215576040517f08c379a000000000000000000000000000000000000000000000000000000000815260040161120c9061211e565b60405180910390fd5b50505050565b606060405180602001604052806000815250905090565b6060600082141561127a576040518060400160405280600181526020017f300000000000000000000000000000000000000000000000000000000000000081525090506113da565b600082905060005b600082146112ac57808061129590612537565b915050600a826112a591906123b9565b9150611282565b60008167ffffffffffffffff8111156112ee577f4e487b7100000000000000000000000000000000000000000000000000000000600052604160045260246000fd5b6040519080825280601f01601f1916602001820160405280156113205781602001600182028036833780820191505090505b5090505b600085146113d35760018261133991906123ea565b9150600a856113489190612580565b60306113549190612363565b60f81b818381518110611390577f4e487b7100000000000000000000000000000000000000000000000000000000600052603260045260246000fd5b60200101907effffffffffffffffffffffffffffffffffffffffffffffffffffffffffffff1916908160001a905350600a856113cc91906123b9565b9450611324565b8093505050505b919050565b60008073ffffffffffffffffffffffffffffffffffffffff166002600084815260200190815260200160002060009054906101000a900473ffffffffffffffffffffffffffffffffffffffff1673ffffffffffffffffffffffffffffffffffffffff1614159050919050565b505050565b505050565b611460848484611649565b61146d60008584846114b2565b6114ac576040517f08c379a00000000000000000000000000000000000000000000000000000000081526004016114a39061211e565b60405180910390fd5b50505050565b60006114d38473ffffffffffffffffffffffffffffffffffffffff16611926565b1561163c578373ffffffffffffffffffffffffffffffffffffffff1663150b7a026114fc610b72565b8786866040518563ffffffff1660e01b815260040161151e9493929190612075565b602060405180830381600087803b15801561153857600080fd5b505af192505050801561156957506040513d601f19601f820116820180604052508101906115669190611d70565b60015b6115ec573d8060008114611599576040519150601f19603f3d011682016040523d82523d6000602084013e61159e565b606091505b506000815114156115e4576040517f08c379a00000000000000000000000000000000000000000000000000000000081526004016115db9061211e565b60405180910390fd5b805181602001fd5b63150b7a0260e01b7bffffffffffffffffffffffffffffffffffffffffffffffffffffffff1916817bffffffffffffffffffffffffffffffffffffffffffffffffffffffff191614915050611641565b600190505b949350505050565b600073ffffffffffffffffffffffffffffffffffffffff168373ffffffffffffffffffffffffffffffffffffffff1614156116b9576040517f08c379a00000000000000000000000000000000000000000000000000000000081526004016116b0906121fe565b60405180910390fd5b600073ffffffffffffffffffffffffffffffffffffffff168273ffffffffffffffffffffffffffffffffffffffff161415611729576040517f08c379a0000000000000000000000000000000000000000000000000000000008152600401611720906121fe565b60405180910390fd5b611732816113df565b15611772576040517f08c379a00000000000000000000000000000000000000000000000000000000081526004016117699061215e565b60405180910390fd5b61177e6000848361144b565b611787816113df565b156117c7576040517f08c379a00000000000000000000000000000000000000000000000000000000081526004016117be9061215e565b60405180910390fd5b6001600460008573ffffffffffffffffffffffffffffffffffffffff1673ffffffffffffffffffffffffffffffffffffffff16815260200190815260200160002060008282540192505081905550826002600083815260200190815260200160002060006101000a81548173ffffffffffffffffffffffffffffffffffffffff021916908373ffffffffffffffffffffffffffffffffffffffff160217905550816003600083815260200190815260200160002060006101000a81548173ffffffffffffffffffffffffffffffffffffffff021916908373ffffffffffffffffffffffffffffffffffffffff160217905550808373ffffffffffffffffffffffffffffffffffffffff16600073ffffffffffffffffffffffffffffffffffffffff167fddf252ad1be2c89b69c2b068fc378daa952ba7f163c4a11628f55a4df523b3ef60405160405180910390a461192160008483611450565b505050565b6000808273ffffffffffffffffffffffffffffffffffffffff163b119050919050565b828054611955906124d4565b90600052602060002090601f01602090048101928261197757600085556119be565b82601f1061199057805160ff19168380011785556119be565b828001600101855582156119be579182015b828111156119bd5782518255916020019190600101906119a2565b5b5090506119cb91906119cf565b5090565b5b808211156119e85760008160009055506001016119d0565b5090565b60006119ff6119fa846122be565b612299565b905082815260208101848484011115611a1757600080fd5b611a22848285612492565b509392505050565b6000611a3d611a38846122ef565b612299565b905082815260208101848484011115611a5557600080fd5b611a60848285612492565b509392505050565b600081359050611a778161299a565b92915050565b600081359050611a8c816129b1565b92915050565b600081359050611aa1816129c8565b92915050565b600081519050611ab6816129c8565b92915050565b600082601f830112611acd57600080fd5b8135611add8482602086016119ec565b91505092915050565b600082601f830112611af757600080fd5b8135611b07848260208601611a2a565b91505092915050565b600081359050611b1f816129df565b92915050565b600060208284031215611b3757600080fd5b6000611b4584828501611a68565b91505092915050565b60008060408385031215611b6157600080fd5b6000611b6f85828601611a68565b9250506020611b8085828601611a68565b9150509250929050565b600080600060608486031215611b9f57600080fd5b6000611bad86828701611a68565b9350506020611bbe86828701611a68565b9250506040611bcf86828701611b10565b9150509250925092565b60008060008060808587031215611bef57600080fd5b6000611bfd87828801611a68565b9450506020611c0e87828801611a68565b9350506040611c1f87828801611b10565b925050606085013567ffffffffffffffff811115611c3c57600080fd5b611c4887828801611abc565b91505092959194509250565b60008060008060808587031215611c6a57600080fd5b6000611c7887828801611a68565b9450506020611c8987828801611a68565b9350506040611c9a87828801611b10565b925050606085013567ffffffffffffffff811115611cb757600080fd5b611cc387828801611ae6565b91505092959194509250565b60008060408385031215611ce257600080fd5b6000611cf085828601611a68565b9250506020611d0185828601611a7d565b9150509250929050565b60008060408385031215611d1e57600080fd5b6000611d2c85828601611a68565b9250506020611d3d85828601611b10565b9150509250929050565b600060208284031215611d5957600080fd5b6000611d6784828501611a92565b91505092915050565b600060208284031215611d8257600080fd5b6000611d9084828501611aa7565b91505092915050565b600060208284031215611dab57600080fd5b6000611db984828501611b10565b91505092915050565b611dcb8161241e565b82525050565b611dda81612430565b82525050565b6000611deb82612320565b611df58185612336565b9350611e058185602086016124a1565b611e0e8161266d565b840191505092915050565b6000611e248261232b565b611e2e8185612347565b9350611e3e8185602086016124a1565b611e478161266d565b840191505092915050565b6000611e5d8261232b565b611e678185612358565b9350611e778185602086016124a1565b80840191505092915050565b6000611e90602d83612347565b9150611e9b8261267e565b604082019050919050565b6000611eb3603283612347565b9150611ebe826126cd565b604082019050919050565b6000611ed6602583612347565b9150611ee18261271c565b604082019050919050565b6000611ef9601c83612347565b9150611f048261276b565b602082019050919050565b6000611f1c602483612347565b9150611f2782612794565b604082019050919050565b6000611f3f601983612347565b9150611f4a826127e3565b602082019050919050565b6000611f62602983612347565b9150611f6d8261280c565b604082019050919050565b6000611f85602e83612347565b9150611f908261285b565b604082019050919050565b6000611fa8602083612347565b9150611fb3826128aa565b602082019050919050565b6000611fcb601883612347565b9150611fd6826128d3565b602082019050919050565b6000611fee602183612347565b9150611ff9826128fc565b604082019050919050565b6000612011603d83612347565b915061201c8261294b565b604082019050919050565b61203081612488565b82525050565b60006120428285611e52565b915061204e8284611e52565b91508190509392505050565b600060208201905061206f6000830184611dc2565b92915050565b600060808201905061208a6000830187611dc2565b6120976020830186611dc2565b6120a46040830185612027565b81810360608301526120b68184611de0565b905095945050505050565b60006020820190506120d66000830184611dd1565b92915050565b600060208201905081810360008301526120f68184611e19565b905092915050565b6000602082019050818103600083015261211781611e83565b9050919050565b6000602082019050818103600083015261213781611ea6565b9050919050565b6000602082019050818103600083015261215781611ec9565b9050919050565b6000602082019050818103600083015261217781611eec565b9050919050565b6000602082019050818103600083015261219781611f0f565b9050919050565b600060208201905081810360008301526121b781611f32565b9050919050565b600060208201905081810360008301526121d781611f55565b9050919050565b600060208201905081810360008301526121f781611f78565b9050919050565b6000602082019050818103600083015261221781611f9b565b9050919050565b6000602082019050818103600083015261223781611fbe565b9050919050565b6000602082019050818103600083015261225781611fe1565b9050919050565b6000602082019050818103600083015261227781612004565b9050919050565b60006020820190506122936000830184612027565b92915050565b60006122a36122b4565b90506122af8282612506565b919050565b6000604051905090565b600067ffffffffffffffff8211156122d9576122d861263e565b5b6122e28261266d565b9050602081019050919050565b600067ffffffffffffffff82111561230a5761230961263e565b5b6123138261266d565b9050602081019050919050565b600081519050919050565b600081519050919050565b600082825260208201905092915050565b600082825260208201905092915050565b600081905092915050565b600061236e82612488565b915061237983612488565b9250827fffffffffffffffffffffffffffffffffffffffffffffffffffffffffffffffff038211156123ae576123ad6125b1565b5b828201905092915050565b60006123c482612488565b91506123cf83612488565b9250826123df576123de6125e0565b5b828204905092915050565b60006123f582612488565b915061240083612488565b925082821015612413576124126125b1565b5b828203905092915050565b600061242982612468565b9050919050565b60008115159050919050565b60007fffffffff0000000000000000000000000000000000000000000000000000000082169050919050565b600073ffffffffffffffffffffffffffffffffffffffff82169050919050565b6000819050919050565b82818337600083830152505050565b60005b838110156124bf5780820151818401526020810190506124a4565b838111156124ce576000848401525b50505050565b600060028204905060018216806124ec57607f821691505b60208210811415612500576124ff61260f565b5b50919050565b61250f8261266d565b810181811067ffffffffffffffff8211171561252e5761252d61263e565b5b80604052505050565b600061254282612488565b91507fffffffffffffffffffffffffffffffffffffffffffffffffffffffffffffffff821415612575576125746125b1565b5b600182019050919050565b600061258b82612488565b915061259683612488565b9250826125a6576125a56125e0565b5b828206905092915050565b7f4e487b7100000000000000000000000000000000000000000000000000000000600052601160045260246000fd5b7f4e487b7100000000000000000000000000000000000000000000000000000000600052601260045260246000fd5b7f4e487b7100000000000000000000000000000000000000000000000000000000600052602260045260246000fd5b7f4e487b7100000000000000000000000000000000000000000000000000000000600052604160045260246000fd5b6000601f19601f8301169050919050565b7f4552433732313a2063616c6c6572206973206e6f7420746f6b656e206f776e6560008201527f72206f7220617070726f76656400000000000000000000000000000000000000602082015250565b7f4552433732313a207472616e7366657220746f206e6f6e20455243373231526560008201527f63656976657220696d706c656d656e7465720000000000000000000000000000602082015250565b7f4552433732313a207472616e736665722066726f6d20696e636f72726563742060008201527f6f776e6572000000000000000000000000000000000000000000000000000000602082015250565b7f4552433732313a20746f6b656e20616c7265616479206d696e74656400000000600082015250565b7f4552433732313a207472616e7366657220746f20746865207a65726f2061646460008201527f7265737300000000000000000000000000000000000000000000000000000000602082015250565b7f4552433732313a20617070726f766520746f2063616c6c657200000000000000600082015250565b7f4552433732313a2061646472657373207a65726f206973206e6f74206120766160008201527f6c6964206f776e65720000000000000000000000000000000000000000000000602082015250565b7f45524337323155524953746f726167653a2055524920736574206f66206e6f6e60008201527f6578697374656e7420746f6b656e000000000000000000000000000000000000602082015250565b7f4552433732313a206d696e7420746f20746865207a65726f2061646472657373600082015250565b7f4552433732313a20696e76616c696420746f6b656e2049440000000000000000600082015250565b7f4552433732313a20617070726f76616c20746f2063757272656e74206f776e6560008201527f7200000000000000000000000000000000000000000000000000000000000000602082015250565b7f4552433732313a20617070726f76652063616c6c6572206973206e6f7420746f60008201527f6b656e206f776e6572206f7220617070726f76656420666f7220616c6c000000602082015250565b6129a38161241e565b81146129ae57600080fd5b50565b6129ba81612430565b81146129c557600080fd5b50565b6129d18161243c565b81146129dc57600080fd5b50565b6129e881612488565b81146129f357600080fd5b5056fea2646970667358221220ba0f223c743643a06b3d91f4f9e9e4ff02642ddd9807de9bab8277a176eb614264736f6c63430008040033",
					"opcodes": "PUSH1 0x80 PUSH1 0x40 MSTORE CALLVALUE DUP1 ISZERO PUSH3 0x11 JUMPI PUSH1 0x0 DUP1 REVERT JUMPDEST POP PUSH1 0x40 MLOAD PUSH3 0x2DB2 CODESIZE SUB DUP1 PUSH3 0x2DB2 DUP4 CODECOPY DUP2 DUP2 ADD PUSH1 0x40 MSTORE DUP2 ADD SWAP1 PUSH3 0x37 SWAP2 SWAP1 PUSH3 0x193 JUMP JUMPDEST DUP2 PUSH1 0x0 SWAP1 DUP1 MLOAD SWAP1 PUSH1 0x20 ADD SWAP1 PUSH3 0x4F SWAP3 SWAP2 SWAP1 PUSH3 0x71 JUMP JUMPDEST POP DUP1 PUSH1 0x1 SWAP1 DUP1 MLOAD SWAP1 PUSH1 0x20 ADD SWAP1 PUSH3 0x68 SWAP3 SWAP2 SWAP1 PUSH3 0x71 JUMP JUMPDEST POP POP POP PUSH3 0x376 JUMP JUMPDEST DUP3 DUP1 SLOAD PUSH3 0x7F SWAP1 PUSH3 0x29B JUMP JUMPDEST SWAP1 PUSH1 0x0 MSTORE PUSH1 0x20 PUSH1 0x0 KECCAK256 SWAP1 PUSH1 0x1F ADD PUSH1 0x20 SWAP1 DIV DUP2 ADD SWAP3 DUP3 PUSH3 0xA3 JUMPI PUSH1 0x0 DUP6 SSTORE PUSH3 0xEF JUMP JUMPDEST DUP3 PUSH1 0x1F LT PUSH3 0xBE JUMPI DUP1 MLOAD PUSH1 0xFF NOT AND DUP4 DUP1 ADD OR DUP6 SSTORE PUSH3 0xEF JUMP JUMPDEST DUP3 DUP1 ADD PUSH1 0x1 ADD DUP6 SSTORE DUP3 ISZERO PUSH3 0xEF JUMPI SWAP2 DUP3 ADD JUMPDEST DUP3 DUP2 GT ISZERO PUSH3 0xEE JUMPI DUP3 MLOAD DUP3 SSTORE SWAP2 PUSH1 0x20 ADD SWAP2 SWAP1 PUSH1 0x1 ADD SWAP1 PUSH3 0xD1 JUMP JUMPDEST JUMPDEST POP SWAP1 POP PUSH3 0xFE SWAP2 SWAP1 PUSH3 0x102 JUMP JUMPDEST POP SWAP1 JUMP JUMPDEST JUMPDEST DUP1 DUP3 GT ISZERO PUSH3 0x11D JUMPI PUSH1 0x0 DUP2 PUSH1 0x0 SWAP1 SSTORE POP PUSH1 0x1 ADD PUSH3 0x103 JUMP JUMPDEST POP SWAP1 JUMP JUMPDEST PUSH1 0x0 PUSH3 0x138 PUSH3 0x132 DUP5 PUSH3 0x22F JUMP JUMPDEST PUSH3 0x206 JUMP JUMPDEST SWAP1 POP DUP3 DUP2 MSTORE PUSH1 0x20 DUP2 ADD DUP5 DUP5 DUP5 ADD GT ISZERO PUSH3 0x151 JUMPI PUSH1 0x0 DUP1 REVERT JUMPDEST PUSH3 0x15E DUP5 DUP3 DUP6 PUSH3 0x265 JUMP JUMPDEST POP SWAP4 SWAP3 POP POP POP JUMP JUMPDEST PUSH1 0x0 DUP3 PUSH1 0x1F DUP4 ADD SLT PUSH3 0x178 JUMPI PUSH1 0x0 DUP1 REVERT JUMPDEST DUP2 MLOAD PUSH3 0x18A DUP5 DUP3 PUSH1 0x20 DUP7 ADD PUSH3 0x121 JUMP JUMPDEST SWAP2 POP POP SWAP3 SWAP2 POP POP JUMP JUMPDEST PUSH1 0x0 DUP1 PUSH1 0x40 DUP4 DUP6 SUB SLT ISZERO PUSH3 0x1A7 JUMPI PUSH1 0x0 DUP1 REVERT JUMPDEST PUSH1 0x0 DUP4 ADD MLOAD PUSH8 0xFFFFFFFFFFFFFFFF DUP2 GT ISZERO PUSH3 0x1C2 JUMPI PUSH1 0x0 DUP1 REVERT JUMPDEST PUSH3 0x1D0 DUP6 DUP3 DUP7 ADD PUSH3 0x166 JUMP JUMPDEST SWAP3 POP POP PUSH1 0x20 DUP4 ADD MLOAD PUSH8 0xFFFFFFFFFFFFFFFF DUP2 GT ISZERO PUSH3 0x1EE JUMPI PUSH1 0x0 DUP1 REVERT JUMPDEST PUSH3 0x1FC DUP6 DUP3 DUP7 ADD PUSH3 0x166 JUMP JUMPDEST SWAP2 POP POP SWAP3 POP SWAP3 SWAP1 POP JUMP JUMPDEST PUSH1 0x0 PUSH3 0x212 PUSH3 0x225 JUMP JUMPDEST SWAP1 POP PUSH3 0x220 DUP3 DUP3 PUSH3 0x2D1 JUMP JUMPDEST SWAP2 SWAP1 POP JUMP JUMPDEST PUSH1 0x0 PUSH1 0x40 MLOAD SWAP1 POP SWAP1 JUMP JUMPDEST PUSH1 0x0 PUSH8 0xFFFFFFFFFFFFFFFF DUP3 GT ISZERO PUSH3 0x24D JUMPI PUSH3 0x24C PUSH3 0x336 JUMP JUMPDEST JUMPDEST PUSH3 0x258 DUP3 PUSH3 0x365 JUMP JUMPDEST SWAP1 POP PUSH1 0x20 DUP2 ADD SWAP1 POP SWAP2 SWAP1 POP JUMP JUMPDEST PUSH1 0x0 JUMPDEST DUP4 DUP2 LT ISZERO PUSH3 0x285 JUMPI DUP1 DUP3 ADD MLOAD DUP2 DUP5 ADD MSTORE PUSH1 0x20 DUP2 ADD SWAP1 POP PUSH3 0x268 JUMP JUMPDEST DUP4 DUP2 GT ISZERO PUSH3 0x295 JUMPI PUSH1 0x0 DUP5 DUP5 ADD MSTORE JUMPDEST POP POP POP POP JUMP JUMPDEST PUSH1 0x0 PUSH1 0x2 DUP3 DIV SWAP1 POP PUSH1 0x1 DUP3 AND DUP1 PUSH3 0x2B4 JUMPI PUSH1 0x7F DUP3 AND SWAP2 POP JUMPDEST PUSH1 0x20 DUP3 LT DUP2 EQ ISZERO PUSH3 0x2CB JUMPI PUSH3 0x2CA PUSH3 0x307 JUMP JUMPDEST JUMPDEST POP SWAP2 SWAP1 POP JUMP JUMPDEST PUSH3 0x2DC DUP3 PUSH3 0x365 JUMP JUMPDEST DUP2 ADD DUP2 DUP2 LT PUSH8 0xFFFFFFFFFFFFFFFF DUP3 GT OR ISZERO PUSH3 0x2FE JUMPI PUSH3 0x2FD PUSH3 0x336 JUMP JUMPDEST JUMPDEST DUP1 PUSH1 0x40 MSTORE POP POP POP JUMP JUMPDEST PUSH32 0x4E487B7100000000000000000000000000000000000000000000000000000000 PUSH1 0x0 MSTORE PUSH1 0x22 PUSH1 0x4 MSTORE PUSH1 0x24 PUSH1 0x0 REVERT JUMPDEST PUSH32 0x4E487B7100000000000000000000000000000000000000000000000000000000 PUSH1 0x0 MSTORE PUSH1 0x41 PUSH1 0x4 MSTORE PUSH1 0x24 PUSH1 0x0 REVERT JUMPDEST PUSH1 0x0 PUSH1 0x1F NOT PUSH1 0x1F DUP4 ADD AND SWAP1 POP SWAP2 SWAP1 POP JUMP JUMPDEST PUSH2 0x2A2C DUP1 PUSH3 0x386 PUSH1 0x0 CODECOPY PUSH1 0x0 RETURN INVALID PUSH1 0x80 PUSH1 0x40 MSTORE CALLVALUE DUP1 ISZERO PUSH2 0x10 JUMPI PUSH1 0x0 DUP1 REVERT JUMPDEST POP PUSH1 0x4 CALLDATASIZE LT PUSH2 0xF5 JUMPI PUSH1 0x0 CALLDATALOAD PUSH1 0xE0 SHR DUP1 PUSH4 0x6352211E GT PUSH2 0x97 JUMPI DUP1 PUSH4 0xB85CBC79 GT PUSH2 0x66 JUMPI DUP1 PUSH4 0xB85CBC79 EQ PUSH2 0x296 JUMPI DUP1 PUSH4 0xB88D4FDE EQ PUSH2 0x2B2 JUMPI DUP1 PUSH4 0xC87B56DD EQ PUSH2 0x2CE JUMPI DUP1 PUSH4 0xE985E9C5 EQ PUSH2 0x2FE JUMPI PUSH2 0xF5 JUMP JUMPDEST DUP1 PUSH4 0x6352211E EQ PUSH2 0x1FC JUMPI DUP1 PUSH4 0x70A08231 EQ PUSH2 0x22C JUMPI DUP1 PUSH4 0x95D89B41 EQ PUSH2 0x25C JUMPI DUP1 PUSH4 0xA22CB465 EQ PUSH2 0x27A JUMPI PUSH2 0xF5 JUMP JUMPDEST DUP1 PUSH4 0x95EA7B3 GT PUSH2 0xD3 JUMPI DUP1 PUSH4 0x95EA7B3 EQ PUSH2 0x178 JUMPI DUP1 PUSH4 0x23B872DD EQ PUSH2 0x194 JUMPI DUP1 PUSH4 0x42842E0E EQ PUSH2 0x1B0 JUMPI DUP1 PUSH4 0x52E04825 EQ PUSH2 0x1CC JUMPI PUSH2 0xF5 JUMP JUMPDEST DUP1 PUSH4 0x1FFC9A7 EQ PUSH2 0xFA JUMPI DUP1 PUSH4 0x6FDDE03 EQ PUSH2 0x12A JUMPI DUP1 PUSH4 0x81812FC EQ PUSH2 0x148 JUMPI JUMPDEST PUSH1 0x0 DUP1 REVERT JUMPDEST PUSH2 0x114 PUSH1 0x4 DUP1 CALLDATASIZE SUB DUP2 ADD SWAP1 PUSH2 0x10F SWAP2 SWAP1 PUSH2 0x1D47 JUMP JUMPDEST PUSH2 0x32E JUMP JUMPDEST PUSH1 0x40 MLOAD PUSH2 0x121 SWAP2 SWAP1 PUSH2 0x20C1 JUMP JUMPDEST PUSH1 0x40 MLOAD DUP1 SWAP2 SUB SWAP1 RETURN JUMPDEST PUSH2 0x132 PUSH2 0x410 JUMP JUMPDEST PUSH1 0x40 MLOAD PUSH2 0x13F SWAP2 SWAP1 PUSH2 0x20DC JUMP JUMPDEST PUSH1 0x40 MLOAD DUP1 SWAP2 SUB SWAP1 RETURN JUMPDEST PUSH2 0x162 PUSH1 0x4 DUP1 CALLDATASIZE SUB DUP2 ADD SWAP1 PUSH2 0x15D SWAP2 SWAP1 PUSH2 0x1D99 JUMP JUMPDEST PUSH2 0x4A2 JUMP JUMPDEST PUSH1 0x40 MLOAD PUSH2 0x16F SWAP2 SWAP1 PUSH2 0x205A JUMP JUMPDEST PUSH1 0x40 MLOAD DUP1 SWAP2 SUB SWAP1 RETURN JUMPDEST PUSH2 0x192 PUSH1 0x4 DUP1 CALLDATASIZE SUB DUP2 ADD SWAP1 PUSH2 0x18D SWAP2 SWAP1 PUSH2 0x1D0B JUMP JUMPDEST PUSH2 0x4E8 JUMP JUMPDEST STOP JUMPDEST PUSH2 0x1AE PUSH1 0x4 DUP1 CALLDATASIZE SUB DUP2 ADD SWAP1 PUSH2 0x1A9 SWAP2 SWAP1 PUSH2 0x1B8A JUMP JUMPDEST PUSH2 0x600 JUMP JUMPDEST STOP JUMPDEST PUSH2 0x1CA PUSH1 0x4 DUP1 CALLDATASIZE SUB DUP2 ADD SWAP1 PUSH2 0x1C5 SWAP2 SWAP1 PUSH2 0x1B8A JUMP JUMPDEST PUSH2 0x660 JUMP JUMPDEST STOP JUMPDEST PUSH2 0x1E6 PUSH1 0x4 DUP1 CALLDATASIZE SUB DUP2 ADD SWAP1 PUSH2 0x1E1 SWAP2 SWAP1 PUSH2 0x1D99 JUMP JUMPDEST PUSH2 0x680 JUMP JUMPDEST PUSH1 0x40 MLOAD PUSH2 0x1F3 SWAP2 SWAP1 PUSH2 0x205A JUMP JUMPDEST PUSH1 0x40 MLOAD DUP1 SWAP2 SUB SWAP1 RETURN JUMPDEST PUSH2 0x216 PUSH1 0x4 DUP1 CALLDATASIZE SUB DUP2 ADD SWAP1 PUSH2 0x211 SWAP2 SWAP1 PUSH2 0x1D99 JUMP JUMPDEST PUSH2 0x732 JUMP JUMPDEST PUSH1 0x40 MLOAD PUSH2 0x223 SWAP2 SWAP1 PUSH2 0x205A JUMP JUMPDEST PUSH1 0x40 MLOAD DUP1 SWAP2 SUB SWAP1 RETURN JUMPDEST PUSH2 0x246 PUSH1 0x4 DUP1 CALLDATASIZE SUB DUP2 ADD SWAP1 PUSH2 0x241 SWAP2 SWAP1 PUSH2 0x1B25 JUMP JUMPDEST PUSH2 0x7E4 JUMP JUMPDEST PUSH1 0x40 MLOAD PUSH2 0x253 SWAP2 SWAP1 PUSH2 0x227E JUMP JUMPDEST PUSH1 0x40 MLOAD DUP1 SWAP2 SUB SWAP1 RETURN JUMPDEST PUSH2 0x264 PUSH2 0x89C JUMP JUMPDEST PUSH1 0x40 MLOAD PUSH2 0x271 SWAP2 SWAP1 PUSH2 0x20DC JUMP JUMPDEST PUSH1 0x40 MLOAD DUP1 SWAP2 SUB SWAP1 RETURN JUMPDEST PUSH2 0x294 PUSH1 0x4 DUP1 CALLDATASIZE SUB DUP2 ADD SWAP1 PUSH2 0x28F SWAP2 SWAP1 PUSH2 0x1CCF JUMP JUMPDEST PUSH2 0x92E JUMP JUMPDEST STOP JUMPDEST PUSH2 0x2B0 PUSH1 0x4 DUP1 CALLDATASIZE SUB DUP2 ADD SWAP1 PUSH2 0x2AB SWAP2 SWAP1 PUSH2 0x1C54 JUMP JUMPDEST PUSH2 0x944 JUMP JUMPDEST STOP JUMPDEST PUSH2 0x2CC PUSH1 0x4 DUP1 CALLDATASIZE SUB DUP2 ADD SWAP1 PUSH2 0x2C7 SWAP2 SWAP1 PUSH2 0x1BD9 JUMP JUMPDEST PUSH2 0x95F JUMP JUMPDEST STOP JUMPDEST PUSH2 0x2E8 PUSH1 0x4 DUP1 CALLDATASIZE SUB DUP2 ADD SWAP1 PUSH2 0x2E3 SWAP2 SWAP1 PUSH2 0x1D99 JUMP JUMPDEST PUSH2 0x9C1 JUMP JUMPDEST PUSH1 0x40 MLOAD PUSH2 0x2F5 SWAP2 SWAP1 PUSH2 0x20DC JUMP JUMPDEST PUSH1 0x40 MLOAD DUP1 SWAP2 SUB SWAP1 RETURN JUMPDEST PUSH2 0x318 PUSH1 0x4 DUP1 CALLDATASIZE SUB DUP2 ADD SWAP1 PUSH2 0x313 SWAP2 SWAP1 PUSH2 0x1B4E JUMP JUMPDEST PUSH2 0xA29 JUMP JUMPDEST PUSH1 0x40 MLOAD PUSH2 0x325 SWAP2 SWAP1 PUSH2 0x20C1 JUMP JUMPDEST PUSH1 0x40 MLOAD DUP1 SWAP2 SUB SWAP1 RETURN JUMPDEST PUSH1 0x0 PUSH32 0x80AC58CD00000000000000000000000000000000000000000000000000000000 PUSH28 0xFFFFFFFFFFFFFFFFFFFFFFFFFFFFFFFFFFFFFFFFFFFFFFFFFFFFFFFF NOT AND DUP3 PUSH28 0xFFFFFFFFFFFFFFFFFFFFFFFFFFFFFFFFFFFFFFFFFFFFFFFFFFFFFFFF NOT AND EQ DUP1 PUSH2 0x3F9 JUMPI POP PUSH32 0x5B5E139F00000000000000000000000000000000000000000000000000000000 PUSH28 0xFFFFFFFFFFFFFFFFFFFFFFFFFFFFFFFFFFFFFFFFFFFFFFFFFFFFFFFF NOT AND DUP3 PUSH28 0xFFFFFFFFFFFFFFFFFFFFFFFFFFFFFFFFFFFFFFFFFFFFFFFFFFFFFFFF NOT AND EQ JUMPDEST DUP1 PUSH2 0x409 JUMPI POP PUSH2 0x408 DUP3 PUSH2 0xABD JUMP JUMPDEST JUMPDEST SWAP1 POP SWAP2 SWAP1 POP JUMP JUMPDEST PUSH1 0x60 PUSH1 0x0 DUP1 SLOAD PUSH2 0x41F SWAP1 PUSH2 0x24D4 JUMP JUMPDEST DUP1 PUSH1 0x1F ADD PUSH1 0x20 DUP1 SWAP2 DIV MUL PUSH1 0x20 ADD PUSH1 0x40 MLOAD SWAP1 DUP2 ADD PUSH1 0x40 MSTORE DUP1 SWAP3 SWAP2 SWAP1 DUP2 DUP2 MSTORE PUSH1 0x20 ADD DUP3 DUP1 SLOAD PUSH2 0x44B SWAP1 PUSH2 0x24D4 JUMP JUMPDEST DUP1 ISZERO PUSH2 0x498 JUMPI DUP1 PUSH1 0x1F LT PUSH2 0x46D JUMPI PUSH2 0x100 DUP1 DUP4 SLOAD DIV MUL DUP4 MSTORE SWAP2 PUSH1 0x20 ADD SWAP2 PUSH2 0x498 JUMP JUMPDEST DUP3 ADD SWAP2 SWAP1 PUSH1 0x0 MSTORE PUSH1 0x20 PUSH1 0x0 KECCAK256 SWAP1 JUMPDEST DUP2 SLOAD DUP2 MSTORE SWAP1 PUSH1 0x1 ADD SWAP1 PUSH1 0x20 ADD DUP1 DUP4 GT PUSH2 0x47B JUMPI DUP3 SWAP1 SUB PUSH1 0x1F AND DUP3 ADD SWAP2 JUMPDEST POP POP POP POP POP SWAP1 POP SWAP1 JUMP JUMPDEST PUSH1 0x0 PUSH2 0x4AD DUP3 PUSH2 0xB27 JUMP JUMPDEST PUSH1 0x5 PUSH1 0x0 DUP4 DUP2 MSTORE PUSH1 0x20 ADD SWAP1 DUP2 MSTORE PUSH1 0x20 ADD PUSH1 0x0 KECCAK256 PUSH1 0x0 SWAP1 SLOAD SWAP1 PUSH2 0x100 EXP SWAP1 DIV PUSH20 0xFFFFFFFFFFFFFFFFFFFFFFFFFFFFFFFFFFFFFFFF AND SWAP1 POP SWAP2 SWAP1 POP JUMP JUMPDEST PUSH1 0x0 PUSH2 0x4F3 DUP3 PUSH2 0x732 JUMP JUMPDEST SWAP1 POP DUP1 PUSH20 0xFFFFFFFFFFFFFFFFFFFFFFFFFFFFFFFFFFFFFFFF AND DUP4 PUSH20 0xFFFFFFFFFFFFFFFFFFFFFFFFFFFFFFFFFFFFFFFF AND EQ ISZERO PUSH2 0x564 JUMPI PUSH1 0x40 MLOAD PUSH32 0x8C379A000000000000000000000000000000000000000000000000000000000 DUP2 MSTORE PUSH1 0x4 ADD PUSH2 0x55B SWAP1 PUSH2 0x223E JUMP JUMPDEST PUSH1 0x40 MLOAD DUP1 SWAP2 SUB SWAP1 REVERT JUMPDEST DUP1 PUSH20 0xFFFFFFFFFFFFFFFFFFFFFFFFFFFFFFFFFFFFFFFF AND PUSH2 0x583 PUSH2 0xB72 JUMP JUMPDEST PUSH20 0xFFFFFFFFFFFFFFFFFFFFFFFFFFFFFFFFFFFFFFFF AND EQ DUP1 PUSH2 0x5B2 JUMPI POP PUSH2 0x5B1 DUP2 PUSH2 0x5AC PUSH2 0xB72 JUMP JUMPDEST PUSH2 0xA29 JUMP JUMPDEST JUMPDEST PUSH2 0x5F1 JUMPI PUSH1 0x40 MLOAD PUSH32 0x8C379A000000000000000000000000000000000000000000000000000000000 DUP2 MSTORE PUSH1 0x4 ADD PUSH2 0x5E8 SWAP1 PUSH2 0x225E JUMP JUMPDEST PUSH1 0x40 MLOAD DUP1 SWAP2 SUB SWAP1 REVERT JUMPDEST PUSH2 0x5FB DUP4 DUP4 PUSH2 0xB7A JUMP JUMPDEST POP POP POP JUMP JUMPDEST PUSH2 0x611 PUSH2 0x60B PUSH2 0xB72 JUMP JUMPDEST DUP3 PUSH2 0xC33 JUMP JUMPDEST PUSH2 0x650 JUMPI PUSH1 0x40 MLOAD PUSH32 0x8C379A000000000000000000000000000000000000000000000000000000000 DUP2 MSTORE PUSH1 0x4 ADD PUSH2 0x647 SWAP1 PUSH2 0x20FE JUMP JUMPDEST PUSH1 0x40 MLOAD DUP1 SWAP2 SUB SWAP1 REVERT JUMPDEST PUSH2 0x65B DUP4 DUP4 DUP4 PUSH2 0xCC8 JUMP JUMPDEST POP POP POP JUMP JUMPDEST PUSH2 0x67B DUP4 DUP4 DUP4 PUSH1 0x40 MLOAD DUP1 PUSH1 0x20 ADD PUSH1 0x40 MSTORE DUP1 PUSH1 0x0 DUP2 MSTORE POP PUSH2 0x95F JUMP JUMPDEST POP POP POP JUMP JUMPDEST PUSH1 0x0 DUP1 PUSH1 0x3 PUSH1 0x0 DUP5 DUP2 MSTORE PUSH1 0x20 ADD SWAP1 DUP2 MSTORE PUSH1 0x20 ADD PUSH1 0x0 KECCAK256 PUSH1 0x0 SWAP1 SLOAD SWAP1 PUSH2 0x100 EXP SWAP1 DIV PUSH20 0xFFFFFFFFFFFFFFFFFFFFFFFFFFFFFFFFFFFFFFFF AND SWAP1 POP PUSH1 0x0 PUSH20 0xFFFFFFFFFFFFFFFFFFFFFFFFFFFFFFFFFFFFFFFF AND DUP2 PUSH20 0xFFFFFFFFFFFFFFFFFFFFFFFFFFFFFFFFFFFFFFFF AND EQ ISZERO PUSH2 0x729 JUMPI PUSH1 0x40 MLOAD PUSH32 0x8C379A000000000000000000000000000000000000000000000000000000000 DUP2 MSTORE PUSH1 0x4 ADD PUSH2 0x720 SWAP1 PUSH2 0x221E JUMP JUMPDEST PUSH1 0x40 MLOAD DUP1 SWAP2 SUB SWAP1 REVERT JUMPDEST DUP1 SWAP2 POP POP SWAP2 SWAP1 POP JUMP JUMPDEST PUSH1 0x0 DUP1 PUSH1 0x2 PUSH1 0x0 DUP5 DUP2 MSTORE PUSH1 0x20 ADD SWAP1 DUP2 MSTORE PUSH1 0x20 ADD PUSH1 0x0 KECCAK256 PUSH1 0x0 SWAP1 SLOAD SWAP1 PUSH2 0x100 EXP SWAP1 DIV PUSH20 0xFFFFFFFFFFFFFFFFFFFFFFFFFFFFFFFFFFFFFFFF AND SWAP1 POP PUSH1 0x0 PUSH20 0xFFFFFFFFFFFFFFFFFFFFFFFFFFFFFFFFFFFFFFFF AND DUP2 PUSH20 0xFFFFFFFFFFFFFFFFFFFFFFFFFFFFFFFFFFFFFFFF AND EQ ISZERO PUSH2 0x7DB JUMPI PUSH1 0x40 MLOAD PUSH32 0x8C379A000000000000000000000000000000000000000000000000000000000 DUP2 MSTORE PUSH1 0x4 ADD PUSH2 0x7D2 SWAP1 PUSH2 0x221E JUMP JUMPDEST PUSH1 0x40 MLOAD DUP1 SWAP2 SUB SWAP1 REVERT JUMPDEST DUP1 SWAP2 POP POP SWAP2 SWAP1 POP JUMP JUMPDEST PUSH1 0x0 DUP1 PUSH20 0xFFFFFFFFFFFFFFFFFFFFFFFFFFFFFFFFFFFFFFFF AND DUP3 PUSH20 0xFFFFFFFFFFFFFFFFFFFFFFFFFFFFFFFFFFFFFFFF AND EQ ISZERO PUSH2 0x855 JUMPI PUSH1 0x40 MLOAD PUSH32 0x8C379A000000000000000000000000000000000000000000000000000000000 DUP2 MSTORE PUSH1 0x4 ADD PUSH2 0x84C SWAP1 PUSH2 0x21BE JUMP JUMPDEST PUSH1 0x40 MLOAD DUP1 SWAP2 SUB SWAP1 REVERT JUMPDEST PUSH1 0x4 PUSH1 0x0 DUP4 PUSH20 0xFFFFFFFFFFFFFFFFFFFFFFFFFFFFFFFFFFFFFFFF AND PUSH20 0xFFFFFFFFFFFFFFFFFFFFFFFFFFFFFFFFFFFFFFFF AND DUP2 MSTORE PUSH1 0x20 ADD SWAP1 DUP2 MSTORE PUSH1 0x20 ADD PUSH1 0x0 KECCAK256 SLOAD SWAP1 POP SWAP2 SWAP1 POP JUMP JUMPDEST PUSH1 0x60 PUSH1 0x1 DUP1 SLOAD PUSH2 0x8AB SWAP1 PUSH2 0x24D4 JUMP JUMPDEST DUP1 PUSH1 0x1F ADD PUSH1 0x20 DUP1 SWAP2 DIV MUL PUSH1 0x20 ADD PUSH1 0x40 MLOAD SWAP1 DUP2 ADD PUSH1 0x40 MSTORE DUP1 SWAP3 SWAP2 SWAP1 DUP2 DUP2 MSTORE PUSH1 0x20 ADD DUP3 DUP1 SLOAD PUSH2 0x8D7 SWAP1 PUSH2 0x24D4 JUMP JUMPDEST DUP1 ISZERO PUSH2 0x924 JUMPI DUP1 PUSH1 0x1F LT PUSH2 0x8F9 JUMPI PUSH2 0x100 DUP1 DUP4 SLOAD DIV MUL DUP4 MSTORE SWAP2 PUSH1 0x20 ADD SWAP2 PUSH2 0x924 JUMP JUMPDEST DUP3 ADD SWAP2 SWAP1 PUSH1 0x0 MSTORE PUSH1 0x20 PUSH1 0x0 KECCAK256 SWAP1 JUMPDEST DUP2 SLOAD DUP2 MSTORE SWAP1 PUSH1 0x1 ADD SWAP1 PUSH1 0x20 ADD DUP1 DUP4 GT PUSH2 0x907 JUMPI DUP3 SWAP1 SUB PUSH1 0x1F AND DUP3 ADD SWAP2 JUMPDEST POP POP POP POP POP SWAP1 POP SWAP1 JUMP JUMPDEST PUSH2 0x940 PUSH2 0x939 PUSH2 0xB72 JUMP JUMPDEST DUP4 DUP4 PUSH2 0xFBE JUMP JUMPDEST POP POP JUMP JUMPDEST PUSH2 0x94F DUP5 DUP5 DUP5 PUSH2 0x112B JUMP JUMPDEST PUSH2 0x959 DUP3 DUP3 PUSH2 0x114B JUMP JUMPDEST POP POP POP POP JUMP JUMPDEST PUSH2 0x970 PUSH2 0x96A PUSH2 0xB72 JUMP JUMPDEST DUP4 PUSH2 0xC33 JUMP JUMPDEST PUSH2 0x9AF JUMPI PUSH1 0x40 MLOAD PUSH32 0x8C379A000000000000000000000000000000000000000000000000000000000 DUP2 MSTORE PUSH1 0x4 ADD PUSH2 0x9A6 SWAP1 PUSH2 0x20FE JUMP JUMPDEST PUSH1 0x40 MLOAD DUP1 SWAP2 SUB SWAP1 REVERT JUMPDEST PUSH2 0x9BB DUP5 DUP5 DUP5 DUP5 PUSH2 0x11BF JUMP JUMPDEST POP POP POP POP JUMP JUMPDEST PUSH1 0x60 PUSH2 0x9CC DUP3 PUSH2 0xB27 JUMP JUMPDEST PUSH1 0x0 PUSH2 0x9D6 PUSH2 0x121B JUMP JUMPDEST SWAP1 POP PUSH1 0x0 DUP2 MLOAD GT PUSH2 0x9F6 JUMPI PUSH1 0x40 MLOAD DUP1 PUSH1 0x20 ADD PUSH1 0x40 MSTORE DUP1 PUSH1 0x0 DUP2 MSTORE POP PUSH2 0xA21 JUMP JUMPDEST DUP1 PUSH2 0xA00 DUP5 PUSH2 0x1232 JUMP JUMPDEST PUSH1 0x40 MLOAD PUSH1 0x20 ADD PUSH2 0xA11 SWAP3 SWAP2 SWAP1 PUSH2 0x2036 JUMP JUMPDEST PUSH1 0x40 MLOAD PUSH1 0x20 DUP2 DUP4 SUB SUB DUP2 MSTORE SWAP1 PUSH1 0x40 MSTORE JUMPDEST SWAP2 POP POP SWAP2 SWAP1 POP JUMP JUMPDEST PUSH1 0x0 PUSH1 0x6 PUSH1 0x0 DUP5 PUSH20 0xFFFFFFFFFFFFFFFFFFFFFFFFFFFFFFFFFFFFFFFF AND PUSH20 0xFFFFFFFFFFFFFFFFFFFFFFFFFFFFFFFFFFFFFFFF AND DUP2 MSTORE PUSH1 0x20 ADD SWAP1 DUP2 MSTORE PUSH1 0x20 ADD PUSH1 0x0 KECCAK256 PUSH1 0x0 DUP4 PUSH20 0xFFFFFFFFFFFFFFFFFFFFFFFFFFFFFFFFFFFFFFFF AND PUSH20 0xFFFFFFFFFFFFFFFFFFFFFFFFFFFFFFFFFFFFFFFF AND DUP2 MSTORE PUSH1 0x20 ADD SWAP1 DUP2 MSTORE PUSH1 0x20 ADD PUSH1 0x0 KECCAK256 PUSH1 0x0 SWAP1 SLOAD SWAP1 PUSH2 0x100 EXP SWAP1 DIV PUSH1 0xFF AND SWAP1 POP SWAP3 SWAP2 POP POP JUMP JUMPDEST PUSH1 0x0 PUSH32 0x1FFC9A700000000000000000000000000000000000000000000000000000000 PUSH28 0xFFFFFFFFFFFFFFFFFFFFFFFFFFFFFFFFFFFFFFFFFFFFFFFFFFFFFFFF NOT AND DUP3 PUSH28 0xFFFFFFFFFFFFFFFFFFFFFFFFFFFFFFFFFFFFFFFFFFFFFFFFFFFFFFFF NOT AND EQ SWAP1 POP SWAP2 SWAP1 POP JUMP JUMPDEST PUSH2 0xB30 DUP2 PUSH2 0x13DF JUMP JUMPDEST PUSH2 0xB6F JUMPI PUSH1 0x40 MLOAD PUSH32 0x8C379A000000000000000000000000000000000000000000000000000000000 DUP2 MSTORE PUSH1 0x4 ADD PUSH2 0xB66 SWAP1 PUSH2 0x221E JUMP JUMPDEST PUSH1 0x40 MLOAD DUP1 SWAP2 SUB SWAP1 REVERT JUMPDEST POP JUMP JUMPDEST PUSH1 0x0 CALLER SWAP1 POP SWAP1 JUMP JUMPDEST DUP2 PUSH1 0x5 PUSH1 0x0 DUP4 DUP2 MSTORE PUSH1 0x20 ADD SWAP1 DUP2 MSTORE PUSH1 0x20 ADD PUSH1 0x0 KECCAK256 PUSH1 0x0 PUSH2 0x100 EXP DUP2 SLOAD DUP2 PUSH20 0xFFFFFFFFFFFFFFFFFFFFFFFFFFFFFFFFFFFFFFFF MUL NOT AND SWAP1 DUP4 PUSH20 0xFFFFFFFFFFFFFFFFFFFFFFFFFFFFFFFFFFFFFFFF AND MUL OR SWAP1 SSTORE POP DUP1 DUP3 PUSH20 0xFFFFFFFFFFFFFFFFFFFFFFFFFFFFFFFFFFFFFFFF AND PUSH2 0xBED DUP4 PUSH2 0x732 JUMP JUMPDEST PUSH20 0xFFFFFFFFFFFFFFFFFFFFFFFFFFFFFFFFFFFFFFFF AND PUSH32 0x8C5BE1E5EBEC7D5BD14F71427D1E84F3DD0314C0F7B2291E5B200AC8C7C3B925 PUSH1 0x40 MLOAD PUSH1 0x40 MLOAD DUP1 SWAP2 SUB SWAP1 LOG4 POP POP JUMP JUMPDEST PUSH1 0x0 DUP1 PUSH2 0xC3F DUP4 PUSH2 0x732 JUMP JUMPDEST SWAP1 POP DUP1 PUSH20 0xFFFFFFFFFFFFFFFFFFFFFFFFFFFFFFFFFFFFFFFF AND DUP5 PUSH20 0xFFFFFFFFFFFFFFFFFFFFFFFFFFFFFFFFFFFFFFFF AND EQ DUP1 PUSH2 0xC81 JUMPI POP PUSH2 0xC80 DUP2 DUP6 PUSH2 0xA29 JUMP JUMPDEST JUMPDEST DUP1 PUSH2 0xCBF JUMPI POP DUP4 PUSH20 0xFFFFFFFFFFFFFFFFFFFFFFFFFFFFFFFFFFFFFFFF AND PUSH2 0xCA7 DUP5 PUSH2 0x4A2 JUMP JUMPDEST PUSH20 0xFFFFFFFFFFFFFFFFFFFFFFFFFFFFFFFFFFFFFFFF AND EQ JUMPDEST SWAP2 POP POP SWAP3 SWAP2 POP POP JUMP JUMPDEST DUP3 PUSH20 0xFFFFFFFFFFFFFFFFFFFFFFFFFFFFFFFFFFFFFFFF AND PUSH2 0xCE8 DUP3 PUSH2 0x732 JUMP JUMPDEST PUSH20 0xFFFFFFFFFFFFFFFFFFFFFFFFFFFFFFFFFFFFFFFF AND EQ PUSH2 0xD3E JUMPI PUSH1 0x40 MLOAD PUSH32 0x8C379A000000000000000000000000000000000000000000000000000000000 DUP2 MSTORE PUSH1 0x4 ADD PUSH2 0xD35 SWAP1 PUSH2 0x213E JUMP JUMPDEST PUSH1 0x40 MLOAD DUP1 SWAP2 SUB SWAP1 REVERT JUMPDEST PUSH1 0x0 PUSH20 0xFFFFFFFFFFFFFFFFFFFFFFFFFFFFFFFFFFFFFFFF AND DUP3 PUSH20 0xFFFFFFFFFFFFFFFFFFFFFFFFFFFFFFFFFFFFFFFF AND EQ ISZERO PUSH2 0xDAE JUMPI PUSH1 0x40 MLOAD PUSH32 0x8C379A000000000000000000000000000000000000000000000000000000000 DUP2 MSTORE PUSH1 0x4 ADD PUSH2 0xDA5 SWAP1 PUSH2 0x217E JUMP JUMPDEST PUSH1 0x40 MLOAD DUP1 SWAP2 SUB SWAP1 REVERT JUMPDEST PUSH2 0xDB9 DUP4 DUP4 DUP4 PUSH2 0x144B JUMP JUMPDEST DUP3 PUSH20 0xFFFFFFFFFFFFFFFFFFFFFFFFFFFFFFFFFFFFFFFF AND PUSH2 0xDD9 DUP3 PUSH2 0x732 JUMP JUMPDEST PUSH20 0xFFFFFFFFFFFFFFFFFFFFFFFFFFFFFFFFFFFFFFFF AND EQ PUSH2 0xE2F JUMPI PUSH1 0x40 MLOAD PUSH32 0x8C379A000000000000000000000000000000000000000000000000000000000 DUP2 MSTORE PUSH1 0x4 ADD PUSH2 0xE26 SWAP1 PUSH2 0x213E JUMP JUMPDEST PUSH1 0x40 MLOAD DUP1 SWAP2 SUB SWAP1 REVERT JUMPDEST PUSH1 0x5 PUSH1 0x0 DUP3 DUP2 MSTORE PUSH1 0x20 ADD SWAP1 DUP2 MSTORE PUSH1 0x20 ADD PUSH1 0x0 KECCAK256 PUSH1 0x0 PUSH2 0x100 EXP DUP2 SLOAD SWAP1 PUSH20 0xFFFFFFFFFFFFFFFFFFFFFFFFFFFFFFFFFFFFFFFF MUL NOT AND SWAP1 SSTORE PUSH1 0x1 PUSH1 0x4 PUSH1 0x0 DUP6 PUSH20 0xFFFFFFFFFFFFFFFFFFFFFFFFFFFFFFFFFFFFFFFF AND PUSH20 0xFFFFFFFFFFFFFFFFFFFFFFFFFFFFFFFFFFFFFFFF AND DUP2 MSTORE PUSH1 0x20 ADD SWAP1 DUP2 MSTORE PUSH1 0x20 ADD PUSH1 0x0 KECCAK256 PUSH1 0x0 DUP3 DUP3 SLOAD SUB SWAP3 POP POP DUP2 SWAP1 SSTORE POP PUSH1 0x1 PUSH1 0x4 PUSH1 0x0 DUP5 PUSH20 0xFFFFFFFFFFFFFFFFFFFFFFFFFFFFFFFFFFFFFFFF AND PUSH20 0xFFFFFFFFFFFFFFFFFFFFFFFFFFFFFFFFFFFFFFFF AND DUP2 MSTORE PUSH1 0x20 ADD SWAP1 DUP2 MSTORE PUSH1 0x20 ADD PUSH1 0x0 KECCAK256 PUSH1 0x0 DUP3 DUP3 SLOAD ADD SWAP3 POP POP DUP2 SWAP1 SSTORE POP DUP2 PUSH1 0x2 PUSH1 0x0 DUP4 DUP2 MSTORE PUSH1 0x20 ADD SWAP1 DUP2 MSTORE PUSH1 0x20 ADD PUSH1 0x0 KECCAK256 PUSH1 0x0 PUSH2 0x100 EXP DUP2 SLOAD DUP2 PUSH20 0xFFFFFFFFFFFFFFFFFFFFFFFFFFFFFFFFFFFFFFFF MUL NOT AND SWAP1 DUP4 PUSH20 0xFFFFFFFFFFFFFFFFFFFFFFFFFFFFFFFFFFFFFFFF AND MUL OR SWAP1 SSTORE POP DUP1 DUP3 PUSH20 0xFFFFFFFFFFFFFFFFFFFFFFFFFFFFFFFFFFFFFFFF AND DUP5 PUSH20 0xFFFFFFFFFFFFFFFFFFFFFFFFFFFFFFFFFFFFFFFF AND PUSH32 0xDDF252AD1BE2C89B69C2B068FC378DAA952BA7F163C4A11628F55A4DF523B3EF PUSH1 0x40 MLOAD PUSH1 0x40 MLOAD DUP1 SWAP2 SUB SWAP1 LOG4 PUSH2 0xFB9 DUP4 DUP4 DUP4 PUSH2 0x1450 JUMP JUMPDEST POP POP POP JUMP JUMPDEST DUP2 PUSH20 0xFFFFFFFFFFFFFFFFFFFFFFFFFFFFFFFFFFFFFFFF AND DUP4 PUSH20 0xFFFFFFFFFFFFFFFFFFFFFFFFFFFFFFFFFFFFFFFF AND EQ ISZERO PUSH2 0x102D JUMPI PUSH1 0x40 MLOAD PUSH32 0x8C379A000000000000000000000000000000000000000000000000000000000 DUP2 MSTORE PUSH1 0x4 ADD PUSH2 0x1024 SWAP1 PUSH2 0x219E JUMP JUMPDEST PUSH1 0x40 MLOAD DUP1 SWAP2 SUB SWAP1 REVERT JUMPDEST DUP1 PUSH1 0x6 PUSH1 0x0 DUP6 PUSH20 0xFFFFFFFFFFFFFFFFFFFFFFFFFFFFFFFFFFFFFFFF AND PUSH20 0xFFFFFFFFFFFFFFFFFFFFFFFFFFFFFFFFFFFFFFFF AND DUP2 MSTORE PUSH1 0x20 ADD SWAP1 DUP2 MSTORE PUSH1 0x20 ADD PUSH1 0x0 KECCAK256 PUSH1 0x0 DUP5 PUSH20 0xFFFFFFFFFFFFFFFFFFFFFFFFFFFFFFFFFFFFFFFF AND PUSH20 0xFFFFFFFFFFFFFFFFFFFFFFFFFFFFFFFFFFFFFFFF AND DUP2 MSTORE PUSH1 0x20 ADD SWAP1 DUP2 MSTORE PUSH1 0x20 ADD PUSH1 0x0 KECCAK256 PUSH1 0x0 PUSH2 0x100 EXP DUP2 SLOAD DUP2 PUSH1 0xFF MUL NOT AND SWAP1 DUP4 ISZERO ISZERO MUL OR SWAP1 SSTORE POP DUP2 PUSH20 0xFFFFFFFFFFFFFFFFFFFFFFFFFFFFFFFFFFFFFFFF AND DUP4 PUSH20 0xFFFFFFFFFFFFFFFFFFFFFFFFFFFFFFFFFFFFFFFF AND PUSH32 0x17307EAB39AB6107E8899845AD3D59BD9653F200F220920489CA2B5937696C31 DUP4 PUSH1 0x40 MLOAD PUSH2 0x111E SWAP2 SWAP1 PUSH2 0x20C1 JUMP JUMPDEST PUSH1 0x40 MLOAD DUP1 SWAP2 SUB SWAP1 LOG3 POP POP POP JUMP JUMPDEST PUSH2 0x1146 DUP4 DUP4 DUP4 PUSH1 0x40 MLOAD DUP1 PUSH1 0x20 ADD PUSH1 0x40 MSTORE DUP1 PUSH1 0x0 DUP2 MSTORE POP PUSH2 0x1455 JUMP JUMPDEST POP POP POP JUMP JUMPDEST PUSH2 0x1154 DUP3 PUSH2 0x13DF JUMP JUMPDEST PUSH2 0x1193 JUMPI PUSH1 0x40 MLOAD PUSH32 0x8C379A000000000000000000000000000000000000000000000000000000000 DUP2 MSTORE PUSH1 0x4 ADD PUSH2 0x118A SWAP1 PUSH2 0x21DE JUMP JUMPDEST PUSH1 0x40 MLOAD DUP1 SWAP2 SUB SWAP1 REVERT JUMPDEST DUP1 PUSH1 0x7 PUSH1 0x0 DUP5 DUP2 MSTORE PUSH1 0x20 ADD SWAP1 DUP2 MSTORE PUSH1 0x20 ADD PUSH1 0x0 KECCAK256 SWAP1 DUP1 MLOAD SWAP1 PUSH1 0x20 ADD SWAP1 PUSH2 0x11BA SWAP3 SWAP2 SWAP1 PUSH2 0x1949 JUMP JUMPDEST POP POP POP JUMP JUMPDEST PUSH2 0x11CA DUP5 DUP5 DUP5 PUSH2 0xCC8 JUMP JUMPDEST PUSH2 0x11D6 DUP5 DUP5 DUP5 DUP5 PUSH2 0x14B2 JUMP JUMPDEST PUSH2 0x1215 JUMPI PUSH1 0x40 MLOAD PUSH32 0x8C379A000000000000000000000000000000000000000000000000000000000 DUP2 MSTORE PUSH1 0x4 ADD PUSH2 0x120C SWAP1 PUSH2 0x211E JUMP JUMPDEST PUSH1 0x40 MLOAD DUP1 SWAP2 SUB SWAP1 REVERT JUMPDEST POP POP POP POP JUMP JUMPDEST PUSH1 0x60 PUSH1 0x40 MLOAD DUP1 PUSH1 0x20 ADD PUSH1 0x40 MSTORE DUP1 PUSH1 0x0 DUP2 MSTORE POP SWAP1 POP SWAP1 JUMP JUMPDEST PUSH1 0x60 PUSH1 0x0 DUP3 EQ ISZERO PUSH2 0x127A JUMPI PUSH1 0x40 MLOAD DUP1 PUSH1 0x40 ADD PUSH1 0x40 MSTORE DUP1 PUSH1 0x1 DUP2 MSTORE PUSH1 0x20 ADD PUSH32 0x3000000000000000000000000000000000000000000000000000000000000000 DUP2 MSTORE POP SWAP1 POP PUSH2 0x13DA JUMP JUMPDEST PUSH1 0x0 DUP3 SWAP1 POP PUSH1 0x0 JUMPDEST PUSH1 0x0 DUP3 EQ PUSH2 0x12AC JUMPI DUP1 DUP1 PUSH2 0x1295 SWAP1 PUSH2 0x2537 JUMP JUMPDEST SWAP2 POP POP PUSH1 0xA DUP3 PUSH2 0x12A5 SWAP2 SWAP1 PUSH2 0x23B9 JUMP JUMPDEST SWAP2 POP PUSH2 0x1282 JUMP JUMPDEST PUSH1 0x0 DUP2 PUSH8 0xFFFFFFFFFFFFFFFF DUP2 GT ISZERO PUSH2 0x12EE JUMPI PUSH32 0x4E487B7100000000000000000000000000000000000000000000000000000000 PUSH1 0x0 MSTORE PUSH1 0x41 PUSH1 0x4 MSTORE PUSH1 0x24 PUSH1 0x0 REVERT JUMPDEST PUSH1 0x40 MLOAD SWAP1 DUP1 DUP3 MSTORE DUP1 PUSH1 0x1F ADD PUSH1 0x1F NOT AND PUSH1 0x20 ADD DUP3 ADD PUSH1 0x40 MSTORE DUP1 ISZERO PUSH2 0x1320 JUMPI DUP2 PUSH1 0x20 ADD PUSH1 0x1 DUP3 MUL DUP1 CALLDATASIZE DUP4 CALLDATACOPY DUP1 DUP3 ADD SWAP2 POP POP SWAP1 POP JUMPDEST POP SWAP1 POP JUMPDEST PUSH1 0x0 DUP6 EQ PUSH2 0x13D3 JUMPI PUSH1 0x1 DUP3 PUSH2 0x1339 SWAP2 SWAP1 PUSH2 0x23EA JUMP JUMPDEST SWAP2 POP PUSH1 0xA DUP6 PUSH2 0x1348 SWAP2 SWAP1 PUSH2 0x2580 JUMP JUMPDEST PUSH1 0x30 PUSH2 0x1354 SWAP2 SWAP1 PUSH2 0x2363 JUMP JUMPDEST PUSH1 0xF8 SHL DUP2 DUP4 DUP2 MLOAD DUP2 LT PUSH2 0x1390 JUMPI PUSH32 0x4E487B7100000000000000000000000000000000000000000000000000000000 PUSH1 0x0 MSTORE PUSH1 0x32 PUSH1 0x4 MSTORE PUSH1 0x24 PUSH1 0x0 REVERT JUMPDEST PUSH1 0x20 ADD ADD SWAP1 PUSH31 0xFFFFFFFFFFFFFFFFFFFFFFFFFFFFFFFFFFFFFFFFFFFFFFFFFFFFFFFFFFFFFF NOT AND SWAP1 DUP2 PUSH1 0x0 BYTE SWAP1 MSTORE8 POP PUSH1 0xA DUP6 PUSH2 0x13CC SWAP2 SWAP1 PUSH2 0x23B9 JUMP JUMPDEST SWAP5 POP PUSH2 0x1324 JUMP JUMPDEST DUP1 SWAP4 POP POP POP POP JUMPDEST SWAP2 SWAP1 POP JUMP JUMPDEST PUSH1 0x0 DUP1 PUSH20 0xFFFFFFFFFFFFFFFFFFFFFFFFFFFFFFFFFFFFFFFF AND PUSH1 0x2 PUSH1 0x0 DUP5 DUP2 MSTORE PUSH1 0x20 ADD SWAP1 DUP2 MSTORE PUSH1 0x20 ADD PUSH1 0x0 KECCAK256 PUSH1 0x0 SWAP1 SLOAD SWAP1 PUSH2 0x100 EXP SWAP1 DIV PUSH20 0xFFFFFFFFFFFFFFFFFFFFFFFFFFFFFFFFFFFFFFFF AND PUSH20 0xFFFFFFFFFFFFFFFFFFFFFFFFFFFFFFFFFFFFFFFF AND EQ ISZERO SWAP1 POP SWAP2 SWAP1 POP JUMP JUMPDEST POP POP POP JUMP JUMPDEST POP POP POP JUMP JUMPDEST PUSH2 0x1460 DUP5 DUP5 DUP5 PUSH2 0x1649 JUMP JUMPDEST PUSH2 0x146D PUSH1 0x0 DUP6 DUP5 DUP5 PUSH2 0x14B2 JUMP JUMPDEST PUSH2 0x14AC JUMPI PUSH1 0x40 MLOAD PUSH32 0x8C379A000000000000000000000000000000000000000000000000000000000 DUP2 MSTORE PUSH1 0x4 ADD PUSH2 0x14A3 SWAP1 PUSH2 0x211E JUMP JUMPDEST PUSH1 0x40 MLOAD DUP1 SWAP2 SUB SWAP1 REVERT JUMPDEST POP POP POP POP JUMP JUMPDEST PUSH1 0x0 PUSH2 0x14D3 DUP5 PUSH20 0xFFFFFFFFFFFFFFFFFFFFFFFFFFFFFFFFFFFFFFFF AND PUSH2 0x1926 JUMP JUMPDEST ISZERO PUSH2 0x163C JUMPI DUP4 PUSH20 0xFFFFFFFFFFFFFFFFFFFFFFFFFFFFFFFFFFFFFFFF AND PUSH4 0x150B7A02 PUSH2 0x14FC PUSH2 0xB72 JUMP JUMPDEST DUP8 DUP7 DUP7 PUSH1 0x40 MLOAD DUP6 PUSH4 0xFFFFFFFF AND PUSH1 0xE0 SHL DUP2 MSTORE PUSH1 0x4 ADD PUSH2 0x151E SWAP5 SWAP4 SWAP3 SWAP2 SWAP1 PUSH2 0x2075 JUMP JUMPDEST PUSH1 0x20 PUSH1 0x40 MLOAD DUP1 DUP4 SUB DUP2 PUSH1 0x0 DUP8 DUP1 EXTCODESIZE ISZERO DUP1 ISZERO PUSH2 0x1538 JUMPI PUSH1 0x0 DUP1 REVERT JUMPDEST POP GAS CALL SWAP3 POP POP POP DUP1 ISZERO PUSH2 0x1569 JUMPI POP PUSH1 0x40 MLOAD RETURNDATASIZE PUSH1 0x1F NOT PUSH1 0x1F DUP3 ADD AND DUP3 ADD DUP1 PUSH1 0x40 MSTORE POP DUP2 ADD SWAP1 PUSH2 0x1566 SWAP2 SWAP1 PUSH2 0x1D70 JUMP JUMPDEST PUSH1 0x1 JUMPDEST PUSH2 0x15EC JUMPI RETURNDATASIZE DUP1 PUSH1 0x0 DUP2 EQ PUSH2 0x1599 JUMPI PUSH1 0x40 MLOAD SWAP2 POP PUSH1 0x1F NOT PUSH1 0x3F RETURNDATASIZE ADD AND DUP3 ADD PUSH1 0x40 MSTORE RETURNDATASIZE DUP3 MSTORE RETURNDATASIZE PUSH1 0x0 PUSH1 0x20 DUP5 ADD RETURNDATACOPY PUSH2 0x159E JUMP JUMPDEST PUSH1 0x60 SWAP2 POP JUMPDEST POP PUSH1 0x0 DUP2 MLOAD EQ ISZERO PUSH2 0x15E4 JUMPI PUSH1 0x40 MLOAD PUSH32 0x8C379A000000000000000000000000000000000000000000000000000000000 DUP2 MSTORE PUSH1 0x4 ADD PUSH2 0x15DB SWAP1 PUSH2 0x211E JUMP JUMPDEST PUSH1 0x40 MLOAD DUP1 SWAP2 SUB SWAP1 REVERT JUMPDEST DUP1 MLOAD DUP2 PUSH1 0x20 ADD REVERT JUMPDEST PUSH4 0x150B7A02 PUSH1 0xE0 SHL PUSH28 0xFFFFFFFFFFFFFFFFFFFFFFFFFFFFFFFFFFFFFFFFFFFFFFFFFFFFFFFF NOT AND DUP2 PUSH28 0xFFFFFFFFFFFFFFFFFFFFFFFFFFFFFFFFFFFFFFFFFFFFFFFFFFFFFFFF NOT AND EQ SWAP2 POP POP PUSH2 0x1641 JUMP JUMPDEST PUSH1 0x1 SWAP1 POP JUMPDEST SWAP5 SWAP4 POP POP POP POP JUMP JUMPDEST PUSH1 0x0 PUSH20 0xFFFFFFFFFFFFFFFFFFFFFFFFFFFFFFFFFFFFFFFF AND DUP4 PUSH20 0xFFFFFFFFFFFFFFFFFFFFFFFFFFFFFFFFFFFFFFFF AND EQ ISZERO PUSH2 0x16B9 JUMPI PUSH1 0x40 MLOAD PUSH32 0x8C379A000000000000000000000000000000000000000000000000000000000 DUP2 MSTORE PUSH1 0x4 ADD PUSH2 0x16B0 SWAP1 PUSH2 0x21FE JUMP JUMPDEST PUSH1 0x40 MLOAD DUP1 SWAP2 SUB SWAP1 REVERT JUMPDEST PUSH1 0x0 PUSH20 0xFFFFFFFFFFFFFFFFFFFFFFFFFFFFFFFFFFFFFFFF AND DUP3 PUSH20 0xFFFFFFFFFFFFFFFFFFFFFFFFFFFFFFFFFFFFFFFF AND EQ ISZERO PUSH2 0x1729 JUMPI PUSH1 0x40 MLOAD PUSH32 0x8C379A000000000000000000000000000000000000000000000000000000000 DUP2 MSTORE PUSH1 0x4 ADD PUSH2 0x1720 SWAP1 PUSH2 0x21FE JUMP JUMPDEST PUSH1 0x40 MLOAD DUP1 SWAP2 SUB SWAP1 REVERT JUMPDEST PUSH2 0x1732 DUP2 PUSH2 0x13DF JUMP JUMPDEST ISZERO PUSH2 0x1772 JUMPI PUSH1 0x40 MLOAD PUSH32 0x8C379A000000000000000000000000000000000000000000000000000000000 DUP2 MSTORE PUSH1 0x4 ADD PUSH2 0x1769 SWAP1 PUSH2 0x215E JUMP JUMPDEST PUSH1 0x40 MLOAD DUP1 SWAP2 SUB SWAP1 REVERT JUMPDEST PUSH2 0x177E PUSH1 0x0 DUP5 DUP4 PUSH2 0x144B JUMP JUMPDEST PUSH2 0x1787 DUP2 PUSH2 0x13DF JUMP JUMPDEST ISZERO PUSH2 0x17C7 JUMPI PUSH1 0x40 MLOAD PUSH32 0x8C379A000000000000000000000000000000000000000000000000000000000 DUP2 MSTORE PUSH1 0x4 ADD PUSH2 0x17BE SWAP1 PUSH2 0x215E JUMP JUMPDEST PUSH1 0x40 MLOAD DUP1 SWAP2 SUB SWAP1 REVERT JUMPDEST PUSH1 0x1 PUSH1 0x4 PUSH1 0x0 DUP6 PUSH20 0xFFFFFFFFFFFFFFFFFFFFFFFFFFFFFFFFFFFFFFFF AND PUSH20 0xFFFFFFFFFFFFFFFFFFFFFFFFFFFFFFFFFFFFFFFF AND DUP2 MSTORE PUSH1 0x20 ADD SWAP1 DUP2 MSTORE PUSH1 0x20 ADD PUSH1 0x0 KECCAK256 PUSH1 0x0 DUP3 DUP3 SLOAD ADD SWAP3 POP POP DUP2 SWAP1 SSTORE POP DUP3 PUSH1 0x2 PUSH1 0x0 DUP4 DUP2 MSTORE PUSH1 0x20 ADD SWAP1 DUP2 MSTORE PUSH1 0x20 ADD PUSH1 0x0 KECCAK256 PUSH1 0x0 PUSH2 0x100 EXP DUP2 SLOAD DUP2 PUSH20 0xFFFFFFFFFFFFFFFFFFFFFFFFFFFFFFFFFFFFFFFF MUL NOT AND SWAP1 DUP4 PUSH20 0xFFFFFFFFFFFFFFFFFFFFFFFFFFFFFFFFFFFFFFFF AND MUL OR SWAP1 SSTORE POP DUP2 PUSH1 0x3 PUSH1 0x0 DUP4 DUP2 MSTORE PUSH1 0x20 ADD SWAP1 DUP2 MSTORE PUSH1 0x20 ADD PUSH1 0x0 KECCAK256 PUSH1 0x0 PUSH2 0x100 EXP DUP2 SLOAD DUP2 PUSH20 0xFFFFFFFFFFFFFFFFFFFFFFFFFFFFFFFFFFFFFFFF MUL NOT AND SWAP1 DUP4 PUSH20 0xFFFFFFFFFFFFFFFFFFFFFFFFFFFFFFFFFFFFFFFF AND MUL OR SWAP1 SSTORE POP DUP1 DUP4 PUSH20 0xFFFFFFFFFFFFFFFFFFFFFFFFFFFFFFFFFFFFFFFF AND PUSH1 0x0 PUSH20 0xFFFFFFFFFFFFFFFFFFFFFFFFFFFFFFFFFFFFFFFF AND PUSH32 0xDDF252AD1BE2C89B69C2B068FC378DAA952BA7F163C4A11628F55A4DF523B3EF PUSH1 0x40 MLOAD PUSH1 0x40 MLOAD DUP1 SWAP2 SUB SWAP1 LOG4 PUSH2 0x1921 PUSH1 0x0 DUP5 DUP4 PUSH2 0x1450 JUMP JUMPDEST POP POP POP JUMP JUMPDEST PUSH1 0x0 DUP1 DUP3 PUSH20 0xFFFFFFFFFFFFFFFFFFFFFFFFFFFFFFFFFFFFFFFF AND EXTCODESIZE GT SWAP1 POP SWAP2 SWAP1 POP JUMP JUMPDEST DUP3 DUP1 SLOAD PUSH2 0x1955 SWAP1 PUSH2 0x24D4 JUMP JUMPDEST SWAP1 PUSH1 0x0 MSTORE PUSH1 0x20 PUSH1 0x0 KECCAK256 SWAP1 PUSH1 0x1F ADD PUSH1 0x20 SWAP1 DIV DUP2 ADD SWAP3 DUP3 PUSH2 0x1977 JUMPI PUSH1 0x0 DUP6 SSTORE PUSH2 0x19BE JUMP JUMPDEST DUP3 PUSH1 0x1F LT PUSH2 0x1990 JUMPI DUP1 MLOAD PUSH1 0xFF NOT AND DUP4 DUP1 ADD OR DUP6 SSTORE PUSH2 0x19BE JUMP JUMPDEST DUP3 DUP1 ADD PUSH1 0x1 ADD DUP6 SSTORE DUP3 ISZERO PUSH2 0x19BE JUMPI SWAP2 DUP3 ADD JUMPDEST DUP3 DUP2 GT ISZERO PUSH2 0x19BD JUMPI DUP3 MLOAD DUP3 SSTORE SWAP2 PUSH1 0x20 ADD SWAP2 SWAP1 PUSH1 0x1 ADD SWAP1 PUSH2 0x19A2 JUMP JUMPDEST JUMPDEST POP SWAP1 POP PUSH2 0x19CB SWAP2 SWAP1 PUSH2 0x19CF JUMP JUMPDEST POP SWAP1 JUMP JUMPDEST JUMPDEST DUP1 DUP3 GT ISZERO PUSH2 0x19E8 JUMPI PUSH1 0x0 DUP2 PUSH1 0x0 SWAP1 SSTORE POP PUSH1 0x1 ADD PUSH2 0x19D0 JUMP JUMPDEST POP SWAP1 JUMP JUMPDEST PUSH1 0x0 PUSH2 0x19FF PUSH2 0x19FA DUP5 PUSH2 0x22BE JUMP JUMPDEST PUSH2 0x2299 JUMP JUMPDEST SWAP1 POP DUP3 DUP2 MSTORE PUSH1 0x20 DUP2 ADD DUP5 DUP5 DUP5 ADD GT ISZERO PUSH2 0x1A17 JUMPI PUSH1 0x0 DUP1 REVERT JUMPDEST PUSH2 0x1A22 DUP5 DUP3 DUP6 PUSH2 0x2492 JUMP JUMPDEST POP SWAP4 SWAP3 POP POP POP JUMP JUMPDEST PUSH1 0x0 PUSH2 0x1A3D PUSH2 0x1A38 DUP5 PUSH2 0x22EF JUMP JUMPDEST PUSH2 0x2299 JUMP JUMPDEST SWAP1 POP DUP3 DUP2 MSTORE PUSH1 0x20 DUP2 ADD DUP5 DUP5 DUP5 ADD GT ISZERO PUSH2 0x1A55 JUMPI PUSH1 0x0 DUP1 REVERT JUMPDEST PUSH2 0x1A60 DUP5 DUP3 DUP6 PUSH2 0x2492 JUMP JUMPDEST POP SWAP4 SWAP3 POP POP POP JUMP JUMPDEST PUSH1 0x0 DUP2 CALLDATALOAD SWAP1 POP PUSH2 0x1A77 DUP2 PUSH2 0x299A JUMP JUMPDEST SWAP3 SWAP2 POP POP JUMP JUMPDEST PUSH1 0x0 DUP2 CALLDATALOAD SWAP1 POP PUSH2 0x1A8C DUP2 PUSH2 0x29B1 JUMP JUMPDEST SWAP3 SWAP2 POP POP JUMP JUMPDEST PUSH1 0x0 DUP2 CALLDATALOAD SWAP1 POP PUSH2 0x1AA1 DUP2 PUSH2 0x29C8 JUMP JUMPDEST SWAP3 SWAP2 POP POP JUMP JUMPDEST PUSH1 0x0 DUP2 MLOAD SWAP1 POP PUSH2 0x1AB6 DUP2 PUSH2 0x29C8 JUMP JUMPDEST SWAP3 SWAP2 POP POP JUMP JUMPDEST PUSH1 0x0 DUP3 PUSH1 0x1F DUP4 ADD SLT PUSH2 0x1ACD JUMPI PUSH1 0x0 DUP1 REVERT JUMPDEST DUP2 CALLDATALOAD PUSH2 0x1ADD DUP5 DUP3 PUSH1 0x20 DUP7 ADD PUSH2 0x19EC JUMP JUMPDEST SWAP2 POP POP SWAP3 SWAP2 POP POP JUMP JUMPDEST PUSH1 0x0 DUP3 PUSH1 0x1F DUP4 ADD SLT PUSH2 0x1AF7 JUMPI PUSH1 0x0 DUP1 REVERT JUMPDEST DUP2 CALLDATALOAD PUSH2 0x1B07 DUP5 DUP3 PUSH1 0x20 DUP7 ADD PUSH2 0x1A2A JUMP JUMPDEST SWAP2 POP POP SWAP3 SWAP2 POP POP JUMP JUMPDEST PUSH1 0x0 DUP2 CALLDATALOAD SWAP1 POP PUSH2 0x1B1F DUP2 PUSH2 0x29DF JUMP JUMPDEST SWAP3 SWAP2 POP POP JUMP JUMPDEST PUSH1 0x0 PUSH1 0x20 DUP3 DUP5 SUB SLT ISZERO PUSH2 0x1B37 JUMPI PUSH1 0x0 DUP1 REVERT JUMPDEST PUSH1 0x0 PUSH2 0x1B45 DUP5 DUP3 DUP6 ADD PUSH2 0x1A68 JUMP JUMPDEST SWAP2 POP POP SWAP3 SWAP2 POP POP JUMP JUMPDEST PUSH1 0x0 DUP1 PUSH1 0x40 DUP4 DUP6 SUB SLT ISZERO PUSH2 0x1B61 JUMPI PUSH1 0x0 DUP1 REVERT JUMPDEST PUSH1 0x0 PUSH2 0x1B6F DUP6 DUP3 DUP7 ADD PUSH2 0x1A68 JUMP JUMPDEST SWAP3 POP POP PUSH1 0x20 PUSH2 0x1B80 DUP6 DUP3 DUP7 ADD PUSH2 0x1A68 JUMP JUMPDEST SWAP2 POP POP SWAP3 POP SWAP3 SWAP1 POP JUMP JUMPDEST PUSH1 0x0 DUP1 PUSH1 0x0 PUSH1 0x60 DUP5 DUP7 SUB SLT ISZERO PUSH2 0x1B9F JUMPI PUSH1 0x0 DUP1 REVERT JUMPDEST PUSH1 0x0 PUSH2 0x1BAD DUP7 DUP3 DUP8 ADD PUSH2 0x1A68 JUMP JUMPDEST SWAP4 POP POP PUSH1 0x20 PUSH2 0x1BBE DUP7 DUP3 DUP8 ADD PUSH2 0x1A68 JUMP JUMPDEST SWAP3 POP POP PUSH1 0x40 PUSH2 0x1BCF DUP7 DUP3 DUP8 ADD PUSH2 0x1B10 JUMP JUMPDEST SWAP2 POP POP SWAP3 POP SWAP3 POP SWAP3 JUMP JUMPDEST PUSH1 0x0 DUP1 PUSH1 0x0 DUP1 PUSH1 0x80 DUP6 DUP8 SUB SLT ISZERO PUSH2 0x1BEF JUMPI PUSH1 0x0 DUP1 REVERT JUMPDEST PUSH1 0x0 PUSH2 0x1BFD DUP8 DUP3 DUP9 ADD PUSH2 0x1A68 JUMP JUMPDEST SWAP5 POP POP PUSH1 0x20 PUSH2 0x1C0E DUP8 DUP3 DUP9 ADD PUSH2 0x1A68 JUMP JUMPDEST SWAP4 POP POP PUSH1 0x40 PUSH2 0x1C1F DUP8 DUP3 DUP9 ADD PUSH2 0x1B10 JUMP JUMPDEST SWAP3 POP POP PUSH1 0x60 DUP6 ADD CALLDATALOAD PUSH8 0xFFFFFFFFFFFFFFFF DUP2 GT ISZERO PUSH2 0x1C3C JUMPI PUSH1 0x0 DUP1 REVERT JUMPDEST PUSH2 0x1C48 DUP8 DUP3 DUP9 ADD PUSH2 0x1ABC JUMP JUMPDEST SWAP2 POP POP SWAP3 SWAP6 SWAP2 SWAP5 POP SWAP3 POP JUMP JUMPDEST PUSH1 0x0 DUP1 PUSH1 0x0 DUP1 PUSH1 0x80 DUP6 DUP8 SUB SLT ISZERO PUSH2 0x1C6A JUMPI PUSH1 0x0 DUP1 REVERT JUMPDEST PUSH1 0x0 PUSH2 0x1C78 DUP8 DUP3 DUP9 ADD PUSH2 0x1A68 JUMP JUMPDEST SWAP5 POP POP PUSH1 0x20 PUSH2 0x1C89 DUP8 DUP3 DUP9 ADD PUSH2 0x1A68 JUMP JUMPDEST SWAP4 POP POP PUSH1 0x40 PUSH2 0x1C9A DUP8 DUP3 DUP9 ADD PUSH2 0x1B10 JUMP JUMPDEST SWAP3 POP POP PUSH1 0x60 DUP6 ADD CALLDATALOAD PUSH8 0xFFFFFFFFFFFFFFFF DUP2 GT ISZERO PUSH2 0x1CB7 JUMPI PUSH1 0x0 DUP1 REVERT JUMPDEST PUSH2 0x1CC3 DUP8 DUP3 DUP9 ADD PUSH2 0x1AE6 JUMP JUMPDEST SWAP2 POP POP SWAP3 SWAP6 SWAP2 SWAP5 POP SWAP3 POP JUMP JUMPDEST PUSH1 0x0 DUP1 PUSH1 0x40 DUP4 DUP6 SUB SLT ISZERO PUSH2 0x1CE2 JUMPI PUSH1 0x0 DUP1 REVERT JUMPDEST PUSH1 0x0 PUSH2 0x1CF0 DUP6 DUP3 DUP7 ADD PUSH2 0x1A68 JUMP JUMPDEST SWAP3 POP POP PUSH1 0x20 PUSH2 0x1D01 DUP6 DUP3 DUP7 ADD PUSH2 0x1A7D JUMP JUMPDEST SWAP2 POP POP SWAP3 POP SWAP3 SWAP1 POP JUMP JUMPDEST PUSH1 0x0 DUP1 PUSH1 0x40 DUP4 DUP6 SUB SLT ISZERO PUSH2 0x1D1E JUMPI PUSH1 0x0 DUP1 REVERT JUMPDEST PUSH1 0x0 PUSH2 0x1D2C DUP6 DUP3 DUP7 ADD PUSH2 0x1A68 JUMP JUMPDEST SWAP3 POP POP PUSH1 0x20 PUSH2 0x1D3D DUP6 DUP3 DUP7 ADD PUSH2 0x1B10 JUMP JUMPDEST SWAP2 POP POP SWAP3 POP SWAP3 SWAP1 POP JUMP JUMPDEST PUSH1 0x0 PUSH1 0x20 DUP3 DUP5 SUB SLT ISZERO PUSH2 0x1D59 JUMPI PUSH1 0x0 DUP1 REVERT JUMPDEST PUSH1 0x0 PUSH2 0x1D67 DUP5 DUP3 DUP6 ADD PUSH2 0x1A92 JUMP JUMPDEST SWAP2 POP POP SWAP3 SWAP2 POP POP JUMP JUMPDEST PUSH1 0x0 PUSH1 0x20 DUP3 DUP5 SUB SLT ISZERO PUSH2 0x1D82 JUMPI PUSH1 0x0 DUP1 REVERT JUMPDEST PUSH1 0x0 PUSH2 0x1D90 DUP5 DUP3 DUP6 ADD PUSH2 0x1AA7 JUMP JUMPDEST SWAP2 POP POP SWAP3 SWAP2 POP POP JUMP JUMPDEST PUSH1 0x0 PUSH1 0x20 DUP3 DUP5 SUB SLT ISZERO PUSH2 0x1DAB JUMPI PUSH1 0x0 DUP1 REVERT JUMPDEST PUSH1 0x0 PUSH2 0x1DB9 DUP5 DUP3 DUP6 ADD PUSH2 0x1B10 JUMP JUMPDEST SWAP2 POP POP SWAP3 SWAP2 POP POP JUMP JUMPDEST PUSH2 0x1DCB DUP2 PUSH2 0x241E JUMP JUMPDEST DUP3 MSTORE POP POP JUMP JUMPDEST PUSH2 0x1DDA DUP2 PUSH2 0x2430 JUMP JUMPDEST DUP3 MSTORE POP POP JUMP JUMPDEST PUSH1 0x0 PUSH2 0x1DEB DUP3 PUSH2 0x2320 JUMP JUMPDEST PUSH2 0x1DF5 DUP2 DUP6 PUSH2 0x2336 JUMP JUMPDEST SWAP4 POP PUSH2 0x1E05 DUP2 DUP6 PUSH1 0x20 DUP7 ADD PUSH2 0x24A1 JUMP JUMPDEST PUSH2 0x1E0E DUP2 PUSH2 0x266D JUMP JUMPDEST DUP5 ADD SWAP2 POP POP SWAP3 SWAP2 POP POP JUMP JUMPDEST PUSH1 0x0 PUSH2 0x1E24 DUP3 PUSH2 0x232B JUMP JUMPDEST PUSH2 0x1E2E DUP2 DUP6 PUSH2 0x2347 JUMP JUMPDEST SWAP4 POP PUSH2 0x1E3E DUP2 DUP6 PUSH1 0x20 DUP7 ADD PUSH2 0x24A1 JUMP JUMPDEST PUSH2 0x1E47 DUP2 PUSH2 0x266D JUMP JUMPDEST DUP5 ADD SWAP2 POP POP SWAP3 SWAP2 POP POP JUMP JUMPDEST PUSH1 0x0 PUSH2 0x1E5D DUP3 PUSH2 0x232B JUMP JUMPDEST PUSH2 0x1E67 DUP2 DUP6 PUSH2 0x2358 JUMP JUMPDEST SWAP4 POP PUSH2 0x1E77 DUP2 DUP6 PUSH1 0x20 DUP7 ADD PUSH2 0x24A1 JUMP JUMPDEST DUP1 DUP5 ADD SWAP2 POP POP SWAP3 SWAP2 POP POP JUMP JUMPDEST PUSH1 0x0 PUSH2 0x1E90 PUSH1 0x2D DUP4 PUSH2 0x2347 JUMP JUMPDEST SWAP2 POP PUSH2 0x1E9B DUP3 PUSH2 0x267E JUMP JUMPDEST PUSH1 0x40 DUP3 ADD SWAP1 POP SWAP2 SWAP1 POP JUMP JUMPDEST PUSH1 0x0 PUSH2 0x1EB3 PUSH1 0x32 DUP4 PUSH2 0x2347 JUMP JUMPDEST SWAP2 POP PUSH2 0x1EBE DUP3 PUSH2 0x26CD JUMP JUMPDEST PUSH1 0x40 DUP3 ADD SWAP1 POP SWAP2 SWAP1 POP JUMP JUMPDEST PUSH1 0x0 PUSH2 0x1ED6 PUSH1 0x25 DUP4 PUSH2 0x2347 JUMP JUMPDEST SWAP2 POP PUSH2 0x1EE1 DUP3 PUSH2 0x271C JUMP JUMPDEST PUSH1 0x40 DUP3 ADD SWAP1 POP SWAP2 SWAP1 POP JUMP JUMPDEST PUSH1 0x0 PUSH2 0x1EF9 PUSH1 0x1C DUP4 PUSH2 0x2347 JUMP JUMPDEST SWAP2 POP PUSH2 0x1F04 DUP3 PUSH2 0x276B JUMP JUMPDEST PUSH1 0x20 DUP3 ADD SWAP1 POP SWAP2 SWAP1 POP JUMP JUMPDEST PUSH1 0x0 PUSH2 0x1F1C PUSH1 0x24 DUP4 PUSH2 0x2347 JUMP JUMPDEST SWAP2 POP PUSH2 0x1F27 DUP3 PUSH2 0x2794 JUMP JUMPDEST PUSH1 0x40 DUP3 ADD SWAP1 POP SWAP2 SWAP1 POP JUMP JUMPDEST PUSH1 0x0 PUSH2 0x1F3F PUSH1 0x19 DUP4 PUSH2 0x2347 JUMP JUMPDEST SWAP2 POP PUSH2 0x1F4A DUP3 PUSH2 0x27E3 JUMP JUMPDEST PUSH1 0x20 DUP3 ADD SWAP1 POP SWAP2 SWAP1 POP JUMP JUMPDEST PUSH1 0x0 PUSH2 0x1F62 PUSH1 0x29 DUP4 PUSH2 0x2347 JUMP JUMPDEST SWAP2 POP PUSH2 0x1F6D DUP3 PUSH2 0x280C JUMP JUMPDEST PUSH1 0x40 DUP3 ADD SWAP1 POP SWAP2 SWAP1 POP JUMP JUMPDEST PUSH1 0x0 PUSH2 0x1F85 PUSH1 0x2E DUP4 PUSH2 0x2347 JUMP JUMPDEST SWAP2 POP PUSH2 0x1F90 DUP3 PUSH2 0x285B JUMP JUMPDEST PUSH1 0x40 DUP3 ADD SWAP1 POP SWAP2 SWAP1 POP JUMP JUMPDEST PUSH1 0x0 PUSH2 0x1FA8 PUSH1 0x20 DUP4 PUSH2 0x2347 JUMP JUMPDEST SWAP2 POP PUSH2 0x1FB3 DUP3 PUSH2 0x28AA JUMP JUMPDEST PUSH1 0x20 DUP3 ADD SWAP1 POP SWAP2 SWAP1 POP JUMP JUMPDEST PUSH1 0x0 PUSH2 0x1FCB PUSH1 0x18 DUP4 PUSH2 0x2347 JUMP JUMPDEST SWAP2 POP PUSH2 0x1FD6 DUP3 PUSH2 0x28D3 JUMP JUMPDEST PUSH1 0x20 DUP3 ADD SWAP1 POP SWAP2 SWAP1 POP JUMP JUMPDEST PUSH1 0x0 PUSH2 0x1FEE PUSH1 0x21 DUP4 PUSH2 0x2347 JUMP JUMPDEST SWAP2 POP PUSH2 0x1FF9 DUP3 PUSH2 0x28FC JUMP JUMPDEST PUSH1 0x40 DUP3 ADD SWAP1 POP SWAP2 SWAP1 POP JUMP JUMPDEST PUSH1 0x0 PUSH2 0x2011 PUSH1 0x3D DUP4 PUSH2 0x2347 JUMP JUMPDEST SWAP2 POP PUSH2 0x201C DUP3 PUSH2 0x294B JUMP JUMPDEST PUSH1 0x40 DUP3 ADD SWAP1 POP SWAP2 SWAP1 POP JUMP JUMPDEST PUSH2 0x2030 DUP2 PUSH2 0x2488 JUMP JUMPDEST DUP3 MSTORE POP POP JUMP JUMPDEST PUSH1 0x0 PUSH2 0x2042 DUP3 DUP6 PUSH2 0x1E52 JUMP JUMPDEST SWAP2 POP PUSH2 0x204E DUP3 DUP5 PUSH2 0x1E52 JUMP JUMPDEST SWAP2 POP DUP2 SWAP1 POP SWAP4 SWAP3 POP POP POP JUMP JUMPDEST PUSH1 0x0 PUSH1 0x20 DUP3 ADD SWAP1 POP PUSH2 0x206F PUSH1 0x0 DUP4 ADD DUP5 PUSH2 0x1DC2 JUMP JUMPDEST SWAP3 SWAP2 POP POP JUMP JUMPDEST PUSH1 0x0 PUSH1 0x80 DUP3 ADD SWAP1 POP PUSH2 0x208A PUSH1 0x0 DUP4 ADD DUP8 PUSH2 0x1DC2 JUMP JUMPDEST PUSH2 0x2097 PUSH1 0x20 DUP4 ADD DUP7 PUSH2 0x1DC2 JUMP JUMPDEST PUSH2 0x20A4 PUSH1 0x40 DUP4 ADD DUP6 PUSH2 0x2027 JUMP JUMPDEST DUP2 DUP2 SUB PUSH1 0x60 DUP4 ADD MSTORE PUSH2 0x20B6 DUP2 DUP5 PUSH2 0x1DE0 JUMP JUMPDEST SWAP1 POP SWAP6 SWAP5 POP POP POP POP POP JUMP JUMPDEST PUSH1 0x0 PUSH1 0x20 DUP3 ADD SWAP1 POP PUSH2 0x20D6 PUSH1 0x0 DUP4 ADD DUP5 PUSH2 0x1DD1 JUMP JUMPDEST SWAP3 SWAP2 POP POP JUMP JUMPDEST PUSH1 0x0 PUSH1 0x20 DUP3 ADD SWAP1 POP DUP2 DUP2 SUB PUSH1 0x0 DUP4 ADD MSTORE PUSH2 0x20F6 DUP2 DUP5 PUSH2 0x1E19 JUMP JUMPDEST SWAP1 POP SWAP3 SWAP2 POP POP JUMP JUMPDEST PUSH1 0x0 PUSH1 0x20 DUP3 ADD SWAP1 POP DUP2 DUP2 SUB PUSH1 0x0 DUP4 ADD MSTORE PUSH2 0x2117 DUP2 PUSH2 0x1E83 JUMP JUMPDEST SWAP1 POP SWAP2 SWAP1 POP JUMP JUMPDEST PUSH1 0x0 PUSH1 0x20 DUP3 ADD SWAP1 POP DUP2 DUP2 SUB PUSH1 0x0 DUP4 ADD MSTORE PUSH2 0x2137 DUP2 PUSH2 0x1EA6 JUMP JUMPDEST SWAP1 POP SWAP2 SWAP1 POP JUMP JUMPDEST PUSH1 0x0 PUSH1 0x20 DUP3 ADD SWAP1 POP DUP2 DUP2 SUB PUSH1 0x0 DUP4 ADD MSTORE PUSH2 0x2157 DUP2 PUSH2 0x1EC9 JUMP JUMPDEST SWAP1 POP SWAP2 SWAP1 POP JUMP JUMPDEST PUSH1 0x0 PUSH1 0x20 DUP3 ADD SWAP1 POP DUP2 DUP2 SUB PUSH1 0x0 DUP4 ADD MSTORE PUSH2 0x2177 DUP2 PUSH2 0x1EEC JUMP JUMPDEST SWAP1 POP SWAP2 SWAP1 POP JUMP JUMPDEST PUSH1 0x0 PUSH1 0x20 DUP3 ADD SWAP1 POP DUP2 DUP2 SUB PUSH1 0x0 DUP4 ADD MSTORE PUSH2 0x2197 DUP2 PUSH2 0x1F0F JUMP JUMPDEST SWAP1 POP SWAP2 SWAP1 POP JUMP JUMPDEST PUSH1 0x0 PUSH1 0x20 DUP3 ADD SWAP1 POP DUP2 DUP2 SUB PUSH1 0x0 DUP4 ADD MSTORE PUSH2 0x21B7 DUP2 PUSH2 0x1F32 JUMP JUMPDEST SWAP1 POP SWAP2 SWAP1 POP JUMP JUMPDEST PUSH1 0x0 PUSH1 0x20 DUP3 ADD SWAP1 POP DUP2 DUP2 SUB PUSH1 0x0 DUP4 ADD MSTORE PUSH2 0x21D7 DUP2 PUSH2 0x1F55 JUMP JUMPDEST SWAP1 POP SWAP2 SWAP1 POP JUMP JUMPDEST PUSH1 0x0 PUSH1 0x20 DUP3 ADD SWAP1 POP DUP2 DUP2 SUB PUSH1 0x0 DUP4 ADD MSTORE PUSH2 0x21F7 DUP2 PUSH2 0x1F78 JUMP JUMPDEST SWAP1 POP SWAP2 SWAP1 POP JUMP JUMPDEST PUSH1 0x0 PUSH1 0x20 DUP3 ADD SWAP1 POP DUP2 DUP2 SUB PUSH1 0x0 DUP4 ADD MSTORE PUSH2 0x2217 DUP2 PUSH2 0x1F9B JUMP JUMPDEST SWAP1 POP SWAP2 SWAP1 POP JUMP JUMPDEST PUSH1 0x0 PUSH1 0x20 DUP3 ADD SWAP1 POP DUP2 DUP2 SUB PUSH1 0x0 DUP4 ADD MSTORE PUSH2 0x2237 DUP2 PUSH2 0x1FBE JUMP JUMPDEST SWAP1 POP SWAP2 SWAP1 POP JUMP JUMPDEST PUSH1 0x0 PUSH1 0x20 DUP3 ADD SWAP1 POP DUP2 DUP2 SUB PUSH1 0x0 DUP4 ADD MSTORE PUSH2 0x2257 DUP2 PUSH2 0x1FE1 JUMP JUMPDEST SWAP1 POP SWAP2 SWAP1 POP JUMP JUMPDEST PUSH1 0x0 PUSH1 0x20 DUP3 ADD SWAP1 POP DUP2 DUP2 SUB PUSH1 0x0 DUP4 ADD MSTORE PUSH2 0x2277 DUP2 PUSH2 0x2004 JUMP JUMPDEST SWAP1 POP SWAP2 SWAP1 POP JUMP JUMPDEST PUSH1 0x0 PUSH1 0x20 DUP3 ADD SWAP1 POP PUSH2 0x2293 PUSH1 0x0 DUP4 ADD DUP5 PUSH2 0x2027 JUMP JUMPDEST SWAP3 SWAP2 POP POP JUMP JUMPDEST PUSH1 0x0 PUSH2 0x22A3 PUSH2 0x22B4 JUMP JUMPDEST SWAP1 POP PUSH2 0x22AF DUP3 DUP3 PUSH2 0x2506 JUMP JUMPDEST SWAP2 SWAP1 POP JUMP JUMPDEST PUSH1 0x0 PUSH1 0x40 MLOAD SWAP1 POP SWAP1 JUMP JUMPDEST PUSH1 0x0 PUSH8 0xFFFFFFFFFFFFFFFF DUP3 GT ISZERO PUSH2 0x22D9 JUMPI PUSH2 0x22D8 PUSH2 0x263E JUMP JUMPDEST JUMPDEST PUSH2 0x22E2 DUP3 PUSH2 0x266D JUMP JUMPDEST SWAP1 POP PUSH1 0x20 DUP2 ADD SWAP1 POP SWAP2 SWAP1 POP JUMP JUMPDEST PUSH1 0x0 PUSH8 0xFFFFFFFFFFFFFFFF DUP3 GT ISZERO PUSH2 0x230A JUMPI PUSH2 0x2309 PUSH2 0x263E JUMP JUMPDEST JUMPDEST PUSH2 0x2313 DUP3 PUSH2 0x266D JUMP JUMPDEST SWAP1 POP PUSH1 0x20 DUP2 ADD SWAP1 POP SWAP2 SWAP1 POP JUMP JUMPDEST PUSH1 0x0 DUP2 MLOAD SWAP1 POP SWAP2 SWAP1 POP JUMP JUMPDEST PUSH1 0x0 DUP2 MLOAD SWAP1 POP SWAP2 SWAP1 POP JUMP JUMPDEST PUSH1 0x0 DUP3 DUP3 MSTORE PUSH1 0x20 DUP3 ADD SWAP1 POP SWAP3 SWAP2 POP POP JUMP JUMPDEST PUSH1 0x0 DUP3 DUP3 MSTORE PUSH1 0x20 DUP3 ADD SWAP1 POP SWAP3 SWAP2 POP POP JUMP JUMPDEST PUSH1 0x0 DUP2 SWAP1 POP SWAP3 SWAP2 POP POP JUMP JUMPDEST PUSH1 0x0 PUSH2 0x236E DUP3 PUSH2 0x2488 JUMP JUMPDEST SWAP2 POP PUSH2 0x2379 DUP4 PUSH2 0x2488 JUMP JUMPDEST SWAP3 POP DUP3 PUSH32 0xFFFFFFFFFFFFFFFFFFFFFFFFFFFFFFFFFFFFFFFFFFFFFFFFFFFFFFFFFFFFFFFF SUB DUP3 GT ISZERO PUSH2 0x23AE JUMPI PUSH2 0x23AD PUSH2 0x25B1 JUMP JUMPDEST JUMPDEST DUP3 DUP3 ADD SWAP1 POP SWAP3 SWAP2 POP POP JUMP JUMPDEST PUSH1 0x0 PUSH2 0x23C4 DUP3 PUSH2 0x2488 JUMP JUMPDEST SWAP2 POP PUSH2 0x23CF DUP4 PUSH2 0x2488 JUMP JUMPDEST SWAP3 POP DUP3 PUSH2 0x23DF JUMPI PUSH2 0x23DE PUSH2 0x25E0 JUMP JUMPDEST JUMPDEST DUP3 DUP3 DIV SWAP1 POP SWAP3 SWAP2 POP POP JUMP JUMPDEST PUSH1 0x0 PUSH2 0x23F5 DUP3 PUSH2 0x2488 JUMP JUMPDEST SWAP2 POP PUSH2 0x2400 DUP4 PUSH2 0x2488 JUMP JUMPDEST SWAP3 POP DUP3 DUP3 LT ISZERO PUSH2 0x2413 JUMPI PUSH2 0x2412 PUSH2 0x25B1 JUMP JUMPDEST JUMPDEST DUP3 DUP3 SUB SWAP1 POP SWAP3 SWAP2 POP POP JUMP JUMPDEST PUSH1 0x0 PUSH2 0x2429 DUP3 PUSH2 0x2468 JUMP JUMPDEST SWAP1 POP SWAP2 SWAP1 POP JUMP JUMPDEST PUSH1 0x0 DUP2 ISZERO ISZERO SWAP1 POP SWAP2 SWAP1 POP JUMP JUMPDEST PUSH1 0x0 PUSH32 0xFFFFFFFF00000000000000000000000000000000000000000000000000000000 DUP3 AND SWAP1 POP SWAP2 SWAP1 POP JUMP JUMPDEST PUSH1 0x0 PUSH20 0xFFFFFFFFFFFFFFFFFFFFFFFFFFFFFFFFFFFFFFFF DUP3 AND SWAP1 POP SWAP2 SWAP1 POP JUMP JUMPDEST PUSH1 0x0 DUP2 SWAP1 POP SWAP2 SWAP1 POP JUMP JUMPDEST DUP3 DUP2 DUP4 CALLDATACOPY PUSH1 0x0 DUP4 DUP4 ADD MSTORE POP POP POP JUMP JUMPDEST PUSH1 0x0 JUMPDEST DUP4 DUP2 LT ISZERO PUSH2 0x24BF JUMPI DUP1 DUP3 ADD MLOAD DUP2 DUP5 ADD MSTORE PUSH1 0x20 DUP2 ADD SWAP1 POP PUSH2 0x24A4 JUMP JUMPDEST DUP4 DUP2 GT ISZERO PUSH2 0x24CE JUMPI PUSH1 0x0 DUP5 DUP5 ADD MSTORE JUMPDEST POP POP POP POP JUMP JUMPDEST PUSH1 0x0 PUSH1 0x2 DUP3 DIV SWAP1 POP PUSH1 0x1 DUP3 AND DUP1 PUSH2 0x24EC JUMPI PUSH1 0x7F DUP3 AND SWAP2 POP JUMPDEST PUSH1 0x20 DUP3 LT DUP2 EQ ISZERO PUSH2 0x2500 JUMPI PUSH2 0x24FF PUSH2 0x260F JUMP JUMPDEST JUMPDEST POP SWAP2 SWAP1 POP JUMP JUMPDEST PUSH2 0x250F DUP3 PUSH2 0x266D JUMP JUMPDEST DUP2 ADD DUP2 DUP2 LT PUSH8 0xFFFFFFFFFFFFFFFF DUP3 GT OR ISZERO PUSH2 0x252E JUMPI PUSH2 0x252D PUSH2 0x263E JUMP JUMPDEST JUMPDEST DUP1 PUSH1 0x40 MSTORE POP POP POP JUMP JUMPDEST PUSH1 0x0 PUSH2 0x2542 DUP3 PUSH2 0x2488 JUMP JUMPDEST SWAP2 POP PUSH32 0xFFFFFFFFFFFFFFFFFFFFFFFFFFFFFFFFFFFFFFFFFFFFFFFFFFFFFFFFFFFFFFFF DUP3 EQ ISZERO PUSH2 0x2575 JUMPI PUSH2 0x2574 PUSH2 0x25B1 JUMP JUMPDEST JUMPDEST PUSH1 0x1 DUP3 ADD SWAP1 POP SWAP2 SWAP1 POP JUMP JUMPDEST PUSH1 0x0 PUSH2 0x258B DUP3 PUSH2 0x2488 JUMP JUMPDEST SWAP2 POP PUSH2 0x2596 DUP4 PUSH2 0x2488 JUMP JUMPDEST SWAP3 POP DUP3 PUSH2 0x25A6 JUMPI PUSH2 0x25A5 PUSH2 0x25E0 JUMP JUMPDEST JUMPDEST DUP3 DUP3 MOD SWAP1 POP SWAP3 SWAP2 POP POP JUMP JUMPDEST PUSH32 0x4E487B7100000000000000000000000000000000000000000000000000000000 PUSH1 0x0 MSTORE PUSH1 0x11 PUSH1 0x4 MSTORE PUSH1 0x24 PUSH1 0x0 REVERT JUMPDEST PUSH32 0x4E487B7100000000000000000000000000000000000000000000000000000000 PUSH1 0x0 MSTORE PUSH1 0x12 PUSH1 0x4 MSTORE PUSH1 0x24 PUSH1 0x0 REVERT JUMPDEST PUSH32 0x4E487B7100000000000000000000000000000000000000000000000000000000 PUSH1 0x0 MSTORE PUSH1 0x22 PUSH1 0x4 MSTORE PUSH1 0x24 PUSH1 0x0 REVERT JUMPDEST PUSH32 0x4E487B7100000000000000000000000000000000000000000000000000000000 PUSH1 0x0 MSTORE PUSH1 0x41 PUSH1 0x4 MSTORE PUSH1 0x24 PUSH1 0x0 REVERT JUMPDEST PUSH1 0x0 PUSH1 0x1F NOT PUSH1 0x1F DUP4 ADD AND SWAP1 POP SWAP2 SWAP1 POP JUMP JUMPDEST PUSH32 0x4552433732313A2063616C6C6572206973206E6F7420746F6B656E206F776E65 PUSH1 0x0 DUP3 ADD MSTORE PUSH32 0x72206F7220617070726F76656400000000000000000000000000000000000000 PUSH1 0x20 DUP3 ADD MSTORE POP JUMP JUMPDEST PUSH32 0x4552433732313A207472616E7366657220746F206E6F6E204552433732315265 PUSH1 0x0 DUP3 ADD MSTORE PUSH32 0x63656976657220696D706C656D656E7465720000000000000000000000000000 PUSH1 0x20 DUP3 ADD MSTORE POP JUMP JUMPDEST PUSH32 0x4552433732313A207472616E736665722066726F6D20696E636F727265637420 PUSH1 0x0 DUP3 ADD MSTORE PUSH32 0x6F776E6572000000000000000000000000000000000000000000000000000000 PUSH1 0x20 DUP3 ADD MSTORE POP JUMP JUMPDEST PUSH32 0x4552433732313A20746F6B656E20616C7265616479206D696E74656400000000 PUSH1 0x0 DUP3 ADD MSTORE POP JUMP JUMPDEST PUSH32 0x4552433732313A207472616E7366657220746F20746865207A65726F20616464 PUSH1 0x0 DUP3 ADD MSTORE PUSH32 0x7265737300000000000000000000000000000000000000000000000000000000 PUSH1 0x20 DUP3 ADD MSTORE POP JUMP JUMPDEST PUSH32 0x4552433732313A20617070726F766520746F2063616C6C657200000000000000 PUSH1 0x0 DUP3 ADD MSTORE POP JUMP JUMPDEST PUSH32 0x4552433732313A2061646472657373207A65726F206973206E6F742061207661 PUSH1 0x0 DUP3 ADD MSTORE PUSH32 0x6C6964206F776E65720000000000000000000000000000000000000000000000 PUSH1 0x20 DUP3 ADD MSTORE POP JUMP JUMPDEST PUSH32 0x45524337323155524953746F726167653A2055524920736574206F66206E6F6E PUSH1 0x0 DUP3 ADD MSTORE PUSH32 0x6578697374656E7420746F6B656E000000000000000000000000000000000000 PUSH1 0x20 DUP3 ADD MSTORE POP JUMP JUMPDEST PUSH32 0x4552433732313A206D696E7420746F20746865207A65726F2061646472657373 PUSH1 0x0 DUP3 ADD MSTORE POP JUMP JUMPDEST PUSH32 0x4552433732313A20696E76616C696420746F6B656E2049440000000000000000 PUSH1 0x0 DUP3 ADD MSTORE POP JUMP JUMPDEST PUSH32 0x4552433732313A20617070726F76616C20746F2063757272656E74206F776E65 PUSH1 0x0 DUP3 ADD MSTORE PUSH32 0x7200000000000000000000000000000000000000000000000000000000000000 PUSH1 0x20 DUP3 ADD MSTORE POP JUMP JUMPDEST PUSH32 0x4552433732313A20617070726F76652063616C6C6572206973206E6F7420746F PUSH1 0x0 DUP3 ADD MSTORE PUSH32 0x6B656E206F776E6572206F7220617070726F76656420666F7220616C6C000000 PUSH1 0x20 DUP3 ADD MSTORE POP JUMP JUMPDEST PUSH2 0x29A3 DUP2 PUSH2 0x241E JUMP JUMPDEST DUP2 EQ PUSH2 0x29AE JUMPI PUSH1 0x0 DUP1 REVERT JUMPDEST POP JUMP JUMPDEST PUSH2 0x29BA DUP2 PUSH2 0x2430 JUMP JUMPDEST DUP2 EQ PUSH2 0x29C5 JUMPI PUSH1 0x0 DUP1 REVERT JUMPDEST POP JUMP JUMPDEST PUSH2 0x29D1 DUP2 PUSH2 0x243C JUMP JUMPDEST DUP2 EQ PUSH2 0x29DC JUMPI PUSH1 0x0 DUP1 REVERT JUMPDEST POP JUMP JUMPDEST PUSH2 0x29E8 DUP2 PUSH2 0x2488 JUMP JUMPDEST DUP2 EQ PUSH2 0x29F3 JUMPI PUSH1 0x0 DUP1 REVERT JUMPDEST POP JUMP INVALID LOG2 PUSH5 0x6970667358 0x22 SLT KECCAK256 0xBA 0xF 0x22 EXTCODECOPY PUSH21 0x3643A06B3D91F4F9E9E4FF02642DDD9807DE9BAB82 PUSH24 0xA176EB614264736F6C634300080400330000000000000000 "
				},
				"gasEstimates": {
					"creation": {
						"codeDepositCost": "2159200",
						"executionCost": "infinite",
						"totalCost": "infinite"
					},
					"external": {
						"approve(address,uint256)": "infinite",
						"balanceOf(address)": "1624",
						"collaboratotOf(uint256)": "1748",
						"getApproved(uint256)": "2657",
						"isApprovedForAll(address,address)": "infinite",
						"mint(address,address,uint256,string)": "infinite",
						"name()": "infinite",
						"ownerOf(uint256)": "1682",
						"safeTransferFrom(address,address,uint256)": "infinite",
						"safeTransferFrom(address,address,uint256,bytes)": "infinite",
						"setApprovalForAll(address,bool)": "infinite",
						"supportsInterface(bytes4)": "797",
						"symbol()": "infinite",
						"tokenURI(uint256)": "2124",
						"transferFrom(address,address,uint256)": "infinite"
					},
					"internal": {
						"_afterTokenTransfer(address,address,uint256)": "15",
						"_approve(address,uint256)": "infinite",
						"_baseURI()": "infinite",
						"_beforeTokenTransfer(address,address,uint256)": "15",
						"_burn(uint256)": "infinite",
						"_checkOnERC721Received(address,address,uint256,bytes memory)": "infinite",
						"_exists(uint256)": "969",
						"_isApprovedOrOwner(address,uint256)": "infinite",
						"_mint(address,address,uint256)": "infinite",
						"_requireMinted(uint256)": "infinite",
						"_safeMint(address,address,uint256)": "infinite",
						"_safeMint(address,address,uint256,bytes memory)": "infinite",
						"_safeTransfer(address,address,uint256,bytes memory)": "infinite",
						"_setApprovalForAll(address,address,bool)": "infinite",
						"_setTokenURI(uint256,string memory)": "infinite",
						"_transfer(address,address,uint256)": "infinite"
					}
				},
				"methodIdentifiers": {
					"approve(address,uint256)": "095ea7b3",
					"balanceOf(address)": "70a08231",
					"collaboratotOf(uint256)": "52e04825",
					"getApproved(uint256)": "081812fc",
					"isApprovedForAll(address,address)": "e985e9c5",
					"mint(address,address,uint256,string)": "b85cbc79",
					"name()": "06fdde03",
					"ownerOf(uint256)": "6352211e",
					"safeTransferFrom(address,address,uint256)": "42842e0e",
					"safeTransferFrom(address,address,uint256,bytes)": "b88d4fde",
					"setApprovalForAll(address,bool)": "a22cb465",
					"supportsInterface(bytes4)": "01ffc9a7",
					"symbol()": "95d89b41",
					"tokenURI(uint256)": "c87b56dd",
					"transferFrom(address,address,uint256)": "23b872dd"
				}
			},
			"storageLayout": {
				"storage": [
					{
						"astId": 782,
						"contract": "contracts/marketplace.sol:marketplace",
						"label": "_name",
						"offset": 0,
						"slot": "0",
						"type": "t_string_storage"
					},
					{
						"astId": 784,
						"contract": "contracts/marketplace.sol:marketplace",
						"label": "_symbol",
						"offset": 0,
						"slot": "1",
						"type": "t_string_storage"
					},
					{
						"astId": 788,
						"contract": "contracts/marketplace.sol:marketplace",
						"label": "_owners",
						"offset": 0,
						"slot": "2",
						"type": "t_mapping(t_uint256,t_address)"
					},
					{
						"astId": 792,
						"contract": "contracts/marketplace.sol:marketplace",
						"label": "_collaborators",
						"offset": 0,
						"slot": "3",
						"type": "t_mapping(t_uint256,t_address)"
					},
					{
						"astId": 796,
						"contract": "contracts/marketplace.sol:marketplace",
						"label": "_balances",
						"offset": 0,
						"slot": "4",
						"type": "t_mapping(t_address,t_uint256)"
					},
					{
						"astId": 800,
						"contract": "contracts/marketplace.sol:marketplace",
						"label": "_tokenApprovals",
						"offset": 0,
						"slot": "5",
						"type": "t_mapping(t_uint256,t_address)"
					},
					{
						"astId": 806,
						"contract": "contracts/marketplace.sol:marketplace",
						"label": "_operatorApprovals",
						"offset": 0,
						"slot": "6",
						"type": "t_mapping(t_address,t_mapping(t_address,t_bool))"
					},
					{
						"astId": 810,
						"contract": "contracts/marketplace.sol:marketplace",
						"label": "_tokenURIs",
						"offset": 0,
						"slot": "7",
						"type": "t_mapping(t_uint256,t_string_storage)"
					}
				],
				"types": {
					"t_address": {
						"encoding": "inplace",
						"label": "address",
						"numberOfBytes": "20"
					},
					"t_bool": {
						"encoding": "inplace",
						"label": "bool",
						"numberOfBytes": "1"
					},
					"t_mapping(t_address,t_bool)": {
						"encoding": "mapping",
						"key": "t_address",
						"label": "mapping(address => bool)",
						"numberOfBytes": "32",
						"value": "t_bool"
					},
					"t_mapping(t_address,t_mapping(t_address,t_bool))": {
						"encoding": "mapping",
						"key": "t_address",
						"label": "mapping(address => mapping(address => bool))",
						"numberOfBytes": "32",
						"value": "t_mapping(t_address,t_bool)"
					},
					"t_mapping(t_address,t_uint256)": {
						"encoding": "mapping",
						"key": "t_address",
						"label": "mapping(address => uint256)",
						"numberOfBytes": "32",
						"value": "t_uint256"
					},
					"t_mapping(t_uint256,t_address)": {
						"encoding": "mapping",
						"key": "t_uint256",
						"label": "mapping(uint256 => address)",
						"numberOfBytes": "32",
						"value": "t_address"
					},
					"t_mapping(t_uint256,t_string_storage)": {
						"encoding": "mapping",
						"key": "t_uint256",
						"label": "mapping(uint256 => string)",
						"numberOfBytes": "32",
						"value": "t_string_storage"
					},
					"t_string_storage": {
						"encoding": "bytes",
						"label": "string",
						"numberOfBytes": "32"
					},
					"t_uint256": {
						"encoding": "inplace",
						"label": "uint256",
						"numberOfBytes": "32"
					}
				}
			},
			"userdoc": {
				"kind": "user",
				"methods": {},
				"version": 1
			}
		}
	}
}