{
	"contracts/nft.sol": {
		"nft": {
			"abi": [
				{
					"inputs": [
						{
							"internalType": "string",
							"name": "name_",
							"type": "string"
						},
						{
							"internalType": "string",
							"name": "symbol_",
							"type": "string"
						}
					],
					"stateMutability": "nonpayable",
					"type": "constructor"
				},
				{
					"anonymous": false,
					"inputs": [
						{
							"indexed": true,
							"internalType": "address",
							"name": "owner",
							"type": "address"
						},
						{
							"indexed": true,
							"internalType": "address",
							"name": "approved",
							"type": "address"
						},
						{
							"indexed": true,
							"internalType": "uint256",
							"name": "tokenId",
							"type": "uint256"
						}
					],
					"name": "Approval",
					"type": "event"
				},
				{
					"anonymous": false,
					"inputs": [
						{
							"indexed": true,
							"internalType": "address",
							"name": "owner",
							"type": "address"
						},
						{
							"indexed": true,
							"internalType": "address",
							"name": "operator",
							"type": "address"
						},
						{
							"indexed": false,
							"internalType": "bool",
							"name": "approved",
							"type": "bool"
						}
					],
					"name": "ApprovalForAll",
					"type": "event"
				},
				{
					"anonymous": false,
					"inputs": [
						{
							"indexed": true,
							"internalType": "address",
							"name": "from",
							"type": "address"
						},
						{
							"indexed": true,
							"internalType": "address",
							"name": "to",
							"type": "address"
						},
						{
							"indexed": true,
							"internalType": "uint256",
							"name": "tokenId",
							"type": "uint256"
						}
					],
					"name": "Transfer",
					"type": "event"
				},
				{
					"inputs": [
						{
							"internalType": "address",
							"name": "to",
							"type": "address"
						},
						{
							"internalType": "uint256",
							"name": "tokenId",
							"type": "uint256"
						}
					],
					"name": "approve",
					"outputs": [],
					"stateMutability": "nonpayable",
					"type": "function"
				},
				{
					"inputs": [
						{
							"internalType": "address",
							"name": "owner",
							"type": "address"
						}
					],
					"name": "balanceOf",
					"outputs": [
						{
							"internalType": "uint256",
							"name": "",
							"type": "uint256"
						}
					],
					"stateMutability": "view",
					"type": "function"
				},
				{
					"inputs": [
						{
							"internalType": "uint256",
							"name": "tokenId",
							"type": "uint256"
						}
					],
					"name": "collaboratotOf",
					"outputs": [
						{
							"internalType": "address[]",
							"name": "",
							"type": "address[]"
						}
					],
					"stateMutability": "view",
					"type": "function"
				},
				{
					"inputs": [
						{
							"internalType": "uint256",
							"name": "tokenId",
							"type": "uint256"
						}
					],
					"name": "collaboratotPercentageOf",
					"outputs": [
						{
							"internalType": "uint256[]",
							"name": "",
							"type": "uint256[]"
						}
					],
					"stateMutability": "view",
					"type": "function"
				},
				{
					"inputs": [
						{
							"internalType": "uint256",
							"name": "tokenId",
							"type": "uint256"
						}
					],
					"name": "getApproved",
					"outputs": [
						{
							"internalType": "address",
							"name": "",
							"type": "address"
						}
					],
					"stateMutability": "view",
					"type": "function"
				},
				{
					"inputs": [
						{
							"internalType": "address",
							"name": "owner",
							"type": "address"
						},
						{
							"internalType": "address",
							"name": "operator",
							"type": "address"
						}
					],
					"name": "isApprovedForAll",
					"outputs": [
						{
							"internalType": "bool",
							"name": "",
							"type": "bool"
						}
					],
					"stateMutability": "view",
					"type": "function"
				},
				{
					"inputs": [
						{
							"internalType": "address",
							"name": "to",
							"type": "address"
						},
						{
							"internalType": "address[]",
							"name": "collaborator",
							"type": "address[]"
						},
						{
							"internalType": "uint256[]",
							"name": "collaboratorPercent",
							"type": "uint256[]"
						},
						{
							"internalType": "uint256",
							"name": "tokenId",
							"type": "uint256"
						},
						{
							"internalType": "string",
							"name": "uri",
							"type": "string"
						}
					],
					"name": "mint",
					"outputs": [],
					"stateMutability": "nonpayable",
					"type": "function"
				},
				{
					"inputs": [],
					"name": "name",
					"outputs": [
						{
							"internalType": "string",
							"name": "",
							"type": "string"
						}
					],
					"stateMutability": "view",
					"type": "function"
				},
				{
					"inputs": [
						{
							"internalType": "uint256",
							"name": "tokenId",
							"type": "uint256"
						}
					],
					"name": "ownerOf",
					"outputs": [
						{
							"internalType": "address",
							"name": "",
							"type": "address"
						}
					],
					"stateMutability": "view",
					"type": "function"
				},
				{
					"inputs": [
						{
							"internalType": "address",
							"name": "from",
							"type": "address"
						},
						{
							"internalType": "address",
							"name": "to",
							"type": "address"
						},
						{
							"internalType": "uint256",
							"name": "tokenId",
							"type": "uint256"
						}
					],
					"name": "safeTransferFrom",
					"outputs": [],
					"stateMutability": "nonpayable",
					"type": "function"
				},
				{
					"inputs": [
						{
							"internalType": "address",
							"name": "from",
							"type": "address"
						},
						{
							"internalType": "address",
							"name": "to",
							"type": "address"
						},
						{
							"internalType": "uint256",
							"name": "tokenId",
							"type": "uint256"
						},
						{
							"internalType": "bytes",
							"name": "data",
							"type": "bytes"
						}
					],
					"name": "safeTransferFrom",
					"outputs": [],
					"stateMutability": "nonpayable",
					"type": "function"
				},
				{
					"inputs": [
						{
							"internalType": "address",
							"name": "operator",
							"type": "address"
						},
						{
							"internalType": "bool",
							"name": "approved",
							"type": "bool"
						}
					],
					"name": "setApprovalForAll",
					"outputs": [],
					"stateMutability": "nonpayable",
					"type": "function"
				},
				{
					"inputs": [
						{
							"internalType": "bytes4",
							"name": "interfaceId",
							"type": "bytes4"
						}
					],
					"name": "supportsInterface",
					"outputs": [
						{
							"internalType": "bool",
							"name": "",
							"type": "bool"
						}
					],
					"stateMutability": "view",
					"type": "function"
				},
				{
					"inputs": [],
					"name": "symbol",
					"outputs": [
						{
							"internalType": "string",
							"name": "",
							"type": "string"
						}
					],
					"stateMutability": "view",
					"type": "function"
				},
				{
					"inputs": [
						{
							"internalType": "uint256",
							"name": "tokenId",
							"type": "uint256"
						}
					],
					"name": "tokenURI",
					"outputs": [
						{
							"internalType": "string",
							"name": "",
							"type": "string"
						}
					],
					"stateMutability": "view",
					"type": "function"
				},
				{
					"inputs": [
						{
							"internalType": "address",
							"name": "from",
							"type": "address"
						},
						{
							"internalType": "address",
							"name": "to",
							"type": "address"
						},
						{
							"internalType": "uint256",
							"name": "tokenId",
							"type": "uint256"
						}
					],
					"name": "transferFrom",
					"outputs": [],
					"stateMutability": "nonpayable",
					"type": "function"
				}
			],
			"devdoc": {
				"kind": "dev",
				"methods": {
					"approve(address,uint256)": {
						"details": "Gives permission to `to` to transfer `tokenId` token to another account. The approval is cleared when the token is transferred. Only a single account can be approved at a time, so approving the zero address clears previous approvals. Requirements: - The caller must own the token or be an approved operator. - `tokenId` must exist. Emits an {Approval} event."
					},
					"balanceOf(address)": {
						"details": "Returns the number of tokens in ``owner``'s account."
					},
					"getApproved(uint256)": {
						"details": "Returns the account approved for `tokenId` token. Requirements: - `tokenId` must exist."
					},
					"isApprovedForAll(address,address)": {
						"details": "Returns if the `operator` is allowed to manage all of the assets of `owner`. See {setApprovalForAll}"
					},
					"name()": {
						"details": "Returns the token collection name."
					},
					"ownerOf(uint256)": {
						"details": "Returns the owner of the `tokenId` token. Requirements: - `tokenId` must exist."
					},
					"safeTransferFrom(address,address,uint256)": {
						"details": "Safely transfers `tokenId` token from `from` to `to`, checking first that contract recipients are aware of the ERC721 protocol to prevent tokens from being forever locked. Requirements: - `from` cannot be the zero address. - `to` cannot be the zero address. - `tokenId` token must exist and be owned by `from`. - If the caller is not `from`, it must be have been allowed to move this token by either {approve} or {setApprovalForAll}. - If `to` refers to a smart contract, it must implement {IERC721Receiver-onERC721Received}, which is called upon a safe transfer. Emits a {Transfer} event."
					},
					"safeTransferFrom(address,address,uint256,bytes)": {
						"details": "Safely transfers `tokenId` token from `from` to `to`. Requirements: - `from` cannot be the zero address. - `to` cannot be the zero address. - `tokenId` token must exist and be owned by `from`. - If the caller is not `from`, it must be approved to move this token by either {approve} or {setApprovalForAll}. - If `to` refers to a smart contract, it must implement {IERC721Receiver-onERC721Received}, which is called upon a safe transfer. Emits a {Transfer} event."
					},
					"symbol()": {
						"details": "Returns the token collection symbol."
					},
					"tokenURI(uint256)": {
						"details": "Returns the Uniform Resource Identifier (URI) for `tokenId` token."
					},
					"transferFrom(address,address,uint256)": {
						"details": "Transfers `tokenId` token from `from` to `to`. WARNING: Usage of this method is discouraged, use {safeTransferFrom} whenever possible. Requirements: - `from` cannot be the zero address. - `to` cannot be the zero address. - `tokenId` token must be owned by `from`. - If the caller is not `from`, it must be approved to move this token by either {approve} or {setApprovalForAll}. Emits a {Transfer} event."
					}
				},
				"version": 1
			},
			"evm": {
				"assembly": "    /* \"contracts/nft.sol\":677:10697  contract nft is Context, ERC165, IERC721, IERC721Metadata {\r... */\n  mstore(0x40, 0x80)\n    /* \"contracts/nft.sol\":1362:1478  constructor(string memory name_, string memory symbol_) {\r... */\n  callvalue\n  dup1\n  iszero\n  tag_1\n  jumpi\n  0x00\n  dup1\n  revert\ntag_1:\n  pop\n  mload(0x40)\n  sub(codesize, bytecodeSize)\n  dup1\n  bytecodeSize\n  dup4\n  codecopy\n  dup2\n  dup2\n  add\n  0x40\n  mstore\n  dup2\n  add\n  swap1\n  tag_2\n  swap2\n  swap1\n  tag_3\n  jump\t// in\ntag_2:\n    /* \"contracts/nft.sol\":1437:1442  name_ */\n  dup2\n    /* \"contracts/nft.sol\":1429:1434  _name */\n  0x00\n    /* \"contracts/nft.sol\":1429:1442  _name = name_ */\n  swap1\n  dup1\n  mload\n  swap1\n  0x20\n  add\n  swap1\n  tag_6\n  swap3\n  swap2\n  swap1\n  tag_7\n  jump\t// in\ntag_6:\n  pop\n    /* \"contracts/nft.sol\":1463:1470  symbol_ */\n  dup1\n    /* \"contracts/nft.sol\":1453:1460  _symbol */\n  0x01\n    /* \"contracts/nft.sol\":1453:1470  _symbol = symbol_ */\n  swap1\n  dup1\n  mload\n  swap1\n  0x20\n  add\n  swap1\n  tag_8\n  swap3\n  swap2\n  swap1\n  tag_7\n  jump\t// in\ntag_8:\n  pop\n    /* \"contracts/nft.sol\":1362:1478  constructor(string memory name_, string memory symbol_) {\r... */\n  pop\n  pop\n    /* \"contracts/nft.sol\":677:10697  contract nft is Context, ERC165, IERC721, IERC721Metadata {\r... */\n  jump(tag_9)\ntag_7:\n  dup3\n  dup1\n  sload\n  tag_10\n  swap1\n  tag_11\n  jump\t// in\ntag_10:\n  swap1\n  0x00\n  mstore\n  keccak256(0x00, 0x20)\n  swap1\n  0x1f\n  add\n  0x20\n  swap1\n  div\n  dup2\n  add\n  swap3\n  dup3\n  tag_13\n  jumpi\n  0x00\n  dup6\n  sstore\n  jump(tag_12)\ntag_13:\n  dup3\n  0x1f\n  lt\n  tag_14\n  jumpi\n  dup1\n  mload\n  not(0xff)\n  and\n  dup4\n  dup1\n  add\n  or\n  dup6\n  sstore\n  jump(tag_12)\ntag_14:\n  dup3\n  dup1\n  add\n  0x01\n  add\n  dup6\n  sstore\n  dup3\n  iszero\n  tag_12\n  jumpi\n  swap2\n  dup3\n  add\ntag_15:\n  dup3\n  dup2\n  gt\n  iszero\n  tag_16\n  jumpi\n  dup3\n  mload\n  dup3\n  sstore\n  swap2\n  0x20\n  add\n  swap2\n  swap1\n  0x01\n  add\n  swap1\n  jump(tag_15)\ntag_16:\ntag_12:\n  pop\n  swap1\n  pop\n  tag_17\n  swap2\n  swap1\n  tag_18\n  jump\t// in\ntag_17:\n  pop\n  swap1\n  jump\t// out\ntag_18:\ntag_19:\n  dup1\n  dup3\n  gt\n  iszero\n  tag_20\n  jumpi\n  0x00\n  dup2\n  0x00\n  swap1\n  sstore\n  pop\n  0x01\n  add\n  jump(tag_19)\ntag_20:\n  pop\n  swap1\n  jump\t// out\n    /* \"#utility.yul\":7:361   */\ntag_22:\n    /* \"#utility.yul\":96:101   */\n  0x00\n    /* \"#utility.yul\":121:187   */\n  tag_24\n    /* \"#utility.yul\":137:186   */\n  tag_25\n    /* \"#utility.yul\":179:185   */\n  dup5\n    /* \"#utility.yul\":137:186   */\n  tag_26\n  jump\t// in\ntag_25:\n    /* \"#utility.yul\":121:187   */\n  tag_27\n  jump\t// in\ntag_24:\n    /* \"#utility.yul\":112:187   */\n  swap1\n  pop\n    /* \"#utility.yul\":210:216   */\n  dup3\n    /* \"#utility.yul\":203:208   */\n  dup2\n    /* \"#utility.yul\":196:217   */\n  mstore\n    /* \"#utility.yul\":248:252   */\n  0x20\n    /* \"#utility.yul\":241:246   */\n  dup2\n    /* \"#utility.yul\":237:253   */\n  add\n    /* \"#utility.yul\":286:289   */\n  dup5\n    /* \"#utility.yul\":277:283   */\n  dup5\n    /* \"#utility.yul\":272:275   */\n  dup5\n    /* \"#utility.yul\":268:284   */\n  add\n    /* \"#utility.yul\":265:290   */\n  gt\n    /* \"#utility.yul\":262:264   */\n  iszero\n  tag_28\n  jumpi\n    /* \"#utility.yul\":303:304   */\n  0x00\n    /* \"#utility.yul\":300:301   */\n  dup1\n    /* \"#utility.yul\":293:305   */\n  revert\n    /* \"#utility.yul\":262:264   */\ntag_28:\n    /* \"#utility.yul\":316:355   */\n  tag_29\n    /* \"#utility.yul\":348:354   */\n  dup5\n    /* \"#utility.yul\":343:346   */\n  dup3\n    /* \"#utility.yul\":338:341   */\n  dup6\n    /* \"#utility.yul\":316:355   */\n  tag_30\n  jump\t// in\ntag_29:\n    /* \"#utility.yul\":102:361   */\n  pop\n  swap4\n  swap3\n  pop\n  pop\n  pop\n  jump\t// out\n    /* \"#utility.yul\":381:669   */\ntag_31:\n    /* \"#utility.yul\":448:453   */\n  0x00\n    /* \"#utility.yul\":497:500   */\n  dup3\n    /* \"#utility.yul\":490:494   */\n  0x1f\n    /* \"#utility.yul\":482:488   */\n  dup4\n    /* \"#utility.yul\":478:495   */\n  add\n    /* \"#utility.yul\":474:501   */\n  slt\n    /* \"#utility.yul\":464:466   */\n  tag_33\n  jumpi\n    /* \"#utility.yul\":515:516   */\n  0x00\n    /* \"#utility.yul\":512:513   */\n  dup1\n    /* \"#utility.yul\":505:517   */\n  revert\n    /* \"#utility.yul\":464:466   */\ntag_33:\n    /* \"#utility.yul\":548:554   */\n  dup2\n    /* \"#utility.yul\":542:555   */\n  mload\n    /* \"#utility.yul\":573:663   */\n  tag_34\n    /* \"#utility.yul\":659:662   */\n  dup5\n    /* \"#utility.yul\":651:657   */\n  dup3\n    /* \"#utility.yul\":644:648   */\n  0x20\n    /* \"#utility.yul\":636:642   */\n  dup7\n    /* \"#utility.yul\":632:649   */\n  add\n    /* \"#utility.yul\":573:663   */\n  tag_22\n  jump\t// in\ntag_34:\n    /* \"#utility.yul\":564:663   */\n  swap2\n  pop\n    /* \"#utility.yul\":454:669   */\n  pop\n  swap3\n  swap2\n  pop\n  pop\n  jump\t// out\n    /* \"#utility.yul\":675:1327   */\ntag_3:\n    /* \"#utility.yul\":774:780   */\n  0x00\n    /* \"#utility.yul\":782:788   */\n  dup1\n    /* \"#utility.yul\":831:833   */\n  0x40\n    /* \"#utility.yul\":819:828   */\n  dup4\n    /* \"#utility.yul\":810:817   */\n  dup6\n    /* \"#utility.yul\":806:829   */\n  sub\n    /* \"#utility.yul\":802:834   */\n  slt\n    /* \"#utility.yul\":799:801   */\n  iszero\n  tag_36\n  jumpi\n    /* \"#utility.yul\":847:848   */\n  0x00\n    /* \"#utility.yul\":844:845   */\n  dup1\n    /* \"#utility.yul\":837:849   */\n  revert\n    /* \"#utility.yul\":799:801   */\ntag_36:\n    /* \"#utility.yul\":911:912   */\n  0x00\n    /* \"#utility.yul\":900:909   */\n  dup4\n    /* \"#utility.yul\":896:913   */\n  add\n    /* \"#utility.yul\":890:914   */\n  mload\n    /* \"#utility.yul\":941:959   */\n  0xffffffffffffffff\n    /* \"#utility.yul\":933:939   */\n  dup2\n    /* \"#utility.yul\":930:960   */\n  gt\n    /* \"#utility.yul\":927:929   */\n  iszero\n  tag_37\n  jumpi\n    /* \"#utility.yul\":973:974   */\n  0x00\n    /* \"#utility.yul\":970:971   */\n  dup1\n    /* \"#utility.yul\":963:975   */\n  revert\n    /* \"#utility.yul\":927:929   */\ntag_37:\n    /* \"#utility.yul\":1001:1075   */\n  tag_38\n    /* \"#utility.yul\":1067:1074   */\n  dup6\n    /* \"#utility.yul\":1058:1064   */\n  dup3\n    /* \"#utility.yul\":1047:1056   */\n  dup7\n    /* \"#utility.yul\":1043:1065   */\n  add\n    /* \"#utility.yul\":1001:1075   */\n  tag_31\n  jump\t// in\ntag_38:\n    /* \"#utility.yul\":991:1075   */\n  swap3\n  pop\n    /* \"#utility.yul\":861:1085   */\n  pop\n    /* \"#utility.yul\":1145:1147   */\n  0x20\n    /* \"#utility.yul\":1134:1143   */\n  dup4\n    /* \"#utility.yul\":1130:1148   */\n  add\n    /* \"#utility.yul\":1124:1149   */\n  mload\n    /* \"#utility.yul\":1176:1194   */\n  0xffffffffffffffff\n    /* \"#utility.yul\":1168:1174   */\n  dup2\n    /* \"#utility.yul\":1165:1195   */\n  gt\n    /* \"#utility.yul\":1162:1164   */\n  iszero\n  tag_39\n  jumpi\n    /* \"#utility.yul\":1208:1209   */\n  0x00\n    /* \"#utility.yul\":1205:1206   */\n  dup1\n    /* \"#utility.yul\":1198:1210   */\n  revert\n    /* \"#utility.yul\":1162:1164   */\ntag_39:\n    /* \"#utility.yul\":1236:1310   */\n  tag_40\n    /* \"#utility.yul\":1302:1309   */\n  dup6\n    /* \"#utility.yul\":1293:1299   */\n  dup3\n    /* \"#utility.yul\":1282:1291   */\n  dup7\n    /* \"#utility.yul\":1278:1300   */\n  add\n    /* \"#utility.yul\":1236:1310   */\n  tag_31\n  jump\t// in\ntag_40:\n    /* \"#utility.yul\":1226:1310   */\n  swap2\n  pop\n    /* \"#utility.yul\":1095:1320   */\n  pop\n    /* \"#utility.yul\":789:1327   */\n  swap3\n  pop\n  swap3\n  swap1\n  pop\n  jump\t// out\n    /* \"#utility.yul\":1333:1462   */\ntag_27:\n    /* \"#utility.yul\":1367:1373   */\n  0x00\n    /* \"#utility.yul\":1394:1414   */\n  tag_42\n  tag_43\n  jump\t// in\ntag_42:\n    /* \"#utility.yul\":1384:1414   */\n  swap1\n  pop\n    /* \"#utility.yul\":1423:1456   */\n  tag_44\n    /* \"#utility.yul\":1451:1455   */\n  dup3\n    /* \"#utility.yul\":1443:1449   */\n  dup3\n    /* \"#utility.yul\":1423:1456   */\n  tag_45\n  jump\t// in\ntag_44:\n    /* \"#utility.yul\":1374:1462   */\n  swap2\n  swap1\n  pop\n  jump\t// out\n    /* \"#utility.yul\":1468:1543   */\ntag_43:\n    /* \"#utility.yul\":1501:1507   */\n  0x00\n    /* \"#utility.yul\":1534:1536   */\n  0x40\n    /* \"#utility.yul\":1528:1537   */\n  mload\n    /* \"#utility.yul\":1518:1537   */\n  swap1\n  pop\n    /* \"#utility.yul\":1508:1543   */\n  swap1\n  jump\t// out\n    /* \"#utility.yul\":1549:1857   */\ntag_26:\n    /* \"#utility.yul\":1611:1615   */\n  0x00\n    /* \"#utility.yul\":1701:1719   */\n  0xffffffffffffffff\n    /* \"#utility.yul\":1693:1699   */\n  dup3\n    /* \"#utility.yul\":1690:1720   */\n  gt\n    /* \"#utility.yul\":1687:1689   */\n  iszero\n  tag_48\n  jumpi\n    /* \"#utility.yul\":1723:1741   */\n  tag_49\n  tag_50\n  jump\t// in\ntag_49:\n    /* \"#utility.yul\":1687:1689   */\ntag_48:\n    /* \"#utility.yul\":1761:1790   */\n  tag_51\n    /* \"#utility.yul\":1783:1789   */\n  dup3\n    /* \"#utility.yul\":1761:1790   */\n  tag_52\n  jump\t// in\ntag_51:\n    /* \"#utility.yul\":1753:1790   */\n  swap1\n  pop\n    /* \"#utility.yul\":1845:1849   */\n  0x20\n    /* \"#utility.yul\":1839:1843   */\n  dup2\n    /* \"#utility.yul\":1835:1850   */\n  add\n    /* \"#utility.yul\":1827:1850   */\n  swap1\n  pop\n    /* \"#utility.yul\":1616:1857   */\n  swap2\n  swap1\n  pop\n  jump\t// out\n    /* \"#utility.yul\":1863:2170   */\ntag_30:\n    /* \"#utility.yul\":1931:1932   */\n  0x00\n    /* \"#utility.yul\":1941:2054   */\ntag_54:\n    /* \"#utility.yul\":1955:1961   */\n  dup4\n    /* \"#utility.yul\":1952:1953   */\n  dup2\n    /* \"#utility.yul\":1949:1962   */\n  lt\n    /* \"#utility.yul\":1941:2054   */\n  iszero\n  tag_56\n  jumpi\n    /* \"#utility.yul\":2040:2041   */\n  dup1\n    /* \"#utility.yul\":2035:2038   */\n  dup3\n    /* \"#utility.yul\":2031:2042   */\n  add\n    /* \"#utility.yul\":2025:2043   */\n  mload\n    /* \"#utility.yul\":2021:2022   */\n  dup2\n    /* \"#utility.yul\":2016:2019   */\n  dup5\n    /* \"#utility.yul\":2012:2023   */\n  add\n    /* \"#utility.yul\":2005:2044   */\n  mstore\n    /* \"#utility.yul\":1977:1979   */\n  0x20\n    /* \"#utility.yul\":1974:1975   */\n  dup2\n    /* \"#utility.yul\":1970:1980   */\n  add\n    /* \"#utility.yul\":1965:1980   */\n  swap1\n  pop\n    /* \"#utility.yul\":1941:2054   */\n  jump(tag_54)\ntag_56:\n    /* \"#utility.yul\":2072:2078   */\n  dup4\n    /* \"#utility.yul\":2069:2070   */\n  dup2\n    /* \"#utility.yul\":2066:2079   */\n  gt\n    /* \"#utility.yul\":2063:2065   */\n  iszero\n  tag_57\n  jumpi\n    /* \"#utility.yul\":2152:2153   */\n  0x00\n    /* \"#utility.yul\":2143:2149   */\n  dup5\n    /* \"#utility.yul\":2138:2141   */\n  dup5\n    /* \"#utility.yul\":2134:2150   */\n  add\n    /* \"#utility.yul\":2127:2154   */\n  mstore\n    /* \"#utility.yul\":2063:2065   */\ntag_57:\n    /* \"#utility.yul\":1912:2170   */\n  pop\n  pop\n  pop\n  pop\n  jump\t// out\n    /* \"#utility.yul\":2176:2496   */\ntag_11:\n    /* \"#utility.yul\":2220:2226   */\n  0x00\n    /* \"#utility.yul\":2257:2258   */\n  0x02\n    /* \"#utility.yul\":2251:2255   */\n  dup3\n    /* \"#utility.yul\":2247:2259   */\n  div\n    /* \"#utility.yul\":2237:2259   */\n  swap1\n  pop\n    /* \"#utility.yul\":2304:2305   */\n  0x01\n    /* \"#utility.yul\":2298:2302   */\n  dup3\n    /* \"#utility.yul\":2294:2306   */\n  and\n    /* \"#utility.yul\":2325:2343   */\n  dup1\n    /* \"#utility.yul\":2315:2317   */\n  tag_59\n  jumpi\n    /* \"#utility.yul\":2381:2385   */\n  0x7f\n    /* \"#utility.yul\":2373:2379   */\n  dup3\n    /* \"#utility.yul\":2369:2386   */\n  and\n    /* \"#utility.yul\":2359:2386   */\n  swap2\n  pop\n    /* \"#utility.yul\":2315:2317   */\ntag_59:\n    /* \"#utility.yul\":2443:2445   */\n  0x20\n    /* \"#utility.yul\":2435:2441   */\n  dup3\n    /* \"#utility.yul\":2432:2446   */\n  lt\n    /* \"#utility.yul\":2412:2430   */\n  dup2\n    /* \"#utility.yul\":2409:2447   */\n  eq\n    /* \"#utility.yul\":2406:2408   */\n  iszero\n  tag_60\n  jumpi\n    /* \"#utility.yul\":2462:2480   */\n  tag_61\n  tag_62\n  jump\t// in\ntag_61:\n    /* \"#utility.yul\":2406:2408   */\ntag_60:\n    /* \"#utility.yul\":2227:2496   */\n  pop\n  swap2\n  swap1\n  pop\n  jump\t// out\n    /* \"#utility.yul\":2502:2783   */\ntag_45:\n    /* \"#utility.yul\":2585:2612   */\n  tag_64\n    /* \"#utility.yul\":2607:2611   */\n  dup3\n    /* \"#utility.yul\":2585:2612   */\n  tag_52\n  jump\t// in\ntag_64:\n    /* \"#utility.yul\":2577:2583   */\n  dup2\n    /* \"#utility.yul\":2573:2613   */\n  add\n    /* \"#utility.yul\":2715:2721   */\n  dup2\n    /* \"#utility.yul\":2703:2713   */\n  dup2\n    /* \"#utility.yul\":2700:2722   */\n  lt\n    /* \"#utility.yul\":2679:2697   */\n  0xffffffffffffffff\n    /* \"#utility.yul\":2667:2677   */\n  dup3\n    /* \"#utility.yul\":2664:2698   */\n  gt\n    /* \"#utility.yul\":2661:2723   */\n  or\n    /* \"#utility.yul\":2658:2660   */\n  iszero\n  tag_65\n  jumpi\n    /* \"#utility.yul\":2726:2744   */\n  tag_66\n  tag_50\n  jump\t// in\ntag_66:\n    /* \"#utility.yul\":2658:2660   */\ntag_65:\n    /* \"#utility.yul\":2766:2776   */\n  dup1\n    /* \"#utility.yul\":2762:2764   */\n  0x40\n    /* \"#utility.yul\":2755:2777   */\n  mstore\n    /* \"#utility.yul\":2545:2783   */\n  pop\n  pop\n  pop\n  jump\t// out\n    /* \"#utility.yul\":2789:2969   */\ntag_62:\n    /* \"#utility.yul\":2837:2914   */\n  0x4e487b7100000000000000000000000000000000000000000000000000000000\n    /* \"#utility.yul\":2834:2835   */\n  0x00\n    /* \"#utility.yul\":2827:2915   */\n  mstore\n    /* \"#utility.yul\":2934:2938   */\n  0x22\n    /* \"#utility.yul\":2931:2932   */\n  0x04\n    /* \"#utility.yul\":2924:2939   */\n  mstore\n    /* \"#utility.yul\":2958:2962   */\n  0x24\n    /* \"#utility.yul\":2955:2956   */\n  0x00\n    /* \"#utility.yul\":2948:2963   */\n  revert\n    /* \"#utility.yul\":2975:3155   */\ntag_50:\n    /* \"#utility.yul\":3023:3100   */\n  0x4e487b7100000000000000000000000000000000000000000000000000000000\n    /* \"#utility.yul\":3020:3021   */\n  0x00\n    /* \"#utility.yul\":3013:3101   */\n  mstore\n    /* \"#utility.yul\":3120:3124   */\n  0x41\n    /* \"#utility.yul\":3117:3118   */\n  0x04\n    /* \"#utility.yul\":3110:3125   */\n  mstore\n    /* \"#utility.yul\":3144:3148   */\n  0x24\n    /* \"#utility.yul\":3141:3142   */\n  0x00\n    /* \"#utility.yul\":3134:3149   */\n  revert\n    /* \"#utility.yul\":3161:3263   */\ntag_52:\n    /* \"#utility.yul\":3202:3208   */\n  0x00\n    /* \"#utility.yul\":3253:3255   */\n  0x1f\n    /* \"#utility.yul\":3249:3256   */\n  not\n    /* \"#utility.yul\":3244:3246   */\n  0x1f\n    /* \"#utility.yul\":3237:3242   */\n  dup4\n    /* \"#utility.yul\":3233:3247   */\n  add\n    /* \"#utility.yul\":3229:3257   */\n  and\n    /* \"#utility.yul\":3219:3257   */\n  swap1\n  pop\n    /* \"#utility.yul\":3209:3263   */\n  swap2\n  swap1\n  pop\n  jump\t// out\n    /* \"contracts/nft.sol\":677:10697  contract nft is Context, ERC165, IERC721, IERC721Metadata {\r... */\ntag_9:\n  dataSize(sub_0)\n  dup1\n  dataOffset(sub_0)\n  0x00\n  codecopy\n  0x00\n  return\nstop\n\nsub_0: assembly {\n        /* \"contracts/nft.sol\":677:10697  contract nft is Context, ERC165, IERC721, IERC721Metadata {\r... */\n      mstore(0x40, 0x80)\n      callvalue\n      dup1\n      iszero\n      tag_1\n      jumpi\n      0x00\n      dup1\n      revert\n    tag_1:\n      pop\n      jumpi(tag_2, lt(calldatasize, 0x04))\n      shr(0xe0, calldataload(0x00))\n      dup1\n      0x6352211e\n      gt\n      tag_19\n      jumpi\n      dup1\n      0xb88d4fde\n      gt\n      tag_20\n      jumpi\n      dup1\n      0xb88d4fde\n      eq\n      tag_15\n      jumpi\n      dup1\n      0xc87b56dd\n      eq\n      tag_16\n      jumpi\n      dup1\n      0xe985e9c5\n      eq\n      tag_17\n      jumpi\n      dup1\n      0xee48cda2\n      eq\n      tag_18\n      jumpi\n      jump(tag_2)\n    tag_20:\n      dup1\n      0x6352211e\n      eq\n      tag_11\n      jumpi\n      dup1\n      0x70a08231\n      eq\n      tag_12\n      jumpi\n      dup1\n      0x95d89b41\n      eq\n      tag_13\n      jumpi\n      dup1\n      0xa22cb465\n      eq\n      tag_14\n      jumpi\n      jump(tag_2)\n    tag_19:\n      dup1\n      0x23b872dd\n      gt\n      tag_21\n      jumpi\n      dup1\n      0x23b872dd\n      eq\n      tag_7\n      jumpi\n      dup1\n      0x3e617381\n      eq\n      tag_8\n      jumpi\n      dup1\n      0x42842e0e\n      eq\n      tag_9\n      jumpi\n      dup1\n      0x52e04825\n      eq\n      tag_10\n      jumpi\n      jump(tag_2)\n    tag_21:\n      dup1\n      0x01ffc9a7\n      eq\n      tag_3\n      jumpi\n      dup1\n      0x06fdde03\n      eq\n      tag_4\n      jumpi\n      dup1\n      0x081812fc\n      eq\n      tag_5\n      jumpi\n      dup1\n      0x095ea7b3\n      eq\n      tag_6\n      jumpi\n    tag_2:\n      0x00\n      dup1\n      revert\n        /* \"contracts/nft.sol\":1488:1793  function supportsInterface(bytes4 interfaceId) public view virtual override(ERC165, IERC165) returns (bool) {\r... */\n    tag_3:\n      tag_22\n      0x04\n      dup1\n      calldatasize\n      sub\n      dup2\n      add\n      swap1\n      tag_23\n      swap2\n      swap1\n      tag_24\n      jump\t// in\n    tag_23:\n      tag_25\n      jump\t// in\n    tag_22:\n      mload(0x40)\n      tag_26\n      swap2\n      swap1\n      tag_27\n      jump\t// in\n    tag_26:\n      mload(0x40)\n      dup1\n      swap2\n      sub\n      swap1\n      return\n        /* \"contracts/nft.sol\":2691:2791  function name() public view virtual override returns (string memory) {\r... */\n    tag_4:\n      tag_28\n      tag_29\n      jump\t// in\n    tag_28:\n      mload(0x40)\n      tag_30\n      swap2\n      swap1\n      tag_31\n      jump\t// in\n    tag_30:\n      mload(0x40)\n      dup1\n      swap2\n      sub\n      swap1\n      return\n        /* \"contracts/nft.sol\":3727:3898  function getApproved(uint256 tokenId) public view virtual override returns (address) {\r... */\n    tag_5:\n      tag_32\n      0x04\n      dup1\n      calldatasize\n      sub\n      dup2\n      add\n      swap1\n      tag_33\n      swap2\n      swap1\n      tag_34\n      jump\t// in\n    tag_33:\n      tag_35\n      jump\t// in\n    tag_32:\n      mload(0x40)\n      tag_36\n      swap2\n      swap1\n      tag_37\n      jump\t// in\n    tag_36:\n      mload(0x40)\n      dup1\n      swap2\n      sub\n      swap1\n      return\n        /* \"contracts/nft.sol\":3303:3716  function approve(address to, uint256 tokenId) public virtual override {\r... */\n    tag_6:\n      tag_38\n      0x04\n      dup1\n      calldatasize\n      sub\n      dup2\n      add\n      swap1\n      tag_39\n      swap2\n      swap1\n      tag_40\n      jump\t// in\n    tag_39:\n      tag_41\n      jump\t// in\n    tag_38:\n      stop\n        /* \"contracts/nft.sol\":4249:4531  function transferFrom(\r... */\n    tag_7:\n      tag_42\n      0x04\n      dup1\n      calldatasize\n      sub\n      dup2\n      add\n      swap1\n      tag_43\n      swap2\n      swap1\n      tag_44\n      jump\t// in\n    tag_43:\n      tag_45\n      jump\t// in\n    tag_42:\n      stop\n        /* \"contracts/nft.sol\":5067:5308  function mint(address to,address[] memory collaborator,uint256[] memory collaboratorPercent,uint tokenId,string memory uri) public{\r... */\n    tag_8:\n      tag_46\n      0x04\n      dup1\n      calldatasize\n      sub\n      dup2\n      add\n      swap1\n      tag_47\n      swap2\n      swap1\n      tag_48\n      jump\t// in\n    tag_47:\n      tag_49\n      jump\t// in\n    tag_46:\n      stop\n        /* \"contracts/nft.sol\":4541:4726  function safeTransferFrom(\r... */\n    tag_9:\n      tag_50\n      0x04\n      dup1\n      calldatasize\n      sub\n      dup2\n      add\n      swap1\n      tag_51\n      swap2\n      swap1\n      tag_44\n      jump\t// in\n    tag_51:\n      tag_52\n      jump\t// in\n    tag_50:\n      stop\n        /* \"contracts/nft.sol\":2251:2443  function collaboratotOf(uint256 tokenId) public view virtual returns (address[] memory) {\r... */\n    tag_10:\n      tag_53\n      0x04\n      dup1\n      calldatasize\n      sub\n      dup2\n      add\n      swap1\n      tag_54\n      swap2\n      swap1\n      tag_34\n      jump\t// in\n    tag_54:\n      tag_55\n      jump\t// in\n    tag_53:\n      mload(0x40)\n      tag_56\n      swap2\n      swap1\n      tag_57\n      jump\t// in\n    tag_56:\n      mload(0x40)\n      dup1\n      swap2\n      sub\n      swap1\n      return\n        /* \"contracts/nft.sol\":2020:2242  function ownerOf(uint256 tokenId) public view virtual override returns (address) {\r... */\n    tag_11:\n      tag_58\n      0x04\n      dup1\n      calldatasize\n      sub\n      dup2\n      add\n      swap1\n      tag_59\n      swap2\n      swap1\n      tag_34\n      jump\t// in\n    tag_59:\n      tag_60\n      jump\t// in\n    tag_58:\n      mload(0x40)\n      tag_61\n      swap2\n      swap1\n      tag_37\n      jump\t// in\n    tag_61:\n      mload(0x40)\n      dup1\n      swap2\n      sub\n      swap1\n      return\n        /* \"contracts/nft.sol\":1803:2010  function balanceOf(address owner) public view virtual override returns (uint256) {\r... */\n    tag_12:\n      tag_62\n      0x04\n      dup1\n      calldatasize\n      sub\n      dup2\n      add\n      swap1\n      tag_63\n      swap2\n      swap1\n      tag_64\n      jump\t// in\n    tag_63:\n      tag_65\n      jump\t// in\n    tag_62:\n      mload(0x40)\n      tag_66\n      swap2\n      swap1\n      tag_67\n      jump\t// in\n    tag_66:\n      mload(0x40)\n      dup1\n      swap2\n      sub\n      swap1\n      return\n        /* \"contracts/nft.sol\":2800:2904  function symbol() public view virtual override returns (string memory) {\r... */\n    tag_13:\n      tag_68\n      tag_69\n      jump\t// in\n    tag_68:\n      mload(0x40)\n      tag_70\n      swap2\n      swap1\n      tag_31\n      jump\t// in\n    tag_70:\n      mload(0x40)\n      dup1\n      swap2\n      sub\n      swap1\n      return\n        /* \"contracts/nft.sol\":3910:4065  function setApprovalForAll(address operator, bool approved) public virtual override {\r... */\n    tag_14:\n      tag_71\n      0x04\n      dup1\n      calldatasize\n      sub\n      dup2\n      add\n      swap1\n      tag_72\n      swap2\n      swap1\n      tag_73\n      jump\t// in\n    tag_72:\n      tag_74\n      jump\t// in\n    tag_71:\n      stop\n        /* \"contracts/nft.sol\":4736:5058  function safeTransferFrom(\r... */\n    tag_15:\n      tag_75\n      0x04\n      dup1\n      calldatasize\n      sub\n      dup2\n      add\n      swap1\n      tag_76\n      swap2\n      swap1\n      tag_77\n      jump\t// in\n    tag_76:\n      tag_78\n      jump\t// in\n    tag_75:\n      stop\n        /* \"contracts/nft.sol\":2912:3193  function tokenURI(uint256 tokenId) public view virtual override returns (string memory) {\r... */\n    tag_16:\n      tag_79\n      0x04\n      dup1\n      calldatasize\n      sub\n      dup2\n      add\n      swap1\n      tag_80\n      swap2\n      swap1\n      tag_34\n      jump\t// in\n    tag_80:\n      tag_81\n      jump\t// in\n    tag_79:\n      mload(0x40)\n      tag_82\n      swap2\n      swap1\n      tag_31\n      jump\t// in\n    tag_82:\n      mload(0x40)\n      dup1\n      swap2\n      sub\n      swap1\n      return\n        /* \"contracts/nft.sol\":4075:4239  function isApprovedForAll(address owner, address operator) public view virtual override returns (bool) {\r... */\n    tag_17:\n      tag_83\n      0x04\n      dup1\n      calldatasize\n      sub\n      dup2\n      add\n      swap1\n      tag_84\n      swap2\n      swap1\n      tag_85\n      jump\t// in\n    tag_84:\n      tag_86\n      jump\t// in\n    tag_83:\n      mload(0x40)\n      tag_87\n      swap2\n      swap1\n      tag_27\n      jump\t// in\n    tag_87:\n      mload(0x40)\n      dup1\n      swap2\n      sub\n      swap1\n      return\n        /* \"contracts/nft.sol\":2451:2683  function collaboratotPercentageOf(uint256 tokenId) public view virtual returns (uint256[] memory) {\r... */\n    tag_18:\n      tag_88\n      0x04\n      dup1\n      calldatasize\n      sub\n      dup2\n      add\n      swap1\n      tag_89\n      swap2\n      swap1\n      tag_34\n      jump\t// in\n    tag_89:\n      tag_90\n      jump\t// in\n    tag_88:\n      mload(0x40)\n      tag_91\n      swap2\n      swap1\n      tag_92\n      jump\t// in\n    tag_91:\n      mload(0x40)\n      dup1\n      swap2\n      sub\n      swap1\n      return\n        /* \"contracts/nft.sol\":1488:1793  function supportsInterface(bytes4 interfaceId) public view virtual override(ERC165, IERC165) returns (bool) {\r... */\n    tag_25:\n        /* \"contracts/nft.sol\":1590:1594  bool */\n      0x00\n        /* \"contracts/nft.sol\":1642:1667  type(IERC721).interfaceId */\n      0x80ac58cd00000000000000000000000000000000000000000000000000000000\n        /* \"contracts/nft.sol\":1627:1667  interfaceId == type(IERC721).interfaceId */\n      not(0xffffffffffffffffffffffffffffffffffffffffffffffffffffffff)\n      and\n        /* \"contracts/nft.sol\":1627:1638  interfaceId */\n      dup3\n        /* \"contracts/nft.sol\":1627:1667  interfaceId == type(IERC721).interfaceId */\n      not(0xffffffffffffffffffffffffffffffffffffffffffffffffffffffff)\n      and\n      eq\n        /* \"contracts/nft.sol\":1627:1732  interfaceId == type(IERC721).interfaceId ||\r... */\n      dup1\n      tag_94\n      jumpi\n      pop\n        /* \"contracts/nft.sol\":1699:1732  type(IERC721Metadata).interfaceId */\n      0x5b5e139f00000000000000000000000000000000000000000000000000000000\n        /* \"contracts/nft.sol\":1684:1732  interfaceId == type(IERC721Metadata).interfaceId */\n      not(0xffffffffffffffffffffffffffffffffffffffffffffffffffffffff)\n      and\n        /* \"contracts/nft.sol\":1684:1695  interfaceId */\n      dup3\n        /* \"contracts/nft.sol\":1684:1732  interfaceId == type(IERC721Metadata).interfaceId */\n      not(0xffffffffffffffffffffffffffffffffffffffffffffffffffffffff)\n      and\n      eq\n        /* \"contracts/nft.sol\":1627:1732  interfaceId == type(IERC721).interfaceId ||\r... */\n    tag_94:\n        /* \"contracts/nft.sol\":1627:1785  interfaceId == type(IERC721).interfaceId ||\r... */\n      dup1\n      tag_95\n      jumpi\n      pop\n        /* \"contracts/nft.sol\":1749:1785  super.supportsInterface(interfaceId) */\n      tag_96\n        /* \"contracts/nft.sol\":1773:1784  interfaceId */\n      dup3\n        /* \"contracts/nft.sol\":1749:1772  super.supportsInterface */\n      tag_97\n        /* \"contracts/nft.sol\":1749:1785  super.supportsInterface(interfaceId) */\n      jump\t// in\n    tag_96:\n        /* \"contracts/nft.sol\":1627:1785  interfaceId == type(IERC721).interfaceId ||\r... */\n    tag_95:\n        /* \"contracts/nft.sol\":1607:1785  return\r... */\n      swap1\n      pop\n        /* \"contracts/nft.sol\":1488:1793  function supportsInterface(bytes4 interfaceId) public view virtual override(ERC165, IERC165) returns (bool) {\r... */\n      swap2\n      swap1\n      pop\n      jump\t// out\n        /* \"contracts/nft.sol\":2691:2791  function name() public view virtual override returns (string memory) {\r... */\n    tag_29:\n        /* \"contracts/nft.sol\":2745:2758  string memory */\n      0x60\n        /* \"contracts/nft.sol\":2778:2783  _name */\n      0x00\n        /* \"contracts/nft.sol\":2771:2783  return _name */\n      dup1\n      sload\n      tag_99\n      swap1\n      tag_100\n      jump\t// in\n    tag_99:\n      dup1\n      0x1f\n      add\n      0x20\n      dup1\n      swap2\n      div\n      mul\n      0x20\n      add\n      mload(0x40)\n      swap1\n      dup2\n      add\n      0x40\n      mstore\n      dup1\n      swap3\n      swap2\n      swap1\n      dup2\n      dup2\n      mstore\n      0x20\n      add\n      dup3\n      dup1\n      sload\n      tag_101\n      swap1\n      tag_100\n      jump\t// in\n    tag_101:\n      dup1\n      iszero\n      tag_102\n      jumpi\n      dup1\n      0x1f\n      lt\n      tag_103\n      jumpi\n      0x0100\n      dup1\n      dup4\n      sload\n      div\n      mul\n      dup4\n      mstore\n      swap2\n      0x20\n      add\n      swap2\n      jump(tag_102)\n    tag_103:\n      dup3\n      add\n      swap2\n      swap1\n      0x00\n      mstore\n      keccak256(0x00, 0x20)\n      swap1\n    tag_104:\n      dup2\n      sload\n      dup2\n      mstore\n      swap1\n      0x01\n      add\n      swap1\n      0x20\n      add\n      dup1\n      dup4\n      gt\n      tag_104\n      jumpi\n      dup3\n      swap1\n      sub\n      0x1f\n      and\n      dup3\n      add\n      swap2\n    tag_102:\n      pop\n      pop\n      pop\n      pop\n      pop\n      swap1\n      pop\n        /* \"contracts/nft.sol\":2691:2791  function name() public view virtual override returns (string memory) {\r... */\n      swap1\n      jump\t// out\n        /* \"contracts/nft.sol\":3727:3898  function getApproved(uint256 tokenId) public view virtual override returns (address) {\r... */\n    tag_35:\n        /* \"contracts/nft.sol\":3803:3810  address */\n      0x00\n        /* \"contracts/nft.sol\":3823:3846  _requireMinted(tokenId) */\n      tag_106\n        /* \"contracts/nft.sol\":3838:3845  tokenId */\n      dup3\n        /* \"contracts/nft.sol\":3823:3837  _requireMinted */\n      tag_107\n        /* \"contracts/nft.sol\":3823:3846  _requireMinted(tokenId) */\n      jump\t// in\n    tag_106:\n        /* \"contracts/nft.sol\":3866:3881  _tokenApprovals */\n      0x06\n        /* \"contracts/nft.sol\":3866:3890  _tokenApprovals[tokenId] */\n      0x00\n        /* \"contracts/nft.sol\":3882:3889  tokenId */\n      dup4\n        /* \"contracts/nft.sol\":3866:3890  _tokenApprovals[tokenId] */\n      dup2\n      mstore\n      0x20\n      add\n      swap1\n      dup2\n      mstore\n      0x20\n      add\n      0x00\n      keccak256\n      0x00\n      swap1\n      sload\n      swap1\n      0x0100\n      exp\n      swap1\n      div\n      0xffffffffffffffffffffffffffffffffffffffff\n      and\n        /* \"contracts/nft.sol\":3859:3890  return _tokenApprovals[tokenId] */\n      swap1\n      pop\n        /* \"contracts/nft.sol\":3727:3898  function getApproved(uint256 tokenId) public view virtual override returns (address) {\r... */\n      swap2\n      swap1\n      pop\n      jump\t// out\n        /* \"contracts/nft.sol\":3303:3716  function approve(address to, uint256 tokenId) public virtual override {\r... */\n    tag_41:\n        /* \"contracts/nft.sol\":3384:3397  address owner */\n      0x00\n        /* \"contracts/nft.sol\":3400:3420  nft.ownerOf(tokenId) */\n      tag_109\n        /* \"contracts/nft.sol\":3412:3419  tokenId */\n      dup3\n        /* \"contracts/nft.sol\":3400:3411  nft.ownerOf */\n      tag_60\n        /* \"contracts/nft.sol\":3400:3420  nft.ownerOf(tokenId) */\n      jump\t// in\n    tag_109:\n        /* \"contracts/nft.sol\":3384:3420  address owner = nft.ownerOf(tokenId) */\n      swap1\n      pop\n        /* \"contracts/nft.sol\":3445:3450  owner */\n      dup1\n        /* \"contracts/nft.sol\":3439:3450  to != owner */\n      0xffffffffffffffffffffffffffffffffffffffff\n      and\n        /* \"contracts/nft.sol\":3439:3441  to */\n      dup4\n        /* \"contracts/nft.sol\":3439:3450  to != owner */\n      0xffffffffffffffffffffffffffffffffffffffff\n      and\n      eq\n      iszero\n        /* \"contracts/nft.sol\":3431:3488  require(to != owner, \"ERC721: approval to current owner\") */\n      tag_110\n      jumpi\n      mload(0x40)\n      0x08c379a000000000000000000000000000000000000000000000000000000000\n      dup2\n      mstore\n      0x04\n      add\n      tag_111\n      swap1\n      tag_112\n      jump\t// in\n    tag_111:\n      mload(0x40)\n      dup1\n      swap2\n      sub\n      swap1\n      revert\n    tag_110:\n        /* \"contracts/nft.sol\":3539:3544  owner */\n      dup1\n        /* \"contracts/nft.sol\":3523:3544  _msgSender() == owner */\n      0xffffffffffffffffffffffffffffffffffffffff\n      and\n        /* \"contracts/nft.sol\":3523:3535  _msgSender() */\n      tag_113\n        /* \"contracts/nft.sol\":3523:3533  _msgSender */\n      tag_114\n        /* \"contracts/nft.sol\":3523:3535  _msgSender() */\n      jump\t// in\n    tag_113:\n        /* \"contracts/nft.sol\":3523:3544  _msgSender() == owner */\n      0xffffffffffffffffffffffffffffffffffffffff\n      and\n      eq\n        /* \"contracts/nft.sol\":3523:3585  _msgSender() == owner || isApprovedForAll(owner, _msgSender()) */\n      dup1\n      tag_115\n      jumpi\n      pop\n        /* \"contracts/nft.sol\":3548:3585  isApprovedForAll(owner, _msgSender()) */\n      tag_116\n        /* \"contracts/nft.sol\":3565:3570  owner */\n      dup2\n        /* \"contracts/nft.sol\":3572:3584  _msgSender() */\n      tag_117\n        /* \"contracts/nft.sol\":3572:3582  _msgSender */\n      tag_114\n        /* \"contracts/nft.sol\":3572:3584  _msgSender() */\n      jump\t// in\n    tag_117:\n        /* \"contracts/nft.sol\":3548:3564  isApprovedForAll */\n      tag_86\n        /* \"contracts/nft.sol\":3548:3585  isApprovedForAll(owner, _msgSender()) */\n      jump\t// in\n    tag_116:\n        /* \"contracts/nft.sol\":3523:3585  _msgSender() == owner || isApprovedForAll(owner, _msgSender()) */\n    tag_115:\n        /* \"contracts/nft.sol\":3501:3674  require(\r... */\n      tag_118\n      jumpi\n      mload(0x40)\n      0x08c379a000000000000000000000000000000000000000000000000000000000\n      dup2\n      mstore\n      0x04\n      add\n      tag_119\n      swap1\n      tag_120\n      jump\t// in\n    tag_119:\n      mload(0x40)\n      dup1\n      swap2\n      sub\n      swap1\n      revert\n    tag_118:\n        /* \"contracts/nft.sol\":3687:3708  _approve(to, tokenId) */\n      tag_121\n        /* \"contracts/nft.sol\":3696:3698  to */\n      dup4\n        /* \"contracts/nft.sol\":3700:3707  tokenId */\n      dup4\n        /* \"contracts/nft.sol\":3687:3695  _approve */\n      tag_122\n        /* \"contracts/nft.sol\":3687:3708  _approve(to, tokenId) */\n      jump\t// in\n    tag_121:\n        /* \"contracts/nft.sol\":3303:3716  function approve(address to, uint256 tokenId) public virtual override {\r... */\n      pop\n      pop\n      pop\n      jump\t// out\n        /* \"contracts/nft.sol\":4249:4531  function transferFrom(\r... */\n    tag_45:\n        /* \"contracts/nft.sol\":4391:4432  _isApprovedOrOwner(_msgSender(), tokenId) */\n      tag_124\n        /* \"contracts/nft.sol\":4410:4422  _msgSender() */\n      tag_125\n        /* \"contracts/nft.sol\":4410:4420  _msgSender */\n      tag_114\n        /* \"contracts/nft.sol\":4410:4422  _msgSender() */\n      jump\t// in\n    tag_125:\n        /* \"contracts/nft.sol\":4424:4431  tokenId */\n      dup3\n        /* \"contracts/nft.sol\":4391:4409  _isApprovedOrOwner */\n      tag_126\n        /* \"contracts/nft.sol\":4391:4432  _isApprovedOrOwner(_msgSender(), tokenId) */\n      jump\t// in\n    tag_124:\n        /* \"contracts/nft.sol\":4383:4482  require(_isApprovedOrOwner(_msgSender(), tokenId), \"ERC721: caller is not token owner or approved\") */\n      tag_127\n      jumpi\n      mload(0x40)\n      0x08c379a000000000000000000000000000000000000000000000000000000000\n      dup2\n      mstore\n      0x04\n      add\n      tag_128\n      swap1\n      tag_129\n      jump\t// in\n    tag_128:\n      mload(0x40)\n      dup1\n      swap2\n      sub\n      swap1\n      revert\n    tag_127:\n        /* \"contracts/nft.sol\":4495:4523  _transfer(from, to, tokenId) */\n      tag_130\n        /* \"contracts/nft.sol\":4505:4509  from */\n      dup4\n        /* \"contracts/nft.sol\":4511:4513  to */\n      dup4\n        /* \"contracts/nft.sol\":4515:4522  tokenId */\n      dup4\n        /* \"contracts/nft.sol\":4495:4504  _transfer */\n      tag_131\n        /* \"contracts/nft.sol\":4495:4523  _transfer(from, to, tokenId) */\n      jump\t// in\n    tag_130:\n        /* \"contracts/nft.sol\":4249:4531  function transferFrom(\r... */\n      pop\n      pop\n      pop\n      jump\t// out\n        /* \"contracts/nft.sol\":5067:5308  function mint(address to,address[] memory collaborator,uint256[] memory collaboratorPercent,uint tokenId,string memory uri) public{\r... */\n    tag_49:\n        /* \"contracts/nft.sol\":5208:5263  _safeMint(to, collaborator,collaboratorPercent,tokenId) */\n      tag_133\n        /* \"contracts/nft.sol\":5218:5220  to */\n      dup6\n        /* \"contracts/nft.sol\":5222:5234  collaborator */\n      dup6\n        /* \"contracts/nft.sol\":5235:5254  collaboratorPercent */\n      dup6\n        /* \"contracts/nft.sol\":5255:5262  tokenId */\n      dup6\n        /* \"contracts/nft.sol\":5208:5217  _safeMint */\n      tag_134\n        /* \"contracts/nft.sol\":5208:5263  _safeMint(to, collaborator,collaboratorPercent,tokenId) */\n      jump\t// in\n    tag_133:\n        /* \"contracts/nft.sol\":5274:5300  _setTokenURI(tokenId, uri) */\n      tag_135\n        /* \"contracts/nft.sol\":5287:5294  tokenId */\n      dup3\n        /* \"contracts/nft.sol\":5296:5299  uri */\n      dup3\n        /* \"contracts/nft.sol\":5274:5286  _setTokenURI */\n      tag_136\n        /* \"contracts/nft.sol\":5274:5300  _setTokenURI(tokenId, uri) */\n      jump\t// in\n    tag_135:\n        /* \"contracts/nft.sol\":5067:5308  function mint(address to,address[] memory collaborator,uint256[] memory collaboratorPercent,uint tokenId,string memory uri) public{\r... */\n      pop\n      pop\n      pop\n      pop\n      pop\n      jump\t// out\n        /* \"contracts/nft.sol\":4541:4726  function safeTransferFrom(\r... */\n    tag_52:\n        /* \"contracts/nft.sol\":4679:4718  safeTransferFrom(from, to, tokenId, \"\") */\n      tag_138\n        /* \"contracts/nft.sol\":4696:4700  from */\n      dup4\n        /* \"contracts/nft.sol\":4702:4704  to */\n      dup4\n        /* \"contracts/nft.sol\":4706:4713  tokenId */\n      dup4\n        /* \"contracts/nft.sol\":4679:4718  safeTransferFrom(from, to, tokenId, \"\") */\n      mload(0x40)\n      dup1\n      0x20\n      add\n      0x40\n      mstore\n      dup1\n      0x00\n      dup2\n      mstore\n      pop\n        /* \"contracts/nft.sol\":4679:4695  safeTransferFrom */\n      tag_78\n        /* \"contracts/nft.sol\":4679:4718  safeTransferFrom(from, to, tokenId, \"\") */\n      jump\t// in\n    tag_138:\n        /* \"contracts/nft.sol\":4541:4726  function safeTransferFrom(\r... */\n      pop\n      pop\n      pop\n      jump\t// out\n        /* \"contracts/nft.sol\":2251:2443  function collaboratotOf(uint256 tokenId) public view virtual returns (address[] memory) {\r... */\n    tag_55:\n        /* \"contracts/nft.sol\":2321:2337  address[] memory */\n      0x60\n        /* \"contracts/nft.sol\":2350:2379  address[] memory collaborator */\n      0x00\n        /* \"contracts/nft.sol\":2382:2396  _collaborators */\n      0x03\n        /* \"contracts/nft.sol\":2382:2405  _collaborators[tokenId] */\n      0x00\n        /* \"contracts/nft.sol\":2397:2404  tokenId */\n      dup5\n        /* \"contracts/nft.sol\":2382:2405  _collaborators[tokenId] */\n      dup2\n      mstore\n      0x20\n      add\n      swap1\n      dup2\n      mstore\n      0x20\n      add\n      0x00\n      keccak256\n        /* \"contracts/nft.sol\":2350:2405  address[] memory collaborator = _collaborators[tokenId] */\n      dup1\n      sload\n      dup1\n      0x20\n      mul\n      0x20\n      add\n      mload(0x40)\n      swap1\n      dup2\n      add\n      0x40\n      mstore\n      dup1\n      swap3\n      swap2\n      swap1\n      dup2\n      dup2\n      mstore\n      0x20\n      add\n      dup3\n      dup1\n      sload\n      dup1\n      iszero\n      tag_140\n      jumpi\n      0x20\n      mul\n      dup3\n      add\n      swap2\n      swap1\n      0x00\n      mstore\n      keccak256(0x00, 0x20)\n      swap1\n    tag_141:\n      dup2\n      0x00\n      swap1\n      sload\n      swap1\n      0x0100\n      exp\n      swap1\n      div\n      0xffffffffffffffffffffffffffffffffffffffff\n      and\n      0xffffffffffffffffffffffffffffffffffffffff\n      and\n      dup2\n      mstore\n      0x20\n      add\n      swap1\n      0x01\n      add\n      swap1\n      dup1\n      dup4\n      gt\n      tag_141\n      jumpi\n    tag_140:\n      pop\n      pop\n      pop\n      pop\n      pop\n      swap1\n      pop\n        /* \"contracts/nft.sol\":2423:2435  collaborator */\n      dup1\n        /* \"contracts/nft.sol\":2416:2435  return collaborator */\n      swap2\n      pop\n      pop\n        /* \"contracts/nft.sol\":2251:2443  function collaboratotOf(uint256 tokenId) public view virtual returns (address[] memory) {\r... */\n      swap2\n      swap1\n      pop\n      jump\t// out\n        /* \"contracts/nft.sol\":2020:2242  function ownerOf(uint256 tokenId) public view virtual override returns (address) {\r... */\n    tag_60:\n        /* \"contracts/nft.sol\":2092:2099  address */\n      0x00\n        /* \"contracts/nft.sol\":2112:2125  address owner */\n      dup1\n        /* \"contracts/nft.sol\":2128:2135  _owners */\n      0x02\n        /* \"contracts/nft.sol\":2128:2144  _owners[tokenId] */\n      0x00\n        /* \"contracts/nft.sol\":2136:2143  tokenId */\n      dup5\n        /* \"contracts/nft.sol\":2128:2144  _owners[tokenId] */\n      dup2\n      mstore\n      0x20\n      add\n      swap1\n      dup2\n      mstore\n      0x20\n      add\n      0x00\n      keccak256\n      0x00\n      swap1\n      sload\n      swap1\n      0x0100\n      exp\n      swap1\n      div\n      0xffffffffffffffffffffffffffffffffffffffff\n      and\n        /* \"contracts/nft.sol\":2112:2144  address owner = _owners[tokenId] */\n      swap1\n      pop\n        /* \"contracts/nft.sol\":2180:2181  0 */\n      0x00\n        /* \"contracts/nft.sol\":2163:2182  owner != address(0) */\n      0xffffffffffffffffffffffffffffffffffffffff\n      and\n        /* \"contracts/nft.sol\":2163:2168  owner */\n      dup2\n        /* \"contracts/nft.sol\":2163:2182  owner != address(0) */\n      0xffffffffffffffffffffffffffffffffffffffff\n      and\n      eq\n      iszero\n        /* \"contracts/nft.sol\":2155:2211  require(owner != address(0), \"ERC721: invalid token ID\") */\n      tag_143\n      jumpi\n      mload(0x40)\n      0x08c379a000000000000000000000000000000000000000000000000000000000\n      dup2\n      mstore\n      0x04\n      add\n      tag_144\n      swap1\n      tag_145\n      jump\t// in\n    tag_144:\n      mload(0x40)\n      dup1\n      swap2\n      sub\n      swap1\n      revert\n    tag_143:\n        /* \"contracts/nft.sol\":2229:2234  owner */\n      dup1\n        /* \"contracts/nft.sol\":2222:2234  return owner */\n      swap2\n      pop\n      pop\n        /* \"contracts/nft.sol\":2020:2242  function ownerOf(uint256 tokenId) public view virtual override returns (address) {\r... */\n      swap2\n      swap1\n      pop\n      jump\t// out\n        /* \"contracts/nft.sol\":1803:2010  function balanceOf(address owner) public view virtual override returns (uint256) {\r... */\n    tag_65:\n        /* \"contracts/nft.sol\":1875:1882  uint256 */\n      0x00\n        /* \"contracts/nft.sol\":1920:1921  0 */\n      dup1\n        /* \"contracts/nft.sol\":1903:1922  owner != address(0) */\n      0xffffffffffffffffffffffffffffffffffffffff\n      and\n        /* \"contracts/nft.sol\":1903:1908  owner */\n      dup3\n        /* \"contracts/nft.sol\":1903:1922  owner != address(0) */\n      0xffffffffffffffffffffffffffffffffffffffff\n      and\n      eq\n      iszero\n        /* \"contracts/nft.sol\":1895:1968  require(owner != address(0), \"ERC721: address zero is not a valid owner\") */\n      tag_147\n      jumpi\n      mload(0x40)\n      0x08c379a000000000000000000000000000000000000000000000000000000000\n      dup2\n      mstore\n      0x04\n      add\n      tag_148\n      swap1\n      tag_149\n      jump\t// in\n    tag_148:\n      mload(0x40)\n      dup1\n      swap2\n      sub\n      swap1\n      revert\n    tag_147:\n        /* \"contracts/nft.sol\":1986:1995  _balances */\n      0x05\n        /* \"contracts/nft.sol\":1986:2002  _balances[owner] */\n      0x00\n        /* \"contracts/nft.sol\":1996:2001  owner */\n      dup4\n        /* \"contracts/nft.sol\":1986:2002  _balances[owner] */\n      0xffffffffffffffffffffffffffffffffffffffff\n      and\n      0xffffffffffffffffffffffffffffffffffffffff\n      and\n      dup2\n      mstore\n      0x20\n      add\n      swap1\n      dup2\n      mstore\n      0x20\n      add\n      0x00\n      keccak256\n      sload\n        /* \"contracts/nft.sol\":1979:2002  return _balances[owner] */\n      swap1\n      pop\n        /* \"contracts/nft.sol\":1803:2010  function balanceOf(address owner) public view virtual override returns (uint256) {\r... */\n      swap2\n      swap1\n      pop\n      jump\t// out\n        /* \"contracts/nft.sol\":2800:2904  function symbol() public view virtual override returns (string memory) {\r... */\n    tag_69:\n        /* \"contracts/nft.sol\":2856:2869  string memory */\n      0x60\n        /* \"contracts/nft.sol\":2889:2896  _symbol */\n      0x01\n        /* \"contracts/nft.sol\":2882:2896  return _symbol */\n      dup1\n      sload\n      tag_151\n      swap1\n      tag_100\n      jump\t// in\n    tag_151:\n      dup1\n      0x1f\n      add\n      0x20\n      dup1\n      swap2\n      div\n      mul\n      0x20\n      add\n      mload(0x40)\n      swap1\n      dup2\n      add\n      0x40\n      mstore\n      dup1\n      swap3\n      swap2\n      swap1\n      dup2\n      dup2\n      mstore\n      0x20\n      add\n      dup3\n      dup1\n      sload\n      tag_152\n      swap1\n      tag_100\n      jump\t// in\n    tag_152:\n      dup1\n      iszero\n      tag_153\n      jumpi\n      dup1\n      0x1f\n      lt\n      tag_154\n      jumpi\n      0x0100\n      dup1\n      dup4\n      sload\n      div\n      mul\n      dup4\n      mstore\n      swap2\n      0x20\n      add\n      swap2\n      jump(tag_153)\n    tag_154:\n      dup3\n      add\n      swap2\n      swap1\n      0x00\n      mstore\n      keccak256(0x00, 0x20)\n      swap1\n    tag_155:\n      dup2\n      sload\n      dup2\n      mstore\n      swap1\n      0x01\n      add\n      swap1\n      0x20\n      add\n      dup1\n      dup4\n      gt\n      tag_155\n      jumpi\n      dup3\n      swap1\n      sub\n      0x1f\n      and\n      dup3\n      add\n      swap2\n    tag_153:\n      pop\n      pop\n      pop\n      pop\n      pop\n      swap1\n      pop\n        /* \"contracts/nft.sol\":2800:2904  function symbol() public view virtual override returns (string memory) {\r... */\n      swap1\n      jump\t// out\n        /* \"contracts/nft.sol\":3910:4065  function setApprovalForAll(address operator, bool approved) public virtual override {\r... */\n    tag_74:\n        /* \"contracts/nft.sol\":4005:4057  _setApprovalForAll(_msgSender(), operator, approved) */\n      tag_157\n        /* \"contracts/nft.sol\":4024:4036  _msgSender() */\n      tag_158\n        /* \"contracts/nft.sol\":4024:4034  _msgSender */\n      tag_114\n        /* \"contracts/nft.sol\":4024:4036  _msgSender() */\n      jump\t// in\n    tag_158:\n        /* \"contracts/nft.sol\":4038:4046  operator */\n      dup4\n        /* \"contracts/nft.sol\":4048:4056  approved */\n      dup4\n        /* \"contracts/nft.sol\":4005:4023  _setApprovalForAll */\n      tag_159\n        /* \"contracts/nft.sol\":4005:4057  _setApprovalForAll(_msgSender(), operator, approved) */\n      jump\t// in\n    tag_157:\n        /* \"contracts/nft.sol\":3910:4065  function setApprovalForAll(address operator, bool approved) public virtual override {\r... */\n      pop\n      pop\n      jump\t// out\n        /* \"contracts/nft.sol\":4736:5058  function safeTransferFrom(\r... */\n    tag_78:\n        /* \"contracts/nft.sol\":4910:4951  _isApprovedOrOwner(_msgSender(), tokenId) */\n      tag_161\n        /* \"contracts/nft.sol\":4929:4941  _msgSender() */\n      tag_162\n        /* \"contracts/nft.sol\":4929:4939  _msgSender */\n      tag_114\n        /* \"contracts/nft.sol\":4929:4941  _msgSender() */\n      jump\t// in\n    tag_162:\n        /* \"contracts/nft.sol\":4943:4950  tokenId */\n      dup4\n        /* \"contracts/nft.sol\":4910:4928  _isApprovedOrOwner */\n      tag_126\n        /* \"contracts/nft.sol\":4910:4951  _isApprovedOrOwner(_msgSender(), tokenId) */\n      jump\t// in\n    tag_161:\n        /* \"contracts/nft.sol\":4902:5001  require(_isApprovedOrOwner(_msgSender(), tokenId), \"ERC721: caller is not token owner or approved\") */\n      tag_163\n      jumpi\n      mload(0x40)\n      0x08c379a000000000000000000000000000000000000000000000000000000000\n      dup2\n      mstore\n      0x04\n      add\n      tag_164\n      swap1\n      tag_129\n      jump\t// in\n    tag_164:\n      mload(0x40)\n      dup1\n      swap2\n      sub\n      swap1\n      revert\n    tag_163:\n        /* \"contracts/nft.sol\":5012:5050  _safeTransfer(from, to, tokenId, data) */\n      tag_165\n        /* \"contracts/nft.sol\":5026:5030  from */\n      dup5\n        /* \"contracts/nft.sol\":5032:5034  to */\n      dup5\n        /* \"contracts/nft.sol\":5036:5043  tokenId */\n      dup5\n        /* \"contracts/nft.sol\":5045:5049  data */\n      dup5\n        /* \"contracts/nft.sol\":5012:5025  _safeTransfer */\n      tag_166\n        /* \"contracts/nft.sol\":5012:5050  _safeTransfer(from, to, tokenId, data) */\n      jump\t// in\n    tag_165:\n        /* \"contracts/nft.sol\":4736:5058  function safeTransferFrom(\r... */\n      pop\n      pop\n      pop\n      pop\n      jump\t// out\n        /* \"contracts/nft.sol\":2912:3193  function tokenURI(uint256 tokenId) public view virtual override returns (string memory) {\r... */\n    tag_81:\n        /* \"contracts/nft.sol\":2985:2998  string memory */\n      0x60\n        /* \"contracts/nft.sol\":3011:3034  _requireMinted(tokenId) */\n      tag_168\n        /* \"contracts/nft.sol\":3026:3033  tokenId */\n      dup3\n        /* \"contracts/nft.sol\":3011:3025  _requireMinted */\n      tag_107\n        /* \"contracts/nft.sol\":3011:3034  _requireMinted(tokenId) */\n      jump\t// in\n    tag_168:\n        /* \"contracts/nft.sol\":3047:3068  string memory baseURI */\n      0x00\n        /* \"contracts/nft.sol\":3071:3081  _baseURI() */\n      tag_169\n        /* \"contracts/nft.sol\":3071:3079  _baseURI */\n      tag_170\n        /* \"contracts/nft.sol\":3071:3081  _baseURI() */\n      jump\t// in\n    tag_169:\n        /* \"contracts/nft.sol\":3047:3081  string memory baseURI = _baseURI() */\n      swap1\n      pop\n        /* \"contracts/nft.sol\":3123:3124  0 */\n      0x00\n        /* \"contracts/nft.sol\":3105:3112  baseURI */\n      dup2\n        /* \"contracts/nft.sol\":3099:3120  bytes(baseURI).length */\n      mload\n        /* \"contracts/nft.sol\":3099:3124  bytes(baseURI).length > 0 */\n      gt\n        /* \"contracts/nft.sol\":3099:3185  bytes(baseURI).length > 0 ? string(abi.encodePacked(baseURI, tokenId.toString())) : \"\" */\n      tag_171\n      jumpi\n      mload(0x40)\n      dup1\n      0x20\n      add\n      0x40\n      mstore\n      dup1\n      0x00\n      dup2\n      mstore\n      pop\n      jump(tag_172)\n    tag_171:\n        /* \"contracts/nft.sol\":3151:3158  baseURI */\n      dup1\n        /* \"contracts/nft.sol\":3160:3178  tokenId.toString() */\n      tag_173\n        /* \"contracts/nft.sol\":3160:3167  tokenId */\n      dup5\n        /* \"contracts/nft.sol\":3160:3176  tokenId.toString */\n      tag_174\n        /* \"contracts/nft.sol\":3160:3178  tokenId.toString() */\n      jump\t// in\n    tag_173:\n        /* \"contracts/nft.sol\":3134:3179  abi.encodePacked(baseURI, tokenId.toString()) */\n      add(0x20, mload(0x40))\n      tag_175\n      swap3\n      swap2\n      swap1\n      tag_176\n      jump\t// in\n    tag_175:\n      mload(0x40)\n      0x20\n      dup2\n      dup4\n      sub\n      sub\n      dup2\n      mstore\n      swap1\n      0x40\n      mstore\n        /* \"contracts/nft.sol\":3099:3185  bytes(baseURI).length > 0 ? string(abi.encodePacked(baseURI, tokenId.toString())) : \"\" */\n    tag_172:\n        /* \"contracts/nft.sol\":3092:3185  return bytes(baseURI).length > 0 ? string(abi.encodePacked(baseURI, tokenId.toString())) : \"\" */\n      swap2\n      pop\n      pop\n        /* \"contracts/nft.sol\":2912:3193  function tokenURI(uint256 tokenId) public view virtual override returns (string memory) {\r... */\n      swap2\n      swap1\n      pop\n      jump\t// out\n        /* \"contracts/nft.sol\":4075:4239  function isApprovedForAll(address owner, address operator) public view virtual override returns (bool) {\r... */\n    tag_86:\n        /* \"contracts/nft.sol\":4172:4176  bool */\n      0x00\n        /* \"contracts/nft.sol\":4196:4214  _operatorApprovals */\n      0x07\n        /* \"contracts/nft.sol\":4196:4221  _operatorApprovals[owner] */\n      0x00\n        /* \"contracts/nft.sol\":4215:4220  owner */\n      dup5\n        /* \"contracts/nft.sol\":4196:4221  _operatorApprovals[owner] */\n      0xffffffffffffffffffffffffffffffffffffffff\n      and\n      0xffffffffffffffffffffffffffffffffffffffff\n      and\n      dup2\n      mstore\n      0x20\n      add\n      swap1\n      dup2\n      mstore\n      0x20\n      add\n      0x00\n      keccak256\n        /* \"contracts/nft.sol\":4196:4231  _operatorApprovals[owner][operator] */\n      0x00\n        /* \"contracts/nft.sol\":4222:4230  operator */\n      dup4\n        /* \"contracts/nft.sol\":4196:4231  _operatorApprovals[owner][operator] */\n      0xffffffffffffffffffffffffffffffffffffffff\n      and\n      0xffffffffffffffffffffffffffffffffffffffff\n      and\n      dup2\n      mstore\n      0x20\n      add\n      swap1\n      dup2\n      mstore\n      0x20\n      add\n      0x00\n      keccak256\n      0x00\n      swap1\n      sload\n      swap1\n      0x0100\n      exp\n      swap1\n      div\n      0xff\n      and\n        /* \"contracts/nft.sol\":4189:4231  return _operatorApprovals[owner][operator] */\n      swap1\n      pop\n        /* \"contracts/nft.sol\":4075:4239  function isApprovedForAll(address owner, address operator) public view virtual override returns (bool) {\r... */\n      swap3\n      swap2\n      pop\n      pop\n      jump\t// out\n        /* \"contracts/nft.sol\":2451:2683  function collaboratotPercentageOf(uint256 tokenId) public view virtual returns (uint256[] memory) {\r... */\n    tag_90:\n        /* \"contracts/nft.sol\":2531:2547  uint256[] memory */\n      0x60\n        /* \"contracts/nft.sol\":2560:2599  uint256[] memory collaboratorPercentage */\n      0x00\n        /* \"contracts/nft.sol\":2602:2626  _collaboratorsPercentage */\n      0x04\n        /* \"contracts/nft.sol\":2602:2635  _collaboratorsPercentage[tokenId] */\n      0x00\n        /* \"contracts/nft.sol\":2627:2634  tokenId */\n      dup5\n        /* \"contracts/nft.sol\":2602:2635  _collaboratorsPercentage[tokenId] */\n      dup2\n      mstore\n      0x20\n      add\n      swap1\n      dup2\n      mstore\n      0x20\n      add\n      0x00\n      keccak256\n        /* \"contracts/nft.sol\":2560:2635  uint256[] memory collaboratorPercentage = _collaboratorsPercentage[tokenId] */\n      dup1\n      sload\n      dup1\n      0x20\n      mul\n      0x20\n      add\n      mload(0x40)\n      swap1\n      dup2\n      add\n      0x40\n      mstore\n      dup1\n      swap3\n      swap2\n      swap1\n      dup2\n      dup2\n      mstore\n      0x20\n      add\n      dup3\n      dup1\n      sload\n      dup1\n      iszero\n      tag_179\n      jumpi\n      0x20\n      mul\n      dup3\n      add\n      swap2\n      swap1\n      0x00\n      mstore\n      keccak256(0x00, 0x20)\n      swap1\n    tag_180:\n      dup2\n      sload\n      dup2\n      mstore\n      0x20\n      add\n      swap1\n      0x01\n      add\n      swap1\n      dup1\n      dup4\n      gt\n      tag_180\n      jumpi\n    tag_179:\n      pop\n      pop\n      pop\n      pop\n      pop\n      swap1\n      pop\n        /* \"contracts/nft.sol\":2653:2675  collaboratorPercentage */\n      dup1\n        /* \"contracts/nft.sol\":2646:2675  return collaboratorPercentage */\n      swap2\n      pop\n      pop\n        /* \"contracts/nft.sol\":2451:2683  function collaboratotPercentageOf(uint256 tokenId) public view virtual returns (uint256[] memory) {\r... */\n      swap2\n      swap1\n      pop\n      jump\t// out\n        /* \"@openzeppelin/contracts@4.6.0/utils/introspection/ERC165.sol\":829:984  function supportsInterface(bytes4 interfaceId) public view virtual override returns (bool) {... */\n    tag_97:\n        /* \"@openzeppelin/contracts@4.6.0/utils/introspection/ERC165.sol\":914:918  bool */\n      0x00\n        /* \"@openzeppelin/contracts@4.6.0/utils/introspection/ERC165.sol\":952:977  type(IERC165).interfaceId */\n      0x01ffc9a700000000000000000000000000000000000000000000000000000000\n        /* \"@openzeppelin/contracts@4.6.0/utils/introspection/ERC165.sol\":937:977  interfaceId == type(IERC165).interfaceId */\n      not(0xffffffffffffffffffffffffffffffffffffffffffffffffffffffff)\n      and\n        /* \"@openzeppelin/contracts@4.6.0/utils/introspection/ERC165.sol\":937:948  interfaceId */\n      dup3\n        /* \"@openzeppelin/contracts@4.6.0/utils/introspection/ERC165.sol\":937:977  interfaceId == type(IERC165).interfaceId */\n      not(0xffffffffffffffffffffffffffffffffffffffffffffffffffffffff)\n      and\n      eq\n        /* \"@openzeppelin/contracts@4.6.0/utils/introspection/ERC165.sol\":930:977  return interfaceId == type(IERC165).interfaceId */\n      swap1\n      pop\n        /* \"@openzeppelin/contracts@4.6.0/utils/introspection/ERC165.sol\":829:984  function supportsInterface(bytes4 interfaceId) public view virtual override returns (bool) {... */\n      swap2\n      swap1\n      pop\n      jump\t// out\n        /* \"contracts/nft.sol\":9425:9560  function _requireMinted(uint256 tokenId) internal view virtual {\r... */\n    tag_107:\n        /* \"contracts/nft.sol\":9507:9523  _exists(tokenId) */\n      tag_183\n        /* \"contracts/nft.sol\":9515:9522  tokenId */\n      dup2\n        /* \"contracts/nft.sol\":9507:9514  _exists */\n      tag_184\n        /* \"contracts/nft.sol\":9507:9523  _exists(tokenId) */\n      jump\t// in\n    tag_183:\n        /* \"contracts/nft.sol\":9499:9552  require(_exists(tokenId), \"ERC721: invalid token ID\") */\n      tag_185\n      jumpi\n      mload(0x40)\n      0x08c379a000000000000000000000000000000000000000000000000000000000\n      dup2\n      mstore\n      0x04\n      add\n      tag_186\n      swap1\n      tag_145\n      jump\t// in\n    tag_186:\n      mload(0x40)\n      dup1\n      swap2\n      sub\n      swap1\n      revert\n    tag_185:\n        /* \"contracts/nft.sol\":9425:9560  function _requireMinted(uint256 tokenId) internal view virtual {\r... */\n      pop\n      jump\t// out\n        /* \"@openzeppelin/contracts@4.6.0/utils/Context.sol\":640:736  function _msgSender() internal view virtual returns (address) {... */\n    tag_114:\n        /* \"@openzeppelin/contracts@4.6.0/utils/Context.sol\":693:700  address */\n      0x00\n        /* \"@openzeppelin/contracts@4.6.0/utils/Context.sol\":719:729  msg.sender */\n      caller\n        /* \"@openzeppelin/contracts@4.6.0/utils/Context.sol\":712:729  return msg.sender */\n      swap1\n      pop\n        /* \"@openzeppelin/contracts@4.6.0/utils/Context.sol\":640:736  function _msgSender() internal view virtual returns (address) {... */\n      swap1\n      jump\t// out\n        /* \"contracts/nft.sol\":8923:9094  function _approve(address to, uint256 tokenId) internal virtual {\r... */\n    tag_122:\n        /* \"contracts/nft.sol\":9025:9027  to */\n      dup2\n        /* \"contracts/nft.sol\":8998:9013  _tokenApprovals */\n      0x06\n        /* \"contracts/nft.sol\":8998:9022  _tokenApprovals[tokenId] */\n      0x00\n        /* \"contracts/nft.sol\":9014:9021  tokenId */\n      dup4\n        /* \"contracts/nft.sol\":8998:9022  _tokenApprovals[tokenId] */\n      dup2\n      mstore\n      0x20\n      add\n      swap1\n      dup2\n      mstore\n      0x20\n      add\n      0x00\n      keccak256\n      0x00\n        /* \"contracts/nft.sol\":8998:9027  _tokenApprovals[tokenId] = to */\n      0x0100\n      exp\n      dup2\n      sload\n      dup2\n      0xffffffffffffffffffffffffffffffffffffffff\n      mul\n      not\n      and\n      swap1\n      dup4\n      0xffffffffffffffffffffffffffffffffffffffff\n      and\n      mul\n      or\n      swap1\n      sstore\n      pop\n        /* \"contracts/nft.sol\":9078:9085  tokenId */\n      dup1\n        /* \"contracts/nft.sol\":9074:9076  to */\n      dup3\n        /* \"contracts/nft.sol\":9043:9086  Approval(nft.ownerOf(tokenId), to, tokenId) */\n      0xffffffffffffffffffffffffffffffffffffffff\n      and\n        /* \"contracts/nft.sol\":9052:9072  nft.ownerOf(tokenId) */\n      tag_189\n        /* \"contracts/nft.sol\":9064:9071  tokenId */\n      dup4\n        /* \"contracts/nft.sol\":9052:9063  nft.ownerOf */\n      tag_60\n        /* \"contracts/nft.sol\":9052:9072  nft.ownerOf(tokenId) */\n      jump\t// in\n    tag_189:\n        /* \"contracts/nft.sol\":9043:9086  Approval(nft.ownerOf(tokenId), to, tokenId) */\n      0xffffffffffffffffffffffffffffffffffffffff\n      and\n      0x8c5be1e5ebec7d5bd14f71427d1e84f3dd0314c0f7b2291e5b200ac8c7c3b925\n      mload(0x40)\n      mload(0x40)\n      dup1\n      swap2\n      sub\n      swap1\n      log4\n        /* \"contracts/nft.sol\":8923:9094  function _approve(address to, uint256 tokenId) internal virtual {\r... */\n      pop\n      pop\n      jump\t// out\n        /* \"contracts/nft.sol\":5774:6035  function _isApprovedOrOwner(address spender, uint256 tokenId) internal view virtual returns (bool) {\r... */\n    tag_126:\n        /* \"contracts/nft.sol\":5867:5871  bool */\n      0x00\n        /* \"contracts/nft.sol\":5884:5897  address owner */\n      dup1\n        /* \"contracts/nft.sol\":5900:5920  nft.ownerOf(tokenId) */\n      tag_191\n        /* \"contracts/nft.sol\":5912:5919  tokenId */\n      dup4\n        /* \"contracts/nft.sol\":5900:5911  nft.ownerOf */\n      tag_60\n        /* \"contracts/nft.sol\":5900:5920  nft.ownerOf(tokenId) */\n      jump\t// in\n    tag_191:\n        /* \"contracts/nft.sol\":5884:5920  address owner = nft.ownerOf(tokenId) */\n      swap1\n      pop\n        /* \"contracts/nft.sol\":5950:5955  owner */\n      dup1\n        /* \"contracts/nft.sol\":5939:5955  spender == owner */\n      0xffffffffffffffffffffffffffffffffffffffff\n      and\n        /* \"contracts/nft.sol\":5939:5946  spender */\n      dup5\n        /* \"contracts/nft.sol\":5939:5955  spender == owner */\n      0xffffffffffffffffffffffffffffffffffffffff\n      and\n      eq\n        /* \"contracts/nft.sol\":5939:5991  spender == owner || isApprovedForAll(owner, spender) */\n      dup1\n      tag_192\n      jumpi\n      pop\n        /* \"contracts/nft.sol\":5959:5991  isApprovedForAll(owner, spender) */\n      tag_193\n        /* \"contracts/nft.sol\":5976:5981  owner */\n      dup2\n        /* \"contracts/nft.sol\":5983:5990  spender */\n      dup6\n        /* \"contracts/nft.sol\":5959:5975  isApprovedForAll */\n      tag_86\n        /* \"contracts/nft.sol\":5959:5991  isApprovedForAll(owner, spender) */\n      jump\t// in\n    tag_193:\n        /* \"contracts/nft.sol\":5939:5991  spender == owner || isApprovedForAll(owner, spender) */\n    tag_192:\n        /* \"contracts/nft.sol\":5939:6026  spender == owner || isApprovedForAll(owner, spender) || getApproved(tokenId) == spender */\n      dup1\n      tag_194\n      jumpi\n      pop\n        /* \"contracts/nft.sol\":6019:6026  spender */\n      dup4\n        /* \"contracts/nft.sol\":5995:6026  getApproved(tokenId) == spender */\n      0xffffffffffffffffffffffffffffffffffffffff\n      and\n        /* \"contracts/nft.sol\":5995:6015  getApproved(tokenId) */\n      tag_195\n        /* \"contracts/nft.sol\":6007:6014  tokenId */\n      dup5\n        /* \"contracts/nft.sol\":5995:6006  getApproved */\n      tag_35\n        /* \"contracts/nft.sol\":5995:6015  getApproved(tokenId) */\n      jump\t// in\n    tag_195:\n        /* \"contracts/nft.sol\":5995:6026  getApproved(tokenId) == spender */\n      0xffffffffffffffffffffffffffffffffffffffff\n      and\n      eq\n        /* \"contracts/nft.sol\":5939:6026  spender == owner || isApprovedForAll(owner, spender) || getApproved(tokenId) == spender */\n    tag_194:\n        /* \"contracts/nft.sol\":5931:6027  return (spender == owner || isApprovedForAll(owner, spender) || getApproved(tokenId) == spender) */\n      swap2\n      pop\n      pop\n        /* \"contracts/nft.sol\":5774:6035  function _isApprovedOrOwner(address spender, uint256 tokenId) internal view virtual returns (bool) {\r... */\n      swap3\n      swap2\n      pop\n      pop\n      jump\t// out\n        /* \"contracts/nft.sol\":8156:8913  function _transfer(\r... */\n    tag_131:\n        /* \"contracts/nft.sol\":8312:8316  from */\n      dup3\n        /* \"contracts/nft.sol\":8288:8316  nft.ownerOf(tokenId) == from */\n      0xffffffffffffffffffffffffffffffffffffffff\n      and\n        /* \"contracts/nft.sol\":8288:8308  nft.ownerOf(tokenId) */\n      tag_197\n        /* \"contracts/nft.sol\":8300:8307  tokenId */\n      dup3\n        /* \"contracts/nft.sol\":8288:8299  nft.ownerOf */\n      tag_60\n        /* \"contracts/nft.sol\":8288:8308  nft.ownerOf(tokenId) */\n      jump\t// in\n    tag_197:\n        /* \"contracts/nft.sol\":8288:8316  nft.ownerOf(tokenId) == from */\n      0xffffffffffffffffffffffffffffffffffffffff\n      and\n      eq\n        /* \"contracts/nft.sol\":8280:8358  require(nft.ownerOf(tokenId) == from, \"ERC721: transfer from incorrect owner\") */\n      tag_198\n      jumpi\n      mload(0x40)\n      0x08c379a000000000000000000000000000000000000000000000000000000000\n      dup2\n      mstore\n      0x04\n      add\n      tag_199\n      swap1\n      tag_200\n      jump\t// in\n    tag_199:\n      mload(0x40)\n      dup1\n      swap2\n      sub\n      swap1\n      revert\n    tag_198:\n        /* \"contracts/nft.sol\":8391:8392  0 */\n      0x00\n        /* \"contracts/nft.sol\":8377:8393  to != address(0) */\n      0xffffffffffffffffffffffffffffffffffffffff\n      and\n        /* \"contracts/nft.sol\":8377:8379  to */\n      dup3\n        /* \"contracts/nft.sol\":8377:8393  to != address(0) */\n      0xffffffffffffffffffffffffffffffffffffffff\n      and\n      eq\n      iszero\n        /* \"contracts/nft.sol\":8369:8434  require(to != address(0), \"ERC721: transfer to the zero address\") */\n      tag_201\n      jumpi\n      mload(0x40)\n      0x08c379a000000000000000000000000000000000000000000000000000000000\n      dup2\n      mstore\n      0x04\n      add\n      tag_202\n      swap1\n      tag_203\n      jump\t// in\n    tag_202:\n      mload(0x40)\n      dup1\n      swap2\n      sub\n      swap1\n      revert\n    tag_201:\n        /* \"contracts/nft.sol\":8447:8486  _beforeTokenTransfer(from, to, tokenId) */\n      tag_204\n        /* \"contracts/nft.sol\":8468:8472  from */\n      dup4\n        /* \"contracts/nft.sol\":8474:8476  to */\n      dup4\n        /* \"contracts/nft.sol\":8478:8485  tokenId */\n      dup4\n        /* \"contracts/nft.sol\":8447:8467  _beforeTokenTransfer */\n      tag_205\n        /* \"contracts/nft.sol\":8447:8486  _beforeTokenTransfer(from, to, tokenId) */\n      jump\t// in\n    tag_204:\n        /* \"contracts/nft.sol\":8531:8535  from */\n      dup3\n        /* \"contracts/nft.sol\":8507:8535  nft.ownerOf(tokenId) == from */\n      0xffffffffffffffffffffffffffffffffffffffff\n      and\n        /* \"contracts/nft.sol\":8507:8527  nft.ownerOf(tokenId) */\n      tag_206\n        /* \"contracts/nft.sol\":8519:8526  tokenId */\n      dup3\n        /* \"contracts/nft.sol\":8507:8518  nft.ownerOf */\n      tag_60\n        /* \"contracts/nft.sol\":8507:8527  nft.ownerOf(tokenId) */\n      jump\t// in\n    tag_206:\n        /* \"contracts/nft.sol\":8507:8535  nft.ownerOf(tokenId) == from */\n      0xffffffffffffffffffffffffffffffffffffffff\n      and\n      eq\n        /* \"contracts/nft.sol\":8499:8577  require(nft.ownerOf(tokenId) == from, \"ERC721: transfer from incorrect owner\") */\n      tag_207\n      jumpi\n      mload(0x40)\n      0x08c379a000000000000000000000000000000000000000000000000000000000\n      dup2\n      mstore\n      0x04\n      add\n      tag_208\n      swap1\n      tag_200\n      jump\t// in\n    tag_208:\n      mload(0x40)\n      dup1\n      swap2\n      sub\n      swap1\n      revert\n    tag_207:\n        /* \"contracts/nft.sol\":8649:8664  _tokenApprovals */\n      0x06\n        /* \"contracts/nft.sol\":8649:8673  _tokenApprovals[tokenId] */\n      0x00\n        /* \"contracts/nft.sol\":8665:8672  tokenId */\n      dup3\n        /* \"contracts/nft.sol\":8649:8673  _tokenApprovals[tokenId] */\n      dup2\n      mstore\n      0x20\n      add\n      swap1\n      dup2\n      mstore\n      0x20\n      add\n      0x00\n      keccak256\n      0x00\n        /* \"contracts/nft.sol\":8642:8673  delete _tokenApprovals[tokenId] */\n      0x0100\n      exp\n      dup2\n      sload\n      swap1\n      0xffffffffffffffffffffffffffffffffffffffff\n      mul\n      not\n      and\n      swap1\n      sstore\n        /* \"contracts/nft.sol\":8732:8733  1 */\n      0x01\n        /* \"contracts/nft.sol\":8713:8722  _balances */\n      0x05\n        /* \"contracts/nft.sol\":8713:8728  _balances[from] */\n      0x00\n        /* \"contracts/nft.sol\":8723:8727  from */\n      dup6\n        /* \"contracts/nft.sol\":8713:8728  _balances[from] */\n      0xffffffffffffffffffffffffffffffffffffffff\n      and\n      0xffffffffffffffffffffffffffffffffffffffff\n      and\n      dup2\n      mstore\n      0x20\n      add\n      swap1\n      dup2\n      mstore\n      0x20\n      add\n      0x00\n      keccak256\n      0x00\n        /* \"contracts/nft.sol\":8713:8733  _balances[from] -= 1 */\n      dup3\n      dup3\n      sload\n      sub\n      swap3\n      pop\n      pop\n      dup2\n      swap1\n      sstore\n      pop\n        /* \"contracts/nft.sol\":8765:8766  1 */\n      0x01\n        /* \"contracts/nft.sol\":8748:8757  _balances */\n      0x05\n        /* \"contracts/nft.sol\":8748:8761  _balances[to] */\n      0x00\n        /* \"contracts/nft.sol\":8758:8760  to */\n      dup5\n        /* \"contracts/nft.sol\":8748:8761  _balances[to] */\n      0xffffffffffffffffffffffffffffffffffffffff\n      and\n      0xffffffffffffffffffffffffffffffffffffffff\n      and\n      dup2\n      mstore\n      0x20\n      add\n      swap1\n      dup2\n      mstore\n      0x20\n      add\n      0x00\n      keccak256\n      0x00\n        /* \"contracts/nft.sol\":8748:8766  _balances[to] += 1 */\n      dup3\n      dup3\n      sload\n      add\n      swap3\n      pop\n      pop\n      dup2\n      swap1\n      sstore\n      pop\n        /* \"contracts/nft.sol\":8807:8809  to */\n      dup2\n        /* \"contracts/nft.sol\":8788:8795  _owners */\n      0x02\n        /* \"contracts/nft.sol\":8788:8804  _owners[tokenId] */\n      0x00\n        /* \"contracts/nft.sol\":8796:8803  tokenId */\n      dup4\n        /* \"contracts/nft.sol\":8788:8804  _owners[tokenId] */\n      dup2\n      mstore\n      0x20\n      add\n      swap1\n      dup2\n      mstore\n      0x20\n      add\n      0x00\n      keccak256\n      0x00\n        /* \"contracts/nft.sol\":8788:8809  _owners[tokenId] = to */\n      0x0100\n      exp\n      dup2\n      sload\n      dup2\n      0xffffffffffffffffffffffffffffffffffffffff\n      mul\n      not\n      and\n      swap1\n      dup4\n      0xffffffffffffffffffffffffffffffffffffffff\n      and\n      mul\n      or\n      swap1\n      sstore\n      pop\n        /* \"contracts/nft.sol\":8846:8853  tokenId */\n      dup1\n        /* \"contracts/nft.sol\":8842:8844  to */\n      dup3\n        /* \"contracts/nft.sol\":8827:8854  Transfer(from, to, tokenId) */\n      0xffffffffffffffffffffffffffffffffffffffff\n      and\n        /* \"contracts/nft.sol\":8836:8840  from */\n      dup5\n        /* \"contracts/nft.sol\":8827:8854  Transfer(from, to, tokenId) */\n      0xffffffffffffffffffffffffffffffffffffffff\n      and\n      0xddf252ad1be2c89b69c2b068fc378daa952ba7f163c4a11628f55a4df523b3ef\n      mload(0x40)\n      mload(0x40)\n      dup1\n      swap2\n      sub\n      swap1\n      log4\n        /* \"contracts/nft.sol\":8867:8905  _afterTokenTransfer(from, to, tokenId) */\n      tag_209\n        /* \"contracts/nft.sol\":8887:8891  from */\n      dup4\n        /* \"contracts/nft.sol\":8893:8895  to */\n      dup4\n        /* \"contracts/nft.sol\":8897:8904  tokenId */\n      dup4\n        /* \"contracts/nft.sol\":8867:8886  _afterTokenTransfer */\n      tag_210\n        /* \"contracts/nft.sol\":8867:8905  _afterTokenTransfer(from, to, tokenId) */\n      jump\t// in\n    tag_209:\n        /* \"contracts/nft.sol\":8156:8913  function _transfer(\r... */\n      pop\n      pop\n      pop\n      jump\t// out\n        /* \"contracts/nft.sol\":6043:6252  function _safeMint(address to,address[] memory collaborator,uint256[] memory collaboratorPercent,uint256 tokenId) internal virtual {\r... */\n    tag_134:\n        /* \"contracts/nft.sol\":6185:6244  _safeMint(to, collaborator,collaboratorPercent,tokenId, \"\") */\n      tag_212\n        /* \"contracts/nft.sol\":6195:6197  to */\n      dup5\n        /* \"contracts/nft.sol\":6199:6211  collaborator */\n      dup5\n        /* \"contracts/nft.sol\":6212:6231  collaboratorPercent */\n      dup5\n        /* \"contracts/nft.sol\":6232:6239  tokenId */\n      dup5\n        /* \"contracts/nft.sol\":6185:6244  _safeMint(to, collaborator,collaboratorPercent,tokenId, \"\") */\n      mload(0x40)\n      dup1\n      0x20\n      add\n      0x40\n      mstore\n      dup1\n      0x00\n      dup2\n      mstore\n      pop\n        /* \"contracts/nft.sol\":6185:6194  _safeMint */\n      tag_213\n        /* \"contracts/nft.sol\":6185:6244  _safeMint(to, collaborator,collaboratorPercent,tokenId, \"\") */\n      jump\t// in\n    tag_212:\n        /* \"contracts/nft.sol\":6043:6252  function _safeMint(address to,address[] memory collaborator,uint256[] memory collaboratorPercent,uint256 tokenId) internal virtual {\r... */\n      pop\n      pop\n      pop\n      pop\n      jump\t// out\n        /* \"contracts/nft.sol\":7926:8146  function _setTokenURI(uint256 tokenId, string memory _tokenURI) internal virtual {\r... */\n    tag_136:\n        /* \"contracts/nft.sol\":8129:8138  _tokenURI */\n      dup1\n        /* \"contracts/nft.sol\":8107:8117  _tokenURIs */\n      0x08\n        /* \"contracts/nft.sol\":8107:8126  _tokenURIs[tokenId] */\n      0x00\n        /* \"contracts/nft.sol\":8118:8125  tokenId */\n      dup5\n        /* \"contracts/nft.sol\":8107:8126  _tokenURIs[tokenId] */\n      dup2\n      mstore\n      0x20\n      add\n      swap1\n      dup2\n      mstore\n      0x20\n      add\n      0x00\n      keccak256\n        /* \"contracts/nft.sol\":8107:8138  _tokenURIs[tokenId] = _tokenURI */\n      swap1\n      dup1\n      mload\n      swap1\n      0x20\n      add\n      swap1\n      tag_215\n      swap3\n      swap2\n      swap1\n      tag_216\n      jump\t// in\n    tag_215:\n      pop\n        /* \"contracts/nft.sol\":7926:8146  function _setTokenURI(uint256 tokenId, string memory _tokenURI) internal virtual {\r... */\n      pop\n      pop\n      jump\t// out\n        /* \"contracts/nft.sol\":9102:9417  function _setApprovalForAll(\r... */\n    tag_159:\n        /* \"contracts/nft.sol\":9257:9265  operator */\n      dup2\n        /* \"contracts/nft.sol\":9248:9265  owner != operator */\n      0xffffffffffffffffffffffffffffffffffffffff\n      and\n        /* \"contracts/nft.sol\":9248:9253  owner */\n      dup4\n        /* \"contracts/nft.sol\":9248:9265  owner != operator */\n      0xffffffffffffffffffffffffffffffffffffffff\n      and\n      eq\n      iszero\n        /* \"contracts/nft.sol\":9240:9295  require(owner != operator, \"ERC721: approve to caller\") */\n      tag_218\n      jumpi\n      mload(0x40)\n      0x08c379a000000000000000000000000000000000000000000000000000000000\n      dup2\n      mstore\n      0x04\n      add\n      tag_219\n      swap1\n      tag_220\n      jump\t// in\n    tag_219:\n      mload(0x40)\n      dup1\n      swap2\n      sub\n      swap1\n      revert\n    tag_218:\n        /* \"contracts/nft.sol\":9344:9352  approved */\n      dup1\n        /* \"contracts/nft.sol\":9306:9324  _operatorApprovals */\n      0x07\n        /* \"contracts/nft.sol\":9306:9331  _operatorApprovals[owner] */\n      0x00\n        /* \"contracts/nft.sol\":9325:9330  owner */\n      dup6\n        /* \"contracts/nft.sol\":9306:9331  _operatorApprovals[owner] */\n      0xffffffffffffffffffffffffffffffffffffffff\n      and\n      0xffffffffffffffffffffffffffffffffffffffff\n      and\n      dup2\n      mstore\n      0x20\n      add\n      swap1\n      dup2\n      mstore\n      0x20\n      add\n      0x00\n      keccak256\n        /* \"contracts/nft.sol\":9306:9341  _operatorApprovals[owner][operator] */\n      0x00\n        /* \"contracts/nft.sol\":9332:9340  operator */\n      dup5\n        /* \"contracts/nft.sol\":9306:9341  _operatorApprovals[owner][operator] */\n      0xffffffffffffffffffffffffffffffffffffffff\n      and\n      0xffffffffffffffffffffffffffffffffffffffff\n      and\n      dup2\n      mstore\n      0x20\n      add\n      swap1\n      dup2\n      mstore\n      0x20\n      add\n      0x00\n      keccak256\n      0x00\n        /* \"contracts/nft.sol\":9306:9352  _operatorApprovals[owner][operator] = approved */\n      0x0100\n      exp\n      dup2\n      sload\n      dup2\n      0xff\n      mul\n      not\n      and\n      swap1\n      dup4\n      iszero\n      iszero\n      mul\n      or\n      swap1\n      sstore\n      pop\n        /* \"contracts/nft.sol\":9390:9398  operator */\n      dup2\n        /* \"contracts/nft.sol\":9368:9409  ApprovalForAll(owner, operator, approved) */\n      0xffffffffffffffffffffffffffffffffffffffff\n      and\n        /* \"contracts/nft.sol\":9383:9388  owner */\n      dup4\n        /* \"contracts/nft.sol\":9368:9409  ApprovalForAll(owner, operator, approved) */\n      0xffffffffffffffffffffffffffffffffffffffff\n      and\n      0x17307eab39ab6107e8899845ad3d59bd9653f200f220920489ca2b5937696c31\n        /* \"contracts/nft.sol\":9400:9408  approved */\n      dup4\n        /* \"contracts/nft.sol\":9368:9409  ApprovalForAll(owner, operator, approved) */\n      mload(0x40)\n      tag_221\n      swap2\n      swap1\n      tag_27\n      jump\t// in\n    tag_221:\n      mload(0x40)\n      dup1\n      swap2\n      sub\n      swap1\n      log3\n        /* \"contracts/nft.sol\":9102:9417  function _setApprovalForAll(\r... */\n      pop\n      pop\n      pop\n      jump\t// out\n        /* \"contracts/nft.sol\":5316:5629  function _safeTransfer(\r... */\n    tag_166:\n        /* \"contracts/nft.sol\":5472:5500  _transfer(from, to, tokenId) */\n      tag_223\n        /* \"contracts/nft.sol\":5482:5486  from */\n      dup5\n        /* \"contracts/nft.sol\":5488:5490  to */\n      dup5\n        /* \"contracts/nft.sol\":5492:5499  tokenId */\n      dup5\n        /* \"contracts/nft.sol\":5472:5481  _transfer */\n      tag_131\n        /* \"contracts/nft.sol\":5472:5500  _transfer(from, to, tokenId) */\n      jump\t// in\n    tag_223:\n        /* \"contracts/nft.sol\":5519:5566  _checkOnERC721Received(from, to, tokenId, data) */\n      tag_224\n        /* \"contracts/nft.sol\":5542:5546  from */\n      dup5\n        /* \"contracts/nft.sol\":5548:5550  to */\n      dup5\n        /* \"contracts/nft.sol\":5552:5559  tokenId */\n      dup5\n        /* \"contracts/nft.sol\":5561:5565  data */\n      dup5\n        /* \"contracts/nft.sol\":5519:5541  _checkOnERC721Received */\n      tag_225\n        /* \"contracts/nft.sol\":5519:5566  _checkOnERC721Received(from, to, tokenId, data) */\n      jump\t// in\n    tag_224:\n        /* \"contracts/nft.sol\":5511:5621  require(_checkOnERC721Received(from, to, tokenId, data), \"ERC721: transfer to non ERC721Receiver implementer\") */\n      tag_226\n      jumpi\n      mload(0x40)\n      0x08c379a000000000000000000000000000000000000000000000000000000000\n      dup2\n      mstore\n      0x04\n      add\n      tag_227\n      swap1\n      tag_228\n      jump\t// in\n    tag_227:\n      mload(0x40)\n      dup1\n      swap2\n      sub\n      swap1\n      revert\n    tag_226:\n        /* \"contracts/nft.sol\":5316:5629  function _safeTransfer(\r... */\n      pop\n      pop\n      pop\n      pop\n      jump\t// out\n        /* \"contracts/nft.sol\":3201:3295  function _baseURI() internal view virtual returns (string memory) {\r... */\n    tag_170:\n        /* \"contracts/nft.sol\":3252:3265  string memory */\n      0x60\n        /* \"contracts/nft.sol\":3278:3287  return \"\" */\n      mload(0x40)\n      dup1\n      0x20\n      add\n      0x40\n      mstore\n      dup1\n      0x00\n      dup2\n      mstore\n      pop\n      swap1\n      pop\n        /* \"contracts/nft.sol\":3201:3295  function _baseURI() internal view virtual returns (string memory) {\r... */\n      swap1\n      jump\t// out\n        /* \"@openzeppelin/contracts@4.6.0/utils/Strings.sol\":328:1031  function toString(uint256 value) internal pure returns (string memory) {... */\n    tag_174:\n        /* \"@openzeppelin/contracts@4.6.0/utils/Strings.sol\":384:397  string memory */\n      0x60\n        /* \"@openzeppelin/contracts@4.6.0/utils/Strings.sol\":610:611  0 */\n      0x00\n        /* \"@openzeppelin/contracts@4.6.0/utils/Strings.sol\":601:606  value */\n      dup3\n        /* \"@openzeppelin/contracts@4.6.0/utils/Strings.sol\":601:611  value == 0 */\n      eq\n        /* \"@openzeppelin/contracts@4.6.0/utils/Strings.sol\":597:648  if (value == 0) {... */\n      iszero\n      tag_231\n      jumpi\n        /* \"@openzeppelin/contracts@4.6.0/utils/Strings.sol\":627:637  return \"0\" */\n      mload(0x40)\n      dup1\n      0x40\n      add\n      0x40\n      mstore\n      dup1\n      0x01\n      dup2\n      mstore\n      0x20\n      add\n      0x3000000000000000000000000000000000000000000000000000000000000000\n      dup2\n      mstore\n      pop\n      swap1\n      pop\n      jump(tag_230)\n        /* \"@openzeppelin/contracts@4.6.0/utils/Strings.sol\":597:648  if (value == 0) {... */\n    tag_231:\n        /* \"@openzeppelin/contracts@4.6.0/utils/Strings.sol\":657:669  uint256 temp */\n      0x00\n        /* \"@openzeppelin/contracts@4.6.0/utils/Strings.sol\":672:677  value */\n      dup3\n        /* \"@openzeppelin/contracts@4.6.0/utils/Strings.sol\":657:677  uint256 temp = value */\n      swap1\n      pop\n        /* \"@openzeppelin/contracts@4.6.0/utils/Strings.sol\":687:701  uint256 digits */\n      0x00\n        /* \"@openzeppelin/contracts@4.6.0/utils/Strings.sol\":711:786  while (temp != 0) {... */\n    tag_232:\n        /* \"@openzeppelin/contracts@4.6.0/utils/Strings.sol\":726:727  0 */\n      0x00\n        /* \"@openzeppelin/contracts@4.6.0/utils/Strings.sol\":718:722  temp */\n      dup3\n        /* \"@openzeppelin/contracts@4.6.0/utils/Strings.sol\":718:727  temp != 0 */\n      eq\n        /* \"@openzeppelin/contracts@4.6.0/utils/Strings.sol\":711:786  while (temp != 0) {... */\n      tag_233\n      jumpi\n        /* \"@openzeppelin/contracts@4.6.0/utils/Strings.sol\":743:751  digits++ */\n      dup1\n      dup1\n      tag_234\n      swap1\n      tag_235\n      jump\t// in\n    tag_234:\n      swap2\n      pop\n      pop\n        /* \"@openzeppelin/contracts@4.6.0/utils/Strings.sol\":773:775  10 */\n      0x0a\n        /* \"@openzeppelin/contracts@4.6.0/utils/Strings.sol\":765:775  temp /= 10 */\n      dup3\n      tag_236\n      swap2\n      swap1\n      tag_237\n      jump\t// in\n    tag_236:\n      swap2\n      pop\n        /* \"@openzeppelin/contracts@4.6.0/utils/Strings.sol\":711:786  while (temp != 0) {... */\n      jump(tag_232)\n    tag_233:\n        /* \"@openzeppelin/contracts@4.6.0/utils/Strings.sol\":795:814  bytes memory buffer */\n      0x00\n        /* \"@openzeppelin/contracts@4.6.0/utils/Strings.sol\":827:833  digits */\n      dup2\n        /* \"@openzeppelin/contracts@4.6.0/utils/Strings.sol\":817:834  new bytes(digits) */\n      0xffffffffffffffff\n      dup2\n      gt\n      iszero\n      tag_238\n      jumpi\n      mstore(0x00, 0x4e487b7100000000000000000000000000000000000000000000000000000000)\n      mstore(0x04, 0x41)\n      revert(0x00, 0x24)\n    tag_238:\n      mload(0x40)\n      swap1\n      dup1\n      dup3\n      mstore\n      dup1\n      0x1f\n      add\n      not(0x1f)\n      and\n      0x20\n      add\n      dup3\n      add\n      0x40\n      mstore\n      dup1\n      iszero\n      tag_239\n      jumpi\n      dup2\n      0x20\n      add\n      0x01\n      dup3\n      mul\n      dup1\n      calldatasize\n      dup4\n      calldatacopy\n      dup1\n      dup3\n      add\n      swap2\n      pop\n      pop\n      swap1\n      pop\n    tag_239:\n      pop\n        /* \"@openzeppelin/contracts@4.6.0/utils/Strings.sol\":795:834  bytes memory buffer = new bytes(digits) */\n      swap1\n      pop\n        /* \"@openzeppelin/contracts@4.6.0/utils/Strings.sol\":844:994  while (value != 0) {... */\n    tag_240:\n        /* \"@openzeppelin/contracts@4.6.0/utils/Strings.sol\":860:861  0 */\n      0x00\n        /* \"@openzeppelin/contracts@4.6.0/utils/Strings.sol\":851:856  value */\n      dup6\n        /* \"@openzeppelin/contracts@4.6.0/utils/Strings.sol\":851:861  value != 0 */\n      eq\n        /* \"@openzeppelin/contracts@4.6.0/utils/Strings.sol\":844:994  while (value != 0) {... */\n      tag_241\n      jumpi\n        /* \"@openzeppelin/contracts@4.6.0/utils/Strings.sol\":887:888  1 */\n      0x01\n        /* \"@openzeppelin/contracts@4.6.0/utils/Strings.sol\":877:888  digits -= 1 */\n      dup3\n      tag_242\n      swap2\n      swap1\n      tag_243\n      jump\t// in\n    tag_242:\n      swap2\n      pop\n        /* \"@openzeppelin/contracts@4.6.0/utils/Strings.sol\":953:955  10 */\n      0x0a\n        /* \"@openzeppelin/contracts@4.6.0/utils/Strings.sol\":945:950  value */\n      dup6\n        /* \"@openzeppelin/contracts@4.6.0/utils/Strings.sol\":945:955  value % 10 */\n      tag_244\n      swap2\n      swap1\n      tag_245\n      jump\t// in\n    tag_244:\n        /* \"@openzeppelin/contracts@4.6.0/utils/Strings.sol\":932:934  48 */\n      0x30\n        /* \"@openzeppelin/contracts@4.6.0/utils/Strings.sol\":932:956  48 + uint256(value % 10) */\n      tag_246\n      swap2\n      swap1\n      tag_247\n      jump\t// in\n    tag_246:\n        /* \"@openzeppelin/contracts@4.6.0/utils/Strings.sol\":919:958  bytes1(uint8(48 + uint256(value % 10))) */\n      0xf8\n      shl\n        /* \"@openzeppelin/contracts@4.6.0/utils/Strings.sol\":902:908  buffer */\n      dup2\n        /* \"@openzeppelin/contracts@4.6.0/utils/Strings.sol\":909:915  digits */\n      dup4\n        /* \"@openzeppelin/contracts@4.6.0/utils/Strings.sol\":902:916  buffer[digits] */\n      dup2\n      mload\n      dup2\n      lt\n      tag_248\n      jumpi\n      mstore(0x00, 0x4e487b7100000000000000000000000000000000000000000000000000000000)\n      mstore(0x04, 0x32)\n      revert(0x00, 0x24)\n    tag_248:\n      0x20\n      add\n      add\n        /* \"@openzeppelin/contracts@4.6.0/utils/Strings.sol\":902:958  buffer[digits] = bytes1(uint8(48 + uint256(value % 10))) */\n      swap1\n      not(0xffffffffffffffffffffffffffffffffffffffffffffffffffffffffffffff)\n      and\n      swap1\n      dup2\n      0x00\n      byte\n      swap1\n      mstore8\n      pop\n        /* \"@openzeppelin/contracts@4.6.0/utils/Strings.sol\":981:983  10 */\n      0x0a\n        /* \"@openzeppelin/contracts@4.6.0/utils/Strings.sol\":972:983  value /= 10 */\n      dup6\n      tag_249\n      swap2\n      swap1\n      tag_237\n      jump\t// in\n    tag_249:\n      swap5\n      pop\n        /* \"@openzeppelin/contracts@4.6.0/utils/Strings.sol\":844:994  while (value != 0) {... */\n      jump(tag_240)\n    tag_241:\n        /* \"@openzeppelin/contracts@4.6.0/utils/Strings.sol\":1017:1023  buffer */\n      dup1\n        /* \"@openzeppelin/contracts@4.6.0/utils/Strings.sol\":1003:1024  return string(buffer) */\n      swap4\n      pop\n      pop\n      pop\n      pop\n        /* \"@openzeppelin/contracts@4.6.0/utils/Strings.sol\":328:1031  function toString(uint256 value) internal pure returns (string memory) {... */\n    tag_230:\n      swap2\n      swap1\n      pop\n      jump\t// out\n        /* \"contracts/nft.sol\":5637:5764  function _exists(uint256 tokenId) internal view virtual returns (bool) {\r... */\n    tag_184:\n        /* \"contracts/nft.sol\":5702:5706  bool */\n      0x00\n        /* \"contracts/nft.sol\":5754:5755  0 */\n      dup1\n        /* \"contracts/nft.sol\":5726:5756  _owners[tokenId] != address(0) */\n      0xffffffffffffffffffffffffffffffffffffffff\n      and\n        /* \"contracts/nft.sol\":5726:5733  _owners */\n      0x02\n        /* \"contracts/nft.sol\":5726:5742  _owners[tokenId] */\n      0x00\n        /* \"contracts/nft.sol\":5734:5741  tokenId */\n      dup5\n        /* \"contracts/nft.sol\":5726:5742  _owners[tokenId] */\n      dup2\n      mstore\n      0x20\n      add\n      swap1\n      dup2\n      mstore\n      0x20\n      add\n      0x00\n      keccak256\n      0x00\n      swap1\n      sload\n      swap1\n      0x0100\n      exp\n      swap1\n      div\n      0xffffffffffffffffffffffffffffffffffffffff\n      and\n        /* \"contracts/nft.sol\":5726:5756  _owners[tokenId] != address(0) */\n      0xffffffffffffffffffffffffffffffffffffffff\n      and\n      eq\n      iszero\n        /* \"contracts/nft.sol\":5719:5756  return _owners[tokenId] != address(0) */\n      swap1\n      pop\n        /* \"contracts/nft.sol\":5637:5764  function _exists(uint256 tokenId) internal view virtual returns (bool) {\r... */\n      swap2\n      swap1\n      pop\n      jump\t// out\n        /* \"contracts/nft.sol\":10433:10559  function _beforeTokenTransfer(\r... */\n    tag_205:\n      pop\n      pop\n      pop\n      jump\t// out\n        /* \"contracts/nft.sol\":10567:10692  function _afterTokenTransfer(\r... */\n    tag_210:\n      pop\n      pop\n      pop\n      jump\t// out\n        /* \"contracts/nft.sol\":6260:6701  function _safeMint(\r... */\n    tag_213:\n        /* \"contracts/nft.sol\":6477:6529  _mint(to, collaborator,collaboratorPercent, tokenId) */\n      tag_254\n        /* \"contracts/nft.sol\":6483:6485  to */\n      dup6\n        /* \"contracts/nft.sol\":6487:6499  collaborator */\n      dup6\n        /* \"contracts/nft.sol\":6500:6519  collaboratorPercent */\n      dup6\n        /* \"contracts/nft.sol\":6521:6528  tokenId */\n      dup6\n        /* \"contracts/nft.sol\":6477:6482  _mint */\n      tag_255\n        /* \"contracts/nft.sol\":6477:6529  _mint(to, collaborator,collaboratorPercent, tokenId) */\n      jump\t// in\n    tag_254:\n        /* \"contracts/nft.sol\":6562:6615  _checkOnERC721Received(address(0), to, tokenId, data) */\n      tag_256\n        /* \"contracts/nft.sol\":6593:6594  0 */\n      0x00\n        /* \"contracts/nft.sol\":6597:6599  to */\n      dup7\n        /* \"contracts/nft.sol\":6601:6608  tokenId */\n      dup5\n        /* \"contracts/nft.sol\":6610:6614  data */\n      dup5\n        /* \"contracts/nft.sol\":6562:6584  _checkOnERC721Received */\n      tag_225\n        /* \"contracts/nft.sol\":6562:6615  _checkOnERC721Received(address(0), to, tokenId, data) */\n      jump\t// in\n    tag_256:\n        /* \"contracts/nft.sol\":6540:6693  require(\r... */\n      tag_257\n      jumpi\n      mload(0x40)\n      0x08c379a000000000000000000000000000000000000000000000000000000000\n      dup2\n      mstore\n      0x04\n      add\n      tag_258\n      swap1\n      tag_228\n      jump\t// in\n    tag_258:\n      mload(0x40)\n      dup1\n      swap2\n      sub\n      swap1\n      revert\n    tag_257:\n        /* \"contracts/nft.sol\":6260:6701  function _safeMint(\r... */\n      pop\n      pop\n      pop\n      pop\n      pop\n      jump\t// out\n        /* \"contracts/nft.sol\":9570:10423  function _checkOnERC721Received(\r... */\n    tag_225:\n        /* \"contracts/nft.sol\":9724:9728  bool */\n      0x00\n        /* \"contracts/nft.sol\":9745:9760  to.isContract() */\n      tag_260\n        /* \"contracts/nft.sol\":9745:9747  to */\n      dup5\n        /* \"contracts/nft.sol\":9745:9758  to.isContract */\n      0xffffffffffffffffffffffffffffffffffffffff\n      and\n      tag_261\n        /* \"contracts/nft.sol\":9745:9760  to.isContract() */\n      jump\t// in\n    tag_260:\n        /* \"contracts/nft.sol\":9741:10416  if (to.isContract()) {\r... */\n      iszero\n      tag_262\n      jumpi\n        /* \"contracts/nft.sol\":9797:9799  to */\n      dup4\n        /* \"contracts/nft.sol\":9781:9817  IERC721Receiver(to).onERC721Received */\n      0xffffffffffffffffffffffffffffffffffffffff\n      and\n      0x150b7a02\n        /* \"contracts/nft.sol\":9818:9830  _msgSender() */\n      tag_263\n        /* \"contracts/nft.sol\":9818:9828  _msgSender */\n      tag_114\n        /* \"contracts/nft.sol\":9818:9830  _msgSender() */\n      jump\t// in\n    tag_263:\n        /* \"contracts/nft.sol\":9832:9836  from */\n      dup8\n        /* \"contracts/nft.sol\":9838:9845  tokenId */\n      dup7\n        /* \"contracts/nft.sol\":9847:9851  data */\n      dup7\n        /* \"contracts/nft.sol\":9781:9852  IERC721Receiver(to).onERC721Received(_msgSender(), from, tokenId, data) */\n      mload(0x40)\n      dup6\n      0xffffffff\n      and\n      0xe0\n      shl\n      dup2\n      mstore\n      0x04\n      add\n      tag_264\n      swap5\n      swap4\n      swap3\n      swap2\n      swap1\n      tag_265\n      jump\t// in\n    tag_264:\n      0x20\n      mload(0x40)\n      dup1\n      dup4\n      sub\n      dup2\n      0x00\n      dup8\n      dup1\n      extcodesize\n      iszero\n      dup1\n      iszero\n      tag_266\n      jumpi\n      0x00\n      dup1\n      revert\n    tag_266:\n      pop\n      gas\n      call\n      swap3\n      pop\n      pop\n      pop\n      dup1\n      iszero\n      tag_267\n      jumpi\n      pop\n      mload(0x40)\n      returndatasize\n      not(0x1f)\n      0x1f\n      dup3\n      add\n      and\n      dup3\n      add\n      dup1\n      0x40\n      mstore\n      pop\n      dup2\n      add\n      swap1\n      tag_268\n      swap2\n      swap1\n      tag_269\n      jump\t// in\n    tag_268:\n      0x01\n    tag_267:\n        /* \"contracts/nft.sol\":9777:10361  try IERC721Receiver(to).onERC721Received(_msgSender(), from, tokenId, data) returns (bytes4 retval) {\r... */\n      tag_270\n      jumpi\n      returndatasize\n      dup1\n      0x00\n      dup2\n      eq\n      tag_275\n      jumpi\n      mload(0x40)\n      swap2\n      pop\n      and(add(returndatasize, 0x3f), not(0x1f))\n      dup3\n      add\n      0x40\n      mstore\n      returndatasize\n      dup3\n      mstore\n      returndatasize\n      0x00\n      0x20\n      dup5\n      add\n      returndatacopy\n      jump(tag_274)\n    tag_275:\n      0x60\n      swap2\n      pop\n    tag_274:\n      pop\n        /* \"contracts/nft.sol\":10039:10040  0 */\n      0x00\n        /* \"contracts/nft.sol\":10022:10028  reason */\n      dup2\n        /* \"contracts/nft.sol\":10022:10035  reason.length */\n      mload\n        /* \"contracts/nft.sol\":10022:10040  reason.length == 0 */\n      eq\n        /* \"contracts/nft.sol\":10018:10346  if (reason.length == 0) {\r... */\n      iszero\n      tag_276\n      jumpi\n        /* \"contracts/nft.sol\":10065:10125  revert(\"ERC721: transfer to non ERC721Receiver implementer\") */\n      mload(0x40)\n      0x08c379a000000000000000000000000000000000000000000000000000000000\n      dup2\n      mstore\n      0x04\n      add\n      tag_277\n      swap1\n      tag_228\n      jump\t// in\n    tag_277:\n      mload(0x40)\n      dup1\n      swap2\n      sub\n      swap1\n      revert\n        /* \"contracts/nft.sol\":10018:10346  if (reason.length == 0) {\r... */\n    tag_276:\n        /* \"contracts/nft.sol\":10296:10302  reason */\n      dup1\n        /* \"contracts/nft.sol\":10290:10303  mload(reason) */\n      mload\n        /* \"contracts/nft.sol\":10281:10287  reason */\n      dup2\n        /* \"contracts/nft.sol\":10277:10279  32 */\n      0x20\n        /* \"contracts/nft.sol\":10273:10288  add(32, reason) */\n      add\n        /* \"contracts/nft.sol\":10266:10304  revert(add(32, reason), mload(reason)) */\n      revert\n        /* \"contracts/nft.sol\":9777:10361  try IERC721Receiver(to).onERC721Received(_msgSender(), from, tokenId, data) returns (bytes4 retval) {\r... */\n    tag_270:\n        /* \"contracts/nft.sol\":9913:9954  IERC721Receiver.onERC721Received.selector */\n      shl(0xe0, 0x150b7a02)\n        /* \"contracts/nft.sol\":9903:9954  retval == IERC721Receiver.onERC721Received.selector */\n      not(0xffffffffffffffffffffffffffffffffffffffffffffffffffffffff)\n      and\n        /* \"contracts/nft.sol\":9903:9909  retval */\n      dup2\n        /* \"contracts/nft.sol\":9903:9954  retval == IERC721Receiver.onERC721Received.selector */\n      not(0xffffffffffffffffffffffffffffffffffffffffffffffffffffffff)\n      and\n      eq\n        /* \"contracts/nft.sol\":9896:9954  return retval == IERC721Receiver.onERC721Received.selector */\n      swap2\n      pop\n      pop\n      jump(tag_259)\n        /* \"contracts/nft.sol\":9741:10416  if (to.isContract()) {\r... */\n    tag_262:\n        /* \"contracts/nft.sol\":10400:10404  true */\n      0x01\n        /* \"contracts/nft.sol\":10393:10404  return true */\n      swap1\n      pop\n        /* \"contracts/nft.sol\":9570:10423  function _checkOnERC721Received(\r... */\n    tag_259:\n      swap5\n      swap4\n      pop\n      pop\n      pop\n      pop\n      jump\t// out\n        /* \"contracts/nft.sol\":6709:7437  function _mint(address to,address[] memory collaborator,uint256[] memory collaboratorPercent,uint256 tokenId) internal virtual {\r... */\n    tag_255:\n        /* \"contracts/nft.sol\":6869:6870  0 */\n      0x00\n        /* \"contracts/nft.sol\":6855:6871  to != address(0) */\n      0xffffffffffffffffffffffffffffffffffffffff\n      and\n        /* \"contracts/nft.sol\":6855:6857  to */\n      dup5\n        /* \"contracts/nft.sol\":6855:6871  to != address(0) */\n      0xffffffffffffffffffffffffffffffffffffffff\n      and\n      eq\n      iszero\n        /* \"contracts/nft.sol\":6847:6908  require(to != address(0), \"ERC721: mint to the zero address\") */\n      tag_282\n      jumpi\n      mload(0x40)\n      0x08c379a000000000000000000000000000000000000000000000000000000000\n      dup2\n      mstore\n      0x04\n      add\n      tag_283\n      swap1\n      tag_284\n      jump\t// in\n    tag_283:\n      mload(0x40)\n      dup1\n      swap2\n      sub\n      swap1\n      revert\n    tag_282:\n        /* \"contracts/nft.sol\":6928:6944  _exists(tokenId) */\n      tag_285\n        /* \"contracts/nft.sol\":6936:6943  tokenId */\n      dup2\n        /* \"contracts/nft.sol\":6928:6935  _exists */\n      tag_184\n        /* \"contracts/nft.sol\":6928:6944  _exists(tokenId) */\n      jump\t// in\n    tag_285:\n        /* \"contracts/nft.sol\":6927:6944  !_exists(tokenId) */\n      iszero\n        /* \"contracts/nft.sol\":6919:6977  require(!_exists(tokenId), \"ERC721: token already minted\") */\n      tag_286\n      jumpi\n      mload(0x40)\n      0x08c379a000000000000000000000000000000000000000000000000000000000\n      dup2\n      mstore\n      0x04\n      add\n      tag_287\n      swap1\n      tag_288\n      jump\t// in\n    tag_287:\n      mload(0x40)\n      dup1\n      swap2\n      sub\n      swap1\n      revert\n    tag_286:\n        /* \"contracts/nft.sol\":6990:7035  _beforeTokenTransfer(address(0), to, tokenId) */\n      tag_289\n        /* \"contracts/nft.sol\":7019:7020  0 */\n      0x00\n        /* \"contracts/nft.sol\":7023:7025  to */\n      dup6\n        /* \"contracts/nft.sol\":7027:7034  tokenId */\n      dup4\n        /* \"contracts/nft.sol\":6990:7010  _beforeTokenTransfer */\n      tag_205\n        /* \"contracts/nft.sol\":6990:7035  _beforeTokenTransfer(address(0), to, tokenId) */\n      jump\t// in\n    tag_289:\n        /* \"contracts/nft.sol\":7057:7073  _exists(tokenId) */\n      tag_290\n        /* \"contracts/nft.sol\":7065:7072  tokenId */\n      dup2\n        /* \"contracts/nft.sol\":7057:7064  _exists */\n      tag_184\n        /* \"contracts/nft.sol\":7057:7073  _exists(tokenId) */\n      jump\t// in\n    tag_290:\n        /* \"contracts/nft.sol\":7056:7073  !_exists(tokenId) */\n      iszero\n        /* \"contracts/nft.sol\":7048:7106  require(!_exists(tokenId), \"ERC721: token already minted\") */\n      tag_291\n      jumpi\n      mload(0x40)\n      0x08c379a000000000000000000000000000000000000000000000000000000000\n      dup2\n      mstore\n      0x04\n      add\n      tag_292\n      swap1\n      tag_288\n      jump\t// in\n    tag_292:\n      mload(0x40)\n      dup1\n      swap2\n      sub\n      swap1\n      revert\n    tag_291:\n        /* \"contracts/nft.sol\":7161:7162  1 */\n      0x01\n        /* \"contracts/nft.sol\":7144:7153  _balances */\n      0x05\n        /* \"contracts/nft.sol\":7144:7157  _balances[to] */\n      0x00\n        /* \"contracts/nft.sol\":7154:7156  to */\n      dup7\n        /* \"contracts/nft.sol\":7144:7157  _balances[to] */\n      0xffffffffffffffffffffffffffffffffffffffff\n      and\n      0xffffffffffffffffffffffffffffffffffffffff\n      and\n      dup2\n      mstore\n      0x20\n      add\n      swap1\n      dup2\n      mstore\n      0x20\n      add\n      0x00\n      keccak256\n      0x00\n        /* \"contracts/nft.sol\":7144:7162  _balances[to] += 1 */\n      dup3\n      dup3\n      sload\n      add\n      swap3\n      pop\n      pop\n      dup2\n      swap1\n      sstore\n      pop\n        /* \"contracts/nft.sol\":7205:7207  to */\n      dup4\n        /* \"contracts/nft.sol\":7186:7193  _owners */\n      0x02\n        /* \"contracts/nft.sol\":7186:7202  _owners[tokenId] */\n      0x00\n        /* \"contracts/nft.sol\":7194:7201  tokenId */\n      dup4\n        /* \"contracts/nft.sol\":7186:7202  _owners[tokenId] */\n      dup2\n      mstore\n      0x20\n      add\n      swap1\n      dup2\n      mstore\n      0x20\n      add\n      0x00\n      keccak256\n      0x00\n        /* \"contracts/nft.sol\":7186:7207  _owners[tokenId] = to */\n      0x0100\n      exp\n      dup2\n      sload\n      dup2\n      0xffffffffffffffffffffffffffffffffffffffff\n      mul\n      not\n      and\n      swap1\n      dup4\n      0xffffffffffffffffffffffffffffffffffffffff\n      and\n      mul\n      or\n      swap1\n      sstore\n      pop\n        /* \"contracts/nft.sol\":7244:7256  collaborator */\n      dup3\n        /* \"contracts/nft.sol\":7218:7232  _collaborators */\n      0x03\n        /* \"contracts/nft.sol\":7218:7241  _collaborators[tokenId] */\n      0x00\n        /* \"contracts/nft.sol\":7233:7240  tokenId */\n      dup4\n        /* \"contracts/nft.sol\":7218:7241  _collaborators[tokenId] */\n      dup2\n      mstore\n      0x20\n      add\n      swap1\n      dup2\n      mstore\n      0x20\n      add\n      0x00\n      keccak256\n        /* \"contracts/nft.sol\":7218:7256  _collaborators[tokenId] = collaborator */\n      swap1\n      dup1\n      mload\n      swap1\n      0x20\n      add\n      swap1\n      tag_293\n      swap3\n      swap2\n      swap1\n      tag_294\n      jump\t// in\n    tag_293:\n      pop\n        /* \"contracts/nft.sol\":7302:7321  collaboratorPercent */\n      dup2\n        /* \"contracts/nft.sol\":7266:7290  _collaboratorsPercentage */\n      0x04\n        /* \"contracts/nft.sol\":7266:7299  _collaboratorsPercentage[tokenId] */\n      0x00\n        /* \"contracts/nft.sol\":7291:7298  tokenId */\n      dup4\n        /* \"contracts/nft.sol\":7266:7299  _collaboratorsPercentage[tokenId] */\n      dup2\n      mstore\n      0x20\n      add\n      swap1\n      dup2\n      mstore\n      0x20\n      add\n      0x00\n      keccak256\n        /* \"contracts/nft.sol\":7266:7321  _collaboratorsPercentage[tokenId] = collaboratorPercent */\n      swap1\n      dup1\n      mload\n      swap1\n      0x20\n      add\n      swap1\n      tag_295\n      swap3\n      swap2\n      swap1\n      tag_296\n      jump\t// in\n    tag_295:\n      pop\n        /* \"contracts/nft.sol\":7364:7371  tokenId */\n      dup1\n        /* \"contracts/nft.sol\":7360:7362  to */\n      dup5\n        /* \"contracts/nft.sol\":7339:7372  Transfer(address(0), to, tokenId) */\n      0xffffffffffffffffffffffffffffffffffffffff\n      and\n        /* \"contracts/nft.sol\":7356:7357  0 */\n      0x00\n        /* \"contracts/nft.sol\":7339:7372  Transfer(address(0), to, tokenId) */\n      0xffffffffffffffffffffffffffffffffffffffff\n      and\n      0xddf252ad1be2c89b69c2b068fc378daa952ba7f163c4a11628f55a4df523b3ef\n      mload(0x40)\n      mload(0x40)\n      dup1\n      swap2\n      sub\n      swap1\n      log4\n        /* \"contracts/nft.sol\":7385:7429  _afterTokenTransfer(address(0), to, tokenId) */\n      tag_297\n        /* \"contracts/nft.sol\":7413:7414  0 */\n      0x00\n        /* \"contracts/nft.sol\":7417:7419  to */\n      dup6\n        /* \"contracts/nft.sol\":7421:7428  tokenId */\n      dup4\n        /* \"contracts/nft.sol\":7385:7404  _afterTokenTransfer */\n      tag_210\n        /* \"contracts/nft.sol\":7385:7429  _afterTokenTransfer(address(0), to, tokenId) */\n      jump\t// in\n    tag_297:\n        /* \"contracts/nft.sol\":6709:7437  function _mint(address to,address[] memory collaborator,uint256[] memory collaboratorPercent,uint256 tokenId) internal virtual {\r... */\n      pop\n      pop\n      pop\n      pop\n      jump\t// out\n        /* \"@openzeppelin/contracts@4.6.0/utils/Address.sol\":1175:1495  function isContract(address account) internal view returns (bool) {... */\n    tag_261:\n        /* \"@openzeppelin/contracts@4.6.0/utils/Address.sol\":1235:1239  bool */\n      0x00\n        /* \"@openzeppelin/contracts@4.6.0/utils/Address.sol\":1487:1488  0 */\n      dup1\n        /* \"@openzeppelin/contracts@4.6.0/utils/Address.sol\":1465:1472  account */\n      dup3\n        /* \"@openzeppelin/contracts@4.6.0/utils/Address.sol\":1465:1484  account.code.length */\n      0xffffffffffffffffffffffffffffffffffffffff\n      and\n      extcodesize\n        /* \"@openzeppelin/contracts@4.6.0/utils/Address.sol\":1465:1488  account.code.length > 0 */\n      gt\n        /* \"@openzeppelin/contracts@4.6.0/utils/Address.sol\":1458:1488  return account.code.length > 0 */\n      swap1\n      pop\n        /* \"@openzeppelin/contracts@4.6.0/utils/Address.sol\":1175:1495  function isContract(address account) internal view returns (bool) {... */\n      swap2\n      swap1\n      pop\n      jump\t// out\n    tag_216:\n      dup3\n      dup1\n      sload\n      tag_299\n      swap1\n      tag_100\n      jump\t// in\n    tag_299:\n      swap1\n      0x00\n      mstore\n      keccak256(0x00, 0x20)\n      swap1\n      0x1f\n      add\n      0x20\n      swap1\n      div\n      dup2\n      add\n      swap3\n      dup3\n      tag_301\n      jumpi\n      0x00\n      dup6\n      sstore\n      jump(tag_300)\n    tag_301:\n      dup3\n      0x1f\n      lt\n      tag_302\n      jumpi\n      dup1\n      mload\n      not(0xff)\n      and\n      dup4\n      dup1\n      add\n      or\n      dup6\n      sstore\n      jump(tag_300)\n    tag_302:\n      dup3\n      dup1\n      add\n      0x01\n      add\n      dup6\n      sstore\n      dup3\n      iszero\n      tag_300\n      jumpi\n      swap2\n      dup3\n      add\n    tag_303:\n      dup3\n      dup2\n      gt\n      iszero\n      tag_304\n      jumpi\n      dup3\n      mload\n      dup3\n      sstore\n      swap2\n      0x20\n      add\n      swap2\n      swap1\n      0x01\n      add\n      swap1\n      jump(tag_303)\n    tag_304:\n    tag_300:\n      pop\n      swap1\n      pop\n      tag_305\n      swap2\n      swap1\n      tag_306\n      jump\t// in\n    tag_305:\n      pop\n      swap1\n      jump\t// out\n    tag_294:\n      dup3\n      dup1\n      sload\n      dup3\n      dup3\n      sstore\n      swap1\n      0x00\n      mstore\n      keccak256(0x00, 0x20)\n      swap1\n      dup2\n      add\n      swap3\n      dup3\n      iszero\n      tag_307\n      jumpi\n      swap2\n      0x20\n      mul\n      dup3\n      add\n    tag_308:\n      dup3\n      dup2\n      gt\n      iszero\n      tag_309\n      jumpi\n      dup3\n      mload\n      dup3\n      exp(0x0100, 0x00)\n      dup2\n      sload\n      dup2\n      0xffffffffffffffffffffffffffffffffffffffff\n      mul\n      not\n      and\n      swap1\n      dup4\n      0xffffffffffffffffffffffffffffffffffffffff\n      and\n      mul\n      or\n      swap1\n      sstore\n      pop\n      swap2\n      0x20\n      add\n      swap2\n      swap1\n      0x01\n      add\n      swap1\n      jump(tag_308)\n    tag_309:\n    tag_307:\n      pop\n      swap1\n      pop\n      tag_310\n      swap2\n      swap1\n      tag_306\n      jump\t// in\n    tag_310:\n      pop\n      swap1\n      jump\t// out\n    tag_296:\n      dup3\n      dup1\n      sload\n      dup3\n      dup3\n      sstore\n      swap1\n      0x00\n      mstore\n      keccak256(0x00, 0x20)\n      swap1\n      dup2\n      add\n      swap3\n      dup3\n      iszero\n      tag_311\n      jumpi\n      swap2\n      0x20\n      mul\n      dup3\n      add\n    tag_312:\n      dup3\n      dup2\n      gt\n      iszero\n      tag_313\n      jumpi\n      dup3\n      mload\n      dup3\n      sstore\n      swap2\n      0x20\n      add\n      swap2\n      swap1\n      0x01\n      add\n      swap1\n      jump(tag_312)\n    tag_313:\n    tag_311:\n      pop\n      swap1\n      pop\n      tag_314\n      swap2\n      swap1\n      tag_306\n      jump\t// in\n    tag_314:\n      pop\n      swap1\n      jump\t// out\n    tag_306:\n    tag_315:\n      dup1\n      dup3\n      gt\n      iszero\n      tag_316\n      jumpi\n      0x00\n      dup2\n      0x00\n      swap1\n      sstore\n      pop\n      0x01\n      add\n      jump(tag_315)\n    tag_316:\n      pop\n      swap1\n      jump\t// out\n        /* \"#utility.yul\":24:679   */\n    tag_318:\n        /* \"#utility.yul\":120:125   */\n      0x00\n        /* \"#utility.yul\":145:226   */\n      tag_320\n        /* \"#utility.yul\":161:225   */\n      tag_321\n        /* \"#utility.yul\":218:224   */\n      dup5\n        /* \"#utility.yul\":161:225   */\n      tag_322\n      jump\t// in\n    tag_321:\n        /* \"#utility.yul\":145:226   */\n      tag_323\n      jump\t// in\n    tag_320:\n        /* \"#utility.yul\":136:226   */\n      swap1\n      pop\n        /* \"#utility.yul\":246:251   */\n      dup1\n        /* \"#utility.yul\":275:281   */\n      dup4\n        /* \"#utility.yul\":268:273   */\n      dup3\n        /* \"#utility.yul\":261:282   */\n      mstore\n        /* \"#utility.yul\":309:313   */\n      0x20\n        /* \"#utility.yul\":302:307   */\n      dup3\n        /* \"#utility.yul\":298:314   */\n      add\n        /* \"#utility.yul\":291:314   */\n      swap1\n      pop\n        /* \"#utility.yul\":335:341   */\n      dup3\n        /* \"#utility.yul\":385:388   */\n      dup6\n        /* \"#utility.yul\":377:381   */\n      0x20\n        /* \"#utility.yul\":369:375   */\n      dup7\n        /* \"#utility.yul\":365:382   */\n      mul\n        /* \"#utility.yul\":360:363   */\n      dup3\n        /* \"#utility.yul\":356:383   */\n      add\n        /* \"#utility.yul\":353:389   */\n      gt\n        /* \"#utility.yul\":350:352   */\n      iszero\n      tag_324\n      jumpi\n        /* \"#utility.yul\":414:415   */\n      0x00\n        /* \"#utility.yul\":411:412   */\n      dup1\n        /* \"#utility.yul\":404:416   */\n      revert\n        /* \"#utility.yul\":350:352   */\n    tag_324:\n        /* \"#utility.yul\":450:451   */\n      0x00\n        /* \"#utility.yul\":435:673   */\n    tag_325:\n        /* \"#utility.yul\":460:466   */\n      dup6\n        /* \"#utility.yul\":457:458   */\n      dup2\n        /* \"#utility.yul\":454:467   */\n      lt\n        /* \"#utility.yul\":435:673   */\n      iszero\n      tag_327\n      jumpi\n        /* \"#utility.yul\":528:531   */\n      dup2\n        /* \"#utility.yul\":557:594   */\n      tag_328\n        /* \"#utility.yul\":590:593   */\n      dup9\n        /* \"#utility.yul\":578:588   */\n      dup3\n        /* \"#utility.yul\":557:594   */\n      tag_329\n      jump\t// in\n    tag_328:\n        /* \"#utility.yul\":552:555   */\n      dup5\n        /* \"#utility.yul\":545:595   */\n      mstore\n        /* \"#utility.yul\":624:628   */\n      0x20\n        /* \"#utility.yul\":619:622   */\n      dup5\n        /* \"#utility.yul\":615:629   */\n      add\n        /* \"#utility.yul\":608:629   */\n      swap4\n      pop\n        /* \"#utility.yul\":658:662   */\n      0x20\n        /* \"#utility.yul\":653:656   */\n      dup4\n        /* \"#utility.yul\":649:663   */\n      add\n        /* \"#utility.yul\":642:663   */\n      swap3\n      pop\n        /* \"#utility.yul\":495:673   */\n      pop\n        /* \"#utility.yul\":482:483   */\n      0x01\n        /* \"#utility.yul\":479:480   */\n      dup2\n        /* \"#utility.yul\":475:484   */\n      add\n        /* \"#utility.yul\":470:484   */\n      swap1\n      pop\n        /* \"#utility.yul\":435:673   */\n      jump(tag_325)\n    tag_327:\n        /* \"#utility.yul\":439:453   */\n      pop\n        /* \"#utility.yul\":126:679   */\n      pop\n      pop\n      swap4\n      swap3\n      pop\n      pop\n      pop\n      jump\t// out\n        /* \"#utility.yul\":702:1357   */\n    tag_330:\n        /* \"#utility.yul\":798:803   */\n      0x00\n        /* \"#utility.yul\":823:904   */\n      tag_332\n        /* \"#utility.yul\":839:903   */\n      tag_333\n        /* \"#utility.yul\":896:902   */\n      dup5\n        /* \"#utility.yul\":839:903   */\n      tag_334\n      jump\t// in\n    tag_333:\n        /* \"#utility.yul\":823:904   */\n      tag_323\n      jump\t// in\n    tag_332:\n        /* \"#utility.yul\":814:904   */\n      swap1\n      pop\n        /* \"#utility.yul\":924:929   */\n      dup1\n        /* \"#utility.yul\":953:959   */\n      dup4\n        /* \"#utility.yul\":946:951   */\n      dup3\n        /* \"#utility.yul\":939:960   */\n      mstore\n        /* \"#utility.yul\":987:991   */\n      0x20\n        /* \"#utility.yul\":980:985   */\n      dup3\n        /* \"#utility.yul\":976:992   */\n      add\n        /* \"#utility.yul\":969:992   */\n      swap1\n      pop\n        /* \"#utility.yul\":1013:1019   */\n      dup3\n        /* \"#utility.yul\":1063:1066   */\n      dup6\n        /* \"#utility.yul\":1055:1059   */\n      0x20\n        /* \"#utility.yul\":1047:1053   */\n      dup7\n        /* \"#utility.yul\":1043:1060   */\n      mul\n        /* \"#utility.yul\":1038:1041   */\n      dup3\n        /* \"#utility.yul\":1034:1061   */\n      add\n        /* \"#utility.yul\":1031:1067   */\n      gt\n        /* \"#utility.yul\":1028:1030   */\n      iszero\n      tag_335\n      jumpi\n        /* \"#utility.yul\":1092:1093   */\n      0x00\n        /* \"#utility.yul\":1089:1090   */\n      dup1\n        /* \"#utility.yul\":1082:1094   */\n      revert\n        /* \"#utility.yul\":1028:1030   */\n    tag_335:\n        /* \"#utility.yul\":1128:1129   */\n      0x00\n        /* \"#utility.yul\":1113:1351   */\n    tag_336:\n        /* \"#utility.yul\":1138:1144   */\n      dup6\n        /* \"#utility.yul\":1135:1136   */\n      dup2\n        /* \"#utility.yul\":1132:1145   */\n      lt\n        /* \"#utility.yul\":1113:1351   */\n      iszero\n      tag_338\n      jumpi\n        /* \"#utility.yul\":1206:1209   */\n      dup2\n        /* \"#utility.yul\":1235:1272   */\n      tag_339\n        /* \"#utility.yul\":1268:1271   */\n      dup9\n        /* \"#utility.yul\":1256:1266   */\n      dup3\n        /* \"#utility.yul\":1235:1272   */\n      tag_340\n      jump\t// in\n    tag_339:\n        /* \"#utility.yul\":1230:1233   */\n      dup5\n        /* \"#utility.yul\":1223:1273   */\n      mstore\n        /* \"#utility.yul\":1302:1306   */\n      0x20\n        /* \"#utility.yul\":1297:1300   */\n      dup5\n        /* \"#utility.yul\":1293:1307   */\n      add\n        /* \"#utility.yul\":1286:1307   */\n      swap4\n      pop\n        /* \"#utility.yul\":1336:1340   */\n      0x20\n        /* \"#utility.yul\":1331:1334   */\n      dup4\n        /* \"#utility.yul\":1327:1341   */\n      add\n        /* \"#utility.yul\":1320:1341   */\n      swap3\n      pop\n        /* \"#utility.yul\":1173:1351   */\n      pop\n        /* \"#utility.yul\":1160:1161   */\n      0x01\n        /* \"#utility.yul\":1157:1158   */\n      dup2\n        /* \"#utility.yul\":1153:1162   */\n      add\n        /* \"#utility.yul\":1148:1162   */\n      swap1\n      pop\n        /* \"#utility.yul\":1113:1351   */\n      jump(tag_336)\n    tag_338:\n        /* \"#utility.yul\":1117:1131   */\n      pop\n        /* \"#utility.yul\":804:1357   */\n      pop\n      pop\n      swap4\n      swap3\n      pop\n      pop\n      pop\n      jump\t// out\n        /* \"#utility.yul\":1363:1706   */\n    tag_341:\n        /* \"#utility.yul\":1440:1445   */\n      0x00\n        /* \"#utility.yul\":1465:1530   */\n      tag_343\n        /* \"#utility.yul\":1481:1529   */\n      tag_344\n        /* \"#utility.yul\":1522:1528   */\n      dup5\n        /* \"#utility.yul\":1481:1529   */\n      tag_345\n      jump\t// in\n    tag_344:\n        /* \"#utility.yul\":1465:1530   */\n      tag_323\n      jump\t// in\n    tag_343:\n        /* \"#utility.yul\":1456:1530   */\n      swap1\n      pop\n        /* \"#utility.yul\":1553:1559   */\n      dup3\n        /* \"#utility.yul\":1546:1551   */\n      dup2\n        /* \"#utility.yul\":1539:1560   */\n      mstore\n        /* \"#utility.yul\":1591:1595   */\n      0x20\n        /* \"#utility.yul\":1584:1589   */\n      dup2\n        /* \"#utility.yul\":1580:1596   */\n      add\n        /* \"#utility.yul\":1629:1632   */\n      dup5\n        /* \"#utility.yul\":1620:1626   */\n      dup5\n        /* \"#utility.yul\":1615:1618   */\n      dup5\n        /* \"#utility.yul\":1611:1627   */\n      add\n        /* \"#utility.yul\":1608:1633   */\n      gt\n        /* \"#utility.yul\":1605:1607   */\n      iszero\n      tag_346\n      jumpi\n        /* \"#utility.yul\":1646:1647   */\n      0x00\n        /* \"#utility.yul\":1643:1644   */\n      dup1\n        /* \"#utility.yul\":1636:1648   */\n      revert\n        /* \"#utility.yul\":1605:1607   */\n    tag_346:\n        /* \"#utility.yul\":1659:1700   */\n      tag_347\n        /* \"#utility.yul\":1693:1699   */\n      dup5\n        /* \"#utility.yul\":1688:1691   */\n      dup3\n        /* \"#utility.yul\":1683:1686   */\n      dup6\n        /* \"#utility.yul\":1659:1700   */\n      tag_348\n      jump\t// in\n    tag_347:\n        /* \"#utility.yul\":1446:1706   */\n      pop\n      swap4\n      swap3\n      pop\n      pop\n      pop\n      jump\t// out\n        /* \"#utility.yul\":1712:2057   */\n    tag_349:\n        /* \"#utility.yul\":1790:1795   */\n      0x00\n        /* \"#utility.yul\":1815:1881   */\n      tag_351\n        /* \"#utility.yul\":1831:1880   */\n      tag_352\n        /* \"#utility.yul\":1873:1879   */\n      dup5\n        /* \"#utility.yul\":1831:1880   */\n      tag_353\n      jump\t// in\n    tag_352:\n        /* \"#utility.yul\":1815:1881   */\n      tag_323\n      jump\t// in\n    tag_351:\n        /* \"#utility.yul\":1806:1881   */\n      swap1\n      pop\n        /* \"#utility.yul\":1904:1910   */\n      dup3\n        /* \"#utility.yul\":1897:1902   */\n      dup2\n        /* \"#utility.yul\":1890:1911   */\n      mstore\n        /* \"#utility.yul\":1942:1946   */\n      0x20\n        /* \"#utility.yul\":1935:1940   */\n      dup2\n        /* \"#utility.yul\":1931:1947   */\n      add\n        /* \"#utility.yul\":1980:1983   */\n      dup5\n        /* \"#utility.yul\":1971:1977   */\n      dup5\n        /* \"#utility.yul\":1966:1969   */\n      dup5\n        /* \"#utility.yul\":1962:1978   */\n      add\n        /* \"#utility.yul\":1959:1984   */\n      gt\n        /* \"#utility.yul\":1956:1958   */\n      iszero\n      tag_354\n      jumpi\n        /* \"#utility.yul\":1997:1998   */\n      0x00\n        /* \"#utility.yul\":1994:1995   */\n      dup1\n        /* \"#utility.yul\":1987:1999   */\n      revert\n        /* \"#utility.yul\":1956:1958   */\n    tag_354:\n        /* \"#utility.yul\":2010:2051   */\n      tag_355\n        /* \"#utility.yul\":2044:2050   */\n      dup5\n        /* \"#utility.yul\":2039:2042   */\n      dup3\n        /* \"#utility.yul\":2034:2037   */\n      dup6\n        /* \"#utility.yul\":2010:2051   */\n      tag_348\n      jump\t// in\n    tag_355:\n        /* \"#utility.yul\":1796:2057   */\n      pop\n      swap4\n      swap3\n      pop\n      pop\n      pop\n      jump\t// out\n        /* \"#utility.yul\":2063:2202   */\n    tag_329:\n        /* \"#utility.yul\":2109:2114   */\n      0x00\n        /* \"#utility.yul\":2147:2153   */\n      dup2\n        /* \"#utility.yul\":2134:2154   */\n      calldataload\n        /* \"#utility.yul\":2125:2154   */\n      swap1\n      pop\n        /* \"#utility.yul\":2163:2196   */\n      tag_357\n        /* \"#utility.yul\":2190:2195   */\n      dup2\n        /* \"#utility.yul\":2163:2196   */\n      tag_358\n      jump\t// in\n    tag_357:\n        /* \"#utility.yul\":2115:2202   */\n      swap3\n      swap2\n      pop\n      pop\n      jump\t// out\n        /* \"#utility.yul\":2225:2528   */\n    tag_359:\n        /* \"#utility.yul\":2296:2301   */\n      0x00\n        /* \"#utility.yul\":2345:2348   */\n      dup3\n        /* \"#utility.yul\":2338:2342   */\n      0x1f\n        /* \"#utility.yul\":2330:2336   */\n      dup4\n        /* \"#utility.yul\":2326:2343   */\n      add\n        /* \"#utility.yul\":2322:2349   */\n      slt\n        /* \"#utility.yul\":2312:2314   */\n      tag_361\n      jumpi\n        /* \"#utility.yul\":2363:2364   */\n      0x00\n        /* \"#utility.yul\":2360:2361   */\n      dup1\n        /* \"#utility.yul\":2353:2365   */\n      revert\n        /* \"#utility.yul\":2312:2314   */\n    tag_361:\n        /* \"#utility.yul\":2403:2409   */\n      dup2\n        /* \"#utility.yul\":2390:2410   */\n      calldataload\n        /* \"#utility.yul\":2428:2522   */\n      tag_362\n        /* \"#utility.yul\":2518:2521   */\n      dup5\n        /* \"#utility.yul\":2510:2516   */\n      dup3\n        /* \"#utility.yul\":2503:2507   */\n      0x20\n        /* \"#utility.yul\":2495:2501   */\n      dup7\n        /* \"#utility.yul\":2491:2508   */\n      add\n        /* \"#utility.yul\":2428:2522   */\n      tag_318\n      jump\t// in\n    tag_362:\n        /* \"#utility.yul\":2419:2522   */\n      swap2\n      pop\n        /* \"#utility.yul\":2302:2528   */\n      pop\n      swap3\n      swap2\n      pop\n      pop\n      jump\t// out\n        /* \"#utility.yul\":2551:2854   */\n    tag_363:\n        /* \"#utility.yul\":2622:2627   */\n      0x00\n        /* \"#utility.yul\":2671:2674   */\n      dup3\n        /* \"#utility.yul\":2664:2668   */\n      0x1f\n        /* \"#utility.yul\":2656:2662   */\n      dup4\n        /* \"#utility.yul\":2652:2669   */\n      add\n        /* \"#utility.yul\":2648:2675   */\n      slt\n        /* \"#utility.yul\":2638:2640   */\n      tag_365\n      jumpi\n        /* \"#utility.yul\":2689:2690   */\n      0x00\n        /* \"#utility.yul\":2686:2687   */\n      dup1\n        /* \"#utility.yul\":2679:2691   */\n      revert\n        /* \"#utility.yul\":2638:2640   */\n    tag_365:\n        /* \"#utility.yul\":2729:2735   */\n      dup2\n        /* \"#utility.yul\":2716:2736   */\n      calldataload\n        /* \"#utility.yul\":2754:2848   */\n      tag_366\n        /* \"#utility.yul\":2844:2847   */\n      dup5\n        /* \"#utility.yul\":2836:2842   */\n      dup3\n        /* \"#utility.yul\":2829:2833   */\n      0x20\n        /* \"#utility.yul\":2821:2827   */\n      dup7\n        /* \"#utility.yul\":2817:2834   */\n      add\n        /* \"#utility.yul\":2754:2848   */\n      tag_330\n      jump\t// in\n    tag_366:\n        /* \"#utility.yul\":2745:2848   */\n      swap2\n      pop\n        /* \"#utility.yul\":2628:2854   */\n      pop\n      swap3\n      swap2\n      pop\n      pop\n      jump\t// out\n        /* \"#utility.yul\":2860:2993   */\n    tag_367:\n        /* \"#utility.yul\":2903:2908   */\n      0x00\n        /* \"#utility.yul\":2941:2947   */\n      dup2\n        /* \"#utility.yul\":2928:2948   */\n      calldataload\n        /* \"#utility.yul\":2919:2948   */\n      swap1\n      pop\n        /* \"#utility.yul\":2957:2987   */\n      tag_369\n        /* \"#utility.yul\":2981:2986   */\n      dup2\n        /* \"#utility.yul\":2957:2987   */\n      tag_370\n      jump\t// in\n    tag_369:\n        /* \"#utility.yul\":2909:2993   */\n      swap3\n      swap2\n      pop\n      pop\n      jump\t// out\n        /* \"#utility.yul\":2999:3136   */\n    tag_371:\n        /* \"#utility.yul\":3044:3049   */\n      0x00\n        /* \"#utility.yul\":3082:3088   */\n      dup2\n        /* \"#utility.yul\":3069:3089   */\n      calldataload\n        /* \"#utility.yul\":3060:3089   */\n      swap1\n      pop\n        /* \"#utility.yul\":3098:3130   */\n      tag_373\n        /* \"#utility.yul\":3124:3129   */\n      dup2\n        /* \"#utility.yul\":3098:3130   */\n      tag_374\n      jump\t// in\n    tag_373:\n        /* \"#utility.yul\":3050:3136   */\n      swap3\n      swap2\n      pop\n      pop\n      jump\t// out\n        /* \"#utility.yul\":3142:3283   */\n    tag_375:\n        /* \"#utility.yul\":3198:3203   */\n      0x00\n        /* \"#utility.yul\":3229:3235   */\n      dup2\n        /* \"#utility.yul\":3223:3236   */\n      mload\n        /* \"#utility.yul\":3214:3236   */\n      swap1\n      pop\n        /* \"#utility.yul\":3245:3277   */\n      tag_377\n        /* \"#utility.yul\":3271:3276   */\n      dup2\n        /* \"#utility.yul\":3245:3277   */\n      tag_374\n      jump\t// in\n    tag_377:\n        /* \"#utility.yul\":3204:3283   */\n      swap3\n      swap2\n      pop\n      pop\n      jump\t// out\n        /* \"#utility.yul\":3302:3573   */\n    tag_378:\n        /* \"#utility.yul\":3357:3362   */\n      0x00\n        /* \"#utility.yul\":3406:3409   */\n      dup3\n        /* \"#utility.yul\":3399:3403   */\n      0x1f\n        /* \"#utility.yul\":3391:3397   */\n      dup4\n        /* \"#utility.yul\":3387:3404   */\n      add\n        /* \"#utility.yul\":3383:3410   */\n      slt\n        /* \"#utility.yul\":3373:3375   */\n      tag_380\n      jumpi\n        /* \"#utility.yul\":3424:3425   */\n      0x00\n        /* \"#utility.yul\":3421:3422   */\n      dup1\n        /* \"#utility.yul\":3414:3426   */\n      revert\n        /* \"#utility.yul\":3373:3375   */\n    tag_380:\n        /* \"#utility.yul\":3464:3470   */\n      dup2\n        /* \"#utility.yul\":3451:3471   */\n      calldataload\n        /* \"#utility.yul\":3489:3567   */\n      tag_381\n        /* \"#utility.yul\":3563:3566   */\n      dup5\n        /* \"#utility.yul\":3555:3561   */\n      dup3\n        /* \"#utility.yul\":3548:3552   */\n      0x20\n        /* \"#utility.yul\":3540:3546   */\n      dup7\n        /* \"#utility.yul\":3536:3553   */\n      add\n        /* \"#utility.yul\":3489:3567   */\n      tag_341\n      jump\t// in\n    tag_381:\n        /* \"#utility.yul\":3480:3567   */\n      swap2\n      pop\n        /* \"#utility.yul\":3363:3573   */\n      pop\n      swap3\n      swap2\n      pop\n      pop\n      jump\t// out\n        /* \"#utility.yul\":3593:3866   */\n    tag_382:\n        /* \"#utility.yul\":3649:3654   */\n      0x00\n        /* \"#utility.yul\":3698:3701   */\n      dup3\n        /* \"#utility.yul\":3691:3695   */\n      0x1f\n        /* \"#utility.yul\":3683:3689   */\n      dup4\n        /* \"#utility.yul\":3679:3696   */\n      add\n        /* \"#utility.yul\":3675:3702   */\n      slt\n        /* \"#utility.yul\":3665:3667   */\n      tag_384\n      jumpi\n        /* \"#utility.yul\":3716:3717   */\n      0x00\n        /* \"#utility.yul\":3713:3714   */\n      dup1\n        /* \"#utility.yul\":3706:3718   */\n      revert\n        /* \"#utility.yul\":3665:3667   */\n    tag_384:\n        /* \"#utility.yul\":3756:3762   */\n      dup2\n        /* \"#utility.yul\":3743:3763   */\n      calldataload\n        /* \"#utility.yul\":3781:3860   */\n      tag_385\n        /* \"#utility.yul\":3856:3859   */\n      dup5\n        /* \"#utility.yul\":3848:3854   */\n      dup3\n        /* \"#utility.yul\":3841:3845   */\n      0x20\n        /* \"#utility.yul\":3833:3839   */\n      dup7\n        /* \"#utility.yul\":3829:3846   */\n      add\n        /* \"#utility.yul\":3781:3860   */\n      tag_349\n      jump\t// in\n    tag_385:\n        /* \"#utility.yul\":3772:3860   */\n      swap2\n      pop\n        /* \"#utility.yul\":3655:3866   */\n      pop\n      swap3\n      swap2\n      pop\n      pop\n      jump\t// out\n        /* \"#utility.yul\":3872:4011   */\n    tag_340:\n        /* \"#utility.yul\":3918:3923   */\n      0x00\n        /* \"#utility.yul\":3956:3962   */\n      dup2\n        /* \"#utility.yul\":3943:3963   */\n      calldataload\n        /* \"#utility.yul\":3934:3963   */\n      swap1\n      pop\n        /* \"#utility.yul\":3972:4005   */\n      tag_387\n        /* \"#utility.yul\":3999:4004   */\n      dup2\n        /* \"#utility.yul\":3972:4005   */\n      tag_388\n      jump\t// in\n    tag_387:\n        /* \"#utility.yul\":3924:4011   */\n      swap3\n      swap2\n      pop\n      pop\n      jump\t// out\n        /* \"#utility.yul\":4017:4279   */\n    tag_64:\n        /* \"#utility.yul\":4076:4082   */\n      0x00\n        /* \"#utility.yul\":4125:4127   */\n      0x20\n        /* \"#utility.yul\":4113:4122   */\n      dup3\n        /* \"#utility.yul\":4104:4111   */\n      dup5\n        /* \"#utility.yul\":4100:4123   */\n      sub\n        /* \"#utility.yul\":4096:4128   */\n      slt\n        /* \"#utility.yul\":4093:4095   */\n      iszero\n      tag_390\n      jumpi\n        /* \"#utility.yul\":4141:4142   */\n      0x00\n        /* \"#utility.yul\":4138:4139   */\n      dup1\n        /* \"#utility.yul\":4131:4143   */\n      revert\n        /* \"#utility.yul\":4093:4095   */\n    tag_390:\n        /* \"#utility.yul\":4184:4185   */\n      0x00\n        /* \"#utility.yul\":4209:4262   */\n      tag_391\n        /* \"#utility.yul\":4254:4261   */\n      dup5\n        /* \"#utility.yul\":4245:4251   */\n      dup3\n        /* \"#utility.yul\":4234:4243   */\n      dup6\n        /* \"#utility.yul\":4230:4252   */\n      add\n        /* \"#utility.yul\":4209:4262   */\n      tag_329\n      jump\t// in\n    tag_391:\n        /* \"#utility.yul\":4199:4262   */\n      swap2\n      pop\n        /* \"#utility.yul\":4155:4272   */\n      pop\n        /* \"#utility.yul\":4083:4279   */\n      swap3\n      swap2\n      pop\n      pop\n      jump\t// out\n        /* \"#utility.yul\":4285:4692   */\n    tag_85:\n        /* \"#utility.yul\":4353:4359   */\n      0x00\n        /* \"#utility.yul\":4361:4367   */\n      dup1\n        /* \"#utility.yul\":4410:4412   */\n      0x40\n        /* \"#utility.yul\":4398:4407   */\n      dup4\n        /* \"#utility.yul\":4389:4396   */\n      dup6\n        /* \"#utility.yul\":4385:4408   */\n      sub\n        /* \"#utility.yul\":4381:4413   */\n      slt\n        /* \"#utility.yul\":4378:4380   */\n      iszero\n      tag_393\n      jumpi\n        /* \"#utility.yul\":4426:4427   */\n      0x00\n        /* \"#utility.yul\":4423:4424   */\n      dup1\n        /* \"#utility.yul\":4416:4428   */\n      revert\n        /* \"#utility.yul\":4378:4380   */\n    tag_393:\n        /* \"#utility.yul\":4469:4470   */\n      0x00\n        /* \"#utility.yul\":4494:4547   */\n      tag_394\n        /* \"#utility.yul\":4539:4546   */\n      dup6\n        /* \"#utility.yul\":4530:4536   */\n      dup3\n        /* \"#utility.yul\":4519:4528   */\n      dup7\n        /* \"#utility.yul\":4515:4537   */\n      add\n        /* \"#utility.yul\":4494:4547   */\n      tag_329\n      jump\t// in\n    tag_394:\n        /* \"#utility.yul\":4484:4547   */\n      swap3\n      pop\n        /* \"#utility.yul\":4440:4557   */\n      pop\n        /* \"#utility.yul\":4596:4598   */\n      0x20\n        /* \"#utility.yul\":4622:4675   */\n      tag_395\n        /* \"#utility.yul\":4667:4674   */\n      dup6\n        /* \"#utility.yul\":4658:4664   */\n      dup3\n        /* \"#utility.yul\":4647:4656   */\n      dup7\n        /* \"#utility.yul\":4643:4665   */\n      add\n        /* \"#utility.yul\":4622:4675   */\n      tag_329\n      jump\t// in\n    tag_395:\n        /* \"#utility.yul\":4612:4675   */\n      swap2\n      pop\n        /* \"#utility.yul\":4567:4685   */\n      pop\n        /* \"#utility.yul\":4368:4692   */\n      swap3\n      pop\n      swap3\n      swap1\n      pop\n      jump\t// out\n        /* \"#utility.yul\":4698:5250   */\n    tag_44:\n        /* \"#utility.yul\":4775:4781   */\n      0x00\n        /* \"#utility.yul\":4783:4789   */\n      dup1\n        /* \"#utility.yul\":4791:4797   */\n      0x00\n        /* \"#utility.yul\":4840:4842   */\n      0x60\n        /* \"#utility.yul\":4828:4837   */\n      dup5\n        /* \"#utility.yul\":4819:4826   */\n      dup7\n        /* \"#utility.yul\":4815:4838   */\n      sub\n        /* \"#utility.yul\":4811:4843   */\n      slt\n        /* \"#utility.yul\":4808:4810   */\n      iszero\n      tag_397\n      jumpi\n        /* \"#utility.yul\":4856:4857   */\n      0x00\n        /* \"#utility.yul\":4853:4854   */\n      dup1\n        /* \"#utility.yul\":4846:4858   */\n      revert\n        /* \"#utility.yul\":4808:4810   */\n    tag_397:\n        /* \"#utility.yul\":4899:4900   */\n      0x00\n        /* \"#utility.yul\":4924:4977   */\n      tag_398\n        /* \"#utility.yul\":4969:4976   */\n      dup7\n        /* \"#utility.yul\":4960:4966   */\n      dup3\n        /* \"#utility.yul\":4949:4958   */\n      dup8\n        /* \"#utility.yul\":4945:4967   */\n      add\n        /* \"#utility.yul\":4924:4977   */\n      tag_329\n      jump\t// in\n    tag_398:\n        /* \"#utility.yul\":4914:4977   */\n      swap4\n      pop\n        /* \"#utility.yul\":4870:4987   */\n      pop\n        /* \"#utility.yul\":5026:5028   */\n      0x20\n        /* \"#utility.yul\":5052:5105   */\n      tag_399\n        /* \"#utility.yul\":5097:5104   */\n      dup7\n        /* \"#utility.yul\":5088:5094   */\n      dup3\n        /* \"#utility.yul\":5077:5086   */\n      dup8\n        /* \"#utility.yul\":5073:5095   */\n      add\n        /* \"#utility.yul\":5052:5105   */\n      tag_329\n      jump\t// in\n    tag_399:\n        /* \"#utility.yul\":5042:5105   */\n      swap3\n      pop\n        /* \"#utility.yul\":4997:5115   */\n      pop\n        /* \"#utility.yul\":5154:5156   */\n      0x40\n        /* \"#utility.yul\":5180:5233   */\n      tag_400\n        /* \"#utility.yul\":5225:5232   */\n      dup7\n        /* \"#utility.yul\":5216:5222   */\n      dup3\n        /* \"#utility.yul\":5205:5214   */\n      dup8\n        /* \"#utility.yul\":5201:5223   */\n      add\n        /* \"#utility.yul\":5180:5233   */\n      tag_340\n      jump\t// in\n    tag_400:\n        /* \"#utility.yul\":5170:5233   */\n      swap2\n      pop\n        /* \"#utility.yul\":5125:5243   */\n      pop\n        /* \"#utility.yul\":4798:5250   */\n      swap3\n      pop\n      swap3\n      pop\n      swap3\n      jump\t// out\n        /* \"#utility.yul\":5256:6065   */\n    tag_77:\n        /* \"#utility.yul\":5351:5357   */\n      0x00\n        /* \"#utility.yul\":5359:5365   */\n      dup1\n        /* \"#utility.yul\":5367:5373   */\n      0x00\n        /* \"#utility.yul\":5375:5381   */\n      dup1\n        /* \"#utility.yul\":5424:5427   */\n      0x80\n        /* \"#utility.yul\":5412:5421   */\n      dup6\n        /* \"#utility.yul\":5403:5410   */\n      dup8\n        /* \"#utility.yul\":5399:5422   */\n      sub\n        /* \"#utility.yul\":5395:5428   */\n      slt\n        /* \"#utility.yul\":5392:5394   */\n      iszero\n      tag_402\n      jumpi\n        /* \"#utility.yul\":5441:5442   */\n      0x00\n        /* \"#utility.yul\":5438:5439   */\n      dup1\n        /* \"#utility.yul\":5431:5443   */\n      revert\n        /* \"#utility.yul\":5392:5394   */\n    tag_402:\n        /* \"#utility.yul\":5484:5485   */\n      0x00\n        /* \"#utility.yul\":5509:5562   */\n      tag_403\n        /* \"#utility.yul\":5554:5561   */\n      dup8\n        /* \"#utility.yul\":5545:5551   */\n      dup3\n        /* \"#utility.yul\":5534:5543   */\n      dup9\n        /* \"#utility.yul\":5530:5552   */\n      add\n        /* \"#utility.yul\":5509:5562   */\n      tag_329\n      jump\t// in\n    tag_403:\n        /* \"#utility.yul\":5499:5562   */\n      swap5\n      pop\n        /* \"#utility.yul\":5455:5572   */\n      pop\n        /* \"#utility.yul\":5611:5613   */\n      0x20\n        /* \"#utility.yul\":5637:5690   */\n      tag_404\n        /* \"#utility.yul\":5682:5689   */\n      dup8\n        /* \"#utility.yul\":5673:5679   */\n      dup3\n        /* \"#utility.yul\":5662:5671   */\n      dup9\n        /* \"#utility.yul\":5658:5680   */\n      add\n        /* \"#utility.yul\":5637:5690   */\n      tag_329\n      jump\t// in\n    tag_404:\n        /* \"#utility.yul\":5627:5690   */\n      swap4\n      pop\n        /* \"#utility.yul\":5582:5700   */\n      pop\n        /* \"#utility.yul\":5739:5741   */\n      0x40\n        /* \"#utility.yul\":5765:5818   */\n      tag_405\n        /* \"#utility.yul\":5810:5817   */\n      dup8\n        /* \"#utility.yul\":5801:5807   */\n      dup3\n        /* \"#utility.yul\":5790:5799   */\n      dup9\n        /* \"#utility.yul\":5786:5808   */\n      add\n        /* \"#utility.yul\":5765:5818   */\n      tag_340\n      jump\t// in\n    tag_405:\n        /* \"#utility.yul\":5755:5818   */\n      swap3\n      pop\n        /* \"#utility.yul\":5710:5828   */\n      pop\n        /* \"#utility.yul\":5895:5897   */\n      0x60\n        /* \"#utility.yul\":5884:5893   */\n      dup6\n        /* \"#utility.yul\":5880:5898   */\n      add\n        /* \"#utility.yul\":5867:5899   */\n      calldataload\n        /* \"#utility.yul\":5926:5944   */\n      0xffffffffffffffff\n        /* \"#utility.yul\":5918:5924   */\n      dup2\n        /* \"#utility.yul\":5915:5945   */\n      gt\n        /* \"#utility.yul\":5912:5914   */\n      iszero\n      tag_406\n      jumpi\n        /* \"#utility.yul\":5958:5959   */\n      0x00\n        /* \"#utility.yul\":5955:5956   */\n      dup1\n        /* \"#utility.yul\":5948:5960   */\n      revert\n        /* \"#utility.yul\":5912:5914   */\n    tag_406:\n        /* \"#utility.yul\":5986:6048   */\n      tag_407\n        /* \"#utility.yul\":6040:6047   */\n      dup8\n        /* \"#utility.yul\":6031:6037   */\n      dup3\n        /* \"#utility.yul\":6020:6029   */\n      dup9\n        /* \"#utility.yul\":6016:6038   */\n      add\n        /* \"#utility.yul\":5986:6048   */\n      tag_378\n      jump\t// in\n    tag_407:\n        /* \"#utility.yul\":5976:6048   */\n      swap2\n      pop\n        /* \"#utility.yul\":5838:6058   */\n      pop\n        /* \"#utility.yul\":5382:6065   */\n      swap3\n      swap6\n      swap2\n      swap5\n      pop\n      swap3\n      pop\n      jump\t// out\n        /* \"#utility.yul\":6071:7314   */\n    tag_48:\n        /* \"#utility.yul\":6226:6232   */\n      0x00\n        /* \"#utility.yul\":6234:6240   */\n      dup1\n        /* \"#utility.yul\":6242:6248   */\n      0x00\n        /* \"#utility.yul\":6250:6256   */\n      dup1\n        /* \"#utility.yul\":6258:6264   */\n      0x00\n        /* \"#utility.yul\":6307:6310   */\n      0xa0\n        /* \"#utility.yul\":6295:6304   */\n      dup7\n        /* \"#utility.yul\":6286:6293   */\n      dup9\n        /* \"#utility.yul\":6282:6305   */\n      sub\n        /* \"#utility.yul\":6278:6311   */\n      slt\n        /* \"#utility.yul\":6275:6277   */\n      iszero\n      tag_409\n      jumpi\n        /* \"#utility.yul\":6324:6325   */\n      0x00\n        /* \"#utility.yul\":6321:6322   */\n      dup1\n        /* \"#utility.yul\":6314:6326   */\n      revert\n        /* \"#utility.yul\":6275:6277   */\n    tag_409:\n        /* \"#utility.yul\":6367:6368   */\n      0x00\n        /* \"#utility.yul\":6392:6445   */\n      tag_410\n        /* \"#utility.yul\":6437:6444   */\n      dup9\n        /* \"#utility.yul\":6428:6434   */\n      dup3\n        /* \"#utility.yul\":6417:6426   */\n      dup10\n        /* \"#utility.yul\":6413:6435   */\n      add\n        /* \"#utility.yul\":6392:6445   */\n      tag_329\n      jump\t// in\n    tag_410:\n        /* \"#utility.yul\":6382:6445   */\n      swap6\n      pop\n        /* \"#utility.yul\":6338:6455   */\n      pop\n        /* \"#utility.yul\":6522:6524   */\n      0x20\n        /* \"#utility.yul\":6511:6520   */\n      dup7\n        /* \"#utility.yul\":6507:6525   */\n      add\n        /* \"#utility.yul\":6494:6526   */\n      calldataload\n        /* \"#utility.yul\":6553:6571   */\n      0xffffffffffffffff\n        /* \"#utility.yul\":6545:6551   */\n      dup2\n        /* \"#utility.yul\":6542:6572   */\n      gt\n        /* \"#utility.yul\":6539:6541   */\n      iszero\n      tag_411\n      jumpi\n        /* \"#utility.yul\":6585:6586   */\n      0x00\n        /* \"#utility.yul\":6582:6583   */\n      dup1\n        /* \"#utility.yul\":6575:6587   */\n      revert\n        /* \"#utility.yul\":6539:6541   */\n    tag_411:\n        /* \"#utility.yul\":6613:6691   */\n      tag_412\n        /* \"#utility.yul\":6683:6690   */\n      dup9\n        /* \"#utility.yul\":6674:6680   */\n      dup3\n        /* \"#utility.yul\":6663:6672   */\n      dup10\n        /* \"#utility.yul\":6659:6681   */\n      add\n        /* \"#utility.yul\":6613:6691   */\n      tag_359\n      jump\t// in\n    tag_412:\n        /* \"#utility.yul\":6603:6691   */\n      swap5\n      pop\n        /* \"#utility.yul\":6465:6701   */\n      pop\n        /* \"#utility.yul\":6768:6770   */\n      0x40\n        /* \"#utility.yul\":6757:6766   */\n      dup7\n        /* \"#utility.yul\":6753:6771   */\n      add\n        /* \"#utility.yul\":6740:6772   */\n      calldataload\n        /* \"#utility.yul\":6799:6817   */\n      0xffffffffffffffff\n        /* \"#utility.yul\":6791:6797   */\n      dup2\n        /* \"#utility.yul\":6788:6818   */\n      gt\n        /* \"#utility.yul\":6785:6787   */\n      iszero\n      tag_413\n      jumpi\n        /* \"#utility.yul\":6831:6832   */\n      0x00\n        /* \"#utility.yul\":6828:6829   */\n      dup1\n        /* \"#utility.yul\":6821:6833   */\n      revert\n        /* \"#utility.yul\":6785:6787   */\n    tag_413:\n        /* \"#utility.yul\":6859:6937   */\n      tag_414\n        /* \"#utility.yul\":6929:6936   */\n      dup9\n        /* \"#utility.yul\":6920:6926   */\n      dup3\n        /* \"#utility.yul\":6909:6918   */\n      dup10\n        /* \"#utility.yul\":6905:6927   */\n      add\n        /* \"#utility.yul\":6859:6937   */\n      tag_363\n      jump\t// in\n    tag_414:\n        /* \"#utility.yul\":6849:6937   */\n      swap4\n      pop\n        /* \"#utility.yul\":6711:6947   */\n      pop\n        /* \"#utility.yul\":6986:6988   */\n      0x60\n        /* \"#utility.yul\":7012:7065   */\n      tag_415\n        /* \"#utility.yul\":7057:7064   */\n      dup9\n        /* \"#utility.yul\":7048:7054   */\n      dup3\n        /* \"#utility.yul\":7037:7046   */\n      dup10\n        /* \"#utility.yul\":7033:7055   */\n      add\n        /* \"#utility.yul\":7012:7065   */\n      tag_340\n      jump\t// in\n    tag_415:\n        /* \"#utility.yul\":7002:7065   */\n      swap3\n      pop\n        /* \"#utility.yul\":6957:7075   */\n      pop\n        /* \"#utility.yul\":7142:7145   */\n      0x80\n        /* \"#utility.yul\":7131:7140   */\n      dup7\n        /* \"#utility.yul\":7127:7146   */\n      add\n        /* \"#utility.yul\":7114:7147   */\n      calldataload\n        /* \"#utility.yul\":7174:7192   */\n      0xffffffffffffffff\n        /* \"#utility.yul\":7166:7172   */\n      dup2\n        /* \"#utility.yul\":7163:7193   */\n      gt\n        /* \"#utility.yul\":7160:7162   */\n      iszero\n      tag_416\n      jumpi\n        /* \"#utility.yul\":7206:7207   */\n      0x00\n        /* \"#utility.yul\":7203:7204   */\n      dup1\n        /* \"#utility.yul\":7196:7208   */\n      revert\n        /* \"#utility.yul\":7160:7162   */\n    tag_416:\n        /* \"#utility.yul\":7234:7297   */\n      tag_417\n        /* \"#utility.yul\":7289:7296   */\n      dup9\n        /* \"#utility.yul\":7280:7286   */\n      dup3\n        /* \"#utility.yul\":7269:7278   */\n      dup10\n        /* \"#utility.yul\":7265:7287   */\n      add\n        /* \"#utility.yul\":7234:7297   */\n      tag_382\n      jump\t// in\n    tag_417:\n        /* \"#utility.yul\":7224:7297   */\n      swap2\n      pop\n        /* \"#utility.yul\":7085:7307   */\n      pop\n        /* \"#utility.yul\":6265:7314   */\n      swap3\n      swap6\n      pop\n      swap3\n      swap6\n      swap1\n      swap4\n      pop\n      jump\t// out\n        /* \"#utility.yul\":7320:7721   */\n    tag_73:\n        /* \"#utility.yul\":7385:7391   */\n      0x00\n        /* \"#utility.yul\":7393:7399   */\n      dup1\n        /* \"#utility.yul\":7442:7444   */\n      0x40\n        /* \"#utility.yul\":7430:7439   */\n      dup4\n        /* \"#utility.yul\":7421:7428   */\n      dup6\n        /* \"#utility.yul\":7417:7440   */\n      sub\n        /* \"#utility.yul\":7413:7445   */\n      slt\n        /* \"#utility.yul\":7410:7412   */\n      iszero\n      tag_419\n      jumpi\n        /* \"#utility.yul\":7458:7459   */\n      0x00\n        /* \"#utility.yul\":7455:7456   */\n      dup1\n        /* \"#utility.yul\":7448:7460   */\n      revert\n        /* \"#utility.yul\":7410:7412   */\n    tag_419:\n        /* \"#utility.yul\":7501:7502   */\n      0x00\n        /* \"#utility.yul\":7526:7579   */\n      tag_420\n        /* \"#utility.yul\":7571:7578   */\n      dup6\n        /* \"#utility.yul\":7562:7568   */\n      dup3\n        /* \"#utility.yul\":7551:7560   */\n      dup7\n        /* \"#utility.yul\":7547:7569   */\n      add\n        /* \"#utility.yul\":7526:7579   */\n      tag_329\n      jump\t// in\n    tag_420:\n        /* \"#utility.yul\":7516:7579   */\n      swap3\n      pop\n        /* \"#utility.yul\":7472:7589   */\n      pop\n        /* \"#utility.yul\":7628:7630   */\n      0x20\n        /* \"#utility.yul\":7654:7704   */\n      tag_421\n        /* \"#utility.yul\":7696:7703   */\n      dup6\n        /* \"#utility.yul\":7687:7693   */\n      dup3\n        /* \"#utility.yul\":7676:7685   */\n      dup7\n        /* \"#utility.yul\":7672:7694   */\n      add\n        /* \"#utility.yul\":7654:7704   */\n      tag_367\n      jump\t// in\n    tag_421:\n        /* \"#utility.yul\":7644:7704   */\n      swap2\n      pop\n        /* \"#utility.yul\":7599:7714   */\n      pop\n        /* \"#utility.yul\":7400:7721   */\n      swap3\n      pop\n      swap3\n      swap1\n      pop\n      jump\t// out\n        /* \"#utility.yul\":7727:8134   */\n    tag_40:\n        /* \"#utility.yul\":7795:7801   */\n      0x00\n        /* \"#utility.yul\":7803:7809   */\n      dup1\n        /* \"#utility.yul\":7852:7854   */\n      0x40\n        /* \"#utility.yul\":7840:7849   */\n      dup4\n        /* \"#utility.yul\":7831:7838   */\n      dup6\n        /* \"#utility.yul\":7827:7850   */\n      sub\n        /* \"#utility.yul\":7823:7855   */\n      slt\n        /* \"#utility.yul\":7820:7822   */\n      iszero\n      tag_423\n      jumpi\n        /* \"#utility.yul\":7868:7869   */\n      0x00\n        /* \"#utility.yul\":7865:7866   */\n      dup1\n        /* \"#utility.yul\":7858:7870   */\n      revert\n        /* \"#utility.yul\":7820:7822   */\n    tag_423:\n        /* \"#utility.yul\":7911:7912   */\n      0x00\n        /* \"#utility.yul\":7936:7989   */\n      tag_424\n        /* \"#utility.yul\":7981:7988   */\n      dup6\n        /* \"#utility.yul\":7972:7978   */\n      dup3\n        /* \"#utility.yul\":7961:7970   */\n      dup7\n        /* \"#utility.yul\":7957:7979   */\n      add\n        /* \"#utility.yul\":7936:7989   */\n      tag_329\n      jump\t// in\n    tag_424:\n        /* \"#utility.yul\":7926:7989   */\n      swap3\n      pop\n        /* \"#utility.yul\":7882:7999   */\n      pop\n        /* \"#utility.yul\":8038:8040   */\n      0x20\n        /* \"#utility.yul\":8064:8117   */\n      tag_425\n        /* \"#utility.yul\":8109:8116   */\n      dup6\n        /* \"#utility.yul\":8100:8106   */\n      dup3\n        /* \"#utility.yul\":8089:8098   */\n      dup7\n        /* \"#utility.yul\":8085:8107   */\n      add\n        /* \"#utility.yul\":8064:8117   */\n      tag_340\n      jump\t// in\n    tag_425:\n        /* \"#utility.yul\":8054:8117   */\n      swap2\n      pop\n        /* \"#utility.yul\":8009:8127   */\n      pop\n        /* \"#utility.yul\":7810:8134   */\n      swap3\n      pop\n      swap3\n      swap1\n      pop\n      jump\t// out\n        /* \"#utility.yul\":8140:8400   */\n    tag_24:\n        /* \"#utility.yul\":8198:8204   */\n      0x00\n        /* \"#utility.yul\":8247:8249   */\n      0x20\n        /* \"#utility.yul\":8235:8244   */\n      dup3\n        /* \"#utility.yul\":8226:8233   */\n      dup5\n        /* \"#utility.yul\":8222:8245   */\n      sub\n        /* \"#utility.yul\":8218:8250   */\n      slt\n        /* \"#utility.yul\":8215:8217   */\n      iszero\n      tag_427\n      jumpi\n        /* \"#utility.yul\":8263:8264   */\n      0x00\n        /* \"#utility.yul\":8260:8261   */\n      dup1\n        /* \"#utility.yul\":8253:8265   */\n      revert\n        /* \"#utility.yul\":8215:8217   */\n    tag_427:\n        /* \"#utility.yul\":8306:8307   */\n      0x00\n        /* \"#utility.yul\":8331:8383   */\n      tag_428\n        /* \"#utility.yul\":8375:8382   */\n      dup5\n        /* \"#utility.yul\":8366:8372   */\n      dup3\n        /* \"#utility.yul\":8355:8364   */\n      dup6\n        /* \"#utility.yul\":8351:8373   */\n      add\n        /* \"#utility.yul\":8331:8383   */\n      tag_371\n      jump\t// in\n    tag_428:\n        /* \"#utility.yul\":8321:8383   */\n      swap2\n      pop\n        /* \"#utility.yul\":8277:8393   */\n      pop\n        /* \"#utility.yul\":8205:8400   */\n      swap3\n      swap2\n      pop\n      pop\n      jump\t// out\n        /* \"#utility.yul\":8406:8688   */\n    tag_269:\n        /* \"#utility.yul\":8475:8481   */\n      0x00\n        /* \"#utility.yul\":8524:8526   */\n      0x20\n        /* \"#utility.yul\":8512:8521   */\n      dup3\n        /* \"#utility.yul\":8503:8510   */\n      dup5\n        /* \"#utility.yul\":8499:8522   */\n      sub\n        /* \"#utility.yul\":8495:8527   */\n      slt\n        /* \"#utility.yul\":8492:8494   */\n      iszero\n      tag_430\n      jumpi\n        /* \"#utility.yul\":8540:8541   */\n      0x00\n        /* \"#utility.yul\":8537:8538   */\n      dup1\n        /* \"#utility.yul\":8530:8542   */\n      revert\n        /* \"#utility.yul\":8492:8494   */\n    tag_430:\n        /* \"#utility.yul\":8583:8584   */\n      0x00\n        /* \"#utility.yul\":8608:8671   */\n      tag_431\n        /* \"#utility.yul\":8663:8670   */\n      dup5\n        /* \"#utility.yul\":8654:8660   */\n      dup3\n        /* \"#utility.yul\":8643:8652   */\n      dup6\n        /* \"#utility.yul\":8639:8661   */\n      add\n        /* \"#utility.yul\":8608:8671   */\n      tag_375\n      jump\t// in\n    tag_431:\n        /* \"#utility.yul\":8598:8671   */\n      swap2\n      pop\n        /* \"#utility.yul\":8554:8681   */\n      pop\n        /* \"#utility.yul\":8482:8688   */\n      swap3\n      swap2\n      pop\n      pop\n      jump\t// out\n        /* \"#utility.yul\":8694:8956   */\n    tag_34:\n        /* \"#utility.yul\":8753:8759   */\n      0x00\n        /* \"#utility.yul\":8802:8804   */\n      0x20\n        /* \"#utility.yul\":8790:8799   */\n      dup3\n        /* \"#utility.yul\":8781:8788   */\n      dup5\n        /* \"#utility.yul\":8777:8800   */\n      sub\n        /* \"#utility.yul\":8773:8805   */\n      slt\n        /* \"#utility.yul\":8770:8772   */\n      iszero\n      tag_433\n      jumpi\n        /* \"#utility.yul\":8818:8819   */\n      0x00\n        /* \"#utility.yul\":8815:8816   */\n      dup1\n        /* \"#utility.yul\":8808:8820   */\n      revert\n        /* \"#utility.yul\":8770:8772   */\n    tag_433:\n        /* \"#utility.yul\":8861:8862   */\n      0x00\n        /* \"#utility.yul\":8886:8939   */\n      tag_434\n        /* \"#utility.yul\":8931:8938   */\n      dup5\n        /* \"#utility.yul\":8922:8928   */\n      dup3\n        /* \"#utility.yul\":8911:8920   */\n      dup6\n        /* \"#utility.yul\":8907:8929   */\n      add\n        /* \"#utility.yul\":8886:8939   */\n      tag_340\n      jump\t// in\n    tag_434:\n        /* \"#utility.yul\":8876:8939   */\n      swap2\n      pop\n        /* \"#utility.yul\":8832:8949   */\n      pop\n        /* \"#utility.yul\":8760:8956   */\n      swap3\n      swap2\n      pop\n      pop\n      jump\t// out\n        /* \"#utility.yul\":8962:9141   */\n    tag_435:\n        /* \"#utility.yul\":9031:9041   */\n      0x00\n        /* \"#utility.yul\":9052:9098   */\n      tag_437\n        /* \"#utility.yul\":9094:9097   */\n      dup4\n        /* \"#utility.yul\":9086:9092   */\n      dup4\n        /* \"#utility.yul\":9052:9098   */\n      tag_438\n      jump\t// in\n    tag_437:\n        /* \"#utility.yul\":9130:9134   */\n      0x20\n        /* \"#utility.yul\":9125:9128   */\n      dup4\n        /* \"#utility.yul\":9121:9135   */\n      add\n        /* \"#utility.yul\":9107:9135   */\n      swap1\n      pop\n        /* \"#utility.yul\":9042:9141   */\n      swap3\n      swap2\n      pop\n      pop\n      jump\t// out\n        /* \"#utility.yul\":9147:9326   */\n    tag_439:\n        /* \"#utility.yul\":9216:9226   */\n      0x00\n        /* \"#utility.yul\":9237:9283   */\n      tag_441\n        /* \"#utility.yul\":9279:9282   */\n      dup4\n        /* \"#utility.yul\":9271:9277   */\n      dup4\n        /* \"#utility.yul\":9237:9283   */\n      tag_442\n      jump\t// in\n    tag_441:\n        /* \"#utility.yul\":9315:9319   */\n      0x20\n        /* \"#utility.yul\":9310:9313   */\n      dup4\n        /* \"#utility.yul\":9306:9320   */\n      add\n        /* \"#utility.yul\":9292:9320   */\n      swap1\n      pop\n        /* \"#utility.yul\":9227:9326   */\n      swap3\n      swap2\n      pop\n      pop\n      jump\t// out\n        /* \"#utility.yul\":9332:9440   */\n    tag_438:\n        /* \"#utility.yul\":9409:9433   */\n      tag_444\n        /* \"#utility.yul\":9427:9432   */\n      dup2\n        /* \"#utility.yul\":9409:9433   */\n      tag_445\n      jump\t// in\n    tag_444:\n        /* \"#utility.yul\":9404:9407   */\n      dup3\n        /* \"#utility.yul\":9397:9434   */\n      mstore\n        /* \"#utility.yul\":9387:9440   */\n      pop\n      pop\n      jump\t// out\n        /* \"#utility.yul\":9446:9564   */\n    tag_446:\n        /* \"#utility.yul\":9533:9557   */\n      tag_448\n        /* \"#utility.yul\":9551:9556   */\n      dup2\n        /* \"#utility.yul\":9533:9557   */\n      tag_445\n      jump\t// in\n    tag_448:\n        /* \"#utility.yul\":9528:9531   */\n      dup3\n        /* \"#utility.yul\":9521:9558   */\n      mstore\n        /* \"#utility.yul\":9511:9564   */\n      pop\n      pop\n      jump\t// out\n        /* \"#utility.yul\":9600:10332   */\n    tag_449:\n        /* \"#utility.yul\":9719:9722   */\n      0x00\n        /* \"#utility.yul\":9748:9802   */\n      tag_451\n        /* \"#utility.yul\":9796:9801   */\n      dup3\n        /* \"#utility.yul\":9748:9802   */\n      tag_452\n      jump\t// in\n    tag_451:\n        /* \"#utility.yul\":9818:9904   */\n      tag_453\n        /* \"#utility.yul\":9897:9903   */\n      dup2\n        /* \"#utility.yul\":9892:9895   */\n      dup6\n        /* \"#utility.yul\":9818:9904   */\n      tag_454\n      jump\t// in\n    tag_453:\n        /* \"#utility.yul\":9811:9904   */\n      swap4\n      pop\n        /* \"#utility.yul\":9928:9984   */\n      tag_455\n        /* \"#utility.yul\":9978:9983   */\n      dup4\n        /* \"#utility.yul\":9928:9984   */\n      tag_456\n      jump\t// in\n    tag_455:\n        /* \"#utility.yul\":10007:10014   */\n      dup1\n        /* \"#utility.yul\":10038:10039   */\n      0x00\n        /* \"#utility.yul\":10023:10307   */\n    tag_457:\n        /* \"#utility.yul\":10048:10054   */\n      dup4\n        /* \"#utility.yul\":10045:10046   */\n      dup2\n        /* \"#utility.yul\":10042:10055   */\n      lt\n        /* \"#utility.yul\":10023:10307   */\n      iszero\n      tag_459\n      jumpi\n        /* \"#utility.yul\":10124:10130   */\n      dup2\n        /* \"#utility.yul\":10118:10131   */\n      mload\n        /* \"#utility.yul\":10151:10214   */\n      tag_460\n        /* \"#utility.yul\":10210:10213   */\n      dup9\n        /* \"#utility.yul\":10195:10208   */\n      dup3\n        /* \"#utility.yul\":10151:10214   */\n      tag_435\n      jump\t// in\n    tag_460:\n        /* \"#utility.yul\":10144:10214   */\n      swap8\n      pop\n        /* \"#utility.yul\":10237:10297   */\n      tag_461\n        /* \"#utility.yul\":10290:10296   */\n      dup4\n        /* \"#utility.yul\":10237:10297   */\n      tag_462\n      jump\t// in\n    tag_461:\n        /* \"#utility.yul\":10227:10297   */\n      swap3\n      pop\n        /* \"#utility.yul\":10083:10307   */\n      pop\n        /* \"#utility.yul\":10070:10071   */\n      0x01\n        /* \"#utility.yul\":10067:10068   */\n      dup2\n        /* \"#utility.yul\":10063:10072   */\n      add\n        /* \"#utility.yul\":10058:10072   */\n      swap1\n      pop\n        /* \"#utility.yul\":10023:10307   */\n      jump(tag_457)\n    tag_459:\n        /* \"#utility.yul\":10027:10041   */\n      pop\n        /* \"#utility.yul\":10323:10326   */\n      dup6\n        /* \"#utility.yul\":10316:10326   */\n      swap4\n      pop\n        /* \"#utility.yul\":9724:10332   */\n      pop\n      pop\n      pop\n      swap3\n      swap2\n      pop\n      pop\n      jump\t// out\n        /* \"#utility.yul\":10368:11100   */\n    tag_463:\n        /* \"#utility.yul\":10487:10490   */\n      0x00\n        /* \"#utility.yul\":10516:10570   */\n      tag_465\n        /* \"#utility.yul\":10564:10569   */\n      dup3\n        /* \"#utility.yul\":10516:10570   */\n      tag_466\n      jump\t// in\n    tag_465:\n        /* \"#utility.yul\":10586:10672   */\n      tag_467\n        /* \"#utility.yul\":10665:10671   */\n      dup2\n        /* \"#utility.yul\":10660:10663   */\n      dup6\n        /* \"#utility.yul\":10586:10672   */\n      tag_468\n      jump\t// in\n    tag_467:\n        /* \"#utility.yul\":10579:10672   */\n      swap4\n      pop\n        /* \"#utility.yul\":10696:10752   */\n      tag_469\n        /* \"#utility.yul\":10746:10751   */\n      dup4\n        /* \"#utility.yul\":10696:10752   */\n      tag_470\n      jump\t// in\n    tag_469:\n        /* \"#utility.yul\":10775:10782   */\n      dup1\n        /* \"#utility.yul\":10806:10807   */\n      0x00\n        /* \"#utility.yul\":10791:11075   */\n    tag_471:\n        /* \"#utility.yul\":10816:10822   */\n      dup4\n        /* \"#utility.yul\":10813:10814   */\n      dup2\n        /* \"#utility.yul\":10810:10823   */\n      lt\n        /* \"#utility.yul\":10791:11075   */\n      iszero\n      tag_473\n      jumpi\n        /* \"#utility.yul\":10892:10898   */\n      dup2\n        /* \"#utility.yul\":10886:10899   */\n      mload\n        /* \"#utility.yul\":10919:10982   */\n      tag_474\n        /* \"#utility.yul\":10978:10981   */\n      dup9\n        /* \"#utility.yul\":10963:10976   */\n      dup3\n        /* \"#utility.yul\":10919:10982   */\n      tag_439\n      jump\t// in\n    tag_474:\n        /* \"#utility.yul\":10912:10982   */\n      swap8\n      pop\n        /* \"#utility.yul\":11005:11065   */\n      tag_475\n        /* \"#utility.yul\":11058:11064   */\n      dup4\n        /* \"#utility.yul\":11005:11065   */\n      tag_476\n      jump\t// in\n    tag_475:\n        /* \"#utility.yul\":10995:11065   */\n      swap3\n      pop\n        /* \"#utility.yul\":10851:11075   */\n      pop\n        /* \"#utility.yul\":10838:10839   */\n      0x01\n        /* \"#utility.yul\":10835:10836   */\n      dup2\n        /* \"#utility.yul\":10831:10840   */\n      add\n        /* \"#utility.yul\":10826:10840   */\n      swap1\n      pop\n        /* \"#utility.yul\":10791:11075   */\n      jump(tag_471)\n    tag_473:\n        /* \"#utility.yul\":10795:10809   */\n      pop\n        /* \"#utility.yul\":11091:11094   */\n      dup6\n        /* \"#utility.yul\":11084:11094   */\n      swap4\n      pop\n        /* \"#utility.yul\":10492:11100   */\n      pop\n      pop\n      pop\n      swap3\n      swap2\n      pop\n      pop\n      jump\t// out\n        /* \"#utility.yul\":11106:11215   */\n    tag_477:\n        /* \"#utility.yul\":11187:11208   */\n      tag_479\n        /* \"#utility.yul\":11202:11207   */\n      dup2\n        /* \"#utility.yul\":11187:11208   */\n      tag_480\n      jump\t// in\n    tag_479:\n        /* \"#utility.yul\":11182:11185   */\n      dup3\n        /* \"#utility.yul\":11175:11209   */\n      mstore\n        /* \"#utility.yul\":11165:11215   */\n      pop\n      pop\n      jump\t// out\n        /* \"#utility.yul\":11221:11581   */\n    tag_481:\n        /* \"#utility.yul\":11307:11310   */\n      0x00\n        /* \"#utility.yul\":11335:11373   */\n      tag_483\n        /* \"#utility.yul\":11367:11372   */\n      dup3\n        /* \"#utility.yul\":11335:11373   */\n      tag_484\n      jump\t// in\n    tag_483:\n        /* \"#utility.yul\":11389:11459   */\n      tag_485\n        /* \"#utility.yul\":11452:11458   */\n      dup2\n        /* \"#utility.yul\":11447:11450   */\n      dup6\n        /* \"#utility.yul\":11389:11459   */\n      tag_486\n      jump\t// in\n    tag_485:\n        /* \"#utility.yul\":11382:11459   */\n      swap4\n      pop\n        /* \"#utility.yul\":11468:11520   */\n      tag_487\n        /* \"#utility.yul\":11513:11519   */\n      dup2\n        /* \"#utility.yul\":11508:11511   */\n      dup6\n        /* \"#utility.yul\":11501:11505   */\n      0x20\n        /* \"#utility.yul\":11494:11499   */\n      dup7\n        /* \"#utility.yul\":11490:11506   */\n      add\n        /* \"#utility.yul\":11468:11520   */\n      tag_488\n      jump\t// in\n    tag_487:\n        /* \"#utility.yul\":11545:11574   */\n      tag_489\n        /* \"#utility.yul\":11567:11573   */\n      dup2\n        /* \"#utility.yul\":11545:11574   */\n      tag_490\n      jump\t// in\n    tag_489:\n        /* \"#utility.yul\":11540:11543   */\n      dup5\n        /* \"#utility.yul\":11536:11575   */\n      add\n        /* \"#utility.yul\":11529:11575   */\n      swap2\n      pop\n        /* \"#utility.yul\":11311:11581   */\n      pop\n      swap3\n      swap2\n      pop\n      pop\n      jump\t// out\n        /* \"#utility.yul\":11587:11951   */\n    tag_491:\n        /* \"#utility.yul\":11675:11678   */\n      0x00\n        /* \"#utility.yul\":11703:11742   */\n      tag_493\n        /* \"#utility.yul\":11736:11741   */\n      dup3\n        /* \"#utility.yul\":11703:11742   */\n      tag_494\n      jump\t// in\n    tag_493:\n        /* \"#utility.yul\":11758:11829   */\n      tag_495\n        /* \"#utility.yul\":11822:11828   */\n      dup2\n        /* \"#utility.yul\":11817:11820   */\n      dup6\n        /* \"#utility.yul\":11758:11829   */\n      tag_496\n      jump\t// in\n    tag_495:\n        /* \"#utility.yul\":11751:11829   */\n      swap4\n      pop\n        /* \"#utility.yul\":11838:11890   */\n      tag_497\n        /* \"#utility.yul\":11883:11889   */\n      dup2\n        /* \"#utility.yul\":11878:11881   */\n      dup6\n        /* \"#utility.yul\":11871:11875   */\n      0x20\n        /* \"#utility.yul\":11864:11869   */\n      dup7\n        /* \"#utility.yul\":11860:11876   */\n      add\n        /* \"#utility.yul\":11838:11890   */\n      tag_488\n      jump\t// in\n    tag_497:\n        /* \"#utility.yul\":11915:11944   */\n      tag_498\n        /* \"#utility.yul\":11937:11943   */\n      dup2\n        /* \"#utility.yul\":11915:11944   */\n      tag_490\n      jump\t// in\n    tag_498:\n        /* \"#utility.yul\":11910:11913   */\n      dup5\n        /* \"#utility.yul\":11906:11945   */\n      add\n        /* \"#utility.yul\":11899:11945   */\n      swap2\n      pop\n        /* \"#utility.yul\":11679:11951   */\n      pop\n      swap3\n      swap2\n      pop\n      pop\n      jump\t// out\n        /* \"#utility.yul\":11957:12334   */\n    tag_499:\n        /* \"#utility.yul\":12063:12066   */\n      0x00\n        /* \"#utility.yul\":12091:12130   */\n      tag_501\n        /* \"#utility.yul\":12124:12129   */\n      dup3\n        /* \"#utility.yul\":12091:12130   */\n      tag_494\n      jump\t// in\n    tag_501:\n        /* \"#utility.yul\":12146:12235   */\n      tag_502\n        /* \"#utility.yul\":12228:12234   */\n      dup2\n        /* \"#utility.yul\":12223:12226   */\n      dup6\n        /* \"#utility.yul\":12146:12235   */\n      tag_503\n      jump\t// in\n    tag_502:\n        /* \"#utility.yul\":12139:12235   */\n      swap4\n      pop\n        /* \"#utility.yul\":12244:12296   */\n      tag_504\n        /* \"#utility.yul\":12289:12295   */\n      dup2\n        /* \"#utility.yul\":12284:12287   */\n      dup6\n        /* \"#utility.yul\":12277:12281   */\n      0x20\n        /* \"#utility.yul\":12270:12275   */\n      dup7\n        /* \"#utility.yul\":12266:12282   */\n      add\n        /* \"#utility.yul\":12244:12296   */\n      tag_488\n      jump\t// in\n    tag_504:\n        /* \"#utility.yul\":12321:12327   */\n      dup1\n        /* \"#utility.yul\":12316:12319   */\n      dup5\n        /* \"#utility.yul\":12312:12328   */\n      add\n        /* \"#utility.yul\":12305:12328   */\n      swap2\n      pop\n        /* \"#utility.yul\":12067:12334   */\n      pop\n      swap3\n      swap2\n      pop\n      pop\n      jump\t// out\n        /* \"#utility.yul\":12340:12706   */\n    tag_505:\n        /* \"#utility.yul\":12482:12485   */\n      0x00\n        /* \"#utility.yul\":12503:12570   */\n      tag_507\n        /* \"#utility.yul\":12567:12569   */\n      0x2d\n        /* \"#utility.yul\":12562:12565   */\n      dup4\n        /* \"#utility.yul\":12503:12570   */\n      tag_496\n      jump\t// in\n    tag_507:\n        /* \"#utility.yul\":12496:12570   */\n      swap2\n      pop\n        /* \"#utility.yul\":12579:12672   */\n      tag_508\n        /* \"#utility.yul\":12668:12671   */\n      dup3\n        /* \"#utility.yul\":12579:12672   */\n      tag_509\n      jump\t// in\n    tag_508:\n        /* \"#utility.yul\":12697:12699   */\n      0x40\n        /* \"#utility.yul\":12692:12695   */\n      dup3\n        /* \"#utility.yul\":12688:12700   */\n      add\n        /* \"#utility.yul\":12681:12700   */\n      swap1\n      pop\n        /* \"#utility.yul\":12486:12706   */\n      swap2\n      swap1\n      pop\n      jump\t// out\n        /* \"#utility.yul\":12712:13078   */\n    tag_510:\n        /* \"#utility.yul\":12854:12857   */\n      0x00\n        /* \"#utility.yul\":12875:12942   */\n      tag_512\n        /* \"#utility.yul\":12939:12941   */\n      0x32\n        /* \"#utility.yul\":12934:12937   */\n      dup4\n        /* \"#utility.yul\":12875:12942   */\n      tag_496\n      jump\t// in\n    tag_512:\n        /* \"#utility.yul\":12868:12942   */\n      swap2\n      pop\n        /* \"#utility.yul\":12951:13044   */\n      tag_513\n        /* \"#utility.yul\":13040:13043   */\n      dup3\n        /* \"#utility.yul\":12951:13044   */\n      tag_514\n      jump\t// in\n    tag_513:\n        /* \"#utility.yul\":13069:13071   */\n      0x40\n        /* \"#utility.yul\":13064:13067   */\n      dup3\n        /* \"#utility.yul\":13060:13072   */\n      add\n        /* \"#utility.yul\":13053:13072   */\n      swap1\n      pop\n        /* \"#utility.yul\":12858:13078   */\n      swap2\n      swap1\n      pop\n      jump\t// out\n        /* \"#utility.yul\":13084:13450   */\n    tag_515:\n        /* \"#utility.yul\":13226:13229   */\n      0x00\n        /* \"#utility.yul\":13247:13314   */\n      tag_517\n        /* \"#utility.yul\":13311:13313   */\n      0x25\n        /* \"#utility.yul\":13306:13309   */\n      dup4\n        /* \"#utility.yul\":13247:13314   */\n      tag_496\n      jump\t// in\n    tag_517:\n        /* \"#utility.yul\":13240:13314   */\n      swap2\n      pop\n        /* \"#utility.yul\":13323:13416   */\n      tag_518\n        /* \"#utility.yul\":13412:13415   */\n      dup3\n        /* \"#utility.yul\":13323:13416   */\n      tag_519\n      jump\t// in\n    tag_518:\n        /* \"#utility.yul\":13441:13443   */\n      0x40\n        /* \"#utility.yul\":13436:13439   */\n      dup3\n        /* \"#utility.yul\":13432:13444   */\n      add\n        /* \"#utility.yul\":13425:13444   */\n      swap1\n      pop\n        /* \"#utility.yul\":13230:13450   */\n      swap2\n      swap1\n      pop\n      jump\t// out\n        /* \"#utility.yul\":13456:13822   */\n    tag_520:\n        /* \"#utility.yul\":13598:13601   */\n      0x00\n        /* \"#utility.yul\":13619:13686   */\n      tag_522\n        /* \"#utility.yul\":13683:13685   */\n      0x1c\n        /* \"#utility.yul\":13678:13681   */\n      dup4\n        /* \"#utility.yul\":13619:13686   */\n      tag_496\n      jump\t// in\n    tag_522:\n        /* \"#utility.yul\":13612:13686   */\n      swap2\n      pop\n        /* \"#utility.yul\":13695:13788   */\n      tag_523\n        /* \"#utility.yul\":13784:13787   */\n      dup3\n        /* \"#utility.yul\":13695:13788   */\n      tag_524\n      jump\t// in\n    tag_523:\n        /* \"#utility.yul\":13813:13815   */\n      0x20\n        /* \"#utility.yul\":13808:13811   */\n      dup3\n        /* \"#utility.yul\":13804:13816   */\n      add\n        /* \"#utility.yul\":13797:13816   */\n      swap1\n      pop\n        /* \"#utility.yul\":13602:13822   */\n      swap2\n      swap1\n      pop\n      jump\t// out\n        /* \"#utility.yul\":13828:14194   */\n    tag_525:\n        /* \"#utility.yul\":13970:13973   */\n      0x00\n        /* \"#utility.yul\":13991:14058   */\n      tag_527\n        /* \"#utility.yul\":14055:14057   */\n      0x24\n        /* \"#utility.yul\":14050:14053   */\n      dup4\n        /* \"#utility.yul\":13991:14058   */\n      tag_496\n      jump\t// in\n    tag_527:\n        /* \"#utility.yul\":13984:14058   */\n      swap2\n      pop\n        /* \"#utility.yul\":14067:14160   */\n      tag_528\n        /* \"#utility.yul\":14156:14159   */\n      dup3\n        /* \"#utility.yul\":14067:14160   */\n      tag_529\n      jump\t// in\n    tag_528:\n        /* \"#utility.yul\":14185:14187   */\n      0x40\n        /* \"#utility.yul\":14180:14183   */\n      dup3\n        /* \"#utility.yul\":14176:14188   */\n      add\n        /* \"#utility.yul\":14169:14188   */\n      swap1\n      pop\n        /* \"#utility.yul\":13974:14194   */\n      swap2\n      swap1\n      pop\n      jump\t// out\n        /* \"#utility.yul\":14200:14566   */\n    tag_530:\n        /* \"#utility.yul\":14342:14345   */\n      0x00\n        /* \"#utility.yul\":14363:14430   */\n      tag_532\n        /* \"#utility.yul\":14427:14429   */\n      0x19\n        /* \"#utility.yul\":14422:14425   */\n      dup4\n        /* \"#utility.yul\":14363:14430   */\n      tag_496\n      jump\t// in\n    tag_532:\n        /* \"#utility.yul\":14356:14430   */\n      swap2\n      pop\n        /* \"#utility.yul\":14439:14532   */\n      tag_533\n        /* \"#utility.yul\":14528:14531   */\n      dup3\n        /* \"#utility.yul\":14439:14532   */\n      tag_534\n      jump\t// in\n    tag_533:\n        /* \"#utility.yul\":14557:14559   */\n      0x20\n        /* \"#utility.yul\":14552:14555   */\n      dup3\n        /* \"#utility.yul\":14548:14560   */\n      add\n        /* \"#utility.yul\":14541:14560   */\n      swap1\n      pop\n        /* \"#utility.yul\":14346:14566   */\n      swap2\n      swap1\n      pop\n      jump\t// out\n        /* \"#utility.yul\":14572:14938   */\n    tag_535:\n        /* \"#utility.yul\":14714:14717   */\n      0x00\n        /* \"#utility.yul\":14735:14802   */\n      tag_537\n        /* \"#utility.yul\":14799:14801   */\n      0x29\n        /* \"#utility.yul\":14794:14797   */\n      dup4\n        /* \"#utility.yul\":14735:14802   */\n      tag_496\n      jump\t// in\n    tag_537:\n        /* \"#utility.yul\":14728:14802   */\n      swap2\n      pop\n        /* \"#utility.yul\":14811:14904   */\n      tag_538\n        /* \"#utility.yul\":14900:14903   */\n      dup3\n        /* \"#utility.yul\":14811:14904   */\n      tag_539\n      jump\t// in\n    tag_538:\n        /* \"#utility.yul\":14929:14931   */\n      0x40\n        /* \"#utility.yul\":14924:14927   */\n      dup3\n        /* \"#utility.yul\":14920:14932   */\n      add\n        /* \"#utility.yul\":14913:14932   */\n      swap1\n      pop\n        /* \"#utility.yul\":14718:14938   */\n      swap2\n      swap1\n      pop\n      jump\t// out\n        /* \"#utility.yul\":14944:15310   */\n    tag_540:\n        /* \"#utility.yul\":15086:15089   */\n      0x00\n        /* \"#utility.yul\":15107:15174   */\n      tag_542\n        /* \"#utility.yul\":15171:15173   */\n      0x20\n        /* \"#utility.yul\":15166:15169   */\n      dup4\n        /* \"#utility.yul\":15107:15174   */\n      tag_496\n      jump\t// in\n    tag_542:\n        /* \"#utility.yul\":15100:15174   */\n      swap2\n      pop\n        /* \"#utility.yul\":15183:15276   */\n      tag_543\n        /* \"#utility.yul\":15272:15275   */\n      dup3\n        /* \"#utility.yul\":15183:15276   */\n      tag_544\n      jump\t// in\n    tag_543:\n        /* \"#utility.yul\":15301:15303   */\n      0x20\n        /* \"#utility.yul\":15296:15299   */\n      dup3\n        /* \"#utility.yul\":15292:15304   */\n      add\n        /* \"#utility.yul\":15285:15304   */\n      swap1\n      pop\n        /* \"#utility.yul\":15090:15310   */\n      swap2\n      swap1\n      pop\n      jump\t// out\n        /* \"#utility.yul\":15316:15682   */\n    tag_545:\n        /* \"#utility.yul\":15458:15461   */\n      0x00\n        /* \"#utility.yul\":15479:15546   */\n      tag_547\n        /* \"#utility.yul\":15543:15545   */\n      0x18\n        /* \"#utility.yul\":15538:15541   */\n      dup4\n        /* \"#utility.yul\":15479:15546   */\n      tag_496\n      jump\t// in\n    tag_547:\n        /* \"#utility.yul\":15472:15546   */\n      swap2\n      pop\n        /* \"#utility.yul\":15555:15648   */\n      tag_548\n        /* \"#utility.yul\":15644:15647   */\n      dup3\n        /* \"#utility.yul\":15555:15648   */\n      tag_549\n      jump\t// in\n    tag_548:\n        /* \"#utility.yul\":15673:15675   */\n      0x20\n        /* \"#utility.yul\":15668:15671   */\n      dup3\n        /* \"#utility.yul\":15664:15676   */\n      add\n        /* \"#utility.yul\":15657:15676   */\n      swap1\n      pop\n        /* \"#utility.yul\":15462:15682   */\n      swap2\n      swap1\n      pop\n      jump\t// out\n        /* \"#utility.yul\":15688:16054   */\n    tag_550:\n        /* \"#utility.yul\":15830:15833   */\n      0x00\n        /* \"#utility.yul\":15851:15918   */\n      tag_552\n        /* \"#utility.yul\":15915:15917   */\n      0x21\n        /* \"#utility.yul\":15910:15913   */\n      dup4\n        /* \"#utility.yul\":15851:15918   */\n      tag_496\n      jump\t// in\n    tag_552:\n        /* \"#utility.yul\":15844:15918   */\n      swap2\n      pop\n        /* \"#utility.yul\":15927:16020   */\n      tag_553\n        /* \"#utility.yul\":16016:16019   */\n      dup3\n        /* \"#utility.yul\":15927:16020   */\n      tag_554\n      jump\t// in\n    tag_553:\n        /* \"#utility.yul\":16045:16047   */\n      0x40\n        /* \"#utility.yul\":16040:16043   */\n      dup3\n        /* \"#utility.yul\":16036:16048   */\n      add\n        /* \"#utility.yul\":16029:16048   */\n      swap1\n      pop\n        /* \"#utility.yul\":15834:16054   */\n      swap2\n      swap1\n      pop\n      jump\t// out\n        /* \"#utility.yul\":16060:16426   */\n    tag_555:\n        /* \"#utility.yul\":16202:16205   */\n      0x00\n        /* \"#utility.yul\":16223:16290   */\n      tag_557\n        /* \"#utility.yul\":16287:16289   */\n      0x3d\n        /* \"#utility.yul\":16282:16285   */\n      dup4\n        /* \"#utility.yul\":16223:16290   */\n      tag_496\n      jump\t// in\n    tag_557:\n        /* \"#utility.yul\":16216:16290   */\n      swap2\n      pop\n        /* \"#utility.yul\":16299:16392   */\n      tag_558\n        /* \"#utility.yul\":16388:16391   */\n      dup3\n        /* \"#utility.yul\":16299:16392   */\n      tag_559\n      jump\t// in\n    tag_558:\n        /* \"#utility.yul\":16417:16419   */\n      0x40\n        /* \"#utility.yul\":16412:16415   */\n      dup3\n        /* \"#utility.yul\":16408:16420   */\n      add\n        /* \"#utility.yul\":16401:16420   */\n      swap1\n      pop\n        /* \"#utility.yul\":16206:16426   */\n      swap2\n      swap1\n      pop\n      jump\t// out\n        /* \"#utility.yul\":16432:16540   */\n    tag_442:\n        /* \"#utility.yul\":16509:16533   */\n      tag_561\n        /* \"#utility.yul\":16527:16532   */\n      dup2\n        /* \"#utility.yul\":16509:16533   */\n      tag_562\n      jump\t// in\n    tag_561:\n        /* \"#utility.yul\":16504:16507   */\n      dup3\n        /* \"#utility.yul\":16497:16534   */\n      mstore\n        /* \"#utility.yul\":16487:16540   */\n      pop\n      pop\n      jump\t// out\n        /* \"#utility.yul\":16546:16664   */\n    tag_563:\n        /* \"#utility.yul\":16633:16657   */\n      tag_565\n        /* \"#utility.yul\":16651:16656   */\n      dup2\n        /* \"#utility.yul\":16633:16657   */\n      tag_562\n      jump\t// in\n    tag_565:\n        /* \"#utility.yul\":16628:16631   */\n      dup3\n        /* \"#utility.yul\":16621:16658   */\n      mstore\n        /* \"#utility.yul\":16611:16664   */\n      pop\n      pop\n      jump\t// out\n        /* \"#utility.yul\":16670:17105   */\n    tag_176:\n        /* \"#utility.yul\":16850:16853   */\n      0x00\n        /* \"#utility.yul\":16872:16967   */\n      tag_567\n        /* \"#utility.yul\":16963:16966   */\n      dup3\n        /* \"#utility.yul\":16954:16960   */\n      dup6\n        /* \"#utility.yul\":16872:16967   */\n      tag_499\n      jump\t// in\n    tag_567:\n        /* \"#utility.yul\":16865:16967   */\n      swap2\n      pop\n        /* \"#utility.yul\":16984:17079   */\n      tag_568\n        /* \"#utility.yul\":17075:17078   */\n      dup3\n        /* \"#utility.yul\":17066:17072   */\n      dup5\n        /* \"#utility.yul\":16984:17079   */\n      tag_499\n      jump\t// in\n    tag_568:\n        /* \"#utility.yul\":16977:17079   */\n      swap2\n      pop\n        /* \"#utility.yul\":17096:17099   */\n      dup2\n        /* \"#utility.yul\":17089:17099   */\n      swap1\n      pop\n        /* \"#utility.yul\":16854:17105   */\n      swap4\n      swap3\n      pop\n      pop\n      pop\n      jump\t// out\n        /* \"#utility.yul\":17111:17333   */\n    tag_37:\n        /* \"#utility.yul\":17204:17208   */\n      0x00\n        /* \"#utility.yul\":17242:17244   */\n      0x20\n        /* \"#utility.yul\":17231:17240   */\n      dup3\n        /* \"#utility.yul\":17227:17245   */\n      add\n        /* \"#utility.yul\":17219:17245   */\n      swap1\n      pop\n        /* \"#utility.yul\":17255:17326   */\n      tag_570\n        /* \"#utility.yul\":17323:17324   */\n      0x00\n        /* \"#utility.yul\":17312:17321   */\n      dup4\n        /* \"#utility.yul\":17308:17325   */\n      add\n        /* \"#utility.yul\":17299:17305   */\n      dup5\n        /* \"#utility.yul\":17255:17326   */\n      tag_446\n      jump\t// in\n    tag_570:\n        /* \"#utility.yul\":17209:17333   */\n      swap3\n      swap2\n      pop\n      pop\n      jump\t// out\n        /* \"#utility.yul\":17339:17979   */\n    tag_265:\n        /* \"#utility.yul\":17534:17538   */\n      0x00\n        /* \"#utility.yul\":17572:17575   */\n      0x80\n        /* \"#utility.yul\":17561:17570   */\n      dup3\n        /* \"#utility.yul\":17557:17576   */\n      add\n        /* \"#utility.yul\":17549:17576   */\n      swap1\n      pop\n        /* \"#utility.yul\":17586:17657   */\n      tag_572\n        /* \"#utility.yul\":17654:17655   */\n      0x00\n        /* \"#utility.yul\":17643:17652   */\n      dup4\n        /* \"#utility.yul\":17639:17656   */\n      add\n        /* \"#utility.yul\":17630:17636   */\n      dup8\n        /* \"#utility.yul\":17586:17657   */\n      tag_446\n      jump\t// in\n    tag_572:\n        /* \"#utility.yul\":17667:17739   */\n      tag_573\n        /* \"#utility.yul\":17735:17737   */\n      0x20\n        /* \"#utility.yul\":17724:17733   */\n      dup4\n        /* \"#utility.yul\":17720:17738   */\n      add\n        /* \"#utility.yul\":17711:17717   */\n      dup7\n        /* \"#utility.yul\":17667:17739   */\n      tag_446\n      jump\t// in\n    tag_573:\n        /* \"#utility.yul\":17749:17821   */\n      tag_574\n        /* \"#utility.yul\":17817:17819   */\n      0x40\n        /* \"#utility.yul\":17806:17815   */\n      dup4\n        /* \"#utility.yul\":17802:17820   */\n      add\n        /* \"#utility.yul\":17793:17799   */\n      dup6\n        /* \"#utility.yul\":17749:17821   */\n      tag_563\n      jump\t// in\n    tag_574:\n        /* \"#utility.yul\":17868:17877   */\n      dup2\n        /* \"#utility.yul\":17862:17866   */\n      dup2\n        /* \"#utility.yul\":17858:17878   */\n      sub\n        /* \"#utility.yul\":17853:17855   */\n      0x60\n        /* \"#utility.yul\":17842:17851   */\n      dup4\n        /* \"#utility.yul\":17838:17856   */\n      add\n        /* \"#utility.yul\":17831:17879   */\n      mstore\n        /* \"#utility.yul\":17896:17972   */\n      tag_575\n        /* \"#utility.yul\":17967:17971   */\n      dup2\n        /* \"#utility.yul\":17958:17964   */\n      dup5\n        /* \"#utility.yul\":17896:17972   */\n      tag_481\n      jump\t// in\n    tag_575:\n        /* \"#utility.yul\":17888:17972   */\n      swap1\n      pop\n        /* \"#utility.yul\":17539:17979   */\n      swap6\n      swap5\n      pop\n      pop\n      pop\n      pop\n      pop\n      jump\t// out\n        /* \"#utility.yul\":17985:18358   */\n    tag_57:\n        /* \"#utility.yul\":18128:18132   */\n      0x00\n        /* \"#utility.yul\":18166:18168   */\n      0x20\n        /* \"#utility.yul\":18155:18164   */\n      dup3\n        /* \"#utility.yul\":18151:18169   */\n      add\n        /* \"#utility.yul\":18143:18169   */\n      swap1\n      pop\n        /* \"#utility.yul\":18215:18224   */\n      dup2\n        /* \"#utility.yul\":18209:18213   */\n      dup2\n        /* \"#utility.yul\":18205:18225   */\n      sub\n        /* \"#utility.yul\":18201:18202   */\n      0x00\n        /* \"#utility.yul\":18190:18199   */\n      dup4\n        /* \"#utility.yul\":18186:18203   */\n      add\n        /* \"#utility.yul\":18179:18226   */\n      mstore\n        /* \"#utility.yul\":18243:18351   */\n      tag_577\n        /* \"#utility.yul\":18346:18350   */\n      dup2\n        /* \"#utility.yul\":18337:18343   */\n      dup5\n        /* \"#utility.yul\":18243:18351   */\n      tag_449\n      jump\t// in\n    tag_577:\n        /* \"#utility.yul\":18235:18351   */\n      swap1\n      pop\n        /* \"#utility.yul\":18133:18358   */\n      swap3\n      swap2\n      pop\n      pop\n      jump\t// out\n        /* \"#utility.yul\":18364:18737   */\n    tag_92:\n        /* \"#utility.yul\":18507:18511   */\n      0x00\n        /* \"#utility.yul\":18545:18547   */\n      0x20\n        /* \"#utility.yul\":18534:18543   */\n      dup3\n        /* \"#utility.yul\":18530:18548   */\n      add\n        /* \"#utility.yul\":18522:18548   */\n      swap1\n      pop\n        /* \"#utility.yul\":18594:18603   */\n      dup2\n        /* \"#utility.yul\":18588:18592   */\n      dup2\n        /* \"#utility.yul\":18584:18604   */\n      sub\n        /* \"#utility.yul\":18580:18581   */\n      0x00\n        /* \"#utility.yul\":18569:18578   */\n      dup4\n        /* \"#utility.yul\":18565:18582   */\n      add\n        /* \"#utility.yul\":18558:18605   */\n      mstore\n        /* \"#utility.yul\":18622:18730   */\n      tag_579\n        /* \"#utility.yul\":18725:18729   */\n      dup2\n        /* \"#utility.yul\":18716:18722   */\n      dup5\n        /* \"#utility.yul\":18622:18730   */\n      tag_463\n      jump\t// in\n    tag_579:\n        /* \"#utility.yul\":18614:18730   */\n      swap1\n      pop\n        /* \"#utility.yul\":18512:18737   */\n      swap3\n      swap2\n      pop\n      pop\n      jump\t// out\n        /* \"#utility.yul\":18743:18953   */\n    tag_27:\n        /* \"#utility.yul\":18830:18834   */\n      0x00\n        /* \"#utility.yul\":18868:18870   */\n      0x20\n        /* \"#utility.yul\":18857:18866   */\n      dup3\n        /* \"#utility.yul\":18853:18871   */\n      add\n        /* \"#utility.yul\":18845:18871   */\n      swap1\n      pop\n        /* \"#utility.yul\":18881:18946   */\n      tag_581\n        /* \"#utility.yul\":18943:18944   */\n      0x00\n        /* \"#utility.yul\":18932:18941   */\n      dup4\n        /* \"#utility.yul\":18928:18945   */\n      add\n        /* \"#utility.yul\":18919:18925   */\n      dup5\n        /* \"#utility.yul\":18881:18946   */\n      tag_477\n      jump\t// in\n    tag_581:\n        /* \"#utility.yul\":18835:18953   */\n      swap3\n      swap2\n      pop\n      pop\n      jump\t// out\n        /* \"#utility.yul\":18959:19272   */\n    tag_31:\n        /* \"#utility.yul\":19072:19076   */\n      0x00\n        /* \"#utility.yul\":19110:19112   */\n      0x20\n        /* \"#utility.yul\":19099:19108   */\n      dup3\n        /* \"#utility.yul\":19095:19113   */\n      add\n        /* \"#utility.yul\":19087:19113   */\n      swap1\n      pop\n        /* \"#utility.yul\":19159:19168   */\n      dup2\n        /* \"#utility.yul\":19153:19157   */\n      dup2\n        /* \"#utility.yul\":19149:19169   */\n      sub\n        /* \"#utility.yul\":19145:19146   */\n      0x00\n        /* \"#utility.yul\":19134:19143   */\n      dup4\n        /* \"#utility.yul\":19130:19147   */\n      add\n        /* \"#utility.yul\":19123:19170   */\n      mstore\n        /* \"#utility.yul\":19187:19265   */\n      tag_583\n        /* \"#utility.yul\":19260:19264   */\n      dup2\n        /* \"#utility.yul\":19251:19257   */\n      dup5\n        /* \"#utility.yul\":19187:19265   */\n      tag_491\n      jump\t// in\n    tag_583:\n        /* \"#utility.yul\":19179:19265   */\n      swap1\n      pop\n        /* \"#utility.yul\":19077:19272   */\n      swap3\n      swap2\n      pop\n      pop\n      jump\t// out\n        /* \"#utility.yul\":19278:19697   */\n    tag_129:\n        /* \"#utility.yul\":19444:19448   */\n      0x00\n        /* \"#utility.yul\":19482:19484   */\n      0x20\n        /* \"#utility.yul\":19471:19480   */\n      dup3\n        /* \"#utility.yul\":19467:19485   */\n      add\n        /* \"#utility.yul\":19459:19485   */\n      swap1\n      pop\n        /* \"#utility.yul\":19531:19540   */\n      dup2\n        /* \"#utility.yul\":19525:19529   */\n      dup2\n        /* \"#utility.yul\":19521:19541   */\n      sub\n        /* \"#utility.yul\":19517:19518   */\n      0x00\n        /* \"#utility.yul\":19506:19515   */\n      dup4\n        /* \"#utility.yul\":19502:19519   */\n      add\n        /* \"#utility.yul\":19495:19542   */\n      mstore\n        /* \"#utility.yul\":19559:19690   */\n      tag_585\n        /* \"#utility.yul\":19685:19689   */\n      dup2\n        /* \"#utility.yul\":19559:19690   */\n      tag_505\n      jump\t// in\n    tag_585:\n        /* \"#utility.yul\":19551:19690   */\n      swap1\n      pop\n        /* \"#utility.yul\":19449:19697   */\n      swap2\n      swap1\n      pop\n      jump\t// out\n        /* \"#utility.yul\":19703:20122   */\n    tag_228:\n        /* \"#utility.yul\":19869:19873   */\n      0x00\n        /* \"#utility.yul\":19907:19909   */\n      0x20\n        /* \"#utility.yul\":19896:19905   */\n      dup3\n        /* \"#utility.yul\":19892:19910   */\n      add\n        /* \"#utility.yul\":19884:19910   */\n      swap1\n      pop\n        /* \"#utility.yul\":19956:19965   */\n      dup2\n        /* \"#utility.yul\":19950:19954   */\n      dup2\n        /* \"#utility.yul\":19946:19966   */\n      sub\n        /* \"#utility.yul\":19942:19943   */\n      0x00\n        /* \"#utility.yul\":19931:19940   */\n      dup4\n        /* \"#utility.yul\":19927:19944   */\n      add\n        /* \"#utility.yul\":19920:19967   */\n      mstore\n        /* \"#utility.yul\":19984:20115   */\n      tag_587\n        /* \"#utility.yul\":20110:20114   */\n      dup2\n        /* \"#utility.yul\":19984:20115   */\n      tag_510\n      jump\t// in\n    tag_587:\n        /* \"#utility.yul\":19976:20115   */\n      swap1\n      pop\n        /* \"#utility.yul\":19874:20122   */\n      swap2\n      swap1\n      pop\n      jump\t// out\n        /* \"#utility.yul\":20128:20547   */\n    tag_200:\n        /* \"#utility.yul\":20294:20298   */\n      0x00\n        /* \"#utility.yul\":20332:20334   */\n      0x20\n        /* \"#utility.yul\":20321:20330   */\n      dup3\n        /* \"#utility.yul\":20317:20335   */\n      add\n        /* \"#utility.yul\":20309:20335   */\n      swap1\n      pop\n        /* \"#utility.yul\":20381:20390   */\n      dup2\n        /* \"#utility.yul\":20375:20379   */\n      dup2\n        /* \"#utility.yul\":20371:20391   */\n      sub\n        /* \"#utility.yul\":20367:20368   */\n      0x00\n        /* \"#utility.yul\":20356:20365   */\n      dup4\n        /* \"#utility.yul\":20352:20369   */\n      add\n        /* \"#utility.yul\":20345:20392   */\n      mstore\n        /* \"#utility.yul\":20409:20540   */\n      tag_589\n        /* \"#utility.yul\":20535:20539   */\n      dup2\n        /* \"#utility.yul\":20409:20540   */\n      tag_515\n      jump\t// in\n    tag_589:\n        /* \"#utility.yul\":20401:20540   */\n      swap1\n      pop\n        /* \"#utility.yul\":20299:20547   */\n      swap2\n      swap1\n      pop\n      jump\t// out\n        /* \"#utility.yul\":20553:20972   */\n    tag_288:\n        /* \"#utility.yul\":20719:20723   */\n      0x00\n        /* \"#utility.yul\":20757:20759   */\n      0x20\n        /* \"#utility.yul\":20746:20755   */\n      dup3\n        /* \"#utility.yul\":20742:20760   */\n      add\n        /* \"#utility.yul\":20734:20760   */\n      swap1\n      pop\n        /* \"#utility.yul\":20806:20815   */\n      dup2\n        /* \"#utility.yul\":20800:20804   */\n      dup2\n        /* \"#utility.yul\":20796:20816   */\n      sub\n        /* \"#utility.yul\":20792:20793   */\n      0x00\n        /* \"#utility.yul\":20781:20790   */\n      dup4\n        /* \"#utility.yul\":20777:20794   */\n      add\n        /* \"#utility.yul\":20770:20817   */\n      mstore\n        /* \"#utility.yul\":20834:20965   */\n      tag_591\n        /* \"#utility.yul\":20960:20964   */\n      dup2\n        /* \"#utility.yul\":20834:20965   */\n      tag_520\n      jump\t// in\n    tag_591:\n        /* \"#utility.yul\":20826:20965   */\n      swap1\n      pop\n        /* \"#utility.yul\":20724:20972   */\n      swap2\n      swap1\n      pop\n      jump\t// out\n        /* \"#utility.yul\":20978:21397   */\n    tag_203:\n        /* \"#utility.yul\":21144:21148   */\n      0x00\n        /* \"#utility.yul\":21182:21184   */\n      0x20\n        /* \"#utility.yul\":21171:21180   */\n      dup3\n        /* \"#utility.yul\":21167:21185   */\n      add\n        /* \"#utility.yul\":21159:21185   */\n      swap1\n      pop\n        /* \"#utility.yul\":21231:21240   */\n      dup2\n        /* \"#utility.yul\":21225:21229   */\n      dup2\n        /* \"#utility.yul\":21221:21241   */\n      sub\n        /* \"#utility.yul\":21217:21218   */\n      0x00\n        /* \"#utility.yul\":21206:21215   */\n      dup4\n        /* \"#utility.yul\":21202:21219   */\n      add\n        /* \"#utility.yul\":21195:21242   */\n      mstore\n        /* \"#utility.yul\":21259:21390   */\n      tag_593\n        /* \"#utility.yul\":21385:21389   */\n      dup2\n        /* \"#utility.yul\":21259:21390   */\n      tag_525\n      jump\t// in\n    tag_593:\n        /* \"#utility.yul\":21251:21390   */\n      swap1\n      pop\n        /* \"#utility.yul\":21149:21397   */\n      swap2\n      swap1\n      pop\n      jump\t// out\n        /* \"#utility.yul\":21403:21822   */\n    tag_220:\n        /* \"#utility.yul\":21569:21573   */\n      0x00\n        /* \"#utility.yul\":21607:21609   */\n      0x20\n        /* \"#utility.yul\":21596:21605   */\n      dup3\n        /* \"#utility.yul\":21592:21610   */\n      add\n        /* \"#utility.yul\":21584:21610   */\n      swap1\n      pop\n        /* \"#utility.yul\":21656:21665   */\n      dup2\n        /* \"#utility.yul\":21650:21654   */\n      dup2\n        /* \"#utility.yul\":21646:21666   */\n      sub\n        /* \"#utility.yul\":21642:21643   */\n      0x00\n        /* \"#utility.yul\":21631:21640   */\n      dup4\n        /* \"#utility.yul\":21627:21644   */\n      add\n        /* \"#utility.yul\":21620:21667   */\n      mstore\n        /* \"#utility.yul\":21684:21815   */\n      tag_595\n        /* \"#utility.yul\":21810:21814   */\n      dup2\n        /* \"#utility.yul\":21684:21815   */\n      tag_530\n      jump\t// in\n    tag_595:\n        /* \"#utility.yul\":21676:21815   */\n      swap1\n      pop\n        /* \"#utility.yul\":21574:21822   */\n      swap2\n      swap1\n      pop\n      jump\t// out\n        /* \"#utility.yul\":21828:22247   */\n    tag_149:\n        /* \"#utility.yul\":21994:21998   */\n      0x00\n        /* \"#utility.yul\":22032:22034   */\n      0x20\n        /* \"#utility.yul\":22021:22030   */\n      dup3\n        /* \"#utility.yul\":22017:22035   */\n      add\n        /* \"#utility.yul\":22009:22035   */\n      swap1\n      pop\n        /* \"#utility.yul\":22081:22090   */\n      dup2\n        /* \"#utility.yul\":22075:22079   */\n      dup2\n        /* \"#utility.yul\":22071:22091   */\n      sub\n        /* \"#utility.yul\":22067:22068   */\n      0x00\n        /* \"#utility.yul\":22056:22065   */\n      dup4\n        /* \"#utility.yul\":22052:22069   */\n      add\n        /* \"#utility.yul\":22045:22092   */\n      mstore\n        /* \"#utility.yul\":22109:22240   */\n      tag_597\n        /* \"#utility.yul\":22235:22239   */\n      dup2\n        /* \"#utility.yul\":22109:22240   */\n      tag_535\n      jump\t// in\n    tag_597:\n        /* \"#utility.yul\":22101:22240   */\n      swap1\n      pop\n        /* \"#utility.yul\":21999:22247   */\n      swap2\n      swap1\n      pop\n      jump\t// out\n        /* \"#utility.yul\":22253:22672   */\n    tag_284:\n        /* \"#utility.yul\":22419:22423   */\n      0x00\n        /* \"#utility.yul\":22457:22459   */\n      0x20\n        /* \"#utility.yul\":22446:22455   */\n      dup3\n        /* \"#utility.yul\":22442:22460   */\n      add\n        /* \"#utility.yul\":22434:22460   */\n      swap1\n      pop\n        /* \"#utility.yul\":22506:22515   */\n      dup2\n        /* \"#utility.yul\":22500:22504   */\n      dup2\n        /* \"#utility.yul\":22496:22516   */\n      sub\n        /* \"#utility.yul\":22492:22493   */\n      0x00\n        /* \"#utility.yul\":22481:22490   */\n      dup4\n        /* \"#utility.yul\":22477:22494   */\n      add\n        /* \"#utility.yul\":22470:22517   */\n      mstore\n        /* \"#utility.yul\":22534:22665   */\n      tag_599\n        /* \"#utility.yul\":22660:22664   */\n      dup2\n        /* \"#utility.yul\":22534:22665   */\n      tag_540\n      jump\t// in\n    tag_599:\n        /* \"#utility.yul\":22526:22665   */\n      swap1\n      pop\n        /* \"#utility.yul\":22424:22672   */\n      swap2\n      swap1\n      pop\n      jump\t// out\n        /* \"#utility.yul\":22678:23097   */\n    tag_145:\n        /* \"#utility.yul\":22844:22848   */\n      0x00\n        /* \"#utility.yul\":22882:22884   */\n      0x20\n        /* \"#utility.yul\":22871:22880   */\n      dup3\n        /* \"#utility.yul\":22867:22885   */\n      add\n        /* \"#utility.yul\":22859:22885   */\n      swap1\n      pop\n        /* \"#utility.yul\":22931:22940   */\n      dup2\n        /* \"#utility.yul\":22925:22929   */\n      dup2\n        /* \"#utility.yul\":22921:22941   */\n      sub\n        /* \"#utility.yul\":22917:22918   */\n      0x00\n        /* \"#utility.yul\":22906:22915   */\n      dup4\n        /* \"#utility.yul\":22902:22919   */\n      add\n        /* \"#utility.yul\":22895:22942   */\n      mstore\n        /* \"#utility.yul\":22959:23090   */\n      tag_601\n        /* \"#utility.yul\":23085:23089   */\n      dup2\n        /* \"#utility.yul\":22959:23090   */\n      tag_545\n      jump\t// in\n    tag_601:\n        /* \"#utility.yul\":22951:23090   */\n      swap1\n      pop\n        /* \"#utility.yul\":22849:23097   */\n      swap2\n      swap1\n      pop\n      jump\t// out\n        /* \"#utility.yul\":23103:23522   */\n    tag_112:\n        /* \"#utility.yul\":23269:23273   */\n      0x00\n        /* \"#utility.yul\":23307:23309   */\n      0x20\n        /* \"#utility.yul\":23296:23305   */\n      dup3\n        /* \"#utility.yul\":23292:23310   */\n      add\n        /* \"#utility.yul\":23284:23310   */\n      swap1\n      pop\n        /* \"#utility.yul\":23356:23365   */\n      dup2\n        /* \"#utility.yul\":23350:23354   */\n      dup2\n        /* \"#utility.yul\":23346:23366   */\n      sub\n        /* \"#utility.yul\":23342:23343   */\n      0x00\n        /* \"#utility.yul\":23331:23340   */\n      dup4\n        /* \"#utility.yul\":23327:23344   */\n      add\n        /* \"#utility.yul\":23320:23367   */\n      mstore\n        /* \"#utility.yul\":23384:23515   */\n      tag_603\n        /* \"#utility.yul\":23510:23514   */\n      dup2\n        /* \"#utility.yul\":23384:23515   */\n      tag_550\n      jump\t// in\n    tag_603:\n        /* \"#utility.yul\":23376:23515   */\n      swap1\n      pop\n        /* \"#utility.yul\":23274:23522   */\n      swap2\n      swap1\n      pop\n      jump\t// out\n        /* \"#utility.yul\":23528:23947   */\n    tag_120:\n        /* \"#utility.yul\":23694:23698   */\n      0x00\n        /* \"#utility.yul\":23732:23734   */\n      0x20\n        /* \"#utility.yul\":23721:23730   */\n      dup3\n        /* \"#utility.yul\":23717:23735   */\n      add\n        /* \"#utility.yul\":23709:23735   */\n      swap1\n      pop\n        /* \"#utility.yul\":23781:23790   */\n      dup2\n        /* \"#utility.yul\":23775:23779   */\n      dup2\n        /* \"#utility.yul\":23771:23791   */\n      sub\n        /* \"#utility.yul\":23767:23768   */\n      0x00\n        /* \"#utility.yul\":23756:23765   */\n      dup4\n        /* \"#utility.yul\":23752:23769   */\n      add\n        /* \"#utility.yul\":23745:23792   */\n      mstore\n        /* \"#utility.yul\":23809:23940   */\n      tag_605\n        /* \"#utility.yul\":23935:23939   */\n      dup2\n        /* \"#utility.yul\":23809:23940   */\n      tag_555\n      jump\t// in\n    tag_605:\n        /* \"#utility.yul\":23801:23940   */\n      swap1\n      pop\n        /* \"#utility.yul\":23699:23947   */\n      swap2\n      swap1\n      pop\n      jump\t// out\n        /* \"#utility.yul\":23953:24175   */\n    tag_67:\n        /* \"#utility.yul\":24046:24050   */\n      0x00\n        /* \"#utility.yul\":24084:24086   */\n      0x20\n        /* \"#utility.yul\":24073:24082   */\n      dup3\n        /* \"#utility.yul\":24069:24087   */\n      add\n        /* \"#utility.yul\":24061:24087   */\n      swap1\n      pop\n        /* \"#utility.yul\":24097:24168   */\n      tag_607\n        /* \"#utility.yul\":24165:24166   */\n      0x00\n        /* \"#utility.yul\":24154:24163   */\n      dup4\n        /* \"#utility.yul\":24150:24167   */\n      add\n        /* \"#utility.yul\":24141:24147   */\n      dup5\n        /* \"#utility.yul\":24097:24168   */\n      tag_563\n      jump\t// in\n    tag_607:\n        /* \"#utility.yul\":24051:24175   */\n      swap3\n      swap2\n      pop\n      pop\n      jump\t// out\n        /* \"#utility.yul\":24181:24310   */\n    tag_323:\n        /* \"#utility.yul\":24215:24221   */\n      0x00\n        /* \"#utility.yul\":24242:24262   */\n      tag_609\n      tag_610\n      jump\t// in\n    tag_609:\n        /* \"#utility.yul\":24232:24262   */\n      swap1\n      pop\n        /* \"#utility.yul\":24271:24304   */\n      tag_611\n        /* \"#utility.yul\":24299:24303   */\n      dup3\n        /* \"#utility.yul\":24291:24297   */\n      dup3\n        /* \"#utility.yul\":24271:24304   */\n      tag_612\n      jump\t// in\n    tag_611:\n        /* \"#utility.yul\":24222:24310   */\n      swap2\n      swap1\n      pop\n      jump\t// out\n        /* \"#utility.yul\":24316:24391   */\n    tag_610:\n        /* \"#utility.yul\":24349:24355   */\n      0x00\n        /* \"#utility.yul\":24382:24384   */\n      0x40\n        /* \"#utility.yul\":24376:24385   */\n      mload\n        /* \"#utility.yul\":24366:24385   */\n      swap1\n      pop\n        /* \"#utility.yul\":24356:24391   */\n      swap1\n      jump\t// out\n        /* \"#utility.yul\":24397:24708   */\n    tag_322:\n        /* \"#utility.yul\":24474:24478   */\n      0x00\n        /* \"#utility.yul\":24564:24582   */\n      0xffffffffffffffff\n        /* \"#utility.yul\":24556:24562   */\n      dup3\n        /* \"#utility.yul\":24553:24583   */\n      gt\n        /* \"#utility.yul\":24550:24552   */\n      iszero\n      tag_615\n      jumpi\n        /* \"#utility.yul\":24586:24604   */\n      tag_616\n      tag_617\n      jump\t// in\n    tag_616:\n        /* \"#utility.yul\":24550:24552   */\n    tag_615:\n        /* \"#utility.yul\":24636:24640   */\n      0x20\n        /* \"#utility.yul\":24628:24634   */\n      dup3\n        /* \"#utility.yul\":24624:24641   */\n      mul\n        /* \"#utility.yul\":24616:24641   */\n      swap1\n      pop\n        /* \"#utility.yul\":24696:24700   */\n      0x20\n        /* \"#utility.yul\":24690:24694   */\n      dup2\n        /* \"#utility.yul\":24686:24701   */\n      add\n        /* \"#utility.yul\":24678:24701   */\n      swap1\n      pop\n        /* \"#utility.yul\":24479:24708   */\n      swap2\n      swap1\n      pop\n      jump\t// out\n        /* \"#utility.yul\":24714:25025   */\n    tag_334:\n        /* \"#utility.yul\":24791:24795   */\n      0x00\n        /* \"#utility.yul\":24881:24899   */\n      0xffffffffffffffff\n        /* \"#utility.yul\":24873:24879   */\n      dup3\n        /* \"#utility.yul\":24870:24900   */\n      gt\n        /* \"#utility.yul\":24867:24869   */\n      iszero\n      tag_619\n      jumpi\n        /* \"#utility.yul\":24903:24921   */\n      tag_620\n      tag_617\n      jump\t// in\n    tag_620:\n        /* \"#utility.yul\":24867:24869   */\n    tag_619:\n        /* \"#utility.yul\":24953:24957   */\n      0x20\n        /* \"#utility.yul\":24945:24951   */\n      dup3\n        /* \"#utility.yul\":24941:24958   */\n      mul\n        /* \"#utility.yul\":24933:24958   */\n      swap1\n      pop\n        /* \"#utility.yul\":25013:25017   */\n      0x20\n        /* \"#utility.yul\":25007:25011   */\n      dup2\n        /* \"#utility.yul\":25003:25018   */\n      add\n        /* \"#utility.yul\":24995:25018   */\n      swap1\n      pop\n        /* \"#utility.yul\":24796:25025   */\n      swap2\n      swap1\n      pop\n      jump\t// out\n        /* \"#utility.yul\":25031:25338   */\n    tag_345:\n        /* \"#utility.yul\":25092:25096   */\n      0x00\n        /* \"#utility.yul\":25182:25200   */\n      0xffffffffffffffff\n        /* \"#utility.yul\":25174:25180   */\n      dup3\n        /* \"#utility.yul\":25171:25201   */\n      gt\n        /* \"#utility.yul\":25168:25170   */\n      iszero\n      tag_622\n      jumpi\n        /* \"#utility.yul\":25204:25222   */\n      tag_623\n      tag_617\n      jump\t// in\n    tag_623:\n        /* \"#utility.yul\":25168:25170   */\n    tag_622:\n        /* \"#utility.yul\":25242:25271   */\n      tag_624\n        /* \"#utility.yul\":25264:25270   */\n      dup3\n        /* \"#utility.yul\":25242:25271   */\n      tag_490\n      jump\t// in\n    tag_624:\n        /* \"#utility.yul\":25234:25271   */\n      swap1\n      pop\n        /* \"#utility.yul\":25326:25330   */\n      0x20\n        /* \"#utility.yul\":25320:25324   */\n      dup2\n        /* \"#utility.yul\":25316:25331   */\n      add\n        /* \"#utility.yul\":25308:25331   */\n      swap1\n      pop\n        /* \"#utility.yul\":25097:25338   */\n      swap2\n      swap1\n      pop\n      jump\t// out\n        /* \"#utility.yul\":25344:25652   */\n    tag_353:\n        /* \"#utility.yul\":25406:25410   */\n      0x00\n        /* \"#utility.yul\":25496:25514   */\n      0xffffffffffffffff\n        /* \"#utility.yul\":25488:25494   */\n      dup3\n        /* \"#utility.yul\":25485:25515   */\n      gt\n        /* \"#utility.yul\":25482:25484   */\n      iszero\n      tag_626\n      jumpi\n        /* \"#utility.yul\":25518:25536   */\n      tag_627\n      tag_617\n      jump\t// in\n    tag_627:\n        /* \"#utility.yul\":25482:25484   */\n    tag_626:\n        /* \"#utility.yul\":25556:25585   */\n      tag_628\n        /* \"#utility.yul\":25578:25584   */\n      dup3\n        /* \"#utility.yul\":25556:25585   */\n      tag_490\n      jump\t// in\n    tag_628:\n        /* \"#utility.yul\":25548:25585   */\n      swap1\n      pop\n        /* \"#utility.yul\":25640:25644   */\n      0x20\n        /* \"#utility.yul\":25634:25638   */\n      dup2\n        /* \"#utility.yul\":25630:25645   */\n      add\n        /* \"#utility.yul\":25622:25645   */\n      swap1\n      pop\n        /* \"#utility.yul\":25411:25652   */\n      swap2\n      swap1\n      pop\n      jump\t// out\n        /* \"#utility.yul\":25658:25790   */\n    tag_456:\n        /* \"#utility.yul\":25725:25729   */\n      0x00\n        /* \"#utility.yul\":25748:25751   */\n      dup2\n        /* \"#utility.yul\":25740:25751   */\n      swap1\n      pop\n        /* \"#utility.yul\":25778:25782   */\n      0x20\n        /* \"#utility.yul\":25773:25776   */\n      dup3\n        /* \"#utility.yul\":25769:25783   */\n      add\n        /* \"#utility.yul\":25761:25783   */\n      swap1\n      pop\n        /* \"#utility.yul\":25730:25790   */\n      swap2\n      swap1\n      pop\n      jump\t// out\n        /* \"#utility.yul\":25796:25928   */\n    tag_470:\n        /* \"#utility.yul\":25863:25867   */\n      0x00\n        /* \"#utility.yul\":25886:25889   */\n      dup2\n        /* \"#utility.yul\":25878:25889   */\n      swap1\n      pop\n        /* \"#utility.yul\":25916:25920   */\n      0x20\n        /* \"#utility.yul\":25911:25914   */\n      dup3\n        /* \"#utility.yul\":25907:25921   */\n      add\n        /* \"#utility.yul\":25899:25921   */\n      swap1\n      pop\n        /* \"#utility.yul\":25868:25928   */\n      swap2\n      swap1\n      pop\n      jump\t// out\n        /* \"#utility.yul\":25934:26048   */\n    tag_452:\n        /* \"#utility.yul\":26001:26007   */\n      0x00\n        /* \"#utility.yul\":26035:26040   */\n      dup2\n        /* \"#utility.yul\":26029:26041   */\n      mload\n        /* \"#utility.yul\":26019:26041   */\n      swap1\n      pop\n        /* \"#utility.yul\":26008:26048   */\n      swap2\n      swap1\n      pop\n      jump\t// out\n        /* \"#utility.yul\":26054:26168   */\n    tag_466:\n        /* \"#utility.yul\":26121:26127   */\n      0x00\n        /* \"#utility.yul\":26155:26160   */\n      dup2\n        /* \"#utility.yul\":26149:26161   */\n      mload\n        /* \"#utility.yul\":26139:26161   */\n      swap1\n      pop\n        /* \"#utility.yul\":26128:26168   */\n      swap2\n      swap1\n      pop\n      jump\t// out\n        /* \"#utility.yul\":26174:26272   */\n    tag_484:\n        /* \"#utility.yul\":26225:26231   */\n      0x00\n        /* \"#utility.yul\":26259:26264   */\n      dup2\n        /* \"#utility.yul\":26253:26265   */\n      mload\n        /* \"#utility.yul\":26243:26265   */\n      swap1\n      pop\n        /* \"#utility.yul\":26232:26272   */\n      swap2\n      swap1\n      pop\n      jump\t// out\n        /* \"#utility.yul\":26278:26377   */\n    tag_494:\n        /* \"#utility.yul\":26330:26336   */\n      0x00\n        /* \"#utility.yul\":26364:26369   */\n      dup2\n        /* \"#utility.yul\":26358:26370   */\n      mload\n        /* \"#utility.yul\":26348:26370   */\n      swap1\n      pop\n        /* \"#utility.yul\":26337:26377   */\n      swap2\n      swap1\n      pop\n      jump\t// out\n        /* \"#utility.yul\":26383:26496   */\n    tag_462:\n        /* \"#utility.yul\":26453:26457   */\n      0x00\n        /* \"#utility.yul\":26485:26489   */\n      0x20\n        /* \"#utility.yul\":26480:26483   */\n      dup3\n        /* \"#utility.yul\":26476:26490   */\n      add\n        /* \"#utility.yul\":26468:26490   */\n      swap1\n      pop\n        /* \"#utility.yul\":26458:26496   */\n      swap2\n      swap1\n      pop\n      jump\t// out\n        /* \"#utility.yul\":26502:26615   */\n    tag_476:\n        /* \"#utility.yul\":26572:26576   */\n      0x00\n        /* \"#utility.yul\":26604:26608   */\n      0x20\n        /* \"#utility.yul\":26599:26602   */\n      dup3\n        /* \"#utility.yul\":26595:26609   */\n      add\n        /* \"#utility.yul\":26587:26609   */\n      swap1\n      pop\n        /* \"#utility.yul\":26577:26615   */\n      swap2\n      swap1\n      pop\n      jump\t// out\n        /* \"#utility.yul\":26621:26805   */\n    tag_454:\n        /* \"#utility.yul\":26720:26731   */\n      0x00\n        /* \"#utility.yul\":26754:26760   */\n      dup3\n        /* \"#utility.yul\":26749:26752   */\n      dup3\n        /* \"#utility.yul\":26742:26761   */\n      mstore\n        /* \"#utility.yul\":26794:26798   */\n      0x20\n        /* \"#utility.yul\":26789:26792   */\n      dup3\n        /* \"#utility.yul\":26785:26799   */\n      add\n        /* \"#utility.yul\":26770:26799   */\n      swap1\n      pop\n        /* \"#utility.yul\":26732:26805   */\n      swap3\n      swap2\n      pop\n      pop\n      jump\t// out\n        /* \"#utility.yul\":26811:26995   */\n    tag_468:\n        /* \"#utility.yul\":26910:26921   */\n      0x00\n        /* \"#utility.yul\":26944:26950   */\n      dup3\n        /* \"#utility.yul\":26939:26942   */\n      dup3\n        /* \"#utility.yul\":26932:26951   */\n      mstore\n        /* \"#utility.yul\":26984:26988   */\n      0x20\n        /* \"#utility.yul\":26979:26982   */\n      dup3\n        /* \"#utility.yul\":26975:26989   */\n      add\n        /* \"#utility.yul\":26960:26989   */\n      swap1\n      pop\n        /* \"#utility.yul\":26922:26995   */\n      swap3\n      swap2\n      pop\n      pop\n      jump\t// out\n        /* \"#utility.yul\":27001:27169   */\n    tag_486:\n        /* \"#utility.yul\":27084:27095   */\n      0x00\n        /* \"#utility.yul\":27118:27124   */\n      dup3\n        /* \"#utility.yul\":27113:27116   */\n      dup3\n        /* \"#utility.yul\":27106:27125   */\n      mstore\n        /* \"#utility.yul\":27158:27162   */\n      0x20\n        /* \"#utility.yul\":27153:27156   */\n      dup3\n        /* \"#utility.yul\":27149:27163   */\n      add\n        /* \"#utility.yul\":27134:27163   */\n      swap1\n      pop\n        /* \"#utility.yul\":27096:27169   */\n      swap3\n      swap2\n      pop\n      pop\n      jump\t// out\n        /* \"#utility.yul\":27175:27344   */\n    tag_496:\n        /* \"#utility.yul\":27259:27270   */\n      0x00\n        /* \"#utility.yul\":27293:27299   */\n      dup3\n        /* \"#utility.yul\":27288:27291   */\n      dup3\n        /* \"#utility.yul\":27281:27300   */\n      mstore\n        /* \"#utility.yul\":27333:27337   */\n      0x20\n        /* \"#utility.yul\":27328:27331   */\n      dup3\n        /* \"#utility.yul\":27324:27338   */\n      add\n        /* \"#utility.yul\":27309:27338   */\n      swap1\n      pop\n        /* \"#utility.yul\":27271:27344   */\n      swap3\n      swap2\n      pop\n      pop\n      jump\t// out\n        /* \"#utility.yul\":27350:27498   */\n    tag_503:\n        /* \"#utility.yul\":27452:27463   */\n      0x00\n        /* \"#utility.yul\":27489:27492   */\n      dup2\n        /* \"#utility.yul\":27474:27492   */\n      swap1\n      pop\n        /* \"#utility.yul\":27464:27498   */\n      swap3\n      swap2\n      pop\n      pop\n      jump\t// out\n        /* \"#utility.yul\":27504:27809   */\n    tag_247:\n        /* \"#utility.yul\":27544:27547   */\n      0x00\n        /* \"#utility.yul\":27563:27583   */\n      tag_643\n        /* \"#utility.yul\":27581:27582   */\n      dup3\n        /* \"#utility.yul\":27563:27583   */\n      tag_562\n      jump\t// in\n    tag_643:\n        /* \"#utility.yul\":27558:27583   */\n      swap2\n      pop\n        /* \"#utility.yul\":27597:27617   */\n      tag_644\n        /* \"#utility.yul\":27615:27616   */\n      dup4\n        /* \"#utility.yul\":27597:27617   */\n      tag_562\n      jump\t// in\n    tag_644:\n        /* \"#utility.yul\":27592:27617   */\n      swap3\n      pop\n        /* \"#utility.yul\":27751:27752   */\n      dup3\n        /* \"#utility.yul\":27683:27749   */\n      0xffffffffffffffffffffffffffffffffffffffffffffffffffffffffffffffff\n        /* \"#utility.yul\":27679:27753   */\n      sub\n        /* \"#utility.yul\":27676:27677   */\n      dup3\n        /* \"#utility.yul\":27673:27754   */\n      gt\n        /* \"#utility.yul\":27670:27672   */\n      iszero\n      tag_645\n      jumpi\n        /* \"#utility.yul\":27757:27775   */\n      tag_646\n      tag_647\n      jump\t// in\n    tag_646:\n        /* \"#utility.yul\":27670:27672   */\n    tag_645:\n        /* \"#utility.yul\":27801:27802   */\n      dup3\n        /* \"#utility.yul\":27798:27799   */\n      dup3\n        /* \"#utility.yul\":27794:27803   */\n      add\n        /* \"#utility.yul\":27787:27803   */\n      swap1\n      pop\n        /* \"#utility.yul\":27548:27809   */\n      swap3\n      swap2\n      pop\n      pop\n      jump\t// out\n        /* \"#utility.yul\":27815:28000   */\n    tag_237:\n        /* \"#utility.yul\":27855:27856   */\n      0x00\n        /* \"#utility.yul\":27872:27892   */\n      tag_649\n        /* \"#utility.yul\":27890:27891   */\n      dup3\n        /* \"#utility.yul\":27872:27892   */\n      tag_562\n      jump\t// in\n    tag_649:\n        /* \"#utility.yul\":27867:27892   */\n      swap2\n      pop\n        /* \"#utility.yul\":27906:27926   */\n      tag_650\n        /* \"#utility.yul\":27924:27925   */\n      dup4\n        /* \"#utility.yul\":27906:27926   */\n      tag_562\n      jump\t// in\n    tag_650:\n        /* \"#utility.yul\":27901:27926   */\n      swap3\n      pop\n        /* \"#utility.yul\":27945:27946   */\n      dup3\n        /* \"#utility.yul\":27935:27937   */\n      tag_651\n      jumpi\n        /* \"#utility.yul\":27950:27968   */\n      tag_652\n      tag_653\n      jump\t// in\n    tag_652:\n        /* \"#utility.yul\":27935:27937   */\n    tag_651:\n        /* \"#utility.yul\":27992:27993   */\n      dup3\n        /* \"#utility.yul\":27989:27990   */\n      dup3\n        /* \"#utility.yul\":27985:27994   */\n      div\n        /* \"#utility.yul\":27980:27994   */\n      swap1\n      pop\n        /* \"#utility.yul\":27857:28000   */\n      swap3\n      swap2\n      pop\n      pop\n      jump\t// out\n        /* \"#utility.yul\":28006:28197   */\n    tag_243:\n        /* \"#utility.yul\":28046:28050   */\n      0x00\n        /* \"#utility.yul\":28066:28086   */\n      tag_655\n        /* \"#utility.yul\":28084:28085   */\n      dup3\n        /* \"#utility.yul\":28066:28086   */\n      tag_562\n      jump\t// in\n    tag_655:\n        /* \"#utility.yul\":28061:28086   */\n      swap2\n      pop\n        /* \"#utility.yul\":28100:28120   */\n      tag_656\n        /* \"#utility.yul\":28118:28119   */\n      dup4\n        /* \"#utility.yul\":28100:28120   */\n      tag_562\n      jump\t// in\n    tag_656:\n        /* \"#utility.yul\":28095:28120   */\n      swap3\n      pop\n        /* \"#utility.yul\":28139:28140   */\n      dup3\n        /* \"#utility.yul\":28136:28137   */\n      dup3\n        /* \"#utility.yul\":28133:28141   */\n      lt\n        /* \"#utility.yul\":28130:28132   */\n      iszero\n      tag_657\n      jumpi\n        /* \"#utility.yul\":28144:28162   */\n      tag_658\n      tag_647\n      jump\t// in\n    tag_658:\n        /* \"#utility.yul\":28130:28132   */\n    tag_657:\n        /* \"#utility.yul\":28189:28190   */\n      dup3\n        /* \"#utility.yul\":28186:28187   */\n      dup3\n        /* \"#utility.yul\":28182:28191   */\n      sub\n        /* \"#utility.yul\":28174:28191   */\n      swap1\n      pop\n        /* \"#utility.yul\":28051:28197   */\n      swap3\n      swap2\n      pop\n      pop\n      jump\t// out\n        /* \"#utility.yul\":28203:28299   */\n    tag_445:\n        /* \"#utility.yul\":28240:28247   */\n      0x00\n        /* \"#utility.yul\":28269:28293   */\n      tag_660\n        /* \"#utility.yul\":28287:28292   */\n      dup3\n        /* \"#utility.yul\":28269:28293   */\n      tag_661\n      jump\t// in\n    tag_660:\n        /* \"#utility.yul\":28258:28293   */\n      swap1\n      pop\n        /* \"#utility.yul\":28248:28299   */\n      swap2\n      swap1\n      pop\n      jump\t// out\n        /* \"#utility.yul\":28305:28395   */\n    tag_480:\n        /* \"#utility.yul\":28339:28346   */\n      0x00\n        /* \"#utility.yul\":28382:28387   */\n      dup2\n        /* \"#utility.yul\":28375:28388   */\n      iszero\n        /* \"#utility.yul\":28368:28389   */\n      iszero\n        /* \"#utility.yul\":28357:28389   */\n      swap1\n      pop\n        /* \"#utility.yul\":28347:28395   */\n      swap2\n      swap1\n      pop\n      jump\t// out\n        /* \"#utility.yul\":28401:28550   */\n    tag_663:\n        /* \"#utility.yul\":28437:28444   */\n      0x00\n        /* \"#utility.yul\":28477:28543   */\n      0xffffffff00000000000000000000000000000000000000000000000000000000\n        /* \"#utility.yul\":28470:28475   */\n      dup3\n        /* \"#utility.yul\":28466:28544   */\n      and\n        /* \"#utility.yul\":28455:28544   */\n      swap1\n      pop\n        /* \"#utility.yul\":28445:28550   */\n      swap2\n      swap1\n      pop\n      jump\t// out\n        /* \"#utility.yul\":28556:28682   */\n    tag_661:\n        /* \"#utility.yul\":28593:28600   */\n      0x00\n        /* \"#utility.yul\":28633:28675   */\n      0xffffffffffffffffffffffffffffffffffffffff\n        /* \"#utility.yul\":28626:28631   */\n      dup3\n        /* \"#utility.yul\":28622:28676   */\n      and\n        /* \"#utility.yul\":28611:28676   */\n      swap1\n      pop\n        /* \"#utility.yul\":28601:28682   */\n      swap2\n      swap1\n      pop\n      jump\t// out\n        /* \"#utility.yul\":28688:28765   */\n    tag_562:\n        /* \"#utility.yul\":28725:28732   */\n      0x00\n        /* \"#utility.yul\":28754:28759   */\n      dup2\n        /* \"#utility.yul\":28743:28759   */\n      swap1\n      pop\n        /* \"#utility.yul\":28733:28765   */\n      swap2\n      swap1\n      pop\n      jump\t// out\n        /* \"#utility.yul\":28771:28925   */\n    tag_348:\n        /* \"#utility.yul\":28855:28861   */\n      dup3\n        /* \"#utility.yul\":28850:28853   */\n      dup2\n        /* \"#utility.yul\":28845:28848   */\n      dup4\n        /* \"#utility.yul\":28832:28862   */\n      calldatacopy\n        /* \"#utility.yul\":28917:28918   */\n      0x00\n        /* \"#utility.yul\":28908:28914   */\n      dup4\n        /* \"#utility.yul\":28903:28906   */\n      dup4\n        /* \"#utility.yul\":28899:28915   */\n      add\n        /* \"#utility.yul\":28892:28919   */\n      mstore\n        /* \"#utility.yul\":28822:28925   */\n      pop\n      pop\n      pop\n      jump\t// out\n        /* \"#utility.yul\":28931:29238   */\n    tag_488:\n        /* \"#utility.yul\":28999:29000   */\n      0x00\n        /* \"#utility.yul\":29009:29122   */\n    tag_669:\n        /* \"#utility.yul\":29023:29029   */\n      dup4\n        /* \"#utility.yul\":29020:29021   */\n      dup2\n        /* \"#utility.yul\":29017:29030   */\n      lt\n        /* \"#utility.yul\":29009:29122   */\n      iszero\n      tag_671\n      jumpi\n        /* \"#utility.yul\":29108:29109   */\n      dup1\n        /* \"#utility.yul\":29103:29106   */\n      dup3\n        /* \"#utility.yul\":29099:29110   */\n      add\n        /* \"#utility.yul\":29093:29111   */\n      mload\n        /* \"#utility.yul\":29089:29090   */\n      dup2\n        /* \"#utility.yul\":29084:29087   */\n      dup5\n        /* \"#utility.yul\":29080:29091   */\n      add\n        /* \"#utility.yul\":29073:29112   */\n      mstore\n        /* \"#utility.yul\":29045:29047   */\n      0x20\n        /* \"#utility.yul\":29042:29043   */\n      dup2\n        /* \"#utility.yul\":29038:29048   */\n      add\n        /* \"#utility.yul\":29033:29048   */\n      swap1\n      pop\n        /* \"#utility.yul\":29009:29122   */\n      jump(tag_669)\n    tag_671:\n        /* \"#utility.yul\":29140:29146   */\n      dup4\n        /* \"#utility.yul\":29137:29138   */\n      dup2\n        /* \"#utility.yul\":29134:29147   */\n      gt\n        /* \"#utility.yul\":29131:29133   */\n      iszero\n      tag_672\n      jumpi\n        /* \"#utility.yul\":29220:29221   */\n      0x00\n        /* \"#utility.yul\":29211:29217   */\n      dup5\n        /* \"#utility.yul\":29206:29209   */\n      dup5\n        /* \"#utility.yul\":29202:29218   */\n      add\n        /* \"#utility.yul\":29195:29222   */\n      mstore\n        /* \"#utility.yul\":29131:29133   */\n    tag_672:\n        /* \"#utility.yul\":28980:29238   */\n      pop\n      pop\n      pop\n      pop\n      jump\t// out\n        /* \"#utility.yul\":29244:29564   */\n    tag_100:\n        /* \"#utility.yul\":29288:29294   */\n      0x00\n        /* \"#utility.yul\":29325:29326   */\n      0x02\n        /* \"#utility.yul\":29319:29323   */\n      dup3\n        /* \"#utility.yul\":29315:29327   */\n      div\n        /* \"#utility.yul\":29305:29327   */\n      swap1\n      pop\n        /* \"#utility.yul\":29372:29373   */\n      0x01\n        /* \"#utility.yul\":29366:29370   */\n      dup3\n        /* \"#utility.yul\":29362:29374   */\n      and\n        /* \"#utility.yul\":29393:29411   */\n      dup1\n        /* \"#utility.yul\":29383:29385   */\n      tag_674\n      jumpi\n        /* \"#utility.yul\":29449:29453   */\n      0x7f\n        /* \"#utility.yul\":29441:29447   */\n      dup3\n        /* \"#utility.yul\":29437:29454   */\n      and\n        /* \"#utility.yul\":29427:29454   */\n      swap2\n      pop\n        /* \"#utility.yul\":29383:29385   */\n    tag_674:\n        /* \"#utility.yul\":29511:29513   */\n      0x20\n        /* \"#utility.yul\":29503:29509   */\n      dup3\n        /* \"#utility.yul\":29500:29514   */\n      lt\n        /* \"#utility.yul\":29480:29498   */\n      dup2\n        /* \"#utility.yul\":29477:29515   */\n      eq\n        /* \"#utility.yul\":29474:29476   */\n      iszero\n      tag_675\n      jumpi\n        /* \"#utility.yul\":29530:29548   */\n      tag_676\n      tag_677\n      jump\t// in\n    tag_676:\n        /* \"#utility.yul\":29474:29476   */\n    tag_675:\n        /* \"#utility.yul\":29295:29564   */\n      pop\n      swap2\n      swap1\n      pop\n      jump\t// out\n        /* \"#utility.yul\":29570:29851   */\n    tag_612:\n        /* \"#utility.yul\":29653:29680   */\n      tag_679\n        /* \"#utility.yul\":29675:29679   */\n      dup3\n        /* \"#utility.yul\":29653:29680   */\n      tag_490\n      jump\t// in\n    tag_679:\n        /* \"#utility.yul\":29645:29651   */\n      dup2\n        /* \"#utility.yul\":29641:29681   */\n      add\n        /* \"#utility.yul\":29783:29789   */\n      dup2\n        /* \"#utility.yul\":29771:29781   */\n      dup2\n        /* \"#utility.yul\":29768:29790   */\n      lt\n        /* \"#utility.yul\":29747:29765   */\n      0xffffffffffffffff\n        /* \"#utility.yul\":29735:29745   */\n      dup3\n        /* \"#utility.yul\":29732:29766   */\n      gt\n        /* \"#utility.yul\":29729:29791   */\n      or\n        /* \"#utility.yul\":29726:29728   */\n      iszero\n      tag_680\n      jumpi\n        /* \"#utility.yul\":29794:29812   */\n      tag_681\n      tag_617\n      jump\t// in\n    tag_681:\n        /* \"#utility.yul\":29726:29728   */\n    tag_680:\n        /* \"#utility.yul\":29834:29844   */\n      dup1\n        /* \"#utility.yul\":29830:29832   */\n      0x40\n        /* \"#utility.yul\":29823:29845   */\n      mstore\n        /* \"#utility.yul\":29613:29851   */\n      pop\n      pop\n      pop\n      jump\t// out\n        /* \"#utility.yul\":29857:30090   */\n    tag_235:\n        /* \"#utility.yul\":29896:29899   */\n      0x00\n        /* \"#utility.yul\":29919:29943   */\n      tag_683\n        /* \"#utility.yul\":29937:29942   */\n      dup3\n        /* \"#utility.yul\":29919:29943   */\n      tag_562\n      jump\t// in\n    tag_683:\n        /* \"#utility.yul\":29910:29943   */\n      swap2\n      pop\n        /* \"#utility.yul\":29965:30031   */\n      0xffffffffffffffffffffffffffffffffffffffffffffffffffffffffffffffff\n        /* \"#utility.yul\":29958:29963   */\n      dup3\n        /* \"#utility.yul\":29955:30032   */\n      eq\n        /* \"#utility.yul\":29952:29954   */\n      iszero\n      tag_684\n      jumpi\n        /* \"#utility.yul\":30035:30053   */\n      tag_685\n      tag_647\n      jump\t// in\n    tag_685:\n        /* \"#utility.yul\":29952:29954   */\n    tag_684:\n        /* \"#utility.yul\":30082:30083   */\n      0x01\n        /* \"#utility.yul\":30075:30080   */\n      dup3\n        /* \"#utility.yul\":30071:30084   */\n      add\n        /* \"#utility.yul\":30064:30084   */\n      swap1\n      pop\n        /* \"#utility.yul\":29900:30090   */\n      swap2\n      swap1\n      pop\n      jump\t// out\n        /* \"#utility.yul\":30096:30272   */\n    tag_245:\n        /* \"#utility.yul\":30128:30129   */\n      0x00\n        /* \"#utility.yul\":30145:30165   */\n      tag_687\n        /* \"#utility.yul\":30163:30164   */\n      dup3\n        /* \"#utility.yul\":30145:30165   */\n      tag_562\n      jump\t// in\n    tag_687:\n        /* \"#utility.yul\":30140:30165   */\n      swap2\n      pop\n        /* \"#utility.yul\":30179:30199   */\n      tag_688\n        /* \"#utility.yul\":30197:30198   */\n      dup4\n        /* \"#utility.yul\":30179:30199   */\n      tag_562\n      jump\t// in\n    tag_688:\n        /* \"#utility.yul\":30174:30199   */\n      swap3\n      pop\n        /* \"#utility.yul\":30218:30219   */\n      dup3\n        /* \"#utility.yul\":30208:30210   */\n      tag_689\n      jumpi\n        /* \"#utility.yul\":30223:30241   */\n      tag_690\n      tag_653\n      jump\t// in\n    tag_690:\n        /* \"#utility.yul\":30208:30210   */\n    tag_689:\n        /* \"#utility.yul\":30264:30265   */\n      dup3\n        /* \"#utility.yul\":30261:30262   */\n      dup3\n        /* \"#utility.yul\":30257:30266   */\n      mod\n        /* \"#utility.yul\":30252:30266   */\n      swap1\n      pop\n        /* \"#utility.yul\":30130:30272   */\n      swap3\n      swap2\n      pop\n      pop\n      jump\t// out\n        /* \"#utility.yul\":30278:30458   */\n    tag_647:\n        /* \"#utility.yul\":30326:30403   */\n      0x4e487b7100000000000000000000000000000000000000000000000000000000\n        /* \"#utility.yul\":30323:30324   */\n      0x00\n        /* \"#utility.yul\":30316:30404   */\n      mstore\n        /* \"#utility.yul\":30423:30427   */\n      0x11\n        /* \"#utility.yul\":30420:30421   */\n      0x04\n        /* \"#utility.yul\":30413:30428   */\n      mstore\n        /* \"#utility.yul\":30447:30451   */\n      0x24\n        /* \"#utility.yul\":30444:30445   */\n      0x00\n        /* \"#utility.yul\":30437:30452   */\n      revert\n        /* \"#utility.yul\":30464:30644   */\n    tag_653:\n        /* \"#utility.yul\":30512:30589   */\n      0x4e487b7100000000000000000000000000000000000000000000000000000000\n        /* \"#utility.yul\":30509:30510   */\n      0x00\n        /* \"#utility.yul\":30502:30590   */\n      mstore\n        /* \"#utility.yul\":30609:30613   */\n      0x12\n        /* \"#utility.yul\":30606:30607   */\n      0x04\n        /* \"#utility.yul\":30599:30614   */\n      mstore\n        /* \"#utility.yul\":30633:30637   */\n      0x24\n        /* \"#utility.yul\":30630:30631   */\n      0x00\n        /* \"#utility.yul\":30623:30638   */\n      revert\n        /* \"#utility.yul\":30650:30830   */\n    tag_677:\n        /* \"#utility.yul\":30698:30775   */\n      0x4e487b7100000000000000000000000000000000000000000000000000000000\n        /* \"#utility.yul\":30695:30696   */\n      0x00\n        /* \"#utility.yul\":30688:30776   */\n      mstore\n        /* \"#utility.yul\":30795:30799   */\n      0x22\n        /* \"#utility.yul\":30792:30793   */\n      0x04\n        /* \"#utility.yul\":30785:30800   */\n      mstore\n        /* \"#utility.yul\":30819:30823   */\n      0x24\n        /* \"#utility.yul\":30816:30817   */\n      0x00\n        /* \"#utility.yul\":30809:30824   */\n      revert\n        /* \"#utility.yul\":30836:31016   */\n    tag_617:\n        /* \"#utility.yul\":30884:30961   */\n      0x4e487b7100000000000000000000000000000000000000000000000000000000\n        /* \"#utility.yul\":30881:30882   */\n      0x00\n        /* \"#utility.yul\":30874:30962   */\n      mstore\n        /* \"#utility.yul\":30981:30985   */\n      0x41\n        /* \"#utility.yul\":30978:30979   */\n      0x04\n        /* \"#utility.yul\":30971:30986   */\n      mstore\n        /* \"#utility.yul\":31005:31009   */\n      0x24\n        /* \"#utility.yul\":31002:31003   */\n      0x00\n        /* \"#utility.yul\":30995:31010   */\n      revert\n        /* \"#utility.yul\":31022:31124   */\n    tag_490:\n        /* \"#utility.yul\":31063:31069   */\n      0x00\n        /* \"#utility.yul\":31114:31116   */\n      0x1f\n        /* \"#utility.yul\":31110:31117   */\n      not\n        /* \"#utility.yul\":31105:31107   */\n      0x1f\n        /* \"#utility.yul\":31098:31103   */\n      dup4\n        /* \"#utility.yul\":31094:31108   */\n      add\n        /* \"#utility.yul\":31090:31118   */\n      and\n        /* \"#utility.yul\":31080:31118   */\n      swap1\n      pop\n        /* \"#utility.yul\":31070:31124   */\n      swap2\n      swap1\n      pop\n      jump\t// out\n        /* \"#utility.yul\":31130:31362   */\n    tag_509:\n        /* \"#utility.yul\":31270:31304   */\n      0x4552433732313a2063616c6c6572206973206e6f7420746f6b656e206f776e65\n        /* \"#utility.yul\":31266:31267   */\n      0x00\n        /* \"#utility.yul\":31258:31264   */\n      dup3\n        /* \"#utility.yul\":31254:31268   */\n      add\n        /* \"#utility.yul\":31247:31305   */\n      mstore\n        /* \"#utility.yul\":31339:31354   */\n      0x72206f7220617070726f76656400000000000000000000000000000000000000\n        /* \"#utility.yul\":31334:31336   */\n      0x20\n        /* \"#utility.yul\":31326:31332   */\n      dup3\n        /* \"#utility.yul\":31322:31337   */\n      add\n        /* \"#utility.yul\":31315:31355   */\n      mstore\n        /* \"#utility.yul\":31236:31362   */\n      pop\n      jump\t// out\n        /* \"#utility.yul\":31368:31605   */\n    tag_514:\n        /* \"#utility.yul\":31508:31542   */\n      0x4552433732313a207472616e7366657220746f206e6f6e204552433732315265\n        /* \"#utility.yul\":31504:31505   */\n      0x00\n        /* \"#utility.yul\":31496:31502   */\n      dup3\n        /* \"#utility.yul\":31492:31506   */\n      add\n        /* \"#utility.yul\":31485:31543   */\n      mstore\n        /* \"#utility.yul\":31577:31597   */\n      0x63656976657220696d706c656d656e7465720000000000000000000000000000\n        /* \"#utility.yul\":31572:31574   */\n      0x20\n        /* \"#utility.yul\":31564:31570   */\n      dup3\n        /* \"#utility.yul\":31560:31575   */\n      add\n        /* \"#utility.yul\":31553:31598   */\n      mstore\n        /* \"#utility.yul\":31474:31605   */\n      pop\n      jump\t// out\n        /* \"#utility.yul\":31611:31835   */\n    tag_519:\n        /* \"#utility.yul\":31751:31785   */\n      0x4552433732313a207472616e736665722066726f6d20696e636f727265637420\n        /* \"#utility.yul\":31747:31748   */\n      0x00\n        /* \"#utility.yul\":31739:31745   */\n      dup3\n        /* \"#utility.yul\":31735:31749   */\n      add\n        /* \"#utility.yul\":31728:31786   */\n      mstore\n        /* \"#utility.yul\":31820:31827   */\n      0x6f776e6572000000000000000000000000000000000000000000000000000000\n        /* \"#utility.yul\":31815:31817   */\n      0x20\n        /* \"#utility.yul\":31807:31813   */\n      dup3\n        /* \"#utility.yul\":31803:31818   */\n      add\n        /* \"#utility.yul\":31796:31828   */\n      mstore\n        /* \"#utility.yul\":31717:31835   */\n      pop\n      jump\t// out\n        /* \"#utility.yul\":31841:32019   */\n    tag_524:\n        /* \"#utility.yul\":31981:32011   */\n      0x4552433732313a20746f6b656e20616c7265616479206d696e74656400000000\n        /* \"#utility.yul\":31977:31978   */\n      0x00\n        /* \"#utility.yul\":31969:31975   */\n      dup3\n        /* \"#utility.yul\":31965:31979   */\n      add\n        /* \"#utility.yul\":31958:32012   */\n      mstore\n        /* \"#utility.yul\":31947:32019   */\n      pop\n      jump\t// out\n        /* \"#utility.yul\":32025:32248   */\n    tag_529:\n        /* \"#utility.yul\":32165:32199   */\n      0x4552433732313a207472616e7366657220746f20746865207a65726f20616464\n        /* \"#utility.yul\":32161:32162   */\n      0x00\n        /* \"#utility.yul\":32153:32159   */\n      dup3\n        /* \"#utility.yul\":32149:32163   */\n      add\n        /* \"#utility.yul\":32142:32200   */\n      mstore\n        /* \"#utility.yul\":32234:32240   */\n      0x7265737300000000000000000000000000000000000000000000000000000000\n        /* \"#utility.yul\":32229:32231   */\n      0x20\n        /* \"#utility.yul\":32221:32227   */\n      dup3\n        /* \"#utility.yul\":32217:32232   */\n      add\n        /* \"#utility.yul\":32210:32241   */\n      mstore\n        /* \"#utility.yul\":32131:32248   */\n      pop\n      jump\t// out\n        /* \"#utility.yul\":32254:32429   */\n    tag_534:\n        /* \"#utility.yul\":32394:32421   */\n      0x4552433732313a20617070726f766520746f2063616c6c657200000000000000\n        /* \"#utility.yul\":32390:32391   */\n      0x00\n        /* \"#utility.yul\":32382:32388   */\n      dup3\n        /* \"#utility.yul\":32378:32392   */\n      add\n        /* \"#utility.yul\":32371:32422   */\n      mstore\n        /* \"#utility.yul\":32360:32429   */\n      pop\n      jump\t// out\n        /* \"#utility.yul\":32435:32663   */\n    tag_539:\n        /* \"#utility.yul\":32575:32609   */\n      0x4552433732313a2061646472657373207a65726f206973206e6f742061207661\n        /* \"#utility.yul\":32571:32572   */\n      0x00\n        /* \"#utility.yul\":32563:32569   */\n      dup3\n        /* \"#utility.yul\":32559:32573   */\n      add\n        /* \"#utility.yul\":32552:32610   */\n      mstore\n        /* \"#utility.yul\":32644:32655   */\n      0x6c6964206f776e65720000000000000000000000000000000000000000000000\n        /* \"#utility.yul\":32639:32641   */\n      0x20\n        /* \"#utility.yul\":32631:32637   */\n      dup3\n        /* \"#utility.yul\":32627:32642   */\n      add\n        /* \"#utility.yul\":32620:32656   */\n      mstore\n        /* \"#utility.yul\":32541:32663   */\n      pop\n      jump\t// out\n        /* \"#utility.yul\":32669:32851   */\n    tag_544:\n        /* \"#utility.yul\":32809:32843   */\n      0x4552433732313a206d696e7420746f20746865207a65726f2061646472657373\n        /* \"#utility.yul\":32805:32806   */\n      0x00\n        /* \"#utility.yul\":32797:32803   */\n      dup3\n        /* \"#utility.yul\":32793:32807   */\n      add\n        /* \"#utility.yul\":32786:32844   */\n      mstore\n        /* \"#utility.yul\":32775:32851   */\n      pop\n      jump\t// out\n        /* \"#utility.yul\":32857:33031   */\n    tag_549:\n        /* \"#utility.yul\":32997:33023   */\n      0x4552433732313a20696e76616c696420746f6b656e2049440000000000000000\n        /* \"#utility.yul\":32993:32994   */\n      0x00\n        /* \"#utility.yul\":32985:32991   */\n      dup3\n        /* \"#utility.yul\":32981:32995   */\n      add\n        /* \"#utility.yul\":32974:33024   */\n      mstore\n        /* \"#utility.yul\":32963:33031   */\n      pop\n      jump\t// out\n        /* \"#utility.yul\":33037:33257   */\n    tag_554:\n        /* \"#utility.yul\":33177:33211   */\n      0x4552433732313a20617070726f76616c20746f2063757272656e74206f776e65\n        /* \"#utility.yul\":33173:33174   */\n      0x00\n        /* \"#utility.yul\":33165:33171   */\n      dup3\n        /* \"#utility.yul\":33161:33175   */\n      add\n        /* \"#utility.yul\":33154:33212   */\n      mstore\n        /* \"#utility.yul\":33246:33249   */\n      0x7200000000000000000000000000000000000000000000000000000000000000\n        /* \"#utility.yul\":33241:33243   */\n      0x20\n        /* \"#utility.yul\":33233:33239   */\n      dup3\n        /* \"#utility.yul\":33229:33244   */\n      add\n        /* \"#utility.yul\":33222:33250   */\n      mstore\n        /* \"#utility.yul\":33143:33257   */\n      pop\n      jump\t// out\n        /* \"#utility.yul\":33263:33511   */\n    tag_559:\n        /* \"#utility.yul\":33403:33437   */\n      0x4552433732313a20617070726f76652063616c6c6572206973206e6f7420746f\n        /* \"#utility.yul\":33399:33400   */\n      0x00\n        /* \"#utility.yul\":33391:33397   */\n      dup3\n        /* \"#utility.yul\":33387:33401   */\n      add\n        /* \"#utility.yul\":33380:33438   */\n      mstore\n        /* \"#utility.yul\":33472:33503   */\n      0x6b656e206f776e6572206f7220617070726f76656420666f7220616c6c000000\n        /* \"#utility.yul\":33467:33469   */\n      0x20\n        /* \"#utility.yul\":33459:33465   */\n      dup3\n        /* \"#utility.yul\":33455:33470   */\n      add\n        /* \"#utility.yul\":33448:33504   */\n      mstore\n        /* \"#utility.yul\":33369:33511   */\n      pop\n      jump\t// out\n        /* \"#utility.yul\":33517:33639   */\n    tag_358:\n        /* \"#utility.yul\":33590:33614   */\n      tag_708\n        /* \"#utility.yul\":33608:33613   */\n      dup2\n        /* \"#utility.yul\":33590:33614   */\n      tag_445\n      jump\t// in\n    tag_708:\n        /* \"#utility.yul\":33583:33588   */\n      dup2\n        /* \"#utility.yul\":33580:33615   */\n      eq\n        /* \"#utility.yul\":33570:33572   */\n      tag_709\n      jumpi\n        /* \"#utility.yul\":33629:33630   */\n      0x00\n        /* \"#utility.yul\":33626:33627   */\n      dup1\n        /* \"#utility.yul\":33619:33631   */\n      revert\n        /* \"#utility.yul\":33570:33572   */\n    tag_709:\n        /* \"#utility.yul\":33560:33639   */\n      pop\n      jump\t// out\n        /* \"#utility.yul\":33645:33761   */\n    tag_370:\n        /* \"#utility.yul\":33715:33736   */\n      tag_711\n        /* \"#utility.yul\":33730:33735   */\n      dup2\n        /* \"#utility.yul\":33715:33736   */\n      tag_480\n      jump\t// in\n    tag_711:\n        /* \"#utility.yul\":33708:33713   */\n      dup2\n        /* \"#utility.yul\":33705:33737   */\n      eq\n        /* \"#utility.yul\":33695:33697   */\n      tag_712\n      jumpi\n        /* \"#utility.yul\":33751:33752   */\n      0x00\n        /* \"#utility.yul\":33748:33749   */\n      dup1\n        /* \"#utility.yul\":33741:33753   */\n      revert\n        /* \"#utility.yul\":33695:33697   */\n    tag_712:\n        /* \"#utility.yul\":33685:33761   */\n      pop\n      jump\t// out\n        /* \"#utility.yul\":33767:33887   */\n    tag_374:\n        /* \"#utility.yul\":33839:33862   */\n      tag_714\n        /* \"#utility.yul\":33856:33861   */\n      dup2\n        /* \"#utility.yul\":33839:33862   */\n      tag_663\n      jump\t// in\n    tag_714:\n        /* \"#utility.yul\":33832:33837   */\n      dup2\n        /* \"#utility.yul\":33829:33863   */\n      eq\n        /* \"#utility.yul\":33819:33821   */\n      tag_715\n      jumpi\n        /* \"#utility.yul\":33877:33878   */\n      0x00\n        /* \"#utility.yul\":33874:33875   */\n      dup1\n        /* \"#utility.yul\":33867:33879   */\n      revert\n        /* \"#utility.yul\":33819:33821   */\n    tag_715:\n        /* \"#utility.yul\":33809:33887   */\n      pop\n      jump\t// out\n        /* \"#utility.yul\":33893:34015   */\n    tag_388:\n        /* \"#utility.yul\":33966:33990   */\n      tag_717\n        /* \"#utility.yul\":33984:33989   */\n      dup2\n        /* \"#utility.yul\":33966:33990   */\n      tag_562\n      jump\t// in\n    tag_717:\n        /* \"#utility.yul\":33959:33964   */\n      dup2\n        /* \"#utility.yul\":33956:33991   */\n      eq\n        /* \"#utility.yul\":33946:33948   */\n      tag_718\n      jumpi\n        /* \"#utility.yul\":34005:34006   */\n      0x00\n        /* \"#utility.yul\":34002:34003   */\n      dup1\n        /* \"#utility.yul\":33995:34007   */\n      revert\n        /* \"#utility.yul\":33946:33948   */\n    tag_718:\n        /* \"#utility.yul\":33936:34015   */\n      pop\n      jump\t// out\n\n    auxdata: 0xa2646970667358221220bc7ca1a82ef4abfaf36a5199072965720e6b3489514518f83afbebd96427a70964736f6c63430008040033\n}\n",
				"bytecode": {
					"linkReferences": {},
					"object": "60806040523480156200001157600080fd5b506040516200316d3803806200316d833981810160405281019062000037919062000193565b81600090805190602001906200004f92919062000071565b5080600190805190602001906200006892919062000071565b50505062000376565b8280546200007f906200029b565b90600052602060002090601f016020900481019282620000a35760008555620000ef565b82601f10620000be57805160ff1916838001178555620000ef565b82800160010185558215620000ef579182015b82811115620000ee578251825591602001919060010190620000d1565b5b509050620000fe919062000102565b5090565b5b808211156200011d57600081600090555060010162000103565b5090565b60006200013862000132846200022f565b62000206565b9050828152602081018484840111156200015157600080fd5b6200015e84828562000265565b509392505050565b600082601f8301126200017857600080fd5b81516200018a84826020860162000121565b91505092915050565b60008060408385031215620001a757600080fd5b600083015167ffffffffffffffff811115620001c257600080fd5b620001d08582860162000166565b925050602083015167ffffffffffffffff811115620001ee57600080fd5b620001fc8582860162000166565b9150509250929050565b60006200021262000225565b9050620002208282620002d1565b919050565b6000604051905090565b600067ffffffffffffffff8211156200024d576200024c62000336565b5b620002588262000365565b9050602081019050919050565b60005b838110156200028557808201518184015260208101905062000268565b8381111562000295576000848401525b50505050565b60006002820490506001821680620002b457607f821691505b60208210811415620002cb57620002ca62000307565b5b50919050565b620002dc8262000365565b810181811067ffffffffffffffff82111715620002fe57620002fd62000336565b5b80604052505050565b7f4e487b7100000000000000000000000000000000000000000000000000000000600052602260045260246000fd5b7f4e487b7100000000000000000000000000000000000000000000000000000000600052604160045260246000fd5b6000601f19601f8301169050919050565b612de780620003866000396000f3fe608060405234801561001057600080fd5b50600436106101005760003560e01c80636352211e11610097578063b88d4fde11610066578063b88d4fde146102bd578063c87b56dd146102d9578063e985e9c514610309578063ee48cda21461033957610100565b80636352211e1461022357806370a082311461025357806395d89b4114610283578063a22cb465146102a157610100565b806323b872dd116100d357806323b872dd1461019f5780633e617381146101bb57806342842e0e146101d757806352e04825146101f357610100565b806301ffc9a71461010557806306fdde0314610135578063081812fc14610153578063095ea7b314610183575b600080fd5b61011f600480360381019061011a9190611f7c565b610369565b60405161012c9190612421565b60405180910390f35b61013d61044b565b60405161014a919061243c565b60405180910390f35b61016d60048036038101906101689190611fce565b6104dd565b60405161017a9190612376565b60405180910390f35b61019d60048036038101906101989190611f40565b610523565b005b6101b960048036038101906101b49190611d7b565b61063b565b005b6101d560048036038101906101d09190611e45565b61069b565b005b6101f160048036038101906101ec9190611d7b565b6106b8565b005b61020d60048036038101906102089190611fce565b6106d8565b60405161021a91906123dd565b60405180910390f35b61023d60048036038101906102389190611fce565b61077f565b60405161024a9190612376565b60405180910390f35b61026d60048036038101906102689190611d16565b610831565b60405161027a91906125be565b60405180910390f35b61028b6108e9565b604051610298919061243c565b60405180910390f35b6102bb60048036038101906102b69190611f04565b61097b565b005b6102d760048036038101906102d29190611dca565b610991565b005b6102f360048036038101906102ee9190611fce565b6109f3565b604051610300919061243c565b60405180910390f35b610323600480360381019061031e9190611d3f565b610a5b565b6040516103309190612421565b60405180910390f35b610353600480360381019061034e9190611fce565b610aef565b60405161036091906123ff565b60405180910390f35b60007f80ac58cd000000000000000000000000000000000000000000000000000000007bffffffffffffffffffffffffffffffffffffffffffffffffffffffff1916827bffffffffffffffffffffffffffffffffffffffffffffffffffffffff1916148061043457507f5b5e139f000000000000000000000000000000000000000000000000000000007bffffffffffffffffffffffffffffffffffffffffffffffffffffffff1916827bffffffffffffffffffffffffffffffffffffffffffffffffffffffff1916145b80610444575061044382610b60565b5b9050919050565b60606000805461045a906128de565b80601f0160208091040260200160405190810160405280929190818152602001828054610486906128de565b80156104d35780601f106104a8576101008083540402835291602001916104d3565b820191906000526020600020905b8154815290600101906020018083116104b657829003601f168201915b5050505050905090565b60006104e882610bca565b6006600083815260200190815260200160002060009054906101000a900473ffffffffffffffffffffffffffffffffffffffff169050919050565b600061052e8261077f565b90508073ffffffffffffffffffffffffffffffffffffffff168373ffffffffffffffffffffffffffffffffffffffff16141561059f576040517f08c379a00000000000000000000000000000000000000000000000000000000081526004016105969061257e565b60405180910390fd5b8073ffffffffffffffffffffffffffffffffffffffff166105be610c15565b73ffffffffffffffffffffffffffffffffffffffff1614806105ed57506105ec816105e7610c15565b610a5b565b5b61062c576040517f08c379a00000000000000000000000000000000000000000000000000000000081526004016106239061259e565b60405180910390fd5b6106368383610c1d565b505050565b61064c610646610c15565b82610cd6565b61068b576040517f08c379a00000000000000000000000000000000000000000000000000000000081526004016106829061245e565b60405180910390fd5b610696838383610d6b565b505050565b6106a785858585611061565b6106b18282611083565b5050505050565b6106d383838360405180602001604052806000815250610991565b505050565b606060006003600084815260200190815260200160002080548060200260200160405190810160405280929190818152602001828054801561076f57602002820191906000526020600020905b8160009054906101000a900473ffffffffffffffffffffffffffffffffffffffff1673ffffffffffffffffffffffffffffffffffffffff1681526020019060010190808311610725575b5050505050905080915050919050565b6000806002600084815260200190815260200160002060009054906101000a900473ffffffffffffffffffffffffffffffffffffffff169050600073ffffffffffffffffffffffffffffffffffffffff168173ffffffffffffffffffffffffffffffffffffffff161415610828576040517f08c379a000000000000000000000000000000000000000000000000000000000815260040161081f9061255e565b60405180910390fd5b80915050919050565b60008073ffffffffffffffffffffffffffffffffffffffff168273ffffffffffffffffffffffffffffffffffffffff1614156108a2576040517f08c379a00000000000000000000000000000000000000000000000000000000081526004016108999061251e565b60405180910390fd5b600560008373ffffffffffffffffffffffffffffffffffffffff1673ffffffffffffffffffffffffffffffffffffffff168152602001908152602001600020549050919050565b6060600180546108f8906128de565b80601f0160208091040260200160405190810160405280929190818152602001828054610924906128de565b80156109715780601f1061094657610100808354040283529160200191610971565b820191906000526020600020905b81548152906001019060200180831161095457829003601f168201915b5050505050905090565b61098d610986610c15565b83836110af565b5050565b6109a261099c610c15565b83610cd6565b6109e1576040517f08c379a00000000000000000000000000000000000000000000000000000000081526004016109d89061245e565b60405180910390fd5b6109ed8484848461121c565b50505050565b60606109fe82610bca565b6000610a08611278565b90506000815111610a285760405180602001604052806000815250610a53565b80610a328461128f565b604051602001610a43929190612352565b6040516020818303038152906040525b915050919050565b6000600760008473ffffffffffffffffffffffffffffffffffffffff1673ffffffffffffffffffffffffffffffffffffffff16815260200190815260200160002060008373ffffffffffffffffffffffffffffffffffffffff1673ffffffffffffffffffffffffffffffffffffffff16815260200190815260200160002060009054906101000a900460ff16905092915050565b6060600060046000848152602001908152602001600020805480602002602001604051908101604052809291908181526020018280548015610b5057602002820191906000526020600020905b815481526020019060010190808311610b3c575b5050505050905080915050919050565b60007f01ffc9a7000000000000000000000000000000000000000000000000000000007bffffffffffffffffffffffffffffffffffffffffffffffffffffffff1916827bffffffffffffffffffffffffffffffffffffffffffffffffffffffff1916149050919050565b610bd38161143c565b610c12576040517f08c379a0000000000000000000000000000000000000000000000000000000008152600401610c099061255e565b60405180910390fd5b50565b600033905090565b816006600083815260200190815260200160002060006101000a81548173ffffffffffffffffffffffffffffffffffffffff021916908373ffffffffffffffffffffffffffffffffffffffff160217905550808273ffffffffffffffffffffffffffffffffffffffff16610c908361077f565b73ffffffffffffffffffffffffffffffffffffffff167f8c5be1e5ebec7d5bd14f71427d1e84f3dd0314c0f7b2291e5b200ac8c7c3b92560405160405180910390a45050565b600080610ce28361077f565b90508073ffffffffffffffffffffffffffffffffffffffff168473ffffffffffffffffffffffffffffffffffffffff161480610d245750610d238185610a5b565b5b80610d6257508373ffffffffffffffffffffffffffffffffffffffff16610d4a846104dd565b73ffffffffffffffffffffffffffffffffffffffff16145b91505092915050565b8273ffffffffffffffffffffffffffffffffffffffff16610d8b8261077f565b73ffffffffffffffffffffffffffffffffffffffff1614610de1576040517f08c379a0000000000000000000000000000000000000000000000000000000008152600401610dd89061249e565b60405180910390fd5b600073ffffffffffffffffffffffffffffffffffffffff168273ffffffffffffffffffffffffffffffffffffffff161415610e51576040517f08c379a0000000000000000000000000000000000000000000000000000000008152600401610e48906124de565b60405180910390fd5b610e5c8383836114a8565b8273ffffffffffffffffffffffffffffffffffffffff16610e7c8261077f565b73ffffffffffffffffffffffffffffffffffffffff1614610ed2576040517f08c379a0000000000000000000000000000000000000000000000000000000008152600401610ec99061249e565b60405180910390fd5b6006600082815260200190815260200160002060006101000a81549073ffffffffffffffffffffffffffffffffffffffff02191690556001600560008573ffffffffffffffffffffffffffffffffffffffff1673ffffffffffffffffffffffffffffffffffffffff168152602001908152602001600020600082825403925050819055506001600560008473ffffffffffffffffffffffffffffffffffffffff1673ffffffffffffffffffffffffffffffffffffffff16815260200190815260200160002060008282540192505081905550816002600083815260200190815260200160002060006101000a81548173ffffffffffffffffffffffffffffffffffffffff021916908373ffffffffffffffffffffffffffffffffffffffff160217905550808273ffffffffffffffffffffffffffffffffffffffff168473ffffffffffffffffffffffffffffffffffffffff167fddf252ad1be2c89b69c2b068fc378daa952ba7f163c4a11628f55a4df523b3ef60405160405180910390a461105c8383836114ad565b505050565b61107d84848484604051806020016040528060008152506114b2565b50505050565b806008600084815260200190815260200160002090805190602001906110aa929190611937565b505050565b8173ffffffffffffffffffffffffffffffffffffffff168373ffffffffffffffffffffffffffffffffffffffff16141561111e576040517f08c379a0000000000000000000000000000000000000000000000000000000008152600401611115906124fe565b60405180910390fd5b80600760008573ffffffffffffffffffffffffffffffffffffffff1673ffffffffffffffffffffffffffffffffffffffff16815260200190815260200160002060008473ffffffffffffffffffffffffffffffffffffffff1673ffffffffffffffffffffffffffffffffffffffff16815260200190815260200160002060006101000a81548160ff0219169083151502179055508173ffffffffffffffffffffffffffffffffffffffff168373ffffffffffffffffffffffffffffffffffffffff167f17307eab39ab6107e8899845ad3d59bd9653f200f220920489ca2b5937696c318360405161120f9190612421565b60405180910390a3505050565b611227848484610d6b565b61123384848484611511565b611272576040517f08c379a00000000000000000000000000000000000000000000000000000000081526004016112699061247e565b60405180910390fd5b50505050565b606060405180602001604052806000815250905090565b606060008214156112d7576040518060400160405280600181526020017f30000000000000000000000000000000000000000000000000000000000000008152509050611437565b600082905060005b600082146113095780806112f290612941565b915050600a8261130291906127c3565b91506112df565b60008167ffffffffffffffff81111561134b577f4e487b7100000000000000000000000000000000000000000000000000000000600052604160045260246000fd5b6040519080825280601f01601f19166020018201604052801561137d5781602001600182028036833780820191505090505b5090505b600085146114305760018261139691906127f4565b9150600a856113a5919061298a565b60306113b1919061276d565b60f81b8183815181106113ed577f4e487b7100000000000000000000000000000000000000000000000000000000600052603260045260246000fd5b60200101907effffffffffffffffffffffffffffffffffffffffffffffffffffffffffffff1916908160001a905350600a8561142991906127c3565b9450611381565b8093505050505b919050565b60008073ffffffffffffffffffffffffffffffffffffffff166002600084815260200190815260200160002060009054906101000a900473ffffffffffffffffffffffffffffffffffffffff1673ffffffffffffffffffffffffffffffffffffffff1614159050919050565b505050565b505050565b6114be858585856116a8565b6114cb6000868484611511565b61150a576040517f08c379a00000000000000000000000000000000000000000000000000000000081526004016115019061247e565b60405180910390fd5b5050505050565b60006115328473ffffffffffffffffffffffffffffffffffffffff16611914565b1561169b578373ffffffffffffffffffffffffffffffffffffffff1663150b7a0261155b610c15565b8786866040518563ffffffff1660e01b815260040161157d9493929190612391565b602060405180830381600087803b15801561159757600080fd5b505af19250505080156115c857506040513d601f19601f820116820180604052508101906115c59190611fa5565b60015b61164b573d80600081146115f8576040519150601f19603f3d011682016040523d82523d6000602084013e6115fd565b606091505b50600081511415611643576040517f08c379a000000000000000000000000000000000000000000000000000000000815260040161163a9061247e565b60405180910390fd5b805181602001fd5b63150b7a0260e01b7bffffffffffffffffffffffffffffffffffffffffffffffffffffffff1916817bffffffffffffffffffffffffffffffffffffffffffffffffffffffff1916149150506116a0565b600190505b949350505050565b600073ffffffffffffffffffffffffffffffffffffffff168473ffffffffffffffffffffffffffffffffffffffff161415611718576040517f08c379a000000000000000000000000000000000000000000000000000000000815260040161170f9061253e565b60405180910390fd5b6117218161143c565b15611761576040517f08c379a0000000000000000000000000000000000000000000000000000000008152600401611758906124be565b60405180910390fd5b61176d600085836114a8565b6117768161143c565b156117b6576040517f08c379a00000000000000000000000000000000000000000000000000000000081526004016117ad906124be565b60405180910390fd5b6001600560008673ffffffffffffffffffffffffffffffffffffffff1673ffffffffffffffffffffffffffffffffffffffff16815260200190815260200160002060008282540192505081905550836002600083815260200190815260200160002060006101000a81548173ffffffffffffffffffffffffffffffffffffffff021916908373ffffffffffffffffffffffffffffffffffffffff1602179055508260036000838152602001908152602001600020908051906020019061187d9291906119bd565b50816004600083815260200190815260200160002090805190602001906118a5929190611a47565b50808473ffffffffffffffffffffffffffffffffffffffff16600073ffffffffffffffffffffffffffffffffffffffff167fddf252ad1be2c89b69c2b068fc378daa952ba7f163c4a11628f55a4df523b3ef60405160405180910390a461190e600085836114ad565b50505050565b6000808273ffffffffffffffffffffffffffffffffffffffff163b119050919050565b828054611943906128de565b90600052602060002090601f01602090048101928261196557600085556119ac565b82601f1061197e57805160ff19168380011785556119ac565b828001600101855582156119ac579182015b828111156119ab578251825591602001919060010190611990565b5b5090506119b99190611a94565b5090565b828054828255906000526020600020908101928215611a36579160200282015b82811115611a355782518260006101000a81548173ffffffffffffffffffffffffffffffffffffffff021916908373ffffffffffffffffffffffffffffffffffffffff160217905550916020019190600101906119dd565b5b509050611a439190611a94565b5090565b828054828255906000526020600020908101928215611a83579160200282015b82811115611a82578251825591602001919060010190611a67565b5b509050611a909190611a94565b5090565b5b80821115611aad576000816000905550600101611a95565b5090565b6000611ac4611abf846125fe565b6125d9565b90508083825260208201905082856020860282011115611ae357600080fd5b60005b85811015611b135781611af98882611c05565b845260208401935060208301925050600181019050611ae6565b5050509392505050565b6000611b30611b2b8461262a565b6125d9565b90508083825260208201905082856020860282011115611b4f57600080fd5b60005b85811015611b7f5781611b658882611d01565b845260208401935060208301925050600181019050611b52565b5050509392505050565b6000611b9c611b9784612656565b6125d9565b905082815260208101848484011115611bb457600080fd5b611bbf84828561289c565b509392505050565b6000611bda611bd584612687565b6125d9565b905082815260208101848484011115611bf257600080fd5b611bfd84828561289c565b509392505050565b600081359050611c1481612d55565b92915050565b600082601f830112611c2b57600080fd5b8135611c3b848260208601611ab1565b91505092915050565b600082601f830112611c5557600080fd5b8135611c65848260208601611b1d565b91505092915050565b600081359050611c7d81612d6c565b92915050565b600081359050611c9281612d83565b92915050565b600081519050611ca781612d83565b92915050565b600082601f830112611cbe57600080fd5b8135611cce848260208601611b89565b91505092915050565b600082601f830112611ce857600080fd5b8135611cf8848260208601611bc7565b91505092915050565b600081359050611d1081612d9a565b92915050565b600060208284031215611d2857600080fd5b6000611d3684828501611c05565b91505092915050565b60008060408385031215611d5257600080fd5b6000611d6085828601611c05565b9250506020611d7185828601611c05565b9150509250929050565b600080600060608486031215611d9057600080fd5b6000611d9e86828701611c05565b9350506020611daf86828701611c05565b9250506040611dc086828701611d01565b9150509250925092565b60008060008060808587031215611de057600080fd5b6000611dee87828801611c05565b9450506020611dff87828801611c05565b9350506040611e1087828801611d01565b925050606085013567ffffffffffffffff811115611e2d57600080fd5b611e3987828801611cad565b91505092959194509250565b600080600080600060a08688031215611e5d57600080fd5b6000611e6b88828901611c05565b955050602086013567ffffffffffffffff811115611e8857600080fd5b611e9488828901611c1a565b945050604086013567ffffffffffffffff811115611eb157600080fd5b611ebd88828901611c44565b9350506060611ece88828901611d01565b925050608086013567ffffffffffffffff811115611eeb57600080fd5b611ef788828901611cd7565b9150509295509295909350565b60008060408385031215611f1757600080fd5b6000611f2585828601611c05565b9250506020611f3685828601611c6e565b9150509250929050565b60008060408385031215611f5357600080fd5b6000611f6185828601611c05565b9250506020611f7285828601611d01565b9150509250929050565b600060208284031215611f8e57600080fd5b6000611f9c84828501611c83565b91505092915050565b600060208284031215611fb757600080fd5b6000611fc584828501611c98565b91505092915050565b600060208284031215611fe057600080fd5b6000611fee84828501611d01565b91505092915050565b60006120038383612027565b60208301905092915050565b600061201b8383612334565b60208301905092915050565b61203081612828565b82525050565b61203f81612828565b82525050565b6000612050826126d8565b61205a818561271e565b9350612065836126b8565b8060005b8381101561209657815161207d8882611ff7565b975061208883612704565b925050600181019050612069565b5085935050505092915050565b60006120ae826126e3565b6120b8818561272f565b93506120c3836126c8565b8060005b838110156120f45781516120db888261200f565b97506120e683612711565b9250506001810190506120c7565b5085935050505092915050565b61210a8161283a565b82525050565b600061211b826126ee565b6121258185612740565b93506121358185602086016128ab565b61213e81612a77565b840191505092915050565b6000612154826126f9565b61215e8185612751565b935061216e8185602086016128ab565b61217781612a77565b840191505092915050565b600061218d826126f9565b6121978185612762565b93506121a78185602086016128ab565b80840191505092915050565b60006121c0602d83612751565b91506121cb82612a88565b604082019050919050565b60006121e3603283612751565b91506121ee82612ad7565b604082019050919050565b6000612206602583612751565b915061221182612b26565b604082019050919050565b6000612229601c83612751565b915061223482612b75565b602082019050919050565b600061224c602483612751565b915061225782612b9e565b604082019050919050565b600061226f601983612751565b915061227a82612bed565b602082019050919050565b6000612292602983612751565b915061229d82612c16565b604082019050919050565b60006122b5602083612751565b91506122c082612c65565b602082019050919050565b60006122d8601883612751565b91506122e382612c8e565b602082019050919050565b60006122fb602183612751565b915061230682612cb7565b604082019050919050565b600061231e603d83612751565b915061232982612d06565b604082019050919050565b61233d81612892565b82525050565b61234c81612892565b82525050565b600061235e8285612182565b915061236a8284612182565b91508190509392505050565b600060208201905061238b6000830184612036565b92915050565b60006080820190506123a66000830187612036565b6123b36020830186612036565b6123c06040830185612343565b81810360608301526123d28184612110565b905095945050505050565b600060208201905081810360008301526123f78184612045565b905092915050565b6000602082019050818103600083015261241981846120a3565b905092915050565b60006020820190506124366000830184612101565b92915050565b600060208201905081810360008301526124568184612149565b905092915050565b60006020820190508181036000830152612477816121b3565b9050919050565b60006020820190508181036000830152612497816121d6565b9050919050565b600060208201905081810360008301526124b7816121f9565b9050919050565b600060208201905081810360008301526124d78161221c565b9050919050565b600060208201905081810360008301526124f78161223f565b9050919050565b6000602082019050818103600083015261251781612262565b9050919050565b6000602082019050818103600083015261253781612285565b9050919050565b60006020820190508181036000830152612557816122a8565b9050919050565b60006020820190508181036000830152612577816122cb565b9050919050565b60006020820190508181036000830152612597816122ee565b9050919050565b600060208201905081810360008301526125b781612311565b9050919050565b60006020820190506125d36000830184612343565b92915050565b60006125e36125f4565b90506125ef8282612910565b919050565b6000604051905090565b600067ffffffffffffffff82111561261957612618612a48565b5b602082029050602081019050919050565b600067ffffffffffffffff82111561264557612644612a48565b5b602082029050602081019050919050565b600067ffffffffffffffff82111561267157612670612a48565b5b61267a82612a77565b9050602081019050919050565b600067ffffffffffffffff8211156126a2576126a1612a48565b5b6126ab82612a77565b9050602081019050919050565b6000819050602082019050919050565b6000819050602082019050919050565b600081519050919050565b600081519050919050565b600081519050919050565b600081519050919050565b6000602082019050919050565b6000602082019050919050565b600082825260208201905092915050565b600082825260208201905092915050565b600082825260208201905092915050565b600082825260208201905092915050565b600081905092915050565b600061277882612892565b915061278383612892565b9250827fffffffffffffffffffffffffffffffffffffffffffffffffffffffffffffffff038211156127b8576127b76129bb565b5b828201905092915050565b60006127ce82612892565b91506127d983612892565b9250826127e9576127e86129ea565b5b828204905092915050565b60006127ff82612892565b915061280a83612892565b92508282101561281d5761281c6129bb565b5b828203905092915050565b600061283382612872565b9050919050565b60008115159050919050565b60007fffffffff0000000000000000000000000000000000000000000000000000000082169050919050565b600073ffffffffffffffffffffffffffffffffffffffff82169050919050565b6000819050919050565b82818337600083830152505050565b60005b838110156128c95780820151818401526020810190506128ae565b838111156128d8576000848401525b50505050565b600060028204905060018216806128f657607f821691505b6020821081141561290a57612909612a19565b5b50919050565b61291982612a77565b810181811067ffffffffffffffff8211171561293857612937612a48565b5b80604052505050565b600061294c82612892565b91507fffffffffffffffffffffffffffffffffffffffffffffffffffffffffffffffff82141561297f5761297e6129bb565b5b600182019050919050565b600061299582612892565b91506129a083612892565b9250826129b0576129af6129ea565b5b828206905092915050565b7f4e487b7100000000000000000000000000000000000000000000000000000000600052601160045260246000fd5b7f4e487b7100000000000000000000000000000000000000000000000000000000600052601260045260246000fd5b7f4e487b7100000000000000000000000000000000000000000000000000000000600052602260045260246000fd5b7f4e487b7100000000000000000000000000000000000000000000000000000000600052604160045260246000fd5b6000601f19601f8301169050919050565b7f4552433732313a2063616c6c6572206973206e6f7420746f6b656e206f776e6560008201527f72206f7220617070726f76656400000000000000000000000000000000000000602082015250565b7f4552433732313a207472616e7366657220746f206e6f6e20455243373231526560008201527f63656976657220696d706c656d656e7465720000000000000000000000000000602082015250565b7f4552433732313a207472616e736665722066726f6d20696e636f72726563742060008201527f6f776e6572000000000000000000000000000000000000000000000000000000602082015250565b7f4552433732313a20746f6b656e20616c7265616479206d696e74656400000000600082015250565b7f4552433732313a207472616e7366657220746f20746865207a65726f2061646460008201527f7265737300000000000000000000000000000000000000000000000000000000602082015250565b7f4552433732313a20617070726f766520746f2063616c6c657200000000000000600082015250565b7f4552433732313a2061646472657373207a65726f206973206e6f74206120766160008201527f6c6964206f776e65720000000000000000000000000000000000000000000000602082015250565b7f4552433732313a206d696e7420746f20746865207a65726f2061646472657373600082015250565b7f4552433732313a20696e76616c696420746f6b656e2049440000000000000000600082015250565b7f4552433732313a20617070726f76616c20746f2063757272656e74206f776e6560008201527f7200000000000000000000000000000000000000000000000000000000000000602082015250565b7f4552433732313a20617070726f76652063616c6c6572206973206e6f7420746f60008201527f6b656e206f776e6572206f7220617070726f76656420666f7220616c6c000000602082015250565b612d5e81612828565b8114612d6957600080fd5b50565b612d758161283a565b8114612d8057600080fd5b50565b612d8c81612846565b8114612d9757600080fd5b50565b612da381612892565b8114612dae57600080fd5b5056fea2646970667358221220bc7ca1a82ef4abfaf36a5199072965720e6b3489514518f83afbebd96427a70964736f6c63430008040033",
					"opcodes": "PUSH1 0x80 PUSH1 0x40 MSTORE CALLVALUE DUP1 ISZERO PUSH3 0x11 JUMPI PUSH1 0x0 DUP1 REVERT JUMPDEST POP PUSH1 0x40 MLOAD PUSH3 0x316D CODESIZE SUB DUP1 PUSH3 0x316D DUP4 CODECOPY DUP2 DUP2 ADD PUSH1 0x40 MSTORE DUP2 ADD SWAP1 PUSH3 0x37 SWAP2 SWAP1 PUSH3 0x193 JUMP JUMPDEST DUP2 PUSH1 0x0 SWAP1 DUP1 MLOAD SWAP1 PUSH1 0x20 ADD SWAP1 PUSH3 0x4F SWAP3 SWAP2 SWAP1 PUSH3 0x71 JUMP JUMPDEST POP DUP1 PUSH1 0x1 SWAP1 DUP1 MLOAD SWAP1 PUSH1 0x20 ADD SWAP1 PUSH3 0x68 SWAP3 SWAP2 SWAP1 PUSH3 0x71 JUMP JUMPDEST POP POP POP PUSH3 0x376 JUMP JUMPDEST DUP3 DUP1 SLOAD PUSH3 0x7F SWAP1 PUSH3 0x29B JUMP JUMPDEST SWAP1 PUSH1 0x0 MSTORE PUSH1 0x20 PUSH1 0x0 KECCAK256 SWAP1 PUSH1 0x1F ADD PUSH1 0x20 SWAP1 DIV DUP2 ADD SWAP3 DUP3 PUSH3 0xA3 JUMPI PUSH1 0x0 DUP6 SSTORE PUSH3 0xEF JUMP JUMPDEST DUP3 PUSH1 0x1F LT PUSH3 0xBE JUMPI DUP1 MLOAD PUSH1 0xFF NOT AND DUP4 DUP1 ADD OR DUP6 SSTORE PUSH3 0xEF JUMP JUMPDEST DUP3 DUP1 ADD PUSH1 0x1 ADD DUP6 SSTORE DUP3 ISZERO PUSH3 0xEF JUMPI SWAP2 DUP3 ADD JUMPDEST DUP3 DUP2 GT ISZERO PUSH3 0xEE JUMPI DUP3 MLOAD DUP3 SSTORE SWAP2 PUSH1 0x20 ADD SWAP2 SWAP1 PUSH1 0x1 ADD SWAP1 PUSH3 0xD1 JUMP JUMPDEST JUMPDEST POP SWAP1 POP PUSH3 0xFE SWAP2 SWAP1 PUSH3 0x102 JUMP JUMPDEST POP SWAP1 JUMP JUMPDEST JUMPDEST DUP1 DUP3 GT ISZERO PUSH3 0x11D JUMPI PUSH1 0x0 DUP2 PUSH1 0x0 SWAP1 SSTORE POP PUSH1 0x1 ADD PUSH3 0x103 JUMP JUMPDEST POP SWAP1 JUMP JUMPDEST PUSH1 0x0 PUSH3 0x138 PUSH3 0x132 DUP5 PUSH3 0x22F JUMP JUMPDEST PUSH3 0x206 JUMP JUMPDEST SWAP1 POP DUP3 DUP2 MSTORE PUSH1 0x20 DUP2 ADD DUP5 DUP5 DUP5 ADD GT ISZERO PUSH3 0x151 JUMPI PUSH1 0x0 DUP1 REVERT JUMPDEST PUSH3 0x15E DUP5 DUP3 DUP6 PUSH3 0x265 JUMP JUMPDEST POP SWAP4 SWAP3 POP POP POP JUMP JUMPDEST PUSH1 0x0 DUP3 PUSH1 0x1F DUP4 ADD SLT PUSH3 0x178 JUMPI PUSH1 0x0 DUP1 REVERT JUMPDEST DUP2 MLOAD PUSH3 0x18A DUP5 DUP3 PUSH1 0x20 DUP7 ADD PUSH3 0x121 JUMP JUMPDEST SWAP2 POP POP SWAP3 SWAP2 POP POP JUMP JUMPDEST PUSH1 0x0 DUP1 PUSH1 0x40 DUP4 DUP6 SUB SLT ISZERO PUSH3 0x1A7 JUMPI PUSH1 0x0 DUP1 REVERT JUMPDEST PUSH1 0x0 DUP4 ADD MLOAD PUSH8 0xFFFFFFFFFFFFFFFF DUP2 GT ISZERO PUSH3 0x1C2 JUMPI PUSH1 0x0 DUP1 REVERT JUMPDEST PUSH3 0x1D0 DUP6 DUP3 DUP7 ADD PUSH3 0x166 JUMP JUMPDEST SWAP3 POP POP PUSH1 0x20 DUP4 ADD MLOAD PUSH8 0xFFFFFFFFFFFFFFFF DUP2 GT ISZERO PUSH3 0x1EE JUMPI PUSH1 0x0 DUP1 REVERT JUMPDEST PUSH3 0x1FC DUP6 DUP3 DUP7 ADD PUSH3 0x166 JUMP JUMPDEST SWAP2 POP POP SWAP3 POP SWAP3 SWAP1 POP JUMP JUMPDEST PUSH1 0x0 PUSH3 0x212 PUSH3 0x225 JUMP JUMPDEST SWAP1 POP PUSH3 0x220 DUP3 DUP3 PUSH3 0x2D1 JUMP JUMPDEST SWAP2 SWAP1 POP JUMP JUMPDEST PUSH1 0x0 PUSH1 0x40 MLOAD SWAP1 POP SWAP1 JUMP JUMPDEST PUSH1 0x0 PUSH8 0xFFFFFFFFFFFFFFFF DUP3 GT ISZERO PUSH3 0x24D JUMPI PUSH3 0x24C PUSH3 0x336 JUMP JUMPDEST JUMPDEST PUSH3 0x258 DUP3 PUSH3 0x365 JUMP JUMPDEST SWAP1 POP PUSH1 0x20 DUP2 ADD SWAP1 POP SWAP2 SWAP1 POP JUMP JUMPDEST PUSH1 0x0 JUMPDEST DUP4 DUP2 LT ISZERO PUSH3 0x285 JUMPI DUP1 DUP3 ADD MLOAD DUP2 DUP5 ADD MSTORE PUSH1 0x20 DUP2 ADD SWAP1 POP PUSH3 0x268 JUMP JUMPDEST DUP4 DUP2 GT ISZERO PUSH3 0x295 JUMPI PUSH1 0x0 DUP5 DUP5 ADD MSTORE JUMPDEST POP POP POP POP JUMP JUMPDEST PUSH1 0x0 PUSH1 0x2 DUP3 DIV SWAP1 POP PUSH1 0x1 DUP3 AND DUP1 PUSH3 0x2B4 JUMPI PUSH1 0x7F DUP3 AND SWAP2 POP JUMPDEST PUSH1 0x20 DUP3 LT DUP2 EQ ISZERO PUSH3 0x2CB JUMPI PUSH3 0x2CA PUSH3 0x307 JUMP JUMPDEST JUMPDEST POP SWAP2 SWAP1 POP JUMP JUMPDEST PUSH3 0x2DC DUP3 PUSH3 0x365 JUMP JUMPDEST DUP2 ADD DUP2 DUP2 LT PUSH8 0xFFFFFFFFFFFFFFFF DUP3 GT OR ISZERO PUSH3 0x2FE JUMPI PUSH3 0x2FD PUSH3 0x336 JUMP JUMPDEST JUMPDEST DUP1 PUSH1 0x40 MSTORE POP POP POP JUMP JUMPDEST PUSH32 0x4E487B7100000000000000000000000000000000000000000000000000000000 PUSH1 0x0 MSTORE PUSH1 0x22 PUSH1 0x4 MSTORE PUSH1 0x24 PUSH1 0x0 REVERT JUMPDEST PUSH32 0x4E487B7100000000000000000000000000000000000000000000000000000000 PUSH1 0x0 MSTORE PUSH1 0x41 PUSH1 0x4 MSTORE PUSH1 0x24 PUSH1 0x0 REVERT JUMPDEST PUSH1 0x0 PUSH1 0x1F NOT PUSH1 0x1F DUP4 ADD AND SWAP1 POP SWAP2 SWAP1 POP JUMP JUMPDEST PUSH2 0x2DE7 DUP1 PUSH3 0x386 PUSH1 0x0 CODECOPY PUSH1 0x0 RETURN INVALID PUSH1 0x80 PUSH1 0x40 MSTORE CALLVALUE DUP1 ISZERO PUSH2 0x10 JUMPI PUSH1 0x0 DUP1 REVERT JUMPDEST POP PUSH1 0x4 CALLDATASIZE LT PUSH2 0x100 JUMPI PUSH1 0x0 CALLDATALOAD PUSH1 0xE0 SHR DUP1 PUSH4 0x6352211E GT PUSH2 0x97 JUMPI DUP1 PUSH4 0xB88D4FDE GT PUSH2 0x66 JUMPI DUP1 PUSH4 0xB88D4FDE EQ PUSH2 0x2BD JUMPI DUP1 PUSH4 0xC87B56DD EQ PUSH2 0x2D9 JUMPI DUP1 PUSH4 0xE985E9C5 EQ PUSH2 0x309 JUMPI DUP1 PUSH4 0xEE48CDA2 EQ PUSH2 0x339 JUMPI PUSH2 0x100 JUMP JUMPDEST DUP1 PUSH4 0x6352211E EQ PUSH2 0x223 JUMPI DUP1 PUSH4 0x70A08231 EQ PUSH2 0x253 JUMPI DUP1 PUSH4 0x95D89B41 EQ PUSH2 0x283 JUMPI DUP1 PUSH4 0xA22CB465 EQ PUSH2 0x2A1 JUMPI PUSH2 0x100 JUMP JUMPDEST DUP1 PUSH4 0x23B872DD GT PUSH2 0xD3 JUMPI DUP1 PUSH4 0x23B872DD EQ PUSH2 0x19F JUMPI DUP1 PUSH4 0x3E617381 EQ PUSH2 0x1BB JUMPI DUP1 PUSH4 0x42842E0E EQ PUSH2 0x1D7 JUMPI DUP1 PUSH4 0x52E04825 EQ PUSH2 0x1F3 JUMPI PUSH2 0x100 JUMP JUMPDEST DUP1 PUSH4 0x1FFC9A7 EQ PUSH2 0x105 JUMPI DUP1 PUSH4 0x6FDDE03 EQ PUSH2 0x135 JUMPI DUP1 PUSH4 0x81812FC EQ PUSH2 0x153 JUMPI DUP1 PUSH4 0x95EA7B3 EQ PUSH2 0x183 JUMPI JUMPDEST PUSH1 0x0 DUP1 REVERT JUMPDEST PUSH2 0x11F PUSH1 0x4 DUP1 CALLDATASIZE SUB DUP2 ADD SWAP1 PUSH2 0x11A SWAP2 SWAP1 PUSH2 0x1F7C JUMP JUMPDEST PUSH2 0x369 JUMP JUMPDEST PUSH1 0x40 MLOAD PUSH2 0x12C SWAP2 SWAP1 PUSH2 0x2421 JUMP JUMPDEST PUSH1 0x40 MLOAD DUP1 SWAP2 SUB SWAP1 RETURN JUMPDEST PUSH2 0x13D PUSH2 0x44B JUMP JUMPDEST PUSH1 0x40 MLOAD PUSH2 0x14A SWAP2 SWAP1 PUSH2 0x243C JUMP JUMPDEST PUSH1 0x40 MLOAD DUP1 SWAP2 SUB SWAP1 RETURN JUMPDEST PUSH2 0x16D PUSH1 0x4 DUP1 CALLDATASIZE SUB DUP2 ADD SWAP1 PUSH2 0x168 SWAP2 SWAP1 PUSH2 0x1FCE JUMP JUMPDEST PUSH2 0x4DD JUMP JUMPDEST PUSH1 0x40 MLOAD PUSH2 0x17A SWAP2 SWAP1 PUSH2 0x2376 JUMP JUMPDEST PUSH1 0x40 MLOAD DUP1 SWAP2 SUB SWAP1 RETURN JUMPDEST PUSH2 0x19D PUSH1 0x4 DUP1 CALLDATASIZE SUB DUP2 ADD SWAP1 PUSH2 0x198 SWAP2 SWAP1 PUSH2 0x1F40 JUMP JUMPDEST PUSH2 0x523 JUMP JUMPDEST STOP JUMPDEST PUSH2 0x1B9 PUSH1 0x4 DUP1 CALLDATASIZE SUB DUP2 ADD SWAP1 PUSH2 0x1B4 SWAP2 SWAP1 PUSH2 0x1D7B JUMP JUMPDEST PUSH2 0x63B JUMP JUMPDEST STOP JUMPDEST PUSH2 0x1D5 PUSH1 0x4 DUP1 CALLDATASIZE SUB DUP2 ADD SWAP1 PUSH2 0x1D0 SWAP2 SWAP1 PUSH2 0x1E45 JUMP JUMPDEST PUSH2 0x69B JUMP JUMPDEST STOP JUMPDEST PUSH2 0x1F1 PUSH1 0x4 DUP1 CALLDATASIZE SUB DUP2 ADD SWAP1 PUSH2 0x1EC SWAP2 SWAP1 PUSH2 0x1D7B JUMP JUMPDEST PUSH2 0x6B8 JUMP JUMPDEST STOP JUMPDEST PUSH2 0x20D PUSH1 0x4 DUP1 CALLDATASIZE SUB DUP2 ADD SWAP1 PUSH2 0x208 SWAP2 SWAP1 PUSH2 0x1FCE JUMP JUMPDEST PUSH2 0x6D8 JUMP JUMPDEST PUSH1 0x40 MLOAD PUSH2 0x21A SWAP2 SWAP1 PUSH2 0x23DD JUMP JUMPDEST PUSH1 0x40 MLOAD DUP1 SWAP2 SUB SWAP1 RETURN JUMPDEST PUSH2 0x23D PUSH1 0x4 DUP1 CALLDATASIZE SUB DUP2 ADD SWAP1 PUSH2 0x238 SWAP2 SWAP1 PUSH2 0x1FCE JUMP JUMPDEST PUSH2 0x77F JUMP JUMPDEST PUSH1 0x40 MLOAD PUSH2 0x24A SWAP2 SWAP1 PUSH2 0x2376 JUMP JUMPDEST PUSH1 0x40 MLOAD DUP1 SWAP2 SUB SWAP1 RETURN JUMPDEST PUSH2 0x26D PUSH1 0x4 DUP1 CALLDATASIZE SUB DUP2 ADD SWAP1 PUSH2 0x268 SWAP2 SWAP1 PUSH2 0x1D16 JUMP JUMPDEST PUSH2 0x831 JUMP JUMPDEST PUSH1 0x40 MLOAD PUSH2 0x27A SWAP2 SWAP1 PUSH2 0x25BE JUMP JUMPDEST PUSH1 0x40 MLOAD DUP1 SWAP2 SUB SWAP1 RETURN JUMPDEST PUSH2 0x28B PUSH2 0x8E9 JUMP JUMPDEST PUSH1 0x40 MLOAD PUSH2 0x298 SWAP2 SWAP1 PUSH2 0x243C JUMP JUMPDEST PUSH1 0x40 MLOAD DUP1 SWAP2 SUB SWAP1 RETURN JUMPDEST PUSH2 0x2BB PUSH1 0x4 DUP1 CALLDATASIZE SUB DUP2 ADD SWAP1 PUSH2 0x2B6 SWAP2 SWAP1 PUSH2 0x1F04 JUMP JUMPDEST PUSH2 0x97B JUMP JUMPDEST STOP JUMPDEST PUSH2 0x2D7 PUSH1 0x4 DUP1 CALLDATASIZE SUB DUP2 ADD SWAP1 PUSH2 0x2D2 SWAP2 SWAP1 PUSH2 0x1DCA JUMP JUMPDEST PUSH2 0x991 JUMP JUMPDEST STOP JUMPDEST PUSH2 0x2F3 PUSH1 0x4 DUP1 CALLDATASIZE SUB DUP2 ADD SWAP1 PUSH2 0x2EE SWAP2 SWAP1 PUSH2 0x1FCE JUMP JUMPDEST PUSH2 0x9F3 JUMP JUMPDEST PUSH1 0x40 MLOAD PUSH2 0x300 SWAP2 SWAP1 PUSH2 0x243C JUMP JUMPDEST PUSH1 0x40 MLOAD DUP1 SWAP2 SUB SWAP1 RETURN JUMPDEST PUSH2 0x323 PUSH1 0x4 DUP1 CALLDATASIZE SUB DUP2 ADD SWAP1 PUSH2 0x31E SWAP2 SWAP1 PUSH2 0x1D3F JUMP JUMPDEST PUSH2 0xA5B JUMP JUMPDEST PUSH1 0x40 MLOAD PUSH2 0x330 SWAP2 SWAP1 PUSH2 0x2421 JUMP JUMPDEST PUSH1 0x40 MLOAD DUP1 SWAP2 SUB SWAP1 RETURN JUMPDEST PUSH2 0x353 PUSH1 0x4 DUP1 CALLDATASIZE SUB DUP2 ADD SWAP1 PUSH2 0x34E SWAP2 SWAP1 PUSH2 0x1FCE JUMP JUMPDEST PUSH2 0xAEF JUMP JUMPDEST PUSH1 0x40 MLOAD PUSH2 0x360 SWAP2 SWAP1 PUSH2 0x23FF JUMP JUMPDEST PUSH1 0x40 MLOAD DUP1 SWAP2 SUB SWAP1 RETURN JUMPDEST PUSH1 0x0 PUSH32 0x80AC58CD00000000000000000000000000000000000000000000000000000000 PUSH28 0xFFFFFFFFFFFFFFFFFFFFFFFFFFFFFFFFFFFFFFFFFFFFFFFFFFFFFFFF NOT AND DUP3 PUSH28 0xFFFFFFFFFFFFFFFFFFFFFFFFFFFFFFFFFFFFFFFFFFFFFFFFFFFFFFFF NOT AND EQ DUP1 PUSH2 0x434 JUMPI POP PUSH32 0x5B5E139F00000000000000000000000000000000000000000000000000000000 PUSH28 0xFFFFFFFFFFFFFFFFFFFFFFFFFFFFFFFFFFFFFFFFFFFFFFFFFFFFFFFF NOT AND DUP3 PUSH28 0xFFFFFFFFFFFFFFFFFFFFFFFFFFFFFFFFFFFFFFFFFFFFFFFFFFFFFFFF NOT AND EQ JUMPDEST DUP1 PUSH2 0x444 JUMPI POP PUSH2 0x443 DUP3 PUSH2 0xB60 JUMP JUMPDEST JUMPDEST SWAP1 POP SWAP2 SWAP1 POP JUMP JUMPDEST PUSH1 0x60 PUSH1 0x0 DUP1 SLOAD PUSH2 0x45A SWAP1 PUSH2 0x28DE JUMP JUMPDEST DUP1 PUSH1 0x1F ADD PUSH1 0x20 DUP1 SWAP2 DIV MUL PUSH1 0x20 ADD PUSH1 0x40 MLOAD SWAP1 DUP2 ADD PUSH1 0x40 MSTORE DUP1 SWAP3 SWAP2 SWAP1 DUP2 DUP2 MSTORE PUSH1 0x20 ADD DUP3 DUP1 SLOAD PUSH2 0x486 SWAP1 PUSH2 0x28DE JUMP JUMPDEST DUP1 ISZERO PUSH2 0x4D3 JUMPI DUP1 PUSH1 0x1F LT PUSH2 0x4A8 JUMPI PUSH2 0x100 DUP1 DUP4 SLOAD DIV MUL DUP4 MSTORE SWAP2 PUSH1 0x20 ADD SWAP2 PUSH2 0x4D3 JUMP JUMPDEST DUP3 ADD SWAP2 SWAP1 PUSH1 0x0 MSTORE PUSH1 0x20 PUSH1 0x0 KECCAK256 SWAP1 JUMPDEST DUP2 SLOAD DUP2 MSTORE SWAP1 PUSH1 0x1 ADD SWAP1 PUSH1 0x20 ADD DUP1 DUP4 GT PUSH2 0x4B6 JUMPI DUP3 SWAP1 SUB PUSH1 0x1F AND DUP3 ADD SWAP2 JUMPDEST POP POP POP POP POP SWAP1 POP SWAP1 JUMP JUMPDEST PUSH1 0x0 PUSH2 0x4E8 DUP3 PUSH2 0xBCA JUMP JUMPDEST PUSH1 0x6 PUSH1 0x0 DUP4 DUP2 MSTORE PUSH1 0x20 ADD SWAP1 DUP2 MSTORE PUSH1 0x20 ADD PUSH1 0x0 KECCAK256 PUSH1 0x0 SWAP1 SLOAD SWAP1 PUSH2 0x100 EXP SWAP1 DIV PUSH20 0xFFFFFFFFFFFFFFFFFFFFFFFFFFFFFFFFFFFFFFFF AND SWAP1 POP SWAP2 SWAP1 POP JUMP JUMPDEST PUSH1 0x0 PUSH2 0x52E DUP3 PUSH2 0x77F JUMP JUMPDEST SWAP1 POP DUP1 PUSH20 0xFFFFFFFFFFFFFFFFFFFFFFFFFFFFFFFFFFFFFFFF AND DUP4 PUSH20 0xFFFFFFFFFFFFFFFFFFFFFFFFFFFFFFFFFFFFFFFF AND EQ ISZERO PUSH2 0x59F JUMPI PUSH1 0x40 MLOAD PUSH32 0x8C379A000000000000000000000000000000000000000000000000000000000 DUP2 MSTORE PUSH1 0x4 ADD PUSH2 0x596 SWAP1 PUSH2 0x257E JUMP JUMPDEST PUSH1 0x40 MLOAD DUP1 SWAP2 SUB SWAP1 REVERT JUMPDEST DUP1 PUSH20 0xFFFFFFFFFFFFFFFFFFFFFFFFFFFFFFFFFFFFFFFF AND PUSH2 0x5BE PUSH2 0xC15 JUMP JUMPDEST PUSH20 0xFFFFFFFFFFFFFFFFFFFFFFFFFFFFFFFFFFFFFFFF AND EQ DUP1 PUSH2 0x5ED JUMPI POP PUSH2 0x5EC DUP2 PUSH2 0x5E7 PUSH2 0xC15 JUMP JUMPDEST PUSH2 0xA5B JUMP JUMPDEST JUMPDEST PUSH2 0x62C JUMPI PUSH1 0x40 MLOAD PUSH32 0x8C379A000000000000000000000000000000000000000000000000000000000 DUP2 MSTORE PUSH1 0x4 ADD PUSH2 0x623 SWAP1 PUSH2 0x259E JUMP JUMPDEST PUSH1 0x40 MLOAD DUP1 SWAP2 SUB SWAP1 REVERT JUMPDEST PUSH2 0x636 DUP4 DUP4 PUSH2 0xC1D JUMP JUMPDEST POP POP POP JUMP JUMPDEST PUSH2 0x64C PUSH2 0x646 PUSH2 0xC15 JUMP JUMPDEST DUP3 PUSH2 0xCD6 JUMP JUMPDEST PUSH2 0x68B JUMPI PUSH1 0x40 MLOAD PUSH32 0x8C379A000000000000000000000000000000000000000000000000000000000 DUP2 MSTORE PUSH1 0x4 ADD PUSH2 0x682 SWAP1 PUSH2 0x245E JUMP JUMPDEST PUSH1 0x40 MLOAD DUP1 SWAP2 SUB SWAP1 REVERT JUMPDEST PUSH2 0x696 DUP4 DUP4 DUP4 PUSH2 0xD6B JUMP JUMPDEST POP POP POP JUMP JUMPDEST PUSH2 0x6A7 DUP6 DUP6 DUP6 DUP6 PUSH2 0x1061 JUMP JUMPDEST PUSH2 0x6B1 DUP3 DUP3 PUSH2 0x1083 JUMP JUMPDEST POP POP POP POP POP JUMP JUMPDEST PUSH2 0x6D3 DUP4 DUP4 DUP4 PUSH1 0x40 MLOAD DUP1 PUSH1 0x20 ADD PUSH1 0x40 MSTORE DUP1 PUSH1 0x0 DUP2 MSTORE POP PUSH2 0x991 JUMP JUMPDEST POP POP POP JUMP JUMPDEST PUSH1 0x60 PUSH1 0x0 PUSH1 0x3 PUSH1 0x0 DUP5 DUP2 MSTORE PUSH1 0x20 ADD SWAP1 DUP2 MSTORE PUSH1 0x20 ADD PUSH1 0x0 KECCAK256 DUP1 SLOAD DUP1 PUSH1 0x20 MUL PUSH1 0x20 ADD PUSH1 0x40 MLOAD SWAP1 DUP2 ADD PUSH1 0x40 MSTORE DUP1 SWAP3 SWAP2 SWAP1 DUP2 DUP2 MSTORE PUSH1 0x20 ADD DUP3 DUP1 SLOAD DUP1 ISZERO PUSH2 0x76F JUMPI PUSH1 0x20 MUL DUP3 ADD SWAP2 SWAP1 PUSH1 0x0 MSTORE PUSH1 0x20 PUSH1 0x0 KECCAK256 SWAP1 JUMPDEST DUP2 PUSH1 0x0 SWAP1 SLOAD SWAP1 PUSH2 0x100 EXP SWAP1 DIV PUSH20 0xFFFFFFFFFFFFFFFFFFFFFFFFFFFFFFFFFFFFFFFF AND PUSH20 0xFFFFFFFFFFFFFFFFFFFFFFFFFFFFFFFFFFFFFFFF AND DUP2 MSTORE PUSH1 0x20 ADD SWAP1 PUSH1 0x1 ADD SWAP1 DUP1 DUP4 GT PUSH2 0x725 JUMPI JUMPDEST POP POP POP POP POP SWAP1 POP DUP1 SWAP2 POP POP SWAP2 SWAP1 POP JUMP JUMPDEST PUSH1 0x0 DUP1 PUSH1 0x2 PUSH1 0x0 DUP5 DUP2 MSTORE PUSH1 0x20 ADD SWAP1 DUP2 MSTORE PUSH1 0x20 ADD PUSH1 0x0 KECCAK256 PUSH1 0x0 SWAP1 SLOAD SWAP1 PUSH2 0x100 EXP SWAP1 DIV PUSH20 0xFFFFFFFFFFFFFFFFFFFFFFFFFFFFFFFFFFFFFFFF AND SWAP1 POP PUSH1 0x0 PUSH20 0xFFFFFFFFFFFFFFFFFFFFFFFFFFFFFFFFFFFFFFFF AND DUP2 PUSH20 0xFFFFFFFFFFFFFFFFFFFFFFFFFFFFFFFFFFFFFFFF AND EQ ISZERO PUSH2 0x828 JUMPI PUSH1 0x40 MLOAD PUSH32 0x8C379A000000000000000000000000000000000000000000000000000000000 DUP2 MSTORE PUSH1 0x4 ADD PUSH2 0x81F SWAP1 PUSH2 0x255E JUMP JUMPDEST PUSH1 0x40 MLOAD DUP1 SWAP2 SUB SWAP1 REVERT JUMPDEST DUP1 SWAP2 POP POP SWAP2 SWAP1 POP JUMP JUMPDEST PUSH1 0x0 DUP1 PUSH20 0xFFFFFFFFFFFFFFFFFFFFFFFFFFFFFFFFFFFFFFFF AND DUP3 PUSH20 0xFFFFFFFFFFFFFFFFFFFFFFFFFFFFFFFFFFFFFFFF AND EQ ISZERO PUSH2 0x8A2 JUMPI PUSH1 0x40 MLOAD PUSH32 0x8C379A000000000000000000000000000000000000000000000000000000000 DUP2 MSTORE PUSH1 0x4 ADD PUSH2 0x899 SWAP1 PUSH2 0x251E JUMP JUMPDEST PUSH1 0x40 MLOAD DUP1 SWAP2 SUB SWAP1 REVERT JUMPDEST PUSH1 0x5 PUSH1 0x0 DUP4 PUSH20 0xFFFFFFFFFFFFFFFFFFFFFFFFFFFFFFFFFFFFFFFF AND PUSH20 0xFFFFFFFFFFFFFFFFFFFFFFFFFFFFFFFFFFFFFFFF AND DUP2 MSTORE PUSH1 0x20 ADD SWAP1 DUP2 MSTORE PUSH1 0x20 ADD PUSH1 0x0 KECCAK256 SLOAD SWAP1 POP SWAP2 SWAP1 POP JUMP JUMPDEST PUSH1 0x60 PUSH1 0x1 DUP1 SLOAD PUSH2 0x8F8 SWAP1 PUSH2 0x28DE JUMP JUMPDEST DUP1 PUSH1 0x1F ADD PUSH1 0x20 DUP1 SWAP2 DIV MUL PUSH1 0x20 ADD PUSH1 0x40 MLOAD SWAP1 DUP2 ADD PUSH1 0x40 MSTORE DUP1 SWAP3 SWAP2 SWAP1 DUP2 DUP2 MSTORE PUSH1 0x20 ADD DUP3 DUP1 SLOAD PUSH2 0x924 SWAP1 PUSH2 0x28DE JUMP JUMPDEST DUP1 ISZERO PUSH2 0x971 JUMPI DUP1 PUSH1 0x1F LT PUSH2 0x946 JUMPI PUSH2 0x100 DUP1 DUP4 SLOAD DIV MUL DUP4 MSTORE SWAP2 PUSH1 0x20 ADD SWAP2 PUSH2 0x971 JUMP JUMPDEST DUP3 ADD SWAP2 SWAP1 PUSH1 0x0 MSTORE PUSH1 0x20 PUSH1 0x0 KECCAK256 SWAP1 JUMPDEST DUP2 SLOAD DUP2 MSTORE SWAP1 PUSH1 0x1 ADD SWAP1 PUSH1 0x20 ADD DUP1 DUP4 GT PUSH2 0x954 JUMPI DUP3 SWAP1 SUB PUSH1 0x1F AND DUP3 ADD SWAP2 JUMPDEST POP POP POP POP POP SWAP1 POP SWAP1 JUMP JUMPDEST PUSH2 0x98D PUSH2 0x986 PUSH2 0xC15 JUMP JUMPDEST DUP4 DUP4 PUSH2 0x10AF JUMP JUMPDEST POP POP JUMP JUMPDEST PUSH2 0x9A2 PUSH2 0x99C PUSH2 0xC15 JUMP JUMPDEST DUP4 PUSH2 0xCD6 JUMP JUMPDEST PUSH2 0x9E1 JUMPI PUSH1 0x40 MLOAD PUSH32 0x8C379A000000000000000000000000000000000000000000000000000000000 DUP2 MSTORE PUSH1 0x4 ADD PUSH2 0x9D8 SWAP1 PUSH2 0x245E JUMP JUMPDEST PUSH1 0x40 MLOAD DUP1 SWAP2 SUB SWAP1 REVERT JUMPDEST PUSH2 0x9ED DUP5 DUP5 DUP5 DUP5 PUSH2 0x121C JUMP JUMPDEST POP POP POP POP JUMP JUMPDEST PUSH1 0x60 PUSH2 0x9FE DUP3 PUSH2 0xBCA JUMP JUMPDEST PUSH1 0x0 PUSH2 0xA08 PUSH2 0x1278 JUMP JUMPDEST SWAP1 POP PUSH1 0x0 DUP2 MLOAD GT PUSH2 0xA28 JUMPI PUSH1 0x40 MLOAD DUP1 PUSH1 0x20 ADD PUSH1 0x40 MSTORE DUP1 PUSH1 0x0 DUP2 MSTORE POP PUSH2 0xA53 JUMP JUMPDEST DUP1 PUSH2 0xA32 DUP5 PUSH2 0x128F JUMP JUMPDEST PUSH1 0x40 MLOAD PUSH1 0x20 ADD PUSH2 0xA43 SWAP3 SWAP2 SWAP1 PUSH2 0x2352 JUMP JUMPDEST PUSH1 0x40 MLOAD PUSH1 0x20 DUP2 DUP4 SUB SUB DUP2 MSTORE SWAP1 PUSH1 0x40 MSTORE JUMPDEST SWAP2 POP POP SWAP2 SWAP1 POP JUMP JUMPDEST PUSH1 0x0 PUSH1 0x7 PUSH1 0x0 DUP5 PUSH20 0xFFFFFFFFFFFFFFFFFFFFFFFFFFFFFFFFFFFFFFFF AND PUSH20 0xFFFFFFFFFFFFFFFFFFFFFFFFFFFFFFFFFFFFFFFF AND DUP2 MSTORE PUSH1 0x20 ADD SWAP1 DUP2 MSTORE PUSH1 0x20 ADD PUSH1 0x0 KECCAK256 PUSH1 0x0 DUP4 PUSH20 0xFFFFFFFFFFFFFFFFFFFFFFFFFFFFFFFFFFFFFFFF AND PUSH20 0xFFFFFFFFFFFFFFFFFFFFFFFFFFFFFFFFFFFFFFFF AND DUP2 MSTORE PUSH1 0x20 ADD SWAP1 DUP2 MSTORE PUSH1 0x20 ADD PUSH1 0x0 KECCAK256 PUSH1 0x0 SWAP1 SLOAD SWAP1 PUSH2 0x100 EXP SWAP1 DIV PUSH1 0xFF AND SWAP1 POP SWAP3 SWAP2 POP POP JUMP JUMPDEST PUSH1 0x60 PUSH1 0x0 PUSH1 0x4 PUSH1 0x0 DUP5 DUP2 MSTORE PUSH1 0x20 ADD SWAP1 DUP2 MSTORE PUSH1 0x20 ADD PUSH1 0x0 KECCAK256 DUP1 SLOAD DUP1 PUSH1 0x20 MUL PUSH1 0x20 ADD PUSH1 0x40 MLOAD SWAP1 DUP2 ADD PUSH1 0x40 MSTORE DUP1 SWAP3 SWAP2 SWAP1 DUP2 DUP2 MSTORE PUSH1 0x20 ADD DUP3 DUP1 SLOAD DUP1 ISZERO PUSH2 0xB50 JUMPI PUSH1 0x20 MUL DUP3 ADD SWAP2 SWAP1 PUSH1 0x0 MSTORE PUSH1 0x20 PUSH1 0x0 KECCAK256 SWAP1 JUMPDEST DUP2 SLOAD DUP2 MSTORE PUSH1 0x20 ADD SWAP1 PUSH1 0x1 ADD SWAP1 DUP1 DUP4 GT PUSH2 0xB3C JUMPI JUMPDEST POP POP POP POP POP SWAP1 POP DUP1 SWAP2 POP POP SWAP2 SWAP1 POP JUMP JUMPDEST PUSH1 0x0 PUSH32 0x1FFC9A700000000000000000000000000000000000000000000000000000000 PUSH28 0xFFFFFFFFFFFFFFFFFFFFFFFFFFFFFFFFFFFFFFFFFFFFFFFFFFFFFFFF NOT AND DUP3 PUSH28 0xFFFFFFFFFFFFFFFFFFFFFFFFFFFFFFFFFFFFFFFFFFFFFFFFFFFFFFFF NOT AND EQ SWAP1 POP SWAP2 SWAP1 POP JUMP JUMPDEST PUSH2 0xBD3 DUP2 PUSH2 0x143C JUMP JUMPDEST PUSH2 0xC12 JUMPI PUSH1 0x40 MLOAD PUSH32 0x8C379A000000000000000000000000000000000000000000000000000000000 DUP2 MSTORE PUSH1 0x4 ADD PUSH2 0xC09 SWAP1 PUSH2 0x255E JUMP JUMPDEST PUSH1 0x40 MLOAD DUP1 SWAP2 SUB SWAP1 REVERT JUMPDEST POP JUMP JUMPDEST PUSH1 0x0 CALLER SWAP1 POP SWAP1 JUMP JUMPDEST DUP2 PUSH1 0x6 PUSH1 0x0 DUP4 DUP2 MSTORE PUSH1 0x20 ADD SWAP1 DUP2 MSTORE PUSH1 0x20 ADD PUSH1 0x0 KECCAK256 PUSH1 0x0 PUSH2 0x100 EXP DUP2 SLOAD DUP2 PUSH20 0xFFFFFFFFFFFFFFFFFFFFFFFFFFFFFFFFFFFFFFFF MUL NOT AND SWAP1 DUP4 PUSH20 0xFFFFFFFFFFFFFFFFFFFFFFFFFFFFFFFFFFFFFFFF AND MUL OR SWAP1 SSTORE POP DUP1 DUP3 PUSH20 0xFFFFFFFFFFFFFFFFFFFFFFFFFFFFFFFFFFFFFFFF AND PUSH2 0xC90 DUP4 PUSH2 0x77F JUMP JUMPDEST PUSH20 0xFFFFFFFFFFFFFFFFFFFFFFFFFFFFFFFFFFFFFFFF AND PUSH32 0x8C5BE1E5EBEC7D5BD14F71427D1E84F3DD0314C0F7B2291E5B200AC8C7C3B925 PUSH1 0x40 MLOAD PUSH1 0x40 MLOAD DUP1 SWAP2 SUB SWAP1 LOG4 POP POP JUMP JUMPDEST PUSH1 0x0 DUP1 PUSH2 0xCE2 DUP4 PUSH2 0x77F JUMP JUMPDEST SWAP1 POP DUP1 PUSH20 0xFFFFFFFFFFFFFFFFFFFFFFFFFFFFFFFFFFFFFFFF AND DUP5 PUSH20 0xFFFFFFFFFFFFFFFFFFFFFFFFFFFFFFFFFFFFFFFF AND EQ DUP1 PUSH2 0xD24 JUMPI POP PUSH2 0xD23 DUP2 DUP6 PUSH2 0xA5B JUMP JUMPDEST JUMPDEST DUP1 PUSH2 0xD62 JUMPI POP DUP4 PUSH20 0xFFFFFFFFFFFFFFFFFFFFFFFFFFFFFFFFFFFFFFFF AND PUSH2 0xD4A DUP5 PUSH2 0x4DD JUMP JUMPDEST PUSH20 0xFFFFFFFFFFFFFFFFFFFFFFFFFFFFFFFFFFFFFFFF AND EQ JUMPDEST SWAP2 POP POP SWAP3 SWAP2 POP POP JUMP JUMPDEST DUP3 PUSH20 0xFFFFFFFFFFFFFFFFFFFFFFFFFFFFFFFFFFFFFFFF AND PUSH2 0xD8B DUP3 PUSH2 0x77F JUMP JUMPDEST PUSH20 0xFFFFFFFFFFFFFFFFFFFFFFFFFFFFFFFFFFFFFFFF AND EQ PUSH2 0xDE1 JUMPI PUSH1 0x40 MLOAD PUSH32 0x8C379A000000000000000000000000000000000000000000000000000000000 DUP2 MSTORE PUSH1 0x4 ADD PUSH2 0xDD8 SWAP1 PUSH2 0x249E JUMP JUMPDEST PUSH1 0x40 MLOAD DUP1 SWAP2 SUB SWAP1 REVERT JUMPDEST PUSH1 0x0 PUSH20 0xFFFFFFFFFFFFFFFFFFFFFFFFFFFFFFFFFFFFFFFF AND DUP3 PUSH20 0xFFFFFFFFFFFFFFFFFFFFFFFFFFFFFFFFFFFFFFFF AND EQ ISZERO PUSH2 0xE51 JUMPI PUSH1 0x40 MLOAD PUSH32 0x8C379A000000000000000000000000000000000000000000000000000000000 DUP2 MSTORE PUSH1 0x4 ADD PUSH2 0xE48 SWAP1 PUSH2 0x24DE JUMP JUMPDEST PUSH1 0x40 MLOAD DUP1 SWAP2 SUB SWAP1 REVERT JUMPDEST PUSH2 0xE5C DUP4 DUP4 DUP4 PUSH2 0x14A8 JUMP JUMPDEST DUP3 PUSH20 0xFFFFFFFFFFFFFFFFFFFFFFFFFFFFFFFFFFFFFFFF AND PUSH2 0xE7C DUP3 PUSH2 0x77F JUMP JUMPDEST PUSH20 0xFFFFFFFFFFFFFFFFFFFFFFFFFFFFFFFFFFFFFFFF AND EQ PUSH2 0xED2 JUMPI PUSH1 0x40 MLOAD PUSH32 0x8C379A000000000000000000000000000000000000000000000000000000000 DUP2 MSTORE PUSH1 0x4 ADD PUSH2 0xEC9 SWAP1 PUSH2 0x249E JUMP JUMPDEST PUSH1 0x40 MLOAD DUP1 SWAP2 SUB SWAP1 REVERT JUMPDEST PUSH1 0x6 PUSH1 0x0 DUP3 DUP2 MSTORE PUSH1 0x20 ADD SWAP1 DUP2 MSTORE PUSH1 0x20 ADD PUSH1 0x0 KECCAK256 PUSH1 0x0 PUSH2 0x100 EXP DUP2 SLOAD SWAP1 PUSH20 0xFFFFFFFFFFFFFFFFFFFFFFFFFFFFFFFFFFFFFFFF MUL NOT AND SWAP1 SSTORE PUSH1 0x1 PUSH1 0x5 PUSH1 0x0 DUP6 PUSH20 0xFFFFFFFFFFFFFFFFFFFFFFFFFFFFFFFFFFFFFFFF AND PUSH20 0xFFFFFFFFFFFFFFFFFFFFFFFFFFFFFFFFFFFFFFFF AND DUP2 MSTORE PUSH1 0x20 ADD SWAP1 DUP2 MSTORE PUSH1 0x20 ADD PUSH1 0x0 KECCAK256 PUSH1 0x0 DUP3 DUP3 SLOAD SUB SWAP3 POP POP DUP2 SWAP1 SSTORE POP PUSH1 0x1 PUSH1 0x5 PUSH1 0x0 DUP5 PUSH20 0xFFFFFFFFFFFFFFFFFFFFFFFFFFFFFFFFFFFFFFFF AND PUSH20 0xFFFFFFFFFFFFFFFFFFFFFFFFFFFFFFFFFFFFFFFF AND DUP2 MSTORE PUSH1 0x20 ADD SWAP1 DUP2 MSTORE PUSH1 0x20 ADD PUSH1 0x0 KECCAK256 PUSH1 0x0 DUP3 DUP3 SLOAD ADD SWAP3 POP POP DUP2 SWAP1 SSTORE POP DUP2 PUSH1 0x2 PUSH1 0x0 DUP4 DUP2 MSTORE PUSH1 0x20 ADD SWAP1 DUP2 MSTORE PUSH1 0x20 ADD PUSH1 0x0 KECCAK256 PUSH1 0x0 PUSH2 0x100 EXP DUP2 SLOAD DUP2 PUSH20 0xFFFFFFFFFFFFFFFFFFFFFFFFFFFFFFFFFFFFFFFF MUL NOT AND SWAP1 DUP4 PUSH20 0xFFFFFFFFFFFFFFFFFFFFFFFFFFFFFFFFFFFFFFFF AND MUL OR SWAP1 SSTORE POP DUP1 DUP3 PUSH20 0xFFFFFFFFFFFFFFFFFFFFFFFFFFFFFFFFFFFFFFFF AND DUP5 PUSH20 0xFFFFFFFFFFFFFFFFFFFFFFFFFFFFFFFFFFFFFFFF AND PUSH32 0xDDF252AD1BE2C89B69C2B068FC378DAA952BA7F163C4A11628F55A4DF523B3EF PUSH1 0x40 MLOAD PUSH1 0x40 MLOAD DUP1 SWAP2 SUB SWAP1 LOG4 PUSH2 0x105C DUP4 DUP4 DUP4 PUSH2 0x14AD JUMP JUMPDEST POP POP POP JUMP JUMPDEST PUSH2 0x107D DUP5 DUP5 DUP5 DUP5 PUSH1 0x40 MLOAD DUP1 PUSH1 0x20 ADD PUSH1 0x40 MSTORE DUP1 PUSH1 0x0 DUP2 MSTORE POP PUSH2 0x14B2 JUMP JUMPDEST POP POP POP POP JUMP JUMPDEST DUP1 PUSH1 0x8 PUSH1 0x0 DUP5 DUP2 MSTORE PUSH1 0x20 ADD SWAP1 DUP2 MSTORE PUSH1 0x20 ADD PUSH1 0x0 KECCAK256 SWAP1 DUP1 MLOAD SWAP1 PUSH1 0x20 ADD SWAP1 PUSH2 0x10AA SWAP3 SWAP2 SWAP1 PUSH2 0x1937 JUMP JUMPDEST POP POP POP JUMP JUMPDEST DUP2 PUSH20 0xFFFFFFFFFFFFFFFFFFFFFFFFFFFFFFFFFFFFFFFF AND DUP4 PUSH20 0xFFFFFFFFFFFFFFFFFFFFFFFFFFFFFFFFFFFFFFFF AND EQ ISZERO PUSH2 0x111E JUMPI PUSH1 0x40 MLOAD PUSH32 0x8C379A000000000000000000000000000000000000000000000000000000000 DUP2 MSTORE PUSH1 0x4 ADD PUSH2 0x1115 SWAP1 PUSH2 0x24FE JUMP JUMPDEST PUSH1 0x40 MLOAD DUP1 SWAP2 SUB SWAP1 REVERT JUMPDEST DUP1 PUSH1 0x7 PUSH1 0x0 DUP6 PUSH20 0xFFFFFFFFFFFFFFFFFFFFFFFFFFFFFFFFFFFFFFFF AND PUSH20 0xFFFFFFFFFFFFFFFFFFFFFFFFFFFFFFFFFFFFFFFF AND DUP2 MSTORE PUSH1 0x20 ADD SWAP1 DUP2 MSTORE PUSH1 0x20 ADD PUSH1 0x0 KECCAK256 PUSH1 0x0 DUP5 PUSH20 0xFFFFFFFFFFFFFFFFFFFFFFFFFFFFFFFFFFFFFFFF AND PUSH20 0xFFFFFFFFFFFFFFFFFFFFFFFFFFFFFFFFFFFFFFFF AND DUP2 MSTORE PUSH1 0x20 ADD SWAP1 DUP2 MSTORE PUSH1 0x20 ADD PUSH1 0x0 KECCAK256 PUSH1 0x0 PUSH2 0x100 EXP DUP2 SLOAD DUP2 PUSH1 0xFF MUL NOT AND SWAP1 DUP4 ISZERO ISZERO MUL OR SWAP1 SSTORE POP DUP2 PUSH20 0xFFFFFFFFFFFFFFFFFFFFFFFFFFFFFFFFFFFFFFFF AND DUP4 PUSH20 0xFFFFFFFFFFFFFFFFFFFFFFFFFFFFFFFFFFFFFFFF AND PUSH32 0x17307EAB39AB6107E8899845AD3D59BD9653F200F220920489CA2B5937696C31 DUP4 PUSH1 0x40 MLOAD PUSH2 0x120F SWAP2 SWAP1 PUSH2 0x2421 JUMP JUMPDEST PUSH1 0x40 MLOAD DUP1 SWAP2 SUB SWAP1 LOG3 POP POP POP JUMP JUMPDEST PUSH2 0x1227 DUP5 DUP5 DUP5 PUSH2 0xD6B JUMP JUMPDEST PUSH2 0x1233 DUP5 DUP5 DUP5 DUP5 PUSH2 0x1511 JUMP JUMPDEST PUSH2 0x1272 JUMPI PUSH1 0x40 MLOAD PUSH32 0x8C379A000000000000000000000000000000000000000000000000000000000 DUP2 MSTORE PUSH1 0x4 ADD PUSH2 0x1269 SWAP1 PUSH2 0x247E JUMP JUMPDEST PUSH1 0x40 MLOAD DUP1 SWAP2 SUB SWAP1 REVERT JUMPDEST POP POP POP POP JUMP JUMPDEST PUSH1 0x60 PUSH1 0x40 MLOAD DUP1 PUSH1 0x20 ADD PUSH1 0x40 MSTORE DUP1 PUSH1 0x0 DUP2 MSTORE POP SWAP1 POP SWAP1 JUMP JUMPDEST PUSH1 0x60 PUSH1 0x0 DUP3 EQ ISZERO PUSH2 0x12D7 JUMPI PUSH1 0x40 MLOAD DUP1 PUSH1 0x40 ADD PUSH1 0x40 MSTORE DUP1 PUSH1 0x1 DUP2 MSTORE PUSH1 0x20 ADD PUSH32 0x3000000000000000000000000000000000000000000000000000000000000000 DUP2 MSTORE POP SWAP1 POP PUSH2 0x1437 JUMP JUMPDEST PUSH1 0x0 DUP3 SWAP1 POP PUSH1 0x0 JUMPDEST PUSH1 0x0 DUP3 EQ PUSH2 0x1309 JUMPI DUP1 DUP1 PUSH2 0x12F2 SWAP1 PUSH2 0x2941 JUMP JUMPDEST SWAP2 POP POP PUSH1 0xA DUP3 PUSH2 0x1302 SWAP2 SWAP1 PUSH2 0x27C3 JUMP JUMPDEST SWAP2 POP PUSH2 0x12DF JUMP JUMPDEST PUSH1 0x0 DUP2 PUSH8 0xFFFFFFFFFFFFFFFF DUP2 GT ISZERO PUSH2 0x134B JUMPI PUSH32 0x4E487B7100000000000000000000000000000000000000000000000000000000 PUSH1 0x0 MSTORE PUSH1 0x41 PUSH1 0x4 MSTORE PUSH1 0x24 PUSH1 0x0 REVERT JUMPDEST PUSH1 0x40 MLOAD SWAP1 DUP1 DUP3 MSTORE DUP1 PUSH1 0x1F ADD PUSH1 0x1F NOT AND PUSH1 0x20 ADD DUP3 ADD PUSH1 0x40 MSTORE DUP1 ISZERO PUSH2 0x137D JUMPI DUP2 PUSH1 0x20 ADD PUSH1 0x1 DUP3 MUL DUP1 CALLDATASIZE DUP4 CALLDATACOPY DUP1 DUP3 ADD SWAP2 POP POP SWAP1 POP JUMPDEST POP SWAP1 POP JUMPDEST PUSH1 0x0 DUP6 EQ PUSH2 0x1430 JUMPI PUSH1 0x1 DUP3 PUSH2 0x1396 SWAP2 SWAP1 PUSH2 0x27F4 JUMP JUMPDEST SWAP2 POP PUSH1 0xA DUP6 PUSH2 0x13A5 SWAP2 SWAP1 PUSH2 0x298A JUMP JUMPDEST PUSH1 0x30 PUSH2 0x13B1 SWAP2 SWAP1 PUSH2 0x276D JUMP JUMPDEST PUSH1 0xF8 SHL DUP2 DUP4 DUP2 MLOAD DUP2 LT PUSH2 0x13ED JUMPI PUSH32 0x4E487B7100000000000000000000000000000000000000000000000000000000 PUSH1 0x0 MSTORE PUSH1 0x32 PUSH1 0x4 MSTORE PUSH1 0x24 PUSH1 0x0 REVERT JUMPDEST PUSH1 0x20 ADD ADD SWAP1 PUSH31 0xFFFFFFFFFFFFFFFFFFFFFFFFFFFFFFFFFFFFFFFFFFFFFFFFFFFFFFFFFFFFFF NOT AND SWAP1 DUP2 PUSH1 0x0 BYTE SWAP1 MSTORE8 POP PUSH1 0xA DUP6 PUSH2 0x1429 SWAP2 SWAP1 PUSH2 0x27C3 JUMP JUMPDEST SWAP5 POP PUSH2 0x1381 JUMP JUMPDEST DUP1 SWAP4 POP POP POP POP JUMPDEST SWAP2 SWAP1 POP JUMP JUMPDEST PUSH1 0x0 DUP1 PUSH20 0xFFFFFFFFFFFFFFFFFFFFFFFFFFFFFFFFFFFFFFFF AND PUSH1 0x2 PUSH1 0x0 DUP5 DUP2 MSTORE PUSH1 0x20 ADD SWAP1 DUP2 MSTORE PUSH1 0x20 ADD PUSH1 0x0 KECCAK256 PUSH1 0x0 SWAP1 SLOAD SWAP1 PUSH2 0x100 EXP SWAP1 DIV PUSH20 0xFFFFFFFFFFFFFFFFFFFFFFFFFFFFFFFFFFFFFFFF AND PUSH20 0xFFFFFFFFFFFFFFFFFFFFFFFFFFFFFFFFFFFFFFFF AND EQ ISZERO SWAP1 POP SWAP2 SWAP1 POP JUMP JUMPDEST POP POP POP JUMP JUMPDEST POP POP POP JUMP JUMPDEST PUSH2 0x14BE DUP6 DUP6 DUP6 DUP6 PUSH2 0x16A8 JUMP JUMPDEST PUSH2 0x14CB PUSH1 0x0 DUP7 DUP5 DUP5 PUSH2 0x1511 JUMP JUMPDEST PUSH2 0x150A JUMPI PUSH1 0x40 MLOAD PUSH32 0x8C379A000000000000000000000000000000000000000000000000000000000 DUP2 MSTORE PUSH1 0x4 ADD PUSH2 0x1501 SWAP1 PUSH2 0x247E JUMP JUMPDEST PUSH1 0x40 MLOAD DUP1 SWAP2 SUB SWAP1 REVERT JUMPDEST POP POP POP POP POP JUMP JUMPDEST PUSH1 0x0 PUSH2 0x1532 DUP5 PUSH20 0xFFFFFFFFFFFFFFFFFFFFFFFFFFFFFFFFFFFFFFFF AND PUSH2 0x1914 JUMP JUMPDEST ISZERO PUSH2 0x169B JUMPI DUP4 PUSH20 0xFFFFFFFFFFFFFFFFFFFFFFFFFFFFFFFFFFFFFFFF AND PUSH4 0x150B7A02 PUSH2 0x155B PUSH2 0xC15 JUMP JUMPDEST DUP8 DUP7 DUP7 PUSH1 0x40 MLOAD DUP6 PUSH4 0xFFFFFFFF AND PUSH1 0xE0 SHL DUP2 MSTORE PUSH1 0x4 ADD PUSH2 0x157D SWAP5 SWAP4 SWAP3 SWAP2 SWAP1 PUSH2 0x2391 JUMP JUMPDEST PUSH1 0x20 PUSH1 0x40 MLOAD DUP1 DUP4 SUB DUP2 PUSH1 0x0 DUP8 DUP1 EXTCODESIZE ISZERO DUP1 ISZERO PUSH2 0x1597 JUMPI PUSH1 0x0 DUP1 REVERT JUMPDEST POP GAS CALL SWAP3 POP POP POP DUP1 ISZERO PUSH2 0x15C8 JUMPI POP PUSH1 0x40 MLOAD RETURNDATASIZE PUSH1 0x1F NOT PUSH1 0x1F DUP3 ADD AND DUP3 ADD DUP1 PUSH1 0x40 MSTORE POP DUP2 ADD SWAP1 PUSH2 0x15C5 SWAP2 SWAP1 PUSH2 0x1FA5 JUMP JUMPDEST PUSH1 0x1 JUMPDEST PUSH2 0x164B JUMPI RETURNDATASIZE DUP1 PUSH1 0x0 DUP2 EQ PUSH2 0x15F8 JUMPI PUSH1 0x40 MLOAD SWAP2 POP PUSH1 0x1F NOT PUSH1 0x3F RETURNDATASIZE ADD AND DUP3 ADD PUSH1 0x40 MSTORE RETURNDATASIZE DUP3 MSTORE RETURNDATASIZE PUSH1 0x0 PUSH1 0x20 DUP5 ADD RETURNDATACOPY PUSH2 0x15FD JUMP JUMPDEST PUSH1 0x60 SWAP2 POP JUMPDEST POP PUSH1 0x0 DUP2 MLOAD EQ ISZERO PUSH2 0x1643 JUMPI PUSH1 0x40 MLOAD PUSH32 0x8C379A000000000000000000000000000000000000000000000000000000000 DUP2 MSTORE PUSH1 0x4 ADD PUSH2 0x163A SWAP1 PUSH2 0x247E JUMP JUMPDEST PUSH1 0x40 MLOAD DUP1 SWAP2 SUB SWAP1 REVERT JUMPDEST DUP1 MLOAD DUP2 PUSH1 0x20 ADD REVERT JUMPDEST PUSH4 0x150B7A02 PUSH1 0xE0 SHL PUSH28 0xFFFFFFFFFFFFFFFFFFFFFFFFFFFFFFFFFFFFFFFFFFFFFFFFFFFFFFFF NOT AND DUP2 PUSH28 0xFFFFFFFFFFFFFFFFFFFFFFFFFFFFFFFFFFFFFFFFFFFFFFFFFFFFFFFF NOT AND EQ SWAP2 POP POP PUSH2 0x16A0 JUMP JUMPDEST PUSH1 0x1 SWAP1 POP JUMPDEST SWAP5 SWAP4 POP POP POP POP JUMP JUMPDEST PUSH1 0x0 PUSH20 0xFFFFFFFFFFFFFFFFFFFFFFFFFFFFFFFFFFFFFFFF AND DUP5 PUSH20 0xFFFFFFFFFFFFFFFFFFFFFFFFFFFFFFFFFFFFFFFF AND EQ ISZERO PUSH2 0x1718 JUMPI PUSH1 0x40 MLOAD PUSH32 0x8C379A000000000000000000000000000000000000000000000000000000000 DUP2 MSTORE PUSH1 0x4 ADD PUSH2 0x170F SWAP1 PUSH2 0x253E JUMP JUMPDEST PUSH1 0x40 MLOAD DUP1 SWAP2 SUB SWAP1 REVERT JUMPDEST PUSH2 0x1721 DUP2 PUSH2 0x143C JUMP JUMPDEST ISZERO PUSH2 0x1761 JUMPI PUSH1 0x40 MLOAD PUSH32 0x8C379A000000000000000000000000000000000000000000000000000000000 DUP2 MSTORE PUSH1 0x4 ADD PUSH2 0x1758 SWAP1 PUSH2 0x24BE JUMP JUMPDEST PUSH1 0x40 MLOAD DUP1 SWAP2 SUB SWAP1 REVERT JUMPDEST PUSH2 0x176D PUSH1 0x0 DUP6 DUP4 PUSH2 0x14A8 JUMP JUMPDEST PUSH2 0x1776 DUP2 PUSH2 0x143C JUMP JUMPDEST ISZERO PUSH2 0x17B6 JUMPI PUSH1 0x40 MLOAD PUSH32 0x8C379A000000000000000000000000000000000000000000000000000000000 DUP2 MSTORE PUSH1 0x4 ADD PUSH2 0x17AD SWAP1 PUSH2 0x24BE JUMP JUMPDEST PUSH1 0x40 MLOAD DUP1 SWAP2 SUB SWAP1 REVERT JUMPDEST PUSH1 0x1 PUSH1 0x5 PUSH1 0x0 DUP7 PUSH20 0xFFFFFFFFFFFFFFFFFFFFFFFFFFFFFFFFFFFFFFFF AND PUSH20 0xFFFFFFFFFFFFFFFFFFFFFFFFFFFFFFFFFFFFFFFF AND DUP2 MSTORE PUSH1 0x20 ADD SWAP1 DUP2 MSTORE PUSH1 0x20 ADD PUSH1 0x0 KECCAK256 PUSH1 0x0 DUP3 DUP3 SLOAD ADD SWAP3 POP POP DUP2 SWAP1 SSTORE POP DUP4 PUSH1 0x2 PUSH1 0x0 DUP4 DUP2 MSTORE PUSH1 0x20 ADD SWAP1 DUP2 MSTORE PUSH1 0x20 ADD PUSH1 0x0 KECCAK256 PUSH1 0x0 PUSH2 0x100 EXP DUP2 SLOAD DUP2 PUSH20 0xFFFFFFFFFFFFFFFFFFFFFFFFFFFFFFFFFFFFFFFF MUL NOT AND SWAP1 DUP4 PUSH20 0xFFFFFFFFFFFFFFFFFFFFFFFFFFFFFFFFFFFFFFFF AND MUL OR SWAP1 SSTORE POP DUP3 PUSH1 0x3 PUSH1 0x0 DUP4 DUP2 MSTORE PUSH1 0x20 ADD SWAP1 DUP2 MSTORE PUSH1 0x20 ADD PUSH1 0x0 KECCAK256 SWAP1 DUP1 MLOAD SWAP1 PUSH1 0x20 ADD SWAP1 PUSH2 0x187D SWAP3 SWAP2 SWAP1 PUSH2 0x19BD JUMP JUMPDEST POP DUP2 PUSH1 0x4 PUSH1 0x0 DUP4 DUP2 MSTORE PUSH1 0x20 ADD SWAP1 DUP2 MSTORE PUSH1 0x20 ADD PUSH1 0x0 KECCAK256 SWAP1 DUP1 MLOAD SWAP1 PUSH1 0x20 ADD SWAP1 PUSH2 0x18A5 SWAP3 SWAP2 SWAP1 PUSH2 0x1A47 JUMP JUMPDEST POP DUP1 DUP5 PUSH20 0xFFFFFFFFFFFFFFFFFFFFFFFFFFFFFFFFFFFFFFFF AND PUSH1 0x0 PUSH20 0xFFFFFFFFFFFFFFFFFFFFFFFFFFFFFFFFFFFFFFFF AND PUSH32 0xDDF252AD1BE2C89B69C2B068FC378DAA952BA7F163C4A11628F55A4DF523B3EF PUSH1 0x40 MLOAD PUSH1 0x40 MLOAD DUP1 SWAP2 SUB SWAP1 LOG4 PUSH2 0x190E PUSH1 0x0 DUP6 DUP4 PUSH2 0x14AD JUMP JUMPDEST POP POP POP POP JUMP JUMPDEST PUSH1 0x0 DUP1 DUP3 PUSH20 0xFFFFFFFFFFFFFFFFFFFFFFFFFFFFFFFFFFFFFFFF AND EXTCODESIZE GT SWAP1 POP SWAP2 SWAP1 POP JUMP JUMPDEST DUP3 DUP1 SLOAD PUSH2 0x1943 SWAP1 PUSH2 0x28DE JUMP JUMPDEST SWAP1 PUSH1 0x0 MSTORE PUSH1 0x20 PUSH1 0x0 KECCAK256 SWAP1 PUSH1 0x1F ADD PUSH1 0x20 SWAP1 DIV DUP2 ADD SWAP3 DUP3 PUSH2 0x1965 JUMPI PUSH1 0x0 DUP6 SSTORE PUSH2 0x19AC JUMP JUMPDEST DUP3 PUSH1 0x1F LT PUSH2 0x197E JUMPI DUP1 MLOAD PUSH1 0xFF NOT AND DUP4 DUP1 ADD OR DUP6 SSTORE PUSH2 0x19AC JUMP JUMPDEST DUP3 DUP1 ADD PUSH1 0x1 ADD DUP6 SSTORE DUP3 ISZERO PUSH2 0x19AC JUMPI SWAP2 DUP3 ADD JUMPDEST DUP3 DUP2 GT ISZERO PUSH2 0x19AB JUMPI DUP3 MLOAD DUP3 SSTORE SWAP2 PUSH1 0x20 ADD SWAP2 SWAP1 PUSH1 0x1 ADD SWAP1 PUSH2 0x1990 JUMP JUMPDEST JUMPDEST POP SWAP1 POP PUSH2 0x19B9 SWAP2 SWAP1 PUSH2 0x1A94 JUMP JUMPDEST POP SWAP1 JUMP JUMPDEST DUP3 DUP1 SLOAD DUP3 DUP3 SSTORE SWAP1 PUSH1 0x0 MSTORE PUSH1 0x20 PUSH1 0x0 KECCAK256 SWAP1 DUP2 ADD SWAP3 DUP3 ISZERO PUSH2 0x1A36 JUMPI SWAP2 PUSH1 0x20 MUL DUP3 ADD JUMPDEST DUP3 DUP2 GT ISZERO PUSH2 0x1A35 JUMPI DUP3 MLOAD DUP3 PUSH1 0x0 PUSH2 0x100 EXP DUP2 SLOAD DUP2 PUSH20 0xFFFFFFFFFFFFFFFFFFFFFFFFFFFFFFFFFFFFFFFF MUL NOT AND SWAP1 DUP4 PUSH20 0xFFFFFFFFFFFFFFFFFFFFFFFFFFFFFFFFFFFFFFFF AND MUL OR SWAP1 SSTORE POP SWAP2 PUSH1 0x20 ADD SWAP2 SWAP1 PUSH1 0x1 ADD SWAP1 PUSH2 0x19DD JUMP JUMPDEST JUMPDEST POP SWAP1 POP PUSH2 0x1A43 SWAP2 SWAP1 PUSH2 0x1A94 JUMP JUMPDEST POP SWAP1 JUMP JUMPDEST DUP3 DUP1 SLOAD DUP3 DUP3 SSTORE SWAP1 PUSH1 0x0 MSTORE PUSH1 0x20 PUSH1 0x0 KECCAK256 SWAP1 DUP2 ADD SWAP3 DUP3 ISZERO PUSH2 0x1A83 JUMPI SWAP2 PUSH1 0x20 MUL DUP3 ADD JUMPDEST DUP3 DUP2 GT ISZERO PUSH2 0x1A82 JUMPI DUP3 MLOAD DUP3 SSTORE SWAP2 PUSH1 0x20 ADD SWAP2 SWAP1 PUSH1 0x1 ADD SWAP1 PUSH2 0x1A67 JUMP JUMPDEST JUMPDEST POP SWAP1 POP PUSH2 0x1A90 SWAP2 SWAP1 PUSH2 0x1A94 JUMP JUMPDEST POP SWAP1 JUMP JUMPDEST JUMPDEST DUP1 DUP3 GT ISZERO PUSH2 0x1AAD JUMPI PUSH1 0x0 DUP2 PUSH1 0x0 SWAP1 SSTORE POP PUSH1 0x1 ADD PUSH2 0x1A95 JUMP JUMPDEST POP SWAP1 JUMP JUMPDEST PUSH1 0x0 PUSH2 0x1AC4 PUSH2 0x1ABF DUP5 PUSH2 0x25FE JUMP JUMPDEST PUSH2 0x25D9 JUMP JUMPDEST SWAP1 POP DUP1 DUP4 DUP3 MSTORE PUSH1 0x20 DUP3 ADD SWAP1 POP DUP3 DUP6 PUSH1 0x20 DUP7 MUL DUP3 ADD GT ISZERO PUSH2 0x1AE3 JUMPI PUSH1 0x0 DUP1 REVERT JUMPDEST PUSH1 0x0 JUMPDEST DUP6 DUP2 LT ISZERO PUSH2 0x1B13 JUMPI DUP2 PUSH2 0x1AF9 DUP9 DUP3 PUSH2 0x1C05 JUMP JUMPDEST DUP5 MSTORE PUSH1 0x20 DUP5 ADD SWAP4 POP PUSH1 0x20 DUP4 ADD SWAP3 POP POP PUSH1 0x1 DUP2 ADD SWAP1 POP PUSH2 0x1AE6 JUMP JUMPDEST POP POP POP SWAP4 SWAP3 POP POP POP JUMP JUMPDEST PUSH1 0x0 PUSH2 0x1B30 PUSH2 0x1B2B DUP5 PUSH2 0x262A JUMP JUMPDEST PUSH2 0x25D9 JUMP JUMPDEST SWAP1 POP DUP1 DUP4 DUP3 MSTORE PUSH1 0x20 DUP3 ADD SWAP1 POP DUP3 DUP6 PUSH1 0x20 DUP7 MUL DUP3 ADD GT ISZERO PUSH2 0x1B4F JUMPI PUSH1 0x0 DUP1 REVERT JUMPDEST PUSH1 0x0 JUMPDEST DUP6 DUP2 LT ISZERO PUSH2 0x1B7F JUMPI DUP2 PUSH2 0x1B65 DUP9 DUP3 PUSH2 0x1D01 JUMP JUMPDEST DUP5 MSTORE PUSH1 0x20 DUP5 ADD SWAP4 POP PUSH1 0x20 DUP4 ADD SWAP3 POP POP PUSH1 0x1 DUP2 ADD SWAP1 POP PUSH2 0x1B52 JUMP JUMPDEST POP POP POP SWAP4 SWAP3 POP POP POP JUMP JUMPDEST PUSH1 0x0 PUSH2 0x1B9C PUSH2 0x1B97 DUP5 PUSH2 0x2656 JUMP JUMPDEST PUSH2 0x25D9 JUMP JUMPDEST SWAP1 POP DUP3 DUP2 MSTORE PUSH1 0x20 DUP2 ADD DUP5 DUP5 DUP5 ADD GT ISZERO PUSH2 0x1BB4 JUMPI PUSH1 0x0 DUP1 REVERT JUMPDEST PUSH2 0x1BBF DUP5 DUP3 DUP6 PUSH2 0x289C JUMP JUMPDEST POP SWAP4 SWAP3 POP POP POP JUMP JUMPDEST PUSH1 0x0 PUSH2 0x1BDA PUSH2 0x1BD5 DUP5 PUSH2 0x2687 JUMP JUMPDEST PUSH2 0x25D9 JUMP JUMPDEST SWAP1 POP DUP3 DUP2 MSTORE PUSH1 0x20 DUP2 ADD DUP5 DUP5 DUP5 ADD GT ISZERO PUSH2 0x1BF2 JUMPI PUSH1 0x0 DUP1 REVERT JUMPDEST PUSH2 0x1BFD DUP5 DUP3 DUP6 PUSH2 0x289C JUMP JUMPDEST POP SWAP4 SWAP3 POP POP POP JUMP JUMPDEST PUSH1 0x0 DUP2 CALLDATALOAD SWAP1 POP PUSH2 0x1C14 DUP2 PUSH2 0x2D55 JUMP JUMPDEST SWAP3 SWAP2 POP POP JUMP JUMPDEST PUSH1 0x0 DUP3 PUSH1 0x1F DUP4 ADD SLT PUSH2 0x1C2B JUMPI PUSH1 0x0 DUP1 REVERT JUMPDEST DUP2 CALLDATALOAD PUSH2 0x1C3B DUP5 DUP3 PUSH1 0x20 DUP7 ADD PUSH2 0x1AB1 JUMP JUMPDEST SWAP2 POP POP SWAP3 SWAP2 POP POP JUMP JUMPDEST PUSH1 0x0 DUP3 PUSH1 0x1F DUP4 ADD SLT PUSH2 0x1C55 JUMPI PUSH1 0x0 DUP1 REVERT JUMPDEST DUP2 CALLDATALOAD PUSH2 0x1C65 DUP5 DUP3 PUSH1 0x20 DUP7 ADD PUSH2 0x1B1D JUMP JUMPDEST SWAP2 POP POP SWAP3 SWAP2 POP POP JUMP JUMPDEST PUSH1 0x0 DUP2 CALLDATALOAD SWAP1 POP PUSH2 0x1C7D DUP2 PUSH2 0x2D6C JUMP JUMPDEST SWAP3 SWAP2 POP POP JUMP JUMPDEST PUSH1 0x0 DUP2 CALLDATALOAD SWAP1 POP PUSH2 0x1C92 DUP2 PUSH2 0x2D83 JUMP JUMPDEST SWAP3 SWAP2 POP POP JUMP JUMPDEST PUSH1 0x0 DUP2 MLOAD SWAP1 POP PUSH2 0x1CA7 DUP2 PUSH2 0x2D83 JUMP JUMPDEST SWAP3 SWAP2 POP POP JUMP JUMPDEST PUSH1 0x0 DUP3 PUSH1 0x1F DUP4 ADD SLT PUSH2 0x1CBE JUMPI PUSH1 0x0 DUP1 REVERT JUMPDEST DUP2 CALLDATALOAD PUSH2 0x1CCE DUP5 DUP3 PUSH1 0x20 DUP7 ADD PUSH2 0x1B89 JUMP JUMPDEST SWAP2 POP POP SWAP3 SWAP2 POP POP JUMP JUMPDEST PUSH1 0x0 DUP3 PUSH1 0x1F DUP4 ADD SLT PUSH2 0x1CE8 JUMPI PUSH1 0x0 DUP1 REVERT JUMPDEST DUP2 CALLDATALOAD PUSH2 0x1CF8 DUP5 DUP3 PUSH1 0x20 DUP7 ADD PUSH2 0x1BC7 JUMP JUMPDEST SWAP2 POP POP SWAP3 SWAP2 POP POP JUMP JUMPDEST PUSH1 0x0 DUP2 CALLDATALOAD SWAP1 POP PUSH2 0x1D10 DUP2 PUSH2 0x2D9A JUMP JUMPDEST SWAP3 SWAP2 POP POP JUMP JUMPDEST PUSH1 0x0 PUSH1 0x20 DUP3 DUP5 SUB SLT ISZERO PUSH2 0x1D28 JUMPI PUSH1 0x0 DUP1 REVERT JUMPDEST PUSH1 0x0 PUSH2 0x1D36 DUP5 DUP3 DUP6 ADD PUSH2 0x1C05 JUMP JUMPDEST SWAP2 POP POP SWAP3 SWAP2 POP POP JUMP JUMPDEST PUSH1 0x0 DUP1 PUSH1 0x40 DUP4 DUP6 SUB SLT ISZERO PUSH2 0x1D52 JUMPI PUSH1 0x0 DUP1 REVERT JUMPDEST PUSH1 0x0 PUSH2 0x1D60 DUP6 DUP3 DUP7 ADD PUSH2 0x1C05 JUMP JUMPDEST SWAP3 POP POP PUSH1 0x20 PUSH2 0x1D71 DUP6 DUP3 DUP7 ADD PUSH2 0x1C05 JUMP JUMPDEST SWAP2 POP POP SWAP3 POP SWAP3 SWAP1 POP JUMP JUMPDEST PUSH1 0x0 DUP1 PUSH1 0x0 PUSH1 0x60 DUP5 DUP7 SUB SLT ISZERO PUSH2 0x1D90 JUMPI PUSH1 0x0 DUP1 REVERT JUMPDEST PUSH1 0x0 PUSH2 0x1D9E DUP7 DUP3 DUP8 ADD PUSH2 0x1C05 JUMP JUMPDEST SWAP4 POP POP PUSH1 0x20 PUSH2 0x1DAF DUP7 DUP3 DUP8 ADD PUSH2 0x1C05 JUMP JUMPDEST SWAP3 POP POP PUSH1 0x40 PUSH2 0x1DC0 DUP7 DUP3 DUP8 ADD PUSH2 0x1D01 JUMP JUMPDEST SWAP2 POP POP SWAP3 POP SWAP3 POP SWAP3 JUMP JUMPDEST PUSH1 0x0 DUP1 PUSH1 0x0 DUP1 PUSH1 0x80 DUP6 DUP8 SUB SLT ISZERO PUSH2 0x1DE0 JUMPI PUSH1 0x0 DUP1 REVERT JUMPDEST PUSH1 0x0 PUSH2 0x1DEE DUP8 DUP3 DUP9 ADD PUSH2 0x1C05 JUMP JUMPDEST SWAP5 POP POP PUSH1 0x20 PUSH2 0x1DFF DUP8 DUP3 DUP9 ADD PUSH2 0x1C05 JUMP JUMPDEST SWAP4 POP POP PUSH1 0x40 PUSH2 0x1E10 DUP8 DUP3 DUP9 ADD PUSH2 0x1D01 JUMP JUMPDEST SWAP3 POP POP PUSH1 0x60 DUP6 ADD CALLDATALOAD PUSH8 0xFFFFFFFFFFFFFFFF DUP2 GT ISZERO PUSH2 0x1E2D JUMPI PUSH1 0x0 DUP1 REVERT JUMPDEST PUSH2 0x1E39 DUP8 DUP3 DUP9 ADD PUSH2 0x1CAD JUMP JUMPDEST SWAP2 POP POP SWAP3 SWAP6 SWAP2 SWAP5 POP SWAP3 POP JUMP JUMPDEST PUSH1 0x0 DUP1 PUSH1 0x0 DUP1 PUSH1 0x0 PUSH1 0xA0 DUP7 DUP9 SUB SLT ISZERO PUSH2 0x1E5D JUMPI PUSH1 0x0 DUP1 REVERT JUMPDEST PUSH1 0x0 PUSH2 0x1E6B DUP9 DUP3 DUP10 ADD PUSH2 0x1C05 JUMP JUMPDEST SWAP6 POP POP PUSH1 0x20 DUP7 ADD CALLDATALOAD PUSH8 0xFFFFFFFFFFFFFFFF DUP2 GT ISZERO PUSH2 0x1E88 JUMPI PUSH1 0x0 DUP1 REVERT JUMPDEST PUSH2 0x1E94 DUP9 DUP3 DUP10 ADD PUSH2 0x1C1A JUMP JUMPDEST SWAP5 POP POP PUSH1 0x40 DUP7 ADD CALLDATALOAD PUSH8 0xFFFFFFFFFFFFFFFF DUP2 GT ISZERO PUSH2 0x1EB1 JUMPI PUSH1 0x0 DUP1 REVERT JUMPDEST PUSH2 0x1EBD DUP9 DUP3 DUP10 ADD PUSH2 0x1C44 JUMP JUMPDEST SWAP4 POP POP PUSH1 0x60 PUSH2 0x1ECE DUP9 DUP3 DUP10 ADD PUSH2 0x1D01 JUMP JUMPDEST SWAP3 POP POP PUSH1 0x80 DUP7 ADD CALLDATALOAD PUSH8 0xFFFFFFFFFFFFFFFF DUP2 GT ISZERO PUSH2 0x1EEB JUMPI PUSH1 0x0 DUP1 REVERT JUMPDEST PUSH2 0x1EF7 DUP9 DUP3 DUP10 ADD PUSH2 0x1CD7 JUMP JUMPDEST SWAP2 POP POP SWAP3 SWAP6 POP SWAP3 SWAP6 SWAP1 SWAP4 POP JUMP JUMPDEST PUSH1 0x0 DUP1 PUSH1 0x40 DUP4 DUP6 SUB SLT ISZERO PUSH2 0x1F17 JUMPI PUSH1 0x0 DUP1 REVERT JUMPDEST PUSH1 0x0 PUSH2 0x1F25 DUP6 DUP3 DUP7 ADD PUSH2 0x1C05 JUMP JUMPDEST SWAP3 POP POP PUSH1 0x20 PUSH2 0x1F36 DUP6 DUP3 DUP7 ADD PUSH2 0x1C6E JUMP JUMPDEST SWAP2 POP POP SWAP3 POP SWAP3 SWAP1 POP JUMP JUMPDEST PUSH1 0x0 DUP1 PUSH1 0x40 DUP4 DUP6 SUB SLT ISZERO PUSH2 0x1F53 JUMPI PUSH1 0x0 DUP1 REVERT JUMPDEST PUSH1 0x0 PUSH2 0x1F61 DUP6 DUP3 DUP7 ADD PUSH2 0x1C05 JUMP JUMPDEST SWAP3 POP POP PUSH1 0x20 PUSH2 0x1F72 DUP6 DUP3 DUP7 ADD PUSH2 0x1D01 JUMP JUMPDEST SWAP2 POP POP SWAP3 POP SWAP3 SWAP1 POP JUMP JUMPDEST PUSH1 0x0 PUSH1 0x20 DUP3 DUP5 SUB SLT ISZERO PUSH2 0x1F8E JUMPI PUSH1 0x0 DUP1 REVERT JUMPDEST PUSH1 0x0 PUSH2 0x1F9C DUP5 DUP3 DUP6 ADD PUSH2 0x1C83 JUMP JUMPDEST SWAP2 POP POP SWAP3 SWAP2 POP POP JUMP JUMPDEST PUSH1 0x0 PUSH1 0x20 DUP3 DUP5 SUB SLT ISZERO PUSH2 0x1FB7 JUMPI PUSH1 0x0 DUP1 REVERT JUMPDEST PUSH1 0x0 PUSH2 0x1FC5 DUP5 DUP3 DUP6 ADD PUSH2 0x1C98 JUMP JUMPDEST SWAP2 POP POP SWAP3 SWAP2 POP POP JUMP JUMPDEST PUSH1 0x0 PUSH1 0x20 DUP3 DUP5 SUB SLT ISZERO PUSH2 0x1FE0 JUMPI PUSH1 0x0 DUP1 REVERT JUMPDEST PUSH1 0x0 PUSH2 0x1FEE DUP5 DUP3 DUP6 ADD PUSH2 0x1D01 JUMP JUMPDEST SWAP2 POP POP SWAP3 SWAP2 POP POP JUMP JUMPDEST PUSH1 0x0 PUSH2 0x2003 DUP4 DUP4 PUSH2 0x2027 JUMP JUMPDEST PUSH1 0x20 DUP4 ADD SWAP1 POP SWAP3 SWAP2 POP POP JUMP JUMPDEST PUSH1 0x0 PUSH2 0x201B DUP4 DUP4 PUSH2 0x2334 JUMP JUMPDEST PUSH1 0x20 DUP4 ADD SWAP1 POP SWAP3 SWAP2 POP POP JUMP JUMPDEST PUSH2 0x2030 DUP2 PUSH2 0x2828 JUMP JUMPDEST DUP3 MSTORE POP POP JUMP JUMPDEST PUSH2 0x203F DUP2 PUSH2 0x2828 JUMP JUMPDEST DUP3 MSTORE POP POP JUMP JUMPDEST PUSH1 0x0 PUSH2 0x2050 DUP3 PUSH2 0x26D8 JUMP JUMPDEST PUSH2 0x205A DUP2 DUP6 PUSH2 0x271E JUMP JUMPDEST SWAP4 POP PUSH2 0x2065 DUP4 PUSH2 0x26B8 JUMP JUMPDEST DUP1 PUSH1 0x0 JUMPDEST DUP4 DUP2 LT ISZERO PUSH2 0x2096 JUMPI DUP2 MLOAD PUSH2 0x207D DUP9 DUP3 PUSH2 0x1FF7 JUMP JUMPDEST SWAP8 POP PUSH2 0x2088 DUP4 PUSH2 0x2704 JUMP JUMPDEST SWAP3 POP POP PUSH1 0x1 DUP2 ADD SWAP1 POP PUSH2 0x2069 JUMP JUMPDEST POP DUP6 SWAP4 POP POP POP POP SWAP3 SWAP2 POP POP JUMP JUMPDEST PUSH1 0x0 PUSH2 0x20AE DUP3 PUSH2 0x26E3 JUMP JUMPDEST PUSH2 0x20B8 DUP2 DUP6 PUSH2 0x272F JUMP JUMPDEST SWAP4 POP PUSH2 0x20C3 DUP4 PUSH2 0x26C8 JUMP JUMPDEST DUP1 PUSH1 0x0 JUMPDEST DUP4 DUP2 LT ISZERO PUSH2 0x20F4 JUMPI DUP2 MLOAD PUSH2 0x20DB DUP9 DUP3 PUSH2 0x200F JUMP JUMPDEST SWAP8 POP PUSH2 0x20E6 DUP4 PUSH2 0x2711 JUMP JUMPDEST SWAP3 POP POP PUSH1 0x1 DUP2 ADD SWAP1 POP PUSH2 0x20C7 JUMP JUMPDEST POP DUP6 SWAP4 POP POP POP POP SWAP3 SWAP2 POP POP JUMP JUMPDEST PUSH2 0x210A DUP2 PUSH2 0x283A JUMP JUMPDEST DUP3 MSTORE POP POP JUMP JUMPDEST PUSH1 0x0 PUSH2 0x211B DUP3 PUSH2 0x26EE JUMP JUMPDEST PUSH2 0x2125 DUP2 DUP6 PUSH2 0x2740 JUMP JUMPDEST SWAP4 POP PUSH2 0x2135 DUP2 DUP6 PUSH1 0x20 DUP7 ADD PUSH2 0x28AB JUMP JUMPDEST PUSH2 0x213E DUP2 PUSH2 0x2A77 JUMP JUMPDEST DUP5 ADD SWAP2 POP POP SWAP3 SWAP2 POP POP JUMP JUMPDEST PUSH1 0x0 PUSH2 0x2154 DUP3 PUSH2 0x26F9 JUMP JUMPDEST PUSH2 0x215E DUP2 DUP6 PUSH2 0x2751 JUMP JUMPDEST SWAP4 POP PUSH2 0x216E DUP2 DUP6 PUSH1 0x20 DUP7 ADD PUSH2 0x28AB JUMP JUMPDEST PUSH2 0x2177 DUP2 PUSH2 0x2A77 JUMP JUMPDEST DUP5 ADD SWAP2 POP POP SWAP3 SWAP2 POP POP JUMP JUMPDEST PUSH1 0x0 PUSH2 0x218D DUP3 PUSH2 0x26F9 JUMP JUMPDEST PUSH2 0x2197 DUP2 DUP6 PUSH2 0x2762 JUMP JUMPDEST SWAP4 POP PUSH2 0x21A7 DUP2 DUP6 PUSH1 0x20 DUP7 ADD PUSH2 0x28AB JUMP JUMPDEST DUP1 DUP5 ADD SWAP2 POP POP SWAP3 SWAP2 POP POP JUMP JUMPDEST PUSH1 0x0 PUSH2 0x21C0 PUSH1 0x2D DUP4 PUSH2 0x2751 JUMP JUMPDEST SWAP2 POP PUSH2 0x21CB DUP3 PUSH2 0x2A88 JUMP JUMPDEST PUSH1 0x40 DUP3 ADD SWAP1 POP SWAP2 SWAP1 POP JUMP JUMPDEST PUSH1 0x0 PUSH2 0x21E3 PUSH1 0x32 DUP4 PUSH2 0x2751 JUMP JUMPDEST SWAP2 POP PUSH2 0x21EE DUP3 PUSH2 0x2AD7 JUMP JUMPDEST PUSH1 0x40 DUP3 ADD SWAP1 POP SWAP2 SWAP1 POP JUMP JUMPDEST PUSH1 0x0 PUSH2 0x2206 PUSH1 0x25 DUP4 PUSH2 0x2751 JUMP JUMPDEST SWAP2 POP PUSH2 0x2211 DUP3 PUSH2 0x2B26 JUMP JUMPDEST PUSH1 0x40 DUP3 ADD SWAP1 POP SWAP2 SWAP1 POP JUMP JUMPDEST PUSH1 0x0 PUSH2 0x2229 PUSH1 0x1C DUP4 PUSH2 0x2751 JUMP JUMPDEST SWAP2 POP PUSH2 0x2234 DUP3 PUSH2 0x2B75 JUMP JUMPDEST PUSH1 0x20 DUP3 ADD SWAP1 POP SWAP2 SWAP1 POP JUMP JUMPDEST PUSH1 0x0 PUSH2 0x224C PUSH1 0x24 DUP4 PUSH2 0x2751 JUMP JUMPDEST SWAP2 POP PUSH2 0x2257 DUP3 PUSH2 0x2B9E JUMP JUMPDEST PUSH1 0x40 DUP3 ADD SWAP1 POP SWAP2 SWAP1 POP JUMP JUMPDEST PUSH1 0x0 PUSH2 0x226F PUSH1 0x19 DUP4 PUSH2 0x2751 JUMP JUMPDEST SWAP2 POP PUSH2 0x227A DUP3 PUSH2 0x2BED JUMP JUMPDEST PUSH1 0x20 DUP3 ADD SWAP1 POP SWAP2 SWAP1 POP JUMP JUMPDEST PUSH1 0x0 PUSH2 0x2292 PUSH1 0x29 DUP4 PUSH2 0x2751 JUMP JUMPDEST SWAP2 POP PUSH2 0x229D DUP3 PUSH2 0x2C16 JUMP JUMPDEST PUSH1 0x40 DUP3 ADD SWAP1 POP SWAP2 SWAP1 POP JUMP JUMPDEST PUSH1 0x0 PUSH2 0x22B5 PUSH1 0x20 DUP4 PUSH2 0x2751 JUMP JUMPDEST SWAP2 POP PUSH2 0x22C0 DUP3 PUSH2 0x2C65 JUMP JUMPDEST PUSH1 0x20 DUP3 ADD SWAP1 POP SWAP2 SWAP1 POP JUMP JUMPDEST PUSH1 0x0 PUSH2 0x22D8 PUSH1 0x18 DUP4 PUSH2 0x2751 JUMP JUMPDEST SWAP2 POP PUSH2 0x22E3 DUP3 PUSH2 0x2C8E JUMP JUMPDEST PUSH1 0x20 DUP3 ADD SWAP1 POP SWAP2 SWAP1 POP JUMP JUMPDEST PUSH1 0x0 PUSH2 0x22FB PUSH1 0x21 DUP4 PUSH2 0x2751 JUMP JUMPDEST SWAP2 POP PUSH2 0x2306 DUP3 PUSH2 0x2CB7 JUMP JUMPDEST PUSH1 0x40 DUP3 ADD SWAP1 POP SWAP2 SWAP1 POP JUMP JUMPDEST PUSH1 0x0 PUSH2 0x231E PUSH1 0x3D DUP4 PUSH2 0x2751 JUMP JUMPDEST SWAP2 POP PUSH2 0x2329 DUP3 PUSH2 0x2D06 JUMP JUMPDEST PUSH1 0x40 DUP3 ADD SWAP1 POP SWAP2 SWAP1 POP JUMP JUMPDEST PUSH2 0x233D DUP2 PUSH2 0x2892 JUMP JUMPDEST DUP3 MSTORE POP POP JUMP JUMPDEST PUSH2 0x234C DUP2 PUSH2 0x2892 JUMP JUMPDEST DUP3 MSTORE POP POP JUMP JUMPDEST PUSH1 0x0 PUSH2 0x235E DUP3 DUP6 PUSH2 0x2182 JUMP JUMPDEST SWAP2 POP PUSH2 0x236A DUP3 DUP5 PUSH2 0x2182 JUMP JUMPDEST SWAP2 POP DUP2 SWAP1 POP SWAP4 SWAP3 POP POP POP JUMP JUMPDEST PUSH1 0x0 PUSH1 0x20 DUP3 ADD SWAP1 POP PUSH2 0x238B PUSH1 0x0 DUP4 ADD DUP5 PUSH2 0x2036 JUMP JUMPDEST SWAP3 SWAP2 POP POP JUMP JUMPDEST PUSH1 0x0 PUSH1 0x80 DUP3 ADD SWAP1 POP PUSH2 0x23A6 PUSH1 0x0 DUP4 ADD DUP8 PUSH2 0x2036 JUMP JUMPDEST PUSH2 0x23B3 PUSH1 0x20 DUP4 ADD DUP7 PUSH2 0x2036 JUMP JUMPDEST PUSH2 0x23C0 PUSH1 0x40 DUP4 ADD DUP6 PUSH2 0x2343 JUMP JUMPDEST DUP2 DUP2 SUB PUSH1 0x60 DUP4 ADD MSTORE PUSH2 0x23D2 DUP2 DUP5 PUSH2 0x2110 JUMP JUMPDEST SWAP1 POP SWAP6 SWAP5 POP POP POP POP POP JUMP JUMPDEST PUSH1 0x0 PUSH1 0x20 DUP3 ADD SWAP1 POP DUP2 DUP2 SUB PUSH1 0x0 DUP4 ADD MSTORE PUSH2 0x23F7 DUP2 DUP5 PUSH2 0x2045 JUMP JUMPDEST SWAP1 POP SWAP3 SWAP2 POP POP JUMP JUMPDEST PUSH1 0x0 PUSH1 0x20 DUP3 ADD SWAP1 POP DUP2 DUP2 SUB PUSH1 0x0 DUP4 ADD MSTORE PUSH2 0x2419 DUP2 DUP5 PUSH2 0x20A3 JUMP JUMPDEST SWAP1 POP SWAP3 SWAP2 POP POP JUMP JUMPDEST PUSH1 0x0 PUSH1 0x20 DUP3 ADD SWAP1 POP PUSH2 0x2436 PUSH1 0x0 DUP4 ADD DUP5 PUSH2 0x2101 JUMP JUMPDEST SWAP3 SWAP2 POP POP JUMP JUMPDEST PUSH1 0x0 PUSH1 0x20 DUP3 ADD SWAP1 POP DUP2 DUP2 SUB PUSH1 0x0 DUP4 ADD MSTORE PUSH2 0x2456 DUP2 DUP5 PUSH2 0x2149 JUMP JUMPDEST SWAP1 POP SWAP3 SWAP2 POP POP JUMP JUMPDEST PUSH1 0x0 PUSH1 0x20 DUP3 ADD SWAP1 POP DUP2 DUP2 SUB PUSH1 0x0 DUP4 ADD MSTORE PUSH2 0x2477 DUP2 PUSH2 0x21B3 JUMP JUMPDEST SWAP1 POP SWAP2 SWAP1 POP JUMP JUMPDEST PUSH1 0x0 PUSH1 0x20 DUP3 ADD SWAP1 POP DUP2 DUP2 SUB PUSH1 0x0 DUP4 ADD MSTORE PUSH2 0x2497 DUP2 PUSH2 0x21D6 JUMP JUMPDEST SWAP1 POP SWAP2 SWAP1 POP JUMP JUMPDEST PUSH1 0x0 PUSH1 0x20 DUP3 ADD SWAP1 POP DUP2 DUP2 SUB PUSH1 0x0 DUP4 ADD MSTORE PUSH2 0x24B7 DUP2 PUSH2 0x21F9 JUMP JUMPDEST SWAP1 POP SWAP2 SWAP1 POP JUMP JUMPDEST PUSH1 0x0 PUSH1 0x20 DUP3 ADD SWAP1 POP DUP2 DUP2 SUB PUSH1 0x0 DUP4 ADD MSTORE PUSH2 0x24D7 DUP2 PUSH2 0x221C JUMP JUMPDEST SWAP1 POP SWAP2 SWAP1 POP JUMP JUMPDEST PUSH1 0x0 PUSH1 0x20 DUP3 ADD SWAP1 POP DUP2 DUP2 SUB PUSH1 0x0 DUP4 ADD MSTORE PUSH2 0x24F7 DUP2 PUSH2 0x223F JUMP JUMPDEST SWAP1 POP SWAP2 SWAP1 POP JUMP JUMPDEST PUSH1 0x0 PUSH1 0x20 DUP3 ADD SWAP1 POP DUP2 DUP2 SUB PUSH1 0x0 DUP4 ADD MSTORE PUSH2 0x2517 DUP2 PUSH2 0x2262 JUMP JUMPDEST SWAP1 POP SWAP2 SWAP1 POP JUMP JUMPDEST PUSH1 0x0 PUSH1 0x20 DUP3 ADD SWAP1 POP DUP2 DUP2 SUB PUSH1 0x0 DUP4 ADD MSTORE PUSH2 0x2537 DUP2 PUSH2 0x2285 JUMP JUMPDEST SWAP1 POP SWAP2 SWAP1 POP JUMP JUMPDEST PUSH1 0x0 PUSH1 0x20 DUP3 ADD SWAP1 POP DUP2 DUP2 SUB PUSH1 0x0 DUP4 ADD MSTORE PUSH2 0x2557 DUP2 PUSH2 0x22A8 JUMP JUMPDEST SWAP1 POP SWAP2 SWAP1 POP JUMP JUMPDEST PUSH1 0x0 PUSH1 0x20 DUP3 ADD SWAP1 POP DUP2 DUP2 SUB PUSH1 0x0 DUP4 ADD MSTORE PUSH2 0x2577 DUP2 PUSH2 0x22CB JUMP JUMPDEST SWAP1 POP SWAP2 SWAP1 POP JUMP JUMPDEST PUSH1 0x0 PUSH1 0x20 DUP3 ADD SWAP1 POP DUP2 DUP2 SUB PUSH1 0x0 DUP4 ADD MSTORE PUSH2 0x2597 DUP2 PUSH2 0x22EE JUMP JUMPDEST SWAP1 POP SWAP2 SWAP1 POP JUMP JUMPDEST PUSH1 0x0 PUSH1 0x20 DUP3 ADD SWAP1 POP DUP2 DUP2 SUB PUSH1 0x0 DUP4 ADD MSTORE PUSH2 0x25B7 DUP2 PUSH2 0x2311 JUMP JUMPDEST SWAP1 POP SWAP2 SWAP1 POP JUMP JUMPDEST PUSH1 0x0 PUSH1 0x20 DUP3 ADD SWAP1 POP PUSH2 0x25D3 PUSH1 0x0 DUP4 ADD DUP5 PUSH2 0x2343 JUMP JUMPDEST SWAP3 SWAP2 POP POP JUMP JUMPDEST PUSH1 0x0 PUSH2 0x25E3 PUSH2 0x25F4 JUMP JUMPDEST SWAP1 POP PUSH2 0x25EF DUP3 DUP3 PUSH2 0x2910 JUMP JUMPDEST SWAP2 SWAP1 POP JUMP JUMPDEST PUSH1 0x0 PUSH1 0x40 MLOAD SWAP1 POP SWAP1 JUMP JUMPDEST PUSH1 0x0 PUSH8 0xFFFFFFFFFFFFFFFF DUP3 GT ISZERO PUSH2 0x2619 JUMPI PUSH2 0x2618 PUSH2 0x2A48 JUMP JUMPDEST JUMPDEST PUSH1 0x20 DUP3 MUL SWAP1 POP PUSH1 0x20 DUP2 ADD SWAP1 POP SWAP2 SWAP1 POP JUMP JUMPDEST PUSH1 0x0 PUSH8 0xFFFFFFFFFFFFFFFF DUP3 GT ISZERO PUSH2 0x2645 JUMPI PUSH2 0x2644 PUSH2 0x2A48 JUMP JUMPDEST JUMPDEST PUSH1 0x20 DUP3 MUL SWAP1 POP PUSH1 0x20 DUP2 ADD SWAP1 POP SWAP2 SWAP1 POP JUMP JUMPDEST PUSH1 0x0 PUSH8 0xFFFFFFFFFFFFFFFF DUP3 GT ISZERO PUSH2 0x2671 JUMPI PUSH2 0x2670 PUSH2 0x2A48 JUMP JUMPDEST JUMPDEST PUSH2 0x267A DUP3 PUSH2 0x2A77 JUMP JUMPDEST SWAP1 POP PUSH1 0x20 DUP2 ADD SWAP1 POP SWAP2 SWAP1 POP JUMP JUMPDEST PUSH1 0x0 PUSH8 0xFFFFFFFFFFFFFFFF DUP3 GT ISZERO PUSH2 0x26A2 JUMPI PUSH2 0x26A1 PUSH2 0x2A48 JUMP JUMPDEST JUMPDEST PUSH2 0x26AB DUP3 PUSH2 0x2A77 JUMP JUMPDEST SWAP1 POP PUSH1 0x20 DUP2 ADD SWAP1 POP SWAP2 SWAP1 POP JUMP JUMPDEST PUSH1 0x0 DUP2 SWAP1 POP PUSH1 0x20 DUP3 ADD SWAP1 POP SWAP2 SWAP1 POP JUMP JUMPDEST PUSH1 0x0 DUP2 SWAP1 POP PUSH1 0x20 DUP3 ADD SWAP1 POP SWAP2 SWAP1 POP JUMP JUMPDEST PUSH1 0x0 DUP2 MLOAD SWAP1 POP SWAP2 SWAP1 POP JUMP JUMPDEST PUSH1 0x0 DUP2 MLOAD SWAP1 POP SWAP2 SWAP1 POP JUMP JUMPDEST PUSH1 0x0 DUP2 MLOAD SWAP1 POP SWAP2 SWAP1 POP JUMP JUMPDEST PUSH1 0x0 DUP2 MLOAD SWAP1 POP SWAP2 SWAP1 POP JUMP JUMPDEST PUSH1 0x0 PUSH1 0x20 DUP3 ADD SWAP1 POP SWAP2 SWAP1 POP JUMP JUMPDEST PUSH1 0x0 PUSH1 0x20 DUP3 ADD SWAP1 POP SWAP2 SWAP1 POP JUMP JUMPDEST PUSH1 0x0 DUP3 DUP3 MSTORE PUSH1 0x20 DUP3 ADD SWAP1 POP SWAP3 SWAP2 POP POP JUMP JUMPDEST PUSH1 0x0 DUP3 DUP3 MSTORE PUSH1 0x20 DUP3 ADD SWAP1 POP SWAP3 SWAP2 POP POP JUMP JUMPDEST PUSH1 0x0 DUP3 DUP3 MSTORE PUSH1 0x20 DUP3 ADD SWAP1 POP SWAP3 SWAP2 POP POP JUMP JUMPDEST PUSH1 0x0 DUP3 DUP3 MSTORE PUSH1 0x20 DUP3 ADD SWAP1 POP SWAP3 SWAP2 POP POP JUMP JUMPDEST PUSH1 0x0 DUP2 SWAP1 POP SWAP3 SWAP2 POP POP JUMP JUMPDEST PUSH1 0x0 PUSH2 0x2778 DUP3 PUSH2 0x2892 JUMP JUMPDEST SWAP2 POP PUSH2 0x2783 DUP4 PUSH2 0x2892 JUMP JUMPDEST SWAP3 POP DUP3 PUSH32 0xFFFFFFFFFFFFFFFFFFFFFFFFFFFFFFFFFFFFFFFFFFFFFFFFFFFFFFFFFFFFFFFF SUB DUP3 GT ISZERO PUSH2 0x27B8 JUMPI PUSH2 0x27B7 PUSH2 0x29BB JUMP JUMPDEST JUMPDEST DUP3 DUP3 ADD SWAP1 POP SWAP3 SWAP2 POP POP JUMP JUMPDEST PUSH1 0x0 PUSH2 0x27CE DUP3 PUSH2 0x2892 JUMP JUMPDEST SWAP2 POP PUSH2 0x27D9 DUP4 PUSH2 0x2892 JUMP JUMPDEST SWAP3 POP DUP3 PUSH2 0x27E9 JUMPI PUSH2 0x27E8 PUSH2 0x29EA JUMP JUMPDEST JUMPDEST DUP3 DUP3 DIV SWAP1 POP SWAP3 SWAP2 POP POP JUMP JUMPDEST PUSH1 0x0 PUSH2 0x27FF DUP3 PUSH2 0x2892 JUMP JUMPDEST SWAP2 POP PUSH2 0x280A DUP4 PUSH2 0x2892 JUMP JUMPDEST SWAP3 POP DUP3 DUP3 LT ISZERO PUSH2 0x281D JUMPI PUSH2 0x281C PUSH2 0x29BB JUMP JUMPDEST JUMPDEST DUP3 DUP3 SUB SWAP1 POP SWAP3 SWAP2 POP POP JUMP JUMPDEST PUSH1 0x0 PUSH2 0x2833 DUP3 PUSH2 0x2872 JUMP JUMPDEST SWAP1 POP SWAP2 SWAP1 POP JUMP JUMPDEST PUSH1 0x0 DUP2 ISZERO ISZERO SWAP1 POP SWAP2 SWAP1 POP JUMP JUMPDEST PUSH1 0x0 PUSH32 0xFFFFFFFF00000000000000000000000000000000000000000000000000000000 DUP3 AND SWAP1 POP SWAP2 SWAP1 POP JUMP JUMPDEST PUSH1 0x0 PUSH20 0xFFFFFFFFFFFFFFFFFFFFFFFFFFFFFFFFFFFFFFFF DUP3 AND SWAP1 POP SWAP2 SWAP1 POP JUMP JUMPDEST PUSH1 0x0 DUP2 SWAP1 POP SWAP2 SWAP1 POP JUMP JUMPDEST DUP3 DUP2 DUP4 CALLDATACOPY PUSH1 0x0 DUP4 DUP4 ADD MSTORE POP POP POP JUMP JUMPDEST PUSH1 0x0 JUMPDEST DUP4 DUP2 LT ISZERO PUSH2 0x28C9 JUMPI DUP1 DUP3 ADD MLOAD DUP2 DUP5 ADD MSTORE PUSH1 0x20 DUP2 ADD SWAP1 POP PUSH2 0x28AE JUMP JUMPDEST DUP4 DUP2 GT ISZERO PUSH2 0x28D8 JUMPI PUSH1 0x0 DUP5 DUP5 ADD MSTORE JUMPDEST POP POP POP POP JUMP JUMPDEST PUSH1 0x0 PUSH1 0x2 DUP3 DIV SWAP1 POP PUSH1 0x1 DUP3 AND DUP1 PUSH2 0x28F6 JUMPI PUSH1 0x7F DUP3 AND SWAP2 POP JUMPDEST PUSH1 0x20 DUP3 LT DUP2 EQ ISZERO PUSH2 0x290A JUMPI PUSH2 0x2909 PUSH2 0x2A19 JUMP JUMPDEST JUMPDEST POP SWAP2 SWAP1 POP JUMP JUMPDEST PUSH2 0x2919 DUP3 PUSH2 0x2A77 JUMP JUMPDEST DUP2 ADD DUP2 DUP2 LT PUSH8 0xFFFFFFFFFFFFFFFF DUP3 GT OR ISZERO PUSH2 0x2938 JUMPI PUSH2 0x2937 PUSH2 0x2A48 JUMP JUMPDEST JUMPDEST DUP1 PUSH1 0x40 MSTORE POP POP POP JUMP JUMPDEST PUSH1 0x0 PUSH2 0x294C DUP3 PUSH2 0x2892 JUMP JUMPDEST SWAP2 POP PUSH32 0xFFFFFFFFFFFFFFFFFFFFFFFFFFFFFFFFFFFFFFFFFFFFFFFFFFFFFFFFFFFFFFFF DUP3 EQ ISZERO PUSH2 0x297F JUMPI PUSH2 0x297E PUSH2 0x29BB JUMP JUMPDEST JUMPDEST PUSH1 0x1 DUP3 ADD SWAP1 POP SWAP2 SWAP1 POP JUMP JUMPDEST PUSH1 0x0 PUSH2 0x2995 DUP3 PUSH2 0x2892 JUMP JUMPDEST SWAP2 POP PUSH2 0x29A0 DUP4 PUSH2 0x2892 JUMP JUMPDEST SWAP3 POP DUP3 PUSH2 0x29B0 JUMPI PUSH2 0x29AF PUSH2 0x29EA JUMP JUMPDEST JUMPDEST DUP3 DUP3 MOD SWAP1 POP SWAP3 SWAP2 POP POP JUMP JUMPDEST PUSH32 0x4E487B7100000000000000000000000000000000000000000000000000000000 PUSH1 0x0 MSTORE PUSH1 0x11 PUSH1 0x4 MSTORE PUSH1 0x24 PUSH1 0x0 REVERT JUMPDEST PUSH32 0x4E487B7100000000000000000000000000000000000000000000000000000000 PUSH1 0x0 MSTORE PUSH1 0x12 PUSH1 0x4 MSTORE PUSH1 0x24 PUSH1 0x0 REVERT JUMPDEST PUSH32 0x4E487B7100000000000000000000000000000000000000000000000000000000 PUSH1 0x0 MSTORE PUSH1 0x22 PUSH1 0x4 MSTORE PUSH1 0x24 PUSH1 0x0 REVERT JUMPDEST PUSH32 0x4E487B7100000000000000000000000000000000000000000000000000000000 PUSH1 0x0 MSTORE PUSH1 0x41 PUSH1 0x4 MSTORE PUSH1 0x24 PUSH1 0x0 REVERT JUMPDEST PUSH1 0x0 PUSH1 0x1F NOT PUSH1 0x1F DUP4 ADD AND SWAP1 POP SWAP2 SWAP1 POP JUMP JUMPDEST PUSH32 0x4552433732313A2063616C6C6572206973206E6F7420746F6B656E206F776E65 PUSH1 0x0 DUP3 ADD MSTORE PUSH32 0x72206F7220617070726F76656400000000000000000000000000000000000000 PUSH1 0x20 DUP3 ADD MSTORE POP JUMP JUMPDEST PUSH32 0x4552433732313A207472616E7366657220746F206E6F6E204552433732315265 PUSH1 0x0 DUP3 ADD MSTORE PUSH32 0x63656976657220696D706C656D656E7465720000000000000000000000000000 PUSH1 0x20 DUP3 ADD MSTORE POP JUMP JUMPDEST PUSH32 0x4552433732313A207472616E736665722066726F6D20696E636F727265637420 PUSH1 0x0 DUP3 ADD MSTORE PUSH32 0x6F776E6572000000000000000000000000000000000000000000000000000000 PUSH1 0x20 DUP3 ADD MSTORE POP JUMP JUMPDEST PUSH32 0x4552433732313A20746F6B656E20616C7265616479206D696E74656400000000 PUSH1 0x0 DUP3 ADD MSTORE POP JUMP JUMPDEST PUSH32 0x4552433732313A207472616E7366657220746F20746865207A65726F20616464 PUSH1 0x0 DUP3 ADD MSTORE PUSH32 0x7265737300000000000000000000000000000000000000000000000000000000 PUSH1 0x20 DUP3 ADD MSTORE POP JUMP JUMPDEST PUSH32 0x4552433732313A20617070726F766520746F2063616C6C657200000000000000 PUSH1 0x0 DUP3 ADD MSTORE POP JUMP JUMPDEST PUSH32 0x4552433732313A2061646472657373207A65726F206973206E6F742061207661 PUSH1 0x0 DUP3 ADD MSTORE PUSH32 0x6C6964206F776E65720000000000000000000000000000000000000000000000 PUSH1 0x20 DUP3 ADD MSTORE POP JUMP JUMPDEST PUSH32 0x4552433732313A206D696E7420746F20746865207A65726F2061646472657373 PUSH1 0x0 DUP3 ADD MSTORE POP JUMP JUMPDEST PUSH32 0x4552433732313A20696E76616C696420746F6B656E2049440000000000000000 PUSH1 0x0 DUP3 ADD MSTORE POP JUMP JUMPDEST PUSH32 0x4552433732313A20617070726F76616C20746F2063757272656E74206F776E65 PUSH1 0x0 DUP3 ADD MSTORE PUSH32 0x7200000000000000000000000000000000000000000000000000000000000000 PUSH1 0x20 DUP3 ADD MSTORE POP JUMP JUMPDEST PUSH32 0x4552433732313A20617070726F76652063616C6C6572206973206E6F7420746F PUSH1 0x0 DUP3 ADD MSTORE PUSH32 0x6B656E206F776E6572206F7220617070726F76656420666F7220616C6C000000 PUSH1 0x20 DUP3 ADD MSTORE POP JUMP JUMPDEST PUSH2 0x2D5E DUP2 PUSH2 0x2828 JUMP JUMPDEST DUP2 EQ PUSH2 0x2D69 JUMPI PUSH1 0x0 DUP1 REVERT JUMPDEST POP JUMP JUMPDEST PUSH2 0x2D75 DUP2 PUSH2 0x283A JUMP JUMPDEST DUP2 EQ PUSH2 0x2D80 JUMPI PUSH1 0x0 DUP1 REVERT JUMPDEST POP JUMP JUMPDEST PUSH2 0x2D8C DUP2 PUSH2 0x2846 JUMP JUMPDEST DUP2 EQ PUSH2 0x2D97 JUMPI PUSH1 0x0 DUP1 REVERT JUMPDEST POP JUMP JUMPDEST PUSH2 0x2DA3 DUP2 PUSH2 0x2892 JUMP JUMPDEST DUP2 EQ PUSH2 0x2DAE JUMPI PUSH1 0x0 DUP1 REVERT JUMPDEST POP JUMP INVALID LOG2 PUSH5 0x6970667358 0x22 SLT KECCAK256 0xBC PUSH29 0xA1A82EF4ABFAF36A5199072965720E6B3489514518F83AFBEBD96427A7 MULMOD PUSH5 0x736F6C6343 STOP ADDMOD DIV STOP CALLER "
				},
				"gasEstimates": {
					"creation": {
						"codeDepositCost": "2350200",
						"executionCost": "infinite",
						"totalCost": "infinite"
					},
					"external": {
						"approve(address,uint256)": "infinite",
						"balanceOf(address)": "1624",
						"collaboratotOf(uint256)": "infinite",
						"collaboratotPercentageOf(uint256)": "infinite",
						"getApproved(uint256)": "2657",
						"isApprovedForAll(address,address)": "infinite",
						"mint(address,address[],uint256[],uint256,string)": "infinite",
						"name()": "infinite",
						"ownerOf(uint256)": "1682",
						"safeTransferFrom(address,address,uint256)": "infinite",
						"safeTransferFrom(address,address,uint256,bytes)": "infinite",
						"setApprovalForAll(address,bool)": "infinite",
						"supportsInterface(bytes4)": "797",
						"symbol()": "infinite",
						"tokenURI(uint256)": "2102",
						"transferFrom(address,address,uint256)": "infinite"
					},
					"internal": {
						"_afterTokenTransfer(address,address,uint256)": "15",
						"_approve(address,uint256)": "infinite",
						"_baseURI()": "infinite",
						"_beforeTokenTransfer(address,address,uint256)": "15",
						"_burn(uint256)": "infinite",
						"_checkOnERC721Received(address,address,uint256,bytes memory)": "infinite",
						"_exists(uint256)": "969",
						"_isApprovedOrOwner(address,uint256)": "infinite",
						"_mint(address,address[] memory,uint256[] memory,uint256)": "infinite",
						"_requireMinted(uint256)": "infinite",
						"_safeMint(address,address[] memory,uint256[] memory,uint256)": "infinite",
						"_safeMint(address,address[] memory,uint256[] memory,uint256,bytes memory)": "infinite",
						"_safeTransfer(address,address,uint256,bytes memory)": "infinite",
						"_setApprovalForAll(address,address,bool)": "infinite",
						"_setTokenURI(uint256,string memory)": "infinite",
						"_transfer(address,address,uint256)": "infinite"
					}
				},
				"methodIdentifiers": {
					"approve(address,uint256)": "095ea7b3",
					"balanceOf(address)": "70a08231",
					"collaboratotOf(uint256)": "52e04825",
					"collaboratotPercentageOf(uint256)": "ee48cda2",
					"getApproved(uint256)": "081812fc",
					"isApprovedForAll(address,address)": "e985e9c5",
					"mint(address,address[],uint256[],uint256,string)": "3e617381",
					"name()": "06fdde03",
					"ownerOf(uint256)": "6352211e",
					"safeTransferFrom(address,address,uint256)": "42842e0e",
					"safeTransferFrom(address,address,uint256,bytes)": "b88d4fde",
					"setApprovalForAll(address,bool)": "a22cb465",
					"supportsInterface(bytes4)": "01ffc9a7",
					"symbol()": "95d89b41",
					"tokenURI(uint256)": "c87b56dd",
					"transferFrom(address,address,uint256)": "23b872dd"
				}
			},
			"storageLayout": {
				"storage": [
					{
						"astId": 816,
						"contract": "contracts/nft.sol:nft",
						"label": "_name",
						"offset": 0,
						"slot": "0",
						"type": "t_string_storage"
					},
					{
						"astId": 818,
						"contract": "contracts/nft.sol:nft",
						"label": "_symbol",
						"offset": 0,
						"slot": "1",
						"type": "t_string_storage"
					},
					{
						"astId": 822,
						"contract": "contracts/nft.sol:nft",
						"label": "_owners",
						"offset": 0,
						"slot": "2",
						"type": "t_mapping(t_uint256,t_address)"
					},
					{
						"astId": 827,
						"contract": "contracts/nft.sol:nft",
						"label": "_collaborators",
						"offset": 0,
						"slot": "3",
						"type": "t_mapping(t_uint256,t_array(t_address)dyn_storage)"
					},
					{
						"astId": 832,
						"contract": "contracts/nft.sol:nft",
						"label": "_collaboratorsPercentage",
						"offset": 0,
						"slot": "4",
						"type": "t_mapping(t_uint256,t_array(t_uint256)dyn_storage)"
					},
					{
						"astId": 836,
						"contract": "contracts/nft.sol:nft",
						"label": "_balances",
						"offset": 0,
						"slot": "5",
						"type": "t_mapping(t_address,t_uint256)"
					},
					{
						"astId": 840,
						"contract": "contracts/nft.sol:nft",
						"label": "_tokenApprovals",
						"offset": 0,
						"slot": "6",
						"type": "t_mapping(t_uint256,t_address)"
					},
					{
						"astId": 846,
						"contract": "contracts/nft.sol:nft",
						"label": "_operatorApprovals",
						"offset": 0,
						"slot": "7",
						"type": "t_mapping(t_address,t_mapping(t_address,t_bool))"
					},
					{
						"astId": 850,
						"contract": "contracts/nft.sol:nft",
						"label": "_tokenURIs",
						"offset": 0,
						"slot": "8",
						"type": "t_mapping(t_uint256,t_string_storage)"
					}
				],
				"types": {
					"t_address": {
						"encoding": "inplace",
						"label": "address",
						"numberOfBytes": "20"
					},
					"t_array(t_address)dyn_storage": {
						"base": "t_address",
						"encoding": "dynamic_array",
						"label": "address[]",
						"numberOfBytes": "32"
					},
					"t_array(t_uint256)dyn_storage": {
						"base": "t_uint256",
						"encoding": "dynamic_array",
						"label": "uint256[]",
						"numberOfBytes": "32"
					},
					"t_bool": {
						"encoding": "inplace",
						"label": "bool",
						"numberOfBytes": "1"
					},
					"t_mapping(t_address,t_bool)": {
						"encoding": "mapping",
						"key": "t_address",
						"label": "mapping(address => bool)",
						"numberOfBytes": "32",
						"value": "t_bool"
					},
					"t_mapping(t_address,t_mapping(t_address,t_bool))": {
						"encoding": "mapping",
						"key": "t_address",
						"label": "mapping(address => mapping(address => bool))",
						"numberOfBytes": "32",
						"value": "t_mapping(t_address,t_bool)"
					},
					"t_mapping(t_address,t_uint256)": {
						"encoding": "mapping",
						"key": "t_address",
						"label": "mapping(address => uint256)",
						"numberOfBytes": "32",
						"value": "t_uint256"
					},
					"t_mapping(t_uint256,t_address)": {
						"encoding": "mapping",
						"key": "t_uint256",
						"label": "mapping(uint256 => address)",
						"numberOfBytes": "32",
						"value": "t_address"
					},
					"t_mapping(t_uint256,t_array(t_address)dyn_storage)": {
						"encoding": "mapping",
						"key": "t_uint256",
						"label": "mapping(uint256 => address[])",
						"numberOfBytes": "32",
						"value": "t_array(t_address)dyn_storage"
					},
					"t_mapping(t_uint256,t_array(t_uint256)dyn_storage)": {
						"encoding": "mapping",
						"key": "t_uint256",
						"label": "mapping(uint256 => uint256[])",
						"numberOfBytes": "32",
						"value": "t_array(t_uint256)dyn_storage"
					},
					"t_mapping(t_uint256,t_string_storage)": {
						"encoding": "mapping",
						"key": "t_uint256",
						"label": "mapping(uint256 => string)",
						"numberOfBytes": "32",
						"value": "t_string_storage"
					},
					"t_string_storage": {
						"encoding": "bytes",
						"label": "string",
						"numberOfBytes": "32"
					},
					"t_uint256": {
						"encoding": "inplace",
						"label": "uint256",
						"numberOfBytes": "32"
					}
				}
			},
			"userdoc": {
				"kind": "user",
				"methods": {},
				"version": 1
			}
		}
	}
}