{
	"contracts/nft.sol": {
		"nft": {
			"abi": [
				{
					"inputs": [
						{
							"internalType": "string",
							"name": "name_",
							"type": "string"
						},
						{
							"internalType": "string",
							"name": "symbol_",
							"type": "string"
						}
					],
					"stateMutability": "nonpayable",
					"type": "constructor"
				},
				{
					"anonymous": false,
					"inputs": [
						{
							"indexed": true,
							"internalType": "address",
							"name": "owner",
							"type": "address"
						},
						{
							"indexed": true,
							"internalType": "address",
							"name": "approved",
							"type": "address"
						},
						{
							"indexed": true,
							"internalType": "uint256",
							"name": "tokenId",
							"type": "uint256"
						}
					],
					"name": "Approval",
					"type": "event"
				},
				{
					"anonymous": false,
					"inputs": [
						{
							"indexed": true,
							"internalType": "address",
							"name": "owner",
							"type": "address"
						},
						{
							"indexed": true,
							"internalType": "address",
							"name": "operator",
							"type": "address"
						},
						{
							"indexed": false,
							"internalType": "bool",
							"name": "approved",
							"type": "bool"
						}
					],
					"name": "ApprovalForAll",
					"type": "event"
				},
				{
					"anonymous": false,
					"inputs": [
						{
							"indexed": true,
							"internalType": "address",
							"name": "from",
							"type": "address"
						},
						{
							"indexed": true,
							"internalType": "address",
							"name": "to",
							"type": "address"
						},
						{
							"indexed": true,
							"internalType": "uint256",
							"name": "tokenId",
							"type": "uint256"
						}
					],
					"name": "Transfer",
					"type": "event"
				},
				{
					"inputs": [
						{
							"internalType": "address",
							"name": "to",
							"type": "address"
						},
						{
							"internalType": "uint256",
							"name": "tokenId",
							"type": "uint256"
						}
					],
					"name": "approve",
					"outputs": [],
					"stateMutability": "nonpayable",
					"type": "function"
				},
				{
					"inputs": [
						{
							"internalType": "address",
							"name": "owner",
							"type": "address"
						}
					],
					"name": "balanceOf",
					"outputs": [
						{
							"internalType": "uint256",
							"name": "",
							"type": "uint256"
						}
					],
					"stateMutability": "view",
					"type": "function"
				},
				{
					"inputs": [
						{
							"internalType": "uint256",
							"name": "tokenId",
							"type": "uint256"
						}
					],
					"name": "collaboratotOf",
					"outputs": [
						{
							"internalType": "address",
							"name": "",
							"type": "address"
						}
					],
					"stateMutability": "view",
					"type": "function"
				},
				{
					"inputs": [
						{
							"internalType": "uint256",
							"name": "tokenId",
							"type": "uint256"
						}
					],
					"name": "collaboratotPercentageOf",
					"outputs": [
						{
							"internalType": "uint256",
							"name": "",
							"type": "uint256"
						}
					],
					"stateMutability": "view",
					"type": "function"
				},
				{
					"inputs": [
						{
							"internalType": "uint256",
							"name": "tokenId",
							"type": "uint256"
						}
					],
					"name": "getApproved",
					"outputs": [
						{
							"internalType": "address",
							"name": "",
							"type": "address"
						}
					],
					"stateMutability": "view",
					"type": "function"
				},
				{
					"inputs": [
						{
							"internalType": "address",
							"name": "owner",
							"type": "address"
						},
						{
							"internalType": "address",
							"name": "operator",
							"type": "address"
						}
					],
					"name": "isApprovedForAll",
					"outputs": [
						{
							"internalType": "bool",
							"name": "",
							"type": "bool"
						}
					],
					"stateMutability": "view",
					"type": "function"
				},
				{
					"inputs": [
						{
							"internalType": "address",
							"name": "to",
							"type": "address"
						},
						{
							"internalType": "uint256",
							"name": "ownerPercent",
							"type": "uint256"
						},
						{
							"internalType": "address",
							"name": "collaborator",
							"type": "address"
						},
						{
							"internalType": "uint256",
							"name": "collaboratorPercent",
							"type": "uint256"
						},
						{
							"internalType": "uint256",
							"name": "tokenId",
							"type": "uint256"
						},
						{
							"internalType": "string",
							"name": "uri",
							"type": "string"
						}
					],
					"name": "mint",
					"outputs": [],
					"stateMutability": "nonpayable",
					"type": "function"
				},
				{
					"inputs": [],
					"name": "name",
					"outputs": [
						{
							"internalType": "string",
							"name": "",
							"type": "string"
						}
					],
					"stateMutability": "view",
					"type": "function"
				},
				{
					"inputs": [
						{
							"internalType": "uint256",
							"name": "tokenId",
							"type": "uint256"
						}
					],
					"name": "ownerOf",
					"outputs": [
						{
							"internalType": "address",
							"name": "",
							"type": "address"
						}
					],
					"stateMutability": "view",
					"type": "function"
				},
				{
					"inputs": [
						{
							"internalType": "address",
							"name": "from",
							"type": "address"
						},
						{
							"internalType": "address",
							"name": "to",
							"type": "address"
						},
						{
							"internalType": "uint256",
							"name": "tokenId",
							"type": "uint256"
						}
					],
					"name": "safeTransferFrom",
					"outputs": [],
					"stateMutability": "nonpayable",
					"type": "function"
				},
				{
					"inputs": [
						{
							"internalType": "address",
							"name": "from",
							"type": "address"
						},
						{
							"internalType": "address",
							"name": "to",
							"type": "address"
						},
						{
							"internalType": "uint256",
							"name": "tokenId",
							"type": "uint256"
						},
						{
							"internalType": "bytes",
							"name": "data",
							"type": "bytes"
						}
					],
					"name": "safeTransferFrom",
					"outputs": [],
					"stateMutability": "nonpayable",
					"type": "function"
				},
				{
					"inputs": [
						{
							"internalType": "address",
							"name": "operator",
							"type": "address"
						},
						{
							"internalType": "bool",
							"name": "approved",
							"type": "bool"
						}
					],
					"name": "setApprovalForAll",
					"outputs": [],
					"stateMutability": "nonpayable",
					"type": "function"
				},
				{
					"inputs": [
						{
							"internalType": "bytes4",
							"name": "interfaceId",
							"type": "bytes4"
						}
					],
					"name": "supportsInterface",
					"outputs": [
						{
							"internalType": "bool",
							"name": "",
							"type": "bool"
						}
					],
					"stateMutability": "view",
					"type": "function"
				},
				{
					"inputs": [],
					"name": "symbol",
					"outputs": [
						{
							"internalType": "string",
							"name": "",
							"type": "string"
						}
					],
					"stateMutability": "view",
					"type": "function"
				},
				{
					"inputs": [
						{
							"internalType": "uint256",
							"name": "tokenId",
							"type": "uint256"
						}
					],
					"name": "tokenURI",
					"outputs": [
						{
							"internalType": "string",
							"name": "",
							"type": "string"
						}
					],
					"stateMutability": "view",
					"type": "function"
				},
				{
					"inputs": [
						{
							"internalType": "address",
							"name": "from",
							"type": "address"
						},
						{
							"internalType": "address",
							"name": "to",
							"type": "address"
						},
						{
							"internalType": "uint256",
							"name": "tokenId",
							"type": "uint256"
						}
					],
					"name": "transferFrom",
					"outputs": [],
					"stateMutability": "nonpayable",
					"type": "function"
				}
			],
			"devdoc": {
				"kind": "dev",
				"methods": {
					"approve(address,uint256)": {
						"details": "Gives permission to `to` to transfer `tokenId` token to another account. The approval is cleared when the token is transferred. Only a single account can be approved at a time, so approving the zero address clears previous approvals. Requirements: - The caller must own the token or be an approved operator. - `tokenId` must exist. Emits an {Approval} event."
					},
					"balanceOf(address)": {
						"details": "Returns the number of tokens in ``owner``'s account."
					},
					"getApproved(uint256)": {
						"details": "Returns the account approved for `tokenId` token. Requirements: - `tokenId` must exist."
					},
					"isApprovedForAll(address,address)": {
						"details": "Returns if the `operator` is allowed to manage all of the assets of `owner`. See {setApprovalForAll}"
					},
					"name()": {
						"details": "Returns the token collection name."
					},
					"ownerOf(uint256)": {
						"details": "Returns the owner of the `tokenId` token. Requirements: - `tokenId` must exist."
					},
					"safeTransferFrom(address,address,uint256)": {
						"details": "Safely transfers `tokenId` token from `from` to `to`, checking first that contract recipients are aware of the ERC721 protocol to prevent tokens from being forever locked. Requirements: - `from` cannot be the zero address. - `to` cannot be the zero address. - `tokenId` token must exist and be owned by `from`. - If the caller is not `from`, it must be have been allowed to move this token by either {approve} or {setApprovalForAll}. - If `to` refers to a smart contract, it must implement {IERC721Receiver-onERC721Received}, which is called upon a safe transfer. Emits a {Transfer} event."
					},
					"safeTransferFrom(address,address,uint256,bytes)": {
						"details": "Safely transfers `tokenId` token from `from` to `to`. Requirements: - `from` cannot be the zero address. - `to` cannot be the zero address. - `tokenId` token must exist and be owned by `from`. - If the caller is not `from`, it must be approved to move this token by either {approve} or {setApprovalForAll}. - If `to` refers to a smart contract, it must implement {IERC721Receiver-onERC721Received}, which is called upon a safe transfer. Emits a {Transfer} event."
					},
					"symbol()": {
						"details": "Returns the token collection symbol."
					},
					"tokenURI(uint256)": {
						"details": "Returns the Uniform Resource Identifier (URI) for `tokenId` token."
					},
					"transferFrom(address,address,uint256)": {
						"details": "Transfers `tokenId` token from `from` to `to`. WARNING: Usage of this method is discouraged, use {safeTransferFrom} whenever possible. Requirements: - `from` cannot be the zero address. - `to` cannot be the zero address. - `tokenId` token must be owned by `from`. - If the caller is not `from`, it must be approved to move this token by either {approve} or {setApprovalForAll}. Emits a {Transfer} event."
					}
				},
				"version": 1
			},
			"evm": {
				"assembly": "    /* \"contracts/nft.sol\":677:10876  contract nft is Context, ERC165, IERC721, IERC721Metadata {\r... */\n  mstore(0x40, 0x80)\n    /* \"contracts/nft.sol\":1356:1472  constructor(string memory name_, string memory symbol_) {\r... */\n  callvalue\n  dup1\n  iszero\n  tag_1\n  jumpi\n  0x00\n  dup1\n  revert\ntag_1:\n  pop\n  mload(0x40)\n  sub(codesize, bytecodeSize)\n  dup1\n  bytecodeSize\n  dup4\n  codecopy\n  dup2\n  dup2\n  add\n  0x40\n  mstore\n  dup2\n  add\n  swap1\n  tag_2\n  swap2\n  swap1\n  tag_3\n  jump\t// in\ntag_2:\n    /* \"contracts/nft.sol\":1431:1436  name_ */\n  dup2\n    /* \"contracts/nft.sol\":1423:1428  _name */\n  0x00\n    /* \"contracts/nft.sol\":1423:1436  _name = name_ */\n  swap1\n  dup1\n  mload\n  swap1\n  0x20\n  add\n  swap1\n  tag_6\n  swap3\n  swap2\n  swap1\n  tag_7\n  jump\t// in\ntag_6:\n  pop\n    /* \"contracts/nft.sol\":1457:1464  symbol_ */\n  dup1\n    /* \"contracts/nft.sol\":1447:1454  _symbol */\n  0x01\n    /* \"contracts/nft.sol\":1447:1464  _symbol = symbol_ */\n  swap1\n  dup1\n  mload\n  swap1\n  0x20\n  add\n  swap1\n  tag_8\n  swap3\n  swap2\n  swap1\n  tag_7\n  jump\t// in\ntag_8:\n  pop\n    /* \"contracts/nft.sol\":1356:1472  constructor(string memory name_, string memory symbol_) {\r... */\n  pop\n  pop\n    /* \"contracts/nft.sol\":677:10876  contract nft is Context, ERC165, IERC721, IERC721Metadata {\r... */\n  jump(tag_9)\ntag_7:\n  dup3\n  dup1\n  sload\n  tag_10\n  swap1\n  tag_11\n  jump\t// in\ntag_10:\n  swap1\n  0x00\n  mstore\n  keccak256(0x00, 0x20)\n  swap1\n  0x1f\n  add\n  0x20\n  swap1\n  div\n  dup2\n  add\n  swap3\n  dup3\n  tag_13\n  jumpi\n  0x00\n  dup6\n  sstore\n  jump(tag_12)\ntag_13:\n  dup3\n  0x1f\n  lt\n  tag_14\n  jumpi\n  dup1\n  mload\n  not(0xff)\n  and\n  dup4\n  dup1\n  add\n  or\n  dup6\n  sstore\n  jump(tag_12)\ntag_14:\n  dup3\n  dup1\n  add\n  0x01\n  add\n  dup6\n  sstore\n  dup3\n  iszero\n  tag_12\n  jumpi\n  swap2\n  dup3\n  add\ntag_15:\n  dup3\n  dup2\n  gt\n  iszero\n  tag_16\n  jumpi\n  dup3\n  mload\n  dup3\n  sstore\n  swap2\n  0x20\n  add\n  swap2\n  swap1\n  0x01\n  add\n  swap1\n  jump(tag_15)\ntag_16:\ntag_12:\n  pop\n  swap1\n  pop\n  tag_17\n  swap2\n  swap1\n  tag_18\n  jump\t// in\ntag_17:\n  pop\n  swap1\n  jump\t// out\ntag_18:\ntag_19:\n  dup1\n  dup3\n  gt\n  iszero\n  tag_20\n  jumpi\n  0x00\n  dup2\n  0x00\n  swap1\n  sstore\n  pop\n  0x01\n  add\n  jump(tag_19)\ntag_20:\n  pop\n  swap1\n  jump\t// out\n    /* \"#utility.yul\":7:361   */\ntag_22:\n    /* \"#utility.yul\":96:101   */\n  0x00\n    /* \"#utility.yul\":121:187   */\n  tag_24\n    /* \"#utility.yul\":137:186   */\n  tag_25\n    /* \"#utility.yul\":179:185   */\n  dup5\n    /* \"#utility.yul\":137:186   */\n  tag_26\n  jump\t// in\ntag_25:\n    /* \"#utility.yul\":121:187   */\n  tag_27\n  jump\t// in\ntag_24:\n    /* \"#utility.yul\":112:187   */\n  swap1\n  pop\n    /* \"#utility.yul\":210:216   */\n  dup3\n    /* \"#utility.yul\":203:208   */\n  dup2\n    /* \"#utility.yul\":196:217   */\n  mstore\n    /* \"#utility.yul\":248:252   */\n  0x20\n    /* \"#utility.yul\":241:246   */\n  dup2\n    /* \"#utility.yul\":237:253   */\n  add\n    /* \"#utility.yul\":286:289   */\n  dup5\n    /* \"#utility.yul\":277:283   */\n  dup5\n    /* \"#utility.yul\":272:275   */\n  dup5\n    /* \"#utility.yul\":268:284   */\n  add\n    /* \"#utility.yul\":265:290   */\n  gt\n    /* \"#utility.yul\":262:264   */\n  iszero\n  tag_28\n  jumpi\n    /* \"#utility.yul\":303:304   */\n  0x00\n    /* \"#utility.yul\":300:301   */\n  dup1\n    /* \"#utility.yul\":293:305   */\n  revert\n    /* \"#utility.yul\":262:264   */\ntag_28:\n    /* \"#utility.yul\":316:355   */\n  tag_29\n    /* \"#utility.yul\":348:354   */\n  dup5\n    /* \"#utility.yul\":343:346   */\n  dup3\n    /* \"#utility.yul\":338:341   */\n  dup6\n    /* \"#utility.yul\":316:355   */\n  tag_30\n  jump\t// in\ntag_29:\n    /* \"#utility.yul\":102:361   */\n  pop\n  swap4\n  swap3\n  pop\n  pop\n  pop\n  jump\t// out\n    /* \"#utility.yul\":381:669   */\ntag_31:\n    /* \"#utility.yul\":448:453   */\n  0x00\n    /* \"#utility.yul\":497:500   */\n  dup3\n    /* \"#utility.yul\":490:494   */\n  0x1f\n    /* \"#utility.yul\":482:488   */\n  dup4\n    /* \"#utility.yul\":478:495   */\n  add\n    /* \"#utility.yul\":474:501   */\n  slt\n    /* \"#utility.yul\":464:466   */\n  tag_33\n  jumpi\n    /* \"#utility.yul\":515:516   */\n  0x00\n    /* \"#utility.yul\":512:513   */\n  dup1\n    /* \"#utility.yul\":505:517   */\n  revert\n    /* \"#utility.yul\":464:466   */\ntag_33:\n    /* \"#utility.yul\":548:554   */\n  dup2\n    /* \"#utility.yul\":542:555   */\n  mload\n    /* \"#utility.yul\":573:663   */\n  tag_34\n    /* \"#utility.yul\":659:662   */\n  dup5\n    /* \"#utility.yul\":651:657   */\n  dup3\n    /* \"#utility.yul\":644:648   */\n  0x20\n    /* \"#utility.yul\":636:642   */\n  dup7\n    /* \"#utility.yul\":632:649   */\n  add\n    /* \"#utility.yul\":573:663   */\n  tag_22\n  jump\t// in\ntag_34:\n    /* \"#utility.yul\":564:663   */\n  swap2\n  pop\n    /* \"#utility.yul\":454:669   */\n  pop\n  swap3\n  swap2\n  pop\n  pop\n  jump\t// out\n    /* \"#utility.yul\":675:1327   */\ntag_3:\n    /* \"#utility.yul\":774:780   */\n  0x00\n    /* \"#utility.yul\":782:788   */\n  dup1\n    /* \"#utility.yul\":831:833   */\n  0x40\n    /* \"#utility.yul\":819:828   */\n  dup4\n    /* \"#utility.yul\":810:817   */\n  dup6\n    /* \"#utility.yul\":806:829   */\n  sub\n    /* \"#utility.yul\":802:834   */\n  slt\n    /* \"#utility.yul\":799:801   */\n  iszero\n  tag_36\n  jumpi\n    /* \"#utility.yul\":847:848   */\n  0x00\n    /* \"#utility.yul\":844:845   */\n  dup1\n    /* \"#utility.yul\":837:849   */\n  revert\n    /* \"#utility.yul\":799:801   */\ntag_36:\n    /* \"#utility.yul\":911:912   */\n  0x00\n    /* \"#utility.yul\":900:909   */\n  dup4\n    /* \"#utility.yul\":896:913   */\n  add\n    /* \"#utility.yul\":890:914   */\n  mload\n    /* \"#utility.yul\":941:959   */\n  0xffffffffffffffff\n    /* \"#utility.yul\":933:939   */\n  dup2\n    /* \"#utility.yul\":930:960   */\n  gt\n    /* \"#utility.yul\":927:929   */\n  iszero\n  tag_37\n  jumpi\n    /* \"#utility.yul\":973:974   */\n  0x00\n    /* \"#utility.yul\":970:971   */\n  dup1\n    /* \"#utility.yul\":963:975   */\n  revert\n    /* \"#utility.yul\":927:929   */\ntag_37:\n    /* \"#utility.yul\":1001:1075   */\n  tag_38\n    /* \"#utility.yul\":1067:1074   */\n  dup6\n    /* \"#utility.yul\":1058:1064   */\n  dup3\n    /* \"#utility.yul\":1047:1056   */\n  dup7\n    /* \"#utility.yul\":1043:1065   */\n  add\n    /* \"#utility.yul\":1001:1075   */\n  tag_31\n  jump\t// in\ntag_38:\n    /* \"#utility.yul\":991:1075   */\n  swap3\n  pop\n    /* \"#utility.yul\":861:1085   */\n  pop\n    /* \"#utility.yul\":1145:1147   */\n  0x20\n    /* \"#utility.yul\":1134:1143   */\n  dup4\n    /* \"#utility.yul\":1130:1148   */\n  add\n    /* \"#utility.yul\":1124:1149   */\n  mload\n    /* \"#utility.yul\":1176:1194   */\n  0xffffffffffffffff\n    /* \"#utility.yul\":1168:1174   */\n  dup2\n    /* \"#utility.yul\":1165:1195   */\n  gt\n    /* \"#utility.yul\":1162:1164   */\n  iszero\n  tag_39\n  jumpi\n    /* \"#utility.yul\":1208:1209   */\n  0x00\n    /* \"#utility.yul\":1205:1206   */\n  dup1\n    /* \"#utility.yul\":1198:1210   */\n  revert\n    /* \"#utility.yul\":1162:1164   */\ntag_39:\n    /* \"#utility.yul\":1236:1310   */\n  tag_40\n    /* \"#utility.yul\":1302:1309   */\n  dup6\n    /* \"#utility.yul\":1293:1299   */\n  dup3\n    /* \"#utility.yul\":1282:1291   */\n  dup7\n    /* \"#utility.yul\":1278:1300   */\n  add\n    /* \"#utility.yul\":1236:1310   */\n  tag_31\n  jump\t// in\ntag_40:\n    /* \"#utility.yul\":1226:1310   */\n  swap2\n  pop\n    /* \"#utility.yul\":1095:1320   */\n  pop\n    /* \"#utility.yul\":789:1327   */\n  swap3\n  pop\n  swap3\n  swap1\n  pop\n  jump\t// out\n    /* \"#utility.yul\":1333:1462   */\ntag_27:\n    /* \"#utility.yul\":1367:1373   */\n  0x00\n    /* \"#utility.yul\":1394:1414   */\n  tag_42\n  tag_43\n  jump\t// in\ntag_42:\n    /* \"#utility.yul\":1384:1414   */\n  swap1\n  pop\n    /* \"#utility.yul\":1423:1456   */\n  tag_44\n    /* \"#utility.yul\":1451:1455   */\n  dup3\n    /* \"#utility.yul\":1443:1449   */\n  dup3\n    /* \"#utility.yul\":1423:1456   */\n  tag_45\n  jump\t// in\ntag_44:\n    /* \"#utility.yul\":1374:1462   */\n  swap2\n  swap1\n  pop\n  jump\t// out\n    /* \"#utility.yul\":1468:1543   */\ntag_43:\n    /* \"#utility.yul\":1501:1507   */\n  0x00\n    /* \"#utility.yul\":1534:1536   */\n  0x40\n    /* \"#utility.yul\":1528:1537   */\n  mload\n    /* \"#utility.yul\":1518:1537   */\n  swap1\n  pop\n    /* \"#utility.yul\":1508:1543   */\n  swap1\n  jump\t// out\n    /* \"#utility.yul\":1549:1857   */\ntag_26:\n    /* \"#utility.yul\":1611:1615   */\n  0x00\n    /* \"#utility.yul\":1701:1719   */\n  0xffffffffffffffff\n    /* \"#utility.yul\":1693:1699   */\n  dup3\n    /* \"#utility.yul\":1690:1720   */\n  gt\n    /* \"#utility.yul\":1687:1689   */\n  iszero\n  tag_48\n  jumpi\n    /* \"#utility.yul\":1723:1741   */\n  tag_49\n  tag_50\n  jump\t// in\ntag_49:\n    /* \"#utility.yul\":1687:1689   */\ntag_48:\n    /* \"#utility.yul\":1761:1790   */\n  tag_51\n    /* \"#utility.yul\":1783:1789   */\n  dup3\n    /* \"#utility.yul\":1761:1790   */\n  tag_52\n  jump\t// in\ntag_51:\n    /* \"#utility.yul\":1753:1790   */\n  swap1\n  pop\n    /* \"#utility.yul\":1845:1849   */\n  0x20\n    /* \"#utility.yul\":1839:1843   */\n  dup2\n    /* \"#utility.yul\":1835:1850   */\n  add\n    /* \"#utility.yul\":1827:1850   */\n  swap1\n  pop\n    /* \"#utility.yul\":1616:1857   */\n  swap2\n  swap1\n  pop\n  jump\t// out\n    /* \"#utility.yul\":1863:2170   */\ntag_30:\n    /* \"#utility.yul\":1931:1932   */\n  0x00\n    /* \"#utility.yul\":1941:2054   */\ntag_54:\n    /* \"#utility.yul\":1955:1961   */\n  dup4\n    /* \"#utility.yul\":1952:1953   */\n  dup2\n    /* \"#utility.yul\":1949:1962   */\n  lt\n    /* \"#utility.yul\":1941:2054   */\n  iszero\n  tag_56\n  jumpi\n    /* \"#utility.yul\":2040:2041   */\n  dup1\n    /* \"#utility.yul\":2035:2038   */\n  dup3\n    /* \"#utility.yul\":2031:2042   */\n  add\n    /* \"#utility.yul\":2025:2043   */\n  mload\n    /* \"#utility.yul\":2021:2022   */\n  dup2\n    /* \"#utility.yul\":2016:2019   */\n  dup5\n    /* \"#utility.yul\":2012:2023   */\n  add\n    /* \"#utility.yul\":2005:2044   */\n  mstore\n    /* \"#utility.yul\":1977:1979   */\n  0x20\n    /* \"#utility.yul\":1974:1975   */\n  dup2\n    /* \"#utility.yul\":1970:1980   */\n  add\n    /* \"#utility.yul\":1965:1980   */\n  swap1\n  pop\n    /* \"#utility.yul\":1941:2054   */\n  jump(tag_54)\ntag_56:\n    /* \"#utility.yul\":2072:2078   */\n  dup4\n    /* \"#utility.yul\":2069:2070   */\n  dup2\n    /* \"#utility.yul\":2066:2079   */\n  gt\n    /* \"#utility.yul\":2063:2065   */\n  iszero\n  tag_57\n  jumpi\n    /* \"#utility.yul\":2152:2153   */\n  0x00\n    /* \"#utility.yul\":2143:2149   */\n  dup5\n    /* \"#utility.yul\":2138:2141   */\n  dup5\n    /* \"#utility.yul\":2134:2150   */\n  add\n    /* \"#utility.yul\":2127:2154   */\n  mstore\n    /* \"#utility.yul\":2063:2065   */\ntag_57:\n    /* \"#utility.yul\":1912:2170   */\n  pop\n  pop\n  pop\n  pop\n  jump\t// out\n    /* \"#utility.yul\":2176:2496   */\ntag_11:\n    /* \"#utility.yul\":2220:2226   */\n  0x00\n    /* \"#utility.yul\":2257:2258   */\n  0x02\n    /* \"#utility.yul\":2251:2255   */\n  dup3\n    /* \"#utility.yul\":2247:2259   */\n  div\n    /* \"#utility.yul\":2237:2259   */\n  swap1\n  pop\n    /* \"#utility.yul\":2304:2305   */\n  0x01\n    /* \"#utility.yul\":2298:2302   */\n  dup3\n    /* \"#utility.yul\":2294:2306   */\n  and\n    /* \"#utility.yul\":2325:2343   */\n  dup1\n    /* \"#utility.yul\":2315:2317   */\n  tag_59\n  jumpi\n    /* \"#utility.yul\":2381:2385   */\n  0x7f\n    /* \"#utility.yul\":2373:2379   */\n  dup3\n    /* \"#utility.yul\":2369:2386   */\n  and\n    /* \"#utility.yul\":2359:2386   */\n  swap2\n  pop\n    /* \"#utility.yul\":2315:2317   */\ntag_59:\n    /* \"#utility.yul\":2443:2445   */\n  0x20\n    /* \"#utility.yul\":2435:2441   */\n  dup3\n    /* \"#utility.yul\":2432:2446   */\n  lt\n    /* \"#utility.yul\":2412:2430   */\n  dup2\n    /* \"#utility.yul\":2409:2447   */\n  eq\n    /* \"#utility.yul\":2406:2408   */\n  iszero\n  tag_60\n  jumpi\n    /* \"#utility.yul\":2462:2480   */\n  tag_61\n  tag_62\n  jump\t// in\ntag_61:\n    /* \"#utility.yul\":2406:2408   */\ntag_60:\n    /* \"#utility.yul\":2227:2496   */\n  pop\n  swap2\n  swap1\n  pop\n  jump\t// out\n    /* \"#utility.yul\":2502:2783   */\ntag_45:\n    /* \"#utility.yul\":2585:2612   */\n  tag_64\n    /* \"#utility.yul\":2607:2611   */\n  dup3\n    /* \"#utility.yul\":2585:2612   */\n  tag_52\n  jump\t// in\ntag_64:\n    /* \"#utility.yul\":2577:2583   */\n  dup2\n    /* \"#utility.yul\":2573:2613   */\n  add\n    /* \"#utility.yul\":2715:2721   */\n  dup2\n    /* \"#utility.yul\":2703:2713   */\n  dup2\n    /* \"#utility.yul\":2700:2722   */\n  lt\n    /* \"#utility.yul\":2679:2697   */\n  0xffffffffffffffff\n    /* \"#utility.yul\":2667:2677   */\n  dup3\n    /* \"#utility.yul\":2664:2698   */\n  gt\n    /* \"#utility.yul\":2661:2723   */\n  or\n    /* \"#utility.yul\":2658:2660   */\n  iszero\n  tag_65\n  jumpi\n    /* \"#utility.yul\":2726:2744   */\n  tag_66\n  tag_50\n  jump\t// in\ntag_66:\n    /* \"#utility.yul\":2658:2660   */\ntag_65:\n    /* \"#utility.yul\":2766:2776   */\n  dup1\n    /* \"#utility.yul\":2762:2764   */\n  0x40\n    /* \"#utility.yul\":2755:2777   */\n  mstore\n    /* \"#utility.yul\":2545:2783   */\n  pop\n  pop\n  pop\n  jump\t// out\n    /* \"#utility.yul\":2789:2969   */\ntag_62:\n    /* \"#utility.yul\":2837:2914   */\n  0x4e487b7100000000000000000000000000000000000000000000000000000000\n    /* \"#utility.yul\":2834:2835   */\n  0x00\n    /* \"#utility.yul\":2827:2915   */\n  mstore\n    /* \"#utility.yul\":2934:2938   */\n  0x22\n    /* \"#utility.yul\":2931:2932   */\n  0x04\n    /* \"#utility.yul\":2924:2939   */\n  mstore\n    /* \"#utility.yul\":2958:2962   */\n  0x24\n    /* \"#utility.yul\":2955:2956   */\n  0x00\n    /* \"#utility.yul\":2948:2963   */\n  revert\n    /* \"#utility.yul\":2975:3155   */\ntag_50:\n    /* \"#utility.yul\":3023:3100   */\n  0x4e487b7100000000000000000000000000000000000000000000000000000000\n    /* \"#utility.yul\":3020:3021   */\n  0x00\n    /* \"#utility.yul\":3013:3101   */\n  mstore\n    /* \"#utility.yul\":3120:3124   */\n  0x41\n    /* \"#utility.yul\":3117:3118   */\n  0x04\n    /* \"#utility.yul\":3110:3125   */\n  mstore\n    /* \"#utility.yul\":3144:3148   */\n  0x24\n    /* \"#utility.yul\":3141:3142   */\n  0x00\n    /* \"#utility.yul\":3134:3149   */\n  revert\n    /* \"#utility.yul\":3161:3263   */\ntag_52:\n    /* \"#utility.yul\":3202:3208   */\n  0x00\n    /* \"#utility.yul\":3253:3255   */\n  0x1f\n    /* \"#utility.yul\":3249:3256   */\n  not\n    /* \"#utility.yul\":3244:3246   */\n  0x1f\n    /* \"#utility.yul\":3237:3242   */\n  dup4\n    /* \"#utility.yul\":3233:3247   */\n  add\n    /* \"#utility.yul\":3229:3257   */\n  and\n    /* \"#utility.yul\":3219:3257   */\n  swap1\n  pop\n    /* \"#utility.yul\":3209:3263   */\n  swap2\n  swap1\n  pop\n  jump\t// out\n    /* \"contracts/nft.sol\":677:10876  contract nft is Context, ERC165, IERC721, IERC721Metadata {\r... */\ntag_9:\n  dataSize(sub_0)\n  dup1\n  dataOffset(sub_0)\n  0x00\n  codecopy\n  0x00\n  return\nstop\n\nsub_0: assembly {\n        /* \"contracts/nft.sol\":677:10876  contract nft is Context, ERC165, IERC721, IERC721Metadata {\r... */\n      mstore(0x40, 0x80)\n      callvalue\n      dup1\n      iszero\n      tag_1\n      jumpi\n      0x00\n      dup1\n      revert\n    tag_1:\n      pop\n      jumpi(tag_2, lt(calldatasize, 0x04))\n      shr(0xe0, calldataload(0x00))\n      dup1\n      0x70a08231\n      gt\n      tag_19\n      jumpi\n      dup1\n      0xb88d4fde\n      gt\n      tag_20\n      jumpi\n      dup1\n      0xb88d4fde\n      eq\n      tag_15\n      jumpi\n      dup1\n      0xc87b56dd\n      eq\n      tag_16\n      jumpi\n      dup1\n      0xe985e9c5\n      eq\n      tag_17\n      jumpi\n      dup1\n      0xee48cda2\n      eq\n      tag_18\n      jumpi\n      jump(tag_2)\n    tag_20:\n      dup1\n      0x70a08231\n      eq\n      tag_11\n      jumpi\n      dup1\n      0x95d89b41\n      eq\n      tag_12\n      jumpi\n      dup1\n      0x99eb80a9\n      eq\n      tag_13\n      jumpi\n      dup1\n      0xa22cb465\n      eq\n      tag_14\n      jumpi\n      jump(tag_2)\n    tag_19:\n      dup1\n      0x23b872dd\n      gt\n      tag_21\n      jumpi\n      dup1\n      0x23b872dd\n      eq\n      tag_7\n      jumpi\n      dup1\n      0x42842e0e\n      eq\n      tag_8\n      jumpi\n      dup1\n      0x52e04825\n      eq\n      tag_9\n      jumpi\n      dup1\n      0x6352211e\n      eq\n      tag_10\n      jumpi\n      jump(tag_2)\n    tag_21:\n      dup1\n      0x01ffc9a7\n      eq\n      tag_3\n      jumpi\n      dup1\n      0x06fdde03\n      eq\n      tag_4\n      jumpi\n      dup1\n      0x081812fc\n      eq\n      tag_5\n      jumpi\n      dup1\n      0x095ea7b3\n      eq\n      tag_6\n      jumpi\n    tag_2:\n      0x00\n      dup1\n      revert\n        /* \"contracts/nft.sol\":1482:1787  function supportsInterface(bytes4 interfaceId) public view virtual override(ERC165, IERC165) returns (bool) {\r... */\n    tag_3:\n      tag_22\n      0x04\n      dup1\n      calldatasize\n      sub\n      dup2\n      add\n      swap1\n      tag_23\n      swap2\n      swap1\n      tag_24\n      jump\t// in\n    tag_23:\n      tag_25\n      jump\t// in\n    tag_22:\n      mload(0x40)\n      tag_26\n      swap2\n      swap1\n      tag_27\n      jump\t// in\n    tag_26:\n      mload(0x40)\n      dup1\n      swap2\n      sub\n      swap1\n      return\n        /* \"contracts/nft.sol\":2723:2823  function name() public view virtual override returns (string memory) {\r... */\n    tag_4:\n      tag_28\n      tag_29\n      jump\t// in\n    tag_28:\n      mload(0x40)\n      tag_30\n      swap2\n      swap1\n      tag_31\n      jump\t// in\n    tag_30:\n      mload(0x40)\n      dup1\n      swap2\n      sub\n      swap1\n      return\n        /* \"contracts/nft.sol\":3759:3930  function getApproved(uint256 tokenId) public view virtual override returns (address) {\r... */\n    tag_5:\n      tag_32\n      0x04\n      dup1\n      calldatasize\n      sub\n      dup2\n      add\n      swap1\n      tag_33\n      swap2\n      swap1\n      tag_34\n      jump\t// in\n    tag_33:\n      tag_35\n      jump\t// in\n    tag_32:\n      mload(0x40)\n      tag_36\n      swap2\n      swap1\n      tag_37\n      jump\t// in\n    tag_36:\n      mload(0x40)\n      dup1\n      swap2\n      sub\n      swap1\n      return\n        /* \"contracts/nft.sol\":3335:3748  function approve(address to, uint256 tokenId) public virtual override {\r... */\n    tag_6:\n      tag_38\n      0x04\n      dup1\n      calldatasize\n      sub\n      dup2\n      add\n      swap1\n      tag_39\n      swap2\n      swap1\n      tag_40\n      jump\t// in\n    tag_39:\n      tag_41\n      jump\t// in\n    tag_38:\n      stop\n        /* \"contracts/nft.sol\":4281:4563  function transferFrom(\r... */\n    tag_7:\n      tag_42\n      0x04\n      dup1\n      calldatasize\n      sub\n      dup2\n      add\n      swap1\n      tag_43\n      swap2\n      swap1\n      tag_44\n      jump\t// in\n    tag_43:\n      tag_45\n      jump\t// in\n    tag_42:\n      stop\n        /* \"contracts/nft.sol\":4573:4758  function safeTransferFrom(\r... */\n    tag_8:\n      tag_46\n      0x04\n      dup1\n      calldatasize\n      sub\n      dup2\n      add\n      swap1\n      tag_47\n      swap2\n      swap1\n      tag_44\n      jump\t// in\n    tag_47:\n      tag_48\n      jump\t// in\n    tag_46:\n      stop\n        /* \"contracts/nft.sol\":2245:2493  function collaboratotOf(uint256 tokenId) public view virtual returns (address) {\r... */\n    tag_9:\n      tag_49\n      0x04\n      dup1\n      calldatasize\n      sub\n      dup2\n      add\n      swap1\n      tag_50\n      swap2\n      swap1\n      tag_34\n      jump\t// in\n    tag_50:\n      tag_51\n      jump\t// in\n    tag_49:\n      mload(0x40)\n      tag_52\n      swap2\n      swap1\n      tag_37\n      jump\t// in\n    tag_52:\n      mload(0x40)\n      dup1\n      swap2\n      sub\n      swap1\n      return\n        /* \"contracts/nft.sol\":2014:2236  function ownerOf(uint256 tokenId) public view virtual override returns (address) {\r... */\n    tag_10:\n      tag_53\n      0x04\n      dup1\n      calldatasize\n      sub\n      dup2\n      add\n      swap1\n      tag_54\n      swap2\n      swap1\n      tag_34\n      jump\t// in\n    tag_54:\n      tag_55\n      jump\t// in\n    tag_53:\n      mload(0x40)\n      tag_56\n      swap2\n      swap1\n      tag_37\n      jump\t// in\n    tag_56:\n      mload(0x40)\n      dup1\n      swap2\n      sub\n      swap1\n      return\n        /* \"contracts/nft.sol\":1797:2004  function balanceOf(address owner) public view virtual override returns (uint256) {\r... */\n    tag_11:\n      tag_57\n      0x04\n      dup1\n      calldatasize\n      sub\n      dup2\n      add\n      swap1\n      tag_58\n      swap2\n      swap1\n      tag_59\n      jump\t// in\n    tag_58:\n      tag_60\n      jump\t// in\n    tag_57:\n      mload(0x40)\n      tag_61\n      swap2\n      swap1\n      tag_62\n      jump\t// in\n    tag_61:\n      mload(0x40)\n      dup1\n      swap2\n      sub\n      swap1\n      return\n        /* \"contracts/nft.sol\":2832:2936  function symbol() public view virtual override returns (string memory) {\r... */\n    tag_12:\n      tag_63\n      tag_64\n      jump\t// in\n    tag_63:\n      mload(0x40)\n      tag_65\n      swap2\n      swap1\n      tag_31\n      jump\t// in\n    tag_65:\n      mload(0x40)\n      dup1\n      swap2\n      sub\n      swap1\n      return\n        /* \"contracts/nft.sol\":5099:5357  function mint(address to,uint256 ownerPercent,address collaborator,uint256  collaboratorPercent,uint tokenId,string memory uri) public{\r... */\n    tag_13:\n      tag_66\n      0x04\n      dup1\n      calldatasize\n      sub\n      dup2\n      add\n      swap1\n      tag_67\n      swap2\n      swap1\n      tag_68\n      jump\t// in\n    tag_67:\n      tag_69\n      jump\t// in\n    tag_66:\n      stop\n        /* \"contracts/nft.sol\":3942:4097  function setApprovalForAll(address operator, bool approved) public virtual override {\r... */\n    tag_14:\n      tag_70\n      0x04\n      dup1\n      calldatasize\n      sub\n      dup2\n      add\n      swap1\n      tag_71\n      swap2\n      swap1\n      tag_72\n      jump\t// in\n    tag_71:\n      tag_73\n      jump\t// in\n    tag_70:\n      stop\n        /* \"contracts/nft.sol\":4768:5090  function safeTransferFrom(\r... */\n    tag_15:\n      tag_74\n      0x04\n      dup1\n      calldatasize\n      sub\n      dup2\n      add\n      swap1\n      tag_75\n      swap2\n      swap1\n      tag_76\n      jump\t// in\n    tag_75:\n      tag_77\n      jump\t// in\n    tag_74:\n      stop\n        /* \"contracts/nft.sol\":2944:3225  function tokenURI(uint256 tokenId) public view virtual override returns (string memory) {\r... */\n    tag_16:\n      tag_78\n      0x04\n      dup1\n      calldatasize\n      sub\n      dup2\n      add\n      swap1\n      tag_79\n      swap2\n      swap1\n      tag_34\n      jump\t// in\n    tag_79:\n      tag_80\n      jump\t// in\n    tag_78:\n      mload(0x40)\n      tag_81\n      swap2\n      swap1\n      tag_31\n      jump\t// in\n    tag_81:\n      mload(0x40)\n      dup1\n      swap2\n      sub\n      swap1\n      return\n        /* \"contracts/nft.sol\":4107:4271  function isApprovedForAll(address owner, address operator) public view virtual override returns (bool) {\r... */\n    tag_17:\n      tag_82\n      0x04\n      dup1\n      calldatasize\n      sub\n      dup2\n      add\n      swap1\n      tag_83\n      swap2\n      swap1\n      tag_84\n      jump\t// in\n    tag_83:\n      tag_85\n      jump\t// in\n    tag_82:\n      mload(0x40)\n      tag_86\n      swap2\n      swap1\n      tag_27\n      jump\t// in\n    tag_86:\n      mload(0x40)\n      dup1\n      swap2\n      sub\n      swap1\n      return\n        /* \"contracts/nft.sol\":2501:2715  function collaboratotPercentageOf(uint256 tokenId) public view virtual returns (uint256) {\r... */\n    tag_18:\n      tag_87\n      0x04\n      dup1\n      calldatasize\n      sub\n      dup2\n      add\n      swap1\n      tag_88\n      swap2\n      swap1\n      tag_34\n      jump\t// in\n    tag_88:\n      tag_89\n      jump\t// in\n    tag_87:\n      mload(0x40)\n      tag_90\n      swap2\n      swap1\n      tag_62\n      jump\t// in\n    tag_90:\n      mload(0x40)\n      dup1\n      swap2\n      sub\n      swap1\n      return\n        /* \"contracts/nft.sol\":1482:1787  function supportsInterface(bytes4 interfaceId) public view virtual override(ERC165, IERC165) returns (bool) {\r... */\n    tag_25:\n        /* \"contracts/nft.sol\":1584:1588  bool */\n      0x00\n        /* \"contracts/nft.sol\":1636:1661  type(IERC721).interfaceId */\n      0x80ac58cd00000000000000000000000000000000000000000000000000000000\n        /* \"contracts/nft.sol\":1621:1661  interfaceId == type(IERC721).interfaceId */\n      not(0xffffffffffffffffffffffffffffffffffffffffffffffffffffffff)\n      and\n        /* \"contracts/nft.sol\":1621:1632  interfaceId */\n      dup3\n        /* \"contracts/nft.sol\":1621:1661  interfaceId == type(IERC721).interfaceId */\n      not(0xffffffffffffffffffffffffffffffffffffffffffffffffffffffff)\n      and\n      eq\n        /* \"contracts/nft.sol\":1621:1726  interfaceId == type(IERC721).interfaceId ||\r... */\n      dup1\n      tag_92\n      jumpi\n      pop\n        /* \"contracts/nft.sol\":1693:1726  type(IERC721Metadata).interfaceId */\n      0x5b5e139f00000000000000000000000000000000000000000000000000000000\n        /* \"contracts/nft.sol\":1678:1726  interfaceId == type(IERC721Metadata).interfaceId */\n      not(0xffffffffffffffffffffffffffffffffffffffffffffffffffffffff)\n      and\n        /* \"contracts/nft.sol\":1678:1689  interfaceId */\n      dup3\n        /* \"contracts/nft.sol\":1678:1726  interfaceId == type(IERC721Metadata).interfaceId */\n      not(0xffffffffffffffffffffffffffffffffffffffffffffffffffffffff)\n      and\n      eq\n        /* \"contracts/nft.sol\":1621:1726  interfaceId == type(IERC721).interfaceId ||\r... */\n    tag_92:\n        /* \"contracts/nft.sol\":1621:1779  interfaceId == type(IERC721).interfaceId ||\r... */\n      dup1\n      tag_93\n      jumpi\n      pop\n        /* \"contracts/nft.sol\":1743:1779  super.supportsInterface(interfaceId) */\n      tag_94\n        /* \"contracts/nft.sol\":1767:1778  interfaceId */\n      dup3\n        /* \"contracts/nft.sol\":1743:1766  super.supportsInterface */\n      tag_95\n        /* \"contracts/nft.sol\":1743:1779  super.supportsInterface(interfaceId) */\n      jump\t// in\n    tag_94:\n        /* \"contracts/nft.sol\":1621:1779  interfaceId == type(IERC721).interfaceId ||\r... */\n    tag_93:\n        /* \"contracts/nft.sol\":1601:1779  return\r... */\n      swap1\n      pop\n        /* \"contracts/nft.sol\":1482:1787  function supportsInterface(bytes4 interfaceId) public view virtual override(ERC165, IERC165) returns (bool) {\r... */\n      swap2\n      swap1\n      pop\n      jump\t// out\n        /* \"contracts/nft.sol\":2723:2823  function name() public view virtual override returns (string memory) {\r... */\n    tag_29:\n        /* \"contracts/nft.sol\":2777:2790  string memory */\n      0x60\n        /* \"contracts/nft.sol\":2810:2815  _name */\n      0x00\n        /* \"contracts/nft.sol\":2803:2815  return _name */\n      dup1\n      sload\n      tag_97\n      swap1\n      tag_98\n      jump\t// in\n    tag_97:\n      dup1\n      0x1f\n      add\n      0x20\n      dup1\n      swap2\n      div\n      mul\n      0x20\n      add\n      mload(0x40)\n      swap1\n      dup2\n      add\n      0x40\n      mstore\n      dup1\n      swap3\n      swap2\n      swap1\n      dup2\n      dup2\n      mstore\n      0x20\n      add\n      dup3\n      dup1\n      sload\n      tag_99\n      swap1\n      tag_98\n      jump\t// in\n    tag_99:\n      dup1\n      iszero\n      tag_100\n      jumpi\n      dup1\n      0x1f\n      lt\n      tag_101\n      jumpi\n      0x0100\n      dup1\n      dup4\n      sload\n      div\n      mul\n      dup4\n      mstore\n      swap2\n      0x20\n      add\n      swap2\n      jump(tag_100)\n    tag_101:\n      dup3\n      add\n      swap2\n      swap1\n      0x00\n      mstore\n      keccak256(0x00, 0x20)\n      swap1\n    tag_102:\n      dup2\n      sload\n      dup2\n      mstore\n      swap1\n      0x01\n      add\n      swap1\n      0x20\n      add\n      dup1\n      dup4\n      gt\n      tag_102\n      jumpi\n      dup3\n      swap1\n      sub\n      0x1f\n      and\n      dup3\n      add\n      swap2\n    tag_100:\n      pop\n      pop\n      pop\n      pop\n      pop\n      swap1\n      pop\n        /* \"contracts/nft.sol\":2723:2823  function name() public view virtual override returns (string memory) {\r... */\n      swap1\n      jump\t// out\n        /* \"contracts/nft.sol\":3759:3930  function getApproved(uint256 tokenId) public view virtual override returns (address) {\r... */\n    tag_35:\n        /* \"contracts/nft.sol\":3835:3842  address */\n      0x00\n        /* \"contracts/nft.sol\":3855:3878  _requireMinted(tokenId) */\n      tag_104\n        /* \"contracts/nft.sol\":3870:3877  tokenId */\n      dup3\n        /* \"contracts/nft.sol\":3855:3869  _requireMinted */\n      tag_105\n        /* \"contracts/nft.sol\":3855:3878  _requireMinted(tokenId) */\n      jump\t// in\n    tag_104:\n        /* \"contracts/nft.sol\":3898:3913  _tokenApprovals */\n      0x06\n        /* \"contracts/nft.sol\":3898:3922  _tokenApprovals[tokenId] */\n      0x00\n        /* \"contracts/nft.sol\":3914:3921  tokenId */\n      dup4\n        /* \"contracts/nft.sol\":3898:3922  _tokenApprovals[tokenId] */\n      dup2\n      mstore\n      0x20\n      add\n      swap1\n      dup2\n      mstore\n      0x20\n      add\n      0x00\n      keccak256\n      0x00\n      swap1\n      sload\n      swap1\n      0x0100\n      exp\n      swap1\n      div\n      0xffffffffffffffffffffffffffffffffffffffff\n      and\n        /* \"contracts/nft.sol\":3891:3922  return _tokenApprovals[tokenId] */\n      swap1\n      pop\n        /* \"contracts/nft.sol\":3759:3930  function getApproved(uint256 tokenId) public view virtual override returns (address) {\r... */\n      swap2\n      swap1\n      pop\n      jump\t// out\n        /* \"contracts/nft.sol\":3335:3748  function approve(address to, uint256 tokenId) public virtual override {\r... */\n    tag_41:\n        /* \"contracts/nft.sol\":3416:3429  address owner */\n      0x00\n        /* \"contracts/nft.sol\":3432:3452  nft.ownerOf(tokenId) */\n      tag_107\n        /* \"contracts/nft.sol\":3444:3451  tokenId */\n      dup3\n        /* \"contracts/nft.sol\":3432:3443  nft.ownerOf */\n      tag_55\n        /* \"contracts/nft.sol\":3432:3452  nft.ownerOf(tokenId) */\n      jump\t// in\n    tag_107:\n        /* \"contracts/nft.sol\":3416:3452  address owner = nft.ownerOf(tokenId) */\n      swap1\n      pop\n        /* \"contracts/nft.sol\":3477:3482  owner */\n      dup1\n        /* \"contracts/nft.sol\":3471:3482  to != owner */\n      0xffffffffffffffffffffffffffffffffffffffff\n      and\n        /* \"contracts/nft.sol\":3471:3473  to */\n      dup4\n        /* \"contracts/nft.sol\":3471:3482  to != owner */\n      0xffffffffffffffffffffffffffffffffffffffff\n      and\n      eq\n      iszero\n        /* \"contracts/nft.sol\":3463:3520  require(to != owner, \"ERC721: approval to current owner\") */\n      tag_108\n      jumpi\n      mload(0x40)\n      0x08c379a000000000000000000000000000000000000000000000000000000000\n      dup2\n      mstore\n      0x04\n      add\n      tag_109\n      swap1\n      tag_110\n      jump\t// in\n    tag_109:\n      mload(0x40)\n      dup1\n      swap2\n      sub\n      swap1\n      revert\n    tag_108:\n        /* \"contracts/nft.sol\":3571:3576  owner */\n      dup1\n        /* \"contracts/nft.sol\":3555:3576  _msgSender() == owner */\n      0xffffffffffffffffffffffffffffffffffffffff\n      and\n        /* \"contracts/nft.sol\":3555:3567  _msgSender() */\n      tag_111\n        /* \"contracts/nft.sol\":3555:3565  _msgSender */\n      tag_112\n        /* \"contracts/nft.sol\":3555:3567  _msgSender() */\n      jump\t// in\n    tag_111:\n        /* \"contracts/nft.sol\":3555:3576  _msgSender() == owner */\n      0xffffffffffffffffffffffffffffffffffffffff\n      and\n      eq\n        /* \"contracts/nft.sol\":3555:3617  _msgSender() == owner || isApprovedForAll(owner, _msgSender()) */\n      dup1\n      tag_113\n      jumpi\n      pop\n        /* \"contracts/nft.sol\":3580:3617  isApprovedForAll(owner, _msgSender()) */\n      tag_114\n        /* \"contracts/nft.sol\":3597:3602  owner */\n      dup2\n        /* \"contracts/nft.sol\":3604:3616  _msgSender() */\n      tag_115\n        /* \"contracts/nft.sol\":3604:3614  _msgSender */\n      tag_112\n        /* \"contracts/nft.sol\":3604:3616  _msgSender() */\n      jump\t// in\n    tag_115:\n        /* \"contracts/nft.sol\":3580:3596  isApprovedForAll */\n      tag_85\n        /* \"contracts/nft.sol\":3580:3617  isApprovedForAll(owner, _msgSender()) */\n      jump\t// in\n    tag_114:\n        /* \"contracts/nft.sol\":3555:3617  _msgSender() == owner || isApprovedForAll(owner, _msgSender()) */\n    tag_113:\n        /* \"contracts/nft.sol\":3533:3706  require(\r... */\n      tag_116\n      jumpi\n      mload(0x40)\n      0x08c379a000000000000000000000000000000000000000000000000000000000\n      dup2\n      mstore\n      0x04\n      add\n      tag_117\n      swap1\n      tag_118\n      jump\t// in\n    tag_117:\n      mload(0x40)\n      dup1\n      swap2\n      sub\n      swap1\n      revert\n    tag_116:\n        /* \"contracts/nft.sol\":3719:3740  _approve(to, tokenId) */\n      tag_119\n        /* \"contracts/nft.sol\":3728:3730  to */\n      dup4\n        /* \"contracts/nft.sol\":3732:3739  tokenId */\n      dup4\n        /* \"contracts/nft.sol\":3719:3727  _approve */\n      tag_120\n        /* \"contracts/nft.sol\":3719:3740  _approve(to, tokenId) */\n      jump\t// in\n    tag_119:\n        /* \"contracts/nft.sol\":3335:3748  function approve(address to, uint256 tokenId) public virtual override {\r... */\n      pop\n      pop\n      pop\n      jump\t// out\n        /* \"contracts/nft.sol\":4281:4563  function transferFrom(\r... */\n    tag_45:\n        /* \"contracts/nft.sol\":4423:4464  _isApprovedOrOwner(_msgSender(), tokenId) */\n      tag_122\n        /* \"contracts/nft.sol\":4442:4454  _msgSender() */\n      tag_123\n        /* \"contracts/nft.sol\":4442:4452  _msgSender */\n      tag_112\n        /* \"contracts/nft.sol\":4442:4454  _msgSender() */\n      jump\t// in\n    tag_123:\n        /* \"contracts/nft.sol\":4456:4463  tokenId */\n      dup3\n        /* \"contracts/nft.sol\":4423:4441  _isApprovedOrOwner */\n      tag_124\n        /* \"contracts/nft.sol\":4423:4464  _isApprovedOrOwner(_msgSender(), tokenId) */\n      jump\t// in\n    tag_122:\n        /* \"contracts/nft.sol\":4415:4514  require(_isApprovedOrOwner(_msgSender(), tokenId), \"ERC721: caller is not token owner or approved\") */\n      tag_125\n      jumpi\n      mload(0x40)\n      0x08c379a000000000000000000000000000000000000000000000000000000000\n      dup2\n      mstore\n      0x04\n      add\n      tag_126\n      swap1\n      tag_127\n      jump\t// in\n    tag_126:\n      mload(0x40)\n      dup1\n      swap2\n      sub\n      swap1\n      revert\n    tag_125:\n        /* \"contracts/nft.sol\":4527:4555  _transfer(from, to, tokenId) */\n      tag_128\n        /* \"contracts/nft.sol\":4537:4541  from */\n      dup4\n        /* \"contracts/nft.sol\":4543:4545  to */\n      dup4\n        /* \"contracts/nft.sol\":4547:4554  tokenId */\n      dup4\n        /* \"contracts/nft.sol\":4527:4536  _transfer */\n      tag_129\n        /* \"contracts/nft.sol\":4527:4555  _transfer(from, to, tokenId) */\n      jump\t// in\n    tag_128:\n        /* \"contracts/nft.sol\":4281:4563  function transferFrom(\r... */\n      pop\n      pop\n      pop\n      jump\t// out\n        /* \"contracts/nft.sol\":4573:4758  function safeTransferFrom(\r... */\n    tag_48:\n        /* \"contracts/nft.sol\":4711:4750  safeTransferFrom(from, to, tokenId, \"\") */\n      tag_131\n        /* \"contracts/nft.sol\":4728:4732  from */\n      dup4\n        /* \"contracts/nft.sol\":4734:4736  to */\n      dup4\n        /* \"contracts/nft.sol\":4738:4745  tokenId */\n      dup4\n        /* \"contracts/nft.sol\":4711:4750  safeTransferFrom(from, to, tokenId, \"\") */\n      mload(0x40)\n      dup1\n      0x20\n      add\n      0x40\n      mstore\n      dup1\n      0x00\n      dup2\n      mstore\n      pop\n        /* \"contracts/nft.sol\":4711:4727  safeTransferFrom */\n      tag_77\n        /* \"contracts/nft.sol\":4711:4750  safeTransferFrom(from, to, tokenId, \"\") */\n      jump\t// in\n    tag_131:\n        /* \"contracts/nft.sol\":4573:4758  function safeTransferFrom(\r... */\n      pop\n      pop\n      pop\n      jump\t// out\n        /* \"contracts/nft.sol\":2245:2493  function collaboratotOf(uint256 tokenId) public view virtual returns (address) {\r... */\n    tag_51:\n        /* \"contracts/nft.sol\":2315:2322  address */\n      0x00\n        /* \"contracts/nft.sol\":2335:2355  address collaborator */\n      dup1\n        /* \"contracts/nft.sol\":2358:2372  _collaborators */\n      0x03\n        /* \"contracts/nft.sol\":2358:2381  _collaborators[tokenId] */\n      0x00\n        /* \"contracts/nft.sol\":2373:2380  tokenId */\n      dup5\n        /* \"contracts/nft.sol\":2358:2381  _collaborators[tokenId] */\n      dup2\n      mstore\n      0x20\n      add\n      swap1\n      dup2\n      mstore\n      0x20\n      add\n      0x00\n      keccak256\n      0x00\n      swap1\n      sload\n      swap1\n      0x0100\n      exp\n      swap1\n      div\n      0xffffffffffffffffffffffffffffffffffffffff\n      and\n        /* \"contracts/nft.sol\":2335:2381  address collaborator = _collaborators[tokenId] */\n      swap1\n      pop\n        /* \"contracts/nft.sol\":2424:2425  0 */\n      0x00\n        /* \"contracts/nft.sol\":2400:2426  collaborator != address(0) */\n      0xffffffffffffffffffffffffffffffffffffffff\n      and\n        /* \"contracts/nft.sol\":2400:2412  collaborator */\n      dup2\n        /* \"contracts/nft.sol\":2400:2426  collaborator != address(0) */\n      0xffffffffffffffffffffffffffffffffffffffff\n      and\n      eq\n      iszero\n        /* \"contracts/nft.sol\":2392:2455  require(collaborator != address(0), \"ERC721: invalid token ID\") */\n      tag_133\n      jumpi\n      mload(0x40)\n      0x08c379a000000000000000000000000000000000000000000000000000000000\n      dup2\n      mstore\n      0x04\n      add\n      tag_134\n      swap1\n      tag_135\n      jump\t// in\n    tag_134:\n      mload(0x40)\n      dup1\n      swap2\n      sub\n      swap1\n      revert\n    tag_133:\n        /* \"contracts/nft.sol\":2473:2485  collaborator */\n      dup1\n        /* \"contracts/nft.sol\":2466:2485  return collaborator */\n      swap2\n      pop\n      pop\n        /* \"contracts/nft.sol\":2245:2493  function collaboratotOf(uint256 tokenId) public view virtual returns (address) {\r... */\n      swap2\n      swap1\n      pop\n      jump\t// out\n        /* \"contracts/nft.sol\":2014:2236  function ownerOf(uint256 tokenId) public view virtual override returns (address) {\r... */\n    tag_55:\n        /* \"contracts/nft.sol\":2086:2093  address */\n      0x00\n        /* \"contracts/nft.sol\":2106:2119  address owner */\n      dup1\n        /* \"contracts/nft.sol\":2122:2129  _owners */\n      0x02\n        /* \"contracts/nft.sol\":2122:2138  _owners[tokenId] */\n      0x00\n        /* \"contracts/nft.sol\":2130:2137  tokenId */\n      dup5\n        /* \"contracts/nft.sol\":2122:2138  _owners[tokenId] */\n      dup2\n      mstore\n      0x20\n      add\n      swap1\n      dup2\n      mstore\n      0x20\n      add\n      0x00\n      keccak256\n      0x00\n      swap1\n      sload\n      swap1\n      0x0100\n      exp\n      swap1\n      div\n      0xffffffffffffffffffffffffffffffffffffffff\n      and\n        /* \"contracts/nft.sol\":2106:2138  address owner = _owners[tokenId] */\n      swap1\n      pop\n        /* \"contracts/nft.sol\":2174:2175  0 */\n      0x00\n        /* \"contracts/nft.sol\":2157:2176  owner != address(0) */\n      0xffffffffffffffffffffffffffffffffffffffff\n      and\n        /* \"contracts/nft.sol\":2157:2162  owner */\n      dup2\n        /* \"contracts/nft.sol\":2157:2176  owner != address(0) */\n      0xffffffffffffffffffffffffffffffffffffffff\n      and\n      eq\n      iszero\n        /* \"contracts/nft.sol\":2149:2205  require(owner != address(0), \"ERC721: invalid token ID\") */\n      tag_137\n      jumpi\n      mload(0x40)\n      0x08c379a000000000000000000000000000000000000000000000000000000000\n      dup2\n      mstore\n      0x04\n      add\n      tag_138\n      swap1\n      tag_135\n      jump\t// in\n    tag_138:\n      mload(0x40)\n      dup1\n      swap2\n      sub\n      swap1\n      revert\n    tag_137:\n        /* \"contracts/nft.sol\":2223:2228  owner */\n      dup1\n        /* \"contracts/nft.sol\":2216:2228  return owner */\n      swap2\n      pop\n      pop\n        /* \"contracts/nft.sol\":2014:2236  function ownerOf(uint256 tokenId) public view virtual override returns (address) {\r... */\n      swap2\n      swap1\n      pop\n      jump\t// out\n        /* \"contracts/nft.sol\":1797:2004  function balanceOf(address owner) public view virtual override returns (uint256) {\r... */\n    tag_60:\n        /* \"contracts/nft.sol\":1869:1876  uint256 */\n      0x00\n        /* \"contracts/nft.sol\":1914:1915  0 */\n      dup1\n        /* \"contracts/nft.sol\":1897:1916  owner != address(0) */\n      0xffffffffffffffffffffffffffffffffffffffff\n      and\n        /* \"contracts/nft.sol\":1897:1902  owner */\n      dup3\n        /* \"contracts/nft.sol\":1897:1916  owner != address(0) */\n      0xffffffffffffffffffffffffffffffffffffffff\n      and\n      eq\n      iszero\n        /* \"contracts/nft.sol\":1889:1962  require(owner != address(0), \"ERC721: address zero is not a valid owner\") */\n      tag_140\n      jumpi\n      mload(0x40)\n      0x08c379a000000000000000000000000000000000000000000000000000000000\n      dup2\n      mstore\n      0x04\n      add\n      tag_141\n      swap1\n      tag_142\n      jump\t// in\n    tag_141:\n      mload(0x40)\n      dup1\n      swap2\n      sub\n      swap1\n      revert\n    tag_140:\n        /* \"contracts/nft.sol\":1980:1989  _balances */\n      0x05\n        /* \"contracts/nft.sol\":1980:1996  _balances[owner] */\n      0x00\n        /* \"contracts/nft.sol\":1990:1995  owner */\n      dup4\n        /* \"contracts/nft.sol\":1980:1996  _balances[owner] */\n      0xffffffffffffffffffffffffffffffffffffffff\n      and\n      0xffffffffffffffffffffffffffffffffffffffff\n      and\n      dup2\n      mstore\n      0x20\n      add\n      swap1\n      dup2\n      mstore\n      0x20\n      add\n      0x00\n      keccak256\n      sload\n        /* \"contracts/nft.sol\":1973:1996  return _balances[owner] */\n      swap1\n      pop\n        /* \"contracts/nft.sol\":1797:2004  function balanceOf(address owner) public view virtual override returns (uint256) {\r... */\n      swap2\n      swap1\n      pop\n      jump\t// out\n        /* \"contracts/nft.sol\":2832:2936  function symbol() public view virtual override returns (string memory) {\r... */\n    tag_64:\n        /* \"contracts/nft.sol\":2888:2901  string memory */\n      0x60\n        /* \"contracts/nft.sol\":2921:2928  _symbol */\n      0x01\n        /* \"contracts/nft.sol\":2914:2928  return _symbol */\n      dup1\n      sload\n      tag_144\n      swap1\n      tag_98\n      jump\t// in\n    tag_144:\n      dup1\n      0x1f\n      add\n      0x20\n      dup1\n      swap2\n      div\n      mul\n      0x20\n      add\n      mload(0x40)\n      swap1\n      dup2\n      add\n      0x40\n      mstore\n      dup1\n      swap3\n      swap2\n      swap1\n      dup2\n      dup2\n      mstore\n      0x20\n      add\n      dup3\n      dup1\n      sload\n      tag_145\n      swap1\n      tag_98\n      jump\t// in\n    tag_145:\n      dup1\n      iszero\n      tag_146\n      jumpi\n      dup1\n      0x1f\n      lt\n      tag_147\n      jumpi\n      0x0100\n      dup1\n      dup4\n      sload\n      div\n      mul\n      dup4\n      mstore\n      swap2\n      0x20\n      add\n      swap2\n      jump(tag_146)\n    tag_147:\n      dup3\n      add\n      swap2\n      swap1\n      0x00\n      mstore\n      keccak256(0x00, 0x20)\n      swap1\n    tag_148:\n      dup2\n      sload\n      dup2\n      mstore\n      swap1\n      0x01\n      add\n      swap1\n      0x20\n      add\n      dup1\n      dup4\n      gt\n      tag_148\n      jumpi\n      dup3\n      swap1\n      sub\n      0x1f\n      and\n      dup3\n      add\n      swap2\n    tag_146:\n      pop\n      pop\n      pop\n      pop\n      pop\n      swap1\n      pop\n        /* \"contracts/nft.sol\":2832:2936  function symbol() public view virtual override returns (string memory) {\r... */\n      swap1\n      jump\t// out\n        /* \"contracts/nft.sol\":5099:5357  function mint(address to,uint256 ownerPercent,address collaborator,uint256  collaboratorPercent,uint tokenId,string memory uri) public{\r... */\n    tag_69:\n        /* \"contracts/nft.sol\":5244:5312  _safeMint(to,ownerPercent, collaborator,collaboratorPercent,tokenId) */\n      tag_150\n        /* \"contracts/nft.sol\":5254:5256  to */\n      dup7\n        /* \"contracts/nft.sol\":5257:5269  ownerPercent */\n      dup7\n        /* \"contracts/nft.sol\":5271:5283  collaborator */\n      dup7\n        /* \"contracts/nft.sol\":5284:5303  collaboratorPercent */\n      dup7\n        /* \"contracts/nft.sol\":5304:5311  tokenId */\n      dup7\n        /* \"contracts/nft.sol\":5244:5253  _safeMint */\n      tag_151\n        /* \"contracts/nft.sol\":5244:5312  _safeMint(to,ownerPercent, collaborator,collaboratorPercent,tokenId) */\n      jump\t// in\n    tag_150:\n        /* \"contracts/nft.sol\":5323:5349  _setTokenURI(tokenId, uri) */\n      tag_152\n        /* \"contracts/nft.sol\":5336:5343  tokenId */\n      dup3\n        /* \"contracts/nft.sol\":5345:5348  uri */\n      dup3\n        /* \"contracts/nft.sol\":5323:5335  _setTokenURI */\n      tag_153\n        /* \"contracts/nft.sol\":5323:5349  _setTokenURI(tokenId, uri) */\n      jump\t// in\n    tag_152:\n        /* \"contracts/nft.sol\":5099:5357  function mint(address to,uint256 ownerPercent,address collaborator,uint256  collaboratorPercent,uint tokenId,string memory uri) public{\r... */\n      pop\n      pop\n      pop\n      pop\n      pop\n      pop\n      jump\t// out\n        /* \"contracts/nft.sol\":3942:4097  function setApprovalForAll(address operator, bool approved) public virtual override {\r... */\n    tag_73:\n        /* \"contracts/nft.sol\":4037:4089  _setApprovalForAll(_msgSender(), operator, approved) */\n      tag_155\n        /* \"contracts/nft.sol\":4056:4068  _msgSender() */\n      tag_156\n        /* \"contracts/nft.sol\":4056:4066  _msgSender */\n      tag_112\n        /* \"contracts/nft.sol\":4056:4068  _msgSender() */\n      jump\t// in\n    tag_156:\n        /* \"contracts/nft.sol\":4070:4078  operator */\n      dup4\n        /* \"contracts/nft.sol\":4080:4088  approved */\n      dup4\n        /* \"contracts/nft.sol\":4037:4055  _setApprovalForAll */\n      tag_157\n        /* \"contracts/nft.sol\":4037:4089  _setApprovalForAll(_msgSender(), operator, approved) */\n      jump\t// in\n    tag_155:\n        /* \"contracts/nft.sol\":3942:4097  function setApprovalForAll(address operator, bool approved) public virtual override {\r... */\n      pop\n      pop\n      jump\t// out\n        /* \"contracts/nft.sol\":4768:5090  function safeTransferFrom(\r... */\n    tag_77:\n        /* \"contracts/nft.sol\":4942:4983  _isApprovedOrOwner(_msgSender(), tokenId) */\n      tag_159\n        /* \"contracts/nft.sol\":4961:4973  _msgSender() */\n      tag_160\n        /* \"contracts/nft.sol\":4961:4971  _msgSender */\n      tag_112\n        /* \"contracts/nft.sol\":4961:4973  _msgSender() */\n      jump\t// in\n    tag_160:\n        /* \"contracts/nft.sol\":4975:4982  tokenId */\n      dup4\n        /* \"contracts/nft.sol\":4942:4960  _isApprovedOrOwner */\n      tag_124\n        /* \"contracts/nft.sol\":4942:4983  _isApprovedOrOwner(_msgSender(), tokenId) */\n      jump\t// in\n    tag_159:\n        /* \"contracts/nft.sol\":4934:5033  require(_isApprovedOrOwner(_msgSender(), tokenId), \"ERC721: caller is not token owner or approved\") */\n      tag_161\n      jumpi\n      mload(0x40)\n      0x08c379a000000000000000000000000000000000000000000000000000000000\n      dup2\n      mstore\n      0x04\n      add\n      tag_162\n      swap1\n      tag_127\n      jump\t// in\n    tag_162:\n      mload(0x40)\n      dup1\n      swap2\n      sub\n      swap1\n      revert\n    tag_161:\n        /* \"contracts/nft.sol\":5044:5082  _safeTransfer(from, to, tokenId, data) */\n      tag_163\n        /* \"contracts/nft.sol\":5058:5062  from */\n      dup5\n        /* \"contracts/nft.sol\":5064:5066  to */\n      dup5\n        /* \"contracts/nft.sol\":5068:5075  tokenId */\n      dup5\n        /* \"contracts/nft.sol\":5077:5081  data */\n      dup5\n        /* \"contracts/nft.sol\":5044:5057  _safeTransfer */\n      tag_164\n        /* \"contracts/nft.sol\":5044:5082  _safeTransfer(from, to, tokenId, data) */\n      jump\t// in\n    tag_163:\n        /* \"contracts/nft.sol\":4768:5090  function safeTransferFrom(\r... */\n      pop\n      pop\n      pop\n      pop\n      jump\t// out\n        /* \"contracts/nft.sol\":2944:3225  function tokenURI(uint256 tokenId) public view virtual override returns (string memory) {\r... */\n    tag_80:\n        /* \"contracts/nft.sol\":3017:3030  string memory */\n      0x60\n        /* \"contracts/nft.sol\":3043:3066  _requireMinted(tokenId) */\n      tag_166\n        /* \"contracts/nft.sol\":3058:3065  tokenId */\n      dup3\n        /* \"contracts/nft.sol\":3043:3057  _requireMinted */\n      tag_105\n        /* \"contracts/nft.sol\":3043:3066  _requireMinted(tokenId) */\n      jump\t// in\n    tag_166:\n        /* \"contracts/nft.sol\":3079:3100  string memory baseURI */\n      0x00\n        /* \"contracts/nft.sol\":3103:3113  _baseURI() */\n      tag_167\n        /* \"contracts/nft.sol\":3103:3111  _baseURI */\n      tag_168\n        /* \"contracts/nft.sol\":3103:3113  _baseURI() */\n      jump\t// in\n    tag_167:\n        /* \"contracts/nft.sol\":3079:3113  string memory baseURI = _baseURI() */\n      swap1\n      pop\n        /* \"contracts/nft.sol\":3155:3156  0 */\n      0x00\n        /* \"contracts/nft.sol\":3137:3144  baseURI */\n      dup2\n        /* \"contracts/nft.sol\":3131:3152  bytes(baseURI).length */\n      mload\n        /* \"contracts/nft.sol\":3131:3156  bytes(baseURI).length > 0 */\n      gt\n        /* \"contracts/nft.sol\":3131:3217  bytes(baseURI).length > 0 ? string(abi.encodePacked(baseURI, tokenId.toString())) : \"\" */\n      tag_169\n      jumpi\n      mload(0x40)\n      dup1\n      0x20\n      add\n      0x40\n      mstore\n      dup1\n      0x00\n      dup2\n      mstore\n      pop\n      jump(tag_170)\n    tag_169:\n        /* \"contracts/nft.sol\":3183:3190  baseURI */\n      dup1\n        /* \"contracts/nft.sol\":3192:3210  tokenId.toString() */\n      tag_171\n        /* \"contracts/nft.sol\":3192:3199  tokenId */\n      dup5\n        /* \"contracts/nft.sol\":3192:3208  tokenId.toString */\n      tag_172\n        /* \"contracts/nft.sol\":3192:3210  tokenId.toString() */\n      jump\t// in\n    tag_171:\n        /* \"contracts/nft.sol\":3166:3211  abi.encodePacked(baseURI, tokenId.toString()) */\n      add(0x20, mload(0x40))\n      tag_173\n      swap3\n      swap2\n      swap1\n      tag_174\n      jump\t// in\n    tag_173:\n      mload(0x40)\n      0x20\n      dup2\n      dup4\n      sub\n      sub\n      dup2\n      mstore\n      swap1\n      0x40\n      mstore\n        /* \"contracts/nft.sol\":3131:3217  bytes(baseURI).length > 0 ? string(abi.encodePacked(baseURI, tokenId.toString())) : \"\" */\n    tag_170:\n        /* \"contracts/nft.sol\":3124:3217  return bytes(baseURI).length > 0 ? string(abi.encodePacked(baseURI, tokenId.toString())) : \"\" */\n      swap2\n      pop\n      pop\n        /* \"contracts/nft.sol\":2944:3225  function tokenURI(uint256 tokenId) public view virtual override returns (string memory) {\r... */\n      swap2\n      swap1\n      pop\n      jump\t// out\n        /* \"contracts/nft.sol\":4107:4271  function isApprovedForAll(address owner, address operator) public view virtual override returns (bool) {\r... */\n    tag_85:\n        /* \"contracts/nft.sol\":4204:4208  bool */\n      0x00\n        /* \"contracts/nft.sol\":4228:4246  _operatorApprovals */\n      0x07\n        /* \"contracts/nft.sol\":4228:4253  _operatorApprovals[owner] */\n      0x00\n        /* \"contracts/nft.sol\":4247:4252  owner */\n      dup5\n        /* \"contracts/nft.sol\":4228:4253  _operatorApprovals[owner] */\n      0xffffffffffffffffffffffffffffffffffffffff\n      and\n      0xffffffffffffffffffffffffffffffffffffffff\n      and\n      dup2\n      mstore\n      0x20\n      add\n      swap1\n      dup2\n      mstore\n      0x20\n      add\n      0x00\n      keccak256\n        /* \"contracts/nft.sol\":4228:4263  _operatorApprovals[owner][operator] */\n      0x00\n        /* \"contracts/nft.sol\":4254:4262  operator */\n      dup4\n        /* \"contracts/nft.sol\":4228:4263  _operatorApprovals[owner][operator] */\n      0xffffffffffffffffffffffffffffffffffffffff\n      and\n      0xffffffffffffffffffffffffffffffffffffffff\n      and\n      dup2\n      mstore\n      0x20\n      add\n      swap1\n      dup2\n      mstore\n      0x20\n      add\n      0x00\n      keccak256\n      0x00\n      swap1\n      sload\n      swap1\n      0x0100\n      exp\n      swap1\n      div\n      0xff\n      and\n        /* \"contracts/nft.sol\":4221:4263  return _operatorApprovals[owner][operator] */\n      swap1\n      pop\n        /* \"contracts/nft.sol\":4107:4271  function isApprovedForAll(address owner, address operator) public view virtual override returns (bool) {\r... */\n      swap3\n      swap2\n      pop\n      pop\n      jump\t// out\n        /* \"contracts/nft.sol\":2501:2715  function collaboratotPercentageOf(uint256 tokenId) public view virtual returns (uint256) {\r... */\n    tag_89:\n        /* \"contracts/nft.sol\":2581:2588  uint256 */\n      0x00\n        /* \"contracts/nft.sol\":2601:2631  uint256 collaboratorPercentage */\n      dup1\n        /* \"contracts/nft.sol\":2634:2658  _collaboratorsPercentage */\n      0x04\n        /* \"contracts/nft.sol\":2634:2667  _collaboratorsPercentage[tokenId] */\n      0x00\n        /* \"contracts/nft.sol\":2659:2666  tokenId */\n      dup5\n        /* \"contracts/nft.sol\":2634:2667  _collaboratorsPercentage[tokenId] */\n      dup2\n      mstore\n      0x20\n      add\n      swap1\n      dup2\n      mstore\n      0x20\n      add\n      0x00\n      keccak256\n      sload\n        /* \"contracts/nft.sol\":2601:2667  uint256 collaboratorPercentage = _collaboratorsPercentage[tokenId] */\n      swap1\n      pop\n        /* \"contracts/nft.sol\":2685:2707  collaboratorPercentage */\n      dup1\n        /* \"contracts/nft.sol\":2678:2707  return collaboratorPercentage */\n      swap2\n      pop\n      pop\n        /* \"contracts/nft.sol\":2501:2715  function collaboratotPercentageOf(uint256 tokenId) public view virtual returns (uint256) {\r... */\n      swap2\n      swap1\n      pop\n      jump\t// out\n        /* \"@openzeppelin/contracts@4.6.0/utils/introspection/ERC165.sol\":829:984  function supportsInterface(bytes4 interfaceId) public view virtual override returns (bool) {... */\n    tag_95:\n        /* \"@openzeppelin/contracts@4.6.0/utils/introspection/ERC165.sol\":914:918  bool */\n      0x00\n        /* \"@openzeppelin/contracts@4.6.0/utils/introspection/ERC165.sol\":952:977  type(IERC165).interfaceId */\n      0x01ffc9a700000000000000000000000000000000000000000000000000000000\n        /* \"@openzeppelin/contracts@4.6.0/utils/introspection/ERC165.sol\":937:977  interfaceId == type(IERC165).interfaceId */\n      not(0xffffffffffffffffffffffffffffffffffffffffffffffffffffffff)\n      and\n        /* \"@openzeppelin/contracts@4.6.0/utils/introspection/ERC165.sol\":937:948  interfaceId */\n      dup3\n        /* \"@openzeppelin/contracts@4.6.0/utils/introspection/ERC165.sol\":937:977  interfaceId == type(IERC165).interfaceId */\n      not(0xffffffffffffffffffffffffffffffffffffffffffffffffffffffff)\n      and\n      eq\n        /* \"@openzeppelin/contracts@4.6.0/utils/introspection/ERC165.sol\":930:977  return interfaceId == type(IERC165).interfaceId */\n      swap1\n      pop\n        /* \"@openzeppelin/contracts@4.6.0/utils/introspection/ERC165.sol\":829:984  function supportsInterface(bytes4 interfaceId) public view virtual override returns (bool) {... */\n      swap2\n      swap1\n      pop\n      jump\t// out\n        /* \"contracts/nft.sol\":9604:9739  function _requireMinted(uint256 tokenId) internal view virtual {\r... */\n    tag_105:\n        /* \"contracts/nft.sol\":9686:9702  _exists(tokenId) */\n      tag_179\n        /* \"contracts/nft.sol\":9694:9701  tokenId */\n      dup2\n        /* \"contracts/nft.sol\":9686:9693  _exists */\n      tag_180\n        /* \"contracts/nft.sol\":9686:9702  _exists(tokenId) */\n      jump\t// in\n    tag_179:\n        /* \"contracts/nft.sol\":9678:9731  require(_exists(tokenId), \"ERC721: invalid token ID\") */\n      tag_181\n      jumpi\n      mload(0x40)\n      0x08c379a000000000000000000000000000000000000000000000000000000000\n      dup2\n      mstore\n      0x04\n      add\n      tag_182\n      swap1\n      tag_135\n      jump\t// in\n    tag_182:\n      mload(0x40)\n      dup1\n      swap2\n      sub\n      swap1\n      revert\n    tag_181:\n        /* \"contracts/nft.sol\":9604:9739  function _requireMinted(uint256 tokenId) internal view virtual {\r... */\n      pop\n      jump\t// out\n        /* \"@openzeppelin/contracts@4.6.0/utils/Context.sol\":640:736  function _msgSender() internal view virtual returns (address) {... */\n    tag_112:\n        /* \"@openzeppelin/contracts@4.6.0/utils/Context.sol\":693:700  address */\n      0x00\n        /* \"@openzeppelin/contracts@4.6.0/utils/Context.sol\":719:729  msg.sender */\n      caller\n        /* \"@openzeppelin/contracts@4.6.0/utils/Context.sol\":712:729  return msg.sender */\n      swap1\n      pop\n        /* \"@openzeppelin/contracts@4.6.0/utils/Context.sol\":640:736  function _msgSender() internal view virtual returns (address) {... */\n      swap1\n      jump\t// out\n        /* \"contracts/nft.sol\":9102:9273  function _approve(address to, uint256 tokenId) internal virtual {\r... */\n    tag_120:\n        /* \"contracts/nft.sol\":9204:9206  to */\n      dup2\n        /* \"contracts/nft.sol\":9177:9192  _tokenApprovals */\n      0x06\n        /* \"contracts/nft.sol\":9177:9201  _tokenApprovals[tokenId] */\n      0x00\n        /* \"contracts/nft.sol\":9193:9200  tokenId */\n      dup4\n        /* \"contracts/nft.sol\":9177:9201  _tokenApprovals[tokenId] */\n      dup2\n      mstore\n      0x20\n      add\n      swap1\n      dup2\n      mstore\n      0x20\n      add\n      0x00\n      keccak256\n      0x00\n        /* \"contracts/nft.sol\":9177:9206  _tokenApprovals[tokenId] = to */\n      0x0100\n      exp\n      dup2\n      sload\n      dup2\n      0xffffffffffffffffffffffffffffffffffffffff\n      mul\n      not\n      and\n      swap1\n      dup4\n      0xffffffffffffffffffffffffffffffffffffffff\n      and\n      mul\n      or\n      swap1\n      sstore\n      pop\n        /* \"contracts/nft.sol\":9257:9264  tokenId */\n      dup1\n        /* \"contracts/nft.sol\":9253:9255  to */\n      dup3\n        /* \"contracts/nft.sol\":9222:9265  Approval(nft.ownerOf(tokenId), to, tokenId) */\n      0xffffffffffffffffffffffffffffffffffffffff\n      and\n        /* \"contracts/nft.sol\":9231:9251  nft.ownerOf(tokenId) */\n      tag_185\n        /* \"contracts/nft.sol\":9243:9250  tokenId */\n      dup4\n        /* \"contracts/nft.sol\":9231:9242  nft.ownerOf */\n      tag_55\n        /* \"contracts/nft.sol\":9231:9251  nft.ownerOf(tokenId) */\n      jump\t// in\n    tag_185:\n        /* \"contracts/nft.sol\":9222:9265  Approval(nft.ownerOf(tokenId), to, tokenId) */\n      0xffffffffffffffffffffffffffffffffffffffff\n      and\n      0x8c5be1e5ebec7d5bd14f71427d1e84f3dd0314c0f7b2291e5b200ac8c7c3b925\n      mload(0x40)\n      mload(0x40)\n      dup1\n      swap2\n      sub\n      swap1\n      log4\n        /* \"contracts/nft.sol\":9102:9273  function _approve(address to, uint256 tokenId) internal virtual {\r... */\n      pop\n      pop\n      jump\t// out\n        /* \"contracts/nft.sol\":5823:6084  function _isApprovedOrOwner(address spender, uint256 tokenId) internal view virtual returns (bool) {\r... */\n    tag_124:\n        /* \"contracts/nft.sol\":5916:5920  bool */\n      0x00\n        /* \"contracts/nft.sol\":5933:5946  address owner */\n      dup1\n        /* \"contracts/nft.sol\":5949:5969  nft.ownerOf(tokenId) */\n      tag_187\n        /* \"contracts/nft.sol\":5961:5968  tokenId */\n      dup4\n        /* \"contracts/nft.sol\":5949:5960  nft.ownerOf */\n      tag_55\n        /* \"contracts/nft.sol\":5949:5969  nft.ownerOf(tokenId) */\n      jump\t// in\n    tag_187:\n        /* \"contracts/nft.sol\":5933:5969  address owner = nft.ownerOf(tokenId) */\n      swap1\n      pop\n        /* \"contracts/nft.sol\":5999:6004  owner */\n      dup1\n        /* \"contracts/nft.sol\":5988:6004  spender == owner */\n      0xffffffffffffffffffffffffffffffffffffffff\n      and\n        /* \"contracts/nft.sol\":5988:5995  spender */\n      dup5\n        /* \"contracts/nft.sol\":5988:6004  spender == owner */\n      0xffffffffffffffffffffffffffffffffffffffff\n      and\n      eq\n        /* \"contracts/nft.sol\":5988:6040  spender == owner || isApprovedForAll(owner, spender) */\n      dup1\n      tag_188\n      jumpi\n      pop\n        /* \"contracts/nft.sol\":6008:6040  isApprovedForAll(owner, spender) */\n      tag_189\n        /* \"contracts/nft.sol\":6025:6030  owner */\n      dup2\n        /* \"contracts/nft.sol\":6032:6039  spender */\n      dup6\n        /* \"contracts/nft.sol\":6008:6024  isApprovedForAll */\n      tag_85\n        /* \"contracts/nft.sol\":6008:6040  isApprovedForAll(owner, spender) */\n      jump\t// in\n    tag_189:\n        /* \"contracts/nft.sol\":5988:6040  spender == owner || isApprovedForAll(owner, spender) */\n    tag_188:\n        /* \"contracts/nft.sol\":5988:6075  spender == owner || isApprovedForAll(owner, spender) || getApproved(tokenId) == spender */\n      dup1\n      tag_190\n      jumpi\n      pop\n        /* \"contracts/nft.sol\":6068:6075  spender */\n      dup4\n        /* \"contracts/nft.sol\":6044:6075  getApproved(tokenId) == spender */\n      0xffffffffffffffffffffffffffffffffffffffff\n      and\n        /* \"contracts/nft.sol\":6044:6064  getApproved(tokenId) */\n      tag_191\n        /* \"contracts/nft.sol\":6056:6063  tokenId */\n      dup5\n        /* \"contracts/nft.sol\":6044:6055  getApproved */\n      tag_35\n        /* \"contracts/nft.sol\":6044:6064  getApproved(tokenId) */\n      jump\t// in\n    tag_191:\n        /* \"contracts/nft.sol\":6044:6075  getApproved(tokenId) == spender */\n      0xffffffffffffffffffffffffffffffffffffffff\n      and\n      eq\n        /* \"contracts/nft.sol\":5988:6075  spender == owner || isApprovedForAll(owner, spender) || getApproved(tokenId) == spender */\n    tag_190:\n        /* \"contracts/nft.sol\":5980:6076  return (spender == owner || isApprovedForAll(owner, spender) || getApproved(tokenId) == spender) */\n      swap2\n      pop\n      pop\n        /* \"contracts/nft.sol\":5823:6084  function _isApprovedOrOwner(address spender, uint256 tokenId) internal view virtual returns (bool) {\r... */\n      swap3\n      swap2\n      pop\n      pop\n      jump\t// out\n        /* \"contracts/nft.sol\":8335:9092  function _transfer(\r... */\n    tag_129:\n        /* \"contracts/nft.sol\":8491:8495  from */\n      dup3\n        /* \"contracts/nft.sol\":8467:8495  nft.ownerOf(tokenId) == from */\n      0xffffffffffffffffffffffffffffffffffffffff\n      and\n        /* \"contracts/nft.sol\":8467:8487  nft.ownerOf(tokenId) */\n      tag_193\n        /* \"contracts/nft.sol\":8479:8486  tokenId */\n      dup3\n        /* \"contracts/nft.sol\":8467:8478  nft.ownerOf */\n      tag_55\n        /* \"contracts/nft.sol\":8467:8487  nft.ownerOf(tokenId) */\n      jump\t// in\n    tag_193:\n        /* \"contracts/nft.sol\":8467:8495  nft.ownerOf(tokenId) == from */\n      0xffffffffffffffffffffffffffffffffffffffff\n      and\n      eq\n        /* \"contracts/nft.sol\":8459:8537  require(nft.ownerOf(tokenId) == from, \"ERC721: transfer from incorrect owner\") */\n      tag_194\n      jumpi\n      mload(0x40)\n      0x08c379a000000000000000000000000000000000000000000000000000000000\n      dup2\n      mstore\n      0x04\n      add\n      tag_195\n      swap1\n      tag_196\n      jump\t// in\n    tag_195:\n      mload(0x40)\n      dup1\n      swap2\n      sub\n      swap1\n      revert\n    tag_194:\n        /* \"contracts/nft.sol\":8570:8571  0 */\n      0x00\n        /* \"contracts/nft.sol\":8556:8572  to != address(0) */\n      0xffffffffffffffffffffffffffffffffffffffff\n      and\n        /* \"contracts/nft.sol\":8556:8558  to */\n      dup3\n        /* \"contracts/nft.sol\":8556:8572  to != address(0) */\n      0xffffffffffffffffffffffffffffffffffffffff\n      and\n      eq\n      iszero\n        /* \"contracts/nft.sol\":8548:8613  require(to != address(0), \"ERC721: transfer to the zero address\") */\n      tag_197\n      jumpi\n      mload(0x40)\n      0x08c379a000000000000000000000000000000000000000000000000000000000\n      dup2\n      mstore\n      0x04\n      add\n      tag_198\n      swap1\n      tag_199\n      jump\t// in\n    tag_198:\n      mload(0x40)\n      dup1\n      swap2\n      sub\n      swap1\n      revert\n    tag_197:\n        /* \"contracts/nft.sol\":8626:8665  _beforeTokenTransfer(from, to, tokenId) */\n      tag_200\n        /* \"contracts/nft.sol\":8647:8651  from */\n      dup4\n        /* \"contracts/nft.sol\":8653:8655  to */\n      dup4\n        /* \"contracts/nft.sol\":8657:8664  tokenId */\n      dup4\n        /* \"contracts/nft.sol\":8626:8646  _beforeTokenTransfer */\n      tag_201\n        /* \"contracts/nft.sol\":8626:8665  _beforeTokenTransfer(from, to, tokenId) */\n      jump\t// in\n    tag_200:\n        /* \"contracts/nft.sol\":8710:8714  from */\n      dup3\n        /* \"contracts/nft.sol\":8686:8714  nft.ownerOf(tokenId) == from */\n      0xffffffffffffffffffffffffffffffffffffffff\n      and\n        /* \"contracts/nft.sol\":8686:8706  nft.ownerOf(tokenId) */\n      tag_202\n        /* \"contracts/nft.sol\":8698:8705  tokenId */\n      dup3\n        /* \"contracts/nft.sol\":8686:8697  nft.ownerOf */\n      tag_55\n        /* \"contracts/nft.sol\":8686:8706  nft.ownerOf(tokenId) */\n      jump\t// in\n    tag_202:\n        /* \"contracts/nft.sol\":8686:8714  nft.ownerOf(tokenId) == from */\n      0xffffffffffffffffffffffffffffffffffffffff\n      and\n      eq\n        /* \"contracts/nft.sol\":8678:8756  require(nft.ownerOf(tokenId) == from, \"ERC721: transfer from incorrect owner\") */\n      tag_203\n      jumpi\n      mload(0x40)\n      0x08c379a000000000000000000000000000000000000000000000000000000000\n      dup2\n      mstore\n      0x04\n      add\n      tag_204\n      swap1\n      tag_196\n      jump\t// in\n    tag_204:\n      mload(0x40)\n      dup1\n      swap2\n      sub\n      swap1\n      revert\n    tag_203:\n        /* \"contracts/nft.sol\":8828:8843  _tokenApprovals */\n      0x06\n        /* \"contracts/nft.sol\":8828:8852  _tokenApprovals[tokenId] */\n      0x00\n        /* \"contracts/nft.sol\":8844:8851  tokenId */\n      dup3\n        /* \"contracts/nft.sol\":8828:8852  _tokenApprovals[tokenId] */\n      dup2\n      mstore\n      0x20\n      add\n      swap1\n      dup2\n      mstore\n      0x20\n      add\n      0x00\n      keccak256\n      0x00\n        /* \"contracts/nft.sol\":8821:8852  delete _tokenApprovals[tokenId] */\n      0x0100\n      exp\n      dup2\n      sload\n      swap1\n      0xffffffffffffffffffffffffffffffffffffffff\n      mul\n      not\n      and\n      swap1\n      sstore\n        /* \"contracts/nft.sol\":8911:8912  1 */\n      0x01\n        /* \"contracts/nft.sol\":8892:8901  _balances */\n      0x05\n        /* \"contracts/nft.sol\":8892:8907  _balances[from] */\n      0x00\n        /* \"contracts/nft.sol\":8902:8906  from */\n      dup6\n        /* \"contracts/nft.sol\":8892:8907  _balances[from] */\n      0xffffffffffffffffffffffffffffffffffffffff\n      and\n      0xffffffffffffffffffffffffffffffffffffffff\n      and\n      dup2\n      mstore\n      0x20\n      add\n      swap1\n      dup2\n      mstore\n      0x20\n      add\n      0x00\n      keccak256\n      0x00\n        /* \"contracts/nft.sol\":8892:8912  _balances[from] -= 1 */\n      dup3\n      dup3\n      sload\n      sub\n      swap3\n      pop\n      pop\n      dup2\n      swap1\n      sstore\n      pop\n        /* \"contracts/nft.sol\":8944:8945  1 */\n      0x01\n        /* \"contracts/nft.sol\":8927:8936  _balances */\n      0x05\n        /* \"contracts/nft.sol\":8927:8940  _balances[to] */\n      0x00\n        /* \"contracts/nft.sol\":8937:8939  to */\n      dup5\n        /* \"contracts/nft.sol\":8927:8940  _balances[to] */\n      0xffffffffffffffffffffffffffffffffffffffff\n      and\n      0xffffffffffffffffffffffffffffffffffffffff\n      and\n      dup2\n      mstore\n      0x20\n      add\n      swap1\n      dup2\n      mstore\n      0x20\n      add\n      0x00\n      keccak256\n      0x00\n        /* \"contracts/nft.sol\":8927:8945  _balances[to] += 1 */\n      dup3\n      dup3\n      sload\n      add\n      swap3\n      pop\n      pop\n      dup2\n      swap1\n      sstore\n      pop\n        /* \"contracts/nft.sol\":8986:8988  to */\n      dup2\n        /* \"contracts/nft.sol\":8967:8974  _owners */\n      0x02\n        /* \"contracts/nft.sol\":8967:8983  _owners[tokenId] */\n      0x00\n        /* \"contracts/nft.sol\":8975:8982  tokenId */\n      dup4\n        /* \"contracts/nft.sol\":8967:8983  _owners[tokenId] */\n      dup2\n      mstore\n      0x20\n      add\n      swap1\n      dup2\n      mstore\n      0x20\n      add\n      0x00\n      keccak256\n      0x00\n        /* \"contracts/nft.sol\":8967:8988  _owners[tokenId] = to */\n      0x0100\n      exp\n      dup2\n      sload\n      dup2\n      0xffffffffffffffffffffffffffffffffffffffff\n      mul\n      not\n      and\n      swap1\n      dup4\n      0xffffffffffffffffffffffffffffffffffffffff\n      and\n      mul\n      or\n      swap1\n      sstore\n      pop\n        /* \"contracts/nft.sol\":9025:9032  tokenId */\n      dup1\n        /* \"contracts/nft.sol\":9021:9023  to */\n      dup3\n        /* \"contracts/nft.sol\":9006:9033  Transfer(from, to, tokenId) */\n      0xffffffffffffffffffffffffffffffffffffffff\n      and\n        /* \"contracts/nft.sol\":9015:9019  from */\n      dup5\n        /* \"contracts/nft.sol\":9006:9033  Transfer(from, to, tokenId) */\n      0xffffffffffffffffffffffffffffffffffffffff\n      and\n      0xddf252ad1be2c89b69c2b068fc378daa952ba7f163c4a11628f55a4df523b3ef\n      mload(0x40)\n      mload(0x40)\n      dup1\n      swap2\n      sub\n      swap1\n      log4\n        /* \"contracts/nft.sol\":9046:9084  _afterTokenTransfer(from, to, tokenId) */\n      tag_205\n        /* \"contracts/nft.sol\":9066:9070  from */\n      dup4\n        /* \"contracts/nft.sol\":9072:9074  to */\n      dup4\n        /* \"contracts/nft.sol\":9076:9083  tokenId */\n      dup4\n        /* \"contracts/nft.sol\":9046:9065  _afterTokenTransfer */\n      tag_206\n        /* \"contracts/nft.sol\":9046:9084  _afterTokenTransfer(from, to, tokenId) */\n      jump\t// in\n    tag_205:\n        /* \"contracts/nft.sol\":8335:9092  function _transfer(\r... */\n      pop\n      pop\n      pop\n      jump\t// out\n        /* \"contracts/nft.sol\":6092:6317  function _safeMint(address to,uint256 ownerPercent,address collaborator,uint256 collaboratorPercent,uint256 tokenId) internal virtual {\r... */\n    tag_151:\n        /* \"contracts/nft.sol\":6237:6309  _safeMint(to,ownerPercent, collaborator,collaboratorPercent,tokenId, \"\") */\n      tag_208\n        /* \"contracts/nft.sol\":6247:6249  to */\n      dup6\n        /* \"contracts/nft.sol\":6250:6262  ownerPercent */\n      dup6\n        /* \"contracts/nft.sol\":6264:6276  collaborator */\n      dup6\n        /* \"contracts/nft.sol\":6277:6296  collaboratorPercent */\n      dup6\n        /* \"contracts/nft.sol\":6297:6304  tokenId */\n      dup6\n        /* \"contracts/nft.sol\":6237:6309  _safeMint(to,ownerPercent, collaborator,collaboratorPercent,tokenId, \"\") */\n      mload(0x40)\n      dup1\n      0x20\n      add\n      0x40\n      mstore\n      dup1\n      0x00\n      dup2\n      mstore\n      pop\n        /* \"contracts/nft.sol\":6237:6246  _safeMint */\n      tag_209\n        /* \"contracts/nft.sol\":6237:6309  _safeMint(to,ownerPercent, collaborator,collaboratorPercent,tokenId, \"\") */\n      jump\t// in\n    tag_208:\n        /* \"contracts/nft.sol\":6092:6317  function _safeMint(address to,uint256 ownerPercent,address collaborator,uint256 collaboratorPercent,uint256 tokenId) internal virtual {\r... */\n      pop\n      pop\n      pop\n      pop\n      pop\n      jump\t// out\n        /* \"contracts/nft.sol\":8105:8325  function _setTokenURI(uint256 tokenId, string memory _tokenURI) internal virtual {\r... */\n    tag_153:\n        /* \"contracts/nft.sol\":8308:8317  _tokenURI */\n      dup1\n        /* \"contracts/nft.sol\":8286:8296  _tokenURIs */\n      0x08\n        /* \"contracts/nft.sol\":8286:8305  _tokenURIs[tokenId] */\n      0x00\n        /* \"contracts/nft.sol\":8297:8304  tokenId */\n      dup5\n        /* \"contracts/nft.sol\":8286:8305  _tokenURIs[tokenId] */\n      dup2\n      mstore\n      0x20\n      add\n      swap1\n      dup2\n      mstore\n      0x20\n      add\n      0x00\n      keccak256\n        /* \"contracts/nft.sol\":8286:8317  _tokenURIs[tokenId] = _tokenURI */\n      swap1\n      dup1\n      mload\n      swap1\n      0x20\n      add\n      swap1\n      tag_211\n      swap3\n      swap2\n      swap1\n      tag_212\n      jump\t// in\n    tag_211:\n      pop\n        /* \"contracts/nft.sol\":8105:8325  function _setTokenURI(uint256 tokenId, string memory _tokenURI) internal virtual {\r... */\n      pop\n      pop\n      jump\t// out\n        /* \"contracts/nft.sol\":9281:9596  function _setApprovalForAll(\r... */\n    tag_157:\n        /* \"contracts/nft.sol\":9436:9444  operator */\n      dup2\n        /* \"contracts/nft.sol\":9427:9444  owner != operator */\n      0xffffffffffffffffffffffffffffffffffffffff\n      and\n        /* \"contracts/nft.sol\":9427:9432  owner */\n      dup4\n        /* \"contracts/nft.sol\":9427:9444  owner != operator */\n      0xffffffffffffffffffffffffffffffffffffffff\n      and\n      eq\n      iszero\n        /* \"contracts/nft.sol\":9419:9474  require(owner != operator, \"ERC721: approve to caller\") */\n      tag_214\n      jumpi\n      mload(0x40)\n      0x08c379a000000000000000000000000000000000000000000000000000000000\n      dup2\n      mstore\n      0x04\n      add\n      tag_215\n      swap1\n      tag_216\n      jump\t// in\n    tag_215:\n      mload(0x40)\n      dup1\n      swap2\n      sub\n      swap1\n      revert\n    tag_214:\n        /* \"contracts/nft.sol\":9523:9531  approved */\n      dup1\n        /* \"contracts/nft.sol\":9485:9503  _operatorApprovals */\n      0x07\n        /* \"contracts/nft.sol\":9485:9510  _operatorApprovals[owner] */\n      0x00\n        /* \"contracts/nft.sol\":9504:9509  owner */\n      dup6\n        /* \"contracts/nft.sol\":9485:9510  _operatorApprovals[owner] */\n      0xffffffffffffffffffffffffffffffffffffffff\n      and\n      0xffffffffffffffffffffffffffffffffffffffff\n      and\n      dup2\n      mstore\n      0x20\n      add\n      swap1\n      dup2\n      mstore\n      0x20\n      add\n      0x00\n      keccak256\n        /* \"contracts/nft.sol\":9485:9520  _operatorApprovals[owner][operator] */\n      0x00\n        /* \"contracts/nft.sol\":9511:9519  operator */\n      dup5\n        /* \"contracts/nft.sol\":9485:9520  _operatorApprovals[owner][operator] */\n      0xffffffffffffffffffffffffffffffffffffffff\n      and\n      0xffffffffffffffffffffffffffffffffffffffff\n      and\n      dup2\n      mstore\n      0x20\n      add\n      swap1\n      dup2\n      mstore\n      0x20\n      add\n      0x00\n      keccak256\n      0x00\n        /* \"contracts/nft.sol\":9485:9531  _operatorApprovals[owner][operator] = approved */\n      0x0100\n      exp\n      dup2\n      sload\n      dup2\n      0xff\n      mul\n      not\n      and\n      swap1\n      dup4\n      iszero\n      iszero\n      mul\n      or\n      swap1\n      sstore\n      pop\n        /* \"contracts/nft.sol\":9569:9577  operator */\n      dup2\n        /* \"contracts/nft.sol\":9547:9588  ApprovalForAll(owner, operator, approved) */\n      0xffffffffffffffffffffffffffffffffffffffff\n      and\n        /* \"contracts/nft.sol\":9562:9567  owner */\n      dup4\n        /* \"contracts/nft.sol\":9547:9588  ApprovalForAll(owner, operator, approved) */\n      0xffffffffffffffffffffffffffffffffffffffff\n      and\n      0x17307eab39ab6107e8899845ad3d59bd9653f200f220920489ca2b5937696c31\n        /* \"contracts/nft.sol\":9579:9587  approved */\n      dup4\n        /* \"contracts/nft.sol\":9547:9588  ApprovalForAll(owner, operator, approved) */\n      mload(0x40)\n      tag_217\n      swap2\n      swap1\n      tag_27\n      jump\t// in\n    tag_217:\n      mload(0x40)\n      dup1\n      swap2\n      sub\n      swap1\n      log3\n        /* \"contracts/nft.sol\":9281:9596  function _setApprovalForAll(\r... */\n      pop\n      pop\n      pop\n      jump\t// out\n        /* \"contracts/nft.sol\":5365:5678  function _safeTransfer(\r... */\n    tag_164:\n        /* \"contracts/nft.sol\":5521:5549  _transfer(from, to, tokenId) */\n      tag_219\n        /* \"contracts/nft.sol\":5531:5535  from */\n      dup5\n        /* \"contracts/nft.sol\":5537:5539  to */\n      dup5\n        /* \"contracts/nft.sol\":5541:5548  tokenId */\n      dup5\n        /* \"contracts/nft.sol\":5521:5530  _transfer */\n      tag_129\n        /* \"contracts/nft.sol\":5521:5549  _transfer(from, to, tokenId) */\n      jump\t// in\n    tag_219:\n        /* \"contracts/nft.sol\":5568:5615  _checkOnERC721Received(from, to, tokenId, data) */\n      tag_220\n        /* \"contracts/nft.sol\":5591:5595  from */\n      dup5\n        /* \"contracts/nft.sol\":5597:5599  to */\n      dup5\n        /* \"contracts/nft.sol\":5601:5608  tokenId */\n      dup5\n        /* \"contracts/nft.sol\":5610:5614  data */\n      dup5\n        /* \"contracts/nft.sol\":5568:5590  _checkOnERC721Received */\n      tag_221\n        /* \"contracts/nft.sol\":5568:5615  _checkOnERC721Received(from, to, tokenId, data) */\n      jump\t// in\n    tag_220:\n        /* \"contracts/nft.sol\":5560:5670  require(_checkOnERC721Received(from, to, tokenId, data), \"ERC721: transfer to non ERC721Receiver implementer\") */\n      tag_222\n      jumpi\n      mload(0x40)\n      0x08c379a000000000000000000000000000000000000000000000000000000000\n      dup2\n      mstore\n      0x04\n      add\n      tag_223\n      swap1\n      tag_224\n      jump\t// in\n    tag_223:\n      mload(0x40)\n      dup1\n      swap2\n      sub\n      swap1\n      revert\n    tag_222:\n        /* \"contracts/nft.sol\":5365:5678  function _safeTransfer(\r... */\n      pop\n      pop\n      pop\n      pop\n      jump\t// out\n        /* \"contracts/nft.sol\":3233:3327  function _baseURI() internal view virtual returns (string memory) {\r... */\n    tag_168:\n        /* \"contracts/nft.sol\":3284:3297  string memory */\n      0x60\n        /* \"contracts/nft.sol\":3310:3319  return \"\" */\n      mload(0x40)\n      dup1\n      0x20\n      add\n      0x40\n      mstore\n      dup1\n      0x00\n      dup2\n      mstore\n      pop\n      swap1\n      pop\n        /* \"contracts/nft.sol\":3233:3327  function _baseURI() internal view virtual returns (string memory) {\r... */\n      swap1\n      jump\t// out\n        /* \"@openzeppelin/contracts@4.6.0/utils/Strings.sol\":328:1031  function toString(uint256 value) internal pure returns (string memory) {... */\n    tag_172:\n        /* \"@openzeppelin/contracts@4.6.0/utils/Strings.sol\":384:397  string memory */\n      0x60\n        /* \"@openzeppelin/contracts@4.6.0/utils/Strings.sol\":610:611  0 */\n      0x00\n        /* \"@openzeppelin/contracts@4.6.0/utils/Strings.sol\":601:606  value */\n      dup3\n        /* \"@openzeppelin/contracts@4.6.0/utils/Strings.sol\":601:611  value == 0 */\n      eq\n        /* \"@openzeppelin/contracts@4.6.0/utils/Strings.sol\":597:648  if (value == 0) {... */\n      iszero\n      tag_227\n      jumpi\n        /* \"@openzeppelin/contracts@4.6.0/utils/Strings.sol\":627:637  return \"0\" */\n      mload(0x40)\n      dup1\n      0x40\n      add\n      0x40\n      mstore\n      dup1\n      0x01\n      dup2\n      mstore\n      0x20\n      add\n      0x3000000000000000000000000000000000000000000000000000000000000000\n      dup2\n      mstore\n      pop\n      swap1\n      pop\n      jump(tag_226)\n        /* \"@openzeppelin/contracts@4.6.0/utils/Strings.sol\":597:648  if (value == 0) {... */\n    tag_227:\n        /* \"@openzeppelin/contracts@4.6.0/utils/Strings.sol\":657:669  uint256 temp */\n      0x00\n        /* \"@openzeppelin/contracts@4.6.0/utils/Strings.sol\":672:677  value */\n      dup3\n        /* \"@openzeppelin/contracts@4.6.0/utils/Strings.sol\":657:677  uint256 temp = value */\n      swap1\n      pop\n        /* \"@openzeppelin/contracts@4.6.0/utils/Strings.sol\":687:701  uint256 digits */\n      0x00\n        /* \"@openzeppelin/contracts@4.6.0/utils/Strings.sol\":711:786  while (temp != 0) {... */\n    tag_228:\n        /* \"@openzeppelin/contracts@4.6.0/utils/Strings.sol\":726:727  0 */\n      0x00\n        /* \"@openzeppelin/contracts@4.6.0/utils/Strings.sol\":718:722  temp */\n      dup3\n        /* \"@openzeppelin/contracts@4.6.0/utils/Strings.sol\":718:727  temp != 0 */\n      eq\n        /* \"@openzeppelin/contracts@4.6.0/utils/Strings.sol\":711:786  while (temp != 0) {... */\n      tag_229\n      jumpi\n        /* \"@openzeppelin/contracts@4.6.0/utils/Strings.sol\":743:751  digits++ */\n      dup1\n      dup1\n      tag_230\n      swap1\n      tag_231\n      jump\t// in\n    tag_230:\n      swap2\n      pop\n      pop\n        /* \"@openzeppelin/contracts@4.6.0/utils/Strings.sol\":773:775  10 */\n      0x0a\n        /* \"@openzeppelin/contracts@4.6.0/utils/Strings.sol\":765:775  temp /= 10 */\n      dup3\n      tag_232\n      swap2\n      swap1\n      tag_233\n      jump\t// in\n    tag_232:\n      swap2\n      pop\n        /* \"@openzeppelin/contracts@4.6.0/utils/Strings.sol\":711:786  while (temp != 0) {... */\n      jump(tag_228)\n    tag_229:\n        /* \"@openzeppelin/contracts@4.6.0/utils/Strings.sol\":795:814  bytes memory buffer */\n      0x00\n        /* \"@openzeppelin/contracts@4.6.0/utils/Strings.sol\":827:833  digits */\n      dup2\n        /* \"@openzeppelin/contracts@4.6.0/utils/Strings.sol\":817:834  new bytes(digits) */\n      0xffffffffffffffff\n      dup2\n      gt\n      iszero\n      tag_234\n      jumpi\n      mstore(0x00, 0x4e487b7100000000000000000000000000000000000000000000000000000000)\n      mstore(0x04, 0x41)\n      revert(0x00, 0x24)\n    tag_234:\n      mload(0x40)\n      swap1\n      dup1\n      dup3\n      mstore\n      dup1\n      0x1f\n      add\n      not(0x1f)\n      and\n      0x20\n      add\n      dup3\n      add\n      0x40\n      mstore\n      dup1\n      iszero\n      tag_235\n      jumpi\n      dup2\n      0x20\n      add\n      0x01\n      dup3\n      mul\n      dup1\n      calldatasize\n      dup4\n      calldatacopy\n      dup1\n      dup3\n      add\n      swap2\n      pop\n      pop\n      swap1\n      pop\n    tag_235:\n      pop\n        /* \"@openzeppelin/contracts@4.6.0/utils/Strings.sol\":795:834  bytes memory buffer = new bytes(digits) */\n      swap1\n      pop\n        /* \"@openzeppelin/contracts@4.6.0/utils/Strings.sol\":844:994  while (value != 0) {... */\n    tag_236:\n        /* \"@openzeppelin/contracts@4.6.0/utils/Strings.sol\":860:861  0 */\n      0x00\n        /* \"@openzeppelin/contracts@4.6.0/utils/Strings.sol\":851:856  value */\n      dup6\n        /* \"@openzeppelin/contracts@4.6.0/utils/Strings.sol\":851:861  value != 0 */\n      eq\n        /* \"@openzeppelin/contracts@4.6.0/utils/Strings.sol\":844:994  while (value != 0) {... */\n      tag_237\n      jumpi\n        /* \"@openzeppelin/contracts@4.6.0/utils/Strings.sol\":887:888  1 */\n      0x01\n        /* \"@openzeppelin/contracts@4.6.0/utils/Strings.sol\":877:888  digits -= 1 */\n      dup3\n      tag_238\n      swap2\n      swap1\n      tag_239\n      jump\t// in\n    tag_238:\n      swap2\n      pop\n        /* \"@openzeppelin/contracts@4.6.0/utils/Strings.sol\":953:955  10 */\n      0x0a\n        /* \"@openzeppelin/contracts@4.6.0/utils/Strings.sol\":945:950  value */\n      dup6\n        /* \"@openzeppelin/contracts@4.6.0/utils/Strings.sol\":945:955  value % 10 */\n      tag_240\n      swap2\n      swap1\n      tag_241\n      jump\t// in\n    tag_240:\n        /* \"@openzeppelin/contracts@4.6.0/utils/Strings.sol\":932:934  48 */\n      0x30\n        /* \"@openzeppelin/contracts@4.6.0/utils/Strings.sol\":932:956  48 + uint256(value % 10) */\n      tag_242\n      swap2\n      swap1\n      tag_243\n      jump\t// in\n    tag_242:\n        /* \"@openzeppelin/contracts@4.6.0/utils/Strings.sol\":919:958  bytes1(uint8(48 + uint256(value % 10))) */\n      0xf8\n      shl\n        /* \"@openzeppelin/contracts@4.6.0/utils/Strings.sol\":902:908  buffer */\n      dup2\n        /* \"@openzeppelin/contracts@4.6.0/utils/Strings.sol\":909:915  digits */\n      dup4\n        /* \"@openzeppelin/contracts@4.6.0/utils/Strings.sol\":902:916  buffer[digits] */\n      dup2\n      mload\n      dup2\n      lt\n      tag_244\n      jumpi\n      mstore(0x00, 0x4e487b7100000000000000000000000000000000000000000000000000000000)\n      mstore(0x04, 0x32)\n      revert(0x00, 0x24)\n    tag_244:\n      0x20\n      add\n      add\n        /* \"@openzeppelin/contracts@4.6.0/utils/Strings.sol\":902:958  buffer[digits] = bytes1(uint8(48 + uint256(value % 10))) */\n      swap1\n      not(0xffffffffffffffffffffffffffffffffffffffffffffffffffffffffffffff)\n      and\n      swap1\n      dup2\n      0x00\n      byte\n      swap1\n      mstore8\n      pop\n        /* \"@openzeppelin/contracts@4.6.0/utils/Strings.sol\":981:983  10 */\n      0x0a\n        /* \"@openzeppelin/contracts@4.6.0/utils/Strings.sol\":972:983  value /= 10 */\n      dup6\n      tag_245\n      swap2\n      swap1\n      tag_233\n      jump\t// in\n    tag_245:\n      swap5\n      pop\n        /* \"@openzeppelin/contracts@4.6.0/utils/Strings.sol\":844:994  while (value != 0) {... */\n      jump(tag_236)\n    tag_237:\n        /* \"@openzeppelin/contracts@4.6.0/utils/Strings.sol\":1017:1023  buffer */\n      dup1\n        /* \"@openzeppelin/contracts@4.6.0/utils/Strings.sol\":1003:1024  return string(buffer) */\n      swap4\n      pop\n      pop\n      pop\n      pop\n        /* \"@openzeppelin/contracts@4.6.0/utils/Strings.sol\":328:1031  function toString(uint256 value) internal pure returns (string memory) {... */\n    tag_226:\n      swap2\n      swap1\n      pop\n      jump\t// out\n        /* \"contracts/nft.sol\":5686:5813  function _exists(uint256 tokenId) internal view virtual returns (bool) {\r... */\n    tag_180:\n        /* \"contracts/nft.sol\":5751:5755  bool */\n      0x00\n        /* \"contracts/nft.sol\":5803:5804  0 */\n      dup1\n        /* \"contracts/nft.sol\":5775:5805  _owners[tokenId] != address(0) */\n      0xffffffffffffffffffffffffffffffffffffffff\n      and\n        /* \"contracts/nft.sol\":5775:5782  _owners */\n      0x02\n        /* \"contracts/nft.sol\":5775:5791  _owners[tokenId] */\n      0x00\n        /* \"contracts/nft.sol\":5783:5790  tokenId */\n      dup5\n        /* \"contracts/nft.sol\":5775:5791  _owners[tokenId] */\n      dup2\n      mstore\n      0x20\n      add\n      swap1\n      dup2\n      mstore\n      0x20\n      add\n      0x00\n      keccak256\n      0x00\n      swap1\n      sload\n      swap1\n      0x0100\n      exp\n      swap1\n      div\n      0xffffffffffffffffffffffffffffffffffffffff\n      and\n        /* \"contracts/nft.sol\":5775:5805  _owners[tokenId] != address(0) */\n      0xffffffffffffffffffffffffffffffffffffffff\n      and\n      eq\n      iszero\n        /* \"contracts/nft.sol\":5768:5805  return _owners[tokenId] != address(0) */\n      swap1\n      pop\n        /* \"contracts/nft.sol\":5686:5813  function _exists(uint256 tokenId) internal view virtual returns (bool) {\r... */\n      swap2\n      swap1\n      pop\n      jump\t// out\n        /* \"contracts/nft.sol\":10612:10738  function _beforeTokenTransfer(\r... */\n    tag_201:\n      pop\n      pop\n      pop\n      jump\t// out\n        /* \"contracts/nft.sol\":10746:10871  function _afterTokenTransfer(\r... */\n    tag_206:\n      pop\n      pop\n      pop\n      jump\t// out\n        /* \"contracts/nft.sol\":6325:6792  function _safeMint(\r... */\n    tag_209:\n        /* \"contracts/nft.sol\":6555:6620  _mint(to,ownerPercent, collaborator,collaboratorPercent, tokenId) */\n      tag_250\n        /* \"contracts/nft.sol\":6561:6563  to */\n      dup7\n        /* \"contracts/nft.sol\":6564:6576  ownerPercent */\n      dup7\n        /* \"contracts/nft.sol\":6578:6590  collaborator */\n      dup7\n        /* \"contracts/nft.sol\":6591:6610  collaboratorPercent */\n      dup7\n        /* \"contracts/nft.sol\":6612:6619  tokenId */\n      dup7\n        /* \"contracts/nft.sol\":6555:6560  _mint */\n      tag_251\n        /* \"contracts/nft.sol\":6555:6620  _mint(to,ownerPercent, collaborator,collaboratorPercent, tokenId) */\n      jump\t// in\n    tag_250:\n        /* \"contracts/nft.sol\":6653:6706  _checkOnERC721Received(address(0), to, tokenId, data) */\n      tag_252\n        /* \"contracts/nft.sol\":6684:6685  0 */\n      0x00\n        /* \"contracts/nft.sol\":6688:6690  to */\n      dup8\n        /* \"contracts/nft.sol\":6692:6699  tokenId */\n      dup5\n        /* \"contracts/nft.sol\":6701:6705  data */\n      dup5\n        /* \"contracts/nft.sol\":6653:6675  _checkOnERC721Received */\n      tag_221\n        /* \"contracts/nft.sol\":6653:6706  _checkOnERC721Received(address(0), to, tokenId, data) */\n      jump\t// in\n    tag_252:\n        /* \"contracts/nft.sol\":6631:6784  require(\r... */\n      tag_253\n      jumpi\n      mload(0x40)\n      0x08c379a000000000000000000000000000000000000000000000000000000000\n      dup2\n      mstore\n      0x04\n      add\n      tag_254\n      swap1\n      tag_224\n      jump\t// in\n    tag_254:\n      mload(0x40)\n      dup1\n      swap2\n      sub\n      swap1\n      revert\n    tag_253:\n        /* \"contracts/nft.sol\":6325:6792  function _safeMint(\r... */\n      pop\n      pop\n      pop\n      pop\n      pop\n      pop\n      jump\t// out\n        /* \"contracts/nft.sol\":9749:10602  function _checkOnERC721Received(\r... */\n    tag_221:\n        /* \"contracts/nft.sol\":9903:9907  bool */\n      0x00\n        /* \"contracts/nft.sol\":9924:9939  to.isContract() */\n      tag_256\n        /* \"contracts/nft.sol\":9924:9926  to */\n      dup5\n        /* \"contracts/nft.sol\":9924:9937  to.isContract */\n      0xffffffffffffffffffffffffffffffffffffffff\n      and\n      tag_257\n        /* \"contracts/nft.sol\":9924:9939  to.isContract() */\n      jump\t// in\n    tag_256:\n        /* \"contracts/nft.sol\":9920:10595  if (to.isContract()) {\r... */\n      iszero\n      tag_258\n      jumpi\n        /* \"contracts/nft.sol\":9976:9978  to */\n      dup4\n        /* \"contracts/nft.sol\":9960:9996  IERC721Receiver(to).onERC721Received */\n      0xffffffffffffffffffffffffffffffffffffffff\n      and\n      0x150b7a02\n        /* \"contracts/nft.sol\":9997:10009  _msgSender() */\n      tag_259\n        /* \"contracts/nft.sol\":9997:10007  _msgSender */\n      tag_112\n        /* \"contracts/nft.sol\":9997:10009  _msgSender() */\n      jump\t// in\n    tag_259:\n        /* \"contracts/nft.sol\":10011:10015  from */\n      dup8\n        /* \"contracts/nft.sol\":10017:10024  tokenId */\n      dup7\n        /* \"contracts/nft.sol\":10026:10030  data */\n      dup7\n        /* \"contracts/nft.sol\":9960:10031  IERC721Receiver(to).onERC721Received(_msgSender(), from, tokenId, data) */\n      mload(0x40)\n      dup6\n      0xffffffff\n      and\n      0xe0\n      shl\n      dup2\n      mstore\n      0x04\n      add\n      tag_260\n      swap5\n      swap4\n      swap3\n      swap2\n      swap1\n      tag_261\n      jump\t// in\n    tag_260:\n      0x20\n      mload(0x40)\n      dup1\n      dup4\n      sub\n      dup2\n      0x00\n      dup8\n      dup1\n      extcodesize\n      iszero\n      dup1\n      iszero\n      tag_262\n      jumpi\n      0x00\n      dup1\n      revert\n    tag_262:\n      pop\n      gas\n      call\n      swap3\n      pop\n      pop\n      pop\n      dup1\n      iszero\n      tag_263\n      jumpi\n      pop\n      mload(0x40)\n      returndatasize\n      not(0x1f)\n      0x1f\n      dup3\n      add\n      and\n      dup3\n      add\n      dup1\n      0x40\n      mstore\n      pop\n      dup2\n      add\n      swap1\n      tag_264\n      swap2\n      swap1\n      tag_265\n      jump\t// in\n    tag_264:\n      0x01\n    tag_263:\n        /* \"contracts/nft.sol\":9956:10540  try IERC721Receiver(to).onERC721Received(_msgSender(), from, tokenId, data) returns (bytes4 retval) {\r... */\n      tag_266\n      jumpi\n      returndatasize\n      dup1\n      0x00\n      dup2\n      eq\n      tag_271\n      jumpi\n      mload(0x40)\n      swap2\n      pop\n      and(add(returndatasize, 0x3f), not(0x1f))\n      dup3\n      add\n      0x40\n      mstore\n      returndatasize\n      dup3\n      mstore\n      returndatasize\n      0x00\n      0x20\n      dup5\n      add\n      returndatacopy\n      jump(tag_270)\n    tag_271:\n      0x60\n      swap2\n      pop\n    tag_270:\n      pop\n        /* \"contracts/nft.sol\":10218:10219  0 */\n      0x00\n        /* \"contracts/nft.sol\":10201:10207  reason */\n      dup2\n        /* \"contracts/nft.sol\":10201:10214  reason.length */\n      mload\n        /* \"contracts/nft.sol\":10201:10219  reason.length == 0 */\n      eq\n        /* \"contracts/nft.sol\":10197:10525  if (reason.length == 0) {\r... */\n      iszero\n      tag_272\n      jumpi\n        /* \"contracts/nft.sol\":10244:10304  revert(\"ERC721: transfer to non ERC721Receiver implementer\") */\n      mload(0x40)\n      0x08c379a000000000000000000000000000000000000000000000000000000000\n      dup2\n      mstore\n      0x04\n      add\n      tag_273\n      swap1\n      tag_224\n      jump\t// in\n    tag_273:\n      mload(0x40)\n      dup1\n      swap2\n      sub\n      swap1\n      revert\n        /* \"contracts/nft.sol\":10197:10525  if (reason.length == 0) {\r... */\n    tag_272:\n        /* \"contracts/nft.sol\":10475:10481  reason */\n      dup1\n        /* \"contracts/nft.sol\":10469:10482  mload(reason) */\n      mload\n        /* \"contracts/nft.sol\":10460:10466  reason */\n      dup2\n        /* \"contracts/nft.sol\":10456:10458  32 */\n      0x20\n        /* \"contracts/nft.sol\":10452:10467  add(32, reason) */\n      add\n        /* \"contracts/nft.sol\":10445:10483  revert(add(32, reason), mload(reason)) */\n      revert\n        /* \"contracts/nft.sol\":9956:10540  try IERC721Receiver(to).onERC721Received(_msgSender(), from, tokenId, data) returns (bytes4 retval) {\r... */\n    tag_266:\n        /* \"contracts/nft.sol\":10092:10133  IERC721Receiver.onERC721Received.selector */\n      shl(0xe0, 0x150b7a02)\n        /* \"contracts/nft.sol\":10082:10133  retval == IERC721Receiver.onERC721Received.selector */\n      not(0xffffffffffffffffffffffffffffffffffffffffffffffffffffffff)\n      and\n        /* \"contracts/nft.sol\":10082:10088  retval */\n      dup2\n        /* \"contracts/nft.sol\":10082:10133  retval == IERC721Receiver.onERC721Received.selector */\n      not(0xffffffffffffffffffffffffffffffffffffffffffffffffffffffff)\n      and\n      eq\n        /* \"contracts/nft.sol\":10075:10133  return retval == IERC721Receiver.onERC721Received.selector */\n      swap2\n      pop\n      pop\n      jump(tag_255)\n        /* \"contracts/nft.sol\":9920:10595  if (to.isContract()) {\r... */\n    tag_258:\n        /* \"contracts/nft.sol\":10579:10583  true */\n      0x01\n        /* \"contracts/nft.sol\":10572:10583  return true */\n      swap1\n      pop\n        /* \"contracts/nft.sol\":9749:10602  function _checkOnERC721Received(\r... */\n    tag_255:\n      swap5\n      swap4\n      pop\n      pop\n      pop\n      pop\n      jump\t// out\n        /* \"contracts/nft.sol\":6800:7616  function _mint(address to,uint256 ownerPercent,address collaborator,uint256 collaboratorPercent,uint256 tokenId) internal virtual {\r... */\n    tag_251:\n        /* \"contracts/nft.sol\":6963:6964  0 */\n      0x00\n        /* \"contracts/nft.sol\":6949:6965  to != address(0) */\n      0xffffffffffffffffffffffffffffffffffffffff\n      and\n        /* \"contracts/nft.sol\":6949:6951  to */\n      dup6\n        /* \"contracts/nft.sol\":6949:6965  to != address(0) */\n      0xffffffffffffffffffffffffffffffffffffffff\n      and\n      eq\n      iszero\n        /* \"contracts/nft.sol\":6941:7002  require(to != address(0), \"ERC721: mint to the zero address\") */\n      tag_278\n      jumpi\n      mload(0x40)\n      0x08c379a000000000000000000000000000000000000000000000000000000000\n      dup2\n      mstore\n      0x04\n      add\n      tag_279\n      swap1\n      tag_280\n      jump\t// in\n    tag_279:\n      mload(0x40)\n      dup1\n      swap2\n      sub\n      swap1\n      revert\n    tag_278:\n        /* \"contracts/nft.sol\":7045:7046  0 */\n      0x00\n        /* \"contracts/nft.sol\":7021:7047  collaborator != address(0) */\n      0xffffffffffffffffffffffffffffffffffffffff\n      and\n        /* \"contracts/nft.sol\":7021:7033  collaborator */\n      dup4\n        /* \"contracts/nft.sol\":7021:7047  collaborator != address(0) */\n      0xffffffffffffffffffffffffffffffffffffffff\n      and\n      eq\n      iszero\n        /* \"contracts/nft.sol\":7013:7084  require(collaborator != address(0), \"ERC721: mint to the zero address\") */\n      tag_281\n      jumpi\n      mload(0x40)\n      0x08c379a000000000000000000000000000000000000000000000000000000000\n      dup2\n      mstore\n      0x04\n      add\n      tag_282\n      swap1\n      tag_280\n      jump\t// in\n    tag_282:\n      mload(0x40)\n      dup1\n      swap2\n      sub\n      swap1\n      revert\n    tag_281:\n        /* \"contracts/nft.sol\":7104:7120  _exists(tokenId) */\n      tag_283\n        /* \"contracts/nft.sol\":7112:7119  tokenId */\n      dup2\n        /* \"contracts/nft.sol\":7104:7111  _exists */\n      tag_180\n        /* \"contracts/nft.sol\":7104:7120  _exists(tokenId) */\n      jump\t// in\n    tag_283:\n        /* \"contracts/nft.sol\":7103:7120  !_exists(tokenId) */\n      iszero\n        /* \"contracts/nft.sol\":7095:7153  require(!_exists(tokenId), \"ERC721: token already minted\") */\n      tag_284\n      jumpi\n      mload(0x40)\n      0x08c379a000000000000000000000000000000000000000000000000000000000\n      dup2\n      mstore\n      0x04\n      add\n      tag_285\n      swap1\n      tag_286\n      jump\t// in\n    tag_285:\n      mload(0x40)\n      dup1\n      swap2\n      sub\n      swap1\n      revert\n    tag_284:\n        /* \"contracts/nft.sol\":7166:7211  _beforeTokenTransfer(address(0), to, tokenId) */\n      tag_287\n        /* \"contracts/nft.sol\":7195:7196  0 */\n      0x00\n        /* \"contracts/nft.sol\":7199:7201  to */\n      dup7\n        /* \"contracts/nft.sol\":7203:7210  tokenId */\n      dup4\n        /* \"contracts/nft.sol\":7166:7186  _beforeTokenTransfer */\n      tag_201\n        /* \"contracts/nft.sol\":7166:7211  _beforeTokenTransfer(address(0), to, tokenId) */\n      jump\t// in\n    tag_287:\n        /* \"contracts/nft.sol\":7233:7249  _exists(tokenId) */\n      tag_288\n        /* \"contracts/nft.sol\":7241:7248  tokenId */\n      dup2\n        /* \"contracts/nft.sol\":7233:7240  _exists */\n      tag_180\n        /* \"contracts/nft.sol\":7233:7249  _exists(tokenId) */\n      jump\t// in\n    tag_288:\n        /* \"contracts/nft.sol\":7232:7249  !_exists(tokenId) */\n      iszero\n        /* \"contracts/nft.sol\":7224:7282  require(!_exists(tokenId), \"ERC721: token already minted\") */\n      tag_289\n      jumpi\n      mload(0x40)\n      0x08c379a000000000000000000000000000000000000000000000000000000000\n      dup2\n      mstore\n      0x04\n      add\n      tag_290\n      swap1\n      tag_286\n      jump\t// in\n    tag_290:\n      mload(0x40)\n      dup1\n      swap2\n      sub\n      swap1\n      revert\n    tag_289:\n        /* \"contracts/nft.sol\":7337:7338  1 */\n      0x01\n        /* \"contracts/nft.sol\":7320:7329  _balances */\n      0x05\n        /* \"contracts/nft.sol\":7320:7333  _balances[to] */\n      0x00\n        /* \"contracts/nft.sol\":7330:7332  to */\n      dup8\n        /* \"contracts/nft.sol\":7320:7333  _balances[to] */\n      0xffffffffffffffffffffffffffffffffffffffff\n      and\n      0xffffffffffffffffffffffffffffffffffffffff\n      and\n      dup2\n      mstore\n      0x20\n      add\n      swap1\n      dup2\n      mstore\n      0x20\n      add\n      0x00\n      keccak256\n      0x00\n        /* \"contracts/nft.sol\":7320:7338  _balances[to] += 1 */\n      dup3\n      dup3\n      sload\n      add\n      swap3\n      pop\n      pop\n      dup2\n      swap1\n      sstore\n      pop\n        /* \"contracts/nft.sol\":7381:7383  to */\n      dup5\n        /* \"contracts/nft.sol\":7362:7369  _owners */\n      0x02\n        /* \"contracts/nft.sol\":7362:7378  _owners[tokenId] */\n      0x00\n        /* \"contracts/nft.sol\":7370:7377  tokenId */\n      dup4\n        /* \"contracts/nft.sol\":7362:7378  _owners[tokenId] */\n      dup2\n      mstore\n      0x20\n      add\n      swap1\n      dup2\n      mstore\n      0x20\n      add\n      0x00\n      keccak256\n      0x00\n        /* \"contracts/nft.sol\":7362:7383  _owners[tokenId] = to */\n      0x0100\n      exp\n      dup2\n      sload\n      dup2\n      0xffffffffffffffffffffffffffffffffffffffff\n      mul\n      not\n      and\n      swap1\n      dup4\n      0xffffffffffffffffffffffffffffffffffffffff\n      and\n      mul\n      or\n      swap1\n      sstore\n      pop\n        /* \"contracts/nft.sol\":7422:7434  collaborator */\n      dup3\n        /* \"contracts/nft.sol\":7396:7410  _collaborators */\n      0x03\n        /* \"contracts/nft.sol\":7396:7419  _collaborators[tokenId] */\n      0x00\n        /* \"contracts/nft.sol\":7411:7418  tokenId */\n      dup4\n        /* \"contracts/nft.sol\":7396:7419  _collaborators[tokenId] */\n      dup2\n      mstore\n      0x20\n      add\n      swap1\n      dup2\n      mstore\n      0x20\n      add\n      0x00\n      keccak256\n      0x00\n        /* \"contracts/nft.sol\":7396:7434  _collaborators[tokenId] = collaborator */\n      0x0100\n      exp\n      dup2\n      sload\n      dup2\n      0xffffffffffffffffffffffffffffffffffffffff\n      mul\n      not\n      and\n      swap1\n      dup4\n      0xffffffffffffffffffffffffffffffffffffffff\n      and\n      mul\n      or\n      swap1\n      sstore\n      pop\n        /* \"contracts/nft.sol\":7481:7500  collaboratorPercent */\n      dup2\n        /* \"contracts/nft.sol\":7445:7469  _collaboratorsPercentage */\n      0x04\n        /* \"contracts/nft.sol\":7445:7478  _collaboratorsPercentage[tokenId] */\n      0x00\n        /* \"contracts/nft.sol\":7470:7477  tokenId */\n      dup4\n        /* \"contracts/nft.sol\":7445:7478  _collaboratorsPercentage[tokenId] */\n      dup2\n      mstore\n      0x20\n      add\n      swap1\n      dup2\n      mstore\n      0x20\n      add\n      0x00\n      keccak256\n        /* \"contracts/nft.sol\":7445:7500  _collaboratorsPercentage[tokenId] = collaboratorPercent */\n      dup2\n      swap1\n      sstore\n      pop\n        /* \"contracts/nft.sol\":7543:7550  tokenId */\n      dup1\n        /* \"contracts/nft.sol\":7539:7541  to */\n      dup6\n        /* \"contracts/nft.sol\":7518:7551  Transfer(address(0), to, tokenId) */\n      0xffffffffffffffffffffffffffffffffffffffff\n      and\n        /* \"contracts/nft.sol\":7535:7536  0 */\n      0x00\n        /* \"contracts/nft.sol\":7518:7551  Transfer(address(0), to, tokenId) */\n      0xffffffffffffffffffffffffffffffffffffffff\n      and\n      0xddf252ad1be2c89b69c2b068fc378daa952ba7f163c4a11628f55a4df523b3ef\n      mload(0x40)\n      mload(0x40)\n      dup1\n      swap2\n      sub\n      swap1\n      log4\n        /* \"contracts/nft.sol\":7564:7608  _afterTokenTransfer(address(0), to, tokenId) */\n      tag_291\n        /* \"contracts/nft.sol\":7592:7593  0 */\n      0x00\n        /* \"contracts/nft.sol\":7596:7598  to */\n      dup7\n        /* \"contracts/nft.sol\":7600:7607  tokenId */\n      dup4\n        /* \"contracts/nft.sol\":7564:7583  _afterTokenTransfer */\n      tag_206\n        /* \"contracts/nft.sol\":7564:7608  _afterTokenTransfer(address(0), to, tokenId) */\n      jump\t// in\n    tag_291:\n        /* \"contracts/nft.sol\":6800:7616  function _mint(address to,uint256 ownerPercent,address collaborator,uint256 collaboratorPercent,uint256 tokenId) internal virtual {\r... */\n      pop\n      pop\n      pop\n      pop\n      pop\n      jump\t// out\n        /* \"@openzeppelin/contracts@4.6.0/utils/Address.sol\":1175:1495  function isContract(address account) internal view returns (bool) {... */\n    tag_257:\n        /* \"@openzeppelin/contracts@4.6.0/utils/Address.sol\":1235:1239  bool */\n      0x00\n        /* \"@openzeppelin/contracts@4.6.0/utils/Address.sol\":1487:1488  0 */\n      dup1\n        /* \"@openzeppelin/contracts@4.6.0/utils/Address.sol\":1465:1472  account */\n      dup3\n        /* \"@openzeppelin/contracts@4.6.0/utils/Address.sol\":1465:1484  account.code.length */\n      0xffffffffffffffffffffffffffffffffffffffff\n      and\n      extcodesize\n        /* \"@openzeppelin/contracts@4.6.0/utils/Address.sol\":1465:1488  account.code.length > 0 */\n      gt\n        /* \"@openzeppelin/contracts@4.6.0/utils/Address.sol\":1458:1488  return account.code.length > 0 */\n      swap1\n      pop\n        /* \"@openzeppelin/contracts@4.6.0/utils/Address.sol\":1175:1495  function isContract(address account) internal view returns (bool) {... */\n      swap2\n      swap1\n      pop\n      jump\t// out\n    tag_212:\n      dup3\n      dup1\n      sload\n      tag_293\n      swap1\n      tag_98\n      jump\t// in\n    tag_293:\n      swap1\n      0x00\n      mstore\n      keccak256(0x00, 0x20)\n      swap1\n      0x1f\n      add\n      0x20\n      swap1\n      div\n      dup2\n      add\n      swap3\n      dup3\n      tag_295\n      jumpi\n      0x00\n      dup6\n      sstore\n      jump(tag_294)\n    tag_295:\n      dup3\n      0x1f\n      lt\n      tag_296\n      jumpi\n      dup1\n      mload\n      not(0xff)\n      and\n      dup4\n      dup1\n      add\n      or\n      dup6\n      sstore\n      jump(tag_294)\n    tag_296:\n      dup3\n      dup1\n      add\n      0x01\n      add\n      dup6\n      sstore\n      dup3\n      iszero\n      tag_294\n      jumpi\n      swap2\n      dup3\n      add\n    tag_297:\n      dup3\n      dup2\n      gt\n      iszero\n      tag_298\n      jumpi\n      dup3\n      mload\n      dup3\n      sstore\n      swap2\n      0x20\n      add\n      swap2\n      swap1\n      0x01\n      add\n      swap1\n      jump(tag_297)\n    tag_298:\n    tag_294:\n      pop\n      swap1\n      pop\n      tag_299\n      swap2\n      swap1\n      tag_300\n      jump\t// in\n    tag_299:\n      pop\n      swap1\n      jump\t// out\n    tag_300:\n    tag_301:\n      dup1\n      dup3\n      gt\n      iszero\n      tag_302\n      jumpi\n      0x00\n      dup2\n      0x00\n      swap1\n      sstore\n      pop\n      0x01\n      add\n      jump(tag_301)\n    tag_302:\n      pop\n      swap1\n      jump\t// out\n        /* \"#utility.yul\":7:350   */\n    tag_304:\n        /* \"#utility.yul\":84:89   */\n      0x00\n        /* \"#utility.yul\":109:174   */\n      tag_306\n        /* \"#utility.yul\":125:173   */\n      tag_307\n        /* \"#utility.yul\":166:172   */\n      dup5\n        /* \"#utility.yul\":125:173   */\n      tag_308\n      jump\t// in\n    tag_307:\n        /* \"#utility.yul\":109:174   */\n      tag_309\n      jump\t// in\n    tag_306:\n        /* \"#utility.yul\":100:174   */\n      swap1\n      pop\n        /* \"#utility.yul\":197:203   */\n      dup3\n        /* \"#utility.yul\":190:195   */\n      dup2\n        /* \"#utility.yul\":183:204   */\n      mstore\n        /* \"#utility.yul\":235:239   */\n      0x20\n        /* \"#utility.yul\":228:233   */\n      dup2\n        /* \"#utility.yul\":224:240   */\n      add\n        /* \"#utility.yul\":273:276   */\n      dup5\n        /* \"#utility.yul\":264:270   */\n      dup5\n        /* \"#utility.yul\":259:262   */\n      dup5\n        /* \"#utility.yul\":255:271   */\n      add\n        /* \"#utility.yul\":252:277   */\n      gt\n        /* \"#utility.yul\":249:251   */\n      iszero\n      tag_310\n      jumpi\n        /* \"#utility.yul\":290:291   */\n      0x00\n        /* \"#utility.yul\":287:288   */\n      dup1\n        /* \"#utility.yul\":280:292   */\n      revert\n        /* \"#utility.yul\":249:251   */\n    tag_310:\n        /* \"#utility.yul\":303:344   */\n      tag_311\n        /* \"#utility.yul\":337:343   */\n      dup5\n        /* \"#utility.yul\":332:335   */\n      dup3\n        /* \"#utility.yul\":327:330   */\n      dup6\n        /* \"#utility.yul\":303:344   */\n      tag_312\n      jump\t// in\n    tag_311:\n        /* \"#utility.yul\":90:350   */\n      pop\n      swap4\n      swap3\n      pop\n      pop\n      pop\n      jump\t// out\n        /* \"#utility.yul\":356:701   */\n    tag_313:\n        /* \"#utility.yul\":434:439   */\n      0x00\n        /* \"#utility.yul\":459:525   */\n      tag_315\n        /* \"#utility.yul\":475:524   */\n      tag_316\n        /* \"#utility.yul\":517:523   */\n      dup5\n        /* \"#utility.yul\":475:524   */\n      tag_317\n      jump\t// in\n    tag_316:\n        /* \"#utility.yul\":459:525   */\n      tag_309\n      jump\t// in\n    tag_315:\n        /* \"#utility.yul\":450:525   */\n      swap1\n      pop\n        /* \"#utility.yul\":548:554   */\n      dup3\n        /* \"#utility.yul\":541:546   */\n      dup2\n        /* \"#utility.yul\":534:555   */\n      mstore\n        /* \"#utility.yul\":586:590   */\n      0x20\n        /* \"#utility.yul\":579:584   */\n      dup2\n        /* \"#utility.yul\":575:591   */\n      add\n        /* \"#utility.yul\":624:627   */\n      dup5\n        /* \"#utility.yul\":615:621   */\n      dup5\n        /* \"#utility.yul\":610:613   */\n      dup5\n        /* \"#utility.yul\":606:622   */\n      add\n        /* \"#utility.yul\":603:628   */\n      gt\n        /* \"#utility.yul\":600:602   */\n      iszero\n      tag_318\n      jumpi\n        /* \"#utility.yul\":641:642   */\n      0x00\n        /* \"#utility.yul\":638:639   */\n      dup1\n        /* \"#utility.yul\":631:643   */\n      revert\n        /* \"#utility.yul\":600:602   */\n    tag_318:\n        /* \"#utility.yul\":654:695   */\n      tag_319\n        /* \"#utility.yul\":688:694   */\n      dup5\n        /* \"#utility.yul\":683:686   */\n      dup3\n        /* \"#utility.yul\":678:681   */\n      dup6\n        /* \"#utility.yul\":654:695   */\n      tag_312\n      jump\t// in\n    tag_319:\n        /* \"#utility.yul\":440:701   */\n      pop\n      swap4\n      swap3\n      pop\n      pop\n      pop\n      jump\t// out\n        /* \"#utility.yul\":707:846   */\n    tag_320:\n        /* \"#utility.yul\":753:758   */\n      0x00\n        /* \"#utility.yul\":791:797   */\n      dup2\n        /* \"#utility.yul\":778:798   */\n      calldataload\n        /* \"#utility.yul\":769:798   */\n      swap1\n      pop\n        /* \"#utility.yul\":807:840   */\n      tag_322\n        /* \"#utility.yul\":834:839   */\n      dup2\n        /* \"#utility.yul\":807:840   */\n      tag_323\n      jump\t// in\n    tag_322:\n        /* \"#utility.yul\":759:846   */\n      swap3\n      swap2\n      pop\n      pop\n      jump\t// out\n        /* \"#utility.yul\":852:985   */\n    tag_324:\n        /* \"#utility.yul\":895:900   */\n      0x00\n        /* \"#utility.yul\":933:939   */\n      dup2\n        /* \"#utility.yul\":920:940   */\n      calldataload\n        /* \"#utility.yul\":911:940   */\n      swap1\n      pop\n        /* \"#utility.yul\":949:979   */\n      tag_326\n        /* \"#utility.yul\":973:978   */\n      dup2\n        /* \"#utility.yul\":949:979   */\n      tag_327\n      jump\t// in\n    tag_326:\n        /* \"#utility.yul\":901:985   */\n      swap3\n      swap2\n      pop\n      pop\n      jump\t// out\n        /* \"#utility.yul\":991:1128   */\n    tag_328:\n        /* \"#utility.yul\":1036:1041   */\n      0x00\n        /* \"#utility.yul\":1074:1080   */\n      dup2\n        /* \"#utility.yul\":1061:1081   */\n      calldataload\n        /* \"#utility.yul\":1052:1081   */\n      swap1\n      pop\n        /* \"#utility.yul\":1090:1122   */\n      tag_330\n        /* \"#utility.yul\":1116:1121   */\n      dup2\n        /* \"#utility.yul\":1090:1122   */\n      tag_331\n      jump\t// in\n    tag_330:\n        /* \"#utility.yul\":1042:1128   */\n      swap3\n      swap2\n      pop\n      pop\n      jump\t// out\n        /* \"#utility.yul\":1134:1275   */\n    tag_332:\n        /* \"#utility.yul\":1190:1195   */\n      0x00\n        /* \"#utility.yul\":1221:1227   */\n      dup2\n        /* \"#utility.yul\":1215:1228   */\n      mload\n        /* \"#utility.yul\":1206:1228   */\n      swap1\n      pop\n        /* \"#utility.yul\":1237:1269   */\n      tag_334\n        /* \"#utility.yul\":1263:1268   */\n      dup2\n        /* \"#utility.yul\":1237:1269   */\n      tag_331\n      jump\t// in\n    tag_334:\n        /* \"#utility.yul\":1196:1275   */\n      swap3\n      swap2\n      pop\n      pop\n      jump\t// out\n        /* \"#utility.yul\":1294:1565   */\n    tag_335:\n        /* \"#utility.yul\":1349:1354   */\n      0x00\n        /* \"#utility.yul\":1398:1401   */\n      dup3\n        /* \"#utility.yul\":1391:1395   */\n      0x1f\n        /* \"#utility.yul\":1383:1389   */\n      dup4\n        /* \"#utility.yul\":1379:1396   */\n      add\n        /* \"#utility.yul\":1375:1402   */\n      slt\n        /* \"#utility.yul\":1365:1367   */\n      tag_337\n      jumpi\n        /* \"#utility.yul\":1416:1417   */\n      0x00\n        /* \"#utility.yul\":1413:1414   */\n      dup1\n        /* \"#utility.yul\":1406:1418   */\n      revert\n        /* \"#utility.yul\":1365:1367   */\n    tag_337:\n        /* \"#utility.yul\":1456:1462   */\n      dup2\n        /* \"#utility.yul\":1443:1463   */\n      calldataload\n        /* \"#utility.yul\":1481:1559   */\n      tag_338\n        /* \"#utility.yul\":1555:1558   */\n      dup5\n        /* \"#utility.yul\":1547:1553   */\n      dup3\n        /* \"#utility.yul\":1540:1544   */\n      0x20\n        /* \"#utility.yul\":1532:1538   */\n      dup7\n        /* \"#utility.yul\":1528:1545   */\n      add\n        /* \"#utility.yul\":1481:1559   */\n      tag_304\n      jump\t// in\n    tag_338:\n        /* \"#utility.yul\":1472:1559   */\n      swap2\n      pop\n        /* \"#utility.yul\":1355:1565   */\n      pop\n      swap3\n      swap2\n      pop\n      pop\n      jump\t// out\n        /* \"#utility.yul\":1585:1858   */\n    tag_339:\n        /* \"#utility.yul\":1641:1646   */\n      0x00\n        /* \"#utility.yul\":1690:1693   */\n      dup3\n        /* \"#utility.yul\":1683:1687   */\n      0x1f\n        /* \"#utility.yul\":1675:1681   */\n      dup4\n        /* \"#utility.yul\":1671:1688   */\n      add\n        /* \"#utility.yul\":1667:1694   */\n      slt\n        /* \"#utility.yul\":1657:1659   */\n      tag_341\n      jumpi\n        /* \"#utility.yul\":1708:1709   */\n      0x00\n        /* \"#utility.yul\":1705:1706   */\n      dup1\n        /* \"#utility.yul\":1698:1710   */\n      revert\n        /* \"#utility.yul\":1657:1659   */\n    tag_341:\n        /* \"#utility.yul\":1748:1754   */\n      dup2\n        /* \"#utility.yul\":1735:1755   */\n      calldataload\n        /* \"#utility.yul\":1773:1852   */\n      tag_342\n        /* \"#utility.yul\":1848:1851   */\n      dup5\n        /* \"#utility.yul\":1840:1846   */\n      dup3\n        /* \"#utility.yul\":1833:1837   */\n      0x20\n        /* \"#utility.yul\":1825:1831   */\n      dup7\n        /* \"#utility.yul\":1821:1838   */\n      add\n        /* \"#utility.yul\":1773:1852   */\n      tag_313\n      jump\t// in\n    tag_342:\n        /* \"#utility.yul\":1764:1852   */\n      swap2\n      pop\n        /* \"#utility.yul\":1647:1858   */\n      pop\n      swap3\n      swap2\n      pop\n      pop\n      jump\t// out\n        /* \"#utility.yul\":1864:2003   */\n    tag_343:\n        /* \"#utility.yul\":1910:1915   */\n      0x00\n        /* \"#utility.yul\":1948:1954   */\n      dup2\n        /* \"#utility.yul\":1935:1955   */\n      calldataload\n        /* \"#utility.yul\":1926:1955   */\n      swap1\n      pop\n        /* \"#utility.yul\":1964:1997   */\n      tag_345\n        /* \"#utility.yul\":1991:1996   */\n      dup2\n        /* \"#utility.yul\":1964:1997   */\n      tag_346\n      jump\t// in\n    tag_345:\n        /* \"#utility.yul\":1916:2003   */\n      swap3\n      swap2\n      pop\n      pop\n      jump\t// out\n        /* \"#utility.yul\":2009:2271   */\n    tag_59:\n        /* \"#utility.yul\":2068:2074   */\n      0x00\n        /* \"#utility.yul\":2117:2119   */\n      0x20\n        /* \"#utility.yul\":2105:2114   */\n      dup3\n        /* \"#utility.yul\":2096:2103   */\n      dup5\n        /* \"#utility.yul\":2092:2115   */\n      sub\n        /* \"#utility.yul\":2088:2120   */\n      slt\n        /* \"#utility.yul\":2085:2087   */\n      iszero\n      tag_348\n      jumpi\n        /* \"#utility.yul\":2133:2134   */\n      0x00\n        /* \"#utility.yul\":2130:2131   */\n      dup1\n        /* \"#utility.yul\":2123:2135   */\n      revert\n        /* \"#utility.yul\":2085:2087   */\n    tag_348:\n        /* \"#utility.yul\":2176:2177   */\n      0x00\n        /* \"#utility.yul\":2201:2254   */\n      tag_349\n        /* \"#utility.yul\":2246:2253   */\n      dup5\n        /* \"#utility.yul\":2237:2243   */\n      dup3\n        /* \"#utility.yul\":2226:2235   */\n      dup6\n        /* \"#utility.yul\":2222:2244   */\n      add\n        /* \"#utility.yul\":2201:2254   */\n      tag_320\n      jump\t// in\n    tag_349:\n        /* \"#utility.yul\":2191:2254   */\n      swap2\n      pop\n        /* \"#utility.yul\":2147:2264   */\n      pop\n        /* \"#utility.yul\":2075:2271   */\n      swap3\n      swap2\n      pop\n      pop\n      jump\t// out\n        /* \"#utility.yul\":2277:2684   */\n    tag_84:\n        /* \"#utility.yul\":2345:2351   */\n      0x00\n        /* \"#utility.yul\":2353:2359   */\n      dup1\n        /* \"#utility.yul\":2402:2404   */\n      0x40\n        /* \"#utility.yul\":2390:2399   */\n      dup4\n        /* \"#utility.yul\":2381:2388   */\n      dup6\n        /* \"#utility.yul\":2377:2400   */\n      sub\n        /* \"#utility.yul\":2373:2405   */\n      slt\n        /* \"#utility.yul\":2370:2372   */\n      iszero\n      tag_351\n      jumpi\n        /* \"#utility.yul\":2418:2419   */\n      0x00\n        /* \"#utility.yul\":2415:2416   */\n      dup1\n        /* \"#utility.yul\":2408:2420   */\n      revert\n        /* \"#utility.yul\":2370:2372   */\n    tag_351:\n        /* \"#utility.yul\":2461:2462   */\n      0x00\n        /* \"#utility.yul\":2486:2539   */\n      tag_352\n        /* \"#utility.yul\":2531:2538   */\n      dup6\n        /* \"#utility.yul\":2522:2528   */\n      dup3\n        /* \"#utility.yul\":2511:2520   */\n      dup7\n        /* \"#utility.yul\":2507:2529   */\n      add\n        /* \"#utility.yul\":2486:2539   */\n      tag_320\n      jump\t// in\n    tag_352:\n        /* \"#utility.yul\":2476:2539   */\n      swap3\n      pop\n        /* \"#utility.yul\":2432:2549   */\n      pop\n        /* \"#utility.yul\":2588:2590   */\n      0x20\n        /* \"#utility.yul\":2614:2667   */\n      tag_353\n        /* \"#utility.yul\":2659:2666   */\n      dup6\n        /* \"#utility.yul\":2650:2656   */\n      dup3\n        /* \"#utility.yul\":2639:2648   */\n      dup7\n        /* \"#utility.yul\":2635:2657   */\n      add\n        /* \"#utility.yul\":2614:2667   */\n      tag_320\n      jump\t// in\n    tag_353:\n        /* \"#utility.yul\":2604:2667   */\n      swap2\n      pop\n        /* \"#utility.yul\":2559:2677   */\n      pop\n        /* \"#utility.yul\":2360:2684   */\n      swap3\n      pop\n      swap3\n      swap1\n      pop\n      jump\t// out\n        /* \"#utility.yul\":2690:3242   */\n    tag_44:\n        /* \"#utility.yul\":2767:2773   */\n      0x00\n        /* \"#utility.yul\":2775:2781   */\n      dup1\n        /* \"#utility.yul\":2783:2789   */\n      0x00\n        /* \"#utility.yul\":2832:2834   */\n      0x60\n        /* \"#utility.yul\":2820:2829   */\n      dup5\n        /* \"#utility.yul\":2811:2818   */\n      dup7\n        /* \"#utility.yul\":2807:2830   */\n      sub\n        /* \"#utility.yul\":2803:2835   */\n      slt\n        /* \"#utility.yul\":2800:2802   */\n      iszero\n      tag_355\n      jumpi\n        /* \"#utility.yul\":2848:2849   */\n      0x00\n        /* \"#utility.yul\":2845:2846   */\n      dup1\n        /* \"#utility.yul\":2838:2850   */\n      revert\n        /* \"#utility.yul\":2800:2802   */\n    tag_355:\n        /* \"#utility.yul\":2891:2892   */\n      0x00\n        /* \"#utility.yul\":2916:2969   */\n      tag_356\n        /* \"#utility.yul\":2961:2968   */\n      dup7\n        /* \"#utility.yul\":2952:2958   */\n      dup3\n        /* \"#utility.yul\":2941:2950   */\n      dup8\n        /* \"#utility.yul\":2937:2959   */\n      add\n        /* \"#utility.yul\":2916:2969   */\n      tag_320\n      jump\t// in\n    tag_356:\n        /* \"#utility.yul\":2906:2969   */\n      swap4\n      pop\n        /* \"#utility.yul\":2862:2979   */\n      pop\n        /* \"#utility.yul\":3018:3020   */\n      0x20\n        /* \"#utility.yul\":3044:3097   */\n      tag_357\n        /* \"#utility.yul\":3089:3096   */\n      dup7\n        /* \"#utility.yul\":3080:3086   */\n      dup3\n        /* \"#utility.yul\":3069:3078   */\n      dup8\n        /* \"#utility.yul\":3065:3087   */\n      add\n        /* \"#utility.yul\":3044:3097   */\n      tag_320\n      jump\t// in\n    tag_357:\n        /* \"#utility.yul\":3034:3097   */\n      swap3\n      pop\n        /* \"#utility.yul\":2989:3107   */\n      pop\n        /* \"#utility.yul\":3146:3148   */\n      0x40\n        /* \"#utility.yul\":3172:3225   */\n      tag_358\n        /* \"#utility.yul\":3217:3224   */\n      dup7\n        /* \"#utility.yul\":3208:3214   */\n      dup3\n        /* \"#utility.yul\":3197:3206   */\n      dup8\n        /* \"#utility.yul\":3193:3215   */\n      add\n        /* \"#utility.yul\":3172:3225   */\n      tag_343\n      jump\t// in\n    tag_358:\n        /* \"#utility.yul\":3162:3225   */\n      swap2\n      pop\n        /* \"#utility.yul\":3117:3235   */\n      pop\n        /* \"#utility.yul\":2790:3242   */\n      swap3\n      pop\n      swap3\n      pop\n      swap3\n      jump\t// out\n        /* \"#utility.yul\":3248:4057   */\n    tag_76:\n        /* \"#utility.yul\":3343:3349   */\n      0x00\n        /* \"#utility.yul\":3351:3357   */\n      dup1\n        /* \"#utility.yul\":3359:3365   */\n      0x00\n        /* \"#utility.yul\":3367:3373   */\n      dup1\n        /* \"#utility.yul\":3416:3419   */\n      0x80\n        /* \"#utility.yul\":3404:3413   */\n      dup6\n        /* \"#utility.yul\":3395:3402   */\n      dup8\n        /* \"#utility.yul\":3391:3414   */\n      sub\n        /* \"#utility.yul\":3387:3420   */\n      slt\n        /* \"#utility.yul\":3384:3386   */\n      iszero\n      tag_360\n      jumpi\n        /* \"#utility.yul\":3433:3434   */\n      0x00\n        /* \"#utility.yul\":3430:3431   */\n      dup1\n        /* \"#utility.yul\":3423:3435   */\n      revert\n        /* \"#utility.yul\":3384:3386   */\n    tag_360:\n        /* \"#utility.yul\":3476:3477   */\n      0x00\n        /* \"#utility.yul\":3501:3554   */\n      tag_361\n        /* \"#utility.yul\":3546:3553   */\n      dup8\n        /* \"#utility.yul\":3537:3543   */\n      dup3\n        /* \"#utility.yul\":3526:3535   */\n      dup9\n        /* \"#utility.yul\":3522:3544   */\n      add\n        /* \"#utility.yul\":3501:3554   */\n      tag_320\n      jump\t// in\n    tag_361:\n        /* \"#utility.yul\":3491:3554   */\n      swap5\n      pop\n        /* \"#utility.yul\":3447:3564   */\n      pop\n        /* \"#utility.yul\":3603:3605   */\n      0x20\n        /* \"#utility.yul\":3629:3682   */\n      tag_362\n        /* \"#utility.yul\":3674:3681   */\n      dup8\n        /* \"#utility.yul\":3665:3671   */\n      dup3\n        /* \"#utility.yul\":3654:3663   */\n      dup9\n        /* \"#utility.yul\":3650:3672   */\n      add\n        /* \"#utility.yul\":3629:3682   */\n      tag_320\n      jump\t// in\n    tag_362:\n        /* \"#utility.yul\":3619:3682   */\n      swap4\n      pop\n        /* \"#utility.yul\":3574:3692   */\n      pop\n        /* \"#utility.yul\":3731:3733   */\n      0x40\n        /* \"#utility.yul\":3757:3810   */\n      tag_363\n        /* \"#utility.yul\":3802:3809   */\n      dup8\n        /* \"#utility.yul\":3793:3799   */\n      dup3\n        /* \"#utility.yul\":3782:3791   */\n      dup9\n        /* \"#utility.yul\":3778:3800   */\n      add\n        /* \"#utility.yul\":3757:3810   */\n      tag_343\n      jump\t// in\n    tag_363:\n        /* \"#utility.yul\":3747:3810   */\n      swap3\n      pop\n        /* \"#utility.yul\":3702:3820   */\n      pop\n        /* \"#utility.yul\":3887:3889   */\n      0x60\n        /* \"#utility.yul\":3876:3885   */\n      dup6\n        /* \"#utility.yul\":3872:3890   */\n      add\n        /* \"#utility.yul\":3859:3891   */\n      calldataload\n        /* \"#utility.yul\":3918:3936   */\n      0xffffffffffffffff\n        /* \"#utility.yul\":3910:3916   */\n      dup2\n        /* \"#utility.yul\":3907:3937   */\n      gt\n        /* \"#utility.yul\":3904:3906   */\n      iszero\n      tag_364\n      jumpi\n        /* \"#utility.yul\":3950:3951   */\n      0x00\n        /* \"#utility.yul\":3947:3948   */\n      dup1\n        /* \"#utility.yul\":3940:3952   */\n      revert\n        /* \"#utility.yul\":3904:3906   */\n    tag_364:\n        /* \"#utility.yul\":3978:4040   */\n      tag_365\n        /* \"#utility.yul\":4032:4039   */\n      dup8\n        /* \"#utility.yul\":4023:4029   */\n      dup3\n        /* \"#utility.yul\":4012:4021   */\n      dup9\n        /* \"#utility.yul\":4008:4030   */\n      add\n        /* \"#utility.yul\":3978:4040   */\n      tag_335\n      jump\t// in\n    tag_365:\n        /* \"#utility.yul\":3968:4040   */\n      swap2\n      pop\n        /* \"#utility.yul\":3830:4050   */\n      pop\n        /* \"#utility.yul\":3374:4057   */\n      swap3\n      swap6\n      swap2\n      swap5\n      pop\n      swap3\n      pop\n      jump\t// out\n        /* \"#utility.yul\":4063:4464   */\n    tag_72:\n        /* \"#utility.yul\":4128:4134   */\n      0x00\n        /* \"#utility.yul\":4136:4142   */\n      dup1\n        /* \"#utility.yul\":4185:4187   */\n      0x40\n        /* \"#utility.yul\":4173:4182   */\n      dup4\n        /* \"#utility.yul\":4164:4171   */\n      dup6\n        /* \"#utility.yul\":4160:4183   */\n      sub\n        /* \"#utility.yul\":4156:4188   */\n      slt\n        /* \"#utility.yul\":4153:4155   */\n      iszero\n      tag_367\n      jumpi\n        /* \"#utility.yul\":4201:4202   */\n      0x00\n        /* \"#utility.yul\":4198:4199   */\n      dup1\n        /* \"#utility.yul\":4191:4203   */\n      revert\n        /* \"#utility.yul\":4153:4155   */\n    tag_367:\n        /* \"#utility.yul\":4244:4245   */\n      0x00\n        /* \"#utility.yul\":4269:4322   */\n      tag_368\n        /* \"#utility.yul\":4314:4321   */\n      dup6\n        /* \"#utility.yul\":4305:4311   */\n      dup3\n        /* \"#utility.yul\":4294:4303   */\n      dup7\n        /* \"#utility.yul\":4290:4312   */\n      add\n        /* \"#utility.yul\":4269:4322   */\n      tag_320\n      jump\t// in\n    tag_368:\n        /* \"#utility.yul\":4259:4322   */\n      swap3\n      pop\n        /* \"#utility.yul\":4215:4332   */\n      pop\n        /* \"#utility.yul\":4371:4373   */\n      0x20\n        /* \"#utility.yul\":4397:4447   */\n      tag_369\n        /* \"#utility.yul\":4439:4446   */\n      dup6\n        /* \"#utility.yul\":4430:4436   */\n      dup3\n        /* \"#utility.yul\":4419:4428   */\n      dup7\n        /* \"#utility.yul\":4415:4437   */\n      add\n        /* \"#utility.yul\":4397:4447   */\n      tag_324\n      jump\t// in\n    tag_369:\n        /* \"#utility.yul\":4387:4447   */\n      swap2\n      pop\n        /* \"#utility.yul\":4342:4457   */\n      pop\n        /* \"#utility.yul\":4143:4464   */\n      swap3\n      pop\n      swap3\n      swap1\n      pop\n      jump\t// out\n        /* \"#utility.yul\":4470:4877   */\n    tag_40:\n        /* \"#utility.yul\":4538:4544   */\n      0x00\n        /* \"#utility.yul\":4546:4552   */\n      dup1\n        /* \"#utility.yul\":4595:4597   */\n      0x40\n        /* \"#utility.yul\":4583:4592   */\n      dup4\n        /* \"#utility.yul\":4574:4581   */\n      dup6\n        /* \"#utility.yul\":4570:4593   */\n      sub\n        /* \"#utility.yul\":4566:4598   */\n      slt\n        /* \"#utility.yul\":4563:4565   */\n      iszero\n      tag_371\n      jumpi\n        /* \"#utility.yul\":4611:4612   */\n      0x00\n        /* \"#utility.yul\":4608:4609   */\n      dup1\n        /* \"#utility.yul\":4601:4613   */\n      revert\n        /* \"#utility.yul\":4563:4565   */\n    tag_371:\n        /* \"#utility.yul\":4654:4655   */\n      0x00\n        /* \"#utility.yul\":4679:4732   */\n      tag_372\n        /* \"#utility.yul\":4724:4731   */\n      dup6\n        /* \"#utility.yul\":4715:4721   */\n      dup3\n        /* \"#utility.yul\":4704:4713   */\n      dup7\n        /* \"#utility.yul\":4700:4722   */\n      add\n        /* \"#utility.yul\":4679:4732   */\n      tag_320\n      jump\t// in\n    tag_372:\n        /* \"#utility.yul\":4669:4732   */\n      swap3\n      pop\n        /* \"#utility.yul\":4625:4742   */\n      pop\n        /* \"#utility.yul\":4781:4783   */\n      0x20\n        /* \"#utility.yul\":4807:4860   */\n      tag_373\n        /* \"#utility.yul\":4852:4859   */\n      dup6\n        /* \"#utility.yul\":4843:4849   */\n      dup3\n        /* \"#utility.yul\":4832:4841   */\n      dup7\n        /* \"#utility.yul\":4828:4850   */\n      add\n        /* \"#utility.yul\":4807:4860   */\n      tag_343\n      jump\t// in\n    tag_373:\n        /* \"#utility.yul\":4797:4860   */\n      swap2\n      pop\n        /* \"#utility.yul\":4752:4870   */\n      pop\n        /* \"#utility.yul\":4553:4877   */\n      swap3\n      pop\n      swap3\n      swap1\n      pop\n      jump\t// out\n        /* \"#utility.yul\":4883:5986   */\n    tag_68:\n        /* \"#utility.yul\":4997:5003   */\n      0x00\n        /* \"#utility.yul\":5005:5011   */\n      dup1\n        /* \"#utility.yul\":5013:5019   */\n      0x00\n        /* \"#utility.yul\":5021:5027   */\n      dup1\n        /* \"#utility.yul\":5029:5035   */\n      0x00\n        /* \"#utility.yul\":5037:5043   */\n      dup1\n        /* \"#utility.yul\":5086:5089   */\n      0xc0\n        /* \"#utility.yul\":5074:5083   */\n      dup8\n        /* \"#utility.yul\":5065:5072   */\n      dup10\n        /* \"#utility.yul\":5061:5084   */\n      sub\n        /* \"#utility.yul\":5057:5090   */\n      slt\n        /* \"#utility.yul\":5054:5056   */\n      iszero\n      tag_375\n      jumpi\n        /* \"#utility.yul\":5103:5104   */\n      0x00\n        /* \"#utility.yul\":5100:5101   */\n      dup1\n        /* \"#utility.yul\":5093:5105   */\n      revert\n        /* \"#utility.yul\":5054:5056   */\n    tag_375:\n        /* \"#utility.yul\":5146:5147   */\n      0x00\n        /* \"#utility.yul\":5171:5224   */\n      tag_376\n        /* \"#utility.yul\":5216:5223   */\n      dup10\n        /* \"#utility.yul\":5207:5213   */\n      dup3\n        /* \"#utility.yul\":5196:5205   */\n      dup11\n        /* \"#utility.yul\":5192:5214   */\n      add\n        /* \"#utility.yul\":5171:5224   */\n      tag_320\n      jump\t// in\n    tag_376:\n        /* \"#utility.yul\":5161:5224   */\n      swap7\n      pop\n        /* \"#utility.yul\":5117:5234   */\n      pop\n        /* \"#utility.yul\":5273:5275   */\n      0x20\n        /* \"#utility.yul\":5299:5352   */\n      tag_377\n        /* \"#utility.yul\":5344:5351   */\n      dup10\n        /* \"#utility.yul\":5335:5341   */\n      dup3\n        /* \"#utility.yul\":5324:5333   */\n      dup11\n        /* \"#utility.yul\":5320:5342   */\n      add\n        /* \"#utility.yul\":5299:5352   */\n      tag_343\n      jump\t// in\n    tag_377:\n        /* \"#utility.yul\":5289:5352   */\n      swap6\n      pop\n        /* \"#utility.yul\":5244:5362   */\n      pop\n        /* \"#utility.yul\":5401:5403   */\n      0x40\n        /* \"#utility.yul\":5427:5480   */\n      tag_378\n        /* \"#utility.yul\":5472:5479   */\n      dup10\n        /* \"#utility.yul\":5463:5469   */\n      dup3\n        /* \"#utility.yul\":5452:5461   */\n      dup11\n        /* \"#utility.yul\":5448:5470   */\n      add\n        /* \"#utility.yul\":5427:5480   */\n      tag_320\n      jump\t// in\n    tag_378:\n        /* \"#utility.yul\":5417:5480   */\n      swap5\n      pop\n        /* \"#utility.yul\":5372:5490   */\n      pop\n        /* \"#utility.yul\":5529:5531   */\n      0x60\n        /* \"#utility.yul\":5555:5608   */\n      tag_379\n        /* \"#utility.yul\":5600:5607   */\n      dup10\n        /* \"#utility.yul\":5591:5597   */\n      dup3\n        /* \"#utility.yul\":5580:5589   */\n      dup11\n        /* \"#utility.yul\":5576:5598   */\n      add\n        /* \"#utility.yul\":5555:5608   */\n      tag_343\n      jump\t// in\n    tag_379:\n        /* \"#utility.yul\":5545:5608   */\n      swap4\n      pop\n        /* \"#utility.yul\":5500:5618   */\n      pop\n        /* \"#utility.yul\":5657:5660   */\n      0x80\n        /* \"#utility.yul\":5684:5737   */\n      tag_380\n        /* \"#utility.yul\":5729:5736   */\n      dup10\n        /* \"#utility.yul\":5720:5726   */\n      dup3\n        /* \"#utility.yul\":5709:5718   */\n      dup11\n        /* \"#utility.yul\":5705:5727   */\n      add\n        /* \"#utility.yul\":5684:5737   */\n      tag_343\n      jump\t// in\n    tag_380:\n        /* \"#utility.yul\":5674:5737   */\n      swap3\n      pop\n        /* \"#utility.yul\":5628:5747   */\n      pop\n        /* \"#utility.yul\":5814:5817   */\n      0xa0\n        /* \"#utility.yul\":5803:5812   */\n      dup8\n        /* \"#utility.yul\":5799:5818   */\n      add\n        /* \"#utility.yul\":5786:5819   */\n      calldataload\n        /* \"#utility.yul\":5846:5864   */\n      0xffffffffffffffff\n        /* \"#utility.yul\":5838:5844   */\n      dup2\n        /* \"#utility.yul\":5835:5865   */\n      gt\n        /* \"#utility.yul\":5832:5834   */\n      iszero\n      tag_381\n      jumpi\n        /* \"#utility.yul\":5878:5879   */\n      0x00\n        /* \"#utility.yul\":5875:5876   */\n      dup1\n        /* \"#utility.yul\":5868:5880   */\n      revert\n        /* \"#utility.yul\":5832:5834   */\n    tag_381:\n        /* \"#utility.yul\":5906:5969   */\n      tag_382\n        /* \"#utility.yul\":5961:5968   */\n      dup10\n        /* \"#utility.yul\":5952:5958   */\n      dup3\n        /* \"#utility.yul\":5941:5950   */\n      dup11\n        /* \"#utility.yul\":5937:5959   */\n      add\n        /* \"#utility.yul\":5906:5969   */\n      tag_339\n      jump\t// in\n    tag_382:\n        /* \"#utility.yul\":5896:5969   */\n      swap2\n      pop\n        /* \"#utility.yul\":5757:5979   */\n      pop\n        /* \"#utility.yul\":5044:5986   */\n      swap3\n      swap6\n      pop\n      swap3\n      swap6\n      pop\n      swap3\n      swap6\n      jump\t// out\n        /* \"#utility.yul\":5992:6252   */\n    tag_24:\n        /* \"#utility.yul\":6050:6056   */\n      0x00\n        /* \"#utility.yul\":6099:6101   */\n      0x20\n        /* \"#utility.yul\":6087:6096   */\n      dup3\n        /* \"#utility.yul\":6078:6085   */\n      dup5\n        /* \"#utility.yul\":6074:6097   */\n      sub\n        /* \"#utility.yul\":6070:6102   */\n      slt\n        /* \"#utility.yul\":6067:6069   */\n      iszero\n      tag_384\n      jumpi\n        /* \"#utility.yul\":6115:6116   */\n      0x00\n        /* \"#utility.yul\":6112:6113   */\n      dup1\n        /* \"#utility.yul\":6105:6117   */\n      revert\n        /* \"#utility.yul\":6067:6069   */\n    tag_384:\n        /* \"#utility.yul\":6158:6159   */\n      0x00\n        /* \"#utility.yul\":6183:6235   */\n      tag_385\n        /* \"#utility.yul\":6227:6234   */\n      dup5\n        /* \"#utility.yul\":6218:6224   */\n      dup3\n        /* \"#utility.yul\":6207:6216   */\n      dup6\n        /* \"#utility.yul\":6203:6225   */\n      add\n        /* \"#utility.yul\":6183:6235   */\n      tag_328\n      jump\t// in\n    tag_385:\n        /* \"#utility.yul\":6173:6235   */\n      swap2\n      pop\n        /* \"#utility.yul\":6129:6245   */\n      pop\n        /* \"#utility.yul\":6057:6252   */\n      swap3\n      swap2\n      pop\n      pop\n      jump\t// out\n        /* \"#utility.yul\":6258:6540   */\n    tag_265:\n        /* \"#utility.yul\":6327:6333   */\n      0x00\n        /* \"#utility.yul\":6376:6378   */\n      0x20\n        /* \"#utility.yul\":6364:6373   */\n      dup3\n        /* \"#utility.yul\":6355:6362   */\n      dup5\n        /* \"#utility.yul\":6351:6374   */\n      sub\n        /* \"#utility.yul\":6347:6379   */\n      slt\n        /* \"#utility.yul\":6344:6346   */\n      iszero\n      tag_387\n      jumpi\n        /* \"#utility.yul\":6392:6393   */\n      0x00\n        /* \"#utility.yul\":6389:6390   */\n      dup1\n        /* \"#utility.yul\":6382:6394   */\n      revert\n        /* \"#utility.yul\":6344:6346   */\n    tag_387:\n        /* \"#utility.yul\":6435:6436   */\n      0x00\n        /* \"#utility.yul\":6460:6523   */\n      tag_388\n        /* \"#utility.yul\":6515:6522   */\n      dup5\n        /* \"#utility.yul\":6506:6512   */\n      dup3\n        /* \"#utility.yul\":6495:6504   */\n      dup6\n        /* \"#utility.yul\":6491:6513   */\n      add\n        /* \"#utility.yul\":6460:6523   */\n      tag_332\n      jump\t// in\n    tag_388:\n        /* \"#utility.yul\":6450:6523   */\n      swap2\n      pop\n        /* \"#utility.yul\":6406:6533   */\n      pop\n        /* \"#utility.yul\":6334:6540   */\n      swap3\n      swap2\n      pop\n      pop\n      jump\t// out\n        /* \"#utility.yul\":6546:6808   */\n    tag_34:\n        /* \"#utility.yul\":6605:6611   */\n      0x00\n        /* \"#utility.yul\":6654:6656   */\n      0x20\n        /* \"#utility.yul\":6642:6651   */\n      dup3\n        /* \"#utility.yul\":6633:6640   */\n      dup5\n        /* \"#utility.yul\":6629:6652   */\n      sub\n        /* \"#utility.yul\":6625:6657   */\n      slt\n        /* \"#utility.yul\":6622:6624   */\n      iszero\n      tag_390\n      jumpi\n        /* \"#utility.yul\":6670:6671   */\n      0x00\n        /* \"#utility.yul\":6667:6668   */\n      dup1\n        /* \"#utility.yul\":6660:6672   */\n      revert\n        /* \"#utility.yul\":6622:6624   */\n    tag_390:\n        /* \"#utility.yul\":6713:6714   */\n      0x00\n        /* \"#utility.yul\":6738:6791   */\n      tag_391\n        /* \"#utility.yul\":6783:6790   */\n      dup5\n        /* \"#utility.yul\":6774:6780   */\n      dup3\n        /* \"#utility.yul\":6763:6772   */\n      dup6\n        /* \"#utility.yul\":6759:6781   */\n      add\n        /* \"#utility.yul\":6738:6791   */\n      tag_343\n      jump\t// in\n    tag_391:\n        /* \"#utility.yul\":6728:6791   */\n      swap2\n      pop\n        /* \"#utility.yul\":6684:6801   */\n      pop\n        /* \"#utility.yul\":6612:6808   */\n      swap3\n      swap2\n      pop\n      pop\n      jump\t// out\n        /* \"#utility.yul\":6814:6932   */\n    tag_392:\n        /* \"#utility.yul\":6901:6925   */\n      tag_394\n        /* \"#utility.yul\":6919:6924   */\n      dup2\n        /* \"#utility.yul\":6901:6925   */\n      tag_395\n      jump\t// in\n    tag_394:\n        /* \"#utility.yul\":6896:6899   */\n      dup3\n        /* \"#utility.yul\":6889:6926   */\n      mstore\n        /* \"#utility.yul\":6879:6932   */\n      pop\n      pop\n      jump\t// out\n        /* \"#utility.yul\":6938:7047   */\n    tag_396:\n        /* \"#utility.yul\":7019:7040   */\n      tag_398\n        /* \"#utility.yul\":7034:7039   */\n      dup2\n        /* \"#utility.yul\":7019:7040   */\n      tag_399\n      jump\t// in\n    tag_398:\n        /* \"#utility.yul\":7014:7017   */\n      dup3\n        /* \"#utility.yul\":7007:7041   */\n      mstore\n        /* \"#utility.yul\":6997:7047   */\n      pop\n      pop\n      jump\t// out\n        /* \"#utility.yul\":7053:7413   */\n    tag_400:\n        /* \"#utility.yul\":7139:7142   */\n      0x00\n        /* \"#utility.yul\":7167:7205   */\n      tag_402\n        /* \"#utility.yul\":7199:7204   */\n      dup3\n        /* \"#utility.yul\":7167:7205   */\n      tag_403\n      jump\t// in\n    tag_402:\n        /* \"#utility.yul\":7221:7291   */\n      tag_404\n        /* \"#utility.yul\":7284:7290   */\n      dup2\n        /* \"#utility.yul\":7279:7282   */\n      dup6\n        /* \"#utility.yul\":7221:7291   */\n      tag_405\n      jump\t// in\n    tag_404:\n        /* \"#utility.yul\":7214:7291   */\n      swap4\n      pop\n        /* \"#utility.yul\":7300:7352   */\n      tag_406\n        /* \"#utility.yul\":7345:7351   */\n      dup2\n        /* \"#utility.yul\":7340:7343   */\n      dup6\n        /* \"#utility.yul\":7333:7337   */\n      0x20\n        /* \"#utility.yul\":7326:7331   */\n      dup7\n        /* \"#utility.yul\":7322:7338   */\n      add\n        /* \"#utility.yul\":7300:7352   */\n      tag_407\n      jump\t// in\n    tag_406:\n        /* \"#utility.yul\":7377:7406   */\n      tag_408\n        /* \"#utility.yul\":7399:7405   */\n      dup2\n        /* \"#utility.yul\":7377:7406   */\n      tag_409\n      jump\t// in\n    tag_408:\n        /* \"#utility.yul\":7372:7375   */\n      dup5\n        /* \"#utility.yul\":7368:7407   */\n      add\n        /* \"#utility.yul\":7361:7407   */\n      swap2\n      pop\n        /* \"#utility.yul\":7143:7413   */\n      pop\n      swap3\n      swap2\n      pop\n      pop\n      jump\t// out\n        /* \"#utility.yul\":7419:7783   */\n    tag_410:\n        /* \"#utility.yul\":7507:7510   */\n      0x00\n        /* \"#utility.yul\":7535:7574   */\n      tag_412\n        /* \"#utility.yul\":7568:7573   */\n      dup3\n        /* \"#utility.yul\":7535:7574   */\n      tag_413\n      jump\t// in\n    tag_412:\n        /* \"#utility.yul\":7590:7661   */\n      tag_414\n        /* \"#utility.yul\":7654:7660   */\n      dup2\n        /* \"#utility.yul\":7649:7652   */\n      dup6\n        /* \"#utility.yul\":7590:7661   */\n      tag_415\n      jump\t// in\n    tag_414:\n        /* \"#utility.yul\":7583:7661   */\n      swap4\n      pop\n        /* \"#utility.yul\":7670:7722   */\n      tag_416\n        /* \"#utility.yul\":7715:7721   */\n      dup2\n        /* \"#utility.yul\":7710:7713   */\n      dup6\n        /* \"#utility.yul\":7703:7707   */\n      0x20\n        /* \"#utility.yul\":7696:7701   */\n      dup7\n        /* \"#utility.yul\":7692:7708   */\n      add\n        /* \"#utility.yul\":7670:7722   */\n      tag_407\n      jump\t// in\n    tag_416:\n        /* \"#utility.yul\":7747:7776   */\n      tag_417\n        /* \"#utility.yul\":7769:7775   */\n      dup2\n        /* \"#utility.yul\":7747:7776   */\n      tag_409\n      jump\t// in\n    tag_417:\n        /* \"#utility.yul\":7742:7745   */\n      dup5\n        /* \"#utility.yul\":7738:7777   */\n      add\n        /* \"#utility.yul\":7731:7777   */\n      swap2\n      pop\n        /* \"#utility.yul\":7511:7783   */\n      pop\n      swap3\n      swap2\n      pop\n      pop\n      jump\t// out\n        /* \"#utility.yul\":7789:8166   */\n    tag_418:\n        /* \"#utility.yul\":7895:7898   */\n      0x00\n        /* \"#utility.yul\":7923:7962   */\n      tag_420\n        /* \"#utility.yul\":7956:7961   */\n      dup3\n        /* \"#utility.yul\":7923:7962   */\n      tag_413\n      jump\t// in\n    tag_420:\n        /* \"#utility.yul\":7978:8067   */\n      tag_421\n        /* \"#utility.yul\":8060:8066   */\n      dup2\n        /* \"#utility.yul\":8055:8058   */\n      dup6\n        /* \"#utility.yul\":7978:8067   */\n      tag_422\n      jump\t// in\n    tag_421:\n        /* \"#utility.yul\":7971:8067   */\n      swap4\n      pop\n        /* \"#utility.yul\":8076:8128   */\n      tag_423\n        /* \"#utility.yul\":8121:8127   */\n      dup2\n        /* \"#utility.yul\":8116:8119   */\n      dup6\n        /* \"#utility.yul\":8109:8113   */\n      0x20\n        /* \"#utility.yul\":8102:8107   */\n      dup7\n        /* \"#utility.yul\":8098:8114   */\n      add\n        /* \"#utility.yul\":8076:8128   */\n      tag_407\n      jump\t// in\n    tag_423:\n        /* \"#utility.yul\":8153:8159   */\n      dup1\n        /* \"#utility.yul\":8148:8151   */\n      dup5\n        /* \"#utility.yul\":8144:8160   */\n      add\n        /* \"#utility.yul\":8137:8160   */\n      swap2\n      pop\n        /* \"#utility.yul\":7899:8166   */\n      pop\n      swap3\n      swap2\n      pop\n      pop\n      jump\t// out\n        /* \"#utility.yul\":8172:8538   */\n    tag_424:\n        /* \"#utility.yul\":8314:8317   */\n      0x00\n        /* \"#utility.yul\":8335:8402   */\n      tag_426\n        /* \"#utility.yul\":8399:8401   */\n      0x2d\n        /* \"#utility.yul\":8394:8397   */\n      dup4\n        /* \"#utility.yul\":8335:8402   */\n      tag_415\n      jump\t// in\n    tag_426:\n        /* \"#utility.yul\":8328:8402   */\n      swap2\n      pop\n        /* \"#utility.yul\":8411:8504   */\n      tag_427\n        /* \"#utility.yul\":8500:8503   */\n      dup3\n        /* \"#utility.yul\":8411:8504   */\n      tag_428\n      jump\t// in\n    tag_427:\n        /* \"#utility.yul\":8529:8531   */\n      0x40\n        /* \"#utility.yul\":8524:8527   */\n      dup3\n        /* \"#utility.yul\":8520:8532   */\n      add\n        /* \"#utility.yul\":8513:8532   */\n      swap1\n      pop\n        /* \"#utility.yul\":8318:8538   */\n      swap2\n      swap1\n      pop\n      jump\t// out\n        /* \"#utility.yul\":8544:8910   */\n    tag_429:\n        /* \"#utility.yul\":8686:8689   */\n      0x00\n        /* \"#utility.yul\":8707:8774   */\n      tag_431\n        /* \"#utility.yul\":8771:8773   */\n      0x32\n        /* \"#utility.yul\":8766:8769   */\n      dup4\n        /* \"#utility.yul\":8707:8774   */\n      tag_415\n      jump\t// in\n    tag_431:\n        /* \"#utility.yul\":8700:8774   */\n      swap2\n      pop\n        /* \"#utility.yul\":8783:8876   */\n      tag_432\n        /* \"#utility.yul\":8872:8875   */\n      dup3\n        /* \"#utility.yul\":8783:8876   */\n      tag_433\n      jump\t// in\n    tag_432:\n        /* \"#utility.yul\":8901:8903   */\n      0x40\n        /* \"#utility.yul\":8896:8899   */\n      dup3\n        /* \"#utility.yul\":8892:8904   */\n      add\n        /* \"#utility.yul\":8885:8904   */\n      swap1\n      pop\n        /* \"#utility.yul\":8690:8910   */\n      swap2\n      swap1\n      pop\n      jump\t// out\n        /* \"#utility.yul\":8916:9282   */\n    tag_434:\n        /* \"#utility.yul\":9058:9061   */\n      0x00\n        /* \"#utility.yul\":9079:9146   */\n      tag_436\n        /* \"#utility.yul\":9143:9145   */\n      0x25\n        /* \"#utility.yul\":9138:9141   */\n      dup4\n        /* \"#utility.yul\":9079:9146   */\n      tag_415\n      jump\t// in\n    tag_436:\n        /* \"#utility.yul\":9072:9146   */\n      swap2\n      pop\n        /* \"#utility.yul\":9155:9248   */\n      tag_437\n        /* \"#utility.yul\":9244:9247   */\n      dup3\n        /* \"#utility.yul\":9155:9248   */\n      tag_438\n      jump\t// in\n    tag_437:\n        /* \"#utility.yul\":9273:9275   */\n      0x40\n        /* \"#utility.yul\":9268:9271   */\n      dup3\n        /* \"#utility.yul\":9264:9276   */\n      add\n        /* \"#utility.yul\":9257:9276   */\n      swap1\n      pop\n        /* \"#utility.yul\":9062:9282   */\n      swap2\n      swap1\n      pop\n      jump\t// out\n        /* \"#utility.yul\":9288:9654   */\n    tag_439:\n        /* \"#utility.yul\":9430:9433   */\n      0x00\n        /* \"#utility.yul\":9451:9518   */\n      tag_441\n        /* \"#utility.yul\":9515:9517   */\n      0x1c\n        /* \"#utility.yul\":9510:9513   */\n      dup4\n        /* \"#utility.yul\":9451:9518   */\n      tag_415\n      jump\t// in\n    tag_441:\n        /* \"#utility.yul\":9444:9518   */\n      swap2\n      pop\n        /* \"#utility.yul\":9527:9620   */\n      tag_442\n        /* \"#utility.yul\":9616:9619   */\n      dup3\n        /* \"#utility.yul\":9527:9620   */\n      tag_443\n      jump\t// in\n    tag_442:\n        /* \"#utility.yul\":9645:9647   */\n      0x20\n        /* \"#utility.yul\":9640:9643   */\n      dup3\n        /* \"#utility.yul\":9636:9648   */\n      add\n        /* \"#utility.yul\":9629:9648   */\n      swap1\n      pop\n        /* \"#utility.yul\":9434:9654   */\n      swap2\n      swap1\n      pop\n      jump\t// out\n        /* \"#utility.yul\":9660:10026   */\n    tag_444:\n        /* \"#utility.yul\":9802:9805   */\n      0x00\n        /* \"#utility.yul\":9823:9890   */\n      tag_446\n        /* \"#utility.yul\":9887:9889   */\n      0x24\n        /* \"#utility.yul\":9882:9885   */\n      dup4\n        /* \"#utility.yul\":9823:9890   */\n      tag_415\n      jump\t// in\n    tag_446:\n        /* \"#utility.yul\":9816:9890   */\n      swap2\n      pop\n        /* \"#utility.yul\":9899:9992   */\n      tag_447\n        /* \"#utility.yul\":9988:9991   */\n      dup3\n        /* \"#utility.yul\":9899:9992   */\n      tag_448\n      jump\t// in\n    tag_447:\n        /* \"#utility.yul\":10017:10019   */\n      0x40\n        /* \"#utility.yul\":10012:10015   */\n      dup3\n        /* \"#utility.yul\":10008:10020   */\n      add\n        /* \"#utility.yul\":10001:10020   */\n      swap1\n      pop\n        /* \"#utility.yul\":9806:10026   */\n      swap2\n      swap1\n      pop\n      jump\t// out\n        /* \"#utility.yul\":10032:10398   */\n    tag_449:\n        /* \"#utility.yul\":10174:10177   */\n      0x00\n        /* \"#utility.yul\":10195:10262   */\n      tag_451\n        /* \"#utility.yul\":10259:10261   */\n      0x19\n        /* \"#utility.yul\":10254:10257   */\n      dup4\n        /* \"#utility.yul\":10195:10262   */\n      tag_415\n      jump\t// in\n    tag_451:\n        /* \"#utility.yul\":10188:10262   */\n      swap2\n      pop\n        /* \"#utility.yul\":10271:10364   */\n      tag_452\n        /* \"#utility.yul\":10360:10363   */\n      dup3\n        /* \"#utility.yul\":10271:10364   */\n      tag_453\n      jump\t// in\n    tag_452:\n        /* \"#utility.yul\":10389:10391   */\n      0x20\n        /* \"#utility.yul\":10384:10387   */\n      dup3\n        /* \"#utility.yul\":10380:10392   */\n      add\n        /* \"#utility.yul\":10373:10392   */\n      swap1\n      pop\n        /* \"#utility.yul\":10178:10398   */\n      swap2\n      swap1\n      pop\n      jump\t// out\n        /* \"#utility.yul\":10404:10770   */\n    tag_454:\n        /* \"#utility.yul\":10546:10549   */\n      0x00\n        /* \"#utility.yul\":10567:10634   */\n      tag_456\n        /* \"#utility.yul\":10631:10633   */\n      0x29\n        /* \"#utility.yul\":10626:10629   */\n      dup4\n        /* \"#utility.yul\":10567:10634   */\n      tag_415\n      jump\t// in\n    tag_456:\n        /* \"#utility.yul\":10560:10634   */\n      swap2\n      pop\n        /* \"#utility.yul\":10643:10736   */\n      tag_457\n        /* \"#utility.yul\":10732:10735   */\n      dup3\n        /* \"#utility.yul\":10643:10736   */\n      tag_458\n      jump\t// in\n    tag_457:\n        /* \"#utility.yul\":10761:10763   */\n      0x40\n        /* \"#utility.yul\":10756:10759   */\n      dup3\n        /* \"#utility.yul\":10752:10764   */\n      add\n        /* \"#utility.yul\":10745:10764   */\n      swap1\n      pop\n        /* \"#utility.yul\":10550:10770   */\n      swap2\n      swap1\n      pop\n      jump\t// out\n        /* \"#utility.yul\":10776:11142   */\n    tag_459:\n        /* \"#utility.yul\":10918:10921   */\n      0x00\n        /* \"#utility.yul\":10939:11006   */\n      tag_461\n        /* \"#utility.yul\":11003:11005   */\n      0x20\n        /* \"#utility.yul\":10998:11001   */\n      dup4\n        /* \"#utility.yul\":10939:11006   */\n      tag_415\n      jump\t// in\n    tag_461:\n        /* \"#utility.yul\":10932:11006   */\n      swap2\n      pop\n        /* \"#utility.yul\":11015:11108   */\n      tag_462\n        /* \"#utility.yul\":11104:11107   */\n      dup3\n        /* \"#utility.yul\":11015:11108   */\n      tag_463\n      jump\t// in\n    tag_462:\n        /* \"#utility.yul\":11133:11135   */\n      0x20\n        /* \"#utility.yul\":11128:11131   */\n      dup3\n        /* \"#utility.yul\":11124:11136   */\n      add\n        /* \"#utility.yul\":11117:11136   */\n      swap1\n      pop\n        /* \"#utility.yul\":10922:11142   */\n      swap2\n      swap1\n      pop\n      jump\t// out\n        /* \"#utility.yul\":11148:11514   */\n    tag_464:\n        /* \"#utility.yul\":11290:11293   */\n      0x00\n        /* \"#utility.yul\":11311:11378   */\n      tag_466\n        /* \"#utility.yul\":11375:11377   */\n      0x18\n        /* \"#utility.yul\":11370:11373   */\n      dup4\n        /* \"#utility.yul\":11311:11378   */\n      tag_415\n      jump\t// in\n    tag_466:\n        /* \"#utility.yul\":11304:11378   */\n      swap2\n      pop\n        /* \"#utility.yul\":11387:11480   */\n      tag_467\n        /* \"#utility.yul\":11476:11479   */\n      dup3\n        /* \"#utility.yul\":11387:11480   */\n      tag_468\n      jump\t// in\n    tag_467:\n        /* \"#utility.yul\":11505:11507   */\n      0x20\n        /* \"#utility.yul\":11500:11503   */\n      dup3\n        /* \"#utility.yul\":11496:11508   */\n      add\n        /* \"#utility.yul\":11489:11508   */\n      swap1\n      pop\n        /* \"#utility.yul\":11294:11514   */\n      swap2\n      swap1\n      pop\n      jump\t// out\n        /* \"#utility.yul\":11520:11886   */\n    tag_469:\n        /* \"#utility.yul\":11662:11665   */\n      0x00\n        /* \"#utility.yul\":11683:11750   */\n      tag_471\n        /* \"#utility.yul\":11747:11749   */\n      0x21\n        /* \"#utility.yul\":11742:11745   */\n      dup4\n        /* \"#utility.yul\":11683:11750   */\n      tag_415\n      jump\t// in\n    tag_471:\n        /* \"#utility.yul\":11676:11750   */\n      swap2\n      pop\n        /* \"#utility.yul\":11759:11852   */\n      tag_472\n        /* \"#utility.yul\":11848:11851   */\n      dup3\n        /* \"#utility.yul\":11759:11852   */\n      tag_473\n      jump\t// in\n    tag_472:\n        /* \"#utility.yul\":11877:11879   */\n      0x40\n        /* \"#utility.yul\":11872:11875   */\n      dup3\n        /* \"#utility.yul\":11868:11880   */\n      add\n        /* \"#utility.yul\":11861:11880   */\n      swap1\n      pop\n        /* \"#utility.yul\":11666:11886   */\n      swap2\n      swap1\n      pop\n      jump\t// out\n        /* \"#utility.yul\":11892:12258   */\n    tag_474:\n        /* \"#utility.yul\":12034:12037   */\n      0x00\n        /* \"#utility.yul\":12055:12122   */\n      tag_476\n        /* \"#utility.yul\":12119:12121   */\n      0x3d\n        /* \"#utility.yul\":12114:12117   */\n      dup4\n        /* \"#utility.yul\":12055:12122   */\n      tag_415\n      jump\t// in\n    tag_476:\n        /* \"#utility.yul\":12048:12122   */\n      swap2\n      pop\n        /* \"#utility.yul\":12131:12224   */\n      tag_477\n        /* \"#utility.yul\":12220:12223   */\n      dup3\n        /* \"#utility.yul\":12131:12224   */\n      tag_478\n      jump\t// in\n    tag_477:\n        /* \"#utility.yul\":12249:12251   */\n      0x40\n        /* \"#utility.yul\":12244:12247   */\n      dup3\n        /* \"#utility.yul\":12240:12252   */\n      add\n        /* \"#utility.yul\":12233:12252   */\n      swap1\n      pop\n        /* \"#utility.yul\":12038:12258   */\n      swap2\n      swap1\n      pop\n      jump\t// out\n        /* \"#utility.yul\":12264:12382   */\n    tag_479:\n        /* \"#utility.yul\":12351:12375   */\n      tag_481\n        /* \"#utility.yul\":12369:12374   */\n      dup2\n        /* \"#utility.yul\":12351:12375   */\n      tag_482\n      jump\t// in\n    tag_481:\n        /* \"#utility.yul\":12346:12349   */\n      dup3\n        /* \"#utility.yul\":12339:12376   */\n      mstore\n        /* \"#utility.yul\":12329:12382   */\n      pop\n      pop\n      jump\t// out\n        /* \"#utility.yul\":12388:12823   */\n    tag_174:\n        /* \"#utility.yul\":12568:12571   */\n      0x00\n        /* \"#utility.yul\":12590:12685   */\n      tag_484\n        /* \"#utility.yul\":12681:12684   */\n      dup3\n        /* \"#utility.yul\":12672:12678   */\n      dup6\n        /* \"#utility.yul\":12590:12685   */\n      tag_418\n      jump\t// in\n    tag_484:\n        /* \"#utility.yul\":12583:12685   */\n      swap2\n      pop\n        /* \"#utility.yul\":12702:12797   */\n      tag_485\n        /* \"#utility.yul\":12793:12796   */\n      dup3\n        /* \"#utility.yul\":12784:12790   */\n      dup5\n        /* \"#utility.yul\":12702:12797   */\n      tag_418\n      jump\t// in\n    tag_485:\n        /* \"#utility.yul\":12695:12797   */\n      swap2\n      pop\n        /* \"#utility.yul\":12814:12817   */\n      dup2\n        /* \"#utility.yul\":12807:12817   */\n      swap1\n      pop\n        /* \"#utility.yul\":12572:12823   */\n      swap4\n      swap3\n      pop\n      pop\n      pop\n      jump\t// out\n        /* \"#utility.yul\":12829:13051   */\n    tag_37:\n        /* \"#utility.yul\":12922:12926   */\n      0x00\n        /* \"#utility.yul\":12960:12962   */\n      0x20\n        /* \"#utility.yul\":12949:12958   */\n      dup3\n        /* \"#utility.yul\":12945:12963   */\n      add\n        /* \"#utility.yul\":12937:12963   */\n      swap1\n      pop\n        /* \"#utility.yul\":12973:13044   */\n      tag_487\n        /* \"#utility.yul\":13041:13042   */\n      0x00\n        /* \"#utility.yul\":13030:13039   */\n      dup4\n        /* \"#utility.yul\":13026:13043   */\n      add\n        /* \"#utility.yul\":13017:13023   */\n      dup5\n        /* \"#utility.yul\":12973:13044   */\n      tag_392\n      jump\t// in\n    tag_487:\n        /* \"#utility.yul\":12927:13051   */\n      swap3\n      swap2\n      pop\n      pop\n      jump\t// out\n        /* \"#utility.yul\":13057:13697   */\n    tag_261:\n        /* \"#utility.yul\":13252:13256   */\n      0x00\n        /* \"#utility.yul\":13290:13293   */\n      0x80\n        /* \"#utility.yul\":13279:13288   */\n      dup3\n        /* \"#utility.yul\":13275:13294   */\n      add\n        /* \"#utility.yul\":13267:13294   */\n      swap1\n      pop\n        /* \"#utility.yul\":13304:13375   */\n      tag_489\n        /* \"#utility.yul\":13372:13373   */\n      0x00\n        /* \"#utility.yul\":13361:13370   */\n      dup4\n        /* \"#utility.yul\":13357:13374   */\n      add\n        /* \"#utility.yul\":13348:13354   */\n      dup8\n        /* \"#utility.yul\":13304:13375   */\n      tag_392\n      jump\t// in\n    tag_489:\n        /* \"#utility.yul\":13385:13457   */\n      tag_490\n        /* \"#utility.yul\":13453:13455   */\n      0x20\n        /* \"#utility.yul\":13442:13451   */\n      dup4\n        /* \"#utility.yul\":13438:13456   */\n      add\n        /* \"#utility.yul\":13429:13435   */\n      dup7\n        /* \"#utility.yul\":13385:13457   */\n      tag_392\n      jump\t// in\n    tag_490:\n        /* \"#utility.yul\":13467:13539   */\n      tag_491\n        /* \"#utility.yul\":13535:13537   */\n      0x40\n        /* \"#utility.yul\":13524:13533   */\n      dup4\n        /* \"#utility.yul\":13520:13538   */\n      add\n        /* \"#utility.yul\":13511:13517   */\n      dup6\n        /* \"#utility.yul\":13467:13539   */\n      tag_479\n      jump\t// in\n    tag_491:\n        /* \"#utility.yul\":13586:13595   */\n      dup2\n        /* \"#utility.yul\":13580:13584   */\n      dup2\n        /* \"#utility.yul\":13576:13596   */\n      sub\n        /* \"#utility.yul\":13571:13573   */\n      0x60\n        /* \"#utility.yul\":13560:13569   */\n      dup4\n        /* \"#utility.yul\":13556:13574   */\n      add\n        /* \"#utility.yul\":13549:13597   */\n      mstore\n        /* \"#utility.yul\":13614:13690   */\n      tag_492\n        /* \"#utility.yul\":13685:13689   */\n      dup2\n        /* \"#utility.yul\":13676:13682   */\n      dup5\n        /* \"#utility.yul\":13614:13690   */\n      tag_400\n      jump\t// in\n    tag_492:\n        /* \"#utility.yul\":13606:13690   */\n      swap1\n      pop\n        /* \"#utility.yul\":13257:13697   */\n      swap6\n      swap5\n      pop\n      pop\n      pop\n      pop\n      pop\n      jump\t// out\n        /* \"#utility.yul\":13703:13913   */\n    tag_27:\n        /* \"#utility.yul\":13790:13794   */\n      0x00\n        /* \"#utility.yul\":13828:13830   */\n      0x20\n        /* \"#utility.yul\":13817:13826   */\n      dup3\n        /* \"#utility.yul\":13813:13831   */\n      add\n        /* \"#utility.yul\":13805:13831   */\n      swap1\n      pop\n        /* \"#utility.yul\":13841:13906   */\n      tag_494\n        /* \"#utility.yul\":13903:13904   */\n      0x00\n        /* \"#utility.yul\":13892:13901   */\n      dup4\n        /* \"#utility.yul\":13888:13905   */\n      add\n        /* \"#utility.yul\":13879:13885   */\n      dup5\n        /* \"#utility.yul\":13841:13906   */\n      tag_396\n      jump\t// in\n    tag_494:\n        /* \"#utility.yul\":13795:13913   */\n      swap3\n      swap2\n      pop\n      pop\n      jump\t// out\n        /* \"#utility.yul\":13919:14232   */\n    tag_31:\n        /* \"#utility.yul\":14032:14036   */\n      0x00\n        /* \"#utility.yul\":14070:14072   */\n      0x20\n        /* \"#utility.yul\":14059:14068   */\n      dup3\n        /* \"#utility.yul\":14055:14073   */\n      add\n        /* \"#utility.yul\":14047:14073   */\n      swap1\n      pop\n        /* \"#utility.yul\":14119:14128   */\n      dup2\n        /* \"#utility.yul\":14113:14117   */\n      dup2\n        /* \"#utility.yul\":14109:14129   */\n      sub\n        /* \"#utility.yul\":14105:14106   */\n      0x00\n        /* \"#utility.yul\":14094:14103   */\n      dup4\n        /* \"#utility.yul\":14090:14107   */\n      add\n        /* \"#utility.yul\":14083:14130   */\n      mstore\n        /* \"#utility.yul\":14147:14225   */\n      tag_496\n        /* \"#utility.yul\":14220:14224   */\n      dup2\n        /* \"#utility.yul\":14211:14217   */\n      dup5\n        /* \"#utility.yul\":14147:14225   */\n      tag_410\n      jump\t// in\n    tag_496:\n        /* \"#utility.yul\":14139:14225   */\n      swap1\n      pop\n        /* \"#utility.yul\":14037:14232   */\n      swap3\n      swap2\n      pop\n      pop\n      jump\t// out\n        /* \"#utility.yul\":14238:14657   */\n    tag_127:\n        /* \"#utility.yul\":14404:14408   */\n      0x00\n        /* \"#utility.yul\":14442:14444   */\n      0x20\n        /* \"#utility.yul\":14431:14440   */\n      dup3\n        /* \"#utility.yul\":14427:14445   */\n      add\n        /* \"#utility.yul\":14419:14445   */\n      swap1\n      pop\n        /* \"#utility.yul\":14491:14500   */\n      dup2\n        /* \"#utility.yul\":14485:14489   */\n      dup2\n        /* \"#utility.yul\":14481:14501   */\n      sub\n        /* \"#utility.yul\":14477:14478   */\n      0x00\n        /* \"#utility.yul\":14466:14475   */\n      dup4\n        /* \"#utility.yul\":14462:14479   */\n      add\n        /* \"#utility.yul\":14455:14502   */\n      mstore\n        /* \"#utility.yul\":14519:14650   */\n      tag_498\n        /* \"#utility.yul\":14645:14649   */\n      dup2\n        /* \"#utility.yul\":14519:14650   */\n      tag_424\n      jump\t// in\n    tag_498:\n        /* \"#utility.yul\":14511:14650   */\n      swap1\n      pop\n        /* \"#utility.yul\":14409:14657   */\n      swap2\n      swap1\n      pop\n      jump\t// out\n        /* \"#utility.yul\":14663:15082   */\n    tag_224:\n        /* \"#utility.yul\":14829:14833   */\n      0x00\n        /* \"#utility.yul\":14867:14869   */\n      0x20\n        /* \"#utility.yul\":14856:14865   */\n      dup3\n        /* \"#utility.yul\":14852:14870   */\n      add\n        /* \"#utility.yul\":14844:14870   */\n      swap1\n      pop\n        /* \"#utility.yul\":14916:14925   */\n      dup2\n        /* \"#utility.yul\":14910:14914   */\n      dup2\n        /* \"#utility.yul\":14906:14926   */\n      sub\n        /* \"#utility.yul\":14902:14903   */\n      0x00\n        /* \"#utility.yul\":14891:14900   */\n      dup4\n        /* \"#utility.yul\":14887:14904   */\n      add\n        /* \"#utility.yul\":14880:14927   */\n      mstore\n        /* \"#utility.yul\":14944:15075   */\n      tag_500\n        /* \"#utility.yul\":15070:15074   */\n      dup2\n        /* \"#utility.yul\":14944:15075   */\n      tag_429\n      jump\t// in\n    tag_500:\n        /* \"#utility.yul\":14936:15075   */\n      swap1\n      pop\n        /* \"#utility.yul\":14834:15082   */\n      swap2\n      swap1\n      pop\n      jump\t// out\n        /* \"#utility.yul\":15088:15507   */\n    tag_196:\n        /* \"#utility.yul\":15254:15258   */\n      0x00\n        /* \"#utility.yul\":15292:15294   */\n      0x20\n        /* \"#utility.yul\":15281:15290   */\n      dup3\n        /* \"#utility.yul\":15277:15295   */\n      add\n        /* \"#utility.yul\":15269:15295   */\n      swap1\n      pop\n        /* \"#utility.yul\":15341:15350   */\n      dup2\n        /* \"#utility.yul\":15335:15339   */\n      dup2\n        /* \"#utility.yul\":15331:15351   */\n      sub\n        /* \"#utility.yul\":15327:15328   */\n      0x00\n        /* \"#utility.yul\":15316:15325   */\n      dup4\n        /* \"#utility.yul\":15312:15329   */\n      add\n        /* \"#utility.yul\":15305:15352   */\n      mstore\n        /* \"#utility.yul\":15369:15500   */\n      tag_502\n        /* \"#utility.yul\":15495:15499   */\n      dup2\n        /* \"#utility.yul\":15369:15500   */\n      tag_434\n      jump\t// in\n    tag_502:\n        /* \"#utility.yul\":15361:15500   */\n      swap1\n      pop\n        /* \"#utility.yul\":15259:15507   */\n      swap2\n      swap1\n      pop\n      jump\t// out\n        /* \"#utility.yul\":15513:15932   */\n    tag_286:\n        /* \"#utility.yul\":15679:15683   */\n      0x00\n        /* \"#utility.yul\":15717:15719   */\n      0x20\n        /* \"#utility.yul\":15706:15715   */\n      dup3\n        /* \"#utility.yul\":15702:15720   */\n      add\n        /* \"#utility.yul\":15694:15720   */\n      swap1\n      pop\n        /* \"#utility.yul\":15766:15775   */\n      dup2\n        /* \"#utility.yul\":15760:15764   */\n      dup2\n        /* \"#utility.yul\":15756:15776   */\n      sub\n        /* \"#utility.yul\":15752:15753   */\n      0x00\n        /* \"#utility.yul\":15741:15750   */\n      dup4\n        /* \"#utility.yul\":15737:15754   */\n      add\n        /* \"#utility.yul\":15730:15777   */\n      mstore\n        /* \"#utility.yul\":15794:15925   */\n      tag_504\n        /* \"#utility.yul\":15920:15924   */\n      dup2\n        /* \"#utility.yul\":15794:15925   */\n      tag_439\n      jump\t// in\n    tag_504:\n        /* \"#utility.yul\":15786:15925   */\n      swap1\n      pop\n        /* \"#utility.yul\":15684:15932   */\n      swap2\n      swap1\n      pop\n      jump\t// out\n        /* \"#utility.yul\":15938:16357   */\n    tag_199:\n        /* \"#utility.yul\":16104:16108   */\n      0x00\n        /* \"#utility.yul\":16142:16144   */\n      0x20\n        /* \"#utility.yul\":16131:16140   */\n      dup3\n        /* \"#utility.yul\":16127:16145   */\n      add\n        /* \"#utility.yul\":16119:16145   */\n      swap1\n      pop\n        /* \"#utility.yul\":16191:16200   */\n      dup2\n        /* \"#utility.yul\":16185:16189   */\n      dup2\n        /* \"#utility.yul\":16181:16201   */\n      sub\n        /* \"#utility.yul\":16177:16178   */\n      0x00\n        /* \"#utility.yul\":16166:16175   */\n      dup4\n        /* \"#utility.yul\":16162:16179   */\n      add\n        /* \"#utility.yul\":16155:16202   */\n      mstore\n        /* \"#utility.yul\":16219:16350   */\n      tag_506\n        /* \"#utility.yul\":16345:16349   */\n      dup2\n        /* \"#utility.yul\":16219:16350   */\n      tag_444\n      jump\t// in\n    tag_506:\n        /* \"#utility.yul\":16211:16350   */\n      swap1\n      pop\n        /* \"#utility.yul\":16109:16357   */\n      swap2\n      swap1\n      pop\n      jump\t// out\n        /* \"#utility.yul\":16363:16782   */\n    tag_216:\n        /* \"#utility.yul\":16529:16533   */\n      0x00\n        /* \"#utility.yul\":16567:16569   */\n      0x20\n        /* \"#utility.yul\":16556:16565   */\n      dup3\n        /* \"#utility.yul\":16552:16570   */\n      add\n        /* \"#utility.yul\":16544:16570   */\n      swap1\n      pop\n        /* \"#utility.yul\":16616:16625   */\n      dup2\n        /* \"#utility.yul\":16610:16614   */\n      dup2\n        /* \"#utility.yul\":16606:16626   */\n      sub\n        /* \"#utility.yul\":16602:16603   */\n      0x00\n        /* \"#utility.yul\":16591:16600   */\n      dup4\n        /* \"#utility.yul\":16587:16604   */\n      add\n        /* \"#utility.yul\":16580:16627   */\n      mstore\n        /* \"#utility.yul\":16644:16775   */\n      tag_508\n        /* \"#utility.yul\":16770:16774   */\n      dup2\n        /* \"#utility.yul\":16644:16775   */\n      tag_449\n      jump\t// in\n    tag_508:\n        /* \"#utility.yul\":16636:16775   */\n      swap1\n      pop\n        /* \"#utility.yul\":16534:16782   */\n      swap2\n      swap1\n      pop\n      jump\t// out\n        /* \"#utility.yul\":16788:17207   */\n    tag_142:\n        /* \"#utility.yul\":16954:16958   */\n      0x00\n        /* \"#utility.yul\":16992:16994   */\n      0x20\n        /* \"#utility.yul\":16981:16990   */\n      dup3\n        /* \"#utility.yul\":16977:16995   */\n      add\n        /* \"#utility.yul\":16969:16995   */\n      swap1\n      pop\n        /* \"#utility.yul\":17041:17050   */\n      dup2\n        /* \"#utility.yul\":17035:17039   */\n      dup2\n        /* \"#utility.yul\":17031:17051   */\n      sub\n        /* \"#utility.yul\":17027:17028   */\n      0x00\n        /* \"#utility.yul\":17016:17025   */\n      dup4\n        /* \"#utility.yul\":17012:17029   */\n      add\n        /* \"#utility.yul\":17005:17052   */\n      mstore\n        /* \"#utility.yul\":17069:17200   */\n      tag_510\n        /* \"#utility.yul\":17195:17199   */\n      dup2\n        /* \"#utility.yul\":17069:17200   */\n      tag_454\n      jump\t// in\n    tag_510:\n        /* \"#utility.yul\":17061:17200   */\n      swap1\n      pop\n        /* \"#utility.yul\":16959:17207   */\n      swap2\n      swap1\n      pop\n      jump\t// out\n        /* \"#utility.yul\":17213:17632   */\n    tag_280:\n        /* \"#utility.yul\":17379:17383   */\n      0x00\n        /* \"#utility.yul\":17417:17419   */\n      0x20\n        /* \"#utility.yul\":17406:17415   */\n      dup3\n        /* \"#utility.yul\":17402:17420   */\n      add\n        /* \"#utility.yul\":17394:17420   */\n      swap1\n      pop\n        /* \"#utility.yul\":17466:17475   */\n      dup2\n        /* \"#utility.yul\":17460:17464   */\n      dup2\n        /* \"#utility.yul\":17456:17476   */\n      sub\n        /* \"#utility.yul\":17452:17453   */\n      0x00\n        /* \"#utility.yul\":17441:17450   */\n      dup4\n        /* \"#utility.yul\":17437:17454   */\n      add\n        /* \"#utility.yul\":17430:17477   */\n      mstore\n        /* \"#utility.yul\":17494:17625   */\n      tag_512\n        /* \"#utility.yul\":17620:17624   */\n      dup2\n        /* \"#utility.yul\":17494:17625   */\n      tag_459\n      jump\t// in\n    tag_512:\n        /* \"#utility.yul\":17486:17625   */\n      swap1\n      pop\n        /* \"#utility.yul\":17384:17632   */\n      swap2\n      swap1\n      pop\n      jump\t// out\n        /* \"#utility.yul\":17638:18057   */\n    tag_135:\n        /* \"#utility.yul\":17804:17808   */\n      0x00\n        /* \"#utility.yul\":17842:17844   */\n      0x20\n        /* \"#utility.yul\":17831:17840   */\n      dup3\n        /* \"#utility.yul\":17827:17845   */\n      add\n        /* \"#utility.yul\":17819:17845   */\n      swap1\n      pop\n        /* \"#utility.yul\":17891:17900   */\n      dup2\n        /* \"#utility.yul\":17885:17889   */\n      dup2\n        /* \"#utility.yul\":17881:17901   */\n      sub\n        /* \"#utility.yul\":17877:17878   */\n      0x00\n        /* \"#utility.yul\":17866:17875   */\n      dup4\n        /* \"#utility.yul\":17862:17879   */\n      add\n        /* \"#utility.yul\":17855:17902   */\n      mstore\n        /* \"#utility.yul\":17919:18050   */\n      tag_514\n        /* \"#utility.yul\":18045:18049   */\n      dup2\n        /* \"#utility.yul\":17919:18050   */\n      tag_464\n      jump\t// in\n    tag_514:\n        /* \"#utility.yul\":17911:18050   */\n      swap1\n      pop\n        /* \"#utility.yul\":17809:18057   */\n      swap2\n      swap1\n      pop\n      jump\t// out\n        /* \"#utility.yul\":18063:18482   */\n    tag_110:\n        /* \"#utility.yul\":18229:18233   */\n      0x00\n        /* \"#utility.yul\":18267:18269   */\n      0x20\n        /* \"#utility.yul\":18256:18265   */\n      dup3\n        /* \"#utility.yul\":18252:18270   */\n      add\n        /* \"#utility.yul\":18244:18270   */\n      swap1\n      pop\n        /* \"#utility.yul\":18316:18325   */\n      dup2\n        /* \"#utility.yul\":18310:18314   */\n      dup2\n        /* \"#utility.yul\":18306:18326   */\n      sub\n        /* \"#utility.yul\":18302:18303   */\n      0x00\n        /* \"#utility.yul\":18291:18300   */\n      dup4\n        /* \"#utility.yul\":18287:18304   */\n      add\n        /* \"#utility.yul\":18280:18327   */\n      mstore\n        /* \"#utility.yul\":18344:18475   */\n      tag_516\n        /* \"#utility.yul\":18470:18474   */\n      dup2\n        /* \"#utility.yul\":18344:18475   */\n      tag_469\n      jump\t// in\n    tag_516:\n        /* \"#utility.yul\":18336:18475   */\n      swap1\n      pop\n        /* \"#utility.yul\":18234:18482   */\n      swap2\n      swap1\n      pop\n      jump\t// out\n        /* \"#utility.yul\":18488:18907   */\n    tag_118:\n        /* \"#utility.yul\":18654:18658   */\n      0x00\n        /* \"#utility.yul\":18692:18694   */\n      0x20\n        /* \"#utility.yul\":18681:18690   */\n      dup3\n        /* \"#utility.yul\":18677:18695   */\n      add\n        /* \"#utility.yul\":18669:18695   */\n      swap1\n      pop\n        /* \"#utility.yul\":18741:18750   */\n      dup2\n        /* \"#utility.yul\":18735:18739   */\n      dup2\n        /* \"#utility.yul\":18731:18751   */\n      sub\n        /* \"#utility.yul\":18727:18728   */\n      0x00\n        /* \"#utility.yul\":18716:18725   */\n      dup4\n        /* \"#utility.yul\":18712:18729   */\n      add\n        /* \"#utility.yul\":18705:18752   */\n      mstore\n        /* \"#utility.yul\":18769:18900   */\n      tag_518\n        /* \"#utility.yul\":18895:18899   */\n      dup2\n        /* \"#utility.yul\":18769:18900   */\n      tag_474\n      jump\t// in\n    tag_518:\n        /* \"#utility.yul\":18761:18900   */\n      swap1\n      pop\n        /* \"#utility.yul\":18659:18907   */\n      swap2\n      swap1\n      pop\n      jump\t// out\n        /* \"#utility.yul\":18913:19135   */\n    tag_62:\n        /* \"#utility.yul\":19006:19010   */\n      0x00\n        /* \"#utility.yul\":19044:19046   */\n      0x20\n        /* \"#utility.yul\":19033:19042   */\n      dup3\n        /* \"#utility.yul\":19029:19047   */\n      add\n        /* \"#utility.yul\":19021:19047   */\n      swap1\n      pop\n        /* \"#utility.yul\":19057:19128   */\n      tag_520\n        /* \"#utility.yul\":19125:19126   */\n      0x00\n        /* \"#utility.yul\":19114:19123   */\n      dup4\n        /* \"#utility.yul\":19110:19127   */\n      add\n        /* \"#utility.yul\":19101:19107   */\n      dup5\n        /* \"#utility.yul\":19057:19128   */\n      tag_479\n      jump\t// in\n    tag_520:\n        /* \"#utility.yul\":19011:19135   */\n      swap3\n      swap2\n      pop\n      pop\n      jump\t// out\n        /* \"#utility.yul\":19141:19270   */\n    tag_309:\n        /* \"#utility.yul\":19175:19181   */\n      0x00\n        /* \"#utility.yul\":19202:19222   */\n      tag_522\n      tag_523\n      jump\t// in\n    tag_522:\n        /* \"#utility.yul\":19192:19222   */\n      swap1\n      pop\n        /* \"#utility.yul\":19231:19264   */\n      tag_524\n        /* \"#utility.yul\":19259:19263   */\n      dup3\n        /* \"#utility.yul\":19251:19257   */\n      dup3\n        /* \"#utility.yul\":19231:19264   */\n      tag_525\n      jump\t// in\n    tag_524:\n        /* \"#utility.yul\":19182:19270   */\n      swap2\n      swap1\n      pop\n      jump\t// out\n        /* \"#utility.yul\":19276:19351   */\n    tag_523:\n        /* \"#utility.yul\":19309:19315   */\n      0x00\n        /* \"#utility.yul\":19342:19344   */\n      0x40\n        /* \"#utility.yul\":19336:19345   */\n      mload\n        /* \"#utility.yul\":19326:19345   */\n      swap1\n      pop\n        /* \"#utility.yul\":19316:19351   */\n      swap1\n      jump\t// out\n        /* \"#utility.yul\":19357:19664   */\n    tag_308:\n        /* \"#utility.yul\":19418:19422   */\n      0x00\n        /* \"#utility.yul\":19508:19526   */\n      0xffffffffffffffff\n        /* \"#utility.yul\":19500:19506   */\n      dup3\n        /* \"#utility.yul\":19497:19527   */\n      gt\n        /* \"#utility.yul\":19494:19496   */\n      iszero\n      tag_528\n      jumpi\n        /* \"#utility.yul\":19530:19548   */\n      tag_529\n      tag_530\n      jump\t// in\n    tag_529:\n        /* \"#utility.yul\":19494:19496   */\n    tag_528:\n        /* \"#utility.yul\":19568:19597   */\n      tag_531\n        /* \"#utility.yul\":19590:19596   */\n      dup3\n        /* \"#utility.yul\":19568:19597   */\n      tag_409\n      jump\t// in\n    tag_531:\n        /* \"#utility.yul\":19560:19597   */\n      swap1\n      pop\n        /* \"#utility.yul\":19652:19656   */\n      0x20\n        /* \"#utility.yul\":19646:19650   */\n      dup2\n        /* \"#utility.yul\":19642:19657   */\n      add\n        /* \"#utility.yul\":19634:19657   */\n      swap1\n      pop\n        /* \"#utility.yul\":19423:19664   */\n      swap2\n      swap1\n      pop\n      jump\t// out\n        /* \"#utility.yul\":19670:19978   */\n    tag_317:\n        /* \"#utility.yul\":19732:19736   */\n      0x00\n        /* \"#utility.yul\":19822:19840   */\n      0xffffffffffffffff\n        /* \"#utility.yul\":19814:19820   */\n      dup3\n        /* \"#utility.yul\":19811:19841   */\n      gt\n        /* \"#utility.yul\":19808:19810   */\n      iszero\n      tag_533\n      jumpi\n        /* \"#utility.yul\":19844:19862   */\n      tag_534\n      tag_530\n      jump\t// in\n    tag_534:\n        /* \"#utility.yul\":19808:19810   */\n    tag_533:\n        /* \"#utility.yul\":19882:19911   */\n      tag_535\n        /* \"#utility.yul\":19904:19910   */\n      dup3\n        /* \"#utility.yul\":19882:19911   */\n      tag_409\n      jump\t// in\n    tag_535:\n        /* \"#utility.yul\":19874:19911   */\n      swap1\n      pop\n        /* \"#utility.yul\":19966:19970   */\n      0x20\n        /* \"#utility.yul\":19960:19964   */\n      dup2\n        /* \"#utility.yul\":19956:19971   */\n      add\n        /* \"#utility.yul\":19948:19971   */\n      swap1\n      pop\n        /* \"#utility.yul\":19737:19978   */\n      swap2\n      swap1\n      pop\n      jump\t// out\n        /* \"#utility.yul\":19984:20082   */\n    tag_403:\n        /* \"#utility.yul\":20035:20041   */\n      0x00\n        /* \"#utility.yul\":20069:20074   */\n      dup2\n        /* \"#utility.yul\":20063:20075   */\n      mload\n        /* \"#utility.yul\":20053:20075   */\n      swap1\n      pop\n        /* \"#utility.yul\":20042:20082   */\n      swap2\n      swap1\n      pop\n      jump\t// out\n        /* \"#utility.yul\":20088:20187   */\n    tag_413:\n        /* \"#utility.yul\":20140:20146   */\n      0x00\n        /* \"#utility.yul\":20174:20179   */\n      dup2\n        /* \"#utility.yul\":20168:20180   */\n      mload\n        /* \"#utility.yul\":20158:20180   */\n      swap1\n      pop\n        /* \"#utility.yul\":20147:20187   */\n      swap2\n      swap1\n      pop\n      jump\t// out\n        /* \"#utility.yul\":20193:20361   */\n    tag_405:\n        /* \"#utility.yul\":20276:20287   */\n      0x00\n        /* \"#utility.yul\":20310:20316   */\n      dup3\n        /* \"#utility.yul\":20305:20308   */\n      dup3\n        /* \"#utility.yul\":20298:20317   */\n      mstore\n        /* \"#utility.yul\":20350:20354   */\n      0x20\n        /* \"#utility.yul\":20345:20348   */\n      dup3\n        /* \"#utility.yul\":20341:20355   */\n      add\n        /* \"#utility.yul\":20326:20355   */\n      swap1\n      pop\n        /* \"#utility.yul\":20288:20361   */\n      swap3\n      swap2\n      pop\n      pop\n      jump\t// out\n        /* \"#utility.yul\":20367:20536   */\n    tag_415:\n        /* \"#utility.yul\":20451:20462   */\n      0x00\n        /* \"#utility.yul\":20485:20491   */\n      dup3\n        /* \"#utility.yul\":20480:20483   */\n      dup3\n        /* \"#utility.yul\":20473:20492   */\n      mstore\n        /* \"#utility.yul\":20525:20529   */\n      0x20\n        /* \"#utility.yul\":20520:20523   */\n      dup3\n        /* \"#utility.yul\":20516:20530   */\n      add\n        /* \"#utility.yul\":20501:20530   */\n      swap1\n      pop\n        /* \"#utility.yul\":20463:20536   */\n      swap3\n      swap2\n      pop\n      pop\n      jump\t// out\n        /* \"#utility.yul\":20542:20690   */\n    tag_422:\n        /* \"#utility.yul\":20644:20655   */\n      0x00\n        /* \"#utility.yul\":20681:20684   */\n      dup2\n        /* \"#utility.yul\":20666:20684   */\n      swap1\n      pop\n        /* \"#utility.yul\":20656:20690   */\n      swap3\n      swap2\n      pop\n      pop\n      jump\t// out\n        /* \"#utility.yul\":20696:21001   */\n    tag_243:\n        /* \"#utility.yul\":20736:20739   */\n      0x00\n        /* \"#utility.yul\":20755:20775   */\n      tag_542\n        /* \"#utility.yul\":20773:20774   */\n      dup3\n        /* \"#utility.yul\":20755:20775   */\n      tag_482\n      jump\t// in\n    tag_542:\n        /* \"#utility.yul\":20750:20775   */\n      swap2\n      pop\n        /* \"#utility.yul\":20789:20809   */\n      tag_543\n        /* \"#utility.yul\":20807:20808   */\n      dup4\n        /* \"#utility.yul\":20789:20809   */\n      tag_482\n      jump\t// in\n    tag_543:\n        /* \"#utility.yul\":20784:20809   */\n      swap3\n      pop\n        /* \"#utility.yul\":20943:20944   */\n      dup3\n        /* \"#utility.yul\":20875:20941   */\n      0xffffffffffffffffffffffffffffffffffffffffffffffffffffffffffffffff\n        /* \"#utility.yul\":20871:20945   */\n      sub\n        /* \"#utility.yul\":20868:20869   */\n      dup3\n        /* \"#utility.yul\":20865:20946   */\n      gt\n        /* \"#utility.yul\":20862:20864   */\n      iszero\n      tag_544\n      jumpi\n        /* \"#utility.yul\":20949:20967   */\n      tag_545\n      tag_546\n      jump\t// in\n    tag_545:\n        /* \"#utility.yul\":20862:20864   */\n    tag_544:\n        /* \"#utility.yul\":20993:20994   */\n      dup3\n        /* \"#utility.yul\":20990:20991   */\n      dup3\n        /* \"#utility.yul\":20986:20995   */\n      add\n        /* \"#utility.yul\":20979:20995   */\n      swap1\n      pop\n        /* \"#utility.yul\":20740:21001   */\n      swap3\n      swap2\n      pop\n      pop\n      jump\t// out\n        /* \"#utility.yul\":21007:21192   */\n    tag_233:\n        /* \"#utility.yul\":21047:21048   */\n      0x00\n        /* \"#utility.yul\":21064:21084   */\n      tag_548\n        /* \"#utility.yul\":21082:21083   */\n      dup3\n        /* \"#utility.yul\":21064:21084   */\n      tag_482\n      jump\t// in\n    tag_548:\n        /* \"#utility.yul\":21059:21084   */\n      swap2\n      pop\n        /* \"#utility.yul\":21098:21118   */\n      tag_549\n        /* \"#utility.yul\":21116:21117   */\n      dup4\n        /* \"#utility.yul\":21098:21118   */\n      tag_482\n      jump\t// in\n    tag_549:\n        /* \"#utility.yul\":21093:21118   */\n      swap3\n      pop\n        /* \"#utility.yul\":21137:21138   */\n      dup3\n        /* \"#utility.yul\":21127:21129   */\n      tag_550\n      jumpi\n        /* \"#utility.yul\":21142:21160   */\n      tag_551\n      tag_552\n      jump\t// in\n    tag_551:\n        /* \"#utility.yul\":21127:21129   */\n    tag_550:\n        /* \"#utility.yul\":21184:21185   */\n      dup3\n        /* \"#utility.yul\":21181:21182   */\n      dup3\n        /* \"#utility.yul\":21177:21186   */\n      div\n        /* \"#utility.yul\":21172:21186   */\n      swap1\n      pop\n        /* \"#utility.yul\":21049:21192   */\n      swap3\n      swap2\n      pop\n      pop\n      jump\t// out\n        /* \"#utility.yul\":21198:21389   */\n    tag_239:\n        /* \"#utility.yul\":21238:21242   */\n      0x00\n        /* \"#utility.yul\":21258:21278   */\n      tag_554\n        /* \"#utility.yul\":21276:21277   */\n      dup3\n        /* \"#utility.yul\":21258:21278   */\n      tag_482\n      jump\t// in\n    tag_554:\n        /* \"#utility.yul\":21253:21278   */\n      swap2\n      pop\n        /* \"#utility.yul\":21292:21312   */\n      tag_555\n        /* \"#utility.yul\":21310:21311   */\n      dup4\n        /* \"#utility.yul\":21292:21312   */\n      tag_482\n      jump\t// in\n    tag_555:\n        /* \"#utility.yul\":21287:21312   */\n      swap3\n      pop\n        /* \"#utility.yul\":21331:21332   */\n      dup3\n        /* \"#utility.yul\":21328:21329   */\n      dup3\n        /* \"#utility.yul\":21325:21333   */\n      lt\n        /* \"#utility.yul\":21322:21324   */\n      iszero\n      tag_556\n      jumpi\n        /* \"#utility.yul\":21336:21354   */\n      tag_557\n      tag_546\n      jump\t// in\n    tag_557:\n        /* \"#utility.yul\":21322:21324   */\n    tag_556:\n        /* \"#utility.yul\":21381:21382   */\n      dup3\n        /* \"#utility.yul\":21378:21379   */\n      dup3\n        /* \"#utility.yul\":21374:21383   */\n      sub\n        /* \"#utility.yul\":21366:21383   */\n      swap1\n      pop\n        /* \"#utility.yul\":21243:21389   */\n      swap3\n      swap2\n      pop\n      pop\n      jump\t// out\n        /* \"#utility.yul\":21395:21491   */\n    tag_395:\n        /* \"#utility.yul\":21432:21439   */\n      0x00\n        /* \"#utility.yul\":21461:21485   */\n      tag_559\n        /* \"#utility.yul\":21479:21484   */\n      dup3\n        /* \"#utility.yul\":21461:21485   */\n      tag_560\n      jump\t// in\n    tag_559:\n        /* \"#utility.yul\":21450:21485   */\n      swap1\n      pop\n        /* \"#utility.yul\":21440:21491   */\n      swap2\n      swap1\n      pop\n      jump\t// out\n        /* \"#utility.yul\":21497:21587   */\n    tag_399:\n        /* \"#utility.yul\":21531:21538   */\n      0x00\n        /* \"#utility.yul\":21574:21579   */\n      dup2\n        /* \"#utility.yul\":21567:21580   */\n      iszero\n        /* \"#utility.yul\":21560:21581   */\n      iszero\n        /* \"#utility.yul\":21549:21581   */\n      swap1\n      pop\n        /* \"#utility.yul\":21539:21587   */\n      swap2\n      swap1\n      pop\n      jump\t// out\n        /* \"#utility.yul\":21593:21742   */\n    tag_562:\n        /* \"#utility.yul\":21629:21636   */\n      0x00\n        /* \"#utility.yul\":21669:21735   */\n      0xffffffff00000000000000000000000000000000000000000000000000000000\n        /* \"#utility.yul\":21662:21667   */\n      dup3\n        /* \"#utility.yul\":21658:21736   */\n      and\n        /* \"#utility.yul\":21647:21736   */\n      swap1\n      pop\n        /* \"#utility.yul\":21637:21742   */\n      swap2\n      swap1\n      pop\n      jump\t// out\n        /* \"#utility.yul\":21748:21874   */\n    tag_560:\n        /* \"#utility.yul\":21785:21792   */\n      0x00\n        /* \"#utility.yul\":21825:21867   */\n      0xffffffffffffffffffffffffffffffffffffffff\n        /* \"#utility.yul\":21818:21823   */\n      dup3\n        /* \"#utility.yul\":21814:21868   */\n      and\n        /* \"#utility.yul\":21803:21868   */\n      swap1\n      pop\n        /* \"#utility.yul\":21793:21874   */\n      swap2\n      swap1\n      pop\n      jump\t// out\n        /* \"#utility.yul\":21880:21957   */\n    tag_482:\n        /* \"#utility.yul\":21917:21924   */\n      0x00\n        /* \"#utility.yul\":21946:21951   */\n      dup2\n        /* \"#utility.yul\":21935:21951   */\n      swap1\n      pop\n        /* \"#utility.yul\":21925:21957   */\n      swap2\n      swap1\n      pop\n      jump\t// out\n        /* \"#utility.yul\":21963:22117   */\n    tag_312:\n        /* \"#utility.yul\":22047:22053   */\n      dup3\n        /* \"#utility.yul\":22042:22045   */\n      dup2\n        /* \"#utility.yul\":22037:22040   */\n      dup4\n        /* \"#utility.yul\":22024:22054   */\n      calldatacopy\n        /* \"#utility.yul\":22109:22110   */\n      0x00\n        /* \"#utility.yul\":22100:22106   */\n      dup4\n        /* \"#utility.yul\":22095:22098   */\n      dup4\n        /* \"#utility.yul\":22091:22107   */\n      add\n        /* \"#utility.yul\":22084:22111   */\n      mstore\n        /* \"#utility.yul\":22014:22117   */\n      pop\n      pop\n      pop\n      jump\t// out\n        /* \"#utility.yul\":22123:22430   */\n    tag_407:\n        /* \"#utility.yul\":22191:22192   */\n      0x00\n        /* \"#utility.yul\":22201:22314   */\n    tag_568:\n        /* \"#utility.yul\":22215:22221   */\n      dup4\n        /* \"#utility.yul\":22212:22213   */\n      dup2\n        /* \"#utility.yul\":22209:22222   */\n      lt\n        /* \"#utility.yul\":22201:22314   */\n      iszero\n      tag_570\n      jumpi\n        /* \"#utility.yul\":22300:22301   */\n      dup1\n        /* \"#utility.yul\":22295:22298   */\n      dup3\n        /* \"#utility.yul\":22291:22302   */\n      add\n        /* \"#utility.yul\":22285:22303   */\n      mload\n        /* \"#utility.yul\":22281:22282   */\n      dup2\n        /* \"#utility.yul\":22276:22279   */\n      dup5\n        /* \"#utility.yul\":22272:22283   */\n      add\n        /* \"#utility.yul\":22265:22304   */\n      mstore\n        /* \"#utility.yul\":22237:22239   */\n      0x20\n        /* \"#utility.yul\":22234:22235   */\n      dup2\n        /* \"#utility.yul\":22230:22240   */\n      add\n        /* \"#utility.yul\":22225:22240   */\n      swap1\n      pop\n        /* \"#utility.yul\":22201:22314   */\n      jump(tag_568)\n    tag_570:\n        /* \"#utility.yul\":22332:22338   */\n      dup4\n        /* \"#utility.yul\":22329:22330   */\n      dup2\n        /* \"#utility.yul\":22326:22339   */\n      gt\n        /* \"#utility.yul\":22323:22325   */\n      iszero\n      tag_571\n      jumpi\n        /* \"#utility.yul\":22412:22413   */\n      0x00\n        /* \"#utility.yul\":22403:22409   */\n      dup5\n        /* \"#utility.yul\":22398:22401   */\n      dup5\n        /* \"#utility.yul\":22394:22410   */\n      add\n        /* \"#utility.yul\":22387:22414   */\n      mstore\n        /* \"#utility.yul\":22323:22325   */\n    tag_571:\n        /* \"#utility.yul\":22172:22430   */\n      pop\n      pop\n      pop\n      pop\n      jump\t// out\n        /* \"#utility.yul\":22436:22756   */\n    tag_98:\n        /* \"#utility.yul\":22480:22486   */\n      0x00\n        /* \"#utility.yul\":22517:22518   */\n      0x02\n        /* \"#utility.yul\":22511:22515   */\n      dup3\n        /* \"#utility.yul\":22507:22519   */\n      div\n        /* \"#utility.yul\":22497:22519   */\n      swap1\n      pop\n        /* \"#utility.yul\":22564:22565   */\n      0x01\n        /* \"#utility.yul\":22558:22562   */\n      dup3\n        /* \"#utility.yul\":22554:22566   */\n      and\n        /* \"#utility.yul\":22585:22603   */\n      dup1\n        /* \"#utility.yul\":22575:22577   */\n      tag_573\n      jumpi\n        /* \"#utility.yul\":22641:22645   */\n      0x7f\n        /* \"#utility.yul\":22633:22639   */\n      dup3\n        /* \"#utility.yul\":22629:22646   */\n      and\n        /* \"#utility.yul\":22619:22646   */\n      swap2\n      pop\n        /* \"#utility.yul\":22575:22577   */\n    tag_573:\n        /* \"#utility.yul\":22703:22705   */\n      0x20\n        /* \"#utility.yul\":22695:22701   */\n      dup3\n        /* \"#utility.yul\":22692:22706   */\n      lt\n        /* \"#utility.yul\":22672:22690   */\n      dup2\n        /* \"#utility.yul\":22669:22707   */\n      eq\n        /* \"#utility.yul\":22666:22668   */\n      iszero\n      tag_574\n      jumpi\n        /* \"#utility.yul\":22722:22740   */\n      tag_575\n      tag_576\n      jump\t// in\n    tag_575:\n        /* \"#utility.yul\":22666:22668   */\n    tag_574:\n        /* \"#utility.yul\":22487:22756   */\n      pop\n      swap2\n      swap1\n      pop\n      jump\t// out\n        /* \"#utility.yul\":22762:23043   */\n    tag_525:\n        /* \"#utility.yul\":22845:22872   */\n      tag_578\n        /* \"#utility.yul\":22867:22871   */\n      dup3\n        /* \"#utility.yul\":22845:22872   */\n      tag_409\n      jump\t// in\n    tag_578:\n        /* \"#utility.yul\":22837:22843   */\n      dup2\n        /* \"#utility.yul\":22833:22873   */\n      add\n        /* \"#utility.yul\":22975:22981   */\n      dup2\n        /* \"#utility.yul\":22963:22973   */\n      dup2\n        /* \"#utility.yul\":22960:22982   */\n      lt\n        /* \"#utility.yul\":22939:22957   */\n      0xffffffffffffffff\n        /* \"#utility.yul\":22927:22937   */\n      dup3\n        /* \"#utility.yul\":22924:22958   */\n      gt\n        /* \"#utility.yul\":22921:22983   */\n      or\n        /* \"#utility.yul\":22918:22920   */\n      iszero\n      tag_579\n      jumpi\n        /* \"#utility.yul\":22986:23004   */\n      tag_580\n      tag_530\n      jump\t// in\n    tag_580:\n        /* \"#utility.yul\":22918:22920   */\n    tag_579:\n        /* \"#utility.yul\":23026:23036   */\n      dup1\n        /* \"#utility.yul\":23022:23024   */\n      0x40\n        /* \"#utility.yul\":23015:23037   */\n      mstore\n        /* \"#utility.yul\":22805:23043   */\n      pop\n      pop\n      pop\n      jump\t// out\n        /* \"#utility.yul\":23049:23282   */\n    tag_231:\n        /* \"#utility.yul\":23088:23091   */\n      0x00\n        /* \"#utility.yul\":23111:23135   */\n      tag_582\n        /* \"#utility.yul\":23129:23134   */\n      dup3\n        /* \"#utility.yul\":23111:23135   */\n      tag_482\n      jump\t// in\n    tag_582:\n        /* \"#utility.yul\":23102:23135   */\n      swap2\n      pop\n        /* \"#utility.yul\":23157:23223   */\n      0xffffffffffffffffffffffffffffffffffffffffffffffffffffffffffffffff\n        /* \"#utility.yul\":23150:23155   */\n      dup3\n        /* \"#utility.yul\":23147:23224   */\n      eq\n        /* \"#utility.yul\":23144:23146   */\n      iszero\n      tag_583\n      jumpi\n        /* \"#utility.yul\":23227:23245   */\n      tag_584\n      tag_546\n      jump\t// in\n    tag_584:\n        /* \"#utility.yul\":23144:23146   */\n    tag_583:\n        /* \"#utility.yul\":23274:23275   */\n      0x01\n        /* \"#utility.yul\":23267:23272   */\n      dup3\n        /* \"#utility.yul\":23263:23276   */\n      add\n        /* \"#utility.yul\":23256:23276   */\n      swap1\n      pop\n        /* \"#utility.yul\":23092:23282   */\n      swap2\n      swap1\n      pop\n      jump\t// out\n        /* \"#utility.yul\":23288:23464   */\n    tag_241:\n        /* \"#utility.yul\":23320:23321   */\n      0x00\n        /* \"#utility.yul\":23337:23357   */\n      tag_586\n        /* \"#utility.yul\":23355:23356   */\n      dup3\n        /* \"#utility.yul\":23337:23357   */\n      tag_482\n      jump\t// in\n    tag_586:\n        /* \"#utility.yul\":23332:23357   */\n      swap2\n      pop\n        /* \"#utility.yul\":23371:23391   */\n      tag_587\n        /* \"#utility.yul\":23389:23390   */\n      dup4\n        /* \"#utility.yul\":23371:23391   */\n      tag_482\n      jump\t// in\n    tag_587:\n        /* \"#utility.yul\":23366:23391   */\n      swap3\n      pop\n        /* \"#utility.yul\":23410:23411   */\n      dup3\n        /* \"#utility.yul\":23400:23402   */\n      tag_588\n      jumpi\n        /* \"#utility.yul\":23415:23433   */\n      tag_589\n      tag_552\n      jump\t// in\n    tag_589:\n        /* \"#utility.yul\":23400:23402   */\n    tag_588:\n        /* \"#utility.yul\":23456:23457   */\n      dup3\n        /* \"#utility.yul\":23453:23454   */\n      dup3\n        /* \"#utility.yul\":23449:23458   */\n      mod\n        /* \"#utility.yul\":23444:23458   */\n      swap1\n      pop\n        /* \"#utility.yul\":23322:23464   */\n      swap3\n      swap2\n      pop\n      pop\n      jump\t// out\n        /* \"#utility.yul\":23470:23650   */\n    tag_546:\n        /* \"#utility.yul\":23518:23595   */\n      0x4e487b7100000000000000000000000000000000000000000000000000000000\n        /* \"#utility.yul\":23515:23516   */\n      0x00\n        /* \"#utility.yul\":23508:23596   */\n      mstore\n        /* \"#utility.yul\":23615:23619   */\n      0x11\n        /* \"#utility.yul\":23612:23613   */\n      0x04\n        /* \"#utility.yul\":23605:23620   */\n      mstore\n        /* \"#utility.yul\":23639:23643   */\n      0x24\n        /* \"#utility.yul\":23636:23637   */\n      0x00\n        /* \"#utility.yul\":23629:23644   */\n      revert\n        /* \"#utility.yul\":23656:23836   */\n    tag_552:\n        /* \"#utility.yul\":23704:23781   */\n      0x4e487b7100000000000000000000000000000000000000000000000000000000\n        /* \"#utility.yul\":23701:23702   */\n      0x00\n        /* \"#utility.yul\":23694:23782   */\n      mstore\n        /* \"#utility.yul\":23801:23805   */\n      0x12\n        /* \"#utility.yul\":23798:23799   */\n      0x04\n        /* \"#utility.yul\":23791:23806   */\n      mstore\n        /* \"#utility.yul\":23825:23829   */\n      0x24\n        /* \"#utility.yul\":23822:23823   */\n      0x00\n        /* \"#utility.yul\":23815:23830   */\n      revert\n        /* \"#utility.yul\":23842:24022   */\n    tag_576:\n        /* \"#utility.yul\":23890:23967   */\n      0x4e487b7100000000000000000000000000000000000000000000000000000000\n        /* \"#utility.yul\":23887:23888   */\n      0x00\n        /* \"#utility.yul\":23880:23968   */\n      mstore\n        /* \"#utility.yul\":23987:23991   */\n      0x22\n        /* \"#utility.yul\":23984:23985   */\n      0x04\n        /* \"#utility.yul\":23977:23992   */\n      mstore\n        /* \"#utility.yul\":24011:24015   */\n      0x24\n        /* \"#utility.yul\":24008:24009   */\n      0x00\n        /* \"#utility.yul\":24001:24016   */\n      revert\n        /* \"#utility.yul\":24028:24208   */\n    tag_530:\n        /* \"#utility.yul\":24076:24153   */\n      0x4e487b7100000000000000000000000000000000000000000000000000000000\n        /* \"#utility.yul\":24073:24074   */\n      0x00\n        /* \"#utility.yul\":24066:24154   */\n      mstore\n        /* \"#utility.yul\":24173:24177   */\n      0x41\n        /* \"#utility.yul\":24170:24171   */\n      0x04\n        /* \"#utility.yul\":24163:24178   */\n      mstore\n        /* \"#utility.yul\":24197:24201   */\n      0x24\n        /* \"#utility.yul\":24194:24195   */\n      0x00\n        /* \"#utility.yul\":24187:24202   */\n      revert\n        /* \"#utility.yul\":24214:24316   */\n    tag_409:\n        /* \"#utility.yul\":24255:24261   */\n      0x00\n        /* \"#utility.yul\":24306:24308   */\n      0x1f\n        /* \"#utility.yul\":24302:24309   */\n      not\n        /* \"#utility.yul\":24297:24299   */\n      0x1f\n        /* \"#utility.yul\":24290:24295   */\n      dup4\n        /* \"#utility.yul\":24286:24300   */\n      add\n        /* \"#utility.yul\":24282:24310   */\n      and\n        /* \"#utility.yul\":24272:24310   */\n      swap1\n      pop\n        /* \"#utility.yul\":24262:24316   */\n      swap2\n      swap1\n      pop\n      jump\t// out\n        /* \"#utility.yul\":24322:24554   */\n    tag_428:\n        /* \"#utility.yul\":24462:24496   */\n      0x4552433732313a2063616c6c6572206973206e6f7420746f6b656e206f776e65\n        /* \"#utility.yul\":24458:24459   */\n      0x00\n        /* \"#utility.yul\":24450:24456   */\n      dup3\n        /* \"#utility.yul\":24446:24460   */\n      add\n        /* \"#utility.yul\":24439:24497   */\n      mstore\n        /* \"#utility.yul\":24531:24546   */\n      0x72206f7220617070726f76656400000000000000000000000000000000000000\n        /* \"#utility.yul\":24526:24528   */\n      0x20\n        /* \"#utility.yul\":24518:24524   */\n      dup3\n        /* \"#utility.yul\":24514:24529   */\n      add\n        /* \"#utility.yul\":24507:24547   */\n      mstore\n        /* \"#utility.yul\":24428:24554   */\n      pop\n      jump\t// out\n        /* \"#utility.yul\":24560:24797   */\n    tag_433:\n        /* \"#utility.yul\":24700:24734   */\n      0x4552433732313a207472616e7366657220746f206e6f6e204552433732315265\n        /* \"#utility.yul\":24696:24697   */\n      0x00\n        /* \"#utility.yul\":24688:24694   */\n      dup3\n        /* \"#utility.yul\":24684:24698   */\n      add\n        /* \"#utility.yul\":24677:24735   */\n      mstore\n        /* \"#utility.yul\":24769:24789   */\n      0x63656976657220696d706c656d656e7465720000000000000000000000000000\n        /* \"#utility.yul\":24764:24766   */\n      0x20\n        /* \"#utility.yul\":24756:24762   */\n      dup3\n        /* \"#utility.yul\":24752:24767   */\n      add\n        /* \"#utility.yul\":24745:24790   */\n      mstore\n        /* \"#utility.yul\":24666:24797   */\n      pop\n      jump\t// out\n        /* \"#utility.yul\":24803:25027   */\n    tag_438:\n        /* \"#utility.yul\":24943:24977   */\n      0x4552433732313a207472616e736665722066726f6d20696e636f727265637420\n        /* \"#utility.yul\":24939:24940   */\n      0x00\n        /* \"#utility.yul\":24931:24937   */\n      dup3\n        /* \"#utility.yul\":24927:24941   */\n      add\n        /* \"#utility.yul\":24920:24978   */\n      mstore\n        /* \"#utility.yul\":25012:25019   */\n      0x6f776e6572000000000000000000000000000000000000000000000000000000\n        /* \"#utility.yul\":25007:25009   */\n      0x20\n        /* \"#utility.yul\":24999:25005   */\n      dup3\n        /* \"#utility.yul\":24995:25010   */\n      add\n        /* \"#utility.yul\":24988:25020   */\n      mstore\n        /* \"#utility.yul\":24909:25027   */\n      pop\n      jump\t// out\n        /* \"#utility.yul\":25033:25211   */\n    tag_443:\n        /* \"#utility.yul\":25173:25203   */\n      0x4552433732313a20746f6b656e20616c7265616479206d696e74656400000000\n        /* \"#utility.yul\":25169:25170   */\n      0x00\n        /* \"#utility.yul\":25161:25167   */\n      dup3\n        /* \"#utility.yul\":25157:25171   */\n      add\n        /* \"#utility.yul\":25150:25204   */\n      mstore\n        /* \"#utility.yul\":25139:25211   */\n      pop\n      jump\t// out\n        /* \"#utility.yul\":25217:25440   */\n    tag_448:\n        /* \"#utility.yul\":25357:25391   */\n      0x4552433732313a207472616e7366657220746f20746865207a65726f20616464\n        /* \"#utility.yul\":25353:25354   */\n      0x00\n        /* \"#utility.yul\":25345:25351   */\n      dup3\n        /* \"#utility.yul\":25341:25355   */\n      add\n        /* \"#utility.yul\":25334:25392   */\n      mstore\n        /* \"#utility.yul\":25426:25432   */\n      0x7265737300000000000000000000000000000000000000000000000000000000\n        /* \"#utility.yul\":25421:25423   */\n      0x20\n        /* \"#utility.yul\":25413:25419   */\n      dup3\n        /* \"#utility.yul\":25409:25424   */\n      add\n        /* \"#utility.yul\":25402:25433   */\n      mstore\n        /* \"#utility.yul\":25323:25440   */\n      pop\n      jump\t// out\n        /* \"#utility.yul\":25446:25621   */\n    tag_453:\n        /* \"#utility.yul\":25586:25613   */\n      0x4552433732313a20617070726f766520746f2063616c6c657200000000000000\n        /* \"#utility.yul\":25582:25583   */\n      0x00\n        /* \"#utility.yul\":25574:25580   */\n      dup3\n        /* \"#utility.yul\":25570:25584   */\n      add\n        /* \"#utility.yul\":25563:25614   */\n      mstore\n        /* \"#utility.yul\":25552:25621   */\n      pop\n      jump\t// out\n        /* \"#utility.yul\":25627:25855   */\n    tag_458:\n        /* \"#utility.yul\":25767:25801   */\n      0x4552433732313a2061646472657373207a65726f206973206e6f742061207661\n        /* \"#utility.yul\":25763:25764   */\n      0x00\n        /* \"#utility.yul\":25755:25761   */\n      dup3\n        /* \"#utility.yul\":25751:25765   */\n      add\n        /* \"#utility.yul\":25744:25802   */\n      mstore\n        /* \"#utility.yul\":25836:25847   */\n      0x6c6964206f776e65720000000000000000000000000000000000000000000000\n        /* \"#utility.yul\":25831:25833   */\n      0x20\n        /* \"#utility.yul\":25823:25829   */\n      dup3\n        /* \"#utility.yul\":25819:25834   */\n      add\n        /* \"#utility.yul\":25812:25848   */\n      mstore\n        /* \"#utility.yul\":25733:25855   */\n      pop\n      jump\t// out\n        /* \"#utility.yul\":25861:26043   */\n    tag_463:\n        /* \"#utility.yul\":26001:26035   */\n      0x4552433732313a206d696e7420746f20746865207a65726f2061646472657373\n        /* \"#utility.yul\":25997:25998   */\n      0x00\n        /* \"#utility.yul\":25989:25995   */\n      dup3\n        /* \"#utility.yul\":25985:25999   */\n      add\n        /* \"#utility.yul\":25978:26036   */\n      mstore\n        /* \"#utility.yul\":25967:26043   */\n      pop\n      jump\t// out\n        /* \"#utility.yul\":26049:26223   */\n    tag_468:\n        /* \"#utility.yul\":26189:26215   */\n      0x4552433732313a20696e76616c696420746f6b656e2049440000000000000000\n        /* \"#utility.yul\":26185:26186   */\n      0x00\n        /* \"#utility.yul\":26177:26183   */\n      dup3\n        /* \"#utility.yul\":26173:26187   */\n      add\n        /* \"#utility.yul\":26166:26216   */\n      mstore\n        /* \"#utility.yul\":26155:26223   */\n      pop\n      jump\t// out\n        /* \"#utility.yul\":26229:26449   */\n    tag_473:\n        /* \"#utility.yul\":26369:26403   */\n      0x4552433732313a20617070726f76616c20746f2063757272656e74206f776e65\n        /* \"#utility.yul\":26365:26366   */\n      0x00\n        /* \"#utility.yul\":26357:26363   */\n      dup3\n        /* \"#utility.yul\":26353:26367   */\n      add\n        /* \"#utility.yul\":26346:26404   */\n      mstore\n        /* \"#utility.yul\":26438:26441   */\n      0x7200000000000000000000000000000000000000000000000000000000000000\n        /* \"#utility.yul\":26433:26435   */\n      0x20\n        /* \"#utility.yul\":26425:26431   */\n      dup3\n        /* \"#utility.yul\":26421:26436   */\n      add\n        /* \"#utility.yul\":26414:26442   */\n      mstore\n        /* \"#utility.yul\":26335:26449   */\n      pop\n      jump\t// out\n        /* \"#utility.yul\":26455:26703   */\n    tag_478:\n        /* \"#utility.yul\":26595:26629   */\n      0x4552433732313a20617070726f76652063616c6c6572206973206e6f7420746f\n        /* \"#utility.yul\":26591:26592   */\n      0x00\n        /* \"#utility.yul\":26583:26589   */\n      dup3\n        /* \"#utility.yul\":26579:26593   */\n      add\n        /* \"#utility.yul\":26572:26630   */\n      mstore\n        /* \"#utility.yul\":26664:26695   */\n      0x6b656e206f776e6572206f7220617070726f76656420666f7220616c6c000000\n        /* \"#utility.yul\":26659:26661   */\n      0x20\n        /* \"#utility.yul\":26651:26657   */\n      dup3\n        /* \"#utility.yul\":26647:26662   */\n      add\n        /* \"#utility.yul\":26640:26696   */\n      mstore\n        /* \"#utility.yul\":26561:26703   */\n      pop\n      jump\t// out\n        /* \"#utility.yul\":26709:26831   */\n    tag_323:\n        /* \"#utility.yul\":26782:26806   */\n      tag_607\n        /* \"#utility.yul\":26800:26805   */\n      dup2\n        /* \"#utility.yul\":26782:26806   */\n      tag_395\n      jump\t// in\n    tag_607:\n        /* \"#utility.yul\":26775:26780   */\n      dup2\n        /* \"#utility.yul\":26772:26807   */\n      eq\n        /* \"#utility.yul\":26762:26764   */\n      tag_608\n      jumpi\n        /* \"#utility.yul\":26821:26822   */\n      0x00\n        /* \"#utility.yul\":26818:26819   */\n      dup1\n        /* \"#utility.yul\":26811:26823   */\n      revert\n        /* \"#utility.yul\":26762:26764   */\n    tag_608:\n        /* \"#utility.yul\":26752:26831   */\n      pop\n      jump\t// out\n        /* \"#utility.yul\":26837:26953   */\n    tag_327:\n        /* \"#utility.yul\":26907:26928   */\n      tag_610\n        /* \"#utility.yul\":26922:26927   */\n      dup2\n        /* \"#utility.yul\":26907:26928   */\n      tag_399\n      jump\t// in\n    tag_610:\n        /* \"#utility.yul\":26900:26905   */\n      dup2\n        /* \"#utility.yul\":26897:26929   */\n      eq\n        /* \"#utility.yul\":26887:26889   */\n      tag_611\n      jumpi\n        /* \"#utility.yul\":26943:26944   */\n      0x00\n        /* \"#utility.yul\":26940:26941   */\n      dup1\n        /* \"#utility.yul\":26933:26945   */\n      revert\n        /* \"#utility.yul\":26887:26889   */\n    tag_611:\n        /* \"#utility.yul\":26877:26953   */\n      pop\n      jump\t// out\n        /* \"#utility.yul\":26959:27079   */\n    tag_331:\n        /* \"#utility.yul\":27031:27054   */\n      tag_613\n        /* \"#utility.yul\":27048:27053   */\n      dup2\n        /* \"#utility.yul\":27031:27054   */\n      tag_562\n      jump\t// in\n    tag_613:\n        /* \"#utility.yul\":27024:27029   */\n      dup2\n        /* \"#utility.yul\":27021:27055   */\n      eq\n        /* \"#utility.yul\":27011:27013   */\n      tag_614\n      jumpi\n        /* \"#utility.yul\":27069:27070   */\n      0x00\n        /* \"#utility.yul\":27066:27067   */\n      dup1\n        /* \"#utility.yul\":27059:27071   */\n      revert\n        /* \"#utility.yul\":27011:27013   */\n    tag_614:\n        /* \"#utility.yul\":27001:27079   */\n      pop\n      jump\t// out\n        /* \"#utility.yul\":27085:27207   */\n    tag_346:\n        /* \"#utility.yul\":27158:27182   */\n      tag_616\n        /* \"#utility.yul\":27176:27181   */\n      dup2\n        /* \"#utility.yul\":27158:27182   */\n      tag_482\n      jump\t// in\n    tag_616:\n        /* \"#utility.yul\":27151:27156   */\n      dup2\n        /* \"#utility.yul\":27148:27183   */\n      eq\n        /* \"#utility.yul\":27138:27140   */\n      tag_617\n      jumpi\n        /* \"#utility.yul\":27197:27198   */\n      0x00\n        /* \"#utility.yul\":27194:27195   */\n      dup1\n        /* \"#utility.yul\":27187:27199   */\n      revert\n        /* \"#utility.yul\":27138:27140   */\n    tag_617:\n        /* \"#utility.yul\":27128:27207   */\n      pop\n      jump\t// out\n\n    auxdata: 0xa264697066735822122058a7344b9ac61bc8d18f374fd034c73255440e279417648ea8e30d5d416e4b8d64736f6c63430008040033\n}\n",
				"bytecode": {
					"linkReferences": {},
					"object": "60806040523480156200001157600080fd5b5060405162002d8138038062002d81833981810160405281019062000037919062000193565b81600090805190602001906200004f92919062000071565b5080600190805190602001906200006892919062000071565b50505062000376565b8280546200007f906200029b565b90600052602060002090601f016020900481019282620000a35760008555620000ef565b82601f10620000be57805160ff1916838001178555620000ef565b82800160010185558215620000ef579182015b82811115620000ee578251825591602001919060010190620000d1565b5b509050620000fe919062000102565b5090565b5b808211156200011d57600081600090555060010162000103565b5090565b60006200013862000132846200022f565b62000206565b9050828152602081018484840111156200015157600080fd5b6200015e84828562000265565b509392505050565b600082601f8301126200017857600080fd5b81516200018a84826020860162000121565b91505092915050565b60008060408385031215620001a757600080fd5b600083015167ffffffffffffffff811115620001c257600080fd5b620001d08582860162000166565b925050602083015167ffffffffffffffff811115620001ee57600080fd5b620001fc8582860162000166565b9150509250929050565b60006200021262000225565b9050620002208282620002d1565b919050565b6000604051905090565b600067ffffffffffffffff8211156200024d576200024c62000336565b5b620002588262000365565b9050602081019050919050565b60005b838110156200028557808201518184015260208101905062000268565b8381111562000295576000848401525b50505050565b60006002820490506001821680620002b457607f821691505b60208210811415620002cb57620002ca62000307565b5b50919050565b620002dc8262000365565b810181811067ffffffffffffffff82111715620002fe57620002fd62000336565b5b80604052505050565b7f4e487b7100000000000000000000000000000000000000000000000000000000600052602260045260246000fd5b7f4e487b7100000000000000000000000000000000000000000000000000000000600052604160045260246000fd5b6000601f19601f8301169050919050565b6129fb80620003866000396000f3fe608060405234801561001057600080fd5b50600436106101005760003560e01c806370a0823111610097578063b88d4fde11610066578063b88d4fde146102bd578063c87b56dd146102d9578063e985e9c514610309578063ee48cda21461033957610100565b806370a082311461023757806395d89b411461026757806399eb80a914610285578063a22cb465146102a157610100565b806323b872dd116100d357806323b872dd1461019f57806342842e0e146101bb57806352e04825146101d75780636352211e1461020757610100565b806301ffc9a71461010557806306fdde0314610135578063081812fc14610153578063095ea7b314610183575b600080fd5b61011f600480360381019061011a9190611da8565b610369565b60405161012c91906120ff565b60405180910390f35b61013d61044b565b60405161014a919061211a565b60405180910390f35b61016d60048036038101906101689190611dfa565b6104dd565b60405161017a9190612098565b60405180910390f35b61019d60048036038101906101989190611ccb565b610523565b005b6101b960048036038101906101b49190611bc5565b61063b565b005b6101d560048036038101906101d09190611bc5565b61069b565b005b6101f160048036038101906101ec9190611dfa565b6106bb565b6040516101fe9190612098565b60405180910390f35b610221600480360381019061021c9190611dfa565b61076d565b60405161022e9190612098565b60405180910390f35b610251600480360381019061024c9190611b60565b61081f565b60405161025e919061229c565b60405180910390f35b61026f6108d7565b60405161027c919061211a565b60405180910390f35b61029f600480360381019061029a9190611d07565b610969565b005b6102bb60048036038101906102b69190611c8f565b610988565b005b6102d760048036038101906102d29190611c14565b61099e565b005b6102f360048036038101906102ee9190611dfa565b610a00565b604051610300919061211a565b60405180910390f35b610323600480360381019061031e9190611b89565b610a68565b60405161033091906120ff565b60405180910390f35b610353600480360381019061034e9190611dfa565b610afc565b604051610360919061229c565b60405180910390f35b60007f80ac58cd000000000000000000000000000000000000000000000000000000007bffffffffffffffffffffffffffffffffffffffffffffffffffffffff1916827bffffffffffffffffffffffffffffffffffffffffffffffffffffffff1916148061043457507f5b5e139f000000000000000000000000000000000000000000000000000000007bffffffffffffffffffffffffffffffffffffffffffffffffffffffff1916827bffffffffffffffffffffffffffffffffffffffffffffffffffffffff1916145b80610444575061044382610b1e565b5b9050919050565b60606000805461045a906124f2565b80601f0160208091040260200160405190810160405280929190818152602001828054610486906124f2565b80156104d35780601f106104a8576101008083540402835291602001916104d3565b820191906000526020600020905b8154815290600101906020018083116104b657829003601f168201915b5050505050905090565b60006104e882610b88565b6006600083815260200190815260200160002060009054906101000a900473ffffffffffffffffffffffffffffffffffffffff169050919050565b600061052e8261076d565b90508073ffffffffffffffffffffffffffffffffffffffff168373ffffffffffffffffffffffffffffffffffffffff16141561059f576040517f08c379a00000000000000000000000000000000000000000000000000000000081526004016105969061225c565b60405180910390fd5b8073ffffffffffffffffffffffffffffffffffffffff166105be610bd3565b73ffffffffffffffffffffffffffffffffffffffff1614806105ed57506105ec816105e7610bd3565b610a68565b5b61062c576040517f08c379a00000000000000000000000000000000000000000000000000000000081526004016106239061227c565b60405180910390fd5b6106368383610bdb565b505050565b61064c610646610bd3565b82610c94565b61068b576040517f08c379a00000000000000000000000000000000000000000000000000000000081526004016106829061213c565b60405180910390fd5b610696838383610d29565b505050565b6106b68383836040518060200160405280600081525061099e565b505050565b6000806003600084815260200190815260200160002060009054906101000a900473ffffffffffffffffffffffffffffffffffffffff169050600073ffffffffffffffffffffffffffffffffffffffff168173ffffffffffffffffffffffffffffffffffffffff161415610764576040517f08c379a000000000000000000000000000000000000000000000000000000000815260040161075b9061223c565b60405180910390fd5b80915050919050565b6000806002600084815260200190815260200160002060009054906101000a900473ffffffffffffffffffffffffffffffffffffffff169050600073ffffffffffffffffffffffffffffffffffffffff168173ffffffffffffffffffffffffffffffffffffffff161415610816576040517f08c379a000000000000000000000000000000000000000000000000000000000815260040161080d9061223c565b60405180910390fd5b80915050919050565b60008073ffffffffffffffffffffffffffffffffffffffff168273ffffffffffffffffffffffffffffffffffffffff161415610890576040517f08c379a0000000000000000000000000000000000000000000000000000000008152600401610887906121fc565b60405180910390fd5b600560008373ffffffffffffffffffffffffffffffffffffffff1673ffffffffffffffffffffffffffffffffffffffff168152602001908152602001600020549050919050565b6060600180546108e6906124f2565b80601f0160208091040260200160405190810160405280929190818152602001828054610912906124f2565b801561095f5780601f106109345761010080835404028352916020019161095f565b820191906000526020600020905b81548152906001019060200180831161094257829003601f168201915b5050505050905090565b610976868686868661101f565b6109808282611043565b505050505050565b61099a610993610bd3565b838361106f565b5050565b6109af6109a9610bd3565b83610c94565b6109ee576040517f08c379a00000000000000000000000000000000000000000000000000000000081526004016109e59061213c565b60405180910390fd5b6109fa848484846111dc565b50505050565b6060610a0b82610b88565b6000610a15611238565b90506000815111610a355760405180602001604052806000815250610a60565b80610a3f8461124f565b604051602001610a50929190612074565b6040516020818303038152906040525b915050919050565b6000600760008473ffffffffffffffffffffffffffffffffffffffff1673ffffffffffffffffffffffffffffffffffffffff16815260200190815260200160002060008373ffffffffffffffffffffffffffffffffffffffff1673ffffffffffffffffffffffffffffffffffffffff16815260200190815260200160002060009054906101000a900460ff16905092915050565b6000806004600084815260200190815260200160002054905080915050919050565b60007f01ffc9a7000000000000000000000000000000000000000000000000000000007bffffffffffffffffffffffffffffffffffffffffffffffffffffffff1916827bffffffffffffffffffffffffffffffffffffffffffffffffffffffff1916149050919050565b610b91816113fc565b610bd0576040517f08c379a0000000000000000000000000000000000000000000000000000000008152600401610bc79061223c565b60405180910390fd5b50565b600033905090565b816006600083815260200190815260200160002060006101000a81548173ffffffffffffffffffffffffffffffffffffffff021916908373ffffffffffffffffffffffffffffffffffffffff160217905550808273ffffffffffffffffffffffffffffffffffffffff16610c4e8361076d565b73ffffffffffffffffffffffffffffffffffffffff167f8c5be1e5ebec7d5bd14f71427d1e84f3dd0314c0f7b2291e5b200ac8c7c3b92560405160405180910390a45050565b600080610ca08361076d565b90508073ffffffffffffffffffffffffffffffffffffffff168473ffffffffffffffffffffffffffffffffffffffff161480610ce25750610ce18185610a68565b5b80610d2057508373ffffffffffffffffffffffffffffffffffffffff16610d08846104dd565b73ffffffffffffffffffffffffffffffffffffffff16145b91505092915050565b8273ffffffffffffffffffffffffffffffffffffffff16610d498261076d565b73ffffffffffffffffffffffffffffffffffffffff1614610d9f576040517f08c379a0000000000000000000000000000000000000000000000000000000008152600401610d969061217c565b60405180910390fd5b600073ffffffffffffffffffffffffffffffffffffffff168273ffffffffffffffffffffffffffffffffffffffff161415610e0f576040517f08c379a0000000000000000000000000000000000000000000000000000000008152600401610e06906121bc565b60405180910390fd5b610e1a838383611468565b8273ffffffffffffffffffffffffffffffffffffffff16610e3a8261076d565b73ffffffffffffffffffffffffffffffffffffffff1614610e90576040517f08c379a0000000000000000000000000000000000000000000000000000000008152600401610e879061217c565b60405180910390fd5b6006600082815260200190815260200160002060006101000a81549073ffffffffffffffffffffffffffffffffffffffff02191690556001600560008573ffffffffffffffffffffffffffffffffffffffff1673ffffffffffffffffffffffffffffffffffffffff168152602001908152602001600020600082825403925050819055506001600560008473ffffffffffffffffffffffffffffffffffffffff1673ffffffffffffffffffffffffffffffffffffffff16815260200190815260200160002060008282540192505081905550816002600083815260200190815260200160002060006101000a81548173ffffffffffffffffffffffffffffffffffffffff021916908373ffffffffffffffffffffffffffffffffffffffff160217905550808273ffffffffffffffffffffffffffffffffffffffff168473ffffffffffffffffffffffffffffffffffffffff167fddf252ad1be2c89b69c2b068fc378daa952ba7f163c4a11628f55a4df523b3ef60405160405180910390a461101a83838361146d565b505050565b61103c858585858560405180602001604052806000815250611472565b5050505050565b8060086000848152602001908152602001600020908051906020019061106a929190611984565b505050565b8173ffffffffffffffffffffffffffffffffffffffff168373ffffffffffffffffffffffffffffffffffffffff1614156110de576040517f08c379a00000000000000000000000000000000000000000000000000000000081526004016110d5906121dc565b60405180910390fd5b80600760008573ffffffffffffffffffffffffffffffffffffffff1673ffffffffffffffffffffffffffffffffffffffff16815260200190815260200160002060008473ffffffffffffffffffffffffffffffffffffffff1673ffffffffffffffffffffffffffffffffffffffff16815260200190815260200160002060006101000a81548160ff0219169083151502179055508173ffffffffffffffffffffffffffffffffffffffff168373ffffffffffffffffffffffffffffffffffffffff167f17307eab39ab6107e8899845ad3d59bd9653f200f220920489ca2b5937696c31836040516111cf91906120ff565b60405180910390a3505050565b6111e7848484610d29565b6111f3848484846114d3565b611232576040517f08c379a00000000000000000000000000000000000000000000000000000000081526004016112299061215c565b60405180910390fd5b50505050565b606060405180602001604052806000815250905090565b60606000821415611297576040518060400160405280600181526020017f300000000000000000000000000000000000000000000000000000000000000081525090506113f7565b600082905060005b600082146112c95780806112b290612555565b915050600a826112c291906123d7565b915061129f565b60008167ffffffffffffffff81111561130b577f4e487b7100000000000000000000000000000000000000000000000000000000600052604160045260246000fd5b6040519080825280601f01601f19166020018201604052801561133d5781602001600182028036833780820191505090505b5090505b600085146113f0576001826113569190612408565b9150600a85611365919061259e565b60306113719190612381565b60f81b8183815181106113ad577f4e487b7100000000000000000000000000000000000000000000000000000000600052603260045260246000fd5b60200101907effffffffffffffffffffffffffffffffffffffffffffffffffffffffffffff1916908160001a905350600a856113e991906123d7565b9450611341565b8093505050505b919050565b60008073ffffffffffffffffffffffffffffffffffffffff166002600084815260200190815260200160002060009054906101000a900473ffffffffffffffffffffffffffffffffffffffff1673ffffffffffffffffffffffffffffffffffffffff1614159050919050565b505050565b505050565b61147f868686868661166a565b61148c60008784846114d3565b6114cb576040517f08c379a00000000000000000000000000000000000000000000000000000000081526004016114c29061215c565b60405180910390fd5b505050505050565b60006114f48473ffffffffffffffffffffffffffffffffffffffff16611961565b1561165d578373ffffffffffffffffffffffffffffffffffffffff1663150b7a0261151d610bd3565b8786866040518563ffffffff1660e01b815260040161153f94939291906120b3565b602060405180830381600087803b15801561155957600080fd5b505af192505050801561158a57506040513d601f19601f820116820180604052508101906115879190611dd1565b60015b61160d573d80600081146115ba576040519150601f19603f3d011682016040523d82523d6000602084013e6115bf565b606091505b50600081511415611605576040517f08c379a00000000000000000000000000000000000000000000000000000000081526004016115fc9061215c565b60405180910390fd5b805181602001fd5b63150b7a0260e01b7bffffffffffffffffffffffffffffffffffffffffffffffffffffffff1916817bffffffffffffffffffffffffffffffffffffffffffffffffffffffff191614915050611662565b600190505b949350505050565b600073ffffffffffffffffffffffffffffffffffffffff168573ffffffffffffffffffffffffffffffffffffffff1614156116da576040517f08c379a00000000000000000000000000000000000000000000000000000000081526004016116d19061221c565b60405180910390fd5b600073ffffffffffffffffffffffffffffffffffffffff168373ffffffffffffffffffffffffffffffffffffffff16141561174a576040517f08c379a00000000000000000000000000000000000000000000000000000000081526004016117419061221c565b60405180910390fd5b611753816113fc565b15611793576040517f08c379a000000000000000000000000000000000000000000000000000000000815260040161178a9061219c565b60405180910390fd5b61179f60008683611468565b6117a8816113fc565b156117e8576040517f08c379a00000000000000000000000000000000000000000000000000000000081526004016117df9061219c565b60405180910390fd5b6001600560008773ffffffffffffffffffffffffffffffffffffffff1673ffffffffffffffffffffffffffffffffffffffff16815260200190815260200160002060008282540192505081905550846002600083815260200190815260200160002060006101000a81548173ffffffffffffffffffffffffffffffffffffffff021916908373ffffffffffffffffffffffffffffffffffffffff160217905550826003600083815260200190815260200160002060006101000a81548173ffffffffffffffffffffffffffffffffffffffff021916908373ffffffffffffffffffffffffffffffffffffffff160217905550816004600083815260200190815260200160002081905550808573ffffffffffffffffffffffffffffffffffffffff16600073ffffffffffffffffffffffffffffffffffffffff167fddf252ad1be2c89b69c2b068fc378daa952ba7f163c4a11628f55a4df523b3ef60405160405180910390a461195a6000868361146d565b5050505050565b6000808273ffffffffffffffffffffffffffffffffffffffff163b119050919050565b828054611990906124f2565b90600052602060002090601f0160209004810192826119b257600085556119f9565b82601f106119cb57805160ff19168380011785556119f9565b828001600101855582156119f9579182015b828111156119f85782518255916020019190600101906119dd565b5b509050611a069190611a0a565b5090565b5b80821115611a23576000816000905550600101611a0b565b5090565b6000611a3a611a35846122dc565b6122b7565b905082815260208101848484011115611a5257600080fd5b611a5d8482856124b0565b509392505050565b6000611a78611a738461230d565b6122b7565b905082815260208101848484011115611a9057600080fd5b611a9b8482856124b0565b509392505050565b600081359050611ab281612969565b92915050565b600081359050611ac781612980565b92915050565b600081359050611adc81612997565b92915050565b600081519050611af181612997565b92915050565b600082601f830112611b0857600080fd5b8135611b18848260208601611a27565b91505092915050565b600082601f830112611b3257600080fd5b8135611b42848260208601611a65565b91505092915050565b600081359050611b5a816129ae565b92915050565b600060208284031215611b7257600080fd5b6000611b8084828501611aa3565b91505092915050565b60008060408385031215611b9c57600080fd5b6000611baa85828601611aa3565b9250506020611bbb85828601611aa3565b9150509250929050565b600080600060608486031215611bda57600080fd5b6000611be886828701611aa3565b9350506020611bf986828701611aa3565b9250506040611c0a86828701611b4b565b9150509250925092565b60008060008060808587031215611c2a57600080fd5b6000611c3887828801611aa3565b9450506020611c4987828801611aa3565b9350506040611c5a87828801611b4b565b925050606085013567ffffffffffffffff811115611c7757600080fd5b611c8387828801611af7565b91505092959194509250565b60008060408385031215611ca257600080fd5b6000611cb085828601611aa3565b9250506020611cc185828601611ab8565b9150509250929050565b60008060408385031215611cde57600080fd5b6000611cec85828601611aa3565b9250506020611cfd85828601611b4b565b9150509250929050565b60008060008060008060c08789031215611d2057600080fd5b6000611d2e89828a01611aa3565b9650506020611d3f89828a01611b4b565b9550506040611d5089828a01611aa3565b9450506060611d6189828a01611b4b565b9350506080611d7289828a01611b4b565b92505060a087013567ffffffffffffffff811115611d8f57600080fd5b611d9b89828a01611b21565b9150509295509295509295565b600060208284031215611dba57600080fd5b6000611dc884828501611acd565b91505092915050565b600060208284031215611de357600080fd5b6000611df184828501611ae2565b91505092915050565b600060208284031215611e0c57600080fd5b6000611e1a84828501611b4b565b91505092915050565b611e2c8161243c565b82525050565b611e3b8161244e565b82525050565b6000611e4c8261233e565b611e568185612354565b9350611e668185602086016124bf565b611e6f8161268b565b840191505092915050565b6000611e8582612349565b611e8f8185612365565b9350611e9f8185602086016124bf565b611ea88161268b565b840191505092915050565b6000611ebe82612349565b611ec88185612376565b9350611ed88185602086016124bf565b80840191505092915050565b6000611ef1602d83612365565b9150611efc8261269c565b604082019050919050565b6000611f14603283612365565b9150611f1f826126eb565b604082019050919050565b6000611f37602583612365565b9150611f428261273a565b604082019050919050565b6000611f5a601c83612365565b9150611f6582612789565b602082019050919050565b6000611f7d602483612365565b9150611f88826127b2565b604082019050919050565b6000611fa0601983612365565b9150611fab82612801565b602082019050919050565b6000611fc3602983612365565b9150611fce8261282a565b604082019050919050565b6000611fe6602083612365565b9150611ff182612879565b602082019050919050565b6000612009601883612365565b9150612014826128a2565b602082019050919050565b600061202c602183612365565b9150612037826128cb565b604082019050919050565b600061204f603d83612365565b915061205a8261291a565b604082019050919050565b61206e816124a6565b82525050565b60006120808285611eb3565b915061208c8284611eb3565b91508190509392505050565b60006020820190506120ad6000830184611e23565b92915050565b60006080820190506120c86000830187611e23565b6120d56020830186611e23565b6120e26040830185612065565b81810360608301526120f48184611e41565b905095945050505050565b60006020820190506121146000830184611e32565b92915050565b600060208201905081810360008301526121348184611e7a565b905092915050565b6000602082019050818103600083015261215581611ee4565b9050919050565b6000602082019050818103600083015261217581611f07565b9050919050565b6000602082019050818103600083015261219581611f2a565b9050919050565b600060208201905081810360008301526121b581611f4d565b9050919050565b600060208201905081810360008301526121d581611f70565b9050919050565b600060208201905081810360008301526121f581611f93565b9050919050565b6000602082019050818103600083015261221581611fb6565b9050919050565b6000602082019050818103600083015261223581611fd9565b9050919050565b6000602082019050818103600083015261225581611ffc565b9050919050565b600060208201905081810360008301526122758161201f565b9050919050565b6000602082019050818103600083015261229581612042565b9050919050565b60006020820190506122b16000830184612065565b92915050565b60006122c16122d2565b90506122cd8282612524565b919050565b6000604051905090565b600067ffffffffffffffff8211156122f7576122f661265c565b5b6123008261268b565b9050602081019050919050565b600067ffffffffffffffff8211156123285761232761265c565b5b6123318261268b565b9050602081019050919050565b600081519050919050565b600081519050919050565b600082825260208201905092915050565b600082825260208201905092915050565b600081905092915050565b600061238c826124a6565b9150612397836124a6565b9250827fffffffffffffffffffffffffffffffffffffffffffffffffffffffffffffffff038211156123cc576123cb6125cf565b5b828201905092915050565b60006123e2826124a6565b91506123ed836124a6565b9250826123fd576123fc6125fe565b5b828204905092915050565b6000612413826124a6565b915061241e836124a6565b925082821015612431576124306125cf565b5b828203905092915050565b600061244782612486565b9050919050565b60008115159050919050565b60007fffffffff0000000000000000000000000000000000000000000000000000000082169050919050565b600073ffffffffffffffffffffffffffffffffffffffff82169050919050565b6000819050919050565b82818337600083830152505050565b60005b838110156124dd5780820151818401526020810190506124c2565b838111156124ec576000848401525b50505050565b6000600282049050600182168061250a57607f821691505b6020821081141561251e5761251d61262d565b5b50919050565b61252d8261268b565b810181811067ffffffffffffffff8211171561254c5761254b61265c565b5b80604052505050565b6000612560826124a6565b91507fffffffffffffffffffffffffffffffffffffffffffffffffffffffffffffffff821415612593576125926125cf565b5b600182019050919050565b60006125a9826124a6565b91506125b4836124a6565b9250826125c4576125c36125fe565b5b828206905092915050565b7f4e487b7100000000000000000000000000000000000000000000000000000000600052601160045260246000fd5b7f4e487b7100000000000000000000000000000000000000000000000000000000600052601260045260246000fd5b7f4e487b7100000000000000000000000000000000000000000000000000000000600052602260045260246000fd5b7f4e487b7100000000000000000000000000000000000000000000000000000000600052604160045260246000fd5b6000601f19601f8301169050919050565b7f4552433732313a2063616c6c6572206973206e6f7420746f6b656e206f776e6560008201527f72206f7220617070726f76656400000000000000000000000000000000000000602082015250565b7f4552433732313a207472616e7366657220746f206e6f6e20455243373231526560008201527f63656976657220696d706c656d656e7465720000000000000000000000000000602082015250565b7f4552433732313a207472616e736665722066726f6d20696e636f72726563742060008201527f6f776e6572000000000000000000000000000000000000000000000000000000602082015250565b7f4552433732313a20746f6b656e20616c7265616479206d696e74656400000000600082015250565b7f4552433732313a207472616e7366657220746f20746865207a65726f2061646460008201527f7265737300000000000000000000000000000000000000000000000000000000602082015250565b7f4552433732313a20617070726f766520746f2063616c6c657200000000000000600082015250565b7f4552433732313a2061646472657373207a65726f206973206e6f74206120766160008201527f6c6964206f776e65720000000000000000000000000000000000000000000000602082015250565b7f4552433732313a206d696e7420746f20746865207a65726f2061646472657373600082015250565b7f4552433732313a20696e76616c696420746f6b656e2049440000000000000000600082015250565b7f4552433732313a20617070726f76616c20746f2063757272656e74206f776e6560008201527f7200000000000000000000000000000000000000000000000000000000000000602082015250565b7f4552433732313a20617070726f76652063616c6c6572206973206e6f7420746f60008201527f6b656e206f776e6572206f7220617070726f76656420666f7220616c6c000000602082015250565b6129728161243c565b811461297d57600080fd5b50565b6129898161244e565b811461299457600080fd5b50565b6129a08161245a565b81146129ab57600080fd5b50565b6129b7816124a6565b81146129c257600080fd5b5056fea264697066735822122058a7344b9ac61bc8d18f374fd034c73255440e279417648ea8e30d5d416e4b8d64736f6c63430008040033",
					"opcodes": "PUSH1 0x80 PUSH1 0x40 MSTORE CALLVALUE DUP1 ISZERO PUSH3 0x11 JUMPI PUSH1 0x0 DUP1 REVERT JUMPDEST POP PUSH1 0x40 MLOAD PUSH3 0x2D81 CODESIZE SUB DUP1 PUSH3 0x2D81 DUP4 CODECOPY DUP2 DUP2 ADD PUSH1 0x40 MSTORE DUP2 ADD SWAP1 PUSH3 0x37 SWAP2 SWAP1 PUSH3 0x193 JUMP JUMPDEST DUP2 PUSH1 0x0 SWAP1 DUP1 MLOAD SWAP1 PUSH1 0x20 ADD SWAP1 PUSH3 0x4F SWAP3 SWAP2 SWAP1 PUSH3 0x71 JUMP JUMPDEST POP DUP1 PUSH1 0x1 SWAP1 DUP1 MLOAD SWAP1 PUSH1 0x20 ADD SWAP1 PUSH3 0x68 SWAP3 SWAP2 SWAP1 PUSH3 0x71 JUMP JUMPDEST POP POP POP PUSH3 0x376 JUMP JUMPDEST DUP3 DUP1 SLOAD PUSH3 0x7F SWAP1 PUSH3 0x29B JUMP JUMPDEST SWAP1 PUSH1 0x0 MSTORE PUSH1 0x20 PUSH1 0x0 KECCAK256 SWAP1 PUSH1 0x1F ADD PUSH1 0x20 SWAP1 DIV DUP2 ADD SWAP3 DUP3 PUSH3 0xA3 JUMPI PUSH1 0x0 DUP6 SSTORE PUSH3 0xEF JUMP JUMPDEST DUP3 PUSH1 0x1F LT PUSH3 0xBE JUMPI DUP1 MLOAD PUSH1 0xFF NOT AND DUP4 DUP1 ADD OR DUP6 SSTORE PUSH3 0xEF JUMP JUMPDEST DUP3 DUP1 ADD PUSH1 0x1 ADD DUP6 SSTORE DUP3 ISZERO PUSH3 0xEF JUMPI SWAP2 DUP3 ADD JUMPDEST DUP3 DUP2 GT ISZERO PUSH3 0xEE JUMPI DUP3 MLOAD DUP3 SSTORE SWAP2 PUSH1 0x20 ADD SWAP2 SWAP1 PUSH1 0x1 ADD SWAP1 PUSH3 0xD1 JUMP JUMPDEST JUMPDEST POP SWAP1 POP PUSH3 0xFE SWAP2 SWAP1 PUSH3 0x102 JUMP JUMPDEST POP SWAP1 JUMP JUMPDEST JUMPDEST DUP1 DUP3 GT ISZERO PUSH3 0x11D JUMPI PUSH1 0x0 DUP2 PUSH1 0x0 SWAP1 SSTORE POP PUSH1 0x1 ADD PUSH3 0x103 JUMP JUMPDEST POP SWAP1 JUMP JUMPDEST PUSH1 0x0 PUSH3 0x138 PUSH3 0x132 DUP5 PUSH3 0x22F JUMP JUMPDEST PUSH3 0x206 JUMP JUMPDEST SWAP1 POP DUP3 DUP2 MSTORE PUSH1 0x20 DUP2 ADD DUP5 DUP5 DUP5 ADD GT ISZERO PUSH3 0x151 JUMPI PUSH1 0x0 DUP1 REVERT JUMPDEST PUSH3 0x15E DUP5 DUP3 DUP6 PUSH3 0x265 JUMP JUMPDEST POP SWAP4 SWAP3 POP POP POP JUMP JUMPDEST PUSH1 0x0 DUP3 PUSH1 0x1F DUP4 ADD SLT PUSH3 0x178 JUMPI PUSH1 0x0 DUP1 REVERT JUMPDEST DUP2 MLOAD PUSH3 0x18A DUP5 DUP3 PUSH1 0x20 DUP7 ADD PUSH3 0x121 JUMP JUMPDEST SWAP2 POP POP SWAP3 SWAP2 POP POP JUMP JUMPDEST PUSH1 0x0 DUP1 PUSH1 0x40 DUP4 DUP6 SUB SLT ISZERO PUSH3 0x1A7 JUMPI PUSH1 0x0 DUP1 REVERT JUMPDEST PUSH1 0x0 DUP4 ADD MLOAD PUSH8 0xFFFFFFFFFFFFFFFF DUP2 GT ISZERO PUSH3 0x1C2 JUMPI PUSH1 0x0 DUP1 REVERT JUMPDEST PUSH3 0x1D0 DUP6 DUP3 DUP7 ADD PUSH3 0x166 JUMP JUMPDEST SWAP3 POP POP PUSH1 0x20 DUP4 ADD MLOAD PUSH8 0xFFFFFFFFFFFFFFFF DUP2 GT ISZERO PUSH3 0x1EE JUMPI PUSH1 0x0 DUP1 REVERT JUMPDEST PUSH3 0x1FC DUP6 DUP3 DUP7 ADD PUSH3 0x166 JUMP JUMPDEST SWAP2 POP POP SWAP3 POP SWAP3 SWAP1 POP JUMP JUMPDEST PUSH1 0x0 PUSH3 0x212 PUSH3 0x225 JUMP JUMPDEST SWAP1 POP PUSH3 0x220 DUP3 DUP3 PUSH3 0x2D1 JUMP JUMPDEST SWAP2 SWAP1 POP JUMP JUMPDEST PUSH1 0x0 PUSH1 0x40 MLOAD SWAP1 POP SWAP1 JUMP JUMPDEST PUSH1 0x0 PUSH8 0xFFFFFFFFFFFFFFFF DUP3 GT ISZERO PUSH3 0x24D JUMPI PUSH3 0x24C PUSH3 0x336 JUMP JUMPDEST JUMPDEST PUSH3 0x258 DUP3 PUSH3 0x365 JUMP JUMPDEST SWAP1 POP PUSH1 0x20 DUP2 ADD SWAP1 POP SWAP2 SWAP1 POP JUMP JUMPDEST PUSH1 0x0 JUMPDEST DUP4 DUP2 LT ISZERO PUSH3 0x285 JUMPI DUP1 DUP3 ADD MLOAD DUP2 DUP5 ADD MSTORE PUSH1 0x20 DUP2 ADD SWAP1 POP PUSH3 0x268 JUMP JUMPDEST DUP4 DUP2 GT ISZERO PUSH3 0x295 JUMPI PUSH1 0x0 DUP5 DUP5 ADD MSTORE JUMPDEST POP POP POP POP JUMP JUMPDEST PUSH1 0x0 PUSH1 0x2 DUP3 DIV SWAP1 POP PUSH1 0x1 DUP3 AND DUP1 PUSH3 0x2B4 JUMPI PUSH1 0x7F DUP3 AND SWAP2 POP JUMPDEST PUSH1 0x20 DUP3 LT DUP2 EQ ISZERO PUSH3 0x2CB JUMPI PUSH3 0x2CA PUSH3 0x307 JUMP JUMPDEST JUMPDEST POP SWAP2 SWAP1 POP JUMP JUMPDEST PUSH3 0x2DC DUP3 PUSH3 0x365 JUMP JUMPDEST DUP2 ADD DUP2 DUP2 LT PUSH8 0xFFFFFFFFFFFFFFFF DUP3 GT OR ISZERO PUSH3 0x2FE JUMPI PUSH3 0x2FD PUSH3 0x336 JUMP JUMPDEST JUMPDEST DUP1 PUSH1 0x40 MSTORE POP POP POP JUMP JUMPDEST PUSH32 0x4E487B7100000000000000000000000000000000000000000000000000000000 PUSH1 0x0 MSTORE PUSH1 0x22 PUSH1 0x4 MSTORE PUSH1 0x24 PUSH1 0x0 REVERT JUMPDEST PUSH32 0x4E487B7100000000000000000000000000000000000000000000000000000000 PUSH1 0x0 MSTORE PUSH1 0x41 PUSH1 0x4 MSTORE PUSH1 0x24 PUSH1 0x0 REVERT JUMPDEST PUSH1 0x0 PUSH1 0x1F NOT PUSH1 0x1F DUP4 ADD AND SWAP1 POP SWAP2 SWAP1 POP JUMP JUMPDEST PUSH2 0x29FB DUP1 PUSH3 0x386 PUSH1 0x0 CODECOPY PUSH1 0x0 RETURN INVALID PUSH1 0x80 PUSH1 0x40 MSTORE CALLVALUE DUP1 ISZERO PUSH2 0x10 JUMPI PUSH1 0x0 DUP1 REVERT JUMPDEST POP PUSH1 0x4 CALLDATASIZE LT PUSH2 0x100 JUMPI PUSH1 0x0 CALLDATALOAD PUSH1 0xE0 SHR DUP1 PUSH4 0x70A08231 GT PUSH2 0x97 JUMPI DUP1 PUSH4 0xB88D4FDE GT PUSH2 0x66 JUMPI DUP1 PUSH4 0xB88D4FDE EQ PUSH2 0x2BD JUMPI DUP1 PUSH4 0xC87B56DD EQ PUSH2 0x2D9 JUMPI DUP1 PUSH4 0xE985E9C5 EQ PUSH2 0x309 JUMPI DUP1 PUSH4 0xEE48CDA2 EQ PUSH2 0x339 JUMPI PUSH2 0x100 JUMP JUMPDEST DUP1 PUSH4 0x70A08231 EQ PUSH2 0x237 JUMPI DUP1 PUSH4 0x95D89B41 EQ PUSH2 0x267 JUMPI DUP1 PUSH4 0x99EB80A9 EQ PUSH2 0x285 JUMPI DUP1 PUSH4 0xA22CB465 EQ PUSH2 0x2A1 JUMPI PUSH2 0x100 JUMP JUMPDEST DUP1 PUSH4 0x23B872DD GT PUSH2 0xD3 JUMPI DUP1 PUSH4 0x23B872DD EQ PUSH2 0x19F JUMPI DUP1 PUSH4 0x42842E0E EQ PUSH2 0x1BB JUMPI DUP1 PUSH4 0x52E04825 EQ PUSH2 0x1D7 JUMPI DUP1 PUSH4 0x6352211E EQ PUSH2 0x207 JUMPI PUSH2 0x100 JUMP JUMPDEST DUP1 PUSH4 0x1FFC9A7 EQ PUSH2 0x105 JUMPI DUP1 PUSH4 0x6FDDE03 EQ PUSH2 0x135 JUMPI DUP1 PUSH4 0x81812FC EQ PUSH2 0x153 JUMPI DUP1 PUSH4 0x95EA7B3 EQ PUSH2 0x183 JUMPI JUMPDEST PUSH1 0x0 DUP1 REVERT JUMPDEST PUSH2 0x11F PUSH1 0x4 DUP1 CALLDATASIZE SUB DUP2 ADD SWAP1 PUSH2 0x11A SWAP2 SWAP1 PUSH2 0x1DA8 JUMP JUMPDEST PUSH2 0x369 JUMP JUMPDEST PUSH1 0x40 MLOAD PUSH2 0x12C SWAP2 SWAP1 PUSH2 0x20FF JUMP JUMPDEST PUSH1 0x40 MLOAD DUP1 SWAP2 SUB SWAP1 RETURN JUMPDEST PUSH2 0x13D PUSH2 0x44B JUMP JUMPDEST PUSH1 0x40 MLOAD PUSH2 0x14A SWAP2 SWAP1 PUSH2 0x211A JUMP JUMPDEST PUSH1 0x40 MLOAD DUP1 SWAP2 SUB SWAP1 RETURN JUMPDEST PUSH2 0x16D PUSH1 0x4 DUP1 CALLDATASIZE SUB DUP2 ADD SWAP1 PUSH2 0x168 SWAP2 SWAP1 PUSH2 0x1DFA JUMP JUMPDEST PUSH2 0x4DD JUMP JUMPDEST PUSH1 0x40 MLOAD PUSH2 0x17A SWAP2 SWAP1 PUSH2 0x2098 JUMP JUMPDEST PUSH1 0x40 MLOAD DUP1 SWAP2 SUB SWAP1 RETURN JUMPDEST PUSH2 0x19D PUSH1 0x4 DUP1 CALLDATASIZE SUB DUP2 ADD SWAP1 PUSH2 0x198 SWAP2 SWAP1 PUSH2 0x1CCB JUMP JUMPDEST PUSH2 0x523 JUMP JUMPDEST STOP JUMPDEST PUSH2 0x1B9 PUSH1 0x4 DUP1 CALLDATASIZE SUB DUP2 ADD SWAP1 PUSH2 0x1B4 SWAP2 SWAP1 PUSH2 0x1BC5 JUMP JUMPDEST PUSH2 0x63B JUMP JUMPDEST STOP JUMPDEST PUSH2 0x1D5 PUSH1 0x4 DUP1 CALLDATASIZE SUB DUP2 ADD SWAP1 PUSH2 0x1D0 SWAP2 SWAP1 PUSH2 0x1BC5 JUMP JUMPDEST PUSH2 0x69B JUMP JUMPDEST STOP JUMPDEST PUSH2 0x1F1 PUSH1 0x4 DUP1 CALLDATASIZE SUB DUP2 ADD SWAP1 PUSH2 0x1EC SWAP2 SWAP1 PUSH2 0x1DFA JUMP JUMPDEST PUSH2 0x6BB JUMP JUMPDEST PUSH1 0x40 MLOAD PUSH2 0x1FE SWAP2 SWAP1 PUSH2 0x2098 JUMP JUMPDEST PUSH1 0x40 MLOAD DUP1 SWAP2 SUB SWAP1 RETURN JUMPDEST PUSH2 0x221 PUSH1 0x4 DUP1 CALLDATASIZE SUB DUP2 ADD SWAP1 PUSH2 0x21C SWAP2 SWAP1 PUSH2 0x1DFA JUMP JUMPDEST PUSH2 0x76D JUMP JUMPDEST PUSH1 0x40 MLOAD PUSH2 0x22E SWAP2 SWAP1 PUSH2 0x2098 JUMP JUMPDEST PUSH1 0x40 MLOAD DUP1 SWAP2 SUB SWAP1 RETURN JUMPDEST PUSH2 0x251 PUSH1 0x4 DUP1 CALLDATASIZE SUB DUP2 ADD SWAP1 PUSH2 0x24C SWAP2 SWAP1 PUSH2 0x1B60 JUMP JUMPDEST PUSH2 0x81F JUMP JUMPDEST PUSH1 0x40 MLOAD PUSH2 0x25E SWAP2 SWAP1 PUSH2 0x229C JUMP JUMPDEST PUSH1 0x40 MLOAD DUP1 SWAP2 SUB SWAP1 RETURN JUMPDEST PUSH2 0x26F PUSH2 0x8D7 JUMP JUMPDEST PUSH1 0x40 MLOAD PUSH2 0x27C SWAP2 SWAP1 PUSH2 0x211A JUMP JUMPDEST PUSH1 0x40 MLOAD DUP1 SWAP2 SUB SWAP1 RETURN JUMPDEST PUSH2 0x29F PUSH1 0x4 DUP1 CALLDATASIZE SUB DUP2 ADD SWAP1 PUSH2 0x29A SWAP2 SWAP1 PUSH2 0x1D07 JUMP JUMPDEST PUSH2 0x969 JUMP JUMPDEST STOP JUMPDEST PUSH2 0x2BB PUSH1 0x4 DUP1 CALLDATASIZE SUB DUP2 ADD SWAP1 PUSH2 0x2B6 SWAP2 SWAP1 PUSH2 0x1C8F JUMP JUMPDEST PUSH2 0x988 JUMP JUMPDEST STOP JUMPDEST PUSH2 0x2D7 PUSH1 0x4 DUP1 CALLDATASIZE SUB DUP2 ADD SWAP1 PUSH2 0x2D2 SWAP2 SWAP1 PUSH2 0x1C14 JUMP JUMPDEST PUSH2 0x99E JUMP JUMPDEST STOP JUMPDEST PUSH2 0x2F3 PUSH1 0x4 DUP1 CALLDATASIZE SUB DUP2 ADD SWAP1 PUSH2 0x2EE SWAP2 SWAP1 PUSH2 0x1DFA JUMP JUMPDEST PUSH2 0xA00 JUMP JUMPDEST PUSH1 0x40 MLOAD PUSH2 0x300 SWAP2 SWAP1 PUSH2 0x211A JUMP JUMPDEST PUSH1 0x40 MLOAD DUP1 SWAP2 SUB SWAP1 RETURN JUMPDEST PUSH2 0x323 PUSH1 0x4 DUP1 CALLDATASIZE SUB DUP2 ADD SWAP1 PUSH2 0x31E SWAP2 SWAP1 PUSH2 0x1B89 JUMP JUMPDEST PUSH2 0xA68 JUMP JUMPDEST PUSH1 0x40 MLOAD PUSH2 0x330 SWAP2 SWAP1 PUSH2 0x20FF JUMP JUMPDEST PUSH1 0x40 MLOAD DUP1 SWAP2 SUB SWAP1 RETURN JUMPDEST PUSH2 0x353 PUSH1 0x4 DUP1 CALLDATASIZE SUB DUP2 ADD SWAP1 PUSH2 0x34E SWAP2 SWAP1 PUSH2 0x1DFA JUMP JUMPDEST PUSH2 0xAFC JUMP JUMPDEST PUSH1 0x40 MLOAD PUSH2 0x360 SWAP2 SWAP1 PUSH2 0x229C JUMP JUMPDEST PUSH1 0x40 MLOAD DUP1 SWAP2 SUB SWAP1 RETURN JUMPDEST PUSH1 0x0 PUSH32 0x80AC58CD00000000000000000000000000000000000000000000000000000000 PUSH28 0xFFFFFFFFFFFFFFFFFFFFFFFFFFFFFFFFFFFFFFFFFFFFFFFFFFFFFFFF NOT AND DUP3 PUSH28 0xFFFFFFFFFFFFFFFFFFFFFFFFFFFFFFFFFFFFFFFFFFFFFFFFFFFFFFFF NOT AND EQ DUP1 PUSH2 0x434 JUMPI POP PUSH32 0x5B5E139F00000000000000000000000000000000000000000000000000000000 PUSH28 0xFFFFFFFFFFFFFFFFFFFFFFFFFFFFFFFFFFFFFFFFFFFFFFFFFFFFFFFF NOT AND DUP3 PUSH28 0xFFFFFFFFFFFFFFFFFFFFFFFFFFFFFFFFFFFFFFFFFFFFFFFFFFFFFFFF NOT AND EQ JUMPDEST DUP1 PUSH2 0x444 JUMPI POP PUSH2 0x443 DUP3 PUSH2 0xB1E JUMP JUMPDEST JUMPDEST SWAP1 POP SWAP2 SWAP1 POP JUMP JUMPDEST PUSH1 0x60 PUSH1 0x0 DUP1 SLOAD PUSH2 0x45A SWAP1 PUSH2 0x24F2 JUMP JUMPDEST DUP1 PUSH1 0x1F ADD PUSH1 0x20 DUP1 SWAP2 DIV MUL PUSH1 0x20 ADD PUSH1 0x40 MLOAD SWAP1 DUP2 ADD PUSH1 0x40 MSTORE DUP1 SWAP3 SWAP2 SWAP1 DUP2 DUP2 MSTORE PUSH1 0x20 ADD DUP3 DUP1 SLOAD PUSH2 0x486 SWAP1 PUSH2 0x24F2 JUMP JUMPDEST DUP1 ISZERO PUSH2 0x4D3 JUMPI DUP1 PUSH1 0x1F LT PUSH2 0x4A8 JUMPI PUSH2 0x100 DUP1 DUP4 SLOAD DIV MUL DUP4 MSTORE SWAP2 PUSH1 0x20 ADD SWAP2 PUSH2 0x4D3 JUMP JUMPDEST DUP3 ADD SWAP2 SWAP1 PUSH1 0x0 MSTORE PUSH1 0x20 PUSH1 0x0 KECCAK256 SWAP1 JUMPDEST DUP2 SLOAD DUP2 MSTORE SWAP1 PUSH1 0x1 ADD SWAP1 PUSH1 0x20 ADD DUP1 DUP4 GT PUSH2 0x4B6 JUMPI DUP3 SWAP1 SUB PUSH1 0x1F AND DUP3 ADD SWAP2 JUMPDEST POP POP POP POP POP SWAP1 POP SWAP1 JUMP JUMPDEST PUSH1 0x0 PUSH2 0x4E8 DUP3 PUSH2 0xB88 JUMP JUMPDEST PUSH1 0x6 PUSH1 0x0 DUP4 DUP2 MSTORE PUSH1 0x20 ADD SWAP1 DUP2 MSTORE PUSH1 0x20 ADD PUSH1 0x0 KECCAK256 PUSH1 0x0 SWAP1 SLOAD SWAP1 PUSH2 0x100 EXP SWAP1 DIV PUSH20 0xFFFFFFFFFFFFFFFFFFFFFFFFFFFFFFFFFFFFFFFF AND SWAP1 POP SWAP2 SWAP1 POP JUMP JUMPDEST PUSH1 0x0 PUSH2 0x52E DUP3 PUSH2 0x76D JUMP JUMPDEST SWAP1 POP DUP1 PUSH20 0xFFFFFFFFFFFFFFFFFFFFFFFFFFFFFFFFFFFFFFFF AND DUP4 PUSH20 0xFFFFFFFFFFFFFFFFFFFFFFFFFFFFFFFFFFFFFFFF AND EQ ISZERO PUSH2 0x59F JUMPI PUSH1 0x40 MLOAD PUSH32 0x8C379A000000000000000000000000000000000000000000000000000000000 DUP2 MSTORE PUSH1 0x4 ADD PUSH2 0x596 SWAP1 PUSH2 0x225C JUMP JUMPDEST PUSH1 0x40 MLOAD DUP1 SWAP2 SUB SWAP1 REVERT JUMPDEST DUP1 PUSH20 0xFFFFFFFFFFFFFFFFFFFFFFFFFFFFFFFFFFFFFFFF AND PUSH2 0x5BE PUSH2 0xBD3 JUMP JUMPDEST PUSH20 0xFFFFFFFFFFFFFFFFFFFFFFFFFFFFFFFFFFFFFFFF AND EQ DUP1 PUSH2 0x5ED JUMPI POP PUSH2 0x5EC DUP2 PUSH2 0x5E7 PUSH2 0xBD3 JUMP JUMPDEST PUSH2 0xA68 JUMP JUMPDEST JUMPDEST PUSH2 0x62C JUMPI PUSH1 0x40 MLOAD PUSH32 0x8C379A000000000000000000000000000000000000000000000000000000000 DUP2 MSTORE PUSH1 0x4 ADD PUSH2 0x623 SWAP1 PUSH2 0x227C JUMP JUMPDEST PUSH1 0x40 MLOAD DUP1 SWAP2 SUB SWAP1 REVERT JUMPDEST PUSH2 0x636 DUP4 DUP4 PUSH2 0xBDB JUMP JUMPDEST POP POP POP JUMP JUMPDEST PUSH2 0x64C PUSH2 0x646 PUSH2 0xBD3 JUMP JUMPDEST DUP3 PUSH2 0xC94 JUMP JUMPDEST PUSH2 0x68B JUMPI PUSH1 0x40 MLOAD PUSH32 0x8C379A000000000000000000000000000000000000000000000000000000000 DUP2 MSTORE PUSH1 0x4 ADD PUSH2 0x682 SWAP1 PUSH2 0x213C JUMP JUMPDEST PUSH1 0x40 MLOAD DUP1 SWAP2 SUB SWAP1 REVERT JUMPDEST PUSH2 0x696 DUP4 DUP4 DUP4 PUSH2 0xD29 JUMP JUMPDEST POP POP POP JUMP JUMPDEST PUSH2 0x6B6 DUP4 DUP4 DUP4 PUSH1 0x40 MLOAD DUP1 PUSH1 0x20 ADD PUSH1 0x40 MSTORE DUP1 PUSH1 0x0 DUP2 MSTORE POP PUSH2 0x99E JUMP JUMPDEST POP POP POP JUMP JUMPDEST PUSH1 0x0 DUP1 PUSH1 0x3 PUSH1 0x0 DUP5 DUP2 MSTORE PUSH1 0x20 ADD SWAP1 DUP2 MSTORE PUSH1 0x20 ADD PUSH1 0x0 KECCAK256 PUSH1 0x0 SWAP1 SLOAD SWAP1 PUSH2 0x100 EXP SWAP1 DIV PUSH20 0xFFFFFFFFFFFFFFFFFFFFFFFFFFFFFFFFFFFFFFFF AND SWAP1 POP PUSH1 0x0 PUSH20 0xFFFFFFFFFFFFFFFFFFFFFFFFFFFFFFFFFFFFFFFF AND DUP2 PUSH20 0xFFFFFFFFFFFFFFFFFFFFFFFFFFFFFFFFFFFFFFFF AND EQ ISZERO PUSH2 0x764 JUMPI PUSH1 0x40 MLOAD PUSH32 0x8C379A000000000000000000000000000000000000000000000000000000000 DUP2 MSTORE PUSH1 0x4 ADD PUSH2 0x75B SWAP1 PUSH2 0x223C JUMP JUMPDEST PUSH1 0x40 MLOAD DUP1 SWAP2 SUB SWAP1 REVERT JUMPDEST DUP1 SWAP2 POP POP SWAP2 SWAP1 POP JUMP JUMPDEST PUSH1 0x0 DUP1 PUSH1 0x2 PUSH1 0x0 DUP5 DUP2 MSTORE PUSH1 0x20 ADD SWAP1 DUP2 MSTORE PUSH1 0x20 ADD PUSH1 0x0 KECCAK256 PUSH1 0x0 SWAP1 SLOAD SWAP1 PUSH2 0x100 EXP SWAP1 DIV PUSH20 0xFFFFFFFFFFFFFFFFFFFFFFFFFFFFFFFFFFFFFFFF AND SWAP1 POP PUSH1 0x0 PUSH20 0xFFFFFFFFFFFFFFFFFFFFFFFFFFFFFFFFFFFFFFFF AND DUP2 PUSH20 0xFFFFFFFFFFFFFFFFFFFFFFFFFFFFFFFFFFFFFFFF AND EQ ISZERO PUSH2 0x816 JUMPI PUSH1 0x40 MLOAD PUSH32 0x8C379A000000000000000000000000000000000000000000000000000000000 DUP2 MSTORE PUSH1 0x4 ADD PUSH2 0x80D SWAP1 PUSH2 0x223C JUMP JUMPDEST PUSH1 0x40 MLOAD DUP1 SWAP2 SUB SWAP1 REVERT JUMPDEST DUP1 SWAP2 POP POP SWAP2 SWAP1 POP JUMP JUMPDEST PUSH1 0x0 DUP1 PUSH20 0xFFFFFFFFFFFFFFFFFFFFFFFFFFFFFFFFFFFFFFFF AND DUP3 PUSH20 0xFFFFFFFFFFFFFFFFFFFFFFFFFFFFFFFFFFFFFFFF AND EQ ISZERO PUSH2 0x890 JUMPI PUSH1 0x40 MLOAD PUSH32 0x8C379A000000000000000000000000000000000000000000000000000000000 DUP2 MSTORE PUSH1 0x4 ADD PUSH2 0x887 SWAP1 PUSH2 0x21FC JUMP JUMPDEST PUSH1 0x40 MLOAD DUP1 SWAP2 SUB SWAP1 REVERT JUMPDEST PUSH1 0x5 PUSH1 0x0 DUP4 PUSH20 0xFFFFFFFFFFFFFFFFFFFFFFFFFFFFFFFFFFFFFFFF AND PUSH20 0xFFFFFFFFFFFFFFFFFFFFFFFFFFFFFFFFFFFFFFFF AND DUP2 MSTORE PUSH1 0x20 ADD SWAP1 DUP2 MSTORE PUSH1 0x20 ADD PUSH1 0x0 KECCAK256 SLOAD SWAP1 POP SWAP2 SWAP1 POP JUMP JUMPDEST PUSH1 0x60 PUSH1 0x1 DUP1 SLOAD PUSH2 0x8E6 SWAP1 PUSH2 0x24F2 JUMP JUMPDEST DUP1 PUSH1 0x1F ADD PUSH1 0x20 DUP1 SWAP2 DIV MUL PUSH1 0x20 ADD PUSH1 0x40 MLOAD SWAP1 DUP2 ADD PUSH1 0x40 MSTORE DUP1 SWAP3 SWAP2 SWAP1 DUP2 DUP2 MSTORE PUSH1 0x20 ADD DUP3 DUP1 SLOAD PUSH2 0x912 SWAP1 PUSH2 0x24F2 JUMP JUMPDEST DUP1 ISZERO PUSH2 0x95F JUMPI DUP1 PUSH1 0x1F LT PUSH2 0x934 JUMPI PUSH2 0x100 DUP1 DUP4 SLOAD DIV MUL DUP4 MSTORE SWAP2 PUSH1 0x20 ADD SWAP2 PUSH2 0x95F JUMP JUMPDEST DUP3 ADD SWAP2 SWAP1 PUSH1 0x0 MSTORE PUSH1 0x20 PUSH1 0x0 KECCAK256 SWAP1 JUMPDEST DUP2 SLOAD DUP2 MSTORE SWAP1 PUSH1 0x1 ADD SWAP1 PUSH1 0x20 ADD DUP1 DUP4 GT PUSH2 0x942 JUMPI DUP3 SWAP1 SUB PUSH1 0x1F AND DUP3 ADD SWAP2 JUMPDEST POP POP POP POP POP SWAP1 POP SWAP1 JUMP JUMPDEST PUSH2 0x976 DUP7 DUP7 DUP7 DUP7 DUP7 PUSH2 0x101F JUMP JUMPDEST PUSH2 0x980 DUP3 DUP3 PUSH2 0x1043 JUMP JUMPDEST POP POP POP POP POP POP JUMP JUMPDEST PUSH2 0x99A PUSH2 0x993 PUSH2 0xBD3 JUMP JUMPDEST DUP4 DUP4 PUSH2 0x106F JUMP JUMPDEST POP POP JUMP JUMPDEST PUSH2 0x9AF PUSH2 0x9A9 PUSH2 0xBD3 JUMP JUMPDEST DUP4 PUSH2 0xC94 JUMP JUMPDEST PUSH2 0x9EE JUMPI PUSH1 0x40 MLOAD PUSH32 0x8C379A000000000000000000000000000000000000000000000000000000000 DUP2 MSTORE PUSH1 0x4 ADD PUSH2 0x9E5 SWAP1 PUSH2 0x213C JUMP JUMPDEST PUSH1 0x40 MLOAD DUP1 SWAP2 SUB SWAP1 REVERT JUMPDEST PUSH2 0x9FA DUP5 DUP5 DUP5 DUP5 PUSH2 0x11DC JUMP JUMPDEST POP POP POP POP JUMP JUMPDEST PUSH1 0x60 PUSH2 0xA0B DUP3 PUSH2 0xB88 JUMP JUMPDEST PUSH1 0x0 PUSH2 0xA15 PUSH2 0x1238 JUMP JUMPDEST SWAP1 POP PUSH1 0x0 DUP2 MLOAD GT PUSH2 0xA35 JUMPI PUSH1 0x40 MLOAD DUP1 PUSH1 0x20 ADD PUSH1 0x40 MSTORE DUP1 PUSH1 0x0 DUP2 MSTORE POP PUSH2 0xA60 JUMP JUMPDEST DUP1 PUSH2 0xA3F DUP5 PUSH2 0x124F JUMP JUMPDEST PUSH1 0x40 MLOAD PUSH1 0x20 ADD PUSH2 0xA50 SWAP3 SWAP2 SWAP1 PUSH2 0x2074 JUMP JUMPDEST PUSH1 0x40 MLOAD PUSH1 0x20 DUP2 DUP4 SUB SUB DUP2 MSTORE SWAP1 PUSH1 0x40 MSTORE JUMPDEST SWAP2 POP POP SWAP2 SWAP1 POP JUMP JUMPDEST PUSH1 0x0 PUSH1 0x7 PUSH1 0x0 DUP5 PUSH20 0xFFFFFFFFFFFFFFFFFFFFFFFFFFFFFFFFFFFFFFFF AND PUSH20 0xFFFFFFFFFFFFFFFFFFFFFFFFFFFFFFFFFFFFFFFF AND DUP2 MSTORE PUSH1 0x20 ADD SWAP1 DUP2 MSTORE PUSH1 0x20 ADD PUSH1 0x0 KECCAK256 PUSH1 0x0 DUP4 PUSH20 0xFFFFFFFFFFFFFFFFFFFFFFFFFFFFFFFFFFFFFFFF AND PUSH20 0xFFFFFFFFFFFFFFFFFFFFFFFFFFFFFFFFFFFFFFFF AND DUP2 MSTORE PUSH1 0x20 ADD SWAP1 DUP2 MSTORE PUSH1 0x20 ADD PUSH1 0x0 KECCAK256 PUSH1 0x0 SWAP1 SLOAD SWAP1 PUSH2 0x100 EXP SWAP1 DIV PUSH1 0xFF AND SWAP1 POP SWAP3 SWAP2 POP POP JUMP JUMPDEST PUSH1 0x0 DUP1 PUSH1 0x4 PUSH1 0x0 DUP5 DUP2 MSTORE PUSH1 0x20 ADD SWAP1 DUP2 MSTORE PUSH1 0x20 ADD PUSH1 0x0 KECCAK256 SLOAD SWAP1 POP DUP1 SWAP2 POP POP SWAP2 SWAP1 POP JUMP JUMPDEST PUSH1 0x0 PUSH32 0x1FFC9A700000000000000000000000000000000000000000000000000000000 PUSH28 0xFFFFFFFFFFFFFFFFFFFFFFFFFFFFFFFFFFFFFFFFFFFFFFFFFFFFFFFF NOT AND DUP3 PUSH28 0xFFFFFFFFFFFFFFFFFFFFFFFFFFFFFFFFFFFFFFFFFFFFFFFFFFFFFFFF NOT AND EQ SWAP1 POP SWAP2 SWAP1 POP JUMP JUMPDEST PUSH2 0xB91 DUP2 PUSH2 0x13FC JUMP JUMPDEST PUSH2 0xBD0 JUMPI PUSH1 0x40 MLOAD PUSH32 0x8C379A000000000000000000000000000000000000000000000000000000000 DUP2 MSTORE PUSH1 0x4 ADD PUSH2 0xBC7 SWAP1 PUSH2 0x223C JUMP JUMPDEST PUSH1 0x40 MLOAD DUP1 SWAP2 SUB SWAP1 REVERT JUMPDEST POP JUMP JUMPDEST PUSH1 0x0 CALLER SWAP1 POP SWAP1 JUMP JUMPDEST DUP2 PUSH1 0x6 PUSH1 0x0 DUP4 DUP2 MSTORE PUSH1 0x20 ADD SWAP1 DUP2 MSTORE PUSH1 0x20 ADD PUSH1 0x0 KECCAK256 PUSH1 0x0 PUSH2 0x100 EXP DUP2 SLOAD DUP2 PUSH20 0xFFFFFFFFFFFFFFFFFFFFFFFFFFFFFFFFFFFFFFFF MUL NOT AND SWAP1 DUP4 PUSH20 0xFFFFFFFFFFFFFFFFFFFFFFFFFFFFFFFFFFFFFFFF AND MUL OR SWAP1 SSTORE POP DUP1 DUP3 PUSH20 0xFFFFFFFFFFFFFFFFFFFFFFFFFFFFFFFFFFFFFFFF AND PUSH2 0xC4E DUP4 PUSH2 0x76D JUMP JUMPDEST PUSH20 0xFFFFFFFFFFFFFFFFFFFFFFFFFFFFFFFFFFFFFFFF AND PUSH32 0x8C5BE1E5EBEC7D5BD14F71427D1E84F3DD0314C0F7B2291E5B200AC8C7C3B925 PUSH1 0x40 MLOAD PUSH1 0x40 MLOAD DUP1 SWAP2 SUB SWAP1 LOG4 POP POP JUMP JUMPDEST PUSH1 0x0 DUP1 PUSH2 0xCA0 DUP4 PUSH2 0x76D JUMP JUMPDEST SWAP1 POP DUP1 PUSH20 0xFFFFFFFFFFFFFFFFFFFFFFFFFFFFFFFFFFFFFFFF AND DUP5 PUSH20 0xFFFFFFFFFFFFFFFFFFFFFFFFFFFFFFFFFFFFFFFF AND EQ DUP1 PUSH2 0xCE2 JUMPI POP PUSH2 0xCE1 DUP2 DUP6 PUSH2 0xA68 JUMP JUMPDEST JUMPDEST DUP1 PUSH2 0xD20 JUMPI POP DUP4 PUSH20 0xFFFFFFFFFFFFFFFFFFFFFFFFFFFFFFFFFFFFFFFF AND PUSH2 0xD08 DUP5 PUSH2 0x4DD JUMP JUMPDEST PUSH20 0xFFFFFFFFFFFFFFFFFFFFFFFFFFFFFFFFFFFFFFFF AND EQ JUMPDEST SWAP2 POP POP SWAP3 SWAP2 POP POP JUMP JUMPDEST DUP3 PUSH20 0xFFFFFFFFFFFFFFFFFFFFFFFFFFFFFFFFFFFFFFFF AND PUSH2 0xD49 DUP3 PUSH2 0x76D JUMP JUMPDEST PUSH20 0xFFFFFFFFFFFFFFFFFFFFFFFFFFFFFFFFFFFFFFFF AND EQ PUSH2 0xD9F JUMPI PUSH1 0x40 MLOAD PUSH32 0x8C379A000000000000000000000000000000000000000000000000000000000 DUP2 MSTORE PUSH1 0x4 ADD PUSH2 0xD96 SWAP1 PUSH2 0x217C JUMP JUMPDEST PUSH1 0x40 MLOAD DUP1 SWAP2 SUB SWAP1 REVERT JUMPDEST PUSH1 0x0 PUSH20 0xFFFFFFFFFFFFFFFFFFFFFFFFFFFFFFFFFFFFFFFF AND DUP3 PUSH20 0xFFFFFFFFFFFFFFFFFFFFFFFFFFFFFFFFFFFFFFFF AND EQ ISZERO PUSH2 0xE0F JUMPI PUSH1 0x40 MLOAD PUSH32 0x8C379A000000000000000000000000000000000000000000000000000000000 DUP2 MSTORE PUSH1 0x4 ADD PUSH2 0xE06 SWAP1 PUSH2 0x21BC JUMP JUMPDEST PUSH1 0x40 MLOAD DUP1 SWAP2 SUB SWAP1 REVERT JUMPDEST PUSH2 0xE1A DUP4 DUP4 DUP4 PUSH2 0x1468 JUMP JUMPDEST DUP3 PUSH20 0xFFFFFFFFFFFFFFFFFFFFFFFFFFFFFFFFFFFFFFFF AND PUSH2 0xE3A DUP3 PUSH2 0x76D JUMP JUMPDEST PUSH20 0xFFFFFFFFFFFFFFFFFFFFFFFFFFFFFFFFFFFFFFFF AND EQ PUSH2 0xE90 JUMPI PUSH1 0x40 MLOAD PUSH32 0x8C379A000000000000000000000000000000000000000000000000000000000 DUP2 MSTORE PUSH1 0x4 ADD PUSH2 0xE87 SWAP1 PUSH2 0x217C JUMP JUMPDEST PUSH1 0x40 MLOAD DUP1 SWAP2 SUB SWAP1 REVERT JUMPDEST PUSH1 0x6 PUSH1 0x0 DUP3 DUP2 MSTORE PUSH1 0x20 ADD SWAP1 DUP2 MSTORE PUSH1 0x20 ADD PUSH1 0x0 KECCAK256 PUSH1 0x0 PUSH2 0x100 EXP DUP2 SLOAD SWAP1 PUSH20 0xFFFFFFFFFFFFFFFFFFFFFFFFFFFFFFFFFFFFFFFF MUL NOT AND SWAP1 SSTORE PUSH1 0x1 PUSH1 0x5 PUSH1 0x0 DUP6 PUSH20 0xFFFFFFFFFFFFFFFFFFFFFFFFFFFFFFFFFFFFFFFF AND PUSH20 0xFFFFFFFFFFFFFFFFFFFFFFFFFFFFFFFFFFFFFFFF AND DUP2 MSTORE PUSH1 0x20 ADD SWAP1 DUP2 MSTORE PUSH1 0x20 ADD PUSH1 0x0 KECCAK256 PUSH1 0x0 DUP3 DUP3 SLOAD SUB SWAP3 POP POP DUP2 SWAP1 SSTORE POP PUSH1 0x1 PUSH1 0x5 PUSH1 0x0 DUP5 PUSH20 0xFFFFFFFFFFFFFFFFFFFFFFFFFFFFFFFFFFFFFFFF AND PUSH20 0xFFFFFFFFFFFFFFFFFFFFFFFFFFFFFFFFFFFFFFFF AND DUP2 MSTORE PUSH1 0x20 ADD SWAP1 DUP2 MSTORE PUSH1 0x20 ADD PUSH1 0x0 KECCAK256 PUSH1 0x0 DUP3 DUP3 SLOAD ADD SWAP3 POP POP DUP2 SWAP1 SSTORE POP DUP2 PUSH1 0x2 PUSH1 0x0 DUP4 DUP2 MSTORE PUSH1 0x20 ADD SWAP1 DUP2 MSTORE PUSH1 0x20 ADD PUSH1 0x0 KECCAK256 PUSH1 0x0 PUSH2 0x100 EXP DUP2 SLOAD DUP2 PUSH20 0xFFFFFFFFFFFFFFFFFFFFFFFFFFFFFFFFFFFFFFFF MUL NOT AND SWAP1 DUP4 PUSH20 0xFFFFFFFFFFFFFFFFFFFFFFFFFFFFFFFFFFFFFFFF AND MUL OR SWAP1 SSTORE POP DUP1 DUP3 PUSH20 0xFFFFFFFFFFFFFFFFFFFFFFFFFFFFFFFFFFFFFFFF AND DUP5 PUSH20 0xFFFFFFFFFFFFFFFFFFFFFFFFFFFFFFFFFFFFFFFF AND PUSH32 0xDDF252AD1BE2C89B69C2B068FC378DAA952BA7F163C4A11628F55A4DF523B3EF PUSH1 0x40 MLOAD PUSH1 0x40 MLOAD DUP1 SWAP2 SUB SWAP1 LOG4 PUSH2 0x101A DUP4 DUP4 DUP4 PUSH2 0x146D JUMP JUMPDEST POP POP POP JUMP JUMPDEST PUSH2 0x103C DUP6 DUP6 DUP6 DUP6 DUP6 PUSH1 0x40 MLOAD DUP1 PUSH1 0x20 ADD PUSH1 0x40 MSTORE DUP1 PUSH1 0x0 DUP2 MSTORE POP PUSH2 0x1472 JUMP JUMPDEST POP POP POP POP POP JUMP JUMPDEST DUP1 PUSH1 0x8 PUSH1 0x0 DUP5 DUP2 MSTORE PUSH1 0x20 ADD SWAP1 DUP2 MSTORE PUSH1 0x20 ADD PUSH1 0x0 KECCAK256 SWAP1 DUP1 MLOAD SWAP1 PUSH1 0x20 ADD SWAP1 PUSH2 0x106A SWAP3 SWAP2 SWAP1 PUSH2 0x1984 JUMP JUMPDEST POP POP POP JUMP JUMPDEST DUP2 PUSH20 0xFFFFFFFFFFFFFFFFFFFFFFFFFFFFFFFFFFFFFFFF AND DUP4 PUSH20 0xFFFFFFFFFFFFFFFFFFFFFFFFFFFFFFFFFFFFFFFF AND EQ ISZERO PUSH2 0x10DE JUMPI PUSH1 0x40 MLOAD PUSH32 0x8C379A000000000000000000000000000000000000000000000000000000000 DUP2 MSTORE PUSH1 0x4 ADD PUSH2 0x10D5 SWAP1 PUSH2 0x21DC JUMP JUMPDEST PUSH1 0x40 MLOAD DUP1 SWAP2 SUB SWAP1 REVERT JUMPDEST DUP1 PUSH1 0x7 PUSH1 0x0 DUP6 PUSH20 0xFFFFFFFFFFFFFFFFFFFFFFFFFFFFFFFFFFFFFFFF AND PUSH20 0xFFFFFFFFFFFFFFFFFFFFFFFFFFFFFFFFFFFFFFFF AND DUP2 MSTORE PUSH1 0x20 ADD SWAP1 DUP2 MSTORE PUSH1 0x20 ADD PUSH1 0x0 KECCAK256 PUSH1 0x0 DUP5 PUSH20 0xFFFFFFFFFFFFFFFFFFFFFFFFFFFFFFFFFFFFFFFF AND PUSH20 0xFFFFFFFFFFFFFFFFFFFFFFFFFFFFFFFFFFFFFFFF AND DUP2 MSTORE PUSH1 0x20 ADD SWAP1 DUP2 MSTORE PUSH1 0x20 ADD PUSH1 0x0 KECCAK256 PUSH1 0x0 PUSH2 0x100 EXP DUP2 SLOAD DUP2 PUSH1 0xFF MUL NOT AND SWAP1 DUP4 ISZERO ISZERO MUL OR SWAP1 SSTORE POP DUP2 PUSH20 0xFFFFFFFFFFFFFFFFFFFFFFFFFFFFFFFFFFFFFFFF AND DUP4 PUSH20 0xFFFFFFFFFFFFFFFFFFFFFFFFFFFFFFFFFFFFFFFF AND PUSH32 0x17307EAB39AB6107E8899845AD3D59BD9653F200F220920489CA2B5937696C31 DUP4 PUSH1 0x40 MLOAD PUSH2 0x11CF SWAP2 SWAP1 PUSH2 0x20FF JUMP JUMPDEST PUSH1 0x40 MLOAD DUP1 SWAP2 SUB SWAP1 LOG3 POP POP POP JUMP JUMPDEST PUSH2 0x11E7 DUP5 DUP5 DUP5 PUSH2 0xD29 JUMP JUMPDEST PUSH2 0x11F3 DUP5 DUP5 DUP5 DUP5 PUSH2 0x14D3 JUMP JUMPDEST PUSH2 0x1232 JUMPI PUSH1 0x40 MLOAD PUSH32 0x8C379A000000000000000000000000000000000000000000000000000000000 DUP2 MSTORE PUSH1 0x4 ADD PUSH2 0x1229 SWAP1 PUSH2 0x215C JUMP JUMPDEST PUSH1 0x40 MLOAD DUP1 SWAP2 SUB SWAP1 REVERT JUMPDEST POP POP POP POP JUMP JUMPDEST PUSH1 0x60 PUSH1 0x40 MLOAD DUP1 PUSH1 0x20 ADD PUSH1 0x40 MSTORE DUP1 PUSH1 0x0 DUP2 MSTORE POP SWAP1 POP SWAP1 JUMP JUMPDEST PUSH1 0x60 PUSH1 0x0 DUP3 EQ ISZERO PUSH2 0x1297 JUMPI PUSH1 0x40 MLOAD DUP1 PUSH1 0x40 ADD PUSH1 0x40 MSTORE DUP1 PUSH1 0x1 DUP2 MSTORE PUSH1 0x20 ADD PUSH32 0x3000000000000000000000000000000000000000000000000000000000000000 DUP2 MSTORE POP SWAP1 POP PUSH2 0x13F7 JUMP JUMPDEST PUSH1 0x0 DUP3 SWAP1 POP PUSH1 0x0 JUMPDEST PUSH1 0x0 DUP3 EQ PUSH2 0x12C9 JUMPI DUP1 DUP1 PUSH2 0x12B2 SWAP1 PUSH2 0x2555 JUMP JUMPDEST SWAP2 POP POP PUSH1 0xA DUP3 PUSH2 0x12C2 SWAP2 SWAP1 PUSH2 0x23D7 JUMP JUMPDEST SWAP2 POP PUSH2 0x129F JUMP JUMPDEST PUSH1 0x0 DUP2 PUSH8 0xFFFFFFFFFFFFFFFF DUP2 GT ISZERO PUSH2 0x130B JUMPI PUSH32 0x4E487B7100000000000000000000000000000000000000000000000000000000 PUSH1 0x0 MSTORE PUSH1 0x41 PUSH1 0x4 MSTORE PUSH1 0x24 PUSH1 0x0 REVERT JUMPDEST PUSH1 0x40 MLOAD SWAP1 DUP1 DUP3 MSTORE DUP1 PUSH1 0x1F ADD PUSH1 0x1F NOT AND PUSH1 0x20 ADD DUP3 ADD PUSH1 0x40 MSTORE DUP1 ISZERO PUSH2 0x133D JUMPI DUP2 PUSH1 0x20 ADD PUSH1 0x1 DUP3 MUL DUP1 CALLDATASIZE DUP4 CALLDATACOPY DUP1 DUP3 ADD SWAP2 POP POP SWAP1 POP JUMPDEST POP SWAP1 POP JUMPDEST PUSH1 0x0 DUP6 EQ PUSH2 0x13F0 JUMPI PUSH1 0x1 DUP3 PUSH2 0x1356 SWAP2 SWAP1 PUSH2 0x2408 JUMP JUMPDEST SWAP2 POP PUSH1 0xA DUP6 PUSH2 0x1365 SWAP2 SWAP1 PUSH2 0x259E JUMP JUMPDEST PUSH1 0x30 PUSH2 0x1371 SWAP2 SWAP1 PUSH2 0x2381 JUMP JUMPDEST PUSH1 0xF8 SHL DUP2 DUP4 DUP2 MLOAD DUP2 LT PUSH2 0x13AD JUMPI PUSH32 0x4E487B7100000000000000000000000000000000000000000000000000000000 PUSH1 0x0 MSTORE PUSH1 0x32 PUSH1 0x4 MSTORE PUSH1 0x24 PUSH1 0x0 REVERT JUMPDEST PUSH1 0x20 ADD ADD SWAP1 PUSH31 0xFFFFFFFFFFFFFFFFFFFFFFFFFFFFFFFFFFFFFFFFFFFFFFFFFFFFFFFFFFFFFF NOT AND SWAP1 DUP2 PUSH1 0x0 BYTE SWAP1 MSTORE8 POP PUSH1 0xA DUP6 PUSH2 0x13E9 SWAP2 SWAP1 PUSH2 0x23D7 JUMP JUMPDEST SWAP5 POP PUSH2 0x1341 JUMP JUMPDEST DUP1 SWAP4 POP POP POP POP JUMPDEST SWAP2 SWAP1 POP JUMP JUMPDEST PUSH1 0x0 DUP1 PUSH20 0xFFFFFFFFFFFFFFFFFFFFFFFFFFFFFFFFFFFFFFFF AND PUSH1 0x2 PUSH1 0x0 DUP5 DUP2 MSTORE PUSH1 0x20 ADD SWAP1 DUP2 MSTORE PUSH1 0x20 ADD PUSH1 0x0 KECCAK256 PUSH1 0x0 SWAP1 SLOAD SWAP1 PUSH2 0x100 EXP SWAP1 DIV PUSH20 0xFFFFFFFFFFFFFFFFFFFFFFFFFFFFFFFFFFFFFFFF AND PUSH20 0xFFFFFFFFFFFFFFFFFFFFFFFFFFFFFFFFFFFFFFFF AND EQ ISZERO SWAP1 POP SWAP2 SWAP1 POP JUMP JUMPDEST POP POP POP JUMP JUMPDEST POP POP POP JUMP JUMPDEST PUSH2 0x147F DUP7 DUP7 DUP7 DUP7 DUP7 PUSH2 0x166A JUMP JUMPDEST PUSH2 0x148C PUSH1 0x0 DUP8 DUP5 DUP5 PUSH2 0x14D3 JUMP JUMPDEST PUSH2 0x14CB JUMPI PUSH1 0x40 MLOAD PUSH32 0x8C379A000000000000000000000000000000000000000000000000000000000 DUP2 MSTORE PUSH1 0x4 ADD PUSH2 0x14C2 SWAP1 PUSH2 0x215C JUMP JUMPDEST PUSH1 0x40 MLOAD DUP1 SWAP2 SUB SWAP1 REVERT JUMPDEST POP POP POP POP POP POP JUMP JUMPDEST PUSH1 0x0 PUSH2 0x14F4 DUP5 PUSH20 0xFFFFFFFFFFFFFFFFFFFFFFFFFFFFFFFFFFFFFFFF AND PUSH2 0x1961 JUMP JUMPDEST ISZERO PUSH2 0x165D JUMPI DUP4 PUSH20 0xFFFFFFFFFFFFFFFFFFFFFFFFFFFFFFFFFFFFFFFF AND PUSH4 0x150B7A02 PUSH2 0x151D PUSH2 0xBD3 JUMP JUMPDEST DUP8 DUP7 DUP7 PUSH1 0x40 MLOAD DUP6 PUSH4 0xFFFFFFFF AND PUSH1 0xE0 SHL DUP2 MSTORE PUSH1 0x4 ADD PUSH2 0x153F SWAP5 SWAP4 SWAP3 SWAP2 SWAP1 PUSH2 0x20B3 JUMP JUMPDEST PUSH1 0x20 PUSH1 0x40 MLOAD DUP1 DUP4 SUB DUP2 PUSH1 0x0 DUP8 DUP1 EXTCODESIZE ISZERO DUP1 ISZERO PUSH2 0x1559 JUMPI PUSH1 0x0 DUP1 REVERT JUMPDEST POP GAS CALL SWAP3 POP POP POP DUP1 ISZERO PUSH2 0x158A JUMPI POP PUSH1 0x40 MLOAD RETURNDATASIZE PUSH1 0x1F NOT PUSH1 0x1F DUP3 ADD AND DUP3 ADD DUP1 PUSH1 0x40 MSTORE POP DUP2 ADD SWAP1 PUSH2 0x1587 SWAP2 SWAP1 PUSH2 0x1DD1 JUMP JUMPDEST PUSH1 0x1 JUMPDEST PUSH2 0x160D JUMPI RETURNDATASIZE DUP1 PUSH1 0x0 DUP2 EQ PUSH2 0x15BA JUMPI PUSH1 0x40 MLOAD SWAP2 POP PUSH1 0x1F NOT PUSH1 0x3F RETURNDATASIZE ADD AND DUP3 ADD PUSH1 0x40 MSTORE RETURNDATASIZE DUP3 MSTORE RETURNDATASIZE PUSH1 0x0 PUSH1 0x20 DUP5 ADD RETURNDATACOPY PUSH2 0x15BF JUMP JUMPDEST PUSH1 0x60 SWAP2 POP JUMPDEST POP PUSH1 0x0 DUP2 MLOAD EQ ISZERO PUSH2 0x1605 JUMPI PUSH1 0x40 MLOAD PUSH32 0x8C379A000000000000000000000000000000000000000000000000000000000 DUP2 MSTORE PUSH1 0x4 ADD PUSH2 0x15FC SWAP1 PUSH2 0x215C JUMP JUMPDEST PUSH1 0x40 MLOAD DUP1 SWAP2 SUB SWAP1 REVERT JUMPDEST DUP1 MLOAD DUP2 PUSH1 0x20 ADD REVERT JUMPDEST PUSH4 0x150B7A02 PUSH1 0xE0 SHL PUSH28 0xFFFFFFFFFFFFFFFFFFFFFFFFFFFFFFFFFFFFFFFFFFFFFFFFFFFFFFFF NOT AND DUP2 PUSH28 0xFFFFFFFFFFFFFFFFFFFFFFFFFFFFFFFFFFFFFFFFFFFFFFFFFFFFFFFF NOT AND EQ SWAP2 POP POP PUSH2 0x1662 JUMP JUMPDEST PUSH1 0x1 SWAP1 POP JUMPDEST SWAP5 SWAP4 POP POP POP POP JUMP JUMPDEST PUSH1 0x0 PUSH20 0xFFFFFFFFFFFFFFFFFFFFFFFFFFFFFFFFFFFFFFFF AND DUP6 PUSH20 0xFFFFFFFFFFFFFFFFFFFFFFFFFFFFFFFFFFFFFFFF AND EQ ISZERO PUSH2 0x16DA JUMPI PUSH1 0x40 MLOAD PUSH32 0x8C379A000000000000000000000000000000000000000000000000000000000 DUP2 MSTORE PUSH1 0x4 ADD PUSH2 0x16D1 SWAP1 PUSH2 0x221C JUMP JUMPDEST PUSH1 0x40 MLOAD DUP1 SWAP2 SUB SWAP1 REVERT JUMPDEST PUSH1 0x0 PUSH20 0xFFFFFFFFFFFFFFFFFFFFFFFFFFFFFFFFFFFFFFFF AND DUP4 PUSH20 0xFFFFFFFFFFFFFFFFFFFFFFFFFFFFFFFFFFFFFFFF AND EQ ISZERO PUSH2 0x174A JUMPI PUSH1 0x40 MLOAD PUSH32 0x8C379A000000000000000000000000000000000000000000000000000000000 DUP2 MSTORE PUSH1 0x4 ADD PUSH2 0x1741 SWAP1 PUSH2 0x221C JUMP JUMPDEST PUSH1 0x40 MLOAD DUP1 SWAP2 SUB SWAP1 REVERT JUMPDEST PUSH2 0x1753 DUP2 PUSH2 0x13FC JUMP JUMPDEST ISZERO PUSH2 0x1793 JUMPI PUSH1 0x40 MLOAD PUSH32 0x8C379A000000000000000000000000000000000000000000000000000000000 DUP2 MSTORE PUSH1 0x4 ADD PUSH2 0x178A SWAP1 PUSH2 0x219C JUMP JUMPDEST PUSH1 0x40 MLOAD DUP1 SWAP2 SUB SWAP1 REVERT JUMPDEST PUSH2 0x179F PUSH1 0x0 DUP7 DUP4 PUSH2 0x1468 JUMP JUMPDEST PUSH2 0x17A8 DUP2 PUSH2 0x13FC JUMP JUMPDEST ISZERO PUSH2 0x17E8 JUMPI PUSH1 0x40 MLOAD PUSH32 0x8C379A000000000000000000000000000000000000000000000000000000000 DUP2 MSTORE PUSH1 0x4 ADD PUSH2 0x17DF SWAP1 PUSH2 0x219C JUMP JUMPDEST PUSH1 0x40 MLOAD DUP1 SWAP2 SUB SWAP1 REVERT JUMPDEST PUSH1 0x1 PUSH1 0x5 PUSH1 0x0 DUP8 PUSH20 0xFFFFFFFFFFFFFFFFFFFFFFFFFFFFFFFFFFFFFFFF AND PUSH20 0xFFFFFFFFFFFFFFFFFFFFFFFFFFFFFFFFFFFFFFFF AND DUP2 MSTORE PUSH1 0x20 ADD SWAP1 DUP2 MSTORE PUSH1 0x20 ADD PUSH1 0x0 KECCAK256 PUSH1 0x0 DUP3 DUP3 SLOAD ADD SWAP3 POP POP DUP2 SWAP1 SSTORE POP DUP5 PUSH1 0x2 PUSH1 0x0 DUP4 DUP2 MSTORE PUSH1 0x20 ADD SWAP1 DUP2 MSTORE PUSH1 0x20 ADD PUSH1 0x0 KECCAK256 PUSH1 0x0 PUSH2 0x100 EXP DUP2 SLOAD DUP2 PUSH20 0xFFFFFFFFFFFFFFFFFFFFFFFFFFFFFFFFFFFFFFFF MUL NOT AND SWAP1 DUP4 PUSH20 0xFFFFFFFFFFFFFFFFFFFFFFFFFFFFFFFFFFFFFFFF AND MUL OR SWAP1 SSTORE POP DUP3 PUSH1 0x3 PUSH1 0x0 DUP4 DUP2 MSTORE PUSH1 0x20 ADD SWAP1 DUP2 MSTORE PUSH1 0x20 ADD PUSH1 0x0 KECCAK256 PUSH1 0x0 PUSH2 0x100 EXP DUP2 SLOAD DUP2 PUSH20 0xFFFFFFFFFFFFFFFFFFFFFFFFFFFFFFFFFFFFFFFF MUL NOT AND SWAP1 DUP4 PUSH20 0xFFFFFFFFFFFFFFFFFFFFFFFFFFFFFFFFFFFFFFFF AND MUL OR SWAP1 SSTORE POP DUP2 PUSH1 0x4 PUSH1 0x0 DUP4 DUP2 MSTORE PUSH1 0x20 ADD SWAP1 DUP2 MSTORE PUSH1 0x20 ADD PUSH1 0x0 KECCAK256 DUP2 SWAP1 SSTORE POP DUP1 DUP6 PUSH20 0xFFFFFFFFFFFFFFFFFFFFFFFFFFFFFFFFFFFFFFFF AND PUSH1 0x0 PUSH20 0xFFFFFFFFFFFFFFFFFFFFFFFFFFFFFFFFFFFFFFFF AND PUSH32 0xDDF252AD1BE2C89B69C2B068FC378DAA952BA7F163C4A11628F55A4DF523B3EF PUSH1 0x40 MLOAD PUSH1 0x40 MLOAD DUP1 SWAP2 SUB SWAP1 LOG4 PUSH2 0x195A PUSH1 0x0 DUP7 DUP4 PUSH2 0x146D JUMP JUMPDEST POP POP POP POP POP JUMP JUMPDEST PUSH1 0x0 DUP1 DUP3 PUSH20 0xFFFFFFFFFFFFFFFFFFFFFFFFFFFFFFFFFFFFFFFF AND EXTCODESIZE GT SWAP1 POP SWAP2 SWAP1 POP JUMP JUMPDEST DUP3 DUP1 SLOAD PUSH2 0x1990 SWAP1 PUSH2 0x24F2 JUMP JUMPDEST SWAP1 PUSH1 0x0 MSTORE PUSH1 0x20 PUSH1 0x0 KECCAK256 SWAP1 PUSH1 0x1F ADD PUSH1 0x20 SWAP1 DIV DUP2 ADD SWAP3 DUP3 PUSH2 0x19B2 JUMPI PUSH1 0x0 DUP6 SSTORE PUSH2 0x19F9 JUMP JUMPDEST DUP3 PUSH1 0x1F LT PUSH2 0x19CB JUMPI DUP1 MLOAD PUSH1 0xFF NOT AND DUP4 DUP1 ADD OR DUP6 SSTORE PUSH2 0x19F9 JUMP JUMPDEST DUP3 DUP1 ADD PUSH1 0x1 ADD DUP6 SSTORE DUP3 ISZERO PUSH2 0x19F9 JUMPI SWAP2 DUP3 ADD JUMPDEST DUP3 DUP2 GT ISZERO PUSH2 0x19F8 JUMPI DUP3 MLOAD DUP3 SSTORE SWAP2 PUSH1 0x20 ADD SWAP2 SWAP1 PUSH1 0x1 ADD SWAP1 PUSH2 0x19DD JUMP JUMPDEST JUMPDEST POP SWAP1 POP PUSH2 0x1A06 SWAP2 SWAP1 PUSH2 0x1A0A JUMP JUMPDEST POP SWAP1 JUMP JUMPDEST JUMPDEST DUP1 DUP3 GT ISZERO PUSH2 0x1A23 JUMPI PUSH1 0x0 DUP2 PUSH1 0x0 SWAP1 SSTORE POP PUSH1 0x1 ADD PUSH2 0x1A0B JUMP JUMPDEST POP SWAP1 JUMP JUMPDEST PUSH1 0x0 PUSH2 0x1A3A PUSH2 0x1A35 DUP5 PUSH2 0x22DC JUMP JUMPDEST PUSH2 0x22B7 JUMP JUMPDEST SWAP1 POP DUP3 DUP2 MSTORE PUSH1 0x20 DUP2 ADD DUP5 DUP5 DUP5 ADD GT ISZERO PUSH2 0x1A52 JUMPI PUSH1 0x0 DUP1 REVERT JUMPDEST PUSH2 0x1A5D DUP5 DUP3 DUP6 PUSH2 0x24B0 JUMP JUMPDEST POP SWAP4 SWAP3 POP POP POP JUMP JUMPDEST PUSH1 0x0 PUSH2 0x1A78 PUSH2 0x1A73 DUP5 PUSH2 0x230D JUMP JUMPDEST PUSH2 0x22B7 JUMP JUMPDEST SWAP1 POP DUP3 DUP2 MSTORE PUSH1 0x20 DUP2 ADD DUP5 DUP5 DUP5 ADD GT ISZERO PUSH2 0x1A90 JUMPI PUSH1 0x0 DUP1 REVERT JUMPDEST PUSH2 0x1A9B DUP5 DUP3 DUP6 PUSH2 0x24B0 JUMP JUMPDEST POP SWAP4 SWAP3 POP POP POP JUMP JUMPDEST PUSH1 0x0 DUP2 CALLDATALOAD SWAP1 POP PUSH2 0x1AB2 DUP2 PUSH2 0x2969 JUMP JUMPDEST SWAP3 SWAP2 POP POP JUMP JUMPDEST PUSH1 0x0 DUP2 CALLDATALOAD SWAP1 POP PUSH2 0x1AC7 DUP2 PUSH2 0x2980 JUMP JUMPDEST SWAP3 SWAP2 POP POP JUMP JUMPDEST PUSH1 0x0 DUP2 CALLDATALOAD SWAP1 POP PUSH2 0x1ADC DUP2 PUSH2 0x2997 JUMP JUMPDEST SWAP3 SWAP2 POP POP JUMP JUMPDEST PUSH1 0x0 DUP2 MLOAD SWAP1 POP PUSH2 0x1AF1 DUP2 PUSH2 0x2997 JUMP JUMPDEST SWAP3 SWAP2 POP POP JUMP JUMPDEST PUSH1 0x0 DUP3 PUSH1 0x1F DUP4 ADD SLT PUSH2 0x1B08 JUMPI PUSH1 0x0 DUP1 REVERT JUMPDEST DUP2 CALLDATALOAD PUSH2 0x1B18 DUP5 DUP3 PUSH1 0x20 DUP7 ADD PUSH2 0x1A27 JUMP JUMPDEST SWAP2 POP POP SWAP3 SWAP2 POP POP JUMP JUMPDEST PUSH1 0x0 DUP3 PUSH1 0x1F DUP4 ADD SLT PUSH2 0x1B32 JUMPI PUSH1 0x0 DUP1 REVERT JUMPDEST DUP2 CALLDATALOAD PUSH2 0x1B42 DUP5 DUP3 PUSH1 0x20 DUP7 ADD PUSH2 0x1A65 JUMP JUMPDEST SWAP2 POP POP SWAP3 SWAP2 POP POP JUMP JUMPDEST PUSH1 0x0 DUP2 CALLDATALOAD SWAP1 POP PUSH2 0x1B5A DUP2 PUSH2 0x29AE JUMP JUMPDEST SWAP3 SWAP2 POP POP JUMP JUMPDEST PUSH1 0x0 PUSH1 0x20 DUP3 DUP5 SUB SLT ISZERO PUSH2 0x1B72 JUMPI PUSH1 0x0 DUP1 REVERT JUMPDEST PUSH1 0x0 PUSH2 0x1B80 DUP5 DUP3 DUP6 ADD PUSH2 0x1AA3 JUMP JUMPDEST SWAP2 POP POP SWAP3 SWAP2 POP POP JUMP JUMPDEST PUSH1 0x0 DUP1 PUSH1 0x40 DUP4 DUP6 SUB SLT ISZERO PUSH2 0x1B9C JUMPI PUSH1 0x0 DUP1 REVERT JUMPDEST PUSH1 0x0 PUSH2 0x1BAA DUP6 DUP3 DUP7 ADD PUSH2 0x1AA3 JUMP JUMPDEST SWAP3 POP POP PUSH1 0x20 PUSH2 0x1BBB DUP6 DUP3 DUP7 ADD PUSH2 0x1AA3 JUMP JUMPDEST SWAP2 POP POP SWAP3 POP SWAP3 SWAP1 POP JUMP JUMPDEST PUSH1 0x0 DUP1 PUSH1 0x0 PUSH1 0x60 DUP5 DUP7 SUB SLT ISZERO PUSH2 0x1BDA JUMPI PUSH1 0x0 DUP1 REVERT JUMPDEST PUSH1 0x0 PUSH2 0x1BE8 DUP7 DUP3 DUP8 ADD PUSH2 0x1AA3 JUMP JUMPDEST SWAP4 POP POP PUSH1 0x20 PUSH2 0x1BF9 DUP7 DUP3 DUP8 ADD PUSH2 0x1AA3 JUMP JUMPDEST SWAP3 POP POP PUSH1 0x40 PUSH2 0x1C0A DUP7 DUP3 DUP8 ADD PUSH2 0x1B4B JUMP JUMPDEST SWAP2 POP POP SWAP3 POP SWAP3 POP SWAP3 JUMP JUMPDEST PUSH1 0x0 DUP1 PUSH1 0x0 DUP1 PUSH1 0x80 DUP6 DUP8 SUB SLT ISZERO PUSH2 0x1C2A JUMPI PUSH1 0x0 DUP1 REVERT JUMPDEST PUSH1 0x0 PUSH2 0x1C38 DUP8 DUP3 DUP9 ADD PUSH2 0x1AA3 JUMP JUMPDEST SWAP5 POP POP PUSH1 0x20 PUSH2 0x1C49 DUP8 DUP3 DUP9 ADD PUSH2 0x1AA3 JUMP JUMPDEST SWAP4 POP POP PUSH1 0x40 PUSH2 0x1C5A DUP8 DUP3 DUP9 ADD PUSH2 0x1B4B JUMP JUMPDEST SWAP3 POP POP PUSH1 0x60 DUP6 ADD CALLDATALOAD PUSH8 0xFFFFFFFFFFFFFFFF DUP2 GT ISZERO PUSH2 0x1C77 JUMPI PUSH1 0x0 DUP1 REVERT JUMPDEST PUSH2 0x1C83 DUP8 DUP3 DUP9 ADD PUSH2 0x1AF7 JUMP JUMPDEST SWAP2 POP POP SWAP3 SWAP6 SWAP2 SWAP5 POP SWAP3 POP JUMP JUMPDEST PUSH1 0x0 DUP1 PUSH1 0x40 DUP4 DUP6 SUB SLT ISZERO PUSH2 0x1CA2 JUMPI PUSH1 0x0 DUP1 REVERT JUMPDEST PUSH1 0x0 PUSH2 0x1CB0 DUP6 DUP3 DUP7 ADD PUSH2 0x1AA3 JUMP JUMPDEST SWAP3 POP POP PUSH1 0x20 PUSH2 0x1CC1 DUP6 DUP3 DUP7 ADD PUSH2 0x1AB8 JUMP JUMPDEST SWAP2 POP POP SWAP3 POP SWAP3 SWAP1 POP JUMP JUMPDEST PUSH1 0x0 DUP1 PUSH1 0x40 DUP4 DUP6 SUB SLT ISZERO PUSH2 0x1CDE JUMPI PUSH1 0x0 DUP1 REVERT JUMPDEST PUSH1 0x0 PUSH2 0x1CEC DUP6 DUP3 DUP7 ADD PUSH2 0x1AA3 JUMP JUMPDEST SWAP3 POP POP PUSH1 0x20 PUSH2 0x1CFD DUP6 DUP3 DUP7 ADD PUSH2 0x1B4B JUMP JUMPDEST SWAP2 POP POP SWAP3 POP SWAP3 SWAP1 POP JUMP JUMPDEST PUSH1 0x0 DUP1 PUSH1 0x0 DUP1 PUSH1 0x0 DUP1 PUSH1 0xC0 DUP8 DUP10 SUB SLT ISZERO PUSH2 0x1D20 JUMPI PUSH1 0x0 DUP1 REVERT JUMPDEST PUSH1 0x0 PUSH2 0x1D2E DUP10 DUP3 DUP11 ADD PUSH2 0x1AA3 JUMP JUMPDEST SWAP7 POP POP PUSH1 0x20 PUSH2 0x1D3F DUP10 DUP3 DUP11 ADD PUSH2 0x1B4B JUMP JUMPDEST SWAP6 POP POP PUSH1 0x40 PUSH2 0x1D50 DUP10 DUP3 DUP11 ADD PUSH2 0x1AA3 JUMP JUMPDEST SWAP5 POP POP PUSH1 0x60 PUSH2 0x1D61 DUP10 DUP3 DUP11 ADD PUSH2 0x1B4B JUMP JUMPDEST SWAP4 POP POP PUSH1 0x80 PUSH2 0x1D72 DUP10 DUP3 DUP11 ADD PUSH2 0x1B4B JUMP JUMPDEST SWAP3 POP POP PUSH1 0xA0 DUP8 ADD CALLDATALOAD PUSH8 0xFFFFFFFFFFFFFFFF DUP2 GT ISZERO PUSH2 0x1D8F JUMPI PUSH1 0x0 DUP1 REVERT JUMPDEST PUSH2 0x1D9B DUP10 DUP3 DUP11 ADD PUSH2 0x1B21 JUMP JUMPDEST SWAP2 POP POP SWAP3 SWAP6 POP SWAP3 SWAP6 POP SWAP3 SWAP6 JUMP JUMPDEST PUSH1 0x0 PUSH1 0x20 DUP3 DUP5 SUB SLT ISZERO PUSH2 0x1DBA JUMPI PUSH1 0x0 DUP1 REVERT JUMPDEST PUSH1 0x0 PUSH2 0x1DC8 DUP5 DUP3 DUP6 ADD PUSH2 0x1ACD JUMP JUMPDEST SWAP2 POP POP SWAP3 SWAP2 POP POP JUMP JUMPDEST PUSH1 0x0 PUSH1 0x20 DUP3 DUP5 SUB SLT ISZERO PUSH2 0x1DE3 JUMPI PUSH1 0x0 DUP1 REVERT JUMPDEST PUSH1 0x0 PUSH2 0x1DF1 DUP5 DUP3 DUP6 ADD PUSH2 0x1AE2 JUMP JUMPDEST SWAP2 POP POP SWAP3 SWAP2 POP POP JUMP JUMPDEST PUSH1 0x0 PUSH1 0x20 DUP3 DUP5 SUB SLT ISZERO PUSH2 0x1E0C JUMPI PUSH1 0x0 DUP1 REVERT JUMPDEST PUSH1 0x0 PUSH2 0x1E1A DUP5 DUP3 DUP6 ADD PUSH2 0x1B4B JUMP JUMPDEST SWAP2 POP POP SWAP3 SWAP2 POP POP JUMP JUMPDEST PUSH2 0x1E2C DUP2 PUSH2 0x243C JUMP JUMPDEST DUP3 MSTORE POP POP JUMP JUMPDEST PUSH2 0x1E3B DUP2 PUSH2 0x244E JUMP JUMPDEST DUP3 MSTORE POP POP JUMP JUMPDEST PUSH1 0x0 PUSH2 0x1E4C DUP3 PUSH2 0x233E JUMP JUMPDEST PUSH2 0x1E56 DUP2 DUP6 PUSH2 0x2354 JUMP JUMPDEST SWAP4 POP PUSH2 0x1E66 DUP2 DUP6 PUSH1 0x20 DUP7 ADD PUSH2 0x24BF JUMP JUMPDEST PUSH2 0x1E6F DUP2 PUSH2 0x268B JUMP JUMPDEST DUP5 ADD SWAP2 POP POP SWAP3 SWAP2 POP POP JUMP JUMPDEST PUSH1 0x0 PUSH2 0x1E85 DUP3 PUSH2 0x2349 JUMP JUMPDEST PUSH2 0x1E8F DUP2 DUP6 PUSH2 0x2365 JUMP JUMPDEST SWAP4 POP PUSH2 0x1E9F DUP2 DUP6 PUSH1 0x20 DUP7 ADD PUSH2 0x24BF JUMP JUMPDEST PUSH2 0x1EA8 DUP2 PUSH2 0x268B JUMP JUMPDEST DUP5 ADD SWAP2 POP POP SWAP3 SWAP2 POP POP JUMP JUMPDEST PUSH1 0x0 PUSH2 0x1EBE DUP3 PUSH2 0x2349 JUMP JUMPDEST PUSH2 0x1EC8 DUP2 DUP6 PUSH2 0x2376 JUMP JUMPDEST SWAP4 POP PUSH2 0x1ED8 DUP2 DUP6 PUSH1 0x20 DUP7 ADD PUSH2 0x24BF JUMP JUMPDEST DUP1 DUP5 ADD SWAP2 POP POP SWAP3 SWAP2 POP POP JUMP JUMPDEST PUSH1 0x0 PUSH2 0x1EF1 PUSH1 0x2D DUP4 PUSH2 0x2365 JUMP JUMPDEST SWAP2 POP PUSH2 0x1EFC DUP3 PUSH2 0x269C JUMP JUMPDEST PUSH1 0x40 DUP3 ADD SWAP1 POP SWAP2 SWAP1 POP JUMP JUMPDEST PUSH1 0x0 PUSH2 0x1F14 PUSH1 0x32 DUP4 PUSH2 0x2365 JUMP JUMPDEST SWAP2 POP PUSH2 0x1F1F DUP3 PUSH2 0x26EB JUMP JUMPDEST PUSH1 0x40 DUP3 ADD SWAP1 POP SWAP2 SWAP1 POP JUMP JUMPDEST PUSH1 0x0 PUSH2 0x1F37 PUSH1 0x25 DUP4 PUSH2 0x2365 JUMP JUMPDEST SWAP2 POP PUSH2 0x1F42 DUP3 PUSH2 0x273A JUMP JUMPDEST PUSH1 0x40 DUP3 ADD SWAP1 POP SWAP2 SWAP1 POP JUMP JUMPDEST PUSH1 0x0 PUSH2 0x1F5A PUSH1 0x1C DUP4 PUSH2 0x2365 JUMP JUMPDEST SWAP2 POP PUSH2 0x1F65 DUP3 PUSH2 0x2789 JUMP JUMPDEST PUSH1 0x20 DUP3 ADD SWAP1 POP SWAP2 SWAP1 POP JUMP JUMPDEST PUSH1 0x0 PUSH2 0x1F7D PUSH1 0x24 DUP4 PUSH2 0x2365 JUMP JUMPDEST SWAP2 POP PUSH2 0x1F88 DUP3 PUSH2 0x27B2 JUMP JUMPDEST PUSH1 0x40 DUP3 ADD SWAP1 POP SWAP2 SWAP1 POP JUMP JUMPDEST PUSH1 0x0 PUSH2 0x1FA0 PUSH1 0x19 DUP4 PUSH2 0x2365 JUMP JUMPDEST SWAP2 POP PUSH2 0x1FAB DUP3 PUSH2 0x2801 JUMP JUMPDEST PUSH1 0x20 DUP3 ADD SWAP1 POP SWAP2 SWAP1 POP JUMP JUMPDEST PUSH1 0x0 PUSH2 0x1FC3 PUSH1 0x29 DUP4 PUSH2 0x2365 JUMP JUMPDEST SWAP2 POP PUSH2 0x1FCE DUP3 PUSH2 0x282A JUMP JUMPDEST PUSH1 0x40 DUP3 ADD SWAP1 POP SWAP2 SWAP1 POP JUMP JUMPDEST PUSH1 0x0 PUSH2 0x1FE6 PUSH1 0x20 DUP4 PUSH2 0x2365 JUMP JUMPDEST SWAP2 POP PUSH2 0x1FF1 DUP3 PUSH2 0x2879 JUMP JUMPDEST PUSH1 0x20 DUP3 ADD SWAP1 POP SWAP2 SWAP1 POP JUMP JUMPDEST PUSH1 0x0 PUSH2 0x2009 PUSH1 0x18 DUP4 PUSH2 0x2365 JUMP JUMPDEST SWAP2 POP PUSH2 0x2014 DUP3 PUSH2 0x28A2 JUMP JUMPDEST PUSH1 0x20 DUP3 ADD SWAP1 POP SWAP2 SWAP1 POP JUMP JUMPDEST PUSH1 0x0 PUSH2 0x202C PUSH1 0x21 DUP4 PUSH2 0x2365 JUMP JUMPDEST SWAP2 POP PUSH2 0x2037 DUP3 PUSH2 0x28CB JUMP JUMPDEST PUSH1 0x40 DUP3 ADD SWAP1 POP SWAP2 SWAP1 POP JUMP JUMPDEST PUSH1 0x0 PUSH2 0x204F PUSH1 0x3D DUP4 PUSH2 0x2365 JUMP JUMPDEST SWAP2 POP PUSH2 0x205A DUP3 PUSH2 0x291A JUMP JUMPDEST PUSH1 0x40 DUP3 ADD SWAP1 POP SWAP2 SWAP1 POP JUMP JUMPDEST PUSH2 0x206E DUP2 PUSH2 0x24A6 JUMP JUMPDEST DUP3 MSTORE POP POP JUMP JUMPDEST PUSH1 0x0 PUSH2 0x2080 DUP3 DUP6 PUSH2 0x1EB3 JUMP JUMPDEST SWAP2 POP PUSH2 0x208C DUP3 DUP5 PUSH2 0x1EB3 JUMP JUMPDEST SWAP2 POP DUP2 SWAP1 POP SWAP4 SWAP3 POP POP POP JUMP JUMPDEST PUSH1 0x0 PUSH1 0x20 DUP3 ADD SWAP1 POP PUSH2 0x20AD PUSH1 0x0 DUP4 ADD DUP5 PUSH2 0x1E23 JUMP JUMPDEST SWAP3 SWAP2 POP POP JUMP JUMPDEST PUSH1 0x0 PUSH1 0x80 DUP3 ADD SWAP1 POP PUSH2 0x20C8 PUSH1 0x0 DUP4 ADD DUP8 PUSH2 0x1E23 JUMP JUMPDEST PUSH2 0x20D5 PUSH1 0x20 DUP4 ADD DUP7 PUSH2 0x1E23 JUMP JUMPDEST PUSH2 0x20E2 PUSH1 0x40 DUP4 ADD DUP6 PUSH2 0x2065 JUMP JUMPDEST DUP2 DUP2 SUB PUSH1 0x60 DUP4 ADD MSTORE PUSH2 0x20F4 DUP2 DUP5 PUSH2 0x1E41 JUMP JUMPDEST SWAP1 POP SWAP6 SWAP5 POP POP POP POP POP JUMP JUMPDEST PUSH1 0x0 PUSH1 0x20 DUP3 ADD SWAP1 POP PUSH2 0x2114 PUSH1 0x0 DUP4 ADD DUP5 PUSH2 0x1E32 JUMP JUMPDEST SWAP3 SWAP2 POP POP JUMP JUMPDEST PUSH1 0x0 PUSH1 0x20 DUP3 ADD SWAP1 POP DUP2 DUP2 SUB PUSH1 0x0 DUP4 ADD MSTORE PUSH2 0x2134 DUP2 DUP5 PUSH2 0x1E7A JUMP JUMPDEST SWAP1 POP SWAP3 SWAP2 POP POP JUMP JUMPDEST PUSH1 0x0 PUSH1 0x20 DUP3 ADD SWAP1 POP DUP2 DUP2 SUB PUSH1 0x0 DUP4 ADD MSTORE PUSH2 0x2155 DUP2 PUSH2 0x1EE4 JUMP JUMPDEST SWAP1 POP SWAP2 SWAP1 POP JUMP JUMPDEST PUSH1 0x0 PUSH1 0x20 DUP3 ADD SWAP1 POP DUP2 DUP2 SUB PUSH1 0x0 DUP4 ADD MSTORE PUSH2 0x2175 DUP2 PUSH2 0x1F07 JUMP JUMPDEST SWAP1 POP SWAP2 SWAP1 POP JUMP JUMPDEST PUSH1 0x0 PUSH1 0x20 DUP3 ADD SWAP1 POP DUP2 DUP2 SUB PUSH1 0x0 DUP4 ADD MSTORE PUSH2 0x2195 DUP2 PUSH2 0x1F2A JUMP JUMPDEST SWAP1 POP SWAP2 SWAP1 POP JUMP JUMPDEST PUSH1 0x0 PUSH1 0x20 DUP3 ADD SWAP1 POP DUP2 DUP2 SUB PUSH1 0x0 DUP4 ADD MSTORE PUSH2 0x21B5 DUP2 PUSH2 0x1F4D JUMP JUMPDEST SWAP1 POP SWAP2 SWAP1 POP JUMP JUMPDEST PUSH1 0x0 PUSH1 0x20 DUP3 ADD SWAP1 POP DUP2 DUP2 SUB PUSH1 0x0 DUP4 ADD MSTORE PUSH2 0x21D5 DUP2 PUSH2 0x1F70 JUMP JUMPDEST SWAP1 POP SWAP2 SWAP1 POP JUMP JUMPDEST PUSH1 0x0 PUSH1 0x20 DUP3 ADD SWAP1 POP DUP2 DUP2 SUB PUSH1 0x0 DUP4 ADD MSTORE PUSH2 0x21F5 DUP2 PUSH2 0x1F93 JUMP JUMPDEST SWAP1 POP SWAP2 SWAP1 POP JUMP JUMPDEST PUSH1 0x0 PUSH1 0x20 DUP3 ADD SWAP1 POP DUP2 DUP2 SUB PUSH1 0x0 DUP4 ADD MSTORE PUSH2 0x2215 DUP2 PUSH2 0x1FB6 JUMP JUMPDEST SWAP1 POP SWAP2 SWAP1 POP JUMP JUMPDEST PUSH1 0x0 PUSH1 0x20 DUP3 ADD SWAP1 POP DUP2 DUP2 SUB PUSH1 0x0 DUP4 ADD MSTORE PUSH2 0x2235 DUP2 PUSH2 0x1FD9 JUMP JUMPDEST SWAP1 POP SWAP2 SWAP1 POP JUMP JUMPDEST PUSH1 0x0 PUSH1 0x20 DUP3 ADD SWAP1 POP DUP2 DUP2 SUB PUSH1 0x0 DUP4 ADD MSTORE PUSH2 0x2255 DUP2 PUSH2 0x1FFC JUMP JUMPDEST SWAP1 POP SWAP2 SWAP1 POP JUMP JUMPDEST PUSH1 0x0 PUSH1 0x20 DUP3 ADD SWAP1 POP DUP2 DUP2 SUB PUSH1 0x0 DUP4 ADD MSTORE PUSH2 0x2275 DUP2 PUSH2 0x201F JUMP JUMPDEST SWAP1 POP SWAP2 SWAP1 POP JUMP JUMPDEST PUSH1 0x0 PUSH1 0x20 DUP3 ADD SWAP1 POP DUP2 DUP2 SUB PUSH1 0x0 DUP4 ADD MSTORE PUSH2 0x2295 DUP2 PUSH2 0x2042 JUMP JUMPDEST SWAP1 POP SWAP2 SWAP1 POP JUMP JUMPDEST PUSH1 0x0 PUSH1 0x20 DUP3 ADD SWAP1 POP PUSH2 0x22B1 PUSH1 0x0 DUP4 ADD DUP5 PUSH2 0x2065 JUMP JUMPDEST SWAP3 SWAP2 POP POP JUMP JUMPDEST PUSH1 0x0 PUSH2 0x22C1 PUSH2 0x22D2 JUMP JUMPDEST SWAP1 POP PUSH2 0x22CD DUP3 DUP3 PUSH2 0x2524 JUMP JUMPDEST SWAP2 SWAP1 POP JUMP JUMPDEST PUSH1 0x0 PUSH1 0x40 MLOAD SWAP1 POP SWAP1 JUMP JUMPDEST PUSH1 0x0 PUSH8 0xFFFFFFFFFFFFFFFF DUP3 GT ISZERO PUSH2 0x22F7 JUMPI PUSH2 0x22F6 PUSH2 0x265C JUMP JUMPDEST JUMPDEST PUSH2 0x2300 DUP3 PUSH2 0x268B JUMP JUMPDEST SWAP1 POP PUSH1 0x20 DUP2 ADD SWAP1 POP SWAP2 SWAP1 POP JUMP JUMPDEST PUSH1 0x0 PUSH8 0xFFFFFFFFFFFFFFFF DUP3 GT ISZERO PUSH2 0x2328 JUMPI PUSH2 0x2327 PUSH2 0x265C JUMP JUMPDEST JUMPDEST PUSH2 0x2331 DUP3 PUSH2 0x268B JUMP JUMPDEST SWAP1 POP PUSH1 0x20 DUP2 ADD SWAP1 POP SWAP2 SWAP1 POP JUMP JUMPDEST PUSH1 0x0 DUP2 MLOAD SWAP1 POP SWAP2 SWAP1 POP JUMP JUMPDEST PUSH1 0x0 DUP2 MLOAD SWAP1 POP SWAP2 SWAP1 POP JUMP JUMPDEST PUSH1 0x0 DUP3 DUP3 MSTORE PUSH1 0x20 DUP3 ADD SWAP1 POP SWAP3 SWAP2 POP POP JUMP JUMPDEST PUSH1 0x0 DUP3 DUP3 MSTORE PUSH1 0x20 DUP3 ADD SWAP1 POP SWAP3 SWAP2 POP POP JUMP JUMPDEST PUSH1 0x0 DUP2 SWAP1 POP SWAP3 SWAP2 POP POP JUMP JUMPDEST PUSH1 0x0 PUSH2 0x238C DUP3 PUSH2 0x24A6 JUMP JUMPDEST SWAP2 POP PUSH2 0x2397 DUP4 PUSH2 0x24A6 JUMP JUMPDEST SWAP3 POP DUP3 PUSH32 0xFFFFFFFFFFFFFFFFFFFFFFFFFFFFFFFFFFFFFFFFFFFFFFFFFFFFFFFFFFFFFFFF SUB DUP3 GT ISZERO PUSH2 0x23CC JUMPI PUSH2 0x23CB PUSH2 0x25CF JUMP JUMPDEST JUMPDEST DUP3 DUP3 ADD SWAP1 POP SWAP3 SWAP2 POP POP JUMP JUMPDEST PUSH1 0x0 PUSH2 0x23E2 DUP3 PUSH2 0x24A6 JUMP JUMPDEST SWAP2 POP PUSH2 0x23ED DUP4 PUSH2 0x24A6 JUMP JUMPDEST SWAP3 POP DUP3 PUSH2 0x23FD JUMPI PUSH2 0x23FC PUSH2 0x25FE JUMP JUMPDEST JUMPDEST DUP3 DUP3 DIV SWAP1 POP SWAP3 SWAP2 POP POP JUMP JUMPDEST PUSH1 0x0 PUSH2 0x2413 DUP3 PUSH2 0x24A6 JUMP JUMPDEST SWAP2 POP PUSH2 0x241E DUP4 PUSH2 0x24A6 JUMP JUMPDEST SWAP3 POP DUP3 DUP3 LT ISZERO PUSH2 0x2431 JUMPI PUSH2 0x2430 PUSH2 0x25CF JUMP JUMPDEST JUMPDEST DUP3 DUP3 SUB SWAP1 POP SWAP3 SWAP2 POP POP JUMP JUMPDEST PUSH1 0x0 PUSH2 0x2447 DUP3 PUSH2 0x2486 JUMP JUMPDEST SWAP1 POP SWAP2 SWAP1 POP JUMP JUMPDEST PUSH1 0x0 DUP2 ISZERO ISZERO SWAP1 POP SWAP2 SWAP1 POP JUMP JUMPDEST PUSH1 0x0 PUSH32 0xFFFFFFFF00000000000000000000000000000000000000000000000000000000 DUP3 AND SWAP1 POP SWAP2 SWAP1 POP JUMP JUMPDEST PUSH1 0x0 PUSH20 0xFFFFFFFFFFFFFFFFFFFFFFFFFFFFFFFFFFFFFFFF DUP3 AND SWAP1 POP SWAP2 SWAP1 POP JUMP JUMPDEST PUSH1 0x0 DUP2 SWAP1 POP SWAP2 SWAP1 POP JUMP JUMPDEST DUP3 DUP2 DUP4 CALLDATACOPY PUSH1 0x0 DUP4 DUP4 ADD MSTORE POP POP POP JUMP JUMPDEST PUSH1 0x0 JUMPDEST DUP4 DUP2 LT ISZERO PUSH2 0x24DD JUMPI DUP1 DUP3 ADD MLOAD DUP2 DUP5 ADD MSTORE PUSH1 0x20 DUP2 ADD SWAP1 POP PUSH2 0x24C2 JUMP JUMPDEST DUP4 DUP2 GT ISZERO PUSH2 0x24EC JUMPI PUSH1 0x0 DUP5 DUP5 ADD MSTORE JUMPDEST POP POP POP POP JUMP JUMPDEST PUSH1 0x0 PUSH1 0x2 DUP3 DIV SWAP1 POP PUSH1 0x1 DUP3 AND DUP1 PUSH2 0x250A JUMPI PUSH1 0x7F DUP3 AND SWAP2 POP JUMPDEST PUSH1 0x20 DUP3 LT DUP2 EQ ISZERO PUSH2 0x251E JUMPI PUSH2 0x251D PUSH2 0x262D JUMP JUMPDEST JUMPDEST POP SWAP2 SWAP1 POP JUMP JUMPDEST PUSH2 0x252D DUP3 PUSH2 0x268B JUMP JUMPDEST DUP2 ADD DUP2 DUP2 LT PUSH8 0xFFFFFFFFFFFFFFFF DUP3 GT OR ISZERO PUSH2 0x254C JUMPI PUSH2 0x254B PUSH2 0x265C JUMP JUMPDEST JUMPDEST DUP1 PUSH1 0x40 MSTORE POP POP POP JUMP JUMPDEST PUSH1 0x0 PUSH2 0x2560 DUP3 PUSH2 0x24A6 JUMP JUMPDEST SWAP2 POP PUSH32 0xFFFFFFFFFFFFFFFFFFFFFFFFFFFFFFFFFFFFFFFFFFFFFFFFFFFFFFFFFFFFFFFF DUP3 EQ ISZERO PUSH2 0x2593 JUMPI PUSH2 0x2592 PUSH2 0x25CF JUMP JUMPDEST JUMPDEST PUSH1 0x1 DUP3 ADD SWAP1 POP SWAP2 SWAP1 POP JUMP JUMPDEST PUSH1 0x0 PUSH2 0x25A9 DUP3 PUSH2 0x24A6 JUMP JUMPDEST SWAP2 POP PUSH2 0x25B4 DUP4 PUSH2 0x24A6 JUMP JUMPDEST SWAP3 POP DUP3 PUSH2 0x25C4 JUMPI PUSH2 0x25C3 PUSH2 0x25FE JUMP JUMPDEST JUMPDEST DUP3 DUP3 MOD SWAP1 POP SWAP3 SWAP2 POP POP JUMP JUMPDEST PUSH32 0x4E487B7100000000000000000000000000000000000000000000000000000000 PUSH1 0x0 MSTORE PUSH1 0x11 PUSH1 0x4 MSTORE PUSH1 0x24 PUSH1 0x0 REVERT JUMPDEST PUSH32 0x4E487B7100000000000000000000000000000000000000000000000000000000 PUSH1 0x0 MSTORE PUSH1 0x12 PUSH1 0x4 MSTORE PUSH1 0x24 PUSH1 0x0 REVERT JUMPDEST PUSH32 0x4E487B7100000000000000000000000000000000000000000000000000000000 PUSH1 0x0 MSTORE PUSH1 0x22 PUSH1 0x4 MSTORE PUSH1 0x24 PUSH1 0x0 REVERT JUMPDEST PUSH32 0x4E487B7100000000000000000000000000000000000000000000000000000000 PUSH1 0x0 MSTORE PUSH1 0x41 PUSH1 0x4 MSTORE PUSH1 0x24 PUSH1 0x0 REVERT JUMPDEST PUSH1 0x0 PUSH1 0x1F NOT PUSH1 0x1F DUP4 ADD AND SWAP1 POP SWAP2 SWAP1 POP JUMP JUMPDEST PUSH32 0x4552433732313A2063616C6C6572206973206E6F7420746F6B656E206F776E65 PUSH1 0x0 DUP3 ADD MSTORE PUSH32 0x72206F7220617070726F76656400000000000000000000000000000000000000 PUSH1 0x20 DUP3 ADD MSTORE POP JUMP JUMPDEST PUSH32 0x4552433732313A207472616E7366657220746F206E6F6E204552433732315265 PUSH1 0x0 DUP3 ADD MSTORE PUSH32 0x63656976657220696D706C656D656E7465720000000000000000000000000000 PUSH1 0x20 DUP3 ADD MSTORE POP JUMP JUMPDEST PUSH32 0x4552433732313A207472616E736665722066726F6D20696E636F727265637420 PUSH1 0x0 DUP3 ADD MSTORE PUSH32 0x6F776E6572000000000000000000000000000000000000000000000000000000 PUSH1 0x20 DUP3 ADD MSTORE POP JUMP JUMPDEST PUSH32 0x4552433732313A20746F6B656E20616C7265616479206D696E74656400000000 PUSH1 0x0 DUP3 ADD MSTORE POP JUMP JUMPDEST PUSH32 0x4552433732313A207472616E7366657220746F20746865207A65726F20616464 PUSH1 0x0 DUP3 ADD MSTORE PUSH32 0x7265737300000000000000000000000000000000000000000000000000000000 PUSH1 0x20 DUP3 ADD MSTORE POP JUMP JUMPDEST PUSH32 0x4552433732313A20617070726F766520746F2063616C6C657200000000000000 PUSH1 0x0 DUP3 ADD MSTORE POP JUMP JUMPDEST PUSH32 0x4552433732313A2061646472657373207A65726F206973206E6F742061207661 PUSH1 0x0 DUP3 ADD MSTORE PUSH32 0x6C6964206F776E65720000000000000000000000000000000000000000000000 PUSH1 0x20 DUP3 ADD MSTORE POP JUMP JUMPDEST PUSH32 0x4552433732313A206D696E7420746F20746865207A65726F2061646472657373 PUSH1 0x0 DUP3 ADD MSTORE POP JUMP JUMPDEST PUSH32 0x4552433732313A20696E76616C696420746F6B656E2049440000000000000000 PUSH1 0x0 DUP3 ADD MSTORE POP JUMP JUMPDEST PUSH32 0x4552433732313A20617070726F76616C20746F2063757272656E74206F776E65 PUSH1 0x0 DUP3 ADD MSTORE PUSH32 0x7200000000000000000000000000000000000000000000000000000000000000 PUSH1 0x20 DUP3 ADD MSTORE POP JUMP JUMPDEST PUSH32 0x4552433732313A20617070726F76652063616C6C6572206973206E6F7420746F PUSH1 0x0 DUP3 ADD MSTORE PUSH32 0x6B656E206F776E6572206F7220617070726F76656420666F7220616C6C000000 PUSH1 0x20 DUP3 ADD MSTORE POP JUMP JUMPDEST PUSH2 0x2972 DUP2 PUSH2 0x243C JUMP JUMPDEST DUP2 EQ PUSH2 0x297D JUMPI PUSH1 0x0 DUP1 REVERT JUMPDEST POP JUMP JUMPDEST PUSH2 0x2989 DUP2 PUSH2 0x244E JUMP JUMPDEST DUP2 EQ PUSH2 0x2994 JUMPI PUSH1 0x0 DUP1 REVERT JUMPDEST POP JUMP JUMPDEST PUSH2 0x29A0 DUP2 PUSH2 0x245A JUMP JUMPDEST DUP2 EQ PUSH2 0x29AB JUMPI PUSH1 0x0 DUP1 REVERT JUMPDEST POP JUMP JUMPDEST PUSH2 0x29B7 DUP2 PUSH2 0x24A6 JUMP JUMPDEST DUP2 EQ PUSH2 0x29C2 JUMPI PUSH1 0x0 DUP1 REVERT JUMPDEST POP JUMP INVALID LOG2 PUSH5 0x6970667358 0x22 SLT KECCAK256 PC 0xA7 CALLVALUE 0x4B SWAP11 0xC6 SHL 0xC8 0xD1 DUP16 CALLDATACOPY 0x4F 0xD0 CALLVALUE 0xC7 ORIGIN SSTORE DIFFICULTY 0xE 0x27 SWAP5 OR PUSH5 0x8EA8E30D5D COINBASE PUSH15 0x4B8D64736F6C634300080400330000 "
				},
				"gasEstimates": {
					"creation": {
						"codeDepositCost": "2149400",
						"executionCost": "infinite",
						"totalCost": "infinite"
					},
					"external": {
						"approve(address,uint256)": "infinite",
						"balanceOf(address)": "1602",
						"collaboratotOf(uint256)": "1726",
						"collaboratotPercentageOf(uint256)": "infinite",
						"getApproved(uint256)": "2657",
						"isApprovedForAll(address,address)": "infinite",
						"mint(address,uint256,address,uint256,uint256,string)": "infinite",
						"name()": "infinite",
						"ownerOf(uint256)": "1748",
						"safeTransferFrom(address,address,uint256)": "infinite",
						"safeTransferFrom(address,address,uint256,bytes)": "infinite",
						"setApprovalForAll(address,bool)": "infinite",
						"supportsInterface(bytes4)": "797",
						"symbol()": "infinite",
						"tokenURI(uint256)": "2102",
						"transferFrom(address,address,uint256)": "infinite"
					},
					"internal": {
						"_afterTokenTransfer(address,address,uint256)": "15",
						"_approve(address,uint256)": "infinite",
						"_baseURI()": "infinite",
						"_beforeTokenTransfer(address,address,uint256)": "15",
						"_burn(uint256)": "infinite",
						"_checkOnERC721Received(address,address,uint256,bytes memory)": "infinite",
						"_exists(uint256)": "969",
						"_isApprovedOrOwner(address,uint256)": "infinite",
						"_mint(address,uint256,address,uint256,uint256)": "infinite",
						"_requireMinted(uint256)": "infinite",
						"_safeMint(address,uint256,address,uint256,uint256)": "infinite",
						"_safeMint(address,uint256,address,uint256,uint256,bytes memory)": "infinite",
						"_safeTransfer(address,address,uint256,bytes memory)": "infinite",
						"_setApprovalForAll(address,address,bool)": "infinite",
						"_setTokenURI(uint256,string memory)": "infinite",
						"_transfer(address,address,uint256)": "infinite"
					}
				},
				"methodIdentifiers": {
					"approve(address,uint256)": "095ea7b3",
					"balanceOf(address)": "70a08231",
					"collaboratotOf(uint256)": "52e04825",
					"collaboratotPercentageOf(uint256)": "ee48cda2",
					"getApproved(uint256)": "081812fc",
					"isApprovedForAll(address,address)": "e985e9c5",
					"mint(address,uint256,address,uint256,uint256,string)": "99eb80a9",
					"name()": "06fdde03",
					"ownerOf(uint256)": "6352211e",
					"safeTransferFrom(address,address,uint256)": "42842e0e",
					"safeTransferFrom(address,address,uint256,bytes)": "b88d4fde",
					"setApprovalForAll(address,bool)": "a22cb465",
					"supportsInterface(bytes4)": "01ffc9a7",
					"symbol()": "95d89b41",
					"tokenURI(uint256)": "c87b56dd",
					"transferFrom(address,address,uint256)": "23b872dd"
				}
			},
			"storageLayout": {
				"storage": [
					{
						"astId": 816,
						"contract": "contracts/nft.sol:nft",
						"label": "_name",
						"offset": 0,
						"slot": "0",
						"type": "t_string_storage"
					},
					{
						"astId": 818,
						"contract": "contracts/nft.sol:nft",
						"label": "_symbol",
						"offset": 0,
						"slot": "1",
						"type": "t_string_storage"
					},
					{
						"astId": 822,
						"contract": "contracts/nft.sol:nft",
						"label": "_owners",
						"offset": 0,
						"slot": "2",
						"type": "t_mapping(t_uint256,t_address)"
					},
					{
						"astId": 826,
						"contract": "contracts/nft.sol:nft",
						"label": "_collaborators",
						"offset": 0,
						"slot": "3",
						"type": "t_mapping(t_uint256,t_address)"
					},
					{
						"astId": 830,
						"contract": "contracts/nft.sol:nft",
						"label": "_collaboratorsPercentage",
						"offset": 0,
						"slot": "4",
						"type": "t_mapping(t_uint256,t_uint256)"
					},
					{
						"astId": 834,
						"contract": "contracts/nft.sol:nft",
						"label": "_balances",
						"offset": 0,
						"slot": "5",
						"type": "t_mapping(t_address,t_uint256)"
					},
					{
						"astId": 838,
						"contract": "contracts/nft.sol:nft",
						"label": "_tokenApprovals",
						"offset": 0,
						"slot": "6",
						"type": "t_mapping(t_uint256,t_address)"
					},
					{
						"astId": 844,
						"contract": "contracts/nft.sol:nft",
						"label": "_operatorApprovals",
						"offset": 0,
						"slot": "7",
						"type": "t_mapping(t_address,t_mapping(t_address,t_bool))"
					},
					{
						"astId": 848,
						"contract": "contracts/nft.sol:nft",
						"label": "_tokenURIs",
						"offset": 0,
						"slot": "8",
						"type": "t_mapping(t_uint256,t_string_storage)"
					}
				],
				"types": {
					"t_address": {
						"encoding": "inplace",
						"label": "address",
						"numberOfBytes": "20"
					},
					"t_bool": {
						"encoding": "inplace",
						"label": "bool",
						"numberOfBytes": "1"
					},
					"t_mapping(t_address,t_bool)": {
						"encoding": "mapping",
						"key": "t_address",
						"label": "mapping(address => bool)",
						"numberOfBytes": "32",
						"value": "t_bool"
					},
					"t_mapping(t_address,t_mapping(t_address,t_bool))": {
						"encoding": "mapping",
						"key": "t_address",
						"label": "mapping(address => mapping(address => bool))",
						"numberOfBytes": "32",
						"value": "t_mapping(t_address,t_bool)"
					},
					"t_mapping(t_address,t_uint256)": {
						"encoding": "mapping",
						"key": "t_address",
						"label": "mapping(address => uint256)",
						"numberOfBytes": "32",
						"value": "t_uint256"
					},
					"t_mapping(t_uint256,t_address)": {
						"encoding": "mapping",
						"key": "t_uint256",
						"label": "mapping(uint256 => address)",
						"numberOfBytes": "32",
						"value": "t_address"
					},
					"t_mapping(t_uint256,t_string_storage)": {
						"encoding": "mapping",
						"key": "t_uint256",
						"label": "mapping(uint256 => string)",
						"numberOfBytes": "32",
						"value": "t_string_storage"
					},
					"t_mapping(t_uint256,t_uint256)": {
						"encoding": "mapping",
						"key": "t_uint256",
						"label": "mapping(uint256 => uint256)",
						"numberOfBytes": "32",
						"value": "t_uint256"
					},
					"t_string_storage": {
						"encoding": "bytes",
						"label": "string",
						"numberOfBytes": "32"
					},
					"t_uint256": {
						"encoding": "inplace",
						"label": "uint256",
						"numberOfBytes": "32"
					}
				}
			},
			"userdoc": {
				"kind": "user",
				"methods": {},
				"version": 1
			}
		}
	}
}