{
	"contracts/nft.sol": {
		"nft": {
			"abi": [
				{
					"inputs": [
						{
							"internalType": "string",
							"name": "name_",
							"type": "string"
						},
						{
							"internalType": "string",
							"name": "symbol_",
							"type": "string"
						}
					],
					"stateMutability": "nonpayable",
					"type": "constructor"
				},
				{
					"anonymous": false,
					"inputs": [
						{
							"indexed": true,
							"internalType": "address",
							"name": "owner",
							"type": "address"
						},
						{
							"indexed": true,
							"internalType": "address",
							"name": "approved",
							"type": "address"
						},
						{
							"indexed": true,
							"internalType": "uint256",
							"name": "tokenId",
							"type": "uint256"
						}
					],
					"name": "Approval",
					"type": "event"
				},
				{
					"anonymous": false,
					"inputs": [
						{
							"indexed": true,
							"internalType": "address",
							"name": "owner",
							"type": "address"
						},
						{
							"indexed": true,
							"internalType": "address",
							"name": "operator",
							"type": "address"
						},
						{
							"indexed": false,
							"internalType": "bool",
							"name": "approved",
							"type": "bool"
						}
					],
					"name": "ApprovalForAll",
					"type": "event"
				},
				{
					"anonymous": false,
					"inputs": [
						{
							"indexed": true,
							"internalType": "address",
							"name": "from",
							"type": "address"
						},
						{
							"indexed": true,
							"internalType": "address",
							"name": "to",
							"type": "address"
						},
						{
							"indexed": true,
							"internalType": "uint256",
							"name": "tokenId",
							"type": "uint256"
						}
					],
					"name": "Transfer",
					"type": "event"
				},
				{
					"inputs": [
						{
							"internalType": "uint256",
							"name": "tokenId",
							"type": "uint256"
						}
					],
					"name": "_tokenURI",
					"outputs": [
						{
							"internalType": "string",
							"name": "",
							"type": "string"
						}
					],
					"stateMutability": "view",
					"type": "function"
				},
				{
					"inputs": [
						{
							"internalType": "address",
							"name": "to",
							"type": "address"
						},
						{
							"internalType": "uint256",
							"name": "tokenId",
							"type": "uint256"
						}
					],
					"name": "approve",
					"outputs": [],
					"stateMutability": "nonpayable",
					"type": "function"
				},
				{
					"inputs": [
						{
							"internalType": "address",
							"name": "owner",
							"type": "address"
						}
					],
					"name": "balanceOf",
					"outputs": [
						{
							"internalType": "uint256",
							"name": "",
							"type": "uint256"
						}
					],
					"stateMutability": "view",
					"type": "function"
				},
				{
					"inputs": [
						{
							"internalType": "uint256",
							"name": "tokenId",
							"type": "uint256"
						}
					],
					"name": "collaboratotOf",
					"outputs": [
						{
							"internalType": "address[]",
							"name": "",
							"type": "address[]"
						}
					],
					"stateMutability": "view",
					"type": "function"
				},
				{
					"inputs": [
						{
							"internalType": "uint256",
							"name": "tokenId",
							"type": "uint256"
						}
					],
					"name": "collaboratotPercentageOf",
					"outputs": [
						{
							"internalType": "uint256[]",
							"name": "",
							"type": "uint256[]"
						}
					],
					"stateMutability": "view",
					"type": "function"
				},
				{
					"inputs": [
						{
							"internalType": "uint256",
							"name": "tokenId",
							"type": "uint256"
						}
					],
					"name": "getApproved",
					"outputs": [
						{
							"internalType": "address",
							"name": "",
							"type": "address"
						}
					],
					"stateMutability": "view",
					"type": "function"
				},
				{
					"inputs": [
						{
							"internalType": "address",
							"name": "owner",
							"type": "address"
						},
						{
							"internalType": "address",
							"name": "operator",
							"type": "address"
						}
					],
					"name": "isApprovedForAll",
					"outputs": [
						{
							"internalType": "bool",
							"name": "",
							"type": "bool"
						}
					],
					"stateMutability": "view",
					"type": "function"
				},
				{
					"inputs": [
						{
							"internalType": "address",
							"name": "to",
							"type": "address"
						},
						{
							"internalType": "address[]",
							"name": "collaborator",
							"type": "address[]"
						},
						{
							"internalType": "uint256[]",
							"name": "collaboratorPercent",
							"type": "uint256[]"
						},
						{
							"internalType": "string",
							"name": "uri",
							"type": "string"
						}
					],
					"name": "mint",
					"outputs": [],
					"stateMutability": "nonpayable",
					"type": "function"
				},
				{
					"inputs": [],
					"name": "name",
					"outputs": [
						{
							"internalType": "string",
							"name": "",
							"type": "string"
						}
					],
					"stateMutability": "view",
					"type": "function"
				},
				{
					"inputs": [
						{
							"internalType": "uint256",
							"name": "tokenId",
							"type": "uint256"
						}
					],
					"name": "ownerOf",
					"outputs": [
						{
							"internalType": "address",
							"name": "",
							"type": "address"
						}
					],
					"stateMutability": "view",
					"type": "function"
				},
				{
					"inputs": [
						{
							"internalType": "address",
							"name": "from",
							"type": "address"
						},
						{
							"internalType": "address",
							"name": "to",
							"type": "address"
						},
						{
							"internalType": "uint256",
							"name": "tokenId",
							"type": "uint256"
						}
					],
					"name": "safeTransferFrom",
					"outputs": [],
					"stateMutability": "nonpayable",
					"type": "function"
				},
				{
					"inputs": [
						{
							"internalType": "address",
							"name": "from",
							"type": "address"
						},
						{
							"internalType": "address",
							"name": "to",
							"type": "address"
						},
						{
							"internalType": "uint256",
							"name": "tokenId",
							"type": "uint256"
						},
						{
							"internalType": "bytes",
							"name": "data",
							"type": "bytes"
						}
					],
					"name": "safeTransferFrom",
					"outputs": [],
					"stateMutability": "nonpayable",
					"type": "function"
				},
				{
					"inputs": [
						{
							"internalType": "address",
							"name": "operator",
							"type": "address"
						},
						{
							"internalType": "bool",
							"name": "approved",
							"type": "bool"
						}
					],
					"name": "setApprovalForAll",
					"outputs": [],
					"stateMutability": "nonpayable",
					"type": "function"
				},
				{
					"inputs": [
						{
							"internalType": "bytes4",
							"name": "interfaceId",
							"type": "bytes4"
						}
					],
					"name": "supportsInterface",
					"outputs": [
						{
							"internalType": "bool",
							"name": "",
							"type": "bool"
						}
					],
					"stateMutability": "view",
					"type": "function"
				},
				{
					"inputs": [],
					"name": "symbol",
					"outputs": [
						{
							"internalType": "string",
							"name": "",
							"type": "string"
						}
					],
					"stateMutability": "view",
					"type": "function"
				},
				{
					"inputs": [
						{
							"internalType": "uint256",
							"name": "tokenId",
							"type": "uint256"
						}
					],
					"name": "tokenURI",
					"outputs": [
						{
							"internalType": "string",
							"name": "",
							"type": "string"
						}
					],
					"stateMutability": "view",
					"type": "function"
				},
				{
					"inputs": [
						{
							"internalType": "address",
							"name": "from",
							"type": "address"
						},
						{
							"internalType": "address",
							"name": "to",
							"type": "address"
						},
						{
							"internalType": "uint256",
							"name": "tokenId",
							"type": "uint256"
						}
					],
					"name": "transferFrom",
					"outputs": [],
					"stateMutability": "nonpayable",
					"type": "function"
				}
			],
			"devdoc": {
				"kind": "dev",
				"methods": {
					"approve(address,uint256)": {
						"details": "Gives permission to `to` to transfer `tokenId` token to another account. The approval is cleared when the token is transferred. Only a single account can be approved at a time, so approving the zero address clears previous approvals. Requirements: - The caller must own the token or be an approved operator. - `tokenId` must exist. Emits an {Approval} event."
					},
					"balanceOf(address)": {
						"details": "Returns the number of tokens in ``owner``'s account."
					},
					"getApproved(uint256)": {
						"details": "Returns the account approved for `tokenId` token. Requirements: - `tokenId` must exist."
					},
					"isApprovedForAll(address,address)": {
						"details": "Returns if the `operator` is allowed to manage all of the assets of `owner`. See {setApprovalForAll}"
					},
					"name()": {
						"details": "Returns the token collection name."
					},
					"ownerOf(uint256)": {
						"details": "Returns the owner of the `tokenId` token. Requirements: - `tokenId` must exist."
					},
					"safeTransferFrom(address,address,uint256)": {
						"details": "Safely transfers `tokenId` token from `from` to `to`, checking first that contract recipients are aware of the ERC721 protocol to prevent tokens from being forever locked. Requirements: - `from` cannot be the zero address. - `to` cannot be the zero address. - `tokenId` token must exist and be owned by `from`. - If the caller is not `from`, it must be have been allowed to move this token by either {approve} or {setApprovalForAll}. - If `to` refers to a smart contract, it must implement {IERC721Receiver-onERC721Received}, which is called upon a safe transfer. Emits a {Transfer} event."
					},
					"safeTransferFrom(address,address,uint256,bytes)": {
						"details": "Safely transfers `tokenId` token from `from` to `to`. Requirements: - `from` cannot be the zero address. - `to` cannot be the zero address. - `tokenId` token must exist and be owned by `from`. - If the caller is not `from`, it must be approved to move this token by either {approve} or {setApprovalForAll}. - If `to` refers to a smart contract, it must implement {IERC721Receiver-onERC721Received}, which is called upon a safe transfer. Emits a {Transfer} event."
					},
					"symbol()": {
						"details": "Returns the token collection symbol."
					},
					"tokenURI(uint256)": {
						"details": "Returns the Uniform Resource Identifier (URI) for `tokenId` token."
					},
					"transferFrom(address,address,uint256)": {
						"details": "Transfers `tokenId` token from `from` to `to`. WARNING: Usage of this method is discouraged, use {safeTransferFrom} whenever possible. Requirements: - `from` cannot be the zero address. - `to` cannot be the zero address. - `tokenId` token must be owned by `from`. - If the caller is not `from`, it must be approved to move this token by either {approve} or {setApprovalForAll}. Emits a {Transfer} event."
					}
				},
				"version": 1
			},
			"evm": {
				"assembly": "    /* \"contracts/nft.sol\":677:11440  contract nft is Context, ERC165, IERC721, IERC721Metadata {\r... */\n  mstore(0x40, 0x80)\n    /* \"contracts/nft.sol\":1449:1565  constructor(string memory name_, string memory symbol_) {\r... */\n  callvalue\n  dup1\n  iszero\n  tag_1\n  jumpi\n  0x00\n  dup1\n  revert\ntag_1:\n  pop\n  mload(0x40)\n  sub(codesize, bytecodeSize)\n  dup1\n  bytecodeSize\n  dup4\n  codecopy\n  dup2\n  dup2\n  add\n  0x40\n  mstore\n  dup2\n  add\n  swap1\n  tag_2\n  swap2\n  swap1\n  tag_3\n  jump\t// in\ntag_2:\n    /* \"contracts/nft.sol\":1524:1529  name_ */\n  dup2\n    /* \"contracts/nft.sol\":1516:1521  _name */\n  0x01\n    /* \"contracts/nft.sol\":1516:1529  _name = name_ */\n  swap1\n  dup1\n  mload\n  swap1\n  0x20\n  add\n  swap1\n  tag_6\n  swap3\n  swap2\n  swap1\n  tag_7\n  jump\t// in\ntag_6:\n  pop\n    /* \"contracts/nft.sol\":1550:1557  symbol_ */\n  dup1\n    /* \"contracts/nft.sol\":1540:1547  _symbol */\n  0x02\n    /* \"contracts/nft.sol\":1540:1557  _symbol = symbol_ */\n  swap1\n  dup1\n  mload\n  swap1\n  0x20\n  add\n  swap1\n  tag_8\n  swap3\n  swap2\n  swap1\n  tag_7\n  jump\t// in\ntag_8:\n  pop\n    /* \"contracts/nft.sol\":1449:1565  constructor(string memory name_, string memory symbol_) {\r... */\n  pop\n  pop\n    /* \"contracts/nft.sol\":677:11440  contract nft is Context, ERC165, IERC721, IERC721Metadata {\r... */\n  jump(tag_9)\ntag_7:\n  dup3\n  dup1\n  sload\n  tag_10\n  swap1\n  tag_11\n  jump\t// in\ntag_10:\n  swap1\n  0x00\n  mstore\n  keccak256(0x00, 0x20)\n  swap1\n  0x1f\n  add\n  0x20\n  swap1\n  div\n  dup2\n  add\n  swap3\n  dup3\n  tag_13\n  jumpi\n  0x00\n  dup6\n  sstore\n  jump(tag_12)\ntag_13:\n  dup3\n  0x1f\n  lt\n  tag_14\n  jumpi\n  dup1\n  mload\n  not(0xff)\n  and\n  dup4\n  dup1\n  add\n  or\n  dup6\n  sstore\n  jump(tag_12)\ntag_14:\n  dup3\n  dup1\n  add\n  0x01\n  add\n  dup6\n  sstore\n  dup3\n  iszero\n  tag_12\n  jumpi\n  swap2\n  dup3\n  add\ntag_15:\n  dup3\n  dup2\n  gt\n  iszero\n  tag_16\n  jumpi\n  dup3\n  mload\n  dup3\n  sstore\n  swap2\n  0x20\n  add\n  swap2\n  swap1\n  0x01\n  add\n  swap1\n  jump(tag_15)\ntag_16:\ntag_12:\n  pop\n  swap1\n  pop\n  tag_17\n  swap2\n  swap1\n  tag_18\n  jump\t// in\ntag_17:\n  pop\n  swap1\n  jump\t// out\ntag_18:\ntag_19:\n  dup1\n  dup3\n  gt\n  iszero\n  tag_20\n  jumpi\n  0x00\n  dup2\n  0x00\n  swap1\n  sstore\n  pop\n  0x01\n  add\n  jump(tag_19)\ntag_20:\n  pop\n  swap1\n  jump\t// out\n    /* \"#utility.yul\":7:361   */\ntag_22:\n    /* \"#utility.yul\":96:101   */\n  0x00\n    /* \"#utility.yul\":121:187   */\n  tag_24\n    /* \"#utility.yul\":137:186   */\n  tag_25\n    /* \"#utility.yul\":179:185   */\n  dup5\n    /* \"#utility.yul\":137:186   */\n  tag_26\n  jump\t// in\ntag_25:\n    /* \"#utility.yul\":121:187   */\n  tag_27\n  jump\t// in\ntag_24:\n    /* \"#utility.yul\":112:187   */\n  swap1\n  pop\n    /* \"#utility.yul\":210:216   */\n  dup3\n    /* \"#utility.yul\":203:208   */\n  dup2\n    /* \"#utility.yul\":196:217   */\n  mstore\n    /* \"#utility.yul\":248:252   */\n  0x20\n    /* \"#utility.yul\":241:246   */\n  dup2\n    /* \"#utility.yul\":237:253   */\n  add\n    /* \"#utility.yul\":286:289   */\n  dup5\n    /* \"#utility.yul\":277:283   */\n  dup5\n    /* \"#utility.yul\":272:275   */\n  dup5\n    /* \"#utility.yul\":268:284   */\n  add\n    /* \"#utility.yul\":265:290   */\n  gt\n    /* \"#utility.yul\":262:264   */\n  iszero\n  tag_28\n  jumpi\n    /* \"#utility.yul\":303:304   */\n  0x00\n    /* \"#utility.yul\":300:301   */\n  dup1\n    /* \"#utility.yul\":293:305   */\n  revert\n    /* \"#utility.yul\":262:264   */\ntag_28:\n    /* \"#utility.yul\":316:355   */\n  tag_29\n    /* \"#utility.yul\":348:354   */\n  dup5\n    /* \"#utility.yul\":343:346   */\n  dup3\n    /* \"#utility.yul\":338:341   */\n  dup6\n    /* \"#utility.yul\":316:355   */\n  tag_30\n  jump\t// in\ntag_29:\n    /* \"#utility.yul\":102:361   */\n  pop\n  swap4\n  swap3\n  pop\n  pop\n  pop\n  jump\t// out\n    /* \"#utility.yul\":381:669   */\ntag_31:\n    /* \"#utility.yul\":448:453   */\n  0x00\n    /* \"#utility.yul\":497:500   */\n  dup3\n    /* \"#utility.yul\":490:494   */\n  0x1f\n    /* \"#utility.yul\":482:488   */\n  dup4\n    /* \"#utility.yul\":478:495   */\n  add\n    /* \"#utility.yul\":474:501   */\n  slt\n    /* \"#utility.yul\":464:466   */\n  tag_33\n  jumpi\n    /* \"#utility.yul\":515:516   */\n  0x00\n    /* \"#utility.yul\":512:513   */\n  dup1\n    /* \"#utility.yul\":505:517   */\n  revert\n    /* \"#utility.yul\":464:466   */\ntag_33:\n    /* \"#utility.yul\":548:554   */\n  dup2\n    /* \"#utility.yul\":542:555   */\n  mload\n    /* \"#utility.yul\":573:663   */\n  tag_34\n    /* \"#utility.yul\":659:662   */\n  dup5\n    /* \"#utility.yul\":651:657   */\n  dup3\n    /* \"#utility.yul\":644:648   */\n  0x20\n    /* \"#utility.yul\":636:642   */\n  dup7\n    /* \"#utility.yul\":632:649   */\n  add\n    /* \"#utility.yul\":573:663   */\n  tag_22\n  jump\t// in\ntag_34:\n    /* \"#utility.yul\":564:663   */\n  swap2\n  pop\n    /* \"#utility.yul\":454:669   */\n  pop\n  swap3\n  swap2\n  pop\n  pop\n  jump\t// out\n    /* \"#utility.yul\":675:1327   */\ntag_3:\n    /* \"#utility.yul\":774:780   */\n  0x00\n    /* \"#utility.yul\":782:788   */\n  dup1\n    /* \"#utility.yul\":831:833   */\n  0x40\n    /* \"#utility.yul\":819:828   */\n  dup4\n    /* \"#utility.yul\":810:817   */\n  dup6\n    /* \"#utility.yul\":806:829   */\n  sub\n    /* \"#utility.yul\":802:834   */\n  slt\n    /* \"#utility.yul\":799:801   */\n  iszero\n  tag_36\n  jumpi\n    /* \"#utility.yul\":847:848   */\n  0x00\n    /* \"#utility.yul\":844:845   */\n  dup1\n    /* \"#utility.yul\":837:849   */\n  revert\n    /* \"#utility.yul\":799:801   */\ntag_36:\n    /* \"#utility.yul\":911:912   */\n  0x00\n    /* \"#utility.yul\":900:909   */\n  dup4\n    /* \"#utility.yul\":896:913   */\n  add\n    /* \"#utility.yul\":890:914   */\n  mload\n    /* \"#utility.yul\":941:959   */\n  0xffffffffffffffff\n    /* \"#utility.yul\":933:939   */\n  dup2\n    /* \"#utility.yul\":930:960   */\n  gt\n    /* \"#utility.yul\":927:929   */\n  iszero\n  tag_37\n  jumpi\n    /* \"#utility.yul\":973:974   */\n  0x00\n    /* \"#utility.yul\":970:971   */\n  dup1\n    /* \"#utility.yul\":963:975   */\n  revert\n    /* \"#utility.yul\":927:929   */\ntag_37:\n    /* \"#utility.yul\":1001:1075   */\n  tag_38\n    /* \"#utility.yul\":1067:1074   */\n  dup6\n    /* \"#utility.yul\":1058:1064   */\n  dup3\n    /* \"#utility.yul\":1047:1056   */\n  dup7\n    /* \"#utility.yul\":1043:1065   */\n  add\n    /* \"#utility.yul\":1001:1075   */\n  tag_31\n  jump\t// in\ntag_38:\n    /* \"#utility.yul\":991:1075   */\n  swap3\n  pop\n    /* \"#utility.yul\":861:1085   */\n  pop\n    /* \"#utility.yul\":1145:1147   */\n  0x20\n    /* \"#utility.yul\":1134:1143   */\n  dup4\n    /* \"#utility.yul\":1130:1148   */\n  add\n    /* \"#utility.yul\":1124:1149   */\n  mload\n    /* \"#utility.yul\":1176:1194   */\n  0xffffffffffffffff\n    /* \"#utility.yul\":1168:1174   */\n  dup2\n    /* \"#utility.yul\":1165:1195   */\n  gt\n    /* \"#utility.yul\":1162:1164   */\n  iszero\n  tag_39\n  jumpi\n    /* \"#utility.yul\":1208:1209   */\n  0x00\n    /* \"#utility.yul\":1205:1206   */\n  dup1\n    /* \"#utility.yul\":1198:1210   */\n  revert\n    /* \"#utility.yul\":1162:1164   */\ntag_39:\n    /* \"#utility.yul\":1236:1310   */\n  tag_40\n    /* \"#utility.yul\":1302:1309   */\n  dup6\n    /* \"#utility.yul\":1293:1299   */\n  dup3\n    /* \"#utility.yul\":1282:1291   */\n  dup7\n    /* \"#utility.yul\":1278:1300   */\n  add\n    /* \"#utility.yul\":1236:1310   */\n  tag_31\n  jump\t// in\ntag_40:\n    /* \"#utility.yul\":1226:1310   */\n  swap2\n  pop\n    /* \"#utility.yul\":1095:1320   */\n  pop\n    /* \"#utility.yul\":789:1327   */\n  swap3\n  pop\n  swap3\n  swap1\n  pop\n  jump\t// out\n    /* \"#utility.yul\":1333:1462   */\ntag_27:\n    /* \"#utility.yul\":1367:1373   */\n  0x00\n    /* \"#utility.yul\":1394:1414   */\n  tag_42\n  tag_43\n  jump\t// in\ntag_42:\n    /* \"#utility.yul\":1384:1414   */\n  swap1\n  pop\n    /* \"#utility.yul\":1423:1456   */\n  tag_44\n    /* \"#utility.yul\":1451:1455   */\n  dup3\n    /* \"#utility.yul\":1443:1449   */\n  dup3\n    /* \"#utility.yul\":1423:1456   */\n  tag_45\n  jump\t// in\ntag_44:\n    /* \"#utility.yul\":1374:1462   */\n  swap2\n  swap1\n  pop\n  jump\t// out\n    /* \"#utility.yul\":1468:1543   */\ntag_43:\n    /* \"#utility.yul\":1501:1507   */\n  0x00\n    /* \"#utility.yul\":1534:1536   */\n  0x40\n    /* \"#utility.yul\":1528:1537   */\n  mload\n    /* \"#utility.yul\":1518:1537   */\n  swap1\n  pop\n    /* \"#utility.yul\":1508:1543   */\n  swap1\n  jump\t// out\n    /* \"#utility.yul\":1549:1857   */\ntag_26:\n    /* \"#utility.yul\":1611:1615   */\n  0x00\n    /* \"#utility.yul\":1701:1719   */\n  0xffffffffffffffff\n    /* \"#utility.yul\":1693:1699   */\n  dup3\n    /* \"#utility.yul\":1690:1720   */\n  gt\n    /* \"#utility.yul\":1687:1689   */\n  iszero\n  tag_48\n  jumpi\n    /* \"#utility.yul\":1723:1741   */\n  tag_49\n  tag_50\n  jump\t// in\ntag_49:\n    /* \"#utility.yul\":1687:1689   */\ntag_48:\n    /* \"#utility.yul\":1761:1790   */\n  tag_51\n    /* \"#utility.yul\":1783:1789   */\n  dup3\n    /* \"#utility.yul\":1761:1790   */\n  tag_52\n  jump\t// in\ntag_51:\n    /* \"#utility.yul\":1753:1790   */\n  swap1\n  pop\n    /* \"#utility.yul\":1845:1849   */\n  0x20\n    /* \"#utility.yul\":1839:1843   */\n  dup2\n    /* \"#utility.yul\":1835:1850   */\n  add\n    /* \"#utility.yul\":1827:1850   */\n  swap1\n  pop\n    /* \"#utility.yul\":1616:1857   */\n  swap2\n  swap1\n  pop\n  jump\t// out\n    /* \"#utility.yul\":1863:2170   */\ntag_30:\n    /* \"#utility.yul\":1931:1932   */\n  0x00\n    /* \"#utility.yul\":1941:2054   */\ntag_54:\n    /* \"#utility.yul\":1955:1961   */\n  dup4\n    /* \"#utility.yul\":1952:1953   */\n  dup2\n    /* \"#utility.yul\":1949:1962   */\n  lt\n    /* \"#utility.yul\":1941:2054   */\n  iszero\n  tag_56\n  jumpi\n    /* \"#utility.yul\":2040:2041   */\n  dup1\n    /* \"#utility.yul\":2035:2038   */\n  dup3\n    /* \"#utility.yul\":2031:2042   */\n  add\n    /* \"#utility.yul\":2025:2043   */\n  mload\n    /* \"#utility.yul\":2021:2022   */\n  dup2\n    /* \"#utility.yul\":2016:2019   */\n  dup5\n    /* \"#utility.yul\":2012:2023   */\n  add\n    /* \"#utility.yul\":2005:2044   */\n  mstore\n    /* \"#utility.yul\":1977:1979   */\n  0x20\n    /* \"#utility.yul\":1974:1975   */\n  dup2\n    /* \"#utility.yul\":1970:1980   */\n  add\n    /* \"#utility.yul\":1965:1980   */\n  swap1\n  pop\n    /* \"#utility.yul\":1941:2054   */\n  jump(tag_54)\ntag_56:\n    /* \"#utility.yul\":2072:2078   */\n  dup4\n    /* \"#utility.yul\":2069:2070   */\n  dup2\n    /* \"#utility.yul\":2066:2079   */\n  gt\n    /* \"#utility.yul\":2063:2065   */\n  iszero\n  tag_57\n  jumpi\n    /* \"#utility.yul\":2152:2153   */\n  0x00\n    /* \"#utility.yul\":2143:2149   */\n  dup5\n    /* \"#utility.yul\":2138:2141   */\n  dup5\n    /* \"#utility.yul\":2134:2150   */\n  add\n    /* \"#utility.yul\":2127:2154   */\n  mstore\n    /* \"#utility.yul\":2063:2065   */\ntag_57:\n    /* \"#utility.yul\":1912:2170   */\n  pop\n  pop\n  pop\n  pop\n  jump\t// out\n    /* \"#utility.yul\":2176:2496   */\ntag_11:\n    /* \"#utility.yul\":2220:2226   */\n  0x00\n    /* \"#utility.yul\":2257:2258   */\n  0x02\n    /* \"#utility.yul\":2251:2255   */\n  dup3\n    /* \"#utility.yul\":2247:2259   */\n  div\n    /* \"#utility.yul\":2237:2259   */\n  swap1\n  pop\n    /* \"#utility.yul\":2304:2305   */\n  0x01\n    /* \"#utility.yul\":2298:2302   */\n  dup3\n    /* \"#utility.yul\":2294:2306   */\n  and\n    /* \"#utility.yul\":2325:2343   */\n  dup1\n    /* \"#utility.yul\":2315:2317   */\n  tag_59\n  jumpi\n    /* \"#utility.yul\":2381:2385   */\n  0x7f\n    /* \"#utility.yul\":2373:2379   */\n  dup3\n    /* \"#utility.yul\":2369:2386   */\n  and\n    /* \"#utility.yul\":2359:2386   */\n  swap2\n  pop\n    /* \"#utility.yul\":2315:2317   */\ntag_59:\n    /* \"#utility.yul\":2443:2445   */\n  0x20\n    /* \"#utility.yul\":2435:2441   */\n  dup3\n    /* \"#utility.yul\":2432:2446   */\n  lt\n    /* \"#utility.yul\":2412:2430   */\n  dup2\n    /* \"#utility.yul\":2409:2447   */\n  eq\n    /* \"#utility.yul\":2406:2408   */\n  iszero\n  tag_60\n  jumpi\n    /* \"#utility.yul\":2462:2480   */\n  tag_61\n  tag_62\n  jump\t// in\ntag_61:\n    /* \"#utility.yul\":2406:2408   */\ntag_60:\n    /* \"#utility.yul\":2227:2496   */\n  pop\n  swap2\n  swap1\n  pop\n  jump\t// out\n    /* \"#utility.yul\":2502:2783   */\ntag_45:\n    /* \"#utility.yul\":2585:2612   */\n  tag_64\n    /* \"#utility.yul\":2607:2611   */\n  dup3\n    /* \"#utility.yul\":2585:2612   */\n  tag_52\n  jump\t// in\ntag_64:\n    /* \"#utility.yul\":2577:2583   */\n  dup2\n    /* \"#utility.yul\":2573:2613   */\n  add\n    /* \"#utility.yul\":2715:2721   */\n  dup2\n    /* \"#utility.yul\":2703:2713   */\n  dup2\n    /* \"#utility.yul\":2700:2722   */\n  lt\n    /* \"#utility.yul\":2679:2697   */\n  0xffffffffffffffff\n    /* \"#utility.yul\":2667:2677   */\n  dup3\n    /* \"#utility.yul\":2664:2698   */\n  gt\n    /* \"#utility.yul\":2661:2723   */\n  or\n    /* \"#utility.yul\":2658:2660   */\n  iszero\n  tag_65\n  jumpi\n    /* \"#utility.yul\":2726:2744   */\n  tag_66\n  tag_50\n  jump\t// in\ntag_66:\n    /* \"#utility.yul\":2658:2660   */\ntag_65:\n    /* \"#utility.yul\":2766:2776   */\n  dup1\n    /* \"#utility.yul\":2762:2764   */\n  0x40\n    /* \"#utility.yul\":2755:2777   */\n  mstore\n    /* \"#utility.yul\":2545:2783   */\n  pop\n  pop\n  pop\n  jump\t// out\n    /* \"#utility.yul\":2789:2969   */\ntag_62:\n    /* \"#utility.yul\":2837:2914   */\n  0x4e487b7100000000000000000000000000000000000000000000000000000000\n    /* \"#utility.yul\":2834:2835   */\n  0x00\n    /* \"#utility.yul\":2827:2915   */\n  mstore\n    /* \"#utility.yul\":2934:2938   */\n  0x22\n    /* \"#utility.yul\":2931:2932   */\n  0x04\n    /* \"#utility.yul\":2924:2939   */\n  mstore\n    /* \"#utility.yul\":2958:2962   */\n  0x24\n    /* \"#utility.yul\":2955:2956   */\n  0x00\n    /* \"#utility.yul\":2948:2963   */\n  revert\n    /* \"#utility.yul\":2975:3155   */\ntag_50:\n    /* \"#utility.yul\":3023:3100   */\n  0x4e487b7100000000000000000000000000000000000000000000000000000000\n    /* \"#utility.yul\":3020:3021   */\n  0x00\n    /* \"#utility.yul\":3013:3101   */\n  mstore\n    /* \"#utility.yul\":3120:3124   */\n  0x41\n    /* \"#utility.yul\":3117:3118   */\n  0x04\n    /* \"#utility.yul\":3110:3125   */\n  mstore\n    /* \"#utility.yul\":3144:3148   */\n  0x24\n    /* \"#utility.yul\":3141:3142   */\n  0x00\n    /* \"#utility.yul\":3134:3149   */\n  revert\n    /* \"#utility.yul\":3161:3263   */\ntag_52:\n    /* \"#utility.yul\":3202:3208   */\n  0x00\n    /* \"#utility.yul\":3253:3255   */\n  0x1f\n    /* \"#utility.yul\":3249:3256   */\n  not\n    /* \"#utility.yul\":3244:3246   */\n  0x1f\n    /* \"#utility.yul\":3237:3242   */\n  dup4\n    /* \"#utility.yul\":3233:3247   */\n  add\n    /* \"#utility.yul\":3229:3257   */\n  and\n    /* \"#utility.yul\":3219:3257   */\n  swap1\n  pop\n    /* \"#utility.yul\":3209:3263   */\n  swap2\n  swap1\n  pop\n  jump\t// out\n    /* \"contracts/nft.sol\":677:11440  contract nft is Context, ERC165, IERC721, IERC721Metadata {\r... */\ntag_9:\n  dataSize(sub_0)\n  dup1\n  dataOffset(sub_0)\n  0x00\n  codecopy\n  0x00\n  return\nstop\n\nsub_0: assembly {\n        /* \"contracts/nft.sol\":677:11440  contract nft is Context, ERC165, IERC721, IERC721Metadata {\r... */\n      mstore(0x40, 0x80)\n      callvalue\n      dup1\n      iszero\n      tag_1\n      jumpi\n      0x00\n      dup1\n      revert\n    tag_1:\n      pop\n      jumpi(tag_2, lt(calldatasize, 0x04))\n      shr(0xe0, calldataload(0x00))\n      dup1\n      0x6352211e\n      gt\n      tag_20\n      jumpi\n      dup1\n      0xa22cb465\n      gt\n      tag_21\n      jumpi\n      dup1\n      0xa22cb465\n      eq\n      tag_15\n      jumpi\n      dup1\n      0xb88d4fde\n      eq\n      tag_16\n      jumpi\n      dup1\n      0xc87b56dd\n      eq\n      tag_17\n      jumpi\n      dup1\n      0xe985e9c5\n      eq\n      tag_18\n      jumpi\n      dup1\n      0xee48cda2\n      eq\n      tag_19\n      jumpi\n      jump(tag_2)\n    tag_21:\n      dup1\n      0x6352211e\n      eq\n      tag_11\n      jumpi\n      dup1\n      0x70a08231\n      eq\n      tag_12\n      jumpi\n      dup1\n      0x8d17e712\n      eq\n      tag_13\n      jumpi\n      dup1\n      0x95d89b41\n      eq\n      tag_14\n      jumpi\n      jump(tag_2)\n    tag_20:\n      dup1\n      0x23b872dd\n      gt\n      tag_22\n      jumpi\n      dup1\n      0x23b872dd\n      eq\n      tag_7\n      jumpi\n      dup1\n      0x381568d8\n      eq\n      tag_8\n      jumpi\n      dup1\n      0x42842e0e\n      eq\n      tag_9\n      jumpi\n      dup1\n      0x52e04825\n      eq\n      tag_10\n      jumpi\n      jump(tag_2)\n    tag_22:\n      dup1\n      0x01ffc9a7\n      eq\n      tag_3\n      jumpi\n      dup1\n      0x06fdde03\n      eq\n      tag_4\n      jumpi\n      dup1\n      0x081812fc\n      eq\n      tag_5\n      jumpi\n      dup1\n      0x095ea7b3\n      eq\n      tag_6\n      jumpi\n    tag_2:\n      0x00\n      dup1\n      revert\n        /* \"contracts/nft.sol\":1581:1886  function supportsInterface(bytes4 interfaceId) public view virtual override(ERC165, IERC165) returns (bool) {\r... */\n    tag_3:\n      tag_23\n      0x04\n      dup1\n      calldatasize\n      sub\n      dup2\n      add\n      swap1\n      tag_24\n      swap2\n      swap1\n      tag_25\n      jump\t// in\n    tag_24:\n      tag_26\n      jump\t// in\n    tag_23:\n      mload(0x40)\n      tag_27\n      swap2\n      swap1\n      tag_28\n      jump\t// in\n    tag_27:\n      mload(0x40)\n      dup1\n      swap2\n      sub\n      swap1\n      return\n        /* \"contracts/nft.sol\":3546:3646  function name() public view virtual override returns (string memory) {\r... */\n    tag_4:\n      tag_29\n      tag_30\n      jump\t// in\n    tag_29:\n      mload(0x40)\n      tag_31\n      swap2\n      swap1\n      tag_32\n      jump\t// in\n    tag_31:\n      mload(0x40)\n      dup1\n      swap2\n      sub\n      swap1\n      return\n        /* \"contracts/nft.sol\":4619:4790  function getApproved(uint256 tokenId) public view virtual override returns (address) {\r... */\n    tag_5:\n      tag_33\n      0x04\n      dup1\n      calldatasize\n      sub\n      dup2\n      add\n      swap1\n      tag_34\n      swap2\n      swap1\n      tag_35\n      jump\t// in\n    tag_34:\n      tag_36\n      jump\t// in\n    tag_33:\n      mload(0x40)\n      tag_37\n      swap2\n      swap1\n      tag_38\n      jump\t// in\n    tag_37:\n      mload(0x40)\n      dup1\n      swap2\n      sub\n      swap1\n      return\n        /* \"contracts/nft.sol\":4195:4608  function approve(address to, uint256 tokenId) public virtual override {\r... */\n    tag_6:\n      tag_39\n      0x04\n      dup1\n      calldatasize\n      sub\n      dup2\n      add\n      swap1\n      tag_40\n      swap2\n      swap1\n      tag_41\n      jump\t// in\n    tag_40:\n      tag_42\n      jump\t// in\n    tag_39:\n      stop\n        /* \"contracts/nft.sol\":5141:5423  function transferFrom(\r... */\n    tag_7:\n      tag_43\n      0x04\n      dup1\n      calldatasize\n      sub\n      dup2\n      add\n      swap1\n      tag_44\n      swap2\n      swap1\n      tag_45\n      jump\t// in\n    tag_44:\n      tag_46\n      jump\t// in\n    tag_43:\n      stop\n        /* \"contracts/nft.sol\":5959:6270  function mint(address to,address[] memory collaborator,uint256[] memory collaboratorPercent,string memory uri) public {\r... */\n    tag_8:\n      tag_47\n      0x04\n      dup1\n      calldatasize\n      sub\n      dup2\n      add\n      swap1\n      tag_48\n      swap2\n      swap1\n      tag_49\n      jump\t// in\n    tag_48:\n      tag_50\n      jump\t// in\n    tag_47:\n      stop\n        /* \"contracts/nft.sol\":5433:5618  function safeTransferFrom(\r... */\n    tag_9:\n      tag_51\n      0x04\n      dup1\n      calldatasize\n      sub\n      dup2\n      add\n      swap1\n      tag_52\n      swap2\n      swap1\n      tag_45\n      jump\t// in\n    tag_52:\n      tag_53\n      jump\t// in\n    tag_51:\n      stop\n        /* \"contracts/nft.sol\":3106:3298  function collaboratotOf(uint256 tokenId) public view virtual returns (address[] memory) {\r... */\n    tag_10:\n      tag_54\n      0x04\n      dup1\n      calldatasize\n      sub\n      dup2\n      add\n      swap1\n      tag_55\n      swap2\n      swap1\n      tag_35\n      jump\t// in\n    tag_55:\n      tag_56\n      jump\t// in\n    tag_54:\n      mload(0x40)\n      tag_57\n      swap2\n      swap1\n      tag_58\n      jump\t// in\n    tag_57:\n      mload(0x40)\n      dup1\n      swap2\n      sub\n      swap1\n      return\n        /* \"contracts/nft.sol\":2875:3097  function ownerOf(uint256 tokenId) public view virtual override returns (address) {\r... */\n    tag_11:\n      tag_59\n      0x04\n      dup1\n      calldatasize\n      sub\n      dup2\n      add\n      swap1\n      tag_60\n      swap2\n      swap1\n      tag_35\n      jump\t// in\n    tag_60:\n      tag_61\n      jump\t// in\n    tag_59:\n      mload(0x40)\n      tag_62\n      swap2\n      swap1\n      tag_38\n      jump\t// in\n    tag_62:\n      mload(0x40)\n      dup1\n      swap2\n      sub\n      swap1\n      return\n        /* \"contracts/nft.sol\":2658:2865  function balanceOf(address owner) public view virtual override returns (uint256) {\r... */\n    tag_12:\n      tag_63\n      0x04\n      dup1\n      calldatasize\n      sub\n      dup2\n      add\n      swap1\n      tag_64\n      swap2\n      swap1\n      tag_65\n      jump\t// in\n    tag_64:\n      tag_66\n      jump\t// in\n    tag_63:\n      mload(0x40)\n      tag_67\n      swap2\n      swap1\n      tag_68\n      jump\t// in\n    tag_67:\n      mload(0x40)\n      dup1\n      swap2\n      sub\n      swap1\n      return\n        /* \"contracts/nft.sol\":3767:4085  function _tokenURI(uint256 tokenId) public view returns (string memory) {\r... */\n    tag_13:\n      tag_69\n      0x04\n      dup1\n      calldatasize\n      sub\n      dup2\n      add\n      swap1\n      tag_70\n      swap2\n      swap1\n      tag_35\n      jump\t// in\n    tag_70:\n      tag_71\n      jump\t// in\n    tag_69:\n      mload(0x40)\n      tag_72\n      swap2\n      swap1\n      tag_32\n      jump\t// in\n    tag_72:\n      mload(0x40)\n      dup1\n      swap2\n      sub\n      swap1\n      return\n        /* \"contracts/nft.sol\":3655:3759  function symbol() public view virtual override returns (string memory) {\r... */\n    tag_14:\n      tag_73\n      tag_74\n      jump\t// in\n    tag_73:\n      mload(0x40)\n      tag_75\n      swap2\n      swap1\n      tag_32\n      jump\t// in\n    tag_75:\n      mload(0x40)\n      dup1\n      swap2\n      sub\n      swap1\n      return\n        /* \"contracts/nft.sol\":4802:4957  function setApprovalForAll(address operator, bool approved) public virtual override {\r... */\n    tag_15:\n      tag_76\n      0x04\n      dup1\n      calldatasize\n      sub\n      dup2\n      add\n      swap1\n      tag_77\n      swap2\n      swap1\n      tag_78\n      jump\t// in\n    tag_77:\n      tag_79\n      jump\t// in\n    tag_76:\n      stop\n        /* \"contracts/nft.sol\":5628:5950  function safeTransferFrom(\r... */\n    tag_16:\n      tag_80\n      0x04\n      dup1\n      calldatasize\n      sub\n      dup2\n      add\n      swap1\n      tag_81\n      swap2\n      swap1\n      tag_82\n      jump\t// in\n    tag_81:\n      tag_83\n      jump\t// in\n    tag_80:\n      stop\n        /* \"contracts/nft.sol\":1894:2419  function tokenURI(uint256 tokenId) public view virtual override returns (string memory) {\r... */\n    tag_17:\n      tag_84\n      0x04\n      dup1\n      calldatasize\n      sub\n      dup2\n      add\n      swap1\n      tag_85\n      swap2\n      swap1\n      tag_35\n      jump\t// in\n    tag_85:\n      tag_86\n      jump\t// in\n    tag_84:\n      mload(0x40)\n      tag_87\n      swap2\n      swap1\n      tag_32\n      jump\t// in\n    tag_87:\n      mload(0x40)\n      dup1\n      swap2\n      sub\n      swap1\n      return\n        /* \"contracts/nft.sol\":4967:5131  function isApprovedForAll(address owner, address operator) public view virtual override returns (bool) {\r... */\n    tag_18:\n      tag_88\n      0x04\n      dup1\n      calldatasize\n      sub\n      dup2\n      add\n      swap1\n      tag_89\n      swap2\n      swap1\n      tag_90\n      jump\t// in\n    tag_89:\n      tag_91\n      jump\t// in\n    tag_88:\n      mload(0x40)\n      tag_92\n      swap2\n      swap1\n      tag_28\n      jump\t// in\n    tag_92:\n      mload(0x40)\n      dup1\n      swap2\n      sub\n      swap1\n      return\n        /* \"contracts/nft.sol\":3306:3538  function collaboratotPercentageOf(uint256 tokenId) public view virtual returns (uint256[] memory) {\r... */\n    tag_19:\n      tag_93\n      0x04\n      dup1\n      calldatasize\n      sub\n      dup2\n      add\n      swap1\n      tag_94\n      swap2\n      swap1\n      tag_35\n      jump\t// in\n    tag_94:\n      tag_95\n      jump\t// in\n    tag_93:\n      mload(0x40)\n      tag_96\n      swap2\n      swap1\n      tag_97\n      jump\t// in\n    tag_96:\n      mload(0x40)\n      dup1\n      swap2\n      sub\n      swap1\n      return\n        /* \"contracts/nft.sol\":1581:1886  function supportsInterface(bytes4 interfaceId) public view virtual override(ERC165, IERC165) returns (bool) {\r... */\n    tag_26:\n        /* \"contracts/nft.sol\":1683:1687  bool */\n      0x00\n        /* \"contracts/nft.sol\":1735:1760  type(IERC721).interfaceId */\n      0x80ac58cd00000000000000000000000000000000000000000000000000000000\n        /* \"contracts/nft.sol\":1720:1760  interfaceId == type(IERC721).interfaceId */\n      not(0xffffffffffffffffffffffffffffffffffffffffffffffffffffffff)\n      and\n        /* \"contracts/nft.sol\":1720:1731  interfaceId */\n      dup3\n        /* \"contracts/nft.sol\":1720:1760  interfaceId == type(IERC721).interfaceId */\n      not(0xffffffffffffffffffffffffffffffffffffffffffffffffffffffff)\n      and\n      eq\n        /* \"contracts/nft.sol\":1720:1825  interfaceId == type(IERC721).interfaceId ||\r... */\n      dup1\n      tag_99\n      jumpi\n      pop\n        /* \"contracts/nft.sol\":1792:1825  type(IERC721Metadata).interfaceId */\n      0x5b5e139f00000000000000000000000000000000000000000000000000000000\n        /* \"contracts/nft.sol\":1777:1825  interfaceId == type(IERC721Metadata).interfaceId */\n      not(0xffffffffffffffffffffffffffffffffffffffffffffffffffffffff)\n      and\n        /* \"contracts/nft.sol\":1777:1788  interfaceId */\n      dup3\n        /* \"contracts/nft.sol\":1777:1825  interfaceId == type(IERC721Metadata).interfaceId */\n      not(0xffffffffffffffffffffffffffffffffffffffffffffffffffffffff)\n      and\n      eq\n        /* \"contracts/nft.sol\":1720:1825  interfaceId == type(IERC721).interfaceId ||\r... */\n    tag_99:\n        /* \"contracts/nft.sol\":1720:1878  interfaceId == type(IERC721).interfaceId ||\r... */\n      dup1\n      tag_100\n      jumpi\n      pop\n        /* \"contracts/nft.sol\":1842:1878  super.supportsInterface(interfaceId) */\n      tag_101\n        /* \"contracts/nft.sol\":1866:1877  interfaceId */\n      dup3\n        /* \"contracts/nft.sol\":1842:1865  super.supportsInterface */\n      tag_102\n        /* \"contracts/nft.sol\":1842:1878  super.supportsInterface(interfaceId) */\n      jump\t// in\n    tag_101:\n        /* \"contracts/nft.sol\":1720:1878  interfaceId == type(IERC721).interfaceId ||\r... */\n    tag_100:\n        /* \"contracts/nft.sol\":1700:1878  return\r... */\n      swap1\n      pop\n        /* \"contracts/nft.sol\":1581:1886  function supportsInterface(bytes4 interfaceId) public view virtual override(ERC165, IERC165) returns (bool) {\r... */\n      swap2\n      swap1\n      pop\n      jump\t// out\n        /* \"contracts/nft.sol\":3546:3646  function name() public view virtual override returns (string memory) {\r... */\n    tag_30:\n        /* \"contracts/nft.sol\":3600:3613  string memory */\n      0x60\n        /* \"contracts/nft.sol\":3633:3638  _name */\n      0x01\n        /* \"contracts/nft.sol\":3626:3638  return _name */\n      dup1\n      sload\n      tag_104\n      swap1\n      tag_105\n      jump\t// in\n    tag_104:\n      dup1\n      0x1f\n      add\n      0x20\n      dup1\n      swap2\n      div\n      mul\n      0x20\n      add\n      mload(0x40)\n      swap1\n      dup2\n      add\n      0x40\n      mstore\n      dup1\n      swap3\n      swap2\n      swap1\n      dup2\n      dup2\n      mstore\n      0x20\n      add\n      dup3\n      dup1\n      sload\n      tag_106\n      swap1\n      tag_105\n      jump\t// in\n    tag_106:\n      dup1\n      iszero\n      tag_107\n      jumpi\n      dup1\n      0x1f\n      lt\n      tag_108\n      jumpi\n      0x0100\n      dup1\n      dup4\n      sload\n      div\n      mul\n      dup4\n      mstore\n      swap2\n      0x20\n      add\n      swap2\n      jump(tag_107)\n    tag_108:\n      dup3\n      add\n      swap2\n      swap1\n      0x00\n      mstore\n      keccak256(0x00, 0x20)\n      swap1\n    tag_109:\n      dup2\n      sload\n      dup2\n      mstore\n      swap1\n      0x01\n      add\n      swap1\n      0x20\n      add\n      dup1\n      dup4\n      gt\n      tag_109\n      jumpi\n      dup3\n      swap1\n      sub\n      0x1f\n      and\n      dup3\n      add\n      swap2\n    tag_107:\n      pop\n      pop\n      pop\n      pop\n      pop\n      swap1\n      pop\n        /* \"contracts/nft.sol\":3546:3646  function name() public view virtual override returns (string memory) {\r... */\n      swap1\n      jump\t// out\n        /* \"contracts/nft.sol\":4619:4790  function getApproved(uint256 tokenId) public view virtual override returns (address) {\r... */\n    tag_36:\n        /* \"contracts/nft.sol\":4695:4702  address */\n      0x00\n        /* \"contracts/nft.sol\":4715:4738  _requireMinted(tokenId) */\n      tag_111\n        /* \"contracts/nft.sol\":4730:4737  tokenId */\n      dup3\n        /* \"contracts/nft.sol\":4715:4729  _requireMinted */\n      tag_112\n        /* \"contracts/nft.sol\":4715:4738  _requireMinted(tokenId) */\n      jump\t// in\n    tag_111:\n        /* \"contracts/nft.sol\":4758:4773  _tokenApprovals */\n      0x07\n        /* \"contracts/nft.sol\":4758:4782  _tokenApprovals[tokenId] */\n      0x00\n        /* \"contracts/nft.sol\":4774:4781  tokenId */\n      dup4\n        /* \"contracts/nft.sol\":4758:4782  _tokenApprovals[tokenId] */\n      dup2\n      mstore\n      0x20\n      add\n      swap1\n      dup2\n      mstore\n      0x20\n      add\n      0x00\n      keccak256\n      0x00\n      swap1\n      sload\n      swap1\n      0x0100\n      exp\n      swap1\n      div\n      0xffffffffffffffffffffffffffffffffffffffff\n      and\n        /* \"contracts/nft.sol\":4751:4782  return _tokenApprovals[tokenId] */\n      swap1\n      pop\n        /* \"contracts/nft.sol\":4619:4790  function getApproved(uint256 tokenId) public view virtual override returns (address) {\r... */\n      swap2\n      swap1\n      pop\n      jump\t// out\n        /* \"contracts/nft.sol\":4195:4608  function approve(address to, uint256 tokenId) public virtual override {\r... */\n    tag_42:\n        /* \"contracts/nft.sol\":4276:4289  address owner */\n      0x00\n        /* \"contracts/nft.sol\":4292:4312  nft.ownerOf(tokenId) */\n      tag_114\n        /* \"contracts/nft.sol\":4304:4311  tokenId */\n      dup3\n        /* \"contracts/nft.sol\":4292:4303  nft.ownerOf */\n      tag_61\n        /* \"contracts/nft.sol\":4292:4312  nft.ownerOf(tokenId) */\n      jump\t// in\n    tag_114:\n        /* \"contracts/nft.sol\":4276:4312  address owner = nft.ownerOf(tokenId) */\n      swap1\n      pop\n        /* \"contracts/nft.sol\":4337:4342  owner */\n      dup1\n        /* \"contracts/nft.sol\":4331:4342  to != owner */\n      0xffffffffffffffffffffffffffffffffffffffff\n      and\n        /* \"contracts/nft.sol\":4331:4333  to */\n      dup4\n        /* \"contracts/nft.sol\":4331:4342  to != owner */\n      0xffffffffffffffffffffffffffffffffffffffff\n      and\n      eq\n      iszero\n        /* \"contracts/nft.sol\":4323:4380  require(to != owner, \"ERC721: approval to current owner\") */\n      tag_115\n      jumpi\n      mload(0x40)\n      0x08c379a000000000000000000000000000000000000000000000000000000000\n      dup2\n      mstore\n      0x04\n      add\n      tag_116\n      swap1\n      tag_117\n      jump\t// in\n    tag_116:\n      mload(0x40)\n      dup1\n      swap2\n      sub\n      swap1\n      revert\n    tag_115:\n        /* \"contracts/nft.sol\":4431:4436  owner */\n      dup1\n        /* \"contracts/nft.sol\":4415:4436  _msgSender() == owner */\n      0xffffffffffffffffffffffffffffffffffffffff\n      and\n        /* \"contracts/nft.sol\":4415:4427  _msgSender() */\n      tag_118\n        /* \"contracts/nft.sol\":4415:4425  _msgSender */\n      tag_119\n        /* \"contracts/nft.sol\":4415:4427  _msgSender() */\n      jump\t// in\n    tag_118:\n        /* \"contracts/nft.sol\":4415:4436  _msgSender() == owner */\n      0xffffffffffffffffffffffffffffffffffffffff\n      and\n      eq\n        /* \"contracts/nft.sol\":4415:4477  _msgSender() == owner || isApprovedForAll(owner, _msgSender()) */\n      dup1\n      tag_120\n      jumpi\n      pop\n        /* \"contracts/nft.sol\":4440:4477  isApprovedForAll(owner, _msgSender()) */\n      tag_121\n        /* \"contracts/nft.sol\":4457:4462  owner */\n      dup2\n        /* \"contracts/nft.sol\":4464:4476  _msgSender() */\n      tag_122\n        /* \"contracts/nft.sol\":4464:4474  _msgSender */\n      tag_119\n        /* \"contracts/nft.sol\":4464:4476  _msgSender() */\n      jump\t// in\n    tag_122:\n        /* \"contracts/nft.sol\":4440:4456  isApprovedForAll */\n      tag_91\n        /* \"contracts/nft.sol\":4440:4477  isApprovedForAll(owner, _msgSender()) */\n      jump\t// in\n    tag_121:\n        /* \"contracts/nft.sol\":4415:4477  _msgSender() == owner || isApprovedForAll(owner, _msgSender()) */\n    tag_120:\n        /* \"contracts/nft.sol\":4393:4566  require(\r... */\n      tag_123\n      jumpi\n      mload(0x40)\n      0x08c379a000000000000000000000000000000000000000000000000000000000\n      dup2\n      mstore\n      0x04\n      add\n      tag_124\n      swap1\n      tag_125\n      jump\t// in\n    tag_124:\n      mload(0x40)\n      dup1\n      swap2\n      sub\n      swap1\n      revert\n    tag_123:\n        /* \"contracts/nft.sol\":4579:4600  _approve(to, tokenId) */\n      tag_126\n        /* \"contracts/nft.sol\":4588:4590  to */\n      dup4\n        /* \"contracts/nft.sol\":4592:4599  tokenId */\n      dup4\n        /* \"contracts/nft.sol\":4579:4587  _approve */\n      tag_127\n        /* \"contracts/nft.sol\":4579:4600  _approve(to, tokenId) */\n      jump\t// in\n    tag_126:\n        /* \"contracts/nft.sol\":4195:4608  function approve(address to, uint256 tokenId) public virtual override {\r... */\n      pop\n      pop\n      pop\n      jump\t// out\n        /* \"contracts/nft.sol\":5141:5423  function transferFrom(\r... */\n    tag_46:\n        /* \"contracts/nft.sol\":5283:5324  _isApprovedOrOwner(_msgSender(), tokenId) */\n      tag_129\n        /* \"contracts/nft.sol\":5302:5314  _msgSender() */\n      tag_130\n        /* \"contracts/nft.sol\":5302:5312  _msgSender */\n      tag_119\n        /* \"contracts/nft.sol\":5302:5314  _msgSender() */\n      jump\t// in\n    tag_130:\n        /* \"contracts/nft.sol\":5316:5323  tokenId */\n      dup3\n        /* \"contracts/nft.sol\":5283:5301  _isApprovedOrOwner */\n      tag_131\n        /* \"contracts/nft.sol\":5283:5324  _isApprovedOrOwner(_msgSender(), tokenId) */\n      jump\t// in\n    tag_129:\n        /* \"contracts/nft.sol\":5275:5374  require(_isApprovedOrOwner(_msgSender(), tokenId), \"ERC721: caller is not token owner or approved\") */\n      tag_132\n      jumpi\n      mload(0x40)\n      0x08c379a000000000000000000000000000000000000000000000000000000000\n      dup2\n      mstore\n      0x04\n      add\n      tag_133\n      swap1\n      tag_134\n      jump\t// in\n    tag_133:\n      mload(0x40)\n      dup1\n      swap2\n      sub\n      swap1\n      revert\n    tag_132:\n        /* \"contracts/nft.sol\":5387:5415  _transfer(from, to, tokenId) */\n      tag_135\n        /* \"contracts/nft.sol\":5397:5401  from */\n      dup4\n        /* \"contracts/nft.sol\":5403:5405  to */\n      dup4\n        /* \"contracts/nft.sol\":5407:5414  tokenId */\n      dup4\n        /* \"contracts/nft.sol\":5387:5396  _transfer */\n      tag_136\n        /* \"contracts/nft.sol\":5387:5415  _transfer(from, to, tokenId) */\n      jump\t// in\n    tag_135:\n        /* \"contracts/nft.sol\":5141:5423  function transferFrom(\r... */\n      pop\n      pop\n      pop\n      jump\t// out\n        /* \"contracts/nft.sol\":5959:6270  function mint(address to,address[] memory collaborator,uint256[] memory collaboratorPercent,string memory uri) public {\r... */\n    tag_50:\n        /* \"contracts/nft.sol\":6090:6111  _tokenIds.increment() */\n      tag_138\n        /* \"contracts/nft.sol\":6090:6099  _tokenIds */\n      0x00\n        /* \"contracts/nft.sol\":6090:6109  _tokenIds.increment */\n      tag_139\n        /* \"contracts/nft.sol\":6090:6111  _tokenIds.increment() */\n      jump\t// in\n    tag_138:\n        /* \"contracts/nft.sol\":6122:6137  uint256 tokenId */\n      0x00\n        /* \"contracts/nft.sol\":6140:6159  _tokenIds.current() */\n      tag_140\n        /* \"contracts/nft.sol\":6140:6149  _tokenIds */\n      0x00\n        /* \"contracts/nft.sol\":6140:6157  _tokenIds.current */\n      tag_141\n        /* \"contracts/nft.sol\":6140:6159  _tokenIds.current() */\n      jump\t// in\n    tag_140:\n        /* \"contracts/nft.sol\":6122:6159  uint256 tokenId = _tokenIds.current() */\n      swap1\n      pop\n        /* \"contracts/nft.sol\":6170:6225  _safeMint(to, collaborator,collaboratorPercent,tokenId) */\n      tag_142\n        /* \"contracts/nft.sol\":6180:6182  to */\n      dup6\n        /* \"contracts/nft.sol\":6184:6196  collaborator */\n      dup6\n        /* \"contracts/nft.sol\":6197:6216  collaboratorPercent */\n      dup6\n        /* \"contracts/nft.sol\":6217:6224  tokenId */\n      dup5\n        /* \"contracts/nft.sol\":6170:6179  _safeMint */\n      tag_143\n        /* \"contracts/nft.sol\":6170:6225  _safeMint(to, collaborator,collaboratorPercent,tokenId) */\n      jump\t// in\n    tag_142:\n        /* \"contracts/nft.sol\":6236:6262  _setTokenURI(tokenId, uri) */\n      tag_144\n        /* \"contracts/nft.sol\":6249:6256  tokenId */\n      dup2\n        /* \"contracts/nft.sol\":6258:6261  uri */\n      dup4\n        /* \"contracts/nft.sol\":6236:6248  _setTokenURI */\n      tag_145\n        /* \"contracts/nft.sol\":6236:6262  _setTokenURI(tokenId, uri) */\n      jump\t// in\n    tag_144:\n        /* \"contracts/nft.sol\":5959:6270  function mint(address to,address[] memory collaborator,uint256[] memory collaboratorPercent,string memory uri) public {\r... */\n      pop\n      pop\n      pop\n      pop\n      pop\n      jump\t// out\n        /* \"contracts/nft.sol\":5433:5618  function safeTransferFrom(\r... */\n    tag_53:\n        /* \"contracts/nft.sol\":5571:5610  safeTransferFrom(from, to, tokenId, \"\") */\n      tag_147\n        /* \"contracts/nft.sol\":5588:5592  from */\n      dup4\n        /* \"contracts/nft.sol\":5594:5596  to */\n      dup4\n        /* \"contracts/nft.sol\":5598:5605  tokenId */\n      dup4\n        /* \"contracts/nft.sol\":5571:5610  safeTransferFrom(from, to, tokenId, \"\") */\n      mload(0x40)\n      dup1\n      0x20\n      add\n      0x40\n      mstore\n      dup1\n      0x00\n      dup2\n      mstore\n      pop\n        /* \"contracts/nft.sol\":5571:5587  safeTransferFrom */\n      tag_83\n        /* \"contracts/nft.sol\":5571:5610  safeTransferFrom(from, to, tokenId, \"\") */\n      jump\t// in\n    tag_147:\n        /* \"contracts/nft.sol\":5433:5618  function safeTransferFrom(\r... */\n      pop\n      pop\n      pop\n      jump\t// out\n        /* \"contracts/nft.sol\":3106:3298  function collaboratotOf(uint256 tokenId) public view virtual returns (address[] memory) {\r... */\n    tag_56:\n        /* \"contracts/nft.sol\":3176:3192  address[] memory */\n      0x60\n        /* \"contracts/nft.sol\":3205:3234  address[] memory collaborator */\n      0x00\n        /* \"contracts/nft.sol\":3237:3251  _collaborators */\n      0x04\n        /* \"contracts/nft.sol\":3237:3260  _collaborators[tokenId] */\n      0x00\n        /* \"contracts/nft.sol\":3252:3259  tokenId */\n      dup5\n        /* \"contracts/nft.sol\":3237:3260  _collaborators[tokenId] */\n      dup2\n      mstore\n      0x20\n      add\n      swap1\n      dup2\n      mstore\n      0x20\n      add\n      0x00\n      keccak256\n        /* \"contracts/nft.sol\":3205:3260  address[] memory collaborator = _collaborators[tokenId] */\n      dup1\n      sload\n      dup1\n      0x20\n      mul\n      0x20\n      add\n      mload(0x40)\n      swap1\n      dup2\n      add\n      0x40\n      mstore\n      dup1\n      swap3\n      swap2\n      swap1\n      dup2\n      dup2\n      mstore\n      0x20\n      add\n      dup3\n      dup1\n      sload\n      dup1\n      iszero\n      tag_149\n      jumpi\n      0x20\n      mul\n      dup3\n      add\n      swap2\n      swap1\n      0x00\n      mstore\n      keccak256(0x00, 0x20)\n      swap1\n    tag_150:\n      dup2\n      0x00\n      swap1\n      sload\n      swap1\n      0x0100\n      exp\n      swap1\n      div\n      0xffffffffffffffffffffffffffffffffffffffff\n      and\n      0xffffffffffffffffffffffffffffffffffffffff\n      and\n      dup2\n      mstore\n      0x20\n      add\n      swap1\n      0x01\n      add\n      swap1\n      dup1\n      dup4\n      gt\n      tag_150\n      jumpi\n    tag_149:\n      pop\n      pop\n      pop\n      pop\n      pop\n      swap1\n      pop\n        /* \"contracts/nft.sol\":3278:3290  collaborator */\n      dup1\n        /* \"contracts/nft.sol\":3271:3290  return collaborator */\n      swap2\n      pop\n      pop\n        /* \"contracts/nft.sol\":3106:3298  function collaboratotOf(uint256 tokenId) public view virtual returns (address[] memory) {\r... */\n      swap2\n      swap1\n      pop\n      jump\t// out\n        /* \"contracts/nft.sol\":2875:3097  function ownerOf(uint256 tokenId) public view virtual override returns (address) {\r... */\n    tag_61:\n        /* \"contracts/nft.sol\":2947:2954  address */\n      0x00\n        /* \"contracts/nft.sol\":2967:2980  address owner */\n      dup1\n        /* \"contracts/nft.sol\":2983:2990  _owners */\n      0x03\n        /* \"contracts/nft.sol\":2983:2999  _owners[tokenId] */\n      0x00\n        /* \"contracts/nft.sol\":2991:2998  tokenId */\n      dup5\n        /* \"contracts/nft.sol\":2983:2999  _owners[tokenId] */\n      dup2\n      mstore\n      0x20\n      add\n      swap1\n      dup2\n      mstore\n      0x20\n      add\n      0x00\n      keccak256\n      0x00\n      swap1\n      sload\n      swap1\n      0x0100\n      exp\n      swap1\n      div\n      0xffffffffffffffffffffffffffffffffffffffff\n      and\n        /* \"contracts/nft.sol\":2967:2999  address owner = _owners[tokenId] */\n      swap1\n      pop\n        /* \"contracts/nft.sol\":3035:3036  0 */\n      0x00\n        /* \"contracts/nft.sol\":3018:3037  owner != address(0) */\n      0xffffffffffffffffffffffffffffffffffffffff\n      and\n        /* \"contracts/nft.sol\":3018:3023  owner */\n      dup2\n        /* \"contracts/nft.sol\":3018:3037  owner != address(0) */\n      0xffffffffffffffffffffffffffffffffffffffff\n      and\n      eq\n      iszero\n        /* \"contracts/nft.sol\":3010:3066  require(owner != address(0), \"ERC721: invalid token ID\") */\n      tag_152\n      jumpi\n      mload(0x40)\n      0x08c379a000000000000000000000000000000000000000000000000000000000\n      dup2\n      mstore\n      0x04\n      add\n      tag_153\n      swap1\n      tag_154\n      jump\t// in\n    tag_153:\n      mload(0x40)\n      dup1\n      swap2\n      sub\n      swap1\n      revert\n    tag_152:\n        /* \"contracts/nft.sol\":3084:3089  owner */\n      dup1\n        /* \"contracts/nft.sol\":3077:3089  return owner */\n      swap2\n      pop\n      pop\n        /* \"contracts/nft.sol\":2875:3097  function ownerOf(uint256 tokenId) public view virtual override returns (address) {\r... */\n      swap2\n      swap1\n      pop\n      jump\t// out\n        /* \"contracts/nft.sol\":2658:2865  function balanceOf(address owner) public view virtual override returns (uint256) {\r... */\n    tag_66:\n        /* \"contracts/nft.sol\":2730:2737  uint256 */\n      0x00\n        /* \"contracts/nft.sol\":2775:2776  0 */\n      dup1\n        /* \"contracts/nft.sol\":2758:2777  owner != address(0) */\n      0xffffffffffffffffffffffffffffffffffffffff\n      and\n        /* \"contracts/nft.sol\":2758:2763  owner */\n      dup3\n        /* \"contracts/nft.sol\":2758:2777  owner != address(0) */\n      0xffffffffffffffffffffffffffffffffffffffff\n      and\n      eq\n      iszero\n        /* \"contracts/nft.sol\":2750:2823  require(owner != address(0), \"ERC721: address zero is not a valid owner\") */\n      tag_156\n      jumpi\n      mload(0x40)\n      0x08c379a000000000000000000000000000000000000000000000000000000000\n      dup2\n      mstore\n      0x04\n      add\n      tag_157\n      swap1\n      tag_158\n      jump\t// in\n    tag_157:\n      mload(0x40)\n      dup1\n      swap2\n      sub\n      swap1\n      revert\n    tag_156:\n        /* \"contracts/nft.sol\":2841:2850  _balances */\n      0x06\n        /* \"contracts/nft.sol\":2841:2857  _balances[owner] */\n      0x00\n        /* \"contracts/nft.sol\":2851:2856  owner */\n      dup4\n        /* \"contracts/nft.sol\":2841:2857  _balances[owner] */\n      0xffffffffffffffffffffffffffffffffffffffff\n      and\n      0xffffffffffffffffffffffffffffffffffffffff\n      and\n      dup2\n      mstore\n      0x20\n      add\n      swap1\n      dup2\n      mstore\n      0x20\n      add\n      0x00\n      keccak256\n      sload\n        /* \"contracts/nft.sol\":2834:2857  return _balances[owner] */\n      swap1\n      pop\n        /* \"contracts/nft.sol\":2658:2865  function balanceOf(address owner) public view virtual override returns (uint256) {\r... */\n      swap2\n      swap1\n      pop\n      jump\t// out\n        /* \"contracts/nft.sol\":3767:4085  function _tokenURI(uint256 tokenId) public view returns (string memory) {\r... */\n    tag_71:\n        /* \"contracts/nft.sol\":3824:3837  string memory */\n      0x60\n        /* \"contracts/nft.sol\":3858:3874  _exists(tokenId) */\n      tag_160\n        /* \"contracts/nft.sol\":3866:3873  tokenId */\n      dup3\n        /* \"contracts/nft.sol\":3858:3865  _exists */\n      tag_161\n        /* \"contracts/nft.sol\":3858:3874  _exists(tokenId) */\n      jump\t// in\n    tag_160:\n        /* \"contracts/nft.sol\":3850:3926  require(_exists(tokenId), \"ERC721Metadata: URI query for nonexistent token\") */\n      tag_162\n      jumpi\n      mload(0x40)\n      0x08c379a000000000000000000000000000000000000000000000000000000000\n      dup2\n      mstore\n      0x04\n      add\n      tag_163\n      swap1\n      tag_164\n      jump\t// in\n    tag_163:\n      mload(0x40)\n      dup1\n      swap2\n      sub\n      swap1\n      revert\n    tag_162:\n        /* \"contracts/nft.sol\":3939:3960  string memory baseURI */\n      0x00\n        /* \"contracts/nft.sol\":3963:3973  _baseURI() */\n      tag_165\n        /* \"contracts/nft.sol\":3963:3971  _baseURI */\n      tag_166\n        /* \"contracts/nft.sol\":3963:3973  _baseURI() */\n      jump\t// in\n    tag_165:\n        /* \"contracts/nft.sol\":3939:3973  string memory baseURI = _baseURI() */\n      swap1\n      pop\n        /* \"contracts/nft.sol\":4015:4016  0 */\n      0x00\n        /* \"contracts/nft.sol\":3997:4004  baseURI */\n      dup2\n        /* \"contracts/nft.sol\":3991:4012  bytes(baseURI).length */\n      mload\n        /* \"contracts/nft.sol\":3991:4016  bytes(baseURI).length > 0 */\n      gt\n        /* \"contracts/nft.sol\":3991:4077  bytes(baseURI).length > 0 ? string(abi.encodePacked(baseURI, tokenId.toString())) : \"\" */\n      tag_167\n      jumpi\n      mload(0x40)\n      dup1\n      0x20\n      add\n      0x40\n      mstore\n      dup1\n      0x00\n      dup2\n      mstore\n      pop\n      jump(tag_168)\n    tag_167:\n        /* \"contracts/nft.sol\":4043:4050  baseURI */\n      dup1\n        /* \"contracts/nft.sol\":4052:4070  tokenId.toString() */\n      tag_169\n        /* \"contracts/nft.sol\":4052:4059  tokenId */\n      dup5\n        /* \"contracts/nft.sol\":4052:4068  tokenId.toString */\n      tag_170\n        /* \"contracts/nft.sol\":4052:4070  tokenId.toString() */\n      jump\t// in\n    tag_169:\n        /* \"contracts/nft.sol\":4026:4071  abi.encodePacked(baseURI, tokenId.toString()) */\n      add(0x20, mload(0x40))\n      tag_171\n      swap3\n      swap2\n      swap1\n      tag_172\n      jump\t// in\n    tag_171:\n      mload(0x40)\n      0x20\n      dup2\n      dup4\n      sub\n      sub\n      dup2\n      mstore\n      swap1\n      0x40\n      mstore\n        /* \"contracts/nft.sol\":3991:4077  bytes(baseURI).length > 0 ? string(abi.encodePacked(baseURI, tokenId.toString())) : \"\" */\n    tag_168:\n        /* \"contracts/nft.sol\":3984:4077  return bytes(baseURI).length > 0 ? string(abi.encodePacked(baseURI, tokenId.toString())) : \"\" */\n      swap2\n      pop\n      pop\n        /* \"contracts/nft.sol\":3767:4085  function _tokenURI(uint256 tokenId) public view returns (string memory) {\r... */\n      swap2\n      swap1\n      pop\n      jump\t// out\n        /* \"contracts/nft.sol\":3655:3759  function symbol() public view virtual override returns (string memory) {\r... */\n    tag_74:\n        /* \"contracts/nft.sol\":3711:3724  string memory */\n      0x60\n        /* \"contracts/nft.sol\":3744:3751  _symbol */\n      0x02\n        /* \"contracts/nft.sol\":3737:3751  return _symbol */\n      dup1\n      sload\n      tag_174\n      swap1\n      tag_105\n      jump\t// in\n    tag_174:\n      dup1\n      0x1f\n      add\n      0x20\n      dup1\n      swap2\n      div\n      mul\n      0x20\n      add\n      mload(0x40)\n      swap1\n      dup2\n      add\n      0x40\n      mstore\n      dup1\n      swap3\n      swap2\n      swap1\n      dup2\n      dup2\n      mstore\n      0x20\n      add\n      dup3\n      dup1\n      sload\n      tag_175\n      swap1\n      tag_105\n      jump\t// in\n    tag_175:\n      dup1\n      iszero\n      tag_176\n      jumpi\n      dup1\n      0x1f\n      lt\n      tag_177\n      jumpi\n      0x0100\n      dup1\n      dup4\n      sload\n      div\n      mul\n      dup4\n      mstore\n      swap2\n      0x20\n      add\n      swap2\n      jump(tag_176)\n    tag_177:\n      dup3\n      add\n      swap2\n      swap1\n      0x00\n      mstore\n      keccak256(0x00, 0x20)\n      swap1\n    tag_178:\n      dup2\n      sload\n      dup2\n      mstore\n      swap1\n      0x01\n      add\n      swap1\n      0x20\n      add\n      dup1\n      dup4\n      gt\n      tag_178\n      jumpi\n      dup3\n      swap1\n      sub\n      0x1f\n      and\n      dup3\n      add\n      swap2\n    tag_176:\n      pop\n      pop\n      pop\n      pop\n      pop\n      swap1\n      pop\n        /* \"contracts/nft.sol\":3655:3759  function symbol() public view virtual override returns (string memory) {\r... */\n      swap1\n      jump\t// out\n        /* \"contracts/nft.sol\":4802:4957  function setApprovalForAll(address operator, bool approved) public virtual override {\r... */\n    tag_79:\n        /* \"contracts/nft.sol\":4897:4949  _setApprovalForAll(_msgSender(), operator, approved) */\n      tag_180\n        /* \"contracts/nft.sol\":4916:4928  _msgSender() */\n      tag_181\n        /* \"contracts/nft.sol\":4916:4926  _msgSender */\n      tag_119\n        /* \"contracts/nft.sol\":4916:4928  _msgSender() */\n      jump\t// in\n    tag_181:\n        /* \"contracts/nft.sol\":4930:4938  operator */\n      dup4\n        /* \"contracts/nft.sol\":4940:4948  approved */\n      dup4\n        /* \"contracts/nft.sol\":4897:4915  _setApprovalForAll */\n      tag_182\n        /* \"contracts/nft.sol\":4897:4949  _setApprovalForAll(_msgSender(), operator, approved) */\n      jump\t// in\n    tag_180:\n        /* \"contracts/nft.sol\":4802:4957  function setApprovalForAll(address operator, bool approved) public virtual override {\r... */\n      pop\n      pop\n      jump\t// out\n        /* \"contracts/nft.sol\":5628:5950  function safeTransferFrom(\r... */\n    tag_83:\n        /* \"contracts/nft.sol\":5802:5843  _isApprovedOrOwner(_msgSender(), tokenId) */\n      tag_184\n        /* \"contracts/nft.sol\":5821:5833  _msgSender() */\n      tag_185\n        /* \"contracts/nft.sol\":5821:5831  _msgSender */\n      tag_119\n        /* \"contracts/nft.sol\":5821:5833  _msgSender() */\n      jump\t// in\n    tag_185:\n        /* \"contracts/nft.sol\":5835:5842  tokenId */\n      dup4\n        /* \"contracts/nft.sol\":5802:5820  _isApprovedOrOwner */\n      tag_131\n        /* \"contracts/nft.sol\":5802:5843  _isApprovedOrOwner(_msgSender(), tokenId) */\n      jump\t// in\n    tag_184:\n        /* \"contracts/nft.sol\":5794:5893  require(_isApprovedOrOwner(_msgSender(), tokenId), \"ERC721: caller is not token owner or approved\") */\n      tag_186\n      jumpi\n      mload(0x40)\n      0x08c379a000000000000000000000000000000000000000000000000000000000\n      dup2\n      mstore\n      0x04\n      add\n      tag_187\n      swap1\n      tag_134\n      jump\t// in\n    tag_187:\n      mload(0x40)\n      dup1\n      swap2\n      sub\n      swap1\n      revert\n    tag_186:\n        /* \"contracts/nft.sol\":5904:5942  _safeTransfer(from, to, tokenId, data) */\n      tag_188\n        /* \"contracts/nft.sol\":5918:5922  from */\n      dup5\n        /* \"contracts/nft.sol\":5924:5926  to */\n      dup5\n        /* \"contracts/nft.sol\":5928:5935  tokenId */\n      dup5\n        /* \"contracts/nft.sol\":5937:5941  data */\n      dup5\n        /* \"contracts/nft.sol\":5904:5917  _safeTransfer */\n      tag_189\n        /* \"contracts/nft.sol\":5904:5942  _safeTransfer(from, to, tokenId, data) */\n      jump\t// in\n    tag_188:\n        /* \"contracts/nft.sol\":5628:5950  function safeTransferFrom(\r... */\n      pop\n      pop\n      pop\n      pop\n      jump\t// out\n        /* \"contracts/nft.sol\":1894:2419  function tokenURI(uint256 tokenId) public view virtual override returns (string memory) {\r... */\n    tag_86:\n        /* \"contracts/nft.sol\":1967:1980  string memory */\n      0x60\n        /* \"contracts/nft.sol\":2001:2017  _exists(tokenId) */\n      tag_191\n        /* \"contracts/nft.sol\":2009:2016  tokenId */\n      dup3\n        /* \"contracts/nft.sol\":2001:2008  _exists */\n      tag_161\n        /* \"contracts/nft.sol\":2001:2017  _exists(tokenId) */\n      jump\t// in\n    tag_191:\n        /* \"contracts/nft.sol\":1993:2071  require(_exists(tokenId), \"ERC721URIStorage: URI query for nonexistent token\") */\n      tag_192\n      jumpi\n      mload(0x40)\n      0x08c379a000000000000000000000000000000000000000000000000000000000\n      dup2\n      mstore\n      0x04\n      add\n      tag_193\n      swap1\n      tag_194\n      jump\t// in\n    tag_193:\n      mload(0x40)\n      dup1\n      swap2\n      sub\n      swap1\n      revert\n    tag_192:\n        /* \"contracts/nft.sol\":2084:2107  string memory _tokenUri */\n      0x00\n        /* \"contracts/nft.sol\":2110:2120  _tokenURIs */\n      0x09\n        /* \"contracts/nft.sol\":2110:2129  _tokenURIs[tokenId] */\n      0x00\n        /* \"contracts/nft.sol\":2121:2128  tokenId */\n      dup5\n        /* \"contracts/nft.sol\":2110:2129  _tokenURIs[tokenId] */\n      dup2\n      mstore\n      0x20\n      add\n      swap1\n      dup2\n      mstore\n      0x20\n      add\n      0x00\n      keccak256\n        /* \"contracts/nft.sol\":2084:2129  string memory _tokenUri = _tokenURIs[tokenId] */\n      dup1\n      sload\n      tag_195\n      swap1\n      tag_105\n      jump\t// in\n    tag_195:\n      dup1\n      0x1f\n      add\n      0x20\n      dup1\n      swap2\n      div\n      mul\n      0x20\n      add\n      mload(0x40)\n      swap1\n      dup2\n      add\n      0x40\n      mstore\n      dup1\n      swap3\n      swap2\n      swap1\n      dup2\n      dup2\n      mstore\n      0x20\n      add\n      dup3\n      dup1\n      sload\n      tag_196\n      swap1\n      tag_105\n      jump\t// in\n    tag_196:\n      dup1\n      iszero\n      tag_197\n      jumpi\n      dup1\n      0x1f\n      lt\n      tag_198\n      jumpi\n      0x0100\n      dup1\n      dup4\n      sload\n      div\n      mul\n      dup4\n      mstore\n      swap2\n      0x20\n      add\n      swap2\n      jump(tag_197)\n    tag_198:\n      dup3\n      add\n      swap2\n      swap1\n      0x00\n      mstore\n      keccak256(0x00, 0x20)\n      swap1\n    tag_199:\n      dup2\n      sload\n      dup2\n      mstore\n      swap1\n      0x01\n      add\n      swap1\n      0x20\n      add\n      dup1\n      dup4\n      gt\n      tag_199\n      jumpi\n      dup3\n      swap1\n      sub\n      0x1f\n      and\n      dup3\n      add\n      swap2\n    tag_197:\n      pop\n      pop\n      pop\n      pop\n      pop\n      swap1\n      pop\n        /* \"contracts/nft.sol\":2140:2158  string memory base */\n      0x00\n        /* \"contracts/nft.sol\":2161:2171  _baseURI() */\n      tag_200\n        /* \"contracts/nft.sol\":2161:2169  _baseURI */\n      tag_166\n        /* \"contracts/nft.sol\":2161:2171  _baseURI() */\n      jump\t// in\n    tag_200:\n        /* \"contracts/nft.sol\":2140:2171  string memory base = _baseURI() */\n      swap1\n      pop\n        /* \"contracts/nft.sol\":2210:2211  0 */\n      0x00\n        /* \"contracts/nft.sol\":2194:2198  base */\n      dup2\n        /* \"contracts/nft.sol\":2188:2206  bytes(base).length */\n      mload\n        /* \"contracts/nft.sol\":2188:2211  bytes(base).length == 0 */\n      eq\n        /* \"contracts/nft.sol\":2184:2256  if (bytes(base).length == 0) {\r... */\n      iszero\n      tag_201\n      jumpi\n        /* \"contracts/nft.sol\":2235:2244  _tokenUri */\n      dup2\n        /* \"contracts/nft.sol\":2228:2244  return _tokenUri */\n      swap3\n      pop\n      pop\n      pop\n      jump(tag_190)\n        /* \"contracts/nft.sol\":2184:2256  if (bytes(base).length == 0) {\r... */\n    tag_201:\n        /* \"contracts/nft.sol\":2296:2297  0 */\n      0x00\n        /* \"contracts/nft.sol\":2276:2285  _tokenUri */\n      dup3\n        /* \"contracts/nft.sol\":2270:2293  bytes(_tokenUri).length */\n      mload\n        /* \"contracts/nft.sol\":2270:2297  bytes(_tokenUri).length > 0 */\n      gt\n        /* \"contracts/nft.sol\":2266:2374  if (bytes(_tokenUri).length > 0) {\r... */\n      iszero\n      tag_202\n      jumpi\n        /* \"contracts/nft.sol\":2345:2349  base */\n      dup1\n        /* \"contracts/nft.sol\":2351:2360  _tokenUri */\n      dup3\n        /* \"contracts/nft.sol\":2328:2361  abi.encodePacked(base, _tokenUri) */\n      add(0x20, mload(0x40))\n      tag_203\n      swap3\n      swap2\n      swap1\n      tag_172\n      jump\t// in\n    tag_203:\n      mload(0x40)\n      0x20\n      dup2\n      dup4\n      sub\n      sub\n      dup2\n      mstore\n      swap1\n      0x40\n      mstore\n        /* \"contracts/nft.sol\":2314:2362  return string(abi.encodePacked(base, _tokenUri)) */\n      swap3\n      pop\n      pop\n      pop\n      jump(tag_190)\n        /* \"contracts/nft.sol\":2266:2374  if (bytes(_tokenUri).length > 0) {\r... */\n    tag_202:\n        /* \"contracts/nft.sol\":2393:2411  _tokenURI(tokenId) */\n      tag_204\n        /* \"contracts/nft.sol\":2403:2410  tokenId */\n      dup5\n        /* \"contracts/nft.sol\":2393:2402  _tokenURI */\n      tag_71\n        /* \"contracts/nft.sol\":2393:2411  _tokenURI(tokenId) */\n      jump\t// in\n    tag_204:\n        /* \"contracts/nft.sol\":2386:2411  return _tokenURI(tokenId) */\n      swap3\n      pop\n      pop\n      pop\n        /* \"contracts/nft.sol\":1894:2419  function tokenURI(uint256 tokenId) public view virtual override returns (string memory) {\r... */\n    tag_190:\n      swap2\n      swap1\n      pop\n      jump\t// out\n        /* \"contracts/nft.sol\":4967:5131  function isApprovedForAll(address owner, address operator) public view virtual override returns (bool) {\r... */\n    tag_91:\n        /* \"contracts/nft.sol\":5064:5068  bool */\n      0x00\n        /* \"contracts/nft.sol\":5088:5106  _operatorApprovals */\n      0x08\n        /* \"contracts/nft.sol\":5088:5113  _operatorApprovals[owner] */\n      0x00\n        /* \"contracts/nft.sol\":5107:5112  owner */\n      dup5\n        /* \"contracts/nft.sol\":5088:5113  _operatorApprovals[owner] */\n      0xffffffffffffffffffffffffffffffffffffffff\n      and\n      0xffffffffffffffffffffffffffffffffffffffff\n      and\n      dup2\n      mstore\n      0x20\n      add\n      swap1\n      dup2\n      mstore\n      0x20\n      add\n      0x00\n      keccak256\n        /* \"contracts/nft.sol\":5088:5123  _operatorApprovals[owner][operator] */\n      0x00\n        /* \"contracts/nft.sol\":5114:5122  operator */\n      dup4\n        /* \"contracts/nft.sol\":5088:5123  _operatorApprovals[owner][operator] */\n      0xffffffffffffffffffffffffffffffffffffffff\n      and\n      0xffffffffffffffffffffffffffffffffffffffff\n      and\n      dup2\n      mstore\n      0x20\n      add\n      swap1\n      dup2\n      mstore\n      0x20\n      add\n      0x00\n      keccak256\n      0x00\n      swap1\n      sload\n      swap1\n      0x0100\n      exp\n      swap1\n      div\n      0xff\n      and\n        /* \"contracts/nft.sol\":5081:5123  return _operatorApprovals[owner][operator] */\n      swap1\n      pop\n        /* \"contracts/nft.sol\":4967:5131  function isApprovedForAll(address owner, address operator) public view virtual override returns (bool) {\r... */\n      swap3\n      swap2\n      pop\n      pop\n      jump\t// out\n        /* \"contracts/nft.sol\":3306:3538  function collaboratotPercentageOf(uint256 tokenId) public view virtual returns (uint256[] memory) {\r... */\n    tag_95:\n        /* \"contracts/nft.sol\":3386:3402  uint256[] memory */\n      0x60\n        /* \"contracts/nft.sol\":3415:3454  uint256[] memory collaboratorPercentage */\n      0x00\n        /* \"contracts/nft.sol\":3457:3481  _collaboratorsPercentage */\n      0x05\n        /* \"contracts/nft.sol\":3457:3490  _collaboratorsPercentage[tokenId] */\n      0x00\n        /* \"contracts/nft.sol\":3482:3489  tokenId */\n      dup5\n        /* \"contracts/nft.sol\":3457:3490  _collaboratorsPercentage[tokenId] */\n      dup2\n      mstore\n      0x20\n      add\n      swap1\n      dup2\n      mstore\n      0x20\n      add\n      0x00\n      keccak256\n        /* \"contracts/nft.sol\":3415:3490  uint256[] memory collaboratorPercentage = _collaboratorsPercentage[tokenId] */\n      dup1\n      sload\n      dup1\n      0x20\n      mul\n      0x20\n      add\n      mload(0x40)\n      swap1\n      dup2\n      add\n      0x40\n      mstore\n      dup1\n      swap3\n      swap2\n      swap1\n      dup2\n      dup2\n      mstore\n      0x20\n      add\n      dup3\n      dup1\n      sload\n      dup1\n      iszero\n      tag_207\n      jumpi\n      0x20\n      mul\n      dup3\n      add\n      swap2\n      swap1\n      0x00\n      mstore\n      keccak256(0x00, 0x20)\n      swap1\n    tag_208:\n      dup2\n      sload\n      dup2\n      mstore\n      0x20\n      add\n      swap1\n      0x01\n      add\n      swap1\n      dup1\n      dup4\n      gt\n      tag_208\n      jumpi\n    tag_207:\n      pop\n      pop\n      pop\n      pop\n      pop\n      swap1\n      pop\n        /* \"contracts/nft.sol\":3508:3530  collaboratorPercentage */\n      dup1\n        /* \"contracts/nft.sol\":3501:3530  return collaboratorPercentage */\n      swap2\n      pop\n      pop\n        /* \"contracts/nft.sol\":3306:3538  function collaboratotPercentageOf(uint256 tokenId) public view virtual returns (uint256[] memory) {\r... */\n      swap2\n      swap1\n      pop\n      jump\t// out\n        /* \"@openzeppelin/contracts@4.6.0/utils/introspection/ERC165.sol\":829:984  function supportsInterface(bytes4 interfaceId) public view virtual override returns (bool) {... */\n    tag_102:\n        /* \"@openzeppelin/contracts@4.6.0/utils/introspection/ERC165.sol\":914:918  bool */\n      0x00\n        /* \"@openzeppelin/contracts@4.6.0/utils/introspection/ERC165.sol\":952:977  type(IERC165).interfaceId */\n      0x01ffc9a700000000000000000000000000000000000000000000000000000000\n        /* \"@openzeppelin/contracts@4.6.0/utils/introspection/ERC165.sol\":937:977  interfaceId == type(IERC165).interfaceId */\n      not(0xffffffffffffffffffffffffffffffffffffffffffffffffffffffff)\n      and\n        /* \"@openzeppelin/contracts@4.6.0/utils/introspection/ERC165.sol\":937:948  interfaceId */\n      dup3\n        /* \"@openzeppelin/contracts@4.6.0/utils/introspection/ERC165.sol\":937:977  interfaceId == type(IERC165).interfaceId */\n      not(0xffffffffffffffffffffffffffffffffffffffffffffffffffffffff)\n      and\n      eq\n        /* \"@openzeppelin/contracts@4.6.0/utils/introspection/ERC165.sol\":930:977  return interfaceId == type(IERC165).interfaceId */\n      swap1\n      pop\n        /* \"@openzeppelin/contracts@4.6.0/utils/introspection/ERC165.sol\":829:984  function supportsInterface(bytes4 interfaceId) public view virtual override returns (bool) {... */\n      swap2\n      swap1\n      pop\n      jump\t// out\n        /* \"contracts/nft.sol\":10168:10303  function _requireMinted(uint256 tokenId) internal view virtual {\r... */\n    tag_112:\n        /* \"contracts/nft.sol\":10250:10266  _exists(tokenId) */\n      tag_211\n        /* \"contracts/nft.sol\":10258:10265  tokenId */\n      dup2\n        /* \"contracts/nft.sol\":10250:10257  _exists */\n      tag_161\n        /* \"contracts/nft.sol\":10250:10266  _exists(tokenId) */\n      jump\t// in\n    tag_211:\n        /* \"contracts/nft.sol\":10242:10295  require(_exists(tokenId), \"ERC721: invalid token ID\") */\n      tag_212\n      jumpi\n      mload(0x40)\n      0x08c379a000000000000000000000000000000000000000000000000000000000\n      dup2\n      mstore\n      0x04\n      add\n      tag_213\n      swap1\n      tag_154\n      jump\t// in\n    tag_213:\n      mload(0x40)\n      dup1\n      swap2\n      sub\n      swap1\n      revert\n    tag_212:\n        /* \"contracts/nft.sol\":10168:10303  function _requireMinted(uint256 tokenId) internal view virtual {\r... */\n      pop\n      jump\t// out\n        /* \"@openzeppelin/contracts@4.6.0/utils/Context.sol\":640:736  function _msgSender() internal view virtual returns (address) {... */\n    tag_119:\n        /* \"@openzeppelin/contracts@4.6.0/utils/Context.sol\":693:700  address */\n      0x00\n        /* \"@openzeppelin/contracts@4.6.0/utils/Context.sol\":719:729  msg.sender */\n      caller\n        /* \"@openzeppelin/contracts@4.6.0/utils/Context.sol\":712:729  return msg.sender */\n      swap1\n      pop\n        /* \"@openzeppelin/contracts@4.6.0/utils/Context.sol\":640:736  function _msgSender() internal view virtual returns (address) {... */\n      swap1\n      jump\t// out\n        /* \"contracts/nft.sol\":9666:9837  function _approve(address to, uint256 tokenId) internal virtual {\r... */\n    tag_127:\n        /* \"contracts/nft.sol\":9768:9770  to */\n      dup2\n        /* \"contracts/nft.sol\":9741:9756  _tokenApprovals */\n      0x07\n        /* \"contracts/nft.sol\":9741:9765  _tokenApprovals[tokenId] */\n      0x00\n        /* \"contracts/nft.sol\":9757:9764  tokenId */\n      dup4\n        /* \"contracts/nft.sol\":9741:9765  _tokenApprovals[tokenId] */\n      dup2\n      mstore\n      0x20\n      add\n      swap1\n      dup2\n      mstore\n      0x20\n      add\n      0x00\n      keccak256\n      0x00\n        /* \"contracts/nft.sol\":9741:9770  _tokenApprovals[tokenId] = to */\n      0x0100\n      exp\n      dup2\n      sload\n      dup2\n      0xffffffffffffffffffffffffffffffffffffffff\n      mul\n      not\n      and\n      swap1\n      dup4\n      0xffffffffffffffffffffffffffffffffffffffff\n      and\n      mul\n      or\n      swap1\n      sstore\n      pop\n        /* \"contracts/nft.sol\":9821:9828  tokenId */\n      dup1\n        /* \"contracts/nft.sol\":9817:9819  to */\n      dup3\n        /* \"contracts/nft.sol\":9786:9829  Approval(nft.ownerOf(tokenId), to, tokenId) */\n      0xffffffffffffffffffffffffffffffffffffffff\n      and\n        /* \"contracts/nft.sol\":9795:9815  nft.ownerOf(tokenId) */\n      tag_216\n        /* \"contracts/nft.sol\":9807:9814  tokenId */\n      dup4\n        /* \"contracts/nft.sol\":9795:9806  nft.ownerOf */\n      tag_61\n        /* \"contracts/nft.sol\":9795:9815  nft.ownerOf(tokenId) */\n      jump\t// in\n    tag_216:\n        /* \"contracts/nft.sol\":9786:9829  Approval(nft.ownerOf(tokenId), to, tokenId) */\n      0xffffffffffffffffffffffffffffffffffffffff\n      and\n      0x8c5be1e5ebec7d5bd14f71427d1e84f3dd0314c0f7b2291e5b200ac8c7c3b925\n      mload(0x40)\n      mload(0x40)\n      dup1\n      swap2\n      sub\n      swap1\n      log4\n        /* \"contracts/nft.sol\":9666:9837  function _approve(address to, uint256 tokenId) internal virtual {\r... */\n      pop\n      pop\n      jump\t// out\n        /* \"contracts/nft.sol\":6744:7005  function _isApprovedOrOwner(address spender, uint256 tokenId) internal view virtual returns (bool) {\r... */\n    tag_131:\n        /* \"contracts/nft.sol\":6837:6841  bool */\n      0x00\n        /* \"contracts/nft.sol\":6854:6867  address owner */\n      dup1\n        /* \"contracts/nft.sol\":6870:6890  nft.ownerOf(tokenId) */\n      tag_218\n        /* \"contracts/nft.sol\":6882:6889  tokenId */\n      dup4\n        /* \"contracts/nft.sol\":6870:6881  nft.ownerOf */\n      tag_61\n        /* \"contracts/nft.sol\":6870:6890  nft.ownerOf(tokenId) */\n      jump\t// in\n    tag_218:\n        /* \"contracts/nft.sol\":6854:6890  address owner = nft.ownerOf(tokenId) */\n      swap1\n      pop\n        /* \"contracts/nft.sol\":6920:6925  owner */\n      dup1\n        /* \"contracts/nft.sol\":6909:6925  spender == owner */\n      0xffffffffffffffffffffffffffffffffffffffff\n      and\n        /* \"contracts/nft.sol\":6909:6916  spender */\n      dup5\n        /* \"contracts/nft.sol\":6909:6925  spender == owner */\n      0xffffffffffffffffffffffffffffffffffffffff\n      and\n      eq\n        /* \"contracts/nft.sol\":6909:6961  spender == owner || isApprovedForAll(owner, spender) */\n      dup1\n      tag_219\n      jumpi\n      pop\n        /* \"contracts/nft.sol\":6929:6961  isApprovedForAll(owner, spender) */\n      tag_220\n        /* \"contracts/nft.sol\":6946:6951  owner */\n      dup2\n        /* \"contracts/nft.sol\":6953:6960  spender */\n      dup6\n        /* \"contracts/nft.sol\":6929:6945  isApprovedForAll */\n      tag_91\n        /* \"contracts/nft.sol\":6929:6961  isApprovedForAll(owner, spender) */\n      jump\t// in\n    tag_220:\n        /* \"contracts/nft.sol\":6909:6961  spender == owner || isApprovedForAll(owner, spender) */\n    tag_219:\n        /* \"contracts/nft.sol\":6909:6996  spender == owner || isApprovedForAll(owner, spender) || getApproved(tokenId) == spender */\n      dup1\n      tag_221\n      jumpi\n      pop\n        /* \"contracts/nft.sol\":6989:6996  spender */\n      dup4\n        /* \"contracts/nft.sol\":6965:6996  getApproved(tokenId) == spender */\n      0xffffffffffffffffffffffffffffffffffffffff\n      and\n        /* \"contracts/nft.sol\":6965:6985  getApproved(tokenId) */\n      tag_222\n        /* \"contracts/nft.sol\":6977:6984  tokenId */\n      dup5\n        /* \"contracts/nft.sol\":6965:6976  getApproved */\n      tag_36\n        /* \"contracts/nft.sol\":6965:6985  getApproved(tokenId) */\n      jump\t// in\n    tag_222:\n        /* \"contracts/nft.sol\":6965:6996  getApproved(tokenId) == spender */\n      0xffffffffffffffffffffffffffffffffffffffff\n      and\n      eq\n        /* \"contracts/nft.sol\":6909:6996  spender == owner || isApprovedForAll(owner, spender) || getApproved(tokenId) == spender */\n    tag_221:\n        /* \"contracts/nft.sol\":6901:6997  return (spender == owner || isApprovedForAll(owner, spender) || getApproved(tokenId) == spender) */\n      swap2\n      pop\n      pop\n        /* \"contracts/nft.sol\":6744:7005  function _isApprovedOrOwner(address spender, uint256 tokenId) internal view virtual returns (bool) {\r... */\n      swap3\n      swap2\n      pop\n      pop\n      jump\t// out\n        /* \"contracts/nft.sol\":8899:9656  function _transfer(\r... */\n    tag_136:\n        /* \"contracts/nft.sol\":9055:9059  from */\n      dup3\n        /* \"contracts/nft.sol\":9031:9059  nft.ownerOf(tokenId) == from */\n      0xffffffffffffffffffffffffffffffffffffffff\n      and\n        /* \"contracts/nft.sol\":9031:9051  nft.ownerOf(tokenId) */\n      tag_224\n        /* \"contracts/nft.sol\":9043:9050  tokenId */\n      dup3\n        /* \"contracts/nft.sol\":9031:9042  nft.ownerOf */\n      tag_61\n        /* \"contracts/nft.sol\":9031:9051  nft.ownerOf(tokenId) */\n      jump\t// in\n    tag_224:\n        /* \"contracts/nft.sol\":9031:9059  nft.ownerOf(tokenId) == from */\n      0xffffffffffffffffffffffffffffffffffffffff\n      and\n      eq\n        /* \"contracts/nft.sol\":9023:9101  require(nft.ownerOf(tokenId) == from, \"ERC721: transfer from incorrect owner\") */\n      tag_225\n      jumpi\n      mload(0x40)\n      0x08c379a000000000000000000000000000000000000000000000000000000000\n      dup2\n      mstore\n      0x04\n      add\n      tag_226\n      swap1\n      tag_227\n      jump\t// in\n    tag_226:\n      mload(0x40)\n      dup1\n      swap2\n      sub\n      swap1\n      revert\n    tag_225:\n        /* \"contracts/nft.sol\":9134:9135  0 */\n      0x00\n        /* \"contracts/nft.sol\":9120:9136  to != address(0) */\n      0xffffffffffffffffffffffffffffffffffffffff\n      and\n        /* \"contracts/nft.sol\":9120:9122  to */\n      dup3\n        /* \"contracts/nft.sol\":9120:9136  to != address(0) */\n      0xffffffffffffffffffffffffffffffffffffffff\n      and\n      eq\n      iszero\n        /* \"contracts/nft.sol\":9112:9177  require(to != address(0), \"ERC721: transfer to the zero address\") */\n      tag_228\n      jumpi\n      mload(0x40)\n      0x08c379a000000000000000000000000000000000000000000000000000000000\n      dup2\n      mstore\n      0x04\n      add\n      tag_229\n      swap1\n      tag_230\n      jump\t// in\n    tag_229:\n      mload(0x40)\n      dup1\n      swap2\n      sub\n      swap1\n      revert\n    tag_228:\n        /* \"contracts/nft.sol\":9190:9229  _beforeTokenTransfer(from, to, tokenId) */\n      tag_231\n        /* \"contracts/nft.sol\":9211:9215  from */\n      dup4\n        /* \"contracts/nft.sol\":9217:9219  to */\n      dup4\n        /* \"contracts/nft.sol\":9221:9228  tokenId */\n      dup4\n        /* \"contracts/nft.sol\":9190:9210  _beforeTokenTransfer */\n      tag_232\n        /* \"contracts/nft.sol\":9190:9229  _beforeTokenTransfer(from, to, tokenId) */\n      jump\t// in\n    tag_231:\n        /* \"contracts/nft.sol\":9274:9278  from */\n      dup3\n        /* \"contracts/nft.sol\":9250:9278  nft.ownerOf(tokenId) == from */\n      0xffffffffffffffffffffffffffffffffffffffff\n      and\n        /* \"contracts/nft.sol\":9250:9270  nft.ownerOf(tokenId) */\n      tag_233\n        /* \"contracts/nft.sol\":9262:9269  tokenId */\n      dup3\n        /* \"contracts/nft.sol\":9250:9261  nft.ownerOf */\n      tag_61\n        /* \"contracts/nft.sol\":9250:9270  nft.ownerOf(tokenId) */\n      jump\t// in\n    tag_233:\n        /* \"contracts/nft.sol\":9250:9278  nft.ownerOf(tokenId) == from */\n      0xffffffffffffffffffffffffffffffffffffffff\n      and\n      eq\n        /* \"contracts/nft.sol\":9242:9320  require(nft.ownerOf(tokenId) == from, \"ERC721: transfer from incorrect owner\") */\n      tag_234\n      jumpi\n      mload(0x40)\n      0x08c379a000000000000000000000000000000000000000000000000000000000\n      dup2\n      mstore\n      0x04\n      add\n      tag_235\n      swap1\n      tag_227\n      jump\t// in\n    tag_235:\n      mload(0x40)\n      dup1\n      swap2\n      sub\n      swap1\n      revert\n    tag_234:\n        /* \"contracts/nft.sol\":9392:9407  _tokenApprovals */\n      0x07\n        /* \"contracts/nft.sol\":9392:9416  _tokenApprovals[tokenId] */\n      0x00\n        /* \"contracts/nft.sol\":9408:9415  tokenId */\n      dup3\n        /* \"contracts/nft.sol\":9392:9416  _tokenApprovals[tokenId] */\n      dup2\n      mstore\n      0x20\n      add\n      swap1\n      dup2\n      mstore\n      0x20\n      add\n      0x00\n      keccak256\n      0x00\n        /* \"contracts/nft.sol\":9385:9416  delete _tokenApprovals[tokenId] */\n      0x0100\n      exp\n      dup2\n      sload\n      swap1\n      0xffffffffffffffffffffffffffffffffffffffff\n      mul\n      not\n      and\n      swap1\n      sstore\n        /* \"contracts/nft.sol\":9475:9476  1 */\n      0x01\n        /* \"contracts/nft.sol\":9456:9465  _balances */\n      0x06\n        /* \"contracts/nft.sol\":9456:9471  _balances[from] */\n      0x00\n        /* \"contracts/nft.sol\":9466:9470  from */\n      dup6\n        /* \"contracts/nft.sol\":9456:9471  _balances[from] */\n      0xffffffffffffffffffffffffffffffffffffffff\n      and\n      0xffffffffffffffffffffffffffffffffffffffff\n      and\n      dup2\n      mstore\n      0x20\n      add\n      swap1\n      dup2\n      mstore\n      0x20\n      add\n      0x00\n      keccak256\n      0x00\n        /* \"contracts/nft.sol\":9456:9476  _balances[from] -= 1 */\n      dup3\n      dup3\n      sload\n      sub\n      swap3\n      pop\n      pop\n      dup2\n      swap1\n      sstore\n      pop\n        /* \"contracts/nft.sol\":9508:9509  1 */\n      0x01\n        /* \"contracts/nft.sol\":9491:9500  _balances */\n      0x06\n        /* \"contracts/nft.sol\":9491:9504  _balances[to] */\n      0x00\n        /* \"contracts/nft.sol\":9501:9503  to */\n      dup5\n        /* \"contracts/nft.sol\":9491:9504  _balances[to] */\n      0xffffffffffffffffffffffffffffffffffffffff\n      and\n      0xffffffffffffffffffffffffffffffffffffffff\n      and\n      dup2\n      mstore\n      0x20\n      add\n      swap1\n      dup2\n      mstore\n      0x20\n      add\n      0x00\n      keccak256\n      0x00\n        /* \"contracts/nft.sol\":9491:9509  _balances[to] += 1 */\n      dup3\n      dup3\n      sload\n      add\n      swap3\n      pop\n      pop\n      dup2\n      swap1\n      sstore\n      pop\n        /* \"contracts/nft.sol\":9550:9552  to */\n      dup2\n        /* \"contracts/nft.sol\":9531:9538  _owners */\n      0x03\n        /* \"contracts/nft.sol\":9531:9547  _owners[tokenId] */\n      0x00\n        /* \"contracts/nft.sol\":9539:9546  tokenId */\n      dup4\n        /* \"contracts/nft.sol\":9531:9547  _owners[tokenId] */\n      dup2\n      mstore\n      0x20\n      add\n      swap1\n      dup2\n      mstore\n      0x20\n      add\n      0x00\n      keccak256\n      0x00\n        /* \"contracts/nft.sol\":9531:9552  _owners[tokenId] = to */\n      0x0100\n      exp\n      dup2\n      sload\n      dup2\n      0xffffffffffffffffffffffffffffffffffffffff\n      mul\n      not\n      and\n      swap1\n      dup4\n      0xffffffffffffffffffffffffffffffffffffffff\n      and\n      mul\n      or\n      swap1\n      sstore\n      pop\n        /* \"contracts/nft.sol\":9589:9596  tokenId */\n      dup1\n        /* \"contracts/nft.sol\":9585:9587  to */\n      dup3\n        /* \"contracts/nft.sol\":9570:9597  Transfer(from, to, tokenId) */\n      0xffffffffffffffffffffffffffffffffffffffff\n      and\n        /* \"contracts/nft.sol\":9579:9583  from */\n      dup5\n        /* \"contracts/nft.sol\":9570:9597  Transfer(from, to, tokenId) */\n      0xffffffffffffffffffffffffffffffffffffffff\n      and\n      0xddf252ad1be2c89b69c2b068fc378daa952ba7f163c4a11628f55a4df523b3ef\n      mload(0x40)\n      mload(0x40)\n      dup1\n      swap2\n      sub\n      swap1\n      log4\n        /* \"contracts/nft.sol\":9610:9648  _afterTokenTransfer(from, to, tokenId) */\n      tag_236\n        /* \"contracts/nft.sol\":9630:9634  from */\n      dup4\n        /* \"contracts/nft.sol\":9636:9638  to */\n      dup4\n        /* \"contracts/nft.sol\":9640:9647  tokenId */\n      dup4\n        /* \"contracts/nft.sol\":9610:9629  _afterTokenTransfer */\n      tag_237\n        /* \"contracts/nft.sol\":9610:9648  _afterTokenTransfer(from, to, tokenId) */\n      jump\t// in\n    tag_236:\n        /* \"contracts/nft.sol\":8899:9656  function _transfer(\r... */\n      pop\n      pop\n      pop\n      jump\t// out\n        /* \"@openzeppelin/contracts@4.6.0/utils/Counters.sol\":945:1068  function increment(Counter storage counter) internal {... */\n    tag_139:\n        /* \"@openzeppelin/contracts@4.6.0/utils/Counters.sol\":1050:1051  1 */\n      0x01\n        /* \"@openzeppelin/contracts@4.6.0/utils/Counters.sol\":1032:1039  counter */\n      dup2\n        /* \"@openzeppelin/contracts@4.6.0/utils/Counters.sol\":1032:1046  counter._value */\n      0x00\n      add\n      0x00\n        /* \"@openzeppelin/contracts@4.6.0/utils/Counters.sol\":1032:1051  counter._value += 1 */\n      dup3\n      dup3\n      sload\n      add\n      swap3\n      pop\n      pop\n      dup2\n      swap1\n      sstore\n      pop\n        /* \"@openzeppelin/contracts@4.6.0/utils/Counters.sol\":945:1068  function increment(Counter storage counter) internal {... */\n      pop\n      jump\t// out\n        /* \"@openzeppelin/contracts@4.6.0/utils/Counters.sol\":827:939  function current(Counter storage counter) internal view returns (uint256) {... */\n    tag_141:\n        /* \"@openzeppelin/contracts@4.6.0/utils/Counters.sol\":892:899  uint256 */\n      0x00\n        /* \"@openzeppelin/contracts@4.6.0/utils/Counters.sol\":918:925  counter */\n      dup2\n        /* \"@openzeppelin/contracts@4.6.0/utils/Counters.sol\":918:932  counter._value */\n      0x00\n      add\n      sload\n        /* \"@openzeppelin/contracts@4.6.0/utils/Counters.sol\":911:932  return counter._value */\n      swap1\n      pop\n        /* \"@openzeppelin/contracts@4.6.0/utils/Counters.sol\":827:939  function current(Counter storage counter) internal view returns (uint256) {... */\n      swap2\n      swap1\n      pop\n      jump\t// out\n        /* \"contracts/nft.sol\":7013:7222  function _safeMint(address to,address[] memory collaborator,uint256[] memory collaboratorPercent,uint256 tokenId) internal virtual {\r... */\n    tag_143:\n        /* \"contracts/nft.sol\":7155:7214  _safeMint(to, collaborator,collaboratorPercent,tokenId, \"\") */\n      tag_241\n        /* \"contracts/nft.sol\":7165:7167  to */\n      dup5\n        /* \"contracts/nft.sol\":7169:7181  collaborator */\n      dup5\n        /* \"contracts/nft.sol\":7182:7201  collaboratorPercent */\n      dup5\n        /* \"contracts/nft.sol\":7202:7209  tokenId */\n      dup5\n        /* \"contracts/nft.sol\":7155:7214  _safeMint(to, collaborator,collaboratorPercent,tokenId, \"\") */\n      mload(0x40)\n      dup1\n      0x20\n      add\n      0x40\n      mstore\n      dup1\n      0x00\n      dup2\n      mstore\n      pop\n        /* \"contracts/nft.sol\":7155:7164  _safeMint */\n      tag_242\n        /* \"contracts/nft.sol\":7155:7214  _safeMint(to, collaborator,collaboratorPercent,tokenId, \"\") */\n      jump\t// in\n    tag_241:\n        /* \"contracts/nft.sol\":7013:7222  function _safeMint(address to,address[] memory collaborator,uint256[] memory collaboratorPercent,uint256 tokenId) internal virtual {\r... */\n      pop\n      pop\n      pop\n      pop\n      jump\t// out\n        /* \"contracts/nft.sol\":2429:2646  function _setTokenURI(uint256 tokenId, string memory _tokenUri) internal virtual {\r... */\n    tag_145:\n        /* \"contracts/nft.sol\":2529:2545  _exists(tokenId) */\n      tag_244\n        /* \"contracts/nft.sol\":2537:2544  tokenId */\n      dup3\n        /* \"contracts/nft.sol\":2529:2536  _exists */\n      tag_161\n        /* \"contracts/nft.sol\":2529:2545  _exists(tokenId) */\n      jump\t// in\n    tag_244:\n        /* \"contracts/nft.sol\":2521:2596  require(_exists(tokenId), \"ERC721URIStorage: URI set of nonexistent token\") */\n      tag_245\n      jumpi\n      mload(0x40)\n      0x08c379a000000000000000000000000000000000000000000000000000000000\n      dup2\n      mstore\n      0x04\n      add\n      tag_246\n      swap1\n      tag_247\n      jump\t// in\n    tag_246:\n      mload(0x40)\n      dup1\n      swap2\n      sub\n      swap1\n      revert\n    tag_245:\n        /* \"contracts/nft.sol\":2629:2638  _tokenUri */\n      dup1\n        /* \"contracts/nft.sol\":2607:2617  _tokenURIs */\n      0x09\n        /* \"contracts/nft.sol\":2607:2626  _tokenURIs[tokenId] */\n      0x00\n        /* \"contracts/nft.sol\":2618:2625  tokenId */\n      dup5\n        /* \"contracts/nft.sol\":2607:2626  _tokenURIs[tokenId] */\n      dup2\n      mstore\n      0x20\n      add\n      swap1\n      dup2\n      mstore\n      0x20\n      add\n      0x00\n      keccak256\n        /* \"contracts/nft.sol\":2607:2638  _tokenURIs[tokenId] = _tokenUri */\n      swap1\n      dup1\n      mload\n      swap1\n      0x20\n      add\n      swap1\n      tag_248\n      swap3\n      swap2\n      swap1\n      tag_249\n      jump\t// in\n    tag_248:\n      pop\n        /* \"contracts/nft.sol\":2429:2646  function _setTokenURI(uint256 tokenId, string memory _tokenUri) internal virtual {\r... */\n      pop\n      pop\n      jump\t// out\n        /* \"contracts/nft.sol\":6607:6734  function _exists(uint256 tokenId) internal view virtual returns (bool) {\r... */\n    tag_161:\n        /* \"contracts/nft.sol\":6672:6676  bool */\n      0x00\n        /* \"contracts/nft.sol\":6724:6725  0 */\n      dup1\n        /* \"contracts/nft.sol\":6696:6726  _owners[tokenId] != address(0) */\n      0xffffffffffffffffffffffffffffffffffffffff\n      and\n        /* \"contracts/nft.sol\":6696:6703  _owners */\n      0x03\n        /* \"contracts/nft.sol\":6696:6712  _owners[tokenId] */\n      0x00\n        /* \"contracts/nft.sol\":6704:6711  tokenId */\n      dup5\n        /* \"contracts/nft.sol\":6696:6712  _owners[tokenId] */\n      dup2\n      mstore\n      0x20\n      add\n      swap1\n      dup2\n      mstore\n      0x20\n      add\n      0x00\n      keccak256\n      0x00\n      swap1\n      sload\n      swap1\n      0x0100\n      exp\n      swap1\n      div\n      0xffffffffffffffffffffffffffffffffffffffff\n      and\n        /* \"contracts/nft.sol\":6696:6726  _owners[tokenId] != address(0) */\n      0xffffffffffffffffffffffffffffffffffffffff\n      and\n      eq\n      iszero\n        /* \"contracts/nft.sol\":6689:6726  return _owners[tokenId] != address(0) */\n      swap1\n      pop\n        /* \"contracts/nft.sol\":6607:6734  function _exists(uint256 tokenId) internal view virtual returns (bool) {\r... */\n      swap2\n      swap1\n      pop\n      jump\t// out\n        /* \"contracts/nft.sol\":4093:4187  function _baseURI() internal view virtual returns (string memory) {\r... */\n    tag_166:\n        /* \"contracts/nft.sol\":4144:4157  string memory */\n      0x60\n        /* \"contracts/nft.sol\":4170:4179  return \"\" */\n      mload(0x40)\n      dup1\n      0x20\n      add\n      0x40\n      mstore\n      dup1\n      0x00\n      dup2\n      mstore\n      pop\n      swap1\n      pop\n        /* \"contracts/nft.sol\":4093:4187  function _baseURI() internal view virtual returns (string memory) {\r... */\n      swap1\n      jump\t// out\n        /* \"@openzeppelin/contracts@4.6.0/utils/Strings.sol\":328:1031  function toString(uint256 value) internal pure returns (string memory) {... */\n    tag_170:\n        /* \"@openzeppelin/contracts@4.6.0/utils/Strings.sol\":384:397  string memory */\n      0x60\n        /* \"@openzeppelin/contracts@4.6.0/utils/Strings.sol\":610:611  0 */\n      0x00\n        /* \"@openzeppelin/contracts@4.6.0/utils/Strings.sol\":601:606  value */\n      dup3\n        /* \"@openzeppelin/contracts@4.6.0/utils/Strings.sol\":601:611  value == 0 */\n      eq\n        /* \"@openzeppelin/contracts@4.6.0/utils/Strings.sol\":597:648  if (value == 0) {... */\n      iszero\n      tag_253\n      jumpi\n        /* \"@openzeppelin/contracts@4.6.0/utils/Strings.sol\":627:637  return \"0\" */\n      mload(0x40)\n      dup1\n      0x40\n      add\n      0x40\n      mstore\n      dup1\n      0x01\n      dup2\n      mstore\n      0x20\n      add\n      0x3000000000000000000000000000000000000000000000000000000000000000\n      dup2\n      mstore\n      pop\n      swap1\n      pop\n      jump(tag_252)\n        /* \"@openzeppelin/contracts@4.6.0/utils/Strings.sol\":597:648  if (value == 0) {... */\n    tag_253:\n        /* \"@openzeppelin/contracts@4.6.0/utils/Strings.sol\":657:669  uint256 temp */\n      0x00\n        /* \"@openzeppelin/contracts@4.6.0/utils/Strings.sol\":672:677  value */\n      dup3\n        /* \"@openzeppelin/contracts@4.6.0/utils/Strings.sol\":657:677  uint256 temp = value */\n      swap1\n      pop\n        /* \"@openzeppelin/contracts@4.6.0/utils/Strings.sol\":687:701  uint256 digits */\n      0x00\n        /* \"@openzeppelin/contracts@4.6.0/utils/Strings.sol\":711:786  while (temp != 0) {... */\n    tag_254:\n        /* \"@openzeppelin/contracts@4.6.0/utils/Strings.sol\":726:727  0 */\n      0x00\n        /* \"@openzeppelin/contracts@4.6.0/utils/Strings.sol\":718:722  temp */\n      dup3\n        /* \"@openzeppelin/contracts@4.6.0/utils/Strings.sol\":718:727  temp != 0 */\n      eq\n        /* \"@openzeppelin/contracts@4.6.0/utils/Strings.sol\":711:786  while (temp != 0) {... */\n      tag_255\n      jumpi\n        /* \"@openzeppelin/contracts@4.6.0/utils/Strings.sol\":743:751  digits++ */\n      dup1\n      dup1\n      tag_256\n      swap1\n      tag_257\n      jump\t// in\n    tag_256:\n      swap2\n      pop\n      pop\n        /* \"@openzeppelin/contracts@4.6.0/utils/Strings.sol\":773:775  10 */\n      0x0a\n        /* \"@openzeppelin/contracts@4.6.0/utils/Strings.sol\":765:775  temp /= 10 */\n      dup3\n      tag_258\n      swap2\n      swap1\n      tag_259\n      jump\t// in\n    tag_258:\n      swap2\n      pop\n        /* \"@openzeppelin/contracts@4.6.0/utils/Strings.sol\":711:786  while (temp != 0) {... */\n      jump(tag_254)\n    tag_255:\n        /* \"@openzeppelin/contracts@4.6.0/utils/Strings.sol\":795:814  bytes memory buffer */\n      0x00\n        /* \"@openzeppelin/contracts@4.6.0/utils/Strings.sol\":827:833  digits */\n      dup2\n        /* \"@openzeppelin/contracts@4.6.0/utils/Strings.sol\":817:834  new bytes(digits) */\n      0xffffffffffffffff\n      dup2\n      gt\n      iszero\n      tag_260\n      jumpi\n      mstore(0x00, 0x4e487b7100000000000000000000000000000000000000000000000000000000)\n      mstore(0x04, 0x41)\n      revert(0x00, 0x24)\n    tag_260:\n      mload(0x40)\n      swap1\n      dup1\n      dup3\n      mstore\n      dup1\n      0x1f\n      add\n      not(0x1f)\n      and\n      0x20\n      add\n      dup3\n      add\n      0x40\n      mstore\n      dup1\n      iszero\n      tag_261\n      jumpi\n      dup2\n      0x20\n      add\n      0x01\n      dup3\n      mul\n      dup1\n      calldatasize\n      dup4\n      calldatacopy\n      dup1\n      dup3\n      add\n      swap2\n      pop\n      pop\n      swap1\n      pop\n    tag_261:\n      pop\n        /* \"@openzeppelin/contracts@4.6.0/utils/Strings.sol\":795:834  bytes memory buffer = new bytes(digits) */\n      swap1\n      pop\n        /* \"@openzeppelin/contracts@4.6.0/utils/Strings.sol\":844:994  while (value != 0) {... */\n    tag_262:\n        /* \"@openzeppelin/contracts@4.6.0/utils/Strings.sol\":860:861  0 */\n      0x00\n        /* \"@openzeppelin/contracts@4.6.0/utils/Strings.sol\":851:856  value */\n      dup6\n        /* \"@openzeppelin/contracts@4.6.0/utils/Strings.sol\":851:861  value != 0 */\n      eq\n        /* \"@openzeppelin/contracts@4.6.0/utils/Strings.sol\":844:994  while (value != 0) {... */\n      tag_263\n      jumpi\n        /* \"@openzeppelin/contracts@4.6.0/utils/Strings.sol\":887:888  1 */\n      0x01\n        /* \"@openzeppelin/contracts@4.6.0/utils/Strings.sol\":877:888  digits -= 1 */\n      dup3\n      tag_264\n      swap2\n      swap1\n      tag_265\n      jump\t// in\n    tag_264:\n      swap2\n      pop\n        /* \"@openzeppelin/contracts@4.6.0/utils/Strings.sol\":953:955  10 */\n      0x0a\n        /* \"@openzeppelin/contracts@4.6.0/utils/Strings.sol\":945:950  value */\n      dup6\n        /* \"@openzeppelin/contracts@4.6.0/utils/Strings.sol\":945:955  value % 10 */\n      tag_266\n      swap2\n      swap1\n      tag_267\n      jump\t// in\n    tag_266:\n        /* \"@openzeppelin/contracts@4.6.0/utils/Strings.sol\":932:934  48 */\n      0x30\n        /* \"@openzeppelin/contracts@4.6.0/utils/Strings.sol\":932:956  48 + uint256(value % 10) */\n      tag_268\n      swap2\n      swap1\n      tag_269\n      jump\t// in\n    tag_268:\n        /* \"@openzeppelin/contracts@4.6.0/utils/Strings.sol\":919:958  bytes1(uint8(48 + uint256(value % 10))) */\n      0xf8\n      shl\n        /* \"@openzeppelin/contracts@4.6.0/utils/Strings.sol\":902:908  buffer */\n      dup2\n        /* \"@openzeppelin/contracts@4.6.0/utils/Strings.sol\":909:915  digits */\n      dup4\n        /* \"@openzeppelin/contracts@4.6.0/utils/Strings.sol\":902:916  buffer[digits] */\n      dup2\n      mload\n      dup2\n      lt\n      tag_270\n      jumpi\n      mstore(0x00, 0x4e487b7100000000000000000000000000000000000000000000000000000000)\n      mstore(0x04, 0x32)\n      revert(0x00, 0x24)\n    tag_270:\n      0x20\n      add\n      add\n        /* \"@openzeppelin/contracts@4.6.0/utils/Strings.sol\":902:958  buffer[digits] = bytes1(uint8(48 + uint256(value % 10))) */\n      swap1\n      not(0xffffffffffffffffffffffffffffffffffffffffffffffffffffffffffffff)\n      and\n      swap1\n      dup2\n      0x00\n      byte\n      swap1\n      mstore8\n      pop\n        /* \"@openzeppelin/contracts@4.6.0/utils/Strings.sol\":981:983  10 */\n      0x0a\n        /* \"@openzeppelin/contracts@4.6.0/utils/Strings.sol\":972:983  value /= 10 */\n      dup6\n      tag_271\n      swap2\n      swap1\n      tag_259\n      jump\t// in\n    tag_271:\n      swap5\n      pop\n        /* \"@openzeppelin/contracts@4.6.0/utils/Strings.sol\":844:994  while (value != 0) {... */\n      jump(tag_262)\n    tag_263:\n        /* \"@openzeppelin/contracts@4.6.0/utils/Strings.sol\":1017:1023  buffer */\n      dup1\n        /* \"@openzeppelin/contracts@4.6.0/utils/Strings.sol\":1003:1024  return string(buffer) */\n      swap4\n      pop\n      pop\n      pop\n      pop\n        /* \"@openzeppelin/contracts@4.6.0/utils/Strings.sol\":328:1031  function toString(uint256 value) internal pure returns (string memory) {... */\n    tag_252:\n      swap2\n      swap1\n      pop\n      jump\t// out\n        /* \"contracts/nft.sol\":9845:10160  function _setApprovalForAll(\r... */\n    tag_182:\n        /* \"contracts/nft.sol\":10000:10008  operator */\n      dup2\n        /* \"contracts/nft.sol\":9991:10008  owner != operator */\n      0xffffffffffffffffffffffffffffffffffffffff\n      and\n        /* \"contracts/nft.sol\":9991:9996  owner */\n      dup4\n        /* \"contracts/nft.sol\":9991:10008  owner != operator */\n      0xffffffffffffffffffffffffffffffffffffffff\n      and\n      eq\n      iszero\n        /* \"contracts/nft.sol\":9983:10038  require(owner != operator, \"ERC721: approve to caller\") */\n      tag_273\n      jumpi\n      mload(0x40)\n      0x08c379a000000000000000000000000000000000000000000000000000000000\n      dup2\n      mstore\n      0x04\n      add\n      tag_274\n      swap1\n      tag_275\n      jump\t// in\n    tag_274:\n      mload(0x40)\n      dup1\n      swap2\n      sub\n      swap1\n      revert\n    tag_273:\n        /* \"contracts/nft.sol\":10087:10095  approved */\n      dup1\n        /* \"contracts/nft.sol\":10049:10067  _operatorApprovals */\n      0x08\n        /* \"contracts/nft.sol\":10049:10074  _operatorApprovals[owner] */\n      0x00\n        /* \"contracts/nft.sol\":10068:10073  owner */\n      dup6\n        /* \"contracts/nft.sol\":10049:10074  _operatorApprovals[owner] */\n      0xffffffffffffffffffffffffffffffffffffffff\n      and\n      0xffffffffffffffffffffffffffffffffffffffff\n      and\n      dup2\n      mstore\n      0x20\n      add\n      swap1\n      dup2\n      mstore\n      0x20\n      add\n      0x00\n      keccak256\n        /* \"contracts/nft.sol\":10049:10084  _operatorApprovals[owner][operator] */\n      0x00\n        /* \"contracts/nft.sol\":10075:10083  operator */\n      dup5\n        /* \"contracts/nft.sol\":10049:10084  _operatorApprovals[owner][operator] */\n      0xffffffffffffffffffffffffffffffffffffffff\n      and\n      0xffffffffffffffffffffffffffffffffffffffff\n      and\n      dup2\n      mstore\n      0x20\n      add\n      swap1\n      dup2\n      mstore\n      0x20\n      add\n      0x00\n      keccak256\n      0x00\n        /* \"contracts/nft.sol\":10049:10095  _operatorApprovals[owner][operator] = approved */\n      0x0100\n      exp\n      dup2\n      sload\n      dup2\n      0xff\n      mul\n      not\n      and\n      swap1\n      dup4\n      iszero\n      iszero\n      mul\n      or\n      swap1\n      sstore\n      pop\n        /* \"contracts/nft.sol\":10133:10141  operator */\n      dup2\n        /* \"contracts/nft.sol\":10111:10152  ApprovalForAll(owner, operator, approved) */\n      0xffffffffffffffffffffffffffffffffffffffff\n      and\n        /* \"contracts/nft.sol\":10126:10131  owner */\n      dup4\n        /* \"contracts/nft.sol\":10111:10152  ApprovalForAll(owner, operator, approved) */\n      0xffffffffffffffffffffffffffffffffffffffff\n      and\n      0x17307eab39ab6107e8899845ad3d59bd9653f200f220920489ca2b5937696c31\n        /* \"contracts/nft.sol\":10143:10151  approved */\n      dup4\n        /* \"contracts/nft.sol\":10111:10152  ApprovalForAll(owner, operator, approved) */\n      mload(0x40)\n      tag_276\n      swap2\n      swap1\n      tag_28\n      jump\t// in\n    tag_276:\n      mload(0x40)\n      dup1\n      swap2\n      sub\n      swap1\n      log3\n        /* \"contracts/nft.sol\":9845:10160  function _setApprovalForAll(\r... */\n      pop\n      pop\n      pop\n      jump\t// out\n        /* \"contracts/nft.sol\":6286:6599  function _safeTransfer(\r... */\n    tag_189:\n        /* \"contracts/nft.sol\":6442:6470  _transfer(from, to, tokenId) */\n      tag_278\n        /* \"contracts/nft.sol\":6452:6456  from */\n      dup5\n        /* \"contracts/nft.sol\":6458:6460  to */\n      dup5\n        /* \"contracts/nft.sol\":6462:6469  tokenId */\n      dup5\n        /* \"contracts/nft.sol\":6442:6451  _transfer */\n      tag_136\n        /* \"contracts/nft.sol\":6442:6470  _transfer(from, to, tokenId) */\n      jump\t// in\n    tag_278:\n        /* \"contracts/nft.sol\":6489:6536  _checkOnERC721Received(from, to, tokenId, data) */\n      tag_279\n        /* \"contracts/nft.sol\":6512:6516  from */\n      dup5\n        /* \"contracts/nft.sol\":6518:6520  to */\n      dup5\n        /* \"contracts/nft.sol\":6522:6529  tokenId */\n      dup5\n        /* \"contracts/nft.sol\":6531:6535  data */\n      dup5\n        /* \"contracts/nft.sol\":6489:6511  _checkOnERC721Received */\n      tag_280\n        /* \"contracts/nft.sol\":6489:6536  _checkOnERC721Received(from, to, tokenId, data) */\n      jump\t// in\n    tag_279:\n        /* \"contracts/nft.sol\":6481:6591  require(_checkOnERC721Received(from, to, tokenId, data), \"ERC721: transfer to non ERC721Receiver implementer\") */\n      tag_281\n      jumpi\n      mload(0x40)\n      0x08c379a000000000000000000000000000000000000000000000000000000000\n      dup2\n      mstore\n      0x04\n      add\n      tag_282\n      swap1\n      tag_283\n      jump\t// in\n    tag_282:\n      mload(0x40)\n      dup1\n      swap2\n      sub\n      swap1\n      revert\n    tag_281:\n        /* \"contracts/nft.sol\":6286:6599  function _safeTransfer(\r... */\n      pop\n      pop\n      pop\n      pop\n      jump\t// out\n        /* \"contracts/nft.sol\":11176:11302  function _beforeTokenTransfer(\r... */\n    tag_232:\n      pop\n      pop\n      pop\n      jump\t// out\n        /* \"contracts/nft.sol\":11310:11435  function _afterTokenTransfer(\r... */\n    tag_237:\n      pop\n      pop\n      pop\n      jump\t// out\n        /* \"contracts/nft.sol\":7230:7671  function _safeMint(\r... */\n    tag_242:\n        /* \"contracts/nft.sol\":7447:7499  _mint(to, collaborator,collaboratorPercent, tokenId) */\n      tag_287\n        /* \"contracts/nft.sol\":7453:7455  to */\n      dup6\n        /* \"contracts/nft.sol\":7457:7469  collaborator */\n      dup6\n        /* \"contracts/nft.sol\":7470:7489  collaboratorPercent */\n      dup6\n        /* \"contracts/nft.sol\":7491:7498  tokenId */\n      dup6\n        /* \"contracts/nft.sol\":7447:7452  _mint */\n      tag_288\n        /* \"contracts/nft.sol\":7447:7499  _mint(to, collaborator,collaboratorPercent, tokenId) */\n      jump\t// in\n    tag_287:\n        /* \"contracts/nft.sol\":7532:7585  _checkOnERC721Received(address(0), to, tokenId, data) */\n      tag_289\n        /* \"contracts/nft.sol\":7563:7564  0 */\n      0x00\n        /* \"contracts/nft.sol\":7567:7569  to */\n      dup7\n        /* \"contracts/nft.sol\":7571:7578  tokenId */\n      dup5\n        /* \"contracts/nft.sol\":7580:7584  data */\n      dup5\n        /* \"contracts/nft.sol\":7532:7554  _checkOnERC721Received */\n      tag_280\n        /* \"contracts/nft.sol\":7532:7585  _checkOnERC721Received(address(0), to, tokenId, data) */\n      jump\t// in\n    tag_289:\n        /* \"contracts/nft.sol\":7510:7663  require(\r... */\n      tag_290\n      jumpi\n      mload(0x40)\n      0x08c379a000000000000000000000000000000000000000000000000000000000\n      dup2\n      mstore\n      0x04\n      add\n      tag_291\n      swap1\n      tag_283\n      jump\t// in\n    tag_291:\n      mload(0x40)\n      dup1\n      swap2\n      sub\n      swap1\n      revert\n    tag_290:\n        /* \"contracts/nft.sol\":7230:7671  function _safeMint(\r... */\n      pop\n      pop\n      pop\n      pop\n      pop\n      jump\t// out\n        /* \"contracts/nft.sol\":10313:11166  function _checkOnERC721Received(\r... */\n    tag_280:\n        /* \"contracts/nft.sol\":10467:10471  bool */\n      0x00\n        /* \"contracts/nft.sol\":10488:10503  to.isContract() */\n      tag_293\n        /* \"contracts/nft.sol\":10488:10490  to */\n      dup5\n        /* \"contracts/nft.sol\":10488:10501  to.isContract */\n      0xffffffffffffffffffffffffffffffffffffffff\n      and\n      tag_294\n        /* \"contracts/nft.sol\":10488:10503  to.isContract() */\n      jump\t// in\n    tag_293:\n        /* \"contracts/nft.sol\":10484:11159  if (to.isContract()) {\r... */\n      iszero\n      tag_295\n      jumpi\n        /* \"contracts/nft.sol\":10540:10542  to */\n      dup4\n        /* \"contracts/nft.sol\":10524:10560  IERC721Receiver(to).onERC721Received */\n      0xffffffffffffffffffffffffffffffffffffffff\n      and\n      0x150b7a02\n        /* \"contracts/nft.sol\":10561:10573  _msgSender() */\n      tag_296\n        /* \"contracts/nft.sol\":10561:10571  _msgSender */\n      tag_119\n        /* \"contracts/nft.sol\":10561:10573  _msgSender() */\n      jump\t// in\n    tag_296:\n        /* \"contracts/nft.sol\":10575:10579  from */\n      dup8\n        /* \"contracts/nft.sol\":10581:10588  tokenId */\n      dup7\n        /* \"contracts/nft.sol\":10590:10594  data */\n      dup7\n        /* \"contracts/nft.sol\":10524:10595  IERC721Receiver(to).onERC721Received(_msgSender(), from, tokenId, data) */\n      mload(0x40)\n      dup6\n      0xffffffff\n      and\n      0xe0\n      shl\n      dup2\n      mstore\n      0x04\n      add\n      tag_297\n      swap5\n      swap4\n      swap3\n      swap2\n      swap1\n      tag_298\n      jump\t// in\n    tag_297:\n      0x20\n      mload(0x40)\n      dup1\n      dup4\n      sub\n      dup2\n      0x00\n      dup8\n      dup1\n      extcodesize\n      iszero\n      dup1\n      iszero\n      tag_299\n      jumpi\n      0x00\n      dup1\n      revert\n    tag_299:\n      pop\n      gas\n      call\n      swap3\n      pop\n      pop\n      pop\n      dup1\n      iszero\n      tag_300\n      jumpi\n      pop\n      mload(0x40)\n      returndatasize\n      not(0x1f)\n      0x1f\n      dup3\n      add\n      and\n      dup3\n      add\n      dup1\n      0x40\n      mstore\n      pop\n      dup2\n      add\n      swap1\n      tag_301\n      swap2\n      swap1\n      tag_302\n      jump\t// in\n    tag_301:\n      0x01\n    tag_300:\n        /* \"contracts/nft.sol\":10520:11104  try IERC721Receiver(to).onERC721Received(_msgSender(), from, tokenId, data) returns (bytes4 retval) {\r... */\n      tag_303\n      jumpi\n      returndatasize\n      dup1\n      0x00\n      dup2\n      eq\n      tag_308\n      jumpi\n      mload(0x40)\n      swap2\n      pop\n      and(add(returndatasize, 0x3f), not(0x1f))\n      dup3\n      add\n      0x40\n      mstore\n      returndatasize\n      dup3\n      mstore\n      returndatasize\n      0x00\n      0x20\n      dup5\n      add\n      returndatacopy\n      jump(tag_307)\n    tag_308:\n      0x60\n      swap2\n      pop\n    tag_307:\n      pop\n        /* \"contracts/nft.sol\":10782:10783  0 */\n      0x00\n        /* \"contracts/nft.sol\":10765:10771  reason */\n      dup2\n        /* \"contracts/nft.sol\":10765:10778  reason.length */\n      mload\n        /* \"contracts/nft.sol\":10765:10783  reason.length == 0 */\n      eq\n        /* \"contracts/nft.sol\":10761:11089  if (reason.length == 0) {\r... */\n      iszero\n      tag_309\n      jumpi\n        /* \"contracts/nft.sol\":10808:10868  revert(\"ERC721: transfer to non ERC721Receiver implementer\") */\n      mload(0x40)\n      0x08c379a000000000000000000000000000000000000000000000000000000000\n      dup2\n      mstore\n      0x04\n      add\n      tag_310\n      swap1\n      tag_283\n      jump\t// in\n    tag_310:\n      mload(0x40)\n      dup1\n      swap2\n      sub\n      swap1\n      revert\n        /* \"contracts/nft.sol\":10761:11089  if (reason.length == 0) {\r... */\n    tag_309:\n        /* \"contracts/nft.sol\":11039:11045  reason */\n      dup1\n        /* \"contracts/nft.sol\":11033:11046  mload(reason) */\n      mload\n        /* \"contracts/nft.sol\":11024:11030  reason */\n      dup2\n        /* \"contracts/nft.sol\":11020:11022  32 */\n      0x20\n        /* \"contracts/nft.sol\":11016:11031  add(32, reason) */\n      add\n        /* \"contracts/nft.sol\":11009:11047  revert(add(32, reason), mload(reason)) */\n      revert\n        /* \"contracts/nft.sol\":10520:11104  try IERC721Receiver(to).onERC721Received(_msgSender(), from, tokenId, data) returns (bytes4 retval) {\r... */\n    tag_303:\n        /* \"contracts/nft.sol\":10656:10697  IERC721Receiver.onERC721Received.selector */\n      shl(0xe0, 0x150b7a02)\n        /* \"contracts/nft.sol\":10646:10697  retval == IERC721Receiver.onERC721Received.selector */\n      not(0xffffffffffffffffffffffffffffffffffffffffffffffffffffffff)\n      and\n        /* \"contracts/nft.sol\":10646:10652  retval */\n      dup2\n        /* \"contracts/nft.sol\":10646:10697  retval == IERC721Receiver.onERC721Received.selector */\n      not(0xffffffffffffffffffffffffffffffffffffffffffffffffffffffff)\n      and\n      eq\n        /* \"contracts/nft.sol\":10639:10697  return retval == IERC721Receiver.onERC721Received.selector */\n      swap2\n      pop\n      pop\n      jump(tag_292)\n        /* \"contracts/nft.sol\":10484:11159  if (to.isContract()) {\r... */\n    tag_295:\n        /* \"contracts/nft.sol\":11143:11147  true */\n      0x01\n        /* \"contracts/nft.sol\":11136:11147  return true */\n      swap1\n      pop\n        /* \"contracts/nft.sol\":10313:11166  function _checkOnERC721Received(\r... */\n    tag_292:\n      swap5\n      swap4\n      pop\n      pop\n      pop\n      pop\n      jump\t// out\n        /* \"contracts/nft.sol\":7679:8407  function _mint(address to,address[] memory collaborator,uint256[] memory collaboratorPercent,uint256 tokenId) internal virtual {\r... */\n    tag_288:\n        /* \"contracts/nft.sol\":7839:7840  0 */\n      0x00\n        /* \"contracts/nft.sol\":7825:7841  to != address(0) */\n      0xffffffffffffffffffffffffffffffffffffffff\n      and\n        /* \"contracts/nft.sol\":7825:7827  to */\n      dup5\n        /* \"contracts/nft.sol\":7825:7841  to != address(0) */\n      0xffffffffffffffffffffffffffffffffffffffff\n      and\n      eq\n      iszero\n        /* \"contracts/nft.sol\":7817:7878  require(to != address(0), \"ERC721: mint to the zero address\") */\n      tag_315\n      jumpi\n      mload(0x40)\n      0x08c379a000000000000000000000000000000000000000000000000000000000\n      dup2\n      mstore\n      0x04\n      add\n      tag_316\n      swap1\n      tag_317\n      jump\t// in\n    tag_316:\n      mload(0x40)\n      dup1\n      swap2\n      sub\n      swap1\n      revert\n    tag_315:\n        /* \"contracts/nft.sol\":7898:7914  _exists(tokenId) */\n      tag_318\n        /* \"contracts/nft.sol\":7906:7913  tokenId */\n      dup2\n        /* \"contracts/nft.sol\":7898:7905  _exists */\n      tag_161\n        /* \"contracts/nft.sol\":7898:7914  _exists(tokenId) */\n      jump\t// in\n    tag_318:\n        /* \"contracts/nft.sol\":7897:7914  !_exists(tokenId) */\n      iszero\n        /* \"contracts/nft.sol\":7889:7947  require(!_exists(tokenId), \"ERC721: token already minted\") */\n      tag_319\n      jumpi\n      mload(0x40)\n      0x08c379a000000000000000000000000000000000000000000000000000000000\n      dup2\n      mstore\n      0x04\n      add\n      tag_320\n      swap1\n      tag_321\n      jump\t// in\n    tag_320:\n      mload(0x40)\n      dup1\n      swap2\n      sub\n      swap1\n      revert\n    tag_319:\n        /* \"contracts/nft.sol\":7960:8005  _beforeTokenTransfer(address(0), to, tokenId) */\n      tag_322\n        /* \"contracts/nft.sol\":7989:7990  0 */\n      0x00\n        /* \"contracts/nft.sol\":7993:7995  to */\n      dup6\n        /* \"contracts/nft.sol\":7997:8004  tokenId */\n      dup4\n        /* \"contracts/nft.sol\":7960:7980  _beforeTokenTransfer */\n      tag_232\n        /* \"contracts/nft.sol\":7960:8005  _beforeTokenTransfer(address(0), to, tokenId) */\n      jump\t// in\n    tag_322:\n        /* \"contracts/nft.sol\":8027:8043  _exists(tokenId) */\n      tag_323\n        /* \"contracts/nft.sol\":8035:8042  tokenId */\n      dup2\n        /* \"contracts/nft.sol\":8027:8034  _exists */\n      tag_161\n        /* \"contracts/nft.sol\":8027:8043  _exists(tokenId) */\n      jump\t// in\n    tag_323:\n        /* \"contracts/nft.sol\":8026:8043  !_exists(tokenId) */\n      iszero\n        /* \"contracts/nft.sol\":8018:8076  require(!_exists(tokenId), \"ERC721: token already minted\") */\n      tag_324\n      jumpi\n      mload(0x40)\n      0x08c379a000000000000000000000000000000000000000000000000000000000\n      dup2\n      mstore\n      0x04\n      add\n      tag_325\n      swap1\n      tag_321\n      jump\t// in\n    tag_325:\n      mload(0x40)\n      dup1\n      swap2\n      sub\n      swap1\n      revert\n    tag_324:\n        /* \"contracts/nft.sol\":8131:8132  1 */\n      0x01\n        /* \"contracts/nft.sol\":8114:8123  _balances */\n      0x06\n        /* \"contracts/nft.sol\":8114:8127  _balances[to] */\n      0x00\n        /* \"contracts/nft.sol\":8124:8126  to */\n      dup7\n        /* \"contracts/nft.sol\":8114:8127  _balances[to] */\n      0xffffffffffffffffffffffffffffffffffffffff\n      and\n      0xffffffffffffffffffffffffffffffffffffffff\n      and\n      dup2\n      mstore\n      0x20\n      add\n      swap1\n      dup2\n      mstore\n      0x20\n      add\n      0x00\n      keccak256\n      0x00\n        /* \"contracts/nft.sol\":8114:8132  _balances[to] += 1 */\n      dup3\n      dup3\n      sload\n      add\n      swap3\n      pop\n      pop\n      dup2\n      swap1\n      sstore\n      pop\n        /* \"contracts/nft.sol\":8175:8177  to */\n      dup4\n        /* \"contracts/nft.sol\":8156:8163  _owners */\n      0x03\n        /* \"contracts/nft.sol\":8156:8172  _owners[tokenId] */\n      0x00\n        /* \"contracts/nft.sol\":8164:8171  tokenId */\n      dup4\n        /* \"contracts/nft.sol\":8156:8172  _owners[tokenId] */\n      dup2\n      mstore\n      0x20\n      add\n      swap1\n      dup2\n      mstore\n      0x20\n      add\n      0x00\n      keccak256\n      0x00\n        /* \"contracts/nft.sol\":8156:8177  _owners[tokenId] = to */\n      0x0100\n      exp\n      dup2\n      sload\n      dup2\n      0xffffffffffffffffffffffffffffffffffffffff\n      mul\n      not\n      and\n      swap1\n      dup4\n      0xffffffffffffffffffffffffffffffffffffffff\n      and\n      mul\n      or\n      swap1\n      sstore\n      pop\n        /* \"contracts/nft.sol\":8214:8226  collaborator */\n      dup3\n        /* \"contracts/nft.sol\":8188:8202  _collaborators */\n      0x04\n        /* \"contracts/nft.sol\":8188:8211  _collaborators[tokenId] */\n      0x00\n        /* \"contracts/nft.sol\":8203:8210  tokenId */\n      dup4\n        /* \"contracts/nft.sol\":8188:8211  _collaborators[tokenId] */\n      dup2\n      mstore\n      0x20\n      add\n      swap1\n      dup2\n      mstore\n      0x20\n      add\n      0x00\n      keccak256\n        /* \"contracts/nft.sol\":8188:8226  _collaborators[tokenId] = collaborator */\n      swap1\n      dup1\n      mload\n      swap1\n      0x20\n      add\n      swap1\n      tag_326\n      swap3\n      swap2\n      swap1\n      tag_327\n      jump\t// in\n    tag_326:\n      pop\n        /* \"contracts/nft.sol\":8272:8291  collaboratorPercent */\n      dup2\n        /* \"contracts/nft.sol\":8236:8260  _collaboratorsPercentage */\n      0x05\n        /* \"contracts/nft.sol\":8236:8269  _collaboratorsPercentage[tokenId] */\n      0x00\n        /* \"contracts/nft.sol\":8261:8268  tokenId */\n      dup4\n        /* \"contracts/nft.sol\":8236:8269  _collaboratorsPercentage[tokenId] */\n      dup2\n      mstore\n      0x20\n      add\n      swap1\n      dup2\n      mstore\n      0x20\n      add\n      0x00\n      keccak256\n        /* \"contracts/nft.sol\":8236:8291  _collaboratorsPercentage[tokenId] = collaboratorPercent */\n      swap1\n      dup1\n      mload\n      swap1\n      0x20\n      add\n      swap1\n      tag_328\n      swap3\n      swap2\n      swap1\n      tag_329\n      jump\t// in\n    tag_328:\n      pop\n        /* \"contracts/nft.sol\":8334:8341  tokenId */\n      dup1\n        /* \"contracts/nft.sol\":8330:8332  to */\n      dup5\n        /* \"contracts/nft.sol\":8309:8342  Transfer(address(0), to, tokenId) */\n      0xffffffffffffffffffffffffffffffffffffffff\n      and\n        /* \"contracts/nft.sol\":8326:8327  0 */\n      0x00\n        /* \"contracts/nft.sol\":8309:8342  Transfer(address(0), to, tokenId) */\n      0xffffffffffffffffffffffffffffffffffffffff\n      and\n      0xddf252ad1be2c89b69c2b068fc378daa952ba7f163c4a11628f55a4df523b3ef\n      mload(0x40)\n      mload(0x40)\n      dup1\n      swap2\n      sub\n      swap1\n      log4\n        /* \"contracts/nft.sol\":8355:8399  _afterTokenTransfer(address(0), to, tokenId) */\n      tag_330\n        /* \"contracts/nft.sol\":8383:8384  0 */\n      0x00\n        /* \"contracts/nft.sol\":8387:8389  to */\n      dup6\n        /* \"contracts/nft.sol\":8391:8398  tokenId */\n      dup4\n        /* \"contracts/nft.sol\":8355:8374  _afterTokenTransfer */\n      tag_237\n        /* \"contracts/nft.sol\":8355:8399  _afterTokenTransfer(address(0), to, tokenId) */\n      jump\t// in\n    tag_330:\n        /* \"contracts/nft.sol\":7679:8407  function _mint(address to,address[] memory collaborator,uint256[] memory collaboratorPercent,uint256 tokenId) internal virtual {\r... */\n      pop\n      pop\n      pop\n      pop\n      jump\t// out\n        /* \"@openzeppelin/contracts@4.6.0/utils/Address.sol\":1175:1495  function isContract(address account) internal view returns (bool) {... */\n    tag_294:\n        /* \"@openzeppelin/contracts@4.6.0/utils/Address.sol\":1235:1239  bool */\n      0x00\n        /* \"@openzeppelin/contracts@4.6.0/utils/Address.sol\":1487:1488  0 */\n      dup1\n        /* \"@openzeppelin/contracts@4.6.0/utils/Address.sol\":1465:1472  account */\n      dup3\n        /* \"@openzeppelin/contracts@4.6.0/utils/Address.sol\":1465:1484  account.code.length */\n      0xffffffffffffffffffffffffffffffffffffffff\n      and\n      extcodesize\n        /* \"@openzeppelin/contracts@4.6.0/utils/Address.sol\":1465:1488  account.code.length > 0 */\n      gt\n        /* \"@openzeppelin/contracts@4.6.0/utils/Address.sol\":1458:1488  return account.code.length > 0 */\n      swap1\n      pop\n        /* \"@openzeppelin/contracts@4.6.0/utils/Address.sol\":1175:1495  function isContract(address account) internal view returns (bool) {... */\n      swap2\n      swap1\n      pop\n      jump\t// out\n    tag_249:\n      dup3\n      dup1\n      sload\n      tag_332\n      swap1\n      tag_105\n      jump\t// in\n    tag_332:\n      swap1\n      0x00\n      mstore\n      keccak256(0x00, 0x20)\n      swap1\n      0x1f\n      add\n      0x20\n      swap1\n      div\n      dup2\n      add\n      swap3\n      dup3\n      tag_334\n      jumpi\n      0x00\n      dup6\n      sstore\n      jump(tag_333)\n    tag_334:\n      dup3\n      0x1f\n      lt\n      tag_335\n      jumpi\n      dup1\n      mload\n      not(0xff)\n      and\n      dup4\n      dup1\n      add\n      or\n      dup6\n      sstore\n      jump(tag_333)\n    tag_335:\n      dup3\n      dup1\n      add\n      0x01\n      add\n      dup6\n      sstore\n      dup3\n      iszero\n      tag_333\n      jumpi\n      swap2\n      dup3\n      add\n    tag_336:\n      dup3\n      dup2\n      gt\n      iszero\n      tag_337\n      jumpi\n      dup3\n      mload\n      dup3\n      sstore\n      swap2\n      0x20\n      add\n      swap2\n      swap1\n      0x01\n      add\n      swap1\n      jump(tag_336)\n    tag_337:\n    tag_333:\n      pop\n      swap1\n      pop\n      tag_338\n      swap2\n      swap1\n      tag_339\n      jump\t// in\n    tag_338:\n      pop\n      swap1\n      jump\t// out\n    tag_327:\n      dup3\n      dup1\n      sload\n      dup3\n      dup3\n      sstore\n      swap1\n      0x00\n      mstore\n      keccak256(0x00, 0x20)\n      swap1\n      dup2\n      add\n      swap3\n      dup3\n      iszero\n      tag_340\n      jumpi\n      swap2\n      0x20\n      mul\n      dup3\n      add\n    tag_341:\n      dup3\n      dup2\n      gt\n      iszero\n      tag_342\n      jumpi\n      dup3\n      mload\n      dup3\n      exp(0x0100, 0x00)\n      dup2\n      sload\n      dup2\n      0xffffffffffffffffffffffffffffffffffffffff\n      mul\n      not\n      and\n      swap1\n      dup4\n      0xffffffffffffffffffffffffffffffffffffffff\n      and\n      mul\n      or\n      swap1\n      sstore\n      pop\n      swap2\n      0x20\n      add\n      swap2\n      swap1\n      0x01\n      add\n      swap1\n      jump(tag_341)\n    tag_342:\n    tag_340:\n      pop\n      swap1\n      pop\n      tag_343\n      swap2\n      swap1\n      tag_339\n      jump\t// in\n    tag_343:\n      pop\n      swap1\n      jump\t// out\n    tag_329:\n      dup3\n      dup1\n      sload\n      dup3\n      dup3\n      sstore\n      swap1\n      0x00\n      mstore\n      keccak256(0x00, 0x20)\n      swap1\n      dup2\n      add\n      swap3\n      dup3\n      iszero\n      tag_344\n      jumpi\n      swap2\n      0x20\n      mul\n      dup3\n      add\n    tag_345:\n      dup3\n      dup2\n      gt\n      iszero\n      tag_346\n      jumpi\n      dup3\n      mload\n      dup3\n      sstore\n      swap2\n      0x20\n      add\n      swap2\n      swap1\n      0x01\n      add\n      swap1\n      jump(tag_345)\n    tag_346:\n    tag_344:\n      pop\n      swap1\n      pop\n      tag_347\n      swap2\n      swap1\n      tag_339\n      jump\t// in\n    tag_347:\n      pop\n      swap1\n      jump\t// out\n    tag_339:\n    tag_348:\n      dup1\n      dup3\n      gt\n      iszero\n      tag_349\n      jumpi\n      0x00\n      dup2\n      0x00\n      swap1\n      sstore\n      pop\n      0x01\n      add\n      jump(tag_348)\n    tag_349:\n      pop\n      swap1\n      jump\t// out\n        /* \"#utility.yul\":24:679   */\n    tag_351:\n        /* \"#utility.yul\":120:125   */\n      0x00\n        /* \"#utility.yul\":145:226   */\n      tag_353\n        /* \"#utility.yul\":161:225   */\n      tag_354\n        /* \"#utility.yul\":218:224   */\n      dup5\n        /* \"#utility.yul\":161:225   */\n      tag_355\n      jump\t// in\n    tag_354:\n        /* \"#utility.yul\":145:226   */\n      tag_356\n      jump\t// in\n    tag_353:\n        /* \"#utility.yul\":136:226   */\n      swap1\n      pop\n        /* \"#utility.yul\":246:251   */\n      dup1\n        /* \"#utility.yul\":275:281   */\n      dup4\n        /* \"#utility.yul\":268:273   */\n      dup3\n        /* \"#utility.yul\":261:282   */\n      mstore\n        /* \"#utility.yul\":309:313   */\n      0x20\n        /* \"#utility.yul\":302:307   */\n      dup3\n        /* \"#utility.yul\":298:314   */\n      add\n        /* \"#utility.yul\":291:314   */\n      swap1\n      pop\n        /* \"#utility.yul\":335:341   */\n      dup3\n        /* \"#utility.yul\":385:388   */\n      dup6\n        /* \"#utility.yul\":377:381   */\n      0x20\n        /* \"#utility.yul\":369:375   */\n      dup7\n        /* \"#utility.yul\":365:382   */\n      mul\n        /* \"#utility.yul\":360:363   */\n      dup3\n        /* \"#utility.yul\":356:383   */\n      add\n        /* \"#utility.yul\":353:389   */\n      gt\n        /* \"#utility.yul\":350:352   */\n      iszero\n      tag_357\n      jumpi\n        /* \"#utility.yul\":414:415   */\n      0x00\n        /* \"#utility.yul\":411:412   */\n      dup1\n        /* \"#utility.yul\":404:416   */\n      revert\n        /* \"#utility.yul\":350:352   */\n    tag_357:\n        /* \"#utility.yul\":450:451   */\n      0x00\n        /* \"#utility.yul\":435:673   */\n    tag_358:\n        /* \"#utility.yul\":460:466   */\n      dup6\n        /* \"#utility.yul\":457:458   */\n      dup2\n        /* \"#utility.yul\":454:467   */\n      lt\n        /* \"#utility.yul\":435:673   */\n      iszero\n      tag_360\n      jumpi\n        /* \"#utility.yul\":528:531   */\n      dup2\n        /* \"#utility.yul\":557:594   */\n      tag_361\n        /* \"#utility.yul\":590:593   */\n      dup9\n        /* \"#utility.yul\":578:588   */\n      dup3\n        /* \"#utility.yul\":557:594   */\n      tag_362\n      jump\t// in\n    tag_361:\n        /* \"#utility.yul\":552:555   */\n      dup5\n        /* \"#utility.yul\":545:595   */\n      mstore\n        /* \"#utility.yul\":624:628   */\n      0x20\n        /* \"#utility.yul\":619:622   */\n      dup5\n        /* \"#utility.yul\":615:629   */\n      add\n        /* \"#utility.yul\":608:629   */\n      swap4\n      pop\n        /* \"#utility.yul\":658:662   */\n      0x20\n        /* \"#utility.yul\":653:656   */\n      dup4\n        /* \"#utility.yul\":649:663   */\n      add\n        /* \"#utility.yul\":642:663   */\n      swap3\n      pop\n        /* \"#utility.yul\":495:673   */\n      pop\n        /* \"#utility.yul\":482:483   */\n      0x01\n        /* \"#utility.yul\":479:480   */\n      dup2\n        /* \"#utility.yul\":475:484   */\n      add\n        /* \"#utility.yul\":470:484   */\n      swap1\n      pop\n        /* \"#utility.yul\":435:673   */\n      jump(tag_358)\n    tag_360:\n        /* \"#utility.yul\":439:453   */\n      pop\n        /* \"#utility.yul\":126:679   */\n      pop\n      pop\n      swap4\n      swap3\n      pop\n      pop\n      pop\n      jump\t// out\n        /* \"#utility.yul\":702:1357   */\n    tag_363:\n        /* \"#utility.yul\":798:803   */\n      0x00\n        /* \"#utility.yul\":823:904   */\n      tag_365\n        /* \"#utility.yul\":839:903   */\n      tag_366\n        /* \"#utility.yul\":896:902   */\n      dup5\n        /* \"#utility.yul\":839:903   */\n      tag_367\n      jump\t// in\n    tag_366:\n        /* \"#utility.yul\":823:904   */\n      tag_356\n      jump\t// in\n    tag_365:\n        /* \"#utility.yul\":814:904   */\n      swap1\n      pop\n        /* \"#utility.yul\":924:929   */\n      dup1\n        /* \"#utility.yul\":953:959   */\n      dup4\n        /* \"#utility.yul\":946:951   */\n      dup3\n        /* \"#utility.yul\":939:960   */\n      mstore\n        /* \"#utility.yul\":987:991   */\n      0x20\n        /* \"#utility.yul\":980:985   */\n      dup3\n        /* \"#utility.yul\":976:992   */\n      add\n        /* \"#utility.yul\":969:992   */\n      swap1\n      pop\n        /* \"#utility.yul\":1013:1019   */\n      dup3\n        /* \"#utility.yul\":1063:1066   */\n      dup6\n        /* \"#utility.yul\":1055:1059   */\n      0x20\n        /* \"#utility.yul\":1047:1053   */\n      dup7\n        /* \"#utility.yul\":1043:1060   */\n      mul\n        /* \"#utility.yul\":1038:1041   */\n      dup3\n        /* \"#utility.yul\":1034:1061   */\n      add\n        /* \"#utility.yul\":1031:1067   */\n      gt\n        /* \"#utility.yul\":1028:1030   */\n      iszero\n      tag_368\n      jumpi\n        /* \"#utility.yul\":1092:1093   */\n      0x00\n        /* \"#utility.yul\":1089:1090   */\n      dup1\n        /* \"#utility.yul\":1082:1094   */\n      revert\n        /* \"#utility.yul\":1028:1030   */\n    tag_368:\n        /* \"#utility.yul\":1128:1129   */\n      0x00\n        /* \"#utility.yul\":1113:1351   */\n    tag_369:\n        /* \"#utility.yul\":1138:1144   */\n      dup6\n        /* \"#utility.yul\":1135:1136   */\n      dup2\n        /* \"#utility.yul\":1132:1145   */\n      lt\n        /* \"#utility.yul\":1113:1351   */\n      iszero\n      tag_371\n      jumpi\n        /* \"#utility.yul\":1206:1209   */\n      dup2\n        /* \"#utility.yul\":1235:1272   */\n      tag_372\n        /* \"#utility.yul\":1268:1271   */\n      dup9\n        /* \"#utility.yul\":1256:1266   */\n      dup3\n        /* \"#utility.yul\":1235:1272   */\n      tag_373\n      jump\t// in\n    tag_372:\n        /* \"#utility.yul\":1230:1233   */\n      dup5\n        /* \"#utility.yul\":1223:1273   */\n      mstore\n        /* \"#utility.yul\":1302:1306   */\n      0x20\n        /* \"#utility.yul\":1297:1300   */\n      dup5\n        /* \"#utility.yul\":1293:1307   */\n      add\n        /* \"#utility.yul\":1286:1307   */\n      swap4\n      pop\n        /* \"#utility.yul\":1336:1340   */\n      0x20\n        /* \"#utility.yul\":1331:1334   */\n      dup4\n        /* \"#utility.yul\":1327:1341   */\n      add\n        /* \"#utility.yul\":1320:1341   */\n      swap3\n      pop\n        /* \"#utility.yul\":1173:1351   */\n      pop\n        /* \"#utility.yul\":1160:1161   */\n      0x01\n        /* \"#utility.yul\":1157:1158   */\n      dup2\n        /* \"#utility.yul\":1153:1162   */\n      add\n        /* \"#utility.yul\":1148:1162   */\n      swap1\n      pop\n        /* \"#utility.yul\":1113:1351   */\n      jump(tag_369)\n    tag_371:\n        /* \"#utility.yul\":1117:1131   */\n      pop\n        /* \"#utility.yul\":804:1357   */\n      pop\n      pop\n      swap4\n      swap3\n      pop\n      pop\n      pop\n      jump\t// out\n        /* \"#utility.yul\":1363:1706   */\n    tag_374:\n        /* \"#utility.yul\":1440:1445   */\n      0x00\n        /* \"#utility.yul\":1465:1530   */\n      tag_376\n        /* \"#utility.yul\":1481:1529   */\n      tag_377\n        /* \"#utility.yul\":1522:1528   */\n      dup5\n        /* \"#utility.yul\":1481:1529   */\n      tag_378\n      jump\t// in\n    tag_377:\n        /* \"#utility.yul\":1465:1530   */\n      tag_356\n      jump\t// in\n    tag_376:\n        /* \"#utility.yul\":1456:1530   */\n      swap1\n      pop\n        /* \"#utility.yul\":1553:1559   */\n      dup3\n        /* \"#utility.yul\":1546:1551   */\n      dup2\n        /* \"#utility.yul\":1539:1560   */\n      mstore\n        /* \"#utility.yul\":1591:1595   */\n      0x20\n        /* \"#utility.yul\":1584:1589   */\n      dup2\n        /* \"#utility.yul\":1580:1596   */\n      add\n        /* \"#utility.yul\":1629:1632   */\n      dup5\n        /* \"#utility.yul\":1620:1626   */\n      dup5\n        /* \"#utility.yul\":1615:1618   */\n      dup5\n        /* \"#utility.yul\":1611:1627   */\n      add\n        /* \"#utility.yul\":1608:1633   */\n      gt\n        /* \"#utility.yul\":1605:1607   */\n      iszero\n      tag_379\n      jumpi\n        /* \"#utility.yul\":1646:1647   */\n      0x00\n        /* \"#utility.yul\":1643:1644   */\n      dup1\n        /* \"#utility.yul\":1636:1648   */\n      revert\n        /* \"#utility.yul\":1605:1607   */\n    tag_379:\n        /* \"#utility.yul\":1659:1700   */\n      tag_380\n        /* \"#utility.yul\":1693:1699   */\n      dup5\n        /* \"#utility.yul\":1688:1691   */\n      dup3\n        /* \"#utility.yul\":1683:1686   */\n      dup6\n        /* \"#utility.yul\":1659:1700   */\n      tag_381\n      jump\t// in\n    tag_380:\n        /* \"#utility.yul\":1446:1706   */\n      pop\n      swap4\n      swap3\n      pop\n      pop\n      pop\n      jump\t// out\n        /* \"#utility.yul\":1712:2057   */\n    tag_382:\n        /* \"#utility.yul\":1790:1795   */\n      0x00\n        /* \"#utility.yul\":1815:1881   */\n      tag_384\n        /* \"#utility.yul\":1831:1880   */\n      tag_385\n        /* \"#utility.yul\":1873:1879   */\n      dup5\n        /* \"#utility.yul\":1831:1880   */\n      tag_386\n      jump\t// in\n    tag_385:\n        /* \"#utility.yul\":1815:1881   */\n      tag_356\n      jump\t// in\n    tag_384:\n        /* \"#utility.yul\":1806:1881   */\n      swap1\n      pop\n        /* \"#utility.yul\":1904:1910   */\n      dup3\n        /* \"#utility.yul\":1897:1902   */\n      dup2\n        /* \"#utility.yul\":1890:1911   */\n      mstore\n        /* \"#utility.yul\":1942:1946   */\n      0x20\n        /* \"#utility.yul\":1935:1940   */\n      dup2\n        /* \"#utility.yul\":1931:1947   */\n      add\n        /* \"#utility.yul\":1980:1983   */\n      dup5\n        /* \"#utility.yul\":1971:1977   */\n      dup5\n        /* \"#utility.yul\":1966:1969   */\n      dup5\n        /* \"#utility.yul\":1962:1978   */\n      add\n        /* \"#utility.yul\":1959:1984   */\n      gt\n        /* \"#utility.yul\":1956:1958   */\n      iszero\n      tag_387\n      jumpi\n        /* \"#utility.yul\":1997:1998   */\n      0x00\n        /* \"#utility.yul\":1994:1995   */\n      dup1\n        /* \"#utility.yul\":1987:1999   */\n      revert\n        /* \"#utility.yul\":1956:1958   */\n    tag_387:\n        /* \"#utility.yul\":2010:2051   */\n      tag_388\n        /* \"#utility.yul\":2044:2050   */\n      dup5\n        /* \"#utility.yul\":2039:2042   */\n      dup3\n        /* \"#utility.yul\":2034:2037   */\n      dup6\n        /* \"#utility.yul\":2010:2051   */\n      tag_381\n      jump\t// in\n    tag_388:\n        /* \"#utility.yul\":1796:2057   */\n      pop\n      swap4\n      swap3\n      pop\n      pop\n      pop\n      jump\t// out\n        /* \"#utility.yul\":2063:2202   */\n    tag_362:\n        /* \"#utility.yul\":2109:2114   */\n      0x00\n        /* \"#utility.yul\":2147:2153   */\n      dup2\n        /* \"#utility.yul\":2134:2154   */\n      calldataload\n        /* \"#utility.yul\":2125:2154   */\n      swap1\n      pop\n        /* \"#utility.yul\":2163:2196   */\n      tag_390\n        /* \"#utility.yul\":2190:2195   */\n      dup2\n        /* \"#utility.yul\":2163:2196   */\n      tag_391\n      jump\t// in\n    tag_390:\n        /* \"#utility.yul\":2115:2202   */\n      swap3\n      swap2\n      pop\n      pop\n      jump\t// out\n        /* \"#utility.yul\":2225:2528   */\n    tag_392:\n        /* \"#utility.yul\":2296:2301   */\n      0x00\n        /* \"#utility.yul\":2345:2348   */\n      dup3\n        /* \"#utility.yul\":2338:2342   */\n      0x1f\n        /* \"#utility.yul\":2330:2336   */\n      dup4\n        /* \"#utility.yul\":2326:2343   */\n      add\n        /* \"#utility.yul\":2322:2349   */\n      slt\n        /* \"#utility.yul\":2312:2314   */\n      tag_394\n      jumpi\n        /* \"#utility.yul\":2363:2364   */\n      0x00\n        /* \"#utility.yul\":2360:2361   */\n      dup1\n        /* \"#utility.yul\":2353:2365   */\n      revert\n        /* \"#utility.yul\":2312:2314   */\n    tag_394:\n        /* \"#utility.yul\":2403:2409   */\n      dup2\n        /* \"#utility.yul\":2390:2410   */\n      calldataload\n        /* \"#utility.yul\":2428:2522   */\n      tag_395\n        /* \"#utility.yul\":2518:2521   */\n      dup5\n        /* \"#utility.yul\":2510:2516   */\n      dup3\n        /* \"#utility.yul\":2503:2507   */\n      0x20\n        /* \"#utility.yul\":2495:2501   */\n      dup7\n        /* \"#utility.yul\":2491:2508   */\n      add\n        /* \"#utility.yul\":2428:2522   */\n      tag_351\n      jump\t// in\n    tag_395:\n        /* \"#utility.yul\":2419:2522   */\n      swap2\n      pop\n        /* \"#utility.yul\":2302:2528   */\n      pop\n      swap3\n      swap2\n      pop\n      pop\n      jump\t// out\n        /* \"#utility.yul\":2551:2854   */\n    tag_396:\n        /* \"#utility.yul\":2622:2627   */\n      0x00\n        /* \"#utility.yul\":2671:2674   */\n      dup3\n        /* \"#utility.yul\":2664:2668   */\n      0x1f\n        /* \"#utility.yul\":2656:2662   */\n      dup4\n        /* \"#utility.yul\":2652:2669   */\n      add\n        /* \"#utility.yul\":2648:2675   */\n      slt\n        /* \"#utility.yul\":2638:2640   */\n      tag_398\n      jumpi\n        /* \"#utility.yul\":2689:2690   */\n      0x00\n        /* \"#utility.yul\":2686:2687   */\n      dup1\n        /* \"#utility.yul\":2679:2691   */\n      revert\n        /* \"#utility.yul\":2638:2640   */\n    tag_398:\n        /* \"#utility.yul\":2729:2735   */\n      dup2\n        /* \"#utility.yul\":2716:2736   */\n      calldataload\n        /* \"#utility.yul\":2754:2848   */\n      tag_399\n        /* \"#utility.yul\":2844:2847   */\n      dup5\n        /* \"#utility.yul\":2836:2842   */\n      dup3\n        /* \"#utility.yul\":2829:2833   */\n      0x20\n        /* \"#utility.yul\":2821:2827   */\n      dup7\n        /* \"#utility.yul\":2817:2834   */\n      add\n        /* \"#utility.yul\":2754:2848   */\n      tag_363\n      jump\t// in\n    tag_399:\n        /* \"#utility.yul\":2745:2848   */\n      swap2\n      pop\n        /* \"#utility.yul\":2628:2854   */\n      pop\n      swap3\n      swap2\n      pop\n      pop\n      jump\t// out\n        /* \"#utility.yul\":2860:2993   */\n    tag_400:\n        /* \"#utility.yul\":2903:2908   */\n      0x00\n        /* \"#utility.yul\":2941:2947   */\n      dup2\n        /* \"#utility.yul\":2928:2948   */\n      calldataload\n        /* \"#utility.yul\":2919:2948   */\n      swap1\n      pop\n        /* \"#utility.yul\":2957:2987   */\n      tag_402\n        /* \"#utility.yul\":2981:2986   */\n      dup2\n        /* \"#utility.yul\":2957:2987   */\n      tag_403\n      jump\t// in\n    tag_402:\n        /* \"#utility.yul\":2909:2993   */\n      swap3\n      swap2\n      pop\n      pop\n      jump\t// out\n        /* \"#utility.yul\":2999:3136   */\n    tag_404:\n        /* \"#utility.yul\":3044:3049   */\n      0x00\n        /* \"#utility.yul\":3082:3088   */\n      dup2\n        /* \"#utility.yul\":3069:3089   */\n      calldataload\n        /* \"#utility.yul\":3060:3089   */\n      swap1\n      pop\n        /* \"#utility.yul\":3098:3130   */\n      tag_406\n        /* \"#utility.yul\":3124:3129   */\n      dup2\n        /* \"#utility.yul\":3098:3130   */\n      tag_407\n      jump\t// in\n    tag_406:\n        /* \"#utility.yul\":3050:3136   */\n      swap3\n      swap2\n      pop\n      pop\n      jump\t// out\n        /* \"#utility.yul\":3142:3283   */\n    tag_408:\n        /* \"#utility.yul\":3198:3203   */\n      0x00\n        /* \"#utility.yul\":3229:3235   */\n      dup2\n        /* \"#utility.yul\":3223:3236   */\n      mload\n        /* \"#utility.yul\":3214:3236   */\n      swap1\n      pop\n        /* \"#utility.yul\":3245:3277   */\n      tag_410\n        /* \"#utility.yul\":3271:3276   */\n      dup2\n        /* \"#utility.yul\":3245:3277   */\n      tag_407\n      jump\t// in\n    tag_410:\n        /* \"#utility.yul\":3204:3283   */\n      swap3\n      swap2\n      pop\n      pop\n      jump\t// out\n        /* \"#utility.yul\":3302:3573   */\n    tag_411:\n        /* \"#utility.yul\":3357:3362   */\n      0x00\n        /* \"#utility.yul\":3406:3409   */\n      dup3\n        /* \"#utility.yul\":3399:3403   */\n      0x1f\n        /* \"#utility.yul\":3391:3397   */\n      dup4\n        /* \"#utility.yul\":3387:3404   */\n      add\n        /* \"#utility.yul\":3383:3410   */\n      slt\n        /* \"#utility.yul\":3373:3375   */\n      tag_413\n      jumpi\n        /* \"#utility.yul\":3424:3425   */\n      0x00\n        /* \"#utility.yul\":3421:3422   */\n      dup1\n        /* \"#utility.yul\":3414:3426   */\n      revert\n        /* \"#utility.yul\":3373:3375   */\n    tag_413:\n        /* \"#utility.yul\":3464:3470   */\n      dup2\n        /* \"#utility.yul\":3451:3471   */\n      calldataload\n        /* \"#utility.yul\":3489:3567   */\n      tag_414\n        /* \"#utility.yul\":3563:3566   */\n      dup5\n        /* \"#utility.yul\":3555:3561   */\n      dup3\n        /* \"#utility.yul\":3548:3552   */\n      0x20\n        /* \"#utility.yul\":3540:3546   */\n      dup7\n        /* \"#utility.yul\":3536:3553   */\n      add\n        /* \"#utility.yul\":3489:3567   */\n      tag_374\n      jump\t// in\n    tag_414:\n        /* \"#utility.yul\":3480:3567   */\n      swap2\n      pop\n        /* \"#utility.yul\":3363:3573   */\n      pop\n      swap3\n      swap2\n      pop\n      pop\n      jump\t// out\n        /* \"#utility.yul\":3593:3866   */\n    tag_415:\n        /* \"#utility.yul\":3649:3654   */\n      0x00\n        /* \"#utility.yul\":3698:3701   */\n      dup3\n        /* \"#utility.yul\":3691:3695   */\n      0x1f\n        /* \"#utility.yul\":3683:3689   */\n      dup4\n        /* \"#utility.yul\":3679:3696   */\n      add\n        /* \"#utility.yul\":3675:3702   */\n      slt\n        /* \"#utility.yul\":3665:3667   */\n      tag_417\n      jumpi\n        /* \"#utility.yul\":3716:3717   */\n      0x00\n        /* \"#utility.yul\":3713:3714   */\n      dup1\n        /* \"#utility.yul\":3706:3718   */\n      revert\n        /* \"#utility.yul\":3665:3667   */\n    tag_417:\n        /* \"#utility.yul\":3756:3762   */\n      dup2\n        /* \"#utility.yul\":3743:3763   */\n      calldataload\n        /* \"#utility.yul\":3781:3860   */\n      tag_418\n        /* \"#utility.yul\":3856:3859   */\n      dup5\n        /* \"#utility.yul\":3848:3854   */\n      dup3\n        /* \"#utility.yul\":3841:3845   */\n      0x20\n        /* \"#utility.yul\":3833:3839   */\n      dup7\n        /* \"#utility.yul\":3829:3846   */\n      add\n        /* \"#utility.yul\":3781:3860   */\n      tag_382\n      jump\t// in\n    tag_418:\n        /* \"#utility.yul\":3772:3860   */\n      swap2\n      pop\n        /* \"#utility.yul\":3655:3866   */\n      pop\n      swap3\n      swap2\n      pop\n      pop\n      jump\t// out\n        /* \"#utility.yul\":3872:4011   */\n    tag_373:\n        /* \"#utility.yul\":3918:3923   */\n      0x00\n        /* \"#utility.yul\":3956:3962   */\n      dup2\n        /* \"#utility.yul\":3943:3963   */\n      calldataload\n        /* \"#utility.yul\":3934:3963   */\n      swap1\n      pop\n        /* \"#utility.yul\":3972:4005   */\n      tag_420\n        /* \"#utility.yul\":3999:4004   */\n      dup2\n        /* \"#utility.yul\":3972:4005   */\n      tag_421\n      jump\t// in\n    tag_420:\n        /* \"#utility.yul\":3924:4011   */\n      swap3\n      swap2\n      pop\n      pop\n      jump\t// out\n        /* \"#utility.yul\":4017:4279   */\n    tag_65:\n        /* \"#utility.yul\":4076:4082   */\n      0x00\n        /* \"#utility.yul\":4125:4127   */\n      0x20\n        /* \"#utility.yul\":4113:4122   */\n      dup3\n        /* \"#utility.yul\":4104:4111   */\n      dup5\n        /* \"#utility.yul\":4100:4123   */\n      sub\n        /* \"#utility.yul\":4096:4128   */\n      slt\n        /* \"#utility.yul\":4093:4095   */\n      iszero\n      tag_423\n      jumpi\n        /* \"#utility.yul\":4141:4142   */\n      0x00\n        /* \"#utility.yul\":4138:4139   */\n      dup1\n        /* \"#utility.yul\":4131:4143   */\n      revert\n        /* \"#utility.yul\":4093:4095   */\n    tag_423:\n        /* \"#utility.yul\":4184:4185   */\n      0x00\n        /* \"#utility.yul\":4209:4262   */\n      tag_424\n        /* \"#utility.yul\":4254:4261   */\n      dup5\n        /* \"#utility.yul\":4245:4251   */\n      dup3\n        /* \"#utility.yul\":4234:4243   */\n      dup6\n        /* \"#utility.yul\":4230:4252   */\n      add\n        /* \"#utility.yul\":4209:4262   */\n      tag_362\n      jump\t// in\n    tag_424:\n        /* \"#utility.yul\":4199:4262   */\n      swap2\n      pop\n        /* \"#utility.yul\":4155:4272   */\n      pop\n        /* \"#utility.yul\":4083:4279   */\n      swap3\n      swap2\n      pop\n      pop\n      jump\t// out\n        /* \"#utility.yul\":4285:4692   */\n    tag_90:\n        /* \"#utility.yul\":4353:4359   */\n      0x00\n        /* \"#utility.yul\":4361:4367   */\n      dup1\n        /* \"#utility.yul\":4410:4412   */\n      0x40\n        /* \"#utility.yul\":4398:4407   */\n      dup4\n        /* \"#utility.yul\":4389:4396   */\n      dup6\n        /* \"#utility.yul\":4385:4408   */\n      sub\n        /* \"#utility.yul\":4381:4413   */\n      slt\n        /* \"#utility.yul\":4378:4380   */\n      iszero\n      tag_426\n      jumpi\n        /* \"#utility.yul\":4426:4427   */\n      0x00\n        /* \"#utility.yul\":4423:4424   */\n      dup1\n        /* \"#utility.yul\":4416:4428   */\n      revert\n        /* \"#utility.yul\":4378:4380   */\n    tag_426:\n        /* \"#utility.yul\":4469:4470   */\n      0x00\n        /* \"#utility.yul\":4494:4547   */\n      tag_427\n        /* \"#utility.yul\":4539:4546   */\n      dup6\n        /* \"#utility.yul\":4530:4536   */\n      dup3\n        /* \"#utility.yul\":4519:4528   */\n      dup7\n        /* \"#utility.yul\":4515:4537   */\n      add\n        /* \"#utility.yul\":4494:4547   */\n      tag_362\n      jump\t// in\n    tag_427:\n        /* \"#utility.yul\":4484:4547   */\n      swap3\n      pop\n        /* \"#utility.yul\":4440:4557   */\n      pop\n        /* \"#utility.yul\":4596:4598   */\n      0x20\n        /* \"#utility.yul\":4622:4675   */\n      tag_428\n        /* \"#utility.yul\":4667:4674   */\n      dup6\n        /* \"#utility.yul\":4658:4664   */\n      dup3\n        /* \"#utility.yul\":4647:4656   */\n      dup7\n        /* \"#utility.yul\":4643:4665   */\n      add\n        /* \"#utility.yul\":4622:4675   */\n      tag_362\n      jump\t// in\n    tag_428:\n        /* \"#utility.yul\":4612:4675   */\n      swap2\n      pop\n        /* \"#utility.yul\":4567:4685   */\n      pop\n        /* \"#utility.yul\":4368:4692   */\n      swap3\n      pop\n      swap3\n      swap1\n      pop\n      jump\t// out\n        /* \"#utility.yul\":4698:5250   */\n    tag_45:\n        /* \"#utility.yul\":4775:4781   */\n      0x00\n        /* \"#utility.yul\":4783:4789   */\n      dup1\n        /* \"#utility.yul\":4791:4797   */\n      0x00\n        /* \"#utility.yul\":4840:4842   */\n      0x60\n        /* \"#utility.yul\":4828:4837   */\n      dup5\n        /* \"#utility.yul\":4819:4826   */\n      dup7\n        /* \"#utility.yul\":4815:4838   */\n      sub\n        /* \"#utility.yul\":4811:4843   */\n      slt\n        /* \"#utility.yul\":4808:4810   */\n      iszero\n      tag_430\n      jumpi\n        /* \"#utility.yul\":4856:4857   */\n      0x00\n        /* \"#utility.yul\":4853:4854   */\n      dup1\n        /* \"#utility.yul\":4846:4858   */\n      revert\n        /* \"#utility.yul\":4808:4810   */\n    tag_430:\n        /* \"#utility.yul\":4899:4900   */\n      0x00\n        /* \"#utility.yul\":4924:4977   */\n      tag_431\n        /* \"#utility.yul\":4969:4976   */\n      dup7\n        /* \"#utility.yul\":4960:4966   */\n      dup3\n        /* \"#utility.yul\":4949:4958   */\n      dup8\n        /* \"#utility.yul\":4945:4967   */\n      add\n        /* \"#utility.yul\":4924:4977   */\n      tag_362\n      jump\t// in\n    tag_431:\n        /* \"#utility.yul\":4914:4977   */\n      swap4\n      pop\n        /* \"#utility.yul\":4870:4987   */\n      pop\n        /* \"#utility.yul\":5026:5028   */\n      0x20\n        /* \"#utility.yul\":5052:5105   */\n      tag_432\n        /* \"#utility.yul\":5097:5104   */\n      dup7\n        /* \"#utility.yul\":5088:5094   */\n      dup3\n        /* \"#utility.yul\":5077:5086   */\n      dup8\n        /* \"#utility.yul\":5073:5095   */\n      add\n        /* \"#utility.yul\":5052:5105   */\n      tag_362\n      jump\t// in\n    tag_432:\n        /* \"#utility.yul\":5042:5105   */\n      swap3\n      pop\n        /* \"#utility.yul\":4997:5115   */\n      pop\n        /* \"#utility.yul\":5154:5156   */\n      0x40\n        /* \"#utility.yul\":5180:5233   */\n      tag_433\n        /* \"#utility.yul\":5225:5232   */\n      dup7\n        /* \"#utility.yul\":5216:5222   */\n      dup3\n        /* \"#utility.yul\":5205:5214   */\n      dup8\n        /* \"#utility.yul\":5201:5223   */\n      add\n        /* \"#utility.yul\":5180:5233   */\n      tag_373\n      jump\t// in\n    tag_433:\n        /* \"#utility.yul\":5170:5233   */\n      swap2\n      pop\n        /* \"#utility.yul\":5125:5243   */\n      pop\n        /* \"#utility.yul\":4798:5250   */\n      swap3\n      pop\n      swap3\n      pop\n      swap3\n      jump\t// out\n        /* \"#utility.yul\":5256:6065   */\n    tag_82:\n        /* \"#utility.yul\":5351:5357   */\n      0x00\n        /* \"#utility.yul\":5359:5365   */\n      dup1\n        /* \"#utility.yul\":5367:5373   */\n      0x00\n        /* \"#utility.yul\":5375:5381   */\n      dup1\n        /* \"#utility.yul\":5424:5427   */\n      0x80\n        /* \"#utility.yul\":5412:5421   */\n      dup6\n        /* \"#utility.yul\":5403:5410   */\n      dup8\n        /* \"#utility.yul\":5399:5422   */\n      sub\n        /* \"#utility.yul\":5395:5428   */\n      slt\n        /* \"#utility.yul\":5392:5394   */\n      iszero\n      tag_435\n      jumpi\n        /* \"#utility.yul\":5441:5442   */\n      0x00\n        /* \"#utility.yul\":5438:5439   */\n      dup1\n        /* \"#utility.yul\":5431:5443   */\n      revert\n        /* \"#utility.yul\":5392:5394   */\n    tag_435:\n        /* \"#utility.yul\":5484:5485   */\n      0x00\n        /* \"#utility.yul\":5509:5562   */\n      tag_436\n        /* \"#utility.yul\":5554:5561   */\n      dup8\n        /* \"#utility.yul\":5545:5551   */\n      dup3\n        /* \"#utility.yul\":5534:5543   */\n      dup9\n        /* \"#utility.yul\":5530:5552   */\n      add\n        /* \"#utility.yul\":5509:5562   */\n      tag_362\n      jump\t// in\n    tag_436:\n        /* \"#utility.yul\":5499:5562   */\n      swap5\n      pop\n        /* \"#utility.yul\":5455:5572   */\n      pop\n        /* \"#utility.yul\":5611:5613   */\n      0x20\n        /* \"#utility.yul\":5637:5690   */\n      tag_437\n        /* \"#utility.yul\":5682:5689   */\n      dup8\n        /* \"#utility.yul\":5673:5679   */\n      dup3\n        /* \"#utility.yul\":5662:5671   */\n      dup9\n        /* \"#utility.yul\":5658:5680   */\n      add\n        /* \"#utility.yul\":5637:5690   */\n      tag_362\n      jump\t// in\n    tag_437:\n        /* \"#utility.yul\":5627:5690   */\n      swap4\n      pop\n        /* \"#utility.yul\":5582:5700   */\n      pop\n        /* \"#utility.yul\":5739:5741   */\n      0x40\n        /* \"#utility.yul\":5765:5818   */\n      tag_438\n        /* \"#utility.yul\":5810:5817   */\n      dup8\n        /* \"#utility.yul\":5801:5807   */\n      dup3\n        /* \"#utility.yul\":5790:5799   */\n      dup9\n        /* \"#utility.yul\":5786:5808   */\n      add\n        /* \"#utility.yul\":5765:5818   */\n      tag_373\n      jump\t// in\n    tag_438:\n        /* \"#utility.yul\":5755:5818   */\n      swap3\n      pop\n        /* \"#utility.yul\":5710:5828   */\n      pop\n        /* \"#utility.yul\":5895:5897   */\n      0x60\n        /* \"#utility.yul\":5884:5893   */\n      dup6\n        /* \"#utility.yul\":5880:5898   */\n      add\n        /* \"#utility.yul\":5867:5899   */\n      calldataload\n        /* \"#utility.yul\":5926:5944   */\n      0xffffffffffffffff\n        /* \"#utility.yul\":5918:5924   */\n      dup2\n        /* \"#utility.yul\":5915:5945   */\n      gt\n        /* \"#utility.yul\":5912:5914   */\n      iszero\n      tag_439\n      jumpi\n        /* \"#utility.yul\":5958:5959   */\n      0x00\n        /* \"#utility.yul\":5955:5956   */\n      dup1\n        /* \"#utility.yul\":5948:5960   */\n      revert\n        /* \"#utility.yul\":5912:5914   */\n    tag_439:\n        /* \"#utility.yul\":5986:6048   */\n      tag_440\n        /* \"#utility.yul\":6040:6047   */\n      dup8\n        /* \"#utility.yul\":6031:6037   */\n      dup3\n        /* \"#utility.yul\":6020:6029   */\n      dup9\n        /* \"#utility.yul\":6016:6038   */\n      add\n        /* \"#utility.yul\":5986:6048   */\n      tag_411\n      jump\t// in\n    tag_440:\n        /* \"#utility.yul\":5976:6048   */\n      swap2\n      pop\n        /* \"#utility.yul\":5838:6058   */\n      pop\n        /* \"#utility.yul\":5382:6065   */\n      swap3\n      swap6\n      swap2\n      swap5\n      pop\n      swap3\n      pop\n      jump\t// out\n        /* \"#utility.yul\":6071:7168   */\n    tag_49:\n        /* \"#utility.yul\":6217:6223   */\n      0x00\n        /* \"#utility.yul\":6225:6231   */\n      dup1\n        /* \"#utility.yul\":6233:6239   */\n      0x00\n        /* \"#utility.yul\":6241:6247   */\n      dup1\n        /* \"#utility.yul\":6290:6293   */\n      0x80\n        /* \"#utility.yul\":6278:6287   */\n      dup6\n        /* \"#utility.yul\":6269:6276   */\n      dup8\n        /* \"#utility.yul\":6265:6288   */\n      sub\n        /* \"#utility.yul\":6261:6294   */\n      slt\n        /* \"#utility.yul\":6258:6260   */\n      iszero\n      tag_442\n      jumpi\n        /* \"#utility.yul\":6307:6308   */\n      0x00\n        /* \"#utility.yul\":6304:6305   */\n      dup1\n        /* \"#utility.yul\":6297:6309   */\n      revert\n        /* \"#utility.yul\":6258:6260   */\n    tag_442:\n        /* \"#utility.yul\":6350:6351   */\n      0x00\n        /* \"#utility.yul\":6375:6428   */\n      tag_443\n        /* \"#utility.yul\":6420:6427   */\n      dup8\n        /* \"#utility.yul\":6411:6417   */\n      dup3\n        /* \"#utility.yul\":6400:6409   */\n      dup9\n        /* \"#utility.yul\":6396:6418   */\n      add\n        /* \"#utility.yul\":6375:6428   */\n      tag_362\n      jump\t// in\n    tag_443:\n        /* \"#utility.yul\":6365:6428   */\n      swap5\n      pop\n        /* \"#utility.yul\":6321:6438   */\n      pop\n        /* \"#utility.yul\":6505:6507   */\n      0x20\n        /* \"#utility.yul\":6494:6503   */\n      dup6\n        /* \"#utility.yul\":6490:6508   */\n      add\n        /* \"#utility.yul\":6477:6509   */\n      calldataload\n        /* \"#utility.yul\":6536:6554   */\n      0xffffffffffffffff\n        /* \"#utility.yul\":6528:6534   */\n      dup2\n        /* \"#utility.yul\":6525:6555   */\n      gt\n        /* \"#utility.yul\":6522:6524   */\n      iszero\n      tag_444\n      jumpi\n        /* \"#utility.yul\":6568:6569   */\n      0x00\n        /* \"#utility.yul\":6565:6566   */\n      dup1\n        /* \"#utility.yul\":6558:6570   */\n      revert\n        /* \"#utility.yul\":6522:6524   */\n    tag_444:\n        /* \"#utility.yul\":6596:6674   */\n      tag_445\n        /* \"#utility.yul\":6666:6673   */\n      dup8\n        /* \"#utility.yul\":6657:6663   */\n      dup3\n        /* \"#utility.yul\":6646:6655   */\n      dup9\n        /* \"#utility.yul\":6642:6664   */\n      add\n        /* \"#utility.yul\":6596:6674   */\n      tag_392\n      jump\t// in\n    tag_445:\n        /* \"#utility.yul\":6586:6674   */\n      swap4\n      pop\n        /* \"#utility.yul\":6448:6684   */\n      pop\n        /* \"#utility.yul\":6751:6753   */\n      0x40\n        /* \"#utility.yul\":6740:6749   */\n      dup6\n        /* \"#utility.yul\":6736:6754   */\n      add\n        /* \"#utility.yul\":6723:6755   */\n      calldataload\n        /* \"#utility.yul\":6782:6800   */\n      0xffffffffffffffff\n        /* \"#utility.yul\":6774:6780   */\n      dup2\n        /* \"#utility.yul\":6771:6801   */\n      gt\n        /* \"#utility.yul\":6768:6770   */\n      iszero\n      tag_446\n      jumpi\n        /* \"#utility.yul\":6814:6815   */\n      0x00\n        /* \"#utility.yul\":6811:6812   */\n      dup1\n        /* \"#utility.yul\":6804:6816   */\n      revert\n        /* \"#utility.yul\":6768:6770   */\n    tag_446:\n        /* \"#utility.yul\":6842:6920   */\n      tag_447\n        /* \"#utility.yul\":6912:6919   */\n      dup8\n        /* \"#utility.yul\":6903:6909   */\n      dup3\n        /* \"#utility.yul\":6892:6901   */\n      dup9\n        /* \"#utility.yul\":6888:6910   */\n      add\n        /* \"#utility.yul\":6842:6920   */\n      tag_396\n      jump\t// in\n    tag_447:\n        /* \"#utility.yul\":6832:6920   */\n      swap3\n      pop\n        /* \"#utility.yul\":6694:6930   */\n      pop\n        /* \"#utility.yul\":6997:6999   */\n      0x60\n        /* \"#utility.yul\":6986:6995   */\n      dup6\n        /* \"#utility.yul\":6982:7000   */\n      add\n        /* \"#utility.yul\":6969:7001   */\n      calldataload\n        /* \"#utility.yul\":7028:7046   */\n      0xffffffffffffffff\n        /* \"#utility.yul\":7020:7026   */\n      dup2\n        /* \"#utility.yul\":7017:7047   */\n      gt\n        /* \"#utility.yul\":7014:7016   */\n      iszero\n      tag_448\n      jumpi\n        /* \"#utility.yul\":7060:7061   */\n      0x00\n        /* \"#utility.yul\":7057:7058   */\n      dup1\n        /* \"#utility.yul\":7050:7062   */\n      revert\n        /* \"#utility.yul\":7014:7016   */\n    tag_448:\n        /* \"#utility.yul\":7088:7151   */\n      tag_449\n        /* \"#utility.yul\":7143:7150   */\n      dup8\n        /* \"#utility.yul\":7134:7140   */\n      dup3\n        /* \"#utility.yul\":7123:7132   */\n      dup9\n        /* \"#utility.yul\":7119:7141   */\n      add\n        /* \"#utility.yul\":7088:7151   */\n      tag_415\n      jump\t// in\n    tag_449:\n        /* \"#utility.yul\":7078:7151   */\n      swap2\n      pop\n        /* \"#utility.yul\":6940:7161   */\n      pop\n        /* \"#utility.yul\":6248:7168   */\n      swap3\n      swap6\n      swap2\n      swap5\n      pop\n      swap3\n      pop\n      jump\t// out\n        /* \"#utility.yul\":7174:7575   */\n    tag_78:\n        /* \"#utility.yul\":7239:7245   */\n      0x00\n        /* \"#utility.yul\":7247:7253   */\n      dup1\n        /* \"#utility.yul\":7296:7298   */\n      0x40\n        /* \"#utility.yul\":7284:7293   */\n      dup4\n        /* \"#utility.yul\":7275:7282   */\n      dup6\n        /* \"#utility.yul\":7271:7294   */\n      sub\n        /* \"#utility.yul\":7267:7299   */\n      slt\n        /* \"#utility.yul\":7264:7266   */\n      iszero\n      tag_451\n      jumpi\n        /* \"#utility.yul\":7312:7313   */\n      0x00\n        /* \"#utility.yul\":7309:7310   */\n      dup1\n        /* \"#utility.yul\":7302:7314   */\n      revert\n        /* \"#utility.yul\":7264:7266   */\n    tag_451:\n        /* \"#utility.yul\":7355:7356   */\n      0x00\n        /* \"#utility.yul\":7380:7433   */\n      tag_452\n        /* \"#utility.yul\":7425:7432   */\n      dup6\n        /* \"#utility.yul\":7416:7422   */\n      dup3\n        /* \"#utility.yul\":7405:7414   */\n      dup7\n        /* \"#utility.yul\":7401:7423   */\n      add\n        /* \"#utility.yul\":7380:7433   */\n      tag_362\n      jump\t// in\n    tag_452:\n        /* \"#utility.yul\":7370:7433   */\n      swap3\n      pop\n        /* \"#utility.yul\":7326:7443   */\n      pop\n        /* \"#utility.yul\":7482:7484   */\n      0x20\n        /* \"#utility.yul\":7508:7558   */\n      tag_453\n        /* \"#utility.yul\":7550:7557   */\n      dup6\n        /* \"#utility.yul\":7541:7547   */\n      dup3\n        /* \"#utility.yul\":7530:7539   */\n      dup7\n        /* \"#utility.yul\":7526:7548   */\n      add\n        /* \"#utility.yul\":7508:7558   */\n      tag_400\n      jump\t// in\n    tag_453:\n        /* \"#utility.yul\":7498:7558   */\n      swap2\n      pop\n        /* \"#utility.yul\":7453:7568   */\n      pop\n        /* \"#utility.yul\":7254:7575   */\n      swap3\n      pop\n      swap3\n      swap1\n      pop\n      jump\t// out\n        /* \"#utility.yul\":7581:7988   */\n    tag_41:\n        /* \"#utility.yul\":7649:7655   */\n      0x00\n        /* \"#utility.yul\":7657:7663   */\n      dup1\n        /* \"#utility.yul\":7706:7708   */\n      0x40\n        /* \"#utility.yul\":7694:7703   */\n      dup4\n        /* \"#utility.yul\":7685:7692   */\n      dup6\n        /* \"#utility.yul\":7681:7704   */\n      sub\n        /* \"#utility.yul\":7677:7709   */\n      slt\n        /* \"#utility.yul\":7674:7676   */\n      iszero\n      tag_455\n      jumpi\n        /* \"#utility.yul\":7722:7723   */\n      0x00\n        /* \"#utility.yul\":7719:7720   */\n      dup1\n        /* \"#utility.yul\":7712:7724   */\n      revert\n        /* \"#utility.yul\":7674:7676   */\n    tag_455:\n        /* \"#utility.yul\":7765:7766   */\n      0x00\n        /* \"#utility.yul\":7790:7843   */\n      tag_456\n        /* \"#utility.yul\":7835:7842   */\n      dup6\n        /* \"#utility.yul\":7826:7832   */\n      dup3\n        /* \"#utility.yul\":7815:7824   */\n      dup7\n        /* \"#utility.yul\":7811:7833   */\n      add\n        /* \"#utility.yul\":7790:7843   */\n      tag_362\n      jump\t// in\n    tag_456:\n        /* \"#utility.yul\":7780:7843   */\n      swap3\n      pop\n        /* \"#utility.yul\":7736:7853   */\n      pop\n        /* \"#utility.yul\":7892:7894   */\n      0x20\n        /* \"#utility.yul\":7918:7971   */\n      tag_457\n        /* \"#utility.yul\":7963:7970   */\n      dup6\n        /* \"#utility.yul\":7954:7960   */\n      dup3\n        /* \"#utility.yul\":7943:7952   */\n      dup7\n        /* \"#utility.yul\":7939:7961   */\n      add\n        /* \"#utility.yul\":7918:7971   */\n      tag_373\n      jump\t// in\n    tag_457:\n        /* \"#utility.yul\":7908:7971   */\n      swap2\n      pop\n        /* \"#utility.yul\":7863:7981   */\n      pop\n        /* \"#utility.yul\":7664:7988   */\n      swap3\n      pop\n      swap3\n      swap1\n      pop\n      jump\t// out\n        /* \"#utility.yul\":7994:8254   */\n    tag_25:\n        /* \"#utility.yul\":8052:8058   */\n      0x00\n        /* \"#utility.yul\":8101:8103   */\n      0x20\n        /* \"#utility.yul\":8089:8098   */\n      dup3\n        /* \"#utility.yul\":8080:8087   */\n      dup5\n        /* \"#utility.yul\":8076:8099   */\n      sub\n        /* \"#utility.yul\":8072:8104   */\n      slt\n        /* \"#utility.yul\":8069:8071   */\n      iszero\n      tag_459\n      jumpi\n        /* \"#utility.yul\":8117:8118   */\n      0x00\n        /* \"#utility.yul\":8114:8115   */\n      dup1\n        /* \"#utility.yul\":8107:8119   */\n      revert\n        /* \"#utility.yul\":8069:8071   */\n    tag_459:\n        /* \"#utility.yul\":8160:8161   */\n      0x00\n        /* \"#utility.yul\":8185:8237   */\n      tag_460\n        /* \"#utility.yul\":8229:8236   */\n      dup5\n        /* \"#utility.yul\":8220:8226   */\n      dup3\n        /* \"#utility.yul\":8209:8218   */\n      dup6\n        /* \"#utility.yul\":8205:8227   */\n      add\n        /* \"#utility.yul\":8185:8237   */\n      tag_404\n      jump\t// in\n    tag_460:\n        /* \"#utility.yul\":8175:8237   */\n      swap2\n      pop\n        /* \"#utility.yul\":8131:8247   */\n      pop\n        /* \"#utility.yul\":8059:8254   */\n      swap3\n      swap2\n      pop\n      pop\n      jump\t// out\n        /* \"#utility.yul\":8260:8542   */\n    tag_302:\n        /* \"#utility.yul\":8329:8335   */\n      0x00\n        /* \"#utility.yul\":8378:8380   */\n      0x20\n        /* \"#utility.yul\":8366:8375   */\n      dup3\n        /* \"#utility.yul\":8357:8364   */\n      dup5\n        /* \"#utility.yul\":8353:8376   */\n      sub\n        /* \"#utility.yul\":8349:8381   */\n      slt\n        /* \"#utility.yul\":8346:8348   */\n      iszero\n      tag_462\n      jumpi\n        /* \"#utility.yul\":8394:8395   */\n      0x00\n        /* \"#utility.yul\":8391:8392   */\n      dup1\n        /* \"#utility.yul\":8384:8396   */\n      revert\n        /* \"#utility.yul\":8346:8348   */\n    tag_462:\n        /* \"#utility.yul\":8437:8438   */\n      0x00\n        /* \"#utility.yul\":8462:8525   */\n      tag_463\n        /* \"#utility.yul\":8517:8524   */\n      dup5\n        /* \"#utility.yul\":8508:8514   */\n      dup3\n        /* \"#utility.yul\":8497:8506   */\n      dup6\n        /* \"#utility.yul\":8493:8515   */\n      add\n        /* \"#utility.yul\":8462:8525   */\n      tag_408\n      jump\t// in\n    tag_463:\n        /* \"#utility.yul\":8452:8525   */\n      swap2\n      pop\n        /* \"#utility.yul\":8408:8535   */\n      pop\n        /* \"#utility.yul\":8336:8542   */\n      swap3\n      swap2\n      pop\n      pop\n      jump\t// out\n        /* \"#utility.yul\":8548:8810   */\n    tag_35:\n        /* \"#utility.yul\":8607:8613   */\n      0x00\n        /* \"#utility.yul\":8656:8658   */\n      0x20\n        /* \"#utility.yul\":8644:8653   */\n      dup3\n        /* \"#utility.yul\":8635:8642   */\n      dup5\n        /* \"#utility.yul\":8631:8654   */\n      sub\n        /* \"#utility.yul\":8627:8659   */\n      slt\n        /* \"#utility.yul\":8624:8626   */\n      iszero\n      tag_465\n      jumpi\n        /* \"#utility.yul\":8672:8673   */\n      0x00\n        /* \"#utility.yul\":8669:8670   */\n      dup1\n        /* \"#utility.yul\":8662:8674   */\n      revert\n        /* \"#utility.yul\":8624:8626   */\n    tag_465:\n        /* \"#utility.yul\":8715:8716   */\n      0x00\n        /* \"#utility.yul\":8740:8793   */\n      tag_466\n        /* \"#utility.yul\":8785:8792   */\n      dup5\n        /* \"#utility.yul\":8776:8782   */\n      dup3\n        /* \"#utility.yul\":8765:8774   */\n      dup6\n        /* \"#utility.yul\":8761:8783   */\n      add\n        /* \"#utility.yul\":8740:8793   */\n      tag_373\n      jump\t// in\n    tag_466:\n        /* \"#utility.yul\":8730:8793   */\n      swap2\n      pop\n        /* \"#utility.yul\":8686:8803   */\n      pop\n        /* \"#utility.yul\":8614:8810   */\n      swap3\n      swap2\n      pop\n      pop\n      jump\t// out\n        /* \"#utility.yul\":8816:8995   */\n    tag_467:\n        /* \"#utility.yul\":8885:8895   */\n      0x00\n        /* \"#utility.yul\":8906:8952   */\n      tag_469\n        /* \"#utility.yul\":8948:8951   */\n      dup4\n        /* \"#utility.yul\":8940:8946   */\n      dup4\n        /* \"#utility.yul\":8906:8952   */\n      tag_470\n      jump\t// in\n    tag_469:\n        /* \"#utility.yul\":8984:8988   */\n      0x20\n        /* \"#utility.yul\":8979:8982   */\n      dup4\n        /* \"#utility.yul\":8975:8989   */\n      add\n        /* \"#utility.yul\":8961:8989   */\n      swap1\n      pop\n        /* \"#utility.yul\":8896:8995   */\n      swap3\n      swap2\n      pop\n      pop\n      jump\t// out\n        /* \"#utility.yul\":9001:9180   */\n    tag_471:\n        /* \"#utility.yul\":9070:9080   */\n      0x00\n        /* \"#utility.yul\":9091:9137   */\n      tag_473\n        /* \"#utility.yul\":9133:9136   */\n      dup4\n        /* \"#utility.yul\":9125:9131   */\n      dup4\n        /* \"#utility.yul\":9091:9137   */\n      tag_474\n      jump\t// in\n    tag_473:\n        /* \"#utility.yul\":9169:9173   */\n      0x20\n        /* \"#utility.yul\":9164:9167   */\n      dup4\n        /* \"#utility.yul\":9160:9174   */\n      add\n        /* \"#utility.yul\":9146:9174   */\n      swap1\n      pop\n        /* \"#utility.yul\":9081:9180   */\n      swap3\n      swap2\n      pop\n      pop\n      jump\t// out\n        /* \"#utility.yul\":9186:9294   */\n    tag_470:\n        /* \"#utility.yul\":9263:9287   */\n      tag_476\n        /* \"#utility.yul\":9281:9286   */\n      dup2\n        /* \"#utility.yul\":9263:9287   */\n      tag_477\n      jump\t// in\n    tag_476:\n        /* \"#utility.yul\":9258:9261   */\n      dup3\n        /* \"#utility.yul\":9251:9288   */\n      mstore\n        /* \"#utility.yul\":9241:9294   */\n      pop\n      pop\n      jump\t// out\n        /* \"#utility.yul\":9300:9418   */\n    tag_478:\n        /* \"#utility.yul\":9387:9411   */\n      tag_480\n        /* \"#utility.yul\":9405:9410   */\n      dup2\n        /* \"#utility.yul\":9387:9411   */\n      tag_477\n      jump\t// in\n    tag_480:\n        /* \"#utility.yul\":9382:9385   */\n      dup3\n        /* \"#utility.yul\":9375:9412   */\n      mstore\n        /* \"#utility.yul\":9365:9418   */\n      pop\n      pop\n      jump\t// out\n        /* \"#utility.yul\":9454:10186   */\n    tag_481:\n        /* \"#utility.yul\":9573:9576   */\n      0x00\n        /* \"#utility.yul\":9602:9656   */\n      tag_483\n        /* \"#utility.yul\":9650:9655   */\n      dup3\n        /* \"#utility.yul\":9602:9656   */\n      tag_484\n      jump\t// in\n    tag_483:\n        /* \"#utility.yul\":9672:9758   */\n      tag_485\n        /* \"#utility.yul\":9751:9757   */\n      dup2\n        /* \"#utility.yul\":9746:9749   */\n      dup6\n        /* \"#utility.yul\":9672:9758   */\n      tag_486\n      jump\t// in\n    tag_485:\n        /* \"#utility.yul\":9665:9758   */\n      swap4\n      pop\n        /* \"#utility.yul\":9782:9838   */\n      tag_487\n        /* \"#utility.yul\":9832:9837   */\n      dup4\n        /* \"#utility.yul\":9782:9838   */\n      tag_488\n      jump\t// in\n    tag_487:\n        /* \"#utility.yul\":9861:9868   */\n      dup1\n        /* \"#utility.yul\":9892:9893   */\n      0x00\n        /* \"#utility.yul\":9877:10161   */\n    tag_489:\n        /* \"#utility.yul\":9902:9908   */\n      dup4\n        /* \"#utility.yul\":9899:9900   */\n      dup2\n        /* \"#utility.yul\":9896:9909   */\n      lt\n        /* \"#utility.yul\":9877:10161   */\n      iszero\n      tag_491\n      jumpi\n        /* \"#utility.yul\":9978:9984   */\n      dup2\n        /* \"#utility.yul\":9972:9985   */\n      mload\n        /* \"#utility.yul\":10005:10068   */\n      tag_492\n        /* \"#utility.yul\":10064:10067   */\n      dup9\n        /* \"#utility.yul\":10049:10062   */\n      dup3\n        /* \"#utility.yul\":10005:10068   */\n      tag_467\n      jump\t// in\n    tag_492:\n        /* \"#utility.yul\":9998:10068   */\n      swap8\n      pop\n        /* \"#utility.yul\":10091:10151   */\n      tag_493\n        /* \"#utility.yul\":10144:10150   */\n      dup4\n        /* \"#utility.yul\":10091:10151   */\n      tag_494\n      jump\t// in\n    tag_493:\n        /* \"#utility.yul\":10081:10151   */\n      swap3\n      pop\n        /* \"#utility.yul\":9937:10161   */\n      pop\n        /* \"#utility.yul\":9924:9925   */\n      0x01\n        /* \"#utility.yul\":9921:9922   */\n      dup2\n        /* \"#utility.yul\":9917:9926   */\n      add\n        /* \"#utility.yul\":9912:9926   */\n      swap1\n      pop\n        /* \"#utility.yul\":9877:10161   */\n      jump(tag_489)\n    tag_491:\n        /* \"#utility.yul\":9881:9895   */\n      pop\n        /* \"#utility.yul\":10177:10180   */\n      dup6\n        /* \"#utility.yul\":10170:10180   */\n      swap4\n      pop\n        /* \"#utility.yul\":9578:10186   */\n      pop\n      pop\n      pop\n      swap3\n      swap2\n      pop\n      pop\n      jump\t// out\n        /* \"#utility.yul\":10222:10954   */\n    tag_495:\n        /* \"#utility.yul\":10341:10344   */\n      0x00\n        /* \"#utility.yul\":10370:10424   */\n      tag_497\n        /* \"#utility.yul\":10418:10423   */\n      dup3\n        /* \"#utility.yul\":10370:10424   */\n      tag_498\n      jump\t// in\n    tag_497:\n        /* \"#utility.yul\":10440:10526   */\n      tag_499\n        /* \"#utility.yul\":10519:10525   */\n      dup2\n        /* \"#utility.yul\":10514:10517   */\n      dup6\n        /* \"#utility.yul\":10440:10526   */\n      tag_500\n      jump\t// in\n    tag_499:\n        /* \"#utility.yul\":10433:10526   */\n      swap4\n      pop\n        /* \"#utility.yul\":10550:10606   */\n      tag_501\n        /* \"#utility.yul\":10600:10605   */\n      dup4\n        /* \"#utility.yul\":10550:10606   */\n      tag_502\n      jump\t// in\n    tag_501:\n        /* \"#utility.yul\":10629:10636   */\n      dup1\n        /* \"#utility.yul\":10660:10661   */\n      0x00\n        /* \"#utility.yul\":10645:10929   */\n    tag_503:\n        /* \"#utility.yul\":10670:10676   */\n      dup4\n        /* \"#utility.yul\":10667:10668   */\n      dup2\n        /* \"#utility.yul\":10664:10677   */\n      lt\n        /* \"#utility.yul\":10645:10929   */\n      iszero\n      tag_505\n      jumpi\n        /* \"#utility.yul\":10746:10752   */\n      dup2\n        /* \"#utility.yul\":10740:10753   */\n      mload\n        /* \"#utility.yul\":10773:10836   */\n      tag_506\n        /* \"#utility.yul\":10832:10835   */\n      dup9\n        /* \"#utility.yul\":10817:10830   */\n      dup3\n        /* \"#utility.yul\":10773:10836   */\n      tag_471\n      jump\t// in\n    tag_506:\n        /* \"#utility.yul\":10766:10836   */\n      swap8\n      pop\n        /* \"#utility.yul\":10859:10919   */\n      tag_507\n        /* \"#utility.yul\":10912:10918   */\n      dup4\n        /* \"#utility.yul\":10859:10919   */\n      tag_508\n      jump\t// in\n    tag_507:\n        /* \"#utility.yul\":10849:10919   */\n      swap3\n      pop\n        /* \"#utility.yul\":10705:10929   */\n      pop\n        /* \"#utility.yul\":10692:10693   */\n      0x01\n        /* \"#utility.yul\":10689:10690   */\n      dup2\n        /* \"#utility.yul\":10685:10694   */\n      add\n        /* \"#utility.yul\":10680:10694   */\n      swap1\n      pop\n        /* \"#utility.yul\":10645:10929   */\n      jump(tag_503)\n    tag_505:\n        /* \"#utility.yul\":10649:10663   */\n      pop\n        /* \"#utility.yul\":10945:10948   */\n      dup6\n        /* \"#utility.yul\":10938:10948   */\n      swap4\n      pop\n        /* \"#utility.yul\":10346:10954   */\n      pop\n      pop\n      pop\n      swap3\n      swap2\n      pop\n      pop\n      jump\t// out\n        /* \"#utility.yul\":10960:11069   */\n    tag_509:\n        /* \"#utility.yul\":11041:11062   */\n      tag_511\n        /* \"#utility.yul\":11056:11061   */\n      dup2\n        /* \"#utility.yul\":11041:11062   */\n      tag_512\n      jump\t// in\n    tag_511:\n        /* \"#utility.yul\":11036:11039   */\n      dup3\n        /* \"#utility.yul\":11029:11063   */\n      mstore\n        /* \"#utility.yul\":11019:11069   */\n      pop\n      pop\n      jump\t// out\n        /* \"#utility.yul\":11075:11435   */\n    tag_513:\n        /* \"#utility.yul\":11161:11164   */\n      0x00\n        /* \"#utility.yul\":11189:11227   */\n      tag_515\n        /* \"#utility.yul\":11221:11226   */\n      dup3\n        /* \"#utility.yul\":11189:11227   */\n      tag_516\n      jump\t// in\n    tag_515:\n        /* \"#utility.yul\":11243:11313   */\n      tag_517\n        /* \"#utility.yul\":11306:11312   */\n      dup2\n        /* \"#utility.yul\":11301:11304   */\n      dup6\n        /* \"#utility.yul\":11243:11313   */\n      tag_518\n      jump\t// in\n    tag_517:\n        /* \"#utility.yul\":11236:11313   */\n      swap4\n      pop\n        /* \"#utility.yul\":11322:11374   */\n      tag_519\n        /* \"#utility.yul\":11367:11373   */\n      dup2\n        /* \"#utility.yul\":11362:11365   */\n      dup6\n        /* \"#utility.yul\":11355:11359   */\n      0x20\n        /* \"#utility.yul\":11348:11353   */\n      dup7\n        /* \"#utility.yul\":11344:11360   */\n      add\n        /* \"#utility.yul\":11322:11374   */\n      tag_520\n      jump\t// in\n    tag_519:\n        /* \"#utility.yul\":11399:11428   */\n      tag_521\n        /* \"#utility.yul\":11421:11427   */\n      dup2\n        /* \"#utility.yul\":11399:11428   */\n      tag_522\n      jump\t// in\n    tag_521:\n        /* \"#utility.yul\":11394:11397   */\n      dup5\n        /* \"#utility.yul\":11390:11429   */\n      add\n        /* \"#utility.yul\":11383:11429   */\n      swap2\n      pop\n        /* \"#utility.yul\":11165:11435   */\n      pop\n      swap3\n      swap2\n      pop\n      pop\n      jump\t// out\n        /* \"#utility.yul\":11441:11805   */\n    tag_523:\n        /* \"#utility.yul\":11529:11532   */\n      0x00\n        /* \"#utility.yul\":11557:11596   */\n      tag_525\n        /* \"#utility.yul\":11590:11595   */\n      dup3\n        /* \"#utility.yul\":11557:11596   */\n      tag_526\n      jump\t// in\n    tag_525:\n        /* \"#utility.yul\":11612:11683   */\n      tag_527\n        /* \"#utility.yul\":11676:11682   */\n      dup2\n        /* \"#utility.yul\":11671:11674   */\n      dup6\n        /* \"#utility.yul\":11612:11683   */\n      tag_528\n      jump\t// in\n    tag_527:\n        /* \"#utility.yul\":11605:11683   */\n      swap4\n      pop\n        /* \"#utility.yul\":11692:11744   */\n      tag_529\n        /* \"#utility.yul\":11737:11743   */\n      dup2\n        /* \"#utility.yul\":11732:11735   */\n      dup6\n        /* \"#utility.yul\":11725:11729   */\n      0x20\n        /* \"#utility.yul\":11718:11723   */\n      dup7\n        /* \"#utility.yul\":11714:11730   */\n      add\n        /* \"#utility.yul\":11692:11744   */\n      tag_520\n      jump\t// in\n    tag_529:\n        /* \"#utility.yul\":11769:11798   */\n      tag_530\n        /* \"#utility.yul\":11791:11797   */\n      dup2\n        /* \"#utility.yul\":11769:11798   */\n      tag_522\n      jump\t// in\n    tag_530:\n        /* \"#utility.yul\":11764:11767   */\n      dup5\n        /* \"#utility.yul\":11760:11799   */\n      add\n        /* \"#utility.yul\":11753:11799   */\n      swap2\n      pop\n        /* \"#utility.yul\":11533:11805   */\n      pop\n      swap3\n      swap2\n      pop\n      pop\n      jump\t// out\n        /* \"#utility.yul\":11811:12188   */\n    tag_531:\n        /* \"#utility.yul\":11917:11920   */\n      0x00\n        /* \"#utility.yul\":11945:11984   */\n      tag_533\n        /* \"#utility.yul\":11978:11983   */\n      dup3\n        /* \"#utility.yul\":11945:11984   */\n      tag_526\n      jump\t// in\n    tag_533:\n        /* \"#utility.yul\":12000:12089   */\n      tag_534\n        /* \"#utility.yul\":12082:12088   */\n      dup2\n        /* \"#utility.yul\":12077:12080   */\n      dup6\n        /* \"#utility.yul\":12000:12089   */\n      tag_535\n      jump\t// in\n    tag_534:\n        /* \"#utility.yul\":11993:12089   */\n      swap4\n      pop\n        /* \"#utility.yul\":12098:12150   */\n      tag_536\n        /* \"#utility.yul\":12143:12149   */\n      dup2\n        /* \"#utility.yul\":12138:12141   */\n      dup6\n        /* \"#utility.yul\":12131:12135   */\n      0x20\n        /* \"#utility.yul\":12124:12129   */\n      dup7\n        /* \"#utility.yul\":12120:12136   */\n      add\n        /* \"#utility.yul\":12098:12150   */\n      tag_520\n      jump\t// in\n    tag_536:\n        /* \"#utility.yul\":12175:12181   */\n      dup1\n        /* \"#utility.yul\":12170:12173   */\n      dup5\n        /* \"#utility.yul\":12166:12182   */\n      add\n        /* \"#utility.yul\":12159:12182   */\n      swap2\n      pop\n        /* \"#utility.yul\":11921:12188   */\n      pop\n      swap3\n      swap2\n      pop\n      pop\n      jump\t// out\n        /* \"#utility.yul\":12194:12560   */\n    tag_537:\n        /* \"#utility.yul\":12336:12339   */\n      0x00\n        /* \"#utility.yul\":12357:12424   */\n      tag_539\n        /* \"#utility.yul\":12421:12423   */\n      0x2d\n        /* \"#utility.yul\":12416:12419   */\n      dup4\n        /* \"#utility.yul\":12357:12424   */\n      tag_528\n      jump\t// in\n    tag_539:\n        /* \"#utility.yul\":12350:12424   */\n      swap2\n      pop\n        /* \"#utility.yul\":12433:12526   */\n      tag_540\n        /* \"#utility.yul\":12522:12525   */\n      dup3\n        /* \"#utility.yul\":12433:12526   */\n      tag_541\n      jump\t// in\n    tag_540:\n        /* \"#utility.yul\":12551:12553   */\n      0x40\n        /* \"#utility.yul\":12546:12549   */\n      dup3\n        /* \"#utility.yul\":12542:12554   */\n      add\n        /* \"#utility.yul\":12535:12554   */\n      swap1\n      pop\n        /* \"#utility.yul\":12340:12560   */\n      swap2\n      swap1\n      pop\n      jump\t// out\n        /* \"#utility.yul\":12566:12932   */\n    tag_542:\n        /* \"#utility.yul\":12708:12711   */\n      0x00\n        /* \"#utility.yul\":12729:12796   */\n      tag_544\n        /* \"#utility.yul\":12793:12795   */\n      0x32\n        /* \"#utility.yul\":12788:12791   */\n      dup4\n        /* \"#utility.yul\":12729:12796   */\n      tag_528\n      jump\t// in\n    tag_544:\n        /* \"#utility.yul\":12722:12796   */\n      swap2\n      pop\n        /* \"#utility.yul\":12805:12898   */\n      tag_545\n        /* \"#utility.yul\":12894:12897   */\n      dup3\n        /* \"#utility.yul\":12805:12898   */\n      tag_546\n      jump\t// in\n    tag_545:\n        /* \"#utility.yul\":12923:12925   */\n      0x40\n        /* \"#utility.yul\":12918:12921   */\n      dup3\n        /* \"#utility.yul\":12914:12926   */\n      add\n        /* \"#utility.yul\":12907:12926   */\n      swap1\n      pop\n        /* \"#utility.yul\":12712:12932   */\n      swap2\n      swap1\n      pop\n      jump\t// out\n        /* \"#utility.yul\":12938:13304   */\n    tag_547:\n        /* \"#utility.yul\":13080:13083   */\n      0x00\n        /* \"#utility.yul\":13101:13168   */\n      tag_549\n        /* \"#utility.yul\":13165:13167   */\n      0x25\n        /* \"#utility.yul\":13160:13163   */\n      dup4\n        /* \"#utility.yul\":13101:13168   */\n      tag_528\n      jump\t// in\n    tag_549:\n        /* \"#utility.yul\":13094:13168   */\n      swap2\n      pop\n        /* \"#utility.yul\":13177:13270   */\n      tag_550\n        /* \"#utility.yul\":13266:13269   */\n      dup3\n        /* \"#utility.yul\":13177:13270   */\n      tag_551\n      jump\t// in\n    tag_550:\n        /* \"#utility.yul\":13295:13297   */\n      0x40\n        /* \"#utility.yul\":13290:13293   */\n      dup3\n        /* \"#utility.yul\":13286:13298   */\n      add\n        /* \"#utility.yul\":13279:13298   */\n      swap1\n      pop\n        /* \"#utility.yul\":13084:13304   */\n      swap2\n      swap1\n      pop\n      jump\t// out\n        /* \"#utility.yul\":13310:13676   */\n    tag_552:\n        /* \"#utility.yul\":13452:13455   */\n      0x00\n        /* \"#utility.yul\":13473:13540   */\n      tag_554\n        /* \"#utility.yul\":13537:13539   */\n      0x1c\n        /* \"#utility.yul\":13532:13535   */\n      dup4\n        /* \"#utility.yul\":13473:13540   */\n      tag_528\n      jump\t// in\n    tag_554:\n        /* \"#utility.yul\":13466:13540   */\n      swap2\n      pop\n        /* \"#utility.yul\":13549:13642   */\n      tag_555\n        /* \"#utility.yul\":13638:13641   */\n      dup3\n        /* \"#utility.yul\":13549:13642   */\n      tag_556\n      jump\t// in\n    tag_555:\n        /* \"#utility.yul\":13667:13669   */\n      0x20\n        /* \"#utility.yul\":13662:13665   */\n      dup3\n        /* \"#utility.yul\":13658:13670   */\n      add\n        /* \"#utility.yul\":13651:13670   */\n      swap1\n      pop\n        /* \"#utility.yul\":13456:13676   */\n      swap2\n      swap1\n      pop\n      jump\t// out\n        /* \"#utility.yul\":13682:14048   */\n    tag_557:\n        /* \"#utility.yul\":13824:13827   */\n      0x00\n        /* \"#utility.yul\":13845:13912   */\n      tag_559\n        /* \"#utility.yul\":13909:13911   */\n      0x24\n        /* \"#utility.yul\":13904:13907   */\n      dup4\n        /* \"#utility.yul\":13845:13912   */\n      tag_528\n      jump\t// in\n    tag_559:\n        /* \"#utility.yul\":13838:13912   */\n      swap2\n      pop\n        /* \"#utility.yul\":13921:14014   */\n      tag_560\n        /* \"#utility.yul\":14010:14013   */\n      dup3\n        /* \"#utility.yul\":13921:14014   */\n      tag_561\n      jump\t// in\n    tag_560:\n        /* \"#utility.yul\":14039:14041   */\n      0x40\n        /* \"#utility.yul\":14034:14037   */\n      dup3\n        /* \"#utility.yul\":14030:14042   */\n      add\n        /* \"#utility.yul\":14023:14042   */\n      swap1\n      pop\n        /* \"#utility.yul\":13828:14048   */\n      swap2\n      swap1\n      pop\n      jump\t// out\n        /* \"#utility.yul\":14054:14420   */\n    tag_562:\n        /* \"#utility.yul\":14196:14199   */\n      0x00\n        /* \"#utility.yul\":14217:14284   */\n      tag_564\n        /* \"#utility.yul\":14281:14283   */\n      0x19\n        /* \"#utility.yul\":14276:14279   */\n      dup4\n        /* \"#utility.yul\":14217:14284   */\n      tag_528\n      jump\t// in\n    tag_564:\n        /* \"#utility.yul\":14210:14284   */\n      swap2\n      pop\n        /* \"#utility.yul\":14293:14386   */\n      tag_565\n        /* \"#utility.yul\":14382:14385   */\n      dup3\n        /* \"#utility.yul\":14293:14386   */\n      tag_566\n      jump\t// in\n    tag_565:\n        /* \"#utility.yul\":14411:14413   */\n      0x20\n        /* \"#utility.yul\":14406:14409   */\n      dup3\n        /* \"#utility.yul\":14402:14414   */\n      add\n        /* \"#utility.yul\":14395:14414   */\n      swap1\n      pop\n        /* \"#utility.yul\":14200:14420   */\n      swap2\n      swap1\n      pop\n      jump\t// out\n        /* \"#utility.yul\":14426:14792   */\n    tag_567:\n        /* \"#utility.yul\":14568:14571   */\n      0x00\n        /* \"#utility.yul\":14589:14656   */\n      tag_569\n        /* \"#utility.yul\":14653:14655   */\n      0x29\n        /* \"#utility.yul\":14648:14651   */\n      dup4\n        /* \"#utility.yul\":14589:14656   */\n      tag_528\n      jump\t// in\n    tag_569:\n        /* \"#utility.yul\":14582:14656   */\n      swap2\n      pop\n        /* \"#utility.yul\":14665:14758   */\n      tag_570\n        /* \"#utility.yul\":14754:14757   */\n      dup3\n        /* \"#utility.yul\":14665:14758   */\n      tag_571\n      jump\t// in\n    tag_570:\n        /* \"#utility.yul\":14783:14785   */\n      0x40\n        /* \"#utility.yul\":14778:14781   */\n      dup3\n        /* \"#utility.yul\":14774:14786   */\n      add\n        /* \"#utility.yul\":14767:14786   */\n      swap1\n      pop\n        /* \"#utility.yul\":14572:14792   */\n      swap2\n      swap1\n      pop\n      jump\t// out\n        /* \"#utility.yul\":14798:15164   */\n    tag_572:\n        /* \"#utility.yul\":14940:14943   */\n      0x00\n        /* \"#utility.yul\":14961:15028   */\n      tag_574\n        /* \"#utility.yul\":15025:15027   */\n      0x2e\n        /* \"#utility.yul\":15020:15023   */\n      dup4\n        /* \"#utility.yul\":14961:15028   */\n      tag_528\n      jump\t// in\n    tag_574:\n        /* \"#utility.yul\":14954:15028   */\n      swap2\n      pop\n        /* \"#utility.yul\":15037:15130   */\n      tag_575\n        /* \"#utility.yul\":15126:15129   */\n      dup3\n        /* \"#utility.yul\":15037:15130   */\n      tag_576\n      jump\t// in\n    tag_575:\n        /* \"#utility.yul\":15155:15157   */\n      0x40\n        /* \"#utility.yul\":15150:15153   */\n      dup3\n        /* \"#utility.yul\":15146:15158   */\n      add\n        /* \"#utility.yul\":15139:15158   */\n      swap1\n      pop\n        /* \"#utility.yul\":14944:15164   */\n      swap2\n      swap1\n      pop\n      jump\t// out\n        /* \"#utility.yul\":15170:15536   */\n    tag_577:\n        /* \"#utility.yul\":15312:15315   */\n      0x00\n        /* \"#utility.yul\":15333:15400   */\n      tag_579\n        /* \"#utility.yul\":15397:15399   */\n      0x20\n        /* \"#utility.yul\":15392:15395   */\n      dup4\n        /* \"#utility.yul\":15333:15400   */\n      tag_528\n      jump\t// in\n    tag_579:\n        /* \"#utility.yul\":15326:15400   */\n      swap2\n      pop\n        /* \"#utility.yul\":15409:15502   */\n      tag_580\n        /* \"#utility.yul\":15498:15501   */\n      dup3\n        /* \"#utility.yul\":15409:15502   */\n      tag_581\n      jump\t// in\n    tag_580:\n        /* \"#utility.yul\":15527:15529   */\n      0x20\n        /* \"#utility.yul\":15522:15525   */\n      dup3\n        /* \"#utility.yul\":15518:15530   */\n      add\n        /* \"#utility.yul\":15511:15530   */\n      swap1\n      pop\n        /* \"#utility.yul\":15316:15536   */\n      swap2\n      swap1\n      pop\n      jump\t// out\n        /* \"#utility.yul\":15542:15908   */\n    tag_582:\n        /* \"#utility.yul\":15684:15687   */\n      0x00\n        /* \"#utility.yul\":15705:15772   */\n      tag_584\n        /* \"#utility.yul\":15769:15771   */\n      0x31\n        /* \"#utility.yul\":15764:15767   */\n      dup4\n        /* \"#utility.yul\":15705:15772   */\n      tag_528\n      jump\t// in\n    tag_584:\n        /* \"#utility.yul\":15698:15772   */\n      swap2\n      pop\n        /* \"#utility.yul\":15781:15874   */\n      tag_585\n        /* \"#utility.yul\":15870:15873   */\n      dup3\n        /* \"#utility.yul\":15781:15874   */\n      tag_586\n      jump\t// in\n    tag_585:\n        /* \"#utility.yul\":15899:15901   */\n      0x40\n        /* \"#utility.yul\":15894:15897   */\n      dup3\n        /* \"#utility.yul\":15890:15902   */\n      add\n        /* \"#utility.yul\":15883:15902   */\n      swap1\n      pop\n        /* \"#utility.yul\":15688:15908   */\n      swap2\n      swap1\n      pop\n      jump\t// out\n        /* \"#utility.yul\":15914:16280   */\n    tag_587:\n        /* \"#utility.yul\":16056:16059   */\n      0x00\n        /* \"#utility.yul\":16077:16144   */\n      tag_589\n        /* \"#utility.yul\":16141:16143   */\n      0x2f\n        /* \"#utility.yul\":16136:16139   */\n      dup4\n        /* \"#utility.yul\":16077:16144   */\n      tag_528\n      jump\t// in\n    tag_589:\n        /* \"#utility.yul\":16070:16144   */\n      swap2\n      pop\n        /* \"#utility.yul\":16153:16246   */\n      tag_590\n        /* \"#utility.yul\":16242:16245   */\n      dup3\n        /* \"#utility.yul\":16153:16246   */\n      tag_591\n      jump\t// in\n    tag_590:\n        /* \"#utility.yul\":16271:16273   */\n      0x40\n        /* \"#utility.yul\":16266:16269   */\n      dup3\n        /* \"#utility.yul\":16262:16274   */\n      add\n        /* \"#utility.yul\":16255:16274   */\n      swap1\n      pop\n        /* \"#utility.yul\":16060:16280   */\n      swap2\n      swap1\n      pop\n      jump\t// out\n        /* \"#utility.yul\":16286:16652   */\n    tag_592:\n        /* \"#utility.yul\":16428:16431   */\n      0x00\n        /* \"#utility.yul\":16449:16516   */\n      tag_594\n        /* \"#utility.yul\":16513:16515   */\n      0x18\n        /* \"#utility.yul\":16508:16511   */\n      dup4\n        /* \"#utility.yul\":16449:16516   */\n      tag_528\n      jump\t// in\n    tag_594:\n        /* \"#utility.yul\":16442:16516   */\n      swap2\n      pop\n        /* \"#utility.yul\":16525:16618   */\n      tag_595\n        /* \"#utility.yul\":16614:16617   */\n      dup3\n        /* \"#utility.yul\":16525:16618   */\n      tag_596\n      jump\t// in\n    tag_595:\n        /* \"#utility.yul\":16643:16645   */\n      0x20\n        /* \"#utility.yul\":16638:16641   */\n      dup3\n        /* \"#utility.yul\":16634:16646   */\n      add\n        /* \"#utility.yul\":16627:16646   */\n      swap1\n      pop\n        /* \"#utility.yul\":16432:16652   */\n      swap2\n      swap1\n      pop\n      jump\t// out\n        /* \"#utility.yul\":16658:17024   */\n    tag_597:\n        /* \"#utility.yul\":16800:16803   */\n      0x00\n        /* \"#utility.yul\":16821:16888   */\n      tag_599\n        /* \"#utility.yul\":16885:16887   */\n      0x21\n        /* \"#utility.yul\":16880:16883   */\n      dup4\n        /* \"#utility.yul\":16821:16888   */\n      tag_528\n      jump\t// in\n    tag_599:\n        /* \"#utility.yul\":16814:16888   */\n      swap2\n      pop\n        /* \"#utility.yul\":16897:16990   */\n      tag_600\n        /* \"#utility.yul\":16986:16989   */\n      dup3\n        /* \"#utility.yul\":16897:16990   */\n      tag_601\n      jump\t// in\n    tag_600:\n        /* \"#utility.yul\":17015:17017   */\n      0x40\n        /* \"#utility.yul\":17010:17013   */\n      dup3\n        /* \"#utility.yul\":17006:17018   */\n      add\n        /* \"#utility.yul\":16999:17018   */\n      swap1\n      pop\n        /* \"#utility.yul\":16804:17024   */\n      swap2\n      swap1\n      pop\n      jump\t// out\n        /* \"#utility.yul\":17030:17396   */\n    tag_602:\n        /* \"#utility.yul\":17172:17175   */\n      0x00\n        /* \"#utility.yul\":17193:17260   */\n      tag_604\n        /* \"#utility.yul\":17257:17259   */\n      0x3d\n        /* \"#utility.yul\":17252:17255   */\n      dup4\n        /* \"#utility.yul\":17193:17260   */\n      tag_528\n      jump\t// in\n    tag_604:\n        /* \"#utility.yul\":17186:17260   */\n      swap2\n      pop\n        /* \"#utility.yul\":17269:17362   */\n      tag_605\n        /* \"#utility.yul\":17358:17361   */\n      dup3\n        /* \"#utility.yul\":17269:17362   */\n      tag_606\n      jump\t// in\n    tag_605:\n        /* \"#utility.yul\":17387:17389   */\n      0x40\n        /* \"#utility.yul\":17382:17385   */\n      dup3\n        /* \"#utility.yul\":17378:17390   */\n      add\n        /* \"#utility.yul\":17371:17390   */\n      swap1\n      pop\n        /* \"#utility.yul\":17176:17396   */\n      swap2\n      swap1\n      pop\n      jump\t// out\n        /* \"#utility.yul\":17402:17510   */\n    tag_474:\n        /* \"#utility.yul\":17479:17503   */\n      tag_608\n        /* \"#utility.yul\":17497:17502   */\n      dup2\n        /* \"#utility.yul\":17479:17503   */\n      tag_609\n      jump\t// in\n    tag_608:\n        /* \"#utility.yul\":17474:17477   */\n      dup3\n        /* \"#utility.yul\":17467:17504   */\n      mstore\n        /* \"#utility.yul\":17457:17510   */\n      pop\n      pop\n      jump\t// out\n        /* \"#utility.yul\":17516:17634   */\n    tag_610:\n        /* \"#utility.yul\":17603:17627   */\n      tag_612\n        /* \"#utility.yul\":17621:17626   */\n      dup2\n        /* \"#utility.yul\":17603:17627   */\n      tag_609\n      jump\t// in\n    tag_612:\n        /* \"#utility.yul\":17598:17601   */\n      dup3\n        /* \"#utility.yul\":17591:17628   */\n      mstore\n        /* \"#utility.yul\":17581:17634   */\n      pop\n      pop\n      jump\t// out\n        /* \"#utility.yul\":17640:18075   */\n    tag_172:\n        /* \"#utility.yul\":17820:17823   */\n      0x00\n        /* \"#utility.yul\":17842:17937   */\n      tag_614\n        /* \"#utility.yul\":17933:17936   */\n      dup3\n        /* \"#utility.yul\":17924:17930   */\n      dup6\n        /* \"#utility.yul\":17842:17937   */\n      tag_531\n      jump\t// in\n    tag_614:\n        /* \"#utility.yul\":17835:17937   */\n      swap2\n      pop\n        /* \"#utility.yul\":17954:18049   */\n      tag_615\n        /* \"#utility.yul\":18045:18048   */\n      dup3\n        /* \"#utility.yul\":18036:18042   */\n      dup5\n        /* \"#utility.yul\":17954:18049   */\n      tag_531\n      jump\t// in\n    tag_615:\n        /* \"#utility.yul\":17947:18049   */\n      swap2\n      pop\n        /* \"#utility.yul\":18066:18069   */\n      dup2\n        /* \"#utility.yul\":18059:18069   */\n      swap1\n      pop\n        /* \"#utility.yul\":17824:18075   */\n      swap4\n      swap3\n      pop\n      pop\n      pop\n      jump\t// out\n        /* \"#utility.yul\":18081:18303   */\n    tag_38:\n        /* \"#utility.yul\":18174:18178   */\n      0x00\n        /* \"#utility.yul\":18212:18214   */\n      0x20\n        /* \"#utility.yul\":18201:18210   */\n      dup3\n        /* \"#utility.yul\":18197:18215   */\n      add\n        /* \"#utility.yul\":18189:18215   */\n      swap1\n      pop\n        /* \"#utility.yul\":18225:18296   */\n      tag_617\n        /* \"#utility.yul\":18293:18294   */\n      0x00\n        /* \"#utility.yul\":18282:18291   */\n      dup4\n        /* \"#utility.yul\":18278:18295   */\n      add\n        /* \"#utility.yul\":18269:18275   */\n      dup5\n        /* \"#utility.yul\":18225:18296   */\n      tag_478\n      jump\t// in\n    tag_617:\n        /* \"#utility.yul\":18179:18303   */\n      swap3\n      swap2\n      pop\n      pop\n      jump\t// out\n        /* \"#utility.yul\":18309:18949   */\n    tag_298:\n        /* \"#utility.yul\":18504:18508   */\n      0x00\n        /* \"#utility.yul\":18542:18545   */\n      0x80\n        /* \"#utility.yul\":18531:18540   */\n      dup3\n        /* \"#utility.yul\":18527:18546   */\n      add\n        /* \"#utility.yul\":18519:18546   */\n      swap1\n      pop\n        /* \"#utility.yul\":18556:18627   */\n      tag_619\n        /* \"#utility.yul\":18624:18625   */\n      0x00\n        /* \"#utility.yul\":18613:18622   */\n      dup4\n        /* \"#utility.yul\":18609:18626   */\n      add\n        /* \"#utility.yul\":18600:18606   */\n      dup8\n        /* \"#utility.yul\":18556:18627   */\n      tag_478\n      jump\t// in\n    tag_619:\n        /* \"#utility.yul\":18637:18709   */\n      tag_620\n        /* \"#utility.yul\":18705:18707   */\n      0x20\n        /* \"#utility.yul\":18694:18703   */\n      dup4\n        /* \"#utility.yul\":18690:18708   */\n      add\n        /* \"#utility.yul\":18681:18687   */\n      dup7\n        /* \"#utility.yul\":18637:18709   */\n      tag_478\n      jump\t// in\n    tag_620:\n        /* \"#utility.yul\":18719:18791   */\n      tag_621\n        /* \"#utility.yul\":18787:18789   */\n      0x40\n        /* \"#utility.yul\":18776:18785   */\n      dup4\n        /* \"#utility.yul\":18772:18790   */\n      add\n        /* \"#utility.yul\":18763:18769   */\n      dup6\n        /* \"#utility.yul\":18719:18791   */\n      tag_610\n      jump\t// in\n    tag_621:\n        /* \"#utility.yul\":18838:18847   */\n      dup2\n        /* \"#utility.yul\":18832:18836   */\n      dup2\n        /* \"#utility.yul\":18828:18848   */\n      sub\n        /* \"#utility.yul\":18823:18825   */\n      0x60\n        /* \"#utility.yul\":18812:18821   */\n      dup4\n        /* \"#utility.yul\":18808:18826   */\n      add\n        /* \"#utility.yul\":18801:18849   */\n      mstore\n        /* \"#utility.yul\":18866:18942   */\n      tag_622\n        /* \"#utility.yul\":18937:18941   */\n      dup2\n        /* \"#utility.yul\":18928:18934   */\n      dup5\n        /* \"#utility.yul\":18866:18942   */\n      tag_513\n      jump\t// in\n    tag_622:\n        /* \"#utility.yul\":18858:18942   */\n      swap1\n      pop\n        /* \"#utility.yul\":18509:18949   */\n      swap6\n      swap5\n      pop\n      pop\n      pop\n      pop\n      pop\n      jump\t// out\n        /* \"#utility.yul\":18955:19328   */\n    tag_58:\n        /* \"#utility.yul\":19098:19102   */\n      0x00\n        /* \"#utility.yul\":19136:19138   */\n      0x20\n        /* \"#utility.yul\":19125:19134   */\n      dup3\n        /* \"#utility.yul\":19121:19139   */\n      add\n        /* \"#utility.yul\":19113:19139   */\n      swap1\n      pop\n        /* \"#utility.yul\":19185:19194   */\n      dup2\n        /* \"#utility.yul\":19179:19183   */\n      dup2\n        /* \"#utility.yul\":19175:19195   */\n      sub\n        /* \"#utility.yul\":19171:19172   */\n      0x00\n        /* \"#utility.yul\":19160:19169   */\n      dup4\n        /* \"#utility.yul\":19156:19173   */\n      add\n        /* \"#utility.yul\":19149:19196   */\n      mstore\n        /* \"#utility.yul\":19213:19321   */\n      tag_624\n        /* \"#utility.yul\":19316:19320   */\n      dup2\n        /* \"#utility.yul\":19307:19313   */\n      dup5\n        /* \"#utility.yul\":19213:19321   */\n      tag_481\n      jump\t// in\n    tag_624:\n        /* \"#utility.yul\":19205:19321   */\n      swap1\n      pop\n        /* \"#utility.yul\":19103:19328   */\n      swap3\n      swap2\n      pop\n      pop\n      jump\t// out\n        /* \"#utility.yul\":19334:19707   */\n    tag_97:\n        /* \"#utility.yul\":19477:19481   */\n      0x00\n        /* \"#utility.yul\":19515:19517   */\n      0x20\n        /* \"#utility.yul\":19504:19513   */\n      dup3\n        /* \"#utility.yul\":19500:19518   */\n      add\n        /* \"#utility.yul\":19492:19518   */\n      swap1\n      pop\n        /* \"#utility.yul\":19564:19573   */\n      dup2\n        /* \"#utility.yul\":19558:19562   */\n      dup2\n        /* \"#utility.yul\":19554:19574   */\n      sub\n        /* \"#utility.yul\":19550:19551   */\n      0x00\n        /* \"#utility.yul\":19539:19548   */\n      dup4\n        /* \"#utility.yul\":19535:19552   */\n      add\n        /* \"#utility.yul\":19528:19575   */\n      mstore\n        /* \"#utility.yul\":19592:19700   */\n      tag_626\n        /* \"#utility.yul\":19695:19699   */\n      dup2\n        /* \"#utility.yul\":19686:19692   */\n      dup5\n        /* \"#utility.yul\":19592:19700   */\n      tag_495\n      jump\t// in\n    tag_626:\n        /* \"#utility.yul\":19584:19700   */\n      swap1\n      pop\n        /* \"#utility.yul\":19482:19707   */\n      swap3\n      swap2\n      pop\n      pop\n      jump\t// out\n        /* \"#utility.yul\":19713:19923   */\n    tag_28:\n        /* \"#utility.yul\":19800:19804   */\n      0x00\n        /* \"#utility.yul\":19838:19840   */\n      0x20\n        /* \"#utility.yul\":19827:19836   */\n      dup3\n        /* \"#utility.yul\":19823:19841   */\n      add\n        /* \"#utility.yul\":19815:19841   */\n      swap1\n      pop\n        /* \"#utility.yul\":19851:19916   */\n      tag_628\n        /* \"#utility.yul\":19913:19914   */\n      0x00\n        /* \"#utility.yul\":19902:19911   */\n      dup4\n        /* \"#utility.yul\":19898:19915   */\n      add\n        /* \"#utility.yul\":19889:19895   */\n      dup5\n        /* \"#utility.yul\":19851:19916   */\n      tag_509\n      jump\t// in\n    tag_628:\n        /* \"#utility.yul\":19805:19923   */\n      swap3\n      swap2\n      pop\n      pop\n      jump\t// out\n        /* \"#utility.yul\":19929:20242   */\n    tag_32:\n        /* \"#utility.yul\":20042:20046   */\n      0x00\n        /* \"#utility.yul\":20080:20082   */\n      0x20\n        /* \"#utility.yul\":20069:20078   */\n      dup3\n        /* \"#utility.yul\":20065:20083   */\n      add\n        /* \"#utility.yul\":20057:20083   */\n      swap1\n      pop\n        /* \"#utility.yul\":20129:20138   */\n      dup2\n        /* \"#utility.yul\":20123:20127   */\n      dup2\n        /* \"#utility.yul\":20119:20139   */\n      sub\n        /* \"#utility.yul\":20115:20116   */\n      0x00\n        /* \"#utility.yul\":20104:20113   */\n      dup4\n        /* \"#utility.yul\":20100:20117   */\n      add\n        /* \"#utility.yul\":20093:20140   */\n      mstore\n        /* \"#utility.yul\":20157:20235   */\n      tag_630\n        /* \"#utility.yul\":20230:20234   */\n      dup2\n        /* \"#utility.yul\":20221:20227   */\n      dup5\n        /* \"#utility.yul\":20157:20235   */\n      tag_523\n      jump\t// in\n    tag_630:\n        /* \"#utility.yul\":20149:20235   */\n      swap1\n      pop\n        /* \"#utility.yul\":20047:20242   */\n      swap3\n      swap2\n      pop\n      pop\n      jump\t// out\n        /* \"#utility.yul\":20248:20667   */\n    tag_134:\n        /* \"#utility.yul\":20414:20418   */\n      0x00\n        /* \"#utility.yul\":20452:20454   */\n      0x20\n        /* \"#utility.yul\":20441:20450   */\n      dup3\n        /* \"#utility.yul\":20437:20455   */\n      add\n        /* \"#utility.yul\":20429:20455   */\n      swap1\n      pop\n        /* \"#utility.yul\":20501:20510   */\n      dup2\n        /* \"#utility.yul\":20495:20499   */\n      dup2\n        /* \"#utility.yul\":20491:20511   */\n      sub\n        /* \"#utility.yul\":20487:20488   */\n      0x00\n        /* \"#utility.yul\":20476:20485   */\n      dup4\n        /* \"#utility.yul\":20472:20489   */\n      add\n        /* \"#utility.yul\":20465:20512   */\n      mstore\n        /* \"#utility.yul\":20529:20660   */\n      tag_632\n        /* \"#utility.yul\":20655:20659   */\n      dup2\n        /* \"#utility.yul\":20529:20660   */\n      tag_537\n      jump\t// in\n    tag_632:\n        /* \"#utility.yul\":20521:20660   */\n      swap1\n      pop\n        /* \"#utility.yul\":20419:20667   */\n      swap2\n      swap1\n      pop\n      jump\t// out\n        /* \"#utility.yul\":20673:21092   */\n    tag_283:\n        /* \"#utility.yul\":20839:20843   */\n      0x00\n        /* \"#utility.yul\":20877:20879   */\n      0x20\n        /* \"#utility.yul\":20866:20875   */\n      dup3\n        /* \"#utility.yul\":20862:20880   */\n      add\n        /* \"#utility.yul\":20854:20880   */\n      swap1\n      pop\n        /* \"#utility.yul\":20926:20935   */\n      dup2\n        /* \"#utility.yul\":20920:20924   */\n      dup2\n        /* \"#utility.yul\":20916:20936   */\n      sub\n        /* \"#utility.yul\":20912:20913   */\n      0x00\n        /* \"#utility.yul\":20901:20910   */\n      dup4\n        /* \"#utility.yul\":20897:20914   */\n      add\n        /* \"#utility.yul\":20890:20937   */\n      mstore\n        /* \"#utility.yul\":20954:21085   */\n      tag_634\n        /* \"#utility.yul\":21080:21084   */\n      dup2\n        /* \"#utility.yul\":20954:21085   */\n      tag_542\n      jump\t// in\n    tag_634:\n        /* \"#utility.yul\":20946:21085   */\n      swap1\n      pop\n        /* \"#utility.yul\":20844:21092   */\n      swap2\n      swap1\n      pop\n      jump\t// out\n        /* \"#utility.yul\":21098:21517   */\n    tag_227:\n        /* \"#utility.yul\":21264:21268   */\n      0x00\n        /* \"#utility.yul\":21302:21304   */\n      0x20\n        /* \"#utility.yul\":21291:21300   */\n      dup3\n        /* \"#utility.yul\":21287:21305   */\n      add\n        /* \"#utility.yul\":21279:21305   */\n      swap1\n      pop\n        /* \"#utility.yul\":21351:21360   */\n      dup2\n        /* \"#utility.yul\":21345:21349   */\n      dup2\n        /* \"#utility.yul\":21341:21361   */\n      sub\n        /* \"#utility.yul\":21337:21338   */\n      0x00\n        /* \"#utility.yul\":21326:21335   */\n      dup4\n        /* \"#utility.yul\":21322:21339   */\n      add\n        /* \"#utility.yul\":21315:21362   */\n      mstore\n        /* \"#utility.yul\":21379:21510   */\n      tag_636\n        /* \"#utility.yul\":21505:21509   */\n      dup2\n        /* \"#utility.yul\":21379:21510   */\n      tag_547\n      jump\t// in\n    tag_636:\n        /* \"#utility.yul\":21371:21510   */\n      swap1\n      pop\n        /* \"#utility.yul\":21269:21517   */\n      swap2\n      swap1\n      pop\n      jump\t// out\n        /* \"#utility.yul\":21523:21942   */\n    tag_321:\n        /* \"#utility.yul\":21689:21693   */\n      0x00\n        /* \"#utility.yul\":21727:21729   */\n      0x20\n        /* \"#utility.yul\":21716:21725   */\n      dup3\n        /* \"#utility.yul\":21712:21730   */\n      add\n        /* \"#utility.yul\":21704:21730   */\n      swap1\n      pop\n        /* \"#utility.yul\":21776:21785   */\n      dup2\n        /* \"#utility.yul\":21770:21774   */\n      dup2\n        /* \"#utility.yul\":21766:21786   */\n      sub\n        /* \"#utility.yul\":21762:21763   */\n      0x00\n        /* \"#utility.yul\":21751:21760   */\n      dup4\n        /* \"#utility.yul\":21747:21764   */\n      add\n        /* \"#utility.yul\":21740:21787   */\n      mstore\n        /* \"#utility.yul\":21804:21935   */\n      tag_638\n        /* \"#utility.yul\":21930:21934   */\n      dup2\n        /* \"#utility.yul\":21804:21935   */\n      tag_552\n      jump\t// in\n    tag_638:\n        /* \"#utility.yul\":21796:21935   */\n      swap1\n      pop\n        /* \"#utility.yul\":21694:21942   */\n      swap2\n      swap1\n      pop\n      jump\t// out\n        /* \"#utility.yul\":21948:22367   */\n    tag_230:\n        /* \"#utility.yul\":22114:22118   */\n      0x00\n        /* \"#utility.yul\":22152:22154   */\n      0x20\n        /* \"#utility.yul\":22141:22150   */\n      dup3\n        /* \"#utility.yul\":22137:22155   */\n      add\n        /* \"#utility.yul\":22129:22155   */\n      swap1\n      pop\n        /* \"#utility.yul\":22201:22210   */\n      dup2\n        /* \"#utility.yul\":22195:22199   */\n      dup2\n        /* \"#utility.yul\":22191:22211   */\n      sub\n        /* \"#utility.yul\":22187:22188   */\n      0x00\n        /* \"#utility.yul\":22176:22185   */\n      dup4\n        /* \"#utility.yul\":22172:22189   */\n      add\n        /* \"#utility.yul\":22165:22212   */\n      mstore\n        /* \"#utility.yul\":22229:22360   */\n      tag_640\n        /* \"#utility.yul\":22355:22359   */\n      dup2\n        /* \"#utility.yul\":22229:22360   */\n      tag_557\n      jump\t// in\n    tag_640:\n        /* \"#utility.yul\":22221:22360   */\n      swap1\n      pop\n        /* \"#utility.yul\":22119:22367   */\n      swap2\n      swap1\n      pop\n      jump\t// out\n        /* \"#utility.yul\":22373:22792   */\n    tag_275:\n        /* \"#utility.yul\":22539:22543   */\n      0x00\n        /* \"#utility.yul\":22577:22579   */\n      0x20\n        /* \"#utility.yul\":22566:22575   */\n      dup3\n        /* \"#utility.yul\":22562:22580   */\n      add\n        /* \"#utility.yul\":22554:22580   */\n      swap1\n      pop\n        /* \"#utility.yul\":22626:22635   */\n      dup2\n        /* \"#utility.yul\":22620:22624   */\n      dup2\n        /* \"#utility.yul\":22616:22636   */\n      sub\n        /* \"#utility.yul\":22612:22613   */\n      0x00\n        /* \"#utility.yul\":22601:22610   */\n      dup4\n        /* \"#utility.yul\":22597:22614   */\n      add\n        /* \"#utility.yul\":22590:22637   */\n      mstore\n        /* \"#utility.yul\":22654:22785   */\n      tag_642\n        /* \"#utility.yul\":22780:22784   */\n      dup2\n        /* \"#utility.yul\":22654:22785   */\n      tag_562\n      jump\t// in\n    tag_642:\n        /* \"#utility.yul\":22646:22785   */\n      swap1\n      pop\n        /* \"#utility.yul\":22544:22792   */\n      swap2\n      swap1\n      pop\n      jump\t// out\n        /* \"#utility.yul\":22798:23217   */\n    tag_158:\n        /* \"#utility.yul\":22964:22968   */\n      0x00\n        /* \"#utility.yul\":23002:23004   */\n      0x20\n        /* \"#utility.yul\":22991:23000   */\n      dup3\n        /* \"#utility.yul\":22987:23005   */\n      add\n        /* \"#utility.yul\":22979:23005   */\n      swap1\n      pop\n        /* \"#utility.yul\":23051:23060   */\n      dup2\n        /* \"#utility.yul\":23045:23049   */\n      dup2\n        /* \"#utility.yul\":23041:23061   */\n      sub\n        /* \"#utility.yul\":23037:23038   */\n      0x00\n        /* \"#utility.yul\":23026:23035   */\n      dup4\n        /* \"#utility.yul\":23022:23039   */\n      add\n        /* \"#utility.yul\":23015:23062   */\n      mstore\n        /* \"#utility.yul\":23079:23210   */\n      tag_644\n        /* \"#utility.yul\":23205:23209   */\n      dup2\n        /* \"#utility.yul\":23079:23210   */\n      tag_567\n      jump\t// in\n    tag_644:\n        /* \"#utility.yul\":23071:23210   */\n      swap1\n      pop\n        /* \"#utility.yul\":22969:23217   */\n      swap2\n      swap1\n      pop\n      jump\t// out\n        /* \"#utility.yul\":23223:23642   */\n    tag_247:\n        /* \"#utility.yul\":23389:23393   */\n      0x00\n        /* \"#utility.yul\":23427:23429   */\n      0x20\n        /* \"#utility.yul\":23416:23425   */\n      dup3\n        /* \"#utility.yul\":23412:23430   */\n      add\n        /* \"#utility.yul\":23404:23430   */\n      swap1\n      pop\n        /* \"#utility.yul\":23476:23485   */\n      dup2\n        /* \"#utility.yul\":23470:23474   */\n      dup2\n        /* \"#utility.yul\":23466:23486   */\n      sub\n        /* \"#utility.yul\":23462:23463   */\n      0x00\n        /* \"#utility.yul\":23451:23460   */\n      dup4\n        /* \"#utility.yul\":23447:23464   */\n      add\n        /* \"#utility.yul\":23440:23487   */\n      mstore\n        /* \"#utility.yul\":23504:23635   */\n      tag_646\n        /* \"#utility.yul\":23630:23634   */\n      dup2\n        /* \"#utility.yul\":23504:23635   */\n      tag_572\n      jump\t// in\n    tag_646:\n        /* \"#utility.yul\":23496:23635   */\n      swap1\n      pop\n        /* \"#utility.yul\":23394:23642   */\n      swap2\n      swap1\n      pop\n      jump\t// out\n        /* \"#utility.yul\":23648:24067   */\n    tag_317:\n        /* \"#utility.yul\":23814:23818   */\n      0x00\n        /* \"#utility.yul\":23852:23854   */\n      0x20\n        /* \"#utility.yul\":23841:23850   */\n      dup3\n        /* \"#utility.yul\":23837:23855   */\n      add\n        /* \"#utility.yul\":23829:23855   */\n      swap1\n      pop\n        /* \"#utility.yul\":23901:23910   */\n      dup2\n        /* \"#utility.yul\":23895:23899   */\n      dup2\n        /* \"#utility.yul\":23891:23911   */\n      sub\n        /* \"#utility.yul\":23887:23888   */\n      0x00\n        /* \"#utility.yul\":23876:23885   */\n      dup4\n        /* \"#utility.yul\":23872:23889   */\n      add\n        /* \"#utility.yul\":23865:23912   */\n      mstore\n        /* \"#utility.yul\":23929:24060   */\n      tag_648\n        /* \"#utility.yul\":24055:24059   */\n      dup2\n        /* \"#utility.yul\":23929:24060   */\n      tag_577\n      jump\t// in\n    tag_648:\n        /* \"#utility.yul\":23921:24060   */\n      swap1\n      pop\n        /* \"#utility.yul\":23819:24067   */\n      swap2\n      swap1\n      pop\n      jump\t// out\n        /* \"#utility.yul\":24073:24492   */\n    tag_194:\n        /* \"#utility.yul\":24239:24243   */\n      0x00\n        /* \"#utility.yul\":24277:24279   */\n      0x20\n        /* \"#utility.yul\":24266:24275   */\n      dup3\n        /* \"#utility.yul\":24262:24280   */\n      add\n        /* \"#utility.yul\":24254:24280   */\n      swap1\n      pop\n        /* \"#utility.yul\":24326:24335   */\n      dup2\n        /* \"#utility.yul\":24320:24324   */\n      dup2\n        /* \"#utility.yul\":24316:24336   */\n      sub\n        /* \"#utility.yul\":24312:24313   */\n      0x00\n        /* \"#utility.yul\":24301:24310   */\n      dup4\n        /* \"#utility.yul\":24297:24314   */\n      add\n        /* \"#utility.yul\":24290:24337   */\n      mstore\n        /* \"#utility.yul\":24354:24485   */\n      tag_650\n        /* \"#utility.yul\":24480:24484   */\n      dup2\n        /* \"#utility.yul\":24354:24485   */\n      tag_582\n      jump\t// in\n    tag_650:\n        /* \"#utility.yul\":24346:24485   */\n      swap1\n      pop\n        /* \"#utility.yul\":24244:24492   */\n      swap2\n      swap1\n      pop\n      jump\t// out\n        /* \"#utility.yul\":24498:24917   */\n    tag_164:\n        /* \"#utility.yul\":24664:24668   */\n      0x00\n        /* \"#utility.yul\":24702:24704   */\n      0x20\n        /* \"#utility.yul\":24691:24700   */\n      dup3\n        /* \"#utility.yul\":24687:24705   */\n      add\n        /* \"#utility.yul\":24679:24705   */\n      swap1\n      pop\n        /* \"#utility.yul\":24751:24760   */\n      dup2\n        /* \"#utility.yul\":24745:24749   */\n      dup2\n        /* \"#utility.yul\":24741:24761   */\n      sub\n        /* \"#utility.yul\":24737:24738   */\n      0x00\n        /* \"#utility.yul\":24726:24735   */\n      dup4\n        /* \"#utility.yul\":24722:24739   */\n      add\n        /* \"#utility.yul\":24715:24762   */\n      mstore\n        /* \"#utility.yul\":24779:24910   */\n      tag_652\n        /* \"#utility.yul\":24905:24909   */\n      dup2\n        /* \"#utility.yul\":24779:24910   */\n      tag_587\n      jump\t// in\n    tag_652:\n        /* \"#utility.yul\":24771:24910   */\n      swap1\n      pop\n        /* \"#utility.yul\":24669:24917   */\n      swap2\n      swap1\n      pop\n      jump\t// out\n        /* \"#utility.yul\":24923:25342   */\n    tag_154:\n        /* \"#utility.yul\":25089:25093   */\n      0x00\n        /* \"#utility.yul\":25127:25129   */\n      0x20\n        /* \"#utility.yul\":25116:25125   */\n      dup3\n        /* \"#utility.yul\":25112:25130   */\n      add\n        /* \"#utility.yul\":25104:25130   */\n      swap1\n      pop\n        /* \"#utility.yul\":25176:25185   */\n      dup2\n        /* \"#utility.yul\":25170:25174   */\n      dup2\n        /* \"#utility.yul\":25166:25186   */\n      sub\n        /* \"#utility.yul\":25162:25163   */\n      0x00\n        /* \"#utility.yul\":25151:25160   */\n      dup4\n        /* \"#utility.yul\":25147:25164   */\n      add\n        /* \"#utility.yul\":25140:25187   */\n      mstore\n        /* \"#utility.yul\":25204:25335   */\n      tag_654\n        /* \"#utility.yul\":25330:25334   */\n      dup2\n        /* \"#utility.yul\":25204:25335   */\n      tag_592\n      jump\t// in\n    tag_654:\n        /* \"#utility.yul\":25196:25335   */\n      swap1\n      pop\n        /* \"#utility.yul\":25094:25342   */\n      swap2\n      swap1\n      pop\n      jump\t// out\n        /* \"#utility.yul\":25348:25767   */\n    tag_117:\n        /* \"#utility.yul\":25514:25518   */\n      0x00\n        /* \"#utility.yul\":25552:25554   */\n      0x20\n        /* \"#utility.yul\":25541:25550   */\n      dup3\n        /* \"#utility.yul\":25537:25555   */\n      add\n        /* \"#utility.yul\":25529:25555   */\n      swap1\n      pop\n        /* \"#utility.yul\":25601:25610   */\n      dup2\n        /* \"#utility.yul\":25595:25599   */\n      dup2\n        /* \"#utility.yul\":25591:25611   */\n      sub\n        /* \"#utility.yul\":25587:25588   */\n      0x00\n        /* \"#utility.yul\":25576:25585   */\n      dup4\n        /* \"#utility.yul\":25572:25589   */\n      add\n        /* \"#utility.yul\":25565:25612   */\n      mstore\n        /* \"#utility.yul\":25629:25760   */\n      tag_656\n        /* \"#utility.yul\":25755:25759   */\n      dup2\n        /* \"#utility.yul\":25629:25760   */\n      tag_597\n      jump\t// in\n    tag_656:\n        /* \"#utility.yul\":25621:25760   */\n      swap1\n      pop\n        /* \"#utility.yul\":25519:25767   */\n      swap2\n      swap1\n      pop\n      jump\t// out\n        /* \"#utility.yul\":25773:26192   */\n    tag_125:\n        /* \"#utility.yul\":25939:25943   */\n      0x00\n        /* \"#utility.yul\":25977:25979   */\n      0x20\n        /* \"#utility.yul\":25966:25975   */\n      dup3\n        /* \"#utility.yul\":25962:25980   */\n      add\n        /* \"#utility.yul\":25954:25980   */\n      swap1\n      pop\n        /* \"#utility.yul\":26026:26035   */\n      dup2\n        /* \"#utility.yul\":26020:26024   */\n      dup2\n        /* \"#utility.yul\":26016:26036   */\n      sub\n        /* \"#utility.yul\":26012:26013   */\n      0x00\n        /* \"#utility.yul\":26001:26010   */\n      dup4\n        /* \"#utility.yul\":25997:26014   */\n      add\n        /* \"#utility.yul\":25990:26037   */\n      mstore\n        /* \"#utility.yul\":26054:26185   */\n      tag_658\n        /* \"#utility.yul\":26180:26184   */\n      dup2\n        /* \"#utility.yul\":26054:26185   */\n      tag_602\n      jump\t// in\n    tag_658:\n        /* \"#utility.yul\":26046:26185   */\n      swap1\n      pop\n        /* \"#utility.yul\":25944:26192   */\n      swap2\n      swap1\n      pop\n      jump\t// out\n        /* \"#utility.yul\":26198:26420   */\n    tag_68:\n        /* \"#utility.yul\":26291:26295   */\n      0x00\n        /* \"#utility.yul\":26329:26331   */\n      0x20\n        /* \"#utility.yul\":26318:26327   */\n      dup3\n        /* \"#utility.yul\":26314:26332   */\n      add\n        /* \"#utility.yul\":26306:26332   */\n      swap1\n      pop\n        /* \"#utility.yul\":26342:26413   */\n      tag_660\n        /* \"#utility.yul\":26410:26411   */\n      0x00\n        /* \"#utility.yul\":26399:26408   */\n      dup4\n        /* \"#utility.yul\":26395:26412   */\n      add\n        /* \"#utility.yul\":26386:26392   */\n      dup5\n        /* \"#utility.yul\":26342:26413   */\n      tag_610\n      jump\t// in\n    tag_660:\n        /* \"#utility.yul\":26296:26420   */\n      swap3\n      swap2\n      pop\n      pop\n      jump\t// out\n        /* \"#utility.yul\":26426:26555   */\n    tag_356:\n        /* \"#utility.yul\":26460:26466   */\n      0x00\n        /* \"#utility.yul\":26487:26507   */\n      tag_662\n      tag_663\n      jump\t// in\n    tag_662:\n        /* \"#utility.yul\":26477:26507   */\n      swap1\n      pop\n        /* \"#utility.yul\":26516:26549   */\n      tag_664\n        /* \"#utility.yul\":26544:26548   */\n      dup3\n        /* \"#utility.yul\":26536:26542   */\n      dup3\n        /* \"#utility.yul\":26516:26549   */\n      tag_665\n      jump\t// in\n    tag_664:\n        /* \"#utility.yul\":26467:26555   */\n      swap2\n      swap1\n      pop\n      jump\t// out\n        /* \"#utility.yul\":26561:26636   */\n    tag_663:\n        /* \"#utility.yul\":26594:26600   */\n      0x00\n        /* \"#utility.yul\":26627:26629   */\n      0x40\n        /* \"#utility.yul\":26621:26630   */\n      mload\n        /* \"#utility.yul\":26611:26630   */\n      swap1\n      pop\n        /* \"#utility.yul\":26601:26636   */\n      swap1\n      jump\t// out\n        /* \"#utility.yul\":26642:26953   */\n    tag_355:\n        /* \"#utility.yul\":26719:26723   */\n      0x00\n        /* \"#utility.yul\":26809:26827   */\n      0xffffffffffffffff\n        /* \"#utility.yul\":26801:26807   */\n      dup3\n        /* \"#utility.yul\":26798:26828   */\n      gt\n        /* \"#utility.yul\":26795:26797   */\n      iszero\n      tag_668\n      jumpi\n        /* \"#utility.yul\":26831:26849   */\n      tag_669\n      tag_670\n      jump\t// in\n    tag_669:\n        /* \"#utility.yul\":26795:26797   */\n    tag_668:\n        /* \"#utility.yul\":26881:26885   */\n      0x20\n        /* \"#utility.yul\":26873:26879   */\n      dup3\n        /* \"#utility.yul\":26869:26886   */\n      mul\n        /* \"#utility.yul\":26861:26886   */\n      swap1\n      pop\n        /* \"#utility.yul\":26941:26945   */\n      0x20\n        /* \"#utility.yul\":26935:26939   */\n      dup2\n        /* \"#utility.yul\":26931:26946   */\n      add\n        /* \"#utility.yul\":26923:26946   */\n      swap1\n      pop\n        /* \"#utility.yul\":26724:26953   */\n      swap2\n      swap1\n      pop\n      jump\t// out\n        /* \"#utility.yul\":26959:27270   */\n    tag_367:\n        /* \"#utility.yul\":27036:27040   */\n      0x00\n        /* \"#utility.yul\":27126:27144   */\n      0xffffffffffffffff\n        /* \"#utility.yul\":27118:27124   */\n      dup3\n        /* \"#utility.yul\":27115:27145   */\n      gt\n        /* \"#utility.yul\":27112:27114   */\n      iszero\n      tag_672\n      jumpi\n        /* \"#utility.yul\":27148:27166   */\n      tag_673\n      tag_670\n      jump\t// in\n    tag_673:\n        /* \"#utility.yul\":27112:27114   */\n    tag_672:\n        /* \"#utility.yul\":27198:27202   */\n      0x20\n        /* \"#utility.yul\":27190:27196   */\n      dup3\n        /* \"#utility.yul\":27186:27203   */\n      mul\n        /* \"#utility.yul\":27178:27203   */\n      swap1\n      pop\n        /* \"#utility.yul\":27258:27262   */\n      0x20\n        /* \"#utility.yul\":27252:27256   */\n      dup2\n        /* \"#utility.yul\":27248:27263   */\n      add\n        /* \"#utility.yul\":27240:27263   */\n      swap1\n      pop\n        /* \"#utility.yul\":27041:27270   */\n      swap2\n      swap1\n      pop\n      jump\t// out\n        /* \"#utility.yul\":27276:27583   */\n    tag_378:\n        /* \"#utility.yul\":27337:27341   */\n      0x00\n        /* \"#utility.yul\":27427:27445   */\n      0xffffffffffffffff\n        /* \"#utility.yul\":27419:27425   */\n      dup3\n        /* \"#utility.yul\":27416:27446   */\n      gt\n        /* \"#utility.yul\":27413:27415   */\n      iszero\n      tag_675\n      jumpi\n        /* \"#utility.yul\":27449:27467   */\n      tag_676\n      tag_670\n      jump\t// in\n    tag_676:\n        /* \"#utility.yul\":27413:27415   */\n    tag_675:\n        /* \"#utility.yul\":27487:27516   */\n      tag_677\n        /* \"#utility.yul\":27509:27515   */\n      dup3\n        /* \"#utility.yul\":27487:27516   */\n      tag_522\n      jump\t// in\n    tag_677:\n        /* \"#utility.yul\":27479:27516   */\n      swap1\n      pop\n        /* \"#utility.yul\":27571:27575   */\n      0x20\n        /* \"#utility.yul\":27565:27569   */\n      dup2\n        /* \"#utility.yul\":27561:27576   */\n      add\n        /* \"#utility.yul\":27553:27576   */\n      swap1\n      pop\n        /* \"#utility.yul\":27342:27583   */\n      swap2\n      swap1\n      pop\n      jump\t// out\n        /* \"#utility.yul\":27589:27897   */\n    tag_386:\n        /* \"#utility.yul\":27651:27655   */\n      0x00\n        /* \"#utility.yul\":27741:27759   */\n      0xffffffffffffffff\n        /* \"#utility.yul\":27733:27739   */\n      dup3\n        /* \"#utility.yul\":27730:27760   */\n      gt\n        /* \"#utility.yul\":27727:27729   */\n      iszero\n      tag_679\n      jumpi\n        /* \"#utility.yul\":27763:27781   */\n      tag_680\n      tag_670\n      jump\t// in\n    tag_680:\n        /* \"#utility.yul\":27727:27729   */\n    tag_679:\n        /* \"#utility.yul\":27801:27830   */\n      tag_681\n        /* \"#utility.yul\":27823:27829   */\n      dup3\n        /* \"#utility.yul\":27801:27830   */\n      tag_522\n      jump\t// in\n    tag_681:\n        /* \"#utility.yul\":27793:27830   */\n      swap1\n      pop\n        /* \"#utility.yul\":27885:27889   */\n      0x20\n        /* \"#utility.yul\":27879:27883   */\n      dup2\n        /* \"#utility.yul\":27875:27890   */\n      add\n        /* \"#utility.yul\":27867:27890   */\n      swap1\n      pop\n        /* \"#utility.yul\":27656:27897   */\n      swap2\n      swap1\n      pop\n      jump\t// out\n        /* \"#utility.yul\":27903:28035   */\n    tag_488:\n        /* \"#utility.yul\":27970:27974   */\n      0x00\n        /* \"#utility.yul\":27993:27996   */\n      dup2\n        /* \"#utility.yul\":27985:27996   */\n      swap1\n      pop\n        /* \"#utility.yul\":28023:28027   */\n      0x20\n        /* \"#utility.yul\":28018:28021   */\n      dup3\n        /* \"#utility.yul\":28014:28028   */\n      add\n        /* \"#utility.yul\":28006:28028   */\n      swap1\n      pop\n        /* \"#utility.yul\":27975:28035   */\n      swap2\n      swap1\n      pop\n      jump\t// out\n        /* \"#utility.yul\":28041:28173   */\n    tag_502:\n        /* \"#utility.yul\":28108:28112   */\n      0x00\n        /* \"#utility.yul\":28131:28134   */\n      dup2\n        /* \"#utility.yul\":28123:28134   */\n      swap1\n      pop\n        /* \"#utility.yul\":28161:28165   */\n      0x20\n        /* \"#utility.yul\":28156:28159   */\n      dup3\n        /* \"#utility.yul\":28152:28166   */\n      add\n        /* \"#utility.yul\":28144:28166   */\n      swap1\n      pop\n        /* \"#utility.yul\":28113:28173   */\n      swap2\n      swap1\n      pop\n      jump\t// out\n        /* \"#utility.yul\":28179:28293   */\n    tag_484:\n        /* \"#utility.yul\":28246:28252   */\n      0x00\n        /* \"#utility.yul\":28280:28285   */\n      dup2\n        /* \"#utility.yul\":28274:28286   */\n      mload\n        /* \"#utility.yul\":28264:28286   */\n      swap1\n      pop\n        /* \"#utility.yul\":28253:28293   */\n      swap2\n      swap1\n      pop\n      jump\t// out\n        /* \"#utility.yul\":28299:28413   */\n    tag_498:\n        /* \"#utility.yul\":28366:28372   */\n      0x00\n        /* \"#utility.yul\":28400:28405   */\n      dup2\n        /* \"#utility.yul\":28394:28406   */\n      mload\n        /* \"#utility.yul\":28384:28406   */\n      swap1\n      pop\n        /* \"#utility.yul\":28373:28413   */\n      swap2\n      swap1\n      pop\n      jump\t// out\n        /* \"#utility.yul\":28419:28517   */\n    tag_516:\n        /* \"#utility.yul\":28470:28476   */\n      0x00\n        /* \"#utility.yul\":28504:28509   */\n      dup2\n        /* \"#utility.yul\":28498:28510   */\n      mload\n        /* \"#utility.yul\":28488:28510   */\n      swap1\n      pop\n        /* \"#utility.yul\":28477:28517   */\n      swap2\n      swap1\n      pop\n      jump\t// out\n        /* \"#utility.yul\":28523:28622   */\n    tag_526:\n        /* \"#utility.yul\":28575:28581   */\n      0x00\n        /* \"#utility.yul\":28609:28614   */\n      dup2\n        /* \"#utility.yul\":28603:28615   */\n      mload\n        /* \"#utility.yul\":28593:28615   */\n      swap1\n      pop\n        /* \"#utility.yul\":28582:28622   */\n      swap2\n      swap1\n      pop\n      jump\t// out\n        /* \"#utility.yul\":28628:28741   */\n    tag_494:\n        /* \"#utility.yul\":28698:28702   */\n      0x00\n        /* \"#utility.yul\":28730:28734   */\n      0x20\n        /* \"#utility.yul\":28725:28728   */\n      dup3\n        /* \"#utility.yul\":28721:28735   */\n      add\n        /* \"#utility.yul\":28713:28735   */\n      swap1\n      pop\n        /* \"#utility.yul\":28703:28741   */\n      swap2\n      swap1\n      pop\n      jump\t// out\n        /* \"#utility.yul\":28747:28860   */\n    tag_508:\n        /* \"#utility.yul\":28817:28821   */\n      0x00\n        /* \"#utility.yul\":28849:28853   */\n      0x20\n        /* \"#utility.yul\":28844:28847   */\n      dup3\n        /* \"#utility.yul\":28840:28854   */\n      add\n        /* \"#utility.yul\":28832:28854   */\n      swap1\n      pop\n        /* \"#utility.yul\":28822:28860   */\n      swap2\n      swap1\n      pop\n      jump\t// out\n        /* \"#utility.yul\":28866:29050   */\n    tag_486:\n        /* \"#utility.yul\":28965:28976   */\n      0x00\n        /* \"#utility.yul\":28999:29005   */\n      dup3\n        /* \"#utility.yul\":28994:28997   */\n      dup3\n        /* \"#utility.yul\":28987:29006   */\n      mstore\n        /* \"#utility.yul\":29039:29043   */\n      0x20\n        /* \"#utility.yul\":29034:29037   */\n      dup3\n        /* \"#utility.yul\":29030:29044   */\n      add\n        /* \"#utility.yul\":29015:29044   */\n      swap1\n      pop\n        /* \"#utility.yul\":28977:29050   */\n      swap3\n      swap2\n      pop\n      pop\n      jump\t// out\n        /* \"#utility.yul\":29056:29240   */\n    tag_500:\n        /* \"#utility.yul\":29155:29166   */\n      0x00\n        /* \"#utility.yul\":29189:29195   */\n      dup3\n        /* \"#utility.yul\":29184:29187   */\n      dup3\n        /* \"#utility.yul\":29177:29196   */\n      mstore\n        /* \"#utility.yul\":29229:29233   */\n      0x20\n        /* \"#utility.yul\":29224:29227   */\n      dup3\n        /* \"#utility.yul\":29220:29234   */\n      add\n        /* \"#utility.yul\":29205:29234   */\n      swap1\n      pop\n        /* \"#utility.yul\":29167:29240   */\n      swap3\n      swap2\n      pop\n      pop\n      jump\t// out\n        /* \"#utility.yul\":29246:29414   */\n    tag_518:\n        /* \"#utility.yul\":29329:29340   */\n      0x00\n        /* \"#utility.yul\":29363:29369   */\n      dup3\n        /* \"#utility.yul\":29358:29361   */\n      dup3\n        /* \"#utility.yul\":29351:29370   */\n      mstore\n        /* \"#utility.yul\":29403:29407   */\n      0x20\n        /* \"#utility.yul\":29398:29401   */\n      dup3\n        /* \"#utility.yul\":29394:29408   */\n      add\n        /* \"#utility.yul\":29379:29408   */\n      swap1\n      pop\n        /* \"#utility.yul\":29341:29414   */\n      swap3\n      swap2\n      pop\n      pop\n      jump\t// out\n        /* \"#utility.yul\":29420:29589   */\n    tag_528:\n        /* \"#utility.yul\":29504:29515   */\n      0x00\n        /* \"#utility.yul\":29538:29544   */\n      dup3\n        /* \"#utility.yul\":29533:29536   */\n      dup3\n        /* \"#utility.yul\":29526:29545   */\n      mstore\n        /* \"#utility.yul\":29578:29582   */\n      0x20\n        /* \"#utility.yul\":29573:29576   */\n      dup3\n        /* \"#utility.yul\":29569:29583   */\n      add\n        /* \"#utility.yul\":29554:29583   */\n      swap1\n      pop\n        /* \"#utility.yul\":29516:29589   */\n      swap3\n      swap2\n      pop\n      pop\n      jump\t// out\n        /* \"#utility.yul\":29595:29743   */\n    tag_535:\n        /* \"#utility.yul\":29697:29708   */\n      0x00\n        /* \"#utility.yul\":29734:29737   */\n      dup2\n        /* \"#utility.yul\":29719:29737   */\n      swap1\n      pop\n        /* \"#utility.yul\":29709:29743   */\n      swap3\n      swap2\n      pop\n      pop\n      jump\t// out\n        /* \"#utility.yul\":29749:30054   */\n    tag_269:\n        /* \"#utility.yul\":29789:29792   */\n      0x00\n        /* \"#utility.yul\":29808:29828   */\n      tag_696\n        /* \"#utility.yul\":29826:29827   */\n      dup3\n        /* \"#utility.yul\":29808:29828   */\n      tag_609\n      jump\t// in\n    tag_696:\n        /* \"#utility.yul\":29803:29828   */\n      swap2\n      pop\n        /* \"#utility.yul\":29842:29862   */\n      tag_697\n        /* \"#utility.yul\":29860:29861   */\n      dup4\n        /* \"#utility.yul\":29842:29862   */\n      tag_609\n      jump\t// in\n    tag_697:\n        /* \"#utility.yul\":29837:29862   */\n      swap3\n      pop\n        /* \"#utility.yul\":29996:29997   */\n      dup3\n        /* \"#utility.yul\":29928:29994   */\n      0xffffffffffffffffffffffffffffffffffffffffffffffffffffffffffffffff\n        /* \"#utility.yul\":29924:29998   */\n      sub\n        /* \"#utility.yul\":29921:29922   */\n      dup3\n        /* \"#utility.yul\":29918:29999   */\n      gt\n        /* \"#utility.yul\":29915:29917   */\n      iszero\n      tag_698\n      jumpi\n        /* \"#utility.yul\":30002:30020   */\n      tag_699\n      tag_700\n      jump\t// in\n    tag_699:\n        /* \"#utility.yul\":29915:29917   */\n    tag_698:\n        /* \"#utility.yul\":30046:30047   */\n      dup3\n        /* \"#utility.yul\":30043:30044   */\n      dup3\n        /* \"#utility.yul\":30039:30048   */\n      add\n        /* \"#utility.yul\":30032:30048   */\n      swap1\n      pop\n        /* \"#utility.yul\":29793:30054   */\n      swap3\n      swap2\n      pop\n      pop\n      jump\t// out\n        /* \"#utility.yul\":30060:30245   */\n    tag_259:\n        /* \"#utility.yul\":30100:30101   */\n      0x00\n        /* \"#utility.yul\":30117:30137   */\n      tag_702\n        /* \"#utility.yul\":30135:30136   */\n      dup3\n        /* \"#utility.yul\":30117:30137   */\n      tag_609\n      jump\t// in\n    tag_702:\n        /* \"#utility.yul\":30112:30137   */\n      swap2\n      pop\n        /* \"#utility.yul\":30151:30171   */\n      tag_703\n        /* \"#utility.yul\":30169:30170   */\n      dup4\n        /* \"#utility.yul\":30151:30171   */\n      tag_609\n      jump\t// in\n    tag_703:\n        /* \"#utility.yul\":30146:30171   */\n      swap3\n      pop\n        /* \"#utility.yul\":30190:30191   */\n      dup3\n        /* \"#utility.yul\":30180:30182   */\n      tag_704\n      jumpi\n        /* \"#utility.yul\":30195:30213   */\n      tag_705\n      tag_706\n      jump\t// in\n    tag_705:\n        /* \"#utility.yul\":30180:30182   */\n    tag_704:\n        /* \"#utility.yul\":30237:30238   */\n      dup3\n        /* \"#utility.yul\":30234:30235   */\n      dup3\n        /* \"#utility.yul\":30230:30239   */\n      div\n        /* \"#utility.yul\":30225:30239   */\n      swap1\n      pop\n        /* \"#utility.yul\":30102:30245   */\n      swap3\n      swap2\n      pop\n      pop\n      jump\t// out\n        /* \"#utility.yul\":30251:30442   */\n    tag_265:\n        /* \"#utility.yul\":30291:30295   */\n      0x00\n        /* \"#utility.yul\":30311:30331   */\n      tag_708\n        /* \"#utility.yul\":30329:30330   */\n      dup3\n        /* \"#utility.yul\":30311:30331   */\n      tag_609\n      jump\t// in\n    tag_708:\n        /* \"#utility.yul\":30306:30331   */\n      swap2\n      pop\n        /* \"#utility.yul\":30345:30365   */\n      tag_709\n        /* \"#utility.yul\":30363:30364   */\n      dup4\n        /* \"#utility.yul\":30345:30365   */\n      tag_609\n      jump\t// in\n    tag_709:\n        /* \"#utility.yul\":30340:30365   */\n      swap3\n      pop\n        /* \"#utility.yul\":30384:30385   */\n      dup3\n        /* \"#utility.yul\":30381:30382   */\n      dup3\n        /* \"#utility.yul\":30378:30386   */\n      lt\n        /* \"#utility.yul\":30375:30377   */\n      iszero\n      tag_710\n      jumpi\n        /* \"#utility.yul\":30389:30407   */\n      tag_711\n      tag_700\n      jump\t// in\n    tag_711:\n        /* \"#utility.yul\":30375:30377   */\n    tag_710:\n        /* \"#utility.yul\":30434:30435   */\n      dup3\n        /* \"#utility.yul\":30431:30432   */\n      dup3\n        /* \"#utility.yul\":30427:30436   */\n      sub\n        /* \"#utility.yul\":30419:30436   */\n      swap1\n      pop\n        /* \"#utility.yul\":30296:30442   */\n      swap3\n      swap2\n      pop\n      pop\n      jump\t// out\n        /* \"#utility.yul\":30448:30544   */\n    tag_477:\n        /* \"#utility.yul\":30485:30492   */\n      0x00\n        /* \"#utility.yul\":30514:30538   */\n      tag_713\n        /* \"#utility.yul\":30532:30537   */\n      dup3\n        /* \"#utility.yul\":30514:30538   */\n      tag_714\n      jump\t// in\n    tag_713:\n        /* \"#utility.yul\":30503:30538   */\n      swap1\n      pop\n        /* \"#utility.yul\":30493:30544   */\n      swap2\n      swap1\n      pop\n      jump\t// out\n        /* \"#utility.yul\":30550:30640   */\n    tag_512:\n        /* \"#utility.yul\":30584:30591   */\n      0x00\n        /* \"#utility.yul\":30627:30632   */\n      dup2\n        /* \"#utility.yul\":30620:30633   */\n      iszero\n        /* \"#utility.yul\":30613:30634   */\n      iszero\n        /* \"#utility.yul\":30602:30634   */\n      swap1\n      pop\n        /* \"#utility.yul\":30592:30640   */\n      swap2\n      swap1\n      pop\n      jump\t// out\n        /* \"#utility.yul\":30646:30795   */\n    tag_716:\n        /* \"#utility.yul\":30682:30689   */\n      0x00\n        /* \"#utility.yul\":30722:30788   */\n      0xffffffff00000000000000000000000000000000000000000000000000000000\n        /* \"#utility.yul\":30715:30720   */\n      dup3\n        /* \"#utility.yul\":30711:30789   */\n      and\n        /* \"#utility.yul\":30700:30789   */\n      swap1\n      pop\n        /* \"#utility.yul\":30690:30795   */\n      swap2\n      swap1\n      pop\n      jump\t// out\n        /* \"#utility.yul\":30801:30927   */\n    tag_714:\n        /* \"#utility.yul\":30838:30845   */\n      0x00\n        /* \"#utility.yul\":30878:30920   */\n      0xffffffffffffffffffffffffffffffffffffffff\n        /* \"#utility.yul\":30871:30876   */\n      dup3\n        /* \"#utility.yul\":30867:30921   */\n      and\n        /* \"#utility.yul\":30856:30921   */\n      swap1\n      pop\n        /* \"#utility.yul\":30846:30927   */\n      swap2\n      swap1\n      pop\n      jump\t// out\n        /* \"#utility.yul\":30933:31010   */\n    tag_609:\n        /* \"#utility.yul\":30970:30977   */\n      0x00\n        /* \"#utility.yul\":30999:31004   */\n      dup2\n        /* \"#utility.yul\":30988:31004   */\n      swap1\n      pop\n        /* \"#utility.yul\":30978:31010   */\n      swap2\n      swap1\n      pop\n      jump\t// out\n        /* \"#utility.yul\":31016:31170   */\n    tag_381:\n        /* \"#utility.yul\":31100:31106   */\n      dup3\n        /* \"#utility.yul\":31095:31098   */\n      dup2\n        /* \"#utility.yul\":31090:31093   */\n      dup4\n        /* \"#utility.yul\":31077:31107   */\n      calldatacopy\n        /* \"#utility.yul\":31162:31163   */\n      0x00\n        /* \"#utility.yul\":31153:31159   */\n      dup4\n        /* \"#utility.yul\":31148:31151   */\n      dup4\n        /* \"#utility.yul\":31144:31160   */\n      add\n        /* \"#utility.yul\":31137:31164   */\n      mstore\n        /* \"#utility.yul\":31067:31170   */\n      pop\n      pop\n      pop\n      jump\t// out\n        /* \"#utility.yul\":31176:31483   */\n    tag_520:\n        /* \"#utility.yul\":31244:31245   */\n      0x00\n        /* \"#utility.yul\":31254:31367   */\n    tag_722:\n        /* \"#utility.yul\":31268:31274   */\n      dup4\n        /* \"#utility.yul\":31265:31266   */\n      dup2\n        /* \"#utility.yul\":31262:31275   */\n      lt\n        /* \"#utility.yul\":31254:31367   */\n      iszero\n      tag_724\n      jumpi\n        /* \"#utility.yul\":31353:31354   */\n      dup1\n        /* \"#utility.yul\":31348:31351   */\n      dup3\n        /* \"#utility.yul\":31344:31355   */\n      add\n        /* \"#utility.yul\":31338:31356   */\n      mload\n        /* \"#utility.yul\":31334:31335   */\n      dup2\n        /* \"#utility.yul\":31329:31332   */\n      dup5\n        /* \"#utility.yul\":31325:31336   */\n      add\n        /* \"#utility.yul\":31318:31357   */\n      mstore\n        /* \"#utility.yul\":31290:31292   */\n      0x20\n        /* \"#utility.yul\":31287:31288   */\n      dup2\n        /* \"#utility.yul\":31283:31293   */\n      add\n        /* \"#utility.yul\":31278:31293   */\n      swap1\n      pop\n        /* \"#utility.yul\":31254:31367   */\n      jump(tag_722)\n    tag_724:\n        /* \"#utility.yul\":31385:31391   */\n      dup4\n        /* \"#utility.yul\":31382:31383   */\n      dup2\n        /* \"#utility.yul\":31379:31392   */\n      gt\n        /* \"#utility.yul\":31376:31378   */\n      iszero\n      tag_725\n      jumpi\n        /* \"#utility.yul\":31465:31466   */\n      0x00\n        /* \"#utility.yul\":31456:31462   */\n      dup5\n        /* \"#utility.yul\":31451:31454   */\n      dup5\n        /* \"#utility.yul\":31447:31463   */\n      add\n        /* \"#utility.yul\":31440:31467   */\n      mstore\n        /* \"#utility.yul\":31376:31378   */\n    tag_725:\n        /* \"#utility.yul\":31225:31483   */\n      pop\n      pop\n      pop\n      pop\n      jump\t// out\n        /* \"#utility.yul\":31489:31809   */\n    tag_105:\n        /* \"#utility.yul\":31533:31539   */\n      0x00\n        /* \"#utility.yul\":31570:31571   */\n      0x02\n        /* \"#utility.yul\":31564:31568   */\n      dup3\n        /* \"#utility.yul\":31560:31572   */\n      div\n        /* \"#utility.yul\":31550:31572   */\n      swap1\n      pop\n        /* \"#utility.yul\":31617:31618   */\n      0x01\n        /* \"#utility.yul\":31611:31615   */\n      dup3\n        /* \"#utility.yul\":31607:31619   */\n      and\n        /* \"#utility.yul\":31638:31656   */\n      dup1\n        /* \"#utility.yul\":31628:31630   */\n      tag_727\n      jumpi\n        /* \"#utility.yul\":31694:31698   */\n      0x7f\n        /* \"#utility.yul\":31686:31692   */\n      dup3\n        /* \"#utility.yul\":31682:31699   */\n      and\n        /* \"#utility.yul\":31672:31699   */\n      swap2\n      pop\n        /* \"#utility.yul\":31628:31630   */\n    tag_727:\n        /* \"#utility.yul\":31756:31758   */\n      0x20\n        /* \"#utility.yul\":31748:31754   */\n      dup3\n        /* \"#utility.yul\":31745:31759   */\n      lt\n        /* \"#utility.yul\":31725:31743   */\n      dup2\n        /* \"#utility.yul\":31722:31760   */\n      eq\n        /* \"#utility.yul\":31719:31721   */\n      iszero\n      tag_728\n      jumpi\n        /* \"#utility.yul\":31775:31793   */\n      tag_729\n      tag_730\n      jump\t// in\n    tag_729:\n        /* \"#utility.yul\":31719:31721   */\n    tag_728:\n        /* \"#utility.yul\":31540:31809   */\n      pop\n      swap2\n      swap1\n      pop\n      jump\t// out\n        /* \"#utility.yul\":31815:32096   */\n    tag_665:\n        /* \"#utility.yul\":31898:31925   */\n      tag_732\n        /* \"#utility.yul\":31920:31924   */\n      dup3\n        /* \"#utility.yul\":31898:31925   */\n      tag_522\n      jump\t// in\n    tag_732:\n        /* \"#utility.yul\":31890:31896   */\n      dup2\n        /* \"#utility.yul\":31886:31926   */\n      add\n        /* \"#utility.yul\":32028:32034   */\n      dup2\n        /* \"#utility.yul\":32016:32026   */\n      dup2\n        /* \"#utility.yul\":32013:32035   */\n      lt\n        /* \"#utility.yul\":31992:32010   */\n      0xffffffffffffffff\n        /* \"#utility.yul\":31980:31990   */\n      dup3\n        /* \"#utility.yul\":31977:32011   */\n      gt\n        /* \"#utility.yul\":31974:32036   */\n      or\n        /* \"#utility.yul\":31971:31973   */\n      iszero\n      tag_733\n      jumpi\n        /* \"#utility.yul\":32039:32057   */\n      tag_734\n      tag_670\n      jump\t// in\n    tag_734:\n        /* \"#utility.yul\":31971:31973   */\n    tag_733:\n        /* \"#utility.yul\":32079:32089   */\n      dup1\n        /* \"#utility.yul\":32075:32077   */\n      0x40\n        /* \"#utility.yul\":32068:32090   */\n      mstore\n        /* \"#utility.yul\":31858:32096   */\n      pop\n      pop\n      pop\n      jump\t// out\n        /* \"#utility.yul\":32102:32335   */\n    tag_257:\n        /* \"#utility.yul\":32141:32144   */\n      0x00\n        /* \"#utility.yul\":32164:32188   */\n      tag_736\n        /* \"#utility.yul\":32182:32187   */\n      dup3\n        /* \"#utility.yul\":32164:32188   */\n      tag_609\n      jump\t// in\n    tag_736:\n        /* \"#utility.yul\":32155:32188   */\n      swap2\n      pop\n        /* \"#utility.yul\":32210:32276   */\n      0xffffffffffffffffffffffffffffffffffffffffffffffffffffffffffffffff\n        /* \"#utility.yul\":32203:32208   */\n      dup3\n        /* \"#utility.yul\":32200:32277   */\n      eq\n        /* \"#utility.yul\":32197:32199   */\n      iszero\n      tag_737\n      jumpi\n        /* \"#utility.yul\":32280:32298   */\n      tag_738\n      tag_700\n      jump\t// in\n    tag_738:\n        /* \"#utility.yul\":32197:32199   */\n    tag_737:\n        /* \"#utility.yul\":32327:32328   */\n      0x01\n        /* \"#utility.yul\":32320:32325   */\n      dup3\n        /* \"#utility.yul\":32316:32329   */\n      add\n        /* \"#utility.yul\":32309:32329   */\n      swap1\n      pop\n        /* \"#utility.yul\":32145:32335   */\n      swap2\n      swap1\n      pop\n      jump\t// out\n        /* \"#utility.yul\":32341:32517   */\n    tag_267:\n        /* \"#utility.yul\":32373:32374   */\n      0x00\n        /* \"#utility.yul\":32390:32410   */\n      tag_740\n        /* \"#utility.yul\":32408:32409   */\n      dup3\n        /* \"#utility.yul\":32390:32410   */\n      tag_609\n      jump\t// in\n    tag_740:\n        /* \"#utility.yul\":32385:32410   */\n      swap2\n      pop\n        /* \"#utility.yul\":32424:32444   */\n      tag_741\n        /* \"#utility.yul\":32442:32443   */\n      dup4\n        /* \"#utility.yul\":32424:32444   */\n      tag_609\n      jump\t// in\n    tag_741:\n        /* \"#utility.yul\":32419:32444   */\n      swap3\n      pop\n        /* \"#utility.yul\":32463:32464   */\n      dup3\n        /* \"#utility.yul\":32453:32455   */\n      tag_742\n      jumpi\n        /* \"#utility.yul\":32468:32486   */\n      tag_743\n      tag_706\n      jump\t// in\n    tag_743:\n        /* \"#utility.yul\":32453:32455   */\n    tag_742:\n        /* \"#utility.yul\":32509:32510   */\n      dup3\n        /* \"#utility.yul\":32506:32507   */\n      dup3\n        /* \"#utility.yul\":32502:32511   */\n      mod\n        /* \"#utility.yul\":32497:32511   */\n      swap1\n      pop\n        /* \"#utility.yul\":32375:32517   */\n      swap3\n      swap2\n      pop\n      pop\n      jump\t// out\n        /* \"#utility.yul\":32523:32703   */\n    tag_700:\n        /* \"#utility.yul\":32571:32648   */\n      0x4e487b7100000000000000000000000000000000000000000000000000000000\n        /* \"#utility.yul\":32568:32569   */\n      0x00\n        /* \"#utility.yul\":32561:32649   */\n      mstore\n        /* \"#utility.yul\":32668:32672   */\n      0x11\n        /* \"#utility.yul\":32665:32666   */\n      0x04\n        /* \"#utility.yul\":32658:32673   */\n      mstore\n        /* \"#utility.yul\":32692:32696   */\n      0x24\n        /* \"#utility.yul\":32689:32690   */\n      0x00\n        /* \"#utility.yul\":32682:32697   */\n      revert\n        /* \"#utility.yul\":32709:32889   */\n    tag_706:\n        /* \"#utility.yul\":32757:32834   */\n      0x4e487b7100000000000000000000000000000000000000000000000000000000\n        /* \"#utility.yul\":32754:32755   */\n      0x00\n        /* \"#utility.yul\":32747:32835   */\n      mstore\n        /* \"#utility.yul\":32854:32858   */\n      0x12\n        /* \"#utility.yul\":32851:32852   */\n      0x04\n        /* \"#utility.yul\":32844:32859   */\n      mstore\n        /* \"#utility.yul\":32878:32882   */\n      0x24\n        /* \"#utility.yul\":32875:32876   */\n      0x00\n        /* \"#utility.yul\":32868:32883   */\n      revert\n        /* \"#utility.yul\":32895:33075   */\n    tag_730:\n        /* \"#utility.yul\":32943:33020   */\n      0x4e487b7100000000000000000000000000000000000000000000000000000000\n        /* \"#utility.yul\":32940:32941   */\n      0x00\n        /* \"#utility.yul\":32933:33021   */\n      mstore\n        /* \"#utility.yul\":33040:33044   */\n      0x22\n        /* \"#utility.yul\":33037:33038   */\n      0x04\n        /* \"#utility.yul\":33030:33045   */\n      mstore\n        /* \"#utility.yul\":33064:33068   */\n      0x24\n        /* \"#utility.yul\":33061:33062   */\n      0x00\n        /* \"#utility.yul\":33054:33069   */\n      revert\n        /* \"#utility.yul\":33081:33261   */\n    tag_670:\n        /* \"#utility.yul\":33129:33206   */\n      0x4e487b7100000000000000000000000000000000000000000000000000000000\n        /* \"#utility.yul\":33126:33127   */\n      0x00\n        /* \"#utility.yul\":33119:33207   */\n      mstore\n        /* \"#utility.yul\":33226:33230   */\n      0x41\n        /* \"#utility.yul\":33223:33224   */\n      0x04\n        /* \"#utility.yul\":33216:33231   */\n      mstore\n        /* \"#utility.yul\":33250:33254   */\n      0x24\n        /* \"#utility.yul\":33247:33248   */\n      0x00\n        /* \"#utility.yul\":33240:33255   */\n      revert\n        /* \"#utility.yul\":33267:33369   */\n    tag_522:\n        /* \"#utility.yul\":33308:33314   */\n      0x00\n        /* \"#utility.yul\":33359:33361   */\n      0x1f\n        /* \"#utility.yul\":33355:33362   */\n      not\n        /* \"#utility.yul\":33350:33352   */\n      0x1f\n        /* \"#utility.yul\":33343:33348   */\n      dup4\n        /* \"#utility.yul\":33339:33353   */\n      add\n        /* \"#utility.yul\":33335:33363   */\n      and\n        /* \"#utility.yul\":33325:33363   */\n      swap1\n      pop\n        /* \"#utility.yul\":33315:33369   */\n      swap2\n      swap1\n      pop\n      jump\t// out\n        /* \"#utility.yul\":33375:33607   */\n    tag_541:\n        /* \"#utility.yul\":33515:33549   */\n      0x4552433732313a2063616c6c6572206973206e6f7420746f6b656e206f776e65\n        /* \"#utility.yul\":33511:33512   */\n      0x00\n        /* \"#utility.yul\":33503:33509   */\n      dup3\n        /* \"#utility.yul\":33499:33513   */\n      add\n        /* \"#utility.yul\":33492:33550   */\n      mstore\n        /* \"#utility.yul\":33584:33599   */\n      0x72206f7220617070726f76656400000000000000000000000000000000000000\n        /* \"#utility.yul\":33579:33581   */\n      0x20\n        /* \"#utility.yul\":33571:33577   */\n      dup3\n        /* \"#utility.yul\":33567:33582   */\n      add\n        /* \"#utility.yul\":33560:33600   */\n      mstore\n        /* \"#utility.yul\":33481:33607   */\n      pop\n      jump\t// out\n        /* \"#utility.yul\":33613:33850   */\n    tag_546:\n        /* \"#utility.yul\":33753:33787   */\n      0x4552433732313a207472616e7366657220746f206e6f6e204552433732315265\n        /* \"#utility.yul\":33749:33750   */\n      0x00\n        /* \"#utility.yul\":33741:33747   */\n      dup3\n        /* \"#utility.yul\":33737:33751   */\n      add\n        /* \"#utility.yul\":33730:33788   */\n      mstore\n        /* \"#utility.yul\":33822:33842   */\n      0x63656976657220696d706c656d656e7465720000000000000000000000000000\n        /* \"#utility.yul\":33817:33819   */\n      0x20\n        /* \"#utility.yul\":33809:33815   */\n      dup3\n        /* \"#utility.yul\":33805:33820   */\n      add\n        /* \"#utility.yul\":33798:33843   */\n      mstore\n        /* \"#utility.yul\":33719:33850   */\n      pop\n      jump\t// out\n        /* \"#utility.yul\":33856:34080   */\n    tag_551:\n        /* \"#utility.yul\":33996:34030   */\n      0x4552433732313a207472616e736665722066726f6d20696e636f727265637420\n        /* \"#utility.yul\":33992:33993   */\n      0x00\n        /* \"#utility.yul\":33984:33990   */\n      dup3\n        /* \"#utility.yul\":33980:33994   */\n      add\n        /* \"#utility.yul\":33973:34031   */\n      mstore\n        /* \"#utility.yul\":34065:34072   */\n      0x6f776e6572000000000000000000000000000000000000000000000000000000\n        /* \"#utility.yul\":34060:34062   */\n      0x20\n        /* \"#utility.yul\":34052:34058   */\n      dup3\n        /* \"#utility.yul\":34048:34063   */\n      add\n        /* \"#utility.yul\":34041:34073   */\n      mstore\n        /* \"#utility.yul\":33962:34080   */\n      pop\n      jump\t// out\n        /* \"#utility.yul\":34086:34264   */\n    tag_556:\n        /* \"#utility.yul\":34226:34256   */\n      0x4552433732313a20746f6b656e20616c7265616479206d696e74656400000000\n        /* \"#utility.yul\":34222:34223   */\n      0x00\n        /* \"#utility.yul\":34214:34220   */\n      dup3\n        /* \"#utility.yul\":34210:34224   */\n      add\n        /* \"#utility.yul\":34203:34257   */\n      mstore\n        /* \"#utility.yul\":34192:34264   */\n      pop\n      jump\t// out\n        /* \"#utility.yul\":34270:34493   */\n    tag_561:\n        /* \"#utility.yul\":34410:34444   */\n      0x4552433732313a207472616e7366657220746f20746865207a65726f20616464\n        /* \"#utility.yul\":34406:34407   */\n      0x00\n        /* \"#utility.yul\":34398:34404   */\n      dup3\n        /* \"#utility.yul\":34394:34408   */\n      add\n        /* \"#utility.yul\":34387:34445   */\n      mstore\n        /* \"#utility.yul\":34479:34485   */\n      0x7265737300000000000000000000000000000000000000000000000000000000\n        /* \"#utility.yul\":34474:34476   */\n      0x20\n        /* \"#utility.yul\":34466:34472   */\n      dup3\n        /* \"#utility.yul\":34462:34477   */\n      add\n        /* \"#utility.yul\":34455:34486   */\n      mstore\n        /* \"#utility.yul\":34376:34493   */\n      pop\n      jump\t// out\n        /* \"#utility.yul\":34499:34674   */\n    tag_566:\n        /* \"#utility.yul\":34639:34666   */\n      0x4552433732313a20617070726f766520746f2063616c6c657200000000000000\n        /* \"#utility.yul\":34635:34636   */\n      0x00\n        /* \"#utility.yul\":34627:34633   */\n      dup3\n        /* \"#utility.yul\":34623:34637   */\n      add\n        /* \"#utility.yul\":34616:34667   */\n      mstore\n        /* \"#utility.yul\":34605:34674   */\n      pop\n      jump\t// out\n        /* \"#utility.yul\":34680:34908   */\n    tag_571:\n        /* \"#utility.yul\":34820:34854   */\n      0x4552433732313a2061646472657373207a65726f206973206e6f742061207661\n        /* \"#utility.yul\":34816:34817   */\n      0x00\n        /* \"#utility.yul\":34808:34814   */\n      dup3\n        /* \"#utility.yul\":34804:34818   */\n      add\n        /* \"#utility.yul\":34797:34855   */\n      mstore\n        /* \"#utility.yul\":34889:34900   */\n      0x6c6964206f776e65720000000000000000000000000000000000000000000000\n        /* \"#utility.yul\":34884:34886   */\n      0x20\n        /* \"#utility.yul\":34876:34882   */\n      dup3\n        /* \"#utility.yul\":34872:34887   */\n      add\n        /* \"#utility.yul\":34865:34901   */\n      mstore\n        /* \"#utility.yul\":34786:34908   */\n      pop\n      jump\t// out\n        /* \"#utility.yul\":34914:35147   */\n    tag_576:\n        /* \"#utility.yul\":35054:35088   */\n      0x45524337323155524953746f726167653a2055524920736574206f66206e6f6e\n        /* \"#utility.yul\":35050:35051   */\n      0x00\n        /* \"#utility.yul\":35042:35048   */\n      dup3\n        /* \"#utility.yul\":35038:35052   */\n      add\n        /* \"#utility.yul\":35031:35089   */\n      mstore\n        /* \"#utility.yul\":35123:35139   */\n      0x6578697374656e7420746f6b656e000000000000000000000000000000000000\n        /* \"#utility.yul\":35118:35120   */\n      0x20\n        /* \"#utility.yul\":35110:35116   */\n      dup3\n        /* \"#utility.yul\":35106:35121   */\n      add\n        /* \"#utility.yul\":35099:35140   */\n      mstore\n        /* \"#utility.yul\":35020:35147   */\n      pop\n      jump\t// out\n        /* \"#utility.yul\":35153:35335   */\n    tag_581:\n        /* \"#utility.yul\":35293:35327   */\n      0x4552433732313a206d696e7420746f20746865207a65726f2061646472657373\n        /* \"#utility.yul\":35289:35290   */\n      0x00\n        /* \"#utility.yul\":35281:35287   */\n      dup3\n        /* \"#utility.yul\":35277:35291   */\n      add\n        /* \"#utility.yul\":35270:35328   */\n      mstore\n        /* \"#utility.yul\":35259:35335   */\n      pop\n      jump\t// out\n        /* \"#utility.yul\":35341:35577   */\n    tag_586:\n        /* \"#utility.yul\":35481:35515   */\n      0x45524337323155524953746f726167653a2055524920717565727920666f7220\n        /* \"#utility.yul\":35477:35478   */\n      0x00\n        /* \"#utility.yul\":35469:35475   */\n      dup3\n        /* \"#utility.yul\":35465:35479   */\n      add\n        /* \"#utility.yul\":35458:35516   */\n      mstore\n        /* \"#utility.yul\":35550:35569   */\n      0x6e6f6e6578697374656e7420746f6b656e000000000000000000000000000000\n        /* \"#utility.yul\":35545:35547   */\n      0x20\n        /* \"#utility.yul\":35537:35543   */\n      dup3\n        /* \"#utility.yul\":35533:35548   */\n      add\n        /* \"#utility.yul\":35526:35570   */\n      mstore\n        /* \"#utility.yul\":35447:35577   */\n      pop\n      jump\t// out\n        /* \"#utility.yul\":35583:35817   */\n    tag_591:\n        /* \"#utility.yul\":35723:35757   */\n      0x4552433732314d657461646174613a2055524920717565727920666f72206e6f\n        /* \"#utility.yul\":35719:35720   */\n      0x00\n        /* \"#utility.yul\":35711:35717   */\n      dup3\n        /* \"#utility.yul\":35707:35721   */\n      add\n        /* \"#utility.yul\":35700:35758   */\n      mstore\n        /* \"#utility.yul\":35792:35809   */\n      0x6e6578697374656e7420746f6b656e0000000000000000000000000000000000\n        /* \"#utility.yul\":35787:35789   */\n      0x20\n        /* \"#utility.yul\":35779:35785   */\n      dup3\n        /* \"#utility.yul\":35775:35790   */\n      add\n        /* \"#utility.yul\":35768:35810   */\n      mstore\n        /* \"#utility.yul\":35689:35817   */\n      pop\n      jump\t// out\n        /* \"#utility.yul\":35823:35997   */\n    tag_596:\n        /* \"#utility.yul\":35963:35989   */\n      0x4552433732313a20696e76616c696420746f6b656e2049440000000000000000\n        /* \"#utility.yul\":35959:35960   */\n      0x00\n        /* \"#utility.yul\":35951:35957   */\n      dup3\n        /* \"#utility.yul\":35947:35961   */\n      add\n        /* \"#utility.yul\":35940:35990   */\n      mstore\n        /* \"#utility.yul\":35929:35997   */\n      pop\n      jump\t// out\n        /* \"#utility.yul\":36003:36223   */\n    tag_601:\n        /* \"#utility.yul\":36143:36177   */\n      0x4552433732313a20617070726f76616c20746f2063757272656e74206f776e65\n        /* \"#utility.yul\":36139:36140   */\n      0x00\n        /* \"#utility.yul\":36131:36137   */\n      dup3\n        /* \"#utility.yul\":36127:36141   */\n      add\n        /* \"#utility.yul\":36120:36178   */\n      mstore\n        /* \"#utility.yul\":36212:36215   */\n      0x7200000000000000000000000000000000000000000000000000000000000000\n        /* \"#utility.yul\":36207:36209   */\n      0x20\n        /* \"#utility.yul\":36199:36205   */\n      dup3\n        /* \"#utility.yul\":36195:36210   */\n      add\n        /* \"#utility.yul\":36188:36216   */\n      mstore\n        /* \"#utility.yul\":36109:36223   */\n      pop\n      jump\t// out\n        /* \"#utility.yul\":36229:36477   */\n    tag_606:\n        /* \"#utility.yul\":36369:36403   */\n      0x4552433732313a20617070726f76652063616c6c6572206973206e6f7420746f\n        /* \"#utility.yul\":36365:36366   */\n      0x00\n        /* \"#utility.yul\":36357:36363   */\n      dup3\n        /* \"#utility.yul\":36353:36367   */\n      add\n        /* \"#utility.yul\":36346:36404   */\n      mstore\n        /* \"#utility.yul\":36438:36469   */\n      0x6b656e206f776e6572206f7220617070726f76656420666f7220616c6c000000\n        /* \"#utility.yul\":36433:36435   */\n      0x20\n        /* \"#utility.yul\":36425:36431   */\n      dup3\n        /* \"#utility.yul\":36421:36436   */\n      add\n        /* \"#utility.yul\":36414:36470   */\n      mstore\n        /* \"#utility.yul\":36335:36477   */\n      pop\n      jump\t// out\n        /* \"#utility.yul\":36483:36605   */\n    tag_391:\n        /* \"#utility.yul\":36556:36580   */\n      tag_764\n        /* \"#utility.yul\":36574:36579   */\n      dup2\n        /* \"#utility.yul\":36556:36580   */\n      tag_477\n      jump\t// in\n    tag_764:\n        /* \"#utility.yul\":36549:36554   */\n      dup2\n        /* \"#utility.yul\":36546:36581   */\n      eq\n        /* \"#utility.yul\":36536:36538   */\n      tag_765\n      jumpi\n        /* \"#utility.yul\":36595:36596   */\n      0x00\n        /* \"#utility.yul\":36592:36593   */\n      dup1\n        /* \"#utility.yul\":36585:36597   */\n      revert\n        /* \"#utility.yul\":36536:36538   */\n    tag_765:\n        /* \"#utility.yul\":36526:36605   */\n      pop\n      jump\t// out\n        /* \"#utility.yul\":36611:36727   */\n    tag_403:\n        /* \"#utility.yul\":36681:36702   */\n      tag_767\n        /* \"#utility.yul\":36696:36701   */\n      dup2\n        /* \"#utility.yul\":36681:36702   */\n      tag_512\n      jump\t// in\n    tag_767:\n        /* \"#utility.yul\":36674:36679   */\n      dup2\n        /* \"#utility.yul\":36671:36703   */\n      eq\n        /* \"#utility.yul\":36661:36663   */\n      tag_768\n      jumpi\n        /* \"#utility.yul\":36717:36718   */\n      0x00\n        /* \"#utility.yul\":36714:36715   */\n      dup1\n        /* \"#utility.yul\":36707:36719   */\n      revert\n        /* \"#utility.yul\":36661:36663   */\n    tag_768:\n        /* \"#utility.yul\":36651:36727   */\n      pop\n      jump\t// out\n        /* \"#utility.yul\":36733:36853   */\n    tag_407:\n        /* \"#utility.yul\":36805:36828   */\n      tag_770\n        /* \"#utility.yul\":36822:36827   */\n      dup2\n        /* \"#utility.yul\":36805:36828   */\n      tag_716\n      jump\t// in\n    tag_770:\n        /* \"#utility.yul\":36798:36803   */\n      dup2\n        /* \"#utility.yul\":36795:36829   */\n      eq\n        /* \"#utility.yul\":36785:36787   */\n      tag_771\n      jumpi\n        /* \"#utility.yul\":36843:36844   */\n      0x00\n        /* \"#utility.yul\":36840:36841   */\n      dup1\n        /* \"#utility.yul\":36833:36845   */\n      revert\n        /* \"#utility.yul\":36785:36787   */\n    tag_771:\n        /* \"#utility.yul\":36775:36853   */\n      pop\n      jump\t// out\n        /* \"#utility.yul\":36859:36981   */\n    tag_421:\n        /* \"#utility.yul\":36932:36956   */\n      tag_773\n        /* \"#utility.yul\":36950:36955   */\n      dup2\n        /* \"#utility.yul\":36932:36956   */\n      tag_609\n      jump\t// in\n    tag_773:\n        /* \"#utility.yul\":36925:36930   */\n      dup2\n        /* \"#utility.yul\":36922:36957   */\n      eq\n        /* \"#utility.yul\":36912:36914   */\n      tag_774\n      jumpi\n        /* \"#utility.yul\":36971:36972   */\n      0x00\n        /* \"#utility.yul\":36968:36969   */\n      dup1\n        /* \"#utility.yul\":36961:36973   */\n      revert\n        /* \"#utility.yul\":36912:36914   */\n    tag_774:\n        /* \"#utility.yul\":36902:36981   */\n      pop\n      jump\t// out\n\n    auxdata: 0xa2646970667358221220fa65ea3ce42f9a75af3da536c9adc714624249291236f562cd1d754425ddb24064736f6c63430008040033\n}\n",
				"bytecode": {
					"linkReferences": {},
					"object": "60806040523480156200001157600080fd5b506040516200355f3803806200355f833981810160405281019062000037919062000193565b81600190805190602001906200004f92919062000071565b5080600290805190602001906200006892919062000071565b50505062000376565b8280546200007f906200029b565b90600052602060002090601f016020900481019282620000a35760008555620000ef565b82601f10620000be57805160ff1916838001178555620000ef565b82800160010185558215620000ef579182015b82811115620000ee578251825591602001919060010190620000d1565b5b509050620000fe919062000102565b5090565b5b808211156200011d57600081600090555060010162000103565b5090565b60006200013862000132846200022f565b62000206565b9050828152602081018484840111156200015157600080fd5b6200015e84828562000265565b509392505050565b600082601f8301126200017857600080fd5b81516200018a84826020860162000121565b91505092915050565b60008060408385031215620001a757600080fd5b600083015167ffffffffffffffff811115620001c257600080fd5b620001d08582860162000166565b925050602083015167ffffffffffffffff811115620001ee57600080fd5b620001fc8582860162000166565b9150509250929050565b60006200021262000225565b9050620002208282620002d1565b919050565b6000604051905090565b600067ffffffffffffffff8211156200024d576200024c62000336565b5b620002588262000365565b9050602081019050919050565b60005b838110156200028557808201518184015260208101905062000268565b8381111562000295576000848401525b50505050565b60006002820490506001821680620002b457607f821691505b60208210811415620002cb57620002ca62000307565b5b50919050565b620002dc8262000365565b810181811067ffffffffffffffff82111715620002fe57620002fd62000336565b5b80604052505050565b7f4e487b7100000000000000000000000000000000000000000000000000000000600052602260045260246000fd5b7f4e487b7100000000000000000000000000000000000000000000000000000000600052604160045260246000fd5b6000601f19601f8301169050919050565b6131d980620003866000396000f3fe608060405234801561001057600080fd5b506004361061010b5760003560e01c80636352211e116100a2578063a22cb46511610071578063a22cb465146102dc578063b88d4fde146102f8578063c87b56dd14610314578063e985e9c514610344578063ee48cda2146103745761010b565b80636352211e1461022e57806370a082311461025e5780638d17e7121461028e57806395d89b41146102be5761010b565b806323b872dd116100de57806323b872dd146101aa578063381568d8146101c657806342842e0e146101e257806352e04825146101fe5761010b565b806301ffc9a71461011057806306fdde0314610140578063081812fc1461015e578063095ea7b31461018e575b600080fd5b61012a600480360381019061012591906121b8565b6103a4565b60405161013791906126c6565b60405180910390f35b610148610486565b60405161015591906126e1565b60405180910390f35b6101786004803603810190610173919061220a565b610518565b604051610185919061261b565b60405180910390f35b6101a860048036038101906101a3919061217c565b61055e565b005b6101c460048036038101906101bf9190611fcb565b610676565b005b6101e060048036038101906101db9190612095565b6106d6565b005b6101fc60048036038101906101f79190611fcb565b61070b565b005b6102186004803603810190610213919061220a565b61072b565b6040516102259190612682565b60405180910390f35b6102486004803603810190610243919061220a565b6107d2565b604051610255919061261b565b60405180910390f35b61027860048036038101906102739190611f66565b610884565b60405161028591906128c3565b60405180910390f35b6102a860048036038101906102a3919061220a565b61093c565b6040516102b591906126e1565b60405180910390f35b6102c66109e3565b6040516102d391906126e1565b60405180910390f35b6102f660048036038101906102f19190612140565b610a75565b005b610312600480360381019061030d919061201a565b610a8b565b005b61032e6004803603810190610329919061220a565b610aed565b60405161033b91906126e1565b60405180910390f35b61035e60048036038101906103599190611f8f565b610c3f565b60405161036b91906126c6565b60405180910390f35b61038e6004803603810190610389919061220a565b610cd3565b60405161039b91906126a4565b60405180910390f35b60007f80ac58cd000000000000000000000000000000000000000000000000000000007bffffffffffffffffffffffffffffffffffffffffffffffffffffffff1916827bffffffffffffffffffffffffffffffffffffffffffffffffffffffff1916148061046f57507f5b5e139f000000000000000000000000000000000000000000000000000000007bffffffffffffffffffffffffffffffffffffffffffffffffffffffff1916827bffffffffffffffffffffffffffffffffffffffffffffffffffffffff1916145b8061047f575061047e82610d44565b5b9050919050565b60606001805461049590612be3565b80601f01602080910402602001604051908101604052809291908181526020018280546104c190612be3565b801561050e5780601f106104e35761010080835404028352916020019161050e565b820191906000526020600020905b8154815290600101906020018083116104f157829003601f168201915b5050505050905090565b600061052382610dae565b6007600083815260200190815260200160002060009054906101000a900473ffffffffffffffffffffffffffffffffffffffff169050919050565b6000610569826107d2565b90508073ffffffffffffffffffffffffffffffffffffffff168373ffffffffffffffffffffffffffffffffffffffff1614156105da576040517f08c379a00000000000000000000000000000000000000000000000000000000081526004016105d190612883565b60405180910390fd5b8073ffffffffffffffffffffffffffffffffffffffff166105f9610df9565b73ffffffffffffffffffffffffffffffffffffffff161480610628575061062781610622610df9565b610c3f565b5b610667576040517f08c379a000000000000000000000000000000000000000000000000000000000815260040161065e906128a3565b60405180910390fd5b6106718383610e01565b505050565b610687610681610df9565b82610eba565b6106c6576040517f08c379a00000000000000000000000000000000000000000000000000000000081526004016106bd90612703565b60405180910390fd5b6106d1838383610f4f565b505050565b6106e06000611245565b60006106ec600061125b565b90506106fa85858584611269565b610704818361128b565b5050505050565b61072683838360405180602001604052806000815250610a8b565b505050565b60606000600460008481526020019081526020016000208054806020026020016040519081016040528092919081815260200182805480156107c257602002820191906000526020600020905b8160009054906101000a900473ffffffffffffffffffffffffffffffffffffffff1673ffffffffffffffffffffffffffffffffffffffff1681526020019060010190808311610778575b5050505050905080915050919050565b6000806003600084815260200190815260200160002060009054906101000a900473ffffffffffffffffffffffffffffffffffffffff169050600073ffffffffffffffffffffffffffffffffffffffff168173ffffffffffffffffffffffffffffffffffffffff16141561087b576040517f08c379a000000000000000000000000000000000000000000000000000000000815260040161087290612863565b60405180910390fd5b80915050919050565b60008073ffffffffffffffffffffffffffffffffffffffff168273ffffffffffffffffffffffffffffffffffffffff1614156108f5576040517f08c379a00000000000000000000000000000000000000000000000000000000081526004016108ec906127c3565b60405180910390fd5b600660008373ffffffffffffffffffffffffffffffffffffffff1673ffffffffffffffffffffffffffffffffffffffff168152602001908152602001600020549050919050565b6060610947826112ff565b610986576040517f08c379a000000000000000000000000000000000000000000000000000000000815260040161097d90612843565b60405180910390fd5b600061099061136b565b905060008151116109b057604051806020016040528060008152506109db565b806109ba84611382565b6040516020016109cb9291906125f7565b6040516020818303038152906040525b915050919050565b6060600280546109f290612be3565b80601f0160208091040260200160405190810160405280929190818152602001828054610a1e90612be3565b8015610a6b5780601f10610a4057610100808354040283529160200191610a6b565b820191906000526020600020905b815481529060010190602001808311610a4e57829003601f168201915b5050505050905090565b610a87610a80610df9565b838361152f565b5050565b610a9c610a96610df9565b83610eba565b610adb576040517f08c379a0000000000000000000000000000000000000000000000000000000008152600401610ad290612703565b60405180910390fd5b610ae78484848461169c565b50505050565b6060610af8826112ff565b610b37576040517f08c379a0000000000000000000000000000000000000000000000000000000008152600401610b2e90612823565b60405180910390fd5b6000600960008481526020019081526020016000208054610b5790612be3565b80601f0160208091040260200160405190810160405280929190818152602001828054610b8390612be3565b8015610bd05780601f10610ba557610100808354040283529160200191610bd0565b820191906000526020600020905b815481529060010190602001808311610bb357829003601f168201915b505050505090506000610be161136b565b9050600081511415610bf7578192505050610c3a565b600082511115610c2c578082604051602001610c149291906125f7565b60405160208183030381529060405292505050610c3a565b610c358461093c565b925050505b919050565b6000600860008473ffffffffffffffffffffffffffffffffffffffff1673ffffffffffffffffffffffffffffffffffffffff16815260200190815260200160002060008373ffffffffffffffffffffffffffffffffffffffff1673ffffffffffffffffffffffffffffffffffffffff16815260200190815260200160002060009054906101000a900460ff16905092915050565b6060600060056000848152602001908152602001600020805480602002602001604051908101604052809291908181526020018280548015610d3457602002820191906000526020600020905b815481526020019060010190808311610d20575b5050505050905080915050919050565b60007f01ffc9a7000000000000000000000000000000000000000000000000000000007bffffffffffffffffffffffffffffffffffffffffffffffffffffffff1916827bffffffffffffffffffffffffffffffffffffffffffffffffffffffff1916149050919050565b610db7816112ff565b610df6576040517f08c379a0000000000000000000000000000000000000000000000000000000008152600401610ded90612863565b60405180910390fd5b50565b600033905090565b816007600083815260200190815260200160002060006101000a81548173ffffffffffffffffffffffffffffffffffffffff021916908373ffffffffffffffffffffffffffffffffffffffff160217905550808273ffffffffffffffffffffffffffffffffffffffff16610e74836107d2565b73ffffffffffffffffffffffffffffffffffffffff167f8c5be1e5ebec7d5bd14f71427d1e84f3dd0314c0f7b2291e5b200ac8c7c3b92560405160405180910390a45050565b600080610ec6836107d2565b90508073ffffffffffffffffffffffffffffffffffffffff168473ffffffffffffffffffffffffffffffffffffffff161480610f085750610f078185610c3f565b5b80610f4657508373ffffffffffffffffffffffffffffffffffffffff16610f2e84610518565b73ffffffffffffffffffffffffffffffffffffffff16145b91505092915050565b8273ffffffffffffffffffffffffffffffffffffffff16610f6f826107d2565b73ffffffffffffffffffffffffffffffffffffffff1614610fc5576040517f08c379a0000000000000000000000000000000000000000000000000000000008152600401610fbc90612743565b60405180910390fd5b600073ffffffffffffffffffffffffffffffffffffffff168273ffffffffffffffffffffffffffffffffffffffff161415611035576040517f08c379a000000000000000000000000000000000000000000000000000000000815260040161102c90612783565b60405180910390fd5b6110408383836116f8565b8273ffffffffffffffffffffffffffffffffffffffff16611060826107d2565b73ffffffffffffffffffffffffffffffffffffffff16146110b6576040517f08c379a00000000000000000000000000000000000000000000000000000000081526004016110ad90612743565b60405180910390fd5b6007600082815260200190815260200160002060006101000a81549073ffffffffffffffffffffffffffffffffffffffff02191690556001600660008573ffffffffffffffffffffffffffffffffffffffff1673ffffffffffffffffffffffffffffffffffffffff168152602001908152602001600020600082825403925050819055506001600660008473ffffffffffffffffffffffffffffffffffffffff1673ffffffffffffffffffffffffffffffffffffffff16815260200190815260200160002060008282540192505081905550816003600083815260200190815260200160002060006101000a81548173ffffffffffffffffffffffffffffffffffffffff021916908373ffffffffffffffffffffffffffffffffffffffff160217905550808273ffffffffffffffffffffffffffffffffffffffff168473ffffffffffffffffffffffffffffffffffffffff167fddf252ad1be2c89b69c2b068fc378daa952ba7f163c4a11628f55a4df523b3ef60405160405180910390a46112408383836116fd565b505050565b6001816000016000828254019250508190555050565b600081600001549050919050565b6112858484848460405180602001604052806000815250611702565b50505050565b611294826112ff565b6112d3576040517f08c379a00000000000000000000000000000000000000000000000000000000081526004016112ca906127e3565b60405180910390fd5b806009600084815260200190815260200160002090805190602001906112fa929190611b87565b505050565b60008073ffffffffffffffffffffffffffffffffffffffff166003600084815260200190815260200160002060009054906101000a900473ffffffffffffffffffffffffffffffffffffffff1673ffffffffffffffffffffffffffffffffffffffff1614159050919050565b606060405180602001604052806000815250905090565b606060008214156113ca576040518060400160405280600181526020017f3000000000000000000000000000000000000000000000000000000000000000815250905061152a565b600082905060005b600082146113fc5780806113e590612c46565b915050600a826113f59190612ac8565b91506113d2565b60008167ffffffffffffffff81111561143e577f4e487b7100000000000000000000000000000000000000000000000000000000600052604160045260246000fd5b6040519080825280601f01601f1916602001820160405280156114705781602001600182028036833780820191505090505b5090505b60008514611523576001826114899190612af9565b9150600a856114989190612c8f565b60306114a49190612a72565b60f81b8183815181106114e0577f4e487b7100000000000000000000000000000000000000000000000000000000600052603260045260246000fd5b60200101907effffffffffffffffffffffffffffffffffffffffffffffffffffffffffffff1916908160001a905350600a8561151c9190612ac8565b9450611474565b8093505050505b919050565b8173ffffffffffffffffffffffffffffffffffffffff168373ffffffffffffffffffffffffffffffffffffffff16141561159e576040517f08c379a0000000000000000000000000000000000000000000000000000000008152600401611595906127a3565b60405180910390fd5b80600860008573ffffffffffffffffffffffffffffffffffffffff1673ffffffffffffffffffffffffffffffffffffffff16815260200190815260200160002060008473ffffffffffffffffffffffffffffffffffffffff1673ffffffffffffffffffffffffffffffffffffffff16815260200190815260200160002060006101000a81548160ff0219169083151502179055508173ffffffffffffffffffffffffffffffffffffffff168373ffffffffffffffffffffffffffffffffffffffff167f17307eab39ab6107e8899845ad3d59bd9653f200f220920489ca2b5937696c318360405161168f91906126c6565b60405180910390a3505050565b6116a7848484610f4f565b6116b384848484611761565b6116f2576040517f08c379a00000000000000000000000000000000000000000000000000000000081526004016116e990612723565b60405180910390fd5b50505050565b505050565b505050565b61170e858585856118f8565b61171b6000868484611761565b61175a576040517f08c379a000000000000000000000000000000000000000000000000000000000815260040161175190612723565b60405180910390fd5b5050505050565b60006117828473ffffffffffffffffffffffffffffffffffffffff16611b64565b156118eb578373ffffffffffffffffffffffffffffffffffffffff1663150b7a026117ab610df9565b8786866040518563ffffffff1660e01b81526004016117cd9493929190612636565b602060405180830381600087803b1580156117e757600080fd5b505af192505050801561181857506040513d601f19601f8201168201806040525081019061181591906121e1565b60015b61189b573d8060008114611848576040519150601f19603f3d011682016040523d82523d6000602084013e61184d565b606091505b50600081511415611893576040517f08c379a000000000000000000000000000000000000000000000000000000000815260040161188a90612723565b60405180910390fd5b805181602001fd5b63150b7a0260e01b7bffffffffffffffffffffffffffffffffffffffffffffffffffffffff1916817bffffffffffffffffffffffffffffffffffffffffffffffffffffffff1916149150506118f0565b600190505b949350505050565b600073ffffffffffffffffffffffffffffffffffffffff168473ffffffffffffffffffffffffffffffffffffffff161415611968576040517f08c379a000000000000000000000000000000000000000000000000000000000815260040161195f90612803565b60405180910390fd5b611971816112ff565b156119b1576040517f08c379a00000000000000000000000000000000000000000000000000000000081526004016119a890612763565b60405180910390fd5b6119bd600085836116f8565b6119c6816112ff565b15611a06576040517f08c379a00000000000000000000000000000000000000000000000000000000081526004016119fd90612763565b60405180910390fd5b6001600660008673ffffffffffffffffffffffffffffffffffffffff1673ffffffffffffffffffffffffffffffffffffffff16815260200190815260200160002060008282540192505081905550836003600083815260200190815260200160002060006101000a81548173ffffffffffffffffffffffffffffffffffffffff021916908373ffffffffffffffffffffffffffffffffffffffff16021790555082600460008381526020019081526020016000209080519060200190611acd929190611c0d565b5081600560008381526020019081526020016000209080519060200190611af5929190611c97565b50808473ffffffffffffffffffffffffffffffffffffffff16600073ffffffffffffffffffffffffffffffffffffffff167fddf252ad1be2c89b69c2b068fc378daa952ba7f163c4a11628f55a4df523b3ef60405160405180910390a4611b5e600085836116fd565b50505050565b6000808273ffffffffffffffffffffffffffffffffffffffff163b119050919050565b828054611b9390612be3565b90600052602060002090601f016020900481019282611bb55760008555611bfc565b82601f10611bce57805160ff1916838001178555611bfc565b82800160010185558215611bfc579182015b82811115611bfb578251825591602001919060010190611be0565b5b509050611c099190611ce4565b5090565b828054828255906000526020600020908101928215611c86579160200282015b82811115611c855782518260006101000a81548173ffffffffffffffffffffffffffffffffffffffff021916908373ffffffffffffffffffffffffffffffffffffffff16021790555091602001919060010190611c2d565b5b509050611c939190611ce4565b5090565b828054828255906000526020600020908101928215611cd3579160200282015b82811115611cd2578251825591602001919060010190611cb7565b5b509050611ce09190611ce4565b5090565b5b80821115611cfd576000816000905550600101611ce5565b5090565b6000611d14611d0f84612903565b6128de565b90508083825260208201905082856020860282011115611d3357600080fd5b60005b85811015611d635781611d498882611e55565b845260208401935060208301925050600181019050611d36565b5050509392505050565b6000611d80611d7b8461292f565b6128de565b90508083825260208201905082856020860282011115611d9f57600080fd5b60005b85811015611dcf5781611db58882611f51565b845260208401935060208301925050600181019050611da2565b5050509392505050565b6000611dec611de78461295b565b6128de565b905082815260208101848484011115611e0457600080fd5b611e0f848285612ba1565b509392505050565b6000611e2a611e258461298c565b6128de565b905082815260208101848484011115611e4257600080fd5b611e4d848285612ba1565b509392505050565b600081359050611e6481613147565b92915050565b600082601f830112611e7b57600080fd5b8135611e8b848260208601611d01565b91505092915050565b600082601f830112611ea557600080fd5b8135611eb5848260208601611d6d565b91505092915050565b600081359050611ecd8161315e565b92915050565b600081359050611ee281613175565b92915050565b600081519050611ef781613175565b92915050565b600082601f830112611f0e57600080fd5b8135611f1e848260208601611dd9565b91505092915050565b600082601f830112611f3857600080fd5b8135611f48848260208601611e17565b91505092915050565b600081359050611f608161318c565b92915050565b600060208284031215611f7857600080fd5b6000611f8684828501611e55565b91505092915050565b60008060408385031215611fa257600080fd5b6000611fb085828601611e55565b9250506020611fc185828601611e55565b9150509250929050565b600080600060608486031215611fe057600080fd5b6000611fee86828701611e55565b9350506020611fff86828701611e55565b925050604061201086828701611f51565b9150509250925092565b6000806000806080858703121561203057600080fd5b600061203e87828801611e55565b945050602061204f87828801611e55565b935050604061206087828801611f51565b925050606085013567ffffffffffffffff81111561207d57600080fd5b61208987828801611efd565b91505092959194509250565b600080600080608085870312156120ab57600080fd5b60006120b987828801611e55565b945050602085013567ffffffffffffffff8111156120d657600080fd5b6120e287828801611e6a565b935050604085013567ffffffffffffffff8111156120ff57600080fd5b61210b87828801611e94565b925050606085013567ffffffffffffffff81111561212857600080fd5b61213487828801611f27565b91505092959194509250565b6000806040838503121561215357600080fd5b600061216185828601611e55565b925050602061217285828601611ebe565b9150509250929050565b6000806040838503121561218f57600080fd5b600061219d85828601611e55565b92505060206121ae85828601611f51565b9150509250929050565b6000602082840312156121ca57600080fd5b60006121d884828501611ed3565b91505092915050565b6000602082840312156121f357600080fd5b600061220184828501611ee8565b91505092915050565b60006020828403121561221c57600080fd5b600061222a84828501611f51565b91505092915050565b600061223f8383612263565b60208301905092915050565b600061225783836125d9565b60208301905092915050565b61226c81612b2d565b82525050565b61227b81612b2d565b82525050565b600061228c826129dd565b6122968185612a23565b93506122a1836129bd565b8060005b838110156122d25781516122b98882612233565b97506122c483612a09565b9250506001810190506122a5565b5085935050505092915050565b60006122ea826129e8565b6122f48185612a34565b93506122ff836129cd565b8060005b83811015612330578151612317888261224b565b975061232283612a16565b925050600181019050612303565b5085935050505092915050565b61234681612b3f565b82525050565b6000612357826129f3565b6123618185612a45565b9350612371818560208601612bb0565b61237a81612d7c565b840191505092915050565b6000612390826129fe565b61239a8185612a56565b93506123aa818560208601612bb0565b6123b381612d7c565b840191505092915050565b60006123c9826129fe565b6123d38185612a67565b93506123e3818560208601612bb0565b80840191505092915050565b60006123fc602d83612a56565b915061240782612d8d565b604082019050919050565b600061241f603283612a56565b915061242a82612ddc565b604082019050919050565b6000612442602583612a56565b915061244d82612e2b565b604082019050919050565b6000612465601c83612a56565b915061247082612e7a565b602082019050919050565b6000612488602483612a56565b915061249382612ea3565b604082019050919050565b60006124ab601983612a56565b91506124b682612ef2565b602082019050919050565b60006124ce602983612a56565b91506124d982612f1b565b604082019050919050565b60006124f1602e83612a56565b91506124fc82612f6a565b604082019050919050565b6000612514602083612a56565b915061251f82612fb9565b602082019050919050565b6000612537603183612a56565b915061254282612fe2565b604082019050919050565b600061255a602f83612a56565b915061256582613031565b604082019050919050565b600061257d601883612a56565b915061258882613080565b602082019050919050565b60006125a0602183612a56565b91506125ab826130a9565b604082019050919050565b60006125c3603d83612a56565b91506125ce826130f8565b604082019050919050565b6125e281612b97565b82525050565b6125f181612b97565b82525050565b600061260382856123be565b915061260f82846123be565b91508190509392505050565b60006020820190506126306000830184612272565b92915050565b600060808201905061264b6000830187612272565b6126586020830186612272565b61266560408301856125e8565b8181036060830152612677818461234c565b905095945050505050565b6000602082019050818103600083015261269c8184612281565b905092915050565b600060208201905081810360008301526126be81846122df565b905092915050565b60006020820190506126db600083018461233d565b92915050565b600060208201905081810360008301526126fb8184612385565b905092915050565b6000602082019050818103600083015261271c816123ef565b9050919050565b6000602082019050818103600083015261273c81612412565b9050919050565b6000602082019050818103600083015261275c81612435565b9050919050565b6000602082019050818103600083015261277c81612458565b9050919050565b6000602082019050818103600083015261279c8161247b565b9050919050565b600060208201905081810360008301526127bc8161249e565b9050919050565b600060208201905081810360008301526127dc816124c1565b9050919050565b600060208201905081810360008301526127fc816124e4565b9050919050565b6000602082019050818103600083015261281c81612507565b9050919050565b6000602082019050818103600083015261283c8161252a565b9050919050565b6000602082019050818103600083015261285c8161254d565b9050919050565b6000602082019050818103600083015261287c81612570565b9050919050565b6000602082019050818103600083015261289c81612593565b9050919050565b600060208201905081810360008301526128bc816125b6565b9050919050565b60006020820190506128d860008301846125e8565b92915050565b60006128e86128f9565b90506128f48282612c15565b919050565b6000604051905090565b600067ffffffffffffffff82111561291e5761291d612d4d565b5b602082029050602081019050919050565b600067ffffffffffffffff82111561294a57612949612d4d565b5b602082029050602081019050919050565b600067ffffffffffffffff82111561297657612975612d4d565b5b61297f82612d7c565b9050602081019050919050565b600067ffffffffffffffff8211156129a7576129a6612d4d565b5b6129b082612d7c565b9050602081019050919050565b6000819050602082019050919050565b6000819050602082019050919050565b600081519050919050565b600081519050919050565b600081519050919050565b600081519050919050565b6000602082019050919050565b6000602082019050919050565b600082825260208201905092915050565b600082825260208201905092915050565b600082825260208201905092915050565b600082825260208201905092915050565b600081905092915050565b6000612a7d82612b97565b9150612a8883612b97565b9250827fffffffffffffffffffffffffffffffffffffffffffffffffffffffffffffffff03821115612abd57612abc612cc0565b5b828201905092915050565b6000612ad382612b97565b9150612ade83612b97565b925082612aee57612aed612cef565b5b828204905092915050565b6000612b0482612b97565b9150612b0f83612b97565b925082821015612b2257612b21612cc0565b5b828203905092915050565b6000612b3882612b77565b9050919050565b60008115159050919050565b60007fffffffff0000000000000000000000000000000000000000000000000000000082169050919050565b600073ffffffffffffffffffffffffffffffffffffffff82169050919050565b6000819050919050565b82818337600083830152505050565b60005b83811015612bce578082015181840152602081019050612bb3565b83811115612bdd576000848401525b50505050565b60006002820490506001821680612bfb57607f821691505b60208210811415612c0f57612c0e612d1e565b5b50919050565b612c1e82612d7c565b810181811067ffffffffffffffff82111715612c3d57612c3c612d4d565b5b80604052505050565b6000612c5182612b97565b91507fffffffffffffffffffffffffffffffffffffffffffffffffffffffffffffffff821415612c8457612c83612cc0565b5b600182019050919050565b6000612c9a82612b97565b9150612ca583612b97565b925082612cb557612cb4612cef565b5b828206905092915050565b7f4e487b7100000000000000000000000000000000000000000000000000000000600052601160045260246000fd5b7f4e487b7100000000000000000000000000000000000000000000000000000000600052601260045260246000fd5b7f4e487b7100000000000000000000000000000000000000000000000000000000600052602260045260246000fd5b7f4e487b7100000000000000000000000000000000000000000000000000000000600052604160045260246000fd5b6000601f19601f8301169050919050565b7f4552433732313a2063616c6c6572206973206e6f7420746f6b656e206f776e6560008201527f72206f7220617070726f76656400000000000000000000000000000000000000602082015250565b7f4552433732313a207472616e7366657220746f206e6f6e20455243373231526560008201527f63656976657220696d706c656d656e7465720000000000000000000000000000602082015250565b7f4552433732313a207472616e736665722066726f6d20696e636f72726563742060008201527f6f776e6572000000000000000000000000000000000000000000000000000000602082015250565b7f4552433732313a20746f6b656e20616c7265616479206d696e74656400000000600082015250565b7f4552433732313a207472616e7366657220746f20746865207a65726f2061646460008201527f7265737300000000000000000000000000000000000000000000000000000000602082015250565b7f4552433732313a20617070726f766520746f2063616c6c657200000000000000600082015250565b7f4552433732313a2061646472657373207a65726f206973206e6f74206120766160008201527f6c6964206f776e65720000000000000000000000000000000000000000000000602082015250565b7f45524337323155524953746f726167653a2055524920736574206f66206e6f6e60008201527f6578697374656e7420746f6b656e000000000000000000000000000000000000602082015250565b7f4552433732313a206d696e7420746f20746865207a65726f2061646472657373600082015250565b7f45524337323155524953746f726167653a2055524920717565727920666f722060008201527f6e6f6e6578697374656e7420746f6b656e000000000000000000000000000000602082015250565b7f4552433732314d657461646174613a2055524920717565727920666f72206e6f60008201527f6e6578697374656e7420746f6b656e0000000000000000000000000000000000602082015250565b7f4552433732313a20696e76616c696420746f6b656e2049440000000000000000600082015250565b7f4552433732313a20617070726f76616c20746f2063757272656e74206f776e6560008201527f7200000000000000000000000000000000000000000000000000000000000000602082015250565b7f4552433732313a20617070726f76652063616c6c6572206973206e6f7420746f60008201527f6b656e206f776e6572206f7220617070726f76656420666f7220616c6c000000602082015250565b61315081612b2d565b811461315b57600080fd5b50565b61316781612b3f565b811461317257600080fd5b50565b61317e81612b4b565b811461318957600080fd5b50565b61319581612b97565b81146131a057600080fd5b5056fea2646970667358221220fa65ea3ce42f9a75af3da536c9adc714624249291236f562cd1d754425ddb24064736f6c63430008040033",
					"opcodes": "PUSH1 0x80 PUSH1 0x40 MSTORE CALLVALUE DUP1 ISZERO PUSH3 0x11 JUMPI PUSH1 0x0 DUP1 REVERT JUMPDEST POP PUSH1 0x40 MLOAD PUSH3 0x355F CODESIZE SUB DUP1 PUSH3 0x355F DUP4 CODECOPY DUP2 DUP2 ADD PUSH1 0x40 MSTORE DUP2 ADD SWAP1 PUSH3 0x37 SWAP2 SWAP1 PUSH3 0x193 JUMP JUMPDEST DUP2 PUSH1 0x1 SWAP1 DUP1 MLOAD SWAP1 PUSH1 0x20 ADD SWAP1 PUSH3 0x4F SWAP3 SWAP2 SWAP1 PUSH3 0x71 JUMP JUMPDEST POP DUP1 PUSH1 0x2 SWAP1 DUP1 MLOAD SWAP1 PUSH1 0x20 ADD SWAP1 PUSH3 0x68 SWAP3 SWAP2 SWAP1 PUSH3 0x71 JUMP JUMPDEST POP POP POP PUSH3 0x376 JUMP JUMPDEST DUP3 DUP1 SLOAD PUSH3 0x7F SWAP1 PUSH3 0x29B JUMP JUMPDEST SWAP1 PUSH1 0x0 MSTORE PUSH1 0x20 PUSH1 0x0 KECCAK256 SWAP1 PUSH1 0x1F ADD PUSH1 0x20 SWAP1 DIV DUP2 ADD SWAP3 DUP3 PUSH3 0xA3 JUMPI PUSH1 0x0 DUP6 SSTORE PUSH3 0xEF JUMP JUMPDEST DUP3 PUSH1 0x1F LT PUSH3 0xBE JUMPI DUP1 MLOAD PUSH1 0xFF NOT AND DUP4 DUP1 ADD OR DUP6 SSTORE PUSH3 0xEF JUMP JUMPDEST DUP3 DUP1 ADD PUSH1 0x1 ADD DUP6 SSTORE DUP3 ISZERO PUSH3 0xEF JUMPI SWAP2 DUP3 ADD JUMPDEST DUP3 DUP2 GT ISZERO PUSH3 0xEE JUMPI DUP3 MLOAD DUP3 SSTORE SWAP2 PUSH1 0x20 ADD SWAP2 SWAP1 PUSH1 0x1 ADD SWAP1 PUSH3 0xD1 JUMP JUMPDEST JUMPDEST POP SWAP1 POP PUSH3 0xFE SWAP2 SWAP1 PUSH3 0x102 JUMP JUMPDEST POP SWAP1 JUMP JUMPDEST JUMPDEST DUP1 DUP3 GT ISZERO PUSH3 0x11D JUMPI PUSH1 0x0 DUP2 PUSH1 0x0 SWAP1 SSTORE POP PUSH1 0x1 ADD PUSH3 0x103 JUMP JUMPDEST POP SWAP1 JUMP JUMPDEST PUSH1 0x0 PUSH3 0x138 PUSH3 0x132 DUP5 PUSH3 0x22F JUMP JUMPDEST PUSH3 0x206 JUMP JUMPDEST SWAP1 POP DUP3 DUP2 MSTORE PUSH1 0x20 DUP2 ADD DUP5 DUP5 DUP5 ADD GT ISZERO PUSH3 0x151 JUMPI PUSH1 0x0 DUP1 REVERT JUMPDEST PUSH3 0x15E DUP5 DUP3 DUP6 PUSH3 0x265 JUMP JUMPDEST POP SWAP4 SWAP3 POP POP POP JUMP JUMPDEST PUSH1 0x0 DUP3 PUSH1 0x1F DUP4 ADD SLT PUSH3 0x178 JUMPI PUSH1 0x0 DUP1 REVERT JUMPDEST DUP2 MLOAD PUSH3 0x18A DUP5 DUP3 PUSH1 0x20 DUP7 ADD PUSH3 0x121 JUMP JUMPDEST SWAP2 POP POP SWAP3 SWAP2 POP POP JUMP JUMPDEST PUSH1 0x0 DUP1 PUSH1 0x40 DUP4 DUP6 SUB SLT ISZERO PUSH3 0x1A7 JUMPI PUSH1 0x0 DUP1 REVERT JUMPDEST PUSH1 0x0 DUP4 ADD MLOAD PUSH8 0xFFFFFFFFFFFFFFFF DUP2 GT ISZERO PUSH3 0x1C2 JUMPI PUSH1 0x0 DUP1 REVERT JUMPDEST PUSH3 0x1D0 DUP6 DUP3 DUP7 ADD PUSH3 0x166 JUMP JUMPDEST SWAP3 POP POP PUSH1 0x20 DUP4 ADD MLOAD PUSH8 0xFFFFFFFFFFFFFFFF DUP2 GT ISZERO PUSH3 0x1EE JUMPI PUSH1 0x0 DUP1 REVERT JUMPDEST PUSH3 0x1FC DUP6 DUP3 DUP7 ADD PUSH3 0x166 JUMP JUMPDEST SWAP2 POP POP SWAP3 POP SWAP3 SWAP1 POP JUMP JUMPDEST PUSH1 0x0 PUSH3 0x212 PUSH3 0x225 JUMP JUMPDEST SWAP1 POP PUSH3 0x220 DUP3 DUP3 PUSH3 0x2D1 JUMP JUMPDEST SWAP2 SWAP1 POP JUMP JUMPDEST PUSH1 0x0 PUSH1 0x40 MLOAD SWAP1 POP SWAP1 JUMP JUMPDEST PUSH1 0x0 PUSH8 0xFFFFFFFFFFFFFFFF DUP3 GT ISZERO PUSH3 0x24D JUMPI PUSH3 0x24C PUSH3 0x336 JUMP JUMPDEST JUMPDEST PUSH3 0x258 DUP3 PUSH3 0x365 JUMP JUMPDEST SWAP1 POP PUSH1 0x20 DUP2 ADD SWAP1 POP SWAP2 SWAP1 POP JUMP JUMPDEST PUSH1 0x0 JUMPDEST DUP4 DUP2 LT ISZERO PUSH3 0x285 JUMPI DUP1 DUP3 ADD MLOAD DUP2 DUP5 ADD MSTORE PUSH1 0x20 DUP2 ADD SWAP1 POP PUSH3 0x268 JUMP JUMPDEST DUP4 DUP2 GT ISZERO PUSH3 0x295 JUMPI PUSH1 0x0 DUP5 DUP5 ADD MSTORE JUMPDEST POP POP POP POP JUMP JUMPDEST PUSH1 0x0 PUSH1 0x2 DUP3 DIV SWAP1 POP PUSH1 0x1 DUP3 AND DUP1 PUSH3 0x2B4 JUMPI PUSH1 0x7F DUP3 AND SWAP2 POP JUMPDEST PUSH1 0x20 DUP3 LT DUP2 EQ ISZERO PUSH3 0x2CB JUMPI PUSH3 0x2CA PUSH3 0x307 JUMP JUMPDEST JUMPDEST POP SWAP2 SWAP1 POP JUMP JUMPDEST PUSH3 0x2DC DUP3 PUSH3 0x365 JUMP JUMPDEST DUP2 ADD DUP2 DUP2 LT PUSH8 0xFFFFFFFFFFFFFFFF DUP3 GT OR ISZERO PUSH3 0x2FE JUMPI PUSH3 0x2FD PUSH3 0x336 JUMP JUMPDEST JUMPDEST DUP1 PUSH1 0x40 MSTORE POP POP POP JUMP JUMPDEST PUSH32 0x4E487B7100000000000000000000000000000000000000000000000000000000 PUSH1 0x0 MSTORE PUSH1 0x22 PUSH1 0x4 MSTORE PUSH1 0x24 PUSH1 0x0 REVERT JUMPDEST PUSH32 0x4E487B7100000000000000000000000000000000000000000000000000000000 PUSH1 0x0 MSTORE PUSH1 0x41 PUSH1 0x4 MSTORE PUSH1 0x24 PUSH1 0x0 REVERT JUMPDEST PUSH1 0x0 PUSH1 0x1F NOT PUSH1 0x1F DUP4 ADD AND SWAP1 POP SWAP2 SWAP1 POP JUMP JUMPDEST PUSH2 0x31D9 DUP1 PUSH3 0x386 PUSH1 0x0 CODECOPY PUSH1 0x0 RETURN INVALID PUSH1 0x80 PUSH1 0x40 MSTORE CALLVALUE DUP1 ISZERO PUSH2 0x10 JUMPI PUSH1 0x0 DUP1 REVERT JUMPDEST POP PUSH1 0x4 CALLDATASIZE LT PUSH2 0x10B JUMPI PUSH1 0x0 CALLDATALOAD PUSH1 0xE0 SHR DUP1 PUSH4 0x6352211E GT PUSH2 0xA2 JUMPI DUP1 PUSH4 0xA22CB465 GT PUSH2 0x71 JUMPI DUP1 PUSH4 0xA22CB465 EQ PUSH2 0x2DC JUMPI DUP1 PUSH4 0xB88D4FDE EQ PUSH2 0x2F8 JUMPI DUP1 PUSH4 0xC87B56DD EQ PUSH2 0x314 JUMPI DUP1 PUSH4 0xE985E9C5 EQ PUSH2 0x344 JUMPI DUP1 PUSH4 0xEE48CDA2 EQ PUSH2 0x374 JUMPI PUSH2 0x10B JUMP JUMPDEST DUP1 PUSH4 0x6352211E EQ PUSH2 0x22E JUMPI DUP1 PUSH4 0x70A08231 EQ PUSH2 0x25E JUMPI DUP1 PUSH4 0x8D17E712 EQ PUSH2 0x28E JUMPI DUP1 PUSH4 0x95D89B41 EQ PUSH2 0x2BE JUMPI PUSH2 0x10B JUMP JUMPDEST DUP1 PUSH4 0x23B872DD GT PUSH2 0xDE JUMPI DUP1 PUSH4 0x23B872DD EQ PUSH2 0x1AA JUMPI DUP1 PUSH4 0x381568D8 EQ PUSH2 0x1C6 JUMPI DUP1 PUSH4 0x42842E0E EQ PUSH2 0x1E2 JUMPI DUP1 PUSH4 0x52E04825 EQ PUSH2 0x1FE JUMPI PUSH2 0x10B JUMP JUMPDEST DUP1 PUSH4 0x1FFC9A7 EQ PUSH2 0x110 JUMPI DUP1 PUSH4 0x6FDDE03 EQ PUSH2 0x140 JUMPI DUP1 PUSH4 0x81812FC EQ PUSH2 0x15E JUMPI DUP1 PUSH4 0x95EA7B3 EQ PUSH2 0x18E JUMPI JUMPDEST PUSH1 0x0 DUP1 REVERT JUMPDEST PUSH2 0x12A PUSH1 0x4 DUP1 CALLDATASIZE SUB DUP2 ADD SWAP1 PUSH2 0x125 SWAP2 SWAP1 PUSH2 0x21B8 JUMP JUMPDEST PUSH2 0x3A4 JUMP JUMPDEST PUSH1 0x40 MLOAD PUSH2 0x137 SWAP2 SWAP1 PUSH2 0x26C6 JUMP JUMPDEST PUSH1 0x40 MLOAD DUP1 SWAP2 SUB SWAP1 RETURN JUMPDEST PUSH2 0x148 PUSH2 0x486 JUMP JUMPDEST PUSH1 0x40 MLOAD PUSH2 0x155 SWAP2 SWAP1 PUSH2 0x26E1 JUMP JUMPDEST PUSH1 0x40 MLOAD DUP1 SWAP2 SUB SWAP1 RETURN JUMPDEST PUSH2 0x178 PUSH1 0x4 DUP1 CALLDATASIZE SUB DUP2 ADD SWAP1 PUSH2 0x173 SWAP2 SWAP1 PUSH2 0x220A JUMP JUMPDEST PUSH2 0x518 JUMP JUMPDEST PUSH1 0x40 MLOAD PUSH2 0x185 SWAP2 SWAP1 PUSH2 0x261B JUMP JUMPDEST PUSH1 0x40 MLOAD DUP1 SWAP2 SUB SWAP1 RETURN JUMPDEST PUSH2 0x1A8 PUSH1 0x4 DUP1 CALLDATASIZE SUB DUP2 ADD SWAP1 PUSH2 0x1A3 SWAP2 SWAP1 PUSH2 0x217C JUMP JUMPDEST PUSH2 0x55E JUMP JUMPDEST STOP JUMPDEST PUSH2 0x1C4 PUSH1 0x4 DUP1 CALLDATASIZE SUB DUP2 ADD SWAP1 PUSH2 0x1BF SWAP2 SWAP1 PUSH2 0x1FCB JUMP JUMPDEST PUSH2 0x676 JUMP JUMPDEST STOP JUMPDEST PUSH2 0x1E0 PUSH1 0x4 DUP1 CALLDATASIZE SUB DUP2 ADD SWAP1 PUSH2 0x1DB SWAP2 SWAP1 PUSH2 0x2095 JUMP JUMPDEST PUSH2 0x6D6 JUMP JUMPDEST STOP JUMPDEST PUSH2 0x1FC PUSH1 0x4 DUP1 CALLDATASIZE SUB DUP2 ADD SWAP1 PUSH2 0x1F7 SWAP2 SWAP1 PUSH2 0x1FCB JUMP JUMPDEST PUSH2 0x70B JUMP JUMPDEST STOP JUMPDEST PUSH2 0x218 PUSH1 0x4 DUP1 CALLDATASIZE SUB DUP2 ADD SWAP1 PUSH2 0x213 SWAP2 SWAP1 PUSH2 0x220A JUMP JUMPDEST PUSH2 0x72B JUMP JUMPDEST PUSH1 0x40 MLOAD PUSH2 0x225 SWAP2 SWAP1 PUSH2 0x2682 JUMP JUMPDEST PUSH1 0x40 MLOAD DUP1 SWAP2 SUB SWAP1 RETURN JUMPDEST PUSH2 0x248 PUSH1 0x4 DUP1 CALLDATASIZE SUB DUP2 ADD SWAP1 PUSH2 0x243 SWAP2 SWAP1 PUSH2 0x220A JUMP JUMPDEST PUSH2 0x7D2 JUMP JUMPDEST PUSH1 0x40 MLOAD PUSH2 0x255 SWAP2 SWAP1 PUSH2 0x261B JUMP JUMPDEST PUSH1 0x40 MLOAD DUP1 SWAP2 SUB SWAP1 RETURN JUMPDEST PUSH2 0x278 PUSH1 0x4 DUP1 CALLDATASIZE SUB DUP2 ADD SWAP1 PUSH2 0x273 SWAP2 SWAP1 PUSH2 0x1F66 JUMP JUMPDEST PUSH2 0x884 JUMP JUMPDEST PUSH1 0x40 MLOAD PUSH2 0x285 SWAP2 SWAP1 PUSH2 0x28C3 JUMP JUMPDEST PUSH1 0x40 MLOAD DUP1 SWAP2 SUB SWAP1 RETURN JUMPDEST PUSH2 0x2A8 PUSH1 0x4 DUP1 CALLDATASIZE SUB DUP2 ADD SWAP1 PUSH2 0x2A3 SWAP2 SWAP1 PUSH2 0x220A JUMP JUMPDEST PUSH2 0x93C JUMP JUMPDEST PUSH1 0x40 MLOAD PUSH2 0x2B5 SWAP2 SWAP1 PUSH2 0x26E1 JUMP JUMPDEST PUSH1 0x40 MLOAD DUP1 SWAP2 SUB SWAP1 RETURN JUMPDEST PUSH2 0x2C6 PUSH2 0x9E3 JUMP JUMPDEST PUSH1 0x40 MLOAD PUSH2 0x2D3 SWAP2 SWAP1 PUSH2 0x26E1 JUMP JUMPDEST PUSH1 0x40 MLOAD DUP1 SWAP2 SUB SWAP1 RETURN JUMPDEST PUSH2 0x2F6 PUSH1 0x4 DUP1 CALLDATASIZE SUB DUP2 ADD SWAP1 PUSH2 0x2F1 SWAP2 SWAP1 PUSH2 0x2140 JUMP JUMPDEST PUSH2 0xA75 JUMP JUMPDEST STOP JUMPDEST PUSH2 0x312 PUSH1 0x4 DUP1 CALLDATASIZE SUB DUP2 ADD SWAP1 PUSH2 0x30D SWAP2 SWAP1 PUSH2 0x201A JUMP JUMPDEST PUSH2 0xA8B JUMP JUMPDEST STOP JUMPDEST PUSH2 0x32E PUSH1 0x4 DUP1 CALLDATASIZE SUB DUP2 ADD SWAP1 PUSH2 0x329 SWAP2 SWAP1 PUSH2 0x220A JUMP JUMPDEST PUSH2 0xAED JUMP JUMPDEST PUSH1 0x40 MLOAD PUSH2 0x33B SWAP2 SWAP1 PUSH2 0x26E1 JUMP JUMPDEST PUSH1 0x40 MLOAD DUP1 SWAP2 SUB SWAP1 RETURN JUMPDEST PUSH2 0x35E PUSH1 0x4 DUP1 CALLDATASIZE SUB DUP2 ADD SWAP1 PUSH2 0x359 SWAP2 SWAP1 PUSH2 0x1F8F JUMP JUMPDEST PUSH2 0xC3F JUMP JUMPDEST PUSH1 0x40 MLOAD PUSH2 0x36B SWAP2 SWAP1 PUSH2 0x26C6 JUMP JUMPDEST PUSH1 0x40 MLOAD DUP1 SWAP2 SUB SWAP1 RETURN JUMPDEST PUSH2 0x38E PUSH1 0x4 DUP1 CALLDATASIZE SUB DUP2 ADD SWAP1 PUSH2 0x389 SWAP2 SWAP1 PUSH2 0x220A JUMP JUMPDEST PUSH2 0xCD3 JUMP JUMPDEST PUSH1 0x40 MLOAD PUSH2 0x39B SWAP2 SWAP1 PUSH2 0x26A4 JUMP JUMPDEST PUSH1 0x40 MLOAD DUP1 SWAP2 SUB SWAP1 RETURN JUMPDEST PUSH1 0x0 PUSH32 0x80AC58CD00000000000000000000000000000000000000000000000000000000 PUSH28 0xFFFFFFFFFFFFFFFFFFFFFFFFFFFFFFFFFFFFFFFFFFFFFFFFFFFFFFFF NOT AND DUP3 PUSH28 0xFFFFFFFFFFFFFFFFFFFFFFFFFFFFFFFFFFFFFFFFFFFFFFFFFFFFFFFF NOT AND EQ DUP1 PUSH2 0x46F JUMPI POP PUSH32 0x5B5E139F00000000000000000000000000000000000000000000000000000000 PUSH28 0xFFFFFFFFFFFFFFFFFFFFFFFFFFFFFFFFFFFFFFFFFFFFFFFFFFFFFFFF NOT AND DUP3 PUSH28 0xFFFFFFFFFFFFFFFFFFFFFFFFFFFFFFFFFFFFFFFFFFFFFFFFFFFFFFFF NOT AND EQ JUMPDEST DUP1 PUSH2 0x47F JUMPI POP PUSH2 0x47E DUP3 PUSH2 0xD44 JUMP JUMPDEST JUMPDEST SWAP1 POP SWAP2 SWAP1 POP JUMP JUMPDEST PUSH1 0x60 PUSH1 0x1 DUP1 SLOAD PUSH2 0x495 SWAP1 PUSH2 0x2BE3 JUMP JUMPDEST DUP1 PUSH1 0x1F ADD PUSH1 0x20 DUP1 SWAP2 DIV MUL PUSH1 0x20 ADD PUSH1 0x40 MLOAD SWAP1 DUP2 ADD PUSH1 0x40 MSTORE DUP1 SWAP3 SWAP2 SWAP1 DUP2 DUP2 MSTORE PUSH1 0x20 ADD DUP3 DUP1 SLOAD PUSH2 0x4C1 SWAP1 PUSH2 0x2BE3 JUMP JUMPDEST DUP1 ISZERO PUSH2 0x50E JUMPI DUP1 PUSH1 0x1F LT PUSH2 0x4E3 JUMPI PUSH2 0x100 DUP1 DUP4 SLOAD DIV MUL DUP4 MSTORE SWAP2 PUSH1 0x20 ADD SWAP2 PUSH2 0x50E JUMP JUMPDEST DUP3 ADD SWAP2 SWAP1 PUSH1 0x0 MSTORE PUSH1 0x20 PUSH1 0x0 KECCAK256 SWAP1 JUMPDEST DUP2 SLOAD DUP2 MSTORE SWAP1 PUSH1 0x1 ADD SWAP1 PUSH1 0x20 ADD DUP1 DUP4 GT PUSH2 0x4F1 JUMPI DUP3 SWAP1 SUB PUSH1 0x1F AND DUP3 ADD SWAP2 JUMPDEST POP POP POP POP POP SWAP1 POP SWAP1 JUMP JUMPDEST PUSH1 0x0 PUSH2 0x523 DUP3 PUSH2 0xDAE JUMP JUMPDEST PUSH1 0x7 PUSH1 0x0 DUP4 DUP2 MSTORE PUSH1 0x20 ADD SWAP1 DUP2 MSTORE PUSH1 0x20 ADD PUSH1 0x0 KECCAK256 PUSH1 0x0 SWAP1 SLOAD SWAP1 PUSH2 0x100 EXP SWAP1 DIV PUSH20 0xFFFFFFFFFFFFFFFFFFFFFFFFFFFFFFFFFFFFFFFF AND SWAP1 POP SWAP2 SWAP1 POP JUMP JUMPDEST PUSH1 0x0 PUSH2 0x569 DUP3 PUSH2 0x7D2 JUMP JUMPDEST SWAP1 POP DUP1 PUSH20 0xFFFFFFFFFFFFFFFFFFFFFFFFFFFFFFFFFFFFFFFF AND DUP4 PUSH20 0xFFFFFFFFFFFFFFFFFFFFFFFFFFFFFFFFFFFFFFFF AND EQ ISZERO PUSH2 0x5DA JUMPI PUSH1 0x40 MLOAD PUSH32 0x8C379A000000000000000000000000000000000000000000000000000000000 DUP2 MSTORE PUSH1 0x4 ADD PUSH2 0x5D1 SWAP1 PUSH2 0x2883 JUMP JUMPDEST PUSH1 0x40 MLOAD DUP1 SWAP2 SUB SWAP1 REVERT JUMPDEST DUP1 PUSH20 0xFFFFFFFFFFFFFFFFFFFFFFFFFFFFFFFFFFFFFFFF AND PUSH2 0x5F9 PUSH2 0xDF9 JUMP JUMPDEST PUSH20 0xFFFFFFFFFFFFFFFFFFFFFFFFFFFFFFFFFFFFFFFF AND EQ DUP1 PUSH2 0x628 JUMPI POP PUSH2 0x627 DUP2 PUSH2 0x622 PUSH2 0xDF9 JUMP JUMPDEST PUSH2 0xC3F JUMP JUMPDEST JUMPDEST PUSH2 0x667 JUMPI PUSH1 0x40 MLOAD PUSH32 0x8C379A000000000000000000000000000000000000000000000000000000000 DUP2 MSTORE PUSH1 0x4 ADD PUSH2 0x65E SWAP1 PUSH2 0x28A3 JUMP JUMPDEST PUSH1 0x40 MLOAD DUP1 SWAP2 SUB SWAP1 REVERT JUMPDEST PUSH2 0x671 DUP4 DUP4 PUSH2 0xE01 JUMP JUMPDEST POP POP POP JUMP JUMPDEST PUSH2 0x687 PUSH2 0x681 PUSH2 0xDF9 JUMP JUMPDEST DUP3 PUSH2 0xEBA JUMP JUMPDEST PUSH2 0x6C6 JUMPI PUSH1 0x40 MLOAD PUSH32 0x8C379A000000000000000000000000000000000000000000000000000000000 DUP2 MSTORE PUSH1 0x4 ADD PUSH2 0x6BD SWAP1 PUSH2 0x2703 JUMP JUMPDEST PUSH1 0x40 MLOAD DUP1 SWAP2 SUB SWAP1 REVERT JUMPDEST PUSH2 0x6D1 DUP4 DUP4 DUP4 PUSH2 0xF4F JUMP JUMPDEST POP POP POP JUMP JUMPDEST PUSH2 0x6E0 PUSH1 0x0 PUSH2 0x1245 JUMP JUMPDEST PUSH1 0x0 PUSH2 0x6EC PUSH1 0x0 PUSH2 0x125B JUMP JUMPDEST SWAP1 POP PUSH2 0x6FA DUP6 DUP6 DUP6 DUP5 PUSH2 0x1269 JUMP JUMPDEST PUSH2 0x704 DUP2 DUP4 PUSH2 0x128B JUMP JUMPDEST POP POP POP POP POP JUMP JUMPDEST PUSH2 0x726 DUP4 DUP4 DUP4 PUSH1 0x40 MLOAD DUP1 PUSH1 0x20 ADD PUSH1 0x40 MSTORE DUP1 PUSH1 0x0 DUP2 MSTORE POP PUSH2 0xA8B JUMP JUMPDEST POP POP POP JUMP JUMPDEST PUSH1 0x60 PUSH1 0x0 PUSH1 0x4 PUSH1 0x0 DUP5 DUP2 MSTORE PUSH1 0x20 ADD SWAP1 DUP2 MSTORE PUSH1 0x20 ADD PUSH1 0x0 KECCAK256 DUP1 SLOAD DUP1 PUSH1 0x20 MUL PUSH1 0x20 ADD PUSH1 0x40 MLOAD SWAP1 DUP2 ADD PUSH1 0x40 MSTORE DUP1 SWAP3 SWAP2 SWAP1 DUP2 DUP2 MSTORE PUSH1 0x20 ADD DUP3 DUP1 SLOAD DUP1 ISZERO PUSH2 0x7C2 JUMPI PUSH1 0x20 MUL DUP3 ADD SWAP2 SWAP1 PUSH1 0x0 MSTORE PUSH1 0x20 PUSH1 0x0 KECCAK256 SWAP1 JUMPDEST DUP2 PUSH1 0x0 SWAP1 SLOAD SWAP1 PUSH2 0x100 EXP SWAP1 DIV PUSH20 0xFFFFFFFFFFFFFFFFFFFFFFFFFFFFFFFFFFFFFFFF AND PUSH20 0xFFFFFFFFFFFFFFFFFFFFFFFFFFFFFFFFFFFFFFFF AND DUP2 MSTORE PUSH1 0x20 ADD SWAP1 PUSH1 0x1 ADD SWAP1 DUP1 DUP4 GT PUSH2 0x778 JUMPI JUMPDEST POP POP POP POP POP SWAP1 POP DUP1 SWAP2 POP POP SWAP2 SWAP1 POP JUMP JUMPDEST PUSH1 0x0 DUP1 PUSH1 0x3 PUSH1 0x0 DUP5 DUP2 MSTORE PUSH1 0x20 ADD SWAP1 DUP2 MSTORE PUSH1 0x20 ADD PUSH1 0x0 KECCAK256 PUSH1 0x0 SWAP1 SLOAD SWAP1 PUSH2 0x100 EXP SWAP1 DIV PUSH20 0xFFFFFFFFFFFFFFFFFFFFFFFFFFFFFFFFFFFFFFFF AND SWAP1 POP PUSH1 0x0 PUSH20 0xFFFFFFFFFFFFFFFFFFFFFFFFFFFFFFFFFFFFFFFF AND DUP2 PUSH20 0xFFFFFFFFFFFFFFFFFFFFFFFFFFFFFFFFFFFFFFFF AND EQ ISZERO PUSH2 0x87B JUMPI PUSH1 0x40 MLOAD PUSH32 0x8C379A000000000000000000000000000000000000000000000000000000000 DUP2 MSTORE PUSH1 0x4 ADD PUSH2 0x872 SWAP1 PUSH2 0x2863 JUMP JUMPDEST PUSH1 0x40 MLOAD DUP1 SWAP2 SUB SWAP1 REVERT JUMPDEST DUP1 SWAP2 POP POP SWAP2 SWAP1 POP JUMP JUMPDEST PUSH1 0x0 DUP1 PUSH20 0xFFFFFFFFFFFFFFFFFFFFFFFFFFFFFFFFFFFFFFFF AND DUP3 PUSH20 0xFFFFFFFFFFFFFFFFFFFFFFFFFFFFFFFFFFFFFFFF AND EQ ISZERO PUSH2 0x8F5 JUMPI PUSH1 0x40 MLOAD PUSH32 0x8C379A000000000000000000000000000000000000000000000000000000000 DUP2 MSTORE PUSH1 0x4 ADD PUSH2 0x8EC SWAP1 PUSH2 0x27C3 JUMP JUMPDEST PUSH1 0x40 MLOAD DUP1 SWAP2 SUB SWAP1 REVERT JUMPDEST PUSH1 0x6 PUSH1 0x0 DUP4 PUSH20 0xFFFFFFFFFFFFFFFFFFFFFFFFFFFFFFFFFFFFFFFF AND PUSH20 0xFFFFFFFFFFFFFFFFFFFFFFFFFFFFFFFFFFFFFFFF AND DUP2 MSTORE PUSH1 0x20 ADD SWAP1 DUP2 MSTORE PUSH1 0x20 ADD PUSH1 0x0 KECCAK256 SLOAD SWAP1 POP SWAP2 SWAP1 POP JUMP JUMPDEST PUSH1 0x60 PUSH2 0x947 DUP3 PUSH2 0x12FF JUMP JUMPDEST PUSH2 0x986 JUMPI PUSH1 0x40 MLOAD PUSH32 0x8C379A000000000000000000000000000000000000000000000000000000000 DUP2 MSTORE PUSH1 0x4 ADD PUSH2 0x97D SWAP1 PUSH2 0x2843 JUMP JUMPDEST PUSH1 0x40 MLOAD DUP1 SWAP2 SUB SWAP1 REVERT JUMPDEST PUSH1 0x0 PUSH2 0x990 PUSH2 0x136B JUMP JUMPDEST SWAP1 POP PUSH1 0x0 DUP2 MLOAD GT PUSH2 0x9B0 JUMPI PUSH1 0x40 MLOAD DUP1 PUSH1 0x20 ADD PUSH1 0x40 MSTORE DUP1 PUSH1 0x0 DUP2 MSTORE POP PUSH2 0x9DB JUMP JUMPDEST DUP1 PUSH2 0x9BA DUP5 PUSH2 0x1382 JUMP JUMPDEST PUSH1 0x40 MLOAD PUSH1 0x20 ADD PUSH2 0x9CB SWAP3 SWAP2 SWAP1 PUSH2 0x25F7 JUMP JUMPDEST PUSH1 0x40 MLOAD PUSH1 0x20 DUP2 DUP4 SUB SUB DUP2 MSTORE SWAP1 PUSH1 0x40 MSTORE JUMPDEST SWAP2 POP POP SWAP2 SWAP1 POP JUMP JUMPDEST PUSH1 0x60 PUSH1 0x2 DUP1 SLOAD PUSH2 0x9F2 SWAP1 PUSH2 0x2BE3 JUMP JUMPDEST DUP1 PUSH1 0x1F ADD PUSH1 0x20 DUP1 SWAP2 DIV MUL PUSH1 0x20 ADD PUSH1 0x40 MLOAD SWAP1 DUP2 ADD PUSH1 0x40 MSTORE DUP1 SWAP3 SWAP2 SWAP1 DUP2 DUP2 MSTORE PUSH1 0x20 ADD DUP3 DUP1 SLOAD PUSH2 0xA1E SWAP1 PUSH2 0x2BE3 JUMP JUMPDEST DUP1 ISZERO PUSH2 0xA6B JUMPI DUP1 PUSH1 0x1F LT PUSH2 0xA40 JUMPI PUSH2 0x100 DUP1 DUP4 SLOAD DIV MUL DUP4 MSTORE SWAP2 PUSH1 0x20 ADD SWAP2 PUSH2 0xA6B JUMP JUMPDEST DUP3 ADD SWAP2 SWAP1 PUSH1 0x0 MSTORE PUSH1 0x20 PUSH1 0x0 KECCAK256 SWAP1 JUMPDEST DUP2 SLOAD DUP2 MSTORE SWAP1 PUSH1 0x1 ADD SWAP1 PUSH1 0x20 ADD DUP1 DUP4 GT PUSH2 0xA4E JUMPI DUP3 SWAP1 SUB PUSH1 0x1F AND DUP3 ADD SWAP2 JUMPDEST POP POP POP POP POP SWAP1 POP SWAP1 JUMP JUMPDEST PUSH2 0xA87 PUSH2 0xA80 PUSH2 0xDF9 JUMP JUMPDEST DUP4 DUP4 PUSH2 0x152F JUMP JUMPDEST POP POP JUMP JUMPDEST PUSH2 0xA9C PUSH2 0xA96 PUSH2 0xDF9 JUMP JUMPDEST DUP4 PUSH2 0xEBA JUMP JUMPDEST PUSH2 0xADB JUMPI PUSH1 0x40 MLOAD PUSH32 0x8C379A000000000000000000000000000000000000000000000000000000000 DUP2 MSTORE PUSH1 0x4 ADD PUSH2 0xAD2 SWAP1 PUSH2 0x2703 JUMP JUMPDEST PUSH1 0x40 MLOAD DUP1 SWAP2 SUB SWAP1 REVERT JUMPDEST PUSH2 0xAE7 DUP5 DUP5 DUP5 DUP5 PUSH2 0x169C JUMP JUMPDEST POP POP POP POP JUMP JUMPDEST PUSH1 0x60 PUSH2 0xAF8 DUP3 PUSH2 0x12FF JUMP JUMPDEST PUSH2 0xB37 JUMPI PUSH1 0x40 MLOAD PUSH32 0x8C379A000000000000000000000000000000000000000000000000000000000 DUP2 MSTORE PUSH1 0x4 ADD PUSH2 0xB2E SWAP1 PUSH2 0x2823 JUMP JUMPDEST PUSH1 0x40 MLOAD DUP1 SWAP2 SUB SWAP1 REVERT JUMPDEST PUSH1 0x0 PUSH1 0x9 PUSH1 0x0 DUP5 DUP2 MSTORE PUSH1 0x20 ADD SWAP1 DUP2 MSTORE PUSH1 0x20 ADD PUSH1 0x0 KECCAK256 DUP1 SLOAD PUSH2 0xB57 SWAP1 PUSH2 0x2BE3 JUMP JUMPDEST DUP1 PUSH1 0x1F ADD PUSH1 0x20 DUP1 SWAP2 DIV MUL PUSH1 0x20 ADD PUSH1 0x40 MLOAD SWAP1 DUP2 ADD PUSH1 0x40 MSTORE DUP1 SWAP3 SWAP2 SWAP1 DUP2 DUP2 MSTORE PUSH1 0x20 ADD DUP3 DUP1 SLOAD PUSH2 0xB83 SWAP1 PUSH2 0x2BE3 JUMP JUMPDEST DUP1 ISZERO PUSH2 0xBD0 JUMPI DUP1 PUSH1 0x1F LT PUSH2 0xBA5 JUMPI PUSH2 0x100 DUP1 DUP4 SLOAD DIV MUL DUP4 MSTORE SWAP2 PUSH1 0x20 ADD SWAP2 PUSH2 0xBD0 JUMP JUMPDEST DUP3 ADD SWAP2 SWAP1 PUSH1 0x0 MSTORE PUSH1 0x20 PUSH1 0x0 KECCAK256 SWAP1 JUMPDEST DUP2 SLOAD DUP2 MSTORE SWAP1 PUSH1 0x1 ADD SWAP1 PUSH1 0x20 ADD DUP1 DUP4 GT PUSH2 0xBB3 JUMPI DUP3 SWAP1 SUB PUSH1 0x1F AND DUP3 ADD SWAP2 JUMPDEST POP POP POP POP POP SWAP1 POP PUSH1 0x0 PUSH2 0xBE1 PUSH2 0x136B JUMP JUMPDEST SWAP1 POP PUSH1 0x0 DUP2 MLOAD EQ ISZERO PUSH2 0xBF7 JUMPI DUP2 SWAP3 POP POP POP PUSH2 0xC3A JUMP JUMPDEST PUSH1 0x0 DUP3 MLOAD GT ISZERO PUSH2 0xC2C JUMPI DUP1 DUP3 PUSH1 0x40 MLOAD PUSH1 0x20 ADD PUSH2 0xC14 SWAP3 SWAP2 SWAP1 PUSH2 0x25F7 JUMP JUMPDEST PUSH1 0x40 MLOAD PUSH1 0x20 DUP2 DUP4 SUB SUB DUP2 MSTORE SWAP1 PUSH1 0x40 MSTORE SWAP3 POP POP POP PUSH2 0xC3A JUMP JUMPDEST PUSH2 0xC35 DUP5 PUSH2 0x93C JUMP JUMPDEST SWAP3 POP POP POP JUMPDEST SWAP2 SWAP1 POP JUMP JUMPDEST PUSH1 0x0 PUSH1 0x8 PUSH1 0x0 DUP5 PUSH20 0xFFFFFFFFFFFFFFFFFFFFFFFFFFFFFFFFFFFFFFFF AND PUSH20 0xFFFFFFFFFFFFFFFFFFFFFFFFFFFFFFFFFFFFFFFF AND DUP2 MSTORE PUSH1 0x20 ADD SWAP1 DUP2 MSTORE PUSH1 0x20 ADD PUSH1 0x0 KECCAK256 PUSH1 0x0 DUP4 PUSH20 0xFFFFFFFFFFFFFFFFFFFFFFFFFFFFFFFFFFFFFFFF AND PUSH20 0xFFFFFFFFFFFFFFFFFFFFFFFFFFFFFFFFFFFFFFFF AND DUP2 MSTORE PUSH1 0x20 ADD SWAP1 DUP2 MSTORE PUSH1 0x20 ADD PUSH1 0x0 KECCAK256 PUSH1 0x0 SWAP1 SLOAD SWAP1 PUSH2 0x100 EXP SWAP1 DIV PUSH1 0xFF AND SWAP1 POP SWAP3 SWAP2 POP POP JUMP JUMPDEST PUSH1 0x60 PUSH1 0x0 PUSH1 0x5 PUSH1 0x0 DUP5 DUP2 MSTORE PUSH1 0x20 ADD SWAP1 DUP2 MSTORE PUSH1 0x20 ADD PUSH1 0x0 KECCAK256 DUP1 SLOAD DUP1 PUSH1 0x20 MUL PUSH1 0x20 ADD PUSH1 0x40 MLOAD SWAP1 DUP2 ADD PUSH1 0x40 MSTORE DUP1 SWAP3 SWAP2 SWAP1 DUP2 DUP2 MSTORE PUSH1 0x20 ADD DUP3 DUP1 SLOAD DUP1 ISZERO PUSH2 0xD34 JUMPI PUSH1 0x20 MUL DUP3 ADD SWAP2 SWAP1 PUSH1 0x0 MSTORE PUSH1 0x20 PUSH1 0x0 KECCAK256 SWAP1 JUMPDEST DUP2 SLOAD DUP2 MSTORE PUSH1 0x20 ADD SWAP1 PUSH1 0x1 ADD SWAP1 DUP1 DUP4 GT PUSH2 0xD20 JUMPI JUMPDEST POP POP POP POP POP SWAP1 POP DUP1 SWAP2 POP POP SWAP2 SWAP1 POP JUMP JUMPDEST PUSH1 0x0 PUSH32 0x1FFC9A700000000000000000000000000000000000000000000000000000000 PUSH28 0xFFFFFFFFFFFFFFFFFFFFFFFFFFFFFFFFFFFFFFFFFFFFFFFFFFFFFFFF NOT AND DUP3 PUSH28 0xFFFFFFFFFFFFFFFFFFFFFFFFFFFFFFFFFFFFFFFFFFFFFFFFFFFFFFFF NOT AND EQ SWAP1 POP SWAP2 SWAP1 POP JUMP JUMPDEST PUSH2 0xDB7 DUP2 PUSH2 0x12FF JUMP JUMPDEST PUSH2 0xDF6 JUMPI PUSH1 0x40 MLOAD PUSH32 0x8C379A000000000000000000000000000000000000000000000000000000000 DUP2 MSTORE PUSH1 0x4 ADD PUSH2 0xDED SWAP1 PUSH2 0x2863 JUMP JUMPDEST PUSH1 0x40 MLOAD DUP1 SWAP2 SUB SWAP1 REVERT JUMPDEST POP JUMP JUMPDEST PUSH1 0x0 CALLER SWAP1 POP SWAP1 JUMP JUMPDEST DUP2 PUSH1 0x7 PUSH1 0x0 DUP4 DUP2 MSTORE PUSH1 0x20 ADD SWAP1 DUP2 MSTORE PUSH1 0x20 ADD PUSH1 0x0 KECCAK256 PUSH1 0x0 PUSH2 0x100 EXP DUP2 SLOAD DUP2 PUSH20 0xFFFFFFFFFFFFFFFFFFFFFFFFFFFFFFFFFFFFFFFF MUL NOT AND SWAP1 DUP4 PUSH20 0xFFFFFFFFFFFFFFFFFFFFFFFFFFFFFFFFFFFFFFFF AND MUL OR SWAP1 SSTORE POP DUP1 DUP3 PUSH20 0xFFFFFFFFFFFFFFFFFFFFFFFFFFFFFFFFFFFFFFFF AND PUSH2 0xE74 DUP4 PUSH2 0x7D2 JUMP JUMPDEST PUSH20 0xFFFFFFFFFFFFFFFFFFFFFFFFFFFFFFFFFFFFFFFF AND PUSH32 0x8C5BE1E5EBEC7D5BD14F71427D1E84F3DD0314C0F7B2291E5B200AC8C7C3B925 PUSH1 0x40 MLOAD PUSH1 0x40 MLOAD DUP1 SWAP2 SUB SWAP1 LOG4 POP POP JUMP JUMPDEST PUSH1 0x0 DUP1 PUSH2 0xEC6 DUP4 PUSH2 0x7D2 JUMP JUMPDEST SWAP1 POP DUP1 PUSH20 0xFFFFFFFFFFFFFFFFFFFFFFFFFFFFFFFFFFFFFFFF AND DUP5 PUSH20 0xFFFFFFFFFFFFFFFFFFFFFFFFFFFFFFFFFFFFFFFF AND EQ DUP1 PUSH2 0xF08 JUMPI POP PUSH2 0xF07 DUP2 DUP6 PUSH2 0xC3F JUMP JUMPDEST JUMPDEST DUP1 PUSH2 0xF46 JUMPI POP DUP4 PUSH20 0xFFFFFFFFFFFFFFFFFFFFFFFFFFFFFFFFFFFFFFFF AND PUSH2 0xF2E DUP5 PUSH2 0x518 JUMP JUMPDEST PUSH20 0xFFFFFFFFFFFFFFFFFFFFFFFFFFFFFFFFFFFFFFFF AND EQ JUMPDEST SWAP2 POP POP SWAP3 SWAP2 POP POP JUMP JUMPDEST DUP3 PUSH20 0xFFFFFFFFFFFFFFFFFFFFFFFFFFFFFFFFFFFFFFFF AND PUSH2 0xF6F DUP3 PUSH2 0x7D2 JUMP JUMPDEST PUSH20 0xFFFFFFFFFFFFFFFFFFFFFFFFFFFFFFFFFFFFFFFF AND EQ PUSH2 0xFC5 JUMPI PUSH1 0x40 MLOAD PUSH32 0x8C379A000000000000000000000000000000000000000000000000000000000 DUP2 MSTORE PUSH1 0x4 ADD PUSH2 0xFBC SWAP1 PUSH2 0x2743 JUMP JUMPDEST PUSH1 0x40 MLOAD DUP1 SWAP2 SUB SWAP1 REVERT JUMPDEST PUSH1 0x0 PUSH20 0xFFFFFFFFFFFFFFFFFFFFFFFFFFFFFFFFFFFFFFFF AND DUP3 PUSH20 0xFFFFFFFFFFFFFFFFFFFFFFFFFFFFFFFFFFFFFFFF AND EQ ISZERO PUSH2 0x1035 JUMPI PUSH1 0x40 MLOAD PUSH32 0x8C379A000000000000000000000000000000000000000000000000000000000 DUP2 MSTORE PUSH1 0x4 ADD PUSH2 0x102C SWAP1 PUSH2 0x2783 JUMP JUMPDEST PUSH1 0x40 MLOAD DUP1 SWAP2 SUB SWAP1 REVERT JUMPDEST PUSH2 0x1040 DUP4 DUP4 DUP4 PUSH2 0x16F8 JUMP JUMPDEST DUP3 PUSH20 0xFFFFFFFFFFFFFFFFFFFFFFFFFFFFFFFFFFFFFFFF AND PUSH2 0x1060 DUP3 PUSH2 0x7D2 JUMP JUMPDEST PUSH20 0xFFFFFFFFFFFFFFFFFFFFFFFFFFFFFFFFFFFFFFFF AND EQ PUSH2 0x10B6 JUMPI PUSH1 0x40 MLOAD PUSH32 0x8C379A000000000000000000000000000000000000000000000000000000000 DUP2 MSTORE PUSH1 0x4 ADD PUSH2 0x10AD SWAP1 PUSH2 0x2743 JUMP JUMPDEST PUSH1 0x40 MLOAD DUP1 SWAP2 SUB SWAP1 REVERT JUMPDEST PUSH1 0x7 PUSH1 0x0 DUP3 DUP2 MSTORE PUSH1 0x20 ADD SWAP1 DUP2 MSTORE PUSH1 0x20 ADD PUSH1 0x0 KECCAK256 PUSH1 0x0 PUSH2 0x100 EXP DUP2 SLOAD SWAP1 PUSH20 0xFFFFFFFFFFFFFFFFFFFFFFFFFFFFFFFFFFFFFFFF MUL NOT AND SWAP1 SSTORE PUSH1 0x1 PUSH1 0x6 PUSH1 0x0 DUP6 PUSH20 0xFFFFFFFFFFFFFFFFFFFFFFFFFFFFFFFFFFFFFFFF AND PUSH20 0xFFFFFFFFFFFFFFFFFFFFFFFFFFFFFFFFFFFFFFFF AND DUP2 MSTORE PUSH1 0x20 ADD SWAP1 DUP2 MSTORE PUSH1 0x20 ADD PUSH1 0x0 KECCAK256 PUSH1 0x0 DUP3 DUP3 SLOAD SUB SWAP3 POP POP DUP2 SWAP1 SSTORE POP PUSH1 0x1 PUSH1 0x6 PUSH1 0x0 DUP5 PUSH20 0xFFFFFFFFFFFFFFFFFFFFFFFFFFFFFFFFFFFFFFFF AND PUSH20 0xFFFFFFFFFFFFFFFFFFFFFFFFFFFFFFFFFFFFFFFF AND DUP2 MSTORE PUSH1 0x20 ADD SWAP1 DUP2 MSTORE PUSH1 0x20 ADD PUSH1 0x0 KECCAK256 PUSH1 0x0 DUP3 DUP3 SLOAD ADD SWAP3 POP POP DUP2 SWAP1 SSTORE POP DUP2 PUSH1 0x3 PUSH1 0x0 DUP4 DUP2 MSTORE PUSH1 0x20 ADD SWAP1 DUP2 MSTORE PUSH1 0x20 ADD PUSH1 0x0 KECCAK256 PUSH1 0x0 PUSH2 0x100 EXP DUP2 SLOAD DUP2 PUSH20 0xFFFFFFFFFFFFFFFFFFFFFFFFFFFFFFFFFFFFFFFF MUL NOT AND SWAP1 DUP4 PUSH20 0xFFFFFFFFFFFFFFFFFFFFFFFFFFFFFFFFFFFFFFFF AND MUL OR SWAP1 SSTORE POP DUP1 DUP3 PUSH20 0xFFFFFFFFFFFFFFFFFFFFFFFFFFFFFFFFFFFFFFFF AND DUP5 PUSH20 0xFFFFFFFFFFFFFFFFFFFFFFFFFFFFFFFFFFFFFFFF AND PUSH32 0xDDF252AD1BE2C89B69C2B068FC378DAA952BA7F163C4A11628F55A4DF523B3EF PUSH1 0x40 MLOAD PUSH1 0x40 MLOAD DUP1 SWAP2 SUB SWAP1 LOG4 PUSH2 0x1240 DUP4 DUP4 DUP4 PUSH2 0x16FD JUMP JUMPDEST POP POP POP JUMP JUMPDEST PUSH1 0x1 DUP2 PUSH1 0x0 ADD PUSH1 0x0 DUP3 DUP3 SLOAD ADD SWAP3 POP POP DUP2 SWAP1 SSTORE POP POP JUMP JUMPDEST PUSH1 0x0 DUP2 PUSH1 0x0 ADD SLOAD SWAP1 POP SWAP2 SWAP1 POP JUMP JUMPDEST PUSH2 0x1285 DUP5 DUP5 DUP5 DUP5 PUSH1 0x40 MLOAD DUP1 PUSH1 0x20 ADD PUSH1 0x40 MSTORE DUP1 PUSH1 0x0 DUP2 MSTORE POP PUSH2 0x1702 JUMP JUMPDEST POP POP POP POP JUMP JUMPDEST PUSH2 0x1294 DUP3 PUSH2 0x12FF JUMP JUMPDEST PUSH2 0x12D3 JUMPI PUSH1 0x40 MLOAD PUSH32 0x8C379A000000000000000000000000000000000000000000000000000000000 DUP2 MSTORE PUSH1 0x4 ADD PUSH2 0x12CA SWAP1 PUSH2 0x27E3 JUMP JUMPDEST PUSH1 0x40 MLOAD DUP1 SWAP2 SUB SWAP1 REVERT JUMPDEST DUP1 PUSH1 0x9 PUSH1 0x0 DUP5 DUP2 MSTORE PUSH1 0x20 ADD SWAP1 DUP2 MSTORE PUSH1 0x20 ADD PUSH1 0x0 KECCAK256 SWAP1 DUP1 MLOAD SWAP1 PUSH1 0x20 ADD SWAP1 PUSH2 0x12FA SWAP3 SWAP2 SWAP1 PUSH2 0x1B87 JUMP JUMPDEST POP POP POP JUMP JUMPDEST PUSH1 0x0 DUP1 PUSH20 0xFFFFFFFFFFFFFFFFFFFFFFFFFFFFFFFFFFFFFFFF AND PUSH1 0x3 PUSH1 0x0 DUP5 DUP2 MSTORE PUSH1 0x20 ADD SWAP1 DUP2 MSTORE PUSH1 0x20 ADD PUSH1 0x0 KECCAK256 PUSH1 0x0 SWAP1 SLOAD SWAP1 PUSH2 0x100 EXP SWAP1 DIV PUSH20 0xFFFFFFFFFFFFFFFFFFFFFFFFFFFFFFFFFFFFFFFF AND PUSH20 0xFFFFFFFFFFFFFFFFFFFFFFFFFFFFFFFFFFFFFFFF AND EQ ISZERO SWAP1 POP SWAP2 SWAP1 POP JUMP JUMPDEST PUSH1 0x60 PUSH1 0x40 MLOAD DUP1 PUSH1 0x20 ADD PUSH1 0x40 MSTORE DUP1 PUSH1 0x0 DUP2 MSTORE POP SWAP1 POP SWAP1 JUMP JUMPDEST PUSH1 0x60 PUSH1 0x0 DUP3 EQ ISZERO PUSH2 0x13CA JUMPI PUSH1 0x40 MLOAD DUP1 PUSH1 0x40 ADD PUSH1 0x40 MSTORE DUP1 PUSH1 0x1 DUP2 MSTORE PUSH1 0x20 ADD PUSH32 0x3000000000000000000000000000000000000000000000000000000000000000 DUP2 MSTORE POP SWAP1 POP PUSH2 0x152A JUMP JUMPDEST PUSH1 0x0 DUP3 SWAP1 POP PUSH1 0x0 JUMPDEST PUSH1 0x0 DUP3 EQ PUSH2 0x13FC JUMPI DUP1 DUP1 PUSH2 0x13E5 SWAP1 PUSH2 0x2C46 JUMP JUMPDEST SWAP2 POP POP PUSH1 0xA DUP3 PUSH2 0x13F5 SWAP2 SWAP1 PUSH2 0x2AC8 JUMP JUMPDEST SWAP2 POP PUSH2 0x13D2 JUMP JUMPDEST PUSH1 0x0 DUP2 PUSH8 0xFFFFFFFFFFFFFFFF DUP2 GT ISZERO PUSH2 0x143E JUMPI PUSH32 0x4E487B7100000000000000000000000000000000000000000000000000000000 PUSH1 0x0 MSTORE PUSH1 0x41 PUSH1 0x4 MSTORE PUSH1 0x24 PUSH1 0x0 REVERT JUMPDEST PUSH1 0x40 MLOAD SWAP1 DUP1 DUP3 MSTORE DUP1 PUSH1 0x1F ADD PUSH1 0x1F NOT AND PUSH1 0x20 ADD DUP3 ADD PUSH1 0x40 MSTORE DUP1 ISZERO PUSH2 0x1470 JUMPI DUP2 PUSH1 0x20 ADD PUSH1 0x1 DUP3 MUL DUP1 CALLDATASIZE DUP4 CALLDATACOPY DUP1 DUP3 ADD SWAP2 POP POP SWAP1 POP JUMPDEST POP SWAP1 POP JUMPDEST PUSH1 0x0 DUP6 EQ PUSH2 0x1523 JUMPI PUSH1 0x1 DUP3 PUSH2 0x1489 SWAP2 SWAP1 PUSH2 0x2AF9 JUMP JUMPDEST SWAP2 POP PUSH1 0xA DUP6 PUSH2 0x1498 SWAP2 SWAP1 PUSH2 0x2C8F JUMP JUMPDEST PUSH1 0x30 PUSH2 0x14A4 SWAP2 SWAP1 PUSH2 0x2A72 JUMP JUMPDEST PUSH1 0xF8 SHL DUP2 DUP4 DUP2 MLOAD DUP2 LT PUSH2 0x14E0 JUMPI PUSH32 0x4E487B7100000000000000000000000000000000000000000000000000000000 PUSH1 0x0 MSTORE PUSH1 0x32 PUSH1 0x4 MSTORE PUSH1 0x24 PUSH1 0x0 REVERT JUMPDEST PUSH1 0x20 ADD ADD SWAP1 PUSH31 0xFFFFFFFFFFFFFFFFFFFFFFFFFFFFFFFFFFFFFFFFFFFFFFFFFFFFFFFFFFFFFF NOT AND SWAP1 DUP2 PUSH1 0x0 BYTE SWAP1 MSTORE8 POP PUSH1 0xA DUP6 PUSH2 0x151C SWAP2 SWAP1 PUSH2 0x2AC8 JUMP JUMPDEST SWAP5 POP PUSH2 0x1474 JUMP JUMPDEST DUP1 SWAP4 POP POP POP POP JUMPDEST SWAP2 SWAP1 POP JUMP JUMPDEST DUP2 PUSH20 0xFFFFFFFFFFFFFFFFFFFFFFFFFFFFFFFFFFFFFFFF AND DUP4 PUSH20 0xFFFFFFFFFFFFFFFFFFFFFFFFFFFFFFFFFFFFFFFF AND EQ ISZERO PUSH2 0x159E JUMPI PUSH1 0x40 MLOAD PUSH32 0x8C379A000000000000000000000000000000000000000000000000000000000 DUP2 MSTORE PUSH1 0x4 ADD PUSH2 0x1595 SWAP1 PUSH2 0x27A3 JUMP JUMPDEST PUSH1 0x40 MLOAD DUP1 SWAP2 SUB SWAP1 REVERT JUMPDEST DUP1 PUSH1 0x8 PUSH1 0x0 DUP6 PUSH20 0xFFFFFFFFFFFFFFFFFFFFFFFFFFFFFFFFFFFFFFFF AND PUSH20 0xFFFFFFFFFFFFFFFFFFFFFFFFFFFFFFFFFFFFFFFF AND DUP2 MSTORE PUSH1 0x20 ADD SWAP1 DUP2 MSTORE PUSH1 0x20 ADD PUSH1 0x0 KECCAK256 PUSH1 0x0 DUP5 PUSH20 0xFFFFFFFFFFFFFFFFFFFFFFFFFFFFFFFFFFFFFFFF AND PUSH20 0xFFFFFFFFFFFFFFFFFFFFFFFFFFFFFFFFFFFFFFFF AND DUP2 MSTORE PUSH1 0x20 ADD SWAP1 DUP2 MSTORE PUSH1 0x20 ADD PUSH1 0x0 KECCAK256 PUSH1 0x0 PUSH2 0x100 EXP DUP2 SLOAD DUP2 PUSH1 0xFF MUL NOT AND SWAP1 DUP4 ISZERO ISZERO MUL OR SWAP1 SSTORE POP DUP2 PUSH20 0xFFFFFFFFFFFFFFFFFFFFFFFFFFFFFFFFFFFFFFFF AND DUP4 PUSH20 0xFFFFFFFFFFFFFFFFFFFFFFFFFFFFFFFFFFFFFFFF AND PUSH32 0x17307EAB39AB6107E8899845AD3D59BD9653F200F220920489CA2B5937696C31 DUP4 PUSH1 0x40 MLOAD PUSH2 0x168F SWAP2 SWAP1 PUSH2 0x26C6 JUMP JUMPDEST PUSH1 0x40 MLOAD DUP1 SWAP2 SUB SWAP1 LOG3 POP POP POP JUMP JUMPDEST PUSH2 0x16A7 DUP5 DUP5 DUP5 PUSH2 0xF4F JUMP JUMPDEST PUSH2 0x16B3 DUP5 DUP5 DUP5 DUP5 PUSH2 0x1761 JUMP JUMPDEST PUSH2 0x16F2 JUMPI PUSH1 0x40 MLOAD PUSH32 0x8C379A000000000000000000000000000000000000000000000000000000000 DUP2 MSTORE PUSH1 0x4 ADD PUSH2 0x16E9 SWAP1 PUSH2 0x2723 JUMP JUMPDEST PUSH1 0x40 MLOAD DUP1 SWAP2 SUB SWAP1 REVERT JUMPDEST POP POP POP POP JUMP JUMPDEST POP POP POP JUMP JUMPDEST POP POP POP JUMP JUMPDEST PUSH2 0x170E DUP6 DUP6 DUP6 DUP6 PUSH2 0x18F8 JUMP JUMPDEST PUSH2 0x171B PUSH1 0x0 DUP7 DUP5 DUP5 PUSH2 0x1761 JUMP JUMPDEST PUSH2 0x175A JUMPI PUSH1 0x40 MLOAD PUSH32 0x8C379A000000000000000000000000000000000000000000000000000000000 DUP2 MSTORE PUSH1 0x4 ADD PUSH2 0x1751 SWAP1 PUSH2 0x2723 JUMP JUMPDEST PUSH1 0x40 MLOAD DUP1 SWAP2 SUB SWAP1 REVERT JUMPDEST POP POP POP POP POP JUMP JUMPDEST PUSH1 0x0 PUSH2 0x1782 DUP5 PUSH20 0xFFFFFFFFFFFFFFFFFFFFFFFFFFFFFFFFFFFFFFFF AND PUSH2 0x1B64 JUMP JUMPDEST ISZERO PUSH2 0x18EB JUMPI DUP4 PUSH20 0xFFFFFFFFFFFFFFFFFFFFFFFFFFFFFFFFFFFFFFFF AND PUSH4 0x150B7A02 PUSH2 0x17AB PUSH2 0xDF9 JUMP JUMPDEST DUP8 DUP7 DUP7 PUSH1 0x40 MLOAD DUP6 PUSH4 0xFFFFFFFF AND PUSH1 0xE0 SHL DUP2 MSTORE PUSH1 0x4 ADD PUSH2 0x17CD SWAP5 SWAP4 SWAP3 SWAP2 SWAP1 PUSH2 0x2636 JUMP JUMPDEST PUSH1 0x20 PUSH1 0x40 MLOAD DUP1 DUP4 SUB DUP2 PUSH1 0x0 DUP8 DUP1 EXTCODESIZE ISZERO DUP1 ISZERO PUSH2 0x17E7 JUMPI PUSH1 0x0 DUP1 REVERT JUMPDEST POP GAS CALL SWAP3 POP POP POP DUP1 ISZERO PUSH2 0x1818 JUMPI POP PUSH1 0x40 MLOAD RETURNDATASIZE PUSH1 0x1F NOT PUSH1 0x1F DUP3 ADD AND DUP3 ADD DUP1 PUSH1 0x40 MSTORE POP DUP2 ADD SWAP1 PUSH2 0x1815 SWAP2 SWAP1 PUSH2 0x21E1 JUMP JUMPDEST PUSH1 0x1 JUMPDEST PUSH2 0x189B JUMPI RETURNDATASIZE DUP1 PUSH1 0x0 DUP2 EQ PUSH2 0x1848 JUMPI PUSH1 0x40 MLOAD SWAP2 POP PUSH1 0x1F NOT PUSH1 0x3F RETURNDATASIZE ADD AND DUP3 ADD PUSH1 0x40 MSTORE RETURNDATASIZE DUP3 MSTORE RETURNDATASIZE PUSH1 0x0 PUSH1 0x20 DUP5 ADD RETURNDATACOPY PUSH2 0x184D JUMP JUMPDEST PUSH1 0x60 SWAP2 POP JUMPDEST POP PUSH1 0x0 DUP2 MLOAD EQ ISZERO PUSH2 0x1893 JUMPI PUSH1 0x40 MLOAD PUSH32 0x8C379A000000000000000000000000000000000000000000000000000000000 DUP2 MSTORE PUSH1 0x4 ADD PUSH2 0x188A SWAP1 PUSH2 0x2723 JUMP JUMPDEST PUSH1 0x40 MLOAD DUP1 SWAP2 SUB SWAP1 REVERT JUMPDEST DUP1 MLOAD DUP2 PUSH1 0x20 ADD REVERT JUMPDEST PUSH4 0x150B7A02 PUSH1 0xE0 SHL PUSH28 0xFFFFFFFFFFFFFFFFFFFFFFFFFFFFFFFFFFFFFFFFFFFFFFFFFFFFFFFF NOT AND DUP2 PUSH28 0xFFFFFFFFFFFFFFFFFFFFFFFFFFFFFFFFFFFFFFFFFFFFFFFFFFFFFFFF NOT AND EQ SWAP2 POP POP PUSH2 0x18F0 JUMP JUMPDEST PUSH1 0x1 SWAP1 POP JUMPDEST SWAP5 SWAP4 POP POP POP POP JUMP JUMPDEST PUSH1 0x0 PUSH20 0xFFFFFFFFFFFFFFFFFFFFFFFFFFFFFFFFFFFFFFFF AND DUP5 PUSH20 0xFFFFFFFFFFFFFFFFFFFFFFFFFFFFFFFFFFFFFFFF AND EQ ISZERO PUSH2 0x1968 JUMPI PUSH1 0x40 MLOAD PUSH32 0x8C379A000000000000000000000000000000000000000000000000000000000 DUP2 MSTORE PUSH1 0x4 ADD PUSH2 0x195F SWAP1 PUSH2 0x2803 JUMP JUMPDEST PUSH1 0x40 MLOAD DUP1 SWAP2 SUB SWAP1 REVERT JUMPDEST PUSH2 0x1971 DUP2 PUSH2 0x12FF JUMP JUMPDEST ISZERO PUSH2 0x19B1 JUMPI PUSH1 0x40 MLOAD PUSH32 0x8C379A000000000000000000000000000000000000000000000000000000000 DUP2 MSTORE PUSH1 0x4 ADD PUSH2 0x19A8 SWAP1 PUSH2 0x2763 JUMP JUMPDEST PUSH1 0x40 MLOAD DUP1 SWAP2 SUB SWAP1 REVERT JUMPDEST PUSH2 0x19BD PUSH1 0x0 DUP6 DUP4 PUSH2 0x16F8 JUMP JUMPDEST PUSH2 0x19C6 DUP2 PUSH2 0x12FF JUMP JUMPDEST ISZERO PUSH2 0x1A06 JUMPI PUSH1 0x40 MLOAD PUSH32 0x8C379A000000000000000000000000000000000000000000000000000000000 DUP2 MSTORE PUSH1 0x4 ADD PUSH2 0x19FD SWAP1 PUSH2 0x2763 JUMP JUMPDEST PUSH1 0x40 MLOAD DUP1 SWAP2 SUB SWAP1 REVERT JUMPDEST PUSH1 0x1 PUSH1 0x6 PUSH1 0x0 DUP7 PUSH20 0xFFFFFFFFFFFFFFFFFFFFFFFFFFFFFFFFFFFFFFFF AND PUSH20 0xFFFFFFFFFFFFFFFFFFFFFFFFFFFFFFFFFFFFFFFF AND DUP2 MSTORE PUSH1 0x20 ADD SWAP1 DUP2 MSTORE PUSH1 0x20 ADD PUSH1 0x0 KECCAK256 PUSH1 0x0 DUP3 DUP3 SLOAD ADD SWAP3 POP POP DUP2 SWAP1 SSTORE POP DUP4 PUSH1 0x3 PUSH1 0x0 DUP4 DUP2 MSTORE PUSH1 0x20 ADD SWAP1 DUP2 MSTORE PUSH1 0x20 ADD PUSH1 0x0 KECCAK256 PUSH1 0x0 PUSH2 0x100 EXP DUP2 SLOAD DUP2 PUSH20 0xFFFFFFFFFFFFFFFFFFFFFFFFFFFFFFFFFFFFFFFF MUL NOT AND SWAP1 DUP4 PUSH20 0xFFFFFFFFFFFFFFFFFFFFFFFFFFFFFFFFFFFFFFFF AND MUL OR SWAP1 SSTORE POP DUP3 PUSH1 0x4 PUSH1 0x0 DUP4 DUP2 MSTORE PUSH1 0x20 ADD SWAP1 DUP2 MSTORE PUSH1 0x20 ADD PUSH1 0x0 KECCAK256 SWAP1 DUP1 MLOAD SWAP1 PUSH1 0x20 ADD SWAP1 PUSH2 0x1ACD SWAP3 SWAP2 SWAP1 PUSH2 0x1C0D JUMP JUMPDEST POP DUP2 PUSH1 0x5 PUSH1 0x0 DUP4 DUP2 MSTORE PUSH1 0x20 ADD SWAP1 DUP2 MSTORE PUSH1 0x20 ADD PUSH1 0x0 KECCAK256 SWAP1 DUP1 MLOAD SWAP1 PUSH1 0x20 ADD SWAP1 PUSH2 0x1AF5 SWAP3 SWAP2 SWAP1 PUSH2 0x1C97 JUMP JUMPDEST POP DUP1 DUP5 PUSH20 0xFFFFFFFFFFFFFFFFFFFFFFFFFFFFFFFFFFFFFFFF AND PUSH1 0x0 PUSH20 0xFFFFFFFFFFFFFFFFFFFFFFFFFFFFFFFFFFFFFFFF AND PUSH32 0xDDF252AD1BE2C89B69C2B068FC378DAA952BA7F163C4A11628F55A4DF523B3EF PUSH1 0x40 MLOAD PUSH1 0x40 MLOAD DUP1 SWAP2 SUB SWAP1 LOG4 PUSH2 0x1B5E PUSH1 0x0 DUP6 DUP4 PUSH2 0x16FD JUMP JUMPDEST POP POP POP POP JUMP JUMPDEST PUSH1 0x0 DUP1 DUP3 PUSH20 0xFFFFFFFFFFFFFFFFFFFFFFFFFFFFFFFFFFFFFFFF AND EXTCODESIZE GT SWAP1 POP SWAP2 SWAP1 POP JUMP JUMPDEST DUP3 DUP1 SLOAD PUSH2 0x1B93 SWAP1 PUSH2 0x2BE3 JUMP JUMPDEST SWAP1 PUSH1 0x0 MSTORE PUSH1 0x20 PUSH1 0x0 KECCAK256 SWAP1 PUSH1 0x1F ADD PUSH1 0x20 SWAP1 DIV DUP2 ADD SWAP3 DUP3 PUSH2 0x1BB5 JUMPI PUSH1 0x0 DUP6 SSTORE PUSH2 0x1BFC JUMP JUMPDEST DUP3 PUSH1 0x1F LT PUSH2 0x1BCE JUMPI DUP1 MLOAD PUSH1 0xFF NOT AND DUP4 DUP1 ADD OR DUP6 SSTORE PUSH2 0x1BFC JUMP JUMPDEST DUP3 DUP1 ADD PUSH1 0x1 ADD DUP6 SSTORE DUP3 ISZERO PUSH2 0x1BFC JUMPI SWAP2 DUP3 ADD JUMPDEST DUP3 DUP2 GT ISZERO PUSH2 0x1BFB JUMPI DUP3 MLOAD DUP3 SSTORE SWAP2 PUSH1 0x20 ADD SWAP2 SWAP1 PUSH1 0x1 ADD SWAP1 PUSH2 0x1BE0 JUMP JUMPDEST JUMPDEST POP SWAP1 POP PUSH2 0x1C09 SWAP2 SWAP1 PUSH2 0x1CE4 JUMP JUMPDEST POP SWAP1 JUMP JUMPDEST DUP3 DUP1 SLOAD DUP3 DUP3 SSTORE SWAP1 PUSH1 0x0 MSTORE PUSH1 0x20 PUSH1 0x0 KECCAK256 SWAP1 DUP2 ADD SWAP3 DUP3 ISZERO PUSH2 0x1C86 JUMPI SWAP2 PUSH1 0x20 MUL DUP3 ADD JUMPDEST DUP3 DUP2 GT ISZERO PUSH2 0x1C85 JUMPI DUP3 MLOAD DUP3 PUSH1 0x0 PUSH2 0x100 EXP DUP2 SLOAD DUP2 PUSH20 0xFFFFFFFFFFFFFFFFFFFFFFFFFFFFFFFFFFFFFFFF MUL NOT AND SWAP1 DUP4 PUSH20 0xFFFFFFFFFFFFFFFFFFFFFFFFFFFFFFFFFFFFFFFF AND MUL OR SWAP1 SSTORE POP SWAP2 PUSH1 0x20 ADD SWAP2 SWAP1 PUSH1 0x1 ADD SWAP1 PUSH2 0x1C2D JUMP JUMPDEST JUMPDEST POP SWAP1 POP PUSH2 0x1C93 SWAP2 SWAP1 PUSH2 0x1CE4 JUMP JUMPDEST POP SWAP1 JUMP JUMPDEST DUP3 DUP1 SLOAD DUP3 DUP3 SSTORE SWAP1 PUSH1 0x0 MSTORE PUSH1 0x20 PUSH1 0x0 KECCAK256 SWAP1 DUP2 ADD SWAP3 DUP3 ISZERO PUSH2 0x1CD3 JUMPI SWAP2 PUSH1 0x20 MUL DUP3 ADD JUMPDEST DUP3 DUP2 GT ISZERO PUSH2 0x1CD2 JUMPI DUP3 MLOAD DUP3 SSTORE SWAP2 PUSH1 0x20 ADD SWAP2 SWAP1 PUSH1 0x1 ADD SWAP1 PUSH2 0x1CB7 JUMP JUMPDEST JUMPDEST POP SWAP1 POP PUSH2 0x1CE0 SWAP2 SWAP1 PUSH2 0x1CE4 JUMP JUMPDEST POP SWAP1 JUMP JUMPDEST JUMPDEST DUP1 DUP3 GT ISZERO PUSH2 0x1CFD JUMPI PUSH1 0x0 DUP2 PUSH1 0x0 SWAP1 SSTORE POP PUSH1 0x1 ADD PUSH2 0x1CE5 JUMP JUMPDEST POP SWAP1 JUMP JUMPDEST PUSH1 0x0 PUSH2 0x1D14 PUSH2 0x1D0F DUP5 PUSH2 0x2903 JUMP JUMPDEST PUSH2 0x28DE JUMP JUMPDEST SWAP1 POP DUP1 DUP4 DUP3 MSTORE PUSH1 0x20 DUP3 ADD SWAP1 POP DUP3 DUP6 PUSH1 0x20 DUP7 MUL DUP3 ADD GT ISZERO PUSH2 0x1D33 JUMPI PUSH1 0x0 DUP1 REVERT JUMPDEST PUSH1 0x0 JUMPDEST DUP6 DUP2 LT ISZERO PUSH2 0x1D63 JUMPI DUP2 PUSH2 0x1D49 DUP9 DUP3 PUSH2 0x1E55 JUMP JUMPDEST DUP5 MSTORE PUSH1 0x20 DUP5 ADD SWAP4 POP PUSH1 0x20 DUP4 ADD SWAP3 POP POP PUSH1 0x1 DUP2 ADD SWAP1 POP PUSH2 0x1D36 JUMP JUMPDEST POP POP POP SWAP4 SWAP3 POP POP POP JUMP JUMPDEST PUSH1 0x0 PUSH2 0x1D80 PUSH2 0x1D7B DUP5 PUSH2 0x292F JUMP JUMPDEST PUSH2 0x28DE JUMP JUMPDEST SWAP1 POP DUP1 DUP4 DUP3 MSTORE PUSH1 0x20 DUP3 ADD SWAP1 POP DUP3 DUP6 PUSH1 0x20 DUP7 MUL DUP3 ADD GT ISZERO PUSH2 0x1D9F JUMPI PUSH1 0x0 DUP1 REVERT JUMPDEST PUSH1 0x0 JUMPDEST DUP6 DUP2 LT ISZERO PUSH2 0x1DCF JUMPI DUP2 PUSH2 0x1DB5 DUP9 DUP3 PUSH2 0x1F51 JUMP JUMPDEST DUP5 MSTORE PUSH1 0x20 DUP5 ADD SWAP4 POP PUSH1 0x20 DUP4 ADD SWAP3 POP POP PUSH1 0x1 DUP2 ADD SWAP1 POP PUSH2 0x1DA2 JUMP JUMPDEST POP POP POP SWAP4 SWAP3 POP POP POP JUMP JUMPDEST PUSH1 0x0 PUSH2 0x1DEC PUSH2 0x1DE7 DUP5 PUSH2 0x295B JUMP JUMPDEST PUSH2 0x28DE JUMP JUMPDEST SWAP1 POP DUP3 DUP2 MSTORE PUSH1 0x20 DUP2 ADD DUP5 DUP5 DUP5 ADD GT ISZERO PUSH2 0x1E04 JUMPI PUSH1 0x0 DUP1 REVERT JUMPDEST PUSH2 0x1E0F DUP5 DUP3 DUP6 PUSH2 0x2BA1 JUMP JUMPDEST POP SWAP4 SWAP3 POP POP POP JUMP JUMPDEST PUSH1 0x0 PUSH2 0x1E2A PUSH2 0x1E25 DUP5 PUSH2 0x298C JUMP JUMPDEST PUSH2 0x28DE JUMP JUMPDEST SWAP1 POP DUP3 DUP2 MSTORE PUSH1 0x20 DUP2 ADD DUP5 DUP5 DUP5 ADD GT ISZERO PUSH2 0x1E42 JUMPI PUSH1 0x0 DUP1 REVERT JUMPDEST PUSH2 0x1E4D DUP5 DUP3 DUP6 PUSH2 0x2BA1 JUMP JUMPDEST POP SWAP4 SWAP3 POP POP POP JUMP JUMPDEST PUSH1 0x0 DUP2 CALLDATALOAD SWAP1 POP PUSH2 0x1E64 DUP2 PUSH2 0x3147 JUMP JUMPDEST SWAP3 SWAP2 POP POP JUMP JUMPDEST PUSH1 0x0 DUP3 PUSH1 0x1F DUP4 ADD SLT PUSH2 0x1E7B JUMPI PUSH1 0x0 DUP1 REVERT JUMPDEST DUP2 CALLDATALOAD PUSH2 0x1E8B DUP5 DUP3 PUSH1 0x20 DUP7 ADD PUSH2 0x1D01 JUMP JUMPDEST SWAP2 POP POP SWAP3 SWAP2 POP POP JUMP JUMPDEST PUSH1 0x0 DUP3 PUSH1 0x1F DUP4 ADD SLT PUSH2 0x1EA5 JUMPI PUSH1 0x0 DUP1 REVERT JUMPDEST DUP2 CALLDATALOAD PUSH2 0x1EB5 DUP5 DUP3 PUSH1 0x20 DUP7 ADD PUSH2 0x1D6D JUMP JUMPDEST SWAP2 POP POP SWAP3 SWAP2 POP POP JUMP JUMPDEST PUSH1 0x0 DUP2 CALLDATALOAD SWAP1 POP PUSH2 0x1ECD DUP2 PUSH2 0x315E JUMP JUMPDEST SWAP3 SWAP2 POP POP JUMP JUMPDEST PUSH1 0x0 DUP2 CALLDATALOAD SWAP1 POP PUSH2 0x1EE2 DUP2 PUSH2 0x3175 JUMP JUMPDEST SWAP3 SWAP2 POP POP JUMP JUMPDEST PUSH1 0x0 DUP2 MLOAD SWAP1 POP PUSH2 0x1EF7 DUP2 PUSH2 0x3175 JUMP JUMPDEST SWAP3 SWAP2 POP POP JUMP JUMPDEST PUSH1 0x0 DUP3 PUSH1 0x1F DUP4 ADD SLT PUSH2 0x1F0E JUMPI PUSH1 0x0 DUP1 REVERT JUMPDEST DUP2 CALLDATALOAD PUSH2 0x1F1E DUP5 DUP3 PUSH1 0x20 DUP7 ADD PUSH2 0x1DD9 JUMP JUMPDEST SWAP2 POP POP SWAP3 SWAP2 POP POP JUMP JUMPDEST PUSH1 0x0 DUP3 PUSH1 0x1F DUP4 ADD SLT PUSH2 0x1F38 JUMPI PUSH1 0x0 DUP1 REVERT JUMPDEST DUP2 CALLDATALOAD PUSH2 0x1F48 DUP5 DUP3 PUSH1 0x20 DUP7 ADD PUSH2 0x1E17 JUMP JUMPDEST SWAP2 POP POP SWAP3 SWAP2 POP POP JUMP JUMPDEST PUSH1 0x0 DUP2 CALLDATALOAD SWAP1 POP PUSH2 0x1F60 DUP2 PUSH2 0x318C JUMP JUMPDEST SWAP3 SWAP2 POP POP JUMP JUMPDEST PUSH1 0x0 PUSH1 0x20 DUP3 DUP5 SUB SLT ISZERO PUSH2 0x1F78 JUMPI PUSH1 0x0 DUP1 REVERT JUMPDEST PUSH1 0x0 PUSH2 0x1F86 DUP5 DUP3 DUP6 ADD PUSH2 0x1E55 JUMP JUMPDEST SWAP2 POP POP SWAP3 SWAP2 POP POP JUMP JUMPDEST PUSH1 0x0 DUP1 PUSH1 0x40 DUP4 DUP6 SUB SLT ISZERO PUSH2 0x1FA2 JUMPI PUSH1 0x0 DUP1 REVERT JUMPDEST PUSH1 0x0 PUSH2 0x1FB0 DUP6 DUP3 DUP7 ADD PUSH2 0x1E55 JUMP JUMPDEST SWAP3 POP POP PUSH1 0x20 PUSH2 0x1FC1 DUP6 DUP3 DUP7 ADD PUSH2 0x1E55 JUMP JUMPDEST SWAP2 POP POP SWAP3 POP SWAP3 SWAP1 POP JUMP JUMPDEST PUSH1 0x0 DUP1 PUSH1 0x0 PUSH1 0x60 DUP5 DUP7 SUB SLT ISZERO PUSH2 0x1FE0 JUMPI PUSH1 0x0 DUP1 REVERT JUMPDEST PUSH1 0x0 PUSH2 0x1FEE DUP7 DUP3 DUP8 ADD PUSH2 0x1E55 JUMP JUMPDEST SWAP4 POP POP PUSH1 0x20 PUSH2 0x1FFF DUP7 DUP3 DUP8 ADD PUSH2 0x1E55 JUMP JUMPDEST SWAP3 POP POP PUSH1 0x40 PUSH2 0x2010 DUP7 DUP3 DUP8 ADD PUSH2 0x1F51 JUMP JUMPDEST SWAP2 POP POP SWAP3 POP SWAP3 POP SWAP3 JUMP JUMPDEST PUSH1 0x0 DUP1 PUSH1 0x0 DUP1 PUSH1 0x80 DUP6 DUP8 SUB SLT ISZERO PUSH2 0x2030 JUMPI PUSH1 0x0 DUP1 REVERT JUMPDEST PUSH1 0x0 PUSH2 0x203E DUP8 DUP3 DUP9 ADD PUSH2 0x1E55 JUMP JUMPDEST SWAP5 POP POP PUSH1 0x20 PUSH2 0x204F DUP8 DUP3 DUP9 ADD PUSH2 0x1E55 JUMP JUMPDEST SWAP4 POP POP PUSH1 0x40 PUSH2 0x2060 DUP8 DUP3 DUP9 ADD PUSH2 0x1F51 JUMP JUMPDEST SWAP3 POP POP PUSH1 0x60 DUP6 ADD CALLDATALOAD PUSH8 0xFFFFFFFFFFFFFFFF DUP2 GT ISZERO PUSH2 0x207D JUMPI PUSH1 0x0 DUP1 REVERT JUMPDEST PUSH2 0x2089 DUP8 DUP3 DUP9 ADD PUSH2 0x1EFD JUMP JUMPDEST SWAP2 POP POP SWAP3 SWAP6 SWAP2 SWAP5 POP SWAP3 POP JUMP JUMPDEST PUSH1 0x0 DUP1 PUSH1 0x0 DUP1 PUSH1 0x80 DUP6 DUP8 SUB SLT ISZERO PUSH2 0x20AB JUMPI PUSH1 0x0 DUP1 REVERT JUMPDEST PUSH1 0x0 PUSH2 0x20B9 DUP8 DUP3 DUP9 ADD PUSH2 0x1E55 JUMP JUMPDEST SWAP5 POP POP PUSH1 0x20 DUP6 ADD CALLDATALOAD PUSH8 0xFFFFFFFFFFFFFFFF DUP2 GT ISZERO PUSH2 0x20D6 JUMPI PUSH1 0x0 DUP1 REVERT JUMPDEST PUSH2 0x20E2 DUP8 DUP3 DUP9 ADD PUSH2 0x1E6A JUMP JUMPDEST SWAP4 POP POP PUSH1 0x40 DUP6 ADD CALLDATALOAD PUSH8 0xFFFFFFFFFFFFFFFF DUP2 GT ISZERO PUSH2 0x20FF JUMPI PUSH1 0x0 DUP1 REVERT JUMPDEST PUSH2 0x210B DUP8 DUP3 DUP9 ADD PUSH2 0x1E94 JUMP JUMPDEST SWAP3 POP POP PUSH1 0x60 DUP6 ADD CALLDATALOAD PUSH8 0xFFFFFFFFFFFFFFFF DUP2 GT ISZERO PUSH2 0x2128 JUMPI PUSH1 0x0 DUP1 REVERT JUMPDEST PUSH2 0x2134 DUP8 DUP3 DUP9 ADD PUSH2 0x1F27 JUMP JUMPDEST SWAP2 POP POP SWAP3 SWAP6 SWAP2 SWAP5 POP SWAP3 POP JUMP JUMPDEST PUSH1 0x0 DUP1 PUSH1 0x40 DUP4 DUP6 SUB SLT ISZERO PUSH2 0x2153 JUMPI PUSH1 0x0 DUP1 REVERT JUMPDEST PUSH1 0x0 PUSH2 0x2161 DUP6 DUP3 DUP7 ADD PUSH2 0x1E55 JUMP JUMPDEST SWAP3 POP POP PUSH1 0x20 PUSH2 0x2172 DUP6 DUP3 DUP7 ADD PUSH2 0x1EBE JUMP JUMPDEST SWAP2 POP POP SWAP3 POP SWAP3 SWAP1 POP JUMP JUMPDEST PUSH1 0x0 DUP1 PUSH1 0x40 DUP4 DUP6 SUB SLT ISZERO PUSH2 0x218F JUMPI PUSH1 0x0 DUP1 REVERT JUMPDEST PUSH1 0x0 PUSH2 0x219D DUP6 DUP3 DUP7 ADD PUSH2 0x1E55 JUMP JUMPDEST SWAP3 POP POP PUSH1 0x20 PUSH2 0x21AE DUP6 DUP3 DUP7 ADD PUSH2 0x1F51 JUMP JUMPDEST SWAP2 POP POP SWAP3 POP SWAP3 SWAP1 POP JUMP JUMPDEST PUSH1 0x0 PUSH1 0x20 DUP3 DUP5 SUB SLT ISZERO PUSH2 0x21CA JUMPI PUSH1 0x0 DUP1 REVERT JUMPDEST PUSH1 0x0 PUSH2 0x21D8 DUP5 DUP3 DUP6 ADD PUSH2 0x1ED3 JUMP JUMPDEST SWAP2 POP POP SWAP3 SWAP2 POP POP JUMP JUMPDEST PUSH1 0x0 PUSH1 0x20 DUP3 DUP5 SUB SLT ISZERO PUSH2 0x21F3 JUMPI PUSH1 0x0 DUP1 REVERT JUMPDEST PUSH1 0x0 PUSH2 0x2201 DUP5 DUP3 DUP6 ADD PUSH2 0x1EE8 JUMP JUMPDEST SWAP2 POP POP SWAP3 SWAP2 POP POP JUMP JUMPDEST PUSH1 0x0 PUSH1 0x20 DUP3 DUP5 SUB SLT ISZERO PUSH2 0x221C JUMPI PUSH1 0x0 DUP1 REVERT JUMPDEST PUSH1 0x0 PUSH2 0x222A DUP5 DUP3 DUP6 ADD PUSH2 0x1F51 JUMP JUMPDEST SWAP2 POP POP SWAP3 SWAP2 POP POP JUMP JUMPDEST PUSH1 0x0 PUSH2 0x223F DUP4 DUP4 PUSH2 0x2263 JUMP JUMPDEST PUSH1 0x20 DUP4 ADD SWAP1 POP SWAP3 SWAP2 POP POP JUMP JUMPDEST PUSH1 0x0 PUSH2 0x2257 DUP4 DUP4 PUSH2 0x25D9 JUMP JUMPDEST PUSH1 0x20 DUP4 ADD SWAP1 POP SWAP3 SWAP2 POP POP JUMP JUMPDEST PUSH2 0x226C DUP2 PUSH2 0x2B2D JUMP JUMPDEST DUP3 MSTORE POP POP JUMP JUMPDEST PUSH2 0x227B DUP2 PUSH2 0x2B2D JUMP JUMPDEST DUP3 MSTORE POP POP JUMP JUMPDEST PUSH1 0x0 PUSH2 0x228C DUP3 PUSH2 0x29DD JUMP JUMPDEST PUSH2 0x2296 DUP2 DUP6 PUSH2 0x2A23 JUMP JUMPDEST SWAP4 POP PUSH2 0x22A1 DUP4 PUSH2 0x29BD JUMP JUMPDEST DUP1 PUSH1 0x0 JUMPDEST DUP4 DUP2 LT ISZERO PUSH2 0x22D2 JUMPI DUP2 MLOAD PUSH2 0x22B9 DUP9 DUP3 PUSH2 0x2233 JUMP JUMPDEST SWAP8 POP PUSH2 0x22C4 DUP4 PUSH2 0x2A09 JUMP JUMPDEST SWAP3 POP POP PUSH1 0x1 DUP2 ADD SWAP1 POP PUSH2 0x22A5 JUMP JUMPDEST POP DUP6 SWAP4 POP POP POP POP SWAP3 SWAP2 POP POP JUMP JUMPDEST PUSH1 0x0 PUSH2 0x22EA DUP3 PUSH2 0x29E8 JUMP JUMPDEST PUSH2 0x22F4 DUP2 DUP6 PUSH2 0x2A34 JUMP JUMPDEST SWAP4 POP PUSH2 0x22FF DUP4 PUSH2 0x29CD JUMP JUMPDEST DUP1 PUSH1 0x0 JUMPDEST DUP4 DUP2 LT ISZERO PUSH2 0x2330 JUMPI DUP2 MLOAD PUSH2 0x2317 DUP9 DUP3 PUSH2 0x224B JUMP JUMPDEST SWAP8 POP PUSH2 0x2322 DUP4 PUSH2 0x2A16 JUMP JUMPDEST SWAP3 POP POP PUSH1 0x1 DUP2 ADD SWAP1 POP PUSH2 0x2303 JUMP JUMPDEST POP DUP6 SWAP4 POP POP POP POP SWAP3 SWAP2 POP POP JUMP JUMPDEST PUSH2 0x2346 DUP2 PUSH2 0x2B3F JUMP JUMPDEST DUP3 MSTORE POP POP JUMP JUMPDEST PUSH1 0x0 PUSH2 0x2357 DUP3 PUSH2 0x29F3 JUMP JUMPDEST PUSH2 0x2361 DUP2 DUP6 PUSH2 0x2A45 JUMP JUMPDEST SWAP4 POP PUSH2 0x2371 DUP2 DUP6 PUSH1 0x20 DUP7 ADD PUSH2 0x2BB0 JUMP JUMPDEST PUSH2 0x237A DUP2 PUSH2 0x2D7C JUMP JUMPDEST DUP5 ADD SWAP2 POP POP SWAP3 SWAP2 POP POP JUMP JUMPDEST PUSH1 0x0 PUSH2 0x2390 DUP3 PUSH2 0x29FE JUMP JUMPDEST PUSH2 0x239A DUP2 DUP6 PUSH2 0x2A56 JUMP JUMPDEST SWAP4 POP PUSH2 0x23AA DUP2 DUP6 PUSH1 0x20 DUP7 ADD PUSH2 0x2BB0 JUMP JUMPDEST PUSH2 0x23B3 DUP2 PUSH2 0x2D7C JUMP JUMPDEST DUP5 ADD SWAP2 POP POP SWAP3 SWAP2 POP POP JUMP JUMPDEST PUSH1 0x0 PUSH2 0x23C9 DUP3 PUSH2 0x29FE JUMP JUMPDEST PUSH2 0x23D3 DUP2 DUP6 PUSH2 0x2A67 JUMP JUMPDEST SWAP4 POP PUSH2 0x23E3 DUP2 DUP6 PUSH1 0x20 DUP7 ADD PUSH2 0x2BB0 JUMP JUMPDEST DUP1 DUP5 ADD SWAP2 POP POP SWAP3 SWAP2 POP POP JUMP JUMPDEST PUSH1 0x0 PUSH2 0x23FC PUSH1 0x2D DUP4 PUSH2 0x2A56 JUMP JUMPDEST SWAP2 POP PUSH2 0x2407 DUP3 PUSH2 0x2D8D JUMP JUMPDEST PUSH1 0x40 DUP3 ADD SWAP1 POP SWAP2 SWAP1 POP JUMP JUMPDEST PUSH1 0x0 PUSH2 0x241F PUSH1 0x32 DUP4 PUSH2 0x2A56 JUMP JUMPDEST SWAP2 POP PUSH2 0x242A DUP3 PUSH2 0x2DDC JUMP JUMPDEST PUSH1 0x40 DUP3 ADD SWAP1 POP SWAP2 SWAP1 POP JUMP JUMPDEST PUSH1 0x0 PUSH2 0x2442 PUSH1 0x25 DUP4 PUSH2 0x2A56 JUMP JUMPDEST SWAP2 POP PUSH2 0x244D DUP3 PUSH2 0x2E2B JUMP JUMPDEST PUSH1 0x40 DUP3 ADD SWAP1 POP SWAP2 SWAP1 POP JUMP JUMPDEST PUSH1 0x0 PUSH2 0x2465 PUSH1 0x1C DUP4 PUSH2 0x2A56 JUMP JUMPDEST SWAP2 POP PUSH2 0x2470 DUP3 PUSH2 0x2E7A JUMP JUMPDEST PUSH1 0x20 DUP3 ADD SWAP1 POP SWAP2 SWAP1 POP JUMP JUMPDEST PUSH1 0x0 PUSH2 0x2488 PUSH1 0x24 DUP4 PUSH2 0x2A56 JUMP JUMPDEST SWAP2 POP PUSH2 0x2493 DUP3 PUSH2 0x2EA3 JUMP JUMPDEST PUSH1 0x40 DUP3 ADD SWAP1 POP SWAP2 SWAP1 POP JUMP JUMPDEST PUSH1 0x0 PUSH2 0x24AB PUSH1 0x19 DUP4 PUSH2 0x2A56 JUMP JUMPDEST SWAP2 POP PUSH2 0x24B6 DUP3 PUSH2 0x2EF2 JUMP JUMPDEST PUSH1 0x20 DUP3 ADD SWAP1 POP SWAP2 SWAP1 POP JUMP JUMPDEST PUSH1 0x0 PUSH2 0x24CE PUSH1 0x29 DUP4 PUSH2 0x2A56 JUMP JUMPDEST SWAP2 POP PUSH2 0x24D9 DUP3 PUSH2 0x2F1B JUMP JUMPDEST PUSH1 0x40 DUP3 ADD SWAP1 POP SWAP2 SWAP1 POP JUMP JUMPDEST PUSH1 0x0 PUSH2 0x24F1 PUSH1 0x2E DUP4 PUSH2 0x2A56 JUMP JUMPDEST SWAP2 POP PUSH2 0x24FC DUP3 PUSH2 0x2F6A JUMP JUMPDEST PUSH1 0x40 DUP3 ADD SWAP1 POP SWAP2 SWAP1 POP JUMP JUMPDEST PUSH1 0x0 PUSH2 0x2514 PUSH1 0x20 DUP4 PUSH2 0x2A56 JUMP JUMPDEST SWAP2 POP PUSH2 0x251F DUP3 PUSH2 0x2FB9 JUMP JUMPDEST PUSH1 0x20 DUP3 ADD SWAP1 POP SWAP2 SWAP1 POP JUMP JUMPDEST PUSH1 0x0 PUSH2 0x2537 PUSH1 0x31 DUP4 PUSH2 0x2A56 JUMP JUMPDEST SWAP2 POP PUSH2 0x2542 DUP3 PUSH2 0x2FE2 JUMP JUMPDEST PUSH1 0x40 DUP3 ADD SWAP1 POP SWAP2 SWAP1 POP JUMP JUMPDEST PUSH1 0x0 PUSH2 0x255A PUSH1 0x2F DUP4 PUSH2 0x2A56 JUMP JUMPDEST SWAP2 POP PUSH2 0x2565 DUP3 PUSH2 0x3031 JUMP JUMPDEST PUSH1 0x40 DUP3 ADD SWAP1 POP SWAP2 SWAP1 POP JUMP JUMPDEST PUSH1 0x0 PUSH2 0x257D PUSH1 0x18 DUP4 PUSH2 0x2A56 JUMP JUMPDEST SWAP2 POP PUSH2 0x2588 DUP3 PUSH2 0x3080 JUMP JUMPDEST PUSH1 0x20 DUP3 ADD SWAP1 POP SWAP2 SWAP1 POP JUMP JUMPDEST PUSH1 0x0 PUSH2 0x25A0 PUSH1 0x21 DUP4 PUSH2 0x2A56 JUMP JUMPDEST SWAP2 POP PUSH2 0x25AB DUP3 PUSH2 0x30A9 JUMP JUMPDEST PUSH1 0x40 DUP3 ADD SWAP1 POP SWAP2 SWAP1 POP JUMP JUMPDEST PUSH1 0x0 PUSH2 0x25C3 PUSH1 0x3D DUP4 PUSH2 0x2A56 JUMP JUMPDEST SWAP2 POP PUSH2 0x25CE DUP3 PUSH2 0x30F8 JUMP JUMPDEST PUSH1 0x40 DUP3 ADD SWAP1 POP SWAP2 SWAP1 POP JUMP JUMPDEST PUSH2 0x25E2 DUP2 PUSH2 0x2B97 JUMP JUMPDEST DUP3 MSTORE POP POP JUMP JUMPDEST PUSH2 0x25F1 DUP2 PUSH2 0x2B97 JUMP JUMPDEST DUP3 MSTORE POP POP JUMP JUMPDEST PUSH1 0x0 PUSH2 0x2603 DUP3 DUP6 PUSH2 0x23BE JUMP JUMPDEST SWAP2 POP PUSH2 0x260F DUP3 DUP5 PUSH2 0x23BE JUMP JUMPDEST SWAP2 POP DUP2 SWAP1 POP SWAP4 SWAP3 POP POP POP JUMP JUMPDEST PUSH1 0x0 PUSH1 0x20 DUP3 ADD SWAP1 POP PUSH2 0x2630 PUSH1 0x0 DUP4 ADD DUP5 PUSH2 0x2272 JUMP JUMPDEST SWAP3 SWAP2 POP POP JUMP JUMPDEST PUSH1 0x0 PUSH1 0x80 DUP3 ADD SWAP1 POP PUSH2 0x264B PUSH1 0x0 DUP4 ADD DUP8 PUSH2 0x2272 JUMP JUMPDEST PUSH2 0x2658 PUSH1 0x20 DUP4 ADD DUP7 PUSH2 0x2272 JUMP JUMPDEST PUSH2 0x2665 PUSH1 0x40 DUP4 ADD DUP6 PUSH2 0x25E8 JUMP JUMPDEST DUP2 DUP2 SUB PUSH1 0x60 DUP4 ADD MSTORE PUSH2 0x2677 DUP2 DUP5 PUSH2 0x234C JUMP JUMPDEST SWAP1 POP SWAP6 SWAP5 POP POP POP POP POP JUMP JUMPDEST PUSH1 0x0 PUSH1 0x20 DUP3 ADD SWAP1 POP DUP2 DUP2 SUB PUSH1 0x0 DUP4 ADD MSTORE PUSH2 0x269C DUP2 DUP5 PUSH2 0x2281 JUMP JUMPDEST SWAP1 POP SWAP3 SWAP2 POP POP JUMP JUMPDEST PUSH1 0x0 PUSH1 0x20 DUP3 ADD SWAP1 POP DUP2 DUP2 SUB PUSH1 0x0 DUP4 ADD MSTORE PUSH2 0x26BE DUP2 DUP5 PUSH2 0x22DF JUMP JUMPDEST SWAP1 POP SWAP3 SWAP2 POP POP JUMP JUMPDEST PUSH1 0x0 PUSH1 0x20 DUP3 ADD SWAP1 POP PUSH2 0x26DB PUSH1 0x0 DUP4 ADD DUP5 PUSH2 0x233D JUMP JUMPDEST SWAP3 SWAP2 POP POP JUMP JUMPDEST PUSH1 0x0 PUSH1 0x20 DUP3 ADD SWAP1 POP DUP2 DUP2 SUB PUSH1 0x0 DUP4 ADD MSTORE PUSH2 0x26FB DUP2 DUP5 PUSH2 0x2385 JUMP JUMPDEST SWAP1 POP SWAP3 SWAP2 POP POP JUMP JUMPDEST PUSH1 0x0 PUSH1 0x20 DUP3 ADD SWAP1 POP DUP2 DUP2 SUB PUSH1 0x0 DUP4 ADD MSTORE PUSH2 0x271C DUP2 PUSH2 0x23EF JUMP JUMPDEST SWAP1 POP SWAP2 SWAP1 POP JUMP JUMPDEST PUSH1 0x0 PUSH1 0x20 DUP3 ADD SWAP1 POP DUP2 DUP2 SUB PUSH1 0x0 DUP4 ADD MSTORE PUSH2 0x273C DUP2 PUSH2 0x2412 JUMP JUMPDEST SWAP1 POP SWAP2 SWAP1 POP JUMP JUMPDEST PUSH1 0x0 PUSH1 0x20 DUP3 ADD SWAP1 POP DUP2 DUP2 SUB PUSH1 0x0 DUP4 ADD MSTORE PUSH2 0x275C DUP2 PUSH2 0x2435 JUMP JUMPDEST SWAP1 POP SWAP2 SWAP1 POP JUMP JUMPDEST PUSH1 0x0 PUSH1 0x20 DUP3 ADD SWAP1 POP DUP2 DUP2 SUB PUSH1 0x0 DUP4 ADD MSTORE PUSH2 0x277C DUP2 PUSH2 0x2458 JUMP JUMPDEST SWAP1 POP SWAP2 SWAP1 POP JUMP JUMPDEST PUSH1 0x0 PUSH1 0x20 DUP3 ADD SWAP1 POP DUP2 DUP2 SUB PUSH1 0x0 DUP4 ADD MSTORE PUSH2 0x279C DUP2 PUSH2 0x247B JUMP JUMPDEST SWAP1 POP SWAP2 SWAP1 POP JUMP JUMPDEST PUSH1 0x0 PUSH1 0x20 DUP3 ADD SWAP1 POP DUP2 DUP2 SUB PUSH1 0x0 DUP4 ADD MSTORE PUSH2 0x27BC DUP2 PUSH2 0x249E JUMP JUMPDEST SWAP1 POP SWAP2 SWAP1 POP JUMP JUMPDEST PUSH1 0x0 PUSH1 0x20 DUP3 ADD SWAP1 POP DUP2 DUP2 SUB PUSH1 0x0 DUP4 ADD MSTORE PUSH2 0x27DC DUP2 PUSH2 0x24C1 JUMP JUMPDEST SWAP1 POP SWAP2 SWAP1 POP JUMP JUMPDEST PUSH1 0x0 PUSH1 0x20 DUP3 ADD SWAP1 POP DUP2 DUP2 SUB PUSH1 0x0 DUP4 ADD MSTORE PUSH2 0x27FC DUP2 PUSH2 0x24E4 JUMP JUMPDEST SWAP1 POP SWAP2 SWAP1 POP JUMP JUMPDEST PUSH1 0x0 PUSH1 0x20 DUP3 ADD SWAP1 POP DUP2 DUP2 SUB PUSH1 0x0 DUP4 ADD MSTORE PUSH2 0x281C DUP2 PUSH2 0x2507 JUMP JUMPDEST SWAP1 POP SWAP2 SWAP1 POP JUMP JUMPDEST PUSH1 0x0 PUSH1 0x20 DUP3 ADD SWAP1 POP DUP2 DUP2 SUB PUSH1 0x0 DUP4 ADD MSTORE PUSH2 0x283C DUP2 PUSH2 0x252A JUMP JUMPDEST SWAP1 POP SWAP2 SWAP1 POP JUMP JUMPDEST PUSH1 0x0 PUSH1 0x20 DUP3 ADD SWAP1 POP DUP2 DUP2 SUB PUSH1 0x0 DUP4 ADD MSTORE PUSH2 0x285C DUP2 PUSH2 0x254D JUMP JUMPDEST SWAP1 POP SWAP2 SWAP1 POP JUMP JUMPDEST PUSH1 0x0 PUSH1 0x20 DUP3 ADD SWAP1 POP DUP2 DUP2 SUB PUSH1 0x0 DUP4 ADD MSTORE PUSH2 0x287C DUP2 PUSH2 0x2570 JUMP JUMPDEST SWAP1 POP SWAP2 SWAP1 POP JUMP JUMPDEST PUSH1 0x0 PUSH1 0x20 DUP3 ADD SWAP1 POP DUP2 DUP2 SUB PUSH1 0x0 DUP4 ADD MSTORE PUSH2 0x289C DUP2 PUSH2 0x2593 JUMP JUMPDEST SWAP1 POP SWAP2 SWAP1 POP JUMP JUMPDEST PUSH1 0x0 PUSH1 0x20 DUP3 ADD SWAP1 POP DUP2 DUP2 SUB PUSH1 0x0 DUP4 ADD MSTORE PUSH2 0x28BC DUP2 PUSH2 0x25B6 JUMP JUMPDEST SWAP1 POP SWAP2 SWAP1 POP JUMP JUMPDEST PUSH1 0x0 PUSH1 0x20 DUP3 ADD SWAP1 POP PUSH2 0x28D8 PUSH1 0x0 DUP4 ADD DUP5 PUSH2 0x25E8 JUMP JUMPDEST SWAP3 SWAP2 POP POP JUMP JUMPDEST PUSH1 0x0 PUSH2 0x28E8 PUSH2 0x28F9 JUMP JUMPDEST SWAP1 POP PUSH2 0x28F4 DUP3 DUP3 PUSH2 0x2C15 JUMP JUMPDEST SWAP2 SWAP1 POP JUMP JUMPDEST PUSH1 0x0 PUSH1 0x40 MLOAD SWAP1 POP SWAP1 JUMP JUMPDEST PUSH1 0x0 PUSH8 0xFFFFFFFFFFFFFFFF DUP3 GT ISZERO PUSH2 0x291E JUMPI PUSH2 0x291D PUSH2 0x2D4D JUMP JUMPDEST JUMPDEST PUSH1 0x20 DUP3 MUL SWAP1 POP PUSH1 0x20 DUP2 ADD SWAP1 POP SWAP2 SWAP1 POP JUMP JUMPDEST PUSH1 0x0 PUSH8 0xFFFFFFFFFFFFFFFF DUP3 GT ISZERO PUSH2 0x294A JUMPI PUSH2 0x2949 PUSH2 0x2D4D JUMP JUMPDEST JUMPDEST PUSH1 0x20 DUP3 MUL SWAP1 POP PUSH1 0x20 DUP2 ADD SWAP1 POP SWAP2 SWAP1 POP JUMP JUMPDEST PUSH1 0x0 PUSH8 0xFFFFFFFFFFFFFFFF DUP3 GT ISZERO PUSH2 0x2976 JUMPI PUSH2 0x2975 PUSH2 0x2D4D JUMP JUMPDEST JUMPDEST PUSH2 0x297F DUP3 PUSH2 0x2D7C JUMP JUMPDEST SWAP1 POP PUSH1 0x20 DUP2 ADD SWAP1 POP SWAP2 SWAP1 POP JUMP JUMPDEST PUSH1 0x0 PUSH8 0xFFFFFFFFFFFFFFFF DUP3 GT ISZERO PUSH2 0x29A7 JUMPI PUSH2 0x29A6 PUSH2 0x2D4D JUMP JUMPDEST JUMPDEST PUSH2 0x29B0 DUP3 PUSH2 0x2D7C JUMP JUMPDEST SWAP1 POP PUSH1 0x20 DUP2 ADD SWAP1 POP SWAP2 SWAP1 POP JUMP JUMPDEST PUSH1 0x0 DUP2 SWAP1 POP PUSH1 0x20 DUP3 ADD SWAP1 POP SWAP2 SWAP1 POP JUMP JUMPDEST PUSH1 0x0 DUP2 SWAP1 POP PUSH1 0x20 DUP3 ADD SWAP1 POP SWAP2 SWAP1 POP JUMP JUMPDEST PUSH1 0x0 DUP2 MLOAD SWAP1 POP SWAP2 SWAP1 POP JUMP JUMPDEST PUSH1 0x0 DUP2 MLOAD SWAP1 POP SWAP2 SWAP1 POP JUMP JUMPDEST PUSH1 0x0 DUP2 MLOAD SWAP1 POP SWAP2 SWAP1 POP JUMP JUMPDEST PUSH1 0x0 DUP2 MLOAD SWAP1 POP SWAP2 SWAP1 POP JUMP JUMPDEST PUSH1 0x0 PUSH1 0x20 DUP3 ADD SWAP1 POP SWAP2 SWAP1 POP JUMP JUMPDEST PUSH1 0x0 PUSH1 0x20 DUP3 ADD SWAP1 POP SWAP2 SWAP1 POP JUMP JUMPDEST PUSH1 0x0 DUP3 DUP3 MSTORE PUSH1 0x20 DUP3 ADD SWAP1 POP SWAP3 SWAP2 POP POP JUMP JUMPDEST PUSH1 0x0 DUP3 DUP3 MSTORE PUSH1 0x20 DUP3 ADD SWAP1 POP SWAP3 SWAP2 POP POP JUMP JUMPDEST PUSH1 0x0 DUP3 DUP3 MSTORE PUSH1 0x20 DUP3 ADD SWAP1 POP SWAP3 SWAP2 POP POP JUMP JUMPDEST PUSH1 0x0 DUP3 DUP3 MSTORE PUSH1 0x20 DUP3 ADD SWAP1 POP SWAP3 SWAP2 POP POP JUMP JUMPDEST PUSH1 0x0 DUP2 SWAP1 POP SWAP3 SWAP2 POP POP JUMP JUMPDEST PUSH1 0x0 PUSH2 0x2A7D DUP3 PUSH2 0x2B97 JUMP JUMPDEST SWAP2 POP PUSH2 0x2A88 DUP4 PUSH2 0x2B97 JUMP JUMPDEST SWAP3 POP DUP3 PUSH32 0xFFFFFFFFFFFFFFFFFFFFFFFFFFFFFFFFFFFFFFFFFFFFFFFFFFFFFFFFFFFFFFFF SUB DUP3 GT ISZERO PUSH2 0x2ABD JUMPI PUSH2 0x2ABC PUSH2 0x2CC0 JUMP JUMPDEST JUMPDEST DUP3 DUP3 ADD SWAP1 POP SWAP3 SWAP2 POP POP JUMP JUMPDEST PUSH1 0x0 PUSH2 0x2AD3 DUP3 PUSH2 0x2B97 JUMP JUMPDEST SWAP2 POP PUSH2 0x2ADE DUP4 PUSH2 0x2B97 JUMP JUMPDEST SWAP3 POP DUP3 PUSH2 0x2AEE JUMPI PUSH2 0x2AED PUSH2 0x2CEF JUMP JUMPDEST JUMPDEST DUP3 DUP3 DIV SWAP1 POP SWAP3 SWAP2 POP POP JUMP JUMPDEST PUSH1 0x0 PUSH2 0x2B04 DUP3 PUSH2 0x2B97 JUMP JUMPDEST SWAP2 POP PUSH2 0x2B0F DUP4 PUSH2 0x2B97 JUMP JUMPDEST SWAP3 POP DUP3 DUP3 LT ISZERO PUSH2 0x2B22 JUMPI PUSH2 0x2B21 PUSH2 0x2CC0 JUMP JUMPDEST JUMPDEST DUP3 DUP3 SUB SWAP1 POP SWAP3 SWAP2 POP POP JUMP JUMPDEST PUSH1 0x0 PUSH2 0x2B38 DUP3 PUSH2 0x2B77 JUMP JUMPDEST SWAP1 POP SWAP2 SWAP1 POP JUMP JUMPDEST PUSH1 0x0 DUP2 ISZERO ISZERO SWAP1 POP SWAP2 SWAP1 POP JUMP JUMPDEST PUSH1 0x0 PUSH32 0xFFFFFFFF00000000000000000000000000000000000000000000000000000000 DUP3 AND SWAP1 POP SWAP2 SWAP1 POP JUMP JUMPDEST PUSH1 0x0 PUSH20 0xFFFFFFFFFFFFFFFFFFFFFFFFFFFFFFFFFFFFFFFF DUP3 AND SWAP1 POP SWAP2 SWAP1 POP JUMP JUMPDEST PUSH1 0x0 DUP2 SWAP1 POP SWAP2 SWAP1 POP JUMP JUMPDEST DUP3 DUP2 DUP4 CALLDATACOPY PUSH1 0x0 DUP4 DUP4 ADD MSTORE POP POP POP JUMP JUMPDEST PUSH1 0x0 JUMPDEST DUP4 DUP2 LT ISZERO PUSH2 0x2BCE JUMPI DUP1 DUP3 ADD MLOAD DUP2 DUP5 ADD MSTORE PUSH1 0x20 DUP2 ADD SWAP1 POP PUSH2 0x2BB3 JUMP JUMPDEST DUP4 DUP2 GT ISZERO PUSH2 0x2BDD JUMPI PUSH1 0x0 DUP5 DUP5 ADD MSTORE JUMPDEST POP POP POP POP JUMP JUMPDEST PUSH1 0x0 PUSH1 0x2 DUP3 DIV SWAP1 POP PUSH1 0x1 DUP3 AND DUP1 PUSH2 0x2BFB JUMPI PUSH1 0x7F DUP3 AND SWAP2 POP JUMPDEST PUSH1 0x20 DUP3 LT DUP2 EQ ISZERO PUSH2 0x2C0F JUMPI PUSH2 0x2C0E PUSH2 0x2D1E JUMP JUMPDEST JUMPDEST POP SWAP2 SWAP1 POP JUMP JUMPDEST PUSH2 0x2C1E DUP3 PUSH2 0x2D7C JUMP JUMPDEST DUP2 ADD DUP2 DUP2 LT PUSH8 0xFFFFFFFFFFFFFFFF DUP3 GT OR ISZERO PUSH2 0x2C3D JUMPI PUSH2 0x2C3C PUSH2 0x2D4D JUMP JUMPDEST JUMPDEST DUP1 PUSH1 0x40 MSTORE POP POP POP JUMP JUMPDEST PUSH1 0x0 PUSH2 0x2C51 DUP3 PUSH2 0x2B97 JUMP JUMPDEST SWAP2 POP PUSH32 0xFFFFFFFFFFFFFFFFFFFFFFFFFFFFFFFFFFFFFFFFFFFFFFFFFFFFFFFFFFFFFFFF DUP3 EQ ISZERO PUSH2 0x2C84 JUMPI PUSH2 0x2C83 PUSH2 0x2CC0 JUMP JUMPDEST JUMPDEST PUSH1 0x1 DUP3 ADD SWAP1 POP SWAP2 SWAP1 POP JUMP JUMPDEST PUSH1 0x0 PUSH2 0x2C9A DUP3 PUSH2 0x2B97 JUMP JUMPDEST SWAP2 POP PUSH2 0x2CA5 DUP4 PUSH2 0x2B97 JUMP JUMPDEST SWAP3 POP DUP3 PUSH2 0x2CB5 JUMPI PUSH2 0x2CB4 PUSH2 0x2CEF JUMP JUMPDEST JUMPDEST DUP3 DUP3 MOD SWAP1 POP SWAP3 SWAP2 POP POP JUMP JUMPDEST PUSH32 0x4E487B7100000000000000000000000000000000000000000000000000000000 PUSH1 0x0 MSTORE PUSH1 0x11 PUSH1 0x4 MSTORE PUSH1 0x24 PUSH1 0x0 REVERT JUMPDEST PUSH32 0x4E487B7100000000000000000000000000000000000000000000000000000000 PUSH1 0x0 MSTORE PUSH1 0x12 PUSH1 0x4 MSTORE PUSH1 0x24 PUSH1 0x0 REVERT JUMPDEST PUSH32 0x4E487B7100000000000000000000000000000000000000000000000000000000 PUSH1 0x0 MSTORE PUSH1 0x22 PUSH1 0x4 MSTORE PUSH1 0x24 PUSH1 0x0 REVERT JUMPDEST PUSH32 0x4E487B7100000000000000000000000000000000000000000000000000000000 PUSH1 0x0 MSTORE PUSH1 0x41 PUSH1 0x4 MSTORE PUSH1 0x24 PUSH1 0x0 REVERT JUMPDEST PUSH1 0x0 PUSH1 0x1F NOT PUSH1 0x1F DUP4 ADD AND SWAP1 POP SWAP2 SWAP1 POP JUMP JUMPDEST PUSH32 0x4552433732313A2063616C6C6572206973206E6F7420746F6B656E206F776E65 PUSH1 0x0 DUP3 ADD MSTORE PUSH32 0x72206F7220617070726F76656400000000000000000000000000000000000000 PUSH1 0x20 DUP3 ADD MSTORE POP JUMP JUMPDEST PUSH32 0x4552433732313A207472616E7366657220746F206E6F6E204552433732315265 PUSH1 0x0 DUP3 ADD MSTORE PUSH32 0x63656976657220696D706C656D656E7465720000000000000000000000000000 PUSH1 0x20 DUP3 ADD MSTORE POP JUMP JUMPDEST PUSH32 0x4552433732313A207472616E736665722066726F6D20696E636F727265637420 PUSH1 0x0 DUP3 ADD MSTORE PUSH32 0x6F776E6572000000000000000000000000000000000000000000000000000000 PUSH1 0x20 DUP3 ADD MSTORE POP JUMP JUMPDEST PUSH32 0x4552433732313A20746F6B656E20616C7265616479206D696E74656400000000 PUSH1 0x0 DUP3 ADD MSTORE POP JUMP JUMPDEST PUSH32 0x4552433732313A207472616E7366657220746F20746865207A65726F20616464 PUSH1 0x0 DUP3 ADD MSTORE PUSH32 0x7265737300000000000000000000000000000000000000000000000000000000 PUSH1 0x20 DUP3 ADD MSTORE POP JUMP JUMPDEST PUSH32 0x4552433732313A20617070726F766520746F2063616C6C657200000000000000 PUSH1 0x0 DUP3 ADD MSTORE POP JUMP JUMPDEST PUSH32 0x4552433732313A2061646472657373207A65726F206973206E6F742061207661 PUSH1 0x0 DUP3 ADD MSTORE PUSH32 0x6C6964206F776E65720000000000000000000000000000000000000000000000 PUSH1 0x20 DUP3 ADD MSTORE POP JUMP JUMPDEST PUSH32 0x45524337323155524953746F726167653A2055524920736574206F66206E6F6E PUSH1 0x0 DUP3 ADD MSTORE PUSH32 0x6578697374656E7420746F6B656E000000000000000000000000000000000000 PUSH1 0x20 DUP3 ADD MSTORE POP JUMP JUMPDEST PUSH32 0x4552433732313A206D696E7420746F20746865207A65726F2061646472657373 PUSH1 0x0 DUP3 ADD MSTORE POP JUMP JUMPDEST PUSH32 0x45524337323155524953746F726167653A2055524920717565727920666F7220 PUSH1 0x0 DUP3 ADD MSTORE PUSH32 0x6E6F6E6578697374656E7420746F6B656E000000000000000000000000000000 PUSH1 0x20 DUP3 ADD MSTORE POP JUMP JUMPDEST PUSH32 0x4552433732314D657461646174613A2055524920717565727920666F72206E6F PUSH1 0x0 DUP3 ADD MSTORE PUSH32 0x6E6578697374656E7420746F6B656E0000000000000000000000000000000000 PUSH1 0x20 DUP3 ADD MSTORE POP JUMP JUMPDEST PUSH32 0x4552433732313A20696E76616C696420746F6B656E2049440000000000000000 PUSH1 0x0 DUP3 ADD MSTORE POP JUMP JUMPDEST PUSH32 0x4552433732313A20617070726F76616C20746F2063757272656E74206F776E65 PUSH1 0x0 DUP3 ADD MSTORE PUSH32 0x7200000000000000000000000000000000000000000000000000000000000000 PUSH1 0x20 DUP3 ADD MSTORE POP JUMP JUMPDEST PUSH32 0x4552433732313A20617070726F76652063616C6C6572206973206E6F7420746F PUSH1 0x0 DUP3 ADD MSTORE PUSH32 0x6B656E206F776E6572206F7220617070726F76656420666F7220616C6C000000 PUSH1 0x20 DUP3 ADD MSTORE POP JUMP JUMPDEST PUSH2 0x3150 DUP2 PUSH2 0x2B2D JUMP JUMPDEST DUP2 EQ PUSH2 0x315B JUMPI PUSH1 0x0 DUP1 REVERT JUMPDEST POP JUMP JUMPDEST PUSH2 0x3167 DUP2 PUSH2 0x2B3F JUMP JUMPDEST DUP2 EQ PUSH2 0x3172 JUMPI PUSH1 0x0 DUP1 REVERT JUMPDEST POP JUMP JUMPDEST PUSH2 0x317E DUP2 PUSH2 0x2B4B JUMP JUMPDEST DUP2 EQ PUSH2 0x3189 JUMPI PUSH1 0x0 DUP1 REVERT JUMPDEST POP JUMP JUMPDEST PUSH2 0x3195 DUP2 PUSH2 0x2B97 JUMP JUMPDEST DUP2 EQ PUSH2 0x31A0 JUMPI PUSH1 0x0 DUP1 REVERT JUMPDEST POP JUMP INVALID LOG2 PUSH5 0x6970667358 0x22 SLT KECCAK256 STATICCALL PUSH6 0xEA3CE42F9A75 0xAF RETURNDATASIZE 0xA5 CALLDATASIZE 0xC9 0xAD 0xC7 EQ PUSH3 0x424929 SLT CALLDATASIZE CREATE2 PUSH3 0xCD1D75 DIFFICULTY 0x25 0xDD 0xB2 BLOCKHASH PUSH5 0x736F6C6343 STOP ADDMOD DIV STOP CALLER "
				},
				"gasEstimates": {
					"creation": {
						"codeDepositCost": "2552200",
						"executionCost": "infinite",
						"totalCost": "infinite"
					},
					"external": {
						"_tokenURI(uint256)": "2096",
						"approve(address,uint256)": "infinite",
						"balanceOf(address)": "1624",
						"collaboratotOf(uint256)": "infinite",
						"collaboratotPercentageOf(uint256)": "infinite",
						"getApproved(uint256)": "2657",
						"isApprovedForAll(address,address)": "infinite",
						"mint(address,address[],uint256[],string)": "infinite",
						"name()": "infinite",
						"ownerOf(uint256)": "1682",
						"safeTransferFrom(address,address,uint256)": "infinite",
						"safeTransferFrom(address,address,uint256,bytes)": "infinite",
						"setApprovalForAll(address,bool)": "infinite",
						"supportsInterface(bytes4)": "797",
						"symbol()": "infinite",
						"tokenURI(uint256)": "infinite",
						"transferFrom(address,address,uint256)": "infinite"
					},
					"internal": {
						"_afterTokenTransfer(address,address,uint256)": "15",
						"_approve(address,uint256)": "infinite",
						"_baseURI()": "infinite",
						"_beforeTokenTransfer(address,address,uint256)": "15",
						"_burn(uint256)": "infinite",
						"_checkOnERC721Received(address,address,uint256,bytes memory)": "infinite",
						"_exists(uint256)": "969",
						"_isApprovedOrOwner(address,uint256)": "infinite",
						"_mint(address,address[] memory,uint256[] memory,uint256)": "infinite",
						"_requireMinted(uint256)": "infinite",
						"_safeMint(address,address[] memory,uint256[] memory,uint256)": "infinite",
						"_safeMint(address,address[] memory,uint256[] memory,uint256,bytes memory)": "infinite",
						"_safeTransfer(address,address,uint256,bytes memory)": "infinite",
						"_setApprovalForAll(address,address,bool)": "infinite",
						"_setTokenURI(uint256,string memory)": "infinite",
						"_transfer(address,address,uint256)": "infinite"
					}
				},
				"methodIdentifiers": {
					"_tokenURI(uint256)": "8d17e712",
					"approve(address,uint256)": "095ea7b3",
					"balanceOf(address)": "70a08231",
					"collaboratotOf(uint256)": "52e04825",
					"collaboratotPercentageOf(uint256)": "ee48cda2",
					"getApproved(uint256)": "081812fc",
					"isApprovedForAll(address,address)": "e985e9c5",
					"mint(address,address[],uint256[],string)": "381568d8",
					"name()": "06fdde03",
					"ownerOf(uint256)": "6352211e",
					"safeTransferFrom(address,address,uint256)": "42842e0e",
					"safeTransferFrom(address,address,uint256,bytes)": "b88d4fde",
					"setApprovalForAll(address,bool)": "a22cb465",
					"supportsInterface(bytes4)": "01ffc9a7",
					"symbol()": "95d89b41",
					"tokenURI(uint256)": "c87b56dd",
					"transferFrom(address,address,uint256)": "23b872dd"
				}
			},
			"storageLayout": {
				"storage": [
					{
						"astId": 821,
						"contract": "contracts/nft.sol:nft",
						"label": "_tokenIds",
						"offset": 0,
						"slot": "0",
						"type": "t_struct(Counter)483_storage"
					},
					{
						"astId": 823,
						"contract": "contracts/nft.sol:nft",
						"label": "_name",
						"offset": 0,
						"slot": "1",
						"type": "t_string_storage"
					},
					{
						"astId": 825,
						"contract": "contracts/nft.sol:nft",
						"label": "_symbol",
						"offset": 0,
						"slot": "2",
						"type": "t_string_storage"
					},
					{
						"astId": 829,
						"contract": "contracts/nft.sol:nft",
						"label": "_owners",
						"offset": 0,
						"slot": "3",
						"type": "t_mapping(t_uint256,t_address)"
					},
					{
						"astId": 834,
						"contract": "contracts/nft.sol:nft",
						"label": "_collaborators",
						"offset": 0,
						"slot": "4",
						"type": "t_mapping(t_uint256,t_array(t_address)dyn_storage)"
					},
					{
						"astId": 839,
						"contract": "contracts/nft.sol:nft",
						"label": "_collaboratorsPercentage",
						"offset": 0,
						"slot": "5",
						"type": "t_mapping(t_uint256,t_array(t_uint256)dyn_storage)"
					},
					{
						"astId": 843,
						"contract": "contracts/nft.sol:nft",
						"label": "_balances",
						"offset": 0,
						"slot": "6",
						"type": "t_mapping(t_address,t_uint256)"
					},
					{
						"astId": 847,
						"contract": "contracts/nft.sol:nft",
						"label": "_tokenApprovals",
						"offset": 0,
						"slot": "7",
						"type": "t_mapping(t_uint256,t_address)"
					},
					{
						"astId": 853,
						"contract": "contracts/nft.sol:nft",
						"label": "_operatorApprovals",
						"offset": 0,
						"slot": "8",
						"type": "t_mapping(t_address,t_mapping(t_address,t_bool))"
					},
					{
						"astId": 857,
						"contract": "contracts/nft.sol:nft",
						"label": "_tokenURIs",
						"offset": 0,
						"slot": "9",
						"type": "t_mapping(t_uint256,t_string_storage)"
					}
				],
				"types": {
					"t_address": {
						"encoding": "inplace",
						"label": "address",
						"numberOfBytes": "20"
					},
					"t_array(t_address)dyn_storage": {
						"base": "t_address",
						"encoding": "dynamic_array",
						"label": "address[]",
						"numberOfBytes": "32"
					},
					"t_array(t_uint256)dyn_storage": {
						"base": "t_uint256",
						"encoding": "dynamic_array",
						"label": "uint256[]",
						"numberOfBytes": "32"
					},
					"t_bool": {
						"encoding": "inplace",
						"label": "bool",
						"numberOfBytes": "1"
					},
					"t_mapping(t_address,t_bool)": {
						"encoding": "mapping",
						"key": "t_address",
						"label": "mapping(address => bool)",
						"numberOfBytes": "32",
						"value": "t_bool"
					},
					"t_mapping(t_address,t_mapping(t_address,t_bool))": {
						"encoding": "mapping",
						"key": "t_address",
						"label": "mapping(address => mapping(address => bool))",
						"numberOfBytes": "32",
						"value": "t_mapping(t_address,t_bool)"
					},
					"t_mapping(t_address,t_uint256)": {
						"encoding": "mapping",
						"key": "t_address",
						"label": "mapping(address => uint256)",
						"numberOfBytes": "32",
						"value": "t_uint256"
					},
					"t_mapping(t_uint256,t_address)": {
						"encoding": "mapping",
						"key": "t_uint256",
						"label": "mapping(uint256 => address)",
						"numberOfBytes": "32",
						"value": "t_address"
					},
					"t_mapping(t_uint256,t_array(t_address)dyn_storage)": {
						"encoding": "mapping",
						"key": "t_uint256",
						"label": "mapping(uint256 => address[])",
						"numberOfBytes": "32",
						"value": "t_array(t_address)dyn_storage"
					},
					"t_mapping(t_uint256,t_array(t_uint256)dyn_storage)": {
						"encoding": "mapping",
						"key": "t_uint256",
						"label": "mapping(uint256 => uint256[])",
						"numberOfBytes": "32",
						"value": "t_array(t_uint256)dyn_storage"
					},
					"t_mapping(t_uint256,t_string_storage)": {
						"encoding": "mapping",
						"key": "t_uint256",
						"label": "mapping(uint256 => string)",
						"numberOfBytes": "32",
						"value": "t_string_storage"
					},
					"t_string_storage": {
						"encoding": "bytes",
						"label": "string",
						"numberOfBytes": "32"
					},
					"t_struct(Counter)483_storage": {
						"encoding": "inplace",
						"label": "struct Counters.Counter",
						"members": [
							{
								"astId": 482,
								"contract": "contracts/nft.sol:nft",
								"label": "_value",
								"offset": 0,
								"slot": "0",
								"type": "t_uint256"
							}
						],
						"numberOfBytes": "32"
					},
					"t_uint256": {
						"encoding": "inplace",
						"label": "uint256",
						"numberOfBytes": "32"
					}
				}
			},
			"userdoc": {
				"kind": "user",
				"methods": {},
				"version": 1
			}
		}
	}
}