{
	"contracts/nft.sol": {
		"nft": {
			"abi": [
				{
					"inputs": [
						{
							"internalType": "string",
							"name": "name_",
							"type": "string"
						},
						{
							"internalType": "string",
							"name": "symbol_",
							"type": "string"
						}
					],
					"stateMutability": "nonpayable",
					"type": "constructor"
				},
				{
					"anonymous": false,
					"inputs": [
						{
							"indexed": true,
							"internalType": "address",
							"name": "owner",
							"type": "address"
						},
						{
							"indexed": true,
							"internalType": "address",
							"name": "approved",
							"type": "address"
						},
						{
							"indexed": true,
							"internalType": "uint256",
							"name": "tokenId",
							"type": "uint256"
						}
					],
					"name": "Approval",
					"type": "event"
				},
				{
					"anonymous": false,
					"inputs": [
						{
							"indexed": true,
							"internalType": "address",
							"name": "owner",
							"type": "address"
						},
						{
							"indexed": true,
							"internalType": "address",
							"name": "operator",
							"type": "address"
						},
						{
							"indexed": false,
							"internalType": "bool",
							"name": "approved",
							"type": "bool"
						}
					],
					"name": "ApprovalForAll",
					"type": "event"
				},
				{
					"anonymous": false,
					"inputs": [
						{
							"indexed": true,
							"internalType": "address",
							"name": "from",
							"type": "address"
						},
						{
							"indexed": true,
							"internalType": "address",
							"name": "to",
							"type": "address"
						},
						{
							"indexed": true,
							"internalType": "uint256",
							"name": "tokenId",
							"type": "uint256"
						}
					],
					"name": "Transfer",
					"type": "event"
				},
				{
					"inputs": [
						{
							"internalType": "uint256",
							"name": "tokenId",
							"type": "uint256"
						}
					],
					"name": "_tokenURI",
					"outputs": [
						{
							"internalType": "string",
							"name": "",
							"type": "string"
						}
					],
					"stateMutability": "view",
					"type": "function"
				},
				{
					"inputs": [
						{
							"internalType": "address",
							"name": "to",
							"type": "address"
						},
						{
							"internalType": "uint256",
							"name": "tokenId",
							"type": "uint256"
						}
					],
					"name": "approve",
					"outputs": [],
					"stateMutability": "nonpayable",
					"type": "function"
				},
				{
					"inputs": [
						{
							"internalType": "address",
							"name": "owner",
							"type": "address"
						}
					],
					"name": "balanceOf",
					"outputs": [
						{
							"internalType": "uint256",
							"name": "",
							"type": "uint256"
						}
					],
					"stateMutability": "view",
					"type": "function"
				},
				{
					"inputs": [
						{
							"internalType": "uint256",
							"name": "tokenId",
							"type": "uint256"
						}
					],
					"name": "collaboratotOf",
					"outputs": [
						{
							"internalType": "address[]",
							"name": "",
							"type": "address[]"
						}
					],
					"stateMutability": "view",
					"type": "function"
				},
				{
					"inputs": [
						{
							"internalType": "uint256",
							"name": "tokenId",
							"type": "uint256"
						}
					],
					"name": "collaboratotPercentageOf",
					"outputs": [
						{
							"internalType": "uint256[]",
							"name": "",
							"type": "uint256[]"
						}
					],
					"stateMutability": "view",
					"type": "function"
				},
				{
					"inputs": [
						{
							"internalType": "uint256",
							"name": "tokenId",
							"type": "uint256"
						}
					],
					"name": "getApproved",
					"outputs": [
						{
							"internalType": "address",
							"name": "",
							"type": "address"
						}
					],
					"stateMutability": "view",
					"type": "function"
				},
				{
					"inputs": [],
					"name": "getTokenCurrent",
					"outputs": [
						{
							"internalType": "uint256",
							"name": "",
							"type": "uint256"
						}
					],
					"stateMutability": "view",
					"type": "function"
				},
				{
					"inputs": [
						{
							"internalType": "address",
							"name": "owner",
							"type": "address"
						},
						{
							"internalType": "address",
							"name": "operator",
							"type": "address"
						}
					],
					"name": "isApprovedForAll",
					"outputs": [
						{
							"internalType": "bool",
							"name": "",
							"type": "bool"
						}
					],
					"stateMutability": "view",
					"type": "function"
				},
				{
					"inputs": [
						{
							"internalType": "address",
							"name": "to",
							"type": "address"
						},
						{
							"internalType": "address[]",
							"name": "collaborator",
							"type": "address[]"
						},
						{
							"internalType": "uint256[]",
							"name": "collaboratorPercent",
							"type": "uint256[]"
						},
						{
							"internalType": "string",
							"name": "uri",
							"type": "string"
						}
					],
					"name": "mint",
					"outputs": [],
					"stateMutability": "nonpayable",
					"type": "function"
				},
				{
					"inputs": [],
					"name": "name",
					"outputs": [
						{
							"internalType": "string",
							"name": "",
							"type": "string"
						}
					],
					"stateMutability": "view",
					"type": "function"
				},
				{
					"inputs": [
						{
							"internalType": "uint256",
							"name": "tokenId",
							"type": "uint256"
						}
					],
					"name": "ownerOf",
					"outputs": [
						{
							"internalType": "address",
							"name": "",
							"type": "address"
						}
					],
					"stateMutability": "view",
					"type": "function"
				},
				{
					"inputs": [
						{
							"internalType": "address",
							"name": "from",
							"type": "address"
						},
						{
							"internalType": "address",
							"name": "to",
							"type": "address"
						},
						{
							"internalType": "uint256",
							"name": "tokenId",
							"type": "uint256"
						}
					],
					"name": "safeTransferFrom",
					"outputs": [],
					"stateMutability": "nonpayable",
					"type": "function"
				},
				{
					"inputs": [
						{
							"internalType": "address",
							"name": "from",
							"type": "address"
						},
						{
							"internalType": "address",
							"name": "to",
							"type": "address"
						},
						{
							"internalType": "uint256",
							"name": "tokenId",
							"type": "uint256"
						},
						{
							"internalType": "bytes",
							"name": "data",
							"type": "bytes"
						}
					],
					"name": "safeTransferFrom",
					"outputs": [],
					"stateMutability": "nonpayable",
					"type": "function"
				},
				{
					"inputs": [
						{
							"internalType": "address",
							"name": "operator",
							"type": "address"
						},
						{
							"internalType": "bool",
							"name": "approved",
							"type": "bool"
						}
					],
					"name": "setApprovalForAll",
					"outputs": [],
					"stateMutability": "nonpayable",
					"type": "function"
				},
				{
					"inputs": [
						{
							"internalType": "bytes4",
							"name": "interfaceId",
							"type": "bytes4"
						}
					],
					"name": "supportsInterface",
					"outputs": [
						{
							"internalType": "bool",
							"name": "",
							"type": "bool"
						}
					],
					"stateMutability": "view",
					"type": "function"
				},
				{
					"inputs": [],
					"name": "symbol",
					"outputs": [
						{
							"internalType": "string",
							"name": "",
							"type": "string"
						}
					],
					"stateMutability": "view",
					"type": "function"
				},
				{
					"inputs": [
						{
							"internalType": "uint256",
							"name": "tokenId",
							"type": "uint256"
						}
					],
					"name": "tokenURI",
					"outputs": [
						{
							"internalType": "string",
							"name": "",
							"type": "string"
						}
					],
					"stateMutability": "view",
					"type": "function"
				},
				{
					"inputs": [
						{
							"internalType": "address",
							"name": "from",
							"type": "address"
						},
						{
							"internalType": "address",
							"name": "to",
							"type": "address"
						},
						{
							"internalType": "uint256",
							"name": "tokenId",
							"type": "uint256"
						}
					],
					"name": "transferFrom",
					"outputs": [],
					"stateMutability": "nonpayable",
					"type": "function"
				}
			],
			"devdoc": {
				"kind": "dev",
				"methods": {
					"approve(address,uint256)": {
						"details": "Gives permission to `to` to transfer `tokenId` token to another account. The approval is cleared when the token is transferred. Only a single account can be approved at a time, so approving the zero address clears previous approvals. Requirements: - The caller must own the token or be an approved operator. - `tokenId` must exist. Emits an {Approval} event."
					},
					"balanceOf(address)": {
						"details": "Returns the number of tokens in ``owner``'s account."
					},
					"getApproved(uint256)": {
						"details": "Returns the account approved for `tokenId` token. Requirements: - `tokenId` must exist."
					},
					"isApprovedForAll(address,address)": {
						"details": "Returns if the `operator` is allowed to manage all of the assets of `owner`. See {setApprovalForAll}"
					},
					"name()": {
						"details": "Returns the token collection name."
					},
					"ownerOf(uint256)": {
						"details": "Returns the owner of the `tokenId` token. Requirements: - `tokenId` must exist."
					},
					"safeTransferFrom(address,address,uint256)": {
						"details": "Safely transfers `tokenId` token from `from` to `to`, checking first that contract recipients are aware of the ERC721 protocol to prevent tokens from being forever locked. Requirements: - `from` cannot be the zero address. - `to` cannot be the zero address. - `tokenId` token must exist and be owned by `from`. - If the caller is not `from`, it must be have been allowed to move this token by either {approve} or {setApprovalForAll}. - If `to` refers to a smart contract, it must implement {IERC721Receiver-onERC721Received}, which is called upon a safe transfer. Emits a {Transfer} event."
					},
					"safeTransferFrom(address,address,uint256,bytes)": {
						"details": "Safely transfers `tokenId` token from `from` to `to`. Requirements: - `from` cannot be the zero address. - `to` cannot be the zero address. - `tokenId` token must exist and be owned by `from`. - If the caller is not `from`, it must be approved to move this token by either {approve} or {setApprovalForAll}. - If `to` refers to a smart contract, it must implement {IERC721Receiver-onERC721Received}, which is called upon a safe transfer. Emits a {Transfer} event."
					},
					"symbol()": {
						"details": "Returns the token collection symbol."
					},
					"tokenURI(uint256)": {
						"details": "Returns the Uniform Resource Identifier (URI) for `tokenId` token."
					},
					"transferFrom(address,address,uint256)": {
						"details": "Transfers `tokenId` token from `from` to `to`. WARNING: Usage of this method is discouraged, use {safeTransferFrom} whenever possible. Requirements: - `from` cannot be the zero address. - `to` cannot be the zero address. - `tokenId` token must be owned by `from`. - If the caller is not `from`, it must be approved to move this token by either {approve} or {setApprovalForAll}. Emits a {Transfer} event."
					}
				},
				"version": 1
			},
			"evm": {
				"assembly": "    /* \"contracts/nft.sol\":677:11558  contract nft is Context, ERC165, IERC721, IERC721Metadata {\r... */\n  mstore(0x40, 0x80)\n    /* \"contracts/nft.sol\":1449:1565  constructor(string memory name_, string memory symbol_) {\r... */\n  callvalue\n  dup1\n  iszero\n  tag_1\n  jumpi\n  0x00\n  dup1\n  revert\ntag_1:\n  pop\n  mload(0x40)\n  sub(codesize, bytecodeSize)\n  dup1\n  bytecodeSize\n  dup4\n  codecopy\n  dup2\n  dup2\n  add\n  0x40\n  mstore\n  dup2\n  add\n  swap1\n  tag_2\n  swap2\n  swap1\n  tag_3\n  jump\t// in\ntag_2:\n    /* \"contracts/nft.sol\":1524:1529  name_ */\n  dup2\n    /* \"contracts/nft.sol\":1516:1521  _name */\n  0x01\n    /* \"contracts/nft.sol\":1516:1529  _name = name_ */\n  swap1\n  dup1\n  mload\n  swap1\n  0x20\n  add\n  swap1\n  tag_6\n  swap3\n  swap2\n  swap1\n  tag_7\n  jump\t// in\ntag_6:\n  pop\n    /* \"contracts/nft.sol\":1550:1557  symbol_ */\n  dup1\n    /* \"contracts/nft.sol\":1540:1547  _symbol */\n  0x02\n    /* \"contracts/nft.sol\":1540:1557  _symbol = symbol_ */\n  swap1\n  dup1\n  mload\n  swap1\n  0x20\n  add\n  swap1\n  tag_8\n  swap3\n  swap2\n  swap1\n  tag_7\n  jump\t// in\ntag_8:\n  pop\n    /* \"contracts/nft.sol\":1449:1565  constructor(string memory name_, string memory symbol_) {\r... */\n  pop\n  pop\n    /* \"contracts/nft.sol\":677:11558  contract nft is Context, ERC165, IERC721, IERC721Metadata {\r... */\n  jump(tag_9)\ntag_7:\n  dup3\n  dup1\n  sload\n  tag_10\n  swap1\n  tag_11\n  jump\t// in\ntag_10:\n  swap1\n  0x00\n  mstore\n  keccak256(0x00, 0x20)\n  swap1\n  0x1f\n  add\n  0x20\n  swap1\n  div\n  dup2\n  add\n  swap3\n  dup3\n  tag_13\n  jumpi\n  0x00\n  dup6\n  sstore\n  jump(tag_12)\ntag_13:\n  dup3\n  0x1f\n  lt\n  tag_14\n  jumpi\n  dup1\n  mload\n  not(0xff)\n  and\n  dup4\n  dup1\n  add\n  or\n  dup6\n  sstore\n  jump(tag_12)\ntag_14:\n  dup3\n  dup1\n  add\n  0x01\n  add\n  dup6\n  sstore\n  dup3\n  iszero\n  tag_12\n  jumpi\n  swap2\n  dup3\n  add\ntag_15:\n  dup3\n  dup2\n  gt\n  iszero\n  tag_16\n  jumpi\n  dup3\n  mload\n  dup3\n  sstore\n  swap2\n  0x20\n  add\n  swap2\n  swap1\n  0x01\n  add\n  swap1\n  jump(tag_15)\ntag_16:\ntag_12:\n  pop\n  swap1\n  pop\n  tag_17\n  swap2\n  swap1\n  tag_18\n  jump\t// in\ntag_17:\n  pop\n  swap1\n  jump\t// out\ntag_18:\ntag_19:\n  dup1\n  dup3\n  gt\n  iszero\n  tag_20\n  jumpi\n  0x00\n  dup2\n  0x00\n  swap1\n  sstore\n  pop\n  0x01\n  add\n  jump(tag_19)\ntag_20:\n  pop\n  swap1\n  jump\t// out\n    /* \"#utility.yul\":7:361   */\ntag_22:\n    /* \"#utility.yul\":96:101   */\n  0x00\n    /* \"#utility.yul\":121:187   */\n  tag_24\n    /* \"#utility.yul\":137:186   */\n  tag_25\n    /* \"#utility.yul\":179:185   */\n  dup5\n    /* \"#utility.yul\":137:186   */\n  tag_26\n  jump\t// in\ntag_25:\n    /* \"#utility.yul\":121:187   */\n  tag_27\n  jump\t// in\ntag_24:\n    /* \"#utility.yul\":112:187   */\n  swap1\n  pop\n    /* \"#utility.yul\":210:216   */\n  dup3\n    /* \"#utility.yul\":203:208   */\n  dup2\n    /* \"#utility.yul\":196:217   */\n  mstore\n    /* \"#utility.yul\":248:252   */\n  0x20\n    /* \"#utility.yul\":241:246   */\n  dup2\n    /* \"#utility.yul\":237:253   */\n  add\n    /* \"#utility.yul\":286:289   */\n  dup5\n    /* \"#utility.yul\":277:283   */\n  dup5\n    /* \"#utility.yul\":272:275   */\n  dup5\n    /* \"#utility.yul\":268:284   */\n  add\n    /* \"#utility.yul\":265:290   */\n  gt\n    /* \"#utility.yul\":262:264   */\n  iszero\n  tag_28\n  jumpi\n    /* \"#utility.yul\":303:304   */\n  0x00\n    /* \"#utility.yul\":300:301   */\n  dup1\n    /* \"#utility.yul\":293:305   */\n  revert\n    /* \"#utility.yul\":262:264   */\ntag_28:\n    /* \"#utility.yul\":316:355   */\n  tag_29\n    /* \"#utility.yul\":348:354   */\n  dup5\n    /* \"#utility.yul\":343:346   */\n  dup3\n    /* \"#utility.yul\":338:341   */\n  dup6\n    /* \"#utility.yul\":316:355   */\n  tag_30\n  jump\t// in\ntag_29:\n    /* \"#utility.yul\":102:361   */\n  pop\n  swap4\n  swap3\n  pop\n  pop\n  pop\n  jump\t// out\n    /* \"#utility.yul\":381:669   */\ntag_31:\n    /* \"#utility.yul\":448:453   */\n  0x00\n    /* \"#utility.yul\":497:500   */\n  dup3\n    /* \"#utility.yul\":490:494   */\n  0x1f\n    /* \"#utility.yul\":482:488   */\n  dup4\n    /* \"#utility.yul\":478:495   */\n  add\n    /* \"#utility.yul\":474:501   */\n  slt\n    /* \"#utility.yul\":464:466   */\n  tag_33\n  jumpi\n    /* \"#utility.yul\":515:516   */\n  0x00\n    /* \"#utility.yul\":512:513   */\n  dup1\n    /* \"#utility.yul\":505:517   */\n  revert\n    /* \"#utility.yul\":464:466   */\ntag_33:\n    /* \"#utility.yul\":548:554   */\n  dup2\n    /* \"#utility.yul\":542:555   */\n  mload\n    /* \"#utility.yul\":573:663   */\n  tag_34\n    /* \"#utility.yul\":659:662   */\n  dup5\n    /* \"#utility.yul\":651:657   */\n  dup3\n    /* \"#utility.yul\":644:648   */\n  0x20\n    /* \"#utility.yul\":636:642   */\n  dup7\n    /* \"#utility.yul\":632:649   */\n  add\n    /* \"#utility.yul\":573:663   */\n  tag_22\n  jump\t// in\ntag_34:\n    /* \"#utility.yul\":564:663   */\n  swap2\n  pop\n    /* \"#utility.yul\":454:669   */\n  pop\n  swap3\n  swap2\n  pop\n  pop\n  jump\t// out\n    /* \"#utility.yul\":675:1327   */\ntag_3:\n    /* \"#utility.yul\":774:780   */\n  0x00\n    /* \"#utility.yul\":782:788   */\n  dup1\n    /* \"#utility.yul\":831:833   */\n  0x40\n    /* \"#utility.yul\":819:828   */\n  dup4\n    /* \"#utility.yul\":810:817   */\n  dup6\n    /* \"#utility.yul\":806:829   */\n  sub\n    /* \"#utility.yul\":802:834   */\n  slt\n    /* \"#utility.yul\":799:801   */\n  iszero\n  tag_36\n  jumpi\n    /* \"#utility.yul\":847:848   */\n  0x00\n    /* \"#utility.yul\":844:845   */\n  dup1\n    /* \"#utility.yul\":837:849   */\n  revert\n    /* \"#utility.yul\":799:801   */\ntag_36:\n    /* \"#utility.yul\":911:912   */\n  0x00\n    /* \"#utility.yul\":900:909   */\n  dup4\n    /* \"#utility.yul\":896:913   */\n  add\n    /* \"#utility.yul\":890:914   */\n  mload\n    /* \"#utility.yul\":941:959   */\n  0xffffffffffffffff\n    /* \"#utility.yul\":933:939   */\n  dup2\n    /* \"#utility.yul\":930:960   */\n  gt\n    /* \"#utility.yul\":927:929   */\n  iszero\n  tag_37\n  jumpi\n    /* \"#utility.yul\":973:974   */\n  0x00\n    /* \"#utility.yul\":970:971   */\n  dup1\n    /* \"#utility.yul\":963:975   */\n  revert\n    /* \"#utility.yul\":927:929   */\ntag_37:\n    /* \"#utility.yul\":1001:1075   */\n  tag_38\n    /* \"#utility.yul\":1067:1074   */\n  dup6\n    /* \"#utility.yul\":1058:1064   */\n  dup3\n    /* \"#utility.yul\":1047:1056   */\n  dup7\n    /* \"#utility.yul\":1043:1065   */\n  add\n    /* \"#utility.yul\":1001:1075   */\n  tag_31\n  jump\t// in\ntag_38:\n    /* \"#utility.yul\":991:1075   */\n  swap3\n  pop\n    /* \"#utility.yul\":861:1085   */\n  pop\n    /* \"#utility.yul\":1145:1147   */\n  0x20\n    /* \"#utility.yul\":1134:1143   */\n  dup4\n    /* \"#utility.yul\":1130:1148   */\n  add\n    /* \"#utility.yul\":1124:1149   */\n  mload\n    /* \"#utility.yul\":1176:1194   */\n  0xffffffffffffffff\n    /* \"#utility.yul\":1168:1174   */\n  dup2\n    /* \"#utility.yul\":1165:1195   */\n  gt\n    /* \"#utility.yul\":1162:1164   */\n  iszero\n  tag_39\n  jumpi\n    /* \"#utility.yul\":1208:1209   */\n  0x00\n    /* \"#utility.yul\":1205:1206   */\n  dup1\n    /* \"#utility.yul\":1198:1210   */\n  revert\n    /* \"#utility.yul\":1162:1164   */\ntag_39:\n    /* \"#utility.yul\":1236:1310   */\n  tag_40\n    /* \"#utility.yul\":1302:1309   */\n  dup6\n    /* \"#utility.yul\":1293:1299   */\n  dup3\n    /* \"#utility.yul\":1282:1291   */\n  dup7\n    /* \"#utility.yul\":1278:1300   */\n  add\n    /* \"#utility.yul\":1236:1310   */\n  tag_31\n  jump\t// in\ntag_40:\n    /* \"#utility.yul\":1226:1310   */\n  swap2\n  pop\n    /* \"#utility.yul\":1095:1320   */\n  pop\n    /* \"#utility.yul\":789:1327   */\n  swap3\n  pop\n  swap3\n  swap1\n  pop\n  jump\t// out\n    /* \"#utility.yul\":1333:1462   */\ntag_27:\n    /* \"#utility.yul\":1367:1373   */\n  0x00\n    /* \"#utility.yul\":1394:1414   */\n  tag_42\n  tag_43\n  jump\t// in\ntag_42:\n    /* \"#utility.yul\":1384:1414   */\n  swap1\n  pop\n    /* \"#utility.yul\":1423:1456   */\n  tag_44\n    /* \"#utility.yul\":1451:1455   */\n  dup3\n    /* \"#utility.yul\":1443:1449   */\n  dup3\n    /* \"#utility.yul\":1423:1456   */\n  tag_45\n  jump\t// in\ntag_44:\n    /* \"#utility.yul\":1374:1462   */\n  swap2\n  swap1\n  pop\n  jump\t// out\n    /* \"#utility.yul\":1468:1543   */\ntag_43:\n    /* \"#utility.yul\":1501:1507   */\n  0x00\n    /* \"#utility.yul\":1534:1536   */\n  0x40\n    /* \"#utility.yul\":1528:1537   */\n  mload\n    /* \"#utility.yul\":1518:1537   */\n  swap1\n  pop\n    /* \"#utility.yul\":1508:1543   */\n  swap1\n  jump\t// out\n    /* \"#utility.yul\":1549:1857   */\ntag_26:\n    /* \"#utility.yul\":1611:1615   */\n  0x00\n    /* \"#utility.yul\":1701:1719   */\n  0xffffffffffffffff\n    /* \"#utility.yul\":1693:1699   */\n  dup3\n    /* \"#utility.yul\":1690:1720   */\n  gt\n    /* \"#utility.yul\":1687:1689   */\n  iszero\n  tag_48\n  jumpi\n    /* \"#utility.yul\":1723:1741   */\n  tag_49\n  tag_50\n  jump\t// in\ntag_49:\n    /* \"#utility.yul\":1687:1689   */\ntag_48:\n    /* \"#utility.yul\":1761:1790   */\n  tag_51\n    /* \"#utility.yul\":1783:1789   */\n  dup3\n    /* \"#utility.yul\":1761:1790   */\n  tag_52\n  jump\t// in\ntag_51:\n    /* \"#utility.yul\":1753:1790   */\n  swap1\n  pop\n    /* \"#utility.yul\":1845:1849   */\n  0x20\n    /* \"#utility.yul\":1839:1843   */\n  dup2\n    /* \"#utility.yul\":1835:1850   */\n  add\n    /* \"#utility.yul\":1827:1850   */\n  swap1\n  pop\n    /* \"#utility.yul\":1616:1857   */\n  swap2\n  swap1\n  pop\n  jump\t// out\n    /* \"#utility.yul\":1863:2170   */\ntag_30:\n    /* \"#utility.yul\":1931:1932   */\n  0x00\n    /* \"#utility.yul\":1941:2054   */\ntag_54:\n    /* \"#utility.yul\":1955:1961   */\n  dup4\n    /* \"#utility.yul\":1952:1953   */\n  dup2\n    /* \"#utility.yul\":1949:1962   */\n  lt\n    /* \"#utility.yul\":1941:2054   */\n  iszero\n  tag_56\n  jumpi\n    /* \"#utility.yul\":2040:2041   */\n  dup1\n    /* \"#utility.yul\":2035:2038   */\n  dup3\n    /* \"#utility.yul\":2031:2042   */\n  add\n    /* \"#utility.yul\":2025:2043   */\n  mload\n    /* \"#utility.yul\":2021:2022   */\n  dup2\n    /* \"#utility.yul\":2016:2019   */\n  dup5\n    /* \"#utility.yul\":2012:2023   */\n  add\n    /* \"#utility.yul\":2005:2044   */\n  mstore\n    /* \"#utility.yul\":1977:1979   */\n  0x20\n    /* \"#utility.yul\":1974:1975   */\n  dup2\n    /* \"#utility.yul\":1970:1980   */\n  add\n    /* \"#utility.yul\":1965:1980   */\n  swap1\n  pop\n    /* \"#utility.yul\":1941:2054   */\n  jump(tag_54)\ntag_56:\n    /* \"#utility.yul\":2072:2078   */\n  dup4\n    /* \"#utility.yul\":2069:2070   */\n  dup2\n    /* \"#utility.yul\":2066:2079   */\n  gt\n    /* \"#utility.yul\":2063:2065   */\n  iszero\n  tag_57\n  jumpi\n    /* \"#utility.yul\":2152:2153   */\n  0x00\n    /* \"#utility.yul\":2143:2149   */\n  dup5\n    /* \"#utility.yul\":2138:2141   */\n  dup5\n    /* \"#utility.yul\":2134:2150   */\n  add\n    /* \"#utility.yul\":2127:2154   */\n  mstore\n    /* \"#utility.yul\":2063:2065   */\ntag_57:\n    /* \"#utility.yul\":1912:2170   */\n  pop\n  pop\n  pop\n  pop\n  jump\t// out\n    /* \"#utility.yul\":2176:2496   */\ntag_11:\n    /* \"#utility.yul\":2220:2226   */\n  0x00\n    /* \"#utility.yul\":2257:2258   */\n  0x02\n    /* \"#utility.yul\":2251:2255   */\n  dup3\n    /* \"#utility.yul\":2247:2259   */\n  div\n    /* \"#utility.yul\":2237:2259   */\n  swap1\n  pop\n    /* \"#utility.yul\":2304:2305   */\n  0x01\n    /* \"#utility.yul\":2298:2302   */\n  dup3\n    /* \"#utility.yul\":2294:2306   */\n  and\n    /* \"#utility.yul\":2325:2343   */\n  dup1\n    /* \"#utility.yul\":2315:2317   */\n  tag_59\n  jumpi\n    /* \"#utility.yul\":2381:2385   */\n  0x7f\n    /* \"#utility.yul\":2373:2379   */\n  dup3\n    /* \"#utility.yul\":2369:2386   */\n  and\n    /* \"#utility.yul\":2359:2386   */\n  swap2\n  pop\n    /* \"#utility.yul\":2315:2317   */\ntag_59:\n    /* \"#utility.yul\":2443:2445   */\n  0x20\n    /* \"#utility.yul\":2435:2441   */\n  dup3\n    /* \"#utility.yul\":2432:2446   */\n  lt\n    /* \"#utility.yul\":2412:2430   */\n  dup2\n    /* \"#utility.yul\":2409:2447   */\n  eq\n    /* \"#utility.yul\":2406:2408   */\n  iszero\n  tag_60\n  jumpi\n    /* \"#utility.yul\":2462:2480   */\n  tag_61\n  tag_62\n  jump\t// in\ntag_61:\n    /* \"#utility.yul\":2406:2408   */\ntag_60:\n    /* \"#utility.yul\":2227:2496   */\n  pop\n  swap2\n  swap1\n  pop\n  jump\t// out\n    /* \"#utility.yul\":2502:2783   */\ntag_45:\n    /* \"#utility.yul\":2585:2612   */\n  tag_64\n    /* \"#utility.yul\":2607:2611   */\n  dup3\n    /* \"#utility.yul\":2585:2612   */\n  tag_52\n  jump\t// in\ntag_64:\n    /* \"#utility.yul\":2577:2583   */\n  dup2\n    /* \"#utility.yul\":2573:2613   */\n  add\n    /* \"#utility.yul\":2715:2721   */\n  dup2\n    /* \"#utility.yul\":2703:2713   */\n  dup2\n    /* \"#utility.yul\":2700:2722   */\n  lt\n    /* \"#utility.yul\":2679:2697   */\n  0xffffffffffffffff\n    /* \"#utility.yul\":2667:2677   */\n  dup3\n    /* \"#utility.yul\":2664:2698   */\n  gt\n    /* \"#utility.yul\":2661:2723   */\n  or\n    /* \"#utility.yul\":2658:2660   */\n  iszero\n  tag_65\n  jumpi\n    /* \"#utility.yul\":2726:2744   */\n  tag_66\n  tag_50\n  jump\t// in\ntag_66:\n    /* \"#utility.yul\":2658:2660   */\ntag_65:\n    /* \"#utility.yul\":2766:2776   */\n  dup1\n    /* \"#utility.yul\":2762:2764   */\n  0x40\n    /* \"#utility.yul\":2755:2777   */\n  mstore\n    /* \"#utility.yul\":2545:2783   */\n  pop\n  pop\n  pop\n  jump\t// out\n    /* \"#utility.yul\":2789:2969   */\ntag_62:\n    /* \"#utility.yul\":2837:2914   */\n  0x4e487b7100000000000000000000000000000000000000000000000000000000\n    /* \"#utility.yul\":2834:2835   */\n  0x00\n    /* \"#utility.yul\":2827:2915   */\n  mstore\n    /* \"#utility.yul\":2934:2938   */\n  0x22\n    /* \"#utility.yul\":2931:2932   */\n  0x04\n    /* \"#utility.yul\":2924:2939   */\n  mstore\n    /* \"#utility.yul\":2958:2962   */\n  0x24\n    /* \"#utility.yul\":2955:2956   */\n  0x00\n    /* \"#utility.yul\":2948:2963   */\n  revert\n    /* \"#utility.yul\":2975:3155   */\ntag_50:\n    /* \"#utility.yul\":3023:3100   */\n  0x4e487b7100000000000000000000000000000000000000000000000000000000\n    /* \"#utility.yul\":3020:3021   */\n  0x00\n    /* \"#utility.yul\":3013:3101   */\n  mstore\n    /* \"#utility.yul\":3120:3124   */\n  0x41\n    /* \"#utility.yul\":3117:3118   */\n  0x04\n    /* \"#utility.yul\":3110:3125   */\n  mstore\n    /* \"#utility.yul\":3144:3148   */\n  0x24\n    /* \"#utility.yul\":3141:3142   */\n  0x00\n    /* \"#utility.yul\":3134:3149   */\n  revert\n    /* \"#utility.yul\":3161:3263   */\ntag_52:\n    /* \"#utility.yul\":3202:3208   */\n  0x00\n    /* \"#utility.yul\":3253:3255   */\n  0x1f\n    /* \"#utility.yul\":3249:3256   */\n  not\n    /* \"#utility.yul\":3244:3246   */\n  0x1f\n    /* \"#utility.yul\":3237:3242   */\n  dup4\n    /* \"#utility.yul\":3233:3247   */\n  add\n    /* \"#utility.yul\":3229:3257   */\n  and\n    /* \"#utility.yul\":3219:3257   */\n  swap1\n  pop\n    /* \"#utility.yul\":3209:3263   */\n  swap2\n  swap1\n  pop\n  jump\t// out\n    /* \"contracts/nft.sol\":677:11558  contract nft is Context, ERC165, IERC721, IERC721Metadata {\r... */\ntag_9:\n  dataSize(sub_0)\n  dup1\n  dataOffset(sub_0)\n  0x00\n  codecopy\n  0x00\n  return\nstop\n\nsub_0: assembly {\n        /* \"contracts/nft.sol\":677:11558  contract nft is Context, ERC165, IERC721, IERC721Metadata {\r... */\n      mstore(0x40, 0x80)\n      callvalue\n      dup1\n      iszero\n      tag_1\n      jumpi\n      0x00\n      dup1\n      revert\n    tag_1:\n      pop\n      jumpi(tag_2, lt(calldatasize, 0x04))\n      shr(0xe0, calldataload(0x00))\n      dup1\n      0x70a08231\n      gt\n      tag_21\n      jumpi\n      dup1\n      0xb88d4fde\n      gt\n      tag_22\n      jumpi\n      dup1\n      0xb88d4fde\n      eq\n      tag_16\n      jumpi\n      dup1\n      0xc87b56dd\n      eq\n      tag_17\n      jumpi\n      dup1\n      0xdfd96b6a\n      eq\n      tag_18\n      jumpi\n      dup1\n      0xe985e9c5\n      eq\n      tag_19\n      jumpi\n      dup1\n      0xee48cda2\n      eq\n      tag_20\n      jumpi\n      jump(tag_2)\n    tag_22:\n      dup1\n      0x70a08231\n      eq\n      tag_12\n      jumpi\n      dup1\n      0x8d17e712\n      eq\n      tag_13\n      jumpi\n      dup1\n      0x95d89b41\n      eq\n      tag_14\n      jumpi\n      dup1\n      0xa22cb465\n      eq\n      tag_15\n      jumpi\n      jump(tag_2)\n    tag_21:\n      dup1\n      0x23b872dd\n      gt\n      tag_23\n      jumpi\n      dup1\n      0x23b872dd\n      eq\n      tag_7\n      jumpi\n      dup1\n      0x381568d8\n      eq\n      tag_8\n      jumpi\n      dup1\n      0x42842e0e\n      eq\n      tag_9\n      jumpi\n      dup1\n      0x52e04825\n      eq\n      tag_10\n      jumpi\n      dup1\n      0x6352211e\n      eq\n      tag_11\n      jumpi\n      jump(tag_2)\n    tag_23:\n      dup1\n      0x01ffc9a7\n      eq\n      tag_3\n      jumpi\n      dup1\n      0x06fdde03\n      eq\n      tag_4\n      jumpi\n      dup1\n      0x081812fc\n      eq\n      tag_5\n      jumpi\n      dup1\n      0x095ea7b3\n      eq\n      tag_6\n      jumpi\n    tag_2:\n      0x00\n      dup1\n      revert\n        /* \"contracts/nft.sol\":1581:1886  function supportsInterface(bytes4 interfaceId) public view virtual override(ERC165, IERC165) returns (bool) {\r... */\n    tag_3:\n      tag_24\n      0x04\n      dup1\n      calldatasize\n      sub\n      dup2\n      add\n      swap1\n      tag_25\n      swap2\n      swap1\n      tag_26\n      jump\t// in\n    tag_25:\n      tag_27\n      jump\t// in\n    tag_24:\n      mload(0x40)\n      tag_28\n      swap2\n      swap1\n      tag_29\n      jump\t// in\n    tag_28:\n      mload(0x40)\n      dup1\n      swap2\n      sub\n      swap1\n      return\n        /* \"contracts/nft.sol\":3664:3764  function name() public view virtual override returns (string memory) {\r... */\n    tag_4:\n      tag_30\n      tag_31\n      jump\t// in\n    tag_30:\n      mload(0x40)\n      tag_32\n      swap2\n      swap1\n      tag_33\n      jump\t// in\n    tag_32:\n      mload(0x40)\n      dup1\n      swap2\n      sub\n      swap1\n      return\n        /* \"contracts/nft.sol\":4737:4908  function getApproved(uint256 tokenId) public view virtual override returns (address) {\r... */\n    tag_5:\n      tag_34\n      0x04\n      dup1\n      calldatasize\n      sub\n      dup2\n      add\n      swap1\n      tag_35\n      swap2\n      swap1\n      tag_36\n      jump\t// in\n    tag_35:\n      tag_37\n      jump\t// in\n    tag_34:\n      mload(0x40)\n      tag_38\n      swap2\n      swap1\n      tag_39\n      jump\t// in\n    tag_38:\n      mload(0x40)\n      dup1\n      swap2\n      sub\n      swap1\n      return\n        /* \"contracts/nft.sol\":4313:4726  function approve(address to, uint256 tokenId) public virtual override {\r... */\n    tag_6:\n      tag_40\n      0x04\n      dup1\n      calldatasize\n      sub\n      dup2\n      add\n      swap1\n      tag_41\n      swap2\n      swap1\n      tag_42\n      jump\t// in\n    tag_41:\n      tag_43\n      jump\t// in\n    tag_40:\n      stop\n        /* \"contracts/nft.sol\":5259:5541  function transferFrom(\r... */\n    tag_7:\n      tag_44\n      0x04\n      dup1\n      calldatasize\n      sub\n      dup2\n      add\n      swap1\n      tag_45\n      swap2\n      swap1\n      tag_46\n      jump\t// in\n    tag_45:\n      tag_47\n      jump\t// in\n    tag_44:\n      stop\n        /* \"contracts/nft.sol\":6077:6388  function mint(address to,address[] memory collaborator,uint256[] memory collaboratorPercent,string memory uri) public {\r... */\n    tag_8:\n      tag_48\n      0x04\n      dup1\n      calldatasize\n      sub\n      dup2\n      add\n      swap1\n      tag_49\n      swap2\n      swap1\n      tag_50\n      jump\t// in\n    tag_49:\n      tag_51\n      jump\t// in\n    tag_48:\n      stop\n        /* \"contracts/nft.sol\":5551:5736  function safeTransferFrom(\r... */\n    tag_9:\n      tag_52\n      0x04\n      dup1\n      calldatasize\n      sub\n      dup2\n      add\n      swap1\n      tag_53\n      swap2\n      swap1\n      tag_46\n      jump\t// in\n    tag_53:\n      tag_54\n      jump\t// in\n    tag_52:\n      stop\n        /* \"contracts/nft.sol\":3224:3416  function collaboratotOf(uint256 tokenId) public view virtual returns (address[] memory) {\r... */\n    tag_10:\n      tag_55\n      0x04\n      dup1\n      calldatasize\n      sub\n      dup2\n      add\n      swap1\n      tag_56\n      swap2\n      swap1\n      tag_36\n      jump\t// in\n    tag_56:\n      tag_57\n      jump\t// in\n    tag_55:\n      mload(0x40)\n      tag_58\n      swap2\n      swap1\n      tag_59\n      jump\t// in\n    tag_58:\n      mload(0x40)\n      dup1\n      swap2\n      sub\n      swap1\n      return\n        /* \"contracts/nft.sol\":2875:3097  function ownerOf(uint256 tokenId) public view virtual override returns (address) {\r... */\n    tag_11:\n      tag_60\n      0x04\n      dup1\n      calldatasize\n      sub\n      dup2\n      add\n      swap1\n      tag_61\n      swap2\n      swap1\n      tag_36\n      jump\t// in\n    tag_61:\n      tag_62\n      jump\t// in\n    tag_60:\n      mload(0x40)\n      tag_63\n      swap2\n      swap1\n      tag_39\n      jump\t// in\n    tag_63:\n      mload(0x40)\n      dup1\n      swap2\n      sub\n      swap1\n      return\n        /* \"contracts/nft.sol\":2658:2865  function balanceOf(address owner) public view virtual override returns (uint256) {\r... */\n    tag_12:\n      tag_64\n      0x04\n      dup1\n      calldatasize\n      sub\n      dup2\n      add\n      swap1\n      tag_65\n      swap2\n      swap1\n      tag_66\n      jump\t// in\n    tag_65:\n      tag_67\n      jump\t// in\n    tag_64:\n      mload(0x40)\n      tag_68\n      swap2\n      swap1\n      tag_69\n      jump\t// in\n    tag_68:\n      mload(0x40)\n      dup1\n      swap2\n      sub\n      swap1\n      return\n        /* \"contracts/nft.sol\":3885:4203  function _tokenURI(uint256 tokenId) public view returns (string memory) {\r... */\n    tag_13:\n      tag_70\n      0x04\n      dup1\n      calldatasize\n      sub\n      dup2\n      add\n      swap1\n      tag_71\n      swap2\n      swap1\n      tag_36\n      jump\t// in\n    tag_71:\n      tag_72\n      jump\t// in\n    tag_70:\n      mload(0x40)\n      tag_73\n      swap2\n      swap1\n      tag_33\n      jump\t// in\n    tag_73:\n      mload(0x40)\n      dup1\n      swap2\n      sub\n      swap1\n      return\n        /* \"contracts/nft.sol\":3773:3877  function symbol() public view virtual override returns (string memory) {\r... */\n    tag_14:\n      tag_74\n      tag_75\n      jump\t// in\n    tag_74:\n      mload(0x40)\n      tag_76\n      swap2\n      swap1\n      tag_33\n      jump\t// in\n    tag_76:\n      mload(0x40)\n      dup1\n      swap2\n      sub\n      swap1\n      return\n        /* \"contracts/nft.sol\":4920:5075  function setApprovalForAll(address operator, bool approved) public virtual override {\r... */\n    tag_15:\n      tag_77\n      0x04\n      dup1\n      calldatasize\n      sub\n      dup2\n      add\n      swap1\n      tag_78\n      swap2\n      swap1\n      tag_79\n      jump\t// in\n    tag_78:\n      tag_80\n      jump\t// in\n    tag_77:\n      stop\n        /* \"contracts/nft.sol\":5746:6068  function safeTransferFrom(\r... */\n    tag_16:\n      tag_81\n      0x04\n      dup1\n      calldatasize\n      sub\n      dup2\n      add\n      swap1\n      tag_82\n      swap2\n      swap1\n      tag_83\n      jump\t// in\n    tag_82:\n      tag_84\n      jump\t// in\n    tag_81:\n      stop\n        /* \"contracts/nft.sol\":1894:2419  function tokenURI(uint256 tokenId) public view virtual override returns (string memory) {\r... */\n    tag_17:\n      tag_85\n      0x04\n      dup1\n      calldatasize\n      sub\n      dup2\n      add\n      swap1\n      tag_86\n      swap2\n      swap1\n      tag_36\n      jump\t// in\n    tag_86:\n      tag_87\n      jump\t// in\n    tag_85:\n      mload(0x40)\n      tag_88\n      swap2\n      swap1\n      tag_33\n      jump\t// in\n    tag_88:\n      mload(0x40)\n      dup1\n      swap2\n      sub\n      swap1\n      return\n        /* \"contracts/nft.sol\":3105:3215  function getTokenCurrent() public view virtual returns (uint256) {\r... */\n    tag_18:\n      tag_89\n      tag_90\n      jump\t// in\n    tag_89:\n      mload(0x40)\n      tag_91\n      swap2\n      swap1\n      tag_69\n      jump\t// in\n    tag_91:\n      mload(0x40)\n      dup1\n      swap2\n      sub\n      swap1\n      return\n        /* \"contracts/nft.sol\":5085:5249  function isApprovedForAll(address owner, address operator) public view virtual override returns (bool) {\r... */\n    tag_19:\n      tag_92\n      0x04\n      dup1\n      calldatasize\n      sub\n      dup2\n      add\n      swap1\n      tag_93\n      swap2\n      swap1\n      tag_94\n      jump\t// in\n    tag_93:\n      tag_95\n      jump\t// in\n    tag_92:\n      mload(0x40)\n      tag_96\n      swap2\n      swap1\n      tag_29\n      jump\t// in\n    tag_96:\n      mload(0x40)\n      dup1\n      swap2\n      sub\n      swap1\n      return\n        /* \"contracts/nft.sol\":3424:3656  function collaboratotPercentageOf(uint256 tokenId) public view virtual returns (uint256[] memory) {\r... */\n    tag_20:\n      tag_97\n      0x04\n      dup1\n      calldatasize\n      sub\n      dup2\n      add\n      swap1\n      tag_98\n      swap2\n      swap1\n      tag_36\n      jump\t// in\n    tag_98:\n      tag_99\n      jump\t// in\n    tag_97:\n      mload(0x40)\n      tag_100\n      swap2\n      swap1\n      tag_101\n      jump\t// in\n    tag_100:\n      mload(0x40)\n      dup1\n      swap2\n      sub\n      swap1\n      return\n        /* \"contracts/nft.sol\":1581:1886  function supportsInterface(bytes4 interfaceId) public view virtual override(ERC165, IERC165) returns (bool) {\r... */\n    tag_27:\n        /* \"contracts/nft.sol\":1683:1687  bool */\n      0x00\n        /* \"contracts/nft.sol\":1735:1760  type(IERC721).interfaceId */\n      0x80ac58cd00000000000000000000000000000000000000000000000000000000\n        /* \"contracts/nft.sol\":1720:1760  interfaceId == type(IERC721).interfaceId */\n      not(0xffffffffffffffffffffffffffffffffffffffffffffffffffffffff)\n      and\n        /* \"contracts/nft.sol\":1720:1731  interfaceId */\n      dup3\n        /* \"contracts/nft.sol\":1720:1760  interfaceId == type(IERC721).interfaceId */\n      not(0xffffffffffffffffffffffffffffffffffffffffffffffffffffffff)\n      and\n      eq\n        /* \"contracts/nft.sol\":1720:1825  interfaceId == type(IERC721).interfaceId ||\r... */\n      dup1\n      tag_103\n      jumpi\n      pop\n        /* \"contracts/nft.sol\":1792:1825  type(IERC721Metadata).interfaceId */\n      0x5b5e139f00000000000000000000000000000000000000000000000000000000\n        /* \"contracts/nft.sol\":1777:1825  interfaceId == type(IERC721Metadata).interfaceId */\n      not(0xffffffffffffffffffffffffffffffffffffffffffffffffffffffff)\n      and\n        /* \"contracts/nft.sol\":1777:1788  interfaceId */\n      dup3\n        /* \"contracts/nft.sol\":1777:1825  interfaceId == type(IERC721Metadata).interfaceId */\n      not(0xffffffffffffffffffffffffffffffffffffffffffffffffffffffff)\n      and\n      eq\n        /* \"contracts/nft.sol\":1720:1825  interfaceId == type(IERC721).interfaceId ||\r... */\n    tag_103:\n        /* \"contracts/nft.sol\":1720:1878  interfaceId == type(IERC721).interfaceId ||\r... */\n      dup1\n      tag_104\n      jumpi\n      pop\n        /* \"contracts/nft.sol\":1842:1878  super.supportsInterface(interfaceId) */\n      tag_105\n        /* \"contracts/nft.sol\":1866:1877  interfaceId */\n      dup3\n        /* \"contracts/nft.sol\":1842:1865  super.supportsInterface */\n      tag_106\n        /* \"contracts/nft.sol\":1842:1878  super.supportsInterface(interfaceId) */\n      jump\t// in\n    tag_105:\n        /* \"contracts/nft.sol\":1720:1878  interfaceId == type(IERC721).interfaceId ||\r... */\n    tag_104:\n        /* \"contracts/nft.sol\":1700:1878  return\r... */\n      swap1\n      pop\n        /* \"contracts/nft.sol\":1581:1886  function supportsInterface(bytes4 interfaceId) public view virtual override(ERC165, IERC165) returns (bool) {\r... */\n      swap2\n      swap1\n      pop\n      jump\t// out\n        /* \"contracts/nft.sol\":3664:3764  function name() public view virtual override returns (string memory) {\r... */\n    tag_31:\n        /* \"contracts/nft.sol\":3718:3731  string memory */\n      0x60\n        /* \"contracts/nft.sol\":3751:3756  _name */\n      0x01\n        /* \"contracts/nft.sol\":3744:3756  return _name */\n      dup1\n      sload\n      tag_108\n      swap1\n      tag_109\n      jump\t// in\n    tag_108:\n      dup1\n      0x1f\n      add\n      0x20\n      dup1\n      swap2\n      div\n      mul\n      0x20\n      add\n      mload(0x40)\n      swap1\n      dup2\n      add\n      0x40\n      mstore\n      dup1\n      swap3\n      swap2\n      swap1\n      dup2\n      dup2\n      mstore\n      0x20\n      add\n      dup3\n      dup1\n      sload\n      tag_110\n      swap1\n      tag_109\n      jump\t// in\n    tag_110:\n      dup1\n      iszero\n      tag_111\n      jumpi\n      dup1\n      0x1f\n      lt\n      tag_112\n      jumpi\n      0x0100\n      dup1\n      dup4\n      sload\n      div\n      mul\n      dup4\n      mstore\n      swap2\n      0x20\n      add\n      swap2\n      jump(tag_111)\n    tag_112:\n      dup3\n      add\n      swap2\n      swap1\n      0x00\n      mstore\n      keccak256(0x00, 0x20)\n      swap1\n    tag_113:\n      dup2\n      sload\n      dup2\n      mstore\n      swap1\n      0x01\n      add\n      swap1\n      0x20\n      add\n      dup1\n      dup4\n      gt\n      tag_113\n      jumpi\n      dup3\n      swap1\n      sub\n      0x1f\n      and\n      dup3\n      add\n      swap2\n    tag_111:\n      pop\n      pop\n      pop\n      pop\n      pop\n      swap1\n      pop\n        /* \"contracts/nft.sol\":3664:3764  function name() public view virtual override returns (string memory) {\r... */\n      swap1\n      jump\t// out\n        /* \"contracts/nft.sol\":4737:4908  function getApproved(uint256 tokenId) public view virtual override returns (address) {\r... */\n    tag_37:\n        /* \"contracts/nft.sol\":4813:4820  address */\n      0x00\n        /* \"contracts/nft.sol\":4833:4856  _requireMinted(tokenId) */\n      tag_115\n        /* \"contracts/nft.sol\":4848:4855  tokenId */\n      dup3\n        /* \"contracts/nft.sol\":4833:4847  _requireMinted */\n      tag_116\n        /* \"contracts/nft.sol\":4833:4856  _requireMinted(tokenId) */\n      jump\t// in\n    tag_115:\n        /* \"contracts/nft.sol\":4876:4891  _tokenApprovals */\n      0x07\n        /* \"contracts/nft.sol\":4876:4900  _tokenApprovals[tokenId] */\n      0x00\n        /* \"contracts/nft.sol\":4892:4899  tokenId */\n      dup4\n        /* \"contracts/nft.sol\":4876:4900  _tokenApprovals[tokenId] */\n      dup2\n      mstore\n      0x20\n      add\n      swap1\n      dup2\n      mstore\n      0x20\n      add\n      0x00\n      keccak256\n      0x00\n      swap1\n      sload\n      swap1\n      0x0100\n      exp\n      swap1\n      div\n      0xffffffffffffffffffffffffffffffffffffffff\n      and\n        /* \"contracts/nft.sol\":4869:4900  return _tokenApprovals[tokenId] */\n      swap1\n      pop\n        /* \"contracts/nft.sol\":4737:4908  function getApproved(uint256 tokenId) public view virtual override returns (address) {\r... */\n      swap2\n      swap1\n      pop\n      jump\t// out\n        /* \"contracts/nft.sol\":4313:4726  function approve(address to, uint256 tokenId) public virtual override {\r... */\n    tag_43:\n        /* \"contracts/nft.sol\":4394:4407  address owner */\n      0x00\n        /* \"contracts/nft.sol\":4410:4430  nft.ownerOf(tokenId) */\n      tag_118\n        /* \"contracts/nft.sol\":4422:4429  tokenId */\n      dup3\n        /* \"contracts/nft.sol\":4410:4421  nft.ownerOf */\n      tag_62\n        /* \"contracts/nft.sol\":4410:4430  nft.ownerOf(tokenId) */\n      jump\t// in\n    tag_118:\n        /* \"contracts/nft.sol\":4394:4430  address owner = nft.ownerOf(tokenId) */\n      swap1\n      pop\n        /* \"contracts/nft.sol\":4455:4460  owner */\n      dup1\n        /* \"contracts/nft.sol\":4449:4460  to != owner */\n      0xffffffffffffffffffffffffffffffffffffffff\n      and\n        /* \"contracts/nft.sol\":4449:4451  to */\n      dup4\n        /* \"contracts/nft.sol\":4449:4460  to != owner */\n      0xffffffffffffffffffffffffffffffffffffffff\n      and\n      eq\n      iszero\n        /* \"contracts/nft.sol\":4441:4498  require(to != owner, \"ERC721: approval to current owner\") */\n      tag_119\n      jumpi\n      mload(0x40)\n      0x08c379a000000000000000000000000000000000000000000000000000000000\n      dup2\n      mstore\n      0x04\n      add\n      tag_120\n      swap1\n      tag_121\n      jump\t// in\n    tag_120:\n      mload(0x40)\n      dup1\n      swap2\n      sub\n      swap1\n      revert\n    tag_119:\n        /* \"contracts/nft.sol\":4549:4554  owner */\n      dup1\n        /* \"contracts/nft.sol\":4533:4554  _msgSender() == owner */\n      0xffffffffffffffffffffffffffffffffffffffff\n      and\n        /* \"contracts/nft.sol\":4533:4545  _msgSender() */\n      tag_122\n        /* \"contracts/nft.sol\":4533:4543  _msgSender */\n      tag_123\n        /* \"contracts/nft.sol\":4533:4545  _msgSender() */\n      jump\t// in\n    tag_122:\n        /* \"contracts/nft.sol\":4533:4554  _msgSender() == owner */\n      0xffffffffffffffffffffffffffffffffffffffff\n      and\n      eq\n        /* \"contracts/nft.sol\":4533:4595  _msgSender() == owner || isApprovedForAll(owner, _msgSender()) */\n      dup1\n      tag_124\n      jumpi\n      pop\n        /* \"contracts/nft.sol\":4558:4595  isApprovedForAll(owner, _msgSender()) */\n      tag_125\n        /* \"contracts/nft.sol\":4575:4580  owner */\n      dup2\n        /* \"contracts/nft.sol\":4582:4594  _msgSender() */\n      tag_126\n        /* \"contracts/nft.sol\":4582:4592  _msgSender */\n      tag_123\n        /* \"contracts/nft.sol\":4582:4594  _msgSender() */\n      jump\t// in\n    tag_126:\n        /* \"contracts/nft.sol\":4558:4574  isApprovedForAll */\n      tag_95\n        /* \"contracts/nft.sol\":4558:4595  isApprovedForAll(owner, _msgSender()) */\n      jump\t// in\n    tag_125:\n        /* \"contracts/nft.sol\":4533:4595  _msgSender() == owner || isApprovedForAll(owner, _msgSender()) */\n    tag_124:\n        /* \"contracts/nft.sol\":4511:4684  require(\r... */\n      tag_127\n      jumpi\n      mload(0x40)\n      0x08c379a000000000000000000000000000000000000000000000000000000000\n      dup2\n      mstore\n      0x04\n      add\n      tag_128\n      swap1\n      tag_129\n      jump\t// in\n    tag_128:\n      mload(0x40)\n      dup1\n      swap2\n      sub\n      swap1\n      revert\n    tag_127:\n        /* \"contracts/nft.sol\":4697:4718  _approve(to, tokenId) */\n      tag_130\n        /* \"contracts/nft.sol\":4706:4708  to */\n      dup4\n        /* \"contracts/nft.sol\":4710:4717  tokenId */\n      dup4\n        /* \"contracts/nft.sol\":4697:4705  _approve */\n      tag_131\n        /* \"contracts/nft.sol\":4697:4718  _approve(to, tokenId) */\n      jump\t// in\n    tag_130:\n        /* \"contracts/nft.sol\":4313:4726  function approve(address to, uint256 tokenId) public virtual override {\r... */\n      pop\n      pop\n      pop\n      jump\t// out\n        /* \"contracts/nft.sol\":5259:5541  function transferFrom(\r... */\n    tag_47:\n        /* \"contracts/nft.sol\":5401:5442  _isApprovedOrOwner(_msgSender(), tokenId) */\n      tag_133\n        /* \"contracts/nft.sol\":5420:5432  _msgSender() */\n      tag_134\n        /* \"contracts/nft.sol\":5420:5430  _msgSender */\n      tag_123\n        /* \"contracts/nft.sol\":5420:5432  _msgSender() */\n      jump\t// in\n    tag_134:\n        /* \"contracts/nft.sol\":5434:5441  tokenId */\n      dup3\n        /* \"contracts/nft.sol\":5401:5419  _isApprovedOrOwner */\n      tag_135\n        /* \"contracts/nft.sol\":5401:5442  _isApprovedOrOwner(_msgSender(), tokenId) */\n      jump\t// in\n    tag_133:\n        /* \"contracts/nft.sol\":5393:5492  require(_isApprovedOrOwner(_msgSender(), tokenId), \"ERC721: caller is not token owner or approved\") */\n      tag_136\n      jumpi\n      mload(0x40)\n      0x08c379a000000000000000000000000000000000000000000000000000000000\n      dup2\n      mstore\n      0x04\n      add\n      tag_137\n      swap1\n      tag_138\n      jump\t// in\n    tag_137:\n      mload(0x40)\n      dup1\n      swap2\n      sub\n      swap1\n      revert\n    tag_136:\n        /* \"contracts/nft.sol\":5505:5533  _transfer(from, to, tokenId) */\n      tag_139\n        /* \"contracts/nft.sol\":5515:5519  from */\n      dup4\n        /* \"contracts/nft.sol\":5521:5523  to */\n      dup4\n        /* \"contracts/nft.sol\":5525:5532  tokenId */\n      dup4\n        /* \"contracts/nft.sol\":5505:5514  _transfer */\n      tag_140\n        /* \"contracts/nft.sol\":5505:5533  _transfer(from, to, tokenId) */\n      jump\t// in\n    tag_139:\n        /* \"contracts/nft.sol\":5259:5541  function transferFrom(\r... */\n      pop\n      pop\n      pop\n      jump\t// out\n        /* \"contracts/nft.sol\":6077:6388  function mint(address to,address[] memory collaborator,uint256[] memory collaboratorPercent,string memory uri) public {\r... */\n    tag_51:\n        /* \"contracts/nft.sol\":6208:6229  _tokenIds.increment() */\n      tag_142\n        /* \"contracts/nft.sol\":6208:6217  _tokenIds */\n      0x00\n        /* \"contracts/nft.sol\":6208:6227  _tokenIds.increment */\n      tag_143\n        /* \"contracts/nft.sol\":6208:6229  _tokenIds.increment() */\n      jump\t// in\n    tag_142:\n        /* \"contracts/nft.sol\":6240:6255  uint256 tokenId */\n      0x00\n        /* \"contracts/nft.sol\":6258:6277  _tokenIds.current() */\n      tag_144\n        /* \"contracts/nft.sol\":6258:6267  _tokenIds */\n      0x00\n        /* \"contracts/nft.sol\":6258:6275  _tokenIds.current */\n      tag_145\n        /* \"contracts/nft.sol\":6258:6277  _tokenIds.current() */\n      jump\t// in\n    tag_144:\n        /* \"contracts/nft.sol\":6240:6277  uint256 tokenId = _tokenIds.current() */\n      swap1\n      pop\n        /* \"contracts/nft.sol\":6288:6343  _safeMint(to, collaborator,collaboratorPercent,tokenId) */\n      tag_146\n        /* \"contracts/nft.sol\":6298:6300  to */\n      dup6\n        /* \"contracts/nft.sol\":6302:6314  collaborator */\n      dup6\n        /* \"contracts/nft.sol\":6315:6334  collaboratorPercent */\n      dup6\n        /* \"contracts/nft.sol\":6335:6342  tokenId */\n      dup5\n        /* \"contracts/nft.sol\":6288:6297  _safeMint */\n      tag_147\n        /* \"contracts/nft.sol\":6288:6343  _safeMint(to, collaborator,collaboratorPercent,tokenId) */\n      jump\t// in\n    tag_146:\n        /* \"contracts/nft.sol\":6354:6380  _setTokenURI(tokenId, uri) */\n      tag_148\n        /* \"contracts/nft.sol\":6367:6374  tokenId */\n      dup2\n        /* \"contracts/nft.sol\":6376:6379  uri */\n      dup4\n        /* \"contracts/nft.sol\":6354:6366  _setTokenURI */\n      tag_149\n        /* \"contracts/nft.sol\":6354:6380  _setTokenURI(tokenId, uri) */\n      jump\t// in\n    tag_148:\n        /* \"contracts/nft.sol\":6077:6388  function mint(address to,address[] memory collaborator,uint256[] memory collaboratorPercent,string memory uri) public {\r... */\n      pop\n      pop\n      pop\n      pop\n      pop\n      jump\t// out\n        /* \"contracts/nft.sol\":5551:5736  function safeTransferFrom(\r... */\n    tag_54:\n        /* \"contracts/nft.sol\":5689:5728  safeTransferFrom(from, to, tokenId, \"\") */\n      tag_151\n        /* \"contracts/nft.sol\":5706:5710  from */\n      dup4\n        /* \"contracts/nft.sol\":5712:5714  to */\n      dup4\n        /* \"contracts/nft.sol\":5716:5723  tokenId */\n      dup4\n        /* \"contracts/nft.sol\":5689:5728  safeTransferFrom(from, to, tokenId, \"\") */\n      mload(0x40)\n      dup1\n      0x20\n      add\n      0x40\n      mstore\n      dup1\n      0x00\n      dup2\n      mstore\n      pop\n        /* \"contracts/nft.sol\":5689:5705  safeTransferFrom */\n      tag_84\n        /* \"contracts/nft.sol\":5689:5728  safeTransferFrom(from, to, tokenId, \"\") */\n      jump\t// in\n    tag_151:\n        /* \"contracts/nft.sol\":5551:5736  function safeTransferFrom(\r... */\n      pop\n      pop\n      pop\n      jump\t// out\n        /* \"contracts/nft.sol\":3224:3416  function collaboratotOf(uint256 tokenId) public view virtual returns (address[] memory) {\r... */\n    tag_57:\n        /* \"contracts/nft.sol\":3294:3310  address[] memory */\n      0x60\n        /* \"contracts/nft.sol\":3323:3352  address[] memory collaborator */\n      0x00\n        /* \"contracts/nft.sol\":3355:3369  _collaborators */\n      0x04\n        /* \"contracts/nft.sol\":3355:3378  _collaborators[tokenId] */\n      0x00\n        /* \"contracts/nft.sol\":3370:3377  tokenId */\n      dup5\n        /* \"contracts/nft.sol\":3355:3378  _collaborators[tokenId] */\n      dup2\n      mstore\n      0x20\n      add\n      swap1\n      dup2\n      mstore\n      0x20\n      add\n      0x00\n      keccak256\n        /* \"contracts/nft.sol\":3323:3378  address[] memory collaborator = _collaborators[tokenId] */\n      dup1\n      sload\n      dup1\n      0x20\n      mul\n      0x20\n      add\n      mload(0x40)\n      swap1\n      dup2\n      add\n      0x40\n      mstore\n      dup1\n      swap3\n      swap2\n      swap1\n      dup2\n      dup2\n      mstore\n      0x20\n      add\n      dup3\n      dup1\n      sload\n      dup1\n      iszero\n      tag_153\n      jumpi\n      0x20\n      mul\n      dup3\n      add\n      swap2\n      swap1\n      0x00\n      mstore\n      keccak256(0x00, 0x20)\n      swap1\n    tag_154:\n      dup2\n      0x00\n      swap1\n      sload\n      swap1\n      0x0100\n      exp\n      swap1\n      div\n      0xffffffffffffffffffffffffffffffffffffffff\n      and\n      0xffffffffffffffffffffffffffffffffffffffff\n      and\n      dup2\n      mstore\n      0x20\n      add\n      swap1\n      0x01\n      add\n      swap1\n      dup1\n      dup4\n      gt\n      tag_154\n      jumpi\n    tag_153:\n      pop\n      pop\n      pop\n      pop\n      pop\n      swap1\n      pop\n        /* \"contracts/nft.sol\":3396:3408  collaborator */\n      dup1\n        /* \"contracts/nft.sol\":3389:3408  return collaborator */\n      swap2\n      pop\n      pop\n        /* \"contracts/nft.sol\":3224:3416  function collaboratotOf(uint256 tokenId) public view virtual returns (address[] memory) {\r... */\n      swap2\n      swap1\n      pop\n      jump\t// out\n        /* \"contracts/nft.sol\":2875:3097  function ownerOf(uint256 tokenId) public view virtual override returns (address) {\r... */\n    tag_62:\n        /* \"contracts/nft.sol\":2947:2954  address */\n      0x00\n        /* \"contracts/nft.sol\":2967:2980  address owner */\n      dup1\n        /* \"contracts/nft.sol\":2983:2990  _owners */\n      0x03\n        /* \"contracts/nft.sol\":2983:2999  _owners[tokenId] */\n      0x00\n        /* \"contracts/nft.sol\":2991:2998  tokenId */\n      dup5\n        /* \"contracts/nft.sol\":2983:2999  _owners[tokenId] */\n      dup2\n      mstore\n      0x20\n      add\n      swap1\n      dup2\n      mstore\n      0x20\n      add\n      0x00\n      keccak256\n      0x00\n      swap1\n      sload\n      swap1\n      0x0100\n      exp\n      swap1\n      div\n      0xffffffffffffffffffffffffffffffffffffffff\n      and\n        /* \"contracts/nft.sol\":2967:2999  address owner = _owners[tokenId] */\n      swap1\n      pop\n        /* \"contracts/nft.sol\":3035:3036  0 */\n      0x00\n        /* \"contracts/nft.sol\":3018:3037  owner != address(0) */\n      0xffffffffffffffffffffffffffffffffffffffff\n      and\n        /* \"contracts/nft.sol\":3018:3023  owner */\n      dup2\n        /* \"contracts/nft.sol\":3018:3037  owner != address(0) */\n      0xffffffffffffffffffffffffffffffffffffffff\n      and\n      eq\n      iszero\n        /* \"contracts/nft.sol\":3010:3066  require(owner != address(0), \"ERC721: invalid token ID\") */\n      tag_156\n      jumpi\n      mload(0x40)\n      0x08c379a000000000000000000000000000000000000000000000000000000000\n      dup2\n      mstore\n      0x04\n      add\n      tag_157\n      swap1\n      tag_158\n      jump\t// in\n    tag_157:\n      mload(0x40)\n      dup1\n      swap2\n      sub\n      swap1\n      revert\n    tag_156:\n        /* \"contracts/nft.sol\":3084:3089  owner */\n      dup1\n        /* \"contracts/nft.sol\":3077:3089  return owner */\n      swap2\n      pop\n      pop\n        /* \"contracts/nft.sol\":2875:3097  function ownerOf(uint256 tokenId) public view virtual override returns (address) {\r... */\n      swap2\n      swap1\n      pop\n      jump\t// out\n        /* \"contracts/nft.sol\":2658:2865  function balanceOf(address owner) public view virtual override returns (uint256) {\r... */\n    tag_67:\n        /* \"contracts/nft.sol\":2730:2737  uint256 */\n      0x00\n        /* \"contracts/nft.sol\":2775:2776  0 */\n      dup1\n        /* \"contracts/nft.sol\":2758:2777  owner != address(0) */\n      0xffffffffffffffffffffffffffffffffffffffff\n      and\n        /* \"contracts/nft.sol\":2758:2763  owner */\n      dup3\n        /* \"contracts/nft.sol\":2758:2777  owner != address(0) */\n      0xffffffffffffffffffffffffffffffffffffffff\n      and\n      eq\n      iszero\n        /* \"contracts/nft.sol\":2750:2823  require(owner != address(0), \"ERC721: address zero is not a valid owner\") */\n      tag_160\n      jumpi\n      mload(0x40)\n      0x08c379a000000000000000000000000000000000000000000000000000000000\n      dup2\n      mstore\n      0x04\n      add\n      tag_161\n      swap1\n      tag_162\n      jump\t// in\n    tag_161:\n      mload(0x40)\n      dup1\n      swap2\n      sub\n      swap1\n      revert\n    tag_160:\n        /* \"contracts/nft.sol\":2841:2850  _balances */\n      0x06\n        /* \"contracts/nft.sol\":2841:2857  _balances[owner] */\n      0x00\n        /* \"contracts/nft.sol\":2851:2856  owner */\n      dup4\n        /* \"contracts/nft.sol\":2841:2857  _balances[owner] */\n      0xffffffffffffffffffffffffffffffffffffffff\n      and\n      0xffffffffffffffffffffffffffffffffffffffff\n      and\n      dup2\n      mstore\n      0x20\n      add\n      swap1\n      dup2\n      mstore\n      0x20\n      add\n      0x00\n      keccak256\n      sload\n        /* \"contracts/nft.sol\":2834:2857  return _balances[owner] */\n      swap1\n      pop\n        /* \"contracts/nft.sol\":2658:2865  function balanceOf(address owner) public view virtual override returns (uint256) {\r... */\n      swap2\n      swap1\n      pop\n      jump\t// out\n        /* \"contracts/nft.sol\":3885:4203  function _tokenURI(uint256 tokenId) public view returns (string memory) {\r... */\n    tag_72:\n        /* \"contracts/nft.sol\":3942:3955  string memory */\n      0x60\n        /* \"contracts/nft.sol\":3976:3992  _exists(tokenId) */\n      tag_164\n        /* \"contracts/nft.sol\":3984:3991  tokenId */\n      dup3\n        /* \"contracts/nft.sol\":3976:3983  _exists */\n      tag_165\n        /* \"contracts/nft.sol\":3976:3992  _exists(tokenId) */\n      jump\t// in\n    tag_164:\n        /* \"contracts/nft.sol\":3968:4044  require(_exists(tokenId), \"ERC721Metadata: URI query for nonexistent token\") */\n      tag_166\n      jumpi\n      mload(0x40)\n      0x08c379a000000000000000000000000000000000000000000000000000000000\n      dup2\n      mstore\n      0x04\n      add\n      tag_167\n      swap1\n      tag_168\n      jump\t// in\n    tag_167:\n      mload(0x40)\n      dup1\n      swap2\n      sub\n      swap1\n      revert\n    tag_166:\n        /* \"contracts/nft.sol\":4057:4078  string memory baseURI */\n      0x00\n        /* \"contracts/nft.sol\":4081:4091  _baseURI() */\n      tag_169\n        /* \"contracts/nft.sol\":4081:4089  _baseURI */\n      tag_170\n        /* \"contracts/nft.sol\":4081:4091  _baseURI() */\n      jump\t// in\n    tag_169:\n        /* \"contracts/nft.sol\":4057:4091  string memory baseURI = _baseURI() */\n      swap1\n      pop\n        /* \"contracts/nft.sol\":4133:4134  0 */\n      0x00\n        /* \"contracts/nft.sol\":4115:4122  baseURI */\n      dup2\n        /* \"contracts/nft.sol\":4109:4130  bytes(baseURI).length */\n      mload\n        /* \"contracts/nft.sol\":4109:4134  bytes(baseURI).length > 0 */\n      gt\n        /* \"contracts/nft.sol\":4109:4195  bytes(baseURI).length > 0 ? string(abi.encodePacked(baseURI, tokenId.toString())) : \"\" */\n      tag_171\n      jumpi\n      mload(0x40)\n      dup1\n      0x20\n      add\n      0x40\n      mstore\n      dup1\n      0x00\n      dup2\n      mstore\n      pop\n      jump(tag_172)\n    tag_171:\n        /* \"contracts/nft.sol\":4161:4168  baseURI */\n      dup1\n        /* \"contracts/nft.sol\":4170:4188  tokenId.toString() */\n      tag_173\n        /* \"contracts/nft.sol\":4170:4177  tokenId */\n      dup5\n        /* \"contracts/nft.sol\":4170:4186  tokenId.toString */\n      tag_174\n        /* \"contracts/nft.sol\":4170:4188  tokenId.toString() */\n      jump\t// in\n    tag_173:\n        /* \"contracts/nft.sol\":4144:4189  abi.encodePacked(baseURI, tokenId.toString()) */\n      add(0x20, mload(0x40))\n      tag_175\n      swap3\n      swap2\n      swap1\n      tag_176\n      jump\t// in\n    tag_175:\n      mload(0x40)\n      0x20\n      dup2\n      dup4\n      sub\n      sub\n      dup2\n      mstore\n      swap1\n      0x40\n      mstore\n        /* \"contracts/nft.sol\":4109:4195  bytes(baseURI).length > 0 ? string(abi.encodePacked(baseURI, tokenId.toString())) : \"\" */\n    tag_172:\n        /* \"contracts/nft.sol\":4102:4195  return bytes(baseURI).length > 0 ? string(abi.encodePacked(baseURI, tokenId.toString())) : \"\" */\n      swap2\n      pop\n      pop\n        /* \"contracts/nft.sol\":3885:4203  function _tokenURI(uint256 tokenId) public view returns (string memory) {\r... */\n      swap2\n      swap1\n      pop\n      jump\t// out\n        /* \"contracts/nft.sol\":3773:3877  function symbol() public view virtual override returns (string memory) {\r... */\n    tag_75:\n        /* \"contracts/nft.sol\":3829:3842  string memory */\n      0x60\n        /* \"contracts/nft.sol\":3862:3869  _symbol */\n      0x02\n        /* \"contracts/nft.sol\":3855:3869  return _symbol */\n      dup1\n      sload\n      tag_178\n      swap1\n      tag_109\n      jump\t// in\n    tag_178:\n      dup1\n      0x1f\n      add\n      0x20\n      dup1\n      swap2\n      div\n      mul\n      0x20\n      add\n      mload(0x40)\n      swap1\n      dup2\n      add\n      0x40\n      mstore\n      dup1\n      swap3\n      swap2\n      swap1\n      dup2\n      dup2\n      mstore\n      0x20\n      add\n      dup3\n      dup1\n      sload\n      tag_179\n      swap1\n      tag_109\n      jump\t// in\n    tag_179:\n      dup1\n      iszero\n      tag_180\n      jumpi\n      dup1\n      0x1f\n      lt\n      tag_181\n      jumpi\n      0x0100\n      dup1\n      dup4\n      sload\n      div\n      mul\n      dup4\n      mstore\n      swap2\n      0x20\n      add\n      swap2\n      jump(tag_180)\n    tag_181:\n      dup3\n      add\n      swap2\n      swap1\n      0x00\n      mstore\n      keccak256(0x00, 0x20)\n      swap1\n    tag_182:\n      dup2\n      sload\n      dup2\n      mstore\n      swap1\n      0x01\n      add\n      swap1\n      0x20\n      add\n      dup1\n      dup4\n      gt\n      tag_182\n      jumpi\n      dup3\n      swap1\n      sub\n      0x1f\n      and\n      dup3\n      add\n      swap2\n    tag_180:\n      pop\n      pop\n      pop\n      pop\n      pop\n      swap1\n      pop\n        /* \"contracts/nft.sol\":3773:3877  function symbol() public view virtual override returns (string memory) {\r... */\n      swap1\n      jump\t// out\n        /* \"contracts/nft.sol\":4920:5075  function setApprovalForAll(address operator, bool approved) public virtual override {\r... */\n    tag_80:\n        /* \"contracts/nft.sol\":5015:5067  _setApprovalForAll(_msgSender(), operator, approved) */\n      tag_184\n        /* \"contracts/nft.sol\":5034:5046  _msgSender() */\n      tag_185\n        /* \"contracts/nft.sol\":5034:5044  _msgSender */\n      tag_123\n        /* \"contracts/nft.sol\":5034:5046  _msgSender() */\n      jump\t// in\n    tag_185:\n        /* \"contracts/nft.sol\":5048:5056  operator */\n      dup4\n        /* \"contracts/nft.sol\":5058:5066  approved */\n      dup4\n        /* \"contracts/nft.sol\":5015:5033  _setApprovalForAll */\n      tag_186\n        /* \"contracts/nft.sol\":5015:5067  _setApprovalForAll(_msgSender(), operator, approved) */\n      jump\t// in\n    tag_184:\n        /* \"contracts/nft.sol\":4920:5075  function setApprovalForAll(address operator, bool approved) public virtual override {\r... */\n      pop\n      pop\n      jump\t// out\n        /* \"contracts/nft.sol\":5746:6068  function safeTransferFrom(\r... */\n    tag_84:\n        /* \"contracts/nft.sol\":5920:5961  _isApprovedOrOwner(_msgSender(), tokenId) */\n      tag_188\n        /* \"contracts/nft.sol\":5939:5951  _msgSender() */\n      tag_189\n        /* \"contracts/nft.sol\":5939:5949  _msgSender */\n      tag_123\n        /* \"contracts/nft.sol\":5939:5951  _msgSender() */\n      jump\t// in\n    tag_189:\n        /* \"contracts/nft.sol\":5953:5960  tokenId */\n      dup4\n        /* \"contracts/nft.sol\":5920:5938  _isApprovedOrOwner */\n      tag_135\n        /* \"contracts/nft.sol\":5920:5961  _isApprovedOrOwner(_msgSender(), tokenId) */\n      jump\t// in\n    tag_188:\n        /* \"contracts/nft.sol\":5912:6011  require(_isApprovedOrOwner(_msgSender(), tokenId), \"ERC721: caller is not token owner or approved\") */\n      tag_190\n      jumpi\n      mload(0x40)\n      0x08c379a000000000000000000000000000000000000000000000000000000000\n      dup2\n      mstore\n      0x04\n      add\n      tag_191\n      swap1\n      tag_138\n      jump\t// in\n    tag_191:\n      mload(0x40)\n      dup1\n      swap2\n      sub\n      swap1\n      revert\n    tag_190:\n        /* \"contracts/nft.sol\":6022:6060  _safeTransfer(from, to, tokenId, data) */\n      tag_192\n        /* \"contracts/nft.sol\":6036:6040  from */\n      dup5\n        /* \"contracts/nft.sol\":6042:6044  to */\n      dup5\n        /* \"contracts/nft.sol\":6046:6053  tokenId */\n      dup5\n        /* \"contracts/nft.sol\":6055:6059  data */\n      dup5\n        /* \"contracts/nft.sol\":6022:6035  _safeTransfer */\n      tag_193\n        /* \"contracts/nft.sol\":6022:6060  _safeTransfer(from, to, tokenId, data) */\n      jump\t// in\n    tag_192:\n        /* \"contracts/nft.sol\":5746:6068  function safeTransferFrom(\r... */\n      pop\n      pop\n      pop\n      pop\n      jump\t// out\n        /* \"contracts/nft.sol\":1894:2419  function tokenURI(uint256 tokenId) public view virtual override returns (string memory) {\r... */\n    tag_87:\n        /* \"contracts/nft.sol\":1967:1980  string memory */\n      0x60\n        /* \"contracts/nft.sol\":2001:2017  _exists(tokenId) */\n      tag_195\n        /* \"contracts/nft.sol\":2009:2016  tokenId */\n      dup3\n        /* \"contracts/nft.sol\":2001:2008  _exists */\n      tag_165\n        /* \"contracts/nft.sol\":2001:2017  _exists(tokenId) */\n      jump\t// in\n    tag_195:\n        /* \"contracts/nft.sol\":1993:2071  require(_exists(tokenId), \"ERC721URIStorage: URI query for nonexistent token\") */\n      tag_196\n      jumpi\n      mload(0x40)\n      0x08c379a000000000000000000000000000000000000000000000000000000000\n      dup2\n      mstore\n      0x04\n      add\n      tag_197\n      swap1\n      tag_198\n      jump\t// in\n    tag_197:\n      mload(0x40)\n      dup1\n      swap2\n      sub\n      swap1\n      revert\n    tag_196:\n        /* \"contracts/nft.sol\":2084:2107  string memory _tokenUri */\n      0x00\n        /* \"contracts/nft.sol\":2110:2120  _tokenURIs */\n      0x09\n        /* \"contracts/nft.sol\":2110:2129  _tokenURIs[tokenId] */\n      0x00\n        /* \"contracts/nft.sol\":2121:2128  tokenId */\n      dup5\n        /* \"contracts/nft.sol\":2110:2129  _tokenURIs[tokenId] */\n      dup2\n      mstore\n      0x20\n      add\n      swap1\n      dup2\n      mstore\n      0x20\n      add\n      0x00\n      keccak256\n        /* \"contracts/nft.sol\":2084:2129  string memory _tokenUri = _tokenURIs[tokenId] */\n      dup1\n      sload\n      tag_199\n      swap1\n      tag_109\n      jump\t// in\n    tag_199:\n      dup1\n      0x1f\n      add\n      0x20\n      dup1\n      swap2\n      div\n      mul\n      0x20\n      add\n      mload(0x40)\n      swap1\n      dup2\n      add\n      0x40\n      mstore\n      dup1\n      swap3\n      swap2\n      swap1\n      dup2\n      dup2\n      mstore\n      0x20\n      add\n      dup3\n      dup1\n      sload\n      tag_200\n      swap1\n      tag_109\n      jump\t// in\n    tag_200:\n      dup1\n      iszero\n      tag_201\n      jumpi\n      dup1\n      0x1f\n      lt\n      tag_202\n      jumpi\n      0x0100\n      dup1\n      dup4\n      sload\n      div\n      mul\n      dup4\n      mstore\n      swap2\n      0x20\n      add\n      swap2\n      jump(tag_201)\n    tag_202:\n      dup3\n      add\n      swap2\n      swap1\n      0x00\n      mstore\n      keccak256(0x00, 0x20)\n      swap1\n    tag_203:\n      dup2\n      sload\n      dup2\n      mstore\n      swap1\n      0x01\n      add\n      swap1\n      0x20\n      add\n      dup1\n      dup4\n      gt\n      tag_203\n      jumpi\n      dup3\n      swap1\n      sub\n      0x1f\n      and\n      dup3\n      add\n      swap2\n    tag_201:\n      pop\n      pop\n      pop\n      pop\n      pop\n      swap1\n      pop\n        /* \"contracts/nft.sol\":2140:2158  string memory base */\n      0x00\n        /* \"contracts/nft.sol\":2161:2171  _baseURI() */\n      tag_204\n        /* \"contracts/nft.sol\":2161:2169  _baseURI */\n      tag_170\n        /* \"contracts/nft.sol\":2161:2171  _baseURI() */\n      jump\t// in\n    tag_204:\n        /* \"contracts/nft.sol\":2140:2171  string memory base = _baseURI() */\n      swap1\n      pop\n        /* \"contracts/nft.sol\":2210:2211  0 */\n      0x00\n        /* \"contracts/nft.sol\":2194:2198  base */\n      dup2\n        /* \"contracts/nft.sol\":2188:2206  bytes(base).length */\n      mload\n        /* \"contracts/nft.sol\":2188:2211  bytes(base).length == 0 */\n      eq\n        /* \"contracts/nft.sol\":2184:2256  if (bytes(base).length == 0) {\r... */\n      iszero\n      tag_205\n      jumpi\n        /* \"contracts/nft.sol\":2235:2244  _tokenUri */\n      dup2\n        /* \"contracts/nft.sol\":2228:2244  return _tokenUri */\n      swap3\n      pop\n      pop\n      pop\n      jump(tag_194)\n        /* \"contracts/nft.sol\":2184:2256  if (bytes(base).length == 0) {\r... */\n    tag_205:\n        /* \"contracts/nft.sol\":2296:2297  0 */\n      0x00\n        /* \"contracts/nft.sol\":2276:2285  _tokenUri */\n      dup3\n        /* \"contracts/nft.sol\":2270:2293  bytes(_tokenUri).length */\n      mload\n        /* \"contracts/nft.sol\":2270:2297  bytes(_tokenUri).length > 0 */\n      gt\n        /* \"contracts/nft.sol\":2266:2374  if (bytes(_tokenUri).length > 0) {\r... */\n      iszero\n      tag_206\n      jumpi\n        /* \"contracts/nft.sol\":2345:2349  base */\n      dup1\n        /* \"contracts/nft.sol\":2351:2360  _tokenUri */\n      dup3\n        /* \"contracts/nft.sol\":2328:2361  abi.encodePacked(base, _tokenUri) */\n      add(0x20, mload(0x40))\n      tag_207\n      swap3\n      swap2\n      swap1\n      tag_176\n      jump\t// in\n    tag_207:\n      mload(0x40)\n      0x20\n      dup2\n      dup4\n      sub\n      sub\n      dup2\n      mstore\n      swap1\n      0x40\n      mstore\n        /* \"contracts/nft.sol\":2314:2362  return string(abi.encodePacked(base, _tokenUri)) */\n      swap3\n      pop\n      pop\n      pop\n      jump(tag_194)\n        /* \"contracts/nft.sol\":2266:2374  if (bytes(_tokenUri).length > 0) {\r... */\n    tag_206:\n        /* \"contracts/nft.sol\":2393:2411  _tokenURI(tokenId) */\n      tag_208\n        /* \"contracts/nft.sol\":2403:2410  tokenId */\n      dup5\n        /* \"contracts/nft.sol\":2393:2402  _tokenURI */\n      tag_72\n        /* \"contracts/nft.sol\":2393:2411  _tokenURI(tokenId) */\n      jump\t// in\n    tag_208:\n        /* \"contracts/nft.sol\":2386:2411  return _tokenURI(tokenId) */\n      swap3\n      pop\n      pop\n      pop\n        /* \"contracts/nft.sol\":1894:2419  function tokenURI(uint256 tokenId) public view virtual override returns (string memory) {\r... */\n    tag_194:\n      swap2\n      swap1\n      pop\n      jump\t// out\n        /* \"contracts/nft.sol\":3105:3215  function getTokenCurrent() public view virtual returns (uint256) {\r... */\n    tag_90:\n        /* \"contracts/nft.sol\":3161:3168  uint256 */\n      0x00\n        /* \"contracts/nft.sol\":3188:3207  _tokenIds.current() */\n      tag_210\n        /* \"contracts/nft.sol\":3188:3197  _tokenIds */\n      0x00\n        /* \"contracts/nft.sol\":3188:3205  _tokenIds.current */\n      tag_145\n        /* \"contracts/nft.sol\":3188:3207  _tokenIds.current() */\n      jump\t// in\n    tag_210:\n        /* \"contracts/nft.sol\":3181:3207  return _tokenIds.current() */\n      swap1\n      pop\n        /* \"contracts/nft.sol\":3105:3215  function getTokenCurrent() public view virtual returns (uint256) {\r... */\n      swap1\n      jump\t// out\n        /* \"contracts/nft.sol\":5085:5249  function isApprovedForAll(address owner, address operator) public view virtual override returns (bool) {\r... */\n    tag_95:\n        /* \"contracts/nft.sol\":5182:5186  bool */\n      0x00\n        /* \"contracts/nft.sol\":5206:5224  _operatorApprovals */\n      0x08\n        /* \"contracts/nft.sol\":5206:5231  _operatorApprovals[owner] */\n      0x00\n        /* \"contracts/nft.sol\":5225:5230  owner */\n      dup5\n        /* \"contracts/nft.sol\":5206:5231  _operatorApprovals[owner] */\n      0xffffffffffffffffffffffffffffffffffffffff\n      and\n      0xffffffffffffffffffffffffffffffffffffffff\n      and\n      dup2\n      mstore\n      0x20\n      add\n      swap1\n      dup2\n      mstore\n      0x20\n      add\n      0x00\n      keccak256\n        /* \"contracts/nft.sol\":5206:5241  _operatorApprovals[owner][operator] */\n      0x00\n        /* \"contracts/nft.sol\":5232:5240  operator */\n      dup4\n        /* \"contracts/nft.sol\":5206:5241  _operatorApprovals[owner][operator] */\n      0xffffffffffffffffffffffffffffffffffffffff\n      and\n      0xffffffffffffffffffffffffffffffffffffffff\n      and\n      dup2\n      mstore\n      0x20\n      add\n      swap1\n      dup2\n      mstore\n      0x20\n      add\n      0x00\n      keccak256\n      0x00\n      swap1\n      sload\n      swap1\n      0x0100\n      exp\n      swap1\n      div\n      0xff\n      and\n        /* \"contracts/nft.sol\":5199:5241  return _operatorApprovals[owner][operator] */\n      swap1\n      pop\n        /* \"contracts/nft.sol\":5085:5249  function isApprovedForAll(address owner, address operator) public view virtual override returns (bool) {\r... */\n      swap3\n      swap2\n      pop\n      pop\n      jump\t// out\n        /* \"contracts/nft.sol\":3424:3656  function collaboratotPercentageOf(uint256 tokenId) public view virtual returns (uint256[] memory) {\r... */\n    tag_99:\n        /* \"contracts/nft.sol\":3504:3520  uint256[] memory */\n      0x60\n        /* \"contracts/nft.sol\":3533:3572  uint256[] memory collaboratorPercentage */\n      0x00\n        /* \"contracts/nft.sol\":3575:3599  _collaboratorsPercentage */\n      0x05\n        /* \"contracts/nft.sol\":3575:3608  _collaboratorsPercentage[tokenId] */\n      0x00\n        /* \"contracts/nft.sol\":3600:3607  tokenId */\n      dup5\n        /* \"contracts/nft.sol\":3575:3608  _collaboratorsPercentage[tokenId] */\n      dup2\n      mstore\n      0x20\n      add\n      swap1\n      dup2\n      mstore\n      0x20\n      add\n      0x00\n      keccak256\n        /* \"contracts/nft.sol\":3533:3608  uint256[] memory collaboratorPercentage = _collaboratorsPercentage[tokenId] */\n      dup1\n      sload\n      dup1\n      0x20\n      mul\n      0x20\n      add\n      mload(0x40)\n      swap1\n      dup2\n      add\n      0x40\n      mstore\n      dup1\n      swap3\n      swap2\n      swap1\n      dup2\n      dup2\n      mstore\n      0x20\n      add\n      dup3\n      dup1\n      sload\n      dup1\n      iszero\n      tag_213\n      jumpi\n      0x20\n      mul\n      dup3\n      add\n      swap2\n      swap1\n      0x00\n      mstore\n      keccak256(0x00, 0x20)\n      swap1\n    tag_214:\n      dup2\n      sload\n      dup2\n      mstore\n      0x20\n      add\n      swap1\n      0x01\n      add\n      swap1\n      dup1\n      dup4\n      gt\n      tag_214\n      jumpi\n    tag_213:\n      pop\n      pop\n      pop\n      pop\n      pop\n      swap1\n      pop\n        /* \"contracts/nft.sol\":3626:3648  collaboratorPercentage */\n      dup1\n        /* \"contracts/nft.sol\":3619:3648  return collaboratorPercentage */\n      swap2\n      pop\n      pop\n        /* \"contracts/nft.sol\":3424:3656  function collaboratotPercentageOf(uint256 tokenId) public view virtual returns (uint256[] memory) {\r... */\n      swap2\n      swap1\n      pop\n      jump\t// out\n        /* \"@openzeppelin/contracts@4.6.0/utils/introspection/ERC165.sol\":829:984  function supportsInterface(bytes4 interfaceId) public view virtual override returns (bool) {... */\n    tag_106:\n        /* \"@openzeppelin/contracts@4.6.0/utils/introspection/ERC165.sol\":914:918  bool */\n      0x00\n        /* \"@openzeppelin/contracts@4.6.0/utils/introspection/ERC165.sol\":952:977  type(IERC165).interfaceId */\n      0x01ffc9a700000000000000000000000000000000000000000000000000000000\n        /* \"@openzeppelin/contracts@4.6.0/utils/introspection/ERC165.sol\":937:977  interfaceId == type(IERC165).interfaceId */\n      not(0xffffffffffffffffffffffffffffffffffffffffffffffffffffffff)\n      and\n        /* \"@openzeppelin/contracts@4.6.0/utils/introspection/ERC165.sol\":937:948  interfaceId */\n      dup3\n        /* \"@openzeppelin/contracts@4.6.0/utils/introspection/ERC165.sol\":937:977  interfaceId == type(IERC165).interfaceId */\n      not(0xffffffffffffffffffffffffffffffffffffffffffffffffffffffff)\n      and\n      eq\n        /* \"@openzeppelin/contracts@4.6.0/utils/introspection/ERC165.sol\":930:977  return interfaceId == type(IERC165).interfaceId */\n      swap1\n      pop\n        /* \"@openzeppelin/contracts@4.6.0/utils/introspection/ERC165.sol\":829:984  function supportsInterface(bytes4 interfaceId) public view virtual override returns (bool) {... */\n      swap2\n      swap1\n      pop\n      jump\t// out\n        /* \"contracts/nft.sol\":10286:10421  function _requireMinted(uint256 tokenId) internal view virtual {\r... */\n    tag_116:\n        /* \"contracts/nft.sol\":10368:10384  _exists(tokenId) */\n      tag_217\n        /* \"contracts/nft.sol\":10376:10383  tokenId */\n      dup2\n        /* \"contracts/nft.sol\":10368:10375  _exists */\n      tag_165\n        /* \"contracts/nft.sol\":10368:10384  _exists(tokenId) */\n      jump\t// in\n    tag_217:\n        /* \"contracts/nft.sol\":10360:10413  require(_exists(tokenId), \"ERC721: invalid token ID\") */\n      tag_218\n      jumpi\n      mload(0x40)\n      0x08c379a000000000000000000000000000000000000000000000000000000000\n      dup2\n      mstore\n      0x04\n      add\n      tag_219\n      swap1\n      tag_158\n      jump\t// in\n    tag_219:\n      mload(0x40)\n      dup1\n      swap2\n      sub\n      swap1\n      revert\n    tag_218:\n        /* \"contracts/nft.sol\":10286:10421  function _requireMinted(uint256 tokenId) internal view virtual {\r... */\n      pop\n      jump\t// out\n        /* \"@openzeppelin/contracts@4.6.0/utils/Context.sol\":640:736  function _msgSender() internal view virtual returns (address) {... */\n    tag_123:\n        /* \"@openzeppelin/contracts@4.6.0/utils/Context.sol\":693:700  address */\n      0x00\n        /* \"@openzeppelin/contracts@4.6.0/utils/Context.sol\":719:729  msg.sender */\n      caller\n        /* \"@openzeppelin/contracts@4.6.0/utils/Context.sol\":712:729  return msg.sender */\n      swap1\n      pop\n        /* \"@openzeppelin/contracts@4.6.0/utils/Context.sol\":640:736  function _msgSender() internal view virtual returns (address) {... */\n      swap1\n      jump\t// out\n        /* \"contracts/nft.sol\":9784:9955  function _approve(address to, uint256 tokenId) internal virtual {\r... */\n    tag_131:\n        /* \"contracts/nft.sol\":9886:9888  to */\n      dup2\n        /* \"contracts/nft.sol\":9859:9874  _tokenApprovals */\n      0x07\n        /* \"contracts/nft.sol\":9859:9883  _tokenApprovals[tokenId] */\n      0x00\n        /* \"contracts/nft.sol\":9875:9882  tokenId */\n      dup4\n        /* \"contracts/nft.sol\":9859:9883  _tokenApprovals[tokenId] */\n      dup2\n      mstore\n      0x20\n      add\n      swap1\n      dup2\n      mstore\n      0x20\n      add\n      0x00\n      keccak256\n      0x00\n        /* \"contracts/nft.sol\":9859:9888  _tokenApprovals[tokenId] = to */\n      0x0100\n      exp\n      dup2\n      sload\n      dup2\n      0xffffffffffffffffffffffffffffffffffffffff\n      mul\n      not\n      and\n      swap1\n      dup4\n      0xffffffffffffffffffffffffffffffffffffffff\n      and\n      mul\n      or\n      swap1\n      sstore\n      pop\n        /* \"contracts/nft.sol\":9939:9946  tokenId */\n      dup1\n        /* \"contracts/nft.sol\":9935:9937  to */\n      dup3\n        /* \"contracts/nft.sol\":9904:9947  Approval(nft.ownerOf(tokenId), to, tokenId) */\n      0xffffffffffffffffffffffffffffffffffffffff\n      and\n        /* \"contracts/nft.sol\":9913:9933  nft.ownerOf(tokenId) */\n      tag_222\n        /* \"contracts/nft.sol\":9925:9932  tokenId */\n      dup4\n        /* \"contracts/nft.sol\":9913:9924  nft.ownerOf */\n      tag_62\n        /* \"contracts/nft.sol\":9913:9933  nft.ownerOf(tokenId) */\n      jump\t// in\n    tag_222:\n        /* \"contracts/nft.sol\":9904:9947  Approval(nft.ownerOf(tokenId), to, tokenId) */\n      0xffffffffffffffffffffffffffffffffffffffff\n      and\n      0x8c5be1e5ebec7d5bd14f71427d1e84f3dd0314c0f7b2291e5b200ac8c7c3b925\n      mload(0x40)\n      mload(0x40)\n      dup1\n      swap2\n      sub\n      swap1\n      log4\n        /* \"contracts/nft.sol\":9784:9955  function _approve(address to, uint256 tokenId) internal virtual {\r... */\n      pop\n      pop\n      jump\t// out\n        /* \"contracts/nft.sol\":6862:7123  function _isApprovedOrOwner(address spender, uint256 tokenId) internal view virtual returns (bool) {\r... */\n    tag_135:\n        /* \"contracts/nft.sol\":6955:6959  bool */\n      0x00\n        /* \"contracts/nft.sol\":6972:6985  address owner */\n      dup1\n        /* \"contracts/nft.sol\":6988:7008  nft.ownerOf(tokenId) */\n      tag_224\n        /* \"contracts/nft.sol\":7000:7007  tokenId */\n      dup4\n        /* \"contracts/nft.sol\":6988:6999  nft.ownerOf */\n      tag_62\n        /* \"contracts/nft.sol\":6988:7008  nft.ownerOf(tokenId) */\n      jump\t// in\n    tag_224:\n        /* \"contracts/nft.sol\":6972:7008  address owner = nft.ownerOf(tokenId) */\n      swap1\n      pop\n        /* \"contracts/nft.sol\":7038:7043  owner */\n      dup1\n        /* \"contracts/nft.sol\":7027:7043  spender == owner */\n      0xffffffffffffffffffffffffffffffffffffffff\n      and\n        /* \"contracts/nft.sol\":7027:7034  spender */\n      dup5\n        /* \"contracts/nft.sol\":7027:7043  spender == owner */\n      0xffffffffffffffffffffffffffffffffffffffff\n      and\n      eq\n        /* \"contracts/nft.sol\":7027:7079  spender == owner || isApprovedForAll(owner, spender) */\n      dup1\n      tag_225\n      jumpi\n      pop\n        /* \"contracts/nft.sol\":7047:7079  isApprovedForAll(owner, spender) */\n      tag_226\n        /* \"contracts/nft.sol\":7064:7069  owner */\n      dup2\n        /* \"contracts/nft.sol\":7071:7078  spender */\n      dup6\n        /* \"contracts/nft.sol\":7047:7063  isApprovedForAll */\n      tag_95\n        /* \"contracts/nft.sol\":7047:7079  isApprovedForAll(owner, spender) */\n      jump\t// in\n    tag_226:\n        /* \"contracts/nft.sol\":7027:7079  spender == owner || isApprovedForAll(owner, spender) */\n    tag_225:\n        /* \"contracts/nft.sol\":7027:7114  spender == owner || isApprovedForAll(owner, spender) || getApproved(tokenId) == spender */\n      dup1\n      tag_227\n      jumpi\n      pop\n        /* \"contracts/nft.sol\":7107:7114  spender */\n      dup4\n        /* \"contracts/nft.sol\":7083:7114  getApproved(tokenId) == spender */\n      0xffffffffffffffffffffffffffffffffffffffff\n      and\n        /* \"contracts/nft.sol\":7083:7103  getApproved(tokenId) */\n      tag_228\n        /* \"contracts/nft.sol\":7095:7102  tokenId */\n      dup5\n        /* \"contracts/nft.sol\":7083:7094  getApproved */\n      tag_37\n        /* \"contracts/nft.sol\":7083:7103  getApproved(tokenId) */\n      jump\t// in\n    tag_228:\n        /* \"contracts/nft.sol\":7083:7114  getApproved(tokenId) == spender */\n      0xffffffffffffffffffffffffffffffffffffffff\n      and\n      eq\n        /* \"contracts/nft.sol\":7027:7114  spender == owner || isApprovedForAll(owner, spender) || getApproved(tokenId) == spender */\n    tag_227:\n        /* \"contracts/nft.sol\":7019:7115  return (spender == owner || isApprovedForAll(owner, spender) || getApproved(tokenId) == spender) */\n      swap2\n      pop\n      pop\n        /* \"contracts/nft.sol\":6862:7123  function _isApprovedOrOwner(address spender, uint256 tokenId) internal view virtual returns (bool) {\r... */\n      swap3\n      swap2\n      pop\n      pop\n      jump\t// out\n        /* \"contracts/nft.sol\":9017:9774  function _transfer(\r... */\n    tag_140:\n        /* \"contracts/nft.sol\":9173:9177  from */\n      dup3\n        /* \"contracts/nft.sol\":9149:9177  nft.ownerOf(tokenId) == from */\n      0xffffffffffffffffffffffffffffffffffffffff\n      and\n        /* \"contracts/nft.sol\":9149:9169  nft.ownerOf(tokenId) */\n      tag_230\n        /* \"contracts/nft.sol\":9161:9168  tokenId */\n      dup3\n        /* \"contracts/nft.sol\":9149:9160  nft.ownerOf */\n      tag_62\n        /* \"contracts/nft.sol\":9149:9169  nft.ownerOf(tokenId) */\n      jump\t// in\n    tag_230:\n        /* \"contracts/nft.sol\":9149:9177  nft.ownerOf(tokenId) == from */\n      0xffffffffffffffffffffffffffffffffffffffff\n      and\n      eq\n        /* \"contracts/nft.sol\":9141:9219  require(nft.ownerOf(tokenId) == from, \"ERC721: transfer from incorrect owner\") */\n      tag_231\n      jumpi\n      mload(0x40)\n      0x08c379a000000000000000000000000000000000000000000000000000000000\n      dup2\n      mstore\n      0x04\n      add\n      tag_232\n      swap1\n      tag_233\n      jump\t// in\n    tag_232:\n      mload(0x40)\n      dup1\n      swap2\n      sub\n      swap1\n      revert\n    tag_231:\n        /* \"contracts/nft.sol\":9252:9253  0 */\n      0x00\n        /* \"contracts/nft.sol\":9238:9254  to != address(0) */\n      0xffffffffffffffffffffffffffffffffffffffff\n      and\n        /* \"contracts/nft.sol\":9238:9240  to */\n      dup3\n        /* \"contracts/nft.sol\":9238:9254  to != address(0) */\n      0xffffffffffffffffffffffffffffffffffffffff\n      and\n      eq\n      iszero\n        /* \"contracts/nft.sol\":9230:9295  require(to != address(0), \"ERC721: transfer to the zero address\") */\n      tag_234\n      jumpi\n      mload(0x40)\n      0x08c379a000000000000000000000000000000000000000000000000000000000\n      dup2\n      mstore\n      0x04\n      add\n      tag_235\n      swap1\n      tag_236\n      jump\t// in\n    tag_235:\n      mload(0x40)\n      dup1\n      swap2\n      sub\n      swap1\n      revert\n    tag_234:\n        /* \"contracts/nft.sol\":9308:9347  _beforeTokenTransfer(from, to, tokenId) */\n      tag_237\n        /* \"contracts/nft.sol\":9329:9333  from */\n      dup4\n        /* \"contracts/nft.sol\":9335:9337  to */\n      dup4\n        /* \"contracts/nft.sol\":9339:9346  tokenId */\n      dup4\n        /* \"contracts/nft.sol\":9308:9328  _beforeTokenTransfer */\n      tag_238\n        /* \"contracts/nft.sol\":9308:9347  _beforeTokenTransfer(from, to, tokenId) */\n      jump\t// in\n    tag_237:\n        /* \"contracts/nft.sol\":9392:9396  from */\n      dup3\n        /* \"contracts/nft.sol\":9368:9396  nft.ownerOf(tokenId) == from */\n      0xffffffffffffffffffffffffffffffffffffffff\n      and\n        /* \"contracts/nft.sol\":9368:9388  nft.ownerOf(tokenId) */\n      tag_239\n        /* \"contracts/nft.sol\":9380:9387  tokenId */\n      dup3\n        /* \"contracts/nft.sol\":9368:9379  nft.ownerOf */\n      tag_62\n        /* \"contracts/nft.sol\":9368:9388  nft.ownerOf(tokenId) */\n      jump\t// in\n    tag_239:\n        /* \"contracts/nft.sol\":9368:9396  nft.ownerOf(tokenId) == from */\n      0xffffffffffffffffffffffffffffffffffffffff\n      and\n      eq\n        /* \"contracts/nft.sol\":9360:9438  require(nft.ownerOf(tokenId) == from, \"ERC721: transfer from incorrect owner\") */\n      tag_240\n      jumpi\n      mload(0x40)\n      0x08c379a000000000000000000000000000000000000000000000000000000000\n      dup2\n      mstore\n      0x04\n      add\n      tag_241\n      swap1\n      tag_233\n      jump\t// in\n    tag_241:\n      mload(0x40)\n      dup1\n      swap2\n      sub\n      swap1\n      revert\n    tag_240:\n        /* \"contracts/nft.sol\":9510:9525  _tokenApprovals */\n      0x07\n        /* \"contracts/nft.sol\":9510:9534  _tokenApprovals[tokenId] */\n      0x00\n        /* \"contracts/nft.sol\":9526:9533  tokenId */\n      dup3\n        /* \"contracts/nft.sol\":9510:9534  _tokenApprovals[tokenId] */\n      dup2\n      mstore\n      0x20\n      add\n      swap1\n      dup2\n      mstore\n      0x20\n      add\n      0x00\n      keccak256\n      0x00\n        /* \"contracts/nft.sol\":9503:9534  delete _tokenApprovals[tokenId] */\n      0x0100\n      exp\n      dup2\n      sload\n      swap1\n      0xffffffffffffffffffffffffffffffffffffffff\n      mul\n      not\n      and\n      swap1\n      sstore\n        /* \"contracts/nft.sol\":9593:9594  1 */\n      0x01\n        /* \"contracts/nft.sol\":9574:9583  _balances */\n      0x06\n        /* \"contracts/nft.sol\":9574:9589  _balances[from] */\n      0x00\n        /* \"contracts/nft.sol\":9584:9588  from */\n      dup6\n        /* \"contracts/nft.sol\":9574:9589  _balances[from] */\n      0xffffffffffffffffffffffffffffffffffffffff\n      and\n      0xffffffffffffffffffffffffffffffffffffffff\n      and\n      dup2\n      mstore\n      0x20\n      add\n      swap1\n      dup2\n      mstore\n      0x20\n      add\n      0x00\n      keccak256\n      0x00\n        /* \"contracts/nft.sol\":9574:9594  _balances[from] -= 1 */\n      dup3\n      dup3\n      sload\n      sub\n      swap3\n      pop\n      pop\n      dup2\n      swap1\n      sstore\n      pop\n        /* \"contracts/nft.sol\":9626:9627  1 */\n      0x01\n        /* \"contracts/nft.sol\":9609:9618  _balances */\n      0x06\n        /* \"contracts/nft.sol\":9609:9622  _balances[to] */\n      0x00\n        /* \"contracts/nft.sol\":9619:9621  to */\n      dup5\n        /* \"contracts/nft.sol\":9609:9622  _balances[to] */\n      0xffffffffffffffffffffffffffffffffffffffff\n      and\n      0xffffffffffffffffffffffffffffffffffffffff\n      and\n      dup2\n      mstore\n      0x20\n      add\n      swap1\n      dup2\n      mstore\n      0x20\n      add\n      0x00\n      keccak256\n      0x00\n        /* \"contracts/nft.sol\":9609:9627  _balances[to] += 1 */\n      dup3\n      dup3\n      sload\n      add\n      swap3\n      pop\n      pop\n      dup2\n      swap1\n      sstore\n      pop\n        /* \"contracts/nft.sol\":9668:9670  to */\n      dup2\n        /* \"contracts/nft.sol\":9649:9656  _owners */\n      0x03\n        /* \"contracts/nft.sol\":9649:9665  _owners[tokenId] */\n      0x00\n        /* \"contracts/nft.sol\":9657:9664  tokenId */\n      dup4\n        /* \"contracts/nft.sol\":9649:9665  _owners[tokenId] */\n      dup2\n      mstore\n      0x20\n      add\n      swap1\n      dup2\n      mstore\n      0x20\n      add\n      0x00\n      keccak256\n      0x00\n        /* \"contracts/nft.sol\":9649:9670  _owners[tokenId] = to */\n      0x0100\n      exp\n      dup2\n      sload\n      dup2\n      0xffffffffffffffffffffffffffffffffffffffff\n      mul\n      not\n      and\n      swap1\n      dup4\n      0xffffffffffffffffffffffffffffffffffffffff\n      and\n      mul\n      or\n      swap1\n      sstore\n      pop\n        /* \"contracts/nft.sol\":9707:9714  tokenId */\n      dup1\n        /* \"contracts/nft.sol\":9703:9705  to */\n      dup3\n        /* \"contracts/nft.sol\":9688:9715  Transfer(from, to, tokenId) */\n      0xffffffffffffffffffffffffffffffffffffffff\n      and\n        /* \"contracts/nft.sol\":9697:9701  from */\n      dup5\n        /* \"contracts/nft.sol\":9688:9715  Transfer(from, to, tokenId) */\n      0xffffffffffffffffffffffffffffffffffffffff\n      and\n      0xddf252ad1be2c89b69c2b068fc378daa952ba7f163c4a11628f55a4df523b3ef\n      mload(0x40)\n      mload(0x40)\n      dup1\n      swap2\n      sub\n      swap1\n      log4\n        /* \"contracts/nft.sol\":9728:9766  _afterTokenTransfer(from, to, tokenId) */\n      tag_242\n        /* \"contracts/nft.sol\":9748:9752  from */\n      dup4\n        /* \"contracts/nft.sol\":9754:9756  to */\n      dup4\n        /* \"contracts/nft.sol\":9758:9765  tokenId */\n      dup4\n        /* \"contracts/nft.sol\":9728:9747  _afterTokenTransfer */\n      tag_243\n        /* \"contracts/nft.sol\":9728:9766  _afterTokenTransfer(from, to, tokenId) */\n      jump\t// in\n    tag_242:\n        /* \"contracts/nft.sol\":9017:9774  function _transfer(\r... */\n      pop\n      pop\n      pop\n      jump\t// out\n        /* \"@openzeppelin/contracts@4.6.0/utils/Counters.sol\":945:1068  function increment(Counter storage counter) internal {... */\n    tag_143:\n        /* \"@openzeppelin/contracts@4.6.0/utils/Counters.sol\":1050:1051  1 */\n      0x01\n        /* \"@openzeppelin/contracts@4.6.0/utils/Counters.sol\":1032:1039  counter */\n      dup2\n        /* \"@openzeppelin/contracts@4.6.0/utils/Counters.sol\":1032:1046  counter._value */\n      0x00\n      add\n      0x00\n        /* \"@openzeppelin/contracts@4.6.0/utils/Counters.sol\":1032:1051  counter._value += 1 */\n      dup3\n      dup3\n      sload\n      add\n      swap3\n      pop\n      pop\n      dup2\n      swap1\n      sstore\n      pop\n        /* \"@openzeppelin/contracts@4.6.0/utils/Counters.sol\":945:1068  function increment(Counter storage counter) internal {... */\n      pop\n      jump\t// out\n        /* \"@openzeppelin/contracts@4.6.0/utils/Counters.sol\":827:939  function current(Counter storage counter) internal view returns (uint256) {... */\n    tag_145:\n        /* \"@openzeppelin/contracts@4.6.0/utils/Counters.sol\":892:899  uint256 */\n      0x00\n        /* \"@openzeppelin/contracts@4.6.0/utils/Counters.sol\":918:925  counter */\n      dup2\n        /* \"@openzeppelin/contracts@4.6.0/utils/Counters.sol\":918:932  counter._value */\n      0x00\n      add\n      sload\n        /* \"@openzeppelin/contracts@4.6.0/utils/Counters.sol\":911:932  return counter._value */\n      swap1\n      pop\n        /* \"@openzeppelin/contracts@4.6.0/utils/Counters.sol\":827:939  function current(Counter storage counter) internal view returns (uint256) {... */\n      swap2\n      swap1\n      pop\n      jump\t// out\n        /* \"contracts/nft.sol\":7131:7340  function _safeMint(address to,address[] memory collaborator,uint256[] memory collaboratorPercent,uint256 tokenId) internal virtual {\r... */\n    tag_147:\n        /* \"contracts/nft.sol\":7273:7332  _safeMint(to, collaborator,collaboratorPercent,tokenId, \"\") */\n      tag_247\n        /* \"contracts/nft.sol\":7283:7285  to */\n      dup5\n        /* \"contracts/nft.sol\":7287:7299  collaborator */\n      dup5\n        /* \"contracts/nft.sol\":7300:7319  collaboratorPercent */\n      dup5\n        /* \"contracts/nft.sol\":7320:7327  tokenId */\n      dup5\n        /* \"contracts/nft.sol\":7273:7332  _safeMint(to, collaborator,collaboratorPercent,tokenId, \"\") */\n      mload(0x40)\n      dup1\n      0x20\n      add\n      0x40\n      mstore\n      dup1\n      0x00\n      dup2\n      mstore\n      pop\n        /* \"contracts/nft.sol\":7273:7282  _safeMint */\n      tag_248\n        /* \"contracts/nft.sol\":7273:7332  _safeMint(to, collaborator,collaboratorPercent,tokenId, \"\") */\n      jump\t// in\n    tag_247:\n        /* \"contracts/nft.sol\":7131:7340  function _safeMint(address to,address[] memory collaborator,uint256[] memory collaboratorPercent,uint256 tokenId) internal virtual {\r... */\n      pop\n      pop\n      pop\n      pop\n      jump\t// out\n        /* \"contracts/nft.sol\":2429:2646  function _setTokenURI(uint256 tokenId, string memory _tokenUri) internal virtual {\r... */\n    tag_149:\n        /* \"contracts/nft.sol\":2529:2545  _exists(tokenId) */\n      tag_250\n        /* \"contracts/nft.sol\":2537:2544  tokenId */\n      dup3\n        /* \"contracts/nft.sol\":2529:2536  _exists */\n      tag_165\n        /* \"contracts/nft.sol\":2529:2545  _exists(tokenId) */\n      jump\t// in\n    tag_250:\n        /* \"contracts/nft.sol\":2521:2596  require(_exists(tokenId), \"ERC721URIStorage: URI set of nonexistent token\") */\n      tag_251\n      jumpi\n      mload(0x40)\n      0x08c379a000000000000000000000000000000000000000000000000000000000\n      dup2\n      mstore\n      0x04\n      add\n      tag_252\n      swap1\n      tag_253\n      jump\t// in\n    tag_252:\n      mload(0x40)\n      dup1\n      swap2\n      sub\n      swap1\n      revert\n    tag_251:\n        /* \"contracts/nft.sol\":2629:2638  _tokenUri */\n      dup1\n        /* \"contracts/nft.sol\":2607:2617  _tokenURIs */\n      0x09\n        /* \"contracts/nft.sol\":2607:2626  _tokenURIs[tokenId] */\n      0x00\n        /* \"contracts/nft.sol\":2618:2625  tokenId */\n      dup5\n        /* \"contracts/nft.sol\":2607:2626  _tokenURIs[tokenId] */\n      dup2\n      mstore\n      0x20\n      add\n      swap1\n      dup2\n      mstore\n      0x20\n      add\n      0x00\n      keccak256\n        /* \"contracts/nft.sol\":2607:2638  _tokenURIs[tokenId] = _tokenUri */\n      swap1\n      dup1\n      mload\n      swap1\n      0x20\n      add\n      swap1\n      tag_254\n      swap3\n      swap2\n      swap1\n      tag_255\n      jump\t// in\n    tag_254:\n      pop\n        /* \"contracts/nft.sol\":2429:2646  function _setTokenURI(uint256 tokenId, string memory _tokenUri) internal virtual {\r... */\n      pop\n      pop\n      jump\t// out\n        /* \"contracts/nft.sol\":6725:6852  function _exists(uint256 tokenId) internal view virtual returns (bool) {\r... */\n    tag_165:\n        /* \"contracts/nft.sol\":6790:6794  bool */\n      0x00\n        /* \"contracts/nft.sol\":6842:6843  0 */\n      dup1\n        /* \"contracts/nft.sol\":6814:6844  _owners[tokenId] != address(0) */\n      0xffffffffffffffffffffffffffffffffffffffff\n      and\n        /* \"contracts/nft.sol\":6814:6821  _owners */\n      0x03\n        /* \"contracts/nft.sol\":6814:6830  _owners[tokenId] */\n      0x00\n        /* \"contracts/nft.sol\":6822:6829  tokenId */\n      dup5\n        /* \"contracts/nft.sol\":6814:6830  _owners[tokenId] */\n      dup2\n      mstore\n      0x20\n      add\n      swap1\n      dup2\n      mstore\n      0x20\n      add\n      0x00\n      keccak256\n      0x00\n      swap1\n      sload\n      swap1\n      0x0100\n      exp\n      swap1\n      div\n      0xffffffffffffffffffffffffffffffffffffffff\n      and\n        /* \"contracts/nft.sol\":6814:6844  _owners[tokenId] != address(0) */\n      0xffffffffffffffffffffffffffffffffffffffff\n      and\n      eq\n      iszero\n        /* \"contracts/nft.sol\":6807:6844  return _owners[tokenId] != address(0) */\n      swap1\n      pop\n        /* \"contracts/nft.sol\":6725:6852  function _exists(uint256 tokenId) internal view virtual returns (bool) {\r... */\n      swap2\n      swap1\n      pop\n      jump\t// out\n        /* \"contracts/nft.sol\":4211:4305  function _baseURI() internal view virtual returns (string memory) {\r... */\n    tag_170:\n        /* \"contracts/nft.sol\":4262:4275  string memory */\n      0x60\n        /* \"contracts/nft.sol\":4288:4297  return \"\" */\n      mload(0x40)\n      dup1\n      0x20\n      add\n      0x40\n      mstore\n      dup1\n      0x00\n      dup2\n      mstore\n      pop\n      swap1\n      pop\n        /* \"contracts/nft.sol\":4211:4305  function _baseURI() internal view virtual returns (string memory) {\r... */\n      swap1\n      jump\t// out\n        /* \"@openzeppelin/contracts@4.6.0/utils/Strings.sol\":328:1031  function toString(uint256 value) internal pure returns (string memory) {... */\n    tag_174:\n        /* \"@openzeppelin/contracts@4.6.0/utils/Strings.sol\":384:397  string memory */\n      0x60\n        /* \"@openzeppelin/contracts@4.6.0/utils/Strings.sol\":610:611  0 */\n      0x00\n        /* \"@openzeppelin/contracts@4.6.0/utils/Strings.sol\":601:606  value */\n      dup3\n        /* \"@openzeppelin/contracts@4.6.0/utils/Strings.sol\":601:611  value == 0 */\n      eq\n        /* \"@openzeppelin/contracts@4.6.0/utils/Strings.sol\":597:648  if (value == 0) {... */\n      iszero\n      tag_259\n      jumpi\n        /* \"@openzeppelin/contracts@4.6.0/utils/Strings.sol\":627:637  return \"0\" */\n      mload(0x40)\n      dup1\n      0x40\n      add\n      0x40\n      mstore\n      dup1\n      0x01\n      dup2\n      mstore\n      0x20\n      add\n      0x3000000000000000000000000000000000000000000000000000000000000000\n      dup2\n      mstore\n      pop\n      swap1\n      pop\n      jump(tag_258)\n        /* \"@openzeppelin/contracts@4.6.0/utils/Strings.sol\":597:648  if (value == 0) {... */\n    tag_259:\n        /* \"@openzeppelin/contracts@4.6.0/utils/Strings.sol\":657:669  uint256 temp */\n      0x00\n        /* \"@openzeppelin/contracts@4.6.0/utils/Strings.sol\":672:677  value */\n      dup3\n        /* \"@openzeppelin/contracts@4.6.0/utils/Strings.sol\":657:677  uint256 temp = value */\n      swap1\n      pop\n        /* \"@openzeppelin/contracts@4.6.0/utils/Strings.sol\":687:701  uint256 digits */\n      0x00\n        /* \"@openzeppelin/contracts@4.6.0/utils/Strings.sol\":711:786  while (temp != 0) {... */\n    tag_260:\n        /* \"@openzeppelin/contracts@4.6.0/utils/Strings.sol\":726:727  0 */\n      0x00\n        /* \"@openzeppelin/contracts@4.6.0/utils/Strings.sol\":718:722  temp */\n      dup3\n        /* \"@openzeppelin/contracts@4.6.0/utils/Strings.sol\":718:727  temp != 0 */\n      eq\n        /* \"@openzeppelin/contracts@4.6.0/utils/Strings.sol\":711:786  while (temp != 0) {... */\n      tag_261\n      jumpi\n        /* \"@openzeppelin/contracts@4.6.0/utils/Strings.sol\":743:751  digits++ */\n      dup1\n      dup1\n      tag_262\n      swap1\n      tag_263\n      jump\t// in\n    tag_262:\n      swap2\n      pop\n      pop\n        /* \"@openzeppelin/contracts@4.6.0/utils/Strings.sol\":773:775  10 */\n      0x0a\n        /* \"@openzeppelin/contracts@4.6.0/utils/Strings.sol\":765:775  temp /= 10 */\n      dup3\n      tag_264\n      swap2\n      swap1\n      tag_265\n      jump\t// in\n    tag_264:\n      swap2\n      pop\n        /* \"@openzeppelin/contracts@4.6.0/utils/Strings.sol\":711:786  while (temp != 0) {... */\n      jump(tag_260)\n    tag_261:\n        /* \"@openzeppelin/contracts@4.6.0/utils/Strings.sol\":795:814  bytes memory buffer */\n      0x00\n        /* \"@openzeppelin/contracts@4.6.0/utils/Strings.sol\":827:833  digits */\n      dup2\n        /* \"@openzeppelin/contracts@4.6.0/utils/Strings.sol\":817:834  new bytes(digits) */\n      0xffffffffffffffff\n      dup2\n      gt\n      iszero\n      tag_266\n      jumpi\n      mstore(0x00, 0x4e487b7100000000000000000000000000000000000000000000000000000000)\n      mstore(0x04, 0x41)\n      revert(0x00, 0x24)\n    tag_266:\n      mload(0x40)\n      swap1\n      dup1\n      dup3\n      mstore\n      dup1\n      0x1f\n      add\n      not(0x1f)\n      and\n      0x20\n      add\n      dup3\n      add\n      0x40\n      mstore\n      dup1\n      iszero\n      tag_267\n      jumpi\n      dup2\n      0x20\n      add\n      0x01\n      dup3\n      mul\n      dup1\n      calldatasize\n      dup4\n      calldatacopy\n      dup1\n      dup3\n      add\n      swap2\n      pop\n      pop\n      swap1\n      pop\n    tag_267:\n      pop\n        /* \"@openzeppelin/contracts@4.6.0/utils/Strings.sol\":795:834  bytes memory buffer = new bytes(digits) */\n      swap1\n      pop\n        /* \"@openzeppelin/contracts@4.6.0/utils/Strings.sol\":844:994  while (value != 0) {... */\n    tag_268:\n        /* \"@openzeppelin/contracts@4.6.0/utils/Strings.sol\":860:861  0 */\n      0x00\n        /* \"@openzeppelin/contracts@4.6.0/utils/Strings.sol\":851:856  value */\n      dup6\n        /* \"@openzeppelin/contracts@4.6.0/utils/Strings.sol\":851:861  value != 0 */\n      eq\n        /* \"@openzeppelin/contracts@4.6.0/utils/Strings.sol\":844:994  while (value != 0) {... */\n      tag_269\n      jumpi\n        /* \"@openzeppelin/contracts@4.6.0/utils/Strings.sol\":887:888  1 */\n      0x01\n        /* \"@openzeppelin/contracts@4.6.0/utils/Strings.sol\":877:888  digits -= 1 */\n      dup3\n      tag_270\n      swap2\n      swap1\n      tag_271\n      jump\t// in\n    tag_270:\n      swap2\n      pop\n        /* \"@openzeppelin/contracts@4.6.0/utils/Strings.sol\":953:955  10 */\n      0x0a\n        /* \"@openzeppelin/contracts@4.6.0/utils/Strings.sol\":945:950  value */\n      dup6\n        /* \"@openzeppelin/contracts@4.6.0/utils/Strings.sol\":945:955  value % 10 */\n      tag_272\n      swap2\n      swap1\n      tag_273\n      jump\t// in\n    tag_272:\n        /* \"@openzeppelin/contracts@4.6.0/utils/Strings.sol\":932:934  48 */\n      0x30\n        /* \"@openzeppelin/contracts@4.6.0/utils/Strings.sol\":932:956  48 + uint256(value % 10) */\n      tag_274\n      swap2\n      swap1\n      tag_275\n      jump\t// in\n    tag_274:\n        /* \"@openzeppelin/contracts@4.6.0/utils/Strings.sol\":919:958  bytes1(uint8(48 + uint256(value % 10))) */\n      0xf8\n      shl\n        /* \"@openzeppelin/contracts@4.6.0/utils/Strings.sol\":902:908  buffer */\n      dup2\n        /* \"@openzeppelin/contracts@4.6.0/utils/Strings.sol\":909:915  digits */\n      dup4\n        /* \"@openzeppelin/contracts@4.6.0/utils/Strings.sol\":902:916  buffer[digits] */\n      dup2\n      mload\n      dup2\n      lt\n      tag_276\n      jumpi\n      mstore(0x00, 0x4e487b7100000000000000000000000000000000000000000000000000000000)\n      mstore(0x04, 0x32)\n      revert(0x00, 0x24)\n    tag_276:\n      0x20\n      add\n      add\n        /* \"@openzeppelin/contracts@4.6.0/utils/Strings.sol\":902:958  buffer[digits] = bytes1(uint8(48 + uint256(value % 10))) */\n      swap1\n      not(0xffffffffffffffffffffffffffffffffffffffffffffffffffffffffffffff)\n      and\n      swap1\n      dup2\n      0x00\n      byte\n      swap1\n      mstore8\n      pop\n        /* \"@openzeppelin/contracts@4.6.0/utils/Strings.sol\":981:983  10 */\n      0x0a\n        /* \"@openzeppelin/contracts@4.6.0/utils/Strings.sol\":972:983  value /= 10 */\n      dup6\n      tag_277\n      swap2\n      swap1\n      tag_265\n      jump\t// in\n    tag_277:\n      swap5\n      pop\n        /* \"@openzeppelin/contracts@4.6.0/utils/Strings.sol\":844:994  while (value != 0) {... */\n      jump(tag_268)\n    tag_269:\n        /* \"@openzeppelin/contracts@4.6.0/utils/Strings.sol\":1017:1023  buffer */\n      dup1\n        /* \"@openzeppelin/contracts@4.6.0/utils/Strings.sol\":1003:1024  return string(buffer) */\n      swap4\n      pop\n      pop\n      pop\n      pop\n        /* \"@openzeppelin/contracts@4.6.0/utils/Strings.sol\":328:1031  function toString(uint256 value) internal pure returns (string memory) {... */\n    tag_258:\n      swap2\n      swap1\n      pop\n      jump\t// out\n        /* \"contracts/nft.sol\":9963:10278  function _setApprovalForAll(\r... */\n    tag_186:\n        /* \"contracts/nft.sol\":10118:10126  operator */\n      dup2\n        /* \"contracts/nft.sol\":10109:10126  owner != operator */\n      0xffffffffffffffffffffffffffffffffffffffff\n      and\n        /* \"contracts/nft.sol\":10109:10114  owner */\n      dup4\n        /* \"contracts/nft.sol\":10109:10126  owner != operator */\n      0xffffffffffffffffffffffffffffffffffffffff\n      and\n      eq\n      iszero\n        /* \"contracts/nft.sol\":10101:10156  require(owner != operator, \"ERC721: approve to caller\") */\n      tag_279\n      jumpi\n      mload(0x40)\n      0x08c379a000000000000000000000000000000000000000000000000000000000\n      dup2\n      mstore\n      0x04\n      add\n      tag_280\n      swap1\n      tag_281\n      jump\t// in\n    tag_280:\n      mload(0x40)\n      dup1\n      swap2\n      sub\n      swap1\n      revert\n    tag_279:\n        /* \"contracts/nft.sol\":10205:10213  approved */\n      dup1\n        /* \"contracts/nft.sol\":10167:10185  _operatorApprovals */\n      0x08\n        /* \"contracts/nft.sol\":10167:10192  _operatorApprovals[owner] */\n      0x00\n        /* \"contracts/nft.sol\":10186:10191  owner */\n      dup6\n        /* \"contracts/nft.sol\":10167:10192  _operatorApprovals[owner] */\n      0xffffffffffffffffffffffffffffffffffffffff\n      and\n      0xffffffffffffffffffffffffffffffffffffffff\n      and\n      dup2\n      mstore\n      0x20\n      add\n      swap1\n      dup2\n      mstore\n      0x20\n      add\n      0x00\n      keccak256\n        /* \"contracts/nft.sol\":10167:10202  _operatorApprovals[owner][operator] */\n      0x00\n        /* \"contracts/nft.sol\":10193:10201  operator */\n      dup5\n        /* \"contracts/nft.sol\":10167:10202  _operatorApprovals[owner][operator] */\n      0xffffffffffffffffffffffffffffffffffffffff\n      and\n      0xffffffffffffffffffffffffffffffffffffffff\n      and\n      dup2\n      mstore\n      0x20\n      add\n      swap1\n      dup2\n      mstore\n      0x20\n      add\n      0x00\n      keccak256\n      0x00\n        /* \"contracts/nft.sol\":10167:10213  _operatorApprovals[owner][operator] = approved */\n      0x0100\n      exp\n      dup2\n      sload\n      dup2\n      0xff\n      mul\n      not\n      and\n      swap1\n      dup4\n      iszero\n      iszero\n      mul\n      or\n      swap1\n      sstore\n      pop\n        /* \"contracts/nft.sol\":10251:10259  operator */\n      dup2\n        /* \"contracts/nft.sol\":10229:10270  ApprovalForAll(owner, operator, approved) */\n      0xffffffffffffffffffffffffffffffffffffffff\n      and\n        /* \"contracts/nft.sol\":10244:10249  owner */\n      dup4\n        /* \"contracts/nft.sol\":10229:10270  ApprovalForAll(owner, operator, approved) */\n      0xffffffffffffffffffffffffffffffffffffffff\n      and\n      0x17307eab39ab6107e8899845ad3d59bd9653f200f220920489ca2b5937696c31\n        /* \"contracts/nft.sol\":10261:10269  approved */\n      dup4\n        /* \"contracts/nft.sol\":10229:10270  ApprovalForAll(owner, operator, approved) */\n      mload(0x40)\n      tag_282\n      swap2\n      swap1\n      tag_29\n      jump\t// in\n    tag_282:\n      mload(0x40)\n      dup1\n      swap2\n      sub\n      swap1\n      log3\n        /* \"contracts/nft.sol\":9963:10278  function _setApprovalForAll(\r... */\n      pop\n      pop\n      pop\n      jump\t// out\n        /* \"contracts/nft.sol\":6404:6717  function _safeTransfer(\r... */\n    tag_193:\n        /* \"contracts/nft.sol\":6560:6588  _transfer(from, to, tokenId) */\n      tag_284\n        /* \"contracts/nft.sol\":6570:6574  from */\n      dup5\n        /* \"contracts/nft.sol\":6576:6578  to */\n      dup5\n        /* \"contracts/nft.sol\":6580:6587  tokenId */\n      dup5\n        /* \"contracts/nft.sol\":6560:6569  _transfer */\n      tag_140\n        /* \"contracts/nft.sol\":6560:6588  _transfer(from, to, tokenId) */\n      jump\t// in\n    tag_284:\n        /* \"contracts/nft.sol\":6607:6654  _checkOnERC721Received(from, to, tokenId, data) */\n      tag_285\n        /* \"contracts/nft.sol\":6630:6634  from */\n      dup5\n        /* \"contracts/nft.sol\":6636:6638  to */\n      dup5\n        /* \"contracts/nft.sol\":6640:6647  tokenId */\n      dup5\n        /* \"contracts/nft.sol\":6649:6653  data */\n      dup5\n        /* \"contracts/nft.sol\":6607:6629  _checkOnERC721Received */\n      tag_286\n        /* \"contracts/nft.sol\":6607:6654  _checkOnERC721Received(from, to, tokenId, data) */\n      jump\t// in\n    tag_285:\n        /* \"contracts/nft.sol\":6599:6709  require(_checkOnERC721Received(from, to, tokenId, data), \"ERC721: transfer to non ERC721Receiver implementer\") */\n      tag_287\n      jumpi\n      mload(0x40)\n      0x08c379a000000000000000000000000000000000000000000000000000000000\n      dup2\n      mstore\n      0x04\n      add\n      tag_288\n      swap1\n      tag_289\n      jump\t// in\n    tag_288:\n      mload(0x40)\n      dup1\n      swap2\n      sub\n      swap1\n      revert\n    tag_287:\n        /* \"contracts/nft.sol\":6404:6717  function _safeTransfer(\r... */\n      pop\n      pop\n      pop\n      pop\n      jump\t// out\n        /* \"contracts/nft.sol\":11294:11420  function _beforeTokenTransfer(\r... */\n    tag_238:\n      pop\n      pop\n      pop\n      jump\t// out\n        /* \"contracts/nft.sol\":11428:11553  function _afterTokenTransfer(\r... */\n    tag_243:\n      pop\n      pop\n      pop\n      jump\t// out\n        /* \"contracts/nft.sol\":7348:7789  function _safeMint(\r... */\n    tag_248:\n        /* \"contracts/nft.sol\":7565:7617  _mint(to, collaborator,collaboratorPercent, tokenId) */\n      tag_293\n        /* \"contracts/nft.sol\":7571:7573  to */\n      dup6\n        /* \"contracts/nft.sol\":7575:7587  collaborator */\n      dup6\n        /* \"contracts/nft.sol\":7588:7607  collaboratorPercent */\n      dup6\n        /* \"contracts/nft.sol\":7609:7616  tokenId */\n      dup6\n        /* \"contracts/nft.sol\":7565:7570  _mint */\n      tag_294\n        /* \"contracts/nft.sol\":7565:7617  _mint(to, collaborator,collaboratorPercent, tokenId) */\n      jump\t// in\n    tag_293:\n        /* \"contracts/nft.sol\":7650:7703  _checkOnERC721Received(address(0), to, tokenId, data) */\n      tag_295\n        /* \"contracts/nft.sol\":7681:7682  0 */\n      0x00\n        /* \"contracts/nft.sol\":7685:7687  to */\n      dup7\n        /* \"contracts/nft.sol\":7689:7696  tokenId */\n      dup5\n        /* \"contracts/nft.sol\":7698:7702  data */\n      dup5\n        /* \"contracts/nft.sol\":7650:7672  _checkOnERC721Received */\n      tag_286\n        /* \"contracts/nft.sol\":7650:7703  _checkOnERC721Received(address(0), to, tokenId, data) */\n      jump\t// in\n    tag_295:\n        /* \"contracts/nft.sol\":7628:7781  require(\r... */\n      tag_296\n      jumpi\n      mload(0x40)\n      0x08c379a000000000000000000000000000000000000000000000000000000000\n      dup2\n      mstore\n      0x04\n      add\n      tag_297\n      swap1\n      tag_289\n      jump\t// in\n    tag_297:\n      mload(0x40)\n      dup1\n      swap2\n      sub\n      swap1\n      revert\n    tag_296:\n        /* \"contracts/nft.sol\":7348:7789  function _safeMint(\r... */\n      pop\n      pop\n      pop\n      pop\n      pop\n      jump\t// out\n        /* \"contracts/nft.sol\":10431:11284  function _checkOnERC721Received(\r... */\n    tag_286:\n        /* \"contracts/nft.sol\":10585:10589  bool */\n      0x00\n        /* \"contracts/nft.sol\":10606:10621  to.isContract() */\n      tag_299\n        /* \"contracts/nft.sol\":10606:10608  to */\n      dup5\n        /* \"contracts/nft.sol\":10606:10619  to.isContract */\n      0xffffffffffffffffffffffffffffffffffffffff\n      and\n      tag_300\n        /* \"contracts/nft.sol\":10606:10621  to.isContract() */\n      jump\t// in\n    tag_299:\n        /* \"contracts/nft.sol\":10602:11277  if (to.isContract()) {\r... */\n      iszero\n      tag_301\n      jumpi\n        /* \"contracts/nft.sol\":10658:10660  to */\n      dup4\n        /* \"contracts/nft.sol\":10642:10678  IERC721Receiver(to).onERC721Received */\n      0xffffffffffffffffffffffffffffffffffffffff\n      and\n      0x150b7a02\n        /* \"contracts/nft.sol\":10679:10691  _msgSender() */\n      tag_302\n        /* \"contracts/nft.sol\":10679:10689  _msgSender */\n      tag_123\n        /* \"contracts/nft.sol\":10679:10691  _msgSender() */\n      jump\t// in\n    tag_302:\n        /* \"contracts/nft.sol\":10693:10697  from */\n      dup8\n        /* \"contracts/nft.sol\":10699:10706  tokenId */\n      dup7\n        /* \"contracts/nft.sol\":10708:10712  data */\n      dup7\n        /* \"contracts/nft.sol\":10642:10713  IERC721Receiver(to).onERC721Received(_msgSender(), from, tokenId, data) */\n      mload(0x40)\n      dup6\n      0xffffffff\n      and\n      0xe0\n      shl\n      dup2\n      mstore\n      0x04\n      add\n      tag_303\n      swap5\n      swap4\n      swap3\n      swap2\n      swap1\n      tag_304\n      jump\t// in\n    tag_303:\n      0x20\n      mload(0x40)\n      dup1\n      dup4\n      sub\n      dup2\n      0x00\n      dup8\n      dup1\n      extcodesize\n      iszero\n      dup1\n      iszero\n      tag_305\n      jumpi\n      0x00\n      dup1\n      revert\n    tag_305:\n      pop\n      gas\n      call\n      swap3\n      pop\n      pop\n      pop\n      dup1\n      iszero\n      tag_306\n      jumpi\n      pop\n      mload(0x40)\n      returndatasize\n      not(0x1f)\n      0x1f\n      dup3\n      add\n      and\n      dup3\n      add\n      dup1\n      0x40\n      mstore\n      pop\n      dup2\n      add\n      swap1\n      tag_307\n      swap2\n      swap1\n      tag_308\n      jump\t// in\n    tag_307:\n      0x01\n    tag_306:\n        /* \"contracts/nft.sol\":10638:11222  try IERC721Receiver(to).onERC721Received(_msgSender(), from, tokenId, data) returns (bytes4 retval) {\r... */\n      tag_309\n      jumpi\n      returndatasize\n      dup1\n      0x00\n      dup2\n      eq\n      tag_314\n      jumpi\n      mload(0x40)\n      swap2\n      pop\n      and(add(returndatasize, 0x3f), not(0x1f))\n      dup3\n      add\n      0x40\n      mstore\n      returndatasize\n      dup3\n      mstore\n      returndatasize\n      0x00\n      0x20\n      dup5\n      add\n      returndatacopy\n      jump(tag_313)\n    tag_314:\n      0x60\n      swap2\n      pop\n    tag_313:\n      pop\n        /* \"contracts/nft.sol\":10900:10901  0 */\n      0x00\n        /* \"contracts/nft.sol\":10883:10889  reason */\n      dup2\n        /* \"contracts/nft.sol\":10883:10896  reason.length */\n      mload\n        /* \"contracts/nft.sol\":10883:10901  reason.length == 0 */\n      eq\n        /* \"contracts/nft.sol\":10879:11207  if (reason.length == 0) {\r... */\n      iszero\n      tag_315\n      jumpi\n        /* \"contracts/nft.sol\":10926:10986  revert(\"ERC721: transfer to non ERC721Receiver implementer\") */\n      mload(0x40)\n      0x08c379a000000000000000000000000000000000000000000000000000000000\n      dup2\n      mstore\n      0x04\n      add\n      tag_316\n      swap1\n      tag_289\n      jump\t// in\n    tag_316:\n      mload(0x40)\n      dup1\n      swap2\n      sub\n      swap1\n      revert\n        /* \"contracts/nft.sol\":10879:11207  if (reason.length == 0) {\r... */\n    tag_315:\n        /* \"contracts/nft.sol\":11157:11163  reason */\n      dup1\n        /* \"contracts/nft.sol\":11151:11164  mload(reason) */\n      mload\n        /* \"contracts/nft.sol\":11142:11148  reason */\n      dup2\n        /* \"contracts/nft.sol\":11138:11140  32 */\n      0x20\n        /* \"contracts/nft.sol\":11134:11149  add(32, reason) */\n      add\n        /* \"contracts/nft.sol\":11127:11165  revert(add(32, reason), mload(reason)) */\n      revert\n        /* \"contracts/nft.sol\":10638:11222  try IERC721Receiver(to).onERC721Received(_msgSender(), from, tokenId, data) returns (bytes4 retval) {\r... */\n    tag_309:\n        /* \"contracts/nft.sol\":10774:10815  IERC721Receiver.onERC721Received.selector */\n      shl(0xe0, 0x150b7a02)\n        /* \"contracts/nft.sol\":10764:10815  retval == IERC721Receiver.onERC721Received.selector */\n      not(0xffffffffffffffffffffffffffffffffffffffffffffffffffffffff)\n      and\n        /* \"contracts/nft.sol\":10764:10770  retval */\n      dup2\n        /* \"contracts/nft.sol\":10764:10815  retval == IERC721Receiver.onERC721Received.selector */\n      not(0xffffffffffffffffffffffffffffffffffffffffffffffffffffffff)\n      and\n      eq\n        /* \"contracts/nft.sol\":10757:10815  return retval == IERC721Receiver.onERC721Received.selector */\n      swap2\n      pop\n      pop\n      jump(tag_298)\n        /* \"contracts/nft.sol\":10602:11277  if (to.isContract()) {\r... */\n    tag_301:\n        /* \"contracts/nft.sol\":11261:11265  true */\n      0x01\n        /* \"contracts/nft.sol\":11254:11265  return true */\n      swap1\n      pop\n        /* \"contracts/nft.sol\":10431:11284  function _checkOnERC721Received(\r... */\n    tag_298:\n      swap5\n      swap4\n      pop\n      pop\n      pop\n      pop\n      jump\t// out\n        /* \"contracts/nft.sol\":7797:8525  function _mint(address to,address[] memory collaborator,uint256[] memory collaboratorPercent,uint256 tokenId) internal virtual {\r... */\n    tag_294:\n        /* \"contracts/nft.sol\":7957:7958  0 */\n      0x00\n        /* \"contracts/nft.sol\":7943:7959  to != address(0) */\n      0xffffffffffffffffffffffffffffffffffffffff\n      and\n        /* \"contracts/nft.sol\":7943:7945  to */\n      dup5\n        /* \"contracts/nft.sol\":7943:7959  to != address(0) */\n      0xffffffffffffffffffffffffffffffffffffffff\n      and\n      eq\n      iszero\n        /* \"contracts/nft.sol\":7935:7996  require(to != address(0), \"ERC721: mint to the zero address\") */\n      tag_321\n      jumpi\n      mload(0x40)\n      0x08c379a000000000000000000000000000000000000000000000000000000000\n      dup2\n      mstore\n      0x04\n      add\n      tag_322\n      swap1\n      tag_323\n      jump\t// in\n    tag_322:\n      mload(0x40)\n      dup1\n      swap2\n      sub\n      swap1\n      revert\n    tag_321:\n        /* \"contracts/nft.sol\":8016:8032  _exists(tokenId) */\n      tag_324\n        /* \"contracts/nft.sol\":8024:8031  tokenId */\n      dup2\n        /* \"contracts/nft.sol\":8016:8023  _exists */\n      tag_165\n        /* \"contracts/nft.sol\":8016:8032  _exists(tokenId) */\n      jump\t// in\n    tag_324:\n        /* \"contracts/nft.sol\":8015:8032  !_exists(tokenId) */\n      iszero\n        /* \"contracts/nft.sol\":8007:8065  require(!_exists(tokenId), \"ERC721: token already minted\") */\n      tag_325\n      jumpi\n      mload(0x40)\n      0x08c379a000000000000000000000000000000000000000000000000000000000\n      dup2\n      mstore\n      0x04\n      add\n      tag_326\n      swap1\n      tag_327\n      jump\t// in\n    tag_326:\n      mload(0x40)\n      dup1\n      swap2\n      sub\n      swap1\n      revert\n    tag_325:\n        /* \"contracts/nft.sol\":8078:8123  _beforeTokenTransfer(address(0), to, tokenId) */\n      tag_328\n        /* \"contracts/nft.sol\":8107:8108  0 */\n      0x00\n        /* \"contracts/nft.sol\":8111:8113  to */\n      dup6\n        /* \"contracts/nft.sol\":8115:8122  tokenId */\n      dup4\n        /* \"contracts/nft.sol\":8078:8098  _beforeTokenTransfer */\n      tag_238\n        /* \"contracts/nft.sol\":8078:8123  _beforeTokenTransfer(address(0), to, tokenId) */\n      jump\t// in\n    tag_328:\n        /* \"contracts/nft.sol\":8145:8161  _exists(tokenId) */\n      tag_329\n        /* \"contracts/nft.sol\":8153:8160  tokenId */\n      dup2\n        /* \"contracts/nft.sol\":8145:8152  _exists */\n      tag_165\n        /* \"contracts/nft.sol\":8145:8161  _exists(tokenId) */\n      jump\t// in\n    tag_329:\n        /* \"contracts/nft.sol\":8144:8161  !_exists(tokenId) */\n      iszero\n        /* \"contracts/nft.sol\":8136:8194  require(!_exists(tokenId), \"ERC721: token already minted\") */\n      tag_330\n      jumpi\n      mload(0x40)\n      0x08c379a000000000000000000000000000000000000000000000000000000000\n      dup2\n      mstore\n      0x04\n      add\n      tag_331\n      swap1\n      tag_327\n      jump\t// in\n    tag_331:\n      mload(0x40)\n      dup1\n      swap2\n      sub\n      swap1\n      revert\n    tag_330:\n        /* \"contracts/nft.sol\":8249:8250  1 */\n      0x01\n        /* \"contracts/nft.sol\":8232:8241  _balances */\n      0x06\n        /* \"contracts/nft.sol\":8232:8245  _balances[to] */\n      0x00\n        /* \"contracts/nft.sol\":8242:8244  to */\n      dup7\n        /* \"contracts/nft.sol\":8232:8245  _balances[to] */\n      0xffffffffffffffffffffffffffffffffffffffff\n      and\n      0xffffffffffffffffffffffffffffffffffffffff\n      and\n      dup2\n      mstore\n      0x20\n      add\n      swap1\n      dup2\n      mstore\n      0x20\n      add\n      0x00\n      keccak256\n      0x00\n        /* \"contracts/nft.sol\":8232:8250  _balances[to] += 1 */\n      dup3\n      dup3\n      sload\n      add\n      swap3\n      pop\n      pop\n      dup2\n      swap1\n      sstore\n      pop\n        /* \"contracts/nft.sol\":8293:8295  to */\n      dup4\n        /* \"contracts/nft.sol\":8274:8281  _owners */\n      0x03\n        /* \"contracts/nft.sol\":8274:8290  _owners[tokenId] */\n      0x00\n        /* \"contracts/nft.sol\":8282:8289  tokenId */\n      dup4\n        /* \"contracts/nft.sol\":8274:8290  _owners[tokenId] */\n      dup2\n      mstore\n      0x20\n      add\n      swap1\n      dup2\n      mstore\n      0x20\n      add\n      0x00\n      keccak256\n      0x00\n        /* \"contracts/nft.sol\":8274:8295  _owners[tokenId] = to */\n      0x0100\n      exp\n      dup2\n      sload\n      dup2\n      0xffffffffffffffffffffffffffffffffffffffff\n      mul\n      not\n      and\n      swap1\n      dup4\n      0xffffffffffffffffffffffffffffffffffffffff\n      and\n      mul\n      or\n      swap1\n      sstore\n      pop\n        /* \"contracts/nft.sol\":8332:8344  collaborator */\n      dup3\n        /* \"contracts/nft.sol\":8306:8320  _collaborators */\n      0x04\n        /* \"contracts/nft.sol\":8306:8329  _collaborators[tokenId] */\n      0x00\n        /* \"contracts/nft.sol\":8321:8328  tokenId */\n      dup4\n        /* \"contracts/nft.sol\":8306:8329  _collaborators[tokenId] */\n      dup2\n      mstore\n      0x20\n      add\n      swap1\n      dup2\n      mstore\n      0x20\n      add\n      0x00\n      keccak256\n        /* \"contracts/nft.sol\":8306:8344  _collaborators[tokenId] = collaborator */\n      swap1\n      dup1\n      mload\n      swap1\n      0x20\n      add\n      swap1\n      tag_332\n      swap3\n      swap2\n      swap1\n      tag_333\n      jump\t// in\n    tag_332:\n      pop\n        /* \"contracts/nft.sol\":8390:8409  collaboratorPercent */\n      dup2\n        /* \"contracts/nft.sol\":8354:8378  _collaboratorsPercentage */\n      0x05\n        /* \"contracts/nft.sol\":8354:8387  _collaboratorsPercentage[tokenId] */\n      0x00\n        /* \"contracts/nft.sol\":8379:8386  tokenId */\n      dup4\n        /* \"contracts/nft.sol\":8354:8387  _collaboratorsPercentage[tokenId] */\n      dup2\n      mstore\n      0x20\n      add\n      swap1\n      dup2\n      mstore\n      0x20\n      add\n      0x00\n      keccak256\n        /* \"contracts/nft.sol\":8354:8409  _collaboratorsPercentage[tokenId] = collaboratorPercent */\n      swap1\n      dup1\n      mload\n      swap1\n      0x20\n      add\n      swap1\n      tag_334\n      swap3\n      swap2\n      swap1\n      tag_335\n      jump\t// in\n    tag_334:\n      pop\n        /* \"contracts/nft.sol\":8452:8459  tokenId */\n      dup1\n        /* \"contracts/nft.sol\":8448:8450  to */\n      dup5\n        /* \"contracts/nft.sol\":8427:8460  Transfer(address(0), to, tokenId) */\n      0xffffffffffffffffffffffffffffffffffffffff\n      and\n        /* \"contracts/nft.sol\":8444:8445  0 */\n      0x00\n        /* \"contracts/nft.sol\":8427:8460  Transfer(address(0), to, tokenId) */\n      0xffffffffffffffffffffffffffffffffffffffff\n      and\n      0xddf252ad1be2c89b69c2b068fc378daa952ba7f163c4a11628f55a4df523b3ef\n      mload(0x40)\n      mload(0x40)\n      dup1\n      swap2\n      sub\n      swap1\n      log4\n        /* \"contracts/nft.sol\":8473:8517  _afterTokenTransfer(address(0), to, tokenId) */\n      tag_336\n        /* \"contracts/nft.sol\":8501:8502  0 */\n      0x00\n        /* \"contracts/nft.sol\":8505:8507  to */\n      dup6\n        /* \"contracts/nft.sol\":8509:8516  tokenId */\n      dup4\n        /* \"contracts/nft.sol\":8473:8492  _afterTokenTransfer */\n      tag_243\n        /* \"contracts/nft.sol\":8473:8517  _afterTokenTransfer(address(0), to, tokenId) */\n      jump\t// in\n    tag_336:\n        /* \"contracts/nft.sol\":7797:8525  function _mint(address to,address[] memory collaborator,uint256[] memory collaboratorPercent,uint256 tokenId) internal virtual {\r... */\n      pop\n      pop\n      pop\n      pop\n      jump\t// out\n        /* \"@openzeppelin/contracts@4.6.0/utils/Address.sol\":1175:1495  function isContract(address account) internal view returns (bool) {... */\n    tag_300:\n        /* \"@openzeppelin/contracts@4.6.0/utils/Address.sol\":1235:1239  bool */\n      0x00\n        /* \"@openzeppelin/contracts@4.6.0/utils/Address.sol\":1487:1488  0 */\n      dup1\n        /* \"@openzeppelin/contracts@4.6.0/utils/Address.sol\":1465:1472  account */\n      dup3\n        /* \"@openzeppelin/contracts@4.6.0/utils/Address.sol\":1465:1484  account.code.length */\n      0xffffffffffffffffffffffffffffffffffffffff\n      and\n      extcodesize\n        /* \"@openzeppelin/contracts@4.6.0/utils/Address.sol\":1465:1488  account.code.length > 0 */\n      gt\n        /* \"@openzeppelin/contracts@4.6.0/utils/Address.sol\":1458:1488  return account.code.length > 0 */\n      swap1\n      pop\n        /* \"@openzeppelin/contracts@4.6.0/utils/Address.sol\":1175:1495  function isContract(address account) internal view returns (bool) {... */\n      swap2\n      swap1\n      pop\n      jump\t// out\n    tag_255:\n      dup3\n      dup1\n      sload\n      tag_338\n      swap1\n      tag_109\n      jump\t// in\n    tag_338:\n      swap1\n      0x00\n      mstore\n      keccak256(0x00, 0x20)\n      swap1\n      0x1f\n      add\n      0x20\n      swap1\n      div\n      dup2\n      add\n      swap3\n      dup3\n      tag_340\n      jumpi\n      0x00\n      dup6\n      sstore\n      jump(tag_339)\n    tag_340:\n      dup3\n      0x1f\n      lt\n      tag_341\n      jumpi\n      dup1\n      mload\n      not(0xff)\n      and\n      dup4\n      dup1\n      add\n      or\n      dup6\n      sstore\n      jump(tag_339)\n    tag_341:\n      dup3\n      dup1\n      add\n      0x01\n      add\n      dup6\n      sstore\n      dup3\n      iszero\n      tag_339\n      jumpi\n      swap2\n      dup3\n      add\n    tag_342:\n      dup3\n      dup2\n      gt\n      iszero\n      tag_343\n      jumpi\n      dup3\n      mload\n      dup3\n      sstore\n      swap2\n      0x20\n      add\n      swap2\n      swap1\n      0x01\n      add\n      swap1\n      jump(tag_342)\n    tag_343:\n    tag_339:\n      pop\n      swap1\n      pop\n      tag_344\n      swap2\n      swap1\n      tag_345\n      jump\t// in\n    tag_344:\n      pop\n      swap1\n      jump\t// out\n    tag_333:\n      dup3\n      dup1\n      sload\n      dup3\n      dup3\n      sstore\n      swap1\n      0x00\n      mstore\n      keccak256(0x00, 0x20)\n      swap1\n      dup2\n      add\n      swap3\n      dup3\n      iszero\n      tag_346\n      jumpi\n      swap2\n      0x20\n      mul\n      dup3\n      add\n    tag_347:\n      dup3\n      dup2\n      gt\n      iszero\n      tag_348\n      jumpi\n      dup3\n      mload\n      dup3\n      exp(0x0100, 0x00)\n      dup2\n      sload\n      dup2\n      0xffffffffffffffffffffffffffffffffffffffff\n      mul\n      not\n      and\n      swap1\n      dup4\n      0xffffffffffffffffffffffffffffffffffffffff\n      and\n      mul\n      or\n      swap1\n      sstore\n      pop\n      swap2\n      0x20\n      add\n      swap2\n      swap1\n      0x01\n      add\n      swap1\n      jump(tag_347)\n    tag_348:\n    tag_346:\n      pop\n      swap1\n      pop\n      tag_349\n      swap2\n      swap1\n      tag_345\n      jump\t// in\n    tag_349:\n      pop\n      swap1\n      jump\t// out\n    tag_335:\n      dup3\n      dup1\n      sload\n      dup3\n      dup3\n      sstore\n      swap1\n      0x00\n      mstore\n      keccak256(0x00, 0x20)\n      swap1\n      dup2\n      add\n      swap3\n      dup3\n      iszero\n      tag_350\n      jumpi\n      swap2\n      0x20\n      mul\n      dup3\n      add\n    tag_351:\n      dup3\n      dup2\n      gt\n      iszero\n      tag_352\n      jumpi\n      dup3\n      mload\n      dup3\n      sstore\n      swap2\n      0x20\n      add\n      swap2\n      swap1\n      0x01\n      add\n      swap1\n      jump(tag_351)\n    tag_352:\n    tag_350:\n      pop\n      swap1\n      pop\n      tag_353\n      swap2\n      swap1\n      tag_345\n      jump\t// in\n    tag_353:\n      pop\n      swap1\n      jump\t// out\n    tag_345:\n    tag_354:\n      dup1\n      dup3\n      gt\n      iszero\n      tag_355\n      jumpi\n      0x00\n      dup2\n      0x00\n      swap1\n      sstore\n      pop\n      0x01\n      add\n      jump(tag_354)\n    tag_355:\n      pop\n      swap1\n      jump\t// out\n        /* \"#utility.yul\":24:679   */\n    tag_357:\n        /* \"#utility.yul\":120:125   */\n      0x00\n        /* \"#utility.yul\":145:226   */\n      tag_359\n        /* \"#utility.yul\":161:225   */\n      tag_360\n        /* \"#utility.yul\":218:224   */\n      dup5\n        /* \"#utility.yul\":161:225   */\n      tag_361\n      jump\t// in\n    tag_360:\n        /* \"#utility.yul\":145:226   */\n      tag_362\n      jump\t// in\n    tag_359:\n        /* \"#utility.yul\":136:226   */\n      swap1\n      pop\n        /* \"#utility.yul\":246:251   */\n      dup1\n        /* \"#utility.yul\":275:281   */\n      dup4\n        /* \"#utility.yul\":268:273   */\n      dup3\n        /* \"#utility.yul\":261:282   */\n      mstore\n        /* \"#utility.yul\":309:313   */\n      0x20\n        /* \"#utility.yul\":302:307   */\n      dup3\n        /* \"#utility.yul\":298:314   */\n      add\n        /* \"#utility.yul\":291:314   */\n      swap1\n      pop\n        /* \"#utility.yul\":335:341   */\n      dup3\n        /* \"#utility.yul\":385:388   */\n      dup6\n        /* \"#utility.yul\":377:381   */\n      0x20\n        /* \"#utility.yul\":369:375   */\n      dup7\n        /* \"#utility.yul\":365:382   */\n      mul\n        /* \"#utility.yul\":360:363   */\n      dup3\n        /* \"#utility.yul\":356:383   */\n      add\n        /* \"#utility.yul\":353:389   */\n      gt\n        /* \"#utility.yul\":350:352   */\n      iszero\n      tag_363\n      jumpi\n        /* \"#utility.yul\":414:415   */\n      0x00\n        /* \"#utility.yul\":411:412   */\n      dup1\n        /* \"#utility.yul\":404:416   */\n      revert\n        /* \"#utility.yul\":350:352   */\n    tag_363:\n        /* \"#utility.yul\":450:451   */\n      0x00\n        /* \"#utility.yul\":435:673   */\n    tag_364:\n        /* \"#utility.yul\":460:466   */\n      dup6\n        /* \"#utility.yul\":457:458   */\n      dup2\n        /* \"#utility.yul\":454:467   */\n      lt\n        /* \"#utility.yul\":435:673   */\n      iszero\n      tag_366\n      jumpi\n        /* \"#utility.yul\":528:531   */\n      dup2\n        /* \"#utility.yul\":557:594   */\n      tag_367\n        /* \"#utility.yul\":590:593   */\n      dup9\n        /* \"#utility.yul\":578:588   */\n      dup3\n        /* \"#utility.yul\":557:594   */\n      tag_368\n      jump\t// in\n    tag_367:\n        /* \"#utility.yul\":552:555   */\n      dup5\n        /* \"#utility.yul\":545:595   */\n      mstore\n        /* \"#utility.yul\":624:628   */\n      0x20\n        /* \"#utility.yul\":619:622   */\n      dup5\n        /* \"#utility.yul\":615:629   */\n      add\n        /* \"#utility.yul\":608:629   */\n      swap4\n      pop\n        /* \"#utility.yul\":658:662   */\n      0x20\n        /* \"#utility.yul\":653:656   */\n      dup4\n        /* \"#utility.yul\":649:663   */\n      add\n        /* \"#utility.yul\":642:663   */\n      swap3\n      pop\n        /* \"#utility.yul\":495:673   */\n      pop\n        /* \"#utility.yul\":482:483   */\n      0x01\n        /* \"#utility.yul\":479:480   */\n      dup2\n        /* \"#utility.yul\":475:484   */\n      add\n        /* \"#utility.yul\":470:484   */\n      swap1\n      pop\n        /* \"#utility.yul\":435:673   */\n      jump(tag_364)\n    tag_366:\n        /* \"#utility.yul\":439:453   */\n      pop\n        /* \"#utility.yul\":126:679   */\n      pop\n      pop\n      swap4\n      swap3\n      pop\n      pop\n      pop\n      jump\t// out\n        /* \"#utility.yul\":702:1357   */\n    tag_369:\n        /* \"#utility.yul\":798:803   */\n      0x00\n        /* \"#utility.yul\":823:904   */\n      tag_371\n        /* \"#utility.yul\":839:903   */\n      tag_372\n        /* \"#utility.yul\":896:902   */\n      dup5\n        /* \"#utility.yul\":839:903   */\n      tag_373\n      jump\t// in\n    tag_372:\n        /* \"#utility.yul\":823:904   */\n      tag_362\n      jump\t// in\n    tag_371:\n        /* \"#utility.yul\":814:904   */\n      swap1\n      pop\n        /* \"#utility.yul\":924:929   */\n      dup1\n        /* \"#utility.yul\":953:959   */\n      dup4\n        /* \"#utility.yul\":946:951   */\n      dup3\n        /* \"#utility.yul\":939:960   */\n      mstore\n        /* \"#utility.yul\":987:991   */\n      0x20\n        /* \"#utility.yul\":980:985   */\n      dup3\n        /* \"#utility.yul\":976:992   */\n      add\n        /* \"#utility.yul\":969:992   */\n      swap1\n      pop\n        /* \"#utility.yul\":1013:1019   */\n      dup3\n        /* \"#utility.yul\":1063:1066   */\n      dup6\n        /* \"#utility.yul\":1055:1059   */\n      0x20\n        /* \"#utility.yul\":1047:1053   */\n      dup7\n        /* \"#utility.yul\":1043:1060   */\n      mul\n        /* \"#utility.yul\":1038:1041   */\n      dup3\n        /* \"#utility.yul\":1034:1061   */\n      add\n        /* \"#utility.yul\":1031:1067   */\n      gt\n        /* \"#utility.yul\":1028:1030   */\n      iszero\n      tag_374\n      jumpi\n        /* \"#utility.yul\":1092:1093   */\n      0x00\n        /* \"#utility.yul\":1089:1090   */\n      dup1\n        /* \"#utility.yul\":1082:1094   */\n      revert\n        /* \"#utility.yul\":1028:1030   */\n    tag_374:\n        /* \"#utility.yul\":1128:1129   */\n      0x00\n        /* \"#utility.yul\":1113:1351   */\n    tag_375:\n        /* \"#utility.yul\":1138:1144   */\n      dup6\n        /* \"#utility.yul\":1135:1136   */\n      dup2\n        /* \"#utility.yul\":1132:1145   */\n      lt\n        /* \"#utility.yul\":1113:1351   */\n      iszero\n      tag_377\n      jumpi\n        /* \"#utility.yul\":1206:1209   */\n      dup2\n        /* \"#utility.yul\":1235:1272   */\n      tag_378\n        /* \"#utility.yul\":1268:1271   */\n      dup9\n        /* \"#utility.yul\":1256:1266   */\n      dup3\n        /* \"#utility.yul\":1235:1272   */\n      tag_379\n      jump\t// in\n    tag_378:\n        /* \"#utility.yul\":1230:1233   */\n      dup5\n        /* \"#utility.yul\":1223:1273   */\n      mstore\n        /* \"#utility.yul\":1302:1306   */\n      0x20\n        /* \"#utility.yul\":1297:1300   */\n      dup5\n        /* \"#utility.yul\":1293:1307   */\n      add\n        /* \"#utility.yul\":1286:1307   */\n      swap4\n      pop\n        /* \"#utility.yul\":1336:1340   */\n      0x20\n        /* \"#utility.yul\":1331:1334   */\n      dup4\n        /* \"#utility.yul\":1327:1341   */\n      add\n        /* \"#utility.yul\":1320:1341   */\n      swap3\n      pop\n        /* \"#utility.yul\":1173:1351   */\n      pop\n        /* \"#utility.yul\":1160:1161   */\n      0x01\n        /* \"#utility.yul\":1157:1158   */\n      dup2\n        /* \"#utility.yul\":1153:1162   */\n      add\n        /* \"#utility.yul\":1148:1162   */\n      swap1\n      pop\n        /* \"#utility.yul\":1113:1351   */\n      jump(tag_375)\n    tag_377:\n        /* \"#utility.yul\":1117:1131   */\n      pop\n        /* \"#utility.yul\":804:1357   */\n      pop\n      pop\n      swap4\n      swap3\n      pop\n      pop\n      pop\n      jump\t// out\n        /* \"#utility.yul\":1363:1706   */\n    tag_380:\n        /* \"#utility.yul\":1440:1445   */\n      0x00\n        /* \"#utility.yul\":1465:1530   */\n      tag_382\n        /* \"#utility.yul\":1481:1529   */\n      tag_383\n        /* \"#utility.yul\":1522:1528   */\n      dup5\n        /* \"#utility.yul\":1481:1529   */\n      tag_384\n      jump\t// in\n    tag_383:\n        /* \"#utility.yul\":1465:1530   */\n      tag_362\n      jump\t// in\n    tag_382:\n        /* \"#utility.yul\":1456:1530   */\n      swap1\n      pop\n        /* \"#utility.yul\":1553:1559   */\n      dup3\n        /* \"#utility.yul\":1546:1551   */\n      dup2\n        /* \"#utility.yul\":1539:1560   */\n      mstore\n        /* \"#utility.yul\":1591:1595   */\n      0x20\n        /* \"#utility.yul\":1584:1589   */\n      dup2\n        /* \"#utility.yul\":1580:1596   */\n      add\n        /* \"#utility.yul\":1629:1632   */\n      dup5\n        /* \"#utility.yul\":1620:1626   */\n      dup5\n        /* \"#utility.yul\":1615:1618   */\n      dup5\n        /* \"#utility.yul\":1611:1627   */\n      add\n        /* \"#utility.yul\":1608:1633   */\n      gt\n        /* \"#utility.yul\":1605:1607   */\n      iszero\n      tag_385\n      jumpi\n        /* \"#utility.yul\":1646:1647   */\n      0x00\n        /* \"#utility.yul\":1643:1644   */\n      dup1\n        /* \"#utility.yul\":1636:1648   */\n      revert\n        /* \"#utility.yul\":1605:1607   */\n    tag_385:\n        /* \"#utility.yul\":1659:1700   */\n      tag_386\n        /* \"#utility.yul\":1693:1699   */\n      dup5\n        /* \"#utility.yul\":1688:1691   */\n      dup3\n        /* \"#utility.yul\":1683:1686   */\n      dup6\n        /* \"#utility.yul\":1659:1700   */\n      tag_387\n      jump\t// in\n    tag_386:\n        /* \"#utility.yul\":1446:1706   */\n      pop\n      swap4\n      swap3\n      pop\n      pop\n      pop\n      jump\t// out\n        /* \"#utility.yul\":1712:2057   */\n    tag_388:\n        /* \"#utility.yul\":1790:1795   */\n      0x00\n        /* \"#utility.yul\":1815:1881   */\n      tag_390\n        /* \"#utility.yul\":1831:1880   */\n      tag_391\n        /* \"#utility.yul\":1873:1879   */\n      dup5\n        /* \"#utility.yul\":1831:1880   */\n      tag_392\n      jump\t// in\n    tag_391:\n        /* \"#utility.yul\":1815:1881   */\n      tag_362\n      jump\t// in\n    tag_390:\n        /* \"#utility.yul\":1806:1881   */\n      swap1\n      pop\n        /* \"#utility.yul\":1904:1910   */\n      dup3\n        /* \"#utility.yul\":1897:1902   */\n      dup2\n        /* \"#utility.yul\":1890:1911   */\n      mstore\n        /* \"#utility.yul\":1942:1946   */\n      0x20\n        /* \"#utility.yul\":1935:1940   */\n      dup2\n        /* \"#utility.yul\":1931:1947   */\n      add\n        /* \"#utility.yul\":1980:1983   */\n      dup5\n        /* \"#utility.yul\":1971:1977   */\n      dup5\n        /* \"#utility.yul\":1966:1969   */\n      dup5\n        /* \"#utility.yul\":1962:1978   */\n      add\n        /* \"#utility.yul\":1959:1984   */\n      gt\n        /* \"#utility.yul\":1956:1958   */\n      iszero\n      tag_393\n      jumpi\n        /* \"#utility.yul\":1997:1998   */\n      0x00\n        /* \"#utility.yul\":1994:1995   */\n      dup1\n        /* \"#utility.yul\":1987:1999   */\n      revert\n        /* \"#utility.yul\":1956:1958   */\n    tag_393:\n        /* \"#utility.yul\":2010:2051   */\n      tag_394\n        /* \"#utility.yul\":2044:2050   */\n      dup5\n        /* \"#utility.yul\":2039:2042   */\n      dup3\n        /* \"#utility.yul\":2034:2037   */\n      dup6\n        /* \"#utility.yul\":2010:2051   */\n      tag_387\n      jump\t// in\n    tag_394:\n        /* \"#utility.yul\":1796:2057   */\n      pop\n      swap4\n      swap3\n      pop\n      pop\n      pop\n      jump\t// out\n        /* \"#utility.yul\":2063:2202   */\n    tag_368:\n        /* \"#utility.yul\":2109:2114   */\n      0x00\n        /* \"#utility.yul\":2147:2153   */\n      dup2\n        /* \"#utility.yul\":2134:2154   */\n      calldataload\n        /* \"#utility.yul\":2125:2154   */\n      swap1\n      pop\n        /* \"#utility.yul\":2163:2196   */\n      tag_396\n        /* \"#utility.yul\":2190:2195   */\n      dup2\n        /* \"#utility.yul\":2163:2196   */\n      tag_397\n      jump\t// in\n    tag_396:\n        /* \"#utility.yul\":2115:2202   */\n      swap3\n      swap2\n      pop\n      pop\n      jump\t// out\n        /* \"#utility.yul\":2225:2528   */\n    tag_398:\n        /* \"#utility.yul\":2296:2301   */\n      0x00\n        /* \"#utility.yul\":2345:2348   */\n      dup3\n        /* \"#utility.yul\":2338:2342   */\n      0x1f\n        /* \"#utility.yul\":2330:2336   */\n      dup4\n        /* \"#utility.yul\":2326:2343   */\n      add\n        /* \"#utility.yul\":2322:2349   */\n      slt\n        /* \"#utility.yul\":2312:2314   */\n      tag_400\n      jumpi\n        /* \"#utility.yul\":2363:2364   */\n      0x00\n        /* \"#utility.yul\":2360:2361   */\n      dup1\n        /* \"#utility.yul\":2353:2365   */\n      revert\n        /* \"#utility.yul\":2312:2314   */\n    tag_400:\n        /* \"#utility.yul\":2403:2409   */\n      dup2\n        /* \"#utility.yul\":2390:2410   */\n      calldataload\n        /* \"#utility.yul\":2428:2522   */\n      tag_401\n        /* \"#utility.yul\":2518:2521   */\n      dup5\n        /* \"#utility.yul\":2510:2516   */\n      dup3\n        /* \"#utility.yul\":2503:2507   */\n      0x20\n        /* \"#utility.yul\":2495:2501   */\n      dup7\n        /* \"#utility.yul\":2491:2508   */\n      add\n        /* \"#utility.yul\":2428:2522   */\n      tag_357\n      jump\t// in\n    tag_401:\n        /* \"#utility.yul\":2419:2522   */\n      swap2\n      pop\n        /* \"#utility.yul\":2302:2528   */\n      pop\n      swap3\n      swap2\n      pop\n      pop\n      jump\t// out\n        /* \"#utility.yul\":2551:2854   */\n    tag_402:\n        /* \"#utility.yul\":2622:2627   */\n      0x00\n        /* \"#utility.yul\":2671:2674   */\n      dup3\n        /* \"#utility.yul\":2664:2668   */\n      0x1f\n        /* \"#utility.yul\":2656:2662   */\n      dup4\n        /* \"#utility.yul\":2652:2669   */\n      add\n        /* \"#utility.yul\":2648:2675   */\n      slt\n        /* \"#utility.yul\":2638:2640   */\n      tag_404\n      jumpi\n        /* \"#utility.yul\":2689:2690   */\n      0x00\n        /* \"#utility.yul\":2686:2687   */\n      dup1\n        /* \"#utility.yul\":2679:2691   */\n      revert\n        /* \"#utility.yul\":2638:2640   */\n    tag_404:\n        /* \"#utility.yul\":2729:2735   */\n      dup2\n        /* \"#utility.yul\":2716:2736   */\n      calldataload\n        /* \"#utility.yul\":2754:2848   */\n      tag_405\n        /* \"#utility.yul\":2844:2847   */\n      dup5\n        /* \"#utility.yul\":2836:2842   */\n      dup3\n        /* \"#utility.yul\":2829:2833   */\n      0x20\n        /* \"#utility.yul\":2821:2827   */\n      dup7\n        /* \"#utility.yul\":2817:2834   */\n      add\n        /* \"#utility.yul\":2754:2848   */\n      tag_369\n      jump\t// in\n    tag_405:\n        /* \"#utility.yul\":2745:2848   */\n      swap2\n      pop\n        /* \"#utility.yul\":2628:2854   */\n      pop\n      swap3\n      swap2\n      pop\n      pop\n      jump\t// out\n        /* \"#utility.yul\":2860:2993   */\n    tag_406:\n        /* \"#utility.yul\":2903:2908   */\n      0x00\n        /* \"#utility.yul\":2941:2947   */\n      dup2\n        /* \"#utility.yul\":2928:2948   */\n      calldataload\n        /* \"#utility.yul\":2919:2948   */\n      swap1\n      pop\n        /* \"#utility.yul\":2957:2987   */\n      tag_408\n        /* \"#utility.yul\":2981:2986   */\n      dup2\n        /* \"#utility.yul\":2957:2987   */\n      tag_409\n      jump\t// in\n    tag_408:\n        /* \"#utility.yul\":2909:2993   */\n      swap3\n      swap2\n      pop\n      pop\n      jump\t// out\n        /* \"#utility.yul\":2999:3136   */\n    tag_410:\n        /* \"#utility.yul\":3044:3049   */\n      0x00\n        /* \"#utility.yul\":3082:3088   */\n      dup2\n        /* \"#utility.yul\":3069:3089   */\n      calldataload\n        /* \"#utility.yul\":3060:3089   */\n      swap1\n      pop\n        /* \"#utility.yul\":3098:3130   */\n      tag_412\n        /* \"#utility.yul\":3124:3129   */\n      dup2\n        /* \"#utility.yul\":3098:3130   */\n      tag_413\n      jump\t// in\n    tag_412:\n        /* \"#utility.yul\":3050:3136   */\n      swap3\n      swap2\n      pop\n      pop\n      jump\t// out\n        /* \"#utility.yul\":3142:3283   */\n    tag_414:\n        /* \"#utility.yul\":3198:3203   */\n      0x00\n        /* \"#utility.yul\":3229:3235   */\n      dup2\n        /* \"#utility.yul\":3223:3236   */\n      mload\n        /* \"#utility.yul\":3214:3236   */\n      swap1\n      pop\n        /* \"#utility.yul\":3245:3277   */\n      tag_416\n        /* \"#utility.yul\":3271:3276   */\n      dup2\n        /* \"#utility.yul\":3245:3277   */\n      tag_413\n      jump\t// in\n    tag_416:\n        /* \"#utility.yul\":3204:3283   */\n      swap3\n      swap2\n      pop\n      pop\n      jump\t// out\n        /* \"#utility.yul\":3302:3573   */\n    tag_417:\n        /* \"#utility.yul\":3357:3362   */\n      0x00\n        /* \"#utility.yul\":3406:3409   */\n      dup3\n        /* \"#utility.yul\":3399:3403   */\n      0x1f\n        /* \"#utility.yul\":3391:3397   */\n      dup4\n        /* \"#utility.yul\":3387:3404   */\n      add\n        /* \"#utility.yul\":3383:3410   */\n      slt\n        /* \"#utility.yul\":3373:3375   */\n      tag_419\n      jumpi\n        /* \"#utility.yul\":3424:3425   */\n      0x00\n        /* \"#utility.yul\":3421:3422   */\n      dup1\n        /* \"#utility.yul\":3414:3426   */\n      revert\n        /* \"#utility.yul\":3373:3375   */\n    tag_419:\n        /* \"#utility.yul\":3464:3470   */\n      dup2\n        /* \"#utility.yul\":3451:3471   */\n      calldataload\n        /* \"#utility.yul\":3489:3567   */\n      tag_420\n        /* \"#utility.yul\":3563:3566   */\n      dup5\n        /* \"#utility.yul\":3555:3561   */\n      dup3\n        /* \"#utility.yul\":3548:3552   */\n      0x20\n        /* \"#utility.yul\":3540:3546   */\n      dup7\n        /* \"#utility.yul\":3536:3553   */\n      add\n        /* \"#utility.yul\":3489:3567   */\n      tag_380\n      jump\t// in\n    tag_420:\n        /* \"#utility.yul\":3480:3567   */\n      swap2\n      pop\n        /* \"#utility.yul\":3363:3573   */\n      pop\n      swap3\n      swap2\n      pop\n      pop\n      jump\t// out\n        /* \"#utility.yul\":3593:3866   */\n    tag_421:\n        /* \"#utility.yul\":3649:3654   */\n      0x00\n        /* \"#utility.yul\":3698:3701   */\n      dup3\n        /* \"#utility.yul\":3691:3695   */\n      0x1f\n        /* \"#utility.yul\":3683:3689   */\n      dup4\n        /* \"#utility.yul\":3679:3696   */\n      add\n        /* \"#utility.yul\":3675:3702   */\n      slt\n        /* \"#utility.yul\":3665:3667   */\n      tag_423\n      jumpi\n        /* \"#utility.yul\":3716:3717   */\n      0x00\n        /* \"#utility.yul\":3713:3714   */\n      dup1\n        /* \"#utility.yul\":3706:3718   */\n      revert\n        /* \"#utility.yul\":3665:3667   */\n    tag_423:\n        /* \"#utility.yul\":3756:3762   */\n      dup2\n        /* \"#utility.yul\":3743:3763   */\n      calldataload\n        /* \"#utility.yul\":3781:3860   */\n      tag_424\n        /* \"#utility.yul\":3856:3859   */\n      dup5\n        /* \"#utility.yul\":3848:3854   */\n      dup3\n        /* \"#utility.yul\":3841:3845   */\n      0x20\n        /* \"#utility.yul\":3833:3839   */\n      dup7\n        /* \"#utility.yul\":3829:3846   */\n      add\n        /* \"#utility.yul\":3781:3860   */\n      tag_388\n      jump\t// in\n    tag_424:\n        /* \"#utility.yul\":3772:3860   */\n      swap2\n      pop\n        /* \"#utility.yul\":3655:3866   */\n      pop\n      swap3\n      swap2\n      pop\n      pop\n      jump\t// out\n        /* \"#utility.yul\":3872:4011   */\n    tag_379:\n        /* \"#utility.yul\":3918:3923   */\n      0x00\n        /* \"#utility.yul\":3956:3962   */\n      dup2\n        /* \"#utility.yul\":3943:3963   */\n      calldataload\n        /* \"#utility.yul\":3934:3963   */\n      swap1\n      pop\n        /* \"#utility.yul\":3972:4005   */\n      tag_426\n        /* \"#utility.yul\":3999:4004   */\n      dup2\n        /* \"#utility.yul\":3972:4005   */\n      tag_427\n      jump\t// in\n    tag_426:\n        /* \"#utility.yul\":3924:4011   */\n      swap3\n      swap2\n      pop\n      pop\n      jump\t// out\n        /* \"#utility.yul\":4017:4279   */\n    tag_66:\n        /* \"#utility.yul\":4076:4082   */\n      0x00\n        /* \"#utility.yul\":4125:4127   */\n      0x20\n        /* \"#utility.yul\":4113:4122   */\n      dup3\n        /* \"#utility.yul\":4104:4111   */\n      dup5\n        /* \"#utility.yul\":4100:4123   */\n      sub\n        /* \"#utility.yul\":4096:4128   */\n      slt\n        /* \"#utility.yul\":4093:4095   */\n      iszero\n      tag_429\n      jumpi\n        /* \"#utility.yul\":4141:4142   */\n      0x00\n        /* \"#utility.yul\":4138:4139   */\n      dup1\n        /* \"#utility.yul\":4131:4143   */\n      revert\n        /* \"#utility.yul\":4093:4095   */\n    tag_429:\n        /* \"#utility.yul\":4184:4185   */\n      0x00\n        /* \"#utility.yul\":4209:4262   */\n      tag_430\n        /* \"#utility.yul\":4254:4261   */\n      dup5\n        /* \"#utility.yul\":4245:4251   */\n      dup3\n        /* \"#utility.yul\":4234:4243   */\n      dup6\n        /* \"#utility.yul\":4230:4252   */\n      add\n        /* \"#utility.yul\":4209:4262   */\n      tag_368\n      jump\t// in\n    tag_430:\n        /* \"#utility.yul\":4199:4262   */\n      swap2\n      pop\n        /* \"#utility.yul\":4155:4272   */\n      pop\n        /* \"#utility.yul\":4083:4279   */\n      swap3\n      swap2\n      pop\n      pop\n      jump\t// out\n        /* \"#utility.yul\":4285:4692   */\n    tag_94:\n        /* \"#utility.yul\":4353:4359   */\n      0x00\n        /* \"#utility.yul\":4361:4367   */\n      dup1\n        /* \"#utility.yul\":4410:4412   */\n      0x40\n        /* \"#utility.yul\":4398:4407   */\n      dup4\n        /* \"#utility.yul\":4389:4396   */\n      dup6\n        /* \"#utility.yul\":4385:4408   */\n      sub\n        /* \"#utility.yul\":4381:4413   */\n      slt\n        /* \"#utility.yul\":4378:4380   */\n      iszero\n      tag_432\n      jumpi\n        /* \"#utility.yul\":4426:4427   */\n      0x00\n        /* \"#utility.yul\":4423:4424   */\n      dup1\n        /* \"#utility.yul\":4416:4428   */\n      revert\n        /* \"#utility.yul\":4378:4380   */\n    tag_432:\n        /* \"#utility.yul\":4469:4470   */\n      0x00\n        /* \"#utility.yul\":4494:4547   */\n      tag_433\n        /* \"#utility.yul\":4539:4546   */\n      dup6\n        /* \"#utility.yul\":4530:4536   */\n      dup3\n        /* \"#utility.yul\":4519:4528   */\n      dup7\n        /* \"#utility.yul\":4515:4537   */\n      add\n        /* \"#utility.yul\":4494:4547   */\n      tag_368\n      jump\t// in\n    tag_433:\n        /* \"#utility.yul\":4484:4547   */\n      swap3\n      pop\n        /* \"#utility.yul\":4440:4557   */\n      pop\n        /* \"#utility.yul\":4596:4598   */\n      0x20\n        /* \"#utility.yul\":4622:4675   */\n      tag_434\n        /* \"#utility.yul\":4667:4674   */\n      dup6\n        /* \"#utility.yul\":4658:4664   */\n      dup3\n        /* \"#utility.yul\":4647:4656   */\n      dup7\n        /* \"#utility.yul\":4643:4665   */\n      add\n        /* \"#utility.yul\":4622:4675   */\n      tag_368\n      jump\t// in\n    tag_434:\n        /* \"#utility.yul\":4612:4675   */\n      swap2\n      pop\n        /* \"#utility.yul\":4567:4685   */\n      pop\n        /* \"#utility.yul\":4368:4692   */\n      swap3\n      pop\n      swap3\n      swap1\n      pop\n      jump\t// out\n        /* \"#utility.yul\":4698:5250   */\n    tag_46:\n        /* \"#utility.yul\":4775:4781   */\n      0x00\n        /* \"#utility.yul\":4783:4789   */\n      dup1\n        /* \"#utility.yul\":4791:4797   */\n      0x00\n        /* \"#utility.yul\":4840:4842   */\n      0x60\n        /* \"#utility.yul\":4828:4837   */\n      dup5\n        /* \"#utility.yul\":4819:4826   */\n      dup7\n        /* \"#utility.yul\":4815:4838   */\n      sub\n        /* \"#utility.yul\":4811:4843   */\n      slt\n        /* \"#utility.yul\":4808:4810   */\n      iszero\n      tag_436\n      jumpi\n        /* \"#utility.yul\":4856:4857   */\n      0x00\n        /* \"#utility.yul\":4853:4854   */\n      dup1\n        /* \"#utility.yul\":4846:4858   */\n      revert\n        /* \"#utility.yul\":4808:4810   */\n    tag_436:\n        /* \"#utility.yul\":4899:4900   */\n      0x00\n        /* \"#utility.yul\":4924:4977   */\n      tag_437\n        /* \"#utility.yul\":4969:4976   */\n      dup7\n        /* \"#utility.yul\":4960:4966   */\n      dup3\n        /* \"#utility.yul\":4949:4958   */\n      dup8\n        /* \"#utility.yul\":4945:4967   */\n      add\n        /* \"#utility.yul\":4924:4977   */\n      tag_368\n      jump\t// in\n    tag_437:\n        /* \"#utility.yul\":4914:4977   */\n      swap4\n      pop\n        /* \"#utility.yul\":4870:4987   */\n      pop\n        /* \"#utility.yul\":5026:5028   */\n      0x20\n        /* \"#utility.yul\":5052:5105   */\n      tag_438\n        /* \"#utility.yul\":5097:5104   */\n      dup7\n        /* \"#utility.yul\":5088:5094   */\n      dup3\n        /* \"#utility.yul\":5077:5086   */\n      dup8\n        /* \"#utility.yul\":5073:5095   */\n      add\n        /* \"#utility.yul\":5052:5105   */\n      tag_368\n      jump\t// in\n    tag_438:\n        /* \"#utility.yul\":5042:5105   */\n      swap3\n      pop\n        /* \"#utility.yul\":4997:5115   */\n      pop\n        /* \"#utility.yul\":5154:5156   */\n      0x40\n        /* \"#utility.yul\":5180:5233   */\n      tag_439\n        /* \"#utility.yul\":5225:5232   */\n      dup7\n        /* \"#utility.yul\":5216:5222   */\n      dup3\n        /* \"#utility.yul\":5205:5214   */\n      dup8\n        /* \"#utility.yul\":5201:5223   */\n      add\n        /* \"#utility.yul\":5180:5233   */\n      tag_379\n      jump\t// in\n    tag_439:\n        /* \"#utility.yul\":5170:5233   */\n      swap2\n      pop\n        /* \"#utility.yul\":5125:5243   */\n      pop\n        /* \"#utility.yul\":4798:5250   */\n      swap3\n      pop\n      swap3\n      pop\n      swap3\n      jump\t// out\n        /* \"#utility.yul\":5256:6065   */\n    tag_83:\n        /* \"#utility.yul\":5351:5357   */\n      0x00\n        /* \"#utility.yul\":5359:5365   */\n      dup1\n        /* \"#utility.yul\":5367:5373   */\n      0x00\n        /* \"#utility.yul\":5375:5381   */\n      dup1\n        /* \"#utility.yul\":5424:5427   */\n      0x80\n        /* \"#utility.yul\":5412:5421   */\n      dup6\n        /* \"#utility.yul\":5403:5410   */\n      dup8\n        /* \"#utility.yul\":5399:5422   */\n      sub\n        /* \"#utility.yul\":5395:5428   */\n      slt\n        /* \"#utility.yul\":5392:5394   */\n      iszero\n      tag_441\n      jumpi\n        /* \"#utility.yul\":5441:5442   */\n      0x00\n        /* \"#utility.yul\":5438:5439   */\n      dup1\n        /* \"#utility.yul\":5431:5443   */\n      revert\n        /* \"#utility.yul\":5392:5394   */\n    tag_441:\n        /* \"#utility.yul\":5484:5485   */\n      0x00\n        /* \"#utility.yul\":5509:5562   */\n      tag_442\n        /* \"#utility.yul\":5554:5561   */\n      dup8\n        /* \"#utility.yul\":5545:5551   */\n      dup3\n        /* \"#utility.yul\":5534:5543   */\n      dup9\n        /* \"#utility.yul\":5530:5552   */\n      add\n        /* \"#utility.yul\":5509:5562   */\n      tag_368\n      jump\t// in\n    tag_442:\n        /* \"#utility.yul\":5499:5562   */\n      swap5\n      pop\n        /* \"#utility.yul\":5455:5572   */\n      pop\n        /* \"#utility.yul\":5611:5613   */\n      0x20\n        /* \"#utility.yul\":5637:5690   */\n      tag_443\n        /* \"#utility.yul\":5682:5689   */\n      dup8\n        /* \"#utility.yul\":5673:5679   */\n      dup3\n        /* \"#utility.yul\":5662:5671   */\n      dup9\n        /* \"#utility.yul\":5658:5680   */\n      add\n        /* \"#utility.yul\":5637:5690   */\n      tag_368\n      jump\t// in\n    tag_443:\n        /* \"#utility.yul\":5627:5690   */\n      swap4\n      pop\n        /* \"#utility.yul\":5582:5700   */\n      pop\n        /* \"#utility.yul\":5739:5741   */\n      0x40\n        /* \"#utility.yul\":5765:5818   */\n      tag_444\n        /* \"#utility.yul\":5810:5817   */\n      dup8\n        /* \"#utility.yul\":5801:5807   */\n      dup3\n        /* \"#utility.yul\":5790:5799   */\n      dup9\n        /* \"#utility.yul\":5786:5808   */\n      add\n        /* \"#utility.yul\":5765:5818   */\n      tag_379\n      jump\t// in\n    tag_444:\n        /* \"#utility.yul\":5755:5818   */\n      swap3\n      pop\n        /* \"#utility.yul\":5710:5828   */\n      pop\n        /* \"#utility.yul\":5895:5897   */\n      0x60\n        /* \"#utility.yul\":5884:5893   */\n      dup6\n        /* \"#utility.yul\":5880:5898   */\n      add\n        /* \"#utility.yul\":5867:5899   */\n      calldataload\n        /* \"#utility.yul\":5926:5944   */\n      0xffffffffffffffff\n        /* \"#utility.yul\":5918:5924   */\n      dup2\n        /* \"#utility.yul\":5915:5945   */\n      gt\n        /* \"#utility.yul\":5912:5914   */\n      iszero\n      tag_445\n      jumpi\n        /* \"#utility.yul\":5958:5959   */\n      0x00\n        /* \"#utility.yul\":5955:5956   */\n      dup1\n        /* \"#utility.yul\":5948:5960   */\n      revert\n        /* \"#utility.yul\":5912:5914   */\n    tag_445:\n        /* \"#utility.yul\":5986:6048   */\n      tag_446\n        /* \"#utility.yul\":6040:6047   */\n      dup8\n        /* \"#utility.yul\":6031:6037   */\n      dup3\n        /* \"#utility.yul\":6020:6029   */\n      dup9\n        /* \"#utility.yul\":6016:6038   */\n      add\n        /* \"#utility.yul\":5986:6048   */\n      tag_417\n      jump\t// in\n    tag_446:\n        /* \"#utility.yul\":5976:6048   */\n      swap2\n      pop\n        /* \"#utility.yul\":5838:6058   */\n      pop\n        /* \"#utility.yul\":5382:6065   */\n      swap3\n      swap6\n      swap2\n      swap5\n      pop\n      swap3\n      pop\n      jump\t// out\n        /* \"#utility.yul\":6071:7168   */\n    tag_50:\n        /* \"#utility.yul\":6217:6223   */\n      0x00\n        /* \"#utility.yul\":6225:6231   */\n      dup1\n        /* \"#utility.yul\":6233:6239   */\n      0x00\n        /* \"#utility.yul\":6241:6247   */\n      dup1\n        /* \"#utility.yul\":6290:6293   */\n      0x80\n        /* \"#utility.yul\":6278:6287   */\n      dup6\n        /* \"#utility.yul\":6269:6276   */\n      dup8\n        /* \"#utility.yul\":6265:6288   */\n      sub\n        /* \"#utility.yul\":6261:6294   */\n      slt\n        /* \"#utility.yul\":6258:6260   */\n      iszero\n      tag_448\n      jumpi\n        /* \"#utility.yul\":6307:6308   */\n      0x00\n        /* \"#utility.yul\":6304:6305   */\n      dup1\n        /* \"#utility.yul\":6297:6309   */\n      revert\n        /* \"#utility.yul\":6258:6260   */\n    tag_448:\n        /* \"#utility.yul\":6350:6351   */\n      0x00\n        /* \"#utility.yul\":6375:6428   */\n      tag_449\n        /* \"#utility.yul\":6420:6427   */\n      dup8\n        /* \"#utility.yul\":6411:6417   */\n      dup3\n        /* \"#utility.yul\":6400:6409   */\n      dup9\n        /* \"#utility.yul\":6396:6418   */\n      add\n        /* \"#utility.yul\":6375:6428   */\n      tag_368\n      jump\t// in\n    tag_449:\n        /* \"#utility.yul\":6365:6428   */\n      swap5\n      pop\n        /* \"#utility.yul\":6321:6438   */\n      pop\n        /* \"#utility.yul\":6505:6507   */\n      0x20\n        /* \"#utility.yul\":6494:6503   */\n      dup6\n        /* \"#utility.yul\":6490:6508   */\n      add\n        /* \"#utility.yul\":6477:6509   */\n      calldataload\n        /* \"#utility.yul\":6536:6554   */\n      0xffffffffffffffff\n        /* \"#utility.yul\":6528:6534   */\n      dup2\n        /* \"#utility.yul\":6525:6555   */\n      gt\n        /* \"#utility.yul\":6522:6524   */\n      iszero\n      tag_450\n      jumpi\n        /* \"#utility.yul\":6568:6569   */\n      0x00\n        /* \"#utility.yul\":6565:6566   */\n      dup1\n        /* \"#utility.yul\":6558:6570   */\n      revert\n        /* \"#utility.yul\":6522:6524   */\n    tag_450:\n        /* \"#utility.yul\":6596:6674   */\n      tag_451\n        /* \"#utility.yul\":6666:6673   */\n      dup8\n        /* \"#utility.yul\":6657:6663   */\n      dup3\n        /* \"#utility.yul\":6646:6655   */\n      dup9\n        /* \"#utility.yul\":6642:6664   */\n      add\n        /* \"#utility.yul\":6596:6674   */\n      tag_398\n      jump\t// in\n    tag_451:\n        /* \"#utility.yul\":6586:6674   */\n      swap4\n      pop\n        /* \"#utility.yul\":6448:6684   */\n      pop\n        /* \"#utility.yul\":6751:6753   */\n      0x40\n        /* \"#utility.yul\":6740:6749   */\n      dup6\n        /* \"#utility.yul\":6736:6754   */\n      add\n        /* \"#utility.yul\":6723:6755   */\n      calldataload\n        /* \"#utility.yul\":6782:6800   */\n      0xffffffffffffffff\n        /* \"#utility.yul\":6774:6780   */\n      dup2\n        /* \"#utility.yul\":6771:6801   */\n      gt\n        /* \"#utility.yul\":6768:6770   */\n      iszero\n      tag_452\n      jumpi\n        /* \"#utility.yul\":6814:6815   */\n      0x00\n        /* \"#utility.yul\":6811:6812   */\n      dup1\n        /* \"#utility.yul\":6804:6816   */\n      revert\n        /* \"#utility.yul\":6768:6770   */\n    tag_452:\n        /* \"#utility.yul\":6842:6920   */\n      tag_453\n        /* \"#utility.yul\":6912:6919   */\n      dup8\n        /* \"#utility.yul\":6903:6909   */\n      dup3\n        /* \"#utility.yul\":6892:6901   */\n      dup9\n        /* \"#utility.yul\":6888:6910   */\n      add\n        /* \"#utility.yul\":6842:6920   */\n      tag_402\n      jump\t// in\n    tag_453:\n        /* \"#utility.yul\":6832:6920   */\n      swap3\n      pop\n        /* \"#utility.yul\":6694:6930   */\n      pop\n        /* \"#utility.yul\":6997:6999   */\n      0x60\n        /* \"#utility.yul\":6986:6995   */\n      dup6\n        /* \"#utility.yul\":6982:7000   */\n      add\n        /* \"#utility.yul\":6969:7001   */\n      calldataload\n        /* \"#utility.yul\":7028:7046   */\n      0xffffffffffffffff\n        /* \"#utility.yul\":7020:7026   */\n      dup2\n        /* \"#utility.yul\":7017:7047   */\n      gt\n        /* \"#utility.yul\":7014:7016   */\n      iszero\n      tag_454\n      jumpi\n        /* \"#utility.yul\":7060:7061   */\n      0x00\n        /* \"#utility.yul\":7057:7058   */\n      dup1\n        /* \"#utility.yul\":7050:7062   */\n      revert\n        /* \"#utility.yul\":7014:7016   */\n    tag_454:\n        /* \"#utility.yul\":7088:7151   */\n      tag_455\n        /* \"#utility.yul\":7143:7150   */\n      dup8\n        /* \"#utility.yul\":7134:7140   */\n      dup3\n        /* \"#utility.yul\":7123:7132   */\n      dup9\n        /* \"#utility.yul\":7119:7141   */\n      add\n        /* \"#utility.yul\":7088:7151   */\n      tag_421\n      jump\t// in\n    tag_455:\n        /* \"#utility.yul\":7078:7151   */\n      swap2\n      pop\n        /* \"#utility.yul\":6940:7161   */\n      pop\n        /* \"#utility.yul\":6248:7168   */\n      swap3\n      swap6\n      swap2\n      swap5\n      pop\n      swap3\n      pop\n      jump\t// out\n        /* \"#utility.yul\":7174:7575   */\n    tag_79:\n        /* \"#utility.yul\":7239:7245   */\n      0x00\n        /* \"#utility.yul\":7247:7253   */\n      dup1\n        /* \"#utility.yul\":7296:7298   */\n      0x40\n        /* \"#utility.yul\":7284:7293   */\n      dup4\n        /* \"#utility.yul\":7275:7282   */\n      dup6\n        /* \"#utility.yul\":7271:7294   */\n      sub\n        /* \"#utility.yul\":7267:7299   */\n      slt\n        /* \"#utility.yul\":7264:7266   */\n      iszero\n      tag_457\n      jumpi\n        /* \"#utility.yul\":7312:7313   */\n      0x00\n        /* \"#utility.yul\":7309:7310   */\n      dup1\n        /* \"#utility.yul\":7302:7314   */\n      revert\n        /* \"#utility.yul\":7264:7266   */\n    tag_457:\n        /* \"#utility.yul\":7355:7356   */\n      0x00\n        /* \"#utility.yul\":7380:7433   */\n      tag_458\n        /* \"#utility.yul\":7425:7432   */\n      dup6\n        /* \"#utility.yul\":7416:7422   */\n      dup3\n        /* \"#utility.yul\":7405:7414   */\n      dup7\n        /* \"#utility.yul\":7401:7423   */\n      add\n        /* \"#utility.yul\":7380:7433   */\n      tag_368\n      jump\t// in\n    tag_458:\n        /* \"#utility.yul\":7370:7433   */\n      swap3\n      pop\n        /* \"#utility.yul\":7326:7443   */\n      pop\n        /* \"#utility.yul\":7482:7484   */\n      0x20\n        /* \"#utility.yul\":7508:7558   */\n      tag_459\n        /* \"#utility.yul\":7550:7557   */\n      dup6\n        /* \"#utility.yul\":7541:7547   */\n      dup3\n        /* \"#utility.yul\":7530:7539   */\n      dup7\n        /* \"#utility.yul\":7526:7548   */\n      add\n        /* \"#utility.yul\":7508:7558   */\n      tag_406\n      jump\t// in\n    tag_459:\n        /* \"#utility.yul\":7498:7558   */\n      swap2\n      pop\n        /* \"#utility.yul\":7453:7568   */\n      pop\n        /* \"#utility.yul\":7254:7575   */\n      swap3\n      pop\n      swap3\n      swap1\n      pop\n      jump\t// out\n        /* \"#utility.yul\":7581:7988   */\n    tag_42:\n        /* \"#utility.yul\":7649:7655   */\n      0x00\n        /* \"#utility.yul\":7657:7663   */\n      dup1\n        /* \"#utility.yul\":7706:7708   */\n      0x40\n        /* \"#utility.yul\":7694:7703   */\n      dup4\n        /* \"#utility.yul\":7685:7692   */\n      dup6\n        /* \"#utility.yul\":7681:7704   */\n      sub\n        /* \"#utility.yul\":7677:7709   */\n      slt\n        /* \"#utility.yul\":7674:7676   */\n      iszero\n      tag_461\n      jumpi\n        /* \"#utility.yul\":7722:7723   */\n      0x00\n        /* \"#utility.yul\":7719:7720   */\n      dup1\n        /* \"#utility.yul\":7712:7724   */\n      revert\n        /* \"#utility.yul\":7674:7676   */\n    tag_461:\n        /* \"#utility.yul\":7765:7766   */\n      0x00\n        /* \"#utility.yul\":7790:7843   */\n      tag_462\n        /* \"#utility.yul\":7835:7842   */\n      dup6\n        /* \"#utility.yul\":7826:7832   */\n      dup3\n        /* \"#utility.yul\":7815:7824   */\n      dup7\n        /* \"#utility.yul\":7811:7833   */\n      add\n        /* \"#utility.yul\":7790:7843   */\n      tag_368\n      jump\t// in\n    tag_462:\n        /* \"#utility.yul\":7780:7843   */\n      swap3\n      pop\n        /* \"#utility.yul\":7736:7853   */\n      pop\n        /* \"#utility.yul\":7892:7894   */\n      0x20\n        /* \"#utility.yul\":7918:7971   */\n      tag_463\n        /* \"#utility.yul\":7963:7970   */\n      dup6\n        /* \"#utility.yul\":7954:7960   */\n      dup3\n        /* \"#utility.yul\":7943:7952   */\n      dup7\n        /* \"#utility.yul\":7939:7961   */\n      add\n        /* \"#utility.yul\":7918:7971   */\n      tag_379\n      jump\t// in\n    tag_463:\n        /* \"#utility.yul\":7908:7971   */\n      swap2\n      pop\n        /* \"#utility.yul\":7863:7981   */\n      pop\n        /* \"#utility.yul\":7664:7988   */\n      swap3\n      pop\n      swap3\n      swap1\n      pop\n      jump\t// out\n        /* \"#utility.yul\":7994:8254   */\n    tag_26:\n        /* \"#utility.yul\":8052:8058   */\n      0x00\n        /* \"#utility.yul\":8101:8103   */\n      0x20\n        /* \"#utility.yul\":8089:8098   */\n      dup3\n        /* \"#utility.yul\":8080:8087   */\n      dup5\n        /* \"#utility.yul\":8076:8099   */\n      sub\n        /* \"#utility.yul\":8072:8104   */\n      slt\n        /* \"#utility.yul\":8069:8071   */\n      iszero\n      tag_465\n      jumpi\n        /* \"#utility.yul\":8117:8118   */\n      0x00\n        /* \"#utility.yul\":8114:8115   */\n      dup1\n        /* \"#utility.yul\":8107:8119   */\n      revert\n        /* \"#utility.yul\":8069:8071   */\n    tag_465:\n        /* \"#utility.yul\":8160:8161   */\n      0x00\n        /* \"#utility.yul\":8185:8237   */\n      tag_466\n        /* \"#utility.yul\":8229:8236   */\n      dup5\n        /* \"#utility.yul\":8220:8226   */\n      dup3\n        /* \"#utility.yul\":8209:8218   */\n      dup6\n        /* \"#utility.yul\":8205:8227   */\n      add\n        /* \"#utility.yul\":8185:8237   */\n      tag_410\n      jump\t// in\n    tag_466:\n        /* \"#utility.yul\":8175:8237   */\n      swap2\n      pop\n        /* \"#utility.yul\":8131:8247   */\n      pop\n        /* \"#utility.yul\":8059:8254   */\n      swap3\n      swap2\n      pop\n      pop\n      jump\t// out\n        /* \"#utility.yul\":8260:8542   */\n    tag_308:\n        /* \"#utility.yul\":8329:8335   */\n      0x00\n        /* \"#utility.yul\":8378:8380   */\n      0x20\n        /* \"#utility.yul\":8366:8375   */\n      dup3\n        /* \"#utility.yul\":8357:8364   */\n      dup5\n        /* \"#utility.yul\":8353:8376   */\n      sub\n        /* \"#utility.yul\":8349:8381   */\n      slt\n        /* \"#utility.yul\":8346:8348   */\n      iszero\n      tag_468\n      jumpi\n        /* \"#utility.yul\":8394:8395   */\n      0x00\n        /* \"#utility.yul\":8391:8392   */\n      dup1\n        /* \"#utility.yul\":8384:8396   */\n      revert\n        /* \"#utility.yul\":8346:8348   */\n    tag_468:\n        /* \"#utility.yul\":8437:8438   */\n      0x00\n        /* \"#utility.yul\":8462:8525   */\n      tag_469\n        /* \"#utility.yul\":8517:8524   */\n      dup5\n        /* \"#utility.yul\":8508:8514   */\n      dup3\n        /* \"#utility.yul\":8497:8506   */\n      dup6\n        /* \"#utility.yul\":8493:8515   */\n      add\n        /* \"#utility.yul\":8462:8525   */\n      tag_414\n      jump\t// in\n    tag_469:\n        /* \"#utility.yul\":8452:8525   */\n      swap2\n      pop\n        /* \"#utility.yul\":8408:8535   */\n      pop\n        /* \"#utility.yul\":8336:8542   */\n      swap3\n      swap2\n      pop\n      pop\n      jump\t// out\n        /* \"#utility.yul\":8548:8810   */\n    tag_36:\n        /* \"#utility.yul\":8607:8613   */\n      0x00\n        /* \"#utility.yul\":8656:8658   */\n      0x20\n        /* \"#utility.yul\":8644:8653   */\n      dup3\n        /* \"#utility.yul\":8635:8642   */\n      dup5\n        /* \"#utility.yul\":8631:8654   */\n      sub\n        /* \"#utility.yul\":8627:8659   */\n      slt\n        /* \"#utility.yul\":8624:8626   */\n      iszero\n      tag_471\n      jumpi\n        /* \"#utility.yul\":8672:8673   */\n      0x00\n        /* \"#utility.yul\":8669:8670   */\n      dup1\n        /* \"#utility.yul\":8662:8674   */\n      revert\n        /* \"#utility.yul\":8624:8626   */\n    tag_471:\n        /* \"#utility.yul\":8715:8716   */\n      0x00\n        /* \"#utility.yul\":8740:8793   */\n      tag_472\n        /* \"#utility.yul\":8785:8792   */\n      dup5\n        /* \"#utility.yul\":8776:8782   */\n      dup3\n        /* \"#utility.yul\":8765:8774   */\n      dup6\n        /* \"#utility.yul\":8761:8783   */\n      add\n        /* \"#utility.yul\":8740:8793   */\n      tag_379\n      jump\t// in\n    tag_472:\n        /* \"#utility.yul\":8730:8793   */\n      swap2\n      pop\n        /* \"#utility.yul\":8686:8803   */\n      pop\n        /* \"#utility.yul\":8614:8810   */\n      swap3\n      swap2\n      pop\n      pop\n      jump\t// out\n        /* \"#utility.yul\":8816:8995   */\n    tag_473:\n        /* \"#utility.yul\":8885:8895   */\n      0x00\n        /* \"#utility.yul\":8906:8952   */\n      tag_475\n        /* \"#utility.yul\":8948:8951   */\n      dup4\n        /* \"#utility.yul\":8940:8946   */\n      dup4\n        /* \"#utility.yul\":8906:8952   */\n      tag_476\n      jump\t// in\n    tag_475:\n        /* \"#utility.yul\":8984:8988   */\n      0x20\n        /* \"#utility.yul\":8979:8982   */\n      dup4\n        /* \"#utility.yul\":8975:8989   */\n      add\n        /* \"#utility.yul\":8961:8989   */\n      swap1\n      pop\n        /* \"#utility.yul\":8896:8995   */\n      swap3\n      swap2\n      pop\n      pop\n      jump\t// out\n        /* \"#utility.yul\":9001:9180   */\n    tag_477:\n        /* \"#utility.yul\":9070:9080   */\n      0x00\n        /* \"#utility.yul\":9091:9137   */\n      tag_479\n        /* \"#utility.yul\":9133:9136   */\n      dup4\n        /* \"#utility.yul\":9125:9131   */\n      dup4\n        /* \"#utility.yul\":9091:9137   */\n      tag_480\n      jump\t// in\n    tag_479:\n        /* \"#utility.yul\":9169:9173   */\n      0x20\n        /* \"#utility.yul\":9164:9167   */\n      dup4\n        /* \"#utility.yul\":9160:9174   */\n      add\n        /* \"#utility.yul\":9146:9174   */\n      swap1\n      pop\n        /* \"#utility.yul\":9081:9180   */\n      swap3\n      swap2\n      pop\n      pop\n      jump\t// out\n        /* \"#utility.yul\":9186:9294   */\n    tag_476:\n        /* \"#utility.yul\":9263:9287   */\n      tag_482\n        /* \"#utility.yul\":9281:9286   */\n      dup2\n        /* \"#utility.yul\":9263:9287   */\n      tag_483\n      jump\t// in\n    tag_482:\n        /* \"#utility.yul\":9258:9261   */\n      dup3\n        /* \"#utility.yul\":9251:9288   */\n      mstore\n        /* \"#utility.yul\":9241:9294   */\n      pop\n      pop\n      jump\t// out\n        /* \"#utility.yul\":9300:9418   */\n    tag_484:\n        /* \"#utility.yul\":9387:9411   */\n      tag_486\n        /* \"#utility.yul\":9405:9410   */\n      dup2\n        /* \"#utility.yul\":9387:9411   */\n      tag_483\n      jump\t// in\n    tag_486:\n        /* \"#utility.yul\":9382:9385   */\n      dup3\n        /* \"#utility.yul\":9375:9412   */\n      mstore\n        /* \"#utility.yul\":9365:9418   */\n      pop\n      pop\n      jump\t// out\n        /* \"#utility.yul\":9454:10186   */\n    tag_487:\n        /* \"#utility.yul\":9573:9576   */\n      0x00\n        /* \"#utility.yul\":9602:9656   */\n      tag_489\n        /* \"#utility.yul\":9650:9655   */\n      dup3\n        /* \"#utility.yul\":9602:9656   */\n      tag_490\n      jump\t// in\n    tag_489:\n        /* \"#utility.yul\":9672:9758   */\n      tag_491\n        /* \"#utility.yul\":9751:9757   */\n      dup2\n        /* \"#utility.yul\":9746:9749   */\n      dup6\n        /* \"#utility.yul\":9672:9758   */\n      tag_492\n      jump\t// in\n    tag_491:\n        /* \"#utility.yul\":9665:9758   */\n      swap4\n      pop\n        /* \"#utility.yul\":9782:9838   */\n      tag_493\n        /* \"#utility.yul\":9832:9837   */\n      dup4\n        /* \"#utility.yul\":9782:9838   */\n      tag_494\n      jump\t// in\n    tag_493:\n        /* \"#utility.yul\":9861:9868   */\n      dup1\n        /* \"#utility.yul\":9892:9893   */\n      0x00\n        /* \"#utility.yul\":9877:10161   */\n    tag_495:\n        /* \"#utility.yul\":9902:9908   */\n      dup4\n        /* \"#utility.yul\":9899:9900   */\n      dup2\n        /* \"#utility.yul\":9896:9909   */\n      lt\n        /* \"#utility.yul\":9877:10161   */\n      iszero\n      tag_497\n      jumpi\n        /* \"#utility.yul\":9978:9984   */\n      dup2\n        /* \"#utility.yul\":9972:9985   */\n      mload\n        /* \"#utility.yul\":10005:10068   */\n      tag_498\n        /* \"#utility.yul\":10064:10067   */\n      dup9\n        /* \"#utility.yul\":10049:10062   */\n      dup3\n        /* \"#utility.yul\":10005:10068   */\n      tag_473\n      jump\t// in\n    tag_498:\n        /* \"#utility.yul\":9998:10068   */\n      swap8\n      pop\n        /* \"#utility.yul\":10091:10151   */\n      tag_499\n        /* \"#utility.yul\":10144:10150   */\n      dup4\n        /* \"#utility.yul\":10091:10151   */\n      tag_500\n      jump\t// in\n    tag_499:\n        /* \"#utility.yul\":10081:10151   */\n      swap3\n      pop\n        /* \"#utility.yul\":9937:10161   */\n      pop\n        /* \"#utility.yul\":9924:9925   */\n      0x01\n        /* \"#utility.yul\":9921:9922   */\n      dup2\n        /* \"#utility.yul\":9917:9926   */\n      add\n        /* \"#utility.yul\":9912:9926   */\n      swap1\n      pop\n        /* \"#utility.yul\":9877:10161   */\n      jump(tag_495)\n    tag_497:\n        /* \"#utility.yul\":9881:9895   */\n      pop\n        /* \"#utility.yul\":10177:10180   */\n      dup6\n        /* \"#utility.yul\":10170:10180   */\n      swap4\n      pop\n        /* \"#utility.yul\":9578:10186   */\n      pop\n      pop\n      pop\n      swap3\n      swap2\n      pop\n      pop\n      jump\t// out\n        /* \"#utility.yul\":10222:10954   */\n    tag_501:\n        /* \"#utility.yul\":10341:10344   */\n      0x00\n        /* \"#utility.yul\":10370:10424   */\n      tag_503\n        /* \"#utility.yul\":10418:10423   */\n      dup3\n        /* \"#utility.yul\":10370:10424   */\n      tag_504\n      jump\t// in\n    tag_503:\n        /* \"#utility.yul\":10440:10526   */\n      tag_505\n        /* \"#utility.yul\":10519:10525   */\n      dup2\n        /* \"#utility.yul\":10514:10517   */\n      dup6\n        /* \"#utility.yul\":10440:10526   */\n      tag_506\n      jump\t// in\n    tag_505:\n        /* \"#utility.yul\":10433:10526   */\n      swap4\n      pop\n        /* \"#utility.yul\":10550:10606   */\n      tag_507\n        /* \"#utility.yul\":10600:10605   */\n      dup4\n        /* \"#utility.yul\":10550:10606   */\n      tag_508\n      jump\t// in\n    tag_507:\n        /* \"#utility.yul\":10629:10636   */\n      dup1\n        /* \"#utility.yul\":10660:10661   */\n      0x00\n        /* \"#utility.yul\":10645:10929   */\n    tag_509:\n        /* \"#utility.yul\":10670:10676   */\n      dup4\n        /* \"#utility.yul\":10667:10668   */\n      dup2\n        /* \"#utility.yul\":10664:10677   */\n      lt\n        /* \"#utility.yul\":10645:10929   */\n      iszero\n      tag_511\n      jumpi\n        /* \"#utility.yul\":10746:10752   */\n      dup2\n        /* \"#utility.yul\":10740:10753   */\n      mload\n        /* \"#utility.yul\":10773:10836   */\n      tag_512\n        /* \"#utility.yul\":10832:10835   */\n      dup9\n        /* \"#utility.yul\":10817:10830   */\n      dup3\n        /* \"#utility.yul\":10773:10836   */\n      tag_477\n      jump\t// in\n    tag_512:\n        /* \"#utility.yul\":10766:10836   */\n      swap8\n      pop\n        /* \"#utility.yul\":10859:10919   */\n      tag_513\n        /* \"#utility.yul\":10912:10918   */\n      dup4\n        /* \"#utility.yul\":10859:10919   */\n      tag_514\n      jump\t// in\n    tag_513:\n        /* \"#utility.yul\":10849:10919   */\n      swap3\n      pop\n        /* \"#utility.yul\":10705:10929   */\n      pop\n        /* \"#utility.yul\":10692:10693   */\n      0x01\n        /* \"#utility.yul\":10689:10690   */\n      dup2\n        /* \"#utility.yul\":10685:10694   */\n      add\n        /* \"#utility.yul\":10680:10694   */\n      swap1\n      pop\n        /* \"#utility.yul\":10645:10929   */\n      jump(tag_509)\n    tag_511:\n        /* \"#utility.yul\":10649:10663   */\n      pop\n        /* \"#utility.yul\":10945:10948   */\n      dup6\n        /* \"#utility.yul\":10938:10948   */\n      swap4\n      pop\n        /* \"#utility.yul\":10346:10954   */\n      pop\n      pop\n      pop\n      swap3\n      swap2\n      pop\n      pop\n      jump\t// out\n        /* \"#utility.yul\":10960:11069   */\n    tag_515:\n        /* \"#utility.yul\":11041:11062   */\n      tag_517\n        /* \"#utility.yul\":11056:11061   */\n      dup2\n        /* \"#utility.yul\":11041:11062   */\n      tag_518\n      jump\t// in\n    tag_517:\n        /* \"#utility.yul\":11036:11039   */\n      dup3\n        /* \"#utility.yul\":11029:11063   */\n      mstore\n        /* \"#utility.yul\":11019:11069   */\n      pop\n      pop\n      jump\t// out\n        /* \"#utility.yul\":11075:11435   */\n    tag_519:\n        /* \"#utility.yul\":11161:11164   */\n      0x00\n        /* \"#utility.yul\":11189:11227   */\n      tag_521\n        /* \"#utility.yul\":11221:11226   */\n      dup3\n        /* \"#utility.yul\":11189:11227   */\n      tag_522\n      jump\t// in\n    tag_521:\n        /* \"#utility.yul\":11243:11313   */\n      tag_523\n        /* \"#utility.yul\":11306:11312   */\n      dup2\n        /* \"#utility.yul\":11301:11304   */\n      dup6\n        /* \"#utility.yul\":11243:11313   */\n      tag_524\n      jump\t// in\n    tag_523:\n        /* \"#utility.yul\":11236:11313   */\n      swap4\n      pop\n        /* \"#utility.yul\":11322:11374   */\n      tag_525\n        /* \"#utility.yul\":11367:11373   */\n      dup2\n        /* \"#utility.yul\":11362:11365   */\n      dup6\n        /* \"#utility.yul\":11355:11359   */\n      0x20\n        /* \"#utility.yul\":11348:11353   */\n      dup7\n        /* \"#utility.yul\":11344:11360   */\n      add\n        /* \"#utility.yul\":11322:11374   */\n      tag_526\n      jump\t// in\n    tag_525:\n        /* \"#utility.yul\":11399:11428   */\n      tag_527\n        /* \"#utility.yul\":11421:11427   */\n      dup2\n        /* \"#utility.yul\":11399:11428   */\n      tag_528\n      jump\t// in\n    tag_527:\n        /* \"#utility.yul\":11394:11397   */\n      dup5\n        /* \"#utility.yul\":11390:11429   */\n      add\n        /* \"#utility.yul\":11383:11429   */\n      swap2\n      pop\n        /* \"#utility.yul\":11165:11435   */\n      pop\n      swap3\n      swap2\n      pop\n      pop\n      jump\t// out\n        /* \"#utility.yul\":11441:11805   */\n    tag_529:\n        /* \"#utility.yul\":11529:11532   */\n      0x00\n        /* \"#utility.yul\":11557:11596   */\n      tag_531\n        /* \"#utility.yul\":11590:11595   */\n      dup3\n        /* \"#utility.yul\":11557:11596   */\n      tag_532\n      jump\t// in\n    tag_531:\n        /* \"#utility.yul\":11612:11683   */\n      tag_533\n        /* \"#utility.yul\":11676:11682   */\n      dup2\n        /* \"#utility.yul\":11671:11674   */\n      dup6\n        /* \"#utility.yul\":11612:11683   */\n      tag_534\n      jump\t// in\n    tag_533:\n        /* \"#utility.yul\":11605:11683   */\n      swap4\n      pop\n        /* \"#utility.yul\":11692:11744   */\n      tag_535\n        /* \"#utility.yul\":11737:11743   */\n      dup2\n        /* \"#utility.yul\":11732:11735   */\n      dup6\n        /* \"#utility.yul\":11725:11729   */\n      0x20\n        /* \"#utility.yul\":11718:11723   */\n      dup7\n        /* \"#utility.yul\":11714:11730   */\n      add\n        /* \"#utility.yul\":11692:11744   */\n      tag_526\n      jump\t// in\n    tag_535:\n        /* \"#utility.yul\":11769:11798   */\n      tag_536\n        /* \"#utility.yul\":11791:11797   */\n      dup2\n        /* \"#utility.yul\":11769:11798   */\n      tag_528\n      jump\t// in\n    tag_536:\n        /* \"#utility.yul\":11764:11767   */\n      dup5\n        /* \"#utility.yul\":11760:11799   */\n      add\n        /* \"#utility.yul\":11753:11799   */\n      swap2\n      pop\n        /* \"#utility.yul\":11533:11805   */\n      pop\n      swap3\n      swap2\n      pop\n      pop\n      jump\t// out\n        /* \"#utility.yul\":11811:12188   */\n    tag_537:\n        /* \"#utility.yul\":11917:11920   */\n      0x00\n        /* \"#utility.yul\":11945:11984   */\n      tag_539\n        /* \"#utility.yul\":11978:11983   */\n      dup3\n        /* \"#utility.yul\":11945:11984   */\n      tag_532\n      jump\t// in\n    tag_539:\n        /* \"#utility.yul\":12000:12089   */\n      tag_540\n        /* \"#utility.yul\":12082:12088   */\n      dup2\n        /* \"#utility.yul\":12077:12080   */\n      dup6\n        /* \"#utility.yul\":12000:12089   */\n      tag_541\n      jump\t// in\n    tag_540:\n        /* \"#utility.yul\":11993:12089   */\n      swap4\n      pop\n        /* \"#utility.yul\":12098:12150   */\n      tag_542\n        /* \"#utility.yul\":12143:12149   */\n      dup2\n        /* \"#utility.yul\":12138:12141   */\n      dup6\n        /* \"#utility.yul\":12131:12135   */\n      0x20\n        /* \"#utility.yul\":12124:12129   */\n      dup7\n        /* \"#utility.yul\":12120:12136   */\n      add\n        /* \"#utility.yul\":12098:12150   */\n      tag_526\n      jump\t// in\n    tag_542:\n        /* \"#utility.yul\":12175:12181   */\n      dup1\n        /* \"#utility.yul\":12170:12173   */\n      dup5\n        /* \"#utility.yul\":12166:12182   */\n      add\n        /* \"#utility.yul\":12159:12182   */\n      swap2\n      pop\n        /* \"#utility.yul\":11921:12188   */\n      pop\n      swap3\n      swap2\n      pop\n      pop\n      jump\t// out\n        /* \"#utility.yul\":12194:12560   */\n    tag_543:\n        /* \"#utility.yul\":12336:12339   */\n      0x00\n        /* \"#utility.yul\":12357:12424   */\n      tag_545\n        /* \"#utility.yul\":12421:12423   */\n      0x2d\n        /* \"#utility.yul\":12416:12419   */\n      dup4\n        /* \"#utility.yul\":12357:12424   */\n      tag_534\n      jump\t// in\n    tag_545:\n        /* \"#utility.yul\":12350:12424   */\n      swap2\n      pop\n        /* \"#utility.yul\":12433:12526   */\n      tag_546\n        /* \"#utility.yul\":12522:12525   */\n      dup3\n        /* \"#utility.yul\":12433:12526   */\n      tag_547\n      jump\t// in\n    tag_546:\n        /* \"#utility.yul\":12551:12553   */\n      0x40\n        /* \"#utility.yul\":12546:12549   */\n      dup3\n        /* \"#utility.yul\":12542:12554   */\n      add\n        /* \"#utility.yul\":12535:12554   */\n      swap1\n      pop\n        /* \"#utility.yul\":12340:12560   */\n      swap2\n      swap1\n      pop\n      jump\t// out\n        /* \"#utility.yul\":12566:12932   */\n    tag_548:\n        /* \"#utility.yul\":12708:12711   */\n      0x00\n        /* \"#utility.yul\":12729:12796   */\n      tag_550\n        /* \"#utility.yul\":12793:12795   */\n      0x32\n        /* \"#utility.yul\":12788:12791   */\n      dup4\n        /* \"#utility.yul\":12729:12796   */\n      tag_534\n      jump\t// in\n    tag_550:\n        /* \"#utility.yul\":12722:12796   */\n      swap2\n      pop\n        /* \"#utility.yul\":12805:12898   */\n      tag_551\n        /* \"#utility.yul\":12894:12897   */\n      dup3\n        /* \"#utility.yul\":12805:12898   */\n      tag_552\n      jump\t// in\n    tag_551:\n        /* \"#utility.yul\":12923:12925   */\n      0x40\n        /* \"#utility.yul\":12918:12921   */\n      dup3\n        /* \"#utility.yul\":12914:12926   */\n      add\n        /* \"#utility.yul\":12907:12926   */\n      swap1\n      pop\n        /* \"#utility.yul\":12712:12932   */\n      swap2\n      swap1\n      pop\n      jump\t// out\n        /* \"#utility.yul\":12938:13304   */\n    tag_553:\n        /* \"#utility.yul\":13080:13083   */\n      0x00\n        /* \"#utility.yul\":13101:13168   */\n      tag_555\n        /* \"#utility.yul\":13165:13167   */\n      0x25\n        /* \"#utility.yul\":13160:13163   */\n      dup4\n        /* \"#utility.yul\":13101:13168   */\n      tag_534\n      jump\t// in\n    tag_555:\n        /* \"#utility.yul\":13094:13168   */\n      swap2\n      pop\n        /* \"#utility.yul\":13177:13270   */\n      tag_556\n        /* \"#utility.yul\":13266:13269   */\n      dup3\n        /* \"#utility.yul\":13177:13270   */\n      tag_557\n      jump\t// in\n    tag_556:\n        /* \"#utility.yul\":13295:13297   */\n      0x40\n        /* \"#utility.yul\":13290:13293   */\n      dup3\n        /* \"#utility.yul\":13286:13298   */\n      add\n        /* \"#utility.yul\":13279:13298   */\n      swap1\n      pop\n        /* \"#utility.yul\":13084:13304   */\n      swap2\n      swap1\n      pop\n      jump\t// out\n        /* \"#utility.yul\":13310:13676   */\n    tag_558:\n        /* \"#utility.yul\":13452:13455   */\n      0x00\n        /* \"#utility.yul\":13473:13540   */\n      tag_560\n        /* \"#utility.yul\":13537:13539   */\n      0x1c\n        /* \"#utility.yul\":13532:13535   */\n      dup4\n        /* \"#utility.yul\":13473:13540   */\n      tag_534\n      jump\t// in\n    tag_560:\n        /* \"#utility.yul\":13466:13540   */\n      swap2\n      pop\n        /* \"#utility.yul\":13549:13642   */\n      tag_561\n        /* \"#utility.yul\":13638:13641   */\n      dup3\n        /* \"#utility.yul\":13549:13642   */\n      tag_562\n      jump\t// in\n    tag_561:\n        /* \"#utility.yul\":13667:13669   */\n      0x20\n        /* \"#utility.yul\":13662:13665   */\n      dup3\n        /* \"#utility.yul\":13658:13670   */\n      add\n        /* \"#utility.yul\":13651:13670   */\n      swap1\n      pop\n        /* \"#utility.yul\":13456:13676   */\n      swap2\n      swap1\n      pop\n      jump\t// out\n        /* \"#utility.yul\":13682:14048   */\n    tag_563:\n        /* \"#utility.yul\":13824:13827   */\n      0x00\n        /* \"#utility.yul\":13845:13912   */\n      tag_565\n        /* \"#utility.yul\":13909:13911   */\n      0x24\n        /* \"#utility.yul\":13904:13907   */\n      dup4\n        /* \"#utility.yul\":13845:13912   */\n      tag_534\n      jump\t// in\n    tag_565:\n        /* \"#utility.yul\":13838:13912   */\n      swap2\n      pop\n        /* \"#utility.yul\":13921:14014   */\n      tag_566\n        /* \"#utility.yul\":14010:14013   */\n      dup3\n        /* \"#utility.yul\":13921:14014   */\n      tag_567\n      jump\t// in\n    tag_566:\n        /* \"#utility.yul\":14039:14041   */\n      0x40\n        /* \"#utility.yul\":14034:14037   */\n      dup3\n        /* \"#utility.yul\":14030:14042   */\n      add\n        /* \"#utility.yul\":14023:14042   */\n      swap1\n      pop\n        /* \"#utility.yul\":13828:14048   */\n      swap2\n      swap1\n      pop\n      jump\t// out\n        /* \"#utility.yul\":14054:14420   */\n    tag_568:\n        /* \"#utility.yul\":14196:14199   */\n      0x00\n        /* \"#utility.yul\":14217:14284   */\n      tag_570\n        /* \"#utility.yul\":14281:14283   */\n      0x19\n        /* \"#utility.yul\":14276:14279   */\n      dup4\n        /* \"#utility.yul\":14217:14284   */\n      tag_534\n      jump\t// in\n    tag_570:\n        /* \"#utility.yul\":14210:14284   */\n      swap2\n      pop\n        /* \"#utility.yul\":14293:14386   */\n      tag_571\n        /* \"#utility.yul\":14382:14385   */\n      dup3\n        /* \"#utility.yul\":14293:14386   */\n      tag_572\n      jump\t// in\n    tag_571:\n        /* \"#utility.yul\":14411:14413   */\n      0x20\n        /* \"#utility.yul\":14406:14409   */\n      dup3\n        /* \"#utility.yul\":14402:14414   */\n      add\n        /* \"#utility.yul\":14395:14414   */\n      swap1\n      pop\n        /* \"#utility.yul\":14200:14420   */\n      swap2\n      swap1\n      pop\n      jump\t// out\n        /* \"#utility.yul\":14426:14792   */\n    tag_573:\n        /* \"#utility.yul\":14568:14571   */\n      0x00\n        /* \"#utility.yul\":14589:14656   */\n      tag_575\n        /* \"#utility.yul\":14653:14655   */\n      0x29\n        /* \"#utility.yul\":14648:14651   */\n      dup4\n        /* \"#utility.yul\":14589:14656   */\n      tag_534\n      jump\t// in\n    tag_575:\n        /* \"#utility.yul\":14582:14656   */\n      swap2\n      pop\n        /* \"#utility.yul\":14665:14758   */\n      tag_576\n        /* \"#utility.yul\":14754:14757   */\n      dup3\n        /* \"#utility.yul\":14665:14758   */\n      tag_577\n      jump\t// in\n    tag_576:\n        /* \"#utility.yul\":14783:14785   */\n      0x40\n        /* \"#utility.yul\":14778:14781   */\n      dup3\n        /* \"#utility.yul\":14774:14786   */\n      add\n        /* \"#utility.yul\":14767:14786   */\n      swap1\n      pop\n        /* \"#utility.yul\":14572:14792   */\n      swap2\n      swap1\n      pop\n      jump\t// out\n        /* \"#utility.yul\":14798:15164   */\n    tag_578:\n        /* \"#utility.yul\":14940:14943   */\n      0x00\n        /* \"#utility.yul\":14961:15028   */\n      tag_580\n        /* \"#utility.yul\":15025:15027   */\n      0x2e\n        /* \"#utility.yul\":15020:15023   */\n      dup4\n        /* \"#utility.yul\":14961:15028   */\n      tag_534\n      jump\t// in\n    tag_580:\n        /* \"#utility.yul\":14954:15028   */\n      swap2\n      pop\n        /* \"#utility.yul\":15037:15130   */\n      tag_581\n        /* \"#utility.yul\":15126:15129   */\n      dup3\n        /* \"#utility.yul\":15037:15130   */\n      tag_582\n      jump\t// in\n    tag_581:\n        /* \"#utility.yul\":15155:15157   */\n      0x40\n        /* \"#utility.yul\":15150:15153   */\n      dup3\n        /* \"#utility.yul\":15146:15158   */\n      add\n        /* \"#utility.yul\":15139:15158   */\n      swap1\n      pop\n        /* \"#utility.yul\":14944:15164   */\n      swap2\n      swap1\n      pop\n      jump\t// out\n        /* \"#utility.yul\":15170:15536   */\n    tag_583:\n        /* \"#utility.yul\":15312:15315   */\n      0x00\n        /* \"#utility.yul\":15333:15400   */\n      tag_585\n        /* \"#utility.yul\":15397:15399   */\n      0x20\n        /* \"#utility.yul\":15392:15395   */\n      dup4\n        /* \"#utility.yul\":15333:15400   */\n      tag_534\n      jump\t// in\n    tag_585:\n        /* \"#utility.yul\":15326:15400   */\n      swap2\n      pop\n        /* \"#utility.yul\":15409:15502   */\n      tag_586\n        /* \"#utility.yul\":15498:15501   */\n      dup3\n        /* \"#utility.yul\":15409:15502   */\n      tag_587\n      jump\t// in\n    tag_586:\n        /* \"#utility.yul\":15527:15529   */\n      0x20\n        /* \"#utility.yul\":15522:15525   */\n      dup3\n        /* \"#utility.yul\":15518:15530   */\n      add\n        /* \"#utility.yul\":15511:15530   */\n      swap1\n      pop\n        /* \"#utility.yul\":15316:15536   */\n      swap2\n      swap1\n      pop\n      jump\t// out\n        /* \"#utility.yul\":15542:15908   */\n    tag_588:\n        /* \"#utility.yul\":15684:15687   */\n      0x00\n        /* \"#utility.yul\":15705:15772   */\n      tag_590\n        /* \"#utility.yul\":15769:15771   */\n      0x31\n        /* \"#utility.yul\":15764:15767   */\n      dup4\n        /* \"#utility.yul\":15705:15772   */\n      tag_534\n      jump\t// in\n    tag_590:\n        /* \"#utility.yul\":15698:15772   */\n      swap2\n      pop\n        /* \"#utility.yul\":15781:15874   */\n      tag_591\n        /* \"#utility.yul\":15870:15873   */\n      dup3\n        /* \"#utility.yul\":15781:15874   */\n      tag_592\n      jump\t// in\n    tag_591:\n        /* \"#utility.yul\":15899:15901   */\n      0x40\n        /* \"#utility.yul\":15894:15897   */\n      dup3\n        /* \"#utility.yul\":15890:15902   */\n      add\n        /* \"#utility.yul\":15883:15902   */\n      swap1\n      pop\n        /* \"#utility.yul\":15688:15908   */\n      swap2\n      swap1\n      pop\n      jump\t// out\n        /* \"#utility.yul\":15914:16280   */\n    tag_593:\n        /* \"#utility.yul\":16056:16059   */\n      0x00\n        /* \"#utility.yul\":16077:16144   */\n      tag_595\n        /* \"#utility.yul\":16141:16143   */\n      0x2f\n        /* \"#utility.yul\":16136:16139   */\n      dup4\n        /* \"#utility.yul\":16077:16144   */\n      tag_534\n      jump\t// in\n    tag_595:\n        /* \"#utility.yul\":16070:16144   */\n      swap2\n      pop\n        /* \"#utility.yul\":16153:16246   */\n      tag_596\n        /* \"#utility.yul\":16242:16245   */\n      dup3\n        /* \"#utility.yul\":16153:16246   */\n      tag_597\n      jump\t// in\n    tag_596:\n        /* \"#utility.yul\":16271:16273   */\n      0x40\n        /* \"#utility.yul\":16266:16269   */\n      dup3\n        /* \"#utility.yul\":16262:16274   */\n      add\n        /* \"#utility.yul\":16255:16274   */\n      swap1\n      pop\n        /* \"#utility.yul\":16060:16280   */\n      swap2\n      swap1\n      pop\n      jump\t// out\n        /* \"#utility.yul\":16286:16652   */\n    tag_598:\n        /* \"#utility.yul\":16428:16431   */\n      0x00\n        /* \"#utility.yul\":16449:16516   */\n      tag_600\n        /* \"#utility.yul\":16513:16515   */\n      0x18\n        /* \"#utility.yul\":16508:16511   */\n      dup4\n        /* \"#utility.yul\":16449:16516   */\n      tag_534\n      jump\t// in\n    tag_600:\n        /* \"#utility.yul\":16442:16516   */\n      swap2\n      pop\n        /* \"#utility.yul\":16525:16618   */\n      tag_601\n        /* \"#utility.yul\":16614:16617   */\n      dup3\n        /* \"#utility.yul\":16525:16618   */\n      tag_602\n      jump\t// in\n    tag_601:\n        /* \"#utility.yul\":16643:16645   */\n      0x20\n        /* \"#utility.yul\":16638:16641   */\n      dup3\n        /* \"#utility.yul\":16634:16646   */\n      add\n        /* \"#utility.yul\":16627:16646   */\n      swap1\n      pop\n        /* \"#utility.yul\":16432:16652   */\n      swap2\n      swap1\n      pop\n      jump\t// out\n        /* \"#utility.yul\":16658:17024   */\n    tag_603:\n        /* \"#utility.yul\":16800:16803   */\n      0x00\n        /* \"#utility.yul\":16821:16888   */\n      tag_605\n        /* \"#utility.yul\":16885:16887   */\n      0x21\n        /* \"#utility.yul\":16880:16883   */\n      dup4\n        /* \"#utility.yul\":16821:16888   */\n      tag_534\n      jump\t// in\n    tag_605:\n        /* \"#utility.yul\":16814:16888   */\n      swap2\n      pop\n        /* \"#utility.yul\":16897:16990   */\n      tag_606\n        /* \"#utility.yul\":16986:16989   */\n      dup3\n        /* \"#utility.yul\":16897:16990   */\n      tag_607\n      jump\t// in\n    tag_606:\n        /* \"#utility.yul\":17015:17017   */\n      0x40\n        /* \"#utility.yul\":17010:17013   */\n      dup3\n        /* \"#utility.yul\":17006:17018   */\n      add\n        /* \"#utility.yul\":16999:17018   */\n      swap1\n      pop\n        /* \"#utility.yul\":16804:17024   */\n      swap2\n      swap1\n      pop\n      jump\t// out\n        /* \"#utility.yul\":17030:17396   */\n    tag_608:\n        /* \"#utility.yul\":17172:17175   */\n      0x00\n        /* \"#utility.yul\":17193:17260   */\n      tag_610\n        /* \"#utility.yul\":17257:17259   */\n      0x3d\n        /* \"#utility.yul\":17252:17255   */\n      dup4\n        /* \"#utility.yul\":17193:17260   */\n      tag_534\n      jump\t// in\n    tag_610:\n        /* \"#utility.yul\":17186:17260   */\n      swap2\n      pop\n        /* \"#utility.yul\":17269:17362   */\n      tag_611\n        /* \"#utility.yul\":17358:17361   */\n      dup3\n        /* \"#utility.yul\":17269:17362   */\n      tag_612\n      jump\t// in\n    tag_611:\n        /* \"#utility.yul\":17387:17389   */\n      0x40\n        /* \"#utility.yul\":17382:17385   */\n      dup3\n        /* \"#utility.yul\":17378:17390   */\n      add\n        /* \"#utility.yul\":17371:17390   */\n      swap1\n      pop\n        /* \"#utility.yul\":17176:17396   */\n      swap2\n      swap1\n      pop\n      jump\t// out\n        /* \"#utility.yul\":17402:17510   */\n    tag_480:\n        /* \"#utility.yul\":17479:17503   */\n      tag_614\n        /* \"#utility.yul\":17497:17502   */\n      dup2\n        /* \"#utility.yul\":17479:17503   */\n      tag_615\n      jump\t// in\n    tag_614:\n        /* \"#utility.yul\":17474:17477   */\n      dup3\n        /* \"#utility.yul\":17467:17504   */\n      mstore\n        /* \"#utility.yul\":17457:17510   */\n      pop\n      pop\n      jump\t// out\n        /* \"#utility.yul\":17516:17634   */\n    tag_616:\n        /* \"#utility.yul\":17603:17627   */\n      tag_618\n        /* \"#utility.yul\":17621:17626   */\n      dup2\n        /* \"#utility.yul\":17603:17627   */\n      tag_615\n      jump\t// in\n    tag_618:\n        /* \"#utility.yul\":17598:17601   */\n      dup3\n        /* \"#utility.yul\":17591:17628   */\n      mstore\n        /* \"#utility.yul\":17581:17634   */\n      pop\n      pop\n      jump\t// out\n        /* \"#utility.yul\":17640:18075   */\n    tag_176:\n        /* \"#utility.yul\":17820:17823   */\n      0x00\n        /* \"#utility.yul\":17842:17937   */\n      tag_620\n        /* \"#utility.yul\":17933:17936   */\n      dup3\n        /* \"#utility.yul\":17924:17930   */\n      dup6\n        /* \"#utility.yul\":17842:17937   */\n      tag_537\n      jump\t// in\n    tag_620:\n        /* \"#utility.yul\":17835:17937   */\n      swap2\n      pop\n        /* \"#utility.yul\":17954:18049   */\n      tag_621\n        /* \"#utility.yul\":18045:18048   */\n      dup3\n        /* \"#utility.yul\":18036:18042   */\n      dup5\n        /* \"#utility.yul\":17954:18049   */\n      tag_537\n      jump\t// in\n    tag_621:\n        /* \"#utility.yul\":17947:18049   */\n      swap2\n      pop\n        /* \"#utility.yul\":18066:18069   */\n      dup2\n        /* \"#utility.yul\":18059:18069   */\n      swap1\n      pop\n        /* \"#utility.yul\":17824:18075   */\n      swap4\n      swap3\n      pop\n      pop\n      pop\n      jump\t// out\n        /* \"#utility.yul\":18081:18303   */\n    tag_39:\n        /* \"#utility.yul\":18174:18178   */\n      0x00\n        /* \"#utility.yul\":18212:18214   */\n      0x20\n        /* \"#utility.yul\":18201:18210   */\n      dup3\n        /* \"#utility.yul\":18197:18215   */\n      add\n        /* \"#utility.yul\":18189:18215   */\n      swap1\n      pop\n        /* \"#utility.yul\":18225:18296   */\n      tag_623\n        /* \"#utility.yul\":18293:18294   */\n      0x00\n        /* \"#utility.yul\":18282:18291   */\n      dup4\n        /* \"#utility.yul\":18278:18295   */\n      add\n        /* \"#utility.yul\":18269:18275   */\n      dup5\n        /* \"#utility.yul\":18225:18296   */\n      tag_484\n      jump\t// in\n    tag_623:\n        /* \"#utility.yul\":18179:18303   */\n      swap3\n      swap2\n      pop\n      pop\n      jump\t// out\n        /* \"#utility.yul\":18309:18949   */\n    tag_304:\n        /* \"#utility.yul\":18504:18508   */\n      0x00\n        /* \"#utility.yul\":18542:18545   */\n      0x80\n        /* \"#utility.yul\":18531:18540   */\n      dup3\n        /* \"#utility.yul\":18527:18546   */\n      add\n        /* \"#utility.yul\":18519:18546   */\n      swap1\n      pop\n        /* \"#utility.yul\":18556:18627   */\n      tag_625\n        /* \"#utility.yul\":18624:18625   */\n      0x00\n        /* \"#utility.yul\":18613:18622   */\n      dup4\n        /* \"#utility.yul\":18609:18626   */\n      add\n        /* \"#utility.yul\":18600:18606   */\n      dup8\n        /* \"#utility.yul\":18556:18627   */\n      tag_484\n      jump\t// in\n    tag_625:\n        /* \"#utility.yul\":18637:18709   */\n      tag_626\n        /* \"#utility.yul\":18705:18707   */\n      0x20\n        /* \"#utility.yul\":18694:18703   */\n      dup4\n        /* \"#utility.yul\":18690:18708   */\n      add\n        /* \"#utility.yul\":18681:18687   */\n      dup7\n        /* \"#utility.yul\":18637:18709   */\n      tag_484\n      jump\t// in\n    tag_626:\n        /* \"#utility.yul\":18719:18791   */\n      tag_627\n        /* \"#utility.yul\":18787:18789   */\n      0x40\n        /* \"#utility.yul\":18776:18785   */\n      dup4\n        /* \"#utility.yul\":18772:18790   */\n      add\n        /* \"#utility.yul\":18763:18769   */\n      dup6\n        /* \"#utility.yul\":18719:18791   */\n      tag_616\n      jump\t// in\n    tag_627:\n        /* \"#utility.yul\":18838:18847   */\n      dup2\n        /* \"#utility.yul\":18832:18836   */\n      dup2\n        /* \"#utility.yul\":18828:18848   */\n      sub\n        /* \"#utility.yul\":18823:18825   */\n      0x60\n        /* \"#utility.yul\":18812:18821   */\n      dup4\n        /* \"#utility.yul\":18808:18826   */\n      add\n        /* \"#utility.yul\":18801:18849   */\n      mstore\n        /* \"#utility.yul\":18866:18942   */\n      tag_628\n        /* \"#utility.yul\":18937:18941   */\n      dup2\n        /* \"#utility.yul\":18928:18934   */\n      dup5\n        /* \"#utility.yul\":18866:18942   */\n      tag_519\n      jump\t// in\n    tag_628:\n        /* \"#utility.yul\":18858:18942   */\n      swap1\n      pop\n        /* \"#utility.yul\":18509:18949   */\n      swap6\n      swap5\n      pop\n      pop\n      pop\n      pop\n      pop\n      jump\t// out\n        /* \"#utility.yul\":18955:19328   */\n    tag_59:\n        /* \"#utility.yul\":19098:19102   */\n      0x00\n        /* \"#utility.yul\":19136:19138   */\n      0x20\n        /* \"#utility.yul\":19125:19134   */\n      dup3\n        /* \"#utility.yul\":19121:19139   */\n      add\n        /* \"#utility.yul\":19113:19139   */\n      swap1\n      pop\n        /* \"#utility.yul\":19185:19194   */\n      dup2\n        /* \"#utility.yul\":19179:19183   */\n      dup2\n        /* \"#utility.yul\":19175:19195   */\n      sub\n        /* \"#utility.yul\":19171:19172   */\n      0x00\n        /* \"#utility.yul\":19160:19169   */\n      dup4\n        /* \"#utility.yul\":19156:19173   */\n      add\n        /* \"#utility.yul\":19149:19196   */\n      mstore\n        /* \"#utility.yul\":19213:19321   */\n      tag_630\n        /* \"#utility.yul\":19316:19320   */\n      dup2\n        /* \"#utility.yul\":19307:19313   */\n      dup5\n        /* \"#utility.yul\":19213:19321   */\n      tag_487\n      jump\t// in\n    tag_630:\n        /* \"#utility.yul\":19205:19321   */\n      swap1\n      pop\n        /* \"#utility.yul\":19103:19328   */\n      swap3\n      swap2\n      pop\n      pop\n      jump\t// out\n        /* \"#utility.yul\":19334:19707   */\n    tag_101:\n        /* \"#utility.yul\":19477:19481   */\n      0x00\n        /* \"#utility.yul\":19515:19517   */\n      0x20\n        /* \"#utility.yul\":19504:19513   */\n      dup3\n        /* \"#utility.yul\":19500:19518   */\n      add\n        /* \"#utility.yul\":19492:19518   */\n      swap1\n      pop\n        /* \"#utility.yul\":19564:19573   */\n      dup2\n        /* \"#utility.yul\":19558:19562   */\n      dup2\n        /* \"#utility.yul\":19554:19574   */\n      sub\n        /* \"#utility.yul\":19550:19551   */\n      0x00\n        /* \"#utility.yul\":19539:19548   */\n      dup4\n        /* \"#utility.yul\":19535:19552   */\n      add\n        /* \"#utility.yul\":19528:19575   */\n      mstore\n        /* \"#utility.yul\":19592:19700   */\n      tag_632\n        /* \"#utility.yul\":19695:19699   */\n      dup2\n        /* \"#utility.yul\":19686:19692   */\n      dup5\n        /* \"#utility.yul\":19592:19700   */\n      tag_501\n      jump\t// in\n    tag_632:\n        /* \"#utility.yul\":19584:19700   */\n      swap1\n      pop\n        /* \"#utility.yul\":19482:19707   */\n      swap3\n      swap2\n      pop\n      pop\n      jump\t// out\n        /* \"#utility.yul\":19713:19923   */\n    tag_29:\n        /* \"#utility.yul\":19800:19804   */\n      0x00\n        /* \"#utility.yul\":19838:19840   */\n      0x20\n        /* \"#utility.yul\":19827:19836   */\n      dup3\n        /* \"#utility.yul\":19823:19841   */\n      add\n        /* \"#utility.yul\":19815:19841   */\n      swap1\n      pop\n        /* \"#utility.yul\":19851:19916   */\n      tag_634\n        /* \"#utility.yul\":19913:19914   */\n      0x00\n        /* \"#utility.yul\":19902:19911   */\n      dup4\n        /* \"#utility.yul\":19898:19915   */\n      add\n        /* \"#utility.yul\":19889:19895   */\n      dup5\n        /* \"#utility.yul\":19851:19916   */\n      tag_515\n      jump\t// in\n    tag_634:\n        /* \"#utility.yul\":19805:19923   */\n      swap3\n      swap2\n      pop\n      pop\n      jump\t// out\n        /* \"#utility.yul\":19929:20242   */\n    tag_33:\n        /* \"#utility.yul\":20042:20046   */\n      0x00\n        /* \"#utility.yul\":20080:20082   */\n      0x20\n        /* \"#utility.yul\":20069:20078   */\n      dup3\n        /* \"#utility.yul\":20065:20083   */\n      add\n        /* \"#utility.yul\":20057:20083   */\n      swap1\n      pop\n        /* \"#utility.yul\":20129:20138   */\n      dup2\n        /* \"#utility.yul\":20123:20127   */\n      dup2\n        /* \"#utility.yul\":20119:20139   */\n      sub\n        /* \"#utility.yul\":20115:20116   */\n      0x00\n        /* \"#utility.yul\":20104:20113   */\n      dup4\n        /* \"#utility.yul\":20100:20117   */\n      add\n        /* \"#utility.yul\":20093:20140   */\n      mstore\n        /* \"#utility.yul\":20157:20235   */\n      tag_636\n        /* \"#utility.yul\":20230:20234   */\n      dup2\n        /* \"#utility.yul\":20221:20227   */\n      dup5\n        /* \"#utility.yul\":20157:20235   */\n      tag_529\n      jump\t// in\n    tag_636:\n        /* \"#utility.yul\":20149:20235   */\n      swap1\n      pop\n        /* \"#utility.yul\":20047:20242   */\n      swap3\n      swap2\n      pop\n      pop\n      jump\t// out\n        /* \"#utility.yul\":20248:20667   */\n    tag_138:\n        /* \"#utility.yul\":20414:20418   */\n      0x00\n        /* \"#utility.yul\":20452:20454   */\n      0x20\n        /* \"#utility.yul\":20441:20450   */\n      dup3\n        /* \"#utility.yul\":20437:20455   */\n      add\n        /* \"#utility.yul\":20429:20455   */\n      swap1\n      pop\n        /* \"#utility.yul\":20501:20510   */\n      dup2\n        /* \"#utility.yul\":20495:20499   */\n      dup2\n        /* \"#utility.yul\":20491:20511   */\n      sub\n        /* \"#utility.yul\":20487:20488   */\n      0x00\n        /* \"#utility.yul\":20476:20485   */\n      dup4\n        /* \"#utility.yul\":20472:20489   */\n      add\n        /* \"#utility.yul\":20465:20512   */\n      mstore\n        /* \"#utility.yul\":20529:20660   */\n      tag_638\n        /* \"#utility.yul\":20655:20659   */\n      dup2\n        /* \"#utility.yul\":20529:20660   */\n      tag_543\n      jump\t// in\n    tag_638:\n        /* \"#utility.yul\":20521:20660   */\n      swap1\n      pop\n        /* \"#utility.yul\":20419:20667   */\n      swap2\n      swap1\n      pop\n      jump\t// out\n        /* \"#utility.yul\":20673:21092   */\n    tag_289:\n        /* \"#utility.yul\":20839:20843   */\n      0x00\n        /* \"#utility.yul\":20877:20879   */\n      0x20\n        /* \"#utility.yul\":20866:20875   */\n      dup3\n        /* \"#utility.yul\":20862:20880   */\n      add\n        /* \"#utility.yul\":20854:20880   */\n      swap1\n      pop\n        /* \"#utility.yul\":20926:20935   */\n      dup2\n        /* \"#utility.yul\":20920:20924   */\n      dup2\n        /* \"#utility.yul\":20916:20936   */\n      sub\n        /* \"#utility.yul\":20912:20913   */\n      0x00\n        /* \"#utility.yul\":20901:20910   */\n      dup4\n        /* \"#utility.yul\":20897:20914   */\n      add\n        /* \"#utility.yul\":20890:20937   */\n      mstore\n        /* \"#utility.yul\":20954:21085   */\n      tag_640\n        /* \"#utility.yul\":21080:21084   */\n      dup2\n        /* \"#utility.yul\":20954:21085   */\n      tag_548\n      jump\t// in\n    tag_640:\n        /* \"#utility.yul\":20946:21085   */\n      swap1\n      pop\n        /* \"#utility.yul\":20844:21092   */\n      swap2\n      swap1\n      pop\n      jump\t// out\n        /* \"#utility.yul\":21098:21517   */\n    tag_233:\n        /* \"#utility.yul\":21264:21268   */\n      0x00\n        /* \"#utility.yul\":21302:21304   */\n      0x20\n        /* \"#utility.yul\":21291:21300   */\n      dup3\n        /* \"#utility.yul\":21287:21305   */\n      add\n        /* \"#utility.yul\":21279:21305   */\n      swap1\n      pop\n        /* \"#utility.yul\":21351:21360   */\n      dup2\n        /* \"#utility.yul\":21345:21349   */\n      dup2\n        /* \"#utility.yul\":21341:21361   */\n      sub\n        /* \"#utility.yul\":21337:21338   */\n      0x00\n        /* \"#utility.yul\":21326:21335   */\n      dup4\n        /* \"#utility.yul\":21322:21339   */\n      add\n        /* \"#utility.yul\":21315:21362   */\n      mstore\n        /* \"#utility.yul\":21379:21510   */\n      tag_642\n        /* \"#utility.yul\":21505:21509   */\n      dup2\n        /* \"#utility.yul\":21379:21510   */\n      tag_553\n      jump\t// in\n    tag_642:\n        /* \"#utility.yul\":21371:21510   */\n      swap1\n      pop\n        /* \"#utility.yul\":21269:21517   */\n      swap2\n      swap1\n      pop\n      jump\t// out\n        /* \"#utility.yul\":21523:21942   */\n    tag_327:\n        /* \"#utility.yul\":21689:21693   */\n      0x00\n        /* \"#utility.yul\":21727:21729   */\n      0x20\n        /* \"#utility.yul\":21716:21725   */\n      dup3\n        /* \"#utility.yul\":21712:21730   */\n      add\n        /* \"#utility.yul\":21704:21730   */\n      swap1\n      pop\n        /* \"#utility.yul\":21776:21785   */\n      dup2\n        /* \"#utility.yul\":21770:21774   */\n      dup2\n        /* \"#utility.yul\":21766:21786   */\n      sub\n        /* \"#utility.yul\":21762:21763   */\n      0x00\n        /* \"#utility.yul\":21751:21760   */\n      dup4\n        /* \"#utility.yul\":21747:21764   */\n      add\n        /* \"#utility.yul\":21740:21787   */\n      mstore\n        /* \"#utility.yul\":21804:21935   */\n      tag_644\n        /* \"#utility.yul\":21930:21934   */\n      dup2\n        /* \"#utility.yul\":21804:21935   */\n      tag_558\n      jump\t// in\n    tag_644:\n        /* \"#utility.yul\":21796:21935   */\n      swap1\n      pop\n        /* \"#utility.yul\":21694:21942   */\n      swap2\n      swap1\n      pop\n      jump\t// out\n        /* \"#utility.yul\":21948:22367   */\n    tag_236:\n        /* \"#utility.yul\":22114:22118   */\n      0x00\n        /* \"#utility.yul\":22152:22154   */\n      0x20\n        /* \"#utility.yul\":22141:22150   */\n      dup3\n        /* \"#utility.yul\":22137:22155   */\n      add\n        /* \"#utility.yul\":22129:22155   */\n      swap1\n      pop\n        /* \"#utility.yul\":22201:22210   */\n      dup2\n        /* \"#utility.yul\":22195:22199   */\n      dup2\n        /* \"#utility.yul\":22191:22211   */\n      sub\n        /* \"#utility.yul\":22187:22188   */\n      0x00\n        /* \"#utility.yul\":22176:22185   */\n      dup4\n        /* \"#utility.yul\":22172:22189   */\n      add\n        /* \"#utility.yul\":22165:22212   */\n      mstore\n        /* \"#utility.yul\":22229:22360   */\n      tag_646\n        /* \"#utility.yul\":22355:22359   */\n      dup2\n        /* \"#utility.yul\":22229:22360   */\n      tag_563\n      jump\t// in\n    tag_646:\n        /* \"#utility.yul\":22221:22360   */\n      swap1\n      pop\n        /* \"#utility.yul\":22119:22367   */\n      swap2\n      swap1\n      pop\n      jump\t// out\n        /* \"#utility.yul\":22373:22792   */\n    tag_281:\n        /* \"#utility.yul\":22539:22543   */\n      0x00\n        /* \"#utility.yul\":22577:22579   */\n      0x20\n        /* \"#utility.yul\":22566:22575   */\n      dup3\n        /* \"#utility.yul\":22562:22580   */\n      add\n        /* \"#utility.yul\":22554:22580   */\n      swap1\n      pop\n        /* \"#utility.yul\":22626:22635   */\n      dup2\n        /* \"#utility.yul\":22620:22624   */\n      dup2\n        /* \"#utility.yul\":22616:22636   */\n      sub\n        /* \"#utility.yul\":22612:22613   */\n      0x00\n        /* \"#utility.yul\":22601:22610   */\n      dup4\n        /* \"#utility.yul\":22597:22614   */\n      add\n        /* \"#utility.yul\":22590:22637   */\n      mstore\n        /* \"#utility.yul\":22654:22785   */\n      tag_648\n        /* \"#utility.yul\":22780:22784   */\n      dup2\n        /* \"#utility.yul\":22654:22785   */\n      tag_568\n      jump\t// in\n    tag_648:\n        /* \"#utility.yul\":22646:22785   */\n      swap1\n      pop\n        /* \"#utility.yul\":22544:22792   */\n      swap2\n      swap1\n      pop\n      jump\t// out\n        /* \"#utility.yul\":22798:23217   */\n    tag_162:\n        /* \"#utility.yul\":22964:22968   */\n      0x00\n        /* \"#utility.yul\":23002:23004   */\n      0x20\n        /* \"#utility.yul\":22991:23000   */\n      dup3\n        /* \"#utility.yul\":22987:23005   */\n      add\n        /* \"#utility.yul\":22979:23005   */\n      swap1\n      pop\n        /* \"#utility.yul\":23051:23060   */\n      dup2\n        /* \"#utility.yul\":23045:23049   */\n      dup2\n        /* \"#utility.yul\":23041:23061   */\n      sub\n        /* \"#utility.yul\":23037:23038   */\n      0x00\n        /* \"#utility.yul\":23026:23035   */\n      dup4\n        /* \"#utility.yul\":23022:23039   */\n      add\n        /* \"#utility.yul\":23015:23062   */\n      mstore\n        /* \"#utility.yul\":23079:23210   */\n      tag_650\n        /* \"#utility.yul\":23205:23209   */\n      dup2\n        /* \"#utility.yul\":23079:23210   */\n      tag_573\n      jump\t// in\n    tag_650:\n        /* \"#utility.yul\":23071:23210   */\n      swap1\n      pop\n        /* \"#utility.yul\":22969:23217   */\n      swap2\n      swap1\n      pop\n      jump\t// out\n        /* \"#utility.yul\":23223:23642   */\n    tag_253:\n        /* \"#utility.yul\":23389:23393   */\n      0x00\n        /* \"#utility.yul\":23427:23429   */\n      0x20\n        /* \"#utility.yul\":23416:23425   */\n      dup3\n        /* \"#utility.yul\":23412:23430   */\n      add\n        /* \"#utility.yul\":23404:23430   */\n      swap1\n      pop\n        /* \"#utility.yul\":23476:23485   */\n      dup2\n        /* \"#utility.yul\":23470:23474   */\n      dup2\n        /* \"#utility.yul\":23466:23486   */\n      sub\n        /* \"#utility.yul\":23462:23463   */\n      0x00\n        /* \"#utility.yul\":23451:23460   */\n      dup4\n        /* \"#utility.yul\":23447:23464   */\n      add\n        /* \"#utility.yul\":23440:23487   */\n      mstore\n        /* \"#utility.yul\":23504:23635   */\n      tag_652\n        /* \"#utility.yul\":23630:23634   */\n      dup2\n        /* \"#utility.yul\":23504:23635   */\n      tag_578\n      jump\t// in\n    tag_652:\n        /* \"#utility.yul\":23496:23635   */\n      swap1\n      pop\n        /* \"#utility.yul\":23394:23642   */\n      swap2\n      swap1\n      pop\n      jump\t// out\n        /* \"#utility.yul\":23648:24067   */\n    tag_323:\n        /* \"#utility.yul\":23814:23818   */\n      0x00\n        /* \"#utility.yul\":23852:23854   */\n      0x20\n        /* \"#utility.yul\":23841:23850   */\n      dup3\n        /* \"#utility.yul\":23837:23855   */\n      add\n        /* \"#utility.yul\":23829:23855   */\n      swap1\n      pop\n        /* \"#utility.yul\":23901:23910   */\n      dup2\n        /* \"#utility.yul\":23895:23899   */\n      dup2\n        /* \"#utility.yul\":23891:23911   */\n      sub\n        /* \"#utility.yul\":23887:23888   */\n      0x00\n        /* \"#utility.yul\":23876:23885   */\n      dup4\n        /* \"#utility.yul\":23872:23889   */\n      add\n        /* \"#utility.yul\":23865:23912   */\n      mstore\n        /* \"#utility.yul\":23929:24060   */\n      tag_654\n        /* \"#utility.yul\":24055:24059   */\n      dup2\n        /* \"#utility.yul\":23929:24060   */\n      tag_583\n      jump\t// in\n    tag_654:\n        /* \"#utility.yul\":23921:24060   */\n      swap1\n      pop\n        /* \"#utility.yul\":23819:24067   */\n      swap2\n      swap1\n      pop\n      jump\t// out\n        /* \"#utility.yul\":24073:24492   */\n    tag_198:\n        /* \"#utility.yul\":24239:24243   */\n      0x00\n        /* \"#utility.yul\":24277:24279   */\n      0x20\n        /* \"#utility.yul\":24266:24275   */\n      dup3\n        /* \"#utility.yul\":24262:24280   */\n      add\n        /* \"#utility.yul\":24254:24280   */\n      swap1\n      pop\n        /* \"#utility.yul\":24326:24335   */\n      dup2\n        /* \"#utility.yul\":24320:24324   */\n      dup2\n        /* \"#utility.yul\":24316:24336   */\n      sub\n        /* \"#utility.yul\":24312:24313   */\n      0x00\n        /* \"#utility.yul\":24301:24310   */\n      dup4\n        /* \"#utility.yul\":24297:24314   */\n      add\n        /* \"#utility.yul\":24290:24337   */\n      mstore\n        /* \"#utility.yul\":24354:24485   */\n      tag_656\n        /* \"#utility.yul\":24480:24484   */\n      dup2\n        /* \"#utility.yul\":24354:24485   */\n      tag_588\n      jump\t// in\n    tag_656:\n        /* \"#utility.yul\":24346:24485   */\n      swap1\n      pop\n        /* \"#utility.yul\":24244:24492   */\n      swap2\n      swap1\n      pop\n      jump\t// out\n        /* \"#utility.yul\":24498:24917   */\n    tag_168:\n        /* \"#utility.yul\":24664:24668   */\n      0x00\n        /* \"#utility.yul\":24702:24704   */\n      0x20\n        /* \"#utility.yul\":24691:24700   */\n      dup3\n        /* \"#utility.yul\":24687:24705   */\n      add\n        /* \"#utility.yul\":24679:24705   */\n      swap1\n      pop\n        /* \"#utility.yul\":24751:24760   */\n      dup2\n        /* \"#utility.yul\":24745:24749   */\n      dup2\n        /* \"#utility.yul\":24741:24761   */\n      sub\n        /* \"#utility.yul\":24737:24738   */\n      0x00\n        /* \"#utility.yul\":24726:24735   */\n      dup4\n        /* \"#utility.yul\":24722:24739   */\n      add\n        /* \"#utility.yul\":24715:24762   */\n      mstore\n        /* \"#utility.yul\":24779:24910   */\n      tag_658\n        /* \"#utility.yul\":24905:24909   */\n      dup2\n        /* \"#utility.yul\":24779:24910   */\n      tag_593\n      jump\t// in\n    tag_658:\n        /* \"#utility.yul\":24771:24910   */\n      swap1\n      pop\n        /* \"#utility.yul\":24669:24917   */\n      swap2\n      swap1\n      pop\n      jump\t// out\n        /* \"#utility.yul\":24923:25342   */\n    tag_158:\n        /* \"#utility.yul\":25089:25093   */\n      0x00\n        /* \"#utility.yul\":25127:25129   */\n      0x20\n        /* \"#utility.yul\":25116:25125   */\n      dup3\n        /* \"#utility.yul\":25112:25130   */\n      add\n        /* \"#utility.yul\":25104:25130   */\n      swap1\n      pop\n        /* \"#utility.yul\":25176:25185   */\n      dup2\n        /* \"#utility.yul\":25170:25174   */\n      dup2\n        /* \"#utility.yul\":25166:25186   */\n      sub\n        /* \"#utility.yul\":25162:25163   */\n      0x00\n        /* \"#utility.yul\":25151:25160   */\n      dup4\n        /* \"#utility.yul\":25147:25164   */\n      add\n        /* \"#utility.yul\":25140:25187   */\n      mstore\n        /* \"#utility.yul\":25204:25335   */\n      tag_660\n        /* \"#utility.yul\":25330:25334   */\n      dup2\n        /* \"#utility.yul\":25204:25335   */\n      tag_598\n      jump\t// in\n    tag_660:\n        /* \"#utility.yul\":25196:25335   */\n      swap1\n      pop\n        /* \"#utility.yul\":25094:25342   */\n      swap2\n      swap1\n      pop\n      jump\t// out\n        /* \"#utility.yul\":25348:25767   */\n    tag_121:\n        /* \"#utility.yul\":25514:25518   */\n      0x00\n        /* \"#utility.yul\":25552:25554   */\n      0x20\n        /* \"#utility.yul\":25541:25550   */\n      dup3\n        /* \"#utility.yul\":25537:25555   */\n      add\n        /* \"#utility.yul\":25529:25555   */\n      swap1\n      pop\n        /* \"#utility.yul\":25601:25610   */\n      dup2\n        /* \"#utility.yul\":25595:25599   */\n      dup2\n        /* \"#utility.yul\":25591:25611   */\n      sub\n        /* \"#utility.yul\":25587:25588   */\n      0x00\n        /* \"#utility.yul\":25576:25585   */\n      dup4\n        /* \"#utility.yul\":25572:25589   */\n      add\n        /* \"#utility.yul\":25565:25612   */\n      mstore\n        /* \"#utility.yul\":25629:25760   */\n      tag_662\n        /* \"#utility.yul\":25755:25759   */\n      dup2\n        /* \"#utility.yul\":25629:25760   */\n      tag_603\n      jump\t// in\n    tag_662:\n        /* \"#utility.yul\":25621:25760   */\n      swap1\n      pop\n        /* \"#utility.yul\":25519:25767   */\n      swap2\n      swap1\n      pop\n      jump\t// out\n        /* \"#utility.yul\":25773:26192   */\n    tag_129:\n        /* \"#utility.yul\":25939:25943   */\n      0x00\n        /* \"#utility.yul\":25977:25979   */\n      0x20\n        /* \"#utility.yul\":25966:25975   */\n      dup3\n        /* \"#utility.yul\":25962:25980   */\n      add\n        /* \"#utility.yul\":25954:25980   */\n      swap1\n      pop\n        /* \"#utility.yul\":26026:26035   */\n      dup2\n        /* \"#utility.yul\":26020:26024   */\n      dup2\n        /* \"#utility.yul\":26016:26036   */\n      sub\n        /* \"#utility.yul\":26012:26013   */\n      0x00\n        /* \"#utility.yul\":26001:26010   */\n      dup4\n        /* \"#utility.yul\":25997:26014   */\n      add\n        /* \"#utility.yul\":25990:26037   */\n      mstore\n        /* \"#utility.yul\":26054:26185   */\n      tag_664\n        /* \"#utility.yul\":26180:26184   */\n      dup2\n        /* \"#utility.yul\":26054:26185   */\n      tag_608\n      jump\t// in\n    tag_664:\n        /* \"#utility.yul\":26046:26185   */\n      swap1\n      pop\n        /* \"#utility.yul\":25944:26192   */\n      swap2\n      swap1\n      pop\n      jump\t// out\n        /* \"#utility.yul\":26198:26420   */\n    tag_69:\n        /* \"#utility.yul\":26291:26295   */\n      0x00\n        /* \"#utility.yul\":26329:26331   */\n      0x20\n        /* \"#utility.yul\":26318:26327   */\n      dup3\n        /* \"#utility.yul\":26314:26332   */\n      add\n        /* \"#utility.yul\":26306:26332   */\n      swap1\n      pop\n        /* \"#utility.yul\":26342:26413   */\n      tag_666\n        /* \"#utility.yul\":26410:26411   */\n      0x00\n        /* \"#utility.yul\":26399:26408   */\n      dup4\n        /* \"#utility.yul\":26395:26412   */\n      add\n        /* \"#utility.yul\":26386:26392   */\n      dup5\n        /* \"#utility.yul\":26342:26413   */\n      tag_616\n      jump\t// in\n    tag_666:\n        /* \"#utility.yul\":26296:26420   */\n      swap3\n      swap2\n      pop\n      pop\n      jump\t// out\n        /* \"#utility.yul\":26426:26555   */\n    tag_362:\n        /* \"#utility.yul\":26460:26466   */\n      0x00\n        /* \"#utility.yul\":26487:26507   */\n      tag_668\n      tag_669\n      jump\t// in\n    tag_668:\n        /* \"#utility.yul\":26477:26507   */\n      swap1\n      pop\n        /* \"#utility.yul\":26516:26549   */\n      tag_670\n        /* \"#utility.yul\":26544:26548   */\n      dup3\n        /* \"#utility.yul\":26536:26542   */\n      dup3\n        /* \"#utility.yul\":26516:26549   */\n      tag_671\n      jump\t// in\n    tag_670:\n        /* \"#utility.yul\":26467:26555   */\n      swap2\n      swap1\n      pop\n      jump\t// out\n        /* \"#utility.yul\":26561:26636   */\n    tag_669:\n        /* \"#utility.yul\":26594:26600   */\n      0x00\n        /* \"#utility.yul\":26627:26629   */\n      0x40\n        /* \"#utility.yul\":26621:26630   */\n      mload\n        /* \"#utility.yul\":26611:26630   */\n      swap1\n      pop\n        /* \"#utility.yul\":26601:26636   */\n      swap1\n      jump\t// out\n        /* \"#utility.yul\":26642:26953   */\n    tag_361:\n        /* \"#utility.yul\":26719:26723   */\n      0x00\n        /* \"#utility.yul\":26809:26827   */\n      0xffffffffffffffff\n        /* \"#utility.yul\":26801:26807   */\n      dup3\n        /* \"#utility.yul\":26798:26828   */\n      gt\n        /* \"#utility.yul\":26795:26797   */\n      iszero\n      tag_674\n      jumpi\n        /* \"#utility.yul\":26831:26849   */\n      tag_675\n      tag_676\n      jump\t// in\n    tag_675:\n        /* \"#utility.yul\":26795:26797   */\n    tag_674:\n        /* \"#utility.yul\":26881:26885   */\n      0x20\n        /* \"#utility.yul\":26873:26879   */\n      dup3\n        /* \"#utility.yul\":26869:26886   */\n      mul\n        /* \"#utility.yul\":26861:26886   */\n      swap1\n      pop\n        /* \"#utility.yul\":26941:26945   */\n      0x20\n        /* \"#utility.yul\":26935:26939   */\n      dup2\n        /* \"#utility.yul\":26931:26946   */\n      add\n        /* \"#utility.yul\":26923:26946   */\n      swap1\n      pop\n        /* \"#utility.yul\":26724:26953   */\n      swap2\n      swap1\n      pop\n      jump\t// out\n        /* \"#utility.yul\":26959:27270   */\n    tag_373:\n        /* \"#utility.yul\":27036:27040   */\n      0x00\n        /* \"#utility.yul\":27126:27144   */\n      0xffffffffffffffff\n        /* \"#utility.yul\":27118:27124   */\n      dup3\n        /* \"#utility.yul\":27115:27145   */\n      gt\n        /* \"#utility.yul\":27112:27114   */\n      iszero\n      tag_678\n      jumpi\n        /* \"#utility.yul\":27148:27166   */\n      tag_679\n      tag_676\n      jump\t// in\n    tag_679:\n        /* \"#utility.yul\":27112:27114   */\n    tag_678:\n        /* \"#utility.yul\":27198:27202   */\n      0x20\n        /* \"#utility.yul\":27190:27196   */\n      dup3\n        /* \"#utility.yul\":27186:27203   */\n      mul\n        /* \"#utility.yul\":27178:27203   */\n      swap1\n      pop\n        /* \"#utility.yul\":27258:27262   */\n      0x20\n        /* \"#utility.yul\":27252:27256   */\n      dup2\n        /* \"#utility.yul\":27248:27263   */\n      add\n        /* \"#utility.yul\":27240:27263   */\n      swap1\n      pop\n        /* \"#utility.yul\":27041:27270   */\n      swap2\n      swap1\n      pop\n      jump\t// out\n        /* \"#utility.yul\":27276:27583   */\n    tag_384:\n        /* \"#utility.yul\":27337:27341   */\n      0x00\n        /* \"#utility.yul\":27427:27445   */\n      0xffffffffffffffff\n        /* \"#utility.yul\":27419:27425   */\n      dup3\n        /* \"#utility.yul\":27416:27446   */\n      gt\n        /* \"#utility.yul\":27413:27415   */\n      iszero\n      tag_681\n      jumpi\n        /* \"#utility.yul\":27449:27467   */\n      tag_682\n      tag_676\n      jump\t// in\n    tag_682:\n        /* \"#utility.yul\":27413:27415   */\n    tag_681:\n        /* \"#utility.yul\":27487:27516   */\n      tag_683\n        /* \"#utility.yul\":27509:27515   */\n      dup3\n        /* \"#utility.yul\":27487:27516   */\n      tag_528\n      jump\t// in\n    tag_683:\n        /* \"#utility.yul\":27479:27516   */\n      swap1\n      pop\n        /* \"#utility.yul\":27571:27575   */\n      0x20\n        /* \"#utility.yul\":27565:27569   */\n      dup2\n        /* \"#utility.yul\":27561:27576   */\n      add\n        /* \"#utility.yul\":27553:27576   */\n      swap1\n      pop\n        /* \"#utility.yul\":27342:27583   */\n      swap2\n      swap1\n      pop\n      jump\t// out\n        /* \"#utility.yul\":27589:27897   */\n    tag_392:\n        /* \"#utility.yul\":27651:27655   */\n      0x00\n        /* \"#utility.yul\":27741:27759   */\n      0xffffffffffffffff\n        /* \"#utility.yul\":27733:27739   */\n      dup3\n        /* \"#utility.yul\":27730:27760   */\n      gt\n        /* \"#utility.yul\":27727:27729   */\n      iszero\n      tag_685\n      jumpi\n        /* \"#utility.yul\":27763:27781   */\n      tag_686\n      tag_676\n      jump\t// in\n    tag_686:\n        /* \"#utility.yul\":27727:27729   */\n    tag_685:\n        /* \"#utility.yul\":27801:27830   */\n      tag_687\n        /* \"#utility.yul\":27823:27829   */\n      dup3\n        /* \"#utility.yul\":27801:27830   */\n      tag_528\n      jump\t// in\n    tag_687:\n        /* \"#utility.yul\":27793:27830   */\n      swap1\n      pop\n        /* \"#utility.yul\":27885:27889   */\n      0x20\n        /* \"#utility.yul\":27879:27883   */\n      dup2\n        /* \"#utility.yul\":27875:27890   */\n      add\n        /* \"#utility.yul\":27867:27890   */\n      swap1\n      pop\n        /* \"#utility.yul\":27656:27897   */\n      swap2\n      swap1\n      pop\n      jump\t// out\n        /* \"#utility.yul\":27903:28035   */\n    tag_494:\n        /* \"#utility.yul\":27970:27974   */\n      0x00\n        /* \"#utility.yul\":27993:27996   */\n      dup2\n        /* \"#utility.yul\":27985:27996   */\n      swap1\n      pop\n        /* \"#utility.yul\":28023:28027   */\n      0x20\n        /* \"#utility.yul\":28018:28021   */\n      dup3\n        /* \"#utility.yul\":28014:28028   */\n      add\n        /* \"#utility.yul\":28006:28028   */\n      swap1\n      pop\n        /* \"#utility.yul\":27975:28035   */\n      swap2\n      swap1\n      pop\n      jump\t// out\n        /* \"#utility.yul\":28041:28173   */\n    tag_508:\n        /* \"#utility.yul\":28108:28112   */\n      0x00\n        /* \"#utility.yul\":28131:28134   */\n      dup2\n        /* \"#utility.yul\":28123:28134   */\n      swap1\n      pop\n        /* \"#utility.yul\":28161:28165   */\n      0x20\n        /* \"#utility.yul\":28156:28159   */\n      dup3\n        /* \"#utility.yul\":28152:28166   */\n      add\n        /* \"#utility.yul\":28144:28166   */\n      swap1\n      pop\n        /* \"#utility.yul\":28113:28173   */\n      swap2\n      swap1\n      pop\n      jump\t// out\n        /* \"#utility.yul\":28179:28293   */\n    tag_490:\n        /* \"#utility.yul\":28246:28252   */\n      0x00\n        /* \"#utility.yul\":28280:28285   */\n      dup2\n        /* \"#utility.yul\":28274:28286   */\n      mload\n        /* \"#utility.yul\":28264:28286   */\n      swap1\n      pop\n        /* \"#utility.yul\":28253:28293   */\n      swap2\n      swap1\n      pop\n      jump\t// out\n        /* \"#utility.yul\":28299:28413   */\n    tag_504:\n        /* \"#utility.yul\":28366:28372   */\n      0x00\n        /* \"#utility.yul\":28400:28405   */\n      dup2\n        /* \"#utility.yul\":28394:28406   */\n      mload\n        /* \"#utility.yul\":28384:28406   */\n      swap1\n      pop\n        /* \"#utility.yul\":28373:28413   */\n      swap2\n      swap1\n      pop\n      jump\t// out\n        /* \"#utility.yul\":28419:28517   */\n    tag_522:\n        /* \"#utility.yul\":28470:28476   */\n      0x00\n        /* \"#utility.yul\":28504:28509   */\n      dup2\n        /* \"#utility.yul\":28498:28510   */\n      mload\n        /* \"#utility.yul\":28488:28510   */\n      swap1\n      pop\n        /* \"#utility.yul\":28477:28517   */\n      swap2\n      swap1\n      pop\n      jump\t// out\n        /* \"#utility.yul\":28523:28622   */\n    tag_532:\n        /* \"#utility.yul\":28575:28581   */\n      0x00\n        /* \"#utility.yul\":28609:28614   */\n      dup2\n        /* \"#utility.yul\":28603:28615   */\n      mload\n        /* \"#utility.yul\":28593:28615   */\n      swap1\n      pop\n        /* \"#utility.yul\":28582:28622   */\n      swap2\n      swap1\n      pop\n      jump\t// out\n        /* \"#utility.yul\":28628:28741   */\n    tag_500:\n        /* \"#utility.yul\":28698:28702   */\n      0x00\n        /* \"#utility.yul\":28730:28734   */\n      0x20\n        /* \"#utility.yul\":28725:28728   */\n      dup3\n        /* \"#utility.yul\":28721:28735   */\n      add\n        /* \"#utility.yul\":28713:28735   */\n      swap1\n      pop\n        /* \"#utility.yul\":28703:28741   */\n      swap2\n      swap1\n      pop\n      jump\t// out\n        /* \"#utility.yul\":28747:28860   */\n    tag_514:\n        /* \"#utility.yul\":28817:28821   */\n      0x00\n        /* \"#utility.yul\":28849:28853   */\n      0x20\n        /* \"#utility.yul\":28844:28847   */\n      dup3\n        /* \"#utility.yul\":28840:28854   */\n      add\n        /* \"#utility.yul\":28832:28854   */\n      swap1\n      pop\n        /* \"#utility.yul\":28822:28860   */\n      swap2\n      swap1\n      pop\n      jump\t// out\n        /* \"#utility.yul\":28866:29050   */\n    tag_492:\n        /* \"#utility.yul\":28965:28976   */\n      0x00\n        /* \"#utility.yul\":28999:29005   */\n      dup3\n        /* \"#utility.yul\":28994:28997   */\n      dup3\n        /* \"#utility.yul\":28987:29006   */\n      mstore\n        /* \"#utility.yul\":29039:29043   */\n      0x20\n        /* \"#utility.yul\":29034:29037   */\n      dup3\n        /* \"#utility.yul\":29030:29044   */\n      add\n        /* \"#utility.yul\":29015:29044   */\n      swap1\n      pop\n        /* \"#utility.yul\":28977:29050   */\n      swap3\n      swap2\n      pop\n      pop\n      jump\t// out\n        /* \"#utility.yul\":29056:29240   */\n    tag_506:\n        /* \"#utility.yul\":29155:29166   */\n      0x00\n        /* \"#utility.yul\":29189:29195   */\n      dup3\n        /* \"#utility.yul\":29184:29187   */\n      dup3\n        /* \"#utility.yul\":29177:29196   */\n      mstore\n        /* \"#utility.yul\":29229:29233   */\n      0x20\n        /* \"#utility.yul\":29224:29227   */\n      dup3\n        /* \"#utility.yul\":29220:29234   */\n      add\n        /* \"#utility.yul\":29205:29234   */\n      swap1\n      pop\n        /* \"#utility.yul\":29167:29240   */\n      swap3\n      swap2\n      pop\n      pop\n      jump\t// out\n        /* \"#utility.yul\":29246:29414   */\n    tag_524:\n        /* \"#utility.yul\":29329:29340   */\n      0x00\n        /* \"#utility.yul\":29363:29369   */\n      dup3\n        /* \"#utility.yul\":29358:29361   */\n      dup3\n        /* \"#utility.yul\":29351:29370   */\n      mstore\n        /* \"#utility.yul\":29403:29407   */\n      0x20\n        /* \"#utility.yul\":29398:29401   */\n      dup3\n        /* \"#utility.yul\":29394:29408   */\n      add\n        /* \"#utility.yul\":29379:29408   */\n      swap1\n      pop\n        /* \"#utility.yul\":29341:29414   */\n      swap3\n      swap2\n      pop\n      pop\n      jump\t// out\n        /* \"#utility.yul\":29420:29589   */\n    tag_534:\n        /* \"#utility.yul\":29504:29515   */\n      0x00\n        /* \"#utility.yul\":29538:29544   */\n      dup3\n        /* \"#utility.yul\":29533:29536   */\n      dup3\n        /* \"#utility.yul\":29526:29545   */\n      mstore\n        /* \"#utility.yul\":29578:29582   */\n      0x20\n        /* \"#utility.yul\":29573:29576   */\n      dup3\n        /* \"#utility.yul\":29569:29583   */\n      add\n        /* \"#utility.yul\":29554:29583   */\n      swap1\n      pop\n        /* \"#utility.yul\":29516:29589   */\n      swap3\n      swap2\n      pop\n      pop\n      jump\t// out\n        /* \"#utility.yul\":29595:29743   */\n    tag_541:\n        /* \"#utility.yul\":29697:29708   */\n      0x00\n        /* \"#utility.yul\":29734:29737   */\n      dup2\n        /* \"#utility.yul\":29719:29737   */\n      swap1\n      pop\n        /* \"#utility.yul\":29709:29743   */\n      swap3\n      swap2\n      pop\n      pop\n      jump\t// out\n        /* \"#utility.yul\":29749:30054   */\n    tag_275:\n        /* \"#utility.yul\":29789:29792   */\n      0x00\n        /* \"#utility.yul\":29808:29828   */\n      tag_702\n        /* \"#utility.yul\":29826:29827   */\n      dup3\n        /* \"#utility.yul\":29808:29828   */\n      tag_615\n      jump\t// in\n    tag_702:\n        /* \"#utility.yul\":29803:29828   */\n      swap2\n      pop\n        /* \"#utility.yul\":29842:29862   */\n      tag_703\n        /* \"#utility.yul\":29860:29861   */\n      dup4\n        /* \"#utility.yul\":29842:29862   */\n      tag_615\n      jump\t// in\n    tag_703:\n        /* \"#utility.yul\":29837:29862   */\n      swap3\n      pop\n        /* \"#utility.yul\":29996:29997   */\n      dup3\n        /* \"#utility.yul\":29928:29994   */\n      0xffffffffffffffffffffffffffffffffffffffffffffffffffffffffffffffff\n        /* \"#utility.yul\":29924:29998   */\n      sub\n        /* \"#utility.yul\":29921:29922   */\n      dup3\n        /* \"#utility.yul\":29918:29999   */\n      gt\n        /* \"#utility.yul\":29915:29917   */\n      iszero\n      tag_704\n      jumpi\n        /* \"#utility.yul\":30002:30020   */\n      tag_705\n      tag_706\n      jump\t// in\n    tag_705:\n        /* \"#utility.yul\":29915:29917   */\n    tag_704:\n        /* \"#utility.yul\":30046:30047   */\n      dup3\n        /* \"#utility.yul\":30043:30044   */\n      dup3\n        /* \"#utility.yul\":30039:30048   */\n      add\n        /* \"#utility.yul\":30032:30048   */\n      swap1\n      pop\n        /* \"#utility.yul\":29793:30054   */\n      swap3\n      swap2\n      pop\n      pop\n      jump\t// out\n        /* \"#utility.yul\":30060:30245   */\n    tag_265:\n        /* \"#utility.yul\":30100:30101   */\n      0x00\n        /* \"#utility.yul\":30117:30137   */\n      tag_708\n        /* \"#utility.yul\":30135:30136   */\n      dup3\n        /* \"#utility.yul\":30117:30137   */\n      tag_615\n      jump\t// in\n    tag_708:\n        /* \"#utility.yul\":30112:30137   */\n      swap2\n      pop\n        /* \"#utility.yul\":30151:30171   */\n      tag_709\n        /* \"#utility.yul\":30169:30170   */\n      dup4\n        /* \"#utility.yul\":30151:30171   */\n      tag_615\n      jump\t// in\n    tag_709:\n        /* \"#utility.yul\":30146:30171   */\n      swap3\n      pop\n        /* \"#utility.yul\":30190:30191   */\n      dup3\n        /* \"#utility.yul\":30180:30182   */\n      tag_710\n      jumpi\n        /* \"#utility.yul\":30195:30213   */\n      tag_711\n      tag_712\n      jump\t// in\n    tag_711:\n        /* \"#utility.yul\":30180:30182   */\n    tag_710:\n        /* \"#utility.yul\":30237:30238   */\n      dup3\n        /* \"#utility.yul\":30234:30235   */\n      dup3\n        /* \"#utility.yul\":30230:30239   */\n      div\n        /* \"#utility.yul\":30225:30239   */\n      swap1\n      pop\n        /* \"#utility.yul\":30102:30245   */\n      swap3\n      swap2\n      pop\n      pop\n      jump\t// out\n        /* \"#utility.yul\":30251:30442   */\n    tag_271:\n        /* \"#utility.yul\":30291:30295   */\n      0x00\n        /* \"#utility.yul\":30311:30331   */\n      tag_714\n        /* \"#utility.yul\":30329:30330   */\n      dup3\n        /* \"#utility.yul\":30311:30331   */\n      tag_615\n      jump\t// in\n    tag_714:\n        /* \"#utility.yul\":30306:30331   */\n      swap2\n      pop\n        /* \"#utility.yul\":30345:30365   */\n      tag_715\n        /* \"#utility.yul\":30363:30364   */\n      dup4\n        /* \"#utility.yul\":30345:30365   */\n      tag_615\n      jump\t// in\n    tag_715:\n        /* \"#utility.yul\":30340:30365   */\n      swap3\n      pop\n        /* \"#utility.yul\":30384:30385   */\n      dup3\n        /* \"#utility.yul\":30381:30382   */\n      dup3\n        /* \"#utility.yul\":30378:30386   */\n      lt\n        /* \"#utility.yul\":30375:30377   */\n      iszero\n      tag_716\n      jumpi\n        /* \"#utility.yul\":30389:30407   */\n      tag_717\n      tag_706\n      jump\t// in\n    tag_717:\n        /* \"#utility.yul\":30375:30377   */\n    tag_716:\n        /* \"#utility.yul\":30434:30435   */\n      dup3\n        /* \"#utility.yul\":30431:30432   */\n      dup3\n        /* \"#utility.yul\":30427:30436   */\n      sub\n        /* \"#utility.yul\":30419:30436   */\n      swap1\n      pop\n        /* \"#utility.yul\":30296:30442   */\n      swap3\n      swap2\n      pop\n      pop\n      jump\t// out\n        /* \"#utility.yul\":30448:30544   */\n    tag_483:\n        /* \"#utility.yul\":30485:30492   */\n      0x00\n        /* \"#utility.yul\":30514:30538   */\n      tag_719\n        /* \"#utility.yul\":30532:30537   */\n      dup3\n        /* \"#utility.yul\":30514:30538   */\n      tag_720\n      jump\t// in\n    tag_719:\n        /* \"#utility.yul\":30503:30538   */\n      swap1\n      pop\n        /* \"#utility.yul\":30493:30544   */\n      swap2\n      swap1\n      pop\n      jump\t// out\n        /* \"#utility.yul\":30550:30640   */\n    tag_518:\n        /* \"#utility.yul\":30584:30591   */\n      0x00\n        /* \"#utility.yul\":30627:30632   */\n      dup2\n        /* \"#utility.yul\":30620:30633   */\n      iszero\n        /* \"#utility.yul\":30613:30634   */\n      iszero\n        /* \"#utility.yul\":30602:30634   */\n      swap1\n      pop\n        /* \"#utility.yul\":30592:30640   */\n      swap2\n      swap1\n      pop\n      jump\t// out\n        /* \"#utility.yul\":30646:30795   */\n    tag_722:\n        /* \"#utility.yul\":30682:30689   */\n      0x00\n        /* \"#utility.yul\":30722:30788   */\n      0xffffffff00000000000000000000000000000000000000000000000000000000\n        /* \"#utility.yul\":30715:30720   */\n      dup3\n        /* \"#utility.yul\":30711:30789   */\n      and\n        /* \"#utility.yul\":30700:30789   */\n      swap1\n      pop\n        /* \"#utility.yul\":30690:30795   */\n      swap2\n      swap1\n      pop\n      jump\t// out\n        /* \"#utility.yul\":30801:30927   */\n    tag_720:\n        /* \"#utility.yul\":30838:30845   */\n      0x00\n        /* \"#utility.yul\":30878:30920   */\n      0xffffffffffffffffffffffffffffffffffffffff\n        /* \"#utility.yul\":30871:30876   */\n      dup3\n        /* \"#utility.yul\":30867:30921   */\n      and\n        /* \"#utility.yul\":30856:30921   */\n      swap1\n      pop\n        /* \"#utility.yul\":30846:30927   */\n      swap2\n      swap1\n      pop\n      jump\t// out\n        /* \"#utility.yul\":30933:31010   */\n    tag_615:\n        /* \"#utility.yul\":30970:30977   */\n      0x00\n        /* \"#utility.yul\":30999:31004   */\n      dup2\n        /* \"#utility.yul\":30988:31004   */\n      swap1\n      pop\n        /* \"#utility.yul\":30978:31010   */\n      swap2\n      swap1\n      pop\n      jump\t// out\n        /* \"#utility.yul\":31016:31170   */\n    tag_387:\n        /* \"#utility.yul\":31100:31106   */\n      dup3\n        /* \"#utility.yul\":31095:31098   */\n      dup2\n        /* \"#utility.yul\":31090:31093   */\n      dup4\n        /* \"#utility.yul\":31077:31107   */\n      calldatacopy\n        /* \"#utility.yul\":31162:31163   */\n      0x00\n        /* \"#utility.yul\":31153:31159   */\n      dup4\n        /* \"#utility.yul\":31148:31151   */\n      dup4\n        /* \"#utility.yul\":31144:31160   */\n      add\n        /* \"#utility.yul\":31137:31164   */\n      mstore\n        /* \"#utility.yul\":31067:31170   */\n      pop\n      pop\n      pop\n      jump\t// out\n        /* \"#utility.yul\":31176:31483   */\n    tag_526:\n        /* \"#utility.yul\":31244:31245   */\n      0x00\n        /* \"#utility.yul\":31254:31367   */\n    tag_728:\n        /* \"#utility.yul\":31268:31274   */\n      dup4\n        /* \"#utility.yul\":31265:31266   */\n      dup2\n        /* \"#utility.yul\":31262:31275   */\n      lt\n        /* \"#utility.yul\":31254:31367   */\n      iszero\n      tag_730\n      jumpi\n        /* \"#utility.yul\":31353:31354   */\n      dup1\n        /* \"#utility.yul\":31348:31351   */\n      dup3\n        /* \"#utility.yul\":31344:31355   */\n      add\n        /* \"#utility.yul\":31338:31356   */\n      mload\n        /* \"#utility.yul\":31334:31335   */\n      dup2\n        /* \"#utility.yul\":31329:31332   */\n      dup5\n        /* \"#utility.yul\":31325:31336   */\n      add\n        /* \"#utility.yul\":31318:31357   */\n      mstore\n        /* \"#utility.yul\":31290:31292   */\n      0x20\n        /* \"#utility.yul\":31287:31288   */\n      dup2\n        /* \"#utility.yul\":31283:31293   */\n      add\n        /* \"#utility.yul\":31278:31293   */\n      swap1\n      pop\n        /* \"#utility.yul\":31254:31367   */\n      jump(tag_728)\n    tag_730:\n        /* \"#utility.yul\":31385:31391   */\n      dup4\n        /* \"#utility.yul\":31382:31383   */\n      dup2\n        /* \"#utility.yul\":31379:31392   */\n      gt\n        /* \"#utility.yul\":31376:31378   */\n      iszero\n      tag_731\n      jumpi\n        /* \"#utility.yul\":31465:31466   */\n      0x00\n        /* \"#utility.yul\":31456:31462   */\n      dup5\n        /* \"#utility.yul\":31451:31454   */\n      dup5\n        /* \"#utility.yul\":31447:31463   */\n      add\n        /* \"#utility.yul\":31440:31467   */\n      mstore\n        /* \"#utility.yul\":31376:31378   */\n    tag_731:\n        /* \"#utility.yul\":31225:31483   */\n      pop\n      pop\n      pop\n      pop\n      jump\t// out\n        /* \"#utility.yul\":31489:31809   */\n    tag_109:\n        /* \"#utility.yul\":31533:31539   */\n      0x00\n        /* \"#utility.yul\":31570:31571   */\n      0x02\n        /* \"#utility.yul\":31564:31568   */\n      dup3\n        /* \"#utility.yul\":31560:31572   */\n      div\n        /* \"#utility.yul\":31550:31572   */\n      swap1\n      pop\n        /* \"#utility.yul\":31617:31618   */\n      0x01\n        /* \"#utility.yul\":31611:31615   */\n      dup3\n        /* \"#utility.yul\":31607:31619   */\n      and\n        /* \"#utility.yul\":31638:31656   */\n      dup1\n        /* \"#utility.yul\":31628:31630   */\n      tag_733\n      jumpi\n        /* \"#utility.yul\":31694:31698   */\n      0x7f\n        /* \"#utility.yul\":31686:31692   */\n      dup3\n        /* \"#utility.yul\":31682:31699   */\n      and\n        /* \"#utility.yul\":31672:31699   */\n      swap2\n      pop\n        /* \"#utility.yul\":31628:31630   */\n    tag_733:\n        /* \"#utility.yul\":31756:31758   */\n      0x20\n        /* \"#utility.yul\":31748:31754   */\n      dup3\n        /* \"#utility.yul\":31745:31759   */\n      lt\n        /* \"#utility.yul\":31725:31743   */\n      dup2\n        /* \"#utility.yul\":31722:31760   */\n      eq\n        /* \"#utility.yul\":31719:31721   */\n      iszero\n      tag_734\n      jumpi\n        /* \"#utility.yul\":31775:31793   */\n      tag_735\n      tag_736\n      jump\t// in\n    tag_735:\n        /* \"#utility.yul\":31719:31721   */\n    tag_734:\n        /* \"#utility.yul\":31540:31809   */\n      pop\n      swap2\n      swap1\n      pop\n      jump\t// out\n        /* \"#utility.yul\":31815:32096   */\n    tag_671:\n        /* \"#utility.yul\":31898:31925   */\n      tag_738\n        /* \"#utility.yul\":31920:31924   */\n      dup3\n        /* \"#utility.yul\":31898:31925   */\n      tag_528\n      jump\t// in\n    tag_738:\n        /* \"#utility.yul\":31890:31896   */\n      dup2\n        /* \"#utility.yul\":31886:31926   */\n      add\n        /* \"#utility.yul\":32028:32034   */\n      dup2\n        /* \"#utility.yul\":32016:32026   */\n      dup2\n        /* \"#utility.yul\":32013:32035   */\n      lt\n        /* \"#utility.yul\":31992:32010   */\n      0xffffffffffffffff\n        /* \"#utility.yul\":31980:31990   */\n      dup3\n        /* \"#utility.yul\":31977:32011   */\n      gt\n        /* \"#utility.yul\":31974:32036   */\n      or\n        /* \"#utility.yul\":31971:31973   */\n      iszero\n      tag_739\n      jumpi\n        /* \"#utility.yul\":32039:32057   */\n      tag_740\n      tag_676\n      jump\t// in\n    tag_740:\n        /* \"#utility.yul\":31971:31973   */\n    tag_739:\n        /* \"#utility.yul\":32079:32089   */\n      dup1\n        /* \"#utility.yul\":32075:32077   */\n      0x40\n        /* \"#utility.yul\":32068:32090   */\n      mstore\n        /* \"#utility.yul\":31858:32096   */\n      pop\n      pop\n      pop\n      jump\t// out\n        /* \"#utility.yul\":32102:32335   */\n    tag_263:\n        /* \"#utility.yul\":32141:32144   */\n      0x00\n        /* \"#utility.yul\":32164:32188   */\n      tag_742\n        /* \"#utility.yul\":32182:32187   */\n      dup3\n        /* \"#utility.yul\":32164:32188   */\n      tag_615\n      jump\t// in\n    tag_742:\n        /* \"#utility.yul\":32155:32188   */\n      swap2\n      pop\n        /* \"#utility.yul\":32210:32276   */\n      0xffffffffffffffffffffffffffffffffffffffffffffffffffffffffffffffff\n        /* \"#utility.yul\":32203:32208   */\n      dup3\n        /* \"#utility.yul\":32200:32277   */\n      eq\n        /* \"#utility.yul\":32197:32199   */\n      iszero\n      tag_743\n      jumpi\n        /* \"#utility.yul\":32280:32298   */\n      tag_744\n      tag_706\n      jump\t// in\n    tag_744:\n        /* \"#utility.yul\":32197:32199   */\n    tag_743:\n        /* \"#utility.yul\":32327:32328   */\n      0x01\n        /* \"#utility.yul\":32320:32325   */\n      dup3\n        /* \"#utility.yul\":32316:32329   */\n      add\n        /* \"#utility.yul\":32309:32329   */\n      swap1\n      pop\n        /* \"#utility.yul\":32145:32335   */\n      swap2\n      swap1\n      pop\n      jump\t// out\n        /* \"#utility.yul\":32341:32517   */\n    tag_273:\n        /* \"#utility.yul\":32373:32374   */\n      0x00\n        /* \"#utility.yul\":32390:32410   */\n      tag_746\n        /* \"#utility.yul\":32408:32409   */\n      dup3\n        /* \"#utility.yul\":32390:32410   */\n      tag_615\n      jump\t// in\n    tag_746:\n        /* \"#utility.yul\":32385:32410   */\n      swap2\n      pop\n        /* \"#utility.yul\":32424:32444   */\n      tag_747\n        /* \"#utility.yul\":32442:32443   */\n      dup4\n        /* \"#utility.yul\":32424:32444   */\n      tag_615\n      jump\t// in\n    tag_747:\n        /* \"#utility.yul\":32419:32444   */\n      swap3\n      pop\n        /* \"#utility.yul\":32463:32464   */\n      dup3\n        /* \"#utility.yul\":32453:32455   */\n      tag_748\n      jumpi\n        /* \"#utility.yul\":32468:32486   */\n      tag_749\n      tag_712\n      jump\t// in\n    tag_749:\n        /* \"#utility.yul\":32453:32455   */\n    tag_748:\n        /* \"#utility.yul\":32509:32510   */\n      dup3\n        /* \"#utility.yul\":32506:32507   */\n      dup3\n        /* \"#utility.yul\":32502:32511   */\n      mod\n        /* \"#utility.yul\":32497:32511   */\n      swap1\n      pop\n        /* \"#utility.yul\":32375:32517   */\n      swap3\n      swap2\n      pop\n      pop\n      jump\t// out\n        /* \"#utility.yul\":32523:32703   */\n    tag_706:\n        /* \"#utility.yul\":32571:32648   */\n      0x4e487b7100000000000000000000000000000000000000000000000000000000\n        /* \"#utility.yul\":32568:32569   */\n      0x00\n        /* \"#utility.yul\":32561:32649   */\n      mstore\n        /* \"#utility.yul\":32668:32672   */\n      0x11\n        /* \"#utility.yul\":32665:32666   */\n      0x04\n        /* \"#utility.yul\":32658:32673   */\n      mstore\n        /* \"#utility.yul\":32692:32696   */\n      0x24\n        /* \"#utility.yul\":32689:32690   */\n      0x00\n        /* \"#utility.yul\":32682:32697   */\n      revert\n        /* \"#utility.yul\":32709:32889   */\n    tag_712:\n        /* \"#utility.yul\":32757:32834   */\n      0x4e487b7100000000000000000000000000000000000000000000000000000000\n        /* \"#utility.yul\":32754:32755   */\n      0x00\n        /* \"#utility.yul\":32747:32835   */\n      mstore\n        /* \"#utility.yul\":32854:32858   */\n      0x12\n        /* \"#utility.yul\":32851:32852   */\n      0x04\n        /* \"#utility.yul\":32844:32859   */\n      mstore\n        /* \"#utility.yul\":32878:32882   */\n      0x24\n        /* \"#utility.yul\":32875:32876   */\n      0x00\n        /* \"#utility.yul\":32868:32883   */\n      revert\n        /* \"#utility.yul\":32895:33075   */\n    tag_736:\n        /* \"#utility.yul\":32943:33020   */\n      0x4e487b7100000000000000000000000000000000000000000000000000000000\n        /* \"#utility.yul\":32940:32941   */\n      0x00\n        /* \"#utility.yul\":32933:33021   */\n      mstore\n        /* \"#utility.yul\":33040:33044   */\n      0x22\n        /* \"#utility.yul\":33037:33038   */\n      0x04\n        /* \"#utility.yul\":33030:33045   */\n      mstore\n        /* \"#utility.yul\":33064:33068   */\n      0x24\n        /* \"#utility.yul\":33061:33062   */\n      0x00\n        /* \"#utility.yul\":33054:33069   */\n      revert\n        /* \"#utility.yul\":33081:33261   */\n    tag_676:\n        /* \"#utility.yul\":33129:33206   */\n      0x4e487b7100000000000000000000000000000000000000000000000000000000\n        /* \"#utility.yul\":33126:33127   */\n      0x00\n        /* \"#utility.yul\":33119:33207   */\n      mstore\n        /* \"#utility.yul\":33226:33230   */\n      0x41\n        /* \"#utility.yul\":33223:33224   */\n      0x04\n        /* \"#utility.yul\":33216:33231   */\n      mstore\n        /* \"#utility.yul\":33250:33254   */\n      0x24\n        /* \"#utility.yul\":33247:33248   */\n      0x00\n        /* \"#utility.yul\":33240:33255   */\n      revert\n        /* \"#utility.yul\":33267:33369   */\n    tag_528:\n        /* \"#utility.yul\":33308:33314   */\n      0x00\n        /* \"#utility.yul\":33359:33361   */\n      0x1f\n        /* \"#utility.yul\":33355:33362   */\n      not\n        /* \"#utility.yul\":33350:33352   */\n      0x1f\n        /* \"#utility.yul\":33343:33348   */\n      dup4\n        /* \"#utility.yul\":33339:33353   */\n      add\n        /* \"#utility.yul\":33335:33363   */\n      and\n        /* \"#utility.yul\":33325:33363   */\n      swap1\n      pop\n        /* \"#utility.yul\":33315:33369   */\n      swap2\n      swap1\n      pop\n      jump\t// out\n        /* \"#utility.yul\":33375:33607   */\n    tag_547:\n        /* \"#utility.yul\":33515:33549   */\n      0x4552433732313a2063616c6c6572206973206e6f7420746f6b656e206f776e65\n        /* \"#utility.yul\":33511:33512   */\n      0x00\n        /* \"#utility.yul\":33503:33509   */\n      dup3\n        /* \"#utility.yul\":33499:33513   */\n      add\n        /* \"#utility.yul\":33492:33550   */\n      mstore\n        /* \"#utility.yul\":33584:33599   */\n      0x72206f7220617070726f76656400000000000000000000000000000000000000\n        /* \"#utility.yul\":33579:33581   */\n      0x20\n        /* \"#utility.yul\":33571:33577   */\n      dup3\n        /* \"#utility.yul\":33567:33582   */\n      add\n        /* \"#utility.yul\":33560:33600   */\n      mstore\n        /* \"#utility.yul\":33481:33607   */\n      pop\n      jump\t// out\n        /* \"#utility.yul\":33613:33850   */\n    tag_552:\n        /* \"#utility.yul\":33753:33787   */\n      0x4552433732313a207472616e7366657220746f206e6f6e204552433732315265\n        /* \"#utility.yul\":33749:33750   */\n      0x00\n        /* \"#utility.yul\":33741:33747   */\n      dup3\n        /* \"#utility.yul\":33737:33751   */\n      add\n        /* \"#utility.yul\":33730:33788   */\n      mstore\n        /* \"#utility.yul\":33822:33842   */\n      0x63656976657220696d706c656d656e7465720000000000000000000000000000\n        /* \"#utility.yul\":33817:33819   */\n      0x20\n        /* \"#utility.yul\":33809:33815   */\n      dup3\n        /* \"#utility.yul\":33805:33820   */\n      add\n        /* \"#utility.yul\":33798:33843   */\n      mstore\n        /* \"#utility.yul\":33719:33850   */\n      pop\n      jump\t// out\n        /* \"#utility.yul\":33856:34080   */\n    tag_557:\n        /* \"#utility.yul\":33996:34030   */\n      0x4552433732313a207472616e736665722066726f6d20696e636f727265637420\n        /* \"#utility.yul\":33992:33993   */\n      0x00\n        /* \"#utility.yul\":33984:33990   */\n      dup3\n        /* \"#utility.yul\":33980:33994   */\n      add\n        /* \"#utility.yul\":33973:34031   */\n      mstore\n        /* \"#utility.yul\":34065:34072   */\n      0x6f776e6572000000000000000000000000000000000000000000000000000000\n        /* \"#utility.yul\":34060:34062   */\n      0x20\n        /* \"#utility.yul\":34052:34058   */\n      dup3\n        /* \"#utility.yul\":34048:34063   */\n      add\n        /* \"#utility.yul\":34041:34073   */\n      mstore\n        /* \"#utility.yul\":33962:34080   */\n      pop\n      jump\t// out\n        /* \"#utility.yul\":34086:34264   */\n    tag_562:\n        /* \"#utility.yul\":34226:34256   */\n      0x4552433732313a20746f6b656e20616c7265616479206d696e74656400000000\n        /* \"#utility.yul\":34222:34223   */\n      0x00\n        /* \"#utility.yul\":34214:34220   */\n      dup3\n        /* \"#utility.yul\":34210:34224   */\n      add\n        /* \"#utility.yul\":34203:34257   */\n      mstore\n        /* \"#utility.yul\":34192:34264   */\n      pop\n      jump\t// out\n        /* \"#utility.yul\":34270:34493   */\n    tag_567:\n        /* \"#utility.yul\":34410:34444   */\n      0x4552433732313a207472616e7366657220746f20746865207a65726f20616464\n        /* \"#utility.yul\":34406:34407   */\n      0x00\n        /* \"#utility.yul\":34398:34404   */\n      dup3\n        /* \"#utility.yul\":34394:34408   */\n      add\n        /* \"#utility.yul\":34387:34445   */\n      mstore\n        /* \"#utility.yul\":34479:34485   */\n      0x7265737300000000000000000000000000000000000000000000000000000000\n        /* \"#utility.yul\":34474:34476   */\n      0x20\n        /* \"#utility.yul\":34466:34472   */\n      dup3\n        /* \"#utility.yul\":34462:34477   */\n      add\n        /* \"#utility.yul\":34455:34486   */\n      mstore\n        /* \"#utility.yul\":34376:34493   */\n      pop\n      jump\t// out\n        /* \"#utility.yul\":34499:34674   */\n    tag_572:\n        /* \"#utility.yul\":34639:34666   */\n      0x4552433732313a20617070726f766520746f2063616c6c657200000000000000\n        /* \"#utility.yul\":34635:34636   */\n      0x00\n        /* \"#utility.yul\":34627:34633   */\n      dup3\n        /* \"#utility.yul\":34623:34637   */\n      add\n        /* \"#utility.yul\":34616:34667   */\n      mstore\n        /* \"#utility.yul\":34605:34674   */\n      pop\n      jump\t// out\n        /* \"#utility.yul\":34680:34908   */\n    tag_577:\n        /* \"#utility.yul\":34820:34854   */\n      0x4552433732313a2061646472657373207a65726f206973206e6f742061207661\n        /* \"#utility.yul\":34816:34817   */\n      0x00\n        /* \"#utility.yul\":34808:34814   */\n      dup3\n        /* \"#utility.yul\":34804:34818   */\n      add\n        /* \"#utility.yul\":34797:34855   */\n      mstore\n        /* \"#utility.yul\":34889:34900   */\n      0x6c6964206f776e65720000000000000000000000000000000000000000000000\n        /* \"#utility.yul\":34884:34886   */\n      0x20\n        /* \"#utility.yul\":34876:34882   */\n      dup3\n        /* \"#utility.yul\":34872:34887   */\n      add\n        /* \"#utility.yul\":34865:34901   */\n      mstore\n        /* \"#utility.yul\":34786:34908   */\n      pop\n      jump\t// out\n        /* \"#utility.yul\":34914:35147   */\n    tag_582:\n        /* \"#utility.yul\":35054:35088   */\n      0x45524337323155524953746f726167653a2055524920736574206f66206e6f6e\n        /* \"#utility.yul\":35050:35051   */\n      0x00\n        /* \"#utility.yul\":35042:35048   */\n      dup3\n        /* \"#utility.yul\":35038:35052   */\n      add\n        /* \"#utility.yul\":35031:35089   */\n      mstore\n        /* \"#utility.yul\":35123:35139   */\n      0x6578697374656e7420746f6b656e000000000000000000000000000000000000\n        /* \"#utility.yul\":35118:35120   */\n      0x20\n        /* \"#utility.yul\":35110:35116   */\n      dup3\n        /* \"#utility.yul\":35106:35121   */\n      add\n        /* \"#utility.yul\":35099:35140   */\n      mstore\n        /* \"#utility.yul\":35020:35147   */\n      pop\n      jump\t// out\n        /* \"#utility.yul\":35153:35335   */\n    tag_587:\n        /* \"#utility.yul\":35293:35327   */\n      0x4552433732313a206d696e7420746f20746865207a65726f2061646472657373\n        /* \"#utility.yul\":35289:35290   */\n      0x00\n        /* \"#utility.yul\":35281:35287   */\n      dup3\n        /* \"#utility.yul\":35277:35291   */\n      add\n        /* \"#utility.yul\":35270:35328   */\n      mstore\n        /* \"#utility.yul\":35259:35335   */\n      pop\n      jump\t// out\n        /* \"#utility.yul\":35341:35577   */\n    tag_592:\n        /* \"#utility.yul\":35481:35515   */\n      0x45524337323155524953746f726167653a2055524920717565727920666f7220\n        /* \"#utility.yul\":35477:35478   */\n      0x00\n        /* \"#utility.yul\":35469:35475   */\n      dup3\n        /* \"#utility.yul\":35465:35479   */\n      add\n        /* \"#utility.yul\":35458:35516   */\n      mstore\n        /* \"#utility.yul\":35550:35569   */\n      0x6e6f6e6578697374656e7420746f6b656e000000000000000000000000000000\n        /* \"#utility.yul\":35545:35547   */\n      0x20\n        /* \"#utility.yul\":35537:35543   */\n      dup3\n        /* \"#utility.yul\":35533:35548   */\n      add\n        /* \"#utility.yul\":35526:35570   */\n      mstore\n        /* \"#utility.yul\":35447:35577   */\n      pop\n      jump\t// out\n        /* \"#utility.yul\":35583:35817   */\n    tag_597:\n        /* \"#utility.yul\":35723:35757   */\n      0x4552433732314d657461646174613a2055524920717565727920666f72206e6f\n        /* \"#utility.yul\":35719:35720   */\n      0x00\n        /* \"#utility.yul\":35711:35717   */\n      dup3\n        /* \"#utility.yul\":35707:35721   */\n      add\n        /* \"#utility.yul\":35700:35758   */\n      mstore\n        /* \"#utility.yul\":35792:35809   */\n      0x6e6578697374656e7420746f6b656e0000000000000000000000000000000000\n        /* \"#utility.yul\":35787:35789   */\n      0x20\n        /* \"#utility.yul\":35779:35785   */\n      dup3\n        /* \"#utility.yul\":35775:35790   */\n      add\n        /* \"#utility.yul\":35768:35810   */\n      mstore\n        /* \"#utility.yul\":35689:35817   */\n      pop\n      jump\t// out\n        /* \"#utility.yul\":35823:35997   */\n    tag_602:\n        /* \"#utility.yul\":35963:35989   */\n      0x4552433732313a20696e76616c696420746f6b656e2049440000000000000000\n        /* \"#utility.yul\":35959:35960   */\n      0x00\n        /* \"#utility.yul\":35951:35957   */\n      dup3\n        /* \"#utility.yul\":35947:35961   */\n      add\n        /* \"#utility.yul\":35940:35990   */\n      mstore\n        /* \"#utility.yul\":35929:35997   */\n      pop\n      jump\t// out\n        /* \"#utility.yul\":36003:36223   */\n    tag_607:\n        /* \"#utility.yul\":36143:36177   */\n      0x4552433732313a20617070726f76616c20746f2063757272656e74206f776e65\n        /* \"#utility.yul\":36139:36140   */\n      0x00\n        /* \"#utility.yul\":36131:36137   */\n      dup3\n        /* \"#utility.yul\":36127:36141   */\n      add\n        /* \"#utility.yul\":36120:36178   */\n      mstore\n        /* \"#utility.yul\":36212:36215   */\n      0x7200000000000000000000000000000000000000000000000000000000000000\n        /* \"#utility.yul\":36207:36209   */\n      0x20\n        /* \"#utility.yul\":36199:36205   */\n      dup3\n        /* \"#utility.yul\":36195:36210   */\n      add\n        /* \"#utility.yul\":36188:36216   */\n      mstore\n        /* \"#utility.yul\":36109:36223   */\n      pop\n      jump\t// out\n        /* \"#utility.yul\":36229:36477   */\n    tag_612:\n        /* \"#utility.yul\":36369:36403   */\n      0x4552433732313a20617070726f76652063616c6c6572206973206e6f7420746f\n        /* \"#utility.yul\":36365:36366   */\n      0x00\n        /* \"#utility.yul\":36357:36363   */\n      dup3\n        /* \"#utility.yul\":36353:36367   */\n      add\n        /* \"#utility.yul\":36346:36404   */\n      mstore\n        /* \"#utility.yul\":36438:36469   */\n      0x6b656e206f776e6572206f7220617070726f76656420666f7220616c6c000000\n        /* \"#utility.yul\":36433:36435   */\n      0x20\n        /* \"#utility.yul\":36425:36431   */\n      dup3\n        /* \"#utility.yul\":36421:36436   */\n      add\n        /* \"#utility.yul\":36414:36470   */\n      mstore\n        /* \"#utility.yul\":36335:36477   */\n      pop\n      jump\t// out\n        /* \"#utility.yul\":36483:36605   */\n    tag_397:\n        /* \"#utility.yul\":36556:36580   */\n      tag_770\n        /* \"#utility.yul\":36574:36579   */\n      dup2\n        /* \"#utility.yul\":36556:36580   */\n      tag_483\n      jump\t// in\n    tag_770:\n        /* \"#utility.yul\":36549:36554   */\n      dup2\n        /* \"#utility.yul\":36546:36581   */\n      eq\n        /* \"#utility.yul\":36536:36538   */\n      tag_771\n      jumpi\n        /* \"#utility.yul\":36595:36596   */\n      0x00\n        /* \"#utility.yul\":36592:36593   */\n      dup1\n        /* \"#utility.yul\":36585:36597   */\n      revert\n        /* \"#utility.yul\":36536:36538   */\n    tag_771:\n        /* \"#utility.yul\":36526:36605   */\n      pop\n      jump\t// out\n        /* \"#utility.yul\":36611:36727   */\n    tag_409:\n        /* \"#utility.yul\":36681:36702   */\n      tag_773\n        /* \"#utility.yul\":36696:36701   */\n      dup2\n        /* \"#utility.yul\":36681:36702   */\n      tag_518\n      jump\t// in\n    tag_773:\n        /* \"#utility.yul\":36674:36679   */\n      dup2\n        /* \"#utility.yul\":36671:36703   */\n      eq\n        /* \"#utility.yul\":36661:36663   */\n      tag_774\n      jumpi\n        /* \"#utility.yul\":36717:36718   */\n      0x00\n        /* \"#utility.yul\":36714:36715   */\n      dup1\n        /* \"#utility.yul\":36707:36719   */\n      revert\n        /* \"#utility.yul\":36661:36663   */\n    tag_774:\n        /* \"#utility.yul\":36651:36727   */\n      pop\n      jump\t// out\n        /* \"#utility.yul\":36733:36853   */\n    tag_413:\n        /* \"#utility.yul\":36805:36828   */\n      tag_776\n        /* \"#utility.yul\":36822:36827   */\n      dup2\n        /* \"#utility.yul\":36805:36828   */\n      tag_722\n      jump\t// in\n    tag_776:\n        /* \"#utility.yul\":36798:36803   */\n      dup2\n        /* \"#utility.yul\":36795:36829   */\n      eq\n        /* \"#utility.yul\":36785:36787   */\n      tag_777\n      jumpi\n        /* \"#utility.yul\":36843:36844   */\n      0x00\n        /* \"#utility.yul\":36840:36841   */\n      dup1\n        /* \"#utility.yul\":36833:36845   */\n      revert\n        /* \"#utility.yul\":36785:36787   */\n    tag_777:\n        /* \"#utility.yul\":36775:36853   */\n      pop\n      jump\t// out\n        /* \"#utility.yul\":36859:36981   */\n    tag_427:\n        /* \"#utility.yul\":36932:36956   */\n      tag_779\n        /* \"#utility.yul\":36950:36955   */\n      dup2\n        /* \"#utility.yul\":36932:36956   */\n      tag_615\n      jump\t// in\n    tag_779:\n        /* \"#utility.yul\":36925:36930   */\n      dup2\n        /* \"#utility.yul\":36922:36957   */\n      eq\n        /* \"#utility.yul\":36912:36914   */\n      tag_780\n      jumpi\n        /* \"#utility.yul\":36971:36972   */\n      0x00\n        /* \"#utility.yul\":36968:36969   */\n      dup1\n        /* \"#utility.yul\":36961:36973   */\n      revert\n        /* \"#utility.yul\":36912:36914   */\n    tag_780:\n        /* \"#utility.yul\":36902:36981   */\n      pop\n      jump\t// out\n\n    auxdata: 0xa26469706673582212206ae2a7b7a2f6eb6ab4f49f7c9a884769eb62a924441b9c4ce7fa55b6a175d41164736f6c63430008040033\n}\n",
				"bytecode": {
					"linkReferences": {},
					"object": "60806040523480156200001157600080fd5b506040516200359938038062003599833981810160405281019062000037919062000193565b81600190805190602001906200004f92919062000071565b5080600290805190602001906200006892919062000071565b50505062000376565b8280546200007f906200029b565b90600052602060002090601f016020900481019282620000a35760008555620000ef565b82601f10620000be57805160ff1916838001178555620000ef565b82800160010185558215620000ef579182015b82811115620000ee578251825591602001919060010190620000d1565b5b509050620000fe919062000102565b5090565b5b808211156200011d57600081600090555060010162000103565b5090565b60006200013862000132846200022f565b62000206565b9050828152602081018484840111156200015157600080fd5b6200015e84828562000265565b509392505050565b600082601f8301126200017857600080fd5b81516200018a84826020860162000121565b91505092915050565b60008060408385031215620001a757600080fd5b600083015167ffffffffffffffff811115620001c257600080fd5b620001d08582860162000166565b925050602083015167ffffffffffffffff811115620001ee57600080fd5b620001fc8582860162000166565b9150509250929050565b60006200021262000225565b9050620002208282620002d1565b919050565b6000604051905090565b600067ffffffffffffffff8211156200024d576200024c62000336565b5b620002588262000365565b9050602081019050919050565b60005b838110156200028557808201518184015260208101905062000268565b8381111562000295576000848401525b50505050565b60006002820490506001821680620002b457607f821691505b60208210811415620002cb57620002ca62000307565b5b50919050565b620002dc8262000365565b810181811067ffffffffffffffff82111715620002fe57620002fd62000336565b5b80604052505050565b7f4e487b7100000000000000000000000000000000000000000000000000000000600052602260045260246000fd5b7f4e487b7100000000000000000000000000000000000000000000000000000000600052604160045260246000fd5b6000601f19601f8301169050919050565b61321380620003866000396000f3fe608060405234801561001057600080fd5b50600436106101165760003560e01c806370a08231116100a2578063b88d4fde11610071578063b88d4fde14610303578063c87b56dd1461031f578063dfd96b6a1461034f578063e985e9c51461036d578063ee48cda21461039d57610116565b806370a08231146102695780638d17e7121461029957806395d89b41146102c9578063a22cb465146102e757610116565b806323b872dd116100e957806323b872dd146101b5578063381568d8146101d157806342842e0e146101ed57806352e04825146102095780636352211e1461023957610116565b806301ffc9a71461011b57806306fdde031461014b578063081812fc14610169578063095ea7b314610199575b600080fd5b610135600480360381019061013091906121f2565b6103cd565b6040516101429190612700565b60405180910390f35b6101536104af565b604051610160919061271b565b60405180910390f35b610183600480360381019061017e9190612244565b610541565b6040516101909190612655565b60405180910390f35b6101b360048036038101906101ae91906121b6565b610587565b005b6101cf60048036038101906101ca9190612005565b61069f565b005b6101eb60048036038101906101e691906120cf565b6106ff565b005b61020760048036038101906102029190612005565b610734565b005b610223600480360381019061021e9190612244565b610754565b60405161023091906126bc565b60405180910390f35b610253600480360381019061024e9190612244565b6107fb565b6040516102609190612655565b60405180910390f35b610283600480360381019061027e9190611fa0565b6108ad565b60405161029091906128fd565b60405180910390f35b6102b360048036038101906102ae9190612244565b610965565b6040516102c0919061271b565b60405180910390f35b6102d1610a0c565b6040516102de919061271b565b60405180910390f35b61030160048036038101906102fc919061217a565b610a9e565b005b61031d60048036038101906103189190612054565b610ab4565b005b61033960048036038101906103349190612244565b610b16565b604051610346919061271b565b60405180910390f35b610357610c68565b60405161036491906128fd565b60405180910390f35b61038760048036038101906103829190611fc9565b610c79565b6040516103949190612700565b60405180910390f35b6103b760048036038101906103b29190612244565b610d0d565b6040516103c491906126de565b60405180910390f35b60007f80ac58cd000000000000000000000000000000000000000000000000000000007bffffffffffffffffffffffffffffffffffffffffffffffffffffffff1916827bffffffffffffffffffffffffffffffffffffffffffffffffffffffff1916148061049857507f5b5e139f000000000000000000000000000000000000000000000000000000007bffffffffffffffffffffffffffffffffffffffffffffffffffffffff1916827bffffffffffffffffffffffffffffffffffffffffffffffffffffffff1916145b806104a857506104a782610d7e565b5b9050919050565b6060600180546104be90612c1d565b80601f01602080910402602001604051908101604052809291908181526020018280546104ea90612c1d565b80156105375780601f1061050c57610100808354040283529160200191610537565b820191906000526020600020905b81548152906001019060200180831161051a57829003601f168201915b5050505050905090565b600061054c82610de8565b6007600083815260200190815260200160002060009054906101000a900473ffffffffffffffffffffffffffffffffffffffff169050919050565b6000610592826107fb565b90508073ffffffffffffffffffffffffffffffffffffffff168373ffffffffffffffffffffffffffffffffffffffff161415610603576040517f08c379a00000000000000000000000000000000000000000000000000000000081526004016105fa906128bd565b60405180910390fd5b8073ffffffffffffffffffffffffffffffffffffffff16610622610e33565b73ffffffffffffffffffffffffffffffffffffffff16148061065157506106508161064b610e33565b610c79565b5b610690576040517f08c379a0000000000000000000000000000000000000000000000000000000008152600401610687906128dd565b60405180910390fd5b61069a8383610e3b565b505050565b6106b06106aa610e33565b82610ef4565b6106ef576040517f08c379a00000000000000000000000000000000000000000000000000000000081526004016106e69061273d565b60405180910390fd5b6106fa838383610f89565b505050565b610709600061127f565b60006107156000611295565b9050610723858585846112a3565b61072d81836112c5565b5050505050565b61074f83838360405180602001604052806000815250610ab4565b505050565b60606000600460008481526020019081526020016000208054806020026020016040519081016040528092919081815260200182805480156107eb57602002820191906000526020600020905b8160009054906101000a900473ffffffffffffffffffffffffffffffffffffffff1673ffffffffffffffffffffffffffffffffffffffff16815260200190600101908083116107a1575b5050505050905080915050919050565b6000806003600084815260200190815260200160002060009054906101000a900473ffffffffffffffffffffffffffffffffffffffff169050600073ffffffffffffffffffffffffffffffffffffffff168173ffffffffffffffffffffffffffffffffffffffff1614156108a4576040517f08c379a000000000000000000000000000000000000000000000000000000000815260040161089b9061289d565b60405180910390fd5b80915050919050565b60008073ffffffffffffffffffffffffffffffffffffffff168273ffffffffffffffffffffffffffffffffffffffff16141561091e576040517f08c379a0000000000000000000000000000000000000000000000000000000008152600401610915906127fd565b60405180910390fd5b600660008373ffffffffffffffffffffffffffffffffffffffff1673ffffffffffffffffffffffffffffffffffffffff168152602001908152602001600020549050919050565b606061097082611339565b6109af576040517f08c379a00000000000000000000000000000000000000000000000000000000081526004016109a69061287d565b60405180910390fd5b60006109b96113a5565b905060008151116109d95760405180602001604052806000815250610a04565b806109e3846113bc565b6040516020016109f4929190612631565b6040516020818303038152906040525b915050919050565b606060028054610a1b90612c1d565b80601f0160208091040260200160405190810160405280929190818152602001828054610a4790612c1d565b8015610a945780601f10610a6957610100808354040283529160200191610a94565b820191906000526020600020905b815481529060010190602001808311610a7757829003601f168201915b5050505050905090565b610ab0610aa9610e33565b8383611569565b5050565b610ac5610abf610e33565b83610ef4565b610b04576040517f08c379a0000000000000000000000000000000000000000000000000000000008152600401610afb9061273d565b60405180910390fd5b610b10848484846116d6565b50505050565b6060610b2182611339565b610b60576040517f08c379a0000000000000000000000000000000000000000000000000000000008152600401610b579061285d565b60405180910390fd5b6000600960008481526020019081526020016000208054610b8090612c1d565b80601f0160208091040260200160405190810160405280929190818152602001828054610bac90612c1d565b8015610bf95780601f10610bce57610100808354040283529160200191610bf9565b820191906000526020600020905b815481529060010190602001808311610bdc57829003601f168201915b505050505090506000610c0a6113a5565b9050600081511415610c20578192505050610c63565b600082511115610c55578082604051602001610c3d929190612631565b60405160208183030381529060405292505050610c63565b610c5e84610965565b925050505b919050565b6000610c746000611295565b905090565b6000600860008473ffffffffffffffffffffffffffffffffffffffff1673ffffffffffffffffffffffffffffffffffffffff16815260200190815260200160002060008373ffffffffffffffffffffffffffffffffffffffff1673ffffffffffffffffffffffffffffffffffffffff16815260200190815260200160002060009054906101000a900460ff16905092915050565b6060600060056000848152602001908152602001600020805480602002602001604051908101604052809291908181526020018280548015610d6e57602002820191906000526020600020905b815481526020019060010190808311610d5a575b5050505050905080915050919050565b60007f01ffc9a7000000000000000000000000000000000000000000000000000000007bffffffffffffffffffffffffffffffffffffffffffffffffffffffff1916827bffffffffffffffffffffffffffffffffffffffffffffffffffffffff1916149050919050565b610df181611339565b610e30576040517f08c379a0000000000000000000000000000000000000000000000000000000008152600401610e279061289d565b60405180910390fd5b50565b600033905090565b816007600083815260200190815260200160002060006101000a81548173ffffffffffffffffffffffffffffffffffffffff021916908373ffffffffffffffffffffffffffffffffffffffff160217905550808273ffffffffffffffffffffffffffffffffffffffff16610eae836107fb565b73ffffffffffffffffffffffffffffffffffffffff167f8c5be1e5ebec7d5bd14f71427d1e84f3dd0314c0f7b2291e5b200ac8c7c3b92560405160405180910390a45050565b600080610f00836107fb565b90508073ffffffffffffffffffffffffffffffffffffffff168473ffffffffffffffffffffffffffffffffffffffff161480610f425750610f418185610c79565b5b80610f8057508373ffffffffffffffffffffffffffffffffffffffff16610f6884610541565b73ffffffffffffffffffffffffffffffffffffffff16145b91505092915050565b8273ffffffffffffffffffffffffffffffffffffffff16610fa9826107fb565b73ffffffffffffffffffffffffffffffffffffffff1614610fff576040517f08c379a0000000000000000000000000000000000000000000000000000000008152600401610ff69061277d565b60405180910390fd5b600073ffffffffffffffffffffffffffffffffffffffff168273ffffffffffffffffffffffffffffffffffffffff16141561106f576040517f08c379a0000000000000000000000000000000000000000000000000000000008152600401611066906127bd565b60405180910390fd5b61107a838383611732565b8273ffffffffffffffffffffffffffffffffffffffff1661109a826107fb565b73ffffffffffffffffffffffffffffffffffffffff16146110f0576040517f08c379a00000000000000000000000000000000000000000000000000000000081526004016110e79061277d565b60405180910390fd5b6007600082815260200190815260200160002060006101000a81549073ffffffffffffffffffffffffffffffffffffffff02191690556001600660008573ffffffffffffffffffffffffffffffffffffffff1673ffffffffffffffffffffffffffffffffffffffff168152602001908152602001600020600082825403925050819055506001600660008473ffffffffffffffffffffffffffffffffffffffff1673ffffffffffffffffffffffffffffffffffffffff16815260200190815260200160002060008282540192505081905550816003600083815260200190815260200160002060006101000a81548173ffffffffffffffffffffffffffffffffffffffff021916908373ffffffffffffffffffffffffffffffffffffffff160217905550808273ffffffffffffffffffffffffffffffffffffffff168473ffffffffffffffffffffffffffffffffffffffff167fddf252ad1be2c89b69c2b068fc378daa952ba7f163c4a11628f55a4df523b3ef60405160405180910390a461127a838383611737565b505050565b6001816000016000828254019250508190555050565b600081600001549050919050565b6112bf848484846040518060200160405280600081525061173c565b50505050565b6112ce82611339565b61130d576040517f08c379a00000000000000000000000000000000000000000000000000000000081526004016113049061281d565b60405180910390fd5b80600960008481526020019081526020016000209080519060200190611334929190611bc1565b505050565b60008073ffffffffffffffffffffffffffffffffffffffff166003600084815260200190815260200160002060009054906101000a900473ffffffffffffffffffffffffffffffffffffffff1673ffffffffffffffffffffffffffffffffffffffff1614159050919050565b606060405180602001604052806000815250905090565b60606000821415611404576040518060400160405280600181526020017f30000000000000000000000000000000000000000000000000000000000000008152509050611564565b600082905060005b6000821461143657808061141f90612c80565b915050600a8261142f9190612b02565b915061140c565b60008167ffffffffffffffff811115611478577f4e487b7100000000000000000000000000000000000000000000000000000000600052604160045260246000fd5b6040519080825280601f01601f1916602001820160405280156114aa5781602001600182028036833780820191505090505b5090505b6000851461155d576001826114c39190612b33565b9150600a856114d29190612cc9565b60306114de9190612aac565b60f81b81838151811061151a577f4e487b7100000000000000000000000000000000000000000000000000000000600052603260045260246000fd5b60200101907effffffffffffffffffffffffffffffffffffffffffffffffffffffffffffff1916908160001a905350600a856115569190612b02565b94506114ae565b8093505050505b919050565b8173ffffffffffffffffffffffffffffffffffffffff168373ffffffffffffffffffffffffffffffffffffffff1614156115d8576040517f08c379a00000000000000000000000000000000000000000000000000000000081526004016115cf906127dd565b60405180910390fd5b80600860008573ffffffffffffffffffffffffffffffffffffffff1673ffffffffffffffffffffffffffffffffffffffff16815260200190815260200160002060008473ffffffffffffffffffffffffffffffffffffffff1673ffffffffffffffffffffffffffffffffffffffff16815260200190815260200160002060006101000a81548160ff0219169083151502179055508173ffffffffffffffffffffffffffffffffffffffff168373ffffffffffffffffffffffffffffffffffffffff167f17307eab39ab6107e8899845ad3d59bd9653f200f220920489ca2b5937696c31836040516116c99190612700565b60405180910390a3505050565b6116e1848484610f89565b6116ed8484848461179b565b61172c576040517f08c379a00000000000000000000000000000000000000000000000000000000081526004016117239061275d565b60405180910390fd5b50505050565b505050565b505050565b61174885858585611932565b611755600086848461179b565b611794576040517f08c379a000000000000000000000000000000000000000000000000000000000815260040161178b9061275d565b60405180910390fd5b5050505050565b60006117bc8473ffffffffffffffffffffffffffffffffffffffff16611b9e565b15611925578373ffffffffffffffffffffffffffffffffffffffff1663150b7a026117e5610e33565b8786866040518563ffffffff1660e01b81526004016118079493929190612670565b602060405180830381600087803b15801561182157600080fd5b505af192505050801561185257506040513d601f19601f8201168201806040525081019061184f919061221b565b60015b6118d5573d8060008114611882576040519150601f19603f3d011682016040523d82523d6000602084013e611887565b606091505b506000815114156118cd576040517f08c379a00000000000000000000000000000000000000000000000000000000081526004016118c49061275d565b60405180910390fd5b805181602001fd5b63150b7a0260e01b7bffffffffffffffffffffffffffffffffffffffffffffffffffffffff1916817bffffffffffffffffffffffffffffffffffffffffffffffffffffffff19161491505061192a565b600190505b949350505050565b600073ffffffffffffffffffffffffffffffffffffffff168473ffffffffffffffffffffffffffffffffffffffff1614156119a2576040517f08c379a00000000000000000000000000000000000000000000000000000000081526004016119999061283d565b60405180910390fd5b6119ab81611339565b156119eb576040517f08c379a00000000000000000000000000000000000000000000000000000000081526004016119e29061279d565b60405180910390fd5b6119f760008583611732565b611a0081611339565b15611a40576040517f08c379a0000000000000000000000000000000000000000000000000000000008152600401611a379061279d565b60405180910390fd5b6001600660008673ffffffffffffffffffffffffffffffffffffffff1673ffffffffffffffffffffffffffffffffffffffff16815260200190815260200160002060008282540192505081905550836003600083815260200190815260200160002060006101000a81548173ffffffffffffffffffffffffffffffffffffffff021916908373ffffffffffffffffffffffffffffffffffffffff16021790555082600460008381526020019081526020016000209080519060200190611b07929190611c47565b5081600560008381526020019081526020016000209080519060200190611b2f929190611cd1565b50808473ffffffffffffffffffffffffffffffffffffffff16600073ffffffffffffffffffffffffffffffffffffffff167fddf252ad1be2c89b69c2b068fc378daa952ba7f163c4a11628f55a4df523b3ef60405160405180910390a4611b9860008583611737565b50505050565b6000808273ffffffffffffffffffffffffffffffffffffffff163b119050919050565b828054611bcd90612c1d565b90600052602060002090601f016020900481019282611bef5760008555611c36565b82601f10611c0857805160ff1916838001178555611c36565b82800160010185558215611c36579182015b82811115611c35578251825591602001919060010190611c1a565b5b509050611c439190611d1e565b5090565b828054828255906000526020600020908101928215611cc0579160200282015b82811115611cbf5782518260006101000a81548173ffffffffffffffffffffffffffffffffffffffff021916908373ffffffffffffffffffffffffffffffffffffffff16021790555091602001919060010190611c67565b5b509050611ccd9190611d1e565b5090565b828054828255906000526020600020908101928215611d0d579160200282015b82811115611d0c578251825591602001919060010190611cf1565b5b509050611d1a9190611d1e565b5090565b5b80821115611d37576000816000905550600101611d1f565b5090565b6000611d4e611d498461293d565b612918565b90508083825260208201905082856020860282011115611d6d57600080fd5b60005b85811015611d9d5781611d838882611e8f565b845260208401935060208301925050600181019050611d70565b5050509392505050565b6000611dba611db584612969565b612918565b90508083825260208201905082856020860282011115611dd957600080fd5b60005b85811015611e095781611def8882611f8b565b845260208401935060208301925050600181019050611ddc565b5050509392505050565b6000611e26611e2184612995565b612918565b905082815260208101848484011115611e3e57600080fd5b611e49848285612bdb565b509392505050565b6000611e64611e5f846129c6565b612918565b905082815260208101848484011115611e7c57600080fd5b611e87848285612bdb565b509392505050565b600081359050611e9e81613181565b92915050565b600082601f830112611eb557600080fd5b8135611ec5848260208601611d3b565b91505092915050565b600082601f830112611edf57600080fd5b8135611eef848260208601611da7565b91505092915050565b600081359050611f0781613198565b92915050565b600081359050611f1c816131af565b92915050565b600081519050611f31816131af565b92915050565b600082601f830112611f4857600080fd5b8135611f58848260208601611e13565b91505092915050565b600082601f830112611f7257600080fd5b8135611f82848260208601611e51565b91505092915050565b600081359050611f9a816131c6565b92915050565b600060208284031215611fb257600080fd5b6000611fc084828501611e8f565b91505092915050565b60008060408385031215611fdc57600080fd5b6000611fea85828601611e8f565b9250506020611ffb85828601611e8f565b9150509250929050565b60008060006060848603121561201a57600080fd5b600061202886828701611e8f565b935050602061203986828701611e8f565b925050604061204a86828701611f8b565b9150509250925092565b6000806000806080858703121561206a57600080fd5b600061207887828801611e8f565b945050602061208987828801611e8f565b935050604061209a87828801611f8b565b925050606085013567ffffffffffffffff8111156120b757600080fd5b6120c387828801611f37565b91505092959194509250565b600080600080608085870312156120e557600080fd5b60006120f387828801611e8f565b945050602085013567ffffffffffffffff81111561211057600080fd5b61211c87828801611ea4565b935050604085013567ffffffffffffffff81111561213957600080fd5b61214587828801611ece565b925050606085013567ffffffffffffffff81111561216257600080fd5b61216e87828801611f61565b91505092959194509250565b6000806040838503121561218d57600080fd5b600061219b85828601611e8f565b92505060206121ac85828601611ef8565b9150509250929050565b600080604083850312156121c957600080fd5b60006121d785828601611e8f565b92505060206121e885828601611f8b565b9150509250929050565b60006020828403121561220457600080fd5b600061221284828501611f0d565b91505092915050565b60006020828403121561222d57600080fd5b600061223b84828501611f22565b91505092915050565b60006020828403121561225657600080fd5b600061226484828501611f8b565b91505092915050565b6000612279838361229d565b60208301905092915050565b60006122918383612613565b60208301905092915050565b6122a681612b67565b82525050565b6122b581612b67565b82525050565b60006122c682612a17565b6122d08185612a5d565b93506122db836129f7565b8060005b8381101561230c5781516122f3888261226d565b97506122fe83612a43565b9250506001810190506122df565b5085935050505092915050565b600061232482612a22565b61232e8185612a6e565b935061233983612a07565b8060005b8381101561236a5781516123518882612285565b975061235c83612a50565b92505060018101905061233d565b5085935050505092915050565b61238081612b79565b82525050565b600061239182612a2d565b61239b8185612a7f565b93506123ab818560208601612bea565b6123b481612db6565b840191505092915050565b60006123ca82612a38565b6123d48185612a90565b93506123e4818560208601612bea565b6123ed81612db6565b840191505092915050565b600061240382612a38565b61240d8185612aa1565b935061241d818560208601612bea565b80840191505092915050565b6000612436602d83612a90565b915061244182612dc7565b604082019050919050565b6000612459603283612a90565b915061246482612e16565b604082019050919050565b600061247c602583612a90565b915061248782612e65565b604082019050919050565b600061249f601c83612a90565b91506124aa82612eb4565b602082019050919050565b60006124c2602483612a90565b91506124cd82612edd565b604082019050919050565b60006124e5601983612a90565b91506124f082612f2c565b602082019050919050565b6000612508602983612a90565b915061251382612f55565b604082019050919050565b600061252b602e83612a90565b915061253682612fa4565b604082019050919050565b600061254e602083612a90565b915061255982612ff3565b602082019050919050565b6000612571603183612a90565b915061257c8261301c565b604082019050919050565b6000612594602f83612a90565b915061259f8261306b565b604082019050919050565b60006125b7601883612a90565b91506125c2826130ba565b602082019050919050565b60006125da602183612a90565b91506125e5826130e3565b604082019050919050565b60006125fd603d83612a90565b915061260882613132565b604082019050919050565b61261c81612bd1565b82525050565b61262b81612bd1565b82525050565b600061263d82856123f8565b915061264982846123f8565b91508190509392505050565b600060208201905061266a60008301846122ac565b92915050565b600060808201905061268560008301876122ac565b61269260208301866122ac565b61269f6040830185612622565b81810360608301526126b18184612386565b905095945050505050565b600060208201905081810360008301526126d681846122bb565b905092915050565b600060208201905081810360008301526126f88184612319565b905092915050565b60006020820190506127156000830184612377565b92915050565b6000602082019050818103600083015261273581846123bf565b905092915050565b6000602082019050818103600083015261275681612429565b9050919050565b600060208201905081810360008301526127768161244c565b9050919050565b600060208201905081810360008301526127968161246f565b9050919050565b600060208201905081810360008301526127b681612492565b9050919050565b600060208201905081810360008301526127d6816124b5565b9050919050565b600060208201905081810360008301526127f6816124d8565b9050919050565b60006020820190508181036000830152612816816124fb565b9050919050565b600060208201905081810360008301526128368161251e565b9050919050565b6000602082019050818103600083015261285681612541565b9050919050565b6000602082019050818103600083015261287681612564565b9050919050565b6000602082019050818103600083015261289681612587565b9050919050565b600060208201905081810360008301526128b6816125aa565b9050919050565b600060208201905081810360008301526128d6816125cd565b9050919050565b600060208201905081810360008301526128f6816125f0565b9050919050565b60006020820190506129126000830184612622565b92915050565b6000612922612933565b905061292e8282612c4f565b919050565b6000604051905090565b600067ffffffffffffffff82111561295857612957612d87565b5b602082029050602081019050919050565b600067ffffffffffffffff82111561298457612983612d87565b5b602082029050602081019050919050565b600067ffffffffffffffff8211156129b0576129af612d87565b5b6129b982612db6565b9050602081019050919050565b600067ffffffffffffffff8211156129e1576129e0612d87565b5b6129ea82612db6565b9050602081019050919050565b6000819050602082019050919050565b6000819050602082019050919050565b600081519050919050565b600081519050919050565b600081519050919050565b600081519050919050565b6000602082019050919050565b6000602082019050919050565b600082825260208201905092915050565b600082825260208201905092915050565b600082825260208201905092915050565b600082825260208201905092915050565b600081905092915050565b6000612ab782612bd1565b9150612ac283612bd1565b9250827fffffffffffffffffffffffffffffffffffffffffffffffffffffffffffffffff03821115612af757612af6612cfa565b5b828201905092915050565b6000612b0d82612bd1565b9150612b1883612bd1565b925082612b2857612b27612d29565b5b828204905092915050565b6000612b3e82612bd1565b9150612b4983612bd1565b925082821015612b5c57612b5b612cfa565b5b828203905092915050565b6000612b7282612bb1565b9050919050565b60008115159050919050565b60007fffffffff0000000000000000000000000000000000000000000000000000000082169050919050565b600073ffffffffffffffffffffffffffffffffffffffff82169050919050565b6000819050919050565b82818337600083830152505050565b60005b83811015612c08578082015181840152602081019050612bed565b83811115612c17576000848401525b50505050565b60006002820490506001821680612c3557607f821691505b60208210811415612c4957612c48612d58565b5b50919050565b612c5882612db6565b810181811067ffffffffffffffff82111715612c7757612c76612d87565b5b80604052505050565b6000612c8b82612bd1565b91507fffffffffffffffffffffffffffffffffffffffffffffffffffffffffffffffff821415612cbe57612cbd612cfa565b5b600182019050919050565b6000612cd482612bd1565b9150612cdf83612bd1565b925082612cef57612cee612d29565b5b828206905092915050565b7f4e487b7100000000000000000000000000000000000000000000000000000000600052601160045260246000fd5b7f4e487b7100000000000000000000000000000000000000000000000000000000600052601260045260246000fd5b7f4e487b7100000000000000000000000000000000000000000000000000000000600052602260045260246000fd5b7f4e487b7100000000000000000000000000000000000000000000000000000000600052604160045260246000fd5b6000601f19601f8301169050919050565b7f4552433732313a2063616c6c6572206973206e6f7420746f6b656e206f776e6560008201527f72206f7220617070726f76656400000000000000000000000000000000000000602082015250565b7f4552433732313a207472616e7366657220746f206e6f6e20455243373231526560008201527f63656976657220696d706c656d656e7465720000000000000000000000000000602082015250565b7f4552433732313a207472616e736665722066726f6d20696e636f72726563742060008201527f6f776e6572000000000000000000000000000000000000000000000000000000602082015250565b7f4552433732313a20746f6b656e20616c7265616479206d696e74656400000000600082015250565b7f4552433732313a207472616e7366657220746f20746865207a65726f2061646460008201527f7265737300000000000000000000000000000000000000000000000000000000602082015250565b7f4552433732313a20617070726f766520746f2063616c6c657200000000000000600082015250565b7f4552433732313a2061646472657373207a65726f206973206e6f74206120766160008201527f6c6964206f776e65720000000000000000000000000000000000000000000000602082015250565b7f45524337323155524953746f726167653a2055524920736574206f66206e6f6e60008201527f6578697374656e7420746f6b656e000000000000000000000000000000000000602082015250565b7f4552433732313a206d696e7420746f20746865207a65726f2061646472657373600082015250565b7f45524337323155524953746f726167653a2055524920717565727920666f722060008201527f6e6f6e6578697374656e7420746f6b656e000000000000000000000000000000602082015250565b7f4552433732314d657461646174613a2055524920717565727920666f72206e6f60008201527f6e6578697374656e7420746f6b656e0000000000000000000000000000000000602082015250565b7f4552433732313a20696e76616c696420746f6b656e2049440000000000000000600082015250565b7f4552433732313a20617070726f76616c20746f2063757272656e74206f776e6560008201527f7200000000000000000000000000000000000000000000000000000000000000602082015250565b7f4552433732313a20617070726f76652063616c6c6572206973206e6f7420746f60008201527f6b656e206f776e6572206f7220617070726f76656420666f7220616c6c000000602082015250565b61318a81612b67565b811461319557600080fd5b50565b6131a181612b79565b81146131ac57600080fd5b50565b6131b881612b85565b81146131c357600080fd5b50565b6131cf81612bd1565b81146131da57600080fd5b5056fea26469706673582212206ae2a7b7a2f6eb6ab4f49f7c9a884769eb62a924441b9c4ce7fa55b6a175d41164736f6c63430008040033",
					"opcodes": "PUSH1 0x80 PUSH1 0x40 MSTORE CALLVALUE DUP1 ISZERO PUSH3 0x11 JUMPI PUSH1 0x0 DUP1 REVERT JUMPDEST POP PUSH1 0x40 MLOAD PUSH3 0x3599 CODESIZE SUB DUP1 PUSH3 0x3599 DUP4 CODECOPY DUP2 DUP2 ADD PUSH1 0x40 MSTORE DUP2 ADD SWAP1 PUSH3 0x37 SWAP2 SWAP1 PUSH3 0x193 JUMP JUMPDEST DUP2 PUSH1 0x1 SWAP1 DUP1 MLOAD SWAP1 PUSH1 0x20 ADD SWAP1 PUSH3 0x4F SWAP3 SWAP2 SWAP1 PUSH3 0x71 JUMP JUMPDEST POP DUP1 PUSH1 0x2 SWAP1 DUP1 MLOAD SWAP1 PUSH1 0x20 ADD SWAP1 PUSH3 0x68 SWAP3 SWAP2 SWAP1 PUSH3 0x71 JUMP JUMPDEST POP POP POP PUSH3 0x376 JUMP JUMPDEST DUP3 DUP1 SLOAD PUSH3 0x7F SWAP1 PUSH3 0x29B JUMP JUMPDEST SWAP1 PUSH1 0x0 MSTORE PUSH1 0x20 PUSH1 0x0 KECCAK256 SWAP1 PUSH1 0x1F ADD PUSH1 0x20 SWAP1 DIV DUP2 ADD SWAP3 DUP3 PUSH3 0xA3 JUMPI PUSH1 0x0 DUP6 SSTORE PUSH3 0xEF JUMP JUMPDEST DUP3 PUSH1 0x1F LT PUSH3 0xBE JUMPI DUP1 MLOAD PUSH1 0xFF NOT AND DUP4 DUP1 ADD OR DUP6 SSTORE PUSH3 0xEF JUMP JUMPDEST DUP3 DUP1 ADD PUSH1 0x1 ADD DUP6 SSTORE DUP3 ISZERO PUSH3 0xEF JUMPI SWAP2 DUP3 ADD JUMPDEST DUP3 DUP2 GT ISZERO PUSH3 0xEE JUMPI DUP3 MLOAD DUP3 SSTORE SWAP2 PUSH1 0x20 ADD SWAP2 SWAP1 PUSH1 0x1 ADD SWAP1 PUSH3 0xD1 JUMP JUMPDEST JUMPDEST POP SWAP1 POP PUSH3 0xFE SWAP2 SWAP1 PUSH3 0x102 JUMP JUMPDEST POP SWAP1 JUMP JUMPDEST JUMPDEST DUP1 DUP3 GT ISZERO PUSH3 0x11D JUMPI PUSH1 0x0 DUP2 PUSH1 0x0 SWAP1 SSTORE POP PUSH1 0x1 ADD PUSH3 0x103 JUMP JUMPDEST POP SWAP1 JUMP JUMPDEST PUSH1 0x0 PUSH3 0x138 PUSH3 0x132 DUP5 PUSH3 0x22F JUMP JUMPDEST PUSH3 0x206 JUMP JUMPDEST SWAP1 POP DUP3 DUP2 MSTORE PUSH1 0x20 DUP2 ADD DUP5 DUP5 DUP5 ADD GT ISZERO PUSH3 0x151 JUMPI PUSH1 0x0 DUP1 REVERT JUMPDEST PUSH3 0x15E DUP5 DUP3 DUP6 PUSH3 0x265 JUMP JUMPDEST POP SWAP4 SWAP3 POP POP POP JUMP JUMPDEST PUSH1 0x0 DUP3 PUSH1 0x1F DUP4 ADD SLT PUSH3 0x178 JUMPI PUSH1 0x0 DUP1 REVERT JUMPDEST DUP2 MLOAD PUSH3 0x18A DUP5 DUP3 PUSH1 0x20 DUP7 ADD PUSH3 0x121 JUMP JUMPDEST SWAP2 POP POP SWAP3 SWAP2 POP POP JUMP JUMPDEST PUSH1 0x0 DUP1 PUSH1 0x40 DUP4 DUP6 SUB SLT ISZERO PUSH3 0x1A7 JUMPI PUSH1 0x0 DUP1 REVERT JUMPDEST PUSH1 0x0 DUP4 ADD MLOAD PUSH8 0xFFFFFFFFFFFFFFFF DUP2 GT ISZERO PUSH3 0x1C2 JUMPI PUSH1 0x0 DUP1 REVERT JUMPDEST PUSH3 0x1D0 DUP6 DUP3 DUP7 ADD PUSH3 0x166 JUMP JUMPDEST SWAP3 POP POP PUSH1 0x20 DUP4 ADD MLOAD PUSH8 0xFFFFFFFFFFFFFFFF DUP2 GT ISZERO PUSH3 0x1EE JUMPI PUSH1 0x0 DUP1 REVERT JUMPDEST PUSH3 0x1FC DUP6 DUP3 DUP7 ADD PUSH3 0x166 JUMP JUMPDEST SWAP2 POP POP SWAP3 POP SWAP3 SWAP1 POP JUMP JUMPDEST PUSH1 0x0 PUSH3 0x212 PUSH3 0x225 JUMP JUMPDEST SWAP1 POP PUSH3 0x220 DUP3 DUP3 PUSH3 0x2D1 JUMP JUMPDEST SWAP2 SWAP1 POP JUMP JUMPDEST PUSH1 0x0 PUSH1 0x40 MLOAD SWAP1 POP SWAP1 JUMP JUMPDEST PUSH1 0x0 PUSH8 0xFFFFFFFFFFFFFFFF DUP3 GT ISZERO PUSH3 0x24D JUMPI PUSH3 0x24C PUSH3 0x336 JUMP JUMPDEST JUMPDEST PUSH3 0x258 DUP3 PUSH3 0x365 JUMP JUMPDEST SWAP1 POP PUSH1 0x20 DUP2 ADD SWAP1 POP SWAP2 SWAP1 POP JUMP JUMPDEST PUSH1 0x0 JUMPDEST DUP4 DUP2 LT ISZERO PUSH3 0x285 JUMPI DUP1 DUP3 ADD MLOAD DUP2 DUP5 ADD MSTORE PUSH1 0x20 DUP2 ADD SWAP1 POP PUSH3 0x268 JUMP JUMPDEST DUP4 DUP2 GT ISZERO PUSH3 0x295 JUMPI PUSH1 0x0 DUP5 DUP5 ADD MSTORE JUMPDEST POP POP POP POP JUMP JUMPDEST PUSH1 0x0 PUSH1 0x2 DUP3 DIV SWAP1 POP PUSH1 0x1 DUP3 AND DUP1 PUSH3 0x2B4 JUMPI PUSH1 0x7F DUP3 AND SWAP2 POP JUMPDEST PUSH1 0x20 DUP3 LT DUP2 EQ ISZERO PUSH3 0x2CB JUMPI PUSH3 0x2CA PUSH3 0x307 JUMP JUMPDEST JUMPDEST POP SWAP2 SWAP1 POP JUMP JUMPDEST PUSH3 0x2DC DUP3 PUSH3 0x365 JUMP JUMPDEST DUP2 ADD DUP2 DUP2 LT PUSH8 0xFFFFFFFFFFFFFFFF DUP3 GT OR ISZERO PUSH3 0x2FE JUMPI PUSH3 0x2FD PUSH3 0x336 JUMP JUMPDEST JUMPDEST DUP1 PUSH1 0x40 MSTORE POP POP POP JUMP JUMPDEST PUSH32 0x4E487B7100000000000000000000000000000000000000000000000000000000 PUSH1 0x0 MSTORE PUSH1 0x22 PUSH1 0x4 MSTORE PUSH1 0x24 PUSH1 0x0 REVERT JUMPDEST PUSH32 0x4E487B7100000000000000000000000000000000000000000000000000000000 PUSH1 0x0 MSTORE PUSH1 0x41 PUSH1 0x4 MSTORE PUSH1 0x24 PUSH1 0x0 REVERT JUMPDEST PUSH1 0x0 PUSH1 0x1F NOT PUSH1 0x1F DUP4 ADD AND SWAP1 POP SWAP2 SWAP1 POP JUMP JUMPDEST PUSH2 0x3213 DUP1 PUSH3 0x386 PUSH1 0x0 CODECOPY PUSH1 0x0 RETURN INVALID PUSH1 0x80 PUSH1 0x40 MSTORE CALLVALUE DUP1 ISZERO PUSH2 0x10 JUMPI PUSH1 0x0 DUP1 REVERT JUMPDEST POP PUSH1 0x4 CALLDATASIZE LT PUSH2 0x116 JUMPI PUSH1 0x0 CALLDATALOAD PUSH1 0xE0 SHR DUP1 PUSH4 0x70A08231 GT PUSH2 0xA2 JUMPI DUP1 PUSH4 0xB88D4FDE GT PUSH2 0x71 JUMPI DUP1 PUSH4 0xB88D4FDE EQ PUSH2 0x303 JUMPI DUP1 PUSH4 0xC87B56DD EQ PUSH2 0x31F JUMPI DUP1 PUSH4 0xDFD96B6A EQ PUSH2 0x34F JUMPI DUP1 PUSH4 0xE985E9C5 EQ PUSH2 0x36D JUMPI DUP1 PUSH4 0xEE48CDA2 EQ PUSH2 0x39D JUMPI PUSH2 0x116 JUMP JUMPDEST DUP1 PUSH4 0x70A08231 EQ PUSH2 0x269 JUMPI DUP1 PUSH4 0x8D17E712 EQ PUSH2 0x299 JUMPI DUP1 PUSH4 0x95D89B41 EQ PUSH2 0x2C9 JUMPI DUP1 PUSH4 0xA22CB465 EQ PUSH2 0x2E7 JUMPI PUSH2 0x116 JUMP JUMPDEST DUP1 PUSH4 0x23B872DD GT PUSH2 0xE9 JUMPI DUP1 PUSH4 0x23B872DD EQ PUSH2 0x1B5 JUMPI DUP1 PUSH4 0x381568D8 EQ PUSH2 0x1D1 JUMPI DUP1 PUSH4 0x42842E0E EQ PUSH2 0x1ED JUMPI DUP1 PUSH4 0x52E04825 EQ PUSH2 0x209 JUMPI DUP1 PUSH4 0x6352211E EQ PUSH2 0x239 JUMPI PUSH2 0x116 JUMP JUMPDEST DUP1 PUSH4 0x1FFC9A7 EQ PUSH2 0x11B JUMPI DUP1 PUSH4 0x6FDDE03 EQ PUSH2 0x14B JUMPI DUP1 PUSH4 0x81812FC EQ PUSH2 0x169 JUMPI DUP1 PUSH4 0x95EA7B3 EQ PUSH2 0x199 JUMPI JUMPDEST PUSH1 0x0 DUP1 REVERT JUMPDEST PUSH2 0x135 PUSH1 0x4 DUP1 CALLDATASIZE SUB DUP2 ADD SWAP1 PUSH2 0x130 SWAP2 SWAP1 PUSH2 0x21F2 JUMP JUMPDEST PUSH2 0x3CD JUMP JUMPDEST PUSH1 0x40 MLOAD PUSH2 0x142 SWAP2 SWAP1 PUSH2 0x2700 JUMP JUMPDEST PUSH1 0x40 MLOAD DUP1 SWAP2 SUB SWAP1 RETURN JUMPDEST PUSH2 0x153 PUSH2 0x4AF JUMP JUMPDEST PUSH1 0x40 MLOAD PUSH2 0x160 SWAP2 SWAP1 PUSH2 0x271B JUMP JUMPDEST PUSH1 0x40 MLOAD DUP1 SWAP2 SUB SWAP1 RETURN JUMPDEST PUSH2 0x183 PUSH1 0x4 DUP1 CALLDATASIZE SUB DUP2 ADD SWAP1 PUSH2 0x17E SWAP2 SWAP1 PUSH2 0x2244 JUMP JUMPDEST PUSH2 0x541 JUMP JUMPDEST PUSH1 0x40 MLOAD PUSH2 0x190 SWAP2 SWAP1 PUSH2 0x2655 JUMP JUMPDEST PUSH1 0x40 MLOAD DUP1 SWAP2 SUB SWAP1 RETURN JUMPDEST PUSH2 0x1B3 PUSH1 0x4 DUP1 CALLDATASIZE SUB DUP2 ADD SWAP1 PUSH2 0x1AE SWAP2 SWAP1 PUSH2 0x21B6 JUMP JUMPDEST PUSH2 0x587 JUMP JUMPDEST STOP JUMPDEST PUSH2 0x1CF PUSH1 0x4 DUP1 CALLDATASIZE SUB DUP2 ADD SWAP1 PUSH2 0x1CA SWAP2 SWAP1 PUSH2 0x2005 JUMP JUMPDEST PUSH2 0x69F JUMP JUMPDEST STOP JUMPDEST PUSH2 0x1EB PUSH1 0x4 DUP1 CALLDATASIZE SUB DUP2 ADD SWAP1 PUSH2 0x1E6 SWAP2 SWAP1 PUSH2 0x20CF JUMP JUMPDEST PUSH2 0x6FF JUMP JUMPDEST STOP JUMPDEST PUSH2 0x207 PUSH1 0x4 DUP1 CALLDATASIZE SUB DUP2 ADD SWAP1 PUSH2 0x202 SWAP2 SWAP1 PUSH2 0x2005 JUMP JUMPDEST PUSH2 0x734 JUMP JUMPDEST STOP JUMPDEST PUSH2 0x223 PUSH1 0x4 DUP1 CALLDATASIZE SUB DUP2 ADD SWAP1 PUSH2 0x21E SWAP2 SWAP1 PUSH2 0x2244 JUMP JUMPDEST PUSH2 0x754 JUMP JUMPDEST PUSH1 0x40 MLOAD PUSH2 0x230 SWAP2 SWAP1 PUSH2 0x26BC JUMP JUMPDEST PUSH1 0x40 MLOAD DUP1 SWAP2 SUB SWAP1 RETURN JUMPDEST PUSH2 0x253 PUSH1 0x4 DUP1 CALLDATASIZE SUB DUP2 ADD SWAP1 PUSH2 0x24E SWAP2 SWAP1 PUSH2 0x2244 JUMP JUMPDEST PUSH2 0x7FB JUMP JUMPDEST PUSH1 0x40 MLOAD PUSH2 0x260 SWAP2 SWAP1 PUSH2 0x2655 JUMP JUMPDEST PUSH1 0x40 MLOAD DUP1 SWAP2 SUB SWAP1 RETURN JUMPDEST PUSH2 0x283 PUSH1 0x4 DUP1 CALLDATASIZE SUB DUP2 ADD SWAP1 PUSH2 0x27E SWAP2 SWAP1 PUSH2 0x1FA0 JUMP JUMPDEST PUSH2 0x8AD JUMP JUMPDEST PUSH1 0x40 MLOAD PUSH2 0x290 SWAP2 SWAP1 PUSH2 0x28FD JUMP JUMPDEST PUSH1 0x40 MLOAD DUP1 SWAP2 SUB SWAP1 RETURN JUMPDEST PUSH2 0x2B3 PUSH1 0x4 DUP1 CALLDATASIZE SUB DUP2 ADD SWAP1 PUSH2 0x2AE SWAP2 SWAP1 PUSH2 0x2244 JUMP JUMPDEST PUSH2 0x965 JUMP JUMPDEST PUSH1 0x40 MLOAD PUSH2 0x2C0 SWAP2 SWAP1 PUSH2 0x271B JUMP JUMPDEST PUSH1 0x40 MLOAD DUP1 SWAP2 SUB SWAP1 RETURN JUMPDEST PUSH2 0x2D1 PUSH2 0xA0C JUMP JUMPDEST PUSH1 0x40 MLOAD PUSH2 0x2DE SWAP2 SWAP1 PUSH2 0x271B JUMP JUMPDEST PUSH1 0x40 MLOAD DUP1 SWAP2 SUB SWAP1 RETURN JUMPDEST PUSH2 0x301 PUSH1 0x4 DUP1 CALLDATASIZE SUB DUP2 ADD SWAP1 PUSH2 0x2FC SWAP2 SWAP1 PUSH2 0x217A JUMP JUMPDEST PUSH2 0xA9E JUMP JUMPDEST STOP JUMPDEST PUSH2 0x31D PUSH1 0x4 DUP1 CALLDATASIZE SUB DUP2 ADD SWAP1 PUSH2 0x318 SWAP2 SWAP1 PUSH2 0x2054 JUMP JUMPDEST PUSH2 0xAB4 JUMP JUMPDEST STOP JUMPDEST PUSH2 0x339 PUSH1 0x4 DUP1 CALLDATASIZE SUB DUP2 ADD SWAP1 PUSH2 0x334 SWAP2 SWAP1 PUSH2 0x2244 JUMP JUMPDEST PUSH2 0xB16 JUMP JUMPDEST PUSH1 0x40 MLOAD PUSH2 0x346 SWAP2 SWAP1 PUSH2 0x271B JUMP JUMPDEST PUSH1 0x40 MLOAD DUP1 SWAP2 SUB SWAP1 RETURN JUMPDEST PUSH2 0x357 PUSH2 0xC68 JUMP JUMPDEST PUSH1 0x40 MLOAD PUSH2 0x364 SWAP2 SWAP1 PUSH2 0x28FD JUMP JUMPDEST PUSH1 0x40 MLOAD DUP1 SWAP2 SUB SWAP1 RETURN JUMPDEST PUSH2 0x387 PUSH1 0x4 DUP1 CALLDATASIZE SUB DUP2 ADD SWAP1 PUSH2 0x382 SWAP2 SWAP1 PUSH2 0x1FC9 JUMP JUMPDEST PUSH2 0xC79 JUMP JUMPDEST PUSH1 0x40 MLOAD PUSH2 0x394 SWAP2 SWAP1 PUSH2 0x2700 JUMP JUMPDEST PUSH1 0x40 MLOAD DUP1 SWAP2 SUB SWAP1 RETURN JUMPDEST PUSH2 0x3B7 PUSH1 0x4 DUP1 CALLDATASIZE SUB DUP2 ADD SWAP1 PUSH2 0x3B2 SWAP2 SWAP1 PUSH2 0x2244 JUMP JUMPDEST PUSH2 0xD0D JUMP JUMPDEST PUSH1 0x40 MLOAD PUSH2 0x3C4 SWAP2 SWAP1 PUSH2 0x26DE JUMP JUMPDEST PUSH1 0x40 MLOAD DUP1 SWAP2 SUB SWAP1 RETURN JUMPDEST PUSH1 0x0 PUSH32 0x80AC58CD00000000000000000000000000000000000000000000000000000000 PUSH28 0xFFFFFFFFFFFFFFFFFFFFFFFFFFFFFFFFFFFFFFFFFFFFFFFFFFFFFFFF NOT AND DUP3 PUSH28 0xFFFFFFFFFFFFFFFFFFFFFFFFFFFFFFFFFFFFFFFFFFFFFFFFFFFFFFFF NOT AND EQ DUP1 PUSH2 0x498 JUMPI POP PUSH32 0x5B5E139F00000000000000000000000000000000000000000000000000000000 PUSH28 0xFFFFFFFFFFFFFFFFFFFFFFFFFFFFFFFFFFFFFFFFFFFFFFFFFFFFFFFF NOT AND DUP3 PUSH28 0xFFFFFFFFFFFFFFFFFFFFFFFFFFFFFFFFFFFFFFFFFFFFFFFFFFFFFFFF NOT AND EQ JUMPDEST DUP1 PUSH2 0x4A8 JUMPI POP PUSH2 0x4A7 DUP3 PUSH2 0xD7E JUMP JUMPDEST JUMPDEST SWAP1 POP SWAP2 SWAP1 POP JUMP JUMPDEST PUSH1 0x60 PUSH1 0x1 DUP1 SLOAD PUSH2 0x4BE SWAP1 PUSH2 0x2C1D JUMP JUMPDEST DUP1 PUSH1 0x1F ADD PUSH1 0x20 DUP1 SWAP2 DIV MUL PUSH1 0x20 ADD PUSH1 0x40 MLOAD SWAP1 DUP2 ADD PUSH1 0x40 MSTORE DUP1 SWAP3 SWAP2 SWAP1 DUP2 DUP2 MSTORE PUSH1 0x20 ADD DUP3 DUP1 SLOAD PUSH2 0x4EA SWAP1 PUSH2 0x2C1D JUMP JUMPDEST DUP1 ISZERO PUSH2 0x537 JUMPI DUP1 PUSH1 0x1F LT PUSH2 0x50C JUMPI PUSH2 0x100 DUP1 DUP4 SLOAD DIV MUL DUP4 MSTORE SWAP2 PUSH1 0x20 ADD SWAP2 PUSH2 0x537 JUMP JUMPDEST DUP3 ADD SWAP2 SWAP1 PUSH1 0x0 MSTORE PUSH1 0x20 PUSH1 0x0 KECCAK256 SWAP1 JUMPDEST DUP2 SLOAD DUP2 MSTORE SWAP1 PUSH1 0x1 ADD SWAP1 PUSH1 0x20 ADD DUP1 DUP4 GT PUSH2 0x51A JUMPI DUP3 SWAP1 SUB PUSH1 0x1F AND DUP3 ADD SWAP2 JUMPDEST POP POP POP POP POP SWAP1 POP SWAP1 JUMP JUMPDEST PUSH1 0x0 PUSH2 0x54C DUP3 PUSH2 0xDE8 JUMP JUMPDEST PUSH1 0x7 PUSH1 0x0 DUP4 DUP2 MSTORE PUSH1 0x20 ADD SWAP1 DUP2 MSTORE PUSH1 0x20 ADD PUSH1 0x0 KECCAK256 PUSH1 0x0 SWAP1 SLOAD SWAP1 PUSH2 0x100 EXP SWAP1 DIV PUSH20 0xFFFFFFFFFFFFFFFFFFFFFFFFFFFFFFFFFFFFFFFF AND SWAP1 POP SWAP2 SWAP1 POP JUMP JUMPDEST PUSH1 0x0 PUSH2 0x592 DUP3 PUSH2 0x7FB JUMP JUMPDEST SWAP1 POP DUP1 PUSH20 0xFFFFFFFFFFFFFFFFFFFFFFFFFFFFFFFFFFFFFFFF AND DUP4 PUSH20 0xFFFFFFFFFFFFFFFFFFFFFFFFFFFFFFFFFFFFFFFF AND EQ ISZERO PUSH2 0x603 JUMPI PUSH1 0x40 MLOAD PUSH32 0x8C379A000000000000000000000000000000000000000000000000000000000 DUP2 MSTORE PUSH1 0x4 ADD PUSH2 0x5FA SWAP1 PUSH2 0x28BD JUMP JUMPDEST PUSH1 0x40 MLOAD DUP1 SWAP2 SUB SWAP1 REVERT JUMPDEST DUP1 PUSH20 0xFFFFFFFFFFFFFFFFFFFFFFFFFFFFFFFFFFFFFFFF AND PUSH2 0x622 PUSH2 0xE33 JUMP JUMPDEST PUSH20 0xFFFFFFFFFFFFFFFFFFFFFFFFFFFFFFFFFFFFFFFF AND EQ DUP1 PUSH2 0x651 JUMPI POP PUSH2 0x650 DUP2 PUSH2 0x64B PUSH2 0xE33 JUMP JUMPDEST PUSH2 0xC79 JUMP JUMPDEST JUMPDEST PUSH2 0x690 JUMPI PUSH1 0x40 MLOAD PUSH32 0x8C379A000000000000000000000000000000000000000000000000000000000 DUP2 MSTORE PUSH1 0x4 ADD PUSH2 0x687 SWAP1 PUSH2 0x28DD JUMP JUMPDEST PUSH1 0x40 MLOAD DUP1 SWAP2 SUB SWAP1 REVERT JUMPDEST PUSH2 0x69A DUP4 DUP4 PUSH2 0xE3B JUMP JUMPDEST POP POP POP JUMP JUMPDEST PUSH2 0x6B0 PUSH2 0x6AA PUSH2 0xE33 JUMP JUMPDEST DUP3 PUSH2 0xEF4 JUMP JUMPDEST PUSH2 0x6EF JUMPI PUSH1 0x40 MLOAD PUSH32 0x8C379A000000000000000000000000000000000000000000000000000000000 DUP2 MSTORE PUSH1 0x4 ADD PUSH2 0x6E6 SWAP1 PUSH2 0x273D JUMP JUMPDEST PUSH1 0x40 MLOAD DUP1 SWAP2 SUB SWAP1 REVERT JUMPDEST PUSH2 0x6FA DUP4 DUP4 DUP4 PUSH2 0xF89 JUMP JUMPDEST POP POP POP JUMP JUMPDEST PUSH2 0x709 PUSH1 0x0 PUSH2 0x127F JUMP JUMPDEST PUSH1 0x0 PUSH2 0x715 PUSH1 0x0 PUSH2 0x1295 JUMP JUMPDEST SWAP1 POP PUSH2 0x723 DUP6 DUP6 DUP6 DUP5 PUSH2 0x12A3 JUMP JUMPDEST PUSH2 0x72D DUP2 DUP4 PUSH2 0x12C5 JUMP JUMPDEST POP POP POP POP POP JUMP JUMPDEST PUSH2 0x74F DUP4 DUP4 DUP4 PUSH1 0x40 MLOAD DUP1 PUSH1 0x20 ADD PUSH1 0x40 MSTORE DUP1 PUSH1 0x0 DUP2 MSTORE POP PUSH2 0xAB4 JUMP JUMPDEST POP POP POP JUMP JUMPDEST PUSH1 0x60 PUSH1 0x0 PUSH1 0x4 PUSH1 0x0 DUP5 DUP2 MSTORE PUSH1 0x20 ADD SWAP1 DUP2 MSTORE PUSH1 0x20 ADD PUSH1 0x0 KECCAK256 DUP1 SLOAD DUP1 PUSH1 0x20 MUL PUSH1 0x20 ADD PUSH1 0x40 MLOAD SWAP1 DUP2 ADD PUSH1 0x40 MSTORE DUP1 SWAP3 SWAP2 SWAP1 DUP2 DUP2 MSTORE PUSH1 0x20 ADD DUP3 DUP1 SLOAD DUP1 ISZERO PUSH2 0x7EB JUMPI PUSH1 0x20 MUL DUP3 ADD SWAP2 SWAP1 PUSH1 0x0 MSTORE PUSH1 0x20 PUSH1 0x0 KECCAK256 SWAP1 JUMPDEST DUP2 PUSH1 0x0 SWAP1 SLOAD SWAP1 PUSH2 0x100 EXP SWAP1 DIV PUSH20 0xFFFFFFFFFFFFFFFFFFFFFFFFFFFFFFFFFFFFFFFF AND PUSH20 0xFFFFFFFFFFFFFFFFFFFFFFFFFFFFFFFFFFFFFFFF AND DUP2 MSTORE PUSH1 0x20 ADD SWAP1 PUSH1 0x1 ADD SWAP1 DUP1 DUP4 GT PUSH2 0x7A1 JUMPI JUMPDEST POP POP POP POP POP SWAP1 POP DUP1 SWAP2 POP POP SWAP2 SWAP1 POP JUMP JUMPDEST PUSH1 0x0 DUP1 PUSH1 0x3 PUSH1 0x0 DUP5 DUP2 MSTORE PUSH1 0x20 ADD SWAP1 DUP2 MSTORE PUSH1 0x20 ADD PUSH1 0x0 KECCAK256 PUSH1 0x0 SWAP1 SLOAD SWAP1 PUSH2 0x100 EXP SWAP1 DIV PUSH20 0xFFFFFFFFFFFFFFFFFFFFFFFFFFFFFFFFFFFFFFFF AND SWAP1 POP PUSH1 0x0 PUSH20 0xFFFFFFFFFFFFFFFFFFFFFFFFFFFFFFFFFFFFFFFF AND DUP2 PUSH20 0xFFFFFFFFFFFFFFFFFFFFFFFFFFFFFFFFFFFFFFFF AND EQ ISZERO PUSH2 0x8A4 JUMPI PUSH1 0x40 MLOAD PUSH32 0x8C379A000000000000000000000000000000000000000000000000000000000 DUP2 MSTORE PUSH1 0x4 ADD PUSH2 0x89B SWAP1 PUSH2 0x289D JUMP JUMPDEST PUSH1 0x40 MLOAD DUP1 SWAP2 SUB SWAP1 REVERT JUMPDEST DUP1 SWAP2 POP POP SWAP2 SWAP1 POP JUMP JUMPDEST PUSH1 0x0 DUP1 PUSH20 0xFFFFFFFFFFFFFFFFFFFFFFFFFFFFFFFFFFFFFFFF AND DUP3 PUSH20 0xFFFFFFFFFFFFFFFFFFFFFFFFFFFFFFFFFFFFFFFF AND EQ ISZERO PUSH2 0x91E JUMPI PUSH1 0x40 MLOAD PUSH32 0x8C379A000000000000000000000000000000000000000000000000000000000 DUP2 MSTORE PUSH1 0x4 ADD PUSH2 0x915 SWAP1 PUSH2 0x27FD JUMP JUMPDEST PUSH1 0x40 MLOAD DUP1 SWAP2 SUB SWAP1 REVERT JUMPDEST PUSH1 0x6 PUSH1 0x0 DUP4 PUSH20 0xFFFFFFFFFFFFFFFFFFFFFFFFFFFFFFFFFFFFFFFF AND PUSH20 0xFFFFFFFFFFFFFFFFFFFFFFFFFFFFFFFFFFFFFFFF AND DUP2 MSTORE PUSH1 0x20 ADD SWAP1 DUP2 MSTORE PUSH1 0x20 ADD PUSH1 0x0 KECCAK256 SLOAD SWAP1 POP SWAP2 SWAP1 POP JUMP JUMPDEST PUSH1 0x60 PUSH2 0x970 DUP3 PUSH2 0x1339 JUMP JUMPDEST PUSH2 0x9AF JUMPI PUSH1 0x40 MLOAD PUSH32 0x8C379A000000000000000000000000000000000000000000000000000000000 DUP2 MSTORE PUSH1 0x4 ADD PUSH2 0x9A6 SWAP1 PUSH2 0x287D JUMP JUMPDEST PUSH1 0x40 MLOAD DUP1 SWAP2 SUB SWAP1 REVERT JUMPDEST PUSH1 0x0 PUSH2 0x9B9 PUSH2 0x13A5 JUMP JUMPDEST SWAP1 POP PUSH1 0x0 DUP2 MLOAD GT PUSH2 0x9D9 JUMPI PUSH1 0x40 MLOAD DUP1 PUSH1 0x20 ADD PUSH1 0x40 MSTORE DUP1 PUSH1 0x0 DUP2 MSTORE POP PUSH2 0xA04 JUMP JUMPDEST DUP1 PUSH2 0x9E3 DUP5 PUSH2 0x13BC JUMP JUMPDEST PUSH1 0x40 MLOAD PUSH1 0x20 ADD PUSH2 0x9F4 SWAP3 SWAP2 SWAP1 PUSH2 0x2631 JUMP JUMPDEST PUSH1 0x40 MLOAD PUSH1 0x20 DUP2 DUP4 SUB SUB DUP2 MSTORE SWAP1 PUSH1 0x40 MSTORE JUMPDEST SWAP2 POP POP SWAP2 SWAP1 POP JUMP JUMPDEST PUSH1 0x60 PUSH1 0x2 DUP1 SLOAD PUSH2 0xA1B SWAP1 PUSH2 0x2C1D JUMP JUMPDEST DUP1 PUSH1 0x1F ADD PUSH1 0x20 DUP1 SWAP2 DIV MUL PUSH1 0x20 ADD PUSH1 0x40 MLOAD SWAP1 DUP2 ADD PUSH1 0x40 MSTORE DUP1 SWAP3 SWAP2 SWAP1 DUP2 DUP2 MSTORE PUSH1 0x20 ADD DUP3 DUP1 SLOAD PUSH2 0xA47 SWAP1 PUSH2 0x2C1D JUMP JUMPDEST DUP1 ISZERO PUSH2 0xA94 JUMPI DUP1 PUSH1 0x1F LT PUSH2 0xA69 JUMPI PUSH2 0x100 DUP1 DUP4 SLOAD DIV MUL DUP4 MSTORE SWAP2 PUSH1 0x20 ADD SWAP2 PUSH2 0xA94 JUMP JUMPDEST DUP3 ADD SWAP2 SWAP1 PUSH1 0x0 MSTORE PUSH1 0x20 PUSH1 0x0 KECCAK256 SWAP1 JUMPDEST DUP2 SLOAD DUP2 MSTORE SWAP1 PUSH1 0x1 ADD SWAP1 PUSH1 0x20 ADD DUP1 DUP4 GT PUSH2 0xA77 JUMPI DUP3 SWAP1 SUB PUSH1 0x1F AND DUP3 ADD SWAP2 JUMPDEST POP POP POP POP POP SWAP1 POP SWAP1 JUMP JUMPDEST PUSH2 0xAB0 PUSH2 0xAA9 PUSH2 0xE33 JUMP JUMPDEST DUP4 DUP4 PUSH2 0x1569 JUMP JUMPDEST POP POP JUMP JUMPDEST PUSH2 0xAC5 PUSH2 0xABF PUSH2 0xE33 JUMP JUMPDEST DUP4 PUSH2 0xEF4 JUMP JUMPDEST PUSH2 0xB04 JUMPI PUSH1 0x40 MLOAD PUSH32 0x8C379A000000000000000000000000000000000000000000000000000000000 DUP2 MSTORE PUSH1 0x4 ADD PUSH2 0xAFB SWAP1 PUSH2 0x273D JUMP JUMPDEST PUSH1 0x40 MLOAD DUP1 SWAP2 SUB SWAP1 REVERT JUMPDEST PUSH2 0xB10 DUP5 DUP5 DUP5 DUP5 PUSH2 0x16D6 JUMP JUMPDEST POP POP POP POP JUMP JUMPDEST PUSH1 0x60 PUSH2 0xB21 DUP3 PUSH2 0x1339 JUMP JUMPDEST PUSH2 0xB60 JUMPI PUSH1 0x40 MLOAD PUSH32 0x8C379A000000000000000000000000000000000000000000000000000000000 DUP2 MSTORE PUSH1 0x4 ADD PUSH2 0xB57 SWAP1 PUSH2 0x285D JUMP JUMPDEST PUSH1 0x40 MLOAD DUP1 SWAP2 SUB SWAP1 REVERT JUMPDEST PUSH1 0x0 PUSH1 0x9 PUSH1 0x0 DUP5 DUP2 MSTORE PUSH1 0x20 ADD SWAP1 DUP2 MSTORE PUSH1 0x20 ADD PUSH1 0x0 KECCAK256 DUP1 SLOAD PUSH2 0xB80 SWAP1 PUSH2 0x2C1D JUMP JUMPDEST DUP1 PUSH1 0x1F ADD PUSH1 0x20 DUP1 SWAP2 DIV MUL PUSH1 0x20 ADD PUSH1 0x40 MLOAD SWAP1 DUP2 ADD PUSH1 0x40 MSTORE DUP1 SWAP3 SWAP2 SWAP1 DUP2 DUP2 MSTORE PUSH1 0x20 ADD DUP3 DUP1 SLOAD PUSH2 0xBAC SWAP1 PUSH2 0x2C1D JUMP JUMPDEST DUP1 ISZERO PUSH2 0xBF9 JUMPI DUP1 PUSH1 0x1F LT PUSH2 0xBCE JUMPI PUSH2 0x100 DUP1 DUP4 SLOAD DIV MUL DUP4 MSTORE SWAP2 PUSH1 0x20 ADD SWAP2 PUSH2 0xBF9 JUMP JUMPDEST DUP3 ADD SWAP2 SWAP1 PUSH1 0x0 MSTORE PUSH1 0x20 PUSH1 0x0 KECCAK256 SWAP1 JUMPDEST DUP2 SLOAD DUP2 MSTORE SWAP1 PUSH1 0x1 ADD SWAP1 PUSH1 0x20 ADD DUP1 DUP4 GT PUSH2 0xBDC JUMPI DUP3 SWAP1 SUB PUSH1 0x1F AND DUP3 ADD SWAP2 JUMPDEST POP POP POP POP POP SWAP1 POP PUSH1 0x0 PUSH2 0xC0A PUSH2 0x13A5 JUMP JUMPDEST SWAP1 POP PUSH1 0x0 DUP2 MLOAD EQ ISZERO PUSH2 0xC20 JUMPI DUP2 SWAP3 POP POP POP PUSH2 0xC63 JUMP JUMPDEST PUSH1 0x0 DUP3 MLOAD GT ISZERO PUSH2 0xC55 JUMPI DUP1 DUP3 PUSH1 0x40 MLOAD PUSH1 0x20 ADD PUSH2 0xC3D SWAP3 SWAP2 SWAP1 PUSH2 0x2631 JUMP JUMPDEST PUSH1 0x40 MLOAD PUSH1 0x20 DUP2 DUP4 SUB SUB DUP2 MSTORE SWAP1 PUSH1 0x40 MSTORE SWAP3 POP POP POP PUSH2 0xC63 JUMP JUMPDEST PUSH2 0xC5E DUP5 PUSH2 0x965 JUMP JUMPDEST SWAP3 POP POP POP JUMPDEST SWAP2 SWAP1 POP JUMP JUMPDEST PUSH1 0x0 PUSH2 0xC74 PUSH1 0x0 PUSH2 0x1295 JUMP JUMPDEST SWAP1 POP SWAP1 JUMP JUMPDEST PUSH1 0x0 PUSH1 0x8 PUSH1 0x0 DUP5 PUSH20 0xFFFFFFFFFFFFFFFFFFFFFFFFFFFFFFFFFFFFFFFF AND PUSH20 0xFFFFFFFFFFFFFFFFFFFFFFFFFFFFFFFFFFFFFFFF AND DUP2 MSTORE PUSH1 0x20 ADD SWAP1 DUP2 MSTORE PUSH1 0x20 ADD PUSH1 0x0 KECCAK256 PUSH1 0x0 DUP4 PUSH20 0xFFFFFFFFFFFFFFFFFFFFFFFFFFFFFFFFFFFFFFFF AND PUSH20 0xFFFFFFFFFFFFFFFFFFFFFFFFFFFFFFFFFFFFFFFF AND DUP2 MSTORE PUSH1 0x20 ADD SWAP1 DUP2 MSTORE PUSH1 0x20 ADD PUSH1 0x0 KECCAK256 PUSH1 0x0 SWAP1 SLOAD SWAP1 PUSH2 0x100 EXP SWAP1 DIV PUSH1 0xFF AND SWAP1 POP SWAP3 SWAP2 POP POP JUMP JUMPDEST PUSH1 0x60 PUSH1 0x0 PUSH1 0x5 PUSH1 0x0 DUP5 DUP2 MSTORE PUSH1 0x20 ADD SWAP1 DUP2 MSTORE PUSH1 0x20 ADD PUSH1 0x0 KECCAK256 DUP1 SLOAD DUP1 PUSH1 0x20 MUL PUSH1 0x20 ADD PUSH1 0x40 MLOAD SWAP1 DUP2 ADD PUSH1 0x40 MSTORE DUP1 SWAP3 SWAP2 SWAP1 DUP2 DUP2 MSTORE PUSH1 0x20 ADD DUP3 DUP1 SLOAD DUP1 ISZERO PUSH2 0xD6E JUMPI PUSH1 0x20 MUL DUP3 ADD SWAP2 SWAP1 PUSH1 0x0 MSTORE PUSH1 0x20 PUSH1 0x0 KECCAK256 SWAP1 JUMPDEST DUP2 SLOAD DUP2 MSTORE PUSH1 0x20 ADD SWAP1 PUSH1 0x1 ADD SWAP1 DUP1 DUP4 GT PUSH2 0xD5A JUMPI JUMPDEST POP POP POP POP POP SWAP1 POP DUP1 SWAP2 POP POP SWAP2 SWAP1 POP JUMP JUMPDEST PUSH1 0x0 PUSH32 0x1FFC9A700000000000000000000000000000000000000000000000000000000 PUSH28 0xFFFFFFFFFFFFFFFFFFFFFFFFFFFFFFFFFFFFFFFFFFFFFFFFFFFFFFFF NOT AND DUP3 PUSH28 0xFFFFFFFFFFFFFFFFFFFFFFFFFFFFFFFFFFFFFFFFFFFFFFFFFFFFFFFF NOT AND EQ SWAP1 POP SWAP2 SWAP1 POP JUMP JUMPDEST PUSH2 0xDF1 DUP2 PUSH2 0x1339 JUMP JUMPDEST PUSH2 0xE30 JUMPI PUSH1 0x40 MLOAD PUSH32 0x8C379A000000000000000000000000000000000000000000000000000000000 DUP2 MSTORE PUSH1 0x4 ADD PUSH2 0xE27 SWAP1 PUSH2 0x289D JUMP JUMPDEST PUSH1 0x40 MLOAD DUP1 SWAP2 SUB SWAP1 REVERT JUMPDEST POP JUMP JUMPDEST PUSH1 0x0 CALLER SWAP1 POP SWAP1 JUMP JUMPDEST DUP2 PUSH1 0x7 PUSH1 0x0 DUP4 DUP2 MSTORE PUSH1 0x20 ADD SWAP1 DUP2 MSTORE PUSH1 0x20 ADD PUSH1 0x0 KECCAK256 PUSH1 0x0 PUSH2 0x100 EXP DUP2 SLOAD DUP2 PUSH20 0xFFFFFFFFFFFFFFFFFFFFFFFFFFFFFFFFFFFFFFFF MUL NOT AND SWAP1 DUP4 PUSH20 0xFFFFFFFFFFFFFFFFFFFFFFFFFFFFFFFFFFFFFFFF AND MUL OR SWAP1 SSTORE POP DUP1 DUP3 PUSH20 0xFFFFFFFFFFFFFFFFFFFFFFFFFFFFFFFFFFFFFFFF AND PUSH2 0xEAE DUP4 PUSH2 0x7FB JUMP JUMPDEST PUSH20 0xFFFFFFFFFFFFFFFFFFFFFFFFFFFFFFFFFFFFFFFF AND PUSH32 0x8C5BE1E5EBEC7D5BD14F71427D1E84F3DD0314C0F7B2291E5B200AC8C7C3B925 PUSH1 0x40 MLOAD PUSH1 0x40 MLOAD DUP1 SWAP2 SUB SWAP1 LOG4 POP POP JUMP JUMPDEST PUSH1 0x0 DUP1 PUSH2 0xF00 DUP4 PUSH2 0x7FB JUMP JUMPDEST SWAP1 POP DUP1 PUSH20 0xFFFFFFFFFFFFFFFFFFFFFFFFFFFFFFFFFFFFFFFF AND DUP5 PUSH20 0xFFFFFFFFFFFFFFFFFFFFFFFFFFFFFFFFFFFFFFFF AND EQ DUP1 PUSH2 0xF42 JUMPI POP PUSH2 0xF41 DUP2 DUP6 PUSH2 0xC79 JUMP JUMPDEST JUMPDEST DUP1 PUSH2 0xF80 JUMPI POP DUP4 PUSH20 0xFFFFFFFFFFFFFFFFFFFFFFFFFFFFFFFFFFFFFFFF AND PUSH2 0xF68 DUP5 PUSH2 0x541 JUMP JUMPDEST PUSH20 0xFFFFFFFFFFFFFFFFFFFFFFFFFFFFFFFFFFFFFFFF AND EQ JUMPDEST SWAP2 POP POP SWAP3 SWAP2 POP POP JUMP JUMPDEST DUP3 PUSH20 0xFFFFFFFFFFFFFFFFFFFFFFFFFFFFFFFFFFFFFFFF AND PUSH2 0xFA9 DUP3 PUSH2 0x7FB JUMP JUMPDEST PUSH20 0xFFFFFFFFFFFFFFFFFFFFFFFFFFFFFFFFFFFFFFFF AND EQ PUSH2 0xFFF JUMPI PUSH1 0x40 MLOAD PUSH32 0x8C379A000000000000000000000000000000000000000000000000000000000 DUP2 MSTORE PUSH1 0x4 ADD PUSH2 0xFF6 SWAP1 PUSH2 0x277D JUMP JUMPDEST PUSH1 0x40 MLOAD DUP1 SWAP2 SUB SWAP1 REVERT JUMPDEST PUSH1 0x0 PUSH20 0xFFFFFFFFFFFFFFFFFFFFFFFFFFFFFFFFFFFFFFFF AND DUP3 PUSH20 0xFFFFFFFFFFFFFFFFFFFFFFFFFFFFFFFFFFFFFFFF AND EQ ISZERO PUSH2 0x106F JUMPI PUSH1 0x40 MLOAD PUSH32 0x8C379A000000000000000000000000000000000000000000000000000000000 DUP2 MSTORE PUSH1 0x4 ADD PUSH2 0x1066 SWAP1 PUSH2 0x27BD JUMP JUMPDEST PUSH1 0x40 MLOAD DUP1 SWAP2 SUB SWAP1 REVERT JUMPDEST PUSH2 0x107A DUP4 DUP4 DUP4 PUSH2 0x1732 JUMP JUMPDEST DUP3 PUSH20 0xFFFFFFFFFFFFFFFFFFFFFFFFFFFFFFFFFFFFFFFF AND PUSH2 0x109A DUP3 PUSH2 0x7FB JUMP JUMPDEST PUSH20 0xFFFFFFFFFFFFFFFFFFFFFFFFFFFFFFFFFFFFFFFF AND EQ PUSH2 0x10F0 JUMPI PUSH1 0x40 MLOAD PUSH32 0x8C379A000000000000000000000000000000000000000000000000000000000 DUP2 MSTORE PUSH1 0x4 ADD PUSH2 0x10E7 SWAP1 PUSH2 0x277D JUMP JUMPDEST PUSH1 0x40 MLOAD DUP1 SWAP2 SUB SWAP1 REVERT JUMPDEST PUSH1 0x7 PUSH1 0x0 DUP3 DUP2 MSTORE PUSH1 0x20 ADD SWAP1 DUP2 MSTORE PUSH1 0x20 ADD PUSH1 0x0 KECCAK256 PUSH1 0x0 PUSH2 0x100 EXP DUP2 SLOAD SWAP1 PUSH20 0xFFFFFFFFFFFFFFFFFFFFFFFFFFFFFFFFFFFFFFFF MUL NOT AND SWAP1 SSTORE PUSH1 0x1 PUSH1 0x6 PUSH1 0x0 DUP6 PUSH20 0xFFFFFFFFFFFFFFFFFFFFFFFFFFFFFFFFFFFFFFFF AND PUSH20 0xFFFFFFFFFFFFFFFFFFFFFFFFFFFFFFFFFFFFFFFF AND DUP2 MSTORE PUSH1 0x20 ADD SWAP1 DUP2 MSTORE PUSH1 0x20 ADD PUSH1 0x0 KECCAK256 PUSH1 0x0 DUP3 DUP3 SLOAD SUB SWAP3 POP POP DUP2 SWAP1 SSTORE POP PUSH1 0x1 PUSH1 0x6 PUSH1 0x0 DUP5 PUSH20 0xFFFFFFFFFFFFFFFFFFFFFFFFFFFFFFFFFFFFFFFF AND PUSH20 0xFFFFFFFFFFFFFFFFFFFFFFFFFFFFFFFFFFFFFFFF AND DUP2 MSTORE PUSH1 0x20 ADD SWAP1 DUP2 MSTORE PUSH1 0x20 ADD PUSH1 0x0 KECCAK256 PUSH1 0x0 DUP3 DUP3 SLOAD ADD SWAP3 POP POP DUP2 SWAP1 SSTORE POP DUP2 PUSH1 0x3 PUSH1 0x0 DUP4 DUP2 MSTORE PUSH1 0x20 ADD SWAP1 DUP2 MSTORE PUSH1 0x20 ADD PUSH1 0x0 KECCAK256 PUSH1 0x0 PUSH2 0x100 EXP DUP2 SLOAD DUP2 PUSH20 0xFFFFFFFFFFFFFFFFFFFFFFFFFFFFFFFFFFFFFFFF MUL NOT AND SWAP1 DUP4 PUSH20 0xFFFFFFFFFFFFFFFFFFFFFFFFFFFFFFFFFFFFFFFF AND MUL OR SWAP1 SSTORE POP DUP1 DUP3 PUSH20 0xFFFFFFFFFFFFFFFFFFFFFFFFFFFFFFFFFFFFFFFF AND DUP5 PUSH20 0xFFFFFFFFFFFFFFFFFFFFFFFFFFFFFFFFFFFFFFFF AND PUSH32 0xDDF252AD1BE2C89B69C2B068FC378DAA952BA7F163C4A11628F55A4DF523B3EF PUSH1 0x40 MLOAD PUSH1 0x40 MLOAD DUP1 SWAP2 SUB SWAP1 LOG4 PUSH2 0x127A DUP4 DUP4 DUP4 PUSH2 0x1737 JUMP JUMPDEST POP POP POP JUMP JUMPDEST PUSH1 0x1 DUP2 PUSH1 0x0 ADD PUSH1 0x0 DUP3 DUP3 SLOAD ADD SWAP3 POP POP DUP2 SWAP1 SSTORE POP POP JUMP JUMPDEST PUSH1 0x0 DUP2 PUSH1 0x0 ADD SLOAD SWAP1 POP SWAP2 SWAP1 POP JUMP JUMPDEST PUSH2 0x12BF DUP5 DUP5 DUP5 DUP5 PUSH1 0x40 MLOAD DUP1 PUSH1 0x20 ADD PUSH1 0x40 MSTORE DUP1 PUSH1 0x0 DUP2 MSTORE POP PUSH2 0x173C JUMP JUMPDEST POP POP POP POP JUMP JUMPDEST PUSH2 0x12CE DUP3 PUSH2 0x1339 JUMP JUMPDEST PUSH2 0x130D JUMPI PUSH1 0x40 MLOAD PUSH32 0x8C379A000000000000000000000000000000000000000000000000000000000 DUP2 MSTORE PUSH1 0x4 ADD PUSH2 0x1304 SWAP1 PUSH2 0x281D JUMP JUMPDEST PUSH1 0x40 MLOAD DUP1 SWAP2 SUB SWAP1 REVERT JUMPDEST DUP1 PUSH1 0x9 PUSH1 0x0 DUP5 DUP2 MSTORE PUSH1 0x20 ADD SWAP1 DUP2 MSTORE PUSH1 0x20 ADD PUSH1 0x0 KECCAK256 SWAP1 DUP1 MLOAD SWAP1 PUSH1 0x20 ADD SWAP1 PUSH2 0x1334 SWAP3 SWAP2 SWAP1 PUSH2 0x1BC1 JUMP JUMPDEST POP POP POP JUMP JUMPDEST PUSH1 0x0 DUP1 PUSH20 0xFFFFFFFFFFFFFFFFFFFFFFFFFFFFFFFFFFFFFFFF AND PUSH1 0x3 PUSH1 0x0 DUP5 DUP2 MSTORE PUSH1 0x20 ADD SWAP1 DUP2 MSTORE PUSH1 0x20 ADD PUSH1 0x0 KECCAK256 PUSH1 0x0 SWAP1 SLOAD SWAP1 PUSH2 0x100 EXP SWAP1 DIV PUSH20 0xFFFFFFFFFFFFFFFFFFFFFFFFFFFFFFFFFFFFFFFF AND PUSH20 0xFFFFFFFFFFFFFFFFFFFFFFFFFFFFFFFFFFFFFFFF AND EQ ISZERO SWAP1 POP SWAP2 SWAP1 POP JUMP JUMPDEST PUSH1 0x60 PUSH1 0x40 MLOAD DUP1 PUSH1 0x20 ADD PUSH1 0x40 MSTORE DUP1 PUSH1 0x0 DUP2 MSTORE POP SWAP1 POP SWAP1 JUMP JUMPDEST PUSH1 0x60 PUSH1 0x0 DUP3 EQ ISZERO PUSH2 0x1404 JUMPI PUSH1 0x40 MLOAD DUP1 PUSH1 0x40 ADD PUSH1 0x40 MSTORE DUP1 PUSH1 0x1 DUP2 MSTORE PUSH1 0x20 ADD PUSH32 0x3000000000000000000000000000000000000000000000000000000000000000 DUP2 MSTORE POP SWAP1 POP PUSH2 0x1564 JUMP JUMPDEST PUSH1 0x0 DUP3 SWAP1 POP PUSH1 0x0 JUMPDEST PUSH1 0x0 DUP3 EQ PUSH2 0x1436 JUMPI DUP1 DUP1 PUSH2 0x141F SWAP1 PUSH2 0x2C80 JUMP JUMPDEST SWAP2 POP POP PUSH1 0xA DUP3 PUSH2 0x142F SWAP2 SWAP1 PUSH2 0x2B02 JUMP JUMPDEST SWAP2 POP PUSH2 0x140C JUMP JUMPDEST PUSH1 0x0 DUP2 PUSH8 0xFFFFFFFFFFFFFFFF DUP2 GT ISZERO PUSH2 0x1478 JUMPI PUSH32 0x4E487B7100000000000000000000000000000000000000000000000000000000 PUSH1 0x0 MSTORE PUSH1 0x41 PUSH1 0x4 MSTORE PUSH1 0x24 PUSH1 0x0 REVERT JUMPDEST PUSH1 0x40 MLOAD SWAP1 DUP1 DUP3 MSTORE DUP1 PUSH1 0x1F ADD PUSH1 0x1F NOT AND PUSH1 0x20 ADD DUP3 ADD PUSH1 0x40 MSTORE DUP1 ISZERO PUSH2 0x14AA JUMPI DUP2 PUSH1 0x20 ADD PUSH1 0x1 DUP3 MUL DUP1 CALLDATASIZE DUP4 CALLDATACOPY DUP1 DUP3 ADD SWAP2 POP POP SWAP1 POP JUMPDEST POP SWAP1 POP JUMPDEST PUSH1 0x0 DUP6 EQ PUSH2 0x155D JUMPI PUSH1 0x1 DUP3 PUSH2 0x14C3 SWAP2 SWAP1 PUSH2 0x2B33 JUMP JUMPDEST SWAP2 POP PUSH1 0xA DUP6 PUSH2 0x14D2 SWAP2 SWAP1 PUSH2 0x2CC9 JUMP JUMPDEST PUSH1 0x30 PUSH2 0x14DE SWAP2 SWAP1 PUSH2 0x2AAC JUMP JUMPDEST PUSH1 0xF8 SHL DUP2 DUP4 DUP2 MLOAD DUP2 LT PUSH2 0x151A JUMPI PUSH32 0x4E487B7100000000000000000000000000000000000000000000000000000000 PUSH1 0x0 MSTORE PUSH1 0x32 PUSH1 0x4 MSTORE PUSH1 0x24 PUSH1 0x0 REVERT JUMPDEST PUSH1 0x20 ADD ADD SWAP1 PUSH31 0xFFFFFFFFFFFFFFFFFFFFFFFFFFFFFFFFFFFFFFFFFFFFFFFFFFFFFFFFFFFFFF NOT AND SWAP1 DUP2 PUSH1 0x0 BYTE SWAP1 MSTORE8 POP PUSH1 0xA DUP6 PUSH2 0x1556 SWAP2 SWAP1 PUSH2 0x2B02 JUMP JUMPDEST SWAP5 POP PUSH2 0x14AE JUMP JUMPDEST DUP1 SWAP4 POP POP POP POP JUMPDEST SWAP2 SWAP1 POP JUMP JUMPDEST DUP2 PUSH20 0xFFFFFFFFFFFFFFFFFFFFFFFFFFFFFFFFFFFFFFFF AND DUP4 PUSH20 0xFFFFFFFFFFFFFFFFFFFFFFFFFFFFFFFFFFFFFFFF AND EQ ISZERO PUSH2 0x15D8 JUMPI PUSH1 0x40 MLOAD PUSH32 0x8C379A000000000000000000000000000000000000000000000000000000000 DUP2 MSTORE PUSH1 0x4 ADD PUSH2 0x15CF SWAP1 PUSH2 0x27DD JUMP JUMPDEST PUSH1 0x40 MLOAD DUP1 SWAP2 SUB SWAP1 REVERT JUMPDEST DUP1 PUSH1 0x8 PUSH1 0x0 DUP6 PUSH20 0xFFFFFFFFFFFFFFFFFFFFFFFFFFFFFFFFFFFFFFFF AND PUSH20 0xFFFFFFFFFFFFFFFFFFFFFFFFFFFFFFFFFFFFFFFF AND DUP2 MSTORE PUSH1 0x20 ADD SWAP1 DUP2 MSTORE PUSH1 0x20 ADD PUSH1 0x0 KECCAK256 PUSH1 0x0 DUP5 PUSH20 0xFFFFFFFFFFFFFFFFFFFFFFFFFFFFFFFFFFFFFFFF AND PUSH20 0xFFFFFFFFFFFFFFFFFFFFFFFFFFFFFFFFFFFFFFFF AND DUP2 MSTORE PUSH1 0x20 ADD SWAP1 DUP2 MSTORE PUSH1 0x20 ADD PUSH1 0x0 KECCAK256 PUSH1 0x0 PUSH2 0x100 EXP DUP2 SLOAD DUP2 PUSH1 0xFF MUL NOT AND SWAP1 DUP4 ISZERO ISZERO MUL OR SWAP1 SSTORE POP DUP2 PUSH20 0xFFFFFFFFFFFFFFFFFFFFFFFFFFFFFFFFFFFFFFFF AND DUP4 PUSH20 0xFFFFFFFFFFFFFFFFFFFFFFFFFFFFFFFFFFFFFFFF AND PUSH32 0x17307EAB39AB6107E8899845AD3D59BD9653F200F220920489CA2B5937696C31 DUP4 PUSH1 0x40 MLOAD PUSH2 0x16C9 SWAP2 SWAP1 PUSH2 0x2700 JUMP JUMPDEST PUSH1 0x40 MLOAD DUP1 SWAP2 SUB SWAP1 LOG3 POP POP POP JUMP JUMPDEST PUSH2 0x16E1 DUP5 DUP5 DUP5 PUSH2 0xF89 JUMP JUMPDEST PUSH2 0x16ED DUP5 DUP5 DUP5 DUP5 PUSH2 0x179B JUMP JUMPDEST PUSH2 0x172C JUMPI PUSH1 0x40 MLOAD PUSH32 0x8C379A000000000000000000000000000000000000000000000000000000000 DUP2 MSTORE PUSH1 0x4 ADD PUSH2 0x1723 SWAP1 PUSH2 0x275D JUMP JUMPDEST PUSH1 0x40 MLOAD DUP1 SWAP2 SUB SWAP1 REVERT JUMPDEST POP POP POP POP JUMP JUMPDEST POP POP POP JUMP JUMPDEST POP POP POP JUMP JUMPDEST PUSH2 0x1748 DUP6 DUP6 DUP6 DUP6 PUSH2 0x1932 JUMP JUMPDEST PUSH2 0x1755 PUSH1 0x0 DUP7 DUP5 DUP5 PUSH2 0x179B JUMP JUMPDEST PUSH2 0x1794 JUMPI PUSH1 0x40 MLOAD PUSH32 0x8C379A000000000000000000000000000000000000000000000000000000000 DUP2 MSTORE PUSH1 0x4 ADD PUSH2 0x178B SWAP1 PUSH2 0x275D JUMP JUMPDEST PUSH1 0x40 MLOAD DUP1 SWAP2 SUB SWAP1 REVERT JUMPDEST POP POP POP POP POP JUMP JUMPDEST PUSH1 0x0 PUSH2 0x17BC DUP5 PUSH20 0xFFFFFFFFFFFFFFFFFFFFFFFFFFFFFFFFFFFFFFFF AND PUSH2 0x1B9E JUMP JUMPDEST ISZERO PUSH2 0x1925 JUMPI DUP4 PUSH20 0xFFFFFFFFFFFFFFFFFFFFFFFFFFFFFFFFFFFFFFFF AND PUSH4 0x150B7A02 PUSH2 0x17E5 PUSH2 0xE33 JUMP JUMPDEST DUP8 DUP7 DUP7 PUSH1 0x40 MLOAD DUP6 PUSH4 0xFFFFFFFF AND PUSH1 0xE0 SHL DUP2 MSTORE PUSH1 0x4 ADD PUSH2 0x1807 SWAP5 SWAP4 SWAP3 SWAP2 SWAP1 PUSH2 0x2670 JUMP JUMPDEST PUSH1 0x20 PUSH1 0x40 MLOAD DUP1 DUP4 SUB DUP2 PUSH1 0x0 DUP8 DUP1 EXTCODESIZE ISZERO DUP1 ISZERO PUSH2 0x1821 JUMPI PUSH1 0x0 DUP1 REVERT JUMPDEST POP GAS CALL SWAP3 POP POP POP DUP1 ISZERO PUSH2 0x1852 JUMPI POP PUSH1 0x40 MLOAD RETURNDATASIZE PUSH1 0x1F NOT PUSH1 0x1F DUP3 ADD AND DUP3 ADD DUP1 PUSH1 0x40 MSTORE POP DUP2 ADD SWAP1 PUSH2 0x184F SWAP2 SWAP1 PUSH2 0x221B JUMP JUMPDEST PUSH1 0x1 JUMPDEST PUSH2 0x18D5 JUMPI RETURNDATASIZE DUP1 PUSH1 0x0 DUP2 EQ PUSH2 0x1882 JUMPI PUSH1 0x40 MLOAD SWAP2 POP PUSH1 0x1F NOT PUSH1 0x3F RETURNDATASIZE ADD AND DUP3 ADD PUSH1 0x40 MSTORE RETURNDATASIZE DUP3 MSTORE RETURNDATASIZE PUSH1 0x0 PUSH1 0x20 DUP5 ADD RETURNDATACOPY PUSH2 0x1887 JUMP JUMPDEST PUSH1 0x60 SWAP2 POP JUMPDEST POP PUSH1 0x0 DUP2 MLOAD EQ ISZERO PUSH2 0x18CD JUMPI PUSH1 0x40 MLOAD PUSH32 0x8C379A000000000000000000000000000000000000000000000000000000000 DUP2 MSTORE PUSH1 0x4 ADD PUSH2 0x18C4 SWAP1 PUSH2 0x275D JUMP JUMPDEST PUSH1 0x40 MLOAD DUP1 SWAP2 SUB SWAP1 REVERT JUMPDEST DUP1 MLOAD DUP2 PUSH1 0x20 ADD REVERT JUMPDEST PUSH4 0x150B7A02 PUSH1 0xE0 SHL PUSH28 0xFFFFFFFFFFFFFFFFFFFFFFFFFFFFFFFFFFFFFFFFFFFFFFFFFFFFFFFF NOT AND DUP2 PUSH28 0xFFFFFFFFFFFFFFFFFFFFFFFFFFFFFFFFFFFFFFFFFFFFFFFFFFFFFFFF NOT AND EQ SWAP2 POP POP PUSH2 0x192A JUMP JUMPDEST PUSH1 0x1 SWAP1 POP JUMPDEST SWAP5 SWAP4 POP POP POP POP JUMP JUMPDEST PUSH1 0x0 PUSH20 0xFFFFFFFFFFFFFFFFFFFFFFFFFFFFFFFFFFFFFFFF AND DUP5 PUSH20 0xFFFFFFFFFFFFFFFFFFFFFFFFFFFFFFFFFFFFFFFF AND EQ ISZERO PUSH2 0x19A2 JUMPI PUSH1 0x40 MLOAD PUSH32 0x8C379A000000000000000000000000000000000000000000000000000000000 DUP2 MSTORE PUSH1 0x4 ADD PUSH2 0x1999 SWAP1 PUSH2 0x283D JUMP JUMPDEST PUSH1 0x40 MLOAD DUP1 SWAP2 SUB SWAP1 REVERT JUMPDEST PUSH2 0x19AB DUP2 PUSH2 0x1339 JUMP JUMPDEST ISZERO PUSH2 0x19EB JUMPI PUSH1 0x40 MLOAD PUSH32 0x8C379A000000000000000000000000000000000000000000000000000000000 DUP2 MSTORE PUSH1 0x4 ADD PUSH2 0x19E2 SWAP1 PUSH2 0x279D JUMP JUMPDEST PUSH1 0x40 MLOAD DUP1 SWAP2 SUB SWAP1 REVERT JUMPDEST PUSH2 0x19F7 PUSH1 0x0 DUP6 DUP4 PUSH2 0x1732 JUMP JUMPDEST PUSH2 0x1A00 DUP2 PUSH2 0x1339 JUMP JUMPDEST ISZERO PUSH2 0x1A40 JUMPI PUSH1 0x40 MLOAD PUSH32 0x8C379A000000000000000000000000000000000000000000000000000000000 DUP2 MSTORE PUSH1 0x4 ADD PUSH2 0x1A37 SWAP1 PUSH2 0x279D JUMP JUMPDEST PUSH1 0x40 MLOAD DUP1 SWAP2 SUB SWAP1 REVERT JUMPDEST PUSH1 0x1 PUSH1 0x6 PUSH1 0x0 DUP7 PUSH20 0xFFFFFFFFFFFFFFFFFFFFFFFFFFFFFFFFFFFFFFFF AND PUSH20 0xFFFFFFFFFFFFFFFFFFFFFFFFFFFFFFFFFFFFFFFF AND DUP2 MSTORE PUSH1 0x20 ADD SWAP1 DUP2 MSTORE PUSH1 0x20 ADD PUSH1 0x0 KECCAK256 PUSH1 0x0 DUP3 DUP3 SLOAD ADD SWAP3 POP POP DUP2 SWAP1 SSTORE POP DUP4 PUSH1 0x3 PUSH1 0x0 DUP4 DUP2 MSTORE PUSH1 0x20 ADD SWAP1 DUP2 MSTORE PUSH1 0x20 ADD PUSH1 0x0 KECCAK256 PUSH1 0x0 PUSH2 0x100 EXP DUP2 SLOAD DUP2 PUSH20 0xFFFFFFFFFFFFFFFFFFFFFFFFFFFFFFFFFFFFFFFF MUL NOT AND SWAP1 DUP4 PUSH20 0xFFFFFFFFFFFFFFFFFFFFFFFFFFFFFFFFFFFFFFFF AND MUL OR SWAP1 SSTORE POP DUP3 PUSH1 0x4 PUSH1 0x0 DUP4 DUP2 MSTORE PUSH1 0x20 ADD SWAP1 DUP2 MSTORE PUSH1 0x20 ADD PUSH1 0x0 KECCAK256 SWAP1 DUP1 MLOAD SWAP1 PUSH1 0x20 ADD SWAP1 PUSH2 0x1B07 SWAP3 SWAP2 SWAP1 PUSH2 0x1C47 JUMP JUMPDEST POP DUP2 PUSH1 0x5 PUSH1 0x0 DUP4 DUP2 MSTORE PUSH1 0x20 ADD SWAP1 DUP2 MSTORE PUSH1 0x20 ADD PUSH1 0x0 KECCAK256 SWAP1 DUP1 MLOAD SWAP1 PUSH1 0x20 ADD SWAP1 PUSH2 0x1B2F SWAP3 SWAP2 SWAP1 PUSH2 0x1CD1 JUMP JUMPDEST POP DUP1 DUP5 PUSH20 0xFFFFFFFFFFFFFFFFFFFFFFFFFFFFFFFFFFFFFFFF AND PUSH1 0x0 PUSH20 0xFFFFFFFFFFFFFFFFFFFFFFFFFFFFFFFFFFFFFFFF AND PUSH32 0xDDF252AD1BE2C89B69C2B068FC378DAA952BA7F163C4A11628F55A4DF523B3EF PUSH1 0x40 MLOAD PUSH1 0x40 MLOAD DUP1 SWAP2 SUB SWAP1 LOG4 PUSH2 0x1B98 PUSH1 0x0 DUP6 DUP4 PUSH2 0x1737 JUMP JUMPDEST POP POP POP POP JUMP JUMPDEST PUSH1 0x0 DUP1 DUP3 PUSH20 0xFFFFFFFFFFFFFFFFFFFFFFFFFFFFFFFFFFFFFFFF AND EXTCODESIZE GT SWAP1 POP SWAP2 SWAP1 POP JUMP JUMPDEST DUP3 DUP1 SLOAD PUSH2 0x1BCD SWAP1 PUSH2 0x2C1D JUMP JUMPDEST SWAP1 PUSH1 0x0 MSTORE PUSH1 0x20 PUSH1 0x0 KECCAK256 SWAP1 PUSH1 0x1F ADD PUSH1 0x20 SWAP1 DIV DUP2 ADD SWAP3 DUP3 PUSH2 0x1BEF JUMPI PUSH1 0x0 DUP6 SSTORE PUSH2 0x1C36 JUMP JUMPDEST DUP3 PUSH1 0x1F LT PUSH2 0x1C08 JUMPI DUP1 MLOAD PUSH1 0xFF NOT AND DUP4 DUP1 ADD OR DUP6 SSTORE PUSH2 0x1C36 JUMP JUMPDEST DUP3 DUP1 ADD PUSH1 0x1 ADD DUP6 SSTORE DUP3 ISZERO PUSH2 0x1C36 JUMPI SWAP2 DUP3 ADD JUMPDEST DUP3 DUP2 GT ISZERO PUSH2 0x1C35 JUMPI DUP3 MLOAD DUP3 SSTORE SWAP2 PUSH1 0x20 ADD SWAP2 SWAP1 PUSH1 0x1 ADD SWAP1 PUSH2 0x1C1A JUMP JUMPDEST JUMPDEST POP SWAP1 POP PUSH2 0x1C43 SWAP2 SWAP1 PUSH2 0x1D1E JUMP JUMPDEST POP SWAP1 JUMP JUMPDEST DUP3 DUP1 SLOAD DUP3 DUP3 SSTORE SWAP1 PUSH1 0x0 MSTORE PUSH1 0x20 PUSH1 0x0 KECCAK256 SWAP1 DUP2 ADD SWAP3 DUP3 ISZERO PUSH2 0x1CC0 JUMPI SWAP2 PUSH1 0x20 MUL DUP3 ADD JUMPDEST DUP3 DUP2 GT ISZERO PUSH2 0x1CBF JUMPI DUP3 MLOAD DUP3 PUSH1 0x0 PUSH2 0x100 EXP DUP2 SLOAD DUP2 PUSH20 0xFFFFFFFFFFFFFFFFFFFFFFFFFFFFFFFFFFFFFFFF MUL NOT AND SWAP1 DUP4 PUSH20 0xFFFFFFFFFFFFFFFFFFFFFFFFFFFFFFFFFFFFFFFF AND MUL OR SWAP1 SSTORE POP SWAP2 PUSH1 0x20 ADD SWAP2 SWAP1 PUSH1 0x1 ADD SWAP1 PUSH2 0x1C67 JUMP JUMPDEST JUMPDEST POP SWAP1 POP PUSH2 0x1CCD SWAP2 SWAP1 PUSH2 0x1D1E JUMP JUMPDEST POP SWAP1 JUMP JUMPDEST DUP3 DUP1 SLOAD DUP3 DUP3 SSTORE SWAP1 PUSH1 0x0 MSTORE PUSH1 0x20 PUSH1 0x0 KECCAK256 SWAP1 DUP2 ADD SWAP3 DUP3 ISZERO PUSH2 0x1D0D JUMPI SWAP2 PUSH1 0x20 MUL DUP3 ADD JUMPDEST DUP3 DUP2 GT ISZERO PUSH2 0x1D0C JUMPI DUP3 MLOAD DUP3 SSTORE SWAP2 PUSH1 0x20 ADD SWAP2 SWAP1 PUSH1 0x1 ADD SWAP1 PUSH2 0x1CF1 JUMP JUMPDEST JUMPDEST POP SWAP1 POP PUSH2 0x1D1A SWAP2 SWAP1 PUSH2 0x1D1E JUMP JUMPDEST POP SWAP1 JUMP JUMPDEST JUMPDEST DUP1 DUP3 GT ISZERO PUSH2 0x1D37 JUMPI PUSH1 0x0 DUP2 PUSH1 0x0 SWAP1 SSTORE POP PUSH1 0x1 ADD PUSH2 0x1D1F JUMP JUMPDEST POP SWAP1 JUMP JUMPDEST PUSH1 0x0 PUSH2 0x1D4E PUSH2 0x1D49 DUP5 PUSH2 0x293D JUMP JUMPDEST PUSH2 0x2918 JUMP JUMPDEST SWAP1 POP DUP1 DUP4 DUP3 MSTORE PUSH1 0x20 DUP3 ADD SWAP1 POP DUP3 DUP6 PUSH1 0x20 DUP7 MUL DUP3 ADD GT ISZERO PUSH2 0x1D6D JUMPI PUSH1 0x0 DUP1 REVERT JUMPDEST PUSH1 0x0 JUMPDEST DUP6 DUP2 LT ISZERO PUSH2 0x1D9D JUMPI DUP2 PUSH2 0x1D83 DUP9 DUP3 PUSH2 0x1E8F JUMP JUMPDEST DUP5 MSTORE PUSH1 0x20 DUP5 ADD SWAP4 POP PUSH1 0x20 DUP4 ADD SWAP3 POP POP PUSH1 0x1 DUP2 ADD SWAP1 POP PUSH2 0x1D70 JUMP JUMPDEST POP POP POP SWAP4 SWAP3 POP POP POP JUMP JUMPDEST PUSH1 0x0 PUSH2 0x1DBA PUSH2 0x1DB5 DUP5 PUSH2 0x2969 JUMP JUMPDEST PUSH2 0x2918 JUMP JUMPDEST SWAP1 POP DUP1 DUP4 DUP3 MSTORE PUSH1 0x20 DUP3 ADD SWAP1 POP DUP3 DUP6 PUSH1 0x20 DUP7 MUL DUP3 ADD GT ISZERO PUSH2 0x1DD9 JUMPI PUSH1 0x0 DUP1 REVERT JUMPDEST PUSH1 0x0 JUMPDEST DUP6 DUP2 LT ISZERO PUSH2 0x1E09 JUMPI DUP2 PUSH2 0x1DEF DUP9 DUP3 PUSH2 0x1F8B JUMP JUMPDEST DUP5 MSTORE PUSH1 0x20 DUP5 ADD SWAP4 POP PUSH1 0x20 DUP4 ADD SWAP3 POP POP PUSH1 0x1 DUP2 ADD SWAP1 POP PUSH2 0x1DDC JUMP JUMPDEST POP POP POP SWAP4 SWAP3 POP POP POP JUMP JUMPDEST PUSH1 0x0 PUSH2 0x1E26 PUSH2 0x1E21 DUP5 PUSH2 0x2995 JUMP JUMPDEST PUSH2 0x2918 JUMP JUMPDEST SWAP1 POP DUP3 DUP2 MSTORE PUSH1 0x20 DUP2 ADD DUP5 DUP5 DUP5 ADD GT ISZERO PUSH2 0x1E3E JUMPI PUSH1 0x0 DUP1 REVERT JUMPDEST PUSH2 0x1E49 DUP5 DUP3 DUP6 PUSH2 0x2BDB JUMP JUMPDEST POP SWAP4 SWAP3 POP POP POP JUMP JUMPDEST PUSH1 0x0 PUSH2 0x1E64 PUSH2 0x1E5F DUP5 PUSH2 0x29C6 JUMP JUMPDEST PUSH2 0x2918 JUMP JUMPDEST SWAP1 POP DUP3 DUP2 MSTORE PUSH1 0x20 DUP2 ADD DUP5 DUP5 DUP5 ADD GT ISZERO PUSH2 0x1E7C JUMPI PUSH1 0x0 DUP1 REVERT JUMPDEST PUSH2 0x1E87 DUP5 DUP3 DUP6 PUSH2 0x2BDB JUMP JUMPDEST POP SWAP4 SWAP3 POP POP POP JUMP JUMPDEST PUSH1 0x0 DUP2 CALLDATALOAD SWAP1 POP PUSH2 0x1E9E DUP2 PUSH2 0x3181 JUMP JUMPDEST SWAP3 SWAP2 POP POP JUMP JUMPDEST PUSH1 0x0 DUP3 PUSH1 0x1F DUP4 ADD SLT PUSH2 0x1EB5 JUMPI PUSH1 0x0 DUP1 REVERT JUMPDEST DUP2 CALLDATALOAD PUSH2 0x1EC5 DUP5 DUP3 PUSH1 0x20 DUP7 ADD PUSH2 0x1D3B JUMP JUMPDEST SWAP2 POP POP SWAP3 SWAP2 POP POP JUMP JUMPDEST PUSH1 0x0 DUP3 PUSH1 0x1F DUP4 ADD SLT PUSH2 0x1EDF JUMPI PUSH1 0x0 DUP1 REVERT JUMPDEST DUP2 CALLDATALOAD PUSH2 0x1EEF DUP5 DUP3 PUSH1 0x20 DUP7 ADD PUSH2 0x1DA7 JUMP JUMPDEST SWAP2 POP POP SWAP3 SWAP2 POP POP JUMP JUMPDEST PUSH1 0x0 DUP2 CALLDATALOAD SWAP1 POP PUSH2 0x1F07 DUP2 PUSH2 0x3198 JUMP JUMPDEST SWAP3 SWAP2 POP POP JUMP JUMPDEST PUSH1 0x0 DUP2 CALLDATALOAD SWAP1 POP PUSH2 0x1F1C DUP2 PUSH2 0x31AF JUMP JUMPDEST SWAP3 SWAP2 POP POP JUMP JUMPDEST PUSH1 0x0 DUP2 MLOAD SWAP1 POP PUSH2 0x1F31 DUP2 PUSH2 0x31AF JUMP JUMPDEST SWAP3 SWAP2 POP POP JUMP JUMPDEST PUSH1 0x0 DUP3 PUSH1 0x1F DUP4 ADD SLT PUSH2 0x1F48 JUMPI PUSH1 0x0 DUP1 REVERT JUMPDEST DUP2 CALLDATALOAD PUSH2 0x1F58 DUP5 DUP3 PUSH1 0x20 DUP7 ADD PUSH2 0x1E13 JUMP JUMPDEST SWAP2 POP POP SWAP3 SWAP2 POP POP JUMP JUMPDEST PUSH1 0x0 DUP3 PUSH1 0x1F DUP4 ADD SLT PUSH2 0x1F72 JUMPI PUSH1 0x0 DUP1 REVERT JUMPDEST DUP2 CALLDATALOAD PUSH2 0x1F82 DUP5 DUP3 PUSH1 0x20 DUP7 ADD PUSH2 0x1E51 JUMP JUMPDEST SWAP2 POP POP SWAP3 SWAP2 POP POP JUMP JUMPDEST PUSH1 0x0 DUP2 CALLDATALOAD SWAP1 POP PUSH2 0x1F9A DUP2 PUSH2 0x31C6 JUMP JUMPDEST SWAP3 SWAP2 POP POP JUMP JUMPDEST PUSH1 0x0 PUSH1 0x20 DUP3 DUP5 SUB SLT ISZERO PUSH2 0x1FB2 JUMPI PUSH1 0x0 DUP1 REVERT JUMPDEST PUSH1 0x0 PUSH2 0x1FC0 DUP5 DUP3 DUP6 ADD PUSH2 0x1E8F JUMP JUMPDEST SWAP2 POP POP SWAP3 SWAP2 POP POP JUMP JUMPDEST PUSH1 0x0 DUP1 PUSH1 0x40 DUP4 DUP6 SUB SLT ISZERO PUSH2 0x1FDC JUMPI PUSH1 0x0 DUP1 REVERT JUMPDEST PUSH1 0x0 PUSH2 0x1FEA DUP6 DUP3 DUP7 ADD PUSH2 0x1E8F JUMP JUMPDEST SWAP3 POP POP PUSH1 0x20 PUSH2 0x1FFB DUP6 DUP3 DUP7 ADD PUSH2 0x1E8F JUMP JUMPDEST SWAP2 POP POP SWAP3 POP SWAP3 SWAP1 POP JUMP JUMPDEST PUSH1 0x0 DUP1 PUSH1 0x0 PUSH1 0x60 DUP5 DUP7 SUB SLT ISZERO PUSH2 0x201A JUMPI PUSH1 0x0 DUP1 REVERT JUMPDEST PUSH1 0x0 PUSH2 0x2028 DUP7 DUP3 DUP8 ADD PUSH2 0x1E8F JUMP JUMPDEST SWAP4 POP POP PUSH1 0x20 PUSH2 0x2039 DUP7 DUP3 DUP8 ADD PUSH2 0x1E8F JUMP JUMPDEST SWAP3 POP POP PUSH1 0x40 PUSH2 0x204A DUP7 DUP3 DUP8 ADD PUSH2 0x1F8B JUMP JUMPDEST SWAP2 POP POP SWAP3 POP SWAP3 POP SWAP3 JUMP JUMPDEST PUSH1 0x0 DUP1 PUSH1 0x0 DUP1 PUSH1 0x80 DUP6 DUP8 SUB SLT ISZERO PUSH2 0x206A JUMPI PUSH1 0x0 DUP1 REVERT JUMPDEST PUSH1 0x0 PUSH2 0x2078 DUP8 DUP3 DUP9 ADD PUSH2 0x1E8F JUMP JUMPDEST SWAP5 POP POP PUSH1 0x20 PUSH2 0x2089 DUP8 DUP3 DUP9 ADD PUSH2 0x1E8F JUMP JUMPDEST SWAP4 POP POP PUSH1 0x40 PUSH2 0x209A DUP8 DUP3 DUP9 ADD PUSH2 0x1F8B JUMP JUMPDEST SWAP3 POP POP PUSH1 0x60 DUP6 ADD CALLDATALOAD PUSH8 0xFFFFFFFFFFFFFFFF DUP2 GT ISZERO PUSH2 0x20B7 JUMPI PUSH1 0x0 DUP1 REVERT JUMPDEST PUSH2 0x20C3 DUP8 DUP3 DUP9 ADD PUSH2 0x1F37 JUMP JUMPDEST SWAP2 POP POP SWAP3 SWAP6 SWAP2 SWAP5 POP SWAP3 POP JUMP JUMPDEST PUSH1 0x0 DUP1 PUSH1 0x0 DUP1 PUSH1 0x80 DUP6 DUP8 SUB SLT ISZERO PUSH2 0x20E5 JUMPI PUSH1 0x0 DUP1 REVERT JUMPDEST PUSH1 0x0 PUSH2 0x20F3 DUP8 DUP3 DUP9 ADD PUSH2 0x1E8F JUMP JUMPDEST SWAP5 POP POP PUSH1 0x20 DUP6 ADD CALLDATALOAD PUSH8 0xFFFFFFFFFFFFFFFF DUP2 GT ISZERO PUSH2 0x2110 JUMPI PUSH1 0x0 DUP1 REVERT JUMPDEST PUSH2 0x211C DUP8 DUP3 DUP9 ADD PUSH2 0x1EA4 JUMP JUMPDEST SWAP4 POP POP PUSH1 0x40 DUP6 ADD CALLDATALOAD PUSH8 0xFFFFFFFFFFFFFFFF DUP2 GT ISZERO PUSH2 0x2139 JUMPI PUSH1 0x0 DUP1 REVERT JUMPDEST PUSH2 0x2145 DUP8 DUP3 DUP9 ADD PUSH2 0x1ECE JUMP JUMPDEST SWAP3 POP POP PUSH1 0x60 DUP6 ADD CALLDATALOAD PUSH8 0xFFFFFFFFFFFFFFFF DUP2 GT ISZERO PUSH2 0x2162 JUMPI PUSH1 0x0 DUP1 REVERT JUMPDEST PUSH2 0x216E DUP8 DUP3 DUP9 ADD PUSH2 0x1F61 JUMP JUMPDEST SWAP2 POP POP SWAP3 SWAP6 SWAP2 SWAP5 POP SWAP3 POP JUMP JUMPDEST PUSH1 0x0 DUP1 PUSH1 0x40 DUP4 DUP6 SUB SLT ISZERO PUSH2 0x218D JUMPI PUSH1 0x0 DUP1 REVERT JUMPDEST PUSH1 0x0 PUSH2 0x219B DUP6 DUP3 DUP7 ADD PUSH2 0x1E8F JUMP JUMPDEST SWAP3 POP POP PUSH1 0x20 PUSH2 0x21AC DUP6 DUP3 DUP7 ADD PUSH2 0x1EF8 JUMP JUMPDEST SWAP2 POP POP SWAP3 POP SWAP3 SWAP1 POP JUMP JUMPDEST PUSH1 0x0 DUP1 PUSH1 0x40 DUP4 DUP6 SUB SLT ISZERO PUSH2 0x21C9 JUMPI PUSH1 0x0 DUP1 REVERT JUMPDEST PUSH1 0x0 PUSH2 0x21D7 DUP6 DUP3 DUP7 ADD PUSH2 0x1E8F JUMP JUMPDEST SWAP3 POP POP PUSH1 0x20 PUSH2 0x21E8 DUP6 DUP3 DUP7 ADD PUSH2 0x1F8B JUMP JUMPDEST SWAP2 POP POP SWAP3 POP SWAP3 SWAP1 POP JUMP JUMPDEST PUSH1 0x0 PUSH1 0x20 DUP3 DUP5 SUB SLT ISZERO PUSH2 0x2204 JUMPI PUSH1 0x0 DUP1 REVERT JUMPDEST PUSH1 0x0 PUSH2 0x2212 DUP5 DUP3 DUP6 ADD PUSH2 0x1F0D JUMP JUMPDEST SWAP2 POP POP SWAP3 SWAP2 POP POP JUMP JUMPDEST PUSH1 0x0 PUSH1 0x20 DUP3 DUP5 SUB SLT ISZERO PUSH2 0x222D JUMPI PUSH1 0x0 DUP1 REVERT JUMPDEST PUSH1 0x0 PUSH2 0x223B DUP5 DUP3 DUP6 ADD PUSH2 0x1F22 JUMP JUMPDEST SWAP2 POP POP SWAP3 SWAP2 POP POP JUMP JUMPDEST PUSH1 0x0 PUSH1 0x20 DUP3 DUP5 SUB SLT ISZERO PUSH2 0x2256 JUMPI PUSH1 0x0 DUP1 REVERT JUMPDEST PUSH1 0x0 PUSH2 0x2264 DUP5 DUP3 DUP6 ADD PUSH2 0x1F8B JUMP JUMPDEST SWAP2 POP POP SWAP3 SWAP2 POP POP JUMP JUMPDEST PUSH1 0x0 PUSH2 0x2279 DUP4 DUP4 PUSH2 0x229D JUMP JUMPDEST PUSH1 0x20 DUP4 ADD SWAP1 POP SWAP3 SWAP2 POP POP JUMP JUMPDEST PUSH1 0x0 PUSH2 0x2291 DUP4 DUP4 PUSH2 0x2613 JUMP JUMPDEST PUSH1 0x20 DUP4 ADD SWAP1 POP SWAP3 SWAP2 POP POP JUMP JUMPDEST PUSH2 0x22A6 DUP2 PUSH2 0x2B67 JUMP JUMPDEST DUP3 MSTORE POP POP JUMP JUMPDEST PUSH2 0x22B5 DUP2 PUSH2 0x2B67 JUMP JUMPDEST DUP3 MSTORE POP POP JUMP JUMPDEST PUSH1 0x0 PUSH2 0x22C6 DUP3 PUSH2 0x2A17 JUMP JUMPDEST PUSH2 0x22D0 DUP2 DUP6 PUSH2 0x2A5D JUMP JUMPDEST SWAP4 POP PUSH2 0x22DB DUP4 PUSH2 0x29F7 JUMP JUMPDEST DUP1 PUSH1 0x0 JUMPDEST DUP4 DUP2 LT ISZERO PUSH2 0x230C JUMPI DUP2 MLOAD PUSH2 0x22F3 DUP9 DUP3 PUSH2 0x226D JUMP JUMPDEST SWAP8 POP PUSH2 0x22FE DUP4 PUSH2 0x2A43 JUMP JUMPDEST SWAP3 POP POP PUSH1 0x1 DUP2 ADD SWAP1 POP PUSH2 0x22DF JUMP JUMPDEST POP DUP6 SWAP4 POP POP POP POP SWAP3 SWAP2 POP POP JUMP JUMPDEST PUSH1 0x0 PUSH2 0x2324 DUP3 PUSH2 0x2A22 JUMP JUMPDEST PUSH2 0x232E DUP2 DUP6 PUSH2 0x2A6E JUMP JUMPDEST SWAP4 POP PUSH2 0x2339 DUP4 PUSH2 0x2A07 JUMP JUMPDEST DUP1 PUSH1 0x0 JUMPDEST DUP4 DUP2 LT ISZERO PUSH2 0x236A JUMPI DUP2 MLOAD PUSH2 0x2351 DUP9 DUP3 PUSH2 0x2285 JUMP JUMPDEST SWAP8 POP PUSH2 0x235C DUP4 PUSH2 0x2A50 JUMP JUMPDEST SWAP3 POP POP PUSH1 0x1 DUP2 ADD SWAP1 POP PUSH2 0x233D JUMP JUMPDEST POP DUP6 SWAP4 POP POP POP POP SWAP3 SWAP2 POP POP JUMP JUMPDEST PUSH2 0x2380 DUP2 PUSH2 0x2B79 JUMP JUMPDEST DUP3 MSTORE POP POP JUMP JUMPDEST PUSH1 0x0 PUSH2 0x2391 DUP3 PUSH2 0x2A2D JUMP JUMPDEST PUSH2 0x239B DUP2 DUP6 PUSH2 0x2A7F JUMP JUMPDEST SWAP4 POP PUSH2 0x23AB DUP2 DUP6 PUSH1 0x20 DUP7 ADD PUSH2 0x2BEA JUMP JUMPDEST PUSH2 0x23B4 DUP2 PUSH2 0x2DB6 JUMP JUMPDEST DUP5 ADD SWAP2 POP POP SWAP3 SWAP2 POP POP JUMP JUMPDEST PUSH1 0x0 PUSH2 0x23CA DUP3 PUSH2 0x2A38 JUMP JUMPDEST PUSH2 0x23D4 DUP2 DUP6 PUSH2 0x2A90 JUMP JUMPDEST SWAP4 POP PUSH2 0x23E4 DUP2 DUP6 PUSH1 0x20 DUP7 ADD PUSH2 0x2BEA JUMP JUMPDEST PUSH2 0x23ED DUP2 PUSH2 0x2DB6 JUMP JUMPDEST DUP5 ADD SWAP2 POP POP SWAP3 SWAP2 POP POP JUMP JUMPDEST PUSH1 0x0 PUSH2 0x2403 DUP3 PUSH2 0x2A38 JUMP JUMPDEST PUSH2 0x240D DUP2 DUP6 PUSH2 0x2AA1 JUMP JUMPDEST SWAP4 POP PUSH2 0x241D DUP2 DUP6 PUSH1 0x20 DUP7 ADD PUSH2 0x2BEA JUMP JUMPDEST DUP1 DUP5 ADD SWAP2 POP POP SWAP3 SWAP2 POP POP JUMP JUMPDEST PUSH1 0x0 PUSH2 0x2436 PUSH1 0x2D DUP4 PUSH2 0x2A90 JUMP JUMPDEST SWAP2 POP PUSH2 0x2441 DUP3 PUSH2 0x2DC7 JUMP JUMPDEST PUSH1 0x40 DUP3 ADD SWAP1 POP SWAP2 SWAP1 POP JUMP JUMPDEST PUSH1 0x0 PUSH2 0x2459 PUSH1 0x32 DUP4 PUSH2 0x2A90 JUMP JUMPDEST SWAP2 POP PUSH2 0x2464 DUP3 PUSH2 0x2E16 JUMP JUMPDEST PUSH1 0x40 DUP3 ADD SWAP1 POP SWAP2 SWAP1 POP JUMP JUMPDEST PUSH1 0x0 PUSH2 0x247C PUSH1 0x25 DUP4 PUSH2 0x2A90 JUMP JUMPDEST SWAP2 POP PUSH2 0x2487 DUP3 PUSH2 0x2E65 JUMP JUMPDEST PUSH1 0x40 DUP3 ADD SWAP1 POP SWAP2 SWAP1 POP JUMP JUMPDEST PUSH1 0x0 PUSH2 0x249F PUSH1 0x1C DUP4 PUSH2 0x2A90 JUMP JUMPDEST SWAP2 POP PUSH2 0x24AA DUP3 PUSH2 0x2EB4 JUMP JUMPDEST PUSH1 0x20 DUP3 ADD SWAP1 POP SWAP2 SWAP1 POP JUMP JUMPDEST PUSH1 0x0 PUSH2 0x24C2 PUSH1 0x24 DUP4 PUSH2 0x2A90 JUMP JUMPDEST SWAP2 POP PUSH2 0x24CD DUP3 PUSH2 0x2EDD JUMP JUMPDEST PUSH1 0x40 DUP3 ADD SWAP1 POP SWAP2 SWAP1 POP JUMP JUMPDEST PUSH1 0x0 PUSH2 0x24E5 PUSH1 0x19 DUP4 PUSH2 0x2A90 JUMP JUMPDEST SWAP2 POP PUSH2 0x24F0 DUP3 PUSH2 0x2F2C JUMP JUMPDEST PUSH1 0x20 DUP3 ADD SWAP1 POP SWAP2 SWAP1 POP JUMP JUMPDEST PUSH1 0x0 PUSH2 0x2508 PUSH1 0x29 DUP4 PUSH2 0x2A90 JUMP JUMPDEST SWAP2 POP PUSH2 0x2513 DUP3 PUSH2 0x2F55 JUMP JUMPDEST PUSH1 0x40 DUP3 ADD SWAP1 POP SWAP2 SWAP1 POP JUMP JUMPDEST PUSH1 0x0 PUSH2 0x252B PUSH1 0x2E DUP4 PUSH2 0x2A90 JUMP JUMPDEST SWAP2 POP PUSH2 0x2536 DUP3 PUSH2 0x2FA4 JUMP JUMPDEST PUSH1 0x40 DUP3 ADD SWAP1 POP SWAP2 SWAP1 POP JUMP JUMPDEST PUSH1 0x0 PUSH2 0x254E PUSH1 0x20 DUP4 PUSH2 0x2A90 JUMP JUMPDEST SWAP2 POP PUSH2 0x2559 DUP3 PUSH2 0x2FF3 JUMP JUMPDEST PUSH1 0x20 DUP3 ADD SWAP1 POP SWAP2 SWAP1 POP JUMP JUMPDEST PUSH1 0x0 PUSH2 0x2571 PUSH1 0x31 DUP4 PUSH2 0x2A90 JUMP JUMPDEST SWAP2 POP PUSH2 0x257C DUP3 PUSH2 0x301C JUMP JUMPDEST PUSH1 0x40 DUP3 ADD SWAP1 POP SWAP2 SWAP1 POP JUMP JUMPDEST PUSH1 0x0 PUSH2 0x2594 PUSH1 0x2F DUP4 PUSH2 0x2A90 JUMP JUMPDEST SWAP2 POP PUSH2 0x259F DUP3 PUSH2 0x306B JUMP JUMPDEST PUSH1 0x40 DUP3 ADD SWAP1 POP SWAP2 SWAP1 POP JUMP JUMPDEST PUSH1 0x0 PUSH2 0x25B7 PUSH1 0x18 DUP4 PUSH2 0x2A90 JUMP JUMPDEST SWAP2 POP PUSH2 0x25C2 DUP3 PUSH2 0x30BA JUMP JUMPDEST PUSH1 0x20 DUP3 ADD SWAP1 POP SWAP2 SWAP1 POP JUMP JUMPDEST PUSH1 0x0 PUSH2 0x25DA PUSH1 0x21 DUP4 PUSH2 0x2A90 JUMP JUMPDEST SWAP2 POP PUSH2 0x25E5 DUP3 PUSH2 0x30E3 JUMP JUMPDEST PUSH1 0x40 DUP3 ADD SWAP1 POP SWAP2 SWAP1 POP JUMP JUMPDEST PUSH1 0x0 PUSH2 0x25FD PUSH1 0x3D DUP4 PUSH2 0x2A90 JUMP JUMPDEST SWAP2 POP PUSH2 0x2608 DUP3 PUSH2 0x3132 JUMP JUMPDEST PUSH1 0x40 DUP3 ADD SWAP1 POP SWAP2 SWAP1 POP JUMP JUMPDEST PUSH2 0x261C DUP2 PUSH2 0x2BD1 JUMP JUMPDEST DUP3 MSTORE POP POP JUMP JUMPDEST PUSH2 0x262B DUP2 PUSH2 0x2BD1 JUMP JUMPDEST DUP3 MSTORE POP POP JUMP JUMPDEST PUSH1 0x0 PUSH2 0x263D DUP3 DUP6 PUSH2 0x23F8 JUMP JUMPDEST SWAP2 POP PUSH2 0x2649 DUP3 DUP5 PUSH2 0x23F8 JUMP JUMPDEST SWAP2 POP DUP2 SWAP1 POP SWAP4 SWAP3 POP POP POP JUMP JUMPDEST PUSH1 0x0 PUSH1 0x20 DUP3 ADD SWAP1 POP PUSH2 0x266A PUSH1 0x0 DUP4 ADD DUP5 PUSH2 0x22AC JUMP JUMPDEST SWAP3 SWAP2 POP POP JUMP JUMPDEST PUSH1 0x0 PUSH1 0x80 DUP3 ADD SWAP1 POP PUSH2 0x2685 PUSH1 0x0 DUP4 ADD DUP8 PUSH2 0x22AC JUMP JUMPDEST PUSH2 0x2692 PUSH1 0x20 DUP4 ADD DUP7 PUSH2 0x22AC JUMP JUMPDEST PUSH2 0x269F PUSH1 0x40 DUP4 ADD DUP6 PUSH2 0x2622 JUMP JUMPDEST DUP2 DUP2 SUB PUSH1 0x60 DUP4 ADD MSTORE PUSH2 0x26B1 DUP2 DUP5 PUSH2 0x2386 JUMP JUMPDEST SWAP1 POP SWAP6 SWAP5 POP POP POP POP POP JUMP JUMPDEST PUSH1 0x0 PUSH1 0x20 DUP3 ADD SWAP1 POP DUP2 DUP2 SUB PUSH1 0x0 DUP4 ADD MSTORE PUSH2 0x26D6 DUP2 DUP5 PUSH2 0x22BB JUMP JUMPDEST SWAP1 POP SWAP3 SWAP2 POP POP JUMP JUMPDEST PUSH1 0x0 PUSH1 0x20 DUP3 ADD SWAP1 POP DUP2 DUP2 SUB PUSH1 0x0 DUP4 ADD MSTORE PUSH2 0x26F8 DUP2 DUP5 PUSH2 0x2319 JUMP JUMPDEST SWAP1 POP SWAP3 SWAP2 POP POP JUMP JUMPDEST PUSH1 0x0 PUSH1 0x20 DUP3 ADD SWAP1 POP PUSH2 0x2715 PUSH1 0x0 DUP4 ADD DUP5 PUSH2 0x2377 JUMP JUMPDEST SWAP3 SWAP2 POP POP JUMP JUMPDEST PUSH1 0x0 PUSH1 0x20 DUP3 ADD SWAP1 POP DUP2 DUP2 SUB PUSH1 0x0 DUP4 ADD MSTORE PUSH2 0x2735 DUP2 DUP5 PUSH2 0x23BF JUMP JUMPDEST SWAP1 POP SWAP3 SWAP2 POP POP JUMP JUMPDEST PUSH1 0x0 PUSH1 0x20 DUP3 ADD SWAP1 POP DUP2 DUP2 SUB PUSH1 0x0 DUP4 ADD MSTORE PUSH2 0x2756 DUP2 PUSH2 0x2429 JUMP JUMPDEST SWAP1 POP SWAP2 SWAP1 POP JUMP JUMPDEST PUSH1 0x0 PUSH1 0x20 DUP3 ADD SWAP1 POP DUP2 DUP2 SUB PUSH1 0x0 DUP4 ADD MSTORE PUSH2 0x2776 DUP2 PUSH2 0x244C JUMP JUMPDEST SWAP1 POP SWAP2 SWAP1 POP JUMP JUMPDEST PUSH1 0x0 PUSH1 0x20 DUP3 ADD SWAP1 POP DUP2 DUP2 SUB PUSH1 0x0 DUP4 ADD MSTORE PUSH2 0x2796 DUP2 PUSH2 0x246F JUMP JUMPDEST SWAP1 POP SWAP2 SWAP1 POP JUMP JUMPDEST PUSH1 0x0 PUSH1 0x20 DUP3 ADD SWAP1 POP DUP2 DUP2 SUB PUSH1 0x0 DUP4 ADD MSTORE PUSH2 0x27B6 DUP2 PUSH2 0x2492 JUMP JUMPDEST SWAP1 POP SWAP2 SWAP1 POP JUMP JUMPDEST PUSH1 0x0 PUSH1 0x20 DUP3 ADD SWAP1 POP DUP2 DUP2 SUB PUSH1 0x0 DUP4 ADD MSTORE PUSH2 0x27D6 DUP2 PUSH2 0x24B5 JUMP JUMPDEST SWAP1 POP SWAP2 SWAP1 POP JUMP JUMPDEST PUSH1 0x0 PUSH1 0x20 DUP3 ADD SWAP1 POP DUP2 DUP2 SUB PUSH1 0x0 DUP4 ADD MSTORE PUSH2 0x27F6 DUP2 PUSH2 0x24D8 JUMP JUMPDEST SWAP1 POP SWAP2 SWAP1 POP JUMP JUMPDEST PUSH1 0x0 PUSH1 0x20 DUP3 ADD SWAP1 POP DUP2 DUP2 SUB PUSH1 0x0 DUP4 ADD MSTORE PUSH2 0x2816 DUP2 PUSH2 0x24FB JUMP JUMPDEST SWAP1 POP SWAP2 SWAP1 POP JUMP JUMPDEST PUSH1 0x0 PUSH1 0x20 DUP3 ADD SWAP1 POP DUP2 DUP2 SUB PUSH1 0x0 DUP4 ADD MSTORE PUSH2 0x2836 DUP2 PUSH2 0x251E JUMP JUMPDEST SWAP1 POP SWAP2 SWAP1 POP JUMP JUMPDEST PUSH1 0x0 PUSH1 0x20 DUP3 ADD SWAP1 POP DUP2 DUP2 SUB PUSH1 0x0 DUP4 ADD MSTORE PUSH2 0x2856 DUP2 PUSH2 0x2541 JUMP JUMPDEST SWAP1 POP SWAP2 SWAP1 POP JUMP JUMPDEST PUSH1 0x0 PUSH1 0x20 DUP3 ADD SWAP1 POP DUP2 DUP2 SUB PUSH1 0x0 DUP4 ADD MSTORE PUSH2 0x2876 DUP2 PUSH2 0x2564 JUMP JUMPDEST SWAP1 POP SWAP2 SWAP1 POP JUMP JUMPDEST PUSH1 0x0 PUSH1 0x20 DUP3 ADD SWAP1 POP DUP2 DUP2 SUB PUSH1 0x0 DUP4 ADD MSTORE PUSH2 0x2896 DUP2 PUSH2 0x2587 JUMP JUMPDEST SWAP1 POP SWAP2 SWAP1 POP JUMP JUMPDEST PUSH1 0x0 PUSH1 0x20 DUP3 ADD SWAP1 POP DUP2 DUP2 SUB PUSH1 0x0 DUP4 ADD MSTORE PUSH2 0x28B6 DUP2 PUSH2 0x25AA JUMP JUMPDEST SWAP1 POP SWAP2 SWAP1 POP JUMP JUMPDEST PUSH1 0x0 PUSH1 0x20 DUP3 ADD SWAP1 POP DUP2 DUP2 SUB PUSH1 0x0 DUP4 ADD MSTORE PUSH2 0x28D6 DUP2 PUSH2 0x25CD JUMP JUMPDEST SWAP1 POP SWAP2 SWAP1 POP JUMP JUMPDEST PUSH1 0x0 PUSH1 0x20 DUP3 ADD SWAP1 POP DUP2 DUP2 SUB PUSH1 0x0 DUP4 ADD MSTORE PUSH2 0x28F6 DUP2 PUSH2 0x25F0 JUMP JUMPDEST SWAP1 POP SWAP2 SWAP1 POP JUMP JUMPDEST PUSH1 0x0 PUSH1 0x20 DUP3 ADD SWAP1 POP PUSH2 0x2912 PUSH1 0x0 DUP4 ADD DUP5 PUSH2 0x2622 JUMP JUMPDEST SWAP3 SWAP2 POP POP JUMP JUMPDEST PUSH1 0x0 PUSH2 0x2922 PUSH2 0x2933 JUMP JUMPDEST SWAP1 POP PUSH2 0x292E DUP3 DUP3 PUSH2 0x2C4F JUMP JUMPDEST SWAP2 SWAP1 POP JUMP JUMPDEST PUSH1 0x0 PUSH1 0x40 MLOAD SWAP1 POP SWAP1 JUMP JUMPDEST PUSH1 0x0 PUSH8 0xFFFFFFFFFFFFFFFF DUP3 GT ISZERO PUSH2 0x2958 JUMPI PUSH2 0x2957 PUSH2 0x2D87 JUMP JUMPDEST JUMPDEST PUSH1 0x20 DUP3 MUL SWAP1 POP PUSH1 0x20 DUP2 ADD SWAP1 POP SWAP2 SWAP1 POP JUMP JUMPDEST PUSH1 0x0 PUSH8 0xFFFFFFFFFFFFFFFF DUP3 GT ISZERO PUSH2 0x2984 JUMPI PUSH2 0x2983 PUSH2 0x2D87 JUMP JUMPDEST JUMPDEST PUSH1 0x20 DUP3 MUL SWAP1 POP PUSH1 0x20 DUP2 ADD SWAP1 POP SWAP2 SWAP1 POP JUMP JUMPDEST PUSH1 0x0 PUSH8 0xFFFFFFFFFFFFFFFF DUP3 GT ISZERO PUSH2 0x29B0 JUMPI PUSH2 0x29AF PUSH2 0x2D87 JUMP JUMPDEST JUMPDEST PUSH2 0x29B9 DUP3 PUSH2 0x2DB6 JUMP JUMPDEST SWAP1 POP PUSH1 0x20 DUP2 ADD SWAP1 POP SWAP2 SWAP1 POP JUMP JUMPDEST PUSH1 0x0 PUSH8 0xFFFFFFFFFFFFFFFF DUP3 GT ISZERO PUSH2 0x29E1 JUMPI PUSH2 0x29E0 PUSH2 0x2D87 JUMP JUMPDEST JUMPDEST PUSH2 0x29EA DUP3 PUSH2 0x2DB6 JUMP JUMPDEST SWAP1 POP PUSH1 0x20 DUP2 ADD SWAP1 POP SWAP2 SWAP1 POP JUMP JUMPDEST PUSH1 0x0 DUP2 SWAP1 POP PUSH1 0x20 DUP3 ADD SWAP1 POP SWAP2 SWAP1 POP JUMP JUMPDEST PUSH1 0x0 DUP2 SWAP1 POP PUSH1 0x20 DUP3 ADD SWAP1 POP SWAP2 SWAP1 POP JUMP JUMPDEST PUSH1 0x0 DUP2 MLOAD SWAP1 POP SWAP2 SWAP1 POP JUMP JUMPDEST PUSH1 0x0 DUP2 MLOAD SWAP1 POP SWAP2 SWAP1 POP JUMP JUMPDEST PUSH1 0x0 DUP2 MLOAD SWAP1 POP SWAP2 SWAP1 POP JUMP JUMPDEST PUSH1 0x0 DUP2 MLOAD SWAP1 POP SWAP2 SWAP1 POP JUMP JUMPDEST PUSH1 0x0 PUSH1 0x20 DUP3 ADD SWAP1 POP SWAP2 SWAP1 POP JUMP JUMPDEST PUSH1 0x0 PUSH1 0x20 DUP3 ADD SWAP1 POP SWAP2 SWAP1 POP JUMP JUMPDEST PUSH1 0x0 DUP3 DUP3 MSTORE PUSH1 0x20 DUP3 ADD SWAP1 POP SWAP3 SWAP2 POP POP JUMP JUMPDEST PUSH1 0x0 DUP3 DUP3 MSTORE PUSH1 0x20 DUP3 ADD SWAP1 POP SWAP3 SWAP2 POP POP JUMP JUMPDEST PUSH1 0x0 DUP3 DUP3 MSTORE PUSH1 0x20 DUP3 ADD SWAP1 POP SWAP3 SWAP2 POP POP JUMP JUMPDEST PUSH1 0x0 DUP3 DUP3 MSTORE PUSH1 0x20 DUP3 ADD SWAP1 POP SWAP3 SWAP2 POP POP JUMP JUMPDEST PUSH1 0x0 DUP2 SWAP1 POP SWAP3 SWAP2 POP POP JUMP JUMPDEST PUSH1 0x0 PUSH2 0x2AB7 DUP3 PUSH2 0x2BD1 JUMP JUMPDEST SWAP2 POP PUSH2 0x2AC2 DUP4 PUSH2 0x2BD1 JUMP JUMPDEST SWAP3 POP DUP3 PUSH32 0xFFFFFFFFFFFFFFFFFFFFFFFFFFFFFFFFFFFFFFFFFFFFFFFFFFFFFFFFFFFFFFFF SUB DUP3 GT ISZERO PUSH2 0x2AF7 JUMPI PUSH2 0x2AF6 PUSH2 0x2CFA JUMP JUMPDEST JUMPDEST DUP3 DUP3 ADD SWAP1 POP SWAP3 SWAP2 POP POP JUMP JUMPDEST PUSH1 0x0 PUSH2 0x2B0D DUP3 PUSH2 0x2BD1 JUMP JUMPDEST SWAP2 POP PUSH2 0x2B18 DUP4 PUSH2 0x2BD1 JUMP JUMPDEST SWAP3 POP DUP3 PUSH2 0x2B28 JUMPI PUSH2 0x2B27 PUSH2 0x2D29 JUMP JUMPDEST JUMPDEST DUP3 DUP3 DIV SWAP1 POP SWAP3 SWAP2 POP POP JUMP JUMPDEST PUSH1 0x0 PUSH2 0x2B3E DUP3 PUSH2 0x2BD1 JUMP JUMPDEST SWAP2 POP PUSH2 0x2B49 DUP4 PUSH2 0x2BD1 JUMP JUMPDEST SWAP3 POP DUP3 DUP3 LT ISZERO PUSH2 0x2B5C JUMPI PUSH2 0x2B5B PUSH2 0x2CFA JUMP JUMPDEST JUMPDEST DUP3 DUP3 SUB SWAP1 POP SWAP3 SWAP2 POP POP JUMP JUMPDEST PUSH1 0x0 PUSH2 0x2B72 DUP3 PUSH2 0x2BB1 JUMP JUMPDEST SWAP1 POP SWAP2 SWAP1 POP JUMP JUMPDEST PUSH1 0x0 DUP2 ISZERO ISZERO SWAP1 POP SWAP2 SWAP1 POP JUMP JUMPDEST PUSH1 0x0 PUSH32 0xFFFFFFFF00000000000000000000000000000000000000000000000000000000 DUP3 AND SWAP1 POP SWAP2 SWAP1 POP JUMP JUMPDEST PUSH1 0x0 PUSH20 0xFFFFFFFFFFFFFFFFFFFFFFFFFFFFFFFFFFFFFFFF DUP3 AND SWAP1 POP SWAP2 SWAP1 POP JUMP JUMPDEST PUSH1 0x0 DUP2 SWAP1 POP SWAP2 SWAP1 POP JUMP JUMPDEST DUP3 DUP2 DUP4 CALLDATACOPY PUSH1 0x0 DUP4 DUP4 ADD MSTORE POP POP POP JUMP JUMPDEST PUSH1 0x0 JUMPDEST DUP4 DUP2 LT ISZERO PUSH2 0x2C08 JUMPI DUP1 DUP3 ADD MLOAD DUP2 DUP5 ADD MSTORE PUSH1 0x20 DUP2 ADD SWAP1 POP PUSH2 0x2BED JUMP JUMPDEST DUP4 DUP2 GT ISZERO PUSH2 0x2C17 JUMPI PUSH1 0x0 DUP5 DUP5 ADD MSTORE JUMPDEST POP POP POP POP JUMP JUMPDEST PUSH1 0x0 PUSH1 0x2 DUP3 DIV SWAP1 POP PUSH1 0x1 DUP3 AND DUP1 PUSH2 0x2C35 JUMPI PUSH1 0x7F DUP3 AND SWAP2 POP JUMPDEST PUSH1 0x20 DUP3 LT DUP2 EQ ISZERO PUSH2 0x2C49 JUMPI PUSH2 0x2C48 PUSH2 0x2D58 JUMP JUMPDEST JUMPDEST POP SWAP2 SWAP1 POP JUMP JUMPDEST PUSH2 0x2C58 DUP3 PUSH2 0x2DB6 JUMP JUMPDEST DUP2 ADD DUP2 DUP2 LT PUSH8 0xFFFFFFFFFFFFFFFF DUP3 GT OR ISZERO PUSH2 0x2C77 JUMPI PUSH2 0x2C76 PUSH2 0x2D87 JUMP JUMPDEST JUMPDEST DUP1 PUSH1 0x40 MSTORE POP POP POP JUMP JUMPDEST PUSH1 0x0 PUSH2 0x2C8B DUP3 PUSH2 0x2BD1 JUMP JUMPDEST SWAP2 POP PUSH32 0xFFFFFFFFFFFFFFFFFFFFFFFFFFFFFFFFFFFFFFFFFFFFFFFFFFFFFFFFFFFFFFFF DUP3 EQ ISZERO PUSH2 0x2CBE JUMPI PUSH2 0x2CBD PUSH2 0x2CFA JUMP JUMPDEST JUMPDEST PUSH1 0x1 DUP3 ADD SWAP1 POP SWAP2 SWAP1 POP JUMP JUMPDEST PUSH1 0x0 PUSH2 0x2CD4 DUP3 PUSH2 0x2BD1 JUMP JUMPDEST SWAP2 POP PUSH2 0x2CDF DUP4 PUSH2 0x2BD1 JUMP JUMPDEST SWAP3 POP DUP3 PUSH2 0x2CEF JUMPI PUSH2 0x2CEE PUSH2 0x2D29 JUMP JUMPDEST JUMPDEST DUP3 DUP3 MOD SWAP1 POP SWAP3 SWAP2 POP POP JUMP JUMPDEST PUSH32 0x4E487B7100000000000000000000000000000000000000000000000000000000 PUSH1 0x0 MSTORE PUSH1 0x11 PUSH1 0x4 MSTORE PUSH1 0x24 PUSH1 0x0 REVERT JUMPDEST PUSH32 0x4E487B7100000000000000000000000000000000000000000000000000000000 PUSH1 0x0 MSTORE PUSH1 0x12 PUSH1 0x4 MSTORE PUSH1 0x24 PUSH1 0x0 REVERT JUMPDEST PUSH32 0x4E487B7100000000000000000000000000000000000000000000000000000000 PUSH1 0x0 MSTORE PUSH1 0x22 PUSH1 0x4 MSTORE PUSH1 0x24 PUSH1 0x0 REVERT JUMPDEST PUSH32 0x4E487B7100000000000000000000000000000000000000000000000000000000 PUSH1 0x0 MSTORE PUSH1 0x41 PUSH1 0x4 MSTORE PUSH1 0x24 PUSH1 0x0 REVERT JUMPDEST PUSH1 0x0 PUSH1 0x1F NOT PUSH1 0x1F DUP4 ADD AND SWAP1 POP SWAP2 SWAP1 POP JUMP JUMPDEST PUSH32 0x4552433732313A2063616C6C6572206973206E6F7420746F6B656E206F776E65 PUSH1 0x0 DUP3 ADD MSTORE PUSH32 0x72206F7220617070726F76656400000000000000000000000000000000000000 PUSH1 0x20 DUP3 ADD MSTORE POP JUMP JUMPDEST PUSH32 0x4552433732313A207472616E7366657220746F206E6F6E204552433732315265 PUSH1 0x0 DUP3 ADD MSTORE PUSH32 0x63656976657220696D706C656D656E7465720000000000000000000000000000 PUSH1 0x20 DUP3 ADD MSTORE POP JUMP JUMPDEST PUSH32 0x4552433732313A207472616E736665722066726F6D20696E636F727265637420 PUSH1 0x0 DUP3 ADD MSTORE PUSH32 0x6F776E6572000000000000000000000000000000000000000000000000000000 PUSH1 0x20 DUP3 ADD MSTORE POP JUMP JUMPDEST PUSH32 0x4552433732313A20746F6B656E20616C7265616479206D696E74656400000000 PUSH1 0x0 DUP3 ADD MSTORE POP JUMP JUMPDEST PUSH32 0x4552433732313A207472616E7366657220746F20746865207A65726F20616464 PUSH1 0x0 DUP3 ADD MSTORE PUSH32 0x7265737300000000000000000000000000000000000000000000000000000000 PUSH1 0x20 DUP3 ADD MSTORE POP JUMP JUMPDEST PUSH32 0x4552433732313A20617070726F766520746F2063616C6C657200000000000000 PUSH1 0x0 DUP3 ADD MSTORE POP JUMP JUMPDEST PUSH32 0x4552433732313A2061646472657373207A65726F206973206E6F742061207661 PUSH1 0x0 DUP3 ADD MSTORE PUSH32 0x6C6964206F776E65720000000000000000000000000000000000000000000000 PUSH1 0x20 DUP3 ADD MSTORE POP JUMP JUMPDEST PUSH32 0x45524337323155524953746F726167653A2055524920736574206F66206E6F6E PUSH1 0x0 DUP3 ADD MSTORE PUSH32 0x6578697374656E7420746F6B656E000000000000000000000000000000000000 PUSH1 0x20 DUP3 ADD MSTORE POP JUMP JUMPDEST PUSH32 0x4552433732313A206D696E7420746F20746865207A65726F2061646472657373 PUSH1 0x0 DUP3 ADD MSTORE POP JUMP JUMPDEST PUSH32 0x45524337323155524953746F726167653A2055524920717565727920666F7220 PUSH1 0x0 DUP3 ADD MSTORE PUSH32 0x6E6F6E6578697374656E7420746F6B656E000000000000000000000000000000 PUSH1 0x20 DUP3 ADD MSTORE POP JUMP JUMPDEST PUSH32 0x4552433732314D657461646174613A2055524920717565727920666F72206E6F PUSH1 0x0 DUP3 ADD MSTORE PUSH32 0x6E6578697374656E7420746F6B656E0000000000000000000000000000000000 PUSH1 0x20 DUP3 ADD MSTORE POP JUMP JUMPDEST PUSH32 0x4552433732313A20696E76616C696420746F6B656E2049440000000000000000 PUSH1 0x0 DUP3 ADD MSTORE POP JUMP JUMPDEST PUSH32 0x4552433732313A20617070726F76616C20746F2063757272656E74206F776E65 PUSH1 0x0 DUP3 ADD MSTORE PUSH32 0x7200000000000000000000000000000000000000000000000000000000000000 PUSH1 0x20 DUP3 ADD MSTORE POP JUMP JUMPDEST PUSH32 0x4552433732313A20617070726F76652063616C6C6572206973206E6F7420746F PUSH1 0x0 DUP3 ADD MSTORE PUSH32 0x6B656E206F776E6572206F7220617070726F76656420666F7220616C6C000000 PUSH1 0x20 DUP3 ADD MSTORE POP JUMP JUMPDEST PUSH2 0x318A DUP2 PUSH2 0x2B67 JUMP JUMPDEST DUP2 EQ PUSH2 0x3195 JUMPI PUSH1 0x0 DUP1 REVERT JUMPDEST POP JUMP JUMPDEST PUSH2 0x31A1 DUP2 PUSH2 0x2B79 JUMP JUMPDEST DUP2 EQ PUSH2 0x31AC JUMPI PUSH1 0x0 DUP1 REVERT JUMPDEST POP JUMP JUMPDEST PUSH2 0x31B8 DUP2 PUSH2 0x2B85 JUMP JUMPDEST DUP2 EQ PUSH2 0x31C3 JUMPI PUSH1 0x0 DUP1 REVERT JUMPDEST POP JUMP JUMPDEST PUSH2 0x31CF DUP2 PUSH2 0x2BD1 JUMP JUMPDEST DUP2 EQ PUSH2 0x31DA JUMPI PUSH1 0x0 DUP1 REVERT JUMPDEST POP JUMP INVALID LOG2 PUSH5 0x6970667358 0x22 SLT KECCAK256 PUSH11 0xE2A7B7A2F6EB6AB4F49F7C SWAP11 DUP9 SELFBALANCE PUSH10 0xEB62A924441B9C4CE7FA SSTORE 0xB6 LOG1 PUSH22 0xD41164736F6C63430008040033000000000000000000 "
				},
				"gasEstimates": {
					"creation": {
						"codeDepositCost": "2563800",
						"executionCost": "infinite",
						"totalCost": "infinite"
					},
					"external": {
						"_tokenURI(uint256)": "2074",
						"approve(address,uint256)": "infinite",
						"balanceOf(address)": "1602",
						"collaboratotOf(uint256)": "infinite",
						"collaboratotPercentageOf(uint256)": "infinite",
						"getApproved(uint256)": "2657",
						"getTokenCurrent()": "1252",
						"isApprovedForAll(address,address)": "infinite",
						"mint(address,address[],uint256[],string)": "infinite",
						"name()": "infinite",
						"ownerOf(uint256)": "1770",
						"safeTransferFrom(address,address,uint256)": "infinite",
						"safeTransferFrom(address,address,uint256,bytes)": "infinite",
						"setApprovalForAll(address,bool)": "infinite",
						"supportsInterface(bytes4)": "797",
						"symbol()": "infinite",
						"tokenURI(uint256)": "infinite",
						"transferFrom(address,address,uint256)": "infinite"
					},
					"internal": {
						"_afterTokenTransfer(address,address,uint256)": "15",
						"_approve(address,uint256)": "infinite",
						"_baseURI()": "infinite",
						"_beforeTokenTransfer(address,address,uint256)": "15",
						"_burn(uint256)": "infinite",
						"_checkOnERC721Received(address,address,uint256,bytes memory)": "infinite",
						"_exists(uint256)": "969",
						"_isApprovedOrOwner(address,uint256)": "infinite",
						"_mint(address,address[] memory,uint256[] memory,uint256)": "infinite",
						"_requireMinted(uint256)": "infinite",
						"_safeMint(address,address[] memory,uint256[] memory,uint256)": "infinite",
						"_safeMint(address,address[] memory,uint256[] memory,uint256,bytes memory)": "infinite",
						"_safeTransfer(address,address,uint256,bytes memory)": "infinite",
						"_setApprovalForAll(address,address,bool)": "infinite",
						"_setTokenURI(uint256,string memory)": "infinite",
						"_transfer(address,address,uint256)": "infinite"
					}
				},
				"methodIdentifiers": {
					"_tokenURI(uint256)": "8d17e712",
					"approve(address,uint256)": "095ea7b3",
					"balanceOf(address)": "70a08231",
					"collaboratotOf(uint256)": "52e04825",
					"collaboratotPercentageOf(uint256)": "ee48cda2",
					"getApproved(uint256)": "081812fc",
					"getTokenCurrent()": "dfd96b6a",
					"isApprovedForAll(address,address)": "e985e9c5",
					"mint(address,address[],uint256[],string)": "381568d8",
					"name()": "06fdde03",
					"ownerOf(uint256)": "6352211e",
					"safeTransferFrom(address,address,uint256)": "42842e0e",
					"safeTransferFrom(address,address,uint256,bytes)": "b88d4fde",
					"setApprovalForAll(address,bool)": "a22cb465",
					"supportsInterface(bytes4)": "01ffc9a7",
					"symbol()": "95d89b41",
					"tokenURI(uint256)": "c87b56dd",
					"transferFrom(address,address,uint256)": "23b872dd"
				}
			},
			"storageLayout": {
				"storage": [
					{
						"astId": 821,
						"contract": "contracts/nft.sol:nft",
						"label": "_tokenIds",
						"offset": 0,
						"slot": "0",
						"type": "t_struct(Counter)483_storage"
					},
					{
						"astId": 823,
						"contract": "contracts/nft.sol:nft",
						"label": "_name",
						"offset": 0,
						"slot": "1",
						"type": "t_string_storage"
					},
					{
						"astId": 825,
						"contract": "contracts/nft.sol:nft",
						"label": "_symbol",
						"offset": 0,
						"slot": "2",
						"type": "t_string_storage"
					},
					{
						"astId": 829,
						"contract": "contracts/nft.sol:nft",
						"label": "_owners",
						"offset": 0,
						"slot": "3",
						"type": "t_mapping(t_uint256,t_address)"
					},
					{
						"astId": 834,
						"contract": "contracts/nft.sol:nft",
						"label": "_collaborators",
						"offset": 0,
						"slot": "4",
						"type": "t_mapping(t_uint256,t_array(t_address)dyn_storage)"
					},
					{
						"astId": 839,
						"contract": "contracts/nft.sol:nft",
						"label": "_collaboratorsPercentage",
						"offset": 0,
						"slot": "5",
						"type": "t_mapping(t_uint256,t_array(t_uint256)dyn_storage)"
					},
					{
						"astId": 843,
						"contract": "contracts/nft.sol:nft",
						"label": "_balances",
						"offset": 0,
						"slot": "6",
						"type": "t_mapping(t_address,t_uint256)"
					},
					{
						"astId": 847,
						"contract": "contracts/nft.sol:nft",
						"label": "_tokenApprovals",
						"offset": 0,
						"slot": "7",
						"type": "t_mapping(t_uint256,t_address)"
					},
					{
						"astId": 853,
						"contract": "contracts/nft.sol:nft",
						"label": "_operatorApprovals",
						"offset": 0,
						"slot": "8",
						"type": "t_mapping(t_address,t_mapping(t_address,t_bool))"
					},
					{
						"astId": 857,
						"contract": "contracts/nft.sol:nft",
						"label": "_tokenURIs",
						"offset": 0,
						"slot": "9",
						"type": "t_mapping(t_uint256,t_string_storage)"
					}
				],
				"types": {
					"t_address": {
						"encoding": "inplace",
						"label": "address",
						"numberOfBytes": "20"
					},
					"t_array(t_address)dyn_storage": {
						"base": "t_address",
						"encoding": "dynamic_array",
						"label": "address[]",
						"numberOfBytes": "32"
					},
					"t_array(t_uint256)dyn_storage": {
						"base": "t_uint256",
						"encoding": "dynamic_array",
						"label": "uint256[]",
						"numberOfBytes": "32"
					},
					"t_bool": {
						"encoding": "inplace",
						"label": "bool",
						"numberOfBytes": "1"
					},
					"t_mapping(t_address,t_bool)": {
						"encoding": "mapping",
						"key": "t_address",
						"label": "mapping(address => bool)",
						"numberOfBytes": "32",
						"value": "t_bool"
					},
					"t_mapping(t_address,t_mapping(t_address,t_bool))": {
						"encoding": "mapping",
						"key": "t_address",
						"label": "mapping(address => mapping(address => bool))",
						"numberOfBytes": "32",
						"value": "t_mapping(t_address,t_bool)"
					},
					"t_mapping(t_address,t_uint256)": {
						"encoding": "mapping",
						"key": "t_address",
						"label": "mapping(address => uint256)",
						"numberOfBytes": "32",
						"value": "t_uint256"
					},
					"t_mapping(t_uint256,t_address)": {
						"encoding": "mapping",
						"key": "t_uint256",
						"label": "mapping(uint256 => address)",
						"numberOfBytes": "32",
						"value": "t_address"
					},
					"t_mapping(t_uint256,t_array(t_address)dyn_storage)": {
						"encoding": "mapping",
						"key": "t_uint256",
						"label": "mapping(uint256 => address[])",
						"numberOfBytes": "32",
						"value": "t_array(t_address)dyn_storage"
					},
					"t_mapping(t_uint256,t_array(t_uint256)dyn_storage)": {
						"encoding": "mapping",
						"key": "t_uint256",
						"label": "mapping(uint256 => uint256[])",
						"numberOfBytes": "32",
						"value": "t_array(t_uint256)dyn_storage"
					},
					"t_mapping(t_uint256,t_string_storage)": {
						"encoding": "mapping",
						"key": "t_uint256",
						"label": "mapping(uint256 => string)",
						"numberOfBytes": "32",
						"value": "t_string_storage"
					},
					"t_string_storage": {
						"encoding": "bytes",
						"label": "string",
						"numberOfBytes": "32"
					},
					"t_struct(Counter)483_storage": {
						"encoding": "inplace",
						"label": "struct Counters.Counter",
						"members": [
							{
								"astId": 482,
								"contract": "contracts/nft.sol:nft",
								"label": "_value",
								"offset": 0,
								"slot": "0",
								"type": "t_uint256"
							}
						],
						"numberOfBytes": "32"
					},
					"t_uint256": {
						"encoding": "inplace",
						"label": "uint256",
						"numberOfBytes": "32"
					}
				}
			},
			"userdoc": {
				"kind": "user",
				"methods": {},
				"version": 1
			}
		}
	}
}