{
	"contracts/nft.sol": {
		"nft": {
			"abi": [
				{
					"inputs": [
						{
							"internalType": "string",
							"name": "name_",
							"type": "string"
						},
						{
							"internalType": "string",
							"name": "symbol_",
							"type": "string"
						}
					],
					"stateMutability": "nonpayable",
					"type": "constructor"
				},
				{
					"anonymous": false,
					"inputs": [
						{
							"indexed": true,
							"internalType": "address",
							"name": "owner",
							"type": "address"
						},
						{
							"indexed": true,
							"internalType": "address",
							"name": "approved",
							"type": "address"
						},
						{
							"indexed": true,
							"internalType": "uint256",
							"name": "tokenId",
							"type": "uint256"
						}
					],
					"name": "Approval",
					"type": "event"
				},
				{
					"anonymous": false,
					"inputs": [
						{
							"indexed": true,
							"internalType": "address",
							"name": "owner",
							"type": "address"
						},
						{
							"indexed": true,
							"internalType": "address",
							"name": "operator",
							"type": "address"
						},
						{
							"indexed": false,
							"internalType": "bool",
							"name": "approved",
							"type": "bool"
						}
					],
					"name": "ApprovalForAll",
					"type": "event"
				},
				{
					"anonymous": false,
					"inputs": [
						{
							"indexed": true,
							"internalType": "address",
							"name": "from",
							"type": "address"
						},
						{
							"indexed": true,
							"internalType": "address",
							"name": "to",
							"type": "address"
						},
						{
							"indexed": true,
							"internalType": "uint256",
							"name": "tokenId",
							"type": "uint256"
						}
					],
					"name": "Transfer",
					"type": "event"
				},
				{
					"inputs": [
						{
							"internalType": "address",
							"name": "to",
							"type": "address"
						},
						{
							"internalType": "uint256",
							"name": "tokenId",
							"type": "uint256"
						}
					],
					"name": "approve",
					"outputs": [],
					"stateMutability": "nonpayable",
					"type": "function"
				},
				{
					"inputs": [
						{
							"internalType": "address",
							"name": "owner",
							"type": "address"
						}
					],
					"name": "balanceOf",
					"outputs": [
						{
							"internalType": "uint256",
							"name": "",
							"type": "uint256"
						}
					],
					"stateMutability": "view",
					"type": "function"
				},
				{
					"inputs": [
						{
							"internalType": "uint256",
							"name": "tokenId",
							"type": "uint256"
						}
					],
					"name": "collaboratotOf",
					"outputs": [
						{
							"internalType": "address[]",
							"name": "",
							"type": "address[]"
						}
					],
					"stateMutability": "view",
					"type": "function"
				},
				{
					"inputs": [
						{
							"internalType": "uint256",
							"name": "tokenId",
							"type": "uint256"
						}
					],
					"name": "collaboratotPercentageOf",
					"outputs": [
						{
							"internalType": "uint256[]",
							"name": "",
							"type": "uint256[]"
						}
					],
					"stateMutability": "view",
					"type": "function"
				},
				{
					"inputs": [
						{
							"internalType": "uint256",
							"name": "tokenId",
							"type": "uint256"
						}
					],
					"name": "getApproved",
					"outputs": [
						{
							"internalType": "address",
							"name": "",
							"type": "address"
						}
					],
					"stateMutability": "view",
					"type": "function"
				},
				{
					"inputs": [
						{
							"internalType": "address",
							"name": "owner",
							"type": "address"
						},
						{
							"internalType": "address",
							"name": "operator",
							"type": "address"
						}
					],
					"name": "isApprovedForAll",
					"outputs": [
						{
							"internalType": "bool",
							"name": "",
							"type": "bool"
						}
					],
					"stateMutability": "view",
					"type": "function"
				},
				{
					"inputs": [
						{
							"internalType": "address",
							"name": "to",
							"type": "address"
						},
						{
							"internalType": "address[]",
							"name": "collaborator",
							"type": "address[]"
						},
						{
							"internalType": "uint256[]",
							"name": "collaboratorPercent",
							"type": "uint256[]"
						},
						{
							"internalType": "string",
							"name": "uri",
							"type": "string"
						}
					],
					"name": "mint",
					"outputs": [
						{
							"internalType": "uint256",
							"name": "",
							"type": "uint256"
						}
					],
					"stateMutability": "nonpayable",
					"type": "function"
				},
				{
					"inputs": [],
					"name": "name",
					"outputs": [
						{
							"internalType": "string",
							"name": "",
							"type": "string"
						}
					],
					"stateMutability": "view",
					"type": "function"
				},
				{
					"inputs": [
						{
							"internalType": "uint256",
							"name": "tokenId",
							"type": "uint256"
						}
					],
					"name": "ownerOf",
					"outputs": [
						{
							"internalType": "address",
							"name": "",
							"type": "address"
						}
					],
					"stateMutability": "view",
					"type": "function"
				},
				{
					"inputs": [
						{
							"internalType": "address",
							"name": "from",
							"type": "address"
						},
						{
							"internalType": "address",
							"name": "to",
							"type": "address"
						},
						{
							"internalType": "uint256",
							"name": "tokenId",
							"type": "uint256"
						}
					],
					"name": "safeTransferFrom",
					"outputs": [],
					"stateMutability": "nonpayable",
					"type": "function"
				},
				{
					"inputs": [
						{
							"internalType": "address",
							"name": "from",
							"type": "address"
						},
						{
							"internalType": "address",
							"name": "to",
							"type": "address"
						},
						{
							"internalType": "uint256",
							"name": "tokenId",
							"type": "uint256"
						},
						{
							"internalType": "bytes",
							"name": "data",
							"type": "bytes"
						}
					],
					"name": "safeTransferFrom",
					"outputs": [],
					"stateMutability": "nonpayable",
					"type": "function"
				},
				{
					"inputs": [
						{
							"internalType": "address",
							"name": "operator",
							"type": "address"
						},
						{
							"internalType": "bool",
							"name": "approved",
							"type": "bool"
						}
					],
					"name": "setApprovalForAll",
					"outputs": [],
					"stateMutability": "nonpayable",
					"type": "function"
				},
				{
					"inputs": [
						{
							"internalType": "bytes4",
							"name": "interfaceId",
							"type": "bytes4"
						}
					],
					"name": "supportsInterface",
					"outputs": [
						{
							"internalType": "bool",
							"name": "",
							"type": "bool"
						}
					],
					"stateMutability": "view",
					"type": "function"
				},
				{
					"inputs": [],
					"name": "symbol",
					"outputs": [
						{
							"internalType": "string",
							"name": "",
							"type": "string"
						}
					],
					"stateMutability": "view",
					"type": "function"
				},
				{
					"inputs": [
						{
							"internalType": "uint256",
							"name": "tokenId",
							"type": "uint256"
						}
					],
					"name": "tokenURI",
					"outputs": [
						{
							"internalType": "string",
							"name": "",
							"type": "string"
						}
					],
					"stateMutability": "view",
					"type": "function"
				},
				{
					"inputs": [
						{
							"internalType": "address",
							"name": "from",
							"type": "address"
						},
						{
							"internalType": "address",
							"name": "to",
							"type": "address"
						},
						{
							"internalType": "uint256",
							"name": "tokenId",
							"type": "uint256"
						}
					],
					"name": "transferFrom",
					"outputs": [],
					"stateMutability": "nonpayable",
					"type": "function"
				}
			],
			"devdoc": {
				"kind": "dev",
				"methods": {
					"approve(address,uint256)": {
						"details": "Gives permission to `to` to transfer `tokenId` token to another account. The approval is cleared when the token is transferred. Only a single account can be approved at a time, so approving the zero address clears previous approvals. Requirements: - The caller must own the token or be an approved operator. - `tokenId` must exist. Emits an {Approval} event."
					},
					"balanceOf(address)": {
						"details": "Returns the number of tokens in ``owner``'s account."
					},
					"getApproved(uint256)": {
						"details": "Returns the account approved for `tokenId` token. Requirements: - `tokenId` must exist."
					},
					"isApprovedForAll(address,address)": {
						"details": "Returns if the `operator` is allowed to manage all of the assets of `owner`. See {setApprovalForAll}"
					},
					"name()": {
						"details": "Returns the token collection name."
					},
					"ownerOf(uint256)": {
						"details": "Returns the owner of the `tokenId` token. Requirements: - `tokenId` must exist."
					},
					"safeTransferFrom(address,address,uint256)": {
						"details": "Safely transfers `tokenId` token from `from` to `to`, checking first that contract recipients are aware of the ERC721 protocol to prevent tokens from being forever locked. Requirements: - `from` cannot be the zero address. - `to` cannot be the zero address. - `tokenId` token must exist and be owned by `from`. - If the caller is not `from`, it must be have been allowed to move this token by either {approve} or {setApprovalForAll}. - If `to` refers to a smart contract, it must implement {IERC721Receiver-onERC721Received}, which is called upon a safe transfer. Emits a {Transfer} event."
					},
					"safeTransferFrom(address,address,uint256,bytes)": {
						"details": "Safely transfers `tokenId` token from `from` to `to`. Requirements: - `from` cannot be the zero address. - `to` cannot be the zero address. - `tokenId` token must exist and be owned by `from`. - If the caller is not `from`, it must be approved to move this token by either {approve} or {setApprovalForAll}. - If `to` refers to a smart contract, it must implement {IERC721Receiver-onERC721Received}, which is called upon a safe transfer. Emits a {Transfer} event."
					},
					"symbol()": {
						"details": "Returns the token collection symbol."
					},
					"tokenURI(uint256)": {
						"details": "Returns the Uniform Resource Identifier (URI) for `tokenId` token."
					},
					"transferFrom(address,address,uint256)": {
						"details": "Transfers `tokenId` token from `from` to `to`. WARNING: Usage of this method is discouraged, use {safeTransferFrom} whenever possible. Requirements: - `from` cannot be the zero address. - `to` cannot be the zero address. - `tokenId` token must be owned by `from`. - If the caller is not `from`, it must be approved to move this token by either {approve} or {setApprovalForAll}. Emits a {Transfer} event."
					}
				},
				"version": 1
			},
			"evm": {
				"assembly": "    /* \"contracts/nft.sol\":677:10951  contract nft is Context, ERC165, IERC721, IERC721Metadata {\r... */\n  mstore(0x40, 0x80)\n    /* \"contracts/nft.sol\":1449:1565  constructor(string memory name_, string memory symbol_) {\r... */\n  callvalue\n  dup1\n  iszero\n  tag_1\n  jumpi\n  0x00\n  dup1\n  revert\ntag_1:\n  pop\n  mload(0x40)\n  sub(codesize, bytecodeSize)\n  dup1\n  bytecodeSize\n  dup4\n  codecopy\n  dup2\n  dup2\n  add\n  0x40\n  mstore\n  dup2\n  add\n  swap1\n  tag_2\n  swap2\n  swap1\n  tag_3\n  jump\t// in\ntag_2:\n    /* \"contracts/nft.sol\":1524:1529  name_ */\n  dup2\n    /* \"contracts/nft.sol\":1516:1521  _name */\n  0x01\n    /* \"contracts/nft.sol\":1516:1529  _name = name_ */\n  swap1\n  dup1\n  mload\n  swap1\n  0x20\n  add\n  swap1\n  tag_6\n  swap3\n  swap2\n  swap1\n  tag_7\n  jump\t// in\ntag_6:\n  pop\n    /* \"contracts/nft.sol\":1550:1557  symbol_ */\n  dup1\n    /* \"contracts/nft.sol\":1540:1547  _symbol */\n  0x02\n    /* \"contracts/nft.sol\":1540:1557  _symbol = symbol_ */\n  swap1\n  dup1\n  mload\n  swap1\n  0x20\n  add\n  swap1\n  tag_8\n  swap3\n  swap2\n  swap1\n  tag_7\n  jump\t// in\ntag_8:\n  pop\n    /* \"contracts/nft.sol\":1449:1565  constructor(string memory name_, string memory symbol_) {\r... */\n  pop\n  pop\n    /* \"contracts/nft.sol\":677:10951  contract nft is Context, ERC165, IERC721, IERC721Metadata {\r... */\n  jump(tag_9)\ntag_7:\n  dup3\n  dup1\n  sload\n  tag_10\n  swap1\n  tag_11\n  jump\t// in\ntag_10:\n  swap1\n  0x00\n  mstore\n  keccak256(0x00, 0x20)\n  swap1\n  0x1f\n  add\n  0x20\n  swap1\n  div\n  dup2\n  add\n  swap3\n  dup3\n  tag_13\n  jumpi\n  0x00\n  dup6\n  sstore\n  jump(tag_12)\ntag_13:\n  dup3\n  0x1f\n  lt\n  tag_14\n  jumpi\n  dup1\n  mload\n  not(0xff)\n  and\n  dup4\n  dup1\n  add\n  or\n  dup6\n  sstore\n  jump(tag_12)\ntag_14:\n  dup3\n  dup1\n  add\n  0x01\n  add\n  dup6\n  sstore\n  dup3\n  iszero\n  tag_12\n  jumpi\n  swap2\n  dup3\n  add\ntag_15:\n  dup3\n  dup2\n  gt\n  iszero\n  tag_16\n  jumpi\n  dup3\n  mload\n  dup3\n  sstore\n  swap2\n  0x20\n  add\n  swap2\n  swap1\n  0x01\n  add\n  swap1\n  jump(tag_15)\ntag_16:\ntag_12:\n  pop\n  swap1\n  pop\n  tag_17\n  swap2\n  swap1\n  tag_18\n  jump\t// in\ntag_17:\n  pop\n  swap1\n  jump\t// out\ntag_18:\ntag_19:\n  dup1\n  dup3\n  gt\n  iszero\n  tag_20\n  jumpi\n  0x00\n  dup2\n  0x00\n  swap1\n  sstore\n  pop\n  0x01\n  add\n  jump(tag_19)\ntag_20:\n  pop\n  swap1\n  jump\t// out\n    /* \"#utility.yul\":7:361   */\ntag_22:\n    /* \"#utility.yul\":96:101   */\n  0x00\n    /* \"#utility.yul\":121:187   */\n  tag_24\n    /* \"#utility.yul\":137:186   */\n  tag_25\n    /* \"#utility.yul\":179:185   */\n  dup5\n    /* \"#utility.yul\":137:186   */\n  tag_26\n  jump\t// in\ntag_25:\n    /* \"#utility.yul\":121:187   */\n  tag_27\n  jump\t// in\ntag_24:\n    /* \"#utility.yul\":112:187   */\n  swap1\n  pop\n    /* \"#utility.yul\":210:216   */\n  dup3\n    /* \"#utility.yul\":203:208   */\n  dup2\n    /* \"#utility.yul\":196:217   */\n  mstore\n    /* \"#utility.yul\":248:252   */\n  0x20\n    /* \"#utility.yul\":241:246   */\n  dup2\n    /* \"#utility.yul\":237:253   */\n  add\n    /* \"#utility.yul\":286:289   */\n  dup5\n    /* \"#utility.yul\":277:283   */\n  dup5\n    /* \"#utility.yul\":272:275   */\n  dup5\n    /* \"#utility.yul\":268:284   */\n  add\n    /* \"#utility.yul\":265:290   */\n  gt\n    /* \"#utility.yul\":262:264   */\n  iszero\n  tag_28\n  jumpi\n    /* \"#utility.yul\":303:304   */\n  0x00\n    /* \"#utility.yul\":300:301   */\n  dup1\n    /* \"#utility.yul\":293:305   */\n  revert\n    /* \"#utility.yul\":262:264   */\ntag_28:\n    /* \"#utility.yul\":316:355   */\n  tag_29\n    /* \"#utility.yul\":348:354   */\n  dup5\n    /* \"#utility.yul\":343:346   */\n  dup3\n    /* \"#utility.yul\":338:341   */\n  dup6\n    /* \"#utility.yul\":316:355   */\n  tag_30\n  jump\t// in\ntag_29:\n    /* \"#utility.yul\":102:361   */\n  pop\n  swap4\n  swap3\n  pop\n  pop\n  pop\n  jump\t// out\n    /* \"#utility.yul\":381:669   */\ntag_31:\n    /* \"#utility.yul\":448:453   */\n  0x00\n    /* \"#utility.yul\":497:500   */\n  dup3\n    /* \"#utility.yul\":490:494   */\n  0x1f\n    /* \"#utility.yul\":482:488   */\n  dup4\n    /* \"#utility.yul\":478:495   */\n  add\n    /* \"#utility.yul\":474:501   */\n  slt\n    /* \"#utility.yul\":464:466   */\n  tag_33\n  jumpi\n    /* \"#utility.yul\":515:516   */\n  0x00\n    /* \"#utility.yul\":512:513   */\n  dup1\n    /* \"#utility.yul\":505:517   */\n  revert\n    /* \"#utility.yul\":464:466   */\ntag_33:\n    /* \"#utility.yul\":548:554   */\n  dup2\n    /* \"#utility.yul\":542:555   */\n  mload\n    /* \"#utility.yul\":573:663   */\n  tag_34\n    /* \"#utility.yul\":659:662   */\n  dup5\n    /* \"#utility.yul\":651:657   */\n  dup3\n    /* \"#utility.yul\":644:648   */\n  0x20\n    /* \"#utility.yul\":636:642   */\n  dup7\n    /* \"#utility.yul\":632:649   */\n  add\n    /* \"#utility.yul\":573:663   */\n  tag_22\n  jump\t// in\ntag_34:\n    /* \"#utility.yul\":564:663   */\n  swap2\n  pop\n    /* \"#utility.yul\":454:669   */\n  pop\n  swap3\n  swap2\n  pop\n  pop\n  jump\t// out\n    /* \"#utility.yul\":675:1327   */\ntag_3:\n    /* \"#utility.yul\":774:780   */\n  0x00\n    /* \"#utility.yul\":782:788   */\n  dup1\n    /* \"#utility.yul\":831:833   */\n  0x40\n    /* \"#utility.yul\":819:828   */\n  dup4\n    /* \"#utility.yul\":810:817   */\n  dup6\n    /* \"#utility.yul\":806:829   */\n  sub\n    /* \"#utility.yul\":802:834   */\n  slt\n    /* \"#utility.yul\":799:801   */\n  iszero\n  tag_36\n  jumpi\n    /* \"#utility.yul\":847:848   */\n  0x00\n    /* \"#utility.yul\":844:845   */\n  dup1\n    /* \"#utility.yul\":837:849   */\n  revert\n    /* \"#utility.yul\":799:801   */\ntag_36:\n    /* \"#utility.yul\":911:912   */\n  0x00\n    /* \"#utility.yul\":900:909   */\n  dup4\n    /* \"#utility.yul\":896:913   */\n  add\n    /* \"#utility.yul\":890:914   */\n  mload\n    /* \"#utility.yul\":941:959   */\n  0xffffffffffffffff\n    /* \"#utility.yul\":933:939   */\n  dup2\n    /* \"#utility.yul\":930:960   */\n  gt\n    /* \"#utility.yul\":927:929   */\n  iszero\n  tag_37\n  jumpi\n    /* \"#utility.yul\":973:974   */\n  0x00\n    /* \"#utility.yul\":970:971   */\n  dup1\n    /* \"#utility.yul\":963:975   */\n  revert\n    /* \"#utility.yul\":927:929   */\ntag_37:\n    /* \"#utility.yul\":1001:1075   */\n  tag_38\n    /* \"#utility.yul\":1067:1074   */\n  dup6\n    /* \"#utility.yul\":1058:1064   */\n  dup3\n    /* \"#utility.yul\":1047:1056   */\n  dup7\n    /* \"#utility.yul\":1043:1065   */\n  add\n    /* \"#utility.yul\":1001:1075   */\n  tag_31\n  jump\t// in\ntag_38:\n    /* \"#utility.yul\":991:1075   */\n  swap3\n  pop\n    /* \"#utility.yul\":861:1085   */\n  pop\n    /* \"#utility.yul\":1145:1147   */\n  0x20\n    /* \"#utility.yul\":1134:1143   */\n  dup4\n    /* \"#utility.yul\":1130:1148   */\n  add\n    /* \"#utility.yul\":1124:1149   */\n  mload\n    /* \"#utility.yul\":1176:1194   */\n  0xffffffffffffffff\n    /* \"#utility.yul\":1168:1174   */\n  dup2\n    /* \"#utility.yul\":1165:1195   */\n  gt\n    /* \"#utility.yul\":1162:1164   */\n  iszero\n  tag_39\n  jumpi\n    /* \"#utility.yul\":1208:1209   */\n  0x00\n    /* \"#utility.yul\":1205:1206   */\n  dup1\n    /* \"#utility.yul\":1198:1210   */\n  revert\n    /* \"#utility.yul\":1162:1164   */\ntag_39:\n    /* \"#utility.yul\":1236:1310   */\n  tag_40\n    /* \"#utility.yul\":1302:1309   */\n  dup6\n    /* \"#utility.yul\":1293:1299   */\n  dup3\n    /* \"#utility.yul\":1282:1291   */\n  dup7\n    /* \"#utility.yul\":1278:1300   */\n  add\n    /* \"#utility.yul\":1236:1310   */\n  tag_31\n  jump\t// in\ntag_40:\n    /* \"#utility.yul\":1226:1310   */\n  swap2\n  pop\n    /* \"#utility.yul\":1095:1320   */\n  pop\n    /* \"#utility.yul\":789:1327   */\n  swap3\n  pop\n  swap3\n  swap1\n  pop\n  jump\t// out\n    /* \"#utility.yul\":1333:1462   */\ntag_27:\n    /* \"#utility.yul\":1367:1373   */\n  0x00\n    /* \"#utility.yul\":1394:1414   */\n  tag_42\n  tag_43\n  jump\t// in\ntag_42:\n    /* \"#utility.yul\":1384:1414   */\n  swap1\n  pop\n    /* \"#utility.yul\":1423:1456   */\n  tag_44\n    /* \"#utility.yul\":1451:1455   */\n  dup3\n    /* \"#utility.yul\":1443:1449   */\n  dup3\n    /* \"#utility.yul\":1423:1456   */\n  tag_45\n  jump\t// in\ntag_44:\n    /* \"#utility.yul\":1374:1462   */\n  swap2\n  swap1\n  pop\n  jump\t// out\n    /* \"#utility.yul\":1468:1543   */\ntag_43:\n    /* \"#utility.yul\":1501:1507   */\n  0x00\n    /* \"#utility.yul\":1534:1536   */\n  0x40\n    /* \"#utility.yul\":1528:1537   */\n  mload\n    /* \"#utility.yul\":1518:1537   */\n  swap1\n  pop\n    /* \"#utility.yul\":1508:1543   */\n  swap1\n  jump\t// out\n    /* \"#utility.yul\":1549:1857   */\ntag_26:\n    /* \"#utility.yul\":1611:1615   */\n  0x00\n    /* \"#utility.yul\":1701:1719   */\n  0xffffffffffffffff\n    /* \"#utility.yul\":1693:1699   */\n  dup3\n    /* \"#utility.yul\":1690:1720   */\n  gt\n    /* \"#utility.yul\":1687:1689   */\n  iszero\n  tag_48\n  jumpi\n    /* \"#utility.yul\":1723:1741   */\n  tag_49\n  tag_50\n  jump\t// in\ntag_49:\n    /* \"#utility.yul\":1687:1689   */\ntag_48:\n    /* \"#utility.yul\":1761:1790   */\n  tag_51\n    /* \"#utility.yul\":1783:1789   */\n  dup3\n    /* \"#utility.yul\":1761:1790   */\n  tag_52\n  jump\t// in\ntag_51:\n    /* \"#utility.yul\":1753:1790   */\n  swap1\n  pop\n    /* \"#utility.yul\":1845:1849   */\n  0x20\n    /* \"#utility.yul\":1839:1843   */\n  dup2\n    /* \"#utility.yul\":1835:1850   */\n  add\n    /* \"#utility.yul\":1827:1850   */\n  swap1\n  pop\n    /* \"#utility.yul\":1616:1857   */\n  swap2\n  swap1\n  pop\n  jump\t// out\n    /* \"#utility.yul\":1863:2170   */\ntag_30:\n    /* \"#utility.yul\":1931:1932   */\n  0x00\n    /* \"#utility.yul\":1941:2054   */\ntag_54:\n    /* \"#utility.yul\":1955:1961   */\n  dup4\n    /* \"#utility.yul\":1952:1953   */\n  dup2\n    /* \"#utility.yul\":1949:1962   */\n  lt\n    /* \"#utility.yul\":1941:2054   */\n  iszero\n  tag_56\n  jumpi\n    /* \"#utility.yul\":2040:2041   */\n  dup1\n    /* \"#utility.yul\":2035:2038   */\n  dup3\n    /* \"#utility.yul\":2031:2042   */\n  add\n    /* \"#utility.yul\":2025:2043   */\n  mload\n    /* \"#utility.yul\":2021:2022   */\n  dup2\n    /* \"#utility.yul\":2016:2019   */\n  dup5\n    /* \"#utility.yul\":2012:2023   */\n  add\n    /* \"#utility.yul\":2005:2044   */\n  mstore\n    /* \"#utility.yul\":1977:1979   */\n  0x20\n    /* \"#utility.yul\":1974:1975   */\n  dup2\n    /* \"#utility.yul\":1970:1980   */\n  add\n    /* \"#utility.yul\":1965:1980   */\n  swap1\n  pop\n    /* \"#utility.yul\":1941:2054   */\n  jump(tag_54)\ntag_56:\n    /* \"#utility.yul\":2072:2078   */\n  dup4\n    /* \"#utility.yul\":2069:2070   */\n  dup2\n    /* \"#utility.yul\":2066:2079   */\n  gt\n    /* \"#utility.yul\":2063:2065   */\n  iszero\n  tag_57\n  jumpi\n    /* \"#utility.yul\":2152:2153   */\n  0x00\n    /* \"#utility.yul\":2143:2149   */\n  dup5\n    /* \"#utility.yul\":2138:2141   */\n  dup5\n    /* \"#utility.yul\":2134:2150   */\n  add\n    /* \"#utility.yul\":2127:2154   */\n  mstore\n    /* \"#utility.yul\":2063:2065   */\ntag_57:\n    /* \"#utility.yul\":1912:2170   */\n  pop\n  pop\n  pop\n  pop\n  jump\t// out\n    /* \"#utility.yul\":2176:2496   */\ntag_11:\n    /* \"#utility.yul\":2220:2226   */\n  0x00\n    /* \"#utility.yul\":2257:2258   */\n  0x02\n    /* \"#utility.yul\":2251:2255   */\n  dup3\n    /* \"#utility.yul\":2247:2259   */\n  div\n    /* \"#utility.yul\":2237:2259   */\n  swap1\n  pop\n    /* \"#utility.yul\":2304:2305   */\n  0x01\n    /* \"#utility.yul\":2298:2302   */\n  dup3\n    /* \"#utility.yul\":2294:2306   */\n  and\n    /* \"#utility.yul\":2325:2343   */\n  dup1\n    /* \"#utility.yul\":2315:2317   */\n  tag_59\n  jumpi\n    /* \"#utility.yul\":2381:2385   */\n  0x7f\n    /* \"#utility.yul\":2373:2379   */\n  dup3\n    /* \"#utility.yul\":2369:2386   */\n  and\n    /* \"#utility.yul\":2359:2386   */\n  swap2\n  pop\n    /* \"#utility.yul\":2315:2317   */\ntag_59:\n    /* \"#utility.yul\":2443:2445   */\n  0x20\n    /* \"#utility.yul\":2435:2441   */\n  dup3\n    /* \"#utility.yul\":2432:2446   */\n  lt\n    /* \"#utility.yul\":2412:2430   */\n  dup2\n    /* \"#utility.yul\":2409:2447   */\n  eq\n    /* \"#utility.yul\":2406:2408   */\n  iszero\n  tag_60\n  jumpi\n    /* \"#utility.yul\":2462:2480   */\n  tag_61\n  tag_62\n  jump\t// in\ntag_61:\n    /* \"#utility.yul\":2406:2408   */\ntag_60:\n    /* \"#utility.yul\":2227:2496   */\n  pop\n  swap2\n  swap1\n  pop\n  jump\t// out\n    /* \"#utility.yul\":2502:2783   */\ntag_45:\n    /* \"#utility.yul\":2585:2612   */\n  tag_64\n    /* \"#utility.yul\":2607:2611   */\n  dup3\n    /* \"#utility.yul\":2585:2612   */\n  tag_52\n  jump\t// in\ntag_64:\n    /* \"#utility.yul\":2577:2583   */\n  dup2\n    /* \"#utility.yul\":2573:2613   */\n  add\n    /* \"#utility.yul\":2715:2721   */\n  dup2\n    /* \"#utility.yul\":2703:2713   */\n  dup2\n    /* \"#utility.yul\":2700:2722   */\n  lt\n    /* \"#utility.yul\":2679:2697   */\n  0xffffffffffffffff\n    /* \"#utility.yul\":2667:2677   */\n  dup3\n    /* \"#utility.yul\":2664:2698   */\n  gt\n    /* \"#utility.yul\":2661:2723   */\n  or\n    /* \"#utility.yul\":2658:2660   */\n  iszero\n  tag_65\n  jumpi\n    /* \"#utility.yul\":2726:2744   */\n  tag_66\n  tag_50\n  jump\t// in\ntag_66:\n    /* \"#utility.yul\":2658:2660   */\ntag_65:\n    /* \"#utility.yul\":2766:2776   */\n  dup1\n    /* \"#utility.yul\":2762:2764   */\n  0x40\n    /* \"#utility.yul\":2755:2777   */\n  mstore\n    /* \"#utility.yul\":2545:2783   */\n  pop\n  pop\n  pop\n  jump\t// out\n    /* \"#utility.yul\":2789:2969   */\ntag_62:\n    /* \"#utility.yul\":2837:2914   */\n  0x4e487b7100000000000000000000000000000000000000000000000000000000\n    /* \"#utility.yul\":2834:2835   */\n  0x00\n    /* \"#utility.yul\":2827:2915   */\n  mstore\n    /* \"#utility.yul\":2934:2938   */\n  0x22\n    /* \"#utility.yul\":2931:2932   */\n  0x04\n    /* \"#utility.yul\":2924:2939   */\n  mstore\n    /* \"#utility.yul\":2958:2962   */\n  0x24\n    /* \"#utility.yul\":2955:2956   */\n  0x00\n    /* \"#utility.yul\":2948:2963   */\n  revert\n    /* \"#utility.yul\":2975:3155   */\ntag_50:\n    /* \"#utility.yul\":3023:3100   */\n  0x4e487b7100000000000000000000000000000000000000000000000000000000\n    /* \"#utility.yul\":3020:3021   */\n  0x00\n    /* \"#utility.yul\":3013:3101   */\n  mstore\n    /* \"#utility.yul\":3120:3124   */\n  0x41\n    /* \"#utility.yul\":3117:3118   */\n  0x04\n    /* \"#utility.yul\":3110:3125   */\n  mstore\n    /* \"#utility.yul\":3144:3148   */\n  0x24\n    /* \"#utility.yul\":3141:3142   */\n  0x00\n    /* \"#utility.yul\":3134:3149   */\n  revert\n    /* \"#utility.yul\":3161:3263   */\ntag_52:\n    /* \"#utility.yul\":3202:3208   */\n  0x00\n    /* \"#utility.yul\":3253:3255   */\n  0x1f\n    /* \"#utility.yul\":3249:3256   */\n  not\n    /* \"#utility.yul\":3244:3246   */\n  0x1f\n    /* \"#utility.yul\":3237:3242   */\n  dup4\n    /* \"#utility.yul\":3233:3247   */\n  add\n    /* \"#utility.yul\":3229:3257   */\n  and\n    /* \"#utility.yul\":3219:3257   */\n  swap1\n  pop\n    /* \"#utility.yul\":3209:3263   */\n  swap2\n  swap1\n  pop\n  jump\t// out\n    /* \"contracts/nft.sol\":677:10951  contract nft is Context, ERC165, IERC721, IERC721Metadata {\r... */\ntag_9:\n  dataSize(sub_0)\n  dup1\n  dataOffset(sub_0)\n  0x00\n  codecopy\n  0x00\n  return\nstop\n\nsub_0: assembly {\n        /* \"contracts/nft.sol\":677:10951  contract nft is Context, ERC165, IERC721, IERC721Metadata {\r... */\n      mstore(0x40, 0x80)\n      callvalue\n      dup1\n      iszero\n      tag_1\n      jumpi\n      0x00\n      dup1\n      revert\n    tag_1:\n      pop\n      jumpi(tag_2, lt(calldatasize, 0x04))\n      shr(0xe0, calldataload(0x00))\n      dup1\n      0x6352211e\n      gt\n      tag_19\n      jumpi\n      dup1\n      0xb88d4fde\n      gt\n      tag_20\n      jumpi\n      dup1\n      0xb88d4fde\n      eq\n      tag_15\n      jumpi\n      dup1\n      0xc87b56dd\n      eq\n      tag_16\n      jumpi\n      dup1\n      0xe985e9c5\n      eq\n      tag_17\n      jumpi\n      dup1\n      0xee48cda2\n      eq\n      tag_18\n      jumpi\n      jump(tag_2)\n    tag_20:\n      dup1\n      0x6352211e\n      eq\n      tag_11\n      jumpi\n      dup1\n      0x70a08231\n      eq\n      tag_12\n      jumpi\n      dup1\n      0x95d89b41\n      eq\n      tag_13\n      jumpi\n      dup1\n      0xa22cb465\n      eq\n      tag_14\n      jumpi\n      jump(tag_2)\n    tag_19:\n      dup1\n      0x23b872dd\n      gt\n      tag_21\n      jumpi\n      dup1\n      0x23b872dd\n      eq\n      tag_7\n      jumpi\n      dup1\n      0x381568d8\n      eq\n      tag_8\n      jumpi\n      dup1\n      0x42842e0e\n      eq\n      tag_9\n      jumpi\n      dup1\n      0x52e04825\n      eq\n      tag_10\n      jumpi\n      jump(tag_2)\n    tag_21:\n      dup1\n      0x01ffc9a7\n      eq\n      tag_3\n      jumpi\n      dup1\n      0x06fdde03\n      eq\n      tag_4\n      jumpi\n      dup1\n      0x081812fc\n      eq\n      tag_5\n      jumpi\n      dup1\n      0x095ea7b3\n      eq\n      tag_6\n      jumpi\n    tag_2:\n      0x00\n      dup1\n      revert\n        /* \"contracts/nft.sol\":1581:1886  function supportsInterface(bytes4 interfaceId) public view virtual override(ERC165, IERC165) returns (bool) {\r... */\n    tag_3:\n      tag_22\n      0x04\n      dup1\n      calldatasize\n      sub\n      dup2\n      add\n      swap1\n      tag_23\n      swap2\n      swap1\n      tag_24\n      jump\t// in\n    tag_23:\n      tag_25\n      jump\t// in\n    tag_22:\n      mload(0x40)\n      tag_26\n      swap2\n      swap1\n      tag_27\n      jump\t// in\n    tag_26:\n      mload(0x40)\n      dup1\n      swap2\n      sub\n      swap1\n      return\n        /* \"contracts/nft.sol\":2784:2884  function name() public view virtual override returns (string memory) {\r... */\n    tag_4:\n      tag_28\n      tag_29\n      jump\t// in\n    tag_28:\n      mload(0x40)\n      tag_30\n      swap2\n      swap1\n      tag_31\n      jump\t// in\n    tag_30:\n      mload(0x40)\n      dup1\n      swap2\n      sub\n      swap1\n      return\n        /* \"contracts/nft.sol\":3873:4044  function getApproved(uint256 tokenId) public view virtual override returns (address) {\r... */\n    tag_5:\n      tag_32\n      0x04\n      dup1\n      calldatasize\n      sub\n      dup2\n      add\n      swap1\n      tag_33\n      swap2\n      swap1\n      tag_34\n      jump\t// in\n    tag_33:\n      tag_35\n      jump\t// in\n    tag_32:\n      mload(0x40)\n      tag_36\n      swap2\n      swap1\n      tag_37\n      jump\t// in\n    tag_36:\n      mload(0x40)\n      dup1\n      swap2\n      sub\n      swap1\n      return\n        /* \"contracts/nft.sol\":3449:3862  function approve(address to, uint256 tokenId) public virtual override {\r... */\n    tag_6:\n      tag_38\n      0x04\n      dup1\n      calldatasize\n      sub\n      dup2\n      add\n      swap1\n      tag_39\n      swap2\n      swap1\n      tag_40\n      jump\t// in\n    tag_39:\n      tag_41\n      jump\t// in\n    tag_38:\n      stop\n        /* \"contracts/nft.sol\":4395:4677  function transferFrom(\r... */\n    tag_7:\n      tag_42\n      0x04\n      dup1\n      calldatasize\n      sub\n      dup2\n      add\n      swap1\n      tag_43\n      swap2\n      swap1\n      tag_44\n      jump\t// in\n    tag_43:\n      tag_45\n      jump\t// in\n    tag_42:\n      stop\n        /* \"contracts/nft.sol\":5213:5565  function mint(address to,address[] memory collaborator,uint256[] memory collaboratorPercent,string memory uri) public returns(uint256){\r... */\n    tag_8:\n      tag_46\n      0x04\n      dup1\n      calldatasize\n      sub\n      dup2\n      add\n      swap1\n      tag_47\n      swap2\n      swap1\n      tag_48\n      jump\t// in\n    tag_47:\n      tag_49\n      jump\t// in\n    tag_46:\n      mload(0x40)\n      tag_50\n      swap2\n      swap1\n      tag_51\n      jump\t// in\n    tag_50:\n      mload(0x40)\n      dup1\n      swap2\n      sub\n      swap1\n      return\n        /* \"contracts/nft.sol\":4687:4872  function safeTransferFrom(\r... */\n    tag_9:\n      tag_52\n      0x04\n      dup1\n      calldatasize\n      sub\n      dup2\n      add\n      swap1\n      tag_53\n      swap2\n      swap1\n      tag_44\n      jump\t// in\n    tag_53:\n      tag_54\n      jump\t// in\n    tag_52:\n      stop\n        /* \"contracts/nft.sol\":2344:2536  function collaboratotOf(uint256 tokenId) public view virtual returns (address[] memory) {\r... */\n    tag_10:\n      tag_55\n      0x04\n      dup1\n      calldatasize\n      sub\n      dup2\n      add\n      swap1\n      tag_56\n      swap2\n      swap1\n      tag_34\n      jump\t// in\n    tag_56:\n      tag_57\n      jump\t// in\n    tag_55:\n      mload(0x40)\n      tag_58\n      swap2\n      swap1\n      tag_59\n      jump\t// in\n    tag_58:\n      mload(0x40)\n      dup1\n      swap2\n      sub\n      swap1\n      return\n        /* \"contracts/nft.sol\":2113:2335  function ownerOf(uint256 tokenId) public view virtual override returns (address) {\r... */\n    tag_11:\n      tag_60\n      0x04\n      dup1\n      calldatasize\n      sub\n      dup2\n      add\n      swap1\n      tag_61\n      swap2\n      swap1\n      tag_34\n      jump\t// in\n    tag_61:\n      tag_62\n      jump\t// in\n    tag_60:\n      mload(0x40)\n      tag_63\n      swap2\n      swap1\n      tag_37\n      jump\t// in\n    tag_63:\n      mload(0x40)\n      dup1\n      swap2\n      sub\n      swap1\n      return\n        /* \"contracts/nft.sol\":1896:2103  function balanceOf(address owner) public view virtual override returns (uint256) {\r... */\n    tag_12:\n      tag_64\n      0x04\n      dup1\n      calldatasize\n      sub\n      dup2\n      add\n      swap1\n      tag_65\n      swap2\n      swap1\n      tag_66\n      jump\t// in\n    tag_65:\n      tag_67\n      jump\t// in\n    tag_64:\n      mload(0x40)\n      tag_68\n      swap2\n      swap1\n      tag_51\n      jump\t// in\n    tag_68:\n      mload(0x40)\n      dup1\n      swap2\n      sub\n      swap1\n      return\n        /* \"contracts/nft.sol\":2893:2997  function symbol() public view virtual override returns (string memory) {\r... */\n    tag_13:\n      tag_69\n      tag_70\n      jump\t// in\n    tag_69:\n      mload(0x40)\n      tag_71\n      swap2\n      swap1\n      tag_31\n      jump\t// in\n    tag_71:\n      mload(0x40)\n      dup1\n      swap2\n      sub\n      swap1\n      return\n        /* \"contracts/nft.sol\":4056:4211  function setApprovalForAll(address operator, bool approved) public virtual override {\r... */\n    tag_14:\n      tag_72\n      0x04\n      dup1\n      calldatasize\n      sub\n      dup2\n      add\n      swap1\n      tag_73\n      swap2\n      swap1\n      tag_74\n      jump\t// in\n    tag_73:\n      tag_75\n      jump\t// in\n    tag_72:\n      stop\n        /* \"contracts/nft.sol\":4882:5204  function safeTransferFrom(\r... */\n    tag_15:\n      tag_76\n      0x04\n      dup1\n      calldatasize\n      sub\n      dup2\n      add\n      swap1\n      tag_77\n      swap2\n      swap1\n      tag_78\n      jump\t// in\n    tag_77:\n      tag_79\n      jump\t// in\n    tag_76:\n      stop\n        /* \"contracts/nft.sol\":3005:3339  function tokenURI(uint256 tokenId) public view virtual override returns (string memory) {\r... */\n    tag_16:\n      tag_80\n      0x04\n      dup1\n      calldatasize\n      sub\n      dup2\n      add\n      swap1\n      tag_81\n      swap2\n      swap1\n      tag_34\n      jump\t// in\n    tag_81:\n      tag_82\n      jump\t// in\n    tag_80:\n      mload(0x40)\n      tag_83\n      swap2\n      swap1\n      tag_31\n      jump\t// in\n    tag_83:\n      mload(0x40)\n      dup1\n      swap2\n      sub\n      swap1\n      return\n        /* \"contracts/nft.sol\":4221:4385  function isApprovedForAll(address owner, address operator) public view virtual override returns (bool) {\r... */\n    tag_17:\n      tag_84\n      0x04\n      dup1\n      calldatasize\n      sub\n      dup2\n      add\n      swap1\n      tag_85\n      swap2\n      swap1\n      tag_86\n      jump\t// in\n    tag_85:\n      tag_87\n      jump\t// in\n    tag_84:\n      mload(0x40)\n      tag_88\n      swap2\n      swap1\n      tag_27\n      jump\t// in\n    tag_88:\n      mload(0x40)\n      dup1\n      swap2\n      sub\n      swap1\n      return\n        /* \"contracts/nft.sol\":2544:2776  function collaboratotPercentageOf(uint256 tokenId) public view virtual returns (uint256[] memory) {\r... */\n    tag_18:\n      tag_89\n      0x04\n      dup1\n      calldatasize\n      sub\n      dup2\n      add\n      swap1\n      tag_90\n      swap2\n      swap1\n      tag_34\n      jump\t// in\n    tag_90:\n      tag_91\n      jump\t// in\n    tag_89:\n      mload(0x40)\n      tag_92\n      swap2\n      swap1\n      tag_93\n      jump\t// in\n    tag_92:\n      mload(0x40)\n      dup1\n      swap2\n      sub\n      swap1\n      return\n        /* \"contracts/nft.sol\":1581:1886  function supportsInterface(bytes4 interfaceId) public view virtual override(ERC165, IERC165) returns (bool) {\r... */\n    tag_25:\n        /* \"contracts/nft.sol\":1683:1687  bool */\n      0x00\n        /* \"contracts/nft.sol\":1735:1760  type(IERC721).interfaceId */\n      0x80ac58cd00000000000000000000000000000000000000000000000000000000\n        /* \"contracts/nft.sol\":1720:1760  interfaceId == type(IERC721).interfaceId */\n      not(0xffffffffffffffffffffffffffffffffffffffffffffffffffffffff)\n      and\n        /* \"contracts/nft.sol\":1720:1731  interfaceId */\n      dup3\n        /* \"contracts/nft.sol\":1720:1760  interfaceId == type(IERC721).interfaceId */\n      not(0xffffffffffffffffffffffffffffffffffffffffffffffffffffffff)\n      and\n      eq\n        /* \"contracts/nft.sol\":1720:1825  interfaceId == type(IERC721).interfaceId ||\r... */\n      dup1\n      tag_95\n      jumpi\n      pop\n        /* \"contracts/nft.sol\":1792:1825  type(IERC721Metadata).interfaceId */\n      0x5b5e139f00000000000000000000000000000000000000000000000000000000\n        /* \"contracts/nft.sol\":1777:1825  interfaceId == type(IERC721Metadata).interfaceId */\n      not(0xffffffffffffffffffffffffffffffffffffffffffffffffffffffff)\n      and\n        /* \"contracts/nft.sol\":1777:1788  interfaceId */\n      dup3\n        /* \"contracts/nft.sol\":1777:1825  interfaceId == type(IERC721Metadata).interfaceId */\n      not(0xffffffffffffffffffffffffffffffffffffffffffffffffffffffff)\n      and\n      eq\n        /* \"contracts/nft.sol\":1720:1825  interfaceId == type(IERC721).interfaceId ||\r... */\n    tag_95:\n        /* \"contracts/nft.sol\":1720:1878  interfaceId == type(IERC721).interfaceId ||\r... */\n      dup1\n      tag_96\n      jumpi\n      pop\n        /* \"contracts/nft.sol\":1842:1878  super.supportsInterface(interfaceId) */\n      tag_97\n        /* \"contracts/nft.sol\":1866:1877  interfaceId */\n      dup3\n        /* \"contracts/nft.sol\":1842:1865  super.supportsInterface */\n      tag_98\n        /* \"contracts/nft.sol\":1842:1878  super.supportsInterface(interfaceId) */\n      jump\t// in\n    tag_97:\n        /* \"contracts/nft.sol\":1720:1878  interfaceId == type(IERC721).interfaceId ||\r... */\n    tag_96:\n        /* \"contracts/nft.sol\":1700:1878  return\r... */\n      swap1\n      pop\n        /* \"contracts/nft.sol\":1581:1886  function supportsInterface(bytes4 interfaceId) public view virtual override(ERC165, IERC165) returns (bool) {\r... */\n      swap2\n      swap1\n      pop\n      jump\t// out\n        /* \"contracts/nft.sol\":2784:2884  function name() public view virtual override returns (string memory) {\r... */\n    tag_29:\n        /* \"contracts/nft.sol\":2838:2851  string memory */\n      0x60\n        /* \"contracts/nft.sol\":2871:2876  _name */\n      0x01\n        /* \"contracts/nft.sol\":2864:2876  return _name */\n      dup1\n      sload\n      tag_100\n      swap1\n      tag_101\n      jump\t// in\n    tag_100:\n      dup1\n      0x1f\n      add\n      0x20\n      dup1\n      swap2\n      div\n      mul\n      0x20\n      add\n      mload(0x40)\n      swap1\n      dup2\n      add\n      0x40\n      mstore\n      dup1\n      swap3\n      swap2\n      swap1\n      dup2\n      dup2\n      mstore\n      0x20\n      add\n      dup3\n      dup1\n      sload\n      tag_102\n      swap1\n      tag_101\n      jump\t// in\n    tag_102:\n      dup1\n      iszero\n      tag_103\n      jumpi\n      dup1\n      0x1f\n      lt\n      tag_104\n      jumpi\n      0x0100\n      dup1\n      dup4\n      sload\n      div\n      mul\n      dup4\n      mstore\n      swap2\n      0x20\n      add\n      swap2\n      jump(tag_103)\n    tag_104:\n      dup3\n      add\n      swap2\n      swap1\n      0x00\n      mstore\n      keccak256(0x00, 0x20)\n      swap1\n    tag_105:\n      dup2\n      sload\n      dup2\n      mstore\n      swap1\n      0x01\n      add\n      swap1\n      0x20\n      add\n      dup1\n      dup4\n      gt\n      tag_105\n      jumpi\n      dup3\n      swap1\n      sub\n      0x1f\n      and\n      dup3\n      add\n      swap2\n    tag_103:\n      pop\n      pop\n      pop\n      pop\n      pop\n      swap1\n      pop\n        /* \"contracts/nft.sol\":2784:2884  function name() public view virtual override returns (string memory) {\r... */\n      swap1\n      jump\t// out\n        /* \"contracts/nft.sol\":3873:4044  function getApproved(uint256 tokenId) public view virtual override returns (address) {\r... */\n    tag_35:\n        /* \"contracts/nft.sol\":3949:3956  address */\n      0x00\n        /* \"contracts/nft.sol\":3969:3992  _requireMinted(tokenId) */\n      tag_107\n        /* \"contracts/nft.sol\":3984:3991  tokenId */\n      dup3\n        /* \"contracts/nft.sol\":3969:3983  _requireMinted */\n      tag_108\n        /* \"contracts/nft.sol\":3969:3992  _requireMinted(tokenId) */\n      jump\t// in\n    tag_107:\n        /* \"contracts/nft.sol\":4012:4027  _tokenApprovals */\n      0x07\n        /* \"contracts/nft.sol\":4012:4036  _tokenApprovals[tokenId] */\n      0x00\n        /* \"contracts/nft.sol\":4028:4035  tokenId */\n      dup4\n        /* \"contracts/nft.sol\":4012:4036  _tokenApprovals[tokenId] */\n      dup2\n      mstore\n      0x20\n      add\n      swap1\n      dup2\n      mstore\n      0x20\n      add\n      0x00\n      keccak256\n      0x00\n      swap1\n      sload\n      swap1\n      0x0100\n      exp\n      swap1\n      div\n      0xffffffffffffffffffffffffffffffffffffffff\n      and\n        /* \"contracts/nft.sol\":4005:4036  return _tokenApprovals[tokenId] */\n      swap1\n      pop\n        /* \"contracts/nft.sol\":3873:4044  function getApproved(uint256 tokenId) public view virtual override returns (address) {\r... */\n      swap2\n      swap1\n      pop\n      jump\t// out\n        /* \"contracts/nft.sol\":3449:3862  function approve(address to, uint256 tokenId) public virtual override {\r... */\n    tag_41:\n        /* \"contracts/nft.sol\":3530:3543  address owner */\n      0x00\n        /* \"contracts/nft.sol\":3546:3566  nft.ownerOf(tokenId) */\n      tag_110\n        /* \"contracts/nft.sol\":3558:3565  tokenId */\n      dup3\n        /* \"contracts/nft.sol\":3546:3557  nft.ownerOf */\n      tag_62\n        /* \"contracts/nft.sol\":3546:3566  nft.ownerOf(tokenId) */\n      jump\t// in\n    tag_110:\n        /* \"contracts/nft.sol\":3530:3566  address owner = nft.ownerOf(tokenId) */\n      swap1\n      pop\n        /* \"contracts/nft.sol\":3591:3596  owner */\n      dup1\n        /* \"contracts/nft.sol\":3585:3596  to != owner */\n      0xffffffffffffffffffffffffffffffffffffffff\n      and\n        /* \"contracts/nft.sol\":3585:3587  to */\n      dup4\n        /* \"contracts/nft.sol\":3585:3596  to != owner */\n      0xffffffffffffffffffffffffffffffffffffffff\n      and\n      eq\n      iszero\n        /* \"contracts/nft.sol\":3577:3634  require(to != owner, \"ERC721: approval to current owner\") */\n      tag_111\n      jumpi\n      mload(0x40)\n      0x08c379a000000000000000000000000000000000000000000000000000000000\n      dup2\n      mstore\n      0x04\n      add\n      tag_112\n      swap1\n      tag_113\n      jump\t// in\n    tag_112:\n      mload(0x40)\n      dup1\n      swap2\n      sub\n      swap1\n      revert\n    tag_111:\n        /* \"contracts/nft.sol\":3685:3690  owner */\n      dup1\n        /* \"contracts/nft.sol\":3669:3690  _msgSender() == owner */\n      0xffffffffffffffffffffffffffffffffffffffff\n      and\n        /* \"contracts/nft.sol\":3669:3681  _msgSender() */\n      tag_114\n        /* \"contracts/nft.sol\":3669:3679  _msgSender */\n      tag_115\n        /* \"contracts/nft.sol\":3669:3681  _msgSender() */\n      jump\t// in\n    tag_114:\n        /* \"contracts/nft.sol\":3669:3690  _msgSender() == owner */\n      0xffffffffffffffffffffffffffffffffffffffff\n      and\n      eq\n        /* \"contracts/nft.sol\":3669:3731  _msgSender() == owner || isApprovedForAll(owner, _msgSender()) */\n      dup1\n      tag_116\n      jumpi\n      pop\n        /* \"contracts/nft.sol\":3694:3731  isApprovedForAll(owner, _msgSender()) */\n      tag_117\n        /* \"contracts/nft.sol\":3711:3716  owner */\n      dup2\n        /* \"contracts/nft.sol\":3718:3730  _msgSender() */\n      tag_118\n        /* \"contracts/nft.sol\":3718:3728  _msgSender */\n      tag_115\n        /* \"contracts/nft.sol\":3718:3730  _msgSender() */\n      jump\t// in\n    tag_118:\n        /* \"contracts/nft.sol\":3694:3710  isApprovedForAll */\n      tag_87\n        /* \"contracts/nft.sol\":3694:3731  isApprovedForAll(owner, _msgSender()) */\n      jump\t// in\n    tag_117:\n        /* \"contracts/nft.sol\":3669:3731  _msgSender() == owner || isApprovedForAll(owner, _msgSender()) */\n    tag_116:\n        /* \"contracts/nft.sol\":3647:3820  require(\r... */\n      tag_119\n      jumpi\n      mload(0x40)\n      0x08c379a000000000000000000000000000000000000000000000000000000000\n      dup2\n      mstore\n      0x04\n      add\n      tag_120\n      swap1\n      tag_121\n      jump\t// in\n    tag_120:\n      mload(0x40)\n      dup1\n      swap2\n      sub\n      swap1\n      revert\n    tag_119:\n        /* \"contracts/nft.sol\":3833:3854  _approve(to, tokenId) */\n      tag_122\n        /* \"contracts/nft.sol\":3842:3844  to */\n      dup4\n        /* \"contracts/nft.sol\":3846:3853  tokenId */\n      dup4\n        /* \"contracts/nft.sol\":3833:3841  _approve */\n      tag_123\n        /* \"contracts/nft.sol\":3833:3854  _approve(to, tokenId) */\n      jump\t// in\n    tag_122:\n        /* \"contracts/nft.sol\":3449:3862  function approve(address to, uint256 tokenId) public virtual override {\r... */\n      pop\n      pop\n      pop\n      jump\t// out\n        /* \"contracts/nft.sol\":4395:4677  function transferFrom(\r... */\n    tag_45:\n        /* \"contracts/nft.sol\":4537:4578  _isApprovedOrOwner(_msgSender(), tokenId) */\n      tag_125\n        /* \"contracts/nft.sol\":4556:4568  _msgSender() */\n      tag_126\n        /* \"contracts/nft.sol\":4556:4566  _msgSender */\n      tag_115\n        /* \"contracts/nft.sol\":4556:4568  _msgSender() */\n      jump\t// in\n    tag_126:\n        /* \"contracts/nft.sol\":4570:4577  tokenId */\n      dup3\n        /* \"contracts/nft.sol\":4537:4555  _isApprovedOrOwner */\n      tag_127\n        /* \"contracts/nft.sol\":4537:4578  _isApprovedOrOwner(_msgSender(), tokenId) */\n      jump\t// in\n    tag_125:\n        /* \"contracts/nft.sol\":4529:4628  require(_isApprovedOrOwner(_msgSender(), tokenId), \"ERC721: caller is not token owner or approved\") */\n      tag_128\n      jumpi\n      mload(0x40)\n      0x08c379a000000000000000000000000000000000000000000000000000000000\n      dup2\n      mstore\n      0x04\n      add\n      tag_129\n      swap1\n      tag_130\n      jump\t// in\n    tag_129:\n      mload(0x40)\n      dup1\n      swap2\n      sub\n      swap1\n      revert\n    tag_128:\n        /* \"contracts/nft.sol\":4641:4669  _transfer(from, to, tokenId) */\n      tag_131\n        /* \"contracts/nft.sol\":4651:4655  from */\n      dup4\n        /* \"contracts/nft.sol\":4657:4659  to */\n      dup4\n        /* \"contracts/nft.sol\":4661:4668  tokenId */\n      dup4\n        /* \"contracts/nft.sol\":4641:4650  _transfer */\n      tag_132\n        /* \"contracts/nft.sol\":4641:4669  _transfer(from, to, tokenId) */\n      jump\t// in\n    tag_131:\n        /* \"contracts/nft.sol\":4395:4677  function transferFrom(\r... */\n      pop\n      pop\n      pop\n      jump\t// out\n        /* \"contracts/nft.sol\":5213:5565  function mint(address to,address[] memory collaborator,uint256[] memory collaboratorPercent,string memory uri) public returns(uint256){\r... */\n    tag_49:\n        /* \"contracts/nft.sol\":5339:5346  uint256 */\n      0x00\n        /* \"contracts/nft.sol\":5360:5381  _tokenIds.increment() */\n      tag_134\n        /* \"contracts/nft.sol\":5360:5369  _tokenIds */\n      0x00\n        /* \"contracts/nft.sol\":5360:5379  _tokenIds.increment */\n      tag_135\n        /* \"contracts/nft.sol\":5360:5381  _tokenIds.increment() */\n      jump\t// in\n    tag_134:\n        /* \"contracts/nft.sol\":5392:5407  uint256 tokenId */\n      0x00\n        /* \"contracts/nft.sol\":5410:5429  _tokenIds.current() */\n      tag_136\n        /* \"contracts/nft.sol\":5410:5419  _tokenIds */\n      0x00\n        /* \"contracts/nft.sol\":5410:5427  _tokenIds.current */\n      tag_137\n        /* \"contracts/nft.sol\":5410:5429  _tokenIds.current() */\n      jump\t// in\n    tag_136:\n        /* \"contracts/nft.sol\":5392:5429  uint256 tokenId = _tokenIds.current() */\n      swap1\n      pop\n        /* \"contracts/nft.sol\":5440:5495  _safeMint(to, collaborator,collaboratorPercent,tokenId) */\n      tag_138\n        /* \"contracts/nft.sol\":5450:5452  to */\n      dup7\n        /* \"contracts/nft.sol\":5454:5466  collaborator */\n      dup7\n        /* \"contracts/nft.sol\":5467:5486  collaboratorPercent */\n      dup7\n        /* \"contracts/nft.sol\":5487:5494  tokenId */\n      dup5\n        /* \"contracts/nft.sol\":5440:5449  _safeMint */\n      tag_139\n        /* \"contracts/nft.sol\":5440:5495  _safeMint(to, collaborator,collaboratorPercent,tokenId) */\n      jump\t// in\n    tag_138:\n        /* \"contracts/nft.sol\":5506:5532  _setTokenURI(tokenId, uri) */\n      tag_140\n        /* \"contracts/nft.sol\":5519:5526  tokenId */\n      dup2\n        /* \"contracts/nft.sol\":5528:5531  uri */\n      dup5\n        /* \"contracts/nft.sol\":5506:5518  _setTokenURI */\n      tag_141\n        /* \"contracts/nft.sol\":5506:5532  _setTokenURI(tokenId, uri) */\n      jump\t// in\n    tag_140:\n        /* \"contracts/nft.sol\":5550:5557  tokenId */\n      dup1\n        /* \"contracts/nft.sol\":5543:5557  return tokenId */\n      swap2\n      pop\n      pop\n        /* \"contracts/nft.sol\":5213:5565  function mint(address to,address[] memory collaborator,uint256[] memory collaboratorPercent,string memory uri) public returns(uint256){\r... */\n      swap5\n      swap4\n      pop\n      pop\n      pop\n      pop\n      jump\t// out\n        /* \"contracts/nft.sol\":4687:4872  function safeTransferFrom(\r... */\n    tag_54:\n        /* \"contracts/nft.sol\":4825:4864  safeTransferFrom(from, to, tokenId, \"\") */\n      tag_143\n        /* \"contracts/nft.sol\":4842:4846  from */\n      dup4\n        /* \"contracts/nft.sol\":4848:4850  to */\n      dup4\n        /* \"contracts/nft.sol\":4852:4859  tokenId */\n      dup4\n        /* \"contracts/nft.sol\":4825:4864  safeTransferFrom(from, to, tokenId, \"\") */\n      mload(0x40)\n      dup1\n      0x20\n      add\n      0x40\n      mstore\n      dup1\n      0x00\n      dup2\n      mstore\n      pop\n        /* \"contracts/nft.sol\":4825:4841  safeTransferFrom */\n      tag_79\n        /* \"contracts/nft.sol\":4825:4864  safeTransferFrom(from, to, tokenId, \"\") */\n      jump\t// in\n    tag_143:\n        /* \"contracts/nft.sol\":4687:4872  function safeTransferFrom(\r... */\n      pop\n      pop\n      pop\n      jump\t// out\n        /* \"contracts/nft.sol\":2344:2536  function collaboratotOf(uint256 tokenId) public view virtual returns (address[] memory) {\r... */\n    tag_57:\n        /* \"contracts/nft.sol\":2414:2430  address[] memory */\n      0x60\n        /* \"contracts/nft.sol\":2443:2472  address[] memory collaborator */\n      0x00\n        /* \"contracts/nft.sol\":2475:2489  _collaborators */\n      0x04\n        /* \"contracts/nft.sol\":2475:2498  _collaborators[tokenId] */\n      0x00\n        /* \"contracts/nft.sol\":2490:2497  tokenId */\n      dup5\n        /* \"contracts/nft.sol\":2475:2498  _collaborators[tokenId] */\n      dup2\n      mstore\n      0x20\n      add\n      swap1\n      dup2\n      mstore\n      0x20\n      add\n      0x00\n      keccak256\n        /* \"contracts/nft.sol\":2443:2498  address[] memory collaborator = _collaborators[tokenId] */\n      dup1\n      sload\n      dup1\n      0x20\n      mul\n      0x20\n      add\n      mload(0x40)\n      swap1\n      dup2\n      add\n      0x40\n      mstore\n      dup1\n      swap3\n      swap2\n      swap1\n      dup2\n      dup2\n      mstore\n      0x20\n      add\n      dup3\n      dup1\n      sload\n      dup1\n      iszero\n      tag_145\n      jumpi\n      0x20\n      mul\n      dup3\n      add\n      swap2\n      swap1\n      0x00\n      mstore\n      keccak256(0x00, 0x20)\n      swap1\n    tag_146:\n      dup2\n      0x00\n      swap1\n      sload\n      swap1\n      0x0100\n      exp\n      swap1\n      div\n      0xffffffffffffffffffffffffffffffffffffffff\n      and\n      0xffffffffffffffffffffffffffffffffffffffff\n      and\n      dup2\n      mstore\n      0x20\n      add\n      swap1\n      0x01\n      add\n      swap1\n      dup1\n      dup4\n      gt\n      tag_146\n      jumpi\n    tag_145:\n      pop\n      pop\n      pop\n      pop\n      pop\n      swap1\n      pop\n        /* \"contracts/nft.sol\":2516:2528  collaborator */\n      dup1\n        /* \"contracts/nft.sol\":2509:2528  return collaborator */\n      swap2\n      pop\n      pop\n        /* \"contracts/nft.sol\":2344:2536  function collaboratotOf(uint256 tokenId) public view virtual returns (address[] memory) {\r... */\n      swap2\n      swap1\n      pop\n      jump\t// out\n        /* \"contracts/nft.sol\":2113:2335  function ownerOf(uint256 tokenId) public view virtual override returns (address) {\r... */\n    tag_62:\n        /* \"contracts/nft.sol\":2185:2192  address */\n      0x00\n        /* \"contracts/nft.sol\":2205:2218  address owner */\n      dup1\n        /* \"contracts/nft.sol\":2221:2228  _owners */\n      0x03\n        /* \"contracts/nft.sol\":2221:2237  _owners[tokenId] */\n      0x00\n        /* \"contracts/nft.sol\":2229:2236  tokenId */\n      dup5\n        /* \"contracts/nft.sol\":2221:2237  _owners[tokenId] */\n      dup2\n      mstore\n      0x20\n      add\n      swap1\n      dup2\n      mstore\n      0x20\n      add\n      0x00\n      keccak256\n      0x00\n      swap1\n      sload\n      swap1\n      0x0100\n      exp\n      swap1\n      div\n      0xffffffffffffffffffffffffffffffffffffffff\n      and\n        /* \"contracts/nft.sol\":2205:2237  address owner = _owners[tokenId] */\n      swap1\n      pop\n        /* \"contracts/nft.sol\":2273:2274  0 */\n      0x00\n        /* \"contracts/nft.sol\":2256:2275  owner != address(0) */\n      0xffffffffffffffffffffffffffffffffffffffff\n      and\n        /* \"contracts/nft.sol\":2256:2261  owner */\n      dup2\n        /* \"contracts/nft.sol\":2256:2275  owner != address(0) */\n      0xffffffffffffffffffffffffffffffffffffffff\n      and\n      eq\n      iszero\n        /* \"contracts/nft.sol\":2248:2304  require(owner != address(0), \"ERC721: invalid token ID\") */\n      tag_148\n      jumpi\n      mload(0x40)\n      0x08c379a000000000000000000000000000000000000000000000000000000000\n      dup2\n      mstore\n      0x04\n      add\n      tag_149\n      swap1\n      tag_150\n      jump\t// in\n    tag_149:\n      mload(0x40)\n      dup1\n      swap2\n      sub\n      swap1\n      revert\n    tag_148:\n        /* \"contracts/nft.sol\":2322:2327  owner */\n      dup1\n        /* \"contracts/nft.sol\":2315:2327  return owner */\n      swap2\n      pop\n      pop\n        /* \"contracts/nft.sol\":2113:2335  function ownerOf(uint256 tokenId) public view virtual override returns (address) {\r... */\n      swap2\n      swap1\n      pop\n      jump\t// out\n        /* \"contracts/nft.sol\":1896:2103  function balanceOf(address owner) public view virtual override returns (uint256) {\r... */\n    tag_67:\n        /* \"contracts/nft.sol\":1968:1975  uint256 */\n      0x00\n        /* \"contracts/nft.sol\":2013:2014  0 */\n      dup1\n        /* \"contracts/nft.sol\":1996:2015  owner != address(0) */\n      0xffffffffffffffffffffffffffffffffffffffff\n      and\n        /* \"contracts/nft.sol\":1996:2001  owner */\n      dup3\n        /* \"contracts/nft.sol\":1996:2015  owner != address(0) */\n      0xffffffffffffffffffffffffffffffffffffffff\n      and\n      eq\n      iszero\n        /* \"contracts/nft.sol\":1988:2061  require(owner != address(0), \"ERC721: address zero is not a valid owner\") */\n      tag_152\n      jumpi\n      mload(0x40)\n      0x08c379a000000000000000000000000000000000000000000000000000000000\n      dup2\n      mstore\n      0x04\n      add\n      tag_153\n      swap1\n      tag_154\n      jump\t// in\n    tag_153:\n      mload(0x40)\n      dup1\n      swap2\n      sub\n      swap1\n      revert\n    tag_152:\n        /* \"contracts/nft.sol\":2079:2088  _balances */\n      0x06\n        /* \"contracts/nft.sol\":2079:2095  _balances[owner] */\n      0x00\n        /* \"contracts/nft.sol\":2089:2094  owner */\n      dup4\n        /* \"contracts/nft.sol\":2079:2095  _balances[owner] */\n      0xffffffffffffffffffffffffffffffffffffffff\n      and\n      0xffffffffffffffffffffffffffffffffffffffff\n      and\n      dup2\n      mstore\n      0x20\n      add\n      swap1\n      dup2\n      mstore\n      0x20\n      add\n      0x00\n      keccak256\n      sload\n        /* \"contracts/nft.sol\":2072:2095  return _balances[owner] */\n      swap1\n      pop\n        /* \"contracts/nft.sol\":1896:2103  function balanceOf(address owner) public view virtual override returns (uint256) {\r... */\n      swap2\n      swap1\n      pop\n      jump\t// out\n        /* \"contracts/nft.sol\":2893:2997  function symbol() public view virtual override returns (string memory) {\r... */\n    tag_70:\n        /* \"contracts/nft.sol\":2949:2962  string memory */\n      0x60\n        /* \"contracts/nft.sol\":2982:2989  _symbol */\n      0x02\n        /* \"contracts/nft.sol\":2975:2989  return _symbol */\n      dup1\n      sload\n      tag_156\n      swap1\n      tag_101\n      jump\t// in\n    tag_156:\n      dup1\n      0x1f\n      add\n      0x20\n      dup1\n      swap2\n      div\n      mul\n      0x20\n      add\n      mload(0x40)\n      swap1\n      dup2\n      add\n      0x40\n      mstore\n      dup1\n      swap3\n      swap2\n      swap1\n      dup2\n      dup2\n      mstore\n      0x20\n      add\n      dup3\n      dup1\n      sload\n      tag_157\n      swap1\n      tag_101\n      jump\t// in\n    tag_157:\n      dup1\n      iszero\n      tag_158\n      jumpi\n      dup1\n      0x1f\n      lt\n      tag_159\n      jumpi\n      0x0100\n      dup1\n      dup4\n      sload\n      div\n      mul\n      dup4\n      mstore\n      swap2\n      0x20\n      add\n      swap2\n      jump(tag_158)\n    tag_159:\n      dup3\n      add\n      swap2\n      swap1\n      0x00\n      mstore\n      keccak256(0x00, 0x20)\n      swap1\n    tag_160:\n      dup2\n      sload\n      dup2\n      mstore\n      swap1\n      0x01\n      add\n      swap1\n      0x20\n      add\n      dup1\n      dup4\n      gt\n      tag_160\n      jumpi\n      dup3\n      swap1\n      sub\n      0x1f\n      and\n      dup3\n      add\n      swap2\n    tag_158:\n      pop\n      pop\n      pop\n      pop\n      pop\n      swap1\n      pop\n        /* \"contracts/nft.sol\":2893:2997  function symbol() public view virtual override returns (string memory) {\r... */\n      swap1\n      jump\t// out\n        /* \"contracts/nft.sol\":4056:4211  function setApprovalForAll(address operator, bool approved) public virtual override {\r... */\n    tag_75:\n        /* \"contracts/nft.sol\":4151:4203  _setApprovalForAll(_msgSender(), operator, approved) */\n      tag_162\n        /* \"contracts/nft.sol\":4170:4182  _msgSender() */\n      tag_163\n        /* \"contracts/nft.sol\":4170:4180  _msgSender */\n      tag_115\n        /* \"contracts/nft.sol\":4170:4182  _msgSender() */\n      jump\t// in\n    tag_163:\n        /* \"contracts/nft.sol\":4184:4192  operator */\n      dup4\n        /* \"contracts/nft.sol\":4194:4202  approved */\n      dup4\n        /* \"contracts/nft.sol\":4151:4169  _setApprovalForAll */\n      tag_164\n        /* \"contracts/nft.sol\":4151:4203  _setApprovalForAll(_msgSender(), operator, approved) */\n      jump\t// in\n    tag_162:\n        /* \"contracts/nft.sol\":4056:4211  function setApprovalForAll(address operator, bool approved) public virtual override {\r... */\n      pop\n      pop\n      jump\t// out\n        /* \"contracts/nft.sol\":4882:5204  function safeTransferFrom(\r... */\n    tag_79:\n        /* \"contracts/nft.sol\":5056:5097  _isApprovedOrOwner(_msgSender(), tokenId) */\n      tag_166\n        /* \"contracts/nft.sol\":5075:5087  _msgSender() */\n      tag_167\n        /* \"contracts/nft.sol\":5075:5085  _msgSender */\n      tag_115\n        /* \"contracts/nft.sol\":5075:5087  _msgSender() */\n      jump\t// in\n    tag_167:\n        /* \"contracts/nft.sol\":5089:5096  tokenId */\n      dup4\n        /* \"contracts/nft.sol\":5056:5074  _isApprovedOrOwner */\n      tag_127\n        /* \"contracts/nft.sol\":5056:5097  _isApprovedOrOwner(_msgSender(), tokenId) */\n      jump\t// in\n    tag_166:\n        /* \"contracts/nft.sol\":5048:5147  require(_isApprovedOrOwner(_msgSender(), tokenId), \"ERC721: caller is not token owner or approved\") */\n      tag_168\n      jumpi\n      mload(0x40)\n      0x08c379a000000000000000000000000000000000000000000000000000000000\n      dup2\n      mstore\n      0x04\n      add\n      tag_169\n      swap1\n      tag_130\n      jump\t// in\n    tag_169:\n      mload(0x40)\n      dup1\n      swap2\n      sub\n      swap1\n      revert\n    tag_168:\n        /* \"contracts/nft.sol\":5158:5196  _safeTransfer(from, to, tokenId, data) */\n      tag_170\n        /* \"contracts/nft.sol\":5172:5176  from */\n      dup5\n        /* \"contracts/nft.sol\":5178:5180  to */\n      dup5\n        /* \"contracts/nft.sol\":5182:5189  tokenId */\n      dup5\n        /* \"contracts/nft.sol\":5191:5195  data */\n      dup5\n        /* \"contracts/nft.sol\":5158:5171  _safeTransfer */\n      tag_171\n        /* \"contracts/nft.sol\":5158:5196  _safeTransfer(from, to, tokenId, data) */\n      jump\t// in\n    tag_170:\n        /* \"contracts/nft.sol\":4882:5204  function safeTransferFrom(\r... */\n      pop\n      pop\n      pop\n      pop\n      jump\t// out\n        /* \"contracts/nft.sol\":3005:3339  function tokenURI(uint256 tokenId) public view virtual override returns (string memory) {\r... */\n    tag_82:\n        /* \"contracts/nft.sol\":3078:3091  string memory */\n      0x60\n        /* \"contracts/nft.sol\":3112:3128  _exists(tokenId) */\n      tag_173\n        /* \"contracts/nft.sol\":3120:3127  tokenId */\n      dup3\n        /* \"contracts/nft.sol\":3112:3119  _exists */\n      tag_174\n        /* \"contracts/nft.sol\":3112:3128  _exists(tokenId) */\n      jump\t// in\n    tag_173:\n        /* \"contracts/nft.sol\":3104:3180  require(_exists(tokenId), \"ERC721Metadata: URI query for nonexistent token\") */\n      tag_175\n      jumpi\n      mload(0x40)\n      0x08c379a000000000000000000000000000000000000000000000000000000000\n      dup2\n      mstore\n      0x04\n      add\n      tag_176\n      swap1\n      tag_177\n      jump\t// in\n    tag_176:\n      mload(0x40)\n      dup1\n      swap2\n      sub\n      swap1\n      revert\n    tag_175:\n        /* \"contracts/nft.sol\":3193:3214  string memory baseURI */\n      0x00\n        /* \"contracts/nft.sol\":3217:3227  _baseURI() */\n      tag_178\n        /* \"contracts/nft.sol\":3217:3225  _baseURI */\n      tag_179\n        /* \"contracts/nft.sol\":3217:3227  _baseURI() */\n      jump\t// in\n    tag_178:\n        /* \"contracts/nft.sol\":3193:3227  string memory baseURI = _baseURI() */\n      swap1\n      pop\n        /* \"contracts/nft.sol\":3269:3270  0 */\n      0x00\n        /* \"contracts/nft.sol\":3251:3258  baseURI */\n      dup2\n        /* \"contracts/nft.sol\":3245:3266  bytes(baseURI).length */\n      mload\n        /* \"contracts/nft.sol\":3245:3270  bytes(baseURI).length > 0 */\n      gt\n        /* \"contracts/nft.sol\":3245:3331  bytes(baseURI).length > 0 ? string(abi.encodePacked(baseURI, tokenId.toString())) : \"\" */\n      tag_180\n      jumpi\n      mload(0x40)\n      dup1\n      0x20\n      add\n      0x40\n      mstore\n      dup1\n      0x00\n      dup2\n      mstore\n      pop\n      jump(tag_181)\n    tag_180:\n        /* \"contracts/nft.sol\":3297:3304  baseURI */\n      dup1\n        /* \"contracts/nft.sol\":3306:3324  tokenId.toString() */\n      tag_182\n        /* \"contracts/nft.sol\":3306:3313  tokenId */\n      dup5\n        /* \"contracts/nft.sol\":3306:3322  tokenId.toString */\n      tag_183\n        /* \"contracts/nft.sol\":3306:3324  tokenId.toString() */\n      jump\t// in\n    tag_182:\n        /* \"contracts/nft.sol\":3280:3325  abi.encodePacked(baseURI, tokenId.toString()) */\n      add(0x20, mload(0x40))\n      tag_184\n      swap3\n      swap2\n      swap1\n      tag_185\n      jump\t// in\n    tag_184:\n      mload(0x40)\n      0x20\n      dup2\n      dup4\n      sub\n      sub\n      dup2\n      mstore\n      swap1\n      0x40\n      mstore\n        /* \"contracts/nft.sol\":3245:3331  bytes(baseURI).length > 0 ? string(abi.encodePacked(baseURI, tokenId.toString())) : \"\" */\n    tag_181:\n        /* \"contracts/nft.sol\":3238:3331  return bytes(baseURI).length > 0 ? string(abi.encodePacked(baseURI, tokenId.toString())) : \"\" */\n      swap2\n      pop\n      pop\n        /* \"contracts/nft.sol\":3005:3339  function tokenURI(uint256 tokenId) public view virtual override returns (string memory) {\r... */\n      swap2\n      swap1\n      pop\n      jump\t// out\n        /* \"contracts/nft.sol\":4221:4385  function isApprovedForAll(address owner, address operator) public view virtual override returns (bool) {\r... */\n    tag_87:\n        /* \"contracts/nft.sol\":4318:4322  bool */\n      0x00\n        /* \"contracts/nft.sol\":4342:4360  _operatorApprovals */\n      0x08\n        /* \"contracts/nft.sol\":4342:4367  _operatorApprovals[owner] */\n      0x00\n        /* \"contracts/nft.sol\":4361:4366  owner */\n      dup5\n        /* \"contracts/nft.sol\":4342:4367  _operatorApprovals[owner] */\n      0xffffffffffffffffffffffffffffffffffffffff\n      and\n      0xffffffffffffffffffffffffffffffffffffffff\n      and\n      dup2\n      mstore\n      0x20\n      add\n      swap1\n      dup2\n      mstore\n      0x20\n      add\n      0x00\n      keccak256\n        /* \"contracts/nft.sol\":4342:4377  _operatorApprovals[owner][operator] */\n      0x00\n        /* \"contracts/nft.sol\":4368:4376  operator */\n      dup4\n        /* \"contracts/nft.sol\":4342:4377  _operatorApprovals[owner][operator] */\n      0xffffffffffffffffffffffffffffffffffffffff\n      and\n      0xffffffffffffffffffffffffffffffffffffffff\n      and\n      dup2\n      mstore\n      0x20\n      add\n      swap1\n      dup2\n      mstore\n      0x20\n      add\n      0x00\n      keccak256\n      0x00\n      swap1\n      sload\n      swap1\n      0x0100\n      exp\n      swap1\n      div\n      0xff\n      and\n        /* \"contracts/nft.sol\":4335:4377  return _operatorApprovals[owner][operator] */\n      swap1\n      pop\n        /* \"contracts/nft.sol\":4221:4385  function isApprovedForAll(address owner, address operator) public view virtual override returns (bool) {\r... */\n      swap3\n      swap2\n      pop\n      pop\n      jump\t// out\n        /* \"contracts/nft.sol\":2544:2776  function collaboratotPercentageOf(uint256 tokenId) public view virtual returns (uint256[] memory) {\r... */\n    tag_91:\n        /* \"contracts/nft.sol\":2624:2640  uint256[] memory */\n      0x60\n        /* \"contracts/nft.sol\":2653:2692  uint256[] memory collaboratorPercentage */\n      0x00\n        /* \"contracts/nft.sol\":2695:2719  _collaboratorsPercentage */\n      0x05\n        /* \"contracts/nft.sol\":2695:2728  _collaboratorsPercentage[tokenId] */\n      0x00\n        /* \"contracts/nft.sol\":2720:2727  tokenId */\n      dup5\n        /* \"contracts/nft.sol\":2695:2728  _collaboratorsPercentage[tokenId] */\n      dup2\n      mstore\n      0x20\n      add\n      swap1\n      dup2\n      mstore\n      0x20\n      add\n      0x00\n      keccak256\n        /* \"contracts/nft.sol\":2653:2728  uint256[] memory collaboratorPercentage = _collaboratorsPercentage[tokenId] */\n      dup1\n      sload\n      dup1\n      0x20\n      mul\n      0x20\n      add\n      mload(0x40)\n      swap1\n      dup2\n      add\n      0x40\n      mstore\n      dup1\n      swap3\n      swap2\n      swap1\n      dup2\n      dup2\n      mstore\n      0x20\n      add\n      dup3\n      dup1\n      sload\n      dup1\n      iszero\n      tag_188\n      jumpi\n      0x20\n      mul\n      dup3\n      add\n      swap2\n      swap1\n      0x00\n      mstore\n      keccak256(0x00, 0x20)\n      swap1\n    tag_189:\n      dup2\n      sload\n      dup2\n      mstore\n      0x20\n      add\n      swap1\n      0x01\n      add\n      swap1\n      dup1\n      dup4\n      gt\n      tag_189\n      jumpi\n    tag_188:\n      pop\n      pop\n      pop\n      pop\n      pop\n      swap1\n      pop\n        /* \"contracts/nft.sol\":2746:2768  collaboratorPercentage */\n      dup1\n        /* \"contracts/nft.sol\":2739:2768  return collaboratorPercentage */\n      swap2\n      pop\n      pop\n        /* \"contracts/nft.sol\":2544:2776  function collaboratotPercentageOf(uint256 tokenId) public view virtual returns (uint256[] memory) {\r... */\n      swap2\n      swap1\n      pop\n      jump\t// out\n        /* \"@openzeppelin/contracts@4.6.0/utils/introspection/ERC165.sol\":829:984  function supportsInterface(bytes4 interfaceId) public view virtual override returns (bool) {... */\n    tag_98:\n        /* \"@openzeppelin/contracts@4.6.0/utils/introspection/ERC165.sol\":914:918  bool */\n      0x00\n        /* \"@openzeppelin/contracts@4.6.0/utils/introspection/ERC165.sol\":952:977  type(IERC165).interfaceId */\n      0x01ffc9a700000000000000000000000000000000000000000000000000000000\n        /* \"@openzeppelin/contracts@4.6.0/utils/introspection/ERC165.sol\":937:977  interfaceId == type(IERC165).interfaceId */\n      not(0xffffffffffffffffffffffffffffffffffffffffffffffffffffffff)\n      and\n        /* \"@openzeppelin/contracts@4.6.0/utils/introspection/ERC165.sol\":937:948  interfaceId */\n      dup3\n        /* \"@openzeppelin/contracts@4.6.0/utils/introspection/ERC165.sol\":937:977  interfaceId == type(IERC165).interfaceId */\n      not(0xffffffffffffffffffffffffffffffffffffffffffffffffffffffff)\n      and\n      eq\n        /* \"@openzeppelin/contracts@4.6.0/utils/introspection/ERC165.sol\":930:977  return interfaceId == type(IERC165).interfaceId */\n      swap1\n      pop\n        /* \"@openzeppelin/contracts@4.6.0/utils/introspection/ERC165.sol\":829:984  function supportsInterface(bytes4 interfaceId) public view virtual override returns (bool) {... */\n      swap2\n      swap1\n      pop\n      jump\t// out\n        /* \"contracts/nft.sol\":9679:9814  function _requireMinted(uint256 tokenId) internal view virtual {\r... */\n    tag_108:\n        /* \"contracts/nft.sol\":9761:9777  _exists(tokenId) */\n      tag_192\n        /* \"contracts/nft.sol\":9769:9776  tokenId */\n      dup2\n        /* \"contracts/nft.sol\":9761:9768  _exists */\n      tag_174\n        /* \"contracts/nft.sol\":9761:9777  _exists(tokenId) */\n      jump\t// in\n    tag_192:\n        /* \"contracts/nft.sol\":9753:9806  require(_exists(tokenId), \"ERC721: invalid token ID\") */\n      tag_193\n      jumpi\n      mload(0x40)\n      0x08c379a000000000000000000000000000000000000000000000000000000000\n      dup2\n      mstore\n      0x04\n      add\n      tag_194\n      swap1\n      tag_150\n      jump\t// in\n    tag_194:\n      mload(0x40)\n      dup1\n      swap2\n      sub\n      swap1\n      revert\n    tag_193:\n        /* \"contracts/nft.sol\":9679:9814  function _requireMinted(uint256 tokenId) internal view virtual {\r... */\n      pop\n      jump\t// out\n        /* \"@openzeppelin/contracts@4.6.0/utils/Context.sol\":640:736  function _msgSender() internal view virtual returns (address) {... */\n    tag_115:\n        /* \"@openzeppelin/contracts@4.6.0/utils/Context.sol\":693:700  address */\n      0x00\n        /* \"@openzeppelin/contracts@4.6.0/utils/Context.sol\":719:729  msg.sender */\n      caller\n        /* \"@openzeppelin/contracts@4.6.0/utils/Context.sol\":712:729  return msg.sender */\n      swap1\n      pop\n        /* \"@openzeppelin/contracts@4.6.0/utils/Context.sol\":640:736  function _msgSender() internal view virtual returns (address) {... */\n      swap1\n      jump\t// out\n        /* \"contracts/nft.sol\":9177:9348  function _approve(address to, uint256 tokenId) internal virtual {\r... */\n    tag_123:\n        /* \"contracts/nft.sol\":9279:9281  to */\n      dup2\n        /* \"contracts/nft.sol\":9252:9267  _tokenApprovals */\n      0x07\n        /* \"contracts/nft.sol\":9252:9276  _tokenApprovals[tokenId] */\n      0x00\n        /* \"contracts/nft.sol\":9268:9275  tokenId */\n      dup4\n        /* \"contracts/nft.sol\":9252:9276  _tokenApprovals[tokenId] */\n      dup2\n      mstore\n      0x20\n      add\n      swap1\n      dup2\n      mstore\n      0x20\n      add\n      0x00\n      keccak256\n      0x00\n        /* \"contracts/nft.sol\":9252:9281  _tokenApprovals[tokenId] = to */\n      0x0100\n      exp\n      dup2\n      sload\n      dup2\n      0xffffffffffffffffffffffffffffffffffffffff\n      mul\n      not\n      and\n      swap1\n      dup4\n      0xffffffffffffffffffffffffffffffffffffffff\n      and\n      mul\n      or\n      swap1\n      sstore\n      pop\n        /* \"contracts/nft.sol\":9332:9339  tokenId */\n      dup1\n        /* \"contracts/nft.sol\":9328:9330  to */\n      dup3\n        /* \"contracts/nft.sol\":9297:9340  Approval(nft.ownerOf(tokenId), to, tokenId) */\n      0xffffffffffffffffffffffffffffffffffffffff\n      and\n        /* \"contracts/nft.sol\":9306:9326  nft.ownerOf(tokenId) */\n      tag_197\n        /* \"contracts/nft.sol\":9318:9325  tokenId */\n      dup4\n        /* \"contracts/nft.sol\":9306:9317  nft.ownerOf */\n      tag_62\n        /* \"contracts/nft.sol\":9306:9326  nft.ownerOf(tokenId) */\n      jump\t// in\n    tag_197:\n        /* \"contracts/nft.sol\":9297:9340  Approval(nft.ownerOf(tokenId), to, tokenId) */\n      0xffffffffffffffffffffffffffffffffffffffff\n      and\n      0x8c5be1e5ebec7d5bd14f71427d1e84f3dd0314c0f7b2291e5b200ac8c7c3b925\n      mload(0x40)\n      mload(0x40)\n      dup1\n      swap2\n      sub\n      swap1\n      log4\n        /* \"contracts/nft.sol\":9177:9348  function _approve(address to, uint256 tokenId) internal virtual {\r... */\n      pop\n      pop\n      jump\t// out\n        /* \"contracts/nft.sol\":6031:6292  function _isApprovedOrOwner(address spender, uint256 tokenId) internal view virtual returns (bool) {\r... */\n    tag_127:\n        /* \"contracts/nft.sol\":6124:6128  bool */\n      0x00\n        /* \"contracts/nft.sol\":6141:6154  address owner */\n      dup1\n        /* \"contracts/nft.sol\":6157:6177  nft.ownerOf(tokenId) */\n      tag_199\n        /* \"contracts/nft.sol\":6169:6176  tokenId */\n      dup4\n        /* \"contracts/nft.sol\":6157:6168  nft.ownerOf */\n      tag_62\n        /* \"contracts/nft.sol\":6157:6177  nft.ownerOf(tokenId) */\n      jump\t// in\n    tag_199:\n        /* \"contracts/nft.sol\":6141:6177  address owner = nft.ownerOf(tokenId) */\n      swap1\n      pop\n        /* \"contracts/nft.sol\":6207:6212  owner */\n      dup1\n        /* \"contracts/nft.sol\":6196:6212  spender == owner */\n      0xffffffffffffffffffffffffffffffffffffffff\n      and\n        /* \"contracts/nft.sol\":6196:6203  spender */\n      dup5\n        /* \"contracts/nft.sol\":6196:6212  spender == owner */\n      0xffffffffffffffffffffffffffffffffffffffff\n      and\n      eq\n        /* \"contracts/nft.sol\":6196:6248  spender == owner || isApprovedForAll(owner, spender) */\n      dup1\n      tag_200\n      jumpi\n      pop\n        /* \"contracts/nft.sol\":6216:6248  isApprovedForAll(owner, spender) */\n      tag_201\n        /* \"contracts/nft.sol\":6233:6238  owner */\n      dup2\n        /* \"contracts/nft.sol\":6240:6247  spender */\n      dup6\n        /* \"contracts/nft.sol\":6216:6232  isApprovedForAll */\n      tag_87\n        /* \"contracts/nft.sol\":6216:6248  isApprovedForAll(owner, spender) */\n      jump\t// in\n    tag_201:\n        /* \"contracts/nft.sol\":6196:6248  spender == owner || isApprovedForAll(owner, spender) */\n    tag_200:\n        /* \"contracts/nft.sol\":6196:6283  spender == owner || isApprovedForAll(owner, spender) || getApproved(tokenId) == spender */\n      dup1\n      tag_202\n      jumpi\n      pop\n        /* \"contracts/nft.sol\":6276:6283  spender */\n      dup4\n        /* \"contracts/nft.sol\":6252:6283  getApproved(tokenId) == spender */\n      0xffffffffffffffffffffffffffffffffffffffff\n      and\n        /* \"contracts/nft.sol\":6252:6272  getApproved(tokenId) */\n      tag_203\n        /* \"contracts/nft.sol\":6264:6271  tokenId */\n      dup5\n        /* \"contracts/nft.sol\":6252:6263  getApproved */\n      tag_35\n        /* \"contracts/nft.sol\":6252:6272  getApproved(tokenId) */\n      jump\t// in\n    tag_203:\n        /* \"contracts/nft.sol\":6252:6283  getApproved(tokenId) == spender */\n      0xffffffffffffffffffffffffffffffffffffffff\n      and\n      eq\n        /* \"contracts/nft.sol\":6196:6283  spender == owner || isApprovedForAll(owner, spender) || getApproved(tokenId) == spender */\n    tag_202:\n        /* \"contracts/nft.sol\":6188:6284  return (spender == owner || isApprovedForAll(owner, spender) || getApproved(tokenId) == spender) */\n      swap2\n      pop\n      pop\n        /* \"contracts/nft.sol\":6031:6292  function _isApprovedOrOwner(address spender, uint256 tokenId) internal view virtual returns (bool) {\r... */\n      swap3\n      swap2\n      pop\n      pop\n      jump\t// out\n        /* \"contracts/nft.sol\":8410:9167  function _transfer(\r... */\n    tag_132:\n        /* \"contracts/nft.sol\":8566:8570  from */\n      dup3\n        /* \"contracts/nft.sol\":8542:8570  nft.ownerOf(tokenId) == from */\n      0xffffffffffffffffffffffffffffffffffffffff\n      and\n        /* \"contracts/nft.sol\":8542:8562  nft.ownerOf(tokenId) */\n      tag_205\n        /* \"contracts/nft.sol\":8554:8561  tokenId */\n      dup3\n        /* \"contracts/nft.sol\":8542:8553  nft.ownerOf */\n      tag_62\n        /* \"contracts/nft.sol\":8542:8562  nft.ownerOf(tokenId) */\n      jump\t// in\n    tag_205:\n        /* \"contracts/nft.sol\":8542:8570  nft.ownerOf(tokenId) == from */\n      0xffffffffffffffffffffffffffffffffffffffff\n      and\n      eq\n        /* \"contracts/nft.sol\":8534:8612  require(nft.ownerOf(tokenId) == from, \"ERC721: transfer from incorrect owner\") */\n      tag_206\n      jumpi\n      mload(0x40)\n      0x08c379a000000000000000000000000000000000000000000000000000000000\n      dup2\n      mstore\n      0x04\n      add\n      tag_207\n      swap1\n      tag_208\n      jump\t// in\n    tag_207:\n      mload(0x40)\n      dup1\n      swap2\n      sub\n      swap1\n      revert\n    tag_206:\n        /* \"contracts/nft.sol\":8645:8646  0 */\n      0x00\n        /* \"contracts/nft.sol\":8631:8647  to != address(0) */\n      0xffffffffffffffffffffffffffffffffffffffff\n      and\n        /* \"contracts/nft.sol\":8631:8633  to */\n      dup3\n        /* \"contracts/nft.sol\":8631:8647  to != address(0) */\n      0xffffffffffffffffffffffffffffffffffffffff\n      and\n      eq\n      iszero\n        /* \"contracts/nft.sol\":8623:8688  require(to != address(0), \"ERC721: transfer to the zero address\") */\n      tag_209\n      jumpi\n      mload(0x40)\n      0x08c379a000000000000000000000000000000000000000000000000000000000\n      dup2\n      mstore\n      0x04\n      add\n      tag_210\n      swap1\n      tag_211\n      jump\t// in\n    tag_210:\n      mload(0x40)\n      dup1\n      swap2\n      sub\n      swap1\n      revert\n    tag_209:\n        /* \"contracts/nft.sol\":8701:8740  _beforeTokenTransfer(from, to, tokenId) */\n      tag_212\n        /* \"contracts/nft.sol\":8722:8726  from */\n      dup4\n        /* \"contracts/nft.sol\":8728:8730  to */\n      dup4\n        /* \"contracts/nft.sol\":8732:8739  tokenId */\n      dup4\n        /* \"contracts/nft.sol\":8701:8721  _beforeTokenTransfer */\n      tag_213\n        /* \"contracts/nft.sol\":8701:8740  _beforeTokenTransfer(from, to, tokenId) */\n      jump\t// in\n    tag_212:\n        /* \"contracts/nft.sol\":8785:8789  from */\n      dup3\n        /* \"contracts/nft.sol\":8761:8789  nft.ownerOf(tokenId) == from */\n      0xffffffffffffffffffffffffffffffffffffffff\n      and\n        /* \"contracts/nft.sol\":8761:8781  nft.ownerOf(tokenId) */\n      tag_214\n        /* \"contracts/nft.sol\":8773:8780  tokenId */\n      dup3\n        /* \"contracts/nft.sol\":8761:8772  nft.ownerOf */\n      tag_62\n        /* \"contracts/nft.sol\":8761:8781  nft.ownerOf(tokenId) */\n      jump\t// in\n    tag_214:\n        /* \"contracts/nft.sol\":8761:8789  nft.ownerOf(tokenId) == from */\n      0xffffffffffffffffffffffffffffffffffffffff\n      and\n      eq\n        /* \"contracts/nft.sol\":8753:8831  require(nft.ownerOf(tokenId) == from, \"ERC721: transfer from incorrect owner\") */\n      tag_215\n      jumpi\n      mload(0x40)\n      0x08c379a000000000000000000000000000000000000000000000000000000000\n      dup2\n      mstore\n      0x04\n      add\n      tag_216\n      swap1\n      tag_208\n      jump\t// in\n    tag_216:\n      mload(0x40)\n      dup1\n      swap2\n      sub\n      swap1\n      revert\n    tag_215:\n        /* \"contracts/nft.sol\":8903:8918  _tokenApprovals */\n      0x07\n        /* \"contracts/nft.sol\":8903:8927  _tokenApprovals[tokenId] */\n      0x00\n        /* \"contracts/nft.sol\":8919:8926  tokenId */\n      dup3\n        /* \"contracts/nft.sol\":8903:8927  _tokenApprovals[tokenId] */\n      dup2\n      mstore\n      0x20\n      add\n      swap1\n      dup2\n      mstore\n      0x20\n      add\n      0x00\n      keccak256\n      0x00\n        /* \"contracts/nft.sol\":8896:8927  delete _tokenApprovals[tokenId] */\n      0x0100\n      exp\n      dup2\n      sload\n      swap1\n      0xffffffffffffffffffffffffffffffffffffffff\n      mul\n      not\n      and\n      swap1\n      sstore\n        /* \"contracts/nft.sol\":8986:8987  1 */\n      0x01\n        /* \"contracts/nft.sol\":8967:8976  _balances */\n      0x06\n        /* \"contracts/nft.sol\":8967:8982  _balances[from] */\n      0x00\n        /* \"contracts/nft.sol\":8977:8981  from */\n      dup6\n        /* \"contracts/nft.sol\":8967:8982  _balances[from] */\n      0xffffffffffffffffffffffffffffffffffffffff\n      and\n      0xffffffffffffffffffffffffffffffffffffffff\n      and\n      dup2\n      mstore\n      0x20\n      add\n      swap1\n      dup2\n      mstore\n      0x20\n      add\n      0x00\n      keccak256\n      0x00\n        /* \"contracts/nft.sol\":8967:8987  _balances[from] -= 1 */\n      dup3\n      dup3\n      sload\n      sub\n      swap3\n      pop\n      pop\n      dup2\n      swap1\n      sstore\n      pop\n        /* \"contracts/nft.sol\":9019:9020  1 */\n      0x01\n        /* \"contracts/nft.sol\":9002:9011  _balances */\n      0x06\n        /* \"contracts/nft.sol\":9002:9015  _balances[to] */\n      0x00\n        /* \"contracts/nft.sol\":9012:9014  to */\n      dup5\n        /* \"contracts/nft.sol\":9002:9015  _balances[to] */\n      0xffffffffffffffffffffffffffffffffffffffff\n      and\n      0xffffffffffffffffffffffffffffffffffffffff\n      and\n      dup2\n      mstore\n      0x20\n      add\n      swap1\n      dup2\n      mstore\n      0x20\n      add\n      0x00\n      keccak256\n      0x00\n        /* \"contracts/nft.sol\":9002:9020  _balances[to] += 1 */\n      dup3\n      dup3\n      sload\n      add\n      swap3\n      pop\n      pop\n      dup2\n      swap1\n      sstore\n      pop\n        /* \"contracts/nft.sol\":9061:9063  to */\n      dup2\n        /* \"contracts/nft.sol\":9042:9049  _owners */\n      0x03\n        /* \"contracts/nft.sol\":9042:9058  _owners[tokenId] */\n      0x00\n        /* \"contracts/nft.sol\":9050:9057  tokenId */\n      dup4\n        /* \"contracts/nft.sol\":9042:9058  _owners[tokenId] */\n      dup2\n      mstore\n      0x20\n      add\n      swap1\n      dup2\n      mstore\n      0x20\n      add\n      0x00\n      keccak256\n      0x00\n        /* \"contracts/nft.sol\":9042:9063  _owners[tokenId] = to */\n      0x0100\n      exp\n      dup2\n      sload\n      dup2\n      0xffffffffffffffffffffffffffffffffffffffff\n      mul\n      not\n      and\n      swap1\n      dup4\n      0xffffffffffffffffffffffffffffffffffffffff\n      and\n      mul\n      or\n      swap1\n      sstore\n      pop\n        /* \"contracts/nft.sol\":9100:9107  tokenId */\n      dup1\n        /* \"contracts/nft.sol\":9096:9098  to */\n      dup3\n        /* \"contracts/nft.sol\":9081:9108  Transfer(from, to, tokenId) */\n      0xffffffffffffffffffffffffffffffffffffffff\n      and\n        /* \"contracts/nft.sol\":9090:9094  from */\n      dup5\n        /* \"contracts/nft.sol\":9081:9108  Transfer(from, to, tokenId) */\n      0xffffffffffffffffffffffffffffffffffffffff\n      and\n      0xddf252ad1be2c89b69c2b068fc378daa952ba7f163c4a11628f55a4df523b3ef\n      mload(0x40)\n      mload(0x40)\n      dup1\n      swap2\n      sub\n      swap1\n      log4\n        /* \"contracts/nft.sol\":9121:9159  _afterTokenTransfer(from, to, tokenId) */\n      tag_217\n        /* \"contracts/nft.sol\":9141:9145  from */\n      dup4\n        /* \"contracts/nft.sol\":9147:9149  to */\n      dup4\n        /* \"contracts/nft.sol\":9151:9158  tokenId */\n      dup4\n        /* \"contracts/nft.sol\":9121:9140  _afterTokenTransfer */\n      tag_218\n        /* \"contracts/nft.sol\":9121:9159  _afterTokenTransfer(from, to, tokenId) */\n      jump\t// in\n    tag_217:\n        /* \"contracts/nft.sol\":8410:9167  function _transfer(\r... */\n      pop\n      pop\n      pop\n      jump\t// out\n        /* \"@openzeppelin/contracts@4.6.0/utils/Counters.sol\":945:1068  function increment(Counter storage counter) internal {... */\n    tag_135:\n        /* \"@openzeppelin/contracts@4.6.0/utils/Counters.sol\":1050:1051  1 */\n      0x01\n        /* \"@openzeppelin/contracts@4.6.0/utils/Counters.sol\":1032:1039  counter */\n      dup2\n        /* \"@openzeppelin/contracts@4.6.0/utils/Counters.sol\":1032:1046  counter._value */\n      0x00\n      add\n      0x00\n        /* \"@openzeppelin/contracts@4.6.0/utils/Counters.sol\":1032:1051  counter._value += 1 */\n      dup3\n      dup3\n      sload\n      add\n      swap3\n      pop\n      pop\n      dup2\n      swap1\n      sstore\n      pop\n        /* \"@openzeppelin/contracts@4.6.0/utils/Counters.sol\":945:1068  function increment(Counter storage counter) internal {... */\n      pop\n      jump\t// out\n        /* \"@openzeppelin/contracts@4.6.0/utils/Counters.sol\":827:939  function current(Counter storage counter) internal view returns (uint256) {... */\n    tag_137:\n        /* \"@openzeppelin/contracts@4.6.0/utils/Counters.sol\":892:899  uint256 */\n      0x00\n        /* \"@openzeppelin/contracts@4.6.0/utils/Counters.sol\":918:925  counter */\n      dup2\n        /* \"@openzeppelin/contracts@4.6.0/utils/Counters.sol\":918:932  counter._value */\n      0x00\n      add\n      sload\n        /* \"@openzeppelin/contracts@4.6.0/utils/Counters.sol\":911:932  return counter._value */\n      swap1\n      pop\n        /* \"@openzeppelin/contracts@4.6.0/utils/Counters.sol\":827:939  function current(Counter storage counter) internal view returns (uint256) {... */\n      swap2\n      swap1\n      pop\n      jump\t// out\n        /* \"contracts/nft.sol\":6300:6509  function _safeMint(address to,address[] memory collaborator,uint256[] memory collaboratorPercent,uint256 tokenId) internal virtual {\r... */\n    tag_139:\n        /* \"contracts/nft.sol\":6442:6501  _safeMint(to, collaborator,collaboratorPercent,tokenId, \"\") */\n      tag_222\n        /* \"contracts/nft.sol\":6452:6454  to */\n      dup5\n        /* \"contracts/nft.sol\":6456:6468  collaborator */\n      dup5\n        /* \"contracts/nft.sol\":6469:6488  collaboratorPercent */\n      dup5\n        /* \"contracts/nft.sol\":6489:6496  tokenId */\n      dup5\n        /* \"contracts/nft.sol\":6442:6501  _safeMint(to, collaborator,collaboratorPercent,tokenId, \"\") */\n      mload(0x40)\n      dup1\n      0x20\n      add\n      0x40\n      mstore\n      dup1\n      0x00\n      dup2\n      mstore\n      pop\n        /* \"contracts/nft.sol\":6442:6451  _safeMint */\n      tag_223\n        /* \"contracts/nft.sol\":6442:6501  _safeMint(to, collaborator,collaboratorPercent,tokenId, \"\") */\n      jump\t// in\n    tag_222:\n        /* \"contracts/nft.sol\":6300:6509  function _safeMint(address to,address[] memory collaborator,uint256[] memory collaboratorPercent,uint256 tokenId) internal virtual {\r... */\n      pop\n      pop\n      pop\n      pop\n      jump\t// out\n        /* \"contracts/nft.sol\":8183:8400  function _setTokenURI(uint256 tokenId, string memory _tokenURI) internal virtual {\r... */\n    tag_141:\n        /* \"contracts/nft.sol\":8283:8299  _exists(tokenId) */\n      tag_225\n        /* \"contracts/nft.sol\":8291:8298  tokenId */\n      dup3\n        /* \"contracts/nft.sol\":8283:8290  _exists */\n      tag_174\n        /* \"contracts/nft.sol\":8283:8299  _exists(tokenId) */\n      jump\t// in\n    tag_225:\n        /* \"contracts/nft.sol\":8275:8350  require(_exists(tokenId), \"ERC721URIStorage: URI set of nonexistent token\") */\n      tag_226\n      jumpi\n      mload(0x40)\n      0x08c379a000000000000000000000000000000000000000000000000000000000\n      dup2\n      mstore\n      0x04\n      add\n      tag_227\n      swap1\n      tag_228\n      jump\t// in\n    tag_227:\n      mload(0x40)\n      dup1\n      swap2\n      sub\n      swap1\n      revert\n    tag_226:\n        /* \"contracts/nft.sol\":8383:8392  _tokenURI */\n      dup1\n        /* \"contracts/nft.sol\":8361:8371  _tokenURIs */\n      0x09\n        /* \"contracts/nft.sol\":8361:8380  _tokenURIs[tokenId] */\n      0x00\n        /* \"contracts/nft.sol\":8372:8379  tokenId */\n      dup5\n        /* \"contracts/nft.sol\":8361:8380  _tokenURIs[tokenId] */\n      dup2\n      mstore\n      0x20\n      add\n      swap1\n      dup2\n      mstore\n      0x20\n      add\n      0x00\n      keccak256\n        /* \"contracts/nft.sol\":8361:8392  _tokenURIs[tokenId] = _tokenURI */\n      swap1\n      dup1\n      mload\n      swap1\n      0x20\n      add\n      swap1\n      tag_229\n      swap3\n      swap2\n      swap1\n      tag_230\n      jump\t// in\n    tag_229:\n      pop\n        /* \"contracts/nft.sol\":8183:8400  function _setTokenURI(uint256 tokenId, string memory _tokenURI) internal virtual {\r... */\n      pop\n      pop\n      jump\t// out\n        /* \"contracts/nft.sol\":9356:9671  function _setApprovalForAll(\r... */\n    tag_164:\n        /* \"contracts/nft.sol\":9511:9519  operator */\n      dup2\n        /* \"contracts/nft.sol\":9502:9519  owner != operator */\n      0xffffffffffffffffffffffffffffffffffffffff\n      and\n        /* \"contracts/nft.sol\":9502:9507  owner */\n      dup4\n        /* \"contracts/nft.sol\":9502:9519  owner != operator */\n      0xffffffffffffffffffffffffffffffffffffffff\n      and\n      eq\n      iszero\n        /* \"contracts/nft.sol\":9494:9549  require(owner != operator, \"ERC721: approve to caller\") */\n      tag_232\n      jumpi\n      mload(0x40)\n      0x08c379a000000000000000000000000000000000000000000000000000000000\n      dup2\n      mstore\n      0x04\n      add\n      tag_233\n      swap1\n      tag_234\n      jump\t// in\n    tag_233:\n      mload(0x40)\n      dup1\n      swap2\n      sub\n      swap1\n      revert\n    tag_232:\n        /* \"contracts/nft.sol\":9598:9606  approved */\n      dup1\n        /* \"contracts/nft.sol\":9560:9578  _operatorApprovals */\n      0x08\n        /* \"contracts/nft.sol\":9560:9585  _operatorApprovals[owner] */\n      0x00\n        /* \"contracts/nft.sol\":9579:9584  owner */\n      dup6\n        /* \"contracts/nft.sol\":9560:9585  _operatorApprovals[owner] */\n      0xffffffffffffffffffffffffffffffffffffffff\n      and\n      0xffffffffffffffffffffffffffffffffffffffff\n      and\n      dup2\n      mstore\n      0x20\n      add\n      swap1\n      dup2\n      mstore\n      0x20\n      add\n      0x00\n      keccak256\n        /* \"contracts/nft.sol\":9560:9595  _operatorApprovals[owner][operator] */\n      0x00\n        /* \"contracts/nft.sol\":9586:9594  operator */\n      dup5\n        /* \"contracts/nft.sol\":9560:9595  _operatorApprovals[owner][operator] */\n      0xffffffffffffffffffffffffffffffffffffffff\n      and\n      0xffffffffffffffffffffffffffffffffffffffff\n      and\n      dup2\n      mstore\n      0x20\n      add\n      swap1\n      dup2\n      mstore\n      0x20\n      add\n      0x00\n      keccak256\n      0x00\n        /* \"contracts/nft.sol\":9560:9606  _operatorApprovals[owner][operator] = approved */\n      0x0100\n      exp\n      dup2\n      sload\n      dup2\n      0xff\n      mul\n      not\n      and\n      swap1\n      dup4\n      iszero\n      iszero\n      mul\n      or\n      swap1\n      sstore\n      pop\n        /* \"contracts/nft.sol\":9644:9652  operator */\n      dup2\n        /* \"contracts/nft.sol\":9622:9663  ApprovalForAll(owner, operator, approved) */\n      0xffffffffffffffffffffffffffffffffffffffff\n      and\n        /* \"contracts/nft.sol\":9637:9642  owner */\n      dup4\n        /* \"contracts/nft.sol\":9622:9663  ApprovalForAll(owner, operator, approved) */\n      0xffffffffffffffffffffffffffffffffffffffff\n      and\n      0x17307eab39ab6107e8899845ad3d59bd9653f200f220920489ca2b5937696c31\n        /* \"contracts/nft.sol\":9654:9662  approved */\n      dup4\n        /* \"contracts/nft.sol\":9622:9663  ApprovalForAll(owner, operator, approved) */\n      mload(0x40)\n      tag_235\n      swap2\n      swap1\n      tag_27\n      jump\t// in\n    tag_235:\n      mload(0x40)\n      dup1\n      swap2\n      sub\n      swap1\n      log3\n        /* \"contracts/nft.sol\":9356:9671  function _setApprovalForAll(\r... */\n      pop\n      pop\n      pop\n      jump\t// out\n        /* \"contracts/nft.sol\":5573:5886  function _safeTransfer(\r... */\n    tag_171:\n        /* \"contracts/nft.sol\":5729:5757  _transfer(from, to, tokenId) */\n      tag_237\n        /* \"contracts/nft.sol\":5739:5743  from */\n      dup5\n        /* \"contracts/nft.sol\":5745:5747  to */\n      dup5\n        /* \"contracts/nft.sol\":5749:5756  tokenId */\n      dup5\n        /* \"contracts/nft.sol\":5729:5738  _transfer */\n      tag_132\n        /* \"contracts/nft.sol\":5729:5757  _transfer(from, to, tokenId) */\n      jump\t// in\n    tag_237:\n        /* \"contracts/nft.sol\":5776:5823  _checkOnERC721Received(from, to, tokenId, data) */\n      tag_238\n        /* \"contracts/nft.sol\":5799:5803  from */\n      dup5\n        /* \"contracts/nft.sol\":5805:5807  to */\n      dup5\n        /* \"contracts/nft.sol\":5809:5816  tokenId */\n      dup5\n        /* \"contracts/nft.sol\":5818:5822  data */\n      dup5\n        /* \"contracts/nft.sol\":5776:5798  _checkOnERC721Received */\n      tag_239\n        /* \"contracts/nft.sol\":5776:5823  _checkOnERC721Received(from, to, tokenId, data) */\n      jump\t// in\n    tag_238:\n        /* \"contracts/nft.sol\":5768:5878  require(_checkOnERC721Received(from, to, tokenId, data), \"ERC721: transfer to non ERC721Receiver implementer\") */\n      tag_240\n      jumpi\n      mload(0x40)\n      0x08c379a000000000000000000000000000000000000000000000000000000000\n      dup2\n      mstore\n      0x04\n      add\n      tag_241\n      swap1\n      tag_242\n      jump\t// in\n    tag_241:\n      mload(0x40)\n      dup1\n      swap2\n      sub\n      swap1\n      revert\n    tag_240:\n        /* \"contracts/nft.sol\":5573:5886  function _safeTransfer(\r... */\n      pop\n      pop\n      pop\n      pop\n      jump\t// out\n        /* \"contracts/nft.sol\":5894:6021  function _exists(uint256 tokenId) internal view virtual returns (bool) {\r... */\n    tag_174:\n        /* \"contracts/nft.sol\":5959:5963  bool */\n      0x00\n        /* \"contracts/nft.sol\":6011:6012  0 */\n      dup1\n        /* \"contracts/nft.sol\":5983:6013  _owners[tokenId] != address(0) */\n      0xffffffffffffffffffffffffffffffffffffffff\n      and\n        /* \"contracts/nft.sol\":5983:5990  _owners */\n      0x03\n        /* \"contracts/nft.sol\":5983:5999  _owners[tokenId] */\n      0x00\n        /* \"contracts/nft.sol\":5991:5998  tokenId */\n      dup5\n        /* \"contracts/nft.sol\":5983:5999  _owners[tokenId] */\n      dup2\n      mstore\n      0x20\n      add\n      swap1\n      dup2\n      mstore\n      0x20\n      add\n      0x00\n      keccak256\n      0x00\n      swap1\n      sload\n      swap1\n      0x0100\n      exp\n      swap1\n      div\n      0xffffffffffffffffffffffffffffffffffffffff\n      and\n        /* \"contracts/nft.sol\":5983:6013  _owners[tokenId] != address(0) */\n      0xffffffffffffffffffffffffffffffffffffffff\n      and\n      eq\n      iszero\n        /* \"contracts/nft.sol\":5976:6013  return _owners[tokenId] != address(0) */\n      swap1\n      pop\n        /* \"contracts/nft.sol\":5894:6021  function _exists(uint256 tokenId) internal view virtual returns (bool) {\r... */\n      swap2\n      swap1\n      pop\n      jump\t// out\n        /* \"contracts/nft.sol\":3347:3441  function _baseURI() internal view virtual returns (string memory) {\r... */\n    tag_179:\n        /* \"contracts/nft.sol\":3398:3411  string memory */\n      0x60\n        /* \"contracts/nft.sol\":3424:3433  return \"\" */\n      mload(0x40)\n      dup1\n      0x20\n      add\n      0x40\n      mstore\n      dup1\n      0x00\n      dup2\n      mstore\n      pop\n      swap1\n      pop\n        /* \"contracts/nft.sol\":3347:3441  function _baseURI() internal view virtual returns (string memory) {\r... */\n      swap1\n      jump\t// out\n        /* \"@openzeppelin/contracts@4.6.0/utils/Strings.sol\":328:1031  function toString(uint256 value) internal pure returns (string memory) {... */\n    tag_183:\n        /* \"@openzeppelin/contracts@4.6.0/utils/Strings.sol\":384:397  string memory */\n      0x60\n        /* \"@openzeppelin/contracts@4.6.0/utils/Strings.sol\":610:611  0 */\n      0x00\n        /* \"@openzeppelin/contracts@4.6.0/utils/Strings.sol\":601:606  value */\n      dup3\n        /* \"@openzeppelin/contracts@4.6.0/utils/Strings.sol\":601:611  value == 0 */\n      eq\n        /* \"@openzeppelin/contracts@4.6.0/utils/Strings.sol\":597:648  if (value == 0) {... */\n      iszero\n      tag_246\n      jumpi\n        /* \"@openzeppelin/contracts@4.6.0/utils/Strings.sol\":627:637  return \"0\" */\n      mload(0x40)\n      dup1\n      0x40\n      add\n      0x40\n      mstore\n      dup1\n      0x01\n      dup2\n      mstore\n      0x20\n      add\n      0x3000000000000000000000000000000000000000000000000000000000000000\n      dup2\n      mstore\n      pop\n      swap1\n      pop\n      jump(tag_245)\n        /* \"@openzeppelin/contracts@4.6.0/utils/Strings.sol\":597:648  if (value == 0) {... */\n    tag_246:\n        /* \"@openzeppelin/contracts@4.6.0/utils/Strings.sol\":657:669  uint256 temp */\n      0x00\n        /* \"@openzeppelin/contracts@4.6.0/utils/Strings.sol\":672:677  value */\n      dup3\n        /* \"@openzeppelin/contracts@4.6.0/utils/Strings.sol\":657:677  uint256 temp = value */\n      swap1\n      pop\n        /* \"@openzeppelin/contracts@4.6.0/utils/Strings.sol\":687:701  uint256 digits */\n      0x00\n        /* \"@openzeppelin/contracts@4.6.0/utils/Strings.sol\":711:786  while (temp != 0) {... */\n    tag_247:\n        /* \"@openzeppelin/contracts@4.6.0/utils/Strings.sol\":726:727  0 */\n      0x00\n        /* \"@openzeppelin/contracts@4.6.0/utils/Strings.sol\":718:722  temp */\n      dup3\n        /* \"@openzeppelin/contracts@4.6.0/utils/Strings.sol\":718:727  temp != 0 */\n      eq\n        /* \"@openzeppelin/contracts@4.6.0/utils/Strings.sol\":711:786  while (temp != 0) {... */\n      tag_248\n      jumpi\n        /* \"@openzeppelin/contracts@4.6.0/utils/Strings.sol\":743:751  digits++ */\n      dup1\n      dup1\n      tag_249\n      swap1\n      tag_250\n      jump\t// in\n    tag_249:\n      swap2\n      pop\n      pop\n        /* \"@openzeppelin/contracts@4.6.0/utils/Strings.sol\":773:775  10 */\n      0x0a\n        /* \"@openzeppelin/contracts@4.6.0/utils/Strings.sol\":765:775  temp /= 10 */\n      dup3\n      tag_251\n      swap2\n      swap1\n      tag_252\n      jump\t// in\n    tag_251:\n      swap2\n      pop\n        /* \"@openzeppelin/contracts@4.6.0/utils/Strings.sol\":711:786  while (temp != 0) {... */\n      jump(tag_247)\n    tag_248:\n        /* \"@openzeppelin/contracts@4.6.0/utils/Strings.sol\":795:814  bytes memory buffer */\n      0x00\n        /* \"@openzeppelin/contracts@4.6.0/utils/Strings.sol\":827:833  digits */\n      dup2\n        /* \"@openzeppelin/contracts@4.6.0/utils/Strings.sol\":817:834  new bytes(digits) */\n      0xffffffffffffffff\n      dup2\n      gt\n      iszero\n      tag_253\n      jumpi\n      mstore(0x00, 0x4e487b7100000000000000000000000000000000000000000000000000000000)\n      mstore(0x04, 0x41)\n      revert(0x00, 0x24)\n    tag_253:\n      mload(0x40)\n      swap1\n      dup1\n      dup3\n      mstore\n      dup1\n      0x1f\n      add\n      not(0x1f)\n      and\n      0x20\n      add\n      dup3\n      add\n      0x40\n      mstore\n      dup1\n      iszero\n      tag_254\n      jumpi\n      dup2\n      0x20\n      add\n      0x01\n      dup3\n      mul\n      dup1\n      calldatasize\n      dup4\n      calldatacopy\n      dup1\n      dup3\n      add\n      swap2\n      pop\n      pop\n      swap1\n      pop\n    tag_254:\n      pop\n        /* \"@openzeppelin/contracts@4.6.0/utils/Strings.sol\":795:834  bytes memory buffer = new bytes(digits) */\n      swap1\n      pop\n        /* \"@openzeppelin/contracts@4.6.0/utils/Strings.sol\":844:994  while (value != 0) {... */\n    tag_255:\n        /* \"@openzeppelin/contracts@4.6.0/utils/Strings.sol\":860:861  0 */\n      0x00\n        /* \"@openzeppelin/contracts@4.6.0/utils/Strings.sol\":851:856  value */\n      dup6\n        /* \"@openzeppelin/contracts@4.6.0/utils/Strings.sol\":851:861  value != 0 */\n      eq\n        /* \"@openzeppelin/contracts@4.6.0/utils/Strings.sol\":844:994  while (value != 0) {... */\n      tag_256\n      jumpi\n        /* \"@openzeppelin/contracts@4.6.0/utils/Strings.sol\":887:888  1 */\n      0x01\n        /* \"@openzeppelin/contracts@4.6.0/utils/Strings.sol\":877:888  digits -= 1 */\n      dup3\n      tag_257\n      swap2\n      swap1\n      tag_258\n      jump\t// in\n    tag_257:\n      swap2\n      pop\n        /* \"@openzeppelin/contracts@4.6.0/utils/Strings.sol\":953:955  10 */\n      0x0a\n        /* \"@openzeppelin/contracts@4.6.0/utils/Strings.sol\":945:950  value */\n      dup6\n        /* \"@openzeppelin/contracts@4.6.0/utils/Strings.sol\":945:955  value % 10 */\n      tag_259\n      swap2\n      swap1\n      tag_260\n      jump\t// in\n    tag_259:\n        /* \"@openzeppelin/contracts@4.6.0/utils/Strings.sol\":932:934  48 */\n      0x30\n        /* \"@openzeppelin/contracts@4.6.0/utils/Strings.sol\":932:956  48 + uint256(value % 10) */\n      tag_261\n      swap2\n      swap1\n      tag_262\n      jump\t// in\n    tag_261:\n        /* \"@openzeppelin/contracts@4.6.0/utils/Strings.sol\":919:958  bytes1(uint8(48 + uint256(value % 10))) */\n      0xf8\n      shl\n        /* \"@openzeppelin/contracts@4.6.0/utils/Strings.sol\":902:908  buffer */\n      dup2\n        /* \"@openzeppelin/contracts@4.6.0/utils/Strings.sol\":909:915  digits */\n      dup4\n        /* \"@openzeppelin/contracts@4.6.0/utils/Strings.sol\":902:916  buffer[digits] */\n      dup2\n      mload\n      dup2\n      lt\n      tag_263\n      jumpi\n      mstore(0x00, 0x4e487b7100000000000000000000000000000000000000000000000000000000)\n      mstore(0x04, 0x32)\n      revert(0x00, 0x24)\n    tag_263:\n      0x20\n      add\n      add\n        /* \"@openzeppelin/contracts@4.6.0/utils/Strings.sol\":902:958  buffer[digits] = bytes1(uint8(48 + uint256(value % 10))) */\n      swap1\n      not(0xffffffffffffffffffffffffffffffffffffffffffffffffffffffffffffff)\n      and\n      swap1\n      dup2\n      0x00\n      byte\n      swap1\n      mstore8\n      pop\n        /* \"@openzeppelin/contracts@4.6.0/utils/Strings.sol\":981:983  10 */\n      0x0a\n        /* \"@openzeppelin/contracts@4.6.0/utils/Strings.sol\":972:983  value /= 10 */\n      dup6\n      tag_264\n      swap2\n      swap1\n      tag_252\n      jump\t// in\n    tag_264:\n      swap5\n      pop\n        /* \"@openzeppelin/contracts@4.6.0/utils/Strings.sol\":844:994  while (value != 0) {... */\n      jump(tag_255)\n    tag_256:\n        /* \"@openzeppelin/contracts@4.6.0/utils/Strings.sol\":1017:1023  buffer */\n      dup1\n        /* \"@openzeppelin/contracts@4.6.0/utils/Strings.sol\":1003:1024  return string(buffer) */\n      swap4\n      pop\n      pop\n      pop\n      pop\n        /* \"@openzeppelin/contracts@4.6.0/utils/Strings.sol\":328:1031  function toString(uint256 value) internal pure returns (string memory) {... */\n    tag_245:\n      swap2\n      swap1\n      pop\n      jump\t// out\n        /* \"contracts/nft.sol\":10687:10813  function _beforeTokenTransfer(\r... */\n    tag_213:\n      pop\n      pop\n      pop\n      jump\t// out\n        /* \"contracts/nft.sol\":10821:10946  function _afterTokenTransfer(\r... */\n    tag_218:\n      pop\n      pop\n      pop\n      jump\t// out\n        /* \"contracts/nft.sol\":6517:6958  function _safeMint(\r... */\n    tag_223:\n        /* \"contracts/nft.sol\":6734:6786  _mint(to, collaborator,collaboratorPercent, tokenId) */\n      tag_268\n        /* \"contracts/nft.sol\":6740:6742  to */\n      dup6\n        /* \"contracts/nft.sol\":6744:6756  collaborator */\n      dup6\n        /* \"contracts/nft.sol\":6757:6776  collaboratorPercent */\n      dup6\n        /* \"contracts/nft.sol\":6778:6785  tokenId */\n      dup6\n        /* \"contracts/nft.sol\":6734:6739  _mint */\n      tag_269\n        /* \"contracts/nft.sol\":6734:6786  _mint(to, collaborator,collaboratorPercent, tokenId) */\n      jump\t// in\n    tag_268:\n        /* \"contracts/nft.sol\":6819:6872  _checkOnERC721Received(address(0), to, tokenId, data) */\n      tag_270\n        /* \"contracts/nft.sol\":6850:6851  0 */\n      0x00\n        /* \"contracts/nft.sol\":6854:6856  to */\n      dup7\n        /* \"contracts/nft.sol\":6858:6865  tokenId */\n      dup5\n        /* \"contracts/nft.sol\":6867:6871  data */\n      dup5\n        /* \"contracts/nft.sol\":6819:6841  _checkOnERC721Received */\n      tag_239\n        /* \"contracts/nft.sol\":6819:6872  _checkOnERC721Received(address(0), to, tokenId, data) */\n      jump\t// in\n    tag_270:\n        /* \"contracts/nft.sol\":6797:6950  require(\r... */\n      tag_271\n      jumpi\n      mload(0x40)\n      0x08c379a000000000000000000000000000000000000000000000000000000000\n      dup2\n      mstore\n      0x04\n      add\n      tag_272\n      swap1\n      tag_242\n      jump\t// in\n    tag_272:\n      mload(0x40)\n      dup1\n      swap2\n      sub\n      swap1\n      revert\n    tag_271:\n        /* \"contracts/nft.sol\":6517:6958  function _safeMint(\r... */\n      pop\n      pop\n      pop\n      pop\n      pop\n      jump\t// out\n        /* \"contracts/nft.sol\":9824:10677  function _checkOnERC721Received(\r... */\n    tag_239:\n        /* \"contracts/nft.sol\":9978:9982  bool */\n      0x00\n        /* \"contracts/nft.sol\":9999:10014  to.isContract() */\n      tag_274\n        /* \"contracts/nft.sol\":9999:10001  to */\n      dup5\n        /* \"contracts/nft.sol\":9999:10012  to.isContract */\n      0xffffffffffffffffffffffffffffffffffffffff\n      and\n      tag_275\n        /* \"contracts/nft.sol\":9999:10014  to.isContract() */\n      jump\t// in\n    tag_274:\n        /* \"contracts/nft.sol\":9995:10670  if (to.isContract()) {\r... */\n      iszero\n      tag_276\n      jumpi\n        /* \"contracts/nft.sol\":10051:10053  to */\n      dup4\n        /* \"contracts/nft.sol\":10035:10071  IERC721Receiver(to).onERC721Received */\n      0xffffffffffffffffffffffffffffffffffffffff\n      and\n      0x150b7a02\n        /* \"contracts/nft.sol\":10072:10084  _msgSender() */\n      tag_277\n        /* \"contracts/nft.sol\":10072:10082  _msgSender */\n      tag_115\n        /* \"contracts/nft.sol\":10072:10084  _msgSender() */\n      jump\t// in\n    tag_277:\n        /* \"contracts/nft.sol\":10086:10090  from */\n      dup8\n        /* \"contracts/nft.sol\":10092:10099  tokenId */\n      dup7\n        /* \"contracts/nft.sol\":10101:10105  data */\n      dup7\n        /* \"contracts/nft.sol\":10035:10106  IERC721Receiver(to).onERC721Received(_msgSender(), from, tokenId, data) */\n      mload(0x40)\n      dup6\n      0xffffffff\n      and\n      0xe0\n      shl\n      dup2\n      mstore\n      0x04\n      add\n      tag_278\n      swap5\n      swap4\n      swap3\n      swap2\n      swap1\n      tag_279\n      jump\t// in\n    tag_278:\n      0x20\n      mload(0x40)\n      dup1\n      dup4\n      sub\n      dup2\n      0x00\n      dup8\n      dup1\n      extcodesize\n      iszero\n      dup1\n      iszero\n      tag_280\n      jumpi\n      0x00\n      dup1\n      revert\n    tag_280:\n      pop\n      gas\n      call\n      swap3\n      pop\n      pop\n      pop\n      dup1\n      iszero\n      tag_281\n      jumpi\n      pop\n      mload(0x40)\n      returndatasize\n      not(0x1f)\n      0x1f\n      dup3\n      add\n      and\n      dup3\n      add\n      dup1\n      0x40\n      mstore\n      pop\n      dup2\n      add\n      swap1\n      tag_282\n      swap2\n      swap1\n      tag_283\n      jump\t// in\n    tag_282:\n      0x01\n    tag_281:\n        /* \"contracts/nft.sol\":10031:10615  try IERC721Receiver(to).onERC721Received(_msgSender(), from, tokenId, data) returns (bytes4 retval) {\r... */\n      tag_284\n      jumpi\n      returndatasize\n      dup1\n      0x00\n      dup2\n      eq\n      tag_289\n      jumpi\n      mload(0x40)\n      swap2\n      pop\n      and(add(returndatasize, 0x3f), not(0x1f))\n      dup3\n      add\n      0x40\n      mstore\n      returndatasize\n      dup3\n      mstore\n      returndatasize\n      0x00\n      0x20\n      dup5\n      add\n      returndatacopy\n      jump(tag_288)\n    tag_289:\n      0x60\n      swap2\n      pop\n    tag_288:\n      pop\n        /* \"contracts/nft.sol\":10293:10294  0 */\n      0x00\n        /* \"contracts/nft.sol\":10276:10282  reason */\n      dup2\n        /* \"contracts/nft.sol\":10276:10289  reason.length */\n      mload\n        /* \"contracts/nft.sol\":10276:10294  reason.length == 0 */\n      eq\n        /* \"contracts/nft.sol\":10272:10600  if (reason.length == 0) {\r... */\n      iszero\n      tag_290\n      jumpi\n        /* \"contracts/nft.sol\":10319:10379  revert(\"ERC721: transfer to non ERC721Receiver implementer\") */\n      mload(0x40)\n      0x08c379a000000000000000000000000000000000000000000000000000000000\n      dup2\n      mstore\n      0x04\n      add\n      tag_291\n      swap1\n      tag_242\n      jump\t// in\n    tag_291:\n      mload(0x40)\n      dup1\n      swap2\n      sub\n      swap1\n      revert\n        /* \"contracts/nft.sol\":10272:10600  if (reason.length == 0) {\r... */\n    tag_290:\n        /* \"contracts/nft.sol\":10550:10556  reason */\n      dup1\n        /* \"contracts/nft.sol\":10544:10557  mload(reason) */\n      mload\n        /* \"contracts/nft.sol\":10535:10541  reason */\n      dup2\n        /* \"contracts/nft.sol\":10531:10533  32 */\n      0x20\n        /* \"contracts/nft.sol\":10527:10542  add(32, reason) */\n      add\n        /* \"contracts/nft.sol\":10520:10558  revert(add(32, reason), mload(reason)) */\n      revert\n        /* \"contracts/nft.sol\":10031:10615  try IERC721Receiver(to).onERC721Received(_msgSender(), from, tokenId, data) returns (bytes4 retval) {\r... */\n    tag_284:\n        /* \"contracts/nft.sol\":10167:10208  IERC721Receiver.onERC721Received.selector */\n      shl(0xe0, 0x150b7a02)\n        /* \"contracts/nft.sol\":10157:10208  retval == IERC721Receiver.onERC721Received.selector */\n      not(0xffffffffffffffffffffffffffffffffffffffffffffffffffffffff)\n      and\n        /* \"contracts/nft.sol\":10157:10163  retval */\n      dup2\n        /* \"contracts/nft.sol\":10157:10208  retval == IERC721Receiver.onERC721Received.selector */\n      not(0xffffffffffffffffffffffffffffffffffffffffffffffffffffffff)\n      and\n      eq\n        /* \"contracts/nft.sol\":10150:10208  return retval == IERC721Receiver.onERC721Received.selector */\n      swap2\n      pop\n      pop\n      jump(tag_273)\n        /* \"contracts/nft.sol\":9995:10670  if (to.isContract()) {\r... */\n    tag_276:\n        /* \"contracts/nft.sol\":10654:10658  true */\n      0x01\n        /* \"contracts/nft.sol\":10647:10658  return true */\n      swap1\n      pop\n        /* \"contracts/nft.sol\":9824:10677  function _checkOnERC721Received(\r... */\n    tag_273:\n      swap5\n      swap4\n      pop\n      pop\n      pop\n      pop\n      jump\t// out\n        /* \"contracts/nft.sol\":6966:7694  function _mint(address to,address[] memory collaborator,uint256[] memory collaboratorPercent,uint256 tokenId) internal virtual {\r... */\n    tag_269:\n        /* \"contracts/nft.sol\":7126:7127  0 */\n      0x00\n        /* \"contracts/nft.sol\":7112:7128  to != address(0) */\n      0xffffffffffffffffffffffffffffffffffffffff\n      and\n        /* \"contracts/nft.sol\":7112:7114  to */\n      dup5\n        /* \"contracts/nft.sol\":7112:7128  to != address(0) */\n      0xffffffffffffffffffffffffffffffffffffffff\n      and\n      eq\n      iszero\n        /* \"contracts/nft.sol\":7104:7165  require(to != address(0), \"ERC721: mint to the zero address\") */\n      tag_296\n      jumpi\n      mload(0x40)\n      0x08c379a000000000000000000000000000000000000000000000000000000000\n      dup2\n      mstore\n      0x04\n      add\n      tag_297\n      swap1\n      tag_298\n      jump\t// in\n    tag_297:\n      mload(0x40)\n      dup1\n      swap2\n      sub\n      swap1\n      revert\n    tag_296:\n        /* \"contracts/nft.sol\":7185:7201  _exists(tokenId) */\n      tag_299\n        /* \"contracts/nft.sol\":7193:7200  tokenId */\n      dup2\n        /* \"contracts/nft.sol\":7185:7192  _exists */\n      tag_174\n        /* \"contracts/nft.sol\":7185:7201  _exists(tokenId) */\n      jump\t// in\n    tag_299:\n        /* \"contracts/nft.sol\":7184:7201  !_exists(tokenId) */\n      iszero\n        /* \"contracts/nft.sol\":7176:7234  require(!_exists(tokenId), \"ERC721: token already minted\") */\n      tag_300\n      jumpi\n      mload(0x40)\n      0x08c379a000000000000000000000000000000000000000000000000000000000\n      dup2\n      mstore\n      0x04\n      add\n      tag_301\n      swap1\n      tag_302\n      jump\t// in\n    tag_301:\n      mload(0x40)\n      dup1\n      swap2\n      sub\n      swap1\n      revert\n    tag_300:\n        /* \"contracts/nft.sol\":7247:7292  _beforeTokenTransfer(address(0), to, tokenId) */\n      tag_303\n        /* \"contracts/nft.sol\":7276:7277  0 */\n      0x00\n        /* \"contracts/nft.sol\":7280:7282  to */\n      dup6\n        /* \"contracts/nft.sol\":7284:7291  tokenId */\n      dup4\n        /* \"contracts/nft.sol\":7247:7267  _beforeTokenTransfer */\n      tag_213\n        /* \"contracts/nft.sol\":7247:7292  _beforeTokenTransfer(address(0), to, tokenId) */\n      jump\t// in\n    tag_303:\n        /* \"contracts/nft.sol\":7314:7330  _exists(tokenId) */\n      tag_304\n        /* \"contracts/nft.sol\":7322:7329  tokenId */\n      dup2\n        /* \"contracts/nft.sol\":7314:7321  _exists */\n      tag_174\n        /* \"contracts/nft.sol\":7314:7330  _exists(tokenId) */\n      jump\t// in\n    tag_304:\n        /* \"contracts/nft.sol\":7313:7330  !_exists(tokenId) */\n      iszero\n        /* \"contracts/nft.sol\":7305:7363  require(!_exists(tokenId), \"ERC721: token already minted\") */\n      tag_305\n      jumpi\n      mload(0x40)\n      0x08c379a000000000000000000000000000000000000000000000000000000000\n      dup2\n      mstore\n      0x04\n      add\n      tag_306\n      swap1\n      tag_302\n      jump\t// in\n    tag_306:\n      mload(0x40)\n      dup1\n      swap2\n      sub\n      swap1\n      revert\n    tag_305:\n        /* \"contracts/nft.sol\":7418:7419  1 */\n      0x01\n        /* \"contracts/nft.sol\":7401:7410  _balances */\n      0x06\n        /* \"contracts/nft.sol\":7401:7414  _balances[to] */\n      0x00\n        /* \"contracts/nft.sol\":7411:7413  to */\n      dup7\n        /* \"contracts/nft.sol\":7401:7414  _balances[to] */\n      0xffffffffffffffffffffffffffffffffffffffff\n      and\n      0xffffffffffffffffffffffffffffffffffffffff\n      and\n      dup2\n      mstore\n      0x20\n      add\n      swap1\n      dup2\n      mstore\n      0x20\n      add\n      0x00\n      keccak256\n      0x00\n        /* \"contracts/nft.sol\":7401:7419  _balances[to] += 1 */\n      dup3\n      dup3\n      sload\n      add\n      swap3\n      pop\n      pop\n      dup2\n      swap1\n      sstore\n      pop\n        /* \"contracts/nft.sol\":7462:7464  to */\n      dup4\n        /* \"contracts/nft.sol\":7443:7450  _owners */\n      0x03\n        /* \"contracts/nft.sol\":7443:7459  _owners[tokenId] */\n      0x00\n        /* \"contracts/nft.sol\":7451:7458  tokenId */\n      dup4\n        /* \"contracts/nft.sol\":7443:7459  _owners[tokenId] */\n      dup2\n      mstore\n      0x20\n      add\n      swap1\n      dup2\n      mstore\n      0x20\n      add\n      0x00\n      keccak256\n      0x00\n        /* \"contracts/nft.sol\":7443:7464  _owners[tokenId] = to */\n      0x0100\n      exp\n      dup2\n      sload\n      dup2\n      0xffffffffffffffffffffffffffffffffffffffff\n      mul\n      not\n      and\n      swap1\n      dup4\n      0xffffffffffffffffffffffffffffffffffffffff\n      and\n      mul\n      or\n      swap1\n      sstore\n      pop\n        /* \"contracts/nft.sol\":7501:7513  collaborator */\n      dup3\n        /* \"contracts/nft.sol\":7475:7489  _collaborators */\n      0x04\n        /* \"contracts/nft.sol\":7475:7498  _collaborators[tokenId] */\n      0x00\n        /* \"contracts/nft.sol\":7490:7497  tokenId */\n      dup4\n        /* \"contracts/nft.sol\":7475:7498  _collaborators[tokenId] */\n      dup2\n      mstore\n      0x20\n      add\n      swap1\n      dup2\n      mstore\n      0x20\n      add\n      0x00\n      keccak256\n        /* \"contracts/nft.sol\":7475:7513  _collaborators[tokenId] = collaborator */\n      swap1\n      dup1\n      mload\n      swap1\n      0x20\n      add\n      swap1\n      tag_307\n      swap3\n      swap2\n      swap1\n      tag_308\n      jump\t// in\n    tag_307:\n      pop\n        /* \"contracts/nft.sol\":7559:7578  collaboratorPercent */\n      dup2\n        /* \"contracts/nft.sol\":7523:7547  _collaboratorsPercentage */\n      0x05\n        /* \"contracts/nft.sol\":7523:7556  _collaboratorsPercentage[tokenId] */\n      0x00\n        /* \"contracts/nft.sol\":7548:7555  tokenId */\n      dup4\n        /* \"contracts/nft.sol\":7523:7556  _collaboratorsPercentage[tokenId] */\n      dup2\n      mstore\n      0x20\n      add\n      swap1\n      dup2\n      mstore\n      0x20\n      add\n      0x00\n      keccak256\n        /* \"contracts/nft.sol\":7523:7578  _collaboratorsPercentage[tokenId] = collaboratorPercent */\n      swap1\n      dup1\n      mload\n      swap1\n      0x20\n      add\n      swap1\n      tag_309\n      swap3\n      swap2\n      swap1\n      tag_310\n      jump\t// in\n    tag_309:\n      pop\n        /* \"contracts/nft.sol\":7621:7628  tokenId */\n      dup1\n        /* \"contracts/nft.sol\":7617:7619  to */\n      dup5\n        /* \"contracts/nft.sol\":7596:7629  Transfer(address(0), to, tokenId) */\n      0xffffffffffffffffffffffffffffffffffffffff\n      and\n        /* \"contracts/nft.sol\":7613:7614  0 */\n      0x00\n        /* \"contracts/nft.sol\":7596:7629  Transfer(address(0), to, tokenId) */\n      0xffffffffffffffffffffffffffffffffffffffff\n      and\n      0xddf252ad1be2c89b69c2b068fc378daa952ba7f163c4a11628f55a4df523b3ef\n      mload(0x40)\n      mload(0x40)\n      dup1\n      swap2\n      sub\n      swap1\n      log4\n        /* \"contracts/nft.sol\":7642:7686  _afterTokenTransfer(address(0), to, tokenId) */\n      tag_311\n        /* \"contracts/nft.sol\":7670:7671  0 */\n      0x00\n        /* \"contracts/nft.sol\":7674:7676  to */\n      dup6\n        /* \"contracts/nft.sol\":7678:7685  tokenId */\n      dup4\n        /* \"contracts/nft.sol\":7642:7661  _afterTokenTransfer */\n      tag_218\n        /* \"contracts/nft.sol\":7642:7686  _afterTokenTransfer(address(0), to, tokenId) */\n      jump\t// in\n    tag_311:\n        /* \"contracts/nft.sol\":6966:7694  function _mint(address to,address[] memory collaborator,uint256[] memory collaboratorPercent,uint256 tokenId) internal virtual {\r... */\n      pop\n      pop\n      pop\n      pop\n      jump\t// out\n        /* \"@openzeppelin/contracts@4.6.0/utils/Address.sol\":1175:1495  function isContract(address account) internal view returns (bool) {... */\n    tag_275:\n        /* \"@openzeppelin/contracts@4.6.0/utils/Address.sol\":1235:1239  bool */\n      0x00\n        /* \"@openzeppelin/contracts@4.6.0/utils/Address.sol\":1487:1488  0 */\n      dup1\n        /* \"@openzeppelin/contracts@4.6.0/utils/Address.sol\":1465:1472  account */\n      dup3\n        /* \"@openzeppelin/contracts@4.6.0/utils/Address.sol\":1465:1484  account.code.length */\n      0xffffffffffffffffffffffffffffffffffffffff\n      and\n      extcodesize\n        /* \"@openzeppelin/contracts@4.6.0/utils/Address.sol\":1465:1488  account.code.length > 0 */\n      gt\n        /* \"@openzeppelin/contracts@4.6.0/utils/Address.sol\":1458:1488  return account.code.length > 0 */\n      swap1\n      pop\n        /* \"@openzeppelin/contracts@4.6.0/utils/Address.sol\":1175:1495  function isContract(address account) internal view returns (bool) {... */\n      swap2\n      swap1\n      pop\n      jump\t// out\n    tag_230:\n      dup3\n      dup1\n      sload\n      tag_313\n      swap1\n      tag_101\n      jump\t// in\n    tag_313:\n      swap1\n      0x00\n      mstore\n      keccak256(0x00, 0x20)\n      swap1\n      0x1f\n      add\n      0x20\n      swap1\n      div\n      dup2\n      add\n      swap3\n      dup3\n      tag_315\n      jumpi\n      0x00\n      dup6\n      sstore\n      jump(tag_314)\n    tag_315:\n      dup3\n      0x1f\n      lt\n      tag_316\n      jumpi\n      dup1\n      mload\n      not(0xff)\n      and\n      dup4\n      dup1\n      add\n      or\n      dup6\n      sstore\n      jump(tag_314)\n    tag_316:\n      dup3\n      dup1\n      add\n      0x01\n      add\n      dup6\n      sstore\n      dup3\n      iszero\n      tag_314\n      jumpi\n      swap2\n      dup3\n      add\n    tag_317:\n      dup3\n      dup2\n      gt\n      iszero\n      tag_318\n      jumpi\n      dup3\n      mload\n      dup3\n      sstore\n      swap2\n      0x20\n      add\n      swap2\n      swap1\n      0x01\n      add\n      swap1\n      jump(tag_317)\n    tag_318:\n    tag_314:\n      pop\n      swap1\n      pop\n      tag_319\n      swap2\n      swap1\n      tag_320\n      jump\t// in\n    tag_319:\n      pop\n      swap1\n      jump\t// out\n    tag_308:\n      dup3\n      dup1\n      sload\n      dup3\n      dup3\n      sstore\n      swap1\n      0x00\n      mstore\n      keccak256(0x00, 0x20)\n      swap1\n      dup2\n      add\n      swap3\n      dup3\n      iszero\n      tag_321\n      jumpi\n      swap2\n      0x20\n      mul\n      dup3\n      add\n    tag_322:\n      dup3\n      dup2\n      gt\n      iszero\n      tag_323\n      jumpi\n      dup3\n      mload\n      dup3\n      exp(0x0100, 0x00)\n      dup2\n      sload\n      dup2\n      0xffffffffffffffffffffffffffffffffffffffff\n      mul\n      not\n      and\n      swap1\n      dup4\n      0xffffffffffffffffffffffffffffffffffffffff\n      and\n      mul\n      or\n      swap1\n      sstore\n      pop\n      swap2\n      0x20\n      add\n      swap2\n      swap1\n      0x01\n      add\n      swap1\n      jump(tag_322)\n    tag_323:\n    tag_321:\n      pop\n      swap1\n      pop\n      tag_324\n      swap2\n      swap1\n      tag_320\n      jump\t// in\n    tag_324:\n      pop\n      swap1\n      jump\t// out\n    tag_310:\n      dup3\n      dup1\n      sload\n      dup3\n      dup3\n      sstore\n      swap1\n      0x00\n      mstore\n      keccak256(0x00, 0x20)\n      swap1\n      dup2\n      add\n      swap3\n      dup3\n      iszero\n      tag_325\n      jumpi\n      swap2\n      0x20\n      mul\n      dup3\n      add\n    tag_326:\n      dup3\n      dup2\n      gt\n      iszero\n      tag_327\n      jumpi\n      dup3\n      mload\n      dup3\n      sstore\n      swap2\n      0x20\n      add\n      swap2\n      swap1\n      0x01\n      add\n      swap1\n      jump(tag_326)\n    tag_327:\n    tag_325:\n      pop\n      swap1\n      pop\n      tag_328\n      swap2\n      swap1\n      tag_320\n      jump\t// in\n    tag_328:\n      pop\n      swap1\n      jump\t// out\n    tag_320:\n    tag_329:\n      dup1\n      dup3\n      gt\n      iszero\n      tag_330\n      jumpi\n      0x00\n      dup2\n      0x00\n      swap1\n      sstore\n      pop\n      0x01\n      add\n      jump(tag_329)\n    tag_330:\n      pop\n      swap1\n      jump\t// out\n        /* \"#utility.yul\":24:679   */\n    tag_332:\n        /* \"#utility.yul\":120:125   */\n      0x00\n        /* \"#utility.yul\":145:226   */\n      tag_334\n        /* \"#utility.yul\":161:225   */\n      tag_335\n        /* \"#utility.yul\":218:224   */\n      dup5\n        /* \"#utility.yul\":161:225   */\n      tag_336\n      jump\t// in\n    tag_335:\n        /* \"#utility.yul\":145:226   */\n      tag_337\n      jump\t// in\n    tag_334:\n        /* \"#utility.yul\":136:226   */\n      swap1\n      pop\n        /* \"#utility.yul\":246:251   */\n      dup1\n        /* \"#utility.yul\":275:281   */\n      dup4\n        /* \"#utility.yul\":268:273   */\n      dup3\n        /* \"#utility.yul\":261:282   */\n      mstore\n        /* \"#utility.yul\":309:313   */\n      0x20\n        /* \"#utility.yul\":302:307   */\n      dup3\n        /* \"#utility.yul\":298:314   */\n      add\n        /* \"#utility.yul\":291:314   */\n      swap1\n      pop\n        /* \"#utility.yul\":335:341   */\n      dup3\n        /* \"#utility.yul\":385:388   */\n      dup6\n        /* \"#utility.yul\":377:381   */\n      0x20\n        /* \"#utility.yul\":369:375   */\n      dup7\n        /* \"#utility.yul\":365:382   */\n      mul\n        /* \"#utility.yul\":360:363   */\n      dup3\n        /* \"#utility.yul\":356:383   */\n      add\n        /* \"#utility.yul\":353:389   */\n      gt\n        /* \"#utility.yul\":350:352   */\n      iszero\n      tag_338\n      jumpi\n        /* \"#utility.yul\":414:415   */\n      0x00\n        /* \"#utility.yul\":411:412   */\n      dup1\n        /* \"#utility.yul\":404:416   */\n      revert\n        /* \"#utility.yul\":350:352   */\n    tag_338:\n        /* \"#utility.yul\":450:451   */\n      0x00\n        /* \"#utility.yul\":435:673   */\n    tag_339:\n        /* \"#utility.yul\":460:466   */\n      dup6\n        /* \"#utility.yul\":457:458   */\n      dup2\n        /* \"#utility.yul\":454:467   */\n      lt\n        /* \"#utility.yul\":435:673   */\n      iszero\n      tag_341\n      jumpi\n        /* \"#utility.yul\":528:531   */\n      dup2\n        /* \"#utility.yul\":557:594   */\n      tag_342\n        /* \"#utility.yul\":590:593   */\n      dup9\n        /* \"#utility.yul\":578:588   */\n      dup3\n        /* \"#utility.yul\":557:594   */\n      tag_343\n      jump\t// in\n    tag_342:\n        /* \"#utility.yul\":552:555   */\n      dup5\n        /* \"#utility.yul\":545:595   */\n      mstore\n        /* \"#utility.yul\":624:628   */\n      0x20\n        /* \"#utility.yul\":619:622   */\n      dup5\n        /* \"#utility.yul\":615:629   */\n      add\n        /* \"#utility.yul\":608:629   */\n      swap4\n      pop\n        /* \"#utility.yul\":658:662   */\n      0x20\n        /* \"#utility.yul\":653:656   */\n      dup4\n        /* \"#utility.yul\":649:663   */\n      add\n        /* \"#utility.yul\":642:663   */\n      swap3\n      pop\n        /* \"#utility.yul\":495:673   */\n      pop\n        /* \"#utility.yul\":482:483   */\n      0x01\n        /* \"#utility.yul\":479:480   */\n      dup2\n        /* \"#utility.yul\":475:484   */\n      add\n        /* \"#utility.yul\":470:484   */\n      swap1\n      pop\n        /* \"#utility.yul\":435:673   */\n      jump(tag_339)\n    tag_341:\n        /* \"#utility.yul\":439:453   */\n      pop\n        /* \"#utility.yul\":126:679   */\n      pop\n      pop\n      swap4\n      swap3\n      pop\n      pop\n      pop\n      jump\t// out\n        /* \"#utility.yul\":702:1357   */\n    tag_344:\n        /* \"#utility.yul\":798:803   */\n      0x00\n        /* \"#utility.yul\":823:904   */\n      tag_346\n        /* \"#utility.yul\":839:903   */\n      tag_347\n        /* \"#utility.yul\":896:902   */\n      dup5\n        /* \"#utility.yul\":839:903   */\n      tag_348\n      jump\t// in\n    tag_347:\n        /* \"#utility.yul\":823:904   */\n      tag_337\n      jump\t// in\n    tag_346:\n        /* \"#utility.yul\":814:904   */\n      swap1\n      pop\n        /* \"#utility.yul\":924:929   */\n      dup1\n        /* \"#utility.yul\":953:959   */\n      dup4\n        /* \"#utility.yul\":946:951   */\n      dup3\n        /* \"#utility.yul\":939:960   */\n      mstore\n        /* \"#utility.yul\":987:991   */\n      0x20\n        /* \"#utility.yul\":980:985   */\n      dup3\n        /* \"#utility.yul\":976:992   */\n      add\n        /* \"#utility.yul\":969:992   */\n      swap1\n      pop\n        /* \"#utility.yul\":1013:1019   */\n      dup3\n        /* \"#utility.yul\":1063:1066   */\n      dup6\n        /* \"#utility.yul\":1055:1059   */\n      0x20\n        /* \"#utility.yul\":1047:1053   */\n      dup7\n        /* \"#utility.yul\":1043:1060   */\n      mul\n        /* \"#utility.yul\":1038:1041   */\n      dup3\n        /* \"#utility.yul\":1034:1061   */\n      add\n        /* \"#utility.yul\":1031:1067   */\n      gt\n        /* \"#utility.yul\":1028:1030   */\n      iszero\n      tag_349\n      jumpi\n        /* \"#utility.yul\":1092:1093   */\n      0x00\n        /* \"#utility.yul\":1089:1090   */\n      dup1\n        /* \"#utility.yul\":1082:1094   */\n      revert\n        /* \"#utility.yul\":1028:1030   */\n    tag_349:\n        /* \"#utility.yul\":1128:1129   */\n      0x00\n        /* \"#utility.yul\":1113:1351   */\n    tag_350:\n        /* \"#utility.yul\":1138:1144   */\n      dup6\n        /* \"#utility.yul\":1135:1136   */\n      dup2\n        /* \"#utility.yul\":1132:1145   */\n      lt\n        /* \"#utility.yul\":1113:1351   */\n      iszero\n      tag_352\n      jumpi\n        /* \"#utility.yul\":1206:1209   */\n      dup2\n        /* \"#utility.yul\":1235:1272   */\n      tag_353\n        /* \"#utility.yul\":1268:1271   */\n      dup9\n        /* \"#utility.yul\":1256:1266   */\n      dup3\n        /* \"#utility.yul\":1235:1272   */\n      tag_354\n      jump\t// in\n    tag_353:\n        /* \"#utility.yul\":1230:1233   */\n      dup5\n        /* \"#utility.yul\":1223:1273   */\n      mstore\n        /* \"#utility.yul\":1302:1306   */\n      0x20\n        /* \"#utility.yul\":1297:1300   */\n      dup5\n        /* \"#utility.yul\":1293:1307   */\n      add\n        /* \"#utility.yul\":1286:1307   */\n      swap4\n      pop\n        /* \"#utility.yul\":1336:1340   */\n      0x20\n        /* \"#utility.yul\":1331:1334   */\n      dup4\n        /* \"#utility.yul\":1327:1341   */\n      add\n        /* \"#utility.yul\":1320:1341   */\n      swap3\n      pop\n        /* \"#utility.yul\":1173:1351   */\n      pop\n        /* \"#utility.yul\":1160:1161   */\n      0x01\n        /* \"#utility.yul\":1157:1158   */\n      dup2\n        /* \"#utility.yul\":1153:1162   */\n      add\n        /* \"#utility.yul\":1148:1162   */\n      swap1\n      pop\n        /* \"#utility.yul\":1113:1351   */\n      jump(tag_350)\n    tag_352:\n        /* \"#utility.yul\":1117:1131   */\n      pop\n        /* \"#utility.yul\":804:1357   */\n      pop\n      pop\n      swap4\n      swap3\n      pop\n      pop\n      pop\n      jump\t// out\n        /* \"#utility.yul\":1363:1706   */\n    tag_355:\n        /* \"#utility.yul\":1440:1445   */\n      0x00\n        /* \"#utility.yul\":1465:1530   */\n      tag_357\n        /* \"#utility.yul\":1481:1529   */\n      tag_358\n        /* \"#utility.yul\":1522:1528   */\n      dup5\n        /* \"#utility.yul\":1481:1529   */\n      tag_359\n      jump\t// in\n    tag_358:\n        /* \"#utility.yul\":1465:1530   */\n      tag_337\n      jump\t// in\n    tag_357:\n        /* \"#utility.yul\":1456:1530   */\n      swap1\n      pop\n        /* \"#utility.yul\":1553:1559   */\n      dup3\n        /* \"#utility.yul\":1546:1551   */\n      dup2\n        /* \"#utility.yul\":1539:1560   */\n      mstore\n        /* \"#utility.yul\":1591:1595   */\n      0x20\n        /* \"#utility.yul\":1584:1589   */\n      dup2\n        /* \"#utility.yul\":1580:1596   */\n      add\n        /* \"#utility.yul\":1629:1632   */\n      dup5\n        /* \"#utility.yul\":1620:1626   */\n      dup5\n        /* \"#utility.yul\":1615:1618   */\n      dup5\n        /* \"#utility.yul\":1611:1627   */\n      add\n        /* \"#utility.yul\":1608:1633   */\n      gt\n        /* \"#utility.yul\":1605:1607   */\n      iszero\n      tag_360\n      jumpi\n        /* \"#utility.yul\":1646:1647   */\n      0x00\n        /* \"#utility.yul\":1643:1644   */\n      dup1\n        /* \"#utility.yul\":1636:1648   */\n      revert\n        /* \"#utility.yul\":1605:1607   */\n    tag_360:\n        /* \"#utility.yul\":1659:1700   */\n      tag_361\n        /* \"#utility.yul\":1693:1699   */\n      dup5\n        /* \"#utility.yul\":1688:1691   */\n      dup3\n        /* \"#utility.yul\":1683:1686   */\n      dup6\n        /* \"#utility.yul\":1659:1700   */\n      tag_362\n      jump\t// in\n    tag_361:\n        /* \"#utility.yul\":1446:1706   */\n      pop\n      swap4\n      swap3\n      pop\n      pop\n      pop\n      jump\t// out\n        /* \"#utility.yul\":1712:2057   */\n    tag_363:\n        /* \"#utility.yul\":1790:1795   */\n      0x00\n        /* \"#utility.yul\":1815:1881   */\n      tag_365\n        /* \"#utility.yul\":1831:1880   */\n      tag_366\n        /* \"#utility.yul\":1873:1879   */\n      dup5\n        /* \"#utility.yul\":1831:1880   */\n      tag_367\n      jump\t// in\n    tag_366:\n        /* \"#utility.yul\":1815:1881   */\n      tag_337\n      jump\t// in\n    tag_365:\n        /* \"#utility.yul\":1806:1881   */\n      swap1\n      pop\n        /* \"#utility.yul\":1904:1910   */\n      dup3\n        /* \"#utility.yul\":1897:1902   */\n      dup2\n        /* \"#utility.yul\":1890:1911   */\n      mstore\n        /* \"#utility.yul\":1942:1946   */\n      0x20\n        /* \"#utility.yul\":1935:1940   */\n      dup2\n        /* \"#utility.yul\":1931:1947   */\n      add\n        /* \"#utility.yul\":1980:1983   */\n      dup5\n        /* \"#utility.yul\":1971:1977   */\n      dup5\n        /* \"#utility.yul\":1966:1969   */\n      dup5\n        /* \"#utility.yul\":1962:1978   */\n      add\n        /* \"#utility.yul\":1959:1984   */\n      gt\n        /* \"#utility.yul\":1956:1958   */\n      iszero\n      tag_368\n      jumpi\n        /* \"#utility.yul\":1997:1998   */\n      0x00\n        /* \"#utility.yul\":1994:1995   */\n      dup1\n        /* \"#utility.yul\":1987:1999   */\n      revert\n        /* \"#utility.yul\":1956:1958   */\n    tag_368:\n        /* \"#utility.yul\":2010:2051   */\n      tag_369\n        /* \"#utility.yul\":2044:2050   */\n      dup5\n        /* \"#utility.yul\":2039:2042   */\n      dup3\n        /* \"#utility.yul\":2034:2037   */\n      dup6\n        /* \"#utility.yul\":2010:2051   */\n      tag_362\n      jump\t// in\n    tag_369:\n        /* \"#utility.yul\":1796:2057   */\n      pop\n      swap4\n      swap3\n      pop\n      pop\n      pop\n      jump\t// out\n        /* \"#utility.yul\":2063:2202   */\n    tag_343:\n        /* \"#utility.yul\":2109:2114   */\n      0x00\n        /* \"#utility.yul\":2147:2153   */\n      dup2\n        /* \"#utility.yul\":2134:2154   */\n      calldataload\n        /* \"#utility.yul\":2125:2154   */\n      swap1\n      pop\n        /* \"#utility.yul\":2163:2196   */\n      tag_371\n        /* \"#utility.yul\":2190:2195   */\n      dup2\n        /* \"#utility.yul\":2163:2196   */\n      tag_372\n      jump\t// in\n    tag_371:\n        /* \"#utility.yul\":2115:2202   */\n      swap3\n      swap2\n      pop\n      pop\n      jump\t// out\n        /* \"#utility.yul\":2225:2528   */\n    tag_373:\n        /* \"#utility.yul\":2296:2301   */\n      0x00\n        /* \"#utility.yul\":2345:2348   */\n      dup3\n        /* \"#utility.yul\":2338:2342   */\n      0x1f\n        /* \"#utility.yul\":2330:2336   */\n      dup4\n        /* \"#utility.yul\":2326:2343   */\n      add\n        /* \"#utility.yul\":2322:2349   */\n      slt\n        /* \"#utility.yul\":2312:2314   */\n      tag_375\n      jumpi\n        /* \"#utility.yul\":2363:2364   */\n      0x00\n        /* \"#utility.yul\":2360:2361   */\n      dup1\n        /* \"#utility.yul\":2353:2365   */\n      revert\n        /* \"#utility.yul\":2312:2314   */\n    tag_375:\n        /* \"#utility.yul\":2403:2409   */\n      dup2\n        /* \"#utility.yul\":2390:2410   */\n      calldataload\n        /* \"#utility.yul\":2428:2522   */\n      tag_376\n        /* \"#utility.yul\":2518:2521   */\n      dup5\n        /* \"#utility.yul\":2510:2516   */\n      dup3\n        /* \"#utility.yul\":2503:2507   */\n      0x20\n        /* \"#utility.yul\":2495:2501   */\n      dup7\n        /* \"#utility.yul\":2491:2508   */\n      add\n        /* \"#utility.yul\":2428:2522   */\n      tag_332\n      jump\t// in\n    tag_376:\n        /* \"#utility.yul\":2419:2522   */\n      swap2\n      pop\n        /* \"#utility.yul\":2302:2528   */\n      pop\n      swap3\n      swap2\n      pop\n      pop\n      jump\t// out\n        /* \"#utility.yul\":2551:2854   */\n    tag_377:\n        /* \"#utility.yul\":2622:2627   */\n      0x00\n        /* \"#utility.yul\":2671:2674   */\n      dup3\n        /* \"#utility.yul\":2664:2668   */\n      0x1f\n        /* \"#utility.yul\":2656:2662   */\n      dup4\n        /* \"#utility.yul\":2652:2669   */\n      add\n        /* \"#utility.yul\":2648:2675   */\n      slt\n        /* \"#utility.yul\":2638:2640   */\n      tag_379\n      jumpi\n        /* \"#utility.yul\":2689:2690   */\n      0x00\n        /* \"#utility.yul\":2686:2687   */\n      dup1\n        /* \"#utility.yul\":2679:2691   */\n      revert\n        /* \"#utility.yul\":2638:2640   */\n    tag_379:\n        /* \"#utility.yul\":2729:2735   */\n      dup2\n        /* \"#utility.yul\":2716:2736   */\n      calldataload\n        /* \"#utility.yul\":2754:2848   */\n      tag_380\n        /* \"#utility.yul\":2844:2847   */\n      dup5\n        /* \"#utility.yul\":2836:2842   */\n      dup3\n        /* \"#utility.yul\":2829:2833   */\n      0x20\n        /* \"#utility.yul\":2821:2827   */\n      dup7\n        /* \"#utility.yul\":2817:2834   */\n      add\n        /* \"#utility.yul\":2754:2848   */\n      tag_344\n      jump\t// in\n    tag_380:\n        /* \"#utility.yul\":2745:2848   */\n      swap2\n      pop\n        /* \"#utility.yul\":2628:2854   */\n      pop\n      swap3\n      swap2\n      pop\n      pop\n      jump\t// out\n        /* \"#utility.yul\":2860:2993   */\n    tag_381:\n        /* \"#utility.yul\":2903:2908   */\n      0x00\n        /* \"#utility.yul\":2941:2947   */\n      dup2\n        /* \"#utility.yul\":2928:2948   */\n      calldataload\n        /* \"#utility.yul\":2919:2948   */\n      swap1\n      pop\n        /* \"#utility.yul\":2957:2987   */\n      tag_383\n        /* \"#utility.yul\":2981:2986   */\n      dup2\n        /* \"#utility.yul\":2957:2987   */\n      tag_384\n      jump\t// in\n    tag_383:\n        /* \"#utility.yul\":2909:2993   */\n      swap3\n      swap2\n      pop\n      pop\n      jump\t// out\n        /* \"#utility.yul\":2999:3136   */\n    tag_385:\n        /* \"#utility.yul\":3044:3049   */\n      0x00\n        /* \"#utility.yul\":3082:3088   */\n      dup2\n        /* \"#utility.yul\":3069:3089   */\n      calldataload\n        /* \"#utility.yul\":3060:3089   */\n      swap1\n      pop\n        /* \"#utility.yul\":3098:3130   */\n      tag_387\n        /* \"#utility.yul\":3124:3129   */\n      dup2\n        /* \"#utility.yul\":3098:3130   */\n      tag_388\n      jump\t// in\n    tag_387:\n        /* \"#utility.yul\":3050:3136   */\n      swap3\n      swap2\n      pop\n      pop\n      jump\t// out\n        /* \"#utility.yul\":3142:3283   */\n    tag_389:\n        /* \"#utility.yul\":3198:3203   */\n      0x00\n        /* \"#utility.yul\":3229:3235   */\n      dup2\n        /* \"#utility.yul\":3223:3236   */\n      mload\n        /* \"#utility.yul\":3214:3236   */\n      swap1\n      pop\n        /* \"#utility.yul\":3245:3277   */\n      tag_391\n        /* \"#utility.yul\":3271:3276   */\n      dup2\n        /* \"#utility.yul\":3245:3277   */\n      tag_388\n      jump\t// in\n    tag_391:\n        /* \"#utility.yul\":3204:3283   */\n      swap3\n      swap2\n      pop\n      pop\n      jump\t// out\n        /* \"#utility.yul\":3302:3573   */\n    tag_392:\n        /* \"#utility.yul\":3357:3362   */\n      0x00\n        /* \"#utility.yul\":3406:3409   */\n      dup3\n        /* \"#utility.yul\":3399:3403   */\n      0x1f\n        /* \"#utility.yul\":3391:3397   */\n      dup4\n        /* \"#utility.yul\":3387:3404   */\n      add\n        /* \"#utility.yul\":3383:3410   */\n      slt\n        /* \"#utility.yul\":3373:3375   */\n      tag_394\n      jumpi\n        /* \"#utility.yul\":3424:3425   */\n      0x00\n        /* \"#utility.yul\":3421:3422   */\n      dup1\n        /* \"#utility.yul\":3414:3426   */\n      revert\n        /* \"#utility.yul\":3373:3375   */\n    tag_394:\n        /* \"#utility.yul\":3464:3470   */\n      dup2\n        /* \"#utility.yul\":3451:3471   */\n      calldataload\n        /* \"#utility.yul\":3489:3567   */\n      tag_395\n        /* \"#utility.yul\":3563:3566   */\n      dup5\n        /* \"#utility.yul\":3555:3561   */\n      dup3\n        /* \"#utility.yul\":3548:3552   */\n      0x20\n        /* \"#utility.yul\":3540:3546   */\n      dup7\n        /* \"#utility.yul\":3536:3553   */\n      add\n        /* \"#utility.yul\":3489:3567   */\n      tag_355\n      jump\t// in\n    tag_395:\n        /* \"#utility.yul\":3480:3567   */\n      swap2\n      pop\n        /* \"#utility.yul\":3363:3573   */\n      pop\n      swap3\n      swap2\n      pop\n      pop\n      jump\t// out\n        /* \"#utility.yul\":3593:3866   */\n    tag_396:\n        /* \"#utility.yul\":3649:3654   */\n      0x00\n        /* \"#utility.yul\":3698:3701   */\n      dup3\n        /* \"#utility.yul\":3691:3695   */\n      0x1f\n        /* \"#utility.yul\":3683:3689   */\n      dup4\n        /* \"#utility.yul\":3679:3696   */\n      add\n        /* \"#utility.yul\":3675:3702   */\n      slt\n        /* \"#utility.yul\":3665:3667   */\n      tag_398\n      jumpi\n        /* \"#utility.yul\":3716:3717   */\n      0x00\n        /* \"#utility.yul\":3713:3714   */\n      dup1\n        /* \"#utility.yul\":3706:3718   */\n      revert\n        /* \"#utility.yul\":3665:3667   */\n    tag_398:\n        /* \"#utility.yul\":3756:3762   */\n      dup2\n        /* \"#utility.yul\":3743:3763   */\n      calldataload\n        /* \"#utility.yul\":3781:3860   */\n      tag_399\n        /* \"#utility.yul\":3856:3859   */\n      dup5\n        /* \"#utility.yul\":3848:3854   */\n      dup3\n        /* \"#utility.yul\":3841:3845   */\n      0x20\n        /* \"#utility.yul\":3833:3839   */\n      dup7\n        /* \"#utility.yul\":3829:3846   */\n      add\n        /* \"#utility.yul\":3781:3860   */\n      tag_363\n      jump\t// in\n    tag_399:\n        /* \"#utility.yul\":3772:3860   */\n      swap2\n      pop\n        /* \"#utility.yul\":3655:3866   */\n      pop\n      swap3\n      swap2\n      pop\n      pop\n      jump\t// out\n        /* \"#utility.yul\":3872:4011   */\n    tag_354:\n        /* \"#utility.yul\":3918:3923   */\n      0x00\n        /* \"#utility.yul\":3956:3962   */\n      dup2\n        /* \"#utility.yul\":3943:3963   */\n      calldataload\n        /* \"#utility.yul\":3934:3963   */\n      swap1\n      pop\n        /* \"#utility.yul\":3972:4005   */\n      tag_401\n        /* \"#utility.yul\":3999:4004   */\n      dup2\n        /* \"#utility.yul\":3972:4005   */\n      tag_402\n      jump\t// in\n    tag_401:\n        /* \"#utility.yul\":3924:4011   */\n      swap3\n      swap2\n      pop\n      pop\n      jump\t// out\n        /* \"#utility.yul\":4017:4279   */\n    tag_66:\n        /* \"#utility.yul\":4076:4082   */\n      0x00\n        /* \"#utility.yul\":4125:4127   */\n      0x20\n        /* \"#utility.yul\":4113:4122   */\n      dup3\n        /* \"#utility.yul\":4104:4111   */\n      dup5\n        /* \"#utility.yul\":4100:4123   */\n      sub\n        /* \"#utility.yul\":4096:4128   */\n      slt\n        /* \"#utility.yul\":4093:4095   */\n      iszero\n      tag_404\n      jumpi\n        /* \"#utility.yul\":4141:4142   */\n      0x00\n        /* \"#utility.yul\":4138:4139   */\n      dup1\n        /* \"#utility.yul\":4131:4143   */\n      revert\n        /* \"#utility.yul\":4093:4095   */\n    tag_404:\n        /* \"#utility.yul\":4184:4185   */\n      0x00\n        /* \"#utility.yul\":4209:4262   */\n      tag_405\n        /* \"#utility.yul\":4254:4261   */\n      dup5\n        /* \"#utility.yul\":4245:4251   */\n      dup3\n        /* \"#utility.yul\":4234:4243   */\n      dup6\n        /* \"#utility.yul\":4230:4252   */\n      add\n        /* \"#utility.yul\":4209:4262   */\n      tag_343\n      jump\t// in\n    tag_405:\n        /* \"#utility.yul\":4199:4262   */\n      swap2\n      pop\n        /* \"#utility.yul\":4155:4272   */\n      pop\n        /* \"#utility.yul\":4083:4279   */\n      swap3\n      swap2\n      pop\n      pop\n      jump\t// out\n        /* \"#utility.yul\":4285:4692   */\n    tag_86:\n        /* \"#utility.yul\":4353:4359   */\n      0x00\n        /* \"#utility.yul\":4361:4367   */\n      dup1\n        /* \"#utility.yul\":4410:4412   */\n      0x40\n        /* \"#utility.yul\":4398:4407   */\n      dup4\n        /* \"#utility.yul\":4389:4396   */\n      dup6\n        /* \"#utility.yul\":4385:4408   */\n      sub\n        /* \"#utility.yul\":4381:4413   */\n      slt\n        /* \"#utility.yul\":4378:4380   */\n      iszero\n      tag_407\n      jumpi\n        /* \"#utility.yul\":4426:4427   */\n      0x00\n        /* \"#utility.yul\":4423:4424   */\n      dup1\n        /* \"#utility.yul\":4416:4428   */\n      revert\n        /* \"#utility.yul\":4378:4380   */\n    tag_407:\n        /* \"#utility.yul\":4469:4470   */\n      0x00\n        /* \"#utility.yul\":4494:4547   */\n      tag_408\n        /* \"#utility.yul\":4539:4546   */\n      dup6\n        /* \"#utility.yul\":4530:4536   */\n      dup3\n        /* \"#utility.yul\":4519:4528   */\n      dup7\n        /* \"#utility.yul\":4515:4537   */\n      add\n        /* \"#utility.yul\":4494:4547   */\n      tag_343\n      jump\t// in\n    tag_408:\n        /* \"#utility.yul\":4484:4547   */\n      swap3\n      pop\n        /* \"#utility.yul\":4440:4557   */\n      pop\n        /* \"#utility.yul\":4596:4598   */\n      0x20\n        /* \"#utility.yul\":4622:4675   */\n      tag_409\n        /* \"#utility.yul\":4667:4674   */\n      dup6\n        /* \"#utility.yul\":4658:4664   */\n      dup3\n        /* \"#utility.yul\":4647:4656   */\n      dup7\n        /* \"#utility.yul\":4643:4665   */\n      add\n        /* \"#utility.yul\":4622:4675   */\n      tag_343\n      jump\t// in\n    tag_409:\n        /* \"#utility.yul\":4612:4675   */\n      swap2\n      pop\n        /* \"#utility.yul\":4567:4685   */\n      pop\n        /* \"#utility.yul\":4368:4692   */\n      swap3\n      pop\n      swap3\n      swap1\n      pop\n      jump\t// out\n        /* \"#utility.yul\":4698:5250   */\n    tag_44:\n        /* \"#utility.yul\":4775:4781   */\n      0x00\n        /* \"#utility.yul\":4783:4789   */\n      dup1\n        /* \"#utility.yul\":4791:4797   */\n      0x00\n        /* \"#utility.yul\":4840:4842   */\n      0x60\n        /* \"#utility.yul\":4828:4837   */\n      dup5\n        /* \"#utility.yul\":4819:4826   */\n      dup7\n        /* \"#utility.yul\":4815:4838   */\n      sub\n        /* \"#utility.yul\":4811:4843   */\n      slt\n        /* \"#utility.yul\":4808:4810   */\n      iszero\n      tag_411\n      jumpi\n        /* \"#utility.yul\":4856:4857   */\n      0x00\n        /* \"#utility.yul\":4853:4854   */\n      dup1\n        /* \"#utility.yul\":4846:4858   */\n      revert\n        /* \"#utility.yul\":4808:4810   */\n    tag_411:\n        /* \"#utility.yul\":4899:4900   */\n      0x00\n        /* \"#utility.yul\":4924:4977   */\n      tag_412\n        /* \"#utility.yul\":4969:4976   */\n      dup7\n        /* \"#utility.yul\":4960:4966   */\n      dup3\n        /* \"#utility.yul\":4949:4958   */\n      dup8\n        /* \"#utility.yul\":4945:4967   */\n      add\n        /* \"#utility.yul\":4924:4977   */\n      tag_343\n      jump\t// in\n    tag_412:\n        /* \"#utility.yul\":4914:4977   */\n      swap4\n      pop\n        /* \"#utility.yul\":4870:4987   */\n      pop\n        /* \"#utility.yul\":5026:5028   */\n      0x20\n        /* \"#utility.yul\":5052:5105   */\n      tag_413\n        /* \"#utility.yul\":5097:5104   */\n      dup7\n        /* \"#utility.yul\":5088:5094   */\n      dup3\n        /* \"#utility.yul\":5077:5086   */\n      dup8\n        /* \"#utility.yul\":5073:5095   */\n      add\n        /* \"#utility.yul\":5052:5105   */\n      tag_343\n      jump\t// in\n    tag_413:\n        /* \"#utility.yul\":5042:5105   */\n      swap3\n      pop\n        /* \"#utility.yul\":4997:5115   */\n      pop\n        /* \"#utility.yul\":5154:5156   */\n      0x40\n        /* \"#utility.yul\":5180:5233   */\n      tag_414\n        /* \"#utility.yul\":5225:5232   */\n      dup7\n        /* \"#utility.yul\":5216:5222   */\n      dup3\n        /* \"#utility.yul\":5205:5214   */\n      dup8\n        /* \"#utility.yul\":5201:5223   */\n      add\n        /* \"#utility.yul\":5180:5233   */\n      tag_354\n      jump\t// in\n    tag_414:\n        /* \"#utility.yul\":5170:5233   */\n      swap2\n      pop\n        /* \"#utility.yul\":5125:5243   */\n      pop\n        /* \"#utility.yul\":4798:5250   */\n      swap3\n      pop\n      swap3\n      pop\n      swap3\n      jump\t// out\n        /* \"#utility.yul\":5256:6065   */\n    tag_78:\n        /* \"#utility.yul\":5351:5357   */\n      0x00\n        /* \"#utility.yul\":5359:5365   */\n      dup1\n        /* \"#utility.yul\":5367:5373   */\n      0x00\n        /* \"#utility.yul\":5375:5381   */\n      dup1\n        /* \"#utility.yul\":5424:5427   */\n      0x80\n        /* \"#utility.yul\":5412:5421   */\n      dup6\n        /* \"#utility.yul\":5403:5410   */\n      dup8\n        /* \"#utility.yul\":5399:5422   */\n      sub\n        /* \"#utility.yul\":5395:5428   */\n      slt\n        /* \"#utility.yul\":5392:5394   */\n      iszero\n      tag_416\n      jumpi\n        /* \"#utility.yul\":5441:5442   */\n      0x00\n        /* \"#utility.yul\":5438:5439   */\n      dup1\n        /* \"#utility.yul\":5431:5443   */\n      revert\n        /* \"#utility.yul\":5392:5394   */\n    tag_416:\n        /* \"#utility.yul\":5484:5485   */\n      0x00\n        /* \"#utility.yul\":5509:5562   */\n      tag_417\n        /* \"#utility.yul\":5554:5561   */\n      dup8\n        /* \"#utility.yul\":5545:5551   */\n      dup3\n        /* \"#utility.yul\":5534:5543   */\n      dup9\n        /* \"#utility.yul\":5530:5552   */\n      add\n        /* \"#utility.yul\":5509:5562   */\n      tag_343\n      jump\t// in\n    tag_417:\n        /* \"#utility.yul\":5499:5562   */\n      swap5\n      pop\n        /* \"#utility.yul\":5455:5572   */\n      pop\n        /* \"#utility.yul\":5611:5613   */\n      0x20\n        /* \"#utility.yul\":5637:5690   */\n      tag_418\n        /* \"#utility.yul\":5682:5689   */\n      dup8\n        /* \"#utility.yul\":5673:5679   */\n      dup3\n        /* \"#utility.yul\":5662:5671   */\n      dup9\n        /* \"#utility.yul\":5658:5680   */\n      add\n        /* \"#utility.yul\":5637:5690   */\n      tag_343\n      jump\t// in\n    tag_418:\n        /* \"#utility.yul\":5627:5690   */\n      swap4\n      pop\n        /* \"#utility.yul\":5582:5700   */\n      pop\n        /* \"#utility.yul\":5739:5741   */\n      0x40\n        /* \"#utility.yul\":5765:5818   */\n      tag_419\n        /* \"#utility.yul\":5810:5817   */\n      dup8\n        /* \"#utility.yul\":5801:5807   */\n      dup3\n        /* \"#utility.yul\":5790:5799   */\n      dup9\n        /* \"#utility.yul\":5786:5808   */\n      add\n        /* \"#utility.yul\":5765:5818   */\n      tag_354\n      jump\t// in\n    tag_419:\n        /* \"#utility.yul\":5755:5818   */\n      swap3\n      pop\n        /* \"#utility.yul\":5710:5828   */\n      pop\n        /* \"#utility.yul\":5895:5897   */\n      0x60\n        /* \"#utility.yul\":5884:5893   */\n      dup6\n        /* \"#utility.yul\":5880:5898   */\n      add\n        /* \"#utility.yul\":5867:5899   */\n      calldataload\n        /* \"#utility.yul\":5926:5944   */\n      0xffffffffffffffff\n        /* \"#utility.yul\":5918:5924   */\n      dup2\n        /* \"#utility.yul\":5915:5945   */\n      gt\n        /* \"#utility.yul\":5912:5914   */\n      iszero\n      tag_420\n      jumpi\n        /* \"#utility.yul\":5958:5959   */\n      0x00\n        /* \"#utility.yul\":5955:5956   */\n      dup1\n        /* \"#utility.yul\":5948:5960   */\n      revert\n        /* \"#utility.yul\":5912:5914   */\n    tag_420:\n        /* \"#utility.yul\":5986:6048   */\n      tag_421\n        /* \"#utility.yul\":6040:6047   */\n      dup8\n        /* \"#utility.yul\":6031:6037   */\n      dup3\n        /* \"#utility.yul\":6020:6029   */\n      dup9\n        /* \"#utility.yul\":6016:6038   */\n      add\n        /* \"#utility.yul\":5986:6048   */\n      tag_392\n      jump\t// in\n    tag_421:\n        /* \"#utility.yul\":5976:6048   */\n      swap2\n      pop\n        /* \"#utility.yul\":5838:6058   */\n      pop\n        /* \"#utility.yul\":5382:6065   */\n      swap3\n      swap6\n      swap2\n      swap5\n      pop\n      swap3\n      pop\n      jump\t// out\n        /* \"#utility.yul\":6071:7168   */\n    tag_48:\n        /* \"#utility.yul\":6217:6223   */\n      0x00\n        /* \"#utility.yul\":6225:6231   */\n      dup1\n        /* \"#utility.yul\":6233:6239   */\n      0x00\n        /* \"#utility.yul\":6241:6247   */\n      dup1\n        /* \"#utility.yul\":6290:6293   */\n      0x80\n        /* \"#utility.yul\":6278:6287   */\n      dup6\n        /* \"#utility.yul\":6269:6276   */\n      dup8\n        /* \"#utility.yul\":6265:6288   */\n      sub\n        /* \"#utility.yul\":6261:6294   */\n      slt\n        /* \"#utility.yul\":6258:6260   */\n      iszero\n      tag_423\n      jumpi\n        /* \"#utility.yul\":6307:6308   */\n      0x00\n        /* \"#utility.yul\":6304:6305   */\n      dup1\n        /* \"#utility.yul\":6297:6309   */\n      revert\n        /* \"#utility.yul\":6258:6260   */\n    tag_423:\n        /* \"#utility.yul\":6350:6351   */\n      0x00\n        /* \"#utility.yul\":6375:6428   */\n      tag_424\n        /* \"#utility.yul\":6420:6427   */\n      dup8\n        /* \"#utility.yul\":6411:6417   */\n      dup3\n        /* \"#utility.yul\":6400:6409   */\n      dup9\n        /* \"#utility.yul\":6396:6418   */\n      add\n        /* \"#utility.yul\":6375:6428   */\n      tag_343\n      jump\t// in\n    tag_424:\n        /* \"#utility.yul\":6365:6428   */\n      swap5\n      pop\n        /* \"#utility.yul\":6321:6438   */\n      pop\n        /* \"#utility.yul\":6505:6507   */\n      0x20\n        /* \"#utility.yul\":6494:6503   */\n      dup6\n        /* \"#utility.yul\":6490:6508   */\n      add\n        /* \"#utility.yul\":6477:6509   */\n      calldataload\n        /* \"#utility.yul\":6536:6554   */\n      0xffffffffffffffff\n        /* \"#utility.yul\":6528:6534   */\n      dup2\n        /* \"#utility.yul\":6525:6555   */\n      gt\n        /* \"#utility.yul\":6522:6524   */\n      iszero\n      tag_425\n      jumpi\n        /* \"#utility.yul\":6568:6569   */\n      0x00\n        /* \"#utility.yul\":6565:6566   */\n      dup1\n        /* \"#utility.yul\":6558:6570   */\n      revert\n        /* \"#utility.yul\":6522:6524   */\n    tag_425:\n        /* \"#utility.yul\":6596:6674   */\n      tag_426\n        /* \"#utility.yul\":6666:6673   */\n      dup8\n        /* \"#utility.yul\":6657:6663   */\n      dup3\n        /* \"#utility.yul\":6646:6655   */\n      dup9\n        /* \"#utility.yul\":6642:6664   */\n      add\n        /* \"#utility.yul\":6596:6674   */\n      tag_373\n      jump\t// in\n    tag_426:\n        /* \"#utility.yul\":6586:6674   */\n      swap4\n      pop\n        /* \"#utility.yul\":6448:6684   */\n      pop\n        /* \"#utility.yul\":6751:6753   */\n      0x40\n        /* \"#utility.yul\":6740:6749   */\n      dup6\n        /* \"#utility.yul\":6736:6754   */\n      add\n        /* \"#utility.yul\":6723:6755   */\n      calldataload\n        /* \"#utility.yul\":6782:6800   */\n      0xffffffffffffffff\n        /* \"#utility.yul\":6774:6780   */\n      dup2\n        /* \"#utility.yul\":6771:6801   */\n      gt\n        /* \"#utility.yul\":6768:6770   */\n      iszero\n      tag_427\n      jumpi\n        /* \"#utility.yul\":6814:6815   */\n      0x00\n        /* \"#utility.yul\":6811:6812   */\n      dup1\n        /* \"#utility.yul\":6804:6816   */\n      revert\n        /* \"#utility.yul\":6768:6770   */\n    tag_427:\n        /* \"#utility.yul\":6842:6920   */\n      tag_428\n        /* \"#utility.yul\":6912:6919   */\n      dup8\n        /* \"#utility.yul\":6903:6909   */\n      dup3\n        /* \"#utility.yul\":6892:6901   */\n      dup9\n        /* \"#utility.yul\":6888:6910   */\n      add\n        /* \"#utility.yul\":6842:6920   */\n      tag_377\n      jump\t// in\n    tag_428:\n        /* \"#utility.yul\":6832:6920   */\n      swap3\n      pop\n        /* \"#utility.yul\":6694:6930   */\n      pop\n        /* \"#utility.yul\":6997:6999   */\n      0x60\n        /* \"#utility.yul\":6986:6995   */\n      dup6\n        /* \"#utility.yul\":6982:7000   */\n      add\n        /* \"#utility.yul\":6969:7001   */\n      calldataload\n        /* \"#utility.yul\":7028:7046   */\n      0xffffffffffffffff\n        /* \"#utility.yul\":7020:7026   */\n      dup2\n        /* \"#utility.yul\":7017:7047   */\n      gt\n        /* \"#utility.yul\":7014:7016   */\n      iszero\n      tag_429\n      jumpi\n        /* \"#utility.yul\":7060:7061   */\n      0x00\n        /* \"#utility.yul\":7057:7058   */\n      dup1\n        /* \"#utility.yul\":7050:7062   */\n      revert\n        /* \"#utility.yul\":7014:7016   */\n    tag_429:\n        /* \"#utility.yul\":7088:7151   */\n      tag_430\n        /* \"#utility.yul\":7143:7150   */\n      dup8\n        /* \"#utility.yul\":7134:7140   */\n      dup3\n        /* \"#utility.yul\":7123:7132   */\n      dup9\n        /* \"#utility.yul\":7119:7141   */\n      add\n        /* \"#utility.yul\":7088:7151   */\n      tag_396\n      jump\t// in\n    tag_430:\n        /* \"#utility.yul\":7078:7151   */\n      swap2\n      pop\n        /* \"#utility.yul\":6940:7161   */\n      pop\n        /* \"#utility.yul\":6248:7168   */\n      swap3\n      swap6\n      swap2\n      swap5\n      pop\n      swap3\n      pop\n      jump\t// out\n        /* \"#utility.yul\":7174:7575   */\n    tag_74:\n        /* \"#utility.yul\":7239:7245   */\n      0x00\n        /* \"#utility.yul\":7247:7253   */\n      dup1\n        /* \"#utility.yul\":7296:7298   */\n      0x40\n        /* \"#utility.yul\":7284:7293   */\n      dup4\n        /* \"#utility.yul\":7275:7282   */\n      dup6\n        /* \"#utility.yul\":7271:7294   */\n      sub\n        /* \"#utility.yul\":7267:7299   */\n      slt\n        /* \"#utility.yul\":7264:7266   */\n      iszero\n      tag_432\n      jumpi\n        /* \"#utility.yul\":7312:7313   */\n      0x00\n        /* \"#utility.yul\":7309:7310   */\n      dup1\n        /* \"#utility.yul\":7302:7314   */\n      revert\n        /* \"#utility.yul\":7264:7266   */\n    tag_432:\n        /* \"#utility.yul\":7355:7356   */\n      0x00\n        /* \"#utility.yul\":7380:7433   */\n      tag_433\n        /* \"#utility.yul\":7425:7432   */\n      dup6\n        /* \"#utility.yul\":7416:7422   */\n      dup3\n        /* \"#utility.yul\":7405:7414   */\n      dup7\n        /* \"#utility.yul\":7401:7423   */\n      add\n        /* \"#utility.yul\":7380:7433   */\n      tag_343\n      jump\t// in\n    tag_433:\n        /* \"#utility.yul\":7370:7433   */\n      swap3\n      pop\n        /* \"#utility.yul\":7326:7443   */\n      pop\n        /* \"#utility.yul\":7482:7484   */\n      0x20\n        /* \"#utility.yul\":7508:7558   */\n      tag_434\n        /* \"#utility.yul\":7550:7557   */\n      dup6\n        /* \"#utility.yul\":7541:7547   */\n      dup3\n        /* \"#utility.yul\":7530:7539   */\n      dup7\n        /* \"#utility.yul\":7526:7548   */\n      add\n        /* \"#utility.yul\":7508:7558   */\n      tag_381\n      jump\t// in\n    tag_434:\n        /* \"#utility.yul\":7498:7558   */\n      swap2\n      pop\n        /* \"#utility.yul\":7453:7568   */\n      pop\n        /* \"#utility.yul\":7254:7575   */\n      swap3\n      pop\n      swap3\n      swap1\n      pop\n      jump\t// out\n        /* \"#utility.yul\":7581:7988   */\n    tag_40:\n        /* \"#utility.yul\":7649:7655   */\n      0x00\n        /* \"#utility.yul\":7657:7663   */\n      dup1\n        /* \"#utility.yul\":7706:7708   */\n      0x40\n        /* \"#utility.yul\":7694:7703   */\n      dup4\n        /* \"#utility.yul\":7685:7692   */\n      dup6\n        /* \"#utility.yul\":7681:7704   */\n      sub\n        /* \"#utility.yul\":7677:7709   */\n      slt\n        /* \"#utility.yul\":7674:7676   */\n      iszero\n      tag_436\n      jumpi\n        /* \"#utility.yul\":7722:7723   */\n      0x00\n        /* \"#utility.yul\":7719:7720   */\n      dup1\n        /* \"#utility.yul\":7712:7724   */\n      revert\n        /* \"#utility.yul\":7674:7676   */\n    tag_436:\n        /* \"#utility.yul\":7765:7766   */\n      0x00\n        /* \"#utility.yul\":7790:7843   */\n      tag_437\n        /* \"#utility.yul\":7835:7842   */\n      dup6\n        /* \"#utility.yul\":7826:7832   */\n      dup3\n        /* \"#utility.yul\":7815:7824   */\n      dup7\n        /* \"#utility.yul\":7811:7833   */\n      add\n        /* \"#utility.yul\":7790:7843   */\n      tag_343\n      jump\t// in\n    tag_437:\n        /* \"#utility.yul\":7780:7843   */\n      swap3\n      pop\n        /* \"#utility.yul\":7736:7853   */\n      pop\n        /* \"#utility.yul\":7892:7894   */\n      0x20\n        /* \"#utility.yul\":7918:7971   */\n      tag_438\n        /* \"#utility.yul\":7963:7970   */\n      dup6\n        /* \"#utility.yul\":7954:7960   */\n      dup3\n        /* \"#utility.yul\":7943:7952   */\n      dup7\n        /* \"#utility.yul\":7939:7961   */\n      add\n        /* \"#utility.yul\":7918:7971   */\n      tag_354\n      jump\t// in\n    tag_438:\n        /* \"#utility.yul\":7908:7971   */\n      swap2\n      pop\n        /* \"#utility.yul\":7863:7981   */\n      pop\n        /* \"#utility.yul\":7664:7988   */\n      swap3\n      pop\n      swap3\n      swap1\n      pop\n      jump\t// out\n        /* \"#utility.yul\":7994:8254   */\n    tag_24:\n        /* \"#utility.yul\":8052:8058   */\n      0x00\n        /* \"#utility.yul\":8101:8103   */\n      0x20\n        /* \"#utility.yul\":8089:8098   */\n      dup3\n        /* \"#utility.yul\":8080:8087   */\n      dup5\n        /* \"#utility.yul\":8076:8099   */\n      sub\n        /* \"#utility.yul\":8072:8104   */\n      slt\n        /* \"#utility.yul\":8069:8071   */\n      iszero\n      tag_440\n      jumpi\n        /* \"#utility.yul\":8117:8118   */\n      0x00\n        /* \"#utility.yul\":8114:8115   */\n      dup1\n        /* \"#utility.yul\":8107:8119   */\n      revert\n        /* \"#utility.yul\":8069:8071   */\n    tag_440:\n        /* \"#utility.yul\":8160:8161   */\n      0x00\n        /* \"#utility.yul\":8185:8237   */\n      tag_441\n        /* \"#utility.yul\":8229:8236   */\n      dup5\n        /* \"#utility.yul\":8220:8226   */\n      dup3\n        /* \"#utility.yul\":8209:8218   */\n      dup6\n        /* \"#utility.yul\":8205:8227   */\n      add\n        /* \"#utility.yul\":8185:8237   */\n      tag_385\n      jump\t// in\n    tag_441:\n        /* \"#utility.yul\":8175:8237   */\n      swap2\n      pop\n        /* \"#utility.yul\":8131:8247   */\n      pop\n        /* \"#utility.yul\":8059:8254   */\n      swap3\n      swap2\n      pop\n      pop\n      jump\t// out\n        /* \"#utility.yul\":8260:8542   */\n    tag_283:\n        /* \"#utility.yul\":8329:8335   */\n      0x00\n        /* \"#utility.yul\":8378:8380   */\n      0x20\n        /* \"#utility.yul\":8366:8375   */\n      dup3\n        /* \"#utility.yul\":8357:8364   */\n      dup5\n        /* \"#utility.yul\":8353:8376   */\n      sub\n        /* \"#utility.yul\":8349:8381   */\n      slt\n        /* \"#utility.yul\":8346:8348   */\n      iszero\n      tag_443\n      jumpi\n        /* \"#utility.yul\":8394:8395   */\n      0x00\n        /* \"#utility.yul\":8391:8392   */\n      dup1\n        /* \"#utility.yul\":8384:8396   */\n      revert\n        /* \"#utility.yul\":8346:8348   */\n    tag_443:\n        /* \"#utility.yul\":8437:8438   */\n      0x00\n        /* \"#utility.yul\":8462:8525   */\n      tag_444\n        /* \"#utility.yul\":8517:8524   */\n      dup5\n        /* \"#utility.yul\":8508:8514   */\n      dup3\n        /* \"#utility.yul\":8497:8506   */\n      dup6\n        /* \"#utility.yul\":8493:8515   */\n      add\n        /* \"#utility.yul\":8462:8525   */\n      tag_389\n      jump\t// in\n    tag_444:\n        /* \"#utility.yul\":8452:8525   */\n      swap2\n      pop\n        /* \"#utility.yul\":8408:8535   */\n      pop\n        /* \"#utility.yul\":8336:8542   */\n      swap3\n      swap2\n      pop\n      pop\n      jump\t// out\n        /* \"#utility.yul\":8548:8810   */\n    tag_34:\n        /* \"#utility.yul\":8607:8613   */\n      0x00\n        /* \"#utility.yul\":8656:8658   */\n      0x20\n        /* \"#utility.yul\":8644:8653   */\n      dup3\n        /* \"#utility.yul\":8635:8642   */\n      dup5\n        /* \"#utility.yul\":8631:8654   */\n      sub\n        /* \"#utility.yul\":8627:8659   */\n      slt\n        /* \"#utility.yul\":8624:8626   */\n      iszero\n      tag_446\n      jumpi\n        /* \"#utility.yul\":8672:8673   */\n      0x00\n        /* \"#utility.yul\":8669:8670   */\n      dup1\n        /* \"#utility.yul\":8662:8674   */\n      revert\n        /* \"#utility.yul\":8624:8626   */\n    tag_446:\n        /* \"#utility.yul\":8715:8716   */\n      0x00\n        /* \"#utility.yul\":8740:8793   */\n      tag_447\n        /* \"#utility.yul\":8785:8792   */\n      dup5\n        /* \"#utility.yul\":8776:8782   */\n      dup3\n        /* \"#utility.yul\":8765:8774   */\n      dup6\n        /* \"#utility.yul\":8761:8783   */\n      add\n        /* \"#utility.yul\":8740:8793   */\n      tag_354\n      jump\t// in\n    tag_447:\n        /* \"#utility.yul\":8730:8793   */\n      swap2\n      pop\n        /* \"#utility.yul\":8686:8803   */\n      pop\n        /* \"#utility.yul\":8614:8810   */\n      swap3\n      swap2\n      pop\n      pop\n      jump\t// out\n        /* \"#utility.yul\":8816:8995   */\n    tag_448:\n        /* \"#utility.yul\":8885:8895   */\n      0x00\n        /* \"#utility.yul\":8906:8952   */\n      tag_450\n        /* \"#utility.yul\":8948:8951   */\n      dup4\n        /* \"#utility.yul\":8940:8946   */\n      dup4\n        /* \"#utility.yul\":8906:8952   */\n      tag_451\n      jump\t// in\n    tag_450:\n        /* \"#utility.yul\":8984:8988   */\n      0x20\n        /* \"#utility.yul\":8979:8982   */\n      dup4\n        /* \"#utility.yul\":8975:8989   */\n      add\n        /* \"#utility.yul\":8961:8989   */\n      swap1\n      pop\n        /* \"#utility.yul\":8896:8995   */\n      swap3\n      swap2\n      pop\n      pop\n      jump\t// out\n        /* \"#utility.yul\":9001:9180   */\n    tag_452:\n        /* \"#utility.yul\":9070:9080   */\n      0x00\n        /* \"#utility.yul\":9091:9137   */\n      tag_454\n        /* \"#utility.yul\":9133:9136   */\n      dup4\n        /* \"#utility.yul\":9125:9131   */\n      dup4\n        /* \"#utility.yul\":9091:9137   */\n      tag_455\n      jump\t// in\n    tag_454:\n        /* \"#utility.yul\":9169:9173   */\n      0x20\n        /* \"#utility.yul\":9164:9167   */\n      dup4\n        /* \"#utility.yul\":9160:9174   */\n      add\n        /* \"#utility.yul\":9146:9174   */\n      swap1\n      pop\n        /* \"#utility.yul\":9081:9180   */\n      swap3\n      swap2\n      pop\n      pop\n      jump\t// out\n        /* \"#utility.yul\":9186:9294   */\n    tag_451:\n        /* \"#utility.yul\":9263:9287   */\n      tag_457\n        /* \"#utility.yul\":9281:9286   */\n      dup2\n        /* \"#utility.yul\":9263:9287   */\n      tag_458\n      jump\t// in\n    tag_457:\n        /* \"#utility.yul\":9258:9261   */\n      dup3\n        /* \"#utility.yul\":9251:9288   */\n      mstore\n        /* \"#utility.yul\":9241:9294   */\n      pop\n      pop\n      jump\t// out\n        /* \"#utility.yul\":9300:9418   */\n    tag_459:\n        /* \"#utility.yul\":9387:9411   */\n      tag_461\n        /* \"#utility.yul\":9405:9410   */\n      dup2\n        /* \"#utility.yul\":9387:9411   */\n      tag_458\n      jump\t// in\n    tag_461:\n        /* \"#utility.yul\":9382:9385   */\n      dup3\n        /* \"#utility.yul\":9375:9412   */\n      mstore\n        /* \"#utility.yul\":9365:9418   */\n      pop\n      pop\n      jump\t// out\n        /* \"#utility.yul\":9454:10186   */\n    tag_462:\n        /* \"#utility.yul\":9573:9576   */\n      0x00\n        /* \"#utility.yul\":9602:9656   */\n      tag_464\n        /* \"#utility.yul\":9650:9655   */\n      dup3\n        /* \"#utility.yul\":9602:9656   */\n      tag_465\n      jump\t// in\n    tag_464:\n        /* \"#utility.yul\":9672:9758   */\n      tag_466\n        /* \"#utility.yul\":9751:9757   */\n      dup2\n        /* \"#utility.yul\":9746:9749   */\n      dup6\n        /* \"#utility.yul\":9672:9758   */\n      tag_467\n      jump\t// in\n    tag_466:\n        /* \"#utility.yul\":9665:9758   */\n      swap4\n      pop\n        /* \"#utility.yul\":9782:9838   */\n      tag_468\n        /* \"#utility.yul\":9832:9837   */\n      dup4\n        /* \"#utility.yul\":9782:9838   */\n      tag_469\n      jump\t// in\n    tag_468:\n        /* \"#utility.yul\":9861:9868   */\n      dup1\n        /* \"#utility.yul\":9892:9893   */\n      0x00\n        /* \"#utility.yul\":9877:10161   */\n    tag_470:\n        /* \"#utility.yul\":9902:9908   */\n      dup4\n        /* \"#utility.yul\":9899:9900   */\n      dup2\n        /* \"#utility.yul\":9896:9909   */\n      lt\n        /* \"#utility.yul\":9877:10161   */\n      iszero\n      tag_472\n      jumpi\n        /* \"#utility.yul\":9978:9984   */\n      dup2\n        /* \"#utility.yul\":9972:9985   */\n      mload\n        /* \"#utility.yul\":10005:10068   */\n      tag_473\n        /* \"#utility.yul\":10064:10067   */\n      dup9\n        /* \"#utility.yul\":10049:10062   */\n      dup3\n        /* \"#utility.yul\":10005:10068   */\n      tag_448\n      jump\t// in\n    tag_473:\n        /* \"#utility.yul\":9998:10068   */\n      swap8\n      pop\n        /* \"#utility.yul\":10091:10151   */\n      tag_474\n        /* \"#utility.yul\":10144:10150   */\n      dup4\n        /* \"#utility.yul\":10091:10151   */\n      tag_475\n      jump\t// in\n    tag_474:\n        /* \"#utility.yul\":10081:10151   */\n      swap3\n      pop\n        /* \"#utility.yul\":9937:10161   */\n      pop\n        /* \"#utility.yul\":9924:9925   */\n      0x01\n        /* \"#utility.yul\":9921:9922   */\n      dup2\n        /* \"#utility.yul\":9917:9926   */\n      add\n        /* \"#utility.yul\":9912:9926   */\n      swap1\n      pop\n        /* \"#utility.yul\":9877:10161   */\n      jump(tag_470)\n    tag_472:\n        /* \"#utility.yul\":9881:9895   */\n      pop\n        /* \"#utility.yul\":10177:10180   */\n      dup6\n        /* \"#utility.yul\":10170:10180   */\n      swap4\n      pop\n        /* \"#utility.yul\":9578:10186   */\n      pop\n      pop\n      pop\n      swap3\n      swap2\n      pop\n      pop\n      jump\t// out\n        /* \"#utility.yul\":10222:10954   */\n    tag_476:\n        /* \"#utility.yul\":10341:10344   */\n      0x00\n        /* \"#utility.yul\":10370:10424   */\n      tag_478\n        /* \"#utility.yul\":10418:10423   */\n      dup3\n        /* \"#utility.yul\":10370:10424   */\n      tag_479\n      jump\t// in\n    tag_478:\n        /* \"#utility.yul\":10440:10526   */\n      tag_480\n        /* \"#utility.yul\":10519:10525   */\n      dup2\n        /* \"#utility.yul\":10514:10517   */\n      dup6\n        /* \"#utility.yul\":10440:10526   */\n      tag_481\n      jump\t// in\n    tag_480:\n        /* \"#utility.yul\":10433:10526   */\n      swap4\n      pop\n        /* \"#utility.yul\":10550:10606   */\n      tag_482\n        /* \"#utility.yul\":10600:10605   */\n      dup4\n        /* \"#utility.yul\":10550:10606   */\n      tag_483\n      jump\t// in\n    tag_482:\n        /* \"#utility.yul\":10629:10636   */\n      dup1\n        /* \"#utility.yul\":10660:10661   */\n      0x00\n        /* \"#utility.yul\":10645:10929   */\n    tag_484:\n        /* \"#utility.yul\":10670:10676   */\n      dup4\n        /* \"#utility.yul\":10667:10668   */\n      dup2\n        /* \"#utility.yul\":10664:10677   */\n      lt\n        /* \"#utility.yul\":10645:10929   */\n      iszero\n      tag_486\n      jumpi\n        /* \"#utility.yul\":10746:10752   */\n      dup2\n        /* \"#utility.yul\":10740:10753   */\n      mload\n        /* \"#utility.yul\":10773:10836   */\n      tag_487\n        /* \"#utility.yul\":10832:10835   */\n      dup9\n        /* \"#utility.yul\":10817:10830   */\n      dup3\n        /* \"#utility.yul\":10773:10836   */\n      tag_452\n      jump\t// in\n    tag_487:\n        /* \"#utility.yul\":10766:10836   */\n      swap8\n      pop\n        /* \"#utility.yul\":10859:10919   */\n      tag_488\n        /* \"#utility.yul\":10912:10918   */\n      dup4\n        /* \"#utility.yul\":10859:10919   */\n      tag_489\n      jump\t// in\n    tag_488:\n        /* \"#utility.yul\":10849:10919   */\n      swap3\n      pop\n        /* \"#utility.yul\":10705:10929   */\n      pop\n        /* \"#utility.yul\":10692:10693   */\n      0x01\n        /* \"#utility.yul\":10689:10690   */\n      dup2\n        /* \"#utility.yul\":10685:10694   */\n      add\n        /* \"#utility.yul\":10680:10694   */\n      swap1\n      pop\n        /* \"#utility.yul\":10645:10929   */\n      jump(tag_484)\n    tag_486:\n        /* \"#utility.yul\":10649:10663   */\n      pop\n        /* \"#utility.yul\":10945:10948   */\n      dup6\n        /* \"#utility.yul\":10938:10948   */\n      swap4\n      pop\n        /* \"#utility.yul\":10346:10954   */\n      pop\n      pop\n      pop\n      swap3\n      swap2\n      pop\n      pop\n      jump\t// out\n        /* \"#utility.yul\":10960:11069   */\n    tag_490:\n        /* \"#utility.yul\":11041:11062   */\n      tag_492\n        /* \"#utility.yul\":11056:11061   */\n      dup2\n        /* \"#utility.yul\":11041:11062   */\n      tag_493\n      jump\t// in\n    tag_492:\n        /* \"#utility.yul\":11036:11039   */\n      dup3\n        /* \"#utility.yul\":11029:11063   */\n      mstore\n        /* \"#utility.yul\":11019:11069   */\n      pop\n      pop\n      jump\t// out\n        /* \"#utility.yul\":11075:11435   */\n    tag_494:\n        /* \"#utility.yul\":11161:11164   */\n      0x00\n        /* \"#utility.yul\":11189:11227   */\n      tag_496\n        /* \"#utility.yul\":11221:11226   */\n      dup3\n        /* \"#utility.yul\":11189:11227   */\n      tag_497\n      jump\t// in\n    tag_496:\n        /* \"#utility.yul\":11243:11313   */\n      tag_498\n        /* \"#utility.yul\":11306:11312   */\n      dup2\n        /* \"#utility.yul\":11301:11304   */\n      dup6\n        /* \"#utility.yul\":11243:11313   */\n      tag_499\n      jump\t// in\n    tag_498:\n        /* \"#utility.yul\":11236:11313   */\n      swap4\n      pop\n        /* \"#utility.yul\":11322:11374   */\n      tag_500\n        /* \"#utility.yul\":11367:11373   */\n      dup2\n        /* \"#utility.yul\":11362:11365   */\n      dup6\n        /* \"#utility.yul\":11355:11359   */\n      0x20\n        /* \"#utility.yul\":11348:11353   */\n      dup7\n        /* \"#utility.yul\":11344:11360   */\n      add\n        /* \"#utility.yul\":11322:11374   */\n      tag_501\n      jump\t// in\n    tag_500:\n        /* \"#utility.yul\":11399:11428   */\n      tag_502\n        /* \"#utility.yul\":11421:11427   */\n      dup2\n        /* \"#utility.yul\":11399:11428   */\n      tag_503\n      jump\t// in\n    tag_502:\n        /* \"#utility.yul\":11394:11397   */\n      dup5\n        /* \"#utility.yul\":11390:11429   */\n      add\n        /* \"#utility.yul\":11383:11429   */\n      swap2\n      pop\n        /* \"#utility.yul\":11165:11435   */\n      pop\n      swap3\n      swap2\n      pop\n      pop\n      jump\t// out\n        /* \"#utility.yul\":11441:11805   */\n    tag_504:\n        /* \"#utility.yul\":11529:11532   */\n      0x00\n        /* \"#utility.yul\":11557:11596   */\n      tag_506\n        /* \"#utility.yul\":11590:11595   */\n      dup3\n        /* \"#utility.yul\":11557:11596   */\n      tag_507\n      jump\t// in\n    tag_506:\n        /* \"#utility.yul\":11612:11683   */\n      tag_508\n        /* \"#utility.yul\":11676:11682   */\n      dup2\n        /* \"#utility.yul\":11671:11674   */\n      dup6\n        /* \"#utility.yul\":11612:11683   */\n      tag_509\n      jump\t// in\n    tag_508:\n        /* \"#utility.yul\":11605:11683   */\n      swap4\n      pop\n        /* \"#utility.yul\":11692:11744   */\n      tag_510\n        /* \"#utility.yul\":11737:11743   */\n      dup2\n        /* \"#utility.yul\":11732:11735   */\n      dup6\n        /* \"#utility.yul\":11725:11729   */\n      0x20\n        /* \"#utility.yul\":11718:11723   */\n      dup7\n        /* \"#utility.yul\":11714:11730   */\n      add\n        /* \"#utility.yul\":11692:11744   */\n      tag_501\n      jump\t// in\n    tag_510:\n        /* \"#utility.yul\":11769:11798   */\n      tag_511\n        /* \"#utility.yul\":11791:11797   */\n      dup2\n        /* \"#utility.yul\":11769:11798   */\n      tag_503\n      jump\t// in\n    tag_511:\n        /* \"#utility.yul\":11764:11767   */\n      dup5\n        /* \"#utility.yul\":11760:11799   */\n      add\n        /* \"#utility.yul\":11753:11799   */\n      swap2\n      pop\n        /* \"#utility.yul\":11533:11805   */\n      pop\n      swap3\n      swap2\n      pop\n      pop\n      jump\t// out\n        /* \"#utility.yul\":11811:12188   */\n    tag_512:\n        /* \"#utility.yul\":11917:11920   */\n      0x00\n        /* \"#utility.yul\":11945:11984   */\n      tag_514\n        /* \"#utility.yul\":11978:11983   */\n      dup3\n        /* \"#utility.yul\":11945:11984   */\n      tag_507\n      jump\t// in\n    tag_514:\n        /* \"#utility.yul\":12000:12089   */\n      tag_515\n        /* \"#utility.yul\":12082:12088   */\n      dup2\n        /* \"#utility.yul\":12077:12080   */\n      dup6\n        /* \"#utility.yul\":12000:12089   */\n      tag_516\n      jump\t// in\n    tag_515:\n        /* \"#utility.yul\":11993:12089   */\n      swap4\n      pop\n        /* \"#utility.yul\":12098:12150   */\n      tag_517\n        /* \"#utility.yul\":12143:12149   */\n      dup2\n        /* \"#utility.yul\":12138:12141   */\n      dup6\n        /* \"#utility.yul\":12131:12135   */\n      0x20\n        /* \"#utility.yul\":12124:12129   */\n      dup7\n        /* \"#utility.yul\":12120:12136   */\n      add\n        /* \"#utility.yul\":12098:12150   */\n      tag_501\n      jump\t// in\n    tag_517:\n        /* \"#utility.yul\":12175:12181   */\n      dup1\n        /* \"#utility.yul\":12170:12173   */\n      dup5\n        /* \"#utility.yul\":12166:12182   */\n      add\n        /* \"#utility.yul\":12159:12182   */\n      swap2\n      pop\n        /* \"#utility.yul\":11921:12188   */\n      pop\n      swap3\n      swap2\n      pop\n      pop\n      jump\t// out\n        /* \"#utility.yul\":12194:12560   */\n    tag_518:\n        /* \"#utility.yul\":12336:12339   */\n      0x00\n        /* \"#utility.yul\":12357:12424   */\n      tag_520\n        /* \"#utility.yul\":12421:12423   */\n      0x2d\n        /* \"#utility.yul\":12416:12419   */\n      dup4\n        /* \"#utility.yul\":12357:12424   */\n      tag_509\n      jump\t// in\n    tag_520:\n        /* \"#utility.yul\":12350:12424   */\n      swap2\n      pop\n        /* \"#utility.yul\":12433:12526   */\n      tag_521\n        /* \"#utility.yul\":12522:12525   */\n      dup3\n        /* \"#utility.yul\":12433:12526   */\n      tag_522\n      jump\t// in\n    tag_521:\n        /* \"#utility.yul\":12551:12553   */\n      0x40\n        /* \"#utility.yul\":12546:12549   */\n      dup3\n        /* \"#utility.yul\":12542:12554   */\n      add\n        /* \"#utility.yul\":12535:12554   */\n      swap1\n      pop\n        /* \"#utility.yul\":12340:12560   */\n      swap2\n      swap1\n      pop\n      jump\t// out\n        /* \"#utility.yul\":12566:12932   */\n    tag_523:\n        /* \"#utility.yul\":12708:12711   */\n      0x00\n        /* \"#utility.yul\":12729:12796   */\n      tag_525\n        /* \"#utility.yul\":12793:12795   */\n      0x32\n        /* \"#utility.yul\":12788:12791   */\n      dup4\n        /* \"#utility.yul\":12729:12796   */\n      tag_509\n      jump\t// in\n    tag_525:\n        /* \"#utility.yul\":12722:12796   */\n      swap2\n      pop\n        /* \"#utility.yul\":12805:12898   */\n      tag_526\n        /* \"#utility.yul\":12894:12897   */\n      dup3\n        /* \"#utility.yul\":12805:12898   */\n      tag_527\n      jump\t// in\n    tag_526:\n        /* \"#utility.yul\":12923:12925   */\n      0x40\n        /* \"#utility.yul\":12918:12921   */\n      dup3\n        /* \"#utility.yul\":12914:12926   */\n      add\n        /* \"#utility.yul\":12907:12926   */\n      swap1\n      pop\n        /* \"#utility.yul\":12712:12932   */\n      swap2\n      swap1\n      pop\n      jump\t// out\n        /* \"#utility.yul\":12938:13304   */\n    tag_528:\n        /* \"#utility.yul\":13080:13083   */\n      0x00\n        /* \"#utility.yul\":13101:13168   */\n      tag_530\n        /* \"#utility.yul\":13165:13167   */\n      0x25\n        /* \"#utility.yul\":13160:13163   */\n      dup4\n        /* \"#utility.yul\":13101:13168   */\n      tag_509\n      jump\t// in\n    tag_530:\n        /* \"#utility.yul\":13094:13168   */\n      swap2\n      pop\n        /* \"#utility.yul\":13177:13270   */\n      tag_531\n        /* \"#utility.yul\":13266:13269   */\n      dup3\n        /* \"#utility.yul\":13177:13270   */\n      tag_532\n      jump\t// in\n    tag_531:\n        /* \"#utility.yul\":13295:13297   */\n      0x40\n        /* \"#utility.yul\":13290:13293   */\n      dup3\n        /* \"#utility.yul\":13286:13298   */\n      add\n        /* \"#utility.yul\":13279:13298   */\n      swap1\n      pop\n        /* \"#utility.yul\":13084:13304   */\n      swap2\n      swap1\n      pop\n      jump\t// out\n        /* \"#utility.yul\":13310:13676   */\n    tag_533:\n        /* \"#utility.yul\":13452:13455   */\n      0x00\n        /* \"#utility.yul\":13473:13540   */\n      tag_535\n        /* \"#utility.yul\":13537:13539   */\n      0x1c\n        /* \"#utility.yul\":13532:13535   */\n      dup4\n        /* \"#utility.yul\":13473:13540   */\n      tag_509\n      jump\t// in\n    tag_535:\n        /* \"#utility.yul\":13466:13540   */\n      swap2\n      pop\n        /* \"#utility.yul\":13549:13642   */\n      tag_536\n        /* \"#utility.yul\":13638:13641   */\n      dup3\n        /* \"#utility.yul\":13549:13642   */\n      tag_537\n      jump\t// in\n    tag_536:\n        /* \"#utility.yul\":13667:13669   */\n      0x20\n        /* \"#utility.yul\":13662:13665   */\n      dup3\n        /* \"#utility.yul\":13658:13670   */\n      add\n        /* \"#utility.yul\":13651:13670   */\n      swap1\n      pop\n        /* \"#utility.yul\":13456:13676   */\n      swap2\n      swap1\n      pop\n      jump\t// out\n        /* \"#utility.yul\":13682:14048   */\n    tag_538:\n        /* \"#utility.yul\":13824:13827   */\n      0x00\n        /* \"#utility.yul\":13845:13912   */\n      tag_540\n        /* \"#utility.yul\":13909:13911   */\n      0x24\n        /* \"#utility.yul\":13904:13907   */\n      dup4\n        /* \"#utility.yul\":13845:13912   */\n      tag_509\n      jump\t// in\n    tag_540:\n        /* \"#utility.yul\":13838:13912   */\n      swap2\n      pop\n        /* \"#utility.yul\":13921:14014   */\n      tag_541\n        /* \"#utility.yul\":14010:14013   */\n      dup3\n        /* \"#utility.yul\":13921:14014   */\n      tag_542\n      jump\t// in\n    tag_541:\n        /* \"#utility.yul\":14039:14041   */\n      0x40\n        /* \"#utility.yul\":14034:14037   */\n      dup3\n        /* \"#utility.yul\":14030:14042   */\n      add\n        /* \"#utility.yul\":14023:14042   */\n      swap1\n      pop\n        /* \"#utility.yul\":13828:14048   */\n      swap2\n      swap1\n      pop\n      jump\t// out\n        /* \"#utility.yul\":14054:14420   */\n    tag_543:\n        /* \"#utility.yul\":14196:14199   */\n      0x00\n        /* \"#utility.yul\":14217:14284   */\n      tag_545\n        /* \"#utility.yul\":14281:14283   */\n      0x19\n        /* \"#utility.yul\":14276:14279   */\n      dup4\n        /* \"#utility.yul\":14217:14284   */\n      tag_509\n      jump\t// in\n    tag_545:\n        /* \"#utility.yul\":14210:14284   */\n      swap2\n      pop\n        /* \"#utility.yul\":14293:14386   */\n      tag_546\n        /* \"#utility.yul\":14382:14385   */\n      dup3\n        /* \"#utility.yul\":14293:14386   */\n      tag_547\n      jump\t// in\n    tag_546:\n        /* \"#utility.yul\":14411:14413   */\n      0x20\n        /* \"#utility.yul\":14406:14409   */\n      dup3\n        /* \"#utility.yul\":14402:14414   */\n      add\n        /* \"#utility.yul\":14395:14414   */\n      swap1\n      pop\n        /* \"#utility.yul\":14200:14420   */\n      swap2\n      swap1\n      pop\n      jump\t// out\n        /* \"#utility.yul\":14426:14792   */\n    tag_548:\n        /* \"#utility.yul\":14568:14571   */\n      0x00\n        /* \"#utility.yul\":14589:14656   */\n      tag_550\n        /* \"#utility.yul\":14653:14655   */\n      0x29\n        /* \"#utility.yul\":14648:14651   */\n      dup4\n        /* \"#utility.yul\":14589:14656   */\n      tag_509\n      jump\t// in\n    tag_550:\n        /* \"#utility.yul\":14582:14656   */\n      swap2\n      pop\n        /* \"#utility.yul\":14665:14758   */\n      tag_551\n        /* \"#utility.yul\":14754:14757   */\n      dup3\n        /* \"#utility.yul\":14665:14758   */\n      tag_552\n      jump\t// in\n    tag_551:\n        /* \"#utility.yul\":14783:14785   */\n      0x40\n        /* \"#utility.yul\":14778:14781   */\n      dup3\n        /* \"#utility.yul\":14774:14786   */\n      add\n        /* \"#utility.yul\":14767:14786   */\n      swap1\n      pop\n        /* \"#utility.yul\":14572:14792   */\n      swap2\n      swap1\n      pop\n      jump\t// out\n        /* \"#utility.yul\":14798:15164   */\n    tag_553:\n        /* \"#utility.yul\":14940:14943   */\n      0x00\n        /* \"#utility.yul\":14961:15028   */\n      tag_555\n        /* \"#utility.yul\":15025:15027   */\n      0x2e\n        /* \"#utility.yul\":15020:15023   */\n      dup4\n        /* \"#utility.yul\":14961:15028   */\n      tag_509\n      jump\t// in\n    tag_555:\n        /* \"#utility.yul\":14954:15028   */\n      swap2\n      pop\n        /* \"#utility.yul\":15037:15130   */\n      tag_556\n        /* \"#utility.yul\":15126:15129   */\n      dup3\n        /* \"#utility.yul\":15037:15130   */\n      tag_557\n      jump\t// in\n    tag_556:\n        /* \"#utility.yul\":15155:15157   */\n      0x40\n        /* \"#utility.yul\":15150:15153   */\n      dup3\n        /* \"#utility.yul\":15146:15158   */\n      add\n        /* \"#utility.yul\":15139:15158   */\n      swap1\n      pop\n        /* \"#utility.yul\":14944:15164   */\n      swap2\n      swap1\n      pop\n      jump\t// out\n        /* \"#utility.yul\":15170:15536   */\n    tag_558:\n        /* \"#utility.yul\":15312:15315   */\n      0x00\n        /* \"#utility.yul\":15333:15400   */\n      tag_560\n        /* \"#utility.yul\":15397:15399   */\n      0x20\n        /* \"#utility.yul\":15392:15395   */\n      dup4\n        /* \"#utility.yul\":15333:15400   */\n      tag_509\n      jump\t// in\n    tag_560:\n        /* \"#utility.yul\":15326:15400   */\n      swap2\n      pop\n        /* \"#utility.yul\":15409:15502   */\n      tag_561\n        /* \"#utility.yul\":15498:15501   */\n      dup3\n        /* \"#utility.yul\":15409:15502   */\n      tag_562\n      jump\t// in\n    tag_561:\n        /* \"#utility.yul\":15527:15529   */\n      0x20\n        /* \"#utility.yul\":15522:15525   */\n      dup3\n        /* \"#utility.yul\":15518:15530   */\n      add\n        /* \"#utility.yul\":15511:15530   */\n      swap1\n      pop\n        /* \"#utility.yul\":15316:15536   */\n      swap2\n      swap1\n      pop\n      jump\t// out\n        /* \"#utility.yul\":15542:15908   */\n    tag_563:\n        /* \"#utility.yul\":15684:15687   */\n      0x00\n        /* \"#utility.yul\":15705:15772   */\n      tag_565\n        /* \"#utility.yul\":15769:15771   */\n      0x2f\n        /* \"#utility.yul\":15764:15767   */\n      dup4\n        /* \"#utility.yul\":15705:15772   */\n      tag_509\n      jump\t// in\n    tag_565:\n        /* \"#utility.yul\":15698:15772   */\n      swap2\n      pop\n        /* \"#utility.yul\":15781:15874   */\n      tag_566\n        /* \"#utility.yul\":15870:15873   */\n      dup3\n        /* \"#utility.yul\":15781:15874   */\n      tag_567\n      jump\t// in\n    tag_566:\n        /* \"#utility.yul\":15899:15901   */\n      0x40\n        /* \"#utility.yul\":15894:15897   */\n      dup3\n        /* \"#utility.yul\":15890:15902   */\n      add\n        /* \"#utility.yul\":15883:15902   */\n      swap1\n      pop\n        /* \"#utility.yul\":15688:15908   */\n      swap2\n      swap1\n      pop\n      jump\t// out\n        /* \"#utility.yul\":15914:16280   */\n    tag_568:\n        /* \"#utility.yul\":16056:16059   */\n      0x00\n        /* \"#utility.yul\":16077:16144   */\n      tag_570\n        /* \"#utility.yul\":16141:16143   */\n      0x18\n        /* \"#utility.yul\":16136:16139   */\n      dup4\n        /* \"#utility.yul\":16077:16144   */\n      tag_509\n      jump\t// in\n    tag_570:\n        /* \"#utility.yul\":16070:16144   */\n      swap2\n      pop\n        /* \"#utility.yul\":16153:16246   */\n      tag_571\n        /* \"#utility.yul\":16242:16245   */\n      dup3\n        /* \"#utility.yul\":16153:16246   */\n      tag_572\n      jump\t// in\n    tag_571:\n        /* \"#utility.yul\":16271:16273   */\n      0x20\n        /* \"#utility.yul\":16266:16269   */\n      dup3\n        /* \"#utility.yul\":16262:16274   */\n      add\n        /* \"#utility.yul\":16255:16274   */\n      swap1\n      pop\n        /* \"#utility.yul\":16060:16280   */\n      swap2\n      swap1\n      pop\n      jump\t// out\n        /* \"#utility.yul\":16286:16652   */\n    tag_573:\n        /* \"#utility.yul\":16428:16431   */\n      0x00\n        /* \"#utility.yul\":16449:16516   */\n      tag_575\n        /* \"#utility.yul\":16513:16515   */\n      0x21\n        /* \"#utility.yul\":16508:16511   */\n      dup4\n        /* \"#utility.yul\":16449:16516   */\n      tag_509\n      jump\t// in\n    tag_575:\n        /* \"#utility.yul\":16442:16516   */\n      swap2\n      pop\n        /* \"#utility.yul\":16525:16618   */\n      tag_576\n        /* \"#utility.yul\":16614:16617   */\n      dup3\n        /* \"#utility.yul\":16525:16618   */\n      tag_577\n      jump\t// in\n    tag_576:\n        /* \"#utility.yul\":16643:16645   */\n      0x40\n        /* \"#utility.yul\":16638:16641   */\n      dup3\n        /* \"#utility.yul\":16634:16646   */\n      add\n        /* \"#utility.yul\":16627:16646   */\n      swap1\n      pop\n        /* \"#utility.yul\":16432:16652   */\n      swap2\n      swap1\n      pop\n      jump\t// out\n        /* \"#utility.yul\":16658:17024   */\n    tag_578:\n        /* \"#utility.yul\":16800:16803   */\n      0x00\n        /* \"#utility.yul\":16821:16888   */\n      tag_580\n        /* \"#utility.yul\":16885:16887   */\n      0x3d\n        /* \"#utility.yul\":16880:16883   */\n      dup4\n        /* \"#utility.yul\":16821:16888   */\n      tag_509\n      jump\t// in\n    tag_580:\n        /* \"#utility.yul\":16814:16888   */\n      swap2\n      pop\n        /* \"#utility.yul\":16897:16990   */\n      tag_581\n        /* \"#utility.yul\":16986:16989   */\n      dup3\n        /* \"#utility.yul\":16897:16990   */\n      tag_582\n      jump\t// in\n    tag_581:\n        /* \"#utility.yul\":17015:17017   */\n      0x40\n        /* \"#utility.yul\":17010:17013   */\n      dup3\n        /* \"#utility.yul\":17006:17018   */\n      add\n        /* \"#utility.yul\":16999:17018   */\n      swap1\n      pop\n        /* \"#utility.yul\":16804:17024   */\n      swap2\n      swap1\n      pop\n      jump\t// out\n        /* \"#utility.yul\":17030:17138   */\n    tag_455:\n        /* \"#utility.yul\":17107:17131   */\n      tag_584\n        /* \"#utility.yul\":17125:17130   */\n      dup2\n        /* \"#utility.yul\":17107:17131   */\n      tag_585\n      jump\t// in\n    tag_584:\n        /* \"#utility.yul\":17102:17105   */\n      dup3\n        /* \"#utility.yul\":17095:17132   */\n      mstore\n        /* \"#utility.yul\":17085:17138   */\n      pop\n      pop\n      jump\t// out\n        /* \"#utility.yul\":17144:17262   */\n    tag_586:\n        /* \"#utility.yul\":17231:17255   */\n      tag_588\n        /* \"#utility.yul\":17249:17254   */\n      dup2\n        /* \"#utility.yul\":17231:17255   */\n      tag_585\n      jump\t// in\n    tag_588:\n        /* \"#utility.yul\":17226:17229   */\n      dup3\n        /* \"#utility.yul\":17219:17256   */\n      mstore\n        /* \"#utility.yul\":17209:17262   */\n      pop\n      pop\n      jump\t// out\n        /* \"#utility.yul\":17268:17703   */\n    tag_185:\n        /* \"#utility.yul\":17448:17451   */\n      0x00\n        /* \"#utility.yul\":17470:17565   */\n      tag_590\n        /* \"#utility.yul\":17561:17564   */\n      dup3\n        /* \"#utility.yul\":17552:17558   */\n      dup6\n        /* \"#utility.yul\":17470:17565   */\n      tag_512\n      jump\t// in\n    tag_590:\n        /* \"#utility.yul\":17463:17565   */\n      swap2\n      pop\n        /* \"#utility.yul\":17582:17677   */\n      tag_591\n        /* \"#utility.yul\":17673:17676   */\n      dup3\n        /* \"#utility.yul\":17664:17670   */\n      dup5\n        /* \"#utility.yul\":17582:17677   */\n      tag_512\n      jump\t// in\n    tag_591:\n        /* \"#utility.yul\":17575:17677   */\n      swap2\n      pop\n        /* \"#utility.yul\":17694:17697   */\n      dup2\n        /* \"#utility.yul\":17687:17697   */\n      swap1\n      pop\n        /* \"#utility.yul\":17452:17703   */\n      swap4\n      swap3\n      pop\n      pop\n      pop\n      jump\t// out\n        /* \"#utility.yul\":17709:17931   */\n    tag_37:\n        /* \"#utility.yul\":17802:17806   */\n      0x00\n        /* \"#utility.yul\":17840:17842   */\n      0x20\n        /* \"#utility.yul\":17829:17838   */\n      dup3\n        /* \"#utility.yul\":17825:17843   */\n      add\n        /* \"#utility.yul\":17817:17843   */\n      swap1\n      pop\n        /* \"#utility.yul\":17853:17924   */\n      tag_593\n        /* \"#utility.yul\":17921:17922   */\n      0x00\n        /* \"#utility.yul\":17910:17919   */\n      dup4\n        /* \"#utility.yul\":17906:17923   */\n      add\n        /* \"#utility.yul\":17897:17903   */\n      dup5\n        /* \"#utility.yul\":17853:17924   */\n      tag_459\n      jump\t// in\n    tag_593:\n        /* \"#utility.yul\":17807:17931   */\n      swap3\n      swap2\n      pop\n      pop\n      jump\t// out\n        /* \"#utility.yul\":17937:18577   */\n    tag_279:\n        /* \"#utility.yul\":18132:18136   */\n      0x00\n        /* \"#utility.yul\":18170:18173   */\n      0x80\n        /* \"#utility.yul\":18159:18168   */\n      dup3\n        /* \"#utility.yul\":18155:18174   */\n      add\n        /* \"#utility.yul\":18147:18174   */\n      swap1\n      pop\n        /* \"#utility.yul\":18184:18255   */\n      tag_595\n        /* \"#utility.yul\":18252:18253   */\n      0x00\n        /* \"#utility.yul\":18241:18250   */\n      dup4\n        /* \"#utility.yul\":18237:18254   */\n      add\n        /* \"#utility.yul\":18228:18234   */\n      dup8\n        /* \"#utility.yul\":18184:18255   */\n      tag_459\n      jump\t// in\n    tag_595:\n        /* \"#utility.yul\":18265:18337   */\n      tag_596\n        /* \"#utility.yul\":18333:18335   */\n      0x20\n        /* \"#utility.yul\":18322:18331   */\n      dup4\n        /* \"#utility.yul\":18318:18336   */\n      add\n        /* \"#utility.yul\":18309:18315   */\n      dup7\n        /* \"#utility.yul\":18265:18337   */\n      tag_459\n      jump\t// in\n    tag_596:\n        /* \"#utility.yul\":18347:18419   */\n      tag_597\n        /* \"#utility.yul\":18415:18417   */\n      0x40\n        /* \"#utility.yul\":18404:18413   */\n      dup4\n        /* \"#utility.yul\":18400:18418   */\n      add\n        /* \"#utility.yul\":18391:18397   */\n      dup6\n        /* \"#utility.yul\":18347:18419   */\n      tag_586\n      jump\t// in\n    tag_597:\n        /* \"#utility.yul\":18466:18475   */\n      dup2\n        /* \"#utility.yul\":18460:18464   */\n      dup2\n        /* \"#utility.yul\":18456:18476   */\n      sub\n        /* \"#utility.yul\":18451:18453   */\n      0x60\n        /* \"#utility.yul\":18440:18449   */\n      dup4\n        /* \"#utility.yul\":18436:18454   */\n      add\n        /* \"#utility.yul\":18429:18477   */\n      mstore\n        /* \"#utility.yul\":18494:18570   */\n      tag_598\n        /* \"#utility.yul\":18565:18569   */\n      dup2\n        /* \"#utility.yul\":18556:18562   */\n      dup5\n        /* \"#utility.yul\":18494:18570   */\n      tag_494\n      jump\t// in\n    tag_598:\n        /* \"#utility.yul\":18486:18570   */\n      swap1\n      pop\n        /* \"#utility.yul\":18137:18577   */\n      swap6\n      swap5\n      pop\n      pop\n      pop\n      pop\n      pop\n      jump\t// out\n        /* \"#utility.yul\":18583:18956   */\n    tag_59:\n        /* \"#utility.yul\":18726:18730   */\n      0x00\n        /* \"#utility.yul\":18764:18766   */\n      0x20\n        /* \"#utility.yul\":18753:18762   */\n      dup3\n        /* \"#utility.yul\":18749:18767   */\n      add\n        /* \"#utility.yul\":18741:18767   */\n      swap1\n      pop\n        /* \"#utility.yul\":18813:18822   */\n      dup2\n        /* \"#utility.yul\":18807:18811   */\n      dup2\n        /* \"#utility.yul\":18803:18823   */\n      sub\n        /* \"#utility.yul\":18799:18800   */\n      0x00\n        /* \"#utility.yul\":18788:18797   */\n      dup4\n        /* \"#utility.yul\":18784:18801   */\n      add\n        /* \"#utility.yul\":18777:18824   */\n      mstore\n        /* \"#utility.yul\":18841:18949   */\n      tag_600\n        /* \"#utility.yul\":18944:18948   */\n      dup2\n        /* \"#utility.yul\":18935:18941   */\n      dup5\n        /* \"#utility.yul\":18841:18949   */\n      tag_462\n      jump\t// in\n    tag_600:\n        /* \"#utility.yul\":18833:18949   */\n      swap1\n      pop\n        /* \"#utility.yul\":18731:18956   */\n      swap3\n      swap2\n      pop\n      pop\n      jump\t// out\n        /* \"#utility.yul\":18962:19335   */\n    tag_93:\n        /* \"#utility.yul\":19105:19109   */\n      0x00\n        /* \"#utility.yul\":19143:19145   */\n      0x20\n        /* \"#utility.yul\":19132:19141   */\n      dup3\n        /* \"#utility.yul\":19128:19146   */\n      add\n        /* \"#utility.yul\":19120:19146   */\n      swap1\n      pop\n        /* \"#utility.yul\":19192:19201   */\n      dup2\n        /* \"#utility.yul\":19186:19190   */\n      dup2\n        /* \"#utility.yul\":19182:19202   */\n      sub\n        /* \"#utility.yul\":19178:19179   */\n      0x00\n        /* \"#utility.yul\":19167:19176   */\n      dup4\n        /* \"#utility.yul\":19163:19180   */\n      add\n        /* \"#utility.yul\":19156:19203   */\n      mstore\n        /* \"#utility.yul\":19220:19328   */\n      tag_602\n        /* \"#utility.yul\":19323:19327   */\n      dup2\n        /* \"#utility.yul\":19314:19320   */\n      dup5\n        /* \"#utility.yul\":19220:19328   */\n      tag_476\n      jump\t// in\n    tag_602:\n        /* \"#utility.yul\":19212:19328   */\n      swap1\n      pop\n        /* \"#utility.yul\":19110:19335   */\n      swap3\n      swap2\n      pop\n      pop\n      jump\t// out\n        /* \"#utility.yul\":19341:19551   */\n    tag_27:\n        /* \"#utility.yul\":19428:19432   */\n      0x00\n        /* \"#utility.yul\":19466:19468   */\n      0x20\n        /* \"#utility.yul\":19455:19464   */\n      dup3\n        /* \"#utility.yul\":19451:19469   */\n      add\n        /* \"#utility.yul\":19443:19469   */\n      swap1\n      pop\n        /* \"#utility.yul\":19479:19544   */\n      tag_604\n        /* \"#utility.yul\":19541:19542   */\n      0x00\n        /* \"#utility.yul\":19530:19539   */\n      dup4\n        /* \"#utility.yul\":19526:19543   */\n      add\n        /* \"#utility.yul\":19517:19523   */\n      dup5\n        /* \"#utility.yul\":19479:19544   */\n      tag_490\n      jump\t// in\n    tag_604:\n        /* \"#utility.yul\":19433:19551   */\n      swap3\n      swap2\n      pop\n      pop\n      jump\t// out\n        /* \"#utility.yul\":19557:19870   */\n    tag_31:\n        /* \"#utility.yul\":19670:19674   */\n      0x00\n        /* \"#utility.yul\":19708:19710   */\n      0x20\n        /* \"#utility.yul\":19697:19706   */\n      dup3\n        /* \"#utility.yul\":19693:19711   */\n      add\n        /* \"#utility.yul\":19685:19711   */\n      swap1\n      pop\n        /* \"#utility.yul\":19757:19766   */\n      dup2\n        /* \"#utility.yul\":19751:19755   */\n      dup2\n        /* \"#utility.yul\":19747:19767   */\n      sub\n        /* \"#utility.yul\":19743:19744   */\n      0x00\n        /* \"#utility.yul\":19732:19741   */\n      dup4\n        /* \"#utility.yul\":19728:19745   */\n      add\n        /* \"#utility.yul\":19721:19768   */\n      mstore\n        /* \"#utility.yul\":19785:19863   */\n      tag_606\n        /* \"#utility.yul\":19858:19862   */\n      dup2\n        /* \"#utility.yul\":19849:19855   */\n      dup5\n        /* \"#utility.yul\":19785:19863   */\n      tag_504\n      jump\t// in\n    tag_606:\n        /* \"#utility.yul\":19777:19863   */\n      swap1\n      pop\n        /* \"#utility.yul\":19675:19870   */\n      swap3\n      swap2\n      pop\n      pop\n      jump\t// out\n        /* \"#utility.yul\":19876:20295   */\n    tag_130:\n        /* \"#utility.yul\":20042:20046   */\n      0x00\n        /* \"#utility.yul\":20080:20082   */\n      0x20\n        /* \"#utility.yul\":20069:20078   */\n      dup3\n        /* \"#utility.yul\":20065:20083   */\n      add\n        /* \"#utility.yul\":20057:20083   */\n      swap1\n      pop\n        /* \"#utility.yul\":20129:20138   */\n      dup2\n        /* \"#utility.yul\":20123:20127   */\n      dup2\n        /* \"#utility.yul\":20119:20139   */\n      sub\n        /* \"#utility.yul\":20115:20116   */\n      0x00\n        /* \"#utility.yul\":20104:20113   */\n      dup4\n        /* \"#utility.yul\":20100:20117   */\n      add\n        /* \"#utility.yul\":20093:20140   */\n      mstore\n        /* \"#utility.yul\":20157:20288   */\n      tag_608\n        /* \"#utility.yul\":20283:20287   */\n      dup2\n        /* \"#utility.yul\":20157:20288   */\n      tag_518\n      jump\t// in\n    tag_608:\n        /* \"#utility.yul\":20149:20288   */\n      swap1\n      pop\n        /* \"#utility.yul\":20047:20295   */\n      swap2\n      swap1\n      pop\n      jump\t// out\n        /* \"#utility.yul\":20301:20720   */\n    tag_242:\n        /* \"#utility.yul\":20467:20471   */\n      0x00\n        /* \"#utility.yul\":20505:20507   */\n      0x20\n        /* \"#utility.yul\":20494:20503   */\n      dup3\n        /* \"#utility.yul\":20490:20508   */\n      add\n        /* \"#utility.yul\":20482:20508   */\n      swap1\n      pop\n        /* \"#utility.yul\":20554:20563   */\n      dup2\n        /* \"#utility.yul\":20548:20552   */\n      dup2\n        /* \"#utility.yul\":20544:20564   */\n      sub\n        /* \"#utility.yul\":20540:20541   */\n      0x00\n        /* \"#utility.yul\":20529:20538   */\n      dup4\n        /* \"#utility.yul\":20525:20542   */\n      add\n        /* \"#utility.yul\":20518:20565   */\n      mstore\n        /* \"#utility.yul\":20582:20713   */\n      tag_610\n        /* \"#utility.yul\":20708:20712   */\n      dup2\n        /* \"#utility.yul\":20582:20713   */\n      tag_523\n      jump\t// in\n    tag_610:\n        /* \"#utility.yul\":20574:20713   */\n      swap1\n      pop\n        /* \"#utility.yul\":20472:20720   */\n      swap2\n      swap1\n      pop\n      jump\t// out\n        /* \"#utility.yul\":20726:21145   */\n    tag_208:\n        /* \"#utility.yul\":20892:20896   */\n      0x00\n        /* \"#utility.yul\":20930:20932   */\n      0x20\n        /* \"#utility.yul\":20919:20928   */\n      dup3\n        /* \"#utility.yul\":20915:20933   */\n      add\n        /* \"#utility.yul\":20907:20933   */\n      swap1\n      pop\n        /* \"#utility.yul\":20979:20988   */\n      dup2\n        /* \"#utility.yul\":20973:20977   */\n      dup2\n        /* \"#utility.yul\":20969:20989   */\n      sub\n        /* \"#utility.yul\":20965:20966   */\n      0x00\n        /* \"#utility.yul\":20954:20963   */\n      dup4\n        /* \"#utility.yul\":20950:20967   */\n      add\n        /* \"#utility.yul\":20943:20990   */\n      mstore\n        /* \"#utility.yul\":21007:21138   */\n      tag_612\n        /* \"#utility.yul\":21133:21137   */\n      dup2\n        /* \"#utility.yul\":21007:21138   */\n      tag_528\n      jump\t// in\n    tag_612:\n        /* \"#utility.yul\":20999:21138   */\n      swap1\n      pop\n        /* \"#utility.yul\":20897:21145   */\n      swap2\n      swap1\n      pop\n      jump\t// out\n        /* \"#utility.yul\":21151:21570   */\n    tag_302:\n        /* \"#utility.yul\":21317:21321   */\n      0x00\n        /* \"#utility.yul\":21355:21357   */\n      0x20\n        /* \"#utility.yul\":21344:21353   */\n      dup3\n        /* \"#utility.yul\":21340:21358   */\n      add\n        /* \"#utility.yul\":21332:21358   */\n      swap1\n      pop\n        /* \"#utility.yul\":21404:21413   */\n      dup2\n        /* \"#utility.yul\":21398:21402   */\n      dup2\n        /* \"#utility.yul\":21394:21414   */\n      sub\n        /* \"#utility.yul\":21390:21391   */\n      0x00\n        /* \"#utility.yul\":21379:21388   */\n      dup4\n        /* \"#utility.yul\":21375:21392   */\n      add\n        /* \"#utility.yul\":21368:21415   */\n      mstore\n        /* \"#utility.yul\":21432:21563   */\n      tag_614\n        /* \"#utility.yul\":21558:21562   */\n      dup2\n        /* \"#utility.yul\":21432:21563   */\n      tag_533\n      jump\t// in\n    tag_614:\n        /* \"#utility.yul\":21424:21563   */\n      swap1\n      pop\n        /* \"#utility.yul\":21322:21570   */\n      swap2\n      swap1\n      pop\n      jump\t// out\n        /* \"#utility.yul\":21576:21995   */\n    tag_211:\n        /* \"#utility.yul\":21742:21746   */\n      0x00\n        /* \"#utility.yul\":21780:21782   */\n      0x20\n        /* \"#utility.yul\":21769:21778   */\n      dup3\n        /* \"#utility.yul\":21765:21783   */\n      add\n        /* \"#utility.yul\":21757:21783   */\n      swap1\n      pop\n        /* \"#utility.yul\":21829:21838   */\n      dup2\n        /* \"#utility.yul\":21823:21827   */\n      dup2\n        /* \"#utility.yul\":21819:21839   */\n      sub\n        /* \"#utility.yul\":21815:21816   */\n      0x00\n        /* \"#utility.yul\":21804:21813   */\n      dup4\n        /* \"#utility.yul\":21800:21817   */\n      add\n        /* \"#utility.yul\":21793:21840   */\n      mstore\n        /* \"#utility.yul\":21857:21988   */\n      tag_616\n        /* \"#utility.yul\":21983:21987   */\n      dup2\n        /* \"#utility.yul\":21857:21988   */\n      tag_538\n      jump\t// in\n    tag_616:\n        /* \"#utility.yul\":21849:21988   */\n      swap1\n      pop\n        /* \"#utility.yul\":21747:21995   */\n      swap2\n      swap1\n      pop\n      jump\t// out\n        /* \"#utility.yul\":22001:22420   */\n    tag_234:\n        /* \"#utility.yul\":22167:22171   */\n      0x00\n        /* \"#utility.yul\":22205:22207   */\n      0x20\n        /* \"#utility.yul\":22194:22203   */\n      dup3\n        /* \"#utility.yul\":22190:22208   */\n      add\n        /* \"#utility.yul\":22182:22208   */\n      swap1\n      pop\n        /* \"#utility.yul\":22254:22263   */\n      dup2\n        /* \"#utility.yul\":22248:22252   */\n      dup2\n        /* \"#utility.yul\":22244:22264   */\n      sub\n        /* \"#utility.yul\":22240:22241   */\n      0x00\n        /* \"#utility.yul\":22229:22238   */\n      dup4\n        /* \"#utility.yul\":22225:22242   */\n      add\n        /* \"#utility.yul\":22218:22265   */\n      mstore\n        /* \"#utility.yul\":22282:22413   */\n      tag_618\n        /* \"#utility.yul\":22408:22412   */\n      dup2\n        /* \"#utility.yul\":22282:22413   */\n      tag_543\n      jump\t// in\n    tag_618:\n        /* \"#utility.yul\":22274:22413   */\n      swap1\n      pop\n        /* \"#utility.yul\":22172:22420   */\n      swap2\n      swap1\n      pop\n      jump\t// out\n        /* \"#utility.yul\":22426:22845   */\n    tag_154:\n        /* \"#utility.yul\":22592:22596   */\n      0x00\n        /* \"#utility.yul\":22630:22632   */\n      0x20\n        /* \"#utility.yul\":22619:22628   */\n      dup3\n        /* \"#utility.yul\":22615:22633   */\n      add\n        /* \"#utility.yul\":22607:22633   */\n      swap1\n      pop\n        /* \"#utility.yul\":22679:22688   */\n      dup2\n        /* \"#utility.yul\":22673:22677   */\n      dup2\n        /* \"#utility.yul\":22669:22689   */\n      sub\n        /* \"#utility.yul\":22665:22666   */\n      0x00\n        /* \"#utility.yul\":22654:22663   */\n      dup4\n        /* \"#utility.yul\":22650:22667   */\n      add\n        /* \"#utility.yul\":22643:22690   */\n      mstore\n        /* \"#utility.yul\":22707:22838   */\n      tag_620\n        /* \"#utility.yul\":22833:22837   */\n      dup2\n        /* \"#utility.yul\":22707:22838   */\n      tag_548\n      jump\t// in\n    tag_620:\n        /* \"#utility.yul\":22699:22838   */\n      swap1\n      pop\n        /* \"#utility.yul\":22597:22845   */\n      swap2\n      swap1\n      pop\n      jump\t// out\n        /* \"#utility.yul\":22851:23270   */\n    tag_228:\n        /* \"#utility.yul\":23017:23021   */\n      0x00\n        /* \"#utility.yul\":23055:23057   */\n      0x20\n        /* \"#utility.yul\":23044:23053   */\n      dup3\n        /* \"#utility.yul\":23040:23058   */\n      add\n        /* \"#utility.yul\":23032:23058   */\n      swap1\n      pop\n        /* \"#utility.yul\":23104:23113   */\n      dup2\n        /* \"#utility.yul\":23098:23102   */\n      dup2\n        /* \"#utility.yul\":23094:23114   */\n      sub\n        /* \"#utility.yul\":23090:23091   */\n      0x00\n        /* \"#utility.yul\":23079:23088   */\n      dup4\n        /* \"#utility.yul\":23075:23092   */\n      add\n        /* \"#utility.yul\":23068:23115   */\n      mstore\n        /* \"#utility.yul\":23132:23263   */\n      tag_622\n        /* \"#utility.yul\":23258:23262   */\n      dup2\n        /* \"#utility.yul\":23132:23263   */\n      tag_553\n      jump\t// in\n    tag_622:\n        /* \"#utility.yul\":23124:23263   */\n      swap1\n      pop\n        /* \"#utility.yul\":23022:23270   */\n      swap2\n      swap1\n      pop\n      jump\t// out\n        /* \"#utility.yul\":23276:23695   */\n    tag_298:\n        /* \"#utility.yul\":23442:23446   */\n      0x00\n        /* \"#utility.yul\":23480:23482   */\n      0x20\n        /* \"#utility.yul\":23469:23478   */\n      dup3\n        /* \"#utility.yul\":23465:23483   */\n      add\n        /* \"#utility.yul\":23457:23483   */\n      swap1\n      pop\n        /* \"#utility.yul\":23529:23538   */\n      dup2\n        /* \"#utility.yul\":23523:23527   */\n      dup2\n        /* \"#utility.yul\":23519:23539   */\n      sub\n        /* \"#utility.yul\":23515:23516   */\n      0x00\n        /* \"#utility.yul\":23504:23513   */\n      dup4\n        /* \"#utility.yul\":23500:23517   */\n      add\n        /* \"#utility.yul\":23493:23540   */\n      mstore\n        /* \"#utility.yul\":23557:23688   */\n      tag_624\n        /* \"#utility.yul\":23683:23687   */\n      dup2\n        /* \"#utility.yul\":23557:23688   */\n      tag_558\n      jump\t// in\n    tag_624:\n        /* \"#utility.yul\":23549:23688   */\n      swap1\n      pop\n        /* \"#utility.yul\":23447:23695   */\n      swap2\n      swap1\n      pop\n      jump\t// out\n        /* \"#utility.yul\":23701:24120   */\n    tag_177:\n        /* \"#utility.yul\":23867:23871   */\n      0x00\n        /* \"#utility.yul\":23905:23907   */\n      0x20\n        /* \"#utility.yul\":23894:23903   */\n      dup3\n        /* \"#utility.yul\":23890:23908   */\n      add\n        /* \"#utility.yul\":23882:23908   */\n      swap1\n      pop\n        /* \"#utility.yul\":23954:23963   */\n      dup2\n        /* \"#utility.yul\":23948:23952   */\n      dup2\n        /* \"#utility.yul\":23944:23964   */\n      sub\n        /* \"#utility.yul\":23940:23941   */\n      0x00\n        /* \"#utility.yul\":23929:23938   */\n      dup4\n        /* \"#utility.yul\":23925:23942   */\n      add\n        /* \"#utility.yul\":23918:23965   */\n      mstore\n        /* \"#utility.yul\":23982:24113   */\n      tag_626\n        /* \"#utility.yul\":24108:24112   */\n      dup2\n        /* \"#utility.yul\":23982:24113   */\n      tag_563\n      jump\t// in\n    tag_626:\n        /* \"#utility.yul\":23974:24113   */\n      swap1\n      pop\n        /* \"#utility.yul\":23872:24120   */\n      swap2\n      swap1\n      pop\n      jump\t// out\n        /* \"#utility.yul\":24126:24545   */\n    tag_150:\n        /* \"#utility.yul\":24292:24296   */\n      0x00\n        /* \"#utility.yul\":24330:24332   */\n      0x20\n        /* \"#utility.yul\":24319:24328   */\n      dup3\n        /* \"#utility.yul\":24315:24333   */\n      add\n        /* \"#utility.yul\":24307:24333   */\n      swap1\n      pop\n        /* \"#utility.yul\":24379:24388   */\n      dup2\n        /* \"#utility.yul\":24373:24377   */\n      dup2\n        /* \"#utility.yul\":24369:24389   */\n      sub\n        /* \"#utility.yul\":24365:24366   */\n      0x00\n        /* \"#utility.yul\":24354:24363   */\n      dup4\n        /* \"#utility.yul\":24350:24367   */\n      add\n        /* \"#utility.yul\":24343:24390   */\n      mstore\n        /* \"#utility.yul\":24407:24538   */\n      tag_628\n        /* \"#utility.yul\":24533:24537   */\n      dup2\n        /* \"#utility.yul\":24407:24538   */\n      tag_568\n      jump\t// in\n    tag_628:\n        /* \"#utility.yul\":24399:24538   */\n      swap1\n      pop\n        /* \"#utility.yul\":24297:24545   */\n      swap2\n      swap1\n      pop\n      jump\t// out\n        /* \"#utility.yul\":24551:24970   */\n    tag_113:\n        /* \"#utility.yul\":24717:24721   */\n      0x00\n        /* \"#utility.yul\":24755:24757   */\n      0x20\n        /* \"#utility.yul\":24744:24753   */\n      dup3\n        /* \"#utility.yul\":24740:24758   */\n      add\n        /* \"#utility.yul\":24732:24758   */\n      swap1\n      pop\n        /* \"#utility.yul\":24804:24813   */\n      dup2\n        /* \"#utility.yul\":24798:24802   */\n      dup2\n        /* \"#utility.yul\":24794:24814   */\n      sub\n        /* \"#utility.yul\":24790:24791   */\n      0x00\n        /* \"#utility.yul\":24779:24788   */\n      dup4\n        /* \"#utility.yul\":24775:24792   */\n      add\n        /* \"#utility.yul\":24768:24815   */\n      mstore\n        /* \"#utility.yul\":24832:24963   */\n      tag_630\n        /* \"#utility.yul\":24958:24962   */\n      dup2\n        /* \"#utility.yul\":24832:24963   */\n      tag_573\n      jump\t// in\n    tag_630:\n        /* \"#utility.yul\":24824:24963   */\n      swap1\n      pop\n        /* \"#utility.yul\":24722:24970   */\n      swap2\n      swap1\n      pop\n      jump\t// out\n        /* \"#utility.yul\":24976:25395   */\n    tag_121:\n        /* \"#utility.yul\":25142:25146   */\n      0x00\n        /* \"#utility.yul\":25180:25182   */\n      0x20\n        /* \"#utility.yul\":25169:25178   */\n      dup3\n        /* \"#utility.yul\":25165:25183   */\n      add\n        /* \"#utility.yul\":25157:25183   */\n      swap1\n      pop\n        /* \"#utility.yul\":25229:25238   */\n      dup2\n        /* \"#utility.yul\":25223:25227   */\n      dup2\n        /* \"#utility.yul\":25219:25239   */\n      sub\n        /* \"#utility.yul\":25215:25216   */\n      0x00\n        /* \"#utility.yul\":25204:25213   */\n      dup4\n        /* \"#utility.yul\":25200:25217   */\n      add\n        /* \"#utility.yul\":25193:25240   */\n      mstore\n        /* \"#utility.yul\":25257:25388   */\n      tag_632\n        /* \"#utility.yul\":25383:25387   */\n      dup2\n        /* \"#utility.yul\":25257:25388   */\n      tag_578\n      jump\t// in\n    tag_632:\n        /* \"#utility.yul\":25249:25388   */\n      swap1\n      pop\n        /* \"#utility.yul\":25147:25395   */\n      swap2\n      swap1\n      pop\n      jump\t// out\n        /* \"#utility.yul\":25401:25623   */\n    tag_51:\n        /* \"#utility.yul\":25494:25498   */\n      0x00\n        /* \"#utility.yul\":25532:25534   */\n      0x20\n        /* \"#utility.yul\":25521:25530   */\n      dup3\n        /* \"#utility.yul\":25517:25535   */\n      add\n        /* \"#utility.yul\":25509:25535   */\n      swap1\n      pop\n        /* \"#utility.yul\":25545:25616   */\n      tag_634\n        /* \"#utility.yul\":25613:25614   */\n      0x00\n        /* \"#utility.yul\":25602:25611   */\n      dup4\n        /* \"#utility.yul\":25598:25615   */\n      add\n        /* \"#utility.yul\":25589:25595   */\n      dup5\n        /* \"#utility.yul\":25545:25616   */\n      tag_586\n      jump\t// in\n    tag_634:\n        /* \"#utility.yul\":25499:25623   */\n      swap3\n      swap2\n      pop\n      pop\n      jump\t// out\n        /* \"#utility.yul\":25629:25758   */\n    tag_337:\n        /* \"#utility.yul\":25663:25669   */\n      0x00\n        /* \"#utility.yul\":25690:25710   */\n      tag_636\n      tag_637\n      jump\t// in\n    tag_636:\n        /* \"#utility.yul\":25680:25710   */\n      swap1\n      pop\n        /* \"#utility.yul\":25719:25752   */\n      tag_638\n        /* \"#utility.yul\":25747:25751   */\n      dup3\n        /* \"#utility.yul\":25739:25745   */\n      dup3\n        /* \"#utility.yul\":25719:25752   */\n      tag_639\n      jump\t// in\n    tag_638:\n        /* \"#utility.yul\":25670:25758   */\n      swap2\n      swap1\n      pop\n      jump\t// out\n        /* \"#utility.yul\":25764:25839   */\n    tag_637:\n        /* \"#utility.yul\":25797:25803   */\n      0x00\n        /* \"#utility.yul\":25830:25832   */\n      0x40\n        /* \"#utility.yul\":25824:25833   */\n      mload\n        /* \"#utility.yul\":25814:25833   */\n      swap1\n      pop\n        /* \"#utility.yul\":25804:25839   */\n      swap1\n      jump\t// out\n        /* \"#utility.yul\":25845:26156   */\n    tag_336:\n        /* \"#utility.yul\":25922:25926   */\n      0x00\n        /* \"#utility.yul\":26012:26030   */\n      0xffffffffffffffff\n        /* \"#utility.yul\":26004:26010   */\n      dup3\n        /* \"#utility.yul\":26001:26031   */\n      gt\n        /* \"#utility.yul\":25998:26000   */\n      iszero\n      tag_642\n      jumpi\n        /* \"#utility.yul\":26034:26052   */\n      tag_643\n      tag_644\n      jump\t// in\n    tag_643:\n        /* \"#utility.yul\":25998:26000   */\n    tag_642:\n        /* \"#utility.yul\":26084:26088   */\n      0x20\n        /* \"#utility.yul\":26076:26082   */\n      dup3\n        /* \"#utility.yul\":26072:26089   */\n      mul\n        /* \"#utility.yul\":26064:26089   */\n      swap1\n      pop\n        /* \"#utility.yul\":26144:26148   */\n      0x20\n        /* \"#utility.yul\":26138:26142   */\n      dup2\n        /* \"#utility.yul\":26134:26149   */\n      add\n        /* \"#utility.yul\":26126:26149   */\n      swap1\n      pop\n        /* \"#utility.yul\":25927:26156   */\n      swap2\n      swap1\n      pop\n      jump\t// out\n        /* \"#utility.yul\":26162:26473   */\n    tag_348:\n        /* \"#utility.yul\":26239:26243   */\n      0x00\n        /* \"#utility.yul\":26329:26347   */\n      0xffffffffffffffff\n        /* \"#utility.yul\":26321:26327   */\n      dup3\n        /* \"#utility.yul\":26318:26348   */\n      gt\n        /* \"#utility.yul\":26315:26317   */\n      iszero\n      tag_646\n      jumpi\n        /* \"#utility.yul\":26351:26369   */\n      tag_647\n      tag_644\n      jump\t// in\n    tag_647:\n        /* \"#utility.yul\":26315:26317   */\n    tag_646:\n        /* \"#utility.yul\":26401:26405   */\n      0x20\n        /* \"#utility.yul\":26393:26399   */\n      dup3\n        /* \"#utility.yul\":26389:26406   */\n      mul\n        /* \"#utility.yul\":26381:26406   */\n      swap1\n      pop\n        /* \"#utility.yul\":26461:26465   */\n      0x20\n        /* \"#utility.yul\":26455:26459   */\n      dup2\n        /* \"#utility.yul\":26451:26466   */\n      add\n        /* \"#utility.yul\":26443:26466   */\n      swap1\n      pop\n        /* \"#utility.yul\":26244:26473   */\n      swap2\n      swap1\n      pop\n      jump\t// out\n        /* \"#utility.yul\":26479:26786   */\n    tag_359:\n        /* \"#utility.yul\":26540:26544   */\n      0x00\n        /* \"#utility.yul\":26630:26648   */\n      0xffffffffffffffff\n        /* \"#utility.yul\":26622:26628   */\n      dup3\n        /* \"#utility.yul\":26619:26649   */\n      gt\n        /* \"#utility.yul\":26616:26618   */\n      iszero\n      tag_649\n      jumpi\n        /* \"#utility.yul\":26652:26670   */\n      tag_650\n      tag_644\n      jump\t// in\n    tag_650:\n        /* \"#utility.yul\":26616:26618   */\n    tag_649:\n        /* \"#utility.yul\":26690:26719   */\n      tag_651\n        /* \"#utility.yul\":26712:26718   */\n      dup3\n        /* \"#utility.yul\":26690:26719   */\n      tag_503\n      jump\t// in\n    tag_651:\n        /* \"#utility.yul\":26682:26719   */\n      swap1\n      pop\n        /* \"#utility.yul\":26774:26778   */\n      0x20\n        /* \"#utility.yul\":26768:26772   */\n      dup2\n        /* \"#utility.yul\":26764:26779   */\n      add\n        /* \"#utility.yul\":26756:26779   */\n      swap1\n      pop\n        /* \"#utility.yul\":26545:26786   */\n      swap2\n      swap1\n      pop\n      jump\t// out\n        /* \"#utility.yul\":26792:27100   */\n    tag_367:\n        /* \"#utility.yul\":26854:26858   */\n      0x00\n        /* \"#utility.yul\":26944:26962   */\n      0xffffffffffffffff\n        /* \"#utility.yul\":26936:26942   */\n      dup3\n        /* \"#utility.yul\":26933:26963   */\n      gt\n        /* \"#utility.yul\":26930:26932   */\n      iszero\n      tag_653\n      jumpi\n        /* \"#utility.yul\":26966:26984   */\n      tag_654\n      tag_644\n      jump\t// in\n    tag_654:\n        /* \"#utility.yul\":26930:26932   */\n    tag_653:\n        /* \"#utility.yul\":27004:27033   */\n      tag_655\n        /* \"#utility.yul\":27026:27032   */\n      dup3\n        /* \"#utility.yul\":27004:27033   */\n      tag_503\n      jump\t// in\n    tag_655:\n        /* \"#utility.yul\":26996:27033   */\n      swap1\n      pop\n        /* \"#utility.yul\":27088:27092   */\n      0x20\n        /* \"#utility.yul\":27082:27086   */\n      dup2\n        /* \"#utility.yul\":27078:27093   */\n      add\n        /* \"#utility.yul\":27070:27093   */\n      swap1\n      pop\n        /* \"#utility.yul\":26859:27100   */\n      swap2\n      swap1\n      pop\n      jump\t// out\n        /* \"#utility.yul\":27106:27238   */\n    tag_469:\n        /* \"#utility.yul\":27173:27177   */\n      0x00\n        /* \"#utility.yul\":27196:27199   */\n      dup2\n        /* \"#utility.yul\":27188:27199   */\n      swap1\n      pop\n        /* \"#utility.yul\":27226:27230   */\n      0x20\n        /* \"#utility.yul\":27221:27224   */\n      dup3\n        /* \"#utility.yul\":27217:27231   */\n      add\n        /* \"#utility.yul\":27209:27231   */\n      swap1\n      pop\n        /* \"#utility.yul\":27178:27238   */\n      swap2\n      swap1\n      pop\n      jump\t// out\n        /* \"#utility.yul\":27244:27376   */\n    tag_483:\n        /* \"#utility.yul\":27311:27315   */\n      0x00\n        /* \"#utility.yul\":27334:27337   */\n      dup2\n        /* \"#utility.yul\":27326:27337   */\n      swap1\n      pop\n        /* \"#utility.yul\":27364:27368   */\n      0x20\n        /* \"#utility.yul\":27359:27362   */\n      dup3\n        /* \"#utility.yul\":27355:27369   */\n      add\n        /* \"#utility.yul\":27347:27369   */\n      swap1\n      pop\n        /* \"#utility.yul\":27316:27376   */\n      swap2\n      swap1\n      pop\n      jump\t// out\n        /* \"#utility.yul\":27382:27496   */\n    tag_465:\n        /* \"#utility.yul\":27449:27455   */\n      0x00\n        /* \"#utility.yul\":27483:27488   */\n      dup2\n        /* \"#utility.yul\":27477:27489   */\n      mload\n        /* \"#utility.yul\":27467:27489   */\n      swap1\n      pop\n        /* \"#utility.yul\":27456:27496   */\n      swap2\n      swap1\n      pop\n      jump\t// out\n        /* \"#utility.yul\":27502:27616   */\n    tag_479:\n        /* \"#utility.yul\":27569:27575   */\n      0x00\n        /* \"#utility.yul\":27603:27608   */\n      dup2\n        /* \"#utility.yul\":27597:27609   */\n      mload\n        /* \"#utility.yul\":27587:27609   */\n      swap1\n      pop\n        /* \"#utility.yul\":27576:27616   */\n      swap2\n      swap1\n      pop\n      jump\t// out\n        /* \"#utility.yul\":27622:27720   */\n    tag_497:\n        /* \"#utility.yul\":27673:27679   */\n      0x00\n        /* \"#utility.yul\":27707:27712   */\n      dup2\n        /* \"#utility.yul\":27701:27713   */\n      mload\n        /* \"#utility.yul\":27691:27713   */\n      swap1\n      pop\n        /* \"#utility.yul\":27680:27720   */\n      swap2\n      swap1\n      pop\n      jump\t// out\n        /* \"#utility.yul\":27726:27825   */\n    tag_507:\n        /* \"#utility.yul\":27778:27784   */\n      0x00\n        /* \"#utility.yul\":27812:27817   */\n      dup2\n        /* \"#utility.yul\":27806:27818   */\n      mload\n        /* \"#utility.yul\":27796:27818   */\n      swap1\n      pop\n        /* \"#utility.yul\":27785:27825   */\n      swap2\n      swap1\n      pop\n      jump\t// out\n        /* \"#utility.yul\":27831:27944   */\n    tag_475:\n        /* \"#utility.yul\":27901:27905   */\n      0x00\n        /* \"#utility.yul\":27933:27937   */\n      0x20\n        /* \"#utility.yul\":27928:27931   */\n      dup3\n        /* \"#utility.yul\":27924:27938   */\n      add\n        /* \"#utility.yul\":27916:27938   */\n      swap1\n      pop\n        /* \"#utility.yul\":27906:27944   */\n      swap2\n      swap1\n      pop\n      jump\t// out\n        /* \"#utility.yul\":27950:28063   */\n    tag_489:\n        /* \"#utility.yul\":28020:28024   */\n      0x00\n        /* \"#utility.yul\":28052:28056   */\n      0x20\n        /* \"#utility.yul\":28047:28050   */\n      dup3\n        /* \"#utility.yul\":28043:28057   */\n      add\n        /* \"#utility.yul\":28035:28057   */\n      swap1\n      pop\n        /* \"#utility.yul\":28025:28063   */\n      swap2\n      swap1\n      pop\n      jump\t// out\n        /* \"#utility.yul\":28069:28253   */\n    tag_467:\n        /* \"#utility.yul\":28168:28179   */\n      0x00\n        /* \"#utility.yul\":28202:28208   */\n      dup3\n        /* \"#utility.yul\":28197:28200   */\n      dup3\n        /* \"#utility.yul\":28190:28209   */\n      mstore\n        /* \"#utility.yul\":28242:28246   */\n      0x20\n        /* \"#utility.yul\":28237:28240   */\n      dup3\n        /* \"#utility.yul\":28233:28247   */\n      add\n        /* \"#utility.yul\":28218:28247   */\n      swap1\n      pop\n        /* \"#utility.yul\":28180:28253   */\n      swap3\n      swap2\n      pop\n      pop\n      jump\t// out\n        /* \"#utility.yul\":28259:28443   */\n    tag_481:\n        /* \"#utility.yul\":28358:28369   */\n      0x00\n        /* \"#utility.yul\":28392:28398   */\n      dup3\n        /* \"#utility.yul\":28387:28390   */\n      dup3\n        /* \"#utility.yul\":28380:28399   */\n      mstore\n        /* \"#utility.yul\":28432:28436   */\n      0x20\n        /* \"#utility.yul\":28427:28430   */\n      dup3\n        /* \"#utility.yul\":28423:28437   */\n      add\n        /* \"#utility.yul\":28408:28437   */\n      swap1\n      pop\n        /* \"#utility.yul\":28370:28443   */\n      swap3\n      swap2\n      pop\n      pop\n      jump\t// out\n        /* \"#utility.yul\":28449:28617   */\n    tag_499:\n        /* \"#utility.yul\":28532:28543   */\n      0x00\n        /* \"#utility.yul\":28566:28572   */\n      dup3\n        /* \"#utility.yul\":28561:28564   */\n      dup3\n        /* \"#utility.yul\":28554:28573   */\n      mstore\n        /* \"#utility.yul\":28606:28610   */\n      0x20\n        /* \"#utility.yul\":28601:28604   */\n      dup3\n        /* \"#utility.yul\":28597:28611   */\n      add\n        /* \"#utility.yul\":28582:28611   */\n      swap1\n      pop\n        /* \"#utility.yul\":28544:28617   */\n      swap3\n      swap2\n      pop\n      pop\n      jump\t// out\n        /* \"#utility.yul\":28623:28792   */\n    tag_509:\n        /* \"#utility.yul\":28707:28718   */\n      0x00\n        /* \"#utility.yul\":28741:28747   */\n      dup3\n        /* \"#utility.yul\":28736:28739   */\n      dup3\n        /* \"#utility.yul\":28729:28748   */\n      mstore\n        /* \"#utility.yul\":28781:28785   */\n      0x20\n        /* \"#utility.yul\":28776:28779   */\n      dup3\n        /* \"#utility.yul\":28772:28786   */\n      add\n        /* \"#utility.yul\":28757:28786   */\n      swap1\n      pop\n        /* \"#utility.yul\":28719:28792   */\n      swap3\n      swap2\n      pop\n      pop\n      jump\t// out\n        /* \"#utility.yul\":28798:28946   */\n    tag_516:\n        /* \"#utility.yul\":28900:28911   */\n      0x00\n        /* \"#utility.yul\":28937:28940   */\n      dup2\n        /* \"#utility.yul\":28922:28940   */\n      swap1\n      pop\n        /* \"#utility.yul\":28912:28946   */\n      swap3\n      swap2\n      pop\n      pop\n      jump\t// out\n        /* \"#utility.yul\":28952:29257   */\n    tag_262:\n        /* \"#utility.yul\":28992:28995   */\n      0x00\n        /* \"#utility.yul\":29011:29031   */\n      tag_670\n        /* \"#utility.yul\":29029:29030   */\n      dup3\n        /* \"#utility.yul\":29011:29031   */\n      tag_585\n      jump\t// in\n    tag_670:\n        /* \"#utility.yul\":29006:29031   */\n      swap2\n      pop\n        /* \"#utility.yul\":29045:29065   */\n      tag_671\n        /* \"#utility.yul\":29063:29064   */\n      dup4\n        /* \"#utility.yul\":29045:29065   */\n      tag_585\n      jump\t// in\n    tag_671:\n        /* \"#utility.yul\":29040:29065   */\n      swap3\n      pop\n        /* \"#utility.yul\":29199:29200   */\n      dup3\n        /* \"#utility.yul\":29131:29197   */\n      0xffffffffffffffffffffffffffffffffffffffffffffffffffffffffffffffff\n        /* \"#utility.yul\":29127:29201   */\n      sub\n        /* \"#utility.yul\":29124:29125   */\n      dup3\n        /* \"#utility.yul\":29121:29202   */\n      gt\n        /* \"#utility.yul\":29118:29120   */\n      iszero\n      tag_672\n      jumpi\n        /* \"#utility.yul\":29205:29223   */\n      tag_673\n      tag_674\n      jump\t// in\n    tag_673:\n        /* \"#utility.yul\":29118:29120   */\n    tag_672:\n        /* \"#utility.yul\":29249:29250   */\n      dup3\n        /* \"#utility.yul\":29246:29247   */\n      dup3\n        /* \"#utility.yul\":29242:29251   */\n      add\n        /* \"#utility.yul\":29235:29251   */\n      swap1\n      pop\n        /* \"#utility.yul\":28996:29257   */\n      swap3\n      swap2\n      pop\n      pop\n      jump\t// out\n        /* \"#utility.yul\":29263:29448   */\n    tag_252:\n        /* \"#utility.yul\":29303:29304   */\n      0x00\n        /* \"#utility.yul\":29320:29340   */\n      tag_676\n        /* \"#utility.yul\":29338:29339   */\n      dup3\n        /* \"#utility.yul\":29320:29340   */\n      tag_585\n      jump\t// in\n    tag_676:\n        /* \"#utility.yul\":29315:29340   */\n      swap2\n      pop\n        /* \"#utility.yul\":29354:29374   */\n      tag_677\n        /* \"#utility.yul\":29372:29373   */\n      dup4\n        /* \"#utility.yul\":29354:29374   */\n      tag_585\n      jump\t// in\n    tag_677:\n        /* \"#utility.yul\":29349:29374   */\n      swap3\n      pop\n        /* \"#utility.yul\":29393:29394   */\n      dup3\n        /* \"#utility.yul\":29383:29385   */\n      tag_678\n      jumpi\n        /* \"#utility.yul\":29398:29416   */\n      tag_679\n      tag_680\n      jump\t// in\n    tag_679:\n        /* \"#utility.yul\":29383:29385   */\n    tag_678:\n        /* \"#utility.yul\":29440:29441   */\n      dup3\n        /* \"#utility.yul\":29437:29438   */\n      dup3\n        /* \"#utility.yul\":29433:29442   */\n      div\n        /* \"#utility.yul\":29428:29442   */\n      swap1\n      pop\n        /* \"#utility.yul\":29305:29448   */\n      swap3\n      swap2\n      pop\n      pop\n      jump\t// out\n        /* \"#utility.yul\":29454:29645   */\n    tag_258:\n        /* \"#utility.yul\":29494:29498   */\n      0x00\n        /* \"#utility.yul\":29514:29534   */\n      tag_682\n        /* \"#utility.yul\":29532:29533   */\n      dup3\n        /* \"#utility.yul\":29514:29534   */\n      tag_585\n      jump\t// in\n    tag_682:\n        /* \"#utility.yul\":29509:29534   */\n      swap2\n      pop\n        /* \"#utility.yul\":29548:29568   */\n      tag_683\n        /* \"#utility.yul\":29566:29567   */\n      dup4\n        /* \"#utility.yul\":29548:29568   */\n      tag_585\n      jump\t// in\n    tag_683:\n        /* \"#utility.yul\":29543:29568   */\n      swap3\n      pop\n        /* \"#utility.yul\":29587:29588   */\n      dup3\n        /* \"#utility.yul\":29584:29585   */\n      dup3\n        /* \"#utility.yul\":29581:29589   */\n      lt\n        /* \"#utility.yul\":29578:29580   */\n      iszero\n      tag_684\n      jumpi\n        /* \"#utility.yul\":29592:29610   */\n      tag_685\n      tag_674\n      jump\t// in\n    tag_685:\n        /* \"#utility.yul\":29578:29580   */\n    tag_684:\n        /* \"#utility.yul\":29637:29638   */\n      dup3\n        /* \"#utility.yul\":29634:29635   */\n      dup3\n        /* \"#utility.yul\":29630:29639   */\n      sub\n        /* \"#utility.yul\":29622:29639   */\n      swap1\n      pop\n        /* \"#utility.yul\":29499:29645   */\n      swap3\n      swap2\n      pop\n      pop\n      jump\t// out\n        /* \"#utility.yul\":29651:29747   */\n    tag_458:\n        /* \"#utility.yul\":29688:29695   */\n      0x00\n        /* \"#utility.yul\":29717:29741   */\n      tag_687\n        /* \"#utility.yul\":29735:29740   */\n      dup3\n        /* \"#utility.yul\":29717:29741   */\n      tag_688\n      jump\t// in\n    tag_687:\n        /* \"#utility.yul\":29706:29741   */\n      swap1\n      pop\n        /* \"#utility.yul\":29696:29747   */\n      swap2\n      swap1\n      pop\n      jump\t// out\n        /* \"#utility.yul\":29753:29843   */\n    tag_493:\n        /* \"#utility.yul\":29787:29794   */\n      0x00\n        /* \"#utility.yul\":29830:29835   */\n      dup2\n        /* \"#utility.yul\":29823:29836   */\n      iszero\n        /* \"#utility.yul\":29816:29837   */\n      iszero\n        /* \"#utility.yul\":29805:29837   */\n      swap1\n      pop\n        /* \"#utility.yul\":29795:29843   */\n      swap2\n      swap1\n      pop\n      jump\t// out\n        /* \"#utility.yul\":29849:29998   */\n    tag_690:\n        /* \"#utility.yul\":29885:29892   */\n      0x00\n        /* \"#utility.yul\":29925:29991   */\n      0xffffffff00000000000000000000000000000000000000000000000000000000\n        /* \"#utility.yul\":29918:29923   */\n      dup3\n        /* \"#utility.yul\":29914:29992   */\n      and\n        /* \"#utility.yul\":29903:29992   */\n      swap1\n      pop\n        /* \"#utility.yul\":29893:29998   */\n      swap2\n      swap1\n      pop\n      jump\t// out\n        /* \"#utility.yul\":30004:30130   */\n    tag_688:\n        /* \"#utility.yul\":30041:30048   */\n      0x00\n        /* \"#utility.yul\":30081:30123   */\n      0xffffffffffffffffffffffffffffffffffffffff\n        /* \"#utility.yul\":30074:30079   */\n      dup3\n        /* \"#utility.yul\":30070:30124   */\n      and\n        /* \"#utility.yul\":30059:30124   */\n      swap1\n      pop\n        /* \"#utility.yul\":30049:30130   */\n      swap2\n      swap1\n      pop\n      jump\t// out\n        /* \"#utility.yul\":30136:30213   */\n    tag_585:\n        /* \"#utility.yul\":30173:30180   */\n      0x00\n        /* \"#utility.yul\":30202:30207   */\n      dup2\n        /* \"#utility.yul\":30191:30207   */\n      swap1\n      pop\n        /* \"#utility.yul\":30181:30213   */\n      swap2\n      swap1\n      pop\n      jump\t// out\n        /* \"#utility.yul\":30219:30373   */\n    tag_362:\n        /* \"#utility.yul\":30303:30309   */\n      dup3\n        /* \"#utility.yul\":30298:30301   */\n      dup2\n        /* \"#utility.yul\":30293:30296   */\n      dup4\n        /* \"#utility.yul\":30280:30310   */\n      calldatacopy\n        /* \"#utility.yul\":30365:30366   */\n      0x00\n        /* \"#utility.yul\":30356:30362   */\n      dup4\n        /* \"#utility.yul\":30351:30354   */\n      dup4\n        /* \"#utility.yul\":30347:30363   */\n      add\n        /* \"#utility.yul\":30340:30367   */\n      mstore\n        /* \"#utility.yul\":30270:30373   */\n      pop\n      pop\n      pop\n      jump\t// out\n        /* \"#utility.yul\":30379:30686   */\n    tag_501:\n        /* \"#utility.yul\":30447:30448   */\n      0x00\n        /* \"#utility.yul\":30457:30570   */\n    tag_696:\n        /* \"#utility.yul\":30471:30477   */\n      dup4\n        /* \"#utility.yul\":30468:30469   */\n      dup2\n        /* \"#utility.yul\":30465:30478   */\n      lt\n        /* \"#utility.yul\":30457:30570   */\n      iszero\n      tag_698\n      jumpi\n        /* \"#utility.yul\":30556:30557   */\n      dup1\n        /* \"#utility.yul\":30551:30554   */\n      dup3\n        /* \"#utility.yul\":30547:30558   */\n      add\n        /* \"#utility.yul\":30541:30559   */\n      mload\n        /* \"#utility.yul\":30537:30538   */\n      dup2\n        /* \"#utility.yul\":30532:30535   */\n      dup5\n        /* \"#utility.yul\":30528:30539   */\n      add\n        /* \"#utility.yul\":30521:30560   */\n      mstore\n        /* \"#utility.yul\":30493:30495   */\n      0x20\n        /* \"#utility.yul\":30490:30491   */\n      dup2\n        /* \"#utility.yul\":30486:30496   */\n      add\n        /* \"#utility.yul\":30481:30496   */\n      swap1\n      pop\n        /* \"#utility.yul\":30457:30570   */\n      jump(tag_696)\n    tag_698:\n        /* \"#utility.yul\":30588:30594   */\n      dup4\n        /* \"#utility.yul\":30585:30586   */\n      dup2\n        /* \"#utility.yul\":30582:30595   */\n      gt\n        /* \"#utility.yul\":30579:30581   */\n      iszero\n      tag_699\n      jumpi\n        /* \"#utility.yul\":30668:30669   */\n      0x00\n        /* \"#utility.yul\":30659:30665   */\n      dup5\n        /* \"#utility.yul\":30654:30657   */\n      dup5\n        /* \"#utility.yul\":30650:30666   */\n      add\n        /* \"#utility.yul\":30643:30670   */\n      mstore\n        /* \"#utility.yul\":30579:30581   */\n    tag_699:\n        /* \"#utility.yul\":30428:30686   */\n      pop\n      pop\n      pop\n      pop\n      jump\t// out\n        /* \"#utility.yul\":30692:31012   */\n    tag_101:\n        /* \"#utility.yul\":30736:30742   */\n      0x00\n        /* \"#utility.yul\":30773:30774   */\n      0x02\n        /* \"#utility.yul\":30767:30771   */\n      dup3\n        /* \"#utility.yul\":30763:30775   */\n      div\n        /* \"#utility.yul\":30753:30775   */\n      swap1\n      pop\n        /* \"#utility.yul\":30820:30821   */\n      0x01\n        /* \"#utility.yul\":30814:30818   */\n      dup3\n        /* \"#utility.yul\":30810:30822   */\n      and\n        /* \"#utility.yul\":30841:30859   */\n      dup1\n        /* \"#utility.yul\":30831:30833   */\n      tag_701\n      jumpi\n        /* \"#utility.yul\":30897:30901   */\n      0x7f\n        /* \"#utility.yul\":30889:30895   */\n      dup3\n        /* \"#utility.yul\":30885:30902   */\n      and\n        /* \"#utility.yul\":30875:30902   */\n      swap2\n      pop\n        /* \"#utility.yul\":30831:30833   */\n    tag_701:\n        /* \"#utility.yul\":30959:30961   */\n      0x20\n        /* \"#utility.yul\":30951:30957   */\n      dup3\n        /* \"#utility.yul\":30948:30962   */\n      lt\n        /* \"#utility.yul\":30928:30946   */\n      dup2\n        /* \"#utility.yul\":30925:30963   */\n      eq\n        /* \"#utility.yul\":30922:30924   */\n      iszero\n      tag_702\n      jumpi\n        /* \"#utility.yul\":30978:30996   */\n      tag_703\n      tag_704\n      jump\t// in\n    tag_703:\n        /* \"#utility.yul\":30922:30924   */\n    tag_702:\n        /* \"#utility.yul\":30743:31012   */\n      pop\n      swap2\n      swap1\n      pop\n      jump\t// out\n        /* \"#utility.yul\":31018:31299   */\n    tag_639:\n        /* \"#utility.yul\":31101:31128   */\n      tag_706\n        /* \"#utility.yul\":31123:31127   */\n      dup3\n        /* \"#utility.yul\":31101:31128   */\n      tag_503\n      jump\t// in\n    tag_706:\n        /* \"#utility.yul\":31093:31099   */\n      dup2\n        /* \"#utility.yul\":31089:31129   */\n      add\n        /* \"#utility.yul\":31231:31237   */\n      dup2\n        /* \"#utility.yul\":31219:31229   */\n      dup2\n        /* \"#utility.yul\":31216:31238   */\n      lt\n        /* \"#utility.yul\":31195:31213   */\n      0xffffffffffffffff\n        /* \"#utility.yul\":31183:31193   */\n      dup3\n        /* \"#utility.yul\":31180:31214   */\n      gt\n        /* \"#utility.yul\":31177:31239   */\n      or\n        /* \"#utility.yul\":31174:31176   */\n      iszero\n      tag_707\n      jumpi\n        /* \"#utility.yul\":31242:31260   */\n      tag_708\n      tag_644\n      jump\t// in\n    tag_708:\n        /* \"#utility.yul\":31174:31176   */\n    tag_707:\n        /* \"#utility.yul\":31282:31292   */\n      dup1\n        /* \"#utility.yul\":31278:31280   */\n      0x40\n        /* \"#utility.yul\":31271:31293   */\n      mstore\n        /* \"#utility.yul\":31061:31299   */\n      pop\n      pop\n      pop\n      jump\t// out\n        /* \"#utility.yul\":31305:31538   */\n    tag_250:\n        /* \"#utility.yul\":31344:31347   */\n      0x00\n        /* \"#utility.yul\":31367:31391   */\n      tag_710\n        /* \"#utility.yul\":31385:31390   */\n      dup3\n        /* \"#utility.yul\":31367:31391   */\n      tag_585\n      jump\t// in\n    tag_710:\n        /* \"#utility.yul\":31358:31391   */\n      swap2\n      pop\n        /* \"#utility.yul\":31413:31479   */\n      0xffffffffffffffffffffffffffffffffffffffffffffffffffffffffffffffff\n        /* \"#utility.yul\":31406:31411   */\n      dup3\n        /* \"#utility.yul\":31403:31480   */\n      eq\n        /* \"#utility.yul\":31400:31402   */\n      iszero\n      tag_711\n      jumpi\n        /* \"#utility.yul\":31483:31501   */\n      tag_712\n      tag_674\n      jump\t// in\n    tag_712:\n        /* \"#utility.yul\":31400:31402   */\n    tag_711:\n        /* \"#utility.yul\":31530:31531   */\n      0x01\n        /* \"#utility.yul\":31523:31528   */\n      dup3\n        /* \"#utility.yul\":31519:31532   */\n      add\n        /* \"#utility.yul\":31512:31532   */\n      swap1\n      pop\n        /* \"#utility.yul\":31348:31538   */\n      swap2\n      swap1\n      pop\n      jump\t// out\n        /* \"#utility.yul\":31544:31720   */\n    tag_260:\n        /* \"#utility.yul\":31576:31577   */\n      0x00\n        /* \"#utility.yul\":31593:31613   */\n      tag_714\n        /* \"#utility.yul\":31611:31612   */\n      dup3\n        /* \"#utility.yul\":31593:31613   */\n      tag_585\n      jump\t// in\n    tag_714:\n        /* \"#utility.yul\":31588:31613   */\n      swap2\n      pop\n        /* \"#utility.yul\":31627:31647   */\n      tag_715\n        /* \"#utility.yul\":31645:31646   */\n      dup4\n        /* \"#utility.yul\":31627:31647   */\n      tag_585\n      jump\t// in\n    tag_715:\n        /* \"#utility.yul\":31622:31647   */\n      swap3\n      pop\n        /* \"#utility.yul\":31666:31667   */\n      dup3\n        /* \"#utility.yul\":31656:31658   */\n      tag_716\n      jumpi\n        /* \"#utility.yul\":31671:31689   */\n      tag_717\n      tag_680\n      jump\t// in\n    tag_717:\n        /* \"#utility.yul\":31656:31658   */\n    tag_716:\n        /* \"#utility.yul\":31712:31713   */\n      dup3\n        /* \"#utility.yul\":31709:31710   */\n      dup3\n        /* \"#utility.yul\":31705:31714   */\n      mod\n        /* \"#utility.yul\":31700:31714   */\n      swap1\n      pop\n        /* \"#utility.yul\":31578:31720   */\n      swap3\n      swap2\n      pop\n      pop\n      jump\t// out\n        /* \"#utility.yul\":31726:31906   */\n    tag_674:\n        /* \"#utility.yul\":31774:31851   */\n      0x4e487b7100000000000000000000000000000000000000000000000000000000\n        /* \"#utility.yul\":31771:31772   */\n      0x00\n        /* \"#utility.yul\":31764:31852   */\n      mstore\n        /* \"#utility.yul\":31871:31875   */\n      0x11\n        /* \"#utility.yul\":31868:31869   */\n      0x04\n        /* \"#utility.yul\":31861:31876   */\n      mstore\n        /* \"#utility.yul\":31895:31899   */\n      0x24\n        /* \"#utility.yul\":31892:31893   */\n      0x00\n        /* \"#utility.yul\":31885:31900   */\n      revert\n        /* \"#utility.yul\":31912:32092   */\n    tag_680:\n        /* \"#utility.yul\":31960:32037   */\n      0x4e487b7100000000000000000000000000000000000000000000000000000000\n        /* \"#utility.yul\":31957:31958   */\n      0x00\n        /* \"#utility.yul\":31950:32038   */\n      mstore\n        /* \"#utility.yul\":32057:32061   */\n      0x12\n        /* \"#utility.yul\":32054:32055   */\n      0x04\n        /* \"#utility.yul\":32047:32062   */\n      mstore\n        /* \"#utility.yul\":32081:32085   */\n      0x24\n        /* \"#utility.yul\":32078:32079   */\n      0x00\n        /* \"#utility.yul\":32071:32086   */\n      revert\n        /* \"#utility.yul\":32098:32278   */\n    tag_704:\n        /* \"#utility.yul\":32146:32223   */\n      0x4e487b7100000000000000000000000000000000000000000000000000000000\n        /* \"#utility.yul\":32143:32144   */\n      0x00\n        /* \"#utility.yul\":32136:32224   */\n      mstore\n        /* \"#utility.yul\":32243:32247   */\n      0x22\n        /* \"#utility.yul\":32240:32241   */\n      0x04\n        /* \"#utility.yul\":32233:32248   */\n      mstore\n        /* \"#utility.yul\":32267:32271   */\n      0x24\n        /* \"#utility.yul\":32264:32265   */\n      0x00\n        /* \"#utility.yul\":32257:32272   */\n      revert\n        /* \"#utility.yul\":32284:32464   */\n    tag_644:\n        /* \"#utility.yul\":32332:32409   */\n      0x4e487b7100000000000000000000000000000000000000000000000000000000\n        /* \"#utility.yul\":32329:32330   */\n      0x00\n        /* \"#utility.yul\":32322:32410   */\n      mstore\n        /* \"#utility.yul\":32429:32433   */\n      0x41\n        /* \"#utility.yul\":32426:32427   */\n      0x04\n        /* \"#utility.yul\":32419:32434   */\n      mstore\n        /* \"#utility.yul\":32453:32457   */\n      0x24\n        /* \"#utility.yul\":32450:32451   */\n      0x00\n        /* \"#utility.yul\":32443:32458   */\n      revert\n        /* \"#utility.yul\":32470:32572   */\n    tag_503:\n        /* \"#utility.yul\":32511:32517   */\n      0x00\n        /* \"#utility.yul\":32562:32564   */\n      0x1f\n        /* \"#utility.yul\":32558:32565   */\n      not\n        /* \"#utility.yul\":32553:32555   */\n      0x1f\n        /* \"#utility.yul\":32546:32551   */\n      dup4\n        /* \"#utility.yul\":32542:32556   */\n      add\n        /* \"#utility.yul\":32538:32566   */\n      and\n        /* \"#utility.yul\":32528:32566   */\n      swap1\n      pop\n        /* \"#utility.yul\":32518:32572   */\n      swap2\n      swap1\n      pop\n      jump\t// out\n        /* \"#utility.yul\":32578:32810   */\n    tag_522:\n        /* \"#utility.yul\":32718:32752   */\n      0x4552433732313a2063616c6c6572206973206e6f7420746f6b656e206f776e65\n        /* \"#utility.yul\":32714:32715   */\n      0x00\n        /* \"#utility.yul\":32706:32712   */\n      dup3\n        /* \"#utility.yul\":32702:32716   */\n      add\n        /* \"#utility.yul\":32695:32753   */\n      mstore\n        /* \"#utility.yul\":32787:32802   */\n      0x72206f7220617070726f76656400000000000000000000000000000000000000\n        /* \"#utility.yul\":32782:32784   */\n      0x20\n        /* \"#utility.yul\":32774:32780   */\n      dup3\n        /* \"#utility.yul\":32770:32785   */\n      add\n        /* \"#utility.yul\":32763:32803   */\n      mstore\n        /* \"#utility.yul\":32684:32810   */\n      pop\n      jump\t// out\n        /* \"#utility.yul\":32816:33053   */\n    tag_527:\n        /* \"#utility.yul\":32956:32990   */\n      0x4552433732313a207472616e7366657220746f206e6f6e204552433732315265\n        /* \"#utility.yul\":32952:32953   */\n      0x00\n        /* \"#utility.yul\":32944:32950   */\n      dup3\n        /* \"#utility.yul\":32940:32954   */\n      add\n        /* \"#utility.yul\":32933:32991   */\n      mstore\n        /* \"#utility.yul\":33025:33045   */\n      0x63656976657220696d706c656d656e7465720000000000000000000000000000\n        /* \"#utility.yul\":33020:33022   */\n      0x20\n        /* \"#utility.yul\":33012:33018   */\n      dup3\n        /* \"#utility.yul\":33008:33023   */\n      add\n        /* \"#utility.yul\":33001:33046   */\n      mstore\n        /* \"#utility.yul\":32922:33053   */\n      pop\n      jump\t// out\n        /* \"#utility.yul\":33059:33283   */\n    tag_532:\n        /* \"#utility.yul\":33199:33233   */\n      0x4552433732313a207472616e736665722066726f6d20696e636f727265637420\n        /* \"#utility.yul\":33195:33196   */\n      0x00\n        /* \"#utility.yul\":33187:33193   */\n      dup3\n        /* \"#utility.yul\":33183:33197   */\n      add\n        /* \"#utility.yul\":33176:33234   */\n      mstore\n        /* \"#utility.yul\":33268:33275   */\n      0x6f776e6572000000000000000000000000000000000000000000000000000000\n        /* \"#utility.yul\":33263:33265   */\n      0x20\n        /* \"#utility.yul\":33255:33261   */\n      dup3\n        /* \"#utility.yul\":33251:33266   */\n      add\n        /* \"#utility.yul\":33244:33276   */\n      mstore\n        /* \"#utility.yul\":33165:33283   */\n      pop\n      jump\t// out\n        /* \"#utility.yul\":33289:33467   */\n    tag_537:\n        /* \"#utility.yul\":33429:33459   */\n      0x4552433732313a20746f6b656e20616c7265616479206d696e74656400000000\n        /* \"#utility.yul\":33425:33426   */\n      0x00\n        /* \"#utility.yul\":33417:33423   */\n      dup3\n        /* \"#utility.yul\":33413:33427   */\n      add\n        /* \"#utility.yul\":33406:33460   */\n      mstore\n        /* \"#utility.yul\":33395:33467   */\n      pop\n      jump\t// out\n        /* \"#utility.yul\":33473:33696   */\n    tag_542:\n        /* \"#utility.yul\":33613:33647   */\n      0x4552433732313a207472616e7366657220746f20746865207a65726f20616464\n        /* \"#utility.yul\":33609:33610   */\n      0x00\n        /* \"#utility.yul\":33601:33607   */\n      dup3\n        /* \"#utility.yul\":33597:33611   */\n      add\n        /* \"#utility.yul\":33590:33648   */\n      mstore\n        /* \"#utility.yul\":33682:33688   */\n      0x7265737300000000000000000000000000000000000000000000000000000000\n        /* \"#utility.yul\":33677:33679   */\n      0x20\n        /* \"#utility.yul\":33669:33675   */\n      dup3\n        /* \"#utility.yul\":33665:33680   */\n      add\n        /* \"#utility.yul\":33658:33689   */\n      mstore\n        /* \"#utility.yul\":33579:33696   */\n      pop\n      jump\t// out\n        /* \"#utility.yul\":33702:33877   */\n    tag_547:\n        /* \"#utility.yul\":33842:33869   */\n      0x4552433732313a20617070726f766520746f2063616c6c657200000000000000\n        /* \"#utility.yul\":33838:33839   */\n      0x00\n        /* \"#utility.yul\":33830:33836   */\n      dup3\n        /* \"#utility.yul\":33826:33840   */\n      add\n        /* \"#utility.yul\":33819:33870   */\n      mstore\n        /* \"#utility.yul\":33808:33877   */\n      pop\n      jump\t// out\n        /* \"#utility.yul\":33883:34111   */\n    tag_552:\n        /* \"#utility.yul\":34023:34057   */\n      0x4552433732313a2061646472657373207a65726f206973206e6f742061207661\n        /* \"#utility.yul\":34019:34020   */\n      0x00\n        /* \"#utility.yul\":34011:34017   */\n      dup3\n        /* \"#utility.yul\":34007:34021   */\n      add\n        /* \"#utility.yul\":34000:34058   */\n      mstore\n        /* \"#utility.yul\":34092:34103   */\n      0x6c6964206f776e65720000000000000000000000000000000000000000000000\n        /* \"#utility.yul\":34087:34089   */\n      0x20\n        /* \"#utility.yul\":34079:34085   */\n      dup3\n        /* \"#utility.yul\":34075:34090   */\n      add\n        /* \"#utility.yul\":34068:34104   */\n      mstore\n        /* \"#utility.yul\":33989:34111   */\n      pop\n      jump\t// out\n        /* \"#utility.yul\":34117:34350   */\n    tag_557:\n        /* \"#utility.yul\":34257:34291   */\n      0x45524337323155524953746f726167653a2055524920736574206f66206e6f6e\n        /* \"#utility.yul\":34253:34254   */\n      0x00\n        /* \"#utility.yul\":34245:34251   */\n      dup3\n        /* \"#utility.yul\":34241:34255   */\n      add\n        /* \"#utility.yul\":34234:34292   */\n      mstore\n        /* \"#utility.yul\":34326:34342   */\n      0x6578697374656e7420746f6b656e000000000000000000000000000000000000\n        /* \"#utility.yul\":34321:34323   */\n      0x20\n        /* \"#utility.yul\":34313:34319   */\n      dup3\n        /* \"#utility.yul\":34309:34324   */\n      add\n        /* \"#utility.yul\":34302:34343   */\n      mstore\n        /* \"#utility.yul\":34223:34350   */\n      pop\n      jump\t// out\n        /* \"#utility.yul\":34356:34538   */\n    tag_562:\n        /* \"#utility.yul\":34496:34530   */\n      0x4552433732313a206d696e7420746f20746865207a65726f2061646472657373\n        /* \"#utility.yul\":34492:34493   */\n      0x00\n        /* \"#utility.yul\":34484:34490   */\n      dup3\n        /* \"#utility.yul\":34480:34494   */\n      add\n        /* \"#utility.yul\":34473:34531   */\n      mstore\n        /* \"#utility.yul\":34462:34538   */\n      pop\n      jump\t// out\n        /* \"#utility.yul\":34544:34778   */\n    tag_567:\n        /* \"#utility.yul\":34684:34718   */\n      0x4552433732314d657461646174613a2055524920717565727920666f72206e6f\n        /* \"#utility.yul\":34680:34681   */\n      0x00\n        /* \"#utility.yul\":34672:34678   */\n      dup3\n        /* \"#utility.yul\":34668:34682   */\n      add\n        /* \"#utility.yul\":34661:34719   */\n      mstore\n        /* \"#utility.yul\":34753:34770   */\n      0x6e6578697374656e7420746f6b656e0000000000000000000000000000000000\n        /* \"#utility.yul\":34748:34750   */\n      0x20\n        /* \"#utility.yul\":34740:34746   */\n      dup3\n        /* \"#utility.yul\":34736:34751   */\n      add\n        /* \"#utility.yul\":34729:34771   */\n      mstore\n        /* \"#utility.yul\":34650:34778   */\n      pop\n      jump\t// out\n        /* \"#utility.yul\":34784:34958   */\n    tag_572:\n        /* \"#utility.yul\":34924:34950   */\n      0x4552433732313a20696e76616c696420746f6b656e2049440000000000000000\n        /* \"#utility.yul\":34920:34921   */\n      0x00\n        /* \"#utility.yul\":34912:34918   */\n      dup3\n        /* \"#utility.yul\":34908:34922   */\n      add\n        /* \"#utility.yul\":34901:34951   */\n      mstore\n        /* \"#utility.yul\":34890:34958   */\n      pop\n      jump\t// out\n        /* \"#utility.yul\":34964:35184   */\n    tag_577:\n        /* \"#utility.yul\":35104:35138   */\n      0x4552433732313a20617070726f76616c20746f2063757272656e74206f776e65\n        /* \"#utility.yul\":35100:35101   */\n      0x00\n        /* \"#utility.yul\":35092:35098   */\n      dup3\n        /* \"#utility.yul\":35088:35102   */\n      add\n        /* \"#utility.yul\":35081:35139   */\n      mstore\n        /* \"#utility.yul\":35173:35176   */\n      0x7200000000000000000000000000000000000000000000000000000000000000\n        /* \"#utility.yul\":35168:35170   */\n      0x20\n        /* \"#utility.yul\":35160:35166   */\n      dup3\n        /* \"#utility.yul\":35156:35171   */\n      add\n        /* \"#utility.yul\":35149:35177   */\n      mstore\n        /* \"#utility.yul\":35070:35184   */\n      pop\n      jump\t// out\n        /* \"#utility.yul\":35190:35438   */\n    tag_582:\n        /* \"#utility.yul\":35330:35364   */\n      0x4552433732313a20617070726f76652063616c6c6572206973206e6f7420746f\n        /* \"#utility.yul\":35326:35327   */\n      0x00\n        /* \"#utility.yul\":35318:35324   */\n      dup3\n        /* \"#utility.yul\":35314:35328   */\n      add\n        /* \"#utility.yul\":35307:35365   */\n      mstore\n        /* \"#utility.yul\":35399:35430   */\n      0x6b656e206f776e6572206f7220617070726f76656420666f7220616c6c000000\n        /* \"#utility.yul\":35394:35396   */\n      0x20\n        /* \"#utility.yul\":35386:35392   */\n      dup3\n        /* \"#utility.yul\":35382:35397   */\n      add\n        /* \"#utility.yul\":35375:35431   */\n      mstore\n        /* \"#utility.yul\":35296:35438   */\n      pop\n      jump\t// out\n        /* \"#utility.yul\":35444:35566   */\n    tag_372:\n        /* \"#utility.yul\":35517:35541   */\n      tag_737\n        /* \"#utility.yul\":35535:35540   */\n      dup2\n        /* \"#utility.yul\":35517:35541   */\n      tag_458\n      jump\t// in\n    tag_737:\n        /* \"#utility.yul\":35510:35515   */\n      dup2\n        /* \"#utility.yul\":35507:35542   */\n      eq\n        /* \"#utility.yul\":35497:35499   */\n      tag_738\n      jumpi\n        /* \"#utility.yul\":35556:35557   */\n      0x00\n        /* \"#utility.yul\":35553:35554   */\n      dup1\n        /* \"#utility.yul\":35546:35558   */\n      revert\n        /* \"#utility.yul\":35497:35499   */\n    tag_738:\n        /* \"#utility.yul\":35487:35566   */\n      pop\n      jump\t// out\n        /* \"#utility.yul\":35572:35688   */\n    tag_384:\n        /* \"#utility.yul\":35642:35663   */\n      tag_740\n        /* \"#utility.yul\":35657:35662   */\n      dup2\n        /* \"#utility.yul\":35642:35663   */\n      tag_493\n      jump\t// in\n    tag_740:\n        /* \"#utility.yul\":35635:35640   */\n      dup2\n        /* \"#utility.yul\":35632:35664   */\n      eq\n        /* \"#utility.yul\":35622:35624   */\n      tag_741\n      jumpi\n        /* \"#utility.yul\":35678:35679   */\n      0x00\n        /* \"#utility.yul\":35675:35676   */\n      dup1\n        /* \"#utility.yul\":35668:35680   */\n      revert\n        /* \"#utility.yul\":35622:35624   */\n    tag_741:\n        /* \"#utility.yul\":35612:35688   */\n      pop\n      jump\t// out\n        /* \"#utility.yul\":35694:35814   */\n    tag_388:\n        /* \"#utility.yul\":35766:35789   */\n      tag_743\n        /* \"#utility.yul\":35783:35788   */\n      dup2\n        /* \"#utility.yul\":35766:35789   */\n      tag_690\n      jump\t// in\n    tag_743:\n        /* \"#utility.yul\":35759:35764   */\n      dup2\n        /* \"#utility.yul\":35756:35790   */\n      eq\n        /* \"#utility.yul\":35746:35748   */\n      tag_744\n      jumpi\n        /* \"#utility.yul\":35804:35805   */\n      0x00\n        /* \"#utility.yul\":35801:35802   */\n      dup1\n        /* \"#utility.yul\":35794:35806   */\n      revert\n        /* \"#utility.yul\":35746:35748   */\n    tag_744:\n        /* \"#utility.yul\":35736:35814   */\n      pop\n      jump\t// out\n        /* \"#utility.yul\":35820:35942   */\n    tag_402:\n        /* \"#utility.yul\":35893:35917   */\n      tag_746\n        /* \"#utility.yul\":35911:35916   */\n      dup2\n        /* \"#utility.yul\":35893:35917   */\n      tag_585\n      jump\t// in\n    tag_746:\n        /* \"#utility.yul\":35886:35891   */\n      dup2\n        /* \"#utility.yul\":35883:35918   */\n      eq\n        /* \"#utility.yul\":35873:35875   */\n      tag_747\n      jumpi\n        /* \"#utility.yul\":35932:35933   */\n      0x00\n        /* \"#utility.yul\":35929:35930   */\n      dup1\n        /* \"#utility.yul\":35922:35934   */\n      revert\n        /* \"#utility.yul\":35873:35875   */\n    tag_747:\n        /* \"#utility.yul\":35863:35942   */\n      pop\n      jump\t// out\n\n    auxdata: 0xa264697066735822122018feb2dcbc3a2164b3936daabf1595c0eecb18a22ea51f85024b1beabb01e68c64736f6c63430008040033\n}\n",
				"bytecode": {
					"linkReferences": {},
					"object": "60806040523480156200001157600080fd5b506040516200335b3803806200335b833981810160405281019062000037919062000193565b81600190805190602001906200004f92919062000071565b5080600290805190602001906200006892919062000071565b50505062000376565b8280546200007f906200029b565b90600052602060002090601f016020900481019282620000a35760008555620000ef565b82601f10620000be57805160ff1916838001178555620000ef565b82800160010185558215620000ef579182015b82811115620000ee578251825591602001919060010190620000d1565b5b509050620000fe919062000102565b5090565b5b808211156200011d57600081600090555060010162000103565b5090565b60006200013862000132846200022f565b62000206565b9050828152602081018484840111156200015157600080fd5b6200015e84828562000265565b509392505050565b600082601f8301126200017857600080fd5b81516200018a84826020860162000121565b91505092915050565b60008060408385031215620001a757600080fd5b600083015167ffffffffffffffff811115620001c257600080fd5b620001d08582860162000166565b925050602083015167ffffffffffffffff811115620001ee57600080fd5b620001fc8582860162000166565b9150509250929050565b60006200021262000225565b9050620002208282620002d1565b919050565b6000604051905090565b600067ffffffffffffffff8211156200024d576200024c62000336565b5b620002588262000365565b9050602081019050919050565b60005b838110156200028557808201518184015260208101905062000268565b8381111562000295576000848401525b50505050565b60006002820490506001821680620002b457607f821691505b60208210811415620002cb57620002ca62000307565b5b50919050565b620002dc8262000365565b810181811067ffffffffffffffff82111715620002fe57620002fd62000336565b5b80604052505050565b7f4e487b7100000000000000000000000000000000000000000000000000000000600052602260045260246000fd5b7f4e487b7100000000000000000000000000000000000000000000000000000000600052604160045260246000fd5b6000601f19601f8301169050919050565b612fd580620003866000396000f3fe608060405234801561001057600080fd5b50600436106101005760003560e01c80636352211e11610097578063b88d4fde11610066578063b88d4fde146102d1578063c87b56dd146102ed578063e985e9c51461031d578063ee48cda21461034d57610100565b80636352211e1461023757806370a082311461026757806395d89b4114610297578063a22cb465146102b557610100565b806323b872dd116100d357806323b872dd1461019f578063381568d8146101bb57806342842e0e146101eb57806352e048251461020757610100565b806301ffc9a71461010557806306fdde0314610135578063081812fc14610153578063095ea7b314610183575b600080fd5b61011f600480360381019061011a9190612046565b61037d565b60405161012c9190612531565b60405180910390f35b61013d61045f565b60405161014a919061254c565b60405180910390f35b61016d60048036038101906101689190612098565b6104f1565b60405161017a9190612486565b60405180910390f35b61019d6004803603810190610198919061200a565b610537565b005b6101b960048036038101906101b49190611e59565b61064f565b005b6101d560048036038101906101d09190611f23565b6106af565b6040516101e2919061270e565b60405180910390f35b61020560048036038101906102009190611e59565b6106eb565b005b610221600480360381019061021c9190612098565b61070b565b60405161022e91906124ed565b60405180910390f35b610251600480360381019061024c9190612098565b6107b2565b60405161025e9190612486565b60405180910390f35b610281600480360381019061027c9190611df4565b610864565b60405161028e919061270e565b60405180910390f35b61029f61091c565b6040516102ac919061254c565b60405180910390f35b6102cf60048036038101906102ca9190611fce565b6109ae565b005b6102eb60048036038101906102e69190611ea8565b6109c4565b005b61030760048036038101906103029190612098565b610a26565b604051610314919061254c565b60405180910390f35b61033760048036038101906103329190611e1d565b610acd565b6040516103449190612531565b60405180910390f35b61036760048036038101906103629190612098565b610b61565b604051610374919061250f565b60405180910390f35b60007f80ac58cd000000000000000000000000000000000000000000000000000000007bffffffffffffffffffffffffffffffffffffffffffffffffffffffff1916827bffffffffffffffffffffffffffffffffffffffffffffffffffffffff1916148061044857507f5b5e139f000000000000000000000000000000000000000000000000000000007bffffffffffffffffffffffffffffffffffffffffffffffffffffffff1916827bffffffffffffffffffffffffffffffffffffffffffffffffffffffff1916145b80610458575061045782610bd2565b5b9050919050565b60606001805461046e90612a2e565b80601f016020809104026020016040519081016040528092919081815260200182805461049a90612a2e565b80156104e75780601f106104bc576101008083540402835291602001916104e7565b820191906000526020600020905b8154815290600101906020018083116104ca57829003601f168201915b5050505050905090565b60006104fc82610c3c565b6007600083815260200190815260200160002060009054906101000a900473ffffffffffffffffffffffffffffffffffffffff169050919050565b6000610542826107b2565b90508073ffffffffffffffffffffffffffffffffffffffff168373ffffffffffffffffffffffffffffffffffffffff1614156105b3576040517f08c379a00000000000000000000000000000000000000000000000000000000081526004016105aa906126ce565b60405180910390fd5b8073ffffffffffffffffffffffffffffffffffffffff166105d2610c87565b73ffffffffffffffffffffffffffffffffffffffff1614806106015750610600816105fb610c87565b610acd565b5b610640576040517f08c379a0000000000000000000000000000000000000000000000000000000008152600401610637906126ee565b60405180910390fd5b61064a8383610c8f565b505050565b61066061065a610c87565b82610d48565b61069f576040517f08c379a00000000000000000000000000000000000000000000000000000000081526004016106969061256e565b60405180910390fd5b6106aa838383610ddd565b505050565b60006106bb60006110d3565b60006106c760006110e9565b90506106d5868686846110f7565b6106df8184611119565b80915050949350505050565b610706838383604051806020016040528060008152506109c4565b505050565b60606000600460008481526020019081526020016000208054806020026020016040519081016040528092919081815260200182805480156107a257602002820191906000526020600020905b8160009054906101000a900473ffffffffffffffffffffffffffffffffffffffff1673ffffffffffffffffffffffffffffffffffffffff1681526020019060010190808311610758575b5050505050905080915050919050565b6000806003600084815260200190815260200160002060009054906101000a900473ffffffffffffffffffffffffffffffffffffffff169050600073ffffffffffffffffffffffffffffffffffffffff168173ffffffffffffffffffffffffffffffffffffffff16141561085b576040517f08c379a0000000000000000000000000000000000000000000000000000000008152600401610852906126ae565b60405180910390fd5b80915050919050565b60008073ffffffffffffffffffffffffffffffffffffffff168273ffffffffffffffffffffffffffffffffffffffff1614156108d5576040517f08c379a00000000000000000000000000000000000000000000000000000000081526004016108cc9061262e565b60405180910390fd5b600660008373ffffffffffffffffffffffffffffffffffffffff1673ffffffffffffffffffffffffffffffffffffffff168152602001908152602001600020549050919050565b60606002805461092b90612a2e565b80601f016020809104026020016040519081016040528092919081815260200182805461095790612a2e565b80156109a45780601f10610979576101008083540402835291602001916109a4565b820191906000526020600020905b81548152906001019060200180831161098757829003601f168201915b5050505050905090565b6109c06109b9610c87565b838361118d565b5050565b6109d56109cf610c87565b83610d48565b610a14576040517f08c379a0000000000000000000000000000000000000000000000000000000008152600401610a0b9061256e565b60405180910390fd5b610a20848484846112fa565b50505050565b6060610a3182611356565b610a70576040517f08c379a0000000000000000000000000000000000000000000000000000000008152600401610a679061268e565b60405180910390fd5b6000610a7a6113c2565b90506000815111610a9a5760405180602001604052806000815250610ac5565b80610aa4846113d9565b604051602001610ab5929190612462565b6040516020818303038152906040525b915050919050565b6000600860008473ffffffffffffffffffffffffffffffffffffffff1673ffffffffffffffffffffffffffffffffffffffff16815260200190815260200160002060008373ffffffffffffffffffffffffffffffffffffffff1673ffffffffffffffffffffffffffffffffffffffff16815260200190815260200160002060009054906101000a900460ff16905092915050565b6060600060056000848152602001908152602001600020805480602002602001604051908101604052809291908181526020018280548015610bc257602002820191906000526020600020905b815481526020019060010190808311610bae575b5050505050905080915050919050565b60007f01ffc9a7000000000000000000000000000000000000000000000000000000007bffffffffffffffffffffffffffffffffffffffffffffffffffffffff1916827bffffffffffffffffffffffffffffffffffffffffffffffffffffffff1916149050919050565b610c4581611356565b610c84576040517f08c379a0000000000000000000000000000000000000000000000000000000008152600401610c7b906126ae565b60405180910390fd5b50565b600033905090565b816007600083815260200190815260200160002060006101000a81548173ffffffffffffffffffffffffffffffffffffffff021916908373ffffffffffffffffffffffffffffffffffffffff160217905550808273ffffffffffffffffffffffffffffffffffffffff16610d02836107b2565b73ffffffffffffffffffffffffffffffffffffffff167f8c5be1e5ebec7d5bd14f71427d1e84f3dd0314c0f7b2291e5b200ac8c7c3b92560405160405180910390a45050565b600080610d54836107b2565b90508073ffffffffffffffffffffffffffffffffffffffff168473ffffffffffffffffffffffffffffffffffffffff161480610d965750610d958185610acd565b5b80610dd457508373ffffffffffffffffffffffffffffffffffffffff16610dbc846104f1565b73ffffffffffffffffffffffffffffffffffffffff16145b91505092915050565b8273ffffffffffffffffffffffffffffffffffffffff16610dfd826107b2565b73ffffffffffffffffffffffffffffffffffffffff1614610e53576040517f08c379a0000000000000000000000000000000000000000000000000000000008152600401610e4a906125ae565b60405180910390fd5b600073ffffffffffffffffffffffffffffffffffffffff168273ffffffffffffffffffffffffffffffffffffffff161415610ec3576040517f08c379a0000000000000000000000000000000000000000000000000000000008152600401610eba906125ee565b60405180910390fd5b610ece838383611586565b8273ffffffffffffffffffffffffffffffffffffffff16610eee826107b2565b73ffffffffffffffffffffffffffffffffffffffff1614610f44576040517f08c379a0000000000000000000000000000000000000000000000000000000008152600401610f3b906125ae565b60405180910390fd5b6007600082815260200190815260200160002060006101000a81549073ffffffffffffffffffffffffffffffffffffffff02191690556001600660008573ffffffffffffffffffffffffffffffffffffffff1673ffffffffffffffffffffffffffffffffffffffff168152602001908152602001600020600082825403925050819055506001600660008473ffffffffffffffffffffffffffffffffffffffff1673ffffffffffffffffffffffffffffffffffffffff16815260200190815260200160002060008282540192505081905550816003600083815260200190815260200160002060006101000a81548173ffffffffffffffffffffffffffffffffffffffff021916908373ffffffffffffffffffffffffffffffffffffffff160217905550808273ffffffffffffffffffffffffffffffffffffffff168473ffffffffffffffffffffffffffffffffffffffff167fddf252ad1be2c89b69c2b068fc378daa952ba7f163c4a11628f55a4df523b3ef60405160405180910390a46110ce83838361158b565b505050565b6001816000016000828254019250508190555050565b600081600001549050919050565b6111138484848460405180602001604052806000815250611590565b50505050565b61112282611356565b611161576040517f08c379a00000000000000000000000000000000000000000000000000000000081526004016111589061264e565b60405180910390fd5b80600960008481526020019081526020016000209080519060200190611188929190611a15565b505050565b8173ffffffffffffffffffffffffffffffffffffffff168373ffffffffffffffffffffffffffffffffffffffff1614156111fc576040517f08c379a00000000000000000000000000000000000000000000000000000000081526004016111f39061260e565b60405180910390fd5b80600860008573ffffffffffffffffffffffffffffffffffffffff1673ffffffffffffffffffffffffffffffffffffffff16815260200190815260200160002060008473ffffffffffffffffffffffffffffffffffffffff1673ffffffffffffffffffffffffffffffffffffffff16815260200190815260200160002060006101000a81548160ff0219169083151502179055508173ffffffffffffffffffffffffffffffffffffffff168373ffffffffffffffffffffffffffffffffffffffff167f17307eab39ab6107e8899845ad3d59bd9653f200f220920489ca2b5937696c31836040516112ed9190612531565b60405180910390a3505050565b611305848484610ddd565b611311848484846115ef565b611350576040517f08c379a00000000000000000000000000000000000000000000000000000000081526004016113479061258e565b60405180910390fd5b50505050565b60008073ffffffffffffffffffffffffffffffffffffffff166003600084815260200190815260200160002060009054906101000a900473ffffffffffffffffffffffffffffffffffffffff1673ffffffffffffffffffffffffffffffffffffffff1614159050919050565b606060405180602001604052806000815250905090565b60606000821415611421576040518060400160405280600181526020017f30000000000000000000000000000000000000000000000000000000000000008152509050611581565b600082905060005b6000821461145357808061143c90612a91565b915050600a8261144c9190612913565b9150611429565b60008167ffffffffffffffff811115611495577f4e487b7100000000000000000000000000000000000000000000000000000000600052604160045260246000fd5b6040519080825280601f01601f1916602001820160405280156114c75781602001600182028036833780820191505090505b5090505b6000851461157a576001826114e09190612944565b9150600a856114ef9190612ada565b60306114fb91906128bd565b60f81b818381518110611537577f4e487b7100000000000000000000000000000000000000000000000000000000600052603260045260246000fd5b60200101907effffffffffffffffffffffffffffffffffffffffffffffffffffffffffffff1916908160001a905350600a856115739190612913565b94506114cb565b8093505050505b919050565b505050565b505050565b61159c85858585611786565b6115a960008684846115ef565b6115e8576040517f08c379a00000000000000000000000000000000000000000000000000000000081526004016115df9061258e565b60405180910390fd5b5050505050565b60006116108473ffffffffffffffffffffffffffffffffffffffff166119f2565b15611779578373ffffffffffffffffffffffffffffffffffffffff1663150b7a02611639610c87565b8786866040518563ffffffff1660e01b815260040161165b94939291906124a1565b602060405180830381600087803b15801561167557600080fd5b505af19250505080156116a657506040513d601f19601f820116820180604052508101906116a3919061206f565b60015b611729573d80600081146116d6576040519150601f19603f3d011682016040523d82523d6000602084013e6116db565b606091505b50600081511415611721576040517f08c379a00000000000000000000000000000000000000000000000000000000081526004016117189061258e565b60405180910390fd5b805181602001fd5b63150b7a0260e01b7bffffffffffffffffffffffffffffffffffffffffffffffffffffffff1916817bffffffffffffffffffffffffffffffffffffffffffffffffffffffff19161491505061177e565b600190505b949350505050565b600073ffffffffffffffffffffffffffffffffffffffff168473ffffffffffffffffffffffffffffffffffffffff1614156117f6576040517f08c379a00000000000000000000000000000000000000000000000000000000081526004016117ed9061266e565b60405180910390fd5b6117ff81611356565b1561183f576040517f08c379a0000000000000000000000000000000000000000000000000000000008152600401611836906125ce565b60405180910390fd5b61184b60008583611586565b61185481611356565b15611894576040517f08c379a000000000000000000000000000000000000000000000000000000000815260040161188b906125ce565b60405180910390fd5b6001600660008673ffffffffffffffffffffffffffffffffffffffff1673ffffffffffffffffffffffffffffffffffffffff16815260200190815260200160002060008282540192505081905550836003600083815260200190815260200160002060006101000a81548173ffffffffffffffffffffffffffffffffffffffff021916908373ffffffffffffffffffffffffffffffffffffffff1602179055508260046000838152602001908152602001600020908051906020019061195b929190611a9b565b5081600560008381526020019081526020016000209080519060200190611983929190611b25565b50808473ffffffffffffffffffffffffffffffffffffffff16600073ffffffffffffffffffffffffffffffffffffffff167fddf252ad1be2c89b69c2b068fc378daa952ba7f163c4a11628f55a4df523b3ef60405160405180910390a46119ec6000858361158b565b50505050565b6000808273ffffffffffffffffffffffffffffffffffffffff163b119050919050565b828054611a2190612a2e565b90600052602060002090601f016020900481019282611a435760008555611a8a565b82601f10611a5c57805160ff1916838001178555611a8a565b82800160010185558215611a8a579182015b82811115611a89578251825591602001919060010190611a6e565b5b509050611a979190611b72565b5090565b828054828255906000526020600020908101928215611b14579160200282015b82811115611b135782518260006101000a81548173ffffffffffffffffffffffffffffffffffffffff021916908373ffffffffffffffffffffffffffffffffffffffff16021790555091602001919060010190611abb565b5b509050611b219190611b72565b5090565b828054828255906000526020600020908101928215611b61579160200282015b82811115611b60578251825591602001919060010190611b45565b5b509050611b6e9190611b72565b5090565b5b80821115611b8b576000816000905550600101611b73565b5090565b6000611ba2611b9d8461274e565b612729565b90508083825260208201905082856020860282011115611bc157600080fd5b60005b85811015611bf15781611bd78882611ce3565b845260208401935060208301925050600181019050611bc4565b5050509392505050565b6000611c0e611c098461277a565b612729565b90508083825260208201905082856020860282011115611c2d57600080fd5b60005b85811015611c5d5781611c438882611ddf565b845260208401935060208301925050600181019050611c30565b5050509392505050565b6000611c7a611c75846127a6565b612729565b905082815260208101848484011115611c9257600080fd5b611c9d8482856129ec565b509392505050565b6000611cb8611cb3846127d7565b612729565b905082815260208101848484011115611cd057600080fd5b611cdb8482856129ec565b509392505050565b600081359050611cf281612f43565b92915050565b600082601f830112611d0957600080fd5b8135611d19848260208601611b8f565b91505092915050565b600082601f830112611d3357600080fd5b8135611d43848260208601611bfb565b91505092915050565b600081359050611d5b81612f5a565b92915050565b600081359050611d7081612f71565b92915050565b600081519050611d8581612f71565b92915050565b600082601f830112611d9c57600080fd5b8135611dac848260208601611c67565b91505092915050565b600082601f830112611dc657600080fd5b8135611dd6848260208601611ca5565b91505092915050565b600081359050611dee81612f88565b92915050565b600060208284031215611e0657600080fd5b6000611e1484828501611ce3565b91505092915050565b60008060408385031215611e3057600080fd5b6000611e3e85828601611ce3565b9250506020611e4f85828601611ce3565b9150509250929050565b600080600060608486031215611e6e57600080fd5b6000611e7c86828701611ce3565b9350506020611e8d86828701611ce3565b9250506040611e9e86828701611ddf565b9150509250925092565b60008060008060808587031215611ebe57600080fd5b6000611ecc87828801611ce3565b9450506020611edd87828801611ce3565b9350506040611eee87828801611ddf565b925050606085013567ffffffffffffffff811115611f0b57600080fd5b611f1787828801611d8b565b91505092959194509250565b60008060008060808587031215611f3957600080fd5b6000611f4787828801611ce3565b945050602085013567ffffffffffffffff811115611f6457600080fd5b611f7087828801611cf8565b935050604085013567ffffffffffffffff811115611f8d57600080fd5b611f9987828801611d22565b925050606085013567ffffffffffffffff811115611fb657600080fd5b611fc287828801611db5565b91505092959194509250565b60008060408385031215611fe157600080fd5b6000611fef85828601611ce3565b925050602061200085828601611d4c565b9150509250929050565b6000806040838503121561201d57600080fd5b600061202b85828601611ce3565b925050602061203c85828601611ddf565b9150509250929050565b60006020828403121561205857600080fd5b600061206684828501611d61565b91505092915050565b60006020828403121561208157600080fd5b600061208f84828501611d76565b91505092915050565b6000602082840312156120aa57600080fd5b60006120b884828501611ddf565b91505092915050565b60006120cd83836120f1565b60208301905092915050565b60006120e58383612444565b60208301905092915050565b6120fa81612978565b82525050565b61210981612978565b82525050565b600061211a82612828565b612124818561286e565b935061212f83612808565b8060005b8381101561216057815161214788826120c1565b975061215283612854565b925050600181019050612133565b5085935050505092915050565b600061217882612833565b612182818561287f565b935061218d83612818565b8060005b838110156121be5781516121a588826120d9565b97506121b083612861565b925050600181019050612191565b5085935050505092915050565b6121d48161298a565b82525050565b60006121e58261283e565b6121ef8185612890565b93506121ff8185602086016129fb565b61220881612bc7565b840191505092915050565b600061221e82612849565b61222881856128a1565b93506122388185602086016129fb565b61224181612bc7565b840191505092915050565b600061225782612849565b61226181856128b2565b93506122718185602086016129fb565b80840191505092915050565b600061228a602d836128a1565b915061229582612bd8565b604082019050919050565b60006122ad6032836128a1565b91506122b882612c27565b604082019050919050565b60006122d06025836128a1565b91506122db82612c76565b604082019050919050565b60006122f3601c836128a1565b91506122fe82612cc5565b602082019050919050565b60006123166024836128a1565b915061232182612cee565b604082019050919050565b60006123396019836128a1565b915061234482612d3d565b602082019050919050565b600061235c6029836128a1565b915061236782612d66565b604082019050919050565b600061237f602e836128a1565b915061238a82612db5565b604082019050919050565b60006123a26020836128a1565b91506123ad82612e04565b602082019050919050565b60006123c5602f836128a1565b91506123d082612e2d565b604082019050919050565b60006123e86018836128a1565b91506123f382612e7c565b602082019050919050565b600061240b6021836128a1565b915061241682612ea5565b604082019050919050565b600061242e603d836128a1565b915061243982612ef4565b604082019050919050565b61244d816129e2565b82525050565b61245c816129e2565b82525050565b600061246e828561224c565b915061247a828461224c565b91508190509392505050565b600060208201905061249b6000830184612100565b92915050565b60006080820190506124b66000830187612100565b6124c36020830186612100565b6124d06040830185612453565b81810360608301526124e281846121da565b905095945050505050565b60006020820190508181036000830152612507818461210f565b905092915050565b60006020820190508181036000830152612529818461216d565b905092915050565b600060208201905061254660008301846121cb565b92915050565b600060208201905081810360008301526125668184612213565b905092915050565b600060208201905081810360008301526125878161227d565b9050919050565b600060208201905081810360008301526125a7816122a0565b9050919050565b600060208201905081810360008301526125c7816122c3565b9050919050565b600060208201905081810360008301526125e7816122e6565b9050919050565b6000602082019050818103600083015261260781612309565b9050919050565b600060208201905081810360008301526126278161232c565b9050919050565b600060208201905081810360008301526126478161234f565b9050919050565b6000602082019050818103600083015261266781612372565b9050919050565b6000602082019050818103600083015261268781612395565b9050919050565b600060208201905081810360008301526126a7816123b8565b9050919050565b600060208201905081810360008301526126c7816123db565b9050919050565b600060208201905081810360008301526126e7816123fe565b9050919050565b6000602082019050818103600083015261270781612421565b9050919050565b60006020820190506127236000830184612453565b92915050565b6000612733612744565b905061273f8282612a60565b919050565b6000604051905090565b600067ffffffffffffffff82111561276957612768612b98565b5b602082029050602081019050919050565b600067ffffffffffffffff82111561279557612794612b98565b5b602082029050602081019050919050565b600067ffffffffffffffff8211156127c1576127c0612b98565b5b6127ca82612bc7565b9050602081019050919050565b600067ffffffffffffffff8211156127f2576127f1612b98565b5b6127fb82612bc7565b9050602081019050919050565b6000819050602082019050919050565b6000819050602082019050919050565b600081519050919050565b600081519050919050565b600081519050919050565b600081519050919050565b6000602082019050919050565b6000602082019050919050565b600082825260208201905092915050565b600082825260208201905092915050565b600082825260208201905092915050565b600082825260208201905092915050565b600081905092915050565b60006128c8826129e2565b91506128d3836129e2565b9250827fffffffffffffffffffffffffffffffffffffffffffffffffffffffffffffffff0382111561290857612907612b0b565b5b828201905092915050565b600061291e826129e2565b9150612929836129e2565b92508261293957612938612b3a565b5b828204905092915050565b600061294f826129e2565b915061295a836129e2565b92508282101561296d5761296c612b0b565b5b828203905092915050565b6000612983826129c2565b9050919050565b60008115159050919050565b60007fffffffff0000000000000000000000000000000000000000000000000000000082169050919050565b600073ffffffffffffffffffffffffffffffffffffffff82169050919050565b6000819050919050565b82818337600083830152505050565b60005b83811015612a195780820151818401526020810190506129fe565b83811115612a28576000848401525b50505050565b60006002820490506001821680612a4657607f821691505b60208210811415612a5a57612a59612b69565b5b50919050565b612a6982612bc7565b810181811067ffffffffffffffff82111715612a8857612a87612b98565b5b80604052505050565b6000612a9c826129e2565b91507fffffffffffffffffffffffffffffffffffffffffffffffffffffffffffffffff821415612acf57612ace612b0b565b5b600182019050919050565b6000612ae5826129e2565b9150612af0836129e2565b925082612b0057612aff612b3a565b5b828206905092915050565b7f4e487b7100000000000000000000000000000000000000000000000000000000600052601160045260246000fd5b7f4e487b7100000000000000000000000000000000000000000000000000000000600052601260045260246000fd5b7f4e487b7100000000000000000000000000000000000000000000000000000000600052602260045260246000fd5b7f4e487b7100000000000000000000000000000000000000000000000000000000600052604160045260246000fd5b6000601f19601f8301169050919050565b7f4552433732313a2063616c6c6572206973206e6f7420746f6b656e206f776e6560008201527f72206f7220617070726f76656400000000000000000000000000000000000000602082015250565b7f4552433732313a207472616e7366657220746f206e6f6e20455243373231526560008201527f63656976657220696d706c656d656e7465720000000000000000000000000000602082015250565b7f4552433732313a207472616e736665722066726f6d20696e636f72726563742060008201527f6f776e6572000000000000000000000000000000000000000000000000000000602082015250565b7f4552433732313a20746f6b656e20616c7265616479206d696e74656400000000600082015250565b7f4552433732313a207472616e7366657220746f20746865207a65726f2061646460008201527f7265737300000000000000000000000000000000000000000000000000000000602082015250565b7f4552433732313a20617070726f766520746f2063616c6c657200000000000000600082015250565b7f4552433732313a2061646472657373207a65726f206973206e6f74206120766160008201527f6c6964206f776e65720000000000000000000000000000000000000000000000602082015250565b7f45524337323155524953746f726167653a2055524920736574206f66206e6f6e60008201527f6578697374656e7420746f6b656e000000000000000000000000000000000000602082015250565b7f4552433732313a206d696e7420746f20746865207a65726f2061646472657373600082015250565b7f4552433732314d657461646174613a2055524920717565727920666f72206e6f60008201527f6e6578697374656e7420746f6b656e0000000000000000000000000000000000602082015250565b7f4552433732313a20696e76616c696420746f6b656e2049440000000000000000600082015250565b7f4552433732313a20617070726f76616c20746f2063757272656e74206f776e6560008201527f7200000000000000000000000000000000000000000000000000000000000000602082015250565b7f4552433732313a20617070726f76652063616c6c6572206973206e6f7420746f60008201527f6b656e206f776e6572206f7220617070726f76656420666f7220616c6c000000602082015250565b612f4c81612978565b8114612f5757600080fd5b50565b612f638161298a565b8114612f6e57600080fd5b50565b612f7a81612996565b8114612f8557600080fd5b50565b612f91816129e2565b8114612f9c57600080fd5b5056fea264697066735822122018feb2dcbc3a2164b3936daabf1595c0eecb18a22ea51f85024b1beabb01e68c64736f6c63430008040033",
					"opcodes": "PUSH1 0x80 PUSH1 0x40 MSTORE CALLVALUE DUP1 ISZERO PUSH3 0x11 JUMPI PUSH1 0x0 DUP1 REVERT JUMPDEST POP PUSH1 0x40 MLOAD PUSH3 0x335B CODESIZE SUB DUP1 PUSH3 0x335B DUP4 CODECOPY DUP2 DUP2 ADD PUSH1 0x40 MSTORE DUP2 ADD SWAP1 PUSH3 0x37 SWAP2 SWAP1 PUSH3 0x193 JUMP JUMPDEST DUP2 PUSH1 0x1 SWAP1 DUP1 MLOAD SWAP1 PUSH1 0x20 ADD SWAP1 PUSH3 0x4F SWAP3 SWAP2 SWAP1 PUSH3 0x71 JUMP JUMPDEST POP DUP1 PUSH1 0x2 SWAP1 DUP1 MLOAD SWAP1 PUSH1 0x20 ADD SWAP1 PUSH3 0x68 SWAP3 SWAP2 SWAP1 PUSH3 0x71 JUMP JUMPDEST POP POP POP PUSH3 0x376 JUMP JUMPDEST DUP3 DUP1 SLOAD PUSH3 0x7F SWAP1 PUSH3 0x29B JUMP JUMPDEST SWAP1 PUSH1 0x0 MSTORE PUSH1 0x20 PUSH1 0x0 KECCAK256 SWAP1 PUSH1 0x1F ADD PUSH1 0x20 SWAP1 DIV DUP2 ADD SWAP3 DUP3 PUSH3 0xA3 JUMPI PUSH1 0x0 DUP6 SSTORE PUSH3 0xEF JUMP JUMPDEST DUP3 PUSH1 0x1F LT PUSH3 0xBE JUMPI DUP1 MLOAD PUSH1 0xFF NOT AND DUP4 DUP1 ADD OR DUP6 SSTORE PUSH3 0xEF JUMP JUMPDEST DUP3 DUP1 ADD PUSH1 0x1 ADD DUP6 SSTORE DUP3 ISZERO PUSH3 0xEF JUMPI SWAP2 DUP3 ADD JUMPDEST DUP3 DUP2 GT ISZERO PUSH3 0xEE JUMPI DUP3 MLOAD DUP3 SSTORE SWAP2 PUSH1 0x20 ADD SWAP2 SWAP1 PUSH1 0x1 ADD SWAP1 PUSH3 0xD1 JUMP JUMPDEST JUMPDEST POP SWAP1 POP PUSH3 0xFE SWAP2 SWAP1 PUSH3 0x102 JUMP JUMPDEST POP SWAP1 JUMP JUMPDEST JUMPDEST DUP1 DUP3 GT ISZERO PUSH3 0x11D JUMPI PUSH1 0x0 DUP2 PUSH1 0x0 SWAP1 SSTORE POP PUSH1 0x1 ADD PUSH3 0x103 JUMP JUMPDEST POP SWAP1 JUMP JUMPDEST PUSH1 0x0 PUSH3 0x138 PUSH3 0x132 DUP5 PUSH3 0x22F JUMP JUMPDEST PUSH3 0x206 JUMP JUMPDEST SWAP1 POP DUP3 DUP2 MSTORE PUSH1 0x20 DUP2 ADD DUP5 DUP5 DUP5 ADD GT ISZERO PUSH3 0x151 JUMPI PUSH1 0x0 DUP1 REVERT JUMPDEST PUSH3 0x15E DUP5 DUP3 DUP6 PUSH3 0x265 JUMP JUMPDEST POP SWAP4 SWAP3 POP POP POP JUMP JUMPDEST PUSH1 0x0 DUP3 PUSH1 0x1F DUP4 ADD SLT PUSH3 0x178 JUMPI PUSH1 0x0 DUP1 REVERT JUMPDEST DUP2 MLOAD PUSH3 0x18A DUP5 DUP3 PUSH1 0x20 DUP7 ADD PUSH3 0x121 JUMP JUMPDEST SWAP2 POP POP SWAP3 SWAP2 POP POP JUMP JUMPDEST PUSH1 0x0 DUP1 PUSH1 0x40 DUP4 DUP6 SUB SLT ISZERO PUSH3 0x1A7 JUMPI PUSH1 0x0 DUP1 REVERT JUMPDEST PUSH1 0x0 DUP4 ADD MLOAD PUSH8 0xFFFFFFFFFFFFFFFF DUP2 GT ISZERO PUSH3 0x1C2 JUMPI PUSH1 0x0 DUP1 REVERT JUMPDEST PUSH3 0x1D0 DUP6 DUP3 DUP7 ADD PUSH3 0x166 JUMP JUMPDEST SWAP3 POP POP PUSH1 0x20 DUP4 ADD MLOAD PUSH8 0xFFFFFFFFFFFFFFFF DUP2 GT ISZERO PUSH3 0x1EE JUMPI PUSH1 0x0 DUP1 REVERT JUMPDEST PUSH3 0x1FC DUP6 DUP3 DUP7 ADD PUSH3 0x166 JUMP JUMPDEST SWAP2 POP POP SWAP3 POP SWAP3 SWAP1 POP JUMP JUMPDEST PUSH1 0x0 PUSH3 0x212 PUSH3 0x225 JUMP JUMPDEST SWAP1 POP PUSH3 0x220 DUP3 DUP3 PUSH3 0x2D1 JUMP JUMPDEST SWAP2 SWAP1 POP JUMP JUMPDEST PUSH1 0x0 PUSH1 0x40 MLOAD SWAP1 POP SWAP1 JUMP JUMPDEST PUSH1 0x0 PUSH8 0xFFFFFFFFFFFFFFFF DUP3 GT ISZERO PUSH3 0x24D JUMPI PUSH3 0x24C PUSH3 0x336 JUMP JUMPDEST JUMPDEST PUSH3 0x258 DUP3 PUSH3 0x365 JUMP JUMPDEST SWAP1 POP PUSH1 0x20 DUP2 ADD SWAP1 POP SWAP2 SWAP1 POP JUMP JUMPDEST PUSH1 0x0 JUMPDEST DUP4 DUP2 LT ISZERO PUSH3 0x285 JUMPI DUP1 DUP3 ADD MLOAD DUP2 DUP5 ADD MSTORE PUSH1 0x20 DUP2 ADD SWAP1 POP PUSH3 0x268 JUMP JUMPDEST DUP4 DUP2 GT ISZERO PUSH3 0x295 JUMPI PUSH1 0x0 DUP5 DUP5 ADD MSTORE JUMPDEST POP POP POP POP JUMP JUMPDEST PUSH1 0x0 PUSH1 0x2 DUP3 DIV SWAP1 POP PUSH1 0x1 DUP3 AND DUP1 PUSH3 0x2B4 JUMPI PUSH1 0x7F DUP3 AND SWAP2 POP JUMPDEST PUSH1 0x20 DUP3 LT DUP2 EQ ISZERO PUSH3 0x2CB JUMPI PUSH3 0x2CA PUSH3 0x307 JUMP JUMPDEST JUMPDEST POP SWAP2 SWAP1 POP JUMP JUMPDEST PUSH3 0x2DC DUP3 PUSH3 0x365 JUMP JUMPDEST DUP2 ADD DUP2 DUP2 LT PUSH8 0xFFFFFFFFFFFFFFFF DUP3 GT OR ISZERO PUSH3 0x2FE JUMPI PUSH3 0x2FD PUSH3 0x336 JUMP JUMPDEST JUMPDEST DUP1 PUSH1 0x40 MSTORE POP POP POP JUMP JUMPDEST PUSH32 0x4E487B7100000000000000000000000000000000000000000000000000000000 PUSH1 0x0 MSTORE PUSH1 0x22 PUSH1 0x4 MSTORE PUSH1 0x24 PUSH1 0x0 REVERT JUMPDEST PUSH32 0x4E487B7100000000000000000000000000000000000000000000000000000000 PUSH1 0x0 MSTORE PUSH1 0x41 PUSH1 0x4 MSTORE PUSH1 0x24 PUSH1 0x0 REVERT JUMPDEST PUSH1 0x0 PUSH1 0x1F NOT PUSH1 0x1F DUP4 ADD AND SWAP1 POP SWAP2 SWAP1 POP JUMP JUMPDEST PUSH2 0x2FD5 DUP1 PUSH3 0x386 PUSH1 0x0 CODECOPY PUSH1 0x0 RETURN INVALID PUSH1 0x80 PUSH1 0x40 MSTORE CALLVALUE DUP1 ISZERO PUSH2 0x10 JUMPI PUSH1 0x0 DUP1 REVERT JUMPDEST POP PUSH1 0x4 CALLDATASIZE LT PUSH2 0x100 JUMPI PUSH1 0x0 CALLDATALOAD PUSH1 0xE0 SHR DUP1 PUSH4 0x6352211E GT PUSH2 0x97 JUMPI DUP1 PUSH4 0xB88D4FDE GT PUSH2 0x66 JUMPI DUP1 PUSH4 0xB88D4FDE EQ PUSH2 0x2D1 JUMPI DUP1 PUSH4 0xC87B56DD EQ PUSH2 0x2ED JUMPI DUP1 PUSH4 0xE985E9C5 EQ PUSH2 0x31D JUMPI DUP1 PUSH4 0xEE48CDA2 EQ PUSH2 0x34D JUMPI PUSH2 0x100 JUMP JUMPDEST DUP1 PUSH4 0x6352211E EQ PUSH2 0x237 JUMPI DUP1 PUSH4 0x70A08231 EQ PUSH2 0x267 JUMPI DUP1 PUSH4 0x95D89B41 EQ PUSH2 0x297 JUMPI DUP1 PUSH4 0xA22CB465 EQ PUSH2 0x2B5 JUMPI PUSH2 0x100 JUMP JUMPDEST DUP1 PUSH4 0x23B872DD GT PUSH2 0xD3 JUMPI DUP1 PUSH4 0x23B872DD EQ PUSH2 0x19F JUMPI DUP1 PUSH4 0x381568D8 EQ PUSH2 0x1BB JUMPI DUP1 PUSH4 0x42842E0E EQ PUSH2 0x1EB JUMPI DUP1 PUSH4 0x52E04825 EQ PUSH2 0x207 JUMPI PUSH2 0x100 JUMP JUMPDEST DUP1 PUSH4 0x1FFC9A7 EQ PUSH2 0x105 JUMPI DUP1 PUSH4 0x6FDDE03 EQ PUSH2 0x135 JUMPI DUP1 PUSH4 0x81812FC EQ PUSH2 0x153 JUMPI DUP1 PUSH4 0x95EA7B3 EQ PUSH2 0x183 JUMPI JUMPDEST PUSH1 0x0 DUP1 REVERT JUMPDEST PUSH2 0x11F PUSH1 0x4 DUP1 CALLDATASIZE SUB DUP2 ADD SWAP1 PUSH2 0x11A SWAP2 SWAP1 PUSH2 0x2046 JUMP JUMPDEST PUSH2 0x37D JUMP JUMPDEST PUSH1 0x40 MLOAD PUSH2 0x12C SWAP2 SWAP1 PUSH2 0x2531 JUMP JUMPDEST PUSH1 0x40 MLOAD DUP1 SWAP2 SUB SWAP1 RETURN JUMPDEST PUSH2 0x13D PUSH2 0x45F JUMP JUMPDEST PUSH1 0x40 MLOAD PUSH2 0x14A SWAP2 SWAP1 PUSH2 0x254C JUMP JUMPDEST PUSH1 0x40 MLOAD DUP1 SWAP2 SUB SWAP1 RETURN JUMPDEST PUSH2 0x16D PUSH1 0x4 DUP1 CALLDATASIZE SUB DUP2 ADD SWAP1 PUSH2 0x168 SWAP2 SWAP1 PUSH2 0x2098 JUMP JUMPDEST PUSH2 0x4F1 JUMP JUMPDEST PUSH1 0x40 MLOAD PUSH2 0x17A SWAP2 SWAP1 PUSH2 0x2486 JUMP JUMPDEST PUSH1 0x40 MLOAD DUP1 SWAP2 SUB SWAP1 RETURN JUMPDEST PUSH2 0x19D PUSH1 0x4 DUP1 CALLDATASIZE SUB DUP2 ADD SWAP1 PUSH2 0x198 SWAP2 SWAP1 PUSH2 0x200A JUMP JUMPDEST PUSH2 0x537 JUMP JUMPDEST STOP JUMPDEST PUSH2 0x1B9 PUSH1 0x4 DUP1 CALLDATASIZE SUB DUP2 ADD SWAP1 PUSH2 0x1B4 SWAP2 SWAP1 PUSH2 0x1E59 JUMP JUMPDEST PUSH2 0x64F JUMP JUMPDEST STOP JUMPDEST PUSH2 0x1D5 PUSH1 0x4 DUP1 CALLDATASIZE SUB DUP2 ADD SWAP1 PUSH2 0x1D0 SWAP2 SWAP1 PUSH2 0x1F23 JUMP JUMPDEST PUSH2 0x6AF JUMP JUMPDEST PUSH1 0x40 MLOAD PUSH2 0x1E2 SWAP2 SWAP1 PUSH2 0x270E JUMP JUMPDEST PUSH1 0x40 MLOAD DUP1 SWAP2 SUB SWAP1 RETURN JUMPDEST PUSH2 0x205 PUSH1 0x4 DUP1 CALLDATASIZE SUB DUP2 ADD SWAP1 PUSH2 0x200 SWAP2 SWAP1 PUSH2 0x1E59 JUMP JUMPDEST PUSH2 0x6EB JUMP JUMPDEST STOP JUMPDEST PUSH2 0x221 PUSH1 0x4 DUP1 CALLDATASIZE SUB DUP2 ADD SWAP1 PUSH2 0x21C SWAP2 SWAP1 PUSH2 0x2098 JUMP JUMPDEST PUSH2 0x70B JUMP JUMPDEST PUSH1 0x40 MLOAD PUSH2 0x22E SWAP2 SWAP1 PUSH2 0x24ED JUMP JUMPDEST PUSH1 0x40 MLOAD DUP1 SWAP2 SUB SWAP1 RETURN JUMPDEST PUSH2 0x251 PUSH1 0x4 DUP1 CALLDATASIZE SUB DUP2 ADD SWAP1 PUSH2 0x24C SWAP2 SWAP1 PUSH2 0x2098 JUMP JUMPDEST PUSH2 0x7B2 JUMP JUMPDEST PUSH1 0x40 MLOAD PUSH2 0x25E SWAP2 SWAP1 PUSH2 0x2486 JUMP JUMPDEST PUSH1 0x40 MLOAD DUP1 SWAP2 SUB SWAP1 RETURN JUMPDEST PUSH2 0x281 PUSH1 0x4 DUP1 CALLDATASIZE SUB DUP2 ADD SWAP1 PUSH2 0x27C SWAP2 SWAP1 PUSH2 0x1DF4 JUMP JUMPDEST PUSH2 0x864 JUMP JUMPDEST PUSH1 0x40 MLOAD PUSH2 0x28E SWAP2 SWAP1 PUSH2 0x270E JUMP JUMPDEST PUSH1 0x40 MLOAD DUP1 SWAP2 SUB SWAP1 RETURN JUMPDEST PUSH2 0x29F PUSH2 0x91C JUMP JUMPDEST PUSH1 0x40 MLOAD PUSH2 0x2AC SWAP2 SWAP1 PUSH2 0x254C JUMP JUMPDEST PUSH1 0x40 MLOAD DUP1 SWAP2 SUB SWAP1 RETURN JUMPDEST PUSH2 0x2CF PUSH1 0x4 DUP1 CALLDATASIZE SUB DUP2 ADD SWAP1 PUSH2 0x2CA SWAP2 SWAP1 PUSH2 0x1FCE JUMP JUMPDEST PUSH2 0x9AE JUMP JUMPDEST STOP JUMPDEST PUSH2 0x2EB PUSH1 0x4 DUP1 CALLDATASIZE SUB DUP2 ADD SWAP1 PUSH2 0x2E6 SWAP2 SWAP1 PUSH2 0x1EA8 JUMP JUMPDEST PUSH2 0x9C4 JUMP JUMPDEST STOP JUMPDEST PUSH2 0x307 PUSH1 0x4 DUP1 CALLDATASIZE SUB DUP2 ADD SWAP1 PUSH2 0x302 SWAP2 SWAP1 PUSH2 0x2098 JUMP JUMPDEST PUSH2 0xA26 JUMP JUMPDEST PUSH1 0x40 MLOAD PUSH2 0x314 SWAP2 SWAP1 PUSH2 0x254C JUMP JUMPDEST PUSH1 0x40 MLOAD DUP1 SWAP2 SUB SWAP1 RETURN JUMPDEST PUSH2 0x337 PUSH1 0x4 DUP1 CALLDATASIZE SUB DUP2 ADD SWAP1 PUSH2 0x332 SWAP2 SWAP1 PUSH2 0x1E1D JUMP JUMPDEST PUSH2 0xACD JUMP JUMPDEST PUSH1 0x40 MLOAD PUSH2 0x344 SWAP2 SWAP1 PUSH2 0x2531 JUMP JUMPDEST PUSH1 0x40 MLOAD DUP1 SWAP2 SUB SWAP1 RETURN JUMPDEST PUSH2 0x367 PUSH1 0x4 DUP1 CALLDATASIZE SUB DUP2 ADD SWAP1 PUSH2 0x362 SWAP2 SWAP1 PUSH2 0x2098 JUMP JUMPDEST PUSH2 0xB61 JUMP JUMPDEST PUSH1 0x40 MLOAD PUSH2 0x374 SWAP2 SWAP1 PUSH2 0x250F JUMP JUMPDEST PUSH1 0x40 MLOAD DUP1 SWAP2 SUB SWAP1 RETURN JUMPDEST PUSH1 0x0 PUSH32 0x80AC58CD00000000000000000000000000000000000000000000000000000000 PUSH28 0xFFFFFFFFFFFFFFFFFFFFFFFFFFFFFFFFFFFFFFFFFFFFFFFFFFFFFFFF NOT AND DUP3 PUSH28 0xFFFFFFFFFFFFFFFFFFFFFFFFFFFFFFFFFFFFFFFFFFFFFFFFFFFFFFFF NOT AND EQ DUP1 PUSH2 0x448 JUMPI POP PUSH32 0x5B5E139F00000000000000000000000000000000000000000000000000000000 PUSH28 0xFFFFFFFFFFFFFFFFFFFFFFFFFFFFFFFFFFFFFFFFFFFFFFFFFFFFFFFF NOT AND DUP3 PUSH28 0xFFFFFFFFFFFFFFFFFFFFFFFFFFFFFFFFFFFFFFFFFFFFFFFFFFFFFFFF NOT AND EQ JUMPDEST DUP1 PUSH2 0x458 JUMPI POP PUSH2 0x457 DUP3 PUSH2 0xBD2 JUMP JUMPDEST JUMPDEST SWAP1 POP SWAP2 SWAP1 POP JUMP JUMPDEST PUSH1 0x60 PUSH1 0x1 DUP1 SLOAD PUSH2 0x46E SWAP1 PUSH2 0x2A2E JUMP JUMPDEST DUP1 PUSH1 0x1F ADD PUSH1 0x20 DUP1 SWAP2 DIV MUL PUSH1 0x20 ADD PUSH1 0x40 MLOAD SWAP1 DUP2 ADD PUSH1 0x40 MSTORE DUP1 SWAP3 SWAP2 SWAP1 DUP2 DUP2 MSTORE PUSH1 0x20 ADD DUP3 DUP1 SLOAD PUSH2 0x49A SWAP1 PUSH2 0x2A2E JUMP JUMPDEST DUP1 ISZERO PUSH2 0x4E7 JUMPI DUP1 PUSH1 0x1F LT PUSH2 0x4BC JUMPI PUSH2 0x100 DUP1 DUP4 SLOAD DIV MUL DUP4 MSTORE SWAP2 PUSH1 0x20 ADD SWAP2 PUSH2 0x4E7 JUMP JUMPDEST DUP3 ADD SWAP2 SWAP1 PUSH1 0x0 MSTORE PUSH1 0x20 PUSH1 0x0 KECCAK256 SWAP1 JUMPDEST DUP2 SLOAD DUP2 MSTORE SWAP1 PUSH1 0x1 ADD SWAP1 PUSH1 0x20 ADD DUP1 DUP4 GT PUSH2 0x4CA JUMPI DUP3 SWAP1 SUB PUSH1 0x1F AND DUP3 ADD SWAP2 JUMPDEST POP POP POP POP POP SWAP1 POP SWAP1 JUMP JUMPDEST PUSH1 0x0 PUSH2 0x4FC DUP3 PUSH2 0xC3C JUMP JUMPDEST PUSH1 0x7 PUSH1 0x0 DUP4 DUP2 MSTORE PUSH1 0x20 ADD SWAP1 DUP2 MSTORE PUSH1 0x20 ADD PUSH1 0x0 KECCAK256 PUSH1 0x0 SWAP1 SLOAD SWAP1 PUSH2 0x100 EXP SWAP1 DIV PUSH20 0xFFFFFFFFFFFFFFFFFFFFFFFFFFFFFFFFFFFFFFFF AND SWAP1 POP SWAP2 SWAP1 POP JUMP JUMPDEST PUSH1 0x0 PUSH2 0x542 DUP3 PUSH2 0x7B2 JUMP JUMPDEST SWAP1 POP DUP1 PUSH20 0xFFFFFFFFFFFFFFFFFFFFFFFFFFFFFFFFFFFFFFFF AND DUP4 PUSH20 0xFFFFFFFFFFFFFFFFFFFFFFFFFFFFFFFFFFFFFFFF AND EQ ISZERO PUSH2 0x5B3 JUMPI PUSH1 0x40 MLOAD PUSH32 0x8C379A000000000000000000000000000000000000000000000000000000000 DUP2 MSTORE PUSH1 0x4 ADD PUSH2 0x5AA SWAP1 PUSH2 0x26CE JUMP JUMPDEST PUSH1 0x40 MLOAD DUP1 SWAP2 SUB SWAP1 REVERT JUMPDEST DUP1 PUSH20 0xFFFFFFFFFFFFFFFFFFFFFFFFFFFFFFFFFFFFFFFF AND PUSH2 0x5D2 PUSH2 0xC87 JUMP JUMPDEST PUSH20 0xFFFFFFFFFFFFFFFFFFFFFFFFFFFFFFFFFFFFFFFF AND EQ DUP1 PUSH2 0x601 JUMPI POP PUSH2 0x600 DUP2 PUSH2 0x5FB PUSH2 0xC87 JUMP JUMPDEST PUSH2 0xACD JUMP JUMPDEST JUMPDEST PUSH2 0x640 JUMPI PUSH1 0x40 MLOAD PUSH32 0x8C379A000000000000000000000000000000000000000000000000000000000 DUP2 MSTORE PUSH1 0x4 ADD PUSH2 0x637 SWAP1 PUSH2 0x26EE JUMP JUMPDEST PUSH1 0x40 MLOAD DUP1 SWAP2 SUB SWAP1 REVERT JUMPDEST PUSH2 0x64A DUP4 DUP4 PUSH2 0xC8F JUMP JUMPDEST POP POP POP JUMP JUMPDEST PUSH2 0x660 PUSH2 0x65A PUSH2 0xC87 JUMP JUMPDEST DUP3 PUSH2 0xD48 JUMP JUMPDEST PUSH2 0x69F JUMPI PUSH1 0x40 MLOAD PUSH32 0x8C379A000000000000000000000000000000000000000000000000000000000 DUP2 MSTORE PUSH1 0x4 ADD PUSH2 0x696 SWAP1 PUSH2 0x256E JUMP JUMPDEST PUSH1 0x40 MLOAD DUP1 SWAP2 SUB SWAP1 REVERT JUMPDEST PUSH2 0x6AA DUP4 DUP4 DUP4 PUSH2 0xDDD JUMP JUMPDEST POP POP POP JUMP JUMPDEST PUSH1 0x0 PUSH2 0x6BB PUSH1 0x0 PUSH2 0x10D3 JUMP JUMPDEST PUSH1 0x0 PUSH2 0x6C7 PUSH1 0x0 PUSH2 0x10E9 JUMP JUMPDEST SWAP1 POP PUSH2 0x6D5 DUP7 DUP7 DUP7 DUP5 PUSH2 0x10F7 JUMP JUMPDEST PUSH2 0x6DF DUP2 DUP5 PUSH2 0x1119 JUMP JUMPDEST DUP1 SWAP2 POP POP SWAP5 SWAP4 POP POP POP POP JUMP JUMPDEST PUSH2 0x706 DUP4 DUP4 DUP4 PUSH1 0x40 MLOAD DUP1 PUSH1 0x20 ADD PUSH1 0x40 MSTORE DUP1 PUSH1 0x0 DUP2 MSTORE POP PUSH2 0x9C4 JUMP JUMPDEST POP POP POP JUMP JUMPDEST PUSH1 0x60 PUSH1 0x0 PUSH1 0x4 PUSH1 0x0 DUP5 DUP2 MSTORE PUSH1 0x20 ADD SWAP1 DUP2 MSTORE PUSH1 0x20 ADD PUSH1 0x0 KECCAK256 DUP1 SLOAD DUP1 PUSH1 0x20 MUL PUSH1 0x20 ADD PUSH1 0x40 MLOAD SWAP1 DUP2 ADD PUSH1 0x40 MSTORE DUP1 SWAP3 SWAP2 SWAP1 DUP2 DUP2 MSTORE PUSH1 0x20 ADD DUP3 DUP1 SLOAD DUP1 ISZERO PUSH2 0x7A2 JUMPI PUSH1 0x20 MUL DUP3 ADD SWAP2 SWAP1 PUSH1 0x0 MSTORE PUSH1 0x20 PUSH1 0x0 KECCAK256 SWAP1 JUMPDEST DUP2 PUSH1 0x0 SWAP1 SLOAD SWAP1 PUSH2 0x100 EXP SWAP1 DIV PUSH20 0xFFFFFFFFFFFFFFFFFFFFFFFFFFFFFFFFFFFFFFFF AND PUSH20 0xFFFFFFFFFFFFFFFFFFFFFFFFFFFFFFFFFFFFFFFF AND DUP2 MSTORE PUSH1 0x20 ADD SWAP1 PUSH1 0x1 ADD SWAP1 DUP1 DUP4 GT PUSH2 0x758 JUMPI JUMPDEST POP POP POP POP POP SWAP1 POP DUP1 SWAP2 POP POP SWAP2 SWAP1 POP JUMP JUMPDEST PUSH1 0x0 DUP1 PUSH1 0x3 PUSH1 0x0 DUP5 DUP2 MSTORE PUSH1 0x20 ADD SWAP1 DUP2 MSTORE PUSH1 0x20 ADD PUSH1 0x0 KECCAK256 PUSH1 0x0 SWAP1 SLOAD SWAP1 PUSH2 0x100 EXP SWAP1 DIV PUSH20 0xFFFFFFFFFFFFFFFFFFFFFFFFFFFFFFFFFFFFFFFF AND SWAP1 POP PUSH1 0x0 PUSH20 0xFFFFFFFFFFFFFFFFFFFFFFFFFFFFFFFFFFFFFFFF AND DUP2 PUSH20 0xFFFFFFFFFFFFFFFFFFFFFFFFFFFFFFFFFFFFFFFF AND EQ ISZERO PUSH2 0x85B JUMPI PUSH1 0x40 MLOAD PUSH32 0x8C379A000000000000000000000000000000000000000000000000000000000 DUP2 MSTORE PUSH1 0x4 ADD PUSH2 0x852 SWAP1 PUSH2 0x26AE JUMP JUMPDEST PUSH1 0x40 MLOAD DUP1 SWAP2 SUB SWAP1 REVERT JUMPDEST DUP1 SWAP2 POP POP SWAP2 SWAP1 POP JUMP JUMPDEST PUSH1 0x0 DUP1 PUSH20 0xFFFFFFFFFFFFFFFFFFFFFFFFFFFFFFFFFFFFFFFF AND DUP3 PUSH20 0xFFFFFFFFFFFFFFFFFFFFFFFFFFFFFFFFFFFFFFFF AND EQ ISZERO PUSH2 0x8D5 JUMPI PUSH1 0x40 MLOAD PUSH32 0x8C379A000000000000000000000000000000000000000000000000000000000 DUP2 MSTORE PUSH1 0x4 ADD PUSH2 0x8CC SWAP1 PUSH2 0x262E JUMP JUMPDEST PUSH1 0x40 MLOAD DUP1 SWAP2 SUB SWAP1 REVERT JUMPDEST PUSH1 0x6 PUSH1 0x0 DUP4 PUSH20 0xFFFFFFFFFFFFFFFFFFFFFFFFFFFFFFFFFFFFFFFF AND PUSH20 0xFFFFFFFFFFFFFFFFFFFFFFFFFFFFFFFFFFFFFFFF AND DUP2 MSTORE PUSH1 0x20 ADD SWAP1 DUP2 MSTORE PUSH1 0x20 ADD PUSH1 0x0 KECCAK256 SLOAD SWAP1 POP SWAP2 SWAP1 POP JUMP JUMPDEST PUSH1 0x60 PUSH1 0x2 DUP1 SLOAD PUSH2 0x92B SWAP1 PUSH2 0x2A2E JUMP JUMPDEST DUP1 PUSH1 0x1F ADD PUSH1 0x20 DUP1 SWAP2 DIV MUL PUSH1 0x20 ADD PUSH1 0x40 MLOAD SWAP1 DUP2 ADD PUSH1 0x40 MSTORE DUP1 SWAP3 SWAP2 SWAP1 DUP2 DUP2 MSTORE PUSH1 0x20 ADD DUP3 DUP1 SLOAD PUSH2 0x957 SWAP1 PUSH2 0x2A2E JUMP JUMPDEST DUP1 ISZERO PUSH2 0x9A4 JUMPI DUP1 PUSH1 0x1F LT PUSH2 0x979 JUMPI PUSH2 0x100 DUP1 DUP4 SLOAD DIV MUL DUP4 MSTORE SWAP2 PUSH1 0x20 ADD SWAP2 PUSH2 0x9A4 JUMP JUMPDEST DUP3 ADD SWAP2 SWAP1 PUSH1 0x0 MSTORE PUSH1 0x20 PUSH1 0x0 KECCAK256 SWAP1 JUMPDEST DUP2 SLOAD DUP2 MSTORE SWAP1 PUSH1 0x1 ADD SWAP1 PUSH1 0x20 ADD DUP1 DUP4 GT PUSH2 0x987 JUMPI DUP3 SWAP1 SUB PUSH1 0x1F AND DUP3 ADD SWAP2 JUMPDEST POP POP POP POP POP SWAP1 POP SWAP1 JUMP JUMPDEST PUSH2 0x9C0 PUSH2 0x9B9 PUSH2 0xC87 JUMP JUMPDEST DUP4 DUP4 PUSH2 0x118D JUMP JUMPDEST POP POP JUMP JUMPDEST PUSH2 0x9D5 PUSH2 0x9CF PUSH2 0xC87 JUMP JUMPDEST DUP4 PUSH2 0xD48 JUMP JUMPDEST PUSH2 0xA14 JUMPI PUSH1 0x40 MLOAD PUSH32 0x8C379A000000000000000000000000000000000000000000000000000000000 DUP2 MSTORE PUSH1 0x4 ADD PUSH2 0xA0B SWAP1 PUSH2 0x256E JUMP JUMPDEST PUSH1 0x40 MLOAD DUP1 SWAP2 SUB SWAP1 REVERT JUMPDEST PUSH2 0xA20 DUP5 DUP5 DUP5 DUP5 PUSH2 0x12FA JUMP JUMPDEST POP POP POP POP JUMP JUMPDEST PUSH1 0x60 PUSH2 0xA31 DUP3 PUSH2 0x1356 JUMP JUMPDEST PUSH2 0xA70 JUMPI PUSH1 0x40 MLOAD PUSH32 0x8C379A000000000000000000000000000000000000000000000000000000000 DUP2 MSTORE PUSH1 0x4 ADD PUSH2 0xA67 SWAP1 PUSH2 0x268E JUMP JUMPDEST PUSH1 0x40 MLOAD DUP1 SWAP2 SUB SWAP1 REVERT JUMPDEST PUSH1 0x0 PUSH2 0xA7A PUSH2 0x13C2 JUMP JUMPDEST SWAP1 POP PUSH1 0x0 DUP2 MLOAD GT PUSH2 0xA9A JUMPI PUSH1 0x40 MLOAD DUP1 PUSH1 0x20 ADD PUSH1 0x40 MSTORE DUP1 PUSH1 0x0 DUP2 MSTORE POP PUSH2 0xAC5 JUMP JUMPDEST DUP1 PUSH2 0xAA4 DUP5 PUSH2 0x13D9 JUMP JUMPDEST PUSH1 0x40 MLOAD PUSH1 0x20 ADD PUSH2 0xAB5 SWAP3 SWAP2 SWAP1 PUSH2 0x2462 JUMP JUMPDEST PUSH1 0x40 MLOAD PUSH1 0x20 DUP2 DUP4 SUB SUB DUP2 MSTORE SWAP1 PUSH1 0x40 MSTORE JUMPDEST SWAP2 POP POP SWAP2 SWAP1 POP JUMP JUMPDEST PUSH1 0x0 PUSH1 0x8 PUSH1 0x0 DUP5 PUSH20 0xFFFFFFFFFFFFFFFFFFFFFFFFFFFFFFFFFFFFFFFF AND PUSH20 0xFFFFFFFFFFFFFFFFFFFFFFFFFFFFFFFFFFFFFFFF AND DUP2 MSTORE PUSH1 0x20 ADD SWAP1 DUP2 MSTORE PUSH1 0x20 ADD PUSH1 0x0 KECCAK256 PUSH1 0x0 DUP4 PUSH20 0xFFFFFFFFFFFFFFFFFFFFFFFFFFFFFFFFFFFFFFFF AND PUSH20 0xFFFFFFFFFFFFFFFFFFFFFFFFFFFFFFFFFFFFFFFF AND DUP2 MSTORE PUSH1 0x20 ADD SWAP1 DUP2 MSTORE PUSH1 0x20 ADD PUSH1 0x0 KECCAK256 PUSH1 0x0 SWAP1 SLOAD SWAP1 PUSH2 0x100 EXP SWAP1 DIV PUSH1 0xFF AND SWAP1 POP SWAP3 SWAP2 POP POP JUMP JUMPDEST PUSH1 0x60 PUSH1 0x0 PUSH1 0x5 PUSH1 0x0 DUP5 DUP2 MSTORE PUSH1 0x20 ADD SWAP1 DUP2 MSTORE PUSH1 0x20 ADD PUSH1 0x0 KECCAK256 DUP1 SLOAD DUP1 PUSH1 0x20 MUL PUSH1 0x20 ADD PUSH1 0x40 MLOAD SWAP1 DUP2 ADD PUSH1 0x40 MSTORE DUP1 SWAP3 SWAP2 SWAP1 DUP2 DUP2 MSTORE PUSH1 0x20 ADD DUP3 DUP1 SLOAD DUP1 ISZERO PUSH2 0xBC2 JUMPI PUSH1 0x20 MUL DUP3 ADD SWAP2 SWAP1 PUSH1 0x0 MSTORE PUSH1 0x20 PUSH1 0x0 KECCAK256 SWAP1 JUMPDEST DUP2 SLOAD DUP2 MSTORE PUSH1 0x20 ADD SWAP1 PUSH1 0x1 ADD SWAP1 DUP1 DUP4 GT PUSH2 0xBAE JUMPI JUMPDEST POP POP POP POP POP SWAP1 POP DUP1 SWAP2 POP POP SWAP2 SWAP1 POP JUMP JUMPDEST PUSH1 0x0 PUSH32 0x1FFC9A700000000000000000000000000000000000000000000000000000000 PUSH28 0xFFFFFFFFFFFFFFFFFFFFFFFFFFFFFFFFFFFFFFFFFFFFFFFFFFFFFFFF NOT AND DUP3 PUSH28 0xFFFFFFFFFFFFFFFFFFFFFFFFFFFFFFFFFFFFFFFFFFFFFFFFFFFFFFFF NOT AND EQ SWAP1 POP SWAP2 SWAP1 POP JUMP JUMPDEST PUSH2 0xC45 DUP2 PUSH2 0x1356 JUMP JUMPDEST PUSH2 0xC84 JUMPI PUSH1 0x40 MLOAD PUSH32 0x8C379A000000000000000000000000000000000000000000000000000000000 DUP2 MSTORE PUSH1 0x4 ADD PUSH2 0xC7B SWAP1 PUSH2 0x26AE JUMP JUMPDEST PUSH1 0x40 MLOAD DUP1 SWAP2 SUB SWAP1 REVERT JUMPDEST POP JUMP JUMPDEST PUSH1 0x0 CALLER SWAP1 POP SWAP1 JUMP JUMPDEST DUP2 PUSH1 0x7 PUSH1 0x0 DUP4 DUP2 MSTORE PUSH1 0x20 ADD SWAP1 DUP2 MSTORE PUSH1 0x20 ADD PUSH1 0x0 KECCAK256 PUSH1 0x0 PUSH2 0x100 EXP DUP2 SLOAD DUP2 PUSH20 0xFFFFFFFFFFFFFFFFFFFFFFFFFFFFFFFFFFFFFFFF MUL NOT AND SWAP1 DUP4 PUSH20 0xFFFFFFFFFFFFFFFFFFFFFFFFFFFFFFFFFFFFFFFF AND MUL OR SWAP1 SSTORE POP DUP1 DUP3 PUSH20 0xFFFFFFFFFFFFFFFFFFFFFFFFFFFFFFFFFFFFFFFF AND PUSH2 0xD02 DUP4 PUSH2 0x7B2 JUMP JUMPDEST PUSH20 0xFFFFFFFFFFFFFFFFFFFFFFFFFFFFFFFFFFFFFFFF AND PUSH32 0x8C5BE1E5EBEC7D5BD14F71427D1E84F3DD0314C0F7B2291E5B200AC8C7C3B925 PUSH1 0x40 MLOAD PUSH1 0x40 MLOAD DUP1 SWAP2 SUB SWAP1 LOG4 POP POP JUMP JUMPDEST PUSH1 0x0 DUP1 PUSH2 0xD54 DUP4 PUSH2 0x7B2 JUMP JUMPDEST SWAP1 POP DUP1 PUSH20 0xFFFFFFFFFFFFFFFFFFFFFFFFFFFFFFFFFFFFFFFF AND DUP5 PUSH20 0xFFFFFFFFFFFFFFFFFFFFFFFFFFFFFFFFFFFFFFFF AND EQ DUP1 PUSH2 0xD96 JUMPI POP PUSH2 0xD95 DUP2 DUP6 PUSH2 0xACD JUMP JUMPDEST JUMPDEST DUP1 PUSH2 0xDD4 JUMPI POP DUP4 PUSH20 0xFFFFFFFFFFFFFFFFFFFFFFFFFFFFFFFFFFFFFFFF AND PUSH2 0xDBC DUP5 PUSH2 0x4F1 JUMP JUMPDEST PUSH20 0xFFFFFFFFFFFFFFFFFFFFFFFFFFFFFFFFFFFFFFFF AND EQ JUMPDEST SWAP2 POP POP SWAP3 SWAP2 POP POP JUMP JUMPDEST DUP3 PUSH20 0xFFFFFFFFFFFFFFFFFFFFFFFFFFFFFFFFFFFFFFFF AND PUSH2 0xDFD DUP3 PUSH2 0x7B2 JUMP JUMPDEST PUSH20 0xFFFFFFFFFFFFFFFFFFFFFFFFFFFFFFFFFFFFFFFF AND EQ PUSH2 0xE53 JUMPI PUSH1 0x40 MLOAD PUSH32 0x8C379A000000000000000000000000000000000000000000000000000000000 DUP2 MSTORE PUSH1 0x4 ADD PUSH2 0xE4A SWAP1 PUSH2 0x25AE JUMP JUMPDEST PUSH1 0x40 MLOAD DUP1 SWAP2 SUB SWAP1 REVERT JUMPDEST PUSH1 0x0 PUSH20 0xFFFFFFFFFFFFFFFFFFFFFFFFFFFFFFFFFFFFFFFF AND DUP3 PUSH20 0xFFFFFFFFFFFFFFFFFFFFFFFFFFFFFFFFFFFFFFFF AND EQ ISZERO PUSH2 0xEC3 JUMPI PUSH1 0x40 MLOAD PUSH32 0x8C379A000000000000000000000000000000000000000000000000000000000 DUP2 MSTORE PUSH1 0x4 ADD PUSH2 0xEBA SWAP1 PUSH2 0x25EE JUMP JUMPDEST PUSH1 0x40 MLOAD DUP1 SWAP2 SUB SWAP1 REVERT JUMPDEST PUSH2 0xECE DUP4 DUP4 DUP4 PUSH2 0x1586 JUMP JUMPDEST DUP3 PUSH20 0xFFFFFFFFFFFFFFFFFFFFFFFFFFFFFFFFFFFFFFFF AND PUSH2 0xEEE DUP3 PUSH2 0x7B2 JUMP JUMPDEST PUSH20 0xFFFFFFFFFFFFFFFFFFFFFFFFFFFFFFFFFFFFFFFF AND EQ PUSH2 0xF44 JUMPI PUSH1 0x40 MLOAD PUSH32 0x8C379A000000000000000000000000000000000000000000000000000000000 DUP2 MSTORE PUSH1 0x4 ADD PUSH2 0xF3B SWAP1 PUSH2 0x25AE JUMP JUMPDEST PUSH1 0x40 MLOAD DUP1 SWAP2 SUB SWAP1 REVERT JUMPDEST PUSH1 0x7 PUSH1 0x0 DUP3 DUP2 MSTORE PUSH1 0x20 ADD SWAP1 DUP2 MSTORE PUSH1 0x20 ADD PUSH1 0x0 KECCAK256 PUSH1 0x0 PUSH2 0x100 EXP DUP2 SLOAD SWAP1 PUSH20 0xFFFFFFFFFFFFFFFFFFFFFFFFFFFFFFFFFFFFFFFF MUL NOT AND SWAP1 SSTORE PUSH1 0x1 PUSH1 0x6 PUSH1 0x0 DUP6 PUSH20 0xFFFFFFFFFFFFFFFFFFFFFFFFFFFFFFFFFFFFFFFF AND PUSH20 0xFFFFFFFFFFFFFFFFFFFFFFFFFFFFFFFFFFFFFFFF AND DUP2 MSTORE PUSH1 0x20 ADD SWAP1 DUP2 MSTORE PUSH1 0x20 ADD PUSH1 0x0 KECCAK256 PUSH1 0x0 DUP3 DUP3 SLOAD SUB SWAP3 POP POP DUP2 SWAP1 SSTORE POP PUSH1 0x1 PUSH1 0x6 PUSH1 0x0 DUP5 PUSH20 0xFFFFFFFFFFFFFFFFFFFFFFFFFFFFFFFFFFFFFFFF AND PUSH20 0xFFFFFFFFFFFFFFFFFFFFFFFFFFFFFFFFFFFFFFFF AND DUP2 MSTORE PUSH1 0x20 ADD SWAP1 DUP2 MSTORE PUSH1 0x20 ADD PUSH1 0x0 KECCAK256 PUSH1 0x0 DUP3 DUP3 SLOAD ADD SWAP3 POP POP DUP2 SWAP1 SSTORE POP DUP2 PUSH1 0x3 PUSH1 0x0 DUP4 DUP2 MSTORE PUSH1 0x20 ADD SWAP1 DUP2 MSTORE PUSH1 0x20 ADD PUSH1 0x0 KECCAK256 PUSH1 0x0 PUSH2 0x100 EXP DUP2 SLOAD DUP2 PUSH20 0xFFFFFFFFFFFFFFFFFFFFFFFFFFFFFFFFFFFFFFFF MUL NOT AND SWAP1 DUP4 PUSH20 0xFFFFFFFFFFFFFFFFFFFFFFFFFFFFFFFFFFFFFFFF AND MUL OR SWAP1 SSTORE POP DUP1 DUP3 PUSH20 0xFFFFFFFFFFFFFFFFFFFFFFFFFFFFFFFFFFFFFFFF AND DUP5 PUSH20 0xFFFFFFFFFFFFFFFFFFFFFFFFFFFFFFFFFFFFFFFF AND PUSH32 0xDDF252AD1BE2C89B69C2B068FC378DAA952BA7F163C4A11628F55A4DF523B3EF PUSH1 0x40 MLOAD PUSH1 0x40 MLOAD DUP1 SWAP2 SUB SWAP1 LOG4 PUSH2 0x10CE DUP4 DUP4 DUP4 PUSH2 0x158B JUMP JUMPDEST POP POP POP JUMP JUMPDEST PUSH1 0x1 DUP2 PUSH1 0x0 ADD PUSH1 0x0 DUP3 DUP3 SLOAD ADD SWAP3 POP POP DUP2 SWAP1 SSTORE POP POP JUMP JUMPDEST PUSH1 0x0 DUP2 PUSH1 0x0 ADD SLOAD SWAP1 POP SWAP2 SWAP1 POP JUMP JUMPDEST PUSH2 0x1113 DUP5 DUP5 DUP5 DUP5 PUSH1 0x40 MLOAD DUP1 PUSH1 0x20 ADD PUSH1 0x40 MSTORE DUP1 PUSH1 0x0 DUP2 MSTORE POP PUSH2 0x1590 JUMP JUMPDEST POP POP POP POP JUMP JUMPDEST PUSH2 0x1122 DUP3 PUSH2 0x1356 JUMP JUMPDEST PUSH2 0x1161 JUMPI PUSH1 0x40 MLOAD PUSH32 0x8C379A000000000000000000000000000000000000000000000000000000000 DUP2 MSTORE PUSH1 0x4 ADD PUSH2 0x1158 SWAP1 PUSH2 0x264E JUMP JUMPDEST PUSH1 0x40 MLOAD DUP1 SWAP2 SUB SWAP1 REVERT JUMPDEST DUP1 PUSH1 0x9 PUSH1 0x0 DUP5 DUP2 MSTORE PUSH1 0x20 ADD SWAP1 DUP2 MSTORE PUSH1 0x20 ADD PUSH1 0x0 KECCAK256 SWAP1 DUP1 MLOAD SWAP1 PUSH1 0x20 ADD SWAP1 PUSH2 0x1188 SWAP3 SWAP2 SWAP1 PUSH2 0x1A15 JUMP JUMPDEST POP POP POP JUMP JUMPDEST DUP2 PUSH20 0xFFFFFFFFFFFFFFFFFFFFFFFFFFFFFFFFFFFFFFFF AND DUP4 PUSH20 0xFFFFFFFFFFFFFFFFFFFFFFFFFFFFFFFFFFFFFFFF AND EQ ISZERO PUSH2 0x11FC JUMPI PUSH1 0x40 MLOAD PUSH32 0x8C379A000000000000000000000000000000000000000000000000000000000 DUP2 MSTORE PUSH1 0x4 ADD PUSH2 0x11F3 SWAP1 PUSH2 0x260E JUMP JUMPDEST PUSH1 0x40 MLOAD DUP1 SWAP2 SUB SWAP1 REVERT JUMPDEST DUP1 PUSH1 0x8 PUSH1 0x0 DUP6 PUSH20 0xFFFFFFFFFFFFFFFFFFFFFFFFFFFFFFFFFFFFFFFF AND PUSH20 0xFFFFFFFFFFFFFFFFFFFFFFFFFFFFFFFFFFFFFFFF AND DUP2 MSTORE PUSH1 0x20 ADD SWAP1 DUP2 MSTORE PUSH1 0x20 ADD PUSH1 0x0 KECCAK256 PUSH1 0x0 DUP5 PUSH20 0xFFFFFFFFFFFFFFFFFFFFFFFFFFFFFFFFFFFFFFFF AND PUSH20 0xFFFFFFFFFFFFFFFFFFFFFFFFFFFFFFFFFFFFFFFF AND DUP2 MSTORE PUSH1 0x20 ADD SWAP1 DUP2 MSTORE PUSH1 0x20 ADD PUSH1 0x0 KECCAK256 PUSH1 0x0 PUSH2 0x100 EXP DUP2 SLOAD DUP2 PUSH1 0xFF MUL NOT AND SWAP1 DUP4 ISZERO ISZERO MUL OR SWAP1 SSTORE POP DUP2 PUSH20 0xFFFFFFFFFFFFFFFFFFFFFFFFFFFFFFFFFFFFFFFF AND DUP4 PUSH20 0xFFFFFFFFFFFFFFFFFFFFFFFFFFFFFFFFFFFFFFFF AND PUSH32 0x17307EAB39AB6107E8899845AD3D59BD9653F200F220920489CA2B5937696C31 DUP4 PUSH1 0x40 MLOAD PUSH2 0x12ED SWAP2 SWAP1 PUSH2 0x2531 JUMP JUMPDEST PUSH1 0x40 MLOAD DUP1 SWAP2 SUB SWAP1 LOG3 POP POP POP JUMP JUMPDEST PUSH2 0x1305 DUP5 DUP5 DUP5 PUSH2 0xDDD JUMP JUMPDEST PUSH2 0x1311 DUP5 DUP5 DUP5 DUP5 PUSH2 0x15EF JUMP JUMPDEST PUSH2 0x1350 JUMPI PUSH1 0x40 MLOAD PUSH32 0x8C379A000000000000000000000000000000000000000000000000000000000 DUP2 MSTORE PUSH1 0x4 ADD PUSH2 0x1347 SWAP1 PUSH2 0x258E JUMP JUMPDEST PUSH1 0x40 MLOAD DUP1 SWAP2 SUB SWAP1 REVERT JUMPDEST POP POP POP POP JUMP JUMPDEST PUSH1 0x0 DUP1 PUSH20 0xFFFFFFFFFFFFFFFFFFFFFFFFFFFFFFFFFFFFFFFF AND PUSH1 0x3 PUSH1 0x0 DUP5 DUP2 MSTORE PUSH1 0x20 ADD SWAP1 DUP2 MSTORE PUSH1 0x20 ADD PUSH1 0x0 KECCAK256 PUSH1 0x0 SWAP1 SLOAD SWAP1 PUSH2 0x100 EXP SWAP1 DIV PUSH20 0xFFFFFFFFFFFFFFFFFFFFFFFFFFFFFFFFFFFFFFFF AND PUSH20 0xFFFFFFFFFFFFFFFFFFFFFFFFFFFFFFFFFFFFFFFF AND EQ ISZERO SWAP1 POP SWAP2 SWAP1 POP JUMP JUMPDEST PUSH1 0x60 PUSH1 0x40 MLOAD DUP1 PUSH1 0x20 ADD PUSH1 0x40 MSTORE DUP1 PUSH1 0x0 DUP2 MSTORE POP SWAP1 POP SWAP1 JUMP JUMPDEST PUSH1 0x60 PUSH1 0x0 DUP3 EQ ISZERO PUSH2 0x1421 JUMPI PUSH1 0x40 MLOAD DUP1 PUSH1 0x40 ADD PUSH1 0x40 MSTORE DUP1 PUSH1 0x1 DUP2 MSTORE PUSH1 0x20 ADD PUSH32 0x3000000000000000000000000000000000000000000000000000000000000000 DUP2 MSTORE POP SWAP1 POP PUSH2 0x1581 JUMP JUMPDEST PUSH1 0x0 DUP3 SWAP1 POP PUSH1 0x0 JUMPDEST PUSH1 0x0 DUP3 EQ PUSH2 0x1453 JUMPI DUP1 DUP1 PUSH2 0x143C SWAP1 PUSH2 0x2A91 JUMP JUMPDEST SWAP2 POP POP PUSH1 0xA DUP3 PUSH2 0x144C SWAP2 SWAP1 PUSH2 0x2913 JUMP JUMPDEST SWAP2 POP PUSH2 0x1429 JUMP JUMPDEST PUSH1 0x0 DUP2 PUSH8 0xFFFFFFFFFFFFFFFF DUP2 GT ISZERO PUSH2 0x1495 JUMPI PUSH32 0x4E487B7100000000000000000000000000000000000000000000000000000000 PUSH1 0x0 MSTORE PUSH1 0x41 PUSH1 0x4 MSTORE PUSH1 0x24 PUSH1 0x0 REVERT JUMPDEST PUSH1 0x40 MLOAD SWAP1 DUP1 DUP3 MSTORE DUP1 PUSH1 0x1F ADD PUSH1 0x1F NOT AND PUSH1 0x20 ADD DUP3 ADD PUSH1 0x40 MSTORE DUP1 ISZERO PUSH2 0x14C7 JUMPI DUP2 PUSH1 0x20 ADD PUSH1 0x1 DUP3 MUL DUP1 CALLDATASIZE DUP4 CALLDATACOPY DUP1 DUP3 ADD SWAP2 POP POP SWAP1 POP JUMPDEST POP SWAP1 POP JUMPDEST PUSH1 0x0 DUP6 EQ PUSH2 0x157A JUMPI PUSH1 0x1 DUP3 PUSH2 0x14E0 SWAP2 SWAP1 PUSH2 0x2944 JUMP JUMPDEST SWAP2 POP PUSH1 0xA DUP6 PUSH2 0x14EF SWAP2 SWAP1 PUSH2 0x2ADA JUMP JUMPDEST PUSH1 0x30 PUSH2 0x14FB SWAP2 SWAP1 PUSH2 0x28BD JUMP JUMPDEST PUSH1 0xF8 SHL DUP2 DUP4 DUP2 MLOAD DUP2 LT PUSH2 0x1537 JUMPI PUSH32 0x4E487B7100000000000000000000000000000000000000000000000000000000 PUSH1 0x0 MSTORE PUSH1 0x32 PUSH1 0x4 MSTORE PUSH1 0x24 PUSH1 0x0 REVERT JUMPDEST PUSH1 0x20 ADD ADD SWAP1 PUSH31 0xFFFFFFFFFFFFFFFFFFFFFFFFFFFFFFFFFFFFFFFFFFFFFFFFFFFFFFFFFFFFFF NOT AND SWAP1 DUP2 PUSH1 0x0 BYTE SWAP1 MSTORE8 POP PUSH1 0xA DUP6 PUSH2 0x1573 SWAP2 SWAP1 PUSH2 0x2913 JUMP JUMPDEST SWAP5 POP PUSH2 0x14CB JUMP JUMPDEST DUP1 SWAP4 POP POP POP POP JUMPDEST SWAP2 SWAP1 POP JUMP JUMPDEST POP POP POP JUMP JUMPDEST POP POP POP JUMP JUMPDEST PUSH2 0x159C DUP6 DUP6 DUP6 DUP6 PUSH2 0x1786 JUMP JUMPDEST PUSH2 0x15A9 PUSH1 0x0 DUP7 DUP5 DUP5 PUSH2 0x15EF JUMP JUMPDEST PUSH2 0x15E8 JUMPI PUSH1 0x40 MLOAD PUSH32 0x8C379A000000000000000000000000000000000000000000000000000000000 DUP2 MSTORE PUSH1 0x4 ADD PUSH2 0x15DF SWAP1 PUSH2 0x258E JUMP JUMPDEST PUSH1 0x40 MLOAD DUP1 SWAP2 SUB SWAP1 REVERT JUMPDEST POP POP POP POP POP JUMP JUMPDEST PUSH1 0x0 PUSH2 0x1610 DUP5 PUSH20 0xFFFFFFFFFFFFFFFFFFFFFFFFFFFFFFFFFFFFFFFF AND PUSH2 0x19F2 JUMP JUMPDEST ISZERO PUSH2 0x1779 JUMPI DUP4 PUSH20 0xFFFFFFFFFFFFFFFFFFFFFFFFFFFFFFFFFFFFFFFF AND PUSH4 0x150B7A02 PUSH2 0x1639 PUSH2 0xC87 JUMP JUMPDEST DUP8 DUP7 DUP7 PUSH1 0x40 MLOAD DUP6 PUSH4 0xFFFFFFFF AND PUSH1 0xE0 SHL DUP2 MSTORE PUSH1 0x4 ADD PUSH2 0x165B SWAP5 SWAP4 SWAP3 SWAP2 SWAP1 PUSH2 0x24A1 JUMP JUMPDEST PUSH1 0x20 PUSH1 0x40 MLOAD DUP1 DUP4 SUB DUP2 PUSH1 0x0 DUP8 DUP1 EXTCODESIZE ISZERO DUP1 ISZERO PUSH2 0x1675 JUMPI PUSH1 0x0 DUP1 REVERT JUMPDEST POP GAS CALL SWAP3 POP POP POP DUP1 ISZERO PUSH2 0x16A6 JUMPI POP PUSH1 0x40 MLOAD RETURNDATASIZE PUSH1 0x1F NOT PUSH1 0x1F DUP3 ADD AND DUP3 ADD DUP1 PUSH1 0x40 MSTORE POP DUP2 ADD SWAP1 PUSH2 0x16A3 SWAP2 SWAP1 PUSH2 0x206F JUMP JUMPDEST PUSH1 0x1 JUMPDEST PUSH2 0x1729 JUMPI RETURNDATASIZE DUP1 PUSH1 0x0 DUP2 EQ PUSH2 0x16D6 JUMPI PUSH1 0x40 MLOAD SWAP2 POP PUSH1 0x1F NOT PUSH1 0x3F RETURNDATASIZE ADD AND DUP3 ADD PUSH1 0x40 MSTORE RETURNDATASIZE DUP3 MSTORE RETURNDATASIZE PUSH1 0x0 PUSH1 0x20 DUP5 ADD RETURNDATACOPY PUSH2 0x16DB JUMP JUMPDEST PUSH1 0x60 SWAP2 POP JUMPDEST POP PUSH1 0x0 DUP2 MLOAD EQ ISZERO PUSH2 0x1721 JUMPI PUSH1 0x40 MLOAD PUSH32 0x8C379A000000000000000000000000000000000000000000000000000000000 DUP2 MSTORE PUSH1 0x4 ADD PUSH2 0x1718 SWAP1 PUSH2 0x258E JUMP JUMPDEST PUSH1 0x40 MLOAD DUP1 SWAP2 SUB SWAP1 REVERT JUMPDEST DUP1 MLOAD DUP2 PUSH1 0x20 ADD REVERT JUMPDEST PUSH4 0x150B7A02 PUSH1 0xE0 SHL PUSH28 0xFFFFFFFFFFFFFFFFFFFFFFFFFFFFFFFFFFFFFFFFFFFFFFFFFFFFFFFF NOT AND DUP2 PUSH28 0xFFFFFFFFFFFFFFFFFFFFFFFFFFFFFFFFFFFFFFFFFFFFFFFFFFFFFFFF NOT AND EQ SWAP2 POP POP PUSH2 0x177E JUMP JUMPDEST PUSH1 0x1 SWAP1 POP JUMPDEST SWAP5 SWAP4 POP POP POP POP JUMP JUMPDEST PUSH1 0x0 PUSH20 0xFFFFFFFFFFFFFFFFFFFFFFFFFFFFFFFFFFFFFFFF AND DUP5 PUSH20 0xFFFFFFFFFFFFFFFFFFFFFFFFFFFFFFFFFFFFFFFF AND EQ ISZERO PUSH2 0x17F6 JUMPI PUSH1 0x40 MLOAD PUSH32 0x8C379A000000000000000000000000000000000000000000000000000000000 DUP2 MSTORE PUSH1 0x4 ADD PUSH2 0x17ED SWAP1 PUSH2 0x266E JUMP JUMPDEST PUSH1 0x40 MLOAD DUP1 SWAP2 SUB SWAP1 REVERT JUMPDEST PUSH2 0x17FF DUP2 PUSH2 0x1356 JUMP JUMPDEST ISZERO PUSH2 0x183F JUMPI PUSH1 0x40 MLOAD PUSH32 0x8C379A000000000000000000000000000000000000000000000000000000000 DUP2 MSTORE PUSH1 0x4 ADD PUSH2 0x1836 SWAP1 PUSH2 0x25CE JUMP JUMPDEST PUSH1 0x40 MLOAD DUP1 SWAP2 SUB SWAP1 REVERT JUMPDEST PUSH2 0x184B PUSH1 0x0 DUP6 DUP4 PUSH2 0x1586 JUMP JUMPDEST PUSH2 0x1854 DUP2 PUSH2 0x1356 JUMP JUMPDEST ISZERO PUSH2 0x1894 JUMPI PUSH1 0x40 MLOAD PUSH32 0x8C379A000000000000000000000000000000000000000000000000000000000 DUP2 MSTORE PUSH1 0x4 ADD PUSH2 0x188B SWAP1 PUSH2 0x25CE JUMP JUMPDEST PUSH1 0x40 MLOAD DUP1 SWAP2 SUB SWAP1 REVERT JUMPDEST PUSH1 0x1 PUSH1 0x6 PUSH1 0x0 DUP7 PUSH20 0xFFFFFFFFFFFFFFFFFFFFFFFFFFFFFFFFFFFFFFFF AND PUSH20 0xFFFFFFFFFFFFFFFFFFFFFFFFFFFFFFFFFFFFFFFF AND DUP2 MSTORE PUSH1 0x20 ADD SWAP1 DUP2 MSTORE PUSH1 0x20 ADD PUSH1 0x0 KECCAK256 PUSH1 0x0 DUP3 DUP3 SLOAD ADD SWAP3 POP POP DUP2 SWAP1 SSTORE POP DUP4 PUSH1 0x3 PUSH1 0x0 DUP4 DUP2 MSTORE PUSH1 0x20 ADD SWAP1 DUP2 MSTORE PUSH1 0x20 ADD PUSH1 0x0 KECCAK256 PUSH1 0x0 PUSH2 0x100 EXP DUP2 SLOAD DUP2 PUSH20 0xFFFFFFFFFFFFFFFFFFFFFFFFFFFFFFFFFFFFFFFF MUL NOT AND SWAP1 DUP4 PUSH20 0xFFFFFFFFFFFFFFFFFFFFFFFFFFFFFFFFFFFFFFFF AND MUL OR SWAP1 SSTORE POP DUP3 PUSH1 0x4 PUSH1 0x0 DUP4 DUP2 MSTORE PUSH1 0x20 ADD SWAP1 DUP2 MSTORE PUSH1 0x20 ADD PUSH1 0x0 KECCAK256 SWAP1 DUP1 MLOAD SWAP1 PUSH1 0x20 ADD SWAP1 PUSH2 0x195B SWAP3 SWAP2 SWAP1 PUSH2 0x1A9B JUMP JUMPDEST POP DUP2 PUSH1 0x5 PUSH1 0x0 DUP4 DUP2 MSTORE PUSH1 0x20 ADD SWAP1 DUP2 MSTORE PUSH1 0x20 ADD PUSH1 0x0 KECCAK256 SWAP1 DUP1 MLOAD SWAP1 PUSH1 0x20 ADD SWAP1 PUSH2 0x1983 SWAP3 SWAP2 SWAP1 PUSH2 0x1B25 JUMP JUMPDEST POP DUP1 DUP5 PUSH20 0xFFFFFFFFFFFFFFFFFFFFFFFFFFFFFFFFFFFFFFFF AND PUSH1 0x0 PUSH20 0xFFFFFFFFFFFFFFFFFFFFFFFFFFFFFFFFFFFFFFFF AND PUSH32 0xDDF252AD1BE2C89B69C2B068FC378DAA952BA7F163C4A11628F55A4DF523B3EF PUSH1 0x40 MLOAD PUSH1 0x40 MLOAD DUP1 SWAP2 SUB SWAP1 LOG4 PUSH2 0x19EC PUSH1 0x0 DUP6 DUP4 PUSH2 0x158B JUMP JUMPDEST POP POP POP POP JUMP JUMPDEST PUSH1 0x0 DUP1 DUP3 PUSH20 0xFFFFFFFFFFFFFFFFFFFFFFFFFFFFFFFFFFFFFFFF AND EXTCODESIZE GT SWAP1 POP SWAP2 SWAP1 POP JUMP JUMPDEST DUP3 DUP1 SLOAD PUSH2 0x1A21 SWAP1 PUSH2 0x2A2E JUMP JUMPDEST SWAP1 PUSH1 0x0 MSTORE PUSH1 0x20 PUSH1 0x0 KECCAK256 SWAP1 PUSH1 0x1F ADD PUSH1 0x20 SWAP1 DIV DUP2 ADD SWAP3 DUP3 PUSH2 0x1A43 JUMPI PUSH1 0x0 DUP6 SSTORE PUSH2 0x1A8A JUMP JUMPDEST DUP3 PUSH1 0x1F LT PUSH2 0x1A5C JUMPI DUP1 MLOAD PUSH1 0xFF NOT AND DUP4 DUP1 ADD OR DUP6 SSTORE PUSH2 0x1A8A JUMP JUMPDEST DUP3 DUP1 ADD PUSH1 0x1 ADD DUP6 SSTORE DUP3 ISZERO PUSH2 0x1A8A JUMPI SWAP2 DUP3 ADD JUMPDEST DUP3 DUP2 GT ISZERO PUSH2 0x1A89 JUMPI DUP3 MLOAD DUP3 SSTORE SWAP2 PUSH1 0x20 ADD SWAP2 SWAP1 PUSH1 0x1 ADD SWAP1 PUSH2 0x1A6E JUMP JUMPDEST JUMPDEST POP SWAP1 POP PUSH2 0x1A97 SWAP2 SWAP1 PUSH2 0x1B72 JUMP JUMPDEST POP SWAP1 JUMP JUMPDEST DUP3 DUP1 SLOAD DUP3 DUP3 SSTORE SWAP1 PUSH1 0x0 MSTORE PUSH1 0x20 PUSH1 0x0 KECCAK256 SWAP1 DUP2 ADD SWAP3 DUP3 ISZERO PUSH2 0x1B14 JUMPI SWAP2 PUSH1 0x20 MUL DUP3 ADD JUMPDEST DUP3 DUP2 GT ISZERO PUSH2 0x1B13 JUMPI DUP3 MLOAD DUP3 PUSH1 0x0 PUSH2 0x100 EXP DUP2 SLOAD DUP2 PUSH20 0xFFFFFFFFFFFFFFFFFFFFFFFFFFFFFFFFFFFFFFFF MUL NOT AND SWAP1 DUP4 PUSH20 0xFFFFFFFFFFFFFFFFFFFFFFFFFFFFFFFFFFFFFFFF AND MUL OR SWAP1 SSTORE POP SWAP2 PUSH1 0x20 ADD SWAP2 SWAP1 PUSH1 0x1 ADD SWAP1 PUSH2 0x1ABB JUMP JUMPDEST JUMPDEST POP SWAP1 POP PUSH2 0x1B21 SWAP2 SWAP1 PUSH2 0x1B72 JUMP JUMPDEST POP SWAP1 JUMP JUMPDEST DUP3 DUP1 SLOAD DUP3 DUP3 SSTORE SWAP1 PUSH1 0x0 MSTORE PUSH1 0x20 PUSH1 0x0 KECCAK256 SWAP1 DUP2 ADD SWAP3 DUP3 ISZERO PUSH2 0x1B61 JUMPI SWAP2 PUSH1 0x20 MUL DUP3 ADD JUMPDEST DUP3 DUP2 GT ISZERO PUSH2 0x1B60 JUMPI DUP3 MLOAD DUP3 SSTORE SWAP2 PUSH1 0x20 ADD SWAP2 SWAP1 PUSH1 0x1 ADD SWAP1 PUSH2 0x1B45 JUMP JUMPDEST JUMPDEST POP SWAP1 POP PUSH2 0x1B6E SWAP2 SWAP1 PUSH2 0x1B72 JUMP JUMPDEST POP SWAP1 JUMP JUMPDEST JUMPDEST DUP1 DUP3 GT ISZERO PUSH2 0x1B8B JUMPI PUSH1 0x0 DUP2 PUSH1 0x0 SWAP1 SSTORE POP PUSH1 0x1 ADD PUSH2 0x1B73 JUMP JUMPDEST POP SWAP1 JUMP JUMPDEST PUSH1 0x0 PUSH2 0x1BA2 PUSH2 0x1B9D DUP5 PUSH2 0x274E JUMP JUMPDEST PUSH2 0x2729 JUMP JUMPDEST SWAP1 POP DUP1 DUP4 DUP3 MSTORE PUSH1 0x20 DUP3 ADD SWAP1 POP DUP3 DUP6 PUSH1 0x20 DUP7 MUL DUP3 ADD GT ISZERO PUSH2 0x1BC1 JUMPI PUSH1 0x0 DUP1 REVERT JUMPDEST PUSH1 0x0 JUMPDEST DUP6 DUP2 LT ISZERO PUSH2 0x1BF1 JUMPI DUP2 PUSH2 0x1BD7 DUP9 DUP3 PUSH2 0x1CE3 JUMP JUMPDEST DUP5 MSTORE PUSH1 0x20 DUP5 ADD SWAP4 POP PUSH1 0x20 DUP4 ADD SWAP3 POP POP PUSH1 0x1 DUP2 ADD SWAP1 POP PUSH2 0x1BC4 JUMP JUMPDEST POP POP POP SWAP4 SWAP3 POP POP POP JUMP JUMPDEST PUSH1 0x0 PUSH2 0x1C0E PUSH2 0x1C09 DUP5 PUSH2 0x277A JUMP JUMPDEST PUSH2 0x2729 JUMP JUMPDEST SWAP1 POP DUP1 DUP4 DUP3 MSTORE PUSH1 0x20 DUP3 ADD SWAP1 POP DUP3 DUP6 PUSH1 0x20 DUP7 MUL DUP3 ADD GT ISZERO PUSH2 0x1C2D JUMPI PUSH1 0x0 DUP1 REVERT JUMPDEST PUSH1 0x0 JUMPDEST DUP6 DUP2 LT ISZERO PUSH2 0x1C5D JUMPI DUP2 PUSH2 0x1C43 DUP9 DUP3 PUSH2 0x1DDF JUMP JUMPDEST DUP5 MSTORE PUSH1 0x20 DUP5 ADD SWAP4 POP PUSH1 0x20 DUP4 ADD SWAP3 POP POP PUSH1 0x1 DUP2 ADD SWAP1 POP PUSH2 0x1C30 JUMP JUMPDEST POP POP POP SWAP4 SWAP3 POP POP POP JUMP JUMPDEST PUSH1 0x0 PUSH2 0x1C7A PUSH2 0x1C75 DUP5 PUSH2 0x27A6 JUMP JUMPDEST PUSH2 0x2729 JUMP JUMPDEST SWAP1 POP DUP3 DUP2 MSTORE PUSH1 0x20 DUP2 ADD DUP5 DUP5 DUP5 ADD GT ISZERO PUSH2 0x1C92 JUMPI PUSH1 0x0 DUP1 REVERT JUMPDEST PUSH2 0x1C9D DUP5 DUP3 DUP6 PUSH2 0x29EC JUMP JUMPDEST POP SWAP4 SWAP3 POP POP POP JUMP JUMPDEST PUSH1 0x0 PUSH2 0x1CB8 PUSH2 0x1CB3 DUP5 PUSH2 0x27D7 JUMP JUMPDEST PUSH2 0x2729 JUMP JUMPDEST SWAP1 POP DUP3 DUP2 MSTORE PUSH1 0x20 DUP2 ADD DUP5 DUP5 DUP5 ADD GT ISZERO PUSH2 0x1CD0 JUMPI PUSH1 0x0 DUP1 REVERT JUMPDEST PUSH2 0x1CDB DUP5 DUP3 DUP6 PUSH2 0x29EC JUMP JUMPDEST POP SWAP4 SWAP3 POP POP POP JUMP JUMPDEST PUSH1 0x0 DUP2 CALLDATALOAD SWAP1 POP PUSH2 0x1CF2 DUP2 PUSH2 0x2F43 JUMP JUMPDEST SWAP3 SWAP2 POP POP JUMP JUMPDEST PUSH1 0x0 DUP3 PUSH1 0x1F DUP4 ADD SLT PUSH2 0x1D09 JUMPI PUSH1 0x0 DUP1 REVERT JUMPDEST DUP2 CALLDATALOAD PUSH2 0x1D19 DUP5 DUP3 PUSH1 0x20 DUP7 ADD PUSH2 0x1B8F JUMP JUMPDEST SWAP2 POP POP SWAP3 SWAP2 POP POP JUMP JUMPDEST PUSH1 0x0 DUP3 PUSH1 0x1F DUP4 ADD SLT PUSH2 0x1D33 JUMPI PUSH1 0x0 DUP1 REVERT JUMPDEST DUP2 CALLDATALOAD PUSH2 0x1D43 DUP5 DUP3 PUSH1 0x20 DUP7 ADD PUSH2 0x1BFB JUMP JUMPDEST SWAP2 POP POP SWAP3 SWAP2 POP POP JUMP JUMPDEST PUSH1 0x0 DUP2 CALLDATALOAD SWAP1 POP PUSH2 0x1D5B DUP2 PUSH2 0x2F5A JUMP JUMPDEST SWAP3 SWAP2 POP POP JUMP JUMPDEST PUSH1 0x0 DUP2 CALLDATALOAD SWAP1 POP PUSH2 0x1D70 DUP2 PUSH2 0x2F71 JUMP JUMPDEST SWAP3 SWAP2 POP POP JUMP JUMPDEST PUSH1 0x0 DUP2 MLOAD SWAP1 POP PUSH2 0x1D85 DUP2 PUSH2 0x2F71 JUMP JUMPDEST SWAP3 SWAP2 POP POP JUMP JUMPDEST PUSH1 0x0 DUP3 PUSH1 0x1F DUP4 ADD SLT PUSH2 0x1D9C JUMPI PUSH1 0x0 DUP1 REVERT JUMPDEST DUP2 CALLDATALOAD PUSH2 0x1DAC DUP5 DUP3 PUSH1 0x20 DUP7 ADD PUSH2 0x1C67 JUMP JUMPDEST SWAP2 POP POP SWAP3 SWAP2 POP POP JUMP JUMPDEST PUSH1 0x0 DUP3 PUSH1 0x1F DUP4 ADD SLT PUSH2 0x1DC6 JUMPI PUSH1 0x0 DUP1 REVERT JUMPDEST DUP2 CALLDATALOAD PUSH2 0x1DD6 DUP5 DUP3 PUSH1 0x20 DUP7 ADD PUSH2 0x1CA5 JUMP JUMPDEST SWAP2 POP POP SWAP3 SWAP2 POP POP JUMP JUMPDEST PUSH1 0x0 DUP2 CALLDATALOAD SWAP1 POP PUSH2 0x1DEE DUP2 PUSH2 0x2F88 JUMP JUMPDEST SWAP3 SWAP2 POP POP JUMP JUMPDEST PUSH1 0x0 PUSH1 0x20 DUP3 DUP5 SUB SLT ISZERO PUSH2 0x1E06 JUMPI PUSH1 0x0 DUP1 REVERT JUMPDEST PUSH1 0x0 PUSH2 0x1E14 DUP5 DUP3 DUP6 ADD PUSH2 0x1CE3 JUMP JUMPDEST SWAP2 POP POP SWAP3 SWAP2 POP POP JUMP JUMPDEST PUSH1 0x0 DUP1 PUSH1 0x40 DUP4 DUP6 SUB SLT ISZERO PUSH2 0x1E30 JUMPI PUSH1 0x0 DUP1 REVERT JUMPDEST PUSH1 0x0 PUSH2 0x1E3E DUP6 DUP3 DUP7 ADD PUSH2 0x1CE3 JUMP JUMPDEST SWAP3 POP POP PUSH1 0x20 PUSH2 0x1E4F DUP6 DUP3 DUP7 ADD PUSH2 0x1CE3 JUMP JUMPDEST SWAP2 POP POP SWAP3 POP SWAP3 SWAP1 POP JUMP JUMPDEST PUSH1 0x0 DUP1 PUSH1 0x0 PUSH1 0x60 DUP5 DUP7 SUB SLT ISZERO PUSH2 0x1E6E JUMPI PUSH1 0x0 DUP1 REVERT JUMPDEST PUSH1 0x0 PUSH2 0x1E7C DUP7 DUP3 DUP8 ADD PUSH2 0x1CE3 JUMP JUMPDEST SWAP4 POP POP PUSH1 0x20 PUSH2 0x1E8D DUP7 DUP3 DUP8 ADD PUSH2 0x1CE3 JUMP JUMPDEST SWAP3 POP POP PUSH1 0x40 PUSH2 0x1E9E DUP7 DUP3 DUP8 ADD PUSH2 0x1DDF JUMP JUMPDEST SWAP2 POP POP SWAP3 POP SWAP3 POP SWAP3 JUMP JUMPDEST PUSH1 0x0 DUP1 PUSH1 0x0 DUP1 PUSH1 0x80 DUP6 DUP8 SUB SLT ISZERO PUSH2 0x1EBE JUMPI PUSH1 0x0 DUP1 REVERT JUMPDEST PUSH1 0x0 PUSH2 0x1ECC DUP8 DUP3 DUP9 ADD PUSH2 0x1CE3 JUMP JUMPDEST SWAP5 POP POP PUSH1 0x20 PUSH2 0x1EDD DUP8 DUP3 DUP9 ADD PUSH2 0x1CE3 JUMP JUMPDEST SWAP4 POP POP PUSH1 0x40 PUSH2 0x1EEE DUP8 DUP3 DUP9 ADD PUSH2 0x1DDF JUMP JUMPDEST SWAP3 POP POP PUSH1 0x60 DUP6 ADD CALLDATALOAD PUSH8 0xFFFFFFFFFFFFFFFF DUP2 GT ISZERO PUSH2 0x1F0B JUMPI PUSH1 0x0 DUP1 REVERT JUMPDEST PUSH2 0x1F17 DUP8 DUP3 DUP9 ADD PUSH2 0x1D8B JUMP JUMPDEST SWAP2 POP POP SWAP3 SWAP6 SWAP2 SWAP5 POP SWAP3 POP JUMP JUMPDEST PUSH1 0x0 DUP1 PUSH1 0x0 DUP1 PUSH1 0x80 DUP6 DUP8 SUB SLT ISZERO PUSH2 0x1F39 JUMPI PUSH1 0x0 DUP1 REVERT JUMPDEST PUSH1 0x0 PUSH2 0x1F47 DUP8 DUP3 DUP9 ADD PUSH2 0x1CE3 JUMP JUMPDEST SWAP5 POP POP PUSH1 0x20 DUP6 ADD CALLDATALOAD PUSH8 0xFFFFFFFFFFFFFFFF DUP2 GT ISZERO PUSH2 0x1F64 JUMPI PUSH1 0x0 DUP1 REVERT JUMPDEST PUSH2 0x1F70 DUP8 DUP3 DUP9 ADD PUSH2 0x1CF8 JUMP JUMPDEST SWAP4 POP POP PUSH1 0x40 DUP6 ADD CALLDATALOAD PUSH8 0xFFFFFFFFFFFFFFFF DUP2 GT ISZERO PUSH2 0x1F8D JUMPI PUSH1 0x0 DUP1 REVERT JUMPDEST PUSH2 0x1F99 DUP8 DUP3 DUP9 ADD PUSH2 0x1D22 JUMP JUMPDEST SWAP3 POP POP PUSH1 0x60 DUP6 ADD CALLDATALOAD PUSH8 0xFFFFFFFFFFFFFFFF DUP2 GT ISZERO PUSH2 0x1FB6 JUMPI PUSH1 0x0 DUP1 REVERT JUMPDEST PUSH2 0x1FC2 DUP8 DUP3 DUP9 ADD PUSH2 0x1DB5 JUMP JUMPDEST SWAP2 POP POP SWAP3 SWAP6 SWAP2 SWAP5 POP SWAP3 POP JUMP JUMPDEST PUSH1 0x0 DUP1 PUSH1 0x40 DUP4 DUP6 SUB SLT ISZERO PUSH2 0x1FE1 JUMPI PUSH1 0x0 DUP1 REVERT JUMPDEST PUSH1 0x0 PUSH2 0x1FEF DUP6 DUP3 DUP7 ADD PUSH2 0x1CE3 JUMP JUMPDEST SWAP3 POP POP PUSH1 0x20 PUSH2 0x2000 DUP6 DUP3 DUP7 ADD PUSH2 0x1D4C JUMP JUMPDEST SWAP2 POP POP SWAP3 POP SWAP3 SWAP1 POP JUMP JUMPDEST PUSH1 0x0 DUP1 PUSH1 0x40 DUP4 DUP6 SUB SLT ISZERO PUSH2 0x201D JUMPI PUSH1 0x0 DUP1 REVERT JUMPDEST PUSH1 0x0 PUSH2 0x202B DUP6 DUP3 DUP7 ADD PUSH2 0x1CE3 JUMP JUMPDEST SWAP3 POP POP PUSH1 0x20 PUSH2 0x203C DUP6 DUP3 DUP7 ADD PUSH2 0x1DDF JUMP JUMPDEST SWAP2 POP POP SWAP3 POP SWAP3 SWAP1 POP JUMP JUMPDEST PUSH1 0x0 PUSH1 0x20 DUP3 DUP5 SUB SLT ISZERO PUSH2 0x2058 JUMPI PUSH1 0x0 DUP1 REVERT JUMPDEST PUSH1 0x0 PUSH2 0x2066 DUP5 DUP3 DUP6 ADD PUSH2 0x1D61 JUMP JUMPDEST SWAP2 POP POP SWAP3 SWAP2 POP POP JUMP JUMPDEST PUSH1 0x0 PUSH1 0x20 DUP3 DUP5 SUB SLT ISZERO PUSH2 0x2081 JUMPI PUSH1 0x0 DUP1 REVERT JUMPDEST PUSH1 0x0 PUSH2 0x208F DUP5 DUP3 DUP6 ADD PUSH2 0x1D76 JUMP JUMPDEST SWAP2 POP POP SWAP3 SWAP2 POP POP JUMP JUMPDEST PUSH1 0x0 PUSH1 0x20 DUP3 DUP5 SUB SLT ISZERO PUSH2 0x20AA JUMPI PUSH1 0x0 DUP1 REVERT JUMPDEST PUSH1 0x0 PUSH2 0x20B8 DUP5 DUP3 DUP6 ADD PUSH2 0x1DDF JUMP JUMPDEST SWAP2 POP POP SWAP3 SWAP2 POP POP JUMP JUMPDEST PUSH1 0x0 PUSH2 0x20CD DUP4 DUP4 PUSH2 0x20F1 JUMP JUMPDEST PUSH1 0x20 DUP4 ADD SWAP1 POP SWAP3 SWAP2 POP POP JUMP JUMPDEST PUSH1 0x0 PUSH2 0x20E5 DUP4 DUP4 PUSH2 0x2444 JUMP JUMPDEST PUSH1 0x20 DUP4 ADD SWAP1 POP SWAP3 SWAP2 POP POP JUMP JUMPDEST PUSH2 0x20FA DUP2 PUSH2 0x2978 JUMP JUMPDEST DUP3 MSTORE POP POP JUMP JUMPDEST PUSH2 0x2109 DUP2 PUSH2 0x2978 JUMP JUMPDEST DUP3 MSTORE POP POP JUMP JUMPDEST PUSH1 0x0 PUSH2 0x211A DUP3 PUSH2 0x2828 JUMP JUMPDEST PUSH2 0x2124 DUP2 DUP6 PUSH2 0x286E JUMP JUMPDEST SWAP4 POP PUSH2 0x212F DUP4 PUSH2 0x2808 JUMP JUMPDEST DUP1 PUSH1 0x0 JUMPDEST DUP4 DUP2 LT ISZERO PUSH2 0x2160 JUMPI DUP2 MLOAD PUSH2 0x2147 DUP9 DUP3 PUSH2 0x20C1 JUMP JUMPDEST SWAP8 POP PUSH2 0x2152 DUP4 PUSH2 0x2854 JUMP JUMPDEST SWAP3 POP POP PUSH1 0x1 DUP2 ADD SWAP1 POP PUSH2 0x2133 JUMP JUMPDEST POP DUP6 SWAP4 POP POP POP POP SWAP3 SWAP2 POP POP JUMP JUMPDEST PUSH1 0x0 PUSH2 0x2178 DUP3 PUSH2 0x2833 JUMP JUMPDEST PUSH2 0x2182 DUP2 DUP6 PUSH2 0x287F JUMP JUMPDEST SWAP4 POP PUSH2 0x218D DUP4 PUSH2 0x2818 JUMP JUMPDEST DUP1 PUSH1 0x0 JUMPDEST DUP4 DUP2 LT ISZERO PUSH2 0x21BE JUMPI DUP2 MLOAD PUSH2 0x21A5 DUP9 DUP3 PUSH2 0x20D9 JUMP JUMPDEST SWAP8 POP PUSH2 0x21B0 DUP4 PUSH2 0x2861 JUMP JUMPDEST SWAP3 POP POP PUSH1 0x1 DUP2 ADD SWAP1 POP PUSH2 0x2191 JUMP JUMPDEST POP DUP6 SWAP4 POP POP POP POP SWAP3 SWAP2 POP POP JUMP JUMPDEST PUSH2 0x21D4 DUP2 PUSH2 0x298A JUMP JUMPDEST DUP3 MSTORE POP POP JUMP JUMPDEST PUSH1 0x0 PUSH2 0x21E5 DUP3 PUSH2 0x283E JUMP JUMPDEST PUSH2 0x21EF DUP2 DUP6 PUSH2 0x2890 JUMP JUMPDEST SWAP4 POP PUSH2 0x21FF DUP2 DUP6 PUSH1 0x20 DUP7 ADD PUSH2 0x29FB JUMP JUMPDEST PUSH2 0x2208 DUP2 PUSH2 0x2BC7 JUMP JUMPDEST DUP5 ADD SWAP2 POP POP SWAP3 SWAP2 POP POP JUMP JUMPDEST PUSH1 0x0 PUSH2 0x221E DUP3 PUSH2 0x2849 JUMP JUMPDEST PUSH2 0x2228 DUP2 DUP6 PUSH2 0x28A1 JUMP JUMPDEST SWAP4 POP PUSH2 0x2238 DUP2 DUP6 PUSH1 0x20 DUP7 ADD PUSH2 0x29FB JUMP JUMPDEST PUSH2 0x2241 DUP2 PUSH2 0x2BC7 JUMP JUMPDEST DUP5 ADD SWAP2 POP POP SWAP3 SWAP2 POP POP JUMP JUMPDEST PUSH1 0x0 PUSH2 0x2257 DUP3 PUSH2 0x2849 JUMP JUMPDEST PUSH2 0x2261 DUP2 DUP6 PUSH2 0x28B2 JUMP JUMPDEST SWAP4 POP PUSH2 0x2271 DUP2 DUP6 PUSH1 0x20 DUP7 ADD PUSH2 0x29FB JUMP JUMPDEST DUP1 DUP5 ADD SWAP2 POP POP SWAP3 SWAP2 POP POP JUMP JUMPDEST PUSH1 0x0 PUSH2 0x228A PUSH1 0x2D DUP4 PUSH2 0x28A1 JUMP JUMPDEST SWAP2 POP PUSH2 0x2295 DUP3 PUSH2 0x2BD8 JUMP JUMPDEST PUSH1 0x40 DUP3 ADD SWAP1 POP SWAP2 SWAP1 POP JUMP JUMPDEST PUSH1 0x0 PUSH2 0x22AD PUSH1 0x32 DUP4 PUSH2 0x28A1 JUMP JUMPDEST SWAP2 POP PUSH2 0x22B8 DUP3 PUSH2 0x2C27 JUMP JUMPDEST PUSH1 0x40 DUP3 ADD SWAP1 POP SWAP2 SWAP1 POP JUMP JUMPDEST PUSH1 0x0 PUSH2 0x22D0 PUSH1 0x25 DUP4 PUSH2 0x28A1 JUMP JUMPDEST SWAP2 POP PUSH2 0x22DB DUP3 PUSH2 0x2C76 JUMP JUMPDEST PUSH1 0x40 DUP3 ADD SWAP1 POP SWAP2 SWAP1 POP JUMP JUMPDEST PUSH1 0x0 PUSH2 0x22F3 PUSH1 0x1C DUP4 PUSH2 0x28A1 JUMP JUMPDEST SWAP2 POP PUSH2 0x22FE DUP3 PUSH2 0x2CC5 JUMP JUMPDEST PUSH1 0x20 DUP3 ADD SWAP1 POP SWAP2 SWAP1 POP JUMP JUMPDEST PUSH1 0x0 PUSH2 0x2316 PUSH1 0x24 DUP4 PUSH2 0x28A1 JUMP JUMPDEST SWAP2 POP PUSH2 0x2321 DUP3 PUSH2 0x2CEE JUMP JUMPDEST PUSH1 0x40 DUP3 ADD SWAP1 POP SWAP2 SWAP1 POP JUMP JUMPDEST PUSH1 0x0 PUSH2 0x2339 PUSH1 0x19 DUP4 PUSH2 0x28A1 JUMP JUMPDEST SWAP2 POP PUSH2 0x2344 DUP3 PUSH2 0x2D3D JUMP JUMPDEST PUSH1 0x20 DUP3 ADD SWAP1 POP SWAP2 SWAP1 POP JUMP JUMPDEST PUSH1 0x0 PUSH2 0x235C PUSH1 0x29 DUP4 PUSH2 0x28A1 JUMP JUMPDEST SWAP2 POP PUSH2 0x2367 DUP3 PUSH2 0x2D66 JUMP JUMPDEST PUSH1 0x40 DUP3 ADD SWAP1 POP SWAP2 SWAP1 POP JUMP JUMPDEST PUSH1 0x0 PUSH2 0x237F PUSH1 0x2E DUP4 PUSH2 0x28A1 JUMP JUMPDEST SWAP2 POP PUSH2 0x238A DUP3 PUSH2 0x2DB5 JUMP JUMPDEST PUSH1 0x40 DUP3 ADD SWAP1 POP SWAP2 SWAP1 POP JUMP JUMPDEST PUSH1 0x0 PUSH2 0x23A2 PUSH1 0x20 DUP4 PUSH2 0x28A1 JUMP JUMPDEST SWAP2 POP PUSH2 0x23AD DUP3 PUSH2 0x2E04 JUMP JUMPDEST PUSH1 0x20 DUP3 ADD SWAP1 POP SWAP2 SWAP1 POP JUMP JUMPDEST PUSH1 0x0 PUSH2 0x23C5 PUSH1 0x2F DUP4 PUSH2 0x28A1 JUMP JUMPDEST SWAP2 POP PUSH2 0x23D0 DUP3 PUSH2 0x2E2D JUMP JUMPDEST PUSH1 0x40 DUP3 ADD SWAP1 POP SWAP2 SWAP1 POP JUMP JUMPDEST PUSH1 0x0 PUSH2 0x23E8 PUSH1 0x18 DUP4 PUSH2 0x28A1 JUMP JUMPDEST SWAP2 POP PUSH2 0x23F3 DUP3 PUSH2 0x2E7C JUMP JUMPDEST PUSH1 0x20 DUP3 ADD SWAP1 POP SWAP2 SWAP1 POP JUMP JUMPDEST PUSH1 0x0 PUSH2 0x240B PUSH1 0x21 DUP4 PUSH2 0x28A1 JUMP JUMPDEST SWAP2 POP PUSH2 0x2416 DUP3 PUSH2 0x2EA5 JUMP JUMPDEST PUSH1 0x40 DUP3 ADD SWAP1 POP SWAP2 SWAP1 POP JUMP JUMPDEST PUSH1 0x0 PUSH2 0x242E PUSH1 0x3D DUP4 PUSH2 0x28A1 JUMP JUMPDEST SWAP2 POP PUSH2 0x2439 DUP3 PUSH2 0x2EF4 JUMP JUMPDEST PUSH1 0x40 DUP3 ADD SWAP1 POP SWAP2 SWAP1 POP JUMP JUMPDEST PUSH2 0x244D DUP2 PUSH2 0x29E2 JUMP JUMPDEST DUP3 MSTORE POP POP JUMP JUMPDEST PUSH2 0x245C DUP2 PUSH2 0x29E2 JUMP JUMPDEST DUP3 MSTORE POP POP JUMP JUMPDEST PUSH1 0x0 PUSH2 0x246E DUP3 DUP6 PUSH2 0x224C JUMP JUMPDEST SWAP2 POP PUSH2 0x247A DUP3 DUP5 PUSH2 0x224C JUMP JUMPDEST SWAP2 POP DUP2 SWAP1 POP SWAP4 SWAP3 POP POP POP JUMP JUMPDEST PUSH1 0x0 PUSH1 0x20 DUP3 ADD SWAP1 POP PUSH2 0x249B PUSH1 0x0 DUP4 ADD DUP5 PUSH2 0x2100 JUMP JUMPDEST SWAP3 SWAP2 POP POP JUMP JUMPDEST PUSH1 0x0 PUSH1 0x80 DUP3 ADD SWAP1 POP PUSH2 0x24B6 PUSH1 0x0 DUP4 ADD DUP8 PUSH2 0x2100 JUMP JUMPDEST PUSH2 0x24C3 PUSH1 0x20 DUP4 ADD DUP7 PUSH2 0x2100 JUMP JUMPDEST PUSH2 0x24D0 PUSH1 0x40 DUP4 ADD DUP6 PUSH2 0x2453 JUMP JUMPDEST DUP2 DUP2 SUB PUSH1 0x60 DUP4 ADD MSTORE PUSH2 0x24E2 DUP2 DUP5 PUSH2 0x21DA JUMP JUMPDEST SWAP1 POP SWAP6 SWAP5 POP POP POP POP POP JUMP JUMPDEST PUSH1 0x0 PUSH1 0x20 DUP3 ADD SWAP1 POP DUP2 DUP2 SUB PUSH1 0x0 DUP4 ADD MSTORE PUSH2 0x2507 DUP2 DUP5 PUSH2 0x210F JUMP JUMPDEST SWAP1 POP SWAP3 SWAP2 POP POP JUMP JUMPDEST PUSH1 0x0 PUSH1 0x20 DUP3 ADD SWAP1 POP DUP2 DUP2 SUB PUSH1 0x0 DUP4 ADD MSTORE PUSH2 0x2529 DUP2 DUP5 PUSH2 0x216D JUMP JUMPDEST SWAP1 POP SWAP3 SWAP2 POP POP JUMP JUMPDEST PUSH1 0x0 PUSH1 0x20 DUP3 ADD SWAP1 POP PUSH2 0x2546 PUSH1 0x0 DUP4 ADD DUP5 PUSH2 0x21CB JUMP JUMPDEST SWAP3 SWAP2 POP POP JUMP JUMPDEST PUSH1 0x0 PUSH1 0x20 DUP3 ADD SWAP1 POP DUP2 DUP2 SUB PUSH1 0x0 DUP4 ADD MSTORE PUSH2 0x2566 DUP2 DUP5 PUSH2 0x2213 JUMP JUMPDEST SWAP1 POP SWAP3 SWAP2 POP POP JUMP JUMPDEST PUSH1 0x0 PUSH1 0x20 DUP3 ADD SWAP1 POP DUP2 DUP2 SUB PUSH1 0x0 DUP4 ADD MSTORE PUSH2 0x2587 DUP2 PUSH2 0x227D JUMP JUMPDEST SWAP1 POP SWAP2 SWAP1 POP JUMP JUMPDEST PUSH1 0x0 PUSH1 0x20 DUP3 ADD SWAP1 POP DUP2 DUP2 SUB PUSH1 0x0 DUP4 ADD MSTORE PUSH2 0x25A7 DUP2 PUSH2 0x22A0 JUMP JUMPDEST SWAP1 POP SWAP2 SWAP1 POP JUMP JUMPDEST PUSH1 0x0 PUSH1 0x20 DUP3 ADD SWAP1 POP DUP2 DUP2 SUB PUSH1 0x0 DUP4 ADD MSTORE PUSH2 0x25C7 DUP2 PUSH2 0x22C3 JUMP JUMPDEST SWAP1 POP SWAP2 SWAP1 POP JUMP JUMPDEST PUSH1 0x0 PUSH1 0x20 DUP3 ADD SWAP1 POP DUP2 DUP2 SUB PUSH1 0x0 DUP4 ADD MSTORE PUSH2 0x25E7 DUP2 PUSH2 0x22E6 JUMP JUMPDEST SWAP1 POP SWAP2 SWAP1 POP JUMP JUMPDEST PUSH1 0x0 PUSH1 0x20 DUP3 ADD SWAP1 POP DUP2 DUP2 SUB PUSH1 0x0 DUP4 ADD MSTORE PUSH2 0x2607 DUP2 PUSH2 0x2309 JUMP JUMPDEST SWAP1 POP SWAP2 SWAP1 POP JUMP JUMPDEST PUSH1 0x0 PUSH1 0x20 DUP3 ADD SWAP1 POP DUP2 DUP2 SUB PUSH1 0x0 DUP4 ADD MSTORE PUSH2 0x2627 DUP2 PUSH2 0x232C JUMP JUMPDEST SWAP1 POP SWAP2 SWAP1 POP JUMP JUMPDEST PUSH1 0x0 PUSH1 0x20 DUP3 ADD SWAP1 POP DUP2 DUP2 SUB PUSH1 0x0 DUP4 ADD MSTORE PUSH2 0x2647 DUP2 PUSH2 0x234F JUMP JUMPDEST SWAP1 POP SWAP2 SWAP1 POP JUMP JUMPDEST PUSH1 0x0 PUSH1 0x20 DUP3 ADD SWAP1 POP DUP2 DUP2 SUB PUSH1 0x0 DUP4 ADD MSTORE PUSH2 0x2667 DUP2 PUSH2 0x2372 JUMP JUMPDEST SWAP1 POP SWAP2 SWAP1 POP JUMP JUMPDEST PUSH1 0x0 PUSH1 0x20 DUP3 ADD SWAP1 POP DUP2 DUP2 SUB PUSH1 0x0 DUP4 ADD MSTORE PUSH2 0x2687 DUP2 PUSH2 0x2395 JUMP JUMPDEST SWAP1 POP SWAP2 SWAP1 POP JUMP JUMPDEST PUSH1 0x0 PUSH1 0x20 DUP3 ADD SWAP1 POP DUP2 DUP2 SUB PUSH1 0x0 DUP4 ADD MSTORE PUSH2 0x26A7 DUP2 PUSH2 0x23B8 JUMP JUMPDEST SWAP1 POP SWAP2 SWAP1 POP JUMP JUMPDEST PUSH1 0x0 PUSH1 0x20 DUP3 ADD SWAP1 POP DUP2 DUP2 SUB PUSH1 0x0 DUP4 ADD MSTORE PUSH2 0x26C7 DUP2 PUSH2 0x23DB JUMP JUMPDEST SWAP1 POP SWAP2 SWAP1 POP JUMP JUMPDEST PUSH1 0x0 PUSH1 0x20 DUP3 ADD SWAP1 POP DUP2 DUP2 SUB PUSH1 0x0 DUP4 ADD MSTORE PUSH2 0x26E7 DUP2 PUSH2 0x23FE JUMP JUMPDEST SWAP1 POP SWAP2 SWAP1 POP JUMP JUMPDEST PUSH1 0x0 PUSH1 0x20 DUP3 ADD SWAP1 POP DUP2 DUP2 SUB PUSH1 0x0 DUP4 ADD MSTORE PUSH2 0x2707 DUP2 PUSH2 0x2421 JUMP JUMPDEST SWAP1 POP SWAP2 SWAP1 POP JUMP JUMPDEST PUSH1 0x0 PUSH1 0x20 DUP3 ADD SWAP1 POP PUSH2 0x2723 PUSH1 0x0 DUP4 ADD DUP5 PUSH2 0x2453 JUMP JUMPDEST SWAP3 SWAP2 POP POP JUMP JUMPDEST PUSH1 0x0 PUSH2 0x2733 PUSH2 0x2744 JUMP JUMPDEST SWAP1 POP PUSH2 0x273F DUP3 DUP3 PUSH2 0x2A60 JUMP JUMPDEST SWAP2 SWAP1 POP JUMP JUMPDEST PUSH1 0x0 PUSH1 0x40 MLOAD SWAP1 POP SWAP1 JUMP JUMPDEST PUSH1 0x0 PUSH8 0xFFFFFFFFFFFFFFFF DUP3 GT ISZERO PUSH2 0x2769 JUMPI PUSH2 0x2768 PUSH2 0x2B98 JUMP JUMPDEST JUMPDEST PUSH1 0x20 DUP3 MUL SWAP1 POP PUSH1 0x20 DUP2 ADD SWAP1 POP SWAP2 SWAP1 POP JUMP JUMPDEST PUSH1 0x0 PUSH8 0xFFFFFFFFFFFFFFFF DUP3 GT ISZERO PUSH2 0x2795 JUMPI PUSH2 0x2794 PUSH2 0x2B98 JUMP JUMPDEST JUMPDEST PUSH1 0x20 DUP3 MUL SWAP1 POP PUSH1 0x20 DUP2 ADD SWAP1 POP SWAP2 SWAP1 POP JUMP JUMPDEST PUSH1 0x0 PUSH8 0xFFFFFFFFFFFFFFFF DUP3 GT ISZERO PUSH2 0x27C1 JUMPI PUSH2 0x27C0 PUSH2 0x2B98 JUMP JUMPDEST JUMPDEST PUSH2 0x27CA DUP3 PUSH2 0x2BC7 JUMP JUMPDEST SWAP1 POP PUSH1 0x20 DUP2 ADD SWAP1 POP SWAP2 SWAP1 POP JUMP JUMPDEST PUSH1 0x0 PUSH8 0xFFFFFFFFFFFFFFFF DUP3 GT ISZERO PUSH2 0x27F2 JUMPI PUSH2 0x27F1 PUSH2 0x2B98 JUMP JUMPDEST JUMPDEST PUSH2 0x27FB DUP3 PUSH2 0x2BC7 JUMP JUMPDEST SWAP1 POP PUSH1 0x20 DUP2 ADD SWAP1 POP SWAP2 SWAP1 POP JUMP JUMPDEST PUSH1 0x0 DUP2 SWAP1 POP PUSH1 0x20 DUP3 ADD SWAP1 POP SWAP2 SWAP1 POP JUMP JUMPDEST PUSH1 0x0 DUP2 SWAP1 POP PUSH1 0x20 DUP3 ADD SWAP1 POP SWAP2 SWAP1 POP JUMP JUMPDEST PUSH1 0x0 DUP2 MLOAD SWAP1 POP SWAP2 SWAP1 POP JUMP JUMPDEST PUSH1 0x0 DUP2 MLOAD SWAP1 POP SWAP2 SWAP1 POP JUMP JUMPDEST PUSH1 0x0 DUP2 MLOAD SWAP1 POP SWAP2 SWAP1 POP JUMP JUMPDEST PUSH1 0x0 DUP2 MLOAD SWAP1 POP SWAP2 SWAP1 POP JUMP JUMPDEST PUSH1 0x0 PUSH1 0x20 DUP3 ADD SWAP1 POP SWAP2 SWAP1 POP JUMP JUMPDEST PUSH1 0x0 PUSH1 0x20 DUP3 ADD SWAP1 POP SWAP2 SWAP1 POP JUMP JUMPDEST PUSH1 0x0 DUP3 DUP3 MSTORE PUSH1 0x20 DUP3 ADD SWAP1 POP SWAP3 SWAP2 POP POP JUMP JUMPDEST PUSH1 0x0 DUP3 DUP3 MSTORE PUSH1 0x20 DUP3 ADD SWAP1 POP SWAP3 SWAP2 POP POP JUMP JUMPDEST PUSH1 0x0 DUP3 DUP3 MSTORE PUSH1 0x20 DUP3 ADD SWAP1 POP SWAP3 SWAP2 POP POP JUMP JUMPDEST PUSH1 0x0 DUP3 DUP3 MSTORE PUSH1 0x20 DUP3 ADD SWAP1 POP SWAP3 SWAP2 POP POP JUMP JUMPDEST PUSH1 0x0 DUP2 SWAP1 POP SWAP3 SWAP2 POP POP JUMP JUMPDEST PUSH1 0x0 PUSH2 0x28C8 DUP3 PUSH2 0x29E2 JUMP JUMPDEST SWAP2 POP PUSH2 0x28D3 DUP4 PUSH2 0x29E2 JUMP JUMPDEST SWAP3 POP DUP3 PUSH32 0xFFFFFFFFFFFFFFFFFFFFFFFFFFFFFFFFFFFFFFFFFFFFFFFFFFFFFFFFFFFFFFFF SUB DUP3 GT ISZERO PUSH2 0x2908 JUMPI PUSH2 0x2907 PUSH2 0x2B0B JUMP JUMPDEST JUMPDEST DUP3 DUP3 ADD SWAP1 POP SWAP3 SWAP2 POP POP JUMP JUMPDEST PUSH1 0x0 PUSH2 0x291E DUP3 PUSH2 0x29E2 JUMP JUMPDEST SWAP2 POP PUSH2 0x2929 DUP4 PUSH2 0x29E2 JUMP JUMPDEST SWAP3 POP DUP3 PUSH2 0x2939 JUMPI PUSH2 0x2938 PUSH2 0x2B3A JUMP JUMPDEST JUMPDEST DUP3 DUP3 DIV SWAP1 POP SWAP3 SWAP2 POP POP JUMP JUMPDEST PUSH1 0x0 PUSH2 0x294F DUP3 PUSH2 0x29E2 JUMP JUMPDEST SWAP2 POP PUSH2 0x295A DUP4 PUSH2 0x29E2 JUMP JUMPDEST SWAP3 POP DUP3 DUP3 LT ISZERO PUSH2 0x296D JUMPI PUSH2 0x296C PUSH2 0x2B0B JUMP JUMPDEST JUMPDEST DUP3 DUP3 SUB SWAP1 POP SWAP3 SWAP2 POP POP JUMP JUMPDEST PUSH1 0x0 PUSH2 0x2983 DUP3 PUSH2 0x29C2 JUMP JUMPDEST SWAP1 POP SWAP2 SWAP1 POP JUMP JUMPDEST PUSH1 0x0 DUP2 ISZERO ISZERO SWAP1 POP SWAP2 SWAP1 POP JUMP JUMPDEST PUSH1 0x0 PUSH32 0xFFFFFFFF00000000000000000000000000000000000000000000000000000000 DUP3 AND SWAP1 POP SWAP2 SWAP1 POP JUMP JUMPDEST PUSH1 0x0 PUSH20 0xFFFFFFFFFFFFFFFFFFFFFFFFFFFFFFFFFFFFFFFF DUP3 AND SWAP1 POP SWAP2 SWAP1 POP JUMP JUMPDEST PUSH1 0x0 DUP2 SWAP1 POP SWAP2 SWAP1 POP JUMP JUMPDEST DUP3 DUP2 DUP4 CALLDATACOPY PUSH1 0x0 DUP4 DUP4 ADD MSTORE POP POP POP JUMP JUMPDEST PUSH1 0x0 JUMPDEST DUP4 DUP2 LT ISZERO PUSH2 0x2A19 JUMPI DUP1 DUP3 ADD MLOAD DUP2 DUP5 ADD MSTORE PUSH1 0x20 DUP2 ADD SWAP1 POP PUSH2 0x29FE JUMP JUMPDEST DUP4 DUP2 GT ISZERO PUSH2 0x2A28 JUMPI PUSH1 0x0 DUP5 DUP5 ADD MSTORE JUMPDEST POP POP POP POP JUMP JUMPDEST PUSH1 0x0 PUSH1 0x2 DUP3 DIV SWAP1 POP PUSH1 0x1 DUP3 AND DUP1 PUSH2 0x2A46 JUMPI PUSH1 0x7F DUP3 AND SWAP2 POP JUMPDEST PUSH1 0x20 DUP3 LT DUP2 EQ ISZERO PUSH2 0x2A5A JUMPI PUSH2 0x2A59 PUSH2 0x2B69 JUMP JUMPDEST JUMPDEST POP SWAP2 SWAP1 POP JUMP JUMPDEST PUSH2 0x2A69 DUP3 PUSH2 0x2BC7 JUMP JUMPDEST DUP2 ADD DUP2 DUP2 LT PUSH8 0xFFFFFFFFFFFFFFFF DUP3 GT OR ISZERO PUSH2 0x2A88 JUMPI PUSH2 0x2A87 PUSH2 0x2B98 JUMP JUMPDEST JUMPDEST DUP1 PUSH1 0x40 MSTORE POP POP POP JUMP JUMPDEST PUSH1 0x0 PUSH2 0x2A9C DUP3 PUSH2 0x29E2 JUMP JUMPDEST SWAP2 POP PUSH32 0xFFFFFFFFFFFFFFFFFFFFFFFFFFFFFFFFFFFFFFFFFFFFFFFFFFFFFFFFFFFFFFFF DUP3 EQ ISZERO PUSH2 0x2ACF JUMPI PUSH2 0x2ACE PUSH2 0x2B0B JUMP JUMPDEST JUMPDEST PUSH1 0x1 DUP3 ADD SWAP1 POP SWAP2 SWAP1 POP JUMP JUMPDEST PUSH1 0x0 PUSH2 0x2AE5 DUP3 PUSH2 0x29E2 JUMP JUMPDEST SWAP2 POP PUSH2 0x2AF0 DUP4 PUSH2 0x29E2 JUMP JUMPDEST SWAP3 POP DUP3 PUSH2 0x2B00 JUMPI PUSH2 0x2AFF PUSH2 0x2B3A JUMP JUMPDEST JUMPDEST DUP3 DUP3 MOD SWAP1 POP SWAP3 SWAP2 POP POP JUMP JUMPDEST PUSH32 0x4E487B7100000000000000000000000000000000000000000000000000000000 PUSH1 0x0 MSTORE PUSH1 0x11 PUSH1 0x4 MSTORE PUSH1 0x24 PUSH1 0x0 REVERT JUMPDEST PUSH32 0x4E487B7100000000000000000000000000000000000000000000000000000000 PUSH1 0x0 MSTORE PUSH1 0x12 PUSH1 0x4 MSTORE PUSH1 0x24 PUSH1 0x0 REVERT JUMPDEST PUSH32 0x4E487B7100000000000000000000000000000000000000000000000000000000 PUSH1 0x0 MSTORE PUSH1 0x22 PUSH1 0x4 MSTORE PUSH1 0x24 PUSH1 0x0 REVERT JUMPDEST PUSH32 0x4E487B7100000000000000000000000000000000000000000000000000000000 PUSH1 0x0 MSTORE PUSH1 0x41 PUSH1 0x4 MSTORE PUSH1 0x24 PUSH1 0x0 REVERT JUMPDEST PUSH1 0x0 PUSH1 0x1F NOT PUSH1 0x1F DUP4 ADD AND SWAP1 POP SWAP2 SWAP1 POP JUMP JUMPDEST PUSH32 0x4552433732313A2063616C6C6572206973206E6F7420746F6B656E206F776E65 PUSH1 0x0 DUP3 ADD MSTORE PUSH32 0x72206F7220617070726F76656400000000000000000000000000000000000000 PUSH1 0x20 DUP3 ADD MSTORE POP JUMP JUMPDEST PUSH32 0x4552433732313A207472616E7366657220746F206E6F6E204552433732315265 PUSH1 0x0 DUP3 ADD MSTORE PUSH32 0x63656976657220696D706C656D656E7465720000000000000000000000000000 PUSH1 0x20 DUP3 ADD MSTORE POP JUMP JUMPDEST PUSH32 0x4552433732313A207472616E736665722066726F6D20696E636F727265637420 PUSH1 0x0 DUP3 ADD MSTORE PUSH32 0x6F776E6572000000000000000000000000000000000000000000000000000000 PUSH1 0x20 DUP3 ADD MSTORE POP JUMP JUMPDEST PUSH32 0x4552433732313A20746F6B656E20616C7265616479206D696E74656400000000 PUSH1 0x0 DUP3 ADD MSTORE POP JUMP JUMPDEST PUSH32 0x4552433732313A207472616E7366657220746F20746865207A65726F20616464 PUSH1 0x0 DUP3 ADD MSTORE PUSH32 0x7265737300000000000000000000000000000000000000000000000000000000 PUSH1 0x20 DUP3 ADD MSTORE POP JUMP JUMPDEST PUSH32 0x4552433732313A20617070726F766520746F2063616C6C657200000000000000 PUSH1 0x0 DUP3 ADD MSTORE POP JUMP JUMPDEST PUSH32 0x4552433732313A2061646472657373207A65726F206973206E6F742061207661 PUSH1 0x0 DUP3 ADD MSTORE PUSH32 0x6C6964206F776E65720000000000000000000000000000000000000000000000 PUSH1 0x20 DUP3 ADD MSTORE POP JUMP JUMPDEST PUSH32 0x45524337323155524953746F726167653A2055524920736574206F66206E6F6E PUSH1 0x0 DUP3 ADD MSTORE PUSH32 0x6578697374656E7420746F6B656E000000000000000000000000000000000000 PUSH1 0x20 DUP3 ADD MSTORE POP JUMP JUMPDEST PUSH32 0x4552433732313A206D696E7420746F20746865207A65726F2061646472657373 PUSH1 0x0 DUP3 ADD MSTORE POP JUMP JUMPDEST PUSH32 0x4552433732314D657461646174613A2055524920717565727920666F72206E6F PUSH1 0x0 DUP3 ADD MSTORE PUSH32 0x6E6578697374656E7420746F6B656E0000000000000000000000000000000000 PUSH1 0x20 DUP3 ADD MSTORE POP JUMP JUMPDEST PUSH32 0x4552433732313A20696E76616C696420746F6B656E2049440000000000000000 PUSH1 0x0 DUP3 ADD MSTORE POP JUMP JUMPDEST PUSH32 0x4552433732313A20617070726F76616C20746F2063757272656E74206F776E65 PUSH1 0x0 DUP3 ADD MSTORE PUSH32 0x7200000000000000000000000000000000000000000000000000000000000000 PUSH1 0x20 DUP3 ADD MSTORE POP JUMP JUMPDEST PUSH32 0x4552433732313A20617070726F76652063616C6C6572206973206E6F7420746F PUSH1 0x0 DUP3 ADD MSTORE PUSH32 0x6B656E206F776E6572206F7220617070726F76656420666F7220616C6C000000 PUSH1 0x20 DUP3 ADD MSTORE POP JUMP JUMPDEST PUSH2 0x2F4C DUP2 PUSH2 0x2978 JUMP JUMPDEST DUP2 EQ PUSH2 0x2F57 JUMPI PUSH1 0x0 DUP1 REVERT JUMPDEST POP JUMP JUMPDEST PUSH2 0x2F63 DUP2 PUSH2 0x298A JUMP JUMPDEST DUP2 EQ PUSH2 0x2F6E JUMPI PUSH1 0x0 DUP1 REVERT JUMPDEST POP JUMP JUMPDEST PUSH2 0x2F7A DUP2 PUSH2 0x2996 JUMP JUMPDEST DUP2 EQ PUSH2 0x2F85 JUMPI PUSH1 0x0 DUP1 REVERT JUMPDEST POP JUMP JUMPDEST PUSH2 0x2F91 DUP2 PUSH2 0x29E2 JUMP JUMPDEST DUP2 EQ PUSH2 0x2F9C JUMPI PUSH1 0x0 DUP1 REVERT JUMPDEST POP JUMP INVALID LOG2 PUSH5 0x6970667358 0x22 SLT KECCAK256 XOR INVALID 0xB2 0xDC 0xBC GASPRICE 0x21 PUSH5 0xB3936DAABF ISZERO SWAP6 0xC0 0xEE 0xCB XOR LOG2 0x2E 0xA5 0x1F DUP6 MUL 0x4B SHL 0xEA 0xBB ADD 0xE6 DUP13 PUSH5 0x736F6C6343 STOP ADDMOD DIV STOP CALLER "
				},
				"gasEstimates": {
					"creation": {
						"codeDepositCost": "2449000",
						"executionCost": "infinite",
						"totalCost": "infinite"
					},
					"external": {
						"approve(address,uint256)": "infinite",
						"balanceOf(address)": "1624",
						"collaboratotOf(uint256)": "infinite",
						"collaboratotPercentageOf(uint256)": "infinite",
						"getApproved(uint256)": "2657",
						"isApprovedForAll(address,address)": "infinite",
						"mint(address,address[],uint256[],string)": "infinite",
						"name()": "infinite",
						"ownerOf(uint256)": "1682",
						"safeTransferFrom(address,address,uint256)": "infinite",
						"safeTransferFrom(address,address,uint256,bytes)": "infinite",
						"setApprovalForAll(address,bool)": "infinite",
						"supportsInterface(bytes4)": "797",
						"symbol()": "infinite",
						"tokenURI(uint256)": "2073",
						"transferFrom(address,address,uint256)": "infinite"
					},
					"internal": {
						"_afterTokenTransfer(address,address,uint256)": "15",
						"_approve(address,uint256)": "infinite",
						"_baseURI()": "infinite",
						"_beforeTokenTransfer(address,address,uint256)": "15",
						"_burn(uint256)": "infinite",
						"_checkOnERC721Received(address,address,uint256,bytes memory)": "infinite",
						"_exists(uint256)": "969",
						"_isApprovedOrOwner(address,uint256)": "infinite",
						"_mint(address,address[] memory,uint256[] memory,uint256)": "infinite",
						"_requireMinted(uint256)": "infinite",
						"_safeMint(address,address[] memory,uint256[] memory,uint256)": "infinite",
						"_safeMint(address,address[] memory,uint256[] memory,uint256,bytes memory)": "infinite",
						"_safeTransfer(address,address,uint256,bytes memory)": "infinite",
						"_setApprovalForAll(address,address,bool)": "infinite",
						"_setTokenURI(uint256,string memory)": "infinite",
						"_transfer(address,address,uint256)": "infinite"
					}
				},
				"methodIdentifiers": {
					"approve(address,uint256)": "095ea7b3",
					"balanceOf(address)": "70a08231",
					"collaboratotOf(uint256)": "52e04825",
					"collaboratotPercentageOf(uint256)": "ee48cda2",
					"getApproved(uint256)": "081812fc",
					"isApprovedForAll(address,address)": "e985e9c5",
					"mint(address,address[],uint256[],string)": "381568d8",
					"name()": "06fdde03",
					"ownerOf(uint256)": "6352211e",
					"safeTransferFrom(address,address,uint256)": "42842e0e",
					"safeTransferFrom(address,address,uint256,bytes)": "b88d4fde",
					"setApprovalForAll(address,bool)": "a22cb465",
					"supportsInterface(bytes4)": "01ffc9a7",
					"symbol()": "95d89b41",
					"tokenURI(uint256)": "c87b56dd",
					"transferFrom(address,address,uint256)": "23b872dd"
				}
			},
			"storageLayout": {
				"storage": [
					{
						"astId": 821,
						"contract": "contracts/nft.sol:nft",
						"label": "_tokenIds",
						"offset": 0,
						"slot": "0",
						"type": "t_struct(Counter)483_storage"
					},
					{
						"astId": 823,
						"contract": "contracts/nft.sol:nft",
						"label": "_name",
						"offset": 0,
						"slot": "1",
						"type": "t_string_storage"
					},
					{
						"astId": 825,
						"contract": "contracts/nft.sol:nft",
						"label": "_symbol",
						"offset": 0,
						"slot": "2",
						"type": "t_string_storage"
					},
					{
						"astId": 829,
						"contract": "contracts/nft.sol:nft",
						"label": "_owners",
						"offset": 0,
						"slot": "3",
						"type": "t_mapping(t_uint256,t_address)"
					},
					{
						"astId": 834,
						"contract": "contracts/nft.sol:nft",
						"label": "_collaborators",
						"offset": 0,
						"slot": "4",
						"type": "t_mapping(t_uint256,t_array(t_address)dyn_storage)"
					},
					{
						"astId": 839,
						"contract": "contracts/nft.sol:nft",
						"label": "_collaboratorsPercentage",
						"offset": 0,
						"slot": "5",
						"type": "t_mapping(t_uint256,t_array(t_uint256)dyn_storage)"
					},
					{
						"astId": 843,
						"contract": "contracts/nft.sol:nft",
						"label": "_balances",
						"offset": 0,
						"slot": "6",
						"type": "t_mapping(t_address,t_uint256)"
					},
					{
						"astId": 847,
						"contract": "contracts/nft.sol:nft",
						"label": "_tokenApprovals",
						"offset": 0,
						"slot": "7",
						"type": "t_mapping(t_uint256,t_address)"
					},
					{
						"astId": 853,
						"contract": "contracts/nft.sol:nft",
						"label": "_operatorApprovals",
						"offset": 0,
						"slot": "8",
						"type": "t_mapping(t_address,t_mapping(t_address,t_bool))"
					},
					{
						"astId": 857,
						"contract": "contracts/nft.sol:nft",
						"label": "_tokenURIs",
						"offset": 0,
						"slot": "9",
						"type": "t_mapping(t_uint256,t_string_storage)"
					}
				],
				"types": {
					"t_address": {
						"encoding": "inplace",
						"label": "address",
						"numberOfBytes": "20"
					},
					"t_array(t_address)dyn_storage": {
						"base": "t_address",
						"encoding": "dynamic_array",
						"label": "address[]",
						"numberOfBytes": "32"
					},
					"t_array(t_uint256)dyn_storage": {
						"base": "t_uint256",
						"encoding": "dynamic_array",
						"label": "uint256[]",
						"numberOfBytes": "32"
					},
					"t_bool": {
						"encoding": "inplace",
						"label": "bool",
						"numberOfBytes": "1"
					},
					"t_mapping(t_address,t_bool)": {
						"encoding": "mapping",
						"key": "t_address",
						"label": "mapping(address => bool)",
						"numberOfBytes": "32",
						"value": "t_bool"
					},
					"t_mapping(t_address,t_mapping(t_address,t_bool))": {
						"encoding": "mapping",
						"key": "t_address",
						"label": "mapping(address => mapping(address => bool))",
						"numberOfBytes": "32",
						"value": "t_mapping(t_address,t_bool)"
					},
					"t_mapping(t_address,t_uint256)": {
						"encoding": "mapping",
						"key": "t_address",
						"label": "mapping(address => uint256)",
						"numberOfBytes": "32",
						"value": "t_uint256"
					},
					"t_mapping(t_uint256,t_address)": {
						"encoding": "mapping",
						"key": "t_uint256",
						"label": "mapping(uint256 => address)",
						"numberOfBytes": "32",
						"value": "t_address"
					},
					"t_mapping(t_uint256,t_array(t_address)dyn_storage)": {
						"encoding": "mapping",
						"key": "t_uint256",
						"label": "mapping(uint256 => address[])",
						"numberOfBytes": "32",
						"value": "t_array(t_address)dyn_storage"
					},
					"t_mapping(t_uint256,t_array(t_uint256)dyn_storage)": {
						"encoding": "mapping",
						"key": "t_uint256",
						"label": "mapping(uint256 => uint256[])",
						"numberOfBytes": "32",
						"value": "t_array(t_uint256)dyn_storage"
					},
					"t_mapping(t_uint256,t_string_storage)": {
						"encoding": "mapping",
						"key": "t_uint256",
						"label": "mapping(uint256 => string)",
						"numberOfBytes": "32",
						"value": "t_string_storage"
					},
					"t_string_storage": {
						"encoding": "bytes",
						"label": "string",
						"numberOfBytes": "32"
					},
					"t_struct(Counter)483_storage": {
						"encoding": "inplace",
						"label": "struct Counters.Counter",
						"members": [
							{
								"astId": 482,
								"contract": "contracts/nft.sol:nft",
								"label": "_value",
								"offset": 0,
								"slot": "0",
								"type": "t_uint256"
							}
						],
						"numberOfBytes": "32"
					},
					"t_uint256": {
						"encoding": "inplace",
						"label": "uint256",
						"numberOfBytes": "32"
					}
				}
			},
			"userdoc": {
				"kind": "user",
				"methods": {},
				"version": 1
			}
		}
	}
}