{
	"contracts/nft.sol": {
		"nft": {
			"abi": [
				{
					"inputs": [
						{
							"internalType": "string",
							"name": "name_",
							"type": "string"
						},
						{
							"internalType": "string",
							"name": "symbol_",
							"type": "string"
						}
					],
					"stateMutability": "nonpayable",
					"type": "constructor"
				},
				{
					"anonymous": false,
					"inputs": [
						{
							"indexed": true,
							"internalType": "address",
							"name": "owner",
							"type": "address"
						},
						{
							"indexed": true,
							"internalType": "address",
							"name": "approved",
							"type": "address"
						},
						{
							"indexed": true,
							"internalType": "uint256",
							"name": "tokenId",
							"type": "uint256"
						}
					],
					"name": "Approval",
					"type": "event"
				},
				{
					"anonymous": false,
					"inputs": [
						{
							"indexed": true,
							"internalType": "address",
							"name": "owner",
							"type": "address"
						},
						{
							"indexed": true,
							"internalType": "address",
							"name": "operator",
							"type": "address"
						},
						{
							"indexed": false,
							"internalType": "bool",
							"name": "approved",
							"type": "bool"
						}
					],
					"name": "ApprovalForAll",
					"type": "event"
				},
				{
					"anonymous": false,
					"inputs": [
						{
							"indexed": true,
							"internalType": "address",
							"name": "from",
							"type": "address"
						},
						{
							"indexed": true,
							"internalType": "address",
							"name": "to",
							"type": "address"
						},
						{
							"indexed": true,
							"internalType": "uint256",
							"name": "tokenId",
							"type": "uint256"
						}
					],
					"name": "Transfer",
					"type": "event"
				},
				{
					"inputs": [
						{
							"internalType": "address",
							"name": "to",
							"type": "address"
						},
						{
							"internalType": "uint256",
							"name": "tokenId",
							"type": "uint256"
						}
					],
					"name": "approve",
					"outputs": [],
					"stateMutability": "nonpayable",
					"type": "function"
				},
				{
					"inputs": [
						{
							"internalType": "address",
							"name": "owner",
							"type": "address"
						}
					],
					"name": "balanceOf",
					"outputs": [
						{
							"internalType": "uint256",
							"name": "",
							"type": "uint256"
						}
					],
					"stateMutability": "view",
					"type": "function"
				},
				{
					"inputs": [
						{
							"internalType": "uint256",
							"name": "tokenId",
							"type": "uint256"
						}
					],
					"name": "collaboratotOf",
					"outputs": [
						{
							"internalType": "address",
							"name": "",
							"type": "address"
						}
					],
					"stateMutability": "view",
					"type": "function"
				},
				{
					"inputs": [
						{
							"internalType": "uint256",
							"name": "tokenId",
							"type": "uint256"
						}
					],
					"name": "collaboratotPercentageOf",
					"outputs": [
						{
							"internalType": "uint256",
							"name": "",
							"type": "uint256"
						}
					],
					"stateMutability": "view",
					"type": "function"
				},
				{
					"inputs": [
						{
							"internalType": "uint256",
							"name": "tokenId",
							"type": "uint256"
						}
					],
					"name": "getApproved",
					"outputs": [
						{
							"internalType": "address",
							"name": "",
							"type": "address"
						}
					],
					"stateMutability": "view",
					"type": "function"
				},
				{
					"inputs": [
						{
							"internalType": "address",
							"name": "owner",
							"type": "address"
						},
						{
							"internalType": "address",
							"name": "operator",
							"type": "address"
						}
					],
					"name": "isApprovedForAll",
					"outputs": [
						{
							"internalType": "bool",
							"name": "",
							"type": "bool"
						}
					],
					"stateMutability": "view",
					"type": "function"
				},
				{
					"inputs": [
						{
							"internalType": "address",
							"name": "to",
							"type": "address"
						},
						{
							"internalType": "address",
							"name": "collaborator",
							"type": "address"
						},
						{
							"internalType": "uint256",
							"name": "collaboratorPercent",
							"type": "uint256"
						},
						{
							"internalType": "uint256",
							"name": "tokenId",
							"type": "uint256"
						},
						{
							"internalType": "string",
							"name": "uri",
							"type": "string"
						}
					],
					"name": "mint",
					"outputs": [],
					"stateMutability": "nonpayable",
					"type": "function"
				},
				{
					"inputs": [],
					"name": "name",
					"outputs": [
						{
							"internalType": "string",
							"name": "",
							"type": "string"
						}
					],
					"stateMutability": "view",
					"type": "function"
				},
				{
					"inputs": [
						{
							"internalType": "uint256",
							"name": "tokenId",
							"type": "uint256"
						}
					],
					"name": "ownerOf",
					"outputs": [
						{
							"internalType": "address",
							"name": "",
							"type": "address"
						}
					],
					"stateMutability": "view",
					"type": "function"
				},
				{
					"inputs": [
						{
							"internalType": "address",
							"name": "from",
							"type": "address"
						},
						{
							"internalType": "address",
							"name": "to",
							"type": "address"
						},
						{
							"internalType": "uint256",
							"name": "tokenId",
							"type": "uint256"
						}
					],
					"name": "safeTransferFrom",
					"outputs": [],
					"stateMutability": "nonpayable",
					"type": "function"
				},
				{
					"inputs": [
						{
							"internalType": "address",
							"name": "from",
							"type": "address"
						},
						{
							"internalType": "address",
							"name": "to",
							"type": "address"
						},
						{
							"internalType": "uint256",
							"name": "tokenId",
							"type": "uint256"
						},
						{
							"internalType": "bytes",
							"name": "data",
							"type": "bytes"
						}
					],
					"name": "safeTransferFrom",
					"outputs": [],
					"stateMutability": "nonpayable",
					"type": "function"
				},
				{
					"inputs": [
						{
							"internalType": "address",
							"name": "operator",
							"type": "address"
						},
						{
							"internalType": "bool",
							"name": "approved",
							"type": "bool"
						}
					],
					"name": "setApprovalForAll",
					"outputs": [],
					"stateMutability": "nonpayable",
					"type": "function"
				},
				{
					"inputs": [
						{
							"internalType": "bytes4",
							"name": "interfaceId",
							"type": "bytes4"
						}
					],
					"name": "supportsInterface",
					"outputs": [
						{
							"internalType": "bool",
							"name": "",
							"type": "bool"
						}
					],
					"stateMutability": "view",
					"type": "function"
				},
				{
					"inputs": [],
					"name": "symbol",
					"outputs": [
						{
							"internalType": "string",
							"name": "",
							"type": "string"
						}
					],
					"stateMutability": "view",
					"type": "function"
				},
				{
					"inputs": [
						{
							"internalType": "uint256",
							"name": "tokenId",
							"type": "uint256"
						}
					],
					"name": "tokenURI",
					"outputs": [
						{
							"internalType": "string",
							"name": "",
							"type": "string"
						}
					],
					"stateMutability": "view",
					"type": "function"
				},
				{
					"inputs": [
						{
							"internalType": "address",
							"name": "from",
							"type": "address"
						},
						{
							"internalType": "address",
							"name": "to",
							"type": "address"
						},
						{
							"internalType": "uint256",
							"name": "tokenId",
							"type": "uint256"
						}
					],
					"name": "transferFrom",
					"outputs": [],
					"stateMutability": "nonpayable",
					"type": "function"
				}
			],
			"devdoc": {
				"kind": "dev",
				"methods": {
					"approve(address,uint256)": {
						"details": "Gives permission to `to` to transfer `tokenId` token to another account. The approval is cleared when the token is transferred. Only a single account can be approved at a time, so approving the zero address clears previous approvals. Requirements: - The caller must own the token or be an approved operator. - `tokenId` must exist. Emits an {Approval} event."
					},
					"balanceOf(address)": {
						"details": "Returns the number of tokens in ``owner``'s account."
					},
					"getApproved(uint256)": {
						"details": "Returns the account approved for `tokenId` token. Requirements: - `tokenId` must exist."
					},
					"isApprovedForAll(address,address)": {
						"details": "Returns if the `operator` is allowed to manage all of the assets of `owner`. See {setApprovalForAll}"
					},
					"name()": {
						"details": "Returns the token collection name."
					},
					"ownerOf(uint256)": {
						"details": "Returns the owner of the `tokenId` token. Requirements: - `tokenId` must exist."
					},
					"safeTransferFrom(address,address,uint256)": {
						"details": "Safely transfers `tokenId` token from `from` to `to`, checking first that contract recipients are aware of the ERC721 protocol to prevent tokens from being forever locked. Requirements: - `from` cannot be the zero address. - `to` cannot be the zero address. - `tokenId` token must exist and be owned by `from`. - If the caller is not `from`, it must be have been allowed to move this token by either {approve} or {setApprovalForAll}. - If `to` refers to a smart contract, it must implement {IERC721Receiver-onERC721Received}, which is called upon a safe transfer. Emits a {Transfer} event."
					},
					"safeTransferFrom(address,address,uint256,bytes)": {
						"details": "Safely transfers `tokenId` token from `from` to `to`. Requirements: - `from` cannot be the zero address. - `to` cannot be the zero address. - `tokenId` token must exist and be owned by `from`. - If the caller is not `from`, it must be approved to move this token by either {approve} or {setApprovalForAll}. - If `to` refers to a smart contract, it must implement {IERC721Receiver-onERC721Received}, which is called upon a safe transfer. Emits a {Transfer} event."
					},
					"symbol()": {
						"details": "Returns the token collection symbol."
					},
					"tokenURI(uint256)": {
						"details": "Returns the Uniform Resource Identifier (URI) for `tokenId` token."
					},
					"transferFrom(address,address,uint256)": {
						"details": "Transfers `tokenId` token from `from` to `to`. WARNING: Usage of this method is discouraged, use {safeTransferFrom} whenever possible. Requirements: - `from` cannot be the zero address. - `to` cannot be the zero address. - `tokenId` token must be owned by `from`. - If the caller is not `from`, it must be approved to move this token by either {approve} or {setApprovalForAll}. Emits a {Transfer} event."
					}
				},
				"version": 1
			},
			"evm": {
				"assembly": "    /* \"contracts/nft.sol\":677:10741  contract nft is Context, ERC165, IERC721, IERC721Metadata {\r... */\n  mstore(0x40, 0x80)\n    /* \"contracts/nft.sol\":1356:1472  constructor(string memory name_, string memory symbol_) {\r... */\n  callvalue\n  dup1\n  iszero\n  tag_1\n  jumpi\n  0x00\n  dup1\n  revert\ntag_1:\n  pop\n  mload(0x40)\n  sub(codesize, bytecodeSize)\n  dup1\n  bytecodeSize\n  dup4\n  codecopy\n  dup2\n  dup2\n  add\n  0x40\n  mstore\n  dup2\n  add\n  swap1\n  tag_2\n  swap2\n  swap1\n  tag_3\n  jump\t// in\ntag_2:\n    /* \"contracts/nft.sol\":1431:1436  name_ */\n  dup2\n    /* \"contracts/nft.sol\":1423:1428  _name */\n  0x00\n    /* \"contracts/nft.sol\":1423:1436  _name = name_ */\n  swap1\n  dup1\n  mload\n  swap1\n  0x20\n  add\n  swap1\n  tag_6\n  swap3\n  swap2\n  swap1\n  tag_7\n  jump\t// in\ntag_6:\n  pop\n    /* \"contracts/nft.sol\":1457:1464  symbol_ */\n  dup1\n    /* \"contracts/nft.sol\":1447:1454  _symbol */\n  0x01\n    /* \"contracts/nft.sol\":1447:1464  _symbol = symbol_ */\n  swap1\n  dup1\n  mload\n  swap1\n  0x20\n  add\n  swap1\n  tag_8\n  swap3\n  swap2\n  swap1\n  tag_7\n  jump\t// in\ntag_8:\n  pop\n    /* \"contracts/nft.sol\":1356:1472  constructor(string memory name_, string memory symbol_) {\r... */\n  pop\n  pop\n    /* \"contracts/nft.sol\":677:10741  contract nft is Context, ERC165, IERC721, IERC721Metadata {\r... */\n  jump(tag_9)\ntag_7:\n  dup3\n  dup1\n  sload\n  tag_10\n  swap1\n  tag_11\n  jump\t// in\ntag_10:\n  swap1\n  0x00\n  mstore\n  keccak256(0x00, 0x20)\n  swap1\n  0x1f\n  add\n  0x20\n  swap1\n  div\n  dup2\n  add\n  swap3\n  dup3\n  tag_13\n  jumpi\n  0x00\n  dup6\n  sstore\n  jump(tag_12)\ntag_13:\n  dup3\n  0x1f\n  lt\n  tag_14\n  jumpi\n  dup1\n  mload\n  not(0xff)\n  and\n  dup4\n  dup1\n  add\n  or\n  dup6\n  sstore\n  jump(tag_12)\ntag_14:\n  dup3\n  dup1\n  add\n  0x01\n  add\n  dup6\n  sstore\n  dup3\n  iszero\n  tag_12\n  jumpi\n  swap2\n  dup3\n  add\ntag_15:\n  dup3\n  dup2\n  gt\n  iszero\n  tag_16\n  jumpi\n  dup3\n  mload\n  dup3\n  sstore\n  swap2\n  0x20\n  add\n  swap2\n  swap1\n  0x01\n  add\n  swap1\n  jump(tag_15)\ntag_16:\ntag_12:\n  pop\n  swap1\n  pop\n  tag_17\n  swap2\n  swap1\n  tag_18\n  jump\t// in\ntag_17:\n  pop\n  swap1\n  jump\t// out\ntag_18:\ntag_19:\n  dup1\n  dup3\n  gt\n  iszero\n  tag_20\n  jumpi\n  0x00\n  dup2\n  0x00\n  swap1\n  sstore\n  pop\n  0x01\n  add\n  jump(tag_19)\ntag_20:\n  pop\n  swap1\n  jump\t// out\n    /* \"#utility.yul\":7:361   */\ntag_22:\n    /* \"#utility.yul\":96:101   */\n  0x00\n    /* \"#utility.yul\":121:187   */\n  tag_24\n    /* \"#utility.yul\":137:186   */\n  tag_25\n    /* \"#utility.yul\":179:185   */\n  dup5\n    /* \"#utility.yul\":137:186   */\n  tag_26\n  jump\t// in\ntag_25:\n    /* \"#utility.yul\":121:187   */\n  tag_27\n  jump\t// in\ntag_24:\n    /* \"#utility.yul\":112:187   */\n  swap1\n  pop\n    /* \"#utility.yul\":210:216   */\n  dup3\n    /* \"#utility.yul\":203:208   */\n  dup2\n    /* \"#utility.yul\":196:217   */\n  mstore\n    /* \"#utility.yul\":248:252   */\n  0x20\n    /* \"#utility.yul\":241:246   */\n  dup2\n    /* \"#utility.yul\":237:253   */\n  add\n    /* \"#utility.yul\":286:289   */\n  dup5\n    /* \"#utility.yul\":277:283   */\n  dup5\n    /* \"#utility.yul\":272:275   */\n  dup5\n    /* \"#utility.yul\":268:284   */\n  add\n    /* \"#utility.yul\":265:290   */\n  gt\n    /* \"#utility.yul\":262:264   */\n  iszero\n  tag_28\n  jumpi\n    /* \"#utility.yul\":303:304   */\n  0x00\n    /* \"#utility.yul\":300:301   */\n  dup1\n    /* \"#utility.yul\":293:305   */\n  revert\n    /* \"#utility.yul\":262:264   */\ntag_28:\n    /* \"#utility.yul\":316:355   */\n  tag_29\n    /* \"#utility.yul\":348:354   */\n  dup5\n    /* \"#utility.yul\":343:346   */\n  dup3\n    /* \"#utility.yul\":338:341   */\n  dup6\n    /* \"#utility.yul\":316:355   */\n  tag_30\n  jump\t// in\ntag_29:\n    /* \"#utility.yul\":102:361   */\n  pop\n  swap4\n  swap3\n  pop\n  pop\n  pop\n  jump\t// out\n    /* \"#utility.yul\":381:669   */\ntag_31:\n    /* \"#utility.yul\":448:453   */\n  0x00\n    /* \"#utility.yul\":497:500   */\n  dup3\n    /* \"#utility.yul\":490:494   */\n  0x1f\n    /* \"#utility.yul\":482:488   */\n  dup4\n    /* \"#utility.yul\":478:495   */\n  add\n    /* \"#utility.yul\":474:501   */\n  slt\n    /* \"#utility.yul\":464:466   */\n  tag_33\n  jumpi\n    /* \"#utility.yul\":515:516   */\n  0x00\n    /* \"#utility.yul\":512:513   */\n  dup1\n    /* \"#utility.yul\":505:517   */\n  revert\n    /* \"#utility.yul\":464:466   */\ntag_33:\n    /* \"#utility.yul\":548:554   */\n  dup2\n    /* \"#utility.yul\":542:555   */\n  mload\n    /* \"#utility.yul\":573:663   */\n  tag_34\n    /* \"#utility.yul\":659:662   */\n  dup5\n    /* \"#utility.yul\":651:657   */\n  dup3\n    /* \"#utility.yul\":644:648   */\n  0x20\n    /* \"#utility.yul\":636:642   */\n  dup7\n    /* \"#utility.yul\":632:649   */\n  add\n    /* \"#utility.yul\":573:663   */\n  tag_22\n  jump\t// in\ntag_34:\n    /* \"#utility.yul\":564:663   */\n  swap2\n  pop\n    /* \"#utility.yul\":454:669   */\n  pop\n  swap3\n  swap2\n  pop\n  pop\n  jump\t// out\n    /* \"#utility.yul\":675:1327   */\ntag_3:\n    /* \"#utility.yul\":774:780   */\n  0x00\n    /* \"#utility.yul\":782:788   */\n  dup1\n    /* \"#utility.yul\":831:833   */\n  0x40\n    /* \"#utility.yul\":819:828   */\n  dup4\n    /* \"#utility.yul\":810:817   */\n  dup6\n    /* \"#utility.yul\":806:829   */\n  sub\n    /* \"#utility.yul\":802:834   */\n  slt\n    /* \"#utility.yul\":799:801   */\n  iszero\n  tag_36\n  jumpi\n    /* \"#utility.yul\":847:848   */\n  0x00\n    /* \"#utility.yul\":844:845   */\n  dup1\n    /* \"#utility.yul\":837:849   */\n  revert\n    /* \"#utility.yul\":799:801   */\ntag_36:\n    /* \"#utility.yul\":911:912   */\n  0x00\n    /* \"#utility.yul\":900:909   */\n  dup4\n    /* \"#utility.yul\":896:913   */\n  add\n    /* \"#utility.yul\":890:914   */\n  mload\n    /* \"#utility.yul\":941:959   */\n  0xffffffffffffffff\n    /* \"#utility.yul\":933:939   */\n  dup2\n    /* \"#utility.yul\":930:960   */\n  gt\n    /* \"#utility.yul\":927:929   */\n  iszero\n  tag_37\n  jumpi\n    /* \"#utility.yul\":973:974   */\n  0x00\n    /* \"#utility.yul\":970:971   */\n  dup1\n    /* \"#utility.yul\":963:975   */\n  revert\n    /* \"#utility.yul\":927:929   */\ntag_37:\n    /* \"#utility.yul\":1001:1075   */\n  tag_38\n    /* \"#utility.yul\":1067:1074   */\n  dup6\n    /* \"#utility.yul\":1058:1064   */\n  dup3\n    /* \"#utility.yul\":1047:1056   */\n  dup7\n    /* \"#utility.yul\":1043:1065   */\n  add\n    /* \"#utility.yul\":1001:1075   */\n  tag_31\n  jump\t// in\ntag_38:\n    /* \"#utility.yul\":991:1075   */\n  swap3\n  pop\n    /* \"#utility.yul\":861:1085   */\n  pop\n    /* \"#utility.yul\":1145:1147   */\n  0x20\n    /* \"#utility.yul\":1134:1143   */\n  dup4\n    /* \"#utility.yul\":1130:1148   */\n  add\n    /* \"#utility.yul\":1124:1149   */\n  mload\n    /* \"#utility.yul\":1176:1194   */\n  0xffffffffffffffff\n    /* \"#utility.yul\":1168:1174   */\n  dup2\n    /* \"#utility.yul\":1165:1195   */\n  gt\n    /* \"#utility.yul\":1162:1164   */\n  iszero\n  tag_39\n  jumpi\n    /* \"#utility.yul\":1208:1209   */\n  0x00\n    /* \"#utility.yul\":1205:1206   */\n  dup1\n    /* \"#utility.yul\":1198:1210   */\n  revert\n    /* \"#utility.yul\":1162:1164   */\ntag_39:\n    /* \"#utility.yul\":1236:1310   */\n  tag_40\n    /* \"#utility.yul\":1302:1309   */\n  dup6\n    /* \"#utility.yul\":1293:1299   */\n  dup3\n    /* \"#utility.yul\":1282:1291   */\n  dup7\n    /* \"#utility.yul\":1278:1300   */\n  add\n    /* \"#utility.yul\":1236:1310   */\n  tag_31\n  jump\t// in\ntag_40:\n    /* \"#utility.yul\":1226:1310   */\n  swap2\n  pop\n    /* \"#utility.yul\":1095:1320   */\n  pop\n    /* \"#utility.yul\":789:1327   */\n  swap3\n  pop\n  swap3\n  swap1\n  pop\n  jump\t// out\n    /* \"#utility.yul\":1333:1462   */\ntag_27:\n    /* \"#utility.yul\":1367:1373   */\n  0x00\n    /* \"#utility.yul\":1394:1414   */\n  tag_42\n  tag_43\n  jump\t// in\ntag_42:\n    /* \"#utility.yul\":1384:1414   */\n  swap1\n  pop\n    /* \"#utility.yul\":1423:1456   */\n  tag_44\n    /* \"#utility.yul\":1451:1455   */\n  dup3\n    /* \"#utility.yul\":1443:1449   */\n  dup3\n    /* \"#utility.yul\":1423:1456   */\n  tag_45\n  jump\t// in\ntag_44:\n    /* \"#utility.yul\":1374:1462   */\n  swap2\n  swap1\n  pop\n  jump\t// out\n    /* \"#utility.yul\":1468:1543   */\ntag_43:\n    /* \"#utility.yul\":1501:1507   */\n  0x00\n    /* \"#utility.yul\":1534:1536   */\n  0x40\n    /* \"#utility.yul\":1528:1537   */\n  mload\n    /* \"#utility.yul\":1518:1537   */\n  swap1\n  pop\n    /* \"#utility.yul\":1508:1543   */\n  swap1\n  jump\t// out\n    /* \"#utility.yul\":1549:1857   */\ntag_26:\n    /* \"#utility.yul\":1611:1615   */\n  0x00\n    /* \"#utility.yul\":1701:1719   */\n  0xffffffffffffffff\n    /* \"#utility.yul\":1693:1699   */\n  dup3\n    /* \"#utility.yul\":1690:1720   */\n  gt\n    /* \"#utility.yul\":1687:1689   */\n  iszero\n  tag_48\n  jumpi\n    /* \"#utility.yul\":1723:1741   */\n  tag_49\n  tag_50\n  jump\t// in\ntag_49:\n    /* \"#utility.yul\":1687:1689   */\ntag_48:\n    /* \"#utility.yul\":1761:1790   */\n  tag_51\n    /* \"#utility.yul\":1783:1789   */\n  dup3\n    /* \"#utility.yul\":1761:1790   */\n  tag_52\n  jump\t// in\ntag_51:\n    /* \"#utility.yul\":1753:1790   */\n  swap1\n  pop\n    /* \"#utility.yul\":1845:1849   */\n  0x20\n    /* \"#utility.yul\":1839:1843   */\n  dup2\n    /* \"#utility.yul\":1835:1850   */\n  add\n    /* \"#utility.yul\":1827:1850   */\n  swap1\n  pop\n    /* \"#utility.yul\":1616:1857   */\n  swap2\n  swap1\n  pop\n  jump\t// out\n    /* \"#utility.yul\":1863:2170   */\ntag_30:\n    /* \"#utility.yul\":1931:1932   */\n  0x00\n    /* \"#utility.yul\":1941:2054   */\ntag_54:\n    /* \"#utility.yul\":1955:1961   */\n  dup4\n    /* \"#utility.yul\":1952:1953   */\n  dup2\n    /* \"#utility.yul\":1949:1962   */\n  lt\n    /* \"#utility.yul\":1941:2054   */\n  iszero\n  tag_56\n  jumpi\n    /* \"#utility.yul\":2040:2041   */\n  dup1\n    /* \"#utility.yul\":2035:2038   */\n  dup3\n    /* \"#utility.yul\":2031:2042   */\n  add\n    /* \"#utility.yul\":2025:2043   */\n  mload\n    /* \"#utility.yul\":2021:2022   */\n  dup2\n    /* \"#utility.yul\":2016:2019   */\n  dup5\n    /* \"#utility.yul\":2012:2023   */\n  add\n    /* \"#utility.yul\":2005:2044   */\n  mstore\n    /* \"#utility.yul\":1977:1979   */\n  0x20\n    /* \"#utility.yul\":1974:1975   */\n  dup2\n    /* \"#utility.yul\":1970:1980   */\n  add\n    /* \"#utility.yul\":1965:1980   */\n  swap1\n  pop\n    /* \"#utility.yul\":1941:2054   */\n  jump(tag_54)\ntag_56:\n    /* \"#utility.yul\":2072:2078   */\n  dup4\n    /* \"#utility.yul\":2069:2070   */\n  dup2\n    /* \"#utility.yul\":2066:2079   */\n  gt\n    /* \"#utility.yul\":2063:2065   */\n  iszero\n  tag_57\n  jumpi\n    /* \"#utility.yul\":2152:2153   */\n  0x00\n    /* \"#utility.yul\":2143:2149   */\n  dup5\n    /* \"#utility.yul\":2138:2141   */\n  dup5\n    /* \"#utility.yul\":2134:2150   */\n  add\n    /* \"#utility.yul\":2127:2154   */\n  mstore\n    /* \"#utility.yul\":2063:2065   */\ntag_57:\n    /* \"#utility.yul\":1912:2170   */\n  pop\n  pop\n  pop\n  pop\n  jump\t// out\n    /* \"#utility.yul\":2176:2496   */\ntag_11:\n    /* \"#utility.yul\":2220:2226   */\n  0x00\n    /* \"#utility.yul\":2257:2258   */\n  0x02\n    /* \"#utility.yul\":2251:2255   */\n  dup3\n    /* \"#utility.yul\":2247:2259   */\n  div\n    /* \"#utility.yul\":2237:2259   */\n  swap1\n  pop\n    /* \"#utility.yul\":2304:2305   */\n  0x01\n    /* \"#utility.yul\":2298:2302   */\n  dup3\n    /* \"#utility.yul\":2294:2306   */\n  and\n    /* \"#utility.yul\":2325:2343   */\n  dup1\n    /* \"#utility.yul\":2315:2317   */\n  tag_59\n  jumpi\n    /* \"#utility.yul\":2381:2385   */\n  0x7f\n    /* \"#utility.yul\":2373:2379   */\n  dup3\n    /* \"#utility.yul\":2369:2386   */\n  and\n    /* \"#utility.yul\":2359:2386   */\n  swap2\n  pop\n    /* \"#utility.yul\":2315:2317   */\ntag_59:\n    /* \"#utility.yul\":2443:2445   */\n  0x20\n    /* \"#utility.yul\":2435:2441   */\n  dup3\n    /* \"#utility.yul\":2432:2446   */\n  lt\n    /* \"#utility.yul\":2412:2430   */\n  dup2\n    /* \"#utility.yul\":2409:2447   */\n  eq\n    /* \"#utility.yul\":2406:2408   */\n  iszero\n  tag_60\n  jumpi\n    /* \"#utility.yul\":2462:2480   */\n  tag_61\n  tag_62\n  jump\t// in\ntag_61:\n    /* \"#utility.yul\":2406:2408   */\ntag_60:\n    /* \"#utility.yul\":2227:2496   */\n  pop\n  swap2\n  swap1\n  pop\n  jump\t// out\n    /* \"#utility.yul\":2502:2783   */\ntag_45:\n    /* \"#utility.yul\":2585:2612   */\n  tag_64\n    /* \"#utility.yul\":2607:2611   */\n  dup3\n    /* \"#utility.yul\":2585:2612   */\n  tag_52\n  jump\t// in\ntag_64:\n    /* \"#utility.yul\":2577:2583   */\n  dup2\n    /* \"#utility.yul\":2573:2613   */\n  add\n    /* \"#utility.yul\":2715:2721   */\n  dup2\n    /* \"#utility.yul\":2703:2713   */\n  dup2\n    /* \"#utility.yul\":2700:2722   */\n  lt\n    /* \"#utility.yul\":2679:2697   */\n  0xffffffffffffffff\n    /* \"#utility.yul\":2667:2677   */\n  dup3\n    /* \"#utility.yul\":2664:2698   */\n  gt\n    /* \"#utility.yul\":2661:2723   */\n  or\n    /* \"#utility.yul\":2658:2660   */\n  iszero\n  tag_65\n  jumpi\n    /* \"#utility.yul\":2726:2744   */\n  tag_66\n  tag_50\n  jump\t// in\ntag_66:\n    /* \"#utility.yul\":2658:2660   */\ntag_65:\n    /* \"#utility.yul\":2766:2776   */\n  dup1\n    /* \"#utility.yul\":2762:2764   */\n  0x40\n    /* \"#utility.yul\":2755:2777   */\n  mstore\n    /* \"#utility.yul\":2545:2783   */\n  pop\n  pop\n  pop\n  jump\t// out\n    /* \"#utility.yul\":2789:2969   */\ntag_62:\n    /* \"#utility.yul\":2837:2914   */\n  0x4e487b7100000000000000000000000000000000000000000000000000000000\n    /* \"#utility.yul\":2834:2835   */\n  0x00\n    /* \"#utility.yul\":2827:2915   */\n  mstore\n    /* \"#utility.yul\":2934:2938   */\n  0x22\n    /* \"#utility.yul\":2931:2932   */\n  0x04\n    /* \"#utility.yul\":2924:2939   */\n  mstore\n    /* \"#utility.yul\":2958:2962   */\n  0x24\n    /* \"#utility.yul\":2955:2956   */\n  0x00\n    /* \"#utility.yul\":2948:2963   */\n  revert\n    /* \"#utility.yul\":2975:3155   */\ntag_50:\n    /* \"#utility.yul\":3023:3100   */\n  0x4e487b7100000000000000000000000000000000000000000000000000000000\n    /* \"#utility.yul\":3020:3021   */\n  0x00\n    /* \"#utility.yul\":3013:3101   */\n  mstore\n    /* \"#utility.yul\":3120:3124   */\n  0x41\n    /* \"#utility.yul\":3117:3118   */\n  0x04\n    /* \"#utility.yul\":3110:3125   */\n  mstore\n    /* \"#utility.yul\":3144:3148   */\n  0x24\n    /* \"#utility.yul\":3141:3142   */\n  0x00\n    /* \"#utility.yul\":3134:3149   */\n  revert\n    /* \"#utility.yul\":3161:3263   */\ntag_52:\n    /* \"#utility.yul\":3202:3208   */\n  0x00\n    /* \"#utility.yul\":3253:3255   */\n  0x1f\n    /* \"#utility.yul\":3249:3256   */\n  not\n    /* \"#utility.yul\":3244:3246   */\n  0x1f\n    /* \"#utility.yul\":3237:3242   */\n  dup4\n    /* \"#utility.yul\":3233:3247   */\n  add\n    /* \"#utility.yul\":3229:3257   */\n  and\n    /* \"#utility.yul\":3219:3257   */\n  swap1\n  pop\n    /* \"#utility.yul\":3209:3263   */\n  swap2\n  swap1\n  pop\n  jump\t// out\n    /* \"contracts/nft.sol\":677:10741  contract nft is Context, ERC165, IERC721, IERC721Metadata {\r... */\ntag_9:\n  dataSize(sub_0)\n  dup1\n  dataOffset(sub_0)\n  0x00\n  codecopy\n  0x00\n  return\nstop\n\nsub_0: assembly {\n        /* \"contracts/nft.sol\":677:10741  contract nft is Context, ERC165, IERC721, IERC721Metadata {\r... */\n      mstore(0x40, 0x80)\n      callvalue\n      dup1\n      iszero\n      tag_1\n      jumpi\n      0x00\n      dup1\n      revert\n    tag_1:\n      pop\n      jumpi(tag_2, lt(calldatasize, 0x04))\n      shr(0xe0, calldataload(0x00))\n      dup1\n      0x70a08231\n      gt\n      tag_19\n      jumpi\n      dup1\n      0xb88d4fde\n      gt\n      tag_20\n      jumpi\n      dup1\n      0xb88d4fde\n      eq\n      tag_15\n      jumpi\n      dup1\n      0xc87b56dd\n      eq\n      tag_16\n      jumpi\n      dup1\n      0xe985e9c5\n      eq\n      tag_17\n      jumpi\n      dup1\n      0xee48cda2\n      eq\n      tag_18\n      jumpi\n      jump(tag_2)\n    tag_20:\n      dup1\n      0x70a08231\n      eq\n      tag_11\n      jumpi\n      dup1\n      0x7d84b863\n      eq\n      tag_12\n      jumpi\n      dup1\n      0x95d89b41\n      eq\n      tag_13\n      jumpi\n      dup1\n      0xa22cb465\n      eq\n      tag_14\n      jumpi\n      jump(tag_2)\n    tag_19:\n      dup1\n      0x23b872dd\n      gt\n      tag_21\n      jumpi\n      dup1\n      0x23b872dd\n      eq\n      tag_7\n      jumpi\n      dup1\n      0x42842e0e\n      eq\n      tag_8\n      jumpi\n      dup1\n      0x52e04825\n      eq\n      tag_9\n      jumpi\n      dup1\n      0x6352211e\n      eq\n      tag_10\n      jumpi\n      jump(tag_2)\n    tag_21:\n      dup1\n      0x01ffc9a7\n      eq\n      tag_3\n      jumpi\n      dup1\n      0x06fdde03\n      eq\n      tag_4\n      jumpi\n      dup1\n      0x081812fc\n      eq\n      tag_5\n      jumpi\n      dup1\n      0x095ea7b3\n      eq\n      tag_6\n      jumpi\n    tag_2:\n      0x00\n      dup1\n      revert\n        /* \"contracts/nft.sol\":1482:1787  function supportsInterface(bytes4 interfaceId) public view virtual override(ERC165, IERC165) returns (bool) {\r... */\n    tag_3:\n      tag_22\n      0x04\n      dup1\n      calldatasize\n      sub\n      dup2\n      add\n      swap1\n      tag_23\n      swap2\n      swap1\n      tag_24\n      jump\t// in\n    tag_23:\n      tag_25\n      jump\t// in\n    tag_22:\n      mload(0x40)\n      tag_26\n      swap2\n      swap1\n      tag_27\n      jump\t// in\n    tag_26:\n      mload(0x40)\n      dup1\n      swap2\n      sub\n      swap1\n      return\n        /* \"contracts/nft.sol\":2723:2823  function name() public view virtual override returns (string memory) {\r... */\n    tag_4:\n      tag_28\n      tag_29\n      jump\t// in\n    tag_28:\n      mload(0x40)\n      tag_30\n      swap2\n      swap1\n      tag_31\n      jump\t// in\n    tag_30:\n      mload(0x40)\n      dup1\n      swap2\n      sub\n      swap1\n      return\n        /* \"contracts/nft.sol\":3759:3930  function getApproved(uint256 tokenId) public view virtual override returns (address) {\r... */\n    tag_5:\n      tag_32\n      0x04\n      dup1\n      calldatasize\n      sub\n      dup2\n      add\n      swap1\n      tag_33\n      swap2\n      swap1\n      tag_34\n      jump\t// in\n    tag_33:\n      tag_35\n      jump\t// in\n    tag_32:\n      mload(0x40)\n      tag_36\n      swap2\n      swap1\n      tag_37\n      jump\t// in\n    tag_36:\n      mload(0x40)\n      dup1\n      swap2\n      sub\n      swap1\n      return\n        /* \"contracts/nft.sol\":3335:3748  function approve(address to, uint256 tokenId) public virtual override {\r... */\n    tag_6:\n      tag_38\n      0x04\n      dup1\n      calldatasize\n      sub\n      dup2\n      add\n      swap1\n      tag_39\n      swap2\n      swap1\n      tag_40\n      jump\t// in\n    tag_39:\n      tag_41\n      jump\t// in\n    tag_38:\n      stop\n        /* \"contracts/nft.sol\":4281:4563  function transferFrom(\r... */\n    tag_7:\n      tag_42\n      0x04\n      dup1\n      calldatasize\n      sub\n      dup2\n      add\n      swap1\n      tag_43\n      swap2\n      swap1\n      tag_44\n      jump\t// in\n    tag_43:\n      tag_45\n      jump\t// in\n    tag_42:\n      stop\n        /* \"contracts/nft.sol\":4573:4758  function safeTransferFrom(\r... */\n    tag_8:\n      tag_46\n      0x04\n      dup1\n      calldatasize\n      sub\n      dup2\n      add\n      swap1\n      tag_47\n      swap2\n      swap1\n      tag_44\n      jump\t// in\n    tag_47:\n      tag_48\n      jump\t// in\n    tag_46:\n      stop\n        /* \"contracts/nft.sol\":2245:2493  function collaboratotOf(uint256 tokenId) public view virtual returns (address) {\r... */\n    tag_9:\n      tag_49\n      0x04\n      dup1\n      calldatasize\n      sub\n      dup2\n      add\n      swap1\n      tag_50\n      swap2\n      swap1\n      tag_34\n      jump\t// in\n    tag_50:\n      tag_51\n      jump\t// in\n    tag_49:\n      mload(0x40)\n      tag_52\n      swap2\n      swap1\n      tag_37\n      jump\t// in\n    tag_52:\n      mload(0x40)\n      dup1\n      swap2\n      sub\n      swap1\n      return\n        /* \"contracts/nft.sol\":2014:2236  function ownerOf(uint256 tokenId) public view virtual override returns (address) {\r... */\n    tag_10:\n      tag_53\n      0x04\n      dup1\n      calldatasize\n      sub\n      dup2\n      add\n      swap1\n      tag_54\n      swap2\n      swap1\n      tag_34\n      jump\t// in\n    tag_54:\n      tag_55\n      jump\t// in\n    tag_53:\n      mload(0x40)\n      tag_56\n      swap2\n      swap1\n      tag_37\n      jump\t// in\n    tag_56:\n      mload(0x40)\n      dup1\n      swap2\n      sub\n      swap1\n      return\n        /* \"contracts/nft.sol\":1797:2004  function balanceOf(address owner) public view virtual override returns (uint256) {\r... */\n    tag_11:\n      tag_57\n      0x04\n      dup1\n      calldatasize\n      sub\n      dup2\n      add\n      swap1\n      tag_58\n      swap2\n      swap1\n      tag_59\n      jump\t// in\n    tag_58:\n      tag_60\n      jump\t// in\n    tag_57:\n      mload(0x40)\n      tag_61\n      swap2\n      swap1\n      tag_62\n      jump\t// in\n    tag_61:\n      mload(0x40)\n      dup1\n      swap2\n      sub\n      swap1\n      return\n        /* \"contracts/nft.sol\":5099:5323  function mint(address to,address collaborator,uint256  collaboratorPercent,uint tokenId,string memory uri) public{\r... */\n    tag_12:\n      tag_63\n      0x04\n      dup1\n      calldatasize\n      sub\n      dup2\n      add\n      swap1\n      tag_64\n      swap2\n      swap1\n      tag_65\n      jump\t// in\n    tag_64:\n      tag_66\n      jump\t// in\n    tag_63:\n      stop\n        /* \"contracts/nft.sol\":2832:2936  function symbol() public view virtual override returns (string memory) {\r... */\n    tag_13:\n      tag_67\n      tag_68\n      jump\t// in\n    tag_67:\n      mload(0x40)\n      tag_69\n      swap2\n      swap1\n      tag_31\n      jump\t// in\n    tag_69:\n      mload(0x40)\n      dup1\n      swap2\n      sub\n      swap1\n      return\n        /* \"contracts/nft.sol\":3942:4097  function setApprovalForAll(address operator, bool approved) public virtual override {\r... */\n    tag_14:\n      tag_70\n      0x04\n      dup1\n      calldatasize\n      sub\n      dup2\n      add\n      swap1\n      tag_71\n      swap2\n      swap1\n      tag_72\n      jump\t// in\n    tag_71:\n      tag_73\n      jump\t// in\n    tag_70:\n      stop\n        /* \"contracts/nft.sol\":4768:5090  function safeTransferFrom(\r... */\n    tag_15:\n      tag_74\n      0x04\n      dup1\n      calldatasize\n      sub\n      dup2\n      add\n      swap1\n      tag_75\n      swap2\n      swap1\n      tag_76\n      jump\t// in\n    tag_75:\n      tag_77\n      jump\t// in\n    tag_74:\n      stop\n        /* \"contracts/nft.sol\":2944:3225  function tokenURI(uint256 tokenId) public view virtual override returns (string memory) {\r... */\n    tag_16:\n      tag_78\n      0x04\n      dup1\n      calldatasize\n      sub\n      dup2\n      add\n      swap1\n      tag_79\n      swap2\n      swap1\n      tag_34\n      jump\t// in\n    tag_79:\n      tag_80\n      jump\t// in\n    tag_78:\n      mload(0x40)\n      tag_81\n      swap2\n      swap1\n      tag_31\n      jump\t// in\n    tag_81:\n      mload(0x40)\n      dup1\n      swap2\n      sub\n      swap1\n      return\n        /* \"contracts/nft.sol\":4107:4271  function isApprovedForAll(address owner, address operator) public view virtual override returns (bool) {\r... */\n    tag_17:\n      tag_82\n      0x04\n      dup1\n      calldatasize\n      sub\n      dup2\n      add\n      swap1\n      tag_83\n      swap2\n      swap1\n      tag_84\n      jump\t// in\n    tag_83:\n      tag_85\n      jump\t// in\n    tag_82:\n      mload(0x40)\n      tag_86\n      swap2\n      swap1\n      tag_27\n      jump\t// in\n    tag_86:\n      mload(0x40)\n      dup1\n      swap2\n      sub\n      swap1\n      return\n        /* \"contracts/nft.sol\":2501:2715  function collaboratotPercentageOf(uint256 tokenId) public view virtual returns (uint256) {\r... */\n    tag_18:\n      tag_87\n      0x04\n      dup1\n      calldatasize\n      sub\n      dup2\n      add\n      swap1\n      tag_88\n      swap2\n      swap1\n      tag_34\n      jump\t// in\n    tag_88:\n      tag_89\n      jump\t// in\n    tag_87:\n      mload(0x40)\n      tag_90\n      swap2\n      swap1\n      tag_62\n      jump\t// in\n    tag_90:\n      mload(0x40)\n      dup1\n      swap2\n      sub\n      swap1\n      return\n        /* \"contracts/nft.sol\":1482:1787  function supportsInterface(bytes4 interfaceId) public view virtual override(ERC165, IERC165) returns (bool) {\r... */\n    tag_25:\n        /* \"contracts/nft.sol\":1584:1588  bool */\n      0x00\n        /* \"contracts/nft.sol\":1636:1661  type(IERC721).interfaceId */\n      0x80ac58cd00000000000000000000000000000000000000000000000000000000\n        /* \"contracts/nft.sol\":1621:1661  interfaceId == type(IERC721).interfaceId */\n      not(0xffffffffffffffffffffffffffffffffffffffffffffffffffffffff)\n      and\n        /* \"contracts/nft.sol\":1621:1632  interfaceId */\n      dup3\n        /* \"contracts/nft.sol\":1621:1661  interfaceId == type(IERC721).interfaceId */\n      not(0xffffffffffffffffffffffffffffffffffffffffffffffffffffffff)\n      and\n      eq\n        /* \"contracts/nft.sol\":1621:1726  interfaceId == type(IERC721).interfaceId ||\r... */\n      dup1\n      tag_92\n      jumpi\n      pop\n        /* \"contracts/nft.sol\":1693:1726  type(IERC721Metadata).interfaceId */\n      0x5b5e139f00000000000000000000000000000000000000000000000000000000\n        /* \"contracts/nft.sol\":1678:1726  interfaceId == type(IERC721Metadata).interfaceId */\n      not(0xffffffffffffffffffffffffffffffffffffffffffffffffffffffff)\n      and\n        /* \"contracts/nft.sol\":1678:1689  interfaceId */\n      dup3\n        /* \"contracts/nft.sol\":1678:1726  interfaceId == type(IERC721Metadata).interfaceId */\n      not(0xffffffffffffffffffffffffffffffffffffffffffffffffffffffff)\n      and\n      eq\n        /* \"contracts/nft.sol\":1621:1726  interfaceId == type(IERC721).interfaceId ||\r... */\n    tag_92:\n        /* \"contracts/nft.sol\":1621:1779  interfaceId == type(IERC721).interfaceId ||\r... */\n      dup1\n      tag_93\n      jumpi\n      pop\n        /* \"contracts/nft.sol\":1743:1779  super.supportsInterface(interfaceId) */\n      tag_94\n        /* \"contracts/nft.sol\":1767:1778  interfaceId */\n      dup3\n        /* \"contracts/nft.sol\":1743:1766  super.supportsInterface */\n      tag_95\n        /* \"contracts/nft.sol\":1743:1779  super.supportsInterface(interfaceId) */\n      jump\t// in\n    tag_94:\n        /* \"contracts/nft.sol\":1621:1779  interfaceId == type(IERC721).interfaceId ||\r... */\n    tag_93:\n        /* \"contracts/nft.sol\":1601:1779  return\r... */\n      swap1\n      pop\n        /* \"contracts/nft.sol\":1482:1787  function supportsInterface(bytes4 interfaceId) public view virtual override(ERC165, IERC165) returns (bool) {\r... */\n      swap2\n      swap1\n      pop\n      jump\t// out\n        /* \"contracts/nft.sol\":2723:2823  function name() public view virtual override returns (string memory) {\r... */\n    tag_29:\n        /* \"contracts/nft.sol\":2777:2790  string memory */\n      0x60\n        /* \"contracts/nft.sol\":2810:2815  _name */\n      0x00\n        /* \"contracts/nft.sol\":2803:2815  return _name */\n      dup1\n      sload\n      tag_97\n      swap1\n      tag_98\n      jump\t// in\n    tag_97:\n      dup1\n      0x1f\n      add\n      0x20\n      dup1\n      swap2\n      div\n      mul\n      0x20\n      add\n      mload(0x40)\n      swap1\n      dup2\n      add\n      0x40\n      mstore\n      dup1\n      swap3\n      swap2\n      swap1\n      dup2\n      dup2\n      mstore\n      0x20\n      add\n      dup3\n      dup1\n      sload\n      tag_99\n      swap1\n      tag_98\n      jump\t// in\n    tag_99:\n      dup1\n      iszero\n      tag_100\n      jumpi\n      dup1\n      0x1f\n      lt\n      tag_101\n      jumpi\n      0x0100\n      dup1\n      dup4\n      sload\n      div\n      mul\n      dup4\n      mstore\n      swap2\n      0x20\n      add\n      swap2\n      jump(tag_100)\n    tag_101:\n      dup3\n      add\n      swap2\n      swap1\n      0x00\n      mstore\n      keccak256(0x00, 0x20)\n      swap1\n    tag_102:\n      dup2\n      sload\n      dup2\n      mstore\n      swap1\n      0x01\n      add\n      swap1\n      0x20\n      add\n      dup1\n      dup4\n      gt\n      tag_102\n      jumpi\n      dup3\n      swap1\n      sub\n      0x1f\n      and\n      dup3\n      add\n      swap2\n    tag_100:\n      pop\n      pop\n      pop\n      pop\n      pop\n      swap1\n      pop\n        /* \"contracts/nft.sol\":2723:2823  function name() public view virtual override returns (string memory) {\r... */\n      swap1\n      jump\t// out\n        /* \"contracts/nft.sol\":3759:3930  function getApproved(uint256 tokenId) public view virtual override returns (address) {\r... */\n    tag_35:\n        /* \"contracts/nft.sol\":3835:3842  address */\n      0x00\n        /* \"contracts/nft.sol\":3855:3878  _requireMinted(tokenId) */\n      tag_104\n        /* \"contracts/nft.sol\":3870:3877  tokenId */\n      dup3\n        /* \"contracts/nft.sol\":3855:3869  _requireMinted */\n      tag_105\n        /* \"contracts/nft.sol\":3855:3878  _requireMinted(tokenId) */\n      jump\t// in\n    tag_104:\n        /* \"contracts/nft.sol\":3898:3913  _tokenApprovals */\n      0x06\n        /* \"contracts/nft.sol\":3898:3922  _tokenApprovals[tokenId] */\n      0x00\n        /* \"contracts/nft.sol\":3914:3921  tokenId */\n      dup4\n        /* \"contracts/nft.sol\":3898:3922  _tokenApprovals[tokenId] */\n      dup2\n      mstore\n      0x20\n      add\n      swap1\n      dup2\n      mstore\n      0x20\n      add\n      0x00\n      keccak256\n      0x00\n      swap1\n      sload\n      swap1\n      0x0100\n      exp\n      swap1\n      div\n      0xffffffffffffffffffffffffffffffffffffffff\n      and\n        /* \"contracts/nft.sol\":3891:3922  return _tokenApprovals[tokenId] */\n      swap1\n      pop\n        /* \"contracts/nft.sol\":3759:3930  function getApproved(uint256 tokenId) public view virtual override returns (address) {\r... */\n      swap2\n      swap1\n      pop\n      jump\t// out\n        /* \"contracts/nft.sol\":3335:3748  function approve(address to, uint256 tokenId) public virtual override {\r... */\n    tag_41:\n        /* \"contracts/nft.sol\":3416:3429  address owner */\n      0x00\n        /* \"contracts/nft.sol\":3432:3452  nft.ownerOf(tokenId) */\n      tag_107\n        /* \"contracts/nft.sol\":3444:3451  tokenId */\n      dup3\n        /* \"contracts/nft.sol\":3432:3443  nft.ownerOf */\n      tag_55\n        /* \"contracts/nft.sol\":3432:3452  nft.ownerOf(tokenId) */\n      jump\t// in\n    tag_107:\n        /* \"contracts/nft.sol\":3416:3452  address owner = nft.ownerOf(tokenId) */\n      swap1\n      pop\n        /* \"contracts/nft.sol\":3477:3482  owner */\n      dup1\n        /* \"contracts/nft.sol\":3471:3482  to != owner */\n      0xffffffffffffffffffffffffffffffffffffffff\n      and\n        /* \"contracts/nft.sol\":3471:3473  to */\n      dup4\n        /* \"contracts/nft.sol\":3471:3482  to != owner */\n      0xffffffffffffffffffffffffffffffffffffffff\n      and\n      eq\n      iszero\n        /* \"contracts/nft.sol\":3463:3520  require(to != owner, \"ERC721: approval to current owner\") */\n      tag_108\n      jumpi\n      mload(0x40)\n      0x08c379a000000000000000000000000000000000000000000000000000000000\n      dup2\n      mstore\n      0x04\n      add\n      tag_109\n      swap1\n      tag_110\n      jump\t// in\n    tag_109:\n      mload(0x40)\n      dup1\n      swap2\n      sub\n      swap1\n      revert\n    tag_108:\n        /* \"contracts/nft.sol\":3571:3576  owner */\n      dup1\n        /* \"contracts/nft.sol\":3555:3576  _msgSender() == owner */\n      0xffffffffffffffffffffffffffffffffffffffff\n      and\n        /* \"contracts/nft.sol\":3555:3567  _msgSender() */\n      tag_111\n        /* \"contracts/nft.sol\":3555:3565  _msgSender */\n      tag_112\n        /* \"contracts/nft.sol\":3555:3567  _msgSender() */\n      jump\t// in\n    tag_111:\n        /* \"contracts/nft.sol\":3555:3576  _msgSender() == owner */\n      0xffffffffffffffffffffffffffffffffffffffff\n      and\n      eq\n        /* \"contracts/nft.sol\":3555:3617  _msgSender() == owner || isApprovedForAll(owner, _msgSender()) */\n      dup1\n      tag_113\n      jumpi\n      pop\n        /* \"contracts/nft.sol\":3580:3617  isApprovedForAll(owner, _msgSender()) */\n      tag_114\n        /* \"contracts/nft.sol\":3597:3602  owner */\n      dup2\n        /* \"contracts/nft.sol\":3604:3616  _msgSender() */\n      tag_115\n        /* \"contracts/nft.sol\":3604:3614  _msgSender */\n      tag_112\n        /* \"contracts/nft.sol\":3604:3616  _msgSender() */\n      jump\t// in\n    tag_115:\n        /* \"contracts/nft.sol\":3580:3596  isApprovedForAll */\n      tag_85\n        /* \"contracts/nft.sol\":3580:3617  isApprovedForAll(owner, _msgSender()) */\n      jump\t// in\n    tag_114:\n        /* \"contracts/nft.sol\":3555:3617  _msgSender() == owner || isApprovedForAll(owner, _msgSender()) */\n    tag_113:\n        /* \"contracts/nft.sol\":3533:3706  require(\r... */\n      tag_116\n      jumpi\n      mload(0x40)\n      0x08c379a000000000000000000000000000000000000000000000000000000000\n      dup2\n      mstore\n      0x04\n      add\n      tag_117\n      swap1\n      tag_118\n      jump\t// in\n    tag_117:\n      mload(0x40)\n      dup1\n      swap2\n      sub\n      swap1\n      revert\n    tag_116:\n        /* \"contracts/nft.sol\":3719:3740  _approve(to, tokenId) */\n      tag_119\n        /* \"contracts/nft.sol\":3728:3730  to */\n      dup4\n        /* \"contracts/nft.sol\":3732:3739  tokenId */\n      dup4\n        /* \"contracts/nft.sol\":3719:3727  _approve */\n      tag_120\n        /* \"contracts/nft.sol\":3719:3740  _approve(to, tokenId) */\n      jump\t// in\n    tag_119:\n        /* \"contracts/nft.sol\":3335:3748  function approve(address to, uint256 tokenId) public virtual override {\r... */\n      pop\n      pop\n      pop\n      jump\t// out\n        /* \"contracts/nft.sol\":4281:4563  function transferFrom(\r... */\n    tag_45:\n        /* \"contracts/nft.sol\":4423:4464  _isApprovedOrOwner(_msgSender(), tokenId) */\n      tag_122\n        /* \"contracts/nft.sol\":4442:4454  _msgSender() */\n      tag_123\n        /* \"contracts/nft.sol\":4442:4452  _msgSender */\n      tag_112\n        /* \"contracts/nft.sol\":4442:4454  _msgSender() */\n      jump\t// in\n    tag_123:\n        /* \"contracts/nft.sol\":4456:4463  tokenId */\n      dup3\n        /* \"contracts/nft.sol\":4423:4441  _isApprovedOrOwner */\n      tag_124\n        /* \"contracts/nft.sol\":4423:4464  _isApprovedOrOwner(_msgSender(), tokenId) */\n      jump\t// in\n    tag_122:\n        /* \"contracts/nft.sol\":4415:4514  require(_isApprovedOrOwner(_msgSender(), tokenId), \"ERC721: caller is not token owner or approved\") */\n      tag_125\n      jumpi\n      mload(0x40)\n      0x08c379a000000000000000000000000000000000000000000000000000000000\n      dup2\n      mstore\n      0x04\n      add\n      tag_126\n      swap1\n      tag_127\n      jump\t// in\n    tag_126:\n      mload(0x40)\n      dup1\n      swap2\n      sub\n      swap1\n      revert\n    tag_125:\n        /* \"contracts/nft.sol\":4527:4555  _transfer(from, to, tokenId) */\n      tag_128\n        /* \"contracts/nft.sol\":4537:4541  from */\n      dup4\n        /* \"contracts/nft.sol\":4543:4545  to */\n      dup4\n        /* \"contracts/nft.sol\":4547:4554  tokenId */\n      dup4\n        /* \"contracts/nft.sol\":4527:4536  _transfer */\n      tag_129\n        /* \"contracts/nft.sol\":4527:4555  _transfer(from, to, tokenId) */\n      jump\t// in\n    tag_128:\n        /* \"contracts/nft.sol\":4281:4563  function transferFrom(\r... */\n      pop\n      pop\n      pop\n      jump\t// out\n        /* \"contracts/nft.sol\":4573:4758  function safeTransferFrom(\r... */\n    tag_48:\n        /* \"contracts/nft.sol\":4711:4750  safeTransferFrom(from, to, tokenId, \"\") */\n      tag_131\n        /* \"contracts/nft.sol\":4728:4732  from */\n      dup4\n        /* \"contracts/nft.sol\":4734:4736  to */\n      dup4\n        /* \"contracts/nft.sol\":4738:4745  tokenId */\n      dup4\n        /* \"contracts/nft.sol\":4711:4750  safeTransferFrom(from, to, tokenId, \"\") */\n      mload(0x40)\n      dup1\n      0x20\n      add\n      0x40\n      mstore\n      dup1\n      0x00\n      dup2\n      mstore\n      pop\n        /* \"contracts/nft.sol\":4711:4727  safeTransferFrom */\n      tag_77\n        /* \"contracts/nft.sol\":4711:4750  safeTransferFrom(from, to, tokenId, \"\") */\n      jump\t// in\n    tag_131:\n        /* \"contracts/nft.sol\":4573:4758  function safeTransferFrom(\r... */\n      pop\n      pop\n      pop\n      jump\t// out\n        /* \"contracts/nft.sol\":2245:2493  function collaboratotOf(uint256 tokenId) public view virtual returns (address) {\r... */\n    tag_51:\n        /* \"contracts/nft.sol\":2315:2322  address */\n      0x00\n        /* \"contracts/nft.sol\":2335:2355  address collaborator */\n      dup1\n        /* \"contracts/nft.sol\":2358:2372  _collaborators */\n      0x03\n        /* \"contracts/nft.sol\":2358:2381  _collaborators[tokenId] */\n      0x00\n        /* \"contracts/nft.sol\":2373:2380  tokenId */\n      dup5\n        /* \"contracts/nft.sol\":2358:2381  _collaborators[tokenId] */\n      dup2\n      mstore\n      0x20\n      add\n      swap1\n      dup2\n      mstore\n      0x20\n      add\n      0x00\n      keccak256\n      0x00\n      swap1\n      sload\n      swap1\n      0x0100\n      exp\n      swap1\n      div\n      0xffffffffffffffffffffffffffffffffffffffff\n      and\n        /* \"contracts/nft.sol\":2335:2381  address collaborator = _collaborators[tokenId] */\n      swap1\n      pop\n        /* \"contracts/nft.sol\":2424:2425  0 */\n      0x00\n        /* \"contracts/nft.sol\":2400:2426  collaborator != address(0) */\n      0xffffffffffffffffffffffffffffffffffffffff\n      and\n        /* \"contracts/nft.sol\":2400:2412  collaborator */\n      dup2\n        /* \"contracts/nft.sol\":2400:2426  collaborator != address(0) */\n      0xffffffffffffffffffffffffffffffffffffffff\n      and\n      eq\n      iszero\n        /* \"contracts/nft.sol\":2392:2455  require(collaborator != address(0), \"ERC721: invalid token ID\") */\n      tag_133\n      jumpi\n      mload(0x40)\n      0x08c379a000000000000000000000000000000000000000000000000000000000\n      dup2\n      mstore\n      0x04\n      add\n      tag_134\n      swap1\n      tag_135\n      jump\t// in\n    tag_134:\n      mload(0x40)\n      dup1\n      swap2\n      sub\n      swap1\n      revert\n    tag_133:\n        /* \"contracts/nft.sol\":2473:2485  collaborator */\n      dup1\n        /* \"contracts/nft.sol\":2466:2485  return collaborator */\n      swap2\n      pop\n      pop\n        /* \"contracts/nft.sol\":2245:2493  function collaboratotOf(uint256 tokenId) public view virtual returns (address) {\r... */\n      swap2\n      swap1\n      pop\n      jump\t// out\n        /* \"contracts/nft.sol\":2014:2236  function ownerOf(uint256 tokenId) public view virtual override returns (address) {\r... */\n    tag_55:\n        /* \"contracts/nft.sol\":2086:2093  address */\n      0x00\n        /* \"contracts/nft.sol\":2106:2119  address owner */\n      dup1\n        /* \"contracts/nft.sol\":2122:2129  _owners */\n      0x02\n        /* \"contracts/nft.sol\":2122:2138  _owners[tokenId] */\n      0x00\n        /* \"contracts/nft.sol\":2130:2137  tokenId */\n      dup5\n        /* \"contracts/nft.sol\":2122:2138  _owners[tokenId] */\n      dup2\n      mstore\n      0x20\n      add\n      swap1\n      dup2\n      mstore\n      0x20\n      add\n      0x00\n      keccak256\n      0x00\n      swap1\n      sload\n      swap1\n      0x0100\n      exp\n      swap1\n      div\n      0xffffffffffffffffffffffffffffffffffffffff\n      and\n        /* \"contracts/nft.sol\":2106:2138  address owner = _owners[tokenId] */\n      swap1\n      pop\n        /* \"contracts/nft.sol\":2174:2175  0 */\n      0x00\n        /* \"contracts/nft.sol\":2157:2176  owner != address(0) */\n      0xffffffffffffffffffffffffffffffffffffffff\n      and\n        /* \"contracts/nft.sol\":2157:2162  owner */\n      dup2\n        /* \"contracts/nft.sol\":2157:2176  owner != address(0) */\n      0xffffffffffffffffffffffffffffffffffffffff\n      and\n      eq\n      iszero\n        /* \"contracts/nft.sol\":2149:2205  require(owner != address(0), \"ERC721: invalid token ID\") */\n      tag_137\n      jumpi\n      mload(0x40)\n      0x08c379a000000000000000000000000000000000000000000000000000000000\n      dup2\n      mstore\n      0x04\n      add\n      tag_138\n      swap1\n      tag_135\n      jump\t// in\n    tag_138:\n      mload(0x40)\n      dup1\n      swap2\n      sub\n      swap1\n      revert\n    tag_137:\n        /* \"contracts/nft.sol\":2223:2228  owner */\n      dup1\n        /* \"contracts/nft.sol\":2216:2228  return owner */\n      swap2\n      pop\n      pop\n        /* \"contracts/nft.sol\":2014:2236  function ownerOf(uint256 tokenId) public view virtual override returns (address) {\r... */\n      swap2\n      swap1\n      pop\n      jump\t// out\n        /* \"contracts/nft.sol\":1797:2004  function balanceOf(address owner) public view virtual override returns (uint256) {\r... */\n    tag_60:\n        /* \"contracts/nft.sol\":1869:1876  uint256 */\n      0x00\n        /* \"contracts/nft.sol\":1914:1915  0 */\n      dup1\n        /* \"contracts/nft.sol\":1897:1916  owner != address(0) */\n      0xffffffffffffffffffffffffffffffffffffffff\n      and\n        /* \"contracts/nft.sol\":1897:1902  owner */\n      dup3\n        /* \"contracts/nft.sol\":1897:1916  owner != address(0) */\n      0xffffffffffffffffffffffffffffffffffffffff\n      and\n      eq\n      iszero\n        /* \"contracts/nft.sol\":1889:1962  require(owner != address(0), \"ERC721: address zero is not a valid owner\") */\n      tag_140\n      jumpi\n      mload(0x40)\n      0x08c379a000000000000000000000000000000000000000000000000000000000\n      dup2\n      mstore\n      0x04\n      add\n      tag_141\n      swap1\n      tag_142\n      jump\t// in\n    tag_141:\n      mload(0x40)\n      dup1\n      swap2\n      sub\n      swap1\n      revert\n    tag_140:\n        /* \"contracts/nft.sol\":1980:1989  _balances */\n      0x05\n        /* \"contracts/nft.sol\":1980:1996  _balances[owner] */\n      0x00\n        /* \"contracts/nft.sol\":1990:1995  owner */\n      dup4\n        /* \"contracts/nft.sol\":1980:1996  _balances[owner] */\n      0xffffffffffffffffffffffffffffffffffffffff\n      and\n      0xffffffffffffffffffffffffffffffffffffffff\n      and\n      dup2\n      mstore\n      0x20\n      add\n      swap1\n      dup2\n      mstore\n      0x20\n      add\n      0x00\n      keccak256\n      sload\n        /* \"contracts/nft.sol\":1973:1996  return _balances[owner] */\n      swap1\n      pop\n        /* \"contracts/nft.sol\":1797:2004  function balanceOf(address owner) public view virtual override returns (uint256) {\r... */\n      swap2\n      swap1\n      pop\n      jump\t// out\n        /* \"contracts/nft.sol\":5099:5323  function mint(address to,address collaborator,uint256  collaboratorPercent,uint tokenId,string memory uri) public{\r... */\n    tag_66:\n        /* \"contracts/nft.sol\":5223:5278  _safeMint(to, collaborator,collaboratorPercent,tokenId) */\n      tag_144\n        /* \"contracts/nft.sol\":5233:5235  to */\n      dup6\n        /* \"contracts/nft.sol\":5237:5249  collaborator */\n      dup6\n        /* \"contracts/nft.sol\":5250:5269  collaboratorPercent */\n      dup6\n        /* \"contracts/nft.sol\":5270:5277  tokenId */\n      dup6\n        /* \"contracts/nft.sol\":5223:5232  _safeMint */\n      tag_145\n        /* \"contracts/nft.sol\":5223:5278  _safeMint(to, collaborator,collaboratorPercent,tokenId) */\n      jump\t// in\n    tag_144:\n        /* \"contracts/nft.sol\":5289:5315  _setTokenURI(tokenId, uri) */\n      tag_146\n        /* \"contracts/nft.sol\":5302:5309  tokenId */\n      dup3\n        /* \"contracts/nft.sol\":5311:5314  uri */\n      dup3\n        /* \"contracts/nft.sol\":5289:5301  _setTokenURI */\n      tag_147\n        /* \"contracts/nft.sol\":5289:5315  _setTokenURI(tokenId, uri) */\n      jump\t// in\n    tag_146:\n        /* \"contracts/nft.sol\":5099:5323  function mint(address to,address collaborator,uint256  collaboratorPercent,uint tokenId,string memory uri) public{\r... */\n      pop\n      pop\n      pop\n      pop\n      pop\n      jump\t// out\n        /* \"contracts/nft.sol\":2832:2936  function symbol() public view virtual override returns (string memory) {\r... */\n    tag_68:\n        /* \"contracts/nft.sol\":2888:2901  string memory */\n      0x60\n        /* \"contracts/nft.sol\":2921:2928  _symbol */\n      0x01\n        /* \"contracts/nft.sol\":2914:2928  return _symbol */\n      dup1\n      sload\n      tag_149\n      swap1\n      tag_98\n      jump\t// in\n    tag_149:\n      dup1\n      0x1f\n      add\n      0x20\n      dup1\n      swap2\n      div\n      mul\n      0x20\n      add\n      mload(0x40)\n      swap1\n      dup2\n      add\n      0x40\n      mstore\n      dup1\n      swap3\n      swap2\n      swap1\n      dup2\n      dup2\n      mstore\n      0x20\n      add\n      dup3\n      dup1\n      sload\n      tag_150\n      swap1\n      tag_98\n      jump\t// in\n    tag_150:\n      dup1\n      iszero\n      tag_151\n      jumpi\n      dup1\n      0x1f\n      lt\n      tag_152\n      jumpi\n      0x0100\n      dup1\n      dup4\n      sload\n      div\n      mul\n      dup4\n      mstore\n      swap2\n      0x20\n      add\n      swap2\n      jump(tag_151)\n    tag_152:\n      dup3\n      add\n      swap2\n      swap1\n      0x00\n      mstore\n      keccak256(0x00, 0x20)\n      swap1\n    tag_153:\n      dup2\n      sload\n      dup2\n      mstore\n      swap1\n      0x01\n      add\n      swap1\n      0x20\n      add\n      dup1\n      dup4\n      gt\n      tag_153\n      jumpi\n      dup3\n      swap1\n      sub\n      0x1f\n      and\n      dup3\n      add\n      swap2\n    tag_151:\n      pop\n      pop\n      pop\n      pop\n      pop\n      swap1\n      pop\n        /* \"contracts/nft.sol\":2832:2936  function symbol() public view virtual override returns (string memory) {\r... */\n      swap1\n      jump\t// out\n        /* \"contracts/nft.sol\":3942:4097  function setApprovalForAll(address operator, bool approved) public virtual override {\r... */\n    tag_73:\n        /* \"contracts/nft.sol\":4037:4089  _setApprovalForAll(_msgSender(), operator, approved) */\n      tag_155\n        /* \"contracts/nft.sol\":4056:4068  _msgSender() */\n      tag_156\n        /* \"contracts/nft.sol\":4056:4066  _msgSender */\n      tag_112\n        /* \"contracts/nft.sol\":4056:4068  _msgSender() */\n      jump\t// in\n    tag_156:\n        /* \"contracts/nft.sol\":4070:4078  operator */\n      dup4\n        /* \"contracts/nft.sol\":4080:4088  approved */\n      dup4\n        /* \"contracts/nft.sol\":4037:4055  _setApprovalForAll */\n      tag_157\n        /* \"contracts/nft.sol\":4037:4089  _setApprovalForAll(_msgSender(), operator, approved) */\n      jump\t// in\n    tag_155:\n        /* \"contracts/nft.sol\":3942:4097  function setApprovalForAll(address operator, bool approved) public virtual override {\r... */\n      pop\n      pop\n      jump\t// out\n        /* \"contracts/nft.sol\":4768:5090  function safeTransferFrom(\r... */\n    tag_77:\n        /* \"contracts/nft.sol\":4942:4983  _isApprovedOrOwner(_msgSender(), tokenId) */\n      tag_159\n        /* \"contracts/nft.sol\":4961:4973  _msgSender() */\n      tag_160\n        /* \"contracts/nft.sol\":4961:4971  _msgSender */\n      tag_112\n        /* \"contracts/nft.sol\":4961:4973  _msgSender() */\n      jump\t// in\n    tag_160:\n        /* \"contracts/nft.sol\":4975:4982  tokenId */\n      dup4\n        /* \"contracts/nft.sol\":4942:4960  _isApprovedOrOwner */\n      tag_124\n        /* \"contracts/nft.sol\":4942:4983  _isApprovedOrOwner(_msgSender(), tokenId) */\n      jump\t// in\n    tag_159:\n        /* \"contracts/nft.sol\":4934:5033  require(_isApprovedOrOwner(_msgSender(), tokenId), \"ERC721: caller is not token owner or approved\") */\n      tag_161\n      jumpi\n      mload(0x40)\n      0x08c379a000000000000000000000000000000000000000000000000000000000\n      dup2\n      mstore\n      0x04\n      add\n      tag_162\n      swap1\n      tag_127\n      jump\t// in\n    tag_162:\n      mload(0x40)\n      dup1\n      swap2\n      sub\n      swap1\n      revert\n    tag_161:\n        /* \"contracts/nft.sol\":5044:5082  _safeTransfer(from, to, tokenId, data) */\n      tag_163\n        /* \"contracts/nft.sol\":5058:5062  from */\n      dup5\n        /* \"contracts/nft.sol\":5064:5066  to */\n      dup5\n        /* \"contracts/nft.sol\":5068:5075  tokenId */\n      dup5\n        /* \"contracts/nft.sol\":5077:5081  data */\n      dup5\n        /* \"contracts/nft.sol\":5044:5057  _safeTransfer */\n      tag_164\n        /* \"contracts/nft.sol\":5044:5082  _safeTransfer(from, to, tokenId, data) */\n      jump\t// in\n    tag_163:\n        /* \"contracts/nft.sol\":4768:5090  function safeTransferFrom(\r... */\n      pop\n      pop\n      pop\n      pop\n      jump\t// out\n        /* \"contracts/nft.sol\":2944:3225  function tokenURI(uint256 tokenId) public view virtual override returns (string memory) {\r... */\n    tag_80:\n        /* \"contracts/nft.sol\":3017:3030  string memory */\n      0x60\n        /* \"contracts/nft.sol\":3043:3066  _requireMinted(tokenId) */\n      tag_166\n        /* \"contracts/nft.sol\":3058:3065  tokenId */\n      dup3\n        /* \"contracts/nft.sol\":3043:3057  _requireMinted */\n      tag_105\n        /* \"contracts/nft.sol\":3043:3066  _requireMinted(tokenId) */\n      jump\t// in\n    tag_166:\n        /* \"contracts/nft.sol\":3079:3100  string memory baseURI */\n      0x00\n        /* \"contracts/nft.sol\":3103:3113  _baseURI() */\n      tag_167\n        /* \"contracts/nft.sol\":3103:3111  _baseURI */\n      tag_168\n        /* \"contracts/nft.sol\":3103:3113  _baseURI() */\n      jump\t// in\n    tag_167:\n        /* \"contracts/nft.sol\":3079:3113  string memory baseURI = _baseURI() */\n      swap1\n      pop\n        /* \"contracts/nft.sol\":3155:3156  0 */\n      0x00\n        /* \"contracts/nft.sol\":3137:3144  baseURI */\n      dup2\n        /* \"contracts/nft.sol\":3131:3152  bytes(baseURI).length */\n      mload\n        /* \"contracts/nft.sol\":3131:3156  bytes(baseURI).length > 0 */\n      gt\n        /* \"contracts/nft.sol\":3131:3217  bytes(baseURI).length > 0 ? string(abi.encodePacked(baseURI, tokenId.toString())) : \"\" */\n      tag_169\n      jumpi\n      mload(0x40)\n      dup1\n      0x20\n      add\n      0x40\n      mstore\n      dup1\n      0x00\n      dup2\n      mstore\n      pop\n      jump(tag_170)\n    tag_169:\n        /* \"contracts/nft.sol\":3183:3190  baseURI */\n      dup1\n        /* \"contracts/nft.sol\":3192:3210  tokenId.toString() */\n      tag_171\n        /* \"contracts/nft.sol\":3192:3199  tokenId */\n      dup5\n        /* \"contracts/nft.sol\":3192:3208  tokenId.toString */\n      tag_172\n        /* \"contracts/nft.sol\":3192:3210  tokenId.toString() */\n      jump\t// in\n    tag_171:\n        /* \"contracts/nft.sol\":3166:3211  abi.encodePacked(baseURI, tokenId.toString()) */\n      add(0x20, mload(0x40))\n      tag_173\n      swap3\n      swap2\n      swap1\n      tag_174\n      jump\t// in\n    tag_173:\n      mload(0x40)\n      0x20\n      dup2\n      dup4\n      sub\n      sub\n      dup2\n      mstore\n      swap1\n      0x40\n      mstore\n        /* \"contracts/nft.sol\":3131:3217  bytes(baseURI).length > 0 ? string(abi.encodePacked(baseURI, tokenId.toString())) : \"\" */\n    tag_170:\n        /* \"contracts/nft.sol\":3124:3217  return bytes(baseURI).length > 0 ? string(abi.encodePacked(baseURI, tokenId.toString())) : \"\" */\n      swap2\n      pop\n      pop\n        /* \"contracts/nft.sol\":2944:3225  function tokenURI(uint256 tokenId) public view virtual override returns (string memory) {\r... */\n      swap2\n      swap1\n      pop\n      jump\t// out\n        /* \"contracts/nft.sol\":4107:4271  function isApprovedForAll(address owner, address operator) public view virtual override returns (bool) {\r... */\n    tag_85:\n        /* \"contracts/nft.sol\":4204:4208  bool */\n      0x00\n        /* \"contracts/nft.sol\":4228:4246  _operatorApprovals */\n      0x07\n        /* \"contracts/nft.sol\":4228:4253  _operatorApprovals[owner] */\n      0x00\n        /* \"contracts/nft.sol\":4247:4252  owner */\n      dup5\n        /* \"contracts/nft.sol\":4228:4253  _operatorApprovals[owner] */\n      0xffffffffffffffffffffffffffffffffffffffff\n      and\n      0xffffffffffffffffffffffffffffffffffffffff\n      and\n      dup2\n      mstore\n      0x20\n      add\n      swap1\n      dup2\n      mstore\n      0x20\n      add\n      0x00\n      keccak256\n        /* \"contracts/nft.sol\":4228:4263  _operatorApprovals[owner][operator] */\n      0x00\n        /* \"contracts/nft.sol\":4254:4262  operator */\n      dup4\n        /* \"contracts/nft.sol\":4228:4263  _operatorApprovals[owner][operator] */\n      0xffffffffffffffffffffffffffffffffffffffff\n      and\n      0xffffffffffffffffffffffffffffffffffffffff\n      and\n      dup2\n      mstore\n      0x20\n      add\n      swap1\n      dup2\n      mstore\n      0x20\n      add\n      0x00\n      keccak256\n      0x00\n      swap1\n      sload\n      swap1\n      0x0100\n      exp\n      swap1\n      div\n      0xff\n      and\n        /* \"contracts/nft.sol\":4221:4263  return _operatorApprovals[owner][operator] */\n      swap1\n      pop\n        /* \"contracts/nft.sol\":4107:4271  function isApprovedForAll(address owner, address operator) public view virtual override returns (bool) {\r... */\n      swap3\n      swap2\n      pop\n      pop\n      jump\t// out\n        /* \"contracts/nft.sol\":2501:2715  function collaboratotPercentageOf(uint256 tokenId) public view virtual returns (uint256) {\r... */\n    tag_89:\n        /* \"contracts/nft.sol\":2581:2588  uint256 */\n      0x00\n        /* \"contracts/nft.sol\":2601:2631  uint256 collaboratorPercentage */\n      dup1\n        /* \"contracts/nft.sol\":2634:2658  _collaboratorsPercentage */\n      0x04\n        /* \"contracts/nft.sol\":2634:2667  _collaboratorsPercentage[tokenId] */\n      0x00\n        /* \"contracts/nft.sol\":2659:2666  tokenId */\n      dup5\n        /* \"contracts/nft.sol\":2634:2667  _collaboratorsPercentage[tokenId] */\n      dup2\n      mstore\n      0x20\n      add\n      swap1\n      dup2\n      mstore\n      0x20\n      add\n      0x00\n      keccak256\n      sload\n        /* \"contracts/nft.sol\":2601:2667  uint256 collaboratorPercentage = _collaboratorsPercentage[tokenId] */\n      swap1\n      pop\n        /* \"contracts/nft.sol\":2685:2707  collaboratorPercentage */\n      dup1\n        /* \"contracts/nft.sol\":2678:2707  return collaboratorPercentage */\n      swap2\n      pop\n      pop\n        /* \"contracts/nft.sol\":2501:2715  function collaboratotPercentageOf(uint256 tokenId) public view virtual returns (uint256) {\r... */\n      swap2\n      swap1\n      pop\n      jump\t// out\n        /* \"@openzeppelin/contracts@4.6.0/utils/introspection/ERC165.sol\":829:984  function supportsInterface(bytes4 interfaceId) public view virtual override returns (bool) {... */\n    tag_95:\n        /* \"@openzeppelin/contracts@4.6.0/utils/introspection/ERC165.sol\":914:918  bool */\n      0x00\n        /* \"@openzeppelin/contracts@4.6.0/utils/introspection/ERC165.sol\":952:977  type(IERC165).interfaceId */\n      0x01ffc9a700000000000000000000000000000000000000000000000000000000\n        /* \"@openzeppelin/contracts@4.6.0/utils/introspection/ERC165.sol\":937:977  interfaceId == type(IERC165).interfaceId */\n      not(0xffffffffffffffffffffffffffffffffffffffffffffffffffffffff)\n      and\n        /* \"@openzeppelin/contracts@4.6.0/utils/introspection/ERC165.sol\":937:948  interfaceId */\n      dup3\n        /* \"@openzeppelin/contracts@4.6.0/utils/introspection/ERC165.sol\":937:977  interfaceId == type(IERC165).interfaceId */\n      not(0xffffffffffffffffffffffffffffffffffffffffffffffffffffffff)\n      and\n      eq\n        /* \"@openzeppelin/contracts@4.6.0/utils/introspection/ERC165.sol\":930:977  return interfaceId == type(IERC165).interfaceId */\n      swap1\n      pop\n        /* \"@openzeppelin/contracts@4.6.0/utils/introspection/ERC165.sol\":829:984  function supportsInterface(bytes4 interfaceId) public view virtual override returns (bool) {... */\n      swap2\n      swap1\n      pop\n      jump\t// out\n        /* \"contracts/nft.sol\":9469:9604  function _requireMinted(uint256 tokenId) internal view virtual {\r... */\n    tag_105:\n        /* \"contracts/nft.sol\":9551:9567  _exists(tokenId) */\n      tag_179\n        /* \"contracts/nft.sol\":9559:9566  tokenId */\n      dup2\n        /* \"contracts/nft.sol\":9551:9558  _exists */\n      tag_180\n        /* \"contracts/nft.sol\":9551:9567  _exists(tokenId) */\n      jump\t// in\n    tag_179:\n        /* \"contracts/nft.sol\":9543:9596  require(_exists(tokenId), \"ERC721: invalid token ID\") */\n      tag_181\n      jumpi\n      mload(0x40)\n      0x08c379a000000000000000000000000000000000000000000000000000000000\n      dup2\n      mstore\n      0x04\n      add\n      tag_182\n      swap1\n      tag_135\n      jump\t// in\n    tag_182:\n      mload(0x40)\n      dup1\n      swap2\n      sub\n      swap1\n      revert\n    tag_181:\n        /* \"contracts/nft.sol\":9469:9604  function _requireMinted(uint256 tokenId) internal view virtual {\r... */\n      pop\n      jump\t// out\n        /* \"@openzeppelin/contracts@4.6.0/utils/Context.sol\":640:736  function _msgSender() internal view virtual returns (address) {... */\n    tag_112:\n        /* \"@openzeppelin/contracts@4.6.0/utils/Context.sol\":693:700  address */\n      0x00\n        /* \"@openzeppelin/contracts@4.6.0/utils/Context.sol\":719:729  msg.sender */\n      caller\n        /* \"@openzeppelin/contracts@4.6.0/utils/Context.sol\":712:729  return msg.sender */\n      swap1\n      pop\n        /* \"@openzeppelin/contracts@4.6.0/utils/Context.sol\":640:736  function _msgSender() internal view virtual returns (address) {... */\n      swap1\n      jump\t// out\n        /* \"contracts/nft.sol\":8967:9138  function _approve(address to, uint256 tokenId) internal virtual {\r... */\n    tag_120:\n        /* \"contracts/nft.sol\":9069:9071  to */\n      dup2\n        /* \"contracts/nft.sol\":9042:9057  _tokenApprovals */\n      0x06\n        /* \"contracts/nft.sol\":9042:9066  _tokenApprovals[tokenId] */\n      0x00\n        /* \"contracts/nft.sol\":9058:9065  tokenId */\n      dup4\n        /* \"contracts/nft.sol\":9042:9066  _tokenApprovals[tokenId] */\n      dup2\n      mstore\n      0x20\n      add\n      swap1\n      dup2\n      mstore\n      0x20\n      add\n      0x00\n      keccak256\n      0x00\n        /* \"contracts/nft.sol\":9042:9071  _tokenApprovals[tokenId] = to */\n      0x0100\n      exp\n      dup2\n      sload\n      dup2\n      0xffffffffffffffffffffffffffffffffffffffff\n      mul\n      not\n      and\n      swap1\n      dup4\n      0xffffffffffffffffffffffffffffffffffffffff\n      and\n      mul\n      or\n      swap1\n      sstore\n      pop\n        /* \"contracts/nft.sol\":9122:9129  tokenId */\n      dup1\n        /* \"contracts/nft.sol\":9118:9120  to */\n      dup3\n        /* \"contracts/nft.sol\":9087:9130  Approval(nft.ownerOf(tokenId), to, tokenId) */\n      0xffffffffffffffffffffffffffffffffffffffff\n      and\n        /* \"contracts/nft.sol\":9096:9116  nft.ownerOf(tokenId) */\n      tag_185\n        /* \"contracts/nft.sol\":9108:9115  tokenId */\n      dup4\n        /* \"contracts/nft.sol\":9096:9107  nft.ownerOf */\n      tag_55\n        /* \"contracts/nft.sol\":9096:9116  nft.ownerOf(tokenId) */\n      jump\t// in\n    tag_185:\n        /* \"contracts/nft.sol\":9087:9130  Approval(nft.ownerOf(tokenId), to, tokenId) */\n      0xffffffffffffffffffffffffffffffffffffffff\n      and\n      0x8c5be1e5ebec7d5bd14f71427d1e84f3dd0314c0f7b2291e5b200ac8c7c3b925\n      mload(0x40)\n      mload(0x40)\n      dup1\n      swap2\n      sub\n      swap1\n      log4\n        /* \"contracts/nft.sol\":8967:9138  function _approve(address to, uint256 tokenId) internal virtual {\r... */\n      pop\n      pop\n      jump\t// out\n        /* \"contracts/nft.sol\":5789:6050  function _isApprovedOrOwner(address spender, uint256 tokenId) internal view virtual returns (bool) {\r... */\n    tag_124:\n        /* \"contracts/nft.sol\":5882:5886  bool */\n      0x00\n        /* \"contracts/nft.sol\":5899:5912  address owner */\n      dup1\n        /* \"contracts/nft.sol\":5915:5935  nft.ownerOf(tokenId) */\n      tag_187\n        /* \"contracts/nft.sol\":5927:5934  tokenId */\n      dup4\n        /* \"contracts/nft.sol\":5915:5926  nft.ownerOf */\n      tag_55\n        /* \"contracts/nft.sol\":5915:5935  nft.ownerOf(tokenId) */\n      jump\t// in\n    tag_187:\n        /* \"contracts/nft.sol\":5899:5935  address owner = nft.ownerOf(tokenId) */\n      swap1\n      pop\n        /* \"contracts/nft.sol\":5965:5970  owner */\n      dup1\n        /* \"contracts/nft.sol\":5954:5970  spender == owner */\n      0xffffffffffffffffffffffffffffffffffffffff\n      and\n        /* \"contracts/nft.sol\":5954:5961  spender */\n      dup5\n        /* \"contracts/nft.sol\":5954:5970  spender == owner */\n      0xffffffffffffffffffffffffffffffffffffffff\n      and\n      eq\n        /* \"contracts/nft.sol\":5954:6006  spender == owner || isApprovedForAll(owner, spender) */\n      dup1\n      tag_188\n      jumpi\n      pop\n        /* \"contracts/nft.sol\":5974:6006  isApprovedForAll(owner, spender) */\n      tag_189\n        /* \"contracts/nft.sol\":5991:5996  owner */\n      dup2\n        /* \"contracts/nft.sol\":5998:6005  spender */\n      dup6\n        /* \"contracts/nft.sol\":5974:5990  isApprovedForAll */\n      tag_85\n        /* \"contracts/nft.sol\":5974:6006  isApprovedForAll(owner, spender) */\n      jump\t// in\n    tag_189:\n        /* \"contracts/nft.sol\":5954:6006  spender == owner || isApprovedForAll(owner, spender) */\n    tag_188:\n        /* \"contracts/nft.sol\":5954:6041  spender == owner || isApprovedForAll(owner, spender) || getApproved(tokenId) == spender */\n      dup1\n      tag_190\n      jumpi\n      pop\n        /* \"contracts/nft.sol\":6034:6041  spender */\n      dup4\n        /* \"contracts/nft.sol\":6010:6041  getApproved(tokenId) == spender */\n      0xffffffffffffffffffffffffffffffffffffffff\n      and\n        /* \"contracts/nft.sol\":6010:6030  getApproved(tokenId) */\n      tag_191\n        /* \"contracts/nft.sol\":6022:6029  tokenId */\n      dup5\n        /* \"contracts/nft.sol\":6010:6021  getApproved */\n      tag_35\n        /* \"contracts/nft.sol\":6010:6030  getApproved(tokenId) */\n      jump\t// in\n    tag_191:\n        /* \"contracts/nft.sol\":6010:6041  getApproved(tokenId) == spender */\n      0xffffffffffffffffffffffffffffffffffffffff\n      and\n      eq\n        /* \"contracts/nft.sol\":5954:6041  spender == owner || isApprovedForAll(owner, spender) || getApproved(tokenId) == spender */\n    tag_190:\n        /* \"contracts/nft.sol\":5946:6042  return (spender == owner || isApprovedForAll(owner, spender) || getApproved(tokenId) == spender) */\n      swap2\n      pop\n      pop\n        /* \"contracts/nft.sol\":5789:6050  function _isApprovedOrOwner(address spender, uint256 tokenId) internal view virtual returns (bool) {\r... */\n      swap3\n      swap2\n      pop\n      pop\n      jump\t// out\n        /* \"contracts/nft.sol\":8200:8957  function _transfer(\r... */\n    tag_129:\n        /* \"contracts/nft.sol\":8356:8360  from */\n      dup3\n        /* \"contracts/nft.sol\":8332:8360  nft.ownerOf(tokenId) == from */\n      0xffffffffffffffffffffffffffffffffffffffff\n      and\n        /* \"contracts/nft.sol\":8332:8352  nft.ownerOf(tokenId) */\n      tag_193\n        /* \"contracts/nft.sol\":8344:8351  tokenId */\n      dup3\n        /* \"contracts/nft.sol\":8332:8343  nft.ownerOf */\n      tag_55\n        /* \"contracts/nft.sol\":8332:8352  nft.ownerOf(tokenId) */\n      jump\t// in\n    tag_193:\n        /* \"contracts/nft.sol\":8332:8360  nft.ownerOf(tokenId) == from */\n      0xffffffffffffffffffffffffffffffffffffffff\n      and\n      eq\n        /* \"contracts/nft.sol\":8324:8402  require(nft.ownerOf(tokenId) == from, \"ERC721: transfer from incorrect owner\") */\n      tag_194\n      jumpi\n      mload(0x40)\n      0x08c379a000000000000000000000000000000000000000000000000000000000\n      dup2\n      mstore\n      0x04\n      add\n      tag_195\n      swap1\n      tag_196\n      jump\t// in\n    tag_195:\n      mload(0x40)\n      dup1\n      swap2\n      sub\n      swap1\n      revert\n    tag_194:\n        /* \"contracts/nft.sol\":8435:8436  0 */\n      0x00\n        /* \"contracts/nft.sol\":8421:8437  to != address(0) */\n      0xffffffffffffffffffffffffffffffffffffffff\n      and\n        /* \"contracts/nft.sol\":8421:8423  to */\n      dup3\n        /* \"contracts/nft.sol\":8421:8437  to != address(0) */\n      0xffffffffffffffffffffffffffffffffffffffff\n      and\n      eq\n      iszero\n        /* \"contracts/nft.sol\":8413:8478  require(to != address(0), \"ERC721: transfer to the zero address\") */\n      tag_197\n      jumpi\n      mload(0x40)\n      0x08c379a000000000000000000000000000000000000000000000000000000000\n      dup2\n      mstore\n      0x04\n      add\n      tag_198\n      swap1\n      tag_199\n      jump\t// in\n    tag_198:\n      mload(0x40)\n      dup1\n      swap2\n      sub\n      swap1\n      revert\n    tag_197:\n        /* \"contracts/nft.sol\":8491:8530  _beforeTokenTransfer(from, to, tokenId) */\n      tag_200\n        /* \"contracts/nft.sol\":8512:8516  from */\n      dup4\n        /* \"contracts/nft.sol\":8518:8520  to */\n      dup4\n        /* \"contracts/nft.sol\":8522:8529  tokenId */\n      dup4\n        /* \"contracts/nft.sol\":8491:8511  _beforeTokenTransfer */\n      tag_201\n        /* \"contracts/nft.sol\":8491:8530  _beforeTokenTransfer(from, to, tokenId) */\n      jump\t// in\n    tag_200:\n        /* \"contracts/nft.sol\":8575:8579  from */\n      dup3\n        /* \"contracts/nft.sol\":8551:8579  nft.ownerOf(tokenId) == from */\n      0xffffffffffffffffffffffffffffffffffffffff\n      and\n        /* \"contracts/nft.sol\":8551:8571  nft.ownerOf(tokenId) */\n      tag_202\n        /* \"contracts/nft.sol\":8563:8570  tokenId */\n      dup3\n        /* \"contracts/nft.sol\":8551:8562  nft.ownerOf */\n      tag_55\n        /* \"contracts/nft.sol\":8551:8571  nft.ownerOf(tokenId) */\n      jump\t// in\n    tag_202:\n        /* \"contracts/nft.sol\":8551:8579  nft.ownerOf(tokenId) == from */\n      0xffffffffffffffffffffffffffffffffffffffff\n      and\n      eq\n        /* \"contracts/nft.sol\":8543:8621  require(nft.ownerOf(tokenId) == from, \"ERC721: transfer from incorrect owner\") */\n      tag_203\n      jumpi\n      mload(0x40)\n      0x08c379a000000000000000000000000000000000000000000000000000000000\n      dup2\n      mstore\n      0x04\n      add\n      tag_204\n      swap1\n      tag_196\n      jump\t// in\n    tag_204:\n      mload(0x40)\n      dup1\n      swap2\n      sub\n      swap1\n      revert\n    tag_203:\n        /* \"contracts/nft.sol\":8693:8708  _tokenApprovals */\n      0x06\n        /* \"contracts/nft.sol\":8693:8717  _tokenApprovals[tokenId] */\n      0x00\n        /* \"contracts/nft.sol\":8709:8716  tokenId */\n      dup3\n        /* \"contracts/nft.sol\":8693:8717  _tokenApprovals[tokenId] */\n      dup2\n      mstore\n      0x20\n      add\n      swap1\n      dup2\n      mstore\n      0x20\n      add\n      0x00\n      keccak256\n      0x00\n        /* \"contracts/nft.sol\":8686:8717  delete _tokenApprovals[tokenId] */\n      0x0100\n      exp\n      dup2\n      sload\n      swap1\n      0xffffffffffffffffffffffffffffffffffffffff\n      mul\n      not\n      and\n      swap1\n      sstore\n        /* \"contracts/nft.sol\":8776:8777  1 */\n      0x01\n        /* \"contracts/nft.sol\":8757:8766  _balances */\n      0x05\n        /* \"contracts/nft.sol\":8757:8772  _balances[from] */\n      0x00\n        /* \"contracts/nft.sol\":8767:8771  from */\n      dup6\n        /* \"contracts/nft.sol\":8757:8772  _balances[from] */\n      0xffffffffffffffffffffffffffffffffffffffff\n      and\n      0xffffffffffffffffffffffffffffffffffffffff\n      and\n      dup2\n      mstore\n      0x20\n      add\n      swap1\n      dup2\n      mstore\n      0x20\n      add\n      0x00\n      keccak256\n      0x00\n        /* \"contracts/nft.sol\":8757:8777  _balances[from] -= 1 */\n      dup3\n      dup3\n      sload\n      sub\n      swap3\n      pop\n      pop\n      dup2\n      swap1\n      sstore\n      pop\n        /* \"contracts/nft.sol\":8809:8810  1 */\n      0x01\n        /* \"contracts/nft.sol\":8792:8801  _balances */\n      0x05\n        /* \"contracts/nft.sol\":8792:8805  _balances[to] */\n      0x00\n        /* \"contracts/nft.sol\":8802:8804  to */\n      dup5\n        /* \"contracts/nft.sol\":8792:8805  _balances[to] */\n      0xffffffffffffffffffffffffffffffffffffffff\n      and\n      0xffffffffffffffffffffffffffffffffffffffff\n      and\n      dup2\n      mstore\n      0x20\n      add\n      swap1\n      dup2\n      mstore\n      0x20\n      add\n      0x00\n      keccak256\n      0x00\n        /* \"contracts/nft.sol\":8792:8810  _balances[to] += 1 */\n      dup3\n      dup3\n      sload\n      add\n      swap3\n      pop\n      pop\n      dup2\n      swap1\n      sstore\n      pop\n        /* \"contracts/nft.sol\":8851:8853  to */\n      dup2\n        /* \"contracts/nft.sol\":8832:8839  _owners */\n      0x02\n        /* \"contracts/nft.sol\":8832:8848  _owners[tokenId] */\n      0x00\n        /* \"contracts/nft.sol\":8840:8847  tokenId */\n      dup4\n        /* \"contracts/nft.sol\":8832:8848  _owners[tokenId] */\n      dup2\n      mstore\n      0x20\n      add\n      swap1\n      dup2\n      mstore\n      0x20\n      add\n      0x00\n      keccak256\n      0x00\n        /* \"contracts/nft.sol\":8832:8853  _owners[tokenId] = to */\n      0x0100\n      exp\n      dup2\n      sload\n      dup2\n      0xffffffffffffffffffffffffffffffffffffffff\n      mul\n      not\n      and\n      swap1\n      dup4\n      0xffffffffffffffffffffffffffffffffffffffff\n      and\n      mul\n      or\n      swap1\n      sstore\n      pop\n        /* \"contracts/nft.sol\":8890:8897  tokenId */\n      dup1\n        /* \"contracts/nft.sol\":8886:8888  to */\n      dup3\n        /* \"contracts/nft.sol\":8871:8898  Transfer(from, to, tokenId) */\n      0xffffffffffffffffffffffffffffffffffffffff\n      and\n        /* \"contracts/nft.sol\":8880:8884  from */\n      dup5\n        /* \"contracts/nft.sol\":8871:8898  Transfer(from, to, tokenId) */\n      0xffffffffffffffffffffffffffffffffffffffff\n      and\n      0xddf252ad1be2c89b69c2b068fc378daa952ba7f163c4a11628f55a4df523b3ef\n      mload(0x40)\n      mload(0x40)\n      dup1\n      swap2\n      sub\n      swap1\n      log4\n        /* \"contracts/nft.sol\":8911:8949  _afterTokenTransfer(from, to, tokenId) */\n      tag_205\n        /* \"contracts/nft.sol\":8931:8935  from */\n      dup4\n        /* \"contracts/nft.sol\":8937:8939  to */\n      dup4\n        /* \"contracts/nft.sol\":8941:8948  tokenId */\n      dup4\n        /* \"contracts/nft.sol\":8911:8930  _afterTokenTransfer */\n      tag_206\n        /* \"contracts/nft.sol\":8911:8949  _afterTokenTransfer(from, to, tokenId) */\n      jump\t// in\n    tag_205:\n        /* \"contracts/nft.sol\":8200:8957  function _transfer(\r... */\n      pop\n      pop\n      pop\n      jump\t// out\n        /* \"contracts/nft.sol\":6058:6249  function _safeMint(address to,address collaborator,uint256 collaboratorPercent,uint256 tokenId) internal virtual {\r... */\n    tag_145:\n        /* \"contracts/nft.sol\":6182:6241  _safeMint(to, collaborator,collaboratorPercent,tokenId, \"\") */\n      tag_208\n        /* \"contracts/nft.sol\":6192:6194  to */\n      dup5\n        /* \"contracts/nft.sol\":6196:6208  collaborator */\n      dup5\n        /* \"contracts/nft.sol\":6209:6228  collaboratorPercent */\n      dup5\n        /* \"contracts/nft.sol\":6229:6236  tokenId */\n      dup5\n        /* \"contracts/nft.sol\":6182:6241  _safeMint(to, collaborator,collaboratorPercent,tokenId, \"\") */\n      mload(0x40)\n      dup1\n      0x20\n      add\n      0x40\n      mstore\n      dup1\n      0x00\n      dup2\n      mstore\n      pop\n        /* \"contracts/nft.sol\":6182:6191  _safeMint */\n      tag_209\n        /* \"contracts/nft.sol\":6182:6241  _safeMint(to, collaborator,collaboratorPercent,tokenId, \"\") */\n      jump\t// in\n    tag_208:\n        /* \"contracts/nft.sol\":6058:6249  function _safeMint(address to,address collaborator,uint256 collaboratorPercent,uint256 tokenId) internal virtual {\r... */\n      pop\n      pop\n      pop\n      pop\n      jump\t// out\n        /* \"contracts/nft.sol\":7970:8190  function _setTokenURI(uint256 tokenId, string memory _tokenURI) internal virtual {\r... */\n    tag_147:\n        /* \"contracts/nft.sol\":8173:8182  _tokenURI */\n      dup1\n        /* \"contracts/nft.sol\":8151:8161  _tokenURIs */\n      0x08\n        /* \"contracts/nft.sol\":8151:8170  _tokenURIs[tokenId] */\n      0x00\n        /* \"contracts/nft.sol\":8162:8169  tokenId */\n      dup5\n        /* \"contracts/nft.sol\":8151:8170  _tokenURIs[tokenId] */\n      dup2\n      mstore\n      0x20\n      add\n      swap1\n      dup2\n      mstore\n      0x20\n      add\n      0x00\n      keccak256\n        /* \"contracts/nft.sol\":8151:8182  _tokenURIs[tokenId] = _tokenURI */\n      swap1\n      dup1\n      mload\n      swap1\n      0x20\n      add\n      swap1\n      tag_211\n      swap3\n      swap2\n      swap1\n      tag_212\n      jump\t// in\n    tag_211:\n      pop\n        /* \"contracts/nft.sol\":7970:8190  function _setTokenURI(uint256 tokenId, string memory _tokenURI) internal virtual {\r... */\n      pop\n      pop\n      jump\t// out\n        /* \"contracts/nft.sol\":9146:9461  function _setApprovalForAll(\r... */\n    tag_157:\n        /* \"contracts/nft.sol\":9301:9309  operator */\n      dup2\n        /* \"contracts/nft.sol\":9292:9309  owner != operator */\n      0xffffffffffffffffffffffffffffffffffffffff\n      and\n        /* \"contracts/nft.sol\":9292:9297  owner */\n      dup4\n        /* \"contracts/nft.sol\":9292:9309  owner != operator */\n      0xffffffffffffffffffffffffffffffffffffffff\n      and\n      eq\n      iszero\n        /* \"contracts/nft.sol\":9284:9339  require(owner != operator, \"ERC721: approve to caller\") */\n      tag_214\n      jumpi\n      mload(0x40)\n      0x08c379a000000000000000000000000000000000000000000000000000000000\n      dup2\n      mstore\n      0x04\n      add\n      tag_215\n      swap1\n      tag_216\n      jump\t// in\n    tag_215:\n      mload(0x40)\n      dup1\n      swap2\n      sub\n      swap1\n      revert\n    tag_214:\n        /* \"contracts/nft.sol\":9388:9396  approved */\n      dup1\n        /* \"contracts/nft.sol\":9350:9368  _operatorApprovals */\n      0x07\n        /* \"contracts/nft.sol\":9350:9375  _operatorApprovals[owner] */\n      0x00\n        /* \"contracts/nft.sol\":9369:9374  owner */\n      dup6\n        /* \"contracts/nft.sol\":9350:9375  _operatorApprovals[owner] */\n      0xffffffffffffffffffffffffffffffffffffffff\n      and\n      0xffffffffffffffffffffffffffffffffffffffff\n      and\n      dup2\n      mstore\n      0x20\n      add\n      swap1\n      dup2\n      mstore\n      0x20\n      add\n      0x00\n      keccak256\n        /* \"contracts/nft.sol\":9350:9385  _operatorApprovals[owner][operator] */\n      0x00\n        /* \"contracts/nft.sol\":9376:9384  operator */\n      dup5\n        /* \"contracts/nft.sol\":9350:9385  _operatorApprovals[owner][operator] */\n      0xffffffffffffffffffffffffffffffffffffffff\n      and\n      0xffffffffffffffffffffffffffffffffffffffff\n      and\n      dup2\n      mstore\n      0x20\n      add\n      swap1\n      dup2\n      mstore\n      0x20\n      add\n      0x00\n      keccak256\n      0x00\n        /* \"contracts/nft.sol\":9350:9396  _operatorApprovals[owner][operator] = approved */\n      0x0100\n      exp\n      dup2\n      sload\n      dup2\n      0xff\n      mul\n      not\n      and\n      swap1\n      dup4\n      iszero\n      iszero\n      mul\n      or\n      swap1\n      sstore\n      pop\n        /* \"contracts/nft.sol\":9434:9442  operator */\n      dup2\n        /* \"contracts/nft.sol\":9412:9453  ApprovalForAll(owner, operator, approved) */\n      0xffffffffffffffffffffffffffffffffffffffff\n      and\n        /* \"contracts/nft.sol\":9427:9432  owner */\n      dup4\n        /* \"contracts/nft.sol\":9412:9453  ApprovalForAll(owner, operator, approved) */\n      0xffffffffffffffffffffffffffffffffffffffff\n      and\n      0x17307eab39ab6107e8899845ad3d59bd9653f200f220920489ca2b5937696c31\n        /* \"contracts/nft.sol\":9444:9452  approved */\n      dup4\n        /* \"contracts/nft.sol\":9412:9453  ApprovalForAll(owner, operator, approved) */\n      mload(0x40)\n      tag_217\n      swap2\n      swap1\n      tag_27\n      jump\t// in\n    tag_217:\n      mload(0x40)\n      dup1\n      swap2\n      sub\n      swap1\n      log3\n        /* \"contracts/nft.sol\":9146:9461  function _setApprovalForAll(\r... */\n      pop\n      pop\n      pop\n      jump\t// out\n        /* \"contracts/nft.sol\":5331:5644  function _safeTransfer(\r... */\n    tag_164:\n        /* \"contracts/nft.sol\":5487:5515  _transfer(from, to, tokenId) */\n      tag_219\n        /* \"contracts/nft.sol\":5497:5501  from */\n      dup5\n        /* \"contracts/nft.sol\":5503:5505  to */\n      dup5\n        /* \"contracts/nft.sol\":5507:5514  tokenId */\n      dup5\n        /* \"contracts/nft.sol\":5487:5496  _transfer */\n      tag_129\n        /* \"contracts/nft.sol\":5487:5515  _transfer(from, to, tokenId) */\n      jump\t// in\n    tag_219:\n        /* \"contracts/nft.sol\":5534:5581  _checkOnERC721Received(from, to, tokenId, data) */\n      tag_220\n        /* \"contracts/nft.sol\":5557:5561  from */\n      dup5\n        /* \"contracts/nft.sol\":5563:5565  to */\n      dup5\n        /* \"contracts/nft.sol\":5567:5574  tokenId */\n      dup5\n        /* \"contracts/nft.sol\":5576:5580  data */\n      dup5\n        /* \"contracts/nft.sol\":5534:5556  _checkOnERC721Received */\n      tag_221\n        /* \"contracts/nft.sol\":5534:5581  _checkOnERC721Received(from, to, tokenId, data) */\n      jump\t// in\n    tag_220:\n        /* \"contracts/nft.sol\":5526:5636  require(_checkOnERC721Received(from, to, tokenId, data), \"ERC721: transfer to non ERC721Receiver implementer\") */\n      tag_222\n      jumpi\n      mload(0x40)\n      0x08c379a000000000000000000000000000000000000000000000000000000000\n      dup2\n      mstore\n      0x04\n      add\n      tag_223\n      swap1\n      tag_224\n      jump\t// in\n    tag_223:\n      mload(0x40)\n      dup1\n      swap2\n      sub\n      swap1\n      revert\n    tag_222:\n        /* \"contracts/nft.sol\":5331:5644  function _safeTransfer(\r... */\n      pop\n      pop\n      pop\n      pop\n      jump\t// out\n        /* \"contracts/nft.sol\":3233:3327  function _baseURI() internal view virtual returns (string memory) {\r... */\n    tag_168:\n        /* \"contracts/nft.sol\":3284:3297  string memory */\n      0x60\n        /* \"contracts/nft.sol\":3310:3319  return \"\" */\n      mload(0x40)\n      dup1\n      0x20\n      add\n      0x40\n      mstore\n      dup1\n      0x00\n      dup2\n      mstore\n      pop\n      swap1\n      pop\n        /* \"contracts/nft.sol\":3233:3327  function _baseURI() internal view virtual returns (string memory) {\r... */\n      swap1\n      jump\t// out\n        /* \"@openzeppelin/contracts@4.6.0/utils/Strings.sol\":328:1031  function toString(uint256 value) internal pure returns (string memory) {... */\n    tag_172:\n        /* \"@openzeppelin/contracts@4.6.0/utils/Strings.sol\":384:397  string memory */\n      0x60\n        /* \"@openzeppelin/contracts@4.6.0/utils/Strings.sol\":610:611  0 */\n      0x00\n        /* \"@openzeppelin/contracts@4.6.0/utils/Strings.sol\":601:606  value */\n      dup3\n        /* \"@openzeppelin/contracts@4.6.0/utils/Strings.sol\":601:611  value == 0 */\n      eq\n        /* \"@openzeppelin/contracts@4.6.0/utils/Strings.sol\":597:648  if (value == 0) {... */\n      iszero\n      tag_227\n      jumpi\n        /* \"@openzeppelin/contracts@4.6.0/utils/Strings.sol\":627:637  return \"0\" */\n      mload(0x40)\n      dup1\n      0x40\n      add\n      0x40\n      mstore\n      dup1\n      0x01\n      dup2\n      mstore\n      0x20\n      add\n      0x3000000000000000000000000000000000000000000000000000000000000000\n      dup2\n      mstore\n      pop\n      swap1\n      pop\n      jump(tag_226)\n        /* \"@openzeppelin/contracts@4.6.0/utils/Strings.sol\":597:648  if (value == 0) {... */\n    tag_227:\n        /* \"@openzeppelin/contracts@4.6.0/utils/Strings.sol\":657:669  uint256 temp */\n      0x00\n        /* \"@openzeppelin/contracts@4.6.0/utils/Strings.sol\":672:677  value */\n      dup3\n        /* \"@openzeppelin/contracts@4.6.0/utils/Strings.sol\":657:677  uint256 temp = value */\n      swap1\n      pop\n        /* \"@openzeppelin/contracts@4.6.0/utils/Strings.sol\":687:701  uint256 digits */\n      0x00\n        /* \"@openzeppelin/contracts@4.6.0/utils/Strings.sol\":711:786  while (temp != 0) {... */\n    tag_228:\n        /* \"@openzeppelin/contracts@4.6.0/utils/Strings.sol\":726:727  0 */\n      0x00\n        /* \"@openzeppelin/contracts@4.6.0/utils/Strings.sol\":718:722  temp */\n      dup3\n        /* \"@openzeppelin/contracts@4.6.0/utils/Strings.sol\":718:727  temp != 0 */\n      eq\n        /* \"@openzeppelin/contracts@4.6.0/utils/Strings.sol\":711:786  while (temp != 0) {... */\n      tag_229\n      jumpi\n        /* \"@openzeppelin/contracts@4.6.0/utils/Strings.sol\":743:751  digits++ */\n      dup1\n      dup1\n      tag_230\n      swap1\n      tag_231\n      jump\t// in\n    tag_230:\n      swap2\n      pop\n      pop\n        /* \"@openzeppelin/contracts@4.6.0/utils/Strings.sol\":773:775  10 */\n      0x0a\n        /* \"@openzeppelin/contracts@4.6.0/utils/Strings.sol\":765:775  temp /= 10 */\n      dup3\n      tag_232\n      swap2\n      swap1\n      tag_233\n      jump\t// in\n    tag_232:\n      swap2\n      pop\n        /* \"@openzeppelin/contracts@4.6.0/utils/Strings.sol\":711:786  while (temp != 0) {... */\n      jump(tag_228)\n    tag_229:\n        /* \"@openzeppelin/contracts@4.6.0/utils/Strings.sol\":795:814  bytes memory buffer */\n      0x00\n        /* \"@openzeppelin/contracts@4.6.0/utils/Strings.sol\":827:833  digits */\n      dup2\n        /* \"@openzeppelin/contracts@4.6.0/utils/Strings.sol\":817:834  new bytes(digits) */\n      0xffffffffffffffff\n      dup2\n      gt\n      iszero\n      tag_234\n      jumpi\n      mstore(0x00, 0x4e487b7100000000000000000000000000000000000000000000000000000000)\n      mstore(0x04, 0x41)\n      revert(0x00, 0x24)\n    tag_234:\n      mload(0x40)\n      swap1\n      dup1\n      dup3\n      mstore\n      dup1\n      0x1f\n      add\n      not(0x1f)\n      and\n      0x20\n      add\n      dup3\n      add\n      0x40\n      mstore\n      dup1\n      iszero\n      tag_235\n      jumpi\n      dup2\n      0x20\n      add\n      0x01\n      dup3\n      mul\n      dup1\n      calldatasize\n      dup4\n      calldatacopy\n      dup1\n      dup3\n      add\n      swap2\n      pop\n      pop\n      swap1\n      pop\n    tag_235:\n      pop\n        /* \"@openzeppelin/contracts@4.6.0/utils/Strings.sol\":795:834  bytes memory buffer = new bytes(digits) */\n      swap1\n      pop\n        /* \"@openzeppelin/contracts@4.6.0/utils/Strings.sol\":844:994  while (value != 0) {... */\n    tag_236:\n        /* \"@openzeppelin/contracts@4.6.0/utils/Strings.sol\":860:861  0 */\n      0x00\n        /* \"@openzeppelin/contracts@4.6.0/utils/Strings.sol\":851:856  value */\n      dup6\n        /* \"@openzeppelin/contracts@4.6.0/utils/Strings.sol\":851:861  value != 0 */\n      eq\n        /* \"@openzeppelin/contracts@4.6.0/utils/Strings.sol\":844:994  while (value != 0) {... */\n      tag_237\n      jumpi\n        /* \"@openzeppelin/contracts@4.6.0/utils/Strings.sol\":887:888  1 */\n      0x01\n        /* \"@openzeppelin/contracts@4.6.0/utils/Strings.sol\":877:888  digits -= 1 */\n      dup3\n      tag_238\n      swap2\n      swap1\n      tag_239\n      jump\t// in\n    tag_238:\n      swap2\n      pop\n        /* \"@openzeppelin/contracts@4.6.0/utils/Strings.sol\":953:955  10 */\n      0x0a\n        /* \"@openzeppelin/contracts@4.6.0/utils/Strings.sol\":945:950  value */\n      dup6\n        /* \"@openzeppelin/contracts@4.6.0/utils/Strings.sol\":945:955  value % 10 */\n      tag_240\n      swap2\n      swap1\n      tag_241\n      jump\t// in\n    tag_240:\n        /* \"@openzeppelin/contracts@4.6.0/utils/Strings.sol\":932:934  48 */\n      0x30\n        /* \"@openzeppelin/contracts@4.6.0/utils/Strings.sol\":932:956  48 + uint256(value % 10) */\n      tag_242\n      swap2\n      swap1\n      tag_243\n      jump\t// in\n    tag_242:\n        /* \"@openzeppelin/contracts@4.6.0/utils/Strings.sol\":919:958  bytes1(uint8(48 + uint256(value % 10))) */\n      0xf8\n      shl\n        /* \"@openzeppelin/contracts@4.6.0/utils/Strings.sol\":902:908  buffer */\n      dup2\n        /* \"@openzeppelin/contracts@4.6.0/utils/Strings.sol\":909:915  digits */\n      dup4\n        /* \"@openzeppelin/contracts@4.6.0/utils/Strings.sol\":902:916  buffer[digits] */\n      dup2\n      mload\n      dup2\n      lt\n      tag_244\n      jumpi\n      mstore(0x00, 0x4e487b7100000000000000000000000000000000000000000000000000000000)\n      mstore(0x04, 0x32)\n      revert(0x00, 0x24)\n    tag_244:\n      0x20\n      add\n      add\n        /* \"@openzeppelin/contracts@4.6.0/utils/Strings.sol\":902:958  buffer[digits] = bytes1(uint8(48 + uint256(value % 10))) */\n      swap1\n      not(0xffffffffffffffffffffffffffffffffffffffffffffffffffffffffffffff)\n      and\n      swap1\n      dup2\n      0x00\n      byte\n      swap1\n      mstore8\n      pop\n        /* \"@openzeppelin/contracts@4.6.0/utils/Strings.sol\":981:983  10 */\n      0x0a\n        /* \"@openzeppelin/contracts@4.6.0/utils/Strings.sol\":972:983  value /= 10 */\n      dup6\n      tag_245\n      swap2\n      swap1\n      tag_233\n      jump\t// in\n    tag_245:\n      swap5\n      pop\n        /* \"@openzeppelin/contracts@4.6.0/utils/Strings.sol\":844:994  while (value != 0) {... */\n      jump(tag_236)\n    tag_237:\n        /* \"@openzeppelin/contracts@4.6.0/utils/Strings.sol\":1017:1023  buffer */\n      dup1\n        /* \"@openzeppelin/contracts@4.6.0/utils/Strings.sol\":1003:1024  return string(buffer) */\n      swap4\n      pop\n      pop\n      pop\n      pop\n        /* \"@openzeppelin/contracts@4.6.0/utils/Strings.sol\":328:1031  function toString(uint256 value) internal pure returns (string memory) {... */\n    tag_226:\n      swap2\n      swap1\n      pop\n      jump\t// out\n        /* \"contracts/nft.sol\":5652:5779  function _exists(uint256 tokenId) internal view virtual returns (bool) {\r... */\n    tag_180:\n        /* \"contracts/nft.sol\":5717:5721  bool */\n      0x00\n        /* \"contracts/nft.sol\":5769:5770  0 */\n      dup1\n        /* \"contracts/nft.sol\":5741:5771  _owners[tokenId] != address(0) */\n      0xffffffffffffffffffffffffffffffffffffffff\n      and\n        /* \"contracts/nft.sol\":5741:5748  _owners */\n      0x02\n        /* \"contracts/nft.sol\":5741:5757  _owners[tokenId] */\n      0x00\n        /* \"contracts/nft.sol\":5749:5756  tokenId */\n      dup5\n        /* \"contracts/nft.sol\":5741:5757  _owners[tokenId] */\n      dup2\n      mstore\n      0x20\n      add\n      swap1\n      dup2\n      mstore\n      0x20\n      add\n      0x00\n      keccak256\n      0x00\n      swap1\n      sload\n      swap1\n      0x0100\n      exp\n      swap1\n      div\n      0xffffffffffffffffffffffffffffffffffffffff\n      and\n        /* \"contracts/nft.sol\":5741:5771  _owners[tokenId] != address(0) */\n      0xffffffffffffffffffffffffffffffffffffffff\n      and\n      eq\n      iszero\n        /* \"contracts/nft.sol\":5734:5771  return _owners[tokenId] != address(0) */\n      swap1\n      pop\n        /* \"contracts/nft.sol\":5652:5779  function _exists(uint256 tokenId) internal view virtual returns (bool) {\r... */\n      swap2\n      swap1\n      pop\n      jump\t// out\n        /* \"contracts/nft.sol\":10477:10603  function _beforeTokenTransfer(\r... */\n    tag_201:\n      pop\n      pop\n      pop\n      jump\t// out\n        /* \"contracts/nft.sol\":10611:10736  function _afterTokenTransfer(\r... */\n    tag_206:\n      pop\n      pop\n      pop\n      jump\t// out\n        /* \"contracts/nft.sol\":6257:6680  function _safeMint(\r... */\n    tag_209:\n        /* \"contracts/nft.sol\":6456:6508  _mint(to, collaborator,collaboratorPercent, tokenId) */\n      tag_250\n        /* \"contracts/nft.sol\":6462:6464  to */\n      dup6\n        /* \"contracts/nft.sol\":6466:6478  collaborator */\n      dup6\n        /* \"contracts/nft.sol\":6479:6498  collaboratorPercent */\n      dup6\n        /* \"contracts/nft.sol\":6500:6507  tokenId */\n      dup6\n        /* \"contracts/nft.sol\":6456:6461  _mint */\n      tag_251\n        /* \"contracts/nft.sol\":6456:6508  _mint(to, collaborator,collaboratorPercent, tokenId) */\n      jump\t// in\n    tag_250:\n        /* \"contracts/nft.sol\":6541:6594  _checkOnERC721Received(address(0), to, tokenId, data) */\n      tag_252\n        /* \"contracts/nft.sol\":6572:6573  0 */\n      0x00\n        /* \"contracts/nft.sol\":6576:6578  to */\n      dup7\n        /* \"contracts/nft.sol\":6580:6587  tokenId */\n      dup5\n        /* \"contracts/nft.sol\":6589:6593  data */\n      dup5\n        /* \"contracts/nft.sol\":6541:6563  _checkOnERC721Received */\n      tag_221\n        /* \"contracts/nft.sol\":6541:6594  _checkOnERC721Received(address(0), to, tokenId, data) */\n      jump\t// in\n    tag_252:\n        /* \"contracts/nft.sol\":6519:6672  require(\r... */\n      tag_253\n      jumpi\n      mload(0x40)\n      0x08c379a000000000000000000000000000000000000000000000000000000000\n      dup2\n      mstore\n      0x04\n      add\n      tag_254\n      swap1\n      tag_224\n      jump\t// in\n    tag_254:\n      mload(0x40)\n      dup1\n      swap2\n      sub\n      swap1\n      revert\n    tag_253:\n        /* \"contracts/nft.sol\":6257:6680  function _safeMint(\r... */\n      pop\n      pop\n      pop\n      pop\n      pop\n      jump\t// out\n        /* \"contracts/nft.sol\":9614:10467  function _checkOnERC721Received(\r... */\n    tag_221:\n        /* \"contracts/nft.sol\":9768:9772  bool */\n      0x00\n        /* \"contracts/nft.sol\":9789:9804  to.isContract() */\n      tag_256\n        /* \"contracts/nft.sol\":9789:9791  to */\n      dup5\n        /* \"contracts/nft.sol\":9789:9802  to.isContract */\n      0xffffffffffffffffffffffffffffffffffffffff\n      and\n      tag_257\n        /* \"contracts/nft.sol\":9789:9804  to.isContract() */\n      jump\t// in\n    tag_256:\n        /* \"contracts/nft.sol\":9785:10460  if (to.isContract()) {\r... */\n      iszero\n      tag_258\n      jumpi\n        /* \"contracts/nft.sol\":9841:9843  to */\n      dup4\n        /* \"contracts/nft.sol\":9825:9861  IERC721Receiver(to).onERC721Received */\n      0xffffffffffffffffffffffffffffffffffffffff\n      and\n      0x150b7a02\n        /* \"contracts/nft.sol\":9862:9874  _msgSender() */\n      tag_259\n        /* \"contracts/nft.sol\":9862:9872  _msgSender */\n      tag_112\n        /* \"contracts/nft.sol\":9862:9874  _msgSender() */\n      jump\t// in\n    tag_259:\n        /* \"contracts/nft.sol\":9876:9880  from */\n      dup8\n        /* \"contracts/nft.sol\":9882:9889  tokenId */\n      dup7\n        /* \"contracts/nft.sol\":9891:9895  data */\n      dup7\n        /* \"contracts/nft.sol\":9825:9896  IERC721Receiver(to).onERC721Received(_msgSender(), from, tokenId, data) */\n      mload(0x40)\n      dup6\n      0xffffffff\n      and\n      0xe0\n      shl\n      dup2\n      mstore\n      0x04\n      add\n      tag_260\n      swap5\n      swap4\n      swap3\n      swap2\n      swap1\n      tag_261\n      jump\t// in\n    tag_260:\n      0x20\n      mload(0x40)\n      dup1\n      dup4\n      sub\n      dup2\n      0x00\n      dup8\n      dup1\n      extcodesize\n      iszero\n      dup1\n      iszero\n      tag_262\n      jumpi\n      0x00\n      dup1\n      revert\n    tag_262:\n      pop\n      gas\n      call\n      swap3\n      pop\n      pop\n      pop\n      dup1\n      iszero\n      tag_263\n      jumpi\n      pop\n      mload(0x40)\n      returndatasize\n      not(0x1f)\n      0x1f\n      dup3\n      add\n      and\n      dup3\n      add\n      dup1\n      0x40\n      mstore\n      pop\n      dup2\n      add\n      swap1\n      tag_264\n      swap2\n      swap1\n      tag_265\n      jump\t// in\n    tag_264:\n      0x01\n    tag_263:\n        /* \"contracts/nft.sol\":9821:10405  try IERC721Receiver(to).onERC721Received(_msgSender(), from, tokenId, data) returns (bytes4 retval) {\r... */\n      tag_266\n      jumpi\n      returndatasize\n      dup1\n      0x00\n      dup2\n      eq\n      tag_271\n      jumpi\n      mload(0x40)\n      swap2\n      pop\n      and(add(returndatasize, 0x3f), not(0x1f))\n      dup3\n      add\n      0x40\n      mstore\n      returndatasize\n      dup3\n      mstore\n      returndatasize\n      0x00\n      0x20\n      dup5\n      add\n      returndatacopy\n      jump(tag_270)\n    tag_271:\n      0x60\n      swap2\n      pop\n    tag_270:\n      pop\n        /* \"contracts/nft.sol\":10083:10084  0 */\n      0x00\n        /* \"contracts/nft.sol\":10066:10072  reason */\n      dup2\n        /* \"contracts/nft.sol\":10066:10079  reason.length */\n      mload\n        /* \"contracts/nft.sol\":10066:10084  reason.length == 0 */\n      eq\n        /* \"contracts/nft.sol\":10062:10390  if (reason.length == 0) {\r... */\n      iszero\n      tag_272\n      jumpi\n        /* \"contracts/nft.sol\":10109:10169  revert(\"ERC721: transfer to non ERC721Receiver implementer\") */\n      mload(0x40)\n      0x08c379a000000000000000000000000000000000000000000000000000000000\n      dup2\n      mstore\n      0x04\n      add\n      tag_273\n      swap1\n      tag_224\n      jump\t// in\n    tag_273:\n      mload(0x40)\n      dup1\n      swap2\n      sub\n      swap1\n      revert\n        /* \"contracts/nft.sol\":10062:10390  if (reason.length == 0) {\r... */\n    tag_272:\n        /* \"contracts/nft.sol\":10340:10346  reason */\n      dup1\n        /* \"contracts/nft.sol\":10334:10347  mload(reason) */\n      mload\n        /* \"contracts/nft.sol\":10325:10331  reason */\n      dup2\n        /* \"contracts/nft.sol\":10321:10323  32 */\n      0x20\n        /* \"contracts/nft.sol\":10317:10332  add(32, reason) */\n      add\n        /* \"contracts/nft.sol\":10310:10348  revert(add(32, reason), mload(reason)) */\n      revert\n        /* \"contracts/nft.sol\":9821:10405  try IERC721Receiver(to).onERC721Received(_msgSender(), from, tokenId, data) returns (bytes4 retval) {\r... */\n    tag_266:\n        /* \"contracts/nft.sol\":9957:9998  IERC721Receiver.onERC721Received.selector */\n      shl(0xe0, 0x150b7a02)\n        /* \"contracts/nft.sol\":9947:9998  retval == IERC721Receiver.onERC721Received.selector */\n      not(0xffffffffffffffffffffffffffffffffffffffffffffffffffffffff)\n      and\n        /* \"contracts/nft.sol\":9947:9953  retval */\n      dup2\n        /* \"contracts/nft.sol\":9947:9998  retval == IERC721Receiver.onERC721Received.selector */\n      not(0xffffffffffffffffffffffffffffffffffffffffffffffffffffffff)\n      and\n      eq\n        /* \"contracts/nft.sol\":9940:9998  return retval == IERC721Receiver.onERC721Received.selector */\n      swap2\n      pop\n      pop\n      jump(tag_255)\n        /* \"contracts/nft.sol\":9785:10460  if (to.isContract()) {\r... */\n    tag_258:\n        /* \"contracts/nft.sol\":10444:10448  true */\n      0x01\n        /* \"contracts/nft.sol\":10437:10448  return true */\n      swap1\n      pop\n        /* \"contracts/nft.sol\":9614:10467  function _checkOnERC721Received(\r... */\n    tag_255:\n      swap5\n      swap4\n      pop\n      pop\n      pop\n      pop\n      jump\t// out\n        /* \"contracts/nft.sol\":6688:7481  function _mint(address to,address collaborator,uint256 collaboratorPercent,uint256 tokenId) internal virtual {\r... */\n    tag_251:\n        /* \"contracts/nft.sol\":6830:6831  0 */\n      0x00\n        /* \"contracts/nft.sol\":6816:6832  to != address(0) */\n      0xffffffffffffffffffffffffffffffffffffffff\n      and\n        /* \"contracts/nft.sol\":6816:6818  to */\n      dup5\n        /* \"contracts/nft.sol\":6816:6832  to != address(0) */\n      0xffffffffffffffffffffffffffffffffffffffff\n      and\n      eq\n      iszero\n        /* \"contracts/nft.sol\":6808:6869  require(to != address(0), \"ERC721: mint to the zero address\") */\n      tag_278\n      jumpi\n      mload(0x40)\n      0x08c379a000000000000000000000000000000000000000000000000000000000\n      dup2\n      mstore\n      0x04\n      add\n      tag_279\n      swap1\n      tag_280\n      jump\t// in\n    tag_279:\n      mload(0x40)\n      dup1\n      swap2\n      sub\n      swap1\n      revert\n    tag_278:\n        /* \"contracts/nft.sol\":6912:6913  0 */\n      0x00\n        /* \"contracts/nft.sol\":6888:6914  collaborator != address(0) */\n      0xffffffffffffffffffffffffffffffffffffffff\n      and\n        /* \"contracts/nft.sol\":6888:6900  collaborator */\n      dup4\n        /* \"contracts/nft.sol\":6888:6914  collaborator != address(0) */\n      0xffffffffffffffffffffffffffffffffffffffff\n      and\n      eq\n      iszero\n        /* \"contracts/nft.sol\":6880:6951  require(collaborator != address(0), \"ERC721: mint to the zero address\") */\n      tag_281\n      jumpi\n      mload(0x40)\n      0x08c379a000000000000000000000000000000000000000000000000000000000\n      dup2\n      mstore\n      0x04\n      add\n      tag_282\n      swap1\n      tag_280\n      jump\t// in\n    tag_282:\n      mload(0x40)\n      dup1\n      swap2\n      sub\n      swap1\n      revert\n    tag_281:\n        /* \"contracts/nft.sol\":6971:6987  _exists(tokenId) */\n      tag_283\n        /* \"contracts/nft.sol\":6979:6986  tokenId */\n      dup2\n        /* \"contracts/nft.sol\":6971:6978  _exists */\n      tag_180\n        /* \"contracts/nft.sol\":6971:6987  _exists(tokenId) */\n      jump\t// in\n    tag_283:\n        /* \"contracts/nft.sol\":6970:6987  !_exists(tokenId) */\n      iszero\n        /* \"contracts/nft.sol\":6962:7020  require(!_exists(tokenId), \"ERC721: token already minted\") */\n      tag_284\n      jumpi\n      mload(0x40)\n      0x08c379a000000000000000000000000000000000000000000000000000000000\n      dup2\n      mstore\n      0x04\n      add\n      tag_285\n      swap1\n      tag_286\n      jump\t// in\n    tag_285:\n      mload(0x40)\n      dup1\n      swap2\n      sub\n      swap1\n      revert\n    tag_284:\n        /* \"contracts/nft.sol\":7033:7078  _beforeTokenTransfer(address(0), to, tokenId) */\n      tag_287\n        /* \"contracts/nft.sol\":7062:7063  0 */\n      0x00\n        /* \"contracts/nft.sol\":7066:7068  to */\n      dup6\n        /* \"contracts/nft.sol\":7070:7077  tokenId */\n      dup4\n        /* \"contracts/nft.sol\":7033:7053  _beforeTokenTransfer */\n      tag_201\n        /* \"contracts/nft.sol\":7033:7078  _beforeTokenTransfer(address(0), to, tokenId) */\n      jump\t// in\n    tag_287:\n        /* \"contracts/nft.sol\":7100:7116  _exists(tokenId) */\n      tag_288\n        /* \"contracts/nft.sol\":7108:7115  tokenId */\n      dup2\n        /* \"contracts/nft.sol\":7100:7107  _exists */\n      tag_180\n        /* \"contracts/nft.sol\":7100:7116  _exists(tokenId) */\n      jump\t// in\n    tag_288:\n        /* \"contracts/nft.sol\":7099:7116  !_exists(tokenId) */\n      iszero\n        /* \"contracts/nft.sol\":7091:7149  require(!_exists(tokenId), \"ERC721: token already minted\") */\n      tag_289\n      jumpi\n      mload(0x40)\n      0x08c379a000000000000000000000000000000000000000000000000000000000\n      dup2\n      mstore\n      0x04\n      add\n      tag_290\n      swap1\n      tag_286\n      jump\t// in\n    tag_290:\n      mload(0x40)\n      dup1\n      swap2\n      sub\n      swap1\n      revert\n    tag_289:\n        /* \"contracts/nft.sol\":7204:7205  1 */\n      0x01\n        /* \"contracts/nft.sol\":7187:7196  _balances */\n      0x05\n        /* \"contracts/nft.sol\":7187:7200  _balances[to] */\n      0x00\n        /* \"contracts/nft.sol\":7197:7199  to */\n      dup7\n        /* \"contracts/nft.sol\":7187:7200  _balances[to] */\n      0xffffffffffffffffffffffffffffffffffffffff\n      and\n      0xffffffffffffffffffffffffffffffffffffffff\n      and\n      dup2\n      mstore\n      0x20\n      add\n      swap1\n      dup2\n      mstore\n      0x20\n      add\n      0x00\n      keccak256\n      0x00\n        /* \"contracts/nft.sol\":7187:7205  _balances[to] += 1 */\n      dup3\n      dup3\n      sload\n      add\n      swap3\n      pop\n      pop\n      dup2\n      swap1\n      sstore\n      pop\n        /* \"contracts/nft.sol\":7248:7250  to */\n      dup4\n        /* \"contracts/nft.sol\":7229:7236  _owners */\n      0x02\n        /* \"contracts/nft.sol\":7229:7245  _owners[tokenId] */\n      0x00\n        /* \"contracts/nft.sol\":7237:7244  tokenId */\n      dup4\n        /* \"contracts/nft.sol\":7229:7245  _owners[tokenId] */\n      dup2\n      mstore\n      0x20\n      add\n      swap1\n      dup2\n      mstore\n      0x20\n      add\n      0x00\n      keccak256\n      0x00\n        /* \"contracts/nft.sol\":7229:7250  _owners[tokenId] = to */\n      0x0100\n      exp\n      dup2\n      sload\n      dup2\n      0xffffffffffffffffffffffffffffffffffffffff\n      mul\n      not\n      and\n      swap1\n      dup4\n      0xffffffffffffffffffffffffffffffffffffffff\n      and\n      mul\n      or\n      swap1\n      sstore\n      pop\n        /* \"contracts/nft.sol\":7287:7299  collaborator */\n      dup3\n        /* \"contracts/nft.sol\":7261:7275  _collaborators */\n      0x03\n        /* \"contracts/nft.sol\":7261:7284  _collaborators[tokenId] */\n      0x00\n        /* \"contracts/nft.sol\":7276:7283  tokenId */\n      dup4\n        /* \"contracts/nft.sol\":7261:7284  _collaborators[tokenId] */\n      dup2\n      mstore\n      0x20\n      add\n      swap1\n      dup2\n      mstore\n      0x20\n      add\n      0x00\n      keccak256\n      0x00\n        /* \"contracts/nft.sol\":7261:7299  _collaborators[tokenId] = collaborator */\n      0x0100\n      exp\n      dup2\n      sload\n      dup2\n      0xffffffffffffffffffffffffffffffffffffffff\n      mul\n      not\n      and\n      swap1\n      dup4\n      0xffffffffffffffffffffffffffffffffffffffff\n      and\n      mul\n      or\n      swap1\n      sstore\n      pop\n        /* \"contracts/nft.sol\":7346:7365  collaboratorPercent */\n      dup2\n        /* \"contracts/nft.sol\":7310:7334  _collaboratorsPercentage */\n      0x04\n        /* \"contracts/nft.sol\":7310:7343  _collaboratorsPercentage[tokenId] */\n      0x00\n        /* \"contracts/nft.sol\":7335:7342  tokenId */\n      dup4\n        /* \"contracts/nft.sol\":7310:7343  _collaboratorsPercentage[tokenId] */\n      dup2\n      mstore\n      0x20\n      add\n      swap1\n      dup2\n      mstore\n      0x20\n      add\n      0x00\n      keccak256\n        /* \"contracts/nft.sol\":7310:7365  _collaboratorsPercentage[tokenId] = collaboratorPercent */\n      dup2\n      swap1\n      sstore\n      pop\n        /* \"contracts/nft.sol\":7408:7415  tokenId */\n      dup1\n        /* \"contracts/nft.sol\":7404:7406  to */\n      dup5\n        /* \"contracts/nft.sol\":7383:7416  Transfer(address(0), to, tokenId) */\n      0xffffffffffffffffffffffffffffffffffffffff\n      and\n        /* \"contracts/nft.sol\":7400:7401  0 */\n      0x00\n        /* \"contracts/nft.sol\":7383:7416  Transfer(address(0), to, tokenId) */\n      0xffffffffffffffffffffffffffffffffffffffff\n      and\n      0xddf252ad1be2c89b69c2b068fc378daa952ba7f163c4a11628f55a4df523b3ef\n      mload(0x40)\n      mload(0x40)\n      dup1\n      swap2\n      sub\n      swap1\n      log4\n        /* \"contracts/nft.sol\":7429:7473  _afterTokenTransfer(address(0), to, tokenId) */\n      tag_291\n        /* \"contracts/nft.sol\":7457:7458  0 */\n      0x00\n        /* \"contracts/nft.sol\":7461:7463  to */\n      dup6\n        /* \"contracts/nft.sol\":7465:7472  tokenId */\n      dup4\n        /* \"contracts/nft.sol\":7429:7448  _afterTokenTransfer */\n      tag_206\n        /* \"contracts/nft.sol\":7429:7473  _afterTokenTransfer(address(0), to, tokenId) */\n      jump\t// in\n    tag_291:\n        /* \"contracts/nft.sol\":6688:7481  function _mint(address to,address collaborator,uint256 collaboratorPercent,uint256 tokenId) internal virtual {\r... */\n      pop\n      pop\n      pop\n      pop\n      jump\t// out\n        /* \"@openzeppelin/contracts@4.6.0/utils/Address.sol\":1175:1495  function isContract(address account) internal view returns (bool) {... */\n    tag_257:\n        /* \"@openzeppelin/contracts@4.6.0/utils/Address.sol\":1235:1239  bool */\n      0x00\n        /* \"@openzeppelin/contracts@4.6.0/utils/Address.sol\":1487:1488  0 */\n      dup1\n        /* \"@openzeppelin/contracts@4.6.0/utils/Address.sol\":1465:1472  account */\n      dup3\n        /* \"@openzeppelin/contracts@4.6.0/utils/Address.sol\":1465:1484  account.code.length */\n      0xffffffffffffffffffffffffffffffffffffffff\n      and\n      extcodesize\n        /* \"@openzeppelin/contracts@4.6.0/utils/Address.sol\":1465:1488  account.code.length > 0 */\n      gt\n        /* \"@openzeppelin/contracts@4.6.0/utils/Address.sol\":1458:1488  return account.code.length > 0 */\n      swap1\n      pop\n        /* \"@openzeppelin/contracts@4.6.0/utils/Address.sol\":1175:1495  function isContract(address account) internal view returns (bool) {... */\n      swap2\n      swap1\n      pop\n      jump\t// out\n    tag_212:\n      dup3\n      dup1\n      sload\n      tag_293\n      swap1\n      tag_98\n      jump\t// in\n    tag_293:\n      swap1\n      0x00\n      mstore\n      keccak256(0x00, 0x20)\n      swap1\n      0x1f\n      add\n      0x20\n      swap1\n      div\n      dup2\n      add\n      swap3\n      dup3\n      tag_295\n      jumpi\n      0x00\n      dup6\n      sstore\n      jump(tag_294)\n    tag_295:\n      dup3\n      0x1f\n      lt\n      tag_296\n      jumpi\n      dup1\n      mload\n      not(0xff)\n      and\n      dup4\n      dup1\n      add\n      or\n      dup6\n      sstore\n      jump(tag_294)\n    tag_296:\n      dup3\n      dup1\n      add\n      0x01\n      add\n      dup6\n      sstore\n      dup3\n      iszero\n      tag_294\n      jumpi\n      swap2\n      dup3\n      add\n    tag_297:\n      dup3\n      dup2\n      gt\n      iszero\n      tag_298\n      jumpi\n      dup3\n      mload\n      dup3\n      sstore\n      swap2\n      0x20\n      add\n      swap2\n      swap1\n      0x01\n      add\n      swap1\n      jump(tag_297)\n    tag_298:\n    tag_294:\n      pop\n      swap1\n      pop\n      tag_299\n      swap2\n      swap1\n      tag_300\n      jump\t// in\n    tag_299:\n      pop\n      swap1\n      jump\t// out\n    tag_300:\n    tag_301:\n      dup1\n      dup3\n      gt\n      iszero\n      tag_302\n      jumpi\n      0x00\n      dup2\n      0x00\n      swap1\n      sstore\n      pop\n      0x01\n      add\n      jump(tag_301)\n    tag_302:\n      pop\n      swap1\n      jump\t// out\n        /* \"#utility.yul\":7:350   */\n    tag_304:\n        /* \"#utility.yul\":84:89   */\n      0x00\n        /* \"#utility.yul\":109:174   */\n      tag_306\n        /* \"#utility.yul\":125:173   */\n      tag_307\n        /* \"#utility.yul\":166:172   */\n      dup5\n        /* \"#utility.yul\":125:173   */\n      tag_308\n      jump\t// in\n    tag_307:\n        /* \"#utility.yul\":109:174   */\n      tag_309\n      jump\t// in\n    tag_306:\n        /* \"#utility.yul\":100:174   */\n      swap1\n      pop\n        /* \"#utility.yul\":197:203   */\n      dup3\n        /* \"#utility.yul\":190:195   */\n      dup2\n        /* \"#utility.yul\":183:204   */\n      mstore\n        /* \"#utility.yul\":235:239   */\n      0x20\n        /* \"#utility.yul\":228:233   */\n      dup2\n        /* \"#utility.yul\":224:240   */\n      add\n        /* \"#utility.yul\":273:276   */\n      dup5\n        /* \"#utility.yul\":264:270   */\n      dup5\n        /* \"#utility.yul\":259:262   */\n      dup5\n        /* \"#utility.yul\":255:271   */\n      add\n        /* \"#utility.yul\":252:277   */\n      gt\n        /* \"#utility.yul\":249:251   */\n      iszero\n      tag_310\n      jumpi\n        /* \"#utility.yul\":290:291   */\n      0x00\n        /* \"#utility.yul\":287:288   */\n      dup1\n        /* \"#utility.yul\":280:292   */\n      revert\n        /* \"#utility.yul\":249:251   */\n    tag_310:\n        /* \"#utility.yul\":303:344   */\n      tag_311\n        /* \"#utility.yul\":337:343   */\n      dup5\n        /* \"#utility.yul\":332:335   */\n      dup3\n        /* \"#utility.yul\":327:330   */\n      dup6\n        /* \"#utility.yul\":303:344   */\n      tag_312\n      jump\t// in\n    tag_311:\n        /* \"#utility.yul\":90:350   */\n      pop\n      swap4\n      swap3\n      pop\n      pop\n      pop\n      jump\t// out\n        /* \"#utility.yul\":356:701   */\n    tag_313:\n        /* \"#utility.yul\":434:439   */\n      0x00\n        /* \"#utility.yul\":459:525   */\n      tag_315\n        /* \"#utility.yul\":475:524   */\n      tag_316\n        /* \"#utility.yul\":517:523   */\n      dup5\n        /* \"#utility.yul\":475:524   */\n      tag_317\n      jump\t// in\n    tag_316:\n        /* \"#utility.yul\":459:525   */\n      tag_309\n      jump\t// in\n    tag_315:\n        /* \"#utility.yul\":450:525   */\n      swap1\n      pop\n        /* \"#utility.yul\":548:554   */\n      dup3\n        /* \"#utility.yul\":541:546   */\n      dup2\n        /* \"#utility.yul\":534:555   */\n      mstore\n        /* \"#utility.yul\":586:590   */\n      0x20\n        /* \"#utility.yul\":579:584   */\n      dup2\n        /* \"#utility.yul\":575:591   */\n      add\n        /* \"#utility.yul\":624:627   */\n      dup5\n        /* \"#utility.yul\":615:621   */\n      dup5\n        /* \"#utility.yul\":610:613   */\n      dup5\n        /* \"#utility.yul\":606:622   */\n      add\n        /* \"#utility.yul\":603:628   */\n      gt\n        /* \"#utility.yul\":600:602   */\n      iszero\n      tag_318\n      jumpi\n        /* \"#utility.yul\":641:642   */\n      0x00\n        /* \"#utility.yul\":638:639   */\n      dup1\n        /* \"#utility.yul\":631:643   */\n      revert\n        /* \"#utility.yul\":600:602   */\n    tag_318:\n        /* \"#utility.yul\":654:695   */\n      tag_319\n        /* \"#utility.yul\":688:694   */\n      dup5\n        /* \"#utility.yul\":683:686   */\n      dup3\n        /* \"#utility.yul\":678:681   */\n      dup6\n        /* \"#utility.yul\":654:695   */\n      tag_312\n      jump\t// in\n    tag_319:\n        /* \"#utility.yul\":440:701   */\n      pop\n      swap4\n      swap3\n      pop\n      pop\n      pop\n      jump\t// out\n        /* \"#utility.yul\":707:846   */\n    tag_320:\n        /* \"#utility.yul\":753:758   */\n      0x00\n        /* \"#utility.yul\":791:797   */\n      dup2\n        /* \"#utility.yul\":778:798   */\n      calldataload\n        /* \"#utility.yul\":769:798   */\n      swap1\n      pop\n        /* \"#utility.yul\":807:840   */\n      tag_322\n        /* \"#utility.yul\":834:839   */\n      dup2\n        /* \"#utility.yul\":807:840   */\n      tag_323\n      jump\t// in\n    tag_322:\n        /* \"#utility.yul\":759:846   */\n      swap3\n      swap2\n      pop\n      pop\n      jump\t// out\n        /* \"#utility.yul\":852:985   */\n    tag_324:\n        /* \"#utility.yul\":895:900   */\n      0x00\n        /* \"#utility.yul\":933:939   */\n      dup2\n        /* \"#utility.yul\":920:940   */\n      calldataload\n        /* \"#utility.yul\":911:940   */\n      swap1\n      pop\n        /* \"#utility.yul\":949:979   */\n      tag_326\n        /* \"#utility.yul\":973:978   */\n      dup2\n        /* \"#utility.yul\":949:979   */\n      tag_327\n      jump\t// in\n    tag_326:\n        /* \"#utility.yul\":901:985   */\n      swap3\n      swap2\n      pop\n      pop\n      jump\t// out\n        /* \"#utility.yul\":991:1128   */\n    tag_328:\n        /* \"#utility.yul\":1036:1041   */\n      0x00\n        /* \"#utility.yul\":1074:1080   */\n      dup2\n        /* \"#utility.yul\":1061:1081   */\n      calldataload\n        /* \"#utility.yul\":1052:1081   */\n      swap1\n      pop\n        /* \"#utility.yul\":1090:1122   */\n      tag_330\n        /* \"#utility.yul\":1116:1121   */\n      dup2\n        /* \"#utility.yul\":1090:1122   */\n      tag_331\n      jump\t// in\n    tag_330:\n        /* \"#utility.yul\":1042:1128   */\n      swap3\n      swap2\n      pop\n      pop\n      jump\t// out\n        /* \"#utility.yul\":1134:1275   */\n    tag_332:\n        /* \"#utility.yul\":1190:1195   */\n      0x00\n        /* \"#utility.yul\":1221:1227   */\n      dup2\n        /* \"#utility.yul\":1215:1228   */\n      mload\n        /* \"#utility.yul\":1206:1228   */\n      swap1\n      pop\n        /* \"#utility.yul\":1237:1269   */\n      tag_334\n        /* \"#utility.yul\":1263:1268   */\n      dup2\n        /* \"#utility.yul\":1237:1269   */\n      tag_331\n      jump\t// in\n    tag_334:\n        /* \"#utility.yul\":1196:1275   */\n      swap3\n      swap2\n      pop\n      pop\n      jump\t// out\n        /* \"#utility.yul\":1294:1565   */\n    tag_335:\n        /* \"#utility.yul\":1349:1354   */\n      0x00\n        /* \"#utility.yul\":1398:1401   */\n      dup3\n        /* \"#utility.yul\":1391:1395   */\n      0x1f\n        /* \"#utility.yul\":1383:1389   */\n      dup4\n        /* \"#utility.yul\":1379:1396   */\n      add\n        /* \"#utility.yul\":1375:1402   */\n      slt\n        /* \"#utility.yul\":1365:1367   */\n      tag_337\n      jumpi\n        /* \"#utility.yul\":1416:1417   */\n      0x00\n        /* \"#utility.yul\":1413:1414   */\n      dup1\n        /* \"#utility.yul\":1406:1418   */\n      revert\n        /* \"#utility.yul\":1365:1367   */\n    tag_337:\n        /* \"#utility.yul\":1456:1462   */\n      dup2\n        /* \"#utility.yul\":1443:1463   */\n      calldataload\n        /* \"#utility.yul\":1481:1559   */\n      tag_338\n        /* \"#utility.yul\":1555:1558   */\n      dup5\n        /* \"#utility.yul\":1547:1553   */\n      dup3\n        /* \"#utility.yul\":1540:1544   */\n      0x20\n        /* \"#utility.yul\":1532:1538   */\n      dup7\n        /* \"#utility.yul\":1528:1545   */\n      add\n        /* \"#utility.yul\":1481:1559   */\n      tag_304\n      jump\t// in\n    tag_338:\n        /* \"#utility.yul\":1472:1559   */\n      swap2\n      pop\n        /* \"#utility.yul\":1355:1565   */\n      pop\n      swap3\n      swap2\n      pop\n      pop\n      jump\t// out\n        /* \"#utility.yul\":1585:1858   */\n    tag_339:\n        /* \"#utility.yul\":1641:1646   */\n      0x00\n        /* \"#utility.yul\":1690:1693   */\n      dup3\n        /* \"#utility.yul\":1683:1687   */\n      0x1f\n        /* \"#utility.yul\":1675:1681   */\n      dup4\n        /* \"#utility.yul\":1671:1688   */\n      add\n        /* \"#utility.yul\":1667:1694   */\n      slt\n        /* \"#utility.yul\":1657:1659   */\n      tag_341\n      jumpi\n        /* \"#utility.yul\":1708:1709   */\n      0x00\n        /* \"#utility.yul\":1705:1706   */\n      dup1\n        /* \"#utility.yul\":1698:1710   */\n      revert\n        /* \"#utility.yul\":1657:1659   */\n    tag_341:\n        /* \"#utility.yul\":1748:1754   */\n      dup2\n        /* \"#utility.yul\":1735:1755   */\n      calldataload\n        /* \"#utility.yul\":1773:1852   */\n      tag_342\n        /* \"#utility.yul\":1848:1851   */\n      dup5\n        /* \"#utility.yul\":1840:1846   */\n      dup3\n        /* \"#utility.yul\":1833:1837   */\n      0x20\n        /* \"#utility.yul\":1825:1831   */\n      dup7\n        /* \"#utility.yul\":1821:1838   */\n      add\n        /* \"#utility.yul\":1773:1852   */\n      tag_313\n      jump\t// in\n    tag_342:\n        /* \"#utility.yul\":1764:1852   */\n      swap2\n      pop\n        /* \"#utility.yul\":1647:1858   */\n      pop\n      swap3\n      swap2\n      pop\n      pop\n      jump\t// out\n        /* \"#utility.yul\":1864:2003   */\n    tag_343:\n        /* \"#utility.yul\":1910:1915   */\n      0x00\n        /* \"#utility.yul\":1948:1954   */\n      dup2\n        /* \"#utility.yul\":1935:1955   */\n      calldataload\n        /* \"#utility.yul\":1926:1955   */\n      swap1\n      pop\n        /* \"#utility.yul\":1964:1997   */\n      tag_345\n        /* \"#utility.yul\":1991:1996   */\n      dup2\n        /* \"#utility.yul\":1964:1997   */\n      tag_346\n      jump\t// in\n    tag_345:\n        /* \"#utility.yul\":1916:2003   */\n      swap3\n      swap2\n      pop\n      pop\n      jump\t// out\n        /* \"#utility.yul\":2009:2271   */\n    tag_59:\n        /* \"#utility.yul\":2068:2074   */\n      0x00\n        /* \"#utility.yul\":2117:2119   */\n      0x20\n        /* \"#utility.yul\":2105:2114   */\n      dup3\n        /* \"#utility.yul\":2096:2103   */\n      dup5\n        /* \"#utility.yul\":2092:2115   */\n      sub\n        /* \"#utility.yul\":2088:2120   */\n      slt\n        /* \"#utility.yul\":2085:2087   */\n      iszero\n      tag_348\n      jumpi\n        /* \"#utility.yul\":2133:2134   */\n      0x00\n        /* \"#utility.yul\":2130:2131   */\n      dup1\n        /* \"#utility.yul\":2123:2135   */\n      revert\n        /* \"#utility.yul\":2085:2087   */\n    tag_348:\n        /* \"#utility.yul\":2176:2177   */\n      0x00\n        /* \"#utility.yul\":2201:2254   */\n      tag_349\n        /* \"#utility.yul\":2246:2253   */\n      dup5\n        /* \"#utility.yul\":2237:2243   */\n      dup3\n        /* \"#utility.yul\":2226:2235   */\n      dup6\n        /* \"#utility.yul\":2222:2244   */\n      add\n        /* \"#utility.yul\":2201:2254   */\n      tag_320\n      jump\t// in\n    tag_349:\n        /* \"#utility.yul\":2191:2254   */\n      swap2\n      pop\n        /* \"#utility.yul\":2147:2264   */\n      pop\n        /* \"#utility.yul\":2075:2271   */\n      swap3\n      swap2\n      pop\n      pop\n      jump\t// out\n        /* \"#utility.yul\":2277:2684   */\n    tag_84:\n        /* \"#utility.yul\":2345:2351   */\n      0x00\n        /* \"#utility.yul\":2353:2359   */\n      dup1\n        /* \"#utility.yul\":2402:2404   */\n      0x40\n        /* \"#utility.yul\":2390:2399   */\n      dup4\n        /* \"#utility.yul\":2381:2388   */\n      dup6\n        /* \"#utility.yul\":2377:2400   */\n      sub\n        /* \"#utility.yul\":2373:2405   */\n      slt\n        /* \"#utility.yul\":2370:2372   */\n      iszero\n      tag_351\n      jumpi\n        /* \"#utility.yul\":2418:2419   */\n      0x00\n        /* \"#utility.yul\":2415:2416   */\n      dup1\n        /* \"#utility.yul\":2408:2420   */\n      revert\n        /* \"#utility.yul\":2370:2372   */\n    tag_351:\n        /* \"#utility.yul\":2461:2462   */\n      0x00\n        /* \"#utility.yul\":2486:2539   */\n      tag_352\n        /* \"#utility.yul\":2531:2538   */\n      dup6\n        /* \"#utility.yul\":2522:2528   */\n      dup3\n        /* \"#utility.yul\":2511:2520   */\n      dup7\n        /* \"#utility.yul\":2507:2529   */\n      add\n        /* \"#utility.yul\":2486:2539   */\n      tag_320\n      jump\t// in\n    tag_352:\n        /* \"#utility.yul\":2476:2539   */\n      swap3\n      pop\n        /* \"#utility.yul\":2432:2549   */\n      pop\n        /* \"#utility.yul\":2588:2590   */\n      0x20\n        /* \"#utility.yul\":2614:2667   */\n      tag_353\n        /* \"#utility.yul\":2659:2666   */\n      dup6\n        /* \"#utility.yul\":2650:2656   */\n      dup3\n        /* \"#utility.yul\":2639:2648   */\n      dup7\n        /* \"#utility.yul\":2635:2657   */\n      add\n        /* \"#utility.yul\":2614:2667   */\n      tag_320\n      jump\t// in\n    tag_353:\n        /* \"#utility.yul\":2604:2667   */\n      swap2\n      pop\n        /* \"#utility.yul\":2559:2677   */\n      pop\n        /* \"#utility.yul\":2360:2684   */\n      swap3\n      pop\n      swap3\n      swap1\n      pop\n      jump\t// out\n        /* \"#utility.yul\":2690:3242   */\n    tag_44:\n        /* \"#utility.yul\":2767:2773   */\n      0x00\n        /* \"#utility.yul\":2775:2781   */\n      dup1\n        /* \"#utility.yul\":2783:2789   */\n      0x00\n        /* \"#utility.yul\":2832:2834   */\n      0x60\n        /* \"#utility.yul\":2820:2829   */\n      dup5\n        /* \"#utility.yul\":2811:2818   */\n      dup7\n        /* \"#utility.yul\":2807:2830   */\n      sub\n        /* \"#utility.yul\":2803:2835   */\n      slt\n        /* \"#utility.yul\":2800:2802   */\n      iszero\n      tag_355\n      jumpi\n        /* \"#utility.yul\":2848:2849   */\n      0x00\n        /* \"#utility.yul\":2845:2846   */\n      dup1\n        /* \"#utility.yul\":2838:2850   */\n      revert\n        /* \"#utility.yul\":2800:2802   */\n    tag_355:\n        /* \"#utility.yul\":2891:2892   */\n      0x00\n        /* \"#utility.yul\":2916:2969   */\n      tag_356\n        /* \"#utility.yul\":2961:2968   */\n      dup7\n        /* \"#utility.yul\":2952:2958   */\n      dup3\n        /* \"#utility.yul\":2941:2950   */\n      dup8\n        /* \"#utility.yul\":2937:2959   */\n      add\n        /* \"#utility.yul\":2916:2969   */\n      tag_320\n      jump\t// in\n    tag_356:\n        /* \"#utility.yul\":2906:2969   */\n      swap4\n      pop\n        /* \"#utility.yul\":2862:2979   */\n      pop\n        /* \"#utility.yul\":3018:3020   */\n      0x20\n        /* \"#utility.yul\":3044:3097   */\n      tag_357\n        /* \"#utility.yul\":3089:3096   */\n      dup7\n        /* \"#utility.yul\":3080:3086   */\n      dup3\n        /* \"#utility.yul\":3069:3078   */\n      dup8\n        /* \"#utility.yul\":3065:3087   */\n      add\n        /* \"#utility.yul\":3044:3097   */\n      tag_320\n      jump\t// in\n    tag_357:\n        /* \"#utility.yul\":3034:3097   */\n      swap3\n      pop\n        /* \"#utility.yul\":2989:3107   */\n      pop\n        /* \"#utility.yul\":3146:3148   */\n      0x40\n        /* \"#utility.yul\":3172:3225   */\n      tag_358\n        /* \"#utility.yul\":3217:3224   */\n      dup7\n        /* \"#utility.yul\":3208:3214   */\n      dup3\n        /* \"#utility.yul\":3197:3206   */\n      dup8\n        /* \"#utility.yul\":3193:3215   */\n      add\n        /* \"#utility.yul\":3172:3225   */\n      tag_343\n      jump\t// in\n    tag_358:\n        /* \"#utility.yul\":3162:3225   */\n      swap2\n      pop\n        /* \"#utility.yul\":3117:3235   */\n      pop\n        /* \"#utility.yul\":2790:3242   */\n      swap3\n      pop\n      swap3\n      pop\n      swap3\n      jump\t// out\n        /* \"#utility.yul\":3248:4057   */\n    tag_76:\n        /* \"#utility.yul\":3343:3349   */\n      0x00\n        /* \"#utility.yul\":3351:3357   */\n      dup1\n        /* \"#utility.yul\":3359:3365   */\n      0x00\n        /* \"#utility.yul\":3367:3373   */\n      dup1\n        /* \"#utility.yul\":3416:3419   */\n      0x80\n        /* \"#utility.yul\":3404:3413   */\n      dup6\n        /* \"#utility.yul\":3395:3402   */\n      dup8\n        /* \"#utility.yul\":3391:3414   */\n      sub\n        /* \"#utility.yul\":3387:3420   */\n      slt\n        /* \"#utility.yul\":3384:3386   */\n      iszero\n      tag_360\n      jumpi\n        /* \"#utility.yul\":3433:3434   */\n      0x00\n        /* \"#utility.yul\":3430:3431   */\n      dup1\n        /* \"#utility.yul\":3423:3435   */\n      revert\n        /* \"#utility.yul\":3384:3386   */\n    tag_360:\n        /* \"#utility.yul\":3476:3477   */\n      0x00\n        /* \"#utility.yul\":3501:3554   */\n      tag_361\n        /* \"#utility.yul\":3546:3553   */\n      dup8\n        /* \"#utility.yul\":3537:3543   */\n      dup3\n        /* \"#utility.yul\":3526:3535   */\n      dup9\n        /* \"#utility.yul\":3522:3544   */\n      add\n        /* \"#utility.yul\":3501:3554   */\n      tag_320\n      jump\t// in\n    tag_361:\n        /* \"#utility.yul\":3491:3554   */\n      swap5\n      pop\n        /* \"#utility.yul\":3447:3564   */\n      pop\n        /* \"#utility.yul\":3603:3605   */\n      0x20\n        /* \"#utility.yul\":3629:3682   */\n      tag_362\n        /* \"#utility.yul\":3674:3681   */\n      dup8\n        /* \"#utility.yul\":3665:3671   */\n      dup3\n        /* \"#utility.yul\":3654:3663   */\n      dup9\n        /* \"#utility.yul\":3650:3672   */\n      add\n        /* \"#utility.yul\":3629:3682   */\n      tag_320\n      jump\t// in\n    tag_362:\n        /* \"#utility.yul\":3619:3682   */\n      swap4\n      pop\n        /* \"#utility.yul\":3574:3692   */\n      pop\n        /* \"#utility.yul\":3731:3733   */\n      0x40\n        /* \"#utility.yul\":3757:3810   */\n      tag_363\n        /* \"#utility.yul\":3802:3809   */\n      dup8\n        /* \"#utility.yul\":3793:3799   */\n      dup3\n        /* \"#utility.yul\":3782:3791   */\n      dup9\n        /* \"#utility.yul\":3778:3800   */\n      add\n        /* \"#utility.yul\":3757:3810   */\n      tag_343\n      jump\t// in\n    tag_363:\n        /* \"#utility.yul\":3747:3810   */\n      swap3\n      pop\n        /* \"#utility.yul\":3702:3820   */\n      pop\n        /* \"#utility.yul\":3887:3889   */\n      0x60\n        /* \"#utility.yul\":3876:3885   */\n      dup6\n        /* \"#utility.yul\":3872:3890   */\n      add\n        /* \"#utility.yul\":3859:3891   */\n      calldataload\n        /* \"#utility.yul\":3918:3936   */\n      0xffffffffffffffff\n        /* \"#utility.yul\":3910:3916   */\n      dup2\n        /* \"#utility.yul\":3907:3937   */\n      gt\n        /* \"#utility.yul\":3904:3906   */\n      iszero\n      tag_364\n      jumpi\n        /* \"#utility.yul\":3950:3951   */\n      0x00\n        /* \"#utility.yul\":3947:3948   */\n      dup1\n        /* \"#utility.yul\":3940:3952   */\n      revert\n        /* \"#utility.yul\":3904:3906   */\n    tag_364:\n        /* \"#utility.yul\":3978:4040   */\n      tag_365\n        /* \"#utility.yul\":4032:4039   */\n      dup8\n        /* \"#utility.yul\":4023:4029   */\n      dup3\n        /* \"#utility.yul\":4012:4021   */\n      dup9\n        /* \"#utility.yul\":4008:4030   */\n      add\n        /* \"#utility.yul\":3978:4040   */\n      tag_335\n      jump\t// in\n    tag_365:\n        /* \"#utility.yul\":3968:4040   */\n      swap2\n      pop\n        /* \"#utility.yul\":3830:4050   */\n      pop\n        /* \"#utility.yul\":3374:4057   */\n      swap3\n      swap6\n      swap2\n      swap5\n      pop\n      swap3\n      pop\n      jump\t// out\n        /* \"#utility.yul\":4063:5020   */\n    tag_65:\n        /* \"#utility.yul\":4168:4174   */\n      0x00\n        /* \"#utility.yul\":4176:4182   */\n      dup1\n        /* \"#utility.yul\":4184:4190   */\n      0x00\n        /* \"#utility.yul\":4192:4198   */\n      dup1\n        /* \"#utility.yul\":4200:4206   */\n      0x00\n        /* \"#utility.yul\":4249:4252   */\n      0xa0\n        /* \"#utility.yul\":4237:4246   */\n      dup7\n        /* \"#utility.yul\":4228:4235   */\n      dup9\n        /* \"#utility.yul\":4224:4247   */\n      sub\n        /* \"#utility.yul\":4220:4253   */\n      slt\n        /* \"#utility.yul\":4217:4219   */\n      iszero\n      tag_367\n      jumpi\n        /* \"#utility.yul\":4266:4267   */\n      0x00\n        /* \"#utility.yul\":4263:4264   */\n      dup1\n        /* \"#utility.yul\":4256:4268   */\n      revert\n        /* \"#utility.yul\":4217:4219   */\n    tag_367:\n        /* \"#utility.yul\":4309:4310   */\n      0x00\n        /* \"#utility.yul\":4334:4387   */\n      tag_368\n        /* \"#utility.yul\":4379:4386   */\n      dup9\n        /* \"#utility.yul\":4370:4376   */\n      dup3\n        /* \"#utility.yul\":4359:4368   */\n      dup10\n        /* \"#utility.yul\":4355:4377   */\n      add\n        /* \"#utility.yul\":4334:4387   */\n      tag_320\n      jump\t// in\n    tag_368:\n        /* \"#utility.yul\":4324:4387   */\n      swap6\n      pop\n        /* \"#utility.yul\":4280:4397   */\n      pop\n        /* \"#utility.yul\":4436:4438   */\n      0x20\n        /* \"#utility.yul\":4462:4515   */\n      tag_369\n        /* \"#utility.yul\":4507:4514   */\n      dup9\n        /* \"#utility.yul\":4498:4504   */\n      dup3\n        /* \"#utility.yul\":4487:4496   */\n      dup10\n        /* \"#utility.yul\":4483:4505   */\n      add\n        /* \"#utility.yul\":4462:4515   */\n      tag_320\n      jump\t// in\n    tag_369:\n        /* \"#utility.yul\":4452:4515   */\n      swap5\n      pop\n        /* \"#utility.yul\":4407:4525   */\n      pop\n        /* \"#utility.yul\":4564:4566   */\n      0x40\n        /* \"#utility.yul\":4590:4643   */\n      tag_370\n        /* \"#utility.yul\":4635:4642   */\n      dup9\n        /* \"#utility.yul\":4626:4632   */\n      dup3\n        /* \"#utility.yul\":4615:4624   */\n      dup10\n        /* \"#utility.yul\":4611:4633   */\n      add\n        /* \"#utility.yul\":4590:4643   */\n      tag_343\n      jump\t// in\n    tag_370:\n        /* \"#utility.yul\":4580:4643   */\n      swap4\n      pop\n        /* \"#utility.yul\":4535:4653   */\n      pop\n        /* \"#utility.yul\":4692:4694   */\n      0x60\n        /* \"#utility.yul\":4718:4771   */\n      tag_371\n        /* \"#utility.yul\":4763:4770   */\n      dup9\n        /* \"#utility.yul\":4754:4760   */\n      dup3\n        /* \"#utility.yul\":4743:4752   */\n      dup10\n        /* \"#utility.yul\":4739:4761   */\n      add\n        /* \"#utility.yul\":4718:4771   */\n      tag_343\n      jump\t// in\n    tag_371:\n        /* \"#utility.yul\":4708:4771   */\n      swap3\n      pop\n        /* \"#utility.yul\":4663:4781   */\n      pop\n        /* \"#utility.yul\":4848:4851   */\n      0x80\n        /* \"#utility.yul\":4837:4846   */\n      dup7\n        /* \"#utility.yul\":4833:4852   */\n      add\n        /* \"#utility.yul\":4820:4853   */\n      calldataload\n        /* \"#utility.yul\":4880:4898   */\n      0xffffffffffffffff\n        /* \"#utility.yul\":4872:4878   */\n      dup2\n        /* \"#utility.yul\":4869:4899   */\n      gt\n        /* \"#utility.yul\":4866:4868   */\n      iszero\n      tag_372\n      jumpi\n        /* \"#utility.yul\":4912:4913   */\n      0x00\n        /* \"#utility.yul\":4909:4910   */\n      dup1\n        /* \"#utility.yul\":4902:4914   */\n      revert\n        /* \"#utility.yul\":4866:4868   */\n    tag_372:\n        /* \"#utility.yul\":4940:5003   */\n      tag_373\n        /* \"#utility.yul\":4995:5002   */\n      dup9\n        /* \"#utility.yul\":4986:4992   */\n      dup3\n        /* \"#utility.yul\":4975:4984   */\n      dup10\n        /* \"#utility.yul\":4971:4993   */\n      add\n        /* \"#utility.yul\":4940:5003   */\n      tag_339\n      jump\t// in\n    tag_373:\n        /* \"#utility.yul\":4930:5003   */\n      swap2\n      pop\n        /* \"#utility.yul\":4791:5013   */\n      pop\n        /* \"#utility.yul\":4207:5020   */\n      swap3\n      swap6\n      pop\n      swap3\n      swap6\n      swap1\n      swap4\n      pop\n      jump\t// out\n        /* \"#utility.yul\":5026:5427   */\n    tag_72:\n        /* \"#utility.yul\":5091:5097   */\n      0x00\n        /* \"#utility.yul\":5099:5105   */\n      dup1\n        /* \"#utility.yul\":5148:5150   */\n      0x40\n        /* \"#utility.yul\":5136:5145   */\n      dup4\n        /* \"#utility.yul\":5127:5134   */\n      dup6\n        /* \"#utility.yul\":5123:5146   */\n      sub\n        /* \"#utility.yul\":5119:5151   */\n      slt\n        /* \"#utility.yul\":5116:5118   */\n      iszero\n      tag_375\n      jumpi\n        /* \"#utility.yul\":5164:5165   */\n      0x00\n        /* \"#utility.yul\":5161:5162   */\n      dup1\n        /* \"#utility.yul\":5154:5166   */\n      revert\n        /* \"#utility.yul\":5116:5118   */\n    tag_375:\n        /* \"#utility.yul\":5207:5208   */\n      0x00\n        /* \"#utility.yul\":5232:5285   */\n      tag_376\n        /* \"#utility.yul\":5277:5284   */\n      dup6\n        /* \"#utility.yul\":5268:5274   */\n      dup3\n        /* \"#utility.yul\":5257:5266   */\n      dup7\n        /* \"#utility.yul\":5253:5275   */\n      add\n        /* \"#utility.yul\":5232:5285   */\n      tag_320\n      jump\t// in\n    tag_376:\n        /* \"#utility.yul\":5222:5285   */\n      swap3\n      pop\n        /* \"#utility.yul\":5178:5295   */\n      pop\n        /* \"#utility.yul\":5334:5336   */\n      0x20\n        /* \"#utility.yul\":5360:5410   */\n      tag_377\n        /* \"#utility.yul\":5402:5409   */\n      dup6\n        /* \"#utility.yul\":5393:5399   */\n      dup3\n        /* \"#utility.yul\":5382:5391   */\n      dup7\n        /* \"#utility.yul\":5378:5400   */\n      add\n        /* \"#utility.yul\":5360:5410   */\n      tag_324\n      jump\t// in\n    tag_377:\n        /* \"#utility.yul\":5350:5410   */\n      swap2\n      pop\n        /* \"#utility.yul\":5305:5420   */\n      pop\n        /* \"#utility.yul\":5106:5427   */\n      swap3\n      pop\n      swap3\n      swap1\n      pop\n      jump\t// out\n        /* \"#utility.yul\":5433:5840   */\n    tag_40:\n        /* \"#utility.yul\":5501:5507   */\n      0x00\n        /* \"#utility.yul\":5509:5515   */\n      dup1\n        /* \"#utility.yul\":5558:5560   */\n      0x40\n        /* \"#utility.yul\":5546:5555   */\n      dup4\n        /* \"#utility.yul\":5537:5544   */\n      dup6\n        /* \"#utility.yul\":5533:5556   */\n      sub\n        /* \"#utility.yul\":5529:5561   */\n      slt\n        /* \"#utility.yul\":5526:5528   */\n      iszero\n      tag_379\n      jumpi\n        /* \"#utility.yul\":5574:5575   */\n      0x00\n        /* \"#utility.yul\":5571:5572   */\n      dup1\n        /* \"#utility.yul\":5564:5576   */\n      revert\n        /* \"#utility.yul\":5526:5528   */\n    tag_379:\n        /* \"#utility.yul\":5617:5618   */\n      0x00\n        /* \"#utility.yul\":5642:5695   */\n      tag_380\n        /* \"#utility.yul\":5687:5694   */\n      dup6\n        /* \"#utility.yul\":5678:5684   */\n      dup3\n        /* \"#utility.yul\":5667:5676   */\n      dup7\n        /* \"#utility.yul\":5663:5685   */\n      add\n        /* \"#utility.yul\":5642:5695   */\n      tag_320\n      jump\t// in\n    tag_380:\n        /* \"#utility.yul\":5632:5695   */\n      swap3\n      pop\n        /* \"#utility.yul\":5588:5705   */\n      pop\n        /* \"#utility.yul\":5744:5746   */\n      0x20\n        /* \"#utility.yul\":5770:5823   */\n      tag_381\n        /* \"#utility.yul\":5815:5822   */\n      dup6\n        /* \"#utility.yul\":5806:5812   */\n      dup3\n        /* \"#utility.yul\":5795:5804   */\n      dup7\n        /* \"#utility.yul\":5791:5813   */\n      add\n        /* \"#utility.yul\":5770:5823   */\n      tag_343\n      jump\t// in\n    tag_381:\n        /* \"#utility.yul\":5760:5823   */\n      swap2\n      pop\n        /* \"#utility.yul\":5715:5833   */\n      pop\n        /* \"#utility.yul\":5516:5840   */\n      swap3\n      pop\n      swap3\n      swap1\n      pop\n      jump\t// out\n        /* \"#utility.yul\":5846:6106   */\n    tag_24:\n        /* \"#utility.yul\":5904:5910   */\n      0x00\n        /* \"#utility.yul\":5953:5955   */\n      0x20\n        /* \"#utility.yul\":5941:5950   */\n      dup3\n        /* \"#utility.yul\":5932:5939   */\n      dup5\n        /* \"#utility.yul\":5928:5951   */\n      sub\n        /* \"#utility.yul\":5924:5956   */\n      slt\n        /* \"#utility.yul\":5921:5923   */\n      iszero\n      tag_383\n      jumpi\n        /* \"#utility.yul\":5969:5970   */\n      0x00\n        /* \"#utility.yul\":5966:5967   */\n      dup1\n        /* \"#utility.yul\":5959:5971   */\n      revert\n        /* \"#utility.yul\":5921:5923   */\n    tag_383:\n        /* \"#utility.yul\":6012:6013   */\n      0x00\n        /* \"#utility.yul\":6037:6089   */\n      tag_384\n        /* \"#utility.yul\":6081:6088   */\n      dup5\n        /* \"#utility.yul\":6072:6078   */\n      dup3\n        /* \"#utility.yul\":6061:6070   */\n      dup6\n        /* \"#utility.yul\":6057:6079   */\n      add\n        /* \"#utility.yul\":6037:6089   */\n      tag_328\n      jump\t// in\n    tag_384:\n        /* \"#utility.yul\":6027:6089   */\n      swap2\n      pop\n        /* \"#utility.yul\":5983:6099   */\n      pop\n        /* \"#utility.yul\":5911:6106   */\n      swap3\n      swap2\n      pop\n      pop\n      jump\t// out\n        /* \"#utility.yul\":6112:6394   */\n    tag_265:\n        /* \"#utility.yul\":6181:6187   */\n      0x00\n        /* \"#utility.yul\":6230:6232   */\n      0x20\n        /* \"#utility.yul\":6218:6227   */\n      dup3\n        /* \"#utility.yul\":6209:6216   */\n      dup5\n        /* \"#utility.yul\":6205:6228   */\n      sub\n        /* \"#utility.yul\":6201:6233   */\n      slt\n        /* \"#utility.yul\":6198:6200   */\n      iszero\n      tag_386\n      jumpi\n        /* \"#utility.yul\":6246:6247   */\n      0x00\n        /* \"#utility.yul\":6243:6244   */\n      dup1\n        /* \"#utility.yul\":6236:6248   */\n      revert\n        /* \"#utility.yul\":6198:6200   */\n    tag_386:\n        /* \"#utility.yul\":6289:6290   */\n      0x00\n        /* \"#utility.yul\":6314:6377   */\n      tag_387\n        /* \"#utility.yul\":6369:6376   */\n      dup5\n        /* \"#utility.yul\":6360:6366   */\n      dup3\n        /* \"#utility.yul\":6349:6358   */\n      dup6\n        /* \"#utility.yul\":6345:6367   */\n      add\n        /* \"#utility.yul\":6314:6377   */\n      tag_332\n      jump\t// in\n    tag_387:\n        /* \"#utility.yul\":6304:6377   */\n      swap2\n      pop\n        /* \"#utility.yul\":6260:6387   */\n      pop\n        /* \"#utility.yul\":6188:6394   */\n      swap3\n      swap2\n      pop\n      pop\n      jump\t// out\n        /* \"#utility.yul\":6400:6662   */\n    tag_34:\n        /* \"#utility.yul\":6459:6465   */\n      0x00\n        /* \"#utility.yul\":6508:6510   */\n      0x20\n        /* \"#utility.yul\":6496:6505   */\n      dup3\n        /* \"#utility.yul\":6487:6494   */\n      dup5\n        /* \"#utility.yul\":6483:6506   */\n      sub\n        /* \"#utility.yul\":6479:6511   */\n      slt\n        /* \"#utility.yul\":6476:6478   */\n      iszero\n      tag_389\n      jumpi\n        /* \"#utility.yul\":6524:6525   */\n      0x00\n        /* \"#utility.yul\":6521:6522   */\n      dup1\n        /* \"#utility.yul\":6514:6526   */\n      revert\n        /* \"#utility.yul\":6476:6478   */\n    tag_389:\n        /* \"#utility.yul\":6567:6568   */\n      0x00\n        /* \"#utility.yul\":6592:6645   */\n      tag_390\n        /* \"#utility.yul\":6637:6644   */\n      dup5\n        /* \"#utility.yul\":6628:6634   */\n      dup3\n        /* \"#utility.yul\":6617:6626   */\n      dup6\n        /* \"#utility.yul\":6613:6635   */\n      add\n        /* \"#utility.yul\":6592:6645   */\n      tag_343\n      jump\t// in\n    tag_390:\n        /* \"#utility.yul\":6582:6645   */\n      swap2\n      pop\n        /* \"#utility.yul\":6538:6655   */\n      pop\n        /* \"#utility.yul\":6466:6662   */\n      swap3\n      swap2\n      pop\n      pop\n      jump\t// out\n        /* \"#utility.yul\":6668:6786   */\n    tag_391:\n        /* \"#utility.yul\":6755:6779   */\n      tag_393\n        /* \"#utility.yul\":6773:6778   */\n      dup2\n        /* \"#utility.yul\":6755:6779   */\n      tag_394\n      jump\t// in\n    tag_393:\n        /* \"#utility.yul\":6750:6753   */\n      dup3\n        /* \"#utility.yul\":6743:6780   */\n      mstore\n        /* \"#utility.yul\":6733:6786   */\n      pop\n      pop\n      jump\t// out\n        /* \"#utility.yul\":6792:6901   */\n    tag_395:\n        /* \"#utility.yul\":6873:6894   */\n      tag_397\n        /* \"#utility.yul\":6888:6893   */\n      dup2\n        /* \"#utility.yul\":6873:6894   */\n      tag_398\n      jump\t// in\n    tag_397:\n        /* \"#utility.yul\":6868:6871   */\n      dup3\n        /* \"#utility.yul\":6861:6895   */\n      mstore\n        /* \"#utility.yul\":6851:6901   */\n      pop\n      pop\n      jump\t// out\n        /* \"#utility.yul\":6907:7267   */\n    tag_399:\n        /* \"#utility.yul\":6993:6996   */\n      0x00\n        /* \"#utility.yul\":7021:7059   */\n      tag_401\n        /* \"#utility.yul\":7053:7058   */\n      dup3\n        /* \"#utility.yul\":7021:7059   */\n      tag_402\n      jump\t// in\n    tag_401:\n        /* \"#utility.yul\":7075:7145   */\n      tag_403\n        /* \"#utility.yul\":7138:7144   */\n      dup2\n        /* \"#utility.yul\":7133:7136   */\n      dup6\n        /* \"#utility.yul\":7075:7145   */\n      tag_404\n      jump\t// in\n    tag_403:\n        /* \"#utility.yul\":7068:7145   */\n      swap4\n      pop\n        /* \"#utility.yul\":7154:7206   */\n      tag_405\n        /* \"#utility.yul\":7199:7205   */\n      dup2\n        /* \"#utility.yul\":7194:7197   */\n      dup6\n        /* \"#utility.yul\":7187:7191   */\n      0x20\n        /* \"#utility.yul\":7180:7185   */\n      dup7\n        /* \"#utility.yul\":7176:7192   */\n      add\n        /* \"#utility.yul\":7154:7206   */\n      tag_406\n      jump\t// in\n    tag_405:\n        /* \"#utility.yul\":7231:7260   */\n      tag_407\n        /* \"#utility.yul\":7253:7259   */\n      dup2\n        /* \"#utility.yul\":7231:7260   */\n      tag_408\n      jump\t// in\n    tag_407:\n        /* \"#utility.yul\":7226:7229   */\n      dup5\n        /* \"#utility.yul\":7222:7261   */\n      add\n        /* \"#utility.yul\":7215:7261   */\n      swap2\n      pop\n        /* \"#utility.yul\":6997:7267   */\n      pop\n      swap3\n      swap2\n      pop\n      pop\n      jump\t// out\n        /* \"#utility.yul\":7273:7637   */\n    tag_409:\n        /* \"#utility.yul\":7361:7364   */\n      0x00\n        /* \"#utility.yul\":7389:7428   */\n      tag_411\n        /* \"#utility.yul\":7422:7427   */\n      dup3\n        /* \"#utility.yul\":7389:7428   */\n      tag_412\n      jump\t// in\n    tag_411:\n        /* \"#utility.yul\":7444:7515   */\n      tag_413\n        /* \"#utility.yul\":7508:7514   */\n      dup2\n        /* \"#utility.yul\":7503:7506   */\n      dup6\n        /* \"#utility.yul\":7444:7515   */\n      tag_414\n      jump\t// in\n    tag_413:\n        /* \"#utility.yul\":7437:7515   */\n      swap4\n      pop\n        /* \"#utility.yul\":7524:7576   */\n      tag_415\n        /* \"#utility.yul\":7569:7575   */\n      dup2\n        /* \"#utility.yul\":7564:7567   */\n      dup6\n        /* \"#utility.yul\":7557:7561   */\n      0x20\n        /* \"#utility.yul\":7550:7555   */\n      dup7\n        /* \"#utility.yul\":7546:7562   */\n      add\n        /* \"#utility.yul\":7524:7576   */\n      tag_406\n      jump\t// in\n    tag_415:\n        /* \"#utility.yul\":7601:7630   */\n      tag_416\n        /* \"#utility.yul\":7623:7629   */\n      dup2\n        /* \"#utility.yul\":7601:7630   */\n      tag_408\n      jump\t// in\n    tag_416:\n        /* \"#utility.yul\":7596:7599   */\n      dup5\n        /* \"#utility.yul\":7592:7631   */\n      add\n        /* \"#utility.yul\":7585:7631   */\n      swap2\n      pop\n        /* \"#utility.yul\":7365:7637   */\n      pop\n      swap3\n      swap2\n      pop\n      pop\n      jump\t// out\n        /* \"#utility.yul\":7643:8020   */\n    tag_417:\n        /* \"#utility.yul\":7749:7752   */\n      0x00\n        /* \"#utility.yul\":7777:7816   */\n      tag_419\n        /* \"#utility.yul\":7810:7815   */\n      dup3\n        /* \"#utility.yul\":7777:7816   */\n      tag_412\n      jump\t// in\n    tag_419:\n        /* \"#utility.yul\":7832:7921   */\n      tag_420\n        /* \"#utility.yul\":7914:7920   */\n      dup2\n        /* \"#utility.yul\":7909:7912   */\n      dup6\n        /* \"#utility.yul\":7832:7921   */\n      tag_421\n      jump\t// in\n    tag_420:\n        /* \"#utility.yul\":7825:7921   */\n      swap4\n      pop\n        /* \"#utility.yul\":7930:7982   */\n      tag_422\n        /* \"#utility.yul\":7975:7981   */\n      dup2\n        /* \"#utility.yul\":7970:7973   */\n      dup6\n        /* \"#utility.yul\":7963:7967   */\n      0x20\n        /* \"#utility.yul\":7956:7961   */\n      dup7\n        /* \"#utility.yul\":7952:7968   */\n      add\n        /* \"#utility.yul\":7930:7982   */\n      tag_406\n      jump\t// in\n    tag_422:\n        /* \"#utility.yul\":8007:8013   */\n      dup1\n        /* \"#utility.yul\":8002:8005   */\n      dup5\n        /* \"#utility.yul\":7998:8014   */\n      add\n        /* \"#utility.yul\":7991:8014   */\n      swap2\n      pop\n        /* \"#utility.yul\":7753:8020   */\n      pop\n      swap3\n      swap2\n      pop\n      pop\n      jump\t// out\n        /* \"#utility.yul\":8026:8392   */\n    tag_423:\n        /* \"#utility.yul\":8168:8171   */\n      0x00\n        /* \"#utility.yul\":8189:8256   */\n      tag_425\n        /* \"#utility.yul\":8253:8255   */\n      0x2d\n        /* \"#utility.yul\":8248:8251   */\n      dup4\n        /* \"#utility.yul\":8189:8256   */\n      tag_414\n      jump\t// in\n    tag_425:\n        /* \"#utility.yul\":8182:8256   */\n      swap2\n      pop\n        /* \"#utility.yul\":8265:8358   */\n      tag_426\n        /* \"#utility.yul\":8354:8357   */\n      dup3\n        /* \"#utility.yul\":8265:8358   */\n      tag_427\n      jump\t// in\n    tag_426:\n        /* \"#utility.yul\":8383:8385   */\n      0x40\n        /* \"#utility.yul\":8378:8381   */\n      dup3\n        /* \"#utility.yul\":8374:8386   */\n      add\n        /* \"#utility.yul\":8367:8386   */\n      swap1\n      pop\n        /* \"#utility.yul\":8172:8392   */\n      swap2\n      swap1\n      pop\n      jump\t// out\n        /* \"#utility.yul\":8398:8764   */\n    tag_428:\n        /* \"#utility.yul\":8540:8543   */\n      0x00\n        /* \"#utility.yul\":8561:8628   */\n      tag_430\n        /* \"#utility.yul\":8625:8627   */\n      0x32\n        /* \"#utility.yul\":8620:8623   */\n      dup4\n        /* \"#utility.yul\":8561:8628   */\n      tag_414\n      jump\t// in\n    tag_430:\n        /* \"#utility.yul\":8554:8628   */\n      swap2\n      pop\n        /* \"#utility.yul\":8637:8730   */\n      tag_431\n        /* \"#utility.yul\":8726:8729   */\n      dup3\n        /* \"#utility.yul\":8637:8730   */\n      tag_432\n      jump\t// in\n    tag_431:\n        /* \"#utility.yul\":8755:8757   */\n      0x40\n        /* \"#utility.yul\":8750:8753   */\n      dup3\n        /* \"#utility.yul\":8746:8758   */\n      add\n        /* \"#utility.yul\":8739:8758   */\n      swap1\n      pop\n        /* \"#utility.yul\":8544:8764   */\n      swap2\n      swap1\n      pop\n      jump\t// out\n        /* \"#utility.yul\":8770:9136   */\n    tag_433:\n        /* \"#utility.yul\":8912:8915   */\n      0x00\n        /* \"#utility.yul\":8933:9000   */\n      tag_435\n        /* \"#utility.yul\":8997:8999   */\n      0x25\n        /* \"#utility.yul\":8992:8995   */\n      dup4\n        /* \"#utility.yul\":8933:9000   */\n      tag_414\n      jump\t// in\n    tag_435:\n        /* \"#utility.yul\":8926:9000   */\n      swap2\n      pop\n        /* \"#utility.yul\":9009:9102   */\n      tag_436\n        /* \"#utility.yul\":9098:9101   */\n      dup3\n        /* \"#utility.yul\":9009:9102   */\n      tag_437\n      jump\t// in\n    tag_436:\n        /* \"#utility.yul\":9127:9129   */\n      0x40\n        /* \"#utility.yul\":9122:9125   */\n      dup3\n        /* \"#utility.yul\":9118:9130   */\n      add\n        /* \"#utility.yul\":9111:9130   */\n      swap1\n      pop\n        /* \"#utility.yul\":8916:9136   */\n      swap2\n      swap1\n      pop\n      jump\t// out\n        /* \"#utility.yul\":9142:9508   */\n    tag_438:\n        /* \"#utility.yul\":9284:9287   */\n      0x00\n        /* \"#utility.yul\":9305:9372   */\n      tag_440\n        /* \"#utility.yul\":9369:9371   */\n      0x1c\n        /* \"#utility.yul\":9364:9367   */\n      dup4\n        /* \"#utility.yul\":9305:9372   */\n      tag_414\n      jump\t// in\n    tag_440:\n        /* \"#utility.yul\":9298:9372   */\n      swap2\n      pop\n        /* \"#utility.yul\":9381:9474   */\n      tag_441\n        /* \"#utility.yul\":9470:9473   */\n      dup3\n        /* \"#utility.yul\":9381:9474   */\n      tag_442\n      jump\t// in\n    tag_441:\n        /* \"#utility.yul\":9499:9501   */\n      0x20\n        /* \"#utility.yul\":9494:9497   */\n      dup3\n        /* \"#utility.yul\":9490:9502   */\n      add\n        /* \"#utility.yul\":9483:9502   */\n      swap1\n      pop\n        /* \"#utility.yul\":9288:9508   */\n      swap2\n      swap1\n      pop\n      jump\t// out\n        /* \"#utility.yul\":9514:9880   */\n    tag_443:\n        /* \"#utility.yul\":9656:9659   */\n      0x00\n        /* \"#utility.yul\":9677:9744   */\n      tag_445\n        /* \"#utility.yul\":9741:9743   */\n      0x24\n        /* \"#utility.yul\":9736:9739   */\n      dup4\n        /* \"#utility.yul\":9677:9744   */\n      tag_414\n      jump\t// in\n    tag_445:\n        /* \"#utility.yul\":9670:9744   */\n      swap2\n      pop\n        /* \"#utility.yul\":9753:9846   */\n      tag_446\n        /* \"#utility.yul\":9842:9845   */\n      dup3\n        /* \"#utility.yul\":9753:9846   */\n      tag_447\n      jump\t// in\n    tag_446:\n        /* \"#utility.yul\":9871:9873   */\n      0x40\n        /* \"#utility.yul\":9866:9869   */\n      dup3\n        /* \"#utility.yul\":9862:9874   */\n      add\n        /* \"#utility.yul\":9855:9874   */\n      swap1\n      pop\n        /* \"#utility.yul\":9660:9880   */\n      swap2\n      swap1\n      pop\n      jump\t// out\n        /* \"#utility.yul\":9886:10252   */\n    tag_448:\n        /* \"#utility.yul\":10028:10031   */\n      0x00\n        /* \"#utility.yul\":10049:10116   */\n      tag_450\n        /* \"#utility.yul\":10113:10115   */\n      0x19\n        /* \"#utility.yul\":10108:10111   */\n      dup4\n        /* \"#utility.yul\":10049:10116   */\n      tag_414\n      jump\t// in\n    tag_450:\n        /* \"#utility.yul\":10042:10116   */\n      swap2\n      pop\n        /* \"#utility.yul\":10125:10218   */\n      tag_451\n        /* \"#utility.yul\":10214:10217   */\n      dup3\n        /* \"#utility.yul\":10125:10218   */\n      tag_452\n      jump\t// in\n    tag_451:\n        /* \"#utility.yul\":10243:10245   */\n      0x20\n        /* \"#utility.yul\":10238:10241   */\n      dup3\n        /* \"#utility.yul\":10234:10246   */\n      add\n        /* \"#utility.yul\":10227:10246   */\n      swap1\n      pop\n        /* \"#utility.yul\":10032:10252   */\n      swap2\n      swap1\n      pop\n      jump\t// out\n        /* \"#utility.yul\":10258:10624   */\n    tag_453:\n        /* \"#utility.yul\":10400:10403   */\n      0x00\n        /* \"#utility.yul\":10421:10488   */\n      tag_455\n        /* \"#utility.yul\":10485:10487   */\n      0x29\n        /* \"#utility.yul\":10480:10483   */\n      dup4\n        /* \"#utility.yul\":10421:10488   */\n      tag_414\n      jump\t// in\n    tag_455:\n        /* \"#utility.yul\":10414:10488   */\n      swap2\n      pop\n        /* \"#utility.yul\":10497:10590   */\n      tag_456\n        /* \"#utility.yul\":10586:10589   */\n      dup3\n        /* \"#utility.yul\":10497:10590   */\n      tag_457\n      jump\t// in\n    tag_456:\n        /* \"#utility.yul\":10615:10617   */\n      0x40\n        /* \"#utility.yul\":10610:10613   */\n      dup3\n        /* \"#utility.yul\":10606:10618   */\n      add\n        /* \"#utility.yul\":10599:10618   */\n      swap1\n      pop\n        /* \"#utility.yul\":10404:10624   */\n      swap2\n      swap1\n      pop\n      jump\t// out\n        /* \"#utility.yul\":10630:10996   */\n    tag_458:\n        /* \"#utility.yul\":10772:10775   */\n      0x00\n        /* \"#utility.yul\":10793:10860   */\n      tag_460\n        /* \"#utility.yul\":10857:10859   */\n      0x20\n        /* \"#utility.yul\":10852:10855   */\n      dup4\n        /* \"#utility.yul\":10793:10860   */\n      tag_414\n      jump\t// in\n    tag_460:\n        /* \"#utility.yul\":10786:10860   */\n      swap2\n      pop\n        /* \"#utility.yul\":10869:10962   */\n      tag_461\n        /* \"#utility.yul\":10958:10961   */\n      dup3\n        /* \"#utility.yul\":10869:10962   */\n      tag_462\n      jump\t// in\n    tag_461:\n        /* \"#utility.yul\":10987:10989   */\n      0x20\n        /* \"#utility.yul\":10982:10985   */\n      dup3\n        /* \"#utility.yul\":10978:10990   */\n      add\n        /* \"#utility.yul\":10971:10990   */\n      swap1\n      pop\n        /* \"#utility.yul\":10776:10996   */\n      swap2\n      swap1\n      pop\n      jump\t// out\n        /* \"#utility.yul\":11002:11368   */\n    tag_463:\n        /* \"#utility.yul\":11144:11147   */\n      0x00\n        /* \"#utility.yul\":11165:11232   */\n      tag_465\n        /* \"#utility.yul\":11229:11231   */\n      0x18\n        /* \"#utility.yul\":11224:11227   */\n      dup4\n        /* \"#utility.yul\":11165:11232   */\n      tag_414\n      jump\t// in\n    tag_465:\n        /* \"#utility.yul\":11158:11232   */\n      swap2\n      pop\n        /* \"#utility.yul\":11241:11334   */\n      tag_466\n        /* \"#utility.yul\":11330:11333   */\n      dup3\n        /* \"#utility.yul\":11241:11334   */\n      tag_467\n      jump\t// in\n    tag_466:\n        /* \"#utility.yul\":11359:11361   */\n      0x20\n        /* \"#utility.yul\":11354:11357   */\n      dup3\n        /* \"#utility.yul\":11350:11362   */\n      add\n        /* \"#utility.yul\":11343:11362   */\n      swap1\n      pop\n        /* \"#utility.yul\":11148:11368   */\n      swap2\n      swap1\n      pop\n      jump\t// out\n        /* \"#utility.yul\":11374:11740   */\n    tag_468:\n        /* \"#utility.yul\":11516:11519   */\n      0x00\n        /* \"#utility.yul\":11537:11604   */\n      tag_470\n        /* \"#utility.yul\":11601:11603   */\n      0x21\n        /* \"#utility.yul\":11596:11599   */\n      dup4\n        /* \"#utility.yul\":11537:11604   */\n      tag_414\n      jump\t// in\n    tag_470:\n        /* \"#utility.yul\":11530:11604   */\n      swap2\n      pop\n        /* \"#utility.yul\":11613:11706   */\n      tag_471\n        /* \"#utility.yul\":11702:11705   */\n      dup3\n        /* \"#utility.yul\":11613:11706   */\n      tag_472\n      jump\t// in\n    tag_471:\n        /* \"#utility.yul\":11731:11733   */\n      0x40\n        /* \"#utility.yul\":11726:11729   */\n      dup3\n        /* \"#utility.yul\":11722:11734   */\n      add\n        /* \"#utility.yul\":11715:11734   */\n      swap1\n      pop\n        /* \"#utility.yul\":11520:11740   */\n      swap2\n      swap1\n      pop\n      jump\t// out\n        /* \"#utility.yul\":11746:12112   */\n    tag_473:\n        /* \"#utility.yul\":11888:11891   */\n      0x00\n        /* \"#utility.yul\":11909:11976   */\n      tag_475\n        /* \"#utility.yul\":11973:11975   */\n      0x3d\n        /* \"#utility.yul\":11968:11971   */\n      dup4\n        /* \"#utility.yul\":11909:11976   */\n      tag_414\n      jump\t// in\n    tag_475:\n        /* \"#utility.yul\":11902:11976   */\n      swap2\n      pop\n        /* \"#utility.yul\":11985:12078   */\n      tag_476\n        /* \"#utility.yul\":12074:12077   */\n      dup3\n        /* \"#utility.yul\":11985:12078   */\n      tag_477\n      jump\t// in\n    tag_476:\n        /* \"#utility.yul\":12103:12105   */\n      0x40\n        /* \"#utility.yul\":12098:12101   */\n      dup3\n        /* \"#utility.yul\":12094:12106   */\n      add\n        /* \"#utility.yul\":12087:12106   */\n      swap1\n      pop\n        /* \"#utility.yul\":11892:12112   */\n      swap2\n      swap1\n      pop\n      jump\t// out\n        /* \"#utility.yul\":12118:12236   */\n    tag_478:\n        /* \"#utility.yul\":12205:12229   */\n      tag_480\n        /* \"#utility.yul\":12223:12228   */\n      dup2\n        /* \"#utility.yul\":12205:12229   */\n      tag_481\n      jump\t// in\n    tag_480:\n        /* \"#utility.yul\":12200:12203   */\n      dup3\n        /* \"#utility.yul\":12193:12230   */\n      mstore\n        /* \"#utility.yul\":12183:12236   */\n      pop\n      pop\n      jump\t// out\n        /* \"#utility.yul\":12242:12677   */\n    tag_174:\n        /* \"#utility.yul\":12422:12425   */\n      0x00\n        /* \"#utility.yul\":12444:12539   */\n      tag_483\n        /* \"#utility.yul\":12535:12538   */\n      dup3\n        /* \"#utility.yul\":12526:12532   */\n      dup6\n        /* \"#utility.yul\":12444:12539   */\n      tag_417\n      jump\t// in\n    tag_483:\n        /* \"#utility.yul\":12437:12539   */\n      swap2\n      pop\n        /* \"#utility.yul\":12556:12651   */\n      tag_484\n        /* \"#utility.yul\":12647:12650   */\n      dup3\n        /* \"#utility.yul\":12638:12644   */\n      dup5\n        /* \"#utility.yul\":12556:12651   */\n      tag_417\n      jump\t// in\n    tag_484:\n        /* \"#utility.yul\":12549:12651   */\n      swap2\n      pop\n        /* \"#utility.yul\":12668:12671   */\n      dup2\n        /* \"#utility.yul\":12661:12671   */\n      swap1\n      pop\n        /* \"#utility.yul\":12426:12677   */\n      swap4\n      swap3\n      pop\n      pop\n      pop\n      jump\t// out\n        /* \"#utility.yul\":12683:12905   */\n    tag_37:\n        /* \"#utility.yul\":12776:12780   */\n      0x00\n        /* \"#utility.yul\":12814:12816   */\n      0x20\n        /* \"#utility.yul\":12803:12812   */\n      dup3\n        /* \"#utility.yul\":12799:12817   */\n      add\n        /* \"#utility.yul\":12791:12817   */\n      swap1\n      pop\n        /* \"#utility.yul\":12827:12898   */\n      tag_486\n        /* \"#utility.yul\":12895:12896   */\n      0x00\n        /* \"#utility.yul\":12884:12893   */\n      dup4\n        /* \"#utility.yul\":12880:12897   */\n      add\n        /* \"#utility.yul\":12871:12877   */\n      dup5\n        /* \"#utility.yul\":12827:12898   */\n      tag_391\n      jump\t// in\n    tag_486:\n        /* \"#utility.yul\":12781:12905   */\n      swap3\n      swap2\n      pop\n      pop\n      jump\t// out\n        /* \"#utility.yul\":12911:13551   */\n    tag_261:\n        /* \"#utility.yul\":13106:13110   */\n      0x00\n        /* \"#utility.yul\":13144:13147   */\n      0x80\n        /* \"#utility.yul\":13133:13142   */\n      dup3\n        /* \"#utility.yul\":13129:13148   */\n      add\n        /* \"#utility.yul\":13121:13148   */\n      swap1\n      pop\n        /* \"#utility.yul\":13158:13229   */\n      tag_488\n        /* \"#utility.yul\":13226:13227   */\n      0x00\n        /* \"#utility.yul\":13215:13224   */\n      dup4\n        /* \"#utility.yul\":13211:13228   */\n      add\n        /* \"#utility.yul\":13202:13208   */\n      dup8\n        /* \"#utility.yul\":13158:13229   */\n      tag_391\n      jump\t// in\n    tag_488:\n        /* \"#utility.yul\":13239:13311   */\n      tag_489\n        /* \"#utility.yul\":13307:13309   */\n      0x20\n        /* \"#utility.yul\":13296:13305   */\n      dup4\n        /* \"#utility.yul\":13292:13310   */\n      add\n        /* \"#utility.yul\":13283:13289   */\n      dup7\n        /* \"#utility.yul\":13239:13311   */\n      tag_391\n      jump\t// in\n    tag_489:\n        /* \"#utility.yul\":13321:13393   */\n      tag_490\n        /* \"#utility.yul\":13389:13391   */\n      0x40\n        /* \"#utility.yul\":13378:13387   */\n      dup4\n        /* \"#utility.yul\":13374:13392   */\n      add\n        /* \"#utility.yul\":13365:13371   */\n      dup6\n        /* \"#utility.yul\":13321:13393   */\n      tag_478\n      jump\t// in\n    tag_490:\n        /* \"#utility.yul\":13440:13449   */\n      dup2\n        /* \"#utility.yul\":13434:13438   */\n      dup2\n        /* \"#utility.yul\":13430:13450   */\n      sub\n        /* \"#utility.yul\":13425:13427   */\n      0x60\n        /* \"#utility.yul\":13414:13423   */\n      dup4\n        /* \"#utility.yul\":13410:13428   */\n      add\n        /* \"#utility.yul\":13403:13451   */\n      mstore\n        /* \"#utility.yul\":13468:13544   */\n      tag_491\n        /* \"#utility.yul\":13539:13543   */\n      dup2\n        /* \"#utility.yul\":13530:13536   */\n      dup5\n        /* \"#utility.yul\":13468:13544   */\n      tag_399\n      jump\t// in\n    tag_491:\n        /* \"#utility.yul\":13460:13544   */\n      swap1\n      pop\n        /* \"#utility.yul\":13111:13551   */\n      swap6\n      swap5\n      pop\n      pop\n      pop\n      pop\n      pop\n      jump\t// out\n        /* \"#utility.yul\":13557:13767   */\n    tag_27:\n        /* \"#utility.yul\":13644:13648   */\n      0x00\n        /* \"#utility.yul\":13682:13684   */\n      0x20\n        /* \"#utility.yul\":13671:13680   */\n      dup3\n        /* \"#utility.yul\":13667:13685   */\n      add\n        /* \"#utility.yul\":13659:13685   */\n      swap1\n      pop\n        /* \"#utility.yul\":13695:13760   */\n      tag_493\n        /* \"#utility.yul\":13757:13758   */\n      0x00\n        /* \"#utility.yul\":13746:13755   */\n      dup4\n        /* \"#utility.yul\":13742:13759   */\n      add\n        /* \"#utility.yul\":13733:13739   */\n      dup5\n        /* \"#utility.yul\":13695:13760   */\n      tag_395\n      jump\t// in\n    tag_493:\n        /* \"#utility.yul\":13649:13767   */\n      swap3\n      swap2\n      pop\n      pop\n      jump\t// out\n        /* \"#utility.yul\":13773:14086   */\n    tag_31:\n        /* \"#utility.yul\":13886:13890   */\n      0x00\n        /* \"#utility.yul\":13924:13926   */\n      0x20\n        /* \"#utility.yul\":13913:13922   */\n      dup3\n        /* \"#utility.yul\":13909:13927   */\n      add\n        /* \"#utility.yul\":13901:13927   */\n      swap1\n      pop\n        /* \"#utility.yul\":13973:13982   */\n      dup2\n        /* \"#utility.yul\":13967:13971   */\n      dup2\n        /* \"#utility.yul\":13963:13983   */\n      sub\n        /* \"#utility.yul\":13959:13960   */\n      0x00\n        /* \"#utility.yul\":13948:13957   */\n      dup4\n        /* \"#utility.yul\":13944:13961   */\n      add\n        /* \"#utility.yul\":13937:13984   */\n      mstore\n        /* \"#utility.yul\":14001:14079   */\n      tag_495\n        /* \"#utility.yul\":14074:14078   */\n      dup2\n        /* \"#utility.yul\":14065:14071   */\n      dup5\n        /* \"#utility.yul\":14001:14079   */\n      tag_409\n      jump\t// in\n    tag_495:\n        /* \"#utility.yul\":13993:14079   */\n      swap1\n      pop\n        /* \"#utility.yul\":13891:14086   */\n      swap3\n      swap2\n      pop\n      pop\n      jump\t// out\n        /* \"#utility.yul\":14092:14511   */\n    tag_127:\n        /* \"#utility.yul\":14258:14262   */\n      0x00\n        /* \"#utility.yul\":14296:14298   */\n      0x20\n        /* \"#utility.yul\":14285:14294   */\n      dup3\n        /* \"#utility.yul\":14281:14299   */\n      add\n        /* \"#utility.yul\":14273:14299   */\n      swap1\n      pop\n        /* \"#utility.yul\":14345:14354   */\n      dup2\n        /* \"#utility.yul\":14339:14343   */\n      dup2\n        /* \"#utility.yul\":14335:14355   */\n      sub\n        /* \"#utility.yul\":14331:14332   */\n      0x00\n        /* \"#utility.yul\":14320:14329   */\n      dup4\n        /* \"#utility.yul\":14316:14333   */\n      add\n        /* \"#utility.yul\":14309:14356   */\n      mstore\n        /* \"#utility.yul\":14373:14504   */\n      tag_497\n        /* \"#utility.yul\":14499:14503   */\n      dup2\n        /* \"#utility.yul\":14373:14504   */\n      tag_423\n      jump\t// in\n    tag_497:\n        /* \"#utility.yul\":14365:14504   */\n      swap1\n      pop\n        /* \"#utility.yul\":14263:14511   */\n      swap2\n      swap1\n      pop\n      jump\t// out\n        /* \"#utility.yul\":14517:14936   */\n    tag_224:\n        /* \"#utility.yul\":14683:14687   */\n      0x00\n        /* \"#utility.yul\":14721:14723   */\n      0x20\n        /* \"#utility.yul\":14710:14719   */\n      dup3\n        /* \"#utility.yul\":14706:14724   */\n      add\n        /* \"#utility.yul\":14698:14724   */\n      swap1\n      pop\n        /* \"#utility.yul\":14770:14779   */\n      dup2\n        /* \"#utility.yul\":14764:14768   */\n      dup2\n        /* \"#utility.yul\":14760:14780   */\n      sub\n        /* \"#utility.yul\":14756:14757   */\n      0x00\n        /* \"#utility.yul\":14745:14754   */\n      dup4\n        /* \"#utility.yul\":14741:14758   */\n      add\n        /* \"#utility.yul\":14734:14781   */\n      mstore\n        /* \"#utility.yul\":14798:14929   */\n      tag_499\n        /* \"#utility.yul\":14924:14928   */\n      dup2\n        /* \"#utility.yul\":14798:14929   */\n      tag_428\n      jump\t// in\n    tag_499:\n        /* \"#utility.yul\":14790:14929   */\n      swap1\n      pop\n        /* \"#utility.yul\":14688:14936   */\n      swap2\n      swap1\n      pop\n      jump\t// out\n        /* \"#utility.yul\":14942:15361   */\n    tag_196:\n        /* \"#utility.yul\":15108:15112   */\n      0x00\n        /* \"#utility.yul\":15146:15148   */\n      0x20\n        /* \"#utility.yul\":15135:15144   */\n      dup3\n        /* \"#utility.yul\":15131:15149   */\n      add\n        /* \"#utility.yul\":15123:15149   */\n      swap1\n      pop\n        /* \"#utility.yul\":15195:15204   */\n      dup2\n        /* \"#utility.yul\":15189:15193   */\n      dup2\n        /* \"#utility.yul\":15185:15205   */\n      sub\n        /* \"#utility.yul\":15181:15182   */\n      0x00\n        /* \"#utility.yul\":15170:15179   */\n      dup4\n        /* \"#utility.yul\":15166:15183   */\n      add\n        /* \"#utility.yul\":15159:15206   */\n      mstore\n        /* \"#utility.yul\":15223:15354   */\n      tag_501\n        /* \"#utility.yul\":15349:15353   */\n      dup2\n        /* \"#utility.yul\":15223:15354   */\n      tag_433\n      jump\t// in\n    tag_501:\n        /* \"#utility.yul\":15215:15354   */\n      swap1\n      pop\n        /* \"#utility.yul\":15113:15361   */\n      swap2\n      swap1\n      pop\n      jump\t// out\n        /* \"#utility.yul\":15367:15786   */\n    tag_286:\n        /* \"#utility.yul\":15533:15537   */\n      0x00\n        /* \"#utility.yul\":15571:15573   */\n      0x20\n        /* \"#utility.yul\":15560:15569   */\n      dup3\n        /* \"#utility.yul\":15556:15574   */\n      add\n        /* \"#utility.yul\":15548:15574   */\n      swap1\n      pop\n        /* \"#utility.yul\":15620:15629   */\n      dup2\n        /* \"#utility.yul\":15614:15618   */\n      dup2\n        /* \"#utility.yul\":15610:15630   */\n      sub\n        /* \"#utility.yul\":15606:15607   */\n      0x00\n        /* \"#utility.yul\":15595:15604   */\n      dup4\n        /* \"#utility.yul\":15591:15608   */\n      add\n        /* \"#utility.yul\":15584:15631   */\n      mstore\n        /* \"#utility.yul\":15648:15779   */\n      tag_503\n        /* \"#utility.yul\":15774:15778   */\n      dup2\n        /* \"#utility.yul\":15648:15779   */\n      tag_438\n      jump\t// in\n    tag_503:\n        /* \"#utility.yul\":15640:15779   */\n      swap1\n      pop\n        /* \"#utility.yul\":15538:15786   */\n      swap2\n      swap1\n      pop\n      jump\t// out\n        /* \"#utility.yul\":15792:16211   */\n    tag_199:\n        /* \"#utility.yul\":15958:15962   */\n      0x00\n        /* \"#utility.yul\":15996:15998   */\n      0x20\n        /* \"#utility.yul\":15985:15994   */\n      dup3\n        /* \"#utility.yul\":15981:15999   */\n      add\n        /* \"#utility.yul\":15973:15999   */\n      swap1\n      pop\n        /* \"#utility.yul\":16045:16054   */\n      dup2\n        /* \"#utility.yul\":16039:16043   */\n      dup2\n        /* \"#utility.yul\":16035:16055   */\n      sub\n        /* \"#utility.yul\":16031:16032   */\n      0x00\n        /* \"#utility.yul\":16020:16029   */\n      dup4\n        /* \"#utility.yul\":16016:16033   */\n      add\n        /* \"#utility.yul\":16009:16056   */\n      mstore\n        /* \"#utility.yul\":16073:16204   */\n      tag_505\n        /* \"#utility.yul\":16199:16203   */\n      dup2\n        /* \"#utility.yul\":16073:16204   */\n      tag_443\n      jump\t// in\n    tag_505:\n        /* \"#utility.yul\":16065:16204   */\n      swap1\n      pop\n        /* \"#utility.yul\":15963:16211   */\n      swap2\n      swap1\n      pop\n      jump\t// out\n        /* \"#utility.yul\":16217:16636   */\n    tag_216:\n        /* \"#utility.yul\":16383:16387   */\n      0x00\n        /* \"#utility.yul\":16421:16423   */\n      0x20\n        /* \"#utility.yul\":16410:16419   */\n      dup3\n        /* \"#utility.yul\":16406:16424   */\n      add\n        /* \"#utility.yul\":16398:16424   */\n      swap1\n      pop\n        /* \"#utility.yul\":16470:16479   */\n      dup2\n        /* \"#utility.yul\":16464:16468   */\n      dup2\n        /* \"#utility.yul\":16460:16480   */\n      sub\n        /* \"#utility.yul\":16456:16457   */\n      0x00\n        /* \"#utility.yul\":16445:16454   */\n      dup4\n        /* \"#utility.yul\":16441:16458   */\n      add\n        /* \"#utility.yul\":16434:16481   */\n      mstore\n        /* \"#utility.yul\":16498:16629   */\n      tag_507\n        /* \"#utility.yul\":16624:16628   */\n      dup2\n        /* \"#utility.yul\":16498:16629   */\n      tag_448\n      jump\t// in\n    tag_507:\n        /* \"#utility.yul\":16490:16629   */\n      swap1\n      pop\n        /* \"#utility.yul\":16388:16636   */\n      swap2\n      swap1\n      pop\n      jump\t// out\n        /* \"#utility.yul\":16642:17061   */\n    tag_142:\n        /* \"#utility.yul\":16808:16812   */\n      0x00\n        /* \"#utility.yul\":16846:16848   */\n      0x20\n        /* \"#utility.yul\":16835:16844   */\n      dup3\n        /* \"#utility.yul\":16831:16849   */\n      add\n        /* \"#utility.yul\":16823:16849   */\n      swap1\n      pop\n        /* \"#utility.yul\":16895:16904   */\n      dup2\n        /* \"#utility.yul\":16889:16893   */\n      dup2\n        /* \"#utility.yul\":16885:16905   */\n      sub\n        /* \"#utility.yul\":16881:16882   */\n      0x00\n        /* \"#utility.yul\":16870:16879   */\n      dup4\n        /* \"#utility.yul\":16866:16883   */\n      add\n        /* \"#utility.yul\":16859:16906   */\n      mstore\n        /* \"#utility.yul\":16923:17054   */\n      tag_509\n        /* \"#utility.yul\":17049:17053   */\n      dup2\n        /* \"#utility.yul\":16923:17054   */\n      tag_453\n      jump\t// in\n    tag_509:\n        /* \"#utility.yul\":16915:17054   */\n      swap1\n      pop\n        /* \"#utility.yul\":16813:17061   */\n      swap2\n      swap1\n      pop\n      jump\t// out\n        /* \"#utility.yul\":17067:17486   */\n    tag_280:\n        /* \"#utility.yul\":17233:17237   */\n      0x00\n        /* \"#utility.yul\":17271:17273   */\n      0x20\n        /* \"#utility.yul\":17260:17269   */\n      dup3\n        /* \"#utility.yul\":17256:17274   */\n      add\n        /* \"#utility.yul\":17248:17274   */\n      swap1\n      pop\n        /* \"#utility.yul\":17320:17329   */\n      dup2\n        /* \"#utility.yul\":17314:17318   */\n      dup2\n        /* \"#utility.yul\":17310:17330   */\n      sub\n        /* \"#utility.yul\":17306:17307   */\n      0x00\n        /* \"#utility.yul\":17295:17304   */\n      dup4\n        /* \"#utility.yul\":17291:17308   */\n      add\n        /* \"#utility.yul\":17284:17331   */\n      mstore\n        /* \"#utility.yul\":17348:17479   */\n      tag_511\n        /* \"#utility.yul\":17474:17478   */\n      dup2\n        /* \"#utility.yul\":17348:17479   */\n      tag_458\n      jump\t// in\n    tag_511:\n        /* \"#utility.yul\":17340:17479   */\n      swap1\n      pop\n        /* \"#utility.yul\":17238:17486   */\n      swap2\n      swap1\n      pop\n      jump\t// out\n        /* \"#utility.yul\":17492:17911   */\n    tag_135:\n        /* \"#utility.yul\":17658:17662   */\n      0x00\n        /* \"#utility.yul\":17696:17698   */\n      0x20\n        /* \"#utility.yul\":17685:17694   */\n      dup3\n        /* \"#utility.yul\":17681:17699   */\n      add\n        /* \"#utility.yul\":17673:17699   */\n      swap1\n      pop\n        /* \"#utility.yul\":17745:17754   */\n      dup2\n        /* \"#utility.yul\":17739:17743   */\n      dup2\n        /* \"#utility.yul\":17735:17755   */\n      sub\n        /* \"#utility.yul\":17731:17732   */\n      0x00\n        /* \"#utility.yul\":17720:17729   */\n      dup4\n        /* \"#utility.yul\":17716:17733   */\n      add\n        /* \"#utility.yul\":17709:17756   */\n      mstore\n        /* \"#utility.yul\":17773:17904   */\n      tag_513\n        /* \"#utility.yul\":17899:17903   */\n      dup2\n        /* \"#utility.yul\":17773:17904   */\n      tag_463\n      jump\t// in\n    tag_513:\n        /* \"#utility.yul\":17765:17904   */\n      swap1\n      pop\n        /* \"#utility.yul\":17663:17911   */\n      swap2\n      swap1\n      pop\n      jump\t// out\n        /* \"#utility.yul\":17917:18336   */\n    tag_110:\n        /* \"#utility.yul\":18083:18087   */\n      0x00\n        /* \"#utility.yul\":18121:18123   */\n      0x20\n        /* \"#utility.yul\":18110:18119   */\n      dup3\n        /* \"#utility.yul\":18106:18124   */\n      add\n        /* \"#utility.yul\":18098:18124   */\n      swap1\n      pop\n        /* \"#utility.yul\":18170:18179   */\n      dup2\n        /* \"#utility.yul\":18164:18168   */\n      dup2\n        /* \"#utility.yul\":18160:18180   */\n      sub\n        /* \"#utility.yul\":18156:18157   */\n      0x00\n        /* \"#utility.yul\":18145:18154   */\n      dup4\n        /* \"#utility.yul\":18141:18158   */\n      add\n        /* \"#utility.yul\":18134:18181   */\n      mstore\n        /* \"#utility.yul\":18198:18329   */\n      tag_515\n        /* \"#utility.yul\":18324:18328   */\n      dup2\n        /* \"#utility.yul\":18198:18329   */\n      tag_468\n      jump\t// in\n    tag_515:\n        /* \"#utility.yul\":18190:18329   */\n      swap1\n      pop\n        /* \"#utility.yul\":18088:18336   */\n      swap2\n      swap1\n      pop\n      jump\t// out\n        /* \"#utility.yul\":18342:18761   */\n    tag_118:\n        /* \"#utility.yul\":18508:18512   */\n      0x00\n        /* \"#utility.yul\":18546:18548   */\n      0x20\n        /* \"#utility.yul\":18535:18544   */\n      dup3\n        /* \"#utility.yul\":18531:18549   */\n      add\n        /* \"#utility.yul\":18523:18549   */\n      swap1\n      pop\n        /* \"#utility.yul\":18595:18604   */\n      dup2\n        /* \"#utility.yul\":18589:18593   */\n      dup2\n        /* \"#utility.yul\":18585:18605   */\n      sub\n        /* \"#utility.yul\":18581:18582   */\n      0x00\n        /* \"#utility.yul\":18570:18579   */\n      dup4\n        /* \"#utility.yul\":18566:18583   */\n      add\n        /* \"#utility.yul\":18559:18606   */\n      mstore\n        /* \"#utility.yul\":18623:18754   */\n      tag_517\n        /* \"#utility.yul\":18749:18753   */\n      dup2\n        /* \"#utility.yul\":18623:18754   */\n      tag_473\n      jump\t// in\n    tag_517:\n        /* \"#utility.yul\":18615:18754   */\n      swap1\n      pop\n        /* \"#utility.yul\":18513:18761   */\n      swap2\n      swap1\n      pop\n      jump\t// out\n        /* \"#utility.yul\":18767:18989   */\n    tag_62:\n        /* \"#utility.yul\":18860:18864   */\n      0x00\n        /* \"#utility.yul\":18898:18900   */\n      0x20\n        /* \"#utility.yul\":18887:18896   */\n      dup3\n        /* \"#utility.yul\":18883:18901   */\n      add\n        /* \"#utility.yul\":18875:18901   */\n      swap1\n      pop\n        /* \"#utility.yul\":18911:18982   */\n      tag_519\n        /* \"#utility.yul\":18979:18980   */\n      0x00\n        /* \"#utility.yul\":18968:18977   */\n      dup4\n        /* \"#utility.yul\":18964:18981   */\n      add\n        /* \"#utility.yul\":18955:18961   */\n      dup5\n        /* \"#utility.yul\":18911:18982   */\n      tag_478\n      jump\t// in\n    tag_519:\n        /* \"#utility.yul\":18865:18989   */\n      swap3\n      swap2\n      pop\n      pop\n      jump\t// out\n        /* \"#utility.yul\":18995:19124   */\n    tag_309:\n        /* \"#utility.yul\":19029:19035   */\n      0x00\n        /* \"#utility.yul\":19056:19076   */\n      tag_521\n      tag_522\n      jump\t// in\n    tag_521:\n        /* \"#utility.yul\":19046:19076   */\n      swap1\n      pop\n        /* \"#utility.yul\":19085:19118   */\n      tag_523\n        /* \"#utility.yul\":19113:19117   */\n      dup3\n        /* \"#utility.yul\":19105:19111   */\n      dup3\n        /* \"#utility.yul\":19085:19118   */\n      tag_524\n      jump\t// in\n    tag_523:\n        /* \"#utility.yul\":19036:19124   */\n      swap2\n      swap1\n      pop\n      jump\t// out\n        /* \"#utility.yul\":19130:19205   */\n    tag_522:\n        /* \"#utility.yul\":19163:19169   */\n      0x00\n        /* \"#utility.yul\":19196:19198   */\n      0x40\n        /* \"#utility.yul\":19190:19199   */\n      mload\n        /* \"#utility.yul\":19180:19199   */\n      swap1\n      pop\n        /* \"#utility.yul\":19170:19205   */\n      swap1\n      jump\t// out\n        /* \"#utility.yul\":19211:19518   */\n    tag_308:\n        /* \"#utility.yul\":19272:19276   */\n      0x00\n        /* \"#utility.yul\":19362:19380   */\n      0xffffffffffffffff\n        /* \"#utility.yul\":19354:19360   */\n      dup3\n        /* \"#utility.yul\":19351:19381   */\n      gt\n        /* \"#utility.yul\":19348:19350   */\n      iszero\n      tag_527\n      jumpi\n        /* \"#utility.yul\":19384:19402   */\n      tag_528\n      tag_529\n      jump\t// in\n    tag_528:\n        /* \"#utility.yul\":19348:19350   */\n    tag_527:\n        /* \"#utility.yul\":19422:19451   */\n      tag_530\n        /* \"#utility.yul\":19444:19450   */\n      dup3\n        /* \"#utility.yul\":19422:19451   */\n      tag_408\n      jump\t// in\n    tag_530:\n        /* \"#utility.yul\":19414:19451   */\n      swap1\n      pop\n        /* \"#utility.yul\":19506:19510   */\n      0x20\n        /* \"#utility.yul\":19500:19504   */\n      dup2\n        /* \"#utility.yul\":19496:19511   */\n      add\n        /* \"#utility.yul\":19488:19511   */\n      swap1\n      pop\n        /* \"#utility.yul\":19277:19518   */\n      swap2\n      swap1\n      pop\n      jump\t// out\n        /* \"#utility.yul\":19524:19832   */\n    tag_317:\n        /* \"#utility.yul\":19586:19590   */\n      0x00\n        /* \"#utility.yul\":19676:19694   */\n      0xffffffffffffffff\n        /* \"#utility.yul\":19668:19674   */\n      dup3\n        /* \"#utility.yul\":19665:19695   */\n      gt\n        /* \"#utility.yul\":19662:19664   */\n      iszero\n      tag_532\n      jumpi\n        /* \"#utility.yul\":19698:19716   */\n      tag_533\n      tag_529\n      jump\t// in\n    tag_533:\n        /* \"#utility.yul\":19662:19664   */\n    tag_532:\n        /* \"#utility.yul\":19736:19765   */\n      tag_534\n        /* \"#utility.yul\":19758:19764   */\n      dup3\n        /* \"#utility.yul\":19736:19765   */\n      tag_408\n      jump\t// in\n    tag_534:\n        /* \"#utility.yul\":19728:19765   */\n      swap1\n      pop\n        /* \"#utility.yul\":19820:19824   */\n      0x20\n        /* \"#utility.yul\":19814:19818   */\n      dup2\n        /* \"#utility.yul\":19810:19825   */\n      add\n        /* \"#utility.yul\":19802:19825   */\n      swap1\n      pop\n        /* \"#utility.yul\":19591:19832   */\n      swap2\n      swap1\n      pop\n      jump\t// out\n        /* \"#utility.yul\":19838:19936   */\n    tag_402:\n        /* \"#utility.yul\":19889:19895   */\n      0x00\n        /* \"#utility.yul\":19923:19928   */\n      dup2\n        /* \"#utility.yul\":19917:19929   */\n      mload\n        /* \"#utility.yul\":19907:19929   */\n      swap1\n      pop\n        /* \"#utility.yul\":19896:19936   */\n      swap2\n      swap1\n      pop\n      jump\t// out\n        /* \"#utility.yul\":19942:20041   */\n    tag_412:\n        /* \"#utility.yul\":19994:20000   */\n      0x00\n        /* \"#utility.yul\":20028:20033   */\n      dup2\n        /* \"#utility.yul\":20022:20034   */\n      mload\n        /* \"#utility.yul\":20012:20034   */\n      swap1\n      pop\n        /* \"#utility.yul\":20001:20041   */\n      swap2\n      swap1\n      pop\n      jump\t// out\n        /* \"#utility.yul\":20047:20215   */\n    tag_404:\n        /* \"#utility.yul\":20130:20141   */\n      0x00\n        /* \"#utility.yul\":20164:20170   */\n      dup3\n        /* \"#utility.yul\":20159:20162   */\n      dup3\n        /* \"#utility.yul\":20152:20171   */\n      mstore\n        /* \"#utility.yul\":20204:20208   */\n      0x20\n        /* \"#utility.yul\":20199:20202   */\n      dup3\n        /* \"#utility.yul\":20195:20209   */\n      add\n        /* \"#utility.yul\":20180:20209   */\n      swap1\n      pop\n        /* \"#utility.yul\":20142:20215   */\n      swap3\n      swap2\n      pop\n      pop\n      jump\t// out\n        /* \"#utility.yul\":20221:20390   */\n    tag_414:\n        /* \"#utility.yul\":20305:20316   */\n      0x00\n        /* \"#utility.yul\":20339:20345   */\n      dup3\n        /* \"#utility.yul\":20334:20337   */\n      dup3\n        /* \"#utility.yul\":20327:20346   */\n      mstore\n        /* \"#utility.yul\":20379:20383   */\n      0x20\n        /* \"#utility.yul\":20374:20377   */\n      dup3\n        /* \"#utility.yul\":20370:20384   */\n      add\n        /* \"#utility.yul\":20355:20384   */\n      swap1\n      pop\n        /* \"#utility.yul\":20317:20390   */\n      swap3\n      swap2\n      pop\n      pop\n      jump\t// out\n        /* \"#utility.yul\":20396:20544   */\n    tag_421:\n        /* \"#utility.yul\":20498:20509   */\n      0x00\n        /* \"#utility.yul\":20535:20538   */\n      dup2\n        /* \"#utility.yul\":20520:20538   */\n      swap1\n      pop\n        /* \"#utility.yul\":20510:20544   */\n      swap3\n      swap2\n      pop\n      pop\n      jump\t// out\n        /* \"#utility.yul\":20550:20855   */\n    tag_243:\n        /* \"#utility.yul\":20590:20593   */\n      0x00\n        /* \"#utility.yul\":20609:20629   */\n      tag_541\n        /* \"#utility.yul\":20627:20628   */\n      dup3\n        /* \"#utility.yul\":20609:20629   */\n      tag_481\n      jump\t// in\n    tag_541:\n        /* \"#utility.yul\":20604:20629   */\n      swap2\n      pop\n        /* \"#utility.yul\":20643:20663   */\n      tag_542\n        /* \"#utility.yul\":20661:20662   */\n      dup4\n        /* \"#utility.yul\":20643:20663   */\n      tag_481\n      jump\t// in\n    tag_542:\n        /* \"#utility.yul\":20638:20663   */\n      swap3\n      pop\n        /* \"#utility.yul\":20797:20798   */\n      dup3\n        /* \"#utility.yul\":20729:20795   */\n      0xffffffffffffffffffffffffffffffffffffffffffffffffffffffffffffffff\n        /* \"#utility.yul\":20725:20799   */\n      sub\n        /* \"#utility.yul\":20722:20723   */\n      dup3\n        /* \"#utility.yul\":20719:20800   */\n      gt\n        /* \"#utility.yul\":20716:20718   */\n      iszero\n      tag_543\n      jumpi\n        /* \"#utility.yul\":20803:20821   */\n      tag_544\n      tag_545\n      jump\t// in\n    tag_544:\n        /* \"#utility.yul\":20716:20718   */\n    tag_543:\n        /* \"#utility.yul\":20847:20848   */\n      dup3\n        /* \"#utility.yul\":20844:20845   */\n      dup3\n        /* \"#utility.yul\":20840:20849   */\n      add\n        /* \"#utility.yul\":20833:20849   */\n      swap1\n      pop\n        /* \"#utility.yul\":20594:20855   */\n      swap3\n      swap2\n      pop\n      pop\n      jump\t// out\n        /* \"#utility.yul\":20861:21046   */\n    tag_233:\n        /* \"#utility.yul\":20901:20902   */\n      0x00\n        /* \"#utility.yul\":20918:20938   */\n      tag_547\n        /* \"#utility.yul\":20936:20937   */\n      dup3\n        /* \"#utility.yul\":20918:20938   */\n      tag_481\n      jump\t// in\n    tag_547:\n        /* \"#utility.yul\":20913:20938   */\n      swap2\n      pop\n        /* \"#utility.yul\":20952:20972   */\n      tag_548\n        /* \"#utility.yul\":20970:20971   */\n      dup4\n        /* \"#utility.yul\":20952:20972   */\n      tag_481\n      jump\t// in\n    tag_548:\n        /* \"#utility.yul\":20947:20972   */\n      swap3\n      pop\n        /* \"#utility.yul\":20991:20992   */\n      dup3\n        /* \"#utility.yul\":20981:20983   */\n      tag_549\n      jumpi\n        /* \"#utility.yul\":20996:21014   */\n      tag_550\n      tag_551\n      jump\t// in\n    tag_550:\n        /* \"#utility.yul\":20981:20983   */\n    tag_549:\n        /* \"#utility.yul\":21038:21039   */\n      dup3\n        /* \"#utility.yul\":21035:21036   */\n      dup3\n        /* \"#utility.yul\":21031:21040   */\n      div\n        /* \"#utility.yul\":21026:21040   */\n      swap1\n      pop\n        /* \"#utility.yul\":20903:21046   */\n      swap3\n      swap2\n      pop\n      pop\n      jump\t// out\n        /* \"#utility.yul\":21052:21243   */\n    tag_239:\n        /* \"#utility.yul\":21092:21096   */\n      0x00\n        /* \"#utility.yul\":21112:21132   */\n      tag_553\n        /* \"#utility.yul\":21130:21131   */\n      dup3\n        /* \"#utility.yul\":21112:21132   */\n      tag_481\n      jump\t// in\n    tag_553:\n        /* \"#utility.yul\":21107:21132   */\n      swap2\n      pop\n        /* \"#utility.yul\":21146:21166   */\n      tag_554\n        /* \"#utility.yul\":21164:21165   */\n      dup4\n        /* \"#utility.yul\":21146:21166   */\n      tag_481\n      jump\t// in\n    tag_554:\n        /* \"#utility.yul\":21141:21166   */\n      swap3\n      pop\n        /* \"#utility.yul\":21185:21186   */\n      dup3\n        /* \"#utility.yul\":21182:21183   */\n      dup3\n        /* \"#utility.yul\":21179:21187   */\n      lt\n        /* \"#utility.yul\":21176:21178   */\n      iszero\n      tag_555\n      jumpi\n        /* \"#utility.yul\":21190:21208   */\n      tag_556\n      tag_545\n      jump\t// in\n    tag_556:\n        /* \"#utility.yul\":21176:21178   */\n    tag_555:\n        /* \"#utility.yul\":21235:21236   */\n      dup3\n        /* \"#utility.yul\":21232:21233   */\n      dup3\n        /* \"#utility.yul\":21228:21237   */\n      sub\n        /* \"#utility.yul\":21220:21237   */\n      swap1\n      pop\n        /* \"#utility.yul\":21097:21243   */\n      swap3\n      swap2\n      pop\n      pop\n      jump\t// out\n        /* \"#utility.yul\":21249:21345   */\n    tag_394:\n        /* \"#utility.yul\":21286:21293   */\n      0x00\n        /* \"#utility.yul\":21315:21339   */\n      tag_558\n        /* \"#utility.yul\":21333:21338   */\n      dup3\n        /* \"#utility.yul\":21315:21339   */\n      tag_559\n      jump\t// in\n    tag_558:\n        /* \"#utility.yul\":21304:21339   */\n      swap1\n      pop\n        /* \"#utility.yul\":21294:21345   */\n      swap2\n      swap1\n      pop\n      jump\t// out\n        /* \"#utility.yul\":21351:21441   */\n    tag_398:\n        /* \"#utility.yul\":21385:21392   */\n      0x00\n        /* \"#utility.yul\":21428:21433   */\n      dup2\n        /* \"#utility.yul\":21421:21434   */\n      iszero\n        /* \"#utility.yul\":21414:21435   */\n      iszero\n        /* \"#utility.yul\":21403:21435   */\n      swap1\n      pop\n        /* \"#utility.yul\":21393:21441   */\n      swap2\n      swap1\n      pop\n      jump\t// out\n        /* \"#utility.yul\":21447:21596   */\n    tag_561:\n        /* \"#utility.yul\":21483:21490   */\n      0x00\n        /* \"#utility.yul\":21523:21589   */\n      0xffffffff00000000000000000000000000000000000000000000000000000000\n        /* \"#utility.yul\":21516:21521   */\n      dup3\n        /* \"#utility.yul\":21512:21590   */\n      and\n        /* \"#utility.yul\":21501:21590   */\n      swap1\n      pop\n        /* \"#utility.yul\":21491:21596   */\n      swap2\n      swap1\n      pop\n      jump\t// out\n        /* \"#utility.yul\":21602:21728   */\n    tag_559:\n        /* \"#utility.yul\":21639:21646   */\n      0x00\n        /* \"#utility.yul\":21679:21721   */\n      0xffffffffffffffffffffffffffffffffffffffff\n        /* \"#utility.yul\":21672:21677   */\n      dup3\n        /* \"#utility.yul\":21668:21722   */\n      and\n        /* \"#utility.yul\":21657:21722   */\n      swap1\n      pop\n        /* \"#utility.yul\":21647:21728   */\n      swap2\n      swap1\n      pop\n      jump\t// out\n        /* \"#utility.yul\":21734:21811   */\n    tag_481:\n        /* \"#utility.yul\":21771:21778   */\n      0x00\n        /* \"#utility.yul\":21800:21805   */\n      dup2\n        /* \"#utility.yul\":21789:21805   */\n      swap1\n      pop\n        /* \"#utility.yul\":21779:21811   */\n      swap2\n      swap1\n      pop\n      jump\t// out\n        /* \"#utility.yul\":21817:21971   */\n    tag_312:\n        /* \"#utility.yul\":21901:21907   */\n      dup3\n        /* \"#utility.yul\":21896:21899   */\n      dup2\n        /* \"#utility.yul\":21891:21894   */\n      dup4\n        /* \"#utility.yul\":21878:21908   */\n      calldatacopy\n        /* \"#utility.yul\":21963:21964   */\n      0x00\n        /* \"#utility.yul\":21954:21960   */\n      dup4\n        /* \"#utility.yul\":21949:21952   */\n      dup4\n        /* \"#utility.yul\":21945:21961   */\n      add\n        /* \"#utility.yul\":21938:21965   */\n      mstore\n        /* \"#utility.yul\":21868:21971   */\n      pop\n      pop\n      pop\n      jump\t// out\n        /* \"#utility.yul\":21977:22284   */\n    tag_406:\n        /* \"#utility.yul\":22045:22046   */\n      0x00\n        /* \"#utility.yul\":22055:22168   */\n    tag_567:\n        /* \"#utility.yul\":22069:22075   */\n      dup4\n        /* \"#utility.yul\":22066:22067   */\n      dup2\n        /* \"#utility.yul\":22063:22076   */\n      lt\n        /* \"#utility.yul\":22055:22168   */\n      iszero\n      tag_569\n      jumpi\n        /* \"#utility.yul\":22154:22155   */\n      dup1\n        /* \"#utility.yul\":22149:22152   */\n      dup3\n        /* \"#utility.yul\":22145:22156   */\n      add\n        /* \"#utility.yul\":22139:22157   */\n      mload\n        /* \"#utility.yul\":22135:22136   */\n      dup2\n        /* \"#utility.yul\":22130:22133   */\n      dup5\n        /* \"#utility.yul\":22126:22137   */\n      add\n        /* \"#utility.yul\":22119:22158   */\n      mstore\n        /* \"#utility.yul\":22091:22093   */\n      0x20\n        /* \"#utility.yul\":22088:22089   */\n      dup2\n        /* \"#utility.yul\":22084:22094   */\n      add\n        /* \"#utility.yul\":22079:22094   */\n      swap1\n      pop\n        /* \"#utility.yul\":22055:22168   */\n      jump(tag_567)\n    tag_569:\n        /* \"#utility.yul\":22186:22192   */\n      dup4\n        /* \"#utility.yul\":22183:22184   */\n      dup2\n        /* \"#utility.yul\":22180:22193   */\n      gt\n        /* \"#utility.yul\":22177:22179   */\n      iszero\n      tag_570\n      jumpi\n        /* \"#utility.yul\":22266:22267   */\n      0x00\n        /* \"#utility.yul\":22257:22263   */\n      dup5\n        /* \"#utility.yul\":22252:22255   */\n      dup5\n        /* \"#utility.yul\":22248:22264   */\n      add\n        /* \"#utility.yul\":22241:22268   */\n      mstore\n        /* \"#utility.yul\":22177:22179   */\n    tag_570:\n        /* \"#utility.yul\":22026:22284   */\n      pop\n      pop\n      pop\n      pop\n      jump\t// out\n        /* \"#utility.yul\":22290:22610   */\n    tag_98:\n        /* \"#utility.yul\":22334:22340   */\n      0x00\n        /* \"#utility.yul\":22371:22372   */\n      0x02\n        /* \"#utility.yul\":22365:22369   */\n      dup3\n        /* \"#utility.yul\":22361:22373   */\n      div\n        /* \"#utility.yul\":22351:22373   */\n      swap1\n      pop\n        /* \"#utility.yul\":22418:22419   */\n      0x01\n        /* \"#utility.yul\":22412:22416   */\n      dup3\n        /* \"#utility.yul\":22408:22420   */\n      and\n        /* \"#utility.yul\":22439:22457   */\n      dup1\n        /* \"#utility.yul\":22429:22431   */\n      tag_572\n      jumpi\n        /* \"#utility.yul\":22495:22499   */\n      0x7f\n        /* \"#utility.yul\":22487:22493   */\n      dup3\n        /* \"#utility.yul\":22483:22500   */\n      and\n        /* \"#utility.yul\":22473:22500   */\n      swap2\n      pop\n        /* \"#utility.yul\":22429:22431   */\n    tag_572:\n        /* \"#utility.yul\":22557:22559   */\n      0x20\n        /* \"#utility.yul\":22549:22555   */\n      dup3\n        /* \"#utility.yul\":22546:22560   */\n      lt\n        /* \"#utility.yul\":22526:22544   */\n      dup2\n        /* \"#utility.yul\":22523:22561   */\n      eq\n        /* \"#utility.yul\":22520:22522   */\n      iszero\n      tag_573\n      jumpi\n        /* \"#utility.yul\":22576:22594   */\n      tag_574\n      tag_575\n      jump\t// in\n    tag_574:\n        /* \"#utility.yul\":22520:22522   */\n    tag_573:\n        /* \"#utility.yul\":22341:22610   */\n      pop\n      swap2\n      swap1\n      pop\n      jump\t// out\n        /* \"#utility.yul\":22616:22897   */\n    tag_524:\n        /* \"#utility.yul\":22699:22726   */\n      tag_577\n        /* \"#utility.yul\":22721:22725   */\n      dup3\n        /* \"#utility.yul\":22699:22726   */\n      tag_408\n      jump\t// in\n    tag_577:\n        /* \"#utility.yul\":22691:22697   */\n      dup2\n        /* \"#utility.yul\":22687:22727   */\n      add\n        /* \"#utility.yul\":22829:22835   */\n      dup2\n        /* \"#utility.yul\":22817:22827   */\n      dup2\n        /* \"#utility.yul\":22814:22836   */\n      lt\n        /* \"#utility.yul\":22793:22811   */\n      0xffffffffffffffff\n        /* \"#utility.yul\":22781:22791   */\n      dup3\n        /* \"#utility.yul\":22778:22812   */\n      gt\n        /* \"#utility.yul\":22775:22837   */\n      or\n        /* \"#utility.yul\":22772:22774   */\n      iszero\n      tag_578\n      jumpi\n        /* \"#utility.yul\":22840:22858   */\n      tag_579\n      tag_529\n      jump\t// in\n    tag_579:\n        /* \"#utility.yul\":22772:22774   */\n    tag_578:\n        /* \"#utility.yul\":22880:22890   */\n      dup1\n        /* \"#utility.yul\":22876:22878   */\n      0x40\n        /* \"#utility.yul\":22869:22891   */\n      mstore\n        /* \"#utility.yul\":22659:22897   */\n      pop\n      pop\n      pop\n      jump\t// out\n        /* \"#utility.yul\":22903:23136   */\n    tag_231:\n        /* \"#utility.yul\":22942:22945   */\n      0x00\n        /* \"#utility.yul\":22965:22989   */\n      tag_581\n        /* \"#utility.yul\":22983:22988   */\n      dup3\n        /* \"#utility.yul\":22965:22989   */\n      tag_481\n      jump\t// in\n    tag_581:\n        /* \"#utility.yul\":22956:22989   */\n      swap2\n      pop\n        /* \"#utility.yul\":23011:23077   */\n      0xffffffffffffffffffffffffffffffffffffffffffffffffffffffffffffffff\n        /* \"#utility.yul\":23004:23009   */\n      dup3\n        /* \"#utility.yul\":23001:23078   */\n      eq\n        /* \"#utility.yul\":22998:23000   */\n      iszero\n      tag_582\n      jumpi\n        /* \"#utility.yul\":23081:23099   */\n      tag_583\n      tag_545\n      jump\t// in\n    tag_583:\n        /* \"#utility.yul\":22998:23000   */\n    tag_582:\n        /* \"#utility.yul\":23128:23129   */\n      0x01\n        /* \"#utility.yul\":23121:23126   */\n      dup3\n        /* \"#utility.yul\":23117:23130   */\n      add\n        /* \"#utility.yul\":23110:23130   */\n      swap1\n      pop\n        /* \"#utility.yul\":22946:23136   */\n      swap2\n      swap1\n      pop\n      jump\t// out\n        /* \"#utility.yul\":23142:23318   */\n    tag_241:\n        /* \"#utility.yul\":23174:23175   */\n      0x00\n        /* \"#utility.yul\":23191:23211   */\n      tag_585\n        /* \"#utility.yul\":23209:23210   */\n      dup3\n        /* \"#utility.yul\":23191:23211   */\n      tag_481\n      jump\t// in\n    tag_585:\n        /* \"#utility.yul\":23186:23211   */\n      swap2\n      pop\n        /* \"#utility.yul\":23225:23245   */\n      tag_586\n        /* \"#utility.yul\":23243:23244   */\n      dup4\n        /* \"#utility.yul\":23225:23245   */\n      tag_481\n      jump\t// in\n    tag_586:\n        /* \"#utility.yul\":23220:23245   */\n      swap3\n      pop\n        /* \"#utility.yul\":23264:23265   */\n      dup3\n        /* \"#utility.yul\":23254:23256   */\n      tag_587\n      jumpi\n        /* \"#utility.yul\":23269:23287   */\n      tag_588\n      tag_551\n      jump\t// in\n    tag_588:\n        /* \"#utility.yul\":23254:23256   */\n    tag_587:\n        /* \"#utility.yul\":23310:23311   */\n      dup3\n        /* \"#utility.yul\":23307:23308   */\n      dup3\n        /* \"#utility.yul\":23303:23312   */\n      mod\n        /* \"#utility.yul\":23298:23312   */\n      swap1\n      pop\n        /* \"#utility.yul\":23176:23318   */\n      swap3\n      swap2\n      pop\n      pop\n      jump\t// out\n        /* \"#utility.yul\":23324:23504   */\n    tag_545:\n        /* \"#utility.yul\":23372:23449   */\n      0x4e487b7100000000000000000000000000000000000000000000000000000000\n        /* \"#utility.yul\":23369:23370   */\n      0x00\n        /* \"#utility.yul\":23362:23450   */\n      mstore\n        /* \"#utility.yul\":23469:23473   */\n      0x11\n        /* \"#utility.yul\":23466:23467   */\n      0x04\n        /* \"#utility.yul\":23459:23474   */\n      mstore\n        /* \"#utility.yul\":23493:23497   */\n      0x24\n        /* \"#utility.yul\":23490:23491   */\n      0x00\n        /* \"#utility.yul\":23483:23498   */\n      revert\n        /* \"#utility.yul\":23510:23690   */\n    tag_551:\n        /* \"#utility.yul\":23558:23635   */\n      0x4e487b7100000000000000000000000000000000000000000000000000000000\n        /* \"#utility.yul\":23555:23556   */\n      0x00\n        /* \"#utility.yul\":23548:23636   */\n      mstore\n        /* \"#utility.yul\":23655:23659   */\n      0x12\n        /* \"#utility.yul\":23652:23653   */\n      0x04\n        /* \"#utility.yul\":23645:23660   */\n      mstore\n        /* \"#utility.yul\":23679:23683   */\n      0x24\n        /* \"#utility.yul\":23676:23677   */\n      0x00\n        /* \"#utility.yul\":23669:23684   */\n      revert\n        /* \"#utility.yul\":23696:23876   */\n    tag_575:\n        /* \"#utility.yul\":23744:23821   */\n      0x4e487b7100000000000000000000000000000000000000000000000000000000\n        /* \"#utility.yul\":23741:23742   */\n      0x00\n        /* \"#utility.yul\":23734:23822   */\n      mstore\n        /* \"#utility.yul\":23841:23845   */\n      0x22\n        /* \"#utility.yul\":23838:23839   */\n      0x04\n        /* \"#utility.yul\":23831:23846   */\n      mstore\n        /* \"#utility.yul\":23865:23869   */\n      0x24\n        /* \"#utility.yul\":23862:23863   */\n      0x00\n        /* \"#utility.yul\":23855:23870   */\n      revert\n        /* \"#utility.yul\":23882:24062   */\n    tag_529:\n        /* \"#utility.yul\":23930:24007   */\n      0x4e487b7100000000000000000000000000000000000000000000000000000000\n        /* \"#utility.yul\":23927:23928   */\n      0x00\n        /* \"#utility.yul\":23920:24008   */\n      mstore\n        /* \"#utility.yul\":24027:24031   */\n      0x41\n        /* \"#utility.yul\":24024:24025   */\n      0x04\n        /* \"#utility.yul\":24017:24032   */\n      mstore\n        /* \"#utility.yul\":24051:24055   */\n      0x24\n        /* \"#utility.yul\":24048:24049   */\n      0x00\n        /* \"#utility.yul\":24041:24056   */\n      revert\n        /* \"#utility.yul\":24068:24170   */\n    tag_408:\n        /* \"#utility.yul\":24109:24115   */\n      0x00\n        /* \"#utility.yul\":24160:24162   */\n      0x1f\n        /* \"#utility.yul\":24156:24163   */\n      not\n        /* \"#utility.yul\":24151:24153   */\n      0x1f\n        /* \"#utility.yul\":24144:24149   */\n      dup4\n        /* \"#utility.yul\":24140:24154   */\n      add\n        /* \"#utility.yul\":24136:24164   */\n      and\n        /* \"#utility.yul\":24126:24164   */\n      swap1\n      pop\n        /* \"#utility.yul\":24116:24170   */\n      swap2\n      swap1\n      pop\n      jump\t// out\n        /* \"#utility.yul\":24176:24408   */\n    tag_427:\n        /* \"#utility.yul\":24316:24350   */\n      0x4552433732313a2063616c6c6572206973206e6f7420746f6b656e206f776e65\n        /* \"#utility.yul\":24312:24313   */\n      0x00\n        /* \"#utility.yul\":24304:24310   */\n      dup3\n        /* \"#utility.yul\":24300:24314   */\n      add\n        /* \"#utility.yul\":24293:24351   */\n      mstore\n        /* \"#utility.yul\":24385:24400   */\n      0x72206f7220617070726f76656400000000000000000000000000000000000000\n        /* \"#utility.yul\":24380:24382   */\n      0x20\n        /* \"#utility.yul\":24372:24378   */\n      dup3\n        /* \"#utility.yul\":24368:24383   */\n      add\n        /* \"#utility.yul\":24361:24401   */\n      mstore\n        /* \"#utility.yul\":24282:24408   */\n      pop\n      jump\t// out\n        /* \"#utility.yul\":24414:24651   */\n    tag_432:\n        /* \"#utility.yul\":24554:24588   */\n      0x4552433732313a207472616e7366657220746f206e6f6e204552433732315265\n        /* \"#utility.yul\":24550:24551   */\n      0x00\n        /* \"#utility.yul\":24542:24548   */\n      dup3\n        /* \"#utility.yul\":24538:24552   */\n      add\n        /* \"#utility.yul\":24531:24589   */\n      mstore\n        /* \"#utility.yul\":24623:24643   */\n      0x63656976657220696d706c656d656e7465720000000000000000000000000000\n        /* \"#utility.yul\":24618:24620   */\n      0x20\n        /* \"#utility.yul\":24610:24616   */\n      dup3\n        /* \"#utility.yul\":24606:24621   */\n      add\n        /* \"#utility.yul\":24599:24644   */\n      mstore\n        /* \"#utility.yul\":24520:24651   */\n      pop\n      jump\t// out\n        /* \"#utility.yul\":24657:24881   */\n    tag_437:\n        /* \"#utility.yul\":24797:24831   */\n      0x4552433732313a207472616e736665722066726f6d20696e636f727265637420\n        /* \"#utility.yul\":24793:24794   */\n      0x00\n        /* \"#utility.yul\":24785:24791   */\n      dup3\n        /* \"#utility.yul\":24781:24795   */\n      add\n        /* \"#utility.yul\":24774:24832   */\n      mstore\n        /* \"#utility.yul\":24866:24873   */\n      0x6f776e6572000000000000000000000000000000000000000000000000000000\n        /* \"#utility.yul\":24861:24863   */\n      0x20\n        /* \"#utility.yul\":24853:24859   */\n      dup3\n        /* \"#utility.yul\":24849:24864   */\n      add\n        /* \"#utility.yul\":24842:24874   */\n      mstore\n        /* \"#utility.yul\":24763:24881   */\n      pop\n      jump\t// out\n        /* \"#utility.yul\":24887:25065   */\n    tag_442:\n        /* \"#utility.yul\":25027:25057   */\n      0x4552433732313a20746f6b656e20616c7265616479206d696e74656400000000\n        /* \"#utility.yul\":25023:25024   */\n      0x00\n        /* \"#utility.yul\":25015:25021   */\n      dup3\n        /* \"#utility.yul\":25011:25025   */\n      add\n        /* \"#utility.yul\":25004:25058   */\n      mstore\n        /* \"#utility.yul\":24993:25065   */\n      pop\n      jump\t// out\n        /* \"#utility.yul\":25071:25294   */\n    tag_447:\n        /* \"#utility.yul\":25211:25245   */\n      0x4552433732313a207472616e7366657220746f20746865207a65726f20616464\n        /* \"#utility.yul\":25207:25208   */\n      0x00\n        /* \"#utility.yul\":25199:25205   */\n      dup3\n        /* \"#utility.yul\":25195:25209   */\n      add\n        /* \"#utility.yul\":25188:25246   */\n      mstore\n        /* \"#utility.yul\":25280:25286   */\n      0x7265737300000000000000000000000000000000000000000000000000000000\n        /* \"#utility.yul\":25275:25277   */\n      0x20\n        /* \"#utility.yul\":25267:25273   */\n      dup3\n        /* \"#utility.yul\":25263:25278   */\n      add\n        /* \"#utility.yul\":25256:25287   */\n      mstore\n        /* \"#utility.yul\":25177:25294   */\n      pop\n      jump\t// out\n        /* \"#utility.yul\":25300:25475   */\n    tag_452:\n        /* \"#utility.yul\":25440:25467   */\n      0x4552433732313a20617070726f766520746f2063616c6c657200000000000000\n        /* \"#utility.yul\":25436:25437   */\n      0x00\n        /* \"#utility.yul\":25428:25434   */\n      dup3\n        /* \"#utility.yul\":25424:25438   */\n      add\n        /* \"#utility.yul\":25417:25468   */\n      mstore\n        /* \"#utility.yul\":25406:25475   */\n      pop\n      jump\t// out\n        /* \"#utility.yul\":25481:25709   */\n    tag_457:\n        /* \"#utility.yul\":25621:25655   */\n      0x4552433732313a2061646472657373207a65726f206973206e6f742061207661\n        /* \"#utility.yul\":25617:25618   */\n      0x00\n        /* \"#utility.yul\":25609:25615   */\n      dup3\n        /* \"#utility.yul\":25605:25619   */\n      add\n        /* \"#utility.yul\":25598:25656   */\n      mstore\n        /* \"#utility.yul\":25690:25701   */\n      0x6c6964206f776e65720000000000000000000000000000000000000000000000\n        /* \"#utility.yul\":25685:25687   */\n      0x20\n        /* \"#utility.yul\":25677:25683   */\n      dup3\n        /* \"#utility.yul\":25673:25688   */\n      add\n        /* \"#utility.yul\":25666:25702   */\n      mstore\n        /* \"#utility.yul\":25587:25709   */\n      pop\n      jump\t// out\n        /* \"#utility.yul\":25715:25897   */\n    tag_462:\n        /* \"#utility.yul\":25855:25889   */\n      0x4552433732313a206d696e7420746f20746865207a65726f2061646472657373\n        /* \"#utility.yul\":25851:25852   */\n      0x00\n        /* \"#utility.yul\":25843:25849   */\n      dup3\n        /* \"#utility.yul\":25839:25853   */\n      add\n        /* \"#utility.yul\":25832:25890   */\n      mstore\n        /* \"#utility.yul\":25821:25897   */\n      pop\n      jump\t// out\n        /* \"#utility.yul\":25903:26077   */\n    tag_467:\n        /* \"#utility.yul\":26043:26069   */\n      0x4552433732313a20696e76616c696420746f6b656e2049440000000000000000\n        /* \"#utility.yul\":26039:26040   */\n      0x00\n        /* \"#utility.yul\":26031:26037   */\n      dup3\n        /* \"#utility.yul\":26027:26041   */\n      add\n        /* \"#utility.yul\":26020:26070   */\n      mstore\n        /* \"#utility.yul\":26009:26077   */\n      pop\n      jump\t// out\n        /* \"#utility.yul\":26083:26303   */\n    tag_472:\n        /* \"#utility.yul\":26223:26257   */\n      0x4552433732313a20617070726f76616c20746f2063757272656e74206f776e65\n        /* \"#utility.yul\":26219:26220   */\n      0x00\n        /* \"#utility.yul\":26211:26217   */\n      dup3\n        /* \"#utility.yul\":26207:26221   */\n      add\n        /* \"#utility.yul\":26200:26258   */\n      mstore\n        /* \"#utility.yul\":26292:26295   */\n      0x7200000000000000000000000000000000000000000000000000000000000000\n        /* \"#utility.yul\":26287:26289   */\n      0x20\n        /* \"#utility.yul\":26279:26285   */\n      dup3\n        /* \"#utility.yul\":26275:26290   */\n      add\n        /* \"#utility.yul\":26268:26296   */\n      mstore\n        /* \"#utility.yul\":26189:26303   */\n      pop\n      jump\t// out\n        /* \"#utility.yul\":26309:26557   */\n    tag_477:\n        /* \"#utility.yul\":26449:26483   */\n      0x4552433732313a20617070726f76652063616c6c6572206973206e6f7420746f\n        /* \"#utility.yul\":26445:26446   */\n      0x00\n        /* \"#utility.yul\":26437:26443   */\n      dup3\n        /* \"#utility.yul\":26433:26447   */\n      add\n        /* \"#utility.yul\":26426:26484   */\n      mstore\n        /* \"#utility.yul\":26518:26549   */\n      0x6b656e206f776e6572206f7220617070726f76656420666f7220616c6c000000\n        /* \"#utility.yul\":26513:26515   */\n      0x20\n        /* \"#utility.yul\":26505:26511   */\n      dup3\n        /* \"#utility.yul\":26501:26516   */\n      add\n        /* \"#utility.yul\":26494:26550   */\n      mstore\n        /* \"#utility.yul\":26415:26557   */\n      pop\n      jump\t// out\n        /* \"#utility.yul\":26563:26685   */\n    tag_323:\n        /* \"#utility.yul\":26636:26660   */\n      tag_606\n        /* \"#utility.yul\":26654:26659   */\n      dup2\n        /* \"#utility.yul\":26636:26660   */\n      tag_394\n      jump\t// in\n    tag_606:\n        /* \"#utility.yul\":26629:26634   */\n      dup2\n        /* \"#utility.yul\":26626:26661   */\n      eq\n        /* \"#utility.yul\":26616:26618   */\n      tag_607\n      jumpi\n        /* \"#utility.yul\":26675:26676   */\n      0x00\n        /* \"#utility.yul\":26672:26673   */\n      dup1\n        /* \"#utility.yul\":26665:26677   */\n      revert\n        /* \"#utility.yul\":26616:26618   */\n    tag_607:\n        /* \"#utility.yul\":26606:26685   */\n      pop\n      jump\t// out\n        /* \"#utility.yul\":26691:26807   */\n    tag_327:\n        /* \"#utility.yul\":26761:26782   */\n      tag_609\n        /* \"#utility.yul\":26776:26781   */\n      dup2\n        /* \"#utility.yul\":26761:26782   */\n      tag_398\n      jump\t// in\n    tag_609:\n        /* \"#utility.yul\":26754:26759   */\n      dup2\n        /* \"#utility.yul\":26751:26783   */\n      eq\n        /* \"#utility.yul\":26741:26743   */\n      tag_610\n      jumpi\n        /* \"#utility.yul\":26797:26798   */\n      0x00\n        /* \"#utility.yul\":26794:26795   */\n      dup1\n        /* \"#utility.yul\":26787:26799   */\n      revert\n        /* \"#utility.yul\":26741:26743   */\n    tag_610:\n        /* \"#utility.yul\":26731:26807   */\n      pop\n      jump\t// out\n        /* \"#utility.yul\":26813:26933   */\n    tag_331:\n        /* \"#utility.yul\":26885:26908   */\n      tag_612\n        /* \"#utility.yul\":26902:26907   */\n      dup2\n        /* \"#utility.yul\":26885:26908   */\n      tag_561\n      jump\t// in\n    tag_612:\n        /* \"#utility.yul\":26878:26883   */\n      dup2\n        /* \"#utility.yul\":26875:26909   */\n      eq\n        /* \"#utility.yul\":26865:26867   */\n      tag_613\n      jumpi\n        /* \"#utility.yul\":26923:26924   */\n      0x00\n        /* \"#utility.yul\":26920:26921   */\n      dup1\n        /* \"#utility.yul\":26913:26925   */\n      revert\n        /* \"#utility.yul\":26865:26867   */\n    tag_613:\n        /* \"#utility.yul\":26855:26933   */\n      pop\n      jump\t// out\n        /* \"#utility.yul\":26939:27061   */\n    tag_346:\n        /* \"#utility.yul\":27012:27036   */\n      tag_615\n        /* \"#utility.yul\":27030:27035   */\n      dup2\n        /* \"#utility.yul\":27012:27036   */\n      tag_481\n      jump\t// in\n    tag_615:\n        /* \"#utility.yul\":27005:27010   */\n      dup2\n        /* \"#utility.yul\":27002:27037   */\n      eq\n        /* \"#utility.yul\":26992:26994   */\n      tag_616\n      jumpi\n        /* \"#utility.yul\":27051:27052   */\n      0x00\n        /* \"#utility.yul\":27048:27049   */\n      dup1\n        /* \"#utility.yul\":27041:27053   */\n      revert\n        /* \"#utility.yul\":26992:26994   */\n    tag_616:\n        /* \"#utility.yul\":26982:27061   */\n      pop\n      jump\t// out\n\n    auxdata: 0xa2646970667358221220d6a9e6b321d2b7eb62323589dc2d6e846248d87b535989b18bfc5d5d17c0ee4a64736f6c63430008040033\n}\n",
				"bytecode": {
					"linkReferences": {},
					"object": "60806040523480156200001157600080fd5b5060405162002d6838038062002d68833981810160405281019062000037919062000193565b81600090805190602001906200004f92919062000071565b5080600190805190602001906200006892919062000071565b50505062000376565b8280546200007f906200029b565b90600052602060002090601f016020900481019282620000a35760008555620000ef565b82601f10620000be57805160ff1916838001178555620000ef565b82800160010185558215620000ef579182015b82811115620000ee578251825591602001919060010190620000d1565b5b509050620000fe919062000102565b5090565b5b808211156200011d57600081600090555060010162000103565b5090565b60006200013862000132846200022f565b62000206565b9050828152602081018484840111156200015157600080fd5b6200015e84828562000265565b509392505050565b600082601f8301126200017857600080fd5b81516200018a84826020860162000121565b91505092915050565b60008060408385031215620001a757600080fd5b600083015167ffffffffffffffff811115620001c257600080fd5b620001d08582860162000166565b925050602083015167ffffffffffffffff811115620001ee57600080fd5b620001fc8582860162000166565b9150509250929050565b60006200021262000225565b9050620002208282620002d1565b919050565b6000604051905090565b600067ffffffffffffffff8211156200024d576200024c62000336565b5b620002588262000365565b9050602081019050919050565b60005b838110156200028557808201518184015260208101905062000268565b8381111562000295576000848401525b50505050565b60006002820490506001821680620002b457607f821691505b60208210811415620002cb57620002ca62000307565b5b50919050565b620002dc8262000365565b810181811067ffffffffffffffff82111715620002fe57620002fd62000336565b5b80604052505050565b7f4e487b7100000000000000000000000000000000000000000000000000000000600052602260045260246000fd5b7f4e487b7100000000000000000000000000000000000000000000000000000000600052604160045260246000fd5b6000601f19601f8301169050919050565b6129e280620003866000396000f3fe608060405234801561001057600080fd5b50600436106101005760003560e01c806370a0823111610097578063b88d4fde11610066578063b88d4fde146102bd578063c87b56dd146102d9578063e985e9c514610309578063ee48cda21461033957610100565b806370a08231146102375780637d84b8631461026757806395d89b4114610283578063a22cb465146102a157610100565b806323b872dd116100d357806323b872dd1461019f57806342842e0e146101bb57806352e04825146101d75780636352211e1461020757610100565b806301ffc9a71461010557806306fdde0314610135578063081812fc14610153578063095ea7b314610183575b600080fd5b61011f600480360381019061011a9190611d8f565b610369565b60405161012c91906120e6565b60405180910390f35b61013d61044b565b60405161014a9190612101565b60405180910390f35b61016d60048036038101906101689190611de1565b6104dd565b60405161017a919061207f565b60405180910390f35b61019d60048036038101906101989190611d53565b610523565b005b6101b960048036038101906101b49190611bbe565b61063b565b005b6101d560048036038101906101d09190611bbe565b61069b565b005b6101f160048036038101906101ec9190611de1565b6106bb565b6040516101fe919061207f565b60405180910390f35b610221600480360381019061021c9190611de1565b61076d565b60405161022e919061207f565b60405180910390f35b610251600480360381019061024c9190611b59565b61081f565b60405161025e9190612283565b60405180910390f35b610281600480360381019061027c9190611c88565b6108d7565b005b61028b6108f4565b6040516102989190612101565b60405180910390f35b6102bb60048036038101906102b69190611d17565b610986565b005b6102d760048036038101906102d29190611c0d565b61099c565b005b6102f360048036038101906102ee9190611de1565b6109fe565b6040516103009190612101565b60405180910390f35b610323600480360381019061031e9190611b82565b610a66565b60405161033091906120e6565b60405180910390f35b610353600480360381019061034e9190611de1565b610afa565b6040516103609190612283565b60405180910390f35b60007f80ac58cd000000000000000000000000000000000000000000000000000000007bffffffffffffffffffffffffffffffffffffffffffffffffffffffff1916827bffffffffffffffffffffffffffffffffffffffffffffffffffffffff1916148061043457507f5b5e139f000000000000000000000000000000000000000000000000000000007bffffffffffffffffffffffffffffffffffffffffffffffffffffffff1916827bffffffffffffffffffffffffffffffffffffffffffffffffffffffff1916145b80610444575061044382610b1c565b5b9050919050565b60606000805461045a906124d9565b80601f0160208091040260200160405190810160405280929190818152602001828054610486906124d9565b80156104d35780601f106104a8576101008083540402835291602001916104d3565b820191906000526020600020905b8154815290600101906020018083116104b657829003601f168201915b5050505050905090565b60006104e882610b86565b6006600083815260200190815260200160002060009054906101000a900473ffffffffffffffffffffffffffffffffffffffff169050919050565b600061052e8261076d565b90508073ffffffffffffffffffffffffffffffffffffffff168373ffffffffffffffffffffffffffffffffffffffff16141561059f576040517f08c379a000000000000000000000000000000000000000000000000000000000815260040161059690612243565b60405180910390fd5b8073ffffffffffffffffffffffffffffffffffffffff166105be610bd1565b73ffffffffffffffffffffffffffffffffffffffff1614806105ed57506105ec816105e7610bd1565b610a66565b5b61062c576040517f08c379a000000000000000000000000000000000000000000000000000000000815260040161062390612263565b60405180910390fd5b6106368383610bd9565b505050565b61064c610646610bd1565b82610c92565b61068b576040517f08c379a000000000000000000000000000000000000000000000000000000000815260040161068290612123565b60405180910390fd5b610696838383610d27565b505050565b6106b68383836040518060200160405280600081525061099c565b505050565b6000806003600084815260200190815260200160002060009054906101000a900473ffffffffffffffffffffffffffffffffffffffff169050600073ffffffffffffffffffffffffffffffffffffffff168173ffffffffffffffffffffffffffffffffffffffff161415610764576040517f08c379a000000000000000000000000000000000000000000000000000000000815260040161075b90612223565b60405180910390fd5b80915050919050565b6000806002600084815260200190815260200160002060009054906101000a900473ffffffffffffffffffffffffffffffffffffffff169050600073ffffffffffffffffffffffffffffffffffffffff168173ffffffffffffffffffffffffffffffffffffffff161415610816576040517f08c379a000000000000000000000000000000000000000000000000000000000815260040161080d90612223565b60405180910390fd5b80915050919050565b60008073ffffffffffffffffffffffffffffffffffffffff168273ffffffffffffffffffffffffffffffffffffffff161415610890576040517f08c379a0000000000000000000000000000000000000000000000000000000008152600401610887906121e3565b60405180910390fd5b600560008373ffffffffffffffffffffffffffffffffffffffff1673ffffffffffffffffffffffffffffffffffffffff168152602001908152602001600020549050919050565b6108e38585858561101d565b6108ed828261103f565b5050505050565b606060018054610903906124d9565b80601f016020809104026020016040519081016040528092919081815260200182805461092f906124d9565b801561097c5780601f106109515761010080835404028352916020019161097c565b820191906000526020600020905b81548152906001019060200180831161095f57829003601f168201915b5050505050905090565b610998610991610bd1565b838361106b565b5050565b6109ad6109a7610bd1565b83610c92565b6109ec576040517f08c379a00000000000000000000000000000000000000000000000000000000081526004016109e390612123565b60405180910390fd5b6109f8848484846111d8565b50505050565b6060610a0982610b86565b6000610a13611234565b90506000815111610a335760405180602001604052806000815250610a5e565b80610a3d8461124b565b604051602001610a4e92919061205b565b6040516020818303038152906040525b915050919050565b6000600760008473ffffffffffffffffffffffffffffffffffffffff1673ffffffffffffffffffffffffffffffffffffffff16815260200190815260200160002060008373ffffffffffffffffffffffffffffffffffffffff1673ffffffffffffffffffffffffffffffffffffffff16815260200190815260200160002060009054906101000a900460ff16905092915050565b6000806004600084815260200190815260200160002054905080915050919050565b60007f01ffc9a7000000000000000000000000000000000000000000000000000000007bffffffffffffffffffffffffffffffffffffffffffffffffffffffff1916827bffffffffffffffffffffffffffffffffffffffffffffffffffffffff1916149050919050565b610b8f816113f8565b610bce576040517f08c379a0000000000000000000000000000000000000000000000000000000008152600401610bc590612223565b60405180910390fd5b50565b600033905090565b816006600083815260200190815260200160002060006101000a81548173ffffffffffffffffffffffffffffffffffffffff021916908373ffffffffffffffffffffffffffffffffffffffff160217905550808273ffffffffffffffffffffffffffffffffffffffff16610c4c8361076d565b73ffffffffffffffffffffffffffffffffffffffff167f8c5be1e5ebec7d5bd14f71427d1e84f3dd0314c0f7b2291e5b200ac8c7c3b92560405160405180910390a45050565b600080610c9e8361076d565b90508073ffffffffffffffffffffffffffffffffffffffff168473ffffffffffffffffffffffffffffffffffffffff161480610ce05750610cdf8185610a66565b5b80610d1e57508373ffffffffffffffffffffffffffffffffffffffff16610d06846104dd565b73ffffffffffffffffffffffffffffffffffffffff16145b91505092915050565b8273ffffffffffffffffffffffffffffffffffffffff16610d478261076d565b73ffffffffffffffffffffffffffffffffffffffff1614610d9d576040517f08c379a0000000000000000000000000000000000000000000000000000000008152600401610d9490612163565b60405180910390fd5b600073ffffffffffffffffffffffffffffffffffffffff168273ffffffffffffffffffffffffffffffffffffffff161415610e0d576040517f08c379a0000000000000000000000000000000000000000000000000000000008152600401610e04906121a3565b60405180910390fd5b610e18838383611464565b8273ffffffffffffffffffffffffffffffffffffffff16610e388261076d565b73ffffffffffffffffffffffffffffffffffffffff1614610e8e576040517f08c379a0000000000000000000000000000000000000000000000000000000008152600401610e8590612163565b60405180910390fd5b6006600082815260200190815260200160002060006101000a81549073ffffffffffffffffffffffffffffffffffffffff02191690556001600560008573ffffffffffffffffffffffffffffffffffffffff1673ffffffffffffffffffffffffffffffffffffffff168152602001908152602001600020600082825403925050819055506001600560008473ffffffffffffffffffffffffffffffffffffffff1673ffffffffffffffffffffffffffffffffffffffff16815260200190815260200160002060008282540192505081905550816002600083815260200190815260200160002060006101000a81548173ffffffffffffffffffffffffffffffffffffffff021916908373ffffffffffffffffffffffffffffffffffffffff160217905550808273ffffffffffffffffffffffffffffffffffffffff168473ffffffffffffffffffffffffffffffffffffffff167fddf252ad1be2c89b69c2b068fc378daa952ba7f163c4a11628f55a4df523b3ef60405160405180910390a4611018838383611469565b505050565b611039848484846040518060200160405280600081525061146e565b50505050565b8060086000848152602001908152602001600020908051906020019061106692919061197d565b505050565b8173ffffffffffffffffffffffffffffffffffffffff168373ffffffffffffffffffffffffffffffffffffffff1614156110da576040517f08c379a00000000000000000000000000000000000000000000000000000000081526004016110d1906121c3565b60405180910390fd5b80600760008573ffffffffffffffffffffffffffffffffffffffff1673ffffffffffffffffffffffffffffffffffffffff16815260200190815260200160002060008473ffffffffffffffffffffffffffffffffffffffff1673ffffffffffffffffffffffffffffffffffffffff16815260200190815260200160002060006101000a81548160ff0219169083151502179055508173ffffffffffffffffffffffffffffffffffffffff168373ffffffffffffffffffffffffffffffffffffffff167f17307eab39ab6107e8899845ad3d59bd9653f200f220920489ca2b5937696c31836040516111cb91906120e6565b60405180910390a3505050565b6111e3848484610d27565b6111ef848484846114cd565b61122e576040517f08c379a000000000000000000000000000000000000000000000000000000000815260040161122590612143565b60405180910390fd5b50505050565b606060405180602001604052806000815250905090565b60606000821415611293576040518060400160405280600181526020017f300000000000000000000000000000000000000000000000000000000000000081525090506113f3565b600082905060005b600082146112c55780806112ae9061253c565b915050600a826112be91906123be565b915061129b565b60008167ffffffffffffffff811115611307577f4e487b7100000000000000000000000000000000000000000000000000000000600052604160045260246000fd5b6040519080825280601f01601f1916602001820160405280156113395781602001600182028036833780820191505090505b5090505b600085146113ec5760018261135291906123ef565b9150600a856113619190612585565b603061136d9190612368565b60f81b8183815181106113a9577f4e487b7100000000000000000000000000000000000000000000000000000000600052603260045260246000fd5b60200101907effffffffffffffffffffffffffffffffffffffffffffffffffffffffffffff1916908160001a905350600a856113e591906123be565b945061133d565b8093505050505b919050565b60008073ffffffffffffffffffffffffffffffffffffffff166002600084815260200190815260200160002060009054906101000a900473ffffffffffffffffffffffffffffffffffffffff1673ffffffffffffffffffffffffffffffffffffffff1614159050919050565b505050565b505050565b61147a85858585611664565b61148760008684846114cd565b6114c6576040517f08c379a00000000000000000000000000000000000000000000000000000000081526004016114bd90612143565b60405180910390fd5b5050505050565b60006114ee8473ffffffffffffffffffffffffffffffffffffffff1661195a565b15611657578373ffffffffffffffffffffffffffffffffffffffff1663150b7a02611517610bd1565b8786866040518563ffffffff1660e01b8152600401611539949392919061209a565b602060405180830381600087803b15801561155357600080fd5b505af192505050801561158457506040513d601f19601f820116820180604052508101906115819190611db8565b60015b611607573d80600081146115b4576040519150601f19603f3d011682016040523d82523d6000602084013e6115b9565b606091505b506000815114156115ff576040517f08c379a00000000000000000000000000000000000000000000000000000000081526004016115f690612143565b60405180910390fd5b805181602001fd5b63150b7a0260e01b7bffffffffffffffffffffffffffffffffffffffffffffffffffffffff1916817bffffffffffffffffffffffffffffffffffffffffffffffffffffffff19161491505061165c565b600190505b949350505050565b600073ffffffffffffffffffffffffffffffffffffffff168473ffffffffffffffffffffffffffffffffffffffff1614156116d4576040517f08c379a00000000000000000000000000000000000000000000000000000000081526004016116cb90612203565b60405180910390fd5b600073ffffffffffffffffffffffffffffffffffffffff168373ffffffffffffffffffffffffffffffffffffffff161415611744576040517f08c379a000000000000000000000000000000000000000000000000000000000815260040161173b90612203565b60405180910390fd5b61174d816113f8565b1561178d576040517f08c379a000000000000000000000000000000000000000000000000000000000815260040161178490612183565b60405180910390fd5b61179960008583611464565b6117a2816113f8565b156117e2576040517f08c379a00000000000000000000000000000000000000000000000000000000081526004016117d990612183565b60405180910390fd5b6001600560008673ffffffffffffffffffffffffffffffffffffffff1673ffffffffffffffffffffffffffffffffffffffff16815260200190815260200160002060008282540192505081905550836002600083815260200190815260200160002060006101000a81548173ffffffffffffffffffffffffffffffffffffffff021916908373ffffffffffffffffffffffffffffffffffffffff160217905550826003600083815260200190815260200160002060006101000a81548173ffffffffffffffffffffffffffffffffffffffff021916908373ffffffffffffffffffffffffffffffffffffffff160217905550816004600083815260200190815260200160002081905550808473ffffffffffffffffffffffffffffffffffffffff16600073ffffffffffffffffffffffffffffffffffffffff167fddf252ad1be2c89b69c2b068fc378daa952ba7f163c4a11628f55a4df523b3ef60405160405180910390a461195460008583611469565b50505050565b6000808273ffffffffffffffffffffffffffffffffffffffff163b119050919050565b828054611989906124d9565b90600052602060002090601f0160209004810192826119ab57600085556119f2565b82601f106119c457805160ff19168380011785556119f2565b828001600101855582156119f2579182015b828111156119f15782518255916020019190600101906119d6565b5b5090506119ff9190611a03565b5090565b5b80821115611a1c576000816000905550600101611a04565b5090565b6000611a33611a2e846122c3565b61229e565b905082815260208101848484011115611a4b57600080fd5b611a56848285612497565b509392505050565b6000611a71611a6c846122f4565b61229e565b905082815260208101848484011115611a8957600080fd5b611a94848285612497565b509392505050565b600081359050611aab81612950565b92915050565b600081359050611ac081612967565b92915050565b600081359050611ad58161297e565b92915050565b600081519050611aea8161297e565b92915050565b600082601f830112611b0157600080fd5b8135611b11848260208601611a20565b91505092915050565b600082601f830112611b2b57600080fd5b8135611b3b848260208601611a5e565b91505092915050565b600081359050611b5381612995565b92915050565b600060208284031215611b6b57600080fd5b6000611b7984828501611a9c565b91505092915050565b60008060408385031215611b9557600080fd5b6000611ba385828601611a9c565b9250506020611bb485828601611a9c565b9150509250929050565b600080600060608486031215611bd357600080fd5b6000611be186828701611a9c565b9350506020611bf286828701611a9c565b9250506040611c0386828701611b44565b9150509250925092565b60008060008060808587031215611c2357600080fd5b6000611c3187828801611a9c565b9450506020611c4287828801611a9c565b9350506040611c5387828801611b44565b925050606085013567ffffffffffffffff811115611c7057600080fd5b611c7c87828801611af0565b91505092959194509250565b600080600080600060a08688031215611ca057600080fd5b6000611cae88828901611a9c565b9550506020611cbf88828901611a9c565b9450506040611cd088828901611b44565b9350506060611ce188828901611b44565b925050608086013567ffffffffffffffff811115611cfe57600080fd5b611d0a88828901611b1a565b9150509295509295909350565b60008060408385031215611d2a57600080fd5b6000611d3885828601611a9c565b9250506020611d4985828601611ab1565b9150509250929050565b60008060408385031215611d6657600080fd5b6000611d7485828601611a9c565b9250506020611d8585828601611b44565b9150509250929050565b600060208284031215611da157600080fd5b6000611daf84828501611ac6565b91505092915050565b600060208284031215611dca57600080fd5b6000611dd884828501611adb565b91505092915050565b600060208284031215611df357600080fd5b6000611e0184828501611b44565b91505092915050565b611e1381612423565b82525050565b611e2281612435565b82525050565b6000611e3382612325565b611e3d818561233b565b9350611e4d8185602086016124a6565b611e5681612672565b840191505092915050565b6000611e6c82612330565b611e76818561234c565b9350611e868185602086016124a6565b611e8f81612672565b840191505092915050565b6000611ea582612330565b611eaf818561235d565b9350611ebf8185602086016124a6565b80840191505092915050565b6000611ed8602d8361234c565b9150611ee382612683565b604082019050919050565b6000611efb60328361234c565b9150611f06826126d2565b604082019050919050565b6000611f1e60258361234c565b9150611f2982612721565b604082019050919050565b6000611f41601c8361234c565b9150611f4c82612770565b602082019050919050565b6000611f6460248361234c565b9150611f6f82612799565b604082019050919050565b6000611f8760198361234c565b9150611f92826127e8565b602082019050919050565b6000611faa60298361234c565b9150611fb582612811565b604082019050919050565b6000611fcd60208361234c565b9150611fd882612860565b602082019050919050565b6000611ff060188361234c565b9150611ffb82612889565b602082019050919050565b600061201360218361234c565b915061201e826128b2565b604082019050919050565b6000612036603d8361234c565b915061204182612901565b604082019050919050565b6120558161248d565b82525050565b60006120678285611e9a565b91506120738284611e9a565b91508190509392505050565b60006020820190506120946000830184611e0a565b92915050565b60006080820190506120af6000830187611e0a565b6120bc6020830186611e0a565b6120c9604083018561204c565b81810360608301526120db8184611e28565b905095945050505050565b60006020820190506120fb6000830184611e19565b92915050565b6000602082019050818103600083015261211b8184611e61565b905092915050565b6000602082019050818103600083015261213c81611ecb565b9050919050565b6000602082019050818103600083015261215c81611eee565b9050919050565b6000602082019050818103600083015261217c81611f11565b9050919050565b6000602082019050818103600083015261219c81611f34565b9050919050565b600060208201905081810360008301526121bc81611f57565b9050919050565b600060208201905081810360008301526121dc81611f7a565b9050919050565b600060208201905081810360008301526121fc81611f9d565b9050919050565b6000602082019050818103600083015261221c81611fc0565b9050919050565b6000602082019050818103600083015261223c81611fe3565b9050919050565b6000602082019050818103600083015261225c81612006565b9050919050565b6000602082019050818103600083015261227c81612029565b9050919050565b6000602082019050612298600083018461204c565b92915050565b60006122a86122b9565b90506122b4828261250b565b919050565b6000604051905090565b600067ffffffffffffffff8211156122de576122dd612643565b5b6122e782612672565b9050602081019050919050565b600067ffffffffffffffff82111561230f5761230e612643565b5b61231882612672565b9050602081019050919050565b600081519050919050565b600081519050919050565b600082825260208201905092915050565b600082825260208201905092915050565b600081905092915050565b60006123738261248d565b915061237e8361248d565b9250827fffffffffffffffffffffffffffffffffffffffffffffffffffffffffffffffff038211156123b3576123b26125b6565b5b828201905092915050565b60006123c98261248d565b91506123d48361248d565b9250826123e4576123e36125e5565b5b828204905092915050565b60006123fa8261248d565b91506124058361248d565b925082821015612418576124176125b6565b5b828203905092915050565b600061242e8261246d565b9050919050565b60008115159050919050565b60007fffffffff0000000000000000000000000000000000000000000000000000000082169050919050565b600073ffffffffffffffffffffffffffffffffffffffff82169050919050565b6000819050919050565b82818337600083830152505050565b60005b838110156124c45780820151818401526020810190506124a9565b838111156124d3576000848401525b50505050565b600060028204905060018216806124f157607f821691505b6020821081141561250557612504612614565b5b50919050565b61251482612672565b810181811067ffffffffffffffff8211171561253357612532612643565b5b80604052505050565b60006125478261248d565b91507fffffffffffffffffffffffffffffffffffffffffffffffffffffffffffffffff82141561257a576125796125b6565b5b600182019050919050565b60006125908261248d565b915061259b8361248d565b9250826125ab576125aa6125e5565b5b828206905092915050565b7f4e487b7100000000000000000000000000000000000000000000000000000000600052601160045260246000fd5b7f4e487b7100000000000000000000000000000000000000000000000000000000600052601260045260246000fd5b7f4e487b7100000000000000000000000000000000000000000000000000000000600052602260045260246000fd5b7f4e487b7100000000000000000000000000000000000000000000000000000000600052604160045260246000fd5b6000601f19601f8301169050919050565b7f4552433732313a2063616c6c6572206973206e6f7420746f6b656e206f776e6560008201527f72206f7220617070726f76656400000000000000000000000000000000000000602082015250565b7f4552433732313a207472616e7366657220746f206e6f6e20455243373231526560008201527f63656976657220696d706c656d656e7465720000000000000000000000000000602082015250565b7f4552433732313a207472616e736665722066726f6d20696e636f72726563742060008201527f6f776e6572000000000000000000000000000000000000000000000000000000602082015250565b7f4552433732313a20746f6b656e20616c7265616479206d696e74656400000000600082015250565b7f4552433732313a207472616e7366657220746f20746865207a65726f2061646460008201527f7265737300000000000000000000000000000000000000000000000000000000602082015250565b7f4552433732313a20617070726f766520746f2063616c6c657200000000000000600082015250565b7f4552433732313a2061646472657373207a65726f206973206e6f74206120766160008201527f6c6964206f776e65720000000000000000000000000000000000000000000000602082015250565b7f4552433732313a206d696e7420746f20746865207a65726f2061646472657373600082015250565b7f4552433732313a20696e76616c696420746f6b656e2049440000000000000000600082015250565b7f4552433732313a20617070726f76616c20746f2063757272656e74206f776e6560008201527f7200000000000000000000000000000000000000000000000000000000000000602082015250565b7f4552433732313a20617070726f76652063616c6c6572206973206e6f7420746f60008201527f6b656e206f776e6572206f7220617070726f76656420666f7220616c6c000000602082015250565b61295981612423565b811461296457600080fd5b50565b61297081612435565b811461297b57600080fd5b50565b61298781612441565b811461299257600080fd5b50565b61299e8161248d565b81146129a957600080fd5b5056fea2646970667358221220d6a9e6b321d2b7eb62323589dc2d6e846248d87b535989b18bfc5d5d17c0ee4a64736f6c63430008040033",
					"opcodes": "PUSH1 0x80 PUSH1 0x40 MSTORE CALLVALUE DUP1 ISZERO PUSH3 0x11 JUMPI PUSH1 0x0 DUP1 REVERT JUMPDEST POP PUSH1 0x40 MLOAD PUSH3 0x2D68 CODESIZE SUB DUP1 PUSH3 0x2D68 DUP4 CODECOPY DUP2 DUP2 ADD PUSH1 0x40 MSTORE DUP2 ADD SWAP1 PUSH3 0x37 SWAP2 SWAP1 PUSH3 0x193 JUMP JUMPDEST DUP2 PUSH1 0x0 SWAP1 DUP1 MLOAD SWAP1 PUSH1 0x20 ADD SWAP1 PUSH3 0x4F SWAP3 SWAP2 SWAP1 PUSH3 0x71 JUMP JUMPDEST POP DUP1 PUSH1 0x1 SWAP1 DUP1 MLOAD SWAP1 PUSH1 0x20 ADD SWAP1 PUSH3 0x68 SWAP3 SWAP2 SWAP1 PUSH3 0x71 JUMP JUMPDEST POP POP POP PUSH3 0x376 JUMP JUMPDEST DUP3 DUP1 SLOAD PUSH3 0x7F SWAP1 PUSH3 0x29B JUMP JUMPDEST SWAP1 PUSH1 0x0 MSTORE PUSH1 0x20 PUSH1 0x0 KECCAK256 SWAP1 PUSH1 0x1F ADD PUSH1 0x20 SWAP1 DIV DUP2 ADD SWAP3 DUP3 PUSH3 0xA3 JUMPI PUSH1 0x0 DUP6 SSTORE PUSH3 0xEF JUMP JUMPDEST DUP3 PUSH1 0x1F LT PUSH3 0xBE JUMPI DUP1 MLOAD PUSH1 0xFF NOT AND DUP4 DUP1 ADD OR DUP6 SSTORE PUSH3 0xEF JUMP JUMPDEST DUP3 DUP1 ADD PUSH1 0x1 ADD DUP6 SSTORE DUP3 ISZERO PUSH3 0xEF JUMPI SWAP2 DUP3 ADD JUMPDEST DUP3 DUP2 GT ISZERO PUSH3 0xEE JUMPI DUP3 MLOAD DUP3 SSTORE SWAP2 PUSH1 0x20 ADD SWAP2 SWAP1 PUSH1 0x1 ADD SWAP1 PUSH3 0xD1 JUMP JUMPDEST JUMPDEST POP SWAP1 POP PUSH3 0xFE SWAP2 SWAP1 PUSH3 0x102 JUMP JUMPDEST POP SWAP1 JUMP JUMPDEST JUMPDEST DUP1 DUP3 GT ISZERO PUSH3 0x11D JUMPI PUSH1 0x0 DUP2 PUSH1 0x0 SWAP1 SSTORE POP PUSH1 0x1 ADD PUSH3 0x103 JUMP JUMPDEST POP SWAP1 JUMP JUMPDEST PUSH1 0x0 PUSH3 0x138 PUSH3 0x132 DUP5 PUSH3 0x22F JUMP JUMPDEST PUSH3 0x206 JUMP JUMPDEST SWAP1 POP DUP3 DUP2 MSTORE PUSH1 0x20 DUP2 ADD DUP5 DUP5 DUP5 ADD GT ISZERO PUSH3 0x151 JUMPI PUSH1 0x0 DUP1 REVERT JUMPDEST PUSH3 0x15E DUP5 DUP3 DUP6 PUSH3 0x265 JUMP JUMPDEST POP SWAP4 SWAP3 POP POP POP JUMP JUMPDEST PUSH1 0x0 DUP3 PUSH1 0x1F DUP4 ADD SLT PUSH3 0x178 JUMPI PUSH1 0x0 DUP1 REVERT JUMPDEST DUP2 MLOAD PUSH3 0x18A DUP5 DUP3 PUSH1 0x20 DUP7 ADD PUSH3 0x121 JUMP JUMPDEST SWAP2 POP POP SWAP3 SWAP2 POP POP JUMP JUMPDEST PUSH1 0x0 DUP1 PUSH1 0x40 DUP4 DUP6 SUB SLT ISZERO PUSH3 0x1A7 JUMPI PUSH1 0x0 DUP1 REVERT JUMPDEST PUSH1 0x0 DUP4 ADD MLOAD PUSH8 0xFFFFFFFFFFFFFFFF DUP2 GT ISZERO PUSH3 0x1C2 JUMPI PUSH1 0x0 DUP1 REVERT JUMPDEST PUSH3 0x1D0 DUP6 DUP3 DUP7 ADD PUSH3 0x166 JUMP JUMPDEST SWAP3 POP POP PUSH1 0x20 DUP4 ADD MLOAD PUSH8 0xFFFFFFFFFFFFFFFF DUP2 GT ISZERO PUSH3 0x1EE JUMPI PUSH1 0x0 DUP1 REVERT JUMPDEST PUSH3 0x1FC DUP6 DUP3 DUP7 ADD PUSH3 0x166 JUMP JUMPDEST SWAP2 POP POP SWAP3 POP SWAP3 SWAP1 POP JUMP JUMPDEST PUSH1 0x0 PUSH3 0x212 PUSH3 0x225 JUMP JUMPDEST SWAP1 POP PUSH3 0x220 DUP3 DUP3 PUSH3 0x2D1 JUMP JUMPDEST SWAP2 SWAP1 POP JUMP JUMPDEST PUSH1 0x0 PUSH1 0x40 MLOAD SWAP1 POP SWAP1 JUMP JUMPDEST PUSH1 0x0 PUSH8 0xFFFFFFFFFFFFFFFF DUP3 GT ISZERO PUSH3 0x24D JUMPI PUSH3 0x24C PUSH3 0x336 JUMP JUMPDEST JUMPDEST PUSH3 0x258 DUP3 PUSH3 0x365 JUMP JUMPDEST SWAP1 POP PUSH1 0x20 DUP2 ADD SWAP1 POP SWAP2 SWAP1 POP JUMP JUMPDEST PUSH1 0x0 JUMPDEST DUP4 DUP2 LT ISZERO PUSH3 0x285 JUMPI DUP1 DUP3 ADD MLOAD DUP2 DUP5 ADD MSTORE PUSH1 0x20 DUP2 ADD SWAP1 POP PUSH3 0x268 JUMP JUMPDEST DUP4 DUP2 GT ISZERO PUSH3 0x295 JUMPI PUSH1 0x0 DUP5 DUP5 ADD MSTORE JUMPDEST POP POP POP POP JUMP JUMPDEST PUSH1 0x0 PUSH1 0x2 DUP3 DIV SWAP1 POP PUSH1 0x1 DUP3 AND DUP1 PUSH3 0x2B4 JUMPI PUSH1 0x7F DUP3 AND SWAP2 POP JUMPDEST PUSH1 0x20 DUP3 LT DUP2 EQ ISZERO PUSH3 0x2CB JUMPI PUSH3 0x2CA PUSH3 0x307 JUMP JUMPDEST JUMPDEST POP SWAP2 SWAP1 POP JUMP JUMPDEST PUSH3 0x2DC DUP3 PUSH3 0x365 JUMP JUMPDEST DUP2 ADD DUP2 DUP2 LT PUSH8 0xFFFFFFFFFFFFFFFF DUP3 GT OR ISZERO PUSH3 0x2FE JUMPI PUSH3 0x2FD PUSH3 0x336 JUMP JUMPDEST JUMPDEST DUP1 PUSH1 0x40 MSTORE POP POP POP JUMP JUMPDEST PUSH32 0x4E487B7100000000000000000000000000000000000000000000000000000000 PUSH1 0x0 MSTORE PUSH1 0x22 PUSH1 0x4 MSTORE PUSH1 0x24 PUSH1 0x0 REVERT JUMPDEST PUSH32 0x4E487B7100000000000000000000000000000000000000000000000000000000 PUSH1 0x0 MSTORE PUSH1 0x41 PUSH1 0x4 MSTORE PUSH1 0x24 PUSH1 0x0 REVERT JUMPDEST PUSH1 0x0 PUSH1 0x1F NOT PUSH1 0x1F DUP4 ADD AND SWAP1 POP SWAP2 SWAP1 POP JUMP JUMPDEST PUSH2 0x29E2 DUP1 PUSH3 0x386 PUSH1 0x0 CODECOPY PUSH1 0x0 RETURN INVALID PUSH1 0x80 PUSH1 0x40 MSTORE CALLVALUE DUP1 ISZERO PUSH2 0x10 JUMPI PUSH1 0x0 DUP1 REVERT JUMPDEST POP PUSH1 0x4 CALLDATASIZE LT PUSH2 0x100 JUMPI PUSH1 0x0 CALLDATALOAD PUSH1 0xE0 SHR DUP1 PUSH4 0x70A08231 GT PUSH2 0x97 JUMPI DUP1 PUSH4 0xB88D4FDE GT PUSH2 0x66 JUMPI DUP1 PUSH4 0xB88D4FDE EQ PUSH2 0x2BD JUMPI DUP1 PUSH4 0xC87B56DD EQ PUSH2 0x2D9 JUMPI DUP1 PUSH4 0xE985E9C5 EQ PUSH2 0x309 JUMPI DUP1 PUSH4 0xEE48CDA2 EQ PUSH2 0x339 JUMPI PUSH2 0x100 JUMP JUMPDEST DUP1 PUSH4 0x70A08231 EQ PUSH2 0x237 JUMPI DUP1 PUSH4 0x7D84B863 EQ PUSH2 0x267 JUMPI DUP1 PUSH4 0x95D89B41 EQ PUSH2 0x283 JUMPI DUP1 PUSH4 0xA22CB465 EQ PUSH2 0x2A1 JUMPI PUSH2 0x100 JUMP JUMPDEST DUP1 PUSH4 0x23B872DD GT PUSH2 0xD3 JUMPI DUP1 PUSH4 0x23B872DD EQ PUSH2 0x19F JUMPI DUP1 PUSH4 0x42842E0E EQ PUSH2 0x1BB JUMPI DUP1 PUSH4 0x52E04825 EQ PUSH2 0x1D7 JUMPI DUP1 PUSH4 0x6352211E EQ PUSH2 0x207 JUMPI PUSH2 0x100 JUMP JUMPDEST DUP1 PUSH4 0x1FFC9A7 EQ PUSH2 0x105 JUMPI DUP1 PUSH4 0x6FDDE03 EQ PUSH2 0x135 JUMPI DUP1 PUSH4 0x81812FC EQ PUSH2 0x153 JUMPI DUP1 PUSH4 0x95EA7B3 EQ PUSH2 0x183 JUMPI JUMPDEST PUSH1 0x0 DUP1 REVERT JUMPDEST PUSH2 0x11F PUSH1 0x4 DUP1 CALLDATASIZE SUB DUP2 ADD SWAP1 PUSH2 0x11A SWAP2 SWAP1 PUSH2 0x1D8F JUMP JUMPDEST PUSH2 0x369 JUMP JUMPDEST PUSH1 0x40 MLOAD PUSH2 0x12C SWAP2 SWAP1 PUSH2 0x20E6 JUMP JUMPDEST PUSH1 0x40 MLOAD DUP1 SWAP2 SUB SWAP1 RETURN JUMPDEST PUSH2 0x13D PUSH2 0x44B JUMP JUMPDEST PUSH1 0x40 MLOAD PUSH2 0x14A SWAP2 SWAP1 PUSH2 0x2101 JUMP JUMPDEST PUSH1 0x40 MLOAD DUP1 SWAP2 SUB SWAP1 RETURN JUMPDEST PUSH2 0x16D PUSH1 0x4 DUP1 CALLDATASIZE SUB DUP2 ADD SWAP1 PUSH2 0x168 SWAP2 SWAP1 PUSH2 0x1DE1 JUMP JUMPDEST PUSH2 0x4DD JUMP JUMPDEST PUSH1 0x40 MLOAD PUSH2 0x17A SWAP2 SWAP1 PUSH2 0x207F JUMP JUMPDEST PUSH1 0x40 MLOAD DUP1 SWAP2 SUB SWAP1 RETURN JUMPDEST PUSH2 0x19D PUSH1 0x4 DUP1 CALLDATASIZE SUB DUP2 ADD SWAP1 PUSH2 0x198 SWAP2 SWAP1 PUSH2 0x1D53 JUMP JUMPDEST PUSH2 0x523 JUMP JUMPDEST STOP JUMPDEST PUSH2 0x1B9 PUSH1 0x4 DUP1 CALLDATASIZE SUB DUP2 ADD SWAP1 PUSH2 0x1B4 SWAP2 SWAP1 PUSH2 0x1BBE JUMP JUMPDEST PUSH2 0x63B JUMP JUMPDEST STOP JUMPDEST PUSH2 0x1D5 PUSH1 0x4 DUP1 CALLDATASIZE SUB DUP2 ADD SWAP1 PUSH2 0x1D0 SWAP2 SWAP1 PUSH2 0x1BBE JUMP JUMPDEST PUSH2 0x69B JUMP JUMPDEST STOP JUMPDEST PUSH2 0x1F1 PUSH1 0x4 DUP1 CALLDATASIZE SUB DUP2 ADD SWAP1 PUSH2 0x1EC SWAP2 SWAP1 PUSH2 0x1DE1 JUMP JUMPDEST PUSH2 0x6BB JUMP JUMPDEST PUSH1 0x40 MLOAD PUSH2 0x1FE SWAP2 SWAP1 PUSH2 0x207F JUMP JUMPDEST PUSH1 0x40 MLOAD DUP1 SWAP2 SUB SWAP1 RETURN JUMPDEST PUSH2 0x221 PUSH1 0x4 DUP1 CALLDATASIZE SUB DUP2 ADD SWAP1 PUSH2 0x21C SWAP2 SWAP1 PUSH2 0x1DE1 JUMP JUMPDEST PUSH2 0x76D JUMP JUMPDEST PUSH1 0x40 MLOAD PUSH2 0x22E SWAP2 SWAP1 PUSH2 0x207F JUMP JUMPDEST PUSH1 0x40 MLOAD DUP1 SWAP2 SUB SWAP1 RETURN JUMPDEST PUSH2 0x251 PUSH1 0x4 DUP1 CALLDATASIZE SUB DUP2 ADD SWAP1 PUSH2 0x24C SWAP2 SWAP1 PUSH2 0x1B59 JUMP JUMPDEST PUSH2 0x81F JUMP JUMPDEST PUSH1 0x40 MLOAD PUSH2 0x25E SWAP2 SWAP1 PUSH2 0x2283 JUMP JUMPDEST PUSH1 0x40 MLOAD DUP1 SWAP2 SUB SWAP1 RETURN JUMPDEST PUSH2 0x281 PUSH1 0x4 DUP1 CALLDATASIZE SUB DUP2 ADD SWAP1 PUSH2 0x27C SWAP2 SWAP1 PUSH2 0x1C88 JUMP JUMPDEST PUSH2 0x8D7 JUMP JUMPDEST STOP JUMPDEST PUSH2 0x28B PUSH2 0x8F4 JUMP JUMPDEST PUSH1 0x40 MLOAD PUSH2 0x298 SWAP2 SWAP1 PUSH2 0x2101 JUMP JUMPDEST PUSH1 0x40 MLOAD DUP1 SWAP2 SUB SWAP1 RETURN JUMPDEST PUSH2 0x2BB PUSH1 0x4 DUP1 CALLDATASIZE SUB DUP2 ADD SWAP1 PUSH2 0x2B6 SWAP2 SWAP1 PUSH2 0x1D17 JUMP JUMPDEST PUSH2 0x986 JUMP JUMPDEST STOP JUMPDEST PUSH2 0x2D7 PUSH1 0x4 DUP1 CALLDATASIZE SUB DUP2 ADD SWAP1 PUSH2 0x2D2 SWAP2 SWAP1 PUSH2 0x1C0D JUMP JUMPDEST PUSH2 0x99C JUMP JUMPDEST STOP JUMPDEST PUSH2 0x2F3 PUSH1 0x4 DUP1 CALLDATASIZE SUB DUP2 ADD SWAP1 PUSH2 0x2EE SWAP2 SWAP1 PUSH2 0x1DE1 JUMP JUMPDEST PUSH2 0x9FE JUMP JUMPDEST PUSH1 0x40 MLOAD PUSH2 0x300 SWAP2 SWAP1 PUSH2 0x2101 JUMP JUMPDEST PUSH1 0x40 MLOAD DUP1 SWAP2 SUB SWAP1 RETURN JUMPDEST PUSH2 0x323 PUSH1 0x4 DUP1 CALLDATASIZE SUB DUP2 ADD SWAP1 PUSH2 0x31E SWAP2 SWAP1 PUSH2 0x1B82 JUMP JUMPDEST PUSH2 0xA66 JUMP JUMPDEST PUSH1 0x40 MLOAD PUSH2 0x330 SWAP2 SWAP1 PUSH2 0x20E6 JUMP JUMPDEST PUSH1 0x40 MLOAD DUP1 SWAP2 SUB SWAP1 RETURN JUMPDEST PUSH2 0x353 PUSH1 0x4 DUP1 CALLDATASIZE SUB DUP2 ADD SWAP1 PUSH2 0x34E SWAP2 SWAP1 PUSH2 0x1DE1 JUMP JUMPDEST PUSH2 0xAFA JUMP JUMPDEST PUSH1 0x40 MLOAD PUSH2 0x360 SWAP2 SWAP1 PUSH2 0x2283 JUMP JUMPDEST PUSH1 0x40 MLOAD DUP1 SWAP2 SUB SWAP1 RETURN JUMPDEST PUSH1 0x0 PUSH32 0x80AC58CD00000000000000000000000000000000000000000000000000000000 PUSH28 0xFFFFFFFFFFFFFFFFFFFFFFFFFFFFFFFFFFFFFFFFFFFFFFFFFFFFFFFF NOT AND DUP3 PUSH28 0xFFFFFFFFFFFFFFFFFFFFFFFFFFFFFFFFFFFFFFFFFFFFFFFFFFFFFFFF NOT AND EQ DUP1 PUSH2 0x434 JUMPI POP PUSH32 0x5B5E139F00000000000000000000000000000000000000000000000000000000 PUSH28 0xFFFFFFFFFFFFFFFFFFFFFFFFFFFFFFFFFFFFFFFFFFFFFFFFFFFFFFFF NOT AND DUP3 PUSH28 0xFFFFFFFFFFFFFFFFFFFFFFFFFFFFFFFFFFFFFFFFFFFFFFFFFFFFFFFF NOT AND EQ JUMPDEST DUP1 PUSH2 0x444 JUMPI POP PUSH2 0x443 DUP3 PUSH2 0xB1C JUMP JUMPDEST JUMPDEST SWAP1 POP SWAP2 SWAP1 POP JUMP JUMPDEST PUSH1 0x60 PUSH1 0x0 DUP1 SLOAD PUSH2 0x45A SWAP1 PUSH2 0x24D9 JUMP JUMPDEST DUP1 PUSH1 0x1F ADD PUSH1 0x20 DUP1 SWAP2 DIV MUL PUSH1 0x20 ADD PUSH1 0x40 MLOAD SWAP1 DUP2 ADD PUSH1 0x40 MSTORE DUP1 SWAP3 SWAP2 SWAP1 DUP2 DUP2 MSTORE PUSH1 0x20 ADD DUP3 DUP1 SLOAD PUSH2 0x486 SWAP1 PUSH2 0x24D9 JUMP JUMPDEST DUP1 ISZERO PUSH2 0x4D3 JUMPI DUP1 PUSH1 0x1F LT PUSH2 0x4A8 JUMPI PUSH2 0x100 DUP1 DUP4 SLOAD DIV MUL DUP4 MSTORE SWAP2 PUSH1 0x20 ADD SWAP2 PUSH2 0x4D3 JUMP JUMPDEST DUP3 ADD SWAP2 SWAP1 PUSH1 0x0 MSTORE PUSH1 0x20 PUSH1 0x0 KECCAK256 SWAP1 JUMPDEST DUP2 SLOAD DUP2 MSTORE SWAP1 PUSH1 0x1 ADD SWAP1 PUSH1 0x20 ADD DUP1 DUP4 GT PUSH2 0x4B6 JUMPI DUP3 SWAP1 SUB PUSH1 0x1F AND DUP3 ADD SWAP2 JUMPDEST POP POP POP POP POP SWAP1 POP SWAP1 JUMP JUMPDEST PUSH1 0x0 PUSH2 0x4E8 DUP3 PUSH2 0xB86 JUMP JUMPDEST PUSH1 0x6 PUSH1 0x0 DUP4 DUP2 MSTORE PUSH1 0x20 ADD SWAP1 DUP2 MSTORE PUSH1 0x20 ADD PUSH1 0x0 KECCAK256 PUSH1 0x0 SWAP1 SLOAD SWAP1 PUSH2 0x100 EXP SWAP1 DIV PUSH20 0xFFFFFFFFFFFFFFFFFFFFFFFFFFFFFFFFFFFFFFFF AND SWAP1 POP SWAP2 SWAP1 POP JUMP JUMPDEST PUSH1 0x0 PUSH2 0x52E DUP3 PUSH2 0x76D JUMP JUMPDEST SWAP1 POP DUP1 PUSH20 0xFFFFFFFFFFFFFFFFFFFFFFFFFFFFFFFFFFFFFFFF AND DUP4 PUSH20 0xFFFFFFFFFFFFFFFFFFFFFFFFFFFFFFFFFFFFFFFF AND EQ ISZERO PUSH2 0x59F JUMPI PUSH1 0x40 MLOAD PUSH32 0x8C379A000000000000000000000000000000000000000000000000000000000 DUP2 MSTORE PUSH1 0x4 ADD PUSH2 0x596 SWAP1 PUSH2 0x2243 JUMP JUMPDEST PUSH1 0x40 MLOAD DUP1 SWAP2 SUB SWAP1 REVERT JUMPDEST DUP1 PUSH20 0xFFFFFFFFFFFFFFFFFFFFFFFFFFFFFFFFFFFFFFFF AND PUSH2 0x5BE PUSH2 0xBD1 JUMP JUMPDEST PUSH20 0xFFFFFFFFFFFFFFFFFFFFFFFFFFFFFFFFFFFFFFFF AND EQ DUP1 PUSH2 0x5ED JUMPI POP PUSH2 0x5EC DUP2 PUSH2 0x5E7 PUSH2 0xBD1 JUMP JUMPDEST PUSH2 0xA66 JUMP JUMPDEST JUMPDEST PUSH2 0x62C JUMPI PUSH1 0x40 MLOAD PUSH32 0x8C379A000000000000000000000000000000000000000000000000000000000 DUP2 MSTORE PUSH1 0x4 ADD PUSH2 0x623 SWAP1 PUSH2 0x2263 JUMP JUMPDEST PUSH1 0x40 MLOAD DUP1 SWAP2 SUB SWAP1 REVERT JUMPDEST PUSH2 0x636 DUP4 DUP4 PUSH2 0xBD9 JUMP JUMPDEST POP POP POP JUMP JUMPDEST PUSH2 0x64C PUSH2 0x646 PUSH2 0xBD1 JUMP JUMPDEST DUP3 PUSH2 0xC92 JUMP JUMPDEST PUSH2 0x68B JUMPI PUSH1 0x40 MLOAD PUSH32 0x8C379A000000000000000000000000000000000000000000000000000000000 DUP2 MSTORE PUSH1 0x4 ADD PUSH2 0x682 SWAP1 PUSH2 0x2123 JUMP JUMPDEST PUSH1 0x40 MLOAD DUP1 SWAP2 SUB SWAP1 REVERT JUMPDEST PUSH2 0x696 DUP4 DUP4 DUP4 PUSH2 0xD27 JUMP JUMPDEST POP POP POP JUMP JUMPDEST PUSH2 0x6B6 DUP4 DUP4 DUP4 PUSH1 0x40 MLOAD DUP1 PUSH1 0x20 ADD PUSH1 0x40 MSTORE DUP1 PUSH1 0x0 DUP2 MSTORE POP PUSH2 0x99C JUMP JUMPDEST POP POP POP JUMP JUMPDEST PUSH1 0x0 DUP1 PUSH1 0x3 PUSH1 0x0 DUP5 DUP2 MSTORE PUSH1 0x20 ADD SWAP1 DUP2 MSTORE PUSH1 0x20 ADD PUSH1 0x0 KECCAK256 PUSH1 0x0 SWAP1 SLOAD SWAP1 PUSH2 0x100 EXP SWAP1 DIV PUSH20 0xFFFFFFFFFFFFFFFFFFFFFFFFFFFFFFFFFFFFFFFF AND SWAP1 POP PUSH1 0x0 PUSH20 0xFFFFFFFFFFFFFFFFFFFFFFFFFFFFFFFFFFFFFFFF AND DUP2 PUSH20 0xFFFFFFFFFFFFFFFFFFFFFFFFFFFFFFFFFFFFFFFF AND EQ ISZERO PUSH2 0x764 JUMPI PUSH1 0x40 MLOAD PUSH32 0x8C379A000000000000000000000000000000000000000000000000000000000 DUP2 MSTORE PUSH1 0x4 ADD PUSH2 0x75B SWAP1 PUSH2 0x2223 JUMP JUMPDEST PUSH1 0x40 MLOAD DUP1 SWAP2 SUB SWAP1 REVERT JUMPDEST DUP1 SWAP2 POP POP SWAP2 SWAP1 POP JUMP JUMPDEST PUSH1 0x0 DUP1 PUSH1 0x2 PUSH1 0x0 DUP5 DUP2 MSTORE PUSH1 0x20 ADD SWAP1 DUP2 MSTORE PUSH1 0x20 ADD PUSH1 0x0 KECCAK256 PUSH1 0x0 SWAP1 SLOAD SWAP1 PUSH2 0x100 EXP SWAP1 DIV PUSH20 0xFFFFFFFFFFFFFFFFFFFFFFFFFFFFFFFFFFFFFFFF AND SWAP1 POP PUSH1 0x0 PUSH20 0xFFFFFFFFFFFFFFFFFFFFFFFFFFFFFFFFFFFFFFFF AND DUP2 PUSH20 0xFFFFFFFFFFFFFFFFFFFFFFFFFFFFFFFFFFFFFFFF AND EQ ISZERO PUSH2 0x816 JUMPI PUSH1 0x40 MLOAD PUSH32 0x8C379A000000000000000000000000000000000000000000000000000000000 DUP2 MSTORE PUSH1 0x4 ADD PUSH2 0x80D SWAP1 PUSH2 0x2223 JUMP JUMPDEST PUSH1 0x40 MLOAD DUP1 SWAP2 SUB SWAP1 REVERT JUMPDEST DUP1 SWAP2 POP POP SWAP2 SWAP1 POP JUMP JUMPDEST PUSH1 0x0 DUP1 PUSH20 0xFFFFFFFFFFFFFFFFFFFFFFFFFFFFFFFFFFFFFFFF AND DUP3 PUSH20 0xFFFFFFFFFFFFFFFFFFFFFFFFFFFFFFFFFFFFFFFF AND EQ ISZERO PUSH2 0x890 JUMPI PUSH1 0x40 MLOAD PUSH32 0x8C379A000000000000000000000000000000000000000000000000000000000 DUP2 MSTORE PUSH1 0x4 ADD PUSH2 0x887 SWAP1 PUSH2 0x21E3 JUMP JUMPDEST PUSH1 0x40 MLOAD DUP1 SWAP2 SUB SWAP1 REVERT JUMPDEST PUSH1 0x5 PUSH1 0x0 DUP4 PUSH20 0xFFFFFFFFFFFFFFFFFFFFFFFFFFFFFFFFFFFFFFFF AND PUSH20 0xFFFFFFFFFFFFFFFFFFFFFFFFFFFFFFFFFFFFFFFF AND DUP2 MSTORE PUSH1 0x20 ADD SWAP1 DUP2 MSTORE PUSH1 0x20 ADD PUSH1 0x0 KECCAK256 SLOAD SWAP1 POP SWAP2 SWAP1 POP JUMP JUMPDEST PUSH2 0x8E3 DUP6 DUP6 DUP6 DUP6 PUSH2 0x101D JUMP JUMPDEST PUSH2 0x8ED DUP3 DUP3 PUSH2 0x103F JUMP JUMPDEST POP POP POP POP POP JUMP JUMPDEST PUSH1 0x60 PUSH1 0x1 DUP1 SLOAD PUSH2 0x903 SWAP1 PUSH2 0x24D9 JUMP JUMPDEST DUP1 PUSH1 0x1F ADD PUSH1 0x20 DUP1 SWAP2 DIV MUL PUSH1 0x20 ADD PUSH1 0x40 MLOAD SWAP1 DUP2 ADD PUSH1 0x40 MSTORE DUP1 SWAP3 SWAP2 SWAP1 DUP2 DUP2 MSTORE PUSH1 0x20 ADD DUP3 DUP1 SLOAD PUSH2 0x92F SWAP1 PUSH2 0x24D9 JUMP JUMPDEST DUP1 ISZERO PUSH2 0x97C JUMPI DUP1 PUSH1 0x1F LT PUSH2 0x951 JUMPI PUSH2 0x100 DUP1 DUP4 SLOAD DIV MUL DUP4 MSTORE SWAP2 PUSH1 0x20 ADD SWAP2 PUSH2 0x97C JUMP JUMPDEST DUP3 ADD SWAP2 SWAP1 PUSH1 0x0 MSTORE PUSH1 0x20 PUSH1 0x0 KECCAK256 SWAP1 JUMPDEST DUP2 SLOAD DUP2 MSTORE SWAP1 PUSH1 0x1 ADD SWAP1 PUSH1 0x20 ADD DUP1 DUP4 GT PUSH2 0x95F JUMPI DUP3 SWAP1 SUB PUSH1 0x1F AND DUP3 ADD SWAP2 JUMPDEST POP POP POP POP POP SWAP1 POP SWAP1 JUMP JUMPDEST PUSH2 0x998 PUSH2 0x991 PUSH2 0xBD1 JUMP JUMPDEST DUP4 DUP4 PUSH2 0x106B JUMP JUMPDEST POP POP JUMP JUMPDEST PUSH2 0x9AD PUSH2 0x9A7 PUSH2 0xBD1 JUMP JUMPDEST DUP4 PUSH2 0xC92 JUMP JUMPDEST PUSH2 0x9EC JUMPI PUSH1 0x40 MLOAD PUSH32 0x8C379A000000000000000000000000000000000000000000000000000000000 DUP2 MSTORE PUSH1 0x4 ADD PUSH2 0x9E3 SWAP1 PUSH2 0x2123 JUMP JUMPDEST PUSH1 0x40 MLOAD DUP1 SWAP2 SUB SWAP1 REVERT JUMPDEST PUSH2 0x9F8 DUP5 DUP5 DUP5 DUP5 PUSH2 0x11D8 JUMP JUMPDEST POP POP POP POP JUMP JUMPDEST PUSH1 0x60 PUSH2 0xA09 DUP3 PUSH2 0xB86 JUMP JUMPDEST PUSH1 0x0 PUSH2 0xA13 PUSH2 0x1234 JUMP JUMPDEST SWAP1 POP PUSH1 0x0 DUP2 MLOAD GT PUSH2 0xA33 JUMPI PUSH1 0x40 MLOAD DUP1 PUSH1 0x20 ADD PUSH1 0x40 MSTORE DUP1 PUSH1 0x0 DUP2 MSTORE POP PUSH2 0xA5E JUMP JUMPDEST DUP1 PUSH2 0xA3D DUP5 PUSH2 0x124B JUMP JUMPDEST PUSH1 0x40 MLOAD PUSH1 0x20 ADD PUSH2 0xA4E SWAP3 SWAP2 SWAP1 PUSH2 0x205B JUMP JUMPDEST PUSH1 0x40 MLOAD PUSH1 0x20 DUP2 DUP4 SUB SUB DUP2 MSTORE SWAP1 PUSH1 0x40 MSTORE JUMPDEST SWAP2 POP POP SWAP2 SWAP1 POP JUMP JUMPDEST PUSH1 0x0 PUSH1 0x7 PUSH1 0x0 DUP5 PUSH20 0xFFFFFFFFFFFFFFFFFFFFFFFFFFFFFFFFFFFFFFFF AND PUSH20 0xFFFFFFFFFFFFFFFFFFFFFFFFFFFFFFFFFFFFFFFF AND DUP2 MSTORE PUSH1 0x20 ADD SWAP1 DUP2 MSTORE PUSH1 0x20 ADD PUSH1 0x0 KECCAK256 PUSH1 0x0 DUP4 PUSH20 0xFFFFFFFFFFFFFFFFFFFFFFFFFFFFFFFFFFFFFFFF AND PUSH20 0xFFFFFFFFFFFFFFFFFFFFFFFFFFFFFFFFFFFFFFFF AND DUP2 MSTORE PUSH1 0x20 ADD SWAP1 DUP2 MSTORE PUSH1 0x20 ADD PUSH1 0x0 KECCAK256 PUSH1 0x0 SWAP1 SLOAD SWAP1 PUSH2 0x100 EXP SWAP1 DIV PUSH1 0xFF AND SWAP1 POP SWAP3 SWAP2 POP POP JUMP JUMPDEST PUSH1 0x0 DUP1 PUSH1 0x4 PUSH1 0x0 DUP5 DUP2 MSTORE PUSH1 0x20 ADD SWAP1 DUP2 MSTORE PUSH1 0x20 ADD PUSH1 0x0 KECCAK256 SLOAD SWAP1 POP DUP1 SWAP2 POP POP SWAP2 SWAP1 POP JUMP JUMPDEST PUSH1 0x0 PUSH32 0x1FFC9A700000000000000000000000000000000000000000000000000000000 PUSH28 0xFFFFFFFFFFFFFFFFFFFFFFFFFFFFFFFFFFFFFFFFFFFFFFFFFFFFFFFF NOT AND DUP3 PUSH28 0xFFFFFFFFFFFFFFFFFFFFFFFFFFFFFFFFFFFFFFFFFFFFFFFFFFFFFFFF NOT AND EQ SWAP1 POP SWAP2 SWAP1 POP JUMP JUMPDEST PUSH2 0xB8F DUP2 PUSH2 0x13F8 JUMP JUMPDEST PUSH2 0xBCE JUMPI PUSH1 0x40 MLOAD PUSH32 0x8C379A000000000000000000000000000000000000000000000000000000000 DUP2 MSTORE PUSH1 0x4 ADD PUSH2 0xBC5 SWAP1 PUSH2 0x2223 JUMP JUMPDEST PUSH1 0x40 MLOAD DUP1 SWAP2 SUB SWAP1 REVERT JUMPDEST POP JUMP JUMPDEST PUSH1 0x0 CALLER SWAP1 POP SWAP1 JUMP JUMPDEST DUP2 PUSH1 0x6 PUSH1 0x0 DUP4 DUP2 MSTORE PUSH1 0x20 ADD SWAP1 DUP2 MSTORE PUSH1 0x20 ADD PUSH1 0x0 KECCAK256 PUSH1 0x0 PUSH2 0x100 EXP DUP2 SLOAD DUP2 PUSH20 0xFFFFFFFFFFFFFFFFFFFFFFFFFFFFFFFFFFFFFFFF MUL NOT AND SWAP1 DUP4 PUSH20 0xFFFFFFFFFFFFFFFFFFFFFFFFFFFFFFFFFFFFFFFF AND MUL OR SWAP1 SSTORE POP DUP1 DUP3 PUSH20 0xFFFFFFFFFFFFFFFFFFFFFFFFFFFFFFFFFFFFFFFF AND PUSH2 0xC4C DUP4 PUSH2 0x76D JUMP JUMPDEST PUSH20 0xFFFFFFFFFFFFFFFFFFFFFFFFFFFFFFFFFFFFFFFF AND PUSH32 0x8C5BE1E5EBEC7D5BD14F71427D1E84F3DD0314C0F7B2291E5B200AC8C7C3B925 PUSH1 0x40 MLOAD PUSH1 0x40 MLOAD DUP1 SWAP2 SUB SWAP1 LOG4 POP POP JUMP JUMPDEST PUSH1 0x0 DUP1 PUSH2 0xC9E DUP4 PUSH2 0x76D JUMP JUMPDEST SWAP1 POP DUP1 PUSH20 0xFFFFFFFFFFFFFFFFFFFFFFFFFFFFFFFFFFFFFFFF AND DUP5 PUSH20 0xFFFFFFFFFFFFFFFFFFFFFFFFFFFFFFFFFFFFFFFF AND EQ DUP1 PUSH2 0xCE0 JUMPI POP PUSH2 0xCDF DUP2 DUP6 PUSH2 0xA66 JUMP JUMPDEST JUMPDEST DUP1 PUSH2 0xD1E JUMPI POP DUP4 PUSH20 0xFFFFFFFFFFFFFFFFFFFFFFFFFFFFFFFFFFFFFFFF AND PUSH2 0xD06 DUP5 PUSH2 0x4DD JUMP JUMPDEST PUSH20 0xFFFFFFFFFFFFFFFFFFFFFFFFFFFFFFFFFFFFFFFF AND EQ JUMPDEST SWAP2 POP POP SWAP3 SWAP2 POP POP JUMP JUMPDEST DUP3 PUSH20 0xFFFFFFFFFFFFFFFFFFFFFFFFFFFFFFFFFFFFFFFF AND PUSH2 0xD47 DUP3 PUSH2 0x76D JUMP JUMPDEST PUSH20 0xFFFFFFFFFFFFFFFFFFFFFFFFFFFFFFFFFFFFFFFF AND EQ PUSH2 0xD9D JUMPI PUSH1 0x40 MLOAD PUSH32 0x8C379A000000000000000000000000000000000000000000000000000000000 DUP2 MSTORE PUSH1 0x4 ADD PUSH2 0xD94 SWAP1 PUSH2 0x2163 JUMP JUMPDEST PUSH1 0x40 MLOAD DUP1 SWAP2 SUB SWAP1 REVERT JUMPDEST PUSH1 0x0 PUSH20 0xFFFFFFFFFFFFFFFFFFFFFFFFFFFFFFFFFFFFFFFF AND DUP3 PUSH20 0xFFFFFFFFFFFFFFFFFFFFFFFFFFFFFFFFFFFFFFFF AND EQ ISZERO PUSH2 0xE0D JUMPI PUSH1 0x40 MLOAD PUSH32 0x8C379A000000000000000000000000000000000000000000000000000000000 DUP2 MSTORE PUSH1 0x4 ADD PUSH2 0xE04 SWAP1 PUSH2 0x21A3 JUMP JUMPDEST PUSH1 0x40 MLOAD DUP1 SWAP2 SUB SWAP1 REVERT JUMPDEST PUSH2 0xE18 DUP4 DUP4 DUP4 PUSH2 0x1464 JUMP JUMPDEST DUP3 PUSH20 0xFFFFFFFFFFFFFFFFFFFFFFFFFFFFFFFFFFFFFFFF AND PUSH2 0xE38 DUP3 PUSH2 0x76D JUMP JUMPDEST PUSH20 0xFFFFFFFFFFFFFFFFFFFFFFFFFFFFFFFFFFFFFFFF AND EQ PUSH2 0xE8E JUMPI PUSH1 0x40 MLOAD PUSH32 0x8C379A000000000000000000000000000000000000000000000000000000000 DUP2 MSTORE PUSH1 0x4 ADD PUSH2 0xE85 SWAP1 PUSH2 0x2163 JUMP JUMPDEST PUSH1 0x40 MLOAD DUP1 SWAP2 SUB SWAP1 REVERT JUMPDEST PUSH1 0x6 PUSH1 0x0 DUP3 DUP2 MSTORE PUSH1 0x20 ADD SWAP1 DUP2 MSTORE PUSH1 0x20 ADD PUSH1 0x0 KECCAK256 PUSH1 0x0 PUSH2 0x100 EXP DUP2 SLOAD SWAP1 PUSH20 0xFFFFFFFFFFFFFFFFFFFFFFFFFFFFFFFFFFFFFFFF MUL NOT AND SWAP1 SSTORE PUSH1 0x1 PUSH1 0x5 PUSH1 0x0 DUP6 PUSH20 0xFFFFFFFFFFFFFFFFFFFFFFFFFFFFFFFFFFFFFFFF AND PUSH20 0xFFFFFFFFFFFFFFFFFFFFFFFFFFFFFFFFFFFFFFFF AND DUP2 MSTORE PUSH1 0x20 ADD SWAP1 DUP2 MSTORE PUSH1 0x20 ADD PUSH1 0x0 KECCAK256 PUSH1 0x0 DUP3 DUP3 SLOAD SUB SWAP3 POP POP DUP2 SWAP1 SSTORE POP PUSH1 0x1 PUSH1 0x5 PUSH1 0x0 DUP5 PUSH20 0xFFFFFFFFFFFFFFFFFFFFFFFFFFFFFFFFFFFFFFFF AND PUSH20 0xFFFFFFFFFFFFFFFFFFFFFFFFFFFFFFFFFFFFFFFF AND DUP2 MSTORE PUSH1 0x20 ADD SWAP1 DUP2 MSTORE PUSH1 0x20 ADD PUSH1 0x0 KECCAK256 PUSH1 0x0 DUP3 DUP3 SLOAD ADD SWAP3 POP POP DUP2 SWAP1 SSTORE POP DUP2 PUSH1 0x2 PUSH1 0x0 DUP4 DUP2 MSTORE PUSH1 0x20 ADD SWAP1 DUP2 MSTORE PUSH1 0x20 ADD PUSH1 0x0 KECCAK256 PUSH1 0x0 PUSH2 0x100 EXP DUP2 SLOAD DUP2 PUSH20 0xFFFFFFFFFFFFFFFFFFFFFFFFFFFFFFFFFFFFFFFF MUL NOT AND SWAP1 DUP4 PUSH20 0xFFFFFFFFFFFFFFFFFFFFFFFFFFFFFFFFFFFFFFFF AND MUL OR SWAP1 SSTORE POP DUP1 DUP3 PUSH20 0xFFFFFFFFFFFFFFFFFFFFFFFFFFFFFFFFFFFFFFFF AND DUP5 PUSH20 0xFFFFFFFFFFFFFFFFFFFFFFFFFFFFFFFFFFFFFFFF AND PUSH32 0xDDF252AD1BE2C89B69C2B068FC378DAA952BA7F163C4A11628F55A4DF523B3EF PUSH1 0x40 MLOAD PUSH1 0x40 MLOAD DUP1 SWAP2 SUB SWAP1 LOG4 PUSH2 0x1018 DUP4 DUP4 DUP4 PUSH2 0x1469 JUMP JUMPDEST POP POP POP JUMP JUMPDEST PUSH2 0x1039 DUP5 DUP5 DUP5 DUP5 PUSH1 0x40 MLOAD DUP1 PUSH1 0x20 ADD PUSH1 0x40 MSTORE DUP1 PUSH1 0x0 DUP2 MSTORE POP PUSH2 0x146E JUMP JUMPDEST POP POP POP POP JUMP JUMPDEST DUP1 PUSH1 0x8 PUSH1 0x0 DUP5 DUP2 MSTORE PUSH1 0x20 ADD SWAP1 DUP2 MSTORE PUSH1 0x20 ADD PUSH1 0x0 KECCAK256 SWAP1 DUP1 MLOAD SWAP1 PUSH1 0x20 ADD SWAP1 PUSH2 0x1066 SWAP3 SWAP2 SWAP1 PUSH2 0x197D JUMP JUMPDEST POP POP POP JUMP JUMPDEST DUP2 PUSH20 0xFFFFFFFFFFFFFFFFFFFFFFFFFFFFFFFFFFFFFFFF AND DUP4 PUSH20 0xFFFFFFFFFFFFFFFFFFFFFFFFFFFFFFFFFFFFFFFF AND EQ ISZERO PUSH2 0x10DA JUMPI PUSH1 0x40 MLOAD PUSH32 0x8C379A000000000000000000000000000000000000000000000000000000000 DUP2 MSTORE PUSH1 0x4 ADD PUSH2 0x10D1 SWAP1 PUSH2 0x21C3 JUMP JUMPDEST PUSH1 0x40 MLOAD DUP1 SWAP2 SUB SWAP1 REVERT JUMPDEST DUP1 PUSH1 0x7 PUSH1 0x0 DUP6 PUSH20 0xFFFFFFFFFFFFFFFFFFFFFFFFFFFFFFFFFFFFFFFF AND PUSH20 0xFFFFFFFFFFFFFFFFFFFFFFFFFFFFFFFFFFFFFFFF AND DUP2 MSTORE PUSH1 0x20 ADD SWAP1 DUP2 MSTORE PUSH1 0x20 ADD PUSH1 0x0 KECCAK256 PUSH1 0x0 DUP5 PUSH20 0xFFFFFFFFFFFFFFFFFFFFFFFFFFFFFFFFFFFFFFFF AND PUSH20 0xFFFFFFFFFFFFFFFFFFFFFFFFFFFFFFFFFFFFFFFF AND DUP2 MSTORE PUSH1 0x20 ADD SWAP1 DUP2 MSTORE PUSH1 0x20 ADD PUSH1 0x0 KECCAK256 PUSH1 0x0 PUSH2 0x100 EXP DUP2 SLOAD DUP2 PUSH1 0xFF MUL NOT AND SWAP1 DUP4 ISZERO ISZERO MUL OR SWAP1 SSTORE POP DUP2 PUSH20 0xFFFFFFFFFFFFFFFFFFFFFFFFFFFFFFFFFFFFFFFF AND DUP4 PUSH20 0xFFFFFFFFFFFFFFFFFFFFFFFFFFFFFFFFFFFFFFFF AND PUSH32 0x17307EAB39AB6107E8899845AD3D59BD9653F200F220920489CA2B5937696C31 DUP4 PUSH1 0x40 MLOAD PUSH2 0x11CB SWAP2 SWAP1 PUSH2 0x20E6 JUMP JUMPDEST PUSH1 0x40 MLOAD DUP1 SWAP2 SUB SWAP1 LOG3 POP POP POP JUMP JUMPDEST PUSH2 0x11E3 DUP5 DUP5 DUP5 PUSH2 0xD27 JUMP JUMPDEST PUSH2 0x11EF DUP5 DUP5 DUP5 DUP5 PUSH2 0x14CD JUMP JUMPDEST PUSH2 0x122E JUMPI PUSH1 0x40 MLOAD PUSH32 0x8C379A000000000000000000000000000000000000000000000000000000000 DUP2 MSTORE PUSH1 0x4 ADD PUSH2 0x1225 SWAP1 PUSH2 0x2143 JUMP JUMPDEST PUSH1 0x40 MLOAD DUP1 SWAP2 SUB SWAP1 REVERT JUMPDEST POP POP POP POP JUMP JUMPDEST PUSH1 0x60 PUSH1 0x40 MLOAD DUP1 PUSH1 0x20 ADD PUSH1 0x40 MSTORE DUP1 PUSH1 0x0 DUP2 MSTORE POP SWAP1 POP SWAP1 JUMP JUMPDEST PUSH1 0x60 PUSH1 0x0 DUP3 EQ ISZERO PUSH2 0x1293 JUMPI PUSH1 0x40 MLOAD DUP1 PUSH1 0x40 ADD PUSH1 0x40 MSTORE DUP1 PUSH1 0x1 DUP2 MSTORE PUSH1 0x20 ADD PUSH32 0x3000000000000000000000000000000000000000000000000000000000000000 DUP2 MSTORE POP SWAP1 POP PUSH2 0x13F3 JUMP JUMPDEST PUSH1 0x0 DUP3 SWAP1 POP PUSH1 0x0 JUMPDEST PUSH1 0x0 DUP3 EQ PUSH2 0x12C5 JUMPI DUP1 DUP1 PUSH2 0x12AE SWAP1 PUSH2 0x253C JUMP JUMPDEST SWAP2 POP POP PUSH1 0xA DUP3 PUSH2 0x12BE SWAP2 SWAP1 PUSH2 0x23BE JUMP JUMPDEST SWAP2 POP PUSH2 0x129B JUMP JUMPDEST PUSH1 0x0 DUP2 PUSH8 0xFFFFFFFFFFFFFFFF DUP2 GT ISZERO PUSH2 0x1307 JUMPI PUSH32 0x4E487B7100000000000000000000000000000000000000000000000000000000 PUSH1 0x0 MSTORE PUSH1 0x41 PUSH1 0x4 MSTORE PUSH1 0x24 PUSH1 0x0 REVERT JUMPDEST PUSH1 0x40 MLOAD SWAP1 DUP1 DUP3 MSTORE DUP1 PUSH1 0x1F ADD PUSH1 0x1F NOT AND PUSH1 0x20 ADD DUP3 ADD PUSH1 0x40 MSTORE DUP1 ISZERO PUSH2 0x1339 JUMPI DUP2 PUSH1 0x20 ADD PUSH1 0x1 DUP3 MUL DUP1 CALLDATASIZE DUP4 CALLDATACOPY DUP1 DUP3 ADD SWAP2 POP POP SWAP1 POP JUMPDEST POP SWAP1 POP JUMPDEST PUSH1 0x0 DUP6 EQ PUSH2 0x13EC JUMPI PUSH1 0x1 DUP3 PUSH2 0x1352 SWAP2 SWAP1 PUSH2 0x23EF JUMP JUMPDEST SWAP2 POP PUSH1 0xA DUP6 PUSH2 0x1361 SWAP2 SWAP1 PUSH2 0x2585 JUMP JUMPDEST PUSH1 0x30 PUSH2 0x136D SWAP2 SWAP1 PUSH2 0x2368 JUMP JUMPDEST PUSH1 0xF8 SHL DUP2 DUP4 DUP2 MLOAD DUP2 LT PUSH2 0x13A9 JUMPI PUSH32 0x4E487B7100000000000000000000000000000000000000000000000000000000 PUSH1 0x0 MSTORE PUSH1 0x32 PUSH1 0x4 MSTORE PUSH1 0x24 PUSH1 0x0 REVERT JUMPDEST PUSH1 0x20 ADD ADD SWAP1 PUSH31 0xFFFFFFFFFFFFFFFFFFFFFFFFFFFFFFFFFFFFFFFFFFFFFFFFFFFFFFFFFFFFFF NOT AND SWAP1 DUP2 PUSH1 0x0 BYTE SWAP1 MSTORE8 POP PUSH1 0xA DUP6 PUSH2 0x13E5 SWAP2 SWAP1 PUSH2 0x23BE JUMP JUMPDEST SWAP5 POP PUSH2 0x133D JUMP JUMPDEST DUP1 SWAP4 POP POP POP POP JUMPDEST SWAP2 SWAP1 POP JUMP JUMPDEST PUSH1 0x0 DUP1 PUSH20 0xFFFFFFFFFFFFFFFFFFFFFFFFFFFFFFFFFFFFFFFF AND PUSH1 0x2 PUSH1 0x0 DUP5 DUP2 MSTORE PUSH1 0x20 ADD SWAP1 DUP2 MSTORE PUSH1 0x20 ADD PUSH1 0x0 KECCAK256 PUSH1 0x0 SWAP1 SLOAD SWAP1 PUSH2 0x100 EXP SWAP1 DIV PUSH20 0xFFFFFFFFFFFFFFFFFFFFFFFFFFFFFFFFFFFFFFFF AND PUSH20 0xFFFFFFFFFFFFFFFFFFFFFFFFFFFFFFFFFFFFFFFF AND EQ ISZERO SWAP1 POP SWAP2 SWAP1 POP JUMP JUMPDEST POP POP POP JUMP JUMPDEST POP POP POP JUMP JUMPDEST PUSH2 0x147A DUP6 DUP6 DUP6 DUP6 PUSH2 0x1664 JUMP JUMPDEST PUSH2 0x1487 PUSH1 0x0 DUP7 DUP5 DUP5 PUSH2 0x14CD JUMP JUMPDEST PUSH2 0x14C6 JUMPI PUSH1 0x40 MLOAD PUSH32 0x8C379A000000000000000000000000000000000000000000000000000000000 DUP2 MSTORE PUSH1 0x4 ADD PUSH2 0x14BD SWAP1 PUSH2 0x2143 JUMP JUMPDEST PUSH1 0x40 MLOAD DUP1 SWAP2 SUB SWAP1 REVERT JUMPDEST POP POP POP POP POP JUMP JUMPDEST PUSH1 0x0 PUSH2 0x14EE DUP5 PUSH20 0xFFFFFFFFFFFFFFFFFFFFFFFFFFFFFFFFFFFFFFFF AND PUSH2 0x195A JUMP JUMPDEST ISZERO PUSH2 0x1657 JUMPI DUP4 PUSH20 0xFFFFFFFFFFFFFFFFFFFFFFFFFFFFFFFFFFFFFFFF AND PUSH4 0x150B7A02 PUSH2 0x1517 PUSH2 0xBD1 JUMP JUMPDEST DUP8 DUP7 DUP7 PUSH1 0x40 MLOAD DUP6 PUSH4 0xFFFFFFFF AND PUSH1 0xE0 SHL DUP2 MSTORE PUSH1 0x4 ADD PUSH2 0x1539 SWAP5 SWAP4 SWAP3 SWAP2 SWAP1 PUSH2 0x209A JUMP JUMPDEST PUSH1 0x20 PUSH1 0x40 MLOAD DUP1 DUP4 SUB DUP2 PUSH1 0x0 DUP8 DUP1 EXTCODESIZE ISZERO DUP1 ISZERO PUSH2 0x1553 JUMPI PUSH1 0x0 DUP1 REVERT JUMPDEST POP GAS CALL SWAP3 POP POP POP DUP1 ISZERO PUSH2 0x1584 JUMPI POP PUSH1 0x40 MLOAD RETURNDATASIZE PUSH1 0x1F NOT PUSH1 0x1F DUP3 ADD AND DUP3 ADD DUP1 PUSH1 0x40 MSTORE POP DUP2 ADD SWAP1 PUSH2 0x1581 SWAP2 SWAP1 PUSH2 0x1DB8 JUMP JUMPDEST PUSH1 0x1 JUMPDEST PUSH2 0x1607 JUMPI RETURNDATASIZE DUP1 PUSH1 0x0 DUP2 EQ PUSH2 0x15B4 JUMPI PUSH1 0x40 MLOAD SWAP2 POP PUSH1 0x1F NOT PUSH1 0x3F RETURNDATASIZE ADD AND DUP3 ADD PUSH1 0x40 MSTORE RETURNDATASIZE DUP3 MSTORE RETURNDATASIZE PUSH1 0x0 PUSH1 0x20 DUP5 ADD RETURNDATACOPY PUSH2 0x15B9 JUMP JUMPDEST PUSH1 0x60 SWAP2 POP JUMPDEST POP PUSH1 0x0 DUP2 MLOAD EQ ISZERO PUSH2 0x15FF JUMPI PUSH1 0x40 MLOAD PUSH32 0x8C379A000000000000000000000000000000000000000000000000000000000 DUP2 MSTORE PUSH1 0x4 ADD PUSH2 0x15F6 SWAP1 PUSH2 0x2143 JUMP JUMPDEST PUSH1 0x40 MLOAD DUP1 SWAP2 SUB SWAP1 REVERT JUMPDEST DUP1 MLOAD DUP2 PUSH1 0x20 ADD REVERT JUMPDEST PUSH4 0x150B7A02 PUSH1 0xE0 SHL PUSH28 0xFFFFFFFFFFFFFFFFFFFFFFFFFFFFFFFFFFFFFFFFFFFFFFFFFFFFFFFF NOT AND DUP2 PUSH28 0xFFFFFFFFFFFFFFFFFFFFFFFFFFFFFFFFFFFFFFFFFFFFFFFFFFFFFFFF NOT AND EQ SWAP2 POP POP PUSH2 0x165C JUMP JUMPDEST PUSH1 0x1 SWAP1 POP JUMPDEST SWAP5 SWAP4 POP POP POP POP JUMP JUMPDEST PUSH1 0x0 PUSH20 0xFFFFFFFFFFFFFFFFFFFFFFFFFFFFFFFFFFFFFFFF AND DUP5 PUSH20 0xFFFFFFFFFFFFFFFFFFFFFFFFFFFFFFFFFFFFFFFF AND EQ ISZERO PUSH2 0x16D4 JUMPI PUSH1 0x40 MLOAD PUSH32 0x8C379A000000000000000000000000000000000000000000000000000000000 DUP2 MSTORE PUSH1 0x4 ADD PUSH2 0x16CB SWAP1 PUSH2 0x2203 JUMP JUMPDEST PUSH1 0x40 MLOAD DUP1 SWAP2 SUB SWAP1 REVERT JUMPDEST PUSH1 0x0 PUSH20 0xFFFFFFFFFFFFFFFFFFFFFFFFFFFFFFFFFFFFFFFF AND DUP4 PUSH20 0xFFFFFFFFFFFFFFFFFFFFFFFFFFFFFFFFFFFFFFFF AND EQ ISZERO PUSH2 0x1744 JUMPI PUSH1 0x40 MLOAD PUSH32 0x8C379A000000000000000000000000000000000000000000000000000000000 DUP2 MSTORE PUSH1 0x4 ADD PUSH2 0x173B SWAP1 PUSH2 0x2203 JUMP JUMPDEST PUSH1 0x40 MLOAD DUP1 SWAP2 SUB SWAP1 REVERT JUMPDEST PUSH2 0x174D DUP2 PUSH2 0x13F8 JUMP JUMPDEST ISZERO PUSH2 0x178D JUMPI PUSH1 0x40 MLOAD PUSH32 0x8C379A000000000000000000000000000000000000000000000000000000000 DUP2 MSTORE PUSH1 0x4 ADD PUSH2 0x1784 SWAP1 PUSH2 0x2183 JUMP JUMPDEST PUSH1 0x40 MLOAD DUP1 SWAP2 SUB SWAP1 REVERT JUMPDEST PUSH2 0x1799 PUSH1 0x0 DUP6 DUP4 PUSH2 0x1464 JUMP JUMPDEST PUSH2 0x17A2 DUP2 PUSH2 0x13F8 JUMP JUMPDEST ISZERO PUSH2 0x17E2 JUMPI PUSH1 0x40 MLOAD PUSH32 0x8C379A000000000000000000000000000000000000000000000000000000000 DUP2 MSTORE PUSH1 0x4 ADD PUSH2 0x17D9 SWAP1 PUSH2 0x2183 JUMP JUMPDEST PUSH1 0x40 MLOAD DUP1 SWAP2 SUB SWAP1 REVERT JUMPDEST PUSH1 0x1 PUSH1 0x5 PUSH1 0x0 DUP7 PUSH20 0xFFFFFFFFFFFFFFFFFFFFFFFFFFFFFFFFFFFFFFFF AND PUSH20 0xFFFFFFFFFFFFFFFFFFFFFFFFFFFFFFFFFFFFFFFF AND DUP2 MSTORE PUSH1 0x20 ADD SWAP1 DUP2 MSTORE PUSH1 0x20 ADD PUSH1 0x0 KECCAK256 PUSH1 0x0 DUP3 DUP3 SLOAD ADD SWAP3 POP POP DUP2 SWAP1 SSTORE POP DUP4 PUSH1 0x2 PUSH1 0x0 DUP4 DUP2 MSTORE PUSH1 0x20 ADD SWAP1 DUP2 MSTORE PUSH1 0x20 ADD PUSH1 0x0 KECCAK256 PUSH1 0x0 PUSH2 0x100 EXP DUP2 SLOAD DUP2 PUSH20 0xFFFFFFFFFFFFFFFFFFFFFFFFFFFFFFFFFFFFFFFF MUL NOT AND SWAP1 DUP4 PUSH20 0xFFFFFFFFFFFFFFFFFFFFFFFFFFFFFFFFFFFFFFFF AND MUL OR SWAP1 SSTORE POP DUP3 PUSH1 0x3 PUSH1 0x0 DUP4 DUP2 MSTORE PUSH1 0x20 ADD SWAP1 DUP2 MSTORE PUSH1 0x20 ADD PUSH1 0x0 KECCAK256 PUSH1 0x0 PUSH2 0x100 EXP DUP2 SLOAD DUP2 PUSH20 0xFFFFFFFFFFFFFFFFFFFFFFFFFFFFFFFFFFFFFFFF MUL NOT AND SWAP1 DUP4 PUSH20 0xFFFFFFFFFFFFFFFFFFFFFFFFFFFFFFFFFFFFFFFF AND MUL OR SWAP1 SSTORE POP DUP2 PUSH1 0x4 PUSH1 0x0 DUP4 DUP2 MSTORE PUSH1 0x20 ADD SWAP1 DUP2 MSTORE PUSH1 0x20 ADD PUSH1 0x0 KECCAK256 DUP2 SWAP1 SSTORE POP DUP1 DUP5 PUSH20 0xFFFFFFFFFFFFFFFFFFFFFFFFFFFFFFFFFFFFFFFF AND PUSH1 0x0 PUSH20 0xFFFFFFFFFFFFFFFFFFFFFFFFFFFFFFFFFFFFFFFF AND PUSH32 0xDDF252AD1BE2C89B69C2B068FC378DAA952BA7F163C4A11628F55A4DF523B3EF PUSH1 0x40 MLOAD PUSH1 0x40 MLOAD DUP1 SWAP2 SUB SWAP1 LOG4 PUSH2 0x1954 PUSH1 0x0 DUP6 DUP4 PUSH2 0x1469 JUMP JUMPDEST POP POP POP POP JUMP JUMPDEST PUSH1 0x0 DUP1 DUP3 PUSH20 0xFFFFFFFFFFFFFFFFFFFFFFFFFFFFFFFFFFFFFFFF AND EXTCODESIZE GT SWAP1 POP SWAP2 SWAP1 POP JUMP JUMPDEST DUP3 DUP1 SLOAD PUSH2 0x1989 SWAP1 PUSH2 0x24D9 JUMP JUMPDEST SWAP1 PUSH1 0x0 MSTORE PUSH1 0x20 PUSH1 0x0 KECCAK256 SWAP1 PUSH1 0x1F ADD PUSH1 0x20 SWAP1 DIV DUP2 ADD SWAP3 DUP3 PUSH2 0x19AB JUMPI PUSH1 0x0 DUP6 SSTORE PUSH2 0x19F2 JUMP JUMPDEST DUP3 PUSH1 0x1F LT PUSH2 0x19C4 JUMPI DUP1 MLOAD PUSH1 0xFF NOT AND DUP4 DUP1 ADD OR DUP6 SSTORE PUSH2 0x19F2 JUMP JUMPDEST DUP3 DUP1 ADD PUSH1 0x1 ADD DUP6 SSTORE DUP3 ISZERO PUSH2 0x19F2 JUMPI SWAP2 DUP3 ADD JUMPDEST DUP3 DUP2 GT ISZERO PUSH2 0x19F1 JUMPI DUP3 MLOAD DUP3 SSTORE SWAP2 PUSH1 0x20 ADD SWAP2 SWAP1 PUSH1 0x1 ADD SWAP1 PUSH2 0x19D6 JUMP JUMPDEST JUMPDEST POP SWAP1 POP PUSH2 0x19FF SWAP2 SWAP1 PUSH2 0x1A03 JUMP JUMPDEST POP SWAP1 JUMP JUMPDEST JUMPDEST DUP1 DUP3 GT ISZERO PUSH2 0x1A1C JUMPI PUSH1 0x0 DUP2 PUSH1 0x0 SWAP1 SSTORE POP PUSH1 0x1 ADD PUSH2 0x1A04 JUMP JUMPDEST POP SWAP1 JUMP JUMPDEST PUSH1 0x0 PUSH2 0x1A33 PUSH2 0x1A2E DUP5 PUSH2 0x22C3 JUMP JUMPDEST PUSH2 0x229E JUMP JUMPDEST SWAP1 POP DUP3 DUP2 MSTORE PUSH1 0x20 DUP2 ADD DUP5 DUP5 DUP5 ADD GT ISZERO PUSH2 0x1A4B JUMPI PUSH1 0x0 DUP1 REVERT JUMPDEST PUSH2 0x1A56 DUP5 DUP3 DUP6 PUSH2 0x2497 JUMP JUMPDEST POP SWAP4 SWAP3 POP POP POP JUMP JUMPDEST PUSH1 0x0 PUSH2 0x1A71 PUSH2 0x1A6C DUP5 PUSH2 0x22F4 JUMP JUMPDEST PUSH2 0x229E JUMP JUMPDEST SWAP1 POP DUP3 DUP2 MSTORE PUSH1 0x20 DUP2 ADD DUP5 DUP5 DUP5 ADD GT ISZERO PUSH2 0x1A89 JUMPI PUSH1 0x0 DUP1 REVERT JUMPDEST PUSH2 0x1A94 DUP5 DUP3 DUP6 PUSH2 0x2497 JUMP JUMPDEST POP SWAP4 SWAP3 POP POP POP JUMP JUMPDEST PUSH1 0x0 DUP2 CALLDATALOAD SWAP1 POP PUSH2 0x1AAB DUP2 PUSH2 0x2950 JUMP JUMPDEST SWAP3 SWAP2 POP POP JUMP JUMPDEST PUSH1 0x0 DUP2 CALLDATALOAD SWAP1 POP PUSH2 0x1AC0 DUP2 PUSH2 0x2967 JUMP JUMPDEST SWAP3 SWAP2 POP POP JUMP JUMPDEST PUSH1 0x0 DUP2 CALLDATALOAD SWAP1 POP PUSH2 0x1AD5 DUP2 PUSH2 0x297E JUMP JUMPDEST SWAP3 SWAP2 POP POP JUMP JUMPDEST PUSH1 0x0 DUP2 MLOAD SWAP1 POP PUSH2 0x1AEA DUP2 PUSH2 0x297E JUMP JUMPDEST SWAP3 SWAP2 POP POP JUMP JUMPDEST PUSH1 0x0 DUP3 PUSH1 0x1F DUP4 ADD SLT PUSH2 0x1B01 JUMPI PUSH1 0x0 DUP1 REVERT JUMPDEST DUP2 CALLDATALOAD PUSH2 0x1B11 DUP5 DUP3 PUSH1 0x20 DUP7 ADD PUSH2 0x1A20 JUMP JUMPDEST SWAP2 POP POP SWAP3 SWAP2 POP POP JUMP JUMPDEST PUSH1 0x0 DUP3 PUSH1 0x1F DUP4 ADD SLT PUSH2 0x1B2B JUMPI PUSH1 0x0 DUP1 REVERT JUMPDEST DUP2 CALLDATALOAD PUSH2 0x1B3B DUP5 DUP3 PUSH1 0x20 DUP7 ADD PUSH2 0x1A5E JUMP JUMPDEST SWAP2 POP POP SWAP3 SWAP2 POP POP JUMP JUMPDEST PUSH1 0x0 DUP2 CALLDATALOAD SWAP1 POP PUSH2 0x1B53 DUP2 PUSH2 0x2995 JUMP JUMPDEST SWAP3 SWAP2 POP POP JUMP JUMPDEST PUSH1 0x0 PUSH1 0x20 DUP3 DUP5 SUB SLT ISZERO PUSH2 0x1B6B JUMPI PUSH1 0x0 DUP1 REVERT JUMPDEST PUSH1 0x0 PUSH2 0x1B79 DUP5 DUP3 DUP6 ADD PUSH2 0x1A9C JUMP JUMPDEST SWAP2 POP POP SWAP3 SWAP2 POP POP JUMP JUMPDEST PUSH1 0x0 DUP1 PUSH1 0x40 DUP4 DUP6 SUB SLT ISZERO PUSH2 0x1B95 JUMPI PUSH1 0x0 DUP1 REVERT JUMPDEST PUSH1 0x0 PUSH2 0x1BA3 DUP6 DUP3 DUP7 ADD PUSH2 0x1A9C JUMP JUMPDEST SWAP3 POP POP PUSH1 0x20 PUSH2 0x1BB4 DUP6 DUP3 DUP7 ADD PUSH2 0x1A9C JUMP JUMPDEST SWAP2 POP POP SWAP3 POP SWAP3 SWAP1 POP JUMP JUMPDEST PUSH1 0x0 DUP1 PUSH1 0x0 PUSH1 0x60 DUP5 DUP7 SUB SLT ISZERO PUSH2 0x1BD3 JUMPI PUSH1 0x0 DUP1 REVERT JUMPDEST PUSH1 0x0 PUSH2 0x1BE1 DUP7 DUP3 DUP8 ADD PUSH2 0x1A9C JUMP JUMPDEST SWAP4 POP POP PUSH1 0x20 PUSH2 0x1BF2 DUP7 DUP3 DUP8 ADD PUSH2 0x1A9C JUMP JUMPDEST SWAP3 POP POP PUSH1 0x40 PUSH2 0x1C03 DUP7 DUP3 DUP8 ADD PUSH2 0x1B44 JUMP JUMPDEST SWAP2 POP POP SWAP3 POP SWAP3 POP SWAP3 JUMP JUMPDEST PUSH1 0x0 DUP1 PUSH1 0x0 DUP1 PUSH1 0x80 DUP6 DUP8 SUB SLT ISZERO PUSH2 0x1C23 JUMPI PUSH1 0x0 DUP1 REVERT JUMPDEST PUSH1 0x0 PUSH2 0x1C31 DUP8 DUP3 DUP9 ADD PUSH2 0x1A9C JUMP JUMPDEST SWAP5 POP POP PUSH1 0x20 PUSH2 0x1C42 DUP8 DUP3 DUP9 ADD PUSH2 0x1A9C JUMP JUMPDEST SWAP4 POP POP PUSH1 0x40 PUSH2 0x1C53 DUP8 DUP3 DUP9 ADD PUSH2 0x1B44 JUMP JUMPDEST SWAP3 POP POP PUSH1 0x60 DUP6 ADD CALLDATALOAD PUSH8 0xFFFFFFFFFFFFFFFF DUP2 GT ISZERO PUSH2 0x1C70 JUMPI PUSH1 0x0 DUP1 REVERT JUMPDEST PUSH2 0x1C7C DUP8 DUP3 DUP9 ADD PUSH2 0x1AF0 JUMP JUMPDEST SWAP2 POP POP SWAP3 SWAP6 SWAP2 SWAP5 POP SWAP3 POP JUMP JUMPDEST PUSH1 0x0 DUP1 PUSH1 0x0 DUP1 PUSH1 0x0 PUSH1 0xA0 DUP7 DUP9 SUB SLT ISZERO PUSH2 0x1CA0 JUMPI PUSH1 0x0 DUP1 REVERT JUMPDEST PUSH1 0x0 PUSH2 0x1CAE DUP9 DUP3 DUP10 ADD PUSH2 0x1A9C JUMP JUMPDEST SWAP6 POP POP PUSH1 0x20 PUSH2 0x1CBF DUP9 DUP3 DUP10 ADD PUSH2 0x1A9C JUMP JUMPDEST SWAP5 POP POP PUSH1 0x40 PUSH2 0x1CD0 DUP9 DUP3 DUP10 ADD PUSH2 0x1B44 JUMP JUMPDEST SWAP4 POP POP PUSH1 0x60 PUSH2 0x1CE1 DUP9 DUP3 DUP10 ADD PUSH2 0x1B44 JUMP JUMPDEST SWAP3 POP POP PUSH1 0x80 DUP7 ADD CALLDATALOAD PUSH8 0xFFFFFFFFFFFFFFFF DUP2 GT ISZERO PUSH2 0x1CFE JUMPI PUSH1 0x0 DUP1 REVERT JUMPDEST PUSH2 0x1D0A DUP9 DUP3 DUP10 ADD PUSH2 0x1B1A JUMP JUMPDEST SWAP2 POP POP SWAP3 SWAP6 POP SWAP3 SWAP6 SWAP1 SWAP4 POP JUMP JUMPDEST PUSH1 0x0 DUP1 PUSH1 0x40 DUP4 DUP6 SUB SLT ISZERO PUSH2 0x1D2A JUMPI PUSH1 0x0 DUP1 REVERT JUMPDEST PUSH1 0x0 PUSH2 0x1D38 DUP6 DUP3 DUP7 ADD PUSH2 0x1A9C JUMP JUMPDEST SWAP3 POP POP PUSH1 0x20 PUSH2 0x1D49 DUP6 DUP3 DUP7 ADD PUSH2 0x1AB1 JUMP JUMPDEST SWAP2 POP POP SWAP3 POP SWAP3 SWAP1 POP JUMP JUMPDEST PUSH1 0x0 DUP1 PUSH1 0x40 DUP4 DUP6 SUB SLT ISZERO PUSH2 0x1D66 JUMPI PUSH1 0x0 DUP1 REVERT JUMPDEST PUSH1 0x0 PUSH2 0x1D74 DUP6 DUP3 DUP7 ADD PUSH2 0x1A9C JUMP JUMPDEST SWAP3 POP POP PUSH1 0x20 PUSH2 0x1D85 DUP6 DUP3 DUP7 ADD PUSH2 0x1B44 JUMP JUMPDEST SWAP2 POP POP SWAP3 POP SWAP3 SWAP1 POP JUMP JUMPDEST PUSH1 0x0 PUSH1 0x20 DUP3 DUP5 SUB SLT ISZERO PUSH2 0x1DA1 JUMPI PUSH1 0x0 DUP1 REVERT JUMPDEST PUSH1 0x0 PUSH2 0x1DAF DUP5 DUP3 DUP6 ADD PUSH2 0x1AC6 JUMP JUMPDEST SWAP2 POP POP SWAP3 SWAP2 POP POP JUMP JUMPDEST PUSH1 0x0 PUSH1 0x20 DUP3 DUP5 SUB SLT ISZERO PUSH2 0x1DCA JUMPI PUSH1 0x0 DUP1 REVERT JUMPDEST PUSH1 0x0 PUSH2 0x1DD8 DUP5 DUP3 DUP6 ADD PUSH2 0x1ADB JUMP JUMPDEST SWAP2 POP POP SWAP3 SWAP2 POP POP JUMP JUMPDEST PUSH1 0x0 PUSH1 0x20 DUP3 DUP5 SUB SLT ISZERO PUSH2 0x1DF3 JUMPI PUSH1 0x0 DUP1 REVERT JUMPDEST PUSH1 0x0 PUSH2 0x1E01 DUP5 DUP3 DUP6 ADD PUSH2 0x1B44 JUMP JUMPDEST SWAP2 POP POP SWAP3 SWAP2 POP POP JUMP JUMPDEST PUSH2 0x1E13 DUP2 PUSH2 0x2423 JUMP JUMPDEST DUP3 MSTORE POP POP JUMP JUMPDEST PUSH2 0x1E22 DUP2 PUSH2 0x2435 JUMP JUMPDEST DUP3 MSTORE POP POP JUMP JUMPDEST PUSH1 0x0 PUSH2 0x1E33 DUP3 PUSH2 0x2325 JUMP JUMPDEST PUSH2 0x1E3D DUP2 DUP6 PUSH2 0x233B JUMP JUMPDEST SWAP4 POP PUSH2 0x1E4D DUP2 DUP6 PUSH1 0x20 DUP7 ADD PUSH2 0x24A6 JUMP JUMPDEST PUSH2 0x1E56 DUP2 PUSH2 0x2672 JUMP JUMPDEST DUP5 ADD SWAP2 POP POP SWAP3 SWAP2 POP POP JUMP JUMPDEST PUSH1 0x0 PUSH2 0x1E6C DUP3 PUSH2 0x2330 JUMP JUMPDEST PUSH2 0x1E76 DUP2 DUP6 PUSH2 0x234C JUMP JUMPDEST SWAP4 POP PUSH2 0x1E86 DUP2 DUP6 PUSH1 0x20 DUP7 ADD PUSH2 0x24A6 JUMP JUMPDEST PUSH2 0x1E8F DUP2 PUSH2 0x2672 JUMP JUMPDEST DUP5 ADD SWAP2 POP POP SWAP3 SWAP2 POP POP JUMP JUMPDEST PUSH1 0x0 PUSH2 0x1EA5 DUP3 PUSH2 0x2330 JUMP JUMPDEST PUSH2 0x1EAF DUP2 DUP6 PUSH2 0x235D JUMP JUMPDEST SWAP4 POP PUSH2 0x1EBF DUP2 DUP6 PUSH1 0x20 DUP7 ADD PUSH2 0x24A6 JUMP JUMPDEST DUP1 DUP5 ADD SWAP2 POP POP SWAP3 SWAP2 POP POP JUMP JUMPDEST PUSH1 0x0 PUSH2 0x1ED8 PUSH1 0x2D DUP4 PUSH2 0x234C JUMP JUMPDEST SWAP2 POP PUSH2 0x1EE3 DUP3 PUSH2 0x2683 JUMP JUMPDEST PUSH1 0x40 DUP3 ADD SWAP1 POP SWAP2 SWAP1 POP JUMP JUMPDEST PUSH1 0x0 PUSH2 0x1EFB PUSH1 0x32 DUP4 PUSH2 0x234C JUMP JUMPDEST SWAP2 POP PUSH2 0x1F06 DUP3 PUSH2 0x26D2 JUMP JUMPDEST PUSH1 0x40 DUP3 ADD SWAP1 POP SWAP2 SWAP1 POP JUMP JUMPDEST PUSH1 0x0 PUSH2 0x1F1E PUSH1 0x25 DUP4 PUSH2 0x234C JUMP JUMPDEST SWAP2 POP PUSH2 0x1F29 DUP3 PUSH2 0x2721 JUMP JUMPDEST PUSH1 0x40 DUP3 ADD SWAP1 POP SWAP2 SWAP1 POP JUMP JUMPDEST PUSH1 0x0 PUSH2 0x1F41 PUSH1 0x1C DUP4 PUSH2 0x234C JUMP JUMPDEST SWAP2 POP PUSH2 0x1F4C DUP3 PUSH2 0x2770 JUMP JUMPDEST PUSH1 0x20 DUP3 ADD SWAP1 POP SWAP2 SWAP1 POP JUMP JUMPDEST PUSH1 0x0 PUSH2 0x1F64 PUSH1 0x24 DUP4 PUSH2 0x234C JUMP JUMPDEST SWAP2 POP PUSH2 0x1F6F DUP3 PUSH2 0x2799 JUMP JUMPDEST PUSH1 0x40 DUP3 ADD SWAP1 POP SWAP2 SWAP1 POP JUMP JUMPDEST PUSH1 0x0 PUSH2 0x1F87 PUSH1 0x19 DUP4 PUSH2 0x234C JUMP JUMPDEST SWAP2 POP PUSH2 0x1F92 DUP3 PUSH2 0x27E8 JUMP JUMPDEST PUSH1 0x20 DUP3 ADD SWAP1 POP SWAP2 SWAP1 POP JUMP JUMPDEST PUSH1 0x0 PUSH2 0x1FAA PUSH1 0x29 DUP4 PUSH2 0x234C JUMP JUMPDEST SWAP2 POP PUSH2 0x1FB5 DUP3 PUSH2 0x2811 JUMP JUMPDEST PUSH1 0x40 DUP3 ADD SWAP1 POP SWAP2 SWAP1 POP JUMP JUMPDEST PUSH1 0x0 PUSH2 0x1FCD PUSH1 0x20 DUP4 PUSH2 0x234C JUMP JUMPDEST SWAP2 POP PUSH2 0x1FD8 DUP3 PUSH2 0x2860 JUMP JUMPDEST PUSH1 0x20 DUP3 ADD SWAP1 POP SWAP2 SWAP1 POP JUMP JUMPDEST PUSH1 0x0 PUSH2 0x1FF0 PUSH1 0x18 DUP4 PUSH2 0x234C JUMP JUMPDEST SWAP2 POP PUSH2 0x1FFB DUP3 PUSH2 0x2889 JUMP JUMPDEST PUSH1 0x20 DUP3 ADD SWAP1 POP SWAP2 SWAP1 POP JUMP JUMPDEST PUSH1 0x0 PUSH2 0x2013 PUSH1 0x21 DUP4 PUSH2 0x234C JUMP JUMPDEST SWAP2 POP PUSH2 0x201E DUP3 PUSH2 0x28B2 JUMP JUMPDEST PUSH1 0x40 DUP3 ADD SWAP1 POP SWAP2 SWAP1 POP JUMP JUMPDEST PUSH1 0x0 PUSH2 0x2036 PUSH1 0x3D DUP4 PUSH2 0x234C JUMP JUMPDEST SWAP2 POP PUSH2 0x2041 DUP3 PUSH2 0x2901 JUMP JUMPDEST PUSH1 0x40 DUP3 ADD SWAP1 POP SWAP2 SWAP1 POP JUMP JUMPDEST PUSH2 0x2055 DUP2 PUSH2 0x248D JUMP JUMPDEST DUP3 MSTORE POP POP JUMP JUMPDEST PUSH1 0x0 PUSH2 0x2067 DUP3 DUP6 PUSH2 0x1E9A JUMP JUMPDEST SWAP2 POP PUSH2 0x2073 DUP3 DUP5 PUSH2 0x1E9A JUMP JUMPDEST SWAP2 POP DUP2 SWAP1 POP SWAP4 SWAP3 POP POP POP JUMP JUMPDEST PUSH1 0x0 PUSH1 0x20 DUP3 ADD SWAP1 POP PUSH2 0x2094 PUSH1 0x0 DUP4 ADD DUP5 PUSH2 0x1E0A JUMP JUMPDEST SWAP3 SWAP2 POP POP JUMP JUMPDEST PUSH1 0x0 PUSH1 0x80 DUP3 ADD SWAP1 POP PUSH2 0x20AF PUSH1 0x0 DUP4 ADD DUP8 PUSH2 0x1E0A JUMP JUMPDEST PUSH2 0x20BC PUSH1 0x20 DUP4 ADD DUP7 PUSH2 0x1E0A JUMP JUMPDEST PUSH2 0x20C9 PUSH1 0x40 DUP4 ADD DUP6 PUSH2 0x204C JUMP JUMPDEST DUP2 DUP2 SUB PUSH1 0x60 DUP4 ADD MSTORE PUSH2 0x20DB DUP2 DUP5 PUSH2 0x1E28 JUMP JUMPDEST SWAP1 POP SWAP6 SWAP5 POP POP POP POP POP JUMP JUMPDEST PUSH1 0x0 PUSH1 0x20 DUP3 ADD SWAP1 POP PUSH2 0x20FB PUSH1 0x0 DUP4 ADD DUP5 PUSH2 0x1E19 JUMP JUMPDEST SWAP3 SWAP2 POP POP JUMP JUMPDEST PUSH1 0x0 PUSH1 0x20 DUP3 ADD SWAP1 POP DUP2 DUP2 SUB PUSH1 0x0 DUP4 ADD MSTORE PUSH2 0x211B DUP2 DUP5 PUSH2 0x1E61 JUMP JUMPDEST SWAP1 POP SWAP3 SWAP2 POP POP JUMP JUMPDEST PUSH1 0x0 PUSH1 0x20 DUP3 ADD SWAP1 POP DUP2 DUP2 SUB PUSH1 0x0 DUP4 ADD MSTORE PUSH2 0x213C DUP2 PUSH2 0x1ECB JUMP JUMPDEST SWAP1 POP SWAP2 SWAP1 POP JUMP JUMPDEST PUSH1 0x0 PUSH1 0x20 DUP3 ADD SWAP1 POP DUP2 DUP2 SUB PUSH1 0x0 DUP4 ADD MSTORE PUSH2 0x215C DUP2 PUSH2 0x1EEE JUMP JUMPDEST SWAP1 POP SWAP2 SWAP1 POP JUMP JUMPDEST PUSH1 0x0 PUSH1 0x20 DUP3 ADD SWAP1 POP DUP2 DUP2 SUB PUSH1 0x0 DUP4 ADD MSTORE PUSH2 0x217C DUP2 PUSH2 0x1F11 JUMP JUMPDEST SWAP1 POP SWAP2 SWAP1 POP JUMP JUMPDEST PUSH1 0x0 PUSH1 0x20 DUP3 ADD SWAP1 POP DUP2 DUP2 SUB PUSH1 0x0 DUP4 ADD MSTORE PUSH2 0x219C DUP2 PUSH2 0x1F34 JUMP JUMPDEST SWAP1 POP SWAP2 SWAP1 POP JUMP JUMPDEST PUSH1 0x0 PUSH1 0x20 DUP3 ADD SWAP1 POP DUP2 DUP2 SUB PUSH1 0x0 DUP4 ADD MSTORE PUSH2 0x21BC DUP2 PUSH2 0x1F57 JUMP JUMPDEST SWAP1 POP SWAP2 SWAP1 POP JUMP JUMPDEST PUSH1 0x0 PUSH1 0x20 DUP3 ADD SWAP1 POP DUP2 DUP2 SUB PUSH1 0x0 DUP4 ADD MSTORE PUSH2 0x21DC DUP2 PUSH2 0x1F7A JUMP JUMPDEST SWAP1 POP SWAP2 SWAP1 POP JUMP JUMPDEST PUSH1 0x0 PUSH1 0x20 DUP3 ADD SWAP1 POP DUP2 DUP2 SUB PUSH1 0x0 DUP4 ADD MSTORE PUSH2 0x21FC DUP2 PUSH2 0x1F9D JUMP JUMPDEST SWAP1 POP SWAP2 SWAP1 POP JUMP JUMPDEST PUSH1 0x0 PUSH1 0x20 DUP3 ADD SWAP1 POP DUP2 DUP2 SUB PUSH1 0x0 DUP4 ADD MSTORE PUSH2 0x221C DUP2 PUSH2 0x1FC0 JUMP JUMPDEST SWAP1 POP SWAP2 SWAP1 POP JUMP JUMPDEST PUSH1 0x0 PUSH1 0x20 DUP3 ADD SWAP1 POP DUP2 DUP2 SUB PUSH1 0x0 DUP4 ADD MSTORE PUSH2 0x223C DUP2 PUSH2 0x1FE3 JUMP JUMPDEST SWAP1 POP SWAP2 SWAP1 POP JUMP JUMPDEST PUSH1 0x0 PUSH1 0x20 DUP3 ADD SWAP1 POP DUP2 DUP2 SUB PUSH1 0x0 DUP4 ADD MSTORE PUSH2 0x225C DUP2 PUSH2 0x2006 JUMP JUMPDEST SWAP1 POP SWAP2 SWAP1 POP JUMP JUMPDEST PUSH1 0x0 PUSH1 0x20 DUP3 ADD SWAP1 POP DUP2 DUP2 SUB PUSH1 0x0 DUP4 ADD MSTORE PUSH2 0x227C DUP2 PUSH2 0x2029 JUMP JUMPDEST SWAP1 POP SWAP2 SWAP1 POP JUMP JUMPDEST PUSH1 0x0 PUSH1 0x20 DUP3 ADD SWAP1 POP PUSH2 0x2298 PUSH1 0x0 DUP4 ADD DUP5 PUSH2 0x204C JUMP JUMPDEST SWAP3 SWAP2 POP POP JUMP JUMPDEST PUSH1 0x0 PUSH2 0x22A8 PUSH2 0x22B9 JUMP JUMPDEST SWAP1 POP PUSH2 0x22B4 DUP3 DUP3 PUSH2 0x250B JUMP JUMPDEST SWAP2 SWAP1 POP JUMP JUMPDEST PUSH1 0x0 PUSH1 0x40 MLOAD SWAP1 POP SWAP1 JUMP JUMPDEST PUSH1 0x0 PUSH8 0xFFFFFFFFFFFFFFFF DUP3 GT ISZERO PUSH2 0x22DE JUMPI PUSH2 0x22DD PUSH2 0x2643 JUMP JUMPDEST JUMPDEST PUSH2 0x22E7 DUP3 PUSH2 0x2672 JUMP JUMPDEST SWAP1 POP PUSH1 0x20 DUP2 ADD SWAP1 POP SWAP2 SWAP1 POP JUMP JUMPDEST PUSH1 0x0 PUSH8 0xFFFFFFFFFFFFFFFF DUP3 GT ISZERO PUSH2 0x230F JUMPI PUSH2 0x230E PUSH2 0x2643 JUMP JUMPDEST JUMPDEST PUSH2 0x2318 DUP3 PUSH2 0x2672 JUMP JUMPDEST SWAP1 POP PUSH1 0x20 DUP2 ADD SWAP1 POP SWAP2 SWAP1 POP JUMP JUMPDEST PUSH1 0x0 DUP2 MLOAD SWAP1 POP SWAP2 SWAP1 POP JUMP JUMPDEST PUSH1 0x0 DUP2 MLOAD SWAP1 POP SWAP2 SWAP1 POP JUMP JUMPDEST PUSH1 0x0 DUP3 DUP3 MSTORE PUSH1 0x20 DUP3 ADD SWAP1 POP SWAP3 SWAP2 POP POP JUMP JUMPDEST PUSH1 0x0 DUP3 DUP3 MSTORE PUSH1 0x20 DUP3 ADD SWAP1 POP SWAP3 SWAP2 POP POP JUMP JUMPDEST PUSH1 0x0 DUP2 SWAP1 POP SWAP3 SWAP2 POP POP JUMP JUMPDEST PUSH1 0x0 PUSH2 0x2373 DUP3 PUSH2 0x248D JUMP JUMPDEST SWAP2 POP PUSH2 0x237E DUP4 PUSH2 0x248D JUMP JUMPDEST SWAP3 POP DUP3 PUSH32 0xFFFFFFFFFFFFFFFFFFFFFFFFFFFFFFFFFFFFFFFFFFFFFFFFFFFFFFFFFFFFFFFF SUB DUP3 GT ISZERO PUSH2 0x23B3 JUMPI PUSH2 0x23B2 PUSH2 0x25B6 JUMP JUMPDEST JUMPDEST DUP3 DUP3 ADD SWAP1 POP SWAP3 SWAP2 POP POP JUMP JUMPDEST PUSH1 0x0 PUSH2 0x23C9 DUP3 PUSH2 0x248D JUMP JUMPDEST SWAP2 POP PUSH2 0x23D4 DUP4 PUSH2 0x248D JUMP JUMPDEST SWAP3 POP DUP3 PUSH2 0x23E4 JUMPI PUSH2 0x23E3 PUSH2 0x25E5 JUMP JUMPDEST JUMPDEST DUP3 DUP3 DIV SWAP1 POP SWAP3 SWAP2 POP POP JUMP JUMPDEST PUSH1 0x0 PUSH2 0x23FA DUP3 PUSH2 0x248D JUMP JUMPDEST SWAP2 POP PUSH2 0x2405 DUP4 PUSH2 0x248D JUMP JUMPDEST SWAP3 POP DUP3 DUP3 LT ISZERO PUSH2 0x2418 JUMPI PUSH2 0x2417 PUSH2 0x25B6 JUMP JUMPDEST JUMPDEST DUP3 DUP3 SUB SWAP1 POP SWAP3 SWAP2 POP POP JUMP JUMPDEST PUSH1 0x0 PUSH2 0x242E DUP3 PUSH2 0x246D JUMP JUMPDEST SWAP1 POP SWAP2 SWAP1 POP JUMP JUMPDEST PUSH1 0x0 DUP2 ISZERO ISZERO SWAP1 POP SWAP2 SWAP1 POP JUMP JUMPDEST PUSH1 0x0 PUSH32 0xFFFFFFFF00000000000000000000000000000000000000000000000000000000 DUP3 AND SWAP1 POP SWAP2 SWAP1 POP JUMP JUMPDEST PUSH1 0x0 PUSH20 0xFFFFFFFFFFFFFFFFFFFFFFFFFFFFFFFFFFFFFFFF DUP3 AND SWAP1 POP SWAP2 SWAP1 POP JUMP JUMPDEST PUSH1 0x0 DUP2 SWAP1 POP SWAP2 SWAP1 POP JUMP JUMPDEST DUP3 DUP2 DUP4 CALLDATACOPY PUSH1 0x0 DUP4 DUP4 ADD MSTORE POP POP POP JUMP JUMPDEST PUSH1 0x0 JUMPDEST DUP4 DUP2 LT ISZERO PUSH2 0x24C4 JUMPI DUP1 DUP3 ADD MLOAD DUP2 DUP5 ADD MSTORE PUSH1 0x20 DUP2 ADD SWAP1 POP PUSH2 0x24A9 JUMP JUMPDEST DUP4 DUP2 GT ISZERO PUSH2 0x24D3 JUMPI PUSH1 0x0 DUP5 DUP5 ADD MSTORE JUMPDEST POP POP POP POP JUMP JUMPDEST PUSH1 0x0 PUSH1 0x2 DUP3 DIV SWAP1 POP PUSH1 0x1 DUP3 AND DUP1 PUSH2 0x24F1 JUMPI PUSH1 0x7F DUP3 AND SWAP2 POP JUMPDEST PUSH1 0x20 DUP3 LT DUP2 EQ ISZERO PUSH2 0x2505 JUMPI PUSH2 0x2504 PUSH2 0x2614 JUMP JUMPDEST JUMPDEST POP SWAP2 SWAP1 POP JUMP JUMPDEST PUSH2 0x2514 DUP3 PUSH2 0x2672 JUMP JUMPDEST DUP2 ADD DUP2 DUP2 LT PUSH8 0xFFFFFFFFFFFFFFFF DUP3 GT OR ISZERO PUSH2 0x2533 JUMPI PUSH2 0x2532 PUSH2 0x2643 JUMP JUMPDEST JUMPDEST DUP1 PUSH1 0x40 MSTORE POP POP POP JUMP JUMPDEST PUSH1 0x0 PUSH2 0x2547 DUP3 PUSH2 0x248D JUMP JUMPDEST SWAP2 POP PUSH32 0xFFFFFFFFFFFFFFFFFFFFFFFFFFFFFFFFFFFFFFFFFFFFFFFFFFFFFFFFFFFFFFFF DUP3 EQ ISZERO PUSH2 0x257A JUMPI PUSH2 0x2579 PUSH2 0x25B6 JUMP JUMPDEST JUMPDEST PUSH1 0x1 DUP3 ADD SWAP1 POP SWAP2 SWAP1 POP JUMP JUMPDEST PUSH1 0x0 PUSH2 0x2590 DUP3 PUSH2 0x248D JUMP JUMPDEST SWAP2 POP PUSH2 0x259B DUP4 PUSH2 0x248D JUMP JUMPDEST SWAP3 POP DUP3 PUSH2 0x25AB JUMPI PUSH2 0x25AA PUSH2 0x25E5 JUMP JUMPDEST JUMPDEST DUP3 DUP3 MOD SWAP1 POP SWAP3 SWAP2 POP POP JUMP JUMPDEST PUSH32 0x4E487B7100000000000000000000000000000000000000000000000000000000 PUSH1 0x0 MSTORE PUSH1 0x11 PUSH1 0x4 MSTORE PUSH1 0x24 PUSH1 0x0 REVERT JUMPDEST PUSH32 0x4E487B7100000000000000000000000000000000000000000000000000000000 PUSH1 0x0 MSTORE PUSH1 0x12 PUSH1 0x4 MSTORE PUSH1 0x24 PUSH1 0x0 REVERT JUMPDEST PUSH32 0x4E487B7100000000000000000000000000000000000000000000000000000000 PUSH1 0x0 MSTORE PUSH1 0x22 PUSH1 0x4 MSTORE PUSH1 0x24 PUSH1 0x0 REVERT JUMPDEST PUSH32 0x4E487B7100000000000000000000000000000000000000000000000000000000 PUSH1 0x0 MSTORE PUSH1 0x41 PUSH1 0x4 MSTORE PUSH1 0x24 PUSH1 0x0 REVERT JUMPDEST PUSH1 0x0 PUSH1 0x1F NOT PUSH1 0x1F DUP4 ADD AND SWAP1 POP SWAP2 SWAP1 POP JUMP JUMPDEST PUSH32 0x4552433732313A2063616C6C6572206973206E6F7420746F6B656E206F776E65 PUSH1 0x0 DUP3 ADD MSTORE PUSH32 0x72206F7220617070726F76656400000000000000000000000000000000000000 PUSH1 0x20 DUP3 ADD MSTORE POP JUMP JUMPDEST PUSH32 0x4552433732313A207472616E7366657220746F206E6F6E204552433732315265 PUSH1 0x0 DUP3 ADD MSTORE PUSH32 0x63656976657220696D706C656D656E7465720000000000000000000000000000 PUSH1 0x20 DUP3 ADD MSTORE POP JUMP JUMPDEST PUSH32 0x4552433732313A207472616E736665722066726F6D20696E636F727265637420 PUSH1 0x0 DUP3 ADD MSTORE PUSH32 0x6F776E6572000000000000000000000000000000000000000000000000000000 PUSH1 0x20 DUP3 ADD MSTORE POP JUMP JUMPDEST PUSH32 0x4552433732313A20746F6B656E20616C7265616479206D696E74656400000000 PUSH1 0x0 DUP3 ADD MSTORE POP JUMP JUMPDEST PUSH32 0x4552433732313A207472616E7366657220746F20746865207A65726F20616464 PUSH1 0x0 DUP3 ADD MSTORE PUSH32 0x7265737300000000000000000000000000000000000000000000000000000000 PUSH1 0x20 DUP3 ADD MSTORE POP JUMP JUMPDEST PUSH32 0x4552433732313A20617070726F766520746F2063616C6C657200000000000000 PUSH1 0x0 DUP3 ADD MSTORE POP JUMP JUMPDEST PUSH32 0x4552433732313A2061646472657373207A65726F206973206E6F742061207661 PUSH1 0x0 DUP3 ADD MSTORE PUSH32 0x6C6964206F776E65720000000000000000000000000000000000000000000000 PUSH1 0x20 DUP3 ADD MSTORE POP JUMP JUMPDEST PUSH32 0x4552433732313A206D696E7420746F20746865207A65726F2061646472657373 PUSH1 0x0 DUP3 ADD MSTORE POP JUMP JUMPDEST PUSH32 0x4552433732313A20696E76616C696420746F6B656E2049440000000000000000 PUSH1 0x0 DUP3 ADD MSTORE POP JUMP JUMPDEST PUSH32 0x4552433732313A20617070726F76616C20746F2063757272656E74206F776E65 PUSH1 0x0 DUP3 ADD MSTORE PUSH32 0x7200000000000000000000000000000000000000000000000000000000000000 PUSH1 0x20 DUP3 ADD MSTORE POP JUMP JUMPDEST PUSH32 0x4552433732313A20617070726F76652063616C6C6572206973206E6F7420746F PUSH1 0x0 DUP3 ADD MSTORE PUSH32 0x6B656E206F776E6572206F7220617070726F76656420666F7220616C6C000000 PUSH1 0x20 DUP3 ADD MSTORE POP JUMP JUMPDEST PUSH2 0x2959 DUP2 PUSH2 0x2423 JUMP JUMPDEST DUP2 EQ PUSH2 0x2964 JUMPI PUSH1 0x0 DUP1 REVERT JUMPDEST POP JUMP JUMPDEST PUSH2 0x2970 DUP2 PUSH2 0x2435 JUMP JUMPDEST DUP2 EQ PUSH2 0x297B JUMPI PUSH1 0x0 DUP1 REVERT JUMPDEST POP JUMP JUMPDEST PUSH2 0x2987 DUP2 PUSH2 0x2441 JUMP JUMPDEST DUP2 EQ PUSH2 0x2992 JUMPI PUSH1 0x0 DUP1 REVERT JUMPDEST POP JUMP JUMPDEST PUSH2 0x299E DUP2 PUSH2 0x248D JUMP JUMPDEST DUP2 EQ PUSH2 0x29A9 JUMPI PUSH1 0x0 DUP1 REVERT JUMPDEST POP JUMP INVALID LOG2 PUSH5 0x6970667358 0x22 SLT KECCAK256 0xD6 0xA9 0xE6 0xB3 0x21 0xD2 0xB7 0xEB PUSH3 0x323589 0xDC 0x2D PUSH15 0x846248D87B535989B18BFC5D5D17C0 0xEE 0x4A PUSH5 0x736F6C6343 STOP ADDMOD DIV STOP CALLER "
				},
				"gasEstimates": {
					"creation": {
						"codeDepositCost": "2144400",
						"executionCost": "infinite",
						"totalCost": "infinite"
					},
					"external": {
						"approve(address,uint256)": "infinite",
						"balanceOf(address)": "1602",
						"collaboratotOf(uint256)": "1726",
						"collaboratotPercentageOf(uint256)": "infinite",
						"getApproved(uint256)": "2657",
						"isApprovedForAll(address,address)": "infinite",
						"mint(address,address,uint256,uint256,string)": "infinite",
						"name()": "infinite",
						"ownerOf(uint256)": "1748",
						"safeTransferFrom(address,address,uint256)": "infinite",
						"safeTransferFrom(address,address,uint256,bytes)": "infinite",
						"setApprovalForAll(address,bool)": "infinite",
						"supportsInterface(bytes4)": "797",
						"symbol()": "infinite",
						"tokenURI(uint256)": "2102",
						"transferFrom(address,address,uint256)": "infinite"
					},
					"internal": {
						"_afterTokenTransfer(address,address,uint256)": "15",
						"_approve(address,uint256)": "infinite",
						"_baseURI()": "infinite",
						"_beforeTokenTransfer(address,address,uint256)": "15",
						"_burn(uint256)": "infinite",
						"_checkOnERC721Received(address,address,uint256,bytes memory)": "infinite",
						"_exists(uint256)": "969",
						"_isApprovedOrOwner(address,uint256)": "infinite",
						"_mint(address,address,uint256,uint256)": "infinite",
						"_requireMinted(uint256)": "infinite",
						"_safeMint(address,address,uint256,uint256)": "infinite",
						"_safeMint(address,address,uint256,uint256,bytes memory)": "infinite",
						"_safeTransfer(address,address,uint256,bytes memory)": "infinite",
						"_setApprovalForAll(address,address,bool)": "infinite",
						"_setTokenURI(uint256,string memory)": "infinite",
						"_transfer(address,address,uint256)": "infinite"
					}
				},
				"methodIdentifiers": {
					"approve(address,uint256)": "095ea7b3",
					"balanceOf(address)": "70a08231",
					"collaboratotOf(uint256)": "52e04825",
					"collaboratotPercentageOf(uint256)": "ee48cda2",
					"getApproved(uint256)": "081812fc",
					"isApprovedForAll(address,address)": "e985e9c5",
					"mint(address,address,uint256,uint256,string)": "7d84b863",
					"name()": "06fdde03",
					"ownerOf(uint256)": "6352211e",
					"safeTransferFrom(address,address,uint256)": "42842e0e",
					"safeTransferFrom(address,address,uint256,bytes)": "b88d4fde",
					"setApprovalForAll(address,bool)": "a22cb465",
					"supportsInterface(bytes4)": "01ffc9a7",
					"symbol()": "95d89b41",
					"tokenURI(uint256)": "c87b56dd",
					"transferFrom(address,address,uint256)": "23b872dd"
				}
			},
			"storageLayout": {
				"storage": [
					{
						"astId": 816,
						"contract": "contracts/nft.sol:nft",
						"label": "_name",
						"offset": 0,
						"slot": "0",
						"type": "t_string_storage"
					},
					{
						"astId": 818,
						"contract": "contracts/nft.sol:nft",
						"label": "_symbol",
						"offset": 0,
						"slot": "1",
						"type": "t_string_storage"
					},
					{
						"astId": 822,
						"contract": "contracts/nft.sol:nft",
						"label": "_owners",
						"offset": 0,
						"slot": "2",
						"type": "t_mapping(t_uint256,t_address)"
					},
					{
						"astId": 826,
						"contract": "contracts/nft.sol:nft",
						"label": "_collaborators",
						"offset": 0,
						"slot": "3",
						"type": "t_mapping(t_uint256,t_address)"
					},
					{
						"astId": 830,
						"contract": "contracts/nft.sol:nft",
						"label": "_collaboratorsPercentage",
						"offset": 0,
						"slot": "4",
						"type": "t_mapping(t_uint256,t_uint256)"
					},
					{
						"astId": 834,
						"contract": "contracts/nft.sol:nft",
						"label": "_balances",
						"offset": 0,
						"slot": "5",
						"type": "t_mapping(t_address,t_uint256)"
					},
					{
						"astId": 838,
						"contract": "contracts/nft.sol:nft",
						"label": "_tokenApprovals",
						"offset": 0,
						"slot": "6",
						"type": "t_mapping(t_uint256,t_address)"
					},
					{
						"astId": 844,
						"contract": "contracts/nft.sol:nft",
						"label": "_operatorApprovals",
						"offset": 0,
						"slot": "7",
						"type": "t_mapping(t_address,t_mapping(t_address,t_bool))"
					},
					{
						"astId": 848,
						"contract": "contracts/nft.sol:nft",
						"label": "_tokenURIs",
						"offset": 0,
						"slot": "8",
						"type": "t_mapping(t_uint256,t_string_storage)"
					}
				],
				"types": {
					"t_address": {
						"encoding": "inplace",
						"label": "address",
						"numberOfBytes": "20"
					},
					"t_bool": {
						"encoding": "inplace",
						"label": "bool",
						"numberOfBytes": "1"
					},
					"t_mapping(t_address,t_bool)": {
						"encoding": "mapping",
						"key": "t_address",
						"label": "mapping(address => bool)",
						"numberOfBytes": "32",
						"value": "t_bool"
					},
					"t_mapping(t_address,t_mapping(t_address,t_bool))": {
						"encoding": "mapping",
						"key": "t_address",
						"label": "mapping(address => mapping(address => bool))",
						"numberOfBytes": "32",
						"value": "t_mapping(t_address,t_bool)"
					},
					"t_mapping(t_address,t_uint256)": {
						"encoding": "mapping",
						"key": "t_address",
						"label": "mapping(address => uint256)",
						"numberOfBytes": "32",
						"value": "t_uint256"
					},
					"t_mapping(t_uint256,t_address)": {
						"encoding": "mapping",
						"key": "t_uint256",
						"label": "mapping(uint256 => address)",
						"numberOfBytes": "32",
						"value": "t_address"
					},
					"t_mapping(t_uint256,t_string_storage)": {
						"encoding": "mapping",
						"key": "t_uint256",
						"label": "mapping(uint256 => string)",
						"numberOfBytes": "32",
						"value": "t_string_storage"
					},
					"t_mapping(t_uint256,t_uint256)": {
						"encoding": "mapping",
						"key": "t_uint256",
						"label": "mapping(uint256 => uint256)",
						"numberOfBytes": "32",
						"value": "t_uint256"
					},
					"t_string_storage": {
						"encoding": "bytes",
						"label": "string",
						"numberOfBytes": "32"
					},
					"t_uint256": {
						"encoding": "inplace",
						"label": "uint256",
						"numberOfBytes": "32"
					}
				}
			},
			"userdoc": {
				"kind": "user",
				"methods": {},
				"version": 1
			}
		}
	}
}