{
	"contracts/erc721.sol": {
		"ERC721": {
			"abi": [
				{
					"inputs": [
						{
							"internalType": "string",
							"name": "name_",
							"type": "string"
						},
						{
							"internalType": "string",
							"name": "symbol_",
							"type": "string"
						}
					],
					"stateMutability": "nonpayable",
					"type": "constructor"
				},
				{
					"anonymous": false,
					"inputs": [
						{
							"indexed": true,
							"internalType": "address",
							"name": "owner",
							"type": "address"
						},
						{
							"indexed": true,
							"internalType": "address",
							"name": "approved",
							"type": "address"
						},
						{
							"indexed": true,
							"internalType": "uint256",
							"name": "tokenId",
							"type": "uint256"
						}
					],
					"name": "Approval",
					"type": "event"
				},
				{
					"anonymous": false,
					"inputs": [
						{
							"indexed": true,
							"internalType": "address",
							"name": "owner",
							"type": "address"
						},
						{
							"indexed": true,
							"internalType": "address",
							"name": "operator",
							"type": "address"
						},
						{
							"indexed": false,
							"internalType": "bool",
							"name": "approved",
							"type": "bool"
						}
					],
					"name": "ApprovalForAll",
					"type": "event"
				},
				{
					"anonymous": false,
					"inputs": [
						{
							"indexed": true,
							"internalType": "address",
							"name": "from",
							"type": "address"
						},
						{
							"indexed": true,
							"internalType": "address",
							"name": "to",
							"type": "address"
						},
						{
							"indexed": true,
							"internalType": "uint256",
							"name": "tokenId",
							"type": "uint256"
						}
					],
					"name": "Transfer",
					"type": "event"
				},
				{
					"inputs": [
						{
							"internalType": "address",
							"name": "to",
							"type": "address"
						},
						{
							"internalType": "uint256",
							"name": "tokenId",
							"type": "uint256"
						}
					],
					"name": "approve",
					"outputs": [],
					"stateMutability": "nonpayable",
					"type": "function"
				},
				{
					"inputs": [
						{
							"internalType": "address",
							"name": "owner",
							"type": "address"
						}
					],
					"name": "balanceOf",
					"outputs": [
						{
							"internalType": "uint256",
							"name": "",
							"type": "uint256"
						}
					],
					"stateMutability": "view",
					"type": "function"
				},
				{
					"inputs": [
						{
							"internalType": "uint256",
							"name": "tokenId",
							"type": "uint256"
						}
					],
					"name": "getApproved",
					"outputs": [
						{
							"internalType": "address",
							"name": "",
							"type": "address"
						}
					],
					"stateMutability": "view",
					"type": "function"
				},
				{
					"inputs": [
						{
							"internalType": "address",
							"name": "owner",
							"type": "address"
						},
						{
							"internalType": "address",
							"name": "operator",
							"type": "address"
						}
					],
					"name": "isApprovedForAll",
					"outputs": [
						{
							"internalType": "bool",
							"name": "",
							"type": "bool"
						}
					],
					"stateMutability": "view",
					"type": "function"
				},
				{
					"inputs": [],
					"name": "name",
					"outputs": [
						{
							"internalType": "string",
							"name": "",
							"type": "string"
						}
					],
					"stateMutability": "view",
					"type": "function"
				},
				{
					"inputs": [
						{
							"internalType": "uint256",
							"name": "tokenId",
							"type": "uint256"
						}
					],
					"name": "ownerOf",
					"outputs": [
						{
							"internalType": "address",
							"name": "",
							"type": "address"
						}
					],
					"stateMutability": "view",
					"type": "function"
				},
				{
					"inputs": [
						{
							"internalType": "address",
							"name": "to",
							"type": "address"
						},
						{
							"internalType": "uint256",
							"name": "tokenId",
							"type": "uint256"
						},
						{
							"internalType": "string",
							"name": "uri",
							"type": "string"
						}
					],
					"name": "safeMint",
					"outputs": [],
					"stateMutability": "nonpayable",
					"type": "function"
				},
				{
					"inputs": [
						{
							"internalType": "address",
							"name": "from",
							"type": "address"
						},
						{
							"internalType": "address",
							"name": "to",
							"type": "address"
						},
						{
							"internalType": "uint256",
							"name": "tokenId",
							"type": "uint256"
						}
					],
					"name": "safeTransferFrom",
					"outputs": [],
					"stateMutability": "nonpayable",
					"type": "function"
				},
				{
					"inputs": [
						{
							"internalType": "address",
							"name": "from",
							"type": "address"
						},
						{
							"internalType": "address",
							"name": "to",
							"type": "address"
						},
						{
							"internalType": "uint256",
							"name": "tokenId",
							"type": "uint256"
						},
						{
							"internalType": "bytes",
							"name": "data",
							"type": "bytes"
						}
					],
					"name": "safeTransferFrom",
					"outputs": [],
					"stateMutability": "nonpayable",
					"type": "function"
				},
				{
					"inputs": [
						{
							"internalType": "address",
							"name": "operator",
							"type": "address"
						},
						{
							"internalType": "bool",
							"name": "approved",
							"type": "bool"
						}
					],
					"name": "setApprovalForAll",
					"outputs": [],
					"stateMutability": "nonpayable",
					"type": "function"
				},
				{
					"inputs": [
						{
							"internalType": "bytes4",
							"name": "interfaceId",
							"type": "bytes4"
						}
					],
					"name": "supportsInterface",
					"outputs": [
						{
							"internalType": "bool",
							"name": "",
							"type": "bool"
						}
					],
					"stateMutability": "view",
					"type": "function"
				},
				{
					"inputs": [],
					"name": "symbol",
					"outputs": [
						{
							"internalType": "string",
							"name": "",
							"type": "string"
						}
					],
					"stateMutability": "view",
					"type": "function"
				},
				{
					"inputs": [
						{
							"internalType": "uint256",
							"name": "tokenId",
							"type": "uint256"
						}
					],
					"name": "tokenURI",
					"outputs": [
						{
							"internalType": "string",
							"name": "",
							"type": "string"
						}
					],
					"stateMutability": "view",
					"type": "function"
				},
				{
					"inputs": [
						{
							"internalType": "address",
							"name": "from",
							"type": "address"
						},
						{
							"internalType": "address",
							"name": "to",
							"type": "address"
						},
						{
							"internalType": "uint256",
							"name": "tokenId",
							"type": "uint256"
						}
					],
					"name": "transferFrom",
					"outputs": [],
					"stateMutability": "nonpayable",
					"type": "function"
				}
			],
			"devdoc": {
				"kind": "dev",
				"methods": {
					"approve(address,uint256)": {
						"details": "Gives permission to `to` to transfer `tokenId` token to another account. The approval is cleared when the token is transferred. Only a single account can be approved at a time, so approving the zero address clears previous approvals. Requirements: - The caller must own the token or be an approved operator. - `tokenId` must exist. Emits an {Approval} event."
					},
					"balanceOf(address)": {
						"details": "Returns the number of tokens in ``owner``'s account."
					},
					"getApproved(uint256)": {
						"details": "Returns the account approved for `tokenId` token. Requirements: - `tokenId` must exist."
					},
					"isApprovedForAll(address,address)": {
						"details": "Returns if the `operator` is allowed to manage all of the assets of `owner`. See {setApprovalForAll}"
					},
					"name()": {
						"details": "Returns the token collection name."
					},
					"ownerOf(uint256)": {
						"details": "Returns the owner of the `tokenId` token. Requirements: - `tokenId` must exist."
					},
					"safeTransferFrom(address,address,uint256)": {
						"details": "Safely transfers `tokenId` token from `from` to `to`, checking first that contract recipients are aware of the ERC721 protocol to prevent tokens from being forever locked. Requirements: - `from` cannot be the zero address. - `to` cannot be the zero address. - `tokenId` token must exist and be owned by `from`. - If the caller is not `from`, it must be have been allowed to move this token by either {approve} or {setApprovalForAll}. - If `to` refers to a smart contract, it must implement {IERC721Receiver-onERC721Received}, which is called upon a safe transfer. Emits a {Transfer} event."
					},
					"safeTransferFrom(address,address,uint256,bytes)": {
						"details": "Safely transfers `tokenId` token from `from` to `to`. Requirements: - `from` cannot be the zero address. - `to` cannot be the zero address. - `tokenId` token must exist and be owned by `from`. - If the caller is not `from`, it must be approved to move this token by either {approve} or {setApprovalForAll}. - If `to` refers to a smart contract, it must implement {IERC721Receiver-onERC721Received}, which is called upon a safe transfer. Emits a {Transfer} event."
					},
					"symbol()": {
						"details": "Returns the token collection symbol."
					},
					"tokenURI(uint256)": {
						"details": "Returns the Uniform Resource Identifier (URI) for `tokenId` token."
					},
					"transferFrom(address,address,uint256)": {
						"details": "Transfers `tokenId` token from `from` to `to`. WARNING: Usage of this method is discouraged, use {safeTransferFrom} whenever possible. Requirements: - `from` cannot be the zero address. - `to` cannot be the zero address. - `tokenId` token must be owned by `from`. - If the caller is not `from`, it must be approved to move this token by either {approve} or {setApprovalForAll}. Emits a {Transfer} event."
					}
				},
				"version": 1
			},
			"evm": {
				"assembly": "    /* \"contracts/erc721.sol\":617:9514  contract ERC721 is Context, ERC165, IERC721, IERC721Metadata {\r... */\n  mstore(0x40, 0x80)\n    /* \"contracts/erc721.sol\":1113:1229  constructor(string memory name_, string memory symbol_) {\r... */\n  callvalue\n  dup1\n  iszero\n  tag_1\n  jumpi\n  0x00\n  dup1\n  revert\ntag_1:\n  pop\n  mload(0x40)\n  sub(codesize, bytecodeSize)\n  dup1\n  bytecodeSize\n  dup4\n  codecopy\n  dup2\n  dup2\n  add\n  0x40\n  mstore\n  dup2\n  add\n  swap1\n  tag_2\n  swap2\n  swap1\n  tag_3\n  jump\t// in\ntag_2:\n    /* \"contracts/erc721.sol\":1188:1193  name_ */\n  dup2\n    /* \"contracts/erc721.sol\":1180:1185  _name */\n  0x00\n    /* \"contracts/erc721.sol\":1180:1193  _name = name_ */\n  swap1\n  dup1\n  mload\n  swap1\n  0x20\n  add\n  swap1\n  tag_6\n  swap3\n  swap2\n  swap1\n  tag_7\n  jump\t// in\ntag_6:\n  pop\n    /* \"contracts/erc721.sol\":1214:1221  symbol_ */\n  dup1\n    /* \"contracts/erc721.sol\":1204:1211  _symbol */\n  0x01\n    /* \"contracts/erc721.sol\":1204:1221  _symbol = symbol_ */\n  swap1\n  dup1\n  mload\n  swap1\n  0x20\n  add\n  swap1\n  tag_8\n  swap3\n  swap2\n  swap1\n  tag_7\n  jump\t// in\ntag_8:\n  pop\n    /* \"contracts/erc721.sol\":1113:1229  constructor(string memory name_, string memory symbol_) {\r... */\n  pop\n  pop\n    /* \"contracts/erc721.sol\":617:9514  contract ERC721 is Context, ERC165, IERC721, IERC721Metadata {\r... */\n  jump(tag_9)\ntag_7:\n  dup3\n  dup1\n  sload\n  tag_10\n  swap1\n  tag_11\n  jump\t// in\ntag_10:\n  swap1\n  0x00\n  mstore\n  keccak256(0x00, 0x20)\n  swap1\n  0x1f\n  add\n  0x20\n  swap1\n  div\n  dup2\n  add\n  swap3\n  dup3\n  tag_13\n  jumpi\n  0x00\n  dup6\n  sstore\n  jump(tag_12)\ntag_13:\n  dup3\n  0x1f\n  lt\n  tag_14\n  jumpi\n  dup1\n  mload\n  not(0xff)\n  and\n  dup4\n  dup1\n  add\n  or\n  dup6\n  sstore\n  jump(tag_12)\ntag_14:\n  dup3\n  dup1\n  add\n  0x01\n  add\n  dup6\n  sstore\n  dup3\n  iszero\n  tag_12\n  jumpi\n  swap2\n  dup3\n  add\ntag_15:\n  dup3\n  dup2\n  gt\n  iszero\n  tag_16\n  jumpi\n  dup3\n  mload\n  dup3\n  sstore\n  swap2\n  0x20\n  add\n  swap2\n  swap1\n  0x01\n  add\n  swap1\n  jump(tag_15)\ntag_16:\ntag_12:\n  pop\n  swap1\n  pop\n  tag_17\n  swap2\n  swap1\n  tag_18\n  jump\t// in\ntag_17:\n  pop\n  swap1\n  jump\t// out\ntag_18:\ntag_19:\n  dup1\n  dup3\n  gt\n  iszero\n  tag_20\n  jumpi\n  0x00\n  dup2\n  0x00\n  swap1\n  sstore\n  pop\n  0x01\n  add\n  jump(tag_19)\ntag_20:\n  pop\n  swap1\n  jump\t// out\n    /* \"#utility.yul\":7:361   */\ntag_22:\n    /* \"#utility.yul\":96:101   */\n  0x00\n    /* \"#utility.yul\":121:187   */\n  tag_24\n    /* \"#utility.yul\":137:186   */\n  tag_25\n    /* \"#utility.yul\":179:185   */\n  dup5\n    /* \"#utility.yul\":137:186   */\n  tag_26\n  jump\t// in\ntag_25:\n    /* \"#utility.yul\":121:187   */\n  tag_27\n  jump\t// in\ntag_24:\n    /* \"#utility.yul\":112:187   */\n  swap1\n  pop\n    /* \"#utility.yul\":210:216   */\n  dup3\n    /* \"#utility.yul\":203:208   */\n  dup2\n    /* \"#utility.yul\":196:217   */\n  mstore\n    /* \"#utility.yul\":248:252   */\n  0x20\n    /* \"#utility.yul\":241:246   */\n  dup2\n    /* \"#utility.yul\":237:253   */\n  add\n    /* \"#utility.yul\":286:289   */\n  dup5\n    /* \"#utility.yul\":277:283   */\n  dup5\n    /* \"#utility.yul\":272:275   */\n  dup5\n    /* \"#utility.yul\":268:284   */\n  add\n    /* \"#utility.yul\":265:290   */\n  gt\n    /* \"#utility.yul\":262:264   */\n  iszero\n  tag_28\n  jumpi\n    /* \"#utility.yul\":303:304   */\n  0x00\n    /* \"#utility.yul\":300:301   */\n  dup1\n    /* \"#utility.yul\":293:305   */\n  revert\n    /* \"#utility.yul\":262:264   */\ntag_28:\n    /* \"#utility.yul\":316:355   */\n  tag_29\n    /* \"#utility.yul\":348:354   */\n  dup5\n    /* \"#utility.yul\":343:346   */\n  dup3\n    /* \"#utility.yul\":338:341   */\n  dup6\n    /* \"#utility.yul\":316:355   */\n  tag_30\n  jump\t// in\ntag_29:\n    /* \"#utility.yul\":102:361   */\n  pop\n  swap4\n  swap3\n  pop\n  pop\n  pop\n  jump\t// out\n    /* \"#utility.yul\":381:669   */\ntag_31:\n    /* \"#utility.yul\":448:453   */\n  0x00\n    /* \"#utility.yul\":497:500   */\n  dup3\n    /* \"#utility.yul\":490:494   */\n  0x1f\n    /* \"#utility.yul\":482:488   */\n  dup4\n    /* \"#utility.yul\":478:495   */\n  add\n    /* \"#utility.yul\":474:501   */\n  slt\n    /* \"#utility.yul\":464:466   */\n  tag_33\n  jumpi\n    /* \"#utility.yul\":515:516   */\n  0x00\n    /* \"#utility.yul\":512:513   */\n  dup1\n    /* \"#utility.yul\":505:517   */\n  revert\n    /* \"#utility.yul\":464:466   */\ntag_33:\n    /* \"#utility.yul\":548:554   */\n  dup2\n    /* \"#utility.yul\":542:555   */\n  mload\n    /* \"#utility.yul\":573:663   */\n  tag_34\n    /* \"#utility.yul\":659:662   */\n  dup5\n    /* \"#utility.yul\":651:657   */\n  dup3\n    /* \"#utility.yul\":644:648   */\n  0x20\n    /* \"#utility.yul\":636:642   */\n  dup7\n    /* \"#utility.yul\":632:649   */\n  add\n    /* \"#utility.yul\":573:663   */\n  tag_22\n  jump\t// in\ntag_34:\n    /* \"#utility.yul\":564:663   */\n  swap2\n  pop\n    /* \"#utility.yul\":454:669   */\n  pop\n  swap3\n  swap2\n  pop\n  pop\n  jump\t// out\n    /* \"#utility.yul\":675:1327   */\ntag_3:\n    /* \"#utility.yul\":774:780   */\n  0x00\n    /* \"#utility.yul\":782:788   */\n  dup1\n    /* \"#utility.yul\":831:833   */\n  0x40\n    /* \"#utility.yul\":819:828   */\n  dup4\n    /* \"#utility.yul\":810:817   */\n  dup6\n    /* \"#utility.yul\":806:829   */\n  sub\n    /* \"#utility.yul\":802:834   */\n  slt\n    /* \"#utility.yul\":799:801   */\n  iszero\n  tag_36\n  jumpi\n    /* \"#utility.yul\":847:848   */\n  0x00\n    /* \"#utility.yul\":844:845   */\n  dup1\n    /* \"#utility.yul\":837:849   */\n  revert\n    /* \"#utility.yul\":799:801   */\ntag_36:\n    /* \"#utility.yul\":911:912   */\n  0x00\n    /* \"#utility.yul\":900:909   */\n  dup4\n    /* \"#utility.yul\":896:913   */\n  add\n    /* \"#utility.yul\":890:914   */\n  mload\n    /* \"#utility.yul\":941:959   */\n  0xffffffffffffffff\n    /* \"#utility.yul\":933:939   */\n  dup2\n    /* \"#utility.yul\":930:960   */\n  gt\n    /* \"#utility.yul\":927:929   */\n  iszero\n  tag_37\n  jumpi\n    /* \"#utility.yul\":973:974   */\n  0x00\n    /* \"#utility.yul\":970:971   */\n  dup1\n    /* \"#utility.yul\":963:975   */\n  revert\n    /* \"#utility.yul\":927:929   */\ntag_37:\n    /* \"#utility.yul\":1001:1075   */\n  tag_38\n    /* \"#utility.yul\":1067:1074   */\n  dup6\n    /* \"#utility.yul\":1058:1064   */\n  dup3\n    /* \"#utility.yul\":1047:1056   */\n  dup7\n    /* \"#utility.yul\":1043:1065   */\n  add\n    /* \"#utility.yul\":1001:1075   */\n  tag_31\n  jump\t// in\ntag_38:\n    /* \"#utility.yul\":991:1075   */\n  swap3\n  pop\n    /* \"#utility.yul\":861:1085   */\n  pop\n    /* \"#utility.yul\":1145:1147   */\n  0x20\n    /* \"#utility.yul\":1134:1143   */\n  dup4\n    /* \"#utility.yul\":1130:1148   */\n  add\n    /* \"#utility.yul\":1124:1149   */\n  mload\n    /* \"#utility.yul\":1176:1194   */\n  0xffffffffffffffff\n    /* \"#utility.yul\":1168:1174   */\n  dup2\n    /* \"#utility.yul\":1165:1195   */\n  gt\n    /* \"#utility.yul\":1162:1164   */\n  iszero\n  tag_39\n  jumpi\n    /* \"#utility.yul\":1208:1209   */\n  0x00\n    /* \"#utility.yul\":1205:1206   */\n  dup1\n    /* \"#utility.yul\":1198:1210   */\n  revert\n    /* \"#utility.yul\":1162:1164   */\ntag_39:\n    /* \"#utility.yul\":1236:1310   */\n  tag_40\n    /* \"#utility.yul\":1302:1309   */\n  dup6\n    /* \"#utility.yul\":1293:1299   */\n  dup3\n    /* \"#utility.yul\":1282:1291   */\n  dup7\n    /* \"#utility.yul\":1278:1300   */\n  add\n    /* \"#utility.yul\":1236:1310   */\n  tag_31\n  jump\t// in\ntag_40:\n    /* \"#utility.yul\":1226:1310   */\n  swap2\n  pop\n    /* \"#utility.yul\":1095:1320   */\n  pop\n    /* \"#utility.yul\":789:1327   */\n  swap3\n  pop\n  swap3\n  swap1\n  pop\n  jump\t// out\n    /* \"#utility.yul\":1333:1462   */\ntag_27:\n    /* \"#utility.yul\":1367:1373   */\n  0x00\n    /* \"#utility.yul\":1394:1414   */\n  tag_42\n  tag_43\n  jump\t// in\ntag_42:\n    /* \"#utility.yul\":1384:1414   */\n  swap1\n  pop\n    /* \"#utility.yul\":1423:1456   */\n  tag_44\n    /* \"#utility.yul\":1451:1455   */\n  dup3\n    /* \"#utility.yul\":1443:1449   */\n  dup3\n    /* \"#utility.yul\":1423:1456   */\n  tag_45\n  jump\t// in\ntag_44:\n    /* \"#utility.yul\":1374:1462   */\n  swap2\n  swap1\n  pop\n  jump\t// out\n    /* \"#utility.yul\":1468:1543   */\ntag_43:\n    /* \"#utility.yul\":1501:1507   */\n  0x00\n    /* \"#utility.yul\":1534:1536   */\n  0x40\n    /* \"#utility.yul\":1528:1537   */\n  mload\n    /* \"#utility.yul\":1518:1537   */\n  swap1\n  pop\n    /* \"#utility.yul\":1508:1543   */\n  swap1\n  jump\t// out\n    /* \"#utility.yul\":1549:1857   */\ntag_26:\n    /* \"#utility.yul\":1611:1615   */\n  0x00\n    /* \"#utility.yul\":1701:1719   */\n  0xffffffffffffffff\n    /* \"#utility.yul\":1693:1699   */\n  dup3\n    /* \"#utility.yul\":1690:1720   */\n  gt\n    /* \"#utility.yul\":1687:1689   */\n  iszero\n  tag_48\n  jumpi\n    /* \"#utility.yul\":1723:1741   */\n  tag_49\n  tag_50\n  jump\t// in\ntag_49:\n    /* \"#utility.yul\":1687:1689   */\ntag_48:\n    /* \"#utility.yul\":1761:1790   */\n  tag_51\n    /* \"#utility.yul\":1783:1789   */\n  dup3\n    /* \"#utility.yul\":1761:1790   */\n  tag_52\n  jump\t// in\ntag_51:\n    /* \"#utility.yul\":1753:1790   */\n  swap1\n  pop\n    /* \"#utility.yul\":1845:1849   */\n  0x20\n    /* \"#utility.yul\":1839:1843   */\n  dup2\n    /* \"#utility.yul\":1835:1850   */\n  add\n    /* \"#utility.yul\":1827:1850   */\n  swap1\n  pop\n    /* \"#utility.yul\":1616:1857   */\n  swap2\n  swap1\n  pop\n  jump\t// out\n    /* \"#utility.yul\":1863:2170   */\ntag_30:\n    /* \"#utility.yul\":1931:1932   */\n  0x00\n    /* \"#utility.yul\":1941:2054   */\ntag_54:\n    /* \"#utility.yul\":1955:1961   */\n  dup4\n    /* \"#utility.yul\":1952:1953   */\n  dup2\n    /* \"#utility.yul\":1949:1962   */\n  lt\n    /* \"#utility.yul\":1941:2054   */\n  iszero\n  tag_56\n  jumpi\n    /* \"#utility.yul\":2040:2041   */\n  dup1\n    /* \"#utility.yul\":2035:2038   */\n  dup3\n    /* \"#utility.yul\":2031:2042   */\n  add\n    /* \"#utility.yul\":2025:2043   */\n  mload\n    /* \"#utility.yul\":2021:2022   */\n  dup2\n    /* \"#utility.yul\":2016:2019   */\n  dup5\n    /* \"#utility.yul\":2012:2023   */\n  add\n    /* \"#utility.yul\":2005:2044   */\n  mstore\n    /* \"#utility.yul\":1977:1979   */\n  0x20\n    /* \"#utility.yul\":1974:1975   */\n  dup2\n    /* \"#utility.yul\":1970:1980   */\n  add\n    /* \"#utility.yul\":1965:1980   */\n  swap1\n  pop\n    /* \"#utility.yul\":1941:2054   */\n  jump(tag_54)\ntag_56:\n    /* \"#utility.yul\":2072:2078   */\n  dup4\n    /* \"#utility.yul\":2069:2070   */\n  dup2\n    /* \"#utility.yul\":2066:2079   */\n  gt\n    /* \"#utility.yul\":2063:2065   */\n  iszero\n  tag_57\n  jumpi\n    /* \"#utility.yul\":2152:2153   */\n  0x00\n    /* \"#utility.yul\":2143:2149   */\n  dup5\n    /* \"#utility.yul\":2138:2141   */\n  dup5\n    /* \"#utility.yul\":2134:2150   */\n  add\n    /* \"#utility.yul\":2127:2154   */\n  mstore\n    /* \"#utility.yul\":2063:2065   */\ntag_57:\n    /* \"#utility.yul\":1912:2170   */\n  pop\n  pop\n  pop\n  pop\n  jump\t// out\n    /* \"#utility.yul\":2176:2496   */\ntag_11:\n    /* \"#utility.yul\":2220:2226   */\n  0x00\n    /* \"#utility.yul\":2257:2258   */\n  0x02\n    /* \"#utility.yul\":2251:2255   */\n  dup3\n    /* \"#utility.yul\":2247:2259   */\n  div\n    /* \"#utility.yul\":2237:2259   */\n  swap1\n  pop\n    /* \"#utility.yul\":2304:2305   */\n  0x01\n    /* \"#utility.yul\":2298:2302   */\n  dup3\n    /* \"#utility.yul\":2294:2306   */\n  and\n    /* \"#utility.yul\":2325:2343   */\n  dup1\n    /* \"#utility.yul\":2315:2317   */\n  tag_59\n  jumpi\n    /* \"#utility.yul\":2381:2385   */\n  0x7f\n    /* \"#utility.yul\":2373:2379   */\n  dup3\n    /* \"#utility.yul\":2369:2386   */\n  and\n    /* \"#utility.yul\":2359:2386   */\n  swap2\n  pop\n    /* \"#utility.yul\":2315:2317   */\ntag_59:\n    /* \"#utility.yul\":2443:2445   */\n  0x20\n    /* \"#utility.yul\":2435:2441   */\n  dup3\n    /* \"#utility.yul\":2432:2446   */\n  lt\n    /* \"#utility.yul\":2412:2430   */\n  dup2\n    /* \"#utility.yul\":2409:2447   */\n  eq\n    /* \"#utility.yul\":2406:2408   */\n  iszero\n  tag_60\n  jumpi\n    /* \"#utility.yul\":2462:2480   */\n  tag_61\n  tag_62\n  jump\t// in\ntag_61:\n    /* \"#utility.yul\":2406:2408   */\ntag_60:\n    /* \"#utility.yul\":2227:2496   */\n  pop\n  swap2\n  swap1\n  pop\n  jump\t// out\n    /* \"#utility.yul\":2502:2783   */\ntag_45:\n    /* \"#utility.yul\":2585:2612   */\n  tag_64\n    /* \"#utility.yul\":2607:2611   */\n  dup3\n    /* \"#utility.yul\":2585:2612   */\n  tag_52\n  jump\t// in\ntag_64:\n    /* \"#utility.yul\":2577:2583   */\n  dup2\n    /* \"#utility.yul\":2573:2613   */\n  add\n    /* \"#utility.yul\":2715:2721   */\n  dup2\n    /* \"#utility.yul\":2703:2713   */\n  dup2\n    /* \"#utility.yul\":2700:2722   */\n  lt\n    /* \"#utility.yul\":2679:2697   */\n  0xffffffffffffffff\n    /* \"#utility.yul\":2667:2677   */\n  dup3\n    /* \"#utility.yul\":2664:2698   */\n  gt\n    /* \"#utility.yul\":2661:2723   */\n  or\n    /* \"#utility.yul\":2658:2660   */\n  iszero\n  tag_65\n  jumpi\n    /* \"#utility.yul\":2726:2744   */\n  tag_66\n  tag_50\n  jump\t// in\ntag_66:\n    /* \"#utility.yul\":2658:2660   */\ntag_65:\n    /* \"#utility.yul\":2766:2776   */\n  dup1\n    /* \"#utility.yul\":2762:2764   */\n  0x40\n    /* \"#utility.yul\":2755:2777   */\n  mstore\n    /* \"#utility.yul\":2545:2783   */\n  pop\n  pop\n  pop\n  jump\t// out\n    /* \"#utility.yul\":2789:2969   */\ntag_62:\n    /* \"#utility.yul\":2837:2914   */\n  0x4e487b7100000000000000000000000000000000000000000000000000000000\n    /* \"#utility.yul\":2834:2835   */\n  0x00\n    /* \"#utility.yul\":2827:2915   */\n  mstore\n    /* \"#utility.yul\":2934:2938   */\n  0x22\n    /* \"#utility.yul\":2931:2932   */\n  0x04\n    /* \"#utility.yul\":2924:2939   */\n  mstore\n    /* \"#utility.yul\":2958:2962   */\n  0x24\n    /* \"#utility.yul\":2955:2956   */\n  0x00\n    /* \"#utility.yul\":2948:2963   */\n  revert\n    /* \"#utility.yul\":2975:3155   */\ntag_50:\n    /* \"#utility.yul\":3023:3100   */\n  0x4e487b7100000000000000000000000000000000000000000000000000000000\n    /* \"#utility.yul\":3020:3021   */\n  0x00\n    /* \"#utility.yul\":3013:3101   */\n  mstore\n    /* \"#utility.yul\":3120:3124   */\n  0x41\n    /* \"#utility.yul\":3117:3118   */\n  0x04\n    /* \"#utility.yul\":3110:3125   */\n  mstore\n    /* \"#utility.yul\":3144:3148   */\n  0x24\n    /* \"#utility.yul\":3141:3142   */\n  0x00\n    /* \"#utility.yul\":3134:3149   */\n  revert\n    /* \"#utility.yul\":3161:3263   */\ntag_52:\n    /* \"#utility.yul\":3202:3208   */\n  0x00\n    /* \"#utility.yul\":3253:3255   */\n  0x1f\n    /* \"#utility.yul\":3249:3256   */\n  not\n    /* \"#utility.yul\":3244:3246   */\n  0x1f\n    /* \"#utility.yul\":3237:3242   */\n  dup4\n    /* \"#utility.yul\":3233:3247   */\n  add\n    /* \"#utility.yul\":3229:3257   */\n  and\n    /* \"#utility.yul\":3219:3257   */\n  swap1\n  pop\n    /* \"#utility.yul\":3209:3263   */\n  swap2\n  swap1\n  pop\n  jump\t// out\n    /* \"contracts/erc721.sol\":617:9514  contract ERC721 is Context, ERC165, IERC721, IERC721Metadata {\r... */\ntag_9:\n  dataSize(sub_0)\n  dup1\n  dataOffset(sub_0)\n  0x00\n  codecopy\n  0x00\n  return\nstop\n\nsub_0: assembly {\n        /* \"contracts/erc721.sol\":617:9514  contract ERC721 is Context, ERC165, IERC721, IERC721Metadata {\r... */\n      mstore(0x40, 0x80)\n      callvalue\n      dup1\n      iszero\n      tag_1\n      jumpi\n      0x00\n      dup1\n      revert\n    tag_1:\n      pop\n      jumpi(tag_2, lt(calldatasize, 0x04))\n      shr(0xe0, calldataload(0x00))\n      dup1\n      0x70a08231\n      gt\n      tag_17\n      jumpi\n      dup1\n      0xb88d4fde\n      gt\n      tag_18\n      jumpi\n      dup1\n      0xb88d4fde\n      eq\n      tag_13\n      jumpi\n      dup1\n      0xc87b56dd\n      eq\n      tag_14\n      jumpi\n      dup1\n      0xcd279c7c\n      eq\n      tag_15\n      jumpi\n      dup1\n      0xe985e9c5\n      eq\n      tag_16\n      jumpi\n      jump(tag_2)\n    tag_18:\n      dup1\n      0x70a08231\n      eq\n      tag_10\n      jumpi\n      dup1\n      0x95d89b41\n      eq\n      tag_11\n      jumpi\n      dup1\n      0xa22cb465\n      eq\n      tag_12\n      jumpi\n      jump(tag_2)\n    tag_17:\n      dup1\n      0x095ea7b3\n      gt\n      tag_19\n      jumpi\n      dup1\n      0x095ea7b3\n      eq\n      tag_6\n      jumpi\n      dup1\n      0x23b872dd\n      eq\n      tag_7\n      jumpi\n      dup1\n      0x42842e0e\n      eq\n      tag_8\n      jumpi\n      dup1\n      0x6352211e\n      eq\n      tag_9\n      jumpi\n      jump(tag_2)\n    tag_19:\n      dup1\n      0x01ffc9a7\n      eq\n      tag_3\n      jumpi\n      dup1\n      0x06fdde03\n      eq\n      tag_4\n      jumpi\n      dup1\n      0x081812fc\n      eq\n      tag_5\n      jumpi\n    tag_2:\n      0x00\n      dup1\n      revert\n        /* \"contracts/erc721.sol\":1239:1544  function supportsInterface(bytes4 interfaceId) public view virtual override(ERC165, IERC165) returns (bool) {\r... */\n    tag_3:\n      tag_20\n      0x04\n      dup1\n      calldatasize\n      sub\n      dup2\n      add\n      swap1\n      tag_21\n      swap2\n      swap1\n      tag_22\n      jump\t// in\n    tag_21:\n      tag_23\n      jump\t// in\n    tag_20:\n      mload(0x40)\n      tag_24\n      swap2\n      swap1\n      tag_25\n      jump\t// in\n    tag_24:\n      mload(0x40)\n      dup1\n      swap2\n      sub\n      swap1\n      return\n        /* \"contracts/erc721.sol\":2003:2103  function name() public view virtual override returns (string memory) {\r... */\n    tag_4:\n      tag_26\n      tag_27\n      jump\t// in\n    tag_26:\n      mload(0x40)\n      tag_28\n      swap2\n      swap1\n      tag_29\n      jump\t// in\n    tag_28:\n      mload(0x40)\n      dup1\n      swap2\n      sub\n      swap1\n      return\n        /* \"contracts/erc721.sol\":3037:3208  function getApproved(uint256 tokenId) public view virtual override returns (address) {\r... */\n    tag_5:\n      tag_30\n      0x04\n      dup1\n      calldatasize\n      sub\n      dup2\n      add\n      swap1\n      tag_31\n      swap2\n      swap1\n      tag_32\n      jump\t// in\n    tag_31:\n      tag_33\n      jump\t// in\n    tag_30:\n      mload(0x40)\n      tag_34\n      swap2\n      swap1\n      tag_35\n      jump\t// in\n    tag_34:\n      mload(0x40)\n      dup1\n      swap2\n      sub\n      swap1\n      return\n        /* \"contracts/erc721.sol\":2610:3026  function approve(address to, uint256 tokenId) public virtual override {\r... */\n    tag_6:\n      tag_36\n      0x04\n      dup1\n      calldatasize\n      sub\n      dup2\n      add\n      swap1\n      tag_37\n      swap2\n      swap1\n      tag_38\n      jump\t// in\n    tag_37:\n      tag_39\n      jump\t// in\n    tag_36:\n      stop\n        /* \"contracts/erc721.sol\":3559:3841  function transferFrom(\r... */\n    tag_7:\n      tag_40\n      0x04\n      dup1\n      calldatasize\n      sub\n      dup2\n      add\n      swap1\n      tag_41\n      swap2\n      swap1\n      tag_42\n      jump\t// in\n    tag_41:\n      tag_43\n      jump\t// in\n    tag_40:\n      stop\n        /* \"contracts/erc721.sol\":3851:4036  function safeTransferFrom(\r... */\n    tag_8:\n      tag_44\n      0x04\n      dup1\n      calldatasize\n      sub\n      dup2\n      add\n      swap1\n      tag_45\n      swap2\n      swap1\n      tag_42\n      jump\t// in\n    tag_45:\n      tag_46\n      jump\t// in\n    tag_44:\n      stop\n        /* \"contracts/erc721.sol\":1771:1993  function ownerOf(uint256 tokenId) public view virtual override returns (address) {\r... */\n    tag_9:\n      tag_47\n      0x04\n      dup1\n      calldatasize\n      sub\n      dup2\n      add\n      swap1\n      tag_48\n      swap2\n      swap1\n      tag_32\n      jump\t// in\n    tag_48:\n      tag_49\n      jump\t// in\n    tag_47:\n      mload(0x40)\n      tag_50\n      swap2\n      swap1\n      tag_35\n      jump\t// in\n    tag_50:\n      mload(0x40)\n      dup1\n      swap2\n      sub\n      swap1\n      return\n        /* \"contracts/erc721.sol\":1554:1761  function balanceOf(address owner) public view virtual override returns (uint256) {\r... */\n    tag_10:\n      tag_51\n      0x04\n      dup1\n      calldatasize\n      sub\n      dup2\n      add\n      swap1\n      tag_52\n      swap2\n      swap1\n      tag_53\n      jump\t// in\n    tag_52:\n      tag_54\n      jump\t// in\n    tag_51:\n      mload(0x40)\n      tag_55\n      swap2\n      swap1\n      tag_56\n      jump\t// in\n    tag_55:\n      mload(0x40)\n      dup1\n      swap2\n      sub\n      swap1\n      return\n        /* \"contracts/erc721.sol\":2114:2218  function symbol() public view virtual override returns (string memory) {\r... */\n    tag_11:\n      tag_57\n      tag_58\n      jump\t// in\n    tag_57:\n      mload(0x40)\n      tag_59\n      swap2\n      swap1\n      tag_29\n      jump\t// in\n    tag_59:\n      mload(0x40)\n      dup1\n      swap2\n      sub\n      swap1\n      return\n        /* \"contracts/erc721.sol\":3220:3375  function setApprovalForAll(address operator, bool approved) public virtual override {\r... */\n    tag_12:\n      tag_60\n      0x04\n      dup1\n      calldatasize\n      sub\n      dup2\n      add\n      swap1\n      tag_61\n      swap2\n      swap1\n      tag_62\n      jump\t// in\n    tag_61:\n      tag_63\n      jump\t// in\n    tag_60:\n      stop\n        /* \"contracts/erc721.sol\":4046:4368  function safeTransferFrom(\r... */\n    tag_13:\n      tag_64\n      0x04\n      dup1\n      calldatasize\n      sub\n      dup2\n      add\n      swap1\n      tag_65\n      swap2\n      swap1\n      tag_66\n      jump\t// in\n    tag_65:\n      tag_67\n      jump\t// in\n    tag_64:\n      stop\n        /* \"contracts/erc721.sol\":2228:2498  function tokenURI(uint256 tokenId) public view virtual override returns (string memory) {\r... */\n    tag_14:\n      tag_68\n      0x04\n      dup1\n      calldatasize\n      sub\n      dup2\n      add\n      swap1\n      tag_69\n      swap2\n      swap1\n      tag_32\n      jump\t// in\n    tag_69:\n      tag_70\n      jump\t// in\n    tag_68:\n      mload(0x40)\n      tag_71\n      swap2\n      swap1\n      tag_29\n      jump\t// in\n    tag_71:\n      mload(0x40)\n      dup1\n      swap2\n      sub\n      swap1\n      return\n        /* \"contracts/erc721.sol\":4377:4513  function safeMint(address to,uint tokenId,string memory uri) public{\r... */\n    tag_15:\n      tag_72\n      0x04\n      dup1\n      calldatasize\n      sub\n      dup2\n      add\n      swap1\n      tag_73\n      swap2\n      swap1\n      tag_74\n      jump\t// in\n    tag_73:\n      tag_75\n      jump\t// in\n    tag_72:\n      stop\n        /* \"contracts/erc721.sol\":3385:3549  function isApprovedForAll(address owner, address operator) public view virtual override returns (bool) {\r... */\n    tag_16:\n      tag_76\n      0x04\n      dup1\n      calldatasize\n      sub\n      dup2\n      add\n      swap1\n      tag_77\n      swap2\n      swap1\n      tag_78\n      jump\t// in\n    tag_77:\n      tag_79\n      jump\t// in\n    tag_76:\n      mload(0x40)\n      tag_80\n      swap2\n      swap1\n      tag_25\n      jump\t// in\n    tag_80:\n      mload(0x40)\n      dup1\n      swap2\n      sub\n      swap1\n      return\n        /* \"contracts/erc721.sol\":1239:1544  function supportsInterface(bytes4 interfaceId) public view virtual override(ERC165, IERC165) returns (bool) {\r... */\n    tag_23:\n        /* \"contracts/erc721.sol\":1341:1345  bool */\n      0x00\n        /* \"contracts/erc721.sol\":1393:1418  type(IERC721).interfaceId */\n      0x80ac58cd00000000000000000000000000000000000000000000000000000000\n        /* \"contracts/erc721.sol\":1378:1418  interfaceId == type(IERC721).interfaceId */\n      not(0xffffffffffffffffffffffffffffffffffffffffffffffffffffffff)\n      and\n        /* \"contracts/erc721.sol\":1378:1389  interfaceId */\n      dup3\n        /* \"contracts/erc721.sol\":1378:1418  interfaceId == type(IERC721).interfaceId */\n      not(0xffffffffffffffffffffffffffffffffffffffffffffffffffffffff)\n      and\n      eq\n        /* \"contracts/erc721.sol\":1378:1483  interfaceId == type(IERC721).interfaceId ||\r... */\n      dup1\n      tag_82\n      jumpi\n      pop\n        /* \"contracts/erc721.sol\":1450:1483  type(IERC721Metadata).interfaceId */\n      0x5b5e139f00000000000000000000000000000000000000000000000000000000\n        /* \"contracts/erc721.sol\":1435:1483  interfaceId == type(IERC721Metadata).interfaceId */\n      not(0xffffffffffffffffffffffffffffffffffffffffffffffffffffffff)\n      and\n        /* \"contracts/erc721.sol\":1435:1446  interfaceId */\n      dup3\n        /* \"contracts/erc721.sol\":1435:1483  interfaceId == type(IERC721Metadata).interfaceId */\n      not(0xffffffffffffffffffffffffffffffffffffffffffffffffffffffff)\n      and\n      eq\n        /* \"contracts/erc721.sol\":1378:1483  interfaceId == type(IERC721).interfaceId ||\r... */\n    tag_82:\n        /* \"contracts/erc721.sol\":1378:1536  interfaceId == type(IERC721).interfaceId ||\r... */\n      dup1\n      tag_83\n      jumpi\n      pop\n        /* \"contracts/erc721.sol\":1500:1536  super.supportsInterface(interfaceId) */\n      tag_84\n        /* \"contracts/erc721.sol\":1524:1535  interfaceId */\n      dup3\n        /* \"contracts/erc721.sol\":1500:1523  super.supportsInterface */\n      tag_85\n        /* \"contracts/erc721.sol\":1500:1536  super.supportsInterface(interfaceId) */\n      jump\t// in\n    tag_84:\n        /* \"contracts/erc721.sol\":1378:1536  interfaceId == type(IERC721).interfaceId ||\r... */\n    tag_83:\n        /* \"contracts/erc721.sol\":1358:1536  return\r... */\n      swap1\n      pop\n        /* \"contracts/erc721.sol\":1239:1544  function supportsInterface(bytes4 interfaceId) public view virtual override(ERC165, IERC165) returns (bool) {\r... */\n      swap2\n      swap1\n      pop\n      jump\t// out\n        /* \"contracts/erc721.sol\":2003:2103  function name() public view virtual override returns (string memory) {\r... */\n    tag_27:\n        /* \"contracts/erc721.sol\":2057:2070  string memory */\n      0x60\n        /* \"contracts/erc721.sol\":2090:2095  _name */\n      0x00\n        /* \"contracts/erc721.sol\":2083:2095  return _name */\n      dup1\n      sload\n      tag_87\n      swap1\n      tag_88\n      jump\t// in\n    tag_87:\n      dup1\n      0x1f\n      add\n      0x20\n      dup1\n      swap2\n      div\n      mul\n      0x20\n      add\n      mload(0x40)\n      swap1\n      dup2\n      add\n      0x40\n      mstore\n      dup1\n      swap3\n      swap2\n      swap1\n      dup2\n      dup2\n      mstore\n      0x20\n      add\n      dup3\n      dup1\n      sload\n      tag_89\n      swap1\n      tag_88\n      jump\t// in\n    tag_89:\n      dup1\n      iszero\n      tag_90\n      jumpi\n      dup1\n      0x1f\n      lt\n      tag_91\n      jumpi\n      0x0100\n      dup1\n      dup4\n      sload\n      div\n      mul\n      dup4\n      mstore\n      swap2\n      0x20\n      add\n      swap2\n      jump(tag_90)\n    tag_91:\n      dup3\n      add\n      swap2\n      swap1\n      0x00\n      mstore\n      keccak256(0x00, 0x20)\n      swap1\n    tag_92:\n      dup2\n      sload\n      dup2\n      mstore\n      swap1\n      0x01\n      add\n      swap1\n      0x20\n      add\n      dup1\n      dup4\n      gt\n      tag_92\n      jumpi\n      dup3\n      swap1\n      sub\n      0x1f\n      and\n      dup3\n      add\n      swap2\n    tag_90:\n      pop\n      pop\n      pop\n      pop\n      pop\n      swap1\n      pop\n        /* \"contracts/erc721.sol\":2003:2103  function name() public view virtual override returns (string memory) {\r... */\n      swap1\n      jump\t// out\n        /* \"contracts/erc721.sol\":3037:3208  function getApproved(uint256 tokenId) public view virtual override returns (address) {\r... */\n    tag_33:\n        /* \"contracts/erc721.sol\":3113:3120  address */\n      0x00\n        /* \"contracts/erc721.sol\":3133:3156  _requireMinted(tokenId) */\n      tag_94\n        /* \"contracts/erc721.sol\":3148:3155  tokenId */\n      dup3\n        /* \"contracts/erc721.sol\":3133:3147  _requireMinted */\n      tag_95\n        /* \"contracts/erc721.sol\":3133:3156  _requireMinted(tokenId) */\n      jump\t// in\n    tag_94:\n        /* \"contracts/erc721.sol\":3176:3191  _tokenApprovals */\n      0x04\n        /* \"contracts/erc721.sol\":3176:3200  _tokenApprovals[tokenId] */\n      0x00\n        /* \"contracts/erc721.sol\":3192:3199  tokenId */\n      dup4\n        /* \"contracts/erc721.sol\":3176:3200  _tokenApprovals[tokenId] */\n      dup2\n      mstore\n      0x20\n      add\n      swap1\n      dup2\n      mstore\n      0x20\n      add\n      0x00\n      keccak256\n      0x00\n      swap1\n      sload\n      swap1\n      0x0100\n      exp\n      swap1\n      div\n      0xffffffffffffffffffffffffffffffffffffffff\n      and\n        /* \"contracts/erc721.sol\":3169:3200  return _tokenApprovals[tokenId] */\n      swap1\n      pop\n        /* \"contracts/erc721.sol\":3037:3208  function getApproved(uint256 tokenId) public view virtual override returns (address) {\r... */\n      swap2\n      swap1\n      pop\n      jump\t// out\n        /* \"contracts/erc721.sol\":2610:3026  function approve(address to, uint256 tokenId) public virtual override {\r... */\n    tag_39:\n        /* \"contracts/erc721.sol\":2691:2704  address owner */\n      0x00\n        /* \"contracts/erc721.sol\":2707:2730  ERC721.ownerOf(tokenId) */\n      tag_97\n        /* \"contracts/erc721.sol\":2722:2729  tokenId */\n      dup3\n        /* \"contracts/erc721.sol\":2707:2721  ERC721.ownerOf */\n      tag_49\n        /* \"contracts/erc721.sol\":2707:2730  ERC721.ownerOf(tokenId) */\n      jump\t// in\n    tag_97:\n        /* \"contracts/erc721.sol\":2691:2730  address owner = ERC721.ownerOf(tokenId) */\n      swap1\n      pop\n        /* \"contracts/erc721.sol\":2755:2760  owner */\n      dup1\n        /* \"contracts/erc721.sol\":2749:2760  to != owner */\n      0xffffffffffffffffffffffffffffffffffffffff\n      and\n        /* \"contracts/erc721.sol\":2749:2751  to */\n      dup4\n        /* \"contracts/erc721.sol\":2749:2760  to != owner */\n      0xffffffffffffffffffffffffffffffffffffffff\n      and\n      eq\n      iszero\n        /* \"contracts/erc721.sol\":2741:2798  require(to != owner, \"ERC721: approval to current owner\") */\n      tag_98\n      jumpi\n      mload(0x40)\n      0x08c379a000000000000000000000000000000000000000000000000000000000\n      dup2\n      mstore\n      0x04\n      add\n      tag_99\n      swap1\n      tag_100\n      jump\t// in\n    tag_99:\n      mload(0x40)\n      dup1\n      swap2\n      sub\n      swap1\n      revert\n    tag_98:\n        /* \"contracts/erc721.sol\":2849:2854  owner */\n      dup1\n        /* \"contracts/erc721.sol\":2833:2854  _msgSender() == owner */\n      0xffffffffffffffffffffffffffffffffffffffff\n      and\n        /* \"contracts/erc721.sol\":2833:2845  _msgSender() */\n      tag_101\n        /* \"contracts/erc721.sol\":2833:2843  _msgSender */\n      tag_102\n        /* \"contracts/erc721.sol\":2833:2845  _msgSender() */\n      jump\t// in\n    tag_101:\n        /* \"contracts/erc721.sol\":2833:2854  _msgSender() == owner */\n      0xffffffffffffffffffffffffffffffffffffffff\n      and\n      eq\n        /* \"contracts/erc721.sol\":2833:2895  _msgSender() == owner || isApprovedForAll(owner, _msgSender()) */\n      dup1\n      tag_103\n      jumpi\n      pop\n        /* \"contracts/erc721.sol\":2858:2895  isApprovedForAll(owner, _msgSender()) */\n      tag_104\n        /* \"contracts/erc721.sol\":2875:2880  owner */\n      dup2\n        /* \"contracts/erc721.sol\":2882:2894  _msgSender() */\n      tag_105\n        /* \"contracts/erc721.sol\":2882:2892  _msgSender */\n      tag_102\n        /* \"contracts/erc721.sol\":2882:2894  _msgSender() */\n      jump\t// in\n    tag_105:\n        /* \"contracts/erc721.sol\":2858:2874  isApprovedForAll */\n      tag_79\n        /* \"contracts/erc721.sol\":2858:2895  isApprovedForAll(owner, _msgSender()) */\n      jump\t// in\n    tag_104:\n        /* \"contracts/erc721.sol\":2833:2895  _msgSender() == owner || isApprovedForAll(owner, _msgSender()) */\n    tag_103:\n        /* \"contracts/erc721.sol\":2811:2984  require(\r... */\n      tag_106\n      jumpi\n      mload(0x40)\n      0x08c379a000000000000000000000000000000000000000000000000000000000\n      dup2\n      mstore\n      0x04\n      add\n      tag_107\n      swap1\n      tag_108\n      jump\t// in\n    tag_107:\n      mload(0x40)\n      dup1\n      swap2\n      sub\n      swap1\n      revert\n    tag_106:\n        /* \"contracts/erc721.sol\":2997:3018  _approve(to, tokenId) */\n      tag_109\n        /* \"contracts/erc721.sol\":3006:3008  to */\n      dup4\n        /* \"contracts/erc721.sol\":3010:3017  tokenId */\n      dup4\n        /* \"contracts/erc721.sol\":2997:3005  _approve */\n      tag_110\n        /* \"contracts/erc721.sol\":2997:3018  _approve(to, tokenId) */\n      jump\t// in\n    tag_109:\n        /* \"contracts/erc721.sol\":2610:3026  function approve(address to, uint256 tokenId) public virtual override {\r... */\n      pop\n      pop\n      pop\n      jump\t// out\n        /* \"contracts/erc721.sol\":3559:3841  function transferFrom(\r... */\n    tag_43:\n        /* \"contracts/erc721.sol\":3701:3742  _isApprovedOrOwner(_msgSender(), tokenId) */\n      tag_112\n        /* \"contracts/erc721.sol\":3720:3732  _msgSender() */\n      tag_113\n        /* \"contracts/erc721.sol\":3720:3730  _msgSender */\n      tag_102\n        /* \"contracts/erc721.sol\":3720:3732  _msgSender() */\n      jump\t// in\n    tag_113:\n        /* \"contracts/erc721.sol\":3734:3741  tokenId */\n      dup3\n        /* \"contracts/erc721.sol\":3701:3719  _isApprovedOrOwner */\n      tag_114\n        /* \"contracts/erc721.sol\":3701:3742  _isApprovedOrOwner(_msgSender(), tokenId) */\n      jump\t// in\n    tag_112:\n        /* \"contracts/erc721.sol\":3693:3792  require(_isApprovedOrOwner(_msgSender(), tokenId), \"ERC721: caller is not token owner or approved\") */\n      tag_115\n      jumpi\n      mload(0x40)\n      0x08c379a000000000000000000000000000000000000000000000000000000000\n      dup2\n      mstore\n      0x04\n      add\n      tag_116\n      swap1\n      tag_117\n      jump\t// in\n    tag_116:\n      mload(0x40)\n      dup1\n      swap2\n      sub\n      swap1\n      revert\n    tag_115:\n        /* \"contracts/erc721.sol\":3805:3833  _transfer(from, to, tokenId) */\n      tag_118\n        /* \"contracts/erc721.sol\":3815:3819  from */\n      dup4\n        /* \"contracts/erc721.sol\":3821:3823  to */\n      dup4\n        /* \"contracts/erc721.sol\":3825:3832  tokenId */\n      dup4\n        /* \"contracts/erc721.sol\":3805:3814  _transfer */\n      tag_119\n        /* \"contracts/erc721.sol\":3805:3833  _transfer(from, to, tokenId) */\n      jump\t// in\n    tag_118:\n        /* \"contracts/erc721.sol\":3559:3841  function transferFrom(\r... */\n      pop\n      pop\n      pop\n      jump\t// out\n        /* \"contracts/erc721.sol\":3851:4036  function safeTransferFrom(\r... */\n    tag_46:\n        /* \"contracts/erc721.sol\":3989:4028  safeTransferFrom(from, to, tokenId, \"\") */\n      tag_121\n        /* \"contracts/erc721.sol\":4006:4010  from */\n      dup4\n        /* \"contracts/erc721.sol\":4012:4014  to */\n      dup4\n        /* \"contracts/erc721.sol\":4016:4023  tokenId */\n      dup4\n        /* \"contracts/erc721.sol\":3989:4028  safeTransferFrom(from, to, tokenId, \"\") */\n      mload(0x40)\n      dup1\n      0x20\n      add\n      0x40\n      mstore\n      dup1\n      0x00\n      dup2\n      mstore\n      pop\n        /* \"contracts/erc721.sol\":3989:4005  safeTransferFrom */\n      tag_67\n        /* \"contracts/erc721.sol\":3989:4028  safeTransferFrom(from, to, tokenId, \"\") */\n      jump\t// in\n    tag_121:\n        /* \"contracts/erc721.sol\":3851:4036  function safeTransferFrom(\r... */\n      pop\n      pop\n      pop\n      jump\t// out\n        /* \"contracts/erc721.sol\":1771:1993  function ownerOf(uint256 tokenId) public view virtual override returns (address) {\r... */\n    tag_49:\n        /* \"contracts/erc721.sol\":1843:1850  address */\n      0x00\n        /* \"contracts/erc721.sol\":1863:1876  address owner */\n      dup1\n        /* \"contracts/erc721.sol\":1879:1886  _owners */\n      0x02\n        /* \"contracts/erc721.sol\":1879:1895  _owners[tokenId] */\n      0x00\n        /* \"contracts/erc721.sol\":1887:1894  tokenId */\n      dup5\n        /* \"contracts/erc721.sol\":1879:1895  _owners[tokenId] */\n      dup2\n      mstore\n      0x20\n      add\n      swap1\n      dup2\n      mstore\n      0x20\n      add\n      0x00\n      keccak256\n      0x00\n      swap1\n      sload\n      swap1\n      0x0100\n      exp\n      swap1\n      div\n      0xffffffffffffffffffffffffffffffffffffffff\n      and\n        /* \"contracts/erc721.sol\":1863:1895  address owner = _owners[tokenId] */\n      swap1\n      pop\n        /* \"contracts/erc721.sol\":1931:1932  0 */\n      0x00\n        /* \"contracts/erc721.sol\":1914:1933  owner != address(0) */\n      0xffffffffffffffffffffffffffffffffffffffff\n      and\n        /* \"contracts/erc721.sol\":1914:1919  owner */\n      dup2\n        /* \"contracts/erc721.sol\":1914:1933  owner != address(0) */\n      0xffffffffffffffffffffffffffffffffffffffff\n      and\n      eq\n      iszero\n        /* \"contracts/erc721.sol\":1906:1962  require(owner != address(0), \"ERC721: invalid token ID\") */\n      tag_123\n      jumpi\n      mload(0x40)\n      0x08c379a000000000000000000000000000000000000000000000000000000000\n      dup2\n      mstore\n      0x04\n      add\n      tag_124\n      swap1\n      tag_125\n      jump\t// in\n    tag_124:\n      mload(0x40)\n      dup1\n      swap2\n      sub\n      swap1\n      revert\n    tag_123:\n        /* \"contracts/erc721.sol\":1980:1985  owner */\n      dup1\n        /* \"contracts/erc721.sol\":1973:1985  return owner */\n      swap2\n      pop\n      pop\n        /* \"contracts/erc721.sol\":1771:1993  function ownerOf(uint256 tokenId) public view virtual override returns (address) {\r... */\n      swap2\n      swap1\n      pop\n      jump\t// out\n        /* \"contracts/erc721.sol\":1554:1761  function balanceOf(address owner) public view virtual override returns (uint256) {\r... */\n    tag_54:\n        /* \"contracts/erc721.sol\":1626:1633  uint256 */\n      0x00\n        /* \"contracts/erc721.sol\":1671:1672  0 */\n      dup1\n        /* \"contracts/erc721.sol\":1654:1673  owner != address(0) */\n      0xffffffffffffffffffffffffffffffffffffffff\n      and\n        /* \"contracts/erc721.sol\":1654:1659  owner */\n      dup3\n        /* \"contracts/erc721.sol\":1654:1673  owner != address(0) */\n      0xffffffffffffffffffffffffffffffffffffffff\n      and\n      eq\n      iszero\n        /* \"contracts/erc721.sol\":1646:1719  require(owner != address(0), \"ERC721: address zero is not a valid owner\") */\n      tag_127\n      jumpi\n      mload(0x40)\n      0x08c379a000000000000000000000000000000000000000000000000000000000\n      dup2\n      mstore\n      0x04\n      add\n      tag_128\n      swap1\n      tag_129\n      jump\t// in\n    tag_128:\n      mload(0x40)\n      dup1\n      swap2\n      sub\n      swap1\n      revert\n    tag_127:\n        /* \"contracts/erc721.sol\":1737:1746  _balances */\n      0x03\n        /* \"contracts/erc721.sol\":1737:1753  _balances[owner] */\n      0x00\n        /* \"contracts/erc721.sol\":1747:1752  owner */\n      dup4\n        /* \"contracts/erc721.sol\":1737:1753  _balances[owner] */\n      0xffffffffffffffffffffffffffffffffffffffff\n      and\n      0xffffffffffffffffffffffffffffffffffffffff\n      and\n      dup2\n      mstore\n      0x20\n      add\n      swap1\n      dup2\n      mstore\n      0x20\n      add\n      0x00\n      keccak256\n      sload\n        /* \"contracts/erc721.sol\":1730:1753  return _balances[owner] */\n      swap1\n      pop\n        /* \"contracts/erc721.sol\":1554:1761  function balanceOf(address owner) public view virtual override returns (uint256) {\r... */\n      swap2\n      swap1\n      pop\n      jump\t// out\n        /* \"contracts/erc721.sol\":2114:2218  function symbol() public view virtual override returns (string memory) {\r... */\n    tag_58:\n        /* \"contracts/erc721.sol\":2170:2183  string memory */\n      0x60\n        /* \"contracts/erc721.sol\":2203:2210  _symbol */\n      0x01\n        /* \"contracts/erc721.sol\":2196:2210  return _symbol */\n      dup1\n      sload\n      tag_131\n      swap1\n      tag_88\n      jump\t// in\n    tag_131:\n      dup1\n      0x1f\n      add\n      0x20\n      dup1\n      swap2\n      div\n      mul\n      0x20\n      add\n      mload(0x40)\n      swap1\n      dup2\n      add\n      0x40\n      mstore\n      dup1\n      swap3\n      swap2\n      swap1\n      dup2\n      dup2\n      mstore\n      0x20\n      add\n      dup3\n      dup1\n      sload\n      tag_132\n      swap1\n      tag_88\n      jump\t// in\n    tag_132:\n      dup1\n      iszero\n      tag_133\n      jumpi\n      dup1\n      0x1f\n      lt\n      tag_134\n      jumpi\n      0x0100\n      dup1\n      dup4\n      sload\n      div\n      mul\n      dup4\n      mstore\n      swap2\n      0x20\n      add\n      swap2\n      jump(tag_133)\n    tag_134:\n      dup3\n      add\n      swap2\n      swap1\n      0x00\n      mstore\n      keccak256(0x00, 0x20)\n      swap1\n    tag_135:\n      dup2\n      sload\n      dup2\n      mstore\n      swap1\n      0x01\n      add\n      swap1\n      0x20\n      add\n      dup1\n      dup4\n      gt\n      tag_135\n      jumpi\n      dup3\n      swap1\n      sub\n      0x1f\n      and\n      dup3\n      add\n      swap2\n    tag_133:\n      pop\n      pop\n      pop\n      pop\n      pop\n      swap1\n      pop\n        /* \"contracts/erc721.sol\":2114:2218  function symbol() public view virtual override returns (string memory) {\r... */\n      swap1\n      jump\t// out\n        /* \"contracts/erc721.sol\":3220:3375  function setApprovalForAll(address operator, bool approved) public virtual override {\r... */\n    tag_63:\n        /* \"contracts/erc721.sol\":3315:3367  _setApprovalForAll(_msgSender(), operator, approved) */\n      tag_137\n        /* \"contracts/erc721.sol\":3334:3346  _msgSender() */\n      tag_138\n        /* \"contracts/erc721.sol\":3334:3344  _msgSender */\n      tag_102\n        /* \"contracts/erc721.sol\":3334:3346  _msgSender() */\n      jump\t// in\n    tag_138:\n        /* \"contracts/erc721.sol\":3348:3356  operator */\n      dup4\n        /* \"contracts/erc721.sol\":3358:3366  approved */\n      dup4\n        /* \"contracts/erc721.sol\":3315:3333  _setApprovalForAll */\n      tag_139\n        /* \"contracts/erc721.sol\":3315:3367  _setApprovalForAll(_msgSender(), operator, approved) */\n      jump\t// in\n    tag_137:\n        /* \"contracts/erc721.sol\":3220:3375  function setApprovalForAll(address operator, bool approved) public virtual override {\r... */\n      pop\n      pop\n      jump\t// out\n        /* \"contracts/erc721.sol\":4046:4368  function safeTransferFrom(\r... */\n    tag_67:\n        /* \"contracts/erc721.sol\":4220:4261  _isApprovedOrOwner(_msgSender(), tokenId) */\n      tag_141\n        /* \"contracts/erc721.sol\":4239:4251  _msgSender() */\n      tag_142\n        /* \"contracts/erc721.sol\":4239:4249  _msgSender */\n      tag_102\n        /* \"contracts/erc721.sol\":4239:4251  _msgSender() */\n      jump\t// in\n    tag_142:\n        /* \"contracts/erc721.sol\":4253:4260  tokenId */\n      dup4\n        /* \"contracts/erc721.sol\":4220:4238  _isApprovedOrOwner */\n      tag_114\n        /* \"contracts/erc721.sol\":4220:4261  _isApprovedOrOwner(_msgSender(), tokenId) */\n      jump\t// in\n    tag_141:\n        /* \"contracts/erc721.sol\":4212:4311  require(_isApprovedOrOwner(_msgSender(), tokenId), \"ERC721: caller is not token owner or approved\") */\n      tag_143\n      jumpi\n      mload(0x40)\n      0x08c379a000000000000000000000000000000000000000000000000000000000\n      dup2\n      mstore\n      0x04\n      add\n      tag_144\n      swap1\n      tag_117\n      jump\t// in\n    tag_144:\n      mload(0x40)\n      dup1\n      swap2\n      sub\n      swap1\n      revert\n    tag_143:\n        /* \"contracts/erc721.sol\":4322:4360  _safeTransfer(from, to, tokenId, data) */\n      tag_145\n        /* \"contracts/erc721.sol\":4336:4340  from */\n      dup5\n        /* \"contracts/erc721.sol\":4342:4344  to */\n      dup5\n        /* \"contracts/erc721.sol\":4346:4353  tokenId */\n      dup5\n        /* \"contracts/erc721.sol\":4355:4359  data */\n      dup5\n        /* \"contracts/erc721.sol\":4322:4335  _safeTransfer */\n      tag_146\n        /* \"contracts/erc721.sol\":4322:4360  _safeTransfer(from, to, tokenId, data) */\n      jump\t// in\n    tag_145:\n        /* \"contracts/erc721.sol\":4046:4368  function safeTransferFrom(\r... */\n      pop\n      pop\n      pop\n      pop\n      jump\t// out\n        /* \"contracts/erc721.sol\":2228:2498  function tokenURI(uint256 tokenId) public view virtual override returns (string memory) {\r... */\n    tag_70:\n        /* \"contracts/erc721.sol\":2301:2314  string memory */\n      0x60\n        /* \"contracts/erc721.sol\":2327:2350  _requireMinted(tokenId) */\n      tag_148\n        /* \"contracts/erc721.sol\":2342:2349  tokenId */\n      dup3\n        /* \"contracts/erc721.sol\":2327:2341  _requireMinted */\n      tag_95\n        /* \"contracts/erc721.sol\":2327:2350  _requireMinted(tokenId) */\n      jump\t// in\n    tag_148:\n        /* \"contracts/erc721.sol\":2363:2384  string memory baseURI */\n      0x00\n        /* \"contracts/erc721.sol\":2387:2397  _baseURI() */\n      tag_149\n        /* \"contracts/erc721.sol\":2387:2395  _baseURI */\n      tag_150\n        /* \"contracts/erc721.sol\":2387:2397  _baseURI() */\n      jump\t// in\n    tag_149:\n        /* \"contracts/erc721.sol\":2363:2397  string memory baseURI = _baseURI() */\n      swap1\n      pop\n        /* \"contracts/erc721.sol\":2439:2440  0 */\n      0x00\n        /* \"contracts/erc721.sol\":2421:2428  baseURI */\n      dup2\n        /* \"contracts/erc721.sol\":2415:2436  bytes(baseURI).length */\n      mload\n        /* \"contracts/erc721.sol\":2415:2440  bytes(baseURI).length > 0 */\n      gt\n        /* \"contracts/erc721.sol\":2415:2490  bytes(baseURI).length > 0 ? string(abi.encodePacked(baseURI, tokenId)) : \"\" */\n      tag_151\n      jumpi\n      mload(0x40)\n      dup1\n      0x20\n      add\n      0x40\n      mstore\n      dup1\n      0x00\n      dup2\n      mstore\n      pop\n      jump(tag_152)\n    tag_151:\n        /* \"contracts/erc721.sol\":2467:2474  baseURI */\n      dup1\n        /* \"contracts/erc721.sol\":2476:2483  tokenId */\n      dup4\n        /* \"contracts/erc721.sol\":2450:2484  abi.encodePacked(baseURI, tokenId) */\n      add(0x20, mload(0x40))\n      tag_153\n      swap3\n      swap2\n      swap1\n      tag_154\n      jump\t// in\n    tag_153:\n      mload(0x40)\n      0x20\n      dup2\n      dup4\n      sub\n      sub\n      dup2\n      mstore\n      swap1\n      0x40\n      mstore\n        /* \"contracts/erc721.sol\":2415:2490  bytes(baseURI).length > 0 ? string(abi.encodePacked(baseURI, tokenId)) : \"\" */\n    tag_152:\n        /* \"contracts/erc721.sol\":2408:2490  return bytes(baseURI).length > 0 ? string(abi.encodePacked(baseURI, tokenId)) : \"\" */\n      swap2\n      pop\n      pop\n        /* \"contracts/erc721.sol\":2228:2498  function tokenURI(uint256 tokenId) public view virtual override returns (string memory) {\r... */\n      swap2\n      swap1\n      pop\n      jump\t// out\n        /* \"contracts/erc721.sol\":4377:4513  function safeMint(address to,uint tokenId,string memory uri) public{\r... */\n    tag_75:\n        /* \"contracts/erc721.sol\":4455:4477  _safeMint(to, tokenId) */\n      tag_156\n        /* \"contracts/erc721.sol\":4465:4467  to */\n      dup4\n        /* \"contracts/erc721.sol\":4469:4476  tokenId */\n      dup4\n        /* \"contracts/erc721.sol\":4455:4464  _safeMint */\n      tag_157\n        /* \"contracts/erc721.sol\":4455:4477  _safeMint(to, tokenId) */\n      jump\t// in\n    tag_156:\n        /* \"contracts/erc721.sol\":4488:4505  tokenURI(tokenId) */\n      tag_158\n        /* \"contracts/erc721.sol\":4497:4504  tokenId */\n      dup3\n        /* \"contracts/erc721.sol\":4488:4496  tokenURI */\n      tag_70\n        /* \"contracts/erc721.sol\":4488:4505  tokenURI(tokenId) */\n      jump\t// in\n    tag_158:\n      pop\n        /* \"contracts/erc721.sol\":4377:4513  function safeMint(address to,uint tokenId,string memory uri) public{\r... */\n      pop\n      pop\n      pop\n      jump\t// out\n        /* \"contracts/erc721.sol\":3385:3549  function isApprovedForAll(address owner, address operator) public view virtual override returns (bool) {\r... */\n    tag_79:\n        /* \"contracts/erc721.sol\":3482:3486  bool */\n      0x00\n        /* \"contracts/erc721.sol\":3506:3524  _operatorApprovals */\n      0x05\n        /* \"contracts/erc721.sol\":3506:3531  _operatorApprovals[owner] */\n      0x00\n        /* \"contracts/erc721.sol\":3525:3530  owner */\n      dup5\n        /* \"contracts/erc721.sol\":3506:3531  _operatorApprovals[owner] */\n      0xffffffffffffffffffffffffffffffffffffffff\n      and\n      0xffffffffffffffffffffffffffffffffffffffff\n      and\n      dup2\n      mstore\n      0x20\n      add\n      swap1\n      dup2\n      mstore\n      0x20\n      add\n      0x00\n      keccak256\n        /* \"contracts/erc721.sol\":3506:3541  _operatorApprovals[owner][operator] */\n      0x00\n        /* \"contracts/erc721.sol\":3532:3540  operator */\n      dup4\n        /* \"contracts/erc721.sol\":3506:3541  _operatorApprovals[owner][operator] */\n      0xffffffffffffffffffffffffffffffffffffffff\n      and\n      0xffffffffffffffffffffffffffffffffffffffff\n      and\n      dup2\n      mstore\n      0x20\n      add\n      swap1\n      dup2\n      mstore\n      0x20\n      add\n      0x00\n      keccak256\n      0x00\n      swap1\n      sload\n      swap1\n      0x0100\n      exp\n      swap1\n      div\n      0xff\n      and\n        /* \"contracts/erc721.sol\":3499:3541  return _operatorApprovals[owner][operator] */\n      swap1\n      pop\n        /* \"contracts/erc721.sol\":3385:3549  function isApprovedForAll(address owner, address operator) public view virtual override returns (bool) {\r... */\n      swap3\n      swap2\n      pop\n      pop\n      jump\t// out\n        /* \"@openzeppelin/contracts@4.6.0/utils/introspection/ERC165.sol\":829:984  function supportsInterface(bytes4 interfaceId) public view virtual override returns (bool) {... */\n    tag_85:\n        /* \"@openzeppelin/contracts@4.6.0/utils/introspection/ERC165.sol\":914:918  bool */\n      0x00\n        /* \"@openzeppelin/contracts@4.6.0/utils/introspection/ERC165.sol\":952:977  type(IERC165).interfaceId */\n      0x01ffc9a700000000000000000000000000000000000000000000000000000000\n        /* \"@openzeppelin/contracts@4.6.0/utils/introspection/ERC165.sol\":937:977  interfaceId == type(IERC165).interfaceId */\n      not(0xffffffffffffffffffffffffffffffffffffffffffffffffffffffff)\n      and\n        /* \"@openzeppelin/contracts@4.6.0/utils/introspection/ERC165.sol\":937:948  interfaceId */\n      dup3\n        /* \"@openzeppelin/contracts@4.6.0/utils/introspection/ERC165.sol\":937:977  interfaceId == type(IERC165).interfaceId */\n      not(0xffffffffffffffffffffffffffffffffffffffffffffffffffffffff)\n      and\n      eq\n        /* \"@openzeppelin/contracts@4.6.0/utils/introspection/ERC165.sol\":930:977  return interfaceId == type(IERC165).interfaceId */\n      swap1\n      pop\n        /* \"@openzeppelin/contracts@4.6.0/utils/introspection/ERC165.sol\":829:984  function supportsInterface(bytes4 interfaceId) public view virtual override returns (bool) {... */\n      swap2\n      swap1\n      pop\n      jump\t// out\n        /* \"contracts/erc721.sol\":8244:8379  function _requireMinted(uint256 tokenId) internal view virtual {\r... */\n    tag_95:\n        /* \"contracts/erc721.sol\":8326:8342  _exists(tokenId) */\n      tag_162\n        /* \"contracts/erc721.sol\":8334:8341  tokenId */\n      dup2\n        /* \"contracts/erc721.sol\":8326:8333  _exists */\n      tag_163\n        /* \"contracts/erc721.sol\":8326:8342  _exists(tokenId) */\n      jump\t// in\n    tag_162:\n        /* \"contracts/erc721.sol\":8318:8371  require(_exists(tokenId), \"ERC721: invalid token ID\") */\n      tag_164\n      jumpi\n      mload(0x40)\n      0x08c379a000000000000000000000000000000000000000000000000000000000\n      dup2\n      mstore\n      0x04\n      add\n      tag_165\n      swap1\n      tag_125\n      jump\t// in\n    tag_165:\n      mload(0x40)\n      dup1\n      swap2\n      sub\n      swap1\n      revert\n    tag_164:\n        /* \"contracts/erc721.sol\":8244:8379  function _requireMinted(uint256 tokenId) internal view virtual {\r... */\n      pop\n      jump\t// out\n        /* \"@openzeppelin/contracts@4.6.0/utils/Context.sol\":640:736  function _msgSender() internal view virtual returns (address) {... */\n    tag_102:\n        /* \"@openzeppelin/contracts@4.6.0/utils/Context.sol\":693:700  address */\n      0x00\n        /* \"@openzeppelin/contracts@4.6.0/utils/Context.sol\":719:729  msg.sender */\n      caller\n        /* \"@openzeppelin/contracts@4.6.0/utils/Context.sol\":712:729  return msg.sender */\n      swap1\n      pop\n        /* \"@openzeppelin/contracts@4.6.0/utils/Context.sol\":640:736  function _msgSender() internal view virtual returns (address) {... */\n      swap1\n      jump\t// out\n        /* \"contracts/erc721.sol\":7739:7913  function _approve(address to, uint256 tokenId) internal virtual {\r... */\n    tag_110:\n        /* \"contracts/erc721.sol\":7841:7843  to */\n      dup2\n        /* \"contracts/erc721.sol\":7814:7829  _tokenApprovals */\n      0x04\n        /* \"contracts/erc721.sol\":7814:7838  _tokenApprovals[tokenId] */\n      0x00\n        /* \"contracts/erc721.sol\":7830:7837  tokenId */\n      dup4\n        /* \"contracts/erc721.sol\":7814:7838  _tokenApprovals[tokenId] */\n      dup2\n      mstore\n      0x20\n      add\n      swap1\n      dup2\n      mstore\n      0x20\n      add\n      0x00\n      keccak256\n      0x00\n        /* \"contracts/erc721.sol\":7814:7843  _tokenApprovals[tokenId] = to */\n      0x0100\n      exp\n      dup2\n      sload\n      dup2\n      0xffffffffffffffffffffffffffffffffffffffff\n      mul\n      not\n      and\n      swap1\n      dup4\n      0xffffffffffffffffffffffffffffffffffffffff\n      and\n      mul\n      or\n      swap1\n      sstore\n      pop\n        /* \"contracts/erc721.sol\":7897:7904  tokenId */\n      dup1\n        /* \"contracts/erc721.sol\":7893:7895  to */\n      dup3\n        /* \"contracts/erc721.sol\":7859:7905  Approval(ERC721.ownerOf(tokenId), to, tokenId) */\n      0xffffffffffffffffffffffffffffffffffffffff\n      and\n        /* \"contracts/erc721.sol\":7868:7891  ERC721.ownerOf(tokenId) */\n      tag_168\n        /* \"contracts/erc721.sol\":7883:7890  tokenId */\n      dup4\n        /* \"contracts/erc721.sol\":7868:7882  ERC721.ownerOf */\n      tag_49\n        /* \"contracts/erc721.sol\":7868:7891  ERC721.ownerOf(tokenId) */\n      jump\t// in\n    tag_168:\n        /* \"contracts/erc721.sol\":7859:7905  Approval(ERC721.ownerOf(tokenId), to, tokenId) */\n      0xffffffffffffffffffffffffffffffffffffffff\n      and\n      0x8c5be1e5ebec7d5bd14f71427d1e84f3dd0314c0f7b2291e5b200ac8c7c3b925\n      mload(0x40)\n      mload(0x40)\n      dup1\n      swap2\n      sub\n      swap1\n      log4\n        /* \"contracts/erc721.sol\":7739:7913  function _approve(address to, uint256 tokenId) internal virtual {\r... */\n      pop\n      pop\n      jump\t// out\n        /* \"contracts/erc721.sol\":4979:5243  function _isApprovedOrOwner(address spender, uint256 tokenId) internal view virtual returns (bool) {\r... */\n    tag_114:\n        /* \"contracts/erc721.sol\":5072:5076  bool */\n      0x00\n        /* \"contracts/erc721.sol\":5089:5102  address owner */\n      dup1\n        /* \"contracts/erc721.sol\":5105:5128  ERC721.ownerOf(tokenId) */\n      tag_170\n        /* \"contracts/erc721.sol\":5120:5127  tokenId */\n      dup4\n        /* \"contracts/erc721.sol\":5105:5119  ERC721.ownerOf */\n      tag_49\n        /* \"contracts/erc721.sol\":5105:5128  ERC721.ownerOf(tokenId) */\n      jump\t// in\n    tag_170:\n        /* \"contracts/erc721.sol\":5089:5128  address owner = ERC721.ownerOf(tokenId) */\n      swap1\n      pop\n        /* \"contracts/erc721.sol\":5158:5163  owner */\n      dup1\n        /* \"contracts/erc721.sol\":5147:5163  spender == owner */\n      0xffffffffffffffffffffffffffffffffffffffff\n      and\n        /* \"contracts/erc721.sol\":5147:5154  spender */\n      dup5\n        /* \"contracts/erc721.sol\":5147:5163  spender == owner */\n      0xffffffffffffffffffffffffffffffffffffffff\n      and\n      eq\n        /* \"contracts/erc721.sol\":5147:5199  spender == owner || isApprovedForAll(owner, spender) */\n      dup1\n      tag_171\n      jumpi\n      pop\n        /* \"contracts/erc721.sol\":5167:5199  isApprovedForAll(owner, spender) */\n      tag_172\n        /* \"contracts/erc721.sol\":5184:5189  owner */\n      dup2\n        /* \"contracts/erc721.sol\":5191:5198  spender */\n      dup6\n        /* \"contracts/erc721.sol\":5167:5183  isApprovedForAll */\n      tag_79\n        /* \"contracts/erc721.sol\":5167:5199  isApprovedForAll(owner, spender) */\n      jump\t// in\n    tag_172:\n        /* \"contracts/erc721.sol\":5147:5199  spender == owner || isApprovedForAll(owner, spender) */\n    tag_171:\n        /* \"contracts/erc721.sol\":5147:5234  spender == owner || isApprovedForAll(owner, spender) || getApproved(tokenId) == spender */\n      dup1\n      tag_173\n      jumpi\n      pop\n        /* \"contracts/erc721.sol\":5227:5234  spender */\n      dup4\n        /* \"contracts/erc721.sol\":5203:5234  getApproved(tokenId) == spender */\n      0xffffffffffffffffffffffffffffffffffffffff\n      and\n        /* \"contracts/erc721.sol\":5203:5223  getApproved(tokenId) */\n      tag_174\n        /* \"contracts/erc721.sol\":5215:5222  tokenId */\n      dup5\n        /* \"contracts/erc721.sol\":5203:5214  getApproved */\n      tag_33\n        /* \"contracts/erc721.sol\":5203:5223  getApproved(tokenId) */\n      jump\t// in\n    tag_174:\n        /* \"contracts/erc721.sol\":5203:5234  getApproved(tokenId) == spender */\n      0xffffffffffffffffffffffffffffffffffffffff\n      and\n      eq\n        /* \"contracts/erc721.sol\":5147:5234  spender == owner || isApprovedForAll(owner, spender) || getApproved(tokenId) == spender */\n    tag_173:\n        /* \"contracts/erc721.sol\":5139:5235  return (spender == owner || isApprovedForAll(owner, spender) || getApproved(tokenId) == spender) */\n      swap2\n      pop\n      pop\n        /* \"contracts/erc721.sol\":4979:5243  function _isApprovedOrOwner(address spender, uint256 tokenId) internal view virtual returns (bool) {\r... */\n      swap3\n      swap2\n      pop\n      pop\n      jump\t// out\n        /* \"contracts/erc721.sol\":6966:7729  function _transfer(\r... */\n    tag_119:\n        /* \"contracts/erc721.sol\":7125:7129  from */\n      dup3\n        /* \"contracts/erc721.sol\":7098:7129  ERC721.ownerOf(tokenId) == from */\n      0xffffffffffffffffffffffffffffffffffffffff\n      and\n        /* \"contracts/erc721.sol\":7098:7121  ERC721.ownerOf(tokenId) */\n      tag_176\n        /* \"contracts/erc721.sol\":7113:7120  tokenId */\n      dup3\n        /* \"contracts/erc721.sol\":7098:7112  ERC721.ownerOf */\n      tag_49\n        /* \"contracts/erc721.sol\":7098:7121  ERC721.ownerOf(tokenId) */\n      jump\t// in\n    tag_176:\n        /* \"contracts/erc721.sol\":7098:7129  ERC721.ownerOf(tokenId) == from */\n      0xffffffffffffffffffffffffffffffffffffffff\n      and\n      eq\n        /* \"contracts/erc721.sol\":7090:7171  require(ERC721.ownerOf(tokenId) == from, \"ERC721: transfer from incorrect owner\") */\n      tag_177\n      jumpi\n      mload(0x40)\n      0x08c379a000000000000000000000000000000000000000000000000000000000\n      dup2\n      mstore\n      0x04\n      add\n      tag_178\n      swap1\n      tag_179\n      jump\t// in\n    tag_178:\n      mload(0x40)\n      dup1\n      swap2\n      sub\n      swap1\n      revert\n    tag_177:\n        /* \"contracts/erc721.sol\":7204:7205  0 */\n      0x00\n        /* \"contracts/erc721.sol\":7190:7206  to != address(0) */\n      0xffffffffffffffffffffffffffffffffffffffff\n      and\n        /* \"contracts/erc721.sol\":7190:7192  to */\n      dup3\n        /* \"contracts/erc721.sol\":7190:7206  to != address(0) */\n      0xffffffffffffffffffffffffffffffffffffffff\n      and\n      eq\n      iszero\n        /* \"contracts/erc721.sol\":7182:7247  require(to != address(0), \"ERC721: transfer to the zero address\") */\n      tag_180\n      jumpi\n      mload(0x40)\n      0x08c379a000000000000000000000000000000000000000000000000000000000\n      dup2\n      mstore\n      0x04\n      add\n      tag_181\n      swap1\n      tag_182\n      jump\t// in\n    tag_181:\n      mload(0x40)\n      dup1\n      swap2\n      sub\n      swap1\n      revert\n    tag_180:\n        /* \"contracts/erc721.sol\":7260:7299  _beforeTokenTransfer(from, to, tokenId) */\n      tag_183\n        /* \"contracts/erc721.sol\":7281:7285  from */\n      dup4\n        /* \"contracts/erc721.sol\":7287:7289  to */\n      dup4\n        /* \"contracts/erc721.sol\":7291:7298  tokenId */\n      dup4\n        /* \"contracts/erc721.sol\":7260:7280  _beforeTokenTransfer */\n      tag_184\n        /* \"contracts/erc721.sol\":7260:7299  _beforeTokenTransfer(from, to, tokenId) */\n      jump\t// in\n    tag_183:\n        /* \"contracts/erc721.sol\":7347:7351  from */\n      dup3\n        /* \"contracts/erc721.sol\":7320:7351  ERC721.ownerOf(tokenId) == from */\n      0xffffffffffffffffffffffffffffffffffffffff\n      and\n        /* \"contracts/erc721.sol\":7320:7343  ERC721.ownerOf(tokenId) */\n      tag_185\n        /* \"contracts/erc721.sol\":7335:7342  tokenId */\n      dup3\n        /* \"contracts/erc721.sol\":7320:7334  ERC721.ownerOf */\n      tag_49\n        /* \"contracts/erc721.sol\":7320:7343  ERC721.ownerOf(tokenId) */\n      jump\t// in\n    tag_185:\n        /* \"contracts/erc721.sol\":7320:7351  ERC721.ownerOf(tokenId) == from */\n      0xffffffffffffffffffffffffffffffffffffffff\n      and\n      eq\n        /* \"contracts/erc721.sol\":7312:7393  require(ERC721.ownerOf(tokenId) == from, \"ERC721: transfer from incorrect owner\") */\n      tag_186\n      jumpi\n      mload(0x40)\n      0x08c379a000000000000000000000000000000000000000000000000000000000\n      dup2\n      mstore\n      0x04\n      add\n      tag_187\n      swap1\n      tag_179\n      jump\t// in\n    tag_187:\n      mload(0x40)\n      dup1\n      swap2\n      sub\n      swap1\n      revert\n    tag_186:\n        /* \"contracts/erc721.sol\":7465:7480  _tokenApprovals */\n      0x04\n        /* \"contracts/erc721.sol\":7465:7489  _tokenApprovals[tokenId] */\n      0x00\n        /* \"contracts/erc721.sol\":7481:7488  tokenId */\n      dup3\n        /* \"contracts/erc721.sol\":7465:7489  _tokenApprovals[tokenId] */\n      dup2\n      mstore\n      0x20\n      add\n      swap1\n      dup2\n      mstore\n      0x20\n      add\n      0x00\n      keccak256\n      0x00\n        /* \"contracts/erc721.sol\":7458:7489  delete _tokenApprovals[tokenId] */\n      0x0100\n      exp\n      dup2\n      sload\n      swap1\n      0xffffffffffffffffffffffffffffffffffffffff\n      mul\n      not\n      and\n      swap1\n      sstore\n        /* \"contracts/erc721.sol\":7548:7549  1 */\n      0x01\n        /* \"contracts/erc721.sol\":7529:7538  _balances */\n      0x03\n        /* \"contracts/erc721.sol\":7529:7544  _balances[from] */\n      0x00\n        /* \"contracts/erc721.sol\":7539:7543  from */\n      dup6\n        /* \"contracts/erc721.sol\":7529:7544  _balances[from] */\n      0xffffffffffffffffffffffffffffffffffffffff\n      and\n      0xffffffffffffffffffffffffffffffffffffffff\n      and\n      dup2\n      mstore\n      0x20\n      add\n      swap1\n      dup2\n      mstore\n      0x20\n      add\n      0x00\n      keccak256\n      0x00\n        /* \"contracts/erc721.sol\":7529:7549  _balances[from] -= 1 */\n      dup3\n      dup3\n      sload\n      sub\n      swap3\n      pop\n      pop\n      dup2\n      swap1\n      sstore\n      pop\n        /* \"contracts/erc721.sol\":7581:7582  1 */\n      0x01\n        /* \"contracts/erc721.sol\":7564:7573  _balances */\n      0x03\n        /* \"contracts/erc721.sol\":7564:7577  _balances[to] */\n      0x00\n        /* \"contracts/erc721.sol\":7574:7576  to */\n      dup5\n        /* \"contracts/erc721.sol\":7564:7577  _balances[to] */\n      0xffffffffffffffffffffffffffffffffffffffff\n      and\n      0xffffffffffffffffffffffffffffffffffffffff\n      and\n      dup2\n      mstore\n      0x20\n      add\n      swap1\n      dup2\n      mstore\n      0x20\n      add\n      0x00\n      keccak256\n      0x00\n        /* \"contracts/erc721.sol\":7564:7582  _balances[to] += 1 */\n      dup3\n      dup3\n      sload\n      add\n      swap3\n      pop\n      pop\n      dup2\n      swap1\n      sstore\n      pop\n        /* \"contracts/erc721.sol\":7623:7625  to */\n      dup2\n        /* \"contracts/erc721.sol\":7604:7611  _owners */\n      0x02\n        /* \"contracts/erc721.sol\":7604:7620  _owners[tokenId] */\n      0x00\n        /* \"contracts/erc721.sol\":7612:7619  tokenId */\n      dup4\n        /* \"contracts/erc721.sol\":7604:7620  _owners[tokenId] */\n      dup2\n      mstore\n      0x20\n      add\n      swap1\n      dup2\n      mstore\n      0x20\n      add\n      0x00\n      keccak256\n      0x00\n        /* \"contracts/erc721.sol\":7604:7625  _owners[tokenId] = to */\n      0x0100\n      exp\n      dup2\n      sload\n      dup2\n      0xffffffffffffffffffffffffffffffffffffffff\n      mul\n      not\n      and\n      swap1\n      dup4\n      0xffffffffffffffffffffffffffffffffffffffff\n      and\n      mul\n      or\n      swap1\n      sstore\n      pop\n        /* \"contracts/erc721.sol\":7662:7669  tokenId */\n      dup1\n        /* \"contracts/erc721.sol\":7658:7660  to */\n      dup3\n        /* \"contracts/erc721.sol\":7643:7670  Transfer(from, to, tokenId) */\n      0xffffffffffffffffffffffffffffffffffffffff\n      and\n        /* \"contracts/erc721.sol\":7652:7656  from */\n      dup5\n        /* \"contracts/erc721.sol\":7643:7670  Transfer(from, to, tokenId) */\n      0xffffffffffffffffffffffffffffffffffffffff\n      and\n      0xddf252ad1be2c89b69c2b068fc378daa952ba7f163c4a11628f55a4df523b3ef\n      mload(0x40)\n      mload(0x40)\n      dup1\n      swap2\n      sub\n      swap1\n      log4\n        /* \"contracts/erc721.sol\":7683:7721  _afterTokenTransfer(from, to, tokenId) */\n      tag_188\n        /* \"contracts/erc721.sol\":7703:7707  from */\n      dup4\n        /* \"contracts/erc721.sol\":7709:7711  to */\n      dup4\n        /* \"contracts/erc721.sol\":7713:7720  tokenId */\n      dup4\n        /* \"contracts/erc721.sol\":7683:7702  _afterTokenTransfer */\n      tag_189\n        /* \"contracts/erc721.sol\":7683:7721  _afterTokenTransfer(from, to, tokenId) */\n      jump\t// in\n    tag_188:\n        /* \"contracts/erc721.sol\":6966:7729  function _transfer(\r... */\n      pop\n      pop\n      pop\n      jump\t// out\n        /* \"contracts/erc721.sol\":7921:8236  function _setApprovalForAll(\r... */\n    tag_139:\n        /* \"contracts/erc721.sol\":8076:8084  operator */\n      dup2\n        /* \"contracts/erc721.sol\":8067:8084  owner != operator */\n      0xffffffffffffffffffffffffffffffffffffffff\n      and\n        /* \"contracts/erc721.sol\":8067:8072  owner */\n      dup4\n        /* \"contracts/erc721.sol\":8067:8084  owner != operator */\n      0xffffffffffffffffffffffffffffffffffffffff\n      and\n      eq\n      iszero\n        /* \"contracts/erc721.sol\":8059:8114  require(owner != operator, \"ERC721: approve to caller\") */\n      tag_191\n      jumpi\n      mload(0x40)\n      0x08c379a000000000000000000000000000000000000000000000000000000000\n      dup2\n      mstore\n      0x04\n      add\n      tag_192\n      swap1\n      tag_193\n      jump\t// in\n    tag_192:\n      mload(0x40)\n      dup1\n      swap2\n      sub\n      swap1\n      revert\n    tag_191:\n        /* \"contracts/erc721.sol\":8163:8171  approved */\n      dup1\n        /* \"contracts/erc721.sol\":8125:8143  _operatorApprovals */\n      0x05\n        /* \"contracts/erc721.sol\":8125:8150  _operatorApprovals[owner] */\n      0x00\n        /* \"contracts/erc721.sol\":8144:8149  owner */\n      dup6\n        /* \"contracts/erc721.sol\":8125:8150  _operatorApprovals[owner] */\n      0xffffffffffffffffffffffffffffffffffffffff\n      and\n      0xffffffffffffffffffffffffffffffffffffffff\n      and\n      dup2\n      mstore\n      0x20\n      add\n      swap1\n      dup2\n      mstore\n      0x20\n      add\n      0x00\n      keccak256\n        /* \"contracts/erc721.sol\":8125:8160  _operatorApprovals[owner][operator] */\n      0x00\n        /* \"contracts/erc721.sol\":8151:8159  operator */\n      dup5\n        /* \"contracts/erc721.sol\":8125:8160  _operatorApprovals[owner][operator] */\n      0xffffffffffffffffffffffffffffffffffffffff\n      and\n      0xffffffffffffffffffffffffffffffffffffffff\n      and\n      dup2\n      mstore\n      0x20\n      add\n      swap1\n      dup2\n      mstore\n      0x20\n      add\n      0x00\n      keccak256\n      0x00\n        /* \"contracts/erc721.sol\":8125:8171  _operatorApprovals[owner][operator] = approved */\n      0x0100\n      exp\n      dup2\n      sload\n      dup2\n      0xff\n      mul\n      not\n      and\n      swap1\n      dup4\n      iszero\n      iszero\n      mul\n      or\n      swap1\n      sstore\n      pop\n        /* \"contracts/erc721.sol\":8209:8217  operator */\n      dup2\n        /* \"contracts/erc721.sol\":8187:8228  ApprovalForAll(owner, operator, approved) */\n      0xffffffffffffffffffffffffffffffffffffffff\n      and\n        /* \"contracts/erc721.sol\":8202:8207  owner */\n      dup4\n        /* \"contracts/erc721.sol\":8187:8228  ApprovalForAll(owner, operator, approved) */\n      0xffffffffffffffffffffffffffffffffffffffff\n      and\n      0x17307eab39ab6107e8899845ad3d59bd9653f200f220920489ca2b5937696c31\n        /* \"contracts/erc721.sol\":8219:8227  approved */\n      dup4\n        /* \"contracts/erc721.sol\":8187:8228  ApprovalForAll(owner, operator, approved) */\n      mload(0x40)\n      tag_194\n      swap2\n      swap1\n      tag_25\n      jump\t// in\n    tag_194:\n      mload(0x40)\n      dup1\n      swap2\n      sub\n      swap1\n      log3\n        /* \"contracts/erc721.sol\":7921:8236  function _setApprovalForAll(\r... */\n      pop\n      pop\n      pop\n      jump\t// out\n        /* \"contracts/erc721.sol\":4521:4834  function _safeTransfer(\r... */\n    tag_146:\n        /* \"contracts/erc721.sol\":4677:4705  _transfer(from, to, tokenId) */\n      tag_196\n        /* \"contracts/erc721.sol\":4687:4691  from */\n      dup5\n        /* \"contracts/erc721.sol\":4693:4695  to */\n      dup5\n        /* \"contracts/erc721.sol\":4697:4704  tokenId */\n      dup5\n        /* \"contracts/erc721.sol\":4677:4686  _transfer */\n      tag_119\n        /* \"contracts/erc721.sol\":4677:4705  _transfer(from, to, tokenId) */\n      jump\t// in\n    tag_196:\n        /* \"contracts/erc721.sol\":4724:4771  _checkOnERC721Received(from, to, tokenId, data) */\n      tag_197\n        /* \"contracts/erc721.sol\":4747:4751  from */\n      dup5\n        /* \"contracts/erc721.sol\":4753:4755  to */\n      dup5\n        /* \"contracts/erc721.sol\":4757:4764  tokenId */\n      dup5\n        /* \"contracts/erc721.sol\":4766:4770  data */\n      dup5\n        /* \"contracts/erc721.sol\":4724:4746  _checkOnERC721Received */\n      tag_198\n        /* \"contracts/erc721.sol\":4724:4771  _checkOnERC721Received(from, to, tokenId, data) */\n      jump\t// in\n    tag_197:\n        /* \"contracts/erc721.sol\":4716:4826  require(_checkOnERC721Received(from, to, tokenId, data), \"ERC721: transfer to non ERC721Receiver implementer\") */\n      tag_199\n      jumpi\n      mload(0x40)\n      0x08c379a000000000000000000000000000000000000000000000000000000000\n      dup2\n      mstore\n      0x04\n      add\n      tag_200\n      swap1\n      tag_201\n      jump\t// in\n    tag_200:\n      mload(0x40)\n      dup1\n      swap2\n      sub\n      swap1\n      revert\n    tag_199:\n        /* \"contracts/erc721.sol\":4521:4834  function _safeTransfer(\r... */\n      pop\n      pop\n      pop\n      pop\n      jump\t// out\n        /* \"contracts/erc721.sol\":2508:2602  function _baseURI() internal view virtual returns (string memory) {\r... */\n    tag_150:\n        /* \"contracts/erc721.sol\":2559:2572  string memory */\n      0x60\n        /* \"contracts/erc721.sol\":2585:2594  return \"\" */\n      mload(0x40)\n      dup1\n      0x20\n      add\n      0x40\n      mstore\n      dup1\n      0x00\n      dup2\n      mstore\n      pop\n      swap1\n      pop\n        /* \"contracts/erc721.sol\":2508:2602  function _baseURI() internal view virtual returns (string memory) {\r... */\n      swap1\n      jump\t// out\n        /* \"contracts/erc721.sol\":5251:5361  function _safeMint(address to, uint256 tokenId) internal virtual {\r... */\n    tag_157:\n        /* \"contracts/erc721.sol\":5327:5353  _safeMint(to, tokenId, \"\") */\n      tag_204\n        /* \"contracts/erc721.sol\":5337:5339  to */\n      dup3\n        /* \"contracts/erc721.sol\":5341:5348  tokenId */\n      dup3\n        /* \"contracts/erc721.sol\":5327:5353  _safeMint(to, tokenId, \"\") */\n      mload(0x40)\n      dup1\n      0x20\n      add\n      0x40\n      mstore\n      dup1\n      0x00\n      dup2\n      mstore\n      pop\n        /* \"contracts/erc721.sol\":5327:5336  _safeMint */\n      tag_205\n        /* \"contracts/erc721.sol\":5327:5353  _safeMint(to, tokenId, \"\") */\n      jump\t// in\n    tag_204:\n        /* \"contracts/erc721.sol\":5251:5361  function _safeMint(address to, uint256 tokenId) internal virtual {\r... */\n      pop\n      pop\n      jump\t// out\n        /* \"contracts/erc721.sol\":4842:4969  function _exists(uint256 tokenId) internal view virtual returns (bool) {\r... */\n    tag_163:\n        /* \"contracts/erc721.sol\":4907:4911  bool */\n      0x00\n        /* \"contracts/erc721.sol\":4959:4960  0 */\n      dup1\n        /* \"contracts/erc721.sol\":4931:4961  _owners[tokenId] != address(0) */\n      0xffffffffffffffffffffffffffffffffffffffff\n      and\n        /* \"contracts/erc721.sol\":4931:4938  _owners */\n      0x02\n        /* \"contracts/erc721.sol\":4931:4947  _owners[tokenId] */\n      0x00\n        /* \"contracts/erc721.sol\":4939:4946  tokenId */\n      dup5\n        /* \"contracts/erc721.sol\":4931:4947  _owners[tokenId] */\n      dup2\n      mstore\n      0x20\n      add\n      swap1\n      dup2\n      mstore\n      0x20\n      add\n      0x00\n      keccak256\n      0x00\n      swap1\n      sload\n      swap1\n      0x0100\n      exp\n      swap1\n      div\n      0xffffffffffffffffffffffffffffffffffffffff\n      and\n        /* \"contracts/erc721.sol\":4931:4961  _owners[tokenId] != address(0) */\n      0xffffffffffffffffffffffffffffffffffffffff\n      and\n      eq\n      iszero\n        /* \"contracts/erc721.sol\":4924:4961  return _owners[tokenId] != address(0) */\n      swap1\n      pop\n        /* \"contracts/erc721.sol\":4842:4969  function _exists(uint256 tokenId) internal view virtual returns (bool) {\r... */\n      swap2\n      swap1\n      pop\n      jump\t// out\n        /* \"contracts/erc721.sol\":9252:9378  function _beforeTokenTransfer(\r... */\n    tag_184:\n      pop\n      pop\n      pop\n      jump\t// out\n        /* \"contracts/erc721.sol\":9386:9511  function _afterTokenTransfer(\r... */\n    tag_189:\n      pop\n      pop\n      pop\n      jump\t// out\n        /* \"contracts/erc721.sol\":8389:9242  function _checkOnERC721Received(\r... */\n    tag_198:\n        /* \"contracts/erc721.sol\":8543:8547  bool */\n      0x00\n        /* \"contracts/erc721.sol\":8564:8579  to.isContract() */\n      tag_210\n        /* \"contracts/erc721.sol\":8564:8566  to */\n      dup5\n        /* \"contracts/erc721.sol\":8564:8577  to.isContract */\n      0xffffffffffffffffffffffffffffffffffffffff\n      and\n      tag_211\n        /* \"contracts/erc721.sol\":8564:8579  to.isContract() */\n      jump\t// in\n    tag_210:\n        /* \"contracts/erc721.sol\":8560:9235  if (to.isContract()) {\r... */\n      iszero\n      tag_212\n      jumpi\n        /* \"contracts/erc721.sol\":8616:8618  to */\n      dup4\n        /* \"contracts/erc721.sol\":8600:8636  IERC721Receiver(to).onERC721Received */\n      0xffffffffffffffffffffffffffffffffffffffff\n      and\n      0x150b7a02\n        /* \"contracts/erc721.sol\":8637:8649  _msgSender() */\n      tag_213\n        /* \"contracts/erc721.sol\":8637:8647  _msgSender */\n      tag_102\n        /* \"contracts/erc721.sol\":8637:8649  _msgSender() */\n      jump\t// in\n    tag_213:\n        /* \"contracts/erc721.sol\":8651:8655  from */\n      dup8\n        /* \"contracts/erc721.sol\":8657:8664  tokenId */\n      dup7\n        /* \"contracts/erc721.sol\":8666:8670  data */\n      dup7\n        /* \"contracts/erc721.sol\":8600:8671  IERC721Receiver(to).onERC721Received(_msgSender(), from, tokenId, data) */\n      mload(0x40)\n      dup6\n      0xffffffff\n      and\n      0xe0\n      shl\n      dup2\n      mstore\n      0x04\n      add\n      tag_214\n      swap5\n      swap4\n      swap3\n      swap2\n      swap1\n      tag_215\n      jump\t// in\n    tag_214:\n      0x20\n      mload(0x40)\n      dup1\n      dup4\n      sub\n      dup2\n      0x00\n      dup8\n      dup1\n      extcodesize\n      iszero\n      dup1\n      iszero\n      tag_216\n      jumpi\n      0x00\n      dup1\n      revert\n    tag_216:\n      pop\n      gas\n      call\n      swap3\n      pop\n      pop\n      pop\n      dup1\n      iszero\n      tag_217\n      jumpi\n      pop\n      mload(0x40)\n      returndatasize\n      not(0x1f)\n      0x1f\n      dup3\n      add\n      and\n      dup3\n      add\n      dup1\n      0x40\n      mstore\n      pop\n      dup2\n      add\n      swap1\n      tag_218\n      swap2\n      swap1\n      tag_219\n      jump\t// in\n    tag_218:\n      0x01\n    tag_217:\n        /* \"contracts/erc721.sol\":8596:9180  try IERC721Receiver(to).onERC721Received(_msgSender(), from, tokenId, data) returns (bytes4 retval) {\r... */\n      tag_220\n      jumpi\n      returndatasize\n      dup1\n      0x00\n      dup2\n      eq\n      tag_225\n      jumpi\n      mload(0x40)\n      swap2\n      pop\n      and(add(returndatasize, 0x3f), not(0x1f))\n      dup3\n      add\n      0x40\n      mstore\n      returndatasize\n      dup3\n      mstore\n      returndatasize\n      0x00\n      0x20\n      dup5\n      add\n      returndatacopy\n      jump(tag_224)\n    tag_225:\n      0x60\n      swap2\n      pop\n    tag_224:\n      pop\n        /* \"contracts/erc721.sol\":8858:8859  0 */\n      0x00\n        /* \"contracts/erc721.sol\":8841:8847  reason */\n      dup2\n        /* \"contracts/erc721.sol\":8841:8854  reason.length */\n      mload\n        /* \"contracts/erc721.sol\":8841:8859  reason.length == 0 */\n      eq\n        /* \"contracts/erc721.sol\":8837:9165  if (reason.length == 0) {\r... */\n      iszero\n      tag_226\n      jumpi\n        /* \"contracts/erc721.sol\":8884:8944  revert(\"ERC721: transfer to non ERC721Receiver implementer\") */\n      mload(0x40)\n      0x08c379a000000000000000000000000000000000000000000000000000000000\n      dup2\n      mstore\n      0x04\n      add\n      tag_227\n      swap1\n      tag_201\n      jump\t// in\n    tag_227:\n      mload(0x40)\n      dup1\n      swap2\n      sub\n      swap1\n      revert\n        /* \"contracts/erc721.sol\":8837:9165  if (reason.length == 0) {\r... */\n    tag_226:\n        /* \"contracts/erc721.sol\":9115:9121  reason */\n      dup1\n        /* \"contracts/erc721.sol\":9109:9122  mload(reason) */\n      mload\n        /* \"contracts/erc721.sol\":9100:9106  reason */\n      dup2\n        /* \"contracts/erc721.sol\":9096:9098  32 */\n      0x20\n        /* \"contracts/erc721.sol\":9092:9107  add(32, reason) */\n      add\n        /* \"contracts/erc721.sol\":9085:9123  revert(add(32, reason), mload(reason)) */\n      revert\n        /* \"contracts/erc721.sol\":8596:9180  try IERC721Receiver(to).onERC721Received(_msgSender(), from, tokenId, data) returns (bytes4 retval) {\r... */\n    tag_220:\n        /* \"contracts/erc721.sol\":8732:8773  IERC721Receiver.onERC721Received.selector */\n      shl(0xe0, 0x150b7a02)\n        /* \"contracts/erc721.sol\":8722:8773  retval == IERC721Receiver.onERC721Received.selector */\n      not(0xffffffffffffffffffffffffffffffffffffffffffffffffffffffff)\n      and\n        /* \"contracts/erc721.sol\":8722:8728  retval */\n      dup2\n        /* \"contracts/erc721.sol\":8722:8773  retval == IERC721Receiver.onERC721Received.selector */\n      not(0xffffffffffffffffffffffffffffffffffffffffffffffffffffffff)\n      and\n      eq\n        /* \"contracts/erc721.sol\":8715:8773  return retval == IERC721Receiver.onERC721Received.selector */\n      swap2\n      pop\n      pop\n      jump(tag_209)\n        /* \"contracts/erc721.sol\":8560:9235  if (to.isContract()) {\r... */\n    tag_212:\n        /* \"contracts/erc721.sol\":9219:9223  true */\n      0x01\n        /* \"contracts/erc721.sol\":9212:9223  return true */\n      swap1\n      pop\n        /* \"contracts/erc721.sol\":8389:9242  function _checkOnERC721Received(\r... */\n    tag_209:\n      swap5\n      swap4\n      pop\n      pop\n      pop\n      pop\n      jump\t// out\n        /* \"contracts/erc721.sol\":5369:5688  function _safeMint(\r... */\n    tag_205:\n        /* \"contracts/erc721.sol\":5498:5516  _mint(to, tokenId) */\n      tag_232\n        /* \"contracts/erc721.sol\":5504:5506  to */\n      dup4\n        /* \"contracts/erc721.sol\":5508:5515  tokenId */\n      dup4\n        /* \"contracts/erc721.sol\":5498:5503  _mint */\n      tag_233\n        /* \"contracts/erc721.sol\":5498:5516  _mint(to, tokenId) */\n      jump\t// in\n    tag_232:\n        /* \"contracts/erc721.sol\":5549:5602  _checkOnERC721Received(address(0), to, tokenId, data) */\n      tag_234\n        /* \"contracts/erc721.sol\":5580:5581  0 */\n      0x00\n        /* \"contracts/erc721.sol\":5584:5586  to */\n      dup5\n        /* \"contracts/erc721.sol\":5588:5595  tokenId */\n      dup5\n        /* \"contracts/erc721.sol\":5597:5601  data */\n      dup5\n        /* \"contracts/erc721.sol\":5549:5571  _checkOnERC721Received */\n      tag_198\n        /* \"contracts/erc721.sol\":5549:5602  _checkOnERC721Received(address(0), to, tokenId, data) */\n      jump\t// in\n    tag_234:\n        /* \"contracts/erc721.sol\":5527:5680  require(\r... */\n      tag_235\n      jumpi\n      mload(0x40)\n      0x08c379a000000000000000000000000000000000000000000000000000000000\n      dup2\n      mstore\n      0x04\n      add\n      tag_236\n      swap1\n      tag_201\n      jump\t// in\n    tag_236:\n      mload(0x40)\n      dup1\n      swap2\n      sub\n      swap1\n      revert\n    tag_235:\n        /* \"contracts/erc721.sol\":5369:5688  function _safeMint(\r... */\n      pop\n      pop\n      pop\n      jump\t// out\n        /* \"@openzeppelin/contracts@4.6.0/utils/Address.sol\":1175:1495  function isContract(address account) internal view returns (bool) {... */\n    tag_211:\n        /* \"@openzeppelin/contracts@4.6.0/utils/Address.sol\":1235:1239  bool */\n      0x00\n        /* \"@openzeppelin/contracts@4.6.0/utils/Address.sol\":1487:1488  0 */\n      dup1\n        /* \"@openzeppelin/contracts@4.6.0/utils/Address.sol\":1465:1472  account */\n      dup3\n        /* \"@openzeppelin/contracts@4.6.0/utils/Address.sol\":1465:1484  account.code.length */\n      0xffffffffffffffffffffffffffffffffffffffff\n      and\n      extcodesize\n        /* \"@openzeppelin/contracts@4.6.0/utils/Address.sol\":1465:1488  account.code.length > 0 */\n      gt\n        /* \"@openzeppelin/contracts@4.6.0/utils/Address.sol\":1458:1488  return account.code.length > 0 */\n      swap1\n      pop\n        /* \"@openzeppelin/contracts@4.6.0/utils/Address.sol\":1175:1495  function isContract(address account) internal view returns (bool) {... */\n      swap2\n      swap1\n      pop\n      jump\t// out\n        /* \"contracts/erc721.sol\":5696:6244  function _mint(address to, uint256 tokenId) internal virtual {\r... */\n    tag_233:\n        /* \"contracts/erc721.sol\":5790:5791  0 */\n      0x00\n        /* \"contracts/erc721.sol\":5776:5792  to != address(0) */\n      0xffffffffffffffffffffffffffffffffffffffff\n      and\n        /* \"contracts/erc721.sol\":5776:5778  to */\n      dup3\n        /* \"contracts/erc721.sol\":5776:5792  to != address(0) */\n      0xffffffffffffffffffffffffffffffffffffffff\n      and\n      eq\n      iszero\n        /* \"contracts/erc721.sol\":5768:5829  require(to != address(0), \"ERC721: mint to the zero address\") */\n      tag_239\n      jumpi\n      mload(0x40)\n      0x08c379a000000000000000000000000000000000000000000000000000000000\n      dup2\n      mstore\n      0x04\n      add\n      tag_240\n      swap1\n      tag_241\n      jump\t// in\n    tag_240:\n      mload(0x40)\n      dup1\n      swap2\n      sub\n      swap1\n      revert\n    tag_239:\n        /* \"contracts/erc721.sol\":5849:5865  _exists(tokenId) */\n      tag_242\n        /* \"contracts/erc721.sol\":5857:5864  tokenId */\n      dup2\n        /* \"contracts/erc721.sol\":5849:5856  _exists */\n      tag_163\n        /* \"contracts/erc721.sol\":5849:5865  _exists(tokenId) */\n      jump\t// in\n    tag_242:\n        /* \"contracts/erc721.sol\":5848:5865  !_exists(tokenId) */\n      iszero\n        /* \"contracts/erc721.sol\":5840:5898  require(!_exists(tokenId), \"ERC721: token already minted\") */\n      tag_243\n      jumpi\n      mload(0x40)\n      0x08c379a000000000000000000000000000000000000000000000000000000000\n      dup2\n      mstore\n      0x04\n      add\n      tag_244\n      swap1\n      tag_245\n      jump\t// in\n    tag_244:\n      mload(0x40)\n      dup1\n      swap2\n      sub\n      swap1\n      revert\n    tag_243:\n        /* \"contracts/erc721.sol\":5911:5956  _beforeTokenTransfer(address(0), to, tokenId) */\n      tag_246\n        /* \"contracts/erc721.sol\":5940:5941  0 */\n      0x00\n        /* \"contracts/erc721.sol\":5944:5946  to */\n      dup4\n        /* \"contracts/erc721.sol\":5948:5955  tokenId */\n      dup4\n        /* \"contracts/erc721.sol\":5911:5931  _beforeTokenTransfer */\n      tag_184\n        /* \"contracts/erc721.sol\":5911:5956  _beforeTokenTransfer(address(0), to, tokenId) */\n      jump\t// in\n    tag_246:\n        /* \"contracts/erc721.sol\":5978:5994  _exists(tokenId) */\n      tag_247\n        /* \"contracts/erc721.sol\":5986:5993  tokenId */\n      dup2\n        /* \"contracts/erc721.sol\":5978:5985  _exists */\n      tag_163\n        /* \"contracts/erc721.sol\":5978:5994  _exists(tokenId) */\n      jump\t// in\n    tag_247:\n        /* \"contracts/erc721.sol\":5977:5994  !_exists(tokenId) */\n      iszero\n        /* \"contracts/erc721.sol\":5969:6027  require(!_exists(tokenId), \"ERC721: token already minted\") */\n      tag_248\n      jumpi\n      mload(0x40)\n      0x08c379a000000000000000000000000000000000000000000000000000000000\n      dup2\n      mstore\n      0x04\n      add\n      tag_249\n      swap1\n      tag_245\n      jump\t// in\n    tag_249:\n      mload(0x40)\n      dup1\n      swap2\n      sub\n      swap1\n      revert\n    tag_248:\n        /* \"contracts/erc721.sol\":6082:6083  1 */\n      0x01\n        /* \"contracts/erc721.sol\":6065:6074  _balances */\n      0x03\n        /* \"contracts/erc721.sol\":6065:6078  _balances[to] */\n      0x00\n        /* \"contracts/erc721.sol\":6075:6077  to */\n      dup5\n        /* \"contracts/erc721.sol\":6065:6078  _balances[to] */\n      0xffffffffffffffffffffffffffffffffffffffff\n      and\n      0xffffffffffffffffffffffffffffffffffffffff\n      and\n      dup2\n      mstore\n      0x20\n      add\n      swap1\n      dup2\n      mstore\n      0x20\n      add\n      0x00\n      keccak256\n      0x00\n        /* \"contracts/erc721.sol\":6065:6083  _balances[to] += 1 */\n      dup3\n      dup3\n      sload\n      add\n      swap3\n      pop\n      pop\n      dup2\n      swap1\n      sstore\n      pop\n        /* \"contracts/erc721.sol\":6126:6128  to */\n      dup2\n        /* \"contracts/erc721.sol\":6107:6114  _owners */\n      0x02\n        /* \"contracts/erc721.sol\":6107:6123  _owners[tokenId] */\n      0x00\n        /* \"contracts/erc721.sol\":6115:6122  tokenId */\n      dup4\n        /* \"contracts/erc721.sol\":6107:6123  _owners[tokenId] */\n      dup2\n      mstore\n      0x20\n      add\n      swap1\n      dup2\n      mstore\n      0x20\n      add\n      0x00\n      keccak256\n      0x00\n        /* \"contracts/erc721.sol\":6107:6128  _owners[tokenId] = to */\n      0x0100\n      exp\n      dup2\n      sload\n      dup2\n      0xffffffffffffffffffffffffffffffffffffffff\n      mul\n      not\n      and\n      swap1\n      dup4\n      0xffffffffffffffffffffffffffffffffffffffff\n      and\n      mul\n      or\n      swap1\n      sstore\n      pop\n        /* \"contracts/erc721.sol\":6171:6178  tokenId */\n      dup1\n        /* \"contracts/erc721.sol\":6167:6169  to */\n      dup3\n        /* \"contracts/erc721.sol\":6146:6179  Transfer(address(0), to, tokenId) */\n      0xffffffffffffffffffffffffffffffffffffffff\n      and\n        /* \"contracts/erc721.sol\":6163:6164  0 */\n      0x00\n        /* \"contracts/erc721.sol\":6146:6179  Transfer(address(0), to, tokenId) */\n      0xffffffffffffffffffffffffffffffffffffffff\n      and\n      0xddf252ad1be2c89b69c2b068fc378daa952ba7f163c4a11628f55a4df523b3ef\n      mload(0x40)\n      mload(0x40)\n      dup1\n      swap2\n      sub\n      swap1\n      log4\n        /* \"contracts/erc721.sol\":6192:6236  _afterTokenTransfer(address(0), to, tokenId) */\n      tag_250\n        /* \"contracts/erc721.sol\":6220:6221  0 */\n      0x00\n        /* \"contracts/erc721.sol\":6224:6226  to */\n      dup4\n        /* \"contracts/erc721.sol\":6228:6235  tokenId */\n      dup4\n        /* \"contracts/erc721.sol\":6192:6211  _afterTokenTransfer */\n      tag_189\n        /* \"contracts/erc721.sol\":6192:6236  _afterTokenTransfer(address(0), to, tokenId) */\n      jump\t// in\n    tag_250:\n        /* \"contracts/erc721.sol\":5696:6244  function _mint(address to, uint256 tokenId) internal virtual {\r... */\n      pop\n      pop\n      jump\t// out\n        /* \"#utility.yul\":7:350   */\n    tag_252:\n        /* \"#utility.yul\":84:89   */\n      0x00\n        /* \"#utility.yul\":109:174   */\n      tag_254\n        /* \"#utility.yul\":125:173   */\n      tag_255\n        /* \"#utility.yul\":166:172   */\n      dup5\n        /* \"#utility.yul\":125:173   */\n      tag_256\n      jump\t// in\n    tag_255:\n        /* \"#utility.yul\":109:174   */\n      tag_257\n      jump\t// in\n    tag_254:\n        /* \"#utility.yul\":100:174   */\n      swap1\n      pop\n        /* \"#utility.yul\":197:203   */\n      dup3\n        /* \"#utility.yul\":190:195   */\n      dup2\n        /* \"#utility.yul\":183:204   */\n      mstore\n        /* \"#utility.yul\":235:239   */\n      0x20\n        /* \"#utility.yul\":228:233   */\n      dup2\n        /* \"#utility.yul\":224:240   */\n      add\n        /* \"#utility.yul\":273:276   */\n      dup5\n        /* \"#utility.yul\":264:270   */\n      dup5\n        /* \"#utility.yul\":259:262   */\n      dup5\n        /* \"#utility.yul\":255:271   */\n      add\n        /* \"#utility.yul\":252:277   */\n      gt\n        /* \"#utility.yul\":249:251   */\n      iszero\n      tag_258\n      jumpi\n        /* \"#utility.yul\":290:291   */\n      0x00\n        /* \"#utility.yul\":287:288   */\n      dup1\n        /* \"#utility.yul\":280:292   */\n      revert\n        /* \"#utility.yul\":249:251   */\n    tag_258:\n        /* \"#utility.yul\":303:344   */\n      tag_259\n        /* \"#utility.yul\":337:343   */\n      dup5\n        /* \"#utility.yul\":332:335   */\n      dup3\n        /* \"#utility.yul\":327:330   */\n      dup6\n        /* \"#utility.yul\":303:344   */\n      tag_260\n      jump\t// in\n    tag_259:\n        /* \"#utility.yul\":90:350   */\n      pop\n      swap4\n      swap3\n      pop\n      pop\n      pop\n      jump\t// out\n        /* \"#utility.yul\":356:701   */\n    tag_261:\n        /* \"#utility.yul\":434:439   */\n      0x00\n        /* \"#utility.yul\":459:525   */\n      tag_263\n        /* \"#utility.yul\":475:524   */\n      tag_264\n        /* \"#utility.yul\":517:523   */\n      dup5\n        /* \"#utility.yul\":475:524   */\n      tag_265\n      jump\t// in\n    tag_264:\n        /* \"#utility.yul\":459:525   */\n      tag_257\n      jump\t// in\n    tag_263:\n        /* \"#utility.yul\":450:525   */\n      swap1\n      pop\n        /* \"#utility.yul\":548:554   */\n      dup3\n        /* \"#utility.yul\":541:546   */\n      dup2\n        /* \"#utility.yul\":534:555   */\n      mstore\n        /* \"#utility.yul\":586:590   */\n      0x20\n        /* \"#utility.yul\":579:584   */\n      dup2\n        /* \"#utility.yul\":575:591   */\n      add\n        /* \"#utility.yul\":624:627   */\n      dup5\n        /* \"#utility.yul\":615:621   */\n      dup5\n        /* \"#utility.yul\":610:613   */\n      dup5\n        /* \"#utility.yul\":606:622   */\n      add\n        /* \"#utility.yul\":603:628   */\n      gt\n        /* \"#utility.yul\":600:602   */\n      iszero\n      tag_266\n      jumpi\n        /* \"#utility.yul\":641:642   */\n      0x00\n        /* \"#utility.yul\":638:639   */\n      dup1\n        /* \"#utility.yul\":631:643   */\n      revert\n        /* \"#utility.yul\":600:602   */\n    tag_266:\n        /* \"#utility.yul\":654:695   */\n      tag_267\n        /* \"#utility.yul\":688:694   */\n      dup5\n        /* \"#utility.yul\":683:686   */\n      dup3\n        /* \"#utility.yul\":678:681   */\n      dup6\n        /* \"#utility.yul\":654:695   */\n      tag_260\n      jump\t// in\n    tag_267:\n        /* \"#utility.yul\":440:701   */\n      pop\n      swap4\n      swap3\n      pop\n      pop\n      pop\n      jump\t// out\n        /* \"#utility.yul\":707:846   */\n    tag_268:\n        /* \"#utility.yul\":753:758   */\n      0x00\n        /* \"#utility.yul\":791:797   */\n      dup2\n        /* \"#utility.yul\":778:798   */\n      calldataload\n        /* \"#utility.yul\":769:798   */\n      swap1\n      pop\n        /* \"#utility.yul\":807:840   */\n      tag_270\n        /* \"#utility.yul\":834:839   */\n      dup2\n        /* \"#utility.yul\":807:840   */\n      tag_271\n      jump\t// in\n    tag_270:\n        /* \"#utility.yul\":759:846   */\n      swap3\n      swap2\n      pop\n      pop\n      jump\t// out\n        /* \"#utility.yul\":852:985   */\n    tag_272:\n        /* \"#utility.yul\":895:900   */\n      0x00\n        /* \"#utility.yul\":933:939   */\n      dup2\n        /* \"#utility.yul\":920:940   */\n      calldataload\n        /* \"#utility.yul\":911:940   */\n      swap1\n      pop\n        /* \"#utility.yul\":949:979   */\n      tag_274\n        /* \"#utility.yul\":973:978   */\n      dup2\n        /* \"#utility.yul\":949:979   */\n      tag_275\n      jump\t// in\n    tag_274:\n        /* \"#utility.yul\":901:985   */\n      swap3\n      swap2\n      pop\n      pop\n      jump\t// out\n        /* \"#utility.yul\":991:1128   */\n    tag_276:\n        /* \"#utility.yul\":1036:1041   */\n      0x00\n        /* \"#utility.yul\":1074:1080   */\n      dup2\n        /* \"#utility.yul\":1061:1081   */\n      calldataload\n        /* \"#utility.yul\":1052:1081   */\n      swap1\n      pop\n        /* \"#utility.yul\":1090:1122   */\n      tag_278\n        /* \"#utility.yul\":1116:1121   */\n      dup2\n        /* \"#utility.yul\":1090:1122   */\n      tag_279\n      jump\t// in\n    tag_278:\n        /* \"#utility.yul\":1042:1128   */\n      swap3\n      swap2\n      pop\n      pop\n      jump\t// out\n        /* \"#utility.yul\":1134:1275   */\n    tag_280:\n        /* \"#utility.yul\":1190:1195   */\n      0x00\n        /* \"#utility.yul\":1221:1227   */\n      dup2\n        /* \"#utility.yul\":1215:1228   */\n      mload\n        /* \"#utility.yul\":1206:1228   */\n      swap1\n      pop\n        /* \"#utility.yul\":1237:1269   */\n      tag_282\n        /* \"#utility.yul\":1263:1268   */\n      dup2\n        /* \"#utility.yul\":1237:1269   */\n      tag_279\n      jump\t// in\n    tag_282:\n        /* \"#utility.yul\":1196:1275   */\n      swap3\n      swap2\n      pop\n      pop\n      jump\t// out\n        /* \"#utility.yul\":1294:1565   */\n    tag_283:\n        /* \"#utility.yul\":1349:1354   */\n      0x00\n        /* \"#utility.yul\":1398:1401   */\n      dup3\n        /* \"#utility.yul\":1391:1395   */\n      0x1f\n        /* \"#utility.yul\":1383:1389   */\n      dup4\n        /* \"#utility.yul\":1379:1396   */\n      add\n        /* \"#utility.yul\":1375:1402   */\n      slt\n        /* \"#utility.yul\":1365:1367   */\n      tag_285\n      jumpi\n        /* \"#utility.yul\":1416:1417   */\n      0x00\n        /* \"#utility.yul\":1413:1414   */\n      dup1\n        /* \"#utility.yul\":1406:1418   */\n      revert\n        /* \"#utility.yul\":1365:1367   */\n    tag_285:\n        /* \"#utility.yul\":1456:1462   */\n      dup2\n        /* \"#utility.yul\":1443:1463   */\n      calldataload\n        /* \"#utility.yul\":1481:1559   */\n      tag_286\n        /* \"#utility.yul\":1555:1558   */\n      dup5\n        /* \"#utility.yul\":1547:1553   */\n      dup3\n        /* \"#utility.yul\":1540:1544   */\n      0x20\n        /* \"#utility.yul\":1532:1538   */\n      dup7\n        /* \"#utility.yul\":1528:1545   */\n      add\n        /* \"#utility.yul\":1481:1559   */\n      tag_252\n      jump\t// in\n    tag_286:\n        /* \"#utility.yul\":1472:1559   */\n      swap2\n      pop\n        /* \"#utility.yul\":1355:1565   */\n      pop\n      swap3\n      swap2\n      pop\n      pop\n      jump\t// out\n        /* \"#utility.yul\":1585:1858   */\n    tag_287:\n        /* \"#utility.yul\":1641:1646   */\n      0x00\n        /* \"#utility.yul\":1690:1693   */\n      dup3\n        /* \"#utility.yul\":1683:1687   */\n      0x1f\n        /* \"#utility.yul\":1675:1681   */\n      dup4\n        /* \"#utility.yul\":1671:1688   */\n      add\n        /* \"#utility.yul\":1667:1694   */\n      slt\n        /* \"#utility.yul\":1657:1659   */\n      tag_289\n      jumpi\n        /* \"#utility.yul\":1708:1709   */\n      0x00\n        /* \"#utility.yul\":1705:1706   */\n      dup1\n        /* \"#utility.yul\":1698:1710   */\n      revert\n        /* \"#utility.yul\":1657:1659   */\n    tag_289:\n        /* \"#utility.yul\":1748:1754   */\n      dup2\n        /* \"#utility.yul\":1735:1755   */\n      calldataload\n        /* \"#utility.yul\":1773:1852   */\n      tag_290\n        /* \"#utility.yul\":1848:1851   */\n      dup5\n        /* \"#utility.yul\":1840:1846   */\n      dup3\n        /* \"#utility.yul\":1833:1837   */\n      0x20\n        /* \"#utility.yul\":1825:1831   */\n      dup7\n        /* \"#utility.yul\":1821:1838   */\n      add\n        /* \"#utility.yul\":1773:1852   */\n      tag_261\n      jump\t// in\n    tag_290:\n        /* \"#utility.yul\":1764:1852   */\n      swap2\n      pop\n        /* \"#utility.yul\":1647:1858   */\n      pop\n      swap3\n      swap2\n      pop\n      pop\n      jump\t// out\n        /* \"#utility.yul\":1864:2003   */\n    tag_291:\n        /* \"#utility.yul\":1910:1915   */\n      0x00\n        /* \"#utility.yul\":1948:1954   */\n      dup2\n        /* \"#utility.yul\":1935:1955   */\n      calldataload\n        /* \"#utility.yul\":1926:1955   */\n      swap1\n      pop\n        /* \"#utility.yul\":1964:1997   */\n      tag_293\n        /* \"#utility.yul\":1991:1996   */\n      dup2\n        /* \"#utility.yul\":1964:1997   */\n      tag_294\n      jump\t// in\n    tag_293:\n        /* \"#utility.yul\":1916:2003   */\n      swap3\n      swap2\n      pop\n      pop\n      jump\t// out\n        /* \"#utility.yul\":2009:2271   */\n    tag_53:\n        /* \"#utility.yul\":2068:2074   */\n      0x00\n        /* \"#utility.yul\":2117:2119   */\n      0x20\n        /* \"#utility.yul\":2105:2114   */\n      dup3\n        /* \"#utility.yul\":2096:2103   */\n      dup5\n        /* \"#utility.yul\":2092:2115   */\n      sub\n        /* \"#utility.yul\":2088:2120   */\n      slt\n        /* \"#utility.yul\":2085:2087   */\n      iszero\n      tag_296\n      jumpi\n        /* \"#utility.yul\":2133:2134   */\n      0x00\n        /* \"#utility.yul\":2130:2131   */\n      dup1\n        /* \"#utility.yul\":2123:2135   */\n      revert\n        /* \"#utility.yul\":2085:2087   */\n    tag_296:\n        /* \"#utility.yul\":2176:2177   */\n      0x00\n        /* \"#utility.yul\":2201:2254   */\n      tag_297\n        /* \"#utility.yul\":2246:2253   */\n      dup5\n        /* \"#utility.yul\":2237:2243   */\n      dup3\n        /* \"#utility.yul\":2226:2235   */\n      dup6\n        /* \"#utility.yul\":2222:2244   */\n      add\n        /* \"#utility.yul\":2201:2254   */\n      tag_268\n      jump\t// in\n    tag_297:\n        /* \"#utility.yul\":2191:2254   */\n      swap2\n      pop\n        /* \"#utility.yul\":2147:2264   */\n      pop\n        /* \"#utility.yul\":2075:2271   */\n      swap3\n      swap2\n      pop\n      pop\n      jump\t// out\n        /* \"#utility.yul\":2277:2684   */\n    tag_78:\n        /* \"#utility.yul\":2345:2351   */\n      0x00\n        /* \"#utility.yul\":2353:2359   */\n      dup1\n        /* \"#utility.yul\":2402:2404   */\n      0x40\n        /* \"#utility.yul\":2390:2399   */\n      dup4\n        /* \"#utility.yul\":2381:2388   */\n      dup6\n        /* \"#utility.yul\":2377:2400   */\n      sub\n        /* \"#utility.yul\":2373:2405   */\n      slt\n        /* \"#utility.yul\":2370:2372   */\n      iszero\n      tag_299\n      jumpi\n        /* \"#utility.yul\":2418:2419   */\n      0x00\n        /* \"#utility.yul\":2415:2416   */\n      dup1\n        /* \"#utility.yul\":2408:2420   */\n      revert\n        /* \"#utility.yul\":2370:2372   */\n    tag_299:\n        /* \"#utility.yul\":2461:2462   */\n      0x00\n        /* \"#utility.yul\":2486:2539   */\n      tag_300\n        /* \"#utility.yul\":2531:2538   */\n      dup6\n        /* \"#utility.yul\":2522:2528   */\n      dup3\n        /* \"#utility.yul\":2511:2520   */\n      dup7\n        /* \"#utility.yul\":2507:2529   */\n      add\n        /* \"#utility.yul\":2486:2539   */\n      tag_268\n      jump\t// in\n    tag_300:\n        /* \"#utility.yul\":2476:2539   */\n      swap3\n      pop\n        /* \"#utility.yul\":2432:2549   */\n      pop\n        /* \"#utility.yul\":2588:2590   */\n      0x20\n        /* \"#utility.yul\":2614:2667   */\n      tag_301\n        /* \"#utility.yul\":2659:2666   */\n      dup6\n        /* \"#utility.yul\":2650:2656   */\n      dup3\n        /* \"#utility.yul\":2639:2648   */\n      dup7\n        /* \"#utility.yul\":2635:2657   */\n      add\n        /* \"#utility.yul\":2614:2667   */\n      tag_268\n      jump\t// in\n    tag_301:\n        /* \"#utility.yul\":2604:2667   */\n      swap2\n      pop\n        /* \"#utility.yul\":2559:2677   */\n      pop\n        /* \"#utility.yul\":2360:2684   */\n      swap3\n      pop\n      swap3\n      swap1\n      pop\n      jump\t// out\n        /* \"#utility.yul\":2690:3242   */\n    tag_42:\n        /* \"#utility.yul\":2767:2773   */\n      0x00\n        /* \"#utility.yul\":2775:2781   */\n      dup1\n        /* \"#utility.yul\":2783:2789   */\n      0x00\n        /* \"#utility.yul\":2832:2834   */\n      0x60\n        /* \"#utility.yul\":2820:2829   */\n      dup5\n        /* \"#utility.yul\":2811:2818   */\n      dup7\n        /* \"#utility.yul\":2807:2830   */\n      sub\n        /* \"#utility.yul\":2803:2835   */\n      slt\n        /* \"#utility.yul\":2800:2802   */\n      iszero\n      tag_303\n      jumpi\n        /* \"#utility.yul\":2848:2849   */\n      0x00\n        /* \"#utility.yul\":2845:2846   */\n      dup1\n        /* \"#utility.yul\":2838:2850   */\n      revert\n        /* \"#utility.yul\":2800:2802   */\n    tag_303:\n        /* \"#utility.yul\":2891:2892   */\n      0x00\n        /* \"#utility.yul\":2916:2969   */\n      tag_304\n        /* \"#utility.yul\":2961:2968   */\n      dup7\n        /* \"#utility.yul\":2952:2958   */\n      dup3\n        /* \"#utility.yul\":2941:2950   */\n      dup8\n        /* \"#utility.yul\":2937:2959   */\n      add\n        /* \"#utility.yul\":2916:2969   */\n      tag_268\n      jump\t// in\n    tag_304:\n        /* \"#utility.yul\":2906:2969   */\n      swap4\n      pop\n        /* \"#utility.yul\":2862:2979   */\n      pop\n        /* \"#utility.yul\":3018:3020   */\n      0x20\n        /* \"#utility.yul\":3044:3097   */\n      tag_305\n        /* \"#utility.yul\":3089:3096   */\n      dup7\n        /* \"#utility.yul\":3080:3086   */\n      dup3\n        /* \"#utility.yul\":3069:3078   */\n      dup8\n        /* \"#utility.yul\":3065:3087   */\n      add\n        /* \"#utility.yul\":3044:3097   */\n      tag_268\n      jump\t// in\n    tag_305:\n        /* \"#utility.yul\":3034:3097   */\n      swap3\n      pop\n        /* \"#utility.yul\":2989:3107   */\n      pop\n        /* \"#utility.yul\":3146:3148   */\n      0x40\n        /* \"#utility.yul\":3172:3225   */\n      tag_306\n        /* \"#utility.yul\":3217:3224   */\n      dup7\n        /* \"#utility.yul\":3208:3214   */\n      dup3\n        /* \"#utility.yul\":3197:3206   */\n      dup8\n        /* \"#utility.yul\":3193:3215   */\n      add\n        /* \"#utility.yul\":3172:3225   */\n      tag_291\n      jump\t// in\n    tag_306:\n        /* \"#utility.yul\":3162:3225   */\n      swap2\n      pop\n        /* \"#utility.yul\":3117:3235   */\n      pop\n        /* \"#utility.yul\":2790:3242   */\n      swap3\n      pop\n      swap3\n      pop\n      swap3\n      jump\t// out\n        /* \"#utility.yul\":3248:4057   */\n    tag_66:\n        /* \"#utility.yul\":3343:3349   */\n      0x00\n        /* \"#utility.yul\":3351:3357   */\n      dup1\n        /* \"#utility.yul\":3359:3365   */\n      0x00\n        /* \"#utility.yul\":3367:3373   */\n      dup1\n        /* \"#utility.yul\":3416:3419   */\n      0x80\n        /* \"#utility.yul\":3404:3413   */\n      dup6\n        /* \"#utility.yul\":3395:3402   */\n      dup8\n        /* \"#utility.yul\":3391:3414   */\n      sub\n        /* \"#utility.yul\":3387:3420   */\n      slt\n        /* \"#utility.yul\":3384:3386   */\n      iszero\n      tag_308\n      jumpi\n        /* \"#utility.yul\":3433:3434   */\n      0x00\n        /* \"#utility.yul\":3430:3431   */\n      dup1\n        /* \"#utility.yul\":3423:3435   */\n      revert\n        /* \"#utility.yul\":3384:3386   */\n    tag_308:\n        /* \"#utility.yul\":3476:3477   */\n      0x00\n        /* \"#utility.yul\":3501:3554   */\n      tag_309\n        /* \"#utility.yul\":3546:3553   */\n      dup8\n        /* \"#utility.yul\":3537:3543   */\n      dup3\n        /* \"#utility.yul\":3526:3535   */\n      dup9\n        /* \"#utility.yul\":3522:3544   */\n      add\n        /* \"#utility.yul\":3501:3554   */\n      tag_268\n      jump\t// in\n    tag_309:\n        /* \"#utility.yul\":3491:3554   */\n      swap5\n      pop\n        /* \"#utility.yul\":3447:3564   */\n      pop\n        /* \"#utility.yul\":3603:3605   */\n      0x20\n        /* \"#utility.yul\":3629:3682   */\n      tag_310\n        /* \"#utility.yul\":3674:3681   */\n      dup8\n        /* \"#utility.yul\":3665:3671   */\n      dup3\n        /* \"#utility.yul\":3654:3663   */\n      dup9\n        /* \"#utility.yul\":3650:3672   */\n      add\n        /* \"#utility.yul\":3629:3682   */\n      tag_268\n      jump\t// in\n    tag_310:\n        /* \"#utility.yul\":3619:3682   */\n      swap4\n      pop\n        /* \"#utility.yul\":3574:3692   */\n      pop\n        /* \"#utility.yul\":3731:3733   */\n      0x40\n        /* \"#utility.yul\":3757:3810   */\n      tag_311\n        /* \"#utility.yul\":3802:3809   */\n      dup8\n        /* \"#utility.yul\":3793:3799   */\n      dup3\n        /* \"#utility.yul\":3782:3791   */\n      dup9\n        /* \"#utility.yul\":3778:3800   */\n      add\n        /* \"#utility.yul\":3757:3810   */\n      tag_291\n      jump\t// in\n    tag_311:\n        /* \"#utility.yul\":3747:3810   */\n      swap3\n      pop\n        /* \"#utility.yul\":3702:3820   */\n      pop\n        /* \"#utility.yul\":3887:3889   */\n      0x60\n        /* \"#utility.yul\":3876:3885   */\n      dup6\n        /* \"#utility.yul\":3872:3890   */\n      add\n        /* \"#utility.yul\":3859:3891   */\n      calldataload\n        /* \"#utility.yul\":3918:3936   */\n      0xffffffffffffffff\n        /* \"#utility.yul\":3910:3916   */\n      dup2\n        /* \"#utility.yul\":3907:3937   */\n      gt\n        /* \"#utility.yul\":3904:3906   */\n      iszero\n      tag_312\n      jumpi\n        /* \"#utility.yul\":3950:3951   */\n      0x00\n        /* \"#utility.yul\":3947:3948   */\n      dup1\n        /* \"#utility.yul\":3940:3952   */\n      revert\n        /* \"#utility.yul\":3904:3906   */\n    tag_312:\n        /* \"#utility.yul\":3978:4040   */\n      tag_313\n        /* \"#utility.yul\":4032:4039   */\n      dup8\n        /* \"#utility.yul\":4023:4029   */\n      dup3\n        /* \"#utility.yul\":4012:4021   */\n      dup9\n        /* \"#utility.yul\":4008:4030   */\n      add\n        /* \"#utility.yul\":3978:4040   */\n      tag_283\n      jump\t// in\n    tag_313:\n        /* \"#utility.yul\":3968:4040   */\n      swap2\n      pop\n        /* \"#utility.yul\":3830:4050   */\n      pop\n        /* \"#utility.yul\":3374:4057   */\n      swap3\n      swap6\n      swap2\n      swap5\n      pop\n      swap3\n      pop\n      jump\t// out\n        /* \"#utility.yul\":4063:4464   */\n    tag_62:\n        /* \"#utility.yul\":4128:4134   */\n      0x00\n        /* \"#utility.yul\":4136:4142   */\n      dup1\n        /* \"#utility.yul\":4185:4187   */\n      0x40\n        /* \"#utility.yul\":4173:4182   */\n      dup4\n        /* \"#utility.yul\":4164:4171   */\n      dup6\n        /* \"#utility.yul\":4160:4183   */\n      sub\n        /* \"#utility.yul\":4156:4188   */\n      slt\n        /* \"#utility.yul\":4153:4155   */\n      iszero\n      tag_315\n      jumpi\n        /* \"#utility.yul\":4201:4202   */\n      0x00\n        /* \"#utility.yul\":4198:4199   */\n      dup1\n        /* \"#utility.yul\":4191:4203   */\n      revert\n        /* \"#utility.yul\":4153:4155   */\n    tag_315:\n        /* \"#utility.yul\":4244:4245   */\n      0x00\n        /* \"#utility.yul\":4269:4322   */\n      tag_316\n        /* \"#utility.yul\":4314:4321   */\n      dup6\n        /* \"#utility.yul\":4305:4311   */\n      dup3\n        /* \"#utility.yul\":4294:4303   */\n      dup7\n        /* \"#utility.yul\":4290:4312   */\n      add\n        /* \"#utility.yul\":4269:4322   */\n      tag_268\n      jump\t// in\n    tag_316:\n        /* \"#utility.yul\":4259:4322   */\n      swap3\n      pop\n        /* \"#utility.yul\":4215:4332   */\n      pop\n        /* \"#utility.yul\":4371:4373   */\n      0x20\n        /* \"#utility.yul\":4397:4447   */\n      tag_317\n        /* \"#utility.yul\":4439:4446   */\n      dup6\n        /* \"#utility.yul\":4430:4436   */\n      dup3\n        /* \"#utility.yul\":4419:4428   */\n      dup7\n        /* \"#utility.yul\":4415:4437   */\n      add\n        /* \"#utility.yul\":4397:4447   */\n      tag_272\n      jump\t// in\n    tag_317:\n        /* \"#utility.yul\":4387:4447   */\n      swap2\n      pop\n        /* \"#utility.yul\":4342:4457   */\n      pop\n        /* \"#utility.yul\":4143:4464   */\n      swap3\n      pop\n      swap3\n      swap1\n      pop\n      jump\t// out\n        /* \"#utility.yul\":4470:4877   */\n    tag_38:\n        /* \"#utility.yul\":4538:4544   */\n      0x00\n        /* \"#utility.yul\":4546:4552   */\n      dup1\n        /* \"#utility.yul\":4595:4597   */\n      0x40\n        /* \"#utility.yul\":4583:4592   */\n      dup4\n        /* \"#utility.yul\":4574:4581   */\n      dup6\n        /* \"#utility.yul\":4570:4593   */\n      sub\n        /* \"#utility.yul\":4566:4598   */\n      slt\n        /* \"#utility.yul\":4563:4565   */\n      iszero\n      tag_319\n      jumpi\n        /* \"#utility.yul\":4611:4612   */\n      0x00\n        /* \"#utility.yul\":4608:4609   */\n      dup1\n        /* \"#utility.yul\":4601:4613   */\n      revert\n        /* \"#utility.yul\":4563:4565   */\n    tag_319:\n        /* \"#utility.yul\":4654:4655   */\n      0x00\n        /* \"#utility.yul\":4679:4732   */\n      tag_320\n        /* \"#utility.yul\":4724:4731   */\n      dup6\n        /* \"#utility.yul\":4715:4721   */\n      dup3\n        /* \"#utility.yul\":4704:4713   */\n      dup7\n        /* \"#utility.yul\":4700:4722   */\n      add\n        /* \"#utility.yul\":4679:4732   */\n      tag_268\n      jump\t// in\n    tag_320:\n        /* \"#utility.yul\":4669:4732   */\n      swap3\n      pop\n        /* \"#utility.yul\":4625:4742   */\n      pop\n        /* \"#utility.yul\":4781:4783   */\n      0x20\n        /* \"#utility.yul\":4807:4860   */\n      tag_321\n        /* \"#utility.yul\":4852:4859   */\n      dup6\n        /* \"#utility.yul\":4843:4849   */\n      dup3\n        /* \"#utility.yul\":4832:4841   */\n      dup7\n        /* \"#utility.yul\":4828:4850   */\n      add\n        /* \"#utility.yul\":4807:4860   */\n      tag_291\n      jump\t// in\n    tag_321:\n        /* \"#utility.yul\":4797:4860   */\n      swap2\n      pop\n        /* \"#utility.yul\":4752:4870   */\n      pop\n        /* \"#utility.yul\":4553:4877   */\n      swap3\n      pop\n      swap3\n      swap1\n      pop\n      jump\t// out\n        /* \"#utility.yul\":4883:5548   */\n    tag_74:\n        /* \"#utility.yul\":4970:4976   */\n      0x00\n        /* \"#utility.yul\":4978:4984   */\n      dup1\n        /* \"#utility.yul\":4986:4992   */\n      0x00\n        /* \"#utility.yul\":5035:5037   */\n      0x60\n        /* \"#utility.yul\":5023:5032   */\n      dup5\n        /* \"#utility.yul\":5014:5021   */\n      dup7\n        /* \"#utility.yul\":5010:5033   */\n      sub\n        /* \"#utility.yul\":5006:5038   */\n      slt\n        /* \"#utility.yul\":5003:5005   */\n      iszero\n      tag_323\n      jumpi\n        /* \"#utility.yul\":5051:5052   */\n      0x00\n        /* \"#utility.yul\":5048:5049   */\n      dup1\n        /* \"#utility.yul\":5041:5053   */\n      revert\n        /* \"#utility.yul\":5003:5005   */\n    tag_323:\n        /* \"#utility.yul\":5094:5095   */\n      0x00\n        /* \"#utility.yul\":5119:5172   */\n      tag_324\n        /* \"#utility.yul\":5164:5171   */\n      dup7\n        /* \"#utility.yul\":5155:5161   */\n      dup3\n        /* \"#utility.yul\":5144:5153   */\n      dup8\n        /* \"#utility.yul\":5140:5162   */\n      add\n        /* \"#utility.yul\":5119:5172   */\n      tag_268\n      jump\t// in\n    tag_324:\n        /* \"#utility.yul\":5109:5172   */\n      swap4\n      pop\n        /* \"#utility.yul\":5065:5182   */\n      pop\n        /* \"#utility.yul\":5221:5223   */\n      0x20\n        /* \"#utility.yul\":5247:5300   */\n      tag_325\n        /* \"#utility.yul\":5292:5299   */\n      dup7\n        /* \"#utility.yul\":5283:5289   */\n      dup3\n        /* \"#utility.yul\":5272:5281   */\n      dup8\n        /* \"#utility.yul\":5268:5290   */\n      add\n        /* \"#utility.yul\":5247:5300   */\n      tag_291\n      jump\t// in\n    tag_325:\n        /* \"#utility.yul\":5237:5300   */\n      swap3\n      pop\n        /* \"#utility.yul\":5192:5310   */\n      pop\n        /* \"#utility.yul\":5377:5379   */\n      0x40\n        /* \"#utility.yul\":5366:5375   */\n      dup5\n        /* \"#utility.yul\":5362:5380   */\n      add\n        /* \"#utility.yul\":5349:5381   */\n      calldataload\n        /* \"#utility.yul\":5408:5426   */\n      0xffffffffffffffff\n        /* \"#utility.yul\":5400:5406   */\n      dup2\n        /* \"#utility.yul\":5397:5427   */\n      gt\n        /* \"#utility.yul\":5394:5396   */\n      iszero\n      tag_326\n      jumpi\n        /* \"#utility.yul\":5440:5441   */\n      0x00\n        /* \"#utility.yul\":5437:5438   */\n      dup1\n        /* \"#utility.yul\":5430:5442   */\n      revert\n        /* \"#utility.yul\":5394:5396   */\n    tag_326:\n        /* \"#utility.yul\":5468:5531   */\n      tag_327\n        /* \"#utility.yul\":5523:5530   */\n      dup7\n        /* \"#utility.yul\":5514:5520   */\n      dup3\n        /* \"#utility.yul\":5503:5512   */\n      dup8\n        /* \"#utility.yul\":5499:5521   */\n      add\n        /* \"#utility.yul\":5468:5531   */\n      tag_287\n      jump\t// in\n    tag_327:\n        /* \"#utility.yul\":5458:5531   */\n      swap2\n      pop\n        /* \"#utility.yul\":5320:5541   */\n      pop\n        /* \"#utility.yul\":4993:5548   */\n      swap3\n      pop\n      swap3\n      pop\n      swap3\n      jump\t// out\n        /* \"#utility.yul\":5554:5814   */\n    tag_22:\n        /* \"#utility.yul\":5612:5618   */\n      0x00\n        /* \"#utility.yul\":5661:5663   */\n      0x20\n        /* \"#utility.yul\":5649:5658   */\n      dup3\n        /* \"#utility.yul\":5640:5647   */\n      dup5\n        /* \"#utility.yul\":5636:5659   */\n      sub\n        /* \"#utility.yul\":5632:5664   */\n      slt\n        /* \"#utility.yul\":5629:5631   */\n      iszero\n      tag_329\n      jumpi\n        /* \"#utility.yul\":5677:5678   */\n      0x00\n        /* \"#utility.yul\":5674:5675   */\n      dup1\n        /* \"#utility.yul\":5667:5679   */\n      revert\n        /* \"#utility.yul\":5629:5631   */\n    tag_329:\n        /* \"#utility.yul\":5720:5721   */\n      0x00\n        /* \"#utility.yul\":5745:5797   */\n      tag_330\n        /* \"#utility.yul\":5789:5796   */\n      dup5\n        /* \"#utility.yul\":5780:5786   */\n      dup3\n        /* \"#utility.yul\":5769:5778   */\n      dup6\n        /* \"#utility.yul\":5765:5787   */\n      add\n        /* \"#utility.yul\":5745:5797   */\n      tag_276\n      jump\t// in\n    tag_330:\n        /* \"#utility.yul\":5735:5797   */\n      swap2\n      pop\n        /* \"#utility.yul\":5691:5807   */\n      pop\n        /* \"#utility.yul\":5619:5814   */\n      swap3\n      swap2\n      pop\n      pop\n      jump\t// out\n        /* \"#utility.yul\":5820:6102   */\n    tag_219:\n        /* \"#utility.yul\":5889:5895   */\n      0x00\n        /* \"#utility.yul\":5938:5940   */\n      0x20\n        /* \"#utility.yul\":5926:5935   */\n      dup3\n        /* \"#utility.yul\":5917:5924   */\n      dup5\n        /* \"#utility.yul\":5913:5936   */\n      sub\n        /* \"#utility.yul\":5909:5941   */\n      slt\n        /* \"#utility.yul\":5906:5908   */\n      iszero\n      tag_332\n      jumpi\n        /* \"#utility.yul\":5954:5955   */\n      0x00\n        /* \"#utility.yul\":5951:5952   */\n      dup1\n        /* \"#utility.yul\":5944:5956   */\n      revert\n        /* \"#utility.yul\":5906:5908   */\n    tag_332:\n        /* \"#utility.yul\":5997:5998   */\n      0x00\n        /* \"#utility.yul\":6022:6085   */\n      tag_333\n        /* \"#utility.yul\":6077:6084   */\n      dup5\n        /* \"#utility.yul\":6068:6074   */\n      dup3\n        /* \"#utility.yul\":6057:6066   */\n      dup6\n        /* \"#utility.yul\":6053:6075   */\n      add\n        /* \"#utility.yul\":6022:6085   */\n      tag_280\n      jump\t// in\n    tag_333:\n        /* \"#utility.yul\":6012:6085   */\n      swap2\n      pop\n        /* \"#utility.yul\":5968:6095   */\n      pop\n        /* \"#utility.yul\":5896:6102   */\n      swap3\n      swap2\n      pop\n      pop\n      jump\t// out\n        /* \"#utility.yul\":6108:6370   */\n    tag_32:\n        /* \"#utility.yul\":6167:6173   */\n      0x00\n        /* \"#utility.yul\":6216:6218   */\n      0x20\n        /* \"#utility.yul\":6204:6213   */\n      dup3\n        /* \"#utility.yul\":6195:6202   */\n      dup5\n        /* \"#utility.yul\":6191:6214   */\n      sub\n        /* \"#utility.yul\":6187:6219   */\n      slt\n        /* \"#utility.yul\":6184:6186   */\n      iszero\n      tag_335\n      jumpi\n        /* \"#utility.yul\":6232:6233   */\n      0x00\n        /* \"#utility.yul\":6229:6230   */\n      dup1\n        /* \"#utility.yul\":6222:6234   */\n      revert\n        /* \"#utility.yul\":6184:6186   */\n    tag_335:\n        /* \"#utility.yul\":6275:6276   */\n      0x00\n        /* \"#utility.yul\":6300:6353   */\n      tag_336\n        /* \"#utility.yul\":6345:6352   */\n      dup5\n        /* \"#utility.yul\":6336:6342   */\n      dup3\n        /* \"#utility.yul\":6325:6334   */\n      dup6\n        /* \"#utility.yul\":6321:6343   */\n      add\n        /* \"#utility.yul\":6300:6353   */\n      tag_291\n      jump\t// in\n    tag_336:\n        /* \"#utility.yul\":6290:6353   */\n      swap2\n      pop\n        /* \"#utility.yul\":6246:6363   */\n      pop\n        /* \"#utility.yul\":6174:6370   */\n      swap3\n      swap2\n      pop\n      pop\n      jump\t// out\n        /* \"#utility.yul\":6376:6494   */\n    tag_337:\n        /* \"#utility.yul\":6463:6487   */\n      tag_339\n        /* \"#utility.yul\":6481:6486   */\n      dup2\n        /* \"#utility.yul\":6463:6487   */\n      tag_340\n      jump\t// in\n    tag_339:\n        /* \"#utility.yul\":6458:6461   */\n      dup3\n        /* \"#utility.yul\":6451:6488   */\n      mstore\n        /* \"#utility.yul\":6441:6494   */\n      pop\n      pop\n      jump\t// out\n        /* \"#utility.yul\":6500:6609   */\n    tag_341:\n        /* \"#utility.yul\":6581:6602   */\n      tag_343\n        /* \"#utility.yul\":6596:6601   */\n      dup2\n        /* \"#utility.yul\":6581:6602   */\n      tag_344\n      jump\t// in\n    tag_343:\n        /* \"#utility.yul\":6576:6579   */\n      dup3\n        /* \"#utility.yul\":6569:6603   */\n      mstore\n        /* \"#utility.yul\":6559:6609   */\n      pop\n      pop\n      jump\t// out\n        /* \"#utility.yul\":6615:6975   */\n    tag_345:\n        /* \"#utility.yul\":6701:6704   */\n      0x00\n        /* \"#utility.yul\":6729:6767   */\n      tag_347\n        /* \"#utility.yul\":6761:6766   */\n      dup3\n        /* \"#utility.yul\":6729:6767   */\n      tag_348\n      jump\t// in\n    tag_347:\n        /* \"#utility.yul\":6783:6853   */\n      tag_349\n        /* \"#utility.yul\":6846:6852   */\n      dup2\n        /* \"#utility.yul\":6841:6844   */\n      dup6\n        /* \"#utility.yul\":6783:6853   */\n      tag_350\n      jump\t// in\n    tag_349:\n        /* \"#utility.yul\":6776:6853   */\n      swap4\n      pop\n        /* \"#utility.yul\":6862:6914   */\n      tag_351\n        /* \"#utility.yul\":6907:6913   */\n      dup2\n        /* \"#utility.yul\":6902:6905   */\n      dup6\n        /* \"#utility.yul\":6895:6899   */\n      0x20\n        /* \"#utility.yul\":6888:6893   */\n      dup7\n        /* \"#utility.yul\":6884:6900   */\n      add\n        /* \"#utility.yul\":6862:6914   */\n      tag_352\n      jump\t// in\n    tag_351:\n        /* \"#utility.yul\":6939:6968   */\n      tag_353\n        /* \"#utility.yul\":6961:6967   */\n      dup2\n        /* \"#utility.yul\":6939:6968   */\n      tag_354\n      jump\t// in\n    tag_353:\n        /* \"#utility.yul\":6934:6937   */\n      dup5\n        /* \"#utility.yul\":6930:6969   */\n      add\n        /* \"#utility.yul\":6923:6969   */\n      swap2\n      pop\n        /* \"#utility.yul\":6705:6975   */\n      pop\n      swap3\n      swap2\n      pop\n      pop\n      jump\t// out\n        /* \"#utility.yul\":6981:7345   */\n    tag_355:\n        /* \"#utility.yul\":7069:7072   */\n      0x00\n        /* \"#utility.yul\":7097:7136   */\n      tag_357\n        /* \"#utility.yul\":7130:7135   */\n      dup3\n        /* \"#utility.yul\":7097:7136   */\n      tag_358\n      jump\t// in\n    tag_357:\n        /* \"#utility.yul\":7152:7223   */\n      tag_359\n        /* \"#utility.yul\":7216:7222   */\n      dup2\n        /* \"#utility.yul\":7211:7214   */\n      dup6\n        /* \"#utility.yul\":7152:7223   */\n      tag_360\n      jump\t// in\n    tag_359:\n        /* \"#utility.yul\":7145:7223   */\n      swap4\n      pop\n        /* \"#utility.yul\":7232:7284   */\n      tag_361\n        /* \"#utility.yul\":7277:7283   */\n      dup2\n        /* \"#utility.yul\":7272:7275   */\n      dup6\n        /* \"#utility.yul\":7265:7269   */\n      0x20\n        /* \"#utility.yul\":7258:7263   */\n      dup7\n        /* \"#utility.yul\":7254:7270   */\n      add\n        /* \"#utility.yul\":7232:7284   */\n      tag_352\n      jump\t// in\n    tag_361:\n        /* \"#utility.yul\":7309:7338   */\n      tag_362\n        /* \"#utility.yul\":7331:7337   */\n      dup2\n        /* \"#utility.yul\":7309:7338   */\n      tag_354\n      jump\t// in\n    tag_362:\n        /* \"#utility.yul\":7304:7307   */\n      dup5\n        /* \"#utility.yul\":7300:7339   */\n      add\n        /* \"#utility.yul\":7293:7339   */\n      swap2\n      pop\n        /* \"#utility.yul\":7073:7345   */\n      pop\n      swap3\n      swap2\n      pop\n      pop\n      jump\t// out\n        /* \"#utility.yul\":7351:7728   */\n    tag_363:\n        /* \"#utility.yul\":7457:7460   */\n      0x00\n        /* \"#utility.yul\":7485:7524   */\n      tag_365\n        /* \"#utility.yul\":7518:7523   */\n      dup3\n        /* \"#utility.yul\":7485:7524   */\n      tag_358\n      jump\t// in\n    tag_365:\n        /* \"#utility.yul\":7540:7629   */\n      tag_366\n        /* \"#utility.yul\":7622:7628   */\n      dup2\n        /* \"#utility.yul\":7617:7620   */\n      dup6\n        /* \"#utility.yul\":7540:7629   */\n      tag_367\n      jump\t// in\n    tag_366:\n        /* \"#utility.yul\":7533:7629   */\n      swap4\n      pop\n        /* \"#utility.yul\":7638:7690   */\n      tag_368\n        /* \"#utility.yul\":7683:7689   */\n      dup2\n        /* \"#utility.yul\":7678:7681   */\n      dup6\n        /* \"#utility.yul\":7671:7675   */\n      0x20\n        /* \"#utility.yul\":7664:7669   */\n      dup7\n        /* \"#utility.yul\":7660:7676   */\n      add\n        /* \"#utility.yul\":7638:7690   */\n      tag_352\n      jump\t// in\n    tag_368:\n        /* \"#utility.yul\":7715:7721   */\n      dup1\n        /* \"#utility.yul\":7710:7713   */\n      dup5\n        /* \"#utility.yul\":7706:7722   */\n      add\n        /* \"#utility.yul\":7699:7722   */\n      swap2\n      pop\n        /* \"#utility.yul\":7461:7728   */\n      pop\n      swap3\n      swap2\n      pop\n      pop\n      jump\t// out\n        /* \"#utility.yul\":7734:8100   */\n    tag_369:\n        /* \"#utility.yul\":7876:7879   */\n      0x00\n        /* \"#utility.yul\":7897:7964   */\n      tag_371\n        /* \"#utility.yul\":7961:7963   */\n      0x2d\n        /* \"#utility.yul\":7956:7959   */\n      dup4\n        /* \"#utility.yul\":7897:7964   */\n      tag_360\n      jump\t// in\n    tag_371:\n        /* \"#utility.yul\":7890:7964   */\n      swap2\n      pop\n        /* \"#utility.yul\":7973:8066   */\n      tag_372\n        /* \"#utility.yul\":8062:8065   */\n      dup3\n        /* \"#utility.yul\":7973:8066   */\n      tag_373\n      jump\t// in\n    tag_372:\n        /* \"#utility.yul\":8091:8093   */\n      0x40\n        /* \"#utility.yul\":8086:8089   */\n      dup3\n        /* \"#utility.yul\":8082:8094   */\n      add\n        /* \"#utility.yul\":8075:8094   */\n      swap1\n      pop\n        /* \"#utility.yul\":7880:8100   */\n      swap2\n      swap1\n      pop\n      jump\t// out\n        /* \"#utility.yul\":8106:8472   */\n    tag_374:\n        /* \"#utility.yul\":8248:8251   */\n      0x00\n        /* \"#utility.yul\":8269:8336   */\n      tag_376\n        /* \"#utility.yul\":8333:8335   */\n      0x32\n        /* \"#utility.yul\":8328:8331   */\n      dup4\n        /* \"#utility.yul\":8269:8336   */\n      tag_360\n      jump\t// in\n    tag_376:\n        /* \"#utility.yul\":8262:8336   */\n      swap2\n      pop\n        /* \"#utility.yul\":8345:8438   */\n      tag_377\n        /* \"#utility.yul\":8434:8437   */\n      dup3\n        /* \"#utility.yul\":8345:8438   */\n      tag_378\n      jump\t// in\n    tag_377:\n        /* \"#utility.yul\":8463:8465   */\n      0x40\n        /* \"#utility.yul\":8458:8461   */\n      dup3\n        /* \"#utility.yul\":8454:8466   */\n      add\n        /* \"#utility.yul\":8447:8466   */\n      swap1\n      pop\n        /* \"#utility.yul\":8252:8472   */\n      swap2\n      swap1\n      pop\n      jump\t// out\n        /* \"#utility.yul\":8478:8844   */\n    tag_379:\n        /* \"#utility.yul\":8620:8623   */\n      0x00\n        /* \"#utility.yul\":8641:8708   */\n      tag_381\n        /* \"#utility.yul\":8705:8707   */\n      0x25\n        /* \"#utility.yul\":8700:8703   */\n      dup4\n        /* \"#utility.yul\":8641:8708   */\n      tag_360\n      jump\t// in\n    tag_381:\n        /* \"#utility.yul\":8634:8708   */\n      swap2\n      pop\n        /* \"#utility.yul\":8717:8810   */\n      tag_382\n        /* \"#utility.yul\":8806:8809   */\n      dup3\n        /* \"#utility.yul\":8717:8810   */\n      tag_383\n      jump\t// in\n    tag_382:\n        /* \"#utility.yul\":8835:8837   */\n      0x40\n        /* \"#utility.yul\":8830:8833   */\n      dup3\n        /* \"#utility.yul\":8826:8838   */\n      add\n        /* \"#utility.yul\":8819:8838   */\n      swap1\n      pop\n        /* \"#utility.yul\":8624:8844   */\n      swap2\n      swap1\n      pop\n      jump\t// out\n        /* \"#utility.yul\":8850:9216   */\n    tag_384:\n        /* \"#utility.yul\":8992:8995   */\n      0x00\n        /* \"#utility.yul\":9013:9080   */\n      tag_386\n        /* \"#utility.yul\":9077:9079   */\n      0x1c\n        /* \"#utility.yul\":9072:9075   */\n      dup4\n        /* \"#utility.yul\":9013:9080   */\n      tag_360\n      jump\t// in\n    tag_386:\n        /* \"#utility.yul\":9006:9080   */\n      swap2\n      pop\n        /* \"#utility.yul\":9089:9182   */\n      tag_387\n        /* \"#utility.yul\":9178:9181   */\n      dup3\n        /* \"#utility.yul\":9089:9182   */\n      tag_388\n      jump\t// in\n    tag_387:\n        /* \"#utility.yul\":9207:9209   */\n      0x20\n        /* \"#utility.yul\":9202:9205   */\n      dup3\n        /* \"#utility.yul\":9198:9210   */\n      add\n        /* \"#utility.yul\":9191:9210   */\n      swap1\n      pop\n        /* \"#utility.yul\":8996:9216   */\n      swap2\n      swap1\n      pop\n      jump\t// out\n        /* \"#utility.yul\":9222:9588   */\n    tag_389:\n        /* \"#utility.yul\":9364:9367   */\n      0x00\n        /* \"#utility.yul\":9385:9452   */\n      tag_391\n        /* \"#utility.yul\":9449:9451   */\n      0x24\n        /* \"#utility.yul\":9444:9447   */\n      dup4\n        /* \"#utility.yul\":9385:9452   */\n      tag_360\n      jump\t// in\n    tag_391:\n        /* \"#utility.yul\":9378:9452   */\n      swap2\n      pop\n        /* \"#utility.yul\":9461:9554   */\n      tag_392\n        /* \"#utility.yul\":9550:9553   */\n      dup3\n        /* \"#utility.yul\":9461:9554   */\n      tag_393\n      jump\t// in\n    tag_392:\n        /* \"#utility.yul\":9579:9581   */\n      0x40\n        /* \"#utility.yul\":9574:9577   */\n      dup3\n        /* \"#utility.yul\":9570:9582   */\n      add\n        /* \"#utility.yul\":9563:9582   */\n      swap1\n      pop\n        /* \"#utility.yul\":9368:9588   */\n      swap2\n      swap1\n      pop\n      jump\t// out\n        /* \"#utility.yul\":9594:9960   */\n    tag_394:\n        /* \"#utility.yul\":9736:9739   */\n      0x00\n        /* \"#utility.yul\":9757:9824   */\n      tag_396\n        /* \"#utility.yul\":9821:9823   */\n      0x19\n        /* \"#utility.yul\":9816:9819   */\n      dup4\n        /* \"#utility.yul\":9757:9824   */\n      tag_360\n      jump\t// in\n    tag_396:\n        /* \"#utility.yul\":9750:9824   */\n      swap2\n      pop\n        /* \"#utility.yul\":9833:9926   */\n      tag_397\n        /* \"#utility.yul\":9922:9925   */\n      dup3\n        /* \"#utility.yul\":9833:9926   */\n      tag_398\n      jump\t// in\n    tag_397:\n        /* \"#utility.yul\":9951:9953   */\n      0x20\n        /* \"#utility.yul\":9946:9949   */\n      dup3\n        /* \"#utility.yul\":9942:9954   */\n      add\n        /* \"#utility.yul\":9935:9954   */\n      swap1\n      pop\n        /* \"#utility.yul\":9740:9960   */\n      swap2\n      swap1\n      pop\n      jump\t// out\n        /* \"#utility.yul\":9966:10332   */\n    tag_399:\n        /* \"#utility.yul\":10108:10111   */\n      0x00\n        /* \"#utility.yul\":10129:10196   */\n      tag_401\n        /* \"#utility.yul\":10193:10195   */\n      0x29\n        /* \"#utility.yul\":10188:10191   */\n      dup4\n        /* \"#utility.yul\":10129:10196   */\n      tag_360\n      jump\t// in\n    tag_401:\n        /* \"#utility.yul\":10122:10196   */\n      swap2\n      pop\n        /* \"#utility.yul\":10205:10298   */\n      tag_402\n        /* \"#utility.yul\":10294:10297   */\n      dup3\n        /* \"#utility.yul\":10205:10298   */\n      tag_403\n      jump\t// in\n    tag_402:\n        /* \"#utility.yul\":10323:10325   */\n      0x40\n        /* \"#utility.yul\":10318:10321   */\n      dup3\n        /* \"#utility.yul\":10314:10326   */\n      add\n        /* \"#utility.yul\":10307:10326   */\n      swap1\n      pop\n        /* \"#utility.yul\":10112:10332   */\n      swap2\n      swap1\n      pop\n      jump\t// out\n        /* \"#utility.yul\":10338:10704   */\n    tag_404:\n        /* \"#utility.yul\":10480:10483   */\n      0x00\n        /* \"#utility.yul\":10501:10568   */\n      tag_406\n        /* \"#utility.yul\":10565:10567   */\n      0x20\n        /* \"#utility.yul\":10560:10563   */\n      dup4\n        /* \"#utility.yul\":10501:10568   */\n      tag_360\n      jump\t// in\n    tag_406:\n        /* \"#utility.yul\":10494:10568   */\n      swap2\n      pop\n        /* \"#utility.yul\":10577:10670   */\n      tag_407\n        /* \"#utility.yul\":10666:10669   */\n      dup3\n        /* \"#utility.yul\":10577:10670   */\n      tag_408\n      jump\t// in\n    tag_407:\n        /* \"#utility.yul\":10695:10697   */\n      0x20\n        /* \"#utility.yul\":10690:10693   */\n      dup3\n        /* \"#utility.yul\":10686:10698   */\n      add\n        /* \"#utility.yul\":10679:10698   */\n      swap1\n      pop\n        /* \"#utility.yul\":10484:10704   */\n      swap2\n      swap1\n      pop\n      jump\t// out\n        /* \"#utility.yul\":10710:11076   */\n    tag_409:\n        /* \"#utility.yul\":10852:10855   */\n      0x00\n        /* \"#utility.yul\":10873:10940   */\n      tag_411\n        /* \"#utility.yul\":10937:10939   */\n      0x18\n        /* \"#utility.yul\":10932:10935   */\n      dup4\n        /* \"#utility.yul\":10873:10940   */\n      tag_360\n      jump\t// in\n    tag_411:\n        /* \"#utility.yul\":10866:10940   */\n      swap2\n      pop\n        /* \"#utility.yul\":10949:11042   */\n      tag_412\n        /* \"#utility.yul\":11038:11041   */\n      dup3\n        /* \"#utility.yul\":10949:11042   */\n      tag_413\n      jump\t// in\n    tag_412:\n        /* \"#utility.yul\":11067:11069   */\n      0x20\n        /* \"#utility.yul\":11062:11065   */\n      dup3\n        /* \"#utility.yul\":11058:11070   */\n      add\n        /* \"#utility.yul\":11051:11070   */\n      swap1\n      pop\n        /* \"#utility.yul\":10856:11076   */\n      swap2\n      swap1\n      pop\n      jump\t// out\n        /* \"#utility.yul\":11082:11448   */\n    tag_414:\n        /* \"#utility.yul\":11224:11227   */\n      0x00\n        /* \"#utility.yul\":11245:11312   */\n      tag_416\n        /* \"#utility.yul\":11309:11311   */\n      0x21\n        /* \"#utility.yul\":11304:11307   */\n      dup4\n        /* \"#utility.yul\":11245:11312   */\n      tag_360\n      jump\t// in\n    tag_416:\n        /* \"#utility.yul\":11238:11312   */\n      swap2\n      pop\n        /* \"#utility.yul\":11321:11414   */\n      tag_417\n        /* \"#utility.yul\":11410:11413   */\n      dup3\n        /* \"#utility.yul\":11321:11414   */\n      tag_418\n      jump\t// in\n    tag_417:\n        /* \"#utility.yul\":11439:11441   */\n      0x40\n        /* \"#utility.yul\":11434:11437   */\n      dup3\n        /* \"#utility.yul\":11430:11442   */\n      add\n        /* \"#utility.yul\":11423:11442   */\n      swap1\n      pop\n        /* \"#utility.yul\":11228:11448   */\n      swap2\n      swap1\n      pop\n      jump\t// out\n        /* \"#utility.yul\":11454:11820   */\n    tag_419:\n        /* \"#utility.yul\":11596:11599   */\n      0x00\n        /* \"#utility.yul\":11617:11684   */\n      tag_421\n        /* \"#utility.yul\":11681:11683   */\n      0x3d\n        /* \"#utility.yul\":11676:11679   */\n      dup4\n        /* \"#utility.yul\":11617:11684   */\n      tag_360\n      jump\t// in\n    tag_421:\n        /* \"#utility.yul\":11610:11684   */\n      swap2\n      pop\n        /* \"#utility.yul\":11693:11786   */\n      tag_422\n        /* \"#utility.yul\":11782:11785   */\n      dup3\n        /* \"#utility.yul\":11693:11786   */\n      tag_423\n      jump\t// in\n    tag_422:\n        /* \"#utility.yul\":11811:11813   */\n      0x40\n        /* \"#utility.yul\":11806:11809   */\n      dup3\n        /* \"#utility.yul\":11802:11814   */\n      add\n        /* \"#utility.yul\":11795:11814   */\n      swap1\n      pop\n        /* \"#utility.yul\":11600:11820   */\n      swap2\n      swap1\n      pop\n      jump\t// out\n        /* \"#utility.yul\":11826:11944   */\n    tag_424:\n        /* \"#utility.yul\":11913:11937   */\n      tag_426\n        /* \"#utility.yul\":11931:11936   */\n      dup2\n        /* \"#utility.yul\":11913:11937   */\n      tag_427\n      jump\t// in\n    tag_426:\n        /* \"#utility.yul\":11908:11911   */\n      dup3\n        /* \"#utility.yul\":11901:11938   */\n      mstore\n        /* \"#utility.yul\":11891:11944   */\n      pop\n      pop\n      jump\t// out\n        /* \"#utility.yul\":11950:12107   */\n    tag_428:\n        /* \"#utility.yul\":12055:12100   */\n      tag_430\n        /* \"#utility.yul\":12075:12099   */\n      tag_431\n        /* \"#utility.yul\":12093:12098   */\n      dup3\n        /* \"#utility.yul\":12075:12099   */\n      tag_427\n      jump\t// in\n    tag_431:\n        /* \"#utility.yul\":12055:12100   */\n      tag_432\n      jump\t// in\n    tag_430:\n        /* \"#utility.yul\":12050:12053   */\n      dup3\n        /* \"#utility.yul\":12043:12101   */\n      mstore\n        /* \"#utility.yul\":12033:12107   */\n      pop\n      pop\n      jump\t// out\n        /* \"#utility.yul\":12113:12529   */\n    tag_154:\n        /* \"#utility.yul\":12273:12276   */\n      0x00\n        /* \"#utility.yul\":12295:12390   */\n      tag_434\n        /* \"#utility.yul\":12386:12389   */\n      dup3\n        /* \"#utility.yul\":12377:12383   */\n      dup6\n        /* \"#utility.yul\":12295:12390   */\n      tag_363\n      jump\t// in\n    tag_434:\n        /* \"#utility.yul\":12288:12390   */\n      swap2\n      pop\n        /* \"#utility.yul\":12400:12475   */\n      tag_435\n        /* \"#utility.yul\":12471:12474   */\n      dup3\n        /* \"#utility.yul\":12462:12468   */\n      dup5\n        /* \"#utility.yul\":12400:12475   */\n      tag_428\n      jump\t// in\n    tag_435:\n        /* \"#utility.yul\":12500:12502   */\n      0x20\n        /* \"#utility.yul\":12495:12498   */\n      dup3\n        /* \"#utility.yul\":12491:12503   */\n      add\n        /* \"#utility.yul\":12484:12503   */\n      swap2\n      pop\n        /* \"#utility.yul\":12520:12523   */\n      dup2\n        /* \"#utility.yul\":12513:12523   */\n      swap1\n      pop\n        /* \"#utility.yul\":12277:12529   */\n      swap4\n      swap3\n      pop\n      pop\n      pop\n      jump\t// out\n        /* \"#utility.yul\":12535:12757   */\n    tag_35:\n        /* \"#utility.yul\":12628:12632   */\n      0x00\n        /* \"#utility.yul\":12666:12668   */\n      0x20\n        /* \"#utility.yul\":12655:12664   */\n      dup3\n        /* \"#utility.yul\":12651:12669   */\n      add\n        /* \"#utility.yul\":12643:12669   */\n      swap1\n      pop\n        /* \"#utility.yul\":12679:12750   */\n      tag_437\n        /* \"#utility.yul\":12747:12748   */\n      0x00\n        /* \"#utility.yul\":12736:12745   */\n      dup4\n        /* \"#utility.yul\":12732:12749   */\n      add\n        /* \"#utility.yul\":12723:12729   */\n      dup5\n        /* \"#utility.yul\":12679:12750   */\n      tag_337\n      jump\t// in\n    tag_437:\n        /* \"#utility.yul\":12633:12757   */\n      swap3\n      swap2\n      pop\n      pop\n      jump\t// out\n        /* \"#utility.yul\":12763:13403   */\n    tag_215:\n        /* \"#utility.yul\":12958:12962   */\n      0x00\n        /* \"#utility.yul\":12996:12999   */\n      0x80\n        /* \"#utility.yul\":12985:12994   */\n      dup3\n        /* \"#utility.yul\":12981:13000   */\n      add\n        /* \"#utility.yul\":12973:13000   */\n      swap1\n      pop\n        /* \"#utility.yul\":13010:13081   */\n      tag_439\n        /* \"#utility.yul\":13078:13079   */\n      0x00\n        /* \"#utility.yul\":13067:13076   */\n      dup4\n        /* \"#utility.yul\":13063:13080   */\n      add\n        /* \"#utility.yul\":13054:13060   */\n      dup8\n        /* \"#utility.yul\":13010:13081   */\n      tag_337\n      jump\t// in\n    tag_439:\n        /* \"#utility.yul\":13091:13163   */\n      tag_440\n        /* \"#utility.yul\":13159:13161   */\n      0x20\n        /* \"#utility.yul\":13148:13157   */\n      dup4\n        /* \"#utility.yul\":13144:13162   */\n      add\n        /* \"#utility.yul\":13135:13141   */\n      dup7\n        /* \"#utility.yul\":13091:13163   */\n      tag_337\n      jump\t// in\n    tag_440:\n        /* \"#utility.yul\":13173:13245   */\n      tag_441\n        /* \"#utility.yul\":13241:13243   */\n      0x40\n        /* \"#utility.yul\":13230:13239   */\n      dup4\n        /* \"#utility.yul\":13226:13244   */\n      add\n        /* \"#utility.yul\":13217:13223   */\n      dup6\n        /* \"#utility.yul\":13173:13245   */\n      tag_424\n      jump\t// in\n    tag_441:\n        /* \"#utility.yul\":13292:13301   */\n      dup2\n        /* \"#utility.yul\":13286:13290   */\n      dup2\n        /* \"#utility.yul\":13282:13302   */\n      sub\n        /* \"#utility.yul\":13277:13279   */\n      0x60\n        /* \"#utility.yul\":13266:13275   */\n      dup4\n        /* \"#utility.yul\":13262:13280   */\n      add\n        /* \"#utility.yul\":13255:13303   */\n      mstore\n        /* \"#utility.yul\":13320:13396   */\n      tag_442\n        /* \"#utility.yul\":13391:13395   */\n      dup2\n        /* \"#utility.yul\":13382:13388   */\n      dup5\n        /* \"#utility.yul\":13320:13396   */\n      tag_345\n      jump\t// in\n    tag_442:\n        /* \"#utility.yul\":13312:13396   */\n      swap1\n      pop\n        /* \"#utility.yul\":12963:13403   */\n      swap6\n      swap5\n      pop\n      pop\n      pop\n      pop\n      pop\n      jump\t// out\n        /* \"#utility.yul\":13409:13619   */\n    tag_25:\n        /* \"#utility.yul\":13496:13500   */\n      0x00\n        /* \"#utility.yul\":13534:13536   */\n      0x20\n        /* \"#utility.yul\":13523:13532   */\n      dup3\n        /* \"#utility.yul\":13519:13537   */\n      add\n        /* \"#utility.yul\":13511:13537   */\n      swap1\n      pop\n        /* \"#utility.yul\":13547:13612   */\n      tag_444\n        /* \"#utility.yul\":13609:13610   */\n      0x00\n        /* \"#utility.yul\":13598:13607   */\n      dup4\n        /* \"#utility.yul\":13594:13611   */\n      add\n        /* \"#utility.yul\":13585:13591   */\n      dup5\n        /* \"#utility.yul\":13547:13612   */\n      tag_341\n      jump\t// in\n    tag_444:\n        /* \"#utility.yul\":13501:13619   */\n      swap3\n      swap2\n      pop\n      pop\n      jump\t// out\n        /* \"#utility.yul\":13625:13938   */\n    tag_29:\n        /* \"#utility.yul\":13738:13742   */\n      0x00\n        /* \"#utility.yul\":13776:13778   */\n      0x20\n        /* \"#utility.yul\":13765:13774   */\n      dup3\n        /* \"#utility.yul\":13761:13779   */\n      add\n        /* \"#utility.yul\":13753:13779   */\n      swap1\n      pop\n        /* \"#utility.yul\":13825:13834   */\n      dup2\n        /* \"#utility.yul\":13819:13823   */\n      dup2\n        /* \"#utility.yul\":13815:13835   */\n      sub\n        /* \"#utility.yul\":13811:13812   */\n      0x00\n        /* \"#utility.yul\":13800:13809   */\n      dup4\n        /* \"#utility.yul\":13796:13813   */\n      add\n        /* \"#utility.yul\":13789:13836   */\n      mstore\n        /* \"#utility.yul\":13853:13931   */\n      tag_446\n        /* \"#utility.yul\":13926:13930   */\n      dup2\n        /* \"#utility.yul\":13917:13923   */\n      dup5\n        /* \"#utility.yul\":13853:13931   */\n      tag_355\n      jump\t// in\n    tag_446:\n        /* \"#utility.yul\":13845:13931   */\n      swap1\n      pop\n        /* \"#utility.yul\":13743:13938   */\n      swap3\n      swap2\n      pop\n      pop\n      jump\t// out\n        /* \"#utility.yul\":13944:14363   */\n    tag_117:\n        /* \"#utility.yul\":14110:14114   */\n      0x00\n        /* \"#utility.yul\":14148:14150   */\n      0x20\n        /* \"#utility.yul\":14137:14146   */\n      dup3\n        /* \"#utility.yul\":14133:14151   */\n      add\n        /* \"#utility.yul\":14125:14151   */\n      swap1\n      pop\n        /* \"#utility.yul\":14197:14206   */\n      dup2\n        /* \"#utility.yul\":14191:14195   */\n      dup2\n        /* \"#utility.yul\":14187:14207   */\n      sub\n        /* \"#utility.yul\":14183:14184   */\n      0x00\n        /* \"#utility.yul\":14172:14181   */\n      dup4\n        /* \"#utility.yul\":14168:14185   */\n      add\n        /* \"#utility.yul\":14161:14208   */\n      mstore\n        /* \"#utility.yul\":14225:14356   */\n      tag_448\n        /* \"#utility.yul\":14351:14355   */\n      dup2\n        /* \"#utility.yul\":14225:14356   */\n      tag_369\n      jump\t// in\n    tag_448:\n        /* \"#utility.yul\":14217:14356   */\n      swap1\n      pop\n        /* \"#utility.yul\":14115:14363   */\n      swap2\n      swap1\n      pop\n      jump\t// out\n        /* \"#utility.yul\":14369:14788   */\n    tag_201:\n        /* \"#utility.yul\":14535:14539   */\n      0x00\n        /* \"#utility.yul\":14573:14575   */\n      0x20\n        /* \"#utility.yul\":14562:14571   */\n      dup3\n        /* \"#utility.yul\":14558:14576   */\n      add\n        /* \"#utility.yul\":14550:14576   */\n      swap1\n      pop\n        /* \"#utility.yul\":14622:14631   */\n      dup2\n        /* \"#utility.yul\":14616:14620   */\n      dup2\n        /* \"#utility.yul\":14612:14632   */\n      sub\n        /* \"#utility.yul\":14608:14609   */\n      0x00\n        /* \"#utility.yul\":14597:14606   */\n      dup4\n        /* \"#utility.yul\":14593:14610   */\n      add\n        /* \"#utility.yul\":14586:14633   */\n      mstore\n        /* \"#utility.yul\":14650:14781   */\n      tag_450\n        /* \"#utility.yul\":14776:14780   */\n      dup2\n        /* \"#utility.yul\":14650:14781   */\n      tag_374\n      jump\t// in\n    tag_450:\n        /* \"#utility.yul\":14642:14781   */\n      swap1\n      pop\n        /* \"#utility.yul\":14540:14788   */\n      swap2\n      swap1\n      pop\n      jump\t// out\n        /* \"#utility.yul\":14794:15213   */\n    tag_179:\n        /* \"#utility.yul\":14960:14964   */\n      0x00\n        /* \"#utility.yul\":14998:15000   */\n      0x20\n        /* \"#utility.yul\":14987:14996   */\n      dup3\n        /* \"#utility.yul\":14983:15001   */\n      add\n        /* \"#utility.yul\":14975:15001   */\n      swap1\n      pop\n        /* \"#utility.yul\":15047:15056   */\n      dup2\n        /* \"#utility.yul\":15041:15045   */\n      dup2\n        /* \"#utility.yul\":15037:15057   */\n      sub\n        /* \"#utility.yul\":15033:15034   */\n      0x00\n        /* \"#utility.yul\":15022:15031   */\n      dup4\n        /* \"#utility.yul\":15018:15035   */\n      add\n        /* \"#utility.yul\":15011:15058   */\n      mstore\n        /* \"#utility.yul\":15075:15206   */\n      tag_452\n        /* \"#utility.yul\":15201:15205   */\n      dup2\n        /* \"#utility.yul\":15075:15206   */\n      tag_379\n      jump\t// in\n    tag_452:\n        /* \"#utility.yul\":15067:15206   */\n      swap1\n      pop\n        /* \"#utility.yul\":14965:15213   */\n      swap2\n      swap1\n      pop\n      jump\t// out\n        /* \"#utility.yul\":15219:15638   */\n    tag_245:\n        /* \"#utility.yul\":15385:15389   */\n      0x00\n        /* \"#utility.yul\":15423:15425   */\n      0x20\n        /* \"#utility.yul\":15412:15421   */\n      dup3\n        /* \"#utility.yul\":15408:15426   */\n      add\n        /* \"#utility.yul\":15400:15426   */\n      swap1\n      pop\n        /* \"#utility.yul\":15472:15481   */\n      dup2\n        /* \"#utility.yul\":15466:15470   */\n      dup2\n        /* \"#utility.yul\":15462:15482   */\n      sub\n        /* \"#utility.yul\":15458:15459   */\n      0x00\n        /* \"#utility.yul\":15447:15456   */\n      dup4\n        /* \"#utility.yul\":15443:15460   */\n      add\n        /* \"#utility.yul\":15436:15483   */\n      mstore\n        /* \"#utility.yul\":15500:15631   */\n      tag_454\n        /* \"#utility.yul\":15626:15630   */\n      dup2\n        /* \"#utility.yul\":15500:15631   */\n      tag_384\n      jump\t// in\n    tag_454:\n        /* \"#utility.yul\":15492:15631   */\n      swap1\n      pop\n        /* \"#utility.yul\":15390:15638   */\n      swap2\n      swap1\n      pop\n      jump\t// out\n        /* \"#utility.yul\":15644:16063   */\n    tag_182:\n        /* \"#utility.yul\":15810:15814   */\n      0x00\n        /* \"#utility.yul\":15848:15850   */\n      0x20\n        /* \"#utility.yul\":15837:15846   */\n      dup3\n        /* \"#utility.yul\":15833:15851   */\n      add\n        /* \"#utility.yul\":15825:15851   */\n      swap1\n      pop\n        /* \"#utility.yul\":15897:15906   */\n      dup2\n        /* \"#utility.yul\":15891:15895   */\n      dup2\n        /* \"#utility.yul\":15887:15907   */\n      sub\n        /* \"#utility.yul\":15883:15884   */\n      0x00\n        /* \"#utility.yul\":15872:15881   */\n      dup4\n        /* \"#utility.yul\":15868:15885   */\n      add\n        /* \"#utility.yul\":15861:15908   */\n      mstore\n        /* \"#utility.yul\":15925:16056   */\n      tag_456\n        /* \"#utility.yul\":16051:16055   */\n      dup2\n        /* \"#utility.yul\":15925:16056   */\n      tag_389\n      jump\t// in\n    tag_456:\n        /* \"#utility.yul\":15917:16056   */\n      swap1\n      pop\n        /* \"#utility.yul\":15815:16063   */\n      swap2\n      swap1\n      pop\n      jump\t// out\n        /* \"#utility.yul\":16069:16488   */\n    tag_193:\n        /* \"#utility.yul\":16235:16239   */\n      0x00\n        /* \"#utility.yul\":16273:16275   */\n      0x20\n        /* \"#utility.yul\":16262:16271   */\n      dup3\n        /* \"#utility.yul\":16258:16276   */\n      add\n        /* \"#utility.yul\":16250:16276   */\n      swap1\n      pop\n        /* \"#utility.yul\":16322:16331   */\n      dup2\n        /* \"#utility.yul\":16316:16320   */\n      dup2\n        /* \"#utility.yul\":16312:16332   */\n      sub\n        /* \"#utility.yul\":16308:16309   */\n      0x00\n        /* \"#utility.yul\":16297:16306   */\n      dup4\n        /* \"#utility.yul\":16293:16310   */\n      add\n        /* \"#utility.yul\":16286:16333   */\n      mstore\n        /* \"#utility.yul\":16350:16481   */\n      tag_458\n        /* \"#utility.yul\":16476:16480   */\n      dup2\n        /* \"#utility.yul\":16350:16481   */\n      tag_394\n      jump\t// in\n    tag_458:\n        /* \"#utility.yul\":16342:16481   */\n      swap1\n      pop\n        /* \"#utility.yul\":16240:16488   */\n      swap2\n      swap1\n      pop\n      jump\t// out\n        /* \"#utility.yul\":16494:16913   */\n    tag_129:\n        /* \"#utility.yul\":16660:16664   */\n      0x00\n        /* \"#utility.yul\":16698:16700   */\n      0x20\n        /* \"#utility.yul\":16687:16696   */\n      dup3\n        /* \"#utility.yul\":16683:16701   */\n      add\n        /* \"#utility.yul\":16675:16701   */\n      swap1\n      pop\n        /* \"#utility.yul\":16747:16756   */\n      dup2\n        /* \"#utility.yul\":16741:16745   */\n      dup2\n        /* \"#utility.yul\":16737:16757   */\n      sub\n        /* \"#utility.yul\":16733:16734   */\n      0x00\n        /* \"#utility.yul\":16722:16731   */\n      dup4\n        /* \"#utility.yul\":16718:16735   */\n      add\n        /* \"#utility.yul\":16711:16758   */\n      mstore\n        /* \"#utility.yul\":16775:16906   */\n      tag_460\n        /* \"#utility.yul\":16901:16905   */\n      dup2\n        /* \"#utility.yul\":16775:16906   */\n      tag_399\n      jump\t// in\n    tag_460:\n        /* \"#utility.yul\":16767:16906   */\n      swap1\n      pop\n        /* \"#utility.yul\":16665:16913   */\n      swap2\n      swap1\n      pop\n      jump\t// out\n        /* \"#utility.yul\":16919:17338   */\n    tag_241:\n        /* \"#utility.yul\":17085:17089   */\n      0x00\n        /* \"#utility.yul\":17123:17125   */\n      0x20\n        /* \"#utility.yul\":17112:17121   */\n      dup3\n        /* \"#utility.yul\":17108:17126   */\n      add\n        /* \"#utility.yul\":17100:17126   */\n      swap1\n      pop\n        /* \"#utility.yul\":17172:17181   */\n      dup2\n        /* \"#utility.yul\":17166:17170   */\n      dup2\n        /* \"#utility.yul\":17162:17182   */\n      sub\n        /* \"#utility.yul\":17158:17159   */\n      0x00\n        /* \"#utility.yul\":17147:17156   */\n      dup4\n        /* \"#utility.yul\":17143:17160   */\n      add\n        /* \"#utility.yul\":17136:17183   */\n      mstore\n        /* \"#utility.yul\":17200:17331   */\n      tag_462\n        /* \"#utility.yul\":17326:17330   */\n      dup2\n        /* \"#utility.yul\":17200:17331   */\n      tag_404\n      jump\t// in\n    tag_462:\n        /* \"#utility.yul\":17192:17331   */\n      swap1\n      pop\n        /* \"#utility.yul\":17090:17338   */\n      swap2\n      swap1\n      pop\n      jump\t// out\n        /* \"#utility.yul\":17344:17763   */\n    tag_125:\n        /* \"#utility.yul\":17510:17514   */\n      0x00\n        /* \"#utility.yul\":17548:17550   */\n      0x20\n        /* \"#utility.yul\":17537:17546   */\n      dup3\n        /* \"#utility.yul\":17533:17551   */\n      add\n        /* \"#utility.yul\":17525:17551   */\n      swap1\n      pop\n        /* \"#utility.yul\":17597:17606   */\n      dup2\n        /* \"#utility.yul\":17591:17595   */\n      dup2\n        /* \"#utility.yul\":17587:17607   */\n      sub\n        /* \"#utility.yul\":17583:17584   */\n      0x00\n        /* \"#utility.yul\":17572:17581   */\n      dup4\n        /* \"#utility.yul\":17568:17585   */\n      add\n        /* \"#utility.yul\":17561:17608   */\n      mstore\n        /* \"#utility.yul\":17625:17756   */\n      tag_464\n        /* \"#utility.yul\":17751:17755   */\n      dup2\n        /* \"#utility.yul\":17625:17756   */\n      tag_409\n      jump\t// in\n    tag_464:\n        /* \"#utility.yul\":17617:17756   */\n      swap1\n      pop\n        /* \"#utility.yul\":17515:17763   */\n      swap2\n      swap1\n      pop\n      jump\t// out\n        /* \"#utility.yul\":17769:18188   */\n    tag_100:\n        /* \"#utility.yul\":17935:17939   */\n      0x00\n        /* \"#utility.yul\":17973:17975   */\n      0x20\n        /* \"#utility.yul\":17962:17971   */\n      dup3\n        /* \"#utility.yul\":17958:17976   */\n      add\n        /* \"#utility.yul\":17950:17976   */\n      swap1\n      pop\n        /* \"#utility.yul\":18022:18031   */\n      dup2\n        /* \"#utility.yul\":18016:18020   */\n      dup2\n        /* \"#utility.yul\":18012:18032   */\n      sub\n        /* \"#utility.yul\":18008:18009   */\n      0x00\n        /* \"#utility.yul\":17997:18006   */\n      dup4\n        /* \"#utility.yul\":17993:18010   */\n      add\n        /* \"#utility.yul\":17986:18033   */\n      mstore\n        /* \"#utility.yul\":18050:18181   */\n      tag_466\n        /* \"#utility.yul\":18176:18180   */\n      dup2\n        /* \"#utility.yul\":18050:18181   */\n      tag_414\n      jump\t// in\n    tag_466:\n        /* \"#utility.yul\":18042:18181   */\n      swap1\n      pop\n        /* \"#utility.yul\":17940:18188   */\n      swap2\n      swap1\n      pop\n      jump\t// out\n        /* \"#utility.yul\":18194:18613   */\n    tag_108:\n        /* \"#utility.yul\":18360:18364   */\n      0x00\n        /* \"#utility.yul\":18398:18400   */\n      0x20\n        /* \"#utility.yul\":18387:18396   */\n      dup3\n        /* \"#utility.yul\":18383:18401   */\n      add\n        /* \"#utility.yul\":18375:18401   */\n      swap1\n      pop\n        /* \"#utility.yul\":18447:18456   */\n      dup2\n        /* \"#utility.yul\":18441:18445   */\n      dup2\n        /* \"#utility.yul\":18437:18457   */\n      sub\n        /* \"#utility.yul\":18433:18434   */\n      0x00\n        /* \"#utility.yul\":18422:18431   */\n      dup4\n        /* \"#utility.yul\":18418:18435   */\n      add\n        /* \"#utility.yul\":18411:18458   */\n      mstore\n        /* \"#utility.yul\":18475:18606   */\n      tag_468\n        /* \"#utility.yul\":18601:18605   */\n      dup2\n        /* \"#utility.yul\":18475:18606   */\n      tag_419\n      jump\t// in\n    tag_468:\n        /* \"#utility.yul\":18467:18606   */\n      swap1\n      pop\n        /* \"#utility.yul\":18365:18613   */\n      swap2\n      swap1\n      pop\n      jump\t// out\n        /* \"#utility.yul\":18619:18841   */\n    tag_56:\n        /* \"#utility.yul\":18712:18716   */\n      0x00\n        /* \"#utility.yul\":18750:18752   */\n      0x20\n        /* \"#utility.yul\":18739:18748   */\n      dup3\n        /* \"#utility.yul\":18735:18753   */\n      add\n        /* \"#utility.yul\":18727:18753   */\n      swap1\n      pop\n        /* \"#utility.yul\":18763:18834   */\n      tag_470\n        /* \"#utility.yul\":18831:18832   */\n      0x00\n        /* \"#utility.yul\":18820:18829   */\n      dup4\n        /* \"#utility.yul\":18816:18833   */\n      add\n        /* \"#utility.yul\":18807:18813   */\n      dup5\n        /* \"#utility.yul\":18763:18834   */\n      tag_424\n      jump\t// in\n    tag_470:\n        /* \"#utility.yul\":18717:18841   */\n      swap3\n      swap2\n      pop\n      pop\n      jump\t// out\n        /* \"#utility.yul\":18847:18976   */\n    tag_257:\n        /* \"#utility.yul\":18881:18887   */\n      0x00\n        /* \"#utility.yul\":18908:18928   */\n      tag_472\n      tag_473\n      jump\t// in\n    tag_472:\n        /* \"#utility.yul\":18898:18928   */\n      swap1\n      pop\n        /* \"#utility.yul\":18937:18970   */\n      tag_474\n        /* \"#utility.yul\":18965:18969   */\n      dup3\n        /* \"#utility.yul\":18957:18963   */\n      dup3\n        /* \"#utility.yul\":18937:18970   */\n      tag_475\n      jump\t// in\n    tag_474:\n        /* \"#utility.yul\":18888:18976   */\n      swap2\n      swap1\n      pop\n      jump\t// out\n        /* \"#utility.yul\":18982:19057   */\n    tag_473:\n        /* \"#utility.yul\":19015:19021   */\n      0x00\n        /* \"#utility.yul\":19048:19050   */\n      0x40\n        /* \"#utility.yul\":19042:19051   */\n      mload\n        /* \"#utility.yul\":19032:19051   */\n      swap1\n      pop\n        /* \"#utility.yul\":19022:19057   */\n      swap1\n      jump\t// out\n        /* \"#utility.yul\":19063:19370   */\n    tag_256:\n        /* \"#utility.yul\":19124:19128   */\n      0x00\n        /* \"#utility.yul\":19214:19232   */\n      0xffffffffffffffff\n        /* \"#utility.yul\":19206:19212   */\n      dup3\n        /* \"#utility.yul\":19203:19233   */\n      gt\n        /* \"#utility.yul\":19200:19202   */\n      iszero\n      tag_478\n      jumpi\n        /* \"#utility.yul\":19236:19254   */\n      tag_479\n      tag_480\n      jump\t// in\n    tag_479:\n        /* \"#utility.yul\":19200:19202   */\n    tag_478:\n        /* \"#utility.yul\":19274:19303   */\n      tag_481\n        /* \"#utility.yul\":19296:19302   */\n      dup3\n        /* \"#utility.yul\":19274:19303   */\n      tag_354\n      jump\t// in\n    tag_481:\n        /* \"#utility.yul\":19266:19303   */\n      swap1\n      pop\n        /* \"#utility.yul\":19358:19362   */\n      0x20\n        /* \"#utility.yul\":19352:19356   */\n      dup2\n        /* \"#utility.yul\":19348:19363   */\n      add\n        /* \"#utility.yul\":19340:19363   */\n      swap1\n      pop\n        /* \"#utility.yul\":19129:19370   */\n      swap2\n      swap1\n      pop\n      jump\t// out\n        /* \"#utility.yul\":19376:19684   */\n    tag_265:\n        /* \"#utility.yul\":19438:19442   */\n      0x00\n        /* \"#utility.yul\":19528:19546   */\n      0xffffffffffffffff\n        /* \"#utility.yul\":19520:19526   */\n      dup3\n        /* \"#utility.yul\":19517:19547   */\n      gt\n        /* \"#utility.yul\":19514:19516   */\n      iszero\n      tag_483\n      jumpi\n        /* \"#utility.yul\":19550:19568   */\n      tag_484\n      tag_480\n      jump\t// in\n    tag_484:\n        /* \"#utility.yul\":19514:19516   */\n    tag_483:\n        /* \"#utility.yul\":19588:19617   */\n      tag_485\n        /* \"#utility.yul\":19610:19616   */\n      dup3\n        /* \"#utility.yul\":19588:19617   */\n      tag_354\n      jump\t// in\n    tag_485:\n        /* \"#utility.yul\":19580:19617   */\n      swap1\n      pop\n        /* \"#utility.yul\":19672:19676   */\n      0x20\n        /* \"#utility.yul\":19666:19670   */\n      dup2\n        /* \"#utility.yul\":19662:19677   */\n      add\n        /* \"#utility.yul\":19654:19677   */\n      swap1\n      pop\n        /* \"#utility.yul\":19443:19684   */\n      swap2\n      swap1\n      pop\n      jump\t// out\n        /* \"#utility.yul\":19690:19788   */\n    tag_348:\n        /* \"#utility.yul\":19741:19747   */\n      0x00\n        /* \"#utility.yul\":19775:19780   */\n      dup2\n        /* \"#utility.yul\":19769:19781   */\n      mload\n        /* \"#utility.yul\":19759:19781   */\n      swap1\n      pop\n        /* \"#utility.yul\":19748:19788   */\n      swap2\n      swap1\n      pop\n      jump\t// out\n        /* \"#utility.yul\":19794:19893   */\n    tag_358:\n        /* \"#utility.yul\":19846:19852   */\n      0x00\n        /* \"#utility.yul\":19880:19885   */\n      dup2\n        /* \"#utility.yul\":19874:19886   */\n      mload\n        /* \"#utility.yul\":19864:19886   */\n      swap1\n      pop\n        /* \"#utility.yul\":19853:19893   */\n      swap2\n      swap1\n      pop\n      jump\t// out\n        /* \"#utility.yul\":19899:20067   */\n    tag_350:\n        /* \"#utility.yul\":19982:19993   */\n      0x00\n        /* \"#utility.yul\":20016:20022   */\n      dup3\n        /* \"#utility.yul\":20011:20014   */\n      dup3\n        /* \"#utility.yul\":20004:20023   */\n      mstore\n        /* \"#utility.yul\":20056:20060   */\n      0x20\n        /* \"#utility.yul\":20051:20054   */\n      dup3\n        /* \"#utility.yul\":20047:20061   */\n      add\n        /* \"#utility.yul\":20032:20061   */\n      swap1\n      pop\n        /* \"#utility.yul\":19994:20067   */\n      swap3\n      swap2\n      pop\n      pop\n      jump\t// out\n        /* \"#utility.yul\":20073:20242   */\n    tag_360:\n        /* \"#utility.yul\":20157:20168   */\n      0x00\n        /* \"#utility.yul\":20191:20197   */\n      dup3\n        /* \"#utility.yul\":20186:20189   */\n      dup3\n        /* \"#utility.yul\":20179:20198   */\n      mstore\n        /* \"#utility.yul\":20231:20235   */\n      0x20\n        /* \"#utility.yul\":20226:20229   */\n      dup3\n        /* \"#utility.yul\":20222:20236   */\n      add\n        /* \"#utility.yul\":20207:20236   */\n      swap1\n      pop\n        /* \"#utility.yul\":20169:20242   */\n      swap3\n      swap2\n      pop\n      pop\n      jump\t// out\n        /* \"#utility.yul\":20248:20396   */\n    tag_367:\n        /* \"#utility.yul\":20350:20361   */\n      0x00\n        /* \"#utility.yul\":20387:20390   */\n      dup2\n        /* \"#utility.yul\":20372:20390   */\n      swap1\n      pop\n        /* \"#utility.yul\":20362:20396   */\n      swap3\n      swap2\n      pop\n      pop\n      jump\t// out\n        /* \"#utility.yul\":20402:20498   */\n    tag_340:\n        /* \"#utility.yul\":20439:20446   */\n      0x00\n        /* \"#utility.yul\":20468:20492   */\n      tag_492\n        /* \"#utility.yul\":20486:20491   */\n      dup3\n        /* \"#utility.yul\":20468:20492   */\n      tag_493\n      jump\t// in\n    tag_492:\n        /* \"#utility.yul\":20457:20492   */\n      swap1\n      pop\n        /* \"#utility.yul\":20447:20498   */\n      swap2\n      swap1\n      pop\n      jump\t// out\n        /* \"#utility.yul\":20504:20594   */\n    tag_344:\n        /* \"#utility.yul\":20538:20545   */\n      0x00\n        /* \"#utility.yul\":20581:20586   */\n      dup2\n        /* \"#utility.yul\":20574:20587   */\n      iszero\n        /* \"#utility.yul\":20567:20588   */\n      iszero\n        /* \"#utility.yul\":20556:20588   */\n      swap1\n      pop\n        /* \"#utility.yul\":20546:20594   */\n      swap2\n      swap1\n      pop\n      jump\t// out\n        /* \"#utility.yul\":20600:20749   */\n    tag_495:\n        /* \"#utility.yul\":20636:20643   */\n      0x00\n        /* \"#utility.yul\":20676:20742   */\n      0xffffffff00000000000000000000000000000000000000000000000000000000\n        /* \"#utility.yul\":20669:20674   */\n      dup3\n        /* \"#utility.yul\":20665:20743   */\n      and\n        /* \"#utility.yul\":20654:20743   */\n      swap1\n      pop\n        /* \"#utility.yul\":20644:20749   */\n      swap2\n      swap1\n      pop\n      jump\t// out\n        /* \"#utility.yul\":20755:20881   */\n    tag_493:\n        /* \"#utility.yul\":20792:20799   */\n      0x00\n        /* \"#utility.yul\":20832:20874   */\n      0xffffffffffffffffffffffffffffffffffffffff\n        /* \"#utility.yul\":20825:20830   */\n      dup3\n        /* \"#utility.yul\":20821:20875   */\n      and\n        /* \"#utility.yul\":20810:20875   */\n      swap1\n      pop\n        /* \"#utility.yul\":20800:20881   */\n      swap2\n      swap1\n      pop\n      jump\t// out\n        /* \"#utility.yul\":20887:20964   */\n    tag_427:\n        /* \"#utility.yul\":20924:20931   */\n      0x00\n        /* \"#utility.yul\":20953:20958   */\n      dup2\n        /* \"#utility.yul\":20942:20958   */\n      swap1\n      pop\n        /* \"#utility.yul\":20932:20964   */\n      swap2\n      swap1\n      pop\n      jump\t// out\n        /* \"#utility.yul\":20970:21124   */\n    tag_260:\n        /* \"#utility.yul\":21054:21060   */\n      dup3\n        /* \"#utility.yul\":21049:21052   */\n      dup2\n        /* \"#utility.yul\":21044:21047   */\n      dup4\n        /* \"#utility.yul\":21031:21061   */\n      calldatacopy\n        /* \"#utility.yul\":21116:21117   */\n      0x00\n        /* \"#utility.yul\":21107:21113   */\n      dup4\n        /* \"#utility.yul\":21102:21105   */\n      dup4\n        /* \"#utility.yul\":21098:21114   */\n      add\n        /* \"#utility.yul\":21091:21118   */\n      mstore\n        /* \"#utility.yul\":21021:21124   */\n      pop\n      pop\n      pop\n      jump\t// out\n        /* \"#utility.yul\":21130:21437   */\n    tag_352:\n        /* \"#utility.yul\":21198:21199   */\n      0x00\n        /* \"#utility.yul\":21208:21321   */\n    tag_501:\n        /* \"#utility.yul\":21222:21228   */\n      dup4\n        /* \"#utility.yul\":21219:21220   */\n      dup2\n        /* \"#utility.yul\":21216:21229   */\n      lt\n        /* \"#utility.yul\":21208:21321   */\n      iszero\n      tag_503\n      jumpi\n        /* \"#utility.yul\":21307:21308   */\n      dup1\n        /* \"#utility.yul\":21302:21305   */\n      dup3\n        /* \"#utility.yul\":21298:21309   */\n      add\n        /* \"#utility.yul\":21292:21310   */\n      mload\n        /* \"#utility.yul\":21288:21289   */\n      dup2\n        /* \"#utility.yul\":21283:21286   */\n      dup5\n        /* \"#utility.yul\":21279:21290   */\n      add\n        /* \"#utility.yul\":21272:21311   */\n      mstore\n        /* \"#utility.yul\":21244:21246   */\n      0x20\n        /* \"#utility.yul\":21241:21242   */\n      dup2\n        /* \"#utility.yul\":21237:21247   */\n      add\n        /* \"#utility.yul\":21232:21247   */\n      swap1\n      pop\n        /* \"#utility.yul\":21208:21321   */\n      jump(tag_501)\n    tag_503:\n        /* \"#utility.yul\":21339:21345   */\n      dup4\n        /* \"#utility.yul\":21336:21337   */\n      dup2\n        /* \"#utility.yul\":21333:21346   */\n      gt\n        /* \"#utility.yul\":21330:21332   */\n      iszero\n      tag_504\n      jumpi\n        /* \"#utility.yul\":21419:21420   */\n      0x00\n        /* \"#utility.yul\":21410:21416   */\n      dup5\n        /* \"#utility.yul\":21405:21408   */\n      dup5\n        /* \"#utility.yul\":21401:21417   */\n      add\n        /* \"#utility.yul\":21394:21421   */\n      mstore\n        /* \"#utility.yul\":21330:21332   */\n    tag_504:\n        /* \"#utility.yul\":21179:21437   */\n      pop\n      pop\n      pop\n      pop\n      jump\t// out\n        /* \"#utility.yul\":21443:21763   */\n    tag_88:\n        /* \"#utility.yul\":21487:21493   */\n      0x00\n        /* \"#utility.yul\":21524:21525   */\n      0x02\n        /* \"#utility.yul\":21518:21522   */\n      dup3\n        /* \"#utility.yul\":21514:21526   */\n      div\n        /* \"#utility.yul\":21504:21526   */\n      swap1\n      pop\n        /* \"#utility.yul\":21571:21572   */\n      0x01\n        /* \"#utility.yul\":21565:21569   */\n      dup3\n        /* \"#utility.yul\":21561:21573   */\n      and\n        /* \"#utility.yul\":21592:21610   */\n      dup1\n        /* \"#utility.yul\":21582:21584   */\n      tag_506\n      jumpi\n        /* \"#utility.yul\":21648:21652   */\n      0x7f\n        /* \"#utility.yul\":21640:21646   */\n      dup3\n        /* \"#utility.yul\":21636:21653   */\n      and\n        /* \"#utility.yul\":21626:21653   */\n      swap2\n      pop\n        /* \"#utility.yul\":21582:21584   */\n    tag_506:\n        /* \"#utility.yul\":21710:21712   */\n      0x20\n        /* \"#utility.yul\":21702:21708   */\n      dup3\n        /* \"#utility.yul\":21699:21713   */\n      lt\n        /* \"#utility.yul\":21679:21697   */\n      dup2\n        /* \"#utility.yul\":21676:21714   */\n      eq\n        /* \"#utility.yul\":21673:21675   */\n      iszero\n      tag_507\n      jumpi\n        /* \"#utility.yul\":21729:21747   */\n      tag_508\n      tag_509\n      jump\t// in\n    tag_508:\n        /* \"#utility.yul\":21673:21675   */\n    tag_507:\n        /* \"#utility.yul\":21494:21763   */\n      pop\n      swap2\n      swap1\n      pop\n      jump\t// out\n        /* \"#utility.yul\":21769:22050   */\n    tag_475:\n        /* \"#utility.yul\":21852:21879   */\n      tag_511\n        /* \"#utility.yul\":21874:21878   */\n      dup3\n        /* \"#utility.yul\":21852:21879   */\n      tag_354\n      jump\t// in\n    tag_511:\n        /* \"#utility.yul\":21844:21850   */\n      dup2\n        /* \"#utility.yul\":21840:21880   */\n      add\n        /* \"#utility.yul\":21982:21988   */\n      dup2\n        /* \"#utility.yul\":21970:21980   */\n      dup2\n        /* \"#utility.yul\":21967:21989   */\n      lt\n        /* \"#utility.yul\":21946:21964   */\n      0xffffffffffffffff\n        /* \"#utility.yul\":21934:21944   */\n      dup3\n        /* \"#utility.yul\":21931:21965   */\n      gt\n        /* \"#utility.yul\":21928:21990   */\n      or\n        /* \"#utility.yul\":21925:21927   */\n      iszero\n      tag_512\n      jumpi\n        /* \"#utility.yul\":21993:22011   */\n      tag_513\n      tag_480\n      jump\t// in\n    tag_513:\n        /* \"#utility.yul\":21925:21927   */\n    tag_512:\n        /* \"#utility.yul\":22033:22043   */\n      dup1\n        /* \"#utility.yul\":22029:22031   */\n      0x40\n        /* \"#utility.yul\":22022:22044   */\n      mstore\n        /* \"#utility.yul\":21812:22050   */\n      pop\n      pop\n      pop\n      jump\t// out\n        /* \"#utility.yul\":22056:22135   */\n    tag_432:\n        /* \"#utility.yul\":22095:22102   */\n      0x00\n        /* \"#utility.yul\":22124:22129   */\n      dup2\n        /* \"#utility.yul\":22113:22129   */\n      swap1\n      pop\n        /* \"#utility.yul\":22103:22135   */\n      swap2\n      swap1\n      pop\n      jump\t// out\n        /* \"#utility.yul\":22141:22321   */\n    tag_509:\n        /* \"#utility.yul\":22189:22266   */\n      0x4e487b7100000000000000000000000000000000000000000000000000000000\n        /* \"#utility.yul\":22186:22187   */\n      0x00\n        /* \"#utility.yul\":22179:22267   */\n      mstore\n        /* \"#utility.yul\":22286:22290   */\n      0x22\n        /* \"#utility.yul\":22283:22284   */\n      0x04\n        /* \"#utility.yul\":22276:22291   */\n      mstore\n        /* \"#utility.yul\":22310:22314   */\n      0x24\n        /* \"#utility.yul\":22307:22308   */\n      0x00\n        /* \"#utility.yul\":22300:22315   */\n      revert\n        /* \"#utility.yul\":22327:22507   */\n    tag_480:\n        /* \"#utility.yul\":22375:22452   */\n      0x4e487b7100000000000000000000000000000000000000000000000000000000\n        /* \"#utility.yul\":22372:22373   */\n      0x00\n        /* \"#utility.yul\":22365:22453   */\n      mstore\n        /* \"#utility.yul\":22472:22476   */\n      0x41\n        /* \"#utility.yul\":22469:22470   */\n      0x04\n        /* \"#utility.yul\":22462:22477   */\n      mstore\n        /* \"#utility.yul\":22496:22500   */\n      0x24\n        /* \"#utility.yul\":22493:22494   */\n      0x00\n        /* \"#utility.yul\":22486:22501   */\n      revert\n        /* \"#utility.yul\":22513:22615   */\n    tag_354:\n        /* \"#utility.yul\":22554:22560   */\n      0x00\n        /* \"#utility.yul\":22605:22607   */\n      0x1f\n        /* \"#utility.yul\":22601:22608   */\n      not\n        /* \"#utility.yul\":22596:22598   */\n      0x1f\n        /* \"#utility.yul\":22589:22594   */\n      dup4\n        /* \"#utility.yul\":22585:22599   */\n      add\n        /* \"#utility.yul\":22581:22609   */\n      and\n        /* \"#utility.yul\":22571:22609   */\n      swap1\n      pop\n        /* \"#utility.yul\":22561:22615   */\n      swap2\n      swap1\n      pop\n      jump\t// out\n        /* \"#utility.yul\":22621:22853   */\n    tag_373:\n        /* \"#utility.yul\":22761:22795   */\n      0x4552433732313a2063616c6c6572206973206e6f7420746f6b656e206f776e65\n        /* \"#utility.yul\":22757:22758   */\n      0x00\n        /* \"#utility.yul\":22749:22755   */\n      dup3\n        /* \"#utility.yul\":22745:22759   */\n      add\n        /* \"#utility.yul\":22738:22796   */\n      mstore\n        /* \"#utility.yul\":22830:22845   */\n      0x72206f7220617070726f76656400000000000000000000000000000000000000\n        /* \"#utility.yul\":22825:22827   */\n      0x20\n        /* \"#utility.yul\":22817:22823   */\n      dup3\n        /* \"#utility.yul\":22813:22828   */\n      add\n        /* \"#utility.yul\":22806:22846   */\n      mstore\n        /* \"#utility.yul\":22727:22853   */\n      pop\n      jump\t// out\n        /* \"#utility.yul\":22859:23096   */\n    tag_378:\n        /* \"#utility.yul\":22999:23033   */\n      0x4552433732313a207472616e7366657220746f206e6f6e204552433732315265\n        /* \"#utility.yul\":22995:22996   */\n      0x00\n        /* \"#utility.yul\":22987:22993   */\n      dup3\n        /* \"#utility.yul\":22983:22997   */\n      add\n        /* \"#utility.yul\":22976:23034   */\n      mstore\n        /* \"#utility.yul\":23068:23088   */\n      0x63656976657220696d706c656d656e7465720000000000000000000000000000\n        /* \"#utility.yul\":23063:23065   */\n      0x20\n        /* \"#utility.yul\":23055:23061   */\n      dup3\n        /* \"#utility.yul\":23051:23066   */\n      add\n        /* \"#utility.yul\":23044:23089   */\n      mstore\n        /* \"#utility.yul\":22965:23096   */\n      pop\n      jump\t// out\n        /* \"#utility.yul\":23102:23326   */\n    tag_383:\n        /* \"#utility.yul\":23242:23276   */\n      0x4552433732313a207472616e736665722066726f6d20696e636f727265637420\n        /* \"#utility.yul\":23238:23239   */\n      0x00\n        /* \"#utility.yul\":23230:23236   */\n      dup3\n        /* \"#utility.yul\":23226:23240   */\n      add\n        /* \"#utility.yul\":23219:23277   */\n      mstore\n        /* \"#utility.yul\":23311:23318   */\n      0x6f776e6572000000000000000000000000000000000000000000000000000000\n        /* \"#utility.yul\":23306:23308   */\n      0x20\n        /* \"#utility.yul\":23298:23304   */\n      dup3\n        /* \"#utility.yul\":23294:23309   */\n      add\n        /* \"#utility.yul\":23287:23319   */\n      mstore\n        /* \"#utility.yul\":23208:23326   */\n      pop\n      jump\t// out\n        /* \"#utility.yul\":23332:23510   */\n    tag_388:\n        /* \"#utility.yul\":23472:23502   */\n      0x4552433732313a20746f6b656e20616c7265616479206d696e74656400000000\n        /* \"#utility.yul\":23468:23469   */\n      0x00\n        /* \"#utility.yul\":23460:23466   */\n      dup3\n        /* \"#utility.yul\":23456:23470   */\n      add\n        /* \"#utility.yul\":23449:23503   */\n      mstore\n        /* \"#utility.yul\":23438:23510   */\n      pop\n      jump\t// out\n        /* \"#utility.yul\":23516:23739   */\n    tag_393:\n        /* \"#utility.yul\":23656:23690   */\n      0x4552433732313a207472616e7366657220746f20746865207a65726f20616464\n        /* \"#utility.yul\":23652:23653   */\n      0x00\n        /* \"#utility.yul\":23644:23650   */\n      dup3\n        /* \"#utility.yul\":23640:23654   */\n      add\n        /* \"#utility.yul\":23633:23691   */\n      mstore\n        /* \"#utility.yul\":23725:23731   */\n      0x7265737300000000000000000000000000000000000000000000000000000000\n        /* \"#utility.yul\":23720:23722   */\n      0x20\n        /* \"#utility.yul\":23712:23718   */\n      dup3\n        /* \"#utility.yul\":23708:23723   */\n      add\n        /* \"#utility.yul\":23701:23732   */\n      mstore\n        /* \"#utility.yul\":23622:23739   */\n      pop\n      jump\t// out\n        /* \"#utility.yul\":23745:23920   */\n    tag_398:\n        /* \"#utility.yul\":23885:23912   */\n      0x4552433732313a20617070726f766520746f2063616c6c657200000000000000\n        /* \"#utility.yul\":23881:23882   */\n      0x00\n        /* \"#utility.yul\":23873:23879   */\n      dup3\n        /* \"#utility.yul\":23869:23883   */\n      add\n        /* \"#utility.yul\":23862:23913   */\n      mstore\n        /* \"#utility.yul\":23851:23920   */\n      pop\n      jump\t// out\n        /* \"#utility.yul\":23926:24154   */\n    tag_403:\n        /* \"#utility.yul\":24066:24100   */\n      0x4552433732313a2061646472657373207a65726f206973206e6f742061207661\n        /* \"#utility.yul\":24062:24063   */\n      0x00\n        /* \"#utility.yul\":24054:24060   */\n      dup3\n        /* \"#utility.yul\":24050:24064   */\n      add\n        /* \"#utility.yul\":24043:24101   */\n      mstore\n        /* \"#utility.yul\":24135:24146   */\n      0x6c6964206f776e65720000000000000000000000000000000000000000000000\n        /* \"#utility.yul\":24130:24132   */\n      0x20\n        /* \"#utility.yul\":24122:24128   */\n      dup3\n        /* \"#utility.yul\":24118:24133   */\n      add\n        /* \"#utility.yul\":24111:24147   */\n      mstore\n        /* \"#utility.yul\":24032:24154   */\n      pop\n      jump\t// out\n        /* \"#utility.yul\":24160:24342   */\n    tag_408:\n        /* \"#utility.yul\":24300:24334   */\n      0x4552433732313a206d696e7420746f20746865207a65726f2061646472657373\n        /* \"#utility.yul\":24296:24297   */\n      0x00\n        /* \"#utility.yul\":24288:24294   */\n      dup3\n        /* \"#utility.yul\":24284:24298   */\n      add\n        /* \"#utility.yul\":24277:24335   */\n      mstore\n        /* \"#utility.yul\":24266:24342   */\n      pop\n      jump\t// out\n        /* \"#utility.yul\":24348:24522   */\n    tag_413:\n        /* \"#utility.yul\":24488:24514   */\n      0x4552433732313a20696e76616c696420746f6b656e2049440000000000000000\n        /* \"#utility.yul\":24484:24485   */\n      0x00\n        /* \"#utility.yul\":24476:24482   */\n      dup3\n        /* \"#utility.yul\":24472:24486   */\n      add\n        /* \"#utility.yul\":24465:24515   */\n      mstore\n        /* \"#utility.yul\":24454:24522   */\n      pop\n      jump\t// out\n        /* \"#utility.yul\":24528:24748   */\n    tag_418:\n        /* \"#utility.yul\":24668:24702   */\n      0x4552433732313a20617070726f76616c20746f2063757272656e74206f776e65\n        /* \"#utility.yul\":24664:24665   */\n      0x00\n        /* \"#utility.yul\":24656:24662   */\n      dup3\n        /* \"#utility.yul\":24652:24666   */\n      add\n        /* \"#utility.yul\":24645:24703   */\n      mstore\n        /* \"#utility.yul\":24737:24740   */\n      0x7200000000000000000000000000000000000000000000000000000000000000\n        /* \"#utility.yul\":24732:24734   */\n      0x20\n        /* \"#utility.yul\":24724:24730   */\n      dup3\n        /* \"#utility.yul\":24720:24735   */\n      add\n        /* \"#utility.yul\":24713:24741   */\n      mstore\n        /* \"#utility.yul\":24634:24748   */\n      pop\n      jump\t// out\n        /* \"#utility.yul\":24754:25002   */\n    tag_423:\n        /* \"#utility.yul\":24894:24928   */\n      0x4552433732313a20617070726f76652063616c6c6572206973206e6f7420746f\n        /* \"#utility.yul\":24890:24891   */\n      0x00\n        /* \"#utility.yul\":24882:24888   */\n      dup3\n        /* \"#utility.yul\":24878:24892   */\n      add\n        /* \"#utility.yul\":24871:24929   */\n      mstore\n        /* \"#utility.yul\":24963:24994   */\n      0x6b656e206f776e6572206f7220617070726f76656420666f7220616c6c000000\n        /* \"#utility.yul\":24958:24960   */\n      0x20\n        /* \"#utility.yul\":24950:24956   */\n      dup3\n        /* \"#utility.yul\":24946:24961   */\n      add\n        /* \"#utility.yul\":24939:24995   */\n      mstore\n        /* \"#utility.yul\":24860:25002   */\n      pop\n      jump\t// out\n        /* \"#utility.yul\":25008:25130   */\n    tag_271:\n        /* \"#utility.yul\":25081:25105   */\n      tag_530\n        /* \"#utility.yul\":25099:25104   */\n      dup2\n        /* \"#utility.yul\":25081:25105   */\n      tag_340\n      jump\t// in\n    tag_530:\n        /* \"#utility.yul\":25074:25079   */\n      dup2\n        /* \"#utility.yul\":25071:25106   */\n      eq\n        /* \"#utility.yul\":25061:25063   */\n      tag_531\n      jumpi\n        /* \"#utility.yul\":25120:25121   */\n      0x00\n        /* \"#utility.yul\":25117:25118   */\n      dup1\n        /* \"#utility.yul\":25110:25122   */\n      revert\n        /* \"#utility.yul\":25061:25063   */\n    tag_531:\n        /* \"#utility.yul\":25051:25130   */\n      pop\n      jump\t// out\n        /* \"#utility.yul\":25136:25252   */\n    tag_275:\n        /* \"#utility.yul\":25206:25227   */\n      tag_533\n        /* \"#utility.yul\":25221:25226   */\n      dup2\n        /* \"#utility.yul\":25206:25227   */\n      tag_344\n      jump\t// in\n    tag_533:\n        /* \"#utility.yul\":25199:25204   */\n      dup2\n        /* \"#utility.yul\":25196:25228   */\n      eq\n        /* \"#utility.yul\":25186:25188   */\n      tag_534\n      jumpi\n        /* \"#utility.yul\":25242:25243   */\n      0x00\n        /* \"#utility.yul\":25239:25240   */\n      dup1\n        /* \"#utility.yul\":25232:25244   */\n      revert\n        /* \"#utility.yul\":25186:25188   */\n    tag_534:\n        /* \"#utility.yul\":25176:25252   */\n      pop\n      jump\t// out\n        /* \"#utility.yul\":25258:25378   */\n    tag_279:\n        /* \"#utility.yul\":25330:25353   */\n      tag_536\n        /* \"#utility.yul\":25347:25352   */\n      dup2\n        /* \"#utility.yul\":25330:25353   */\n      tag_495\n      jump\t// in\n    tag_536:\n        /* \"#utility.yul\":25323:25328   */\n      dup2\n        /* \"#utility.yul\":25320:25354   */\n      eq\n        /* \"#utility.yul\":25310:25312   */\n      tag_537\n      jumpi\n        /* \"#utility.yul\":25368:25369   */\n      0x00\n        /* \"#utility.yul\":25365:25366   */\n      dup1\n        /* \"#utility.yul\":25358:25370   */\n      revert\n        /* \"#utility.yul\":25310:25312   */\n    tag_537:\n        /* \"#utility.yul\":25300:25378   */\n      pop\n      jump\t// out\n        /* \"#utility.yul\":25384:25506   */\n    tag_294:\n        /* \"#utility.yul\":25457:25481   */\n      tag_539\n        /* \"#utility.yul\":25475:25480   */\n      dup2\n        /* \"#utility.yul\":25457:25481   */\n      tag_427\n      jump\t// in\n    tag_539:\n        /* \"#utility.yul\":25450:25455   */\n      dup2\n        /* \"#utility.yul\":25447:25482   */\n      eq\n        /* \"#utility.yul\":25437:25439   */\n      tag_540\n      jumpi\n        /* \"#utility.yul\":25496:25497   */\n      0x00\n        /* \"#utility.yul\":25493:25494   */\n      dup1\n        /* \"#utility.yul\":25486:25498   */\n      revert\n        /* \"#utility.yul\":25437:25439   */\n    tag_540:\n        /* \"#utility.yul\":25427:25506   */\n      pop\n      jump\t// out\n\n    auxdata: 0xa264697066735822122076883c8fabf37513fe6fed88f3d1095d94e57f4fd7f8d575d6c878a322e4a15e64736f6c63430008040033\n}\n",
				"bytecode": {
					"linkReferences": {},
					"object": "60806040523480156200001157600080fd5b506040516200271c3803806200271c833981810160405281019062000037919062000193565b81600090805190602001906200004f92919062000071565b5080600190805190602001906200006892919062000071565b50505062000376565b8280546200007f906200029b565b90600052602060002090601f016020900481019282620000a35760008555620000ef565b82601f10620000be57805160ff1916838001178555620000ef565b82800160010185558215620000ef579182015b82811115620000ee578251825591602001919060010190620000d1565b5b509050620000fe919062000102565b5090565b5b808211156200011d57600081600090555060010162000103565b5090565b60006200013862000132846200022f565b62000206565b9050828152602081018484840111156200015157600080fd5b6200015e84828562000265565b509392505050565b600082601f8301126200017857600080fd5b81516200018a84826020860162000121565b91505092915050565b60008060408385031215620001a757600080fd5b600083015167ffffffffffffffff811115620001c257600080fd5b620001d08582860162000166565b925050602083015167ffffffffffffffff811115620001ee57600080fd5b620001fc8582860162000166565b9150509250929050565b60006200021262000225565b9050620002208282620002d1565b919050565b6000604051905090565b600067ffffffffffffffff8211156200024d576200024c62000336565b5b620002588262000365565b9050602081019050919050565b60005b838110156200028557808201518184015260208101905062000268565b8381111562000295576000848401525b50505050565b60006002820490506001821680620002b457607f821691505b60208210811415620002cb57620002ca62000307565b5b50919050565b620002dc8262000365565b810181811067ffffffffffffffff82111715620002fe57620002fd62000336565b5b80604052505050565b7f4e487b7100000000000000000000000000000000000000000000000000000000600052602260045260246000fd5b7f4e487b7100000000000000000000000000000000000000000000000000000000600052604160045260246000fd5b6000601f19601f8301169050919050565b61239680620003866000396000f3fe608060405234801561001057600080fd5b50600436106100ea5760003560e01c806370a082311161008c578063b88d4fde11610066578063b88d4fde1461025b578063c87b56dd14610277578063cd279c7c146102a7578063e985e9c5146102c3576100ea565b806370a08231146101f157806395d89b4114610221578063a22cb4651461023f576100ea565b8063095ea7b3116100c8578063095ea7b31461016d57806323b872dd1461018957806342842e0e146101a55780636352211e146101c1576100ea565b806301ffc9a7146100ef57806306fdde031461011f578063081812fc1461013d575b600080fd5b610109600480360381019061010491906118b1565b6102f3565b6040516101169190611c23565b60405180910390f35b6101276103d5565b6040516101349190611c3e565b60405180910390f35b61015760048036038101906101529190611903565b610467565b6040516101649190611bbc565b60405180910390f35b6101876004803603810190610182919061180e565b6104ad565b005b6101a3600480360381019061019e9190611708565b6105c5565b005b6101bf60048036038101906101ba9190611708565b610625565b005b6101db60048036038101906101d69190611903565b610645565b6040516101e89190611bbc565b60405180910390f35b61020b600480360381019061020691906116a3565b6106f7565b6040516102189190611dc0565b60405180910390f35b6102296107af565b6040516102369190611c3e565b60405180910390f35b610259600480360381019061025491906117d2565b610841565b005b61027560048036038101906102709190611757565b610857565b005b610291600480360381019061028c9190611903565b6108b9565b60405161029e9190611c3e565b60405180910390f35b6102c160048036038101906102bc919061184a565b610919565b005b6102dd60048036038101906102d891906116cc565b610932565b6040516102ea9190611c23565b60405180910390f35b60007f80ac58cd000000000000000000000000000000000000000000000000000000007bffffffffffffffffffffffffffffffffffffffffffffffffffffffff1916827bffffffffffffffffffffffffffffffffffffffffffffffffffffffff191614806103be57507f5b5e139f000000000000000000000000000000000000000000000000000000007bffffffffffffffffffffffffffffffffffffffffffffffffffffffff1916827bffffffffffffffffffffffffffffffffffffffffffffffffffffffff1916145b806103ce57506103cd826109c6565b5b9050919050565b6060600080546103e490611f5b565b80601f016020809104026020016040519081016040528092919081815260200182805461041090611f5b565b801561045d5780601f106104325761010080835404028352916020019161045d565b820191906000526020600020905b81548152906001019060200180831161044057829003601f168201915b5050505050905090565b600061047282610a30565b6004600083815260200190815260200160002060009054906101000a900473ffffffffffffffffffffffffffffffffffffffff169050919050565b60006104b882610645565b90508073ffffffffffffffffffffffffffffffffffffffff168373ffffffffffffffffffffffffffffffffffffffff161415610529576040517f08c379a000000000000000000000000000000000000000000000000000000000815260040161052090611d80565b60405180910390fd5b8073ffffffffffffffffffffffffffffffffffffffff16610548610a7b565b73ffffffffffffffffffffffffffffffffffffffff161480610577575061057681610571610a7b565b610932565b5b6105b6576040517f08c379a00000000000000000000000000000000000000000000000000000000081526004016105ad90611da0565b60405180910390fd5b6105c08383610a83565b505050565b6105d66105d0610a7b565b82610b3c565b610615576040517f08c379a000000000000000000000000000000000000000000000000000000000815260040161060c90611c60565b60405180910390fd5b610620838383610bd1565b505050565b61064083838360405180602001604052806000815250610857565b505050565b6000806002600084815260200190815260200160002060009054906101000a900473ffffffffffffffffffffffffffffffffffffffff169050600073ffffffffffffffffffffffffffffffffffffffff168173ffffffffffffffffffffffffffffffffffffffff1614156106ee576040517f08c379a00000000000000000000000000000000000000000000000000000000081526004016106e590611d60565b60405180910390fd5b80915050919050565b60008073ffffffffffffffffffffffffffffffffffffffff168273ffffffffffffffffffffffffffffffffffffffff161415610768576040517f08c379a000000000000000000000000000000000000000000000000000000000815260040161075f90611d20565b60405180910390fd5b600360008373ffffffffffffffffffffffffffffffffffffffff1673ffffffffffffffffffffffffffffffffffffffff168152602001908152602001600020549050919050565b6060600180546107be90611f5b565b80601f01602080910402602001604051908101604052809291908181526020018280546107ea90611f5b565b80156108375780601f1061080c57610100808354040283529160200191610837565b820191906000526020600020905b81548152906001019060200180831161081a57829003601f168201915b5050505050905090565b61085361084c610a7b565b8383610ec7565b5050565b610868610862610a7b565b83610b3c565b6108a7576040517f08c379a000000000000000000000000000000000000000000000000000000000815260040161089e90611c60565b60405180910390fd5b6108b384848484611034565b50505050565b60606108c482610a30565b60006108ce611090565b905060008151116108ee5760405180602001604052806000815250610911565b8083604051602001610901929190611b94565b6040516020818303038152906040525b915050919050565b61092383836110a7565b61092c826108b9565b50505050565b6000600560008473ffffffffffffffffffffffffffffffffffffffff1673ffffffffffffffffffffffffffffffffffffffff16815260200190815260200160002060008373ffffffffffffffffffffffffffffffffffffffff1673ffffffffffffffffffffffffffffffffffffffff16815260200190815260200160002060009054906101000a900460ff16905092915050565b60007f01ffc9a7000000000000000000000000000000000000000000000000000000007bffffffffffffffffffffffffffffffffffffffffffffffffffffffff1916827bffffffffffffffffffffffffffffffffffffffffffffffffffffffff1916149050919050565b610a39816110c5565b610a78576040517f08c379a0000000000000000000000000000000000000000000000000000000008152600401610a6f90611d60565b60405180910390fd5b50565b600033905090565b816004600083815260200190815260200160002060006101000a81548173ffffffffffffffffffffffffffffffffffffffff021916908373ffffffffffffffffffffffffffffffffffffffff160217905550808273ffffffffffffffffffffffffffffffffffffffff16610af683610645565b73ffffffffffffffffffffffffffffffffffffffff167f8c5be1e5ebec7d5bd14f71427d1e84f3dd0314c0f7b2291e5b200ac8c7c3b92560405160405180910390a45050565b600080610b4883610645565b90508073ffffffffffffffffffffffffffffffffffffffff168473ffffffffffffffffffffffffffffffffffffffff161480610b8a5750610b898185610932565b5b80610bc857508373ffffffffffffffffffffffffffffffffffffffff16610bb084610467565b73ffffffffffffffffffffffffffffffffffffffff16145b91505092915050565b8273ffffffffffffffffffffffffffffffffffffffff16610bf182610645565b73ffffffffffffffffffffffffffffffffffffffff1614610c47576040517f08c379a0000000000000000000000000000000000000000000000000000000008152600401610c3e90611ca0565b60405180910390fd5b600073ffffffffffffffffffffffffffffffffffffffff168273ffffffffffffffffffffffffffffffffffffffff161415610cb7576040517f08c379a0000000000000000000000000000000000000000000000000000000008152600401610cae90611ce0565b60405180910390fd5b610cc2838383611131565b8273ffffffffffffffffffffffffffffffffffffffff16610ce282610645565b73ffffffffffffffffffffffffffffffffffffffff1614610d38576040517f08c379a0000000000000000000000000000000000000000000000000000000008152600401610d2f90611ca0565b60405180910390fd5b6004600082815260200190815260200160002060006101000a81549073ffffffffffffffffffffffffffffffffffffffff02191690556001600360008573ffffffffffffffffffffffffffffffffffffffff1673ffffffffffffffffffffffffffffffffffffffff168152602001908152602001600020600082825403925050819055506001600360008473ffffffffffffffffffffffffffffffffffffffff1673ffffffffffffffffffffffffffffffffffffffff16815260200190815260200160002060008282540192505081905550816002600083815260200190815260200160002060006101000a81548173ffffffffffffffffffffffffffffffffffffffff021916908373ffffffffffffffffffffffffffffffffffffffff160217905550808273ffffffffffffffffffffffffffffffffffffffff168473ffffffffffffffffffffffffffffffffffffffff167fddf252ad1be2c89b69c2b068fc378daa952ba7f163c4a11628f55a4df523b3ef60405160405180910390a4610ec2838383611136565b505050565b8173ffffffffffffffffffffffffffffffffffffffff168373ffffffffffffffffffffffffffffffffffffffff161415610f36576040517f08c379a0000000000000000000000000000000000000000000000000000000008152600401610f2d90611d00565b60405180910390fd5b80600560008573ffffffffffffffffffffffffffffffffffffffff1673ffffffffffffffffffffffffffffffffffffffff16815260200190815260200160002060008473ffffffffffffffffffffffffffffffffffffffff1673ffffffffffffffffffffffffffffffffffffffff16815260200190815260200160002060006101000a81548160ff0219169083151502179055508173ffffffffffffffffffffffffffffffffffffffff168373ffffffffffffffffffffffffffffffffffffffff167f17307eab39ab6107e8899845ad3d59bd9653f200f220920489ca2b5937696c31836040516110279190611c23565b60405180910390a3505050565b61103f848484610bd1565b61104b8484848461113b565b61108a576040517f08c379a000000000000000000000000000000000000000000000000000000000815260040161108190611c80565b60405180910390fd5b50505050565b606060405180602001604052806000815250905090565b6110c18282604051806020016040528060008152506112d2565b5050565b60008073ffffffffffffffffffffffffffffffffffffffff166002600084815260200190815260200160002060009054906101000a900473ffffffffffffffffffffffffffffffffffffffff1673ffffffffffffffffffffffffffffffffffffffff1614159050919050565b505050565b505050565b600061115c8473ffffffffffffffffffffffffffffffffffffffff1661132d565b156112c5578373ffffffffffffffffffffffffffffffffffffffff1663150b7a02611185610a7b565b8786866040518563ffffffff1660e01b81526004016111a79493929190611bd7565b602060405180830381600087803b1580156111c157600080fd5b505af19250505080156111f257506040513d601f19601f820116820180604052508101906111ef91906118da565b60015b611275573d8060008114611222576040519150601f19603f3d011682016040523d82523d6000602084013e611227565b606091505b5060008151141561126d576040517f08c379a000000000000000000000000000000000000000000000000000000000815260040161126490611c80565b60405180910390fd5b805181602001fd5b63150b7a0260e01b7bffffffffffffffffffffffffffffffffffffffffffffffffffffffff1916817bffffffffffffffffffffffffffffffffffffffffffffffffffffffff1916149150506112ca565b600190505b949350505050565b6112dc8383611350565b6112e9600084848461113b565b611328576040517f08c379a000000000000000000000000000000000000000000000000000000000815260040161131f90611c80565b60405180910390fd5b505050565b6000808273ffffffffffffffffffffffffffffffffffffffff163b119050919050565b600073ffffffffffffffffffffffffffffffffffffffff168273ffffffffffffffffffffffffffffffffffffffff1614156113c0576040517f08c379a00000000000000000000000000000000000000000000000000000000081526004016113b790611d40565b60405180910390fd5b6113c9816110c5565b15611409576040517f08c379a000000000000000000000000000000000000000000000000000000000815260040161140090611cc0565b60405180910390fd5b61141560008383611131565b61141e816110c5565b1561145e576040517f08c379a000000000000000000000000000000000000000000000000000000000815260040161145590611cc0565b60405180910390fd5b6001600360008473ffffffffffffffffffffffffffffffffffffffff1673ffffffffffffffffffffffffffffffffffffffff16815260200190815260200160002060008282540192505081905550816002600083815260200190815260200160002060006101000a81548173ffffffffffffffffffffffffffffffffffffffff021916908373ffffffffffffffffffffffffffffffffffffffff160217905550808273ffffffffffffffffffffffffffffffffffffffff16600073ffffffffffffffffffffffffffffffffffffffff167fddf252ad1be2c89b69c2b068fc378daa952ba7f163c4a11628f55a4df523b3ef60405160405180910390a461156660008383611136565b5050565b600061157d61157884611e00565b611ddb565b90508281526020810184848401111561159557600080fd5b6115a0848285611f19565b509392505050565b60006115bb6115b684611e31565b611ddb565b9050828152602081018484840111156115d357600080fd5b6115de848285611f19565b509392505050565b6000813590506115f581612304565b92915050565b60008135905061160a8161231b565b92915050565b60008135905061161f81612332565b92915050565b60008151905061163481612332565b92915050565b600082601f83011261164b57600080fd5b813561165b84826020860161156a565b91505092915050565b600082601f83011261167557600080fd5b81356116858482602086016115a8565b91505092915050565b60008135905061169d81612349565b92915050565b6000602082840312156116b557600080fd5b60006116c3848285016115e6565b91505092915050565b600080604083850312156116df57600080fd5b60006116ed858286016115e6565b92505060206116fe858286016115e6565b9150509250929050565b60008060006060848603121561171d57600080fd5b600061172b868287016115e6565b935050602061173c868287016115e6565b925050604061174d8682870161168e565b9150509250925092565b6000806000806080858703121561176d57600080fd5b600061177b878288016115e6565b945050602061178c878288016115e6565b935050604061179d8782880161168e565b925050606085013567ffffffffffffffff8111156117ba57600080fd5b6117c68782880161163a565b91505092959194509250565b600080604083850312156117e557600080fd5b60006117f3858286016115e6565b9250506020611804858286016115fb565b9150509250929050565b6000806040838503121561182157600080fd5b600061182f858286016115e6565b92505060206118408582860161168e565b9150509250929050565b60008060006060848603121561185f57600080fd5b600061186d868287016115e6565b935050602061187e8682870161168e565b925050604084013567ffffffffffffffff81111561189b57600080fd5b6118a786828701611664565b9150509250925092565b6000602082840312156118c357600080fd5b60006118d184828501611610565b91505092915050565b6000602082840312156118ec57600080fd5b60006118fa84828501611625565b91505092915050565b60006020828403121561191557600080fd5b60006119238482850161168e565b91505092915050565b61193581611ea5565b82525050565b61194481611eb7565b82525050565b600061195582611e62565b61195f8185611e78565b935061196f818560208601611f28565b61197881612026565b840191505092915050565b600061198e82611e6d565b6119988185611e89565b93506119a8818560208601611f28565b6119b181612026565b840191505092915050565b60006119c782611e6d565b6119d18185611e9a565b93506119e1818560208601611f28565b80840191505092915050565b60006119fa602d83611e89565b9150611a0582612037565b604082019050919050565b6000611a1d603283611e89565b9150611a2882612086565b604082019050919050565b6000611a40602583611e89565b9150611a4b826120d5565b604082019050919050565b6000611a63601c83611e89565b9150611a6e82612124565b602082019050919050565b6000611a86602483611e89565b9150611a918261214d565b604082019050919050565b6000611aa9601983611e89565b9150611ab48261219c565b602082019050919050565b6000611acc602983611e89565b9150611ad7826121c5565b604082019050919050565b6000611aef602083611e89565b9150611afa82612214565b602082019050919050565b6000611b12601883611e89565b9150611b1d8261223d565b602082019050919050565b6000611b35602183611e89565b9150611b4082612266565b604082019050919050565b6000611b58603d83611e89565b9150611b63826122b5565b604082019050919050565b611b7781611f0f565b82525050565b611b8e611b8982611f0f565b611fbe565b82525050565b6000611ba082856119bc565b9150611bac8284611b7d565b6020820191508190509392505050565b6000602082019050611bd1600083018461192c565b92915050565b6000608082019050611bec600083018761192c565b611bf9602083018661192c565b611c066040830185611b6e565b8181036060830152611c18818461194a565b905095945050505050565b6000602082019050611c38600083018461193b565b92915050565b60006020820190508181036000830152611c588184611983565b905092915050565b60006020820190508181036000830152611c79816119ed565b9050919050565b60006020820190508181036000830152611c9981611a10565b9050919050565b60006020820190508181036000830152611cb981611a33565b9050919050565b60006020820190508181036000830152611cd981611a56565b9050919050565b60006020820190508181036000830152611cf981611a79565b9050919050565b60006020820190508181036000830152611d1981611a9c565b9050919050565b60006020820190508181036000830152611d3981611abf565b9050919050565b60006020820190508181036000830152611d5981611ae2565b9050919050565b60006020820190508181036000830152611d7981611b05565b9050919050565b60006020820190508181036000830152611d9981611b28565b9050919050565b60006020820190508181036000830152611db981611b4b565b9050919050565b6000602082019050611dd56000830184611b6e565b92915050565b6000611de5611df6565b9050611df18282611f8d565b919050565b6000604051905090565b600067ffffffffffffffff821115611e1b57611e1a611ff7565b5b611e2482612026565b9050602081019050919050565b600067ffffffffffffffff821115611e4c57611e4b611ff7565b5b611e5582612026565b9050602081019050919050565b600081519050919050565b600081519050919050565b600082825260208201905092915050565b600082825260208201905092915050565b600081905092915050565b6000611eb082611eef565b9050919050565b60008115159050919050565b60007fffffffff0000000000000000000000000000000000000000000000000000000082169050919050565b600073ffffffffffffffffffffffffffffffffffffffff82169050919050565b6000819050919050565b82818337600083830152505050565b60005b83811015611f46578082015181840152602081019050611f2b565b83811115611f55576000848401525b50505050565b60006002820490506001821680611f7357607f821691505b60208210811415611f8757611f86611fc8565b5b50919050565b611f9682612026565b810181811067ffffffffffffffff82111715611fb557611fb4611ff7565b5b80604052505050565b6000819050919050565b7f4e487b7100000000000000000000000000000000000000000000000000000000600052602260045260246000fd5b7f4e487b7100000000000000000000000000000000000000000000000000000000600052604160045260246000fd5b6000601f19601f8301169050919050565b7f4552433732313a2063616c6c6572206973206e6f7420746f6b656e206f776e6560008201527f72206f7220617070726f76656400000000000000000000000000000000000000602082015250565b7f4552433732313a207472616e7366657220746f206e6f6e20455243373231526560008201527f63656976657220696d706c656d656e7465720000000000000000000000000000602082015250565b7f4552433732313a207472616e736665722066726f6d20696e636f72726563742060008201527f6f776e6572000000000000000000000000000000000000000000000000000000602082015250565b7f4552433732313a20746f6b656e20616c7265616479206d696e74656400000000600082015250565b7f4552433732313a207472616e7366657220746f20746865207a65726f2061646460008201527f7265737300000000000000000000000000000000000000000000000000000000602082015250565b7f4552433732313a20617070726f766520746f2063616c6c657200000000000000600082015250565b7f4552433732313a2061646472657373207a65726f206973206e6f74206120766160008201527f6c6964206f776e65720000000000000000000000000000000000000000000000602082015250565b7f4552433732313a206d696e7420746f20746865207a65726f2061646472657373600082015250565b7f4552433732313a20696e76616c696420746f6b656e2049440000000000000000600082015250565b7f4552433732313a20617070726f76616c20746f2063757272656e74206f776e6560008201527f7200000000000000000000000000000000000000000000000000000000000000602082015250565b7f4552433732313a20617070726f76652063616c6c6572206973206e6f7420746f60008201527f6b656e206f776e6572206f7220617070726f76656420666f7220616c6c000000602082015250565b61230d81611ea5565b811461231857600080fd5b50565b61232481611eb7565b811461232f57600080fd5b50565b61233b81611ec3565b811461234657600080fd5b50565b61235281611f0f565b811461235d57600080fd5b5056fea264697066735822122076883c8fabf37513fe6fed88f3d1095d94e57f4fd7f8d575d6c878a322e4a15e64736f6c63430008040033",
					"opcodes": "PUSH1 0x80 PUSH1 0x40 MSTORE CALLVALUE DUP1 ISZERO PUSH3 0x11 JUMPI PUSH1 0x0 DUP1 REVERT JUMPDEST POP PUSH1 0x40 MLOAD PUSH3 0x271C CODESIZE SUB DUP1 PUSH3 0x271C DUP4 CODECOPY DUP2 DUP2 ADD PUSH1 0x40 MSTORE DUP2 ADD SWAP1 PUSH3 0x37 SWAP2 SWAP1 PUSH3 0x193 JUMP JUMPDEST DUP2 PUSH1 0x0 SWAP1 DUP1 MLOAD SWAP1 PUSH1 0x20 ADD SWAP1 PUSH3 0x4F SWAP3 SWAP2 SWAP1 PUSH3 0x71 JUMP JUMPDEST POP DUP1 PUSH1 0x1 SWAP1 DUP1 MLOAD SWAP1 PUSH1 0x20 ADD SWAP1 PUSH3 0x68 SWAP3 SWAP2 SWAP1 PUSH3 0x71 JUMP JUMPDEST POP POP POP PUSH3 0x376 JUMP JUMPDEST DUP3 DUP1 SLOAD PUSH3 0x7F SWAP1 PUSH3 0x29B JUMP JUMPDEST SWAP1 PUSH1 0x0 MSTORE PUSH1 0x20 PUSH1 0x0 KECCAK256 SWAP1 PUSH1 0x1F ADD PUSH1 0x20 SWAP1 DIV DUP2 ADD SWAP3 DUP3 PUSH3 0xA3 JUMPI PUSH1 0x0 DUP6 SSTORE PUSH3 0xEF JUMP JUMPDEST DUP3 PUSH1 0x1F LT PUSH3 0xBE JUMPI DUP1 MLOAD PUSH1 0xFF NOT AND DUP4 DUP1 ADD OR DUP6 SSTORE PUSH3 0xEF JUMP JUMPDEST DUP3 DUP1 ADD PUSH1 0x1 ADD DUP6 SSTORE DUP3 ISZERO PUSH3 0xEF JUMPI SWAP2 DUP3 ADD JUMPDEST DUP3 DUP2 GT ISZERO PUSH3 0xEE JUMPI DUP3 MLOAD DUP3 SSTORE SWAP2 PUSH1 0x20 ADD SWAP2 SWAP1 PUSH1 0x1 ADD SWAP1 PUSH3 0xD1 JUMP JUMPDEST JUMPDEST POP SWAP1 POP PUSH3 0xFE SWAP2 SWAP1 PUSH3 0x102 JUMP JUMPDEST POP SWAP1 JUMP JUMPDEST JUMPDEST DUP1 DUP3 GT ISZERO PUSH3 0x11D JUMPI PUSH1 0x0 DUP2 PUSH1 0x0 SWAP1 SSTORE POP PUSH1 0x1 ADD PUSH3 0x103 JUMP JUMPDEST POP SWAP1 JUMP JUMPDEST PUSH1 0x0 PUSH3 0x138 PUSH3 0x132 DUP5 PUSH3 0x22F JUMP JUMPDEST PUSH3 0x206 JUMP JUMPDEST SWAP1 POP DUP3 DUP2 MSTORE PUSH1 0x20 DUP2 ADD DUP5 DUP5 DUP5 ADD GT ISZERO PUSH3 0x151 JUMPI PUSH1 0x0 DUP1 REVERT JUMPDEST PUSH3 0x15E DUP5 DUP3 DUP6 PUSH3 0x265 JUMP JUMPDEST POP SWAP4 SWAP3 POP POP POP JUMP JUMPDEST PUSH1 0x0 DUP3 PUSH1 0x1F DUP4 ADD SLT PUSH3 0x178 JUMPI PUSH1 0x0 DUP1 REVERT JUMPDEST DUP2 MLOAD PUSH3 0x18A DUP5 DUP3 PUSH1 0x20 DUP7 ADD PUSH3 0x121 JUMP JUMPDEST SWAP2 POP POP SWAP3 SWAP2 POP POP JUMP JUMPDEST PUSH1 0x0 DUP1 PUSH1 0x40 DUP4 DUP6 SUB SLT ISZERO PUSH3 0x1A7 JUMPI PUSH1 0x0 DUP1 REVERT JUMPDEST PUSH1 0x0 DUP4 ADD MLOAD PUSH8 0xFFFFFFFFFFFFFFFF DUP2 GT ISZERO PUSH3 0x1C2 JUMPI PUSH1 0x0 DUP1 REVERT JUMPDEST PUSH3 0x1D0 DUP6 DUP3 DUP7 ADD PUSH3 0x166 JUMP JUMPDEST SWAP3 POP POP PUSH1 0x20 DUP4 ADD MLOAD PUSH8 0xFFFFFFFFFFFFFFFF DUP2 GT ISZERO PUSH3 0x1EE JUMPI PUSH1 0x0 DUP1 REVERT JUMPDEST PUSH3 0x1FC DUP6 DUP3 DUP7 ADD PUSH3 0x166 JUMP JUMPDEST SWAP2 POP POP SWAP3 POP SWAP3 SWAP1 POP JUMP JUMPDEST PUSH1 0x0 PUSH3 0x212 PUSH3 0x225 JUMP JUMPDEST SWAP1 POP PUSH3 0x220 DUP3 DUP3 PUSH3 0x2D1 JUMP JUMPDEST SWAP2 SWAP1 POP JUMP JUMPDEST PUSH1 0x0 PUSH1 0x40 MLOAD SWAP1 POP SWAP1 JUMP JUMPDEST PUSH1 0x0 PUSH8 0xFFFFFFFFFFFFFFFF DUP3 GT ISZERO PUSH3 0x24D JUMPI PUSH3 0x24C PUSH3 0x336 JUMP JUMPDEST JUMPDEST PUSH3 0x258 DUP3 PUSH3 0x365 JUMP JUMPDEST SWAP1 POP PUSH1 0x20 DUP2 ADD SWAP1 POP SWAP2 SWAP1 POP JUMP JUMPDEST PUSH1 0x0 JUMPDEST DUP4 DUP2 LT ISZERO PUSH3 0x285 JUMPI DUP1 DUP3 ADD MLOAD DUP2 DUP5 ADD MSTORE PUSH1 0x20 DUP2 ADD SWAP1 POP PUSH3 0x268 JUMP JUMPDEST DUP4 DUP2 GT ISZERO PUSH3 0x295 JUMPI PUSH1 0x0 DUP5 DUP5 ADD MSTORE JUMPDEST POP POP POP POP JUMP JUMPDEST PUSH1 0x0 PUSH1 0x2 DUP3 DIV SWAP1 POP PUSH1 0x1 DUP3 AND DUP1 PUSH3 0x2B4 JUMPI PUSH1 0x7F DUP3 AND SWAP2 POP JUMPDEST PUSH1 0x20 DUP3 LT DUP2 EQ ISZERO PUSH3 0x2CB JUMPI PUSH3 0x2CA PUSH3 0x307 JUMP JUMPDEST JUMPDEST POP SWAP2 SWAP1 POP JUMP JUMPDEST PUSH3 0x2DC DUP3 PUSH3 0x365 JUMP JUMPDEST DUP2 ADD DUP2 DUP2 LT PUSH8 0xFFFFFFFFFFFFFFFF DUP3 GT OR ISZERO PUSH3 0x2FE JUMPI PUSH3 0x2FD PUSH3 0x336 JUMP JUMPDEST JUMPDEST DUP1 PUSH1 0x40 MSTORE POP POP POP JUMP JUMPDEST PUSH32 0x4E487B7100000000000000000000000000000000000000000000000000000000 PUSH1 0x0 MSTORE PUSH1 0x22 PUSH1 0x4 MSTORE PUSH1 0x24 PUSH1 0x0 REVERT JUMPDEST PUSH32 0x4E487B7100000000000000000000000000000000000000000000000000000000 PUSH1 0x0 MSTORE PUSH1 0x41 PUSH1 0x4 MSTORE PUSH1 0x24 PUSH1 0x0 REVERT JUMPDEST PUSH1 0x0 PUSH1 0x1F NOT PUSH1 0x1F DUP4 ADD AND SWAP1 POP SWAP2 SWAP1 POP JUMP JUMPDEST PUSH2 0x2396 DUP1 PUSH3 0x386 PUSH1 0x0 CODECOPY PUSH1 0x0 RETURN INVALID PUSH1 0x80 PUSH1 0x40 MSTORE CALLVALUE DUP1 ISZERO PUSH2 0x10 JUMPI PUSH1 0x0 DUP1 REVERT JUMPDEST POP PUSH1 0x4 CALLDATASIZE LT PUSH2 0xEA JUMPI PUSH1 0x0 CALLDATALOAD PUSH1 0xE0 SHR DUP1 PUSH4 0x70A08231 GT PUSH2 0x8C JUMPI DUP1 PUSH4 0xB88D4FDE GT PUSH2 0x66 JUMPI DUP1 PUSH4 0xB88D4FDE EQ PUSH2 0x25B JUMPI DUP1 PUSH4 0xC87B56DD EQ PUSH2 0x277 JUMPI DUP1 PUSH4 0xCD279C7C EQ PUSH2 0x2A7 JUMPI DUP1 PUSH4 0xE985E9C5 EQ PUSH2 0x2C3 JUMPI PUSH2 0xEA JUMP JUMPDEST DUP1 PUSH4 0x70A08231 EQ PUSH2 0x1F1 JUMPI DUP1 PUSH4 0x95D89B41 EQ PUSH2 0x221 JUMPI DUP1 PUSH4 0xA22CB465 EQ PUSH2 0x23F JUMPI PUSH2 0xEA JUMP JUMPDEST DUP1 PUSH4 0x95EA7B3 GT PUSH2 0xC8 JUMPI DUP1 PUSH4 0x95EA7B3 EQ PUSH2 0x16D JUMPI DUP1 PUSH4 0x23B872DD EQ PUSH2 0x189 JUMPI DUP1 PUSH4 0x42842E0E EQ PUSH2 0x1A5 JUMPI DUP1 PUSH4 0x6352211E EQ PUSH2 0x1C1 JUMPI PUSH2 0xEA JUMP JUMPDEST DUP1 PUSH4 0x1FFC9A7 EQ PUSH2 0xEF JUMPI DUP1 PUSH4 0x6FDDE03 EQ PUSH2 0x11F JUMPI DUP1 PUSH4 0x81812FC EQ PUSH2 0x13D JUMPI JUMPDEST PUSH1 0x0 DUP1 REVERT JUMPDEST PUSH2 0x109 PUSH1 0x4 DUP1 CALLDATASIZE SUB DUP2 ADD SWAP1 PUSH2 0x104 SWAP2 SWAP1 PUSH2 0x18B1 JUMP JUMPDEST PUSH2 0x2F3 JUMP JUMPDEST PUSH1 0x40 MLOAD PUSH2 0x116 SWAP2 SWAP1 PUSH2 0x1C23 JUMP JUMPDEST PUSH1 0x40 MLOAD DUP1 SWAP2 SUB SWAP1 RETURN JUMPDEST PUSH2 0x127 PUSH2 0x3D5 JUMP JUMPDEST PUSH1 0x40 MLOAD PUSH2 0x134 SWAP2 SWAP1 PUSH2 0x1C3E JUMP JUMPDEST PUSH1 0x40 MLOAD DUP1 SWAP2 SUB SWAP1 RETURN JUMPDEST PUSH2 0x157 PUSH1 0x4 DUP1 CALLDATASIZE SUB DUP2 ADD SWAP1 PUSH2 0x152 SWAP2 SWAP1 PUSH2 0x1903 JUMP JUMPDEST PUSH2 0x467 JUMP JUMPDEST PUSH1 0x40 MLOAD PUSH2 0x164 SWAP2 SWAP1 PUSH2 0x1BBC JUMP JUMPDEST PUSH1 0x40 MLOAD DUP1 SWAP2 SUB SWAP1 RETURN JUMPDEST PUSH2 0x187 PUSH1 0x4 DUP1 CALLDATASIZE SUB DUP2 ADD SWAP1 PUSH2 0x182 SWAP2 SWAP1 PUSH2 0x180E JUMP JUMPDEST PUSH2 0x4AD JUMP JUMPDEST STOP JUMPDEST PUSH2 0x1A3 PUSH1 0x4 DUP1 CALLDATASIZE SUB DUP2 ADD SWAP1 PUSH2 0x19E SWAP2 SWAP1 PUSH2 0x1708 JUMP JUMPDEST PUSH2 0x5C5 JUMP JUMPDEST STOP JUMPDEST PUSH2 0x1BF PUSH1 0x4 DUP1 CALLDATASIZE SUB DUP2 ADD SWAP1 PUSH2 0x1BA SWAP2 SWAP1 PUSH2 0x1708 JUMP JUMPDEST PUSH2 0x625 JUMP JUMPDEST STOP JUMPDEST PUSH2 0x1DB PUSH1 0x4 DUP1 CALLDATASIZE SUB DUP2 ADD SWAP1 PUSH2 0x1D6 SWAP2 SWAP1 PUSH2 0x1903 JUMP JUMPDEST PUSH2 0x645 JUMP JUMPDEST PUSH1 0x40 MLOAD PUSH2 0x1E8 SWAP2 SWAP1 PUSH2 0x1BBC JUMP JUMPDEST PUSH1 0x40 MLOAD DUP1 SWAP2 SUB SWAP1 RETURN JUMPDEST PUSH2 0x20B PUSH1 0x4 DUP1 CALLDATASIZE SUB DUP2 ADD SWAP1 PUSH2 0x206 SWAP2 SWAP1 PUSH2 0x16A3 JUMP JUMPDEST PUSH2 0x6F7 JUMP JUMPDEST PUSH1 0x40 MLOAD PUSH2 0x218 SWAP2 SWAP1 PUSH2 0x1DC0 JUMP JUMPDEST PUSH1 0x40 MLOAD DUP1 SWAP2 SUB SWAP1 RETURN JUMPDEST PUSH2 0x229 PUSH2 0x7AF JUMP JUMPDEST PUSH1 0x40 MLOAD PUSH2 0x236 SWAP2 SWAP1 PUSH2 0x1C3E JUMP JUMPDEST PUSH1 0x40 MLOAD DUP1 SWAP2 SUB SWAP1 RETURN JUMPDEST PUSH2 0x259 PUSH1 0x4 DUP1 CALLDATASIZE SUB DUP2 ADD SWAP1 PUSH2 0x254 SWAP2 SWAP1 PUSH2 0x17D2 JUMP JUMPDEST PUSH2 0x841 JUMP JUMPDEST STOP JUMPDEST PUSH2 0x275 PUSH1 0x4 DUP1 CALLDATASIZE SUB DUP2 ADD SWAP1 PUSH2 0x270 SWAP2 SWAP1 PUSH2 0x1757 JUMP JUMPDEST PUSH2 0x857 JUMP JUMPDEST STOP JUMPDEST PUSH2 0x291 PUSH1 0x4 DUP1 CALLDATASIZE SUB DUP2 ADD SWAP1 PUSH2 0x28C SWAP2 SWAP1 PUSH2 0x1903 JUMP JUMPDEST PUSH2 0x8B9 JUMP JUMPDEST PUSH1 0x40 MLOAD PUSH2 0x29E SWAP2 SWAP1 PUSH2 0x1C3E JUMP JUMPDEST PUSH1 0x40 MLOAD DUP1 SWAP2 SUB SWAP1 RETURN JUMPDEST PUSH2 0x2C1 PUSH1 0x4 DUP1 CALLDATASIZE SUB DUP2 ADD SWAP1 PUSH2 0x2BC SWAP2 SWAP1 PUSH2 0x184A JUMP JUMPDEST PUSH2 0x919 JUMP JUMPDEST STOP JUMPDEST PUSH2 0x2DD PUSH1 0x4 DUP1 CALLDATASIZE SUB DUP2 ADD SWAP1 PUSH2 0x2D8 SWAP2 SWAP1 PUSH2 0x16CC JUMP JUMPDEST PUSH2 0x932 JUMP JUMPDEST PUSH1 0x40 MLOAD PUSH2 0x2EA SWAP2 SWAP1 PUSH2 0x1C23 JUMP JUMPDEST PUSH1 0x40 MLOAD DUP1 SWAP2 SUB SWAP1 RETURN JUMPDEST PUSH1 0x0 PUSH32 0x80AC58CD00000000000000000000000000000000000000000000000000000000 PUSH28 0xFFFFFFFFFFFFFFFFFFFFFFFFFFFFFFFFFFFFFFFFFFFFFFFFFFFFFFFF NOT AND DUP3 PUSH28 0xFFFFFFFFFFFFFFFFFFFFFFFFFFFFFFFFFFFFFFFFFFFFFFFFFFFFFFFF NOT AND EQ DUP1 PUSH2 0x3BE JUMPI POP PUSH32 0x5B5E139F00000000000000000000000000000000000000000000000000000000 PUSH28 0xFFFFFFFFFFFFFFFFFFFFFFFFFFFFFFFFFFFFFFFFFFFFFFFFFFFFFFFF NOT AND DUP3 PUSH28 0xFFFFFFFFFFFFFFFFFFFFFFFFFFFFFFFFFFFFFFFFFFFFFFFFFFFFFFFF NOT AND EQ JUMPDEST DUP1 PUSH2 0x3CE JUMPI POP PUSH2 0x3CD DUP3 PUSH2 0x9C6 JUMP JUMPDEST JUMPDEST SWAP1 POP SWAP2 SWAP1 POP JUMP JUMPDEST PUSH1 0x60 PUSH1 0x0 DUP1 SLOAD PUSH2 0x3E4 SWAP1 PUSH2 0x1F5B JUMP JUMPDEST DUP1 PUSH1 0x1F ADD PUSH1 0x20 DUP1 SWAP2 DIV MUL PUSH1 0x20 ADD PUSH1 0x40 MLOAD SWAP1 DUP2 ADD PUSH1 0x40 MSTORE DUP1 SWAP3 SWAP2 SWAP1 DUP2 DUP2 MSTORE PUSH1 0x20 ADD DUP3 DUP1 SLOAD PUSH2 0x410 SWAP1 PUSH2 0x1F5B JUMP JUMPDEST DUP1 ISZERO PUSH2 0x45D JUMPI DUP1 PUSH1 0x1F LT PUSH2 0x432 JUMPI PUSH2 0x100 DUP1 DUP4 SLOAD DIV MUL DUP4 MSTORE SWAP2 PUSH1 0x20 ADD SWAP2 PUSH2 0x45D JUMP JUMPDEST DUP3 ADD SWAP2 SWAP1 PUSH1 0x0 MSTORE PUSH1 0x20 PUSH1 0x0 KECCAK256 SWAP1 JUMPDEST DUP2 SLOAD DUP2 MSTORE SWAP1 PUSH1 0x1 ADD SWAP1 PUSH1 0x20 ADD DUP1 DUP4 GT PUSH2 0x440 JUMPI DUP3 SWAP1 SUB PUSH1 0x1F AND DUP3 ADD SWAP2 JUMPDEST POP POP POP POP POP SWAP1 POP SWAP1 JUMP JUMPDEST PUSH1 0x0 PUSH2 0x472 DUP3 PUSH2 0xA30 JUMP JUMPDEST PUSH1 0x4 PUSH1 0x0 DUP4 DUP2 MSTORE PUSH1 0x20 ADD SWAP1 DUP2 MSTORE PUSH1 0x20 ADD PUSH1 0x0 KECCAK256 PUSH1 0x0 SWAP1 SLOAD SWAP1 PUSH2 0x100 EXP SWAP1 DIV PUSH20 0xFFFFFFFFFFFFFFFFFFFFFFFFFFFFFFFFFFFFFFFF AND SWAP1 POP SWAP2 SWAP1 POP JUMP JUMPDEST PUSH1 0x0 PUSH2 0x4B8 DUP3 PUSH2 0x645 JUMP JUMPDEST SWAP1 POP DUP1 PUSH20 0xFFFFFFFFFFFFFFFFFFFFFFFFFFFFFFFFFFFFFFFF AND DUP4 PUSH20 0xFFFFFFFFFFFFFFFFFFFFFFFFFFFFFFFFFFFFFFFF AND EQ ISZERO PUSH2 0x529 JUMPI PUSH1 0x40 MLOAD PUSH32 0x8C379A000000000000000000000000000000000000000000000000000000000 DUP2 MSTORE PUSH1 0x4 ADD PUSH2 0x520 SWAP1 PUSH2 0x1D80 JUMP JUMPDEST PUSH1 0x40 MLOAD DUP1 SWAP2 SUB SWAP1 REVERT JUMPDEST DUP1 PUSH20 0xFFFFFFFFFFFFFFFFFFFFFFFFFFFFFFFFFFFFFFFF AND PUSH2 0x548 PUSH2 0xA7B JUMP JUMPDEST PUSH20 0xFFFFFFFFFFFFFFFFFFFFFFFFFFFFFFFFFFFFFFFF AND EQ DUP1 PUSH2 0x577 JUMPI POP PUSH2 0x576 DUP2 PUSH2 0x571 PUSH2 0xA7B JUMP JUMPDEST PUSH2 0x932 JUMP JUMPDEST JUMPDEST PUSH2 0x5B6 JUMPI PUSH1 0x40 MLOAD PUSH32 0x8C379A000000000000000000000000000000000000000000000000000000000 DUP2 MSTORE PUSH1 0x4 ADD PUSH2 0x5AD SWAP1 PUSH2 0x1DA0 JUMP JUMPDEST PUSH1 0x40 MLOAD DUP1 SWAP2 SUB SWAP1 REVERT JUMPDEST PUSH2 0x5C0 DUP4 DUP4 PUSH2 0xA83 JUMP JUMPDEST POP POP POP JUMP JUMPDEST PUSH2 0x5D6 PUSH2 0x5D0 PUSH2 0xA7B JUMP JUMPDEST DUP3 PUSH2 0xB3C JUMP JUMPDEST PUSH2 0x615 JUMPI PUSH1 0x40 MLOAD PUSH32 0x8C379A000000000000000000000000000000000000000000000000000000000 DUP2 MSTORE PUSH1 0x4 ADD PUSH2 0x60C SWAP1 PUSH2 0x1C60 JUMP JUMPDEST PUSH1 0x40 MLOAD DUP1 SWAP2 SUB SWAP1 REVERT JUMPDEST PUSH2 0x620 DUP4 DUP4 DUP4 PUSH2 0xBD1 JUMP JUMPDEST POP POP POP JUMP JUMPDEST PUSH2 0x640 DUP4 DUP4 DUP4 PUSH1 0x40 MLOAD DUP1 PUSH1 0x20 ADD PUSH1 0x40 MSTORE DUP1 PUSH1 0x0 DUP2 MSTORE POP PUSH2 0x857 JUMP JUMPDEST POP POP POP JUMP JUMPDEST PUSH1 0x0 DUP1 PUSH1 0x2 PUSH1 0x0 DUP5 DUP2 MSTORE PUSH1 0x20 ADD SWAP1 DUP2 MSTORE PUSH1 0x20 ADD PUSH1 0x0 KECCAK256 PUSH1 0x0 SWAP1 SLOAD SWAP1 PUSH2 0x100 EXP SWAP1 DIV PUSH20 0xFFFFFFFFFFFFFFFFFFFFFFFFFFFFFFFFFFFFFFFF AND SWAP1 POP PUSH1 0x0 PUSH20 0xFFFFFFFFFFFFFFFFFFFFFFFFFFFFFFFFFFFFFFFF AND DUP2 PUSH20 0xFFFFFFFFFFFFFFFFFFFFFFFFFFFFFFFFFFFFFFFF AND EQ ISZERO PUSH2 0x6EE JUMPI PUSH1 0x40 MLOAD PUSH32 0x8C379A000000000000000000000000000000000000000000000000000000000 DUP2 MSTORE PUSH1 0x4 ADD PUSH2 0x6E5 SWAP1 PUSH2 0x1D60 JUMP JUMPDEST PUSH1 0x40 MLOAD DUP1 SWAP2 SUB SWAP1 REVERT JUMPDEST DUP1 SWAP2 POP POP SWAP2 SWAP1 POP JUMP JUMPDEST PUSH1 0x0 DUP1 PUSH20 0xFFFFFFFFFFFFFFFFFFFFFFFFFFFFFFFFFFFFFFFF AND DUP3 PUSH20 0xFFFFFFFFFFFFFFFFFFFFFFFFFFFFFFFFFFFFFFFF AND EQ ISZERO PUSH2 0x768 JUMPI PUSH1 0x40 MLOAD PUSH32 0x8C379A000000000000000000000000000000000000000000000000000000000 DUP2 MSTORE PUSH1 0x4 ADD PUSH2 0x75F SWAP1 PUSH2 0x1D20 JUMP JUMPDEST PUSH1 0x40 MLOAD DUP1 SWAP2 SUB SWAP1 REVERT JUMPDEST PUSH1 0x3 PUSH1 0x0 DUP4 PUSH20 0xFFFFFFFFFFFFFFFFFFFFFFFFFFFFFFFFFFFFFFFF AND PUSH20 0xFFFFFFFFFFFFFFFFFFFFFFFFFFFFFFFFFFFFFFFF AND DUP2 MSTORE PUSH1 0x20 ADD SWAP1 DUP2 MSTORE PUSH1 0x20 ADD PUSH1 0x0 KECCAK256 SLOAD SWAP1 POP SWAP2 SWAP1 POP JUMP JUMPDEST PUSH1 0x60 PUSH1 0x1 DUP1 SLOAD PUSH2 0x7BE SWAP1 PUSH2 0x1F5B JUMP JUMPDEST DUP1 PUSH1 0x1F ADD PUSH1 0x20 DUP1 SWAP2 DIV MUL PUSH1 0x20 ADD PUSH1 0x40 MLOAD SWAP1 DUP2 ADD PUSH1 0x40 MSTORE DUP1 SWAP3 SWAP2 SWAP1 DUP2 DUP2 MSTORE PUSH1 0x20 ADD DUP3 DUP1 SLOAD PUSH2 0x7EA SWAP1 PUSH2 0x1F5B JUMP JUMPDEST DUP1 ISZERO PUSH2 0x837 JUMPI DUP1 PUSH1 0x1F LT PUSH2 0x80C JUMPI PUSH2 0x100 DUP1 DUP4 SLOAD DIV MUL DUP4 MSTORE SWAP2 PUSH1 0x20 ADD SWAP2 PUSH2 0x837 JUMP JUMPDEST DUP3 ADD SWAP2 SWAP1 PUSH1 0x0 MSTORE PUSH1 0x20 PUSH1 0x0 KECCAK256 SWAP1 JUMPDEST DUP2 SLOAD DUP2 MSTORE SWAP1 PUSH1 0x1 ADD SWAP1 PUSH1 0x20 ADD DUP1 DUP4 GT PUSH2 0x81A JUMPI DUP3 SWAP1 SUB PUSH1 0x1F AND DUP3 ADD SWAP2 JUMPDEST POP POP POP POP POP SWAP1 POP SWAP1 JUMP JUMPDEST PUSH2 0x853 PUSH2 0x84C PUSH2 0xA7B JUMP JUMPDEST DUP4 DUP4 PUSH2 0xEC7 JUMP JUMPDEST POP POP JUMP JUMPDEST PUSH2 0x868 PUSH2 0x862 PUSH2 0xA7B JUMP JUMPDEST DUP4 PUSH2 0xB3C JUMP JUMPDEST PUSH2 0x8A7 JUMPI PUSH1 0x40 MLOAD PUSH32 0x8C379A000000000000000000000000000000000000000000000000000000000 DUP2 MSTORE PUSH1 0x4 ADD PUSH2 0x89E SWAP1 PUSH2 0x1C60 JUMP JUMPDEST PUSH1 0x40 MLOAD DUP1 SWAP2 SUB SWAP1 REVERT JUMPDEST PUSH2 0x8B3 DUP5 DUP5 DUP5 DUP5 PUSH2 0x1034 JUMP JUMPDEST POP POP POP POP JUMP JUMPDEST PUSH1 0x60 PUSH2 0x8C4 DUP3 PUSH2 0xA30 JUMP JUMPDEST PUSH1 0x0 PUSH2 0x8CE PUSH2 0x1090 JUMP JUMPDEST SWAP1 POP PUSH1 0x0 DUP2 MLOAD GT PUSH2 0x8EE JUMPI PUSH1 0x40 MLOAD DUP1 PUSH1 0x20 ADD PUSH1 0x40 MSTORE DUP1 PUSH1 0x0 DUP2 MSTORE POP PUSH2 0x911 JUMP JUMPDEST DUP1 DUP4 PUSH1 0x40 MLOAD PUSH1 0x20 ADD PUSH2 0x901 SWAP3 SWAP2 SWAP1 PUSH2 0x1B94 JUMP JUMPDEST PUSH1 0x40 MLOAD PUSH1 0x20 DUP2 DUP4 SUB SUB DUP2 MSTORE SWAP1 PUSH1 0x40 MSTORE JUMPDEST SWAP2 POP POP SWAP2 SWAP1 POP JUMP JUMPDEST PUSH2 0x923 DUP4 DUP4 PUSH2 0x10A7 JUMP JUMPDEST PUSH2 0x92C DUP3 PUSH2 0x8B9 JUMP JUMPDEST POP POP POP POP JUMP JUMPDEST PUSH1 0x0 PUSH1 0x5 PUSH1 0x0 DUP5 PUSH20 0xFFFFFFFFFFFFFFFFFFFFFFFFFFFFFFFFFFFFFFFF AND PUSH20 0xFFFFFFFFFFFFFFFFFFFFFFFFFFFFFFFFFFFFFFFF AND DUP2 MSTORE PUSH1 0x20 ADD SWAP1 DUP2 MSTORE PUSH1 0x20 ADD PUSH1 0x0 KECCAK256 PUSH1 0x0 DUP4 PUSH20 0xFFFFFFFFFFFFFFFFFFFFFFFFFFFFFFFFFFFFFFFF AND PUSH20 0xFFFFFFFFFFFFFFFFFFFFFFFFFFFFFFFFFFFFFFFF AND DUP2 MSTORE PUSH1 0x20 ADD SWAP1 DUP2 MSTORE PUSH1 0x20 ADD PUSH1 0x0 KECCAK256 PUSH1 0x0 SWAP1 SLOAD SWAP1 PUSH2 0x100 EXP SWAP1 DIV PUSH1 0xFF AND SWAP1 POP SWAP3 SWAP2 POP POP JUMP JUMPDEST PUSH1 0x0 PUSH32 0x1FFC9A700000000000000000000000000000000000000000000000000000000 PUSH28 0xFFFFFFFFFFFFFFFFFFFFFFFFFFFFFFFFFFFFFFFFFFFFFFFFFFFFFFFF NOT AND DUP3 PUSH28 0xFFFFFFFFFFFFFFFFFFFFFFFFFFFFFFFFFFFFFFFFFFFFFFFFFFFFFFFF NOT AND EQ SWAP1 POP SWAP2 SWAP1 POP JUMP JUMPDEST PUSH2 0xA39 DUP2 PUSH2 0x10C5 JUMP JUMPDEST PUSH2 0xA78 JUMPI PUSH1 0x40 MLOAD PUSH32 0x8C379A000000000000000000000000000000000000000000000000000000000 DUP2 MSTORE PUSH1 0x4 ADD PUSH2 0xA6F SWAP1 PUSH2 0x1D60 JUMP JUMPDEST PUSH1 0x40 MLOAD DUP1 SWAP2 SUB SWAP1 REVERT JUMPDEST POP JUMP JUMPDEST PUSH1 0x0 CALLER SWAP1 POP SWAP1 JUMP JUMPDEST DUP2 PUSH1 0x4 PUSH1 0x0 DUP4 DUP2 MSTORE PUSH1 0x20 ADD SWAP1 DUP2 MSTORE PUSH1 0x20 ADD PUSH1 0x0 KECCAK256 PUSH1 0x0 PUSH2 0x100 EXP DUP2 SLOAD DUP2 PUSH20 0xFFFFFFFFFFFFFFFFFFFFFFFFFFFFFFFFFFFFFFFF MUL NOT AND SWAP1 DUP4 PUSH20 0xFFFFFFFFFFFFFFFFFFFFFFFFFFFFFFFFFFFFFFFF AND MUL OR SWAP1 SSTORE POP DUP1 DUP3 PUSH20 0xFFFFFFFFFFFFFFFFFFFFFFFFFFFFFFFFFFFFFFFF AND PUSH2 0xAF6 DUP4 PUSH2 0x645 JUMP JUMPDEST PUSH20 0xFFFFFFFFFFFFFFFFFFFFFFFFFFFFFFFFFFFFFFFF AND PUSH32 0x8C5BE1E5EBEC7D5BD14F71427D1E84F3DD0314C0F7B2291E5B200AC8C7C3B925 PUSH1 0x40 MLOAD PUSH1 0x40 MLOAD DUP1 SWAP2 SUB SWAP1 LOG4 POP POP JUMP JUMPDEST PUSH1 0x0 DUP1 PUSH2 0xB48 DUP4 PUSH2 0x645 JUMP JUMPDEST SWAP1 POP DUP1 PUSH20 0xFFFFFFFFFFFFFFFFFFFFFFFFFFFFFFFFFFFFFFFF AND DUP5 PUSH20 0xFFFFFFFFFFFFFFFFFFFFFFFFFFFFFFFFFFFFFFFF AND EQ DUP1 PUSH2 0xB8A JUMPI POP PUSH2 0xB89 DUP2 DUP6 PUSH2 0x932 JUMP JUMPDEST JUMPDEST DUP1 PUSH2 0xBC8 JUMPI POP DUP4 PUSH20 0xFFFFFFFFFFFFFFFFFFFFFFFFFFFFFFFFFFFFFFFF AND PUSH2 0xBB0 DUP5 PUSH2 0x467 JUMP JUMPDEST PUSH20 0xFFFFFFFFFFFFFFFFFFFFFFFFFFFFFFFFFFFFFFFF AND EQ JUMPDEST SWAP2 POP POP SWAP3 SWAP2 POP POP JUMP JUMPDEST DUP3 PUSH20 0xFFFFFFFFFFFFFFFFFFFFFFFFFFFFFFFFFFFFFFFF AND PUSH2 0xBF1 DUP3 PUSH2 0x645 JUMP JUMPDEST PUSH20 0xFFFFFFFFFFFFFFFFFFFFFFFFFFFFFFFFFFFFFFFF AND EQ PUSH2 0xC47 JUMPI PUSH1 0x40 MLOAD PUSH32 0x8C379A000000000000000000000000000000000000000000000000000000000 DUP2 MSTORE PUSH1 0x4 ADD PUSH2 0xC3E SWAP1 PUSH2 0x1CA0 JUMP JUMPDEST PUSH1 0x40 MLOAD DUP1 SWAP2 SUB SWAP1 REVERT JUMPDEST PUSH1 0x0 PUSH20 0xFFFFFFFFFFFFFFFFFFFFFFFFFFFFFFFFFFFFFFFF AND DUP3 PUSH20 0xFFFFFFFFFFFFFFFFFFFFFFFFFFFFFFFFFFFFFFFF AND EQ ISZERO PUSH2 0xCB7 JUMPI PUSH1 0x40 MLOAD PUSH32 0x8C379A000000000000000000000000000000000000000000000000000000000 DUP2 MSTORE PUSH1 0x4 ADD PUSH2 0xCAE SWAP1 PUSH2 0x1CE0 JUMP JUMPDEST PUSH1 0x40 MLOAD DUP1 SWAP2 SUB SWAP1 REVERT JUMPDEST PUSH2 0xCC2 DUP4 DUP4 DUP4 PUSH2 0x1131 JUMP JUMPDEST DUP3 PUSH20 0xFFFFFFFFFFFFFFFFFFFFFFFFFFFFFFFFFFFFFFFF AND PUSH2 0xCE2 DUP3 PUSH2 0x645 JUMP JUMPDEST PUSH20 0xFFFFFFFFFFFFFFFFFFFFFFFFFFFFFFFFFFFFFFFF AND EQ PUSH2 0xD38 JUMPI PUSH1 0x40 MLOAD PUSH32 0x8C379A000000000000000000000000000000000000000000000000000000000 DUP2 MSTORE PUSH1 0x4 ADD PUSH2 0xD2F SWAP1 PUSH2 0x1CA0 JUMP JUMPDEST PUSH1 0x40 MLOAD DUP1 SWAP2 SUB SWAP1 REVERT JUMPDEST PUSH1 0x4 PUSH1 0x0 DUP3 DUP2 MSTORE PUSH1 0x20 ADD SWAP1 DUP2 MSTORE PUSH1 0x20 ADD PUSH1 0x0 KECCAK256 PUSH1 0x0 PUSH2 0x100 EXP DUP2 SLOAD SWAP1 PUSH20 0xFFFFFFFFFFFFFFFFFFFFFFFFFFFFFFFFFFFFFFFF MUL NOT AND SWAP1 SSTORE PUSH1 0x1 PUSH1 0x3 PUSH1 0x0 DUP6 PUSH20 0xFFFFFFFFFFFFFFFFFFFFFFFFFFFFFFFFFFFFFFFF AND PUSH20 0xFFFFFFFFFFFFFFFFFFFFFFFFFFFFFFFFFFFFFFFF AND DUP2 MSTORE PUSH1 0x20 ADD SWAP1 DUP2 MSTORE PUSH1 0x20 ADD PUSH1 0x0 KECCAK256 PUSH1 0x0 DUP3 DUP3 SLOAD SUB SWAP3 POP POP DUP2 SWAP1 SSTORE POP PUSH1 0x1 PUSH1 0x3 PUSH1 0x0 DUP5 PUSH20 0xFFFFFFFFFFFFFFFFFFFFFFFFFFFFFFFFFFFFFFFF AND PUSH20 0xFFFFFFFFFFFFFFFFFFFFFFFFFFFFFFFFFFFFFFFF AND DUP2 MSTORE PUSH1 0x20 ADD SWAP1 DUP2 MSTORE PUSH1 0x20 ADD PUSH1 0x0 KECCAK256 PUSH1 0x0 DUP3 DUP3 SLOAD ADD SWAP3 POP POP DUP2 SWAP1 SSTORE POP DUP2 PUSH1 0x2 PUSH1 0x0 DUP4 DUP2 MSTORE PUSH1 0x20 ADD SWAP1 DUP2 MSTORE PUSH1 0x20 ADD PUSH1 0x0 KECCAK256 PUSH1 0x0 PUSH2 0x100 EXP DUP2 SLOAD DUP2 PUSH20 0xFFFFFFFFFFFFFFFFFFFFFFFFFFFFFFFFFFFFFFFF MUL NOT AND SWAP1 DUP4 PUSH20 0xFFFFFFFFFFFFFFFFFFFFFFFFFFFFFFFFFFFFFFFF AND MUL OR SWAP1 SSTORE POP DUP1 DUP3 PUSH20 0xFFFFFFFFFFFFFFFFFFFFFFFFFFFFFFFFFFFFFFFF AND DUP5 PUSH20 0xFFFFFFFFFFFFFFFFFFFFFFFFFFFFFFFFFFFFFFFF AND PUSH32 0xDDF252AD1BE2C89B69C2B068FC378DAA952BA7F163C4A11628F55A4DF523B3EF PUSH1 0x40 MLOAD PUSH1 0x40 MLOAD DUP1 SWAP2 SUB SWAP1 LOG4 PUSH2 0xEC2 DUP4 DUP4 DUP4 PUSH2 0x1136 JUMP JUMPDEST POP POP POP JUMP JUMPDEST DUP2 PUSH20 0xFFFFFFFFFFFFFFFFFFFFFFFFFFFFFFFFFFFFFFFF AND DUP4 PUSH20 0xFFFFFFFFFFFFFFFFFFFFFFFFFFFFFFFFFFFFFFFF AND EQ ISZERO PUSH2 0xF36 JUMPI PUSH1 0x40 MLOAD PUSH32 0x8C379A000000000000000000000000000000000000000000000000000000000 DUP2 MSTORE PUSH1 0x4 ADD PUSH2 0xF2D SWAP1 PUSH2 0x1D00 JUMP JUMPDEST PUSH1 0x40 MLOAD DUP1 SWAP2 SUB SWAP1 REVERT JUMPDEST DUP1 PUSH1 0x5 PUSH1 0x0 DUP6 PUSH20 0xFFFFFFFFFFFFFFFFFFFFFFFFFFFFFFFFFFFFFFFF AND PUSH20 0xFFFFFFFFFFFFFFFFFFFFFFFFFFFFFFFFFFFFFFFF AND DUP2 MSTORE PUSH1 0x20 ADD SWAP1 DUP2 MSTORE PUSH1 0x20 ADD PUSH1 0x0 KECCAK256 PUSH1 0x0 DUP5 PUSH20 0xFFFFFFFFFFFFFFFFFFFFFFFFFFFFFFFFFFFFFFFF AND PUSH20 0xFFFFFFFFFFFFFFFFFFFFFFFFFFFFFFFFFFFFFFFF AND DUP2 MSTORE PUSH1 0x20 ADD SWAP1 DUP2 MSTORE PUSH1 0x20 ADD PUSH1 0x0 KECCAK256 PUSH1 0x0 PUSH2 0x100 EXP DUP2 SLOAD DUP2 PUSH1 0xFF MUL NOT AND SWAP1 DUP4 ISZERO ISZERO MUL OR SWAP1 SSTORE POP DUP2 PUSH20 0xFFFFFFFFFFFFFFFFFFFFFFFFFFFFFFFFFFFFFFFF AND DUP4 PUSH20 0xFFFFFFFFFFFFFFFFFFFFFFFFFFFFFFFFFFFFFFFF AND PUSH32 0x17307EAB39AB6107E8899845AD3D59BD9653F200F220920489CA2B5937696C31 DUP4 PUSH1 0x40 MLOAD PUSH2 0x1027 SWAP2 SWAP1 PUSH2 0x1C23 JUMP JUMPDEST PUSH1 0x40 MLOAD DUP1 SWAP2 SUB SWAP1 LOG3 POP POP POP JUMP JUMPDEST PUSH2 0x103F DUP5 DUP5 DUP5 PUSH2 0xBD1 JUMP JUMPDEST PUSH2 0x104B DUP5 DUP5 DUP5 DUP5 PUSH2 0x113B JUMP JUMPDEST PUSH2 0x108A JUMPI PUSH1 0x40 MLOAD PUSH32 0x8C379A000000000000000000000000000000000000000000000000000000000 DUP2 MSTORE PUSH1 0x4 ADD PUSH2 0x1081 SWAP1 PUSH2 0x1C80 JUMP JUMPDEST PUSH1 0x40 MLOAD DUP1 SWAP2 SUB SWAP1 REVERT JUMPDEST POP POP POP POP JUMP JUMPDEST PUSH1 0x60 PUSH1 0x40 MLOAD DUP1 PUSH1 0x20 ADD PUSH1 0x40 MSTORE DUP1 PUSH1 0x0 DUP2 MSTORE POP SWAP1 POP SWAP1 JUMP JUMPDEST PUSH2 0x10C1 DUP3 DUP3 PUSH1 0x40 MLOAD DUP1 PUSH1 0x20 ADD PUSH1 0x40 MSTORE DUP1 PUSH1 0x0 DUP2 MSTORE POP PUSH2 0x12D2 JUMP JUMPDEST POP POP JUMP JUMPDEST PUSH1 0x0 DUP1 PUSH20 0xFFFFFFFFFFFFFFFFFFFFFFFFFFFFFFFFFFFFFFFF AND PUSH1 0x2 PUSH1 0x0 DUP5 DUP2 MSTORE PUSH1 0x20 ADD SWAP1 DUP2 MSTORE PUSH1 0x20 ADD PUSH1 0x0 KECCAK256 PUSH1 0x0 SWAP1 SLOAD SWAP1 PUSH2 0x100 EXP SWAP1 DIV PUSH20 0xFFFFFFFFFFFFFFFFFFFFFFFFFFFFFFFFFFFFFFFF AND PUSH20 0xFFFFFFFFFFFFFFFFFFFFFFFFFFFFFFFFFFFFFFFF AND EQ ISZERO SWAP1 POP SWAP2 SWAP1 POP JUMP JUMPDEST POP POP POP JUMP JUMPDEST POP POP POP JUMP JUMPDEST PUSH1 0x0 PUSH2 0x115C DUP5 PUSH20 0xFFFFFFFFFFFFFFFFFFFFFFFFFFFFFFFFFFFFFFFF AND PUSH2 0x132D JUMP JUMPDEST ISZERO PUSH2 0x12C5 JUMPI DUP4 PUSH20 0xFFFFFFFFFFFFFFFFFFFFFFFFFFFFFFFFFFFFFFFF AND PUSH4 0x150B7A02 PUSH2 0x1185 PUSH2 0xA7B JUMP JUMPDEST DUP8 DUP7 DUP7 PUSH1 0x40 MLOAD DUP6 PUSH4 0xFFFFFFFF AND PUSH1 0xE0 SHL DUP2 MSTORE PUSH1 0x4 ADD PUSH2 0x11A7 SWAP5 SWAP4 SWAP3 SWAP2 SWAP1 PUSH2 0x1BD7 JUMP JUMPDEST PUSH1 0x20 PUSH1 0x40 MLOAD DUP1 DUP4 SUB DUP2 PUSH1 0x0 DUP8 DUP1 EXTCODESIZE ISZERO DUP1 ISZERO PUSH2 0x11C1 JUMPI PUSH1 0x0 DUP1 REVERT JUMPDEST POP GAS CALL SWAP3 POP POP POP DUP1 ISZERO PUSH2 0x11F2 JUMPI POP PUSH1 0x40 MLOAD RETURNDATASIZE PUSH1 0x1F NOT PUSH1 0x1F DUP3 ADD AND DUP3 ADD DUP1 PUSH1 0x40 MSTORE POP DUP2 ADD SWAP1 PUSH2 0x11EF SWAP2 SWAP1 PUSH2 0x18DA JUMP JUMPDEST PUSH1 0x1 JUMPDEST PUSH2 0x1275 JUMPI RETURNDATASIZE DUP1 PUSH1 0x0 DUP2 EQ PUSH2 0x1222 JUMPI PUSH1 0x40 MLOAD SWAP2 POP PUSH1 0x1F NOT PUSH1 0x3F RETURNDATASIZE ADD AND DUP3 ADD PUSH1 0x40 MSTORE RETURNDATASIZE DUP3 MSTORE RETURNDATASIZE PUSH1 0x0 PUSH1 0x20 DUP5 ADD RETURNDATACOPY PUSH2 0x1227 JUMP JUMPDEST PUSH1 0x60 SWAP2 POP JUMPDEST POP PUSH1 0x0 DUP2 MLOAD EQ ISZERO PUSH2 0x126D JUMPI PUSH1 0x40 MLOAD PUSH32 0x8C379A000000000000000000000000000000000000000000000000000000000 DUP2 MSTORE PUSH1 0x4 ADD PUSH2 0x1264 SWAP1 PUSH2 0x1C80 JUMP JUMPDEST PUSH1 0x40 MLOAD DUP1 SWAP2 SUB SWAP1 REVERT JUMPDEST DUP1 MLOAD DUP2 PUSH1 0x20 ADD REVERT JUMPDEST PUSH4 0x150B7A02 PUSH1 0xE0 SHL PUSH28 0xFFFFFFFFFFFFFFFFFFFFFFFFFFFFFFFFFFFFFFFFFFFFFFFFFFFFFFFF NOT AND DUP2 PUSH28 0xFFFFFFFFFFFFFFFFFFFFFFFFFFFFFFFFFFFFFFFFFFFFFFFFFFFFFFFF NOT AND EQ SWAP2 POP POP PUSH2 0x12CA JUMP JUMPDEST PUSH1 0x1 SWAP1 POP JUMPDEST SWAP5 SWAP4 POP POP POP POP JUMP JUMPDEST PUSH2 0x12DC DUP4 DUP4 PUSH2 0x1350 JUMP JUMPDEST PUSH2 0x12E9 PUSH1 0x0 DUP5 DUP5 DUP5 PUSH2 0x113B JUMP JUMPDEST PUSH2 0x1328 JUMPI PUSH1 0x40 MLOAD PUSH32 0x8C379A000000000000000000000000000000000000000000000000000000000 DUP2 MSTORE PUSH1 0x4 ADD PUSH2 0x131F SWAP1 PUSH2 0x1C80 JUMP JUMPDEST PUSH1 0x40 MLOAD DUP1 SWAP2 SUB SWAP1 REVERT JUMPDEST POP POP POP JUMP JUMPDEST PUSH1 0x0 DUP1 DUP3 PUSH20 0xFFFFFFFFFFFFFFFFFFFFFFFFFFFFFFFFFFFFFFFF AND EXTCODESIZE GT SWAP1 POP SWAP2 SWAP1 POP JUMP JUMPDEST PUSH1 0x0 PUSH20 0xFFFFFFFFFFFFFFFFFFFFFFFFFFFFFFFFFFFFFFFF AND DUP3 PUSH20 0xFFFFFFFFFFFFFFFFFFFFFFFFFFFFFFFFFFFFFFFF AND EQ ISZERO PUSH2 0x13C0 JUMPI PUSH1 0x40 MLOAD PUSH32 0x8C379A000000000000000000000000000000000000000000000000000000000 DUP2 MSTORE PUSH1 0x4 ADD PUSH2 0x13B7 SWAP1 PUSH2 0x1D40 JUMP JUMPDEST PUSH1 0x40 MLOAD DUP1 SWAP2 SUB SWAP1 REVERT JUMPDEST PUSH2 0x13C9 DUP2 PUSH2 0x10C5 JUMP JUMPDEST ISZERO PUSH2 0x1409 JUMPI PUSH1 0x40 MLOAD PUSH32 0x8C379A000000000000000000000000000000000000000000000000000000000 DUP2 MSTORE PUSH1 0x4 ADD PUSH2 0x1400 SWAP1 PUSH2 0x1CC0 JUMP JUMPDEST PUSH1 0x40 MLOAD DUP1 SWAP2 SUB SWAP1 REVERT JUMPDEST PUSH2 0x1415 PUSH1 0x0 DUP4 DUP4 PUSH2 0x1131 JUMP JUMPDEST PUSH2 0x141E DUP2 PUSH2 0x10C5 JUMP JUMPDEST ISZERO PUSH2 0x145E JUMPI PUSH1 0x40 MLOAD PUSH32 0x8C379A000000000000000000000000000000000000000000000000000000000 DUP2 MSTORE PUSH1 0x4 ADD PUSH2 0x1455 SWAP1 PUSH2 0x1CC0 JUMP JUMPDEST PUSH1 0x40 MLOAD DUP1 SWAP2 SUB SWAP1 REVERT JUMPDEST PUSH1 0x1 PUSH1 0x3 PUSH1 0x0 DUP5 PUSH20 0xFFFFFFFFFFFFFFFFFFFFFFFFFFFFFFFFFFFFFFFF AND PUSH20 0xFFFFFFFFFFFFFFFFFFFFFFFFFFFFFFFFFFFFFFFF AND DUP2 MSTORE PUSH1 0x20 ADD SWAP1 DUP2 MSTORE PUSH1 0x20 ADD PUSH1 0x0 KECCAK256 PUSH1 0x0 DUP3 DUP3 SLOAD ADD SWAP3 POP POP DUP2 SWAP1 SSTORE POP DUP2 PUSH1 0x2 PUSH1 0x0 DUP4 DUP2 MSTORE PUSH1 0x20 ADD SWAP1 DUP2 MSTORE PUSH1 0x20 ADD PUSH1 0x0 KECCAK256 PUSH1 0x0 PUSH2 0x100 EXP DUP2 SLOAD DUP2 PUSH20 0xFFFFFFFFFFFFFFFFFFFFFFFFFFFFFFFFFFFFFFFF MUL NOT AND SWAP1 DUP4 PUSH20 0xFFFFFFFFFFFFFFFFFFFFFFFFFFFFFFFFFFFFFFFF AND MUL OR SWAP1 SSTORE POP DUP1 DUP3 PUSH20 0xFFFFFFFFFFFFFFFFFFFFFFFFFFFFFFFFFFFFFFFF AND PUSH1 0x0 PUSH20 0xFFFFFFFFFFFFFFFFFFFFFFFFFFFFFFFFFFFFFFFF AND PUSH32 0xDDF252AD1BE2C89B69C2B068FC378DAA952BA7F163C4A11628F55A4DF523B3EF PUSH1 0x40 MLOAD PUSH1 0x40 MLOAD DUP1 SWAP2 SUB SWAP1 LOG4 PUSH2 0x1566 PUSH1 0x0 DUP4 DUP4 PUSH2 0x1136 JUMP JUMPDEST POP POP JUMP JUMPDEST PUSH1 0x0 PUSH2 0x157D PUSH2 0x1578 DUP5 PUSH2 0x1E00 JUMP JUMPDEST PUSH2 0x1DDB JUMP JUMPDEST SWAP1 POP DUP3 DUP2 MSTORE PUSH1 0x20 DUP2 ADD DUP5 DUP5 DUP5 ADD GT ISZERO PUSH2 0x1595 JUMPI PUSH1 0x0 DUP1 REVERT JUMPDEST PUSH2 0x15A0 DUP5 DUP3 DUP6 PUSH2 0x1F19 JUMP JUMPDEST POP SWAP4 SWAP3 POP POP POP JUMP JUMPDEST PUSH1 0x0 PUSH2 0x15BB PUSH2 0x15B6 DUP5 PUSH2 0x1E31 JUMP JUMPDEST PUSH2 0x1DDB JUMP JUMPDEST SWAP1 POP DUP3 DUP2 MSTORE PUSH1 0x20 DUP2 ADD DUP5 DUP5 DUP5 ADD GT ISZERO PUSH2 0x15D3 JUMPI PUSH1 0x0 DUP1 REVERT JUMPDEST PUSH2 0x15DE DUP5 DUP3 DUP6 PUSH2 0x1F19 JUMP JUMPDEST POP SWAP4 SWAP3 POP POP POP JUMP JUMPDEST PUSH1 0x0 DUP2 CALLDATALOAD SWAP1 POP PUSH2 0x15F5 DUP2 PUSH2 0x2304 JUMP JUMPDEST SWAP3 SWAP2 POP POP JUMP JUMPDEST PUSH1 0x0 DUP2 CALLDATALOAD SWAP1 POP PUSH2 0x160A DUP2 PUSH2 0x231B JUMP JUMPDEST SWAP3 SWAP2 POP POP JUMP JUMPDEST PUSH1 0x0 DUP2 CALLDATALOAD SWAP1 POP PUSH2 0x161F DUP2 PUSH2 0x2332 JUMP JUMPDEST SWAP3 SWAP2 POP POP JUMP JUMPDEST PUSH1 0x0 DUP2 MLOAD SWAP1 POP PUSH2 0x1634 DUP2 PUSH2 0x2332 JUMP JUMPDEST SWAP3 SWAP2 POP POP JUMP JUMPDEST PUSH1 0x0 DUP3 PUSH1 0x1F DUP4 ADD SLT PUSH2 0x164B JUMPI PUSH1 0x0 DUP1 REVERT JUMPDEST DUP2 CALLDATALOAD PUSH2 0x165B DUP5 DUP3 PUSH1 0x20 DUP7 ADD PUSH2 0x156A JUMP JUMPDEST SWAP2 POP POP SWAP3 SWAP2 POP POP JUMP JUMPDEST PUSH1 0x0 DUP3 PUSH1 0x1F DUP4 ADD SLT PUSH2 0x1675 JUMPI PUSH1 0x0 DUP1 REVERT JUMPDEST DUP2 CALLDATALOAD PUSH2 0x1685 DUP5 DUP3 PUSH1 0x20 DUP7 ADD PUSH2 0x15A8 JUMP JUMPDEST SWAP2 POP POP SWAP3 SWAP2 POP POP JUMP JUMPDEST PUSH1 0x0 DUP2 CALLDATALOAD SWAP1 POP PUSH2 0x169D DUP2 PUSH2 0x2349 JUMP JUMPDEST SWAP3 SWAP2 POP POP JUMP JUMPDEST PUSH1 0x0 PUSH1 0x20 DUP3 DUP5 SUB SLT ISZERO PUSH2 0x16B5 JUMPI PUSH1 0x0 DUP1 REVERT JUMPDEST PUSH1 0x0 PUSH2 0x16C3 DUP5 DUP3 DUP6 ADD PUSH2 0x15E6 JUMP JUMPDEST SWAP2 POP POP SWAP3 SWAP2 POP POP JUMP JUMPDEST PUSH1 0x0 DUP1 PUSH1 0x40 DUP4 DUP6 SUB SLT ISZERO PUSH2 0x16DF JUMPI PUSH1 0x0 DUP1 REVERT JUMPDEST PUSH1 0x0 PUSH2 0x16ED DUP6 DUP3 DUP7 ADD PUSH2 0x15E6 JUMP JUMPDEST SWAP3 POP POP PUSH1 0x20 PUSH2 0x16FE DUP6 DUP3 DUP7 ADD PUSH2 0x15E6 JUMP JUMPDEST SWAP2 POP POP SWAP3 POP SWAP3 SWAP1 POP JUMP JUMPDEST PUSH1 0x0 DUP1 PUSH1 0x0 PUSH1 0x60 DUP5 DUP7 SUB SLT ISZERO PUSH2 0x171D JUMPI PUSH1 0x0 DUP1 REVERT JUMPDEST PUSH1 0x0 PUSH2 0x172B DUP7 DUP3 DUP8 ADD PUSH2 0x15E6 JUMP JUMPDEST SWAP4 POP POP PUSH1 0x20 PUSH2 0x173C DUP7 DUP3 DUP8 ADD PUSH2 0x15E6 JUMP JUMPDEST SWAP3 POP POP PUSH1 0x40 PUSH2 0x174D DUP7 DUP3 DUP8 ADD PUSH2 0x168E JUMP JUMPDEST SWAP2 POP POP SWAP3 POP SWAP3 POP SWAP3 JUMP JUMPDEST PUSH1 0x0 DUP1 PUSH1 0x0 DUP1 PUSH1 0x80 DUP6 DUP8 SUB SLT ISZERO PUSH2 0x176D JUMPI PUSH1 0x0 DUP1 REVERT JUMPDEST PUSH1 0x0 PUSH2 0x177B DUP8 DUP3 DUP9 ADD PUSH2 0x15E6 JUMP JUMPDEST SWAP5 POP POP PUSH1 0x20 PUSH2 0x178C DUP8 DUP3 DUP9 ADD PUSH2 0x15E6 JUMP JUMPDEST SWAP4 POP POP PUSH1 0x40 PUSH2 0x179D DUP8 DUP3 DUP9 ADD PUSH2 0x168E JUMP JUMPDEST SWAP3 POP POP PUSH1 0x60 DUP6 ADD CALLDATALOAD PUSH8 0xFFFFFFFFFFFFFFFF DUP2 GT ISZERO PUSH2 0x17BA JUMPI PUSH1 0x0 DUP1 REVERT JUMPDEST PUSH2 0x17C6 DUP8 DUP3 DUP9 ADD PUSH2 0x163A JUMP JUMPDEST SWAP2 POP POP SWAP3 SWAP6 SWAP2 SWAP5 POP SWAP3 POP JUMP JUMPDEST PUSH1 0x0 DUP1 PUSH1 0x40 DUP4 DUP6 SUB SLT ISZERO PUSH2 0x17E5 JUMPI PUSH1 0x0 DUP1 REVERT JUMPDEST PUSH1 0x0 PUSH2 0x17F3 DUP6 DUP3 DUP7 ADD PUSH2 0x15E6 JUMP JUMPDEST SWAP3 POP POP PUSH1 0x20 PUSH2 0x1804 DUP6 DUP3 DUP7 ADD PUSH2 0x15FB JUMP JUMPDEST SWAP2 POP POP SWAP3 POP SWAP3 SWAP1 POP JUMP JUMPDEST PUSH1 0x0 DUP1 PUSH1 0x40 DUP4 DUP6 SUB SLT ISZERO PUSH2 0x1821 JUMPI PUSH1 0x0 DUP1 REVERT JUMPDEST PUSH1 0x0 PUSH2 0x182F DUP6 DUP3 DUP7 ADD PUSH2 0x15E6 JUMP JUMPDEST SWAP3 POP POP PUSH1 0x20 PUSH2 0x1840 DUP6 DUP3 DUP7 ADD PUSH2 0x168E JUMP JUMPDEST SWAP2 POP POP SWAP3 POP SWAP3 SWAP1 POP JUMP JUMPDEST PUSH1 0x0 DUP1 PUSH1 0x0 PUSH1 0x60 DUP5 DUP7 SUB SLT ISZERO PUSH2 0x185F JUMPI PUSH1 0x0 DUP1 REVERT JUMPDEST PUSH1 0x0 PUSH2 0x186D DUP7 DUP3 DUP8 ADD PUSH2 0x15E6 JUMP JUMPDEST SWAP4 POP POP PUSH1 0x20 PUSH2 0x187E DUP7 DUP3 DUP8 ADD PUSH2 0x168E JUMP JUMPDEST SWAP3 POP POP PUSH1 0x40 DUP5 ADD CALLDATALOAD PUSH8 0xFFFFFFFFFFFFFFFF DUP2 GT ISZERO PUSH2 0x189B JUMPI PUSH1 0x0 DUP1 REVERT JUMPDEST PUSH2 0x18A7 DUP7 DUP3 DUP8 ADD PUSH2 0x1664 JUMP JUMPDEST SWAP2 POP POP SWAP3 POP SWAP3 POP SWAP3 JUMP JUMPDEST PUSH1 0x0 PUSH1 0x20 DUP3 DUP5 SUB SLT ISZERO PUSH2 0x18C3 JUMPI PUSH1 0x0 DUP1 REVERT JUMPDEST PUSH1 0x0 PUSH2 0x18D1 DUP5 DUP3 DUP6 ADD PUSH2 0x1610 JUMP JUMPDEST SWAP2 POP POP SWAP3 SWAP2 POP POP JUMP JUMPDEST PUSH1 0x0 PUSH1 0x20 DUP3 DUP5 SUB SLT ISZERO PUSH2 0x18EC JUMPI PUSH1 0x0 DUP1 REVERT JUMPDEST PUSH1 0x0 PUSH2 0x18FA DUP5 DUP3 DUP6 ADD PUSH2 0x1625 JUMP JUMPDEST SWAP2 POP POP SWAP3 SWAP2 POP POP JUMP JUMPDEST PUSH1 0x0 PUSH1 0x20 DUP3 DUP5 SUB SLT ISZERO PUSH2 0x1915 JUMPI PUSH1 0x0 DUP1 REVERT JUMPDEST PUSH1 0x0 PUSH2 0x1923 DUP5 DUP3 DUP6 ADD PUSH2 0x168E JUMP JUMPDEST SWAP2 POP POP SWAP3 SWAP2 POP POP JUMP JUMPDEST PUSH2 0x1935 DUP2 PUSH2 0x1EA5 JUMP JUMPDEST DUP3 MSTORE POP POP JUMP JUMPDEST PUSH2 0x1944 DUP2 PUSH2 0x1EB7 JUMP JUMPDEST DUP3 MSTORE POP POP JUMP JUMPDEST PUSH1 0x0 PUSH2 0x1955 DUP3 PUSH2 0x1E62 JUMP JUMPDEST PUSH2 0x195F DUP2 DUP6 PUSH2 0x1E78 JUMP JUMPDEST SWAP4 POP PUSH2 0x196F DUP2 DUP6 PUSH1 0x20 DUP7 ADD PUSH2 0x1F28 JUMP JUMPDEST PUSH2 0x1978 DUP2 PUSH2 0x2026 JUMP JUMPDEST DUP5 ADD SWAP2 POP POP SWAP3 SWAP2 POP POP JUMP JUMPDEST PUSH1 0x0 PUSH2 0x198E DUP3 PUSH2 0x1E6D JUMP JUMPDEST PUSH2 0x1998 DUP2 DUP6 PUSH2 0x1E89 JUMP JUMPDEST SWAP4 POP PUSH2 0x19A8 DUP2 DUP6 PUSH1 0x20 DUP7 ADD PUSH2 0x1F28 JUMP JUMPDEST PUSH2 0x19B1 DUP2 PUSH2 0x2026 JUMP JUMPDEST DUP5 ADD SWAP2 POP POP SWAP3 SWAP2 POP POP JUMP JUMPDEST PUSH1 0x0 PUSH2 0x19C7 DUP3 PUSH2 0x1E6D JUMP JUMPDEST PUSH2 0x19D1 DUP2 DUP6 PUSH2 0x1E9A JUMP JUMPDEST SWAP4 POP PUSH2 0x19E1 DUP2 DUP6 PUSH1 0x20 DUP7 ADD PUSH2 0x1F28 JUMP JUMPDEST DUP1 DUP5 ADD SWAP2 POP POP SWAP3 SWAP2 POP POP JUMP JUMPDEST PUSH1 0x0 PUSH2 0x19FA PUSH1 0x2D DUP4 PUSH2 0x1E89 JUMP JUMPDEST SWAP2 POP PUSH2 0x1A05 DUP3 PUSH2 0x2037 JUMP JUMPDEST PUSH1 0x40 DUP3 ADD SWAP1 POP SWAP2 SWAP1 POP JUMP JUMPDEST PUSH1 0x0 PUSH2 0x1A1D PUSH1 0x32 DUP4 PUSH2 0x1E89 JUMP JUMPDEST SWAP2 POP PUSH2 0x1A28 DUP3 PUSH2 0x2086 JUMP JUMPDEST PUSH1 0x40 DUP3 ADD SWAP1 POP SWAP2 SWAP1 POP JUMP JUMPDEST PUSH1 0x0 PUSH2 0x1A40 PUSH1 0x25 DUP4 PUSH2 0x1E89 JUMP JUMPDEST SWAP2 POP PUSH2 0x1A4B DUP3 PUSH2 0x20D5 JUMP JUMPDEST PUSH1 0x40 DUP3 ADD SWAP1 POP SWAP2 SWAP1 POP JUMP JUMPDEST PUSH1 0x0 PUSH2 0x1A63 PUSH1 0x1C DUP4 PUSH2 0x1E89 JUMP JUMPDEST SWAP2 POP PUSH2 0x1A6E DUP3 PUSH2 0x2124 JUMP JUMPDEST PUSH1 0x20 DUP3 ADD SWAP1 POP SWAP2 SWAP1 POP JUMP JUMPDEST PUSH1 0x0 PUSH2 0x1A86 PUSH1 0x24 DUP4 PUSH2 0x1E89 JUMP JUMPDEST SWAP2 POP PUSH2 0x1A91 DUP3 PUSH2 0x214D JUMP JUMPDEST PUSH1 0x40 DUP3 ADD SWAP1 POP SWAP2 SWAP1 POP JUMP JUMPDEST PUSH1 0x0 PUSH2 0x1AA9 PUSH1 0x19 DUP4 PUSH2 0x1E89 JUMP JUMPDEST SWAP2 POP PUSH2 0x1AB4 DUP3 PUSH2 0x219C JUMP JUMPDEST PUSH1 0x20 DUP3 ADD SWAP1 POP SWAP2 SWAP1 POP JUMP JUMPDEST PUSH1 0x0 PUSH2 0x1ACC PUSH1 0x29 DUP4 PUSH2 0x1E89 JUMP JUMPDEST SWAP2 POP PUSH2 0x1AD7 DUP3 PUSH2 0x21C5 JUMP JUMPDEST PUSH1 0x40 DUP3 ADD SWAP1 POP SWAP2 SWAP1 POP JUMP JUMPDEST PUSH1 0x0 PUSH2 0x1AEF PUSH1 0x20 DUP4 PUSH2 0x1E89 JUMP JUMPDEST SWAP2 POP PUSH2 0x1AFA DUP3 PUSH2 0x2214 JUMP JUMPDEST PUSH1 0x20 DUP3 ADD SWAP1 POP SWAP2 SWAP1 POP JUMP JUMPDEST PUSH1 0x0 PUSH2 0x1B12 PUSH1 0x18 DUP4 PUSH2 0x1E89 JUMP JUMPDEST SWAP2 POP PUSH2 0x1B1D DUP3 PUSH2 0x223D JUMP JUMPDEST PUSH1 0x20 DUP3 ADD SWAP1 POP SWAP2 SWAP1 POP JUMP JUMPDEST PUSH1 0x0 PUSH2 0x1B35 PUSH1 0x21 DUP4 PUSH2 0x1E89 JUMP JUMPDEST SWAP2 POP PUSH2 0x1B40 DUP3 PUSH2 0x2266 JUMP JUMPDEST PUSH1 0x40 DUP3 ADD SWAP1 POP SWAP2 SWAP1 POP JUMP JUMPDEST PUSH1 0x0 PUSH2 0x1B58 PUSH1 0x3D DUP4 PUSH2 0x1E89 JUMP JUMPDEST SWAP2 POP PUSH2 0x1B63 DUP3 PUSH2 0x22B5 JUMP JUMPDEST PUSH1 0x40 DUP3 ADD SWAP1 POP SWAP2 SWAP1 POP JUMP JUMPDEST PUSH2 0x1B77 DUP2 PUSH2 0x1F0F JUMP JUMPDEST DUP3 MSTORE POP POP JUMP JUMPDEST PUSH2 0x1B8E PUSH2 0x1B89 DUP3 PUSH2 0x1F0F JUMP JUMPDEST PUSH2 0x1FBE JUMP JUMPDEST DUP3 MSTORE POP POP JUMP JUMPDEST PUSH1 0x0 PUSH2 0x1BA0 DUP3 DUP6 PUSH2 0x19BC JUMP JUMPDEST SWAP2 POP PUSH2 0x1BAC DUP3 DUP5 PUSH2 0x1B7D JUMP JUMPDEST PUSH1 0x20 DUP3 ADD SWAP2 POP DUP2 SWAP1 POP SWAP4 SWAP3 POP POP POP JUMP JUMPDEST PUSH1 0x0 PUSH1 0x20 DUP3 ADD SWAP1 POP PUSH2 0x1BD1 PUSH1 0x0 DUP4 ADD DUP5 PUSH2 0x192C JUMP JUMPDEST SWAP3 SWAP2 POP POP JUMP JUMPDEST PUSH1 0x0 PUSH1 0x80 DUP3 ADD SWAP1 POP PUSH2 0x1BEC PUSH1 0x0 DUP4 ADD DUP8 PUSH2 0x192C JUMP JUMPDEST PUSH2 0x1BF9 PUSH1 0x20 DUP4 ADD DUP7 PUSH2 0x192C JUMP JUMPDEST PUSH2 0x1C06 PUSH1 0x40 DUP4 ADD DUP6 PUSH2 0x1B6E JUMP JUMPDEST DUP2 DUP2 SUB PUSH1 0x60 DUP4 ADD MSTORE PUSH2 0x1C18 DUP2 DUP5 PUSH2 0x194A JUMP JUMPDEST SWAP1 POP SWAP6 SWAP5 POP POP POP POP POP JUMP JUMPDEST PUSH1 0x0 PUSH1 0x20 DUP3 ADD SWAP1 POP PUSH2 0x1C38 PUSH1 0x0 DUP4 ADD DUP5 PUSH2 0x193B JUMP JUMPDEST SWAP3 SWAP2 POP POP JUMP JUMPDEST PUSH1 0x0 PUSH1 0x20 DUP3 ADD SWAP1 POP DUP2 DUP2 SUB PUSH1 0x0 DUP4 ADD MSTORE PUSH2 0x1C58 DUP2 DUP5 PUSH2 0x1983 JUMP JUMPDEST SWAP1 POP SWAP3 SWAP2 POP POP JUMP JUMPDEST PUSH1 0x0 PUSH1 0x20 DUP3 ADD SWAP1 POP DUP2 DUP2 SUB PUSH1 0x0 DUP4 ADD MSTORE PUSH2 0x1C79 DUP2 PUSH2 0x19ED JUMP JUMPDEST SWAP1 POP SWAP2 SWAP1 POP JUMP JUMPDEST PUSH1 0x0 PUSH1 0x20 DUP3 ADD SWAP1 POP DUP2 DUP2 SUB PUSH1 0x0 DUP4 ADD MSTORE PUSH2 0x1C99 DUP2 PUSH2 0x1A10 JUMP JUMPDEST SWAP1 POP SWAP2 SWAP1 POP JUMP JUMPDEST PUSH1 0x0 PUSH1 0x20 DUP3 ADD SWAP1 POP DUP2 DUP2 SUB PUSH1 0x0 DUP4 ADD MSTORE PUSH2 0x1CB9 DUP2 PUSH2 0x1A33 JUMP JUMPDEST SWAP1 POP SWAP2 SWAP1 POP JUMP JUMPDEST PUSH1 0x0 PUSH1 0x20 DUP3 ADD SWAP1 POP DUP2 DUP2 SUB PUSH1 0x0 DUP4 ADD MSTORE PUSH2 0x1CD9 DUP2 PUSH2 0x1A56 JUMP JUMPDEST SWAP1 POP SWAP2 SWAP1 POP JUMP JUMPDEST PUSH1 0x0 PUSH1 0x20 DUP3 ADD SWAP1 POP DUP2 DUP2 SUB PUSH1 0x0 DUP4 ADD MSTORE PUSH2 0x1CF9 DUP2 PUSH2 0x1A79 JUMP JUMPDEST SWAP1 POP SWAP2 SWAP1 POP JUMP JUMPDEST PUSH1 0x0 PUSH1 0x20 DUP3 ADD SWAP1 POP DUP2 DUP2 SUB PUSH1 0x0 DUP4 ADD MSTORE PUSH2 0x1D19 DUP2 PUSH2 0x1A9C JUMP JUMPDEST SWAP1 POP SWAP2 SWAP1 POP JUMP JUMPDEST PUSH1 0x0 PUSH1 0x20 DUP3 ADD SWAP1 POP DUP2 DUP2 SUB PUSH1 0x0 DUP4 ADD MSTORE PUSH2 0x1D39 DUP2 PUSH2 0x1ABF JUMP JUMPDEST SWAP1 POP SWAP2 SWAP1 POP JUMP JUMPDEST PUSH1 0x0 PUSH1 0x20 DUP3 ADD SWAP1 POP DUP2 DUP2 SUB PUSH1 0x0 DUP4 ADD MSTORE PUSH2 0x1D59 DUP2 PUSH2 0x1AE2 JUMP JUMPDEST SWAP1 POP SWAP2 SWAP1 POP JUMP JUMPDEST PUSH1 0x0 PUSH1 0x20 DUP3 ADD SWAP1 POP DUP2 DUP2 SUB PUSH1 0x0 DUP4 ADD MSTORE PUSH2 0x1D79 DUP2 PUSH2 0x1B05 JUMP JUMPDEST SWAP1 POP SWAP2 SWAP1 POP JUMP JUMPDEST PUSH1 0x0 PUSH1 0x20 DUP3 ADD SWAP1 POP DUP2 DUP2 SUB PUSH1 0x0 DUP4 ADD MSTORE PUSH2 0x1D99 DUP2 PUSH2 0x1B28 JUMP JUMPDEST SWAP1 POP SWAP2 SWAP1 POP JUMP JUMPDEST PUSH1 0x0 PUSH1 0x20 DUP3 ADD SWAP1 POP DUP2 DUP2 SUB PUSH1 0x0 DUP4 ADD MSTORE PUSH2 0x1DB9 DUP2 PUSH2 0x1B4B JUMP JUMPDEST SWAP1 POP SWAP2 SWAP1 POP JUMP JUMPDEST PUSH1 0x0 PUSH1 0x20 DUP3 ADD SWAP1 POP PUSH2 0x1DD5 PUSH1 0x0 DUP4 ADD DUP5 PUSH2 0x1B6E JUMP JUMPDEST SWAP3 SWAP2 POP POP JUMP JUMPDEST PUSH1 0x0 PUSH2 0x1DE5 PUSH2 0x1DF6 JUMP JUMPDEST SWAP1 POP PUSH2 0x1DF1 DUP3 DUP3 PUSH2 0x1F8D JUMP JUMPDEST SWAP2 SWAP1 POP JUMP JUMPDEST PUSH1 0x0 PUSH1 0x40 MLOAD SWAP1 POP SWAP1 JUMP JUMPDEST PUSH1 0x0 PUSH8 0xFFFFFFFFFFFFFFFF DUP3 GT ISZERO PUSH2 0x1E1B JUMPI PUSH2 0x1E1A PUSH2 0x1FF7 JUMP JUMPDEST JUMPDEST PUSH2 0x1E24 DUP3 PUSH2 0x2026 JUMP JUMPDEST SWAP1 POP PUSH1 0x20 DUP2 ADD SWAP1 POP SWAP2 SWAP1 POP JUMP JUMPDEST PUSH1 0x0 PUSH8 0xFFFFFFFFFFFFFFFF DUP3 GT ISZERO PUSH2 0x1E4C JUMPI PUSH2 0x1E4B PUSH2 0x1FF7 JUMP JUMPDEST JUMPDEST PUSH2 0x1E55 DUP3 PUSH2 0x2026 JUMP JUMPDEST SWAP1 POP PUSH1 0x20 DUP2 ADD SWAP1 POP SWAP2 SWAP1 POP JUMP JUMPDEST PUSH1 0x0 DUP2 MLOAD SWAP1 POP SWAP2 SWAP1 POP JUMP JUMPDEST PUSH1 0x0 DUP2 MLOAD SWAP1 POP SWAP2 SWAP1 POP JUMP JUMPDEST PUSH1 0x0 DUP3 DUP3 MSTORE PUSH1 0x20 DUP3 ADD SWAP1 POP SWAP3 SWAP2 POP POP JUMP JUMPDEST PUSH1 0x0 DUP3 DUP3 MSTORE PUSH1 0x20 DUP3 ADD SWAP1 POP SWAP3 SWAP2 POP POP JUMP JUMPDEST PUSH1 0x0 DUP2 SWAP1 POP SWAP3 SWAP2 POP POP JUMP JUMPDEST PUSH1 0x0 PUSH2 0x1EB0 DUP3 PUSH2 0x1EEF JUMP JUMPDEST SWAP1 POP SWAP2 SWAP1 POP JUMP JUMPDEST PUSH1 0x0 DUP2 ISZERO ISZERO SWAP1 POP SWAP2 SWAP1 POP JUMP JUMPDEST PUSH1 0x0 PUSH32 0xFFFFFFFF00000000000000000000000000000000000000000000000000000000 DUP3 AND SWAP1 POP SWAP2 SWAP1 POP JUMP JUMPDEST PUSH1 0x0 PUSH20 0xFFFFFFFFFFFFFFFFFFFFFFFFFFFFFFFFFFFFFFFF DUP3 AND SWAP1 POP SWAP2 SWAP1 POP JUMP JUMPDEST PUSH1 0x0 DUP2 SWAP1 POP SWAP2 SWAP1 POP JUMP JUMPDEST DUP3 DUP2 DUP4 CALLDATACOPY PUSH1 0x0 DUP4 DUP4 ADD MSTORE POP POP POP JUMP JUMPDEST PUSH1 0x0 JUMPDEST DUP4 DUP2 LT ISZERO PUSH2 0x1F46 JUMPI DUP1 DUP3 ADD MLOAD DUP2 DUP5 ADD MSTORE PUSH1 0x20 DUP2 ADD SWAP1 POP PUSH2 0x1F2B JUMP JUMPDEST DUP4 DUP2 GT ISZERO PUSH2 0x1F55 JUMPI PUSH1 0x0 DUP5 DUP5 ADD MSTORE JUMPDEST POP POP POP POP JUMP JUMPDEST PUSH1 0x0 PUSH1 0x2 DUP3 DIV SWAP1 POP PUSH1 0x1 DUP3 AND DUP1 PUSH2 0x1F73 JUMPI PUSH1 0x7F DUP3 AND SWAP2 POP JUMPDEST PUSH1 0x20 DUP3 LT DUP2 EQ ISZERO PUSH2 0x1F87 JUMPI PUSH2 0x1F86 PUSH2 0x1FC8 JUMP JUMPDEST JUMPDEST POP SWAP2 SWAP1 POP JUMP JUMPDEST PUSH2 0x1F96 DUP3 PUSH2 0x2026 JUMP JUMPDEST DUP2 ADD DUP2 DUP2 LT PUSH8 0xFFFFFFFFFFFFFFFF DUP3 GT OR ISZERO PUSH2 0x1FB5 JUMPI PUSH2 0x1FB4 PUSH2 0x1FF7 JUMP JUMPDEST JUMPDEST DUP1 PUSH1 0x40 MSTORE POP POP POP JUMP JUMPDEST PUSH1 0x0 DUP2 SWAP1 POP SWAP2 SWAP1 POP JUMP JUMPDEST PUSH32 0x4E487B7100000000000000000000000000000000000000000000000000000000 PUSH1 0x0 MSTORE PUSH1 0x22 PUSH1 0x4 MSTORE PUSH1 0x24 PUSH1 0x0 REVERT JUMPDEST PUSH32 0x4E487B7100000000000000000000000000000000000000000000000000000000 PUSH1 0x0 MSTORE PUSH1 0x41 PUSH1 0x4 MSTORE PUSH1 0x24 PUSH1 0x0 REVERT JUMPDEST PUSH1 0x0 PUSH1 0x1F NOT PUSH1 0x1F DUP4 ADD AND SWAP1 POP SWAP2 SWAP1 POP JUMP JUMPDEST PUSH32 0x4552433732313A2063616C6C6572206973206E6F7420746F6B656E206F776E65 PUSH1 0x0 DUP3 ADD MSTORE PUSH32 0x72206F7220617070726F76656400000000000000000000000000000000000000 PUSH1 0x20 DUP3 ADD MSTORE POP JUMP JUMPDEST PUSH32 0x4552433732313A207472616E7366657220746F206E6F6E204552433732315265 PUSH1 0x0 DUP3 ADD MSTORE PUSH32 0x63656976657220696D706C656D656E7465720000000000000000000000000000 PUSH1 0x20 DUP3 ADD MSTORE POP JUMP JUMPDEST PUSH32 0x4552433732313A207472616E736665722066726F6D20696E636F727265637420 PUSH1 0x0 DUP3 ADD MSTORE PUSH32 0x6F776E6572000000000000000000000000000000000000000000000000000000 PUSH1 0x20 DUP3 ADD MSTORE POP JUMP JUMPDEST PUSH32 0x4552433732313A20746F6B656E20616C7265616479206D696E74656400000000 PUSH1 0x0 DUP3 ADD MSTORE POP JUMP JUMPDEST PUSH32 0x4552433732313A207472616E7366657220746F20746865207A65726F20616464 PUSH1 0x0 DUP3 ADD MSTORE PUSH32 0x7265737300000000000000000000000000000000000000000000000000000000 PUSH1 0x20 DUP3 ADD MSTORE POP JUMP JUMPDEST PUSH32 0x4552433732313A20617070726F766520746F2063616C6C657200000000000000 PUSH1 0x0 DUP3 ADD MSTORE POP JUMP JUMPDEST PUSH32 0x4552433732313A2061646472657373207A65726F206973206E6F742061207661 PUSH1 0x0 DUP3 ADD MSTORE PUSH32 0x6C6964206F776E65720000000000000000000000000000000000000000000000 PUSH1 0x20 DUP3 ADD MSTORE POP JUMP JUMPDEST PUSH32 0x4552433732313A206D696E7420746F20746865207A65726F2061646472657373 PUSH1 0x0 DUP3 ADD MSTORE POP JUMP JUMPDEST PUSH32 0x4552433732313A20696E76616C696420746F6B656E2049440000000000000000 PUSH1 0x0 DUP3 ADD MSTORE POP JUMP JUMPDEST PUSH32 0x4552433732313A20617070726F76616C20746F2063757272656E74206F776E65 PUSH1 0x0 DUP3 ADD MSTORE PUSH32 0x7200000000000000000000000000000000000000000000000000000000000000 PUSH1 0x20 DUP3 ADD MSTORE POP JUMP JUMPDEST PUSH32 0x4552433732313A20617070726F76652063616C6C6572206973206E6F7420746F PUSH1 0x0 DUP3 ADD MSTORE PUSH32 0x6B656E206F776E6572206F7220617070726F76656420666F7220616C6C000000 PUSH1 0x20 DUP3 ADD MSTORE POP JUMP JUMPDEST PUSH2 0x230D DUP2 PUSH2 0x1EA5 JUMP JUMPDEST DUP2 EQ PUSH2 0x2318 JUMPI PUSH1 0x0 DUP1 REVERT JUMPDEST POP JUMP JUMPDEST PUSH2 0x2324 DUP2 PUSH2 0x1EB7 JUMP JUMPDEST DUP2 EQ PUSH2 0x232F JUMPI PUSH1 0x0 DUP1 REVERT JUMPDEST POP JUMP JUMPDEST PUSH2 0x233B DUP2 PUSH2 0x1EC3 JUMP JUMPDEST DUP2 EQ PUSH2 0x2346 JUMPI PUSH1 0x0 DUP1 REVERT JUMPDEST POP JUMP JUMPDEST PUSH2 0x2352 DUP2 PUSH2 0x1F0F JUMP JUMPDEST DUP2 EQ PUSH2 0x235D JUMPI PUSH1 0x0 DUP1 REVERT JUMPDEST POP JUMP INVALID LOG2 PUSH5 0x6970667358 0x22 SLT KECCAK256 PUSH23 0x883C8FABF37513FE6FED88F3D1095D94E57F4FD7F8D575 0xD6 0xC8 PUSH25 0xA322E4A15E64736F6C63430008040033000000000000000000 "
				},
				"gasEstimates": {
					"creation": {
						"codeDepositCost": "1822000",
						"executionCost": "infinite",
						"totalCost": "infinite"
					},
					"external": {
						"approve(address,uint256)": "infinite",
						"balanceOf(address)": "1602",
						"getApproved(uint256)": "2657",
						"isApprovedForAll(address,address)": "infinite",
						"name()": "infinite",
						"ownerOf(uint256)": "1748",
						"safeMint(address,uint256,string)": "infinite",
						"safeTransferFrom(address,address,uint256)": "infinite",
						"safeTransferFrom(address,address,uint256,bytes)": "infinite",
						"setApprovalForAll(address,bool)": "infinite",
						"supportsInterface(bytes4)": "797",
						"symbol()": "infinite",
						"tokenURI(uint256)": "2102",
						"transferFrom(address,address,uint256)": "infinite"
					},
					"internal": {
						"_afterTokenTransfer(address,address,uint256)": "15",
						"_approve(address,uint256)": "infinite",
						"_baseURI()": "infinite",
						"_beforeTokenTransfer(address,address,uint256)": "15",
						"_burn(uint256)": "infinite",
						"_checkOnERC721Received(address,address,uint256,bytes memory)": "infinite",
						"_exists(uint256)": "969",
						"_isApprovedOrOwner(address,uint256)": "infinite",
						"_mint(address,uint256)": "infinite",
						"_requireMinted(uint256)": "infinite",
						"_safeMint(address,uint256)": "infinite",
						"_safeMint(address,uint256,bytes memory)": "infinite",
						"_safeTransfer(address,address,uint256,bytes memory)": "infinite",
						"_setApprovalForAll(address,address,bool)": "infinite",
						"_setTokenURI(uint256,string memory)": "infinite",
						"_transfer(address,address,uint256)": "infinite"
					}
				},
				"methodIdentifiers": {
					"approve(address,uint256)": "095ea7b3",
					"balanceOf(address)": "70a08231",
					"getApproved(uint256)": "081812fc",
					"isApprovedForAll(address,address)": "e985e9c5",
					"name()": "06fdde03",
					"ownerOf(uint256)": "6352211e",
					"safeMint(address,uint256,string)": "cd279c7c",
					"safeTransferFrom(address,address,uint256)": "42842e0e",
					"safeTransferFrom(address,address,uint256,bytes)": "b88d4fde",
					"setApprovalForAll(address,bool)": "a22cb465",
					"supportsInterface(bytes4)": "01ffc9a7",
					"symbol()": "95d89b41",
					"tokenURI(uint256)": "c87b56dd",
					"transferFrom(address,address,uint256)": "23b872dd"
				}
			},
			"storageLayout": {
				"storage": [
					{
						"astId": 741,
						"contract": "contracts/erc721.sol:ERC721",
						"label": "_name",
						"offset": 0,
						"slot": "0",
						"type": "t_string_storage"
					},
					{
						"astId": 743,
						"contract": "contracts/erc721.sol:ERC721",
						"label": "_symbol",
						"offset": 0,
						"slot": "1",
						"type": "t_string_storage"
					},
					{
						"astId": 747,
						"contract": "contracts/erc721.sol:ERC721",
						"label": "_owners",
						"offset": 0,
						"slot": "2",
						"type": "t_mapping(t_uint256,t_address)"
					},
					{
						"astId": 751,
						"contract": "contracts/erc721.sol:ERC721",
						"label": "_balances",
						"offset": 0,
						"slot": "3",
						"type": "t_mapping(t_address,t_uint256)"
					},
					{
						"astId": 755,
						"contract": "contracts/erc721.sol:ERC721",
						"label": "_tokenApprovals",
						"offset": 0,
						"slot": "4",
						"type": "t_mapping(t_uint256,t_address)"
					},
					{
						"astId": 761,
						"contract": "contracts/erc721.sol:ERC721",
						"label": "_operatorApprovals",
						"offset": 0,
						"slot": "5",
						"type": "t_mapping(t_address,t_mapping(t_address,t_bool))"
					},
					{
						"astId": 765,
						"contract": "contracts/erc721.sol:ERC721",
						"label": "_tokenURIs",
						"offset": 0,
						"slot": "6",
						"type": "t_mapping(t_uint256,t_string_storage)"
					}
				],
				"types": {
					"t_address": {
						"encoding": "inplace",
						"label": "address",
						"numberOfBytes": "20"
					},
					"t_bool": {
						"encoding": "inplace",
						"label": "bool",
						"numberOfBytes": "1"
					},
					"t_mapping(t_address,t_bool)": {
						"encoding": "mapping",
						"key": "t_address",
						"label": "mapping(address => bool)",
						"numberOfBytes": "32",
						"value": "t_bool"
					},
					"t_mapping(t_address,t_mapping(t_address,t_bool))": {
						"encoding": "mapping",
						"key": "t_address",
						"label": "mapping(address => mapping(address => bool))",
						"numberOfBytes": "32",
						"value": "t_mapping(t_address,t_bool)"
					},
					"t_mapping(t_address,t_uint256)": {
						"encoding": "mapping",
						"key": "t_address",
						"label": "mapping(address => uint256)",
						"numberOfBytes": "32",
						"value": "t_uint256"
					},
					"t_mapping(t_uint256,t_address)": {
						"encoding": "mapping",
						"key": "t_uint256",
						"label": "mapping(uint256 => address)",
						"numberOfBytes": "32",
						"value": "t_address"
					},
					"t_mapping(t_uint256,t_string_storage)": {
						"encoding": "mapping",
						"key": "t_uint256",
						"label": "mapping(uint256 => string)",
						"numberOfBytes": "32",
						"value": "t_string_storage"
					},
					"t_string_storage": {
						"encoding": "bytes",
						"label": "string",
						"numberOfBytes": "32"
					},
					"t_uint256": {
						"encoding": "inplace",
						"label": "uint256",
						"numberOfBytes": "32"
					}
				}
			},
			"userdoc": {
				"kind": "user",
				"methods": {},
				"version": 1
			}
		}
	}
}