{
	"contracts/nft.sol": {
		"nft": {
			"abi": [
				{
					"inputs": [
						{
							"internalType": "string",
							"name": "name_",
							"type": "string"
						},
						{
							"internalType": "string",
							"name": "symbol_",
							"type": "string"
						}
					],
					"stateMutability": "nonpayable",
					"type": "constructor"
				},
				{
					"anonymous": false,
					"inputs": [
						{
							"indexed": true,
							"internalType": "address",
							"name": "owner",
							"type": "address"
						},
						{
							"indexed": true,
							"internalType": "address",
							"name": "approved",
							"type": "address"
						},
						{
							"indexed": true,
							"internalType": "uint256",
							"name": "tokenId",
							"type": "uint256"
						}
					],
					"name": "Approval",
					"type": "event"
				},
				{
					"anonymous": false,
					"inputs": [
						{
							"indexed": true,
							"internalType": "address",
							"name": "owner",
							"type": "address"
						},
						{
							"indexed": true,
							"internalType": "address",
							"name": "operator",
							"type": "address"
						},
						{
							"indexed": false,
							"internalType": "bool",
							"name": "approved",
							"type": "bool"
						}
					],
					"name": "ApprovalForAll",
					"type": "event"
				},
				{
					"anonymous": false,
					"inputs": [
						{
							"indexed": true,
							"internalType": "address",
							"name": "from",
							"type": "address"
						},
						{
							"indexed": true,
							"internalType": "address",
							"name": "to",
							"type": "address"
						},
						{
							"indexed": true,
							"internalType": "uint256",
							"name": "tokenId",
							"type": "uint256"
						}
					],
					"name": "Transfer",
					"type": "event"
				},
				{
					"inputs": [
						{
							"internalType": "address",
							"name": "to",
							"type": "address"
						},
						{
							"internalType": "uint256",
							"name": "tokenId",
							"type": "uint256"
						}
					],
					"name": "approve",
					"outputs": [],
					"stateMutability": "nonpayable",
					"type": "function"
				},
				{
					"inputs": [
						{
							"internalType": "address",
							"name": "owner",
							"type": "address"
						}
					],
					"name": "balanceOf",
					"outputs": [
						{
							"internalType": "uint256",
							"name": "",
							"type": "uint256"
						}
					],
					"stateMutability": "view",
					"type": "function"
				},
				{
					"inputs": [
						{
							"internalType": "uint256",
							"name": "tokenId",
							"type": "uint256"
						}
					],
					"name": "collaboratotOf",
					"outputs": [
						{
							"internalType": "address[]",
							"name": "",
							"type": "address[]"
						}
					],
					"stateMutability": "view",
					"type": "function"
				},
				{
					"inputs": [
						{
							"internalType": "uint256",
							"name": "tokenId",
							"type": "uint256"
						}
					],
					"name": "collaboratotPercentageOf",
					"outputs": [
						{
							"internalType": "uint256[]",
							"name": "",
							"type": "uint256[]"
						}
					],
					"stateMutability": "view",
					"type": "function"
				},
				{
					"inputs": [
						{
							"internalType": "uint256",
							"name": "tokenId",
							"type": "uint256"
						}
					],
					"name": "getApproved",
					"outputs": [
						{
							"internalType": "address",
							"name": "",
							"type": "address"
						}
					],
					"stateMutability": "view",
					"type": "function"
				},
				{
					"inputs": [
						{
							"internalType": "address",
							"name": "owner",
							"type": "address"
						},
						{
							"internalType": "address",
							"name": "operator",
							"type": "address"
						}
					],
					"name": "isApprovedForAll",
					"outputs": [
						{
							"internalType": "bool",
							"name": "",
							"type": "bool"
						}
					],
					"stateMutability": "view",
					"type": "function"
				},
				{
					"inputs": [
						{
							"internalType": "address",
							"name": "to",
							"type": "address"
						},
						{
							"internalType": "address[]",
							"name": "collaborator",
							"type": "address[]"
						},
						{
							"internalType": "uint256[]",
							"name": "collaboratorPercent",
							"type": "uint256[]"
						},
						{
							"internalType": "string",
							"name": "uri",
							"type": "string"
						}
					],
					"name": "mint",
					"outputs": [
						{
							"internalType": "uint256",
							"name": "",
							"type": "uint256"
						}
					],
					"stateMutability": "nonpayable",
					"type": "function"
				},
				{
					"inputs": [],
					"name": "name",
					"outputs": [
						{
							"internalType": "string",
							"name": "",
							"type": "string"
						}
					],
					"stateMutability": "view",
					"type": "function"
				},
				{
					"inputs": [
						{
							"internalType": "uint256",
							"name": "tokenId",
							"type": "uint256"
						}
					],
					"name": "ownerOf",
					"outputs": [
						{
							"internalType": "address",
							"name": "",
							"type": "address"
						}
					],
					"stateMutability": "view",
					"type": "function"
				},
				{
					"inputs": [
						{
							"internalType": "address",
							"name": "from",
							"type": "address"
						},
						{
							"internalType": "address",
							"name": "to",
							"type": "address"
						},
						{
							"internalType": "uint256",
							"name": "tokenId",
							"type": "uint256"
						}
					],
					"name": "safeTransferFrom",
					"outputs": [],
					"stateMutability": "nonpayable",
					"type": "function"
				},
				{
					"inputs": [
						{
							"internalType": "address",
							"name": "from",
							"type": "address"
						},
						{
							"internalType": "address",
							"name": "to",
							"type": "address"
						},
						{
							"internalType": "uint256",
							"name": "tokenId",
							"type": "uint256"
						},
						{
							"internalType": "bytes",
							"name": "data",
							"type": "bytes"
						}
					],
					"name": "safeTransferFrom",
					"outputs": [],
					"stateMutability": "nonpayable",
					"type": "function"
				},
				{
					"inputs": [
						{
							"internalType": "address",
							"name": "operator",
							"type": "address"
						},
						{
							"internalType": "bool",
							"name": "approved",
							"type": "bool"
						}
					],
					"name": "setApprovalForAll",
					"outputs": [],
					"stateMutability": "nonpayable",
					"type": "function"
				},
				{
					"inputs": [
						{
							"internalType": "bytes4",
							"name": "interfaceId",
							"type": "bytes4"
						}
					],
					"name": "supportsInterface",
					"outputs": [
						{
							"internalType": "bool",
							"name": "",
							"type": "bool"
						}
					],
					"stateMutability": "view",
					"type": "function"
				},
				{
					"inputs": [],
					"name": "symbol",
					"outputs": [
						{
							"internalType": "string",
							"name": "",
							"type": "string"
						}
					],
					"stateMutability": "view",
					"type": "function"
				},
				{
					"inputs": [
						{
							"internalType": "uint256",
							"name": "tokenId",
							"type": "uint256"
						}
					],
					"name": "tokenURI",
					"outputs": [
						{
							"internalType": "string",
							"name": "",
							"type": "string"
						}
					],
					"stateMutability": "view",
					"type": "function"
				},
				{
					"inputs": [
						{
							"internalType": "uint256",
							"name": "tokenId",
							"type": "uint256"
						}
					],
					"name": "tokenUri",
					"outputs": [
						{
							"internalType": "string",
							"name": "",
							"type": "string"
						}
					],
					"stateMutability": "view",
					"type": "function"
				},
				{
					"inputs": [
						{
							"internalType": "address",
							"name": "from",
							"type": "address"
						},
						{
							"internalType": "address",
							"name": "to",
							"type": "address"
						},
						{
							"internalType": "uint256",
							"name": "tokenId",
							"type": "uint256"
						}
					],
					"name": "transferFrom",
					"outputs": [],
					"stateMutability": "nonpayable",
					"type": "function"
				}
			],
			"devdoc": {
				"kind": "dev",
				"methods": {
					"approve(address,uint256)": {
						"details": "Gives permission to `to` to transfer `tokenId` token to another account. The approval is cleared when the token is transferred. Only a single account can be approved at a time, so approving the zero address clears previous approvals. Requirements: - The caller must own the token or be an approved operator. - `tokenId` must exist. Emits an {Approval} event."
					},
					"balanceOf(address)": {
						"details": "Returns the number of tokens in ``owner``'s account."
					},
					"getApproved(uint256)": {
						"details": "Returns the account approved for `tokenId` token. Requirements: - `tokenId` must exist."
					},
					"isApprovedForAll(address,address)": {
						"details": "Returns if the `operator` is allowed to manage all of the assets of `owner`. See {setApprovalForAll}"
					},
					"name()": {
						"details": "Returns the token collection name."
					},
					"ownerOf(uint256)": {
						"details": "Returns the owner of the `tokenId` token. Requirements: - `tokenId` must exist."
					},
					"safeTransferFrom(address,address,uint256)": {
						"details": "Safely transfers `tokenId` token from `from` to `to`, checking first that contract recipients are aware of the ERC721 protocol to prevent tokens from being forever locked. Requirements: - `from` cannot be the zero address. - `to` cannot be the zero address. - `tokenId` token must exist and be owned by `from`. - If the caller is not `from`, it must be have been allowed to move this token by either {approve} or {setApprovalForAll}. - If `to` refers to a smart contract, it must implement {IERC721Receiver-onERC721Received}, which is called upon a safe transfer. Emits a {Transfer} event."
					},
					"safeTransferFrom(address,address,uint256,bytes)": {
						"details": "Safely transfers `tokenId` token from `from` to `to`. Requirements: - `from` cannot be the zero address. - `to` cannot be the zero address. - `tokenId` token must exist and be owned by `from`. - If the caller is not `from`, it must be approved to move this token by either {approve} or {setApprovalForAll}. - If `to` refers to a smart contract, it must implement {IERC721Receiver-onERC721Received}, which is called upon a safe transfer. Emits a {Transfer} event."
					},
					"symbol()": {
						"details": "Returns the token collection symbol."
					},
					"tokenURI(uint256)": {
						"details": "Returns the Uniform Resource Identifier (URI) for `tokenId` token."
					},
					"transferFrom(address,address,uint256)": {
						"details": "Transfers `tokenId` token from `from` to `to`. WARNING: Usage of this method is discouraged, use {safeTransferFrom} whenever possible. Requirements: - `from` cannot be the zero address. - `to` cannot be the zero address. - `tokenId` token must be owned by `from`. - If the caller is not `from`, it must be approved to move this token by either {approve} or {setApprovalForAll}. Emits a {Transfer} event."
					}
				},
				"version": 1
			},
			"evm": {
				"assembly": "    /* \"contracts/nft.sol\":677:11480  contract nft is Context, ERC165, IERC721, IERC721Metadata {\r... */\n  mstore(0x40, 0x80)\n    /* \"contracts/nft.sol\":1486:1602  constructor(string memory name_, string memory symbol_) {\r... */\n  callvalue\n  dup1\n  iszero\n  tag_1\n  jumpi\n  0x00\n  dup1\n  revert\ntag_1:\n  pop\n  mload(0x40)\n  sub(codesize, bytecodeSize)\n  dup1\n  bytecodeSize\n  dup4\n  codecopy\n  dup2\n  dup2\n  add\n  0x40\n  mstore\n  dup2\n  add\n  swap1\n  tag_2\n  swap2\n  swap1\n  tag_3\n  jump\t// in\ntag_2:\n    /* \"contracts/nft.sol\":1561:1566  name_ */\n  dup2\n    /* \"contracts/nft.sol\":1553:1558  _name */\n  0x01\n    /* \"contracts/nft.sol\":1553:1566  _name = name_ */\n  swap1\n  dup1\n  mload\n  swap1\n  0x20\n  add\n  swap1\n  tag_6\n  swap3\n  swap2\n  swap1\n  tag_7\n  jump\t// in\ntag_6:\n  pop\n    /* \"contracts/nft.sol\":1587:1594  symbol_ */\n  dup1\n    /* \"contracts/nft.sol\":1577:1584  _symbol */\n  0x02\n    /* \"contracts/nft.sol\":1577:1594  _symbol = symbol_ */\n  swap1\n  dup1\n  mload\n  swap1\n  0x20\n  add\n  swap1\n  tag_8\n  swap3\n  swap2\n  swap1\n  tag_7\n  jump\t// in\ntag_8:\n  pop\n    /* \"contracts/nft.sol\":1486:1602  constructor(string memory name_, string memory symbol_) {\r... */\n  pop\n  pop\n    /* \"contracts/nft.sol\":677:11480  contract nft is Context, ERC165, IERC721, IERC721Metadata {\r... */\n  jump(tag_9)\ntag_7:\n  dup3\n  dup1\n  sload\n  tag_10\n  swap1\n  tag_11\n  jump\t// in\ntag_10:\n  swap1\n  0x00\n  mstore\n  keccak256(0x00, 0x20)\n  swap1\n  0x1f\n  add\n  0x20\n  swap1\n  div\n  dup2\n  add\n  swap3\n  dup3\n  tag_13\n  jumpi\n  0x00\n  dup6\n  sstore\n  jump(tag_12)\ntag_13:\n  dup3\n  0x1f\n  lt\n  tag_14\n  jumpi\n  dup1\n  mload\n  not(0xff)\n  and\n  dup4\n  dup1\n  add\n  or\n  dup6\n  sstore\n  jump(tag_12)\ntag_14:\n  dup3\n  dup1\n  add\n  0x01\n  add\n  dup6\n  sstore\n  dup3\n  iszero\n  tag_12\n  jumpi\n  swap2\n  dup3\n  add\ntag_15:\n  dup3\n  dup2\n  gt\n  iszero\n  tag_16\n  jumpi\n  dup3\n  mload\n  dup3\n  sstore\n  swap2\n  0x20\n  add\n  swap2\n  swap1\n  0x01\n  add\n  swap1\n  jump(tag_15)\ntag_16:\ntag_12:\n  pop\n  swap1\n  pop\n  tag_17\n  swap2\n  swap1\n  tag_18\n  jump\t// in\ntag_17:\n  pop\n  swap1\n  jump\t// out\ntag_18:\ntag_19:\n  dup1\n  dup3\n  gt\n  iszero\n  tag_20\n  jumpi\n  0x00\n  dup2\n  0x00\n  swap1\n  sstore\n  pop\n  0x01\n  add\n  jump(tag_19)\ntag_20:\n  pop\n  swap1\n  jump\t// out\n    /* \"#utility.yul\":7:361   */\ntag_22:\n    /* \"#utility.yul\":96:101   */\n  0x00\n    /* \"#utility.yul\":121:187   */\n  tag_24\n    /* \"#utility.yul\":137:186   */\n  tag_25\n    /* \"#utility.yul\":179:185   */\n  dup5\n    /* \"#utility.yul\":137:186   */\n  tag_26\n  jump\t// in\ntag_25:\n    /* \"#utility.yul\":121:187   */\n  tag_27\n  jump\t// in\ntag_24:\n    /* \"#utility.yul\":112:187   */\n  swap1\n  pop\n    /* \"#utility.yul\":210:216   */\n  dup3\n    /* \"#utility.yul\":203:208   */\n  dup2\n    /* \"#utility.yul\":196:217   */\n  mstore\n    /* \"#utility.yul\":248:252   */\n  0x20\n    /* \"#utility.yul\":241:246   */\n  dup2\n    /* \"#utility.yul\":237:253   */\n  add\n    /* \"#utility.yul\":286:289   */\n  dup5\n    /* \"#utility.yul\":277:283   */\n  dup5\n    /* \"#utility.yul\":272:275   */\n  dup5\n    /* \"#utility.yul\":268:284   */\n  add\n    /* \"#utility.yul\":265:290   */\n  gt\n    /* \"#utility.yul\":262:264   */\n  iszero\n  tag_28\n  jumpi\n    /* \"#utility.yul\":303:304   */\n  0x00\n    /* \"#utility.yul\":300:301   */\n  dup1\n    /* \"#utility.yul\":293:305   */\n  revert\n    /* \"#utility.yul\":262:264   */\ntag_28:\n    /* \"#utility.yul\":316:355   */\n  tag_29\n    /* \"#utility.yul\":348:354   */\n  dup5\n    /* \"#utility.yul\":343:346   */\n  dup3\n    /* \"#utility.yul\":338:341   */\n  dup6\n    /* \"#utility.yul\":316:355   */\n  tag_30\n  jump\t// in\ntag_29:\n    /* \"#utility.yul\":102:361   */\n  pop\n  swap4\n  swap3\n  pop\n  pop\n  pop\n  jump\t// out\n    /* \"#utility.yul\":381:669   */\ntag_31:\n    /* \"#utility.yul\":448:453   */\n  0x00\n    /* \"#utility.yul\":497:500   */\n  dup3\n    /* \"#utility.yul\":490:494   */\n  0x1f\n    /* \"#utility.yul\":482:488   */\n  dup4\n    /* \"#utility.yul\":478:495   */\n  add\n    /* \"#utility.yul\":474:501   */\n  slt\n    /* \"#utility.yul\":464:466   */\n  tag_33\n  jumpi\n    /* \"#utility.yul\":515:516   */\n  0x00\n    /* \"#utility.yul\":512:513   */\n  dup1\n    /* \"#utility.yul\":505:517   */\n  revert\n    /* \"#utility.yul\":464:466   */\ntag_33:\n    /* \"#utility.yul\":548:554   */\n  dup2\n    /* \"#utility.yul\":542:555   */\n  mload\n    /* \"#utility.yul\":573:663   */\n  tag_34\n    /* \"#utility.yul\":659:662   */\n  dup5\n    /* \"#utility.yul\":651:657   */\n  dup3\n    /* \"#utility.yul\":644:648   */\n  0x20\n    /* \"#utility.yul\":636:642   */\n  dup7\n    /* \"#utility.yul\":632:649   */\n  add\n    /* \"#utility.yul\":573:663   */\n  tag_22\n  jump\t// in\ntag_34:\n    /* \"#utility.yul\":564:663   */\n  swap2\n  pop\n    /* \"#utility.yul\":454:669   */\n  pop\n  swap3\n  swap2\n  pop\n  pop\n  jump\t// out\n    /* \"#utility.yul\":675:1327   */\ntag_3:\n    /* \"#utility.yul\":774:780   */\n  0x00\n    /* \"#utility.yul\":782:788   */\n  dup1\n    /* \"#utility.yul\":831:833   */\n  0x40\n    /* \"#utility.yul\":819:828   */\n  dup4\n    /* \"#utility.yul\":810:817   */\n  dup6\n    /* \"#utility.yul\":806:829   */\n  sub\n    /* \"#utility.yul\":802:834   */\n  slt\n    /* \"#utility.yul\":799:801   */\n  iszero\n  tag_36\n  jumpi\n    /* \"#utility.yul\":847:848   */\n  0x00\n    /* \"#utility.yul\":844:845   */\n  dup1\n    /* \"#utility.yul\":837:849   */\n  revert\n    /* \"#utility.yul\":799:801   */\ntag_36:\n    /* \"#utility.yul\":911:912   */\n  0x00\n    /* \"#utility.yul\":900:909   */\n  dup4\n    /* \"#utility.yul\":896:913   */\n  add\n    /* \"#utility.yul\":890:914   */\n  mload\n    /* \"#utility.yul\":941:959   */\n  0xffffffffffffffff\n    /* \"#utility.yul\":933:939   */\n  dup2\n    /* \"#utility.yul\":930:960   */\n  gt\n    /* \"#utility.yul\":927:929   */\n  iszero\n  tag_37\n  jumpi\n    /* \"#utility.yul\":973:974   */\n  0x00\n    /* \"#utility.yul\":970:971   */\n  dup1\n    /* \"#utility.yul\":963:975   */\n  revert\n    /* \"#utility.yul\":927:929   */\ntag_37:\n    /* \"#utility.yul\":1001:1075   */\n  tag_38\n    /* \"#utility.yul\":1067:1074   */\n  dup6\n    /* \"#utility.yul\":1058:1064   */\n  dup3\n    /* \"#utility.yul\":1047:1056   */\n  dup7\n    /* \"#utility.yul\":1043:1065   */\n  add\n    /* \"#utility.yul\":1001:1075   */\n  tag_31\n  jump\t// in\ntag_38:\n    /* \"#utility.yul\":991:1075   */\n  swap3\n  pop\n    /* \"#utility.yul\":861:1085   */\n  pop\n    /* \"#utility.yul\":1145:1147   */\n  0x20\n    /* \"#utility.yul\":1134:1143   */\n  dup4\n    /* \"#utility.yul\":1130:1148   */\n  add\n    /* \"#utility.yul\":1124:1149   */\n  mload\n    /* \"#utility.yul\":1176:1194   */\n  0xffffffffffffffff\n    /* \"#utility.yul\":1168:1174   */\n  dup2\n    /* \"#utility.yul\":1165:1195   */\n  gt\n    /* \"#utility.yul\":1162:1164   */\n  iszero\n  tag_39\n  jumpi\n    /* \"#utility.yul\":1208:1209   */\n  0x00\n    /* \"#utility.yul\":1205:1206   */\n  dup1\n    /* \"#utility.yul\":1198:1210   */\n  revert\n    /* \"#utility.yul\":1162:1164   */\ntag_39:\n    /* \"#utility.yul\":1236:1310   */\n  tag_40\n    /* \"#utility.yul\":1302:1309   */\n  dup6\n    /* \"#utility.yul\":1293:1299   */\n  dup3\n    /* \"#utility.yul\":1282:1291   */\n  dup7\n    /* \"#utility.yul\":1278:1300   */\n  add\n    /* \"#utility.yul\":1236:1310   */\n  tag_31\n  jump\t// in\ntag_40:\n    /* \"#utility.yul\":1226:1310   */\n  swap2\n  pop\n    /* \"#utility.yul\":1095:1320   */\n  pop\n    /* \"#utility.yul\":789:1327   */\n  swap3\n  pop\n  swap3\n  swap1\n  pop\n  jump\t// out\n    /* \"#utility.yul\":1333:1462   */\ntag_27:\n    /* \"#utility.yul\":1367:1373   */\n  0x00\n    /* \"#utility.yul\":1394:1414   */\n  tag_42\n  tag_43\n  jump\t// in\ntag_42:\n    /* \"#utility.yul\":1384:1414   */\n  swap1\n  pop\n    /* \"#utility.yul\":1423:1456   */\n  tag_44\n    /* \"#utility.yul\":1451:1455   */\n  dup3\n    /* \"#utility.yul\":1443:1449   */\n  dup3\n    /* \"#utility.yul\":1423:1456   */\n  tag_45\n  jump\t// in\ntag_44:\n    /* \"#utility.yul\":1374:1462   */\n  swap2\n  swap1\n  pop\n  jump\t// out\n    /* \"#utility.yul\":1468:1543   */\ntag_43:\n    /* \"#utility.yul\":1501:1507   */\n  0x00\n    /* \"#utility.yul\":1534:1536   */\n  0x40\n    /* \"#utility.yul\":1528:1537   */\n  mload\n    /* \"#utility.yul\":1518:1537   */\n  swap1\n  pop\n    /* \"#utility.yul\":1508:1543   */\n  swap1\n  jump\t// out\n    /* \"#utility.yul\":1549:1857   */\ntag_26:\n    /* \"#utility.yul\":1611:1615   */\n  0x00\n    /* \"#utility.yul\":1701:1719   */\n  0xffffffffffffffff\n    /* \"#utility.yul\":1693:1699   */\n  dup3\n    /* \"#utility.yul\":1690:1720   */\n  gt\n    /* \"#utility.yul\":1687:1689   */\n  iszero\n  tag_48\n  jumpi\n    /* \"#utility.yul\":1723:1741   */\n  tag_49\n  tag_50\n  jump\t// in\ntag_49:\n    /* \"#utility.yul\":1687:1689   */\ntag_48:\n    /* \"#utility.yul\":1761:1790   */\n  tag_51\n    /* \"#utility.yul\":1783:1789   */\n  dup3\n    /* \"#utility.yul\":1761:1790   */\n  tag_52\n  jump\t// in\ntag_51:\n    /* \"#utility.yul\":1753:1790   */\n  swap1\n  pop\n    /* \"#utility.yul\":1845:1849   */\n  0x20\n    /* \"#utility.yul\":1839:1843   */\n  dup2\n    /* \"#utility.yul\":1835:1850   */\n  add\n    /* \"#utility.yul\":1827:1850   */\n  swap1\n  pop\n    /* \"#utility.yul\":1616:1857   */\n  swap2\n  swap1\n  pop\n  jump\t// out\n    /* \"#utility.yul\":1863:2170   */\ntag_30:\n    /* \"#utility.yul\":1931:1932   */\n  0x00\n    /* \"#utility.yul\":1941:2054   */\ntag_54:\n    /* \"#utility.yul\":1955:1961   */\n  dup4\n    /* \"#utility.yul\":1952:1953   */\n  dup2\n    /* \"#utility.yul\":1949:1962   */\n  lt\n    /* \"#utility.yul\":1941:2054   */\n  iszero\n  tag_56\n  jumpi\n    /* \"#utility.yul\":2040:2041   */\n  dup1\n    /* \"#utility.yul\":2035:2038   */\n  dup3\n    /* \"#utility.yul\":2031:2042   */\n  add\n    /* \"#utility.yul\":2025:2043   */\n  mload\n    /* \"#utility.yul\":2021:2022   */\n  dup2\n    /* \"#utility.yul\":2016:2019   */\n  dup5\n    /* \"#utility.yul\":2012:2023   */\n  add\n    /* \"#utility.yul\":2005:2044   */\n  mstore\n    /* \"#utility.yul\":1977:1979   */\n  0x20\n    /* \"#utility.yul\":1974:1975   */\n  dup2\n    /* \"#utility.yul\":1970:1980   */\n  add\n    /* \"#utility.yul\":1965:1980   */\n  swap1\n  pop\n    /* \"#utility.yul\":1941:2054   */\n  jump(tag_54)\ntag_56:\n    /* \"#utility.yul\":2072:2078   */\n  dup4\n    /* \"#utility.yul\":2069:2070   */\n  dup2\n    /* \"#utility.yul\":2066:2079   */\n  gt\n    /* \"#utility.yul\":2063:2065   */\n  iszero\n  tag_57\n  jumpi\n    /* \"#utility.yul\":2152:2153   */\n  0x00\n    /* \"#utility.yul\":2143:2149   */\n  dup5\n    /* \"#utility.yul\":2138:2141   */\n  dup5\n    /* \"#utility.yul\":2134:2150   */\n  add\n    /* \"#utility.yul\":2127:2154   */\n  mstore\n    /* \"#utility.yul\":2063:2065   */\ntag_57:\n    /* \"#utility.yul\":1912:2170   */\n  pop\n  pop\n  pop\n  pop\n  jump\t// out\n    /* \"#utility.yul\":2176:2496   */\ntag_11:\n    /* \"#utility.yul\":2220:2226   */\n  0x00\n    /* \"#utility.yul\":2257:2258   */\n  0x02\n    /* \"#utility.yul\":2251:2255   */\n  dup3\n    /* \"#utility.yul\":2247:2259   */\n  div\n    /* \"#utility.yul\":2237:2259   */\n  swap1\n  pop\n    /* \"#utility.yul\":2304:2305   */\n  0x01\n    /* \"#utility.yul\":2298:2302   */\n  dup3\n    /* \"#utility.yul\":2294:2306   */\n  and\n    /* \"#utility.yul\":2325:2343   */\n  dup1\n    /* \"#utility.yul\":2315:2317   */\n  tag_59\n  jumpi\n    /* \"#utility.yul\":2381:2385   */\n  0x7f\n    /* \"#utility.yul\":2373:2379   */\n  dup3\n    /* \"#utility.yul\":2369:2386   */\n  and\n    /* \"#utility.yul\":2359:2386   */\n  swap2\n  pop\n    /* \"#utility.yul\":2315:2317   */\ntag_59:\n    /* \"#utility.yul\":2443:2445   */\n  0x20\n    /* \"#utility.yul\":2435:2441   */\n  dup3\n    /* \"#utility.yul\":2432:2446   */\n  lt\n    /* \"#utility.yul\":2412:2430   */\n  dup2\n    /* \"#utility.yul\":2409:2447   */\n  eq\n    /* \"#utility.yul\":2406:2408   */\n  iszero\n  tag_60\n  jumpi\n    /* \"#utility.yul\":2462:2480   */\n  tag_61\n  tag_62\n  jump\t// in\ntag_61:\n    /* \"#utility.yul\":2406:2408   */\ntag_60:\n    /* \"#utility.yul\":2227:2496   */\n  pop\n  swap2\n  swap1\n  pop\n  jump\t// out\n    /* \"#utility.yul\":2502:2783   */\ntag_45:\n    /* \"#utility.yul\":2585:2612   */\n  tag_64\n    /* \"#utility.yul\":2607:2611   */\n  dup3\n    /* \"#utility.yul\":2585:2612   */\n  tag_52\n  jump\t// in\ntag_64:\n    /* \"#utility.yul\":2577:2583   */\n  dup2\n    /* \"#utility.yul\":2573:2613   */\n  add\n    /* \"#utility.yul\":2715:2721   */\n  dup2\n    /* \"#utility.yul\":2703:2713   */\n  dup2\n    /* \"#utility.yul\":2700:2722   */\n  lt\n    /* \"#utility.yul\":2679:2697   */\n  0xffffffffffffffff\n    /* \"#utility.yul\":2667:2677   */\n  dup3\n    /* \"#utility.yul\":2664:2698   */\n  gt\n    /* \"#utility.yul\":2661:2723   */\n  or\n    /* \"#utility.yul\":2658:2660   */\n  iszero\n  tag_65\n  jumpi\n    /* \"#utility.yul\":2726:2744   */\n  tag_66\n  tag_50\n  jump\t// in\ntag_66:\n    /* \"#utility.yul\":2658:2660   */\ntag_65:\n    /* \"#utility.yul\":2766:2776   */\n  dup1\n    /* \"#utility.yul\":2762:2764   */\n  0x40\n    /* \"#utility.yul\":2755:2777   */\n  mstore\n    /* \"#utility.yul\":2545:2783   */\n  pop\n  pop\n  pop\n  jump\t// out\n    /* \"#utility.yul\":2789:2969   */\ntag_62:\n    /* \"#utility.yul\":2837:2914   */\n  0x4e487b7100000000000000000000000000000000000000000000000000000000\n    /* \"#utility.yul\":2834:2835   */\n  0x00\n    /* \"#utility.yul\":2827:2915   */\n  mstore\n    /* \"#utility.yul\":2934:2938   */\n  0x22\n    /* \"#utility.yul\":2931:2932   */\n  0x04\n    /* \"#utility.yul\":2924:2939   */\n  mstore\n    /* \"#utility.yul\":2958:2962   */\n  0x24\n    /* \"#utility.yul\":2955:2956   */\n  0x00\n    /* \"#utility.yul\":2948:2963   */\n  revert\n    /* \"#utility.yul\":2975:3155   */\ntag_50:\n    /* \"#utility.yul\":3023:3100   */\n  0x4e487b7100000000000000000000000000000000000000000000000000000000\n    /* \"#utility.yul\":3020:3021   */\n  0x00\n    /* \"#utility.yul\":3013:3101   */\n  mstore\n    /* \"#utility.yul\":3120:3124   */\n  0x41\n    /* \"#utility.yul\":3117:3118   */\n  0x04\n    /* \"#utility.yul\":3110:3125   */\n  mstore\n    /* \"#utility.yul\":3144:3148   */\n  0x24\n    /* \"#utility.yul\":3141:3142   */\n  0x00\n    /* \"#utility.yul\":3134:3149   */\n  revert\n    /* \"#utility.yul\":3161:3263   */\ntag_52:\n    /* \"#utility.yul\":3202:3208   */\n  0x00\n    /* \"#utility.yul\":3253:3255   */\n  0x1f\n    /* \"#utility.yul\":3249:3256   */\n  not\n    /* \"#utility.yul\":3244:3246   */\n  0x1f\n    /* \"#utility.yul\":3237:3242   */\n  dup4\n    /* \"#utility.yul\":3233:3247   */\n  add\n    /* \"#utility.yul\":3229:3257   */\n  and\n    /* \"#utility.yul\":3219:3257   */\n  swap1\n  pop\n    /* \"#utility.yul\":3209:3263   */\n  swap2\n  swap1\n  pop\n  jump\t// out\n    /* \"contracts/nft.sol\":677:11480  contract nft is Context, ERC165, IERC721, IERC721Metadata {\r... */\ntag_9:\n  dataSize(sub_0)\n  dup1\n  dataOffset(sub_0)\n  0x00\n  codecopy\n  0x00\n  return\nstop\n\nsub_0: assembly {\n        /* \"contracts/nft.sol\":677:11480  contract nft is Context, ERC165, IERC721, IERC721Metadata {\r... */\n      mstore(0x40, 0x80)\n      callvalue\n      dup1\n      iszero\n      tag_1\n      jumpi\n      0x00\n      dup1\n      revert\n    tag_1:\n      pop\n      jumpi(tag_2, lt(calldatasize, 0x04))\n      shr(0xe0, calldataload(0x00))\n      dup1\n      0x52e04825\n      gt\n      tag_20\n      jumpi\n      dup1\n      0xa22cb465\n      gt\n      tag_21\n      jumpi\n      dup1\n      0xa22cb465\n      eq\n      tag_15\n      jumpi\n      dup1\n      0xb88d4fde\n      eq\n      tag_16\n      jumpi\n      dup1\n      0xc87b56dd\n      eq\n      tag_17\n      jumpi\n      dup1\n      0xe985e9c5\n      eq\n      tag_18\n      jumpi\n      dup1\n      0xee48cda2\n      eq\n      tag_19\n      jumpi\n      jump(tag_2)\n    tag_21:\n      dup1\n      0x52e04825\n      eq\n      tag_11\n      jumpi\n      dup1\n      0x6352211e\n      eq\n      tag_12\n      jumpi\n      dup1\n      0x70a08231\n      eq\n      tag_13\n      jumpi\n      dup1\n      0x95d89b41\n      eq\n      tag_14\n      jumpi\n      jump(tag_2)\n    tag_20:\n      dup1\n      0x1675f455\n      gt\n      tag_22\n      jumpi\n      dup1\n      0x1675f455\n      eq\n      tag_7\n      jumpi\n      dup1\n      0x23b872dd\n      eq\n      tag_8\n      jumpi\n      dup1\n      0x381568d8\n      eq\n      tag_9\n      jumpi\n      dup1\n      0x42842e0e\n      eq\n      tag_10\n      jumpi\n      jump(tag_2)\n    tag_22:\n      dup1\n      0x01ffc9a7\n      eq\n      tag_3\n      jumpi\n      dup1\n      0x06fdde03\n      eq\n      tag_4\n      jumpi\n      dup1\n      0x081812fc\n      eq\n      tag_5\n      jumpi\n      dup1\n      0x095ea7b3\n      eq\n      tag_6\n      jumpi\n    tag_2:\n      0x00\n      dup1\n      revert\n        /* \"contracts/nft.sol\":2107:2412  function supportsInterface(bytes4 interfaceId) public view virtual override(ERC165, IERC165) returns (bool) {\r... */\n    tag_3:\n      tag_23\n      0x04\n      dup1\n      calldatasize\n      sub\n      dup2\n      add\n      swap1\n      tag_24\n      swap2\n      swap1\n      tag_25\n      jump\t// in\n    tag_24:\n      tag_26\n      jump\t// in\n    tag_23:\n      mload(0x40)\n      tag_27\n      swap2\n      swap1\n      tag_28\n      jump\t// in\n    tag_27:\n      mload(0x40)\n      dup1\n      swap2\n      sub\n      swap1\n      return\n        /* \"contracts/nft.sol\":3310:3410  function name() public view virtual override returns (string memory) {\r... */\n    tag_4:\n      tag_29\n      tag_30\n      jump\t// in\n    tag_29:\n      mload(0x40)\n      tag_31\n      swap2\n      swap1\n      tag_32\n      jump\t// in\n    tag_31:\n      mload(0x40)\n      dup1\n      swap2\n      sub\n      swap1\n      return\n        /* \"contracts/nft.sol\":4399:4570  function getApproved(uint256 tokenId) public view virtual override returns (address) {\r... */\n    tag_5:\n      tag_33\n      0x04\n      dup1\n      calldatasize\n      sub\n      dup2\n      add\n      swap1\n      tag_34\n      swap2\n      swap1\n      tag_35\n      jump\t// in\n    tag_34:\n      tag_36\n      jump\t// in\n    tag_33:\n      mload(0x40)\n      tag_37\n      swap2\n      swap1\n      tag_38\n      jump\t// in\n    tag_37:\n      mload(0x40)\n      dup1\n      swap2\n      sub\n      swap1\n      return\n        /* \"contracts/nft.sol\":3975:4388  function approve(address to, uint256 tokenId) public virtual override {\r... */\n    tag_6:\n      tag_39\n      0x04\n      dup1\n      calldatasize\n      sub\n      dup2\n      add\n      swap1\n      tag_40\n      swap2\n      swap1\n      tag_41\n      jump\t// in\n    tag_40:\n      tag_42\n      jump\t// in\n    tag_39:\n      stop\n        /* \"contracts/nft.sol\":1611:1768  function tokenUri(uint256 tokenId) public view returns (string memory) { \r... */\n    tag_7:\n      tag_43\n      0x04\n      dup1\n      calldatasize\n      sub\n      dup2\n      add\n      swap1\n      tag_44\n      swap2\n      swap1\n      tag_35\n      jump\t// in\n    tag_44:\n      tag_45\n      jump\t// in\n    tag_43:\n      mload(0x40)\n      tag_46\n      swap2\n      swap1\n      tag_32\n      jump\t// in\n    tag_46:\n      mload(0x40)\n      dup1\n      swap2\n      sub\n      swap1\n      return\n        /* \"contracts/nft.sol\":4921:5203  function transferFrom(\r... */\n    tag_8:\n      tag_47\n      0x04\n      dup1\n      calldatasize\n      sub\n      dup2\n      add\n      swap1\n      tag_48\n      swap2\n      swap1\n      tag_49\n      jump\t// in\n    tag_48:\n      tag_50\n      jump\t// in\n    tag_47:\n      stop\n        /* \"contracts/nft.sol\":5739:6091  function mint(address to,address[] memory collaborator,uint256[] memory collaboratorPercent,string memory uri) public returns(uint256){\r... */\n    tag_9:\n      tag_51\n      0x04\n      dup1\n      calldatasize\n      sub\n      dup2\n      add\n      swap1\n      tag_52\n      swap2\n      swap1\n      tag_53\n      jump\t// in\n    tag_52:\n      tag_54\n      jump\t// in\n    tag_51:\n      mload(0x40)\n      tag_55\n      swap2\n      swap1\n      tag_56\n      jump\t// in\n    tag_55:\n      mload(0x40)\n      dup1\n      swap2\n      sub\n      swap1\n      return\n        /* \"contracts/nft.sol\":5213:5398  function safeTransferFrom(\r... */\n    tag_10:\n      tag_57\n      0x04\n      dup1\n      calldatasize\n      sub\n      dup2\n      add\n      swap1\n      tag_58\n      swap2\n      swap1\n      tag_49\n      jump\t// in\n    tag_58:\n      tag_59\n      jump\t// in\n    tag_57:\n      stop\n        /* \"contracts/nft.sol\":2870:3062  function collaboratotOf(uint256 tokenId) public view virtual returns (address[] memory) {\r... */\n    tag_11:\n      tag_60\n      0x04\n      dup1\n      calldatasize\n      sub\n      dup2\n      add\n      swap1\n      tag_61\n      swap2\n      swap1\n      tag_35\n      jump\t// in\n    tag_61:\n      tag_62\n      jump\t// in\n    tag_60:\n      mload(0x40)\n      tag_63\n      swap2\n      swap1\n      tag_64\n      jump\t// in\n    tag_63:\n      mload(0x40)\n      dup1\n      swap2\n      sub\n      swap1\n      return\n        /* \"contracts/nft.sol\":2639:2861  function ownerOf(uint256 tokenId) public view virtual override returns (address) {\r... */\n    tag_12:\n      tag_65\n      0x04\n      dup1\n      calldatasize\n      sub\n      dup2\n      add\n      swap1\n      tag_66\n      swap2\n      swap1\n      tag_35\n      jump\t// in\n    tag_66:\n      tag_67\n      jump\t// in\n    tag_65:\n      mload(0x40)\n      tag_68\n      swap2\n      swap1\n      tag_38\n      jump\t// in\n    tag_68:\n      mload(0x40)\n      dup1\n      swap2\n      sub\n      swap1\n      return\n        /* \"contracts/nft.sol\":2422:2629  function balanceOf(address owner) public view virtual override returns (uint256) {\r... */\n    tag_13:\n      tag_69\n      0x04\n      dup1\n      calldatasize\n      sub\n      dup2\n      add\n      swap1\n      tag_70\n      swap2\n      swap1\n      tag_71\n      jump\t// in\n    tag_70:\n      tag_72\n      jump\t// in\n    tag_69:\n      mload(0x40)\n      tag_73\n      swap2\n      swap1\n      tag_56\n      jump\t// in\n    tag_73:\n      mload(0x40)\n      dup1\n      swap2\n      sub\n      swap1\n      return\n        /* \"contracts/nft.sol\":3419:3523  function symbol() public view virtual override returns (string memory) {\r... */\n    tag_14:\n      tag_74\n      tag_75\n      jump\t// in\n    tag_74:\n      mload(0x40)\n      tag_76\n      swap2\n      swap1\n      tag_32\n      jump\t// in\n    tag_76:\n      mload(0x40)\n      dup1\n      swap2\n      sub\n      swap1\n      return\n        /* \"contracts/nft.sol\":4582:4737  function setApprovalForAll(address operator, bool approved) public virtual override {\r... */\n    tag_15:\n      tag_77\n      0x04\n      dup1\n      calldatasize\n      sub\n      dup2\n      add\n      swap1\n      tag_78\n      swap2\n      swap1\n      tag_79\n      jump\t// in\n    tag_78:\n      tag_80\n      jump\t// in\n    tag_77:\n      stop\n        /* \"contracts/nft.sol\":5408:5730  function safeTransferFrom(\r... */\n    tag_16:\n      tag_81\n      0x04\n      dup1\n      calldatasize\n      sub\n      dup2\n      add\n      swap1\n      tag_82\n      swap2\n      swap1\n      tag_83\n      jump\t// in\n    tag_82:\n      tag_84\n      jump\t// in\n    tag_81:\n      stop\n        /* \"contracts/nft.sol\":3531:3865  function tokenURI(uint256 tokenId) public view virtual override returns (string memory) {\r... */\n    tag_17:\n      tag_85\n      0x04\n      dup1\n      calldatasize\n      sub\n      dup2\n      add\n      swap1\n      tag_86\n      swap2\n      swap1\n      tag_35\n      jump\t// in\n    tag_86:\n      tag_87\n      jump\t// in\n    tag_85:\n      mload(0x40)\n      tag_88\n      swap2\n      swap1\n      tag_32\n      jump\t// in\n    tag_88:\n      mload(0x40)\n      dup1\n      swap2\n      sub\n      swap1\n      return\n        /* \"contracts/nft.sol\":4747:4911  function isApprovedForAll(address owner, address operator) public view virtual override returns (bool) {\r... */\n    tag_18:\n      tag_89\n      0x04\n      dup1\n      calldatasize\n      sub\n      dup2\n      add\n      swap1\n      tag_90\n      swap2\n      swap1\n      tag_91\n      jump\t// in\n    tag_90:\n      tag_92\n      jump\t// in\n    tag_89:\n      mload(0x40)\n      tag_93\n      swap2\n      swap1\n      tag_28\n      jump\t// in\n    tag_93:\n      mload(0x40)\n      dup1\n      swap2\n      sub\n      swap1\n      return\n        /* \"contracts/nft.sol\":3070:3302  function collaboratotPercentageOf(uint256 tokenId) public view virtual returns (uint256[] memory) {\r... */\n    tag_19:\n      tag_94\n      0x04\n      dup1\n      calldatasize\n      sub\n      dup2\n      add\n      swap1\n      tag_95\n      swap2\n      swap1\n      tag_35\n      jump\t// in\n    tag_95:\n      tag_96\n      jump\t// in\n    tag_94:\n      mload(0x40)\n      tag_97\n      swap2\n      swap1\n      tag_98\n      jump\t// in\n    tag_97:\n      mload(0x40)\n      dup1\n      swap2\n      sub\n      swap1\n      return\n        /* \"contracts/nft.sol\":2107:2412  function supportsInterface(bytes4 interfaceId) public view virtual override(ERC165, IERC165) returns (bool) {\r... */\n    tag_26:\n        /* \"contracts/nft.sol\":2209:2213  bool */\n      0x00\n        /* \"contracts/nft.sol\":2261:2286  type(IERC721).interfaceId */\n      0x80ac58cd00000000000000000000000000000000000000000000000000000000\n        /* \"contracts/nft.sol\":2246:2286  interfaceId == type(IERC721).interfaceId */\n      not(0xffffffffffffffffffffffffffffffffffffffffffffffffffffffff)\n      and\n        /* \"contracts/nft.sol\":2246:2257  interfaceId */\n      dup3\n        /* \"contracts/nft.sol\":2246:2286  interfaceId == type(IERC721).interfaceId */\n      not(0xffffffffffffffffffffffffffffffffffffffffffffffffffffffff)\n      and\n      eq\n        /* \"contracts/nft.sol\":2246:2351  interfaceId == type(IERC721).interfaceId ||\r... */\n      dup1\n      tag_100\n      jumpi\n      pop\n        /* \"contracts/nft.sol\":2318:2351  type(IERC721Metadata).interfaceId */\n      0x5b5e139f00000000000000000000000000000000000000000000000000000000\n        /* \"contracts/nft.sol\":2303:2351  interfaceId == type(IERC721Metadata).interfaceId */\n      not(0xffffffffffffffffffffffffffffffffffffffffffffffffffffffff)\n      and\n        /* \"contracts/nft.sol\":2303:2314  interfaceId */\n      dup3\n        /* \"contracts/nft.sol\":2303:2351  interfaceId == type(IERC721Metadata).interfaceId */\n      not(0xffffffffffffffffffffffffffffffffffffffffffffffffffffffff)\n      and\n      eq\n        /* \"contracts/nft.sol\":2246:2351  interfaceId == type(IERC721).interfaceId ||\r... */\n    tag_100:\n        /* \"contracts/nft.sol\":2246:2404  interfaceId == type(IERC721).interfaceId ||\r... */\n      dup1\n      tag_101\n      jumpi\n      pop\n        /* \"contracts/nft.sol\":2368:2404  super.supportsInterface(interfaceId) */\n      tag_102\n        /* \"contracts/nft.sol\":2392:2403  interfaceId */\n      dup3\n        /* \"contracts/nft.sol\":2368:2391  super.supportsInterface */\n      tag_103\n        /* \"contracts/nft.sol\":2368:2404  super.supportsInterface(interfaceId) */\n      jump\t// in\n    tag_102:\n        /* \"contracts/nft.sol\":2246:2404  interfaceId == type(IERC721).interfaceId ||\r... */\n    tag_101:\n        /* \"contracts/nft.sol\":2226:2404  return\r... */\n      swap1\n      pop\n        /* \"contracts/nft.sol\":2107:2412  function supportsInterface(bytes4 interfaceId) public view virtual override(ERC165, IERC165) returns (bool) {\r... */\n      swap2\n      swap1\n      pop\n      jump\t// out\n        /* \"contracts/nft.sol\":3310:3410  function name() public view virtual override returns (string memory) {\r... */\n    tag_30:\n        /* \"contracts/nft.sol\":3364:3377  string memory */\n      0x60\n        /* \"contracts/nft.sol\":3397:3402  _name */\n      0x01\n        /* \"contracts/nft.sol\":3390:3402  return _name */\n      dup1\n      sload\n      tag_105\n      swap1\n      tag_106\n      jump\t// in\n    tag_105:\n      dup1\n      0x1f\n      add\n      0x20\n      dup1\n      swap2\n      div\n      mul\n      0x20\n      add\n      mload(0x40)\n      swap1\n      dup2\n      add\n      0x40\n      mstore\n      dup1\n      swap3\n      swap2\n      swap1\n      dup2\n      dup2\n      mstore\n      0x20\n      add\n      dup3\n      dup1\n      sload\n      tag_107\n      swap1\n      tag_106\n      jump\t// in\n    tag_107:\n      dup1\n      iszero\n      tag_108\n      jumpi\n      dup1\n      0x1f\n      lt\n      tag_109\n      jumpi\n      0x0100\n      dup1\n      dup4\n      sload\n      div\n      mul\n      dup4\n      mstore\n      swap2\n      0x20\n      add\n      swap2\n      jump(tag_108)\n    tag_109:\n      dup3\n      add\n      swap2\n      swap1\n      0x00\n      mstore\n      keccak256(0x00, 0x20)\n      swap1\n    tag_110:\n      dup2\n      sload\n      dup2\n      mstore\n      swap1\n      0x01\n      add\n      swap1\n      0x20\n      add\n      dup1\n      dup4\n      gt\n      tag_110\n      jumpi\n      dup3\n      swap1\n      sub\n      0x1f\n      and\n      dup3\n      add\n      swap2\n    tag_108:\n      pop\n      pop\n      pop\n      pop\n      pop\n      swap1\n      pop\n        /* \"contracts/nft.sol\":3310:3410  function name() public view virtual override returns (string memory) {\r... */\n      swap1\n      jump\t// out\n        /* \"contracts/nft.sol\":4399:4570  function getApproved(uint256 tokenId) public view virtual override returns (address) {\r... */\n    tag_36:\n        /* \"contracts/nft.sol\":4475:4482  address */\n      0x00\n        /* \"contracts/nft.sol\":4495:4518  _requireMinted(tokenId) */\n      tag_112\n        /* \"contracts/nft.sol\":4510:4517  tokenId */\n      dup3\n        /* \"contracts/nft.sol\":4495:4509  _requireMinted */\n      tag_113\n        /* \"contracts/nft.sol\":4495:4518  _requireMinted(tokenId) */\n      jump\t// in\n    tag_112:\n        /* \"contracts/nft.sol\":4538:4553  _tokenApprovals */\n      0x07\n        /* \"contracts/nft.sol\":4538:4562  _tokenApprovals[tokenId] */\n      0x00\n        /* \"contracts/nft.sol\":4554:4561  tokenId */\n      dup4\n        /* \"contracts/nft.sol\":4538:4562  _tokenApprovals[tokenId] */\n      dup2\n      mstore\n      0x20\n      add\n      swap1\n      dup2\n      mstore\n      0x20\n      add\n      0x00\n      keccak256\n      0x00\n      swap1\n      sload\n      swap1\n      0x0100\n      exp\n      swap1\n      div\n      0xffffffffffffffffffffffffffffffffffffffff\n      and\n        /* \"contracts/nft.sol\":4531:4562  return _tokenApprovals[tokenId] */\n      swap1\n      pop\n        /* \"contracts/nft.sol\":4399:4570  function getApproved(uint256 tokenId) public view virtual override returns (address) {\r... */\n      swap2\n      swap1\n      pop\n      jump\t// out\n        /* \"contracts/nft.sol\":3975:4388  function approve(address to, uint256 tokenId) public virtual override {\r... */\n    tag_42:\n        /* \"contracts/nft.sol\":4056:4069  address owner */\n      0x00\n        /* \"contracts/nft.sol\":4072:4092  nft.ownerOf(tokenId) */\n      tag_115\n        /* \"contracts/nft.sol\":4084:4091  tokenId */\n      dup3\n        /* \"contracts/nft.sol\":4072:4083  nft.ownerOf */\n      tag_67\n        /* \"contracts/nft.sol\":4072:4092  nft.ownerOf(tokenId) */\n      jump\t// in\n    tag_115:\n        /* \"contracts/nft.sol\":4056:4092  address owner = nft.ownerOf(tokenId) */\n      swap1\n      pop\n        /* \"contracts/nft.sol\":4117:4122  owner */\n      dup1\n        /* \"contracts/nft.sol\":4111:4122  to != owner */\n      0xffffffffffffffffffffffffffffffffffffffff\n      and\n        /* \"contracts/nft.sol\":4111:4113  to */\n      dup4\n        /* \"contracts/nft.sol\":4111:4122  to != owner */\n      0xffffffffffffffffffffffffffffffffffffffff\n      and\n      eq\n      iszero\n        /* \"contracts/nft.sol\":4103:4160  require(to != owner, \"ERC721: approval to current owner\") */\n      tag_116\n      jumpi\n      mload(0x40)\n      0x08c379a000000000000000000000000000000000000000000000000000000000\n      dup2\n      mstore\n      0x04\n      add\n      tag_117\n      swap1\n      tag_118\n      jump\t// in\n    tag_117:\n      mload(0x40)\n      dup1\n      swap2\n      sub\n      swap1\n      revert\n    tag_116:\n        /* \"contracts/nft.sol\":4211:4216  owner */\n      dup1\n        /* \"contracts/nft.sol\":4195:4216  _msgSender() == owner */\n      0xffffffffffffffffffffffffffffffffffffffff\n      and\n        /* \"contracts/nft.sol\":4195:4207  _msgSender() */\n      tag_119\n        /* \"contracts/nft.sol\":4195:4205  _msgSender */\n      tag_120\n        /* \"contracts/nft.sol\":4195:4207  _msgSender() */\n      jump\t// in\n    tag_119:\n        /* \"contracts/nft.sol\":4195:4216  _msgSender() == owner */\n      0xffffffffffffffffffffffffffffffffffffffff\n      and\n      eq\n        /* \"contracts/nft.sol\":4195:4257  _msgSender() == owner || isApprovedForAll(owner, _msgSender()) */\n      dup1\n      tag_121\n      jumpi\n      pop\n        /* \"contracts/nft.sol\":4220:4257  isApprovedForAll(owner, _msgSender()) */\n      tag_122\n        /* \"contracts/nft.sol\":4237:4242  owner */\n      dup2\n        /* \"contracts/nft.sol\":4244:4256  _msgSender() */\n      tag_123\n        /* \"contracts/nft.sol\":4244:4254  _msgSender */\n      tag_120\n        /* \"contracts/nft.sol\":4244:4256  _msgSender() */\n      jump\t// in\n    tag_123:\n        /* \"contracts/nft.sol\":4220:4236  isApprovedForAll */\n      tag_92\n        /* \"contracts/nft.sol\":4220:4257  isApprovedForAll(owner, _msgSender()) */\n      jump\t// in\n    tag_122:\n        /* \"contracts/nft.sol\":4195:4257  _msgSender() == owner || isApprovedForAll(owner, _msgSender()) */\n    tag_121:\n        /* \"contracts/nft.sol\":4173:4346  require(\r... */\n      tag_124\n      jumpi\n      mload(0x40)\n      0x08c379a000000000000000000000000000000000000000000000000000000000\n      dup2\n      mstore\n      0x04\n      add\n      tag_125\n      swap1\n      tag_126\n      jump\t// in\n    tag_125:\n      mload(0x40)\n      dup1\n      swap2\n      sub\n      swap1\n      revert\n    tag_124:\n        /* \"contracts/nft.sol\":4359:4380  _approve(to, tokenId) */\n      tag_127\n        /* \"contracts/nft.sol\":4368:4370  to */\n      dup4\n        /* \"contracts/nft.sol\":4372:4379  tokenId */\n      dup4\n        /* \"contracts/nft.sol\":4359:4367  _approve */\n      tag_128\n        /* \"contracts/nft.sol\":4359:4380  _approve(to, tokenId) */\n      jump\t// in\n    tag_127:\n        /* \"contracts/nft.sol\":3975:4388  function approve(address to, uint256 tokenId) public virtual override {\r... */\n      pop\n      pop\n      pop\n      jump\t// out\n        /* \"contracts/nft.sol\":1611:1768  function tokenUri(uint256 tokenId) public view returns (string memory) { \r... */\n    tag_45:\n        /* \"contracts/nft.sol\":1667:1680  string memory */\n      0x60\n        /* \"contracts/nft.sol\":1725:1738  _baseTokenURI */\n      0x0a\n        /* \"contracts/nft.sol\":1740:1758  _tokenURI(tokenId) */\n      tag_130\n        /* \"contracts/nft.sol\":1750:1757  tokenId */\n      dup4\n        /* \"contracts/nft.sol\":1740:1749  _tokenURI */\n      tag_131\n        /* \"contracts/nft.sol\":1740:1758  _tokenURI(tokenId) */\n      jump\t// in\n    tag_130:\n        /* \"contracts/nft.sol\":1708:1759  abi.encodePacked(_baseTokenURI, _tokenURI(tokenId)) */\n      add(0x20, mload(0x40))\n      tag_132\n      swap3\n      swap2\n      swap1\n      tag_133\n      jump\t// in\n    tag_132:\n      mload(0x40)\n      0x20\n      dup2\n      dup4\n      sub\n      sub\n      dup2\n      mstore\n      swap1\n      0x40\n      mstore\n        /* \"contracts/nft.sol\":1694:1760  return string(abi.encodePacked(_baseTokenURI, _tokenURI(tokenId))) */\n      swap1\n      pop\n        /* \"contracts/nft.sol\":1611:1768  function tokenUri(uint256 tokenId) public view returns (string memory) { \r... */\n      swap2\n      swap1\n      pop\n      jump\t// out\n        /* \"contracts/nft.sol\":4921:5203  function transferFrom(\r... */\n    tag_50:\n        /* \"contracts/nft.sol\":5063:5104  _isApprovedOrOwner(_msgSender(), tokenId) */\n      tag_135\n        /* \"contracts/nft.sol\":5082:5094  _msgSender() */\n      tag_136\n        /* \"contracts/nft.sol\":5082:5092  _msgSender */\n      tag_120\n        /* \"contracts/nft.sol\":5082:5094  _msgSender() */\n      jump\t// in\n    tag_136:\n        /* \"contracts/nft.sol\":5096:5103  tokenId */\n      dup3\n        /* \"contracts/nft.sol\":5063:5081  _isApprovedOrOwner */\n      tag_137\n        /* \"contracts/nft.sol\":5063:5104  _isApprovedOrOwner(_msgSender(), tokenId) */\n      jump\t// in\n    tag_135:\n        /* \"contracts/nft.sol\":5055:5154  require(_isApprovedOrOwner(_msgSender(), tokenId), \"ERC721: caller is not token owner or approved\") */\n      tag_138\n      jumpi\n      mload(0x40)\n      0x08c379a000000000000000000000000000000000000000000000000000000000\n      dup2\n      mstore\n      0x04\n      add\n      tag_139\n      swap1\n      tag_140\n      jump\t// in\n    tag_139:\n      mload(0x40)\n      dup1\n      swap2\n      sub\n      swap1\n      revert\n    tag_138:\n        /* \"contracts/nft.sol\":5167:5195  _transfer(from, to, tokenId) */\n      tag_141\n        /* \"contracts/nft.sol\":5177:5181  from */\n      dup4\n        /* \"contracts/nft.sol\":5183:5185  to */\n      dup4\n        /* \"contracts/nft.sol\":5187:5194  tokenId */\n      dup4\n        /* \"contracts/nft.sol\":5167:5176  _transfer */\n      tag_142\n        /* \"contracts/nft.sol\":5167:5195  _transfer(from, to, tokenId) */\n      jump\t// in\n    tag_141:\n        /* \"contracts/nft.sol\":4921:5203  function transferFrom(\r... */\n      pop\n      pop\n      pop\n      jump\t// out\n        /* \"contracts/nft.sol\":5739:6091  function mint(address to,address[] memory collaborator,uint256[] memory collaboratorPercent,string memory uri) public returns(uint256){\r... */\n    tag_54:\n        /* \"contracts/nft.sol\":5865:5872  uint256 */\n      0x00\n        /* \"contracts/nft.sol\":5886:5907  _tokenIds.increment() */\n      tag_144\n        /* \"contracts/nft.sol\":5886:5895  _tokenIds */\n      0x00\n        /* \"contracts/nft.sol\":5886:5905  _tokenIds.increment */\n      tag_145\n        /* \"contracts/nft.sol\":5886:5907  _tokenIds.increment() */\n      jump\t// in\n    tag_144:\n        /* \"contracts/nft.sol\":5918:5933  uint256 tokenId */\n      0x00\n        /* \"contracts/nft.sol\":5936:5955  _tokenIds.current() */\n      tag_146\n        /* \"contracts/nft.sol\":5936:5945  _tokenIds */\n      0x00\n        /* \"contracts/nft.sol\":5936:5953  _tokenIds.current */\n      tag_147\n        /* \"contracts/nft.sol\":5936:5955  _tokenIds.current() */\n      jump\t// in\n    tag_146:\n        /* \"contracts/nft.sol\":5918:5955  uint256 tokenId = _tokenIds.current() */\n      swap1\n      pop\n        /* \"contracts/nft.sol\":5966:6021  _safeMint(to, collaborator,collaboratorPercent,tokenId) */\n      tag_148\n        /* \"contracts/nft.sol\":5976:5978  to */\n      dup7\n        /* \"contracts/nft.sol\":5980:5992  collaborator */\n      dup7\n        /* \"contracts/nft.sol\":5993:6012  collaboratorPercent */\n      dup7\n        /* \"contracts/nft.sol\":6013:6020  tokenId */\n      dup5\n        /* \"contracts/nft.sol\":5966:5975  _safeMint */\n      tag_149\n        /* \"contracts/nft.sol\":5966:6021  _safeMint(to, collaborator,collaboratorPercent,tokenId) */\n      jump\t// in\n    tag_148:\n        /* \"contracts/nft.sol\":6032:6058  _setTokenURI(tokenId, uri) */\n      tag_150\n        /* \"contracts/nft.sol\":6045:6052  tokenId */\n      dup2\n        /* \"contracts/nft.sol\":6054:6057  uri */\n      dup5\n        /* \"contracts/nft.sol\":6032:6044  _setTokenURI */\n      tag_151\n        /* \"contracts/nft.sol\":6032:6058  _setTokenURI(tokenId, uri) */\n      jump\t// in\n    tag_150:\n        /* \"contracts/nft.sol\":6076:6083  tokenId */\n      dup1\n        /* \"contracts/nft.sol\":6069:6083  return tokenId */\n      swap2\n      pop\n      pop\n        /* \"contracts/nft.sol\":5739:6091  function mint(address to,address[] memory collaborator,uint256[] memory collaboratorPercent,string memory uri) public returns(uint256){\r... */\n      swap5\n      swap4\n      pop\n      pop\n      pop\n      pop\n      jump\t// out\n        /* \"contracts/nft.sol\":5213:5398  function safeTransferFrom(\r... */\n    tag_59:\n        /* \"contracts/nft.sol\":5351:5390  safeTransferFrom(from, to, tokenId, \"\") */\n      tag_153\n        /* \"contracts/nft.sol\":5368:5372  from */\n      dup4\n        /* \"contracts/nft.sol\":5374:5376  to */\n      dup4\n        /* \"contracts/nft.sol\":5378:5385  tokenId */\n      dup4\n        /* \"contracts/nft.sol\":5351:5390  safeTransferFrom(from, to, tokenId, \"\") */\n      mload(0x40)\n      dup1\n      0x20\n      add\n      0x40\n      mstore\n      dup1\n      0x00\n      dup2\n      mstore\n      pop\n        /* \"contracts/nft.sol\":5351:5367  safeTransferFrom */\n      tag_84\n        /* \"contracts/nft.sol\":5351:5390  safeTransferFrom(from, to, tokenId, \"\") */\n      jump\t// in\n    tag_153:\n        /* \"contracts/nft.sol\":5213:5398  function safeTransferFrom(\r... */\n      pop\n      pop\n      pop\n      jump\t// out\n        /* \"contracts/nft.sol\":2870:3062  function collaboratotOf(uint256 tokenId) public view virtual returns (address[] memory) {\r... */\n    tag_62:\n        /* \"contracts/nft.sol\":2940:2956  address[] memory */\n      0x60\n        /* \"contracts/nft.sol\":2969:2998  address[] memory collaborator */\n      0x00\n        /* \"contracts/nft.sol\":3001:3015  _collaborators */\n      0x04\n        /* \"contracts/nft.sol\":3001:3024  _collaborators[tokenId] */\n      0x00\n        /* \"contracts/nft.sol\":3016:3023  tokenId */\n      dup5\n        /* \"contracts/nft.sol\":3001:3024  _collaborators[tokenId] */\n      dup2\n      mstore\n      0x20\n      add\n      swap1\n      dup2\n      mstore\n      0x20\n      add\n      0x00\n      keccak256\n        /* \"contracts/nft.sol\":2969:3024  address[] memory collaborator = _collaborators[tokenId] */\n      dup1\n      sload\n      dup1\n      0x20\n      mul\n      0x20\n      add\n      mload(0x40)\n      swap1\n      dup2\n      add\n      0x40\n      mstore\n      dup1\n      swap3\n      swap2\n      swap1\n      dup2\n      dup2\n      mstore\n      0x20\n      add\n      dup3\n      dup1\n      sload\n      dup1\n      iszero\n      tag_155\n      jumpi\n      0x20\n      mul\n      dup3\n      add\n      swap2\n      swap1\n      0x00\n      mstore\n      keccak256(0x00, 0x20)\n      swap1\n    tag_156:\n      dup2\n      0x00\n      swap1\n      sload\n      swap1\n      0x0100\n      exp\n      swap1\n      div\n      0xffffffffffffffffffffffffffffffffffffffff\n      and\n      0xffffffffffffffffffffffffffffffffffffffff\n      and\n      dup2\n      mstore\n      0x20\n      add\n      swap1\n      0x01\n      add\n      swap1\n      dup1\n      dup4\n      gt\n      tag_156\n      jumpi\n    tag_155:\n      pop\n      pop\n      pop\n      pop\n      pop\n      swap1\n      pop\n        /* \"contracts/nft.sol\":3042:3054  collaborator */\n      dup1\n        /* \"contracts/nft.sol\":3035:3054  return collaborator */\n      swap2\n      pop\n      pop\n        /* \"contracts/nft.sol\":2870:3062  function collaboratotOf(uint256 tokenId) public view virtual returns (address[] memory) {\r... */\n      swap2\n      swap1\n      pop\n      jump\t// out\n        /* \"contracts/nft.sol\":2639:2861  function ownerOf(uint256 tokenId) public view virtual override returns (address) {\r... */\n    tag_67:\n        /* \"contracts/nft.sol\":2711:2718  address */\n      0x00\n        /* \"contracts/nft.sol\":2731:2744  address owner */\n      dup1\n        /* \"contracts/nft.sol\":2747:2754  _owners */\n      0x03\n        /* \"contracts/nft.sol\":2747:2763  _owners[tokenId] */\n      0x00\n        /* \"contracts/nft.sol\":2755:2762  tokenId */\n      dup5\n        /* \"contracts/nft.sol\":2747:2763  _owners[tokenId] */\n      dup2\n      mstore\n      0x20\n      add\n      swap1\n      dup2\n      mstore\n      0x20\n      add\n      0x00\n      keccak256\n      0x00\n      swap1\n      sload\n      swap1\n      0x0100\n      exp\n      swap1\n      div\n      0xffffffffffffffffffffffffffffffffffffffff\n      and\n        /* \"contracts/nft.sol\":2731:2763  address owner = _owners[tokenId] */\n      swap1\n      pop\n        /* \"contracts/nft.sol\":2799:2800  0 */\n      0x00\n        /* \"contracts/nft.sol\":2782:2801  owner != address(0) */\n      0xffffffffffffffffffffffffffffffffffffffff\n      and\n        /* \"contracts/nft.sol\":2782:2787  owner */\n      dup2\n        /* \"contracts/nft.sol\":2782:2801  owner != address(0) */\n      0xffffffffffffffffffffffffffffffffffffffff\n      and\n      eq\n      iszero\n        /* \"contracts/nft.sol\":2774:2830  require(owner != address(0), \"ERC721: invalid token ID\") */\n      tag_158\n      jumpi\n      mload(0x40)\n      0x08c379a000000000000000000000000000000000000000000000000000000000\n      dup2\n      mstore\n      0x04\n      add\n      tag_159\n      swap1\n      tag_160\n      jump\t// in\n    tag_159:\n      mload(0x40)\n      dup1\n      swap2\n      sub\n      swap1\n      revert\n    tag_158:\n        /* \"contracts/nft.sol\":2848:2853  owner */\n      dup1\n        /* \"contracts/nft.sol\":2841:2853  return owner */\n      swap2\n      pop\n      pop\n        /* \"contracts/nft.sol\":2639:2861  function ownerOf(uint256 tokenId) public view virtual override returns (address) {\r... */\n      swap2\n      swap1\n      pop\n      jump\t// out\n        /* \"contracts/nft.sol\":2422:2629  function balanceOf(address owner) public view virtual override returns (uint256) {\r... */\n    tag_72:\n        /* \"contracts/nft.sol\":2494:2501  uint256 */\n      0x00\n        /* \"contracts/nft.sol\":2539:2540  0 */\n      dup1\n        /* \"contracts/nft.sol\":2522:2541  owner != address(0) */\n      0xffffffffffffffffffffffffffffffffffffffff\n      and\n        /* \"contracts/nft.sol\":2522:2527  owner */\n      dup3\n        /* \"contracts/nft.sol\":2522:2541  owner != address(0) */\n      0xffffffffffffffffffffffffffffffffffffffff\n      and\n      eq\n      iszero\n        /* \"contracts/nft.sol\":2514:2587  require(owner != address(0), \"ERC721: address zero is not a valid owner\") */\n      tag_162\n      jumpi\n      mload(0x40)\n      0x08c379a000000000000000000000000000000000000000000000000000000000\n      dup2\n      mstore\n      0x04\n      add\n      tag_163\n      swap1\n      tag_164\n      jump\t// in\n    tag_163:\n      mload(0x40)\n      dup1\n      swap2\n      sub\n      swap1\n      revert\n    tag_162:\n        /* \"contracts/nft.sol\":2605:2614  _balances */\n      0x06\n        /* \"contracts/nft.sol\":2605:2621  _balances[owner] */\n      0x00\n        /* \"contracts/nft.sol\":2615:2620  owner */\n      dup4\n        /* \"contracts/nft.sol\":2605:2621  _balances[owner] */\n      0xffffffffffffffffffffffffffffffffffffffff\n      and\n      0xffffffffffffffffffffffffffffffffffffffff\n      and\n      dup2\n      mstore\n      0x20\n      add\n      swap1\n      dup2\n      mstore\n      0x20\n      add\n      0x00\n      keccak256\n      sload\n        /* \"contracts/nft.sol\":2598:2621  return _balances[owner] */\n      swap1\n      pop\n        /* \"contracts/nft.sol\":2422:2629  function balanceOf(address owner) public view virtual override returns (uint256) {\r... */\n      swap2\n      swap1\n      pop\n      jump\t// out\n        /* \"contracts/nft.sol\":3419:3523  function symbol() public view virtual override returns (string memory) {\r... */\n    tag_75:\n        /* \"contracts/nft.sol\":3475:3488  string memory */\n      0x60\n        /* \"contracts/nft.sol\":3508:3515  _symbol */\n      0x02\n        /* \"contracts/nft.sol\":3501:3515  return _symbol */\n      dup1\n      sload\n      tag_166\n      swap1\n      tag_106\n      jump\t// in\n    tag_166:\n      dup1\n      0x1f\n      add\n      0x20\n      dup1\n      swap2\n      div\n      mul\n      0x20\n      add\n      mload(0x40)\n      swap1\n      dup2\n      add\n      0x40\n      mstore\n      dup1\n      swap3\n      swap2\n      swap1\n      dup2\n      dup2\n      mstore\n      0x20\n      add\n      dup3\n      dup1\n      sload\n      tag_167\n      swap1\n      tag_106\n      jump\t// in\n    tag_167:\n      dup1\n      iszero\n      tag_168\n      jumpi\n      dup1\n      0x1f\n      lt\n      tag_169\n      jumpi\n      0x0100\n      dup1\n      dup4\n      sload\n      div\n      mul\n      dup4\n      mstore\n      swap2\n      0x20\n      add\n      swap2\n      jump(tag_168)\n    tag_169:\n      dup3\n      add\n      swap2\n      swap1\n      0x00\n      mstore\n      keccak256(0x00, 0x20)\n      swap1\n    tag_170:\n      dup2\n      sload\n      dup2\n      mstore\n      swap1\n      0x01\n      add\n      swap1\n      0x20\n      add\n      dup1\n      dup4\n      gt\n      tag_170\n      jumpi\n      dup3\n      swap1\n      sub\n      0x1f\n      and\n      dup3\n      add\n      swap2\n    tag_168:\n      pop\n      pop\n      pop\n      pop\n      pop\n      swap1\n      pop\n        /* \"contracts/nft.sol\":3419:3523  function symbol() public view virtual override returns (string memory) {\r... */\n      swap1\n      jump\t// out\n        /* \"contracts/nft.sol\":4582:4737  function setApprovalForAll(address operator, bool approved) public virtual override {\r... */\n    tag_80:\n        /* \"contracts/nft.sol\":4677:4729  _setApprovalForAll(_msgSender(), operator, approved) */\n      tag_172\n        /* \"contracts/nft.sol\":4696:4708  _msgSender() */\n      tag_173\n        /* \"contracts/nft.sol\":4696:4706  _msgSender */\n      tag_120\n        /* \"contracts/nft.sol\":4696:4708  _msgSender() */\n      jump\t// in\n    tag_173:\n        /* \"contracts/nft.sol\":4710:4718  operator */\n      dup4\n        /* \"contracts/nft.sol\":4720:4728  approved */\n      dup4\n        /* \"contracts/nft.sol\":4677:4695  _setApprovalForAll */\n      tag_174\n        /* \"contracts/nft.sol\":4677:4729  _setApprovalForAll(_msgSender(), operator, approved) */\n      jump\t// in\n    tag_172:\n        /* \"contracts/nft.sol\":4582:4737  function setApprovalForAll(address operator, bool approved) public virtual override {\r... */\n      pop\n      pop\n      jump\t// out\n        /* \"contracts/nft.sol\":5408:5730  function safeTransferFrom(\r... */\n    tag_84:\n        /* \"contracts/nft.sol\":5582:5623  _isApprovedOrOwner(_msgSender(), tokenId) */\n      tag_176\n        /* \"contracts/nft.sol\":5601:5613  _msgSender() */\n      tag_177\n        /* \"contracts/nft.sol\":5601:5611  _msgSender */\n      tag_120\n        /* \"contracts/nft.sol\":5601:5613  _msgSender() */\n      jump\t// in\n    tag_177:\n        /* \"contracts/nft.sol\":5615:5622  tokenId */\n      dup4\n        /* \"contracts/nft.sol\":5582:5600  _isApprovedOrOwner */\n      tag_137\n        /* \"contracts/nft.sol\":5582:5623  _isApprovedOrOwner(_msgSender(), tokenId) */\n      jump\t// in\n    tag_176:\n        /* \"contracts/nft.sol\":5574:5673  require(_isApprovedOrOwner(_msgSender(), tokenId), \"ERC721: caller is not token owner or approved\") */\n      tag_178\n      jumpi\n      mload(0x40)\n      0x08c379a000000000000000000000000000000000000000000000000000000000\n      dup2\n      mstore\n      0x04\n      add\n      tag_179\n      swap1\n      tag_140\n      jump\t// in\n    tag_179:\n      mload(0x40)\n      dup1\n      swap2\n      sub\n      swap1\n      revert\n    tag_178:\n        /* \"contracts/nft.sol\":5684:5722  _safeTransfer(from, to, tokenId, data) */\n      tag_180\n        /* \"contracts/nft.sol\":5698:5702  from */\n      dup5\n        /* \"contracts/nft.sol\":5704:5706  to */\n      dup5\n        /* \"contracts/nft.sol\":5708:5715  tokenId */\n      dup5\n        /* \"contracts/nft.sol\":5717:5721  data */\n      dup5\n        /* \"contracts/nft.sol\":5684:5697  _safeTransfer */\n      tag_181\n        /* \"contracts/nft.sol\":5684:5722  _safeTransfer(from, to, tokenId, data) */\n      jump\t// in\n    tag_180:\n        /* \"contracts/nft.sol\":5408:5730  function safeTransferFrom(\r... */\n      pop\n      pop\n      pop\n      pop\n      jump\t// out\n        /* \"contracts/nft.sol\":3531:3865  function tokenURI(uint256 tokenId) public view virtual override returns (string memory) {\r... */\n    tag_87:\n        /* \"contracts/nft.sol\":3604:3617  string memory */\n      0x60\n        /* \"contracts/nft.sol\":3638:3654  _exists(tokenId) */\n      tag_183\n        /* \"contracts/nft.sol\":3646:3653  tokenId */\n      dup3\n        /* \"contracts/nft.sol\":3638:3645  _exists */\n      tag_184\n        /* \"contracts/nft.sol\":3638:3654  _exists(tokenId) */\n      jump\t// in\n    tag_183:\n        /* \"contracts/nft.sol\":3630:3706  require(_exists(tokenId), \"ERC721Metadata: URI query for nonexistent token\") */\n      tag_185\n      jumpi\n      mload(0x40)\n      0x08c379a000000000000000000000000000000000000000000000000000000000\n      dup2\n      mstore\n      0x04\n      add\n      tag_186\n      swap1\n      tag_187\n      jump\t// in\n    tag_186:\n      mload(0x40)\n      dup1\n      swap2\n      sub\n      swap1\n      revert\n    tag_185:\n        /* \"contracts/nft.sol\":3719:3740  string memory baseURI */\n      0x00\n        /* \"contracts/nft.sol\":3743:3753  _baseURI() */\n      tag_188\n        /* \"contracts/nft.sol\":3743:3751  _baseURI */\n      tag_189\n        /* \"contracts/nft.sol\":3743:3753  _baseURI() */\n      jump\t// in\n    tag_188:\n        /* \"contracts/nft.sol\":3719:3753  string memory baseURI = _baseURI() */\n      swap1\n      pop\n        /* \"contracts/nft.sol\":3795:3796  0 */\n      0x00\n        /* \"contracts/nft.sol\":3777:3784  baseURI */\n      dup2\n        /* \"contracts/nft.sol\":3771:3792  bytes(baseURI).length */\n      mload\n        /* \"contracts/nft.sol\":3771:3796  bytes(baseURI).length > 0 */\n      gt\n        /* \"contracts/nft.sol\":3771:3857  bytes(baseURI).length > 0 ? string(abi.encodePacked(baseURI, tokenId.toString())) : \"\" */\n      tag_190\n      jumpi\n      mload(0x40)\n      dup1\n      0x20\n      add\n      0x40\n      mstore\n      dup1\n      0x00\n      dup2\n      mstore\n      pop\n      jump(tag_191)\n    tag_190:\n        /* \"contracts/nft.sol\":3823:3830  baseURI */\n      dup1\n        /* \"contracts/nft.sol\":3832:3850  tokenId.toString() */\n      tag_192\n        /* \"contracts/nft.sol\":3832:3839  tokenId */\n      dup5\n        /* \"contracts/nft.sol\":3832:3848  tokenId.toString */\n      tag_193\n        /* \"contracts/nft.sol\":3832:3850  tokenId.toString() */\n      jump\t// in\n    tag_192:\n        /* \"contracts/nft.sol\":3806:3851  abi.encodePacked(baseURI, tokenId.toString()) */\n      add(0x20, mload(0x40))\n      tag_194\n      swap3\n      swap2\n      swap1\n      tag_195\n      jump\t// in\n    tag_194:\n      mload(0x40)\n      0x20\n      dup2\n      dup4\n      sub\n      sub\n      dup2\n      mstore\n      swap1\n      0x40\n      mstore\n        /* \"contracts/nft.sol\":3771:3857  bytes(baseURI).length > 0 ? string(abi.encodePacked(baseURI, tokenId.toString())) : \"\" */\n    tag_191:\n        /* \"contracts/nft.sol\":3764:3857  return bytes(baseURI).length > 0 ? string(abi.encodePacked(baseURI, tokenId.toString())) : \"\" */\n      swap2\n      pop\n      pop\n        /* \"contracts/nft.sol\":3531:3865  function tokenURI(uint256 tokenId) public view virtual override returns (string memory) {\r... */\n      swap2\n      swap1\n      pop\n      jump\t// out\n        /* \"contracts/nft.sol\":4747:4911  function isApprovedForAll(address owner, address operator) public view virtual override returns (bool) {\r... */\n    tag_92:\n        /* \"contracts/nft.sol\":4844:4848  bool */\n      0x00\n        /* \"contracts/nft.sol\":4868:4886  _operatorApprovals */\n      0x08\n        /* \"contracts/nft.sol\":4868:4893  _operatorApprovals[owner] */\n      0x00\n        /* \"contracts/nft.sol\":4887:4892  owner */\n      dup5\n        /* \"contracts/nft.sol\":4868:4893  _operatorApprovals[owner] */\n      0xffffffffffffffffffffffffffffffffffffffff\n      and\n      0xffffffffffffffffffffffffffffffffffffffff\n      and\n      dup2\n      mstore\n      0x20\n      add\n      swap1\n      dup2\n      mstore\n      0x20\n      add\n      0x00\n      keccak256\n        /* \"contracts/nft.sol\":4868:4903  _operatorApprovals[owner][operator] */\n      0x00\n        /* \"contracts/nft.sol\":4894:4902  operator */\n      dup4\n        /* \"contracts/nft.sol\":4868:4903  _operatorApprovals[owner][operator] */\n      0xffffffffffffffffffffffffffffffffffffffff\n      and\n      0xffffffffffffffffffffffffffffffffffffffff\n      and\n      dup2\n      mstore\n      0x20\n      add\n      swap1\n      dup2\n      mstore\n      0x20\n      add\n      0x00\n      keccak256\n      0x00\n      swap1\n      sload\n      swap1\n      0x0100\n      exp\n      swap1\n      div\n      0xff\n      and\n        /* \"contracts/nft.sol\":4861:4903  return _operatorApprovals[owner][operator] */\n      swap1\n      pop\n        /* \"contracts/nft.sol\":4747:4911  function isApprovedForAll(address owner, address operator) public view virtual override returns (bool) {\r... */\n      swap3\n      swap2\n      pop\n      pop\n      jump\t// out\n        /* \"contracts/nft.sol\":3070:3302  function collaboratotPercentageOf(uint256 tokenId) public view virtual returns (uint256[] memory) {\r... */\n    tag_96:\n        /* \"contracts/nft.sol\":3150:3166  uint256[] memory */\n      0x60\n        /* \"contracts/nft.sol\":3179:3218  uint256[] memory collaboratorPercentage */\n      0x00\n        /* \"contracts/nft.sol\":3221:3245  _collaboratorsPercentage */\n      0x05\n        /* \"contracts/nft.sol\":3221:3254  _collaboratorsPercentage[tokenId] */\n      0x00\n        /* \"contracts/nft.sol\":3246:3253  tokenId */\n      dup5\n        /* \"contracts/nft.sol\":3221:3254  _collaboratorsPercentage[tokenId] */\n      dup2\n      mstore\n      0x20\n      add\n      swap1\n      dup2\n      mstore\n      0x20\n      add\n      0x00\n      keccak256\n        /* \"contracts/nft.sol\":3179:3254  uint256[] memory collaboratorPercentage = _collaboratorsPercentage[tokenId] */\n      dup1\n      sload\n      dup1\n      0x20\n      mul\n      0x20\n      add\n      mload(0x40)\n      swap1\n      dup2\n      add\n      0x40\n      mstore\n      dup1\n      swap3\n      swap2\n      swap1\n      dup2\n      dup2\n      mstore\n      0x20\n      add\n      dup3\n      dup1\n      sload\n      dup1\n      iszero\n      tag_198\n      jumpi\n      0x20\n      mul\n      dup3\n      add\n      swap2\n      swap1\n      0x00\n      mstore\n      keccak256(0x00, 0x20)\n      swap1\n    tag_199:\n      dup2\n      sload\n      dup2\n      mstore\n      0x20\n      add\n      swap1\n      0x01\n      add\n      swap1\n      dup1\n      dup4\n      gt\n      tag_199\n      jumpi\n    tag_198:\n      pop\n      pop\n      pop\n      pop\n      pop\n      swap1\n      pop\n        /* \"contracts/nft.sol\":3272:3294  collaboratorPercentage */\n      dup1\n        /* \"contracts/nft.sol\":3265:3294  return collaboratorPercentage */\n      swap2\n      pop\n      pop\n        /* \"contracts/nft.sol\":3070:3302  function collaboratotPercentageOf(uint256 tokenId) public view virtual returns (uint256[] memory) {\r... */\n      swap2\n      swap1\n      pop\n      jump\t// out\n        /* \"@openzeppelin/contracts@4.6.0/utils/introspection/ERC165.sol\":829:984  function supportsInterface(bytes4 interfaceId) public view virtual override returns (bool) {... */\n    tag_103:\n        /* \"@openzeppelin/contracts@4.6.0/utils/introspection/ERC165.sol\":914:918  bool */\n      0x00\n        /* \"@openzeppelin/contracts@4.6.0/utils/introspection/ERC165.sol\":952:977  type(IERC165).interfaceId */\n      0x01ffc9a700000000000000000000000000000000000000000000000000000000\n        /* \"@openzeppelin/contracts@4.6.0/utils/introspection/ERC165.sol\":937:977  interfaceId == type(IERC165).interfaceId */\n      not(0xffffffffffffffffffffffffffffffffffffffffffffffffffffffff)\n      and\n        /* \"@openzeppelin/contracts@4.6.0/utils/introspection/ERC165.sol\":937:948  interfaceId */\n      dup3\n        /* \"@openzeppelin/contracts@4.6.0/utils/introspection/ERC165.sol\":937:977  interfaceId == type(IERC165).interfaceId */\n      not(0xffffffffffffffffffffffffffffffffffffffffffffffffffffffff)\n      and\n      eq\n        /* \"@openzeppelin/contracts@4.6.0/utils/introspection/ERC165.sol\":930:977  return interfaceId == type(IERC165).interfaceId */\n      swap1\n      pop\n        /* \"@openzeppelin/contracts@4.6.0/utils/introspection/ERC165.sol\":829:984  function supportsInterface(bytes4 interfaceId) public view virtual override returns (bool) {... */\n      swap2\n      swap1\n      pop\n      jump\t// out\n        /* \"contracts/nft.sol\":10208:10343  function _requireMinted(uint256 tokenId) internal view virtual {\r... */\n    tag_113:\n        /* \"contracts/nft.sol\":10290:10306  _exists(tokenId) */\n      tag_202\n        /* \"contracts/nft.sol\":10298:10305  tokenId */\n      dup2\n        /* \"contracts/nft.sol\":10290:10297  _exists */\n      tag_184\n        /* \"contracts/nft.sol\":10290:10306  _exists(tokenId) */\n      jump\t// in\n    tag_202:\n        /* \"contracts/nft.sol\":10282:10335  require(_exists(tokenId), \"ERC721: invalid token ID\") */\n      tag_203\n      jumpi\n      mload(0x40)\n      0x08c379a000000000000000000000000000000000000000000000000000000000\n      dup2\n      mstore\n      0x04\n      add\n      tag_204\n      swap1\n      tag_160\n      jump\t// in\n    tag_204:\n      mload(0x40)\n      dup1\n      swap2\n      sub\n      swap1\n      revert\n    tag_203:\n        /* \"contracts/nft.sol\":10208:10343  function _requireMinted(uint256 tokenId) internal view virtual {\r... */\n      pop\n      jump\t// out\n        /* \"@openzeppelin/contracts@4.6.0/utils/Context.sol\":640:736  function _msgSender() internal view virtual returns (address) {... */\n    tag_120:\n        /* \"@openzeppelin/contracts@4.6.0/utils/Context.sol\":693:700  address */\n      0x00\n        /* \"@openzeppelin/contracts@4.6.0/utils/Context.sol\":719:729  msg.sender */\n      caller\n        /* \"@openzeppelin/contracts@4.6.0/utils/Context.sol\":712:729  return msg.sender */\n      swap1\n      pop\n        /* \"@openzeppelin/contracts@4.6.0/utils/Context.sol\":640:736  function _msgSender() internal view virtual returns (address) {... */\n      swap1\n      jump\t// out\n        /* \"contracts/nft.sol\":9706:9877  function _approve(address to, uint256 tokenId) internal virtual {\r... */\n    tag_128:\n        /* \"contracts/nft.sol\":9808:9810  to */\n      dup2\n        /* \"contracts/nft.sol\":9781:9796  _tokenApprovals */\n      0x07\n        /* \"contracts/nft.sol\":9781:9805  _tokenApprovals[tokenId] */\n      0x00\n        /* \"contracts/nft.sol\":9797:9804  tokenId */\n      dup4\n        /* \"contracts/nft.sol\":9781:9805  _tokenApprovals[tokenId] */\n      dup2\n      mstore\n      0x20\n      add\n      swap1\n      dup2\n      mstore\n      0x20\n      add\n      0x00\n      keccak256\n      0x00\n        /* \"contracts/nft.sol\":9781:9810  _tokenApprovals[tokenId] = to */\n      0x0100\n      exp\n      dup2\n      sload\n      dup2\n      0xffffffffffffffffffffffffffffffffffffffff\n      mul\n      not\n      and\n      swap1\n      dup4\n      0xffffffffffffffffffffffffffffffffffffffff\n      and\n      mul\n      or\n      swap1\n      sstore\n      pop\n        /* \"contracts/nft.sol\":9861:9868  tokenId */\n      dup1\n        /* \"contracts/nft.sol\":9857:9859  to */\n      dup3\n        /* \"contracts/nft.sol\":9826:9869  Approval(nft.ownerOf(tokenId), to, tokenId) */\n      0xffffffffffffffffffffffffffffffffffffffff\n      and\n        /* \"contracts/nft.sol\":9835:9855  nft.ownerOf(tokenId) */\n      tag_207\n        /* \"contracts/nft.sol\":9847:9854  tokenId */\n      dup4\n        /* \"contracts/nft.sol\":9835:9846  nft.ownerOf */\n      tag_67\n        /* \"contracts/nft.sol\":9835:9855  nft.ownerOf(tokenId) */\n      jump\t// in\n    tag_207:\n        /* \"contracts/nft.sol\":9826:9869  Approval(nft.ownerOf(tokenId), to, tokenId) */\n      0xffffffffffffffffffffffffffffffffffffffff\n      and\n      0x8c5be1e5ebec7d5bd14f71427d1e84f3dd0314c0f7b2291e5b200ac8c7c3b925\n      mload(0x40)\n      mload(0x40)\n      dup1\n      swap2\n      sub\n      swap1\n      log4\n        /* \"contracts/nft.sol\":9706:9877  function _approve(address to, uint256 tokenId) internal virtual {\r... */\n      pop\n      pop\n      jump\t// out\n        /* \"contracts/nft.sol\":1784:1991  function _tokenURI(uint256 tokenId) internal view returns (string memory) { \r... */\n    tag_131:\n        /* \"contracts/nft.sol\":1843:1856  string memory */\n      0x60\n        /* \"contracts/nft.sol\":1878:1894  _exists(tokenId) */\n      tag_209\n        /* \"contracts/nft.sol\":1886:1893  tokenId */\n      dup3\n        /* \"contracts/nft.sol\":1878:1885  _exists */\n      tag_184\n        /* \"contracts/nft.sol\":1878:1894  _exists(tokenId) */\n      jump\t// in\n    tag_209:\n        /* \"contracts/nft.sol\":1870:1946  require(_exists(tokenId), \"ERC721Metadata: URI query for nonexistent token\") */\n      tag_210\n      jumpi\n      mload(0x40)\n      0x08c379a000000000000000000000000000000000000000000000000000000000\n      dup2\n      mstore\n      0x04\n      add\n      tag_211\n      swap1\n      tag_187\n      jump\t// in\n    tag_211:\n      mload(0x40)\n      dup1\n      swap2\n      sub\n      swap1\n      revert\n    tag_210:\n        /* \"contracts/nft.sol\":1964:1974  _tokenURIs */\n      0x09\n        /* \"contracts/nft.sol\":1964:1983  _tokenURIs[tokenId] */\n      0x00\n        /* \"contracts/nft.sol\":1975:1982  tokenId */\n      dup4\n        /* \"contracts/nft.sol\":1964:1983  _tokenURIs[tokenId] */\n      dup2\n      mstore\n      0x20\n      add\n      swap1\n      dup2\n      mstore\n      0x20\n      add\n      0x00\n      keccak256\n        /* \"contracts/nft.sol\":1957:1983  return _tokenURIs[tokenId] */\n      dup1\n      sload\n      tag_212\n      swap1\n      tag_106\n      jump\t// in\n    tag_212:\n      dup1\n      0x1f\n      add\n      0x20\n      dup1\n      swap2\n      div\n      mul\n      0x20\n      add\n      mload(0x40)\n      swap1\n      dup2\n      add\n      0x40\n      mstore\n      dup1\n      swap3\n      swap2\n      swap1\n      dup2\n      dup2\n      mstore\n      0x20\n      add\n      dup3\n      dup1\n      sload\n      tag_213\n      swap1\n      tag_106\n      jump\t// in\n    tag_213:\n      dup1\n      iszero\n      tag_214\n      jumpi\n      dup1\n      0x1f\n      lt\n      tag_215\n      jumpi\n      0x0100\n      dup1\n      dup4\n      sload\n      div\n      mul\n      dup4\n      mstore\n      swap2\n      0x20\n      add\n      swap2\n      jump(tag_214)\n    tag_215:\n      dup3\n      add\n      swap2\n      swap1\n      0x00\n      mstore\n      keccak256(0x00, 0x20)\n      swap1\n    tag_216:\n      dup2\n      sload\n      dup2\n      mstore\n      swap1\n      0x01\n      add\n      swap1\n      0x20\n      add\n      dup1\n      dup4\n      gt\n      tag_216\n      jumpi\n      dup3\n      swap1\n      sub\n      0x1f\n      and\n      dup3\n      add\n      swap2\n    tag_214:\n      pop\n      pop\n      pop\n      pop\n      pop\n      swap1\n      pop\n        /* \"contracts/nft.sol\":1784:1991  function _tokenURI(uint256 tokenId) internal view returns (string memory) { \r... */\n      swap2\n      swap1\n      pop\n      jump\t// out\n        /* \"contracts/nft.sol\":6557:6818  function _isApprovedOrOwner(address spender, uint256 tokenId) internal view virtual returns (bool) {\r... */\n    tag_137:\n        /* \"contracts/nft.sol\":6650:6654  bool */\n      0x00\n        /* \"contracts/nft.sol\":6667:6680  address owner */\n      dup1\n        /* \"contracts/nft.sol\":6683:6703  nft.ownerOf(tokenId) */\n      tag_218\n        /* \"contracts/nft.sol\":6695:6702  tokenId */\n      dup4\n        /* \"contracts/nft.sol\":6683:6694  nft.ownerOf */\n      tag_67\n        /* \"contracts/nft.sol\":6683:6703  nft.ownerOf(tokenId) */\n      jump\t// in\n    tag_218:\n        /* \"contracts/nft.sol\":6667:6703  address owner = nft.ownerOf(tokenId) */\n      swap1\n      pop\n        /* \"contracts/nft.sol\":6733:6738  owner */\n      dup1\n        /* \"contracts/nft.sol\":6722:6738  spender == owner */\n      0xffffffffffffffffffffffffffffffffffffffff\n      and\n        /* \"contracts/nft.sol\":6722:6729  spender */\n      dup5\n        /* \"contracts/nft.sol\":6722:6738  spender == owner */\n      0xffffffffffffffffffffffffffffffffffffffff\n      and\n      eq\n        /* \"contracts/nft.sol\":6722:6774  spender == owner || isApprovedForAll(owner, spender) */\n      dup1\n      tag_219\n      jumpi\n      pop\n        /* \"contracts/nft.sol\":6742:6774  isApprovedForAll(owner, spender) */\n      tag_220\n        /* \"contracts/nft.sol\":6759:6764  owner */\n      dup2\n        /* \"contracts/nft.sol\":6766:6773  spender */\n      dup6\n        /* \"contracts/nft.sol\":6742:6758  isApprovedForAll */\n      tag_92\n        /* \"contracts/nft.sol\":6742:6774  isApprovedForAll(owner, spender) */\n      jump\t// in\n    tag_220:\n        /* \"contracts/nft.sol\":6722:6774  spender == owner || isApprovedForAll(owner, spender) */\n    tag_219:\n        /* \"contracts/nft.sol\":6722:6809  spender == owner || isApprovedForAll(owner, spender) || getApproved(tokenId) == spender */\n      dup1\n      tag_221\n      jumpi\n      pop\n        /* \"contracts/nft.sol\":6802:6809  spender */\n      dup4\n        /* \"contracts/nft.sol\":6778:6809  getApproved(tokenId) == spender */\n      0xffffffffffffffffffffffffffffffffffffffff\n      and\n        /* \"contracts/nft.sol\":6778:6798  getApproved(tokenId) */\n      tag_222\n        /* \"contracts/nft.sol\":6790:6797  tokenId */\n      dup5\n        /* \"contracts/nft.sol\":6778:6789  getApproved */\n      tag_36\n        /* \"contracts/nft.sol\":6778:6798  getApproved(tokenId) */\n      jump\t// in\n    tag_222:\n        /* \"contracts/nft.sol\":6778:6809  getApproved(tokenId) == spender */\n      0xffffffffffffffffffffffffffffffffffffffff\n      and\n      eq\n        /* \"contracts/nft.sol\":6722:6809  spender == owner || isApprovedForAll(owner, spender) || getApproved(tokenId) == spender */\n    tag_221:\n        /* \"contracts/nft.sol\":6714:6810  return (spender == owner || isApprovedForAll(owner, spender) || getApproved(tokenId) == spender) */\n      swap2\n      pop\n      pop\n        /* \"contracts/nft.sol\":6557:6818  function _isApprovedOrOwner(address spender, uint256 tokenId) internal view virtual returns (bool) {\r... */\n      swap3\n      swap2\n      pop\n      pop\n      jump\t// out\n        /* \"contracts/nft.sol\":8939:9696  function _transfer(\r... */\n    tag_142:\n        /* \"contracts/nft.sol\":9095:9099  from */\n      dup3\n        /* \"contracts/nft.sol\":9071:9099  nft.ownerOf(tokenId) == from */\n      0xffffffffffffffffffffffffffffffffffffffff\n      and\n        /* \"contracts/nft.sol\":9071:9091  nft.ownerOf(tokenId) */\n      tag_224\n        /* \"contracts/nft.sol\":9083:9090  tokenId */\n      dup3\n        /* \"contracts/nft.sol\":9071:9082  nft.ownerOf */\n      tag_67\n        /* \"contracts/nft.sol\":9071:9091  nft.ownerOf(tokenId) */\n      jump\t// in\n    tag_224:\n        /* \"contracts/nft.sol\":9071:9099  nft.ownerOf(tokenId) == from */\n      0xffffffffffffffffffffffffffffffffffffffff\n      and\n      eq\n        /* \"contracts/nft.sol\":9063:9141  require(nft.ownerOf(tokenId) == from, \"ERC721: transfer from incorrect owner\") */\n      tag_225\n      jumpi\n      mload(0x40)\n      0x08c379a000000000000000000000000000000000000000000000000000000000\n      dup2\n      mstore\n      0x04\n      add\n      tag_226\n      swap1\n      tag_227\n      jump\t// in\n    tag_226:\n      mload(0x40)\n      dup1\n      swap2\n      sub\n      swap1\n      revert\n    tag_225:\n        /* \"contracts/nft.sol\":9174:9175  0 */\n      0x00\n        /* \"contracts/nft.sol\":9160:9176  to != address(0) */\n      0xffffffffffffffffffffffffffffffffffffffff\n      and\n        /* \"contracts/nft.sol\":9160:9162  to */\n      dup3\n        /* \"contracts/nft.sol\":9160:9176  to != address(0) */\n      0xffffffffffffffffffffffffffffffffffffffff\n      and\n      eq\n      iszero\n        /* \"contracts/nft.sol\":9152:9217  require(to != address(0), \"ERC721: transfer to the zero address\") */\n      tag_228\n      jumpi\n      mload(0x40)\n      0x08c379a000000000000000000000000000000000000000000000000000000000\n      dup2\n      mstore\n      0x04\n      add\n      tag_229\n      swap1\n      tag_230\n      jump\t// in\n    tag_229:\n      mload(0x40)\n      dup1\n      swap2\n      sub\n      swap1\n      revert\n    tag_228:\n        /* \"contracts/nft.sol\":9230:9269  _beforeTokenTransfer(from, to, tokenId) */\n      tag_231\n        /* \"contracts/nft.sol\":9251:9255  from */\n      dup4\n        /* \"contracts/nft.sol\":9257:9259  to */\n      dup4\n        /* \"contracts/nft.sol\":9261:9268  tokenId */\n      dup4\n        /* \"contracts/nft.sol\":9230:9250  _beforeTokenTransfer */\n      tag_232\n        /* \"contracts/nft.sol\":9230:9269  _beforeTokenTransfer(from, to, tokenId) */\n      jump\t// in\n    tag_231:\n        /* \"contracts/nft.sol\":9314:9318  from */\n      dup3\n        /* \"contracts/nft.sol\":9290:9318  nft.ownerOf(tokenId) == from */\n      0xffffffffffffffffffffffffffffffffffffffff\n      and\n        /* \"contracts/nft.sol\":9290:9310  nft.ownerOf(tokenId) */\n      tag_233\n        /* \"contracts/nft.sol\":9302:9309  tokenId */\n      dup3\n        /* \"contracts/nft.sol\":9290:9301  nft.ownerOf */\n      tag_67\n        /* \"contracts/nft.sol\":9290:9310  nft.ownerOf(tokenId) */\n      jump\t// in\n    tag_233:\n        /* \"contracts/nft.sol\":9290:9318  nft.ownerOf(tokenId) == from */\n      0xffffffffffffffffffffffffffffffffffffffff\n      and\n      eq\n        /* \"contracts/nft.sol\":9282:9360  require(nft.ownerOf(tokenId) == from, \"ERC721: transfer from incorrect owner\") */\n      tag_234\n      jumpi\n      mload(0x40)\n      0x08c379a000000000000000000000000000000000000000000000000000000000\n      dup2\n      mstore\n      0x04\n      add\n      tag_235\n      swap1\n      tag_227\n      jump\t// in\n    tag_235:\n      mload(0x40)\n      dup1\n      swap2\n      sub\n      swap1\n      revert\n    tag_234:\n        /* \"contracts/nft.sol\":9432:9447  _tokenApprovals */\n      0x07\n        /* \"contracts/nft.sol\":9432:9456  _tokenApprovals[tokenId] */\n      0x00\n        /* \"contracts/nft.sol\":9448:9455  tokenId */\n      dup3\n        /* \"contracts/nft.sol\":9432:9456  _tokenApprovals[tokenId] */\n      dup2\n      mstore\n      0x20\n      add\n      swap1\n      dup2\n      mstore\n      0x20\n      add\n      0x00\n      keccak256\n      0x00\n        /* \"contracts/nft.sol\":9425:9456  delete _tokenApprovals[tokenId] */\n      0x0100\n      exp\n      dup2\n      sload\n      swap1\n      0xffffffffffffffffffffffffffffffffffffffff\n      mul\n      not\n      and\n      swap1\n      sstore\n        /* \"contracts/nft.sol\":9515:9516  1 */\n      0x01\n        /* \"contracts/nft.sol\":9496:9505  _balances */\n      0x06\n        /* \"contracts/nft.sol\":9496:9511  _balances[from] */\n      0x00\n        /* \"contracts/nft.sol\":9506:9510  from */\n      dup6\n        /* \"contracts/nft.sol\":9496:9511  _balances[from] */\n      0xffffffffffffffffffffffffffffffffffffffff\n      and\n      0xffffffffffffffffffffffffffffffffffffffff\n      and\n      dup2\n      mstore\n      0x20\n      add\n      swap1\n      dup2\n      mstore\n      0x20\n      add\n      0x00\n      keccak256\n      0x00\n        /* \"contracts/nft.sol\":9496:9516  _balances[from] -= 1 */\n      dup3\n      dup3\n      sload\n      sub\n      swap3\n      pop\n      pop\n      dup2\n      swap1\n      sstore\n      pop\n        /* \"contracts/nft.sol\":9548:9549  1 */\n      0x01\n        /* \"contracts/nft.sol\":9531:9540  _balances */\n      0x06\n        /* \"contracts/nft.sol\":9531:9544  _balances[to] */\n      0x00\n        /* \"contracts/nft.sol\":9541:9543  to */\n      dup5\n        /* \"contracts/nft.sol\":9531:9544  _balances[to] */\n      0xffffffffffffffffffffffffffffffffffffffff\n      and\n      0xffffffffffffffffffffffffffffffffffffffff\n      and\n      dup2\n      mstore\n      0x20\n      add\n      swap1\n      dup2\n      mstore\n      0x20\n      add\n      0x00\n      keccak256\n      0x00\n        /* \"contracts/nft.sol\":9531:9549  _balances[to] += 1 */\n      dup3\n      dup3\n      sload\n      add\n      swap3\n      pop\n      pop\n      dup2\n      swap1\n      sstore\n      pop\n        /* \"contracts/nft.sol\":9590:9592  to */\n      dup2\n        /* \"contracts/nft.sol\":9571:9578  _owners */\n      0x03\n        /* \"contracts/nft.sol\":9571:9587  _owners[tokenId] */\n      0x00\n        /* \"contracts/nft.sol\":9579:9586  tokenId */\n      dup4\n        /* \"contracts/nft.sol\":9571:9587  _owners[tokenId] */\n      dup2\n      mstore\n      0x20\n      add\n      swap1\n      dup2\n      mstore\n      0x20\n      add\n      0x00\n      keccak256\n      0x00\n        /* \"contracts/nft.sol\":9571:9592  _owners[tokenId] = to */\n      0x0100\n      exp\n      dup2\n      sload\n      dup2\n      0xffffffffffffffffffffffffffffffffffffffff\n      mul\n      not\n      and\n      swap1\n      dup4\n      0xffffffffffffffffffffffffffffffffffffffff\n      and\n      mul\n      or\n      swap1\n      sstore\n      pop\n        /* \"contracts/nft.sol\":9629:9636  tokenId */\n      dup1\n        /* \"contracts/nft.sol\":9625:9627  to */\n      dup3\n        /* \"contracts/nft.sol\":9610:9637  Transfer(from, to, tokenId) */\n      0xffffffffffffffffffffffffffffffffffffffff\n      and\n        /* \"contracts/nft.sol\":9619:9623  from */\n      dup5\n        /* \"contracts/nft.sol\":9610:9637  Transfer(from, to, tokenId) */\n      0xffffffffffffffffffffffffffffffffffffffff\n      and\n      0xddf252ad1be2c89b69c2b068fc378daa952ba7f163c4a11628f55a4df523b3ef\n      mload(0x40)\n      mload(0x40)\n      dup1\n      swap2\n      sub\n      swap1\n      log4\n        /* \"contracts/nft.sol\":9650:9688  _afterTokenTransfer(from, to, tokenId) */\n      tag_236\n        /* \"contracts/nft.sol\":9670:9674  from */\n      dup4\n        /* \"contracts/nft.sol\":9676:9678  to */\n      dup4\n        /* \"contracts/nft.sol\":9680:9687  tokenId */\n      dup4\n        /* \"contracts/nft.sol\":9650:9669  _afterTokenTransfer */\n      tag_237\n        /* \"contracts/nft.sol\":9650:9688  _afterTokenTransfer(from, to, tokenId) */\n      jump\t// in\n    tag_236:\n        /* \"contracts/nft.sol\":8939:9696  function _transfer(\r... */\n      pop\n      pop\n      pop\n      jump\t// out\n        /* \"@openzeppelin/contracts@4.6.0/utils/Counters.sol\":945:1068  function increment(Counter storage counter) internal {... */\n    tag_145:\n        /* \"@openzeppelin/contracts@4.6.0/utils/Counters.sol\":1050:1051  1 */\n      0x01\n        /* \"@openzeppelin/contracts@4.6.0/utils/Counters.sol\":1032:1039  counter */\n      dup2\n        /* \"@openzeppelin/contracts@4.6.0/utils/Counters.sol\":1032:1046  counter._value */\n      0x00\n      add\n      0x00\n        /* \"@openzeppelin/contracts@4.6.0/utils/Counters.sol\":1032:1051  counter._value += 1 */\n      dup3\n      dup3\n      sload\n      add\n      swap3\n      pop\n      pop\n      dup2\n      swap1\n      sstore\n      pop\n        /* \"@openzeppelin/contracts@4.6.0/utils/Counters.sol\":945:1068  function increment(Counter storage counter) internal {... */\n      pop\n      jump\t// out\n        /* \"@openzeppelin/contracts@4.6.0/utils/Counters.sol\":827:939  function current(Counter storage counter) internal view returns (uint256) {... */\n    tag_147:\n        /* \"@openzeppelin/contracts@4.6.0/utils/Counters.sol\":892:899  uint256 */\n      0x00\n        /* \"@openzeppelin/contracts@4.6.0/utils/Counters.sol\":918:925  counter */\n      dup2\n        /* \"@openzeppelin/contracts@4.6.0/utils/Counters.sol\":918:932  counter._value */\n      0x00\n      add\n      sload\n        /* \"@openzeppelin/contracts@4.6.0/utils/Counters.sol\":911:932  return counter._value */\n      swap1\n      pop\n        /* \"@openzeppelin/contracts@4.6.0/utils/Counters.sol\":827:939  function current(Counter storage counter) internal view returns (uint256) {... */\n      swap2\n      swap1\n      pop\n      jump\t// out\n        /* \"contracts/nft.sol\":6826:7035  function _safeMint(address to,address[] memory collaborator,uint256[] memory collaboratorPercent,uint256 tokenId) internal virtual {\r... */\n    tag_149:\n        /* \"contracts/nft.sol\":6968:7027  _safeMint(to, collaborator,collaboratorPercent,tokenId, \"\") */\n      tag_241\n        /* \"contracts/nft.sol\":6978:6980  to */\n      dup5\n        /* \"contracts/nft.sol\":6982:6994  collaborator */\n      dup5\n        /* \"contracts/nft.sol\":6995:7014  collaboratorPercent */\n      dup5\n        /* \"contracts/nft.sol\":7015:7022  tokenId */\n      dup5\n        /* \"contracts/nft.sol\":6968:7027  _safeMint(to, collaborator,collaboratorPercent,tokenId, \"\") */\n      mload(0x40)\n      dup1\n      0x20\n      add\n      0x40\n      mstore\n      dup1\n      0x00\n      dup2\n      mstore\n      pop\n        /* \"contracts/nft.sol\":6968:6977  _safeMint */\n      tag_242\n        /* \"contracts/nft.sol\":6968:7027  _safeMint(to, collaborator,collaboratorPercent,tokenId, \"\") */\n      jump\t// in\n    tag_241:\n        /* \"contracts/nft.sol\":6826:7035  function _safeMint(address to,address[] memory collaborator,uint256[] memory collaboratorPercent,uint256 tokenId) internal virtual {\r... */\n      pop\n      pop\n      pop\n      pop\n      jump\t// out\n        /* \"contracts/nft.sol\":8709:8929  function _setTokenURI(uint256 tokenId, string memory _tokenURI) internal virtual {\r... */\n    tag_151:\n        /* \"contracts/nft.sol\":8912:8921  _tokenURI */\n      dup1\n        /* \"contracts/nft.sol\":8890:8900  _tokenURIs */\n      0x09\n        /* \"contracts/nft.sol\":8890:8909  _tokenURIs[tokenId] */\n      0x00\n        /* \"contracts/nft.sol\":8901:8908  tokenId */\n      dup5\n        /* \"contracts/nft.sol\":8890:8909  _tokenURIs[tokenId] */\n      dup2\n      mstore\n      0x20\n      add\n      swap1\n      dup2\n      mstore\n      0x20\n      add\n      0x00\n      keccak256\n        /* \"contracts/nft.sol\":8890:8921  _tokenURIs[tokenId] = _tokenURI */\n      swap1\n      dup1\n      mload\n      swap1\n      0x20\n      add\n      swap1\n      tag_244\n      swap3\n      swap2\n      swap1\n      tag_245\n      jump\t// in\n    tag_244:\n      pop\n        /* \"contracts/nft.sol\":8709:8929  function _setTokenURI(uint256 tokenId, string memory _tokenURI) internal virtual {\r... */\n      pop\n      pop\n      jump\t// out\n        /* \"contracts/nft.sol\":9885:10200  function _setApprovalForAll(\r... */\n    tag_174:\n        /* \"contracts/nft.sol\":10040:10048  operator */\n      dup2\n        /* \"contracts/nft.sol\":10031:10048  owner != operator */\n      0xffffffffffffffffffffffffffffffffffffffff\n      and\n        /* \"contracts/nft.sol\":10031:10036  owner */\n      dup4\n        /* \"contracts/nft.sol\":10031:10048  owner != operator */\n      0xffffffffffffffffffffffffffffffffffffffff\n      and\n      eq\n      iszero\n        /* \"contracts/nft.sol\":10023:10078  require(owner != operator, \"ERC721: approve to caller\") */\n      tag_247\n      jumpi\n      mload(0x40)\n      0x08c379a000000000000000000000000000000000000000000000000000000000\n      dup2\n      mstore\n      0x04\n      add\n      tag_248\n      swap1\n      tag_249\n      jump\t// in\n    tag_248:\n      mload(0x40)\n      dup1\n      swap2\n      sub\n      swap1\n      revert\n    tag_247:\n        /* \"contracts/nft.sol\":10127:10135  approved */\n      dup1\n        /* \"contracts/nft.sol\":10089:10107  _operatorApprovals */\n      0x08\n        /* \"contracts/nft.sol\":10089:10114  _operatorApprovals[owner] */\n      0x00\n        /* \"contracts/nft.sol\":10108:10113  owner */\n      dup6\n        /* \"contracts/nft.sol\":10089:10114  _operatorApprovals[owner] */\n      0xffffffffffffffffffffffffffffffffffffffff\n      and\n      0xffffffffffffffffffffffffffffffffffffffff\n      and\n      dup2\n      mstore\n      0x20\n      add\n      swap1\n      dup2\n      mstore\n      0x20\n      add\n      0x00\n      keccak256\n        /* \"contracts/nft.sol\":10089:10124  _operatorApprovals[owner][operator] */\n      0x00\n        /* \"contracts/nft.sol\":10115:10123  operator */\n      dup5\n        /* \"contracts/nft.sol\":10089:10124  _operatorApprovals[owner][operator] */\n      0xffffffffffffffffffffffffffffffffffffffff\n      and\n      0xffffffffffffffffffffffffffffffffffffffff\n      and\n      dup2\n      mstore\n      0x20\n      add\n      swap1\n      dup2\n      mstore\n      0x20\n      add\n      0x00\n      keccak256\n      0x00\n        /* \"contracts/nft.sol\":10089:10135  _operatorApprovals[owner][operator] = approved */\n      0x0100\n      exp\n      dup2\n      sload\n      dup2\n      0xff\n      mul\n      not\n      and\n      swap1\n      dup4\n      iszero\n      iszero\n      mul\n      or\n      swap1\n      sstore\n      pop\n        /* \"contracts/nft.sol\":10173:10181  operator */\n      dup2\n        /* \"contracts/nft.sol\":10151:10192  ApprovalForAll(owner, operator, approved) */\n      0xffffffffffffffffffffffffffffffffffffffff\n      and\n        /* \"contracts/nft.sol\":10166:10171  owner */\n      dup4\n        /* \"contracts/nft.sol\":10151:10192  ApprovalForAll(owner, operator, approved) */\n      0xffffffffffffffffffffffffffffffffffffffff\n      and\n      0x17307eab39ab6107e8899845ad3d59bd9653f200f220920489ca2b5937696c31\n        /* \"contracts/nft.sol\":10183:10191  approved */\n      dup4\n        /* \"contracts/nft.sol\":10151:10192  ApprovalForAll(owner, operator, approved) */\n      mload(0x40)\n      tag_250\n      swap2\n      swap1\n      tag_28\n      jump\t// in\n    tag_250:\n      mload(0x40)\n      dup1\n      swap2\n      sub\n      swap1\n      log3\n        /* \"contracts/nft.sol\":9885:10200  function _setApprovalForAll(\r... */\n      pop\n      pop\n      pop\n      jump\t// out\n        /* \"contracts/nft.sol\":6099:6412  function _safeTransfer(\r... */\n    tag_181:\n        /* \"contracts/nft.sol\":6255:6283  _transfer(from, to, tokenId) */\n      tag_252\n        /* \"contracts/nft.sol\":6265:6269  from */\n      dup5\n        /* \"contracts/nft.sol\":6271:6273  to */\n      dup5\n        /* \"contracts/nft.sol\":6275:6282  tokenId */\n      dup5\n        /* \"contracts/nft.sol\":6255:6264  _transfer */\n      tag_142\n        /* \"contracts/nft.sol\":6255:6283  _transfer(from, to, tokenId) */\n      jump\t// in\n    tag_252:\n        /* \"contracts/nft.sol\":6302:6349  _checkOnERC721Received(from, to, tokenId, data) */\n      tag_253\n        /* \"contracts/nft.sol\":6325:6329  from */\n      dup5\n        /* \"contracts/nft.sol\":6331:6333  to */\n      dup5\n        /* \"contracts/nft.sol\":6335:6342  tokenId */\n      dup5\n        /* \"contracts/nft.sol\":6344:6348  data */\n      dup5\n        /* \"contracts/nft.sol\":6302:6324  _checkOnERC721Received */\n      tag_254\n        /* \"contracts/nft.sol\":6302:6349  _checkOnERC721Received(from, to, tokenId, data) */\n      jump\t// in\n    tag_253:\n        /* \"contracts/nft.sol\":6294:6404  require(_checkOnERC721Received(from, to, tokenId, data), \"ERC721: transfer to non ERC721Receiver implementer\") */\n      tag_255\n      jumpi\n      mload(0x40)\n      0x08c379a000000000000000000000000000000000000000000000000000000000\n      dup2\n      mstore\n      0x04\n      add\n      tag_256\n      swap1\n      tag_257\n      jump\t// in\n    tag_256:\n      mload(0x40)\n      dup1\n      swap2\n      sub\n      swap1\n      revert\n    tag_255:\n        /* \"contracts/nft.sol\":6099:6412  function _safeTransfer(\r... */\n      pop\n      pop\n      pop\n      pop\n      jump\t// out\n        /* \"contracts/nft.sol\":6420:6547  function _exists(uint256 tokenId) internal view virtual returns (bool) {\r... */\n    tag_184:\n        /* \"contracts/nft.sol\":6485:6489  bool */\n      0x00\n        /* \"contracts/nft.sol\":6537:6538  0 */\n      dup1\n        /* \"contracts/nft.sol\":6509:6539  _owners[tokenId] != address(0) */\n      0xffffffffffffffffffffffffffffffffffffffff\n      and\n        /* \"contracts/nft.sol\":6509:6516  _owners */\n      0x03\n        /* \"contracts/nft.sol\":6509:6525  _owners[tokenId] */\n      0x00\n        /* \"contracts/nft.sol\":6517:6524  tokenId */\n      dup5\n        /* \"contracts/nft.sol\":6509:6525  _owners[tokenId] */\n      dup2\n      mstore\n      0x20\n      add\n      swap1\n      dup2\n      mstore\n      0x20\n      add\n      0x00\n      keccak256\n      0x00\n      swap1\n      sload\n      swap1\n      0x0100\n      exp\n      swap1\n      div\n      0xffffffffffffffffffffffffffffffffffffffff\n      and\n        /* \"contracts/nft.sol\":6509:6539  _owners[tokenId] != address(0) */\n      0xffffffffffffffffffffffffffffffffffffffff\n      and\n      eq\n      iszero\n        /* \"contracts/nft.sol\":6502:6539  return _owners[tokenId] != address(0) */\n      swap1\n      pop\n        /* \"contracts/nft.sol\":6420:6547  function _exists(uint256 tokenId) internal view virtual returns (bool) {\r... */\n      swap2\n      swap1\n      pop\n      jump\t// out\n        /* \"contracts/nft.sol\":3873:3967  function _baseURI() internal view virtual returns (string memory) {\r... */\n    tag_189:\n        /* \"contracts/nft.sol\":3924:3937  string memory */\n      0x60\n        /* \"contracts/nft.sol\":3950:3959  return \"\" */\n      mload(0x40)\n      dup1\n      0x20\n      add\n      0x40\n      mstore\n      dup1\n      0x00\n      dup2\n      mstore\n      pop\n      swap1\n      pop\n        /* \"contracts/nft.sol\":3873:3967  function _baseURI() internal view virtual returns (string memory) {\r... */\n      swap1\n      jump\t// out\n        /* \"@openzeppelin/contracts@4.6.0/utils/Strings.sol\":328:1031  function toString(uint256 value) internal pure returns (string memory) {... */\n    tag_193:\n        /* \"@openzeppelin/contracts@4.6.0/utils/Strings.sol\":384:397  string memory */\n      0x60\n        /* \"@openzeppelin/contracts@4.6.0/utils/Strings.sol\":610:611  0 */\n      0x00\n        /* \"@openzeppelin/contracts@4.6.0/utils/Strings.sol\":601:606  value */\n      dup3\n        /* \"@openzeppelin/contracts@4.6.0/utils/Strings.sol\":601:611  value == 0 */\n      eq\n        /* \"@openzeppelin/contracts@4.6.0/utils/Strings.sol\":597:648  if (value == 0) {... */\n      iszero\n      tag_261\n      jumpi\n        /* \"@openzeppelin/contracts@4.6.0/utils/Strings.sol\":627:637  return \"0\" */\n      mload(0x40)\n      dup1\n      0x40\n      add\n      0x40\n      mstore\n      dup1\n      0x01\n      dup2\n      mstore\n      0x20\n      add\n      0x3000000000000000000000000000000000000000000000000000000000000000\n      dup2\n      mstore\n      pop\n      swap1\n      pop\n      jump(tag_260)\n        /* \"@openzeppelin/contracts@4.6.0/utils/Strings.sol\":597:648  if (value == 0) {... */\n    tag_261:\n        /* \"@openzeppelin/contracts@4.6.0/utils/Strings.sol\":657:669  uint256 temp */\n      0x00\n        /* \"@openzeppelin/contracts@4.6.0/utils/Strings.sol\":672:677  value */\n      dup3\n        /* \"@openzeppelin/contracts@4.6.0/utils/Strings.sol\":657:677  uint256 temp = value */\n      swap1\n      pop\n        /* \"@openzeppelin/contracts@4.6.0/utils/Strings.sol\":687:701  uint256 digits */\n      0x00\n        /* \"@openzeppelin/contracts@4.6.0/utils/Strings.sol\":711:786  while (temp != 0) {... */\n    tag_262:\n        /* \"@openzeppelin/contracts@4.6.0/utils/Strings.sol\":726:727  0 */\n      0x00\n        /* \"@openzeppelin/contracts@4.6.0/utils/Strings.sol\":718:722  temp */\n      dup3\n        /* \"@openzeppelin/contracts@4.6.0/utils/Strings.sol\":718:727  temp != 0 */\n      eq\n        /* \"@openzeppelin/contracts@4.6.0/utils/Strings.sol\":711:786  while (temp != 0) {... */\n      tag_263\n      jumpi\n        /* \"@openzeppelin/contracts@4.6.0/utils/Strings.sol\":743:751  digits++ */\n      dup1\n      dup1\n      tag_264\n      swap1\n      tag_265\n      jump\t// in\n    tag_264:\n      swap2\n      pop\n      pop\n        /* \"@openzeppelin/contracts@4.6.0/utils/Strings.sol\":773:775  10 */\n      0x0a\n        /* \"@openzeppelin/contracts@4.6.0/utils/Strings.sol\":765:775  temp /= 10 */\n      dup3\n      tag_266\n      swap2\n      swap1\n      tag_267\n      jump\t// in\n    tag_266:\n      swap2\n      pop\n        /* \"@openzeppelin/contracts@4.6.0/utils/Strings.sol\":711:786  while (temp != 0) {... */\n      jump(tag_262)\n    tag_263:\n        /* \"@openzeppelin/contracts@4.6.0/utils/Strings.sol\":795:814  bytes memory buffer */\n      0x00\n        /* \"@openzeppelin/contracts@4.6.0/utils/Strings.sol\":827:833  digits */\n      dup2\n        /* \"@openzeppelin/contracts@4.6.0/utils/Strings.sol\":817:834  new bytes(digits) */\n      0xffffffffffffffff\n      dup2\n      gt\n      iszero\n      tag_268\n      jumpi\n      mstore(0x00, 0x4e487b7100000000000000000000000000000000000000000000000000000000)\n      mstore(0x04, 0x41)\n      revert(0x00, 0x24)\n    tag_268:\n      mload(0x40)\n      swap1\n      dup1\n      dup3\n      mstore\n      dup1\n      0x1f\n      add\n      not(0x1f)\n      and\n      0x20\n      add\n      dup3\n      add\n      0x40\n      mstore\n      dup1\n      iszero\n      tag_269\n      jumpi\n      dup2\n      0x20\n      add\n      0x01\n      dup3\n      mul\n      dup1\n      calldatasize\n      dup4\n      calldatacopy\n      dup1\n      dup3\n      add\n      swap2\n      pop\n      pop\n      swap1\n      pop\n    tag_269:\n      pop\n        /* \"@openzeppelin/contracts@4.6.0/utils/Strings.sol\":795:834  bytes memory buffer = new bytes(digits) */\n      swap1\n      pop\n        /* \"@openzeppelin/contracts@4.6.0/utils/Strings.sol\":844:994  while (value != 0) {... */\n    tag_270:\n        /* \"@openzeppelin/contracts@4.6.0/utils/Strings.sol\":860:861  0 */\n      0x00\n        /* \"@openzeppelin/contracts@4.6.0/utils/Strings.sol\":851:856  value */\n      dup6\n        /* \"@openzeppelin/contracts@4.6.0/utils/Strings.sol\":851:861  value != 0 */\n      eq\n        /* \"@openzeppelin/contracts@4.6.0/utils/Strings.sol\":844:994  while (value != 0) {... */\n      tag_271\n      jumpi\n        /* \"@openzeppelin/contracts@4.6.0/utils/Strings.sol\":887:888  1 */\n      0x01\n        /* \"@openzeppelin/contracts@4.6.0/utils/Strings.sol\":877:888  digits -= 1 */\n      dup3\n      tag_272\n      swap2\n      swap1\n      tag_273\n      jump\t// in\n    tag_272:\n      swap2\n      pop\n        /* \"@openzeppelin/contracts@4.6.0/utils/Strings.sol\":953:955  10 */\n      0x0a\n        /* \"@openzeppelin/contracts@4.6.0/utils/Strings.sol\":945:950  value */\n      dup6\n        /* \"@openzeppelin/contracts@4.6.0/utils/Strings.sol\":945:955  value % 10 */\n      tag_274\n      swap2\n      swap1\n      tag_275\n      jump\t// in\n    tag_274:\n        /* \"@openzeppelin/contracts@4.6.0/utils/Strings.sol\":932:934  48 */\n      0x30\n        /* \"@openzeppelin/contracts@4.6.0/utils/Strings.sol\":932:956  48 + uint256(value % 10) */\n      tag_276\n      swap2\n      swap1\n      tag_277\n      jump\t// in\n    tag_276:\n        /* \"@openzeppelin/contracts@4.6.0/utils/Strings.sol\":919:958  bytes1(uint8(48 + uint256(value % 10))) */\n      0xf8\n      shl\n        /* \"@openzeppelin/contracts@4.6.0/utils/Strings.sol\":902:908  buffer */\n      dup2\n        /* \"@openzeppelin/contracts@4.6.0/utils/Strings.sol\":909:915  digits */\n      dup4\n        /* \"@openzeppelin/contracts@4.6.0/utils/Strings.sol\":902:916  buffer[digits] */\n      dup2\n      mload\n      dup2\n      lt\n      tag_278\n      jumpi\n      mstore(0x00, 0x4e487b7100000000000000000000000000000000000000000000000000000000)\n      mstore(0x04, 0x32)\n      revert(0x00, 0x24)\n    tag_278:\n      0x20\n      add\n      add\n        /* \"@openzeppelin/contracts@4.6.0/utils/Strings.sol\":902:958  buffer[digits] = bytes1(uint8(48 + uint256(value % 10))) */\n      swap1\n      not(0xffffffffffffffffffffffffffffffffffffffffffffffffffffffffffffff)\n      and\n      swap1\n      dup2\n      0x00\n      byte\n      swap1\n      mstore8\n      pop\n        /* \"@openzeppelin/contracts@4.6.0/utils/Strings.sol\":981:983  10 */\n      0x0a\n        /* \"@openzeppelin/contracts@4.6.0/utils/Strings.sol\":972:983  value /= 10 */\n      dup6\n      tag_279\n      swap2\n      swap1\n      tag_267\n      jump\t// in\n    tag_279:\n      swap5\n      pop\n        /* \"@openzeppelin/contracts@4.6.0/utils/Strings.sol\":844:994  while (value != 0) {... */\n      jump(tag_270)\n    tag_271:\n        /* \"@openzeppelin/contracts@4.6.0/utils/Strings.sol\":1017:1023  buffer */\n      dup1\n        /* \"@openzeppelin/contracts@4.6.0/utils/Strings.sol\":1003:1024  return string(buffer) */\n      swap4\n      pop\n      pop\n      pop\n      pop\n        /* \"@openzeppelin/contracts@4.6.0/utils/Strings.sol\":328:1031  function toString(uint256 value) internal pure returns (string memory) {... */\n    tag_260:\n      swap2\n      swap1\n      pop\n      jump\t// out\n        /* \"contracts/nft.sol\":11216:11342  function _beforeTokenTransfer(\r... */\n    tag_232:\n      pop\n      pop\n      pop\n      jump\t// out\n        /* \"contracts/nft.sol\":11350:11475  function _afterTokenTransfer(\r... */\n    tag_237:\n      pop\n      pop\n      pop\n      jump\t// out\n        /* \"contracts/nft.sol\":7043:7484  function _safeMint(\r... */\n    tag_242:\n        /* \"contracts/nft.sol\":7260:7312  _mint(to, collaborator,collaboratorPercent, tokenId) */\n      tag_283\n        /* \"contracts/nft.sol\":7266:7268  to */\n      dup6\n        /* \"contracts/nft.sol\":7270:7282  collaborator */\n      dup6\n        /* \"contracts/nft.sol\":7283:7302  collaboratorPercent */\n      dup6\n        /* \"contracts/nft.sol\":7304:7311  tokenId */\n      dup6\n        /* \"contracts/nft.sol\":7260:7265  _mint */\n      tag_284\n        /* \"contracts/nft.sol\":7260:7312  _mint(to, collaborator,collaboratorPercent, tokenId) */\n      jump\t// in\n    tag_283:\n        /* \"contracts/nft.sol\":7345:7398  _checkOnERC721Received(address(0), to, tokenId, data) */\n      tag_285\n        /* \"contracts/nft.sol\":7376:7377  0 */\n      0x00\n        /* \"contracts/nft.sol\":7380:7382  to */\n      dup7\n        /* \"contracts/nft.sol\":7384:7391  tokenId */\n      dup5\n        /* \"contracts/nft.sol\":7393:7397  data */\n      dup5\n        /* \"contracts/nft.sol\":7345:7367  _checkOnERC721Received */\n      tag_254\n        /* \"contracts/nft.sol\":7345:7398  _checkOnERC721Received(address(0), to, tokenId, data) */\n      jump\t// in\n    tag_285:\n        /* \"contracts/nft.sol\":7323:7476  require(\r... */\n      tag_286\n      jumpi\n      mload(0x40)\n      0x08c379a000000000000000000000000000000000000000000000000000000000\n      dup2\n      mstore\n      0x04\n      add\n      tag_287\n      swap1\n      tag_257\n      jump\t// in\n    tag_287:\n      mload(0x40)\n      dup1\n      swap2\n      sub\n      swap1\n      revert\n    tag_286:\n        /* \"contracts/nft.sol\":7043:7484  function _safeMint(\r... */\n      pop\n      pop\n      pop\n      pop\n      pop\n      jump\t// out\n        /* \"contracts/nft.sol\":10353:11206  function _checkOnERC721Received(\r... */\n    tag_254:\n        /* \"contracts/nft.sol\":10507:10511  bool */\n      0x00\n        /* \"contracts/nft.sol\":10528:10543  to.isContract() */\n      tag_289\n        /* \"contracts/nft.sol\":10528:10530  to */\n      dup5\n        /* \"contracts/nft.sol\":10528:10541  to.isContract */\n      0xffffffffffffffffffffffffffffffffffffffff\n      and\n      tag_290\n        /* \"contracts/nft.sol\":10528:10543  to.isContract() */\n      jump\t// in\n    tag_289:\n        /* \"contracts/nft.sol\":10524:11199  if (to.isContract()) {\r... */\n      iszero\n      tag_291\n      jumpi\n        /* \"contracts/nft.sol\":10580:10582  to */\n      dup4\n        /* \"contracts/nft.sol\":10564:10600  IERC721Receiver(to).onERC721Received */\n      0xffffffffffffffffffffffffffffffffffffffff\n      and\n      0x150b7a02\n        /* \"contracts/nft.sol\":10601:10613  _msgSender() */\n      tag_292\n        /* \"contracts/nft.sol\":10601:10611  _msgSender */\n      tag_120\n        /* \"contracts/nft.sol\":10601:10613  _msgSender() */\n      jump\t// in\n    tag_292:\n        /* \"contracts/nft.sol\":10615:10619  from */\n      dup8\n        /* \"contracts/nft.sol\":10621:10628  tokenId */\n      dup7\n        /* \"contracts/nft.sol\":10630:10634  data */\n      dup7\n        /* \"contracts/nft.sol\":10564:10635  IERC721Receiver(to).onERC721Received(_msgSender(), from, tokenId, data) */\n      mload(0x40)\n      dup6\n      0xffffffff\n      and\n      0xe0\n      shl\n      dup2\n      mstore\n      0x04\n      add\n      tag_293\n      swap5\n      swap4\n      swap3\n      swap2\n      swap1\n      tag_294\n      jump\t// in\n    tag_293:\n      0x20\n      mload(0x40)\n      dup1\n      dup4\n      sub\n      dup2\n      0x00\n      dup8\n      dup1\n      extcodesize\n      iszero\n      dup1\n      iszero\n      tag_295\n      jumpi\n      0x00\n      dup1\n      revert\n    tag_295:\n      pop\n      gas\n      call\n      swap3\n      pop\n      pop\n      pop\n      dup1\n      iszero\n      tag_296\n      jumpi\n      pop\n      mload(0x40)\n      returndatasize\n      not(0x1f)\n      0x1f\n      dup3\n      add\n      and\n      dup3\n      add\n      dup1\n      0x40\n      mstore\n      pop\n      dup2\n      add\n      swap1\n      tag_297\n      swap2\n      swap1\n      tag_298\n      jump\t// in\n    tag_297:\n      0x01\n    tag_296:\n        /* \"contracts/nft.sol\":10560:11144  try IERC721Receiver(to).onERC721Received(_msgSender(), from, tokenId, data) returns (bytes4 retval) {\r... */\n      tag_299\n      jumpi\n      returndatasize\n      dup1\n      0x00\n      dup2\n      eq\n      tag_304\n      jumpi\n      mload(0x40)\n      swap2\n      pop\n      and(add(returndatasize, 0x3f), not(0x1f))\n      dup3\n      add\n      0x40\n      mstore\n      returndatasize\n      dup3\n      mstore\n      returndatasize\n      0x00\n      0x20\n      dup5\n      add\n      returndatacopy\n      jump(tag_303)\n    tag_304:\n      0x60\n      swap2\n      pop\n    tag_303:\n      pop\n        /* \"contracts/nft.sol\":10822:10823  0 */\n      0x00\n        /* \"contracts/nft.sol\":10805:10811  reason */\n      dup2\n        /* \"contracts/nft.sol\":10805:10818  reason.length */\n      mload\n        /* \"contracts/nft.sol\":10805:10823  reason.length == 0 */\n      eq\n        /* \"contracts/nft.sol\":10801:11129  if (reason.length == 0) {\r... */\n      iszero\n      tag_305\n      jumpi\n        /* \"contracts/nft.sol\":10848:10908  revert(\"ERC721: transfer to non ERC721Receiver implementer\") */\n      mload(0x40)\n      0x08c379a000000000000000000000000000000000000000000000000000000000\n      dup2\n      mstore\n      0x04\n      add\n      tag_306\n      swap1\n      tag_257\n      jump\t// in\n    tag_306:\n      mload(0x40)\n      dup1\n      swap2\n      sub\n      swap1\n      revert\n        /* \"contracts/nft.sol\":10801:11129  if (reason.length == 0) {\r... */\n    tag_305:\n        /* \"contracts/nft.sol\":11079:11085  reason */\n      dup1\n        /* \"contracts/nft.sol\":11073:11086  mload(reason) */\n      mload\n        /* \"contracts/nft.sol\":11064:11070  reason */\n      dup2\n        /* \"contracts/nft.sol\":11060:11062  32 */\n      0x20\n        /* \"contracts/nft.sol\":11056:11071  add(32, reason) */\n      add\n        /* \"contracts/nft.sol\":11049:11087  revert(add(32, reason), mload(reason)) */\n      revert\n        /* \"contracts/nft.sol\":10560:11144  try IERC721Receiver(to).onERC721Received(_msgSender(), from, tokenId, data) returns (bytes4 retval) {\r... */\n    tag_299:\n        /* \"contracts/nft.sol\":10696:10737  IERC721Receiver.onERC721Received.selector */\n      shl(0xe0, 0x150b7a02)\n        /* \"contracts/nft.sol\":10686:10737  retval == IERC721Receiver.onERC721Received.selector */\n      not(0xffffffffffffffffffffffffffffffffffffffffffffffffffffffff)\n      and\n        /* \"contracts/nft.sol\":10686:10692  retval */\n      dup2\n        /* \"contracts/nft.sol\":10686:10737  retval == IERC721Receiver.onERC721Received.selector */\n      not(0xffffffffffffffffffffffffffffffffffffffffffffffffffffffff)\n      and\n      eq\n        /* \"contracts/nft.sol\":10679:10737  return retval == IERC721Receiver.onERC721Received.selector */\n      swap2\n      pop\n      pop\n      jump(tag_288)\n        /* \"contracts/nft.sol\":10524:11199  if (to.isContract()) {\r... */\n    tag_291:\n        /* \"contracts/nft.sol\":11183:11187  true */\n      0x01\n        /* \"contracts/nft.sol\":11176:11187  return true */\n      swap1\n      pop\n        /* \"contracts/nft.sol\":10353:11206  function _checkOnERC721Received(\r... */\n    tag_288:\n      swap5\n      swap4\n      pop\n      pop\n      pop\n      pop\n      jump\t// out\n        /* \"contracts/nft.sol\":7492:8220  function _mint(address to,address[] memory collaborator,uint256[] memory collaboratorPercent,uint256 tokenId) internal virtual {\r... */\n    tag_284:\n        /* \"contracts/nft.sol\":7652:7653  0 */\n      0x00\n        /* \"contracts/nft.sol\":7638:7654  to != address(0) */\n      0xffffffffffffffffffffffffffffffffffffffff\n      and\n        /* \"contracts/nft.sol\":7638:7640  to */\n      dup5\n        /* \"contracts/nft.sol\":7638:7654  to != address(0) */\n      0xffffffffffffffffffffffffffffffffffffffff\n      and\n      eq\n      iszero\n        /* \"contracts/nft.sol\":7630:7691  require(to != address(0), \"ERC721: mint to the zero address\") */\n      tag_311\n      jumpi\n      mload(0x40)\n      0x08c379a000000000000000000000000000000000000000000000000000000000\n      dup2\n      mstore\n      0x04\n      add\n      tag_312\n      swap1\n      tag_313\n      jump\t// in\n    tag_312:\n      mload(0x40)\n      dup1\n      swap2\n      sub\n      swap1\n      revert\n    tag_311:\n        /* \"contracts/nft.sol\":7711:7727  _exists(tokenId) */\n      tag_314\n        /* \"contracts/nft.sol\":7719:7726  tokenId */\n      dup2\n        /* \"contracts/nft.sol\":7711:7718  _exists */\n      tag_184\n        /* \"contracts/nft.sol\":7711:7727  _exists(tokenId) */\n      jump\t// in\n    tag_314:\n        /* \"contracts/nft.sol\":7710:7727  !_exists(tokenId) */\n      iszero\n        /* \"contracts/nft.sol\":7702:7760  require(!_exists(tokenId), \"ERC721: token already minted\") */\n      tag_315\n      jumpi\n      mload(0x40)\n      0x08c379a000000000000000000000000000000000000000000000000000000000\n      dup2\n      mstore\n      0x04\n      add\n      tag_316\n      swap1\n      tag_317\n      jump\t// in\n    tag_316:\n      mload(0x40)\n      dup1\n      swap2\n      sub\n      swap1\n      revert\n    tag_315:\n        /* \"contracts/nft.sol\":7773:7818  _beforeTokenTransfer(address(0), to, tokenId) */\n      tag_318\n        /* \"contracts/nft.sol\":7802:7803  0 */\n      0x00\n        /* \"contracts/nft.sol\":7806:7808  to */\n      dup6\n        /* \"contracts/nft.sol\":7810:7817  tokenId */\n      dup4\n        /* \"contracts/nft.sol\":7773:7793  _beforeTokenTransfer */\n      tag_232\n        /* \"contracts/nft.sol\":7773:7818  _beforeTokenTransfer(address(0), to, tokenId) */\n      jump\t// in\n    tag_318:\n        /* \"contracts/nft.sol\":7840:7856  _exists(tokenId) */\n      tag_319\n        /* \"contracts/nft.sol\":7848:7855  tokenId */\n      dup2\n        /* \"contracts/nft.sol\":7840:7847  _exists */\n      tag_184\n        /* \"contracts/nft.sol\":7840:7856  _exists(tokenId) */\n      jump\t// in\n    tag_319:\n        /* \"contracts/nft.sol\":7839:7856  !_exists(tokenId) */\n      iszero\n        /* \"contracts/nft.sol\":7831:7889  require(!_exists(tokenId), \"ERC721: token already minted\") */\n      tag_320\n      jumpi\n      mload(0x40)\n      0x08c379a000000000000000000000000000000000000000000000000000000000\n      dup2\n      mstore\n      0x04\n      add\n      tag_321\n      swap1\n      tag_317\n      jump\t// in\n    tag_321:\n      mload(0x40)\n      dup1\n      swap2\n      sub\n      swap1\n      revert\n    tag_320:\n        /* \"contracts/nft.sol\":7944:7945  1 */\n      0x01\n        /* \"contracts/nft.sol\":7927:7936  _balances */\n      0x06\n        /* \"contracts/nft.sol\":7927:7940  _balances[to] */\n      0x00\n        /* \"contracts/nft.sol\":7937:7939  to */\n      dup7\n        /* \"contracts/nft.sol\":7927:7940  _balances[to] */\n      0xffffffffffffffffffffffffffffffffffffffff\n      and\n      0xffffffffffffffffffffffffffffffffffffffff\n      and\n      dup2\n      mstore\n      0x20\n      add\n      swap1\n      dup2\n      mstore\n      0x20\n      add\n      0x00\n      keccak256\n      0x00\n        /* \"contracts/nft.sol\":7927:7945  _balances[to] += 1 */\n      dup3\n      dup3\n      sload\n      add\n      swap3\n      pop\n      pop\n      dup2\n      swap1\n      sstore\n      pop\n        /* \"contracts/nft.sol\":7988:7990  to */\n      dup4\n        /* \"contracts/nft.sol\":7969:7976  _owners */\n      0x03\n        /* \"contracts/nft.sol\":7969:7985  _owners[tokenId] */\n      0x00\n        /* \"contracts/nft.sol\":7977:7984  tokenId */\n      dup4\n        /* \"contracts/nft.sol\":7969:7985  _owners[tokenId] */\n      dup2\n      mstore\n      0x20\n      add\n      swap1\n      dup2\n      mstore\n      0x20\n      add\n      0x00\n      keccak256\n      0x00\n        /* \"contracts/nft.sol\":7969:7990  _owners[tokenId] = to */\n      0x0100\n      exp\n      dup2\n      sload\n      dup2\n      0xffffffffffffffffffffffffffffffffffffffff\n      mul\n      not\n      and\n      swap1\n      dup4\n      0xffffffffffffffffffffffffffffffffffffffff\n      and\n      mul\n      or\n      swap1\n      sstore\n      pop\n        /* \"contracts/nft.sol\":8027:8039  collaborator */\n      dup3\n        /* \"contracts/nft.sol\":8001:8015  _collaborators */\n      0x04\n        /* \"contracts/nft.sol\":8001:8024  _collaborators[tokenId] */\n      0x00\n        /* \"contracts/nft.sol\":8016:8023  tokenId */\n      dup4\n        /* \"contracts/nft.sol\":8001:8024  _collaborators[tokenId] */\n      dup2\n      mstore\n      0x20\n      add\n      swap1\n      dup2\n      mstore\n      0x20\n      add\n      0x00\n      keccak256\n        /* \"contracts/nft.sol\":8001:8039  _collaborators[tokenId] = collaborator */\n      swap1\n      dup1\n      mload\n      swap1\n      0x20\n      add\n      swap1\n      tag_322\n      swap3\n      swap2\n      swap1\n      tag_323\n      jump\t// in\n    tag_322:\n      pop\n        /* \"contracts/nft.sol\":8085:8104  collaboratorPercent */\n      dup2\n        /* \"contracts/nft.sol\":8049:8073  _collaboratorsPercentage */\n      0x05\n        /* \"contracts/nft.sol\":8049:8082  _collaboratorsPercentage[tokenId] */\n      0x00\n        /* \"contracts/nft.sol\":8074:8081  tokenId */\n      dup4\n        /* \"contracts/nft.sol\":8049:8082  _collaboratorsPercentage[tokenId] */\n      dup2\n      mstore\n      0x20\n      add\n      swap1\n      dup2\n      mstore\n      0x20\n      add\n      0x00\n      keccak256\n        /* \"contracts/nft.sol\":8049:8104  _collaboratorsPercentage[tokenId] = collaboratorPercent */\n      swap1\n      dup1\n      mload\n      swap1\n      0x20\n      add\n      swap1\n      tag_324\n      swap3\n      swap2\n      swap1\n      tag_325\n      jump\t// in\n    tag_324:\n      pop\n        /* \"contracts/nft.sol\":8147:8154  tokenId */\n      dup1\n        /* \"contracts/nft.sol\":8143:8145  to */\n      dup5\n        /* \"contracts/nft.sol\":8122:8155  Transfer(address(0), to, tokenId) */\n      0xffffffffffffffffffffffffffffffffffffffff\n      and\n        /* \"contracts/nft.sol\":8139:8140  0 */\n      0x00\n        /* \"contracts/nft.sol\":8122:8155  Transfer(address(0), to, tokenId) */\n      0xffffffffffffffffffffffffffffffffffffffff\n      and\n      0xddf252ad1be2c89b69c2b068fc378daa952ba7f163c4a11628f55a4df523b3ef\n      mload(0x40)\n      mload(0x40)\n      dup1\n      swap2\n      sub\n      swap1\n      log4\n        /* \"contracts/nft.sol\":8168:8212  _afterTokenTransfer(address(0), to, tokenId) */\n      tag_326\n        /* \"contracts/nft.sol\":8196:8197  0 */\n      0x00\n        /* \"contracts/nft.sol\":8200:8202  to */\n      dup6\n        /* \"contracts/nft.sol\":8204:8211  tokenId */\n      dup4\n        /* \"contracts/nft.sol\":8168:8187  _afterTokenTransfer */\n      tag_237\n        /* \"contracts/nft.sol\":8168:8212  _afterTokenTransfer(address(0), to, tokenId) */\n      jump\t// in\n    tag_326:\n        /* \"contracts/nft.sol\":7492:8220  function _mint(address to,address[] memory collaborator,uint256[] memory collaboratorPercent,uint256 tokenId) internal virtual {\r... */\n      pop\n      pop\n      pop\n      pop\n      jump\t// out\n        /* \"@openzeppelin/contracts@4.6.0/utils/Address.sol\":1175:1495  function isContract(address account) internal view returns (bool) {... */\n    tag_290:\n        /* \"@openzeppelin/contracts@4.6.0/utils/Address.sol\":1235:1239  bool */\n      0x00\n        /* \"@openzeppelin/contracts@4.6.0/utils/Address.sol\":1487:1488  0 */\n      dup1\n        /* \"@openzeppelin/contracts@4.6.0/utils/Address.sol\":1465:1472  account */\n      dup3\n        /* \"@openzeppelin/contracts@4.6.0/utils/Address.sol\":1465:1484  account.code.length */\n      0xffffffffffffffffffffffffffffffffffffffff\n      and\n      extcodesize\n        /* \"@openzeppelin/contracts@4.6.0/utils/Address.sol\":1465:1488  account.code.length > 0 */\n      gt\n        /* \"@openzeppelin/contracts@4.6.0/utils/Address.sol\":1458:1488  return account.code.length > 0 */\n      swap1\n      pop\n        /* \"@openzeppelin/contracts@4.6.0/utils/Address.sol\":1175:1495  function isContract(address account) internal view returns (bool) {... */\n      swap2\n      swap1\n      pop\n      jump\t// out\n    tag_245:\n      dup3\n      dup1\n      sload\n      tag_328\n      swap1\n      tag_106\n      jump\t// in\n    tag_328:\n      swap1\n      0x00\n      mstore\n      keccak256(0x00, 0x20)\n      swap1\n      0x1f\n      add\n      0x20\n      swap1\n      div\n      dup2\n      add\n      swap3\n      dup3\n      tag_330\n      jumpi\n      0x00\n      dup6\n      sstore\n      jump(tag_329)\n    tag_330:\n      dup3\n      0x1f\n      lt\n      tag_331\n      jumpi\n      dup1\n      mload\n      not(0xff)\n      and\n      dup4\n      dup1\n      add\n      or\n      dup6\n      sstore\n      jump(tag_329)\n    tag_331:\n      dup3\n      dup1\n      add\n      0x01\n      add\n      dup6\n      sstore\n      dup3\n      iszero\n      tag_329\n      jumpi\n      swap2\n      dup3\n      add\n    tag_332:\n      dup3\n      dup2\n      gt\n      iszero\n      tag_333\n      jumpi\n      dup3\n      mload\n      dup3\n      sstore\n      swap2\n      0x20\n      add\n      swap2\n      swap1\n      0x01\n      add\n      swap1\n      jump(tag_332)\n    tag_333:\n    tag_329:\n      pop\n      swap1\n      pop\n      tag_334\n      swap2\n      swap1\n      tag_335\n      jump\t// in\n    tag_334:\n      pop\n      swap1\n      jump\t// out\n    tag_323:\n      dup3\n      dup1\n      sload\n      dup3\n      dup3\n      sstore\n      swap1\n      0x00\n      mstore\n      keccak256(0x00, 0x20)\n      swap1\n      dup2\n      add\n      swap3\n      dup3\n      iszero\n      tag_336\n      jumpi\n      swap2\n      0x20\n      mul\n      dup3\n      add\n    tag_337:\n      dup3\n      dup2\n      gt\n      iszero\n      tag_338\n      jumpi\n      dup3\n      mload\n      dup3\n      exp(0x0100, 0x00)\n      dup2\n      sload\n      dup2\n      0xffffffffffffffffffffffffffffffffffffffff\n      mul\n      not\n      and\n      swap1\n      dup4\n      0xffffffffffffffffffffffffffffffffffffffff\n      and\n      mul\n      or\n      swap1\n      sstore\n      pop\n      swap2\n      0x20\n      add\n      swap2\n      swap1\n      0x01\n      add\n      swap1\n      jump(tag_337)\n    tag_338:\n    tag_336:\n      pop\n      swap1\n      pop\n      tag_339\n      swap2\n      swap1\n      tag_335\n      jump\t// in\n    tag_339:\n      pop\n      swap1\n      jump\t// out\n    tag_325:\n      dup3\n      dup1\n      sload\n      dup3\n      dup3\n      sstore\n      swap1\n      0x00\n      mstore\n      keccak256(0x00, 0x20)\n      swap1\n      dup2\n      add\n      swap3\n      dup3\n      iszero\n      tag_340\n      jumpi\n      swap2\n      0x20\n      mul\n      dup3\n      add\n    tag_341:\n      dup3\n      dup2\n      gt\n      iszero\n      tag_342\n      jumpi\n      dup3\n      mload\n      dup3\n      sstore\n      swap2\n      0x20\n      add\n      swap2\n      swap1\n      0x01\n      add\n      swap1\n      jump(tag_341)\n    tag_342:\n    tag_340:\n      pop\n      swap1\n      pop\n      tag_343\n      swap2\n      swap1\n      tag_335\n      jump\t// in\n    tag_343:\n      pop\n      swap1\n      jump\t// out\n    tag_335:\n    tag_344:\n      dup1\n      dup3\n      gt\n      iszero\n      tag_345\n      jumpi\n      0x00\n      dup2\n      0x00\n      swap1\n      sstore\n      pop\n      0x01\n      add\n      jump(tag_344)\n    tag_345:\n      pop\n      swap1\n      jump\t// out\n        /* \"#utility.yul\":24:679   */\n    tag_347:\n        /* \"#utility.yul\":120:125   */\n      0x00\n        /* \"#utility.yul\":145:226   */\n      tag_349\n        /* \"#utility.yul\":161:225   */\n      tag_350\n        /* \"#utility.yul\":218:224   */\n      dup5\n        /* \"#utility.yul\":161:225   */\n      tag_351\n      jump\t// in\n    tag_350:\n        /* \"#utility.yul\":145:226   */\n      tag_352\n      jump\t// in\n    tag_349:\n        /* \"#utility.yul\":136:226   */\n      swap1\n      pop\n        /* \"#utility.yul\":246:251   */\n      dup1\n        /* \"#utility.yul\":275:281   */\n      dup4\n        /* \"#utility.yul\":268:273   */\n      dup3\n        /* \"#utility.yul\":261:282   */\n      mstore\n        /* \"#utility.yul\":309:313   */\n      0x20\n        /* \"#utility.yul\":302:307   */\n      dup3\n        /* \"#utility.yul\":298:314   */\n      add\n        /* \"#utility.yul\":291:314   */\n      swap1\n      pop\n        /* \"#utility.yul\":335:341   */\n      dup3\n        /* \"#utility.yul\":385:388   */\n      dup6\n        /* \"#utility.yul\":377:381   */\n      0x20\n        /* \"#utility.yul\":369:375   */\n      dup7\n        /* \"#utility.yul\":365:382   */\n      mul\n        /* \"#utility.yul\":360:363   */\n      dup3\n        /* \"#utility.yul\":356:383   */\n      add\n        /* \"#utility.yul\":353:389   */\n      gt\n        /* \"#utility.yul\":350:352   */\n      iszero\n      tag_353\n      jumpi\n        /* \"#utility.yul\":414:415   */\n      0x00\n        /* \"#utility.yul\":411:412   */\n      dup1\n        /* \"#utility.yul\":404:416   */\n      revert\n        /* \"#utility.yul\":350:352   */\n    tag_353:\n        /* \"#utility.yul\":450:451   */\n      0x00\n        /* \"#utility.yul\":435:673   */\n    tag_354:\n        /* \"#utility.yul\":460:466   */\n      dup6\n        /* \"#utility.yul\":457:458   */\n      dup2\n        /* \"#utility.yul\":454:467   */\n      lt\n        /* \"#utility.yul\":435:673   */\n      iszero\n      tag_356\n      jumpi\n        /* \"#utility.yul\":528:531   */\n      dup2\n        /* \"#utility.yul\":557:594   */\n      tag_357\n        /* \"#utility.yul\":590:593   */\n      dup9\n        /* \"#utility.yul\":578:588   */\n      dup3\n        /* \"#utility.yul\":557:594   */\n      tag_358\n      jump\t// in\n    tag_357:\n        /* \"#utility.yul\":552:555   */\n      dup5\n        /* \"#utility.yul\":545:595   */\n      mstore\n        /* \"#utility.yul\":624:628   */\n      0x20\n        /* \"#utility.yul\":619:622   */\n      dup5\n        /* \"#utility.yul\":615:629   */\n      add\n        /* \"#utility.yul\":608:629   */\n      swap4\n      pop\n        /* \"#utility.yul\":658:662   */\n      0x20\n        /* \"#utility.yul\":653:656   */\n      dup4\n        /* \"#utility.yul\":649:663   */\n      add\n        /* \"#utility.yul\":642:663   */\n      swap3\n      pop\n        /* \"#utility.yul\":495:673   */\n      pop\n        /* \"#utility.yul\":482:483   */\n      0x01\n        /* \"#utility.yul\":479:480   */\n      dup2\n        /* \"#utility.yul\":475:484   */\n      add\n        /* \"#utility.yul\":470:484   */\n      swap1\n      pop\n        /* \"#utility.yul\":435:673   */\n      jump(tag_354)\n    tag_356:\n        /* \"#utility.yul\":439:453   */\n      pop\n        /* \"#utility.yul\":126:679   */\n      pop\n      pop\n      swap4\n      swap3\n      pop\n      pop\n      pop\n      jump\t// out\n        /* \"#utility.yul\":702:1357   */\n    tag_359:\n        /* \"#utility.yul\":798:803   */\n      0x00\n        /* \"#utility.yul\":823:904   */\n      tag_361\n        /* \"#utility.yul\":839:903   */\n      tag_362\n        /* \"#utility.yul\":896:902   */\n      dup5\n        /* \"#utility.yul\":839:903   */\n      tag_363\n      jump\t// in\n    tag_362:\n        /* \"#utility.yul\":823:904   */\n      tag_352\n      jump\t// in\n    tag_361:\n        /* \"#utility.yul\":814:904   */\n      swap1\n      pop\n        /* \"#utility.yul\":924:929   */\n      dup1\n        /* \"#utility.yul\":953:959   */\n      dup4\n        /* \"#utility.yul\":946:951   */\n      dup3\n        /* \"#utility.yul\":939:960   */\n      mstore\n        /* \"#utility.yul\":987:991   */\n      0x20\n        /* \"#utility.yul\":980:985   */\n      dup3\n        /* \"#utility.yul\":976:992   */\n      add\n        /* \"#utility.yul\":969:992   */\n      swap1\n      pop\n        /* \"#utility.yul\":1013:1019   */\n      dup3\n        /* \"#utility.yul\":1063:1066   */\n      dup6\n        /* \"#utility.yul\":1055:1059   */\n      0x20\n        /* \"#utility.yul\":1047:1053   */\n      dup7\n        /* \"#utility.yul\":1043:1060   */\n      mul\n        /* \"#utility.yul\":1038:1041   */\n      dup3\n        /* \"#utility.yul\":1034:1061   */\n      add\n        /* \"#utility.yul\":1031:1067   */\n      gt\n        /* \"#utility.yul\":1028:1030   */\n      iszero\n      tag_364\n      jumpi\n        /* \"#utility.yul\":1092:1093   */\n      0x00\n        /* \"#utility.yul\":1089:1090   */\n      dup1\n        /* \"#utility.yul\":1082:1094   */\n      revert\n        /* \"#utility.yul\":1028:1030   */\n    tag_364:\n        /* \"#utility.yul\":1128:1129   */\n      0x00\n        /* \"#utility.yul\":1113:1351   */\n    tag_365:\n        /* \"#utility.yul\":1138:1144   */\n      dup6\n        /* \"#utility.yul\":1135:1136   */\n      dup2\n        /* \"#utility.yul\":1132:1145   */\n      lt\n        /* \"#utility.yul\":1113:1351   */\n      iszero\n      tag_367\n      jumpi\n        /* \"#utility.yul\":1206:1209   */\n      dup2\n        /* \"#utility.yul\":1235:1272   */\n      tag_368\n        /* \"#utility.yul\":1268:1271   */\n      dup9\n        /* \"#utility.yul\":1256:1266   */\n      dup3\n        /* \"#utility.yul\":1235:1272   */\n      tag_369\n      jump\t// in\n    tag_368:\n        /* \"#utility.yul\":1230:1233   */\n      dup5\n        /* \"#utility.yul\":1223:1273   */\n      mstore\n        /* \"#utility.yul\":1302:1306   */\n      0x20\n        /* \"#utility.yul\":1297:1300   */\n      dup5\n        /* \"#utility.yul\":1293:1307   */\n      add\n        /* \"#utility.yul\":1286:1307   */\n      swap4\n      pop\n        /* \"#utility.yul\":1336:1340   */\n      0x20\n        /* \"#utility.yul\":1331:1334   */\n      dup4\n        /* \"#utility.yul\":1327:1341   */\n      add\n        /* \"#utility.yul\":1320:1341   */\n      swap3\n      pop\n        /* \"#utility.yul\":1173:1351   */\n      pop\n        /* \"#utility.yul\":1160:1161   */\n      0x01\n        /* \"#utility.yul\":1157:1158   */\n      dup2\n        /* \"#utility.yul\":1153:1162   */\n      add\n        /* \"#utility.yul\":1148:1162   */\n      swap1\n      pop\n        /* \"#utility.yul\":1113:1351   */\n      jump(tag_365)\n    tag_367:\n        /* \"#utility.yul\":1117:1131   */\n      pop\n        /* \"#utility.yul\":804:1357   */\n      pop\n      pop\n      swap4\n      swap3\n      pop\n      pop\n      pop\n      jump\t// out\n        /* \"#utility.yul\":1363:1706   */\n    tag_370:\n        /* \"#utility.yul\":1440:1445   */\n      0x00\n        /* \"#utility.yul\":1465:1530   */\n      tag_372\n        /* \"#utility.yul\":1481:1529   */\n      tag_373\n        /* \"#utility.yul\":1522:1528   */\n      dup5\n        /* \"#utility.yul\":1481:1529   */\n      tag_374\n      jump\t// in\n    tag_373:\n        /* \"#utility.yul\":1465:1530   */\n      tag_352\n      jump\t// in\n    tag_372:\n        /* \"#utility.yul\":1456:1530   */\n      swap1\n      pop\n        /* \"#utility.yul\":1553:1559   */\n      dup3\n        /* \"#utility.yul\":1546:1551   */\n      dup2\n        /* \"#utility.yul\":1539:1560   */\n      mstore\n        /* \"#utility.yul\":1591:1595   */\n      0x20\n        /* \"#utility.yul\":1584:1589   */\n      dup2\n        /* \"#utility.yul\":1580:1596   */\n      add\n        /* \"#utility.yul\":1629:1632   */\n      dup5\n        /* \"#utility.yul\":1620:1626   */\n      dup5\n        /* \"#utility.yul\":1615:1618   */\n      dup5\n        /* \"#utility.yul\":1611:1627   */\n      add\n        /* \"#utility.yul\":1608:1633   */\n      gt\n        /* \"#utility.yul\":1605:1607   */\n      iszero\n      tag_375\n      jumpi\n        /* \"#utility.yul\":1646:1647   */\n      0x00\n        /* \"#utility.yul\":1643:1644   */\n      dup1\n        /* \"#utility.yul\":1636:1648   */\n      revert\n        /* \"#utility.yul\":1605:1607   */\n    tag_375:\n        /* \"#utility.yul\":1659:1700   */\n      tag_376\n        /* \"#utility.yul\":1693:1699   */\n      dup5\n        /* \"#utility.yul\":1688:1691   */\n      dup3\n        /* \"#utility.yul\":1683:1686   */\n      dup6\n        /* \"#utility.yul\":1659:1700   */\n      tag_377\n      jump\t// in\n    tag_376:\n        /* \"#utility.yul\":1446:1706   */\n      pop\n      swap4\n      swap3\n      pop\n      pop\n      pop\n      jump\t// out\n        /* \"#utility.yul\":1712:2057   */\n    tag_378:\n        /* \"#utility.yul\":1790:1795   */\n      0x00\n        /* \"#utility.yul\":1815:1881   */\n      tag_380\n        /* \"#utility.yul\":1831:1880   */\n      tag_381\n        /* \"#utility.yul\":1873:1879   */\n      dup5\n        /* \"#utility.yul\":1831:1880   */\n      tag_382\n      jump\t// in\n    tag_381:\n        /* \"#utility.yul\":1815:1881   */\n      tag_352\n      jump\t// in\n    tag_380:\n        /* \"#utility.yul\":1806:1881   */\n      swap1\n      pop\n        /* \"#utility.yul\":1904:1910   */\n      dup3\n        /* \"#utility.yul\":1897:1902   */\n      dup2\n        /* \"#utility.yul\":1890:1911   */\n      mstore\n        /* \"#utility.yul\":1942:1946   */\n      0x20\n        /* \"#utility.yul\":1935:1940   */\n      dup2\n        /* \"#utility.yul\":1931:1947   */\n      add\n        /* \"#utility.yul\":1980:1983   */\n      dup5\n        /* \"#utility.yul\":1971:1977   */\n      dup5\n        /* \"#utility.yul\":1966:1969   */\n      dup5\n        /* \"#utility.yul\":1962:1978   */\n      add\n        /* \"#utility.yul\":1959:1984   */\n      gt\n        /* \"#utility.yul\":1956:1958   */\n      iszero\n      tag_383\n      jumpi\n        /* \"#utility.yul\":1997:1998   */\n      0x00\n        /* \"#utility.yul\":1994:1995   */\n      dup1\n        /* \"#utility.yul\":1987:1999   */\n      revert\n        /* \"#utility.yul\":1956:1958   */\n    tag_383:\n        /* \"#utility.yul\":2010:2051   */\n      tag_384\n        /* \"#utility.yul\":2044:2050   */\n      dup5\n        /* \"#utility.yul\":2039:2042   */\n      dup3\n        /* \"#utility.yul\":2034:2037   */\n      dup6\n        /* \"#utility.yul\":2010:2051   */\n      tag_377\n      jump\t// in\n    tag_384:\n        /* \"#utility.yul\":1796:2057   */\n      pop\n      swap4\n      swap3\n      pop\n      pop\n      pop\n      jump\t// out\n        /* \"#utility.yul\":2063:2202   */\n    tag_358:\n        /* \"#utility.yul\":2109:2114   */\n      0x00\n        /* \"#utility.yul\":2147:2153   */\n      dup2\n        /* \"#utility.yul\":2134:2154   */\n      calldataload\n        /* \"#utility.yul\":2125:2154   */\n      swap1\n      pop\n        /* \"#utility.yul\":2163:2196   */\n      tag_386\n        /* \"#utility.yul\":2190:2195   */\n      dup2\n        /* \"#utility.yul\":2163:2196   */\n      tag_387\n      jump\t// in\n    tag_386:\n        /* \"#utility.yul\":2115:2202   */\n      swap3\n      swap2\n      pop\n      pop\n      jump\t// out\n        /* \"#utility.yul\":2225:2528   */\n    tag_388:\n        /* \"#utility.yul\":2296:2301   */\n      0x00\n        /* \"#utility.yul\":2345:2348   */\n      dup3\n        /* \"#utility.yul\":2338:2342   */\n      0x1f\n        /* \"#utility.yul\":2330:2336   */\n      dup4\n        /* \"#utility.yul\":2326:2343   */\n      add\n        /* \"#utility.yul\":2322:2349   */\n      slt\n        /* \"#utility.yul\":2312:2314   */\n      tag_390\n      jumpi\n        /* \"#utility.yul\":2363:2364   */\n      0x00\n        /* \"#utility.yul\":2360:2361   */\n      dup1\n        /* \"#utility.yul\":2353:2365   */\n      revert\n        /* \"#utility.yul\":2312:2314   */\n    tag_390:\n        /* \"#utility.yul\":2403:2409   */\n      dup2\n        /* \"#utility.yul\":2390:2410   */\n      calldataload\n        /* \"#utility.yul\":2428:2522   */\n      tag_391\n        /* \"#utility.yul\":2518:2521   */\n      dup5\n        /* \"#utility.yul\":2510:2516   */\n      dup3\n        /* \"#utility.yul\":2503:2507   */\n      0x20\n        /* \"#utility.yul\":2495:2501   */\n      dup7\n        /* \"#utility.yul\":2491:2508   */\n      add\n        /* \"#utility.yul\":2428:2522   */\n      tag_347\n      jump\t// in\n    tag_391:\n        /* \"#utility.yul\":2419:2522   */\n      swap2\n      pop\n        /* \"#utility.yul\":2302:2528   */\n      pop\n      swap3\n      swap2\n      pop\n      pop\n      jump\t// out\n        /* \"#utility.yul\":2551:2854   */\n    tag_392:\n        /* \"#utility.yul\":2622:2627   */\n      0x00\n        /* \"#utility.yul\":2671:2674   */\n      dup3\n        /* \"#utility.yul\":2664:2668   */\n      0x1f\n        /* \"#utility.yul\":2656:2662   */\n      dup4\n        /* \"#utility.yul\":2652:2669   */\n      add\n        /* \"#utility.yul\":2648:2675   */\n      slt\n        /* \"#utility.yul\":2638:2640   */\n      tag_394\n      jumpi\n        /* \"#utility.yul\":2689:2690   */\n      0x00\n        /* \"#utility.yul\":2686:2687   */\n      dup1\n        /* \"#utility.yul\":2679:2691   */\n      revert\n        /* \"#utility.yul\":2638:2640   */\n    tag_394:\n        /* \"#utility.yul\":2729:2735   */\n      dup2\n        /* \"#utility.yul\":2716:2736   */\n      calldataload\n        /* \"#utility.yul\":2754:2848   */\n      tag_395\n        /* \"#utility.yul\":2844:2847   */\n      dup5\n        /* \"#utility.yul\":2836:2842   */\n      dup3\n        /* \"#utility.yul\":2829:2833   */\n      0x20\n        /* \"#utility.yul\":2821:2827   */\n      dup7\n        /* \"#utility.yul\":2817:2834   */\n      add\n        /* \"#utility.yul\":2754:2848   */\n      tag_359\n      jump\t// in\n    tag_395:\n        /* \"#utility.yul\":2745:2848   */\n      swap2\n      pop\n        /* \"#utility.yul\":2628:2854   */\n      pop\n      swap3\n      swap2\n      pop\n      pop\n      jump\t// out\n        /* \"#utility.yul\":2860:2993   */\n    tag_396:\n        /* \"#utility.yul\":2903:2908   */\n      0x00\n        /* \"#utility.yul\":2941:2947   */\n      dup2\n        /* \"#utility.yul\":2928:2948   */\n      calldataload\n        /* \"#utility.yul\":2919:2948   */\n      swap1\n      pop\n        /* \"#utility.yul\":2957:2987   */\n      tag_398\n        /* \"#utility.yul\":2981:2986   */\n      dup2\n        /* \"#utility.yul\":2957:2987   */\n      tag_399\n      jump\t// in\n    tag_398:\n        /* \"#utility.yul\":2909:2993   */\n      swap3\n      swap2\n      pop\n      pop\n      jump\t// out\n        /* \"#utility.yul\":2999:3136   */\n    tag_400:\n        /* \"#utility.yul\":3044:3049   */\n      0x00\n        /* \"#utility.yul\":3082:3088   */\n      dup2\n        /* \"#utility.yul\":3069:3089   */\n      calldataload\n        /* \"#utility.yul\":3060:3089   */\n      swap1\n      pop\n        /* \"#utility.yul\":3098:3130   */\n      tag_402\n        /* \"#utility.yul\":3124:3129   */\n      dup2\n        /* \"#utility.yul\":3098:3130   */\n      tag_403\n      jump\t// in\n    tag_402:\n        /* \"#utility.yul\":3050:3136   */\n      swap3\n      swap2\n      pop\n      pop\n      jump\t// out\n        /* \"#utility.yul\":3142:3283   */\n    tag_404:\n        /* \"#utility.yul\":3198:3203   */\n      0x00\n        /* \"#utility.yul\":3229:3235   */\n      dup2\n        /* \"#utility.yul\":3223:3236   */\n      mload\n        /* \"#utility.yul\":3214:3236   */\n      swap1\n      pop\n        /* \"#utility.yul\":3245:3277   */\n      tag_406\n        /* \"#utility.yul\":3271:3276   */\n      dup2\n        /* \"#utility.yul\":3245:3277   */\n      tag_403\n      jump\t// in\n    tag_406:\n        /* \"#utility.yul\":3204:3283   */\n      swap3\n      swap2\n      pop\n      pop\n      jump\t// out\n        /* \"#utility.yul\":3302:3573   */\n    tag_407:\n        /* \"#utility.yul\":3357:3362   */\n      0x00\n        /* \"#utility.yul\":3406:3409   */\n      dup3\n        /* \"#utility.yul\":3399:3403   */\n      0x1f\n        /* \"#utility.yul\":3391:3397   */\n      dup4\n        /* \"#utility.yul\":3387:3404   */\n      add\n        /* \"#utility.yul\":3383:3410   */\n      slt\n        /* \"#utility.yul\":3373:3375   */\n      tag_409\n      jumpi\n        /* \"#utility.yul\":3424:3425   */\n      0x00\n        /* \"#utility.yul\":3421:3422   */\n      dup1\n        /* \"#utility.yul\":3414:3426   */\n      revert\n        /* \"#utility.yul\":3373:3375   */\n    tag_409:\n        /* \"#utility.yul\":3464:3470   */\n      dup2\n        /* \"#utility.yul\":3451:3471   */\n      calldataload\n        /* \"#utility.yul\":3489:3567   */\n      tag_410\n        /* \"#utility.yul\":3563:3566   */\n      dup5\n        /* \"#utility.yul\":3555:3561   */\n      dup3\n        /* \"#utility.yul\":3548:3552   */\n      0x20\n        /* \"#utility.yul\":3540:3546   */\n      dup7\n        /* \"#utility.yul\":3536:3553   */\n      add\n        /* \"#utility.yul\":3489:3567   */\n      tag_370\n      jump\t// in\n    tag_410:\n        /* \"#utility.yul\":3480:3567   */\n      swap2\n      pop\n        /* \"#utility.yul\":3363:3573   */\n      pop\n      swap3\n      swap2\n      pop\n      pop\n      jump\t// out\n        /* \"#utility.yul\":3593:3866   */\n    tag_411:\n        /* \"#utility.yul\":3649:3654   */\n      0x00\n        /* \"#utility.yul\":3698:3701   */\n      dup3\n        /* \"#utility.yul\":3691:3695   */\n      0x1f\n        /* \"#utility.yul\":3683:3689   */\n      dup4\n        /* \"#utility.yul\":3679:3696   */\n      add\n        /* \"#utility.yul\":3675:3702   */\n      slt\n        /* \"#utility.yul\":3665:3667   */\n      tag_413\n      jumpi\n        /* \"#utility.yul\":3716:3717   */\n      0x00\n        /* \"#utility.yul\":3713:3714   */\n      dup1\n        /* \"#utility.yul\":3706:3718   */\n      revert\n        /* \"#utility.yul\":3665:3667   */\n    tag_413:\n        /* \"#utility.yul\":3756:3762   */\n      dup2\n        /* \"#utility.yul\":3743:3763   */\n      calldataload\n        /* \"#utility.yul\":3781:3860   */\n      tag_414\n        /* \"#utility.yul\":3856:3859   */\n      dup5\n        /* \"#utility.yul\":3848:3854   */\n      dup3\n        /* \"#utility.yul\":3841:3845   */\n      0x20\n        /* \"#utility.yul\":3833:3839   */\n      dup7\n        /* \"#utility.yul\":3829:3846   */\n      add\n        /* \"#utility.yul\":3781:3860   */\n      tag_378\n      jump\t// in\n    tag_414:\n        /* \"#utility.yul\":3772:3860   */\n      swap2\n      pop\n        /* \"#utility.yul\":3655:3866   */\n      pop\n      swap3\n      swap2\n      pop\n      pop\n      jump\t// out\n        /* \"#utility.yul\":3872:4011   */\n    tag_369:\n        /* \"#utility.yul\":3918:3923   */\n      0x00\n        /* \"#utility.yul\":3956:3962   */\n      dup2\n        /* \"#utility.yul\":3943:3963   */\n      calldataload\n        /* \"#utility.yul\":3934:3963   */\n      swap1\n      pop\n        /* \"#utility.yul\":3972:4005   */\n      tag_416\n        /* \"#utility.yul\":3999:4004   */\n      dup2\n        /* \"#utility.yul\":3972:4005   */\n      tag_417\n      jump\t// in\n    tag_416:\n        /* \"#utility.yul\":3924:4011   */\n      swap3\n      swap2\n      pop\n      pop\n      jump\t// out\n        /* \"#utility.yul\":4017:4279   */\n    tag_71:\n        /* \"#utility.yul\":4076:4082   */\n      0x00\n        /* \"#utility.yul\":4125:4127   */\n      0x20\n        /* \"#utility.yul\":4113:4122   */\n      dup3\n        /* \"#utility.yul\":4104:4111   */\n      dup5\n        /* \"#utility.yul\":4100:4123   */\n      sub\n        /* \"#utility.yul\":4096:4128   */\n      slt\n        /* \"#utility.yul\":4093:4095   */\n      iszero\n      tag_419\n      jumpi\n        /* \"#utility.yul\":4141:4142   */\n      0x00\n        /* \"#utility.yul\":4138:4139   */\n      dup1\n        /* \"#utility.yul\":4131:4143   */\n      revert\n        /* \"#utility.yul\":4093:4095   */\n    tag_419:\n        /* \"#utility.yul\":4184:4185   */\n      0x00\n        /* \"#utility.yul\":4209:4262   */\n      tag_420\n        /* \"#utility.yul\":4254:4261   */\n      dup5\n        /* \"#utility.yul\":4245:4251   */\n      dup3\n        /* \"#utility.yul\":4234:4243   */\n      dup6\n        /* \"#utility.yul\":4230:4252   */\n      add\n        /* \"#utility.yul\":4209:4262   */\n      tag_358\n      jump\t// in\n    tag_420:\n        /* \"#utility.yul\":4199:4262   */\n      swap2\n      pop\n        /* \"#utility.yul\":4155:4272   */\n      pop\n        /* \"#utility.yul\":4083:4279   */\n      swap3\n      swap2\n      pop\n      pop\n      jump\t// out\n        /* \"#utility.yul\":4285:4692   */\n    tag_91:\n        /* \"#utility.yul\":4353:4359   */\n      0x00\n        /* \"#utility.yul\":4361:4367   */\n      dup1\n        /* \"#utility.yul\":4410:4412   */\n      0x40\n        /* \"#utility.yul\":4398:4407   */\n      dup4\n        /* \"#utility.yul\":4389:4396   */\n      dup6\n        /* \"#utility.yul\":4385:4408   */\n      sub\n        /* \"#utility.yul\":4381:4413   */\n      slt\n        /* \"#utility.yul\":4378:4380   */\n      iszero\n      tag_422\n      jumpi\n        /* \"#utility.yul\":4426:4427   */\n      0x00\n        /* \"#utility.yul\":4423:4424   */\n      dup1\n        /* \"#utility.yul\":4416:4428   */\n      revert\n        /* \"#utility.yul\":4378:4380   */\n    tag_422:\n        /* \"#utility.yul\":4469:4470   */\n      0x00\n        /* \"#utility.yul\":4494:4547   */\n      tag_423\n        /* \"#utility.yul\":4539:4546   */\n      dup6\n        /* \"#utility.yul\":4530:4536   */\n      dup3\n        /* \"#utility.yul\":4519:4528   */\n      dup7\n        /* \"#utility.yul\":4515:4537   */\n      add\n        /* \"#utility.yul\":4494:4547   */\n      tag_358\n      jump\t// in\n    tag_423:\n        /* \"#utility.yul\":4484:4547   */\n      swap3\n      pop\n        /* \"#utility.yul\":4440:4557   */\n      pop\n        /* \"#utility.yul\":4596:4598   */\n      0x20\n        /* \"#utility.yul\":4622:4675   */\n      tag_424\n        /* \"#utility.yul\":4667:4674   */\n      dup6\n        /* \"#utility.yul\":4658:4664   */\n      dup3\n        /* \"#utility.yul\":4647:4656   */\n      dup7\n        /* \"#utility.yul\":4643:4665   */\n      add\n        /* \"#utility.yul\":4622:4675   */\n      tag_358\n      jump\t// in\n    tag_424:\n        /* \"#utility.yul\":4612:4675   */\n      swap2\n      pop\n        /* \"#utility.yul\":4567:4685   */\n      pop\n        /* \"#utility.yul\":4368:4692   */\n      swap3\n      pop\n      swap3\n      swap1\n      pop\n      jump\t// out\n        /* \"#utility.yul\":4698:5250   */\n    tag_49:\n        /* \"#utility.yul\":4775:4781   */\n      0x00\n        /* \"#utility.yul\":4783:4789   */\n      dup1\n        /* \"#utility.yul\":4791:4797   */\n      0x00\n        /* \"#utility.yul\":4840:4842   */\n      0x60\n        /* \"#utility.yul\":4828:4837   */\n      dup5\n        /* \"#utility.yul\":4819:4826   */\n      dup7\n        /* \"#utility.yul\":4815:4838   */\n      sub\n        /* \"#utility.yul\":4811:4843   */\n      slt\n        /* \"#utility.yul\":4808:4810   */\n      iszero\n      tag_426\n      jumpi\n        /* \"#utility.yul\":4856:4857   */\n      0x00\n        /* \"#utility.yul\":4853:4854   */\n      dup1\n        /* \"#utility.yul\":4846:4858   */\n      revert\n        /* \"#utility.yul\":4808:4810   */\n    tag_426:\n        /* \"#utility.yul\":4899:4900   */\n      0x00\n        /* \"#utility.yul\":4924:4977   */\n      tag_427\n        /* \"#utility.yul\":4969:4976   */\n      dup7\n        /* \"#utility.yul\":4960:4966   */\n      dup3\n        /* \"#utility.yul\":4949:4958   */\n      dup8\n        /* \"#utility.yul\":4945:4967   */\n      add\n        /* \"#utility.yul\":4924:4977   */\n      tag_358\n      jump\t// in\n    tag_427:\n        /* \"#utility.yul\":4914:4977   */\n      swap4\n      pop\n        /* \"#utility.yul\":4870:4987   */\n      pop\n        /* \"#utility.yul\":5026:5028   */\n      0x20\n        /* \"#utility.yul\":5052:5105   */\n      tag_428\n        /* \"#utility.yul\":5097:5104   */\n      dup7\n        /* \"#utility.yul\":5088:5094   */\n      dup3\n        /* \"#utility.yul\":5077:5086   */\n      dup8\n        /* \"#utility.yul\":5073:5095   */\n      add\n        /* \"#utility.yul\":5052:5105   */\n      tag_358\n      jump\t// in\n    tag_428:\n        /* \"#utility.yul\":5042:5105   */\n      swap3\n      pop\n        /* \"#utility.yul\":4997:5115   */\n      pop\n        /* \"#utility.yul\":5154:5156   */\n      0x40\n        /* \"#utility.yul\":5180:5233   */\n      tag_429\n        /* \"#utility.yul\":5225:5232   */\n      dup7\n        /* \"#utility.yul\":5216:5222   */\n      dup3\n        /* \"#utility.yul\":5205:5214   */\n      dup8\n        /* \"#utility.yul\":5201:5223   */\n      add\n        /* \"#utility.yul\":5180:5233   */\n      tag_369\n      jump\t// in\n    tag_429:\n        /* \"#utility.yul\":5170:5233   */\n      swap2\n      pop\n        /* \"#utility.yul\":5125:5243   */\n      pop\n        /* \"#utility.yul\":4798:5250   */\n      swap3\n      pop\n      swap3\n      pop\n      swap3\n      jump\t// out\n        /* \"#utility.yul\":5256:6065   */\n    tag_83:\n        /* \"#utility.yul\":5351:5357   */\n      0x00\n        /* \"#utility.yul\":5359:5365   */\n      dup1\n        /* \"#utility.yul\":5367:5373   */\n      0x00\n        /* \"#utility.yul\":5375:5381   */\n      dup1\n        /* \"#utility.yul\":5424:5427   */\n      0x80\n        /* \"#utility.yul\":5412:5421   */\n      dup6\n        /* \"#utility.yul\":5403:5410   */\n      dup8\n        /* \"#utility.yul\":5399:5422   */\n      sub\n        /* \"#utility.yul\":5395:5428   */\n      slt\n        /* \"#utility.yul\":5392:5394   */\n      iszero\n      tag_431\n      jumpi\n        /* \"#utility.yul\":5441:5442   */\n      0x00\n        /* \"#utility.yul\":5438:5439   */\n      dup1\n        /* \"#utility.yul\":5431:5443   */\n      revert\n        /* \"#utility.yul\":5392:5394   */\n    tag_431:\n        /* \"#utility.yul\":5484:5485   */\n      0x00\n        /* \"#utility.yul\":5509:5562   */\n      tag_432\n        /* \"#utility.yul\":5554:5561   */\n      dup8\n        /* \"#utility.yul\":5545:5551   */\n      dup3\n        /* \"#utility.yul\":5534:5543   */\n      dup9\n        /* \"#utility.yul\":5530:5552   */\n      add\n        /* \"#utility.yul\":5509:5562   */\n      tag_358\n      jump\t// in\n    tag_432:\n        /* \"#utility.yul\":5499:5562   */\n      swap5\n      pop\n        /* \"#utility.yul\":5455:5572   */\n      pop\n        /* \"#utility.yul\":5611:5613   */\n      0x20\n        /* \"#utility.yul\":5637:5690   */\n      tag_433\n        /* \"#utility.yul\":5682:5689   */\n      dup8\n        /* \"#utility.yul\":5673:5679   */\n      dup3\n        /* \"#utility.yul\":5662:5671   */\n      dup9\n        /* \"#utility.yul\":5658:5680   */\n      add\n        /* \"#utility.yul\":5637:5690   */\n      tag_358\n      jump\t// in\n    tag_433:\n        /* \"#utility.yul\":5627:5690   */\n      swap4\n      pop\n        /* \"#utility.yul\":5582:5700   */\n      pop\n        /* \"#utility.yul\":5739:5741   */\n      0x40\n        /* \"#utility.yul\":5765:5818   */\n      tag_434\n        /* \"#utility.yul\":5810:5817   */\n      dup8\n        /* \"#utility.yul\":5801:5807   */\n      dup3\n        /* \"#utility.yul\":5790:5799   */\n      dup9\n        /* \"#utility.yul\":5786:5808   */\n      add\n        /* \"#utility.yul\":5765:5818   */\n      tag_369\n      jump\t// in\n    tag_434:\n        /* \"#utility.yul\":5755:5818   */\n      swap3\n      pop\n        /* \"#utility.yul\":5710:5828   */\n      pop\n        /* \"#utility.yul\":5895:5897   */\n      0x60\n        /* \"#utility.yul\":5884:5893   */\n      dup6\n        /* \"#utility.yul\":5880:5898   */\n      add\n        /* \"#utility.yul\":5867:5899   */\n      calldataload\n        /* \"#utility.yul\":5926:5944   */\n      0xffffffffffffffff\n        /* \"#utility.yul\":5918:5924   */\n      dup2\n        /* \"#utility.yul\":5915:5945   */\n      gt\n        /* \"#utility.yul\":5912:5914   */\n      iszero\n      tag_435\n      jumpi\n        /* \"#utility.yul\":5958:5959   */\n      0x00\n        /* \"#utility.yul\":5955:5956   */\n      dup1\n        /* \"#utility.yul\":5948:5960   */\n      revert\n        /* \"#utility.yul\":5912:5914   */\n    tag_435:\n        /* \"#utility.yul\":5986:6048   */\n      tag_436\n        /* \"#utility.yul\":6040:6047   */\n      dup8\n        /* \"#utility.yul\":6031:6037   */\n      dup3\n        /* \"#utility.yul\":6020:6029   */\n      dup9\n        /* \"#utility.yul\":6016:6038   */\n      add\n        /* \"#utility.yul\":5986:6048   */\n      tag_407\n      jump\t// in\n    tag_436:\n        /* \"#utility.yul\":5976:6048   */\n      swap2\n      pop\n        /* \"#utility.yul\":5838:6058   */\n      pop\n        /* \"#utility.yul\":5382:6065   */\n      swap3\n      swap6\n      swap2\n      swap5\n      pop\n      swap3\n      pop\n      jump\t// out\n        /* \"#utility.yul\":6071:7168   */\n    tag_53:\n        /* \"#utility.yul\":6217:6223   */\n      0x00\n        /* \"#utility.yul\":6225:6231   */\n      dup1\n        /* \"#utility.yul\":6233:6239   */\n      0x00\n        /* \"#utility.yul\":6241:6247   */\n      dup1\n        /* \"#utility.yul\":6290:6293   */\n      0x80\n        /* \"#utility.yul\":6278:6287   */\n      dup6\n        /* \"#utility.yul\":6269:6276   */\n      dup8\n        /* \"#utility.yul\":6265:6288   */\n      sub\n        /* \"#utility.yul\":6261:6294   */\n      slt\n        /* \"#utility.yul\":6258:6260   */\n      iszero\n      tag_438\n      jumpi\n        /* \"#utility.yul\":6307:6308   */\n      0x00\n        /* \"#utility.yul\":6304:6305   */\n      dup1\n        /* \"#utility.yul\":6297:6309   */\n      revert\n        /* \"#utility.yul\":6258:6260   */\n    tag_438:\n        /* \"#utility.yul\":6350:6351   */\n      0x00\n        /* \"#utility.yul\":6375:6428   */\n      tag_439\n        /* \"#utility.yul\":6420:6427   */\n      dup8\n        /* \"#utility.yul\":6411:6417   */\n      dup3\n        /* \"#utility.yul\":6400:6409   */\n      dup9\n        /* \"#utility.yul\":6396:6418   */\n      add\n        /* \"#utility.yul\":6375:6428   */\n      tag_358\n      jump\t// in\n    tag_439:\n        /* \"#utility.yul\":6365:6428   */\n      swap5\n      pop\n        /* \"#utility.yul\":6321:6438   */\n      pop\n        /* \"#utility.yul\":6505:6507   */\n      0x20\n        /* \"#utility.yul\":6494:6503   */\n      dup6\n        /* \"#utility.yul\":6490:6508   */\n      add\n        /* \"#utility.yul\":6477:6509   */\n      calldataload\n        /* \"#utility.yul\":6536:6554   */\n      0xffffffffffffffff\n        /* \"#utility.yul\":6528:6534   */\n      dup2\n        /* \"#utility.yul\":6525:6555   */\n      gt\n        /* \"#utility.yul\":6522:6524   */\n      iszero\n      tag_440\n      jumpi\n        /* \"#utility.yul\":6568:6569   */\n      0x00\n        /* \"#utility.yul\":6565:6566   */\n      dup1\n        /* \"#utility.yul\":6558:6570   */\n      revert\n        /* \"#utility.yul\":6522:6524   */\n    tag_440:\n        /* \"#utility.yul\":6596:6674   */\n      tag_441\n        /* \"#utility.yul\":6666:6673   */\n      dup8\n        /* \"#utility.yul\":6657:6663   */\n      dup3\n        /* \"#utility.yul\":6646:6655   */\n      dup9\n        /* \"#utility.yul\":6642:6664   */\n      add\n        /* \"#utility.yul\":6596:6674   */\n      tag_388\n      jump\t// in\n    tag_441:\n        /* \"#utility.yul\":6586:6674   */\n      swap4\n      pop\n        /* \"#utility.yul\":6448:6684   */\n      pop\n        /* \"#utility.yul\":6751:6753   */\n      0x40\n        /* \"#utility.yul\":6740:6749   */\n      dup6\n        /* \"#utility.yul\":6736:6754   */\n      add\n        /* \"#utility.yul\":6723:6755   */\n      calldataload\n        /* \"#utility.yul\":6782:6800   */\n      0xffffffffffffffff\n        /* \"#utility.yul\":6774:6780   */\n      dup2\n        /* \"#utility.yul\":6771:6801   */\n      gt\n        /* \"#utility.yul\":6768:6770   */\n      iszero\n      tag_442\n      jumpi\n        /* \"#utility.yul\":6814:6815   */\n      0x00\n        /* \"#utility.yul\":6811:6812   */\n      dup1\n        /* \"#utility.yul\":6804:6816   */\n      revert\n        /* \"#utility.yul\":6768:6770   */\n    tag_442:\n        /* \"#utility.yul\":6842:6920   */\n      tag_443\n        /* \"#utility.yul\":6912:6919   */\n      dup8\n        /* \"#utility.yul\":6903:6909   */\n      dup3\n        /* \"#utility.yul\":6892:6901   */\n      dup9\n        /* \"#utility.yul\":6888:6910   */\n      add\n        /* \"#utility.yul\":6842:6920   */\n      tag_392\n      jump\t// in\n    tag_443:\n        /* \"#utility.yul\":6832:6920   */\n      swap3\n      pop\n        /* \"#utility.yul\":6694:6930   */\n      pop\n        /* \"#utility.yul\":6997:6999   */\n      0x60\n        /* \"#utility.yul\":6986:6995   */\n      dup6\n        /* \"#utility.yul\":6982:7000   */\n      add\n        /* \"#utility.yul\":6969:7001   */\n      calldataload\n        /* \"#utility.yul\":7028:7046   */\n      0xffffffffffffffff\n        /* \"#utility.yul\":7020:7026   */\n      dup2\n        /* \"#utility.yul\":7017:7047   */\n      gt\n        /* \"#utility.yul\":7014:7016   */\n      iszero\n      tag_444\n      jumpi\n        /* \"#utility.yul\":7060:7061   */\n      0x00\n        /* \"#utility.yul\":7057:7058   */\n      dup1\n        /* \"#utility.yul\":7050:7062   */\n      revert\n        /* \"#utility.yul\":7014:7016   */\n    tag_444:\n        /* \"#utility.yul\":7088:7151   */\n      tag_445\n        /* \"#utility.yul\":7143:7150   */\n      dup8\n        /* \"#utility.yul\":7134:7140   */\n      dup3\n        /* \"#utility.yul\":7123:7132   */\n      dup9\n        /* \"#utility.yul\":7119:7141   */\n      add\n        /* \"#utility.yul\":7088:7151   */\n      tag_411\n      jump\t// in\n    tag_445:\n        /* \"#utility.yul\":7078:7151   */\n      swap2\n      pop\n        /* \"#utility.yul\":6940:7161   */\n      pop\n        /* \"#utility.yul\":6248:7168   */\n      swap3\n      swap6\n      swap2\n      swap5\n      pop\n      swap3\n      pop\n      jump\t// out\n        /* \"#utility.yul\":7174:7575   */\n    tag_79:\n        /* \"#utility.yul\":7239:7245   */\n      0x00\n        /* \"#utility.yul\":7247:7253   */\n      dup1\n        /* \"#utility.yul\":7296:7298   */\n      0x40\n        /* \"#utility.yul\":7284:7293   */\n      dup4\n        /* \"#utility.yul\":7275:7282   */\n      dup6\n        /* \"#utility.yul\":7271:7294   */\n      sub\n        /* \"#utility.yul\":7267:7299   */\n      slt\n        /* \"#utility.yul\":7264:7266   */\n      iszero\n      tag_447\n      jumpi\n        /* \"#utility.yul\":7312:7313   */\n      0x00\n        /* \"#utility.yul\":7309:7310   */\n      dup1\n        /* \"#utility.yul\":7302:7314   */\n      revert\n        /* \"#utility.yul\":7264:7266   */\n    tag_447:\n        /* \"#utility.yul\":7355:7356   */\n      0x00\n        /* \"#utility.yul\":7380:7433   */\n      tag_448\n        /* \"#utility.yul\":7425:7432   */\n      dup6\n        /* \"#utility.yul\":7416:7422   */\n      dup3\n        /* \"#utility.yul\":7405:7414   */\n      dup7\n        /* \"#utility.yul\":7401:7423   */\n      add\n        /* \"#utility.yul\":7380:7433   */\n      tag_358\n      jump\t// in\n    tag_448:\n        /* \"#utility.yul\":7370:7433   */\n      swap3\n      pop\n        /* \"#utility.yul\":7326:7443   */\n      pop\n        /* \"#utility.yul\":7482:7484   */\n      0x20\n        /* \"#utility.yul\":7508:7558   */\n      tag_449\n        /* \"#utility.yul\":7550:7557   */\n      dup6\n        /* \"#utility.yul\":7541:7547   */\n      dup3\n        /* \"#utility.yul\":7530:7539   */\n      dup7\n        /* \"#utility.yul\":7526:7548   */\n      add\n        /* \"#utility.yul\":7508:7558   */\n      tag_396\n      jump\t// in\n    tag_449:\n        /* \"#utility.yul\":7498:7558   */\n      swap2\n      pop\n        /* \"#utility.yul\":7453:7568   */\n      pop\n        /* \"#utility.yul\":7254:7575   */\n      swap3\n      pop\n      swap3\n      swap1\n      pop\n      jump\t// out\n        /* \"#utility.yul\":7581:7988   */\n    tag_41:\n        /* \"#utility.yul\":7649:7655   */\n      0x00\n        /* \"#utility.yul\":7657:7663   */\n      dup1\n        /* \"#utility.yul\":7706:7708   */\n      0x40\n        /* \"#utility.yul\":7694:7703   */\n      dup4\n        /* \"#utility.yul\":7685:7692   */\n      dup6\n        /* \"#utility.yul\":7681:7704   */\n      sub\n        /* \"#utility.yul\":7677:7709   */\n      slt\n        /* \"#utility.yul\":7674:7676   */\n      iszero\n      tag_451\n      jumpi\n        /* \"#utility.yul\":7722:7723   */\n      0x00\n        /* \"#utility.yul\":7719:7720   */\n      dup1\n        /* \"#utility.yul\":7712:7724   */\n      revert\n        /* \"#utility.yul\":7674:7676   */\n    tag_451:\n        /* \"#utility.yul\":7765:7766   */\n      0x00\n        /* \"#utility.yul\":7790:7843   */\n      tag_452\n        /* \"#utility.yul\":7835:7842   */\n      dup6\n        /* \"#utility.yul\":7826:7832   */\n      dup3\n        /* \"#utility.yul\":7815:7824   */\n      dup7\n        /* \"#utility.yul\":7811:7833   */\n      add\n        /* \"#utility.yul\":7790:7843   */\n      tag_358\n      jump\t// in\n    tag_452:\n        /* \"#utility.yul\":7780:7843   */\n      swap3\n      pop\n        /* \"#utility.yul\":7736:7853   */\n      pop\n        /* \"#utility.yul\":7892:7894   */\n      0x20\n        /* \"#utility.yul\":7918:7971   */\n      tag_453\n        /* \"#utility.yul\":7963:7970   */\n      dup6\n        /* \"#utility.yul\":7954:7960   */\n      dup3\n        /* \"#utility.yul\":7943:7952   */\n      dup7\n        /* \"#utility.yul\":7939:7961   */\n      add\n        /* \"#utility.yul\":7918:7971   */\n      tag_369\n      jump\t// in\n    tag_453:\n        /* \"#utility.yul\":7908:7971   */\n      swap2\n      pop\n        /* \"#utility.yul\":7863:7981   */\n      pop\n        /* \"#utility.yul\":7664:7988   */\n      swap3\n      pop\n      swap3\n      swap1\n      pop\n      jump\t// out\n        /* \"#utility.yul\":7994:8254   */\n    tag_25:\n        /* \"#utility.yul\":8052:8058   */\n      0x00\n        /* \"#utility.yul\":8101:8103   */\n      0x20\n        /* \"#utility.yul\":8089:8098   */\n      dup3\n        /* \"#utility.yul\":8080:8087   */\n      dup5\n        /* \"#utility.yul\":8076:8099   */\n      sub\n        /* \"#utility.yul\":8072:8104   */\n      slt\n        /* \"#utility.yul\":8069:8071   */\n      iszero\n      tag_455\n      jumpi\n        /* \"#utility.yul\":8117:8118   */\n      0x00\n        /* \"#utility.yul\":8114:8115   */\n      dup1\n        /* \"#utility.yul\":8107:8119   */\n      revert\n        /* \"#utility.yul\":8069:8071   */\n    tag_455:\n        /* \"#utility.yul\":8160:8161   */\n      0x00\n        /* \"#utility.yul\":8185:8237   */\n      tag_456\n        /* \"#utility.yul\":8229:8236   */\n      dup5\n        /* \"#utility.yul\":8220:8226   */\n      dup3\n        /* \"#utility.yul\":8209:8218   */\n      dup6\n        /* \"#utility.yul\":8205:8227   */\n      add\n        /* \"#utility.yul\":8185:8237   */\n      tag_400\n      jump\t// in\n    tag_456:\n        /* \"#utility.yul\":8175:8237   */\n      swap2\n      pop\n        /* \"#utility.yul\":8131:8247   */\n      pop\n        /* \"#utility.yul\":8059:8254   */\n      swap3\n      swap2\n      pop\n      pop\n      jump\t// out\n        /* \"#utility.yul\":8260:8542   */\n    tag_298:\n        /* \"#utility.yul\":8329:8335   */\n      0x00\n        /* \"#utility.yul\":8378:8380   */\n      0x20\n        /* \"#utility.yul\":8366:8375   */\n      dup3\n        /* \"#utility.yul\":8357:8364   */\n      dup5\n        /* \"#utility.yul\":8353:8376   */\n      sub\n        /* \"#utility.yul\":8349:8381   */\n      slt\n        /* \"#utility.yul\":8346:8348   */\n      iszero\n      tag_458\n      jumpi\n        /* \"#utility.yul\":8394:8395   */\n      0x00\n        /* \"#utility.yul\":8391:8392   */\n      dup1\n        /* \"#utility.yul\":8384:8396   */\n      revert\n        /* \"#utility.yul\":8346:8348   */\n    tag_458:\n        /* \"#utility.yul\":8437:8438   */\n      0x00\n        /* \"#utility.yul\":8462:8525   */\n      tag_459\n        /* \"#utility.yul\":8517:8524   */\n      dup5\n        /* \"#utility.yul\":8508:8514   */\n      dup3\n        /* \"#utility.yul\":8497:8506   */\n      dup6\n        /* \"#utility.yul\":8493:8515   */\n      add\n        /* \"#utility.yul\":8462:8525   */\n      tag_404\n      jump\t// in\n    tag_459:\n        /* \"#utility.yul\":8452:8525   */\n      swap2\n      pop\n        /* \"#utility.yul\":8408:8535   */\n      pop\n        /* \"#utility.yul\":8336:8542   */\n      swap3\n      swap2\n      pop\n      pop\n      jump\t// out\n        /* \"#utility.yul\":8548:8810   */\n    tag_35:\n        /* \"#utility.yul\":8607:8613   */\n      0x00\n        /* \"#utility.yul\":8656:8658   */\n      0x20\n        /* \"#utility.yul\":8644:8653   */\n      dup3\n        /* \"#utility.yul\":8635:8642   */\n      dup5\n        /* \"#utility.yul\":8631:8654   */\n      sub\n        /* \"#utility.yul\":8627:8659   */\n      slt\n        /* \"#utility.yul\":8624:8626   */\n      iszero\n      tag_461\n      jumpi\n        /* \"#utility.yul\":8672:8673   */\n      0x00\n        /* \"#utility.yul\":8669:8670   */\n      dup1\n        /* \"#utility.yul\":8662:8674   */\n      revert\n        /* \"#utility.yul\":8624:8626   */\n    tag_461:\n        /* \"#utility.yul\":8715:8716   */\n      0x00\n        /* \"#utility.yul\":8740:8793   */\n      tag_462\n        /* \"#utility.yul\":8785:8792   */\n      dup5\n        /* \"#utility.yul\":8776:8782   */\n      dup3\n        /* \"#utility.yul\":8765:8774   */\n      dup6\n        /* \"#utility.yul\":8761:8783   */\n      add\n        /* \"#utility.yul\":8740:8793   */\n      tag_369\n      jump\t// in\n    tag_462:\n        /* \"#utility.yul\":8730:8793   */\n      swap2\n      pop\n        /* \"#utility.yul\":8686:8803   */\n      pop\n        /* \"#utility.yul\":8614:8810   */\n      swap3\n      swap2\n      pop\n      pop\n      jump\t// out\n        /* \"#utility.yul\":8816:8995   */\n    tag_463:\n        /* \"#utility.yul\":8885:8895   */\n      0x00\n        /* \"#utility.yul\":8906:8952   */\n      tag_465\n        /* \"#utility.yul\":8948:8951   */\n      dup4\n        /* \"#utility.yul\":8940:8946   */\n      dup4\n        /* \"#utility.yul\":8906:8952   */\n      tag_466\n      jump\t// in\n    tag_465:\n        /* \"#utility.yul\":8984:8988   */\n      0x20\n        /* \"#utility.yul\":8979:8982   */\n      dup4\n        /* \"#utility.yul\":8975:8989   */\n      add\n        /* \"#utility.yul\":8961:8989   */\n      swap1\n      pop\n        /* \"#utility.yul\":8896:8995   */\n      swap3\n      swap2\n      pop\n      pop\n      jump\t// out\n        /* \"#utility.yul\":9001:9180   */\n    tag_467:\n        /* \"#utility.yul\":9070:9080   */\n      0x00\n        /* \"#utility.yul\":9091:9137   */\n      tag_469\n        /* \"#utility.yul\":9133:9136   */\n      dup4\n        /* \"#utility.yul\":9125:9131   */\n      dup4\n        /* \"#utility.yul\":9091:9137   */\n      tag_470\n      jump\t// in\n    tag_469:\n        /* \"#utility.yul\":9169:9173   */\n      0x20\n        /* \"#utility.yul\":9164:9167   */\n      dup4\n        /* \"#utility.yul\":9160:9174   */\n      add\n        /* \"#utility.yul\":9146:9174   */\n      swap1\n      pop\n        /* \"#utility.yul\":9081:9180   */\n      swap3\n      swap2\n      pop\n      pop\n      jump\t// out\n        /* \"#utility.yul\":9186:9294   */\n    tag_466:\n        /* \"#utility.yul\":9263:9287   */\n      tag_472\n        /* \"#utility.yul\":9281:9286   */\n      dup2\n        /* \"#utility.yul\":9263:9287   */\n      tag_473\n      jump\t// in\n    tag_472:\n        /* \"#utility.yul\":9258:9261   */\n      dup3\n        /* \"#utility.yul\":9251:9288   */\n      mstore\n        /* \"#utility.yul\":9241:9294   */\n      pop\n      pop\n      jump\t// out\n        /* \"#utility.yul\":9300:9418   */\n    tag_474:\n        /* \"#utility.yul\":9387:9411   */\n      tag_476\n        /* \"#utility.yul\":9405:9410   */\n      dup2\n        /* \"#utility.yul\":9387:9411   */\n      tag_473\n      jump\t// in\n    tag_476:\n        /* \"#utility.yul\":9382:9385   */\n      dup3\n        /* \"#utility.yul\":9375:9412   */\n      mstore\n        /* \"#utility.yul\":9365:9418   */\n      pop\n      pop\n      jump\t// out\n        /* \"#utility.yul\":9454:10186   */\n    tag_477:\n        /* \"#utility.yul\":9573:9576   */\n      0x00\n        /* \"#utility.yul\":9602:9656   */\n      tag_479\n        /* \"#utility.yul\":9650:9655   */\n      dup3\n        /* \"#utility.yul\":9602:9656   */\n      tag_480\n      jump\t// in\n    tag_479:\n        /* \"#utility.yul\":9672:9758   */\n      tag_481\n        /* \"#utility.yul\":9751:9757   */\n      dup2\n        /* \"#utility.yul\":9746:9749   */\n      dup6\n        /* \"#utility.yul\":9672:9758   */\n      tag_482\n      jump\t// in\n    tag_481:\n        /* \"#utility.yul\":9665:9758   */\n      swap4\n      pop\n        /* \"#utility.yul\":9782:9838   */\n      tag_483\n        /* \"#utility.yul\":9832:9837   */\n      dup4\n        /* \"#utility.yul\":9782:9838   */\n      tag_484\n      jump\t// in\n    tag_483:\n        /* \"#utility.yul\":9861:9868   */\n      dup1\n        /* \"#utility.yul\":9892:9893   */\n      0x00\n        /* \"#utility.yul\":9877:10161   */\n    tag_485:\n        /* \"#utility.yul\":9902:9908   */\n      dup4\n        /* \"#utility.yul\":9899:9900   */\n      dup2\n        /* \"#utility.yul\":9896:9909   */\n      lt\n        /* \"#utility.yul\":9877:10161   */\n      iszero\n      tag_487\n      jumpi\n        /* \"#utility.yul\":9978:9984   */\n      dup2\n        /* \"#utility.yul\":9972:9985   */\n      mload\n        /* \"#utility.yul\":10005:10068   */\n      tag_488\n        /* \"#utility.yul\":10064:10067   */\n      dup9\n        /* \"#utility.yul\":10049:10062   */\n      dup3\n        /* \"#utility.yul\":10005:10068   */\n      tag_463\n      jump\t// in\n    tag_488:\n        /* \"#utility.yul\":9998:10068   */\n      swap8\n      pop\n        /* \"#utility.yul\":10091:10151   */\n      tag_489\n        /* \"#utility.yul\":10144:10150   */\n      dup4\n        /* \"#utility.yul\":10091:10151   */\n      tag_490\n      jump\t// in\n    tag_489:\n        /* \"#utility.yul\":10081:10151   */\n      swap3\n      pop\n        /* \"#utility.yul\":9937:10161   */\n      pop\n        /* \"#utility.yul\":9924:9925   */\n      0x01\n        /* \"#utility.yul\":9921:9922   */\n      dup2\n        /* \"#utility.yul\":9917:9926   */\n      add\n        /* \"#utility.yul\":9912:9926   */\n      swap1\n      pop\n        /* \"#utility.yul\":9877:10161   */\n      jump(tag_485)\n    tag_487:\n        /* \"#utility.yul\":9881:9895   */\n      pop\n        /* \"#utility.yul\":10177:10180   */\n      dup6\n        /* \"#utility.yul\":10170:10180   */\n      swap4\n      pop\n        /* \"#utility.yul\":9578:10186   */\n      pop\n      pop\n      pop\n      swap3\n      swap2\n      pop\n      pop\n      jump\t// out\n        /* \"#utility.yul\":10222:10954   */\n    tag_491:\n        /* \"#utility.yul\":10341:10344   */\n      0x00\n        /* \"#utility.yul\":10370:10424   */\n      tag_493\n        /* \"#utility.yul\":10418:10423   */\n      dup3\n        /* \"#utility.yul\":10370:10424   */\n      tag_494\n      jump\t// in\n    tag_493:\n        /* \"#utility.yul\":10440:10526   */\n      tag_495\n        /* \"#utility.yul\":10519:10525   */\n      dup2\n        /* \"#utility.yul\":10514:10517   */\n      dup6\n        /* \"#utility.yul\":10440:10526   */\n      tag_496\n      jump\t// in\n    tag_495:\n        /* \"#utility.yul\":10433:10526   */\n      swap4\n      pop\n        /* \"#utility.yul\":10550:10606   */\n      tag_497\n        /* \"#utility.yul\":10600:10605   */\n      dup4\n        /* \"#utility.yul\":10550:10606   */\n      tag_498\n      jump\t// in\n    tag_497:\n        /* \"#utility.yul\":10629:10636   */\n      dup1\n        /* \"#utility.yul\":10660:10661   */\n      0x00\n        /* \"#utility.yul\":10645:10929   */\n    tag_499:\n        /* \"#utility.yul\":10670:10676   */\n      dup4\n        /* \"#utility.yul\":10667:10668   */\n      dup2\n        /* \"#utility.yul\":10664:10677   */\n      lt\n        /* \"#utility.yul\":10645:10929   */\n      iszero\n      tag_501\n      jumpi\n        /* \"#utility.yul\":10746:10752   */\n      dup2\n        /* \"#utility.yul\":10740:10753   */\n      mload\n        /* \"#utility.yul\":10773:10836   */\n      tag_502\n        /* \"#utility.yul\":10832:10835   */\n      dup9\n        /* \"#utility.yul\":10817:10830   */\n      dup3\n        /* \"#utility.yul\":10773:10836   */\n      tag_467\n      jump\t// in\n    tag_502:\n        /* \"#utility.yul\":10766:10836   */\n      swap8\n      pop\n        /* \"#utility.yul\":10859:10919   */\n      tag_503\n        /* \"#utility.yul\":10912:10918   */\n      dup4\n        /* \"#utility.yul\":10859:10919   */\n      tag_504\n      jump\t// in\n    tag_503:\n        /* \"#utility.yul\":10849:10919   */\n      swap3\n      pop\n        /* \"#utility.yul\":10705:10929   */\n      pop\n        /* \"#utility.yul\":10692:10693   */\n      0x01\n        /* \"#utility.yul\":10689:10690   */\n      dup2\n        /* \"#utility.yul\":10685:10694   */\n      add\n        /* \"#utility.yul\":10680:10694   */\n      swap1\n      pop\n        /* \"#utility.yul\":10645:10929   */\n      jump(tag_499)\n    tag_501:\n        /* \"#utility.yul\":10649:10663   */\n      pop\n        /* \"#utility.yul\":10945:10948   */\n      dup6\n        /* \"#utility.yul\":10938:10948   */\n      swap4\n      pop\n        /* \"#utility.yul\":10346:10954   */\n      pop\n      pop\n      pop\n      swap3\n      swap2\n      pop\n      pop\n      jump\t// out\n        /* \"#utility.yul\":10960:11069   */\n    tag_505:\n        /* \"#utility.yul\":11041:11062   */\n      tag_507\n        /* \"#utility.yul\":11056:11061   */\n      dup2\n        /* \"#utility.yul\":11041:11062   */\n      tag_508\n      jump\t// in\n    tag_507:\n        /* \"#utility.yul\":11036:11039   */\n      dup3\n        /* \"#utility.yul\":11029:11063   */\n      mstore\n        /* \"#utility.yul\":11019:11069   */\n      pop\n      pop\n      jump\t// out\n        /* \"#utility.yul\":11075:11435   */\n    tag_509:\n        /* \"#utility.yul\":11161:11164   */\n      0x00\n        /* \"#utility.yul\":11189:11227   */\n      tag_511\n        /* \"#utility.yul\":11221:11226   */\n      dup3\n        /* \"#utility.yul\":11189:11227   */\n      tag_512\n      jump\t// in\n    tag_511:\n        /* \"#utility.yul\":11243:11313   */\n      tag_513\n        /* \"#utility.yul\":11306:11312   */\n      dup2\n        /* \"#utility.yul\":11301:11304   */\n      dup6\n        /* \"#utility.yul\":11243:11313   */\n      tag_514\n      jump\t// in\n    tag_513:\n        /* \"#utility.yul\":11236:11313   */\n      swap4\n      pop\n        /* \"#utility.yul\":11322:11374   */\n      tag_515\n        /* \"#utility.yul\":11367:11373   */\n      dup2\n        /* \"#utility.yul\":11362:11365   */\n      dup6\n        /* \"#utility.yul\":11355:11359   */\n      0x20\n        /* \"#utility.yul\":11348:11353   */\n      dup7\n        /* \"#utility.yul\":11344:11360   */\n      add\n        /* \"#utility.yul\":11322:11374   */\n      tag_516\n      jump\t// in\n    tag_515:\n        /* \"#utility.yul\":11399:11428   */\n      tag_517\n        /* \"#utility.yul\":11421:11427   */\n      dup2\n        /* \"#utility.yul\":11399:11428   */\n      tag_518\n      jump\t// in\n    tag_517:\n        /* \"#utility.yul\":11394:11397   */\n      dup5\n        /* \"#utility.yul\":11390:11429   */\n      add\n        /* \"#utility.yul\":11383:11429   */\n      swap2\n      pop\n        /* \"#utility.yul\":11165:11435   */\n      pop\n      swap3\n      swap2\n      pop\n      pop\n      jump\t// out\n        /* \"#utility.yul\":11441:11805   */\n    tag_519:\n        /* \"#utility.yul\":11529:11532   */\n      0x00\n        /* \"#utility.yul\":11557:11596   */\n      tag_521\n        /* \"#utility.yul\":11590:11595   */\n      dup3\n        /* \"#utility.yul\":11557:11596   */\n      tag_522\n      jump\t// in\n    tag_521:\n        /* \"#utility.yul\":11612:11683   */\n      tag_523\n        /* \"#utility.yul\":11676:11682   */\n      dup2\n        /* \"#utility.yul\":11671:11674   */\n      dup6\n        /* \"#utility.yul\":11612:11683   */\n      tag_524\n      jump\t// in\n    tag_523:\n        /* \"#utility.yul\":11605:11683   */\n      swap4\n      pop\n        /* \"#utility.yul\":11692:11744   */\n      tag_525\n        /* \"#utility.yul\":11737:11743   */\n      dup2\n        /* \"#utility.yul\":11732:11735   */\n      dup6\n        /* \"#utility.yul\":11725:11729   */\n      0x20\n        /* \"#utility.yul\":11718:11723   */\n      dup7\n        /* \"#utility.yul\":11714:11730   */\n      add\n        /* \"#utility.yul\":11692:11744   */\n      tag_516\n      jump\t// in\n    tag_525:\n        /* \"#utility.yul\":11769:11798   */\n      tag_526\n        /* \"#utility.yul\":11791:11797   */\n      dup2\n        /* \"#utility.yul\":11769:11798   */\n      tag_518\n      jump\t// in\n    tag_526:\n        /* \"#utility.yul\":11764:11767   */\n      dup5\n        /* \"#utility.yul\":11760:11799   */\n      add\n        /* \"#utility.yul\":11753:11799   */\n      swap2\n      pop\n        /* \"#utility.yul\":11533:11805   */\n      pop\n      swap3\n      swap2\n      pop\n      pop\n      jump\t// out\n        /* \"#utility.yul\":11811:12188   */\n    tag_527:\n        /* \"#utility.yul\":11917:11920   */\n      0x00\n        /* \"#utility.yul\":11945:11984   */\n      tag_529\n        /* \"#utility.yul\":11978:11983   */\n      dup3\n        /* \"#utility.yul\":11945:11984   */\n      tag_522\n      jump\t// in\n    tag_529:\n        /* \"#utility.yul\":12000:12089   */\n      tag_530\n        /* \"#utility.yul\":12082:12088   */\n      dup2\n        /* \"#utility.yul\":12077:12080   */\n      dup6\n        /* \"#utility.yul\":12000:12089   */\n      tag_531\n      jump\t// in\n    tag_530:\n        /* \"#utility.yul\":11993:12089   */\n      swap4\n      pop\n        /* \"#utility.yul\":12098:12150   */\n      tag_532\n        /* \"#utility.yul\":12143:12149   */\n      dup2\n        /* \"#utility.yul\":12138:12141   */\n      dup6\n        /* \"#utility.yul\":12131:12135   */\n      0x20\n        /* \"#utility.yul\":12124:12129   */\n      dup7\n        /* \"#utility.yul\":12120:12136   */\n      add\n        /* \"#utility.yul\":12098:12150   */\n      tag_516\n      jump\t// in\n    tag_532:\n        /* \"#utility.yul\":12175:12181   */\n      dup1\n        /* \"#utility.yul\":12170:12173   */\n      dup5\n        /* \"#utility.yul\":12166:12182   */\n      add\n        /* \"#utility.yul\":12159:12182   */\n      swap2\n      pop\n        /* \"#utility.yul\":11921:12188   */\n      pop\n      swap3\n      swap2\n      pop\n      pop\n      jump\t// out\n        /* \"#utility.yul\":12218:13063   */\n    tag_533:\n        /* \"#utility.yul\":12321:12324   */\n      0x00\n        /* \"#utility.yul\":12358:12363   */\n      dup2\n        /* \"#utility.yul\":12352:12364   */\n      sload\n        /* \"#utility.yul\":12387:12423   */\n      tag_535\n        /* \"#utility.yul\":12413:12422   */\n      dup2\n        /* \"#utility.yul\":12387:12423   */\n      tag_106\n      jump\t// in\n    tag_535:\n        /* \"#utility.yul\":12439:12528   */\n      tag_536\n        /* \"#utility.yul\":12521:12527   */\n      dup2\n        /* \"#utility.yul\":12516:12519   */\n      dup7\n        /* \"#utility.yul\":12439:12528   */\n      tag_531\n      jump\t// in\n    tag_536:\n        /* \"#utility.yul\":12432:12528   */\n      swap5\n      pop\n        /* \"#utility.yul\":12559:12560   */\n      0x01\n        /* \"#utility.yul\":12548:12557   */\n      dup3\n        /* \"#utility.yul\":12544:12561   */\n      and\n        /* \"#utility.yul\":12575:12576   */\n      0x00\n        /* \"#utility.yul\":12570:12707   */\n      dup2\n      eq\n      tag_538\n      jumpi\n        /* \"#utility.yul\":12721:12722   */\n      0x01\n        /* \"#utility.yul\":12716:13057   */\n      dup2\n      eq\n      tag_539\n      jumpi\n        /* \"#utility.yul\":12537:13057   */\n      jump(tag_537)\n        /* \"#utility.yul\":12570:12707   */\n    tag_538:\n        /* \"#utility.yul\":12654:12658   */\n      0xff\n        /* \"#utility.yul\":12650:12659   */\n      not\n        /* \"#utility.yul\":12639:12648   */\n      dup4\n        /* \"#utility.yul\":12635:12660   */\n      and\n        /* \"#utility.yul\":12630:12633   */\n      dup7\n        /* \"#utility.yul\":12623:12661   */\n      mstore\n        /* \"#utility.yul\":12690:12696   */\n      dup2\n        /* \"#utility.yul\":12685:12688   */\n      dup7\n        /* \"#utility.yul\":12681:12697   */\n      add\n        /* \"#utility.yul\":12674:12697   */\n      swap4\n      pop\n        /* \"#utility.yul\":12570:12707   */\n      jump(tag_537)\n        /* \"#utility.yul\":12716:13057   */\n    tag_539:\n        /* \"#utility.yul\":12783:12821   */\n      tag_540\n        /* \"#utility.yul\":12815:12820   */\n      dup6\n        /* \"#utility.yul\":12783:12821   */\n      tag_541\n      jump\t// in\n    tag_540:\n        /* \"#utility.yul\":12843:12844   */\n      0x00\n        /* \"#utility.yul\":12857:13011   */\n    tag_542:\n        /* \"#utility.yul\":12871:12877   */\n      dup4\n        /* \"#utility.yul\":12868:12869   */\n      dup2\n        /* \"#utility.yul\":12865:12878   */\n      lt\n        /* \"#utility.yul\":12857:13011   */\n      iszero\n      tag_544\n      jumpi\n        /* \"#utility.yul\":12945:12952   */\n      dup2\n        /* \"#utility.yul\":12939:12953   */\n      sload\n        /* \"#utility.yul\":12935:12936   */\n      dup2\n        /* \"#utility.yul\":12930:12933   */\n      dup10\n        /* \"#utility.yul\":12926:12937   */\n      add\n        /* \"#utility.yul\":12919:12954   */\n      mstore\n        /* \"#utility.yul\":12995:12996   */\n      0x01\n        /* \"#utility.yul\":12986:12993   */\n      dup3\n        /* \"#utility.yul\":12982:12997   */\n      add\n        /* \"#utility.yul\":12971:12997   */\n      swap2\n      pop\n        /* \"#utility.yul\":12893:12897   */\n      0x20\n        /* \"#utility.yul\":12890:12891   */\n      dup2\n        /* \"#utility.yul\":12886:12898   */\n      add\n        /* \"#utility.yul\":12881:12898   */\n      swap1\n      pop\n        /* \"#utility.yul\":12857:13011   */\n      jump(tag_542)\n    tag_544:\n        /* \"#utility.yul\":13040:13046   */\n      dup4\n        /* \"#utility.yul\":13035:13038   */\n      dup9\n        /* \"#utility.yul\":13031:13047   */\n      add\n        /* \"#utility.yul\":13024:13047   */\n      swap6\n      pop\n        /* \"#utility.yul\":12723:13057   */\n      pop\n      pop\n        /* \"#utility.yul\":12537:13057   */\n    tag_537:\n      pop\n        /* \"#utility.yul\":12325:13063   */\n      pop\n      pop\n      swap3\n      swap2\n      pop\n      pop\n      jump\t// out\n        /* \"#utility.yul\":13069:13435   */\n    tag_545:\n        /* \"#utility.yul\":13211:13214   */\n      0x00\n        /* \"#utility.yul\":13232:13299   */\n      tag_547\n        /* \"#utility.yul\":13296:13298   */\n      0x2d\n        /* \"#utility.yul\":13291:13294   */\n      dup4\n        /* \"#utility.yul\":13232:13299   */\n      tag_524\n      jump\t// in\n    tag_547:\n        /* \"#utility.yul\":13225:13299   */\n      swap2\n      pop\n        /* \"#utility.yul\":13308:13401   */\n      tag_548\n        /* \"#utility.yul\":13397:13400   */\n      dup3\n        /* \"#utility.yul\":13308:13401   */\n      tag_549\n      jump\t// in\n    tag_548:\n        /* \"#utility.yul\":13426:13428   */\n      0x40\n        /* \"#utility.yul\":13421:13424   */\n      dup3\n        /* \"#utility.yul\":13417:13429   */\n      add\n        /* \"#utility.yul\":13410:13429   */\n      swap1\n      pop\n        /* \"#utility.yul\":13215:13435   */\n      swap2\n      swap1\n      pop\n      jump\t// out\n        /* \"#utility.yul\":13441:13807   */\n    tag_550:\n        /* \"#utility.yul\":13583:13586   */\n      0x00\n        /* \"#utility.yul\":13604:13671   */\n      tag_552\n        /* \"#utility.yul\":13668:13670   */\n      0x32\n        /* \"#utility.yul\":13663:13666   */\n      dup4\n        /* \"#utility.yul\":13604:13671   */\n      tag_524\n      jump\t// in\n    tag_552:\n        /* \"#utility.yul\":13597:13671   */\n      swap2\n      pop\n        /* \"#utility.yul\":13680:13773   */\n      tag_553\n        /* \"#utility.yul\":13769:13772   */\n      dup3\n        /* \"#utility.yul\":13680:13773   */\n      tag_554\n      jump\t// in\n    tag_553:\n        /* \"#utility.yul\":13798:13800   */\n      0x40\n        /* \"#utility.yul\":13793:13796   */\n      dup3\n        /* \"#utility.yul\":13789:13801   */\n      add\n        /* \"#utility.yul\":13782:13801   */\n      swap1\n      pop\n        /* \"#utility.yul\":13587:13807   */\n      swap2\n      swap1\n      pop\n      jump\t// out\n        /* \"#utility.yul\":13813:14179   */\n    tag_555:\n        /* \"#utility.yul\":13955:13958   */\n      0x00\n        /* \"#utility.yul\":13976:14043   */\n      tag_557\n        /* \"#utility.yul\":14040:14042   */\n      0x25\n        /* \"#utility.yul\":14035:14038   */\n      dup4\n        /* \"#utility.yul\":13976:14043   */\n      tag_524\n      jump\t// in\n    tag_557:\n        /* \"#utility.yul\":13969:14043   */\n      swap2\n      pop\n        /* \"#utility.yul\":14052:14145   */\n      tag_558\n        /* \"#utility.yul\":14141:14144   */\n      dup3\n        /* \"#utility.yul\":14052:14145   */\n      tag_559\n      jump\t// in\n    tag_558:\n        /* \"#utility.yul\":14170:14172   */\n      0x40\n        /* \"#utility.yul\":14165:14168   */\n      dup3\n        /* \"#utility.yul\":14161:14173   */\n      add\n        /* \"#utility.yul\":14154:14173   */\n      swap1\n      pop\n        /* \"#utility.yul\":13959:14179   */\n      swap2\n      swap1\n      pop\n      jump\t// out\n        /* \"#utility.yul\":14185:14551   */\n    tag_560:\n        /* \"#utility.yul\":14327:14330   */\n      0x00\n        /* \"#utility.yul\":14348:14415   */\n      tag_562\n        /* \"#utility.yul\":14412:14414   */\n      0x1c\n        /* \"#utility.yul\":14407:14410   */\n      dup4\n        /* \"#utility.yul\":14348:14415   */\n      tag_524\n      jump\t// in\n    tag_562:\n        /* \"#utility.yul\":14341:14415   */\n      swap2\n      pop\n        /* \"#utility.yul\":14424:14517   */\n      tag_563\n        /* \"#utility.yul\":14513:14516   */\n      dup3\n        /* \"#utility.yul\":14424:14517   */\n      tag_564\n      jump\t// in\n    tag_563:\n        /* \"#utility.yul\":14542:14544   */\n      0x20\n        /* \"#utility.yul\":14537:14540   */\n      dup3\n        /* \"#utility.yul\":14533:14545   */\n      add\n        /* \"#utility.yul\":14526:14545   */\n      swap1\n      pop\n        /* \"#utility.yul\":14331:14551   */\n      swap2\n      swap1\n      pop\n      jump\t// out\n        /* \"#utility.yul\":14557:14923   */\n    tag_565:\n        /* \"#utility.yul\":14699:14702   */\n      0x00\n        /* \"#utility.yul\":14720:14787   */\n      tag_567\n        /* \"#utility.yul\":14784:14786   */\n      0x24\n        /* \"#utility.yul\":14779:14782   */\n      dup4\n        /* \"#utility.yul\":14720:14787   */\n      tag_524\n      jump\t// in\n    tag_567:\n        /* \"#utility.yul\":14713:14787   */\n      swap2\n      pop\n        /* \"#utility.yul\":14796:14889   */\n      tag_568\n        /* \"#utility.yul\":14885:14888   */\n      dup3\n        /* \"#utility.yul\":14796:14889   */\n      tag_569\n      jump\t// in\n    tag_568:\n        /* \"#utility.yul\":14914:14916   */\n      0x40\n        /* \"#utility.yul\":14909:14912   */\n      dup3\n        /* \"#utility.yul\":14905:14917   */\n      add\n        /* \"#utility.yul\":14898:14917   */\n      swap1\n      pop\n        /* \"#utility.yul\":14703:14923   */\n      swap2\n      swap1\n      pop\n      jump\t// out\n        /* \"#utility.yul\":14929:15295   */\n    tag_570:\n        /* \"#utility.yul\":15071:15074   */\n      0x00\n        /* \"#utility.yul\":15092:15159   */\n      tag_572\n        /* \"#utility.yul\":15156:15158   */\n      0x19\n        /* \"#utility.yul\":15151:15154   */\n      dup4\n        /* \"#utility.yul\":15092:15159   */\n      tag_524\n      jump\t// in\n    tag_572:\n        /* \"#utility.yul\":15085:15159   */\n      swap2\n      pop\n        /* \"#utility.yul\":15168:15261   */\n      tag_573\n        /* \"#utility.yul\":15257:15260   */\n      dup3\n        /* \"#utility.yul\":15168:15261   */\n      tag_574\n      jump\t// in\n    tag_573:\n        /* \"#utility.yul\":15286:15288   */\n      0x20\n        /* \"#utility.yul\":15281:15284   */\n      dup3\n        /* \"#utility.yul\":15277:15289   */\n      add\n        /* \"#utility.yul\":15270:15289   */\n      swap1\n      pop\n        /* \"#utility.yul\":15075:15295   */\n      swap2\n      swap1\n      pop\n      jump\t// out\n        /* \"#utility.yul\":15301:15667   */\n    tag_575:\n        /* \"#utility.yul\":15443:15446   */\n      0x00\n        /* \"#utility.yul\":15464:15531   */\n      tag_577\n        /* \"#utility.yul\":15528:15530   */\n      0x29\n        /* \"#utility.yul\":15523:15526   */\n      dup4\n        /* \"#utility.yul\":15464:15531   */\n      tag_524\n      jump\t// in\n    tag_577:\n        /* \"#utility.yul\":15457:15531   */\n      swap2\n      pop\n        /* \"#utility.yul\":15540:15633   */\n      tag_578\n        /* \"#utility.yul\":15629:15632   */\n      dup3\n        /* \"#utility.yul\":15540:15633   */\n      tag_579\n      jump\t// in\n    tag_578:\n        /* \"#utility.yul\":15658:15660   */\n      0x40\n        /* \"#utility.yul\":15653:15656   */\n      dup3\n        /* \"#utility.yul\":15649:15661   */\n      add\n        /* \"#utility.yul\":15642:15661   */\n      swap1\n      pop\n        /* \"#utility.yul\":15447:15667   */\n      swap2\n      swap1\n      pop\n      jump\t// out\n        /* \"#utility.yul\":15673:16039   */\n    tag_580:\n        /* \"#utility.yul\":15815:15818   */\n      0x00\n        /* \"#utility.yul\":15836:15903   */\n      tag_582\n        /* \"#utility.yul\":15900:15902   */\n      0x20\n        /* \"#utility.yul\":15895:15898   */\n      dup4\n        /* \"#utility.yul\":15836:15903   */\n      tag_524\n      jump\t// in\n    tag_582:\n        /* \"#utility.yul\":15829:15903   */\n      swap2\n      pop\n        /* \"#utility.yul\":15912:16005   */\n      tag_583\n        /* \"#utility.yul\":16001:16004   */\n      dup3\n        /* \"#utility.yul\":15912:16005   */\n      tag_584\n      jump\t// in\n    tag_583:\n        /* \"#utility.yul\":16030:16032   */\n      0x20\n        /* \"#utility.yul\":16025:16028   */\n      dup3\n        /* \"#utility.yul\":16021:16033   */\n      add\n        /* \"#utility.yul\":16014:16033   */\n      swap1\n      pop\n        /* \"#utility.yul\":15819:16039   */\n      swap2\n      swap1\n      pop\n      jump\t// out\n        /* \"#utility.yul\":16045:16411   */\n    tag_585:\n        /* \"#utility.yul\":16187:16190   */\n      0x00\n        /* \"#utility.yul\":16208:16275   */\n      tag_587\n        /* \"#utility.yul\":16272:16274   */\n      0x2f\n        /* \"#utility.yul\":16267:16270   */\n      dup4\n        /* \"#utility.yul\":16208:16275   */\n      tag_524\n      jump\t// in\n    tag_587:\n        /* \"#utility.yul\":16201:16275   */\n      swap2\n      pop\n        /* \"#utility.yul\":16284:16377   */\n      tag_588\n        /* \"#utility.yul\":16373:16376   */\n      dup3\n        /* \"#utility.yul\":16284:16377   */\n      tag_589\n      jump\t// in\n    tag_588:\n        /* \"#utility.yul\":16402:16404   */\n      0x40\n        /* \"#utility.yul\":16397:16400   */\n      dup3\n        /* \"#utility.yul\":16393:16405   */\n      add\n        /* \"#utility.yul\":16386:16405   */\n      swap1\n      pop\n        /* \"#utility.yul\":16191:16411   */\n      swap2\n      swap1\n      pop\n      jump\t// out\n        /* \"#utility.yul\":16417:16783   */\n    tag_590:\n        /* \"#utility.yul\":16559:16562   */\n      0x00\n        /* \"#utility.yul\":16580:16647   */\n      tag_592\n        /* \"#utility.yul\":16644:16646   */\n      0x18\n        /* \"#utility.yul\":16639:16642   */\n      dup4\n        /* \"#utility.yul\":16580:16647   */\n      tag_524\n      jump\t// in\n    tag_592:\n        /* \"#utility.yul\":16573:16647   */\n      swap2\n      pop\n        /* \"#utility.yul\":16656:16749   */\n      tag_593\n        /* \"#utility.yul\":16745:16748   */\n      dup3\n        /* \"#utility.yul\":16656:16749   */\n      tag_594\n      jump\t// in\n    tag_593:\n        /* \"#utility.yul\":16774:16776   */\n      0x20\n        /* \"#utility.yul\":16769:16772   */\n      dup3\n        /* \"#utility.yul\":16765:16777   */\n      add\n        /* \"#utility.yul\":16758:16777   */\n      swap1\n      pop\n        /* \"#utility.yul\":16563:16783   */\n      swap2\n      swap1\n      pop\n      jump\t// out\n        /* \"#utility.yul\":16789:17155   */\n    tag_595:\n        /* \"#utility.yul\":16931:16934   */\n      0x00\n        /* \"#utility.yul\":16952:17019   */\n      tag_597\n        /* \"#utility.yul\":17016:17018   */\n      0x21\n        /* \"#utility.yul\":17011:17014   */\n      dup4\n        /* \"#utility.yul\":16952:17019   */\n      tag_524\n      jump\t// in\n    tag_597:\n        /* \"#utility.yul\":16945:17019   */\n      swap2\n      pop\n        /* \"#utility.yul\":17028:17121   */\n      tag_598\n        /* \"#utility.yul\":17117:17120   */\n      dup3\n        /* \"#utility.yul\":17028:17121   */\n      tag_599\n      jump\t// in\n    tag_598:\n        /* \"#utility.yul\":17146:17148   */\n      0x40\n        /* \"#utility.yul\":17141:17144   */\n      dup3\n        /* \"#utility.yul\":17137:17149   */\n      add\n        /* \"#utility.yul\":17130:17149   */\n      swap1\n      pop\n        /* \"#utility.yul\":16935:17155   */\n      swap2\n      swap1\n      pop\n      jump\t// out\n        /* \"#utility.yul\":17161:17527   */\n    tag_600:\n        /* \"#utility.yul\":17303:17306   */\n      0x00\n        /* \"#utility.yul\":17324:17391   */\n      tag_602\n        /* \"#utility.yul\":17388:17390   */\n      0x3d\n        /* \"#utility.yul\":17383:17386   */\n      dup4\n        /* \"#utility.yul\":17324:17391   */\n      tag_524\n      jump\t// in\n    tag_602:\n        /* \"#utility.yul\":17317:17391   */\n      swap2\n      pop\n        /* \"#utility.yul\":17400:17493   */\n      tag_603\n        /* \"#utility.yul\":17489:17492   */\n      dup3\n        /* \"#utility.yul\":17400:17493   */\n      tag_604\n      jump\t// in\n    tag_603:\n        /* \"#utility.yul\":17518:17520   */\n      0x40\n        /* \"#utility.yul\":17513:17516   */\n      dup3\n        /* \"#utility.yul\":17509:17521   */\n      add\n        /* \"#utility.yul\":17502:17521   */\n      swap1\n      pop\n        /* \"#utility.yul\":17307:17527   */\n      swap2\n      swap1\n      pop\n      jump\t// out\n        /* \"#utility.yul\":17533:17641   */\n    tag_470:\n        /* \"#utility.yul\":17610:17634   */\n      tag_606\n        /* \"#utility.yul\":17628:17633   */\n      dup2\n        /* \"#utility.yul\":17610:17634   */\n      tag_607\n      jump\t// in\n    tag_606:\n        /* \"#utility.yul\":17605:17608   */\n      dup3\n        /* \"#utility.yul\":17598:17635   */\n      mstore\n        /* \"#utility.yul\":17588:17641   */\n      pop\n      pop\n      jump\t// out\n        /* \"#utility.yul\":17647:17765   */\n    tag_608:\n        /* \"#utility.yul\":17734:17758   */\n      tag_610\n        /* \"#utility.yul\":17752:17757   */\n      dup2\n        /* \"#utility.yul\":17734:17758   */\n      tag_607\n      jump\t// in\n    tag_610:\n        /* \"#utility.yul\":17729:17732   */\n      dup3\n        /* \"#utility.yul\":17722:17759   */\n      mstore\n        /* \"#utility.yul\":17712:17765   */\n      pop\n      pop\n      jump\t// out\n        /* \"#utility.yul\":17771:18206   */\n    tag_195:\n        /* \"#utility.yul\":17951:17954   */\n      0x00\n        /* \"#utility.yul\":17973:18068   */\n      tag_612\n        /* \"#utility.yul\":18064:18067   */\n      dup3\n        /* \"#utility.yul\":18055:18061   */\n      dup6\n        /* \"#utility.yul\":17973:18068   */\n      tag_527\n      jump\t// in\n    tag_612:\n        /* \"#utility.yul\":17966:18068   */\n      swap2\n      pop\n        /* \"#utility.yul\":18085:18180   */\n      tag_613\n        /* \"#utility.yul\":18176:18179   */\n      dup3\n        /* \"#utility.yul\":18167:18173   */\n      dup5\n        /* \"#utility.yul\":18085:18180   */\n      tag_527\n      jump\t// in\n    tag_613:\n        /* \"#utility.yul\":18078:18180   */\n      swap2\n      pop\n        /* \"#utility.yul\":18197:18200   */\n      dup2\n        /* \"#utility.yul\":18190:18200   */\n      swap1\n      pop\n        /* \"#utility.yul\":17955:18206   */\n      swap4\n      swap3\n      pop\n      pop\n      pop\n      jump\t// out\n        /* \"#utility.yul\":18212:18641   */\n    tag_133:\n        /* \"#utility.yul\":18389:18392   */\n      0x00\n        /* \"#utility.yul\":18411:18503   */\n      tag_615\n        /* \"#utility.yul\":18499:18502   */\n      dup3\n        /* \"#utility.yul\":18490:18496   */\n      dup6\n        /* \"#utility.yul\":18411:18503   */\n      tag_533\n      jump\t// in\n    tag_615:\n        /* \"#utility.yul\":18404:18503   */\n      swap2\n      pop\n        /* \"#utility.yul\":18520:18615   */\n      tag_616\n        /* \"#utility.yul\":18611:18614   */\n      dup3\n        /* \"#utility.yul\":18602:18608   */\n      dup5\n        /* \"#utility.yul\":18520:18615   */\n      tag_527\n      jump\t// in\n    tag_616:\n        /* \"#utility.yul\":18513:18615   */\n      swap2\n      pop\n        /* \"#utility.yul\":18632:18635   */\n      dup2\n        /* \"#utility.yul\":18625:18635   */\n      swap1\n      pop\n        /* \"#utility.yul\":18393:18641   */\n      swap4\n      swap3\n      pop\n      pop\n      pop\n      jump\t// out\n        /* \"#utility.yul\":18647:18869   */\n    tag_38:\n        /* \"#utility.yul\":18740:18744   */\n      0x00\n        /* \"#utility.yul\":18778:18780   */\n      0x20\n        /* \"#utility.yul\":18767:18776   */\n      dup3\n        /* \"#utility.yul\":18763:18781   */\n      add\n        /* \"#utility.yul\":18755:18781   */\n      swap1\n      pop\n        /* \"#utility.yul\":18791:18862   */\n      tag_618\n        /* \"#utility.yul\":18859:18860   */\n      0x00\n        /* \"#utility.yul\":18848:18857   */\n      dup4\n        /* \"#utility.yul\":18844:18861   */\n      add\n        /* \"#utility.yul\":18835:18841   */\n      dup5\n        /* \"#utility.yul\":18791:18862   */\n      tag_474\n      jump\t// in\n    tag_618:\n        /* \"#utility.yul\":18745:18869   */\n      swap3\n      swap2\n      pop\n      pop\n      jump\t// out\n        /* \"#utility.yul\":18875:19515   */\n    tag_294:\n        /* \"#utility.yul\":19070:19074   */\n      0x00\n        /* \"#utility.yul\":19108:19111   */\n      0x80\n        /* \"#utility.yul\":19097:19106   */\n      dup3\n        /* \"#utility.yul\":19093:19112   */\n      add\n        /* \"#utility.yul\":19085:19112   */\n      swap1\n      pop\n        /* \"#utility.yul\":19122:19193   */\n      tag_620\n        /* \"#utility.yul\":19190:19191   */\n      0x00\n        /* \"#utility.yul\":19179:19188   */\n      dup4\n        /* \"#utility.yul\":19175:19192   */\n      add\n        /* \"#utility.yul\":19166:19172   */\n      dup8\n        /* \"#utility.yul\":19122:19193   */\n      tag_474\n      jump\t// in\n    tag_620:\n        /* \"#utility.yul\":19203:19275   */\n      tag_621\n        /* \"#utility.yul\":19271:19273   */\n      0x20\n        /* \"#utility.yul\":19260:19269   */\n      dup4\n        /* \"#utility.yul\":19256:19274   */\n      add\n        /* \"#utility.yul\":19247:19253   */\n      dup7\n        /* \"#utility.yul\":19203:19275   */\n      tag_474\n      jump\t// in\n    tag_621:\n        /* \"#utility.yul\":19285:19357   */\n      tag_622\n        /* \"#utility.yul\":19353:19355   */\n      0x40\n        /* \"#utility.yul\":19342:19351   */\n      dup4\n        /* \"#utility.yul\":19338:19356   */\n      add\n        /* \"#utility.yul\":19329:19335   */\n      dup6\n        /* \"#utility.yul\":19285:19357   */\n      tag_608\n      jump\t// in\n    tag_622:\n        /* \"#utility.yul\":19404:19413   */\n      dup2\n        /* \"#utility.yul\":19398:19402   */\n      dup2\n        /* \"#utility.yul\":19394:19414   */\n      sub\n        /* \"#utility.yul\":19389:19391   */\n      0x60\n        /* \"#utility.yul\":19378:19387   */\n      dup4\n        /* \"#utility.yul\":19374:19392   */\n      add\n        /* \"#utility.yul\":19367:19415   */\n      mstore\n        /* \"#utility.yul\":19432:19508   */\n      tag_623\n        /* \"#utility.yul\":19503:19507   */\n      dup2\n        /* \"#utility.yul\":19494:19500   */\n      dup5\n        /* \"#utility.yul\":19432:19508   */\n      tag_509\n      jump\t// in\n    tag_623:\n        /* \"#utility.yul\":19424:19508   */\n      swap1\n      pop\n        /* \"#utility.yul\":19075:19515   */\n      swap6\n      swap5\n      pop\n      pop\n      pop\n      pop\n      pop\n      jump\t// out\n        /* \"#utility.yul\":19521:19894   */\n    tag_64:\n        /* \"#utility.yul\":19664:19668   */\n      0x00\n        /* \"#utility.yul\":19702:19704   */\n      0x20\n        /* \"#utility.yul\":19691:19700   */\n      dup3\n        /* \"#utility.yul\":19687:19705   */\n      add\n        /* \"#utility.yul\":19679:19705   */\n      swap1\n      pop\n        /* \"#utility.yul\":19751:19760   */\n      dup2\n        /* \"#utility.yul\":19745:19749   */\n      dup2\n        /* \"#utility.yul\":19741:19761   */\n      sub\n        /* \"#utility.yul\":19737:19738   */\n      0x00\n        /* \"#utility.yul\":19726:19735   */\n      dup4\n        /* \"#utility.yul\":19722:19739   */\n      add\n        /* \"#utility.yul\":19715:19762   */\n      mstore\n        /* \"#utility.yul\":19779:19887   */\n      tag_625\n        /* \"#utility.yul\":19882:19886   */\n      dup2\n        /* \"#utility.yul\":19873:19879   */\n      dup5\n        /* \"#utility.yul\":19779:19887   */\n      tag_477\n      jump\t// in\n    tag_625:\n        /* \"#utility.yul\":19771:19887   */\n      swap1\n      pop\n        /* \"#utility.yul\":19669:19894   */\n      swap3\n      swap2\n      pop\n      pop\n      jump\t// out\n        /* \"#utility.yul\":19900:20273   */\n    tag_98:\n        /* \"#utility.yul\":20043:20047   */\n      0x00\n        /* \"#utility.yul\":20081:20083   */\n      0x20\n        /* \"#utility.yul\":20070:20079   */\n      dup3\n        /* \"#utility.yul\":20066:20084   */\n      add\n        /* \"#utility.yul\":20058:20084   */\n      swap1\n      pop\n        /* \"#utility.yul\":20130:20139   */\n      dup2\n        /* \"#utility.yul\":20124:20128   */\n      dup2\n        /* \"#utility.yul\":20120:20140   */\n      sub\n        /* \"#utility.yul\":20116:20117   */\n      0x00\n        /* \"#utility.yul\":20105:20114   */\n      dup4\n        /* \"#utility.yul\":20101:20118   */\n      add\n        /* \"#utility.yul\":20094:20141   */\n      mstore\n        /* \"#utility.yul\":20158:20266   */\n      tag_627\n        /* \"#utility.yul\":20261:20265   */\n      dup2\n        /* \"#utility.yul\":20252:20258   */\n      dup5\n        /* \"#utility.yul\":20158:20266   */\n      tag_491\n      jump\t// in\n    tag_627:\n        /* \"#utility.yul\":20150:20266   */\n      swap1\n      pop\n        /* \"#utility.yul\":20048:20273   */\n      swap3\n      swap2\n      pop\n      pop\n      jump\t// out\n        /* \"#utility.yul\":20279:20489   */\n    tag_28:\n        /* \"#utility.yul\":20366:20370   */\n      0x00\n        /* \"#utility.yul\":20404:20406   */\n      0x20\n        /* \"#utility.yul\":20393:20402   */\n      dup3\n        /* \"#utility.yul\":20389:20407   */\n      add\n        /* \"#utility.yul\":20381:20407   */\n      swap1\n      pop\n        /* \"#utility.yul\":20417:20482   */\n      tag_629\n        /* \"#utility.yul\":20479:20480   */\n      0x00\n        /* \"#utility.yul\":20468:20477   */\n      dup4\n        /* \"#utility.yul\":20464:20481   */\n      add\n        /* \"#utility.yul\":20455:20461   */\n      dup5\n        /* \"#utility.yul\":20417:20482   */\n      tag_505\n      jump\t// in\n    tag_629:\n        /* \"#utility.yul\":20371:20489   */\n      swap3\n      swap2\n      pop\n      pop\n      jump\t// out\n        /* \"#utility.yul\":20495:20808   */\n    tag_32:\n        /* \"#utility.yul\":20608:20612   */\n      0x00\n        /* \"#utility.yul\":20646:20648   */\n      0x20\n        /* \"#utility.yul\":20635:20644   */\n      dup3\n        /* \"#utility.yul\":20631:20649   */\n      add\n        /* \"#utility.yul\":20623:20649   */\n      swap1\n      pop\n        /* \"#utility.yul\":20695:20704   */\n      dup2\n        /* \"#utility.yul\":20689:20693   */\n      dup2\n        /* \"#utility.yul\":20685:20705   */\n      sub\n        /* \"#utility.yul\":20681:20682   */\n      0x00\n        /* \"#utility.yul\":20670:20679   */\n      dup4\n        /* \"#utility.yul\":20666:20683   */\n      add\n        /* \"#utility.yul\":20659:20706   */\n      mstore\n        /* \"#utility.yul\":20723:20801   */\n      tag_631\n        /* \"#utility.yul\":20796:20800   */\n      dup2\n        /* \"#utility.yul\":20787:20793   */\n      dup5\n        /* \"#utility.yul\":20723:20801   */\n      tag_519\n      jump\t// in\n    tag_631:\n        /* \"#utility.yul\":20715:20801   */\n      swap1\n      pop\n        /* \"#utility.yul\":20613:20808   */\n      swap3\n      swap2\n      pop\n      pop\n      jump\t// out\n        /* \"#utility.yul\":20814:21233   */\n    tag_140:\n        /* \"#utility.yul\":20980:20984   */\n      0x00\n        /* \"#utility.yul\":21018:21020   */\n      0x20\n        /* \"#utility.yul\":21007:21016   */\n      dup3\n        /* \"#utility.yul\":21003:21021   */\n      add\n        /* \"#utility.yul\":20995:21021   */\n      swap1\n      pop\n        /* \"#utility.yul\":21067:21076   */\n      dup2\n        /* \"#utility.yul\":21061:21065   */\n      dup2\n        /* \"#utility.yul\":21057:21077   */\n      sub\n        /* \"#utility.yul\":21053:21054   */\n      0x00\n        /* \"#utility.yul\":21042:21051   */\n      dup4\n        /* \"#utility.yul\":21038:21055   */\n      add\n        /* \"#utility.yul\":21031:21078   */\n      mstore\n        /* \"#utility.yul\":21095:21226   */\n      tag_633\n        /* \"#utility.yul\":21221:21225   */\n      dup2\n        /* \"#utility.yul\":21095:21226   */\n      tag_545\n      jump\t// in\n    tag_633:\n        /* \"#utility.yul\":21087:21226   */\n      swap1\n      pop\n        /* \"#utility.yul\":20985:21233   */\n      swap2\n      swap1\n      pop\n      jump\t// out\n        /* \"#utility.yul\":21239:21658   */\n    tag_257:\n        /* \"#utility.yul\":21405:21409   */\n      0x00\n        /* \"#utility.yul\":21443:21445   */\n      0x20\n        /* \"#utility.yul\":21432:21441   */\n      dup3\n        /* \"#utility.yul\":21428:21446   */\n      add\n        /* \"#utility.yul\":21420:21446   */\n      swap1\n      pop\n        /* \"#utility.yul\":21492:21501   */\n      dup2\n        /* \"#utility.yul\":21486:21490   */\n      dup2\n        /* \"#utility.yul\":21482:21502   */\n      sub\n        /* \"#utility.yul\":21478:21479   */\n      0x00\n        /* \"#utility.yul\":21467:21476   */\n      dup4\n        /* \"#utility.yul\":21463:21480   */\n      add\n        /* \"#utility.yul\":21456:21503   */\n      mstore\n        /* \"#utility.yul\":21520:21651   */\n      tag_635\n        /* \"#utility.yul\":21646:21650   */\n      dup2\n        /* \"#utility.yul\":21520:21651   */\n      tag_550\n      jump\t// in\n    tag_635:\n        /* \"#utility.yul\":21512:21651   */\n      swap1\n      pop\n        /* \"#utility.yul\":21410:21658   */\n      swap2\n      swap1\n      pop\n      jump\t// out\n        /* \"#utility.yul\":21664:22083   */\n    tag_227:\n        /* \"#utility.yul\":21830:21834   */\n      0x00\n        /* \"#utility.yul\":21868:21870   */\n      0x20\n        /* \"#utility.yul\":21857:21866   */\n      dup3\n        /* \"#utility.yul\":21853:21871   */\n      add\n        /* \"#utility.yul\":21845:21871   */\n      swap1\n      pop\n        /* \"#utility.yul\":21917:21926   */\n      dup2\n        /* \"#utility.yul\":21911:21915   */\n      dup2\n        /* \"#utility.yul\":21907:21927   */\n      sub\n        /* \"#utility.yul\":21903:21904   */\n      0x00\n        /* \"#utility.yul\":21892:21901   */\n      dup4\n        /* \"#utility.yul\":21888:21905   */\n      add\n        /* \"#utility.yul\":21881:21928   */\n      mstore\n        /* \"#utility.yul\":21945:22076   */\n      tag_637\n        /* \"#utility.yul\":22071:22075   */\n      dup2\n        /* \"#utility.yul\":21945:22076   */\n      tag_555\n      jump\t// in\n    tag_637:\n        /* \"#utility.yul\":21937:22076   */\n      swap1\n      pop\n        /* \"#utility.yul\":21835:22083   */\n      swap2\n      swap1\n      pop\n      jump\t// out\n        /* \"#utility.yul\":22089:22508   */\n    tag_317:\n        /* \"#utility.yul\":22255:22259   */\n      0x00\n        /* \"#utility.yul\":22293:22295   */\n      0x20\n        /* \"#utility.yul\":22282:22291   */\n      dup3\n        /* \"#utility.yul\":22278:22296   */\n      add\n        /* \"#utility.yul\":22270:22296   */\n      swap1\n      pop\n        /* \"#utility.yul\":22342:22351   */\n      dup2\n        /* \"#utility.yul\":22336:22340   */\n      dup2\n        /* \"#utility.yul\":22332:22352   */\n      sub\n        /* \"#utility.yul\":22328:22329   */\n      0x00\n        /* \"#utility.yul\":22317:22326   */\n      dup4\n        /* \"#utility.yul\":22313:22330   */\n      add\n        /* \"#utility.yul\":22306:22353   */\n      mstore\n        /* \"#utility.yul\":22370:22501   */\n      tag_639\n        /* \"#utility.yul\":22496:22500   */\n      dup2\n        /* \"#utility.yul\":22370:22501   */\n      tag_560\n      jump\t// in\n    tag_639:\n        /* \"#utility.yul\":22362:22501   */\n      swap1\n      pop\n        /* \"#utility.yul\":22260:22508   */\n      swap2\n      swap1\n      pop\n      jump\t// out\n        /* \"#utility.yul\":22514:22933   */\n    tag_230:\n        /* \"#utility.yul\":22680:22684   */\n      0x00\n        /* \"#utility.yul\":22718:22720   */\n      0x20\n        /* \"#utility.yul\":22707:22716   */\n      dup3\n        /* \"#utility.yul\":22703:22721   */\n      add\n        /* \"#utility.yul\":22695:22721   */\n      swap1\n      pop\n        /* \"#utility.yul\":22767:22776   */\n      dup2\n        /* \"#utility.yul\":22761:22765   */\n      dup2\n        /* \"#utility.yul\":22757:22777   */\n      sub\n        /* \"#utility.yul\":22753:22754   */\n      0x00\n        /* \"#utility.yul\":22742:22751   */\n      dup4\n        /* \"#utility.yul\":22738:22755   */\n      add\n        /* \"#utility.yul\":22731:22778   */\n      mstore\n        /* \"#utility.yul\":22795:22926   */\n      tag_641\n        /* \"#utility.yul\":22921:22925   */\n      dup2\n        /* \"#utility.yul\":22795:22926   */\n      tag_565\n      jump\t// in\n    tag_641:\n        /* \"#utility.yul\":22787:22926   */\n      swap1\n      pop\n        /* \"#utility.yul\":22685:22933   */\n      swap2\n      swap1\n      pop\n      jump\t// out\n        /* \"#utility.yul\":22939:23358   */\n    tag_249:\n        /* \"#utility.yul\":23105:23109   */\n      0x00\n        /* \"#utility.yul\":23143:23145   */\n      0x20\n        /* \"#utility.yul\":23132:23141   */\n      dup3\n        /* \"#utility.yul\":23128:23146   */\n      add\n        /* \"#utility.yul\":23120:23146   */\n      swap1\n      pop\n        /* \"#utility.yul\":23192:23201   */\n      dup2\n        /* \"#utility.yul\":23186:23190   */\n      dup2\n        /* \"#utility.yul\":23182:23202   */\n      sub\n        /* \"#utility.yul\":23178:23179   */\n      0x00\n        /* \"#utility.yul\":23167:23176   */\n      dup4\n        /* \"#utility.yul\":23163:23180   */\n      add\n        /* \"#utility.yul\":23156:23203   */\n      mstore\n        /* \"#utility.yul\":23220:23351   */\n      tag_643\n        /* \"#utility.yul\":23346:23350   */\n      dup2\n        /* \"#utility.yul\":23220:23351   */\n      tag_570\n      jump\t// in\n    tag_643:\n        /* \"#utility.yul\":23212:23351   */\n      swap1\n      pop\n        /* \"#utility.yul\":23110:23358   */\n      swap2\n      swap1\n      pop\n      jump\t// out\n        /* \"#utility.yul\":23364:23783   */\n    tag_164:\n        /* \"#utility.yul\":23530:23534   */\n      0x00\n        /* \"#utility.yul\":23568:23570   */\n      0x20\n        /* \"#utility.yul\":23557:23566   */\n      dup3\n        /* \"#utility.yul\":23553:23571   */\n      add\n        /* \"#utility.yul\":23545:23571   */\n      swap1\n      pop\n        /* \"#utility.yul\":23617:23626   */\n      dup2\n        /* \"#utility.yul\":23611:23615   */\n      dup2\n        /* \"#utility.yul\":23607:23627   */\n      sub\n        /* \"#utility.yul\":23603:23604   */\n      0x00\n        /* \"#utility.yul\":23592:23601   */\n      dup4\n        /* \"#utility.yul\":23588:23605   */\n      add\n        /* \"#utility.yul\":23581:23628   */\n      mstore\n        /* \"#utility.yul\":23645:23776   */\n      tag_645\n        /* \"#utility.yul\":23771:23775   */\n      dup2\n        /* \"#utility.yul\":23645:23776   */\n      tag_575\n      jump\t// in\n    tag_645:\n        /* \"#utility.yul\":23637:23776   */\n      swap1\n      pop\n        /* \"#utility.yul\":23535:23783   */\n      swap2\n      swap1\n      pop\n      jump\t// out\n        /* \"#utility.yul\":23789:24208   */\n    tag_313:\n        /* \"#utility.yul\":23955:23959   */\n      0x00\n        /* \"#utility.yul\":23993:23995   */\n      0x20\n        /* \"#utility.yul\":23982:23991   */\n      dup3\n        /* \"#utility.yul\":23978:23996   */\n      add\n        /* \"#utility.yul\":23970:23996   */\n      swap1\n      pop\n        /* \"#utility.yul\":24042:24051   */\n      dup2\n        /* \"#utility.yul\":24036:24040   */\n      dup2\n        /* \"#utility.yul\":24032:24052   */\n      sub\n        /* \"#utility.yul\":24028:24029   */\n      0x00\n        /* \"#utility.yul\":24017:24026   */\n      dup4\n        /* \"#utility.yul\":24013:24030   */\n      add\n        /* \"#utility.yul\":24006:24053   */\n      mstore\n        /* \"#utility.yul\":24070:24201   */\n      tag_647\n        /* \"#utility.yul\":24196:24200   */\n      dup2\n        /* \"#utility.yul\":24070:24201   */\n      tag_580\n      jump\t// in\n    tag_647:\n        /* \"#utility.yul\":24062:24201   */\n      swap1\n      pop\n        /* \"#utility.yul\":23960:24208   */\n      swap2\n      swap1\n      pop\n      jump\t// out\n        /* \"#utility.yul\":24214:24633   */\n    tag_187:\n        /* \"#utility.yul\":24380:24384   */\n      0x00\n        /* \"#utility.yul\":24418:24420   */\n      0x20\n        /* \"#utility.yul\":24407:24416   */\n      dup3\n        /* \"#utility.yul\":24403:24421   */\n      add\n        /* \"#utility.yul\":24395:24421   */\n      swap1\n      pop\n        /* \"#utility.yul\":24467:24476   */\n      dup2\n        /* \"#utility.yul\":24461:24465   */\n      dup2\n        /* \"#utility.yul\":24457:24477   */\n      sub\n        /* \"#utility.yul\":24453:24454   */\n      0x00\n        /* \"#utility.yul\":24442:24451   */\n      dup4\n        /* \"#utility.yul\":24438:24455   */\n      add\n        /* \"#utility.yul\":24431:24478   */\n      mstore\n        /* \"#utility.yul\":24495:24626   */\n      tag_649\n        /* \"#utility.yul\":24621:24625   */\n      dup2\n        /* \"#utility.yul\":24495:24626   */\n      tag_585\n      jump\t// in\n    tag_649:\n        /* \"#utility.yul\":24487:24626   */\n      swap1\n      pop\n        /* \"#utility.yul\":24385:24633   */\n      swap2\n      swap1\n      pop\n      jump\t// out\n        /* \"#utility.yul\":24639:25058   */\n    tag_160:\n        /* \"#utility.yul\":24805:24809   */\n      0x00\n        /* \"#utility.yul\":24843:24845   */\n      0x20\n        /* \"#utility.yul\":24832:24841   */\n      dup3\n        /* \"#utility.yul\":24828:24846   */\n      add\n        /* \"#utility.yul\":24820:24846   */\n      swap1\n      pop\n        /* \"#utility.yul\":24892:24901   */\n      dup2\n        /* \"#utility.yul\":24886:24890   */\n      dup2\n        /* \"#utility.yul\":24882:24902   */\n      sub\n        /* \"#utility.yul\":24878:24879   */\n      0x00\n        /* \"#utility.yul\":24867:24876   */\n      dup4\n        /* \"#utility.yul\":24863:24880   */\n      add\n        /* \"#utility.yul\":24856:24903   */\n      mstore\n        /* \"#utility.yul\":24920:25051   */\n      tag_651\n        /* \"#utility.yul\":25046:25050   */\n      dup2\n        /* \"#utility.yul\":24920:25051   */\n      tag_590\n      jump\t// in\n    tag_651:\n        /* \"#utility.yul\":24912:25051   */\n      swap1\n      pop\n        /* \"#utility.yul\":24810:25058   */\n      swap2\n      swap1\n      pop\n      jump\t// out\n        /* \"#utility.yul\":25064:25483   */\n    tag_118:\n        /* \"#utility.yul\":25230:25234   */\n      0x00\n        /* \"#utility.yul\":25268:25270   */\n      0x20\n        /* \"#utility.yul\":25257:25266   */\n      dup3\n        /* \"#utility.yul\":25253:25271   */\n      add\n        /* \"#utility.yul\":25245:25271   */\n      swap1\n      pop\n        /* \"#utility.yul\":25317:25326   */\n      dup2\n        /* \"#utility.yul\":25311:25315   */\n      dup2\n        /* \"#utility.yul\":25307:25327   */\n      sub\n        /* \"#utility.yul\":25303:25304   */\n      0x00\n        /* \"#utility.yul\":25292:25301   */\n      dup4\n        /* \"#utility.yul\":25288:25305   */\n      add\n        /* \"#utility.yul\":25281:25328   */\n      mstore\n        /* \"#utility.yul\":25345:25476   */\n      tag_653\n        /* \"#utility.yul\":25471:25475   */\n      dup2\n        /* \"#utility.yul\":25345:25476   */\n      tag_595\n      jump\t// in\n    tag_653:\n        /* \"#utility.yul\":25337:25476   */\n      swap1\n      pop\n        /* \"#utility.yul\":25235:25483   */\n      swap2\n      swap1\n      pop\n      jump\t// out\n        /* \"#utility.yul\":25489:25908   */\n    tag_126:\n        /* \"#utility.yul\":25655:25659   */\n      0x00\n        /* \"#utility.yul\":25693:25695   */\n      0x20\n        /* \"#utility.yul\":25682:25691   */\n      dup3\n        /* \"#utility.yul\":25678:25696   */\n      add\n        /* \"#utility.yul\":25670:25696   */\n      swap1\n      pop\n        /* \"#utility.yul\":25742:25751   */\n      dup2\n        /* \"#utility.yul\":25736:25740   */\n      dup2\n        /* \"#utility.yul\":25732:25752   */\n      sub\n        /* \"#utility.yul\":25728:25729   */\n      0x00\n        /* \"#utility.yul\":25717:25726   */\n      dup4\n        /* \"#utility.yul\":25713:25730   */\n      add\n        /* \"#utility.yul\":25706:25753   */\n      mstore\n        /* \"#utility.yul\":25770:25901   */\n      tag_655\n        /* \"#utility.yul\":25896:25900   */\n      dup2\n        /* \"#utility.yul\":25770:25901   */\n      tag_600\n      jump\t// in\n    tag_655:\n        /* \"#utility.yul\":25762:25901   */\n      swap1\n      pop\n        /* \"#utility.yul\":25660:25908   */\n      swap2\n      swap1\n      pop\n      jump\t// out\n        /* \"#utility.yul\":25914:26136   */\n    tag_56:\n        /* \"#utility.yul\":26007:26011   */\n      0x00\n        /* \"#utility.yul\":26045:26047   */\n      0x20\n        /* \"#utility.yul\":26034:26043   */\n      dup3\n        /* \"#utility.yul\":26030:26048   */\n      add\n        /* \"#utility.yul\":26022:26048   */\n      swap1\n      pop\n        /* \"#utility.yul\":26058:26129   */\n      tag_657\n        /* \"#utility.yul\":26126:26127   */\n      0x00\n        /* \"#utility.yul\":26115:26124   */\n      dup4\n        /* \"#utility.yul\":26111:26128   */\n      add\n        /* \"#utility.yul\":26102:26108   */\n      dup5\n        /* \"#utility.yul\":26058:26129   */\n      tag_608\n      jump\t// in\n    tag_657:\n        /* \"#utility.yul\":26012:26136   */\n      swap3\n      swap2\n      pop\n      pop\n      jump\t// out\n        /* \"#utility.yul\":26142:26271   */\n    tag_352:\n        /* \"#utility.yul\":26176:26182   */\n      0x00\n        /* \"#utility.yul\":26203:26223   */\n      tag_659\n      tag_660\n      jump\t// in\n    tag_659:\n        /* \"#utility.yul\":26193:26223   */\n      swap1\n      pop\n        /* \"#utility.yul\":26232:26265   */\n      tag_661\n        /* \"#utility.yul\":26260:26264   */\n      dup3\n        /* \"#utility.yul\":26252:26258   */\n      dup3\n        /* \"#utility.yul\":26232:26265   */\n      tag_662\n      jump\t// in\n    tag_661:\n        /* \"#utility.yul\":26183:26271   */\n      swap2\n      swap1\n      pop\n      jump\t// out\n        /* \"#utility.yul\":26277:26352   */\n    tag_660:\n        /* \"#utility.yul\":26310:26316   */\n      0x00\n        /* \"#utility.yul\":26343:26345   */\n      0x40\n        /* \"#utility.yul\":26337:26346   */\n      mload\n        /* \"#utility.yul\":26327:26346   */\n      swap1\n      pop\n        /* \"#utility.yul\":26317:26352   */\n      swap1\n      jump\t// out\n        /* \"#utility.yul\":26358:26669   */\n    tag_351:\n        /* \"#utility.yul\":26435:26439   */\n      0x00\n        /* \"#utility.yul\":26525:26543   */\n      0xffffffffffffffff\n        /* \"#utility.yul\":26517:26523   */\n      dup3\n        /* \"#utility.yul\":26514:26544   */\n      gt\n        /* \"#utility.yul\":26511:26513   */\n      iszero\n      tag_665\n      jumpi\n        /* \"#utility.yul\":26547:26565   */\n      tag_666\n      tag_667\n      jump\t// in\n    tag_666:\n        /* \"#utility.yul\":26511:26513   */\n    tag_665:\n        /* \"#utility.yul\":26597:26601   */\n      0x20\n        /* \"#utility.yul\":26589:26595   */\n      dup3\n        /* \"#utility.yul\":26585:26602   */\n      mul\n        /* \"#utility.yul\":26577:26602   */\n      swap1\n      pop\n        /* \"#utility.yul\":26657:26661   */\n      0x20\n        /* \"#utility.yul\":26651:26655   */\n      dup2\n        /* \"#utility.yul\":26647:26662   */\n      add\n        /* \"#utility.yul\":26639:26662   */\n      swap1\n      pop\n        /* \"#utility.yul\":26440:26669   */\n      swap2\n      swap1\n      pop\n      jump\t// out\n        /* \"#utility.yul\":26675:26986   */\n    tag_363:\n        /* \"#utility.yul\":26752:26756   */\n      0x00\n        /* \"#utility.yul\":26842:26860   */\n      0xffffffffffffffff\n        /* \"#utility.yul\":26834:26840   */\n      dup3\n        /* \"#utility.yul\":26831:26861   */\n      gt\n        /* \"#utility.yul\":26828:26830   */\n      iszero\n      tag_669\n      jumpi\n        /* \"#utility.yul\":26864:26882   */\n      tag_670\n      tag_667\n      jump\t// in\n    tag_670:\n        /* \"#utility.yul\":26828:26830   */\n    tag_669:\n        /* \"#utility.yul\":26914:26918   */\n      0x20\n        /* \"#utility.yul\":26906:26912   */\n      dup3\n        /* \"#utility.yul\":26902:26919   */\n      mul\n        /* \"#utility.yul\":26894:26919   */\n      swap1\n      pop\n        /* \"#utility.yul\":26974:26978   */\n      0x20\n        /* \"#utility.yul\":26968:26972   */\n      dup2\n        /* \"#utility.yul\":26964:26979   */\n      add\n        /* \"#utility.yul\":26956:26979   */\n      swap1\n      pop\n        /* \"#utility.yul\":26757:26986   */\n      swap2\n      swap1\n      pop\n      jump\t// out\n        /* \"#utility.yul\":26992:27299   */\n    tag_374:\n        /* \"#utility.yul\":27053:27057   */\n      0x00\n        /* \"#utility.yul\":27143:27161   */\n      0xffffffffffffffff\n        /* \"#utility.yul\":27135:27141   */\n      dup3\n        /* \"#utility.yul\":27132:27162   */\n      gt\n        /* \"#utility.yul\":27129:27131   */\n      iszero\n      tag_672\n      jumpi\n        /* \"#utility.yul\":27165:27183   */\n      tag_673\n      tag_667\n      jump\t// in\n    tag_673:\n        /* \"#utility.yul\":27129:27131   */\n    tag_672:\n        /* \"#utility.yul\":27203:27232   */\n      tag_674\n        /* \"#utility.yul\":27225:27231   */\n      dup3\n        /* \"#utility.yul\":27203:27232   */\n      tag_518\n      jump\t// in\n    tag_674:\n        /* \"#utility.yul\":27195:27232   */\n      swap1\n      pop\n        /* \"#utility.yul\":27287:27291   */\n      0x20\n        /* \"#utility.yul\":27281:27285   */\n      dup2\n        /* \"#utility.yul\":27277:27292   */\n      add\n        /* \"#utility.yul\":27269:27292   */\n      swap1\n      pop\n        /* \"#utility.yul\":27058:27299   */\n      swap2\n      swap1\n      pop\n      jump\t// out\n        /* \"#utility.yul\":27305:27613   */\n    tag_382:\n        /* \"#utility.yul\":27367:27371   */\n      0x00\n        /* \"#utility.yul\":27457:27475   */\n      0xffffffffffffffff\n        /* \"#utility.yul\":27449:27455   */\n      dup3\n        /* \"#utility.yul\":27446:27476   */\n      gt\n        /* \"#utility.yul\":27443:27445   */\n      iszero\n      tag_676\n      jumpi\n        /* \"#utility.yul\":27479:27497   */\n      tag_677\n      tag_667\n      jump\t// in\n    tag_677:\n        /* \"#utility.yul\":27443:27445   */\n    tag_676:\n        /* \"#utility.yul\":27517:27546   */\n      tag_678\n        /* \"#utility.yul\":27539:27545   */\n      dup3\n        /* \"#utility.yul\":27517:27546   */\n      tag_518\n      jump\t// in\n    tag_678:\n        /* \"#utility.yul\":27509:27546   */\n      swap1\n      pop\n        /* \"#utility.yul\":27601:27605   */\n      0x20\n        /* \"#utility.yul\":27595:27599   */\n      dup2\n        /* \"#utility.yul\":27591:27606   */\n      add\n        /* \"#utility.yul\":27583:27606   */\n      swap1\n      pop\n        /* \"#utility.yul\":27372:27613   */\n      swap2\n      swap1\n      pop\n      jump\t// out\n        /* \"#utility.yul\":27619:27751   */\n    tag_484:\n        /* \"#utility.yul\":27686:27690   */\n      0x00\n        /* \"#utility.yul\":27709:27712   */\n      dup2\n        /* \"#utility.yul\":27701:27712   */\n      swap1\n      pop\n        /* \"#utility.yul\":27739:27743   */\n      0x20\n        /* \"#utility.yul\":27734:27737   */\n      dup3\n        /* \"#utility.yul\":27730:27744   */\n      add\n        /* \"#utility.yul\":27722:27744   */\n      swap1\n      pop\n        /* \"#utility.yul\":27691:27751   */\n      swap2\n      swap1\n      pop\n      jump\t// out\n        /* \"#utility.yul\":27757:27889   */\n    tag_498:\n        /* \"#utility.yul\":27824:27828   */\n      0x00\n        /* \"#utility.yul\":27847:27850   */\n      dup2\n        /* \"#utility.yul\":27839:27850   */\n      swap1\n      pop\n        /* \"#utility.yul\":27877:27881   */\n      0x20\n        /* \"#utility.yul\":27872:27875   */\n      dup3\n        /* \"#utility.yul\":27868:27882   */\n      add\n        /* \"#utility.yul\":27860:27882   */\n      swap1\n      pop\n        /* \"#utility.yul\":27829:27889   */\n      swap2\n      swap1\n      pop\n      jump\t// out\n        /* \"#utility.yul\":27895:28036   */\n    tag_541:\n        /* \"#utility.yul\":27944:27948   */\n      0x00\n        /* \"#utility.yul\":27967:27970   */\n      dup2\n        /* \"#utility.yul\":27959:27970   */\n      swap1\n      pop\n        /* \"#utility.yul\":27990:27993   */\n      dup2\n        /* \"#utility.yul\":27987:27988   */\n      0x00\n        /* \"#utility.yul\":27980:27994   */\n      mstore\n        /* \"#utility.yul\":28024:28028   */\n      0x20\n        /* \"#utility.yul\":28021:28022   */\n      0x00\n        /* \"#utility.yul\":28011:28029   */\n      keccak256\n        /* \"#utility.yul\":28003:28029   */\n      swap1\n      pop\n        /* \"#utility.yul\":27949:28036   */\n      swap2\n      swap1\n      pop\n      jump\t// out\n        /* \"#utility.yul\":28042:28156   */\n    tag_480:\n        /* \"#utility.yul\":28109:28115   */\n      0x00\n        /* \"#utility.yul\":28143:28148   */\n      dup2\n        /* \"#utility.yul\":28137:28149   */\n      mload\n        /* \"#utility.yul\":28127:28149   */\n      swap1\n      pop\n        /* \"#utility.yul\":28116:28156   */\n      swap2\n      swap1\n      pop\n      jump\t// out\n        /* \"#utility.yul\":28162:28276   */\n    tag_494:\n        /* \"#utility.yul\":28229:28235   */\n      0x00\n        /* \"#utility.yul\":28263:28268   */\n      dup2\n        /* \"#utility.yul\":28257:28269   */\n      mload\n        /* \"#utility.yul\":28247:28269   */\n      swap1\n      pop\n        /* \"#utility.yul\":28236:28276   */\n      swap2\n      swap1\n      pop\n      jump\t// out\n        /* \"#utility.yul\":28282:28380   */\n    tag_512:\n        /* \"#utility.yul\":28333:28339   */\n      0x00\n        /* \"#utility.yul\":28367:28372   */\n      dup2\n        /* \"#utility.yul\":28361:28373   */\n      mload\n        /* \"#utility.yul\":28351:28373   */\n      swap1\n      pop\n        /* \"#utility.yul\":28340:28380   */\n      swap2\n      swap1\n      pop\n      jump\t// out\n        /* \"#utility.yul\":28386:28485   */\n    tag_522:\n        /* \"#utility.yul\":28438:28444   */\n      0x00\n        /* \"#utility.yul\":28472:28477   */\n      dup2\n        /* \"#utility.yul\":28466:28478   */\n      mload\n        /* \"#utility.yul\":28456:28478   */\n      swap1\n      pop\n        /* \"#utility.yul\":28445:28485   */\n      swap2\n      swap1\n      pop\n      jump\t// out\n        /* \"#utility.yul\":28491:28604   */\n    tag_490:\n        /* \"#utility.yul\":28561:28565   */\n      0x00\n        /* \"#utility.yul\":28593:28597   */\n      0x20\n        /* \"#utility.yul\":28588:28591   */\n      dup3\n        /* \"#utility.yul\":28584:28598   */\n      add\n        /* \"#utility.yul\":28576:28598   */\n      swap1\n      pop\n        /* \"#utility.yul\":28566:28604   */\n      swap2\n      swap1\n      pop\n      jump\t// out\n        /* \"#utility.yul\":28610:28723   */\n    tag_504:\n        /* \"#utility.yul\":28680:28684   */\n      0x00\n        /* \"#utility.yul\":28712:28716   */\n      0x20\n        /* \"#utility.yul\":28707:28710   */\n      dup3\n        /* \"#utility.yul\":28703:28717   */\n      add\n        /* \"#utility.yul\":28695:28717   */\n      swap1\n      pop\n        /* \"#utility.yul\":28685:28723   */\n      swap2\n      swap1\n      pop\n      jump\t// out\n        /* \"#utility.yul\":28729:28913   */\n    tag_482:\n        /* \"#utility.yul\":28828:28839   */\n      0x00\n        /* \"#utility.yul\":28862:28868   */\n      dup3\n        /* \"#utility.yul\":28857:28860   */\n      dup3\n        /* \"#utility.yul\":28850:28869   */\n      mstore\n        /* \"#utility.yul\":28902:28906   */\n      0x20\n        /* \"#utility.yul\":28897:28900   */\n      dup3\n        /* \"#utility.yul\":28893:28907   */\n      add\n        /* \"#utility.yul\":28878:28907   */\n      swap1\n      pop\n        /* \"#utility.yul\":28840:28913   */\n      swap3\n      swap2\n      pop\n      pop\n      jump\t// out\n        /* \"#utility.yul\":28919:29103   */\n    tag_496:\n        /* \"#utility.yul\":29018:29029   */\n      0x00\n        /* \"#utility.yul\":29052:29058   */\n      dup3\n        /* \"#utility.yul\":29047:29050   */\n      dup3\n        /* \"#utility.yul\":29040:29059   */\n      mstore\n        /* \"#utility.yul\":29092:29096   */\n      0x20\n        /* \"#utility.yul\":29087:29090   */\n      dup3\n        /* \"#utility.yul\":29083:29097   */\n      add\n        /* \"#utility.yul\":29068:29097   */\n      swap1\n      pop\n        /* \"#utility.yul\":29030:29103   */\n      swap3\n      swap2\n      pop\n      pop\n      jump\t// out\n        /* \"#utility.yul\":29109:29277   */\n    tag_514:\n        /* \"#utility.yul\":29192:29203   */\n      0x00\n        /* \"#utility.yul\":29226:29232   */\n      dup3\n        /* \"#utility.yul\":29221:29224   */\n      dup3\n        /* \"#utility.yul\":29214:29233   */\n      mstore\n        /* \"#utility.yul\":29266:29270   */\n      0x20\n        /* \"#utility.yul\":29261:29264   */\n      dup3\n        /* \"#utility.yul\":29257:29271   */\n      add\n        /* \"#utility.yul\":29242:29271   */\n      swap1\n      pop\n        /* \"#utility.yul\":29204:29277   */\n      swap3\n      swap2\n      pop\n      pop\n      jump\t// out\n        /* \"#utility.yul\":29283:29452   */\n    tag_524:\n        /* \"#utility.yul\":29367:29378   */\n      0x00\n        /* \"#utility.yul\":29401:29407   */\n      dup3\n        /* \"#utility.yul\":29396:29399   */\n      dup3\n        /* \"#utility.yul\":29389:29408   */\n      mstore\n        /* \"#utility.yul\":29441:29445   */\n      0x20\n        /* \"#utility.yul\":29436:29439   */\n      dup3\n        /* \"#utility.yul\":29432:29446   */\n      add\n        /* \"#utility.yul\":29417:29446   */\n      swap1\n      pop\n        /* \"#utility.yul\":29379:29452   */\n      swap3\n      swap2\n      pop\n      pop\n      jump\t// out\n        /* \"#utility.yul\":29458:29606   */\n    tag_531:\n        /* \"#utility.yul\":29560:29571   */\n      0x00\n        /* \"#utility.yul\":29597:29600   */\n      dup2\n        /* \"#utility.yul\":29582:29600   */\n      swap1\n      pop\n        /* \"#utility.yul\":29572:29606   */\n      swap3\n      swap2\n      pop\n      pop\n      jump\t// out\n        /* \"#utility.yul\":29612:29917   */\n    tag_277:\n        /* \"#utility.yul\":29652:29655   */\n      0x00\n        /* \"#utility.yul\":29671:29691   */\n      tag_694\n        /* \"#utility.yul\":29689:29690   */\n      dup3\n        /* \"#utility.yul\":29671:29691   */\n      tag_607\n      jump\t// in\n    tag_694:\n        /* \"#utility.yul\":29666:29691   */\n      swap2\n      pop\n        /* \"#utility.yul\":29705:29725   */\n      tag_695\n        /* \"#utility.yul\":29723:29724   */\n      dup4\n        /* \"#utility.yul\":29705:29725   */\n      tag_607\n      jump\t// in\n    tag_695:\n        /* \"#utility.yul\":29700:29725   */\n      swap3\n      pop\n        /* \"#utility.yul\":29859:29860   */\n      dup3\n        /* \"#utility.yul\":29791:29857   */\n      0xffffffffffffffffffffffffffffffffffffffffffffffffffffffffffffffff\n        /* \"#utility.yul\":29787:29861   */\n      sub\n        /* \"#utility.yul\":29784:29785   */\n      dup3\n        /* \"#utility.yul\":29781:29862   */\n      gt\n        /* \"#utility.yul\":29778:29780   */\n      iszero\n      tag_696\n      jumpi\n        /* \"#utility.yul\":29865:29883   */\n      tag_697\n      tag_698\n      jump\t// in\n    tag_697:\n        /* \"#utility.yul\":29778:29780   */\n    tag_696:\n        /* \"#utility.yul\":29909:29910   */\n      dup3\n        /* \"#utility.yul\":29906:29907   */\n      dup3\n        /* \"#utility.yul\":29902:29911   */\n      add\n        /* \"#utility.yul\":29895:29911   */\n      swap1\n      pop\n        /* \"#utility.yul\":29656:29917   */\n      swap3\n      swap2\n      pop\n      pop\n      jump\t// out\n        /* \"#utility.yul\":29923:30108   */\n    tag_267:\n        /* \"#utility.yul\":29963:29964   */\n      0x00\n        /* \"#utility.yul\":29980:30000   */\n      tag_700\n        /* \"#utility.yul\":29998:29999   */\n      dup3\n        /* \"#utility.yul\":29980:30000   */\n      tag_607\n      jump\t// in\n    tag_700:\n        /* \"#utility.yul\":29975:30000   */\n      swap2\n      pop\n        /* \"#utility.yul\":30014:30034   */\n      tag_701\n        /* \"#utility.yul\":30032:30033   */\n      dup4\n        /* \"#utility.yul\":30014:30034   */\n      tag_607\n      jump\t// in\n    tag_701:\n        /* \"#utility.yul\":30009:30034   */\n      swap3\n      pop\n        /* \"#utility.yul\":30053:30054   */\n      dup3\n        /* \"#utility.yul\":30043:30045   */\n      tag_702\n      jumpi\n        /* \"#utility.yul\":30058:30076   */\n      tag_703\n      tag_704\n      jump\t// in\n    tag_703:\n        /* \"#utility.yul\":30043:30045   */\n    tag_702:\n        /* \"#utility.yul\":30100:30101   */\n      dup3\n        /* \"#utility.yul\":30097:30098   */\n      dup3\n        /* \"#utility.yul\":30093:30102   */\n      div\n        /* \"#utility.yul\":30088:30102   */\n      swap1\n      pop\n        /* \"#utility.yul\":29965:30108   */\n      swap3\n      swap2\n      pop\n      pop\n      jump\t// out\n        /* \"#utility.yul\":30114:30305   */\n    tag_273:\n        /* \"#utility.yul\":30154:30158   */\n      0x00\n        /* \"#utility.yul\":30174:30194   */\n      tag_706\n        /* \"#utility.yul\":30192:30193   */\n      dup3\n        /* \"#utility.yul\":30174:30194   */\n      tag_607\n      jump\t// in\n    tag_706:\n        /* \"#utility.yul\":30169:30194   */\n      swap2\n      pop\n        /* \"#utility.yul\":30208:30228   */\n      tag_707\n        /* \"#utility.yul\":30226:30227   */\n      dup4\n        /* \"#utility.yul\":30208:30228   */\n      tag_607\n      jump\t// in\n    tag_707:\n        /* \"#utility.yul\":30203:30228   */\n      swap3\n      pop\n        /* \"#utility.yul\":30247:30248   */\n      dup3\n        /* \"#utility.yul\":30244:30245   */\n      dup3\n        /* \"#utility.yul\":30241:30249   */\n      lt\n        /* \"#utility.yul\":30238:30240   */\n      iszero\n      tag_708\n      jumpi\n        /* \"#utility.yul\":30252:30270   */\n      tag_709\n      tag_698\n      jump\t// in\n    tag_709:\n        /* \"#utility.yul\":30238:30240   */\n    tag_708:\n        /* \"#utility.yul\":30297:30298   */\n      dup3\n        /* \"#utility.yul\":30294:30295   */\n      dup3\n        /* \"#utility.yul\":30290:30299   */\n      sub\n        /* \"#utility.yul\":30282:30299   */\n      swap1\n      pop\n        /* \"#utility.yul\":30159:30305   */\n      swap3\n      swap2\n      pop\n      pop\n      jump\t// out\n        /* \"#utility.yul\":30311:30407   */\n    tag_473:\n        /* \"#utility.yul\":30348:30355   */\n      0x00\n        /* \"#utility.yul\":30377:30401   */\n      tag_711\n        /* \"#utility.yul\":30395:30400   */\n      dup3\n        /* \"#utility.yul\":30377:30401   */\n      tag_712\n      jump\t// in\n    tag_711:\n        /* \"#utility.yul\":30366:30401   */\n      swap1\n      pop\n        /* \"#utility.yul\":30356:30407   */\n      swap2\n      swap1\n      pop\n      jump\t// out\n        /* \"#utility.yul\":30413:30503   */\n    tag_508:\n        /* \"#utility.yul\":30447:30454   */\n      0x00\n        /* \"#utility.yul\":30490:30495   */\n      dup2\n        /* \"#utility.yul\":30483:30496   */\n      iszero\n        /* \"#utility.yul\":30476:30497   */\n      iszero\n        /* \"#utility.yul\":30465:30497   */\n      swap1\n      pop\n        /* \"#utility.yul\":30455:30503   */\n      swap2\n      swap1\n      pop\n      jump\t// out\n        /* \"#utility.yul\":30509:30658   */\n    tag_714:\n        /* \"#utility.yul\":30545:30552   */\n      0x00\n        /* \"#utility.yul\":30585:30651   */\n      0xffffffff00000000000000000000000000000000000000000000000000000000\n        /* \"#utility.yul\":30578:30583   */\n      dup3\n        /* \"#utility.yul\":30574:30652   */\n      and\n        /* \"#utility.yul\":30563:30652   */\n      swap1\n      pop\n        /* \"#utility.yul\":30553:30658   */\n      swap2\n      swap1\n      pop\n      jump\t// out\n        /* \"#utility.yul\":30664:30790   */\n    tag_712:\n        /* \"#utility.yul\":30701:30708   */\n      0x00\n        /* \"#utility.yul\":30741:30783   */\n      0xffffffffffffffffffffffffffffffffffffffff\n        /* \"#utility.yul\":30734:30739   */\n      dup3\n        /* \"#utility.yul\":30730:30784   */\n      and\n        /* \"#utility.yul\":30719:30784   */\n      swap1\n      pop\n        /* \"#utility.yul\":30709:30790   */\n      swap2\n      swap1\n      pop\n      jump\t// out\n        /* \"#utility.yul\":30796:30873   */\n    tag_607:\n        /* \"#utility.yul\":30833:30840   */\n      0x00\n        /* \"#utility.yul\":30862:30867   */\n      dup2\n        /* \"#utility.yul\":30851:30867   */\n      swap1\n      pop\n        /* \"#utility.yul\":30841:30873   */\n      swap2\n      swap1\n      pop\n      jump\t// out\n        /* \"#utility.yul\":30879:31033   */\n    tag_377:\n        /* \"#utility.yul\":30963:30969   */\n      dup3\n        /* \"#utility.yul\":30958:30961   */\n      dup2\n        /* \"#utility.yul\":30953:30956   */\n      dup4\n        /* \"#utility.yul\":30940:30970   */\n      calldatacopy\n        /* \"#utility.yul\":31025:31026   */\n      0x00\n        /* \"#utility.yul\":31016:31022   */\n      dup4\n        /* \"#utility.yul\":31011:31014   */\n      dup4\n        /* \"#utility.yul\":31007:31023   */\n      add\n        /* \"#utility.yul\":31000:31027   */\n      mstore\n        /* \"#utility.yul\":30930:31033   */\n      pop\n      pop\n      pop\n      jump\t// out\n        /* \"#utility.yul\":31039:31346   */\n    tag_516:\n        /* \"#utility.yul\":31107:31108   */\n      0x00\n        /* \"#utility.yul\":31117:31230   */\n    tag_720:\n        /* \"#utility.yul\":31131:31137   */\n      dup4\n        /* \"#utility.yul\":31128:31129   */\n      dup2\n        /* \"#utility.yul\":31125:31138   */\n      lt\n        /* \"#utility.yul\":31117:31230   */\n      iszero\n      tag_722\n      jumpi\n        /* \"#utility.yul\":31216:31217   */\n      dup1\n        /* \"#utility.yul\":31211:31214   */\n      dup3\n        /* \"#utility.yul\":31207:31218   */\n      add\n        /* \"#utility.yul\":31201:31219   */\n      mload\n        /* \"#utility.yul\":31197:31198   */\n      dup2\n        /* \"#utility.yul\":31192:31195   */\n      dup5\n        /* \"#utility.yul\":31188:31199   */\n      add\n        /* \"#utility.yul\":31181:31220   */\n      mstore\n        /* \"#utility.yul\":31153:31155   */\n      0x20\n        /* \"#utility.yul\":31150:31151   */\n      dup2\n        /* \"#utility.yul\":31146:31156   */\n      add\n        /* \"#utility.yul\":31141:31156   */\n      swap1\n      pop\n        /* \"#utility.yul\":31117:31230   */\n      jump(tag_720)\n    tag_722:\n        /* \"#utility.yul\":31248:31254   */\n      dup4\n        /* \"#utility.yul\":31245:31246   */\n      dup2\n        /* \"#utility.yul\":31242:31255   */\n      gt\n        /* \"#utility.yul\":31239:31241   */\n      iszero\n      tag_723\n      jumpi\n        /* \"#utility.yul\":31328:31329   */\n      0x00\n        /* \"#utility.yul\":31319:31325   */\n      dup5\n        /* \"#utility.yul\":31314:31317   */\n      dup5\n        /* \"#utility.yul\":31310:31326   */\n      add\n        /* \"#utility.yul\":31303:31330   */\n      mstore\n        /* \"#utility.yul\":31239:31241   */\n    tag_723:\n        /* \"#utility.yul\":31088:31346   */\n      pop\n      pop\n      pop\n      pop\n      jump\t// out\n        /* \"#utility.yul\":31352:31672   */\n    tag_106:\n        /* \"#utility.yul\":31396:31402   */\n      0x00\n        /* \"#utility.yul\":31433:31434   */\n      0x02\n        /* \"#utility.yul\":31427:31431   */\n      dup3\n        /* \"#utility.yul\":31423:31435   */\n      div\n        /* \"#utility.yul\":31413:31435   */\n      swap1\n      pop\n        /* \"#utility.yul\":31480:31481   */\n      0x01\n        /* \"#utility.yul\":31474:31478   */\n      dup3\n        /* \"#utility.yul\":31470:31482   */\n      and\n        /* \"#utility.yul\":31501:31519   */\n      dup1\n        /* \"#utility.yul\":31491:31493   */\n      tag_725\n      jumpi\n        /* \"#utility.yul\":31557:31561   */\n      0x7f\n        /* \"#utility.yul\":31549:31555   */\n      dup3\n        /* \"#utility.yul\":31545:31562   */\n      and\n        /* \"#utility.yul\":31535:31562   */\n      swap2\n      pop\n        /* \"#utility.yul\":31491:31493   */\n    tag_725:\n        /* \"#utility.yul\":31619:31621   */\n      0x20\n        /* \"#utility.yul\":31611:31617   */\n      dup3\n        /* \"#utility.yul\":31608:31622   */\n      lt\n        /* \"#utility.yul\":31588:31606   */\n      dup2\n        /* \"#utility.yul\":31585:31623   */\n      eq\n        /* \"#utility.yul\":31582:31584   */\n      iszero\n      tag_726\n      jumpi\n        /* \"#utility.yul\":31638:31656   */\n      tag_727\n      tag_728\n      jump\t// in\n    tag_727:\n        /* \"#utility.yul\":31582:31584   */\n    tag_726:\n        /* \"#utility.yul\":31403:31672   */\n      pop\n      swap2\n      swap1\n      pop\n      jump\t// out\n        /* \"#utility.yul\":31678:31959   */\n    tag_662:\n        /* \"#utility.yul\":31761:31788   */\n      tag_730\n        /* \"#utility.yul\":31783:31787   */\n      dup3\n        /* \"#utility.yul\":31761:31788   */\n      tag_518\n      jump\t// in\n    tag_730:\n        /* \"#utility.yul\":31753:31759   */\n      dup2\n        /* \"#utility.yul\":31749:31789   */\n      add\n        /* \"#utility.yul\":31891:31897   */\n      dup2\n        /* \"#utility.yul\":31879:31889   */\n      dup2\n        /* \"#utility.yul\":31876:31898   */\n      lt\n        /* \"#utility.yul\":31855:31873   */\n      0xffffffffffffffff\n        /* \"#utility.yul\":31843:31853   */\n      dup3\n        /* \"#utility.yul\":31840:31874   */\n      gt\n        /* \"#utility.yul\":31837:31899   */\n      or\n        /* \"#utility.yul\":31834:31836   */\n      iszero\n      tag_731\n      jumpi\n        /* \"#utility.yul\":31902:31920   */\n      tag_732\n      tag_667\n      jump\t// in\n    tag_732:\n        /* \"#utility.yul\":31834:31836   */\n    tag_731:\n        /* \"#utility.yul\":31942:31952   */\n      dup1\n        /* \"#utility.yul\":31938:31940   */\n      0x40\n        /* \"#utility.yul\":31931:31953   */\n      mstore\n        /* \"#utility.yul\":31721:31959   */\n      pop\n      pop\n      pop\n      jump\t// out\n        /* \"#utility.yul\":31965:32198   */\n    tag_265:\n        /* \"#utility.yul\":32004:32007   */\n      0x00\n        /* \"#utility.yul\":32027:32051   */\n      tag_734\n        /* \"#utility.yul\":32045:32050   */\n      dup3\n        /* \"#utility.yul\":32027:32051   */\n      tag_607\n      jump\t// in\n    tag_734:\n        /* \"#utility.yul\":32018:32051   */\n      swap2\n      pop\n        /* \"#utility.yul\":32073:32139   */\n      0xffffffffffffffffffffffffffffffffffffffffffffffffffffffffffffffff\n        /* \"#utility.yul\":32066:32071   */\n      dup3\n        /* \"#utility.yul\":32063:32140   */\n      eq\n        /* \"#utility.yul\":32060:32062   */\n      iszero\n      tag_735\n      jumpi\n        /* \"#utility.yul\":32143:32161   */\n      tag_736\n      tag_698\n      jump\t// in\n    tag_736:\n        /* \"#utility.yul\":32060:32062   */\n    tag_735:\n        /* \"#utility.yul\":32190:32191   */\n      0x01\n        /* \"#utility.yul\":32183:32188   */\n      dup3\n        /* \"#utility.yul\":32179:32192   */\n      add\n        /* \"#utility.yul\":32172:32192   */\n      swap1\n      pop\n        /* \"#utility.yul\":32008:32198   */\n      swap2\n      swap1\n      pop\n      jump\t// out\n        /* \"#utility.yul\":32204:32380   */\n    tag_275:\n        /* \"#utility.yul\":32236:32237   */\n      0x00\n        /* \"#utility.yul\":32253:32273   */\n      tag_738\n        /* \"#utility.yul\":32271:32272   */\n      dup3\n        /* \"#utility.yul\":32253:32273   */\n      tag_607\n      jump\t// in\n    tag_738:\n        /* \"#utility.yul\":32248:32273   */\n      swap2\n      pop\n        /* \"#utility.yul\":32287:32307   */\n      tag_739\n        /* \"#utility.yul\":32305:32306   */\n      dup4\n        /* \"#utility.yul\":32287:32307   */\n      tag_607\n      jump\t// in\n    tag_739:\n        /* \"#utility.yul\":32282:32307   */\n      swap3\n      pop\n        /* \"#utility.yul\":32326:32327   */\n      dup3\n        /* \"#utility.yul\":32316:32318   */\n      tag_740\n      jumpi\n        /* \"#utility.yul\":32331:32349   */\n      tag_741\n      tag_704\n      jump\t// in\n    tag_741:\n        /* \"#utility.yul\":32316:32318   */\n    tag_740:\n        /* \"#utility.yul\":32372:32373   */\n      dup3\n        /* \"#utility.yul\":32369:32370   */\n      dup3\n        /* \"#utility.yul\":32365:32374   */\n      mod\n        /* \"#utility.yul\":32360:32374   */\n      swap1\n      pop\n        /* \"#utility.yul\":32238:32380   */\n      swap3\n      swap2\n      pop\n      pop\n      jump\t// out\n        /* \"#utility.yul\":32386:32566   */\n    tag_698:\n        /* \"#utility.yul\":32434:32511   */\n      0x4e487b7100000000000000000000000000000000000000000000000000000000\n        /* \"#utility.yul\":32431:32432   */\n      0x00\n        /* \"#utility.yul\":32424:32512   */\n      mstore\n        /* \"#utility.yul\":32531:32535   */\n      0x11\n        /* \"#utility.yul\":32528:32529   */\n      0x04\n        /* \"#utility.yul\":32521:32536   */\n      mstore\n        /* \"#utility.yul\":32555:32559   */\n      0x24\n        /* \"#utility.yul\":32552:32553   */\n      0x00\n        /* \"#utility.yul\":32545:32560   */\n      revert\n        /* \"#utility.yul\":32572:32752   */\n    tag_704:\n        /* \"#utility.yul\":32620:32697   */\n      0x4e487b7100000000000000000000000000000000000000000000000000000000\n        /* \"#utility.yul\":32617:32618   */\n      0x00\n        /* \"#utility.yul\":32610:32698   */\n      mstore\n        /* \"#utility.yul\":32717:32721   */\n      0x12\n        /* \"#utility.yul\":32714:32715   */\n      0x04\n        /* \"#utility.yul\":32707:32722   */\n      mstore\n        /* \"#utility.yul\":32741:32745   */\n      0x24\n        /* \"#utility.yul\":32738:32739   */\n      0x00\n        /* \"#utility.yul\":32731:32746   */\n      revert\n        /* \"#utility.yul\":32758:32938   */\n    tag_728:\n        /* \"#utility.yul\":32806:32883   */\n      0x4e487b7100000000000000000000000000000000000000000000000000000000\n        /* \"#utility.yul\":32803:32804   */\n      0x00\n        /* \"#utility.yul\":32796:32884   */\n      mstore\n        /* \"#utility.yul\":32903:32907   */\n      0x22\n        /* \"#utility.yul\":32900:32901   */\n      0x04\n        /* \"#utility.yul\":32893:32908   */\n      mstore\n        /* \"#utility.yul\":32927:32931   */\n      0x24\n        /* \"#utility.yul\":32924:32925   */\n      0x00\n        /* \"#utility.yul\":32917:32932   */\n      revert\n        /* \"#utility.yul\":32944:33124   */\n    tag_667:\n        /* \"#utility.yul\":32992:33069   */\n      0x4e487b7100000000000000000000000000000000000000000000000000000000\n        /* \"#utility.yul\":32989:32990   */\n      0x00\n        /* \"#utility.yul\":32982:33070   */\n      mstore\n        /* \"#utility.yul\":33089:33093   */\n      0x41\n        /* \"#utility.yul\":33086:33087   */\n      0x04\n        /* \"#utility.yul\":33079:33094   */\n      mstore\n        /* \"#utility.yul\":33113:33117   */\n      0x24\n        /* \"#utility.yul\":33110:33111   */\n      0x00\n        /* \"#utility.yul\":33103:33118   */\n      revert\n        /* \"#utility.yul\":33130:33232   */\n    tag_518:\n        /* \"#utility.yul\":33171:33177   */\n      0x00\n        /* \"#utility.yul\":33222:33224   */\n      0x1f\n        /* \"#utility.yul\":33218:33225   */\n      not\n        /* \"#utility.yul\":33213:33215   */\n      0x1f\n        /* \"#utility.yul\":33206:33211   */\n      dup4\n        /* \"#utility.yul\":33202:33216   */\n      add\n        /* \"#utility.yul\":33198:33226   */\n      and\n        /* \"#utility.yul\":33188:33226   */\n      swap1\n      pop\n        /* \"#utility.yul\":33178:33232   */\n      swap2\n      swap1\n      pop\n      jump\t// out\n        /* \"#utility.yul\":33238:33470   */\n    tag_549:\n        /* \"#utility.yul\":33378:33412   */\n      0x4552433732313a2063616c6c6572206973206e6f7420746f6b656e206f776e65\n        /* \"#utility.yul\":33374:33375   */\n      0x00\n        /* \"#utility.yul\":33366:33372   */\n      dup3\n        /* \"#utility.yul\":33362:33376   */\n      add\n        /* \"#utility.yul\":33355:33413   */\n      mstore\n        /* \"#utility.yul\":33447:33462   */\n      0x72206f7220617070726f76656400000000000000000000000000000000000000\n        /* \"#utility.yul\":33442:33444   */\n      0x20\n        /* \"#utility.yul\":33434:33440   */\n      dup3\n        /* \"#utility.yul\":33430:33445   */\n      add\n        /* \"#utility.yul\":33423:33463   */\n      mstore\n        /* \"#utility.yul\":33344:33470   */\n      pop\n      jump\t// out\n        /* \"#utility.yul\":33476:33713   */\n    tag_554:\n        /* \"#utility.yul\":33616:33650   */\n      0x4552433732313a207472616e7366657220746f206e6f6e204552433732315265\n        /* \"#utility.yul\":33612:33613   */\n      0x00\n        /* \"#utility.yul\":33604:33610   */\n      dup3\n        /* \"#utility.yul\":33600:33614   */\n      add\n        /* \"#utility.yul\":33593:33651   */\n      mstore\n        /* \"#utility.yul\":33685:33705   */\n      0x63656976657220696d706c656d656e7465720000000000000000000000000000\n        /* \"#utility.yul\":33680:33682   */\n      0x20\n        /* \"#utility.yul\":33672:33678   */\n      dup3\n        /* \"#utility.yul\":33668:33683   */\n      add\n        /* \"#utility.yul\":33661:33706   */\n      mstore\n        /* \"#utility.yul\":33582:33713   */\n      pop\n      jump\t// out\n        /* \"#utility.yul\":33719:33943   */\n    tag_559:\n        /* \"#utility.yul\":33859:33893   */\n      0x4552433732313a207472616e736665722066726f6d20696e636f727265637420\n        /* \"#utility.yul\":33855:33856   */\n      0x00\n        /* \"#utility.yul\":33847:33853   */\n      dup3\n        /* \"#utility.yul\":33843:33857   */\n      add\n        /* \"#utility.yul\":33836:33894   */\n      mstore\n        /* \"#utility.yul\":33928:33935   */\n      0x6f776e6572000000000000000000000000000000000000000000000000000000\n        /* \"#utility.yul\":33923:33925   */\n      0x20\n        /* \"#utility.yul\":33915:33921   */\n      dup3\n        /* \"#utility.yul\":33911:33926   */\n      add\n        /* \"#utility.yul\":33904:33936   */\n      mstore\n        /* \"#utility.yul\":33825:33943   */\n      pop\n      jump\t// out\n        /* \"#utility.yul\":33949:34127   */\n    tag_564:\n        /* \"#utility.yul\":34089:34119   */\n      0x4552433732313a20746f6b656e20616c7265616479206d696e74656400000000\n        /* \"#utility.yul\":34085:34086   */\n      0x00\n        /* \"#utility.yul\":34077:34083   */\n      dup3\n        /* \"#utility.yul\":34073:34087   */\n      add\n        /* \"#utility.yul\":34066:34120   */\n      mstore\n        /* \"#utility.yul\":34055:34127   */\n      pop\n      jump\t// out\n        /* \"#utility.yul\":34133:34356   */\n    tag_569:\n        /* \"#utility.yul\":34273:34307   */\n      0x4552433732313a207472616e7366657220746f20746865207a65726f20616464\n        /* \"#utility.yul\":34269:34270   */\n      0x00\n        /* \"#utility.yul\":34261:34267   */\n      dup3\n        /* \"#utility.yul\":34257:34271   */\n      add\n        /* \"#utility.yul\":34250:34308   */\n      mstore\n        /* \"#utility.yul\":34342:34348   */\n      0x7265737300000000000000000000000000000000000000000000000000000000\n        /* \"#utility.yul\":34337:34339   */\n      0x20\n        /* \"#utility.yul\":34329:34335   */\n      dup3\n        /* \"#utility.yul\":34325:34340   */\n      add\n        /* \"#utility.yul\":34318:34349   */\n      mstore\n        /* \"#utility.yul\":34239:34356   */\n      pop\n      jump\t// out\n        /* \"#utility.yul\":34362:34537   */\n    tag_574:\n        /* \"#utility.yul\":34502:34529   */\n      0x4552433732313a20617070726f766520746f2063616c6c657200000000000000\n        /* \"#utility.yul\":34498:34499   */\n      0x00\n        /* \"#utility.yul\":34490:34496   */\n      dup3\n        /* \"#utility.yul\":34486:34500   */\n      add\n        /* \"#utility.yul\":34479:34530   */\n      mstore\n        /* \"#utility.yul\":34468:34537   */\n      pop\n      jump\t// out\n        /* \"#utility.yul\":34543:34771   */\n    tag_579:\n        /* \"#utility.yul\":34683:34717   */\n      0x4552433732313a2061646472657373207a65726f206973206e6f742061207661\n        /* \"#utility.yul\":34679:34680   */\n      0x00\n        /* \"#utility.yul\":34671:34677   */\n      dup3\n        /* \"#utility.yul\":34667:34681   */\n      add\n        /* \"#utility.yul\":34660:34718   */\n      mstore\n        /* \"#utility.yul\":34752:34763   */\n      0x6c6964206f776e65720000000000000000000000000000000000000000000000\n        /* \"#utility.yul\":34747:34749   */\n      0x20\n        /* \"#utility.yul\":34739:34745   */\n      dup3\n        /* \"#utility.yul\":34735:34750   */\n      add\n        /* \"#utility.yul\":34728:34764   */\n      mstore\n        /* \"#utility.yul\":34649:34771   */\n      pop\n      jump\t// out\n        /* \"#utility.yul\":34777:34959   */\n    tag_584:\n        /* \"#utility.yul\":34917:34951   */\n      0x4552433732313a206d696e7420746f20746865207a65726f2061646472657373\n        /* \"#utility.yul\":34913:34914   */\n      0x00\n        /* \"#utility.yul\":34905:34911   */\n      dup3\n        /* \"#utility.yul\":34901:34915   */\n      add\n        /* \"#utility.yul\":34894:34952   */\n      mstore\n        /* \"#utility.yul\":34883:34959   */\n      pop\n      jump\t// out\n        /* \"#utility.yul\":34965:35199   */\n    tag_589:\n        /* \"#utility.yul\":35105:35139   */\n      0x4552433732314d657461646174613a2055524920717565727920666f72206e6f\n        /* \"#utility.yul\":35101:35102   */\n      0x00\n        /* \"#utility.yul\":35093:35099   */\n      dup3\n        /* \"#utility.yul\":35089:35103   */\n      add\n        /* \"#utility.yul\":35082:35140   */\n      mstore\n        /* \"#utility.yul\":35174:35191   */\n      0x6e6578697374656e7420746f6b656e0000000000000000000000000000000000\n        /* \"#utility.yul\":35169:35171   */\n      0x20\n        /* \"#utility.yul\":35161:35167   */\n      dup3\n        /* \"#utility.yul\":35157:35172   */\n      add\n        /* \"#utility.yul\":35150:35192   */\n      mstore\n        /* \"#utility.yul\":35071:35199   */\n      pop\n      jump\t// out\n        /* \"#utility.yul\":35205:35379   */\n    tag_594:\n        /* \"#utility.yul\":35345:35371   */\n      0x4552433732313a20696e76616c696420746f6b656e2049440000000000000000\n        /* \"#utility.yul\":35341:35342   */\n      0x00\n        /* \"#utility.yul\":35333:35339   */\n      dup3\n        /* \"#utility.yul\":35329:35343   */\n      add\n        /* \"#utility.yul\":35322:35372   */\n      mstore\n        /* \"#utility.yul\":35311:35379   */\n      pop\n      jump\t// out\n        /* \"#utility.yul\":35385:35605   */\n    tag_599:\n        /* \"#utility.yul\":35525:35559   */\n      0x4552433732313a20617070726f76616c20746f2063757272656e74206f776e65\n        /* \"#utility.yul\":35521:35522   */\n      0x00\n        /* \"#utility.yul\":35513:35519   */\n      dup3\n        /* \"#utility.yul\":35509:35523   */\n      add\n        /* \"#utility.yul\":35502:35560   */\n      mstore\n        /* \"#utility.yul\":35594:35597   */\n      0x7200000000000000000000000000000000000000000000000000000000000000\n        /* \"#utility.yul\":35589:35591   */\n      0x20\n        /* \"#utility.yul\":35581:35587   */\n      dup3\n        /* \"#utility.yul\":35577:35592   */\n      add\n        /* \"#utility.yul\":35570:35598   */\n      mstore\n        /* \"#utility.yul\":35491:35605   */\n      pop\n      jump\t// out\n        /* \"#utility.yul\":35611:35859   */\n    tag_604:\n        /* \"#utility.yul\":35751:35785   */\n      0x4552433732313a20617070726f76652063616c6c6572206973206e6f7420746f\n        /* \"#utility.yul\":35747:35748   */\n      0x00\n        /* \"#utility.yul\":35739:35745   */\n      dup3\n        /* \"#utility.yul\":35735:35749   */\n      add\n        /* \"#utility.yul\":35728:35786   */\n      mstore\n        /* \"#utility.yul\":35820:35851   */\n      0x6b656e206f776e6572206f7220617070726f76656420666f7220616c6c000000\n        /* \"#utility.yul\":35815:35817   */\n      0x20\n        /* \"#utility.yul\":35807:35813   */\n      dup3\n        /* \"#utility.yul\":35803:35818   */\n      add\n        /* \"#utility.yul\":35796:35852   */\n      mstore\n        /* \"#utility.yul\":35717:35859   */\n      pop\n      jump\t// out\n        /* \"#utility.yul\":35865:35987   */\n    tag_387:\n        /* \"#utility.yul\":35938:35962   */\n      tag_760\n        /* \"#utility.yul\":35956:35961   */\n      dup2\n        /* \"#utility.yul\":35938:35962   */\n      tag_473\n      jump\t// in\n    tag_760:\n        /* \"#utility.yul\":35931:35936   */\n      dup2\n        /* \"#utility.yul\":35928:35963   */\n      eq\n        /* \"#utility.yul\":35918:35920   */\n      tag_761\n      jumpi\n        /* \"#utility.yul\":35977:35978   */\n      0x00\n        /* \"#utility.yul\":35974:35975   */\n      dup1\n        /* \"#utility.yul\":35967:35979   */\n      revert\n        /* \"#utility.yul\":35918:35920   */\n    tag_761:\n        /* \"#utility.yul\":35908:35987   */\n      pop\n      jump\t// out\n        /* \"#utility.yul\":35993:36109   */\n    tag_399:\n        /* \"#utility.yul\":36063:36084   */\n      tag_763\n        /* \"#utility.yul\":36078:36083   */\n      dup2\n        /* \"#utility.yul\":36063:36084   */\n      tag_508\n      jump\t// in\n    tag_763:\n        /* \"#utility.yul\":36056:36061   */\n      dup2\n        /* \"#utility.yul\":36053:36085   */\n      eq\n        /* \"#utility.yul\":36043:36045   */\n      tag_764\n      jumpi\n        /* \"#utility.yul\":36099:36100   */\n      0x00\n        /* \"#utility.yul\":36096:36097   */\n      dup1\n        /* \"#utility.yul\":36089:36101   */\n      revert\n        /* \"#utility.yul\":36043:36045   */\n    tag_764:\n        /* \"#utility.yul\":36033:36109   */\n      pop\n      jump\t// out\n        /* \"#utility.yul\":36115:36235   */\n    tag_403:\n        /* \"#utility.yul\":36187:36210   */\n      tag_766\n        /* \"#utility.yul\":36204:36209   */\n      dup2\n        /* \"#utility.yul\":36187:36210   */\n      tag_714\n      jump\t// in\n    tag_766:\n        /* \"#utility.yul\":36180:36185   */\n      dup2\n        /* \"#utility.yul\":36177:36211   */\n      eq\n        /* \"#utility.yul\":36167:36169   */\n      tag_767\n      jumpi\n        /* \"#utility.yul\":36225:36226   */\n      0x00\n        /* \"#utility.yul\":36222:36223   */\n      dup1\n        /* \"#utility.yul\":36215:36227   */\n      revert\n        /* \"#utility.yul\":36167:36169   */\n    tag_767:\n        /* \"#utility.yul\":36157:36235   */\n      pop\n      jump\t// out\n        /* \"#utility.yul\":36241:36363   */\n    tag_417:\n        /* \"#utility.yul\":36314:36338   */\n      tag_769\n        /* \"#utility.yul\":36332:36337   */\n      dup2\n        /* \"#utility.yul\":36314:36338   */\n      tag_607\n      jump\t// in\n    tag_769:\n        /* \"#utility.yul\":36307:36312   */\n      dup2\n        /* \"#utility.yul\":36304:36339   */\n      eq\n        /* \"#utility.yul\":36294:36296   */\n      tag_770\n      jumpi\n        /* \"#utility.yul\":36353:36354   */\n      0x00\n        /* \"#utility.yul\":36350:36351   */\n      dup1\n        /* \"#utility.yul\":36343:36355   */\n      revert\n        /* \"#utility.yul\":36294:36296   */\n    tag_770:\n        /* \"#utility.yul\":36284:36363   */\n      pop\n      jump\t// out\n\n    auxdata: 0xa264697066735822122083e18c2bec5b3d121e441009a4221e2e76b82d574260c039bfcb0698ed8ef3da64736f6c63430008040033\n}\n",
				"bytecode": {
					"linkReferences": {},
					"object": "60806040523480156200001157600080fd5b506040516200349538038062003495833981810160405281019062000037919062000193565b81600190805190602001906200004f92919062000071565b5080600290805190602001906200006892919062000071565b50505062000376565b8280546200007f906200029b565b90600052602060002090601f016020900481019282620000a35760008555620000ef565b82601f10620000be57805160ff1916838001178555620000ef565b82800160010185558215620000ef579182015b82811115620000ee578251825591602001919060010190620000d1565b5b509050620000fe919062000102565b5090565b5b808211156200011d57600081600090555060010162000103565b5090565b60006200013862000132846200022f565b62000206565b9050828152602081018484840111156200015157600080fd5b6200015e84828562000265565b509392505050565b600082601f8301126200017857600080fd5b81516200018a84826020860162000121565b91505092915050565b60008060408385031215620001a757600080fd5b600083015167ffffffffffffffff811115620001c257600080fd5b620001d08582860162000166565b925050602083015167ffffffffffffffff811115620001ee57600080fd5b620001fc8582860162000166565b9150509250929050565b60006200021262000225565b9050620002208282620002d1565b919050565b6000604051905090565b600067ffffffffffffffff8211156200024d576200024c62000336565b5b620002588262000365565b9050602081019050919050565b60005b838110156200028557808201518184015260208101905062000268565b8381111562000295576000848401525b50505050565b60006002820490506001821680620002b457607f821691505b60208210811415620002cb57620002ca62000307565b5b50919050565b620002dc8262000365565b810181811067ffffffffffffffff82111715620002fe57620002fd62000336565b5b80604052505050565b7f4e487b7100000000000000000000000000000000000000000000000000000000600052602260045260246000fd5b7f4e487b7100000000000000000000000000000000000000000000000000000000600052604160045260246000fd5b6000601f19601f8301169050919050565b61310f80620003866000396000f3fe608060405234801561001057600080fd5b506004361061010b5760003560e01c806352e04825116100a2578063a22cb46511610071578063a22cb465146102f0578063b88d4fde1461030c578063c87b56dd14610328578063e985e9c514610358578063ee48cda2146103885761010b565b806352e04825146102425780636352211e1461027257806370a08231146102a257806395d89b41146102d25761010b565b80631675f455116100de5780631675f455146101aa57806323b872dd146101da578063381568d8146101f657806342842e0e146102265761010b565b806301ffc9a71461011057806306fdde0314610140578063081812fc1461015e578063095ea7b31461018e575b600080fd5b61012a6004803603810190610125919061215a565b6103b8565b60405161013791906126c5565b60405180910390f35b61014861049a565b60405161015591906126e0565b60405180910390f35b610178600480360381019061017391906121ac565b61052c565b604051610185919061261a565b60405180910390f35b6101a860048036038101906101a3919061211e565b610572565b005b6101c460048036038101906101bf91906121ac565b61068a565b6040516101d191906126e0565b60405180910390f35b6101f460048036038101906101ef9190611f6d565b6106be565b005b610210600480360381019061020b9190612037565b61071e565b60405161021d9190612882565b60405180910390f35b610240600480360381019061023b9190611f6d565b61075a565b005b61025c600480360381019061025791906121ac565b61077a565b6040516102699190612681565b60405180910390f35b61028c600480360381019061028791906121ac565b610821565b604051610299919061261a565b60405180910390f35b6102bc60048036038101906102b79190611f08565b6108d3565b6040516102c99190612882565b60405180910390f35b6102da61098b565b6040516102e791906126e0565b60405180910390f35b61030a600480360381019061030591906120e2565b610a1d565b005b61032660048036038101906103219190611fbc565b610a33565b005b610342600480360381019061033d91906121ac565b610a95565b60405161034f91906126e0565b60405180910390f35b610372600480360381019061036d9190611f31565b610b3c565b60405161037f91906126c5565b60405180910390f35b6103a2600480360381019061039d91906121ac565b610bd0565b6040516103af91906126a3565b60405180910390f35b60007f80ac58cd000000000000000000000000000000000000000000000000000000007bffffffffffffffffffffffffffffffffffffffffffffffffffffffff1916827bffffffffffffffffffffffffffffffffffffffffffffffffffffffff1916148061048357507f5b5e139f000000000000000000000000000000000000000000000000000000007bffffffffffffffffffffffffffffffffffffffffffffffffffffffff1916827bffffffffffffffffffffffffffffffffffffffffffffffffffffffff1916145b80610493575061049282610c41565b5b9050919050565b6060600180546104a990612bb7565b80601f01602080910402602001604051908101604052809291908181526020018280546104d590612bb7565b80156105225780601f106104f757610100808354040283529160200191610522565b820191906000526020600020905b81548152906001019060200180831161050557829003601f168201915b5050505050905090565b600061053782610cab565b6007600083815260200190815260200160002060009054906101000a900473ffffffffffffffffffffffffffffffffffffffff169050919050565b600061057d82610821565b90508073ffffffffffffffffffffffffffffffffffffffff168373ffffffffffffffffffffffffffffffffffffffff1614156105ee576040517f08c379a00000000000000000000000000000000000000000000000000000000081526004016105e590612842565b60405180910390fd5b8073ffffffffffffffffffffffffffffffffffffffff1661060d610cf6565b73ffffffffffffffffffffffffffffffffffffffff16148061063c575061063b81610636610cf6565b610b3c565b5b61067b576040517f08c379a000000000000000000000000000000000000000000000000000000000815260040161067290612862565b60405180910390fd5b6106858383610cfe565b505050565b6060600a61069783610db7565b6040516020016106a89291906125f6565b6040516020818303038152906040529050919050565b6106cf6106c9610cf6565b82610ea4565b61070e576040517f08c379a000000000000000000000000000000000000000000000000000000000815260040161070590612702565b60405180910390fd5b610719838383610f39565b505050565b600061072a600061122f565b60006107366000611245565b905061074486868684611253565b61074e8184611275565b80915050949350505050565b61077583838360405180602001604052806000815250610a33565b505050565b606060006004600084815260200190815260200160002080548060200260200160405190810160405280929190818152602001828054801561081157602002820191906000526020600020905b8160009054906101000a900473ffffffffffffffffffffffffffffffffffffffff1673ffffffffffffffffffffffffffffffffffffffff16815260200190600101908083116107c7575b5050505050905080915050919050565b6000806003600084815260200190815260200160002060009054906101000a900473ffffffffffffffffffffffffffffffffffffffff169050600073ffffffffffffffffffffffffffffffffffffffff168173ffffffffffffffffffffffffffffffffffffffff1614156108ca576040517f08c379a00000000000000000000000000000000000000000000000000000000081526004016108c190612822565b60405180910390fd5b80915050919050565b60008073ffffffffffffffffffffffffffffffffffffffff168273ffffffffffffffffffffffffffffffffffffffff161415610944576040517f08c379a000000000000000000000000000000000000000000000000000000000815260040161093b906127c2565b60405180910390fd5b600660008373ffffffffffffffffffffffffffffffffffffffff1673ffffffffffffffffffffffffffffffffffffffff168152602001908152602001600020549050919050565b60606002805461099a90612bb7565b80601f01602080910402602001604051908101604052809291908181526020018280546109c690612bb7565b8015610a135780601f106109e857610100808354040283529160200191610a13565b820191906000526020600020905b8154815290600101906020018083116109f657829003601f168201915b5050505050905090565b610a2f610a28610cf6565b83836112a1565b5050565b610a44610a3e610cf6565b83610ea4565b610a83576040517f08c379a0000000000000000000000000000000000000000000000000000000008152600401610a7a90612702565b60405180910390fd5b610a8f8484848461140e565b50505050565b6060610aa08261146a565b610adf576040517f08c379a0000000000000000000000000000000000000000000000000000000008152600401610ad690612802565b60405180910390fd5b6000610ae96114d6565b90506000815111610b095760405180602001604052806000815250610b34565b80610b13846114ed565b604051602001610b249291906125d2565b6040516020818303038152906040525b915050919050565b6000600860008473ffffffffffffffffffffffffffffffffffffffff1673ffffffffffffffffffffffffffffffffffffffff16815260200190815260200160002060008373ffffffffffffffffffffffffffffffffffffffff1673ffffffffffffffffffffffffffffffffffffffff16815260200190815260200160002060009054906101000a900460ff16905092915050565b6060600060056000848152602001908152602001600020805480602002602001604051908101604052809291908181526020018280548015610c3157602002820191906000526020600020905b815481526020019060010190808311610c1d575b5050505050905080915050919050565b60007f01ffc9a7000000000000000000000000000000000000000000000000000000007bffffffffffffffffffffffffffffffffffffffffffffffffffffffff1916827bffffffffffffffffffffffffffffffffffffffffffffffffffffffff1916149050919050565b610cb48161146a565b610cf3576040517f08c379a0000000000000000000000000000000000000000000000000000000008152600401610cea90612822565b60405180910390fd5b50565b600033905090565b816007600083815260200190815260200160002060006101000a81548173ffffffffffffffffffffffffffffffffffffffff021916908373ffffffffffffffffffffffffffffffffffffffff160217905550808273ffffffffffffffffffffffffffffffffffffffff16610d7183610821565b73ffffffffffffffffffffffffffffffffffffffff167f8c5be1e5ebec7d5bd14f71427d1e84f3dd0314c0f7b2291e5b200ac8c7c3b92560405160405180910390a45050565b6060610dc28261146a565b610e01576040517f08c379a0000000000000000000000000000000000000000000000000000000008152600401610df890612802565b60405180910390fd5b600960008381526020019081526020016000208054610e1f90612bb7565b80601f0160208091040260200160405190810160405280929190818152602001828054610e4b90612bb7565b8015610e985780601f10610e6d57610100808354040283529160200191610e98565b820191906000526020600020905b815481529060010190602001808311610e7b57829003601f168201915b50505050509050919050565b600080610eb083610821565b90508073ffffffffffffffffffffffffffffffffffffffff168473ffffffffffffffffffffffffffffffffffffffff161480610ef25750610ef18185610b3c565b5b80610f3057508373ffffffffffffffffffffffffffffffffffffffff16610f188461052c565b73ffffffffffffffffffffffffffffffffffffffff16145b91505092915050565b8273ffffffffffffffffffffffffffffffffffffffff16610f5982610821565b73ffffffffffffffffffffffffffffffffffffffff1614610faf576040517f08c379a0000000000000000000000000000000000000000000000000000000008152600401610fa690612742565b60405180910390fd5b600073ffffffffffffffffffffffffffffffffffffffff168273ffffffffffffffffffffffffffffffffffffffff16141561101f576040517f08c379a000000000000000000000000000000000000000000000000000000000815260040161101690612782565b60405180910390fd5b61102a83838361169a565b8273ffffffffffffffffffffffffffffffffffffffff1661104a82610821565b73ffffffffffffffffffffffffffffffffffffffff16146110a0576040517f08c379a000000000000000000000000000000000000000000000000000000000815260040161109790612742565b60405180910390fd5b6007600082815260200190815260200160002060006101000a81549073ffffffffffffffffffffffffffffffffffffffff02191690556001600660008573ffffffffffffffffffffffffffffffffffffffff1673ffffffffffffffffffffffffffffffffffffffff168152602001908152602001600020600082825403925050819055506001600660008473ffffffffffffffffffffffffffffffffffffffff1673ffffffffffffffffffffffffffffffffffffffff16815260200190815260200160002060008282540192505081905550816003600083815260200190815260200160002060006101000a81548173ffffffffffffffffffffffffffffffffffffffff021916908373ffffffffffffffffffffffffffffffffffffffff160217905550808273ffffffffffffffffffffffffffffffffffffffff168473ffffffffffffffffffffffffffffffffffffffff167fddf252ad1be2c89b69c2b068fc378daa952ba7f163c4a11628f55a4df523b3ef60405160405180910390a461122a83838361169f565b505050565b6001816000016000828254019250508190555050565b600081600001549050919050565b61126f84848484604051806020016040528060008152506116a4565b50505050565b8060096000848152602001908152602001600020908051906020019061129c929190611b29565b505050565b8173ffffffffffffffffffffffffffffffffffffffff168373ffffffffffffffffffffffffffffffffffffffff161415611310576040517f08c379a0000000000000000000000000000000000000000000000000000000008152600401611307906127a2565b60405180910390fd5b80600860008573ffffffffffffffffffffffffffffffffffffffff1673ffffffffffffffffffffffffffffffffffffffff16815260200190815260200160002060008473ffffffffffffffffffffffffffffffffffffffff1673ffffffffffffffffffffffffffffffffffffffff16815260200190815260200160002060006101000a81548160ff0219169083151502179055508173ffffffffffffffffffffffffffffffffffffffff168373ffffffffffffffffffffffffffffffffffffffff167f17307eab39ab6107e8899845ad3d59bd9653f200f220920489ca2b5937696c318360405161140191906126c5565b60405180910390a3505050565b611419848484610f39565b61142584848484611703565b611464576040517f08c379a000000000000000000000000000000000000000000000000000000000815260040161145b90612722565b60405180910390fd5b50505050565b60008073ffffffffffffffffffffffffffffffffffffffff166003600084815260200190815260200160002060009054906101000a900473ffffffffffffffffffffffffffffffffffffffff1673ffffffffffffffffffffffffffffffffffffffff1614159050919050565b606060405180602001604052806000815250905090565b60606000821415611535576040518060400160405280600181526020017f30000000000000000000000000000000000000000000000000000000000000008152509050611695565b600082905060005b6000821461156757808061155090612c1a565b915050600a826115609190612a9c565b915061153d565b60008167ffffffffffffffff8111156115a9577f4e487b7100000000000000000000000000000000000000000000000000000000600052604160045260246000fd5b6040519080825280601f01601f1916602001820160405280156115db5781602001600182028036833780820191505090505b5090505b6000851461168e576001826115f49190612acd565b9150600a856116039190612c63565b603061160f9190612a46565b60f81b81838151811061164b577f4e487b7100000000000000000000000000000000000000000000000000000000600052603260045260246000fd5b60200101907effffffffffffffffffffffffffffffffffffffffffffffffffffffffffffff1916908160001a905350600a856116879190612a9c565b94506115df565b8093505050505b919050565b505050565b505050565b6116b08585858561189a565b6116bd6000868484611703565b6116fc576040517f08c379a00000000000000000000000000000000000000000000000000000000081526004016116f390612722565b60405180910390fd5b5050505050565b60006117248473ffffffffffffffffffffffffffffffffffffffff16611b06565b1561188d578373ffffffffffffffffffffffffffffffffffffffff1663150b7a0261174d610cf6565b8786866040518563ffffffff1660e01b815260040161176f9493929190612635565b602060405180830381600087803b15801561178957600080fd5b505af19250505080156117ba57506040513d601f19601f820116820180604052508101906117b79190612183565b60015b61183d573d80600081146117ea576040519150601f19603f3d011682016040523d82523d6000602084013e6117ef565b606091505b50600081511415611835576040517f08c379a000000000000000000000000000000000000000000000000000000000815260040161182c90612722565b60405180910390fd5b805181602001fd5b63150b7a0260e01b7bffffffffffffffffffffffffffffffffffffffffffffffffffffffff1916817bffffffffffffffffffffffffffffffffffffffffffffffffffffffff191614915050611892565b600190505b949350505050565b600073ffffffffffffffffffffffffffffffffffffffff168473ffffffffffffffffffffffffffffffffffffffff16141561190a576040517f08c379a0000000000000000000000000000000000000000000000000000000008152600401611901906127e2565b60405180910390fd5b6119138161146a565b15611953576040517f08c379a000000000000000000000000000000000000000000000000000000000815260040161194a90612762565b60405180910390fd5b61195f6000858361169a565b6119688161146a565b156119a8576040517f08c379a000000000000000000000000000000000000000000000000000000000815260040161199f90612762565b60405180910390fd5b6001600660008673ffffffffffffffffffffffffffffffffffffffff1673ffffffffffffffffffffffffffffffffffffffff16815260200190815260200160002060008282540192505081905550836003600083815260200190815260200160002060006101000a81548173ffffffffffffffffffffffffffffffffffffffff021916908373ffffffffffffffffffffffffffffffffffffffff16021790555082600460008381526020019081526020016000209080519060200190611a6f929190611baf565b5081600560008381526020019081526020016000209080519060200190611a97929190611c39565b50808473ffffffffffffffffffffffffffffffffffffffff16600073ffffffffffffffffffffffffffffffffffffffff167fddf252ad1be2c89b69c2b068fc378daa952ba7f163c4a11628f55a4df523b3ef60405160405180910390a4611b006000858361169f565b50505050565b6000808273ffffffffffffffffffffffffffffffffffffffff163b119050919050565b828054611b3590612bb7565b90600052602060002090601f016020900481019282611b575760008555611b9e565b82601f10611b7057805160ff1916838001178555611b9e565b82800160010185558215611b9e579182015b82811115611b9d578251825591602001919060010190611b82565b5b509050611bab9190611c86565b5090565b828054828255906000526020600020908101928215611c28579160200282015b82811115611c275782518260006101000a81548173ffffffffffffffffffffffffffffffffffffffff021916908373ffffffffffffffffffffffffffffffffffffffff16021790555091602001919060010190611bcf565b5b509050611c359190611c86565b5090565b828054828255906000526020600020908101928215611c75579160200282015b82811115611c74578251825591602001919060010190611c59565b5b509050611c829190611c86565b5090565b5b80821115611c9f576000816000905550600101611c87565b5090565b6000611cb6611cb1846128c2565b61289d565b90508083825260208201905082856020860282011115611cd557600080fd5b60005b85811015611d055781611ceb8882611df7565b845260208401935060208301925050600181019050611cd8565b5050509392505050565b6000611d22611d1d846128ee565b61289d565b90508083825260208201905082856020860282011115611d4157600080fd5b60005b85811015611d715781611d578882611ef3565b845260208401935060208301925050600181019050611d44565b5050509392505050565b6000611d8e611d898461291a565b61289d565b905082815260208101848484011115611da657600080fd5b611db1848285612b75565b509392505050565b6000611dcc611dc78461294b565b61289d565b905082815260208101848484011115611de457600080fd5b611def848285612b75565b509392505050565b600081359050611e068161307d565b92915050565b600082601f830112611e1d57600080fd5b8135611e2d848260208601611ca3565b91505092915050565b600082601f830112611e4757600080fd5b8135611e57848260208601611d0f565b91505092915050565b600081359050611e6f81613094565b92915050565b600081359050611e84816130ab565b92915050565b600081519050611e99816130ab565b92915050565b600082601f830112611eb057600080fd5b8135611ec0848260208601611d7b565b91505092915050565b600082601f830112611eda57600080fd5b8135611eea848260208601611db9565b91505092915050565b600081359050611f02816130c2565b92915050565b600060208284031215611f1a57600080fd5b6000611f2884828501611df7565b91505092915050565b60008060408385031215611f4457600080fd5b6000611f5285828601611df7565b9250506020611f6385828601611df7565b9150509250929050565b600080600060608486031215611f8257600080fd5b6000611f9086828701611df7565b9350506020611fa186828701611df7565b9250506040611fb286828701611ef3565b9150509250925092565b60008060008060808587031215611fd257600080fd5b6000611fe087828801611df7565b9450506020611ff187828801611df7565b935050604061200287828801611ef3565b925050606085013567ffffffffffffffff81111561201f57600080fd5b61202b87828801611e9f565b91505092959194509250565b6000806000806080858703121561204d57600080fd5b600061205b87828801611df7565b945050602085013567ffffffffffffffff81111561207857600080fd5b61208487828801611e0c565b935050604085013567ffffffffffffffff8111156120a157600080fd5b6120ad87828801611e36565b925050606085013567ffffffffffffffff8111156120ca57600080fd5b6120d687828801611ec9565b91505092959194509250565b600080604083850312156120f557600080fd5b600061210385828601611df7565b925050602061211485828601611e60565b9150509250929050565b6000806040838503121561213157600080fd5b600061213f85828601611df7565b925050602061215085828601611ef3565b9150509250929050565b60006020828403121561216c57600080fd5b600061217a84828501611e75565b91505092915050565b60006020828403121561219557600080fd5b60006121a384828501611e8a565b91505092915050565b6000602082840312156121be57600080fd5b60006121cc84828501611ef3565b91505092915050565b60006121e18383612205565b60208301905092915050565b60006121f983836125b4565b60208301905092915050565b61220e81612b01565b82525050565b61221d81612b01565b82525050565b600061222e826129b1565b61223881856129f7565b93506122438361297c565b8060005b8381101561227457815161225b88826121d5565b9750612266836129dd565b925050600181019050612247565b5085935050505092915050565b600061228c826129bc565b6122968185612a08565b93506122a18361298c565b8060005b838110156122d25781516122b988826121ed565b97506122c4836129ea565b9250506001810190506122a5565b5085935050505092915050565b6122e881612b13565b82525050565b60006122f9826129c7565b6123038185612a19565b9350612313818560208601612b84565b61231c81612d50565b840191505092915050565b6000612332826129d2565b61233c8185612a2a565b935061234c818560208601612b84565b61235581612d50565b840191505092915050565b600061236b826129d2565b6123758185612a3b565b9350612385818560208601612b84565b80840191505092915050565b6000815461239e81612bb7565b6123a88186612a3b565b945060018216600081146123c357600181146123d457612407565b60ff19831686528186019350612407565b6123dd8561299c565b60005b838110156123ff578154818901526001820191506020810190506123e0565b838801955050505b50505092915050565b600061241d602d83612a2a565b915061242882612d61565b604082019050919050565b6000612440603283612a2a565b915061244b82612db0565b604082019050919050565b6000612463602583612a2a565b915061246e82612dff565b604082019050919050565b6000612486601c83612a2a565b915061249182612e4e565b602082019050919050565b60006124a9602483612a2a565b91506124b482612e77565b604082019050919050565b60006124cc601983612a2a565b91506124d782612ec6565b602082019050919050565b60006124ef602983612a2a565b91506124fa82612eef565b604082019050919050565b6000612512602083612a2a565b915061251d82612f3e565b602082019050919050565b6000612535602f83612a2a565b915061254082612f67565b604082019050919050565b6000612558601883612a2a565b915061256382612fb6565b602082019050919050565b600061257b602183612a2a565b915061258682612fdf565b604082019050919050565b600061259e603d83612a2a565b91506125a98261302e565b604082019050919050565b6125bd81612b6b565b82525050565b6125cc81612b6b565b82525050565b60006125de8285612360565b91506125ea8284612360565b91508190509392505050565b60006126028285612391565b915061260e8284612360565b91508190509392505050565b600060208201905061262f6000830184612214565b92915050565b600060808201905061264a6000830187612214565b6126576020830186612214565b61266460408301856125c3565b818103606083015261267681846122ee565b905095945050505050565b6000602082019050818103600083015261269b8184612223565b905092915050565b600060208201905081810360008301526126bd8184612281565b905092915050565b60006020820190506126da60008301846122df565b92915050565b600060208201905081810360008301526126fa8184612327565b905092915050565b6000602082019050818103600083015261271b81612410565b9050919050565b6000602082019050818103600083015261273b81612433565b9050919050565b6000602082019050818103600083015261275b81612456565b9050919050565b6000602082019050818103600083015261277b81612479565b9050919050565b6000602082019050818103600083015261279b8161249c565b9050919050565b600060208201905081810360008301526127bb816124bf565b9050919050565b600060208201905081810360008301526127db816124e2565b9050919050565b600060208201905081810360008301526127fb81612505565b9050919050565b6000602082019050818103600083015261281b81612528565b9050919050565b6000602082019050818103600083015261283b8161254b565b9050919050565b6000602082019050818103600083015261285b8161256e565b9050919050565b6000602082019050818103600083015261287b81612591565b9050919050565b600060208201905061289760008301846125c3565b92915050565b60006128a76128b8565b90506128b38282612be9565b919050565b6000604051905090565b600067ffffffffffffffff8211156128dd576128dc612d21565b5b602082029050602081019050919050565b600067ffffffffffffffff82111561290957612908612d21565b5b602082029050602081019050919050565b600067ffffffffffffffff82111561293557612934612d21565b5b61293e82612d50565b9050602081019050919050565b600067ffffffffffffffff82111561296657612965612d21565b5b61296f82612d50565b9050602081019050919050565b6000819050602082019050919050565b6000819050602082019050919050565b60008190508160005260206000209050919050565b600081519050919050565b600081519050919050565b600081519050919050565b600081519050919050565b6000602082019050919050565b6000602082019050919050565b600082825260208201905092915050565b600082825260208201905092915050565b600082825260208201905092915050565b600082825260208201905092915050565b600081905092915050565b6000612a5182612b6b565b9150612a5c83612b6b565b9250827fffffffffffffffffffffffffffffffffffffffffffffffffffffffffffffffff03821115612a9157612a90612c94565b5b828201905092915050565b6000612aa782612b6b565b9150612ab283612b6b565b925082612ac257612ac1612cc3565b5b828204905092915050565b6000612ad882612b6b565b9150612ae383612b6b565b925082821015612af657612af5612c94565b5b828203905092915050565b6000612b0c82612b4b565b9050919050565b60008115159050919050565b60007fffffffff0000000000000000000000000000000000000000000000000000000082169050919050565b600073ffffffffffffffffffffffffffffffffffffffff82169050919050565b6000819050919050565b82818337600083830152505050565b60005b83811015612ba2578082015181840152602081019050612b87565b83811115612bb1576000848401525b50505050565b60006002820490506001821680612bcf57607f821691505b60208210811415612be357612be2612cf2565b5b50919050565b612bf282612d50565b810181811067ffffffffffffffff82111715612c1157612c10612d21565b5b80604052505050565b6000612c2582612b6b565b91507fffffffffffffffffffffffffffffffffffffffffffffffffffffffffffffffff821415612c5857612c57612c94565b5b600182019050919050565b6000612c6e82612b6b565b9150612c7983612b6b565b925082612c8957612c88612cc3565b5b828206905092915050565b7f4e487b7100000000000000000000000000000000000000000000000000000000600052601160045260246000fd5b7f4e487b7100000000000000000000000000000000000000000000000000000000600052601260045260246000fd5b7f4e487b7100000000000000000000000000000000000000000000000000000000600052602260045260246000fd5b7f4e487b7100000000000000000000000000000000000000000000000000000000600052604160045260246000fd5b6000601f19601f8301169050919050565b7f4552433732313a2063616c6c6572206973206e6f7420746f6b656e206f776e6560008201527f72206f7220617070726f76656400000000000000000000000000000000000000602082015250565b7f4552433732313a207472616e7366657220746f206e6f6e20455243373231526560008201527f63656976657220696d706c656d656e7465720000000000000000000000000000602082015250565b7f4552433732313a207472616e736665722066726f6d20696e636f72726563742060008201527f6f776e6572000000000000000000000000000000000000000000000000000000602082015250565b7f4552433732313a20746f6b656e20616c7265616479206d696e74656400000000600082015250565b7f4552433732313a207472616e7366657220746f20746865207a65726f2061646460008201527f7265737300000000000000000000000000000000000000000000000000000000602082015250565b7f4552433732313a20617070726f766520746f2063616c6c657200000000000000600082015250565b7f4552433732313a2061646472657373207a65726f206973206e6f74206120766160008201527f6c6964206f776e65720000000000000000000000000000000000000000000000602082015250565b7f4552433732313a206d696e7420746f20746865207a65726f2061646472657373600082015250565b7f4552433732314d657461646174613a2055524920717565727920666f72206e6f60008201527f6e6578697374656e7420746f6b656e0000000000000000000000000000000000602082015250565b7f4552433732313a20696e76616c696420746f6b656e2049440000000000000000600082015250565b7f4552433732313a20617070726f76616c20746f2063757272656e74206f776e6560008201527f7200000000000000000000000000000000000000000000000000000000000000602082015250565b7f4552433732313a20617070726f76652063616c6c6572206973206e6f7420746f60008201527f6b656e206f776e6572206f7220617070726f76656420666f7220616c6c000000602082015250565b61308681612b01565b811461309157600080fd5b50565b61309d81612b13565b81146130a857600080fd5b50565b6130b481612b1f565b81146130bf57600080fd5b50565b6130cb81612b6b565b81146130d657600080fd5b5056fea264697066735822122083e18c2bec5b3d121e441009a4221e2e76b82d574260c039bfcb0698ed8ef3da64736f6c63430008040033",
					"opcodes": "PUSH1 0x80 PUSH1 0x40 MSTORE CALLVALUE DUP1 ISZERO PUSH3 0x11 JUMPI PUSH1 0x0 DUP1 REVERT JUMPDEST POP PUSH1 0x40 MLOAD PUSH3 0x3495 CODESIZE SUB DUP1 PUSH3 0x3495 DUP4 CODECOPY DUP2 DUP2 ADD PUSH1 0x40 MSTORE DUP2 ADD SWAP1 PUSH3 0x37 SWAP2 SWAP1 PUSH3 0x193 JUMP JUMPDEST DUP2 PUSH1 0x1 SWAP1 DUP1 MLOAD SWAP1 PUSH1 0x20 ADD SWAP1 PUSH3 0x4F SWAP3 SWAP2 SWAP1 PUSH3 0x71 JUMP JUMPDEST POP DUP1 PUSH1 0x2 SWAP1 DUP1 MLOAD SWAP1 PUSH1 0x20 ADD SWAP1 PUSH3 0x68 SWAP3 SWAP2 SWAP1 PUSH3 0x71 JUMP JUMPDEST POP POP POP PUSH3 0x376 JUMP JUMPDEST DUP3 DUP1 SLOAD PUSH3 0x7F SWAP1 PUSH3 0x29B JUMP JUMPDEST SWAP1 PUSH1 0x0 MSTORE PUSH1 0x20 PUSH1 0x0 KECCAK256 SWAP1 PUSH1 0x1F ADD PUSH1 0x20 SWAP1 DIV DUP2 ADD SWAP3 DUP3 PUSH3 0xA3 JUMPI PUSH1 0x0 DUP6 SSTORE PUSH3 0xEF JUMP JUMPDEST DUP3 PUSH1 0x1F LT PUSH3 0xBE JUMPI DUP1 MLOAD PUSH1 0xFF NOT AND DUP4 DUP1 ADD OR DUP6 SSTORE PUSH3 0xEF JUMP JUMPDEST DUP3 DUP1 ADD PUSH1 0x1 ADD DUP6 SSTORE DUP3 ISZERO PUSH3 0xEF JUMPI SWAP2 DUP3 ADD JUMPDEST DUP3 DUP2 GT ISZERO PUSH3 0xEE JUMPI DUP3 MLOAD DUP3 SSTORE SWAP2 PUSH1 0x20 ADD SWAP2 SWAP1 PUSH1 0x1 ADD SWAP1 PUSH3 0xD1 JUMP JUMPDEST JUMPDEST POP SWAP1 POP PUSH3 0xFE SWAP2 SWAP1 PUSH3 0x102 JUMP JUMPDEST POP SWAP1 JUMP JUMPDEST JUMPDEST DUP1 DUP3 GT ISZERO PUSH3 0x11D JUMPI PUSH1 0x0 DUP2 PUSH1 0x0 SWAP1 SSTORE POP PUSH1 0x1 ADD PUSH3 0x103 JUMP JUMPDEST POP SWAP1 JUMP JUMPDEST PUSH1 0x0 PUSH3 0x138 PUSH3 0x132 DUP5 PUSH3 0x22F JUMP JUMPDEST PUSH3 0x206 JUMP JUMPDEST SWAP1 POP DUP3 DUP2 MSTORE PUSH1 0x20 DUP2 ADD DUP5 DUP5 DUP5 ADD GT ISZERO PUSH3 0x151 JUMPI PUSH1 0x0 DUP1 REVERT JUMPDEST PUSH3 0x15E DUP5 DUP3 DUP6 PUSH3 0x265 JUMP JUMPDEST POP SWAP4 SWAP3 POP POP POP JUMP JUMPDEST PUSH1 0x0 DUP3 PUSH1 0x1F DUP4 ADD SLT PUSH3 0x178 JUMPI PUSH1 0x0 DUP1 REVERT JUMPDEST DUP2 MLOAD PUSH3 0x18A DUP5 DUP3 PUSH1 0x20 DUP7 ADD PUSH3 0x121 JUMP JUMPDEST SWAP2 POP POP SWAP3 SWAP2 POP POP JUMP JUMPDEST PUSH1 0x0 DUP1 PUSH1 0x40 DUP4 DUP6 SUB SLT ISZERO PUSH3 0x1A7 JUMPI PUSH1 0x0 DUP1 REVERT JUMPDEST PUSH1 0x0 DUP4 ADD MLOAD PUSH8 0xFFFFFFFFFFFFFFFF DUP2 GT ISZERO PUSH3 0x1C2 JUMPI PUSH1 0x0 DUP1 REVERT JUMPDEST PUSH3 0x1D0 DUP6 DUP3 DUP7 ADD PUSH3 0x166 JUMP JUMPDEST SWAP3 POP POP PUSH1 0x20 DUP4 ADD MLOAD PUSH8 0xFFFFFFFFFFFFFFFF DUP2 GT ISZERO PUSH3 0x1EE JUMPI PUSH1 0x0 DUP1 REVERT JUMPDEST PUSH3 0x1FC DUP6 DUP3 DUP7 ADD PUSH3 0x166 JUMP JUMPDEST SWAP2 POP POP SWAP3 POP SWAP3 SWAP1 POP JUMP JUMPDEST PUSH1 0x0 PUSH3 0x212 PUSH3 0x225 JUMP JUMPDEST SWAP1 POP PUSH3 0x220 DUP3 DUP3 PUSH3 0x2D1 JUMP JUMPDEST SWAP2 SWAP1 POP JUMP JUMPDEST PUSH1 0x0 PUSH1 0x40 MLOAD SWAP1 POP SWAP1 JUMP JUMPDEST PUSH1 0x0 PUSH8 0xFFFFFFFFFFFFFFFF DUP3 GT ISZERO PUSH3 0x24D JUMPI PUSH3 0x24C PUSH3 0x336 JUMP JUMPDEST JUMPDEST PUSH3 0x258 DUP3 PUSH3 0x365 JUMP JUMPDEST SWAP1 POP PUSH1 0x20 DUP2 ADD SWAP1 POP SWAP2 SWAP1 POP JUMP JUMPDEST PUSH1 0x0 JUMPDEST DUP4 DUP2 LT ISZERO PUSH3 0x285 JUMPI DUP1 DUP3 ADD MLOAD DUP2 DUP5 ADD MSTORE PUSH1 0x20 DUP2 ADD SWAP1 POP PUSH3 0x268 JUMP JUMPDEST DUP4 DUP2 GT ISZERO PUSH3 0x295 JUMPI PUSH1 0x0 DUP5 DUP5 ADD MSTORE JUMPDEST POP POP POP POP JUMP JUMPDEST PUSH1 0x0 PUSH1 0x2 DUP3 DIV SWAP1 POP PUSH1 0x1 DUP3 AND DUP1 PUSH3 0x2B4 JUMPI PUSH1 0x7F DUP3 AND SWAP2 POP JUMPDEST PUSH1 0x20 DUP3 LT DUP2 EQ ISZERO PUSH3 0x2CB JUMPI PUSH3 0x2CA PUSH3 0x307 JUMP JUMPDEST JUMPDEST POP SWAP2 SWAP1 POP JUMP JUMPDEST PUSH3 0x2DC DUP3 PUSH3 0x365 JUMP JUMPDEST DUP2 ADD DUP2 DUP2 LT PUSH8 0xFFFFFFFFFFFFFFFF DUP3 GT OR ISZERO PUSH3 0x2FE JUMPI PUSH3 0x2FD PUSH3 0x336 JUMP JUMPDEST JUMPDEST DUP1 PUSH1 0x40 MSTORE POP POP POP JUMP JUMPDEST PUSH32 0x4E487B7100000000000000000000000000000000000000000000000000000000 PUSH1 0x0 MSTORE PUSH1 0x22 PUSH1 0x4 MSTORE PUSH1 0x24 PUSH1 0x0 REVERT JUMPDEST PUSH32 0x4E487B7100000000000000000000000000000000000000000000000000000000 PUSH1 0x0 MSTORE PUSH1 0x41 PUSH1 0x4 MSTORE PUSH1 0x24 PUSH1 0x0 REVERT JUMPDEST PUSH1 0x0 PUSH1 0x1F NOT PUSH1 0x1F DUP4 ADD AND SWAP1 POP SWAP2 SWAP1 POP JUMP JUMPDEST PUSH2 0x310F DUP1 PUSH3 0x386 PUSH1 0x0 CODECOPY PUSH1 0x0 RETURN INVALID PUSH1 0x80 PUSH1 0x40 MSTORE CALLVALUE DUP1 ISZERO PUSH2 0x10 JUMPI PUSH1 0x0 DUP1 REVERT JUMPDEST POP PUSH1 0x4 CALLDATASIZE LT PUSH2 0x10B JUMPI PUSH1 0x0 CALLDATALOAD PUSH1 0xE0 SHR DUP1 PUSH4 0x52E04825 GT PUSH2 0xA2 JUMPI DUP1 PUSH4 0xA22CB465 GT PUSH2 0x71 JUMPI DUP1 PUSH4 0xA22CB465 EQ PUSH2 0x2F0 JUMPI DUP1 PUSH4 0xB88D4FDE EQ PUSH2 0x30C JUMPI DUP1 PUSH4 0xC87B56DD EQ PUSH2 0x328 JUMPI DUP1 PUSH4 0xE985E9C5 EQ PUSH2 0x358 JUMPI DUP1 PUSH4 0xEE48CDA2 EQ PUSH2 0x388 JUMPI PUSH2 0x10B JUMP JUMPDEST DUP1 PUSH4 0x52E04825 EQ PUSH2 0x242 JUMPI DUP1 PUSH4 0x6352211E EQ PUSH2 0x272 JUMPI DUP1 PUSH4 0x70A08231 EQ PUSH2 0x2A2 JUMPI DUP1 PUSH4 0x95D89B41 EQ PUSH2 0x2D2 JUMPI PUSH2 0x10B JUMP JUMPDEST DUP1 PUSH4 0x1675F455 GT PUSH2 0xDE JUMPI DUP1 PUSH4 0x1675F455 EQ PUSH2 0x1AA JUMPI DUP1 PUSH4 0x23B872DD EQ PUSH2 0x1DA JUMPI DUP1 PUSH4 0x381568D8 EQ PUSH2 0x1F6 JUMPI DUP1 PUSH4 0x42842E0E EQ PUSH2 0x226 JUMPI PUSH2 0x10B JUMP JUMPDEST DUP1 PUSH4 0x1FFC9A7 EQ PUSH2 0x110 JUMPI DUP1 PUSH4 0x6FDDE03 EQ PUSH2 0x140 JUMPI DUP1 PUSH4 0x81812FC EQ PUSH2 0x15E JUMPI DUP1 PUSH4 0x95EA7B3 EQ PUSH2 0x18E JUMPI JUMPDEST PUSH1 0x0 DUP1 REVERT JUMPDEST PUSH2 0x12A PUSH1 0x4 DUP1 CALLDATASIZE SUB DUP2 ADD SWAP1 PUSH2 0x125 SWAP2 SWAP1 PUSH2 0x215A JUMP JUMPDEST PUSH2 0x3B8 JUMP JUMPDEST PUSH1 0x40 MLOAD PUSH2 0x137 SWAP2 SWAP1 PUSH2 0x26C5 JUMP JUMPDEST PUSH1 0x40 MLOAD DUP1 SWAP2 SUB SWAP1 RETURN JUMPDEST PUSH2 0x148 PUSH2 0x49A JUMP JUMPDEST PUSH1 0x40 MLOAD PUSH2 0x155 SWAP2 SWAP1 PUSH2 0x26E0 JUMP JUMPDEST PUSH1 0x40 MLOAD DUP1 SWAP2 SUB SWAP1 RETURN JUMPDEST PUSH2 0x178 PUSH1 0x4 DUP1 CALLDATASIZE SUB DUP2 ADD SWAP1 PUSH2 0x173 SWAP2 SWAP1 PUSH2 0x21AC JUMP JUMPDEST PUSH2 0x52C JUMP JUMPDEST PUSH1 0x40 MLOAD PUSH2 0x185 SWAP2 SWAP1 PUSH2 0x261A JUMP JUMPDEST PUSH1 0x40 MLOAD DUP1 SWAP2 SUB SWAP1 RETURN JUMPDEST PUSH2 0x1A8 PUSH1 0x4 DUP1 CALLDATASIZE SUB DUP2 ADD SWAP1 PUSH2 0x1A3 SWAP2 SWAP1 PUSH2 0x211E JUMP JUMPDEST PUSH2 0x572 JUMP JUMPDEST STOP JUMPDEST PUSH2 0x1C4 PUSH1 0x4 DUP1 CALLDATASIZE SUB DUP2 ADD SWAP1 PUSH2 0x1BF SWAP2 SWAP1 PUSH2 0x21AC JUMP JUMPDEST PUSH2 0x68A JUMP JUMPDEST PUSH1 0x40 MLOAD PUSH2 0x1D1 SWAP2 SWAP1 PUSH2 0x26E0 JUMP JUMPDEST PUSH1 0x40 MLOAD DUP1 SWAP2 SUB SWAP1 RETURN JUMPDEST PUSH2 0x1F4 PUSH1 0x4 DUP1 CALLDATASIZE SUB DUP2 ADD SWAP1 PUSH2 0x1EF SWAP2 SWAP1 PUSH2 0x1F6D JUMP JUMPDEST PUSH2 0x6BE JUMP JUMPDEST STOP JUMPDEST PUSH2 0x210 PUSH1 0x4 DUP1 CALLDATASIZE SUB DUP2 ADD SWAP1 PUSH2 0x20B SWAP2 SWAP1 PUSH2 0x2037 JUMP JUMPDEST PUSH2 0x71E JUMP JUMPDEST PUSH1 0x40 MLOAD PUSH2 0x21D SWAP2 SWAP1 PUSH2 0x2882 JUMP JUMPDEST PUSH1 0x40 MLOAD DUP1 SWAP2 SUB SWAP1 RETURN JUMPDEST PUSH2 0x240 PUSH1 0x4 DUP1 CALLDATASIZE SUB DUP2 ADD SWAP1 PUSH2 0x23B SWAP2 SWAP1 PUSH2 0x1F6D JUMP JUMPDEST PUSH2 0x75A JUMP JUMPDEST STOP JUMPDEST PUSH2 0x25C PUSH1 0x4 DUP1 CALLDATASIZE SUB DUP2 ADD SWAP1 PUSH2 0x257 SWAP2 SWAP1 PUSH2 0x21AC JUMP JUMPDEST PUSH2 0x77A JUMP JUMPDEST PUSH1 0x40 MLOAD PUSH2 0x269 SWAP2 SWAP1 PUSH2 0x2681 JUMP JUMPDEST PUSH1 0x40 MLOAD DUP1 SWAP2 SUB SWAP1 RETURN JUMPDEST PUSH2 0x28C PUSH1 0x4 DUP1 CALLDATASIZE SUB DUP2 ADD SWAP1 PUSH2 0x287 SWAP2 SWAP1 PUSH2 0x21AC JUMP JUMPDEST PUSH2 0x821 JUMP JUMPDEST PUSH1 0x40 MLOAD PUSH2 0x299 SWAP2 SWAP1 PUSH2 0x261A JUMP JUMPDEST PUSH1 0x40 MLOAD DUP1 SWAP2 SUB SWAP1 RETURN JUMPDEST PUSH2 0x2BC PUSH1 0x4 DUP1 CALLDATASIZE SUB DUP2 ADD SWAP1 PUSH2 0x2B7 SWAP2 SWAP1 PUSH2 0x1F08 JUMP JUMPDEST PUSH2 0x8D3 JUMP JUMPDEST PUSH1 0x40 MLOAD PUSH2 0x2C9 SWAP2 SWAP1 PUSH2 0x2882 JUMP JUMPDEST PUSH1 0x40 MLOAD DUP1 SWAP2 SUB SWAP1 RETURN JUMPDEST PUSH2 0x2DA PUSH2 0x98B JUMP JUMPDEST PUSH1 0x40 MLOAD PUSH2 0x2E7 SWAP2 SWAP1 PUSH2 0x26E0 JUMP JUMPDEST PUSH1 0x40 MLOAD DUP1 SWAP2 SUB SWAP1 RETURN JUMPDEST PUSH2 0x30A PUSH1 0x4 DUP1 CALLDATASIZE SUB DUP2 ADD SWAP1 PUSH2 0x305 SWAP2 SWAP1 PUSH2 0x20E2 JUMP JUMPDEST PUSH2 0xA1D JUMP JUMPDEST STOP JUMPDEST PUSH2 0x326 PUSH1 0x4 DUP1 CALLDATASIZE SUB DUP2 ADD SWAP1 PUSH2 0x321 SWAP2 SWAP1 PUSH2 0x1FBC JUMP JUMPDEST PUSH2 0xA33 JUMP JUMPDEST STOP JUMPDEST PUSH2 0x342 PUSH1 0x4 DUP1 CALLDATASIZE SUB DUP2 ADD SWAP1 PUSH2 0x33D SWAP2 SWAP1 PUSH2 0x21AC JUMP JUMPDEST PUSH2 0xA95 JUMP JUMPDEST PUSH1 0x40 MLOAD PUSH2 0x34F SWAP2 SWAP1 PUSH2 0x26E0 JUMP JUMPDEST PUSH1 0x40 MLOAD DUP1 SWAP2 SUB SWAP1 RETURN JUMPDEST PUSH2 0x372 PUSH1 0x4 DUP1 CALLDATASIZE SUB DUP2 ADD SWAP1 PUSH2 0x36D SWAP2 SWAP1 PUSH2 0x1F31 JUMP JUMPDEST PUSH2 0xB3C JUMP JUMPDEST PUSH1 0x40 MLOAD PUSH2 0x37F SWAP2 SWAP1 PUSH2 0x26C5 JUMP JUMPDEST PUSH1 0x40 MLOAD DUP1 SWAP2 SUB SWAP1 RETURN JUMPDEST PUSH2 0x3A2 PUSH1 0x4 DUP1 CALLDATASIZE SUB DUP2 ADD SWAP1 PUSH2 0x39D SWAP2 SWAP1 PUSH2 0x21AC JUMP JUMPDEST PUSH2 0xBD0 JUMP JUMPDEST PUSH1 0x40 MLOAD PUSH2 0x3AF SWAP2 SWAP1 PUSH2 0x26A3 JUMP JUMPDEST PUSH1 0x40 MLOAD DUP1 SWAP2 SUB SWAP1 RETURN JUMPDEST PUSH1 0x0 PUSH32 0x80AC58CD00000000000000000000000000000000000000000000000000000000 PUSH28 0xFFFFFFFFFFFFFFFFFFFFFFFFFFFFFFFFFFFFFFFFFFFFFFFFFFFFFFFF NOT AND DUP3 PUSH28 0xFFFFFFFFFFFFFFFFFFFFFFFFFFFFFFFFFFFFFFFFFFFFFFFFFFFFFFFF NOT AND EQ DUP1 PUSH2 0x483 JUMPI POP PUSH32 0x5B5E139F00000000000000000000000000000000000000000000000000000000 PUSH28 0xFFFFFFFFFFFFFFFFFFFFFFFFFFFFFFFFFFFFFFFFFFFFFFFFFFFFFFFF NOT AND DUP3 PUSH28 0xFFFFFFFFFFFFFFFFFFFFFFFFFFFFFFFFFFFFFFFFFFFFFFFFFFFFFFFF NOT AND EQ JUMPDEST DUP1 PUSH2 0x493 JUMPI POP PUSH2 0x492 DUP3 PUSH2 0xC41 JUMP JUMPDEST JUMPDEST SWAP1 POP SWAP2 SWAP1 POP JUMP JUMPDEST PUSH1 0x60 PUSH1 0x1 DUP1 SLOAD PUSH2 0x4A9 SWAP1 PUSH2 0x2BB7 JUMP JUMPDEST DUP1 PUSH1 0x1F ADD PUSH1 0x20 DUP1 SWAP2 DIV MUL PUSH1 0x20 ADD PUSH1 0x40 MLOAD SWAP1 DUP2 ADD PUSH1 0x40 MSTORE DUP1 SWAP3 SWAP2 SWAP1 DUP2 DUP2 MSTORE PUSH1 0x20 ADD DUP3 DUP1 SLOAD PUSH2 0x4D5 SWAP1 PUSH2 0x2BB7 JUMP JUMPDEST DUP1 ISZERO PUSH2 0x522 JUMPI DUP1 PUSH1 0x1F LT PUSH2 0x4F7 JUMPI PUSH2 0x100 DUP1 DUP4 SLOAD DIV MUL DUP4 MSTORE SWAP2 PUSH1 0x20 ADD SWAP2 PUSH2 0x522 JUMP JUMPDEST DUP3 ADD SWAP2 SWAP1 PUSH1 0x0 MSTORE PUSH1 0x20 PUSH1 0x0 KECCAK256 SWAP1 JUMPDEST DUP2 SLOAD DUP2 MSTORE SWAP1 PUSH1 0x1 ADD SWAP1 PUSH1 0x20 ADD DUP1 DUP4 GT PUSH2 0x505 JUMPI DUP3 SWAP1 SUB PUSH1 0x1F AND DUP3 ADD SWAP2 JUMPDEST POP POP POP POP POP SWAP1 POP SWAP1 JUMP JUMPDEST PUSH1 0x0 PUSH2 0x537 DUP3 PUSH2 0xCAB JUMP JUMPDEST PUSH1 0x7 PUSH1 0x0 DUP4 DUP2 MSTORE PUSH1 0x20 ADD SWAP1 DUP2 MSTORE PUSH1 0x20 ADD PUSH1 0x0 KECCAK256 PUSH1 0x0 SWAP1 SLOAD SWAP1 PUSH2 0x100 EXP SWAP1 DIV PUSH20 0xFFFFFFFFFFFFFFFFFFFFFFFFFFFFFFFFFFFFFFFF AND SWAP1 POP SWAP2 SWAP1 POP JUMP JUMPDEST PUSH1 0x0 PUSH2 0x57D DUP3 PUSH2 0x821 JUMP JUMPDEST SWAP1 POP DUP1 PUSH20 0xFFFFFFFFFFFFFFFFFFFFFFFFFFFFFFFFFFFFFFFF AND DUP4 PUSH20 0xFFFFFFFFFFFFFFFFFFFFFFFFFFFFFFFFFFFFFFFF AND EQ ISZERO PUSH2 0x5EE JUMPI PUSH1 0x40 MLOAD PUSH32 0x8C379A000000000000000000000000000000000000000000000000000000000 DUP2 MSTORE PUSH1 0x4 ADD PUSH2 0x5E5 SWAP1 PUSH2 0x2842 JUMP JUMPDEST PUSH1 0x40 MLOAD DUP1 SWAP2 SUB SWAP1 REVERT JUMPDEST DUP1 PUSH20 0xFFFFFFFFFFFFFFFFFFFFFFFFFFFFFFFFFFFFFFFF AND PUSH2 0x60D PUSH2 0xCF6 JUMP JUMPDEST PUSH20 0xFFFFFFFFFFFFFFFFFFFFFFFFFFFFFFFFFFFFFFFF AND EQ DUP1 PUSH2 0x63C JUMPI POP PUSH2 0x63B DUP2 PUSH2 0x636 PUSH2 0xCF6 JUMP JUMPDEST PUSH2 0xB3C JUMP JUMPDEST JUMPDEST PUSH2 0x67B JUMPI PUSH1 0x40 MLOAD PUSH32 0x8C379A000000000000000000000000000000000000000000000000000000000 DUP2 MSTORE PUSH1 0x4 ADD PUSH2 0x672 SWAP1 PUSH2 0x2862 JUMP JUMPDEST PUSH1 0x40 MLOAD DUP1 SWAP2 SUB SWAP1 REVERT JUMPDEST PUSH2 0x685 DUP4 DUP4 PUSH2 0xCFE JUMP JUMPDEST POP POP POP JUMP JUMPDEST PUSH1 0x60 PUSH1 0xA PUSH2 0x697 DUP4 PUSH2 0xDB7 JUMP JUMPDEST PUSH1 0x40 MLOAD PUSH1 0x20 ADD PUSH2 0x6A8 SWAP3 SWAP2 SWAP1 PUSH2 0x25F6 JUMP JUMPDEST PUSH1 0x40 MLOAD PUSH1 0x20 DUP2 DUP4 SUB SUB DUP2 MSTORE SWAP1 PUSH1 0x40 MSTORE SWAP1 POP SWAP2 SWAP1 POP JUMP JUMPDEST PUSH2 0x6CF PUSH2 0x6C9 PUSH2 0xCF6 JUMP JUMPDEST DUP3 PUSH2 0xEA4 JUMP JUMPDEST PUSH2 0x70E JUMPI PUSH1 0x40 MLOAD PUSH32 0x8C379A000000000000000000000000000000000000000000000000000000000 DUP2 MSTORE PUSH1 0x4 ADD PUSH2 0x705 SWAP1 PUSH2 0x2702 JUMP JUMPDEST PUSH1 0x40 MLOAD DUP1 SWAP2 SUB SWAP1 REVERT JUMPDEST PUSH2 0x719 DUP4 DUP4 DUP4 PUSH2 0xF39 JUMP JUMPDEST POP POP POP JUMP JUMPDEST PUSH1 0x0 PUSH2 0x72A PUSH1 0x0 PUSH2 0x122F JUMP JUMPDEST PUSH1 0x0 PUSH2 0x736 PUSH1 0x0 PUSH2 0x1245 JUMP JUMPDEST SWAP1 POP PUSH2 0x744 DUP7 DUP7 DUP7 DUP5 PUSH2 0x1253 JUMP JUMPDEST PUSH2 0x74E DUP2 DUP5 PUSH2 0x1275 JUMP JUMPDEST DUP1 SWAP2 POP POP SWAP5 SWAP4 POP POP POP POP JUMP JUMPDEST PUSH2 0x775 DUP4 DUP4 DUP4 PUSH1 0x40 MLOAD DUP1 PUSH1 0x20 ADD PUSH1 0x40 MSTORE DUP1 PUSH1 0x0 DUP2 MSTORE POP PUSH2 0xA33 JUMP JUMPDEST POP POP POP JUMP JUMPDEST PUSH1 0x60 PUSH1 0x0 PUSH1 0x4 PUSH1 0x0 DUP5 DUP2 MSTORE PUSH1 0x20 ADD SWAP1 DUP2 MSTORE PUSH1 0x20 ADD PUSH1 0x0 KECCAK256 DUP1 SLOAD DUP1 PUSH1 0x20 MUL PUSH1 0x20 ADD PUSH1 0x40 MLOAD SWAP1 DUP2 ADD PUSH1 0x40 MSTORE DUP1 SWAP3 SWAP2 SWAP1 DUP2 DUP2 MSTORE PUSH1 0x20 ADD DUP3 DUP1 SLOAD DUP1 ISZERO PUSH2 0x811 JUMPI PUSH1 0x20 MUL DUP3 ADD SWAP2 SWAP1 PUSH1 0x0 MSTORE PUSH1 0x20 PUSH1 0x0 KECCAK256 SWAP1 JUMPDEST DUP2 PUSH1 0x0 SWAP1 SLOAD SWAP1 PUSH2 0x100 EXP SWAP1 DIV PUSH20 0xFFFFFFFFFFFFFFFFFFFFFFFFFFFFFFFFFFFFFFFF AND PUSH20 0xFFFFFFFFFFFFFFFFFFFFFFFFFFFFFFFFFFFFFFFF AND DUP2 MSTORE PUSH1 0x20 ADD SWAP1 PUSH1 0x1 ADD SWAP1 DUP1 DUP4 GT PUSH2 0x7C7 JUMPI JUMPDEST POP POP POP POP POP SWAP1 POP DUP1 SWAP2 POP POP SWAP2 SWAP1 POP JUMP JUMPDEST PUSH1 0x0 DUP1 PUSH1 0x3 PUSH1 0x0 DUP5 DUP2 MSTORE PUSH1 0x20 ADD SWAP1 DUP2 MSTORE PUSH1 0x20 ADD PUSH1 0x0 KECCAK256 PUSH1 0x0 SWAP1 SLOAD SWAP1 PUSH2 0x100 EXP SWAP1 DIV PUSH20 0xFFFFFFFFFFFFFFFFFFFFFFFFFFFFFFFFFFFFFFFF AND SWAP1 POP PUSH1 0x0 PUSH20 0xFFFFFFFFFFFFFFFFFFFFFFFFFFFFFFFFFFFFFFFF AND DUP2 PUSH20 0xFFFFFFFFFFFFFFFFFFFFFFFFFFFFFFFFFFFFFFFF AND EQ ISZERO PUSH2 0x8CA JUMPI PUSH1 0x40 MLOAD PUSH32 0x8C379A000000000000000000000000000000000000000000000000000000000 DUP2 MSTORE PUSH1 0x4 ADD PUSH2 0x8C1 SWAP1 PUSH2 0x2822 JUMP JUMPDEST PUSH1 0x40 MLOAD DUP1 SWAP2 SUB SWAP1 REVERT JUMPDEST DUP1 SWAP2 POP POP SWAP2 SWAP1 POP JUMP JUMPDEST PUSH1 0x0 DUP1 PUSH20 0xFFFFFFFFFFFFFFFFFFFFFFFFFFFFFFFFFFFFFFFF AND DUP3 PUSH20 0xFFFFFFFFFFFFFFFFFFFFFFFFFFFFFFFFFFFFFFFF AND EQ ISZERO PUSH2 0x944 JUMPI PUSH1 0x40 MLOAD PUSH32 0x8C379A000000000000000000000000000000000000000000000000000000000 DUP2 MSTORE PUSH1 0x4 ADD PUSH2 0x93B SWAP1 PUSH2 0x27C2 JUMP JUMPDEST PUSH1 0x40 MLOAD DUP1 SWAP2 SUB SWAP1 REVERT JUMPDEST PUSH1 0x6 PUSH1 0x0 DUP4 PUSH20 0xFFFFFFFFFFFFFFFFFFFFFFFFFFFFFFFFFFFFFFFF AND PUSH20 0xFFFFFFFFFFFFFFFFFFFFFFFFFFFFFFFFFFFFFFFF AND DUP2 MSTORE PUSH1 0x20 ADD SWAP1 DUP2 MSTORE PUSH1 0x20 ADD PUSH1 0x0 KECCAK256 SLOAD SWAP1 POP SWAP2 SWAP1 POP JUMP JUMPDEST PUSH1 0x60 PUSH1 0x2 DUP1 SLOAD PUSH2 0x99A SWAP1 PUSH2 0x2BB7 JUMP JUMPDEST DUP1 PUSH1 0x1F ADD PUSH1 0x20 DUP1 SWAP2 DIV MUL PUSH1 0x20 ADD PUSH1 0x40 MLOAD SWAP1 DUP2 ADD PUSH1 0x40 MSTORE DUP1 SWAP3 SWAP2 SWAP1 DUP2 DUP2 MSTORE PUSH1 0x20 ADD DUP3 DUP1 SLOAD PUSH2 0x9C6 SWAP1 PUSH2 0x2BB7 JUMP JUMPDEST DUP1 ISZERO PUSH2 0xA13 JUMPI DUP1 PUSH1 0x1F LT PUSH2 0x9E8 JUMPI PUSH2 0x100 DUP1 DUP4 SLOAD DIV MUL DUP4 MSTORE SWAP2 PUSH1 0x20 ADD SWAP2 PUSH2 0xA13 JUMP JUMPDEST DUP3 ADD SWAP2 SWAP1 PUSH1 0x0 MSTORE PUSH1 0x20 PUSH1 0x0 KECCAK256 SWAP1 JUMPDEST DUP2 SLOAD DUP2 MSTORE SWAP1 PUSH1 0x1 ADD SWAP1 PUSH1 0x20 ADD DUP1 DUP4 GT PUSH2 0x9F6 JUMPI DUP3 SWAP1 SUB PUSH1 0x1F AND DUP3 ADD SWAP2 JUMPDEST POP POP POP POP POP SWAP1 POP SWAP1 JUMP JUMPDEST PUSH2 0xA2F PUSH2 0xA28 PUSH2 0xCF6 JUMP JUMPDEST DUP4 DUP4 PUSH2 0x12A1 JUMP JUMPDEST POP POP JUMP JUMPDEST PUSH2 0xA44 PUSH2 0xA3E PUSH2 0xCF6 JUMP JUMPDEST DUP4 PUSH2 0xEA4 JUMP JUMPDEST PUSH2 0xA83 JUMPI PUSH1 0x40 MLOAD PUSH32 0x8C379A000000000000000000000000000000000000000000000000000000000 DUP2 MSTORE PUSH1 0x4 ADD PUSH2 0xA7A SWAP1 PUSH2 0x2702 JUMP JUMPDEST PUSH1 0x40 MLOAD DUP1 SWAP2 SUB SWAP1 REVERT JUMPDEST PUSH2 0xA8F DUP5 DUP5 DUP5 DUP5 PUSH2 0x140E JUMP JUMPDEST POP POP POP POP JUMP JUMPDEST PUSH1 0x60 PUSH2 0xAA0 DUP3 PUSH2 0x146A JUMP JUMPDEST PUSH2 0xADF JUMPI PUSH1 0x40 MLOAD PUSH32 0x8C379A000000000000000000000000000000000000000000000000000000000 DUP2 MSTORE PUSH1 0x4 ADD PUSH2 0xAD6 SWAP1 PUSH2 0x2802 JUMP JUMPDEST PUSH1 0x40 MLOAD DUP1 SWAP2 SUB SWAP1 REVERT JUMPDEST PUSH1 0x0 PUSH2 0xAE9 PUSH2 0x14D6 JUMP JUMPDEST SWAP1 POP PUSH1 0x0 DUP2 MLOAD GT PUSH2 0xB09 JUMPI PUSH1 0x40 MLOAD DUP1 PUSH1 0x20 ADD PUSH1 0x40 MSTORE DUP1 PUSH1 0x0 DUP2 MSTORE POP PUSH2 0xB34 JUMP JUMPDEST DUP1 PUSH2 0xB13 DUP5 PUSH2 0x14ED JUMP JUMPDEST PUSH1 0x40 MLOAD PUSH1 0x20 ADD PUSH2 0xB24 SWAP3 SWAP2 SWAP1 PUSH2 0x25D2 JUMP JUMPDEST PUSH1 0x40 MLOAD PUSH1 0x20 DUP2 DUP4 SUB SUB DUP2 MSTORE SWAP1 PUSH1 0x40 MSTORE JUMPDEST SWAP2 POP POP SWAP2 SWAP1 POP JUMP JUMPDEST PUSH1 0x0 PUSH1 0x8 PUSH1 0x0 DUP5 PUSH20 0xFFFFFFFFFFFFFFFFFFFFFFFFFFFFFFFFFFFFFFFF AND PUSH20 0xFFFFFFFFFFFFFFFFFFFFFFFFFFFFFFFFFFFFFFFF AND DUP2 MSTORE PUSH1 0x20 ADD SWAP1 DUP2 MSTORE PUSH1 0x20 ADD PUSH1 0x0 KECCAK256 PUSH1 0x0 DUP4 PUSH20 0xFFFFFFFFFFFFFFFFFFFFFFFFFFFFFFFFFFFFFFFF AND PUSH20 0xFFFFFFFFFFFFFFFFFFFFFFFFFFFFFFFFFFFFFFFF AND DUP2 MSTORE PUSH1 0x20 ADD SWAP1 DUP2 MSTORE PUSH1 0x20 ADD PUSH1 0x0 KECCAK256 PUSH1 0x0 SWAP1 SLOAD SWAP1 PUSH2 0x100 EXP SWAP1 DIV PUSH1 0xFF AND SWAP1 POP SWAP3 SWAP2 POP POP JUMP JUMPDEST PUSH1 0x60 PUSH1 0x0 PUSH1 0x5 PUSH1 0x0 DUP5 DUP2 MSTORE PUSH1 0x20 ADD SWAP1 DUP2 MSTORE PUSH1 0x20 ADD PUSH1 0x0 KECCAK256 DUP1 SLOAD DUP1 PUSH1 0x20 MUL PUSH1 0x20 ADD PUSH1 0x40 MLOAD SWAP1 DUP2 ADD PUSH1 0x40 MSTORE DUP1 SWAP3 SWAP2 SWAP1 DUP2 DUP2 MSTORE PUSH1 0x20 ADD DUP3 DUP1 SLOAD DUP1 ISZERO PUSH2 0xC31 JUMPI PUSH1 0x20 MUL DUP3 ADD SWAP2 SWAP1 PUSH1 0x0 MSTORE PUSH1 0x20 PUSH1 0x0 KECCAK256 SWAP1 JUMPDEST DUP2 SLOAD DUP2 MSTORE PUSH1 0x20 ADD SWAP1 PUSH1 0x1 ADD SWAP1 DUP1 DUP4 GT PUSH2 0xC1D JUMPI JUMPDEST POP POP POP POP POP SWAP1 POP DUP1 SWAP2 POP POP SWAP2 SWAP1 POP JUMP JUMPDEST PUSH1 0x0 PUSH32 0x1FFC9A700000000000000000000000000000000000000000000000000000000 PUSH28 0xFFFFFFFFFFFFFFFFFFFFFFFFFFFFFFFFFFFFFFFFFFFFFFFFFFFFFFFF NOT AND DUP3 PUSH28 0xFFFFFFFFFFFFFFFFFFFFFFFFFFFFFFFFFFFFFFFFFFFFFFFFFFFFFFFF NOT AND EQ SWAP1 POP SWAP2 SWAP1 POP JUMP JUMPDEST PUSH2 0xCB4 DUP2 PUSH2 0x146A JUMP JUMPDEST PUSH2 0xCF3 JUMPI PUSH1 0x40 MLOAD PUSH32 0x8C379A000000000000000000000000000000000000000000000000000000000 DUP2 MSTORE PUSH1 0x4 ADD PUSH2 0xCEA SWAP1 PUSH2 0x2822 JUMP JUMPDEST PUSH1 0x40 MLOAD DUP1 SWAP2 SUB SWAP1 REVERT JUMPDEST POP JUMP JUMPDEST PUSH1 0x0 CALLER SWAP1 POP SWAP1 JUMP JUMPDEST DUP2 PUSH1 0x7 PUSH1 0x0 DUP4 DUP2 MSTORE PUSH1 0x20 ADD SWAP1 DUP2 MSTORE PUSH1 0x20 ADD PUSH1 0x0 KECCAK256 PUSH1 0x0 PUSH2 0x100 EXP DUP2 SLOAD DUP2 PUSH20 0xFFFFFFFFFFFFFFFFFFFFFFFFFFFFFFFFFFFFFFFF MUL NOT AND SWAP1 DUP4 PUSH20 0xFFFFFFFFFFFFFFFFFFFFFFFFFFFFFFFFFFFFFFFF AND MUL OR SWAP1 SSTORE POP DUP1 DUP3 PUSH20 0xFFFFFFFFFFFFFFFFFFFFFFFFFFFFFFFFFFFFFFFF AND PUSH2 0xD71 DUP4 PUSH2 0x821 JUMP JUMPDEST PUSH20 0xFFFFFFFFFFFFFFFFFFFFFFFFFFFFFFFFFFFFFFFF AND PUSH32 0x8C5BE1E5EBEC7D5BD14F71427D1E84F3DD0314C0F7B2291E5B200AC8C7C3B925 PUSH1 0x40 MLOAD PUSH1 0x40 MLOAD DUP1 SWAP2 SUB SWAP1 LOG4 POP POP JUMP JUMPDEST PUSH1 0x60 PUSH2 0xDC2 DUP3 PUSH2 0x146A JUMP JUMPDEST PUSH2 0xE01 JUMPI PUSH1 0x40 MLOAD PUSH32 0x8C379A000000000000000000000000000000000000000000000000000000000 DUP2 MSTORE PUSH1 0x4 ADD PUSH2 0xDF8 SWAP1 PUSH2 0x2802 JUMP JUMPDEST PUSH1 0x40 MLOAD DUP1 SWAP2 SUB SWAP1 REVERT JUMPDEST PUSH1 0x9 PUSH1 0x0 DUP4 DUP2 MSTORE PUSH1 0x20 ADD SWAP1 DUP2 MSTORE PUSH1 0x20 ADD PUSH1 0x0 KECCAK256 DUP1 SLOAD PUSH2 0xE1F SWAP1 PUSH2 0x2BB7 JUMP JUMPDEST DUP1 PUSH1 0x1F ADD PUSH1 0x20 DUP1 SWAP2 DIV MUL PUSH1 0x20 ADD PUSH1 0x40 MLOAD SWAP1 DUP2 ADD PUSH1 0x40 MSTORE DUP1 SWAP3 SWAP2 SWAP1 DUP2 DUP2 MSTORE PUSH1 0x20 ADD DUP3 DUP1 SLOAD PUSH2 0xE4B SWAP1 PUSH2 0x2BB7 JUMP JUMPDEST DUP1 ISZERO PUSH2 0xE98 JUMPI DUP1 PUSH1 0x1F LT PUSH2 0xE6D JUMPI PUSH2 0x100 DUP1 DUP4 SLOAD DIV MUL DUP4 MSTORE SWAP2 PUSH1 0x20 ADD SWAP2 PUSH2 0xE98 JUMP JUMPDEST DUP3 ADD SWAP2 SWAP1 PUSH1 0x0 MSTORE PUSH1 0x20 PUSH1 0x0 KECCAK256 SWAP1 JUMPDEST DUP2 SLOAD DUP2 MSTORE SWAP1 PUSH1 0x1 ADD SWAP1 PUSH1 0x20 ADD DUP1 DUP4 GT PUSH2 0xE7B JUMPI DUP3 SWAP1 SUB PUSH1 0x1F AND DUP3 ADD SWAP2 JUMPDEST POP POP POP POP POP SWAP1 POP SWAP2 SWAP1 POP JUMP JUMPDEST PUSH1 0x0 DUP1 PUSH2 0xEB0 DUP4 PUSH2 0x821 JUMP JUMPDEST SWAP1 POP DUP1 PUSH20 0xFFFFFFFFFFFFFFFFFFFFFFFFFFFFFFFFFFFFFFFF AND DUP5 PUSH20 0xFFFFFFFFFFFFFFFFFFFFFFFFFFFFFFFFFFFFFFFF AND EQ DUP1 PUSH2 0xEF2 JUMPI POP PUSH2 0xEF1 DUP2 DUP6 PUSH2 0xB3C JUMP JUMPDEST JUMPDEST DUP1 PUSH2 0xF30 JUMPI POP DUP4 PUSH20 0xFFFFFFFFFFFFFFFFFFFFFFFFFFFFFFFFFFFFFFFF AND PUSH2 0xF18 DUP5 PUSH2 0x52C JUMP JUMPDEST PUSH20 0xFFFFFFFFFFFFFFFFFFFFFFFFFFFFFFFFFFFFFFFF AND EQ JUMPDEST SWAP2 POP POP SWAP3 SWAP2 POP POP JUMP JUMPDEST DUP3 PUSH20 0xFFFFFFFFFFFFFFFFFFFFFFFFFFFFFFFFFFFFFFFF AND PUSH2 0xF59 DUP3 PUSH2 0x821 JUMP JUMPDEST PUSH20 0xFFFFFFFFFFFFFFFFFFFFFFFFFFFFFFFFFFFFFFFF AND EQ PUSH2 0xFAF JUMPI PUSH1 0x40 MLOAD PUSH32 0x8C379A000000000000000000000000000000000000000000000000000000000 DUP2 MSTORE PUSH1 0x4 ADD PUSH2 0xFA6 SWAP1 PUSH2 0x2742 JUMP JUMPDEST PUSH1 0x40 MLOAD DUP1 SWAP2 SUB SWAP1 REVERT JUMPDEST PUSH1 0x0 PUSH20 0xFFFFFFFFFFFFFFFFFFFFFFFFFFFFFFFFFFFFFFFF AND DUP3 PUSH20 0xFFFFFFFFFFFFFFFFFFFFFFFFFFFFFFFFFFFFFFFF AND EQ ISZERO PUSH2 0x101F JUMPI PUSH1 0x40 MLOAD PUSH32 0x8C379A000000000000000000000000000000000000000000000000000000000 DUP2 MSTORE PUSH1 0x4 ADD PUSH2 0x1016 SWAP1 PUSH2 0x2782 JUMP JUMPDEST PUSH1 0x40 MLOAD DUP1 SWAP2 SUB SWAP1 REVERT JUMPDEST PUSH2 0x102A DUP4 DUP4 DUP4 PUSH2 0x169A JUMP JUMPDEST DUP3 PUSH20 0xFFFFFFFFFFFFFFFFFFFFFFFFFFFFFFFFFFFFFFFF AND PUSH2 0x104A DUP3 PUSH2 0x821 JUMP JUMPDEST PUSH20 0xFFFFFFFFFFFFFFFFFFFFFFFFFFFFFFFFFFFFFFFF AND EQ PUSH2 0x10A0 JUMPI PUSH1 0x40 MLOAD PUSH32 0x8C379A000000000000000000000000000000000000000000000000000000000 DUP2 MSTORE PUSH1 0x4 ADD PUSH2 0x1097 SWAP1 PUSH2 0x2742 JUMP JUMPDEST PUSH1 0x40 MLOAD DUP1 SWAP2 SUB SWAP1 REVERT JUMPDEST PUSH1 0x7 PUSH1 0x0 DUP3 DUP2 MSTORE PUSH1 0x20 ADD SWAP1 DUP2 MSTORE PUSH1 0x20 ADD PUSH1 0x0 KECCAK256 PUSH1 0x0 PUSH2 0x100 EXP DUP2 SLOAD SWAP1 PUSH20 0xFFFFFFFFFFFFFFFFFFFFFFFFFFFFFFFFFFFFFFFF MUL NOT AND SWAP1 SSTORE PUSH1 0x1 PUSH1 0x6 PUSH1 0x0 DUP6 PUSH20 0xFFFFFFFFFFFFFFFFFFFFFFFFFFFFFFFFFFFFFFFF AND PUSH20 0xFFFFFFFFFFFFFFFFFFFFFFFFFFFFFFFFFFFFFFFF AND DUP2 MSTORE PUSH1 0x20 ADD SWAP1 DUP2 MSTORE PUSH1 0x20 ADD PUSH1 0x0 KECCAK256 PUSH1 0x0 DUP3 DUP3 SLOAD SUB SWAP3 POP POP DUP2 SWAP1 SSTORE POP PUSH1 0x1 PUSH1 0x6 PUSH1 0x0 DUP5 PUSH20 0xFFFFFFFFFFFFFFFFFFFFFFFFFFFFFFFFFFFFFFFF AND PUSH20 0xFFFFFFFFFFFFFFFFFFFFFFFFFFFFFFFFFFFFFFFF AND DUP2 MSTORE PUSH1 0x20 ADD SWAP1 DUP2 MSTORE PUSH1 0x20 ADD PUSH1 0x0 KECCAK256 PUSH1 0x0 DUP3 DUP3 SLOAD ADD SWAP3 POP POP DUP2 SWAP1 SSTORE POP DUP2 PUSH1 0x3 PUSH1 0x0 DUP4 DUP2 MSTORE PUSH1 0x20 ADD SWAP1 DUP2 MSTORE PUSH1 0x20 ADD PUSH1 0x0 KECCAK256 PUSH1 0x0 PUSH2 0x100 EXP DUP2 SLOAD DUP2 PUSH20 0xFFFFFFFFFFFFFFFFFFFFFFFFFFFFFFFFFFFFFFFF MUL NOT AND SWAP1 DUP4 PUSH20 0xFFFFFFFFFFFFFFFFFFFFFFFFFFFFFFFFFFFFFFFF AND MUL OR SWAP1 SSTORE POP DUP1 DUP3 PUSH20 0xFFFFFFFFFFFFFFFFFFFFFFFFFFFFFFFFFFFFFFFF AND DUP5 PUSH20 0xFFFFFFFFFFFFFFFFFFFFFFFFFFFFFFFFFFFFFFFF AND PUSH32 0xDDF252AD1BE2C89B69C2B068FC378DAA952BA7F163C4A11628F55A4DF523B3EF PUSH1 0x40 MLOAD PUSH1 0x40 MLOAD DUP1 SWAP2 SUB SWAP1 LOG4 PUSH2 0x122A DUP4 DUP4 DUP4 PUSH2 0x169F JUMP JUMPDEST POP POP POP JUMP JUMPDEST PUSH1 0x1 DUP2 PUSH1 0x0 ADD PUSH1 0x0 DUP3 DUP3 SLOAD ADD SWAP3 POP POP DUP2 SWAP1 SSTORE POP POP JUMP JUMPDEST PUSH1 0x0 DUP2 PUSH1 0x0 ADD SLOAD SWAP1 POP SWAP2 SWAP1 POP JUMP JUMPDEST PUSH2 0x126F DUP5 DUP5 DUP5 DUP5 PUSH1 0x40 MLOAD DUP1 PUSH1 0x20 ADD PUSH1 0x40 MSTORE DUP1 PUSH1 0x0 DUP2 MSTORE POP PUSH2 0x16A4 JUMP JUMPDEST POP POP POP POP JUMP JUMPDEST DUP1 PUSH1 0x9 PUSH1 0x0 DUP5 DUP2 MSTORE PUSH1 0x20 ADD SWAP1 DUP2 MSTORE PUSH1 0x20 ADD PUSH1 0x0 KECCAK256 SWAP1 DUP1 MLOAD SWAP1 PUSH1 0x20 ADD SWAP1 PUSH2 0x129C SWAP3 SWAP2 SWAP1 PUSH2 0x1B29 JUMP JUMPDEST POP POP POP JUMP JUMPDEST DUP2 PUSH20 0xFFFFFFFFFFFFFFFFFFFFFFFFFFFFFFFFFFFFFFFF AND DUP4 PUSH20 0xFFFFFFFFFFFFFFFFFFFFFFFFFFFFFFFFFFFFFFFF AND EQ ISZERO PUSH2 0x1310 JUMPI PUSH1 0x40 MLOAD PUSH32 0x8C379A000000000000000000000000000000000000000000000000000000000 DUP2 MSTORE PUSH1 0x4 ADD PUSH2 0x1307 SWAP1 PUSH2 0x27A2 JUMP JUMPDEST PUSH1 0x40 MLOAD DUP1 SWAP2 SUB SWAP1 REVERT JUMPDEST DUP1 PUSH1 0x8 PUSH1 0x0 DUP6 PUSH20 0xFFFFFFFFFFFFFFFFFFFFFFFFFFFFFFFFFFFFFFFF AND PUSH20 0xFFFFFFFFFFFFFFFFFFFFFFFFFFFFFFFFFFFFFFFF AND DUP2 MSTORE PUSH1 0x20 ADD SWAP1 DUP2 MSTORE PUSH1 0x20 ADD PUSH1 0x0 KECCAK256 PUSH1 0x0 DUP5 PUSH20 0xFFFFFFFFFFFFFFFFFFFFFFFFFFFFFFFFFFFFFFFF AND PUSH20 0xFFFFFFFFFFFFFFFFFFFFFFFFFFFFFFFFFFFFFFFF AND DUP2 MSTORE PUSH1 0x20 ADD SWAP1 DUP2 MSTORE PUSH1 0x20 ADD PUSH1 0x0 KECCAK256 PUSH1 0x0 PUSH2 0x100 EXP DUP2 SLOAD DUP2 PUSH1 0xFF MUL NOT AND SWAP1 DUP4 ISZERO ISZERO MUL OR SWAP1 SSTORE POP DUP2 PUSH20 0xFFFFFFFFFFFFFFFFFFFFFFFFFFFFFFFFFFFFFFFF AND DUP4 PUSH20 0xFFFFFFFFFFFFFFFFFFFFFFFFFFFFFFFFFFFFFFFF AND PUSH32 0x17307EAB39AB6107E8899845AD3D59BD9653F200F220920489CA2B5937696C31 DUP4 PUSH1 0x40 MLOAD PUSH2 0x1401 SWAP2 SWAP1 PUSH2 0x26C5 JUMP JUMPDEST PUSH1 0x40 MLOAD DUP1 SWAP2 SUB SWAP1 LOG3 POP POP POP JUMP JUMPDEST PUSH2 0x1419 DUP5 DUP5 DUP5 PUSH2 0xF39 JUMP JUMPDEST PUSH2 0x1425 DUP5 DUP5 DUP5 DUP5 PUSH2 0x1703 JUMP JUMPDEST PUSH2 0x1464 JUMPI PUSH1 0x40 MLOAD PUSH32 0x8C379A000000000000000000000000000000000000000000000000000000000 DUP2 MSTORE PUSH1 0x4 ADD PUSH2 0x145B SWAP1 PUSH2 0x2722 JUMP JUMPDEST PUSH1 0x40 MLOAD DUP1 SWAP2 SUB SWAP1 REVERT JUMPDEST POP POP POP POP JUMP JUMPDEST PUSH1 0x0 DUP1 PUSH20 0xFFFFFFFFFFFFFFFFFFFFFFFFFFFFFFFFFFFFFFFF AND PUSH1 0x3 PUSH1 0x0 DUP5 DUP2 MSTORE PUSH1 0x20 ADD SWAP1 DUP2 MSTORE PUSH1 0x20 ADD PUSH1 0x0 KECCAK256 PUSH1 0x0 SWAP1 SLOAD SWAP1 PUSH2 0x100 EXP SWAP1 DIV PUSH20 0xFFFFFFFFFFFFFFFFFFFFFFFFFFFFFFFFFFFFFFFF AND PUSH20 0xFFFFFFFFFFFFFFFFFFFFFFFFFFFFFFFFFFFFFFFF AND EQ ISZERO SWAP1 POP SWAP2 SWAP1 POP JUMP JUMPDEST PUSH1 0x60 PUSH1 0x40 MLOAD DUP1 PUSH1 0x20 ADD PUSH1 0x40 MSTORE DUP1 PUSH1 0x0 DUP2 MSTORE POP SWAP1 POP SWAP1 JUMP JUMPDEST PUSH1 0x60 PUSH1 0x0 DUP3 EQ ISZERO PUSH2 0x1535 JUMPI PUSH1 0x40 MLOAD DUP1 PUSH1 0x40 ADD PUSH1 0x40 MSTORE DUP1 PUSH1 0x1 DUP2 MSTORE PUSH1 0x20 ADD PUSH32 0x3000000000000000000000000000000000000000000000000000000000000000 DUP2 MSTORE POP SWAP1 POP PUSH2 0x1695 JUMP JUMPDEST PUSH1 0x0 DUP3 SWAP1 POP PUSH1 0x0 JUMPDEST PUSH1 0x0 DUP3 EQ PUSH2 0x1567 JUMPI DUP1 DUP1 PUSH2 0x1550 SWAP1 PUSH2 0x2C1A JUMP JUMPDEST SWAP2 POP POP PUSH1 0xA DUP3 PUSH2 0x1560 SWAP2 SWAP1 PUSH2 0x2A9C JUMP JUMPDEST SWAP2 POP PUSH2 0x153D JUMP JUMPDEST PUSH1 0x0 DUP2 PUSH8 0xFFFFFFFFFFFFFFFF DUP2 GT ISZERO PUSH2 0x15A9 JUMPI PUSH32 0x4E487B7100000000000000000000000000000000000000000000000000000000 PUSH1 0x0 MSTORE PUSH1 0x41 PUSH1 0x4 MSTORE PUSH1 0x24 PUSH1 0x0 REVERT JUMPDEST PUSH1 0x40 MLOAD SWAP1 DUP1 DUP3 MSTORE DUP1 PUSH1 0x1F ADD PUSH1 0x1F NOT AND PUSH1 0x20 ADD DUP3 ADD PUSH1 0x40 MSTORE DUP1 ISZERO PUSH2 0x15DB JUMPI DUP2 PUSH1 0x20 ADD PUSH1 0x1 DUP3 MUL DUP1 CALLDATASIZE DUP4 CALLDATACOPY DUP1 DUP3 ADD SWAP2 POP POP SWAP1 POP JUMPDEST POP SWAP1 POP JUMPDEST PUSH1 0x0 DUP6 EQ PUSH2 0x168E JUMPI PUSH1 0x1 DUP3 PUSH2 0x15F4 SWAP2 SWAP1 PUSH2 0x2ACD JUMP JUMPDEST SWAP2 POP PUSH1 0xA DUP6 PUSH2 0x1603 SWAP2 SWAP1 PUSH2 0x2C63 JUMP JUMPDEST PUSH1 0x30 PUSH2 0x160F SWAP2 SWAP1 PUSH2 0x2A46 JUMP JUMPDEST PUSH1 0xF8 SHL DUP2 DUP4 DUP2 MLOAD DUP2 LT PUSH2 0x164B JUMPI PUSH32 0x4E487B7100000000000000000000000000000000000000000000000000000000 PUSH1 0x0 MSTORE PUSH1 0x32 PUSH1 0x4 MSTORE PUSH1 0x24 PUSH1 0x0 REVERT JUMPDEST PUSH1 0x20 ADD ADD SWAP1 PUSH31 0xFFFFFFFFFFFFFFFFFFFFFFFFFFFFFFFFFFFFFFFFFFFFFFFFFFFFFFFFFFFFFF NOT AND SWAP1 DUP2 PUSH1 0x0 BYTE SWAP1 MSTORE8 POP PUSH1 0xA DUP6 PUSH2 0x1687 SWAP2 SWAP1 PUSH2 0x2A9C JUMP JUMPDEST SWAP5 POP PUSH2 0x15DF JUMP JUMPDEST DUP1 SWAP4 POP POP POP POP JUMPDEST SWAP2 SWAP1 POP JUMP JUMPDEST POP POP POP JUMP JUMPDEST POP POP POP JUMP JUMPDEST PUSH2 0x16B0 DUP6 DUP6 DUP6 DUP6 PUSH2 0x189A JUMP JUMPDEST PUSH2 0x16BD PUSH1 0x0 DUP7 DUP5 DUP5 PUSH2 0x1703 JUMP JUMPDEST PUSH2 0x16FC JUMPI PUSH1 0x40 MLOAD PUSH32 0x8C379A000000000000000000000000000000000000000000000000000000000 DUP2 MSTORE PUSH1 0x4 ADD PUSH2 0x16F3 SWAP1 PUSH2 0x2722 JUMP JUMPDEST PUSH1 0x40 MLOAD DUP1 SWAP2 SUB SWAP1 REVERT JUMPDEST POP POP POP POP POP JUMP JUMPDEST PUSH1 0x0 PUSH2 0x1724 DUP5 PUSH20 0xFFFFFFFFFFFFFFFFFFFFFFFFFFFFFFFFFFFFFFFF AND PUSH2 0x1B06 JUMP JUMPDEST ISZERO PUSH2 0x188D JUMPI DUP4 PUSH20 0xFFFFFFFFFFFFFFFFFFFFFFFFFFFFFFFFFFFFFFFF AND PUSH4 0x150B7A02 PUSH2 0x174D PUSH2 0xCF6 JUMP JUMPDEST DUP8 DUP7 DUP7 PUSH1 0x40 MLOAD DUP6 PUSH4 0xFFFFFFFF AND PUSH1 0xE0 SHL DUP2 MSTORE PUSH1 0x4 ADD PUSH2 0x176F SWAP5 SWAP4 SWAP3 SWAP2 SWAP1 PUSH2 0x2635 JUMP JUMPDEST PUSH1 0x20 PUSH1 0x40 MLOAD DUP1 DUP4 SUB DUP2 PUSH1 0x0 DUP8 DUP1 EXTCODESIZE ISZERO DUP1 ISZERO PUSH2 0x1789 JUMPI PUSH1 0x0 DUP1 REVERT JUMPDEST POP GAS CALL SWAP3 POP POP POP DUP1 ISZERO PUSH2 0x17BA JUMPI POP PUSH1 0x40 MLOAD RETURNDATASIZE PUSH1 0x1F NOT PUSH1 0x1F DUP3 ADD AND DUP3 ADD DUP1 PUSH1 0x40 MSTORE POP DUP2 ADD SWAP1 PUSH2 0x17B7 SWAP2 SWAP1 PUSH2 0x2183 JUMP JUMPDEST PUSH1 0x1 JUMPDEST PUSH2 0x183D JUMPI RETURNDATASIZE DUP1 PUSH1 0x0 DUP2 EQ PUSH2 0x17EA JUMPI PUSH1 0x40 MLOAD SWAP2 POP PUSH1 0x1F NOT PUSH1 0x3F RETURNDATASIZE ADD AND DUP3 ADD PUSH1 0x40 MSTORE RETURNDATASIZE DUP3 MSTORE RETURNDATASIZE PUSH1 0x0 PUSH1 0x20 DUP5 ADD RETURNDATACOPY PUSH2 0x17EF JUMP JUMPDEST PUSH1 0x60 SWAP2 POP JUMPDEST POP PUSH1 0x0 DUP2 MLOAD EQ ISZERO PUSH2 0x1835 JUMPI PUSH1 0x40 MLOAD PUSH32 0x8C379A000000000000000000000000000000000000000000000000000000000 DUP2 MSTORE PUSH1 0x4 ADD PUSH2 0x182C SWAP1 PUSH2 0x2722 JUMP JUMPDEST PUSH1 0x40 MLOAD DUP1 SWAP2 SUB SWAP1 REVERT JUMPDEST DUP1 MLOAD DUP2 PUSH1 0x20 ADD REVERT JUMPDEST PUSH4 0x150B7A02 PUSH1 0xE0 SHL PUSH28 0xFFFFFFFFFFFFFFFFFFFFFFFFFFFFFFFFFFFFFFFFFFFFFFFFFFFFFFFF NOT AND DUP2 PUSH28 0xFFFFFFFFFFFFFFFFFFFFFFFFFFFFFFFFFFFFFFFFFFFFFFFFFFFFFFFF NOT AND EQ SWAP2 POP POP PUSH2 0x1892 JUMP JUMPDEST PUSH1 0x1 SWAP1 POP JUMPDEST SWAP5 SWAP4 POP POP POP POP JUMP JUMPDEST PUSH1 0x0 PUSH20 0xFFFFFFFFFFFFFFFFFFFFFFFFFFFFFFFFFFFFFFFF AND DUP5 PUSH20 0xFFFFFFFFFFFFFFFFFFFFFFFFFFFFFFFFFFFFFFFF AND EQ ISZERO PUSH2 0x190A JUMPI PUSH1 0x40 MLOAD PUSH32 0x8C379A000000000000000000000000000000000000000000000000000000000 DUP2 MSTORE PUSH1 0x4 ADD PUSH2 0x1901 SWAP1 PUSH2 0x27E2 JUMP JUMPDEST PUSH1 0x40 MLOAD DUP1 SWAP2 SUB SWAP1 REVERT JUMPDEST PUSH2 0x1913 DUP2 PUSH2 0x146A JUMP JUMPDEST ISZERO PUSH2 0x1953 JUMPI PUSH1 0x40 MLOAD PUSH32 0x8C379A000000000000000000000000000000000000000000000000000000000 DUP2 MSTORE PUSH1 0x4 ADD PUSH2 0x194A SWAP1 PUSH2 0x2762 JUMP JUMPDEST PUSH1 0x40 MLOAD DUP1 SWAP2 SUB SWAP1 REVERT JUMPDEST PUSH2 0x195F PUSH1 0x0 DUP6 DUP4 PUSH2 0x169A JUMP JUMPDEST PUSH2 0x1968 DUP2 PUSH2 0x146A JUMP JUMPDEST ISZERO PUSH2 0x19A8 JUMPI PUSH1 0x40 MLOAD PUSH32 0x8C379A000000000000000000000000000000000000000000000000000000000 DUP2 MSTORE PUSH1 0x4 ADD PUSH2 0x199F SWAP1 PUSH2 0x2762 JUMP JUMPDEST PUSH1 0x40 MLOAD DUP1 SWAP2 SUB SWAP1 REVERT JUMPDEST PUSH1 0x1 PUSH1 0x6 PUSH1 0x0 DUP7 PUSH20 0xFFFFFFFFFFFFFFFFFFFFFFFFFFFFFFFFFFFFFFFF AND PUSH20 0xFFFFFFFFFFFFFFFFFFFFFFFFFFFFFFFFFFFFFFFF AND DUP2 MSTORE PUSH1 0x20 ADD SWAP1 DUP2 MSTORE PUSH1 0x20 ADD PUSH1 0x0 KECCAK256 PUSH1 0x0 DUP3 DUP3 SLOAD ADD SWAP3 POP POP DUP2 SWAP1 SSTORE POP DUP4 PUSH1 0x3 PUSH1 0x0 DUP4 DUP2 MSTORE PUSH1 0x20 ADD SWAP1 DUP2 MSTORE PUSH1 0x20 ADD PUSH1 0x0 KECCAK256 PUSH1 0x0 PUSH2 0x100 EXP DUP2 SLOAD DUP2 PUSH20 0xFFFFFFFFFFFFFFFFFFFFFFFFFFFFFFFFFFFFFFFF MUL NOT AND SWAP1 DUP4 PUSH20 0xFFFFFFFFFFFFFFFFFFFFFFFFFFFFFFFFFFFFFFFF AND MUL OR SWAP1 SSTORE POP DUP3 PUSH1 0x4 PUSH1 0x0 DUP4 DUP2 MSTORE PUSH1 0x20 ADD SWAP1 DUP2 MSTORE PUSH1 0x20 ADD PUSH1 0x0 KECCAK256 SWAP1 DUP1 MLOAD SWAP1 PUSH1 0x20 ADD SWAP1 PUSH2 0x1A6F SWAP3 SWAP2 SWAP1 PUSH2 0x1BAF JUMP JUMPDEST POP DUP2 PUSH1 0x5 PUSH1 0x0 DUP4 DUP2 MSTORE PUSH1 0x20 ADD SWAP1 DUP2 MSTORE PUSH1 0x20 ADD PUSH1 0x0 KECCAK256 SWAP1 DUP1 MLOAD SWAP1 PUSH1 0x20 ADD SWAP1 PUSH2 0x1A97 SWAP3 SWAP2 SWAP1 PUSH2 0x1C39 JUMP JUMPDEST POP DUP1 DUP5 PUSH20 0xFFFFFFFFFFFFFFFFFFFFFFFFFFFFFFFFFFFFFFFF AND PUSH1 0x0 PUSH20 0xFFFFFFFFFFFFFFFFFFFFFFFFFFFFFFFFFFFFFFFF AND PUSH32 0xDDF252AD1BE2C89B69C2B068FC378DAA952BA7F163C4A11628F55A4DF523B3EF PUSH1 0x40 MLOAD PUSH1 0x40 MLOAD DUP1 SWAP2 SUB SWAP1 LOG4 PUSH2 0x1B00 PUSH1 0x0 DUP6 DUP4 PUSH2 0x169F JUMP JUMPDEST POP POP POP POP JUMP JUMPDEST PUSH1 0x0 DUP1 DUP3 PUSH20 0xFFFFFFFFFFFFFFFFFFFFFFFFFFFFFFFFFFFFFFFF AND EXTCODESIZE GT SWAP1 POP SWAP2 SWAP1 POP JUMP JUMPDEST DUP3 DUP1 SLOAD PUSH2 0x1B35 SWAP1 PUSH2 0x2BB7 JUMP JUMPDEST SWAP1 PUSH1 0x0 MSTORE PUSH1 0x20 PUSH1 0x0 KECCAK256 SWAP1 PUSH1 0x1F ADD PUSH1 0x20 SWAP1 DIV DUP2 ADD SWAP3 DUP3 PUSH2 0x1B57 JUMPI PUSH1 0x0 DUP6 SSTORE PUSH2 0x1B9E JUMP JUMPDEST DUP3 PUSH1 0x1F LT PUSH2 0x1B70 JUMPI DUP1 MLOAD PUSH1 0xFF NOT AND DUP4 DUP1 ADD OR DUP6 SSTORE PUSH2 0x1B9E JUMP JUMPDEST DUP3 DUP1 ADD PUSH1 0x1 ADD DUP6 SSTORE DUP3 ISZERO PUSH2 0x1B9E JUMPI SWAP2 DUP3 ADD JUMPDEST DUP3 DUP2 GT ISZERO PUSH2 0x1B9D JUMPI DUP3 MLOAD DUP3 SSTORE SWAP2 PUSH1 0x20 ADD SWAP2 SWAP1 PUSH1 0x1 ADD SWAP1 PUSH2 0x1B82 JUMP JUMPDEST JUMPDEST POP SWAP1 POP PUSH2 0x1BAB SWAP2 SWAP1 PUSH2 0x1C86 JUMP JUMPDEST POP SWAP1 JUMP JUMPDEST DUP3 DUP1 SLOAD DUP3 DUP3 SSTORE SWAP1 PUSH1 0x0 MSTORE PUSH1 0x20 PUSH1 0x0 KECCAK256 SWAP1 DUP2 ADD SWAP3 DUP3 ISZERO PUSH2 0x1C28 JUMPI SWAP2 PUSH1 0x20 MUL DUP3 ADD JUMPDEST DUP3 DUP2 GT ISZERO PUSH2 0x1C27 JUMPI DUP3 MLOAD DUP3 PUSH1 0x0 PUSH2 0x100 EXP DUP2 SLOAD DUP2 PUSH20 0xFFFFFFFFFFFFFFFFFFFFFFFFFFFFFFFFFFFFFFFF MUL NOT AND SWAP1 DUP4 PUSH20 0xFFFFFFFFFFFFFFFFFFFFFFFFFFFFFFFFFFFFFFFF AND MUL OR SWAP1 SSTORE POP SWAP2 PUSH1 0x20 ADD SWAP2 SWAP1 PUSH1 0x1 ADD SWAP1 PUSH2 0x1BCF JUMP JUMPDEST JUMPDEST POP SWAP1 POP PUSH2 0x1C35 SWAP2 SWAP1 PUSH2 0x1C86 JUMP JUMPDEST POP SWAP1 JUMP JUMPDEST DUP3 DUP1 SLOAD DUP3 DUP3 SSTORE SWAP1 PUSH1 0x0 MSTORE PUSH1 0x20 PUSH1 0x0 KECCAK256 SWAP1 DUP2 ADD SWAP3 DUP3 ISZERO PUSH2 0x1C75 JUMPI SWAP2 PUSH1 0x20 MUL DUP3 ADD JUMPDEST DUP3 DUP2 GT ISZERO PUSH2 0x1C74 JUMPI DUP3 MLOAD DUP3 SSTORE SWAP2 PUSH1 0x20 ADD SWAP2 SWAP1 PUSH1 0x1 ADD SWAP1 PUSH2 0x1C59 JUMP JUMPDEST JUMPDEST POP SWAP1 POP PUSH2 0x1C82 SWAP2 SWAP1 PUSH2 0x1C86 JUMP JUMPDEST POP SWAP1 JUMP JUMPDEST JUMPDEST DUP1 DUP3 GT ISZERO PUSH2 0x1C9F JUMPI PUSH1 0x0 DUP2 PUSH1 0x0 SWAP1 SSTORE POP PUSH1 0x1 ADD PUSH2 0x1C87 JUMP JUMPDEST POP SWAP1 JUMP JUMPDEST PUSH1 0x0 PUSH2 0x1CB6 PUSH2 0x1CB1 DUP5 PUSH2 0x28C2 JUMP JUMPDEST PUSH2 0x289D JUMP JUMPDEST SWAP1 POP DUP1 DUP4 DUP3 MSTORE PUSH1 0x20 DUP3 ADD SWAP1 POP DUP3 DUP6 PUSH1 0x20 DUP7 MUL DUP3 ADD GT ISZERO PUSH2 0x1CD5 JUMPI PUSH1 0x0 DUP1 REVERT JUMPDEST PUSH1 0x0 JUMPDEST DUP6 DUP2 LT ISZERO PUSH2 0x1D05 JUMPI DUP2 PUSH2 0x1CEB DUP9 DUP3 PUSH2 0x1DF7 JUMP JUMPDEST DUP5 MSTORE PUSH1 0x20 DUP5 ADD SWAP4 POP PUSH1 0x20 DUP4 ADD SWAP3 POP POP PUSH1 0x1 DUP2 ADD SWAP1 POP PUSH2 0x1CD8 JUMP JUMPDEST POP POP POP SWAP4 SWAP3 POP POP POP JUMP JUMPDEST PUSH1 0x0 PUSH2 0x1D22 PUSH2 0x1D1D DUP5 PUSH2 0x28EE JUMP JUMPDEST PUSH2 0x289D JUMP JUMPDEST SWAP1 POP DUP1 DUP4 DUP3 MSTORE PUSH1 0x20 DUP3 ADD SWAP1 POP DUP3 DUP6 PUSH1 0x20 DUP7 MUL DUP3 ADD GT ISZERO PUSH2 0x1D41 JUMPI PUSH1 0x0 DUP1 REVERT JUMPDEST PUSH1 0x0 JUMPDEST DUP6 DUP2 LT ISZERO PUSH2 0x1D71 JUMPI DUP2 PUSH2 0x1D57 DUP9 DUP3 PUSH2 0x1EF3 JUMP JUMPDEST DUP5 MSTORE PUSH1 0x20 DUP5 ADD SWAP4 POP PUSH1 0x20 DUP4 ADD SWAP3 POP POP PUSH1 0x1 DUP2 ADD SWAP1 POP PUSH2 0x1D44 JUMP JUMPDEST POP POP POP SWAP4 SWAP3 POP POP POP JUMP JUMPDEST PUSH1 0x0 PUSH2 0x1D8E PUSH2 0x1D89 DUP5 PUSH2 0x291A JUMP JUMPDEST PUSH2 0x289D JUMP JUMPDEST SWAP1 POP DUP3 DUP2 MSTORE PUSH1 0x20 DUP2 ADD DUP5 DUP5 DUP5 ADD GT ISZERO PUSH2 0x1DA6 JUMPI PUSH1 0x0 DUP1 REVERT JUMPDEST PUSH2 0x1DB1 DUP5 DUP3 DUP6 PUSH2 0x2B75 JUMP JUMPDEST POP SWAP4 SWAP3 POP POP POP JUMP JUMPDEST PUSH1 0x0 PUSH2 0x1DCC PUSH2 0x1DC7 DUP5 PUSH2 0x294B JUMP JUMPDEST PUSH2 0x289D JUMP JUMPDEST SWAP1 POP DUP3 DUP2 MSTORE PUSH1 0x20 DUP2 ADD DUP5 DUP5 DUP5 ADD GT ISZERO PUSH2 0x1DE4 JUMPI PUSH1 0x0 DUP1 REVERT JUMPDEST PUSH2 0x1DEF DUP5 DUP3 DUP6 PUSH2 0x2B75 JUMP JUMPDEST POP SWAP4 SWAP3 POP POP POP JUMP JUMPDEST PUSH1 0x0 DUP2 CALLDATALOAD SWAP1 POP PUSH2 0x1E06 DUP2 PUSH2 0x307D JUMP JUMPDEST SWAP3 SWAP2 POP POP JUMP JUMPDEST PUSH1 0x0 DUP3 PUSH1 0x1F DUP4 ADD SLT PUSH2 0x1E1D JUMPI PUSH1 0x0 DUP1 REVERT JUMPDEST DUP2 CALLDATALOAD PUSH2 0x1E2D DUP5 DUP3 PUSH1 0x20 DUP7 ADD PUSH2 0x1CA3 JUMP JUMPDEST SWAP2 POP POP SWAP3 SWAP2 POP POP JUMP JUMPDEST PUSH1 0x0 DUP3 PUSH1 0x1F DUP4 ADD SLT PUSH2 0x1E47 JUMPI PUSH1 0x0 DUP1 REVERT JUMPDEST DUP2 CALLDATALOAD PUSH2 0x1E57 DUP5 DUP3 PUSH1 0x20 DUP7 ADD PUSH2 0x1D0F JUMP JUMPDEST SWAP2 POP POP SWAP3 SWAP2 POP POP JUMP JUMPDEST PUSH1 0x0 DUP2 CALLDATALOAD SWAP1 POP PUSH2 0x1E6F DUP2 PUSH2 0x3094 JUMP JUMPDEST SWAP3 SWAP2 POP POP JUMP JUMPDEST PUSH1 0x0 DUP2 CALLDATALOAD SWAP1 POP PUSH2 0x1E84 DUP2 PUSH2 0x30AB JUMP JUMPDEST SWAP3 SWAP2 POP POP JUMP JUMPDEST PUSH1 0x0 DUP2 MLOAD SWAP1 POP PUSH2 0x1E99 DUP2 PUSH2 0x30AB JUMP JUMPDEST SWAP3 SWAP2 POP POP JUMP JUMPDEST PUSH1 0x0 DUP3 PUSH1 0x1F DUP4 ADD SLT PUSH2 0x1EB0 JUMPI PUSH1 0x0 DUP1 REVERT JUMPDEST DUP2 CALLDATALOAD PUSH2 0x1EC0 DUP5 DUP3 PUSH1 0x20 DUP7 ADD PUSH2 0x1D7B JUMP JUMPDEST SWAP2 POP POP SWAP3 SWAP2 POP POP JUMP JUMPDEST PUSH1 0x0 DUP3 PUSH1 0x1F DUP4 ADD SLT PUSH2 0x1EDA JUMPI PUSH1 0x0 DUP1 REVERT JUMPDEST DUP2 CALLDATALOAD PUSH2 0x1EEA DUP5 DUP3 PUSH1 0x20 DUP7 ADD PUSH2 0x1DB9 JUMP JUMPDEST SWAP2 POP POP SWAP3 SWAP2 POP POP JUMP JUMPDEST PUSH1 0x0 DUP2 CALLDATALOAD SWAP1 POP PUSH2 0x1F02 DUP2 PUSH2 0x30C2 JUMP JUMPDEST SWAP3 SWAP2 POP POP JUMP JUMPDEST PUSH1 0x0 PUSH1 0x20 DUP3 DUP5 SUB SLT ISZERO PUSH2 0x1F1A JUMPI PUSH1 0x0 DUP1 REVERT JUMPDEST PUSH1 0x0 PUSH2 0x1F28 DUP5 DUP3 DUP6 ADD PUSH2 0x1DF7 JUMP JUMPDEST SWAP2 POP POP SWAP3 SWAP2 POP POP JUMP JUMPDEST PUSH1 0x0 DUP1 PUSH1 0x40 DUP4 DUP6 SUB SLT ISZERO PUSH2 0x1F44 JUMPI PUSH1 0x0 DUP1 REVERT JUMPDEST PUSH1 0x0 PUSH2 0x1F52 DUP6 DUP3 DUP7 ADD PUSH2 0x1DF7 JUMP JUMPDEST SWAP3 POP POP PUSH1 0x20 PUSH2 0x1F63 DUP6 DUP3 DUP7 ADD PUSH2 0x1DF7 JUMP JUMPDEST SWAP2 POP POP SWAP3 POP SWAP3 SWAP1 POP JUMP JUMPDEST PUSH1 0x0 DUP1 PUSH1 0x0 PUSH1 0x60 DUP5 DUP7 SUB SLT ISZERO PUSH2 0x1F82 JUMPI PUSH1 0x0 DUP1 REVERT JUMPDEST PUSH1 0x0 PUSH2 0x1F90 DUP7 DUP3 DUP8 ADD PUSH2 0x1DF7 JUMP JUMPDEST SWAP4 POP POP PUSH1 0x20 PUSH2 0x1FA1 DUP7 DUP3 DUP8 ADD PUSH2 0x1DF7 JUMP JUMPDEST SWAP3 POP POP PUSH1 0x40 PUSH2 0x1FB2 DUP7 DUP3 DUP8 ADD PUSH2 0x1EF3 JUMP JUMPDEST SWAP2 POP POP SWAP3 POP SWAP3 POP SWAP3 JUMP JUMPDEST PUSH1 0x0 DUP1 PUSH1 0x0 DUP1 PUSH1 0x80 DUP6 DUP8 SUB SLT ISZERO PUSH2 0x1FD2 JUMPI PUSH1 0x0 DUP1 REVERT JUMPDEST PUSH1 0x0 PUSH2 0x1FE0 DUP8 DUP3 DUP9 ADD PUSH2 0x1DF7 JUMP JUMPDEST SWAP5 POP POP PUSH1 0x20 PUSH2 0x1FF1 DUP8 DUP3 DUP9 ADD PUSH2 0x1DF7 JUMP JUMPDEST SWAP4 POP POP PUSH1 0x40 PUSH2 0x2002 DUP8 DUP3 DUP9 ADD PUSH2 0x1EF3 JUMP JUMPDEST SWAP3 POP POP PUSH1 0x60 DUP6 ADD CALLDATALOAD PUSH8 0xFFFFFFFFFFFFFFFF DUP2 GT ISZERO PUSH2 0x201F JUMPI PUSH1 0x0 DUP1 REVERT JUMPDEST PUSH2 0x202B DUP8 DUP3 DUP9 ADD PUSH2 0x1E9F JUMP JUMPDEST SWAP2 POP POP SWAP3 SWAP6 SWAP2 SWAP5 POP SWAP3 POP JUMP JUMPDEST PUSH1 0x0 DUP1 PUSH1 0x0 DUP1 PUSH1 0x80 DUP6 DUP8 SUB SLT ISZERO PUSH2 0x204D JUMPI PUSH1 0x0 DUP1 REVERT JUMPDEST PUSH1 0x0 PUSH2 0x205B DUP8 DUP3 DUP9 ADD PUSH2 0x1DF7 JUMP JUMPDEST SWAP5 POP POP PUSH1 0x20 DUP6 ADD CALLDATALOAD PUSH8 0xFFFFFFFFFFFFFFFF DUP2 GT ISZERO PUSH2 0x2078 JUMPI PUSH1 0x0 DUP1 REVERT JUMPDEST PUSH2 0x2084 DUP8 DUP3 DUP9 ADD PUSH2 0x1E0C JUMP JUMPDEST SWAP4 POP POP PUSH1 0x40 DUP6 ADD CALLDATALOAD PUSH8 0xFFFFFFFFFFFFFFFF DUP2 GT ISZERO PUSH2 0x20A1 JUMPI PUSH1 0x0 DUP1 REVERT JUMPDEST PUSH2 0x20AD DUP8 DUP3 DUP9 ADD PUSH2 0x1E36 JUMP JUMPDEST SWAP3 POP POP PUSH1 0x60 DUP6 ADD CALLDATALOAD PUSH8 0xFFFFFFFFFFFFFFFF DUP2 GT ISZERO PUSH2 0x20CA JUMPI PUSH1 0x0 DUP1 REVERT JUMPDEST PUSH2 0x20D6 DUP8 DUP3 DUP9 ADD PUSH2 0x1EC9 JUMP JUMPDEST SWAP2 POP POP SWAP3 SWAP6 SWAP2 SWAP5 POP SWAP3 POP JUMP JUMPDEST PUSH1 0x0 DUP1 PUSH1 0x40 DUP4 DUP6 SUB SLT ISZERO PUSH2 0x20F5 JUMPI PUSH1 0x0 DUP1 REVERT JUMPDEST PUSH1 0x0 PUSH2 0x2103 DUP6 DUP3 DUP7 ADD PUSH2 0x1DF7 JUMP JUMPDEST SWAP3 POP POP PUSH1 0x20 PUSH2 0x2114 DUP6 DUP3 DUP7 ADD PUSH2 0x1E60 JUMP JUMPDEST SWAP2 POP POP SWAP3 POP SWAP3 SWAP1 POP JUMP JUMPDEST PUSH1 0x0 DUP1 PUSH1 0x40 DUP4 DUP6 SUB SLT ISZERO PUSH2 0x2131 JUMPI PUSH1 0x0 DUP1 REVERT JUMPDEST PUSH1 0x0 PUSH2 0x213F DUP6 DUP3 DUP7 ADD PUSH2 0x1DF7 JUMP JUMPDEST SWAP3 POP POP PUSH1 0x20 PUSH2 0x2150 DUP6 DUP3 DUP7 ADD PUSH2 0x1EF3 JUMP JUMPDEST SWAP2 POP POP SWAP3 POP SWAP3 SWAP1 POP JUMP JUMPDEST PUSH1 0x0 PUSH1 0x20 DUP3 DUP5 SUB SLT ISZERO PUSH2 0x216C JUMPI PUSH1 0x0 DUP1 REVERT JUMPDEST PUSH1 0x0 PUSH2 0x217A DUP5 DUP3 DUP6 ADD PUSH2 0x1E75 JUMP JUMPDEST SWAP2 POP POP SWAP3 SWAP2 POP POP JUMP JUMPDEST PUSH1 0x0 PUSH1 0x20 DUP3 DUP5 SUB SLT ISZERO PUSH2 0x2195 JUMPI PUSH1 0x0 DUP1 REVERT JUMPDEST PUSH1 0x0 PUSH2 0x21A3 DUP5 DUP3 DUP6 ADD PUSH2 0x1E8A JUMP JUMPDEST SWAP2 POP POP SWAP3 SWAP2 POP POP JUMP JUMPDEST PUSH1 0x0 PUSH1 0x20 DUP3 DUP5 SUB SLT ISZERO PUSH2 0x21BE JUMPI PUSH1 0x0 DUP1 REVERT JUMPDEST PUSH1 0x0 PUSH2 0x21CC DUP5 DUP3 DUP6 ADD PUSH2 0x1EF3 JUMP JUMPDEST SWAP2 POP POP SWAP3 SWAP2 POP POP JUMP JUMPDEST PUSH1 0x0 PUSH2 0x21E1 DUP4 DUP4 PUSH2 0x2205 JUMP JUMPDEST PUSH1 0x20 DUP4 ADD SWAP1 POP SWAP3 SWAP2 POP POP JUMP JUMPDEST PUSH1 0x0 PUSH2 0x21F9 DUP4 DUP4 PUSH2 0x25B4 JUMP JUMPDEST PUSH1 0x20 DUP4 ADD SWAP1 POP SWAP3 SWAP2 POP POP JUMP JUMPDEST PUSH2 0x220E DUP2 PUSH2 0x2B01 JUMP JUMPDEST DUP3 MSTORE POP POP JUMP JUMPDEST PUSH2 0x221D DUP2 PUSH2 0x2B01 JUMP JUMPDEST DUP3 MSTORE POP POP JUMP JUMPDEST PUSH1 0x0 PUSH2 0x222E DUP3 PUSH2 0x29B1 JUMP JUMPDEST PUSH2 0x2238 DUP2 DUP6 PUSH2 0x29F7 JUMP JUMPDEST SWAP4 POP PUSH2 0x2243 DUP4 PUSH2 0x297C JUMP JUMPDEST DUP1 PUSH1 0x0 JUMPDEST DUP4 DUP2 LT ISZERO PUSH2 0x2274 JUMPI DUP2 MLOAD PUSH2 0x225B DUP9 DUP3 PUSH2 0x21D5 JUMP JUMPDEST SWAP8 POP PUSH2 0x2266 DUP4 PUSH2 0x29DD JUMP JUMPDEST SWAP3 POP POP PUSH1 0x1 DUP2 ADD SWAP1 POP PUSH2 0x2247 JUMP JUMPDEST POP DUP6 SWAP4 POP POP POP POP SWAP3 SWAP2 POP POP JUMP JUMPDEST PUSH1 0x0 PUSH2 0x228C DUP3 PUSH2 0x29BC JUMP JUMPDEST PUSH2 0x2296 DUP2 DUP6 PUSH2 0x2A08 JUMP JUMPDEST SWAP4 POP PUSH2 0x22A1 DUP4 PUSH2 0x298C JUMP JUMPDEST DUP1 PUSH1 0x0 JUMPDEST DUP4 DUP2 LT ISZERO PUSH2 0x22D2 JUMPI DUP2 MLOAD PUSH2 0x22B9 DUP9 DUP3 PUSH2 0x21ED JUMP JUMPDEST SWAP8 POP PUSH2 0x22C4 DUP4 PUSH2 0x29EA JUMP JUMPDEST SWAP3 POP POP PUSH1 0x1 DUP2 ADD SWAP1 POP PUSH2 0x22A5 JUMP JUMPDEST POP DUP6 SWAP4 POP POP POP POP SWAP3 SWAP2 POP POP JUMP JUMPDEST PUSH2 0x22E8 DUP2 PUSH2 0x2B13 JUMP JUMPDEST DUP3 MSTORE POP POP JUMP JUMPDEST PUSH1 0x0 PUSH2 0x22F9 DUP3 PUSH2 0x29C7 JUMP JUMPDEST PUSH2 0x2303 DUP2 DUP6 PUSH2 0x2A19 JUMP JUMPDEST SWAP4 POP PUSH2 0x2313 DUP2 DUP6 PUSH1 0x20 DUP7 ADD PUSH2 0x2B84 JUMP JUMPDEST PUSH2 0x231C DUP2 PUSH2 0x2D50 JUMP JUMPDEST DUP5 ADD SWAP2 POP POP SWAP3 SWAP2 POP POP JUMP JUMPDEST PUSH1 0x0 PUSH2 0x2332 DUP3 PUSH2 0x29D2 JUMP JUMPDEST PUSH2 0x233C DUP2 DUP6 PUSH2 0x2A2A JUMP JUMPDEST SWAP4 POP PUSH2 0x234C DUP2 DUP6 PUSH1 0x20 DUP7 ADD PUSH2 0x2B84 JUMP JUMPDEST PUSH2 0x2355 DUP2 PUSH2 0x2D50 JUMP JUMPDEST DUP5 ADD SWAP2 POP POP SWAP3 SWAP2 POP POP JUMP JUMPDEST PUSH1 0x0 PUSH2 0x236B DUP3 PUSH2 0x29D2 JUMP JUMPDEST PUSH2 0x2375 DUP2 DUP6 PUSH2 0x2A3B JUMP JUMPDEST SWAP4 POP PUSH2 0x2385 DUP2 DUP6 PUSH1 0x20 DUP7 ADD PUSH2 0x2B84 JUMP JUMPDEST DUP1 DUP5 ADD SWAP2 POP POP SWAP3 SWAP2 POP POP JUMP JUMPDEST PUSH1 0x0 DUP2 SLOAD PUSH2 0x239E DUP2 PUSH2 0x2BB7 JUMP JUMPDEST PUSH2 0x23A8 DUP2 DUP7 PUSH2 0x2A3B JUMP JUMPDEST SWAP5 POP PUSH1 0x1 DUP3 AND PUSH1 0x0 DUP2 EQ PUSH2 0x23C3 JUMPI PUSH1 0x1 DUP2 EQ PUSH2 0x23D4 JUMPI PUSH2 0x2407 JUMP JUMPDEST PUSH1 0xFF NOT DUP4 AND DUP7 MSTORE DUP2 DUP7 ADD SWAP4 POP PUSH2 0x2407 JUMP JUMPDEST PUSH2 0x23DD DUP6 PUSH2 0x299C JUMP JUMPDEST PUSH1 0x0 JUMPDEST DUP4 DUP2 LT ISZERO PUSH2 0x23FF JUMPI DUP2 SLOAD DUP2 DUP10 ADD MSTORE PUSH1 0x1 DUP3 ADD SWAP2 POP PUSH1 0x20 DUP2 ADD SWAP1 POP PUSH2 0x23E0 JUMP JUMPDEST DUP4 DUP9 ADD SWAP6 POP POP POP JUMPDEST POP POP POP SWAP3 SWAP2 POP POP JUMP JUMPDEST PUSH1 0x0 PUSH2 0x241D PUSH1 0x2D DUP4 PUSH2 0x2A2A JUMP JUMPDEST SWAP2 POP PUSH2 0x2428 DUP3 PUSH2 0x2D61 JUMP JUMPDEST PUSH1 0x40 DUP3 ADD SWAP1 POP SWAP2 SWAP1 POP JUMP JUMPDEST PUSH1 0x0 PUSH2 0x2440 PUSH1 0x32 DUP4 PUSH2 0x2A2A JUMP JUMPDEST SWAP2 POP PUSH2 0x244B DUP3 PUSH2 0x2DB0 JUMP JUMPDEST PUSH1 0x40 DUP3 ADD SWAP1 POP SWAP2 SWAP1 POP JUMP JUMPDEST PUSH1 0x0 PUSH2 0x2463 PUSH1 0x25 DUP4 PUSH2 0x2A2A JUMP JUMPDEST SWAP2 POP PUSH2 0x246E DUP3 PUSH2 0x2DFF JUMP JUMPDEST PUSH1 0x40 DUP3 ADD SWAP1 POP SWAP2 SWAP1 POP JUMP JUMPDEST PUSH1 0x0 PUSH2 0x2486 PUSH1 0x1C DUP4 PUSH2 0x2A2A JUMP JUMPDEST SWAP2 POP PUSH2 0x2491 DUP3 PUSH2 0x2E4E JUMP JUMPDEST PUSH1 0x20 DUP3 ADD SWAP1 POP SWAP2 SWAP1 POP JUMP JUMPDEST PUSH1 0x0 PUSH2 0x24A9 PUSH1 0x24 DUP4 PUSH2 0x2A2A JUMP JUMPDEST SWAP2 POP PUSH2 0x24B4 DUP3 PUSH2 0x2E77 JUMP JUMPDEST PUSH1 0x40 DUP3 ADD SWAP1 POP SWAP2 SWAP1 POP JUMP JUMPDEST PUSH1 0x0 PUSH2 0x24CC PUSH1 0x19 DUP4 PUSH2 0x2A2A JUMP JUMPDEST SWAP2 POP PUSH2 0x24D7 DUP3 PUSH2 0x2EC6 JUMP JUMPDEST PUSH1 0x20 DUP3 ADD SWAP1 POP SWAP2 SWAP1 POP JUMP JUMPDEST PUSH1 0x0 PUSH2 0x24EF PUSH1 0x29 DUP4 PUSH2 0x2A2A JUMP JUMPDEST SWAP2 POP PUSH2 0x24FA DUP3 PUSH2 0x2EEF JUMP JUMPDEST PUSH1 0x40 DUP3 ADD SWAP1 POP SWAP2 SWAP1 POP JUMP JUMPDEST PUSH1 0x0 PUSH2 0x2512 PUSH1 0x20 DUP4 PUSH2 0x2A2A JUMP JUMPDEST SWAP2 POP PUSH2 0x251D DUP3 PUSH2 0x2F3E JUMP JUMPDEST PUSH1 0x20 DUP3 ADD SWAP1 POP SWAP2 SWAP1 POP JUMP JUMPDEST PUSH1 0x0 PUSH2 0x2535 PUSH1 0x2F DUP4 PUSH2 0x2A2A JUMP JUMPDEST SWAP2 POP PUSH2 0x2540 DUP3 PUSH2 0x2F67 JUMP JUMPDEST PUSH1 0x40 DUP3 ADD SWAP1 POP SWAP2 SWAP1 POP JUMP JUMPDEST PUSH1 0x0 PUSH2 0x2558 PUSH1 0x18 DUP4 PUSH2 0x2A2A JUMP JUMPDEST SWAP2 POP PUSH2 0x2563 DUP3 PUSH2 0x2FB6 JUMP JUMPDEST PUSH1 0x20 DUP3 ADD SWAP1 POP SWAP2 SWAP1 POP JUMP JUMPDEST PUSH1 0x0 PUSH2 0x257B PUSH1 0x21 DUP4 PUSH2 0x2A2A JUMP JUMPDEST SWAP2 POP PUSH2 0x2586 DUP3 PUSH2 0x2FDF JUMP JUMPDEST PUSH1 0x40 DUP3 ADD SWAP1 POP SWAP2 SWAP1 POP JUMP JUMPDEST PUSH1 0x0 PUSH2 0x259E PUSH1 0x3D DUP4 PUSH2 0x2A2A JUMP JUMPDEST SWAP2 POP PUSH2 0x25A9 DUP3 PUSH2 0x302E JUMP JUMPDEST PUSH1 0x40 DUP3 ADD SWAP1 POP SWAP2 SWAP1 POP JUMP JUMPDEST PUSH2 0x25BD DUP2 PUSH2 0x2B6B JUMP JUMPDEST DUP3 MSTORE POP POP JUMP JUMPDEST PUSH2 0x25CC DUP2 PUSH2 0x2B6B JUMP JUMPDEST DUP3 MSTORE POP POP JUMP JUMPDEST PUSH1 0x0 PUSH2 0x25DE DUP3 DUP6 PUSH2 0x2360 JUMP JUMPDEST SWAP2 POP PUSH2 0x25EA DUP3 DUP5 PUSH2 0x2360 JUMP JUMPDEST SWAP2 POP DUP2 SWAP1 POP SWAP4 SWAP3 POP POP POP JUMP JUMPDEST PUSH1 0x0 PUSH2 0x2602 DUP3 DUP6 PUSH2 0x2391 JUMP JUMPDEST SWAP2 POP PUSH2 0x260E DUP3 DUP5 PUSH2 0x2360 JUMP JUMPDEST SWAP2 POP DUP2 SWAP1 POP SWAP4 SWAP3 POP POP POP JUMP JUMPDEST PUSH1 0x0 PUSH1 0x20 DUP3 ADD SWAP1 POP PUSH2 0x262F PUSH1 0x0 DUP4 ADD DUP5 PUSH2 0x2214 JUMP JUMPDEST SWAP3 SWAP2 POP POP JUMP JUMPDEST PUSH1 0x0 PUSH1 0x80 DUP3 ADD SWAP1 POP PUSH2 0x264A PUSH1 0x0 DUP4 ADD DUP8 PUSH2 0x2214 JUMP JUMPDEST PUSH2 0x2657 PUSH1 0x20 DUP4 ADD DUP7 PUSH2 0x2214 JUMP JUMPDEST PUSH2 0x2664 PUSH1 0x40 DUP4 ADD DUP6 PUSH2 0x25C3 JUMP JUMPDEST DUP2 DUP2 SUB PUSH1 0x60 DUP4 ADD MSTORE PUSH2 0x2676 DUP2 DUP5 PUSH2 0x22EE JUMP JUMPDEST SWAP1 POP SWAP6 SWAP5 POP POP POP POP POP JUMP JUMPDEST PUSH1 0x0 PUSH1 0x20 DUP3 ADD SWAP1 POP DUP2 DUP2 SUB PUSH1 0x0 DUP4 ADD MSTORE PUSH2 0x269B DUP2 DUP5 PUSH2 0x2223 JUMP JUMPDEST SWAP1 POP SWAP3 SWAP2 POP POP JUMP JUMPDEST PUSH1 0x0 PUSH1 0x20 DUP3 ADD SWAP1 POP DUP2 DUP2 SUB PUSH1 0x0 DUP4 ADD MSTORE PUSH2 0x26BD DUP2 DUP5 PUSH2 0x2281 JUMP JUMPDEST SWAP1 POP SWAP3 SWAP2 POP POP JUMP JUMPDEST PUSH1 0x0 PUSH1 0x20 DUP3 ADD SWAP1 POP PUSH2 0x26DA PUSH1 0x0 DUP4 ADD DUP5 PUSH2 0x22DF JUMP JUMPDEST SWAP3 SWAP2 POP POP JUMP JUMPDEST PUSH1 0x0 PUSH1 0x20 DUP3 ADD SWAP1 POP DUP2 DUP2 SUB PUSH1 0x0 DUP4 ADD MSTORE PUSH2 0x26FA DUP2 DUP5 PUSH2 0x2327 JUMP JUMPDEST SWAP1 POP SWAP3 SWAP2 POP POP JUMP JUMPDEST PUSH1 0x0 PUSH1 0x20 DUP3 ADD SWAP1 POP DUP2 DUP2 SUB PUSH1 0x0 DUP4 ADD MSTORE PUSH2 0x271B DUP2 PUSH2 0x2410 JUMP JUMPDEST SWAP1 POP SWAP2 SWAP1 POP JUMP JUMPDEST PUSH1 0x0 PUSH1 0x20 DUP3 ADD SWAP1 POP DUP2 DUP2 SUB PUSH1 0x0 DUP4 ADD MSTORE PUSH2 0x273B DUP2 PUSH2 0x2433 JUMP JUMPDEST SWAP1 POP SWAP2 SWAP1 POP JUMP JUMPDEST PUSH1 0x0 PUSH1 0x20 DUP3 ADD SWAP1 POP DUP2 DUP2 SUB PUSH1 0x0 DUP4 ADD MSTORE PUSH2 0x275B DUP2 PUSH2 0x2456 JUMP JUMPDEST SWAP1 POP SWAP2 SWAP1 POP JUMP JUMPDEST PUSH1 0x0 PUSH1 0x20 DUP3 ADD SWAP1 POP DUP2 DUP2 SUB PUSH1 0x0 DUP4 ADD MSTORE PUSH2 0x277B DUP2 PUSH2 0x2479 JUMP JUMPDEST SWAP1 POP SWAP2 SWAP1 POP JUMP JUMPDEST PUSH1 0x0 PUSH1 0x20 DUP3 ADD SWAP1 POP DUP2 DUP2 SUB PUSH1 0x0 DUP4 ADD MSTORE PUSH2 0x279B DUP2 PUSH2 0x249C JUMP JUMPDEST SWAP1 POP SWAP2 SWAP1 POP JUMP JUMPDEST PUSH1 0x0 PUSH1 0x20 DUP3 ADD SWAP1 POP DUP2 DUP2 SUB PUSH1 0x0 DUP4 ADD MSTORE PUSH2 0x27BB DUP2 PUSH2 0x24BF JUMP JUMPDEST SWAP1 POP SWAP2 SWAP1 POP JUMP JUMPDEST PUSH1 0x0 PUSH1 0x20 DUP3 ADD SWAP1 POP DUP2 DUP2 SUB PUSH1 0x0 DUP4 ADD MSTORE PUSH2 0x27DB DUP2 PUSH2 0x24E2 JUMP JUMPDEST SWAP1 POP SWAP2 SWAP1 POP JUMP JUMPDEST PUSH1 0x0 PUSH1 0x20 DUP3 ADD SWAP1 POP DUP2 DUP2 SUB PUSH1 0x0 DUP4 ADD MSTORE PUSH2 0x27FB DUP2 PUSH2 0x2505 JUMP JUMPDEST SWAP1 POP SWAP2 SWAP1 POP JUMP JUMPDEST PUSH1 0x0 PUSH1 0x20 DUP3 ADD SWAP1 POP DUP2 DUP2 SUB PUSH1 0x0 DUP4 ADD MSTORE PUSH2 0x281B DUP2 PUSH2 0x2528 JUMP JUMPDEST SWAP1 POP SWAP2 SWAP1 POP JUMP JUMPDEST PUSH1 0x0 PUSH1 0x20 DUP3 ADD SWAP1 POP DUP2 DUP2 SUB PUSH1 0x0 DUP4 ADD MSTORE PUSH2 0x283B DUP2 PUSH2 0x254B JUMP JUMPDEST SWAP1 POP SWAP2 SWAP1 POP JUMP JUMPDEST PUSH1 0x0 PUSH1 0x20 DUP3 ADD SWAP1 POP DUP2 DUP2 SUB PUSH1 0x0 DUP4 ADD MSTORE PUSH2 0x285B DUP2 PUSH2 0x256E JUMP JUMPDEST SWAP1 POP SWAP2 SWAP1 POP JUMP JUMPDEST PUSH1 0x0 PUSH1 0x20 DUP3 ADD SWAP1 POP DUP2 DUP2 SUB PUSH1 0x0 DUP4 ADD MSTORE PUSH2 0x287B DUP2 PUSH2 0x2591 JUMP JUMPDEST SWAP1 POP SWAP2 SWAP1 POP JUMP JUMPDEST PUSH1 0x0 PUSH1 0x20 DUP3 ADD SWAP1 POP PUSH2 0x2897 PUSH1 0x0 DUP4 ADD DUP5 PUSH2 0x25C3 JUMP JUMPDEST SWAP3 SWAP2 POP POP JUMP JUMPDEST PUSH1 0x0 PUSH2 0x28A7 PUSH2 0x28B8 JUMP JUMPDEST SWAP1 POP PUSH2 0x28B3 DUP3 DUP3 PUSH2 0x2BE9 JUMP JUMPDEST SWAP2 SWAP1 POP JUMP JUMPDEST PUSH1 0x0 PUSH1 0x40 MLOAD SWAP1 POP SWAP1 JUMP JUMPDEST PUSH1 0x0 PUSH8 0xFFFFFFFFFFFFFFFF DUP3 GT ISZERO PUSH2 0x28DD JUMPI PUSH2 0x28DC PUSH2 0x2D21 JUMP JUMPDEST JUMPDEST PUSH1 0x20 DUP3 MUL SWAP1 POP PUSH1 0x20 DUP2 ADD SWAP1 POP SWAP2 SWAP1 POP JUMP JUMPDEST PUSH1 0x0 PUSH8 0xFFFFFFFFFFFFFFFF DUP3 GT ISZERO PUSH2 0x2909 JUMPI PUSH2 0x2908 PUSH2 0x2D21 JUMP JUMPDEST JUMPDEST PUSH1 0x20 DUP3 MUL SWAP1 POP PUSH1 0x20 DUP2 ADD SWAP1 POP SWAP2 SWAP1 POP JUMP JUMPDEST PUSH1 0x0 PUSH8 0xFFFFFFFFFFFFFFFF DUP3 GT ISZERO PUSH2 0x2935 JUMPI PUSH2 0x2934 PUSH2 0x2D21 JUMP JUMPDEST JUMPDEST PUSH2 0x293E DUP3 PUSH2 0x2D50 JUMP JUMPDEST SWAP1 POP PUSH1 0x20 DUP2 ADD SWAP1 POP SWAP2 SWAP1 POP JUMP JUMPDEST PUSH1 0x0 PUSH8 0xFFFFFFFFFFFFFFFF DUP3 GT ISZERO PUSH2 0x2966 JUMPI PUSH2 0x2965 PUSH2 0x2D21 JUMP JUMPDEST JUMPDEST PUSH2 0x296F DUP3 PUSH2 0x2D50 JUMP JUMPDEST SWAP1 POP PUSH1 0x20 DUP2 ADD SWAP1 POP SWAP2 SWAP1 POP JUMP JUMPDEST PUSH1 0x0 DUP2 SWAP1 POP PUSH1 0x20 DUP3 ADD SWAP1 POP SWAP2 SWAP1 POP JUMP JUMPDEST PUSH1 0x0 DUP2 SWAP1 POP PUSH1 0x20 DUP3 ADD SWAP1 POP SWAP2 SWAP1 POP JUMP JUMPDEST PUSH1 0x0 DUP2 SWAP1 POP DUP2 PUSH1 0x0 MSTORE PUSH1 0x20 PUSH1 0x0 KECCAK256 SWAP1 POP SWAP2 SWAP1 POP JUMP JUMPDEST PUSH1 0x0 DUP2 MLOAD SWAP1 POP SWAP2 SWAP1 POP JUMP JUMPDEST PUSH1 0x0 DUP2 MLOAD SWAP1 POP SWAP2 SWAP1 POP JUMP JUMPDEST PUSH1 0x0 DUP2 MLOAD SWAP1 POP SWAP2 SWAP1 POP JUMP JUMPDEST PUSH1 0x0 DUP2 MLOAD SWAP1 POP SWAP2 SWAP1 POP JUMP JUMPDEST PUSH1 0x0 PUSH1 0x20 DUP3 ADD SWAP1 POP SWAP2 SWAP1 POP JUMP JUMPDEST PUSH1 0x0 PUSH1 0x20 DUP3 ADD SWAP1 POP SWAP2 SWAP1 POP JUMP JUMPDEST PUSH1 0x0 DUP3 DUP3 MSTORE PUSH1 0x20 DUP3 ADD SWAP1 POP SWAP3 SWAP2 POP POP JUMP JUMPDEST PUSH1 0x0 DUP3 DUP3 MSTORE PUSH1 0x20 DUP3 ADD SWAP1 POP SWAP3 SWAP2 POP POP JUMP JUMPDEST PUSH1 0x0 DUP3 DUP3 MSTORE PUSH1 0x20 DUP3 ADD SWAP1 POP SWAP3 SWAP2 POP POP JUMP JUMPDEST PUSH1 0x0 DUP3 DUP3 MSTORE PUSH1 0x20 DUP3 ADD SWAP1 POP SWAP3 SWAP2 POP POP JUMP JUMPDEST PUSH1 0x0 DUP2 SWAP1 POP SWAP3 SWAP2 POP POP JUMP JUMPDEST PUSH1 0x0 PUSH2 0x2A51 DUP3 PUSH2 0x2B6B JUMP JUMPDEST SWAP2 POP PUSH2 0x2A5C DUP4 PUSH2 0x2B6B JUMP JUMPDEST SWAP3 POP DUP3 PUSH32 0xFFFFFFFFFFFFFFFFFFFFFFFFFFFFFFFFFFFFFFFFFFFFFFFFFFFFFFFFFFFFFFFF SUB DUP3 GT ISZERO PUSH2 0x2A91 JUMPI PUSH2 0x2A90 PUSH2 0x2C94 JUMP JUMPDEST JUMPDEST DUP3 DUP3 ADD SWAP1 POP SWAP3 SWAP2 POP POP JUMP JUMPDEST PUSH1 0x0 PUSH2 0x2AA7 DUP3 PUSH2 0x2B6B JUMP JUMPDEST SWAP2 POP PUSH2 0x2AB2 DUP4 PUSH2 0x2B6B JUMP JUMPDEST SWAP3 POP DUP3 PUSH2 0x2AC2 JUMPI PUSH2 0x2AC1 PUSH2 0x2CC3 JUMP JUMPDEST JUMPDEST DUP3 DUP3 DIV SWAP1 POP SWAP3 SWAP2 POP POP JUMP JUMPDEST PUSH1 0x0 PUSH2 0x2AD8 DUP3 PUSH2 0x2B6B JUMP JUMPDEST SWAP2 POP PUSH2 0x2AE3 DUP4 PUSH2 0x2B6B JUMP JUMPDEST SWAP3 POP DUP3 DUP3 LT ISZERO PUSH2 0x2AF6 JUMPI PUSH2 0x2AF5 PUSH2 0x2C94 JUMP JUMPDEST JUMPDEST DUP3 DUP3 SUB SWAP1 POP SWAP3 SWAP2 POP POP JUMP JUMPDEST PUSH1 0x0 PUSH2 0x2B0C DUP3 PUSH2 0x2B4B JUMP JUMPDEST SWAP1 POP SWAP2 SWAP1 POP JUMP JUMPDEST PUSH1 0x0 DUP2 ISZERO ISZERO SWAP1 POP SWAP2 SWAP1 POP JUMP JUMPDEST PUSH1 0x0 PUSH32 0xFFFFFFFF00000000000000000000000000000000000000000000000000000000 DUP3 AND SWAP1 POP SWAP2 SWAP1 POP JUMP JUMPDEST PUSH1 0x0 PUSH20 0xFFFFFFFFFFFFFFFFFFFFFFFFFFFFFFFFFFFFFFFF DUP3 AND SWAP1 POP SWAP2 SWAP1 POP JUMP JUMPDEST PUSH1 0x0 DUP2 SWAP1 POP SWAP2 SWAP1 POP JUMP JUMPDEST DUP3 DUP2 DUP4 CALLDATACOPY PUSH1 0x0 DUP4 DUP4 ADD MSTORE POP POP POP JUMP JUMPDEST PUSH1 0x0 JUMPDEST DUP4 DUP2 LT ISZERO PUSH2 0x2BA2 JUMPI DUP1 DUP3 ADD MLOAD DUP2 DUP5 ADD MSTORE PUSH1 0x20 DUP2 ADD SWAP1 POP PUSH2 0x2B87 JUMP JUMPDEST DUP4 DUP2 GT ISZERO PUSH2 0x2BB1 JUMPI PUSH1 0x0 DUP5 DUP5 ADD MSTORE JUMPDEST POP POP POP POP JUMP JUMPDEST PUSH1 0x0 PUSH1 0x2 DUP3 DIV SWAP1 POP PUSH1 0x1 DUP3 AND DUP1 PUSH2 0x2BCF JUMPI PUSH1 0x7F DUP3 AND SWAP2 POP JUMPDEST PUSH1 0x20 DUP3 LT DUP2 EQ ISZERO PUSH2 0x2BE3 JUMPI PUSH2 0x2BE2 PUSH2 0x2CF2 JUMP JUMPDEST JUMPDEST POP SWAP2 SWAP1 POP JUMP JUMPDEST PUSH2 0x2BF2 DUP3 PUSH2 0x2D50 JUMP JUMPDEST DUP2 ADD DUP2 DUP2 LT PUSH8 0xFFFFFFFFFFFFFFFF DUP3 GT OR ISZERO PUSH2 0x2C11 JUMPI PUSH2 0x2C10 PUSH2 0x2D21 JUMP JUMPDEST JUMPDEST DUP1 PUSH1 0x40 MSTORE POP POP POP JUMP JUMPDEST PUSH1 0x0 PUSH2 0x2C25 DUP3 PUSH2 0x2B6B JUMP JUMPDEST SWAP2 POP PUSH32 0xFFFFFFFFFFFFFFFFFFFFFFFFFFFFFFFFFFFFFFFFFFFFFFFFFFFFFFFFFFFFFFFF DUP3 EQ ISZERO PUSH2 0x2C58 JUMPI PUSH2 0x2C57 PUSH2 0x2C94 JUMP JUMPDEST JUMPDEST PUSH1 0x1 DUP3 ADD SWAP1 POP SWAP2 SWAP1 POP JUMP JUMPDEST PUSH1 0x0 PUSH2 0x2C6E DUP3 PUSH2 0x2B6B JUMP JUMPDEST SWAP2 POP PUSH2 0x2C79 DUP4 PUSH2 0x2B6B JUMP JUMPDEST SWAP3 POP DUP3 PUSH2 0x2C89 JUMPI PUSH2 0x2C88 PUSH2 0x2CC3 JUMP JUMPDEST JUMPDEST DUP3 DUP3 MOD SWAP1 POP SWAP3 SWAP2 POP POP JUMP JUMPDEST PUSH32 0x4E487B7100000000000000000000000000000000000000000000000000000000 PUSH1 0x0 MSTORE PUSH1 0x11 PUSH1 0x4 MSTORE PUSH1 0x24 PUSH1 0x0 REVERT JUMPDEST PUSH32 0x4E487B7100000000000000000000000000000000000000000000000000000000 PUSH1 0x0 MSTORE PUSH1 0x12 PUSH1 0x4 MSTORE PUSH1 0x24 PUSH1 0x0 REVERT JUMPDEST PUSH32 0x4E487B7100000000000000000000000000000000000000000000000000000000 PUSH1 0x0 MSTORE PUSH1 0x22 PUSH1 0x4 MSTORE PUSH1 0x24 PUSH1 0x0 REVERT JUMPDEST PUSH32 0x4E487B7100000000000000000000000000000000000000000000000000000000 PUSH1 0x0 MSTORE PUSH1 0x41 PUSH1 0x4 MSTORE PUSH1 0x24 PUSH1 0x0 REVERT JUMPDEST PUSH1 0x0 PUSH1 0x1F NOT PUSH1 0x1F DUP4 ADD AND SWAP1 POP SWAP2 SWAP1 POP JUMP JUMPDEST PUSH32 0x4552433732313A2063616C6C6572206973206E6F7420746F6B656E206F776E65 PUSH1 0x0 DUP3 ADD MSTORE PUSH32 0x72206F7220617070726F76656400000000000000000000000000000000000000 PUSH1 0x20 DUP3 ADD MSTORE POP JUMP JUMPDEST PUSH32 0x4552433732313A207472616E7366657220746F206E6F6E204552433732315265 PUSH1 0x0 DUP3 ADD MSTORE PUSH32 0x63656976657220696D706C656D656E7465720000000000000000000000000000 PUSH1 0x20 DUP3 ADD MSTORE POP JUMP JUMPDEST PUSH32 0x4552433732313A207472616E736665722066726F6D20696E636F727265637420 PUSH1 0x0 DUP3 ADD MSTORE PUSH32 0x6F776E6572000000000000000000000000000000000000000000000000000000 PUSH1 0x20 DUP3 ADD MSTORE POP JUMP JUMPDEST PUSH32 0x4552433732313A20746F6B656E20616C7265616479206D696E74656400000000 PUSH1 0x0 DUP3 ADD MSTORE POP JUMP JUMPDEST PUSH32 0x4552433732313A207472616E7366657220746F20746865207A65726F20616464 PUSH1 0x0 DUP3 ADD MSTORE PUSH32 0x7265737300000000000000000000000000000000000000000000000000000000 PUSH1 0x20 DUP3 ADD MSTORE POP JUMP JUMPDEST PUSH32 0x4552433732313A20617070726F766520746F2063616C6C657200000000000000 PUSH1 0x0 DUP3 ADD MSTORE POP JUMP JUMPDEST PUSH32 0x4552433732313A2061646472657373207A65726F206973206E6F742061207661 PUSH1 0x0 DUP3 ADD MSTORE PUSH32 0x6C6964206F776E65720000000000000000000000000000000000000000000000 PUSH1 0x20 DUP3 ADD MSTORE POP JUMP JUMPDEST PUSH32 0x4552433732313A206D696E7420746F20746865207A65726F2061646472657373 PUSH1 0x0 DUP3 ADD MSTORE POP JUMP JUMPDEST PUSH32 0x4552433732314D657461646174613A2055524920717565727920666F72206E6F PUSH1 0x0 DUP3 ADD MSTORE PUSH32 0x6E6578697374656E7420746F6B656E0000000000000000000000000000000000 PUSH1 0x20 DUP3 ADD MSTORE POP JUMP JUMPDEST PUSH32 0x4552433732313A20696E76616C696420746F6B656E2049440000000000000000 PUSH1 0x0 DUP3 ADD MSTORE POP JUMP JUMPDEST PUSH32 0x4552433732313A20617070726F76616C20746F2063757272656E74206F776E65 PUSH1 0x0 DUP3 ADD MSTORE PUSH32 0x7200000000000000000000000000000000000000000000000000000000000000 PUSH1 0x20 DUP3 ADD MSTORE POP JUMP JUMPDEST PUSH32 0x4552433732313A20617070726F76652063616C6C6572206973206E6F7420746F PUSH1 0x0 DUP3 ADD MSTORE PUSH32 0x6B656E206F776E6572206F7220617070726F76656420666F7220616C6C000000 PUSH1 0x20 DUP3 ADD MSTORE POP JUMP JUMPDEST PUSH2 0x3086 DUP2 PUSH2 0x2B01 JUMP JUMPDEST DUP2 EQ PUSH2 0x3091 JUMPI PUSH1 0x0 DUP1 REVERT JUMPDEST POP JUMP JUMPDEST PUSH2 0x309D DUP2 PUSH2 0x2B13 JUMP JUMPDEST DUP2 EQ PUSH2 0x30A8 JUMPI PUSH1 0x0 DUP1 REVERT JUMPDEST POP JUMP JUMPDEST PUSH2 0x30B4 DUP2 PUSH2 0x2B1F JUMP JUMPDEST DUP2 EQ PUSH2 0x30BF JUMPI PUSH1 0x0 DUP1 REVERT JUMPDEST POP JUMP JUMPDEST PUSH2 0x30CB DUP2 PUSH2 0x2B6B JUMP JUMPDEST DUP2 EQ PUSH2 0x30D6 JUMPI PUSH1 0x0 DUP1 REVERT JUMPDEST POP JUMP INVALID LOG2 PUSH5 0x6970667358 0x22 SLT KECCAK256 DUP4 0xE1 DUP13 0x2B 0xEC JUMPDEST RETURNDATASIZE SLT 0x1E DIFFICULTY LT MULMOD LOG4 0x22 0x1E 0x2E PUSH23 0xB82D574260C039BFCB0698ED8EF3DA64736F6C63430008 DIV STOP CALLER "
				},
				"gasEstimates": {
					"creation": {
						"codeDepositCost": "2511800",
						"executionCost": "infinite",
						"totalCost": "infinite"
					},
					"external": {
						"approve(address,uint256)": "infinite",
						"balanceOf(address)": "1646",
						"collaboratotOf(uint256)": "infinite",
						"collaboratotPercentageOf(uint256)": "infinite",
						"getApproved(uint256)": "2657",
						"isApprovedForAll(address,address)": "infinite",
						"mint(address,address[],uint256[],string)": "infinite",
						"name()": "infinite",
						"ownerOf(uint256)": "1704",
						"safeTransferFrom(address,address,uint256)": "infinite",
						"safeTransferFrom(address,address,uint256,bytes)": "infinite",
						"setApprovalForAll(address,bool)": "infinite",
						"supportsInterface(bytes4)": "797",
						"symbol()": "infinite",
						"tokenURI(uint256)": "2095",
						"tokenUri(uint256)": "infinite",
						"transferFrom(address,address,uint256)": "infinite"
					},
					"internal": {
						"_afterTokenTransfer(address,address,uint256)": "15",
						"_approve(address,uint256)": "infinite",
						"_baseURI()": "infinite",
						"_beforeTokenTransfer(address,address,uint256)": "15",
						"_burn(uint256)": "infinite",
						"_checkOnERC721Received(address,address,uint256,bytes memory)": "infinite",
						"_exists(uint256)": "969",
						"_isApprovedOrOwner(address,uint256)": "infinite",
						"_mint(address,address[] memory,uint256[] memory,uint256)": "infinite",
						"_requireMinted(uint256)": "infinite",
						"_safeMint(address,address[] memory,uint256[] memory,uint256)": "infinite",
						"_safeMint(address,address[] memory,uint256[] memory,uint256,bytes memory)": "infinite",
						"_safeTransfer(address,address,uint256,bytes memory)": "infinite",
						"_setApprovalForAll(address,address,bool)": "infinite",
						"_setBaseTokenURI(string memory)": "infinite",
						"_setTokenURI(uint256,string memory)": "infinite",
						"_tokenURI(uint256)": "infinite",
						"_transfer(address,address,uint256)": "infinite"
					}
				},
				"methodIdentifiers": {
					"approve(address,uint256)": "095ea7b3",
					"balanceOf(address)": "70a08231",
					"collaboratotOf(uint256)": "52e04825",
					"collaboratotPercentageOf(uint256)": "ee48cda2",
					"getApproved(uint256)": "081812fc",
					"isApprovedForAll(address,address)": "e985e9c5",
					"mint(address,address[],uint256[],string)": "381568d8",
					"name()": "06fdde03",
					"ownerOf(uint256)": "6352211e",
					"safeTransferFrom(address,address,uint256)": "42842e0e",
					"safeTransferFrom(address,address,uint256,bytes)": "b88d4fde",
					"setApprovalForAll(address,bool)": "a22cb465",
					"supportsInterface(bytes4)": "01ffc9a7",
					"symbol()": "95d89b41",
					"tokenURI(uint256)": "c87b56dd",
					"tokenUri(uint256)": "1675f455",
					"transferFrom(address,address,uint256)": "23b872dd"
				}
			},
			"storageLayout": {
				"storage": [
					{
						"astId": 821,
						"contract": "contracts/nft.sol:nft",
						"label": "_tokenIds",
						"offset": 0,
						"slot": "0",
						"type": "t_struct(Counter)483_storage"
					},
					{
						"astId": 823,
						"contract": "contracts/nft.sol:nft",
						"label": "_name",
						"offset": 0,
						"slot": "1",
						"type": "t_string_storage"
					},
					{
						"astId": 825,
						"contract": "contracts/nft.sol:nft",
						"label": "_symbol",
						"offset": 0,
						"slot": "2",
						"type": "t_string_storage"
					},
					{
						"astId": 829,
						"contract": "contracts/nft.sol:nft",
						"label": "_owners",
						"offset": 0,
						"slot": "3",
						"type": "t_mapping(t_uint256,t_address)"
					},
					{
						"astId": 834,
						"contract": "contracts/nft.sol:nft",
						"label": "_collaborators",
						"offset": 0,
						"slot": "4",
						"type": "t_mapping(t_uint256,t_array(t_address)dyn_storage)"
					},
					{
						"astId": 839,
						"contract": "contracts/nft.sol:nft",
						"label": "_collaboratorsPercentage",
						"offset": 0,
						"slot": "5",
						"type": "t_mapping(t_uint256,t_array(t_uint256)dyn_storage)"
					},
					{
						"astId": 843,
						"contract": "contracts/nft.sol:nft",
						"label": "_balances",
						"offset": 0,
						"slot": "6",
						"type": "t_mapping(t_address,t_uint256)"
					},
					{
						"astId": 847,
						"contract": "contracts/nft.sol:nft",
						"label": "_tokenApprovals",
						"offset": 0,
						"slot": "7",
						"type": "t_mapping(t_uint256,t_address)"
					},
					{
						"astId": 853,
						"contract": "contracts/nft.sol:nft",
						"label": "_operatorApprovals",
						"offset": 0,
						"slot": "8",
						"type": "t_mapping(t_address,t_mapping(t_address,t_bool))"
					},
					{
						"astId": 857,
						"contract": "contracts/nft.sol:nft",
						"label": "_tokenURIs",
						"offset": 0,
						"slot": "9",
						"type": "t_mapping(t_uint256,t_string_storage)"
					},
					{
						"astId": 859,
						"contract": "contracts/nft.sol:nft",
						"label": "_baseTokenURI",
						"offset": 0,
						"slot": "10",
						"type": "t_string_storage"
					}
				],
				"types": {
					"t_address": {
						"encoding": "inplace",
						"label": "address",
						"numberOfBytes": "20"
					},
					"t_array(t_address)dyn_storage": {
						"base": "t_address",
						"encoding": "dynamic_array",
						"label": "address[]",
						"numberOfBytes": "32"
					},
					"t_array(t_uint256)dyn_storage": {
						"base": "t_uint256",
						"encoding": "dynamic_array",
						"label": "uint256[]",
						"numberOfBytes": "32"
					},
					"t_bool": {
						"encoding": "inplace",
						"label": "bool",
						"numberOfBytes": "1"
					},
					"t_mapping(t_address,t_bool)": {
						"encoding": "mapping",
						"key": "t_address",
						"label": "mapping(address => bool)",
						"numberOfBytes": "32",
						"value": "t_bool"
					},
					"t_mapping(t_address,t_mapping(t_address,t_bool))": {
						"encoding": "mapping",
						"key": "t_address",
						"label": "mapping(address => mapping(address => bool))",
						"numberOfBytes": "32",
						"value": "t_mapping(t_address,t_bool)"
					},
					"t_mapping(t_address,t_uint256)": {
						"encoding": "mapping",
						"key": "t_address",
						"label": "mapping(address => uint256)",
						"numberOfBytes": "32",
						"value": "t_uint256"
					},
					"t_mapping(t_uint256,t_address)": {
						"encoding": "mapping",
						"key": "t_uint256",
						"label": "mapping(uint256 => address)",
						"numberOfBytes": "32",
						"value": "t_address"
					},
					"t_mapping(t_uint256,t_array(t_address)dyn_storage)": {
						"encoding": "mapping",
						"key": "t_uint256",
						"label": "mapping(uint256 => address[])",
						"numberOfBytes": "32",
						"value": "t_array(t_address)dyn_storage"
					},
					"t_mapping(t_uint256,t_array(t_uint256)dyn_storage)": {
						"encoding": "mapping",
						"key": "t_uint256",
						"label": "mapping(uint256 => uint256[])",
						"numberOfBytes": "32",
						"value": "t_array(t_uint256)dyn_storage"
					},
					"t_mapping(t_uint256,t_string_storage)": {
						"encoding": "mapping",
						"key": "t_uint256",
						"label": "mapping(uint256 => string)",
						"numberOfBytes": "32",
						"value": "t_string_storage"
					},
					"t_string_storage": {
						"encoding": "bytes",
						"label": "string",
						"numberOfBytes": "32"
					},
					"t_struct(Counter)483_storage": {
						"encoding": "inplace",
						"label": "struct Counters.Counter",
						"members": [
							{
								"astId": 482,
								"contract": "contracts/nft.sol:nft",
								"label": "_value",
								"offset": 0,
								"slot": "0",
								"type": "t_uint256"
							}
						],
						"numberOfBytes": "32"
					},
					"t_uint256": {
						"encoding": "inplace",
						"label": "uint256",
						"numberOfBytes": "32"
					}
				}
			},
			"userdoc": {
				"kind": "user",
				"methods": {},
				"version": 1
			}
		}
	}
}