{
	"contracts/marketplace.sol": {
		"marketplace": {
			"abi": [
				{
					"inputs": [
						{
							"internalType": "string",
							"name": "name_",
							"type": "string"
						},
						{
							"internalType": "string",
							"name": "symbol_",
							"type": "string"
						}
					],
					"stateMutability": "nonpayable",
					"type": "constructor"
				},
				{
					"anonymous": false,
					"inputs": [
						{
							"indexed": true,
							"internalType": "address",
							"name": "owner",
							"type": "address"
						},
						{
							"indexed": true,
							"internalType": "address",
							"name": "approved",
							"type": "address"
						},
						{
							"indexed": true,
							"internalType": "uint256",
							"name": "tokenId",
							"type": "uint256"
						}
					],
					"name": "Approval",
					"type": "event"
				},
				{
					"anonymous": false,
					"inputs": [
						{
							"indexed": true,
							"internalType": "address",
							"name": "owner",
							"type": "address"
						},
						{
							"indexed": true,
							"internalType": "address",
							"name": "operator",
							"type": "address"
						},
						{
							"indexed": false,
							"internalType": "bool",
							"name": "approved",
							"type": "bool"
						}
					],
					"name": "ApprovalForAll",
					"type": "event"
				},
				{
					"anonymous": false,
					"inputs": [
						{
							"indexed": false,
							"internalType": "address",
							"name": "nftContract",
							"type": "address"
						},
						{
							"indexed": false,
							"internalType": "uint256",
							"name": "tokenId",
							"type": "uint256"
						},
						{
							"indexed": false,
							"internalType": "address",
							"name": "seller",
							"type": "address"
						},
						{
							"indexed": false,
							"internalType": "address",
							"name": "owner",
							"type": "address"
						},
						{
							"indexed": false,
							"internalType": "uint256",
							"name": "price",
							"type": "uint256"
						}
					],
					"name": "NFTListed",
					"type": "event"
				},
				{
					"anonymous": false,
					"inputs": [
						{
							"indexed": false,
							"internalType": "address",
							"name": "nftContract",
							"type": "address"
						},
						{
							"indexed": false,
							"internalType": "uint256",
							"name": "tokenId",
							"type": "uint256"
						},
						{
							"indexed": false,
							"internalType": "address",
							"name": "seller",
							"type": "address"
						},
						{
							"indexed": false,
							"internalType": "address",
							"name": "owner",
							"type": "address"
						},
						{
							"indexed": false,
							"internalType": "uint256",
							"name": "price",
							"type": "uint256"
						}
					],
					"name": "NFTSold",
					"type": "event"
				},
				{
					"anonymous": false,
					"inputs": [
						{
							"indexed": true,
							"internalType": "address",
							"name": "from",
							"type": "address"
						},
						{
							"indexed": true,
							"internalType": "address",
							"name": "to",
							"type": "address"
						},
						{
							"indexed": true,
							"internalType": "uint256",
							"name": "tokenId",
							"type": "uint256"
						}
					],
					"name": "Transfer",
					"type": "event"
				},
				{
					"inputs": [],
					"name": "LISTING_FEE",
					"outputs": [
						{
							"internalType": "uint256",
							"name": "",
							"type": "uint256"
						}
					],
					"stateMutability": "view",
					"type": "function"
				},
				{
					"inputs": [
						{
							"internalType": "address",
							"name": "to",
							"type": "address"
						},
						{
							"internalType": "uint256",
							"name": "tokenId",
							"type": "uint256"
						}
					],
					"name": "approve",
					"outputs": [],
					"stateMutability": "nonpayable",
					"type": "function"
				},
				{
					"inputs": [
						{
							"internalType": "address",
							"name": "owner",
							"type": "address"
						}
					],
					"name": "balanceOf",
					"outputs": [
						{
							"internalType": "uint256",
							"name": "",
							"type": "uint256"
						}
					],
					"stateMutability": "view",
					"type": "function"
				},
				{
					"inputs": [
						{
							"internalType": "address",
							"name": "_nftContract",
							"type": "address"
						},
						{
							"internalType": "uint256",
							"name": "_tokenId",
							"type": "uint256"
						}
					],
					"name": "buyNft",
					"outputs": [],
					"stateMutability": "payable",
					"type": "function"
				},
				{
					"inputs": [
						{
							"internalType": "uint256",
							"name": "tokenId",
							"type": "uint256"
						}
					],
					"name": "collaboratotOf",
					"outputs": [
						{
							"internalType": "address",
							"name": "",
							"type": "address"
						}
					],
					"stateMutability": "view",
					"type": "function"
				},
				{
					"inputs": [
						{
							"internalType": "uint256",
							"name": "tokenId",
							"type": "uint256"
						}
					],
					"name": "getApproved",
					"outputs": [
						{
							"internalType": "address",
							"name": "",
							"type": "address"
						}
					],
					"stateMutability": "view",
					"type": "function"
				},
				{
					"inputs": [],
					"name": "getListedNfts",
					"outputs": [
						{
							"components": [
								{
									"internalType": "address",
									"name": "nftContract",
									"type": "address"
								},
								{
									"internalType": "uint256",
									"name": "tokenId",
									"type": "uint256"
								},
								{
									"internalType": "address payable",
									"name": "seller",
									"type": "address"
								},
								{
									"internalType": "address payable",
									"name": "owner",
									"type": "address"
								},
								{
									"internalType": "uint256",
									"name": "price",
									"type": "uint256"
								},
								{
									"internalType": "bool",
									"name": "listed",
									"type": "bool"
								}
							],
							"internalType": "struct marketplace.NFT[]",
							"name": "",
							"type": "tuple[]"
						}
					],
					"stateMutability": "view",
					"type": "function"
				},
				{
					"inputs": [],
					"name": "getListingFee",
					"outputs": [
						{
							"internalType": "uint256",
							"name": "",
							"type": "uint256"
						}
					],
					"stateMutability": "view",
					"type": "function"
				},
				{
					"inputs": [],
					"name": "getMyListedNfts",
					"outputs": [
						{
							"components": [
								{
									"internalType": "address",
									"name": "nftContract",
									"type": "address"
								},
								{
									"internalType": "uint256",
									"name": "tokenId",
									"type": "uint256"
								},
								{
									"internalType": "address payable",
									"name": "seller",
									"type": "address"
								},
								{
									"internalType": "address payable",
									"name": "owner",
									"type": "address"
								},
								{
									"internalType": "uint256",
									"name": "price",
									"type": "uint256"
								},
								{
									"internalType": "bool",
									"name": "listed",
									"type": "bool"
								}
							],
							"internalType": "struct marketplace.NFT[]",
							"name": "",
							"type": "tuple[]"
						}
					],
					"stateMutability": "view",
					"type": "function"
				},
				{
					"inputs": [],
					"name": "getMyNfts",
					"outputs": [
						{
							"components": [
								{
									"internalType": "address",
									"name": "nftContract",
									"type": "address"
								},
								{
									"internalType": "uint256",
									"name": "tokenId",
									"type": "uint256"
								},
								{
									"internalType": "address payable",
									"name": "seller",
									"type": "address"
								},
								{
									"internalType": "address payable",
									"name": "owner",
									"type": "address"
								},
								{
									"internalType": "uint256",
									"name": "price",
									"type": "uint256"
								},
								{
									"internalType": "bool",
									"name": "listed",
									"type": "bool"
								}
							],
							"internalType": "struct marketplace.NFT[]",
							"name": "",
							"type": "tuple[]"
						}
					],
					"stateMutability": "view",
					"type": "function"
				},
				{
					"inputs": [
						{
							"internalType": "address",
							"name": "owner",
							"type": "address"
						},
						{
							"internalType": "address",
							"name": "operator",
							"type": "address"
						}
					],
					"name": "isApprovedForAll",
					"outputs": [
						{
							"internalType": "bool",
							"name": "",
							"type": "bool"
						}
					],
					"stateMutability": "view",
					"type": "function"
				},
				{
					"inputs": [
						{
							"internalType": "address",
							"name": "_nftContract",
							"type": "address"
						},
						{
							"internalType": "uint256",
							"name": "_tokenId",
							"type": "uint256"
						},
						{
							"internalType": "uint256",
							"name": "_price",
							"type": "uint256"
						}
					],
					"name": "listNft",
					"outputs": [],
					"stateMutability": "payable",
					"type": "function"
				},
				{
					"inputs": [
						{
							"internalType": "address",
							"name": "to",
							"type": "address"
						},
						{
							"internalType": "address",
							"name": "collaborator",
							"type": "address"
						},
						{
							"internalType": "uint256",
							"name": "tokenId",
							"type": "uint256"
						},
						{
							"internalType": "string",
							"name": "uri",
							"type": "string"
						}
					],
					"name": "mint",
					"outputs": [],
					"stateMutability": "nonpayable",
					"type": "function"
				},
				{
					"inputs": [],
					"name": "name",
					"outputs": [
						{
							"internalType": "string",
							"name": "",
							"type": "string"
						}
					],
					"stateMutability": "view",
					"type": "function"
				},
				{
					"inputs": [
						{
							"internalType": "uint256",
							"name": "tokenId",
							"type": "uint256"
						}
					],
					"name": "ownerOf",
					"outputs": [
						{
							"internalType": "address",
							"name": "",
							"type": "address"
						}
					],
					"stateMutability": "view",
					"type": "function"
				},
				{
					"inputs": [
						{
							"internalType": "address",
							"name": "_nftContract",
							"type": "address"
						},
						{
							"internalType": "uint256",
							"name": "_tokenId",
							"type": "uint256"
						},
						{
							"internalType": "uint256",
							"name": "_price",
							"type": "uint256"
						}
					],
					"name": "resellNft",
					"outputs": [],
					"stateMutability": "payable",
					"type": "function"
				},
				{
					"inputs": [
						{
							"internalType": "address",
							"name": "from",
							"type": "address"
						},
						{
							"internalType": "address",
							"name": "to",
							"type": "address"
						},
						{
							"internalType": "uint256",
							"name": "tokenId",
							"type": "uint256"
						}
					],
					"name": "safeTransferFrom",
					"outputs": [],
					"stateMutability": "nonpayable",
					"type": "function"
				},
				{
					"inputs": [
						{
							"internalType": "address",
							"name": "from",
							"type": "address"
						},
						{
							"internalType": "address",
							"name": "to",
							"type": "address"
						},
						{
							"internalType": "uint256",
							"name": "tokenId",
							"type": "uint256"
						},
						{
							"internalType": "bytes",
							"name": "data",
							"type": "bytes"
						}
					],
					"name": "safeTransferFrom",
					"outputs": [],
					"stateMutability": "nonpayable",
					"type": "function"
				},
				{
					"inputs": [
						{
							"internalType": "address",
							"name": "operator",
							"type": "address"
						},
						{
							"internalType": "bool",
							"name": "approved",
							"type": "bool"
						}
					],
					"name": "setApprovalForAll",
					"outputs": [],
					"stateMutability": "nonpayable",
					"type": "function"
				},
				{
					"inputs": [
						{
							"internalType": "bytes4",
							"name": "interfaceId",
							"type": "bytes4"
						}
					],
					"name": "supportsInterface",
					"outputs": [
						{
							"internalType": "bool",
							"name": "",
							"type": "bool"
						}
					],
					"stateMutability": "view",
					"type": "function"
				},
				{
					"inputs": [],
					"name": "symbol",
					"outputs": [
						{
							"internalType": "string",
							"name": "",
							"type": "string"
						}
					],
					"stateMutability": "view",
					"type": "function"
				},
				{
					"inputs": [
						{
							"internalType": "uint256",
							"name": "tokenId",
							"type": "uint256"
						}
					],
					"name": "tokenURI",
					"outputs": [
						{
							"internalType": "string",
							"name": "",
							"type": "string"
						}
					],
					"stateMutability": "view",
					"type": "function"
				},
				{
					"inputs": [
						{
							"internalType": "address",
							"name": "from",
							"type": "address"
						},
						{
							"internalType": "address",
							"name": "to",
							"type": "address"
						},
						{
							"internalType": "uint256",
							"name": "tokenId",
							"type": "uint256"
						}
					],
					"name": "transferFrom",
					"outputs": [],
					"stateMutability": "nonpayable",
					"type": "function"
				}
			],
			"devdoc": {
				"kind": "dev",
				"methods": {
					"approve(address,uint256)": {
						"details": "Gives permission to `to` to transfer `tokenId` token to another account. The approval is cleared when the token is transferred. Only a single account can be approved at a time, so approving the zero address clears previous approvals. Requirements: - The caller must own the token or be an approved operator. - `tokenId` must exist. Emits an {Approval} event."
					},
					"balanceOf(address)": {
						"details": "Returns the number of tokens in ``owner``'s account."
					},
					"getApproved(uint256)": {
						"details": "Returns the account approved for `tokenId` token. Requirements: - `tokenId` must exist."
					},
					"isApprovedForAll(address,address)": {
						"details": "Returns if the `operator` is allowed to manage all of the assets of `owner`. See {setApprovalForAll}"
					},
					"name()": {
						"details": "Returns the token collection name."
					},
					"ownerOf(uint256)": {
						"details": "Returns the owner of the `tokenId` token. Requirements: - `tokenId` must exist."
					},
					"safeTransferFrom(address,address,uint256)": {
						"details": "Safely transfers `tokenId` token from `from` to `to`, checking first that contract recipients are aware of the ERC721 protocol to prevent tokens from being forever locked. Requirements: - `from` cannot be the zero address. - `to` cannot be the zero address. - `tokenId` token must exist and be owned by `from`. - If the caller is not `from`, it must be have been allowed to move this token by either {approve} or {setApprovalForAll}. - If `to` refers to a smart contract, it must implement {IERC721Receiver-onERC721Received}, which is called upon a safe transfer. Emits a {Transfer} event."
					},
					"safeTransferFrom(address,address,uint256,bytes)": {
						"details": "Safely transfers `tokenId` token from `from` to `to`. Requirements: - `from` cannot be the zero address. - `to` cannot be the zero address. - `tokenId` token must exist and be owned by `from`. - If the caller is not `from`, it must be approved to move this token by either {approve} or {setApprovalForAll}. - If `to` refers to a smart contract, it must implement {IERC721Receiver-onERC721Received}, which is called upon a safe transfer. Emits a {Transfer} event."
					},
					"symbol()": {
						"details": "Returns the token collection symbol."
					},
					"tokenURI(uint256)": {
						"details": "Returns the Uniform Resource Identifier (URI) for `tokenId` token."
					},
					"transferFrom(address,address,uint256)": {
						"details": "Transfers `tokenId` token from `from` to `to`. WARNING: Usage of this method is discouraged, use {safeTransferFrom} whenever possible. Requirements: - `from` cannot be the zero address. - `to` cannot be the zero address. - `tokenId` token must be owned by `from`. - If the caller is not `from`, it must be approved to move this token by either {approve} or {setApprovalForAll}. Emits a {Transfer} event."
					}
				},
				"version": 1
			},
			"evm": {
				"assembly": "    /* \"contracts/marketplace.sol\":747:14594  contract marketplace is Context, ERC165, IERC721, IERC721Metadata ,ReentrancyGuard {\r... */\n  mstore(0x40, 0x80)\n    /* \"contracts/marketplace.sol\":1475:1487  0.0001 ether */\n  0x5af3107a4000\n    /* \"contracts/marketplace.sol\":1446:1487  uint256 public LISTING_FEE = 0.0001 ether */\n  0x0b\n  sstore\n    /* \"contracts/marketplace.sol\":2022:2138  constructor(string memory name_, string memory symbol_) {\r... */\n  callvalue\n  dup1\n  iszero\n  tag_1\n  jumpi\n  0x00\n  dup1\n  revert\ntag_1:\n  pop\n  mload(0x40)\n  sub(codesize, bytecodeSize)\n  dup1\n  bytecodeSize\n  dup4\n  codecopy\n  dup2\n  dup2\n  add\n  0x40\n  mstore\n  dup2\n  add\n  swap1\n  tag_2\n  swap2\n  swap1\n  tag_3\n  jump\t// in\ntag_2:\n    /* \"@openzeppelin/contracts@4.6.0/security/ReentrancyGuard.sol\":1701:1702  1 */\n  0x01\n    /* \"@openzeppelin/contracts@4.6.0/security/ReentrancyGuard.sol\":1806:1813  _status */\n  0x00\n    /* \"@openzeppelin/contracts@4.6.0/security/ReentrancyGuard.sol\":1806:1828  _status = _NOT_ENTERED */\n  dup2\n  swap1\n  sstore\n  pop\n    /* \"contracts/marketplace.sol\":2097:2102  name_ */\n  dup2\n    /* \"contracts/marketplace.sol\":2089:2094  _name */\n  0x01\n    /* \"contracts/marketplace.sol\":2089:2102  _name = name_ */\n  swap1\n  dup1\n  mload\n  swap1\n  0x20\n  add\n  swap1\n  tag_8\n  swap3\n  swap2\n  swap1\n  tag_9\n  jump\t// in\ntag_8:\n  pop\n    /* \"contracts/marketplace.sol\":2123:2130  symbol_ */\n  dup1\n    /* \"contracts/marketplace.sol\":2113:2120  _symbol */\n  0x02\n    /* \"contracts/marketplace.sol\":2113:2130  _symbol = symbol_ */\n  swap1\n  dup1\n  mload\n  swap1\n  0x20\n  add\n  swap1\n  tag_10\n  swap3\n  swap2\n  swap1\n  tag_9\n  jump\t// in\ntag_10:\n  pop\n    /* \"contracts/marketplace.sol\":2022:2138  constructor(string memory name_, string memory symbol_) {\r... */\n  pop\n  pop\n    /* \"contracts/marketplace.sol\":747:14594  contract marketplace is Context, ERC165, IERC721, IERC721Metadata ,ReentrancyGuard {\r... */\n  jump(tag_11)\ntag_9:\n  dup3\n  dup1\n  sload\n  tag_12\n  swap1\n  tag_13\n  jump\t// in\ntag_12:\n  swap1\n  0x00\n  mstore\n  keccak256(0x00, 0x20)\n  swap1\n  0x1f\n  add\n  0x20\n  swap1\n  div\n  dup2\n  add\n  swap3\n  dup3\n  tag_15\n  jumpi\n  0x00\n  dup6\n  sstore\n  jump(tag_14)\ntag_15:\n  dup3\n  0x1f\n  lt\n  tag_16\n  jumpi\n  dup1\n  mload\n  not(0xff)\n  and\n  dup4\n  dup1\n  add\n  or\n  dup6\n  sstore\n  jump(tag_14)\ntag_16:\n  dup3\n  dup1\n  add\n  0x01\n  add\n  dup6\n  sstore\n  dup3\n  iszero\n  tag_14\n  jumpi\n  swap2\n  dup3\n  add\ntag_17:\n  dup3\n  dup2\n  gt\n  iszero\n  tag_18\n  jumpi\n  dup3\n  mload\n  dup3\n  sstore\n  swap2\n  0x20\n  add\n  swap2\n  swap1\n  0x01\n  add\n  swap1\n  jump(tag_17)\ntag_18:\ntag_14:\n  pop\n  swap1\n  pop\n  tag_19\n  swap2\n  swap1\n  tag_20\n  jump\t// in\ntag_19:\n  pop\n  swap1\n  jump\t// out\ntag_20:\ntag_21:\n  dup1\n  dup3\n  gt\n  iszero\n  tag_22\n  jumpi\n  0x00\n  dup2\n  0x00\n  swap1\n  sstore\n  pop\n  0x01\n  add\n  jump(tag_21)\ntag_22:\n  pop\n  swap1\n  jump\t// out\n    /* \"#utility.yul\":7:361   */\ntag_24:\n    /* \"#utility.yul\":96:101   */\n  0x00\n    /* \"#utility.yul\":121:187   */\n  tag_26\n    /* \"#utility.yul\":137:186   */\n  tag_27\n    /* \"#utility.yul\":179:185   */\n  dup5\n    /* \"#utility.yul\":137:186   */\n  tag_28\n  jump\t// in\ntag_27:\n    /* \"#utility.yul\":121:187   */\n  tag_29\n  jump\t// in\ntag_26:\n    /* \"#utility.yul\":112:187   */\n  swap1\n  pop\n    /* \"#utility.yul\":210:216   */\n  dup3\n    /* \"#utility.yul\":203:208   */\n  dup2\n    /* \"#utility.yul\":196:217   */\n  mstore\n    /* \"#utility.yul\":248:252   */\n  0x20\n    /* \"#utility.yul\":241:246   */\n  dup2\n    /* \"#utility.yul\":237:253   */\n  add\n    /* \"#utility.yul\":286:289   */\n  dup5\n    /* \"#utility.yul\":277:283   */\n  dup5\n    /* \"#utility.yul\":272:275   */\n  dup5\n    /* \"#utility.yul\":268:284   */\n  add\n    /* \"#utility.yul\":265:290   */\n  gt\n    /* \"#utility.yul\":262:264   */\n  iszero\n  tag_30\n  jumpi\n    /* \"#utility.yul\":303:304   */\n  0x00\n    /* \"#utility.yul\":300:301   */\n  dup1\n    /* \"#utility.yul\":293:305   */\n  revert\n    /* \"#utility.yul\":262:264   */\ntag_30:\n    /* \"#utility.yul\":316:355   */\n  tag_31\n    /* \"#utility.yul\":348:354   */\n  dup5\n    /* \"#utility.yul\":343:346   */\n  dup3\n    /* \"#utility.yul\":338:341   */\n  dup6\n    /* \"#utility.yul\":316:355   */\n  tag_32\n  jump\t// in\ntag_31:\n    /* \"#utility.yul\":102:361   */\n  pop\n  swap4\n  swap3\n  pop\n  pop\n  pop\n  jump\t// out\n    /* \"#utility.yul\":381:669   */\ntag_33:\n    /* \"#utility.yul\":448:453   */\n  0x00\n    /* \"#utility.yul\":497:500   */\n  dup3\n    /* \"#utility.yul\":490:494   */\n  0x1f\n    /* \"#utility.yul\":482:488   */\n  dup4\n    /* \"#utility.yul\":478:495   */\n  add\n    /* \"#utility.yul\":474:501   */\n  slt\n    /* \"#utility.yul\":464:466   */\n  tag_35\n  jumpi\n    /* \"#utility.yul\":515:516   */\n  0x00\n    /* \"#utility.yul\":512:513   */\n  dup1\n    /* \"#utility.yul\":505:517   */\n  revert\n    /* \"#utility.yul\":464:466   */\ntag_35:\n    /* \"#utility.yul\":548:554   */\n  dup2\n    /* \"#utility.yul\":542:555   */\n  mload\n    /* \"#utility.yul\":573:663   */\n  tag_36\n    /* \"#utility.yul\":659:662   */\n  dup5\n    /* \"#utility.yul\":651:657   */\n  dup3\n    /* \"#utility.yul\":644:648   */\n  0x20\n    /* \"#utility.yul\":636:642   */\n  dup7\n    /* \"#utility.yul\":632:649   */\n  add\n    /* \"#utility.yul\":573:663   */\n  tag_24\n  jump\t// in\ntag_36:\n    /* \"#utility.yul\":564:663   */\n  swap2\n  pop\n    /* \"#utility.yul\":454:669   */\n  pop\n  swap3\n  swap2\n  pop\n  pop\n  jump\t// out\n    /* \"#utility.yul\":675:1327   */\ntag_3:\n    /* \"#utility.yul\":774:780   */\n  0x00\n    /* \"#utility.yul\":782:788   */\n  dup1\n    /* \"#utility.yul\":831:833   */\n  0x40\n    /* \"#utility.yul\":819:828   */\n  dup4\n    /* \"#utility.yul\":810:817   */\n  dup6\n    /* \"#utility.yul\":806:829   */\n  sub\n    /* \"#utility.yul\":802:834   */\n  slt\n    /* \"#utility.yul\":799:801   */\n  iszero\n  tag_38\n  jumpi\n    /* \"#utility.yul\":847:848   */\n  0x00\n    /* \"#utility.yul\":844:845   */\n  dup1\n    /* \"#utility.yul\":837:849   */\n  revert\n    /* \"#utility.yul\":799:801   */\ntag_38:\n    /* \"#utility.yul\":911:912   */\n  0x00\n    /* \"#utility.yul\":900:909   */\n  dup4\n    /* \"#utility.yul\":896:913   */\n  add\n    /* \"#utility.yul\":890:914   */\n  mload\n    /* \"#utility.yul\":941:959   */\n  0xffffffffffffffff\n    /* \"#utility.yul\":933:939   */\n  dup2\n    /* \"#utility.yul\":930:960   */\n  gt\n    /* \"#utility.yul\":927:929   */\n  iszero\n  tag_39\n  jumpi\n    /* \"#utility.yul\":973:974   */\n  0x00\n    /* \"#utility.yul\":970:971   */\n  dup1\n    /* \"#utility.yul\":963:975   */\n  revert\n    /* \"#utility.yul\":927:929   */\ntag_39:\n    /* \"#utility.yul\":1001:1075   */\n  tag_40\n    /* \"#utility.yul\":1067:1074   */\n  dup6\n    /* \"#utility.yul\":1058:1064   */\n  dup3\n    /* \"#utility.yul\":1047:1056   */\n  dup7\n    /* \"#utility.yul\":1043:1065   */\n  add\n    /* \"#utility.yul\":1001:1075   */\n  tag_33\n  jump\t// in\ntag_40:\n    /* \"#utility.yul\":991:1075   */\n  swap3\n  pop\n    /* \"#utility.yul\":861:1085   */\n  pop\n    /* \"#utility.yul\":1145:1147   */\n  0x20\n    /* \"#utility.yul\":1134:1143   */\n  dup4\n    /* \"#utility.yul\":1130:1148   */\n  add\n    /* \"#utility.yul\":1124:1149   */\n  mload\n    /* \"#utility.yul\":1176:1194   */\n  0xffffffffffffffff\n    /* \"#utility.yul\":1168:1174   */\n  dup2\n    /* \"#utility.yul\":1165:1195   */\n  gt\n    /* \"#utility.yul\":1162:1164   */\n  iszero\n  tag_41\n  jumpi\n    /* \"#utility.yul\":1208:1209   */\n  0x00\n    /* \"#utility.yul\":1205:1206   */\n  dup1\n    /* \"#utility.yul\":1198:1210   */\n  revert\n    /* \"#utility.yul\":1162:1164   */\ntag_41:\n    /* \"#utility.yul\":1236:1310   */\n  tag_42\n    /* \"#utility.yul\":1302:1309   */\n  dup6\n    /* \"#utility.yul\":1293:1299   */\n  dup3\n    /* \"#utility.yul\":1282:1291   */\n  dup7\n    /* \"#utility.yul\":1278:1300   */\n  add\n    /* \"#utility.yul\":1236:1310   */\n  tag_33\n  jump\t// in\ntag_42:\n    /* \"#utility.yul\":1226:1310   */\n  swap2\n  pop\n    /* \"#utility.yul\":1095:1320   */\n  pop\n    /* \"#utility.yul\":789:1327   */\n  swap3\n  pop\n  swap3\n  swap1\n  pop\n  jump\t// out\n    /* \"#utility.yul\":1333:1462   */\ntag_29:\n    /* \"#utility.yul\":1367:1373   */\n  0x00\n    /* \"#utility.yul\":1394:1414   */\n  tag_44\n  tag_45\n  jump\t// in\ntag_44:\n    /* \"#utility.yul\":1384:1414   */\n  swap1\n  pop\n    /* \"#utility.yul\":1423:1456   */\n  tag_46\n    /* \"#utility.yul\":1451:1455   */\n  dup3\n    /* \"#utility.yul\":1443:1449   */\n  dup3\n    /* \"#utility.yul\":1423:1456   */\n  tag_47\n  jump\t// in\ntag_46:\n    /* \"#utility.yul\":1374:1462   */\n  swap2\n  swap1\n  pop\n  jump\t// out\n    /* \"#utility.yul\":1468:1543   */\ntag_45:\n    /* \"#utility.yul\":1501:1507   */\n  0x00\n    /* \"#utility.yul\":1534:1536   */\n  0x40\n    /* \"#utility.yul\":1528:1537   */\n  mload\n    /* \"#utility.yul\":1518:1537   */\n  swap1\n  pop\n    /* \"#utility.yul\":1508:1543   */\n  swap1\n  jump\t// out\n    /* \"#utility.yul\":1549:1857   */\ntag_28:\n    /* \"#utility.yul\":1611:1615   */\n  0x00\n    /* \"#utility.yul\":1701:1719   */\n  0xffffffffffffffff\n    /* \"#utility.yul\":1693:1699   */\n  dup3\n    /* \"#utility.yul\":1690:1720   */\n  gt\n    /* \"#utility.yul\":1687:1689   */\n  iszero\n  tag_50\n  jumpi\n    /* \"#utility.yul\":1723:1741   */\n  tag_51\n  tag_52\n  jump\t// in\ntag_51:\n    /* \"#utility.yul\":1687:1689   */\ntag_50:\n    /* \"#utility.yul\":1761:1790   */\n  tag_53\n    /* \"#utility.yul\":1783:1789   */\n  dup3\n    /* \"#utility.yul\":1761:1790   */\n  tag_54\n  jump\t// in\ntag_53:\n    /* \"#utility.yul\":1753:1790   */\n  swap1\n  pop\n    /* \"#utility.yul\":1845:1849   */\n  0x20\n    /* \"#utility.yul\":1839:1843   */\n  dup2\n    /* \"#utility.yul\":1835:1850   */\n  add\n    /* \"#utility.yul\":1827:1850   */\n  swap1\n  pop\n    /* \"#utility.yul\":1616:1857   */\n  swap2\n  swap1\n  pop\n  jump\t// out\n    /* \"#utility.yul\":1863:2170   */\ntag_32:\n    /* \"#utility.yul\":1931:1932   */\n  0x00\n    /* \"#utility.yul\":1941:2054   */\ntag_56:\n    /* \"#utility.yul\":1955:1961   */\n  dup4\n    /* \"#utility.yul\":1952:1953   */\n  dup2\n    /* \"#utility.yul\":1949:1962   */\n  lt\n    /* \"#utility.yul\":1941:2054   */\n  iszero\n  tag_58\n  jumpi\n    /* \"#utility.yul\":2040:2041   */\n  dup1\n    /* \"#utility.yul\":2035:2038   */\n  dup3\n    /* \"#utility.yul\":2031:2042   */\n  add\n    /* \"#utility.yul\":2025:2043   */\n  mload\n    /* \"#utility.yul\":2021:2022   */\n  dup2\n    /* \"#utility.yul\":2016:2019   */\n  dup5\n    /* \"#utility.yul\":2012:2023   */\n  add\n    /* \"#utility.yul\":2005:2044   */\n  mstore\n    /* \"#utility.yul\":1977:1979   */\n  0x20\n    /* \"#utility.yul\":1974:1975   */\n  dup2\n    /* \"#utility.yul\":1970:1980   */\n  add\n    /* \"#utility.yul\":1965:1980   */\n  swap1\n  pop\n    /* \"#utility.yul\":1941:2054   */\n  jump(tag_56)\ntag_58:\n    /* \"#utility.yul\":2072:2078   */\n  dup4\n    /* \"#utility.yul\":2069:2070   */\n  dup2\n    /* \"#utility.yul\":2066:2079   */\n  gt\n    /* \"#utility.yul\":2063:2065   */\n  iszero\n  tag_59\n  jumpi\n    /* \"#utility.yul\":2152:2153   */\n  0x00\n    /* \"#utility.yul\":2143:2149   */\n  dup5\n    /* \"#utility.yul\":2138:2141   */\n  dup5\n    /* \"#utility.yul\":2134:2150   */\n  add\n    /* \"#utility.yul\":2127:2154   */\n  mstore\n    /* \"#utility.yul\":2063:2065   */\ntag_59:\n    /* \"#utility.yul\":1912:2170   */\n  pop\n  pop\n  pop\n  pop\n  jump\t// out\n    /* \"#utility.yul\":2176:2496   */\ntag_13:\n    /* \"#utility.yul\":2220:2226   */\n  0x00\n    /* \"#utility.yul\":2257:2258   */\n  0x02\n    /* \"#utility.yul\":2251:2255   */\n  dup3\n    /* \"#utility.yul\":2247:2259   */\n  div\n    /* \"#utility.yul\":2237:2259   */\n  swap1\n  pop\n    /* \"#utility.yul\":2304:2305   */\n  0x01\n    /* \"#utility.yul\":2298:2302   */\n  dup3\n    /* \"#utility.yul\":2294:2306   */\n  and\n    /* \"#utility.yul\":2325:2343   */\n  dup1\n    /* \"#utility.yul\":2315:2317   */\n  tag_61\n  jumpi\n    /* \"#utility.yul\":2381:2385   */\n  0x7f\n    /* \"#utility.yul\":2373:2379   */\n  dup3\n    /* \"#utility.yul\":2369:2386   */\n  and\n    /* \"#utility.yul\":2359:2386   */\n  swap2\n  pop\n    /* \"#utility.yul\":2315:2317   */\ntag_61:\n    /* \"#utility.yul\":2443:2445   */\n  0x20\n    /* \"#utility.yul\":2435:2441   */\n  dup3\n    /* \"#utility.yul\":2432:2446   */\n  lt\n    /* \"#utility.yul\":2412:2430   */\n  dup2\n    /* \"#utility.yul\":2409:2447   */\n  eq\n    /* \"#utility.yul\":2406:2408   */\n  iszero\n  tag_62\n  jumpi\n    /* \"#utility.yul\":2462:2480   */\n  tag_63\n  tag_64\n  jump\t// in\ntag_63:\n    /* \"#utility.yul\":2406:2408   */\ntag_62:\n    /* \"#utility.yul\":2227:2496   */\n  pop\n  swap2\n  swap1\n  pop\n  jump\t// out\n    /* \"#utility.yul\":2502:2783   */\ntag_47:\n    /* \"#utility.yul\":2585:2612   */\n  tag_66\n    /* \"#utility.yul\":2607:2611   */\n  dup3\n    /* \"#utility.yul\":2585:2612   */\n  tag_54\n  jump\t// in\ntag_66:\n    /* \"#utility.yul\":2577:2583   */\n  dup2\n    /* \"#utility.yul\":2573:2613   */\n  add\n    /* \"#utility.yul\":2715:2721   */\n  dup2\n    /* \"#utility.yul\":2703:2713   */\n  dup2\n    /* \"#utility.yul\":2700:2722   */\n  lt\n    /* \"#utility.yul\":2679:2697   */\n  0xffffffffffffffff\n    /* \"#utility.yul\":2667:2677   */\n  dup3\n    /* \"#utility.yul\":2664:2698   */\n  gt\n    /* \"#utility.yul\":2661:2723   */\n  or\n    /* \"#utility.yul\":2658:2660   */\n  iszero\n  tag_67\n  jumpi\n    /* \"#utility.yul\":2726:2744   */\n  tag_68\n  tag_52\n  jump\t// in\ntag_68:\n    /* \"#utility.yul\":2658:2660   */\ntag_67:\n    /* \"#utility.yul\":2766:2776   */\n  dup1\n    /* \"#utility.yul\":2762:2764   */\n  0x40\n    /* \"#utility.yul\":2755:2777   */\n  mstore\n    /* \"#utility.yul\":2545:2783   */\n  pop\n  pop\n  pop\n  jump\t// out\n    /* \"#utility.yul\":2789:2969   */\ntag_64:\n    /* \"#utility.yul\":2837:2914   */\n  0x4e487b7100000000000000000000000000000000000000000000000000000000\n    /* \"#utility.yul\":2834:2835   */\n  0x00\n    /* \"#utility.yul\":2827:2915   */\n  mstore\n    /* \"#utility.yul\":2934:2938   */\n  0x22\n    /* \"#utility.yul\":2931:2932   */\n  0x04\n    /* \"#utility.yul\":2924:2939   */\n  mstore\n    /* \"#utility.yul\":2958:2962   */\n  0x24\n    /* \"#utility.yul\":2955:2956   */\n  0x00\n    /* \"#utility.yul\":2948:2963   */\n  revert\n    /* \"#utility.yul\":2975:3155   */\ntag_52:\n    /* \"#utility.yul\":3023:3100   */\n  0x4e487b7100000000000000000000000000000000000000000000000000000000\n    /* \"#utility.yul\":3020:3021   */\n  0x00\n    /* \"#utility.yul\":3013:3101   */\n  mstore\n    /* \"#utility.yul\":3120:3124   */\n  0x41\n    /* \"#utility.yul\":3117:3118   */\n  0x04\n    /* \"#utility.yul\":3110:3125   */\n  mstore\n    /* \"#utility.yul\":3144:3148   */\n  0x24\n    /* \"#utility.yul\":3141:3142   */\n  0x00\n    /* \"#utility.yul\":3134:3149   */\n  revert\n    /* \"#utility.yul\":3161:3263   */\ntag_54:\n    /* \"#utility.yul\":3202:3208   */\n  0x00\n    /* \"#utility.yul\":3253:3255   */\n  0x1f\n    /* \"#utility.yul\":3249:3256   */\n  not\n    /* \"#utility.yul\":3244:3246   */\n  0x1f\n    /* \"#utility.yul\":3237:3242   */\n  dup4\n    /* \"#utility.yul\":3233:3247   */\n  add\n    /* \"#utility.yul\":3229:3257   */\n  and\n    /* \"#utility.yul\":3219:3257   */\n  swap1\n  pop\n    /* \"#utility.yul\":3209:3263   */\n  swap2\n  swap1\n  pop\n  jump\t// out\n    /* \"contracts/marketplace.sol\":747:14594  contract marketplace is Context, ERC165, IERC721, IERC721Metadata ,ReentrancyGuard {\r... */\ntag_11:\n  dataSize(sub_0)\n  dup1\n  dataOffset(sub_0)\n  0x00\n  codecopy\n  0x00\n  return\nstop\n\nsub_0: assembly {\n        /* \"contracts/marketplace.sol\":747:14594  contract marketplace is Context, ERC165, IERC721, IERC721Metadata ,ReentrancyGuard {\r... */\n      mstore(0x40, 0x80)\n      jumpi(tag_1, lt(calldatasize, 0x04))\n      shr(0xe0, calldataload(0x00))\n      dup1\n      0x52e04825\n      gt\n      tag_25\n      jumpi\n      dup1\n      0xb85cbc79\n      gt\n      tag_26\n      jumpi\n      dup1\n      0xb85cbc79\n      eq\n      tag_19\n      jumpi\n      dup1\n      0xb88d4fde\n      eq\n      tag_20\n      jumpi\n      dup1\n      0xb8fe6abe\n      eq\n      tag_21\n      jumpi\n      dup1\n      0xc87b56dd\n      eq\n      tag_22\n      jumpi\n      dup1\n      0xc922b17c\n      eq\n      tag_23\n      jumpi\n      dup1\n      0xe985e9c5\n      eq\n      tag_24\n      jumpi\n      jump(tag_1)\n    tag_26:\n      dup1\n      0x52e04825\n      eq\n      tag_13\n      jumpi\n      dup1\n      0x6352211e\n      eq\n      tag_14\n      jumpi\n      dup1\n      0x70a08231\n      eq\n      tag_15\n      jumpi\n      dup1\n      0x8d6cb3fb\n      eq\n      tag_16\n      jumpi\n      dup1\n      0x95d89b41\n      eq\n      tag_17\n      jumpi\n      dup1\n      0xa22cb465\n      eq\n      tag_18\n      jumpi\n      jump(tag_1)\n    tag_25:\n      dup1\n      0x1f4cc4db\n      gt\n      tag_27\n      jumpi\n      dup1\n      0x1f4cc4db\n      eq\n      tag_7\n      jumpi\n      dup1\n      0x23b872dd\n      eq\n      tag_8\n      jumpi\n      dup1\n      0x2b86ae38\n      eq\n      tag_9\n      jumpi\n      dup1\n      0x34f5b624\n      eq\n      tag_10\n      jumpi\n      dup1\n      0x42842e0e\n      eq\n      tag_11\n      jumpi\n      dup1\n      0x4ddf4f8f\n      eq\n      tag_12\n      jumpi\n      jump(tag_1)\n    tag_27:\n      dup1\n      0x01ffc9a7\n      eq\n      tag_2\n      jumpi\n      dup1\n      0x047b07bf\n      eq\n      tag_3\n      jumpi\n      dup1\n      0x06fdde03\n      eq\n      tag_4\n      jumpi\n      dup1\n      0x081812fc\n      eq\n      tag_5\n      jumpi\n      dup1\n      0x095ea7b3\n      eq\n      tag_6\n      jumpi\n    tag_1:\n      0x00\n      dup1\n      revert\n        /* \"contracts/marketplace.sol\":2148:2453  function supportsInterface(bytes4 interfaceId) public view virtual override(ERC165, IERC165) returns (bool) {\r... */\n    tag_2:\n      callvalue\n      dup1\n      iszero\n      tag_28\n      jumpi\n      0x00\n      dup1\n      revert\n    tag_28:\n      pop\n      tag_29\n      0x04\n      dup1\n      calldatasize\n      sub\n      dup2\n      add\n      swap1\n      tag_30\n      swap2\n      swap1\n      tag_31\n      jump\t// in\n    tag_30:\n      tag_32\n      jump\t// in\n    tag_29:\n      mload(0x40)\n      tag_33\n      swap2\n      swap1\n      tag_34\n      jump\t// in\n    tag_33:\n      mload(0x40)\n      dup1\n      swap2\n      sub\n      swap1\n      return\n        /* \"contracts/marketplace.sol\":13447:13977  function getMyNfts() public view returns (NFT[] memory) {\r... */\n    tag_3:\n      callvalue\n      dup1\n      iszero\n      tag_35\n      jumpi\n      0x00\n      dup1\n      revert\n    tag_35:\n      pop\n      tag_36\n      tag_37\n      jump\t// in\n    tag_36:\n      mload(0x40)\n      tag_38\n      swap2\n      swap1\n      tag_39\n      jump\t// in\n    tag_38:\n      mload(0x40)\n      dup1\n      swap2\n      sub\n      swap1\n      return\n        /* \"contracts/marketplace.sol\":3169:3269  function name() public view virtual override returns (string memory) {\r... */\n    tag_4:\n      callvalue\n      dup1\n      iszero\n      tag_40\n      jumpi\n      0x00\n      dup1\n      revert\n    tag_40:\n      pop\n      tag_41\n      tag_42\n      jump\t// in\n    tag_41:\n      mload(0x40)\n      tag_43\n      swap2\n      swap1\n      tag_44\n      jump\t// in\n    tag_43:\n      mload(0x40)\n      dup1\n      swap2\n      sub\n      swap1\n      return\n        /* \"contracts/marketplace.sol\":4219:4390  function getApproved(uint256 tokenId) public view virtual override returns (address) {\r... */\n    tag_5:\n      callvalue\n      dup1\n      iszero\n      tag_45\n      jumpi\n      0x00\n      dup1\n      revert\n    tag_45:\n      pop\n      tag_46\n      0x04\n      dup1\n      calldatasize\n      sub\n      dup2\n      add\n      swap1\n      tag_47\n      swap2\n      swap1\n      tag_48\n      jump\t// in\n    tag_47:\n      tag_49\n      jump\t// in\n    tag_46:\n      mload(0x40)\n      tag_50\n      swap2\n      swap1\n      tag_51\n      jump\t// in\n    tag_50:\n      mload(0x40)\n      dup1\n      swap2\n      sub\n      swap1\n      return\n        /* \"contracts/marketplace.sol\":3787:4208  function approve(address to, uint256 tokenId) public virtual override {\r... */\n    tag_6:\n      callvalue\n      dup1\n      iszero\n      tag_52\n      jumpi\n      0x00\n      dup1\n      revert\n    tag_52:\n      pop\n      tag_53\n      0x04\n      dup1\n      calldatasize\n      sub\n      dup2\n      add\n      swap1\n      tag_54\n      swap2\n      swap1\n      tag_55\n      jump\t// in\n    tag_54:\n      tag_56\n      jump\t// in\n    tag_53:\n      stop\n        /* \"contracts/marketplace.sol\":13983:14591  function getMyListedNfts() public view returns (NFT[] memory) {\r... */\n    tag_7:\n      callvalue\n      dup1\n      iszero\n      tag_57\n      jumpi\n      0x00\n      dup1\n      revert\n    tag_57:\n      pop\n      tag_58\n      tag_59\n      jump\t// in\n    tag_58:\n      mload(0x40)\n      tag_60\n      swap2\n      swap1\n      tag_39\n      jump\t// in\n    tag_60:\n      mload(0x40)\n      dup1\n      swap2\n      sub\n      swap1\n      return\n        /* \"contracts/marketplace.sol\":4741:5023  function transferFrom(\r... */\n    tag_8:\n      callvalue\n      dup1\n      iszero\n      tag_61\n      jumpi\n      0x00\n      dup1\n      revert\n    tag_61:\n      pop\n      tag_62\n      0x04\n      dup1\n      calldatasize\n      sub\n      dup2\n      add\n      swap1\n      tag_63\n      swap2\n      swap1\n      tag_64\n      jump\t// in\n    tag_63:\n      tag_65\n      jump\t// in\n    tag_62:\n      stop\n        /* \"contracts/marketplace.sol\":1446:1487  uint256 public LISTING_FEE = 0.0001 ether */\n    tag_9:\n      callvalue\n      dup1\n      iszero\n      tag_66\n      jumpi\n      0x00\n      dup1\n      revert\n    tag_66:\n      pop\n      tag_67\n      tag_68\n      jump\t// in\n    tag_67:\n      mload(0x40)\n      tag_69\n      swap2\n      swap1\n      tag_70\n      jump\t// in\n    tag_69:\n      mload(0x40)\n      dup1\n      swap2\n      sub\n      swap1\n      return\n        /* \"contracts/marketplace.sol\":12302:12909  function resellNft(address _nftContract, uint256 _tokenId, uint256 _price) public payable nonReentrant {\r... */\n    tag_10:\n      tag_71\n      0x04\n      dup1\n      calldatasize\n      sub\n      dup2\n      add\n      swap1\n      tag_72\n      swap2\n      swap1\n      tag_73\n      jump\t// in\n    tag_72:\n      tag_74\n      jump\t// in\n    tag_71:\n      stop\n        /* \"contracts/marketplace.sol\":5033:5218  function safeTransferFrom(\r... */\n    tag_11:\n      callvalue\n      dup1\n      iszero\n      tag_75\n      jumpi\n      0x00\n      dup1\n      revert\n    tag_75:\n      pop\n      tag_76\n      0x04\n      dup1\n      calldatasize\n      sub\n      dup2\n      add\n      swap1\n      tag_77\n      swap2\n      swap1\n      tag_64\n      jump\t// in\n    tag_77:\n      tag_78\n      jump\t// in\n    tag_76:\n      stop\n        /* \"contracts/marketplace.sol\":11662:12245  function buyNft(address _nftContract, uint256 _tokenId) public payable nonReentrant {\r... */\n    tag_12:\n      tag_79\n      0x04\n      dup1\n      calldatasize\n      sub\n      dup2\n      add\n      swap1\n      tag_80\n      swap2\n      swap1\n      tag_55\n      jump\t// in\n    tag_80:\n      tag_81\n      jump\t// in\n    tag_79:\n      stop\n        /* \"contracts/marketplace.sol\":2911:3159  function collaboratotOf(uint256 tokenId) public view virtual returns (address) {\r... */\n    tag_13:\n      callvalue\n      dup1\n      iszero\n      tag_82\n      jumpi\n      0x00\n      dup1\n      revert\n    tag_82:\n      pop\n      tag_83\n      0x04\n      dup1\n      calldatasize\n      sub\n      dup2\n      add\n      swap1\n      tag_84\n      swap2\n      swap1\n      tag_48\n      jump\t// in\n    tag_84:\n      tag_85\n      jump\t// in\n    tag_83:\n      mload(0x40)\n      tag_86\n      swap2\n      swap1\n      tag_51\n      jump\t// in\n    tag_86:\n      mload(0x40)\n      dup1\n      swap2\n      sub\n      swap1\n      return\n        /* \"contracts/marketplace.sol\":2680:2902  function ownerOf(uint256 tokenId) public view virtual override returns (address) {\r... */\n    tag_14:\n      callvalue\n      dup1\n      iszero\n      tag_87\n      jumpi\n      0x00\n      dup1\n      revert\n    tag_87:\n      pop\n      tag_88\n      0x04\n      dup1\n      calldatasize\n      sub\n      dup2\n      add\n      swap1\n      tag_89\n      swap2\n      swap1\n      tag_48\n      jump\t// in\n    tag_89:\n      tag_90\n      jump\t// in\n    tag_88:\n      mload(0x40)\n      tag_91\n      swap2\n      swap1\n      tag_51\n      jump\t// in\n    tag_91:\n      mload(0x40)\n      dup1\n      swap2\n      sub\n      swap1\n      return\n        /* \"contracts/marketplace.sol\":2463:2670  function balanceOf(address owner) public view virtual override returns (uint256) {\r... */\n    tag_15:\n      callvalue\n      dup1\n      iszero\n      tag_92\n      jumpi\n      0x00\n      dup1\n      revert\n    tag_92:\n      pop\n      tag_93\n      0x04\n      dup1\n      calldatasize\n      sub\n      dup2\n      add\n      swap1\n      tag_94\n      swap2\n      swap1\n      tag_95\n      jump\t// in\n    tag_94:\n      tag_96\n      jump\t// in\n    tag_93:\n      mload(0x40)\n      tag_97\n      swap2\n      swap1\n      tag_70\n      jump\t// in\n    tag_97:\n      mload(0x40)\n      dup1\n      swap2\n      sub\n      swap1\n      return\n        /* \"contracts/marketplace.sol\":13007:13441  function getListedNfts() public view returns (NFT[] memory) {\r... */\n    tag_16:\n      callvalue\n      dup1\n      iszero\n      tag_98\n      jumpi\n      0x00\n      dup1\n      revert\n    tag_98:\n      pop\n      tag_99\n      tag_100\n      jump\t// in\n    tag_99:\n      mload(0x40)\n      tag_101\n      swap2\n      swap1\n      tag_39\n      jump\t// in\n    tag_101:\n      mload(0x40)\n      dup1\n      swap2\n      sub\n      swap1\n      return\n        /* \"contracts/marketplace.sol\":3280:3384  function symbol() public view virtual override returns (string memory) {\r... */\n    tag_17:\n      callvalue\n      dup1\n      iszero\n      tag_102\n      jumpi\n      0x00\n      dup1\n      revert\n    tag_102:\n      pop\n      tag_103\n      tag_104\n      jump\t// in\n    tag_103:\n      mload(0x40)\n      tag_105\n      swap2\n      swap1\n      tag_44\n      jump\t// in\n    tag_105:\n      mload(0x40)\n      dup1\n      swap2\n      sub\n      swap1\n      return\n        /* \"contracts/marketplace.sol\":4402:4557  function setApprovalForAll(address operator, bool approved) public virtual override {\r... */\n    tag_18:\n      callvalue\n      dup1\n      iszero\n      tag_106\n      jumpi\n      0x00\n      dup1\n      revert\n    tag_106:\n      pop\n      tag_107\n      0x04\n      dup1\n      calldatasize\n      sub\n      dup2\n      add\n      swap1\n      tag_108\n      swap2\n      swap1\n      tag_109\n      jump\t// in\n    tag_108:\n      tag_110\n      jump\t// in\n    tag_107:\n      stop\n        /* \"contracts/marketplace.sol\":5559:5736  function mint(address to,address collaborator,uint tokenId,string memory uri) public{\r... */\n    tag_19:\n      callvalue\n      dup1\n      iszero\n      tag_111\n      jumpi\n      0x00\n      dup1\n      revert\n    tag_111:\n      pop\n      tag_112\n      0x04\n      dup1\n      calldatasize\n      sub\n      dup2\n      add\n      swap1\n      tag_113\n      swap2\n      swap1\n      tag_114\n      jump\t// in\n    tag_113:\n      tag_115\n      jump\t// in\n    tag_112:\n      stop\n        /* \"contracts/marketplace.sol\":5228:5550  function safeTransferFrom(\r... */\n    tag_20:\n      callvalue\n      dup1\n      iszero\n      tag_116\n      jumpi\n      0x00\n      dup1\n      revert\n    tag_116:\n      pop\n      tag_117\n      0x04\n      dup1\n      calldatasize\n      sub\n      dup2\n      add\n      swap1\n      tag_118\n      swap2\n      swap1\n      tag_119\n      jump\t// in\n    tag_118:\n      tag_120\n      jump\t// in\n    tag_117:\n      stop\n        /* \"contracts/marketplace.sol\":12915:13001  function getListingFee() public view returns (uint256) {\r... */\n    tag_21:\n      callvalue\n      dup1\n      iszero\n      tag_121\n      jumpi\n      0x00\n      dup1\n      revert\n    tag_121:\n      pop\n      tag_122\n      tag_123\n      jump\t// in\n    tag_122:\n      mload(0x40)\n      tag_124\n      swap2\n      swap1\n      tag_70\n      jump\t// in\n    tag_124:\n      mload(0x40)\n      dup1\n      swap2\n      sub\n      swap1\n      return\n        /* \"contracts/marketplace.sol\":3392:3673  function tokenURI(uint256 tokenId) public view virtual override returns (string memory) {\r... */\n    tag_22:\n      callvalue\n      dup1\n      iszero\n      tag_125\n      jumpi\n      0x00\n      dup1\n      revert\n    tag_125:\n      pop\n      tag_126\n      0x04\n      dup1\n      calldatasize\n      sub\n      dup2\n      add\n      swap1\n      tag_127\n      swap2\n      swap1\n      tag_48\n      jump\t// in\n    tag_127:\n      tag_128\n      jump\t// in\n    tag_126:\n      mload(0x40)\n      tag_129\n      swap2\n      swap1\n      tag_44\n      jump\t// in\n    tag_129:\n      mload(0x40)\n      dup1\n      swap2\n      sub\n      swap1\n      return\n        /* \"contracts/marketplace.sol\":11040:11639  function listNft(address _nftContract, uint256 _tokenId, uint256 _price) public payable nonReentrant {\r... */\n    tag_23:\n      tag_130\n      0x04\n      dup1\n      calldatasize\n      sub\n      dup2\n      add\n      swap1\n      tag_131\n      swap2\n      swap1\n      tag_73\n      jump\t// in\n    tag_131:\n      tag_132\n      jump\t// in\n    tag_130:\n      stop\n        /* \"contracts/marketplace.sol\":4567:4731  function isApprovedForAll(address owner, address operator) public view virtual override returns (bool) {\r... */\n    tag_24:\n      callvalue\n      dup1\n      iszero\n      tag_133\n      jumpi\n      0x00\n      dup1\n      revert\n    tag_133:\n      pop\n      tag_134\n      0x04\n      dup1\n      calldatasize\n      sub\n      dup2\n      add\n      swap1\n      tag_135\n      swap2\n      swap1\n      tag_136\n      jump\t// in\n    tag_135:\n      tag_137\n      jump\t// in\n    tag_134:\n      mload(0x40)\n      tag_138\n      swap2\n      swap1\n      tag_34\n      jump\t// in\n    tag_138:\n      mload(0x40)\n      dup1\n      swap2\n      sub\n      swap1\n      return\n        /* \"contracts/marketplace.sol\":2148:2453  function supportsInterface(bytes4 interfaceId) public view virtual override(ERC165, IERC165) returns (bool) {\r... */\n    tag_32:\n        /* \"contracts/marketplace.sol\":2250:2254  bool */\n      0x00\n        /* \"contracts/marketplace.sol\":2302:2327  type(IERC721).interfaceId */\n      0x80ac58cd00000000000000000000000000000000000000000000000000000000\n        /* \"contracts/marketplace.sol\":2287:2327  interfaceId == type(IERC721).interfaceId */\n      not(0xffffffffffffffffffffffffffffffffffffffffffffffffffffffff)\n      and\n        /* \"contracts/marketplace.sol\":2287:2298  interfaceId */\n      dup3\n        /* \"contracts/marketplace.sol\":2287:2327  interfaceId == type(IERC721).interfaceId */\n      not(0xffffffffffffffffffffffffffffffffffffffffffffffffffffffff)\n      and\n      eq\n        /* \"contracts/marketplace.sol\":2287:2392  interfaceId == type(IERC721).interfaceId ||\r... */\n      dup1\n      tag_140\n      jumpi\n      pop\n        /* \"contracts/marketplace.sol\":2359:2392  type(IERC721Metadata).interfaceId */\n      0x5b5e139f00000000000000000000000000000000000000000000000000000000\n        /* \"contracts/marketplace.sol\":2344:2392  interfaceId == type(IERC721Metadata).interfaceId */\n      not(0xffffffffffffffffffffffffffffffffffffffffffffffffffffffff)\n      and\n        /* \"contracts/marketplace.sol\":2344:2355  interfaceId */\n      dup3\n        /* \"contracts/marketplace.sol\":2344:2392  interfaceId == type(IERC721Metadata).interfaceId */\n      not(0xffffffffffffffffffffffffffffffffffffffffffffffffffffffff)\n      and\n      eq\n        /* \"contracts/marketplace.sol\":2287:2392  interfaceId == type(IERC721).interfaceId ||\r... */\n    tag_140:\n        /* \"contracts/marketplace.sol\":2287:2445  interfaceId == type(IERC721).interfaceId ||\r... */\n      dup1\n      tag_141\n      jumpi\n      pop\n        /* \"contracts/marketplace.sol\":2409:2445  super.supportsInterface(interfaceId) */\n      tag_142\n        /* \"contracts/marketplace.sol\":2433:2444  interfaceId */\n      dup3\n        /* \"contracts/marketplace.sol\":2409:2432  super.supportsInterface */\n      tag_143\n        /* \"contracts/marketplace.sol\":2409:2445  super.supportsInterface(interfaceId) */\n      jump\t// in\n    tag_142:\n        /* \"contracts/marketplace.sol\":2287:2445  interfaceId == type(IERC721).interfaceId ||\r... */\n    tag_141:\n        /* \"contracts/marketplace.sol\":2267:2445  return\r... */\n      swap1\n      pop\n        /* \"contracts/marketplace.sol\":2148:2453  function supportsInterface(bytes4 interfaceId) public view virtual override(ERC165, IERC165) returns (bool) {\r... */\n      swap2\n      swap1\n      pop\n      jump\t// out\n        /* \"contracts/marketplace.sol\":13447:13977  function getMyNfts() public view returns (NFT[] memory) {\r... */\n    tag_37:\n        /* \"contracts/marketplace.sol\":13489:13501  NFT[] memory */\n      0x60\n        /* \"contracts/marketplace.sol\":13510:13523  uint nftCount */\n      0x00\n        /* \"contracts/marketplace.sol\":13526:13545  _nftCount.current() */\n      tag_145\n        /* \"contracts/marketplace.sol\":13526:13535  _nftCount */\n      0x0a\n        /* \"contracts/marketplace.sol\":13526:13543  _nftCount.current */\n      tag_146\n        /* \"contracts/marketplace.sol\":13526:13545  _nftCount.current() */\n      jump\t// in\n    tag_145:\n        /* \"contracts/marketplace.sol\":13510:13545  uint nftCount = _nftCount.current() */\n      swap1\n      pop\n        /* \"contracts/marketplace.sol\":13552:13567  uint myNftCount */\n      0x00\n        /* \"contracts/marketplace.sol\":13583:13589  uint i */\n      dup1\n        /* \"contracts/marketplace.sol\":13578:13704  for (uint i = 0; i < nftCount; i++) {\r... */\n    tag_147:\n        /* \"contracts/marketplace.sol\":13599:13607  nftCount */\n      dup3\n        /* \"contracts/marketplace.sol\":13595:13596  i */\n      dup2\n        /* \"contracts/marketplace.sol\":13595:13607  i < nftCount */\n      lt\n        /* \"contracts/marketplace.sol\":13578:13704  for (uint i = 0; i < nftCount; i++) {\r... */\n      iszero\n      tag_148\n      jumpi\n        /* \"contracts/marketplace.sol\":13652:13662  msg.sender */\n      caller\n        /* \"contracts/marketplace.sol\":13627:13662  _idToNFT[i + 1].owner == msg.sender */\n      0xffffffffffffffffffffffffffffffffffffffff\n      and\n        /* \"contracts/marketplace.sol\":13627:13635  _idToNFT */\n      0x0d\n        /* \"contracts/marketplace.sol\":13627:13642  _idToNFT[i + 1] */\n      0x00\n        /* \"contracts/marketplace.sol\":13640:13641  1 */\n      0x01\n        /* \"contracts/marketplace.sol\":13636:13637  i */\n      dup5\n        /* \"contracts/marketplace.sol\":13636:13641  i + 1 */\n      tag_150\n      swap2\n      swap1\n      tag_151\n      jump\t// in\n    tag_150:\n        /* \"contracts/marketplace.sol\":13627:13642  _idToNFT[i + 1] */\n      dup2\n      mstore\n      0x20\n      add\n      swap1\n      dup2\n      mstore\n      0x20\n      add\n      0x00\n      keccak256\n        /* \"contracts/marketplace.sol\":13627:13648  _idToNFT[i + 1].owner */\n      0x03\n      add\n      0x00\n      swap1\n      sload\n      swap1\n      0x0100\n      exp\n      swap1\n      div\n      0xffffffffffffffffffffffffffffffffffffffff\n      and\n        /* \"contracts/marketplace.sol\":13627:13662  _idToNFT[i + 1].owner == msg.sender */\n      0xffffffffffffffffffffffffffffffffffffffff\n      and\n      eq\n        /* \"contracts/marketplace.sol\":13623:13697  if (_idToNFT[i + 1].owner == msg.sender) {\r... */\n      iszero\n      tag_152\n      jumpi\n        /* \"contracts/marketplace.sol\":13675:13687  myNftCount++ */\n      dup2\n      dup1\n      tag_153\n      swap1\n      tag_154\n      jump\t// in\n    tag_153:\n      swap3\n      pop\n      pop\n        /* \"contracts/marketplace.sol\":13623:13697  if (_idToNFT[i + 1].owner == msg.sender) {\r... */\n    tag_152:\n        /* \"contracts/marketplace.sol\":13609:13612  i++ */\n      dup1\n      dup1\n      tag_155\n      swap1\n      tag_154\n      jump\t// in\n    tag_155:\n      swap2\n      pop\n      pop\n        /* \"contracts/marketplace.sol\":13578:13704  for (uint i = 0; i < nftCount; i++) {\r... */\n      jump(tag_147)\n    tag_148:\n      pop\n        /* \"contracts/marketplace.sol\":13712:13729  NFT[] memory nfts */\n      0x00\n        /* \"contracts/marketplace.sol\":13742:13752  myNftCount */\n      dup2\n        /* \"contracts/marketplace.sol\":13732:13753  new NFT[](myNftCount) */\n      0xffffffffffffffff\n      dup2\n      gt\n      iszero\n      tag_156\n      jumpi\n      mstore(0x00, 0x4e487b7100000000000000000000000000000000000000000000000000000000)\n      mstore(0x04, 0x41)\n      revert(0x00, 0x24)\n    tag_156:\n      mload(0x40)\n      swap1\n      dup1\n      dup3\n      mstore\n      dup1\n      0x20\n      mul\n      0x20\n      add\n      dup3\n      add\n      0x40\n      mstore\n      dup1\n      iszero\n      tag_157\n      jumpi\n      dup2\n      0x20\n      add\n    tag_158:\n      tag_159\n      tag_160\n      jump\t// in\n    tag_159:\n      dup2\n      mstore\n      0x20\n      add\n      swap1\n      0x01\n      swap1\n      sub\n      swap1\n      dup2\n      tag_158\n      jumpi\n      swap1\n      pop\n    tag_157:\n      pop\n        /* \"contracts/marketplace.sol\":13712:13753  NFT[] memory nfts = new NFT[](myNftCount) */\n      swap1\n      pop\n        /* \"contracts/marketplace.sol\":13760:13774  uint nftsIndex */\n      0x00\n        /* \"contracts/marketplace.sol\":13790:13796  uint i */\n      dup1\n        /* \"contracts/marketplace.sol\":13785:13954  for (uint i = 0; i < nftCount; i++) {\r... */\n    tag_161:\n        /* \"contracts/marketplace.sol\":13806:13814  nftCount */\n      dup5\n        /* \"contracts/marketplace.sol\":13802:13803  i */\n      dup2\n        /* \"contracts/marketplace.sol\":13802:13814  i < nftCount */\n      lt\n        /* \"contracts/marketplace.sol\":13785:13954  for (uint i = 0; i < nftCount; i++) {\r... */\n      iszero\n      tag_162\n      jumpi\n        /* \"contracts/marketplace.sol\":13859:13869  msg.sender */\n      caller\n        /* \"contracts/marketplace.sol\":13834:13869  _idToNFT[i + 1].owner == msg.sender */\n      0xffffffffffffffffffffffffffffffffffffffff\n      and\n        /* \"contracts/marketplace.sol\":13834:13842  _idToNFT */\n      0x0d\n        /* \"contracts/marketplace.sol\":13834:13849  _idToNFT[i + 1] */\n      0x00\n        /* \"contracts/marketplace.sol\":13847:13848  1 */\n      0x01\n        /* \"contracts/marketplace.sol\":13843:13844  i */\n      dup5\n        /* \"contracts/marketplace.sol\":13843:13848  i + 1 */\n      tag_164\n      swap2\n      swap1\n      tag_151\n      jump\t// in\n    tag_164:\n        /* \"contracts/marketplace.sol\":13834:13849  _idToNFT[i + 1] */\n      dup2\n      mstore\n      0x20\n      add\n      swap1\n      dup2\n      mstore\n      0x20\n      add\n      0x00\n      keccak256\n        /* \"contracts/marketplace.sol\":13834:13855  _idToNFT[i + 1].owner */\n      0x03\n      add\n      0x00\n      swap1\n      sload\n      swap1\n      0x0100\n      exp\n      swap1\n      div\n      0xffffffffffffffffffffffffffffffffffffffff\n      and\n        /* \"contracts/marketplace.sol\":13834:13869  _idToNFT[i + 1].owner == msg.sender */\n      0xffffffffffffffffffffffffffffffffffffffff\n      and\n      eq\n        /* \"contracts/marketplace.sol\":13830:13947  if (_idToNFT[i + 1].owner == msg.sender) {\r... */\n      iszero\n      tag_165\n      jumpi\n        /* \"contracts/marketplace.sol\":13900:13908  _idToNFT */\n      0x0d\n        /* \"contracts/marketplace.sol\":13900:13915  _idToNFT[i + 1] */\n      0x00\n        /* \"contracts/marketplace.sol\":13913:13914  1 */\n      0x01\n        /* \"contracts/marketplace.sol\":13909:13910  i */\n      dup4\n        /* \"contracts/marketplace.sol\":13909:13914  i + 1 */\n      tag_166\n      swap2\n      swap1\n      tag_151\n      jump\t// in\n    tag_166:\n        /* \"contracts/marketplace.sol\":13900:13915  _idToNFT[i + 1] */\n      dup2\n      mstore\n      0x20\n      add\n      swap1\n      dup2\n      mstore\n      0x20\n      add\n      0x00\n      keccak256\n        /* \"contracts/marketplace.sol\":13882:13915  nfts[nftsIndex] = _idToNFT[i + 1] */\n      mload(0x40)\n      dup1\n      0xc0\n      add\n      0x40\n      mstore\n      swap1\n      dup2\n      0x00\n      dup3\n      add\n      0x00\n      swap1\n      sload\n      swap1\n      0x0100\n      exp\n      swap1\n      div\n      0xffffffffffffffffffffffffffffffffffffffff\n      and\n      0xffffffffffffffffffffffffffffffffffffffff\n      and\n      0xffffffffffffffffffffffffffffffffffffffff\n      and\n      dup2\n      mstore\n      0x20\n      add\n      0x01\n      dup3\n      add\n      sload\n      dup2\n      mstore\n      0x20\n      add\n      0x02\n      dup3\n      add\n      0x00\n      swap1\n      sload\n      swap1\n      0x0100\n      exp\n      swap1\n      div\n      0xffffffffffffffffffffffffffffffffffffffff\n      and\n      0xffffffffffffffffffffffffffffffffffffffff\n      and\n      0xffffffffffffffffffffffffffffffffffffffff\n      and\n      dup2\n      mstore\n      0x20\n      add\n      0x03\n      dup3\n      add\n      0x00\n      swap1\n      sload\n      swap1\n      0x0100\n      exp\n      swap1\n      div\n      0xffffffffffffffffffffffffffffffffffffffff\n      and\n      0xffffffffffffffffffffffffffffffffffffffff\n      and\n      0xffffffffffffffffffffffffffffffffffffffff\n      and\n      dup2\n      mstore\n      0x20\n      add\n      0x04\n      dup3\n      add\n      sload\n      dup2\n      mstore\n      0x20\n      add\n      0x05\n      dup3\n      add\n      0x00\n      swap1\n      sload\n      swap1\n      0x0100\n      exp\n      swap1\n      div\n      0xff\n      and\n      iszero\n      iszero\n      iszero\n      iszero\n      dup2\n      mstore\n      pop\n      pop\n        /* \"contracts/marketplace.sol\":13882:13886  nfts */\n      dup4\n        /* \"contracts/marketplace.sol\":13887:13896  nftsIndex */\n      dup4\n        /* \"contracts/marketplace.sol\":13882:13897  nfts[nftsIndex] */\n      dup2\n      mload\n      dup2\n      lt\n      tag_167\n      jumpi\n      mstore(0x00, 0x4e487b7100000000000000000000000000000000000000000000000000000000)\n      mstore(0x04, 0x32)\n      revert(0x00, 0x24)\n    tag_167:\n      0x20\n      mul\n      0x20\n      add\n      add\n        /* \"contracts/marketplace.sol\":13882:13915  nfts[nftsIndex] = _idToNFT[i + 1] */\n      dup2\n      swap1\n      mstore\n      pop\n        /* \"contracts/marketplace.sol\":13926:13937  nftsIndex++ */\n      dup2\n      dup1\n      tag_168\n      swap1\n      tag_154\n      jump\t// in\n    tag_168:\n      swap3\n      pop\n      pop\n        /* \"contracts/marketplace.sol\":13830:13947  if (_idToNFT[i + 1].owner == msg.sender) {\r... */\n    tag_165:\n        /* \"contracts/marketplace.sol\":13816:13819  i++ */\n      dup1\n      dup1\n      tag_169\n      swap1\n      tag_154\n      jump\t// in\n    tag_169:\n      swap2\n      pop\n      pop\n        /* \"contracts/marketplace.sol\":13785:13954  for (uint i = 0; i < nftCount; i++) {\r... */\n      jump(tag_161)\n    tag_162:\n      pop\n        /* \"contracts/marketplace.sol\":13967:13971  nfts */\n      dup2\n        /* \"contracts/marketplace.sol\":13960:13971  return nfts */\n      swap5\n      pop\n      pop\n      pop\n      pop\n      pop\n        /* \"contracts/marketplace.sol\":13447:13977  function getMyNfts() public view returns (NFT[] memory) {\r... */\n      swap1\n      jump\t// out\n        /* \"contracts/marketplace.sol\":3169:3269  function name() public view virtual override returns (string memory) {\r... */\n    tag_42:\n        /* \"contracts/marketplace.sol\":3223:3236  string memory */\n      0x60\n        /* \"contracts/marketplace.sol\":3256:3261  _name */\n      0x01\n        /* \"contracts/marketplace.sol\":3249:3261  return _name */\n      dup1\n      sload\n      tag_171\n      swap1\n      tag_172\n      jump\t// in\n    tag_171:\n      dup1\n      0x1f\n      add\n      0x20\n      dup1\n      swap2\n      div\n      mul\n      0x20\n      add\n      mload(0x40)\n      swap1\n      dup2\n      add\n      0x40\n      mstore\n      dup1\n      swap3\n      swap2\n      swap1\n      dup2\n      dup2\n      mstore\n      0x20\n      add\n      dup3\n      dup1\n      sload\n      tag_173\n      swap1\n      tag_172\n      jump\t// in\n    tag_173:\n      dup1\n      iszero\n      tag_174\n      jumpi\n      dup1\n      0x1f\n      lt\n      tag_175\n      jumpi\n      0x0100\n      dup1\n      dup4\n      sload\n      div\n      mul\n      dup4\n      mstore\n      swap2\n      0x20\n      add\n      swap2\n      jump(tag_174)\n    tag_175:\n      dup3\n      add\n      swap2\n      swap1\n      0x00\n      mstore\n      keccak256(0x00, 0x20)\n      swap1\n    tag_176:\n      dup2\n      sload\n      dup2\n      mstore\n      swap1\n      0x01\n      add\n      swap1\n      0x20\n      add\n      dup1\n      dup4\n      gt\n      tag_176\n      jumpi\n      dup3\n      swap1\n      sub\n      0x1f\n      and\n      dup3\n      add\n      swap2\n    tag_174:\n      pop\n      pop\n      pop\n      pop\n      pop\n      swap1\n      pop\n        /* \"contracts/marketplace.sol\":3169:3269  function name() public view virtual override returns (string memory) {\r... */\n      swap1\n      jump\t// out\n        /* \"contracts/marketplace.sol\":4219:4390  function getApproved(uint256 tokenId) public view virtual override returns (address) {\r... */\n    tag_49:\n        /* \"contracts/marketplace.sol\":4295:4302  address */\n      0x00\n        /* \"contracts/marketplace.sol\":4315:4338  _requireMinted(tokenId) */\n      tag_178\n        /* \"contracts/marketplace.sol\":4330:4337  tokenId */\n      dup3\n        /* \"contracts/marketplace.sol\":4315:4329  _requireMinted */\n      tag_179\n        /* \"contracts/marketplace.sol\":4315:4338  _requireMinted(tokenId) */\n      jump\t// in\n    tag_178:\n        /* \"contracts/marketplace.sol\":4358:4373  _tokenApprovals */\n      0x06\n        /* \"contracts/marketplace.sol\":4358:4382  _tokenApprovals[tokenId] */\n      0x00\n        /* \"contracts/marketplace.sol\":4374:4381  tokenId */\n      dup4\n        /* \"contracts/marketplace.sol\":4358:4382  _tokenApprovals[tokenId] */\n      dup2\n      mstore\n      0x20\n      add\n      swap1\n      dup2\n      mstore\n      0x20\n      add\n      0x00\n      keccak256\n      0x00\n      swap1\n      sload\n      swap1\n      0x0100\n      exp\n      swap1\n      div\n      0xffffffffffffffffffffffffffffffffffffffff\n      and\n        /* \"contracts/marketplace.sol\":4351:4382  return _tokenApprovals[tokenId] */\n      swap1\n      pop\n        /* \"contracts/marketplace.sol\":4219:4390  function getApproved(uint256 tokenId) public view virtual override returns (address) {\r... */\n      swap2\n      swap1\n      pop\n      jump\t// out\n        /* \"contracts/marketplace.sol\":3787:4208  function approve(address to, uint256 tokenId) public virtual override {\r... */\n    tag_56:\n        /* \"contracts/marketplace.sol\":3868:3881  address owner */\n      0x00\n        /* \"contracts/marketplace.sol\":3884:3912  marketplace.ownerOf(tokenId) */\n      tag_181\n        /* \"contracts/marketplace.sol\":3904:3911  tokenId */\n      dup3\n        /* \"contracts/marketplace.sol\":3884:3903  marketplace.ownerOf */\n      tag_90\n        /* \"contracts/marketplace.sol\":3884:3912  marketplace.ownerOf(tokenId) */\n      jump\t// in\n    tag_181:\n        /* \"contracts/marketplace.sol\":3868:3912  address owner = marketplace.ownerOf(tokenId) */\n      swap1\n      pop\n        /* \"contracts/marketplace.sol\":3937:3942  owner */\n      dup1\n        /* \"contracts/marketplace.sol\":3931:3942  to != owner */\n      0xffffffffffffffffffffffffffffffffffffffff\n      and\n        /* \"contracts/marketplace.sol\":3931:3933  to */\n      dup4\n        /* \"contracts/marketplace.sol\":3931:3942  to != owner */\n      0xffffffffffffffffffffffffffffffffffffffff\n      and\n      eq\n      iszero\n        /* \"contracts/marketplace.sol\":3923:3980  require(to != owner, \"ERC721: approval to current owner\") */\n      tag_182\n      jumpi\n      mload(0x40)\n      0x08c379a000000000000000000000000000000000000000000000000000000000\n      dup2\n      mstore\n      0x04\n      add\n      tag_183\n      swap1\n      tag_184\n      jump\t// in\n    tag_183:\n      mload(0x40)\n      dup1\n      swap2\n      sub\n      swap1\n      revert\n    tag_182:\n        /* \"contracts/marketplace.sol\":4031:4036  owner */\n      dup1\n        /* \"contracts/marketplace.sol\":4015:4036  _msgSender() == owner */\n      0xffffffffffffffffffffffffffffffffffffffff\n      and\n        /* \"contracts/marketplace.sol\":4015:4027  _msgSender() */\n      tag_185\n        /* \"contracts/marketplace.sol\":4015:4025  _msgSender */\n      tag_186\n        /* \"contracts/marketplace.sol\":4015:4027  _msgSender() */\n      jump\t// in\n    tag_185:\n        /* \"contracts/marketplace.sol\":4015:4036  _msgSender() == owner */\n      0xffffffffffffffffffffffffffffffffffffffff\n      and\n      eq\n        /* \"contracts/marketplace.sol\":4015:4077  _msgSender() == owner || isApprovedForAll(owner, _msgSender()) */\n      dup1\n      tag_187\n      jumpi\n      pop\n        /* \"contracts/marketplace.sol\":4040:4077  isApprovedForAll(owner, _msgSender()) */\n      tag_188\n        /* \"contracts/marketplace.sol\":4057:4062  owner */\n      dup2\n        /* \"contracts/marketplace.sol\":4064:4076  _msgSender() */\n      tag_189\n        /* \"contracts/marketplace.sol\":4064:4074  _msgSender */\n      tag_186\n        /* \"contracts/marketplace.sol\":4064:4076  _msgSender() */\n      jump\t// in\n    tag_189:\n        /* \"contracts/marketplace.sol\":4040:4056  isApprovedForAll */\n      tag_137\n        /* \"contracts/marketplace.sol\":4040:4077  isApprovedForAll(owner, _msgSender()) */\n      jump\t// in\n    tag_188:\n        /* \"contracts/marketplace.sol\":4015:4077  _msgSender() == owner || isApprovedForAll(owner, _msgSender()) */\n    tag_187:\n        /* \"contracts/marketplace.sol\":3993:4166  require(\r... */\n      tag_190\n      jumpi\n      mload(0x40)\n      0x08c379a000000000000000000000000000000000000000000000000000000000\n      dup2\n      mstore\n      0x04\n      add\n      tag_191\n      swap1\n      tag_192\n      jump\t// in\n    tag_191:\n      mload(0x40)\n      dup1\n      swap2\n      sub\n      swap1\n      revert\n    tag_190:\n        /* \"contracts/marketplace.sol\":4179:4200  _approve(to, tokenId) */\n      tag_193\n        /* \"contracts/marketplace.sol\":4188:4190  to */\n      dup4\n        /* \"contracts/marketplace.sol\":4192:4199  tokenId */\n      dup4\n        /* \"contracts/marketplace.sol\":4179:4187  _approve */\n      tag_194\n        /* \"contracts/marketplace.sol\":4179:4200  _approve(to, tokenId) */\n      jump\t// in\n    tag_193:\n        /* \"contracts/marketplace.sol\":3787:4208  function approve(address to, uint256 tokenId) public virtual override {\r... */\n      pop\n      pop\n      pop\n      jump\t// out\n        /* \"contracts/marketplace.sol\":13983:14591  function getMyListedNfts() public view returns (NFT[] memory) {\r... */\n    tag_59:\n        /* \"contracts/marketplace.sol\":14031:14043  NFT[] memory */\n      0x60\n        /* \"contracts/marketplace.sol\":14052:14065  uint nftCount */\n      0x00\n        /* \"contracts/marketplace.sol\":14068:14087  _nftCount.current() */\n      tag_196\n        /* \"contracts/marketplace.sol\":14068:14077  _nftCount */\n      0x0a\n        /* \"contracts/marketplace.sol\":14068:14085  _nftCount.current */\n      tag_146\n        /* \"contracts/marketplace.sol\":14068:14087  _nftCount.current() */\n      jump\t// in\n    tag_196:\n        /* \"contracts/marketplace.sol\":14052:14087  uint nftCount = _nftCount.current() */\n      swap1\n      pop\n        /* \"contracts/marketplace.sol\":14094:14115  uint myListedNftCount */\n      0x00\n        /* \"contracts/marketplace.sol\":14131:14137  uint i */\n      dup1\n        /* \"contracts/marketplace.sol\":14126:14285  for (uint i = 0; i < nftCount; i++) {\r... */\n    tag_197:\n        /* \"contracts/marketplace.sol\":14147:14155  nftCount */\n      dup3\n        /* \"contracts/marketplace.sol\":14143:14144  i */\n      dup2\n        /* \"contracts/marketplace.sol\":14143:14155  i < nftCount */\n      lt\n        /* \"contracts/marketplace.sol\":14126:14285  for (uint i = 0; i < nftCount; i++) {\r... */\n      iszero\n      tag_198\n      jumpi\n        /* \"contracts/marketplace.sol\":14201:14211  msg.sender */\n      caller\n        /* \"contracts/marketplace.sol\":14175:14211  _idToNFT[i + 1].seller == msg.sender */\n      0xffffffffffffffffffffffffffffffffffffffff\n      and\n        /* \"contracts/marketplace.sol\":14175:14183  _idToNFT */\n      0x0d\n        /* \"contracts/marketplace.sol\":14175:14190  _idToNFT[i + 1] */\n      0x00\n        /* \"contracts/marketplace.sol\":14188:14189  1 */\n      0x01\n        /* \"contracts/marketplace.sol\":14184:14185  i */\n      dup5\n        /* \"contracts/marketplace.sol\":14184:14189  i + 1 */\n      tag_200\n      swap2\n      swap1\n      tag_151\n      jump\t// in\n    tag_200:\n        /* \"contracts/marketplace.sol\":14175:14190  _idToNFT[i + 1] */\n      dup2\n      mstore\n      0x20\n      add\n      swap1\n      dup2\n      mstore\n      0x20\n      add\n      0x00\n      keccak256\n        /* \"contracts/marketplace.sol\":14175:14197  _idToNFT[i + 1].seller */\n      0x02\n      add\n      0x00\n      swap1\n      sload\n      swap1\n      0x0100\n      exp\n      swap1\n      div\n      0xffffffffffffffffffffffffffffffffffffffff\n      and\n        /* \"contracts/marketplace.sol\":14175:14211  _idToNFT[i + 1].seller == msg.sender */\n      0xffffffffffffffffffffffffffffffffffffffff\n      and\n      eq\n        /* \"contracts/marketplace.sol\":14175:14237  _idToNFT[i + 1].seller == msg.sender && _idToNFT[i + 1].listed */\n      dup1\n      iszero\n      tag_201\n      jumpi\n      pop\n        /* \"contracts/marketplace.sol\":14215:14223  _idToNFT */\n      0x0d\n        /* \"contracts/marketplace.sol\":14215:14230  _idToNFT[i + 1] */\n      0x00\n        /* \"contracts/marketplace.sol\":14228:14229  1 */\n      0x01\n        /* \"contracts/marketplace.sol\":14224:14225  i */\n      dup4\n        /* \"contracts/marketplace.sol\":14224:14229  i + 1 */\n      tag_202\n      swap2\n      swap1\n      tag_151\n      jump\t// in\n    tag_202:\n        /* \"contracts/marketplace.sol\":14215:14230  _idToNFT[i + 1] */\n      dup2\n      mstore\n      0x20\n      add\n      swap1\n      dup2\n      mstore\n      0x20\n      add\n      0x00\n      keccak256\n        /* \"contracts/marketplace.sol\":14215:14237  _idToNFT[i + 1].listed */\n      0x05\n      add\n      0x00\n      swap1\n      sload\n      swap1\n      0x0100\n      exp\n      swap1\n      div\n      0xff\n      and\n        /* \"contracts/marketplace.sol\":14175:14237  _idToNFT[i + 1].seller == msg.sender && _idToNFT[i + 1].listed */\n    tag_201:\n        /* \"contracts/marketplace.sol\":14171:14278  if (_idToNFT[i + 1].seller == msg.sender && _idToNFT[i + 1].listed) {\r... */\n      iszero\n      tag_203\n      jumpi\n        /* \"contracts/marketplace.sol\":14250:14268  myListedNftCount++ */\n      dup2\n      dup1\n      tag_204\n      swap1\n      tag_154\n      jump\t// in\n    tag_204:\n      swap3\n      pop\n      pop\n        /* \"contracts/marketplace.sol\":14171:14278  if (_idToNFT[i + 1].seller == msg.sender && _idToNFT[i + 1].listed) {\r... */\n    tag_203:\n        /* \"contracts/marketplace.sol\":14157:14160  i++ */\n      dup1\n      dup1\n      tag_205\n      swap1\n      tag_154\n      jump\t// in\n    tag_205:\n      swap2\n      pop\n      pop\n        /* \"contracts/marketplace.sol\":14126:14285  for (uint i = 0; i < nftCount; i++) {\r... */\n      jump(tag_197)\n    tag_198:\n      pop\n        /* \"contracts/marketplace.sol\":14293:14310  NFT[] memory nfts */\n      0x00\n        /* \"contracts/marketplace.sol\":14323:14339  myListedNftCount */\n      dup2\n        /* \"contracts/marketplace.sol\":14313:14340  new NFT[](myListedNftCount) */\n      0xffffffffffffffff\n      dup2\n      gt\n      iszero\n      tag_206\n      jumpi\n      mstore(0x00, 0x4e487b7100000000000000000000000000000000000000000000000000000000)\n      mstore(0x04, 0x41)\n      revert(0x00, 0x24)\n    tag_206:\n      mload(0x40)\n      swap1\n      dup1\n      dup3\n      mstore\n      dup1\n      0x20\n      mul\n      0x20\n      add\n      dup3\n      add\n      0x40\n      mstore\n      dup1\n      iszero\n      tag_207\n      jumpi\n      dup2\n      0x20\n      add\n    tag_208:\n      tag_209\n      tag_160\n      jump\t// in\n    tag_209:\n      dup2\n      mstore\n      0x20\n      add\n      swap1\n      0x01\n      swap1\n      sub\n      swap1\n      dup2\n      tag_208\n      jumpi\n      swap1\n      pop\n    tag_207:\n      pop\n        /* \"contracts/marketplace.sol\":14293:14340  NFT[] memory nfts = new NFT[](myListedNftCount) */\n      swap1\n      pop\n        /* \"contracts/marketplace.sol\":14347:14361  uint nftsIndex */\n      0x00\n        /* \"contracts/marketplace.sol\":14377:14383  uint i */\n      dup1\n        /* \"contracts/marketplace.sol\":14372:14568  for (uint i = 0; i < nftCount; i++) {\r... */\n    tag_210:\n        /* \"contracts/marketplace.sol\":14393:14401  nftCount */\n      dup5\n        /* \"contracts/marketplace.sol\":14389:14390  i */\n      dup2\n        /* \"contracts/marketplace.sol\":14389:14401  i < nftCount */\n      lt\n        /* \"contracts/marketplace.sol\":14372:14568  for (uint i = 0; i < nftCount; i++) {\r... */\n      iszero\n      tag_211\n      jumpi\n        /* \"contracts/marketplace.sol\":14447:14457  msg.sender */\n      caller\n        /* \"contracts/marketplace.sol\":14421:14457  _idToNFT[i + 1].seller == msg.sender */\n      0xffffffffffffffffffffffffffffffffffffffff\n      and\n        /* \"contracts/marketplace.sol\":14421:14429  _idToNFT */\n      0x0d\n        /* \"contracts/marketplace.sol\":14421:14436  _idToNFT[i + 1] */\n      0x00\n        /* \"contracts/marketplace.sol\":14434:14435  1 */\n      0x01\n        /* \"contracts/marketplace.sol\":14430:14431  i */\n      dup5\n        /* \"contracts/marketplace.sol\":14430:14435  i + 1 */\n      tag_213\n      swap2\n      swap1\n      tag_151\n      jump\t// in\n    tag_213:\n        /* \"contracts/marketplace.sol\":14421:14436  _idToNFT[i + 1] */\n      dup2\n      mstore\n      0x20\n      add\n      swap1\n      dup2\n      mstore\n      0x20\n      add\n      0x00\n      keccak256\n        /* \"contracts/marketplace.sol\":14421:14443  _idToNFT[i + 1].seller */\n      0x02\n      add\n      0x00\n      swap1\n      sload\n      swap1\n      0x0100\n      exp\n      swap1\n      div\n      0xffffffffffffffffffffffffffffffffffffffff\n      and\n        /* \"contracts/marketplace.sol\":14421:14457  _idToNFT[i + 1].seller == msg.sender */\n      0xffffffffffffffffffffffffffffffffffffffff\n      and\n      eq\n        /* \"contracts/marketplace.sol\":14421:14483  _idToNFT[i + 1].seller == msg.sender && _idToNFT[i + 1].listed */\n      dup1\n      iszero\n      tag_214\n      jumpi\n      pop\n        /* \"contracts/marketplace.sol\":14461:14469  _idToNFT */\n      0x0d\n        /* \"contracts/marketplace.sol\":14461:14476  _idToNFT[i + 1] */\n      0x00\n        /* \"contracts/marketplace.sol\":14474:14475  1 */\n      0x01\n        /* \"contracts/marketplace.sol\":14470:14471  i */\n      dup4\n        /* \"contracts/marketplace.sol\":14470:14475  i + 1 */\n      tag_215\n      swap2\n      swap1\n      tag_151\n      jump\t// in\n    tag_215:\n        /* \"contracts/marketplace.sol\":14461:14476  _idToNFT[i + 1] */\n      dup2\n      mstore\n      0x20\n      add\n      swap1\n      dup2\n      mstore\n      0x20\n      add\n      0x00\n      keccak256\n        /* \"contracts/marketplace.sol\":14461:14483  _idToNFT[i + 1].listed */\n      0x05\n      add\n      0x00\n      swap1\n      sload\n      swap1\n      0x0100\n      exp\n      swap1\n      div\n      0xff\n      and\n        /* \"contracts/marketplace.sol\":14421:14483  _idToNFT[i + 1].seller == msg.sender && _idToNFT[i + 1].listed */\n    tag_214:\n        /* \"contracts/marketplace.sol\":14417:14561  if (_idToNFT[i + 1].seller == msg.sender && _idToNFT[i + 1].listed) {\r... */\n      iszero\n      tag_216\n      jumpi\n        /* \"contracts/marketplace.sol\":14514:14522  _idToNFT */\n      0x0d\n        /* \"contracts/marketplace.sol\":14514:14529  _idToNFT[i + 1] */\n      0x00\n        /* \"contracts/marketplace.sol\":14527:14528  1 */\n      0x01\n        /* \"contracts/marketplace.sol\":14523:14524  i */\n      dup4\n        /* \"contracts/marketplace.sol\":14523:14528  i + 1 */\n      tag_217\n      swap2\n      swap1\n      tag_151\n      jump\t// in\n    tag_217:\n        /* \"contracts/marketplace.sol\":14514:14529  _idToNFT[i + 1] */\n      dup2\n      mstore\n      0x20\n      add\n      swap1\n      dup2\n      mstore\n      0x20\n      add\n      0x00\n      keccak256\n        /* \"contracts/marketplace.sol\":14496:14529  nfts[nftsIndex] = _idToNFT[i + 1] */\n      mload(0x40)\n      dup1\n      0xc0\n      add\n      0x40\n      mstore\n      swap1\n      dup2\n      0x00\n      dup3\n      add\n      0x00\n      swap1\n      sload\n      swap1\n      0x0100\n      exp\n      swap1\n      div\n      0xffffffffffffffffffffffffffffffffffffffff\n      and\n      0xffffffffffffffffffffffffffffffffffffffff\n      and\n      0xffffffffffffffffffffffffffffffffffffffff\n      and\n      dup2\n      mstore\n      0x20\n      add\n      0x01\n      dup3\n      add\n      sload\n      dup2\n      mstore\n      0x20\n      add\n      0x02\n      dup3\n      add\n      0x00\n      swap1\n      sload\n      swap1\n      0x0100\n      exp\n      swap1\n      div\n      0xffffffffffffffffffffffffffffffffffffffff\n      and\n      0xffffffffffffffffffffffffffffffffffffffff\n      and\n      0xffffffffffffffffffffffffffffffffffffffff\n      and\n      dup2\n      mstore\n      0x20\n      add\n      0x03\n      dup3\n      add\n      0x00\n      swap1\n      sload\n      swap1\n      0x0100\n      exp\n      swap1\n      div\n      0xffffffffffffffffffffffffffffffffffffffff\n      and\n      0xffffffffffffffffffffffffffffffffffffffff\n      and\n      0xffffffffffffffffffffffffffffffffffffffff\n      and\n      dup2\n      mstore\n      0x20\n      add\n      0x04\n      dup3\n      add\n      sload\n      dup2\n      mstore\n      0x20\n      add\n      0x05\n      dup3\n      add\n      0x00\n      swap1\n      sload\n      swap1\n      0x0100\n      exp\n      swap1\n      div\n      0xff\n      and\n      iszero\n      iszero\n      iszero\n      iszero\n      dup2\n      mstore\n      pop\n      pop\n        /* \"contracts/marketplace.sol\":14496:14500  nfts */\n      dup4\n        /* \"contracts/marketplace.sol\":14501:14510  nftsIndex */\n      dup4\n        /* \"contracts/marketplace.sol\":14496:14511  nfts[nftsIndex] */\n      dup2\n      mload\n      dup2\n      lt\n      tag_218\n      jumpi\n      mstore(0x00, 0x4e487b7100000000000000000000000000000000000000000000000000000000)\n      mstore(0x04, 0x32)\n      revert(0x00, 0x24)\n    tag_218:\n      0x20\n      mul\n      0x20\n      add\n      add\n        /* \"contracts/marketplace.sol\":14496:14529  nfts[nftsIndex] = _idToNFT[i + 1] */\n      dup2\n      swap1\n      mstore\n      pop\n        /* \"contracts/marketplace.sol\":14540:14551  nftsIndex++ */\n      dup2\n      dup1\n      tag_219\n      swap1\n      tag_154\n      jump\t// in\n    tag_219:\n      swap3\n      pop\n      pop\n        /* \"contracts/marketplace.sol\":14417:14561  if (_idToNFT[i + 1].seller == msg.sender && _idToNFT[i + 1].listed) {\r... */\n    tag_216:\n        /* \"contracts/marketplace.sol\":14403:14406  i++ */\n      dup1\n      dup1\n      tag_220\n      swap1\n      tag_154\n      jump\t// in\n    tag_220:\n      swap2\n      pop\n      pop\n        /* \"contracts/marketplace.sol\":14372:14568  for (uint i = 0; i < nftCount; i++) {\r... */\n      jump(tag_210)\n    tag_211:\n      pop\n        /* \"contracts/marketplace.sol\":14581:14585  nfts */\n      dup2\n        /* \"contracts/marketplace.sol\":14574:14585  return nfts */\n      swap5\n      pop\n      pop\n      pop\n      pop\n      pop\n        /* \"contracts/marketplace.sol\":13983:14591  function getMyListedNfts() public view returns (NFT[] memory) {\r... */\n      swap1\n      jump\t// out\n        /* \"contracts/marketplace.sol\":4741:5023  function transferFrom(\r... */\n    tag_65:\n        /* \"contracts/marketplace.sol\":4883:4924  _isApprovedOrOwner(_msgSender(), tokenId) */\n      tag_222\n        /* \"contracts/marketplace.sol\":4902:4914  _msgSender() */\n      tag_223\n        /* \"contracts/marketplace.sol\":4902:4912  _msgSender */\n      tag_186\n        /* \"contracts/marketplace.sol\":4902:4914  _msgSender() */\n      jump\t// in\n    tag_223:\n        /* \"contracts/marketplace.sol\":4916:4923  tokenId */\n      dup3\n        /* \"contracts/marketplace.sol\":4883:4901  _isApprovedOrOwner */\n      tag_224\n        /* \"contracts/marketplace.sol\":4883:4924  _isApprovedOrOwner(_msgSender(), tokenId) */\n      jump\t// in\n    tag_222:\n        /* \"contracts/marketplace.sol\":4875:4974  require(_isApprovedOrOwner(_msgSender(), tokenId), \"ERC721: caller is not token owner or approved\") */\n      tag_225\n      jumpi\n      mload(0x40)\n      0x08c379a000000000000000000000000000000000000000000000000000000000\n      dup2\n      mstore\n      0x04\n      add\n      tag_226\n      swap1\n      tag_227\n      jump\t// in\n    tag_226:\n      mload(0x40)\n      dup1\n      swap2\n      sub\n      swap1\n      revert\n    tag_225:\n        /* \"contracts/marketplace.sol\":4987:5015  _transfer(from, to, tokenId) */\n      tag_228\n        /* \"contracts/marketplace.sol\":4997:5001  from */\n      dup4\n        /* \"contracts/marketplace.sol\":5003:5005  to */\n      dup4\n        /* \"contracts/marketplace.sol\":5007:5014  tokenId */\n      dup4\n        /* \"contracts/marketplace.sol\":4987:4996  _transfer */\n      tag_229\n        /* \"contracts/marketplace.sol\":4987:5015  _transfer(from, to, tokenId) */\n      jump\t// in\n    tag_228:\n        /* \"contracts/marketplace.sol\":4741:5023  function transferFrom(\r... */\n      pop\n      pop\n      pop\n      jump\t// out\n        /* \"contracts/marketplace.sol\":1446:1487  uint256 public LISTING_FEE = 0.0001 ether */\n    tag_68:\n      sload(0x0b)\n      dup2\n      jump\t// out\n        /* \"contracts/marketplace.sol\":12302:12909  function resellNft(address _nftContract, uint256 _tokenId, uint256 _price) public payable nonReentrant {\r... */\n    tag_74:\n        /* \"@openzeppelin/contracts@4.6.0/security/ReentrancyGuard.sol\":1744:1745  2 */\n      0x02\n        /* \"@openzeppelin/contracts@4.6.0/security/ReentrancyGuard.sol\":2325:2332  _status */\n      sload(0x00)\n        /* \"@openzeppelin/contracts@4.6.0/security/ReentrancyGuard.sol\":2325:2344  _status != _ENTERED */\n      eq\n      iszero\n        /* \"@openzeppelin/contracts@4.6.0/security/ReentrancyGuard.sol\":2317:2380  require(_status != _ENTERED, \"ReentrancyGuard: reentrant call\") */\n      tag_231\n      jumpi\n      mload(0x40)\n      0x08c379a000000000000000000000000000000000000000000000000000000000\n      dup2\n      mstore\n      0x04\n      add\n      tag_232\n      swap1\n      tag_233\n      jump\t// in\n    tag_232:\n      mload(0x40)\n      dup1\n      swap2\n      sub\n      swap1\n      revert\n    tag_231:\n        /* \"@openzeppelin/contracts@4.6.0/security/ReentrancyGuard.sol\":1744:1745  2 */\n      0x02\n        /* \"@openzeppelin/contracts@4.6.0/security/ReentrancyGuard.sol\":2455:2462  _status */\n      0x00\n        /* \"@openzeppelin/contracts@4.6.0/security/ReentrancyGuard.sol\":2455:2473  _status = _ENTERED */\n      dup2\n      swap1\n      sstore\n      pop\n        /* \"contracts/marketplace.sol\":12429:12430  0 */\n      0x00\n        /* \"contracts/marketplace.sol\":12420:12426  _price */\n      dup2\n        /* \"contracts/marketplace.sol\":12420:12430  _price > 0 */\n      gt\n        /* \"contracts/marketplace.sol\":12412:12463  require(_price > 0, \"Price must be at least 1 wei\") */\n      tag_235\n      jumpi\n      mload(0x40)\n      0x08c379a000000000000000000000000000000000000000000000000000000000\n      dup2\n      mstore\n      0x04\n      add\n      tag_236\n      swap1\n      tag_237\n      jump\t// in\n    tag_236:\n      mload(0x40)\n      dup1\n      swap2\n      sub\n      swap1\n      revert\n    tag_235:\n        /* \"contracts/marketplace.sol\":12491:12502  LISTING_FEE */\n      sload(0x0b)\n        /* \"contracts/marketplace.sol\":12478:12487  msg.value */\n      callvalue\n        /* \"contracts/marketplace.sol\":12478:12502  msg.value == LISTING_FEE */\n      eq\n        /* \"contracts/marketplace.sol\":12470:12539  require(msg.value == LISTING_FEE, \"Not enough ether for listing fee\") */\n      tag_238\n      jumpi\n      mload(0x40)\n      0x08c379a000000000000000000000000000000000000000000000000000000000\n      dup2\n      mstore\n      0x04\n      add\n      tag_239\n      swap1\n      tag_240\n      jump\t// in\n    tag_239:\n      mload(0x40)\n      dup1\n      swap2\n      sub\n      swap1\n      revert\n    tag_238:\n        /* \"contracts/marketplace.sol\":12556:12568  _nftContract */\n      dup3\n        /* \"contracts/marketplace.sol\":12548:12582  IERC721(_nftContract).transferFrom */\n      0xffffffffffffffffffffffffffffffffffffffff\n      and\n      0x23b872dd\n        /* \"contracts/marketplace.sol\":12583:12593  msg.sender */\n      caller\n        /* \"contracts/marketplace.sol\":12603:12607  this */\n      address\n        /* \"contracts/marketplace.sol\":12610:12618  _tokenId */\n      dup6\n        /* \"contracts/marketplace.sol\":12548:12619  IERC721(_nftContract).transferFrom(msg.sender, address(this), _tokenId) */\n      mload(0x40)\n      dup5\n      0xffffffff\n      and\n      0xe0\n      shl\n      dup2\n      mstore\n      0x04\n      add\n      tag_241\n      swap4\n      swap3\n      swap2\n      swap1\n      tag_242\n      jump\t// in\n    tag_241:\n      0x00\n      mload(0x40)\n      dup1\n      dup4\n      sub\n      dup2\n      0x00\n      dup8\n      dup1\n      extcodesize\n      iszero\n      dup1\n      iszero\n      tag_243\n      jumpi\n      0x00\n      dup1\n      revert\n    tag_243:\n      pop\n      gas\n      call\n      iszero\n      dup1\n      iszero\n      tag_245\n      jumpi\n      returndatasize\n      0x00\n      dup1\n      returndatacopy\n      revert(0x00, returndatasize)\n    tag_245:\n      pop\n      pop\n      pop\n      pop\n        /* \"contracts/marketplace.sol\":12628:12643  NFT storage nft */\n      0x00\n        /* \"contracts/marketplace.sol\":12646:12654  _idToNFT */\n      0x0d\n        /* \"contracts/marketplace.sol\":12646:12664  _idToNFT[_tokenId] */\n      0x00\n        /* \"contracts/marketplace.sol\":12655:12663  _tokenId */\n      dup5\n        /* \"contracts/marketplace.sol\":12646:12664  _idToNFT[_tokenId] */\n      dup2\n      mstore\n      0x20\n      add\n      swap1\n      dup2\n      mstore\n      0x20\n      add\n      0x00\n      keccak256\n        /* \"contracts/marketplace.sol\":12628:12664  NFT storage nft = _idToNFT[_tokenId] */\n      swap1\n      pop\n        /* \"contracts/marketplace.sol\":12692:12702  msg.sender */\n      caller\n        /* \"contracts/marketplace.sol\":12671:12674  nft */\n      dup2\n        /* \"contracts/marketplace.sol\":12671:12681  nft.seller */\n      0x02\n      add\n      0x00\n        /* \"contracts/marketplace.sol\":12671:12703  nft.seller = payable(msg.sender) */\n      0x0100\n      exp\n      dup2\n      sload\n      dup2\n      0xffffffffffffffffffffffffffffffffffffffff\n      mul\n      not\n      and\n      swap1\n      dup4\n      0xffffffffffffffffffffffffffffffffffffffff\n      and\n      mul\n      or\n      swap1\n      sstore\n      pop\n        /* \"contracts/marketplace.sol\":12738:12742  this */\n      address\n        /* \"contracts/marketplace.sol\":12710:12713  nft */\n      dup2\n        /* \"contracts/marketplace.sol\":12710:12719  nft.owner */\n      0x03\n      add\n      0x00\n        /* \"contracts/marketplace.sol\":12710:12744  nft.owner = payable(address(this)) */\n      0x0100\n      exp\n      dup2\n      sload\n      dup2\n      0xffffffffffffffffffffffffffffffffffffffff\n      mul\n      not\n      and\n      swap1\n      dup4\n      0xffffffffffffffffffffffffffffffffffffffff\n      and\n      mul\n      or\n      swap1\n      sstore\n      pop\n        /* \"contracts/marketplace.sol\":12764:12768  true */\n      0x01\n        /* \"contracts/marketplace.sol\":12751:12754  nft */\n      dup2\n        /* \"contracts/marketplace.sol\":12751:12761  nft.listed */\n      0x05\n      add\n      0x00\n        /* \"contracts/marketplace.sol\":12751:12768  nft.listed = true */\n      0x0100\n      exp\n      dup2\n      sload\n      dup2\n      0xff\n      mul\n      not\n      and\n      swap1\n      dup4\n      iszero\n      iszero\n      mul\n      or\n      swap1\n      sstore\n      pop\n        /* \"contracts/marketplace.sol\":12787:12793  _price */\n      dup2\n        /* \"contracts/marketplace.sol\":12775:12778  nft */\n      dup2\n        /* \"contracts/marketplace.sol\":12775:12784  nft.price */\n      0x04\n      add\n        /* \"contracts/marketplace.sol\":12775:12793  nft.price = _price */\n      dup2\n      swap1\n      sstore\n      pop\n        /* \"contracts/marketplace.sol\":12802:12823  _nftsSold.decrement() */\n      tag_246\n        /* \"contracts/marketplace.sol\":12802:12811  _nftsSold */\n      0x09\n        /* \"contracts/marketplace.sol\":12802:12821  _nftsSold.decrement */\n      tag_247\n        /* \"contracts/marketplace.sol\":12802:12823  _nftsSold.decrement() */\n      jump\t// in\n    tag_246:\n        /* \"contracts/marketplace.sol\":12835:12903  NFTListed(_nftContract, _tokenId, msg.sender, address(this), _price) */\n      0xa0c6c0d02d86fdacecbaa5fdf5894bab204e31a778250474108540733a9b8d19\n        /* \"contracts/marketplace.sol\":12845:12857  _nftContract */\n      dup5\n        /* \"contracts/marketplace.sol\":12859:12867  _tokenId */\n      dup5\n        /* \"contracts/marketplace.sol\":12869:12879  msg.sender */\n      caller\n        /* \"contracts/marketplace.sol\":12889:12893  this */\n      address\n        /* \"contracts/marketplace.sol\":12896:12902  _price */\n      dup7\n        /* \"contracts/marketplace.sol\":12835:12903  NFTListed(_nftContract, _tokenId, msg.sender, address(this), _price) */\n      mload(0x40)\n      tag_248\n      swap6\n      swap5\n      swap4\n      swap3\n      swap2\n      swap1\n      tag_249\n      jump\t// in\n    tag_248:\n      mload(0x40)\n      dup1\n      swap2\n      sub\n      swap1\n      log1\n        /* \"@openzeppelin/contracts@4.6.0/security/ReentrancyGuard.sol\":2484:2485  _ */\n      pop\n        /* \"@openzeppelin/contracts@4.6.0/security/ReentrancyGuard.sol\":1701:1702  1 */\n      0x01\n        /* \"@openzeppelin/contracts@4.6.0/security/ReentrancyGuard.sol\":2628:2635  _status */\n      0x00\n        /* \"@openzeppelin/contracts@4.6.0/security/ReentrancyGuard.sol\":2628:2650  _status = _NOT_ENTERED */\n      dup2\n      swap1\n      sstore\n      pop\n        /* \"contracts/marketplace.sol\":12302:12909  function resellNft(address _nftContract, uint256 _tokenId, uint256 _price) public payable nonReentrant {\r... */\n      pop\n      pop\n      pop\n      jump\t// out\n        /* \"contracts/marketplace.sol\":5033:5218  function safeTransferFrom(\r... */\n    tag_78:\n        /* \"contracts/marketplace.sol\":5171:5210  safeTransferFrom(from, to, tokenId, \"\") */\n      tag_251\n        /* \"contracts/marketplace.sol\":5188:5192  from */\n      dup4\n        /* \"contracts/marketplace.sol\":5194:5196  to */\n      dup4\n        /* \"contracts/marketplace.sol\":5198:5205  tokenId */\n      dup4\n        /* \"contracts/marketplace.sol\":5171:5210  safeTransferFrom(from, to, tokenId, \"\") */\n      mload(0x40)\n      dup1\n      0x20\n      add\n      0x40\n      mstore\n      dup1\n      0x00\n      dup2\n      mstore\n      pop\n        /* \"contracts/marketplace.sol\":5171:5187  safeTransferFrom */\n      tag_120\n        /* \"contracts/marketplace.sol\":5171:5210  safeTransferFrom(from, to, tokenId, \"\") */\n      jump\t// in\n    tag_251:\n        /* \"contracts/marketplace.sol\":5033:5218  function safeTransferFrom(\r... */\n      pop\n      pop\n      pop\n      jump\t// out\n        /* \"contracts/marketplace.sol\":11662:12245  function buyNft(address _nftContract, uint256 _tokenId) public payable nonReentrant {\r... */\n    tag_81:\n        /* \"@openzeppelin/contracts@4.6.0/security/ReentrancyGuard.sol\":1744:1745  2 */\n      0x02\n        /* \"@openzeppelin/contracts@4.6.0/security/ReentrancyGuard.sol\":2325:2332  _status */\n      sload(0x00)\n        /* \"@openzeppelin/contracts@4.6.0/security/ReentrancyGuard.sol\":2325:2344  _status != _ENTERED */\n      eq\n      iszero\n        /* \"@openzeppelin/contracts@4.6.0/security/ReentrancyGuard.sol\":2317:2380  require(_status != _ENTERED, \"ReentrancyGuard: reentrant call\") */\n      tag_253\n      jumpi\n      mload(0x40)\n      0x08c379a000000000000000000000000000000000000000000000000000000000\n      dup2\n      mstore\n      0x04\n      add\n      tag_254\n      swap1\n      tag_233\n      jump\t// in\n    tag_254:\n      mload(0x40)\n      dup1\n      swap2\n      sub\n      swap1\n      revert\n    tag_253:\n        /* \"@openzeppelin/contracts@4.6.0/security/ReentrancyGuard.sol\":1744:1745  2 */\n      0x02\n        /* \"@openzeppelin/contracts@4.6.0/security/ReentrancyGuard.sol\":2455:2462  _status */\n      0x00\n        /* \"@openzeppelin/contracts@4.6.0/security/ReentrancyGuard.sol\":2455:2473  _status = _ENTERED */\n      dup2\n      swap1\n      sstore\n      pop\n        /* \"contracts/marketplace.sol\":11753:11768  NFT storage nft */\n      0x00\n        /* \"contracts/marketplace.sol\":11771:11779  _idToNFT */\n      0x0d\n        /* \"contracts/marketplace.sol\":11771:11789  _idToNFT[_tokenId] */\n      0x00\n        /* \"contracts/marketplace.sol\":11780:11788  _tokenId */\n      dup4\n        /* \"contracts/marketplace.sol\":11771:11789  _idToNFT[_tokenId] */\n      dup2\n      mstore\n      0x20\n      add\n      swap1\n      dup2\n      mstore\n      0x20\n      add\n      0x00\n      keccak256\n        /* \"contracts/marketplace.sol\":11753:11789  NFT storage nft = _idToNFT[_tokenId] */\n      swap1\n      pop\n        /* \"contracts/marketplace.sol\":11817:11820  nft */\n      dup1\n        /* \"contracts/marketplace.sol\":11817:11826  nft.price */\n      0x04\n      add\n      sload\n        /* \"contracts/marketplace.sol\":11804:11813  msg.value */\n      callvalue\n        /* \"contracts/marketplace.sol\":11804:11826  msg.value >= nft.price */\n      lt\n      iszero\n        /* \"contracts/marketplace.sol\":11796:11869  require(msg.value >= nft.price, \"Not enough ether to cover asking price\") */\n      tag_256\n      jumpi\n      mload(0x40)\n      0x08c379a000000000000000000000000000000000000000000000000000000000\n      dup2\n      mstore\n      0x04\n      add\n      tag_257\n      swap1\n      tag_258\n      jump\t// in\n    tag_257:\n      mload(0x40)\n      dup1\n      swap2\n      sub\n      swap1\n      revert\n    tag_256:\n        /* \"contracts/marketplace.sol\":11878:11899  address payable buyer */\n      0x00\n        /* \"contracts/marketplace.sol\":11910:11920  msg.sender */\n      caller\n        /* \"contracts/marketplace.sol\":11878:11921  address payable buyer = payable(msg.sender) */\n      swap1\n      pop\n        /* \"contracts/marketplace.sol\":11936:11939  nft */\n      dup2\n        /* \"contracts/marketplace.sol\":11936:11946  nft.seller */\n      0x02\n      add\n      0x00\n      swap1\n      sload\n      swap1\n      0x0100\n      exp\n      swap1\n      div\n      0xffffffffffffffffffffffffffffffffffffffff\n      and\n        /* \"contracts/marketplace.sol\":11928:11956  payable(nft.seller).transfer */\n      0xffffffffffffffffffffffffffffffffffffffff\n      and\n        /* \"contracts/marketplace.sol\":11928:11967  payable(nft.seller).transfer(msg.value) */\n      0x08fc\n        /* \"contracts/marketplace.sol\":11957:11966  msg.value */\n      callvalue\n        /* \"contracts/marketplace.sol\":11928:11967  payable(nft.seller).transfer(msg.value) */\n      swap1\n      dup2\n      iszero\n      mul\n      swap1\n      mload(0x40)\n      0x00\n      mload(0x40)\n      dup1\n      dup4\n      sub\n      dup2\n      dup6\n      dup9\n      dup9\n      call\n      swap4\n      pop\n      pop\n      pop\n      pop\n      iszero\n      dup1\n      iszero\n      tag_260\n      jumpi\n      returndatasize\n      0x00\n      dup1\n      returndatacopy\n      revert(0x00, returndatasize)\n    tag_260:\n      pop\n        /* \"contracts/marketplace.sol\":11982:11994  _nftContract */\n      dup4\n        /* \"contracts/marketplace.sol\":11974:12008  IERC721(_nftContract).transferFrom */\n      0xffffffffffffffffffffffffffffffffffffffff\n      and\n      0x23b872dd\n        /* \"contracts/marketplace.sol\":12017:12021  this */\n      address\n        /* \"contracts/marketplace.sol\":12024:12029  buyer */\n      dup4\n        /* \"contracts/marketplace.sol\":12031:12034  nft */\n      dup6\n        /* \"contracts/marketplace.sol\":12031:12042  nft.tokenId */\n      0x01\n      add\n      sload\n        /* \"contracts/marketplace.sol\":11974:12043  IERC721(_nftContract).transferFrom(address(this), buyer, nft.tokenId) */\n      mload(0x40)\n      dup5\n      0xffffffff\n      and\n      0xe0\n      shl\n      dup2\n      mstore\n      0x04\n      add\n      tag_261\n      swap4\n      swap3\n      swap2\n      swap1\n      tag_262\n      jump\t// in\n    tag_261:\n      0x00\n      mload(0x40)\n      dup1\n      dup4\n      sub\n      dup2\n      0x00\n      dup8\n      dup1\n      extcodesize\n      iszero\n      dup1\n      iszero\n      tag_263\n      jumpi\n      0x00\n      dup1\n      revert\n    tag_263:\n      pop\n      gas\n      call\n      iszero\n      dup1\n      iszero\n      tag_265\n      jumpi\n      returndatasize\n      0x00\n      dup1\n      returndatacopy\n      revert(0x00, returndatasize)\n    tag_265:\n      pop\n      pop\n      pop\n      pop\n        /* \"contracts/marketplace.sol\":12050:12062  _marketOwner */\n      0x0c\n      0x00\n      swap1\n      sload\n      swap1\n      0x0100\n      exp\n      swap1\n      div\n      0xffffffffffffffffffffffffffffffffffffffff\n      and\n        /* \"contracts/marketplace.sol\":12050:12071  _marketOwner.transfer */\n      0xffffffffffffffffffffffffffffffffffffffff\n      and\n        /* \"contracts/marketplace.sol\":12050:12084  _marketOwner.transfer(LISTING_FEE) */\n      0x08fc\n        /* \"contracts/marketplace.sol\":12072:12083  LISTING_FEE */\n      sload(0x0b)\n        /* \"contracts/marketplace.sol\":12050:12084  _marketOwner.transfer(LISTING_FEE) */\n      swap1\n      dup2\n      iszero\n      mul\n      swap1\n      mload(0x40)\n      0x00\n      mload(0x40)\n      dup1\n      dup4\n      sub\n      dup2\n      dup6\n      dup9\n      dup9\n      call\n      swap4\n      pop\n      pop\n      pop\n      pop\n      iszero\n      dup1\n      iszero\n      tag_267\n      jumpi\n      returndatasize\n      0x00\n      dup1\n      returndatacopy\n      revert(0x00, returndatasize)\n    tag_267:\n      pop\n        /* \"contracts/marketplace.sol\":12103:12108  buyer */\n      dup1\n        /* \"contracts/marketplace.sol\":12091:12094  nft */\n      dup3\n        /* \"contracts/marketplace.sol\":12091:12100  nft.owner */\n      0x03\n      add\n      0x00\n        /* \"contracts/marketplace.sol\":12091:12108  nft.owner = buyer */\n      0x0100\n      exp\n      dup2\n      sload\n      dup2\n      0xffffffffffffffffffffffffffffffffffffffff\n      mul\n      not\n      and\n      swap1\n      dup4\n      0xffffffffffffffffffffffffffffffffffffffff\n      and\n      mul\n      or\n      swap1\n      sstore\n      pop\n        /* \"contracts/marketplace.sol\":12128:12133  false */\n      0x00\n        /* \"contracts/marketplace.sol\":12115:12118  nft */\n      dup3\n        /* \"contracts/marketplace.sol\":12115:12125  nft.listed */\n      0x05\n      add\n      0x00\n        /* \"contracts/marketplace.sol\":12115:12133  nft.listed = false */\n      0x0100\n      exp\n      dup2\n      sload\n      dup2\n      0xff\n      mul\n      not\n      and\n      swap1\n      dup4\n      iszero\n      iszero\n      mul\n      or\n      swap1\n      sstore\n      pop\n        /* \"contracts/marketplace.sol\":12142:12163  _nftsSold.increment() */\n      tag_268\n        /* \"contracts/marketplace.sol\":12142:12151  _nftsSold */\n      0x09\n        /* \"contracts/marketplace.sol\":12142:12161  _nftsSold.increment */\n      tag_269\n        /* \"contracts/marketplace.sol\":12142:12163  _nftsSold.increment() */\n      jump\t// in\n    tag_268:\n        /* \"contracts/marketplace.sol\":12175:12239  NFTSold(_nftContract, nft.tokenId, nft.seller, buyer, msg.value) */\n      0x16f1dbd97e6bf646d429ed186cce832f1f7fd9907814293b83181e9970ab7bd2\n        /* \"contracts/marketplace.sol\":12183:12195  _nftContract */\n      dup5\n        /* \"contracts/marketplace.sol\":12197:12200  nft */\n      dup4\n        /* \"contracts/marketplace.sol\":12197:12208  nft.tokenId */\n      0x01\n      add\n      sload\n        /* \"contracts/marketplace.sol\":12210:12213  nft */\n      dup5\n        /* \"contracts/marketplace.sol\":12210:12220  nft.seller */\n      0x02\n      add\n      0x00\n      swap1\n      sload\n      swap1\n      0x0100\n      exp\n      swap1\n      div\n      0xffffffffffffffffffffffffffffffffffffffff\n      and\n        /* \"contracts/marketplace.sol\":12222:12227  buyer */\n      dup5\n        /* \"contracts/marketplace.sol\":12229:12238  msg.value */\n      callvalue\n        /* \"contracts/marketplace.sol\":12175:12239  NFTSold(_nftContract, nft.tokenId, nft.seller, buyer, msg.value) */\n      mload(0x40)\n      tag_270\n      swap6\n      swap5\n      swap4\n      swap3\n      swap2\n      swap1\n      tag_271\n      jump\t// in\n    tag_270:\n      mload(0x40)\n      dup1\n      swap2\n      sub\n      swap1\n      log1\n        /* \"@openzeppelin/contracts@4.6.0/security/ReentrancyGuard.sol\":2484:2485  _ */\n      pop\n      pop\n        /* \"@openzeppelin/contracts@4.6.0/security/ReentrancyGuard.sol\":1701:1702  1 */\n      0x01\n        /* \"@openzeppelin/contracts@4.6.0/security/ReentrancyGuard.sol\":2628:2635  _status */\n      0x00\n        /* \"@openzeppelin/contracts@4.6.0/security/ReentrancyGuard.sol\":2628:2650  _status = _NOT_ENTERED */\n      dup2\n      swap1\n      sstore\n      pop\n        /* \"contracts/marketplace.sol\":11662:12245  function buyNft(address _nftContract, uint256 _tokenId) public payable nonReentrant {\r... */\n      pop\n      pop\n      jump\t// out\n        /* \"contracts/marketplace.sol\":2911:3159  function collaboratotOf(uint256 tokenId) public view virtual returns (address) {\r... */\n    tag_85:\n        /* \"contracts/marketplace.sol\":2981:2988  address */\n      0x00\n        /* \"contracts/marketplace.sol\":3001:3021  address collaborator */\n      dup1\n        /* \"contracts/marketplace.sol\":3024:3038  _collaborators */\n      0x04\n        /* \"contracts/marketplace.sol\":3024:3047  _collaborators[tokenId] */\n      0x00\n        /* \"contracts/marketplace.sol\":3039:3046  tokenId */\n      dup5\n        /* \"contracts/marketplace.sol\":3024:3047  _collaborators[tokenId] */\n      dup2\n      mstore\n      0x20\n      add\n      swap1\n      dup2\n      mstore\n      0x20\n      add\n      0x00\n      keccak256\n      0x00\n      swap1\n      sload\n      swap1\n      0x0100\n      exp\n      swap1\n      div\n      0xffffffffffffffffffffffffffffffffffffffff\n      and\n        /* \"contracts/marketplace.sol\":3001:3047  address collaborator = _collaborators[tokenId] */\n      swap1\n      pop\n        /* \"contracts/marketplace.sol\":3090:3091  0 */\n      0x00\n        /* \"contracts/marketplace.sol\":3066:3092  collaborator != address(0) */\n      0xffffffffffffffffffffffffffffffffffffffff\n      and\n        /* \"contracts/marketplace.sol\":3066:3078  collaborator */\n      dup2\n        /* \"contracts/marketplace.sol\":3066:3092  collaborator != address(0) */\n      0xffffffffffffffffffffffffffffffffffffffff\n      and\n      eq\n      iszero\n        /* \"contracts/marketplace.sol\":3058:3121  require(collaborator != address(0), \"ERC721: invalid token ID\") */\n      tag_273\n      jumpi\n      mload(0x40)\n      0x08c379a000000000000000000000000000000000000000000000000000000000\n      dup2\n      mstore\n      0x04\n      add\n      tag_274\n      swap1\n      tag_275\n      jump\t// in\n    tag_274:\n      mload(0x40)\n      dup1\n      swap2\n      sub\n      swap1\n      revert\n    tag_273:\n        /* \"contracts/marketplace.sol\":3139:3151  collaborator */\n      dup1\n        /* \"contracts/marketplace.sol\":3132:3151  return collaborator */\n      swap2\n      pop\n      pop\n        /* \"contracts/marketplace.sol\":2911:3159  function collaboratotOf(uint256 tokenId) public view virtual returns (address) {\r... */\n      swap2\n      swap1\n      pop\n      jump\t// out\n        /* \"contracts/marketplace.sol\":2680:2902  function ownerOf(uint256 tokenId) public view virtual override returns (address) {\r... */\n    tag_90:\n        /* \"contracts/marketplace.sol\":2752:2759  address */\n      0x00\n        /* \"contracts/marketplace.sol\":2772:2785  address owner */\n      dup1\n        /* \"contracts/marketplace.sol\":2788:2795  _owners */\n      0x03\n        /* \"contracts/marketplace.sol\":2788:2804  _owners[tokenId] */\n      0x00\n        /* \"contracts/marketplace.sol\":2796:2803  tokenId */\n      dup5\n        /* \"contracts/marketplace.sol\":2788:2804  _owners[tokenId] */\n      dup2\n      mstore\n      0x20\n      add\n      swap1\n      dup2\n      mstore\n      0x20\n      add\n      0x00\n      keccak256\n      0x00\n      swap1\n      sload\n      swap1\n      0x0100\n      exp\n      swap1\n      div\n      0xffffffffffffffffffffffffffffffffffffffff\n      and\n        /* \"contracts/marketplace.sol\":2772:2804  address owner = _owners[tokenId] */\n      swap1\n      pop\n        /* \"contracts/marketplace.sol\":2840:2841  0 */\n      0x00\n        /* \"contracts/marketplace.sol\":2823:2842  owner != address(0) */\n      0xffffffffffffffffffffffffffffffffffffffff\n      and\n        /* \"contracts/marketplace.sol\":2823:2828  owner */\n      dup2\n        /* \"contracts/marketplace.sol\":2823:2842  owner != address(0) */\n      0xffffffffffffffffffffffffffffffffffffffff\n      and\n      eq\n      iszero\n        /* \"contracts/marketplace.sol\":2815:2871  require(owner != address(0), \"ERC721: invalid token ID\") */\n      tag_277\n      jumpi\n      mload(0x40)\n      0x08c379a000000000000000000000000000000000000000000000000000000000\n      dup2\n      mstore\n      0x04\n      add\n      tag_278\n      swap1\n      tag_275\n      jump\t// in\n    tag_278:\n      mload(0x40)\n      dup1\n      swap2\n      sub\n      swap1\n      revert\n    tag_277:\n        /* \"contracts/marketplace.sol\":2889:2894  owner */\n      dup1\n        /* \"contracts/marketplace.sol\":2882:2894  return owner */\n      swap2\n      pop\n      pop\n        /* \"contracts/marketplace.sol\":2680:2902  function ownerOf(uint256 tokenId) public view virtual override returns (address) {\r... */\n      swap2\n      swap1\n      pop\n      jump\t// out\n        /* \"contracts/marketplace.sol\":2463:2670  function balanceOf(address owner) public view virtual override returns (uint256) {\r... */\n    tag_96:\n        /* \"contracts/marketplace.sol\":2535:2542  uint256 */\n      0x00\n        /* \"contracts/marketplace.sol\":2580:2581  0 */\n      dup1\n        /* \"contracts/marketplace.sol\":2563:2582  owner != address(0) */\n      0xffffffffffffffffffffffffffffffffffffffff\n      and\n        /* \"contracts/marketplace.sol\":2563:2568  owner */\n      dup3\n        /* \"contracts/marketplace.sol\":2563:2582  owner != address(0) */\n      0xffffffffffffffffffffffffffffffffffffffff\n      and\n      eq\n      iszero\n        /* \"contracts/marketplace.sol\":2555:2628  require(owner != address(0), \"ERC721: address zero is not a valid owner\") */\n      tag_280\n      jumpi\n      mload(0x40)\n      0x08c379a000000000000000000000000000000000000000000000000000000000\n      dup2\n      mstore\n      0x04\n      add\n      tag_281\n      swap1\n      tag_282\n      jump\t// in\n    tag_281:\n      mload(0x40)\n      dup1\n      swap2\n      sub\n      swap1\n      revert\n    tag_280:\n        /* \"contracts/marketplace.sol\":2646:2655  _balances */\n      0x05\n        /* \"contracts/marketplace.sol\":2646:2662  _balances[owner] */\n      0x00\n        /* \"contracts/marketplace.sol\":2656:2661  owner */\n      dup4\n        /* \"contracts/marketplace.sol\":2646:2662  _balances[owner] */\n      0xffffffffffffffffffffffffffffffffffffffff\n      and\n      0xffffffffffffffffffffffffffffffffffffffff\n      and\n      dup2\n      mstore\n      0x20\n      add\n      swap1\n      dup2\n      mstore\n      0x20\n      add\n      0x00\n      keccak256\n      sload\n        /* \"contracts/marketplace.sol\":2639:2662  return _balances[owner] */\n      swap1\n      pop\n        /* \"contracts/marketplace.sol\":2463:2670  function balanceOf(address owner) public view virtual override returns (uint256) {\r... */\n      swap2\n      swap1\n      pop\n      jump\t// out\n        /* \"contracts/marketplace.sol\":13007:13441  function getListedNfts() public view returns (NFT[] memory) {\r... */\n    tag_100:\n        /* \"contracts/marketplace.sol\":13053:13065  NFT[] memory */\n      0x60\n        /* \"contracts/marketplace.sol\":13074:13090  uint256 nftCount */\n      0x00\n        /* \"contracts/marketplace.sol\":13093:13112  _nftCount.current() */\n      tag_284\n        /* \"contracts/marketplace.sol\":13093:13102  _nftCount */\n      0x0a\n        /* \"contracts/marketplace.sol\":13093:13110  _nftCount.current */\n      tag_146\n        /* \"contracts/marketplace.sol\":13093:13112  _nftCount.current() */\n      jump\t// in\n    tag_284:\n        /* \"contracts/marketplace.sol\":13074:13112  uint256 nftCount = _nftCount.current() */\n      swap1\n      pop\n        /* \"contracts/marketplace.sol\":13119:13142  uint256 unsoldNftsCount */\n      0x00\n        /* \"contracts/marketplace.sol\":13156:13175  _nftsSold.current() */\n      tag_285\n        /* \"contracts/marketplace.sol\":13156:13165  _nftsSold */\n      0x09\n        /* \"contracts/marketplace.sol\":13156:13173  _nftsSold.current */\n      tag_146\n        /* \"contracts/marketplace.sol\":13156:13175  _nftsSold.current() */\n      jump\t// in\n    tag_285:\n        /* \"contracts/marketplace.sol\":13145:13153  nftCount */\n      dup3\n        /* \"contracts/marketplace.sol\":13145:13175  nftCount - _nftsSold.current() */\n      tag_286\n      swap2\n      swap1\n      tag_287\n      jump\t// in\n    tag_286:\n        /* \"contracts/marketplace.sol\":13119:13175  uint256 unsoldNftsCount = nftCount - _nftsSold.current() */\n      swap1\n      pop\n        /* \"contracts/marketplace.sol\":13184:13201  NFT[] memory nfts */\n      0x00\n        /* \"contracts/marketplace.sol\":13214:13229  unsoldNftsCount */\n      dup2\n        /* \"contracts/marketplace.sol\":13204:13230  new NFT[](unsoldNftsCount) */\n      0xffffffffffffffff\n      dup2\n      gt\n      iszero\n      tag_288\n      jumpi\n      mstore(0x00, 0x4e487b7100000000000000000000000000000000000000000000000000000000)\n      mstore(0x04, 0x41)\n      revert(0x00, 0x24)\n    tag_288:\n      mload(0x40)\n      swap1\n      dup1\n      dup3\n      mstore\n      dup1\n      0x20\n      mul\n      0x20\n      add\n      dup3\n      add\n      0x40\n      mstore\n      dup1\n      iszero\n      tag_289\n      jumpi\n      dup2\n      0x20\n      add\n    tag_290:\n      tag_291\n      tag_160\n      jump\t// in\n    tag_291:\n      dup2\n      mstore\n      0x20\n      add\n      swap1\n      0x01\n      swap1\n      sub\n      swap1\n      dup2\n      tag_290\n      jumpi\n      swap1\n      pop\n    tag_289:\n      pop\n        /* \"contracts/marketplace.sol\":13184:13230  NFT[] memory nfts = new NFT[](unsoldNftsCount) */\n      swap1\n      pop\n        /* \"contracts/marketplace.sol\":13237:13251  uint nftsIndex */\n      0x00\n        /* \"contracts/marketplace.sol\":13267:13273  uint i */\n      dup1\n        /* \"contracts/marketplace.sol\":13262:13418  for (uint i = 0; i < nftCount; i++) {\r... */\n    tag_292:\n        /* \"contracts/marketplace.sol\":13283:13291  nftCount */\n      dup5\n        /* \"contracts/marketplace.sol\":13279:13280  i */\n      dup2\n        /* \"contracts/marketplace.sol\":13279:13291  i < nftCount */\n      lt\n        /* \"contracts/marketplace.sol\":13262:13418  for (uint i = 0; i < nftCount; i++) {\r... */\n      iszero\n      tag_293\n      jumpi\n        /* \"contracts/marketplace.sol\":13311:13319  _idToNFT */\n      0x0d\n        /* \"contracts/marketplace.sol\":13311:13326  _idToNFT[i + 1] */\n      0x00\n        /* \"contracts/marketplace.sol\":13324:13325  1 */\n      0x01\n        /* \"contracts/marketplace.sol\":13320:13321  i */\n      dup4\n        /* \"contracts/marketplace.sol\":13320:13325  i + 1 */\n      tag_295\n      swap2\n      swap1\n      tag_151\n      jump\t// in\n    tag_295:\n        /* \"contracts/marketplace.sol\":13311:13326  _idToNFT[i + 1] */\n      dup2\n      mstore\n      0x20\n      add\n      swap1\n      dup2\n      mstore\n      0x20\n      add\n      0x00\n      keccak256\n        /* \"contracts/marketplace.sol\":13311:13333  _idToNFT[i + 1].listed */\n      0x05\n      add\n      0x00\n      swap1\n      sload\n      swap1\n      0x0100\n      exp\n      swap1\n      div\n      0xff\n      and\n        /* \"contracts/marketplace.sol\":13307:13411  if (_idToNFT[i + 1].listed) {\r... */\n      iszero\n      tag_296\n      jumpi\n        /* \"contracts/marketplace.sol\":13364:13372  _idToNFT */\n      0x0d\n        /* \"contracts/marketplace.sol\":13364:13379  _idToNFT[i + 1] */\n      0x00\n        /* \"contracts/marketplace.sol\":13377:13378  1 */\n      0x01\n        /* \"contracts/marketplace.sol\":13373:13374  i */\n      dup4\n        /* \"contracts/marketplace.sol\":13373:13378  i + 1 */\n      tag_297\n      swap2\n      swap1\n      tag_151\n      jump\t// in\n    tag_297:\n        /* \"contracts/marketplace.sol\":13364:13379  _idToNFT[i + 1] */\n      dup2\n      mstore\n      0x20\n      add\n      swap1\n      dup2\n      mstore\n      0x20\n      add\n      0x00\n      keccak256\n        /* \"contracts/marketplace.sol\":13346:13379  nfts[nftsIndex] = _idToNFT[i + 1] */\n      mload(0x40)\n      dup1\n      0xc0\n      add\n      0x40\n      mstore\n      swap1\n      dup2\n      0x00\n      dup3\n      add\n      0x00\n      swap1\n      sload\n      swap1\n      0x0100\n      exp\n      swap1\n      div\n      0xffffffffffffffffffffffffffffffffffffffff\n      and\n      0xffffffffffffffffffffffffffffffffffffffff\n      and\n      0xffffffffffffffffffffffffffffffffffffffff\n      and\n      dup2\n      mstore\n      0x20\n      add\n      0x01\n      dup3\n      add\n      sload\n      dup2\n      mstore\n      0x20\n      add\n      0x02\n      dup3\n      add\n      0x00\n      swap1\n      sload\n      swap1\n      0x0100\n      exp\n      swap1\n      div\n      0xffffffffffffffffffffffffffffffffffffffff\n      and\n      0xffffffffffffffffffffffffffffffffffffffff\n      and\n      0xffffffffffffffffffffffffffffffffffffffff\n      and\n      dup2\n      mstore\n      0x20\n      add\n      0x03\n      dup3\n      add\n      0x00\n      swap1\n      sload\n      swap1\n      0x0100\n      exp\n      swap1\n      div\n      0xffffffffffffffffffffffffffffffffffffffff\n      and\n      0xffffffffffffffffffffffffffffffffffffffff\n      and\n      0xffffffffffffffffffffffffffffffffffffffff\n      and\n      dup2\n      mstore\n      0x20\n      add\n      0x04\n      dup3\n      add\n      sload\n      dup2\n      mstore\n      0x20\n      add\n      0x05\n      dup3\n      add\n      0x00\n      swap1\n      sload\n      swap1\n      0x0100\n      exp\n      swap1\n      div\n      0xff\n      and\n      iszero\n      iszero\n      iszero\n      iszero\n      dup2\n      mstore\n      pop\n      pop\n        /* \"contracts/marketplace.sol\":13346:13350  nfts */\n      dup4\n        /* \"contracts/marketplace.sol\":13351:13360  nftsIndex */\n      dup4\n        /* \"contracts/marketplace.sol\":13346:13361  nfts[nftsIndex] */\n      dup2\n      mload\n      dup2\n      lt\n      tag_298\n      jumpi\n      mstore(0x00, 0x4e487b7100000000000000000000000000000000000000000000000000000000)\n      mstore(0x04, 0x32)\n      revert(0x00, 0x24)\n    tag_298:\n      0x20\n      mul\n      0x20\n      add\n      add\n        /* \"contracts/marketplace.sol\":13346:13379  nfts[nftsIndex] = _idToNFT[i + 1] */\n      dup2\n      swap1\n      mstore\n      pop\n        /* \"contracts/marketplace.sol\":13390:13401  nftsIndex++ */\n      dup2\n      dup1\n      tag_299\n      swap1\n      tag_154\n      jump\t// in\n    tag_299:\n      swap3\n      pop\n      pop\n        /* \"contracts/marketplace.sol\":13307:13411  if (_idToNFT[i + 1].listed) {\r... */\n    tag_296:\n        /* \"contracts/marketplace.sol\":13293:13296  i++ */\n      dup1\n      dup1\n      tag_300\n      swap1\n      tag_154\n      jump\t// in\n    tag_300:\n      swap2\n      pop\n      pop\n        /* \"contracts/marketplace.sol\":13262:13418  for (uint i = 0; i < nftCount; i++) {\r... */\n      jump(tag_292)\n    tag_293:\n      pop\n        /* \"contracts/marketplace.sol\":13431:13435  nfts */\n      dup2\n        /* \"contracts/marketplace.sol\":13424:13435  return nfts */\n      swap5\n      pop\n      pop\n      pop\n      pop\n      pop\n        /* \"contracts/marketplace.sol\":13007:13441  function getListedNfts() public view returns (NFT[] memory) {\r... */\n      swap1\n      jump\t// out\n        /* \"contracts/marketplace.sol\":3280:3384  function symbol() public view virtual override returns (string memory) {\r... */\n    tag_104:\n        /* \"contracts/marketplace.sol\":3336:3349  string memory */\n      0x60\n        /* \"contracts/marketplace.sol\":3369:3376  _symbol */\n      0x02\n        /* \"contracts/marketplace.sol\":3362:3376  return _symbol */\n      dup1\n      sload\n      tag_302\n      swap1\n      tag_172\n      jump\t// in\n    tag_302:\n      dup1\n      0x1f\n      add\n      0x20\n      dup1\n      swap2\n      div\n      mul\n      0x20\n      add\n      mload(0x40)\n      swap1\n      dup2\n      add\n      0x40\n      mstore\n      dup1\n      swap3\n      swap2\n      swap1\n      dup2\n      dup2\n      mstore\n      0x20\n      add\n      dup3\n      dup1\n      sload\n      tag_303\n      swap1\n      tag_172\n      jump\t// in\n    tag_303:\n      dup1\n      iszero\n      tag_304\n      jumpi\n      dup1\n      0x1f\n      lt\n      tag_305\n      jumpi\n      0x0100\n      dup1\n      dup4\n      sload\n      div\n      mul\n      dup4\n      mstore\n      swap2\n      0x20\n      add\n      swap2\n      jump(tag_304)\n    tag_305:\n      dup3\n      add\n      swap2\n      swap1\n      0x00\n      mstore\n      keccak256(0x00, 0x20)\n      swap1\n    tag_306:\n      dup2\n      sload\n      dup2\n      mstore\n      swap1\n      0x01\n      add\n      swap1\n      0x20\n      add\n      dup1\n      dup4\n      gt\n      tag_306\n      jumpi\n      dup3\n      swap1\n      sub\n      0x1f\n      and\n      dup3\n      add\n      swap2\n    tag_304:\n      pop\n      pop\n      pop\n      pop\n      pop\n      swap1\n      pop\n        /* \"contracts/marketplace.sol\":3280:3384  function symbol() public view virtual override returns (string memory) {\r... */\n      swap1\n      jump\t// out\n        /* \"contracts/marketplace.sol\":4402:4557  function setApprovalForAll(address operator, bool approved) public virtual override {\r... */\n    tag_110:\n        /* \"contracts/marketplace.sol\":4497:4549  _setApprovalForAll(_msgSender(), operator, approved) */\n      tag_308\n        /* \"contracts/marketplace.sol\":4516:4528  _msgSender() */\n      tag_309\n        /* \"contracts/marketplace.sol\":4516:4526  _msgSender */\n      tag_186\n        /* \"contracts/marketplace.sol\":4516:4528  _msgSender() */\n      jump\t// in\n    tag_309:\n        /* \"contracts/marketplace.sol\":4530:4538  operator */\n      dup4\n        /* \"contracts/marketplace.sol\":4540:4548  approved */\n      dup4\n        /* \"contracts/marketplace.sol\":4497:4515  _setApprovalForAll */\n      tag_310\n        /* \"contracts/marketplace.sol\":4497:4549  _setApprovalForAll(_msgSender(), operator, approved) */\n      jump\t// in\n    tag_308:\n        /* \"contracts/marketplace.sol\":4402:4557  function setApprovalForAll(address operator, bool approved) public virtual override {\r... */\n      pop\n      pop\n      jump\t// out\n        /* \"contracts/marketplace.sol\":5559:5736  function mint(address to,address collaborator,uint tokenId,string memory uri) public{\r... */\n    tag_115:\n        /* \"contracts/marketplace.sol\":5656:5691  _safeMint(to, collaborator,tokenId) */\n      tag_312\n        /* \"contracts/marketplace.sol\":5666:5668  to */\n      dup5\n        /* \"contracts/marketplace.sol\":5670:5682  collaborator */\n      dup5\n        /* \"contracts/marketplace.sol\":5683:5690  tokenId */\n      dup5\n        /* \"contracts/marketplace.sol\":5656:5665  _safeMint */\n      tag_313\n        /* \"contracts/marketplace.sol\":5656:5691  _safeMint(to, collaborator,tokenId) */\n      jump\t// in\n    tag_312:\n        /* \"contracts/marketplace.sol\":5702:5728  _setTokenURI(tokenId, uri) */\n      tag_314\n        /* \"contracts/marketplace.sol\":5715:5722  tokenId */\n      dup3\n        /* \"contracts/marketplace.sol\":5724:5727  uri */\n      dup3\n        /* \"contracts/marketplace.sol\":5702:5714  _setTokenURI */\n      tag_315\n        /* \"contracts/marketplace.sol\":5702:5728  _setTokenURI(tokenId, uri) */\n      jump\t// in\n    tag_314:\n        /* \"contracts/marketplace.sol\":5559:5736  function mint(address to,address collaborator,uint tokenId,string memory uri) public{\r... */\n      pop\n      pop\n      pop\n      pop\n      jump\t// out\n        /* \"contracts/marketplace.sol\":5228:5550  function safeTransferFrom(\r... */\n    tag_120:\n        /* \"contracts/marketplace.sol\":5402:5443  _isApprovedOrOwner(_msgSender(), tokenId) */\n      tag_317\n        /* \"contracts/marketplace.sol\":5421:5433  _msgSender() */\n      tag_318\n        /* \"contracts/marketplace.sol\":5421:5431  _msgSender */\n      tag_186\n        /* \"contracts/marketplace.sol\":5421:5433  _msgSender() */\n      jump\t// in\n    tag_318:\n        /* \"contracts/marketplace.sol\":5435:5442  tokenId */\n      dup4\n        /* \"contracts/marketplace.sol\":5402:5420  _isApprovedOrOwner */\n      tag_224\n        /* \"contracts/marketplace.sol\":5402:5443  _isApprovedOrOwner(_msgSender(), tokenId) */\n      jump\t// in\n    tag_317:\n        /* \"contracts/marketplace.sol\":5394:5493  require(_isApprovedOrOwner(_msgSender(), tokenId), \"ERC721: caller is not token owner or approved\") */\n      tag_319\n      jumpi\n      mload(0x40)\n      0x08c379a000000000000000000000000000000000000000000000000000000000\n      dup2\n      mstore\n      0x04\n      add\n      tag_320\n      swap1\n      tag_227\n      jump\t// in\n    tag_320:\n      mload(0x40)\n      dup1\n      swap2\n      sub\n      swap1\n      revert\n    tag_319:\n        /* \"contracts/marketplace.sol\":5504:5542  _safeTransfer(from, to, tokenId, data) */\n      tag_321\n        /* \"contracts/marketplace.sol\":5518:5522  from */\n      dup5\n        /* \"contracts/marketplace.sol\":5524:5526  to */\n      dup5\n        /* \"contracts/marketplace.sol\":5528:5535  tokenId */\n      dup5\n        /* \"contracts/marketplace.sol\":5537:5541  data */\n      dup5\n        /* \"contracts/marketplace.sol\":5504:5517  _safeTransfer */\n      tag_322\n        /* \"contracts/marketplace.sol\":5504:5542  _safeTransfer(from, to, tokenId, data) */\n      jump\t// in\n    tag_321:\n        /* \"contracts/marketplace.sol\":5228:5550  function safeTransferFrom(\r... */\n      pop\n      pop\n      pop\n      pop\n      jump\t// out\n        /* \"contracts/marketplace.sol\":12915:13001  function getListingFee() public view returns (uint256) {\r... */\n    tag_123:\n        /* \"contracts/marketplace.sol\":12961:12968  uint256 */\n      0x00\n        /* \"contracts/marketplace.sol\":12984:12995  LISTING_FEE */\n      sload(0x0b)\n        /* \"contracts/marketplace.sol\":12977:12995  return LISTING_FEE */\n      swap1\n      pop\n        /* \"contracts/marketplace.sol\":12915:13001  function getListingFee() public view returns (uint256) {\r... */\n      swap1\n      jump\t// out\n        /* \"contracts/marketplace.sol\":3392:3673  function tokenURI(uint256 tokenId) public view virtual override returns (string memory) {\r... */\n    tag_128:\n        /* \"contracts/marketplace.sol\":3465:3478  string memory */\n      0x60\n        /* \"contracts/marketplace.sol\":3491:3514  _requireMinted(tokenId) */\n      tag_325\n        /* \"contracts/marketplace.sol\":3506:3513  tokenId */\n      dup3\n        /* \"contracts/marketplace.sol\":3491:3505  _requireMinted */\n      tag_179\n        /* \"contracts/marketplace.sol\":3491:3514  _requireMinted(tokenId) */\n      jump\t// in\n    tag_325:\n        /* \"contracts/marketplace.sol\":3527:3548  string memory baseURI */\n      0x00\n        /* \"contracts/marketplace.sol\":3551:3561  _baseURI() */\n      tag_326\n        /* \"contracts/marketplace.sol\":3551:3559  _baseURI */\n      tag_327\n        /* \"contracts/marketplace.sol\":3551:3561  _baseURI() */\n      jump\t// in\n    tag_326:\n        /* \"contracts/marketplace.sol\":3527:3561  string memory baseURI = _baseURI() */\n      swap1\n      pop\n        /* \"contracts/marketplace.sol\":3603:3604  0 */\n      0x00\n        /* \"contracts/marketplace.sol\":3585:3592  baseURI */\n      dup2\n        /* \"contracts/marketplace.sol\":3579:3600  bytes(baseURI).length */\n      mload\n        /* \"contracts/marketplace.sol\":3579:3604  bytes(baseURI).length > 0 */\n      gt\n        /* \"contracts/marketplace.sol\":3579:3665  bytes(baseURI).length > 0 ? string(abi.encodePacked(baseURI, tokenId.toString())) : \"\" */\n      tag_328\n      jumpi\n      mload(0x40)\n      dup1\n      0x20\n      add\n      0x40\n      mstore\n      dup1\n      0x00\n      dup2\n      mstore\n      pop\n      jump(tag_329)\n    tag_328:\n        /* \"contracts/marketplace.sol\":3631:3638  baseURI */\n      dup1\n        /* \"contracts/marketplace.sol\":3640:3658  tokenId.toString() */\n      tag_330\n        /* \"contracts/marketplace.sol\":3640:3647  tokenId */\n      dup5\n        /* \"contracts/marketplace.sol\":3640:3656  tokenId.toString */\n      tag_331\n        /* \"contracts/marketplace.sol\":3640:3658  tokenId.toString() */\n      jump\t// in\n    tag_330:\n        /* \"contracts/marketplace.sol\":3614:3659  abi.encodePacked(baseURI, tokenId.toString()) */\n      add(0x20, mload(0x40))\n      tag_332\n      swap3\n      swap2\n      swap1\n      tag_333\n      jump\t// in\n    tag_332:\n      mload(0x40)\n      0x20\n      dup2\n      dup4\n      sub\n      sub\n      dup2\n      mstore\n      swap1\n      0x40\n      mstore\n        /* \"contracts/marketplace.sol\":3579:3665  bytes(baseURI).length > 0 ? string(abi.encodePacked(baseURI, tokenId.toString())) : \"\" */\n    tag_329:\n        /* \"contracts/marketplace.sol\":3572:3665  return bytes(baseURI).length > 0 ? string(abi.encodePacked(baseURI, tokenId.toString())) : \"\" */\n      swap2\n      pop\n      pop\n        /* \"contracts/marketplace.sol\":3392:3673  function tokenURI(uint256 tokenId) public view virtual override returns (string memory) {\r... */\n      swap2\n      swap1\n      pop\n      jump\t// out\n        /* \"contracts/marketplace.sol\":11040:11639  function listNft(address _nftContract, uint256 _tokenId, uint256 _price) public payable nonReentrant {\r... */\n    tag_132:\n        /* \"@openzeppelin/contracts@4.6.0/security/ReentrancyGuard.sol\":1744:1745  2 */\n      0x02\n        /* \"@openzeppelin/contracts@4.6.0/security/ReentrancyGuard.sol\":2325:2332  _status */\n      sload(0x00)\n        /* \"@openzeppelin/contracts@4.6.0/security/ReentrancyGuard.sol\":2325:2344  _status != _ENTERED */\n      eq\n      iszero\n        /* \"@openzeppelin/contracts@4.6.0/security/ReentrancyGuard.sol\":2317:2380  require(_status != _ENTERED, \"ReentrancyGuard: reentrant call\") */\n      tag_335\n      jumpi\n      mload(0x40)\n      0x08c379a000000000000000000000000000000000000000000000000000000000\n      dup2\n      mstore\n      0x04\n      add\n      tag_336\n      swap1\n      tag_233\n      jump\t// in\n    tag_336:\n      mload(0x40)\n      dup1\n      swap2\n      sub\n      swap1\n      revert\n    tag_335:\n        /* \"@openzeppelin/contracts@4.6.0/security/ReentrancyGuard.sol\":1744:1745  2 */\n      0x02\n        /* \"@openzeppelin/contracts@4.6.0/security/ReentrancyGuard.sol\":2455:2462  _status */\n      0x00\n        /* \"@openzeppelin/contracts@4.6.0/security/ReentrancyGuard.sol\":2455:2473  _status = _ENTERED */\n      dup2\n      swap1\n      sstore\n      pop\n        /* \"contracts/marketplace.sol\":11165:11166  0 */\n      0x00\n        /* \"contracts/marketplace.sol\":11156:11162  _price */\n      dup2\n        /* \"contracts/marketplace.sol\":11156:11166  _price > 0 */\n      gt\n        /* \"contracts/marketplace.sol\":11148:11199  require(_price > 0, \"Price must be at least 1 wei\") */\n      tag_338\n      jumpi\n      mload(0x40)\n      0x08c379a000000000000000000000000000000000000000000000000000000000\n      dup2\n      mstore\n      0x04\n      add\n      tag_339\n      swap1\n      tag_237\n      jump\t// in\n    tag_339:\n      mload(0x40)\n      dup1\n      swap2\n      sub\n      swap1\n      revert\n    tag_338:\n        /* \"contracts/marketplace.sol\":11227:11238  LISTING_FEE */\n      sload(0x0b)\n        /* \"contracts/marketplace.sol\":11214:11223  msg.value */\n      callvalue\n        /* \"contracts/marketplace.sol\":11214:11238  msg.value == LISTING_FEE */\n      eq\n        /* \"contracts/marketplace.sol\":11206:11275  require(msg.value == LISTING_FEE, \"Not enough ether for listing fee\") */\n      tag_340\n      jumpi\n      mload(0x40)\n      0x08c379a000000000000000000000000000000000000000000000000000000000\n      dup2\n      mstore\n      0x04\n      add\n      tag_341\n      swap1\n      tag_240\n      jump\t// in\n    tag_341:\n      mload(0x40)\n      dup1\n      swap2\n      sub\n      swap1\n      revert\n    tag_340:\n        /* \"contracts/marketplace.sol\":11292:11304  _nftContract */\n      dup3\n        /* \"contracts/marketplace.sol\":11284:11318  IERC721(_nftContract).transferFrom */\n      0xffffffffffffffffffffffffffffffffffffffff\n      and\n      0x23b872dd\n        /* \"contracts/marketplace.sol\":11319:11329  msg.sender */\n      caller\n        /* \"contracts/marketplace.sol\":11339:11343  this */\n      address\n        /* \"contracts/marketplace.sol\":11346:11354  _tokenId */\n      dup6\n        /* \"contracts/marketplace.sol\":11284:11355  IERC721(_nftContract).transferFrom(msg.sender, address(this), _tokenId) */\n      mload(0x40)\n      dup5\n      0xffffffff\n      and\n      0xe0\n      shl\n      dup2\n      mstore\n      0x04\n      add\n      tag_342\n      swap4\n      swap3\n      swap2\n      swap1\n      tag_242\n      jump\t// in\n    tag_342:\n      0x00\n      mload(0x40)\n      dup1\n      dup4\n      sub\n      dup2\n      0x00\n      dup8\n      dup1\n      extcodesize\n      iszero\n      dup1\n      iszero\n      tag_343\n      jumpi\n      0x00\n      dup1\n      revert\n    tag_343:\n      pop\n      gas\n      call\n      iszero\n      dup1\n      iszero\n      tag_345\n      jumpi\n      returndatasize\n      0x00\n      dup1\n      returndatacopy\n      revert(0x00, returndatasize)\n    tag_345:\n      pop\n      pop\n      pop\n      pop\n        /* \"contracts/marketplace.sol\":11364:11385  _nftCount.increment() */\n      tag_346\n        /* \"contracts/marketplace.sol\":11364:11373  _nftCount */\n      0x0a\n        /* \"contracts/marketplace.sol\":11364:11383  _nftCount.increment */\n      tag_269\n        /* \"contracts/marketplace.sol\":11364:11385  _nftCount.increment() */\n      jump\t// in\n    tag_346:\n        /* \"contracts/marketplace.sol\":11415:11551  NFT(\r... */\n      mload(0x40)\n      dup1\n      0xc0\n      add\n      0x40\n      mstore\n      dup1\n        /* \"contracts/marketplace.sol\":11427:11439  _nftContract */\n      dup5\n        /* \"contracts/marketplace.sol\":11415:11551  NFT(\r... */\n      0xffffffffffffffffffffffffffffffffffffffff\n      and\n      dup2\n      mstore\n      0x20\n      add\n        /* \"contracts/marketplace.sol\":11448:11456  _tokenId */\n      dup4\n        /* \"contracts/marketplace.sol\":11415:11551  NFT(\r... */\n      dup2\n      mstore\n      0x20\n      add\n        /* \"contracts/marketplace.sol\":11474:11484  msg.sender */\n      caller\n        /* \"contracts/marketplace.sol\":11415:11551  NFT(\r... */\n      0xffffffffffffffffffffffffffffffffffffffff\n      and\n      dup2\n      mstore\n      0x20\n      add\n        /* \"contracts/marketplace.sol\":11510:11514  this */\n      address\n        /* \"contracts/marketplace.sol\":11415:11551  NFT(\r... */\n      0xffffffffffffffffffffffffffffffffffffffff\n      and\n      dup2\n      mstore\n      0x20\n      add\n        /* \"contracts/marketplace.sol\":11525:11531  _price */\n      dup3\n        /* \"contracts/marketplace.sol\":11415:11551  NFT(\r... */\n      dup2\n      mstore\n      0x20\n      add\n        /* \"contracts/marketplace.sol\":11540:11544  true */\n      0x01\n        /* \"contracts/marketplace.sol\":11415:11551  NFT(\r... */\n      iszero\n      iszero\n      dup2\n      mstore\n      pop\n        /* \"contracts/marketplace.sol\":11394:11402  _idToNFT */\n      0x0d\n        /* \"contracts/marketplace.sol\":11394:11412  _idToNFT[_tokenId] */\n      0x00\n        /* \"contracts/marketplace.sol\":11403:11411  _tokenId */\n      dup5\n        /* \"contracts/marketplace.sol\":11394:11412  _idToNFT[_tokenId] */\n      dup2\n      mstore\n      0x20\n      add\n      swap1\n      dup2\n      mstore\n      0x20\n      add\n      0x00\n      keccak256\n        /* \"contracts/marketplace.sol\":11394:11551  _idToNFT[_tokenId] = NFT(\r... */\n      0x00\n      dup3\n      add\n      mload\n      dup2\n      0x00\n      add\n      exp(0x0100, 0x00)\n      dup2\n      sload\n      dup2\n      0xffffffffffffffffffffffffffffffffffffffff\n      mul\n      not\n      and\n      swap1\n      dup4\n      0xffffffffffffffffffffffffffffffffffffffff\n      and\n      mul\n      or\n      swap1\n      sstore\n      pop\n      0x20\n      dup3\n      add\n      mload\n      dup2\n      0x01\n      add\n      sstore\n      0x40\n      dup3\n      add\n      mload\n      dup2\n      0x02\n      add\n      exp(0x0100, 0x00)\n      dup2\n      sload\n      dup2\n      0xffffffffffffffffffffffffffffffffffffffff\n      mul\n      not\n      and\n      swap1\n      dup4\n      0xffffffffffffffffffffffffffffffffffffffff\n      and\n      mul\n      or\n      swap1\n      sstore\n      pop\n      0x60\n      dup3\n      add\n      mload\n      dup2\n      0x03\n      add\n      exp(0x0100, 0x00)\n      dup2\n      sload\n      dup2\n      0xffffffffffffffffffffffffffffffffffffffff\n      mul\n      not\n      and\n      swap1\n      dup4\n      0xffffffffffffffffffffffffffffffffffffffff\n      and\n      mul\n      or\n      swap1\n      sstore\n      pop\n      0x80\n      dup3\n      add\n      mload\n      dup2\n      0x04\n      add\n      sstore\n      0xa0\n      dup3\n      add\n      mload\n      dup2\n      0x05\n      add\n      exp(0x0100, 0x00)\n      dup2\n      sload\n      dup2\n      0xff\n      mul\n      not\n      and\n      swap1\n      dup4\n      iszero\n      iszero\n      mul\n      or\n      swap1\n      sstore\n      pop\n      swap1\n      pop\n      pop\n        /* \"contracts/marketplace.sol\":11565:11633  NFTListed(_nftContract, _tokenId, msg.sender, address(this), _price) */\n      0xa0c6c0d02d86fdacecbaa5fdf5894bab204e31a778250474108540733a9b8d19\n        /* \"contracts/marketplace.sol\":11575:11587  _nftContract */\n      dup4\n        /* \"contracts/marketplace.sol\":11589:11597  _tokenId */\n      dup4\n        /* \"contracts/marketplace.sol\":11599:11609  msg.sender */\n      caller\n        /* \"contracts/marketplace.sol\":11619:11623  this */\n      address\n        /* \"contracts/marketplace.sol\":11626:11632  _price */\n      dup6\n        /* \"contracts/marketplace.sol\":11565:11633  NFTListed(_nftContract, _tokenId, msg.sender, address(this), _price) */\n      mload(0x40)\n      tag_347\n      swap6\n      swap5\n      swap4\n      swap3\n      swap2\n      swap1\n      tag_249\n      jump\t// in\n    tag_347:\n      mload(0x40)\n      dup1\n      swap2\n      sub\n      swap1\n      log1\n        /* \"@openzeppelin/contracts@4.6.0/security/ReentrancyGuard.sol\":1701:1702  1 */\n      0x01\n        /* \"@openzeppelin/contracts@4.6.0/security/ReentrancyGuard.sol\":2628:2635  _status */\n      0x00\n        /* \"@openzeppelin/contracts@4.6.0/security/ReentrancyGuard.sol\":2628:2650  _status = _NOT_ENTERED */\n      dup2\n      swap1\n      sstore\n      pop\n        /* \"contracts/marketplace.sol\":11040:11639  function listNft(address _nftContract, uint256 _tokenId, uint256 _price) public payable nonReentrant {\r... */\n      pop\n      pop\n      pop\n      jump\t// out\n        /* \"contracts/marketplace.sol\":4567:4731  function isApprovedForAll(address owner, address operator) public view virtual override returns (bool) {\r... */\n    tag_137:\n        /* \"contracts/marketplace.sol\":4664:4668  bool */\n      0x00\n        /* \"contracts/marketplace.sol\":4688:4706  _operatorApprovals */\n      0x07\n        /* \"contracts/marketplace.sol\":4688:4713  _operatorApprovals[owner] */\n      0x00\n        /* \"contracts/marketplace.sol\":4707:4712  owner */\n      dup5\n        /* \"contracts/marketplace.sol\":4688:4713  _operatorApprovals[owner] */\n      0xffffffffffffffffffffffffffffffffffffffff\n      and\n      0xffffffffffffffffffffffffffffffffffffffff\n      and\n      dup2\n      mstore\n      0x20\n      add\n      swap1\n      dup2\n      mstore\n      0x20\n      add\n      0x00\n      keccak256\n        /* \"contracts/marketplace.sol\":4688:4723  _operatorApprovals[owner][operator] */\n      0x00\n        /* \"contracts/marketplace.sol\":4714:4722  operator */\n      dup4\n        /* \"contracts/marketplace.sol\":4688:4723  _operatorApprovals[owner][operator] */\n      0xffffffffffffffffffffffffffffffffffffffff\n      and\n      0xffffffffffffffffffffffffffffffffffffffff\n      and\n      dup2\n      mstore\n      0x20\n      add\n      swap1\n      dup2\n      mstore\n      0x20\n      add\n      0x00\n      keccak256\n      0x00\n      swap1\n      sload\n      swap1\n      0x0100\n      exp\n      swap1\n      div\n      0xff\n      and\n        /* \"contracts/marketplace.sol\":4681:4723  return _operatorApprovals[owner][operator] */\n      swap1\n      pop\n        /* \"contracts/marketplace.sol\":4567:4731  function isApprovedForAll(address owner, address operator) public view virtual override returns (bool) {\r... */\n      swap3\n      swap2\n      pop\n      pop\n      jump\t// out\n        /* \"@openzeppelin/contracts@4.6.0/utils/introspection/ERC165.sol\":829:984  function supportsInterface(bytes4 interfaceId) public view virtual override returns (bool) {... */\n    tag_143:\n        /* \"@openzeppelin/contracts@4.6.0/utils/introspection/ERC165.sol\":914:918  bool */\n      0x00\n        /* \"@openzeppelin/contracts@4.6.0/utils/introspection/ERC165.sol\":952:977  type(IERC165).interfaceId */\n      0x01ffc9a700000000000000000000000000000000000000000000000000000000\n        /* \"@openzeppelin/contracts@4.6.0/utils/introspection/ERC165.sol\":937:977  interfaceId == type(IERC165).interfaceId */\n      not(0xffffffffffffffffffffffffffffffffffffffffffffffffffffffff)\n      and\n        /* \"@openzeppelin/contracts@4.6.0/utils/introspection/ERC165.sol\":937:948  interfaceId */\n      dup3\n        /* \"@openzeppelin/contracts@4.6.0/utils/introspection/ERC165.sol\":937:977  interfaceId == type(IERC165).interfaceId */\n      not(0xffffffffffffffffffffffffffffffffffffffffffffffffffffffff)\n      and\n      eq\n        /* \"@openzeppelin/contracts@4.6.0/utils/introspection/ERC165.sol\":930:977  return interfaceId == type(IERC165).interfaceId */\n      swap1\n      pop\n        /* \"@openzeppelin/contracts@4.6.0/utils/introspection/ERC165.sol\":829:984  function supportsInterface(bytes4 interfaceId) public view virtual override returns (bool) {... */\n      swap2\n      swap1\n      pop\n      jump\t// out\n        /* \"@openzeppelin/contracts@4.6.0/utils/Counters.sol\":827:939  function current(Counter storage counter) internal view returns (uint256) {... */\n    tag_146:\n        /* \"@openzeppelin/contracts@4.6.0/utils/Counters.sol\":892:899  uint256 */\n      0x00\n        /* \"@openzeppelin/contracts@4.6.0/utils/Counters.sol\":918:925  counter */\n      dup2\n        /* \"@openzeppelin/contracts@4.6.0/utils/Counters.sol\":918:932  counter._value */\n      0x00\n      add\n      sload\n        /* \"@openzeppelin/contracts@4.6.0/utils/Counters.sol\":911:932  return counter._value */\n      swap1\n      pop\n        /* \"@openzeppelin/contracts@4.6.0/utils/Counters.sol\":827:939  function current(Counter storage counter) internal view returns (uint256) {... */\n      swap2\n      swap1\n      pop\n      jump\t// out\n        /* \"contracts/marketplace.sol\":9727:9862  function _requireMinted(uint256 tokenId) internal view virtual {\r... */\n    tag_179:\n        /* \"contracts/marketplace.sol\":9809:9825  _exists(tokenId) */\n      tag_352\n        /* \"contracts/marketplace.sol\":9817:9824  tokenId */\n      dup2\n        /* \"contracts/marketplace.sol\":9809:9816  _exists */\n      tag_353\n        /* \"contracts/marketplace.sol\":9809:9825  _exists(tokenId) */\n      jump\t// in\n    tag_352:\n        /* \"contracts/marketplace.sol\":9801:9854  require(_exists(tokenId), \"ERC721: invalid token ID\") */\n      tag_354\n      jumpi\n      mload(0x40)\n      0x08c379a000000000000000000000000000000000000000000000000000000000\n      dup2\n      mstore\n      0x04\n      add\n      tag_355\n      swap1\n      tag_275\n      jump\t// in\n    tag_355:\n      mload(0x40)\n      dup1\n      swap2\n      sub\n      swap1\n      revert\n    tag_354:\n        /* \"contracts/marketplace.sol\":9727:9862  function _requireMinted(uint256 tokenId) internal view virtual {\r... */\n      pop\n      jump\t// out\n        /* \"@openzeppelin/contracts@4.6.0/utils/Context.sol\":640:736  function _msgSender() internal view virtual returns (address) {... */\n    tag_186:\n        /* \"@openzeppelin/contracts@4.6.0/utils/Context.sol\":693:700  address */\n      0x00\n        /* \"@openzeppelin/contracts@4.6.0/utils/Context.sol\":719:729  msg.sender */\n      caller\n        /* \"@openzeppelin/contracts@4.6.0/utils/Context.sol\":712:729  return msg.sender */\n      swap1\n      pop\n        /* \"@openzeppelin/contracts@4.6.0/utils/Context.sol\":640:736  function _msgSender() internal view virtual returns (address) {... */\n      swap1\n      jump\t// out\n        /* \"contracts/marketplace.sol\":9217:9396  function _approve(address to, uint256 tokenId) internal virtual {\r... */\n    tag_194:\n        /* \"contracts/marketplace.sol\":9319:9321  to */\n      dup2\n        /* \"contracts/marketplace.sol\":9292:9307  _tokenApprovals */\n      0x06\n        /* \"contracts/marketplace.sol\":9292:9316  _tokenApprovals[tokenId] */\n      0x00\n        /* \"contracts/marketplace.sol\":9308:9315  tokenId */\n      dup4\n        /* \"contracts/marketplace.sol\":9292:9316  _tokenApprovals[tokenId] */\n      dup2\n      mstore\n      0x20\n      add\n      swap1\n      dup2\n      mstore\n      0x20\n      add\n      0x00\n      keccak256\n      0x00\n        /* \"contracts/marketplace.sol\":9292:9321  _tokenApprovals[tokenId] = to */\n      0x0100\n      exp\n      dup2\n      sload\n      dup2\n      0xffffffffffffffffffffffffffffffffffffffff\n      mul\n      not\n      and\n      swap1\n      dup4\n      0xffffffffffffffffffffffffffffffffffffffff\n      and\n      mul\n      or\n      swap1\n      sstore\n      pop\n        /* \"contracts/marketplace.sol\":9380:9387  tokenId */\n      dup1\n        /* \"contracts/marketplace.sol\":9376:9378  to */\n      dup3\n        /* \"contracts/marketplace.sol\":9337:9388  Approval(marketplace.ownerOf(tokenId), to, tokenId) */\n      0xffffffffffffffffffffffffffffffffffffffff\n      and\n        /* \"contracts/marketplace.sol\":9346:9374  marketplace.ownerOf(tokenId) */\n      tag_358\n        /* \"contracts/marketplace.sol\":9366:9373  tokenId */\n      dup4\n        /* \"contracts/marketplace.sol\":9346:9365  marketplace.ownerOf */\n      tag_90\n        /* \"contracts/marketplace.sol\":9346:9374  marketplace.ownerOf(tokenId) */\n      jump\t// in\n    tag_358:\n        /* \"contracts/marketplace.sol\":9337:9388  Approval(marketplace.ownerOf(tokenId), to, tokenId) */\n      0xffffffffffffffffffffffffffffffffffffffff\n      and\n      0x8c5be1e5ebec7d5bd14f71427d1e84f3dd0314c0f7b2291e5b200ac8c7c3b925\n      mload(0x40)\n      mload(0x40)\n      dup1\n      swap2\n      sub\n      swap1\n      log4\n        /* \"contracts/marketplace.sol\":9217:9396  function _approve(address to, uint256 tokenId) internal virtual {\r... */\n      pop\n      pop\n      jump\t// out\n        /* \"contracts/marketplace.sol\":6202:6471  function _isApprovedOrOwner(address spender, uint256 tokenId) internal view virtual returns (bool) {\r... */\n    tag_224:\n        /* \"contracts/marketplace.sol\":6295:6299  bool */\n      0x00\n        /* \"contracts/marketplace.sol\":6312:6325  address owner */\n      dup1\n        /* \"contracts/marketplace.sol\":6328:6356  marketplace.ownerOf(tokenId) */\n      tag_360\n        /* \"contracts/marketplace.sol\":6348:6355  tokenId */\n      dup4\n        /* \"contracts/marketplace.sol\":6328:6347  marketplace.ownerOf */\n      tag_90\n        /* \"contracts/marketplace.sol\":6328:6356  marketplace.ownerOf(tokenId) */\n      jump\t// in\n    tag_360:\n        /* \"contracts/marketplace.sol\":6312:6356  address owner = marketplace.ownerOf(tokenId) */\n      swap1\n      pop\n        /* \"contracts/marketplace.sol\":6386:6391  owner */\n      dup1\n        /* \"contracts/marketplace.sol\":6375:6391  spender == owner */\n      0xffffffffffffffffffffffffffffffffffffffff\n      and\n        /* \"contracts/marketplace.sol\":6375:6382  spender */\n      dup5\n        /* \"contracts/marketplace.sol\":6375:6391  spender == owner */\n      0xffffffffffffffffffffffffffffffffffffffff\n      and\n      eq\n        /* \"contracts/marketplace.sol\":6375:6427  spender == owner || isApprovedForAll(owner, spender) */\n      dup1\n      tag_361\n      jumpi\n      pop\n        /* \"contracts/marketplace.sol\":6395:6427  isApprovedForAll(owner, spender) */\n      tag_362\n        /* \"contracts/marketplace.sol\":6412:6417  owner */\n      dup2\n        /* \"contracts/marketplace.sol\":6419:6426  spender */\n      dup6\n        /* \"contracts/marketplace.sol\":6395:6411  isApprovedForAll */\n      tag_137\n        /* \"contracts/marketplace.sol\":6395:6427  isApprovedForAll(owner, spender) */\n      jump\t// in\n    tag_362:\n        /* \"contracts/marketplace.sol\":6375:6427  spender == owner || isApprovedForAll(owner, spender) */\n    tag_361:\n        /* \"contracts/marketplace.sol\":6375:6462  spender == owner || isApprovedForAll(owner, spender) || getApproved(tokenId) == spender */\n      dup1\n      tag_363\n      jumpi\n      pop\n        /* \"contracts/marketplace.sol\":6455:6462  spender */\n      dup4\n        /* \"contracts/marketplace.sol\":6431:6462  getApproved(tokenId) == spender */\n      0xffffffffffffffffffffffffffffffffffffffff\n      and\n        /* \"contracts/marketplace.sol\":6431:6451  getApproved(tokenId) */\n      tag_364\n        /* \"contracts/marketplace.sol\":6443:6450  tokenId */\n      dup5\n        /* \"contracts/marketplace.sol\":6431:6442  getApproved */\n      tag_49\n        /* \"contracts/marketplace.sol\":6431:6451  getApproved(tokenId) */\n      jump\t// in\n    tag_364:\n        /* \"contracts/marketplace.sol\":6431:6462  getApproved(tokenId) == spender */\n      0xffffffffffffffffffffffffffffffffffffffff\n      and\n      eq\n        /* \"contracts/marketplace.sol\":6375:6462  spender == owner || isApprovedForAll(owner, spender) || getApproved(tokenId) == spender */\n    tag_363:\n        /* \"contracts/marketplace.sol\":6367:6463  return (spender == owner || isApprovedForAll(owner, spender) || getApproved(tokenId) == spender) */\n      swap2\n      pop\n      pop\n        /* \"contracts/marketplace.sol\":6202:6471  function _isApprovedOrOwner(address spender, uint256 tokenId) internal view virtual returns (bool) {\r... */\n      swap3\n      swap2\n      pop\n      pop\n      jump\t// out\n        /* \"contracts/marketplace.sol\":8434:9207  function _transfer(\r... */\n    tag_229:\n        /* \"contracts/marketplace.sol\":8598:8602  from */\n      dup3\n        /* \"contracts/marketplace.sol\":8566:8602  marketplace.ownerOf(tokenId) == from */\n      0xffffffffffffffffffffffffffffffffffffffff\n      and\n        /* \"contracts/marketplace.sol\":8566:8594  marketplace.ownerOf(tokenId) */\n      tag_366\n        /* \"contracts/marketplace.sol\":8586:8593  tokenId */\n      dup3\n        /* \"contracts/marketplace.sol\":8566:8585  marketplace.ownerOf */\n      tag_90\n        /* \"contracts/marketplace.sol\":8566:8594  marketplace.ownerOf(tokenId) */\n      jump\t// in\n    tag_366:\n        /* \"contracts/marketplace.sol\":8566:8602  marketplace.ownerOf(tokenId) == from */\n      0xffffffffffffffffffffffffffffffffffffffff\n      and\n      eq\n        /* \"contracts/marketplace.sol\":8558:8644  require(marketplace.ownerOf(tokenId) == from, \"ERC721: transfer from incorrect owner\") */\n      tag_367\n      jumpi\n      mload(0x40)\n      0x08c379a000000000000000000000000000000000000000000000000000000000\n      dup2\n      mstore\n      0x04\n      add\n      tag_368\n      swap1\n      tag_369\n      jump\t// in\n    tag_368:\n      mload(0x40)\n      dup1\n      swap2\n      sub\n      swap1\n      revert\n    tag_367:\n        /* \"contracts/marketplace.sol\":8677:8678  0 */\n      0x00\n        /* \"contracts/marketplace.sol\":8663:8679  to != address(0) */\n      0xffffffffffffffffffffffffffffffffffffffff\n      and\n        /* \"contracts/marketplace.sol\":8663:8665  to */\n      dup3\n        /* \"contracts/marketplace.sol\":8663:8679  to != address(0) */\n      0xffffffffffffffffffffffffffffffffffffffff\n      and\n      eq\n      iszero\n        /* \"contracts/marketplace.sol\":8655:8720  require(to != address(0), \"ERC721: transfer to the zero address\") */\n      tag_370\n      jumpi\n      mload(0x40)\n      0x08c379a000000000000000000000000000000000000000000000000000000000\n      dup2\n      mstore\n      0x04\n      add\n      tag_371\n      swap1\n      tag_372\n      jump\t// in\n    tag_371:\n      mload(0x40)\n      dup1\n      swap2\n      sub\n      swap1\n      revert\n    tag_370:\n        /* \"contracts/marketplace.sol\":8733:8772  _beforeTokenTransfer(from, to, tokenId) */\n      tag_373\n        /* \"contracts/marketplace.sol\":8754:8758  from */\n      dup4\n        /* \"contracts/marketplace.sol\":8760:8762  to */\n      dup4\n        /* \"contracts/marketplace.sol\":8764:8771  tokenId */\n      dup4\n        /* \"contracts/marketplace.sol\":8733:8753  _beforeTokenTransfer */\n      tag_374\n        /* \"contracts/marketplace.sol\":8733:8772  _beforeTokenTransfer(from, to, tokenId) */\n      jump\t// in\n    tag_373:\n        /* \"contracts/marketplace.sol\":8825:8829  from */\n      dup3\n        /* \"contracts/marketplace.sol\":8793:8829  marketplace.ownerOf(tokenId) == from */\n      0xffffffffffffffffffffffffffffffffffffffff\n      and\n        /* \"contracts/marketplace.sol\":8793:8821  marketplace.ownerOf(tokenId) */\n      tag_375\n        /* \"contracts/marketplace.sol\":8813:8820  tokenId */\n      dup3\n        /* \"contracts/marketplace.sol\":8793:8812  marketplace.ownerOf */\n      tag_90\n        /* \"contracts/marketplace.sol\":8793:8821  marketplace.ownerOf(tokenId) */\n      jump\t// in\n    tag_375:\n        /* \"contracts/marketplace.sol\":8793:8829  marketplace.ownerOf(tokenId) == from */\n      0xffffffffffffffffffffffffffffffffffffffff\n      and\n      eq\n        /* \"contracts/marketplace.sol\":8785:8871  require(marketplace.ownerOf(tokenId) == from, \"ERC721: transfer from incorrect owner\") */\n      tag_376\n      jumpi\n      mload(0x40)\n      0x08c379a000000000000000000000000000000000000000000000000000000000\n      dup2\n      mstore\n      0x04\n      add\n      tag_377\n      swap1\n      tag_369\n      jump\t// in\n    tag_377:\n      mload(0x40)\n      dup1\n      swap2\n      sub\n      swap1\n      revert\n    tag_376:\n        /* \"contracts/marketplace.sol\":8943:8958  _tokenApprovals */\n      0x06\n        /* \"contracts/marketplace.sol\":8943:8967  _tokenApprovals[tokenId] */\n      0x00\n        /* \"contracts/marketplace.sol\":8959:8966  tokenId */\n      dup3\n        /* \"contracts/marketplace.sol\":8943:8967  _tokenApprovals[tokenId] */\n      dup2\n      mstore\n      0x20\n      add\n      swap1\n      dup2\n      mstore\n      0x20\n      add\n      0x00\n      keccak256\n      0x00\n        /* \"contracts/marketplace.sol\":8936:8967  delete _tokenApprovals[tokenId] */\n      0x0100\n      exp\n      dup2\n      sload\n      swap1\n      0xffffffffffffffffffffffffffffffffffffffff\n      mul\n      not\n      and\n      swap1\n      sstore\n        /* \"contracts/marketplace.sol\":9026:9027  1 */\n      0x01\n        /* \"contracts/marketplace.sol\":9007:9016  _balances */\n      0x05\n        /* \"contracts/marketplace.sol\":9007:9022  _balances[from] */\n      0x00\n        /* \"contracts/marketplace.sol\":9017:9021  from */\n      dup6\n        /* \"contracts/marketplace.sol\":9007:9022  _balances[from] */\n      0xffffffffffffffffffffffffffffffffffffffff\n      and\n      0xffffffffffffffffffffffffffffffffffffffff\n      and\n      dup2\n      mstore\n      0x20\n      add\n      swap1\n      dup2\n      mstore\n      0x20\n      add\n      0x00\n      keccak256\n      0x00\n        /* \"contracts/marketplace.sol\":9007:9027  _balances[from] -= 1 */\n      dup3\n      dup3\n      sload\n      sub\n      swap3\n      pop\n      pop\n      dup2\n      swap1\n      sstore\n      pop\n        /* \"contracts/marketplace.sol\":9059:9060  1 */\n      0x01\n        /* \"contracts/marketplace.sol\":9042:9051  _balances */\n      0x05\n        /* \"contracts/marketplace.sol\":9042:9055  _balances[to] */\n      0x00\n        /* \"contracts/marketplace.sol\":9052:9054  to */\n      dup5\n        /* \"contracts/marketplace.sol\":9042:9055  _balances[to] */\n      0xffffffffffffffffffffffffffffffffffffffff\n      and\n      0xffffffffffffffffffffffffffffffffffffffff\n      and\n      dup2\n      mstore\n      0x20\n      add\n      swap1\n      dup2\n      mstore\n      0x20\n      add\n      0x00\n      keccak256\n      0x00\n        /* \"contracts/marketplace.sol\":9042:9060  _balances[to] += 1 */\n      dup3\n      dup3\n      sload\n      add\n      swap3\n      pop\n      pop\n      dup2\n      swap1\n      sstore\n      pop\n        /* \"contracts/marketplace.sol\":9101:9103  to */\n      dup2\n        /* \"contracts/marketplace.sol\":9082:9089  _owners */\n      0x03\n        /* \"contracts/marketplace.sol\":9082:9098  _owners[tokenId] */\n      0x00\n        /* \"contracts/marketplace.sol\":9090:9097  tokenId */\n      dup4\n        /* \"contracts/marketplace.sol\":9082:9098  _owners[tokenId] */\n      dup2\n      mstore\n      0x20\n      add\n      swap1\n      dup2\n      mstore\n      0x20\n      add\n      0x00\n      keccak256\n      0x00\n        /* \"contracts/marketplace.sol\":9082:9103  _owners[tokenId] = to */\n      0x0100\n      exp\n      dup2\n      sload\n      dup2\n      0xffffffffffffffffffffffffffffffffffffffff\n      mul\n      not\n      and\n      swap1\n      dup4\n      0xffffffffffffffffffffffffffffffffffffffff\n      and\n      mul\n      or\n      swap1\n      sstore\n      pop\n        /* \"contracts/marketplace.sol\":9140:9147  tokenId */\n      dup1\n        /* \"contracts/marketplace.sol\":9136:9138  to */\n      dup3\n        /* \"contracts/marketplace.sol\":9121:9148  Transfer(from, to, tokenId) */\n      0xffffffffffffffffffffffffffffffffffffffff\n      and\n        /* \"contracts/marketplace.sol\":9130:9134  from */\n      dup5\n        /* \"contracts/marketplace.sol\":9121:9148  Transfer(from, to, tokenId) */\n      0xffffffffffffffffffffffffffffffffffffffff\n      and\n      0xddf252ad1be2c89b69c2b068fc378daa952ba7f163c4a11628f55a4df523b3ef\n      mload(0x40)\n      mload(0x40)\n      dup1\n      swap2\n      sub\n      swap1\n      log4\n        /* \"contracts/marketplace.sol\":9161:9199  _afterTokenTransfer(from, to, tokenId) */\n      tag_378\n        /* \"contracts/marketplace.sol\":9181:9185  from */\n      dup4\n        /* \"contracts/marketplace.sol\":9187:9189  to */\n      dup4\n        /* \"contracts/marketplace.sol\":9191:9198  tokenId */\n      dup4\n        /* \"contracts/marketplace.sol\":9161:9180  _afterTokenTransfer */\n      tag_379\n        /* \"contracts/marketplace.sol\":9161:9199  _afterTokenTransfer(from, to, tokenId) */\n      jump\t// in\n    tag_378:\n        /* \"contracts/marketplace.sol\":8434:9207  function _transfer(\r... */\n      pop\n      pop\n      pop\n      jump\t// out\n        /* \"@openzeppelin/contracts@4.6.0/utils/Counters.sol\":1074:1303  function decrement(Counter storage counter) internal {... */\n    tag_247:\n        /* \"@openzeppelin/contracts@4.6.0/utils/Counters.sol\":1137:1150  uint256 value */\n      0x00\n        /* \"@openzeppelin/contracts@4.6.0/utils/Counters.sol\":1153:1160  counter */\n      dup2\n        /* \"@openzeppelin/contracts@4.6.0/utils/Counters.sol\":1153:1167  counter._value */\n      0x00\n      add\n      sload\n        /* \"@openzeppelin/contracts@4.6.0/utils/Counters.sol\":1137:1167  uint256 value = counter._value */\n      swap1\n      pop\n        /* \"@openzeppelin/contracts@4.6.0/utils/Counters.sol\":1193:1194  0 */\n      0x00\n        /* \"@openzeppelin/contracts@4.6.0/utils/Counters.sol\":1185:1190  value */\n      dup2\n        /* \"@openzeppelin/contracts@4.6.0/utils/Counters.sol\":1185:1194  value > 0 */\n      gt\n        /* \"@openzeppelin/contracts@4.6.0/utils/Counters.sol\":1177:1226  require(value > 0, \"Counter: decrement overflow\") */\n      tag_381\n      jumpi\n      mload(0x40)\n      0x08c379a000000000000000000000000000000000000000000000000000000000\n      dup2\n      mstore\n      0x04\n      add\n      tag_382\n      swap1\n      tag_383\n      jump\t// in\n    tag_382:\n      mload(0x40)\n      dup1\n      swap2\n      sub\n      swap1\n      revert\n    tag_381:\n        /* \"@openzeppelin/contracts@4.6.0/utils/Counters.sol\":1285:1286  1 */\n      0x01\n        /* \"@openzeppelin/contracts@4.6.0/utils/Counters.sol\":1277:1282  value */\n      dup2\n        /* \"@openzeppelin/contracts@4.6.0/utils/Counters.sol\":1277:1286  value - 1 */\n      sub\n        /* \"@openzeppelin/contracts@4.6.0/utils/Counters.sol\":1260:1267  counter */\n      dup3\n        /* \"@openzeppelin/contracts@4.6.0/utils/Counters.sol\":1260:1274  counter._value */\n      0x00\n      add\n        /* \"@openzeppelin/contracts@4.6.0/utils/Counters.sol\":1260:1286  counter._value = value - 1 */\n      dup2\n      swap1\n      sstore\n      pop\n        /* \"@openzeppelin/contracts@4.6.0/utils/Counters.sol\":1074:1303  function decrement(Counter storage counter) internal {... */\n      pop\n      pop\n      jump\t// out\n        /* \"@openzeppelin/contracts@4.6.0/utils/Counters.sol\":945:1068  function increment(Counter storage counter) internal {... */\n    tag_269:\n        /* \"@openzeppelin/contracts@4.6.0/utils/Counters.sol\":1050:1051  1 */\n      0x01\n        /* \"@openzeppelin/contracts@4.6.0/utils/Counters.sol\":1032:1039  counter */\n      dup2\n        /* \"@openzeppelin/contracts@4.6.0/utils/Counters.sol\":1032:1046  counter._value */\n      0x00\n      add\n      0x00\n        /* \"@openzeppelin/contracts@4.6.0/utils/Counters.sol\":1032:1051  counter._value += 1 */\n      dup3\n      dup3\n      sload\n      add\n      swap3\n      pop\n      pop\n      dup2\n      swap1\n      sstore\n      pop\n        /* \"@openzeppelin/contracts@4.6.0/utils/Counters.sol\":945:1068  function increment(Counter storage counter) internal {... */\n      pop\n      jump\t// out\n        /* \"contracts/marketplace.sol\":9404:9719  function _setApprovalForAll(\r... */\n    tag_310:\n        /* \"contracts/marketplace.sol\":9559:9567  operator */\n      dup2\n        /* \"contracts/marketplace.sol\":9550:9567  owner != operator */\n      0xffffffffffffffffffffffffffffffffffffffff\n      and\n        /* \"contracts/marketplace.sol\":9550:9555  owner */\n      dup4\n        /* \"contracts/marketplace.sol\":9550:9567  owner != operator */\n      0xffffffffffffffffffffffffffffffffffffffff\n      and\n      eq\n      iszero\n        /* \"contracts/marketplace.sol\":9542:9597  require(owner != operator, \"ERC721: approve to caller\") */\n      tag_386\n      jumpi\n      mload(0x40)\n      0x08c379a000000000000000000000000000000000000000000000000000000000\n      dup2\n      mstore\n      0x04\n      add\n      tag_387\n      swap1\n      tag_388\n      jump\t// in\n    tag_387:\n      mload(0x40)\n      dup1\n      swap2\n      sub\n      swap1\n      revert\n    tag_386:\n        /* \"contracts/marketplace.sol\":9646:9654  approved */\n      dup1\n        /* \"contracts/marketplace.sol\":9608:9626  _operatorApprovals */\n      0x07\n        /* \"contracts/marketplace.sol\":9608:9633  _operatorApprovals[owner] */\n      0x00\n        /* \"contracts/marketplace.sol\":9627:9632  owner */\n      dup6\n        /* \"contracts/marketplace.sol\":9608:9633  _operatorApprovals[owner] */\n      0xffffffffffffffffffffffffffffffffffffffff\n      and\n      0xffffffffffffffffffffffffffffffffffffffff\n      and\n      dup2\n      mstore\n      0x20\n      add\n      swap1\n      dup2\n      mstore\n      0x20\n      add\n      0x00\n      keccak256\n        /* \"contracts/marketplace.sol\":9608:9643  _operatorApprovals[owner][operator] */\n      0x00\n        /* \"contracts/marketplace.sol\":9634:9642  operator */\n      dup5\n        /* \"contracts/marketplace.sol\":9608:9643  _operatorApprovals[owner][operator] */\n      0xffffffffffffffffffffffffffffffffffffffff\n      and\n      0xffffffffffffffffffffffffffffffffffffffff\n      and\n      dup2\n      mstore\n      0x20\n      add\n      swap1\n      dup2\n      mstore\n      0x20\n      add\n      0x00\n      keccak256\n      0x00\n        /* \"contracts/marketplace.sol\":9608:9654  _operatorApprovals[owner][operator] = approved */\n      0x0100\n      exp\n      dup2\n      sload\n      dup2\n      0xff\n      mul\n      not\n      and\n      swap1\n      dup4\n      iszero\n      iszero\n      mul\n      or\n      swap1\n      sstore\n      pop\n        /* \"contracts/marketplace.sol\":9692:9700  operator */\n      dup2\n        /* \"contracts/marketplace.sol\":9670:9711  ApprovalForAll(owner, operator, approved) */\n      0xffffffffffffffffffffffffffffffffffffffff\n      and\n        /* \"contracts/marketplace.sol\":9685:9690  owner */\n      dup4\n        /* \"contracts/marketplace.sol\":9670:9711  ApprovalForAll(owner, operator, approved) */\n      0xffffffffffffffffffffffffffffffffffffffff\n      and\n      0x17307eab39ab6107e8899845ad3d59bd9653f200f220920489ca2b5937696c31\n        /* \"contracts/marketplace.sol\":9702:9710  approved */\n      dup4\n        /* \"contracts/marketplace.sol\":9670:9711  ApprovalForAll(owner, operator, approved) */\n      mload(0x40)\n      tag_389\n      swap2\n      swap1\n      tag_34\n      jump\t// in\n    tag_389:\n      mload(0x40)\n      dup1\n      swap2\n      sub\n      swap1\n      log3\n        /* \"contracts/marketplace.sol\":9404:9719  function _setApprovalForAll(\r... */\n      pop\n      pop\n      pop\n      jump\t// out\n        /* \"contracts/marketplace.sol\":6479:6623  function _safeMint(address to,address collaborator ,uint256 tokenId) internal virtual {\r... */\n    tag_313:\n        /* \"contracts/marketplace.sol\":6576:6615  _safeMint(to, collaborator,tokenId, \"\") */\n      tag_391\n        /* \"contracts/marketplace.sol\":6586:6588  to */\n      dup4\n        /* \"contracts/marketplace.sol\":6590:6602  collaborator */\n      dup4\n        /* \"contracts/marketplace.sol\":6603:6610  tokenId */\n      dup4\n        /* \"contracts/marketplace.sol\":6576:6615  _safeMint(to, collaborator,tokenId, \"\") */\n      mload(0x40)\n      dup1\n      0x20\n      add\n      0x40\n      mstore\n      dup1\n      0x00\n      dup2\n      mstore\n      pop\n        /* \"contracts/marketplace.sol\":6576:6585  _safeMint */\n      tag_392\n        /* \"contracts/marketplace.sol\":6576:6615  _safeMint(to, collaborator,tokenId, \"\") */\n      jump\t// in\n    tag_391:\n        /* \"contracts/marketplace.sol\":6479:6623  function _safeMint(address to,address collaborator ,uint256 tokenId) internal virtual {\r... */\n      pop\n      pop\n      pop\n      jump\t// out\n        /* \"contracts/marketplace.sol\":8207:8424  function _setTokenURI(uint256 tokenId, string memory _tokenURI) internal virtual {\r... */\n    tag_315:\n        /* \"contracts/marketplace.sol\":8307:8323  _exists(tokenId) */\n      tag_394\n        /* \"contracts/marketplace.sol\":8315:8322  tokenId */\n      dup3\n        /* \"contracts/marketplace.sol\":8307:8314  _exists */\n      tag_353\n        /* \"contracts/marketplace.sol\":8307:8323  _exists(tokenId) */\n      jump\t// in\n    tag_394:\n        /* \"contracts/marketplace.sol\":8299:8374  require(_exists(tokenId), \"ERC721URIStorage: URI set of nonexistent token\") */\n      tag_395\n      jumpi\n      mload(0x40)\n      0x08c379a000000000000000000000000000000000000000000000000000000000\n      dup2\n      mstore\n      0x04\n      add\n      tag_396\n      swap1\n      tag_397\n      jump\t// in\n    tag_396:\n      mload(0x40)\n      dup1\n      swap2\n      sub\n      swap1\n      revert\n    tag_395:\n        /* \"contracts/marketplace.sol\":8407:8416  _tokenURI */\n      dup1\n        /* \"contracts/marketplace.sol\":8385:8395  _tokenURIs */\n      0x08\n        /* \"contracts/marketplace.sol\":8385:8404  _tokenURIs[tokenId] */\n      0x00\n        /* \"contracts/marketplace.sol\":8396:8403  tokenId */\n      dup5\n        /* \"contracts/marketplace.sol\":8385:8404  _tokenURIs[tokenId] */\n      dup2\n      mstore\n      0x20\n      add\n      swap1\n      dup2\n      mstore\n      0x20\n      add\n      0x00\n      keccak256\n        /* \"contracts/marketplace.sol\":8385:8416  _tokenURIs[tokenId] = _tokenURI */\n      swap1\n      dup1\n      mload\n      swap1\n      0x20\n      add\n      swap1\n      tag_398\n      swap3\n      swap2\n      swap1\n      tag_399\n      jump\t// in\n    tag_398:\n      pop\n        /* \"contracts/marketplace.sol\":8207:8424  function _setTokenURI(uint256 tokenId, string memory _tokenURI) internal virtual {\r... */\n      pop\n      pop\n      jump\t// out\n        /* \"contracts/marketplace.sol\":5744:6057  function _safeTransfer(\r... */\n    tag_322:\n        /* \"contracts/marketplace.sol\":5900:5928  _transfer(from, to, tokenId) */\n      tag_401\n        /* \"contracts/marketplace.sol\":5910:5914  from */\n      dup5\n        /* \"contracts/marketplace.sol\":5916:5918  to */\n      dup5\n        /* \"contracts/marketplace.sol\":5920:5927  tokenId */\n      dup5\n        /* \"contracts/marketplace.sol\":5900:5909  _transfer */\n      tag_229\n        /* \"contracts/marketplace.sol\":5900:5928  _transfer(from, to, tokenId) */\n      jump\t// in\n    tag_401:\n        /* \"contracts/marketplace.sol\":5947:5994  _checkOnERC721Received(from, to, tokenId, data) */\n      tag_402\n        /* \"contracts/marketplace.sol\":5970:5974  from */\n      dup5\n        /* \"contracts/marketplace.sol\":5976:5978  to */\n      dup5\n        /* \"contracts/marketplace.sol\":5980:5987  tokenId */\n      dup5\n        /* \"contracts/marketplace.sol\":5989:5993  data */\n      dup5\n        /* \"contracts/marketplace.sol\":5947:5969  _checkOnERC721Received */\n      tag_403\n        /* \"contracts/marketplace.sol\":5947:5994  _checkOnERC721Received(from, to, tokenId, data) */\n      jump\t// in\n    tag_402:\n        /* \"contracts/marketplace.sol\":5939:6049  require(_checkOnERC721Received(from, to, tokenId, data), \"ERC721: transfer to non ERC721Receiver implementer\") */\n      tag_404\n      jumpi\n      mload(0x40)\n      0x08c379a000000000000000000000000000000000000000000000000000000000\n      dup2\n      mstore\n      0x04\n      add\n      tag_405\n      swap1\n      tag_406\n      jump\t// in\n    tag_405:\n      mload(0x40)\n      dup1\n      swap2\n      sub\n      swap1\n      revert\n    tag_404:\n        /* \"contracts/marketplace.sol\":5744:6057  function _safeTransfer(\r... */\n      pop\n      pop\n      pop\n      pop\n      jump\t// out\n        /* \"contracts/marketplace.sol\":3685:3779  function _baseURI() internal view virtual returns (string memory) {\r... */\n    tag_327:\n        /* \"contracts/marketplace.sol\":3736:3749  string memory */\n      0x60\n        /* \"contracts/marketplace.sol\":3762:3771  return \"\" */\n      mload(0x40)\n      dup1\n      0x20\n      add\n      0x40\n      mstore\n      dup1\n      0x00\n      dup2\n      mstore\n      pop\n      swap1\n      pop\n        /* \"contracts/marketplace.sol\":3685:3779  function _baseURI() internal view virtual returns (string memory) {\r... */\n      swap1\n      jump\t// out\n        /* \"@openzeppelin/contracts@4.6.0/utils/Strings.sol\":328:1031  function toString(uint256 value) internal pure returns (string memory) {... */\n    tag_331:\n        /* \"@openzeppelin/contracts@4.6.0/utils/Strings.sol\":384:397  string memory */\n      0x60\n        /* \"@openzeppelin/contracts@4.6.0/utils/Strings.sol\":610:611  0 */\n      0x00\n        /* \"@openzeppelin/contracts@4.6.0/utils/Strings.sol\":601:606  value */\n      dup3\n        /* \"@openzeppelin/contracts@4.6.0/utils/Strings.sol\":601:611  value == 0 */\n      eq\n        /* \"@openzeppelin/contracts@4.6.0/utils/Strings.sol\":597:648  if (value == 0) {... */\n      iszero\n      tag_409\n      jumpi\n        /* \"@openzeppelin/contracts@4.6.0/utils/Strings.sol\":627:637  return \"0\" */\n      mload(0x40)\n      dup1\n      0x40\n      add\n      0x40\n      mstore\n      dup1\n      0x01\n      dup2\n      mstore\n      0x20\n      add\n      0x3000000000000000000000000000000000000000000000000000000000000000\n      dup2\n      mstore\n      pop\n      swap1\n      pop\n      jump(tag_408)\n        /* \"@openzeppelin/contracts@4.6.0/utils/Strings.sol\":597:648  if (value == 0) {... */\n    tag_409:\n        /* \"@openzeppelin/contracts@4.6.0/utils/Strings.sol\":657:669  uint256 temp */\n      0x00\n        /* \"@openzeppelin/contracts@4.6.0/utils/Strings.sol\":672:677  value */\n      dup3\n        /* \"@openzeppelin/contracts@4.6.0/utils/Strings.sol\":657:677  uint256 temp = value */\n      swap1\n      pop\n        /* \"@openzeppelin/contracts@4.6.0/utils/Strings.sol\":687:701  uint256 digits */\n      0x00\n        /* \"@openzeppelin/contracts@4.6.0/utils/Strings.sol\":711:786  while (temp != 0) {... */\n    tag_410:\n        /* \"@openzeppelin/contracts@4.6.0/utils/Strings.sol\":726:727  0 */\n      0x00\n        /* \"@openzeppelin/contracts@4.6.0/utils/Strings.sol\":718:722  temp */\n      dup3\n        /* \"@openzeppelin/contracts@4.6.0/utils/Strings.sol\":718:727  temp != 0 */\n      eq\n        /* \"@openzeppelin/contracts@4.6.0/utils/Strings.sol\":711:786  while (temp != 0) {... */\n      tag_411\n      jumpi\n        /* \"@openzeppelin/contracts@4.6.0/utils/Strings.sol\":743:751  digits++ */\n      dup1\n      dup1\n      tag_412\n      swap1\n      tag_154\n      jump\t// in\n    tag_412:\n      swap2\n      pop\n      pop\n        /* \"@openzeppelin/contracts@4.6.0/utils/Strings.sol\":773:775  10 */\n      0x0a\n        /* \"@openzeppelin/contracts@4.6.0/utils/Strings.sol\":765:775  temp /= 10 */\n      dup3\n      tag_413\n      swap2\n      swap1\n      tag_414\n      jump\t// in\n    tag_413:\n      swap2\n      pop\n        /* \"@openzeppelin/contracts@4.6.0/utils/Strings.sol\":711:786  while (temp != 0) {... */\n      jump(tag_410)\n    tag_411:\n        /* \"@openzeppelin/contracts@4.6.0/utils/Strings.sol\":795:814  bytes memory buffer */\n      0x00\n        /* \"@openzeppelin/contracts@4.6.0/utils/Strings.sol\":827:833  digits */\n      dup2\n        /* \"@openzeppelin/contracts@4.6.0/utils/Strings.sol\":817:834  new bytes(digits) */\n      0xffffffffffffffff\n      dup2\n      gt\n      iszero\n      tag_415\n      jumpi\n      mstore(0x00, 0x4e487b7100000000000000000000000000000000000000000000000000000000)\n      mstore(0x04, 0x41)\n      revert(0x00, 0x24)\n    tag_415:\n      mload(0x40)\n      swap1\n      dup1\n      dup3\n      mstore\n      dup1\n      0x1f\n      add\n      not(0x1f)\n      and\n      0x20\n      add\n      dup3\n      add\n      0x40\n      mstore\n      dup1\n      iszero\n      tag_416\n      jumpi\n      dup2\n      0x20\n      add\n      0x01\n      dup3\n      mul\n      dup1\n      calldatasize\n      dup4\n      calldatacopy\n      dup1\n      dup3\n      add\n      swap2\n      pop\n      pop\n      swap1\n      pop\n    tag_416:\n      pop\n        /* \"@openzeppelin/contracts@4.6.0/utils/Strings.sol\":795:834  bytes memory buffer = new bytes(digits) */\n      swap1\n      pop\n        /* \"@openzeppelin/contracts@4.6.0/utils/Strings.sol\":844:994  while (value != 0) {... */\n    tag_417:\n        /* \"@openzeppelin/contracts@4.6.0/utils/Strings.sol\":860:861  0 */\n      0x00\n        /* \"@openzeppelin/contracts@4.6.0/utils/Strings.sol\":851:856  value */\n      dup6\n        /* \"@openzeppelin/contracts@4.6.0/utils/Strings.sol\":851:861  value != 0 */\n      eq\n        /* \"@openzeppelin/contracts@4.6.0/utils/Strings.sol\":844:994  while (value != 0) {... */\n      tag_418\n      jumpi\n        /* \"@openzeppelin/contracts@4.6.0/utils/Strings.sol\":887:888  1 */\n      0x01\n        /* \"@openzeppelin/contracts@4.6.0/utils/Strings.sol\":877:888  digits -= 1 */\n      dup3\n      tag_419\n      swap2\n      swap1\n      tag_287\n      jump\t// in\n    tag_419:\n      swap2\n      pop\n        /* \"@openzeppelin/contracts@4.6.0/utils/Strings.sol\":953:955  10 */\n      0x0a\n        /* \"@openzeppelin/contracts@4.6.0/utils/Strings.sol\":945:950  value */\n      dup6\n        /* \"@openzeppelin/contracts@4.6.0/utils/Strings.sol\":945:955  value % 10 */\n      tag_420\n      swap2\n      swap1\n      tag_421\n      jump\t// in\n    tag_420:\n        /* \"@openzeppelin/contracts@4.6.0/utils/Strings.sol\":932:934  48 */\n      0x30\n        /* \"@openzeppelin/contracts@4.6.0/utils/Strings.sol\":932:956  48 + uint256(value % 10) */\n      tag_422\n      swap2\n      swap1\n      tag_151\n      jump\t// in\n    tag_422:\n        /* \"@openzeppelin/contracts@4.6.0/utils/Strings.sol\":919:958  bytes1(uint8(48 + uint256(value % 10))) */\n      0xf8\n      shl\n        /* \"@openzeppelin/contracts@4.6.0/utils/Strings.sol\":902:908  buffer */\n      dup2\n        /* \"@openzeppelin/contracts@4.6.0/utils/Strings.sol\":909:915  digits */\n      dup4\n        /* \"@openzeppelin/contracts@4.6.0/utils/Strings.sol\":902:916  buffer[digits] */\n      dup2\n      mload\n      dup2\n      lt\n      tag_423\n      jumpi\n      mstore(0x00, 0x4e487b7100000000000000000000000000000000000000000000000000000000)\n      mstore(0x04, 0x32)\n      revert(0x00, 0x24)\n    tag_423:\n      0x20\n      add\n      add\n        /* \"@openzeppelin/contracts@4.6.0/utils/Strings.sol\":902:958  buffer[digits] = bytes1(uint8(48 + uint256(value % 10))) */\n      swap1\n      not(0xffffffffffffffffffffffffffffffffffffffffffffffffffffffffffffff)\n      and\n      swap1\n      dup2\n      0x00\n      byte\n      swap1\n      mstore8\n      pop\n        /* \"@openzeppelin/contracts@4.6.0/utils/Strings.sol\":981:983  10 */\n      0x0a\n        /* \"@openzeppelin/contracts@4.6.0/utils/Strings.sol\":972:983  value /= 10 */\n      dup6\n      tag_424\n      swap2\n      swap1\n      tag_414\n      jump\t// in\n    tag_424:\n      swap5\n      pop\n        /* \"@openzeppelin/contracts@4.6.0/utils/Strings.sol\":844:994  while (value != 0) {... */\n      jump(tag_417)\n    tag_418:\n        /* \"@openzeppelin/contracts@4.6.0/utils/Strings.sol\":1017:1023  buffer */\n      dup1\n        /* \"@openzeppelin/contracts@4.6.0/utils/Strings.sol\":1003:1024  return string(buffer) */\n      swap4\n      pop\n      pop\n      pop\n      pop\n        /* \"@openzeppelin/contracts@4.6.0/utils/Strings.sol\":328:1031  function toString(uint256 value) internal pure returns (string memory) {... */\n    tag_408:\n      swap2\n      swap1\n      pop\n      jump\t// out\n        /* \"contracts/marketplace.sol\":6065:6192  function _exists(uint256 tokenId) internal view virtual returns (bool) {\r... */\n    tag_353:\n        /* \"contracts/marketplace.sol\":6130:6134  bool */\n      0x00\n        /* \"contracts/marketplace.sol\":6182:6183  0 */\n      dup1\n        /* \"contracts/marketplace.sol\":6154:6184  _owners[tokenId] != address(0) */\n      0xffffffffffffffffffffffffffffffffffffffff\n      and\n        /* \"contracts/marketplace.sol\":6154:6161  _owners */\n      0x03\n        /* \"contracts/marketplace.sol\":6154:6170  _owners[tokenId] */\n      0x00\n        /* \"contracts/marketplace.sol\":6162:6169  tokenId */\n      dup5\n        /* \"contracts/marketplace.sol\":6154:6170  _owners[tokenId] */\n      dup2\n      mstore\n      0x20\n      add\n      swap1\n      dup2\n      mstore\n      0x20\n      add\n      0x00\n      keccak256\n      0x00\n      swap1\n      sload\n      swap1\n      0x0100\n      exp\n      swap1\n      div\n      0xffffffffffffffffffffffffffffffffffffffff\n      and\n        /* \"contracts/marketplace.sol\":6154:6184  _owners[tokenId] != address(0) */\n      0xffffffffffffffffffffffffffffffffffffffff\n      and\n      eq\n      iszero\n        /* \"contracts/marketplace.sol\":6147:6184  return _owners[tokenId] != address(0) */\n      swap1\n      pop\n        /* \"contracts/marketplace.sol\":6065:6192  function _exists(uint256 tokenId) internal view virtual returns (bool) {\r... */\n      swap2\n      swap1\n      pop\n      jump\t// out\n        /* \"contracts/marketplace.sol\":10735:10861  function _beforeTokenTransfer(\r... */\n    tag_374:\n      pop\n      pop\n      pop\n      jump\t// out\n        /* \"contracts/marketplace.sol\":10869:10994  function _afterTokenTransfer(\r... */\n    tag_379:\n      pop\n      pop\n      pop\n      jump\t// out\n        /* \"contracts/marketplace.sol\":6631:6995  function _safeMint(\r... */\n    tag_392:\n        /* \"contracts/marketplace.sol\":6791:6823  _mint(to, collaborator, tokenId) */\n      tag_429\n        /* \"contracts/marketplace.sol\":6797:6799  to */\n      dup5\n        /* \"contracts/marketplace.sol\":6801:6813  collaborator */\n      dup5\n        /* \"contracts/marketplace.sol\":6815:6822  tokenId */\n      dup5\n        /* \"contracts/marketplace.sol\":6791:6796  _mint */\n      tag_430\n        /* \"contracts/marketplace.sol\":6791:6823  _mint(to, collaborator, tokenId) */\n      jump\t// in\n    tag_429:\n        /* \"contracts/marketplace.sol\":6856:6909  _checkOnERC721Received(address(0), to, tokenId, data) */\n      tag_431\n        /* \"contracts/marketplace.sol\":6887:6888  0 */\n      0x00\n        /* \"contracts/marketplace.sol\":6891:6893  to */\n      dup6\n        /* \"contracts/marketplace.sol\":6895:6902  tokenId */\n      dup5\n        /* \"contracts/marketplace.sol\":6904:6908  data */\n      dup5\n        /* \"contracts/marketplace.sol\":6856:6878  _checkOnERC721Received */\n      tag_403\n        /* \"contracts/marketplace.sol\":6856:6909  _checkOnERC721Received(address(0), to, tokenId, data) */\n      jump\t// in\n    tag_431:\n        /* \"contracts/marketplace.sol\":6834:6987  require(\r... */\n      tag_432\n      jumpi\n      mload(0x40)\n      0x08c379a000000000000000000000000000000000000000000000000000000000\n      dup2\n      mstore\n      0x04\n      add\n      tag_433\n      swap1\n      tag_406\n      jump\t// in\n    tag_433:\n      mload(0x40)\n      dup1\n      swap2\n      sub\n      swap1\n      revert\n    tag_432:\n        /* \"contracts/marketplace.sol\":6631:6995  function _safeMint(\r... */\n      pop\n      pop\n      pop\n      pop\n      jump\t// out\n        /* \"contracts/marketplace.sol\":9872:10725  function _checkOnERC721Received(\r... */\n    tag_403:\n        /* \"contracts/marketplace.sol\":10026:10030  bool */\n      0x00\n        /* \"contracts/marketplace.sol\":10047:10062  to.isContract() */\n      tag_435\n        /* \"contracts/marketplace.sol\":10047:10049  to */\n      dup5\n        /* \"contracts/marketplace.sol\":10047:10060  to.isContract */\n      0xffffffffffffffffffffffffffffffffffffffff\n      and\n      tag_436\n        /* \"contracts/marketplace.sol\":10047:10062  to.isContract() */\n      jump\t// in\n    tag_435:\n        /* \"contracts/marketplace.sol\":10043:10718  if (to.isContract()) {\r... */\n      iszero\n      tag_437\n      jumpi\n        /* \"contracts/marketplace.sol\":10099:10101  to */\n      dup4\n        /* \"contracts/marketplace.sol\":10083:10119  IERC721Receiver(to).onERC721Received */\n      0xffffffffffffffffffffffffffffffffffffffff\n      and\n      0x150b7a02\n        /* \"contracts/marketplace.sol\":10120:10132  _msgSender() */\n      tag_438\n        /* \"contracts/marketplace.sol\":10120:10130  _msgSender */\n      tag_186\n        /* \"contracts/marketplace.sol\":10120:10132  _msgSender() */\n      jump\t// in\n    tag_438:\n        /* \"contracts/marketplace.sol\":10134:10138  from */\n      dup8\n        /* \"contracts/marketplace.sol\":10140:10147  tokenId */\n      dup7\n        /* \"contracts/marketplace.sol\":10149:10153  data */\n      dup7\n        /* \"contracts/marketplace.sol\":10083:10154  IERC721Receiver(to).onERC721Received(_msgSender(), from, tokenId, data) */\n      mload(0x40)\n      dup6\n      0xffffffff\n      and\n      0xe0\n      shl\n      dup2\n      mstore\n      0x04\n      add\n      tag_439\n      swap5\n      swap4\n      swap3\n      swap2\n      swap1\n      tag_440\n      jump\t// in\n    tag_439:\n      0x20\n      mload(0x40)\n      dup1\n      dup4\n      sub\n      dup2\n      0x00\n      dup8\n      dup1\n      extcodesize\n      iszero\n      dup1\n      iszero\n      tag_441\n      jumpi\n      0x00\n      dup1\n      revert\n    tag_441:\n      pop\n      gas\n      call\n      swap3\n      pop\n      pop\n      pop\n      dup1\n      iszero\n      tag_442\n      jumpi\n      pop\n      mload(0x40)\n      returndatasize\n      not(0x1f)\n      0x1f\n      dup3\n      add\n      and\n      dup3\n      add\n      dup1\n      0x40\n      mstore\n      pop\n      dup2\n      add\n      swap1\n      tag_443\n      swap2\n      swap1\n      tag_444\n      jump\t// in\n    tag_443:\n      0x01\n    tag_442:\n        /* \"contracts/marketplace.sol\":10079:10663  try IERC721Receiver(to).onERC721Received(_msgSender(), from, tokenId, data) returns (bytes4 retval) {\r... */\n      tag_445\n      jumpi\n      returndatasize\n      dup1\n      0x00\n      dup2\n      eq\n      tag_450\n      jumpi\n      mload(0x40)\n      swap2\n      pop\n      and(add(returndatasize, 0x3f), not(0x1f))\n      dup3\n      add\n      0x40\n      mstore\n      returndatasize\n      dup3\n      mstore\n      returndatasize\n      0x00\n      0x20\n      dup5\n      add\n      returndatacopy\n      jump(tag_449)\n    tag_450:\n      0x60\n      swap2\n      pop\n    tag_449:\n      pop\n        /* \"contracts/marketplace.sol\":10341:10342  0 */\n      0x00\n        /* \"contracts/marketplace.sol\":10324:10330  reason */\n      dup2\n        /* \"contracts/marketplace.sol\":10324:10337  reason.length */\n      mload\n        /* \"contracts/marketplace.sol\":10324:10342  reason.length == 0 */\n      eq\n        /* \"contracts/marketplace.sol\":10320:10648  if (reason.length == 0) {\r... */\n      iszero\n      tag_451\n      jumpi\n        /* \"contracts/marketplace.sol\":10367:10427  revert(\"ERC721: transfer to non ERC721Receiver implementer\") */\n      mload(0x40)\n      0x08c379a000000000000000000000000000000000000000000000000000000000\n      dup2\n      mstore\n      0x04\n      add\n      tag_452\n      swap1\n      tag_406\n      jump\t// in\n    tag_452:\n      mload(0x40)\n      dup1\n      swap2\n      sub\n      swap1\n      revert\n        /* \"contracts/marketplace.sol\":10320:10648  if (reason.length == 0) {\r... */\n    tag_451:\n        /* \"contracts/marketplace.sol\":10598:10604  reason */\n      dup1\n        /* \"contracts/marketplace.sol\":10592:10605  mload(reason) */\n      mload\n        /* \"contracts/marketplace.sol\":10583:10589  reason */\n      dup2\n        /* \"contracts/marketplace.sol\":10579:10581  32 */\n      0x20\n        /* \"contracts/marketplace.sol\":10575:10590  add(32, reason) */\n      add\n        /* \"contracts/marketplace.sol\":10568:10606  revert(add(32, reason), mload(reason)) */\n      revert\n        /* \"contracts/marketplace.sol\":10079:10663  try IERC721Receiver(to).onERC721Received(_msgSender(), from, tokenId, data) returns (bytes4 retval) {\r... */\n    tag_445:\n        /* \"contracts/marketplace.sol\":10215:10256  IERC721Receiver.onERC721Received.selector */\n      shl(0xe0, 0x150b7a02)\n        /* \"contracts/marketplace.sol\":10205:10256  retval == IERC721Receiver.onERC721Received.selector */\n      not(0xffffffffffffffffffffffffffffffffffffffffffffffffffffffff)\n      and\n        /* \"contracts/marketplace.sol\":10205:10211  retval */\n      dup2\n        /* \"contracts/marketplace.sol\":10205:10256  retval == IERC721Receiver.onERC721Received.selector */\n      not(0xffffffffffffffffffffffffffffffffffffffffffffffffffffffff)\n      and\n      eq\n        /* \"contracts/marketplace.sol\":10198:10256  return retval == IERC721Receiver.onERC721Received.selector */\n      swap2\n      pop\n      pop\n      jump(tag_434)\n        /* \"contracts/marketplace.sol\":10043:10718  if (to.isContract()) {\r... */\n    tag_437:\n        /* \"contracts/marketplace.sol\":10702:10706  true */\n      0x01\n        /* \"contracts/marketplace.sol\":10695:10706  return true */\n      swap1\n      pop\n        /* \"contracts/marketplace.sol\":9872:10725  function _checkOnERC721Received(\r... */\n    tag_434:\n      swap5\n      swap4\n      pop\n      pop\n      pop\n      pop\n      jump\t// out\n        /* \"contracts/marketplace.sol\":7003:7702  function _mint(address to,address collaborator,uint256 tokenId) internal virtual {\r... */\n    tag_430:\n        /* \"contracts/marketplace.sol\":7117:7118  0 */\n      0x00\n        /* \"contracts/marketplace.sol\":7103:7119  to != address(0) */\n      0xffffffffffffffffffffffffffffffffffffffff\n      and\n        /* \"contracts/marketplace.sol\":7103:7105  to */\n      dup4\n        /* \"contracts/marketplace.sol\":7103:7119  to != address(0) */\n      0xffffffffffffffffffffffffffffffffffffffff\n      and\n      eq\n      iszero\n        /* \"contracts/marketplace.sol\":7095:7156  require(to != address(0), \"ERC721: mint to the zero address\") */\n      tag_457\n      jumpi\n      mload(0x40)\n      0x08c379a000000000000000000000000000000000000000000000000000000000\n      dup2\n      mstore\n      0x04\n      add\n      tag_458\n      swap1\n      tag_459\n      jump\t// in\n    tag_458:\n      mload(0x40)\n      dup1\n      swap2\n      sub\n      swap1\n      revert\n    tag_457:\n        /* \"contracts/marketplace.sol\":7199:7200  0 */\n      0x00\n        /* \"contracts/marketplace.sol\":7175:7201  collaborator != address(0) */\n      0xffffffffffffffffffffffffffffffffffffffff\n      and\n        /* \"contracts/marketplace.sol\":7175:7187  collaborator */\n      dup3\n        /* \"contracts/marketplace.sol\":7175:7201  collaborator != address(0) */\n      0xffffffffffffffffffffffffffffffffffffffff\n      and\n      eq\n      iszero\n        /* \"contracts/marketplace.sol\":7167:7238  require(collaborator != address(0), \"ERC721: mint to the zero address\") */\n      tag_460\n      jumpi\n      mload(0x40)\n      0x08c379a000000000000000000000000000000000000000000000000000000000\n      dup2\n      mstore\n      0x04\n      add\n      tag_461\n      swap1\n      tag_459\n      jump\t// in\n    tag_461:\n      mload(0x40)\n      dup1\n      swap2\n      sub\n      swap1\n      revert\n    tag_460:\n        /* \"contracts/marketplace.sol\":7258:7274  _exists(tokenId) */\n      tag_462\n        /* \"contracts/marketplace.sol\":7266:7273  tokenId */\n      dup2\n        /* \"contracts/marketplace.sol\":7258:7265  _exists */\n      tag_353\n        /* \"contracts/marketplace.sol\":7258:7274  _exists(tokenId) */\n      jump\t// in\n    tag_462:\n        /* \"contracts/marketplace.sol\":7257:7274  !_exists(tokenId) */\n      iszero\n        /* \"contracts/marketplace.sol\":7249:7307  require(!_exists(tokenId), \"ERC721: token already minted\") */\n      tag_463\n      jumpi\n      mload(0x40)\n      0x08c379a000000000000000000000000000000000000000000000000000000000\n      dup2\n      mstore\n      0x04\n      add\n      tag_464\n      swap1\n      tag_465\n      jump\t// in\n    tag_464:\n      mload(0x40)\n      dup1\n      swap2\n      sub\n      swap1\n      revert\n    tag_463:\n        /* \"contracts/marketplace.sol\":7320:7365  _beforeTokenTransfer(address(0), to, tokenId) */\n      tag_466\n        /* \"contracts/marketplace.sol\":7349:7350  0 */\n      0x00\n        /* \"contracts/marketplace.sol\":7353:7355  to */\n      dup5\n        /* \"contracts/marketplace.sol\":7357:7364  tokenId */\n      dup4\n        /* \"contracts/marketplace.sol\":7320:7340  _beforeTokenTransfer */\n      tag_374\n        /* \"contracts/marketplace.sol\":7320:7365  _beforeTokenTransfer(address(0), to, tokenId) */\n      jump\t// in\n    tag_466:\n        /* \"contracts/marketplace.sol\":7387:7403  _exists(tokenId) */\n      tag_467\n        /* \"contracts/marketplace.sol\":7395:7402  tokenId */\n      dup2\n        /* \"contracts/marketplace.sol\":7387:7394  _exists */\n      tag_353\n        /* \"contracts/marketplace.sol\":7387:7403  _exists(tokenId) */\n      jump\t// in\n    tag_467:\n        /* \"contracts/marketplace.sol\":7386:7403  !_exists(tokenId) */\n      iszero\n        /* \"contracts/marketplace.sol\":7378:7436  require(!_exists(tokenId), \"ERC721: token already minted\") */\n      tag_468\n      jumpi\n      mload(0x40)\n      0x08c379a000000000000000000000000000000000000000000000000000000000\n      dup2\n      mstore\n      0x04\n      add\n      tag_469\n      swap1\n      tag_465\n      jump\t// in\n    tag_469:\n      mload(0x40)\n      dup1\n      swap2\n      sub\n      swap1\n      revert\n    tag_468:\n        /* \"contracts/marketplace.sol\":7491:7492  1 */\n      0x01\n        /* \"contracts/marketplace.sol\":7474:7483  _balances */\n      0x05\n        /* \"contracts/marketplace.sol\":7474:7487  _balances[to] */\n      0x00\n        /* \"contracts/marketplace.sol\":7484:7486  to */\n      dup6\n        /* \"contracts/marketplace.sol\":7474:7487  _balances[to] */\n      0xffffffffffffffffffffffffffffffffffffffff\n      and\n      0xffffffffffffffffffffffffffffffffffffffff\n      and\n      dup2\n      mstore\n      0x20\n      add\n      swap1\n      dup2\n      mstore\n      0x20\n      add\n      0x00\n      keccak256\n      0x00\n        /* \"contracts/marketplace.sol\":7474:7492  _balances[to] += 1 */\n      dup3\n      dup3\n      sload\n      add\n      swap3\n      pop\n      pop\n      dup2\n      swap1\n      sstore\n      pop\n        /* \"contracts/marketplace.sol\":7535:7537  to */\n      dup3\n        /* \"contracts/marketplace.sol\":7516:7523  _owners */\n      0x03\n        /* \"contracts/marketplace.sol\":7516:7532  _owners[tokenId] */\n      0x00\n        /* \"contracts/marketplace.sol\":7524:7531  tokenId */\n      dup4\n        /* \"contracts/marketplace.sol\":7516:7532  _owners[tokenId] */\n      dup2\n      mstore\n      0x20\n      add\n      swap1\n      dup2\n      mstore\n      0x20\n      add\n      0x00\n      keccak256\n      0x00\n        /* \"contracts/marketplace.sol\":7516:7537  _owners[tokenId] = to */\n      0x0100\n      exp\n      dup2\n      sload\n      dup2\n      0xffffffffffffffffffffffffffffffffffffffff\n      mul\n      not\n      and\n      swap1\n      dup4\n      0xffffffffffffffffffffffffffffffffffffffff\n      and\n      mul\n      or\n      swap1\n      sstore\n      pop\n        /* \"contracts/marketplace.sol\":7574:7586  collaborator */\n      dup2\n        /* \"contracts/marketplace.sol\":7548:7562  _collaborators */\n      0x04\n        /* \"contracts/marketplace.sol\":7548:7571  _collaborators[tokenId] */\n      0x00\n        /* \"contracts/marketplace.sol\":7563:7570  tokenId */\n      dup4\n        /* \"contracts/marketplace.sol\":7548:7571  _collaborators[tokenId] */\n      dup2\n      mstore\n      0x20\n      add\n      swap1\n      dup2\n      mstore\n      0x20\n      add\n      0x00\n      keccak256\n      0x00\n        /* \"contracts/marketplace.sol\":7548:7586  _collaborators[tokenId] = collaborator */\n      0x0100\n      exp\n      dup2\n      sload\n      dup2\n      0xffffffffffffffffffffffffffffffffffffffff\n      mul\n      not\n      and\n      swap1\n      dup4\n      0xffffffffffffffffffffffffffffffffffffffff\n      and\n      mul\n      or\n      swap1\n      sstore\n      pop\n        /* \"contracts/marketplace.sol\":7629:7636  tokenId */\n      dup1\n        /* \"contracts/marketplace.sol\":7625:7627  to */\n      dup4\n        /* \"contracts/marketplace.sol\":7604:7637  Transfer(address(0), to, tokenId) */\n      0xffffffffffffffffffffffffffffffffffffffff\n      and\n        /* \"contracts/marketplace.sol\":7621:7622  0 */\n      0x00\n        /* \"contracts/marketplace.sol\":7604:7637  Transfer(address(0), to, tokenId) */\n      0xffffffffffffffffffffffffffffffffffffffff\n      and\n      0xddf252ad1be2c89b69c2b068fc378daa952ba7f163c4a11628f55a4df523b3ef\n      mload(0x40)\n      mload(0x40)\n      dup1\n      swap2\n      sub\n      swap1\n      log4\n        /* \"contracts/marketplace.sol\":7650:7694  _afterTokenTransfer(address(0), to, tokenId) */\n      tag_470\n        /* \"contracts/marketplace.sol\":7678:7679  0 */\n      0x00\n        /* \"contracts/marketplace.sol\":7682:7684  to */\n      dup5\n        /* \"contracts/marketplace.sol\":7686:7693  tokenId */\n      dup4\n        /* \"contracts/marketplace.sol\":7650:7669  _afterTokenTransfer */\n      tag_379\n        /* \"contracts/marketplace.sol\":7650:7694  _afterTokenTransfer(address(0), to, tokenId) */\n      jump\t// in\n    tag_470:\n        /* \"contracts/marketplace.sol\":7003:7702  function _mint(address to,address collaborator,uint256 tokenId) internal virtual {\r... */\n      pop\n      pop\n      pop\n      jump\t// out\n        /* \"@openzeppelin/contracts@4.6.0/utils/Address.sol\":1175:1495  function isContract(address account) internal view returns (bool) {... */\n    tag_436:\n        /* \"@openzeppelin/contracts@4.6.0/utils/Address.sol\":1235:1239  bool */\n      0x00\n        /* \"@openzeppelin/contracts@4.6.0/utils/Address.sol\":1487:1488  0 */\n      dup1\n        /* \"@openzeppelin/contracts@4.6.0/utils/Address.sol\":1465:1472  account */\n      dup3\n        /* \"@openzeppelin/contracts@4.6.0/utils/Address.sol\":1465:1484  account.code.length */\n      0xffffffffffffffffffffffffffffffffffffffff\n      and\n      extcodesize\n        /* \"@openzeppelin/contracts@4.6.0/utils/Address.sol\":1465:1488  account.code.length > 0 */\n      gt\n        /* \"@openzeppelin/contracts@4.6.0/utils/Address.sol\":1458:1488  return account.code.length > 0 */\n      swap1\n      pop\n        /* \"@openzeppelin/contracts@4.6.0/utils/Address.sol\":1175:1495  function isContract(address account) internal view returns (bool) {... */\n      swap2\n      swap1\n      pop\n      jump\t// out\n    tag_160:\n      mload(0x40)\n      dup1\n      0xc0\n      add\n      0x40\n      mstore\n      dup1\n      and(0xffffffffffffffffffffffffffffffffffffffff, 0x00)\n      dup2\n      mstore\n      0x20\n      add\n      0x00\n      dup2\n      mstore\n      0x20\n      add\n      and(0xffffffffffffffffffffffffffffffffffffffff, 0x00)\n      dup2\n      mstore\n      0x20\n      add\n      and(0xffffffffffffffffffffffffffffffffffffffff, 0x00)\n      dup2\n      mstore\n      0x20\n      add\n      0x00\n      dup2\n      mstore\n      0x20\n      add\n      iszero(iszero(0x00))\n      dup2\n      mstore\n      pop\n      swap1\n      jump\t// out\n    tag_399:\n      dup3\n      dup1\n      sload\n      tag_472\n      swap1\n      tag_172\n      jump\t// in\n    tag_472:\n      swap1\n      0x00\n      mstore\n      keccak256(0x00, 0x20)\n      swap1\n      0x1f\n      add\n      0x20\n      swap1\n      div\n      dup2\n      add\n      swap3\n      dup3\n      tag_474\n      jumpi\n      0x00\n      dup6\n      sstore\n      jump(tag_473)\n    tag_474:\n      dup3\n      0x1f\n      lt\n      tag_475\n      jumpi\n      dup1\n      mload\n      not(0xff)\n      and\n      dup4\n      dup1\n      add\n      or\n      dup6\n      sstore\n      jump(tag_473)\n    tag_475:\n      dup3\n      dup1\n      add\n      0x01\n      add\n      dup6\n      sstore\n      dup3\n      iszero\n      tag_473\n      jumpi\n      swap2\n      dup3\n      add\n    tag_476:\n      dup3\n      dup2\n      gt\n      iszero\n      tag_477\n      jumpi\n      dup3\n      mload\n      dup3\n      sstore\n      swap2\n      0x20\n      add\n      swap2\n      swap1\n      0x01\n      add\n      swap1\n      jump(tag_476)\n    tag_477:\n    tag_473:\n      pop\n      swap1\n      pop\n      tag_478\n      swap2\n      swap1\n      tag_479\n      jump\t// in\n    tag_478:\n      pop\n      swap1\n      jump\t// out\n    tag_479:\n    tag_480:\n      dup1\n      dup3\n      gt\n      iszero\n      tag_481\n      jumpi\n      0x00\n      dup2\n      0x00\n      swap1\n      sstore\n      pop\n      0x01\n      add\n      jump(tag_480)\n    tag_481:\n      pop\n      swap1\n      jump\t// out\n        /* \"#utility.yul\":7:350   */\n    tag_483:\n        /* \"#utility.yul\":84:89   */\n      0x00\n        /* \"#utility.yul\":109:174   */\n      tag_485\n        /* \"#utility.yul\":125:173   */\n      tag_486\n        /* \"#utility.yul\":166:172   */\n      dup5\n        /* \"#utility.yul\":125:173   */\n      tag_487\n      jump\t// in\n    tag_486:\n        /* \"#utility.yul\":109:174   */\n      tag_488\n      jump\t// in\n    tag_485:\n        /* \"#utility.yul\":100:174   */\n      swap1\n      pop\n        /* \"#utility.yul\":197:203   */\n      dup3\n        /* \"#utility.yul\":190:195   */\n      dup2\n        /* \"#utility.yul\":183:204   */\n      mstore\n        /* \"#utility.yul\":235:239   */\n      0x20\n        /* \"#utility.yul\":228:233   */\n      dup2\n        /* \"#utility.yul\":224:240   */\n      add\n        /* \"#utility.yul\":273:276   */\n      dup5\n        /* \"#utility.yul\":264:270   */\n      dup5\n        /* \"#utility.yul\":259:262   */\n      dup5\n        /* \"#utility.yul\":255:271   */\n      add\n        /* \"#utility.yul\":252:277   */\n      gt\n        /* \"#utility.yul\":249:251   */\n      iszero\n      tag_489\n      jumpi\n        /* \"#utility.yul\":290:291   */\n      0x00\n        /* \"#utility.yul\":287:288   */\n      dup1\n        /* \"#utility.yul\":280:292   */\n      revert\n        /* \"#utility.yul\":249:251   */\n    tag_489:\n        /* \"#utility.yul\":303:344   */\n      tag_490\n        /* \"#utility.yul\":337:343   */\n      dup5\n        /* \"#utility.yul\":332:335   */\n      dup3\n        /* \"#utility.yul\":327:330   */\n      dup6\n        /* \"#utility.yul\":303:344   */\n      tag_491\n      jump\t// in\n    tag_490:\n        /* \"#utility.yul\":90:350   */\n      pop\n      swap4\n      swap3\n      pop\n      pop\n      pop\n      jump\t// out\n        /* \"#utility.yul\":356:701   */\n    tag_492:\n        /* \"#utility.yul\":434:439   */\n      0x00\n        /* \"#utility.yul\":459:525   */\n      tag_494\n        /* \"#utility.yul\":475:524   */\n      tag_495\n        /* \"#utility.yul\":517:523   */\n      dup5\n        /* \"#utility.yul\":475:524   */\n      tag_496\n      jump\t// in\n    tag_495:\n        /* \"#utility.yul\":459:525   */\n      tag_488\n      jump\t// in\n    tag_494:\n        /* \"#utility.yul\":450:525   */\n      swap1\n      pop\n        /* \"#utility.yul\":548:554   */\n      dup3\n        /* \"#utility.yul\":541:546   */\n      dup2\n        /* \"#utility.yul\":534:555   */\n      mstore\n        /* \"#utility.yul\":586:590   */\n      0x20\n        /* \"#utility.yul\":579:584   */\n      dup2\n        /* \"#utility.yul\":575:591   */\n      add\n        /* \"#utility.yul\":624:627   */\n      dup5\n        /* \"#utility.yul\":615:621   */\n      dup5\n        /* \"#utility.yul\":610:613   */\n      dup5\n        /* \"#utility.yul\":606:622   */\n      add\n        /* \"#utility.yul\":603:628   */\n      gt\n        /* \"#utility.yul\":600:602   */\n      iszero\n      tag_497\n      jumpi\n        /* \"#utility.yul\":641:642   */\n      0x00\n        /* \"#utility.yul\":638:639   */\n      dup1\n        /* \"#utility.yul\":631:643   */\n      revert\n        /* \"#utility.yul\":600:602   */\n    tag_497:\n        /* \"#utility.yul\":654:695   */\n      tag_498\n        /* \"#utility.yul\":688:694   */\n      dup5\n        /* \"#utility.yul\":683:686   */\n      dup3\n        /* \"#utility.yul\":678:681   */\n      dup6\n        /* \"#utility.yul\":654:695   */\n      tag_491\n      jump\t// in\n    tag_498:\n        /* \"#utility.yul\":440:701   */\n      pop\n      swap4\n      swap3\n      pop\n      pop\n      pop\n      jump\t// out\n        /* \"#utility.yul\":707:846   */\n    tag_499:\n        /* \"#utility.yul\":753:758   */\n      0x00\n        /* \"#utility.yul\":791:797   */\n      dup2\n        /* \"#utility.yul\":778:798   */\n      calldataload\n        /* \"#utility.yul\":769:798   */\n      swap1\n      pop\n        /* \"#utility.yul\":807:840   */\n      tag_501\n        /* \"#utility.yul\":834:839   */\n      dup2\n        /* \"#utility.yul\":807:840   */\n      tag_502\n      jump\t// in\n    tag_501:\n        /* \"#utility.yul\":759:846   */\n      swap3\n      swap2\n      pop\n      pop\n      jump\t// out\n        /* \"#utility.yul\":852:985   */\n    tag_503:\n        /* \"#utility.yul\":895:900   */\n      0x00\n        /* \"#utility.yul\":933:939   */\n      dup2\n        /* \"#utility.yul\":920:940   */\n      calldataload\n        /* \"#utility.yul\":911:940   */\n      swap1\n      pop\n        /* \"#utility.yul\":949:979   */\n      tag_505\n        /* \"#utility.yul\":973:978   */\n      dup2\n        /* \"#utility.yul\":949:979   */\n      tag_506\n      jump\t// in\n    tag_505:\n        /* \"#utility.yul\":901:985   */\n      swap3\n      swap2\n      pop\n      pop\n      jump\t// out\n        /* \"#utility.yul\":991:1128   */\n    tag_507:\n        /* \"#utility.yul\":1036:1041   */\n      0x00\n        /* \"#utility.yul\":1074:1080   */\n      dup2\n        /* \"#utility.yul\":1061:1081   */\n      calldataload\n        /* \"#utility.yul\":1052:1081   */\n      swap1\n      pop\n        /* \"#utility.yul\":1090:1122   */\n      tag_509\n        /* \"#utility.yul\":1116:1121   */\n      dup2\n        /* \"#utility.yul\":1090:1122   */\n      tag_510\n      jump\t// in\n    tag_509:\n        /* \"#utility.yul\":1042:1128   */\n      swap3\n      swap2\n      pop\n      pop\n      jump\t// out\n        /* \"#utility.yul\":1134:1275   */\n    tag_511:\n        /* \"#utility.yul\":1190:1195   */\n      0x00\n        /* \"#utility.yul\":1221:1227   */\n      dup2\n        /* \"#utility.yul\":1215:1228   */\n      mload\n        /* \"#utility.yul\":1206:1228   */\n      swap1\n      pop\n        /* \"#utility.yul\":1237:1269   */\n      tag_513\n        /* \"#utility.yul\":1263:1268   */\n      dup2\n        /* \"#utility.yul\":1237:1269   */\n      tag_510\n      jump\t// in\n    tag_513:\n        /* \"#utility.yul\":1196:1275   */\n      swap3\n      swap2\n      pop\n      pop\n      jump\t// out\n        /* \"#utility.yul\":1294:1565   */\n    tag_514:\n        /* \"#utility.yul\":1349:1354   */\n      0x00\n        /* \"#utility.yul\":1398:1401   */\n      dup3\n        /* \"#utility.yul\":1391:1395   */\n      0x1f\n        /* \"#utility.yul\":1383:1389   */\n      dup4\n        /* \"#utility.yul\":1379:1396   */\n      add\n        /* \"#utility.yul\":1375:1402   */\n      slt\n        /* \"#utility.yul\":1365:1367   */\n      tag_516\n      jumpi\n        /* \"#utility.yul\":1416:1417   */\n      0x00\n        /* \"#utility.yul\":1413:1414   */\n      dup1\n        /* \"#utility.yul\":1406:1418   */\n      revert\n        /* \"#utility.yul\":1365:1367   */\n    tag_516:\n        /* \"#utility.yul\":1456:1462   */\n      dup2\n        /* \"#utility.yul\":1443:1463   */\n      calldataload\n        /* \"#utility.yul\":1481:1559   */\n      tag_517\n        /* \"#utility.yul\":1555:1558   */\n      dup5\n        /* \"#utility.yul\":1547:1553   */\n      dup3\n        /* \"#utility.yul\":1540:1544   */\n      0x20\n        /* \"#utility.yul\":1532:1538   */\n      dup7\n        /* \"#utility.yul\":1528:1545   */\n      add\n        /* \"#utility.yul\":1481:1559   */\n      tag_483\n      jump\t// in\n    tag_517:\n        /* \"#utility.yul\":1472:1559   */\n      swap2\n      pop\n        /* \"#utility.yul\":1355:1565   */\n      pop\n      swap3\n      swap2\n      pop\n      pop\n      jump\t// out\n        /* \"#utility.yul\":1585:1858   */\n    tag_518:\n        /* \"#utility.yul\":1641:1646   */\n      0x00\n        /* \"#utility.yul\":1690:1693   */\n      dup3\n        /* \"#utility.yul\":1683:1687   */\n      0x1f\n        /* \"#utility.yul\":1675:1681   */\n      dup4\n        /* \"#utility.yul\":1671:1688   */\n      add\n        /* \"#utility.yul\":1667:1694   */\n      slt\n        /* \"#utility.yul\":1657:1659   */\n      tag_520\n      jumpi\n        /* \"#utility.yul\":1708:1709   */\n      0x00\n        /* \"#utility.yul\":1705:1706   */\n      dup1\n        /* \"#utility.yul\":1698:1710   */\n      revert\n        /* \"#utility.yul\":1657:1659   */\n    tag_520:\n        /* \"#utility.yul\":1748:1754   */\n      dup2\n        /* \"#utility.yul\":1735:1755   */\n      calldataload\n        /* \"#utility.yul\":1773:1852   */\n      tag_521\n        /* \"#utility.yul\":1848:1851   */\n      dup5\n        /* \"#utility.yul\":1840:1846   */\n      dup3\n        /* \"#utility.yul\":1833:1837   */\n      0x20\n        /* \"#utility.yul\":1825:1831   */\n      dup7\n        /* \"#utility.yul\":1821:1838   */\n      add\n        /* \"#utility.yul\":1773:1852   */\n      tag_492\n      jump\t// in\n    tag_521:\n        /* \"#utility.yul\":1764:1852   */\n      swap2\n      pop\n        /* \"#utility.yul\":1647:1858   */\n      pop\n      swap3\n      swap2\n      pop\n      pop\n      jump\t// out\n        /* \"#utility.yul\":1864:2003   */\n    tag_522:\n        /* \"#utility.yul\":1910:1915   */\n      0x00\n        /* \"#utility.yul\":1948:1954   */\n      dup2\n        /* \"#utility.yul\":1935:1955   */\n      calldataload\n        /* \"#utility.yul\":1926:1955   */\n      swap1\n      pop\n        /* \"#utility.yul\":1964:1997   */\n      tag_524\n        /* \"#utility.yul\":1991:1996   */\n      dup2\n        /* \"#utility.yul\":1964:1997   */\n      tag_525\n      jump\t// in\n    tag_524:\n        /* \"#utility.yul\":1916:2003   */\n      swap3\n      swap2\n      pop\n      pop\n      jump\t// out\n        /* \"#utility.yul\":2009:2271   */\n    tag_95:\n        /* \"#utility.yul\":2068:2074   */\n      0x00\n        /* \"#utility.yul\":2117:2119   */\n      0x20\n        /* \"#utility.yul\":2105:2114   */\n      dup3\n        /* \"#utility.yul\":2096:2103   */\n      dup5\n        /* \"#utility.yul\":2092:2115   */\n      sub\n        /* \"#utility.yul\":2088:2120   */\n      slt\n        /* \"#utility.yul\":2085:2087   */\n      iszero\n      tag_527\n      jumpi\n        /* \"#utility.yul\":2133:2134   */\n      0x00\n        /* \"#utility.yul\":2130:2131   */\n      dup1\n        /* \"#utility.yul\":2123:2135   */\n      revert\n        /* \"#utility.yul\":2085:2087   */\n    tag_527:\n        /* \"#utility.yul\":2176:2177   */\n      0x00\n        /* \"#utility.yul\":2201:2254   */\n      tag_528\n        /* \"#utility.yul\":2246:2253   */\n      dup5\n        /* \"#utility.yul\":2237:2243   */\n      dup3\n        /* \"#utility.yul\":2226:2235   */\n      dup6\n        /* \"#utility.yul\":2222:2244   */\n      add\n        /* \"#utility.yul\":2201:2254   */\n      tag_499\n      jump\t// in\n    tag_528:\n        /* \"#utility.yul\":2191:2254   */\n      swap2\n      pop\n        /* \"#utility.yul\":2147:2264   */\n      pop\n        /* \"#utility.yul\":2075:2271   */\n      swap3\n      swap2\n      pop\n      pop\n      jump\t// out\n        /* \"#utility.yul\":2277:2684   */\n    tag_136:\n        /* \"#utility.yul\":2345:2351   */\n      0x00\n        /* \"#utility.yul\":2353:2359   */\n      dup1\n        /* \"#utility.yul\":2402:2404   */\n      0x40\n        /* \"#utility.yul\":2390:2399   */\n      dup4\n        /* \"#utility.yul\":2381:2388   */\n      dup6\n        /* \"#utility.yul\":2377:2400   */\n      sub\n        /* \"#utility.yul\":2373:2405   */\n      slt\n        /* \"#utility.yul\":2370:2372   */\n      iszero\n      tag_530\n      jumpi\n        /* \"#utility.yul\":2418:2419   */\n      0x00\n        /* \"#utility.yul\":2415:2416   */\n      dup1\n        /* \"#utility.yul\":2408:2420   */\n      revert\n        /* \"#utility.yul\":2370:2372   */\n    tag_530:\n        /* \"#utility.yul\":2461:2462   */\n      0x00\n        /* \"#utility.yul\":2486:2539   */\n      tag_531\n        /* \"#utility.yul\":2531:2538   */\n      dup6\n        /* \"#utility.yul\":2522:2528   */\n      dup3\n        /* \"#utility.yul\":2511:2520   */\n      dup7\n        /* \"#utility.yul\":2507:2529   */\n      add\n        /* \"#utility.yul\":2486:2539   */\n      tag_499\n      jump\t// in\n    tag_531:\n        /* \"#utility.yul\":2476:2539   */\n      swap3\n      pop\n        /* \"#utility.yul\":2432:2549   */\n      pop\n        /* \"#utility.yul\":2588:2590   */\n      0x20\n        /* \"#utility.yul\":2614:2667   */\n      tag_532\n        /* \"#utility.yul\":2659:2666   */\n      dup6\n        /* \"#utility.yul\":2650:2656   */\n      dup3\n        /* \"#utility.yul\":2639:2648   */\n      dup7\n        /* \"#utility.yul\":2635:2657   */\n      add\n        /* \"#utility.yul\":2614:2667   */\n      tag_499\n      jump\t// in\n    tag_532:\n        /* \"#utility.yul\":2604:2667   */\n      swap2\n      pop\n        /* \"#utility.yul\":2559:2677   */\n      pop\n        /* \"#utility.yul\":2360:2684   */\n      swap3\n      pop\n      swap3\n      swap1\n      pop\n      jump\t// out\n        /* \"#utility.yul\":2690:3242   */\n    tag_64:\n        /* \"#utility.yul\":2767:2773   */\n      0x00\n        /* \"#utility.yul\":2775:2781   */\n      dup1\n        /* \"#utility.yul\":2783:2789   */\n      0x00\n        /* \"#utility.yul\":2832:2834   */\n      0x60\n        /* \"#utility.yul\":2820:2829   */\n      dup5\n        /* \"#utility.yul\":2811:2818   */\n      dup7\n        /* \"#utility.yul\":2807:2830   */\n      sub\n        /* \"#utility.yul\":2803:2835   */\n      slt\n        /* \"#utility.yul\":2800:2802   */\n      iszero\n      tag_534\n      jumpi\n        /* \"#utility.yul\":2848:2849   */\n      0x00\n        /* \"#utility.yul\":2845:2846   */\n      dup1\n        /* \"#utility.yul\":2838:2850   */\n      revert\n        /* \"#utility.yul\":2800:2802   */\n    tag_534:\n        /* \"#utility.yul\":2891:2892   */\n      0x00\n        /* \"#utility.yul\":2916:2969   */\n      tag_535\n        /* \"#utility.yul\":2961:2968   */\n      dup7\n        /* \"#utility.yul\":2952:2958   */\n      dup3\n        /* \"#utility.yul\":2941:2950   */\n      dup8\n        /* \"#utility.yul\":2937:2959   */\n      add\n        /* \"#utility.yul\":2916:2969   */\n      tag_499\n      jump\t// in\n    tag_535:\n        /* \"#utility.yul\":2906:2969   */\n      swap4\n      pop\n        /* \"#utility.yul\":2862:2979   */\n      pop\n        /* \"#utility.yul\":3018:3020   */\n      0x20\n        /* \"#utility.yul\":3044:3097   */\n      tag_536\n        /* \"#utility.yul\":3089:3096   */\n      dup7\n        /* \"#utility.yul\":3080:3086   */\n      dup3\n        /* \"#utility.yul\":3069:3078   */\n      dup8\n        /* \"#utility.yul\":3065:3087   */\n      add\n        /* \"#utility.yul\":3044:3097   */\n      tag_499\n      jump\t// in\n    tag_536:\n        /* \"#utility.yul\":3034:3097   */\n      swap3\n      pop\n        /* \"#utility.yul\":2989:3107   */\n      pop\n        /* \"#utility.yul\":3146:3148   */\n      0x40\n        /* \"#utility.yul\":3172:3225   */\n      tag_537\n        /* \"#utility.yul\":3217:3224   */\n      dup7\n        /* \"#utility.yul\":3208:3214   */\n      dup3\n        /* \"#utility.yul\":3197:3206   */\n      dup8\n        /* \"#utility.yul\":3193:3215   */\n      add\n        /* \"#utility.yul\":3172:3225   */\n      tag_522\n      jump\t// in\n    tag_537:\n        /* \"#utility.yul\":3162:3225   */\n      swap2\n      pop\n        /* \"#utility.yul\":3117:3235   */\n      pop\n        /* \"#utility.yul\":2790:3242   */\n      swap3\n      pop\n      swap3\n      pop\n      swap3\n      jump\t// out\n        /* \"#utility.yul\":3248:4057   */\n    tag_119:\n        /* \"#utility.yul\":3343:3349   */\n      0x00\n        /* \"#utility.yul\":3351:3357   */\n      dup1\n        /* \"#utility.yul\":3359:3365   */\n      0x00\n        /* \"#utility.yul\":3367:3373   */\n      dup1\n        /* \"#utility.yul\":3416:3419   */\n      0x80\n        /* \"#utility.yul\":3404:3413   */\n      dup6\n        /* \"#utility.yul\":3395:3402   */\n      dup8\n        /* \"#utility.yul\":3391:3414   */\n      sub\n        /* \"#utility.yul\":3387:3420   */\n      slt\n        /* \"#utility.yul\":3384:3386   */\n      iszero\n      tag_539\n      jumpi\n        /* \"#utility.yul\":3433:3434   */\n      0x00\n        /* \"#utility.yul\":3430:3431   */\n      dup1\n        /* \"#utility.yul\":3423:3435   */\n      revert\n        /* \"#utility.yul\":3384:3386   */\n    tag_539:\n        /* \"#utility.yul\":3476:3477   */\n      0x00\n        /* \"#utility.yul\":3501:3554   */\n      tag_540\n        /* \"#utility.yul\":3546:3553   */\n      dup8\n        /* \"#utility.yul\":3537:3543   */\n      dup3\n        /* \"#utility.yul\":3526:3535   */\n      dup9\n        /* \"#utility.yul\":3522:3544   */\n      add\n        /* \"#utility.yul\":3501:3554   */\n      tag_499\n      jump\t// in\n    tag_540:\n        /* \"#utility.yul\":3491:3554   */\n      swap5\n      pop\n        /* \"#utility.yul\":3447:3564   */\n      pop\n        /* \"#utility.yul\":3603:3605   */\n      0x20\n        /* \"#utility.yul\":3629:3682   */\n      tag_541\n        /* \"#utility.yul\":3674:3681   */\n      dup8\n        /* \"#utility.yul\":3665:3671   */\n      dup3\n        /* \"#utility.yul\":3654:3663   */\n      dup9\n        /* \"#utility.yul\":3650:3672   */\n      add\n        /* \"#utility.yul\":3629:3682   */\n      tag_499\n      jump\t// in\n    tag_541:\n        /* \"#utility.yul\":3619:3682   */\n      swap4\n      pop\n        /* \"#utility.yul\":3574:3692   */\n      pop\n        /* \"#utility.yul\":3731:3733   */\n      0x40\n        /* \"#utility.yul\":3757:3810   */\n      tag_542\n        /* \"#utility.yul\":3802:3809   */\n      dup8\n        /* \"#utility.yul\":3793:3799   */\n      dup3\n        /* \"#utility.yul\":3782:3791   */\n      dup9\n        /* \"#utility.yul\":3778:3800   */\n      add\n        /* \"#utility.yul\":3757:3810   */\n      tag_522\n      jump\t// in\n    tag_542:\n        /* \"#utility.yul\":3747:3810   */\n      swap3\n      pop\n        /* \"#utility.yul\":3702:3820   */\n      pop\n        /* \"#utility.yul\":3887:3889   */\n      0x60\n        /* \"#utility.yul\":3876:3885   */\n      dup6\n        /* \"#utility.yul\":3872:3890   */\n      add\n        /* \"#utility.yul\":3859:3891   */\n      calldataload\n        /* \"#utility.yul\":3918:3936   */\n      0xffffffffffffffff\n        /* \"#utility.yul\":3910:3916   */\n      dup2\n        /* \"#utility.yul\":3907:3937   */\n      gt\n        /* \"#utility.yul\":3904:3906   */\n      iszero\n      tag_543\n      jumpi\n        /* \"#utility.yul\":3950:3951   */\n      0x00\n        /* \"#utility.yul\":3947:3948   */\n      dup1\n        /* \"#utility.yul\":3940:3952   */\n      revert\n        /* \"#utility.yul\":3904:3906   */\n    tag_543:\n        /* \"#utility.yul\":3978:4040   */\n      tag_544\n        /* \"#utility.yul\":4032:4039   */\n      dup8\n        /* \"#utility.yul\":4023:4029   */\n      dup3\n        /* \"#utility.yul\":4012:4021   */\n      dup9\n        /* \"#utility.yul\":4008:4030   */\n      add\n        /* \"#utility.yul\":3978:4040   */\n      tag_514\n      jump\t// in\n    tag_544:\n        /* \"#utility.yul\":3968:4040   */\n      swap2\n      pop\n        /* \"#utility.yul\":3830:4050   */\n      pop\n        /* \"#utility.yul\":3374:4057   */\n      swap3\n      swap6\n      swap2\n      swap5\n      pop\n      swap3\n      pop\n      jump\t// out\n        /* \"#utility.yul\":4063:4874   */\n    tag_114:\n        /* \"#utility.yul\":4159:4165   */\n      0x00\n        /* \"#utility.yul\":4167:4173   */\n      dup1\n        /* \"#utility.yul\":4175:4181   */\n      0x00\n        /* \"#utility.yul\":4183:4189   */\n      dup1\n        /* \"#utility.yul\":4232:4235   */\n      0x80\n        /* \"#utility.yul\":4220:4229   */\n      dup6\n        /* \"#utility.yul\":4211:4218   */\n      dup8\n        /* \"#utility.yul\":4207:4230   */\n      sub\n        /* \"#utility.yul\":4203:4236   */\n      slt\n        /* \"#utility.yul\":4200:4202   */\n      iszero\n      tag_546\n      jumpi\n        /* \"#utility.yul\":4249:4250   */\n      0x00\n        /* \"#utility.yul\":4246:4247   */\n      dup1\n        /* \"#utility.yul\":4239:4251   */\n      revert\n        /* \"#utility.yul\":4200:4202   */\n    tag_546:\n        /* \"#utility.yul\":4292:4293   */\n      0x00\n        /* \"#utility.yul\":4317:4370   */\n      tag_547\n        /* \"#utility.yul\":4362:4369   */\n      dup8\n        /* \"#utility.yul\":4353:4359   */\n      dup3\n        /* \"#utility.yul\":4342:4351   */\n      dup9\n        /* \"#utility.yul\":4338:4360   */\n      add\n        /* \"#utility.yul\":4317:4370   */\n      tag_499\n      jump\t// in\n    tag_547:\n        /* \"#utility.yul\":4307:4370   */\n      swap5\n      pop\n        /* \"#utility.yul\":4263:4380   */\n      pop\n        /* \"#utility.yul\":4419:4421   */\n      0x20\n        /* \"#utility.yul\":4445:4498   */\n      tag_548\n        /* \"#utility.yul\":4490:4497   */\n      dup8\n        /* \"#utility.yul\":4481:4487   */\n      dup3\n        /* \"#utility.yul\":4470:4479   */\n      dup9\n        /* \"#utility.yul\":4466:4488   */\n      add\n        /* \"#utility.yul\":4445:4498   */\n      tag_499\n      jump\t// in\n    tag_548:\n        /* \"#utility.yul\":4435:4498   */\n      swap4\n      pop\n        /* \"#utility.yul\":4390:4508   */\n      pop\n        /* \"#utility.yul\":4547:4549   */\n      0x40\n        /* \"#utility.yul\":4573:4626   */\n      tag_549\n        /* \"#utility.yul\":4618:4625   */\n      dup8\n        /* \"#utility.yul\":4609:4615   */\n      dup3\n        /* \"#utility.yul\":4598:4607   */\n      dup9\n        /* \"#utility.yul\":4594:4616   */\n      add\n        /* \"#utility.yul\":4573:4626   */\n      tag_522\n      jump\t// in\n    tag_549:\n        /* \"#utility.yul\":4563:4626   */\n      swap3\n      pop\n        /* \"#utility.yul\":4518:4636   */\n      pop\n        /* \"#utility.yul\":4703:4705   */\n      0x60\n        /* \"#utility.yul\":4692:4701   */\n      dup6\n        /* \"#utility.yul\":4688:4706   */\n      add\n        /* \"#utility.yul\":4675:4707   */\n      calldataload\n        /* \"#utility.yul\":4734:4752   */\n      0xffffffffffffffff\n        /* \"#utility.yul\":4726:4732   */\n      dup2\n        /* \"#utility.yul\":4723:4753   */\n      gt\n        /* \"#utility.yul\":4720:4722   */\n      iszero\n      tag_550\n      jumpi\n        /* \"#utility.yul\":4766:4767   */\n      0x00\n        /* \"#utility.yul\":4763:4764   */\n      dup1\n        /* \"#utility.yul\":4756:4768   */\n      revert\n        /* \"#utility.yul\":4720:4722   */\n    tag_550:\n        /* \"#utility.yul\":4794:4857   */\n      tag_551\n        /* \"#utility.yul\":4849:4856   */\n      dup8\n        /* \"#utility.yul\":4840:4846   */\n      dup3\n        /* \"#utility.yul\":4829:4838   */\n      dup9\n        /* \"#utility.yul\":4825:4847   */\n      add\n        /* \"#utility.yul\":4794:4857   */\n      tag_518\n      jump\t// in\n    tag_551:\n        /* \"#utility.yul\":4784:4857   */\n      swap2\n      pop\n        /* \"#utility.yul\":4646:4867   */\n      pop\n        /* \"#utility.yul\":4190:4874   */\n      swap3\n      swap6\n      swap2\n      swap5\n      pop\n      swap3\n      pop\n      jump\t// out\n        /* \"#utility.yul\":4880:5281   */\n    tag_109:\n        /* \"#utility.yul\":4945:4951   */\n      0x00\n        /* \"#utility.yul\":4953:4959   */\n      dup1\n        /* \"#utility.yul\":5002:5004   */\n      0x40\n        /* \"#utility.yul\":4990:4999   */\n      dup4\n        /* \"#utility.yul\":4981:4988   */\n      dup6\n        /* \"#utility.yul\":4977:5000   */\n      sub\n        /* \"#utility.yul\":4973:5005   */\n      slt\n        /* \"#utility.yul\":4970:4972   */\n      iszero\n      tag_553\n      jumpi\n        /* \"#utility.yul\":5018:5019   */\n      0x00\n        /* \"#utility.yul\":5015:5016   */\n      dup1\n        /* \"#utility.yul\":5008:5020   */\n      revert\n        /* \"#utility.yul\":4970:4972   */\n    tag_553:\n        /* \"#utility.yul\":5061:5062   */\n      0x00\n        /* \"#utility.yul\":5086:5139   */\n      tag_554\n        /* \"#utility.yul\":5131:5138   */\n      dup6\n        /* \"#utility.yul\":5122:5128   */\n      dup3\n        /* \"#utility.yul\":5111:5120   */\n      dup7\n        /* \"#utility.yul\":5107:5129   */\n      add\n        /* \"#utility.yul\":5086:5139   */\n      tag_499\n      jump\t// in\n    tag_554:\n        /* \"#utility.yul\":5076:5139   */\n      swap3\n      pop\n        /* \"#utility.yul\":5032:5149   */\n      pop\n        /* \"#utility.yul\":5188:5190   */\n      0x20\n        /* \"#utility.yul\":5214:5264   */\n      tag_555\n        /* \"#utility.yul\":5256:5263   */\n      dup6\n        /* \"#utility.yul\":5247:5253   */\n      dup3\n        /* \"#utility.yul\":5236:5245   */\n      dup7\n        /* \"#utility.yul\":5232:5254   */\n      add\n        /* \"#utility.yul\":5214:5264   */\n      tag_503\n      jump\t// in\n    tag_555:\n        /* \"#utility.yul\":5204:5264   */\n      swap2\n      pop\n        /* \"#utility.yul\":5159:5274   */\n      pop\n        /* \"#utility.yul\":4960:5281   */\n      swap3\n      pop\n      swap3\n      swap1\n      pop\n      jump\t// out\n        /* \"#utility.yul\":5287:5694   */\n    tag_55:\n        /* \"#utility.yul\":5355:5361   */\n      0x00\n        /* \"#utility.yul\":5363:5369   */\n      dup1\n        /* \"#utility.yul\":5412:5414   */\n      0x40\n        /* \"#utility.yul\":5400:5409   */\n      dup4\n        /* \"#utility.yul\":5391:5398   */\n      dup6\n        /* \"#utility.yul\":5387:5410   */\n      sub\n        /* \"#utility.yul\":5383:5415   */\n      slt\n        /* \"#utility.yul\":5380:5382   */\n      iszero\n      tag_557\n      jumpi\n        /* \"#utility.yul\":5428:5429   */\n      0x00\n        /* \"#utility.yul\":5425:5426   */\n      dup1\n        /* \"#utility.yul\":5418:5430   */\n      revert\n        /* \"#utility.yul\":5380:5382   */\n    tag_557:\n        /* \"#utility.yul\":5471:5472   */\n      0x00\n        /* \"#utility.yul\":5496:5549   */\n      tag_558\n        /* \"#utility.yul\":5541:5548   */\n      dup6\n        /* \"#utility.yul\":5532:5538   */\n      dup3\n        /* \"#utility.yul\":5521:5530   */\n      dup7\n        /* \"#utility.yul\":5517:5539   */\n      add\n        /* \"#utility.yul\":5496:5549   */\n      tag_499\n      jump\t// in\n    tag_558:\n        /* \"#utility.yul\":5486:5549   */\n      swap3\n      pop\n        /* \"#utility.yul\":5442:5559   */\n      pop\n        /* \"#utility.yul\":5598:5600   */\n      0x20\n        /* \"#utility.yul\":5624:5677   */\n      tag_559\n        /* \"#utility.yul\":5669:5676   */\n      dup6\n        /* \"#utility.yul\":5660:5666   */\n      dup3\n        /* \"#utility.yul\":5649:5658   */\n      dup7\n        /* \"#utility.yul\":5645:5667   */\n      add\n        /* \"#utility.yul\":5624:5677   */\n      tag_522\n      jump\t// in\n    tag_559:\n        /* \"#utility.yul\":5614:5677   */\n      swap2\n      pop\n        /* \"#utility.yul\":5569:5687   */\n      pop\n        /* \"#utility.yul\":5370:5694   */\n      swap3\n      pop\n      swap3\n      swap1\n      pop\n      jump\t// out\n        /* \"#utility.yul\":5700:6252   */\n    tag_73:\n        /* \"#utility.yul\":5777:5783   */\n      0x00\n        /* \"#utility.yul\":5785:5791   */\n      dup1\n        /* \"#utility.yul\":5793:5799   */\n      0x00\n        /* \"#utility.yul\":5842:5844   */\n      0x60\n        /* \"#utility.yul\":5830:5839   */\n      dup5\n        /* \"#utility.yul\":5821:5828   */\n      dup7\n        /* \"#utility.yul\":5817:5840   */\n      sub\n        /* \"#utility.yul\":5813:5845   */\n      slt\n        /* \"#utility.yul\":5810:5812   */\n      iszero\n      tag_561\n      jumpi\n        /* \"#utility.yul\":5858:5859   */\n      0x00\n        /* \"#utility.yul\":5855:5856   */\n      dup1\n        /* \"#utility.yul\":5848:5860   */\n      revert\n        /* \"#utility.yul\":5810:5812   */\n    tag_561:\n        /* \"#utility.yul\":5901:5902   */\n      0x00\n        /* \"#utility.yul\":5926:5979   */\n      tag_562\n        /* \"#utility.yul\":5971:5978   */\n      dup7\n        /* \"#utility.yul\":5962:5968   */\n      dup3\n        /* \"#utility.yul\":5951:5960   */\n      dup8\n        /* \"#utility.yul\":5947:5969   */\n      add\n        /* \"#utility.yul\":5926:5979   */\n      tag_499\n      jump\t// in\n    tag_562:\n        /* \"#utility.yul\":5916:5979   */\n      swap4\n      pop\n        /* \"#utility.yul\":5872:5989   */\n      pop\n        /* \"#utility.yul\":6028:6030   */\n      0x20\n        /* \"#utility.yul\":6054:6107   */\n      tag_563\n        /* \"#utility.yul\":6099:6106   */\n      dup7\n        /* \"#utility.yul\":6090:6096   */\n      dup3\n        /* \"#utility.yul\":6079:6088   */\n      dup8\n        /* \"#utility.yul\":6075:6097   */\n      add\n        /* \"#utility.yul\":6054:6107   */\n      tag_522\n      jump\t// in\n    tag_563:\n        /* \"#utility.yul\":6044:6107   */\n      swap3\n      pop\n        /* \"#utility.yul\":5999:6117   */\n      pop\n        /* \"#utility.yul\":6156:6158   */\n      0x40\n        /* \"#utility.yul\":6182:6235   */\n      tag_564\n        /* \"#utility.yul\":6227:6234   */\n      dup7\n        /* \"#utility.yul\":6218:6224   */\n      dup3\n        /* \"#utility.yul\":6207:6216   */\n      dup8\n        /* \"#utility.yul\":6203:6225   */\n      add\n        /* \"#utility.yul\":6182:6235   */\n      tag_522\n      jump\t// in\n    tag_564:\n        /* \"#utility.yul\":6172:6235   */\n      swap2\n      pop\n        /* \"#utility.yul\":6127:6245   */\n      pop\n        /* \"#utility.yul\":5800:6252   */\n      swap3\n      pop\n      swap3\n      pop\n      swap3\n      jump\t// out\n        /* \"#utility.yul\":6258:6518   */\n    tag_31:\n        /* \"#utility.yul\":6316:6322   */\n      0x00\n        /* \"#utility.yul\":6365:6367   */\n      0x20\n        /* \"#utility.yul\":6353:6362   */\n      dup3\n        /* \"#utility.yul\":6344:6351   */\n      dup5\n        /* \"#utility.yul\":6340:6363   */\n      sub\n        /* \"#utility.yul\":6336:6368   */\n      slt\n        /* \"#utility.yul\":6333:6335   */\n      iszero\n      tag_566\n      jumpi\n        /* \"#utility.yul\":6381:6382   */\n      0x00\n        /* \"#utility.yul\":6378:6379   */\n      dup1\n        /* \"#utility.yul\":6371:6383   */\n      revert\n        /* \"#utility.yul\":6333:6335   */\n    tag_566:\n        /* \"#utility.yul\":6424:6425   */\n      0x00\n        /* \"#utility.yul\":6449:6501   */\n      tag_567\n        /* \"#utility.yul\":6493:6500   */\n      dup5\n        /* \"#utility.yul\":6484:6490   */\n      dup3\n        /* \"#utility.yul\":6473:6482   */\n      dup6\n        /* \"#utility.yul\":6469:6491   */\n      add\n        /* \"#utility.yul\":6449:6501   */\n      tag_507\n      jump\t// in\n    tag_567:\n        /* \"#utility.yul\":6439:6501   */\n      swap2\n      pop\n        /* \"#utility.yul\":6395:6511   */\n      pop\n        /* \"#utility.yul\":6323:6518   */\n      swap3\n      swap2\n      pop\n      pop\n      jump\t// out\n        /* \"#utility.yul\":6524:6806   */\n    tag_444:\n        /* \"#utility.yul\":6593:6599   */\n      0x00\n        /* \"#utility.yul\":6642:6644   */\n      0x20\n        /* \"#utility.yul\":6630:6639   */\n      dup3\n        /* \"#utility.yul\":6621:6628   */\n      dup5\n        /* \"#utility.yul\":6617:6640   */\n      sub\n        /* \"#utility.yul\":6613:6645   */\n      slt\n        /* \"#utility.yul\":6610:6612   */\n      iszero\n      tag_569\n      jumpi\n        /* \"#utility.yul\":6658:6659   */\n      0x00\n        /* \"#utility.yul\":6655:6656   */\n      dup1\n        /* \"#utility.yul\":6648:6660   */\n      revert\n        /* \"#utility.yul\":6610:6612   */\n    tag_569:\n        /* \"#utility.yul\":6701:6702   */\n      0x00\n        /* \"#utility.yul\":6726:6789   */\n      tag_570\n        /* \"#utility.yul\":6781:6788   */\n      dup5\n        /* \"#utility.yul\":6772:6778   */\n      dup3\n        /* \"#utility.yul\":6761:6770   */\n      dup6\n        /* \"#utility.yul\":6757:6779   */\n      add\n        /* \"#utility.yul\":6726:6789   */\n      tag_511\n      jump\t// in\n    tag_570:\n        /* \"#utility.yul\":6716:6789   */\n      swap2\n      pop\n        /* \"#utility.yul\":6672:6799   */\n      pop\n        /* \"#utility.yul\":6600:6806   */\n      swap3\n      swap2\n      pop\n      pop\n      jump\t// out\n        /* \"#utility.yul\":6812:7074   */\n    tag_48:\n        /* \"#utility.yul\":6871:6877   */\n      0x00\n        /* \"#utility.yul\":6920:6922   */\n      0x20\n        /* \"#utility.yul\":6908:6917   */\n      dup3\n        /* \"#utility.yul\":6899:6906   */\n      dup5\n        /* \"#utility.yul\":6895:6918   */\n      sub\n        /* \"#utility.yul\":6891:6923   */\n      slt\n        /* \"#utility.yul\":6888:6890   */\n      iszero\n      tag_572\n      jumpi\n        /* \"#utility.yul\":6936:6937   */\n      0x00\n        /* \"#utility.yul\":6933:6934   */\n      dup1\n        /* \"#utility.yul\":6926:6938   */\n      revert\n        /* \"#utility.yul\":6888:6890   */\n    tag_572:\n        /* \"#utility.yul\":6979:6980   */\n      0x00\n        /* \"#utility.yul\":7004:7057   */\n      tag_573\n        /* \"#utility.yul\":7049:7056   */\n      dup5\n        /* \"#utility.yul\":7040:7046   */\n      dup3\n        /* \"#utility.yul\":7029:7038   */\n      dup6\n        /* \"#utility.yul\":7025:7047   */\n      add\n        /* \"#utility.yul\":7004:7057   */\n      tag_522\n      jump\t// in\n    tag_573:\n        /* \"#utility.yul\":6994:7057   */\n      swap2\n      pop\n        /* \"#utility.yul\":6950:7067   */\n      pop\n        /* \"#utility.yul\":6878:7074   */\n      swap3\n      swap2\n      pop\n      pop\n      jump\t// out\n        /* \"#utility.yul\":7080:7339   */\n    tag_574:\n        /* \"#utility.yul\":7189:7199   */\n      0x00\n        /* \"#utility.yul\":7210:7296   */\n      tag_576\n        /* \"#utility.yul\":7292:7295   */\n      dup4\n        /* \"#utility.yul\":7284:7290   */\n      dup4\n        /* \"#utility.yul\":7210:7296   */\n      tag_577\n      jump\t// in\n    tag_576:\n        /* \"#utility.yul\":7328:7332   */\n      0xc0\n        /* \"#utility.yul\":7323:7326   */\n      dup4\n        /* \"#utility.yul\":7319:7333   */\n      add\n        /* \"#utility.yul\":7305:7333   */\n      swap1\n      pop\n        /* \"#utility.yul\":7200:7339   */\n      swap3\n      swap2\n      pop\n      pop\n      jump\t// out\n        /* \"#utility.yul\":7345:7492   */\n    tag_578:\n        /* \"#utility.yul\":7440:7485   */\n      tag_580\n        /* \"#utility.yul\":7479:7484   */\n      dup2\n        /* \"#utility.yul\":7440:7485   */\n      tag_581\n      jump\t// in\n    tag_580:\n        /* \"#utility.yul\":7435:7438   */\n      dup3\n        /* \"#utility.yul\":7428:7486   */\n      mstore\n        /* \"#utility.yul\":7418:7492   */\n      pop\n      pop\n      jump\t// out\n        /* \"#utility.yul\":7498:7630   */\n    tag_582:\n        /* \"#utility.yul\":7591:7623   */\n      tag_584\n        /* \"#utility.yul\":7617:7622   */\n      dup2\n        /* \"#utility.yul\":7591:7623   */\n      tag_585\n      jump\t// in\n    tag_584:\n        /* \"#utility.yul\":7586:7589   */\n      dup3\n        /* \"#utility.yul\":7579:7624   */\n      mstore\n        /* \"#utility.yul\":7569:7630   */\n      pop\n      pop\n      jump\t// out\n        /* \"#utility.yul\":7636:7744   */\n    tag_586:\n        /* \"#utility.yul\":7713:7737   */\n      tag_588\n        /* \"#utility.yul\":7731:7736   */\n      dup2\n        /* \"#utility.yul\":7713:7737   */\n      tag_589\n      jump\t// in\n    tag_588:\n        /* \"#utility.yul\":7708:7711   */\n      dup3\n        /* \"#utility.yul\":7701:7738   */\n      mstore\n        /* \"#utility.yul\":7691:7744   */\n      pop\n      pop\n      jump\t// out\n        /* \"#utility.yul\":7750:7868   */\n    tag_590:\n        /* \"#utility.yul\":7837:7861   */\n      tag_592\n        /* \"#utility.yul\":7855:7860   */\n      dup2\n        /* \"#utility.yul\":7837:7861   */\n      tag_589\n      jump\t// in\n    tag_592:\n        /* \"#utility.yul\":7832:7835   */\n      dup3\n        /* \"#utility.yul\":7825:7862   */\n      mstore\n        /* \"#utility.yul\":7815:7868   */\n      pop\n      pop\n      jump\t// out\n        /* \"#utility.yul\":7934:8826   */\n    tag_593:\n        /* \"#utility.yul\":8093:8096   */\n      0x00\n        /* \"#utility.yul\":8122:8196   */\n      tag_595\n        /* \"#utility.yul\":8190:8195   */\n      dup3\n        /* \"#utility.yul\":8122:8196   */\n      tag_596\n      jump\t// in\n    tag_595:\n        /* \"#utility.yul\":8212:8318   */\n      tag_597\n        /* \"#utility.yul\":8311:8317   */\n      dup2\n        /* \"#utility.yul\":8306:8309   */\n      dup6\n        /* \"#utility.yul\":8212:8318   */\n      tag_598\n      jump\t// in\n    tag_597:\n        /* \"#utility.yul\":8205:8318   */\n      swap4\n      pop\n        /* \"#utility.yul\":8342:8418   */\n      tag_599\n        /* \"#utility.yul\":8412:8417   */\n      dup4\n        /* \"#utility.yul\":8342:8418   */\n      tag_600\n      jump\t// in\n    tag_599:\n        /* \"#utility.yul\":8441:8448   */\n      dup1\n        /* \"#utility.yul\":8472:8473   */\n      0x00\n        /* \"#utility.yul\":8457:8801   */\n    tag_601:\n        /* \"#utility.yul\":8482:8488   */\n      dup4\n        /* \"#utility.yul\":8479:8480   */\n      dup2\n        /* \"#utility.yul\":8476:8489   */\n      lt\n        /* \"#utility.yul\":8457:8801   */\n      iszero\n      tag_603\n      jumpi\n        /* \"#utility.yul\":8558:8564   */\n      dup2\n        /* \"#utility.yul\":8552:8565   */\n      mload\n        /* \"#utility.yul\":8585:8688   */\n      tag_604\n        /* \"#utility.yul\":8684:8687   */\n      dup9\n        /* \"#utility.yul\":8669:8682   */\n      dup3\n        /* \"#utility.yul\":8585:8688   */\n      tag_574\n      jump\t// in\n    tag_604:\n        /* \"#utility.yul\":8578:8688   */\n      swap8\n      pop\n        /* \"#utility.yul\":8711:8791   */\n      tag_605\n        /* \"#utility.yul\":8784:8790   */\n      dup4\n        /* \"#utility.yul\":8711:8791   */\n      tag_606\n      jump\t// in\n    tag_605:\n        /* \"#utility.yul\":8701:8791   */\n      swap3\n      pop\n        /* \"#utility.yul\":8517:8801   */\n      pop\n        /* \"#utility.yul\":8504:8505   */\n      0x01\n        /* \"#utility.yul\":8501:8502   */\n      dup2\n        /* \"#utility.yul\":8497:8506   */\n      add\n        /* \"#utility.yul\":8492:8506   */\n      swap1\n      pop\n        /* \"#utility.yul\":8457:8801   */\n      jump(tag_601)\n    tag_603:\n        /* \"#utility.yul\":8461:8475   */\n      pop\n        /* \"#utility.yul\":8817:8820   */\n      dup6\n        /* \"#utility.yul\":8810:8820   */\n      swap4\n      pop\n        /* \"#utility.yul\":8098:8826   */\n      pop\n      pop\n      pop\n      swap3\n      swap2\n      pop\n      pop\n      jump\t// out\n        /* \"#utility.yul\":8832:8931   */\n    tag_607:\n        /* \"#utility.yul\":8903:8924   */\n      tag_609\n        /* \"#utility.yul\":8918:8923   */\n      dup2\n        /* \"#utility.yul\":8903:8924   */\n      tag_610\n      jump\t// in\n    tag_609:\n        /* \"#utility.yul\":8898:8901   */\n      dup3\n        /* \"#utility.yul\":8891:8925   */\n      mstore\n        /* \"#utility.yul\":8881:8931   */\n      pop\n      pop\n      jump\t// out\n        /* \"#utility.yul\":8937:9046   */\n    tag_611:\n        /* \"#utility.yul\":9018:9039   */\n      tag_613\n        /* \"#utility.yul\":9033:9038   */\n      dup2\n        /* \"#utility.yul\":9018:9039   */\n      tag_610\n      jump\t// in\n    tag_613:\n        /* \"#utility.yul\":9013:9016   */\n      dup3\n        /* \"#utility.yul\":9006:9040   */\n      mstore\n        /* \"#utility.yul\":8996:9046   */\n      pop\n      pop\n      jump\t// out\n        /* \"#utility.yul\":9052:9412   */\n    tag_614:\n        /* \"#utility.yul\":9138:9141   */\n      0x00\n        /* \"#utility.yul\":9166:9204   */\n      tag_616\n        /* \"#utility.yul\":9198:9203   */\n      dup3\n        /* \"#utility.yul\":9166:9204   */\n      tag_617\n      jump\t// in\n    tag_616:\n        /* \"#utility.yul\":9220:9290   */\n      tag_618\n        /* \"#utility.yul\":9283:9289   */\n      dup2\n        /* \"#utility.yul\":9278:9281   */\n      dup6\n        /* \"#utility.yul\":9220:9290   */\n      tag_619\n      jump\t// in\n    tag_618:\n        /* \"#utility.yul\":9213:9290   */\n      swap4\n      pop\n        /* \"#utility.yul\":9299:9351   */\n      tag_620\n        /* \"#utility.yul\":9344:9350   */\n      dup2\n        /* \"#utility.yul\":9339:9342   */\n      dup6\n        /* \"#utility.yul\":9332:9336   */\n      0x20\n        /* \"#utility.yul\":9325:9330   */\n      dup7\n        /* \"#utility.yul\":9321:9337   */\n      add\n        /* \"#utility.yul\":9299:9351   */\n      tag_621\n      jump\t// in\n    tag_620:\n        /* \"#utility.yul\":9376:9405   */\n      tag_622\n        /* \"#utility.yul\":9398:9404   */\n      dup2\n        /* \"#utility.yul\":9376:9405   */\n      tag_623\n      jump\t// in\n    tag_622:\n        /* \"#utility.yul\":9371:9374   */\n      dup5\n        /* \"#utility.yul\":9367:9406   */\n      add\n        /* \"#utility.yul\":9360:9406   */\n      swap2\n      pop\n        /* \"#utility.yul\":9142:9412   */\n      pop\n      swap3\n      swap2\n      pop\n      pop\n      jump\t// out\n        /* \"#utility.yul\":9418:9782   */\n    tag_624:\n        /* \"#utility.yul\":9506:9509   */\n      0x00\n        /* \"#utility.yul\":9534:9573   */\n      tag_626\n        /* \"#utility.yul\":9567:9572   */\n      dup3\n        /* \"#utility.yul\":9534:9573   */\n      tag_627\n      jump\t// in\n    tag_626:\n        /* \"#utility.yul\":9589:9660   */\n      tag_628\n        /* \"#utility.yul\":9653:9659   */\n      dup2\n        /* \"#utility.yul\":9648:9651   */\n      dup6\n        /* \"#utility.yul\":9589:9660   */\n      tag_629\n      jump\t// in\n    tag_628:\n        /* \"#utility.yul\":9582:9660   */\n      swap4\n      pop\n        /* \"#utility.yul\":9669:9721   */\n      tag_630\n        /* \"#utility.yul\":9714:9720   */\n      dup2\n        /* \"#utility.yul\":9709:9712   */\n      dup6\n        /* \"#utility.yul\":9702:9706   */\n      0x20\n        /* \"#utility.yul\":9695:9700   */\n      dup7\n        /* \"#utility.yul\":9691:9707   */\n      add\n        /* \"#utility.yul\":9669:9721   */\n      tag_621\n      jump\t// in\n    tag_630:\n        /* \"#utility.yul\":9746:9775   */\n      tag_631\n        /* \"#utility.yul\":9768:9774   */\n      dup2\n        /* \"#utility.yul\":9746:9775   */\n      tag_623\n      jump\t// in\n    tag_631:\n        /* \"#utility.yul\":9741:9744   */\n      dup5\n        /* \"#utility.yul\":9737:9776   */\n      add\n        /* \"#utility.yul\":9730:9776   */\n      swap2\n      pop\n        /* \"#utility.yul\":9510:9782   */\n      pop\n      swap3\n      swap2\n      pop\n      pop\n      jump\t// out\n        /* \"#utility.yul\":9788:10165   */\n    tag_632:\n        /* \"#utility.yul\":9894:9897   */\n      0x00\n        /* \"#utility.yul\":9922:9961   */\n      tag_634\n        /* \"#utility.yul\":9955:9960   */\n      dup3\n        /* \"#utility.yul\":9922:9961   */\n      tag_627\n      jump\t// in\n    tag_634:\n        /* \"#utility.yul\":9977:10066   */\n      tag_635\n        /* \"#utility.yul\":10059:10065   */\n      dup2\n        /* \"#utility.yul\":10054:10057   */\n      dup6\n        /* \"#utility.yul\":9977:10066   */\n      tag_636\n      jump\t// in\n    tag_635:\n        /* \"#utility.yul\":9970:10066   */\n      swap4\n      pop\n        /* \"#utility.yul\":10075:10127   */\n      tag_637\n        /* \"#utility.yul\":10120:10126   */\n      dup2\n        /* \"#utility.yul\":10115:10118   */\n      dup6\n        /* \"#utility.yul\":10108:10112   */\n      0x20\n        /* \"#utility.yul\":10101:10106   */\n      dup7\n        /* \"#utility.yul\":10097:10113   */\n      add\n        /* \"#utility.yul\":10075:10127   */\n      tag_621\n      jump\t// in\n    tag_637:\n        /* \"#utility.yul\":10152:10158   */\n      dup1\n        /* \"#utility.yul\":10147:10150   */\n      dup5\n        /* \"#utility.yul\":10143:10159   */\n      add\n        /* \"#utility.yul\":10136:10159   */\n      swap2\n      pop\n        /* \"#utility.yul\":9898:10165   */\n      pop\n      swap3\n      swap2\n      pop\n      pop\n      jump\t// out\n        /* \"#utility.yul\":10171:10537   */\n    tag_638:\n        /* \"#utility.yul\":10313:10316   */\n      0x00\n        /* \"#utility.yul\":10334:10401   */\n      tag_640\n        /* \"#utility.yul\":10398:10400   */\n      0x2d\n        /* \"#utility.yul\":10393:10396   */\n      dup4\n        /* \"#utility.yul\":10334:10401   */\n      tag_629\n      jump\t// in\n    tag_640:\n        /* \"#utility.yul\":10327:10401   */\n      swap2\n      pop\n        /* \"#utility.yul\":10410:10503   */\n      tag_641\n        /* \"#utility.yul\":10499:10502   */\n      dup3\n        /* \"#utility.yul\":10410:10503   */\n      tag_642\n      jump\t// in\n    tag_641:\n        /* \"#utility.yul\":10528:10530   */\n      0x40\n        /* \"#utility.yul\":10523:10526   */\n      dup3\n        /* \"#utility.yul\":10519:10531   */\n      add\n        /* \"#utility.yul\":10512:10531   */\n      swap1\n      pop\n        /* \"#utility.yul\":10317:10537   */\n      swap2\n      swap1\n      pop\n      jump\t// out\n        /* \"#utility.yul\":10543:10909   */\n    tag_643:\n        /* \"#utility.yul\":10685:10688   */\n      0x00\n        /* \"#utility.yul\":10706:10773   */\n      tag_645\n        /* \"#utility.yul\":10770:10772   */\n      0x1b\n        /* \"#utility.yul\":10765:10768   */\n      dup4\n        /* \"#utility.yul\":10706:10773   */\n      tag_629\n      jump\t// in\n    tag_645:\n        /* \"#utility.yul\":10699:10773   */\n      swap2\n      pop\n        /* \"#utility.yul\":10782:10875   */\n      tag_646\n        /* \"#utility.yul\":10871:10874   */\n      dup3\n        /* \"#utility.yul\":10782:10875   */\n      tag_647\n      jump\t// in\n    tag_646:\n        /* \"#utility.yul\":10900:10902   */\n      0x20\n        /* \"#utility.yul\":10895:10898   */\n      dup3\n        /* \"#utility.yul\":10891:10903   */\n      add\n        /* \"#utility.yul\":10884:10903   */\n      swap1\n      pop\n        /* \"#utility.yul\":10689:10909   */\n      swap2\n      swap1\n      pop\n      jump\t// out\n        /* \"#utility.yul\":10915:11281   */\n    tag_648:\n        /* \"#utility.yul\":11057:11060   */\n      0x00\n        /* \"#utility.yul\":11078:11145   */\n      tag_650\n        /* \"#utility.yul\":11142:11144   */\n      0x32\n        /* \"#utility.yul\":11137:11140   */\n      dup4\n        /* \"#utility.yul\":11078:11145   */\n      tag_629\n      jump\t// in\n    tag_650:\n        /* \"#utility.yul\":11071:11145   */\n      swap2\n      pop\n        /* \"#utility.yul\":11154:11247   */\n      tag_651\n        /* \"#utility.yul\":11243:11246   */\n      dup3\n        /* \"#utility.yul\":11154:11247   */\n      tag_652\n      jump\t// in\n    tag_651:\n        /* \"#utility.yul\":11272:11274   */\n      0x40\n        /* \"#utility.yul\":11267:11270   */\n      dup3\n        /* \"#utility.yul\":11263:11275   */\n      add\n        /* \"#utility.yul\":11256:11275   */\n      swap1\n      pop\n        /* \"#utility.yul\":11061:11281   */\n      swap2\n      swap1\n      pop\n      jump\t// out\n        /* \"#utility.yul\":11287:11653   */\n    tag_653:\n        /* \"#utility.yul\":11429:11432   */\n      0x00\n        /* \"#utility.yul\":11450:11517   */\n      tag_655\n        /* \"#utility.yul\":11514:11516   */\n      0x25\n        /* \"#utility.yul\":11509:11512   */\n      dup4\n        /* \"#utility.yul\":11450:11517   */\n      tag_629\n      jump\t// in\n    tag_655:\n        /* \"#utility.yul\":11443:11517   */\n      swap2\n      pop\n        /* \"#utility.yul\":11526:11619   */\n      tag_656\n        /* \"#utility.yul\":11615:11618   */\n      dup3\n        /* \"#utility.yul\":11526:11619   */\n      tag_657\n      jump\t// in\n    tag_656:\n        /* \"#utility.yul\":11644:11646   */\n      0x40\n        /* \"#utility.yul\":11639:11642   */\n      dup3\n        /* \"#utility.yul\":11635:11647   */\n      add\n        /* \"#utility.yul\":11628:11647   */\n      swap1\n      pop\n        /* \"#utility.yul\":11433:11653   */\n      swap2\n      swap1\n      pop\n      jump\t// out\n        /* \"#utility.yul\":11659:12025   */\n    tag_658:\n        /* \"#utility.yul\":11801:11804   */\n      0x00\n        /* \"#utility.yul\":11822:11889   */\n      tag_660\n        /* \"#utility.yul\":11886:11888   */\n      0x26\n        /* \"#utility.yul\":11881:11884   */\n      dup4\n        /* \"#utility.yul\":11822:11889   */\n      tag_629\n      jump\t// in\n    tag_660:\n        /* \"#utility.yul\":11815:11889   */\n      swap2\n      pop\n        /* \"#utility.yul\":11898:11991   */\n      tag_661\n        /* \"#utility.yul\":11987:11990   */\n      dup3\n        /* \"#utility.yul\":11898:11991   */\n      tag_662\n      jump\t// in\n    tag_661:\n        /* \"#utility.yul\":12016:12018   */\n      0x40\n        /* \"#utility.yul\":12011:12014   */\n      dup3\n        /* \"#utility.yul\":12007:12019   */\n      add\n        /* \"#utility.yul\":12000:12019   */\n      swap1\n      pop\n        /* \"#utility.yul\":11805:12025   */\n      swap2\n      swap1\n      pop\n      jump\t// out\n        /* \"#utility.yul\":12031:12397   */\n    tag_663:\n        /* \"#utility.yul\":12173:12176   */\n      0x00\n        /* \"#utility.yul\":12194:12261   */\n      tag_665\n        /* \"#utility.yul\":12258:12260   */\n      0x1c\n        /* \"#utility.yul\":12253:12256   */\n      dup4\n        /* \"#utility.yul\":12194:12261   */\n      tag_629\n      jump\t// in\n    tag_665:\n        /* \"#utility.yul\":12187:12261   */\n      swap2\n      pop\n        /* \"#utility.yul\":12270:12363   */\n      tag_666\n        /* \"#utility.yul\":12359:12362   */\n      dup3\n        /* \"#utility.yul\":12270:12363   */\n      tag_667\n      jump\t// in\n    tag_666:\n        /* \"#utility.yul\":12388:12390   */\n      0x20\n        /* \"#utility.yul\":12383:12386   */\n      dup3\n        /* \"#utility.yul\":12379:12391   */\n      add\n        /* \"#utility.yul\":12372:12391   */\n      swap1\n      pop\n        /* \"#utility.yul\":12177:12397   */\n      swap2\n      swap1\n      pop\n      jump\t// out\n        /* \"#utility.yul\":12403:12769   */\n    tag_668:\n        /* \"#utility.yul\":12545:12548   */\n      0x00\n        /* \"#utility.yul\":12566:12633   */\n      tag_670\n        /* \"#utility.yul\":12630:12632   */\n      0x24\n        /* \"#utility.yul\":12625:12628   */\n      dup4\n        /* \"#utility.yul\":12566:12633   */\n      tag_629\n      jump\t// in\n    tag_670:\n        /* \"#utility.yul\":12559:12633   */\n      swap2\n      pop\n        /* \"#utility.yul\":12642:12735   */\n      tag_671\n        /* \"#utility.yul\":12731:12734   */\n      dup3\n        /* \"#utility.yul\":12642:12735   */\n      tag_672\n      jump\t// in\n    tag_671:\n        /* \"#utility.yul\":12760:12762   */\n      0x40\n        /* \"#utility.yul\":12755:12758   */\n      dup3\n        /* \"#utility.yul\":12751:12763   */\n      add\n        /* \"#utility.yul\":12744:12763   */\n      swap1\n      pop\n        /* \"#utility.yul\":12549:12769   */\n      swap2\n      swap1\n      pop\n      jump\t// out\n        /* \"#utility.yul\":12775:13141   */\n    tag_673:\n        /* \"#utility.yul\":12917:12920   */\n      0x00\n        /* \"#utility.yul\":12938:13005   */\n      tag_675\n        /* \"#utility.yul\":13002:13004   */\n      0x19\n        /* \"#utility.yul\":12997:13000   */\n      dup4\n        /* \"#utility.yul\":12938:13005   */\n      tag_629\n      jump\t// in\n    tag_675:\n        /* \"#utility.yul\":12931:13005   */\n      swap2\n      pop\n        /* \"#utility.yul\":13014:13107   */\n      tag_676\n        /* \"#utility.yul\":13103:13106   */\n      dup3\n        /* \"#utility.yul\":13014:13107   */\n      tag_677\n      jump\t// in\n    tag_676:\n        /* \"#utility.yul\":13132:13134   */\n      0x20\n        /* \"#utility.yul\":13127:13130   */\n      dup3\n        /* \"#utility.yul\":13123:13135   */\n      add\n        /* \"#utility.yul\":13116:13135   */\n      swap1\n      pop\n        /* \"#utility.yul\":12921:13141   */\n      swap2\n      swap1\n      pop\n      jump\t// out\n        /* \"#utility.yul\":13147:13513   */\n    tag_678:\n        /* \"#utility.yul\":13289:13292   */\n      0x00\n        /* \"#utility.yul\":13310:13377   */\n      tag_680\n        /* \"#utility.yul\":13374:13376   */\n      0x29\n        /* \"#utility.yul\":13369:13372   */\n      dup4\n        /* \"#utility.yul\":13310:13377   */\n      tag_629\n      jump\t// in\n    tag_680:\n        /* \"#utility.yul\":13303:13377   */\n      swap2\n      pop\n        /* \"#utility.yul\":13386:13479   */\n      tag_681\n        /* \"#utility.yul\":13475:13478   */\n      dup3\n        /* \"#utility.yul\":13386:13479   */\n      tag_682\n      jump\t// in\n    tag_681:\n        /* \"#utility.yul\":13504:13506   */\n      0x40\n        /* \"#utility.yul\":13499:13502   */\n      dup3\n        /* \"#utility.yul\":13495:13507   */\n      add\n        /* \"#utility.yul\":13488:13507   */\n      swap1\n      pop\n        /* \"#utility.yul\":13293:13513   */\n      swap2\n      swap1\n      pop\n      jump\t// out\n        /* \"#utility.yul\":13519:13885   */\n    tag_683:\n        /* \"#utility.yul\":13661:13664   */\n      0x00\n        /* \"#utility.yul\":13682:13749   */\n      tag_685\n        /* \"#utility.yul\":13746:13748   */\n      0x2e\n        /* \"#utility.yul\":13741:13744   */\n      dup4\n        /* \"#utility.yul\":13682:13749   */\n      tag_629\n      jump\t// in\n    tag_685:\n        /* \"#utility.yul\":13675:13749   */\n      swap2\n      pop\n        /* \"#utility.yul\":13758:13851   */\n      tag_686\n        /* \"#utility.yul\":13847:13850   */\n      dup3\n        /* \"#utility.yul\":13758:13851   */\n      tag_687\n      jump\t// in\n    tag_686:\n        /* \"#utility.yul\":13876:13878   */\n      0x40\n        /* \"#utility.yul\":13871:13874   */\n      dup3\n        /* \"#utility.yul\":13867:13879   */\n      add\n        /* \"#utility.yul\":13860:13879   */\n      swap1\n      pop\n        /* \"#utility.yul\":13665:13885   */\n      swap2\n      swap1\n      pop\n      jump\t// out\n        /* \"#utility.yul\":13891:14257   */\n    tag_688:\n        /* \"#utility.yul\":14033:14036   */\n      0x00\n        /* \"#utility.yul\":14054:14121   */\n      tag_690\n        /* \"#utility.yul\":14118:14120   */\n      0x20\n        /* \"#utility.yul\":14113:14116   */\n      dup4\n        /* \"#utility.yul\":14054:14121   */\n      tag_629\n      jump\t// in\n    tag_690:\n        /* \"#utility.yul\":14047:14121   */\n      swap2\n      pop\n        /* \"#utility.yul\":14130:14223   */\n      tag_691\n        /* \"#utility.yul\":14219:14222   */\n      dup3\n        /* \"#utility.yul\":14130:14223   */\n      tag_692\n      jump\t// in\n    tag_691:\n        /* \"#utility.yul\":14248:14250   */\n      0x20\n        /* \"#utility.yul\":14243:14246   */\n      dup3\n        /* \"#utility.yul\":14239:14251   */\n      add\n        /* \"#utility.yul\":14232:14251   */\n      swap1\n      pop\n        /* \"#utility.yul\":14037:14257   */\n      swap2\n      swap1\n      pop\n      jump\t// out\n        /* \"#utility.yul\":14263:14629   */\n    tag_693:\n        /* \"#utility.yul\":14405:14408   */\n      0x00\n        /* \"#utility.yul\":14426:14493   */\n      tag_695\n        /* \"#utility.yul\":14490:14492   */\n      0x18\n        /* \"#utility.yul\":14485:14488   */\n      dup4\n        /* \"#utility.yul\":14426:14493   */\n      tag_629\n      jump\t// in\n    tag_695:\n        /* \"#utility.yul\":14419:14493   */\n      swap2\n      pop\n        /* \"#utility.yul\":14502:14595   */\n      tag_696\n        /* \"#utility.yul\":14591:14594   */\n      dup3\n        /* \"#utility.yul\":14502:14595   */\n      tag_697\n      jump\t// in\n    tag_696:\n        /* \"#utility.yul\":14620:14622   */\n      0x20\n        /* \"#utility.yul\":14615:14618   */\n      dup3\n        /* \"#utility.yul\":14611:14623   */\n      add\n        /* \"#utility.yul\":14604:14623   */\n      swap1\n      pop\n        /* \"#utility.yul\":14409:14629   */\n      swap2\n      swap1\n      pop\n      jump\t// out\n        /* \"#utility.yul\":14635:15001   */\n    tag_698:\n        /* \"#utility.yul\":14777:14780   */\n      0x00\n        /* \"#utility.yul\":14798:14865   */\n      tag_700\n        /* \"#utility.yul\":14862:14864   */\n      0x21\n        /* \"#utility.yul\":14857:14860   */\n      dup4\n        /* \"#utility.yul\":14798:14865   */\n      tag_629\n      jump\t// in\n    tag_700:\n        /* \"#utility.yul\":14791:14865   */\n      swap2\n      pop\n        /* \"#utility.yul\":14874:14967   */\n      tag_701\n        /* \"#utility.yul\":14963:14966   */\n      dup3\n        /* \"#utility.yul\":14874:14967   */\n      tag_702\n      jump\t// in\n    tag_701:\n        /* \"#utility.yul\":14992:14994   */\n      0x40\n        /* \"#utility.yul\":14987:14990   */\n      dup3\n        /* \"#utility.yul\":14983:14995   */\n      add\n        /* \"#utility.yul\":14976:14995   */\n      swap1\n      pop\n        /* \"#utility.yul\":14781:15001   */\n      swap2\n      swap1\n      pop\n      jump\t// out\n        /* \"#utility.yul\":15007:15373   */\n    tag_703:\n        /* \"#utility.yul\":15149:15152   */\n      0x00\n        /* \"#utility.yul\":15170:15237   */\n      tag_705\n        /* \"#utility.yul\":15234:15236   */\n      0x3d\n        /* \"#utility.yul\":15229:15232   */\n      dup4\n        /* \"#utility.yul\":15170:15237   */\n      tag_629\n      jump\t// in\n    tag_705:\n        /* \"#utility.yul\":15163:15237   */\n      swap2\n      pop\n        /* \"#utility.yul\":15246:15339   */\n      tag_706\n        /* \"#utility.yul\":15335:15338   */\n      dup3\n        /* \"#utility.yul\":15246:15339   */\n      tag_707\n      jump\t// in\n    tag_706:\n        /* \"#utility.yul\":15364:15366   */\n      0x40\n        /* \"#utility.yul\":15359:15362   */\n      dup3\n        /* \"#utility.yul\":15355:15367   */\n      add\n        /* \"#utility.yul\":15348:15367   */\n      swap1\n      pop\n        /* \"#utility.yul\":15153:15373   */\n      swap2\n      swap1\n      pop\n      jump\t// out\n        /* \"#utility.yul\":15379:15745   */\n    tag_708:\n        /* \"#utility.yul\":15521:15524   */\n      0x00\n        /* \"#utility.yul\":15542:15609   */\n      tag_710\n        /* \"#utility.yul\":15606:15608   */\n      0x20\n        /* \"#utility.yul\":15601:15604   */\n      dup4\n        /* \"#utility.yul\":15542:15609   */\n      tag_629\n      jump\t// in\n    tag_710:\n        /* \"#utility.yul\":15535:15609   */\n      swap2\n      pop\n        /* \"#utility.yul\":15618:15711   */\n      tag_711\n        /* \"#utility.yul\":15707:15710   */\n      dup3\n        /* \"#utility.yul\":15618:15711   */\n      tag_712\n      jump\t// in\n    tag_711:\n        /* \"#utility.yul\":15736:15738   */\n      0x20\n        /* \"#utility.yul\":15731:15734   */\n      dup3\n        /* \"#utility.yul\":15727:15739   */\n      add\n        /* \"#utility.yul\":15720:15739   */\n      swap1\n      pop\n        /* \"#utility.yul\":15525:15745   */\n      swap2\n      swap1\n      pop\n      jump\t// out\n        /* \"#utility.yul\":15751:16117   */\n    tag_713:\n        /* \"#utility.yul\":15893:15896   */\n      0x00\n        /* \"#utility.yul\":15914:15981   */\n      tag_715\n        /* \"#utility.yul\":15978:15980   */\n      0x1f\n        /* \"#utility.yul\":15973:15976   */\n      dup4\n        /* \"#utility.yul\":15914:15981   */\n      tag_629\n      jump\t// in\n    tag_715:\n        /* \"#utility.yul\":15907:15981   */\n      swap2\n      pop\n        /* \"#utility.yul\":15990:16083   */\n      tag_716\n        /* \"#utility.yul\":16079:16082   */\n      dup3\n        /* \"#utility.yul\":15990:16083   */\n      tag_717\n      jump\t// in\n    tag_716:\n        /* \"#utility.yul\":16108:16110   */\n      0x20\n        /* \"#utility.yul\":16103:16106   */\n      dup3\n        /* \"#utility.yul\":16099:16111   */\n      add\n        /* \"#utility.yul\":16092:16111   */\n      swap1\n      pop\n        /* \"#utility.yul\":15897:16117   */\n      swap2\n      swap1\n      pop\n      jump\t// out\n        /* \"#utility.yul\":16123:16489   */\n    tag_718:\n        /* \"#utility.yul\":16265:16268   */\n      0x00\n        /* \"#utility.yul\":16286:16353   */\n      tag_720\n        /* \"#utility.yul\":16350:16352   */\n      0x1c\n        /* \"#utility.yul\":16345:16348   */\n      dup4\n        /* \"#utility.yul\":16286:16353   */\n      tag_629\n      jump\t// in\n    tag_720:\n        /* \"#utility.yul\":16279:16353   */\n      swap2\n      pop\n        /* \"#utility.yul\":16362:16455   */\n      tag_721\n        /* \"#utility.yul\":16451:16454   */\n      dup3\n        /* \"#utility.yul\":16362:16455   */\n      tag_722\n      jump\t// in\n    tag_721:\n        /* \"#utility.yul\":16480:16482   */\n      0x20\n        /* \"#utility.yul\":16475:16478   */\n      dup3\n        /* \"#utility.yul\":16471:16483   */\n      add\n        /* \"#utility.yul\":16464:16483   */\n      swap1\n      pop\n        /* \"#utility.yul\":16269:16489   */\n      swap2\n      swap1\n      pop\n      jump\t// out\n        /* \"#utility.yul\":16551:17776   */\n    tag_577:\n        /* \"#utility.yul\":16678:16682   */\n      0xc0\n        /* \"#utility.yul\":16673:16676   */\n      dup3\n        /* \"#utility.yul\":16669:16683   */\n      add\n        /* \"#utility.yul\":16772:16776   */\n      0x00\n        /* \"#utility.yul\":16765:16770   */\n      dup3\n        /* \"#utility.yul\":16761:16777   */\n      add\n        /* \"#utility.yul\":16755:16778   */\n      mload\n        /* \"#utility.yul\":16791:16854   */\n      tag_724\n        /* \"#utility.yul\":16848:16852   */\n      0x00\n        /* \"#utility.yul\":16843:16846   */\n      dup6\n        /* \"#utility.yul\":16839:16853   */\n      add\n        /* \"#utility.yul\":16825:16837   */\n      dup3\n        /* \"#utility.yul\":16791:16854   */\n      tag_586\n      jump\t// in\n    tag_724:\n        /* \"#utility.yul\":16693:16864   */\n      pop\n        /* \"#utility.yul\":16949:16953   */\n      0x20\n        /* \"#utility.yul\":16942:16947   */\n      dup3\n        /* \"#utility.yul\":16938:16954   */\n      add\n        /* \"#utility.yul\":16932:16955   */\n      mload\n        /* \"#utility.yul\":16968:17031   */\n      tag_725\n        /* \"#utility.yul\":17025:17029   */\n      0x20\n        /* \"#utility.yul\":17020:17023   */\n      dup6\n        /* \"#utility.yul\":17016:17030   */\n      add\n        /* \"#utility.yul\":17002:17014   */\n      dup3\n        /* \"#utility.yul\":16968:17031   */\n      tag_726\n      jump\t// in\n    tag_725:\n        /* \"#utility.yul\":16874:17041   */\n      pop\n        /* \"#utility.yul\":17125:17129   */\n      0x40\n        /* \"#utility.yul\":17118:17123   */\n      dup3\n        /* \"#utility.yul\":17114:17130   */\n      add\n        /* \"#utility.yul\":17108:17131   */\n      mload\n        /* \"#utility.yul\":17144:17223   */\n      tag_727\n        /* \"#utility.yul\":17217:17221   */\n      0x40\n        /* \"#utility.yul\":17212:17215   */\n      dup6\n        /* \"#utility.yul\":17208:17222   */\n      add\n        /* \"#utility.yul\":17194:17206   */\n      dup3\n        /* \"#utility.yul\":17144:17223   */\n      tag_582\n      jump\t// in\n    tag_727:\n        /* \"#utility.yul\":17051:17233   */\n      pop\n        /* \"#utility.yul\":17316:17320   */\n      0x60\n        /* \"#utility.yul\":17309:17314   */\n      dup3\n        /* \"#utility.yul\":17305:17321   */\n      add\n        /* \"#utility.yul\":17299:17322   */\n      mload\n        /* \"#utility.yul\":17335:17414   */\n      tag_728\n        /* \"#utility.yul\":17408:17412   */\n      0x60\n        /* \"#utility.yul\":17403:17406   */\n      dup6\n        /* \"#utility.yul\":17399:17413   */\n      add\n        /* \"#utility.yul\":17385:17397   */\n      dup3\n        /* \"#utility.yul\":17335:17414   */\n      tag_582\n      jump\t// in\n    tag_728:\n        /* \"#utility.yul\":17243:17424   */\n      pop\n        /* \"#utility.yul\":17507:17511   */\n      0x80\n        /* \"#utility.yul\":17500:17505   */\n      dup3\n        /* \"#utility.yul\":17496:17512   */\n      add\n        /* \"#utility.yul\":17490:17513   */\n      mload\n        /* \"#utility.yul\":17526:17589   */\n      tag_729\n        /* \"#utility.yul\":17583:17587   */\n      0x80\n        /* \"#utility.yul\":17578:17581   */\n      dup6\n        /* \"#utility.yul\":17574:17588   */\n      add\n        /* \"#utility.yul\":17560:17572   */\n      dup3\n        /* \"#utility.yul\":17526:17589   */\n      tag_726\n      jump\t// in\n    tag_729:\n        /* \"#utility.yul\":17434:17599   */\n      pop\n        /* \"#utility.yul\":17683:17687   */\n      0xa0\n        /* \"#utility.yul\":17676:17681   */\n      dup3\n        /* \"#utility.yul\":17672:17688   */\n      add\n        /* \"#utility.yul\":17666:17689   */\n      mload\n        /* \"#utility.yul\":17702:17759   */\n      tag_730\n        /* \"#utility.yul\":17753:17757   */\n      0xa0\n        /* \"#utility.yul\":17748:17751   */\n      dup6\n        /* \"#utility.yul\":17744:17758   */\n      add\n        /* \"#utility.yul\":17730:17742   */\n      dup3\n        /* \"#utility.yul\":17702:17759   */\n      tag_607\n      jump\t// in\n    tag_730:\n        /* \"#utility.yul\":17609:17769   */\n      pop\n        /* \"#utility.yul\":16647:17776   */\n      pop\n      pop\n      pop\n      jump\t// out\n        /* \"#utility.yul\":17782:17890   */\n    tag_726:\n        /* \"#utility.yul\":17859:17883   */\n      tag_732\n        /* \"#utility.yul\":17877:17882   */\n      dup2\n        /* \"#utility.yul\":17859:17883   */\n      tag_733\n      jump\t// in\n    tag_732:\n        /* \"#utility.yul\":17854:17857   */\n      dup3\n        /* \"#utility.yul\":17847:17884   */\n      mstore\n        /* \"#utility.yul\":17837:17890   */\n      pop\n      pop\n      jump\t// out\n        /* \"#utility.yul\":17896:18014   */\n    tag_734:\n        /* \"#utility.yul\":17983:18007   */\n      tag_736\n        /* \"#utility.yul\":18001:18006   */\n      dup2\n        /* \"#utility.yul\":17983:18007   */\n      tag_733\n      jump\t// in\n    tag_736:\n        /* \"#utility.yul\":17978:17981   */\n      dup3\n        /* \"#utility.yul\":17971:18008   */\n      mstore\n        /* \"#utility.yul\":17961:18014   */\n      pop\n      pop\n      jump\t// out\n        /* \"#utility.yul\":18020:18455   */\n    tag_333:\n        /* \"#utility.yul\":18200:18203   */\n      0x00\n        /* \"#utility.yul\":18222:18317   */\n      tag_738\n        /* \"#utility.yul\":18313:18316   */\n      dup3\n        /* \"#utility.yul\":18304:18310   */\n      dup6\n        /* \"#utility.yul\":18222:18317   */\n      tag_632\n      jump\t// in\n    tag_738:\n        /* \"#utility.yul\":18215:18317   */\n      swap2\n      pop\n        /* \"#utility.yul\":18334:18429   */\n      tag_739\n        /* \"#utility.yul\":18425:18428   */\n      dup3\n        /* \"#utility.yul\":18416:18422   */\n      dup5\n        /* \"#utility.yul\":18334:18429   */\n      tag_632\n      jump\t// in\n    tag_739:\n        /* \"#utility.yul\":18327:18429   */\n      swap2\n      pop\n        /* \"#utility.yul\":18446:18449   */\n      dup2\n        /* \"#utility.yul\":18439:18449   */\n      swap1\n      pop\n        /* \"#utility.yul\":18204:18455   */\n      swap4\n      swap3\n      pop\n      pop\n      pop\n      jump\t// out\n        /* \"#utility.yul\":18461:18683   */\n    tag_51:\n        /* \"#utility.yul\":18554:18558   */\n      0x00\n        /* \"#utility.yul\":18592:18594   */\n      0x20\n        /* \"#utility.yul\":18581:18590   */\n      dup3\n        /* \"#utility.yul\":18577:18595   */\n      add\n        /* \"#utility.yul\":18569:18595   */\n      swap1\n      pop\n        /* \"#utility.yul\":18605:18676   */\n      tag_741\n        /* \"#utility.yul\":18673:18674   */\n      0x00\n        /* \"#utility.yul\":18662:18671   */\n      dup4\n        /* \"#utility.yul\":18658:18675   */\n      add\n        /* \"#utility.yul\":18649:18655   */\n      dup5\n        /* \"#utility.yul\":18605:18676   */\n      tag_590\n      jump\t// in\n    tag_741:\n        /* \"#utility.yul\":18559:18683   */\n      swap3\n      swap2\n      pop\n      pop\n      jump\t// out\n        /* \"#utility.yul\":18689:19147   */\n    tag_262:\n        /* \"#utility.yul\":18846:18850   */\n      0x00\n        /* \"#utility.yul\":18884:18886   */\n      0x60\n        /* \"#utility.yul\":18873:18882   */\n      dup3\n        /* \"#utility.yul\":18869:18887   */\n      add\n        /* \"#utility.yul\":18861:18887   */\n      swap1\n      pop\n        /* \"#utility.yul\":18897:18968   */\n      tag_743\n        /* \"#utility.yul\":18965:18966   */\n      0x00\n        /* \"#utility.yul\":18954:18963   */\n      dup4\n        /* \"#utility.yul\":18950:18967   */\n      add\n        /* \"#utility.yul\":18941:18947   */\n      dup7\n        /* \"#utility.yul\":18897:18968   */\n      tag_590\n      jump\t// in\n    tag_743:\n        /* \"#utility.yul\":18978:19058   */\n      tag_744\n        /* \"#utility.yul\":19054:19056   */\n      0x20\n        /* \"#utility.yul\":19043:19052   */\n      dup4\n        /* \"#utility.yul\":19039:19057   */\n      add\n        /* \"#utility.yul\":19030:19036   */\n      dup6\n        /* \"#utility.yul\":18978:19058   */\n      tag_578\n      jump\t// in\n    tag_744:\n        /* \"#utility.yul\":19068:19140   */\n      tag_745\n        /* \"#utility.yul\":19136:19138   */\n      0x40\n        /* \"#utility.yul\":19125:19134   */\n      dup4\n        /* \"#utility.yul\":19121:19139   */\n      add\n        /* \"#utility.yul\":19112:19118   */\n      dup5\n        /* \"#utility.yul\":19068:19140   */\n      tag_734\n      jump\t// in\n    tag_745:\n        /* \"#utility.yul\":18851:19147   */\n      swap5\n      swap4\n      pop\n      pop\n      pop\n      pop\n      jump\t// out\n        /* \"#utility.yul\":19153:19595   */\n    tag_242:\n        /* \"#utility.yul\":19302:19306   */\n      0x00\n        /* \"#utility.yul\":19340:19342   */\n      0x60\n        /* \"#utility.yul\":19329:19338   */\n      dup3\n        /* \"#utility.yul\":19325:19343   */\n      add\n        /* \"#utility.yul\":19317:19343   */\n      swap1\n      pop\n        /* \"#utility.yul\":19353:19424   */\n      tag_747\n        /* \"#utility.yul\":19421:19422   */\n      0x00\n        /* \"#utility.yul\":19410:19419   */\n      dup4\n        /* \"#utility.yul\":19406:19423   */\n      add\n        /* \"#utility.yul\":19397:19403   */\n      dup7\n        /* \"#utility.yul\":19353:19424   */\n      tag_590\n      jump\t// in\n    tag_747:\n        /* \"#utility.yul\":19434:19506   */\n      tag_748\n        /* \"#utility.yul\":19502:19504   */\n      0x20\n        /* \"#utility.yul\":19491:19500   */\n      dup4\n        /* \"#utility.yul\":19487:19505   */\n      add\n        /* \"#utility.yul\":19478:19484   */\n      dup6\n        /* \"#utility.yul\":19434:19506   */\n      tag_590\n      jump\t// in\n    tag_748:\n        /* \"#utility.yul\":19516:19588   */\n      tag_749\n        /* \"#utility.yul\":19584:19586   */\n      0x40\n        /* \"#utility.yul\":19573:19582   */\n      dup4\n        /* \"#utility.yul\":19569:19587   */\n      add\n        /* \"#utility.yul\":19560:19566   */\n      dup5\n        /* \"#utility.yul\":19516:19588   */\n      tag_734\n      jump\t// in\n    tag_749:\n        /* \"#utility.yul\":19307:19595   */\n      swap5\n      swap4\n      pop\n      pop\n      pop\n      pop\n      jump\t// out\n        /* \"#utility.yul\":19601:20241   */\n    tag_440:\n        /* \"#utility.yul\":19796:19800   */\n      0x00\n        /* \"#utility.yul\":19834:19837   */\n      0x80\n        /* \"#utility.yul\":19823:19832   */\n      dup3\n        /* \"#utility.yul\":19819:19838   */\n      add\n        /* \"#utility.yul\":19811:19838   */\n      swap1\n      pop\n        /* \"#utility.yul\":19848:19919   */\n      tag_751\n        /* \"#utility.yul\":19916:19917   */\n      0x00\n        /* \"#utility.yul\":19905:19914   */\n      dup4\n        /* \"#utility.yul\":19901:19918   */\n      add\n        /* \"#utility.yul\":19892:19898   */\n      dup8\n        /* \"#utility.yul\":19848:19919   */\n      tag_590\n      jump\t// in\n    tag_751:\n        /* \"#utility.yul\":19929:20001   */\n      tag_752\n        /* \"#utility.yul\":19997:19999   */\n      0x20\n        /* \"#utility.yul\":19986:19995   */\n      dup4\n        /* \"#utility.yul\":19982:20000   */\n      add\n        /* \"#utility.yul\":19973:19979   */\n      dup7\n        /* \"#utility.yul\":19929:20001   */\n      tag_590\n      jump\t// in\n    tag_752:\n        /* \"#utility.yul\":20011:20083   */\n      tag_753\n        /* \"#utility.yul\":20079:20081   */\n      0x40\n        /* \"#utility.yul\":20068:20077   */\n      dup4\n        /* \"#utility.yul\":20064:20082   */\n      add\n        /* \"#utility.yul\":20055:20061   */\n      dup6\n        /* \"#utility.yul\":20011:20083   */\n      tag_734\n      jump\t// in\n    tag_753:\n        /* \"#utility.yul\":20130:20139   */\n      dup2\n        /* \"#utility.yul\":20124:20128   */\n      dup2\n        /* \"#utility.yul\":20120:20140   */\n      sub\n        /* \"#utility.yul\":20115:20117   */\n      0x60\n        /* \"#utility.yul\":20104:20113   */\n      dup4\n        /* \"#utility.yul\":20100:20118   */\n      add\n        /* \"#utility.yul\":20093:20141   */\n      mstore\n        /* \"#utility.yul\":20158:20234   */\n      tag_754\n        /* \"#utility.yul\":20229:20233   */\n      dup2\n        /* \"#utility.yul\":20220:20226   */\n      dup5\n        /* \"#utility.yul\":20158:20234   */\n      tag_614\n      jump\t// in\n    tag_754:\n        /* \"#utility.yul\":20150:20234   */\n      swap1\n      pop\n        /* \"#utility.yul\":19801:20241   */\n      swap6\n      swap5\n      pop\n      pop\n      pop\n      pop\n      pop\n      jump\t// out\n        /* \"#utility.yul\":20247:20943   */\n    tag_271:\n        /* \"#utility.yul\":20468:20472   */\n      0x00\n        /* \"#utility.yul\":20506:20509   */\n      0xa0\n        /* \"#utility.yul\":20495:20504   */\n      dup3\n        /* \"#utility.yul\":20491:20510   */\n      add\n        /* \"#utility.yul\":20483:20510   */\n      swap1\n      pop\n        /* \"#utility.yul\":20520:20591   */\n      tag_756\n        /* \"#utility.yul\":20588:20589   */\n      0x00\n        /* \"#utility.yul\":20577:20586   */\n      dup4\n        /* \"#utility.yul\":20573:20590   */\n      add\n        /* \"#utility.yul\":20564:20570   */\n      dup9\n        /* \"#utility.yul\":20520:20591   */\n      tag_590\n      jump\t// in\n    tag_756:\n        /* \"#utility.yul\":20601:20673   */\n      tag_757\n        /* \"#utility.yul\":20669:20671   */\n      0x20\n        /* \"#utility.yul\":20658:20667   */\n      dup4\n        /* \"#utility.yul\":20654:20672   */\n      add\n        /* \"#utility.yul\":20645:20651   */\n      dup8\n        /* \"#utility.yul\":20601:20673   */\n      tag_734\n      jump\t// in\n    tag_757:\n        /* \"#utility.yul\":20683:20763   */\n      tag_758\n        /* \"#utility.yul\":20759:20761   */\n      0x40\n        /* \"#utility.yul\":20748:20757   */\n      dup4\n        /* \"#utility.yul\":20744:20762   */\n      add\n        /* \"#utility.yul\":20735:20741   */\n      dup7\n        /* \"#utility.yul\":20683:20763   */\n      tag_578\n      jump\t// in\n    tag_758:\n        /* \"#utility.yul\":20773:20853   */\n      tag_759\n        /* \"#utility.yul\":20849:20851   */\n      0x60\n        /* \"#utility.yul\":20838:20847   */\n      dup4\n        /* \"#utility.yul\":20834:20852   */\n      add\n        /* \"#utility.yul\":20825:20831   */\n      dup6\n        /* \"#utility.yul\":20773:20853   */\n      tag_578\n      jump\t// in\n    tag_759:\n        /* \"#utility.yul\":20863:20936   */\n      tag_760\n        /* \"#utility.yul\":20931:20934   */\n      0x80\n        /* \"#utility.yul\":20920:20929   */\n      dup4\n        /* \"#utility.yul\":20916:20935   */\n      add\n        /* \"#utility.yul\":20907:20913   */\n      dup5\n        /* \"#utility.yul\":20863:20936   */\n      tag_734\n      jump\t// in\n    tag_760:\n        /* \"#utility.yul\":20473:20943   */\n      swap7\n      swap6\n      pop\n      pop\n      pop\n      pop\n      pop\n      pop\n      jump\t// out\n        /* \"#utility.yul\":20949:21613   */\n    tag_249:\n        /* \"#utility.yul\":21154:21158   */\n      0x00\n        /* \"#utility.yul\":21192:21195   */\n      0xa0\n        /* \"#utility.yul\":21181:21190   */\n      dup3\n        /* \"#utility.yul\":21177:21196   */\n      add\n        /* \"#utility.yul\":21169:21196   */\n      swap1\n      pop\n        /* \"#utility.yul\":21206:21277   */\n      tag_762\n        /* \"#utility.yul\":21274:21275   */\n      0x00\n        /* \"#utility.yul\":21263:21272   */\n      dup4\n        /* \"#utility.yul\":21259:21276   */\n      add\n        /* \"#utility.yul\":21250:21256   */\n      dup9\n        /* \"#utility.yul\":21206:21277   */\n      tag_590\n      jump\t// in\n    tag_762:\n        /* \"#utility.yul\":21287:21359   */\n      tag_763\n        /* \"#utility.yul\":21355:21357   */\n      0x20\n        /* \"#utility.yul\":21344:21353   */\n      dup4\n        /* \"#utility.yul\":21340:21358   */\n      add\n        /* \"#utility.yul\":21331:21337   */\n      dup8\n        /* \"#utility.yul\":21287:21359   */\n      tag_734\n      jump\t// in\n    tag_763:\n        /* \"#utility.yul\":21369:21441   */\n      tag_764\n        /* \"#utility.yul\":21437:21439   */\n      0x40\n        /* \"#utility.yul\":21426:21435   */\n      dup4\n        /* \"#utility.yul\":21422:21440   */\n      add\n        /* \"#utility.yul\":21413:21419   */\n      dup7\n        /* \"#utility.yul\":21369:21441   */\n      tag_590\n      jump\t// in\n    tag_764:\n        /* \"#utility.yul\":21451:21523   */\n      tag_765\n        /* \"#utility.yul\":21519:21521   */\n      0x60\n        /* \"#utility.yul\":21508:21517   */\n      dup4\n        /* \"#utility.yul\":21504:21522   */\n      add\n        /* \"#utility.yul\":21495:21501   */\n      dup6\n        /* \"#utility.yul\":21451:21523   */\n      tag_590\n      jump\t// in\n    tag_765:\n        /* \"#utility.yul\":21533:21606   */\n      tag_766\n        /* \"#utility.yul\":21601:21604   */\n      0x80\n        /* \"#utility.yul\":21590:21599   */\n      dup4\n        /* \"#utility.yul\":21586:21605   */\n      add\n        /* \"#utility.yul\":21577:21583   */\n      dup5\n        /* \"#utility.yul\":21533:21606   */\n      tag_734\n      jump\t// in\n    tag_766:\n        /* \"#utility.yul\":21159:21613   */\n      swap7\n      swap6\n      pop\n      pop\n      pop\n      pop\n      pop\n      pop\n      jump\t// out\n        /* \"#utility.yul\":21619:22072   */\n    tag_39:\n        /* \"#utility.yul\":21802:21806   */\n      0x00\n        /* \"#utility.yul\":21840:21842   */\n      0x20\n        /* \"#utility.yul\":21829:21838   */\n      dup3\n        /* \"#utility.yul\":21825:21843   */\n      add\n        /* \"#utility.yul\":21817:21843   */\n      swap1\n      pop\n        /* \"#utility.yul\":21889:21898   */\n      dup2\n        /* \"#utility.yul\":21883:21887   */\n      dup2\n        /* \"#utility.yul\":21879:21899   */\n      sub\n        /* \"#utility.yul\":21875:21876   */\n      0x00\n        /* \"#utility.yul\":21864:21873   */\n      dup4\n        /* \"#utility.yul\":21860:21877   */\n      add\n        /* \"#utility.yul\":21853:21900   */\n      mstore\n        /* \"#utility.yul\":21917:22065   */\n      tag_768\n        /* \"#utility.yul\":22060:22064   */\n      dup2\n        /* \"#utility.yul\":22051:22057   */\n      dup5\n        /* \"#utility.yul\":21917:22065   */\n      tag_593\n      jump\t// in\n    tag_768:\n        /* \"#utility.yul\":21909:22065   */\n      swap1\n      pop\n        /* \"#utility.yul\":21807:22072   */\n      swap3\n      swap2\n      pop\n      pop\n      jump\t// out\n        /* \"#utility.yul\":22078:22288   */\n    tag_34:\n        /* \"#utility.yul\":22165:22169   */\n      0x00\n        /* \"#utility.yul\":22203:22205   */\n      0x20\n        /* \"#utility.yul\":22192:22201   */\n      dup3\n        /* \"#utility.yul\":22188:22206   */\n      add\n        /* \"#utility.yul\":22180:22206   */\n      swap1\n      pop\n        /* \"#utility.yul\":22216:22281   */\n      tag_770\n        /* \"#utility.yul\":22278:22279   */\n      0x00\n        /* \"#utility.yul\":22267:22276   */\n      dup4\n        /* \"#utility.yul\":22263:22280   */\n      add\n        /* \"#utility.yul\":22254:22260   */\n      dup5\n        /* \"#utility.yul\":22216:22281   */\n      tag_611\n      jump\t// in\n    tag_770:\n        /* \"#utility.yul\":22170:22288   */\n      swap3\n      swap2\n      pop\n      pop\n      jump\t// out\n        /* \"#utility.yul\":22294:22607   */\n    tag_44:\n        /* \"#utility.yul\":22407:22411   */\n      0x00\n        /* \"#utility.yul\":22445:22447   */\n      0x20\n        /* \"#utility.yul\":22434:22443   */\n      dup3\n        /* \"#utility.yul\":22430:22448   */\n      add\n        /* \"#utility.yul\":22422:22448   */\n      swap1\n      pop\n        /* \"#utility.yul\":22494:22503   */\n      dup2\n        /* \"#utility.yul\":22488:22492   */\n      dup2\n        /* \"#utility.yul\":22484:22504   */\n      sub\n        /* \"#utility.yul\":22480:22481   */\n      0x00\n        /* \"#utility.yul\":22469:22478   */\n      dup4\n        /* \"#utility.yul\":22465:22482   */\n      add\n        /* \"#utility.yul\":22458:22505   */\n      mstore\n        /* \"#utility.yul\":22522:22600   */\n      tag_772\n        /* \"#utility.yul\":22595:22599   */\n      dup2\n        /* \"#utility.yul\":22586:22592   */\n      dup5\n        /* \"#utility.yul\":22522:22600   */\n      tag_624\n      jump\t// in\n    tag_772:\n        /* \"#utility.yul\":22514:22600   */\n      swap1\n      pop\n        /* \"#utility.yul\":22412:22607   */\n      swap3\n      swap2\n      pop\n      pop\n      jump\t// out\n        /* \"#utility.yul\":22613:23032   */\n    tag_227:\n        /* \"#utility.yul\":22779:22783   */\n      0x00\n        /* \"#utility.yul\":22817:22819   */\n      0x20\n        /* \"#utility.yul\":22806:22815   */\n      dup3\n        /* \"#utility.yul\":22802:22820   */\n      add\n        /* \"#utility.yul\":22794:22820   */\n      swap1\n      pop\n        /* \"#utility.yul\":22866:22875   */\n      dup2\n        /* \"#utility.yul\":22860:22864   */\n      dup2\n        /* \"#utility.yul\":22856:22876   */\n      sub\n        /* \"#utility.yul\":22852:22853   */\n      0x00\n        /* \"#utility.yul\":22841:22850   */\n      dup4\n        /* \"#utility.yul\":22837:22854   */\n      add\n        /* \"#utility.yul\":22830:22877   */\n      mstore\n        /* \"#utility.yul\":22894:23025   */\n      tag_774\n        /* \"#utility.yul\":23020:23024   */\n      dup2\n        /* \"#utility.yul\":22894:23025   */\n      tag_638\n      jump\t// in\n    tag_774:\n        /* \"#utility.yul\":22886:23025   */\n      swap1\n      pop\n        /* \"#utility.yul\":22784:23032   */\n      swap2\n      swap1\n      pop\n      jump\t// out\n        /* \"#utility.yul\":23038:23457   */\n    tag_383:\n        /* \"#utility.yul\":23204:23208   */\n      0x00\n        /* \"#utility.yul\":23242:23244   */\n      0x20\n        /* \"#utility.yul\":23231:23240   */\n      dup3\n        /* \"#utility.yul\":23227:23245   */\n      add\n        /* \"#utility.yul\":23219:23245   */\n      swap1\n      pop\n        /* \"#utility.yul\":23291:23300   */\n      dup2\n        /* \"#utility.yul\":23285:23289   */\n      dup2\n        /* \"#utility.yul\":23281:23301   */\n      sub\n        /* \"#utility.yul\":23277:23278   */\n      0x00\n        /* \"#utility.yul\":23266:23275   */\n      dup4\n        /* \"#utility.yul\":23262:23279   */\n      add\n        /* \"#utility.yul\":23255:23302   */\n      mstore\n        /* \"#utility.yul\":23319:23450   */\n      tag_776\n        /* \"#utility.yul\":23445:23449   */\n      dup2\n        /* \"#utility.yul\":23319:23450   */\n      tag_643\n      jump\t// in\n    tag_776:\n        /* \"#utility.yul\":23311:23450   */\n      swap1\n      pop\n        /* \"#utility.yul\":23209:23457   */\n      swap2\n      swap1\n      pop\n      jump\t// out\n        /* \"#utility.yul\":23463:23882   */\n    tag_406:\n        /* \"#utility.yul\":23629:23633   */\n      0x00\n        /* \"#utility.yul\":23667:23669   */\n      0x20\n        /* \"#utility.yul\":23656:23665   */\n      dup3\n        /* \"#utility.yul\":23652:23670   */\n      add\n        /* \"#utility.yul\":23644:23670   */\n      swap1\n      pop\n        /* \"#utility.yul\":23716:23725   */\n      dup2\n        /* \"#utility.yul\":23710:23714   */\n      dup2\n        /* \"#utility.yul\":23706:23726   */\n      sub\n        /* \"#utility.yul\":23702:23703   */\n      0x00\n        /* \"#utility.yul\":23691:23700   */\n      dup4\n        /* \"#utility.yul\":23687:23704   */\n      add\n        /* \"#utility.yul\":23680:23727   */\n      mstore\n        /* \"#utility.yul\":23744:23875   */\n      tag_778\n        /* \"#utility.yul\":23870:23874   */\n      dup2\n        /* \"#utility.yul\":23744:23875   */\n      tag_648\n      jump\t// in\n    tag_778:\n        /* \"#utility.yul\":23736:23875   */\n      swap1\n      pop\n        /* \"#utility.yul\":23634:23882   */\n      swap2\n      swap1\n      pop\n      jump\t// out\n        /* \"#utility.yul\":23888:24307   */\n    tag_369:\n        /* \"#utility.yul\":24054:24058   */\n      0x00\n        /* \"#utility.yul\":24092:24094   */\n      0x20\n        /* \"#utility.yul\":24081:24090   */\n      dup3\n        /* \"#utility.yul\":24077:24095   */\n      add\n        /* \"#utility.yul\":24069:24095   */\n      swap1\n      pop\n        /* \"#utility.yul\":24141:24150   */\n      dup2\n        /* \"#utility.yul\":24135:24139   */\n      dup2\n        /* \"#utility.yul\":24131:24151   */\n      sub\n        /* \"#utility.yul\":24127:24128   */\n      0x00\n        /* \"#utility.yul\":24116:24125   */\n      dup4\n        /* \"#utility.yul\":24112:24129   */\n      add\n        /* \"#utility.yul\":24105:24152   */\n      mstore\n        /* \"#utility.yul\":24169:24300   */\n      tag_780\n        /* \"#utility.yul\":24295:24299   */\n      dup2\n        /* \"#utility.yul\":24169:24300   */\n      tag_653\n      jump\t// in\n    tag_780:\n        /* \"#utility.yul\":24161:24300   */\n      swap1\n      pop\n        /* \"#utility.yul\":24059:24307   */\n      swap2\n      swap1\n      pop\n      jump\t// out\n        /* \"#utility.yul\":24313:24732   */\n    tag_258:\n        /* \"#utility.yul\":24479:24483   */\n      0x00\n        /* \"#utility.yul\":24517:24519   */\n      0x20\n        /* \"#utility.yul\":24506:24515   */\n      dup3\n        /* \"#utility.yul\":24502:24520   */\n      add\n        /* \"#utility.yul\":24494:24520   */\n      swap1\n      pop\n        /* \"#utility.yul\":24566:24575   */\n      dup2\n        /* \"#utility.yul\":24560:24564   */\n      dup2\n        /* \"#utility.yul\":24556:24576   */\n      sub\n        /* \"#utility.yul\":24552:24553   */\n      0x00\n        /* \"#utility.yul\":24541:24550   */\n      dup4\n        /* \"#utility.yul\":24537:24554   */\n      add\n        /* \"#utility.yul\":24530:24577   */\n      mstore\n        /* \"#utility.yul\":24594:24725   */\n      tag_782\n        /* \"#utility.yul\":24720:24724   */\n      dup2\n        /* \"#utility.yul\":24594:24725   */\n      tag_658\n      jump\t// in\n    tag_782:\n        /* \"#utility.yul\":24586:24725   */\n      swap1\n      pop\n        /* \"#utility.yul\":24484:24732   */\n      swap2\n      swap1\n      pop\n      jump\t// out\n        /* \"#utility.yul\":24738:25157   */\n    tag_465:\n        /* \"#utility.yul\":24904:24908   */\n      0x00\n        /* \"#utility.yul\":24942:24944   */\n      0x20\n        /* \"#utility.yul\":24931:24940   */\n      dup3\n        /* \"#utility.yul\":24927:24945   */\n      add\n        /* \"#utility.yul\":24919:24945   */\n      swap1\n      pop\n        /* \"#utility.yul\":24991:25000   */\n      dup2\n        /* \"#utility.yul\":24985:24989   */\n      dup2\n        /* \"#utility.yul\":24981:25001   */\n      sub\n        /* \"#utility.yul\":24977:24978   */\n      0x00\n        /* \"#utility.yul\":24966:24975   */\n      dup4\n        /* \"#utility.yul\":24962:24979   */\n      add\n        /* \"#utility.yul\":24955:25002   */\n      mstore\n        /* \"#utility.yul\":25019:25150   */\n      tag_784\n        /* \"#utility.yul\":25145:25149   */\n      dup2\n        /* \"#utility.yul\":25019:25150   */\n      tag_663\n      jump\t// in\n    tag_784:\n        /* \"#utility.yul\":25011:25150   */\n      swap1\n      pop\n        /* \"#utility.yul\":24909:25157   */\n      swap2\n      swap1\n      pop\n      jump\t// out\n        /* \"#utility.yul\":25163:25582   */\n    tag_372:\n        /* \"#utility.yul\":25329:25333   */\n      0x00\n        /* \"#utility.yul\":25367:25369   */\n      0x20\n        /* \"#utility.yul\":25356:25365   */\n      dup3\n        /* \"#utility.yul\":25352:25370   */\n      add\n        /* \"#utility.yul\":25344:25370   */\n      swap1\n      pop\n        /* \"#utility.yul\":25416:25425   */\n      dup2\n        /* \"#utility.yul\":25410:25414   */\n      dup2\n        /* \"#utility.yul\":25406:25426   */\n      sub\n        /* \"#utility.yul\":25402:25403   */\n      0x00\n        /* \"#utility.yul\":25391:25400   */\n      dup4\n        /* \"#utility.yul\":25387:25404   */\n      add\n        /* \"#utility.yul\":25380:25427   */\n      mstore\n        /* \"#utility.yul\":25444:25575   */\n      tag_786\n        /* \"#utility.yul\":25570:25574   */\n      dup2\n        /* \"#utility.yul\":25444:25575   */\n      tag_668\n      jump\t// in\n    tag_786:\n        /* \"#utility.yul\":25436:25575   */\n      swap1\n      pop\n        /* \"#utility.yul\":25334:25582   */\n      swap2\n      swap1\n      pop\n      jump\t// out\n        /* \"#utility.yul\":25588:26007   */\n    tag_388:\n        /* \"#utility.yul\":25754:25758   */\n      0x00\n        /* \"#utility.yul\":25792:25794   */\n      0x20\n        /* \"#utility.yul\":25781:25790   */\n      dup3\n        /* \"#utility.yul\":25777:25795   */\n      add\n        /* \"#utility.yul\":25769:25795   */\n      swap1\n      pop\n        /* \"#utility.yul\":25841:25850   */\n      dup2\n        /* \"#utility.yul\":25835:25839   */\n      dup2\n        /* \"#utility.yul\":25831:25851   */\n      sub\n        /* \"#utility.yul\":25827:25828   */\n      0x00\n        /* \"#utility.yul\":25816:25825   */\n      dup4\n        /* \"#utility.yul\":25812:25829   */\n      add\n        /* \"#utility.yul\":25805:25852   */\n      mstore\n        /* \"#utility.yul\":25869:26000   */\n      tag_788\n        /* \"#utility.yul\":25995:25999   */\n      dup2\n        /* \"#utility.yul\":25869:26000   */\n      tag_673\n      jump\t// in\n    tag_788:\n        /* \"#utility.yul\":25861:26000   */\n      swap1\n      pop\n        /* \"#utility.yul\":25759:26007   */\n      swap2\n      swap1\n      pop\n      jump\t// out\n        /* \"#utility.yul\":26013:26432   */\n    tag_282:\n        /* \"#utility.yul\":26179:26183   */\n      0x00\n        /* \"#utility.yul\":26217:26219   */\n      0x20\n        /* \"#utility.yul\":26206:26215   */\n      dup3\n        /* \"#utility.yul\":26202:26220   */\n      add\n        /* \"#utility.yul\":26194:26220   */\n      swap1\n      pop\n        /* \"#utility.yul\":26266:26275   */\n      dup2\n        /* \"#utility.yul\":26260:26264   */\n      dup2\n        /* \"#utility.yul\":26256:26276   */\n      sub\n        /* \"#utility.yul\":26252:26253   */\n      0x00\n        /* \"#utility.yul\":26241:26250   */\n      dup4\n        /* \"#utility.yul\":26237:26254   */\n      add\n        /* \"#utility.yul\":26230:26277   */\n      mstore\n        /* \"#utility.yul\":26294:26425   */\n      tag_790\n        /* \"#utility.yul\":26420:26424   */\n      dup2\n        /* \"#utility.yul\":26294:26425   */\n      tag_678\n      jump\t// in\n    tag_790:\n        /* \"#utility.yul\":26286:26425   */\n      swap1\n      pop\n        /* \"#utility.yul\":26184:26432   */\n      swap2\n      swap1\n      pop\n      jump\t// out\n        /* \"#utility.yul\":26438:26857   */\n    tag_397:\n        /* \"#utility.yul\":26604:26608   */\n      0x00\n        /* \"#utility.yul\":26642:26644   */\n      0x20\n        /* \"#utility.yul\":26631:26640   */\n      dup3\n        /* \"#utility.yul\":26627:26645   */\n      add\n        /* \"#utility.yul\":26619:26645   */\n      swap1\n      pop\n        /* \"#utility.yul\":26691:26700   */\n      dup2\n        /* \"#utility.yul\":26685:26689   */\n      dup2\n        /* \"#utility.yul\":26681:26701   */\n      sub\n        /* \"#utility.yul\":26677:26678   */\n      0x00\n        /* \"#utility.yul\":26666:26675   */\n      dup4\n        /* \"#utility.yul\":26662:26679   */\n      add\n        /* \"#utility.yul\":26655:26702   */\n      mstore\n        /* \"#utility.yul\":26719:26850   */\n      tag_792\n        /* \"#utility.yul\":26845:26849   */\n      dup2\n        /* \"#utility.yul\":26719:26850   */\n      tag_683\n      jump\t// in\n    tag_792:\n        /* \"#utility.yul\":26711:26850   */\n      swap1\n      pop\n        /* \"#utility.yul\":26609:26857   */\n      swap2\n      swap1\n      pop\n      jump\t// out\n        /* \"#utility.yul\":26863:27282   */\n    tag_459:\n        /* \"#utility.yul\":27029:27033   */\n      0x00\n        /* \"#utility.yul\":27067:27069   */\n      0x20\n        /* \"#utility.yul\":27056:27065   */\n      dup3\n        /* \"#utility.yul\":27052:27070   */\n      add\n        /* \"#utility.yul\":27044:27070   */\n      swap1\n      pop\n        /* \"#utility.yul\":27116:27125   */\n      dup2\n        /* \"#utility.yul\":27110:27114   */\n      dup2\n        /* \"#utility.yul\":27106:27126   */\n      sub\n        /* \"#utility.yul\":27102:27103   */\n      0x00\n        /* \"#utility.yul\":27091:27100   */\n      dup4\n        /* \"#utility.yul\":27087:27104   */\n      add\n        /* \"#utility.yul\":27080:27127   */\n      mstore\n        /* \"#utility.yul\":27144:27275   */\n      tag_794\n        /* \"#utility.yul\":27270:27274   */\n      dup2\n        /* \"#utility.yul\":27144:27275   */\n      tag_688\n      jump\t// in\n    tag_794:\n        /* \"#utility.yul\":27136:27275   */\n      swap1\n      pop\n        /* \"#utility.yul\":27034:27282   */\n      swap2\n      swap1\n      pop\n      jump\t// out\n        /* \"#utility.yul\":27288:27707   */\n    tag_275:\n        /* \"#utility.yul\":27454:27458   */\n      0x00\n        /* \"#utility.yul\":27492:27494   */\n      0x20\n        /* \"#utility.yul\":27481:27490   */\n      dup3\n        /* \"#utility.yul\":27477:27495   */\n      add\n        /* \"#utility.yul\":27469:27495   */\n      swap1\n      pop\n        /* \"#utility.yul\":27541:27550   */\n      dup2\n        /* \"#utility.yul\":27535:27539   */\n      dup2\n        /* \"#utility.yul\":27531:27551   */\n      sub\n        /* \"#utility.yul\":27527:27528   */\n      0x00\n        /* \"#utility.yul\":27516:27525   */\n      dup4\n        /* \"#utility.yul\":27512:27529   */\n      add\n        /* \"#utility.yul\":27505:27552   */\n      mstore\n        /* \"#utility.yul\":27569:27700   */\n      tag_796\n        /* \"#utility.yul\":27695:27699   */\n      dup2\n        /* \"#utility.yul\":27569:27700   */\n      tag_693\n      jump\t// in\n    tag_796:\n        /* \"#utility.yul\":27561:27700   */\n      swap1\n      pop\n        /* \"#utility.yul\":27459:27707   */\n      swap2\n      swap1\n      pop\n      jump\t// out\n        /* \"#utility.yul\":27713:28132   */\n    tag_184:\n        /* \"#utility.yul\":27879:27883   */\n      0x00\n        /* \"#utility.yul\":27917:27919   */\n      0x20\n        /* \"#utility.yul\":27906:27915   */\n      dup3\n        /* \"#utility.yul\":27902:27920   */\n      add\n        /* \"#utility.yul\":27894:27920   */\n      swap1\n      pop\n        /* \"#utility.yul\":27966:27975   */\n      dup2\n        /* \"#utility.yul\":27960:27964   */\n      dup2\n        /* \"#utility.yul\":27956:27976   */\n      sub\n        /* \"#utility.yul\":27952:27953   */\n      0x00\n        /* \"#utility.yul\":27941:27950   */\n      dup4\n        /* \"#utility.yul\":27937:27954   */\n      add\n        /* \"#utility.yul\":27930:27977   */\n      mstore\n        /* \"#utility.yul\":27994:28125   */\n      tag_798\n        /* \"#utility.yul\":28120:28124   */\n      dup2\n        /* \"#utility.yul\":27994:28125   */\n      tag_698\n      jump\t// in\n    tag_798:\n        /* \"#utility.yul\":27986:28125   */\n      swap1\n      pop\n        /* \"#utility.yul\":27884:28132   */\n      swap2\n      swap1\n      pop\n      jump\t// out\n        /* \"#utility.yul\":28138:28557   */\n    tag_192:\n        /* \"#utility.yul\":28304:28308   */\n      0x00\n        /* \"#utility.yul\":28342:28344   */\n      0x20\n        /* \"#utility.yul\":28331:28340   */\n      dup3\n        /* \"#utility.yul\":28327:28345   */\n      add\n        /* \"#utility.yul\":28319:28345   */\n      swap1\n      pop\n        /* \"#utility.yul\":28391:28400   */\n      dup2\n        /* \"#utility.yul\":28385:28389   */\n      dup2\n        /* \"#utility.yul\":28381:28401   */\n      sub\n        /* \"#utility.yul\":28377:28378   */\n      0x00\n        /* \"#utility.yul\":28366:28375   */\n      dup4\n        /* \"#utility.yul\":28362:28379   */\n      add\n        /* \"#utility.yul\":28355:28402   */\n      mstore\n        /* \"#utility.yul\":28419:28550   */\n      tag_800\n        /* \"#utility.yul\":28545:28549   */\n      dup2\n        /* \"#utility.yul\":28419:28550   */\n      tag_703\n      jump\t// in\n    tag_800:\n        /* \"#utility.yul\":28411:28550   */\n      swap1\n      pop\n        /* \"#utility.yul\":28309:28557   */\n      swap2\n      swap1\n      pop\n      jump\t// out\n        /* \"#utility.yul\":28563:28982   */\n    tag_240:\n        /* \"#utility.yul\":28729:28733   */\n      0x00\n        /* \"#utility.yul\":28767:28769   */\n      0x20\n        /* \"#utility.yul\":28756:28765   */\n      dup3\n        /* \"#utility.yul\":28752:28770   */\n      add\n        /* \"#utility.yul\":28744:28770   */\n      swap1\n      pop\n        /* \"#utility.yul\":28816:28825   */\n      dup2\n        /* \"#utility.yul\":28810:28814   */\n      dup2\n        /* \"#utility.yul\":28806:28826   */\n      sub\n        /* \"#utility.yul\":28802:28803   */\n      0x00\n        /* \"#utility.yul\":28791:28800   */\n      dup4\n        /* \"#utility.yul\":28787:28804   */\n      add\n        /* \"#utility.yul\":28780:28827   */\n      mstore\n        /* \"#utility.yul\":28844:28975   */\n      tag_802\n        /* \"#utility.yul\":28970:28974   */\n      dup2\n        /* \"#utility.yul\":28844:28975   */\n      tag_708\n      jump\t// in\n    tag_802:\n        /* \"#utility.yul\":28836:28975   */\n      swap1\n      pop\n        /* \"#utility.yul\":28734:28982   */\n      swap2\n      swap1\n      pop\n      jump\t// out\n        /* \"#utility.yul\":28988:29407   */\n    tag_233:\n        /* \"#utility.yul\":29154:29158   */\n      0x00\n        /* \"#utility.yul\":29192:29194   */\n      0x20\n        /* \"#utility.yul\":29181:29190   */\n      dup3\n        /* \"#utility.yul\":29177:29195   */\n      add\n        /* \"#utility.yul\":29169:29195   */\n      swap1\n      pop\n        /* \"#utility.yul\":29241:29250   */\n      dup2\n        /* \"#utility.yul\":29235:29239   */\n      dup2\n        /* \"#utility.yul\":29231:29251   */\n      sub\n        /* \"#utility.yul\":29227:29228   */\n      0x00\n        /* \"#utility.yul\":29216:29225   */\n      dup4\n        /* \"#utility.yul\":29212:29229   */\n      add\n        /* \"#utility.yul\":29205:29252   */\n      mstore\n        /* \"#utility.yul\":29269:29400   */\n      tag_804\n        /* \"#utility.yul\":29395:29399   */\n      dup2\n        /* \"#utility.yul\":29269:29400   */\n      tag_713\n      jump\t// in\n    tag_804:\n        /* \"#utility.yul\":29261:29400   */\n      swap1\n      pop\n        /* \"#utility.yul\":29159:29407   */\n      swap2\n      swap1\n      pop\n      jump\t// out\n        /* \"#utility.yul\":29413:29832   */\n    tag_237:\n        /* \"#utility.yul\":29579:29583   */\n      0x00\n        /* \"#utility.yul\":29617:29619   */\n      0x20\n        /* \"#utility.yul\":29606:29615   */\n      dup3\n        /* \"#utility.yul\":29602:29620   */\n      add\n        /* \"#utility.yul\":29594:29620   */\n      swap1\n      pop\n        /* \"#utility.yul\":29666:29675   */\n      dup2\n        /* \"#utility.yul\":29660:29664   */\n      dup2\n        /* \"#utility.yul\":29656:29676   */\n      sub\n        /* \"#utility.yul\":29652:29653   */\n      0x00\n        /* \"#utility.yul\":29641:29650   */\n      dup4\n        /* \"#utility.yul\":29637:29654   */\n      add\n        /* \"#utility.yul\":29630:29677   */\n      mstore\n        /* \"#utility.yul\":29694:29825   */\n      tag_806\n        /* \"#utility.yul\":29820:29824   */\n      dup2\n        /* \"#utility.yul\":29694:29825   */\n      tag_718\n      jump\t// in\n    tag_806:\n        /* \"#utility.yul\":29686:29825   */\n      swap1\n      pop\n        /* \"#utility.yul\":29584:29832   */\n      swap2\n      swap1\n      pop\n      jump\t// out\n        /* \"#utility.yul\":29838:30060   */\n    tag_70:\n        /* \"#utility.yul\":29931:29935   */\n      0x00\n        /* \"#utility.yul\":29969:29971   */\n      0x20\n        /* \"#utility.yul\":29958:29967   */\n      dup3\n        /* \"#utility.yul\":29954:29972   */\n      add\n        /* \"#utility.yul\":29946:29972   */\n      swap1\n      pop\n        /* \"#utility.yul\":29982:30053   */\n      tag_808\n        /* \"#utility.yul\":30050:30051   */\n      0x00\n        /* \"#utility.yul\":30039:30048   */\n      dup4\n        /* \"#utility.yul\":30035:30052   */\n      add\n        /* \"#utility.yul\":30026:30032   */\n      dup5\n        /* \"#utility.yul\":29982:30053   */\n      tag_734\n      jump\t// in\n    tag_808:\n        /* \"#utility.yul\":29936:30060   */\n      swap3\n      swap2\n      pop\n      pop\n      jump\t// out\n        /* \"#utility.yul\":30066:30195   */\n    tag_488:\n        /* \"#utility.yul\":30100:30106   */\n      0x00\n        /* \"#utility.yul\":30127:30147   */\n      tag_810\n      tag_811\n      jump\t// in\n    tag_810:\n        /* \"#utility.yul\":30117:30147   */\n      swap1\n      pop\n        /* \"#utility.yul\":30156:30189   */\n      tag_812\n        /* \"#utility.yul\":30184:30188   */\n      dup3\n        /* \"#utility.yul\":30176:30182   */\n      dup3\n        /* \"#utility.yul\":30156:30189   */\n      tag_813\n      jump\t// in\n    tag_812:\n        /* \"#utility.yul\":30107:30195   */\n      swap2\n      swap1\n      pop\n      jump\t// out\n        /* \"#utility.yul\":30201:30276   */\n    tag_811:\n        /* \"#utility.yul\":30234:30240   */\n      0x00\n        /* \"#utility.yul\":30267:30269   */\n      0x40\n        /* \"#utility.yul\":30261:30270   */\n      mload\n        /* \"#utility.yul\":30251:30270   */\n      swap1\n      pop\n        /* \"#utility.yul\":30241:30276   */\n      swap1\n      jump\t// out\n        /* \"#utility.yul\":30282:30589   */\n    tag_487:\n        /* \"#utility.yul\":30343:30347   */\n      0x00\n        /* \"#utility.yul\":30433:30451   */\n      0xffffffffffffffff\n        /* \"#utility.yul\":30425:30431   */\n      dup3\n        /* \"#utility.yul\":30422:30452   */\n      gt\n        /* \"#utility.yul\":30419:30421   */\n      iszero\n      tag_816\n      jumpi\n        /* \"#utility.yul\":30455:30473   */\n      tag_817\n      tag_818\n      jump\t// in\n    tag_817:\n        /* \"#utility.yul\":30419:30421   */\n    tag_816:\n        /* \"#utility.yul\":30493:30522   */\n      tag_819\n        /* \"#utility.yul\":30515:30521   */\n      dup3\n        /* \"#utility.yul\":30493:30522   */\n      tag_623\n      jump\t// in\n    tag_819:\n        /* \"#utility.yul\":30485:30522   */\n      swap1\n      pop\n        /* \"#utility.yul\":30577:30581   */\n      0x20\n        /* \"#utility.yul\":30571:30575   */\n      dup2\n        /* \"#utility.yul\":30567:30582   */\n      add\n        /* \"#utility.yul\":30559:30582   */\n      swap1\n      pop\n        /* \"#utility.yul\":30348:30589   */\n      swap2\n      swap1\n      pop\n      jump\t// out\n        /* \"#utility.yul\":30595:30903   */\n    tag_496:\n        /* \"#utility.yul\":30657:30661   */\n      0x00\n        /* \"#utility.yul\":30747:30765   */\n      0xffffffffffffffff\n        /* \"#utility.yul\":30739:30745   */\n      dup3\n        /* \"#utility.yul\":30736:30766   */\n      gt\n        /* \"#utility.yul\":30733:30735   */\n      iszero\n      tag_821\n      jumpi\n        /* \"#utility.yul\":30769:30787   */\n      tag_822\n      tag_818\n      jump\t// in\n    tag_822:\n        /* \"#utility.yul\":30733:30735   */\n    tag_821:\n        /* \"#utility.yul\":30807:30836   */\n      tag_823\n        /* \"#utility.yul\":30829:30835   */\n      dup3\n        /* \"#utility.yul\":30807:30836   */\n      tag_623\n      jump\t// in\n    tag_823:\n        /* \"#utility.yul\":30799:30836   */\n      swap1\n      pop\n        /* \"#utility.yul\":30891:30895   */\n      0x20\n        /* \"#utility.yul\":30885:30889   */\n      dup2\n        /* \"#utility.yul\":30881:30896   */\n      add\n        /* \"#utility.yul\":30873:30896   */\n      swap1\n      pop\n        /* \"#utility.yul\":30662:30903   */\n      swap2\n      swap1\n      pop\n      jump\t// out\n        /* \"#utility.yul\":30909:31061   */\n    tag_600:\n        /* \"#utility.yul\":30996:31000   */\n      0x00\n        /* \"#utility.yul\":31019:31022   */\n      dup2\n        /* \"#utility.yul\":31011:31022   */\n      swap1\n      pop\n        /* \"#utility.yul\":31049:31053   */\n      0x20\n        /* \"#utility.yul\":31044:31047   */\n      dup3\n        /* \"#utility.yul\":31040:31054   */\n      add\n        /* \"#utility.yul\":31032:31054   */\n      swap1\n      pop\n        /* \"#utility.yul\":31001:31061   */\n      swap2\n      swap1\n      pop\n      jump\t// out\n        /* \"#utility.yul\":31067:31201   */\n    tag_596:\n        /* \"#utility.yul\":31154:31160   */\n      0x00\n        /* \"#utility.yul\":31188:31193   */\n      dup2\n        /* \"#utility.yul\":31182:31194   */\n      mload\n        /* \"#utility.yul\":31172:31194   */\n      swap1\n      pop\n        /* \"#utility.yul\":31161:31201   */\n      swap2\n      swap1\n      pop\n      jump\t// out\n        /* \"#utility.yul\":31207:31305   */\n    tag_617:\n        /* \"#utility.yul\":31258:31264   */\n      0x00\n        /* \"#utility.yul\":31292:31297   */\n      dup2\n        /* \"#utility.yul\":31286:31298   */\n      mload\n        /* \"#utility.yul\":31276:31298   */\n      swap1\n      pop\n        /* \"#utility.yul\":31265:31305   */\n      swap2\n      swap1\n      pop\n      jump\t// out\n        /* \"#utility.yul\":31311:31410   */\n    tag_627:\n        /* \"#utility.yul\":31363:31369   */\n      0x00\n        /* \"#utility.yul\":31397:31402   */\n      dup2\n        /* \"#utility.yul\":31391:31403   */\n      mload\n        /* \"#utility.yul\":31381:31403   */\n      swap1\n      pop\n        /* \"#utility.yul\":31370:31410   */\n      swap2\n      swap1\n      pop\n      jump\t// out\n        /* \"#utility.yul\":31416:31549   */\n    tag_606:\n        /* \"#utility.yul\":31506:31510   */\n      0x00\n        /* \"#utility.yul\":31538:31542   */\n      0x20\n        /* \"#utility.yul\":31533:31536   */\n      dup3\n        /* \"#utility.yul\":31529:31543   */\n      add\n        /* \"#utility.yul\":31521:31543   */\n      swap1\n      pop\n        /* \"#utility.yul\":31511:31549   */\n      swap2\n      swap1\n      pop\n      jump\t// out\n        /* \"#utility.yul\":31555:31759   */\n    tag_598:\n        /* \"#utility.yul\":31674:31685   */\n      0x00\n        /* \"#utility.yul\":31708:31714   */\n      dup3\n        /* \"#utility.yul\":31703:31706   */\n      dup3\n        /* \"#utility.yul\":31696:31715   */\n      mstore\n        /* \"#utility.yul\":31748:31752   */\n      0x20\n        /* \"#utility.yul\":31743:31746   */\n      dup3\n        /* \"#utility.yul\":31739:31753   */\n      add\n        /* \"#utility.yul\":31724:31753   */\n      swap1\n      pop\n        /* \"#utility.yul\":31686:31759   */\n      swap3\n      swap2\n      pop\n      pop\n      jump\t// out\n        /* \"#utility.yul\":31765:31933   */\n    tag_619:\n        /* \"#utility.yul\":31848:31859   */\n      0x00\n        /* \"#utility.yul\":31882:31888   */\n      dup3\n        /* \"#utility.yul\":31877:31880   */\n      dup3\n        /* \"#utility.yul\":31870:31889   */\n      mstore\n        /* \"#utility.yul\":31922:31926   */\n      0x20\n        /* \"#utility.yul\":31917:31920   */\n      dup3\n        /* \"#utility.yul\":31913:31927   */\n      add\n        /* \"#utility.yul\":31898:31927   */\n      swap1\n      pop\n        /* \"#utility.yul\":31860:31933   */\n      swap3\n      swap2\n      pop\n      pop\n      jump\t// out\n        /* \"#utility.yul\":31939:32108   */\n    tag_629:\n        /* \"#utility.yul\":32023:32034   */\n      0x00\n        /* \"#utility.yul\":32057:32063   */\n      dup3\n        /* \"#utility.yul\":32052:32055   */\n      dup3\n        /* \"#utility.yul\":32045:32064   */\n      mstore\n        /* \"#utility.yul\":32097:32101   */\n      0x20\n        /* \"#utility.yul\":32092:32095   */\n      dup3\n        /* \"#utility.yul\":32088:32102   */\n      add\n        /* \"#utility.yul\":32073:32102   */\n      swap1\n      pop\n        /* \"#utility.yul\":32035:32108   */\n      swap3\n      swap2\n      pop\n      pop\n      jump\t// out\n        /* \"#utility.yul\":32114:32262   */\n    tag_636:\n        /* \"#utility.yul\":32216:32227   */\n      0x00\n        /* \"#utility.yul\":32253:32256   */\n      dup2\n        /* \"#utility.yul\":32238:32256   */\n      swap1\n      pop\n        /* \"#utility.yul\":32228:32262   */\n      swap3\n      swap2\n      pop\n      pop\n      jump\t// out\n        /* \"#utility.yul\":32268:32573   */\n    tag_151:\n        /* \"#utility.yul\":32308:32311   */\n      0x00\n        /* \"#utility.yul\":32327:32347   */\n      tag_834\n        /* \"#utility.yul\":32345:32346   */\n      dup3\n        /* \"#utility.yul\":32327:32347   */\n      tag_733\n      jump\t// in\n    tag_834:\n        /* \"#utility.yul\":32322:32347   */\n      swap2\n      pop\n        /* \"#utility.yul\":32361:32381   */\n      tag_835\n        /* \"#utility.yul\":32379:32380   */\n      dup4\n        /* \"#utility.yul\":32361:32381   */\n      tag_733\n      jump\t// in\n    tag_835:\n        /* \"#utility.yul\":32356:32381   */\n      swap3\n      pop\n        /* \"#utility.yul\":32515:32516   */\n      dup3\n        /* \"#utility.yul\":32447:32513   */\n      0xffffffffffffffffffffffffffffffffffffffffffffffffffffffffffffffff\n        /* \"#utility.yul\":32443:32517   */\n      sub\n        /* \"#utility.yul\":32440:32441   */\n      dup3\n        /* \"#utility.yul\":32437:32518   */\n      gt\n        /* \"#utility.yul\":32434:32436   */\n      iszero\n      tag_836\n      jumpi\n        /* \"#utility.yul\":32521:32539   */\n      tag_837\n      tag_838\n      jump\t// in\n    tag_837:\n        /* \"#utility.yul\":32434:32436   */\n    tag_836:\n        /* \"#utility.yul\":32565:32566   */\n      dup3\n        /* \"#utility.yul\":32562:32563   */\n      dup3\n        /* \"#utility.yul\":32558:32567   */\n      add\n        /* \"#utility.yul\":32551:32567   */\n      swap1\n      pop\n        /* \"#utility.yul\":32312:32573   */\n      swap3\n      swap2\n      pop\n      pop\n      jump\t// out\n        /* \"#utility.yul\":32579:32764   */\n    tag_414:\n        /* \"#utility.yul\":32619:32620   */\n      0x00\n        /* \"#utility.yul\":32636:32656   */\n      tag_840\n        /* \"#utility.yul\":32654:32655   */\n      dup3\n        /* \"#utility.yul\":32636:32656   */\n      tag_733\n      jump\t// in\n    tag_840:\n        /* \"#utility.yul\":32631:32656   */\n      swap2\n      pop\n        /* \"#utility.yul\":32670:32690   */\n      tag_841\n        /* \"#utility.yul\":32688:32689   */\n      dup4\n        /* \"#utility.yul\":32670:32690   */\n      tag_733\n      jump\t// in\n    tag_841:\n        /* \"#utility.yul\":32665:32690   */\n      swap3\n      pop\n        /* \"#utility.yul\":32709:32710   */\n      dup3\n        /* \"#utility.yul\":32699:32701   */\n      tag_842\n      jumpi\n        /* \"#utility.yul\":32714:32732   */\n      tag_843\n      tag_844\n      jump\t// in\n    tag_843:\n        /* \"#utility.yul\":32699:32701   */\n    tag_842:\n        /* \"#utility.yul\":32756:32757   */\n      dup3\n        /* \"#utility.yul\":32753:32754   */\n      dup3\n        /* \"#utility.yul\":32749:32758   */\n      div\n        /* \"#utility.yul\":32744:32758   */\n      swap1\n      pop\n        /* \"#utility.yul\":32621:32764   */\n      swap3\n      swap2\n      pop\n      pop\n      jump\t// out\n        /* \"#utility.yul\":32770:32961   */\n    tag_287:\n        /* \"#utility.yul\":32810:32814   */\n      0x00\n        /* \"#utility.yul\":32830:32850   */\n      tag_846\n        /* \"#utility.yul\":32848:32849   */\n      dup3\n        /* \"#utility.yul\":32830:32850   */\n      tag_733\n      jump\t// in\n    tag_846:\n        /* \"#utility.yul\":32825:32850   */\n      swap2\n      pop\n        /* \"#utility.yul\":32864:32884   */\n      tag_847\n        /* \"#utility.yul\":32882:32883   */\n      dup4\n        /* \"#utility.yul\":32864:32884   */\n      tag_733\n      jump\t// in\n    tag_847:\n        /* \"#utility.yul\":32859:32884   */\n      swap3\n      pop\n        /* \"#utility.yul\":32903:32904   */\n      dup3\n        /* \"#utility.yul\":32900:32901   */\n      dup3\n        /* \"#utility.yul\":32897:32905   */\n      lt\n        /* \"#utility.yul\":32894:32896   */\n      iszero\n      tag_848\n      jumpi\n        /* \"#utility.yul\":32908:32926   */\n      tag_849\n      tag_838\n      jump\t// in\n    tag_849:\n        /* \"#utility.yul\":32894:32896   */\n    tag_848:\n        /* \"#utility.yul\":32953:32954   */\n      dup3\n        /* \"#utility.yul\":32950:32951   */\n      dup3\n        /* \"#utility.yul\":32946:32955   */\n      sub\n        /* \"#utility.yul\":32938:32955   */\n      swap1\n      pop\n        /* \"#utility.yul\":32815:32961   */\n      swap3\n      swap2\n      pop\n      pop\n      jump\t// out\n        /* \"#utility.yul\":32967:33063   */\n    tag_589:\n        /* \"#utility.yul\":33004:33011   */\n      0x00\n        /* \"#utility.yul\":33033:33057   */\n      tag_851\n        /* \"#utility.yul\":33051:33056   */\n      dup3\n        /* \"#utility.yul\":33033:33057   */\n      tag_852\n      jump\t// in\n    tag_851:\n        /* \"#utility.yul\":33022:33057   */\n      swap1\n      pop\n        /* \"#utility.yul\":33012:33063   */\n      swap2\n      swap1\n      pop\n      jump\t// out\n        /* \"#utility.yul\":33069:33173   */\n    tag_585:\n        /* \"#utility.yul\":33114:33121   */\n      0x00\n        /* \"#utility.yul\":33143:33167   */\n      tag_854\n        /* \"#utility.yul\":33161:33166   */\n      dup3\n        /* \"#utility.yul\":33143:33167   */\n      tag_852\n      jump\t// in\n    tag_854:\n        /* \"#utility.yul\":33132:33167   */\n      swap1\n      pop\n        /* \"#utility.yul\":33122:33173   */\n      swap2\n      swap1\n      pop\n      jump\t// out\n        /* \"#utility.yul\":33179:33269   */\n    tag_610:\n        /* \"#utility.yul\":33213:33220   */\n      0x00\n        /* \"#utility.yul\":33256:33261   */\n      dup2\n        /* \"#utility.yul\":33249:33262   */\n      iszero\n        /* \"#utility.yul\":33242:33263   */\n      iszero\n        /* \"#utility.yul\":33231:33263   */\n      swap1\n      pop\n        /* \"#utility.yul\":33221:33269   */\n      swap2\n      swap1\n      pop\n      jump\t// out\n        /* \"#utility.yul\":33275:33424   */\n    tag_856:\n        /* \"#utility.yul\":33311:33318   */\n      0x00\n        /* \"#utility.yul\":33351:33417   */\n      0xffffffff00000000000000000000000000000000000000000000000000000000\n        /* \"#utility.yul\":33344:33349   */\n      dup3\n        /* \"#utility.yul\":33340:33418   */\n      and\n        /* \"#utility.yul\":33329:33418   */\n      swap1\n      pop\n        /* \"#utility.yul\":33319:33424   */\n      swap2\n      swap1\n      pop\n      jump\t// out\n        /* \"#utility.yul\":33430:33556   */\n    tag_852:\n        /* \"#utility.yul\":33467:33474   */\n      0x00\n        /* \"#utility.yul\":33507:33549   */\n      0xffffffffffffffffffffffffffffffffffffffff\n        /* \"#utility.yul\":33500:33505   */\n      dup3\n        /* \"#utility.yul\":33496:33550   */\n      and\n        /* \"#utility.yul\":33485:33550   */\n      swap1\n      pop\n        /* \"#utility.yul\":33475:33556   */\n      swap2\n      swap1\n      pop\n      jump\t// out\n        /* \"#utility.yul\":33562:33639   */\n    tag_733:\n        /* \"#utility.yul\":33599:33606   */\n      0x00\n        /* \"#utility.yul\":33628:33633   */\n      dup2\n        /* \"#utility.yul\":33617:33633   */\n      swap1\n      pop\n        /* \"#utility.yul\":33607:33639   */\n      swap2\n      swap1\n      pop\n      jump\t// out\n        /* \"#utility.yul\":33645:33779   */\n    tag_581:\n        /* \"#utility.yul\":33703:33712   */\n      0x00\n        /* \"#utility.yul\":33736:33773   */\n      tag_861\n        /* \"#utility.yul\":33767:33772   */\n      dup3\n        /* \"#utility.yul\":33736:33773   */\n      tag_862\n      jump\t// in\n    tag_861:\n        /* \"#utility.yul\":33723:33773   */\n      swap1\n      pop\n        /* \"#utility.yul\":33713:33779   */\n      swap2\n      swap1\n      pop\n      jump\t// out\n        /* \"#utility.yul\":33785:33911   */\n    tag_862:\n        /* \"#utility.yul\":33835:33844   */\n      0x00\n        /* \"#utility.yul\":33868:33905   */\n      tag_864\n        /* \"#utility.yul\":33899:33904   */\n      dup3\n        /* \"#utility.yul\":33868:33905   */\n      tag_865\n      jump\t// in\n    tag_864:\n        /* \"#utility.yul\":33855:33905   */\n      swap1\n      pop\n        /* \"#utility.yul\":33845:33911   */\n      swap2\n      swap1\n      pop\n      jump\t// out\n        /* \"#utility.yul\":33917:34030   */\n    tag_865:\n        /* \"#utility.yul\":33967:33976   */\n      0x00\n        /* \"#utility.yul\":34000:34024   */\n      tag_867\n        /* \"#utility.yul\":34018:34023   */\n      dup3\n        /* \"#utility.yul\":34000:34024   */\n      tag_852\n      jump\t// in\n    tag_867:\n        /* \"#utility.yul\":33987:34024   */\n      swap1\n      pop\n        /* \"#utility.yul\":33977:34030   */\n      swap2\n      swap1\n      pop\n      jump\t// out\n        /* \"#utility.yul\":34036:34190   */\n    tag_491:\n        /* \"#utility.yul\":34120:34126   */\n      dup3\n        /* \"#utility.yul\":34115:34118   */\n      dup2\n        /* \"#utility.yul\":34110:34113   */\n      dup4\n        /* \"#utility.yul\":34097:34127   */\n      calldatacopy\n        /* \"#utility.yul\":34182:34183   */\n      0x00\n        /* \"#utility.yul\":34173:34179   */\n      dup4\n        /* \"#utility.yul\":34168:34171   */\n      dup4\n        /* \"#utility.yul\":34164:34180   */\n      add\n        /* \"#utility.yul\":34157:34184   */\n      mstore\n        /* \"#utility.yul\":34087:34190   */\n      pop\n      pop\n      pop\n      jump\t// out\n        /* \"#utility.yul\":34196:34503   */\n    tag_621:\n        /* \"#utility.yul\":34264:34265   */\n      0x00\n        /* \"#utility.yul\":34274:34387   */\n    tag_870:\n        /* \"#utility.yul\":34288:34294   */\n      dup4\n        /* \"#utility.yul\":34285:34286   */\n      dup2\n        /* \"#utility.yul\":34282:34295   */\n      lt\n        /* \"#utility.yul\":34274:34387   */\n      iszero\n      tag_872\n      jumpi\n        /* \"#utility.yul\":34373:34374   */\n      dup1\n        /* \"#utility.yul\":34368:34371   */\n      dup3\n        /* \"#utility.yul\":34364:34375   */\n      add\n        /* \"#utility.yul\":34358:34376   */\n      mload\n        /* \"#utility.yul\":34354:34355   */\n      dup2\n        /* \"#utility.yul\":34349:34352   */\n      dup5\n        /* \"#utility.yul\":34345:34356   */\n      add\n        /* \"#utility.yul\":34338:34377   */\n      mstore\n        /* \"#utility.yul\":34310:34312   */\n      0x20\n        /* \"#utility.yul\":34307:34308   */\n      dup2\n        /* \"#utility.yul\":34303:34313   */\n      add\n        /* \"#utility.yul\":34298:34313   */\n      swap1\n      pop\n        /* \"#utility.yul\":34274:34387   */\n      jump(tag_870)\n    tag_872:\n        /* \"#utility.yul\":34405:34411   */\n      dup4\n        /* \"#utility.yul\":34402:34403   */\n      dup2\n        /* \"#utility.yul\":34399:34412   */\n      gt\n        /* \"#utility.yul\":34396:34398   */\n      iszero\n      tag_873\n      jumpi\n        /* \"#utility.yul\":34485:34486   */\n      0x00\n        /* \"#utility.yul\":34476:34482   */\n      dup5\n        /* \"#utility.yul\":34471:34474   */\n      dup5\n        /* \"#utility.yul\":34467:34483   */\n      add\n        /* \"#utility.yul\":34460:34487   */\n      mstore\n        /* \"#utility.yul\":34396:34398   */\n    tag_873:\n        /* \"#utility.yul\":34245:34503   */\n      pop\n      pop\n      pop\n      pop\n      jump\t// out\n        /* \"#utility.yul\":34509:34829   */\n    tag_172:\n        /* \"#utility.yul\":34553:34559   */\n      0x00\n        /* \"#utility.yul\":34590:34591   */\n      0x02\n        /* \"#utility.yul\":34584:34588   */\n      dup3\n        /* \"#utility.yul\":34580:34592   */\n      div\n        /* \"#utility.yul\":34570:34592   */\n      swap1\n      pop\n        /* \"#utility.yul\":34637:34638   */\n      0x01\n        /* \"#utility.yul\":34631:34635   */\n      dup3\n        /* \"#utility.yul\":34627:34639   */\n      and\n        /* \"#utility.yul\":34658:34676   */\n      dup1\n        /* \"#utility.yul\":34648:34650   */\n      tag_875\n      jumpi\n        /* \"#utility.yul\":34714:34718   */\n      0x7f\n        /* \"#utility.yul\":34706:34712   */\n      dup3\n        /* \"#utility.yul\":34702:34719   */\n      and\n        /* \"#utility.yul\":34692:34719   */\n      swap2\n      pop\n        /* \"#utility.yul\":34648:34650   */\n    tag_875:\n        /* \"#utility.yul\":34776:34778   */\n      0x20\n        /* \"#utility.yul\":34768:34774   */\n      dup3\n        /* \"#utility.yul\":34765:34779   */\n      lt\n        /* \"#utility.yul\":34745:34763   */\n      dup2\n        /* \"#utility.yul\":34742:34780   */\n      eq\n        /* \"#utility.yul\":34739:34741   */\n      iszero\n      tag_876\n      jumpi\n        /* \"#utility.yul\":34795:34813   */\n      tag_877\n      tag_878\n      jump\t// in\n    tag_877:\n        /* \"#utility.yul\":34739:34741   */\n    tag_876:\n        /* \"#utility.yul\":34560:34829   */\n      pop\n      swap2\n      swap1\n      pop\n      jump\t// out\n        /* \"#utility.yul\":34835:35116   */\n    tag_813:\n        /* \"#utility.yul\":34918:34945   */\n      tag_880\n        /* \"#utility.yul\":34940:34944   */\n      dup3\n        /* \"#utility.yul\":34918:34945   */\n      tag_623\n      jump\t// in\n    tag_880:\n        /* \"#utility.yul\":34910:34916   */\n      dup2\n        /* \"#utility.yul\":34906:34946   */\n      add\n        /* \"#utility.yul\":35048:35054   */\n      dup2\n        /* \"#utility.yul\":35036:35046   */\n      dup2\n        /* \"#utility.yul\":35033:35055   */\n      lt\n        /* \"#utility.yul\":35012:35030   */\n      0xffffffffffffffff\n        /* \"#utility.yul\":35000:35010   */\n      dup3\n        /* \"#utility.yul\":34997:35031   */\n      gt\n        /* \"#utility.yul\":34994:35056   */\n      or\n        /* \"#utility.yul\":34991:34993   */\n      iszero\n      tag_881\n      jumpi\n        /* \"#utility.yul\":35059:35077   */\n      tag_882\n      tag_818\n      jump\t// in\n    tag_882:\n        /* \"#utility.yul\":34991:34993   */\n    tag_881:\n        /* \"#utility.yul\":35099:35109   */\n      dup1\n        /* \"#utility.yul\":35095:35097   */\n      0x40\n        /* \"#utility.yul\":35088:35110   */\n      mstore\n        /* \"#utility.yul\":34878:35116   */\n      pop\n      pop\n      pop\n      jump\t// out\n        /* \"#utility.yul\":35122:35355   */\n    tag_154:\n        /* \"#utility.yul\":35161:35164   */\n      0x00\n        /* \"#utility.yul\":35184:35208   */\n      tag_884\n        /* \"#utility.yul\":35202:35207   */\n      dup3\n        /* \"#utility.yul\":35184:35208   */\n      tag_733\n      jump\t// in\n    tag_884:\n        /* \"#utility.yul\":35175:35208   */\n      swap2\n      pop\n        /* \"#utility.yul\":35230:35296   */\n      0xffffffffffffffffffffffffffffffffffffffffffffffffffffffffffffffff\n        /* \"#utility.yul\":35223:35228   */\n      dup3\n        /* \"#utility.yul\":35220:35297   */\n      eq\n        /* \"#utility.yul\":35217:35219   */\n      iszero\n      tag_885\n      jumpi\n        /* \"#utility.yul\":35300:35318   */\n      tag_886\n      tag_838\n      jump\t// in\n    tag_886:\n        /* \"#utility.yul\":35217:35219   */\n    tag_885:\n        /* \"#utility.yul\":35347:35348   */\n      0x01\n        /* \"#utility.yul\":35340:35345   */\n      dup3\n        /* \"#utility.yul\":35336:35349   */\n      add\n        /* \"#utility.yul\":35329:35349   */\n      swap1\n      pop\n        /* \"#utility.yul\":35165:35355   */\n      swap2\n      swap1\n      pop\n      jump\t// out\n        /* \"#utility.yul\":35361:35537   */\n    tag_421:\n        /* \"#utility.yul\":35393:35394   */\n      0x00\n        /* \"#utility.yul\":35410:35430   */\n      tag_888\n        /* \"#utility.yul\":35428:35429   */\n      dup3\n        /* \"#utility.yul\":35410:35430   */\n      tag_733\n      jump\t// in\n    tag_888:\n        /* \"#utility.yul\":35405:35430   */\n      swap2\n      pop\n        /* \"#utility.yul\":35444:35464   */\n      tag_889\n        /* \"#utility.yul\":35462:35463   */\n      dup4\n        /* \"#utility.yul\":35444:35464   */\n      tag_733\n      jump\t// in\n    tag_889:\n        /* \"#utility.yul\":35439:35464   */\n      swap3\n      pop\n        /* \"#utility.yul\":35483:35484   */\n      dup3\n        /* \"#utility.yul\":35473:35475   */\n      tag_890\n      jumpi\n        /* \"#utility.yul\":35488:35506   */\n      tag_891\n      tag_844\n      jump\t// in\n    tag_891:\n        /* \"#utility.yul\":35473:35475   */\n    tag_890:\n        /* \"#utility.yul\":35529:35530   */\n      dup3\n        /* \"#utility.yul\":35526:35527   */\n      dup3\n        /* \"#utility.yul\":35522:35531   */\n      mod\n        /* \"#utility.yul\":35517:35531   */\n      swap1\n      pop\n        /* \"#utility.yul\":35395:35537   */\n      swap3\n      swap2\n      pop\n      pop\n      jump\t// out\n        /* \"#utility.yul\":35543:35723   */\n    tag_838:\n        /* \"#utility.yul\":35591:35668   */\n      0x4e487b7100000000000000000000000000000000000000000000000000000000\n        /* \"#utility.yul\":35588:35589   */\n      0x00\n        /* \"#utility.yul\":35581:35669   */\n      mstore\n        /* \"#utility.yul\":35688:35692   */\n      0x11\n        /* \"#utility.yul\":35685:35686   */\n      0x04\n        /* \"#utility.yul\":35678:35693   */\n      mstore\n        /* \"#utility.yul\":35712:35716   */\n      0x24\n        /* \"#utility.yul\":35709:35710   */\n      0x00\n        /* \"#utility.yul\":35702:35717   */\n      revert\n        /* \"#utility.yul\":35729:35909   */\n    tag_844:\n        /* \"#utility.yul\":35777:35854   */\n      0x4e487b7100000000000000000000000000000000000000000000000000000000\n        /* \"#utility.yul\":35774:35775   */\n      0x00\n        /* \"#utility.yul\":35767:35855   */\n      mstore\n        /* \"#utility.yul\":35874:35878   */\n      0x12\n        /* \"#utility.yul\":35871:35872   */\n      0x04\n        /* \"#utility.yul\":35864:35879   */\n      mstore\n        /* \"#utility.yul\":35898:35902   */\n      0x24\n        /* \"#utility.yul\":35895:35896   */\n      0x00\n        /* \"#utility.yul\":35888:35903   */\n      revert\n        /* \"#utility.yul\":35915:36095   */\n    tag_878:\n        /* \"#utility.yul\":35963:36040   */\n      0x4e487b7100000000000000000000000000000000000000000000000000000000\n        /* \"#utility.yul\":35960:35961   */\n      0x00\n        /* \"#utility.yul\":35953:36041   */\n      mstore\n        /* \"#utility.yul\":36060:36064   */\n      0x22\n        /* \"#utility.yul\":36057:36058   */\n      0x04\n        /* \"#utility.yul\":36050:36065   */\n      mstore\n        /* \"#utility.yul\":36084:36088   */\n      0x24\n        /* \"#utility.yul\":36081:36082   */\n      0x00\n        /* \"#utility.yul\":36074:36089   */\n      revert\n        /* \"#utility.yul\":36101:36281   */\n    tag_818:\n        /* \"#utility.yul\":36149:36226   */\n      0x4e487b7100000000000000000000000000000000000000000000000000000000\n        /* \"#utility.yul\":36146:36147   */\n      0x00\n        /* \"#utility.yul\":36139:36227   */\n      mstore\n        /* \"#utility.yul\":36246:36250   */\n      0x41\n        /* \"#utility.yul\":36243:36244   */\n      0x04\n        /* \"#utility.yul\":36236:36251   */\n      mstore\n        /* \"#utility.yul\":36270:36274   */\n      0x24\n        /* \"#utility.yul\":36267:36268   */\n      0x00\n        /* \"#utility.yul\":36260:36275   */\n      revert\n        /* \"#utility.yul\":36287:36389   */\n    tag_623:\n        /* \"#utility.yul\":36328:36334   */\n      0x00\n        /* \"#utility.yul\":36379:36381   */\n      0x1f\n        /* \"#utility.yul\":36375:36382   */\n      not\n        /* \"#utility.yul\":36370:36372   */\n      0x1f\n        /* \"#utility.yul\":36363:36368   */\n      dup4\n        /* \"#utility.yul\":36359:36373   */\n      add\n        /* \"#utility.yul\":36355:36383   */\n      and\n        /* \"#utility.yul\":36345:36383   */\n      swap1\n      pop\n        /* \"#utility.yul\":36335:36389   */\n      swap2\n      swap1\n      pop\n      jump\t// out\n        /* \"#utility.yul\":36395:36627   */\n    tag_642:\n        /* \"#utility.yul\":36535:36569   */\n      0x4552433732313a2063616c6c6572206973206e6f7420746f6b656e206f776e65\n        /* \"#utility.yul\":36531:36532   */\n      0x00\n        /* \"#utility.yul\":36523:36529   */\n      dup3\n        /* \"#utility.yul\":36519:36533   */\n      add\n        /* \"#utility.yul\":36512:36570   */\n      mstore\n        /* \"#utility.yul\":36604:36619   */\n      0x72206f7220617070726f76656400000000000000000000000000000000000000\n        /* \"#utility.yul\":36599:36601   */\n      0x20\n        /* \"#utility.yul\":36591:36597   */\n      dup3\n        /* \"#utility.yul\":36587:36602   */\n      add\n        /* \"#utility.yul\":36580:36620   */\n      mstore\n        /* \"#utility.yul\":36501:36627   */\n      pop\n      jump\t// out\n        /* \"#utility.yul\":36633:36810   */\n    tag_647:\n        /* \"#utility.yul\":36773:36802   */\n      0x436f756e7465723a2064656372656d656e74206f766572666c6f770000000000\n        /* \"#utility.yul\":36769:36770   */\n      0x00\n        /* \"#utility.yul\":36761:36767   */\n      dup3\n        /* \"#utility.yul\":36757:36771   */\n      add\n        /* \"#utility.yul\":36750:36803   */\n      mstore\n        /* \"#utility.yul\":36739:36810   */\n      pop\n      jump\t// out\n        /* \"#utility.yul\":36816:37053   */\n    tag_652:\n        /* \"#utility.yul\":36956:36990   */\n      0x4552433732313a207472616e7366657220746f206e6f6e204552433732315265\n        /* \"#utility.yul\":36952:36953   */\n      0x00\n        /* \"#utility.yul\":36944:36950   */\n      dup3\n        /* \"#utility.yul\":36940:36954   */\n      add\n        /* \"#utility.yul\":36933:36991   */\n      mstore\n        /* \"#utility.yul\":37025:37045   */\n      0x63656976657220696d706c656d656e7465720000000000000000000000000000\n        /* \"#utility.yul\":37020:37022   */\n      0x20\n        /* \"#utility.yul\":37012:37018   */\n      dup3\n        /* \"#utility.yul\":37008:37023   */\n      add\n        /* \"#utility.yul\":37001:37046   */\n      mstore\n        /* \"#utility.yul\":36922:37053   */\n      pop\n      jump\t// out\n        /* \"#utility.yul\":37059:37283   */\n    tag_657:\n        /* \"#utility.yul\":37199:37233   */\n      0x4552433732313a207472616e736665722066726f6d20696e636f727265637420\n        /* \"#utility.yul\":37195:37196   */\n      0x00\n        /* \"#utility.yul\":37187:37193   */\n      dup3\n        /* \"#utility.yul\":37183:37197   */\n      add\n        /* \"#utility.yul\":37176:37234   */\n      mstore\n        /* \"#utility.yul\":37268:37275   */\n      0x6f776e6572000000000000000000000000000000000000000000000000000000\n        /* \"#utility.yul\":37263:37265   */\n      0x20\n        /* \"#utility.yul\":37255:37261   */\n      dup3\n        /* \"#utility.yul\":37251:37266   */\n      add\n        /* \"#utility.yul\":37244:37276   */\n      mstore\n        /* \"#utility.yul\":37165:37283   */\n      pop\n      jump\t// out\n        /* \"#utility.yul\":37289:37514   */\n    tag_662:\n        /* \"#utility.yul\":37429:37463   */\n      0x4e6f7420656e6f75676820657468657220746f20636f7665722061736b696e67\n        /* \"#utility.yul\":37425:37426   */\n      0x00\n        /* \"#utility.yul\":37417:37423   */\n      dup3\n        /* \"#utility.yul\":37413:37427   */\n      add\n        /* \"#utility.yul\":37406:37464   */\n      mstore\n        /* \"#utility.yul\":37498:37506   */\n      0x2070726963650000000000000000000000000000000000000000000000000000\n        /* \"#utility.yul\":37493:37495   */\n      0x20\n        /* \"#utility.yul\":37485:37491   */\n      dup3\n        /* \"#utility.yul\":37481:37496   */\n      add\n        /* \"#utility.yul\":37474:37507   */\n      mstore\n        /* \"#utility.yul\":37395:37514   */\n      pop\n      jump\t// out\n        /* \"#utility.yul\":37520:37698   */\n    tag_667:\n        /* \"#utility.yul\":37660:37690   */\n      0x4552433732313a20746f6b656e20616c7265616479206d696e74656400000000\n        /* \"#utility.yul\":37656:37657   */\n      0x00\n        /* \"#utility.yul\":37648:37654   */\n      dup3\n        /* \"#utility.yul\":37644:37658   */\n      add\n        /* \"#utility.yul\":37637:37691   */\n      mstore\n        /* \"#utility.yul\":37626:37698   */\n      pop\n      jump\t// out\n        /* \"#utility.yul\":37704:37927   */\n    tag_672:\n        /* \"#utility.yul\":37844:37878   */\n      0x4552433732313a207472616e7366657220746f20746865207a65726f20616464\n        /* \"#utility.yul\":37840:37841   */\n      0x00\n        /* \"#utility.yul\":37832:37838   */\n      dup3\n        /* \"#utility.yul\":37828:37842   */\n      add\n        /* \"#utility.yul\":37821:37879   */\n      mstore\n        /* \"#utility.yul\":37913:37919   */\n      0x7265737300000000000000000000000000000000000000000000000000000000\n        /* \"#utility.yul\":37908:37910   */\n      0x20\n        /* \"#utility.yul\":37900:37906   */\n      dup3\n        /* \"#utility.yul\":37896:37911   */\n      add\n        /* \"#utility.yul\":37889:37920   */\n      mstore\n        /* \"#utility.yul\":37810:37927   */\n      pop\n      jump\t// out\n        /* \"#utility.yul\":37933:38108   */\n    tag_677:\n        /* \"#utility.yul\":38073:38100   */\n      0x4552433732313a20617070726f766520746f2063616c6c657200000000000000\n        /* \"#utility.yul\":38069:38070   */\n      0x00\n        /* \"#utility.yul\":38061:38067   */\n      dup3\n        /* \"#utility.yul\":38057:38071   */\n      add\n        /* \"#utility.yul\":38050:38101   */\n      mstore\n        /* \"#utility.yul\":38039:38108   */\n      pop\n      jump\t// out\n        /* \"#utility.yul\":38114:38342   */\n    tag_682:\n        /* \"#utility.yul\":38254:38288   */\n      0x4552433732313a2061646472657373207a65726f206973206e6f742061207661\n        /* \"#utility.yul\":38250:38251   */\n      0x00\n        /* \"#utility.yul\":38242:38248   */\n      dup3\n        /* \"#utility.yul\":38238:38252   */\n      add\n        /* \"#utility.yul\":38231:38289   */\n      mstore\n        /* \"#utility.yul\":38323:38334   */\n      0x6c6964206f776e65720000000000000000000000000000000000000000000000\n        /* \"#utility.yul\":38318:38320   */\n      0x20\n        /* \"#utility.yul\":38310:38316   */\n      dup3\n        /* \"#utility.yul\":38306:38321   */\n      add\n        /* \"#utility.yul\":38299:38335   */\n      mstore\n        /* \"#utility.yul\":38220:38342   */\n      pop\n      jump\t// out\n        /* \"#utility.yul\":38348:38581   */\n    tag_687:\n        /* \"#utility.yul\":38488:38522   */\n      0x45524337323155524953746f726167653a2055524920736574206f66206e6f6e\n        /* \"#utility.yul\":38484:38485   */\n      0x00\n        /* \"#utility.yul\":38476:38482   */\n      dup3\n        /* \"#utility.yul\":38472:38486   */\n      add\n        /* \"#utility.yul\":38465:38523   */\n      mstore\n        /* \"#utility.yul\":38557:38573   */\n      0x6578697374656e7420746f6b656e000000000000000000000000000000000000\n        /* \"#utility.yul\":38552:38554   */\n      0x20\n        /* \"#utility.yul\":38544:38550   */\n      dup3\n        /* \"#utility.yul\":38540:38555   */\n      add\n        /* \"#utility.yul\":38533:38574   */\n      mstore\n        /* \"#utility.yul\":38454:38581   */\n      pop\n      jump\t// out\n        /* \"#utility.yul\":38587:38769   */\n    tag_692:\n        /* \"#utility.yul\":38727:38761   */\n      0x4552433732313a206d696e7420746f20746865207a65726f2061646472657373\n        /* \"#utility.yul\":38723:38724   */\n      0x00\n        /* \"#utility.yul\":38715:38721   */\n      dup3\n        /* \"#utility.yul\":38711:38725   */\n      add\n        /* \"#utility.yul\":38704:38762   */\n      mstore\n        /* \"#utility.yul\":38693:38769   */\n      pop\n      jump\t// out\n        /* \"#utility.yul\":38775:38949   */\n    tag_697:\n        /* \"#utility.yul\":38915:38941   */\n      0x4552433732313a20696e76616c696420746f6b656e2049440000000000000000\n        /* \"#utility.yul\":38911:38912   */\n      0x00\n        /* \"#utility.yul\":38903:38909   */\n      dup3\n        /* \"#utility.yul\":38899:38913   */\n      add\n        /* \"#utility.yul\":38892:38942   */\n      mstore\n        /* \"#utility.yul\":38881:38949   */\n      pop\n      jump\t// out\n        /* \"#utility.yul\":38955:39175   */\n    tag_702:\n        /* \"#utility.yul\":39095:39129   */\n      0x4552433732313a20617070726f76616c20746f2063757272656e74206f776e65\n        /* \"#utility.yul\":39091:39092   */\n      0x00\n        /* \"#utility.yul\":39083:39089   */\n      dup3\n        /* \"#utility.yul\":39079:39093   */\n      add\n        /* \"#utility.yul\":39072:39130   */\n      mstore\n        /* \"#utility.yul\":39164:39167   */\n      0x7200000000000000000000000000000000000000000000000000000000000000\n        /* \"#utility.yul\":39159:39161   */\n      0x20\n        /* \"#utility.yul\":39151:39157   */\n      dup3\n        /* \"#utility.yul\":39147:39162   */\n      add\n        /* \"#utility.yul\":39140:39168   */\n      mstore\n        /* \"#utility.yul\":39061:39175   */\n      pop\n      jump\t// out\n        /* \"#utility.yul\":39181:39429   */\n    tag_707:\n        /* \"#utility.yul\":39321:39355   */\n      0x4552433732313a20617070726f76652063616c6c6572206973206e6f7420746f\n        /* \"#utility.yul\":39317:39318   */\n      0x00\n        /* \"#utility.yul\":39309:39315   */\n      dup3\n        /* \"#utility.yul\":39305:39319   */\n      add\n        /* \"#utility.yul\":39298:39356   */\n      mstore\n        /* \"#utility.yul\":39390:39421   */\n      0x6b656e206f776e6572206f7220617070726f76656420666f7220616c6c000000\n        /* \"#utility.yul\":39385:39387   */\n      0x20\n        /* \"#utility.yul\":39377:39383   */\n      dup3\n        /* \"#utility.yul\":39373:39388   */\n      add\n        /* \"#utility.yul\":39366:39422   */\n      mstore\n        /* \"#utility.yul\":39287:39429   */\n      pop\n      jump\t// out\n        /* \"#utility.yul\":39435:39617   */\n    tag_712:\n        /* \"#utility.yul\":39575:39609   */\n      0x4e6f7420656e6f75676820657468657220666f72206c697374696e6720666565\n        /* \"#utility.yul\":39571:39572   */\n      0x00\n        /* \"#utility.yul\":39563:39569   */\n      dup3\n        /* \"#utility.yul\":39559:39573   */\n      add\n        /* \"#utility.yul\":39552:39610   */\n      mstore\n        /* \"#utility.yul\":39541:39617   */\n      pop\n      jump\t// out\n        /* \"#utility.yul\":39623:39804   */\n    tag_717:\n        /* \"#utility.yul\":39763:39796   */\n      0x5265656e7472616e637947756172643a207265656e7472616e742063616c6c00\n        /* \"#utility.yul\":39759:39760   */\n      0x00\n        /* \"#utility.yul\":39751:39757   */\n      dup3\n        /* \"#utility.yul\":39747:39761   */\n      add\n        /* \"#utility.yul\":39740:39797   */\n      mstore\n        /* \"#utility.yul\":39729:39804   */\n      pop\n      jump\t// out\n        /* \"#utility.yul\":39810:39988   */\n    tag_722:\n        /* \"#utility.yul\":39950:39980   */\n      0x5072696365206d757374206265206174206c6561737420312077656900000000\n        /* \"#utility.yul\":39946:39947   */\n      0x00\n        /* \"#utility.yul\":39938:39944   */\n      dup3\n        /* \"#utility.yul\":39934:39948   */\n      add\n        /* \"#utility.yul\":39927:39981   */\n      mstore\n        /* \"#utility.yul\":39916:39988   */\n      pop\n      jump\t// out\n        /* \"#utility.yul\":39994:40116   */\n    tag_502:\n        /* \"#utility.yul\":40067:40091   */\n      tag_915\n        /* \"#utility.yul\":40085:40090   */\n      dup2\n        /* \"#utility.yul\":40067:40091   */\n      tag_589\n      jump\t// in\n    tag_915:\n        /* \"#utility.yul\":40060:40065   */\n      dup2\n        /* \"#utility.yul\":40057:40092   */\n      eq\n        /* \"#utility.yul\":40047:40049   */\n      tag_916\n      jumpi\n        /* \"#utility.yul\":40106:40107   */\n      0x00\n        /* \"#utility.yul\":40103:40104   */\n      dup1\n        /* \"#utility.yul\":40096:40108   */\n      revert\n        /* \"#utility.yul\":40047:40049   */\n    tag_916:\n        /* \"#utility.yul\":40037:40116   */\n      pop\n      jump\t// out\n        /* \"#utility.yul\":40122:40238   */\n    tag_506:\n        /* \"#utility.yul\":40192:40213   */\n      tag_918\n        /* \"#utility.yul\":40207:40212   */\n      dup2\n        /* \"#utility.yul\":40192:40213   */\n      tag_610\n      jump\t// in\n    tag_918:\n        /* \"#utility.yul\":40185:40190   */\n      dup2\n        /* \"#utility.yul\":40182:40214   */\n      eq\n        /* \"#utility.yul\":40172:40174   */\n      tag_919\n      jumpi\n        /* \"#utility.yul\":40228:40229   */\n      0x00\n        /* \"#utility.yul\":40225:40226   */\n      dup1\n        /* \"#utility.yul\":40218:40230   */\n      revert\n        /* \"#utility.yul\":40172:40174   */\n    tag_919:\n        /* \"#utility.yul\":40162:40238   */\n      pop\n      jump\t// out\n        /* \"#utility.yul\":40244:40364   */\n    tag_510:\n        /* \"#utility.yul\":40316:40339   */\n      tag_921\n        /* \"#utility.yul\":40333:40338   */\n      dup2\n        /* \"#utility.yul\":40316:40339   */\n      tag_856\n      jump\t// in\n    tag_921:\n        /* \"#utility.yul\":40309:40314   */\n      dup2\n        /* \"#utility.yul\":40306:40340   */\n      eq\n        /* \"#utility.yul\":40296:40298   */\n      tag_922\n      jumpi\n        /* \"#utility.yul\":40354:40355   */\n      0x00\n        /* \"#utility.yul\":40351:40352   */\n      dup1\n        /* \"#utility.yul\":40344:40356   */\n      revert\n        /* \"#utility.yul\":40296:40298   */\n    tag_922:\n        /* \"#utility.yul\":40286:40364   */\n      pop\n      jump\t// out\n        /* \"#utility.yul\":40370:40492   */\n    tag_525:\n        /* \"#utility.yul\":40443:40467   */\n      tag_924\n        /* \"#utility.yul\":40461:40466   */\n      dup2\n        /* \"#utility.yul\":40443:40467   */\n      tag_733\n      jump\t// in\n    tag_924:\n        /* \"#utility.yul\":40436:40441   */\n      dup2\n        /* \"#utility.yul\":40433:40468   */\n      eq\n        /* \"#utility.yul\":40423:40425   */\n      tag_925\n      jumpi\n        /* \"#utility.yul\":40482:40483   */\n      0x00\n        /* \"#utility.yul\":40479:40480   */\n      dup1\n        /* \"#utility.yul\":40472:40484   */\n      revert\n        /* \"#utility.yul\":40423:40425   */\n    tag_925:\n        /* \"#utility.yul\":40413:40492   */\n      pop\n      jump\t// out\n\n    auxdata: 0xa2646970667358221220b71b399b5790864aaa62d56a353bc5ef7a705fb1dad2978735de399ea606ee3764736f6c63430008040033\n}\n",
				"bytecode": {
					"linkReferences": {},
					"object": "6080604052655af3107a4000600b553480156200001b57600080fd5b5060405162004913380380620049138339818101604052810190620000419190620001a5565b600160008190555081600190805190602001906200006192919062000083565b5080600290805190602001906200007a92919062000083565b50505062000388565b8280546200009190620002ad565b90600052602060002090601f016020900481019282620000b5576000855562000101565b82601f10620000d057805160ff191683800117855562000101565b8280016001018555821562000101579182015b8281111562000100578251825591602001919060010190620000e3565b5b50905062000110919062000114565b5090565b5b808211156200012f57600081600090555060010162000115565b5090565b60006200014a620001448462000241565b62000218565b9050828152602081018484840111156200016357600080fd5b6200017084828562000277565b509392505050565b600082601f8301126200018a57600080fd5b81516200019c84826020860162000133565b91505092915050565b60008060408385031215620001b957600080fd5b600083015167ffffffffffffffff811115620001d457600080fd5b620001e28582860162000178565b925050602083015167ffffffffffffffff8111156200020057600080fd5b6200020e8582860162000178565b9150509250929050565b60006200022462000237565b9050620002328282620002e3565b919050565b6000604051905090565b600067ffffffffffffffff8211156200025f576200025e62000348565b5b6200026a8262000377565b9050602081019050919050565b60005b83811015620002975780820151818401526020810190506200027a565b83811115620002a7576000848401525b50505050565b60006002820490506001821680620002c657607f821691505b60208210811415620002dd57620002dc62000319565b5b50919050565b620002ee8262000377565b810181811067ffffffffffffffff8211171562000310576200030f62000348565b5b80604052505050565b7f4e487b7100000000000000000000000000000000000000000000000000000000600052602260045260246000fd5b7f4e487b7100000000000000000000000000000000000000000000000000000000600052604160045260246000fd5b6000601f19601f8301169050919050565b61457b80620003986000396000f3fe6080604052600436106101405760003560e01c806352e04825116100b6578063b85cbc791161006f578063b85cbc7914610454578063b88d4fde1461047d578063b8fe6abe146104a6578063c87b56dd146104d1578063c922b17c1461050e578063e985e9c51461052a57610140565b806352e048251461031e5780636352211e1461035b57806370a08231146103985780638d6cb3fb146103d557806395d89b4114610400578063a22cb4651461042b57610140565b80631f4cc4db116101085780631f4cc4db1461023e57806323b872dd146102695780632b86ae381461029257806334f5b624146102bd57806342842e0e146102d95780634ddf4f8f1461030257610140565b806301ffc9a714610145578063047b07bf1461018257806306fdde03146101ad578063081812fc146101d8578063095ea7b314610215575b600080fd5b34801561015157600080fd5b5061016c60048036038101906101679190613361565b610567565b60405161017991906139fc565b60405180910390f35b34801561018e57600080fd5b50610197610649565b6040516101a491906139da565b60405180910390f35b3480156101b957600080fd5b506101c26109ca565b6040516101cf9190613a17565b60405180910390f35b3480156101e457600080fd5b506101ff60048036038101906101fa91906133b3565b610a5c565b60405161020c919061385f565b60405180910390f35b34801561022157600080fd5b5061023c600480360381019061023791906132d6565b610aa2565b005b34801561024a57600080fd5b50610253610bba565b60405161026091906139da565b60405180910390f35b34801561027557600080fd5b50610290600480360381019061028b9190613155565b610fab565b005b34801561029e57600080fd5b506102a761100b565b6040516102b49190613c59565b60405180910390f35b6102d760048036038101906102d29190613312565b611011565b005b3480156102e557600080fd5b5061030060048036038101906102fb9190613155565b61126f565b005b61031c600480360381019061031791906132d6565b61128f565b005b34801561032a57600080fd5b50610345600480360381019061034091906133b3565b611568565b604051610352919061385f565b60405180910390f35b34801561036757600080fd5b50610382600480360381019061037d91906133b3565b61161a565b60405161038f919061385f565b60405180910390f35b3480156103a457600080fd5b506103bf60048036038101906103ba91906130f0565b6116cc565b6040516103cc9190613c59565b60405180910390f35b3480156103e157600080fd5b506103ea611784565b6040516103f791906139da565b60405180910390f35b34801561040c57600080fd5b50610415611a38565b6040516104229190613a17565b60405180910390f35b34801561043757600080fd5b50610452600480360381019061044d919061329a565b611aca565b005b34801561046057600080fd5b5061047b6004803603810190610476919061321f565b611ae0565b005b34801561048957600080fd5b506104a4600480360381019061049f91906131a4565b611afb565b005b3480156104b257600080fd5b506104bb611b5d565b6040516104c89190613c59565b60405180910390f35b3480156104dd57600080fd5b506104f860048036038101906104f391906133b3565b611b67565b6040516105059190613a17565b60405180910390f35b61052860048036038101906105239190613312565b611bcf565b005b34801561053657600080fd5b50610551600480360381019061054c9190613119565b611efa565b60405161055e91906139fc565b60405180910390f35b60007f80ac58cd000000000000000000000000000000000000000000000000000000007bffffffffffffffffffffffffffffffffffffffffffffffffffffffff1916827bffffffffffffffffffffffffffffffffffffffffffffffffffffffff1916148061063257507f5b5e139f000000000000000000000000000000000000000000000000000000007bffffffffffffffffffffffffffffffffffffffffffffffffffffffff1916827bffffffffffffffffffffffffffffffffffffffffffffffffffffffff1916145b80610642575061064182611f8e565b5b9050919050565b60606000610657600a611ff8565b90506000805b828110156106fd573373ffffffffffffffffffffffffffffffffffffffff16600d600060018461068d9190613d77565b815260200190815260200160002060030160009054906101000a900473ffffffffffffffffffffffffffffffffffffffff1673ffffffffffffffffffffffffffffffffffffffff1614156106ea5781806106e690613f93565b9250505b80806106f590613f93565b91505061065d565b5060008167ffffffffffffffff811115610740577f4e487b7100000000000000000000000000000000000000000000000000000000600052604160045260246000fd5b60405190808252806020026020018201604052801561077957816020015b610766612e9a565b81526020019060019003908161075e5790505b5090506000805b848110156109bf573373ffffffffffffffffffffffffffffffffffffffff16600d60006001846107b09190613d77565b815260200190815260200160002060030160009054906101000a900473ffffffffffffffffffffffffffffffffffffffff1673ffffffffffffffffffffffffffffffffffffffff1614156109ac57600d600060018361080f9190613d77565b81526020019081526020016000206040518060c00160405290816000820160009054906101000a900473ffffffffffffffffffffffffffffffffffffffff1673ffffffffffffffffffffffffffffffffffffffff1673ffffffffffffffffffffffffffffffffffffffff168152602001600182015481526020016002820160009054906101000a900473ffffffffffffffffffffffffffffffffffffffff1673ffffffffffffffffffffffffffffffffffffffff1673ffffffffffffffffffffffffffffffffffffffff1681526020016003820160009054906101000a900473ffffffffffffffffffffffffffffffffffffffff1673ffffffffffffffffffffffffffffffffffffffff1673ffffffffffffffffffffffffffffffffffffffff168152602001600482015481526020016005820160009054906101000a900460ff161515151581525050838381518110610992577f4e487b7100000000000000000000000000000000000000000000000000000000600052603260045260246000fd5b602002602001018190525081806109a890613f93565b9250505b80806109b790613f93565b915050610780565b508194505050505090565b6060600180546109d990613f30565b80601f0160208091040260200160405190810160405280929190818152602001828054610a0590613f30565b8015610a525780601f10610a2757610100808354040283529160200191610a52565b820191906000526020600020905b815481529060010190602001808311610a3557829003601f168201915b5050505050905090565b6000610a6782612006565b6006600083815260200190815260200160002060009054906101000a900473ffffffffffffffffffffffffffffffffffffffff169050919050565b6000610aad8261161a565b90508073ffffffffffffffffffffffffffffffffffffffff168373ffffffffffffffffffffffffffffffffffffffff161415610b1e576040517f08c379a0000000000000000000000000000000000000000000000000000000008152600401610b1590613bb9565b60405180910390fd5b8073ffffffffffffffffffffffffffffffffffffffff16610b3d612051565b73ffffffffffffffffffffffffffffffffffffffff161480610b6c5750610b6b81610b66612051565b611efa565b5b610bab576040517f08c379a0000000000000000000000000000000000000000000000000000000008152600401610ba290613bd9565b60405180910390fd5b610bb58383612059565b505050565b60606000610bc8600a611ff8565b90506000805b82811015610ca6573373ffffffffffffffffffffffffffffffffffffffff16600d6000600184610bfe9190613d77565b815260200190815260200160002060020160009054906101000a900473ffffffffffffffffffffffffffffffffffffffff1673ffffffffffffffffffffffffffffffffffffffff16148015610c7f5750600d6000600183610c5f9190613d77565b815260200190815260200160002060050160009054906101000a900460ff165b15610c93578180610c8f90613f93565b9250505b8080610c9e90613f93565b915050610bce565b5060008167ffffffffffffffff811115610ce9577f4e487b7100000000000000000000000000000000000000000000000000000000600052604160045260246000fd5b604051908082528060200260200182016040528015610d2257816020015b610d0f612e9a565b815260200190600190039081610d075790505b5090506000805b84811015610fa0573373ffffffffffffffffffffffffffffffffffffffff16600d6000600184610d599190613d77565b815260200190815260200160002060020160009054906101000a900473ffffffffffffffffffffffffffffffffffffffff1673ffffffffffffffffffffffffffffffffffffffff16148015610dda5750600d6000600183610dba9190613d77565b815260200190815260200160002060050160009054906101000a900460ff165b15610f8d57600d6000600183610df09190613d77565b81526020019081526020016000206040518060c00160405290816000820160009054906101000a900473ffffffffffffffffffffffffffffffffffffffff1673ffffffffffffffffffffffffffffffffffffffff1673ffffffffffffffffffffffffffffffffffffffff168152602001600182015481526020016002820160009054906101000a900473ffffffffffffffffffffffffffffffffffffffff1673ffffffffffffffffffffffffffffffffffffffff1673ffffffffffffffffffffffffffffffffffffffff1681526020016003820160009054906101000a900473ffffffffffffffffffffffffffffffffffffffff1673ffffffffffffffffffffffffffffffffffffffff1673ffffffffffffffffffffffffffffffffffffffff168152602001600482015481526020016005820160009054906101000a900460ff161515151581525050838381518110610f73577f4e487b7100000000000000000000000000000000000000000000000000000000600052603260045260246000fd5b60200260200101819052508180610f8990613f93565b9250505b8080610f9890613f93565b915050610d29565b508194505050505090565b610fbc610fb6612051565b82612112565b610ffb576040517f08c379a0000000000000000000000000000000000000000000000000000000008152600401610ff290613a39565b60405180910390fd5b6110068383836121a7565b505050565b600b5481565b60026000541415611057576040517f08c379a000000000000000000000000000000000000000000000000000000000815260040161104e90613c19565b60405180910390fd5b6002600081905550600081116110a2576040517f08c379a000000000000000000000000000000000000000000000000000000000815260040161109990613c39565b60405180910390fd5b600b5434146110e6576040517f08c379a00000000000000000000000000000000000000000000000000000000081526004016110dd90613bf9565b60405180910390fd5b8273ffffffffffffffffffffffffffffffffffffffff166323b872dd3330856040518463ffffffff1660e01b8152600401611123939291906138b1565b600060405180830381600087803b15801561113d57600080fd5b505af1158015611151573d6000803e3d6000fd5b505050506000600d60008481526020019081526020016000209050338160020160006101000a81548173ffffffffffffffffffffffffffffffffffffffff021916908373ffffffffffffffffffffffffffffffffffffffff160217905550308160030160006101000a81548173ffffffffffffffffffffffffffffffffffffffff021916908373ffffffffffffffffffffffffffffffffffffffff16021790555060018160050160006101000a81548160ff021916908315150217905550818160040181905550611222600961249d565b7fa0c6c0d02d86fdacecbaa5fdf5894bab204e31a778250474108540733a9b8d198484333086604051611259959493929190613987565b60405180910390a1506001600081905550505050565b61128a83838360405180602001604052806000815250611afb565b505050565b600260005414156112d5576040517f08c379a00000000000000000000000000000000000000000000000000000000081526004016112cc90613c19565b60405180910390fd5b60026000819055506000600d60008381526020019081526020016000209050806004015434101561133b576040517f08c379a000000000000000000000000000000000000000000000000000000000815260040161133290613ab9565b60405180910390fd5b60003390508160020160009054906101000a900473ffffffffffffffffffffffffffffffffffffffff1673ffffffffffffffffffffffffffffffffffffffff166108fc349081150290604051600060405180830381858888f193505050501580156113aa573d6000803e3d6000fd5b508373ffffffffffffffffffffffffffffffffffffffff166323b872dd308385600101546040518463ffffffff1660e01b81526004016113ec9392919061387a565b600060405180830381600087803b15801561140657600080fd5b505af115801561141a573d6000803e3d6000fd5b50505050600c60009054906101000a900473ffffffffffffffffffffffffffffffffffffffff1673ffffffffffffffffffffffffffffffffffffffff166108fc600b549081150290604051600060405180830381858888f19350505050158015611488573d6000803e3d6000fd5b50808260030160006101000a81548173ffffffffffffffffffffffffffffffffffffffff021916908373ffffffffffffffffffffffffffffffffffffffff16021790555060008260050160006101000a81548160ff0219169083151502179055506114f360096124f9565b7f16f1dbd97e6bf646d429ed186cce832f1f7fd9907814293b83181e9970ab7bd28483600101548460020160009054906101000a900473ffffffffffffffffffffffffffffffffffffffff168434604051611552959493929190613934565b60405180910390a1505060016000819055505050565b6000806004600084815260200190815260200160002060009054906101000a900473ffffffffffffffffffffffffffffffffffffffff169050600073ffffffffffffffffffffffffffffffffffffffff168173ffffffffffffffffffffffffffffffffffffffff161415611611576040517f08c379a000000000000000000000000000000000000000000000000000000000815260040161160890613b99565b60405180910390fd5b80915050919050565b6000806003600084815260200190815260200160002060009054906101000a900473ffffffffffffffffffffffffffffffffffffffff169050600073ffffffffffffffffffffffffffffffffffffffff168173ffffffffffffffffffffffffffffffffffffffff1614156116c3576040517f08c379a00000000000000000000000000000000000000000000000000000000081526004016116ba90613b99565b60405180910390fd5b80915050919050565b60008073ffffffffffffffffffffffffffffffffffffffff168273ffffffffffffffffffffffffffffffffffffffff16141561173d576040517f08c379a000000000000000000000000000000000000000000000000000000000815260040161173490613b39565b60405180910390fd5b600560008373ffffffffffffffffffffffffffffffffffffffff1673ffffffffffffffffffffffffffffffffffffffff168152602001908152602001600020549050919050565b60606000611792600a611ff8565b905060006117a06009611ff8565b826117ab9190613dfe565b905060008167ffffffffffffffff8111156117ef577f4e487b7100000000000000000000000000000000000000000000000000000000600052604160045260246000fd5b60405190808252806020026020018201604052801561182857816020015b611815612e9a565b81526020019060019003908161180d5790505b5090506000805b84811015611a2d57600d60006001836118489190613d77565b815260200190815260200160002060050160009054906101000a900460ff1615611a1a57600d600060018361187d9190613d77565b81526020019081526020016000206040518060c00160405290816000820160009054906101000a900473ffffffffffffffffffffffffffffffffffffffff1673ffffffffffffffffffffffffffffffffffffffff1673ffffffffffffffffffffffffffffffffffffffff168152602001600182015481526020016002820160009054906101000a900473ffffffffffffffffffffffffffffffffffffffff1673ffffffffffffffffffffffffffffffffffffffff1673ffffffffffffffffffffffffffffffffffffffff1681526020016003820160009054906101000a900473ffffffffffffffffffffffffffffffffffffffff1673ffffffffffffffffffffffffffffffffffffffff1673ffffffffffffffffffffffffffffffffffffffff168152602001600482015481526020016005820160009054906101000a900460ff161515151581525050838381518110611a00577f4e487b7100000000000000000000000000000000000000000000000000000000600052603260045260246000fd5b60200260200101819052508180611a1690613f93565b9250505b8080611a2590613f93565b91505061182f565b508194505050505090565b606060028054611a4790613f30565b80601f0160208091040260200160405190810160405280929190818152602001828054611a7390613f30565b8015611ac05780601f10611a9557610100808354040283529160200191611ac0565b820191906000526020600020905b815481529060010190602001808311611aa357829003601f168201915b5050505050905090565b611adc611ad5612051565b838361250f565b5050565b611aeb84848461267c565b611af5828261269c565b50505050565b611b0c611b06612051565b83612112565b611b4b576040517f08c379a0000000000000000000000000000000000000000000000000000000008152600401611b4290613a39565b60405180910390fd5b611b5784848484612710565b50505050565b6000600b54905090565b6060611b7282612006565b6000611b7c61276c565b90506000815111611b9c5760405180602001604052806000815250611bc7565b80611ba684612783565b604051602001611bb792919061383b565b6040516020818303038152906040525b915050919050565b60026000541415611c15576040517f08c379a0000000000000000000000000000000000000000000000000000000008152600401611c0c90613c19565b60405180910390fd5b600260008190555060008111611c60576040517f08c379a0000000000000000000000000000000000000000000000000000000008152600401611c5790613c39565b60405180910390fd5b600b543414611ca4576040517f08c379a0000000000000000000000000000000000000000000000000000000008152600401611c9b90613bf9565b60405180910390fd5b8273ffffffffffffffffffffffffffffffffffffffff166323b872dd3330856040518463ffffffff1660e01b8152600401611ce1939291906138b1565b600060405180830381600087803b158015611cfb57600080fd5b505af1158015611d0f573d6000803e3d6000fd5b50505050611d1d600a6124f9565b6040518060c001604052808473ffffffffffffffffffffffffffffffffffffffff1681526020018381526020013373ffffffffffffffffffffffffffffffffffffffff1681526020013073ffffffffffffffffffffffffffffffffffffffff16815260200182815260200160011515815250600d600084815260200190815260200160002060008201518160000160006101000a81548173ffffffffffffffffffffffffffffffffffffffff021916908373ffffffffffffffffffffffffffffffffffffffff1602179055506020820151816001015560408201518160020160006101000a81548173ffffffffffffffffffffffffffffffffffffffff021916908373ffffffffffffffffffffffffffffffffffffffff16021790555060608201518160030160006101000a81548173ffffffffffffffffffffffffffffffffffffffff021916908373ffffffffffffffffffffffffffffffffffffffff1602179055506080820151816004015560a08201518160050160006101000a81548160ff0219169083151502179055509050507fa0c6c0d02d86fdacecbaa5fdf5894bab204e31a778250474108540733a9b8d198383333085604051611ee5959493929190613987565b60405180910390a16001600081905550505050565b6000600760008473ffffffffffffffffffffffffffffffffffffffff1673ffffffffffffffffffffffffffffffffffffffff16815260200190815260200160002060008373ffffffffffffffffffffffffffffffffffffffff1673ffffffffffffffffffffffffffffffffffffffff16815260200190815260200160002060009054906101000a900460ff16905092915050565b60007f01ffc9a7000000000000000000000000000000000000000000000000000000007bffffffffffffffffffffffffffffffffffffffffffffffffffffffff1916827bffffffffffffffffffffffffffffffffffffffffffffffffffffffff1916149050919050565b600081600001549050919050565b61200f81612930565b61204e576040517f08c379a000000000000000000000000000000000000000000000000000000000815260040161204590613b99565b60405180910390fd5b50565b600033905090565b816006600083815260200190815260200160002060006101000a81548173ffffffffffffffffffffffffffffffffffffffff021916908373ffffffffffffffffffffffffffffffffffffffff160217905550808273ffffffffffffffffffffffffffffffffffffffff166120cc8361161a565b73ffffffffffffffffffffffffffffffffffffffff167f8c5be1e5ebec7d5bd14f71427d1e84f3dd0314c0f7b2291e5b200ac8c7c3b92560405160405180910390a45050565b60008061211e8361161a565b90508073ffffffffffffffffffffffffffffffffffffffff168473ffffffffffffffffffffffffffffffffffffffff161480612160575061215f8185611efa565b5b8061219e57508373ffffffffffffffffffffffffffffffffffffffff1661218684610a5c565b73ffffffffffffffffffffffffffffffffffffffff16145b91505092915050565b8273ffffffffffffffffffffffffffffffffffffffff166121c78261161a565b73ffffffffffffffffffffffffffffffffffffffff161461221d576040517f08c379a000000000000000000000000000000000000000000000000000000000815260040161221490613a99565b60405180910390fd5b600073ffffffffffffffffffffffffffffffffffffffff168273ffffffffffffffffffffffffffffffffffffffff16141561228d576040517f08c379a000000000000000000000000000000000000000000000000000000000815260040161228490613af9565b60405180910390fd5b61229883838361299c565b8273ffffffffffffffffffffffffffffffffffffffff166122b88261161a565b73ffffffffffffffffffffffffffffffffffffffff161461230e576040517f08c379a000000000000000000000000000000000000000000000000000000000815260040161230590613a99565b60405180910390fd5b6006600082815260200190815260200160002060006101000a81549073ffffffffffffffffffffffffffffffffffffffff02191690556001600560008573ffffffffffffffffffffffffffffffffffffffff1673ffffffffffffffffffffffffffffffffffffffff168152602001908152602001600020600082825403925050819055506001600560008473ffffffffffffffffffffffffffffffffffffffff1673ffffffffffffffffffffffffffffffffffffffff16815260200190815260200160002060008282540192505081905550816003600083815260200190815260200160002060006101000a81548173ffffffffffffffffffffffffffffffffffffffff021916908373ffffffffffffffffffffffffffffffffffffffff160217905550808273ffffffffffffffffffffffffffffffffffffffff168473ffffffffffffffffffffffffffffffffffffffff167fddf252ad1be2c89b69c2b068fc378daa952ba7f163c4a11628f55a4df523b3ef60405160405180910390a46124988383836129a1565b505050565b600081600001549050600081116124e9576040517f08c379a00000000000000000000000000000000000000000000000000000000081526004016124e090613a59565b60405180910390fd5b6001810382600001819055505050565b6001816000016000828254019250508190555050565b8173ffffffffffffffffffffffffffffffffffffffff168373ffffffffffffffffffffffffffffffffffffffff16141561257e576040517f08c379a000000000000000000000000000000000000000000000000000000000815260040161257590613b19565b60405180910390fd5b80600760008573ffffffffffffffffffffffffffffffffffffffff1673ffffffffffffffffffffffffffffffffffffffff16815260200190815260200160002060008473ffffffffffffffffffffffffffffffffffffffff1673ffffffffffffffffffffffffffffffffffffffff16815260200190815260200160002060006101000a81548160ff0219169083151502179055508173ffffffffffffffffffffffffffffffffffffffff168373ffffffffffffffffffffffffffffffffffffffff167f17307eab39ab6107e8899845ad3d59bd9653f200f220920489ca2b5937696c318360405161266f91906139fc565b60405180910390a3505050565b612697838383604051806020016040528060008152506129a6565b505050565b6126a582612930565b6126e4576040517f08c379a00000000000000000000000000000000000000000000000000000000081526004016126db90613b59565b60405180910390fd5b8060086000848152602001908152602001600020908051906020019061270b929190612f14565b505050565b61271b8484846121a7565b61272784848484612a03565b612766576040517f08c379a000000000000000000000000000000000000000000000000000000000815260040161275d90613a79565b60405180910390fd5b50505050565b606060405180602001604052806000815250905090565b606060008214156127cb576040518060400160405280600181526020017f3000000000000000000000000000000000000000000000000000000000000000815250905061292b565b600082905060005b600082146127fd5780806127e690613f93565b915050600a826127f69190613dcd565b91506127d3565b60008167ffffffffffffffff81111561283f577f4e487b7100000000000000000000000000000000000000000000000000000000600052604160045260246000fd5b6040519080825280601f01601f1916602001820160405280156128715781602001600182028036833780820191505090505b5090505b600085146129245760018261288a9190613dfe565b9150600a856128999190613fdc565b60306128a59190613d77565b60f81b8183815181106128e1577f4e487b7100000000000000000000000000000000000000000000000000000000600052603260045260246000fd5b60200101907effffffffffffffffffffffffffffffffffffffffffffffffffffffffffffff1916908160001a905350600a8561291d9190613dcd565b9450612875565b8093505050505b919050565b60008073ffffffffffffffffffffffffffffffffffffffff166003600084815260200190815260200160002060009054906101000a900473ffffffffffffffffffffffffffffffffffffffff1673ffffffffffffffffffffffffffffffffffffffff1614159050919050565b505050565b505050565b6129b1848484612b9a565b6129be6000858484612a03565b6129fd576040517f08c379a00000000000000000000000000000000000000000000000000000000081526004016129f490613a79565b60405180910390fd5b50505050565b6000612a248473ffffffffffffffffffffffffffffffffffffffff16612e77565b15612b8d578373ffffffffffffffffffffffffffffffffffffffff1663150b7a02612a4d612051565b8786866040518563ffffffff1660e01b8152600401612a6f94939291906138e8565b602060405180830381600087803b158015612a8957600080fd5b505af1925050508015612aba57506040513d601f19601f82011682018060405250810190612ab7919061338a565b60015b612b3d573d8060008114612aea576040519150601f19603f3d011682016040523d82523d6000602084013e612aef565b606091505b50600081511415612b35576040517f08c379a0000000000000000000000000000000000000000000000000000000008152600401612b2c90613a79565b60405180910390fd5b805181602001fd5b63150b7a0260e01b7bffffffffffffffffffffffffffffffffffffffffffffffffffffffff1916817bffffffffffffffffffffffffffffffffffffffffffffffffffffffff191614915050612b92565b600190505b949350505050565b600073ffffffffffffffffffffffffffffffffffffffff168373ffffffffffffffffffffffffffffffffffffffff161415612c0a576040517f08c379a0000000000000000000000000000000000000000000000000000000008152600401612c0190613b79565b60405180910390fd5b600073ffffffffffffffffffffffffffffffffffffffff168273ffffffffffffffffffffffffffffffffffffffff161415612c7a576040517f08c379a0000000000000000000000000000000000000000000000000000000008152600401612c7190613b79565b60405180910390fd5b612c8381612930565b15612cc3576040517f08c379a0000000000000000000000000000000000000000000000000000000008152600401612cba90613ad9565b60405180910390fd5b612ccf6000848361299c565b612cd881612930565b15612d18576040517f08c379a0000000000000000000000000000000000000000000000000000000008152600401612d0f90613ad9565b60405180910390fd5b6001600560008573ffffffffffffffffffffffffffffffffffffffff1673ffffffffffffffffffffffffffffffffffffffff16815260200190815260200160002060008282540192505081905550826003600083815260200190815260200160002060006101000a81548173ffffffffffffffffffffffffffffffffffffffff021916908373ffffffffffffffffffffffffffffffffffffffff160217905550816004600083815260200190815260200160002060006101000a81548173ffffffffffffffffffffffffffffffffffffffff021916908373ffffffffffffffffffffffffffffffffffffffff160217905550808373ffffffffffffffffffffffffffffffffffffffff16600073ffffffffffffffffffffffffffffffffffffffff167fddf252ad1be2c89b69c2b068fc378daa952ba7f163c4a11628f55a4df523b3ef60405160405180910390a4612e72600084836129a1565b505050565b6000808273ffffffffffffffffffffffffffffffffffffffff163b119050919050565b6040518060c00160405280600073ffffffffffffffffffffffffffffffffffffffff16815260200160008152602001600073ffffffffffffffffffffffffffffffffffffffff168152602001600073ffffffffffffffffffffffffffffffffffffffff168152602001600081526020016000151581525090565b828054612f2090613f30565b90600052602060002090601f016020900481019282612f425760008555612f89565b82601f10612f5b57805160ff1916838001178555612f89565b82800160010185558215612f89579182015b82811115612f88578251825591602001919060010190612f6d565b5b509050612f969190612f9a565b5090565b5b80821115612fb3576000816000905550600101612f9b565b5090565b6000612fca612fc584613c99565b613c74565b905082815260208101848484011115612fe257600080fd5b612fed848285613eee565b509392505050565b600061300861300384613cca565b613c74565b90508281526020810184848401111561302057600080fd5b61302b848285613eee565b509392505050565b600081359050613042816144e9565b92915050565b60008135905061305781614500565b92915050565b60008135905061306c81614517565b92915050565b60008151905061308181614517565b92915050565b600082601f83011261309857600080fd5b81356130a8848260208601612fb7565b91505092915050565b600082601f8301126130c257600080fd5b81356130d2848260208601612ff5565b91505092915050565b6000813590506130ea8161452e565b92915050565b60006020828403121561310257600080fd5b600061311084828501613033565b91505092915050565b6000806040838503121561312c57600080fd5b600061313a85828601613033565b925050602061314b85828601613033565b9150509250929050565b60008060006060848603121561316a57600080fd5b600061317886828701613033565b935050602061318986828701613033565b925050604061319a868287016130db565b9150509250925092565b600080600080608085870312156131ba57600080fd5b60006131c887828801613033565b94505060206131d987828801613033565b93505060406131ea878288016130db565b925050606085013567ffffffffffffffff81111561320757600080fd5b61321387828801613087565b91505092959194509250565b6000806000806080858703121561323557600080fd5b600061324387828801613033565b945050602061325487828801613033565b9350506040613265878288016130db565b925050606085013567ffffffffffffffff81111561328257600080fd5b61328e878288016130b1565b91505092959194509250565b600080604083850312156132ad57600080fd5b60006132bb85828601613033565b92505060206132cc85828601613048565b9150509250929050565b600080604083850312156132e957600080fd5b60006132f785828601613033565b9250506020613308858286016130db565b9150509250929050565b60008060006060848603121561332757600080fd5b600061333586828701613033565b9350506020613346868287016130db565b9250506040613357868287016130db565b9150509250925092565b60006020828403121561337357600080fd5b60006133818482850161305d565b91505092915050565b60006020828403121561339c57600080fd5b60006133aa84828501613072565b91505092915050565b6000602082840312156133c557600080fd5b60006133d3848285016130db565b91505092915050565b60006133e883836137a2565b60c08301905092915050565b6133fd81613eb8565b82525050565b61340c81613e44565b82525050565b61341b81613e32565b82525050565b61342a81613e32565b82525050565b600061343b82613d0b565b6134458185613d39565b935061345083613cfb565b8060005b8381101561348157815161346888826133dc565b975061347383613d2c565b925050600181019050613454565b5085935050505092915050565b61349781613e56565b82525050565b6134a681613e56565b82525050565b60006134b782613d16565b6134c18185613d4a565b93506134d1818560208601613efd565b6134da816140c9565b840191505092915050565b60006134f082613d21565b6134fa8185613d5b565b935061350a818560208601613efd565b613513816140c9565b840191505092915050565b600061352982613d21565b6135338185613d6c565b9350613543818560208601613efd565b80840191505092915050565b600061355c602d83613d5b565b9150613567826140da565b604082019050919050565b600061357f601b83613d5b565b915061358a82614129565b602082019050919050565b60006135a2603283613d5b565b91506135ad82614152565b604082019050919050565b60006135c5602583613d5b565b91506135d0826141a1565b604082019050919050565b60006135e8602683613d5b565b91506135f3826141f0565b604082019050919050565b600061360b601c83613d5b565b91506136168261423f565b602082019050919050565b600061362e602483613d5b565b915061363982614268565b604082019050919050565b6000613651601983613d5b565b915061365c826142b7565b602082019050919050565b6000613674602983613d5b565b915061367f826142e0565b604082019050919050565b6000613697602e83613d5b565b91506136a28261432f565b604082019050919050565b60006136ba602083613d5b565b91506136c58261437e565b602082019050919050565b60006136dd601883613d5b565b91506136e8826143a7565b602082019050919050565b6000613700602183613d5b565b915061370b826143d0565b604082019050919050565b6000613723603d83613d5b565b915061372e8261441f565b604082019050919050565b6000613746602083613d5b565b91506137518261446e565b602082019050919050565b6000613769601f83613d5b565b915061377482614497565b602082019050919050565b600061378c601c83613d5b565b9150613797826144c0565b602082019050919050565b60c0820160008201516137b86000850182613412565b5060208201516137cb602085018261381d565b5060408201516137de6040850182613403565b5060608201516137f16060850182613403565b506080820151613804608085018261381d565b5060a082015161381760a085018261348e565b50505050565b61382681613eae565b82525050565b61383581613eae565b82525050565b6000613847828561351e565b9150613853828461351e565b91508190509392505050565b60006020820190506138746000830184613421565b92915050565b600060608201905061388f6000830186613421565b61389c60208301856133f4565b6138a9604083018461382c565b949350505050565b60006060820190506138c66000830186613421565b6138d36020830185613421565b6138e0604083018461382c565b949350505050565b60006080820190506138fd6000830187613421565b61390a6020830186613421565b613917604083018561382c565b818103606083015261392981846134ac565b905095945050505050565b600060a0820190506139496000830188613421565b613956602083018761382c565b61396360408301866133f4565b61397060608301856133f4565b61397d608083018461382c565b9695505050505050565b600060a08201905061399c6000830188613421565b6139a9602083018761382c565b6139b66040830186613421565b6139c36060830185613421565b6139d0608083018461382c565b9695505050505050565b600060208201905081810360008301526139f48184613430565b905092915050565b6000602082019050613a11600083018461349d565b92915050565b60006020820190508181036000830152613a3181846134e5565b905092915050565b60006020820190508181036000830152613a528161354f565b9050919050565b60006020820190508181036000830152613a7281613572565b9050919050565b60006020820190508181036000830152613a9281613595565b9050919050565b60006020820190508181036000830152613ab2816135b8565b9050919050565b60006020820190508181036000830152613ad2816135db565b9050919050565b60006020820190508181036000830152613af2816135fe565b9050919050565b60006020820190508181036000830152613b1281613621565b9050919050565b60006020820190508181036000830152613b3281613644565b9050919050565b60006020820190508181036000830152613b5281613667565b9050919050565b60006020820190508181036000830152613b728161368a565b9050919050565b60006020820190508181036000830152613b92816136ad565b9050919050565b60006020820190508181036000830152613bb2816136d0565b9050919050565b60006020820190508181036000830152613bd2816136f3565b9050919050565b60006020820190508181036000830152613bf281613716565b9050919050565b60006020820190508181036000830152613c1281613739565b9050919050565b60006020820190508181036000830152613c328161375c565b9050919050565b60006020820190508181036000830152613c528161377f565b9050919050565b6000602082019050613c6e600083018461382c565b92915050565b6000613c7e613c8f565b9050613c8a8282613f62565b919050565b6000604051905090565b600067ffffffffffffffff821115613cb457613cb361409a565b5b613cbd826140c9565b9050602081019050919050565b600067ffffffffffffffff821115613ce557613ce461409a565b5b613cee826140c9565b9050602081019050919050565b6000819050602082019050919050565b600081519050919050565b600081519050919050565b600081519050919050565b6000602082019050919050565b600082825260208201905092915050565b600082825260208201905092915050565b600082825260208201905092915050565b600081905092915050565b6000613d8282613eae565b9150613d8d83613eae565b9250827fffffffffffffffffffffffffffffffffffffffffffffffffffffffffffffffff03821115613dc257613dc161400d565b5b828201905092915050565b6000613dd882613eae565b9150613de383613eae565b925082613df357613df261403c565b5b828204905092915050565b6000613e0982613eae565b9150613e1483613eae565b925082821015613e2757613e2661400d565b5b828203905092915050565b6000613e3d82613e8e565b9050919050565b6000613e4f82613e8e565b9050919050565b60008115159050919050565b60007fffffffff0000000000000000000000000000000000000000000000000000000082169050919050565b600073ffffffffffffffffffffffffffffffffffffffff82169050919050565b6000819050919050565b6000613ec382613eca565b9050919050565b6000613ed582613edc565b9050919050565b6000613ee782613e8e565b9050919050565b82818337600083830152505050565b60005b83811015613f1b578082015181840152602081019050613f00565b83811115613f2a576000848401525b50505050565b60006002820490506001821680613f4857607f821691505b60208210811415613f5c57613f5b61406b565b5b50919050565b613f6b826140c9565b810181811067ffffffffffffffff82111715613f8a57613f8961409a565b5b80604052505050565b6000613f9e82613eae565b91507fffffffffffffffffffffffffffffffffffffffffffffffffffffffffffffffff821415613fd157613fd061400d565b5b600182019050919050565b6000613fe782613eae565b9150613ff283613eae565b9250826140025761400161403c565b5b828206905092915050565b7f4e487b7100000000000000000000000000000000000000000000000000000000600052601160045260246000fd5b7f4e487b7100000000000000000000000000000000000000000000000000000000600052601260045260246000fd5b7f4e487b7100000000000000000000000000000000000000000000000000000000600052602260045260246000fd5b7f4e487b7100000000000000000000000000000000000000000000000000000000600052604160045260246000fd5b6000601f19601f8301169050919050565b7f4552433732313a2063616c6c6572206973206e6f7420746f6b656e206f776e6560008201527f72206f7220617070726f76656400000000000000000000000000000000000000602082015250565b7f436f756e7465723a2064656372656d656e74206f766572666c6f770000000000600082015250565b7f4552433732313a207472616e7366657220746f206e6f6e20455243373231526560008201527f63656976657220696d706c656d656e7465720000000000000000000000000000602082015250565b7f4552433732313a207472616e736665722066726f6d20696e636f72726563742060008201527f6f776e6572000000000000000000000000000000000000000000000000000000602082015250565b7f4e6f7420656e6f75676820657468657220746f20636f7665722061736b696e6760008201527f2070726963650000000000000000000000000000000000000000000000000000602082015250565b7f4552433732313a20746f6b656e20616c7265616479206d696e74656400000000600082015250565b7f4552433732313a207472616e7366657220746f20746865207a65726f2061646460008201527f7265737300000000000000000000000000000000000000000000000000000000602082015250565b7f4552433732313a20617070726f766520746f2063616c6c657200000000000000600082015250565b7f4552433732313a2061646472657373207a65726f206973206e6f74206120766160008201527f6c6964206f776e65720000000000000000000000000000000000000000000000602082015250565b7f45524337323155524953746f726167653a2055524920736574206f66206e6f6e60008201527f6578697374656e7420746f6b656e000000000000000000000000000000000000602082015250565b7f4552433732313a206d696e7420746f20746865207a65726f2061646472657373600082015250565b7f4552433732313a20696e76616c696420746f6b656e2049440000000000000000600082015250565b7f4552433732313a20617070726f76616c20746f2063757272656e74206f776e6560008201527f7200000000000000000000000000000000000000000000000000000000000000602082015250565b7f4552433732313a20617070726f76652063616c6c6572206973206e6f7420746f60008201527f6b656e206f776e6572206f7220617070726f76656420666f7220616c6c000000602082015250565b7f4e6f7420656e6f75676820657468657220666f72206c697374696e6720666565600082015250565b7f5265656e7472616e637947756172643a207265656e7472616e742063616c6c00600082015250565b7f5072696365206d757374206265206174206c6561737420312077656900000000600082015250565b6144f281613e32565b81146144fd57600080fd5b50565b61450981613e56565b811461451457600080fd5b50565b61452081613e62565b811461452b57600080fd5b50565b61453781613eae565b811461454257600080fd5b5056fea2646970667358221220b71b399b5790864aaa62d56a353bc5ef7a705fb1dad2978735de399ea606ee3764736f6c63430008040033",
					"opcodes": "PUSH1 0x80 PUSH1 0x40 MSTORE PUSH6 0x5AF3107A4000 PUSH1 0xB SSTORE CALLVALUE DUP1 ISZERO PUSH3 0x1B JUMPI PUSH1 0x0 DUP1 REVERT JUMPDEST POP PUSH1 0x40 MLOAD PUSH3 0x4913 CODESIZE SUB DUP1 PUSH3 0x4913 DUP4 CODECOPY DUP2 DUP2 ADD PUSH1 0x40 MSTORE DUP2 ADD SWAP1 PUSH3 0x41 SWAP2 SWAP1 PUSH3 0x1A5 JUMP JUMPDEST PUSH1 0x1 PUSH1 0x0 DUP2 SWAP1 SSTORE POP DUP2 PUSH1 0x1 SWAP1 DUP1 MLOAD SWAP1 PUSH1 0x20 ADD SWAP1 PUSH3 0x61 SWAP3 SWAP2 SWAP1 PUSH3 0x83 JUMP JUMPDEST POP DUP1 PUSH1 0x2 SWAP1 DUP1 MLOAD SWAP1 PUSH1 0x20 ADD SWAP1 PUSH3 0x7A SWAP3 SWAP2 SWAP1 PUSH3 0x83 JUMP JUMPDEST POP POP POP PUSH3 0x388 JUMP JUMPDEST DUP3 DUP1 SLOAD PUSH3 0x91 SWAP1 PUSH3 0x2AD JUMP JUMPDEST SWAP1 PUSH1 0x0 MSTORE PUSH1 0x20 PUSH1 0x0 KECCAK256 SWAP1 PUSH1 0x1F ADD PUSH1 0x20 SWAP1 DIV DUP2 ADD SWAP3 DUP3 PUSH3 0xB5 JUMPI PUSH1 0x0 DUP6 SSTORE PUSH3 0x101 JUMP JUMPDEST DUP3 PUSH1 0x1F LT PUSH3 0xD0 JUMPI DUP1 MLOAD PUSH1 0xFF NOT AND DUP4 DUP1 ADD OR DUP6 SSTORE PUSH3 0x101 JUMP JUMPDEST DUP3 DUP1 ADD PUSH1 0x1 ADD DUP6 SSTORE DUP3 ISZERO PUSH3 0x101 JUMPI SWAP2 DUP3 ADD JUMPDEST DUP3 DUP2 GT ISZERO PUSH3 0x100 JUMPI DUP3 MLOAD DUP3 SSTORE SWAP2 PUSH1 0x20 ADD SWAP2 SWAP1 PUSH1 0x1 ADD SWAP1 PUSH3 0xE3 JUMP JUMPDEST JUMPDEST POP SWAP1 POP PUSH3 0x110 SWAP2 SWAP1 PUSH3 0x114 JUMP JUMPDEST POP SWAP1 JUMP JUMPDEST JUMPDEST DUP1 DUP3 GT ISZERO PUSH3 0x12F JUMPI PUSH1 0x0 DUP2 PUSH1 0x0 SWAP1 SSTORE POP PUSH1 0x1 ADD PUSH3 0x115 JUMP JUMPDEST POP SWAP1 JUMP JUMPDEST PUSH1 0x0 PUSH3 0x14A PUSH3 0x144 DUP5 PUSH3 0x241 JUMP JUMPDEST PUSH3 0x218 JUMP JUMPDEST SWAP1 POP DUP3 DUP2 MSTORE PUSH1 0x20 DUP2 ADD DUP5 DUP5 DUP5 ADD GT ISZERO PUSH3 0x163 JUMPI PUSH1 0x0 DUP1 REVERT JUMPDEST PUSH3 0x170 DUP5 DUP3 DUP6 PUSH3 0x277 JUMP JUMPDEST POP SWAP4 SWAP3 POP POP POP JUMP JUMPDEST PUSH1 0x0 DUP3 PUSH1 0x1F DUP4 ADD SLT PUSH3 0x18A JUMPI PUSH1 0x0 DUP1 REVERT JUMPDEST DUP2 MLOAD PUSH3 0x19C DUP5 DUP3 PUSH1 0x20 DUP7 ADD PUSH3 0x133 JUMP JUMPDEST SWAP2 POP POP SWAP3 SWAP2 POP POP JUMP JUMPDEST PUSH1 0x0 DUP1 PUSH1 0x40 DUP4 DUP6 SUB SLT ISZERO PUSH3 0x1B9 JUMPI PUSH1 0x0 DUP1 REVERT JUMPDEST PUSH1 0x0 DUP4 ADD MLOAD PUSH8 0xFFFFFFFFFFFFFFFF DUP2 GT ISZERO PUSH3 0x1D4 JUMPI PUSH1 0x0 DUP1 REVERT JUMPDEST PUSH3 0x1E2 DUP6 DUP3 DUP7 ADD PUSH3 0x178 JUMP JUMPDEST SWAP3 POP POP PUSH1 0x20 DUP4 ADD MLOAD PUSH8 0xFFFFFFFFFFFFFFFF DUP2 GT ISZERO PUSH3 0x200 JUMPI PUSH1 0x0 DUP1 REVERT JUMPDEST PUSH3 0x20E DUP6 DUP3 DUP7 ADD PUSH3 0x178 JUMP JUMPDEST SWAP2 POP POP SWAP3 POP SWAP3 SWAP1 POP JUMP JUMPDEST PUSH1 0x0 PUSH3 0x224 PUSH3 0x237 JUMP JUMPDEST SWAP1 POP PUSH3 0x232 DUP3 DUP3 PUSH3 0x2E3 JUMP JUMPDEST SWAP2 SWAP1 POP JUMP JUMPDEST PUSH1 0x0 PUSH1 0x40 MLOAD SWAP1 POP SWAP1 JUMP JUMPDEST PUSH1 0x0 PUSH8 0xFFFFFFFFFFFFFFFF DUP3 GT ISZERO PUSH3 0x25F JUMPI PUSH3 0x25E PUSH3 0x348 JUMP JUMPDEST JUMPDEST PUSH3 0x26A DUP3 PUSH3 0x377 JUMP JUMPDEST SWAP1 POP PUSH1 0x20 DUP2 ADD SWAP1 POP SWAP2 SWAP1 POP JUMP JUMPDEST PUSH1 0x0 JUMPDEST DUP4 DUP2 LT ISZERO PUSH3 0x297 JUMPI DUP1 DUP3 ADD MLOAD DUP2 DUP5 ADD MSTORE PUSH1 0x20 DUP2 ADD SWAP1 POP PUSH3 0x27A JUMP JUMPDEST DUP4 DUP2 GT ISZERO PUSH3 0x2A7 JUMPI PUSH1 0x0 DUP5 DUP5 ADD MSTORE JUMPDEST POP POP POP POP JUMP JUMPDEST PUSH1 0x0 PUSH1 0x2 DUP3 DIV SWAP1 POP PUSH1 0x1 DUP3 AND DUP1 PUSH3 0x2C6 JUMPI PUSH1 0x7F DUP3 AND SWAP2 POP JUMPDEST PUSH1 0x20 DUP3 LT DUP2 EQ ISZERO PUSH3 0x2DD JUMPI PUSH3 0x2DC PUSH3 0x319 JUMP JUMPDEST JUMPDEST POP SWAP2 SWAP1 POP JUMP JUMPDEST PUSH3 0x2EE DUP3 PUSH3 0x377 JUMP JUMPDEST DUP2 ADD DUP2 DUP2 LT PUSH8 0xFFFFFFFFFFFFFFFF DUP3 GT OR ISZERO PUSH3 0x310 JUMPI PUSH3 0x30F PUSH3 0x348 JUMP JUMPDEST JUMPDEST DUP1 PUSH1 0x40 MSTORE POP POP POP JUMP JUMPDEST PUSH32 0x4E487B7100000000000000000000000000000000000000000000000000000000 PUSH1 0x0 MSTORE PUSH1 0x22 PUSH1 0x4 MSTORE PUSH1 0x24 PUSH1 0x0 REVERT JUMPDEST PUSH32 0x4E487B7100000000000000000000000000000000000000000000000000000000 PUSH1 0x0 MSTORE PUSH1 0x41 PUSH1 0x4 MSTORE PUSH1 0x24 PUSH1 0x0 REVERT JUMPDEST PUSH1 0x0 PUSH1 0x1F NOT PUSH1 0x1F DUP4 ADD AND SWAP1 POP SWAP2 SWAP1 POP JUMP JUMPDEST PUSH2 0x457B DUP1 PUSH3 0x398 PUSH1 0x0 CODECOPY PUSH1 0x0 RETURN INVALID PUSH1 0x80 PUSH1 0x40 MSTORE PUSH1 0x4 CALLDATASIZE LT PUSH2 0x140 JUMPI PUSH1 0x0 CALLDATALOAD PUSH1 0xE0 SHR DUP1 PUSH4 0x52E04825 GT PUSH2 0xB6 JUMPI DUP1 PUSH4 0xB85CBC79 GT PUSH2 0x6F JUMPI DUP1 PUSH4 0xB85CBC79 EQ PUSH2 0x454 JUMPI DUP1 PUSH4 0xB88D4FDE EQ PUSH2 0x47D JUMPI DUP1 PUSH4 0xB8FE6ABE EQ PUSH2 0x4A6 JUMPI DUP1 PUSH4 0xC87B56DD EQ PUSH2 0x4D1 JUMPI DUP1 PUSH4 0xC922B17C EQ PUSH2 0x50E JUMPI DUP1 PUSH4 0xE985E9C5 EQ PUSH2 0x52A JUMPI PUSH2 0x140 JUMP JUMPDEST DUP1 PUSH4 0x52E04825 EQ PUSH2 0x31E JUMPI DUP1 PUSH4 0x6352211E EQ PUSH2 0x35B JUMPI DUP1 PUSH4 0x70A08231 EQ PUSH2 0x398 JUMPI DUP1 PUSH4 0x8D6CB3FB EQ PUSH2 0x3D5 JUMPI DUP1 PUSH4 0x95D89B41 EQ PUSH2 0x400 JUMPI DUP1 PUSH4 0xA22CB465 EQ PUSH2 0x42B JUMPI PUSH2 0x140 JUMP JUMPDEST DUP1 PUSH4 0x1F4CC4DB GT PUSH2 0x108 JUMPI DUP1 PUSH4 0x1F4CC4DB EQ PUSH2 0x23E JUMPI DUP1 PUSH4 0x23B872DD EQ PUSH2 0x269 JUMPI DUP1 PUSH4 0x2B86AE38 EQ PUSH2 0x292 JUMPI DUP1 PUSH4 0x34F5B624 EQ PUSH2 0x2BD JUMPI DUP1 PUSH4 0x42842E0E EQ PUSH2 0x2D9 JUMPI DUP1 PUSH4 0x4DDF4F8F EQ PUSH2 0x302 JUMPI PUSH2 0x140 JUMP JUMPDEST DUP1 PUSH4 0x1FFC9A7 EQ PUSH2 0x145 JUMPI DUP1 PUSH4 0x47B07BF EQ PUSH2 0x182 JUMPI DUP1 PUSH4 0x6FDDE03 EQ PUSH2 0x1AD JUMPI DUP1 PUSH4 0x81812FC EQ PUSH2 0x1D8 JUMPI DUP1 PUSH4 0x95EA7B3 EQ PUSH2 0x215 JUMPI JUMPDEST PUSH1 0x0 DUP1 REVERT JUMPDEST CALLVALUE DUP1 ISZERO PUSH2 0x151 JUMPI PUSH1 0x0 DUP1 REVERT JUMPDEST POP PUSH2 0x16C PUSH1 0x4 DUP1 CALLDATASIZE SUB DUP2 ADD SWAP1 PUSH2 0x167 SWAP2 SWAP1 PUSH2 0x3361 JUMP JUMPDEST PUSH2 0x567 JUMP JUMPDEST PUSH1 0x40 MLOAD PUSH2 0x179 SWAP2 SWAP1 PUSH2 0x39FC JUMP JUMPDEST PUSH1 0x40 MLOAD DUP1 SWAP2 SUB SWAP1 RETURN JUMPDEST CALLVALUE DUP1 ISZERO PUSH2 0x18E JUMPI PUSH1 0x0 DUP1 REVERT JUMPDEST POP PUSH2 0x197 PUSH2 0x649 JUMP JUMPDEST PUSH1 0x40 MLOAD PUSH2 0x1A4 SWAP2 SWAP1 PUSH2 0x39DA JUMP JUMPDEST PUSH1 0x40 MLOAD DUP1 SWAP2 SUB SWAP1 RETURN JUMPDEST CALLVALUE DUP1 ISZERO PUSH2 0x1B9 JUMPI PUSH1 0x0 DUP1 REVERT JUMPDEST POP PUSH2 0x1C2 PUSH2 0x9CA JUMP JUMPDEST PUSH1 0x40 MLOAD PUSH2 0x1CF SWAP2 SWAP1 PUSH2 0x3A17 JUMP JUMPDEST PUSH1 0x40 MLOAD DUP1 SWAP2 SUB SWAP1 RETURN JUMPDEST CALLVALUE DUP1 ISZERO PUSH2 0x1E4 JUMPI PUSH1 0x0 DUP1 REVERT JUMPDEST POP PUSH2 0x1FF PUSH1 0x4 DUP1 CALLDATASIZE SUB DUP2 ADD SWAP1 PUSH2 0x1FA SWAP2 SWAP1 PUSH2 0x33B3 JUMP JUMPDEST PUSH2 0xA5C JUMP JUMPDEST PUSH1 0x40 MLOAD PUSH2 0x20C SWAP2 SWAP1 PUSH2 0x385F JUMP JUMPDEST PUSH1 0x40 MLOAD DUP1 SWAP2 SUB SWAP1 RETURN JUMPDEST CALLVALUE DUP1 ISZERO PUSH2 0x221 JUMPI PUSH1 0x0 DUP1 REVERT JUMPDEST POP PUSH2 0x23C PUSH1 0x4 DUP1 CALLDATASIZE SUB DUP2 ADD SWAP1 PUSH2 0x237 SWAP2 SWAP1 PUSH2 0x32D6 JUMP JUMPDEST PUSH2 0xAA2 JUMP JUMPDEST STOP JUMPDEST CALLVALUE DUP1 ISZERO PUSH2 0x24A JUMPI PUSH1 0x0 DUP1 REVERT JUMPDEST POP PUSH2 0x253 PUSH2 0xBBA JUMP JUMPDEST PUSH1 0x40 MLOAD PUSH2 0x260 SWAP2 SWAP1 PUSH2 0x39DA JUMP JUMPDEST PUSH1 0x40 MLOAD DUP1 SWAP2 SUB SWAP1 RETURN JUMPDEST CALLVALUE DUP1 ISZERO PUSH2 0x275 JUMPI PUSH1 0x0 DUP1 REVERT JUMPDEST POP PUSH2 0x290 PUSH1 0x4 DUP1 CALLDATASIZE SUB DUP2 ADD SWAP1 PUSH2 0x28B SWAP2 SWAP1 PUSH2 0x3155 JUMP JUMPDEST PUSH2 0xFAB JUMP JUMPDEST STOP JUMPDEST CALLVALUE DUP1 ISZERO PUSH2 0x29E JUMPI PUSH1 0x0 DUP1 REVERT JUMPDEST POP PUSH2 0x2A7 PUSH2 0x100B JUMP JUMPDEST PUSH1 0x40 MLOAD PUSH2 0x2B4 SWAP2 SWAP1 PUSH2 0x3C59 JUMP JUMPDEST PUSH1 0x40 MLOAD DUP1 SWAP2 SUB SWAP1 RETURN JUMPDEST PUSH2 0x2D7 PUSH1 0x4 DUP1 CALLDATASIZE SUB DUP2 ADD SWAP1 PUSH2 0x2D2 SWAP2 SWAP1 PUSH2 0x3312 JUMP JUMPDEST PUSH2 0x1011 JUMP JUMPDEST STOP JUMPDEST CALLVALUE DUP1 ISZERO PUSH2 0x2E5 JUMPI PUSH1 0x0 DUP1 REVERT JUMPDEST POP PUSH2 0x300 PUSH1 0x4 DUP1 CALLDATASIZE SUB DUP2 ADD SWAP1 PUSH2 0x2FB SWAP2 SWAP1 PUSH2 0x3155 JUMP JUMPDEST PUSH2 0x126F JUMP JUMPDEST STOP JUMPDEST PUSH2 0x31C PUSH1 0x4 DUP1 CALLDATASIZE SUB DUP2 ADD SWAP1 PUSH2 0x317 SWAP2 SWAP1 PUSH2 0x32D6 JUMP JUMPDEST PUSH2 0x128F JUMP JUMPDEST STOP JUMPDEST CALLVALUE DUP1 ISZERO PUSH2 0x32A JUMPI PUSH1 0x0 DUP1 REVERT JUMPDEST POP PUSH2 0x345 PUSH1 0x4 DUP1 CALLDATASIZE SUB DUP2 ADD SWAP1 PUSH2 0x340 SWAP2 SWAP1 PUSH2 0x33B3 JUMP JUMPDEST PUSH2 0x1568 JUMP JUMPDEST PUSH1 0x40 MLOAD PUSH2 0x352 SWAP2 SWAP1 PUSH2 0x385F JUMP JUMPDEST PUSH1 0x40 MLOAD DUP1 SWAP2 SUB SWAP1 RETURN JUMPDEST CALLVALUE DUP1 ISZERO PUSH2 0x367 JUMPI PUSH1 0x0 DUP1 REVERT JUMPDEST POP PUSH2 0x382 PUSH1 0x4 DUP1 CALLDATASIZE SUB DUP2 ADD SWAP1 PUSH2 0x37D SWAP2 SWAP1 PUSH2 0x33B3 JUMP JUMPDEST PUSH2 0x161A JUMP JUMPDEST PUSH1 0x40 MLOAD PUSH2 0x38F SWAP2 SWAP1 PUSH2 0x385F JUMP JUMPDEST PUSH1 0x40 MLOAD DUP1 SWAP2 SUB SWAP1 RETURN JUMPDEST CALLVALUE DUP1 ISZERO PUSH2 0x3A4 JUMPI PUSH1 0x0 DUP1 REVERT JUMPDEST POP PUSH2 0x3BF PUSH1 0x4 DUP1 CALLDATASIZE SUB DUP2 ADD SWAP1 PUSH2 0x3BA SWAP2 SWAP1 PUSH2 0x30F0 JUMP JUMPDEST PUSH2 0x16CC JUMP JUMPDEST PUSH1 0x40 MLOAD PUSH2 0x3CC SWAP2 SWAP1 PUSH2 0x3C59 JUMP JUMPDEST PUSH1 0x40 MLOAD DUP1 SWAP2 SUB SWAP1 RETURN JUMPDEST CALLVALUE DUP1 ISZERO PUSH2 0x3E1 JUMPI PUSH1 0x0 DUP1 REVERT JUMPDEST POP PUSH2 0x3EA PUSH2 0x1784 JUMP JUMPDEST PUSH1 0x40 MLOAD PUSH2 0x3F7 SWAP2 SWAP1 PUSH2 0x39DA JUMP JUMPDEST PUSH1 0x40 MLOAD DUP1 SWAP2 SUB SWAP1 RETURN JUMPDEST CALLVALUE DUP1 ISZERO PUSH2 0x40C JUMPI PUSH1 0x0 DUP1 REVERT JUMPDEST POP PUSH2 0x415 PUSH2 0x1A38 JUMP JUMPDEST PUSH1 0x40 MLOAD PUSH2 0x422 SWAP2 SWAP1 PUSH2 0x3A17 JUMP JUMPDEST PUSH1 0x40 MLOAD DUP1 SWAP2 SUB SWAP1 RETURN JUMPDEST CALLVALUE DUP1 ISZERO PUSH2 0x437 JUMPI PUSH1 0x0 DUP1 REVERT JUMPDEST POP PUSH2 0x452 PUSH1 0x4 DUP1 CALLDATASIZE SUB DUP2 ADD SWAP1 PUSH2 0x44D SWAP2 SWAP1 PUSH2 0x329A JUMP JUMPDEST PUSH2 0x1ACA JUMP JUMPDEST STOP JUMPDEST CALLVALUE DUP1 ISZERO PUSH2 0x460 JUMPI PUSH1 0x0 DUP1 REVERT JUMPDEST POP PUSH2 0x47B PUSH1 0x4 DUP1 CALLDATASIZE SUB DUP2 ADD SWAP1 PUSH2 0x476 SWAP2 SWAP1 PUSH2 0x321F JUMP JUMPDEST PUSH2 0x1AE0 JUMP JUMPDEST STOP JUMPDEST CALLVALUE DUP1 ISZERO PUSH2 0x489 JUMPI PUSH1 0x0 DUP1 REVERT JUMPDEST POP PUSH2 0x4A4 PUSH1 0x4 DUP1 CALLDATASIZE SUB DUP2 ADD SWAP1 PUSH2 0x49F SWAP2 SWAP1 PUSH2 0x31A4 JUMP JUMPDEST PUSH2 0x1AFB JUMP JUMPDEST STOP JUMPDEST CALLVALUE DUP1 ISZERO PUSH2 0x4B2 JUMPI PUSH1 0x0 DUP1 REVERT JUMPDEST POP PUSH2 0x4BB PUSH2 0x1B5D JUMP JUMPDEST PUSH1 0x40 MLOAD PUSH2 0x4C8 SWAP2 SWAP1 PUSH2 0x3C59 JUMP JUMPDEST PUSH1 0x40 MLOAD DUP1 SWAP2 SUB SWAP1 RETURN JUMPDEST CALLVALUE DUP1 ISZERO PUSH2 0x4DD JUMPI PUSH1 0x0 DUP1 REVERT JUMPDEST POP PUSH2 0x4F8 PUSH1 0x4 DUP1 CALLDATASIZE SUB DUP2 ADD SWAP1 PUSH2 0x4F3 SWAP2 SWAP1 PUSH2 0x33B3 JUMP JUMPDEST PUSH2 0x1B67 JUMP JUMPDEST PUSH1 0x40 MLOAD PUSH2 0x505 SWAP2 SWAP1 PUSH2 0x3A17 JUMP JUMPDEST PUSH1 0x40 MLOAD DUP1 SWAP2 SUB SWAP1 RETURN JUMPDEST PUSH2 0x528 PUSH1 0x4 DUP1 CALLDATASIZE SUB DUP2 ADD SWAP1 PUSH2 0x523 SWAP2 SWAP1 PUSH2 0x3312 JUMP JUMPDEST PUSH2 0x1BCF JUMP JUMPDEST STOP JUMPDEST CALLVALUE DUP1 ISZERO PUSH2 0x536 JUMPI PUSH1 0x0 DUP1 REVERT JUMPDEST POP PUSH2 0x551 PUSH1 0x4 DUP1 CALLDATASIZE SUB DUP2 ADD SWAP1 PUSH2 0x54C SWAP2 SWAP1 PUSH2 0x3119 JUMP JUMPDEST PUSH2 0x1EFA JUMP JUMPDEST PUSH1 0x40 MLOAD PUSH2 0x55E SWAP2 SWAP1 PUSH2 0x39FC JUMP JUMPDEST PUSH1 0x40 MLOAD DUP1 SWAP2 SUB SWAP1 RETURN JUMPDEST PUSH1 0x0 PUSH32 0x80AC58CD00000000000000000000000000000000000000000000000000000000 PUSH28 0xFFFFFFFFFFFFFFFFFFFFFFFFFFFFFFFFFFFFFFFFFFFFFFFFFFFFFFFF NOT AND DUP3 PUSH28 0xFFFFFFFFFFFFFFFFFFFFFFFFFFFFFFFFFFFFFFFFFFFFFFFFFFFFFFFF NOT AND EQ DUP1 PUSH2 0x632 JUMPI POP PUSH32 0x5B5E139F00000000000000000000000000000000000000000000000000000000 PUSH28 0xFFFFFFFFFFFFFFFFFFFFFFFFFFFFFFFFFFFFFFFFFFFFFFFFFFFFFFFF NOT AND DUP3 PUSH28 0xFFFFFFFFFFFFFFFFFFFFFFFFFFFFFFFFFFFFFFFFFFFFFFFFFFFFFFFF NOT AND EQ JUMPDEST DUP1 PUSH2 0x642 JUMPI POP PUSH2 0x641 DUP3 PUSH2 0x1F8E JUMP JUMPDEST JUMPDEST SWAP1 POP SWAP2 SWAP1 POP JUMP JUMPDEST PUSH1 0x60 PUSH1 0x0 PUSH2 0x657 PUSH1 0xA PUSH2 0x1FF8 JUMP JUMPDEST SWAP1 POP PUSH1 0x0 DUP1 JUMPDEST DUP3 DUP2 LT ISZERO PUSH2 0x6FD JUMPI CALLER PUSH20 0xFFFFFFFFFFFFFFFFFFFFFFFFFFFFFFFFFFFFFFFF AND PUSH1 0xD PUSH1 0x0 PUSH1 0x1 DUP5 PUSH2 0x68D SWAP2 SWAP1 PUSH2 0x3D77 JUMP JUMPDEST DUP2 MSTORE PUSH1 0x20 ADD SWAP1 DUP2 MSTORE PUSH1 0x20 ADD PUSH1 0x0 KECCAK256 PUSH1 0x3 ADD PUSH1 0x0 SWAP1 SLOAD SWAP1 PUSH2 0x100 EXP SWAP1 DIV PUSH20 0xFFFFFFFFFFFFFFFFFFFFFFFFFFFFFFFFFFFFFFFF AND PUSH20 0xFFFFFFFFFFFFFFFFFFFFFFFFFFFFFFFFFFFFFFFF AND EQ ISZERO PUSH2 0x6EA JUMPI DUP2 DUP1 PUSH2 0x6E6 SWAP1 PUSH2 0x3F93 JUMP JUMPDEST SWAP3 POP POP JUMPDEST DUP1 DUP1 PUSH2 0x6F5 SWAP1 PUSH2 0x3F93 JUMP JUMPDEST SWAP2 POP POP PUSH2 0x65D JUMP JUMPDEST POP PUSH1 0x0 DUP2 PUSH8 0xFFFFFFFFFFFFFFFF DUP2 GT ISZERO PUSH2 0x740 JUMPI PUSH32 0x4E487B7100000000000000000000000000000000000000000000000000000000 PUSH1 0x0 MSTORE PUSH1 0x41 PUSH1 0x4 MSTORE PUSH1 0x24 PUSH1 0x0 REVERT JUMPDEST PUSH1 0x40 MLOAD SWAP1 DUP1 DUP3 MSTORE DUP1 PUSH1 0x20 MUL PUSH1 0x20 ADD DUP3 ADD PUSH1 0x40 MSTORE DUP1 ISZERO PUSH2 0x779 JUMPI DUP2 PUSH1 0x20 ADD JUMPDEST PUSH2 0x766 PUSH2 0x2E9A JUMP JUMPDEST DUP2 MSTORE PUSH1 0x20 ADD SWAP1 PUSH1 0x1 SWAP1 SUB SWAP1 DUP2 PUSH2 0x75E JUMPI SWAP1 POP JUMPDEST POP SWAP1 POP PUSH1 0x0 DUP1 JUMPDEST DUP5 DUP2 LT ISZERO PUSH2 0x9BF JUMPI CALLER PUSH20 0xFFFFFFFFFFFFFFFFFFFFFFFFFFFFFFFFFFFFFFFF AND PUSH1 0xD PUSH1 0x0 PUSH1 0x1 DUP5 PUSH2 0x7B0 SWAP2 SWAP1 PUSH2 0x3D77 JUMP JUMPDEST DUP2 MSTORE PUSH1 0x20 ADD SWAP1 DUP2 MSTORE PUSH1 0x20 ADD PUSH1 0x0 KECCAK256 PUSH1 0x3 ADD PUSH1 0x0 SWAP1 SLOAD SWAP1 PUSH2 0x100 EXP SWAP1 DIV PUSH20 0xFFFFFFFFFFFFFFFFFFFFFFFFFFFFFFFFFFFFFFFF AND PUSH20 0xFFFFFFFFFFFFFFFFFFFFFFFFFFFFFFFFFFFFFFFF AND EQ ISZERO PUSH2 0x9AC JUMPI PUSH1 0xD PUSH1 0x0 PUSH1 0x1 DUP4 PUSH2 0x80F SWAP2 SWAP1 PUSH2 0x3D77 JUMP JUMPDEST DUP2 MSTORE PUSH1 0x20 ADD SWAP1 DUP2 MSTORE PUSH1 0x20 ADD PUSH1 0x0 KECCAK256 PUSH1 0x40 MLOAD DUP1 PUSH1 0xC0 ADD PUSH1 0x40 MSTORE SWAP1 DUP2 PUSH1 0x0 DUP3 ADD PUSH1 0x0 SWAP1 SLOAD SWAP1 PUSH2 0x100 EXP SWAP1 DIV PUSH20 0xFFFFFFFFFFFFFFFFFFFFFFFFFFFFFFFFFFFFFFFF AND PUSH20 0xFFFFFFFFFFFFFFFFFFFFFFFFFFFFFFFFFFFFFFFF AND PUSH20 0xFFFFFFFFFFFFFFFFFFFFFFFFFFFFFFFFFFFFFFFF AND DUP2 MSTORE PUSH1 0x20 ADD PUSH1 0x1 DUP3 ADD SLOAD DUP2 MSTORE PUSH1 0x20 ADD PUSH1 0x2 DUP3 ADD PUSH1 0x0 SWAP1 SLOAD SWAP1 PUSH2 0x100 EXP SWAP1 DIV PUSH20 0xFFFFFFFFFFFFFFFFFFFFFFFFFFFFFFFFFFFFFFFF AND PUSH20 0xFFFFFFFFFFFFFFFFFFFFFFFFFFFFFFFFFFFFFFFF AND PUSH20 0xFFFFFFFFFFFFFFFFFFFFFFFFFFFFFFFFFFFFFFFF AND DUP2 MSTORE PUSH1 0x20 ADD PUSH1 0x3 DUP3 ADD PUSH1 0x0 SWAP1 SLOAD SWAP1 PUSH2 0x100 EXP SWAP1 DIV PUSH20 0xFFFFFFFFFFFFFFFFFFFFFFFFFFFFFFFFFFFFFFFF AND PUSH20 0xFFFFFFFFFFFFFFFFFFFFFFFFFFFFFFFFFFFFFFFF AND PUSH20 0xFFFFFFFFFFFFFFFFFFFFFFFFFFFFFFFFFFFFFFFF AND DUP2 MSTORE PUSH1 0x20 ADD PUSH1 0x4 DUP3 ADD SLOAD DUP2 MSTORE PUSH1 0x20 ADD PUSH1 0x5 DUP3 ADD PUSH1 0x0 SWAP1 SLOAD SWAP1 PUSH2 0x100 EXP SWAP1 DIV PUSH1 0xFF AND ISZERO ISZERO ISZERO ISZERO DUP2 MSTORE POP POP DUP4 DUP4 DUP2 MLOAD DUP2 LT PUSH2 0x992 JUMPI PUSH32 0x4E487B7100000000000000000000000000000000000000000000000000000000 PUSH1 0x0 MSTORE PUSH1 0x32 PUSH1 0x4 MSTORE PUSH1 0x24 PUSH1 0x0 REVERT JUMPDEST PUSH1 0x20 MUL PUSH1 0x20 ADD ADD DUP2 SWAP1 MSTORE POP DUP2 DUP1 PUSH2 0x9A8 SWAP1 PUSH2 0x3F93 JUMP JUMPDEST SWAP3 POP POP JUMPDEST DUP1 DUP1 PUSH2 0x9B7 SWAP1 PUSH2 0x3F93 JUMP JUMPDEST SWAP2 POP POP PUSH2 0x780 JUMP JUMPDEST POP DUP2 SWAP5 POP POP POP POP POP SWAP1 JUMP JUMPDEST PUSH1 0x60 PUSH1 0x1 DUP1 SLOAD PUSH2 0x9D9 SWAP1 PUSH2 0x3F30 JUMP JUMPDEST DUP1 PUSH1 0x1F ADD PUSH1 0x20 DUP1 SWAP2 DIV MUL PUSH1 0x20 ADD PUSH1 0x40 MLOAD SWAP1 DUP2 ADD PUSH1 0x40 MSTORE DUP1 SWAP3 SWAP2 SWAP1 DUP2 DUP2 MSTORE PUSH1 0x20 ADD DUP3 DUP1 SLOAD PUSH2 0xA05 SWAP1 PUSH2 0x3F30 JUMP JUMPDEST DUP1 ISZERO PUSH2 0xA52 JUMPI DUP1 PUSH1 0x1F LT PUSH2 0xA27 JUMPI PUSH2 0x100 DUP1 DUP4 SLOAD DIV MUL DUP4 MSTORE SWAP2 PUSH1 0x20 ADD SWAP2 PUSH2 0xA52 JUMP JUMPDEST DUP3 ADD SWAP2 SWAP1 PUSH1 0x0 MSTORE PUSH1 0x20 PUSH1 0x0 KECCAK256 SWAP1 JUMPDEST DUP2 SLOAD DUP2 MSTORE SWAP1 PUSH1 0x1 ADD SWAP1 PUSH1 0x20 ADD DUP1 DUP4 GT PUSH2 0xA35 JUMPI DUP3 SWAP1 SUB PUSH1 0x1F AND DUP3 ADD SWAP2 JUMPDEST POP POP POP POP POP SWAP1 POP SWAP1 JUMP JUMPDEST PUSH1 0x0 PUSH2 0xA67 DUP3 PUSH2 0x2006 JUMP JUMPDEST PUSH1 0x6 PUSH1 0x0 DUP4 DUP2 MSTORE PUSH1 0x20 ADD SWAP1 DUP2 MSTORE PUSH1 0x20 ADD PUSH1 0x0 KECCAK256 PUSH1 0x0 SWAP1 SLOAD SWAP1 PUSH2 0x100 EXP SWAP1 DIV PUSH20 0xFFFFFFFFFFFFFFFFFFFFFFFFFFFFFFFFFFFFFFFF AND SWAP1 POP SWAP2 SWAP1 POP JUMP JUMPDEST PUSH1 0x0 PUSH2 0xAAD DUP3 PUSH2 0x161A JUMP JUMPDEST SWAP1 POP DUP1 PUSH20 0xFFFFFFFFFFFFFFFFFFFFFFFFFFFFFFFFFFFFFFFF AND DUP4 PUSH20 0xFFFFFFFFFFFFFFFFFFFFFFFFFFFFFFFFFFFFFFFF AND EQ ISZERO PUSH2 0xB1E JUMPI PUSH1 0x40 MLOAD PUSH32 0x8C379A000000000000000000000000000000000000000000000000000000000 DUP2 MSTORE PUSH1 0x4 ADD PUSH2 0xB15 SWAP1 PUSH2 0x3BB9 JUMP JUMPDEST PUSH1 0x40 MLOAD DUP1 SWAP2 SUB SWAP1 REVERT JUMPDEST DUP1 PUSH20 0xFFFFFFFFFFFFFFFFFFFFFFFFFFFFFFFFFFFFFFFF AND PUSH2 0xB3D PUSH2 0x2051 JUMP JUMPDEST PUSH20 0xFFFFFFFFFFFFFFFFFFFFFFFFFFFFFFFFFFFFFFFF AND EQ DUP1 PUSH2 0xB6C JUMPI POP PUSH2 0xB6B DUP2 PUSH2 0xB66 PUSH2 0x2051 JUMP JUMPDEST PUSH2 0x1EFA JUMP JUMPDEST JUMPDEST PUSH2 0xBAB JUMPI PUSH1 0x40 MLOAD PUSH32 0x8C379A000000000000000000000000000000000000000000000000000000000 DUP2 MSTORE PUSH1 0x4 ADD PUSH2 0xBA2 SWAP1 PUSH2 0x3BD9 JUMP JUMPDEST PUSH1 0x40 MLOAD DUP1 SWAP2 SUB SWAP1 REVERT JUMPDEST PUSH2 0xBB5 DUP4 DUP4 PUSH2 0x2059 JUMP JUMPDEST POP POP POP JUMP JUMPDEST PUSH1 0x60 PUSH1 0x0 PUSH2 0xBC8 PUSH1 0xA PUSH2 0x1FF8 JUMP JUMPDEST SWAP1 POP PUSH1 0x0 DUP1 JUMPDEST DUP3 DUP2 LT ISZERO PUSH2 0xCA6 JUMPI CALLER PUSH20 0xFFFFFFFFFFFFFFFFFFFFFFFFFFFFFFFFFFFFFFFF AND PUSH1 0xD PUSH1 0x0 PUSH1 0x1 DUP5 PUSH2 0xBFE SWAP2 SWAP1 PUSH2 0x3D77 JUMP JUMPDEST DUP2 MSTORE PUSH1 0x20 ADD SWAP1 DUP2 MSTORE PUSH1 0x20 ADD PUSH1 0x0 KECCAK256 PUSH1 0x2 ADD PUSH1 0x0 SWAP1 SLOAD SWAP1 PUSH2 0x100 EXP SWAP1 DIV PUSH20 0xFFFFFFFFFFFFFFFFFFFFFFFFFFFFFFFFFFFFFFFF AND PUSH20 0xFFFFFFFFFFFFFFFFFFFFFFFFFFFFFFFFFFFFFFFF AND EQ DUP1 ISZERO PUSH2 0xC7F JUMPI POP PUSH1 0xD PUSH1 0x0 PUSH1 0x1 DUP4 PUSH2 0xC5F SWAP2 SWAP1 PUSH2 0x3D77 JUMP JUMPDEST DUP2 MSTORE PUSH1 0x20 ADD SWAP1 DUP2 MSTORE PUSH1 0x20 ADD PUSH1 0x0 KECCAK256 PUSH1 0x5 ADD PUSH1 0x0 SWAP1 SLOAD SWAP1 PUSH2 0x100 EXP SWAP1 DIV PUSH1 0xFF AND JUMPDEST ISZERO PUSH2 0xC93 JUMPI DUP2 DUP1 PUSH2 0xC8F SWAP1 PUSH2 0x3F93 JUMP JUMPDEST SWAP3 POP POP JUMPDEST DUP1 DUP1 PUSH2 0xC9E SWAP1 PUSH2 0x3F93 JUMP JUMPDEST SWAP2 POP POP PUSH2 0xBCE JUMP JUMPDEST POP PUSH1 0x0 DUP2 PUSH8 0xFFFFFFFFFFFFFFFF DUP2 GT ISZERO PUSH2 0xCE9 JUMPI PUSH32 0x4E487B7100000000000000000000000000000000000000000000000000000000 PUSH1 0x0 MSTORE PUSH1 0x41 PUSH1 0x4 MSTORE PUSH1 0x24 PUSH1 0x0 REVERT JUMPDEST PUSH1 0x40 MLOAD SWAP1 DUP1 DUP3 MSTORE DUP1 PUSH1 0x20 MUL PUSH1 0x20 ADD DUP3 ADD PUSH1 0x40 MSTORE DUP1 ISZERO PUSH2 0xD22 JUMPI DUP2 PUSH1 0x20 ADD JUMPDEST PUSH2 0xD0F PUSH2 0x2E9A JUMP JUMPDEST DUP2 MSTORE PUSH1 0x20 ADD SWAP1 PUSH1 0x1 SWAP1 SUB SWAP1 DUP2 PUSH2 0xD07 JUMPI SWAP1 POP JUMPDEST POP SWAP1 POP PUSH1 0x0 DUP1 JUMPDEST DUP5 DUP2 LT ISZERO PUSH2 0xFA0 JUMPI CALLER PUSH20 0xFFFFFFFFFFFFFFFFFFFFFFFFFFFFFFFFFFFFFFFF AND PUSH1 0xD PUSH1 0x0 PUSH1 0x1 DUP5 PUSH2 0xD59 SWAP2 SWAP1 PUSH2 0x3D77 JUMP JUMPDEST DUP2 MSTORE PUSH1 0x20 ADD SWAP1 DUP2 MSTORE PUSH1 0x20 ADD PUSH1 0x0 KECCAK256 PUSH1 0x2 ADD PUSH1 0x0 SWAP1 SLOAD SWAP1 PUSH2 0x100 EXP SWAP1 DIV PUSH20 0xFFFFFFFFFFFFFFFFFFFFFFFFFFFFFFFFFFFFFFFF AND PUSH20 0xFFFFFFFFFFFFFFFFFFFFFFFFFFFFFFFFFFFFFFFF AND EQ DUP1 ISZERO PUSH2 0xDDA JUMPI POP PUSH1 0xD PUSH1 0x0 PUSH1 0x1 DUP4 PUSH2 0xDBA SWAP2 SWAP1 PUSH2 0x3D77 JUMP JUMPDEST DUP2 MSTORE PUSH1 0x20 ADD SWAP1 DUP2 MSTORE PUSH1 0x20 ADD PUSH1 0x0 KECCAK256 PUSH1 0x5 ADD PUSH1 0x0 SWAP1 SLOAD SWAP1 PUSH2 0x100 EXP SWAP1 DIV PUSH1 0xFF AND JUMPDEST ISZERO PUSH2 0xF8D JUMPI PUSH1 0xD PUSH1 0x0 PUSH1 0x1 DUP4 PUSH2 0xDF0 SWAP2 SWAP1 PUSH2 0x3D77 JUMP JUMPDEST DUP2 MSTORE PUSH1 0x20 ADD SWAP1 DUP2 MSTORE PUSH1 0x20 ADD PUSH1 0x0 KECCAK256 PUSH1 0x40 MLOAD DUP1 PUSH1 0xC0 ADD PUSH1 0x40 MSTORE SWAP1 DUP2 PUSH1 0x0 DUP3 ADD PUSH1 0x0 SWAP1 SLOAD SWAP1 PUSH2 0x100 EXP SWAP1 DIV PUSH20 0xFFFFFFFFFFFFFFFFFFFFFFFFFFFFFFFFFFFFFFFF AND PUSH20 0xFFFFFFFFFFFFFFFFFFFFFFFFFFFFFFFFFFFFFFFF AND PUSH20 0xFFFFFFFFFFFFFFFFFFFFFFFFFFFFFFFFFFFFFFFF AND DUP2 MSTORE PUSH1 0x20 ADD PUSH1 0x1 DUP3 ADD SLOAD DUP2 MSTORE PUSH1 0x20 ADD PUSH1 0x2 DUP3 ADD PUSH1 0x0 SWAP1 SLOAD SWAP1 PUSH2 0x100 EXP SWAP1 DIV PUSH20 0xFFFFFFFFFFFFFFFFFFFFFFFFFFFFFFFFFFFFFFFF AND PUSH20 0xFFFFFFFFFFFFFFFFFFFFFFFFFFFFFFFFFFFFFFFF AND PUSH20 0xFFFFFFFFFFFFFFFFFFFFFFFFFFFFFFFFFFFFFFFF AND DUP2 MSTORE PUSH1 0x20 ADD PUSH1 0x3 DUP3 ADD PUSH1 0x0 SWAP1 SLOAD SWAP1 PUSH2 0x100 EXP SWAP1 DIV PUSH20 0xFFFFFFFFFFFFFFFFFFFFFFFFFFFFFFFFFFFFFFFF AND PUSH20 0xFFFFFFFFFFFFFFFFFFFFFFFFFFFFFFFFFFFFFFFF AND PUSH20 0xFFFFFFFFFFFFFFFFFFFFFFFFFFFFFFFFFFFFFFFF AND DUP2 MSTORE PUSH1 0x20 ADD PUSH1 0x4 DUP3 ADD SLOAD DUP2 MSTORE PUSH1 0x20 ADD PUSH1 0x5 DUP3 ADD PUSH1 0x0 SWAP1 SLOAD SWAP1 PUSH2 0x100 EXP SWAP1 DIV PUSH1 0xFF AND ISZERO ISZERO ISZERO ISZERO DUP2 MSTORE POP POP DUP4 DUP4 DUP2 MLOAD DUP2 LT PUSH2 0xF73 JUMPI PUSH32 0x4E487B7100000000000000000000000000000000000000000000000000000000 PUSH1 0x0 MSTORE PUSH1 0x32 PUSH1 0x4 MSTORE PUSH1 0x24 PUSH1 0x0 REVERT JUMPDEST PUSH1 0x20 MUL PUSH1 0x20 ADD ADD DUP2 SWAP1 MSTORE POP DUP2 DUP1 PUSH2 0xF89 SWAP1 PUSH2 0x3F93 JUMP JUMPDEST SWAP3 POP POP JUMPDEST DUP1 DUP1 PUSH2 0xF98 SWAP1 PUSH2 0x3F93 JUMP JUMPDEST SWAP2 POP POP PUSH2 0xD29 JUMP JUMPDEST POP DUP2 SWAP5 POP POP POP POP POP SWAP1 JUMP JUMPDEST PUSH2 0xFBC PUSH2 0xFB6 PUSH2 0x2051 JUMP JUMPDEST DUP3 PUSH2 0x2112 JUMP JUMPDEST PUSH2 0xFFB JUMPI PUSH1 0x40 MLOAD PUSH32 0x8C379A000000000000000000000000000000000000000000000000000000000 DUP2 MSTORE PUSH1 0x4 ADD PUSH2 0xFF2 SWAP1 PUSH2 0x3A39 JUMP JUMPDEST PUSH1 0x40 MLOAD DUP1 SWAP2 SUB SWAP1 REVERT JUMPDEST PUSH2 0x1006 DUP4 DUP4 DUP4 PUSH2 0x21A7 JUMP JUMPDEST POP POP POP JUMP JUMPDEST PUSH1 0xB SLOAD DUP2 JUMP JUMPDEST PUSH1 0x2 PUSH1 0x0 SLOAD EQ ISZERO PUSH2 0x1057 JUMPI PUSH1 0x40 MLOAD PUSH32 0x8C379A000000000000000000000000000000000000000000000000000000000 DUP2 MSTORE PUSH1 0x4 ADD PUSH2 0x104E SWAP1 PUSH2 0x3C19 JUMP JUMPDEST PUSH1 0x40 MLOAD DUP1 SWAP2 SUB SWAP1 REVERT JUMPDEST PUSH1 0x2 PUSH1 0x0 DUP2 SWAP1 SSTORE POP PUSH1 0x0 DUP2 GT PUSH2 0x10A2 JUMPI PUSH1 0x40 MLOAD PUSH32 0x8C379A000000000000000000000000000000000000000000000000000000000 DUP2 MSTORE PUSH1 0x4 ADD PUSH2 0x1099 SWAP1 PUSH2 0x3C39 JUMP JUMPDEST PUSH1 0x40 MLOAD DUP1 SWAP2 SUB SWAP1 REVERT JUMPDEST PUSH1 0xB SLOAD CALLVALUE EQ PUSH2 0x10E6 JUMPI PUSH1 0x40 MLOAD PUSH32 0x8C379A000000000000000000000000000000000000000000000000000000000 DUP2 MSTORE PUSH1 0x4 ADD PUSH2 0x10DD SWAP1 PUSH2 0x3BF9 JUMP JUMPDEST PUSH1 0x40 MLOAD DUP1 SWAP2 SUB SWAP1 REVERT JUMPDEST DUP3 PUSH20 0xFFFFFFFFFFFFFFFFFFFFFFFFFFFFFFFFFFFFFFFF AND PUSH4 0x23B872DD CALLER ADDRESS DUP6 PUSH1 0x40 MLOAD DUP5 PUSH4 0xFFFFFFFF AND PUSH1 0xE0 SHL DUP2 MSTORE PUSH1 0x4 ADD PUSH2 0x1123 SWAP4 SWAP3 SWAP2 SWAP1 PUSH2 0x38B1 JUMP JUMPDEST PUSH1 0x0 PUSH1 0x40 MLOAD DUP1 DUP4 SUB DUP2 PUSH1 0x0 DUP8 DUP1 EXTCODESIZE ISZERO DUP1 ISZERO PUSH2 0x113D JUMPI PUSH1 0x0 DUP1 REVERT JUMPDEST POP GAS CALL ISZERO DUP1 ISZERO PUSH2 0x1151 JUMPI RETURNDATASIZE PUSH1 0x0 DUP1 RETURNDATACOPY RETURNDATASIZE PUSH1 0x0 REVERT JUMPDEST POP POP POP POP PUSH1 0x0 PUSH1 0xD PUSH1 0x0 DUP5 DUP2 MSTORE PUSH1 0x20 ADD SWAP1 DUP2 MSTORE PUSH1 0x20 ADD PUSH1 0x0 KECCAK256 SWAP1 POP CALLER DUP2 PUSH1 0x2 ADD PUSH1 0x0 PUSH2 0x100 EXP DUP2 SLOAD DUP2 PUSH20 0xFFFFFFFFFFFFFFFFFFFFFFFFFFFFFFFFFFFFFFFF MUL NOT AND SWAP1 DUP4 PUSH20 0xFFFFFFFFFFFFFFFFFFFFFFFFFFFFFFFFFFFFFFFF AND MUL OR SWAP1 SSTORE POP ADDRESS DUP2 PUSH1 0x3 ADD PUSH1 0x0 PUSH2 0x100 EXP DUP2 SLOAD DUP2 PUSH20 0xFFFFFFFFFFFFFFFFFFFFFFFFFFFFFFFFFFFFFFFF MUL NOT AND SWAP1 DUP4 PUSH20 0xFFFFFFFFFFFFFFFFFFFFFFFFFFFFFFFFFFFFFFFF AND MUL OR SWAP1 SSTORE POP PUSH1 0x1 DUP2 PUSH1 0x5 ADD PUSH1 0x0 PUSH2 0x100 EXP DUP2 SLOAD DUP2 PUSH1 0xFF MUL NOT AND SWAP1 DUP4 ISZERO ISZERO MUL OR SWAP1 SSTORE POP DUP2 DUP2 PUSH1 0x4 ADD DUP2 SWAP1 SSTORE POP PUSH2 0x1222 PUSH1 0x9 PUSH2 0x249D JUMP JUMPDEST PUSH32 0xA0C6C0D02D86FDACECBAA5FDF5894BAB204E31A778250474108540733A9B8D19 DUP5 DUP5 CALLER ADDRESS DUP7 PUSH1 0x40 MLOAD PUSH2 0x1259 SWAP6 SWAP5 SWAP4 SWAP3 SWAP2 SWAP1 PUSH2 0x3987 JUMP JUMPDEST PUSH1 0x40 MLOAD DUP1 SWAP2 SUB SWAP1 LOG1 POP PUSH1 0x1 PUSH1 0x0 DUP2 SWAP1 SSTORE POP POP POP POP JUMP JUMPDEST PUSH2 0x128A DUP4 DUP4 DUP4 PUSH1 0x40 MLOAD DUP1 PUSH1 0x20 ADD PUSH1 0x40 MSTORE DUP1 PUSH1 0x0 DUP2 MSTORE POP PUSH2 0x1AFB JUMP JUMPDEST POP POP POP JUMP JUMPDEST PUSH1 0x2 PUSH1 0x0 SLOAD EQ ISZERO PUSH2 0x12D5 JUMPI PUSH1 0x40 MLOAD PUSH32 0x8C379A000000000000000000000000000000000000000000000000000000000 DUP2 MSTORE PUSH1 0x4 ADD PUSH2 0x12CC SWAP1 PUSH2 0x3C19 JUMP JUMPDEST PUSH1 0x40 MLOAD DUP1 SWAP2 SUB SWAP1 REVERT JUMPDEST PUSH1 0x2 PUSH1 0x0 DUP2 SWAP1 SSTORE POP PUSH1 0x0 PUSH1 0xD PUSH1 0x0 DUP4 DUP2 MSTORE PUSH1 0x20 ADD SWAP1 DUP2 MSTORE PUSH1 0x20 ADD PUSH1 0x0 KECCAK256 SWAP1 POP DUP1 PUSH1 0x4 ADD SLOAD CALLVALUE LT ISZERO PUSH2 0x133B JUMPI PUSH1 0x40 MLOAD PUSH32 0x8C379A000000000000000000000000000000000000000000000000000000000 DUP2 MSTORE PUSH1 0x4 ADD PUSH2 0x1332 SWAP1 PUSH2 0x3AB9 JUMP JUMPDEST PUSH1 0x40 MLOAD DUP1 SWAP2 SUB SWAP1 REVERT JUMPDEST PUSH1 0x0 CALLER SWAP1 POP DUP2 PUSH1 0x2 ADD PUSH1 0x0 SWAP1 SLOAD SWAP1 PUSH2 0x100 EXP SWAP1 DIV PUSH20 0xFFFFFFFFFFFFFFFFFFFFFFFFFFFFFFFFFFFFFFFF AND PUSH20 0xFFFFFFFFFFFFFFFFFFFFFFFFFFFFFFFFFFFFFFFF AND PUSH2 0x8FC CALLVALUE SWAP1 DUP2 ISZERO MUL SWAP1 PUSH1 0x40 MLOAD PUSH1 0x0 PUSH1 0x40 MLOAD DUP1 DUP4 SUB DUP2 DUP6 DUP9 DUP9 CALL SWAP4 POP POP POP POP ISZERO DUP1 ISZERO PUSH2 0x13AA JUMPI RETURNDATASIZE PUSH1 0x0 DUP1 RETURNDATACOPY RETURNDATASIZE PUSH1 0x0 REVERT JUMPDEST POP DUP4 PUSH20 0xFFFFFFFFFFFFFFFFFFFFFFFFFFFFFFFFFFFFFFFF AND PUSH4 0x23B872DD ADDRESS DUP4 DUP6 PUSH1 0x1 ADD SLOAD PUSH1 0x40 MLOAD DUP5 PUSH4 0xFFFFFFFF AND PUSH1 0xE0 SHL DUP2 MSTORE PUSH1 0x4 ADD PUSH2 0x13EC SWAP4 SWAP3 SWAP2 SWAP1 PUSH2 0x387A JUMP JUMPDEST PUSH1 0x0 PUSH1 0x40 MLOAD DUP1 DUP4 SUB DUP2 PUSH1 0x0 DUP8 DUP1 EXTCODESIZE ISZERO DUP1 ISZERO PUSH2 0x1406 JUMPI PUSH1 0x0 DUP1 REVERT JUMPDEST POP GAS CALL ISZERO DUP1 ISZERO PUSH2 0x141A JUMPI RETURNDATASIZE PUSH1 0x0 DUP1 RETURNDATACOPY RETURNDATASIZE PUSH1 0x0 REVERT JUMPDEST POP POP POP POP PUSH1 0xC PUSH1 0x0 SWAP1 SLOAD SWAP1 PUSH2 0x100 EXP SWAP1 DIV PUSH20 0xFFFFFFFFFFFFFFFFFFFFFFFFFFFFFFFFFFFFFFFF AND PUSH20 0xFFFFFFFFFFFFFFFFFFFFFFFFFFFFFFFFFFFFFFFF AND PUSH2 0x8FC PUSH1 0xB SLOAD SWAP1 DUP2 ISZERO MUL SWAP1 PUSH1 0x40 MLOAD PUSH1 0x0 PUSH1 0x40 MLOAD DUP1 DUP4 SUB DUP2 DUP6 DUP9 DUP9 CALL SWAP4 POP POP POP POP ISZERO DUP1 ISZERO PUSH2 0x1488 JUMPI RETURNDATASIZE PUSH1 0x0 DUP1 RETURNDATACOPY RETURNDATASIZE PUSH1 0x0 REVERT JUMPDEST POP DUP1 DUP3 PUSH1 0x3 ADD PUSH1 0x0 PUSH2 0x100 EXP DUP2 SLOAD DUP2 PUSH20 0xFFFFFFFFFFFFFFFFFFFFFFFFFFFFFFFFFFFFFFFF MUL NOT AND SWAP1 DUP4 PUSH20 0xFFFFFFFFFFFFFFFFFFFFFFFFFFFFFFFFFFFFFFFF AND MUL OR SWAP1 SSTORE POP PUSH1 0x0 DUP3 PUSH1 0x5 ADD PUSH1 0x0 PUSH2 0x100 EXP DUP2 SLOAD DUP2 PUSH1 0xFF MUL NOT AND SWAP1 DUP4 ISZERO ISZERO MUL OR SWAP1 SSTORE POP PUSH2 0x14F3 PUSH1 0x9 PUSH2 0x24F9 JUMP JUMPDEST PUSH32 0x16F1DBD97E6BF646D429ED186CCE832F1F7FD9907814293B83181E9970AB7BD2 DUP5 DUP4 PUSH1 0x1 ADD SLOAD DUP5 PUSH1 0x2 ADD PUSH1 0x0 SWAP1 SLOAD SWAP1 PUSH2 0x100 EXP SWAP1 DIV PUSH20 0xFFFFFFFFFFFFFFFFFFFFFFFFFFFFFFFFFFFFFFFF AND DUP5 CALLVALUE PUSH1 0x40 MLOAD PUSH2 0x1552 SWAP6 SWAP5 SWAP4 SWAP3 SWAP2 SWAP1 PUSH2 0x3934 JUMP JUMPDEST PUSH1 0x40 MLOAD DUP1 SWAP2 SUB SWAP1 LOG1 POP POP PUSH1 0x1 PUSH1 0x0 DUP2 SWAP1 SSTORE POP POP POP JUMP JUMPDEST PUSH1 0x0 DUP1 PUSH1 0x4 PUSH1 0x0 DUP5 DUP2 MSTORE PUSH1 0x20 ADD SWAP1 DUP2 MSTORE PUSH1 0x20 ADD PUSH1 0x0 KECCAK256 PUSH1 0x0 SWAP1 SLOAD SWAP1 PUSH2 0x100 EXP SWAP1 DIV PUSH20 0xFFFFFFFFFFFFFFFFFFFFFFFFFFFFFFFFFFFFFFFF AND SWAP1 POP PUSH1 0x0 PUSH20 0xFFFFFFFFFFFFFFFFFFFFFFFFFFFFFFFFFFFFFFFF AND DUP2 PUSH20 0xFFFFFFFFFFFFFFFFFFFFFFFFFFFFFFFFFFFFFFFF AND EQ ISZERO PUSH2 0x1611 JUMPI PUSH1 0x40 MLOAD PUSH32 0x8C379A000000000000000000000000000000000000000000000000000000000 DUP2 MSTORE PUSH1 0x4 ADD PUSH2 0x1608 SWAP1 PUSH2 0x3B99 JUMP JUMPDEST PUSH1 0x40 MLOAD DUP1 SWAP2 SUB SWAP1 REVERT JUMPDEST DUP1 SWAP2 POP POP SWAP2 SWAP1 POP JUMP JUMPDEST PUSH1 0x0 DUP1 PUSH1 0x3 PUSH1 0x0 DUP5 DUP2 MSTORE PUSH1 0x20 ADD SWAP1 DUP2 MSTORE PUSH1 0x20 ADD PUSH1 0x0 KECCAK256 PUSH1 0x0 SWAP1 SLOAD SWAP1 PUSH2 0x100 EXP SWAP1 DIV PUSH20 0xFFFFFFFFFFFFFFFFFFFFFFFFFFFFFFFFFFFFFFFF AND SWAP1 POP PUSH1 0x0 PUSH20 0xFFFFFFFFFFFFFFFFFFFFFFFFFFFFFFFFFFFFFFFF AND DUP2 PUSH20 0xFFFFFFFFFFFFFFFFFFFFFFFFFFFFFFFFFFFFFFFF AND EQ ISZERO PUSH2 0x16C3 JUMPI PUSH1 0x40 MLOAD PUSH32 0x8C379A000000000000000000000000000000000000000000000000000000000 DUP2 MSTORE PUSH1 0x4 ADD PUSH2 0x16BA SWAP1 PUSH2 0x3B99 JUMP JUMPDEST PUSH1 0x40 MLOAD DUP1 SWAP2 SUB SWAP1 REVERT JUMPDEST DUP1 SWAP2 POP POP SWAP2 SWAP1 POP JUMP JUMPDEST PUSH1 0x0 DUP1 PUSH20 0xFFFFFFFFFFFFFFFFFFFFFFFFFFFFFFFFFFFFFFFF AND DUP3 PUSH20 0xFFFFFFFFFFFFFFFFFFFFFFFFFFFFFFFFFFFFFFFF AND EQ ISZERO PUSH2 0x173D JUMPI PUSH1 0x40 MLOAD PUSH32 0x8C379A000000000000000000000000000000000000000000000000000000000 DUP2 MSTORE PUSH1 0x4 ADD PUSH2 0x1734 SWAP1 PUSH2 0x3B39 JUMP JUMPDEST PUSH1 0x40 MLOAD DUP1 SWAP2 SUB SWAP1 REVERT JUMPDEST PUSH1 0x5 PUSH1 0x0 DUP4 PUSH20 0xFFFFFFFFFFFFFFFFFFFFFFFFFFFFFFFFFFFFFFFF AND PUSH20 0xFFFFFFFFFFFFFFFFFFFFFFFFFFFFFFFFFFFFFFFF AND DUP2 MSTORE PUSH1 0x20 ADD SWAP1 DUP2 MSTORE PUSH1 0x20 ADD PUSH1 0x0 KECCAK256 SLOAD SWAP1 POP SWAP2 SWAP1 POP JUMP JUMPDEST PUSH1 0x60 PUSH1 0x0 PUSH2 0x1792 PUSH1 0xA PUSH2 0x1FF8 JUMP JUMPDEST SWAP1 POP PUSH1 0x0 PUSH2 0x17A0 PUSH1 0x9 PUSH2 0x1FF8 JUMP JUMPDEST DUP3 PUSH2 0x17AB SWAP2 SWAP1 PUSH2 0x3DFE JUMP JUMPDEST SWAP1 POP PUSH1 0x0 DUP2 PUSH8 0xFFFFFFFFFFFFFFFF DUP2 GT ISZERO PUSH2 0x17EF JUMPI PUSH32 0x4E487B7100000000000000000000000000000000000000000000000000000000 PUSH1 0x0 MSTORE PUSH1 0x41 PUSH1 0x4 MSTORE PUSH1 0x24 PUSH1 0x0 REVERT JUMPDEST PUSH1 0x40 MLOAD SWAP1 DUP1 DUP3 MSTORE DUP1 PUSH1 0x20 MUL PUSH1 0x20 ADD DUP3 ADD PUSH1 0x40 MSTORE DUP1 ISZERO PUSH2 0x1828 JUMPI DUP2 PUSH1 0x20 ADD JUMPDEST PUSH2 0x1815 PUSH2 0x2E9A JUMP JUMPDEST DUP2 MSTORE PUSH1 0x20 ADD SWAP1 PUSH1 0x1 SWAP1 SUB SWAP1 DUP2 PUSH2 0x180D JUMPI SWAP1 POP JUMPDEST POP SWAP1 POP PUSH1 0x0 DUP1 JUMPDEST DUP5 DUP2 LT ISZERO PUSH2 0x1A2D JUMPI PUSH1 0xD PUSH1 0x0 PUSH1 0x1 DUP4 PUSH2 0x1848 SWAP2 SWAP1 PUSH2 0x3D77 JUMP JUMPDEST DUP2 MSTORE PUSH1 0x20 ADD SWAP1 DUP2 MSTORE PUSH1 0x20 ADD PUSH1 0x0 KECCAK256 PUSH1 0x5 ADD PUSH1 0x0 SWAP1 SLOAD SWAP1 PUSH2 0x100 EXP SWAP1 DIV PUSH1 0xFF AND ISZERO PUSH2 0x1A1A JUMPI PUSH1 0xD PUSH1 0x0 PUSH1 0x1 DUP4 PUSH2 0x187D SWAP2 SWAP1 PUSH2 0x3D77 JUMP JUMPDEST DUP2 MSTORE PUSH1 0x20 ADD SWAP1 DUP2 MSTORE PUSH1 0x20 ADD PUSH1 0x0 KECCAK256 PUSH1 0x40 MLOAD DUP1 PUSH1 0xC0 ADD PUSH1 0x40 MSTORE SWAP1 DUP2 PUSH1 0x0 DUP3 ADD PUSH1 0x0 SWAP1 SLOAD SWAP1 PUSH2 0x100 EXP SWAP1 DIV PUSH20 0xFFFFFFFFFFFFFFFFFFFFFFFFFFFFFFFFFFFFFFFF AND PUSH20 0xFFFFFFFFFFFFFFFFFFFFFFFFFFFFFFFFFFFFFFFF AND PUSH20 0xFFFFFFFFFFFFFFFFFFFFFFFFFFFFFFFFFFFFFFFF AND DUP2 MSTORE PUSH1 0x20 ADD PUSH1 0x1 DUP3 ADD SLOAD DUP2 MSTORE PUSH1 0x20 ADD PUSH1 0x2 DUP3 ADD PUSH1 0x0 SWAP1 SLOAD SWAP1 PUSH2 0x100 EXP SWAP1 DIV PUSH20 0xFFFFFFFFFFFFFFFFFFFFFFFFFFFFFFFFFFFFFFFF AND PUSH20 0xFFFFFFFFFFFFFFFFFFFFFFFFFFFFFFFFFFFFFFFF AND PUSH20 0xFFFFFFFFFFFFFFFFFFFFFFFFFFFFFFFFFFFFFFFF AND DUP2 MSTORE PUSH1 0x20 ADD PUSH1 0x3 DUP3 ADD PUSH1 0x0 SWAP1 SLOAD SWAP1 PUSH2 0x100 EXP SWAP1 DIV PUSH20 0xFFFFFFFFFFFFFFFFFFFFFFFFFFFFFFFFFFFFFFFF AND PUSH20 0xFFFFFFFFFFFFFFFFFFFFFFFFFFFFFFFFFFFFFFFF AND PUSH20 0xFFFFFFFFFFFFFFFFFFFFFFFFFFFFFFFFFFFFFFFF AND DUP2 MSTORE PUSH1 0x20 ADD PUSH1 0x4 DUP3 ADD SLOAD DUP2 MSTORE PUSH1 0x20 ADD PUSH1 0x5 DUP3 ADD PUSH1 0x0 SWAP1 SLOAD SWAP1 PUSH2 0x100 EXP SWAP1 DIV PUSH1 0xFF AND ISZERO ISZERO ISZERO ISZERO DUP2 MSTORE POP POP DUP4 DUP4 DUP2 MLOAD DUP2 LT PUSH2 0x1A00 JUMPI PUSH32 0x4E487B7100000000000000000000000000000000000000000000000000000000 PUSH1 0x0 MSTORE PUSH1 0x32 PUSH1 0x4 MSTORE PUSH1 0x24 PUSH1 0x0 REVERT JUMPDEST PUSH1 0x20 MUL PUSH1 0x20 ADD ADD DUP2 SWAP1 MSTORE POP DUP2 DUP1 PUSH2 0x1A16 SWAP1 PUSH2 0x3F93 JUMP JUMPDEST SWAP3 POP POP JUMPDEST DUP1 DUP1 PUSH2 0x1A25 SWAP1 PUSH2 0x3F93 JUMP JUMPDEST SWAP2 POP POP PUSH2 0x182F JUMP JUMPDEST POP DUP2 SWAP5 POP POP POP POP POP SWAP1 JUMP JUMPDEST PUSH1 0x60 PUSH1 0x2 DUP1 SLOAD PUSH2 0x1A47 SWAP1 PUSH2 0x3F30 JUMP JUMPDEST DUP1 PUSH1 0x1F ADD PUSH1 0x20 DUP1 SWAP2 DIV MUL PUSH1 0x20 ADD PUSH1 0x40 MLOAD SWAP1 DUP2 ADD PUSH1 0x40 MSTORE DUP1 SWAP3 SWAP2 SWAP1 DUP2 DUP2 MSTORE PUSH1 0x20 ADD DUP3 DUP1 SLOAD PUSH2 0x1A73 SWAP1 PUSH2 0x3F30 JUMP JUMPDEST DUP1 ISZERO PUSH2 0x1AC0 JUMPI DUP1 PUSH1 0x1F LT PUSH2 0x1A95 JUMPI PUSH2 0x100 DUP1 DUP4 SLOAD DIV MUL DUP4 MSTORE SWAP2 PUSH1 0x20 ADD SWAP2 PUSH2 0x1AC0 JUMP JUMPDEST DUP3 ADD SWAP2 SWAP1 PUSH1 0x0 MSTORE PUSH1 0x20 PUSH1 0x0 KECCAK256 SWAP1 JUMPDEST DUP2 SLOAD DUP2 MSTORE SWAP1 PUSH1 0x1 ADD SWAP1 PUSH1 0x20 ADD DUP1 DUP4 GT PUSH2 0x1AA3 JUMPI DUP3 SWAP1 SUB PUSH1 0x1F AND DUP3 ADD SWAP2 JUMPDEST POP POP POP POP POP SWAP1 POP SWAP1 JUMP JUMPDEST PUSH2 0x1ADC PUSH2 0x1AD5 PUSH2 0x2051 JUMP JUMPDEST DUP4 DUP4 PUSH2 0x250F JUMP JUMPDEST POP POP JUMP JUMPDEST PUSH2 0x1AEB DUP5 DUP5 DUP5 PUSH2 0x267C JUMP JUMPDEST PUSH2 0x1AF5 DUP3 DUP3 PUSH2 0x269C JUMP JUMPDEST POP POP POP POP JUMP JUMPDEST PUSH2 0x1B0C PUSH2 0x1B06 PUSH2 0x2051 JUMP JUMPDEST DUP4 PUSH2 0x2112 JUMP JUMPDEST PUSH2 0x1B4B JUMPI PUSH1 0x40 MLOAD PUSH32 0x8C379A000000000000000000000000000000000000000000000000000000000 DUP2 MSTORE PUSH1 0x4 ADD PUSH2 0x1B42 SWAP1 PUSH2 0x3A39 JUMP JUMPDEST PUSH1 0x40 MLOAD DUP1 SWAP2 SUB SWAP1 REVERT JUMPDEST PUSH2 0x1B57 DUP5 DUP5 DUP5 DUP5 PUSH2 0x2710 JUMP JUMPDEST POP POP POP POP JUMP JUMPDEST PUSH1 0x0 PUSH1 0xB SLOAD SWAP1 POP SWAP1 JUMP JUMPDEST PUSH1 0x60 PUSH2 0x1B72 DUP3 PUSH2 0x2006 JUMP JUMPDEST PUSH1 0x0 PUSH2 0x1B7C PUSH2 0x276C JUMP JUMPDEST SWAP1 POP PUSH1 0x0 DUP2 MLOAD GT PUSH2 0x1B9C JUMPI PUSH1 0x40 MLOAD DUP1 PUSH1 0x20 ADD PUSH1 0x40 MSTORE DUP1 PUSH1 0x0 DUP2 MSTORE POP PUSH2 0x1BC7 JUMP JUMPDEST DUP1 PUSH2 0x1BA6 DUP5 PUSH2 0x2783 JUMP JUMPDEST PUSH1 0x40 MLOAD PUSH1 0x20 ADD PUSH2 0x1BB7 SWAP3 SWAP2 SWAP1 PUSH2 0x383B JUMP JUMPDEST PUSH1 0x40 MLOAD PUSH1 0x20 DUP2 DUP4 SUB SUB DUP2 MSTORE SWAP1 PUSH1 0x40 MSTORE JUMPDEST SWAP2 POP POP SWAP2 SWAP1 POP JUMP JUMPDEST PUSH1 0x2 PUSH1 0x0 SLOAD EQ ISZERO PUSH2 0x1C15 JUMPI PUSH1 0x40 MLOAD PUSH32 0x8C379A000000000000000000000000000000000000000000000000000000000 DUP2 MSTORE PUSH1 0x4 ADD PUSH2 0x1C0C SWAP1 PUSH2 0x3C19 JUMP JUMPDEST PUSH1 0x40 MLOAD DUP1 SWAP2 SUB SWAP1 REVERT JUMPDEST PUSH1 0x2 PUSH1 0x0 DUP2 SWAP1 SSTORE POP PUSH1 0x0 DUP2 GT PUSH2 0x1C60 JUMPI PUSH1 0x40 MLOAD PUSH32 0x8C379A000000000000000000000000000000000000000000000000000000000 DUP2 MSTORE PUSH1 0x4 ADD PUSH2 0x1C57 SWAP1 PUSH2 0x3C39 JUMP JUMPDEST PUSH1 0x40 MLOAD DUP1 SWAP2 SUB SWAP1 REVERT JUMPDEST PUSH1 0xB SLOAD CALLVALUE EQ PUSH2 0x1CA4 JUMPI PUSH1 0x40 MLOAD PUSH32 0x8C379A000000000000000000000000000000000000000000000000000000000 DUP2 MSTORE PUSH1 0x4 ADD PUSH2 0x1C9B SWAP1 PUSH2 0x3BF9 JUMP JUMPDEST PUSH1 0x40 MLOAD DUP1 SWAP2 SUB SWAP1 REVERT JUMPDEST DUP3 PUSH20 0xFFFFFFFFFFFFFFFFFFFFFFFFFFFFFFFFFFFFFFFF AND PUSH4 0x23B872DD CALLER ADDRESS DUP6 PUSH1 0x40 MLOAD DUP5 PUSH4 0xFFFFFFFF AND PUSH1 0xE0 SHL DUP2 MSTORE PUSH1 0x4 ADD PUSH2 0x1CE1 SWAP4 SWAP3 SWAP2 SWAP1 PUSH2 0x38B1 JUMP JUMPDEST PUSH1 0x0 PUSH1 0x40 MLOAD DUP1 DUP4 SUB DUP2 PUSH1 0x0 DUP8 DUP1 EXTCODESIZE ISZERO DUP1 ISZERO PUSH2 0x1CFB JUMPI PUSH1 0x0 DUP1 REVERT JUMPDEST POP GAS CALL ISZERO DUP1 ISZERO PUSH2 0x1D0F JUMPI RETURNDATASIZE PUSH1 0x0 DUP1 RETURNDATACOPY RETURNDATASIZE PUSH1 0x0 REVERT JUMPDEST POP POP POP POP PUSH2 0x1D1D PUSH1 0xA PUSH2 0x24F9 JUMP JUMPDEST PUSH1 0x40 MLOAD DUP1 PUSH1 0xC0 ADD PUSH1 0x40 MSTORE DUP1 DUP5 PUSH20 0xFFFFFFFFFFFFFFFFFFFFFFFFFFFFFFFFFFFFFFFF AND DUP2 MSTORE PUSH1 0x20 ADD DUP4 DUP2 MSTORE PUSH1 0x20 ADD CALLER PUSH20 0xFFFFFFFFFFFFFFFFFFFFFFFFFFFFFFFFFFFFFFFF AND DUP2 MSTORE PUSH1 0x20 ADD ADDRESS PUSH20 0xFFFFFFFFFFFFFFFFFFFFFFFFFFFFFFFFFFFFFFFF AND DUP2 MSTORE PUSH1 0x20 ADD DUP3 DUP2 MSTORE PUSH1 0x20 ADD PUSH1 0x1 ISZERO ISZERO DUP2 MSTORE POP PUSH1 0xD PUSH1 0x0 DUP5 DUP2 MSTORE PUSH1 0x20 ADD SWAP1 DUP2 MSTORE PUSH1 0x20 ADD PUSH1 0x0 KECCAK256 PUSH1 0x0 DUP3 ADD MLOAD DUP2 PUSH1 0x0 ADD PUSH1 0x0 PUSH2 0x100 EXP DUP2 SLOAD DUP2 PUSH20 0xFFFFFFFFFFFFFFFFFFFFFFFFFFFFFFFFFFFFFFFF MUL NOT AND SWAP1 DUP4 PUSH20 0xFFFFFFFFFFFFFFFFFFFFFFFFFFFFFFFFFFFFFFFF AND MUL OR SWAP1 SSTORE POP PUSH1 0x20 DUP3 ADD MLOAD DUP2 PUSH1 0x1 ADD SSTORE PUSH1 0x40 DUP3 ADD MLOAD DUP2 PUSH1 0x2 ADD PUSH1 0x0 PUSH2 0x100 EXP DUP2 SLOAD DUP2 PUSH20 0xFFFFFFFFFFFFFFFFFFFFFFFFFFFFFFFFFFFFFFFF MUL NOT AND SWAP1 DUP4 PUSH20 0xFFFFFFFFFFFFFFFFFFFFFFFFFFFFFFFFFFFFFFFF AND MUL OR SWAP1 SSTORE POP PUSH1 0x60 DUP3 ADD MLOAD DUP2 PUSH1 0x3 ADD PUSH1 0x0 PUSH2 0x100 EXP DUP2 SLOAD DUP2 PUSH20 0xFFFFFFFFFFFFFFFFFFFFFFFFFFFFFFFFFFFFFFFF MUL NOT AND SWAP1 DUP4 PUSH20 0xFFFFFFFFFFFFFFFFFFFFFFFFFFFFFFFFFFFFFFFF AND MUL OR SWAP1 SSTORE POP PUSH1 0x80 DUP3 ADD MLOAD DUP2 PUSH1 0x4 ADD SSTORE PUSH1 0xA0 DUP3 ADD MLOAD DUP2 PUSH1 0x5 ADD PUSH1 0x0 PUSH2 0x100 EXP DUP2 SLOAD DUP2 PUSH1 0xFF MUL NOT AND SWAP1 DUP4 ISZERO ISZERO MUL OR SWAP1 SSTORE POP SWAP1 POP POP PUSH32 0xA0C6C0D02D86FDACECBAA5FDF5894BAB204E31A778250474108540733A9B8D19 DUP4 DUP4 CALLER ADDRESS DUP6 PUSH1 0x40 MLOAD PUSH2 0x1EE5 SWAP6 SWAP5 SWAP4 SWAP3 SWAP2 SWAP1 PUSH2 0x3987 JUMP JUMPDEST PUSH1 0x40 MLOAD DUP1 SWAP2 SUB SWAP1 LOG1 PUSH1 0x1 PUSH1 0x0 DUP2 SWAP1 SSTORE POP POP POP POP JUMP JUMPDEST PUSH1 0x0 PUSH1 0x7 PUSH1 0x0 DUP5 PUSH20 0xFFFFFFFFFFFFFFFFFFFFFFFFFFFFFFFFFFFFFFFF AND PUSH20 0xFFFFFFFFFFFFFFFFFFFFFFFFFFFFFFFFFFFFFFFF AND DUP2 MSTORE PUSH1 0x20 ADD SWAP1 DUP2 MSTORE PUSH1 0x20 ADD PUSH1 0x0 KECCAK256 PUSH1 0x0 DUP4 PUSH20 0xFFFFFFFFFFFFFFFFFFFFFFFFFFFFFFFFFFFFFFFF AND PUSH20 0xFFFFFFFFFFFFFFFFFFFFFFFFFFFFFFFFFFFFFFFF AND DUP2 MSTORE PUSH1 0x20 ADD SWAP1 DUP2 MSTORE PUSH1 0x20 ADD PUSH1 0x0 KECCAK256 PUSH1 0x0 SWAP1 SLOAD SWAP1 PUSH2 0x100 EXP SWAP1 DIV PUSH1 0xFF AND SWAP1 POP SWAP3 SWAP2 POP POP JUMP JUMPDEST PUSH1 0x0 PUSH32 0x1FFC9A700000000000000000000000000000000000000000000000000000000 PUSH28 0xFFFFFFFFFFFFFFFFFFFFFFFFFFFFFFFFFFFFFFFFFFFFFFFFFFFFFFFF NOT AND DUP3 PUSH28 0xFFFFFFFFFFFFFFFFFFFFFFFFFFFFFFFFFFFFFFFFFFFFFFFFFFFFFFFF NOT AND EQ SWAP1 POP SWAP2 SWAP1 POP JUMP JUMPDEST PUSH1 0x0 DUP2 PUSH1 0x0 ADD SLOAD SWAP1 POP SWAP2 SWAP1 POP JUMP JUMPDEST PUSH2 0x200F DUP2 PUSH2 0x2930 JUMP JUMPDEST PUSH2 0x204E JUMPI PUSH1 0x40 MLOAD PUSH32 0x8C379A000000000000000000000000000000000000000000000000000000000 DUP2 MSTORE PUSH1 0x4 ADD PUSH2 0x2045 SWAP1 PUSH2 0x3B99 JUMP JUMPDEST PUSH1 0x40 MLOAD DUP1 SWAP2 SUB SWAP1 REVERT JUMPDEST POP JUMP JUMPDEST PUSH1 0x0 CALLER SWAP1 POP SWAP1 JUMP JUMPDEST DUP2 PUSH1 0x6 PUSH1 0x0 DUP4 DUP2 MSTORE PUSH1 0x20 ADD SWAP1 DUP2 MSTORE PUSH1 0x20 ADD PUSH1 0x0 KECCAK256 PUSH1 0x0 PUSH2 0x100 EXP DUP2 SLOAD DUP2 PUSH20 0xFFFFFFFFFFFFFFFFFFFFFFFFFFFFFFFFFFFFFFFF MUL NOT AND SWAP1 DUP4 PUSH20 0xFFFFFFFFFFFFFFFFFFFFFFFFFFFFFFFFFFFFFFFF AND MUL OR SWAP1 SSTORE POP DUP1 DUP3 PUSH20 0xFFFFFFFFFFFFFFFFFFFFFFFFFFFFFFFFFFFFFFFF AND PUSH2 0x20CC DUP4 PUSH2 0x161A JUMP JUMPDEST PUSH20 0xFFFFFFFFFFFFFFFFFFFFFFFFFFFFFFFFFFFFFFFF AND PUSH32 0x8C5BE1E5EBEC7D5BD14F71427D1E84F3DD0314C0F7B2291E5B200AC8C7C3B925 PUSH1 0x40 MLOAD PUSH1 0x40 MLOAD DUP1 SWAP2 SUB SWAP1 LOG4 POP POP JUMP JUMPDEST PUSH1 0x0 DUP1 PUSH2 0x211E DUP4 PUSH2 0x161A JUMP JUMPDEST SWAP1 POP DUP1 PUSH20 0xFFFFFFFFFFFFFFFFFFFFFFFFFFFFFFFFFFFFFFFF AND DUP5 PUSH20 0xFFFFFFFFFFFFFFFFFFFFFFFFFFFFFFFFFFFFFFFF AND EQ DUP1 PUSH2 0x2160 JUMPI POP PUSH2 0x215F DUP2 DUP6 PUSH2 0x1EFA JUMP JUMPDEST JUMPDEST DUP1 PUSH2 0x219E JUMPI POP DUP4 PUSH20 0xFFFFFFFFFFFFFFFFFFFFFFFFFFFFFFFFFFFFFFFF AND PUSH2 0x2186 DUP5 PUSH2 0xA5C JUMP JUMPDEST PUSH20 0xFFFFFFFFFFFFFFFFFFFFFFFFFFFFFFFFFFFFFFFF AND EQ JUMPDEST SWAP2 POP POP SWAP3 SWAP2 POP POP JUMP JUMPDEST DUP3 PUSH20 0xFFFFFFFFFFFFFFFFFFFFFFFFFFFFFFFFFFFFFFFF AND PUSH2 0x21C7 DUP3 PUSH2 0x161A JUMP JUMPDEST PUSH20 0xFFFFFFFFFFFFFFFFFFFFFFFFFFFFFFFFFFFFFFFF AND EQ PUSH2 0x221D JUMPI PUSH1 0x40 MLOAD PUSH32 0x8C379A000000000000000000000000000000000000000000000000000000000 DUP2 MSTORE PUSH1 0x4 ADD PUSH2 0x2214 SWAP1 PUSH2 0x3A99 JUMP JUMPDEST PUSH1 0x40 MLOAD DUP1 SWAP2 SUB SWAP1 REVERT JUMPDEST PUSH1 0x0 PUSH20 0xFFFFFFFFFFFFFFFFFFFFFFFFFFFFFFFFFFFFFFFF AND DUP3 PUSH20 0xFFFFFFFFFFFFFFFFFFFFFFFFFFFFFFFFFFFFFFFF AND EQ ISZERO PUSH2 0x228D JUMPI PUSH1 0x40 MLOAD PUSH32 0x8C379A000000000000000000000000000000000000000000000000000000000 DUP2 MSTORE PUSH1 0x4 ADD PUSH2 0x2284 SWAP1 PUSH2 0x3AF9 JUMP JUMPDEST PUSH1 0x40 MLOAD DUP1 SWAP2 SUB SWAP1 REVERT JUMPDEST PUSH2 0x2298 DUP4 DUP4 DUP4 PUSH2 0x299C JUMP JUMPDEST DUP3 PUSH20 0xFFFFFFFFFFFFFFFFFFFFFFFFFFFFFFFFFFFFFFFF AND PUSH2 0x22B8 DUP3 PUSH2 0x161A JUMP JUMPDEST PUSH20 0xFFFFFFFFFFFFFFFFFFFFFFFFFFFFFFFFFFFFFFFF AND EQ PUSH2 0x230E JUMPI PUSH1 0x40 MLOAD PUSH32 0x8C379A000000000000000000000000000000000000000000000000000000000 DUP2 MSTORE PUSH1 0x4 ADD PUSH2 0x2305 SWAP1 PUSH2 0x3A99 JUMP JUMPDEST PUSH1 0x40 MLOAD DUP1 SWAP2 SUB SWAP1 REVERT JUMPDEST PUSH1 0x6 PUSH1 0x0 DUP3 DUP2 MSTORE PUSH1 0x20 ADD SWAP1 DUP2 MSTORE PUSH1 0x20 ADD PUSH1 0x0 KECCAK256 PUSH1 0x0 PUSH2 0x100 EXP DUP2 SLOAD SWAP1 PUSH20 0xFFFFFFFFFFFFFFFFFFFFFFFFFFFFFFFFFFFFFFFF MUL NOT AND SWAP1 SSTORE PUSH1 0x1 PUSH1 0x5 PUSH1 0x0 DUP6 PUSH20 0xFFFFFFFFFFFFFFFFFFFFFFFFFFFFFFFFFFFFFFFF AND PUSH20 0xFFFFFFFFFFFFFFFFFFFFFFFFFFFFFFFFFFFFFFFF AND DUP2 MSTORE PUSH1 0x20 ADD SWAP1 DUP2 MSTORE PUSH1 0x20 ADD PUSH1 0x0 KECCAK256 PUSH1 0x0 DUP3 DUP3 SLOAD SUB SWAP3 POP POP DUP2 SWAP1 SSTORE POP PUSH1 0x1 PUSH1 0x5 PUSH1 0x0 DUP5 PUSH20 0xFFFFFFFFFFFFFFFFFFFFFFFFFFFFFFFFFFFFFFFF AND PUSH20 0xFFFFFFFFFFFFFFFFFFFFFFFFFFFFFFFFFFFFFFFF AND DUP2 MSTORE PUSH1 0x20 ADD SWAP1 DUP2 MSTORE PUSH1 0x20 ADD PUSH1 0x0 KECCAK256 PUSH1 0x0 DUP3 DUP3 SLOAD ADD SWAP3 POP POP DUP2 SWAP1 SSTORE POP DUP2 PUSH1 0x3 PUSH1 0x0 DUP4 DUP2 MSTORE PUSH1 0x20 ADD SWAP1 DUP2 MSTORE PUSH1 0x20 ADD PUSH1 0x0 KECCAK256 PUSH1 0x0 PUSH2 0x100 EXP DUP2 SLOAD DUP2 PUSH20 0xFFFFFFFFFFFFFFFFFFFFFFFFFFFFFFFFFFFFFFFF MUL NOT AND SWAP1 DUP4 PUSH20 0xFFFFFFFFFFFFFFFFFFFFFFFFFFFFFFFFFFFFFFFF AND MUL OR SWAP1 SSTORE POP DUP1 DUP3 PUSH20 0xFFFFFFFFFFFFFFFFFFFFFFFFFFFFFFFFFFFFFFFF AND DUP5 PUSH20 0xFFFFFFFFFFFFFFFFFFFFFFFFFFFFFFFFFFFFFFFF AND PUSH32 0xDDF252AD1BE2C89B69C2B068FC378DAA952BA7F163C4A11628F55A4DF523B3EF PUSH1 0x40 MLOAD PUSH1 0x40 MLOAD DUP1 SWAP2 SUB SWAP1 LOG4 PUSH2 0x2498 DUP4 DUP4 DUP4 PUSH2 0x29A1 JUMP JUMPDEST POP POP POP JUMP JUMPDEST PUSH1 0x0 DUP2 PUSH1 0x0 ADD SLOAD SWAP1 POP PUSH1 0x0 DUP2 GT PUSH2 0x24E9 JUMPI PUSH1 0x40 MLOAD PUSH32 0x8C379A000000000000000000000000000000000000000000000000000000000 DUP2 MSTORE PUSH1 0x4 ADD PUSH2 0x24E0 SWAP1 PUSH2 0x3A59 JUMP JUMPDEST PUSH1 0x40 MLOAD DUP1 SWAP2 SUB SWAP1 REVERT JUMPDEST PUSH1 0x1 DUP2 SUB DUP3 PUSH1 0x0 ADD DUP2 SWAP1 SSTORE POP POP POP JUMP JUMPDEST PUSH1 0x1 DUP2 PUSH1 0x0 ADD PUSH1 0x0 DUP3 DUP3 SLOAD ADD SWAP3 POP POP DUP2 SWAP1 SSTORE POP POP JUMP JUMPDEST DUP2 PUSH20 0xFFFFFFFFFFFFFFFFFFFFFFFFFFFFFFFFFFFFFFFF AND DUP4 PUSH20 0xFFFFFFFFFFFFFFFFFFFFFFFFFFFFFFFFFFFFFFFF AND EQ ISZERO PUSH2 0x257E JUMPI PUSH1 0x40 MLOAD PUSH32 0x8C379A000000000000000000000000000000000000000000000000000000000 DUP2 MSTORE PUSH1 0x4 ADD PUSH2 0x2575 SWAP1 PUSH2 0x3B19 JUMP JUMPDEST PUSH1 0x40 MLOAD DUP1 SWAP2 SUB SWAP1 REVERT JUMPDEST DUP1 PUSH1 0x7 PUSH1 0x0 DUP6 PUSH20 0xFFFFFFFFFFFFFFFFFFFFFFFFFFFFFFFFFFFFFFFF AND PUSH20 0xFFFFFFFFFFFFFFFFFFFFFFFFFFFFFFFFFFFFFFFF AND DUP2 MSTORE PUSH1 0x20 ADD SWAP1 DUP2 MSTORE PUSH1 0x20 ADD PUSH1 0x0 KECCAK256 PUSH1 0x0 DUP5 PUSH20 0xFFFFFFFFFFFFFFFFFFFFFFFFFFFFFFFFFFFFFFFF AND PUSH20 0xFFFFFFFFFFFFFFFFFFFFFFFFFFFFFFFFFFFFFFFF AND DUP2 MSTORE PUSH1 0x20 ADD SWAP1 DUP2 MSTORE PUSH1 0x20 ADD PUSH1 0x0 KECCAK256 PUSH1 0x0 PUSH2 0x100 EXP DUP2 SLOAD DUP2 PUSH1 0xFF MUL NOT AND SWAP1 DUP4 ISZERO ISZERO MUL OR SWAP1 SSTORE POP DUP2 PUSH20 0xFFFFFFFFFFFFFFFFFFFFFFFFFFFFFFFFFFFFFFFF AND DUP4 PUSH20 0xFFFFFFFFFFFFFFFFFFFFFFFFFFFFFFFFFFFFFFFF AND PUSH32 0x17307EAB39AB6107E8899845AD3D59BD9653F200F220920489CA2B5937696C31 DUP4 PUSH1 0x40 MLOAD PUSH2 0x266F SWAP2 SWAP1 PUSH2 0x39FC JUMP JUMPDEST PUSH1 0x40 MLOAD DUP1 SWAP2 SUB SWAP1 LOG3 POP POP POP JUMP JUMPDEST PUSH2 0x2697 DUP4 DUP4 DUP4 PUSH1 0x40 MLOAD DUP1 PUSH1 0x20 ADD PUSH1 0x40 MSTORE DUP1 PUSH1 0x0 DUP2 MSTORE POP PUSH2 0x29A6 JUMP JUMPDEST POP POP POP JUMP JUMPDEST PUSH2 0x26A5 DUP3 PUSH2 0x2930 JUMP JUMPDEST PUSH2 0x26E4 JUMPI PUSH1 0x40 MLOAD PUSH32 0x8C379A000000000000000000000000000000000000000000000000000000000 DUP2 MSTORE PUSH1 0x4 ADD PUSH2 0x26DB SWAP1 PUSH2 0x3B59 JUMP JUMPDEST PUSH1 0x40 MLOAD DUP1 SWAP2 SUB SWAP1 REVERT JUMPDEST DUP1 PUSH1 0x8 PUSH1 0x0 DUP5 DUP2 MSTORE PUSH1 0x20 ADD SWAP1 DUP2 MSTORE PUSH1 0x20 ADD PUSH1 0x0 KECCAK256 SWAP1 DUP1 MLOAD SWAP1 PUSH1 0x20 ADD SWAP1 PUSH2 0x270B SWAP3 SWAP2 SWAP1 PUSH2 0x2F14 JUMP JUMPDEST POP POP POP JUMP JUMPDEST PUSH2 0x271B DUP5 DUP5 DUP5 PUSH2 0x21A7 JUMP JUMPDEST PUSH2 0x2727 DUP5 DUP5 DUP5 DUP5 PUSH2 0x2A03 JUMP JUMPDEST PUSH2 0x2766 JUMPI PUSH1 0x40 MLOAD PUSH32 0x8C379A000000000000000000000000000000000000000000000000000000000 DUP2 MSTORE PUSH1 0x4 ADD PUSH2 0x275D SWAP1 PUSH2 0x3A79 JUMP JUMPDEST PUSH1 0x40 MLOAD DUP1 SWAP2 SUB SWAP1 REVERT JUMPDEST POP POP POP POP JUMP JUMPDEST PUSH1 0x60 PUSH1 0x40 MLOAD DUP1 PUSH1 0x20 ADD PUSH1 0x40 MSTORE DUP1 PUSH1 0x0 DUP2 MSTORE POP SWAP1 POP SWAP1 JUMP JUMPDEST PUSH1 0x60 PUSH1 0x0 DUP3 EQ ISZERO PUSH2 0x27CB JUMPI PUSH1 0x40 MLOAD DUP1 PUSH1 0x40 ADD PUSH1 0x40 MSTORE DUP1 PUSH1 0x1 DUP2 MSTORE PUSH1 0x20 ADD PUSH32 0x3000000000000000000000000000000000000000000000000000000000000000 DUP2 MSTORE POP SWAP1 POP PUSH2 0x292B JUMP JUMPDEST PUSH1 0x0 DUP3 SWAP1 POP PUSH1 0x0 JUMPDEST PUSH1 0x0 DUP3 EQ PUSH2 0x27FD JUMPI DUP1 DUP1 PUSH2 0x27E6 SWAP1 PUSH2 0x3F93 JUMP JUMPDEST SWAP2 POP POP PUSH1 0xA DUP3 PUSH2 0x27F6 SWAP2 SWAP1 PUSH2 0x3DCD JUMP JUMPDEST SWAP2 POP PUSH2 0x27D3 JUMP JUMPDEST PUSH1 0x0 DUP2 PUSH8 0xFFFFFFFFFFFFFFFF DUP2 GT ISZERO PUSH2 0x283F JUMPI PUSH32 0x4E487B7100000000000000000000000000000000000000000000000000000000 PUSH1 0x0 MSTORE PUSH1 0x41 PUSH1 0x4 MSTORE PUSH1 0x24 PUSH1 0x0 REVERT JUMPDEST PUSH1 0x40 MLOAD SWAP1 DUP1 DUP3 MSTORE DUP1 PUSH1 0x1F ADD PUSH1 0x1F NOT AND PUSH1 0x20 ADD DUP3 ADD PUSH1 0x40 MSTORE DUP1 ISZERO PUSH2 0x2871 JUMPI DUP2 PUSH1 0x20 ADD PUSH1 0x1 DUP3 MUL DUP1 CALLDATASIZE DUP4 CALLDATACOPY DUP1 DUP3 ADD SWAP2 POP POP SWAP1 POP JUMPDEST POP SWAP1 POP JUMPDEST PUSH1 0x0 DUP6 EQ PUSH2 0x2924 JUMPI PUSH1 0x1 DUP3 PUSH2 0x288A SWAP2 SWAP1 PUSH2 0x3DFE JUMP JUMPDEST SWAP2 POP PUSH1 0xA DUP6 PUSH2 0x2899 SWAP2 SWAP1 PUSH2 0x3FDC JUMP JUMPDEST PUSH1 0x30 PUSH2 0x28A5 SWAP2 SWAP1 PUSH2 0x3D77 JUMP JUMPDEST PUSH1 0xF8 SHL DUP2 DUP4 DUP2 MLOAD DUP2 LT PUSH2 0x28E1 JUMPI PUSH32 0x4E487B7100000000000000000000000000000000000000000000000000000000 PUSH1 0x0 MSTORE PUSH1 0x32 PUSH1 0x4 MSTORE PUSH1 0x24 PUSH1 0x0 REVERT JUMPDEST PUSH1 0x20 ADD ADD SWAP1 PUSH31 0xFFFFFFFFFFFFFFFFFFFFFFFFFFFFFFFFFFFFFFFFFFFFFFFFFFFFFFFFFFFFFF NOT AND SWAP1 DUP2 PUSH1 0x0 BYTE SWAP1 MSTORE8 POP PUSH1 0xA DUP6 PUSH2 0x291D SWAP2 SWAP1 PUSH2 0x3DCD JUMP JUMPDEST SWAP5 POP PUSH2 0x2875 JUMP JUMPDEST DUP1 SWAP4 POP POP POP POP JUMPDEST SWAP2 SWAP1 POP JUMP JUMPDEST PUSH1 0x0 DUP1 PUSH20 0xFFFFFFFFFFFFFFFFFFFFFFFFFFFFFFFFFFFFFFFF AND PUSH1 0x3 PUSH1 0x0 DUP5 DUP2 MSTORE PUSH1 0x20 ADD SWAP1 DUP2 MSTORE PUSH1 0x20 ADD PUSH1 0x0 KECCAK256 PUSH1 0x0 SWAP1 SLOAD SWAP1 PUSH2 0x100 EXP SWAP1 DIV PUSH20 0xFFFFFFFFFFFFFFFFFFFFFFFFFFFFFFFFFFFFFFFF AND PUSH20 0xFFFFFFFFFFFFFFFFFFFFFFFFFFFFFFFFFFFFFFFF AND EQ ISZERO SWAP1 POP SWAP2 SWAP1 POP JUMP JUMPDEST POP POP POP JUMP JUMPDEST POP POP POP JUMP JUMPDEST PUSH2 0x29B1 DUP5 DUP5 DUP5 PUSH2 0x2B9A JUMP JUMPDEST PUSH2 0x29BE PUSH1 0x0 DUP6 DUP5 DUP5 PUSH2 0x2A03 JUMP JUMPDEST PUSH2 0x29FD JUMPI PUSH1 0x40 MLOAD PUSH32 0x8C379A000000000000000000000000000000000000000000000000000000000 DUP2 MSTORE PUSH1 0x4 ADD PUSH2 0x29F4 SWAP1 PUSH2 0x3A79 JUMP JUMPDEST PUSH1 0x40 MLOAD DUP1 SWAP2 SUB SWAP1 REVERT JUMPDEST POP POP POP POP JUMP JUMPDEST PUSH1 0x0 PUSH2 0x2A24 DUP5 PUSH20 0xFFFFFFFFFFFFFFFFFFFFFFFFFFFFFFFFFFFFFFFF AND PUSH2 0x2E77 JUMP JUMPDEST ISZERO PUSH2 0x2B8D JUMPI DUP4 PUSH20 0xFFFFFFFFFFFFFFFFFFFFFFFFFFFFFFFFFFFFFFFF AND PUSH4 0x150B7A02 PUSH2 0x2A4D PUSH2 0x2051 JUMP JUMPDEST DUP8 DUP7 DUP7 PUSH1 0x40 MLOAD DUP6 PUSH4 0xFFFFFFFF AND PUSH1 0xE0 SHL DUP2 MSTORE PUSH1 0x4 ADD PUSH2 0x2A6F SWAP5 SWAP4 SWAP3 SWAP2 SWAP1 PUSH2 0x38E8 JUMP JUMPDEST PUSH1 0x20 PUSH1 0x40 MLOAD DUP1 DUP4 SUB DUP2 PUSH1 0x0 DUP8 DUP1 EXTCODESIZE ISZERO DUP1 ISZERO PUSH2 0x2A89 JUMPI PUSH1 0x0 DUP1 REVERT JUMPDEST POP GAS CALL SWAP3 POP POP POP DUP1 ISZERO PUSH2 0x2ABA JUMPI POP PUSH1 0x40 MLOAD RETURNDATASIZE PUSH1 0x1F NOT PUSH1 0x1F DUP3 ADD AND DUP3 ADD DUP1 PUSH1 0x40 MSTORE POP DUP2 ADD SWAP1 PUSH2 0x2AB7 SWAP2 SWAP1 PUSH2 0x338A JUMP JUMPDEST PUSH1 0x1 JUMPDEST PUSH2 0x2B3D JUMPI RETURNDATASIZE DUP1 PUSH1 0x0 DUP2 EQ PUSH2 0x2AEA JUMPI PUSH1 0x40 MLOAD SWAP2 POP PUSH1 0x1F NOT PUSH1 0x3F RETURNDATASIZE ADD AND DUP3 ADD PUSH1 0x40 MSTORE RETURNDATASIZE DUP3 MSTORE RETURNDATASIZE PUSH1 0x0 PUSH1 0x20 DUP5 ADD RETURNDATACOPY PUSH2 0x2AEF JUMP JUMPDEST PUSH1 0x60 SWAP2 POP JUMPDEST POP PUSH1 0x0 DUP2 MLOAD EQ ISZERO PUSH2 0x2B35 JUMPI PUSH1 0x40 MLOAD PUSH32 0x8C379A000000000000000000000000000000000000000000000000000000000 DUP2 MSTORE PUSH1 0x4 ADD PUSH2 0x2B2C SWAP1 PUSH2 0x3A79 JUMP JUMPDEST PUSH1 0x40 MLOAD DUP1 SWAP2 SUB SWAP1 REVERT JUMPDEST DUP1 MLOAD DUP2 PUSH1 0x20 ADD REVERT JUMPDEST PUSH4 0x150B7A02 PUSH1 0xE0 SHL PUSH28 0xFFFFFFFFFFFFFFFFFFFFFFFFFFFFFFFFFFFFFFFFFFFFFFFFFFFFFFFF NOT AND DUP2 PUSH28 0xFFFFFFFFFFFFFFFFFFFFFFFFFFFFFFFFFFFFFFFFFFFFFFFFFFFFFFFF NOT AND EQ SWAP2 POP POP PUSH2 0x2B92 JUMP JUMPDEST PUSH1 0x1 SWAP1 POP JUMPDEST SWAP5 SWAP4 POP POP POP POP JUMP JUMPDEST PUSH1 0x0 PUSH20 0xFFFFFFFFFFFFFFFFFFFFFFFFFFFFFFFFFFFFFFFF AND DUP4 PUSH20 0xFFFFFFFFFFFFFFFFFFFFFFFFFFFFFFFFFFFFFFFF AND EQ ISZERO PUSH2 0x2C0A JUMPI PUSH1 0x40 MLOAD PUSH32 0x8C379A000000000000000000000000000000000000000000000000000000000 DUP2 MSTORE PUSH1 0x4 ADD PUSH2 0x2C01 SWAP1 PUSH2 0x3B79 JUMP JUMPDEST PUSH1 0x40 MLOAD DUP1 SWAP2 SUB SWAP1 REVERT JUMPDEST PUSH1 0x0 PUSH20 0xFFFFFFFFFFFFFFFFFFFFFFFFFFFFFFFFFFFFFFFF AND DUP3 PUSH20 0xFFFFFFFFFFFFFFFFFFFFFFFFFFFFFFFFFFFFFFFF AND EQ ISZERO PUSH2 0x2C7A JUMPI PUSH1 0x40 MLOAD PUSH32 0x8C379A000000000000000000000000000000000000000000000000000000000 DUP2 MSTORE PUSH1 0x4 ADD PUSH2 0x2C71 SWAP1 PUSH2 0x3B79 JUMP JUMPDEST PUSH1 0x40 MLOAD DUP1 SWAP2 SUB SWAP1 REVERT JUMPDEST PUSH2 0x2C83 DUP2 PUSH2 0x2930 JUMP JUMPDEST ISZERO PUSH2 0x2CC3 JUMPI PUSH1 0x40 MLOAD PUSH32 0x8C379A000000000000000000000000000000000000000000000000000000000 DUP2 MSTORE PUSH1 0x4 ADD PUSH2 0x2CBA SWAP1 PUSH2 0x3AD9 JUMP JUMPDEST PUSH1 0x40 MLOAD DUP1 SWAP2 SUB SWAP1 REVERT JUMPDEST PUSH2 0x2CCF PUSH1 0x0 DUP5 DUP4 PUSH2 0x299C JUMP JUMPDEST PUSH2 0x2CD8 DUP2 PUSH2 0x2930 JUMP JUMPDEST ISZERO PUSH2 0x2D18 JUMPI PUSH1 0x40 MLOAD PUSH32 0x8C379A000000000000000000000000000000000000000000000000000000000 DUP2 MSTORE PUSH1 0x4 ADD PUSH2 0x2D0F SWAP1 PUSH2 0x3AD9 JUMP JUMPDEST PUSH1 0x40 MLOAD DUP1 SWAP2 SUB SWAP1 REVERT JUMPDEST PUSH1 0x1 PUSH1 0x5 PUSH1 0x0 DUP6 PUSH20 0xFFFFFFFFFFFFFFFFFFFFFFFFFFFFFFFFFFFFFFFF AND PUSH20 0xFFFFFFFFFFFFFFFFFFFFFFFFFFFFFFFFFFFFFFFF AND DUP2 MSTORE PUSH1 0x20 ADD SWAP1 DUP2 MSTORE PUSH1 0x20 ADD PUSH1 0x0 KECCAK256 PUSH1 0x0 DUP3 DUP3 SLOAD ADD SWAP3 POP POP DUP2 SWAP1 SSTORE POP DUP3 PUSH1 0x3 PUSH1 0x0 DUP4 DUP2 MSTORE PUSH1 0x20 ADD SWAP1 DUP2 MSTORE PUSH1 0x20 ADD PUSH1 0x0 KECCAK256 PUSH1 0x0 PUSH2 0x100 EXP DUP2 SLOAD DUP2 PUSH20 0xFFFFFFFFFFFFFFFFFFFFFFFFFFFFFFFFFFFFFFFF MUL NOT AND SWAP1 DUP4 PUSH20 0xFFFFFFFFFFFFFFFFFFFFFFFFFFFFFFFFFFFFFFFF AND MUL OR SWAP1 SSTORE POP DUP2 PUSH1 0x4 PUSH1 0x0 DUP4 DUP2 MSTORE PUSH1 0x20 ADD SWAP1 DUP2 MSTORE PUSH1 0x20 ADD PUSH1 0x0 KECCAK256 PUSH1 0x0 PUSH2 0x100 EXP DUP2 SLOAD DUP2 PUSH20 0xFFFFFFFFFFFFFFFFFFFFFFFFFFFFFFFFFFFFFFFF MUL NOT AND SWAP1 DUP4 PUSH20 0xFFFFFFFFFFFFFFFFFFFFFFFFFFFFFFFFFFFFFFFF AND MUL OR SWAP1 SSTORE POP DUP1 DUP4 PUSH20 0xFFFFFFFFFFFFFFFFFFFFFFFFFFFFFFFFFFFFFFFF AND PUSH1 0x0 PUSH20 0xFFFFFFFFFFFFFFFFFFFFFFFFFFFFFFFFFFFFFFFF AND PUSH32 0xDDF252AD1BE2C89B69C2B068FC378DAA952BA7F163C4A11628F55A4DF523B3EF PUSH1 0x40 MLOAD PUSH1 0x40 MLOAD DUP1 SWAP2 SUB SWAP1 LOG4 PUSH2 0x2E72 PUSH1 0x0 DUP5 DUP4 PUSH2 0x29A1 JUMP JUMPDEST POP POP POP JUMP JUMPDEST PUSH1 0x0 DUP1 DUP3 PUSH20 0xFFFFFFFFFFFFFFFFFFFFFFFFFFFFFFFFFFFFFFFF AND EXTCODESIZE GT SWAP1 POP SWAP2 SWAP1 POP JUMP JUMPDEST PUSH1 0x40 MLOAD DUP1 PUSH1 0xC0 ADD PUSH1 0x40 MSTORE DUP1 PUSH1 0x0 PUSH20 0xFFFFFFFFFFFFFFFFFFFFFFFFFFFFFFFFFFFFFFFF AND DUP2 MSTORE PUSH1 0x20 ADD PUSH1 0x0 DUP2 MSTORE PUSH1 0x20 ADD PUSH1 0x0 PUSH20 0xFFFFFFFFFFFFFFFFFFFFFFFFFFFFFFFFFFFFFFFF AND DUP2 MSTORE PUSH1 0x20 ADD PUSH1 0x0 PUSH20 0xFFFFFFFFFFFFFFFFFFFFFFFFFFFFFFFFFFFFFFFF AND DUP2 MSTORE PUSH1 0x20 ADD PUSH1 0x0 DUP2 MSTORE PUSH1 0x20 ADD PUSH1 0x0 ISZERO ISZERO DUP2 MSTORE POP SWAP1 JUMP JUMPDEST DUP3 DUP1 SLOAD PUSH2 0x2F20 SWAP1 PUSH2 0x3F30 JUMP JUMPDEST SWAP1 PUSH1 0x0 MSTORE PUSH1 0x20 PUSH1 0x0 KECCAK256 SWAP1 PUSH1 0x1F ADD PUSH1 0x20 SWAP1 DIV DUP2 ADD SWAP3 DUP3 PUSH2 0x2F42 JUMPI PUSH1 0x0 DUP6 SSTORE PUSH2 0x2F89 JUMP JUMPDEST DUP3 PUSH1 0x1F LT PUSH2 0x2F5B JUMPI DUP1 MLOAD PUSH1 0xFF NOT AND DUP4 DUP1 ADD OR DUP6 SSTORE PUSH2 0x2F89 JUMP JUMPDEST DUP3 DUP1 ADD PUSH1 0x1 ADD DUP6 SSTORE DUP3 ISZERO PUSH2 0x2F89 JUMPI SWAP2 DUP3 ADD JUMPDEST DUP3 DUP2 GT ISZERO PUSH2 0x2F88 JUMPI DUP3 MLOAD DUP3 SSTORE SWAP2 PUSH1 0x20 ADD SWAP2 SWAP1 PUSH1 0x1 ADD SWAP1 PUSH2 0x2F6D JUMP JUMPDEST JUMPDEST POP SWAP1 POP PUSH2 0x2F96 SWAP2 SWAP1 PUSH2 0x2F9A JUMP JUMPDEST POP SWAP1 JUMP JUMPDEST JUMPDEST DUP1 DUP3 GT ISZERO PUSH2 0x2FB3 JUMPI PUSH1 0x0 DUP2 PUSH1 0x0 SWAP1 SSTORE POP PUSH1 0x1 ADD PUSH2 0x2F9B JUMP JUMPDEST POP SWAP1 JUMP JUMPDEST PUSH1 0x0 PUSH2 0x2FCA PUSH2 0x2FC5 DUP5 PUSH2 0x3C99 JUMP JUMPDEST PUSH2 0x3C74 JUMP JUMPDEST SWAP1 POP DUP3 DUP2 MSTORE PUSH1 0x20 DUP2 ADD DUP5 DUP5 DUP5 ADD GT ISZERO PUSH2 0x2FE2 JUMPI PUSH1 0x0 DUP1 REVERT JUMPDEST PUSH2 0x2FED DUP5 DUP3 DUP6 PUSH2 0x3EEE JUMP JUMPDEST POP SWAP4 SWAP3 POP POP POP JUMP JUMPDEST PUSH1 0x0 PUSH2 0x3008 PUSH2 0x3003 DUP5 PUSH2 0x3CCA JUMP JUMPDEST PUSH2 0x3C74 JUMP JUMPDEST SWAP1 POP DUP3 DUP2 MSTORE PUSH1 0x20 DUP2 ADD DUP5 DUP5 DUP5 ADD GT ISZERO PUSH2 0x3020 JUMPI PUSH1 0x0 DUP1 REVERT JUMPDEST PUSH2 0x302B DUP5 DUP3 DUP6 PUSH2 0x3EEE JUMP JUMPDEST POP SWAP4 SWAP3 POP POP POP JUMP JUMPDEST PUSH1 0x0 DUP2 CALLDATALOAD SWAP1 POP PUSH2 0x3042 DUP2 PUSH2 0x44E9 JUMP JUMPDEST SWAP3 SWAP2 POP POP JUMP JUMPDEST PUSH1 0x0 DUP2 CALLDATALOAD SWAP1 POP PUSH2 0x3057 DUP2 PUSH2 0x4500 JUMP JUMPDEST SWAP3 SWAP2 POP POP JUMP JUMPDEST PUSH1 0x0 DUP2 CALLDATALOAD SWAP1 POP PUSH2 0x306C DUP2 PUSH2 0x4517 JUMP JUMPDEST SWAP3 SWAP2 POP POP JUMP JUMPDEST PUSH1 0x0 DUP2 MLOAD SWAP1 POP PUSH2 0x3081 DUP2 PUSH2 0x4517 JUMP JUMPDEST SWAP3 SWAP2 POP POP JUMP JUMPDEST PUSH1 0x0 DUP3 PUSH1 0x1F DUP4 ADD SLT PUSH2 0x3098 JUMPI PUSH1 0x0 DUP1 REVERT JUMPDEST DUP2 CALLDATALOAD PUSH2 0x30A8 DUP5 DUP3 PUSH1 0x20 DUP7 ADD PUSH2 0x2FB7 JUMP JUMPDEST SWAP2 POP POP SWAP3 SWAP2 POP POP JUMP JUMPDEST PUSH1 0x0 DUP3 PUSH1 0x1F DUP4 ADD SLT PUSH2 0x30C2 JUMPI PUSH1 0x0 DUP1 REVERT JUMPDEST DUP2 CALLDATALOAD PUSH2 0x30D2 DUP5 DUP3 PUSH1 0x20 DUP7 ADD PUSH2 0x2FF5 JUMP JUMPDEST SWAP2 POP POP SWAP3 SWAP2 POP POP JUMP JUMPDEST PUSH1 0x0 DUP2 CALLDATALOAD SWAP1 POP PUSH2 0x30EA DUP2 PUSH2 0x452E JUMP JUMPDEST SWAP3 SWAP2 POP POP JUMP JUMPDEST PUSH1 0x0 PUSH1 0x20 DUP3 DUP5 SUB SLT ISZERO PUSH2 0x3102 JUMPI PUSH1 0x0 DUP1 REVERT JUMPDEST PUSH1 0x0 PUSH2 0x3110 DUP5 DUP3 DUP6 ADD PUSH2 0x3033 JUMP JUMPDEST SWAP2 POP POP SWAP3 SWAP2 POP POP JUMP JUMPDEST PUSH1 0x0 DUP1 PUSH1 0x40 DUP4 DUP6 SUB SLT ISZERO PUSH2 0x312C JUMPI PUSH1 0x0 DUP1 REVERT JUMPDEST PUSH1 0x0 PUSH2 0x313A DUP6 DUP3 DUP7 ADD PUSH2 0x3033 JUMP JUMPDEST SWAP3 POP POP PUSH1 0x20 PUSH2 0x314B DUP6 DUP3 DUP7 ADD PUSH2 0x3033 JUMP JUMPDEST SWAP2 POP POP SWAP3 POP SWAP3 SWAP1 POP JUMP JUMPDEST PUSH1 0x0 DUP1 PUSH1 0x0 PUSH1 0x60 DUP5 DUP7 SUB SLT ISZERO PUSH2 0x316A JUMPI PUSH1 0x0 DUP1 REVERT JUMPDEST PUSH1 0x0 PUSH2 0x3178 DUP7 DUP3 DUP8 ADD PUSH2 0x3033 JUMP JUMPDEST SWAP4 POP POP PUSH1 0x20 PUSH2 0x3189 DUP7 DUP3 DUP8 ADD PUSH2 0x3033 JUMP JUMPDEST SWAP3 POP POP PUSH1 0x40 PUSH2 0x319A DUP7 DUP3 DUP8 ADD PUSH2 0x30DB JUMP JUMPDEST SWAP2 POP POP SWAP3 POP SWAP3 POP SWAP3 JUMP JUMPDEST PUSH1 0x0 DUP1 PUSH1 0x0 DUP1 PUSH1 0x80 DUP6 DUP8 SUB SLT ISZERO PUSH2 0x31BA JUMPI PUSH1 0x0 DUP1 REVERT JUMPDEST PUSH1 0x0 PUSH2 0x31C8 DUP8 DUP3 DUP9 ADD PUSH2 0x3033 JUMP JUMPDEST SWAP5 POP POP PUSH1 0x20 PUSH2 0x31D9 DUP8 DUP3 DUP9 ADD PUSH2 0x3033 JUMP JUMPDEST SWAP4 POP POP PUSH1 0x40 PUSH2 0x31EA DUP8 DUP3 DUP9 ADD PUSH2 0x30DB JUMP JUMPDEST SWAP3 POP POP PUSH1 0x60 DUP6 ADD CALLDATALOAD PUSH8 0xFFFFFFFFFFFFFFFF DUP2 GT ISZERO PUSH2 0x3207 JUMPI PUSH1 0x0 DUP1 REVERT JUMPDEST PUSH2 0x3213 DUP8 DUP3 DUP9 ADD PUSH2 0x3087 JUMP JUMPDEST SWAP2 POP POP SWAP3 SWAP6 SWAP2 SWAP5 POP SWAP3 POP JUMP JUMPDEST PUSH1 0x0 DUP1 PUSH1 0x0 DUP1 PUSH1 0x80 DUP6 DUP8 SUB SLT ISZERO PUSH2 0x3235 JUMPI PUSH1 0x0 DUP1 REVERT JUMPDEST PUSH1 0x0 PUSH2 0x3243 DUP8 DUP3 DUP9 ADD PUSH2 0x3033 JUMP JUMPDEST SWAP5 POP POP PUSH1 0x20 PUSH2 0x3254 DUP8 DUP3 DUP9 ADD PUSH2 0x3033 JUMP JUMPDEST SWAP4 POP POP PUSH1 0x40 PUSH2 0x3265 DUP8 DUP3 DUP9 ADD PUSH2 0x30DB JUMP JUMPDEST SWAP3 POP POP PUSH1 0x60 DUP6 ADD CALLDATALOAD PUSH8 0xFFFFFFFFFFFFFFFF DUP2 GT ISZERO PUSH2 0x3282 JUMPI PUSH1 0x0 DUP1 REVERT JUMPDEST PUSH2 0x328E DUP8 DUP3 DUP9 ADD PUSH2 0x30B1 JUMP JUMPDEST SWAP2 POP POP SWAP3 SWAP6 SWAP2 SWAP5 POP SWAP3 POP JUMP JUMPDEST PUSH1 0x0 DUP1 PUSH1 0x40 DUP4 DUP6 SUB SLT ISZERO PUSH2 0x32AD JUMPI PUSH1 0x0 DUP1 REVERT JUMPDEST PUSH1 0x0 PUSH2 0x32BB DUP6 DUP3 DUP7 ADD PUSH2 0x3033 JUMP JUMPDEST SWAP3 POP POP PUSH1 0x20 PUSH2 0x32CC DUP6 DUP3 DUP7 ADD PUSH2 0x3048 JUMP JUMPDEST SWAP2 POP POP SWAP3 POP SWAP3 SWAP1 POP JUMP JUMPDEST PUSH1 0x0 DUP1 PUSH1 0x40 DUP4 DUP6 SUB SLT ISZERO PUSH2 0x32E9 JUMPI PUSH1 0x0 DUP1 REVERT JUMPDEST PUSH1 0x0 PUSH2 0x32F7 DUP6 DUP3 DUP7 ADD PUSH2 0x3033 JUMP JUMPDEST SWAP3 POP POP PUSH1 0x20 PUSH2 0x3308 DUP6 DUP3 DUP7 ADD PUSH2 0x30DB JUMP JUMPDEST SWAP2 POP POP SWAP3 POP SWAP3 SWAP1 POP JUMP JUMPDEST PUSH1 0x0 DUP1 PUSH1 0x0 PUSH1 0x60 DUP5 DUP7 SUB SLT ISZERO PUSH2 0x3327 JUMPI PUSH1 0x0 DUP1 REVERT JUMPDEST PUSH1 0x0 PUSH2 0x3335 DUP7 DUP3 DUP8 ADD PUSH2 0x3033 JUMP JUMPDEST SWAP4 POP POP PUSH1 0x20 PUSH2 0x3346 DUP7 DUP3 DUP8 ADD PUSH2 0x30DB JUMP JUMPDEST SWAP3 POP POP PUSH1 0x40 PUSH2 0x3357 DUP7 DUP3 DUP8 ADD PUSH2 0x30DB JUMP JUMPDEST SWAP2 POP POP SWAP3 POP SWAP3 POP SWAP3 JUMP JUMPDEST PUSH1 0x0 PUSH1 0x20 DUP3 DUP5 SUB SLT ISZERO PUSH2 0x3373 JUMPI PUSH1 0x0 DUP1 REVERT JUMPDEST PUSH1 0x0 PUSH2 0x3381 DUP5 DUP3 DUP6 ADD PUSH2 0x305D JUMP JUMPDEST SWAP2 POP POP SWAP3 SWAP2 POP POP JUMP JUMPDEST PUSH1 0x0 PUSH1 0x20 DUP3 DUP5 SUB SLT ISZERO PUSH2 0x339C JUMPI PUSH1 0x0 DUP1 REVERT JUMPDEST PUSH1 0x0 PUSH2 0x33AA DUP5 DUP3 DUP6 ADD PUSH2 0x3072 JUMP JUMPDEST SWAP2 POP POP SWAP3 SWAP2 POP POP JUMP JUMPDEST PUSH1 0x0 PUSH1 0x20 DUP3 DUP5 SUB SLT ISZERO PUSH2 0x33C5 JUMPI PUSH1 0x0 DUP1 REVERT JUMPDEST PUSH1 0x0 PUSH2 0x33D3 DUP5 DUP3 DUP6 ADD PUSH2 0x30DB JUMP JUMPDEST SWAP2 POP POP SWAP3 SWAP2 POP POP JUMP JUMPDEST PUSH1 0x0 PUSH2 0x33E8 DUP4 DUP4 PUSH2 0x37A2 JUMP JUMPDEST PUSH1 0xC0 DUP4 ADD SWAP1 POP SWAP3 SWAP2 POP POP JUMP JUMPDEST PUSH2 0x33FD DUP2 PUSH2 0x3EB8 JUMP JUMPDEST DUP3 MSTORE POP POP JUMP JUMPDEST PUSH2 0x340C DUP2 PUSH2 0x3E44 JUMP JUMPDEST DUP3 MSTORE POP POP JUMP JUMPDEST PUSH2 0x341B DUP2 PUSH2 0x3E32 JUMP JUMPDEST DUP3 MSTORE POP POP JUMP JUMPDEST PUSH2 0x342A DUP2 PUSH2 0x3E32 JUMP JUMPDEST DUP3 MSTORE POP POP JUMP JUMPDEST PUSH1 0x0 PUSH2 0x343B DUP3 PUSH2 0x3D0B JUMP JUMPDEST PUSH2 0x3445 DUP2 DUP6 PUSH2 0x3D39 JUMP JUMPDEST SWAP4 POP PUSH2 0x3450 DUP4 PUSH2 0x3CFB JUMP JUMPDEST DUP1 PUSH1 0x0 JUMPDEST DUP4 DUP2 LT ISZERO PUSH2 0x3481 JUMPI DUP2 MLOAD PUSH2 0x3468 DUP9 DUP3 PUSH2 0x33DC JUMP JUMPDEST SWAP8 POP PUSH2 0x3473 DUP4 PUSH2 0x3D2C JUMP JUMPDEST SWAP3 POP POP PUSH1 0x1 DUP2 ADD SWAP1 POP PUSH2 0x3454 JUMP JUMPDEST POP DUP6 SWAP4 POP POP POP POP SWAP3 SWAP2 POP POP JUMP JUMPDEST PUSH2 0x3497 DUP2 PUSH2 0x3E56 JUMP JUMPDEST DUP3 MSTORE POP POP JUMP JUMPDEST PUSH2 0x34A6 DUP2 PUSH2 0x3E56 JUMP JUMPDEST DUP3 MSTORE POP POP JUMP JUMPDEST PUSH1 0x0 PUSH2 0x34B7 DUP3 PUSH2 0x3D16 JUMP JUMPDEST PUSH2 0x34C1 DUP2 DUP6 PUSH2 0x3D4A JUMP JUMPDEST SWAP4 POP PUSH2 0x34D1 DUP2 DUP6 PUSH1 0x20 DUP7 ADD PUSH2 0x3EFD JUMP JUMPDEST PUSH2 0x34DA DUP2 PUSH2 0x40C9 JUMP JUMPDEST DUP5 ADD SWAP2 POP POP SWAP3 SWAP2 POP POP JUMP JUMPDEST PUSH1 0x0 PUSH2 0x34F0 DUP3 PUSH2 0x3D21 JUMP JUMPDEST PUSH2 0x34FA DUP2 DUP6 PUSH2 0x3D5B JUMP JUMPDEST SWAP4 POP PUSH2 0x350A DUP2 DUP6 PUSH1 0x20 DUP7 ADD PUSH2 0x3EFD JUMP JUMPDEST PUSH2 0x3513 DUP2 PUSH2 0x40C9 JUMP JUMPDEST DUP5 ADD SWAP2 POP POP SWAP3 SWAP2 POP POP JUMP JUMPDEST PUSH1 0x0 PUSH2 0x3529 DUP3 PUSH2 0x3D21 JUMP JUMPDEST PUSH2 0x3533 DUP2 DUP6 PUSH2 0x3D6C JUMP JUMPDEST SWAP4 POP PUSH2 0x3543 DUP2 DUP6 PUSH1 0x20 DUP7 ADD PUSH2 0x3EFD JUMP JUMPDEST DUP1 DUP5 ADD SWAP2 POP POP SWAP3 SWAP2 POP POP JUMP JUMPDEST PUSH1 0x0 PUSH2 0x355C PUSH1 0x2D DUP4 PUSH2 0x3D5B JUMP JUMPDEST SWAP2 POP PUSH2 0x3567 DUP3 PUSH2 0x40DA JUMP JUMPDEST PUSH1 0x40 DUP3 ADD SWAP1 POP SWAP2 SWAP1 POP JUMP JUMPDEST PUSH1 0x0 PUSH2 0x357F PUSH1 0x1B DUP4 PUSH2 0x3D5B JUMP JUMPDEST SWAP2 POP PUSH2 0x358A DUP3 PUSH2 0x4129 JUMP JUMPDEST PUSH1 0x20 DUP3 ADD SWAP1 POP SWAP2 SWAP1 POP JUMP JUMPDEST PUSH1 0x0 PUSH2 0x35A2 PUSH1 0x32 DUP4 PUSH2 0x3D5B JUMP JUMPDEST SWAP2 POP PUSH2 0x35AD DUP3 PUSH2 0x4152 JUMP JUMPDEST PUSH1 0x40 DUP3 ADD SWAP1 POP SWAP2 SWAP1 POP JUMP JUMPDEST PUSH1 0x0 PUSH2 0x35C5 PUSH1 0x25 DUP4 PUSH2 0x3D5B JUMP JUMPDEST SWAP2 POP PUSH2 0x35D0 DUP3 PUSH2 0x41A1 JUMP JUMPDEST PUSH1 0x40 DUP3 ADD SWAP1 POP SWAP2 SWAP1 POP JUMP JUMPDEST PUSH1 0x0 PUSH2 0x35E8 PUSH1 0x26 DUP4 PUSH2 0x3D5B JUMP JUMPDEST SWAP2 POP PUSH2 0x35F3 DUP3 PUSH2 0x41F0 JUMP JUMPDEST PUSH1 0x40 DUP3 ADD SWAP1 POP SWAP2 SWAP1 POP JUMP JUMPDEST PUSH1 0x0 PUSH2 0x360B PUSH1 0x1C DUP4 PUSH2 0x3D5B JUMP JUMPDEST SWAP2 POP PUSH2 0x3616 DUP3 PUSH2 0x423F JUMP JUMPDEST PUSH1 0x20 DUP3 ADD SWAP1 POP SWAP2 SWAP1 POP JUMP JUMPDEST PUSH1 0x0 PUSH2 0x362E PUSH1 0x24 DUP4 PUSH2 0x3D5B JUMP JUMPDEST SWAP2 POP PUSH2 0x3639 DUP3 PUSH2 0x4268 JUMP JUMPDEST PUSH1 0x40 DUP3 ADD SWAP1 POP SWAP2 SWAP1 POP JUMP JUMPDEST PUSH1 0x0 PUSH2 0x3651 PUSH1 0x19 DUP4 PUSH2 0x3D5B JUMP JUMPDEST SWAP2 POP PUSH2 0x365C DUP3 PUSH2 0x42B7 JUMP JUMPDEST PUSH1 0x20 DUP3 ADD SWAP1 POP SWAP2 SWAP1 POP JUMP JUMPDEST PUSH1 0x0 PUSH2 0x3674 PUSH1 0x29 DUP4 PUSH2 0x3D5B JUMP JUMPDEST SWAP2 POP PUSH2 0x367F DUP3 PUSH2 0x42E0 JUMP JUMPDEST PUSH1 0x40 DUP3 ADD SWAP1 POP SWAP2 SWAP1 POP JUMP JUMPDEST PUSH1 0x0 PUSH2 0x3697 PUSH1 0x2E DUP4 PUSH2 0x3D5B JUMP JUMPDEST SWAP2 POP PUSH2 0x36A2 DUP3 PUSH2 0x432F JUMP JUMPDEST PUSH1 0x40 DUP3 ADD SWAP1 POP SWAP2 SWAP1 POP JUMP JUMPDEST PUSH1 0x0 PUSH2 0x36BA PUSH1 0x20 DUP4 PUSH2 0x3D5B JUMP JUMPDEST SWAP2 POP PUSH2 0x36C5 DUP3 PUSH2 0x437E JUMP JUMPDEST PUSH1 0x20 DUP3 ADD SWAP1 POP SWAP2 SWAP1 POP JUMP JUMPDEST PUSH1 0x0 PUSH2 0x36DD PUSH1 0x18 DUP4 PUSH2 0x3D5B JUMP JUMPDEST SWAP2 POP PUSH2 0x36E8 DUP3 PUSH2 0x43A7 JUMP JUMPDEST PUSH1 0x20 DUP3 ADD SWAP1 POP SWAP2 SWAP1 POP JUMP JUMPDEST PUSH1 0x0 PUSH2 0x3700 PUSH1 0x21 DUP4 PUSH2 0x3D5B JUMP JUMPDEST SWAP2 POP PUSH2 0x370B DUP3 PUSH2 0x43D0 JUMP JUMPDEST PUSH1 0x40 DUP3 ADD SWAP1 POP SWAP2 SWAP1 POP JUMP JUMPDEST PUSH1 0x0 PUSH2 0x3723 PUSH1 0x3D DUP4 PUSH2 0x3D5B JUMP JUMPDEST SWAP2 POP PUSH2 0x372E DUP3 PUSH2 0x441F JUMP JUMPDEST PUSH1 0x40 DUP3 ADD SWAP1 POP SWAP2 SWAP1 POP JUMP JUMPDEST PUSH1 0x0 PUSH2 0x3746 PUSH1 0x20 DUP4 PUSH2 0x3D5B JUMP JUMPDEST SWAP2 POP PUSH2 0x3751 DUP3 PUSH2 0x446E JUMP JUMPDEST PUSH1 0x20 DUP3 ADD SWAP1 POP SWAP2 SWAP1 POP JUMP JUMPDEST PUSH1 0x0 PUSH2 0x3769 PUSH1 0x1F DUP4 PUSH2 0x3D5B JUMP JUMPDEST SWAP2 POP PUSH2 0x3774 DUP3 PUSH2 0x4497 JUMP JUMPDEST PUSH1 0x20 DUP3 ADD SWAP1 POP SWAP2 SWAP1 POP JUMP JUMPDEST PUSH1 0x0 PUSH2 0x378C PUSH1 0x1C DUP4 PUSH2 0x3D5B JUMP JUMPDEST SWAP2 POP PUSH2 0x3797 DUP3 PUSH2 0x44C0 JUMP JUMPDEST PUSH1 0x20 DUP3 ADD SWAP1 POP SWAP2 SWAP1 POP JUMP JUMPDEST PUSH1 0xC0 DUP3 ADD PUSH1 0x0 DUP3 ADD MLOAD PUSH2 0x37B8 PUSH1 0x0 DUP6 ADD DUP3 PUSH2 0x3412 JUMP JUMPDEST POP PUSH1 0x20 DUP3 ADD MLOAD PUSH2 0x37CB PUSH1 0x20 DUP6 ADD DUP3 PUSH2 0x381D JUMP JUMPDEST POP PUSH1 0x40 DUP3 ADD MLOAD PUSH2 0x37DE PUSH1 0x40 DUP6 ADD DUP3 PUSH2 0x3403 JUMP JUMPDEST POP PUSH1 0x60 DUP3 ADD MLOAD PUSH2 0x37F1 PUSH1 0x60 DUP6 ADD DUP3 PUSH2 0x3403 JUMP JUMPDEST POP PUSH1 0x80 DUP3 ADD MLOAD PUSH2 0x3804 PUSH1 0x80 DUP6 ADD DUP3 PUSH2 0x381D JUMP JUMPDEST POP PUSH1 0xA0 DUP3 ADD MLOAD PUSH2 0x3817 PUSH1 0xA0 DUP6 ADD DUP3 PUSH2 0x348E JUMP JUMPDEST POP POP POP POP JUMP JUMPDEST PUSH2 0x3826 DUP2 PUSH2 0x3EAE JUMP JUMPDEST DUP3 MSTORE POP POP JUMP JUMPDEST PUSH2 0x3835 DUP2 PUSH2 0x3EAE JUMP JUMPDEST DUP3 MSTORE POP POP JUMP JUMPDEST PUSH1 0x0 PUSH2 0x3847 DUP3 DUP6 PUSH2 0x351E JUMP JUMPDEST SWAP2 POP PUSH2 0x3853 DUP3 DUP5 PUSH2 0x351E JUMP JUMPDEST SWAP2 POP DUP2 SWAP1 POP SWAP4 SWAP3 POP POP POP JUMP JUMPDEST PUSH1 0x0 PUSH1 0x20 DUP3 ADD SWAP1 POP PUSH2 0x3874 PUSH1 0x0 DUP4 ADD DUP5 PUSH2 0x3421 JUMP JUMPDEST SWAP3 SWAP2 POP POP JUMP JUMPDEST PUSH1 0x0 PUSH1 0x60 DUP3 ADD SWAP1 POP PUSH2 0x388F PUSH1 0x0 DUP4 ADD DUP7 PUSH2 0x3421 JUMP JUMPDEST PUSH2 0x389C PUSH1 0x20 DUP4 ADD DUP6 PUSH2 0x33F4 JUMP JUMPDEST PUSH2 0x38A9 PUSH1 0x40 DUP4 ADD DUP5 PUSH2 0x382C JUMP JUMPDEST SWAP5 SWAP4 POP POP POP POP JUMP JUMPDEST PUSH1 0x0 PUSH1 0x60 DUP3 ADD SWAP1 POP PUSH2 0x38C6 PUSH1 0x0 DUP4 ADD DUP7 PUSH2 0x3421 JUMP JUMPDEST PUSH2 0x38D3 PUSH1 0x20 DUP4 ADD DUP6 PUSH2 0x3421 JUMP JUMPDEST PUSH2 0x38E0 PUSH1 0x40 DUP4 ADD DUP5 PUSH2 0x382C JUMP JUMPDEST SWAP5 SWAP4 POP POP POP POP JUMP JUMPDEST PUSH1 0x0 PUSH1 0x80 DUP3 ADD SWAP1 POP PUSH2 0x38FD PUSH1 0x0 DUP4 ADD DUP8 PUSH2 0x3421 JUMP JUMPDEST PUSH2 0x390A PUSH1 0x20 DUP4 ADD DUP7 PUSH2 0x3421 JUMP JUMPDEST PUSH2 0x3917 PUSH1 0x40 DUP4 ADD DUP6 PUSH2 0x382C JUMP JUMPDEST DUP2 DUP2 SUB PUSH1 0x60 DUP4 ADD MSTORE PUSH2 0x3929 DUP2 DUP5 PUSH2 0x34AC JUMP JUMPDEST SWAP1 POP SWAP6 SWAP5 POP POP POP POP POP JUMP JUMPDEST PUSH1 0x0 PUSH1 0xA0 DUP3 ADD SWAP1 POP PUSH2 0x3949 PUSH1 0x0 DUP4 ADD DUP9 PUSH2 0x3421 JUMP JUMPDEST PUSH2 0x3956 PUSH1 0x20 DUP4 ADD DUP8 PUSH2 0x382C JUMP JUMPDEST PUSH2 0x3963 PUSH1 0x40 DUP4 ADD DUP7 PUSH2 0x33F4 JUMP JUMPDEST PUSH2 0x3970 PUSH1 0x60 DUP4 ADD DUP6 PUSH2 0x33F4 JUMP JUMPDEST PUSH2 0x397D PUSH1 0x80 DUP4 ADD DUP5 PUSH2 0x382C JUMP JUMPDEST SWAP7 SWAP6 POP POP POP POP POP POP JUMP JUMPDEST PUSH1 0x0 PUSH1 0xA0 DUP3 ADD SWAP1 POP PUSH2 0x399C PUSH1 0x0 DUP4 ADD DUP9 PUSH2 0x3421 JUMP JUMPDEST PUSH2 0x39A9 PUSH1 0x20 DUP4 ADD DUP8 PUSH2 0x382C JUMP JUMPDEST PUSH2 0x39B6 PUSH1 0x40 DUP4 ADD DUP7 PUSH2 0x3421 JUMP JUMPDEST PUSH2 0x39C3 PUSH1 0x60 DUP4 ADD DUP6 PUSH2 0x3421 JUMP JUMPDEST PUSH2 0x39D0 PUSH1 0x80 DUP4 ADD DUP5 PUSH2 0x382C JUMP JUMPDEST SWAP7 SWAP6 POP POP POP POP POP POP JUMP JUMPDEST PUSH1 0x0 PUSH1 0x20 DUP3 ADD SWAP1 POP DUP2 DUP2 SUB PUSH1 0x0 DUP4 ADD MSTORE PUSH2 0x39F4 DUP2 DUP5 PUSH2 0x3430 JUMP JUMPDEST SWAP1 POP SWAP3 SWAP2 POP POP JUMP JUMPDEST PUSH1 0x0 PUSH1 0x20 DUP3 ADD SWAP1 POP PUSH2 0x3A11 PUSH1 0x0 DUP4 ADD DUP5 PUSH2 0x349D JUMP JUMPDEST SWAP3 SWAP2 POP POP JUMP JUMPDEST PUSH1 0x0 PUSH1 0x20 DUP3 ADD SWAP1 POP DUP2 DUP2 SUB PUSH1 0x0 DUP4 ADD MSTORE PUSH2 0x3A31 DUP2 DUP5 PUSH2 0x34E5 JUMP JUMPDEST SWAP1 POP SWAP3 SWAP2 POP POP JUMP JUMPDEST PUSH1 0x0 PUSH1 0x20 DUP3 ADD SWAP1 POP DUP2 DUP2 SUB PUSH1 0x0 DUP4 ADD MSTORE PUSH2 0x3A52 DUP2 PUSH2 0x354F JUMP JUMPDEST SWAP1 POP SWAP2 SWAP1 POP JUMP JUMPDEST PUSH1 0x0 PUSH1 0x20 DUP3 ADD SWAP1 POP DUP2 DUP2 SUB PUSH1 0x0 DUP4 ADD MSTORE PUSH2 0x3A72 DUP2 PUSH2 0x3572 JUMP JUMPDEST SWAP1 POP SWAP2 SWAP1 POP JUMP JUMPDEST PUSH1 0x0 PUSH1 0x20 DUP3 ADD SWAP1 POP DUP2 DUP2 SUB PUSH1 0x0 DUP4 ADD MSTORE PUSH2 0x3A92 DUP2 PUSH2 0x3595 JUMP JUMPDEST SWAP1 POP SWAP2 SWAP1 POP JUMP JUMPDEST PUSH1 0x0 PUSH1 0x20 DUP3 ADD SWAP1 POP DUP2 DUP2 SUB PUSH1 0x0 DUP4 ADD MSTORE PUSH2 0x3AB2 DUP2 PUSH2 0x35B8 JUMP JUMPDEST SWAP1 POP SWAP2 SWAP1 POP JUMP JUMPDEST PUSH1 0x0 PUSH1 0x20 DUP3 ADD SWAP1 POP DUP2 DUP2 SUB PUSH1 0x0 DUP4 ADD MSTORE PUSH2 0x3AD2 DUP2 PUSH2 0x35DB JUMP JUMPDEST SWAP1 POP SWAP2 SWAP1 POP JUMP JUMPDEST PUSH1 0x0 PUSH1 0x20 DUP3 ADD SWAP1 POP DUP2 DUP2 SUB PUSH1 0x0 DUP4 ADD MSTORE PUSH2 0x3AF2 DUP2 PUSH2 0x35FE JUMP JUMPDEST SWAP1 POP SWAP2 SWAP1 POP JUMP JUMPDEST PUSH1 0x0 PUSH1 0x20 DUP3 ADD SWAP1 POP DUP2 DUP2 SUB PUSH1 0x0 DUP4 ADD MSTORE PUSH2 0x3B12 DUP2 PUSH2 0x3621 JUMP JUMPDEST SWAP1 POP SWAP2 SWAP1 POP JUMP JUMPDEST PUSH1 0x0 PUSH1 0x20 DUP3 ADD SWAP1 POP DUP2 DUP2 SUB PUSH1 0x0 DUP4 ADD MSTORE PUSH2 0x3B32 DUP2 PUSH2 0x3644 JUMP JUMPDEST SWAP1 POP SWAP2 SWAP1 POP JUMP JUMPDEST PUSH1 0x0 PUSH1 0x20 DUP3 ADD SWAP1 POP DUP2 DUP2 SUB PUSH1 0x0 DUP4 ADD MSTORE PUSH2 0x3B52 DUP2 PUSH2 0x3667 JUMP JUMPDEST SWAP1 POP SWAP2 SWAP1 POP JUMP JUMPDEST PUSH1 0x0 PUSH1 0x20 DUP3 ADD SWAP1 POP DUP2 DUP2 SUB PUSH1 0x0 DUP4 ADD MSTORE PUSH2 0x3B72 DUP2 PUSH2 0x368A JUMP JUMPDEST SWAP1 POP SWAP2 SWAP1 POP JUMP JUMPDEST PUSH1 0x0 PUSH1 0x20 DUP3 ADD SWAP1 POP DUP2 DUP2 SUB PUSH1 0x0 DUP4 ADD MSTORE PUSH2 0x3B92 DUP2 PUSH2 0x36AD JUMP JUMPDEST SWAP1 POP SWAP2 SWAP1 POP JUMP JUMPDEST PUSH1 0x0 PUSH1 0x20 DUP3 ADD SWAP1 POP DUP2 DUP2 SUB PUSH1 0x0 DUP4 ADD MSTORE PUSH2 0x3BB2 DUP2 PUSH2 0x36D0 JUMP JUMPDEST SWAP1 POP SWAP2 SWAP1 POP JUMP JUMPDEST PUSH1 0x0 PUSH1 0x20 DUP3 ADD SWAP1 POP DUP2 DUP2 SUB PUSH1 0x0 DUP4 ADD MSTORE PUSH2 0x3BD2 DUP2 PUSH2 0x36F3 JUMP JUMPDEST SWAP1 POP SWAP2 SWAP1 POP JUMP JUMPDEST PUSH1 0x0 PUSH1 0x20 DUP3 ADD SWAP1 POP DUP2 DUP2 SUB PUSH1 0x0 DUP4 ADD MSTORE PUSH2 0x3BF2 DUP2 PUSH2 0x3716 JUMP JUMPDEST SWAP1 POP SWAP2 SWAP1 POP JUMP JUMPDEST PUSH1 0x0 PUSH1 0x20 DUP3 ADD SWAP1 POP DUP2 DUP2 SUB PUSH1 0x0 DUP4 ADD MSTORE PUSH2 0x3C12 DUP2 PUSH2 0x3739 JUMP JUMPDEST SWAP1 POP SWAP2 SWAP1 POP JUMP JUMPDEST PUSH1 0x0 PUSH1 0x20 DUP3 ADD SWAP1 POP DUP2 DUP2 SUB PUSH1 0x0 DUP4 ADD MSTORE PUSH2 0x3C32 DUP2 PUSH2 0x375C JUMP JUMPDEST SWAP1 POP SWAP2 SWAP1 POP JUMP JUMPDEST PUSH1 0x0 PUSH1 0x20 DUP3 ADD SWAP1 POP DUP2 DUP2 SUB PUSH1 0x0 DUP4 ADD MSTORE PUSH2 0x3C52 DUP2 PUSH2 0x377F JUMP JUMPDEST SWAP1 POP SWAP2 SWAP1 POP JUMP JUMPDEST PUSH1 0x0 PUSH1 0x20 DUP3 ADD SWAP1 POP PUSH2 0x3C6E PUSH1 0x0 DUP4 ADD DUP5 PUSH2 0x382C JUMP JUMPDEST SWAP3 SWAP2 POP POP JUMP JUMPDEST PUSH1 0x0 PUSH2 0x3C7E PUSH2 0x3C8F JUMP JUMPDEST SWAP1 POP PUSH2 0x3C8A DUP3 DUP3 PUSH2 0x3F62 JUMP JUMPDEST SWAP2 SWAP1 POP JUMP JUMPDEST PUSH1 0x0 PUSH1 0x40 MLOAD SWAP1 POP SWAP1 JUMP JUMPDEST PUSH1 0x0 PUSH8 0xFFFFFFFFFFFFFFFF DUP3 GT ISZERO PUSH2 0x3CB4 JUMPI PUSH2 0x3CB3 PUSH2 0x409A JUMP JUMPDEST JUMPDEST PUSH2 0x3CBD DUP3 PUSH2 0x40C9 JUMP JUMPDEST SWAP1 POP PUSH1 0x20 DUP2 ADD SWAP1 POP SWAP2 SWAP1 POP JUMP JUMPDEST PUSH1 0x0 PUSH8 0xFFFFFFFFFFFFFFFF DUP3 GT ISZERO PUSH2 0x3CE5 JUMPI PUSH2 0x3CE4 PUSH2 0x409A JUMP JUMPDEST JUMPDEST PUSH2 0x3CEE DUP3 PUSH2 0x40C9 JUMP JUMPDEST SWAP1 POP PUSH1 0x20 DUP2 ADD SWAP1 POP SWAP2 SWAP1 POP JUMP JUMPDEST PUSH1 0x0 DUP2 SWAP1 POP PUSH1 0x20 DUP3 ADD SWAP1 POP SWAP2 SWAP1 POP JUMP JUMPDEST PUSH1 0x0 DUP2 MLOAD SWAP1 POP SWAP2 SWAP1 POP JUMP JUMPDEST PUSH1 0x0 DUP2 MLOAD SWAP1 POP SWAP2 SWAP1 POP JUMP JUMPDEST PUSH1 0x0 DUP2 MLOAD SWAP1 POP SWAP2 SWAP1 POP JUMP JUMPDEST PUSH1 0x0 PUSH1 0x20 DUP3 ADD SWAP1 POP SWAP2 SWAP1 POP JUMP JUMPDEST PUSH1 0x0 DUP3 DUP3 MSTORE PUSH1 0x20 DUP3 ADD SWAP1 POP SWAP3 SWAP2 POP POP JUMP JUMPDEST PUSH1 0x0 DUP3 DUP3 MSTORE PUSH1 0x20 DUP3 ADD SWAP1 POP SWAP3 SWAP2 POP POP JUMP JUMPDEST PUSH1 0x0 DUP3 DUP3 MSTORE PUSH1 0x20 DUP3 ADD SWAP1 POP SWAP3 SWAP2 POP POP JUMP JUMPDEST PUSH1 0x0 DUP2 SWAP1 POP SWAP3 SWAP2 POP POP JUMP JUMPDEST PUSH1 0x0 PUSH2 0x3D82 DUP3 PUSH2 0x3EAE JUMP JUMPDEST SWAP2 POP PUSH2 0x3D8D DUP4 PUSH2 0x3EAE JUMP JUMPDEST SWAP3 POP DUP3 PUSH32 0xFFFFFFFFFFFFFFFFFFFFFFFFFFFFFFFFFFFFFFFFFFFFFFFFFFFFFFFFFFFFFFFF SUB DUP3 GT ISZERO PUSH2 0x3DC2 JUMPI PUSH2 0x3DC1 PUSH2 0x400D JUMP JUMPDEST JUMPDEST DUP3 DUP3 ADD SWAP1 POP SWAP3 SWAP2 POP POP JUMP JUMPDEST PUSH1 0x0 PUSH2 0x3DD8 DUP3 PUSH2 0x3EAE JUMP JUMPDEST SWAP2 POP PUSH2 0x3DE3 DUP4 PUSH2 0x3EAE JUMP JUMPDEST SWAP3 POP DUP3 PUSH2 0x3DF3 JUMPI PUSH2 0x3DF2 PUSH2 0x403C JUMP JUMPDEST JUMPDEST DUP3 DUP3 DIV SWAP1 POP SWAP3 SWAP2 POP POP JUMP JUMPDEST PUSH1 0x0 PUSH2 0x3E09 DUP3 PUSH2 0x3EAE JUMP JUMPDEST SWAP2 POP PUSH2 0x3E14 DUP4 PUSH2 0x3EAE JUMP JUMPDEST SWAP3 POP DUP3 DUP3 LT ISZERO PUSH2 0x3E27 JUMPI PUSH2 0x3E26 PUSH2 0x400D JUMP JUMPDEST JUMPDEST DUP3 DUP3 SUB SWAP1 POP SWAP3 SWAP2 POP POP JUMP JUMPDEST PUSH1 0x0 PUSH2 0x3E3D DUP3 PUSH2 0x3E8E JUMP JUMPDEST SWAP1 POP SWAP2 SWAP1 POP JUMP JUMPDEST PUSH1 0x0 PUSH2 0x3E4F DUP3 PUSH2 0x3E8E JUMP JUMPDEST SWAP1 POP SWAP2 SWAP1 POP JUMP JUMPDEST PUSH1 0x0 DUP2 ISZERO ISZERO SWAP1 POP SWAP2 SWAP1 POP JUMP JUMPDEST PUSH1 0x0 PUSH32 0xFFFFFFFF00000000000000000000000000000000000000000000000000000000 DUP3 AND SWAP1 POP SWAP2 SWAP1 POP JUMP JUMPDEST PUSH1 0x0 PUSH20 0xFFFFFFFFFFFFFFFFFFFFFFFFFFFFFFFFFFFFFFFF DUP3 AND SWAP1 POP SWAP2 SWAP1 POP JUMP JUMPDEST PUSH1 0x0 DUP2 SWAP1 POP SWAP2 SWAP1 POP JUMP JUMPDEST PUSH1 0x0 PUSH2 0x3EC3 DUP3 PUSH2 0x3ECA JUMP JUMPDEST SWAP1 POP SWAP2 SWAP1 POP JUMP JUMPDEST PUSH1 0x0 PUSH2 0x3ED5 DUP3 PUSH2 0x3EDC JUMP JUMPDEST SWAP1 POP SWAP2 SWAP1 POP JUMP JUMPDEST PUSH1 0x0 PUSH2 0x3EE7 DUP3 PUSH2 0x3E8E JUMP JUMPDEST SWAP1 POP SWAP2 SWAP1 POP JUMP JUMPDEST DUP3 DUP2 DUP4 CALLDATACOPY PUSH1 0x0 DUP4 DUP4 ADD MSTORE POP POP POP JUMP JUMPDEST PUSH1 0x0 JUMPDEST DUP4 DUP2 LT ISZERO PUSH2 0x3F1B JUMPI DUP1 DUP3 ADD MLOAD DUP2 DUP5 ADD MSTORE PUSH1 0x20 DUP2 ADD SWAP1 POP PUSH2 0x3F00 JUMP JUMPDEST DUP4 DUP2 GT ISZERO PUSH2 0x3F2A JUMPI PUSH1 0x0 DUP5 DUP5 ADD MSTORE JUMPDEST POP POP POP POP JUMP JUMPDEST PUSH1 0x0 PUSH1 0x2 DUP3 DIV SWAP1 POP PUSH1 0x1 DUP3 AND DUP1 PUSH2 0x3F48 JUMPI PUSH1 0x7F DUP3 AND SWAP2 POP JUMPDEST PUSH1 0x20 DUP3 LT DUP2 EQ ISZERO PUSH2 0x3F5C JUMPI PUSH2 0x3F5B PUSH2 0x406B JUMP JUMPDEST JUMPDEST POP SWAP2 SWAP1 POP JUMP JUMPDEST PUSH2 0x3F6B DUP3 PUSH2 0x40C9 JUMP JUMPDEST DUP2 ADD DUP2 DUP2 LT PUSH8 0xFFFFFFFFFFFFFFFF DUP3 GT OR ISZERO PUSH2 0x3F8A JUMPI PUSH2 0x3F89 PUSH2 0x409A JUMP JUMPDEST JUMPDEST DUP1 PUSH1 0x40 MSTORE POP POP POP JUMP JUMPDEST PUSH1 0x0 PUSH2 0x3F9E DUP3 PUSH2 0x3EAE JUMP JUMPDEST SWAP2 POP PUSH32 0xFFFFFFFFFFFFFFFFFFFFFFFFFFFFFFFFFFFFFFFFFFFFFFFFFFFFFFFFFFFFFFFF DUP3 EQ ISZERO PUSH2 0x3FD1 JUMPI PUSH2 0x3FD0 PUSH2 0x400D JUMP JUMPDEST JUMPDEST PUSH1 0x1 DUP3 ADD SWAP1 POP SWAP2 SWAP1 POP JUMP JUMPDEST PUSH1 0x0 PUSH2 0x3FE7 DUP3 PUSH2 0x3EAE JUMP JUMPDEST SWAP2 POP PUSH2 0x3FF2 DUP4 PUSH2 0x3EAE JUMP JUMPDEST SWAP3 POP DUP3 PUSH2 0x4002 JUMPI PUSH2 0x4001 PUSH2 0x403C JUMP JUMPDEST JUMPDEST DUP3 DUP3 MOD SWAP1 POP SWAP3 SWAP2 POP POP JUMP JUMPDEST PUSH32 0x4E487B7100000000000000000000000000000000000000000000000000000000 PUSH1 0x0 MSTORE PUSH1 0x11 PUSH1 0x4 MSTORE PUSH1 0x24 PUSH1 0x0 REVERT JUMPDEST PUSH32 0x4E487B7100000000000000000000000000000000000000000000000000000000 PUSH1 0x0 MSTORE PUSH1 0x12 PUSH1 0x4 MSTORE PUSH1 0x24 PUSH1 0x0 REVERT JUMPDEST PUSH32 0x4E487B7100000000000000000000000000000000000000000000000000000000 PUSH1 0x0 MSTORE PUSH1 0x22 PUSH1 0x4 MSTORE PUSH1 0x24 PUSH1 0x0 REVERT JUMPDEST PUSH32 0x4E487B7100000000000000000000000000000000000000000000000000000000 PUSH1 0x0 MSTORE PUSH1 0x41 PUSH1 0x4 MSTORE PUSH1 0x24 PUSH1 0x0 REVERT JUMPDEST PUSH1 0x0 PUSH1 0x1F NOT PUSH1 0x1F DUP4 ADD AND SWAP1 POP SWAP2 SWAP1 POP JUMP JUMPDEST PUSH32 0x4552433732313A2063616C6C6572206973206E6F7420746F6B656E206F776E65 PUSH1 0x0 DUP3 ADD MSTORE PUSH32 0x72206F7220617070726F76656400000000000000000000000000000000000000 PUSH1 0x20 DUP3 ADD MSTORE POP JUMP JUMPDEST PUSH32 0x436F756E7465723A2064656372656D656E74206F766572666C6F770000000000 PUSH1 0x0 DUP3 ADD MSTORE POP JUMP JUMPDEST PUSH32 0x4552433732313A207472616E7366657220746F206E6F6E204552433732315265 PUSH1 0x0 DUP3 ADD MSTORE PUSH32 0x63656976657220696D706C656D656E7465720000000000000000000000000000 PUSH1 0x20 DUP3 ADD MSTORE POP JUMP JUMPDEST PUSH32 0x4552433732313A207472616E736665722066726F6D20696E636F727265637420 PUSH1 0x0 DUP3 ADD MSTORE PUSH32 0x6F776E6572000000000000000000000000000000000000000000000000000000 PUSH1 0x20 DUP3 ADD MSTORE POP JUMP JUMPDEST PUSH32 0x4E6F7420656E6F75676820657468657220746F20636F7665722061736B696E67 PUSH1 0x0 DUP3 ADD MSTORE PUSH32 0x2070726963650000000000000000000000000000000000000000000000000000 PUSH1 0x20 DUP3 ADD MSTORE POP JUMP JUMPDEST PUSH32 0x4552433732313A20746F6B656E20616C7265616479206D696E74656400000000 PUSH1 0x0 DUP3 ADD MSTORE POP JUMP JUMPDEST PUSH32 0x4552433732313A207472616E7366657220746F20746865207A65726F20616464 PUSH1 0x0 DUP3 ADD MSTORE PUSH32 0x7265737300000000000000000000000000000000000000000000000000000000 PUSH1 0x20 DUP3 ADD MSTORE POP JUMP JUMPDEST PUSH32 0x4552433732313A20617070726F766520746F2063616C6C657200000000000000 PUSH1 0x0 DUP3 ADD MSTORE POP JUMP JUMPDEST PUSH32 0x4552433732313A2061646472657373207A65726F206973206E6F742061207661 PUSH1 0x0 DUP3 ADD MSTORE PUSH32 0x6C6964206F776E65720000000000000000000000000000000000000000000000 PUSH1 0x20 DUP3 ADD MSTORE POP JUMP JUMPDEST PUSH32 0x45524337323155524953746F726167653A2055524920736574206F66206E6F6E PUSH1 0x0 DUP3 ADD MSTORE PUSH32 0x6578697374656E7420746F6B656E000000000000000000000000000000000000 PUSH1 0x20 DUP3 ADD MSTORE POP JUMP JUMPDEST PUSH32 0x4552433732313A206D696E7420746F20746865207A65726F2061646472657373 PUSH1 0x0 DUP3 ADD MSTORE POP JUMP JUMPDEST PUSH32 0x4552433732313A20696E76616C696420746F6B656E2049440000000000000000 PUSH1 0x0 DUP3 ADD MSTORE POP JUMP JUMPDEST PUSH32 0x4552433732313A20617070726F76616C20746F2063757272656E74206F776E65 PUSH1 0x0 DUP3 ADD MSTORE PUSH32 0x7200000000000000000000000000000000000000000000000000000000000000 PUSH1 0x20 DUP3 ADD MSTORE POP JUMP JUMPDEST PUSH32 0x4552433732313A20617070726F76652063616C6C6572206973206E6F7420746F PUSH1 0x0 DUP3 ADD MSTORE PUSH32 0x6B656E206F776E6572206F7220617070726F76656420666F7220616C6C000000 PUSH1 0x20 DUP3 ADD MSTORE POP JUMP JUMPDEST PUSH32 0x4E6F7420656E6F75676820657468657220666F72206C697374696E6720666565 PUSH1 0x0 DUP3 ADD MSTORE POP JUMP JUMPDEST PUSH32 0x5265656E7472616E637947756172643A207265656E7472616E742063616C6C00 PUSH1 0x0 DUP3 ADD MSTORE POP JUMP JUMPDEST PUSH32 0x5072696365206D757374206265206174206C6561737420312077656900000000 PUSH1 0x0 DUP3 ADD MSTORE POP JUMP JUMPDEST PUSH2 0x44F2 DUP2 PUSH2 0x3E32 JUMP JUMPDEST DUP2 EQ PUSH2 0x44FD JUMPI PUSH1 0x0 DUP1 REVERT JUMPDEST POP JUMP JUMPDEST PUSH2 0x4509 DUP2 PUSH2 0x3E56 JUMP JUMPDEST DUP2 EQ PUSH2 0x4514 JUMPI PUSH1 0x0 DUP1 REVERT JUMPDEST POP JUMP JUMPDEST PUSH2 0x4520 DUP2 PUSH2 0x3E62 JUMP JUMPDEST DUP2 EQ PUSH2 0x452B JUMPI PUSH1 0x0 DUP1 REVERT JUMPDEST POP JUMP JUMPDEST PUSH2 0x4537 DUP2 PUSH2 0x3EAE JUMP JUMPDEST DUP2 EQ PUSH2 0x4542 JUMPI PUSH1 0x0 DUP1 REVERT JUMPDEST POP JUMP INVALID LOG2 PUSH5 0x6970667358 0x22 SLT KECCAK256 0xB7 SHL CODECOPY SWAP12 JUMPI SWAP1 DUP7 0x4A 0xAA PUSH3 0xD56A35 EXTCODESIZE 0xC5 0xEF PUSH27 0x705FB1DAD2978735DE399EA606EE3764736F6C6343000804003300 "
				},
				"gasEstimates": {
					"creation": {
						"codeDepositCost": "3557400",
						"executionCost": "infinite",
						"totalCost": "infinite"
					},
					"external": {
						"LISTING_FEE()": "1196",
						"approve(address,uint256)": "infinite",
						"balanceOf(address)": "1646",
						"buyNft(address,uint256)": "infinite",
						"collaboratotOf(uint256)": "1682",
						"getApproved(uint256)": "2679",
						"getListedNfts()": "infinite",
						"getListingFee()": "1203",
						"getMyListedNfts()": "infinite",
						"getMyNfts()": "infinite",
						"isApprovedForAll(address,address)": "infinite",
						"listNft(address,uint256,uint256)": "infinite",
						"mint(address,address,uint256,string)": "infinite",
						"name()": "infinite",
						"ownerOf(uint256)": "1704",
						"resellNft(address,uint256,uint256)": "infinite",
						"safeTransferFrom(address,address,uint256)": "infinite",
						"safeTransferFrom(address,address,uint256,bytes)": "infinite",
						"setApprovalForAll(address,bool)": "infinite",
						"supportsInterface(bytes4)": "797",
						"symbol()": "infinite",
						"tokenURI(uint256)": "2146",
						"transferFrom(address,address,uint256)": "infinite"
					},
					"internal": {
						"_afterTokenTransfer(address,address,uint256)": "15",
						"_approve(address,uint256)": "infinite",
						"_baseURI()": "infinite",
						"_beforeTokenTransfer(address,address,uint256)": "15",
						"_burn(uint256)": "infinite",
						"_checkOnERC721Received(address,address,uint256,bytes memory)": "infinite",
						"_exists(uint256)": "969",
						"_isApprovedOrOwner(address,uint256)": "infinite",
						"_mint(address,address,uint256)": "infinite",
						"_requireMinted(uint256)": "infinite",
						"_safeMint(address,address,uint256)": "infinite",
						"_safeMint(address,address,uint256,bytes memory)": "infinite",
						"_safeTransfer(address,address,uint256,bytes memory)": "infinite",
						"_setApprovalForAll(address,address,bool)": "infinite",
						"_setTokenURI(uint256,string memory)": "infinite",
						"_transfer(address,address,uint256)": "infinite"
					}
				},
				"methodIdentifiers": {
					"LISTING_FEE()": "2b86ae38",
					"approve(address,uint256)": "095ea7b3",
					"balanceOf(address)": "70a08231",
					"buyNft(address,uint256)": "4ddf4f8f",
					"collaboratotOf(uint256)": "52e04825",
					"getApproved(uint256)": "081812fc",
					"getListedNfts()": "8d6cb3fb",
					"getListingFee()": "b8fe6abe",
					"getMyListedNfts()": "1f4cc4db",
					"getMyNfts()": "047b07bf",
					"isApprovedForAll(address,address)": "e985e9c5",
					"listNft(address,uint256,uint256)": "c922b17c",
					"mint(address,address,uint256,string)": "b85cbc79",
					"name()": "06fdde03",
					"ownerOf(uint256)": "6352211e",
					"resellNft(address,uint256,uint256)": "34f5b624",
					"safeTransferFrom(address,address,uint256)": "42842e0e",
					"safeTransferFrom(address,address,uint256,bytes)": "b88d4fde",
					"setApprovalForAll(address,bool)": "a22cb465",
					"supportsInterface(bytes4)": "01ffc9a7",
					"symbol()": "95d89b41",
					"tokenURI(uint256)": "c87b56dd",
					"transferFrom(address,address,uint256)": "23b872dd"
				}
			},
			"storageLayout": {
				"storage": [
					{
						"astId": 10,
						"contract": "contracts/marketplace.sol:marketplace",
						"label": "_status",
						"offset": 0,
						"slot": "0",
						"type": "t_uint256"
					},
					{
						"astId": 863,
						"contract": "contracts/marketplace.sol:marketplace",
						"label": "_name",
						"offset": 0,
						"slot": "1",
						"type": "t_string_storage"
					},
					{
						"astId": 865,
						"contract": "contracts/marketplace.sol:marketplace",
						"label": "_symbol",
						"offset": 0,
						"slot": "2",
						"type": "t_string_storage"
					},
					{
						"astId": 869,
						"contract": "contracts/marketplace.sol:marketplace",
						"label": "_owners",
						"offset": 0,
						"slot": "3",
						"type": "t_mapping(t_uint256,t_address)"
					},
					{
						"astId": 873,
						"contract": "contracts/marketplace.sol:marketplace",
						"label": "_collaborators",
						"offset": 0,
						"slot": "4",
						"type": "t_mapping(t_uint256,t_address)"
					},
					{
						"astId": 877,
						"contract": "contracts/marketplace.sol:marketplace",
						"label": "_balances",
						"offset": 0,
						"slot": "5",
						"type": "t_mapping(t_address,t_uint256)"
					},
					{
						"astId": 881,
						"contract": "contracts/marketplace.sol:marketplace",
						"label": "_tokenApprovals",
						"offset": 0,
						"slot": "6",
						"type": "t_mapping(t_uint256,t_address)"
					},
					{
						"astId": 887,
						"contract": "contracts/marketplace.sol:marketplace",
						"label": "_operatorApprovals",
						"offset": 0,
						"slot": "7",
						"type": "t_mapping(t_address,t_mapping(t_address,t_bool))"
					},
					{
						"astId": 891,
						"contract": "contracts/marketplace.sol:marketplace",
						"label": "_tokenURIs",
						"offset": 0,
						"slot": "8",
						"type": "t_mapping(t_uint256,t_string_storage)"
					},
					{
						"astId": 894,
						"contract": "contracts/marketplace.sol:marketplace",
						"label": "_nftsSold",
						"offset": 0,
						"slot": "9",
						"type": "t_struct(Counter)523_storage"
					},
					{
						"astId": 897,
						"contract": "contracts/marketplace.sol:marketplace",
						"label": "_nftCount",
						"offset": 0,
						"slot": "10",
						"type": "t_struct(Counter)523_storage"
					},
					{
						"astId": 900,
						"contract": "contracts/marketplace.sol:marketplace",
						"label": "LISTING_FEE",
						"offset": 0,
						"slot": "11",
						"type": "t_uint256"
					},
					{
						"astId": 902,
						"contract": "contracts/marketplace.sol:marketplace",
						"label": "_marketOwner",
						"offset": 0,
						"slot": "12",
						"type": "t_address_payable"
					},
					{
						"astId": 907,
						"contract": "contracts/marketplace.sol:marketplace",
						"label": "_idToNFT",
						"offset": 0,
						"slot": "13",
						"type": "t_mapping(t_uint256,t_struct(NFT)920_storage)"
					}
				],
				"types": {
					"t_address": {
						"encoding": "inplace",
						"label": "address",
						"numberOfBytes": "20"
					},
					"t_address_payable": {
						"encoding": "inplace",
						"label": "address payable",
						"numberOfBytes": "20"
					},
					"t_bool": {
						"encoding": "inplace",
						"label": "bool",
						"numberOfBytes": "1"
					},
					"t_mapping(t_address,t_bool)": {
						"encoding": "mapping",
						"key": "t_address",
						"label": "mapping(address => bool)",
						"numberOfBytes": "32",
						"value": "t_bool"
					},
					"t_mapping(t_address,t_mapping(t_address,t_bool))": {
						"encoding": "mapping",
						"key": "t_address",
						"label": "mapping(address => mapping(address => bool))",
						"numberOfBytes": "32",
						"value": "t_mapping(t_address,t_bool)"
					},
					"t_mapping(t_address,t_uint256)": {
						"encoding": "mapping",
						"key": "t_address",
						"label": "mapping(address => uint256)",
						"numberOfBytes": "32",
						"value": "t_uint256"
					},
					"t_mapping(t_uint256,t_address)": {
						"encoding": "mapping",
						"key": "t_uint256",
						"label": "mapping(uint256 => address)",
						"numberOfBytes": "32",
						"value": "t_address"
					},
					"t_mapping(t_uint256,t_string_storage)": {
						"encoding": "mapping",
						"key": "t_uint256",
						"label": "mapping(uint256 => string)",
						"numberOfBytes": "32",
						"value": "t_string_storage"
					},
					"t_mapping(t_uint256,t_struct(NFT)920_storage)": {
						"encoding": "mapping",
						"key": "t_uint256",
						"label": "mapping(uint256 => struct marketplace.NFT)",
						"numberOfBytes": "32",
						"value": "t_struct(NFT)920_storage"
					},
					"t_string_storage": {
						"encoding": "bytes",
						"label": "string",
						"numberOfBytes": "32"
					},
					"t_struct(Counter)523_storage": {
						"encoding": "inplace",
						"label": "struct Counters.Counter",
						"members": [
							{
								"astId": 522,
								"contract": "contracts/marketplace.sol:marketplace",
								"label": "_value",
								"offset": 0,
								"slot": "0",
								"type": "t_uint256"
							}
						],
						"numberOfBytes": "32"
					},
					"t_struct(NFT)920_storage": {
						"encoding": "inplace",
						"label": "struct marketplace.NFT",
						"members": [
							{
								"astId": 909,
								"contract": "contracts/marketplace.sol:marketplace",
								"label": "nftContract",
								"offset": 0,
								"slot": "0",
								"type": "t_address"
							},
							{
								"astId": 911,
								"contract": "contracts/marketplace.sol:marketplace",
								"label": "tokenId",
								"offset": 0,
								"slot": "1",
								"type": "t_uint256"
							},
							{
								"astId": 913,
								"contract": "contracts/marketplace.sol:marketplace",
								"label": "seller",
								"offset": 0,
								"slot": "2",
								"type": "t_address_payable"
							},
							{
								"astId": 915,
								"contract": "contracts/marketplace.sol:marketplace",
								"label": "owner",
								"offset": 0,
								"slot": "3",
								"type": "t_address_payable"
							},
							{
								"astId": 917,
								"contract": "contracts/marketplace.sol:marketplace",
								"label": "price",
								"offset": 0,
								"slot": "4",
								"type": "t_uint256"
							},
							{
								"astId": 919,
								"contract": "contracts/marketplace.sol:marketplace",
								"label": "listed",
								"offset": 0,
								"slot": "5",
								"type": "t_bool"
							}
						],
						"numberOfBytes": "192"
					},
					"t_uint256": {
						"encoding": "inplace",
						"label": "uint256",
						"numberOfBytes": "32"
					}
				}
			},
			"userdoc": {
				"kind": "user",
				"methods": {},
				"version": 1
			}
		}
	}
}