{
	"contracts/nft.sol": {
		"nft": {
			"abi": [
				{
					"inputs": [
						{
							"internalType": "string",
							"name": "name_",
							"type": "string"
						},
						{
							"internalType": "string",
							"name": "symbol_",
							"type": "string"
						}
					],
					"stateMutability": "nonpayable",
					"type": "constructor"
				},
				{
					"anonymous": false,
					"inputs": [
						{
							"indexed": true,
							"internalType": "address",
							"name": "owner",
							"type": "address"
						},
						{
							"indexed": true,
							"internalType": "address",
							"name": "approved",
							"type": "address"
						},
						{
							"indexed": true,
							"internalType": "uint256",
							"name": "tokenId",
							"type": "uint256"
						}
					],
					"name": "Approval",
					"type": "event"
				},
				{
					"anonymous": false,
					"inputs": [
						{
							"indexed": true,
							"internalType": "address",
							"name": "owner",
							"type": "address"
						},
						{
							"indexed": true,
							"internalType": "address",
							"name": "operator",
							"type": "address"
						},
						{
							"indexed": false,
							"internalType": "bool",
							"name": "approved",
							"type": "bool"
						}
					],
					"name": "ApprovalForAll",
					"type": "event"
				},
				{
					"anonymous": false,
					"inputs": [
						{
							"indexed": true,
							"internalType": "address",
							"name": "from",
							"type": "address"
						},
						{
							"indexed": true,
							"internalType": "address",
							"name": "to",
							"type": "address"
						},
						{
							"indexed": true,
							"internalType": "uint256",
							"name": "tokenId",
							"type": "uint256"
						}
					],
					"name": "Transfer",
					"type": "event"
				},
				{
					"inputs": [
						{
							"internalType": "address",
							"name": "to",
							"type": "address"
						},
						{
							"internalType": "uint256",
							"name": "tokenId",
							"type": "uint256"
						}
					],
					"name": "approve",
					"outputs": [],
					"stateMutability": "nonpayable",
					"type": "function"
				},
				{
					"inputs": [
						{
							"internalType": "address",
							"name": "owner",
							"type": "address"
						}
					],
					"name": "balanceOf",
					"outputs": [
						{
							"internalType": "uint256",
							"name": "",
							"type": "uint256"
						}
					],
					"stateMutability": "view",
					"type": "function"
				},
				{
					"inputs": [
						{
							"internalType": "uint256",
							"name": "tokenId",
							"type": "uint256"
						}
					],
					"name": "collaboratotOf",
					"outputs": [
						{
							"components": [
								{
									"internalType": "address[]",
									"name": "collabolator",
									"type": "address[]"
								},
								{
									"internalType": "uint256[]",
									"name": "percentage",
									"type": "uint256[]"
								}
							],
							"internalType": "struct nft.Collaborator",
							"name": "",
							"type": "tuple"
						}
					],
					"stateMutability": "view",
					"type": "function"
				},
				{
					"inputs": [
						{
							"internalType": "uint256",
							"name": "tokenId",
							"type": "uint256"
						}
					],
					"name": "collaboratotPercentageOf",
					"outputs": [
						{
							"internalType": "uint256",
							"name": "",
							"type": "uint256"
						}
					],
					"stateMutability": "view",
					"type": "function"
				},
				{
					"inputs": [
						{
							"internalType": "uint256",
							"name": "tokenId",
							"type": "uint256"
						}
					],
					"name": "getApproved",
					"outputs": [
						{
							"internalType": "address",
							"name": "",
							"type": "address"
						}
					],
					"stateMutability": "view",
					"type": "function"
				},
				{
					"inputs": [
						{
							"internalType": "address",
							"name": "owner",
							"type": "address"
						},
						{
							"internalType": "address",
							"name": "operator",
							"type": "address"
						}
					],
					"name": "isApprovedForAll",
					"outputs": [
						{
							"internalType": "bool",
							"name": "",
							"type": "bool"
						}
					],
					"stateMutability": "view",
					"type": "function"
				},
				{
					"inputs": [
						{
							"internalType": "address",
							"name": "to",
							"type": "address"
						},
						{
							"components": [
								{
									"internalType": "address[]",
									"name": "collabolator",
									"type": "address[]"
								},
								{
									"internalType": "uint256[]",
									"name": "percentage",
									"type": "uint256[]"
								}
							],
							"internalType": "struct nft.Collaborator",
							"name": "collaborator",
							"type": "tuple"
						},
						{
							"internalType": "uint256",
							"name": "collaboratorPercent",
							"type": "uint256"
						},
						{
							"internalType": "uint256",
							"name": "tokenId",
							"type": "uint256"
						},
						{
							"internalType": "string",
							"name": "uri",
							"type": "string"
						}
					],
					"name": "mint",
					"outputs": [],
					"stateMutability": "nonpayable",
					"type": "function"
				},
				{
					"inputs": [],
					"name": "name",
					"outputs": [
						{
							"internalType": "string",
							"name": "",
							"type": "string"
						}
					],
					"stateMutability": "view",
					"type": "function"
				},
				{
					"inputs": [
						{
							"internalType": "uint256",
							"name": "tokenId",
							"type": "uint256"
						}
					],
					"name": "ownerOf",
					"outputs": [
						{
							"internalType": "address",
							"name": "",
							"type": "address"
						}
					],
					"stateMutability": "view",
					"type": "function"
				},
				{
					"inputs": [
						{
							"internalType": "address",
							"name": "from",
							"type": "address"
						},
						{
							"internalType": "address",
							"name": "to",
							"type": "address"
						},
						{
							"internalType": "uint256",
							"name": "tokenId",
							"type": "uint256"
						}
					],
					"name": "safeTransferFrom",
					"outputs": [],
					"stateMutability": "nonpayable",
					"type": "function"
				},
				{
					"inputs": [
						{
							"internalType": "address",
							"name": "from",
							"type": "address"
						},
						{
							"internalType": "address",
							"name": "to",
							"type": "address"
						},
						{
							"internalType": "uint256",
							"name": "tokenId",
							"type": "uint256"
						},
						{
							"internalType": "bytes",
							"name": "data",
							"type": "bytes"
						}
					],
					"name": "safeTransferFrom",
					"outputs": [],
					"stateMutability": "nonpayable",
					"type": "function"
				},
				{
					"inputs": [
						{
							"internalType": "address",
							"name": "operator",
							"type": "address"
						},
						{
							"internalType": "bool",
							"name": "approved",
							"type": "bool"
						}
					],
					"name": "setApprovalForAll",
					"outputs": [],
					"stateMutability": "nonpayable",
					"type": "function"
				},
				{
					"inputs": [
						{
							"internalType": "bytes4",
							"name": "interfaceId",
							"type": "bytes4"
						}
					],
					"name": "supportsInterface",
					"outputs": [
						{
							"internalType": "bool",
							"name": "",
							"type": "bool"
						}
					],
					"stateMutability": "view",
					"type": "function"
				},
				{
					"inputs": [],
					"name": "symbol",
					"outputs": [
						{
							"internalType": "string",
							"name": "",
							"type": "string"
						}
					],
					"stateMutability": "view",
					"type": "function"
				},
				{
					"inputs": [
						{
							"internalType": "uint256",
							"name": "tokenId",
							"type": "uint256"
						}
					],
					"name": "tokenURI",
					"outputs": [
						{
							"internalType": "string",
							"name": "",
							"type": "string"
						}
					],
					"stateMutability": "view",
					"type": "function"
				},
				{
					"inputs": [
						{
							"internalType": "address",
							"name": "from",
							"type": "address"
						},
						{
							"internalType": "address",
							"name": "to",
							"type": "address"
						},
						{
							"internalType": "uint256",
							"name": "tokenId",
							"type": "uint256"
						}
					],
					"name": "transferFrom",
					"outputs": [],
					"stateMutability": "nonpayable",
					"type": "function"
				}
			],
			"devdoc": {
				"kind": "dev",
				"methods": {
					"approve(address,uint256)": {
						"details": "Gives permission to `to` to transfer `tokenId` token to another account. The approval is cleared when the token is transferred. Only a single account can be approved at a time, so approving the zero address clears previous approvals. Requirements: - The caller must own the token or be an approved operator. - `tokenId` must exist. Emits an {Approval} event."
					},
					"balanceOf(address)": {
						"details": "Returns the number of tokens in ``owner``'s account."
					},
					"getApproved(uint256)": {
						"details": "Returns the account approved for `tokenId` token. Requirements: - `tokenId` must exist."
					},
					"isApprovedForAll(address,address)": {
						"details": "Returns if the `operator` is allowed to manage all of the assets of `owner`. See {setApprovalForAll}"
					},
					"name()": {
						"details": "Returns the token collection name."
					},
					"ownerOf(uint256)": {
						"details": "Returns the owner of the `tokenId` token. Requirements: - `tokenId` must exist."
					},
					"safeTransferFrom(address,address,uint256)": {
						"details": "Safely transfers `tokenId` token from `from` to `to`, checking first that contract recipients are aware of the ERC721 protocol to prevent tokens from being forever locked. Requirements: - `from` cannot be the zero address. - `to` cannot be the zero address. - `tokenId` token must exist and be owned by `from`. - If the caller is not `from`, it must be have been allowed to move this token by either {approve} or {setApprovalForAll}. - If `to` refers to a smart contract, it must implement {IERC721Receiver-onERC721Received}, which is called upon a safe transfer. Emits a {Transfer} event."
					},
					"safeTransferFrom(address,address,uint256,bytes)": {
						"details": "Safely transfers `tokenId` token from `from` to `to`. Requirements: - `from` cannot be the zero address. - `to` cannot be the zero address. - `tokenId` token must exist and be owned by `from`. - If the caller is not `from`, it must be approved to move this token by either {approve} or {setApprovalForAll}. - If `to` refers to a smart contract, it must implement {IERC721Receiver-onERC721Received}, which is called upon a safe transfer. Emits a {Transfer} event."
					},
					"symbol()": {
						"details": "Returns the token collection symbol."
					},
					"tokenURI(uint256)": {
						"details": "Returns the Uniform Resource Identifier (URI) for `tokenId` token."
					},
					"transferFrom(address,address,uint256)": {
						"details": "Transfers `tokenId` token from `from` to `to`. WARNING: Usage of this method is discouraged, use {safeTransferFrom} whenever possible. Requirements: - `from` cannot be the zero address. - `to` cannot be the zero address. - `tokenId` token must be owned by `from`. - If the caller is not `from`, it must be approved to move this token by either {approve} or {setApprovalForAll}. Emits a {Transfer} event."
					}
				},
				"version": 1
			},
			"evm": {
				"assembly": "    /* \"contracts/nft.sol\":677:10751  contract nft is Context, ERC165, IERC721, IERC721Metadata {\r... */\n  mstore(0x40, 0x80)\n    /* \"contracts/nft.sol\":1449:1565  constructor(string memory name_, string memory symbol_) {\r... */\n  callvalue\n  dup1\n  iszero\n  tag_1\n  jumpi\n  0x00\n  dup1\n  revert\ntag_1:\n  pop\n  mload(0x40)\n  sub(codesize, bytecodeSize)\n  dup1\n  bytecodeSize\n  dup4\n  codecopy\n  dup2\n  dup2\n  add\n  0x40\n  mstore\n  dup2\n  add\n  swap1\n  tag_2\n  swap2\n  swap1\n  tag_3\n  jump\t// in\ntag_2:\n    /* \"contracts/nft.sol\":1524:1529  name_ */\n  dup2\n    /* \"contracts/nft.sol\":1516:1521  _name */\n  0x00\n    /* \"contracts/nft.sol\":1516:1529  _name = name_ */\n  swap1\n  dup1\n  mload\n  swap1\n  0x20\n  add\n  swap1\n  tag_6\n  swap3\n  swap2\n  swap1\n  tag_7\n  jump\t// in\ntag_6:\n  pop\n    /* \"contracts/nft.sol\":1550:1557  symbol_ */\n  dup1\n    /* \"contracts/nft.sol\":1540:1547  _symbol */\n  0x01\n    /* \"contracts/nft.sol\":1540:1557  _symbol = symbol_ */\n  swap1\n  dup1\n  mload\n  swap1\n  0x20\n  add\n  swap1\n  tag_8\n  swap3\n  swap2\n  swap1\n  tag_7\n  jump\t// in\ntag_8:\n  pop\n    /* \"contracts/nft.sol\":1449:1565  constructor(string memory name_, string memory symbol_) {\r... */\n  pop\n  pop\n    /* \"contracts/nft.sol\":677:10751  contract nft is Context, ERC165, IERC721, IERC721Metadata {\r... */\n  jump(tag_9)\ntag_7:\n  dup3\n  dup1\n  sload\n  tag_10\n  swap1\n  tag_11\n  jump\t// in\ntag_10:\n  swap1\n  0x00\n  mstore\n  keccak256(0x00, 0x20)\n  swap1\n  0x1f\n  add\n  0x20\n  swap1\n  div\n  dup2\n  add\n  swap3\n  dup3\n  tag_13\n  jumpi\n  0x00\n  dup6\n  sstore\n  jump(tag_12)\ntag_13:\n  dup3\n  0x1f\n  lt\n  tag_14\n  jumpi\n  dup1\n  mload\n  not(0xff)\n  and\n  dup4\n  dup1\n  add\n  or\n  dup6\n  sstore\n  jump(tag_12)\ntag_14:\n  dup3\n  dup1\n  add\n  0x01\n  add\n  dup6\n  sstore\n  dup3\n  iszero\n  tag_12\n  jumpi\n  swap2\n  dup3\n  add\ntag_15:\n  dup3\n  dup2\n  gt\n  iszero\n  tag_16\n  jumpi\n  dup3\n  mload\n  dup3\n  sstore\n  swap2\n  0x20\n  add\n  swap2\n  swap1\n  0x01\n  add\n  swap1\n  jump(tag_15)\ntag_16:\ntag_12:\n  pop\n  swap1\n  pop\n  tag_17\n  swap2\n  swap1\n  tag_18\n  jump\t// in\ntag_17:\n  pop\n  swap1\n  jump\t// out\ntag_18:\ntag_19:\n  dup1\n  dup3\n  gt\n  iszero\n  tag_20\n  jumpi\n  0x00\n  dup2\n  0x00\n  swap1\n  sstore\n  pop\n  0x01\n  add\n  jump(tag_19)\ntag_20:\n  pop\n  swap1\n  jump\t// out\n    /* \"#utility.yul\":7:361   */\ntag_22:\n    /* \"#utility.yul\":96:101   */\n  0x00\n    /* \"#utility.yul\":121:187   */\n  tag_24\n    /* \"#utility.yul\":137:186   */\n  tag_25\n    /* \"#utility.yul\":179:185   */\n  dup5\n    /* \"#utility.yul\":137:186   */\n  tag_26\n  jump\t// in\ntag_25:\n    /* \"#utility.yul\":121:187   */\n  tag_27\n  jump\t// in\ntag_24:\n    /* \"#utility.yul\":112:187   */\n  swap1\n  pop\n    /* \"#utility.yul\":210:216   */\n  dup3\n    /* \"#utility.yul\":203:208   */\n  dup2\n    /* \"#utility.yul\":196:217   */\n  mstore\n    /* \"#utility.yul\":248:252   */\n  0x20\n    /* \"#utility.yul\":241:246   */\n  dup2\n    /* \"#utility.yul\":237:253   */\n  add\n    /* \"#utility.yul\":286:289   */\n  dup5\n    /* \"#utility.yul\":277:283   */\n  dup5\n    /* \"#utility.yul\":272:275   */\n  dup5\n    /* \"#utility.yul\":268:284   */\n  add\n    /* \"#utility.yul\":265:290   */\n  gt\n    /* \"#utility.yul\":262:264   */\n  iszero\n  tag_28\n  jumpi\n    /* \"#utility.yul\":303:304   */\n  0x00\n    /* \"#utility.yul\":300:301   */\n  dup1\n    /* \"#utility.yul\":293:305   */\n  revert\n    /* \"#utility.yul\":262:264   */\ntag_28:\n    /* \"#utility.yul\":316:355   */\n  tag_29\n    /* \"#utility.yul\":348:354   */\n  dup5\n    /* \"#utility.yul\":343:346   */\n  dup3\n    /* \"#utility.yul\":338:341   */\n  dup6\n    /* \"#utility.yul\":316:355   */\n  tag_30\n  jump\t// in\ntag_29:\n    /* \"#utility.yul\":102:361   */\n  pop\n  swap4\n  swap3\n  pop\n  pop\n  pop\n  jump\t// out\n    /* \"#utility.yul\":381:669   */\ntag_31:\n    /* \"#utility.yul\":448:453   */\n  0x00\n    /* \"#utility.yul\":497:500   */\n  dup3\n    /* \"#utility.yul\":490:494   */\n  0x1f\n    /* \"#utility.yul\":482:488   */\n  dup4\n    /* \"#utility.yul\":478:495   */\n  add\n    /* \"#utility.yul\":474:501   */\n  slt\n    /* \"#utility.yul\":464:466   */\n  tag_33\n  jumpi\n    /* \"#utility.yul\":515:516   */\n  0x00\n    /* \"#utility.yul\":512:513   */\n  dup1\n    /* \"#utility.yul\":505:517   */\n  revert\n    /* \"#utility.yul\":464:466   */\ntag_33:\n    /* \"#utility.yul\":548:554   */\n  dup2\n    /* \"#utility.yul\":542:555   */\n  mload\n    /* \"#utility.yul\":573:663   */\n  tag_34\n    /* \"#utility.yul\":659:662   */\n  dup5\n    /* \"#utility.yul\":651:657   */\n  dup3\n    /* \"#utility.yul\":644:648   */\n  0x20\n    /* \"#utility.yul\":636:642   */\n  dup7\n    /* \"#utility.yul\":632:649   */\n  add\n    /* \"#utility.yul\":573:663   */\n  tag_22\n  jump\t// in\ntag_34:\n    /* \"#utility.yul\":564:663   */\n  swap2\n  pop\n    /* \"#utility.yul\":454:669   */\n  pop\n  swap3\n  swap2\n  pop\n  pop\n  jump\t// out\n    /* \"#utility.yul\":675:1327   */\ntag_3:\n    /* \"#utility.yul\":774:780   */\n  0x00\n    /* \"#utility.yul\":782:788   */\n  dup1\n    /* \"#utility.yul\":831:833   */\n  0x40\n    /* \"#utility.yul\":819:828   */\n  dup4\n    /* \"#utility.yul\":810:817   */\n  dup6\n    /* \"#utility.yul\":806:829   */\n  sub\n    /* \"#utility.yul\":802:834   */\n  slt\n    /* \"#utility.yul\":799:801   */\n  iszero\n  tag_36\n  jumpi\n    /* \"#utility.yul\":847:848   */\n  0x00\n    /* \"#utility.yul\":844:845   */\n  dup1\n    /* \"#utility.yul\":837:849   */\n  revert\n    /* \"#utility.yul\":799:801   */\ntag_36:\n    /* \"#utility.yul\":911:912   */\n  0x00\n    /* \"#utility.yul\":900:909   */\n  dup4\n    /* \"#utility.yul\":896:913   */\n  add\n    /* \"#utility.yul\":890:914   */\n  mload\n    /* \"#utility.yul\":941:959   */\n  0xffffffffffffffff\n    /* \"#utility.yul\":933:939   */\n  dup2\n    /* \"#utility.yul\":930:960   */\n  gt\n    /* \"#utility.yul\":927:929   */\n  iszero\n  tag_37\n  jumpi\n    /* \"#utility.yul\":973:974   */\n  0x00\n    /* \"#utility.yul\":970:971   */\n  dup1\n    /* \"#utility.yul\":963:975   */\n  revert\n    /* \"#utility.yul\":927:929   */\ntag_37:\n    /* \"#utility.yul\":1001:1075   */\n  tag_38\n    /* \"#utility.yul\":1067:1074   */\n  dup6\n    /* \"#utility.yul\":1058:1064   */\n  dup3\n    /* \"#utility.yul\":1047:1056   */\n  dup7\n    /* \"#utility.yul\":1043:1065   */\n  add\n    /* \"#utility.yul\":1001:1075   */\n  tag_31\n  jump\t// in\ntag_38:\n    /* \"#utility.yul\":991:1075   */\n  swap3\n  pop\n    /* \"#utility.yul\":861:1085   */\n  pop\n    /* \"#utility.yul\":1145:1147   */\n  0x20\n    /* \"#utility.yul\":1134:1143   */\n  dup4\n    /* \"#utility.yul\":1130:1148   */\n  add\n    /* \"#utility.yul\":1124:1149   */\n  mload\n    /* \"#utility.yul\":1176:1194   */\n  0xffffffffffffffff\n    /* \"#utility.yul\":1168:1174   */\n  dup2\n    /* \"#utility.yul\":1165:1195   */\n  gt\n    /* \"#utility.yul\":1162:1164   */\n  iszero\n  tag_39\n  jumpi\n    /* \"#utility.yul\":1208:1209   */\n  0x00\n    /* \"#utility.yul\":1205:1206   */\n  dup1\n    /* \"#utility.yul\":1198:1210   */\n  revert\n    /* \"#utility.yul\":1162:1164   */\ntag_39:\n    /* \"#utility.yul\":1236:1310   */\n  tag_40\n    /* \"#utility.yul\":1302:1309   */\n  dup6\n    /* \"#utility.yul\":1293:1299   */\n  dup3\n    /* \"#utility.yul\":1282:1291   */\n  dup7\n    /* \"#utility.yul\":1278:1300   */\n  add\n    /* \"#utility.yul\":1236:1310   */\n  tag_31\n  jump\t// in\ntag_40:\n    /* \"#utility.yul\":1226:1310   */\n  swap2\n  pop\n    /* \"#utility.yul\":1095:1320   */\n  pop\n    /* \"#utility.yul\":789:1327   */\n  swap3\n  pop\n  swap3\n  swap1\n  pop\n  jump\t// out\n    /* \"#utility.yul\":1333:1462   */\ntag_27:\n    /* \"#utility.yul\":1367:1373   */\n  0x00\n    /* \"#utility.yul\":1394:1414   */\n  tag_42\n  tag_43\n  jump\t// in\ntag_42:\n    /* \"#utility.yul\":1384:1414   */\n  swap1\n  pop\n    /* \"#utility.yul\":1423:1456   */\n  tag_44\n    /* \"#utility.yul\":1451:1455   */\n  dup3\n    /* \"#utility.yul\":1443:1449   */\n  dup3\n    /* \"#utility.yul\":1423:1456   */\n  tag_45\n  jump\t// in\ntag_44:\n    /* \"#utility.yul\":1374:1462   */\n  swap2\n  swap1\n  pop\n  jump\t// out\n    /* \"#utility.yul\":1468:1543   */\ntag_43:\n    /* \"#utility.yul\":1501:1507   */\n  0x00\n    /* \"#utility.yul\":1534:1536   */\n  0x40\n    /* \"#utility.yul\":1528:1537   */\n  mload\n    /* \"#utility.yul\":1518:1537   */\n  swap1\n  pop\n    /* \"#utility.yul\":1508:1543   */\n  swap1\n  jump\t// out\n    /* \"#utility.yul\":1549:1857   */\ntag_26:\n    /* \"#utility.yul\":1611:1615   */\n  0x00\n    /* \"#utility.yul\":1701:1719   */\n  0xffffffffffffffff\n    /* \"#utility.yul\":1693:1699   */\n  dup3\n    /* \"#utility.yul\":1690:1720   */\n  gt\n    /* \"#utility.yul\":1687:1689   */\n  iszero\n  tag_48\n  jumpi\n    /* \"#utility.yul\":1723:1741   */\n  tag_49\n  tag_50\n  jump\t// in\ntag_49:\n    /* \"#utility.yul\":1687:1689   */\ntag_48:\n    /* \"#utility.yul\":1761:1790   */\n  tag_51\n    /* \"#utility.yul\":1783:1789   */\n  dup3\n    /* \"#utility.yul\":1761:1790   */\n  tag_52\n  jump\t// in\ntag_51:\n    /* \"#utility.yul\":1753:1790   */\n  swap1\n  pop\n    /* \"#utility.yul\":1845:1849   */\n  0x20\n    /* \"#utility.yul\":1839:1843   */\n  dup2\n    /* \"#utility.yul\":1835:1850   */\n  add\n    /* \"#utility.yul\":1827:1850   */\n  swap1\n  pop\n    /* \"#utility.yul\":1616:1857   */\n  swap2\n  swap1\n  pop\n  jump\t// out\n    /* \"#utility.yul\":1863:2170   */\ntag_30:\n    /* \"#utility.yul\":1931:1932   */\n  0x00\n    /* \"#utility.yul\":1941:2054   */\ntag_54:\n    /* \"#utility.yul\":1955:1961   */\n  dup4\n    /* \"#utility.yul\":1952:1953   */\n  dup2\n    /* \"#utility.yul\":1949:1962   */\n  lt\n    /* \"#utility.yul\":1941:2054   */\n  iszero\n  tag_56\n  jumpi\n    /* \"#utility.yul\":2040:2041   */\n  dup1\n    /* \"#utility.yul\":2035:2038   */\n  dup3\n    /* \"#utility.yul\":2031:2042   */\n  add\n    /* \"#utility.yul\":2025:2043   */\n  mload\n    /* \"#utility.yul\":2021:2022   */\n  dup2\n    /* \"#utility.yul\":2016:2019   */\n  dup5\n    /* \"#utility.yul\":2012:2023   */\n  add\n    /* \"#utility.yul\":2005:2044   */\n  mstore\n    /* \"#utility.yul\":1977:1979   */\n  0x20\n    /* \"#utility.yul\":1974:1975   */\n  dup2\n    /* \"#utility.yul\":1970:1980   */\n  add\n    /* \"#utility.yul\":1965:1980   */\n  swap1\n  pop\n    /* \"#utility.yul\":1941:2054   */\n  jump(tag_54)\ntag_56:\n    /* \"#utility.yul\":2072:2078   */\n  dup4\n    /* \"#utility.yul\":2069:2070   */\n  dup2\n    /* \"#utility.yul\":2066:2079   */\n  gt\n    /* \"#utility.yul\":2063:2065   */\n  iszero\n  tag_57\n  jumpi\n    /* \"#utility.yul\":2152:2153   */\n  0x00\n    /* \"#utility.yul\":2143:2149   */\n  dup5\n    /* \"#utility.yul\":2138:2141   */\n  dup5\n    /* \"#utility.yul\":2134:2150   */\n  add\n    /* \"#utility.yul\":2127:2154   */\n  mstore\n    /* \"#utility.yul\":2063:2065   */\ntag_57:\n    /* \"#utility.yul\":1912:2170   */\n  pop\n  pop\n  pop\n  pop\n  jump\t// out\n    /* \"#utility.yul\":2176:2496   */\ntag_11:\n    /* \"#utility.yul\":2220:2226   */\n  0x00\n    /* \"#utility.yul\":2257:2258   */\n  0x02\n    /* \"#utility.yul\":2251:2255   */\n  dup3\n    /* \"#utility.yul\":2247:2259   */\n  div\n    /* \"#utility.yul\":2237:2259   */\n  swap1\n  pop\n    /* \"#utility.yul\":2304:2305   */\n  0x01\n    /* \"#utility.yul\":2298:2302   */\n  dup3\n    /* \"#utility.yul\":2294:2306   */\n  and\n    /* \"#utility.yul\":2325:2343   */\n  dup1\n    /* \"#utility.yul\":2315:2317   */\n  tag_59\n  jumpi\n    /* \"#utility.yul\":2381:2385   */\n  0x7f\n    /* \"#utility.yul\":2373:2379   */\n  dup3\n    /* \"#utility.yul\":2369:2386   */\n  and\n    /* \"#utility.yul\":2359:2386   */\n  swap2\n  pop\n    /* \"#utility.yul\":2315:2317   */\ntag_59:\n    /* \"#utility.yul\":2443:2445   */\n  0x20\n    /* \"#utility.yul\":2435:2441   */\n  dup3\n    /* \"#utility.yul\":2432:2446   */\n  lt\n    /* \"#utility.yul\":2412:2430   */\n  dup2\n    /* \"#utility.yul\":2409:2447   */\n  eq\n    /* \"#utility.yul\":2406:2408   */\n  iszero\n  tag_60\n  jumpi\n    /* \"#utility.yul\":2462:2480   */\n  tag_61\n  tag_62\n  jump\t// in\ntag_61:\n    /* \"#utility.yul\":2406:2408   */\ntag_60:\n    /* \"#utility.yul\":2227:2496   */\n  pop\n  swap2\n  swap1\n  pop\n  jump\t// out\n    /* \"#utility.yul\":2502:2783   */\ntag_45:\n    /* \"#utility.yul\":2585:2612   */\n  tag_64\n    /* \"#utility.yul\":2607:2611   */\n  dup3\n    /* \"#utility.yul\":2585:2612   */\n  tag_52\n  jump\t// in\ntag_64:\n    /* \"#utility.yul\":2577:2583   */\n  dup2\n    /* \"#utility.yul\":2573:2613   */\n  add\n    /* \"#utility.yul\":2715:2721   */\n  dup2\n    /* \"#utility.yul\":2703:2713   */\n  dup2\n    /* \"#utility.yul\":2700:2722   */\n  lt\n    /* \"#utility.yul\":2679:2697   */\n  0xffffffffffffffff\n    /* \"#utility.yul\":2667:2677   */\n  dup3\n    /* \"#utility.yul\":2664:2698   */\n  gt\n    /* \"#utility.yul\":2661:2723   */\n  or\n    /* \"#utility.yul\":2658:2660   */\n  iszero\n  tag_65\n  jumpi\n    /* \"#utility.yul\":2726:2744   */\n  tag_66\n  tag_50\n  jump\t// in\ntag_66:\n    /* \"#utility.yul\":2658:2660   */\ntag_65:\n    /* \"#utility.yul\":2766:2776   */\n  dup1\n    /* \"#utility.yul\":2762:2764   */\n  0x40\n    /* \"#utility.yul\":2755:2777   */\n  mstore\n    /* \"#utility.yul\":2545:2783   */\n  pop\n  pop\n  pop\n  jump\t// out\n    /* \"#utility.yul\":2789:2969   */\ntag_62:\n    /* \"#utility.yul\":2837:2914   */\n  0x4e487b7100000000000000000000000000000000000000000000000000000000\n    /* \"#utility.yul\":2834:2835   */\n  0x00\n    /* \"#utility.yul\":2827:2915   */\n  mstore\n    /* \"#utility.yul\":2934:2938   */\n  0x22\n    /* \"#utility.yul\":2931:2932   */\n  0x04\n    /* \"#utility.yul\":2924:2939   */\n  mstore\n    /* \"#utility.yul\":2958:2962   */\n  0x24\n    /* \"#utility.yul\":2955:2956   */\n  0x00\n    /* \"#utility.yul\":2948:2963   */\n  revert\n    /* \"#utility.yul\":2975:3155   */\ntag_50:\n    /* \"#utility.yul\":3023:3100   */\n  0x4e487b7100000000000000000000000000000000000000000000000000000000\n    /* \"#utility.yul\":3020:3021   */\n  0x00\n    /* \"#utility.yul\":3013:3101   */\n  mstore\n    /* \"#utility.yul\":3120:3124   */\n  0x41\n    /* \"#utility.yul\":3117:3118   */\n  0x04\n    /* \"#utility.yul\":3110:3125   */\n  mstore\n    /* \"#utility.yul\":3144:3148   */\n  0x24\n    /* \"#utility.yul\":3141:3142   */\n  0x00\n    /* \"#utility.yul\":3134:3149   */\n  revert\n    /* \"#utility.yul\":3161:3263   */\ntag_52:\n    /* \"#utility.yul\":3202:3208   */\n  0x00\n    /* \"#utility.yul\":3253:3255   */\n  0x1f\n    /* \"#utility.yul\":3249:3256   */\n  not\n    /* \"#utility.yul\":3244:3246   */\n  0x1f\n    /* \"#utility.yul\":3237:3242   */\n  dup4\n    /* \"#utility.yul\":3233:3247   */\n  add\n    /* \"#utility.yul\":3229:3257   */\n  and\n    /* \"#utility.yul\":3219:3257   */\n  swap1\n  pop\n    /* \"#utility.yul\":3209:3263   */\n  swap2\n  swap1\n  pop\n  jump\t// out\n    /* \"contracts/nft.sol\":677:10751  contract nft is Context, ERC165, IERC721, IERC721Metadata {\r... */\ntag_9:\n  dataSize(sub_0)\n  dup1\n  dataOffset(sub_0)\n  0x00\n  codecopy\n  0x00\n  return\nstop\n\nsub_0: assembly {\n        /* \"contracts/nft.sol\":677:10751  contract nft is Context, ERC165, IERC721, IERC721Metadata {\r... */\n      mstore(0x40, 0x80)\n      callvalue\n      dup1\n      iszero\n      tag_1\n      jumpi\n      0x00\n      dup1\n      revert\n    tag_1:\n      pop\n      jumpi(tag_2, lt(calldatasize, 0x04))\n      shr(0xe0, calldataload(0x00))\n      dup1\n      0x6352211e\n      gt\n      tag_19\n      jumpi\n      dup1\n      0xb88d4fde\n      gt\n      tag_20\n      jumpi\n      dup1\n      0xb88d4fde\n      eq\n      tag_15\n      jumpi\n      dup1\n      0xc87b56dd\n      eq\n      tag_16\n      jumpi\n      dup1\n      0xe985e9c5\n      eq\n      tag_17\n      jumpi\n      dup1\n      0xee48cda2\n      eq\n      tag_18\n      jumpi\n      jump(tag_2)\n    tag_20:\n      dup1\n      0x6352211e\n      eq\n      tag_11\n      jumpi\n      dup1\n      0x70a08231\n      eq\n      tag_12\n      jumpi\n      dup1\n      0x95d89b41\n      eq\n      tag_13\n      jumpi\n      dup1\n      0xa22cb465\n      eq\n      tag_14\n      jumpi\n      jump(tag_2)\n    tag_19:\n      dup1\n      0x23b872dd\n      gt\n      tag_21\n      jumpi\n      dup1\n      0x23b872dd\n      eq\n      tag_7\n      jumpi\n      dup1\n      0x3ef85390\n      eq\n      tag_8\n      jumpi\n      dup1\n      0x42842e0e\n      eq\n      tag_9\n      jumpi\n      dup1\n      0x52e04825\n      eq\n      tag_10\n      jumpi\n      jump(tag_2)\n    tag_21:\n      dup1\n      0x01ffc9a7\n      eq\n      tag_3\n      jumpi\n      dup1\n      0x06fdde03\n      eq\n      tag_4\n      jumpi\n      dup1\n      0x081812fc\n      eq\n      tag_5\n      jumpi\n      dup1\n      0x095ea7b3\n      eq\n      tag_6\n      jumpi\n    tag_2:\n      0x00\n      dup1\n      revert\n        /* \"contracts/nft.sol\":1575:1880  function supportsInterface(bytes4 interfaceId) public view virtual override(ERC165, IERC165) returns (bool) {\r... */\n    tag_3:\n      tag_22\n      0x04\n      dup1\n      calldatasize\n      sub\n      dup2\n      add\n      swap1\n      tag_23\n      swap2\n      swap1\n      tag_24\n      jump\t// in\n    tag_23:\n      tag_25\n      jump\t// in\n    tag_22:\n      mload(0x40)\n      tag_26\n      swap2\n      swap1\n      tag_27\n      jump\t// in\n    tag_26:\n      mload(0x40)\n      dup1\n      swap2\n      sub\n      swap1\n      return\n        /* \"contracts/nft.sol\":2766:2866  function name() public view virtual override returns (string memory) {\r... */\n    tag_4:\n      tag_28\n      tag_29\n      jump\t// in\n    tag_28:\n      mload(0x40)\n      tag_30\n      swap2\n      swap1\n      tag_31\n      jump\t// in\n    tag_30:\n      mload(0x40)\n      dup1\n      swap2\n      sub\n      swap1\n      return\n        /* \"contracts/nft.sol\":3802:3973  function getApproved(uint256 tokenId) public view virtual override returns (address) {\r... */\n    tag_5:\n      tag_32\n      0x04\n      dup1\n      calldatasize\n      sub\n      dup2\n      add\n      swap1\n      tag_33\n      swap2\n      swap1\n      tag_34\n      jump\t// in\n    tag_33:\n      tag_35\n      jump\t// in\n    tag_32:\n      mload(0x40)\n      tag_36\n      swap2\n      swap1\n      tag_37\n      jump\t// in\n    tag_36:\n      mload(0x40)\n      dup1\n      swap2\n      sub\n      swap1\n      return\n        /* \"contracts/nft.sol\":3378:3791  function approve(address to, uint256 tokenId) public virtual override {\r... */\n    tag_6:\n      tag_38\n      0x04\n      dup1\n      calldatasize\n      sub\n      dup2\n      add\n      swap1\n      tag_39\n      swap2\n      swap1\n      tag_40\n      jump\t// in\n    tag_39:\n      tag_41\n      jump\t// in\n    tag_38:\n      stop\n        /* \"contracts/nft.sol\":4324:4606  function transferFrom(\r... */\n    tag_7:\n      tag_42\n      0x04\n      dup1\n      calldatasize\n      sub\n      dup2\n      add\n      swap1\n      tag_43\n      swap2\n      swap1\n      tag_44\n      jump\t// in\n    tag_43:\n      tag_45\n      jump\t// in\n    tag_42:\n      stop\n        /* \"contracts/nft.sol\":5142:5379  function mint(address to,Collaborator  memory collaborator,uint256  collaboratorPercent,uint tokenId,string memory uri) public{\r... */\n    tag_8:\n      tag_46\n      0x04\n      dup1\n      calldatasize\n      sub\n      dup2\n      add\n      swap1\n      tag_47\n      swap2\n      swap1\n      tag_48\n      jump\t// in\n    tag_47:\n      tag_49\n      jump\t// in\n    tag_46:\n      stop\n        /* \"contracts/nft.sol\":4616:4801  function safeTransferFrom(\r... */\n    tag_9:\n      tag_50\n      0x04\n      dup1\n      calldatasize\n      sub\n      dup2\n      add\n      swap1\n      tag_51\n      swap2\n      swap1\n      tag_44\n      jump\t// in\n    tag_51:\n      tag_52\n      jump\t// in\n    tag_50:\n      stop\n        /* \"contracts/nft.sol\":2338:2536  function collaboratotOf(uint256 tokenId) public view virtual returns (Collaborator memory) {\r... */\n    tag_10:\n      tag_53\n      0x04\n      dup1\n      calldatasize\n      sub\n      dup2\n      add\n      swap1\n      tag_54\n      swap2\n      swap1\n      tag_34\n      jump\t// in\n    tag_54:\n      tag_55\n      jump\t// in\n    tag_53:\n      mload(0x40)\n      tag_56\n      swap2\n      swap1\n      tag_57\n      jump\t// in\n    tag_56:\n      mload(0x40)\n      dup1\n      swap2\n      sub\n      swap1\n      return\n        /* \"contracts/nft.sol\":2107:2329  function ownerOf(uint256 tokenId) public view virtual override returns (address) {\r... */\n    tag_11:\n      tag_58\n      0x04\n      dup1\n      calldatasize\n      sub\n      dup2\n      add\n      swap1\n      tag_59\n      swap2\n      swap1\n      tag_34\n      jump\t// in\n    tag_59:\n      tag_60\n      jump\t// in\n    tag_58:\n      mload(0x40)\n      tag_61\n      swap2\n      swap1\n      tag_37\n      jump\t// in\n    tag_61:\n      mload(0x40)\n      dup1\n      swap2\n      sub\n      swap1\n      return\n        /* \"contracts/nft.sol\":1890:2097  function balanceOf(address owner) public view virtual override returns (uint256) {\r... */\n    tag_12:\n      tag_62\n      0x04\n      dup1\n      calldatasize\n      sub\n      dup2\n      add\n      swap1\n      tag_63\n      swap2\n      swap1\n      tag_64\n      jump\t// in\n    tag_63:\n      tag_65\n      jump\t// in\n    tag_62:\n      mload(0x40)\n      tag_66\n      swap2\n      swap1\n      tag_67\n      jump\t// in\n    tag_66:\n      mload(0x40)\n      dup1\n      swap2\n      sub\n      swap1\n      return\n        /* \"contracts/nft.sol\":2875:2979  function symbol() public view virtual override returns (string memory) {\r... */\n    tag_13:\n      tag_68\n      tag_69\n      jump\t// in\n    tag_68:\n      mload(0x40)\n      tag_70\n      swap2\n      swap1\n      tag_31\n      jump\t// in\n    tag_70:\n      mload(0x40)\n      dup1\n      swap2\n      sub\n      swap1\n      return\n        /* \"contracts/nft.sol\":3985:4140  function setApprovalForAll(address operator, bool approved) public virtual override {\r... */\n    tag_14:\n      tag_71\n      0x04\n      dup1\n      calldatasize\n      sub\n      dup2\n      add\n      swap1\n      tag_72\n      swap2\n      swap1\n      tag_73\n      jump\t// in\n    tag_72:\n      tag_74\n      jump\t// in\n    tag_71:\n      stop\n        /* \"contracts/nft.sol\":4811:5133  function safeTransferFrom(\r... */\n    tag_15:\n      tag_75\n      0x04\n      dup1\n      calldatasize\n      sub\n      dup2\n      add\n      swap1\n      tag_76\n      swap2\n      swap1\n      tag_77\n      jump\t// in\n    tag_76:\n      tag_78\n      jump\t// in\n    tag_75:\n      stop\n        /* \"contracts/nft.sol\":2987:3268  function tokenURI(uint256 tokenId) public view virtual override returns (string memory) {\r... */\n    tag_16:\n      tag_79\n      0x04\n      dup1\n      calldatasize\n      sub\n      dup2\n      add\n      swap1\n      tag_80\n      swap2\n      swap1\n      tag_34\n      jump\t// in\n    tag_80:\n      tag_81\n      jump\t// in\n    tag_79:\n      mload(0x40)\n      tag_82\n      swap2\n      swap1\n      tag_31\n      jump\t// in\n    tag_82:\n      mload(0x40)\n      dup1\n      swap2\n      sub\n      swap1\n      return\n        /* \"contracts/nft.sol\":4150:4314  function isApprovedForAll(address owner, address operator) public view virtual override returns (bool) {\r... */\n    tag_17:\n      tag_83\n      0x04\n      dup1\n      calldatasize\n      sub\n      dup2\n      add\n      swap1\n      tag_84\n      swap2\n      swap1\n      tag_85\n      jump\t// in\n    tag_84:\n      tag_86\n      jump\t// in\n    tag_83:\n      mload(0x40)\n      tag_87\n      swap2\n      swap1\n      tag_27\n      jump\t// in\n    tag_87:\n      mload(0x40)\n      dup1\n      swap2\n      sub\n      swap1\n      return\n        /* \"contracts/nft.sol\":2544:2758  function collaboratotPercentageOf(uint256 tokenId) public view virtual returns (uint256) {\r... */\n    tag_18:\n      tag_88\n      0x04\n      dup1\n      calldatasize\n      sub\n      dup2\n      add\n      swap1\n      tag_89\n      swap2\n      swap1\n      tag_34\n      jump\t// in\n    tag_89:\n      tag_90\n      jump\t// in\n    tag_88:\n      mload(0x40)\n      tag_91\n      swap2\n      swap1\n      tag_67\n      jump\t// in\n    tag_91:\n      mload(0x40)\n      dup1\n      swap2\n      sub\n      swap1\n      return\n        /* \"contracts/nft.sol\":1575:1880  function supportsInterface(bytes4 interfaceId) public view virtual override(ERC165, IERC165) returns (bool) {\r... */\n    tag_25:\n        /* \"contracts/nft.sol\":1677:1681  bool */\n      0x00\n        /* \"contracts/nft.sol\":1729:1754  type(IERC721).interfaceId */\n      0x80ac58cd00000000000000000000000000000000000000000000000000000000\n        /* \"contracts/nft.sol\":1714:1754  interfaceId == type(IERC721).interfaceId */\n      not(0xffffffffffffffffffffffffffffffffffffffffffffffffffffffff)\n      and\n        /* \"contracts/nft.sol\":1714:1725  interfaceId */\n      dup3\n        /* \"contracts/nft.sol\":1714:1754  interfaceId == type(IERC721).interfaceId */\n      not(0xffffffffffffffffffffffffffffffffffffffffffffffffffffffff)\n      and\n      eq\n        /* \"contracts/nft.sol\":1714:1819  interfaceId == type(IERC721).interfaceId ||\r... */\n      dup1\n      tag_93\n      jumpi\n      pop\n        /* \"contracts/nft.sol\":1786:1819  type(IERC721Metadata).interfaceId */\n      0x5b5e139f00000000000000000000000000000000000000000000000000000000\n        /* \"contracts/nft.sol\":1771:1819  interfaceId == type(IERC721Metadata).interfaceId */\n      not(0xffffffffffffffffffffffffffffffffffffffffffffffffffffffff)\n      and\n        /* \"contracts/nft.sol\":1771:1782  interfaceId */\n      dup3\n        /* \"contracts/nft.sol\":1771:1819  interfaceId == type(IERC721Metadata).interfaceId */\n      not(0xffffffffffffffffffffffffffffffffffffffffffffffffffffffff)\n      and\n      eq\n        /* \"contracts/nft.sol\":1714:1819  interfaceId == type(IERC721).interfaceId ||\r... */\n    tag_93:\n        /* \"contracts/nft.sol\":1714:1872  interfaceId == type(IERC721).interfaceId ||\r... */\n      dup1\n      tag_94\n      jumpi\n      pop\n        /* \"contracts/nft.sol\":1836:1872  super.supportsInterface(interfaceId) */\n      tag_95\n        /* \"contracts/nft.sol\":1860:1871  interfaceId */\n      dup3\n        /* \"contracts/nft.sol\":1836:1859  super.supportsInterface */\n      tag_96\n        /* \"contracts/nft.sol\":1836:1872  super.supportsInterface(interfaceId) */\n      jump\t// in\n    tag_95:\n        /* \"contracts/nft.sol\":1714:1872  interfaceId == type(IERC721).interfaceId ||\r... */\n    tag_94:\n        /* \"contracts/nft.sol\":1694:1872  return\r... */\n      swap1\n      pop\n        /* \"contracts/nft.sol\":1575:1880  function supportsInterface(bytes4 interfaceId) public view virtual override(ERC165, IERC165) returns (bool) {\r... */\n      swap2\n      swap1\n      pop\n      jump\t// out\n        /* \"contracts/nft.sol\":2766:2866  function name() public view virtual override returns (string memory) {\r... */\n    tag_29:\n        /* \"contracts/nft.sol\":2820:2833  string memory */\n      0x60\n        /* \"contracts/nft.sol\":2853:2858  _name */\n      0x00\n        /* \"contracts/nft.sol\":2846:2858  return _name */\n      dup1\n      sload\n      tag_98\n      swap1\n      tag_99\n      jump\t// in\n    tag_98:\n      dup1\n      0x1f\n      add\n      0x20\n      dup1\n      swap2\n      div\n      mul\n      0x20\n      add\n      mload(0x40)\n      swap1\n      dup2\n      add\n      0x40\n      mstore\n      dup1\n      swap3\n      swap2\n      swap1\n      dup2\n      dup2\n      mstore\n      0x20\n      add\n      dup3\n      dup1\n      sload\n      tag_100\n      swap1\n      tag_99\n      jump\t// in\n    tag_100:\n      dup1\n      iszero\n      tag_101\n      jumpi\n      dup1\n      0x1f\n      lt\n      tag_102\n      jumpi\n      0x0100\n      dup1\n      dup4\n      sload\n      div\n      mul\n      dup4\n      mstore\n      swap2\n      0x20\n      add\n      swap2\n      jump(tag_101)\n    tag_102:\n      dup3\n      add\n      swap2\n      swap1\n      0x00\n      mstore\n      keccak256(0x00, 0x20)\n      swap1\n    tag_103:\n      dup2\n      sload\n      dup2\n      mstore\n      swap1\n      0x01\n      add\n      swap1\n      0x20\n      add\n      dup1\n      dup4\n      gt\n      tag_103\n      jumpi\n      dup3\n      swap1\n      sub\n      0x1f\n      and\n      dup3\n      add\n      swap2\n    tag_101:\n      pop\n      pop\n      pop\n      pop\n      pop\n      swap1\n      pop\n        /* \"contracts/nft.sol\":2766:2866  function name() public view virtual override returns (string memory) {\r... */\n      swap1\n      jump\t// out\n        /* \"contracts/nft.sol\":3802:3973  function getApproved(uint256 tokenId) public view virtual override returns (address) {\r... */\n    tag_35:\n        /* \"contracts/nft.sol\":3878:3885  address */\n      0x00\n        /* \"contracts/nft.sol\":3898:3921  _requireMinted(tokenId) */\n      tag_105\n        /* \"contracts/nft.sol\":3913:3920  tokenId */\n      dup3\n        /* \"contracts/nft.sol\":3898:3912  _requireMinted */\n      tag_106\n        /* \"contracts/nft.sol\":3898:3921  _requireMinted(tokenId) */\n      jump\t// in\n    tag_105:\n        /* \"contracts/nft.sol\":3941:3956  _tokenApprovals */\n      0x06\n        /* \"contracts/nft.sol\":3941:3965  _tokenApprovals[tokenId] */\n      0x00\n        /* \"contracts/nft.sol\":3957:3964  tokenId */\n      dup4\n        /* \"contracts/nft.sol\":3941:3965  _tokenApprovals[tokenId] */\n      dup2\n      mstore\n      0x20\n      add\n      swap1\n      dup2\n      mstore\n      0x20\n      add\n      0x00\n      keccak256\n      0x00\n      swap1\n      sload\n      swap1\n      0x0100\n      exp\n      swap1\n      div\n      0xffffffffffffffffffffffffffffffffffffffff\n      and\n        /* \"contracts/nft.sol\":3934:3965  return _tokenApprovals[tokenId] */\n      swap1\n      pop\n        /* \"contracts/nft.sol\":3802:3973  function getApproved(uint256 tokenId) public view virtual override returns (address) {\r... */\n      swap2\n      swap1\n      pop\n      jump\t// out\n        /* \"contracts/nft.sol\":3378:3791  function approve(address to, uint256 tokenId) public virtual override {\r... */\n    tag_41:\n        /* \"contracts/nft.sol\":3459:3472  address owner */\n      0x00\n        /* \"contracts/nft.sol\":3475:3495  nft.ownerOf(tokenId) */\n      tag_108\n        /* \"contracts/nft.sol\":3487:3494  tokenId */\n      dup3\n        /* \"contracts/nft.sol\":3475:3486  nft.ownerOf */\n      tag_60\n        /* \"contracts/nft.sol\":3475:3495  nft.ownerOf(tokenId) */\n      jump\t// in\n    tag_108:\n        /* \"contracts/nft.sol\":3459:3495  address owner = nft.ownerOf(tokenId) */\n      swap1\n      pop\n        /* \"contracts/nft.sol\":3520:3525  owner */\n      dup1\n        /* \"contracts/nft.sol\":3514:3525  to != owner */\n      0xffffffffffffffffffffffffffffffffffffffff\n      and\n        /* \"contracts/nft.sol\":3514:3516  to */\n      dup4\n        /* \"contracts/nft.sol\":3514:3525  to != owner */\n      0xffffffffffffffffffffffffffffffffffffffff\n      and\n      eq\n      iszero\n        /* \"contracts/nft.sol\":3506:3563  require(to != owner, \"ERC721: approval to current owner\") */\n      tag_109\n      jumpi\n      mload(0x40)\n      0x08c379a000000000000000000000000000000000000000000000000000000000\n      dup2\n      mstore\n      0x04\n      add\n      tag_110\n      swap1\n      tag_111\n      jump\t// in\n    tag_110:\n      mload(0x40)\n      dup1\n      swap2\n      sub\n      swap1\n      revert\n    tag_109:\n        /* \"contracts/nft.sol\":3614:3619  owner */\n      dup1\n        /* \"contracts/nft.sol\":3598:3619  _msgSender() == owner */\n      0xffffffffffffffffffffffffffffffffffffffff\n      and\n        /* \"contracts/nft.sol\":3598:3610  _msgSender() */\n      tag_112\n        /* \"contracts/nft.sol\":3598:3608  _msgSender */\n      tag_113\n        /* \"contracts/nft.sol\":3598:3610  _msgSender() */\n      jump\t// in\n    tag_112:\n        /* \"contracts/nft.sol\":3598:3619  _msgSender() == owner */\n      0xffffffffffffffffffffffffffffffffffffffff\n      and\n      eq\n        /* \"contracts/nft.sol\":3598:3660  _msgSender() == owner || isApprovedForAll(owner, _msgSender()) */\n      dup1\n      tag_114\n      jumpi\n      pop\n        /* \"contracts/nft.sol\":3623:3660  isApprovedForAll(owner, _msgSender()) */\n      tag_115\n        /* \"contracts/nft.sol\":3640:3645  owner */\n      dup2\n        /* \"contracts/nft.sol\":3647:3659  _msgSender() */\n      tag_116\n        /* \"contracts/nft.sol\":3647:3657  _msgSender */\n      tag_113\n        /* \"contracts/nft.sol\":3647:3659  _msgSender() */\n      jump\t// in\n    tag_116:\n        /* \"contracts/nft.sol\":3623:3639  isApprovedForAll */\n      tag_86\n        /* \"contracts/nft.sol\":3623:3660  isApprovedForAll(owner, _msgSender()) */\n      jump\t// in\n    tag_115:\n        /* \"contracts/nft.sol\":3598:3660  _msgSender() == owner || isApprovedForAll(owner, _msgSender()) */\n    tag_114:\n        /* \"contracts/nft.sol\":3576:3749  require(\r... */\n      tag_117\n      jumpi\n      mload(0x40)\n      0x08c379a000000000000000000000000000000000000000000000000000000000\n      dup2\n      mstore\n      0x04\n      add\n      tag_118\n      swap1\n      tag_119\n      jump\t// in\n    tag_118:\n      mload(0x40)\n      dup1\n      swap2\n      sub\n      swap1\n      revert\n    tag_117:\n        /* \"contracts/nft.sol\":3762:3783  _approve(to, tokenId) */\n      tag_120\n        /* \"contracts/nft.sol\":3771:3773  to */\n      dup4\n        /* \"contracts/nft.sol\":3775:3782  tokenId */\n      dup4\n        /* \"contracts/nft.sol\":3762:3770  _approve */\n      tag_121\n        /* \"contracts/nft.sol\":3762:3783  _approve(to, tokenId) */\n      jump\t// in\n    tag_120:\n        /* \"contracts/nft.sol\":3378:3791  function approve(address to, uint256 tokenId) public virtual override {\r... */\n      pop\n      pop\n      pop\n      jump\t// out\n        /* \"contracts/nft.sol\":4324:4606  function transferFrom(\r... */\n    tag_45:\n        /* \"contracts/nft.sol\":4466:4507  _isApprovedOrOwner(_msgSender(), tokenId) */\n      tag_123\n        /* \"contracts/nft.sol\":4485:4497  _msgSender() */\n      tag_124\n        /* \"contracts/nft.sol\":4485:4495  _msgSender */\n      tag_113\n        /* \"contracts/nft.sol\":4485:4497  _msgSender() */\n      jump\t// in\n    tag_124:\n        /* \"contracts/nft.sol\":4499:4506  tokenId */\n      dup3\n        /* \"contracts/nft.sol\":4466:4484  _isApprovedOrOwner */\n      tag_125\n        /* \"contracts/nft.sol\":4466:4507  _isApprovedOrOwner(_msgSender(), tokenId) */\n      jump\t// in\n    tag_123:\n        /* \"contracts/nft.sol\":4458:4557  require(_isApprovedOrOwner(_msgSender(), tokenId), \"ERC721: caller is not token owner or approved\") */\n      tag_126\n      jumpi\n      mload(0x40)\n      0x08c379a000000000000000000000000000000000000000000000000000000000\n      dup2\n      mstore\n      0x04\n      add\n      tag_127\n      swap1\n      tag_128\n      jump\t// in\n    tag_127:\n      mload(0x40)\n      dup1\n      swap2\n      sub\n      swap1\n      revert\n    tag_126:\n        /* \"contracts/nft.sol\":4570:4598  _transfer(from, to, tokenId) */\n      tag_129\n        /* \"contracts/nft.sol\":4580:4584  from */\n      dup4\n        /* \"contracts/nft.sol\":4586:4588  to */\n      dup4\n        /* \"contracts/nft.sol\":4590:4597  tokenId */\n      dup4\n        /* \"contracts/nft.sol\":4570:4579  _transfer */\n      tag_130\n        /* \"contracts/nft.sol\":4570:4598  _transfer(from, to, tokenId) */\n      jump\t// in\n    tag_129:\n        /* \"contracts/nft.sol\":4324:4606  function transferFrom(\r... */\n      pop\n      pop\n      pop\n      jump\t// out\n        /* \"contracts/nft.sol\":5142:5379  function mint(address to,Collaborator  memory collaborator,uint256  collaboratorPercent,uint tokenId,string memory uri) public{\r... */\n    tag_49:\n        /* \"contracts/nft.sol\":5279:5334  _safeMint(to, collaborator,collaboratorPercent,tokenId) */\n      tag_132\n        /* \"contracts/nft.sol\":5289:5291  to */\n      dup6\n        /* \"contracts/nft.sol\":5293:5305  collaborator */\n      dup6\n        /* \"contracts/nft.sol\":5306:5325  collaboratorPercent */\n      dup6\n        /* \"contracts/nft.sol\":5326:5333  tokenId */\n      dup6\n        /* \"contracts/nft.sol\":5279:5288  _safeMint */\n      tag_133\n        /* \"contracts/nft.sol\":5279:5334  _safeMint(to, collaborator,collaboratorPercent,tokenId) */\n      jump\t// in\n    tag_132:\n        /* \"contracts/nft.sol\":5345:5371  _setTokenURI(tokenId, uri) */\n      tag_134\n        /* \"contracts/nft.sol\":5358:5365  tokenId */\n      dup3\n        /* \"contracts/nft.sol\":5367:5370  uri */\n      dup3\n        /* \"contracts/nft.sol\":5345:5357  _setTokenURI */\n      tag_135\n        /* \"contracts/nft.sol\":5345:5371  _setTokenURI(tokenId, uri) */\n      jump\t// in\n    tag_134:\n        /* \"contracts/nft.sol\":5142:5379  function mint(address to,Collaborator  memory collaborator,uint256  collaboratorPercent,uint tokenId,string memory uri) public{\r... */\n      pop\n      pop\n      pop\n      pop\n      pop\n      jump\t// out\n        /* \"contracts/nft.sol\":4616:4801  function safeTransferFrom(\r... */\n    tag_52:\n        /* \"contracts/nft.sol\":4754:4793  safeTransferFrom(from, to, tokenId, \"\") */\n      tag_137\n        /* \"contracts/nft.sol\":4771:4775  from */\n      dup4\n        /* \"contracts/nft.sol\":4777:4779  to */\n      dup4\n        /* \"contracts/nft.sol\":4781:4788  tokenId */\n      dup4\n        /* \"contracts/nft.sol\":4754:4793  safeTransferFrom(from, to, tokenId, \"\") */\n      mload(0x40)\n      dup1\n      0x20\n      add\n      0x40\n      mstore\n      dup1\n      0x00\n      dup2\n      mstore\n      pop\n        /* \"contracts/nft.sol\":4754:4770  safeTransferFrom */\n      tag_78\n        /* \"contracts/nft.sol\":4754:4793  safeTransferFrom(from, to, tokenId, \"\") */\n      jump\t// in\n    tag_137:\n        /* \"contracts/nft.sol\":4616:4801  function safeTransferFrom(\r... */\n      pop\n      pop\n      pop\n      jump\t// out\n        /* \"contracts/nft.sol\":2338:2536  function collaboratotOf(uint256 tokenId) public view virtual returns (Collaborator memory) {\r... */\n    tag_55:\n        /* \"contracts/nft.sol\":2408:2427  Collaborator memory */\n      tag_138\n      tag_139\n      jump\t// in\n    tag_138:\n        /* \"contracts/nft.sol\":2440:2472  Collaborator memory collaborator */\n      0x00\n        /* \"contracts/nft.sol\":2475:2489  _collaborators */\n      0x03\n        /* \"contracts/nft.sol\":2475:2498  _collaborators[tokenId] */\n      0x00\n        /* \"contracts/nft.sol\":2490:2497  tokenId */\n      dup5\n        /* \"contracts/nft.sol\":2475:2498  _collaborators[tokenId] */\n      dup2\n      mstore\n      0x20\n      add\n      swap1\n      dup2\n      mstore\n      0x20\n      add\n      0x00\n      keccak256\n        /* \"contracts/nft.sol\":2440:2498  Collaborator memory collaborator = _collaborators[tokenId] */\n      mload(0x40)\n      dup1\n      0x40\n      add\n      0x40\n      mstore\n      swap1\n      dup2\n      0x00\n      dup3\n      add\n      dup1\n      sload\n      dup1\n      0x20\n      mul\n      0x20\n      add\n      mload(0x40)\n      swap1\n      dup2\n      add\n      0x40\n      mstore\n      dup1\n      swap3\n      swap2\n      swap1\n      dup2\n      dup2\n      mstore\n      0x20\n      add\n      dup3\n      dup1\n      sload\n      dup1\n      iszero\n      tag_141\n      jumpi\n      0x20\n      mul\n      dup3\n      add\n      swap2\n      swap1\n      0x00\n      mstore\n      keccak256(0x00, 0x20)\n      swap1\n    tag_142:\n      dup2\n      0x00\n      swap1\n      sload\n      swap1\n      0x0100\n      exp\n      swap1\n      div\n      0xffffffffffffffffffffffffffffffffffffffff\n      and\n      0xffffffffffffffffffffffffffffffffffffffff\n      and\n      dup2\n      mstore\n      0x20\n      add\n      swap1\n      0x01\n      add\n      swap1\n      dup1\n      dup4\n      gt\n      tag_142\n      jumpi\n    tag_141:\n      pop\n      pop\n      pop\n      pop\n      pop\n      dup2\n      mstore\n      0x20\n      add\n      0x01\n      dup3\n      add\n      dup1\n      sload\n      dup1\n      0x20\n      mul\n      0x20\n      add\n      mload(0x40)\n      swap1\n      dup2\n      add\n      0x40\n      mstore\n      dup1\n      swap3\n      swap2\n      swap1\n      dup2\n      dup2\n      mstore\n      0x20\n      add\n      dup3\n      dup1\n      sload\n      dup1\n      iszero\n      tag_143\n      jumpi\n      0x20\n      mul\n      dup3\n      add\n      swap2\n      swap1\n      0x00\n      mstore\n      keccak256(0x00, 0x20)\n      swap1\n    tag_144:\n      dup2\n      sload\n      dup2\n      mstore\n      0x20\n      add\n      swap1\n      0x01\n      add\n      swap1\n      dup1\n      dup4\n      gt\n      tag_144\n      jumpi\n    tag_143:\n      pop\n      pop\n      pop\n      pop\n      pop\n      dup2\n      mstore\n      pop\n      pop\n      swap1\n      pop\n        /* \"contracts/nft.sol\":2516:2528  collaborator */\n      dup1\n        /* \"contracts/nft.sol\":2509:2528  return collaborator */\n      swap2\n      pop\n      pop\n        /* \"contracts/nft.sol\":2338:2536  function collaboratotOf(uint256 tokenId) public view virtual returns (Collaborator memory) {\r... */\n      swap2\n      swap1\n      pop\n      jump\t// out\n        /* \"contracts/nft.sol\":2107:2329  function ownerOf(uint256 tokenId) public view virtual override returns (address) {\r... */\n    tag_60:\n        /* \"contracts/nft.sol\":2179:2186  address */\n      0x00\n        /* \"contracts/nft.sol\":2199:2212  address owner */\n      dup1\n        /* \"contracts/nft.sol\":2215:2222  _owners */\n      0x02\n        /* \"contracts/nft.sol\":2215:2231  _owners[tokenId] */\n      0x00\n        /* \"contracts/nft.sol\":2223:2230  tokenId */\n      dup5\n        /* \"contracts/nft.sol\":2215:2231  _owners[tokenId] */\n      dup2\n      mstore\n      0x20\n      add\n      swap1\n      dup2\n      mstore\n      0x20\n      add\n      0x00\n      keccak256\n      0x00\n      swap1\n      sload\n      swap1\n      0x0100\n      exp\n      swap1\n      div\n      0xffffffffffffffffffffffffffffffffffffffff\n      and\n        /* \"contracts/nft.sol\":2199:2231  address owner = _owners[tokenId] */\n      swap1\n      pop\n        /* \"contracts/nft.sol\":2267:2268  0 */\n      0x00\n        /* \"contracts/nft.sol\":2250:2269  owner != address(0) */\n      0xffffffffffffffffffffffffffffffffffffffff\n      and\n        /* \"contracts/nft.sol\":2250:2255  owner */\n      dup2\n        /* \"contracts/nft.sol\":2250:2269  owner != address(0) */\n      0xffffffffffffffffffffffffffffffffffffffff\n      and\n      eq\n      iszero\n        /* \"contracts/nft.sol\":2242:2298  require(owner != address(0), \"ERC721: invalid token ID\") */\n      tag_146\n      jumpi\n      mload(0x40)\n      0x08c379a000000000000000000000000000000000000000000000000000000000\n      dup2\n      mstore\n      0x04\n      add\n      tag_147\n      swap1\n      tag_148\n      jump\t// in\n    tag_147:\n      mload(0x40)\n      dup1\n      swap2\n      sub\n      swap1\n      revert\n    tag_146:\n        /* \"contracts/nft.sol\":2316:2321  owner */\n      dup1\n        /* \"contracts/nft.sol\":2309:2321  return owner */\n      swap2\n      pop\n      pop\n        /* \"contracts/nft.sol\":2107:2329  function ownerOf(uint256 tokenId) public view virtual override returns (address) {\r... */\n      swap2\n      swap1\n      pop\n      jump\t// out\n        /* \"contracts/nft.sol\":1890:2097  function balanceOf(address owner) public view virtual override returns (uint256) {\r... */\n    tag_65:\n        /* \"contracts/nft.sol\":1962:1969  uint256 */\n      0x00\n        /* \"contracts/nft.sol\":2007:2008  0 */\n      dup1\n        /* \"contracts/nft.sol\":1990:2009  owner != address(0) */\n      0xffffffffffffffffffffffffffffffffffffffff\n      and\n        /* \"contracts/nft.sol\":1990:1995  owner */\n      dup3\n        /* \"contracts/nft.sol\":1990:2009  owner != address(0) */\n      0xffffffffffffffffffffffffffffffffffffffff\n      and\n      eq\n      iszero\n        /* \"contracts/nft.sol\":1982:2055  require(owner != address(0), \"ERC721: address zero is not a valid owner\") */\n      tag_150\n      jumpi\n      mload(0x40)\n      0x08c379a000000000000000000000000000000000000000000000000000000000\n      dup2\n      mstore\n      0x04\n      add\n      tag_151\n      swap1\n      tag_152\n      jump\t// in\n    tag_151:\n      mload(0x40)\n      dup1\n      swap2\n      sub\n      swap1\n      revert\n    tag_150:\n        /* \"contracts/nft.sol\":2073:2082  _balances */\n      0x05\n        /* \"contracts/nft.sol\":2073:2089  _balances[owner] */\n      0x00\n        /* \"contracts/nft.sol\":2083:2088  owner */\n      dup4\n        /* \"contracts/nft.sol\":2073:2089  _balances[owner] */\n      0xffffffffffffffffffffffffffffffffffffffff\n      and\n      0xffffffffffffffffffffffffffffffffffffffff\n      and\n      dup2\n      mstore\n      0x20\n      add\n      swap1\n      dup2\n      mstore\n      0x20\n      add\n      0x00\n      keccak256\n      sload\n        /* \"contracts/nft.sol\":2066:2089  return _balances[owner] */\n      swap1\n      pop\n        /* \"contracts/nft.sol\":1890:2097  function balanceOf(address owner) public view virtual override returns (uint256) {\r... */\n      swap2\n      swap1\n      pop\n      jump\t// out\n        /* \"contracts/nft.sol\":2875:2979  function symbol() public view virtual override returns (string memory) {\r... */\n    tag_69:\n        /* \"contracts/nft.sol\":2931:2944  string memory */\n      0x60\n        /* \"contracts/nft.sol\":2964:2971  _symbol */\n      0x01\n        /* \"contracts/nft.sol\":2957:2971  return _symbol */\n      dup1\n      sload\n      tag_154\n      swap1\n      tag_99\n      jump\t// in\n    tag_154:\n      dup1\n      0x1f\n      add\n      0x20\n      dup1\n      swap2\n      div\n      mul\n      0x20\n      add\n      mload(0x40)\n      swap1\n      dup2\n      add\n      0x40\n      mstore\n      dup1\n      swap3\n      swap2\n      swap1\n      dup2\n      dup2\n      mstore\n      0x20\n      add\n      dup3\n      dup1\n      sload\n      tag_155\n      swap1\n      tag_99\n      jump\t// in\n    tag_155:\n      dup1\n      iszero\n      tag_156\n      jumpi\n      dup1\n      0x1f\n      lt\n      tag_157\n      jumpi\n      0x0100\n      dup1\n      dup4\n      sload\n      div\n      mul\n      dup4\n      mstore\n      swap2\n      0x20\n      add\n      swap2\n      jump(tag_156)\n    tag_157:\n      dup3\n      add\n      swap2\n      swap1\n      0x00\n      mstore\n      keccak256(0x00, 0x20)\n      swap1\n    tag_158:\n      dup2\n      sload\n      dup2\n      mstore\n      swap1\n      0x01\n      add\n      swap1\n      0x20\n      add\n      dup1\n      dup4\n      gt\n      tag_158\n      jumpi\n      dup3\n      swap1\n      sub\n      0x1f\n      and\n      dup3\n      add\n      swap2\n    tag_156:\n      pop\n      pop\n      pop\n      pop\n      pop\n      swap1\n      pop\n        /* \"contracts/nft.sol\":2875:2979  function symbol() public view virtual override returns (string memory) {\r... */\n      swap1\n      jump\t// out\n        /* \"contracts/nft.sol\":3985:4140  function setApprovalForAll(address operator, bool approved) public virtual override {\r... */\n    tag_74:\n        /* \"contracts/nft.sol\":4080:4132  _setApprovalForAll(_msgSender(), operator, approved) */\n      tag_160\n        /* \"contracts/nft.sol\":4099:4111  _msgSender() */\n      tag_161\n        /* \"contracts/nft.sol\":4099:4109  _msgSender */\n      tag_113\n        /* \"contracts/nft.sol\":4099:4111  _msgSender() */\n      jump\t// in\n    tag_161:\n        /* \"contracts/nft.sol\":4113:4121  operator */\n      dup4\n        /* \"contracts/nft.sol\":4123:4131  approved */\n      dup4\n        /* \"contracts/nft.sol\":4080:4098  _setApprovalForAll */\n      tag_162\n        /* \"contracts/nft.sol\":4080:4132  _setApprovalForAll(_msgSender(), operator, approved) */\n      jump\t// in\n    tag_160:\n        /* \"contracts/nft.sol\":3985:4140  function setApprovalForAll(address operator, bool approved) public virtual override {\r... */\n      pop\n      pop\n      jump\t// out\n        /* \"contracts/nft.sol\":4811:5133  function safeTransferFrom(\r... */\n    tag_78:\n        /* \"contracts/nft.sol\":4985:5026  _isApprovedOrOwner(_msgSender(), tokenId) */\n      tag_164\n        /* \"contracts/nft.sol\":5004:5016  _msgSender() */\n      tag_165\n        /* \"contracts/nft.sol\":5004:5014  _msgSender */\n      tag_113\n        /* \"contracts/nft.sol\":5004:5016  _msgSender() */\n      jump\t// in\n    tag_165:\n        /* \"contracts/nft.sol\":5018:5025  tokenId */\n      dup4\n        /* \"contracts/nft.sol\":4985:5003  _isApprovedOrOwner */\n      tag_125\n        /* \"contracts/nft.sol\":4985:5026  _isApprovedOrOwner(_msgSender(), tokenId) */\n      jump\t// in\n    tag_164:\n        /* \"contracts/nft.sol\":4977:5076  require(_isApprovedOrOwner(_msgSender(), tokenId), \"ERC721: caller is not token owner or approved\") */\n      tag_166\n      jumpi\n      mload(0x40)\n      0x08c379a000000000000000000000000000000000000000000000000000000000\n      dup2\n      mstore\n      0x04\n      add\n      tag_167\n      swap1\n      tag_128\n      jump\t// in\n    tag_167:\n      mload(0x40)\n      dup1\n      swap2\n      sub\n      swap1\n      revert\n    tag_166:\n        /* \"contracts/nft.sol\":5087:5125  _safeTransfer(from, to, tokenId, data) */\n      tag_168\n        /* \"contracts/nft.sol\":5101:5105  from */\n      dup5\n        /* \"contracts/nft.sol\":5107:5109  to */\n      dup5\n        /* \"contracts/nft.sol\":5111:5118  tokenId */\n      dup5\n        /* \"contracts/nft.sol\":5120:5124  data */\n      dup5\n        /* \"contracts/nft.sol\":5087:5100  _safeTransfer */\n      tag_169\n        /* \"contracts/nft.sol\":5087:5125  _safeTransfer(from, to, tokenId, data) */\n      jump\t// in\n    tag_168:\n        /* \"contracts/nft.sol\":4811:5133  function safeTransferFrom(\r... */\n      pop\n      pop\n      pop\n      pop\n      jump\t// out\n        /* \"contracts/nft.sol\":2987:3268  function tokenURI(uint256 tokenId) public view virtual override returns (string memory) {\r... */\n    tag_81:\n        /* \"contracts/nft.sol\":3060:3073  string memory */\n      0x60\n        /* \"contracts/nft.sol\":3086:3109  _requireMinted(tokenId) */\n      tag_171\n        /* \"contracts/nft.sol\":3101:3108  tokenId */\n      dup3\n        /* \"contracts/nft.sol\":3086:3100  _requireMinted */\n      tag_106\n        /* \"contracts/nft.sol\":3086:3109  _requireMinted(tokenId) */\n      jump\t// in\n    tag_171:\n        /* \"contracts/nft.sol\":3122:3143  string memory baseURI */\n      0x00\n        /* \"contracts/nft.sol\":3146:3156  _baseURI() */\n      tag_172\n        /* \"contracts/nft.sol\":3146:3154  _baseURI */\n      tag_173\n        /* \"contracts/nft.sol\":3146:3156  _baseURI() */\n      jump\t// in\n    tag_172:\n        /* \"contracts/nft.sol\":3122:3156  string memory baseURI = _baseURI() */\n      swap1\n      pop\n        /* \"contracts/nft.sol\":3198:3199  0 */\n      0x00\n        /* \"contracts/nft.sol\":3180:3187  baseURI */\n      dup2\n        /* \"contracts/nft.sol\":3174:3195  bytes(baseURI).length */\n      mload\n        /* \"contracts/nft.sol\":3174:3199  bytes(baseURI).length > 0 */\n      gt\n        /* \"contracts/nft.sol\":3174:3260  bytes(baseURI).length > 0 ? string(abi.encodePacked(baseURI, tokenId.toString())) : \"\" */\n      tag_174\n      jumpi\n      mload(0x40)\n      dup1\n      0x20\n      add\n      0x40\n      mstore\n      dup1\n      0x00\n      dup2\n      mstore\n      pop\n      jump(tag_175)\n    tag_174:\n        /* \"contracts/nft.sol\":3226:3233  baseURI */\n      dup1\n        /* \"contracts/nft.sol\":3235:3253  tokenId.toString() */\n      tag_176\n        /* \"contracts/nft.sol\":3235:3242  tokenId */\n      dup5\n        /* \"contracts/nft.sol\":3235:3251  tokenId.toString */\n      tag_177\n        /* \"contracts/nft.sol\":3235:3253  tokenId.toString() */\n      jump\t// in\n    tag_176:\n        /* \"contracts/nft.sol\":3209:3254  abi.encodePacked(baseURI, tokenId.toString()) */\n      add(0x20, mload(0x40))\n      tag_178\n      swap3\n      swap2\n      swap1\n      tag_179\n      jump\t// in\n    tag_178:\n      mload(0x40)\n      0x20\n      dup2\n      dup4\n      sub\n      sub\n      dup2\n      mstore\n      swap1\n      0x40\n      mstore\n        /* \"contracts/nft.sol\":3174:3260  bytes(baseURI).length > 0 ? string(abi.encodePacked(baseURI, tokenId.toString())) : \"\" */\n    tag_175:\n        /* \"contracts/nft.sol\":3167:3260  return bytes(baseURI).length > 0 ? string(abi.encodePacked(baseURI, tokenId.toString())) : \"\" */\n      swap2\n      pop\n      pop\n        /* \"contracts/nft.sol\":2987:3268  function tokenURI(uint256 tokenId) public view virtual override returns (string memory) {\r... */\n      swap2\n      swap1\n      pop\n      jump\t// out\n        /* \"contracts/nft.sol\":4150:4314  function isApprovedForAll(address owner, address operator) public view virtual override returns (bool) {\r... */\n    tag_86:\n        /* \"contracts/nft.sol\":4247:4251  bool */\n      0x00\n        /* \"contracts/nft.sol\":4271:4289  _operatorApprovals */\n      0x07\n        /* \"contracts/nft.sol\":4271:4296  _operatorApprovals[owner] */\n      0x00\n        /* \"contracts/nft.sol\":4290:4295  owner */\n      dup5\n        /* \"contracts/nft.sol\":4271:4296  _operatorApprovals[owner] */\n      0xffffffffffffffffffffffffffffffffffffffff\n      and\n      0xffffffffffffffffffffffffffffffffffffffff\n      and\n      dup2\n      mstore\n      0x20\n      add\n      swap1\n      dup2\n      mstore\n      0x20\n      add\n      0x00\n      keccak256\n        /* \"contracts/nft.sol\":4271:4306  _operatorApprovals[owner][operator] */\n      0x00\n        /* \"contracts/nft.sol\":4297:4305  operator */\n      dup4\n        /* \"contracts/nft.sol\":4271:4306  _operatorApprovals[owner][operator] */\n      0xffffffffffffffffffffffffffffffffffffffff\n      and\n      0xffffffffffffffffffffffffffffffffffffffff\n      and\n      dup2\n      mstore\n      0x20\n      add\n      swap1\n      dup2\n      mstore\n      0x20\n      add\n      0x00\n      keccak256\n      0x00\n      swap1\n      sload\n      swap1\n      0x0100\n      exp\n      swap1\n      div\n      0xff\n      and\n        /* \"contracts/nft.sol\":4264:4306  return _operatorApprovals[owner][operator] */\n      swap1\n      pop\n        /* \"contracts/nft.sol\":4150:4314  function isApprovedForAll(address owner, address operator) public view virtual override returns (bool) {\r... */\n      swap3\n      swap2\n      pop\n      pop\n      jump\t// out\n        /* \"contracts/nft.sol\":2544:2758  function collaboratotPercentageOf(uint256 tokenId) public view virtual returns (uint256) {\r... */\n    tag_90:\n        /* \"contracts/nft.sol\":2624:2631  uint256 */\n      0x00\n        /* \"contracts/nft.sol\":2644:2674  uint256 collaboratorPercentage */\n      dup1\n        /* \"contracts/nft.sol\":2677:2701  _collaboratorsPercentage */\n      0x04\n        /* \"contracts/nft.sol\":2677:2710  _collaboratorsPercentage[tokenId] */\n      0x00\n        /* \"contracts/nft.sol\":2702:2709  tokenId */\n      dup5\n        /* \"contracts/nft.sol\":2677:2710  _collaboratorsPercentage[tokenId] */\n      dup2\n      mstore\n      0x20\n      add\n      swap1\n      dup2\n      mstore\n      0x20\n      add\n      0x00\n      keccak256\n      sload\n        /* \"contracts/nft.sol\":2644:2710  uint256 collaboratorPercentage = _collaboratorsPercentage[tokenId] */\n      swap1\n      pop\n        /* \"contracts/nft.sol\":2728:2750  collaboratorPercentage */\n      dup1\n        /* \"contracts/nft.sol\":2721:2750  return collaboratorPercentage */\n      swap2\n      pop\n      pop\n        /* \"contracts/nft.sol\":2544:2758  function collaboratotPercentageOf(uint256 tokenId) public view virtual returns (uint256) {\r... */\n      swap2\n      swap1\n      pop\n      jump\t// out\n        /* \"@openzeppelin/contracts@4.6.0/utils/introspection/ERC165.sol\":829:984  function supportsInterface(bytes4 interfaceId) public view virtual override returns (bool) {... */\n    tag_96:\n        /* \"@openzeppelin/contracts@4.6.0/utils/introspection/ERC165.sol\":914:918  bool */\n      0x00\n        /* \"@openzeppelin/contracts@4.6.0/utils/introspection/ERC165.sol\":952:977  type(IERC165).interfaceId */\n      0x01ffc9a700000000000000000000000000000000000000000000000000000000\n        /* \"@openzeppelin/contracts@4.6.0/utils/introspection/ERC165.sol\":937:977  interfaceId == type(IERC165).interfaceId */\n      not(0xffffffffffffffffffffffffffffffffffffffffffffffffffffffff)\n      and\n        /* \"@openzeppelin/contracts@4.6.0/utils/introspection/ERC165.sol\":937:948  interfaceId */\n      dup3\n        /* \"@openzeppelin/contracts@4.6.0/utils/introspection/ERC165.sol\":937:977  interfaceId == type(IERC165).interfaceId */\n      not(0xffffffffffffffffffffffffffffffffffffffffffffffffffffffff)\n      and\n      eq\n        /* \"@openzeppelin/contracts@4.6.0/utils/introspection/ERC165.sol\":930:977  return interfaceId == type(IERC165).interfaceId */\n      swap1\n      pop\n        /* \"@openzeppelin/contracts@4.6.0/utils/introspection/ERC165.sol\":829:984  function supportsInterface(bytes4 interfaceId) public view virtual override returns (bool) {... */\n      swap2\n      swap1\n      pop\n      jump\t// out\n        /* \"contracts/nft.sol\":9479:9614  function _requireMinted(uint256 tokenId) internal view virtual {\r... */\n    tag_106:\n        /* \"contracts/nft.sol\":9561:9577  _exists(tokenId) */\n      tag_184\n        /* \"contracts/nft.sol\":9569:9576  tokenId */\n      dup2\n        /* \"contracts/nft.sol\":9561:9568  _exists */\n      tag_185\n        /* \"contracts/nft.sol\":9561:9577  _exists(tokenId) */\n      jump\t// in\n    tag_184:\n        /* \"contracts/nft.sol\":9553:9606  require(_exists(tokenId), \"ERC721: invalid token ID\") */\n      tag_186\n      jumpi\n      mload(0x40)\n      0x08c379a000000000000000000000000000000000000000000000000000000000\n      dup2\n      mstore\n      0x04\n      add\n      tag_187\n      swap1\n      tag_148\n      jump\t// in\n    tag_187:\n      mload(0x40)\n      dup1\n      swap2\n      sub\n      swap1\n      revert\n    tag_186:\n        /* \"contracts/nft.sol\":9479:9614  function _requireMinted(uint256 tokenId) internal view virtual {\r... */\n      pop\n      jump\t// out\n        /* \"@openzeppelin/contracts@4.6.0/utils/Context.sol\":640:736  function _msgSender() internal view virtual returns (address) {... */\n    tag_113:\n        /* \"@openzeppelin/contracts@4.6.0/utils/Context.sol\":693:700  address */\n      0x00\n        /* \"@openzeppelin/contracts@4.6.0/utils/Context.sol\":719:729  msg.sender */\n      caller\n        /* \"@openzeppelin/contracts@4.6.0/utils/Context.sol\":712:729  return msg.sender */\n      swap1\n      pop\n        /* \"@openzeppelin/contracts@4.6.0/utils/Context.sol\":640:736  function _msgSender() internal view virtual returns (address) {... */\n      swap1\n      jump\t// out\n        /* \"contracts/nft.sol\":8977:9148  function _approve(address to, uint256 tokenId) internal virtual {\r... */\n    tag_121:\n        /* \"contracts/nft.sol\":9079:9081  to */\n      dup2\n        /* \"contracts/nft.sol\":9052:9067  _tokenApprovals */\n      0x06\n        /* \"contracts/nft.sol\":9052:9076  _tokenApprovals[tokenId] */\n      0x00\n        /* \"contracts/nft.sol\":9068:9075  tokenId */\n      dup4\n        /* \"contracts/nft.sol\":9052:9076  _tokenApprovals[tokenId] */\n      dup2\n      mstore\n      0x20\n      add\n      swap1\n      dup2\n      mstore\n      0x20\n      add\n      0x00\n      keccak256\n      0x00\n        /* \"contracts/nft.sol\":9052:9081  _tokenApprovals[tokenId] = to */\n      0x0100\n      exp\n      dup2\n      sload\n      dup2\n      0xffffffffffffffffffffffffffffffffffffffff\n      mul\n      not\n      and\n      swap1\n      dup4\n      0xffffffffffffffffffffffffffffffffffffffff\n      and\n      mul\n      or\n      swap1\n      sstore\n      pop\n        /* \"contracts/nft.sol\":9132:9139  tokenId */\n      dup1\n        /* \"contracts/nft.sol\":9128:9130  to */\n      dup3\n        /* \"contracts/nft.sol\":9097:9140  Approval(nft.ownerOf(tokenId), to, tokenId) */\n      0xffffffffffffffffffffffffffffffffffffffff\n      and\n        /* \"contracts/nft.sol\":9106:9126  nft.ownerOf(tokenId) */\n      tag_190\n        /* \"contracts/nft.sol\":9118:9125  tokenId */\n      dup4\n        /* \"contracts/nft.sol\":9106:9117  nft.ownerOf */\n      tag_60\n        /* \"contracts/nft.sol\":9106:9126  nft.ownerOf(tokenId) */\n      jump\t// in\n    tag_190:\n        /* \"contracts/nft.sol\":9097:9140  Approval(nft.ownerOf(tokenId), to, tokenId) */\n      0xffffffffffffffffffffffffffffffffffffffff\n      and\n      0x8c5be1e5ebec7d5bd14f71427d1e84f3dd0314c0f7b2291e5b200ac8c7c3b925\n      mload(0x40)\n      mload(0x40)\n      dup1\n      swap2\n      sub\n      swap1\n      log4\n        /* \"contracts/nft.sol\":8977:9148  function _approve(address to, uint256 tokenId) internal virtual {\r... */\n      pop\n      pop\n      jump\t// out\n        /* \"contracts/nft.sol\":5845:6106  function _isApprovedOrOwner(address spender, uint256 tokenId) internal view virtual returns (bool) {\r... */\n    tag_125:\n        /* \"contracts/nft.sol\":5938:5942  bool */\n      0x00\n        /* \"contracts/nft.sol\":5955:5968  address owner */\n      dup1\n        /* \"contracts/nft.sol\":5971:5991  nft.ownerOf(tokenId) */\n      tag_192\n        /* \"contracts/nft.sol\":5983:5990  tokenId */\n      dup4\n        /* \"contracts/nft.sol\":5971:5982  nft.ownerOf */\n      tag_60\n        /* \"contracts/nft.sol\":5971:5991  nft.ownerOf(tokenId) */\n      jump\t// in\n    tag_192:\n        /* \"contracts/nft.sol\":5955:5991  address owner = nft.ownerOf(tokenId) */\n      swap1\n      pop\n        /* \"contracts/nft.sol\":6021:6026  owner */\n      dup1\n        /* \"contracts/nft.sol\":6010:6026  spender == owner */\n      0xffffffffffffffffffffffffffffffffffffffff\n      and\n        /* \"contracts/nft.sol\":6010:6017  spender */\n      dup5\n        /* \"contracts/nft.sol\":6010:6026  spender == owner */\n      0xffffffffffffffffffffffffffffffffffffffff\n      and\n      eq\n        /* \"contracts/nft.sol\":6010:6062  spender == owner || isApprovedForAll(owner, spender) */\n      dup1\n      tag_193\n      jumpi\n      pop\n        /* \"contracts/nft.sol\":6030:6062  isApprovedForAll(owner, spender) */\n      tag_194\n        /* \"contracts/nft.sol\":6047:6052  owner */\n      dup2\n        /* \"contracts/nft.sol\":6054:6061  spender */\n      dup6\n        /* \"contracts/nft.sol\":6030:6046  isApprovedForAll */\n      tag_86\n        /* \"contracts/nft.sol\":6030:6062  isApprovedForAll(owner, spender) */\n      jump\t// in\n    tag_194:\n        /* \"contracts/nft.sol\":6010:6062  spender == owner || isApprovedForAll(owner, spender) */\n    tag_193:\n        /* \"contracts/nft.sol\":6010:6097  spender == owner || isApprovedForAll(owner, spender) || getApproved(tokenId) == spender */\n      dup1\n      tag_195\n      jumpi\n      pop\n        /* \"contracts/nft.sol\":6090:6097  spender */\n      dup4\n        /* \"contracts/nft.sol\":6066:6097  getApproved(tokenId) == spender */\n      0xffffffffffffffffffffffffffffffffffffffff\n      and\n        /* \"contracts/nft.sol\":6066:6086  getApproved(tokenId) */\n      tag_196\n        /* \"contracts/nft.sol\":6078:6085  tokenId */\n      dup5\n        /* \"contracts/nft.sol\":6066:6077  getApproved */\n      tag_35\n        /* \"contracts/nft.sol\":6066:6086  getApproved(tokenId) */\n      jump\t// in\n    tag_196:\n        /* \"contracts/nft.sol\":6066:6097  getApproved(tokenId) == spender */\n      0xffffffffffffffffffffffffffffffffffffffff\n      and\n      eq\n        /* \"contracts/nft.sol\":6010:6097  spender == owner || isApprovedForAll(owner, spender) || getApproved(tokenId) == spender */\n    tag_195:\n        /* \"contracts/nft.sol\":6002:6098  return (spender == owner || isApprovedForAll(owner, spender) || getApproved(tokenId) == spender) */\n      swap2\n      pop\n      pop\n        /* \"contracts/nft.sol\":5845:6106  function _isApprovedOrOwner(address spender, uint256 tokenId) internal view virtual returns (bool) {\r... */\n      swap3\n      swap2\n      pop\n      pop\n      jump\t// out\n        /* \"contracts/nft.sol\":8210:8967  function _transfer(\r... */\n    tag_130:\n        /* \"contracts/nft.sol\":8366:8370  from */\n      dup3\n        /* \"contracts/nft.sol\":8342:8370  nft.ownerOf(tokenId) == from */\n      0xffffffffffffffffffffffffffffffffffffffff\n      and\n        /* \"contracts/nft.sol\":8342:8362  nft.ownerOf(tokenId) */\n      tag_198\n        /* \"contracts/nft.sol\":8354:8361  tokenId */\n      dup3\n        /* \"contracts/nft.sol\":8342:8353  nft.ownerOf */\n      tag_60\n        /* \"contracts/nft.sol\":8342:8362  nft.ownerOf(tokenId) */\n      jump\t// in\n    tag_198:\n        /* \"contracts/nft.sol\":8342:8370  nft.ownerOf(tokenId) == from */\n      0xffffffffffffffffffffffffffffffffffffffff\n      and\n      eq\n        /* \"contracts/nft.sol\":8334:8412  require(nft.ownerOf(tokenId) == from, \"ERC721: transfer from incorrect owner\") */\n      tag_199\n      jumpi\n      mload(0x40)\n      0x08c379a000000000000000000000000000000000000000000000000000000000\n      dup2\n      mstore\n      0x04\n      add\n      tag_200\n      swap1\n      tag_201\n      jump\t// in\n    tag_200:\n      mload(0x40)\n      dup1\n      swap2\n      sub\n      swap1\n      revert\n    tag_199:\n        /* \"contracts/nft.sol\":8445:8446  0 */\n      0x00\n        /* \"contracts/nft.sol\":8431:8447  to != address(0) */\n      0xffffffffffffffffffffffffffffffffffffffff\n      and\n        /* \"contracts/nft.sol\":8431:8433  to */\n      dup3\n        /* \"contracts/nft.sol\":8431:8447  to != address(0) */\n      0xffffffffffffffffffffffffffffffffffffffff\n      and\n      eq\n      iszero\n        /* \"contracts/nft.sol\":8423:8488  require(to != address(0), \"ERC721: transfer to the zero address\") */\n      tag_202\n      jumpi\n      mload(0x40)\n      0x08c379a000000000000000000000000000000000000000000000000000000000\n      dup2\n      mstore\n      0x04\n      add\n      tag_203\n      swap1\n      tag_204\n      jump\t// in\n    tag_203:\n      mload(0x40)\n      dup1\n      swap2\n      sub\n      swap1\n      revert\n    tag_202:\n        /* \"contracts/nft.sol\":8501:8540  _beforeTokenTransfer(from, to, tokenId) */\n      tag_205\n        /* \"contracts/nft.sol\":8522:8526  from */\n      dup4\n        /* \"contracts/nft.sol\":8528:8530  to */\n      dup4\n        /* \"contracts/nft.sol\":8532:8539  tokenId */\n      dup4\n        /* \"contracts/nft.sol\":8501:8521  _beforeTokenTransfer */\n      tag_206\n        /* \"contracts/nft.sol\":8501:8540  _beforeTokenTransfer(from, to, tokenId) */\n      jump\t// in\n    tag_205:\n        /* \"contracts/nft.sol\":8585:8589  from */\n      dup3\n        /* \"contracts/nft.sol\":8561:8589  nft.ownerOf(tokenId) == from */\n      0xffffffffffffffffffffffffffffffffffffffff\n      and\n        /* \"contracts/nft.sol\":8561:8581  nft.ownerOf(tokenId) */\n      tag_207\n        /* \"contracts/nft.sol\":8573:8580  tokenId */\n      dup3\n        /* \"contracts/nft.sol\":8561:8572  nft.ownerOf */\n      tag_60\n        /* \"contracts/nft.sol\":8561:8581  nft.ownerOf(tokenId) */\n      jump\t// in\n    tag_207:\n        /* \"contracts/nft.sol\":8561:8589  nft.ownerOf(tokenId) == from */\n      0xffffffffffffffffffffffffffffffffffffffff\n      and\n      eq\n        /* \"contracts/nft.sol\":8553:8631  require(nft.ownerOf(tokenId) == from, \"ERC721: transfer from incorrect owner\") */\n      tag_208\n      jumpi\n      mload(0x40)\n      0x08c379a000000000000000000000000000000000000000000000000000000000\n      dup2\n      mstore\n      0x04\n      add\n      tag_209\n      swap1\n      tag_201\n      jump\t// in\n    tag_209:\n      mload(0x40)\n      dup1\n      swap2\n      sub\n      swap1\n      revert\n    tag_208:\n        /* \"contracts/nft.sol\":8703:8718  _tokenApprovals */\n      0x06\n        /* \"contracts/nft.sol\":8703:8727  _tokenApprovals[tokenId] */\n      0x00\n        /* \"contracts/nft.sol\":8719:8726  tokenId */\n      dup3\n        /* \"contracts/nft.sol\":8703:8727  _tokenApprovals[tokenId] */\n      dup2\n      mstore\n      0x20\n      add\n      swap1\n      dup2\n      mstore\n      0x20\n      add\n      0x00\n      keccak256\n      0x00\n        /* \"contracts/nft.sol\":8696:8727  delete _tokenApprovals[tokenId] */\n      0x0100\n      exp\n      dup2\n      sload\n      swap1\n      0xffffffffffffffffffffffffffffffffffffffff\n      mul\n      not\n      and\n      swap1\n      sstore\n        /* \"contracts/nft.sol\":8786:8787  1 */\n      0x01\n        /* \"contracts/nft.sol\":8767:8776  _balances */\n      0x05\n        /* \"contracts/nft.sol\":8767:8782  _balances[from] */\n      0x00\n        /* \"contracts/nft.sol\":8777:8781  from */\n      dup6\n        /* \"contracts/nft.sol\":8767:8782  _balances[from] */\n      0xffffffffffffffffffffffffffffffffffffffff\n      and\n      0xffffffffffffffffffffffffffffffffffffffff\n      and\n      dup2\n      mstore\n      0x20\n      add\n      swap1\n      dup2\n      mstore\n      0x20\n      add\n      0x00\n      keccak256\n      0x00\n        /* \"contracts/nft.sol\":8767:8787  _balances[from] -= 1 */\n      dup3\n      dup3\n      sload\n      sub\n      swap3\n      pop\n      pop\n      dup2\n      swap1\n      sstore\n      pop\n        /* \"contracts/nft.sol\":8819:8820  1 */\n      0x01\n        /* \"contracts/nft.sol\":8802:8811  _balances */\n      0x05\n        /* \"contracts/nft.sol\":8802:8815  _balances[to] */\n      0x00\n        /* \"contracts/nft.sol\":8812:8814  to */\n      dup5\n        /* \"contracts/nft.sol\":8802:8815  _balances[to] */\n      0xffffffffffffffffffffffffffffffffffffffff\n      and\n      0xffffffffffffffffffffffffffffffffffffffff\n      and\n      dup2\n      mstore\n      0x20\n      add\n      swap1\n      dup2\n      mstore\n      0x20\n      add\n      0x00\n      keccak256\n      0x00\n        /* \"contracts/nft.sol\":8802:8820  _balances[to] += 1 */\n      dup3\n      dup3\n      sload\n      add\n      swap3\n      pop\n      pop\n      dup2\n      swap1\n      sstore\n      pop\n        /* \"contracts/nft.sol\":8861:8863  to */\n      dup2\n        /* \"contracts/nft.sol\":8842:8849  _owners */\n      0x02\n        /* \"contracts/nft.sol\":8842:8858  _owners[tokenId] */\n      0x00\n        /* \"contracts/nft.sol\":8850:8857  tokenId */\n      dup4\n        /* \"contracts/nft.sol\":8842:8858  _owners[tokenId] */\n      dup2\n      mstore\n      0x20\n      add\n      swap1\n      dup2\n      mstore\n      0x20\n      add\n      0x00\n      keccak256\n      0x00\n        /* \"contracts/nft.sol\":8842:8863  _owners[tokenId] = to */\n      0x0100\n      exp\n      dup2\n      sload\n      dup2\n      0xffffffffffffffffffffffffffffffffffffffff\n      mul\n      not\n      and\n      swap1\n      dup4\n      0xffffffffffffffffffffffffffffffffffffffff\n      and\n      mul\n      or\n      swap1\n      sstore\n      pop\n        /* \"contracts/nft.sol\":8900:8907  tokenId */\n      dup1\n        /* \"contracts/nft.sol\":8896:8898  to */\n      dup3\n        /* \"contracts/nft.sol\":8881:8908  Transfer(from, to, tokenId) */\n      0xffffffffffffffffffffffffffffffffffffffff\n      and\n        /* \"contracts/nft.sol\":8890:8894  from */\n      dup5\n        /* \"contracts/nft.sol\":8881:8908  Transfer(from, to, tokenId) */\n      0xffffffffffffffffffffffffffffffffffffffff\n      and\n      0xddf252ad1be2c89b69c2b068fc378daa952ba7f163c4a11628f55a4df523b3ef\n      mload(0x40)\n      mload(0x40)\n      dup1\n      swap2\n      sub\n      swap1\n      log4\n        /* \"contracts/nft.sol\":8921:8959  _afterTokenTransfer(from, to, tokenId) */\n      tag_210\n        /* \"contracts/nft.sol\":8941:8945  from */\n      dup4\n        /* \"contracts/nft.sol\":8947:8949  to */\n      dup4\n        /* \"contracts/nft.sol\":8951:8958  tokenId */\n      dup4\n        /* \"contracts/nft.sol\":8921:8940  _afterTokenTransfer */\n      tag_211\n        /* \"contracts/nft.sol\":8921:8959  _afterTokenTransfer(from, to, tokenId) */\n      jump\t// in\n    tag_210:\n        /* \"contracts/nft.sol\":8210:8967  function _transfer(\r... */\n      pop\n      pop\n      pop\n      jump\t// out\n        /* \"contracts/nft.sol\":6114:6317  function _safeMint(address to,Collaborator memory collaborator,uint256 collaboratorPercent,uint256 tokenId) internal virtual {\r... */\n    tag_133:\n        /* \"contracts/nft.sol\":6250:6309  _safeMint(to, collaborator,collaboratorPercent,tokenId, \"\") */\n      tag_213\n        /* \"contracts/nft.sol\":6260:6262  to */\n      dup5\n        /* \"contracts/nft.sol\":6264:6276  collaborator */\n      dup5\n        /* \"contracts/nft.sol\":6277:6296  collaboratorPercent */\n      dup5\n        /* \"contracts/nft.sol\":6297:6304  tokenId */\n      dup5\n        /* \"contracts/nft.sol\":6250:6309  _safeMint(to, collaborator,collaboratorPercent,tokenId, \"\") */\n      mload(0x40)\n      dup1\n      0x20\n      add\n      0x40\n      mstore\n      dup1\n      0x00\n      dup2\n      mstore\n      pop\n        /* \"contracts/nft.sol\":6250:6259  _safeMint */\n      tag_214\n        /* \"contracts/nft.sol\":6250:6309  _safeMint(to, collaborator,collaboratorPercent,tokenId, \"\") */\n      jump\t// in\n    tag_213:\n        /* \"contracts/nft.sol\":6114:6317  function _safeMint(address to,Collaborator memory collaborator,uint256 collaboratorPercent,uint256 tokenId) internal virtual {\r... */\n      pop\n      pop\n      pop\n      pop\n      jump\t// out\n        /* \"contracts/nft.sol\":7980:8200  function _setTokenURI(uint256 tokenId, string memory _tokenURI) internal virtual {\r... */\n    tag_135:\n        /* \"contracts/nft.sol\":8183:8192  _tokenURI */\n      dup1\n        /* \"contracts/nft.sol\":8161:8171  _tokenURIs */\n      0x08\n        /* \"contracts/nft.sol\":8161:8180  _tokenURIs[tokenId] */\n      0x00\n        /* \"contracts/nft.sol\":8172:8179  tokenId */\n      dup5\n        /* \"contracts/nft.sol\":8161:8180  _tokenURIs[tokenId] */\n      dup2\n      mstore\n      0x20\n      add\n      swap1\n      dup2\n      mstore\n      0x20\n      add\n      0x00\n      keccak256\n        /* \"contracts/nft.sol\":8161:8192  _tokenURIs[tokenId] = _tokenURI */\n      swap1\n      dup1\n      mload\n      swap1\n      0x20\n      add\n      swap1\n      tag_216\n      swap3\n      swap2\n      swap1\n      tag_217\n      jump\t// in\n    tag_216:\n      pop\n        /* \"contracts/nft.sol\":7980:8200  function _setTokenURI(uint256 tokenId, string memory _tokenURI) internal virtual {\r... */\n      pop\n      pop\n      jump\t// out\n        /* \"contracts/nft.sol\":9156:9471  function _setApprovalForAll(\r... */\n    tag_162:\n        /* \"contracts/nft.sol\":9311:9319  operator */\n      dup2\n        /* \"contracts/nft.sol\":9302:9319  owner != operator */\n      0xffffffffffffffffffffffffffffffffffffffff\n      and\n        /* \"contracts/nft.sol\":9302:9307  owner */\n      dup4\n        /* \"contracts/nft.sol\":9302:9319  owner != operator */\n      0xffffffffffffffffffffffffffffffffffffffff\n      and\n      eq\n      iszero\n        /* \"contracts/nft.sol\":9294:9349  require(owner != operator, \"ERC721: approve to caller\") */\n      tag_219\n      jumpi\n      mload(0x40)\n      0x08c379a000000000000000000000000000000000000000000000000000000000\n      dup2\n      mstore\n      0x04\n      add\n      tag_220\n      swap1\n      tag_221\n      jump\t// in\n    tag_220:\n      mload(0x40)\n      dup1\n      swap2\n      sub\n      swap1\n      revert\n    tag_219:\n        /* \"contracts/nft.sol\":9398:9406  approved */\n      dup1\n        /* \"contracts/nft.sol\":9360:9378  _operatorApprovals */\n      0x07\n        /* \"contracts/nft.sol\":9360:9385  _operatorApprovals[owner] */\n      0x00\n        /* \"contracts/nft.sol\":9379:9384  owner */\n      dup6\n        /* \"contracts/nft.sol\":9360:9385  _operatorApprovals[owner] */\n      0xffffffffffffffffffffffffffffffffffffffff\n      and\n      0xffffffffffffffffffffffffffffffffffffffff\n      and\n      dup2\n      mstore\n      0x20\n      add\n      swap1\n      dup2\n      mstore\n      0x20\n      add\n      0x00\n      keccak256\n        /* \"contracts/nft.sol\":9360:9395  _operatorApprovals[owner][operator] */\n      0x00\n        /* \"contracts/nft.sol\":9386:9394  operator */\n      dup5\n        /* \"contracts/nft.sol\":9360:9395  _operatorApprovals[owner][operator] */\n      0xffffffffffffffffffffffffffffffffffffffff\n      and\n      0xffffffffffffffffffffffffffffffffffffffff\n      and\n      dup2\n      mstore\n      0x20\n      add\n      swap1\n      dup2\n      mstore\n      0x20\n      add\n      0x00\n      keccak256\n      0x00\n        /* \"contracts/nft.sol\":9360:9406  _operatorApprovals[owner][operator] = approved */\n      0x0100\n      exp\n      dup2\n      sload\n      dup2\n      0xff\n      mul\n      not\n      and\n      swap1\n      dup4\n      iszero\n      iszero\n      mul\n      or\n      swap1\n      sstore\n      pop\n        /* \"contracts/nft.sol\":9444:9452  operator */\n      dup2\n        /* \"contracts/nft.sol\":9422:9463  ApprovalForAll(owner, operator, approved) */\n      0xffffffffffffffffffffffffffffffffffffffff\n      and\n        /* \"contracts/nft.sol\":9437:9442  owner */\n      dup4\n        /* \"contracts/nft.sol\":9422:9463  ApprovalForAll(owner, operator, approved) */\n      0xffffffffffffffffffffffffffffffffffffffff\n      and\n      0x17307eab39ab6107e8899845ad3d59bd9653f200f220920489ca2b5937696c31\n        /* \"contracts/nft.sol\":9454:9462  approved */\n      dup4\n        /* \"contracts/nft.sol\":9422:9463  ApprovalForAll(owner, operator, approved) */\n      mload(0x40)\n      tag_222\n      swap2\n      swap1\n      tag_27\n      jump\t// in\n    tag_222:\n      mload(0x40)\n      dup1\n      swap2\n      sub\n      swap1\n      log3\n        /* \"contracts/nft.sol\":9156:9471  function _setApprovalForAll(\r... */\n      pop\n      pop\n      pop\n      jump\t// out\n        /* \"contracts/nft.sol\":5387:5700  function _safeTransfer(\r... */\n    tag_169:\n        /* \"contracts/nft.sol\":5543:5571  _transfer(from, to, tokenId) */\n      tag_224\n        /* \"contracts/nft.sol\":5553:5557  from */\n      dup5\n        /* \"contracts/nft.sol\":5559:5561  to */\n      dup5\n        /* \"contracts/nft.sol\":5563:5570  tokenId */\n      dup5\n        /* \"contracts/nft.sol\":5543:5552  _transfer */\n      tag_130\n        /* \"contracts/nft.sol\":5543:5571  _transfer(from, to, tokenId) */\n      jump\t// in\n    tag_224:\n        /* \"contracts/nft.sol\":5590:5637  _checkOnERC721Received(from, to, tokenId, data) */\n      tag_225\n        /* \"contracts/nft.sol\":5613:5617  from */\n      dup5\n        /* \"contracts/nft.sol\":5619:5621  to */\n      dup5\n        /* \"contracts/nft.sol\":5623:5630  tokenId */\n      dup5\n        /* \"contracts/nft.sol\":5632:5636  data */\n      dup5\n        /* \"contracts/nft.sol\":5590:5612  _checkOnERC721Received */\n      tag_226\n        /* \"contracts/nft.sol\":5590:5637  _checkOnERC721Received(from, to, tokenId, data) */\n      jump\t// in\n    tag_225:\n        /* \"contracts/nft.sol\":5582:5692  require(_checkOnERC721Received(from, to, tokenId, data), \"ERC721: transfer to non ERC721Receiver implementer\") */\n      tag_227\n      jumpi\n      mload(0x40)\n      0x08c379a000000000000000000000000000000000000000000000000000000000\n      dup2\n      mstore\n      0x04\n      add\n      tag_228\n      swap1\n      tag_229\n      jump\t// in\n    tag_228:\n      mload(0x40)\n      dup1\n      swap2\n      sub\n      swap1\n      revert\n    tag_227:\n        /* \"contracts/nft.sol\":5387:5700  function _safeTransfer(\r... */\n      pop\n      pop\n      pop\n      pop\n      jump\t// out\n        /* \"contracts/nft.sol\":3276:3370  function _baseURI() internal view virtual returns (string memory) {\r... */\n    tag_173:\n        /* \"contracts/nft.sol\":3327:3340  string memory */\n      0x60\n        /* \"contracts/nft.sol\":3353:3362  return \"\" */\n      mload(0x40)\n      dup1\n      0x20\n      add\n      0x40\n      mstore\n      dup1\n      0x00\n      dup2\n      mstore\n      pop\n      swap1\n      pop\n        /* \"contracts/nft.sol\":3276:3370  function _baseURI() internal view virtual returns (string memory) {\r... */\n      swap1\n      jump\t// out\n        /* \"@openzeppelin/contracts@4.6.0/utils/Strings.sol\":328:1031  function toString(uint256 value) internal pure returns (string memory) {... */\n    tag_177:\n        /* \"@openzeppelin/contracts@4.6.0/utils/Strings.sol\":384:397  string memory */\n      0x60\n        /* \"@openzeppelin/contracts@4.6.0/utils/Strings.sol\":610:611  0 */\n      0x00\n        /* \"@openzeppelin/contracts@4.6.0/utils/Strings.sol\":601:606  value */\n      dup3\n        /* \"@openzeppelin/contracts@4.6.0/utils/Strings.sol\":601:611  value == 0 */\n      eq\n        /* \"@openzeppelin/contracts@4.6.0/utils/Strings.sol\":597:648  if (value == 0) {... */\n      iszero\n      tag_232\n      jumpi\n        /* \"@openzeppelin/contracts@4.6.0/utils/Strings.sol\":627:637  return \"0\" */\n      mload(0x40)\n      dup1\n      0x40\n      add\n      0x40\n      mstore\n      dup1\n      0x01\n      dup2\n      mstore\n      0x20\n      add\n      0x3000000000000000000000000000000000000000000000000000000000000000\n      dup2\n      mstore\n      pop\n      swap1\n      pop\n      jump(tag_231)\n        /* \"@openzeppelin/contracts@4.6.0/utils/Strings.sol\":597:648  if (value == 0) {... */\n    tag_232:\n        /* \"@openzeppelin/contracts@4.6.0/utils/Strings.sol\":657:669  uint256 temp */\n      0x00\n        /* \"@openzeppelin/contracts@4.6.0/utils/Strings.sol\":672:677  value */\n      dup3\n        /* \"@openzeppelin/contracts@4.6.0/utils/Strings.sol\":657:677  uint256 temp = value */\n      swap1\n      pop\n        /* \"@openzeppelin/contracts@4.6.0/utils/Strings.sol\":687:701  uint256 digits */\n      0x00\n        /* \"@openzeppelin/contracts@4.6.0/utils/Strings.sol\":711:786  while (temp != 0) {... */\n    tag_233:\n        /* \"@openzeppelin/contracts@4.6.0/utils/Strings.sol\":726:727  0 */\n      0x00\n        /* \"@openzeppelin/contracts@4.6.0/utils/Strings.sol\":718:722  temp */\n      dup3\n        /* \"@openzeppelin/contracts@4.6.0/utils/Strings.sol\":718:727  temp != 0 */\n      eq\n        /* \"@openzeppelin/contracts@4.6.0/utils/Strings.sol\":711:786  while (temp != 0) {... */\n      tag_234\n      jumpi\n        /* \"@openzeppelin/contracts@4.6.0/utils/Strings.sol\":743:751  digits++ */\n      dup1\n      dup1\n      tag_235\n      swap1\n      tag_236\n      jump\t// in\n    tag_235:\n      swap2\n      pop\n      pop\n        /* \"@openzeppelin/contracts@4.6.0/utils/Strings.sol\":773:775  10 */\n      0x0a\n        /* \"@openzeppelin/contracts@4.6.0/utils/Strings.sol\":765:775  temp /= 10 */\n      dup3\n      tag_237\n      swap2\n      swap1\n      tag_238\n      jump\t// in\n    tag_237:\n      swap2\n      pop\n        /* \"@openzeppelin/contracts@4.6.0/utils/Strings.sol\":711:786  while (temp != 0) {... */\n      jump(tag_233)\n    tag_234:\n        /* \"@openzeppelin/contracts@4.6.0/utils/Strings.sol\":795:814  bytes memory buffer */\n      0x00\n        /* \"@openzeppelin/contracts@4.6.0/utils/Strings.sol\":827:833  digits */\n      dup2\n        /* \"@openzeppelin/contracts@4.6.0/utils/Strings.sol\":817:834  new bytes(digits) */\n      0xffffffffffffffff\n      dup2\n      gt\n      iszero\n      tag_239\n      jumpi\n      mstore(0x00, 0x4e487b7100000000000000000000000000000000000000000000000000000000)\n      mstore(0x04, 0x41)\n      revert(0x00, 0x24)\n    tag_239:\n      mload(0x40)\n      swap1\n      dup1\n      dup3\n      mstore\n      dup1\n      0x1f\n      add\n      not(0x1f)\n      and\n      0x20\n      add\n      dup3\n      add\n      0x40\n      mstore\n      dup1\n      iszero\n      tag_240\n      jumpi\n      dup2\n      0x20\n      add\n      0x01\n      dup3\n      mul\n      dup1\n      calldatasize\n      dup4\n      calldatacopy\n      dup1\n      dup3\n      add\n      swap2\n      pop\n      pop\n      swap1\n      pop\n    tag_240:\n      pop\n        /* \"@openzeppelin/contracts@4.6.0/utils/Strings.sol\":795:834  bytes memory buffer = new bytes(digits) */\n      swap1\n      pop\n        /* \"@openzeppelin/contracts@4.6.0/utils/Strings.sol\":844:994  while (value != 0) {... */\n    tag_241:\n        /* \"@openzeppelin/contracts@4.6.0/utils/Strings.sol\":860:861  0 */\n      0x00\n        /* \"@openzeppelin/contracts@4.6.0/utils/Strings.sol\":851:856  value */\n      dup6\n        /* \"@openzeppelin/contracts@4.6.0/utils/Strings.sol\":851:861  value != 0 */\n      eq\n        /* \"@openzeppelin/contracts@4.6.0/utils/Strings.sol\":844:994  while (value != 0) {... */\n      tag_242\n      jumpi\n        /* \"@openzeppelin/contracts@4.6.0/utils/Strings.sol\":887:888  1 */\n      0x01\n        /* \"@openzeppelin/contracts@4.6.0/utils/Strings.sol\":877:888  digits -= 1 */\n      dup3\n      tag_243\n      swap2\n      swap1\n      tag_244\n      jump\t// in\n    tag_243:\n      swap2\n      pop\n        /* \"@openzeppelin/contracts@4.6.0/utils/Strings.sol\":953:955  10 */\n      0x0a\n        /* \"@openzeppelin/contracts@4.6.0/utils/Strings.sol\":945:950  value */\n      dup6\n        /* \"@openzeppelin/contracts@4.6.0/utils/Strings.sol\":945:955  value % 10 */\n      tag_245\n      swap2\n      swap1\n      tag_246\n      jump\t// in\n    tag_245:\n        /* \"@openzeppelin/contracts@4.6.0/utils/Strings.sol\":932:934  48 */\n      0x30\n        /* \"@openzeppelin/contracts@4.6.0/utils/Strings.sol\":932:956  48 + uint256(value % 10) */\n      tag_247\n      swap2\n      swap1\n      tag_248\n      jump\t// in\n    tag_247:\n        /* \"@openzeppelin/contracts@4.6.0/utils/Strings.sol\":919:958  bytes1(uint8(48 + uint256(value % 10))) */\n      0xf8\n      shl\n        /* \"@openzeppelin/contracts@4.6.0/utils/Strings.sol\":902:908  buffer */\n      dup2\n        /* \"@openzeppelin/contracts@4.6.0/utils/Strings.sol\":909:915  digits */\n      dup4\n        /* \"@openzeppelin/contracts@4.6.0/utils/Strings.sol\":902:916  buffer[digits] */\n      dup2\n      mload\n      dup2\n      lt\n      tag_249\n      jumpi\n      mstore(0x00, 0x4e487b7100000000000000000000000000000000000000000000000000000000)\n      mstore(0x04, 0x32)\n      revert(0x00, 0x24)\n    tag_249:\n      0x20\n      add\n      add\n        /* \"@openzeppelin/contracts@4.6.0/utils/Strings.sol\":902:958  buffer[digits] = bytes1(uint8(48 + uint256(value % 10))) */\n      swap1\n      not(0xffffffffffffffffffffffffffffffffffffffffffffffffffffffffffffff)\n      and\n      swap1\n      dup2\n      0x00\n      byte\n      swap1\n      mstore8\n      pop\n        /* \"@openzeppelin/contracts@4.6.0/utils/Strings.sol\":981:983  10 */\n      0x0a\n        /* \"@openzeppelin/contracts@4.6.0/utils/Strings.sol\":972:983  value /= 10 */\n      dup6\n      tag_250\n      swap2\n      swap1\n      tag_238\n      jump\t// in\n    tag_250:\n      swap5\n      pop\n        /* \"@openzeppelin/contracts@4.6.0/utils/Strings.sol\":844:994  while (value != 0) {... */\n      jump(tag_241)\n    tag_242:\n        /* \"@openzeppelin/contracts@4.6.0/utils/Strings.sol\":1017:1023  buffer */\n      dup1\n        /* \"@openzeppelin/contracts@4.6.0/utils/Strings.sol\":1003:1024  return string(buffer) */\n      swap4\n      pop\n      pop\n      pop\n      pop\n        /* \"@openzeppelin/contracts@4.6.0/utils/Strings.sol\":328:1031  function toString(uint256 value) internal pure returns (string memory) {... */\n    tag_231:\n      swap2\n      swap1\n      pop\n      jump\t// out\n        /* \"contracts/nft.sol\":5708:5835  function _exists(uint256 tokenId) internal view virtual returns (bool) {\r... */\n    tag_185:\n        /* \"contracts/nft.sol\":5773:5777  bool */\n      0x00\n        /* \"contracts/nft.sol\":5825:5826  0 */\n      dup1\n        /* \"contracts/nft.sol\":5797:5827  _owners[tokenId] != address(0) */\n      0xffffffffffffffffffffffffffffffffffffffff\n      and\n        /* \"contracts/nft.sol\":5797:5804  _owners */\n      0x02\n        /* \"contracts/nft.sol\":5797:5813  _owners[tokenId] */\n      0x00\n        /* \"contracts/nft.sol\":5805:5812  tokenId */\n      dup5\n        /* \"contracts/nft.sol\":5797:5813  _owners[tokenId] */\n      dup2\n      mstore\n      0x20\n      add\n      swap1\n      dup2\n      mstore\n      0x20\n      add\n      0x00\n      keccak256\n      0x00\n      swap1\n      sload\n      swap1\n      0x0100\n      exp\n      swap1\n      div\n      0xffffffffffffffffffffffffffffffffffffffff\n      and\n        /* \"contracts/nft.sol\":5797:5827  _owners[tokenId] != address(0) */\n      0xffffffffffffffffffffffffffffffffffffffff\n      and\n      eq\n      iszero\n        /* \"contracts/nft.sol\":5790:5827  return _owners[tokenId] != address(0) */\n      swap1\n      pop\n        /* \"contracts/nft.sol\":5708:5835  function _exists(uint256 tokenId) internal view virtual returns (bool) {\r... */\n      swap2\n      swap1\n      pop\n      jump\t// out\n        /* \"contracts/nft.sol\":10487:10613  function _beforeTokenTransfer(\r... */\n    tag_206:\n      pop\n      pop\n      pop\n      jump\t// out\n        /* \"contracts/nft.sol\":10621:10746  function _afterTokenTransfer(\r... */\n    tag_211:\n      pop\n      pop\n      pop\n      jump\t// out\n        /* \"contracts/nft.sol\":6325:6760  function _safeMint(\r... */\n    tag_214:\n        /* \"contracts/nft.sol\":6536:6588  _mint(to, collaborator,collaboratorPercent, tokenId) */\n      tag_255\n        /* \"contracts/nft.sol\":6542:6544  to */\n      dup6\n        /* \"contracts/nft.sol\":6546:6558  collaborator */\n      dup6\n        /* \"contracts/nft.sol\":6559:6578  collaboratorPercent */\n      dup6\n        /* \"contracts/nft.sol\":6580:6587  tokenId */\n      dup6\n        /* \"contracts/nft.sol\":6536:6541  _mint */\n      tag_256\n        /* \"contracts/nft.sol\":6536:6588  _mint(to, collaborator,collaboratorPercent, tokenId) */\n      jump\t// in\n    tag_255:\n        /* \"contracts/nft.sol\":6621:6674  _checkOnERC721Received(address(0), to, tokenId, data) */\n      tag_257\n        /* \"contracts/nft.sol\":6652:6653  0 */\n      0x00\n        /* \"contracts/nft.sol\":6656:6658  to */\n      dup7\n        /* \"contracts/nft.sol\":6660:6667  tokenId */\n      dup5\n        /* \"contracts/nft.sol\":6669:6673  data */\n      dup5\n        /* \"contracts/nft.sol\":6621:6643  _checkOnERC721Received */\n      tag_226\n        /* \"contracts/nft.sol\":6621:6674  _checkOnERC721Received(address(0), to, tokenId, data) */\n      jump\t// in\n    tag_257:\n        /* \"contracts/nft.sol\":6599:6752  require(\r... */\n      tag_258\n      jumpi\n      mload(0x40)\n      0x08c379a000000000000000000000000000000000000000000000000000000000\n      dup2\n      mstore\n      0x04\n      add\n      tag_259\n      swap1\n      tag_229\n      jump\t// in\n    tag_259:\n      mload(0x40)\n      dup1\n      swap2\n      sub\n      swap1\n      revert\n    tag_258:\n        /* \"contracts/nft.sol\":6325:6760  function _safeMint(\r... */\n      pop\n      pop\n      pop\n      pop\n      pop\n      jump\t// out\n        /* \"contracts/nft.sol\":9624:10477  function _checkOnERC721Received(\r... */\n    tag_226:\n        /* \"contracts/nft.sol\":9778:9782  bool */\n      0x00\n        /* \"contracts/nft.sol\":9799:9814  to.isContract() */\n      tag_261\n        /* \"contracts/nft.sol\":9799:9801  to */\n      dup5\n        /* \"contracts/nft.sol\":9799:9812  to.isContract */\n      0xffffffffffffffffffffffffffffffffffffffff\n      and\n      tag_262\n        /* \"contracts/nft.sol\":9799:9814  to.isContract() */\n      jump\t// in\n    tag_261:\n        /* \"contracts/nft.sol\":9795:10470  if (to.isContract()) {\r... */\n      iszero\n      tag_263\n      jumpi\n        /* \"contracts/nft.sol\":9851:9853  to */\n      dup4\n        /* \"contracts/nft.sol\":9835:9871  IERC721Receiver(to).onERC721Received */\n      0xffffffffffffffffffffffffffffffffffffffff\n      and\n      0x150b7a02\n        /* \"contracts/nft.sol\":9872:9884  _msgSender() */\n      tag_264\n        /* \"contracts/nft.sol\":9872:9882  _msgSender */\n      tag_113\n        /* \"contracts/nft.sol\":9872:9884  _msgSender() */\n      jump\t// in\n    tag_264:\n        /* \"contracts/nft.sol\":9886:9890  from */\n      dup8\n        /* \"contracts/nft.sol\":9892:9899  tokenId */\n      dup7\n        /* \"contracts/nft.sol\":9901:9905  data */\n      dup7\n        /* \"contracts/nft.sol\":9835:9906  IERC721Receiver(to).onERC721Received(_msgSender(), from, tokenId, data) */\n      mload(0x40)\n      dup6\n      0xffffffff\n      and\n      0xe0\n      shl\n      dup2\n      mstore\n      0x04\n      add\n      tag_265\n      swap5\n      swap4\n      swap3\n      swap2\n      swap1\n      tag_266\n      jump\t// in\n    tag_265:\n      0x20\n      mload(0x40)\n      dup1\n      dup4\n      sub\n      dup2\n      0x00\n      dup8\n      dup1\n      extcodesize\n      iszero\n      dup1\n      iszero\n      tag_267\n      jumpi\n      0x00\n      dup1\n      revert\n    tag_267:\n      pop\n      gas\n      call\n      swap3\n      pop\n      pop\n      pop\n      dup1\n      iszero\n      tag_268\n      jumpi\n      pop\n      mload(0x40)\n      returndatasize\n      not(0x1f)\n      0x1f\n      dup3\n      add\n      and\n      dup3\n      add\n      dup1\n      0x40\n      mstore\n      pop\n      dup2\n      add\n      swap1\n      tag_269\n      swap2\n      swap1\n      tag_270\n      jump\t// in\n    tag_269:\n      0x01\n    tag_268:\n        /* \"contracts/nft.sol\":9831:10415  try IERC721Receiver(to).onERC721Received(_msgSender(), from, tokenId, data) returns (bytes4 retval) {\r... */\n      tag_271\n      jumpi\n      returndatasize\n      dup1\n      0x00\n      dup2\n      eq\n      tag_276\n      jumpi\n      mload(0x40)\n      swap2\n      pop\n      and(add(returndatasize, 0x3f), not(0x1f))\n      dup3\n      add\n      0x40\n      mstore\n      returndatasize\n      dup3\n      mstore\n      returndatasize\n      0x00\n      0x20\n      dup5\n      add\n      returndatacopy\n      jump(tag_275)\n    tag_276:\n      0x60\n      swap2\n      pop\n    tag_275:\n      pop\n        /* \"contracts/nft.sol\":10093:10094  0 */\n      0x00\n        /* \"contracts/nft.sol\":10076:10082  reason */\n      dup2\n        /* \"contracts/nft.sol\":10076:10089  reason.length */\n      mload\n        /* \"contracts/nft.sol\":10076:10094  reason.length == 0 */\n      eq\n        /* \"contracts/nft.sol\":10072:10400  if (reason.length == 0) {\r... */\n      iszero\n      tag_277\n      jumpi\n        /* \"contracts/nft.sol\":10119:10179  revert(\"ERC721: transfer to non ERC721Receiver implementer\") */\n      mload(0x40)\n      0x08c379a000000000000000000000000000000000000000000000000000000000\n      dup2\n      mstore\n      0x04\n      add\n      tag_278\n      swap1\n      tag_229\n      jump\t// in\n    tag_278:\n      mload(0x40)\n      dup1\n      swap2\n      sub\n      swap1\n      revert\n        /* \"contracts/nft.sol\":10072:10400  if (reason.length == 0) {\r... */\n    tag_277:\n        /* \"contracts/nft.sol\":10350:10356  reason */\n      dup1\n        /* \"contracts/nft.sol\":10344:10357  mload(reason) */\n      mload\n        /* \"contracts/nft.sol\":10335:10341  reason */\n      dup2\n        /* \"contracts/nft.sol\":10331:10333  32 */\n      0x20\n        /* \"contracts/nft.sol\":10327:10342  add(32, reason) */\n      add\n        /* \"contracts/nft.sol\":10320:10358  revert(add(32, reason), mload(reason)) */\n      revert\n        /* \"contracts/nft.sol\":9831:10415  try IERC721Receiver(to).onERC721Received(_msgSender(), from, tokenId, data) returns (bytes4 retval) {\r... */\n    tag_271:\n        /* \"contracts/nft.sol\":9967:10008  IERC721Receiver.onERC721Received.selector */\n      shl(0xe0, 0x150b7a02)\n        /* \"contracts/nft.sol\":9957:10008  retval == IERC721Receiver.onERC721Received.selector */\n      not(0xffffffffffffffffffffffffffffffffffffffffffffffffffffffff)\n      and\n        /* \"contracts/nft.sol\":9957:9963  retval */\n      dup2\n        /* \"contracts/nft.sol\":9957:10008  retval == IERC721Receiver.onERC721Received.selector */\n      not(0xffffffffffffffffffffffffffffffffffffffffffffffffffffffff)\n      and\n      eq\n        /* \"contracts/nft.sol\":9950:10008  return retval == IERC721Receiver.onERC721Received.selector */\n      swap2\n      pop\n      pop\n      jump(tag_260)\n        /* \"contracts/nft.sol\":9795:10470  if (to.isContract()) {\r... */\n    tag_263:\n        /* \"contracts/nft.sol\":10454:10458  true */\n      0x01\n        /* \"contracts/nft.sol\":10447:10458  return true */\n      swap1\n      pop\n        /* \"contracts/nft.sol\":9624:10477  function _checkOnERC721Received(\r... */\n    tag_260:\n      swap5\n      swap4\n      pop\n      pop\n      pop\n      pop\n      jump\t// out\n        /* \"contracts/nft.sol\":6768:7491  function _mint(address to,Collaborator memory collaborator,uint256 collaboratorPercent,uint256 tokenId) internal virtual {\r... */\n    tag_256:\n        /* \"contracts/nft.sol\":6922:6923  0 */\n      0x00\n        /* \"contracts/nft.sol\":6908:6924  to != address(0) */\n      0xffffffffffffffffffffffffffffffffffffffff\n      and\n        /* \"contracts/nft.sol\":6908:6910  to */\n      dup5\n        /* \"contracts/nft.sol\":6908:6924  to != address(0) */\n      0xffffffffffffffffffffffffffffffffffffffff\n      and\n      eq\n      iszero\n        /* \"contracts/nft.sol\":6900:6961  require(to != address(0), \"ERC721: mint to the zero address\") */\n      tag_283\n      jumpi\n      mload(0x40)\n      0x08c379a000000000000000000000000000000000000000000000000000000000\n      dup2\n      mstore\n      0x04\n      add\n      tag_284\n      swap1\n      tag_285\n      jump\t// in\n    tag_284:\n      mload(0x40)\n      dup1\n      swap2\n      sub\n      swap1\n      revert\n    tag_283:\n        /* \"contracts/nft.sol\":6981:6997  _exists(tokenId) */\n      tag_286\n        /* \"contracts/nft.sol\":6989:6996  tokenId */\n      dup2\n        /* \"contracts/nft.sol\":6981:6988  _exists */\n      tag_185\n        /* \"contracts/nft.sol\":6981:6997  _exists(tokenId) */\n      jump\t// in\n    tag_286:\n        /* \"contracts/nft.sol\":6980:6997  !_exists(tokenId) */\n      iszero\n        /* \"contracts/nft.sol\":6972:7030  require(!_exists(tokenId), \"ERC721: token already minted\") */\n      tag_287\n      jumpi\n      mload(0x40)\n      0x08c379a000000000000000000000000000000000000000000000000000000000\n      dup2\n      mstore\n      0x04\n      add\n      tag_288\n      swap1\n      tag_289\n      jump\t// in\n    tag_288:\n      mload(0x40)\n      dup1\n      swap2\n      sub\n      swap1\n      revert\n    tag_287:\n        /* \"contracts/nft.sol\":7043:7088  _beforeTokenTransfer(address(0), to, tokenId) */\n      tag_290\n        /* \"contracts/nft.sol\":7072:7073  0 */\n      0x00\n        /* \"contracts/nft.sol\":7076:7078  to */\n      dup6\n        /* \"contracts/nft.sol\":7080:7087  tokenId */\n      dup4\n        /* \"contracts/nft.sol\":7043:7063  _beforeTokenTransfer */\n      tag_206\n        /* \"contracts/nft.sol\":7043:7088  _beforeTokenTransfer(address(0), to, tokenId) */\n      jump\t// in\n    tag_290:\n        /* \"contracts/nft.sol\":7110:7126  _exists(tokenId) */\n      tag_291\n        /* \"contracts/nft.sol\":7118:7125  tokenId */\n      dup2\n        /* \"contracts/nft.sol\":7110:7117  _exists */\n      tag_185\n        /* \"contracts/nft.sol\":7110:7126  _exists(tokenId) */\n      jump\t// in\n    tag_291:\n        /* \"contracts/nft.sol\":7109:7126  !_exists(tokenId) */\n      iszero\n        /* \"contracts/nft.sol\":7101:7159  require(!_exists(tokenId), \"ERC721: token already minted\") */\n      tag_292\n      jumpi\n      mload(0x40)\n      0x08c379a000000000000000000000000000000000000000000000000000000000\n      dup2\n      mstore\n      0x04\n      add\n      tag_293\n      swap1\n      tag_289\n      jump\t// in\n    tag_293:\n      mload(0x40)\n      dup1\n      swap2\n      sub\n      swap1\n      revert\n    tag_292:\n        /* \"contracts/nft.sol\":7214:7215  1 */\n      0x01\n        /* \"contracts/nft.sol\":7197:7206  _balances */\n      0x05\n        /* \"contracts/nft.sol\":7197:7210  _balances[to] */\n      0x00\n        /* \"contracts/nft.sol\":7207:7209  to */\n      dup7\n        /* \"contracts/nft.sol\":7197:7210  _balances[to] */\n      0xffffffffffffffffffffffffffffffffffffffff\n      and\n      0xffffffffffffffffffffffffffffffffffffffff\n      and\n      dup2\n      mstore\n      0x20\n      add\n      swap1\n      dup2\n      mstore\n      0x20\n      add\n      0x00\n      keccak256\n      0x00\n        /* \"contracts/nft.sol\":7197:7215  _balances[to] += 1 */\n      dup3\n      dup3\n      sload\n      add\n      swap3\n      pop\n      pop\n      dup2\n      swap1\n      sstore\n      pop\n        /* \"contracts/nft.sol\":7258:7260  to */\n      dup4\n        /* \"contracts/nft.sol\":7239:7246  _owners */\n      0x02\n        /* \"contracts/nft.sol\":7239:7255  _owners[tokenId] */\n      0x00\n        /* \"contracts/nft.sol\":7247:7254  tokenId */\n      dup4\n        /* \"contracts/nft.sol\":7239:7255  _owners[tokenId] */\n      dup2\n      mstore\n      0x20\n      add\n      swap1\n      dup2\n      mstore\n      0x20\n      add\n      0x00\n      keccak256\n      0x00\n        /* \"contracts/nft.sol\":7239:7260  _owners[tokenId] = to */\n      0x0100\n      exp\n      dup2\n      sload\n      dup2\n      0xffffffffffffffffffffffffffffffffffffffff\n      mul\n      not\n      and\n      swap1\n      dup4\n      0xffffffffffffffffffffffffffffffffffffffff\n      and\n      mul\n      or\n      swap1\n      sstore\n      pop\n        /* \"contracts/nft.sol\":7297:7309  collaborator */\n      dup3\n        /* \"contracts/nft.sol\":7271:7285  _collaborators */\n      0x03\n        /* \"contracts/nft.sol\":7271:7294  _collaborators[tokenId] */\n      0x00\n        /* \"contracts/nft.sol\":7286:7293  tokenId */\n      dup4\n        /* \"contracts/nft.sol\":7271:7294  _collaborators[tokenId] */\n      dup2\n      mstore\n      0x20\n      add\n      swap1\n      dup2\n      mstore\n      0x20\n      add\n      0x00\n      keccak256\n        /* \"contracts/nft.sol\":7271:7309  _collaborators[tokenId] = collaborator */\n      0x00\n      dup3\n      add\n      mload\n      dup2\n      0x00\n      add\n      swap1\n      dup1\n      mload\n      swap1\n      0x20\n      add\n      swap1\n      tag_294\n      swap3\n      swap2\n      swap1\n      tag_295\n      jump\t// in\n    tag_294:\n      pop\n      0x20\n      dup3\n      add\n      mload\n      dup2\n      0x01\n      add\n      swap1\n      dup1\n      mload\n      swap1\n      0x20\n      add\n      swap1\n      tag_296\n      swap3\n      swap2\n      swap1\n      tag_297\n      jump\t// in\n    tag_296:\n      pop\n      swap1\n      pop\n      pop\n        /* \"contracts/nft.sol\":7356:7375  collaboratorPercent */\n      dup2\n        /* \"contracts/nft.sol\":7320:7344  _collaboratorsPercentage */\n      0x04\n        /* \"contracts/nft.sol\":7320:7353  _collaboratorsPercentage[tokenId] */\n      0x00\n        /* \"contracts/nft.sol\":7345:7352  tokenId */\n      dup4\n        /* \"contracts/nft.sol\":7320:7353  _collaboratorsPercentage[tokenId] */\n      dup2\n      mstore\n      0x20\n      add\n      swap1\n      dup2\n      mstore\n      0x20\n      add\n      0x00\n      keccak256\n        /* \"contracts/nft.sol\":7320:7375  _collaboratorsPercentage[tokenId] = collaboratorPercent */\n      dup2\n      swap1\n      sstore\n      pop\n        /* \"contracts/nft.sol\":7418:7425  tokenId */\n      dup1\n        /* \"contracts/nft.sol\":7414:7416  to */\n      dup5\n        /* \"contracts/nft.sol\":7393:7426  Transfer(address(0), to, tokenId) */\n      0xffffffffffffffffffffffffffffffffffffffff\n      and\n        /* \"contracts/nft.sol\":7410:7411  0 */\n      0x00\n        /* \"contracts/nft.sol\":7393:7426  Transfer(address(0), to, tokenId) */\n      0xffffffffffffffffffffffffffffffffffffffff\n      and\n      0xddf252ad1be2c89b69c2b068fc378daa952ba7f163c4a11628f55a4df523b3ef\n      mload(0x40)\n      mload(0x40)\n      dup1\n      swap2\n      sub\n      swap1\n      log4\n        /* \"contracts/nft.sol\":7439:7483  _afterTokenTransfer(address(0), to, tokenId) */\n      tag_298\n        /* \"contracts/nft.sol\":7467:7468  0 */\n      0x00\n        /* \"contracts/nft.sol\":7471:7473  to */\n      dup6\n        /* \"contracts/nft.sol\":7475:7482  tokenId */\n      dup4\n        /* \"contracts/nft.sol\":7439:7458  _afterTokenTransfer */\n      tag_211\n        /* \"contracts/nft.sol\":7439:7483  _afterTokenTransfer(address(0), to, tokenId) */\n      jump\t// in\n    tag_298:\n        /* \"contracts/nft.sol\":6768:7491  function _mint(address to,Collaborator memory collaborator,uint256 collaboratorPercent,uint256 tokenId) internal virtual {\r... */\n      pop\n      pop\n      pop\n      pop\n      jump\t// out\n        /* \"@openzeppelin/contracts@4.6.0/utils/Address.sol\":1175:1495  function isContract(address account) internal view returns (bool) {... */\n    tag_262:\n        /* \"@openzeppelin/contracts@4.6.0/utils/Address.sol\":1235:1239  bool */\n      0x00\n        /* \"@openzeppelin/contracts@4.6.0/utils/Address.sol\":1487:1488  0 */\n      dup1\n        /* \"@openzeppelin/contracts@4.6.0/utils/Address.sol\":1465:1472  account */\n      dup3\n        /* \"@openzeppelin/contracts@4.6.0/utils/Address.sol\":1465:1484  account.code.length */\n      0xffffffffffffffffffffffffffffffffffffffff\n      and\n      extcodesize\n        /* \"@openzeppelin/contracts@4.6.0/utils/Address.sol\":1465:1488  account.code.length > 0 */\n      gt\n        /* \"@openzeppelin/contracts@4.6.0/utils/Address.sol\":1458:1488  return account.code.length > 0 */\n      swap1\n      pop\n        /* \"@openzeppelin/contracts@4.6.0/utils/Address.sol\":1175:1495  function isContract(address account) internal view returns (bool) {... */\n      swap2\n      swap1\n      pop\n      jump\t// out\n    tag_139:\n      mload(0x40)\n      dup1\n      0x40\n      add\n      0x40\n      mstore\n      dup1\n      0x60\n      dup2\n      mstore\n      0x20\n      add\n      0x60\n      dup2\n      mstore\n      pop\n      swap1\n      jump\t// out\n    tag_217:\n      dup3\n      dup1\n      sload\n      tag_300\n      swap1\n      tag_99\n      jump\t// in\n    tag_300:\n      swap1\n      0x00\n      mstore\n      keccak256(0x00, 0x20)\n      swap1\n      0x1f\n      add\n      0x20\n      swap1\n      div\n      dup2\n      add\n      swap3\n      dup3\n      tag_302\n      jumpi\n      0x00\n      dup6\n      sstore\n      jump(tag_301)\n    tag_302:\n      dup3\n      0x1f\n      lt\n      tag_303\n      jumpi\n      dup1\n      mload\n      not(0xff)\n      and\n      dup4\n      dup1\n      add\n      or\n      dup6\n      sstore\n      jump(tag_301)\n    tag_303:\n      dup3\n      dup1\n      add\n      0x01\n      add\n      dup6\n      sstore\n      dup3\n      iszero\n      tag_301\n      jumpi\n      swap2\n      dup3\n      add\n    tag_304:\n      dup3\n      dup2\n      gt\n      iszero\n      tag_305\n      jumpi\n      dup3\n      mload\n      dup3\n      sstore\n      swap2\n      0x20\n      add\n      swap2\n      swap1\n      0x01\n      add\n      swap1\n      jump(tag_304)\n    tag_305:\n    tag_301:\n      pop\n      swap1\n      pop\n      tag_306\n      swap2\n      swap1\n      tag_307\n      jump\t// in\n    tag_306:\n      pop\n      swap1\n      jump\t// out\n    tag_295:\n      dup3\n      dup1\n      sload\n      dup3\n      dup3\n      sstore\n      swap1\n      0x00\n      mstore\n      keccak256(0x00, 0x20)\n      swap1\n      dup2\n      add\n      swap3\n      dup3\n      iszero\n      tag_308\n      jumpi\n      swap2\n      0x20\n      mul\n      dup3\n      add\n    tag_309:\n      dup3\n      dup2\n      gt\n      iszero\n      tag_310\n      jumpi\n      dup3\n      mload\n      dup3\n      exp(0x0100, 0x00)\n      dup2\n      sload\n      dup2\n      0xffffffffffffffffffffffffffffffffffffffff\n      mul\n      not\n      and\n      swap1\n      dup4\n      0xffffffffffffffffffffffffffffffffffffffff\n      and\n      mul\n      or\n      swap1\n      sstore\n      pop\n      swap2\n      0x20\n      add\n      swap2\n      swap1\n      0x01\n      add\n      swap1\n      jump(tag_309)\n    tag_310:\n    tag_308:\n      pop\n      swap1\n      pop\n      tag_311\n      swap2\n      swap1\n      tag_307\n      jump\t// in\n    tag_311:\n      pop\n      swap1\n      jump\t// out\n    tag_297:\n      dup3\n      dup1\n      sload\n      dup3\n      dup3\n      sstore\n      swap1\n      0x00\n      mstore\n      keccak256(0x00, 0x20)\n      swap1\n      dup2\n      add\n      swap3\n      dup3\n      iszero\n      tag_312\n      jumpi\n      swap2\n      0x20\n      mul\n      dup3\n      add\n    tag_313:\n      dup3\n      dup2\n      gt\n      iszero\n      tag_314\n      jumpi\n      dup3\n      mload\n      dup3\n      sstore\n      swap2\n      0x20\n      add\n      swap2\n      swap1\n      0x01\n      add\n      swap1\n      jump(tag_313)\n    tag_314:\n    tag_312:\n      pop\n      swap1\n      pop\n      tag_315\n      swap2\n      swap1\n      tag_307\n      jump\t// in\n    tag_315:\n      pop\n      swap1\n      jump\t// out\n    tag_307:\n    tag_316:\n      dup1\n      dup3\n      gt\n      iszero\n      tag_317\n      jumpi\n      0x00\n      dup2\n      0x00\n      swap1\n      sstore\n      pop\n      0x01\n      add\n      jump(tag_316)\n    tag_317:\n      pop\n      swap1\n      jump\t// out\n        /* \"#utility.yul\":24:679   */\n    tag_319:\n        /* \"#utility.yul\":120:125   */\n      0x00\n        /* \"#utility.yul\":145:226   */\n      tag_321\n        /* \"#utility.yul\":161:225   */\n      tag_322\n        /* \"#utility.yul\":218:224   */\n      dup5\n        /* \"#utility.yul\":161:225   */\n      tag_323\n      jump\t// in\n    tag_322:\n        /* \"#utility.yul\":145:226   */\n      tag_324\n      jump\t// in\n    tag_321:\n        /* \"#utility.yul\":136:226   */\n      swap1\n      pop\n        /* \"#utility.yul\":246:251   */\n      dup1\n        /* \"#utility.yul\":275:281   */\n      dup4\n        /* \"#utility.yul\":268:273   */\n      dup3\n        /* \"#utility.yul\":261:282   */\n      mstore\n        /* \"#utility.yul\":309:313   */\n      0x20\n        /* \"#utility.yul\":302:307   */\n      dup3\n        /* \"#utility.yul\":298:314   */\n      add\n        /* \"#utility.yul\":291:314   */\n      swap1\n      pop\n        /* \"#utility.yul\":335:341   */\n      dup3\n        /* \"#utility.yul\":385:388   */\n      dup6\n        /* \"#utility.yul\":377:381   */\n      0x20\n        /* \"#utility.yul\":369:375   */\n      dup7\n        /* \"#utility.yul\":365:382   */\n      mul\n        /* \"#utility.yul\":360:363   */\n      dup3\n        /* \"#utility.yul\":356:383   */\n      add\n        /* \"#utility.yul\":353:389   */\n      gt\n        /* \"#utility.yul\":350:352   */\n      iszero\n      tag_325\n      jumpi\n        /* \"#utility.yul\":414:415   */\n      0x00\n        /* \"#utility.yul\":411:412   */\n      dup1\n        /* \"#utility.yul\":404:416   */\n      revert\n        /* \"#utility.yul\":350:352   */\n    tag_325:\n        /* \"#utility.yul\":450:451   */\n      0x00\n        /* \"#utility.yul\":435:673   */\n    tag_326:\n        /* \"#utility.yul\":460:466   */\n      dup6\n        /* \"#utility.yul\":457:458   */\n      dup2\n        /* \"#utility.yul\":454:467   */\n      lt\n        /* \"#utility.yul\":435:673   */\n      iszero\n      tag_328\n      jumpi\n        /* \"#utility.yul\":528:531   */\n      dup2\n        /* \"#utility.yul\":557:594   */\n      tag_329\n        /* \"#utility.yul\":590:593   */\n      dup9\n        /* \"#utility.yul\":578:588   */\n      dup3\n        /* \"#utility.yul\":557:594   */\n      tag_330\n      jump\t// in\n    tag_329:\n        /* \"#utility.yul\":552:555   */\n      dup5\n        /* \"#utility.yul\":545:595   */\n      mstore\n        /* \"#utility.yul\":624:628   */\n      0x20\n        /* \"#utility.yul\":619:622   */\n      dup5\n        /* \"#utility.yul\":615:629   */\n      add\n        /* \"#utility.yul\":608:629   */\n      swap4\n      pop\n        /* \"#utility.yul\":658:662   */\n      0x20\n        /* \"#utility.yul\":653:656   */\n      dup4\n        /* \"#utility.yul\":649:663   */\n      add\n        /* \"#utility.yul\":642:663   */\n      swap3\n      pop\n        /* \"#utility.yul\":495:673   */\n      pop\n        /* \"#utility.yul\":482:483   */\n      0x01\n        /* \"#utility.yul\":479:480   */\n      dup2\n        /* \"#utility.yul\":475:484   */\n      add\n        /* \"#utility.yul\":470:484   */\n      swap1\n      pop\n        /* \"#utility.yul\":435:673   */\n      jump(tag_326)\n    tag_328:\n        /* \"#utility.yul\":439:453   */\n      pop\n        /* \"#utility.yul\":126:679   */\n      pop\n      pop\n      swap4\n      swap3\n      pop\n      pop\n      pop\n      jump\t// out\n        /* \"#utility.yul\":702:1357   */\n    tag_331:\n        /* \"#utility.yul\":798:803   */\n      0x00\n        /* \"#utility.yul\":823:904   */\n      tag_333\n        /* \"#utility.yul\":839:903   */\n      tag_334\n        /* \"#utility.yul\":896:902   */\n      dup5\n        /* \"#utility.yul\":839:903   */\n      tag_335\n      jump\t// in\n    tag_334:\n        /* \"#utility.yul\":823:904   */\n      tag_324\n      jump\t// in\n    tag_333:\n        /* \"#utility.yul\":814:904   */\n      swap1\n      pop\n        /* \"#utility.yul\":924:929   */\n      dup1\n        /* \"#utility.yul\":953:959   */\n      dup4\n        /* \"#utility.yul\":946:951   */\n      dup3\n        /* \"#utility.yul\":939:960   */\n      mstore\n        /* \"#utility.yul\":987:991   */\n      0x20\n        /* \"#utility.yul\":980:985   */\n      dup3\n        /* \"#utility.yul\":976:992   */\n      add\n        /* \"#utility.yul\":969:992   */\n      swap1\n      pop\n        /* \"#utility.yul\":1013:1019   */\n      dup3\n        /* \"#utility.yul\":1063:1066   */\n      dup6\n        /* \"#utility.yul\":1055:1059   */\n      0x20\n        /* \"#utility.yul\":1047:1053   */\n      dup7\n        /* \"#utility.yul\":1043:1060   */\n      mul\n        /* \"#utility.yul\":1038:1041   */\n      dup3\n        /* \"#utility.yul\":1034:1061   */\n      add\n        /* \"#utility.yul\":1031:1067   */\n      gt\n        /* \"#utility.yul\":1028:1030   */\n      iszero\n      tag_336\n      jumpi\n        /* \"#utility.yul\":1092:1093   */\n      0x00\n        /* \"#utility.yul\":1089:1090   */\n      dup1\n        /* \"#utility.yul\":1082:1094   */\n      revert\n        /* \"#utility.yul\":1028:1030   */\n    tag_336:\n        /* \"#utility.yul\":1128:1129   */\n      0x00\n        /* \"#utility.yul\":1113:1351   */\n    tag_337:\n        /* \"#utility.yul\":1138:1144   */\n      dup6\n        /* \"#utility.yul\":1135:1136   */\n      dup2\n        /* \"#utility.yul\":1132:1145   */\n      lt\n        /* \"#utility.yul\":1113:1351   */\n      iszero\n      tag_339\n      jumpi\n        /* \"#utility.yul\":1206:1209   */\n      dup2\n        /* \"#utility.yul\":1235:1272   */\n      tag_340\n        /* \"#utility.yul\":1268:1271   */\n      dup9\n        /* \"#utility.yul\":1256:1266   */\n      dup3\n        /* \"#utility.yul\":1235:1272   */\n      tag_341\n      jump\t// in\n    tag_340:\n        /* \"#utility.yul\":1230:1233   */\n      dup5\n        /* \"#utility.yul\":1223:1273   */\n      mstore\n        /* \"#utility.yul\":1302:1306   */\n      0x20\n        /* \"#utility.yul\":1297:1300   */\n      dup5\n        /* \"#utility.yul\":1293:1307   */\n      add\n        /* \"#utility.yul\":1286:1307   */\n      swap4\n      pop\n        /* \"#utility.yul\":1336:1340   */\n      0x20\n        /* \"#utility.yul\":1331:1334   */\n      dup4\n        /* \"#utility.yul\":1327:1341   */\n      add\n        /* \"#utility.yul\":1320:1341   */\n      swap3\n      pop\n        /* \"#utility.yul\":1173:1351   */\n      pop\n        /* \"#utility.yul\":1160:1161   */\n      0x01\n        /* \"#utility.yul\":1157:1158   */\n      dup2\n        /* \"#utility.yul\":1153:1162   */\n      add\n        /* \"#utility.yul\":1148:1162   */\n      swap1\n      pop\n        /* \"#utility.yul\":1113:1351   */\n      jump(tag_337)\n    tag_339:\n        /* \"#utility.yul\":1117:1131   */\n      pop\n        /* \"#utility.yul\":804:1357   */\n      pop\n      pop\n      swap4\n      swap3\n      pop\n      pop\n      pop\n      jump\t// out\n        /* \"#utility.yul\":1363:1706   */\n    tag_342:\n        /* \"#utility.yul\":1440:1445   */\n      0x00\n        /* \"#utility.yul\":1465:1530   */\n      tag_344\n        /* \"#utility.yul\":1481:1529   */\n      tag_345\n        /* \"#utility.yul\":1522:1528   */\n      dup5\n        /* \"#utility.yul\":1481:1529   */\n      tag_346\n      jump\t// in\n    tag_345:\n        /* \"#utility.yul\":1465:1530   */\n      tag_324\n      jump\t// in\n    tag_344:\n        /* \"#utility.yul\":1456:1530   */\n      swap1\n      pop\n        /* \"#utility.yul\":1553:1559   */\n      dup3\n        /* \"#utility.yul\":1546:1551   */\n      dup2\n        /* \"#utility.yul\":1539:1560   */\n      mstore\n        /* \"#utility.yul\":1591:1595   */\n      0x20\n        /* \"#utility.yul\":1584:1589   */\n      dup2\n        /* \"#utility.yul\":1580:1596   */\n      add\n        /* \"#utility.yul\":1629:1632   */\n      dup5\n        /* \"#utility.yul\":1620:1626   */\n      dup5\n        /* \"#utility.yul\":1615:1618   */\n      dup5\n        /* \"#utility.yul\":1611:1627   */\n      add\n        /* \"#utility.yul\":1608:1633   */\n      gt\n        /* \"#utility.yul\":1605:1607   */\n      iszero\n      tag_347\n      jumpi\n        /* \"#utility.yul\":1646:1647   */\n      0x00\n        /* \"#utility.yul\":1643:1644   */\n      dup1\n        /* \"#utility.yul\":1636:1648   */\n      revert\n        /* \"#utility.yul\":1605:1607   */\n    tag_347:\n        /* \"#utility.yul\":1659:1700   */\n      tag_348\n        /* \"#utility.yul\":1693:1699   */\n      dup5\n        /* \"#utility.yul\":1688:1691   */\n      dup3\n        /* \"#utility.yul\":1683:1686   */\n      dup6\n        /* \"#utility.yul\":1659:1700   */\n      tag_349\n      jump\t// in\n    tag_348:\n        /* \"#utility.yul\":1446:1706   */\n      pop\n      swap4\n      swap3\n      pop\n      pop\n      pop\n      jump\t// out\n        /* \"#utility.yul\":1712:2057   */\n    tag_350:\n        /* \"#utility.yul\":1790:1795   */\n      0x00\n        /* \"#utility.yul\":1815:1881   */\n      tag_352\n        /* \"#utility.yul\":1831:1880   */\n      tag_353\n        /* \"#utility.yul\":1873:1879   */\n      dup5\n        /* \"#utility.yul\":1831:1880   */\n      tag_354\n      jump\t// in\n    tag_353:\n        /* \"#utility.yul\":1815:1881   */\n      tag_324\n      jump\t// in\n    tag_352:\n        /* \"#utility.yul\":1806:1881   */\n      swap1\n      pop\n        /* \"#utility.yul\":1904:1910   */\n      dup3\n        /* \"#utility.yul\":1897:1902   */\n      dup2\n        /* \"#utility.yul\":1890:1911   */\n      mstore\n        /* \"#utility.yul\":1942:1946   */\n      0x20\n        /* \"#utility.yul\":1935:1940   */\n      dup2\n        /* \"#utility.yul\":1931:1947   */\n      add\n        /* \"#utility.yul\":1980:1983   */\n      dup5\n        /* \"#utility.yul\":1971:1977   */\n      dup5\n        /* \"#utility.yul\":1966:1969   */\n      dup5\n        /* \"#utility.yul\":1962:1978   */\n      add\n        /* \"#utility.yul\":1959:1984   */\n      gt\n        /* \"#utility.yul\":1956:1958   */\n      iszero\n      tag_355\n      jumpi\n        /* \"#utility.yul\":1997:1998   */\n      0x00\n        /* \"#utility.yul\":1994:1995   */\n      dup1\n        /* \"#utility.yul\":1987:1999   */\n      revert\n        /* \"#utility.yul\":1956:1958   */\n    tag_355:\n        /* \"#utility.yul\":2010:2051   */\n      tag_356\n        /* \"#utility.yul\":2044:2050   */\n      dup5\n        /* \"#utility.yul\":2039:2042   */\n      dup3\n        /* \"#utility.yul\":2034:2037   */\n      dup6\n        /* \"#utility.yul\":2010:2051   */\n      tag_349\n      jump\t// in\n    tag_356:\n        /* \"#utility.yul\":1796:2057   */\n      pop\n      swap4\n      swap3\n      pop\n      pop\n      pop\n      jump\t// out\n        /* \"#utility.yul\":2063:2202   */\n    tag_330:\n        /* \"#utility.yul\":2109:2114   */\n      0x00\n        /* \"#utility.yul\":2147:2153   */\n      dup2\n        /* \"#utility.yul\":2134:2154   */\n      calldataload\n        /* \"#utility.yul\":2125:2154   */\n      swap1\n      pop\n        /* \"#utility.yul\":2163:2196   */\n      tag_358\n        /* \"#utility.yul\":2190:2195   */\n      dup2\n        /* \"#utility.yul\":2163:2196   */\n      tag_359\n      jump\t// in\n    tag_358:\n        /* \"#utility.yul\":2115:2202   */\n      swap3\n      swap2\n      pop\n      pop\n      jump\t// out\n        /* \"#utility.yul\":2225:2528   */\n    tag_360:\n        /* \"#utility.yul\":2296:2301   */\n      0x00\n        /* \"#utility.yul\":2345:2348   */\n      dup3\n        /* \"#utility.yul\":2338:2342   */\n      0x1f\n        /* \"#utility.yul\":2330:2336   */\n      dup4\n        /* \"#utility.yul\":2326:2343   */\n      add\n        /* \"#utility.yul\":2322:2349   */\n      slt\n        /* \"#utility.yul\":2312:2314   */\n      tag_362\n      jumpi\n        /* \"#utility.yul\":2363:2364   */\n      0x00\n        /* \"#utility.yul\":2360:2361   */\n      dup1\n        /* \"#utility.yul\":2353:2365   */\n      revert\n        /* \"#utility.yul\":2312:2314   */\n    tag_362:\n        /* \"#utility.yul\":2403:2409   */\n      dup2\n        /* \"#utility.yul\":2390:2410   */\n      calldataload\n        /* \"#utility.yul\":2428:2522   */\n      tag_363\n        /* \"#utility.yul\":2518:2521   */\n      dup5\n        /* \"#utility.yul\":2510:2516   */\n      dup3\n        /* \"#utility.yul\":2503:2507   */\n      0x20\n        /* \"#utility.yul\":2495:2501   */\n      dup7\n        /* \"#utility.yul\":2491:2508   */\n      add\n        /* \"#utility.yul\":2428:2522   */\n      tag_319\n      jump\t// in\n    tag_363:\n        /* \"#utility.yul\":2419:2522   */\n      swap2\n      pop\n        /* \"#utility.yul\":2302:2528   */\n      pop\n      swap3\n      swap2\n      pop\n      pop\n      jump\t// out\n        /* \"#utility.yul\":2551:2854   */\n    tag_364:\n        /* \"#utility.yul\":2622:2627   */\n      0x00\n        /* \"#utility.yul\":2671:2674   */\n      dup3\n        /* \"#utility.yul\":2664:2668   */\n      0x1f\n        /* \"#utility.yul\":2656:2662   */\n      dup4\n        /* \"#utility.yul\":2652:2669   */\n      add\n        /* \"#utility.yul\":2648:2675   */\n      slt\n        /* \"#utility.yul\":2638:2640   */\n      tag_366\n      jumpi\n        /* \"#utility.yul\":2689:2690   */\n      0x00\n        /* \"#utility.yul\":2686:2687   */\n      dup1\n        /* \"#utility.yul\":2679:2691   */\n      revert\n        /* \"#utility.yul\":2638:2640   */\n    tag_366:\n        /* \"#utility.yul\":2729:2735   */\n      dup2\n        /* \"#utility.yul\":2716:2736   */\n      calldataload\n        /* \"#utility.yul\":2754:2848   */\n      tag_367\n        /* \"#utility.yul\":2844:2847   */\n      dup5\n        /* \"#utility.yul\":2836:2842   */\n      dup3\n        /* \"#utility.yul\":2829:2833   */\n      0x20\n        /* \"#utility.yul\":2821:2827   */\n      dup7\n        /* \"#utility.yul\":2817:2834   */\n      add\n        /* \"#utility.yul\":2754:2848   */\n      tag_331\n      jump\t// in\n    tag_367:\n        /* \"#utility.yul\":2745:2848   */\n      swap2\n      pop\n        /* \"#utility.yul\":2628:2854   */\n      pop\n      swap3\n      swap2\n      pop\n      pop\n      jump\t// out\n        /* \"#utility.yul\":2860:2993   */\n    tag_368:\n        /* \"#utility.yul\":2903:2908   */\n      0x00\n        /* \"#utility.yul\":2941:2947   */\n      dup2\n        /* \"#utility.yul\":2928:2948   */\n      calldataload\n        /* \"#utility.yul\":2919:2948   */\n      swap1\n      pop\n        /* \"#utility.yul\":2957:2987   */\n      tag_370\n        /* \"#utility.yul\":2981:2986   */\n      dup2\n        /* \"#utility.yul\":2957:2987   */\n      tag_371\n      jump\t// in\n    tag_370:\n        /* \"#utility.yul\":2909:2993   */\n      swap3\n      swap2\n      pop\n      pop\n      jump\t// out\n        /* \"#utility.yul\":2999:3136   */\n    tag_372:\n        /* \"#utility.yul\":3044:3049   */\n      0x00\n        /* \"#utility.yul\":3082:3088   */\n      dup2\n        /* \"#utility.yul\":3069:3089   */\n      calldataload\n        /* \"#utility.yul\":3060:3089   */\n      swap1\n      pop\n        /* \"#utility.yul\":3098:3130   */\n      tag_374\n        /* \"#utility.yul\":3124:3129   */\n      dup2\n        /* \"#utility.yul\":3098:3130   */\n      tag_375\n      jump\t// in\n    tag_374:\n        /* \"#utility.yul\":3050:3136   */\n      swap3\n      swap2\n      pop\n      pop\n      jump\t// out\n        /* \"#utility.yul\":3142:3283   */\n    tag_376:\n        /* \"#utility.yul\":3198:3203   */\n      0x00\n        /* \"#utility.yul\":3229:3235   */\n      dup2\n        /* \"#utility.yul\":3223:3236   */\n      mload\n        /* \"#utility.yul\":3214:3236   */\n      swap1\n      pop\n        /* \"#utility.yul\":3245:3277   */\n      tag_378\n        /* \"#utility.yul\":3271:3276   */\n      dup2\n        /* \"#utility.yul\":3245:3277   */\n      tag_375\n      jump\t// in\n    tag_378:\n        /* \"#utility.yul\":3204:3283   */\n      swap3\n      swap2\n      pop\n      pop\n      jump\t// out\n        /* \"#utility.yul\":3302:3573   */\n    tag_379:\n        /* \"#utility.yul\":3357:3362   */\n      0x00\n        /* \"#utility.yul\":3406:3409   */\n      dup3\n        /* \"#utility.yul\":3399:3403   */\n      0x1f\n        /* \"#utility.yul\":3391:3397   */\n      dup4\n        /* \"#utility.yul\":3387:3404   */\n      add\n        /* \"#utility.yul\":3383:3410   */\n      slt\n        /* \"#utility.yul\":3373:3375   */\n      tag_381\n      jumpi\n        /* \"#utility.yul\":3424:3425   */\n      0x00\n        /* \"#utility.yul\":3421:3422   */\n      dup1\n        /* \"#utility.yul\":3414:3426   */\n      revert\n        /* \"#utility.yul\":3373:3375   */\n    tag_381:\n        /* \"#utility.yul\":3464:3470   */\n      dup2\n        /* \"#utility.yul\":3451:3471   */\n      calldataload\n        /* \"#utility.yul\":3489:3567   */\n      tag_382\n        /* \"#utility.yul\":3563:3566   */\n      dup5\n        /* \"#utility.yul\":3555:3561   */\n      dup3\n        /* \"#utility.yul\":3548:3552   */\n      0x20\n        /* \"#utility.yul\":3540:3546   */\n      dup7\n        /* \"#utility.yul\":3536:3553   */\n      add\n        /* \"#utility.yul\":3489:3567   */\n      tag_342\n      jump\t// in\n    tag_382:\n        /* \"#utility.yul\":3480:3567   */\n      swap2\n      pop\n        /* \"#utility.yul\":3363:3573   */\n      pop\n      swap3\n      swap2\n      pop\n      pop\n      jump\t// out\n        /* \"#utility.yul\":3593:3866   */\n    tag_383:\n        /* \"#utility.yul\":3649:3654   */\n      0x00\n        /* \"#utility.yul\":3698:3701   */\n      dup3\n        /* \"#utility.yul\":3691:3695   */\n      0x1f\n        /* \"#utility.yul\":3683:3689   */\n      dup4\n        /* \"#utility.yul\":3679:3696   */\n      add\n        /* \"#utility.yul\":3675:3702   */\n      slt\n        /* \"#utility.yul\":3665:3667   */\n      tag_385\n      jumpi\n        /* \"#utility.yul\":3716:3717   */\n      0x00\n        /* \"#utility.yul\":3713:3714   */\n      dup1\n        /* \"#utility.yul\":3706:3718   */\n      revert\n        /* \"#utility.yul\":3665:3667   */\n    tag_385:\n        /* \"#utility.yul\":3756:3762   */\n      dup2\n        /* \"#utility.yul\":3743:3763   */\n      calldataload\n        /* \"#utility.yul\":3781:3860   */\n      tag_386\n        /* \"#utility.yul\":3856:3859   */\n      dup5\n        /* \"#utility.yul\":3848:3854   */\n      dup3\n        /* \"#utility.yul\":3841:3845   */\n      0x20\n        /* \"#utility.yul\":3833:3839   */\n      dup7\n        /* \"#utility.yul\":3829:3846   */\n      add\n        /* \"#utility.yul\":3781:3860   */\n      tag_350\n      jump\t// in\n    tag_386:\n        /* \"#utility.yul\":3772:3860   */\n      swap2\n      pop\n        /* \"#utility.yul\":3655:3866   */\n      pop\n      swap3\n      swap2\n      pop\n      pop\n      jump\t// out\n        /* \"#utility.yul\":3903:4664   */\n    tag_387:\n        /* \"#utility.yul\":3981:3986   */\n      0x00\n        /* \"#utility.yul\":4025:4029   */\n      0x40\n        /* \"#utility.yul\":4013:4022   */\n      dup3\n        /* \"#utility.yul\":4008:4011   */\n      dup5\n        /* \"#utility.yul\":4004:4023   */\n      sub\n        /* \"#utility.yul\":4000:4030   */\n      slt\n        /* \"#utility.yul\":3997:3999   */\n      iszero\n      tag_389\n      jumpi\n        /* \"#utility.yul\":4043:4044   */\n      0x00\n        /* \"#utility.yul\":4040:4041   */\n      dup1\n        /* \"#utility.yul\":4033:4045   */\n      revert\n        /* \"#utility.yul\":3997:3999   */\n    tag_389:\n        /* \"#utility.yul\":4065:4086   */\n      tag_390\n        /* \"#utility.yul\":4081:4085   */\n      0x40\n        /* \"#utility.yul\":4065:4086   */\n      tag_324\n      jump\t// in\n    tag_390:\n        /* \"#utility.yul\":4056:4086   */\n      swap1\n      pop\n        /* \"#utility.yul\":4181:4182   */\n      0x00\n        /* \"#utility.yul\":4170:4179   */\n      dup3\n        /* \"#utility.yul\":4166:4183   */\n      add\n        /* \"#utility.yul\":4153:4184   */\n      calldataload\n        /* \"#utility.yul\":4211:4229   */\n      0xffffffffffffffff\n        /* \"#utility.yul\":4203:4209   */\n      dup2\n        /* \"#utility.yul\":4200:4230   */\n      gt\n        /* \"#utility.yul\":4197:4199   */\n      iszero\n      tag_391\n      jumpi\n        /* \"#utility.yul\":4243:4244   */\n      0x00\n        /* \"#utility.yul\":4240:4241   */\n      dup1\n        /* \"#utility.yul\":4233:4245   */\n      revert\n        /* \"#utility.yul\":4197:4199   */\n    tag_391:\n        /* \"#utility.yul\":4286:4360   */\n      tag_392\n        /* \"#utility.yul\":4356:4359   */\n      dup5\n        /* \"#utility.yul\":4347:4353   */\n      dup3\n        /* \"#utility.yul\":4336:4345   */\n      dup6\n        /* \"#utility.yul\":4332:4354   */\n      add\n        /* \"#utility.yul\":4286:4360   */\n      tag_360\n      jump\t// in\n    tag_392:\n        /* \"#utility.yul\":4279:4283   */\n      0x00\n        /* \"#utility.yul\":4272:4277   */\n      dup4\n        /* \"#utility.yul\":4268:4284   */\n      add\n        /* \"#utility.yul\":4261:4361   */\n      mstore\n        /* \"#utility.yul\":4096:4372   */\n      pop\n        /* \"#utility.yul\":4465:4467   */\n      0x20\n        /* \"#utility.yul\":4454:4463   */\n      dup3\n        /* \"#utility.yul\":4450:4468   */\n      add\n        /* \"#utility.yul\":4437:4469   */\n      calldataload\n        /* \"#utility.yul\":4496:4514   */\n      0xffffffffffffffff\n        /* \"#utility.yul\":4488:4494   */\n      dup2\n        /* \"#utility.yul\":4485:4515   */\n      gt\n        /* \"#utility.yul\":4482:4484   */\n      iszero\n      tag_393\n      jumpi\n        /* \"#utility.yul\":4528:4529   */\n      0x00\n        /* \"#utility.yul\":4525:4526   */\n      dup1\n        /* \"#utility.yul\":4518:4530   */\n      revert\n        /* \"#utility.yul\":4482:4484   */\n    tag_393:\n        /* \"#utility.yul\":4571:4645   */\n      tag_394\n        /* \"#utility.yul\":4641:4644   */\n      dup5\n        /* \"#utility.yul\":4632:4638   */\n      dup3\n        /* \"#utility.yul\":4621:4630   */\n      dup6\n        /* \"#utility.yul\":4617:4639   */\n      add\n        /* \"#utility.yul\":4571:4645   */\n      tag_364\n      jump\t// in\n    tag_394:\n        /* \"#utility.yul\":4564:4568   */\n      0x20\n        /* \"#utility.yul\":4557:4562   */\n      dup4\n        /* \"#utility.yul\":4553:4569   */\n      add\n        /* \"#utility.yul\":4546:4646   */\n      mstore\n        /* \"#utility.yul\":4382:4657   */\n      pop\n        /* \"#utility.yul\":3987:4664   */\n      swap3\n      swap2\n      pop\n      pop\n      jump\t// out\n        /* \"#utility.yul\":4670:4809   */\n    tag_341:\n        /* \"#utility.yul\":4716:4721   */\n      0x00\n        /* \"#utility.yul\":4754:4760   */\n      dup2\n        /* \"#utility.yul\":4741:4761   */\n      calldataload\n        /* \"#utility.yul\":4732:4761   */\n      swap1\n      pop\n        /* \"#utility.yul\":4770:4803   */\n      tag_396\n        /* \"#utility.yul\":4797:4802   */\n      dup2\n        /* \"#utility.yul\":4770:4803   */\n      tag_397\n      jump\t// in\n    tag_396:\n        /* \"#utility.yul\":4722:4809   */\n      swap3\n      swap2\n      pop\n      pop\n      jump\t// out\n        /* \"#utility.yul\":4815:5077   */\n    tag_64:\n        /* \"#utility.yul\":4874:4880   */\n      0x00\n        /* \"#utility.yul\":4923:4925   */\n      0x20\n        /* \"#utility.yul\":4911:4920   */\n      dup3\n        /* \"#utility.yul\":4902:4909   */\n      dup5\n        /* \"#utility.yul\":4898:4921   */\n      sub\n        /* \"#utility.yul\":4894:4926   */\n      slt\n        /* \"#utility.yul\":4891:4893   */\n      iszero\n      tag_399\n      jumpi\n        /* \"#utility.yul\":4939:4940   */\n      0x00\n        /* \"#utility.yul\":4936:4937   */\n      dup1\n        /* \"#utility.yul\":4929:4941   */\n      revert\n        /* \"#utility.yul\":4891:4893   */\n    tag_399:\n        /* \"#utility.yul\":4982:4983   */\n      0x00\n        /* \"#utility.yul\":5007:5060   */\n      tag_400\n        /* \"#utility.yul\":5052:5059   */\n      dup5\n        /* \"#utility.yul\":5043:5049   */\n      dup3\n        /* \"#utility.yul\":5032:5041   */\n      dup6\n        /* \"#utility.yul\":5028:5050   */\n      add\n        /* \"#utility.yul\":5007:5060   */\n      tag_330\n      jump\t// in\n    tag_400:\n        /* \"#utility.yul\":4997:5060   */\n      swap2\n      pop\n        /* \"#utility.yul\":4953:5070   */\n      pop\n        /* \"#utility.yul\":4881:5077   */\n      swap3\n      swap2\n      pop\n      pop\n      jump\t// out\n        /* \"#utility.yul\":5083:5490   */\n    tag_85:\n        /* \"#utility.yul\":5151:5157   */\n      0x00\n        /* \"#utility.yul\":5159:5165   */\n      dup1\n        /* \"#utility.yul\":5208:5210   */\n      0x40\n        /* \"#utility.yul\":5196:5205   */\n      dup4\n        /* \"#utility.yul\":5187:5194   */\n      dup6\n        /* \"#utility.yul\":5183:5206   */\n      sub\n        /* \"#utility.yul\":5179:5211   */\n      slt\n        /* \"#utility.yul\":5176:5178   */\n      iszero\n      tag_402\n      jumpi\n        /* \"#utility.yul\":5224:5225   */\n      0x00\n        /* \"#utility.yul\":5221:5222   */\n      dup1\n        /* \"#utility.yul\":5214:5226   */\n      revert\n        /* \"#utility.yul\":5176:5178   */\n    tag_402:\n        /* \"#utility.yul\":5267:5268   */\n      0x00\n        /* \"#utility.yul\":5292:5345   */\n      tag_403\n        /* \"#utility.yul\":5337:5344   */\n      dup6\n        /* \"#utility.yul\":5328:5334   */\n      dup3\n        /* \"#utility.yul\":5317:5326   */\n      dup7\n        /* \"#utility.yul\":5313:5335   */\n      add\n        /* \"#utility.yul\":5292:5345   */\n      tag_330\n      jump\t// in\n    tag_403:\n        /* \"#utility.yul\":5282:5345   */\n      swap3\n      pop\n        /* \"#utility.yul\":5238:5355   */\n      pop\n        /* \"#utility.yul\":5394:5396   */\n      0x20\n        /* \"#utility.yul\":5420:5473   */\n      tag_404\n        /* \"#utility.yul\":5465:5472   */\n      dup6\n        /* \"#utility.yul\":5456:5462   */\n      dup3\n        /* \"#utility.yul\":5445:5454   */\n      dup7\n        /* \"#utility.yul\":5441:5463   */\n      add\n        /* \"#utility.yul\":5420:5473   */\n      tag_330\n      jump\t// in\n    tag_404:\n        /* \"#utility.yul\":5410:5473   */\n      swap2\n      pop\n        /* \"#utility.yul\":5365:5483   */\n      pop\n        /* \"#utility.yul\":5166:5490   */\n      swap3\n      pop\n      swap3\n      swap1\n      pop\n      jump\t// out\n        /* \"#utility.yul\":5496:6048   */\n    tag_44:\n        /* \"#utility.yul\":5573:5579   */\n      0x00\n        /* \"#utility.yul\":5581:5587   */\n      dup1\n        /* \"#utility.yul\":5589:5595   */\n      0x00\n        /* \"#utility.yul\":5638:5640   */\n      0x60\n        /* \"#utility.yul\":5626:5635   */\n      dup5\n        /* \"#utility.yul\":5617:5624   */\n      dup7\n        /* \"#utility.yul\":5613:5636   */\n      sub\n        /* \"#utility.yul\":5609:5641   */\n      slt\n        /* \"#utility.yul\":5606:5608   */\n      iszero\n      tag_406\n      jumpi\n        /* \"#utility.yul\":5654:5655   */\n      0x00\n        /* \"#utility.yul\":5651:5652   */\n      dup1\n        /* \"#utility.yul\":5644:5656   */\n      revert\n        /* \"#utility.yul\":5606:5608   */\n    tag_406:\n        /* \"#utility.yul\":5697:5698   */\n      0x00\n        /* \"#utility.yul\":5722:5775   */\n      tag_407\n        /* \"#utility.yul\":5767:5774   */\n      dup7\n        /* \"#utility.yul\":5758:5764   */\n      dup3\n        /* \"#utility.yul\":5747:5756   */\n      dup8\n        /* \"#utility.yul\":5743:5765   */\n      add\n        /* \"#utility.yul\":5722:5775   */\n      tag_330\n      jump\t// in\n    tag_407:\n        /* \"#utility.yul\":5712:5775   */\n      swap4\n      pop\n        /* \"#utility.yul\":5668:5785   */\n      pop\n        /* \"#utility.yul\":5824:5826   */\n      0x20\n        /* \"#utility.yul\":5850:5903   */\n      tag_408\n        /* \"#utility.yul\":5895:5902   */\n      dup7\n        /* \"#utility.yul\":5886:5892   */\n      dup3\n        /* \"#utility.yul\":5875:5884   */\n      dup8\n        /* \"#utility.yul\":5871:5893   */\n      add\n        /* \"#utility.yul\":5850:5903   */\n      tag_330\n      jump\t// in\n    tag_408:\n        /* \"#utility.yul\":5840:5903   */\n      swap3\n      pop\n        /* \"#utility.yul\":5795:5913   */\n      pop\n        /* \"#utility.yul\":5952:5954   */\n      0x40\n        /* \"#utility.yul\":5978:6031   */\n      tag_409\n        /* \"#utility.yul\":6023:6030   */\n      dup7\n        /* \"#utility.yul\":6014:6020   */\n      dup3\n        /* \"#utility.yul\":6003:6012   */\n      dup8\n        /* \"#utility.yul\":5999:6021   */\n      add\n        /* \"#utility.yul\":5978:6031   */\n      tag_341\n      jump\t// in\n    tag_409:\n        /* \"#utility.yul\":5968:6031   */\n      swap2\n      pop\n        /* \"#utility.yul\":5923:6041   */\n      pop\n        /* \"#utility.yul\":5596:6048   */\n      swap3\n      pop\n      swap3\n      pop\n      swap3\n      jump\t// out\n        /* \"#utility.yul\":6054:6863   */\n    tag_77:\n        /* \"#utility.yul\":6149:6155   */\n      0x00\n        /* \"#utility.yul\":6157:6163   */\n      dup1\n        /* \"#utility.yul\":6165:6171   */\n      0x00\n        /* \"#utility.yul\":6173:6179   */\n      dup1\n        /* \"#utility.yul\":6222:6225   */\n      0x80\n        /* \"#utility.yul\":6210:6219   */\n      dup6\n        /* \"#utility.yul\":6201:6208   */\n      dup8\n        /* \"#utility.yul\":6197:6220   */\n      sub\n        /* \"#utility.yul\":6193:6226   */\n      slt\n        /* \"#utility.yul\":6190:6192   */\n      iszero\n      tag_411\n      jumpi\n        /* \"#utility.yul\":6239:6240   */\n      0x00\n        /* \"#utility.yul\":6236:6237   */\n      dup1\n        /* \"#utility.yul\":6229:6241   */\n      revert\n        /* \"#utility.yul\":6190:6192   */\n    tag_411:\n        /* \"#utility.yul\":6282:6283   */\n      0x00\n        /* \"#utility.yul\":6307:6360   */\n      tag_412\n        /* \"#utility.yul\":6352:6359   */\n      dup8\n        /* \"#utility.yul\":6343:6349   */\n      dup3\n        /* \"#utility.yul\":6332:6341   */\n      dup9\n        /* \"#utility.yul\":6328:6350   */\n      add\n        /* \"#utility.yul\":6307:6360   */\n      tag_330\n      jump\t// in\n    tag_412:\n        /* \"#utility.yul\":6297:6360   */\n      swap5\n      pop\n        /* \"#utility.yul\":6253:6370   */\n      pop\n        /* \"#utility.yul\":6409:6411   */\n      0x20\n        /* \"#utility.yul\":6435:6488   */\n      tag_413\n        /* \"#utility.yul\":6480:6487   */\n      dup8\n        /* \"#utility.yul\":6471:6477   */\n      dup3\n        /* \"#utility.yul\":6460:6469   */\n      dup9\n        /* \"#utility.yul\":6456:6478   */\n      add\n        /* \"#utility.yul\":6435:6488   */\n      tag_330\n      jump\t// in\n    tag_413:\n        /* \"#utility.yul\":6425:6488   */\n      swap4\n      pop\n        /* \"#utility.yul\":6380:6498   */\n      pop\n        /* \"#utility.yul\":6537:6539   */\n      0x40\n        /* \"#utility.yul\":6563:6616   */\n      tag_414\n        /* \"#utility.yul\":6608:6615   */\n      dup8\n        /* \"#utility.yul\":6599:6605   */\n      dup3\n        /* \"#utility.yul\":6588:6597   */\n      dup9\n        /* \"#utility.yul\":6584:6606   */\n      add\n        /* \"#utility.yul\":6563:6616   */\n      tag_341\n      jump\t// in\n    tag_414:\n        /* \"#utility.yul\":6553:6616   */\n      swap3\n      pop\n        /* \"#utility.yul\":6508:6626   */\n      pop\n        /* \"#utility.yul\":6693:6695   */\n      0x60\n        /* \"#utility.yul\":6682:6691   */\n      dup6\n        /* \"#utility.yul\":6678:6696   */\n      add\n        /* \"#utility.yul\":6665:6697   */\n      calldataload\n        /* \"#utility.yul\":6724:6742   */\n      0xffffffffffffffff\n        /* \"#utility.yul\":6716:6722   */\n      dup2\n        /* \"#utility.yul\":6713:6743   */\n      gt\n        /* \"#utility.yul\":6710:6712   */\n      iszero\n      tag_415\n      jumpi\n        /* \"#utility.yul\":6756:6757   */\n      0x00\n        /* \"#utility.yul\":6753:6754   */\n      dup1\n        /* \"#utility.yul\":6746:6758   */\n      revert\n        /* \"#utility.yul\":6710:6712   */\n    tag_415:\n        /* \"#utility.yul\":6784:6846   */\n      tag_416\n        /* \"#utility.yul\":6838:6845   */\n      dup8\n        /* \"#utility.yul\":6829:6835   */\n      dup3\n        /* \"#utility.yul\":6818:6827   */\n      dup9\n        /* \"#utility.yul\":6814:6836   */\n      add\n        /* \"#utility.yul\":6784:6846   */\n      tag_379\n      jump\t// in\n    tag_416:\n        /* \"#utility.yul\":6774:6846   */\n      swap2\n      pop\n        /* \"#utility.yul\":6636:6856   */\n      pop\n        /* \"#utility.yul\":6180:6863   */\n      swap3\n      swap6\n      swap2\n      swap5\n      pop\n      swap3\n      pop\n      jump\t// out\n        /* \"#utility.yul\":6869:7270   */\n    tag_73:\n        /* \"#utility.yul\":6934:6940   */\n      0x00\n        /* \"#utility.yul\":6942:6948   */\n      dup1\n        /* \"#utility.yul\":6991:6993   */\n      0x40\n        /* \"#utility.yul\":6979:6988   */\n      dup4\n        /* \"#utility.yul\":6970:6977   */\n      dup6\n        /* \"#utility.yul\":6966:6989   */\n      sub\n        /* \"#utility.yul\":6962:6994   */\n      slt\n        /* \"#utility.yul\":6959:6961   */\n      iszero\n      tag_418\n      jumpi\n        /* \"#utility.yul\":7007:7008   */\n      0x00\n        /* \"#utility.yul\":7004:7005   */\n      dup1\n        /* \"#utility.yul\":6997:7009   */\n      revert\n        /* \"#utility.yul\":6959:6961   */\n    tag_418:\n        /* \"#utility.yul\":7050:7051   */\n      0x00\n        /* \"#utility.yul\":7075:7128   */\n      tag_419\n        /* \"#utility.yul\":7120:7127   */\n      dup6\n        /* \"#utility.yul\":7111:7117   */\n      dup3\n        /* \"#utility.yul\":7100:7109   */\n      dup7\n        /* \"#utility.yul\":7096:7118   */\n      add\n        /* \"#utility.yul\":7075:7128   */\n      tag_330\n      jump\t// in\n    tag_419:\n        /* \"#utility.yul\":7065:7128   */\n      swap3\n      pop\n        /* \"#utility.yul\":7021:7138   */\n      pop\n        /* \"#utility.yul\":7177:7179   */\n      0x20\n        /* \"#utility.yul\":7203:7253   */\n      tag_420\n        /* \"#utility.yul\":7245:7252   */\n      dup6\n        /* \"#utility.yul\":7236:7242   */\n      dup3\n        /* \"#utility.yul\":7225:7234   */\n      dup7\n        /* \"#utility.yul\":7221:7243   */\n      add\n        /* \"#utility.yul\":7203:7253   */\n      tag_368\n      jump\t// in\n    tag_420:\n        /* \"#utility.yul\":7193:7253   */\n      swap2\n      pop\n        /* \"#utility.yul\":7148:7263   */\n      pop\n        /* \"#utility.yul\":6949:7270   */\n      swap3\n      pop\n      swap3\n      swap1\n      pop\n      jump\t// out\n        /* \"#utility.yul\":7276:8384   */\n    tag_48:\n        /* \"#utility.yul\":7410:7416   */\n      0x00\n        /* \"#utility.yul\":7418:7424   */\n      dup1\n        /* \"#utility.yul\":7426:7432   */\n      0x00\n        /* \"#utility.yul\":7434:7440   */\n      dup1\n        /* \"#utility.yul\":7442:7448   */\n      0x00\n        /* \"#utility.yul\":7491:7494   */\n      0xa0\n        /* \"#utility.yul\":7479:7488   */\n      dup7\n        /* \"#utility.yul\":7470:7477   */\n      dup9\n        /* \"#utility.yul\":7466:7489   */\n      sub\n        /* \"#utility.yul\":7462:7495   */\n      slt\n        /* \"#utility.yul\":7459:7461   */\n      iszero\n      tag_422\n      jumpi\n        /* \"#utility.yul\":7508:7509   */\n      0x00\n        /* \"#utility.yul\":7505:7506   */\n      dup1\n        /* \"#utility.yul\":7498:7510   */\n      revert\n        /* \"#utility.yul\":7459:7461   */\n    tag_422:\n        /* \"#utility.yul\":7551:7552   */\n      0x00\n        /* \"#utility.yul\":7576:7629   */\n      tag_423\n        /* \"#utility.yul\":7621:7628   */\n      dup9\n        /* \"#utility.yul\":7612:7618   */\n      dup3\n        /* \"#utility.yul\":7601:7610   */\n      dup10\n        /* \"#utility.yul\":7597:7619   */\n      add\n        /* \"#utility.yul\":7576:7629   */\n      tag_330\n      jump\t// in\n    tag_423:\n        /* \"#utility.yul\":7566:7629   */\n      swap6\n      pop\n        /* \"#utility.yul\":7522:7639   */\n      pop\n        /* \"#utility.yul\":7706:7708   */\n      0x20\n        /* \"#utility.yul\":7695:7704   */\n      dup7\n        /* \"#utility.yul\":7691:7709   */\n      add\n        /* \"#utility.yul\":7678:7710   */\n      calldataload\n        /* \"#utility.yul\":7737:7755   */\n      0xffffffffffffffff\n        /* \"#utility.yul\":7729:7735   */\n      dup2\n        /* \"#utility.yul\":7726:7756   */\n      gt\n        /* \"#utility.yul\":7723:7725   */\n      iszero\n      tag_424\n      jumpi\n        /* \"#utility.yul\":7769:7770   */\n      0x00\n        /* \"#utility.yul\":7766:7767   */\n      dup1\n        /* \"#utility.yul\":7759:7771   */\n      revert\n        /* \"#utility.yul\":7723:7725   */\n    tag_424:\n        /* \"#utility.yul\":7797:7879   */\n      tag_425\n        /* \"#utility.yul\":7871:7878   */\n      dup9\n        /* \"#utility.yul\":7862:7868   */\n      dup3\n        /* \"#utility.yul\":7851:7860   */\n      dup10\n        /* \"#utility.yul\":7847:7869   */\n      add\n        /* \"#utility.yul\":7797:7879   */\n      tag_387\n      jump\t// in\n    tag_425:\n        /* \"#utility.yul\":7787:7879   */\n      swap5\n      pop\n        /* \"#utility.yul\":7649:7889   */\n      pop\n        /* \"#utility.yul\":7928:7930   */\n      0x40\n        /* \"#utility.yul\":7954:8007   */\n      tag_426\n        /* \"#utility.yul\":7999:8006   */\n      dup9\n        /* \"#utility.yul\":7990:7996   */\n      dup3\n        /* \"#utility.yul\":7979:7988   */\n      dup10\n        /* \"#utility.yul\":7975:7997   */\n      add\n        /* \"#utility.yul\":7954:8007   */\n      tag_341\n      jump\t// in\n    tag_426:\n        /* \"#utility.yul\":7944:8007   */\n      swap4\n      pop\n        /* \"#utility.yul\":7899:8017   */\n      pop\n        /* \"#utility.yul\":8056:8058   */\n      0x60\n        /* \"#utility.yul\":8082:8135   */\n      tag_427\n        /* \"#utility.yul\":8127:8134   */\n      dup9\n        /* \"#utility.yul\":8118:8124   */\n      dup3\n        /* \"#utility.yul\":8107:8116   */\n      dup10\n        /* \"#utility.yul\":8103:8125   */\n      add\n        /* \"#utility.yul\":8082:8135   */\n      tag_341\n      jump\t// in\n    tag_427:\n        /* \"#utility.yul\":8072:8135   */\n      swap3\n      pop\n        /* \"#utility.yul\":8027:8145   */\n      pop\n        /* \"#utility.yul\":8212:8215   */\n      0x80\n        /* \"#utility.yul\":8201:8210   */\n      dup7\n        /* \"#utility.yul\":8197:8216   */\n      add\n        /* \"#utility.yul\":8184:8217   */\n      calldataload\n        /* \"#utility.yul\":8244:8262   */\n      0xffffffffffffffff\n        /* \"#utility.yul\":8236:8242   */\n      dup2\n        /* \"#utility.yul\":8233:8263   */\n      gt\n        /* \"#utility.yul\":8230:8232   */\n      iszero\n      tag_428\n      jumpi\n        /* \"#utility.yul\":8276:8277   */\n      0x00\n        /* \"#utility.yul\":8273:8274   */\n      dup1\n        /* \"#utility.yul\":8266:8278   */\n      revert\n        /* \"#utility.yul\":8230:8232   */\n    tag_428:\n        /* \"#utility.yul\":8304:8367   */\n      tag_429\n        /* \"#utility.yul\":8359:8366   */\n      dup9\n        /* \"#utility.yul\":8350:8356   */\n      dup3\n        /* \"#utility.yul\":8339:8348   */\n      dup10\n        /* \"#utility.yul\":8335:8357   */\n      add\n        /* \"#utility.yul\":8304:8367   */\n      tag_383\n      jump\t// in\n    tag_429:\n        /* \"#utility.yul\":8294:8367   */\n      swap2\n      pop\n        /* \"#utility.yul\":8155:8377   */\n      pop\n        /* \"#utility.yul\":7449:8384   */\n      swap3\n      swap6\n      pop\n      swap3\n      swap6\n      swap1\n      swap4\n      pop\n      jump\t// out\n        /* \"#utility.yul\":8390:8797   */\n    tag_40:\n        /* \"#utility.yul\":8458:8464   */\n      0x00\n        /* \"#utility.yul\":8466:8472   */\n      dup1\n        /* \"#utility.yul\":8515:8517   */\n      0x40\n        /* \"#utility.yul\":8503:8512   */\n      dup4\n        /* \"#utility.yul\":8494:8501   */\n      dup6\n        /* \"#utility.yul\":8490:8513   */\n      sub\n        /* \"#utility.yul\":8486:8518   */\n      slt\n        /* \"#utility.yul\":8483:8485   */\n      iszero\n      tag_431\n      jumpi\n        /* \"#utility.yul\":8531:8532   */\n      0x00\n        /* \"#utility.yul\":8528:8529   */\n      dup1\n        /* \"#utility.yul\":8521:8533   */\n      revert\n        /* \"#utility.yul\":8483:8485   */\n    tag_431:\n        /* \"#utility.yul\":8574:8575   */\n      0x00\n        /* \"#utility.yul\":8599:8652   */\n      tag_432\n        /* \"#utility.yul\":8644:8651   */\n      dup6\n        /* \"#utility.yul\":8635:8641   */\n      dup3\n        /* \"#utility.yul\":8624:8633   */\n      dup7\n        /* \"#utility.yul\":8620:8642   */\n      add\n        /* \"#utility.yul\":8599:8652   */\n      tag_330\n      jump\t// in\n    tag_432:\n        /* \"#utility.yul\":8589:8652   */\n      swap3\n      pop\n        /* \"#utility.yul\":8545:8662   */\n      pop\n        /* \"#utility.yul\":8701:8703   */\n      0x20\n        /* \"#utility.yul\":8727:8780   */\n      tag_433\n        /* \"#utility.yul\":8772:8779   */\n      dup6\n        /* \"#utility.yul\":8763:8769   */\n      dup3\n        /* \"#utility.yul\":8752:8761   */\n      dup7\n        /* \"#utility.yul\":8748:8770   */\n      add\n        /* \"#utility.yul\":8727:8780   */\n      tag_341\n      jump\t// in\n    tag_433:\n        /* \"#utility.yul\":8717:8780   */\n      swap2\n      pop\n        /* \"#utility.yul\":8672:8790   */\n      pop\n        /* \"#utility.yul\":8473:8797   */\n      swap3\n      pop\n      swap3\n      swap1\n      pop\n      jump\t// out\n        /* \"#utility.yul\":8803:9063   */\n    tag_24:\n        /* \"#utility.yul\":8861:8867   */\n      0x00\n        /* \"#utility.yul\":8910:8912   */\n      0x20\n        /* \"#utility.yul\":8898:8907   */\n      dup3\n        /* \"#utility.yul\":8889:8896   */\n      dup5\n        /* \"#utility.yul\":8885:8908   */\n      sub\n        /* \"#utility.yul\":8881:8913   */\n      slt\n        /* \"#utility.yul\":8878:8880   */\n      iszero\n      tag_435\n      jumpi\n        /* \"#utility.yul\":8926:8927   */\n      0x00\n        /* \"#utility.yul\":8923:8924   */\n      dup1\n        /* \"#utility.yul\":8916:8928   */\n      revert\n        /* \"#utility.yul\":8878:8880   */\n    tag_435:\n        /* \"#utility.yul\":8969:8970   */\n      0x00\n        /* \"#utility.yul\":8994:9046   */\n      tag_436\n        /* \"#utility.yul\":9038:9045   */\n      dup5\n        /* \"#utility.yul\":9029:9035   */\n      dup3\n        /* \"#utility.yul\":9018:9027   */\n      dup6\n        /* \"#utility.yul\":9014:9036   */\n      add\n        /* \"#utility.yul\":8994:9046   */\n      tag_372\n      jump\t// in\n    tag_436:\n        /* \"#utility.yul\":8984:9046   */\n      swap2\n      pop\n        /* \"#utility.yul\":8940:9056   */\n      pop\n        /* \"#utility.yul\":8868:9063   */\n      swap3\n      swap2\n      pop\n      pop\n      jump\t// out\n        /* \"#utility.yul\":9069:9351   */\n    tag_270:\n        /* \"#utility.yul\":9138:9144   */\n      0x00\n        /* \"#utility.yul\":9187:9189   */\n      0x20\n        /* \"#utility.yul\":9175:9184   */\n      dup3\n        /* \"#utility.yul\":9166:9173   */\n      dup5\n        /* \"#utility.yul\":9162:9185   */\n      sub\n        /* \"#utility.yul\":9158:9190   */\n      slt\n        /* \"#utility.yul\":9155:9157   */\n      iszero\n      tag_438\n      jumpi\n        /* \"#utility.yul\":9203:9204   */\n      0x00\n        /* \"#utility.yul\":9200:9201   */\n      dup1\n        /* \"#utility.yul\":9193:9205   */\n      revert\n        /* \"#utility.yul\":9155:9157   */\n    tag_438:\n        /* \"#utility.yul\":9246:9247   */\n      0x00\n        /* \"#utility.yul\":9271:9334   */\n      tag_439\n        /* \"#utility.yul\":9326:9333   */\n      dup5\n        /* \"#utility.yul\":9317:9323   */\n      dup3\n        /* \"#utility.yul\":9306:9315   */\n      dup6\n        /* \"#utility.yul\":9302:9324   */\n      add\n        /* \"#utility.yul\":9271:9334   */\n      tag_376\n      jump\t// in\n    tag_439:\n        /* \"#utility.yul\":9261:9334   */\n      swap2\n      pop\n        /* \"#utility.yul\":9217:9344   */\n      pop\n        /* \"#utility.yul\":9145:9351   */\n      swap3\n      swap2\n      pop\n      pop\n      jump\t// out\n        /* \"#utility.yul\":9357:9619   */\n    tag_34:\n        /* \"#utility.yul\":9416:9422   */\n      0x00\n        /* \"#utility.yul\":9465:9467   */\n      0x20\n        /* \"#utility.yul\":9453:9462   */\n      dup3\n        /* \"#utility.yul\":9444:9451   */\n      dup5\n        /* \"#utility.yul\":9440:9463   */\n      sub\n        /* \"#utility.yul\":9436:9468   */\n      slt\n        /* \"#utility.yul\":9433:9435   */\n      iszero\n      tag_441\n      jumpi\n        /* \"#utility.yul\":9481:9482   */\n      0x00\n        /* \"#utility.yul\":9478:9479   */\n      dup1\n        /* \"#utility.yul\":9471:9483   */\n      revert\n        /* \"#utility.yul\":9433:9435   */\n    tag_441:\n        /* \"#utility.yul\":9524:9525   */\n      0x00\n        /* \"#utility.yul\":9549:9602   */\n      tag_442\n        /* \"#utility.yul\":9594:9601   */\n      dup5\n        /* \"#utility.yul\":9585:9591   */\n      dup3\n        /* \"#utility.yul\":9574:9583   */\n      dup6\n        /* \"#utility.yul\":9570:9592   */\n      add\n        /* \"#utility.yul\":9549:9602   */\n      tag_341\n      jump\t// in\n    tag_442:\n        /* \"#utility.yul\":9539:9602   */\n      swap2\n      pop\n        /* \"#utility.yul\":9495:9612   */\n      pop\n        /* \"#utility.yul\":9423:9619   */\n      swap3\n      swap2\n      pop\n      pop\n      jump\t// out\n        /* \"#utility.yul\":9625:9804   */\n    tag_443:\n        /* \"#utility.yul\":9694:9704   */\n      0x00\n        /* \"#utility.yul\":9715:9761   */\n      tag_445\n        /* \"#utility.yul\":9757:9760   */\n      dup4\n        /* \"#utility.yul\":9749:9755   */\n      dup4\n        /* \"#utility.yul\":9715:9761   */\n      tag_446\n      jump\t// in\n    tag_445:\n        /* \"#utility.yul\":9793:9797   */\n      0x20\n        /* \"#utility.yul\":9788:9791   */\n      dup4\n        /* \"#utility.yul\":9784:9798   */\n      add\n        /* \"#utility.yul\":9770:9798   */\n      swap1\n      pop\n        /* \"#utility.yul\":9705:9804   */\n      swap3\n      swap2\n      pop\n      pop\n      jump\t// out\n        /* \"#utility.yul\":9810:9989   */\n    tag_447:\n        /* \"#utility.yul\":9879:9889   */\n      0x00\n        /* \"#utility.yul\":9900:9946   */\n      tag_449\n        /* \"#utility.yul\":9942:9945   */\n      dup4\n        /* \"#utility.yul\":9934:9940   */\n      dup4\n        /* \"#utility.yul\":9900:9946   */\n      tag_450\n      jump\t// in\n    tag_449:\n        /* \"#utility.yul\":9978:9982   */\n      0x20\n        /* \"#utility.yul\":9973:9976   */\n      dup4\n        /* \"#utility.yul\":9969:9983   */\n      add\n        /* \"#utility.yul\":9955:9983   */\n      swap1\n      pop\n        /* \"#utility.yul\":9890:9989   */\n      swap3\n      swap2\n      pop\n      pop\n      jump\t// out\n        /* \"#utility.yul\":9995:10103   */\n    tag_446:\n        /* \"#utility.yul\":10072:10096   */\n      tag_452\n        /* \"#utility.yul\":10090:10095   */\n      dup2\n        /* \"#utility.yul\":10072:10096   */\n      tag_453\n      jump\t// in\n    tag_452:\n        /* \"#utility.yul\":10067:10070   */\n      dup3\n        /* \"#utility.yul\":10060:10097   */\n      mstore\n        /* \"#utility.yul\":10050:10103   */\n      pop\n      pop\n      jump\t// out\n        /* \"#utility.yul\":10109:10227   */\n    tag_454:\n        /* \"#utility.yul\":10196:10220   */\n      tag_456\n        /* \"#utility.yul\":10214:10219   */\n      dup2\n        /* \"#utility.yul\":10196:10220   */\n      tag_453\n      jump\t// in\n    tag_456:\n        /* \"#utility.yul\":10191:10194   */\n      dup3\n        /* \"#utility.yul\":10184:10221   */\n      mstore\n        /* \"#utility.yul\":10174:10227   */\n      pop\n      pop\n      jump\t// out\n        /* \"#utility.yul\":10263:10975   */\n    tag_457:\n        /* \"#utility.yul\":10372:10375   */\n      0x00\n        /* \"#utility.yul\":10401:10455   */\n      tag_459\n        /* \"#utility.yul\":10449:10454   */\n      dup3\n        /* \"#utility.yul\":10401:10455   */\n      tag_460\n      jump\t// in\n    tag_459:\n        /* \"#utility.yul\":10471:10547   */\n      tag_461\n        /* \"#utility.yul\":10540:10546   */\n      dup2\n        /* \"#utility.yul\":10535:10538   */\n      dup6\n        /* \"#utility.yul\":10471:10547   */\n      tag_462\n      jump\t// in\n    tag_461:\n        /* \"#utility.yul\":10464:10547   */\n      swap4\n      pop\n        /* \"#utility.yul\":10571:10627   */\n      tag_463\n        /* \"#utility.yul\":10621:10626   */\n      dup4\n        /* \"#utility.yul\":10571:10627   */\n      tag_464\n      jump\t// in\n    tag_463:\n        /* \"#utility.yul\":10650:10657   */\n      dup1\n        /* \"#utility.yul\":10681:10682   */\n      0x00\n        /* \"#utility.yul\":10666:10950   */\n    tag_465:\n        /* \"#utility.yul\":10691:10697   */\n      dup4\n        /* \"#utility.yul\":10688:10689   */\n      dup2\n        /* \"#utility.yul\":10685:10698   */\n      lt\n        /* \"#utility.yul\":10666:10950   */\n      iszero\n      tag_467\n      jumpi\n        /* \"#utility.yul\":10767:10773   */\n      dup2\n        /* \"#utility.yul\":10761:10774   */\n      mload\n        /* \"#utility.yul\":10794:10857   */\n      tag_468\n        /* \"#utility.yul\":10853:10856   */\n      dup9\n        /* \"#utility.yul\":10838:10851   */\n      dup3\n        /* \"#utility.yul\":10794:10857   */\n      tag_443\n      jump\t// in\n    tag_468:\n        /* \"#utility.yul\":10787:10857   */\n      swap8\n      pop\n        /* \"#utility.yul\":10880:10940   */\n      tag_469\n        /* \"#utility.yul\":10933:10939   */\n      dup4\n        /* \"#utility.yul\":10880:10940   */\n      tag_470\n      jump\t// in\n    tag_469:\n        /* \"#utility.yul\":10870:10940   */\n      swap3\n      pop\n        /* \"#utility.yul\":10726:10950   */\n      pop\n        /* \"#utility.yul\":10713:10714   */\n      0x01\n        /* \"#utility.yul\":10710:10711   */\n      dup2\n        /* \"#utility.yul\":10706:10715   */\n      add\n        /* \"#utility.yul\":10701:10715   */\n      swap1\n      pop\n        /* \"#utility.yul\":10666:10950   */\n      jump(tag_465)\n    tag_467:\n        /* \"#utility.yul\":10670:10684   */\n      pop\n        /* \"#utility.yul\":10966:10969   */\n      dup6\n        /* \"#utility.yul\":10959:10969   */\n      swap4\n      pop\n        /* \"#utility.yul\":10377:10975   */\n      pop\n      pop\n      pop\n      swap3\n      swap2\n      pop\n      pop\n      jump\t// out\n        /* \"#utility.yul\":11011:11723   */\n    tag_471:\n        /* \"#utility.yul\":11120:11123   */\n      0x00\n        /* \"#utility.yul\":11149:11203   */\n      tag_473\n        /* \"#utility.yul\":11197:11202   */\n      dup3\n        /* \"#utility.yul\":11149:11203   */\n      tag_474\n      jump\t// in\n    tag_473:\n        /* \"#utility.yul\":11219:11295   */\n      tag_475\n        /* \"#utility.yul\":11288:11294   */\n      dup2\n        /* \"#utility.yul\":11283:11286   */\n      dup6\n        /* \"#utility.yul\":11219:11295   */\n      tag_476\n      jump\t// in\n    tag_475:\n        /* \"#utility.yul\":11212:11295   */\n      swap4\n      pop\n        /* \"#utility.yul\":11319:11375   */\n      tag_477\n        /* \"#utility.yul\":11369:11374   */\n      dup4\n        /* \"#utility.yul\":11319:11375   */\n      tag_478\n      jump\t// in\n    tag_477:\n        /* \"#utility.yul\":11398:11405   */\n      dup1\n        /* \"#utility.yul\":11429:11430   */\n      0x00\n        /* \"#utility.yul\":11414:11698   */\n    tag_479:\n        /* \"#utility.yul\":11439:11445   */\n      dup4\n        /* \"#utility.yul\":11436:11437   */\n      dup2\n        /* \"#utility.yul\":11433:11446   */\n      lt\n        /* \"#utility.yul\":11414:11698   */\n      iszero\n      tag_481\n      jumpi\n        /* \"#utility.yul\":11515:11521   */\n      dup2\n        /* \"#utility.yul\":11509:11522   */\n      mload\n        /* \"#utility.yul\":11542:11605   */\n      tag_482\n        /* \"#utility.yul\":11601:11604   */\n      dup9\n        /* \"#utility.yul\":11586:11599   */\n      dup3\n        /* \"#utility.yul\":11542:11605   */\n      tag_447\n      jump\t// in\n    tag_482:\n        /* \"#utility.yul\":11535:11605   */\n      swap8\n      pop\n        /* \"#utility.yul\":11628:11688   */\n      tag_483\n        /* \"#utility.yul\":11681:11687   */\n      dup4\n        /* \"#utility.yul\":11628:11688   */\n      tag_484\n      jump\t// in\n    tag_483:\n        /* \"#utility.yul\":11618:11688   */\n      swap3\n      pop\n        /* \"#utility.yul\":11474:11698   */\n      pop\n        /* \"#utility.yul\":11461:11462   */\n      0x01\n        /* \"#utility.yul\":11458:11459   */\n      dup2\n        /* \"#utility.yul\":11454:11463   */\n      add\n        /* \"#utility.yul\":11449:11463   */\n      swap1\n      pop\n        /* \"#utility.yul\":11414:11698   */\n      jump(tag_479)\n    tag_481:\n        /* \"#utility.yul\":11418:11432   */\n      pop\n        /* \"#utility.yul\":11714:11717   */\n      dup6\n        /* \"#utility.yul\":11707:11717   */\n      swap4\n      pop\n        /* \"#utility.yul\":11125:11723   */\n      pop\n      pop\n      pop\n      swap3\n      swap2\n      pop\n      pop\n      jump\t// out\n        /* \"#utility.yul\":11729:11838   */\n    tag_485:\n        /* \"#utility.yul\":11810:11831   */\n      tag_487\n        /* \"#utility.yul\":11825:11830   */\n      dup2\n        /* \"#utility.yul\":11810:11831   */\n      tag_488\n      jump\t// in\n    tag_487:\n        /* \"#utility.yul\":11805:11808   */\n      dup3\n        /* \"#utility.yul\":11798:11832   */\n      mstore\n        /* \"#utility.yul\":11788:11838   */\n      pop\n      pop\n      jump\t// out\n        /* \"#utility.yul\":11844:12204   */\n    tag_489:\n        /* \"#utility.yul\":11930:11933   */\n      0x00\n        /* \"#utility.yul\":11958:11996   */\n      tag_491\n        /* \"#utility.yul\":11990:11995   */\n      dup3\n        /* \"#utility.yul\":11958:11996   */\n      tag_492\n      jump\t// in\n    tag_491:\n        /* \"#utility.yul\":12012:12082   */\n      tag_493\n        /* \"#utility.yul\":12075:12081   */\n      dup2\n        /* \"#utility.yul\":12070:12073   */\n      dup6\n        /* \"#utility.yul\":12012:12082   */\n      tag_494\n      jump\t// in\n    tag_493:\n        /* \"#utility.yul\":12005:12082   */\n      swap4\n      pop\n        /* \"#utility.yul\":12091:12143   */\n      tag_495\n        /* \"#utility.yul\":12136:12142   */\n      dup2\n        /* \"#utility.yul\":12131:12134   */\n      dup6\n        /* \"#utility.yul\":12124:12128   */\n      0x20\n        /* \"#utility.yul\":12117:12122   */\n      dup7\n        /* \"#utility.yul\":12113:12129   */\n      add\n        /* \"#utility.yul\":12091:12143   */\n      tag_496\n      jump\t// in\n    tag_495:\n        /* \"#utility.yul\":12168:12197   */\n      tag_497\n        /* \"#utility.yul\":12190:12196   */\n      dup2\n        /* \"#utility.yul\":12168:12197   */\n      tag_498\n      jump\t// in\n    tag_497:\n        /* \"#utility.yul\":12163:12166   */\n      dup5\n        /* \"#utility.yul\":12159:12198   */\n      add\n        /* \"#utility.yul\":12152:12198   */\n      swap2\n      pop\n        /* \"#utility.yul\":11934:12204   */\n      pop\n      swap3\n      swap2\n      pop\n      pop\n      jump\t// out\n        /* \"#utility.yul\":12210:12574   */\n    tag_499:\n        /* \"#utility.yul\":12298:12301   */\n      0x00\n        /* \"#utility.yul\":12326:12365   */\n      tag_501\n        /* \"#utility.yul\":12359:12364   */\n      dup3\n        /* \"#utility.yul\":12326:12365   */\n      tag_502\n      jump\t// in\n    tag_501:\n        /* \"#utility.yul\":12381:12452   */\n      tag_503\n        /* \"#utility.yul\":12445:12451   */\n      dup2\n        /* \"#utility.yul\":12440:12443   */\n      dup6\n        /* \"#utility.yul\":12381:12452   */\n      tag_504\n      jump\t// in\n    tag_503:\n        /* \"#utility.yul\":12374:12452   */\n      swap4\n      pop\n        /* \"#utility.yul\":12461:12513   */\n      tag_505\n        /* \"#utility.yul\":12506:12512   */\n      dup2\n        /* \"#utility.yul\":12501:12504   */\n      dup6\n        /* \"#utility.yul\":12494:12498   */\n      0x20\n        /* \"#utility.yul\":12487:12492   */\n      dup7\n        /* \"#utility.yul\":12483:12499   */\n      add\n        /* \"#utility.yul\":12461:12513   */\n      tag_496\n      jump\t// in\n    tag_505:\n        /* \"#utility.yul\":12538:12567   */\n      tag_506\n        /* \"#utility.yul\":12560:12566   */\n      dup2\n        /* \"#utility.yul\":12538:12567   */\n      tag_498\n      jump\t// in\n    tag_506:\n        /* \"#utility.yul\":12533:12536   */\n      dup5\n        /* \"#utility.yul\":12529:12568   */\n      add\n        /* \"#utility.yul\":12522:12568   */\n      swap2\n      pop\n        /* \"#utility.yul\":12302:12574   */\n      pop\n      swap3\n      swap2\n      pop\n      pop\n      jump\t// out\n        /* \"#utility.yul\":12580:12957   */\n    tag_507:\n        /* \"#utility.yul\":12686:12689   */\n      0x00\n        /* \"#utility.yul\":12714:12753   */\n      tag_509\n        /* \"#utility.yul\":12747:12752   */\n      dup3\n        /* \"#utility.yul\":12714:12753   */\n      tag_502\n      jump\t// in\n    tag_509:\n        /* \"#utility.yul\":12769:12858   */\n      tag_510\n        /* \"#utility.yul\":12851:12857   */\n      dup2\n        /* \"#utility.yul\":12846:12849   */\n      dup6\n        /* \"#utility.yul\":12769:12858   */\n      tag_511\n      jump\t// in\n    tag_510:\n        /* \"#utility.yul\":12762:12858   */\n      swap4\n      pop\n        /* \"#utility.yul\":12867:12919   */\n      tag_512\n        /* \"#utility.yul\":12912:12918   */\n      dup2\n        /* \"#utility.yul\":12907:12910   */\n      dup6\n        /* \"#utility.yul\":12900:12904   */\n      0x20\n        /* \"#utility.yul\":12893:12898   */\n      dup7\n        /* \"#utility.yul\":12889:12905   */\n      add\n        /* \"#utility.yul\":12867:12919   */\n      tag_496\n      jump\t// in\n    tag_512:\n        /* \"#utility.yul\":12944:12950   */\n      dup1\n        /* \"#utility.yul\":12939:12942   */\n      dup5\n        /* \"#utility.yul\":12935:12951   */\n      add\n        /* \"#utility.yul\":12928:12951   */\n      swap2\n      pop\n        /* \"#utility.yul\":12690:12957   */\n      pop\n      swap3\n      swap2\n      pop\n      pop\n      jump\t// out\n        /* \"#utility.yul\":12963:13329   */\n    tag_513:\n        /* \"#utility.yul\":13105:13108   */\n      0x00\n        /* \"#utility.yul\":13126:13193   */\n      tag_515\n        /* \"#utility.yul\":13190:13192   */\n      0x2d\n        /* \"#utility.yul\":13185:13188   */\n      dup4\n        /* \"#utility.yul\":13126:13193   */\n      tag_504\n      jump\t// in\n    tag_515:\n        /* \"#utility.yul\":13119:13193   */\n      swap2\n      pop\n        /* \"#utility.yul\":13202:13295   */\n      tag_516\n        /* \"#utility.yul\":13291:13294   */\n      dup3\n        /* \"#utility.yul\":13202:13295   */\n      tag_517\n      jump\t// in\n    tag_516:\n        /* \"#utility.yul\":13320:13322   */\n      0x40\n        /* \"#utility.yul\":13315:13318   */\n      dup3\n        /* \"#utility.yul\":13311:13323   */\n      add\n        /* \"#utility.yul\":13304:13323   */\n      swap1\n      pop\n        /* \"#utility.yul\":13109:13329   */\n      swap2\n      swap1\n      pop\n      jump\t// out\n        /* \"#utility.yul\":13335:13701   */\n    tag_518:\n        /* \"#utility.yul\":13477:13480   */\n      0x00\n        /* \"#utility.yul\":13498:13565   */\n      tag_520\n        /* \"#utility.yul\":13562:13564   */\n      0x32\n        /* \"#utility.yul\":13557:13560   */\n      dup4\n        /* \"#utility.yul\":13498:13565   */\n      tag_504\n      jump\t// in\n    tag_520:\n        /* \"#utility.yul\":13491:13565   */\n      swap2\n      pop\n        /* \"#utility.yul\":13574:13667   */\n      tag_521\n        /* \"#utility.yul\":13663:13666   */\n      dup3\n        /* \"#utility.yul\":13574:13667   */\n      tag_522\n      jump\t// in\n    tag_521:\n        /* \"#utility.yul\":13692:13694   */\n      0x40\n        /* \"#utility.yul\":13687:13690   */\n      dup3\n        /* \"#utility.yul\":13683:13695   */\n      add\n        /* \"#utility.yul\":13676:13695   */\n      swap1\n      pop\n        /* \"#utility.yul\":13481:13701   */\n      swap2\n      swap1\n      pop\n      jump\t// out\n        /* \"#utility.yul\":13707:14073   */\n    tag_523:\n        /* \"#utility.yul\":13849:13852   */\n      0x00\n        /* \"#utility.yul\":13870:13937   */\n      tag_525\n        /* \"#utility.yul\":13934:13936   */\n      0x25\n        /* \"#utility.yul\":13929:13932   */\n      dup4\n        /* \"#utility.yul\":13870:13937   */\n      tag_504\n      jump\t// in\n    tag_525:\n        /* \"#utility.yul\":13863:13937   */\n      swap2\n      pop\n        /* \"#utility.yul\":13946:14039   */\n      tag_526\n        /* \"#utility.yul\":14035:14038   */\n      dup3\n        /* \"#utility.yul\":13946:14039   */\n      tag_527\n      jump\t// in\n    tag_526:\n        /* \"#utility.yul\":14064:14066   */\n      0x40\n        /* \"#utility.yul\":14059:14062   */\n      dup3\n        /* \"#utility.yul\":14055:14067   */\n      add\n        /* \"#utility.yul\":14048:14067   */\n      swap1\n      pop\n        /* \"#utility.yul\":13853:14073   */\n      swap2\n      swap1\n      pop\n      jump\t// out\n        /* \"#utility.yul\":14079:14445   */\n    tag_528:\n        /* \"#utility.yul\":14221:14224   */\n      0x00\n        /* \"#utility.yul\":14242:14309   */\n      tag_530\n        /* \"#utility.yul\":14306:14308   */\n      0x1c\n        /* \"#utility.yul\":14301:14304   */\n      dup4\n        /* \"#utility.yul\":14242:14309   */\n      tag_504\n      jump\t// in\n    tag_530:\n        /* \"#utility.yul\":14235:14309   */\n      swap2\n      pop\n        /* \"#utility.yul\":14318:14411   */\n      tag_531\n        /* \"#utility.yul\":14407:14410   */\n      dup3\n        /* \"#utility.yul\":14318:14411   */\n      tag_532\n      jump\t// in\n    tag_531:\n        /* \"#utility.yul\":14436:14438   */\n      0x20\n        /* \"#utility.yul\":14431:14434   */\n      dup3\n        /* \"#utility.yul\":14427:14439   */\n      add\n        /* \"#utility.yul\":14420:14439   */\n      swap1\n      pop\n        /* \"#utility.yul\":14225:14445   */\n      swap2\n      swap1\n      pop\n      jump\t// out\n        /* \"#utility.yul\":14451:14817   */\n    tag_533:\n        /* \"#utility.yul\":14593:14596   */\n      0x00\n        /* \"#utility.yul\":14614:14681   */\n      tag_535\n        /* \"#utility.yul\":14678:14680   */\n      0x24\n        /* \"#utility.yul\":14673:14676   */\n      dup4\n        /* \"#utility.yul\":14614:14681   */\n      tag_504\n      jump\t// in\n    tag_535:\n        /* \"#utility.yul\":14607:14681   */\n      swap2\n      pop\n        /* \"#utility.yul\":14690:14783   */\n      tag_536\n        /* \"#utility.yul\":14779:14782   */\n      dup3\n        /* \"#utility.yul\":14690:14783   */\n      tag_537\n      jump\t// in\n    tag_536:\n        /* \"#utility.yul\":14808:14810   */\n      0x40\n        /* \"#utility.yul\":14803:14806   */\n      dup3\n        /* \"#utility.yul\":14799:14811   */\n      add\n        /* \"#utility.yul\":14792:14811   */\n      swap1\n      pop\n        /* \"#utility.yul\":14597:14817   */\n      swap2\n      swap1\n      pop\n      jump\t// out\n        /* \"#utility.yul\":14823:15189   */\n    tag_538:\n        /* \"#utility.yul\":14965:14968   */\n      0x00\n        /* \"#utility.yul\":14986:15053   */\n      tag_540\n        /* \"#utility.yul\":15050:15052   */\n      0x19\n        /* \"#utility.yul\":15045:15048   */\n      dup4\n        /* \"#utility.yul\":14986:15053   */\n      tag_504\n      jump\t// in\n    tag_540:\n        /* \"#utility.yul\":14979:15053   */\n      swap2\n      pop\n        /* \"#utility.yul\":15062:15155   */\n      tag_541\n        /* \"#utility.yul\":15151:15154   */\n      dup3\n        /* \"#utility.yul\":15062:15155   */\n      tag_542\n      jump\t// in\n    tag_541:\n        /* \"#utility.yul\":15180:15182   */\n      0x20\n        /* \"#utility.yul\":15175:15178   */\n      dup3\n        /* \"#utility.yul\":15171:15183   */\n      add\n        /* \"#utility.yul\":15164:15183   */\n      swap1\n      pop\n        /* \"#utility.yul\":14969:15189   */\n      swap2\n      swap1\n      pop\n      jump\t// out\n        /* \"#utility.yul\":15195:15561   */\n    tag_543:\n        /* \"#utility.yul\":15337:15340   */\n      0x00\n        /* \"#utility.yul\":15358:15425   */\n      tag_545\n        /* \"#utility.yul\":15422:15424   */\n      0x29\n        /* \"#utility.yul\":15417:15420   */\n      dup4\n        /* \"#utility.yul\":15358:15425   */\n      tag_504\n      jump\t// in\n    tag_545:\n        /* \"#utility.yul\":15351:15425   */\n      swap2\n      pop\n        /* \"#utility.yul\":15434:15527   */\n      tag_546\n        /* \"#utility.yul\":15523:15526   */\n      dup3\n        /* \"#utility.yul\":15434:15527   */\n      tag_547\n      jump\t// in\n    tag_546:\n        /* \"#utility.yul\":15552:15554   */\n      0x40\n        /* \"#utility.yul\":15547:15550   */\n      dup3\n        /* \"#utility.yul\":15543:15555   */\n      add\n        /* \"#utility.yul\":15536:15555   */\n      swap1\n      pop\n        /* \"#utility.yul\":15341:15561   */\n      swap2\n      swap1\n      pop\n      jump\t// out\n        /* \"#utility.yul\":15567:15933   */\n    tag_548:\n        /* \"#utility.yul\":15709:15712   */\n      0x00\n        /* \"#utility.yul\":15730:15797   */\n      tag_550\n        /* \"#utility.yul\":15794:15796   */\n      0x20\n        /* \"#utility.yul\":15789:15792   */\n      dup4\n        /* \"#utility.yul\":15730:15797   */\n      tag_504\n      jump\t// in\n    tag_550:\n        /* \"#utility.yul\":15723:15797   */\n      swap2\n      pop\n        /* \"#utility.yul\":15806:15899   */\n      tag_551\n        /* \"#utility.yul\":15895:15898   */\n      dup3\n        /* \"#utility.yul\":15806:15899   */\n      tag_552\n      jump\t// in\n    tag_551:\n        /* \"#utility.yul\":15924:15926   */\n      0x20\n        /* \"#utility.yul\":15919:15922   */\n      dup3\n        /* \"#utility.yul\":15915:15927   */\n      add\n        /* \"#utility.yul\":15908:15927   */\n      swap1\n      pop\n        /* \"#utility.yul\":15713:15933   */\n      swap2\n      swap1\n      pop\n      jump\t// out\n        /* \"#utility.yul\":15939:16305   */\n    tag_553:\n        /* \"#utility.yul\":16081:16084   */\n      0x00\n        /* \"#utility.yul\":16102:16169   */\n      tag_555\n        /* \"#utility.yul\":16166:16168   */\n      0x18\n        /* \"#utility.yul\":16161:16164   */\n      dup4\n        /* \"#utility.yul\":16102:16169   */\n      tag_504\n      jump\t// in\n    tag_555:\n        /* \"#utility.yul\":16095:16169   */\n      swap2\n      pop\n        /* \"#utility.yul\":16178:16271   */\n      tag_556\n        /* \"#utility.yul\":16267:16270   */\n      dup3\n        /* \"#utility.yul\":16178:16271   */\n      tag_557\n      jump\t// in\n    tag_556:\n        /* \"#utility.yul\":16296:16298   */\n      0x20\n        /* \"#utility.yul\":16291:16294   */\n      dup3\n        /* \"#utility.yul\":16287:16299   */\n      add\n        /* \"#utility.yul\":16280:16299   */\n      swap1\n      pop\n        /* \"#utility.yul\":16085:16305   */\n      swap2\n      swap1\n      pop\n      jump\t// out\n        /* \"#utility.yul\":16311:16677   */\n    tag_558:\n        /* \"#utility.yul\":16453:16456   */\n      0x00\n        /* \"#utility.yul\":16474:16541   */\n      tag_560\n        /* \"#utility.yul\":16538:16540   */\n      0x21\n        /* \"#utility.yul\":16533:16536   */\n      dup4\n        /* \"#utility.yul\":16474:16541   */\n      tag_504\n      jump\t// in\n    tag_560:\n        /* \"#utility.yul\":16467:16541   */\n      swap2\n      pop\n        /* \"#utility.yul\":16550:16643   */\n      tag_561\n        /* \"#utility.yul\":16639:16642   */\n      dup3\n        /* \"#utility.yul\":16550:16643   */\n      tag_562\n      jump\t// in\n    tag_561:\n        /* \"#utility.yul\":16668:16670   */\n      0x40\n        /* \"#utility.yul\":16663:16666   */\n      dup3\n        /* \"#utility.yul\":16659:16671   */\n      add\n        /* \"#utility.yul\":16652:16671   */\n      swap1\n      pop\n        /* \"#utility.yul\":16457:16677   */\n      swap2\n      swap1\n      pop\n      jump\t// out\n        /* \"#utility.yul\":16683:17049   */\n    tag_563:\n        /* \"#utility.yul\":16825:16828   */\n      0x00\n        /* \"#utility.yul\":16846:16913   */\n      tag_565\n        /* \"#utility.yul\":16910:16912   */\n      0x3d\n        /* \"#utility.yul\":16905:16908   */\n      dup4\n        /* \"#utility.yul\":16846:16913   */\n      tag_504\n      jump\t// in\n    tag_565:\n        /* \"#utility.yul\":16839:16913   */\n      swap2\n      pop\n        /* \"#utility.yul\":16922:17015   */\n      tag_566\n        /* \"#utility.yul\":17011:17014   */\n      dup3\n        /* \"#utility.yul\":16922:17015   */\n      tag_567\n      jump\t// in\n    tag_566:\n        /* \"#utility.yul\":17040:17042   */\n      0x40\n        /* \"#utility.yul\":17035:17038   */\n      dup3\n        /* \"#utility.yul\":17031:17043   */\n      add\n        /* \"#utility.yul\":17024:17043   */\n      swap1\n      pop\n        /* \"#utility.yul\":16829:17049   */\n      swap2\n      swap1\n      pop\n      jump\t// out\n        /* \"#utility.yul\":17113:17872   */\n    tag_568:\n        /* \"#utility.yul\":17240:17243   */\n      0x00\n        /* \"#utility.yul\":17276:17280   */\n      0x40\n        /* \"#utility.yul\":17271:17274   */\n      dup4\n        /* \"#utility.yul\":17267:17281   */\n      add\n        /* \"#utility.yul\":17371:17375   */\n      0x00\n        /* \"#utility.yul\":17364:17369   */\n      dup4\n        /* \"#utility.yul\":17360:17376   */\n      add\n        /* \"#utility.yul\":17354:17377   */\n      mload\n        /* \"#utility.yul\":17424:17427   */\n      dup5\n        /* \"#utility.yul\":17418:17422   */\n      dup3\n        /* \"#utility.yul\":17414:17428   */\n      sub\n        /* \"#utility.yul\":17407:17411   */\n      0x00\n        /* \"#utility.yul\":17402:17405   */\n      dup7\n        /* \"#utility.yul\":17398:17412   */\n      add\n        /* \"#utility.yul\":17391:17429   */\n      mstore\n        /* \"#utility.yul\":17450:17553   */\n      tag_570\n        /* \"#utility.yul\":17548:17552   */\n      dup3\n        /* \"#utility.yul\":17534:17546   */\n      dup3\n        /* \"#utility.yul\":17450:17553   */\n      tag_457\n      jump\t// in\n    tag_570:\n        /* \"#utility.yul\":17442:17553   */\n      swap2\n      pop\n        /* \"#utility.yul\":17291:17564   */\n      pop\n        /* \"#utility.yul\":17652:17656   */\n      0x20\n        /* \"#utility.yul\":17645:17650   */\n      dup4\n        /* \"#utility.yul\":17641:17657   */\n      add\n        /* \"#utility.yul\":17635:17658   */\n      mload\n        /* \"#utility.yul\":17705:17708   */\n      dup5\n        /* \"#utility.yul\":17699:17703   */\n      dup3\n        /* \"#utility.yul\":17695:17709   */\n      sub\n        /* \"#utility.yul\":17688:17692   */\n      0x20\n        /* \"#utility.yul\":17683:17686   */\n      dup7\n        /* \"#utility.yul\":17679:17693   */\n      add\n        /* \"#utility.yul\":17672:17710   */\n      mstore\n        /* \"#utility.yul\":17731:17834   */\n      tag_571\n        /* \"#utility.yul\":17829:17833   */\n      dup3\n        /* \"#utility.yul\":17815:17827   */\n      dup3\n        /* \"#utility.yul\":17731:17834   */\n      tag_471\n      jump\t// in\n    tag_571:\n        /* \"#utility.yul\":17723:17834   */\n      swap2\n      pop\n        /* \"#utility.yul\":17574:17845   */\n      pop\n        /* \"#utility.yul\":17862:17866   */\n      dup1\n        /* \"#utility.yul\":17855:17866   */\n      swap2\n      pop\n        /* \"#utility.yul\":17245:17872   */\n      pop\n      swap3\n      swap2\n      pop\n      pop\n      jump\t// out\n        /* \"#utility.yul\":17878:17986   */\n    tag_450:\n        /* \"#utility.yul\":17955:17979   */\n      tag_573\n        /* \"#utility.yul\":17973:17978   */\n      dup2\n        /* \"#utility.yul\":17955:17979   */\n      tag_574\n      jump\t// in\n    tag_573:\n        /* \"#utility.yul\":17950:17953   */\n      dup3\n        /* \"#utility.yul\":17943:17980   */\n      mstore\n        /* \"#utility.yul\":17933:17986   */\n      pop\n      pop\n      jump\t// out\n        /* \"#utility.yul\":17992:18110   */\n    tag_575:\n        /* \"#utility.yul\":18079:18103   */\n      tag_577\n        /* \"#utility.yul\":18097:18102   */\n      dup2\n        /* \"#utility.yul\":18079:18103   */\n      tag_574\n      jump\t// in\n    tag_577:\n        /* \"#utility.yul\":18074:18077   */\n      dup3\n        /* \"#utility.yul\":18067:18104   */\n      mstore\n        /* \"#utility.yul\":18057:18110   */\n      pop\n      pop\n      jump\t// out\n        /* \"#utility.yul\":18116:18551   */\n    tag_179:\n        /* \"#utility.yul\":18296:18299   */\n      0x00\n        /* \"#utility.yul\":18318:18413   */\n      tag_579\n        /* \"#utility.yul\":18409:18412   */\n      dup3\n        /* \"#utility.yul\":18400:18406   */\n      dup6\n        /* \"#utility.yul\":18318:18413   */\n      tag_507\n      jump\t// in\n    tag_579:\n        /* \"#utility.yul\":18311:18413   */\n      swap2\n      pop\n        /* \"#utility.yul\":18430:18525   */\n      tag_580\n        /* \"#utility.yul\":18521:18524   */\n      dup3\n        /* \"#utility.yul\":18512:18518   */\n      dup5\n        /* \"#utility.yul\":18430:18525   */\n      tag_507\n      jump\t// in\n    tag_580:\n        /* \"#utility.yul\":18423:18525   */\n      swap2\n      pop\n        /* \"#utility.yul\":18542:18545   */\n      dup2\n        /* \"#utility.yul\":18535:18545   */\n      swap1\n      pop\n        /* \"#utility.yul\":18300:18551   */\n      swap4\n      swap3\n      pop\n      pop\n      pop\n      jump\t// out\n        /* \"#utility.yul\":18557:18779   */\n    tag_37:\n        /* \"#utility.yul\":18650:18654   */\n      0x00\n        /* \"#utility.yul\":18688:18690   */\n      0x20\n        /* \"#utility.yul\":18677:18686   */\n      dup3\n        /* \"#utility.yul\":18673:18691   */\n      add\n        /* \"#utility.yul\":18665:18691   */\n      swap1\n      pop\n        /* \"#utility.yul\":18701:18772   */\n      tag_582\n        /* \"#utility.yul\":18769:18770   */\n      0x00\n        /* \"#utility.yul\":18758:18767   */\n      dup4\n        /* \"#utility.yul\":18754:18771   */\n      add\n        /* \"#utility.yul\":18745:18751   */\n      dup5\n        /* \"#utility.yul\":18701:18772   */\n      tag_454\n      jump\t// in\n    tag_582:\n        /* \"#utility.yul\":18655:18779   */\n      swap3\n      swap2\n      pop\n      pop\n      jump\t// out\n        /* \"#utility.yul\":18785:19425   */\n    tag_266:\n        /* \"#utility.yul\":18980:18984   */\n      0x00\n        /* \"#utility.yul\":19018:19021   */\n      0x80\n        /* \"#utility.yul\":19007:19016   */\n      dup3\n        /* \"#utility.yul\":19003:19022   */\n      add\n        /* \"#utility.yul\":18995:19022   */\n      swap1\n      pop\n        /* \"#utility.yul\":19032:19103   */\n      tag_584\n        /* \"#utility.yul\":19100:19101   */\n      0x00\n        /* \"#utility.yul\":19089:19098   */\n      dup4\n        /* \"#utility.yul\":19085:19102   */\n      add\n        /* \"#utility.yul\":19076:19082   */\n      dup8\n        /* \"#utility.yul\":19032:19103   */\n      tag_454\n      jump\t// in\n    tag_584:\n        /* \"#utility.yul\":19113:19185   */\n      tag_585\n        /* \"#utility.yul\":19181:19183   */\n      0x20\n        /* \"#utility.yul\":19170:19179   */\n      dup4\n        /* \"#utility.yul\":19166:19184   */\n      add\n        /* \"#utility.yul\":19157:19163   */\n      dup7\n        /* \"#utility.yul\":19113:19185   */\n      tag_454\n      jump\t// in\n    tag_585:\n        /* \"#utility.yul\":19195:19267   */\n      tag_586\n        /* \"#utility.yul\":19263:19265   */\n      0x40\n        /* \"#utility.yul\":19252:19261   */\n      dup4\n        /* \"#utility.yul\":19248:19266   */\n      add\n        /* \"#utility.yul\":19239:19245   */\n      dup6\n        /* \"#utility.yul\":19195:19267   */\n      tag_575\n      jump\t// in\n    tag_586:\n        /* \"#utility.yul\":19314:19323   */\n      dup2\n        /* \"#utility.yul\":19308:19312   */\n      dup2\n        /* \"#utility.yul\":19304:19324   */\n      sub\n        /* \"#utility.yul\":19299:19301   */\n      0x60\n        /* \"#utility.yul\":19288:19297   */\n      dup4\n        /* \"#utility.yul\":19284:19302   */\n      add\n        /* \"#utility.yul\":19277:19325   */\n      mstore\n        /* \"#utility.yul\":19342:19418   */\n      tag_587\n        /* \"#utility.yul\":19413:19417   */\n      dup2\n        /* \"#utility.yul\":19404:19410   */\n      dup5\n        /* \"#utility.yul\":19342:19418   */\n      tag_489\n      jump\t// in\n    tag_587:\n        /* \"#utility.yul\":19334:19418   */\n      swap1\n      pop\n        /* \"#utility.yul\":18985:19425   */\n      swap6\n      swap5\n      pop\n      pop\n      pop\n      pop\n      pop\n      jump\t// out\n        /* \"#utility.yul\":19431:19641   */\n    tag_27:\n        /* \"#utility.yul\":19518:19522   */\n      0x00\n        /* \"#utility.yul\":19556:19558   */\n      0x20\n        /* \"#utility.yul\":19545:19554   */\n      dup3\n        /* \"#utility.yul\":19541:19559   */\n      add\n        /* \"#utility.yul\":19533:19559   */\n      swap1\n      pop\n        /* \"#utility.yul\":19569:19634   */\n      tag_589\n        /* \"#utility.yul\":19631:19632   */\n      0x00\n        /* \"#utility.yul\":19620:19629   */\n      dup4\n        /* \"#utility.yul\":19616:19633   */\n      add\n        /* \"#utility.yul\":19607:19613   */\n      dup5\n        /* \"#utility.yul\":19569:19634   */\n      tag_485\n      jump\t// in\n    tag_589:\n        /* \"#utility.yul\":19523:19641   */\n      swap3\n      swap2\n      pop\n      pop\n      jump\t// out\n        /* \"#utility.yul\":19647:19960   */\n    tag_31:\n        /* \"#utility.yul\":19760:19764   */\n      0x00\n        /* \"#utility.yul\":19798:19800   */\n      0x20\n        /* \"#utility.yul\":19787:19796   */\n      dup3\n        /* \"#utility.yul\":19783:19801   */\n      add\n        /* \"#utility.yul\":19775:19801   */\n      swap1\n      pop\n        /* \"#utility.yul\":19847:19856   */\n      dup2\n        /* \"#utility.yul\":19841:19845   */\n      dup2\n        /* \"#utility.yul\":19837:19857   */\n      sub\n        /* \"#utility.yul\":19833:19834   */\n      0x00\n        /* \"#utility.yul\":19822:19831   */\n      dup4\n        /* \"#utility.yul\":19818:19835   */\n      add\n        /* \"#utility.yul\":19811:19858   */\n      mstore\n        /* \"#utility.yul\":19875:19953   */\n      tag_591\n        /* \"#utility.yul\":19948:19952   */\n      dup2\n        /* \"#utility.yul\":19939:19945   */\n      dup5\n        /* \"#utility.yul\":19875:19953   */\n      tag_499\n      jump\t// in\n    tag_591:\n        /* \"#utility.yul\":19867:19953   */\n      swap1\n      pop\n        /* \"#utility.yul\":19765:19960   */\n      swap3\n      swap2\n      pop\n      pop\n      jump\t// out\n        /* \"#utility.yul\":19966:20385   */\n    tag_128:\n        /* \"#utility.yul\":20132:20136   */\n      0x00\n        /* \"#utility.yul\":20170:20172   */\n      0x20\n        /* \"#utility.yul\":20159:20168   */\n      dup3\n        /* \"#utility.yul\":20155:20173   */\n      add\n        /* \"#utility.yul\":20147:20173   */\n      swap1\n      pop\n        /* \"#utility.yul\":20219:20228   */\n      dup2\n        /* \"#utility.yul\":20213:20217   */\n      dup2\n        /* \"#utility.yul\":20209:20229   */\n      sub\n        /* \"#utility.yul\":20205:20206   */\n      0x00\n        /* \"#utility.yul\":20194:20203   */\n      dup4\n        /* \"#utility.yul\":20190:20207   */\n      add\n        /* \"#utility.yul\":20183:20230   */\n      mstore\n        /* \"#utility.yul\":20247:20378   */\n      tag_593\n        /* \"#utility.yul\":20373:20377   */\n      dup2\n        /* \"#utility.yul\":20247:20378   */\n      tag_513\n      jump\t// in\n    tag_593:\n        /* \"#utility.yul\":20239:20378   */\n      swap1\n      pop\n        /* \"#utility.yul\":20137:20385   */\n      swap2\n      swap1\n      pop\n      jump\t// out\n        /* \"#utility.yul\":20391:20810   */\n    tag_229:\n        /* \"#utility.yul\":20557:20561   */\n      0x00\n        /* \"#utility.yul\":20595:20597   */\n      0x20\n        /* \"#utility.yul\":20584:20593   */\n      dup3\n        /* \"#utility.yul\":20580:20598   */\n      add\n        /* \"#utility.yul\":20572:20598   */\n      swap1\n      pop\n        /* \"#utility.yul\":20644:20653   */\n      dup2\n        /* \"#utility.yul\":20638:20642   */\n      dup2\n        /* \"#utility.yul\":20634:20654   */\n      sub\n        /* \"#utility.yul\":20630:20631   */\n      0x00\n        /* \"#utility.yul\":20619:20628   */\n      dup4\n        /* \"#utility.yul\":20615:20632   */\n      add\n        /* \"#utility.yul\":20608:20655   */\n      mstore\n        /* \"#utility.yul\":20672:20803   */\n      tag_595\n        /* \"#utility.yul\":20798:20802   */\n      dup2\n        /* \"#utility.yul\":20672:20803   */\n      tag_518\n      jump\t// in\n    tag_595:\n        /* \"#utility.yul\":20664:20803   */\n      swap1\n      pop\n        /* \"#utility.yul\":20562:20810   */\n      swap2\n      swap1\n      pop\n      jump\t// out\n        /* \"#utility.yul\":20816:21235   */\n    tag_201:\n        /* \"#utility.yul\":20982:20986   */\n      0x00\n        /* \"#utility.yul\":21020:21022   */\n      0x20\n        /* \"#utility.yul\":21009:21018   */\n      dup3\n        /* \"#utility.yul\":21005:21023   */\n      add\n        /* \"#utility.yul\":20997:21023   */\n      swap1\n      pop\n        /* \"#utility.yul\":21069:21078   */\n      dup2\n        /* \"#utility.yul\":21063:21067   */\n      dup2\n        /* \"#utility.yul\":21059:21079   */\n      sub\n        /* \"#utility.yul\":21055:21056   */\n      0x00\n        /* \"#utility.yul\":21044:21053   */\n      dup4\n        /* \"#utility.yul\":21040:21057   */\n      add\n        /* \"#utility.yul\":21033:21080   */\n      mstore\n        /* \"#utility.yul\":21097:21228   */\n      tag_597\n        /* \"#utility.yul\":21223:21227   */\n      dup2\n        /* \"#utility.yul\":21097:21228   */\n      tag_523\n      jump\t// in\n    tag_597:\n        /* \"#utility.yul\":21089:21228   */\n      swap1\n      pop\n        /* \"#utility.yul\":20987:21235   */\n      swap2\n      swap1\n      pop\n      jump\t// out\n        /* \"#utility.yul\":21241:21660   */\n    tag_289:\n        /* \"#utility.yul\":21407:21411   */\n      0x00\n        /* \"#utility.yul\":21445:21447   */\n      0x20\n        /* \"#utility.yul\":21434:21443   */\n      dup3\n        /* \"#utility.yul\":21430:21448   */\n      add\n        /* \"#utility.yul\":21422:21448   */\n      swap1\n      pop\n        /* \"#utility.yul\":21494:21503   */\n      dup2\n        /* \"#utility.yul\":21488:21492   */\n      dup2\n        /* \"#utility.yul\":21484:21504   */\n      sub\n        /* \"#utility.yul\":21480:21481   */\n      0x00\n        /* \"#utility.yul\":21469:21478   */\n      dup4\n        /* \"#utility.yul\":21465:21482   */\n      add\n        /* \"#utility.yul\":21458:21505   */\n      mstore\n        /* \"#utility.yul\":21522:21653   */\n      tag_599\n        /* \"#utility.yul\":21648:21652   */\n      dup2\n        /* \"#utility.yul\":21522:21653   */\n      tag_528\n      jump\t// in\n    tag_599:\n        /* \"#utility.yul\":21514:21653   */\n      swap1\n      pop\n        /* \"#utility.yul\":21412:21660   */\n      swap2\n      swap1\n      pop\n      jump\t// out\n        /* \"#utility.yul\":21666:22085   */\n    tag_204:\n        /* \"#utility.yul\":21832:21836   */\n      0x00\n        /* \"#utility.yul\":21870:21872   */\n      0x20\n        /* \"#utility.yul\":21859:21868   */\n      dup3\n        /* \"#utility.yul\":21855:21873   */\n      add\n        /* \"#utility.yul\":21847:21873   */\n      swap1\n      pop\n        /* \"#utility.yul\":21919:21928   */\n      dup2\n        /* \"#utility.yul\":21913:21917   */\n      dup2\n        /* \"#utility.yul\":21909:21929   */\n      sub\n        /* \"#utility.yul\":21905:21906   */\n      0x00\n        /* \"#utility.yul\":21894:21903   */\n      dup4\n        /* \"#utility.yul\":21890:21907   */\n      add\n        /* \"#utility.yul\":21883:21930   */\n      mstore\n        /* \"#utility.yul\":21947:22078   */\n      tag_601\n        /* \"#utility.yul\":22073:22077   */\n      dup2\n        /* \"#utility.yul\":21947:22078   */\n      tag_533\n      jump\t// in\n    tag_601:\n        /* \"#utility.yul\":21939:22078   */\n      swap1\n      pop\n        /* \"#utility.yul\":21837:22085   */\n      swap2\n      swap1\n      pop\n      jump\t// out\n        /* \"#utility.yul\":22091:22510   */\n    tag_221:\n        /* \"#utility.yul\":22257:22261   */\n      0x00\n        /* \"#utility.yul\":22295:22297   */\n      0x20\n        /* \"#utility.yul\":22284:22293   */\n      dup3\n        /* \"#utility.yul\":22280:22298   */\n      add\n        /* \"#utility.yul\":22272:22298   */\n      swap1\n      pop\n        /* \"#utility.yul\":22344:22353   */\n      dup2\n        /* \"#utility.yul\":22338:22342   */\n      dup2\n        /* \"#utility.yul\":22334:22354   */\n      sub\n        /* \"#utility.yul\":22330:22331   */\n      0x00\n        /* \"#utility.yul\":22319:22328   */\n      dup4\n        /* \"#utility.yul\":22315:22332   */\n      add\n        /* \"#utility.yul\":22308:22355   */\n      mstore\n        /* \"#utility.yul\":22372:22503   */\n      tag_603\n        /* \"#utility.yul\":22498:22502   */\n      dup2\n        /* \"#utility.yul\":22372:22503   */\n      tag_538\n      jump\t// in\n    tag_603:\n        /* \"#utility.yul\":22364:22503   */\n      swap1\n      pop\n        /* \"#utility.yul\":22262:22510   */\n      swap2\n      swap1\n      pop\n      jump\t// out\n        /* \"#utility.yul\":22516:22935   */\n    tag_152:\n        /* \"#utility.yul\":22682:22686   */\n      0x00\n        /* \"#utility.yul\":22720:22722   */\n      0x20\n        /* \"#utility.yul\":22709:22718   */\n      dup3\n        /* \"#utility.yul\":22705:22723   */\n      add\n        /* \"#utility.yul\":22697:22723   */\n      swap1\n      pop\n        /* \"#utility.yul\":22769:22778   */\n      dup2\n        /* \"#utility.yul\":22763:22767   */\n      dup2\n        /* \"#utility.yul\":22759:22779   */\n      sub\n        /* \"#utility.yul\":22755:22756   */\n      0x00\n        /* \"#utility.yul\":22744:22753   */\n      dup4\n        /* \"#utility.yul\":22740:22757   */\n      add\n        /* \"#utility.yul\":22733:22780   */\n      mstore\n        /* \"#utility.yul\":22797:22928   */\n      tag_605\n        /* \"#utility.yul\":22923:22927   */\n      dup2\n        /* \"#utility.yul\":22797:22928   */\n      tag_543\n      jump\t// in\n    tag_605:\n        /* \"#utility.yul\":22789:22928   */\n      swap1\n      pop\n        /* \"#utility.yul\":22687:22935   */\n      swap2\n      swap1\n      pop\n      jump\t// out\n        /* \"#utility.yul\":22941:23360   */\n    tag_285:\n        /* \"#utility.yul\":23107:23111   */\n      0x00\n        /* \"#utility.yul\":23145:23147   */\n      0x20\n        /* \"#utility.yul\":23134:23143   */\n      dup3\n        /* \"#utility.yul\":23130:23148   */\n      add\n        /* \"#utility.yul\":23122:23148   */\n      swap1\n      pop\n        /* \"#utility.yul\":23194:23203   */\n      dup2\n        /* \"#utility.yul\":23188:23192   */\n      dup2\n        /* \"#utility.yul\":23184:23204   */\n      sub\n        /* \"#utility.yul\":23180:23181   */\n      0x00\n        /* \"#utility.yul\":23169:23178   */\n      dup4\n        /* \"#utility.yul\":23165:23182   */\n      add\n        /* \"#utility.yul\":23158:23205   */\n      mstore\n        /* \"#utility.yul\":23222:23353   */\n      tag_607\n        /* \"#utility.yul\":23348:23352   */\n      dup2\n        /* \"#utility.yul\":23222:23353   */\n      tag_548\n      jump\t// in\n    tag_607:\n        /* \"#utility.yul\":23214:23353   */\n      swap1\n      pop\n        /* \"#utility.yul\":23112:23360   */\n      swap2\n      swap1\n      pop\n      jump\t// out\n        /* \"#utility.yul\":23366:23785   */\n    tag_148:\n        /* \"#utility.yul\":23532:23536   */\n      0x00\n        /* \"#utility.yul\":23570:23572   */\n      0x20\n        /* \"#utility.yul\":23559:23568   */\n      dup3\n        /* \"#utility.yul\":23555:23573   */\n      add\n        /* \"#utility.yul\":23547:23573   */\n      swap1\n      pop\n        /* \"#utility.yul\":23619:23628   */\n      dup2\n        /* \"#utility.yul\":23613:23617   */\n      dup2\n        /* \"#utility.yul\":23609:23629   */\n      sub\n        /* \"#utility.yul\":23605:23606   */\n      0x00\n        /* \"#utility.yul\":23594:23603   */\n      dup4\n        /* \"#utility.yul\":23590:23607   */\n      add\n        /* \"#utility.yul\":23583:23630   */\n      mstore\n        /* \"#utility.yul\":23647:23778   */\n      tag_609\n        /* \"#utility.yul\":23773:23777   */\n      dup2\n        /* \"#utility.yul\":23647:23778   */\n      tag_553\n      jump\t// in\n    tag_609:\n        /* \"#utility.yul\":23639:23778   */\n      swap1\n      pop\n        /* \"#utility.yul\":23537:23785   */\n      swap2\n      swap1\n      pop\n      jump\t// out\n        /* \"#utility.yul\":23791:24210   */\n    tag_111:\n        /* \"#utility.yul\":23957:23961   */\n      0x00\n        /* \"#utility.yul\":23995:23997   */\n      0x20\n        /* \"#utility.yul\":23984:23993   */\n      dup3\n        /* \"#utility.yul\":23980:23998   */\n      add\n        /* \"#utility.yul\":23972:23998   */\n      swap1\n      pop\n        /* \"#utility.yul\":24044:24053   */\n      dup2\n        /* \"#utility.yul\":24038:24042   */\n      dup2\n        /* \"#utility.yul\":24034:24054   */\n      sub\n        /* \"#utility.yul\":24030:24031   */\n      0x00\n        /* \"#utility.yul\":24019:24028   */\n      dup4\n        /* \"#utility.yul\":24015:24032   */\n      add\n        /* \"#utility.yul\":24008:24055   */\n      mstore\n        /* \"#utility.yul\":24072:24203   */\n      tag_611\n        /* \"#utility.yul\":24198:24202   */\n      dup2\n        /* \"#utility.yul\":24072:24203   */\n      tag_558\n      jump\t// in\n    tag_611:\n        /* \"#utility.yul\":24064:24203   */\n      swap1\n      pop\n        /* \"#utility.yul\":23962:24210   */\n      swap2\n      swap1\n      pop\n      jump\t// out\n        /* \"#utility.yul\":24216:24635   */\n    tag_119:\n        /* \"#utility.yul\":24382:24386   */\n      0x00\n        /* \"#utility.yul\":24420:24422   */\n      0x20\n        /* \"#utility.yul\":24409:24418   */\n      dup3\n        /* \"#utility.yul\":24405:24423   */\n      add\n        /* \"#utility.yul\":24397:24423   */\n      swap1\n      pop\n        /* \"#utility.yul\":24469:24478   */\n      dup2\n        /* \"#utility.yul\":24463:24467   */\n      dup2\n        /* \"#utility.yul\":24459:24479   */\n      sub\n        /* \"#utility.yul\":24455:24456   */\n      0x00\n        /* \"#utility.yul\":24444:24453   */\n      dup4\n        /* \"#utility.yul\":24440:24457   */\n      add\n        /* \"#utility.yul\":24433:24480   */\n      mstore\n        /* \"#utility.yul\":24497:24628   */\n      tag_613\n        /* \"#utility.yul\":24623:24627   */\n      dup2\n        /* \"#utility.yul\":24497:24628   */\n      tag_563\n      jump\t// in\n    tag_613:\n        /* \"#utility.yul\":24489:24628   */\n      swap1\n      pop\n        /* \"#utility.yul\":24387:24635   */\n      swap2\n      swap1\n      pop\n      jump\t// out\n        /* \"#utility.yul\":24641:25030   */\n    tag_57:\n        /* \"#utility.yul\":24792:24796   */\n      0x00\n        /* \"#utility.yul\":24830:24832   */\n      0x20\n        /* \"#utility.yul\":24819:24828   */\n      dup3\n        /* \"#utility.yul\":24815:24833   */\n      add\n        /* \"#utility.yul\":24807:24833   */\n      swap1\n      pop\n        /* \"#utility.yul\":24879:24888   */\n      dup2\n        /* \"#utility.yul\":24873:24877   */\n      dup2\n        /* \"#utility.yul\":24869:24889   */\n      sub\n        /* \"#utility.yul\":24865:24866   */\n      0x00\n        /* \"#utility.yul\":24854:24863   */\n      dup4\n        /* \"#utility.yul\":24850:24867   */\n      add\n        /* \"#utility.yul\":24843:24890   */\n      mstore\n        /* \"#utility.yul\":24907:25023   */\n      tag_615\n        /* \"#utility.yul\":25018:25022   */\n      dup2\n        /* \"#utility.yul\":25009:25015   */\n      dup5\n        /* \"#utility.yul\":24907:25023   */\n      tag_568\n      jump\t// in\n    tag_615:\n        /* \"#utility.yul\":24899:25023   */\n      swap1\n      pop\n        /* \"#utility.yul\":24797:25030   */\n      swap3\n      swap2\n      pop\n      pop\n      jump\t// out\n        /* \"#utility.yul\":25036:25258   */\n    tag_67:\n        /* \"#utility.yul\":25129:25133   */\n      0x00\n        /* \"#utility.yul\":25167:25169   */\n      0x20\n        /* \"#utility.yul\":25156:25165   */\n      dup3\n        /* \"#utility.yul\":25152:25170   */\n      add\n        /* \"#utility.yul\":25144:25170   */\n      swap1\n      pop\n        /* \"#utility.yul\":25180:25251   */\n      tag_617\n        /* \"#utility.yul\":25248:25249   */\n      0x00\n        /* \"#utility.yul\":25237:25246   */\n      dup4\n        /* \"#utility.yul\":25233:25250   */\n      add\n        /* \"#utility.yul\":25224:25230   */\n      dup5\n        /* \"#utility.yul\":25180:25251   */\n      tag_575\n      jump\t// in\n    tag_617:\n        /* \"#utility.yul\":25134:25258   */\n      swap3\n      swap2\n      pop\n      pop\n      jump\t// out\n        /* \"#utility.yul\":25264:25393   */\n    tag_324:\n        /* \"#utility.yul\":25298:25304   */\n      0x00\n        /* \"#utility.yul\":25325:25345   */\n      tag_619\n      tag_620\n      jump\t// in\n    tag_619:\n        /* \"#utility.yul\":25315:25345   */\n      swap1\n      pop\n        /* \"#utility.yul\":25354:25387   */\n      tag_621\n        /* \"#utility.yul\":25382:25386   */\n      dup3\n        /* \"#utility.yul\":25374:25380   */\n      dup3\n        /* \"#utility.yul\":25354:25387   */\n      tag_622\n      jump\t// in\n    tag_621:\n        /* \"#utility.yul\":25305:25393   */\n      swap2\n      swap1\n      pop\n      jump\t// out\n        /* \"#utility.yul\":25399:25474   */\n    tag_620:\n        /* \"#utility.yul\":25432:25438   */\n      0x00\n        /* \"#utility.yul\":25465:25467   */\n      0x40\n        /* \"#utility.yul\":25459:25468   */\n      mload\n        /* \"#utility.yul\":25449:25468   */\n      swap1\n      pop\n        /* \"#utility.yul\":25439:25474   */\n      swap1\n      jump\t// out\n        /* \"#utility.yul\":25480:25791   */\n    tag_323:\n        /* \"#utility.yul\":25557:25561   */\n      0x00\n        /* \"#utility.yul\":25647:25665   */\n      0xffffffffffffffff\n        /* \"#utility.yul\":25639:25645   */\n      dup3\n        /* \"#utility.yul\":25636:25666   */\n      gt\n        /* \"#utility.yul\":25633:25635   */\n      iszero\n      tag_625\n      jumpi\n        /* \"#utility.yul\":25669:25687   */\n      tag_626\n      tag_627\n      jump\t// in\n    tag_626:\n        /* \"#utility.yul\":25633:25635   */\n    tag_625:\n        /* \"#utility.yul\":25719:25723   */\n      0x20\n        /* \"#utility.yul\":25711:25717   */\n      dup3\n        /* \"#utility.yul\":25707:25724   */\n      mul\n        /* \"#utility.yul\":25699:25724   */\n      swap1\n      pop\n        /* \"#utility.yul\":25779:25783   */\n      0x20\n        /* \"#utility.yul\":25773:25777   */\n      dup2\n        /* \"#utility.yul\":25769:25784   */\n      add\n        /* \"#utility.yul\":25761:25784   */\n      swap1\n      pop\n        /* \"#utility.yul\":25562:25791   */\n      swap2\n      swap1\n      pop\n      jump\t// out\n        /* \"#utility.yul\":25797:26108   */\n    tag_335:\n        /* \"#utility.yul\":25874:25878   */\n      0x00\n        /* \"#utility.yul\":25964:25982   */\n      0xffffffffffffffff\n        /* \"#utility.yul\":25956:25962   */\n      dup3\n        /* \"#utility.yul\":25953:25983   */\n      gt\n        /* \"#utility.yul\":25950:25952   */\n      iszero\n      tag_629\n      jumpi\n        /* \"#utility.yul\":25986:26004   */\n      tag_630\n      tag_627\n      jump\t// in\n    tag_630:\n        /* \"#utility.yul\":25950:25952   */\n    tag_629:\n        /* \"#utility.yul\":26036:26040   */\n      0x20\n        /* \"#utility.yul\":26028:26034   */\n      dup3\n        /* \"#utility.yul\":26024:26041   */\n      mul\n        /* \"#utility.yul\":26016:26041   */\n      swap1\n      pop\n        /* \"#utility.yul\":26096:26100   */\n      0x20\n        /* \"#utility.yul\":26090:26094   */\n      dup2\n        /* \"#utility.yul\":26086:26101   */\n      add\n        /* \"#utility.yul\":26078:26101   */\n      swap1\n      pop\n        /* \"#utility.yul\":25879:26108   */\n      swap2\n      swap1\n      pop\n      jump\t// out\n        /* \"#utility.yul\":26114:26421   */\n    tag_346:\n        /* \"#utility.yul\":26175:26179   */\n      0x00\n        /* \"#utility.yul\":26265:26283   */\n      0xffffffffffffffff\n        /* \"#utility.yul\":26257:26263   */\n      dup3\n        /* \"#utility.yul\":26254:26284   */\n      gt\n        /* \"#utility.yul\":26251:26253   */\n      iszero\n      tag_632\n      jumpi\n        /* \"#utility.yul\":26287:26305   */\n      tag_633\n      tag_627\n      jump\t// in\n    tag_633:\n        /* \"#utility.yul\":26251:26253   */\n    tag_632:\n        /* \"#utility.yul\":26325:26354   */\n      tag_634\n        /* \"#utility.yul\":26347:26353   */\n      dup3\n        /* \"#utility.yul\":26325:26354   */\n      tag_498\n      jump\t// in\n    tag_634:\n        /* \"#utility.yul\":26317:26354   */\n      swap1\n      pop\n        /* \"#utility.yul\":26409:26413   */\n      0x20\n        /* \"#utility.yul\":26403:26407   */\n      dup2\n        /* \"#utility.yul\":26399:26414   */\n      add\n        /* \"#utility.yul\":26391:26414   */\n      swap1\n      pop\n        /* \"#utility.yul\":26180:26421   */\n      swap2\n      swap1\n      pop\n      jump\t// out\n        /* \"#utility.yul\":26427:26735   */\n    tag_354:\n        /* \"#utility.yul\":26489:26493   */\n      0x00\n        /* \"#utility.yul\":26579:26597   */\n      0xffffffffffffffff\n        /* \"#utility.yul\":26571:26577   */\n      dup3\n        /* \"#utility.yul\":26568:26598   */\n      gt\n        /* \"#utility.yul\":26565:26567   */\n      iszero\n      tag_636\n      jumpi\n        /* \"#utility.yul\":26601:26619   */\n      tag_637\n      tag_627\n      jump\t// in\n    tag_637:\n        /* \"#utility.yul\":26565:26567   */\n    tag_636:\n        /* \"#utility.yul\":26639:26668   */\n      tag_638\n        /* \"#utility.yul\":26661:26667   */\n      dup3\n        /* \"#utility.yul\":26639:26668   */\n      tag_498\n      jump\t// in\n    tag_638:\n        /* \"#utility.yul\":26631:26668   */\n      swap1\n      pop\n        /* \"#utility.yul\":26723:26727   */\n      0x20\n        /* \"#utility.yul\":26717:26721   */\n      dup2\n        /* \"#utility.yul\":26713:26728   */\n      add\n        /* \"#utility.yul\":26705:26728   */\n      swap1\n      pop\n        /* \"#utility.yul\":26494:26735   */\n      swap2\n      swap1\n      pop\n      jump\t// out\n        /* \"#utility.yul\":26741:26873   */\n    tag_464:\n        /* \"#utility.yul\":26808:26812   */\n      0x00\n        /* \"#utility.yul\":26831:26834   */\n      dup2\n        /* \"#utility.yul\":26823:26834   */\n      swap1\n      pop\n        /* \"#utility.yul\":26861:26865   */\n      0x20\n        /* \"#utility.yul\":26856:26859   */\n      dup3\n        /* \"#utility.yul\":26852:26866   */\n      add\n        /* \"#utility.yul\":26844:26866   */\n      swap1\n      pop\n        /* \"#utility.yul\":26813:26873   */\n      swap2\n      swap1\n      pop\n      jump\t// out\n        /* \"#utility.yul\":26879:27011   */\n    tag_478:\n        /* \"#utility.yul\":26946:26950   */\n      0x00\n        /* \"#utility.yul\":26969:26972   */\n      dup2\n        /* \"#utility.yul\":26961:26972   */\n      swap1\n      pop\n        /* \"#utility.yul\":26999:27003   */\n      0x20\n        /* \"#utility.yul\":26994:26997   */\n      dup3\n        /* \"#utility.yul\":26990:27004   */\n      add\n        /* \"#utility.yul\":26982:27004   */\n      swap1\n      pop\n        /* \"#utility.yul\":26951:27011   */\n      swap2\n      swap1\n      pop\n      jump\t// out\n        /* \"#utility.yul\":27017:27131   */\n    tag_460:\n        /* \"#utility.yul\":27084:27090   */\n      0x00\n        /* \"#utility.yul\":27118:27123   */\n      dup2\n        /* \"#utility.yul\":27112:27124   */\n      mload\n        /* \"#utility.yul\":27102:27124   */\n      swap1\n      pop\n        /* \"#utility.yul\":27091:27131   */\n      swap2\n      swap1\n      pop\n      jump\t// out\n        /* \"#utility.yul\":27137:27251   */\n    tag_474:\n        /* \"#utility.yul\":27204:27210   */\n      0x00\n        /* \"#utility.yul\":27238:27243   */\n      dup2\n        /* \"#utility.yul\":27232:27244   */\n      mload\n        /* \"#utility.yul\":27222:27244   */\n      swap1\n      pop\n        /* \"#utility.yul\":27211:27251   */\n      swap2\n      swap1\n      pop\n      jump\t// out\n        /* \"#utility.yul\":27257:27355   */\n    tag_492:\n        /* \"#utility.yul\":27308:27314   */\n      0x00\n        /* \"#utility.yul\":27342:27347   */\n      dup2\n        /* \"#utility.yul\":27336:27348   */\n      mload\n        /* \"#utility.yul\":27326:27348   */\n      swap1\n      pop\n        /* \"#utility.yul\":27315:27355   */\n      swap2\n      swap1\n      pop\n      jump\t// out\n        /* \"#utility.yul\":27361:27460   */\n    tag_502:\n        /* \"#utility.yul\":27413:27419   */\n      0x00\n        /* \"#utility.yul\":27447:27452   */\n      dup2\n        /* \"#utility.yul\":27441:27453   */\n      mload\n        /* \"#utility.yul\":27431:27453   */\n      swap1\n      pop\n        /* \"#utility.yul\":27420:27460   */\n      swap2\n      swap1\n      pop\n      jump\t// out\n        /* \"#utility.yul\":27466:27579   */\n    tag_470:\n        /* \"#utility.yul\":27536:27540   */\n      0x00\n        /* \"#utility.yul\":27568:27572   */\n      0x20\n        /* \"#utility.yul\":27563:27566   */\n      dup3\n        /* \"#utility.yul\":27559:27573   */\n      add\n        /* \"#utility.yul\":27551:27573   */\n      swap1\n      pop\n        /* \"#utility.yul\":27541:27579   */\n      swap2\n      swap1\n      pop\n      jump\t// out\n        /* \"#utility.yul\":27585:27698   */\n    tag_484:\n        /* \"#utility.yul\":27655:27659   */\n      0x00\n        /* \"#utility.yul\":27687:27691   */\n      0x20\n        /* \"#utility.yul\":27682:27685   */\n      dup3\n        /* \"#utility.yul\":27678:27692   */\n      add\n        /* \"#utility.yul\":27670:27692   */\n      swap1\n      pop\n        /* \"#utility.yul\":27660:27698   */\n      swap2\n      swap1\n      pop\n      jump\t// out\n        /* \"#utility.yul\":27704:27878   */\n    tag_462:\n        /* \"#utility.yul\":27793:27804   */\n      0x00\n        /* \"#utility.yul\":27827:27833   */\n      dup3\n        /* \"#utility.yul\":27822:27825   */\n      dup3\n        /* \"#utility.yul\":27815:27834   */\n      mstore\n        /* \"#utility.yul\":27867:27871   */\n      0x20\n        /* \"#utility.yul\":27862:27865   */\n      dup3\n        /* \"#utility.yul\":27858:27872   */\n      add\n        /* \"#utility.yul\":27843:27872   */\n      swap1\n      pop\n        /* \"#utility.yul\":27805:27878   */\n      swap3\n      swap2\n      pop\n      pop\n      jump\t// out\n        /* \"#utility.yul\":27884:28058   */\n    tag_476:\n        /* \"#utility.yul\":27973:27984   */\n      0x00\n        /* \"#utility.yul\":28007:28013   */\n      dup3\n        /* \"#utility.yul\":28002:28005   */\n      dup3\n        /* \"#utility.yul\":27995:28014   */\n      mstore\n        /* \"#utility.yul\":28047:28051   */\n      0x20\n        /* \"#utility.yul\":28042:28045   */\n      dup3\n        /* \"#utility.yul\":28038:28052   */\n      add\n        /* \"#utility.yul\":28023:28052   */\n      swap1\n      pop\n        /* \"#utility.yul\":27985:28058   */\n      swap3\n      swap2\n      pop\n      pop\n      jump\t// out\n        /* \"#utility.yul\":28064:28232   */\n    tag_494:\n        /* \"#utility.yul\":28147:28158   */\n      0x00\n        /* \"#utility.yul\":28181:28187   */\n      dup3\n        /* \"#utility.yul\":28176:28179   */\n      dup3\n        /* \"#utility.yul\":28169:28188   */\n      mstore\n        /* \"#utility.yul\":28221:28225   */\n      0x20\n        /* \"#utility.yul\":28216:28219   */\n      dup3\n        /* \"#utility.yul\":28212:28226   */\n      add\n        /* \"#utility.yul\":28197:28226   */\n      swap1\n      pop\n        /* \"#utility.yul\":28159:28232   */\n      swap3\n      swap2\n      pop\n      pop\n      jump\t// out\n        /* \"#utility.yul\":28238:28407   */\n    tag_504:\n        /* \"#utility.yul\":28322:28333   */\n      0x00\n        /* \"#utility.yul\":28356:28362   */\n      dup3\n        /* \"#utility.yul\":28351:28354   */\n      dup3\n        /* \"#utility.yul\":28344:28363   */\n      mstore\n        /* \"#utility.yul\":28396:28400   */\n      0x20\n        /* \"#utility.yul\":28391:28394   */\n      dup3\n        /* \"#utility.yul\":28387:28401   */\n      add\n        /* \"#utility.yul\":28372:28401   */\n      swap1\n      pop\n        /* \"#utility.yul\":28334:28407   */\n      swap3\n      swap2\n      pop\n      pop\n      jump\t// out\n        /* \"#utility.yul\":28413:28561   */\n    tag_511:\n        /* \"#utility.yul\":28515:28526   */\n      0x00\n        /* \"#utility.yul\":28552:28555   */\n      dup2\n        /* \"#utility.yul\":28537:28555   */\n      swap1\n      pop\n        /* \"#utility.yul\":28527:28561   */\n      swap3\n      swap2\n      pop\n      pop\n      jump\t// out\n        /* \"#utility.yul\":28567:28872   */\n    tag_248:\n        /* \"#utility.yul\":28607:28610   */\n      0x00\n        /* \"#utility.yul\":28626:28646   */\n      tag_653\n        /* \"#utility.yul\":28644:28645   */\n      dup3\n        /* \"#utility.yul\":28626:28646   */\n      tag_574\n      jump\t// in\n    tag_653:\n        /* \"#utility.yul\":28621:28646   */\n      swap2\n      pop\n        /* \"#utility.yul\":28660:28680   */\n      tag_654\n        /* \"#utility.yul\":28678:28679   */\n      dup4\n        /* \"#utility.yul\":28660:28680   */\n      tag_574\n      jump\t// in\n    tag_654:\n        /* \"#utility.yul\":28655:28680   */\n      swap3\n      pop\n        /* \"#utility.yul\":28814:28815   */\n      dup3\n        /* \"#utility.yul\":28746:28812   */\n      0xffffffffffffffffffffffffffffffffffffffffffffffffffffffffffffffff\n        /* \"#utility.yul\":28742:28816   */\n      sub\n        /* \"#utility.yul\":28739:28740   */\n      dup3\n        /* \"#utility.yul\":28736:28817   */\n      gt\n        /* \"#utility.yul\":28733:28735   */\n      iszero\n      tag_655\n      jumpi\n        /* \"#utility.yul\":28820:28838   */\n      tag_656\n      tag_657\n      jump\t// in\n    tag_656:\n        /* \"#utility.yul\":28733:28735   */\n    tag_655:\n        /* \"#utility.yul\":28864:28865   */\n      dup3\n        /* \"#utility.yul\":28861:28862   */\n      dup3\n        /* \"#utility.yul\":28857:28866   */\n      add\n        /* \"#utility.yul\":28850:28866   */\n      swap1\n      pop\n        /* \"#utility.yul\":28611:28872   */\n      swap3\n      swap2\n      pop\n      pop\n      jump\t// out\n        /* \"#utility.yul\":28878:29063   */\n    tag_238:\n        /* \"#utility.yul\":28918:28919   */\n      0x00\n        /* \"#utility.yul\":28935:28955   */\n      tag_659\n        /* \"#utility.yul\":28953:28954   */\n      dup3\n        /* \"#utility.yul\":28935:28955   */\n      tag_574\n      jump\t// in\n    tag_659:\n        /* \"#utility.yul\":28930:28955   */\n      swap2\n      pop\n        /* \"#utility.yul\":28969:28989   */\n      tag_660\n        /* \"#utility.yul\":28987:28988   */\n      dup4\n        /* \"#utility.yul\":28969:28989   */\n      tag_574\n      jump\t// in\n    tag_660:\n        /* \"#utility.yul\":28964:28989   */\n      swap3\n      pop\n        /* \"#utility.yul\":29008:29009   */\n      dup3\n        /* \"#utility.yul\":28998:29000   */\n      tag_661\n      jumpi\n        /* \"#utility.yul\":29013:29031   */\n      tag_662\n      tag_663\n      jump\t// in\n    tag_662:\n        /* \"#utility.yul\":28998:29000   */\n    tag_661:\n        /* \"#utility.yul\":29055:29056   */\n      dup3\n        /* \"#utility.yul\":29052:29053   */\n      dup3\n        /* \"#utility.yul\":29048:29057   */\n      div\n        /* \"#utility.yul\":29043:29057   */\n      swap1\n      pop\n        /* \"#utility.yul\":28920:29063   */\n      swap3\n      swap2\n      pop\n      pop\n      jump\t// out\n        /* \"#utility.yul\":29069:29260   */\n    tag_244:\n        /* \"#utility.yul\":29109:29113   */\n      0x00\n        /* \"#utility.yul\":29129:29149   */\n      tag_665\n        /* \"#utility.yul\":29147:29148   */\n      dup3\n        /* \"#utility.yul\":29129:29149   */\n      tag_574\n      jump\t// in\n    tag_665:\n        /* \"#utility.yul\":29124:29149   */\n      swap2\n      pop\n        /* \"#utility.yul\":29163:29183   */\n      tag_666\n        /* \"#utility.yul\":29181:29182   */\n      dup4\n        /* \"#utility.yul\":29163:29183   */\n      tag_574\n      jump\t// in\n    tag_666:\n        /* \"#utility.yul\":29158:29183   */\n      swap3\n      pop\n        /* \"#utility.yul\":29202:29203   */\n      dup3\n        /* \"#utility.yul\":29199:29200   */\n      dup3\n        /* \"#utility.yul\":29196:29204   */\n      lt\n        /* \"#utility.yul\":29193:29195   */\n      iszero\n      tag_667\n      jumpi\n        /* \"#utility.yul\":29207:29225   */\n      tag_668\n      tag_657\n      jump\t// in\n    tag_668:\n        /* \"#utility.yul\":29193:29195   */\n    tag_667:\n        /* \"#utility.yul\":29252:29253   */\n      dup3\n        /* \"#utility.yul\":29249:29250   */\n      dup3\n        /* \"#utility.yul\":29245:29254   */\n      sub\n        /* \"#utility.yul\":29237:29254   */\n      swap1\n      pop\n        /* \"#utility.yul\":29114:29260   */\n      swap3\n      swap2\n      pop\n      pop\n      jump\t// out\n        /* \"#utility.yul\":29266:29362   */\n    tag_453:\n        /* \"#utility.yul\":29303:29310   */\n      0x00\n        /* \"#utility.yul\":29332:29356   */\n      tag_670\n        /* \"#utility.yul\":29350:29355   */\n      dup3\n        /* \"#utility.yul\":29332:29356   */\n      tag_671\n      jump\t// in\n    tag_670:\n        /* \"#utility.yul\":29321:29356   */\n      swap1\n      pop\n        /* \"#utility.yul\":29311:29362   */\n      swap2\n      swap1\n      pop\n      jump\t// out\n        /* \"#utility.yul\":29368:29458   */\n    tag_488:\n        /* \"#utility.yul\":29402:29409   */\n      0x00\n        /* \"#utility.yul\":29445:29450   */\n      dup2\n        /* \"#utility.yul\":29438:29451   */\n      iszero\n        /* \"#utility.yul\":29431:29452   */\n      iszero\n        /* \"#utility.yul\":29420:29452   */\n      swap1\n      pop\n        /* \"#utility.yul\":29410:29458   */\n      swap2\n      swap1\n      pop\n      jump\t// out\n        /* \"#utility.yul\":29464:29613   */\n    tag_673:\n        /* \"#utility.yul\":29500:29507   */\n      0x00\n        /* \"#utility.yul\":29540:29606   */\n      0xffffffff00000000000000000000000000000000000000000000000000000000\n        /* \"#utility.yul\":29533:29538   */\n      dup3\n        /* \"#utility.yul\":29529:29607   */\n      and\n        /* \"#utility.yul\":29518:29607   */\n      swap1\n      pop\n        /* \"#utility.yul\":29508:29613   */\n      swap2\n      swap1\n      pop\n      jump\t// out\n        /* \"#utility.yul\":29619:29745   */\n    tag_671:\n        /* \"#utility.yul\":29656:29663   */\n      0x00\n        /* \"#utility.yul\":29696:29738   */\n      0xffffffffffffffffffffffffffffffffffffffff\n        /* \"#utility.yul\":29689:29694   */\n      dup3\n        /* \"#utility.yul\":29685:29739   */\n      and\n        /* \"#utility.yul\":29674:29739   */\n      swap1\n      pop\n        /* \"#utility.yul\":29664:29745   */\n      swap2\n      swap1\n      pop\n      jump\t// out\n        /* \"#utility.yul\":29751:29828   */\n    tag_574:\n        /* \"#utility.yul\":29788:29795   */\n      0x00\n        /* \"#utility.yul\":29817:29822   */\n      dup2\n        /* \"#utility.yul\":29806:29822   */\n      swap1\n      pop\n        /* \"#utility.yul\":29796:29828   */\n      swap2\n      swap1\n      pop\n      jump\t// out\n        /* \"#utility.yul\":29834:29988   */\n    tag_349:\n        /* \"#utility.yul\":29918:29924   */\n      dup3\n        /* \"#utility.yul\":29913:29916   */\n      dup2\n        /* \"#utility.yul\":29908:29911   */\n      dup4\n        /* \"#utility.yul\":29895:29925   */\n      calldatacopy\n        /* \"#utility.yul\":29980:29981   */\n      0x00\n        /* \"#utility.yul\":29971:29977   */\n      dup4\n        /* \"#utility.yul\":29966:29969   */\n      dup4\n        /* \"#utility.yul\":29962:29978   */\n      add\n        /* \"#utility.yul\":29955:29982   */\n      mstore\n        /* \"#utility.yul\":29885:29988   */\n      pop\n      pop\n      pop\n      jump\t// out\n        /* \"#utility.yul\":29994:30301   */\n    tag_496:\n        /* \"#utility.yul\":30062:30063   */\n      0x00\n        /* \"#utility.yul\":30072:30185   */\n    tag_679:\n        /* \"#utility.yul\":30086:30092   */\n      dup4\n        /* \"#utility.yul\":30083:30084   */\n      dup2\n        /* \"#utility.yul\":30080:30093   */\n      lt\n        /* \"#utility.yul\":30072:30185   */\n      iszero\n      tag_681\n      jumpi\n        /* \"#utility.yul\":30171:30172   */\n      dup1\n        /* \"#utility.yul\":30166:30169   */\n      dup3\n        /* \"#utility.yul\":30162:30173   */\n      add\n        /* \"#utility.yul\":30156:30174   */\n      mload\n        /* \"#utility.yul\":30152:30153   */\n      dup2\n        /* \"#utility.yul\":30147:30150   */\n      dup5\n        /* \"#utility.yul\":30143:30154   */\n      add\n        /* \"#utility.yul\":30136:30175   */\n      mstore\n        /* \"#utility.yul\":30108:30110   */\n      0x20\n        /* \"#utility.yul\":30105:30106   */\n      dup2\n        /* \"#utility.yul\":30101:30111   */\n      add\n        /* \"#utility.yul\":30096:30111   */\n      swap1\n      pop\n        /* \"#utility.yul\":30072:30185   */\n      jump(tag_679)\n    tag_681:\n        /* \"#utility.yul\":30203:30209   */\n      dup4\n        /* \"#utility.yul\":30200:30201   */\n      dup2\n        /* \"#utility.yul\":30197:30210   */\n      gt\n        /* \"#utility.yul\":30194:30196   */\n      iszero\n      tag_682\n      jumpi\n        /* \"#utility.yul\":30283:30284   */\n      0x00\n        /* \"#utility.yul\":30274:30280   */\n      dup5\n        /* \"#utility.yul\":30269:30272   */\n      dup5\n        /* \"#utility.yul\":30265:30281   */\n      add\n        /* \"#utility.yul\":30258:30285   */\n      mstore\n        /* \"#utility.yul\":30194:30196   */\n    tag_682:\n        /* \"#utility.yul\":30043:30301   */\n      pop\n      pop\n      pop\n      pop\n      jump\t// out\n        /* \"#utility.yul\":30307:30627   */\n    tag_99:\n        /* \"#utility.yul\":30351:30357   */\n      0x00\n        /* \"#utility.yul\":30388:30389   */\n      0x02\n        /* \"#utility.yul\":30382:30386   */\n      dup3\n        /* \"#utility.yul\":30378:30390   */\n      div\n        /* \"#utility.yul\":30368:30390   */\n      swap1\n      pop\n        /* \"#utility.yul\":30435:30436   */\n      0x01\n        /* \"#utility.yul\":30429:30433   */\n      dup3\n        /* \"#utility.yul\":30425:30437   */\n      and\n        /* \"#utility.yul\":30456:30474   */\n      dup1\n        /* \"#utility.yul\":30446:30448   */\n      tag_684\n      jumpi\n        /* \"#utility.yul\":30512:30516   */\n      0x7f\n        /* \"#utility.yul\":30504:30510   */\n      dup3\n        /* \"#utility.yul\":30500:30517   */\n      and\n        /* \"#utility.yul\":30490:30517   */\n      swap2\n      pop\n        /* \"#utility.yul\":30446:30448   */\n    tag_684:\n        /* \"#utility.yul\":30574:30576   */\n      0x20\n        /* \"#utility.yul\":30566:30572   */\n      dup3\n        /* \"#utility.yul\":30563:30577   */\n      lt\n        /* \"#utility.yul\":30543:30561   */\n      dup2\n        /* \"#utility.yul\":30540:30578   */\n      eq\n        /* \"#utility.yul\":30537:30539   */\n      iszero\n      tag_685\n      jumpi\n        /* \"#utility.yul\":30593:30611   */\n      tag_686\n      tag_687\n      jump\t// in\n    tag_686:\n        /* \"#utility.yul\":30537:30539   */\n    tag_685:\n        /* \"#utility.yul\":30358:30627   */\n      pop\n      swap2\n      swap1\n      pop\n      jump\t// out\n        /* \"#utility.yul\":30633:30914   */\n    tag_622:\n        /* \"#utility.yul\":30716:30743   */\n      tag_689\n        /* \"#utility.yul\":30738:30742   */\n      dup3\n        /* \"#utility.yul\":30716:30743   */\n      tag_498\n      jump\t// in\n    tag_689:\n        /* \"#utility.yul\":30708:30714   */\n      dup2\n        /* \"#utility.yul\":30704:30744   */\n      add\n        /* \"#utility.yul\":30846:30852   */\n      dup2\n        /* \"#utility.yul\":30834:30844   */\n      dup2\n        /* \"#utility.yul\":30831:30853   */\n      lt\n        /* \"#utility.yul\":30810:30828   */\n      0xffffffffffffffff\n        /* \"#utility.yul\":30798:30808   */\n      dup3\n        /* \"#utility.yul\":30795:30829   */\n      gt\n        /* \"#utility.yul\":30792:30854   */\n      or\n        /* \"#utility.yul\":30789:30791   */\n      iszero\n      tag_690\n      jumpi\n        /* \"#utility.yul\":30857:30875   */\n      tag_691\n      tag_627\n      jump\t// in\n    tag_691:\n        /* \"#utility.yul\":30789:30791   */\n    tag_690:\n        /* \"#utility.yul\":30897:30907   */\n      dup1\n        /* \"#utility.yul\":30893:30895   */\n      0x40\n        /* \"#utility.yul\":30886:30908   */\n      mstore\n        /* \"#utility.yul\":30676:30914   */\n      pop\n      pop\n      pop\n      jump\t// out\n        /* \"#utility.yul\":30920:31153   */\n    tag_236:\n        /* \"#utility.yul\":30959:30962   */\n      0x00\n        /* \"#utility.yul\":30982:31006   */\n      tag_693\n        /* \"#utility.yul\":31000:31005   */\n      dup3\n        /* \"#utility.yul\":30982:31006   */\n      tag_574\n      jump\t// in\n    tag_693:\n        /* \"#utility.yul\":30973:31006   */\n      swap2\n      pop\n        /* \"#utility.yul\":31028:31094   */\n      0xffffffffffffffffffffffffffffffffffffffffffffffffffffffffffffffff\n        /* \"#utility.yul\":31021:31026   */\n      dup3\n        /* \"#utility.yul\":31018:31095   */\n      eq\n        /* \"#utility.yul\":31015:31017   */\n      iszero\n      tag_694\n      jumpi\n        /* \"#utility.yul\":31098:31116   */\n      tag_695\n      tag_657\n      jump\t// in\n    tag_695:\n        /* \"#utility.yul\":31015:31017   */\n    tag_694:\n        /* \"#utility.yul\":31145:31146   */\n      0x01\n        /* \"#utility.yul\":31138:31143   */\n      dup3\n        /* \"#utility.yul\":31134:31147   */\n      add\n        /* \"#utility.yul\":31127:31147   */\n      swap1\n      pop\n        /* \"#utility.yul\":30963:31153   */\n      swap2\n      swap1\n      pop\n      jump\t// out\n        /* \"#utility.yul\":31159:31335   */\n    tag_246:\n        /* \"#utility.yul\":31191:31192   */\n      0x00\n        /* \"#utility.yul\":31208:31228   */\n      tag_697\n        /* \"#utility.yul\":31226:31227   */\n      dup3\n        /* \"#utility.yul\":31208:31228   */\n      tag_574\n      jump\t// in\n    tag_697:\n        /* \"#utility.yul\":31203:31228   */\n      swap2\n      pop\n        /* \"#utility.yul\":31242:31262   */\n      tag_698\n        /* \"#utility.yul\":31260:31261   */\n      dup4\n        /* \"#utility.yul\":31242:31262   */\n      tag_574\n      jump\t// in\n    tag_698:\n        /* \"#utility.yul\":31237:31262   */\n      swap3\n      pop\n        /* \"#utility.yul\":31281:31282   */\n      dup3\n        /* \"#utility.yul\":31271:31273   */\n      tag_699\n      jumpi\n        /* \"#utility.yul\":31286:31304   */\n      tag_700\n      tag_663\n      jump\t// in\n    tag_700:\n        /* \"#utility.yul\":31271:31273   */\n    tag_699:\n        /* \"#utility.yul\":31327:31328   */\n      dup3\n        /* \"#utility.yul\":31324:31325   */\n      dup3\n        /* \"#utility.yul\":31320:31329   */\n      mod\n        /* \"#utility.yul\":31315:31329   */\n      swap1\n      pop\n        /* \"#utility.yul\":31193:31335   */\n      swap3\n      swap2\n      pop\n      pop\n      jump\t// out\n        /* \"#utility.yul\":31341:31521   */\n    tag_657:\n        /* \"#utility.yul\":31389:31466   */\n      0x4e487b7100000000000000000000000000000000000000000000000000000000\n        /* \"#utility.yul\":31386:31387   */\n      0x00\n        /* \"#utility.yul\":31379:31467   */\n      mstore\n        /* \"#utility.yul\":31486:31490   */\n      0x11\n        /* \"#utility.yul\":31483:31484   */\n      0x04\n        /* \"#utility.yul\":31476:31491   */\n      mstore\n        /* \"#utility.yul\":31510:31514   */\n      0x24\n        /* \"#utility.yul\":31507:31508   */\n      0x00\n        /* \"#utility.yul\":31500:31515   */\n      revert\n        /* \"#utility.yul\":31527:31707   */\n    tag_663:\n        /* \"#utility.yul\":31575:31652   */\n      0x4e487b7100000000000000000000000000000000000000000000000000000000\n        /* \"#utility.yul\":31572:31573   */\n      0x00\n        /* \"#utility.yul\":31565:31653   */\n      mstore\n        /* \"#utility.yul\":31672:31676   */\n      0x12\n        /* \"#utility.yul\":31669:31670   */\n      0x04\n        /* \"#utility.yul\":31662:31677   */\n      mstore\n        /* \"#utility.yul\":31696:31700   */\n      0x24\n        /* \"#utility.yul\":31693:31694   */\n      0x00\n        /* \"#utility.yul\":31686:31701   */\n      revert\n        /* \"#utility.yul\":31713:31893   */\n    tag_687:\n        /* \"#utility.yul\":31761:31838   */\n      0x4e487b7100000000000000000000000000000000000000000000000000000000\n        /* \"#utility.yul\":31758:31759   */\n      0x00\n        /* \"#utility.yul\":31751:31839   */\n      mstore\n        /* \"#utility.yul\":31858:31862   */\n      0x22\n        /* \"#utility.yul\":31855:31856   */\n      0x04\n        /* \"#utility.yul\":31848:31863   */\n      mstore\n        /* \"#utility.yul\":31882:31886   */\n      0x24\n        /* \"#utility.yul\":31879:31880   */\n      0x00\n        /* \"#utility.yul\":31872:31887   */\n      revert\n        /* \"#utility.yul\":31899:32079   */\n    tag_627:\n        /* \"#utility.yul\":31947:32024   */\n      0x4e487b7100000000000000000000000000000000000000000000000000000000\n        /* \"#utility.yul\":31944:31945   */\n      0x00\n        /* \"#utility.yul\":31937:32025   */\n      mstore\n        /* \"#utility.yul\":32044:32048   */\n      0x41\n        /* \"#utility.yul\":32041:32042   */\n      0x04\n        /* \"#utility.yul\":32034:32049   */\n      mstore\n        /* \"#utility.yul\":32068:32072   */\n      0x24\n        /* \"#utility.yul\":32065:32066   */\n      0x00\n        /* \"#utility.yul\":32058:32073   */\n      revert\n        /* \"#utility.yul\":32085:32187   */\n    tag_498:\n        /* \"#utility.yul\":32126:32132   */\n      0x00\n        /* \"#utility.yul\":32177:32179   */\n      0x1f\n        /* \"#utility.yul\":32173:32180   */\n      not\n        /* \"#utility.yul\":32168:32170   */\n      0x1f\n        /* \"#utility.yul\":32161:32166   */\n      dup4\n        /* \"#utility.yul\":32157:32171   */\n      add\n        /* \"#utility.yul\":32153:32181   */\n      and\n        /* \"#utility.yul\":32143:32181   */\n      swap1\n      pop\n        /* \"#utility.yul\":32133:32187   */\n      swap2\n      swap1\n      pop\n      jump\t// out\n        /* \"#utility.yul\":32193:32425   */\n    tag_517:\n        /* \"#utility.yul\":32333:32367   */\n      0x4552433732313a2063616c6c6572206973206e6f7420746f6b656e206f776e65\n        /* \"#utility.yul\":32329:32330   */\n      0x00\n        /* \"#utility.yul\":32321:32327   */\n      dup3\n        /* \"#utility.yul\":32317:32331   */\n      add\n        /* \"#utility.yul\":32310:32368   */\n      mstore\n        /* \"#utility.yul\":32402:32417   */\n      0x72206f7220617070726f76656400000000000000000000000000000000000000\n        /* \"#utility.yul\":32397:32399   */\n      0x20\n        /* \"#utility.yul\":32389:32395   */\n      dup3\n        /* \"#utility.yul\":32385:32400   */\n      add\n        /* \"#utility.yul\":32378:32418   */\n      mstore\n        /* \"#utility.yul\":32299:32425   */\n      pop\n      jump\t// out\n        /* \"#utility.yul\":32431:32668   */\n    tag_522:\n        /* \"#utility.yul\":32571:32605   */\n      0x4552433732313a207472616e7366657220746f206e6f6e204552433732315265\n        /* \"#utility.yul\":32567:32568   */\n      0x00\n        /* \"#utility.yul\":32559:32565   */\n      dup3\n        /* \"#utility.yul\":32555:32569   */\n      add\n        /* \"#utility.yul\":32548:32606   */\n      mstore\n        /* \"#utility.yul\":32640:32660   */\n      0x63656976657220696d706c656d656e7465720000000000000000000000000000\n        /* \"#utility.yul\":32635:32637   */\n      0x20\n        /* \"#utility.yul\":32627:32633   */\n      dup3\n        /* \"#utility.yul\":32623:32638   */\n      add\n        /* \"#utility.yul\":32616:32661   */\n      mstore\n        /* \"#utility.yul\":32537:32668   */\n      pop\n      jump\t// out\n        /* \"#utility.yul\":32674:32898   */\n    tag_527:\n        /* \"#utility.yul\":32814:32848   */\n      0x4552433732313a207472616e736665722066726f6d20696e636f727265637420\n        /* \"#utility.yul\":32810:32811   */\n      0x00\n        /* \"#utility.yul\":32802:32808   */\n      dup3\n        /* \"#utility.yul\":32798:32812   */\n      add\n        /* \"#utility.yul\":32791:32849   */\n      mstore\n        /* \"#utility.yul\":32883:32890   */\n      0x6f776e6572000000000000000000000000000000000000000000000000000000\n        /* \"#utility.yul\":32878:32880   */\n      0x20\n        /* \"#utility.yul\":32870:32876   */\n      dup3\n        /* \"#utility.yul\":32866:32881   */\n      add\n        /* \"#utility.yul\":32859:32891   */\n      mstore\n        /* \"#utility.yul\":32780:32898   */\n      pop\n      jump\t// out\n        /* \"#utility.yul\":32904:33082   */\n    tag_532:\n        /* \"#utility.yul\":33044:33074   */\n      0x4552433732313a20746f6b656e20616c7265616479206d696e74656400000000\n        /* \"#utility.yul\":33040:33041   */\n      0x00\n        /* \"#utility.yul\":33032:33038   */\n      dup3\n        /* \"#utility.yul\":33028:33042   */\n      add\n        /* \"#utility.yul\":33021:33075   */\n      mstore\n        /* \"#utility.yul\":33010:33082   */\n      pop\n      jump\t// out\n        /* \"#utility.yul\":33088:33311   */\n    tag_537:\n        /* \"#utility.yul\":33228:33262   */\n      0x4552433732313a207472616e7366657220746f20746865207a65726f20616464\n        /* \"#utility.yul\":33224:33225   */\n      0x00\n        /* \"#utility.yul\":33216:33222   */\n      dup3\n        /* \"#utility.yul\":33212:33226   */\n      add\n        /* \"#utility.yul\":33205:33263   */\n      mstore\n        /* \"#utility.yul\":33297:33303   */\n      0x7265737300000000000000000000000000000000000000000000000000000000\n        /* \"#utility.yul\":33292:33294   */\n      0x20\n        /* \"#utility.yul\":33284:33290   */\n      dup3\n        /* \"#utility.yul\":33280:33295   */\n      add\n        /* \"#utility.yul\":33273:33304   */\n      mstore\n        /* \"#utility.yul\":33194:33311   */\n      pop\n      jump\t// out\n        /* \"#utility.yul\":33317:33492   */\n    tag_542:\n        /* \"#utility.yul\":33457:33484   */\n      0x4552433732313a20617070726f766520746f2063616c6c657200000000000000\n        /* \"#utility.yul\":33453:33454   */\n      0x00\n        /* \"#utility.yul\":33445:33451   */\n      dup3\n        /* \"#utility.yul\":33441:33455   */\n      add\n        /* \"#utility.yul\":33434:33485   */\n      mstore\n        /* \"#utility.yul\":33423:33492   */\n      pop\n      jump\t// out\n        /* \"#utility.yul\":33498:33726   */\n    tag_547:\n        /* \"#utility.yul\":33638:33672   */\n      0x4552433732313a2061646472657373207a65726f206973206e6f742061207661\n        /* \"#utility.yul\":33634:33635   */\n      0x00\n        /* \"#utility.yul\":33626:33632   */\n      dup3\n        /* \"#utility.yul\":33622:33636   */\n      add\n        /* \"#utility.yul\":33615:33673   */\n      mstore\n        /* \"#utility.yul\":33707:33718   */\n      0x6c6964206f776e65720000000000000000000000000000000000000000000000\n        /* \"#utility.yul\":33702:33704   */\n      0x20\n        /* \"#utility.yul\":33694:33700   */\n      dup3\n        /* \"#utility.yul\":33690:33705   */\n      add\n        /* \"#utility.yul\":33683:33719   */\n      mstore\n        /* \"#utility.yul\":33604:33726   */\n      pop\n      jump\t// out\n        /* \"#utility.yul\":33732:33914   */\n    tag_552:\n        /* \"#utility.yul\":33872:33906   */\n      0x4552433732313a206d696e7420746f20746865207a65726f2061646472657373\n        /* \"#utility.yul\":33868:33869   */\n      0x00\n        /* \"#utility.yul\":33860:33866   */\n      dup3\n        /* \"#utility.yul\":33856:33870   */\n      add\n        /* \"#utility.yul\":33849:33907   */\n      mstore\n        /* \"#utility.yul\":33838:33914   */\n      pop\n      jump\t// out\n        /* \"#utility.yul\":33920:34094   */\n    tag_557:\n        /* \"#utility.yul\":34060:34086   */\n      0x4552433732313a20696e76616c696420746f6b656e2049440000000000000000\n        /* \"#utility.yul\":34056:34057   */\n      0x00\n        /* \"#utility.yul\":34048:34054   */\n      dup3\n        /* \"#utility.yul\":34044:34058   */\n      add\n        /* \"#utility.yul\":34037:34087   */\n      mstore\n        /* \"#utility.yul\":34026:34094   */\n      pop\n      jump\t// out\n        /* \"#utility.yul\":34100:34320   */\n    tag_562:\n        /* \"#utility.yul\":34240:34274   */\n      0x4552433732313a20617070726f76616c20746f2063757272656e74206f776e65\n        /* \"#utility.yul\":34236:34237   */\n      0x00\n        /* \"#utility.yul\":34228:34234   */\n      dup3\n        /* \"#utility.yul\":34224:34238   */\n      add\n        /* \"#utility.yul\":34217:34275   */\n      mstore\n        /* \"#utility.yul\":34309:34312   */\n      0x7200000000000000000000000000000000000000000000000000000000000000\n        /* \"#utility.yul\":34304:34306   */\n      0x20\n        /* \"#utility.yul\":34296:34302   */\n      dup3\n        /* \"#utility.yul\":34292:34307   */\n      add\n        /* \"#utility.yul\":34285:34313   */\n      mstore\n        /* \"#utility.yul\":34206:34320   */\n      pop\n      jump\t// out\n        /* \"#utility.yul\":34326:34574   */\n    tag_567:\n        /* \"#utility.yul\":34466:34500   */\n      0x4552433732313a20617070726f76652063616c6c6572206973206e6f7420746f\n        /* \"#utility.yul\":34462:34463   */\n      0x00\n        /* \"#utility.yul\":34454:34460   */\n      dup3\n        /* \"#utility.yul\":34450:34464   */\n      add\n        /* \"#utility.yul\":34443:34501   */\n      mstore\n        /* \"#utility.yul\":34535:34566   */\n      0x6b656e206f776e6572206f7220617070726f76656420666f7220616c6c000000\n        /* \"#utility.yul\":34530:34532   */\n      0x20\n        /* \"#utility.yul\":34522:34528   */\n      dup3\n        /* \"#utility.yul\":34518:34533   */\n      add\n        /* \"#utility.yul\":34511:34567   */\n      mstore\n        /* \"#utility.yul\":34432:34574   */\n      pop\n      jump\t// out\n        /* \"#utility.yul\":34580:34702   */\n    tag_359:\n        /* \"#utility.yul\":34653:34677   */\n      tag_718\n        /* \"#utility.yul\":34671:34676   */\n      dup2\n        /* \"#utility.yul\":34653:34677   */\n      tag_453\n      jump\t// in\n    tag_718:\n        /* \"#utility.yul\":34646:34651   */\n      dup2\n        /* \"#utility.yul\":34643:34678   */\n      eq\n        /* \"#utility.yul\":34633:34635   */\n      tag_719\n      jumpi\n        /* \"#utility.yul\":34692:34693   */\n      0x00\n        /* \"#utility.yul\":34689:34690   */\n      dup1\n        /* \"#utility.yul\":34682:34694   */\n      revert\n        /* \"#utility.yul\":34633:34635   */\n    tag_719:\n        /* \"#utility.yul\":34623:34702   */\n      pop\n      jump\t// out\n        /* \"#utility.yul\":34708:34824   */\n    tag_371:\n        /* \"#utility.yul\":34778:34799   */\n      tag_721\n        /* \"#utility.yul\":34793:34798   */\n      dup2\n        /* \"#utility.yul\":34778:34799   */\n      tag_488\n      jump\t// in\n    tag_721:\n        /* \"#utility.yul\":34771:34776   */\n      dup2\n        /* \"#utility.yul\":34768:34800   */\n      eq\n        /* \"#utility.yul\":34758:34760   */\n      tag_722\n      jumpi\n        /* \"#utility.yul\":34814:34815   */\n      0x00\n        /* \"#utility.yul\":34811:34812   */\n      dup1\n        /* \"#utility.yul\":34804:34816   */\n      revert\n        /* \"#utility.yul\":34758:34760   */\n    tag_722:\n        /* \"#utility.yul\":34748:34824   */\n      pop\n      jump\t// out\n        /* \"#utility.yul\":34830:34950   */\n    tag_375:\n        /* \"#utility.yul\":34902:34925   */\n      tag_724\n        /* \"#utility.yul\":34919:34924   */\n      dup2\n        /* \"#utility.yul\":34902:34925   */\n      tag_673\n      jump\t// in\n    tag_724:\n        /* \"#utility.yul\":34895:34900   */\n      dup2\n        /* \"#utility.yul\":34892:34926   */\n      eq\n        /* \"#utility.yul\":34882:34884   */\n      tag_725\n      jumpi\n        /* \"#utility.yul\":34940:34941   */\n      0x00\n        /* \"#utility.yul\":34937:34938   */\n      dup1\n        /* \"#utility.yul\":34930:34942   */\n      revert\n        /* \"#utility.yul\":34882:34884   */\n    tag_725:\n        /* \"#utility.yul\":34872:34950   */\n      pop\n      jump\t// out\n        /* \"#utility.yul\":34956:35078   */\n    tag_397:\n        /* \"#utility.yul\":35029:35053   */\n      tag_727\n        /* \"#utility.yul\":35047:35052   */\n      dup2\n        /* \"#utility.yul\":35029:35053   */\n      tag_574\n      jump\t// in\n    tag_727:\n        /* \"#utility.yul\":35022:35027   */\n      dup2\n        /* \"#utility.yul\":35019:35054   */\n      eq\n        /* \"#utility.yul\":35009:35011   */\n      tag_728\n      jumpi\n        /* \"#utility.yul\":35068:35069   */\n      0x00\n        /* \"#utility.yul\":35065:35066   */\n      dup1\n        /* \"#utility.yul\":35058:35070   */\n      revert\n        /* \"#utility.yul\":35009:35011   */\n    tag_728:\n        /* \"#utility.yul\":34999:35078   */\n      pop\n      jump\t// out\n\n    auxdata: 0xa26469706673582212204df4c9349530b9bb9d9bbeee6e451d0340e5be3f77bac75496deed7874b42fc564736f6c63430008040033\n}\n",
				"bytecode": {
					"linkReferences": {},
					"object": "60806040523480156200001157600080fd5b506040516200324938038062003249833981810160405281019062000037919062000193565b81600090805190602001906200004f92919062000071565b5080600190805190602001906200006892919062000071565b50505062000376565b8280546200007f906200029b565b90600052602060002090601f016020900481019282620000a35760008555620000ef565b82601f10620000be57805160ff1916838001178555620000ef565b82800160010185558215620000ef579182015b82811115620000ee578251825591602001919060010190620000d1565b5b509050620000fe919062000102565b5090565b5b808211156200011d57600081600090555060010162000103565b5090565b60006200013862000132846200022f565b62000206565b9050828152602081018484840111156200015157600080fd5b6200015e84828562000265565b509392505050565b600082601f8301126200017857600080fd5b81516200018a84826020860162000121565b91505092915050565b60008060408385031215620001a757600080fd5b600083015167ffffffffffffffff811115620001c257600080fd5b620001d08582860162000166565b925050602083015167ffffffffffffffff811115620001ee57600080fd5b620001fc8582860162000166565b9150509250929050565b60006200021262000225565b9050620002208282620002d1565b919050565b6000604051905090565b600067ffffffffffffffff8211156200024d576200024c62000336565b5b620002588262000365565b9050602081019050919050565b60005b838110156200028557808201518184015260208101905062000268565b8381111562000295576000848401525b50505050565b60006002820490506001821680620002b457607f821691505b60208210811415620002cb57620002ca62000307565b5b50919050565b620002dc8262000365565b810181811067ffffffffffffffff82111715620002fe57620002fd62000336565b5b80604052505050565b7f4e487b7100000000000000000000000000000000000000000000000000000000600052602260045260246000fd5b7f4e487b7100000000000000000000000000000000000000000000000000000000600052604160045260246000fd5b6000601f19601f8301169050919050565b612ec380620003866000396000f3fe608060405234801561001057600080fd5b50600436106101005760003560e01c80636352211e11610097578063b88d4fde11610066578063b88d4fde146102bd578063c87b56dd146102d9578063e985e9c514610309578063ee48cda21461033957610100565b80636352211e1461022357806370a082311461025357806395d89b4114610283578063a22cb465146102a157610100565b806323b872dd116100d357806323b872dd1461019f5780633ef85390146101bb57806342842e0e146101d757806352e04825146101f357610100565b806301ffc9a71461010557806306fdde0314610135578063081812fc14610153578063095ea7b314610183575b600080fd5b61011f600480360381019061011a9190612036565b610369565b60405161012c91906124db565b60405180910390f35b61013d61044b565b60405161014a91906124f6565b60405180910390f35b61016d60048036038101906101689190612088565b6104dd565b60405161017a9190612474565b60405180910390f35b61019d60048036038101906101989190611ffa565b610523565b005b6101b960048036038101906101b49190611e4d565b61063b565b005b6101d560048036038101906101d09190611f53565b61069b565b005b6101f160048036038101906101ec9190611e4d565b6106b8565b005b61020d60048036038101906102089190612088565b6106d8565b60405161021a9190612678565b60405180910390f35b61023d60048036038101906102389190612088565b6107f1565b60405161024a9190612474565b60405180910390f35b61026d60048036038101906102689190611de8565b6108a3565b60405161027a919061269a565b60405180910390f35b61028b61095b565b60405161029891906124f6565b60405180910390f35b6102bb60048036038101906102b69190611f17565b6109ed565b005b6102d760048036038101906102d29190611e9c565b610a03565b005b6102f360048036038101906102ee9190612088565b610a65565b60405161030091906124f6565b60405180910390f35b610323600480360381019061031e9190611e11565b610acd565b60405161033091906124db565b60405180910390f35b610353600480360381019061034e9190612088565b610b61565b604051610360919061269a565b60405180910390f35b60007f80ac58cd000000000000000000000000000000000000000000000000000000007bffffffffffffffffffffffffffffffffffffffffffffffffffffffff1916827bffffffffffffffffffffffffffffffffffffffffffffffffffffffff1916148061043457507f5b5e139f000000000000000000000000000000000000000000000000000000007bffffffffffffffffffffffffffffffffffffffffffffffffffffffff1916827bffffffffffffffffffffffffffffffffffffffffffffffffffffffff1916145b80610444575061044382610b83565b5b9050919050565b60606000805461045a906129ba565b80601f0160208091040260200160405190810160405280929190818152602001828054610486906129ba565b80156104d35780601f106104a8576101008083540402835291602001916104d3565b820191906000526020600020905b8154815290600101906020018083116104b657829003601f168201915b5050505050905090565b60006104e882610bed565b6006600083815260200190815260200160002060009054906101000a900473ffffffffffffffffffffffffffffffffffffffff169050919050565b600061052e826107f1565b90508073ffffffffffffffffffffffffffffffffffffffff168373ffffffffffffffffffffffffffffffffffffffff16141561059f576040517f08c379a000000000000000000000000000000000000000000000000000000000815260040161059690612638565b60405180910390fd5b8073ffffffffffffffffffffffffffffffffffffffff166105be610c38565b73ffffffffffffffffffffffffffffffffffffffff1614806105ed57506105ec816105e7610c38565b610acd565b5b61062c576040517f08c379a000000000000000000000000000000000000000000000000000000000815260040161062390612658565b60405180910390fd5b6106368383610c40565b505050565b61064c610646610c38565b82610cf9565b61068b576040517f08c379a000000000000000000000000000000000000000000000000000000000815260040161068290612518565b60405180910390fd5b610696838383610d8e565b505050565b6106a785858585611084565b6106b182826110a6565b5050505050565b6106d383838360405180602001604052806000815250610a03565b505050565b6106e0611973565b6000600360008481526020019081526020016000206040518060400160405290816000820180548060200260200160405190810160405280929190818152602001828054801561078557602002820191906000526020600020905b8160009054906101000a900473ffffffffffffffffffffffffffffffffffffffff1673ffffffffffffffffffffffffffffffffffffffff168152602001906001019080831161073b575b50505050508152602001600182018054806020026020016040519081016040528092919081815260200182805480156107dd57602002820191906000526020600020905b8154815260200190600101908083116107c9575b505050505081525050905080915050919050565b6000806002600084815260200190815260200160002060009054906101000a900473ffffffffffffffffffffffffffffffffffffffff169050600073ffffffffffffffffffffffffffffffffffffffff168173ffffffffffffffffffffffffffffffffffffffff16141561089a576040517f08c379a000000000000000000000000000000000000000000000000000000000815260040161089190612618565b60405180910390fd5b80915050919050565b60008073ffffffffffffffffffffffffffffffffffffffff168273ffffffffffffffffffffffffffffffffffffffff161415610914576040517f08c379a000000000000000000000000000000000000000000000000000000000815260040161090b906125d8565b60405180910390fd5b600560008373ffffffffffffffffffffffffffffffffffffffff1673ffffffffffffffffffffffffffffffffffffffff168152602001908152602001600020549050919050565b60606001805461096a906129ba565b80601f0160208091040260200160405190810160405280929190818152602001828054610996906129ba565b80156109e35780601f106109b8576101008083540402835291602001916109e3565b820191906000526020600020905b8154815290600101906020018083116109c657829003601f168201915b5050505050905090565b6109ff6109f8610c38565b83836110d2565b5050565b610a14610a0e610c38565b83610cf9565b610a53576040517f08c379a0000000000000000000000000000000000000000000000000000000008152600401610a4a90612518565b60405180910390fd5b610a5f8484848461123f565b50505050565b6060610a7082610bed565b6000610a7a61129b565b90506000815111610a9a5760405180602001604052806000815250610ac5565b80610aa4846112b2565b604051602001610ab5929190612450565b6040516020818303038152906040525b915050919050565b6000600760008473ffffffffffffffffffffffffffffffffffffffff1673ffffffffffffffffffffffffffffffffffffffff16815260200190815260200160002060008373ffffffffffffffffffffffffffffffffffffffff1673ffffffffffffffffffffffffffffffffffffffff16815260200190815260200160002060009054906101000a900460ff16905092915050565b6000806004600084815260200190815260200160002054905080915050919050565b60007f01ffc9a7000000000000000000000000000000000000000000000000000000007bffffffffffffffffffffffffffffffffffffffffffffffffffffffff1916827bffffffffffffffffffffffffffffffffffffffffffffffffffffffff1916149050919050565b610bf68161145f565b610c35576040517f08c379a0000000000000000000000000000000000000000000000000000000008152600401610c2c90612618565b60405180910390fd5b50565b600033905090565b816006600083815260200190815260200160002060006101000a81548173ffffffffffffffffffffffffffffffffffffffff021916908373ffffffffffffffffffffffffffffffffffffffff160217905550808273ffffffffffffffffffffffffffffffffffffffff16610cb3836107f1565b73ffffffffffffffffffffffffffffffffffffffff167f8c5be1e5ebec7d5bd14f71427d1e84f3dd0314c0f7b2291e5b200ac8c7c3b92560405160405180910390a45050565b600080610d05836107f1565b90508073ffffffffffffffffffffffffffffffffffffffff168473ffffffffffffffffffffffffffffffffffffffff161480610d475750610d468185610acd565b5b80610d8557508373ffffffffffffffffffffffffffffffffffffffff16610d6d846104dd565b73ffffffffffffffffffffffffffffffffffffffff16145b91505092915050565b8273ffffffffffffffffffffffffffffffffffffffff16610dae826107f1565b73ffffffffffffffffffffffffffffffffffffffff1614610e04576040517f08c379a0000000000000000000000000000000000000000000000000000000008152600401610dfb90612558565b60405180910390fd5b600073ffffffffffffffffffffffffffffffffffffffff168273ffffffffffffffffffffffffffffffffffffffff161415610e74576040517f08c379a0000000000000000000000000000000000000000000000000000000008152600401610e6b90612598565b60405180910390fd5b610e7f8383836114cb565b8273ffffffffffffffffffffffffffffffffffffffff16610e9f826107f1565b73ffffffffffffffffffffffffffffffffffffffff1614610ef5576040517f08c379a0000000000000000000000000000000000000000000000000000000008152600401610eec90612558565b60405180910390fd5b6006600082815260200190815260200160002060006101000a81549073ffffffffffffffffffffffffffffffffffffffff02191690556001600560008573ffffffffffffffffffffffffffffffffffffffff1673ffffffffffffffffffffffffffffffffffffffff168152602001908152602001600020600082825403925050819055506001600560008473ffffffffffffffffffffffffffffffffffffffff1673ffffffffffffffffffffffffffffffffffffffff16815260200190815260200160002060008282540192505081905550816002600083815260200190815260200160002060006101000a81548173ffffffffffffffffffffffffffffffffffffffff021916908373ffffffffffffffffffffffffffffffffffffffff160217905550808273ffffffffffffffffffffffffffffffffffffffff168473ffffffffffffffffffffffffffffffffffffffff167fddf252ad1be2c89b69c2b068fc378daa952ba7f163c4a11628f55a4df523b3ef60405160405180910390a461107f8383836114d0565b505050565b6110a084848484604051806020016040528060008152506114d5565b50505050565b806008600084815260200190815260200160002090805190602001906110cd92919061198d565b505050565b8173ffffffffffffffffffffffffffffffffffffffff168373ffffffffffffffffffffffffffffffffffffffff161415611141576040517f08c379a0000000000000000000000000000000000000000000000000000000008152600401611138906125b8565b60405180910390fd5b80600760008573ffffffffffffffffffffffffffffffffffffffff1673ffffffffffffffffffffffffffffffffffffffff16815260200190815260200160002060008473ffffffffffffffffffffffffffffffffffffffff1673ffffffffffffffffffffffffffffffffffffffff16815260200190815260200160002060006101000a81548160ff0219169083151502179055508173ffffffffffffffffffffffffffffffffffffffff168373ffffffffffffffffffffffffffffffffffffffff167f17307eab39ab6107e8899845ad3d59bd9653f200f220920489ca2b5937696c318360405161123291906124db565b60405180910390a3505050565b61124a848484610d8e565b61125684848484611534565b611295576040517f08c379a000000000000000000000000000000000000000000000000000000000815260040161128c90612538565b60405180910390fd5b50505050565b606060405180602001604052806000815250905090565b606060008214156112fa576040518060400160405280600181526020017f3000000000000000000000000000000000000000000000000000000000000000815250905061145a565b600082905060005b6000821461132c57808061131590612a1d565b915050600a82611325919061289f565b9150611302565b60008167ffffffffffffffff81111561136e577f4e487b7100000000000000000000000000000000000000000000000000000000600052604160045260246000fd5b6040519080825280601f01601f1916602001820160405280156113a05781602001600182028036833780820191505090505b5090505b60008514611453576001826113b991906128d0565b9150600a856113c89190612a66565b60306113d49190612849565b60f81b818381518110611410577f4e487b7100000000000000000000000000000000000000000000000000000000600052603260045260246000fd5b60200101907effffffffffffffffffffffffffffffffffffffffffffffffffffffffffffff1916908160001a905350600a8561144c919061289f565b94506113a4565b8093505050505b919050565b60008073ffffffffffffffffffffffffffffffffffffffff166002600084815260200190815260200160002060009054906101000a900473ffffffffffffffffffffffffffffffffffffffff1673ffffffffffffffffffffffffffffffffffffffff1614159050919050565b505050565b505050565b6114e1858585856116cb565b6114ee6000868484611534565b61152d576040517f08c379a000000000000000000000000000000000000000000000000000000000815260040161152490612538565b60405180910390fd5b5050505050565b60006115558473ffffffffffffffffffffffffffffffffffffffff16611950565b156116be578373ffffffffffffffffffffffffffffffffffffffff1663150b7a0261157e610c38565b8786866040518563ffffffff1660e01b81526004016115a0949392919061248f565b602060405180830381600087803b1580156115ba57600080fd5b505af19250505080156115eb57506040513d601f19601f820116820180604052508101906115e8919061205f565b60015b61166e573d806000811461161b576040519150601f19603f3d011682016040523d82523d6000602084013e611620565b606091505b50600081511415611666576040517f08c379a000000000000000000000000000000000000000000000000000000000815260040161165d90612538565b60405180910390fd5b805181602001fd5b63150b7a0260e01b7bffffffffffffffffffffffffffffffffffffffffffffffffffffffff1916817bffffffffffffffffffffffffffffffffffffffffffffffffffffffff1916149150506116c3565b600190505b949350505050565b600073ffffffffffffffffffffffffffffffffffffffff168473ffffffffffffffffffffffffffffffffffffffff16141561173b576040517f08c379a0000000000000000000000000000000000000000000000000000000008152600401611732906125f8565b60405180910390fd5b6117448161145f565b15611784576040517f08c379a000000000000000000000000000000000000000000000000000000000815260040161177b90612578565b60405180910390fd5b611790600085836114cb565b6117998161145f565b156117d9576040517f08c379a00000000000000000000000000000000000000000000000000000000081526004016117d090612578565b60405180910390fd5b6001600560008673ffffffffffffffffffffffffffffffffffffffff1673ffffffffffffffffffffffffffffffffffffffff16815260200190815260200160002060008282540192505081905550836002600083815260200190815260200160002060006101000a81548173ffffffffffffffffffffffffffffffffffffffff021916908373ffffffffffffffffffffffffffffffffffffffff160217905550826003600083815260200190815260200160002060008201518160000190805190602001906118a9929190611a13565b5060208201518160010190805190602001906118c6929190611a9d565b50905050816004600083815260200190815260200160002081905550808473ffffffffffffffffffffffffffffffffffffffff16600073ffffffffffffffffffffffffffffffffffffffff167fddf252ad1be2c89b69c2b068fc378daa952ba7f163c4a11628f55a4df523b3ef60405160405180910390a461194a600085836114d0565b50505050565b6000808273ffffffffffffffffffffffffffffffffffffffff163b119050919050565b604051806040016040528060608152602001606081525090565b828054611999906129ba565b90600052602060002090601f0160209004810192826119bb5760008555611a02565b82601f106119d457805160ff1916838001178555611a02565b82800160010185558215611a02579182015b82811115611a015782518255916020019190600101906119e6565b5b509050611a0f9190611aea565b5090565b828054828255906000526020600020908101928215611a8c579160200282015b82811115611a8b5782518260006101000a81548173ffffffffffffffffffffffffffffffffffffffff021916908373ffffffffffffffffffffffffffffffffffffffff16021790555091602001919060010190611a33565b5b509050611a999190611aea565b5090565b828054828255906000526020600020908101928215611ad9579160200282015b82811115611ad8578251825591602001919060010190611abd565b5b509050611ae69190611aea565b5090565b5b80821115611b03576000816000905550600101611aeb565b5090565b6000611b1a611b15846126da565b6126b5565b90508083825260208201905082856020860282011115611b3957600080fd5b60005b85811015611b695781611b4f8882611c5b565b845260208401935060208301925050600181019050611b3c565b5050509392505050565b6000611b86611b8184612706565b6126b5565b90508083825260208201905082856020860282011115611ba557600080fd5b60005b85811015611bd55781611bbb8882611dd3565b845260208401935060208301925050600181019050611ba8565b5050509392505050565b6000611bf2611bed84612732565b6126b5565b905082815260208101848484011115611c0a57600080fd5b611c15848285612978565b509392505050565b6000611c30611c2b84612763565b6126b5565b905082815260208101848484011115611c4857600080fd5b611c53848285612978565b509392505050565b600081359050611c6a81612e31565b92915050565b600082601f830112611c8157600080fd5b8135611c91848260208601611b07565b91505092915050565b600082601f830112611cab57600080fd5b8135611cbb848260208601611b73565b91505092915050565b600081359050611cd381612e48565b92915050565b600081359050611ce881612e5f565b92915050565b600081519050611cfd81612e5f565b92915050565b600082601f830112611d1457600080fd5b8135611d24848260208601611bdf565b91505092915050565b600082601f830112611d3e57600080fd5b8135611d4e848260208601611c1d565b91505092915050565b600060408284031215611d6957600080fd5b611d7360406126b5565b9050600082013567ffffffffffffffff811115611d8f57600080fd5b611d9b84828501611c70565b600083015250602082013567ffffffffffffffff811115611dbb57600080fd5b611dc784828501611c9a565b60208301525092915050565b600081359050611de281612e76565b92915050565b600060208284031215611dfa57600080fd5b6000611e0884828501611c5b565b91505092915050565b60008060408385031215611e2457600080fd5b6000611e3285828601611c5b565b9250506020611e4385828601611c5b565b9150509250929050565b600080600060608486031215611e6257600080fd5b6000611e7086828701611c5b565b9350506020611e8186828701611c5b565b9250506040611e9286828701611dd3565b9150509250925092565b60008060008060808587031215611eb257600080fd5b6000611ec087828801611c5b565b9450506020611ed187828801611c5b565b9350506040611ee287828801611dd3565b925050606085013567ffffffffffffffff811115611eff57600080fd5b611f0b87828801611d03565b91505092959194509250565b60008060408385031215611f2a57600080fd5b6000611f3885828601611c5b565b9250506020611f4985828601611cc4565b9150509250929050565b600080600080600060a08688031215611f6b57600080fd5b6000611f7988828901611c5b565b955050602086013567ffffffffffffffff811115611f9657600080fd5b611fa288828901611d57565b9450506040611fb388828901611dd3565b9350506060611fc488828901611dd3565b925050608086013567ffffffffffffffff811115611fe157600080fd5b611fed88828901611d2d565b9150509295509295909350565b6000806040838503121561200d57600080fd5b600061201b85828601611c5b565b925050602061202c85828601611dd3565b9150509250929050565b60006020828403121561204857600080fd5b600061205684828501611cd9565b91505092915050565b60006020828403121561207157600080fd5b600061207f84828501611cee565b91505092915050565b60006020828403121561209a57600080fd5b60006120a884828501611dd3565b91505092915050565b60006120bd83836120e1565b60208301905092915050565b60006120d58383612432565b60208301905092915050565b6120ea81612904565b82525050565b6120f981612904565b82525050565b600061210a826127b4565b61211481856127fa565b935061211f83612794565b8060005b8381101561215057815161213788826120b1565b9750612142836127e0565b925050600181019050612123565b5085935050505092915050565b6000612168826127bf565b612172818561280b565b935061217d836127a4565b8060005b838110156121ae57815161219588826120c9565b97506121a0836127ed565b925050600181019050612181565b5085935050505092915050565b6121c481612916565b82525050565b60006121d5826127ca565b6121df818561281c565b93506121ef818560208601612987565b6121f881612b53565b840191505092915050565b600061220e826127d5565b612218818561282d565b9350612228818560208601612987565b61223181612b53565b840191505092915050565b6000612247826127d5565b612251818561283e565b9350612261818560208601612987565b80840191505092915050565b600061227a602d8361282d565b915061228582612b64565b604082019050919050565b600061229d60328361282d565b91506122a882612bb3565b604082019050919050565b60006122c060258361282d565b91506122cb82612c02565b604082019050919050565b60006122e3601c8361282d565b91506122ee82612c51565b602082019050919050565b600061230660248361282d565b915061231182612c7a565b604082019050919050565b600061232960198361282d565b915061233482612cc9565b602082019050919050565b600061234c60298361282d565b915061235782612cf2565b604082019050919050565b600061236f60208361282d565b915061237a82612d41565b602082019050919050565b600061239260188361282d565b915061239d82612d6a565b602082019050919050565b60006123b560218361282d565b91506123c082612d93565b604082019050919050565b60006123d8603d8361282d565b91506123e382612de2565b604082019050919050565b6000604083016000830151848203600086015261240b82826120ff565b91505060208301518482036020860152612425828261215d565b9150508091505092915050565b61243b8161296e565b82525050565b61244a8161296e565b82525050565b600061245c828561223c565b9150612468828461223c565b91508190509392505050565b600060208201905061248960008301846120f0565b92915050565b60006080820190506124a460008301876120f0565b6124b160208301866120f0565b6124be6040830185612441565b81810360608301526124d081846121ca565b905095945050505050565b60006020820190506124f060008301846121bb565b92915050565b600060208201905081810360008301526125108184612203565b905092915050565b600060208201905081810360008301526125318161226d565b9050919050565b6000602082019050818103600083015261255181612290565b9050919050565b60006020820190508181036000830152612571816122b3565b9050919050565b60006020820190508181036000830152612591816122d6565b9050919050565b600060208201905081810360008301526125b1816122f9565b9050919050565b600060208201905081810360008301526125d18161231c565b9050919050565b600060208201905081810360008301526125f18161233f565b9050919050565b6000602082019050818103600083015261261181612362565b9050919050565b6000602082019050818103600083015261263181612385565b9050919050565b60006020820190508181036000830152612651816123a8565b9050919050565b60006020820190508181036000830152612671816123cb565b9050919050565b6000602082019050818103600083015261269281846123ee565b905092915050565b60006020820190506126af6000830184612441565b92915050565b60006126bf6126d0565b90506126cb82826129ec565b919050565b6000604051905090565b600067ffffffffffffffff8211156126f5576126f4612b24565b5b602082029050602081019050919050565b600067ffffffffffffffff82111561272157612720612b24565b5b602082029050602081019050919050565b600067ffffffffffffffff82111561274d5761274c612b24565b5b61275682612b53565b9050602081019050919050565b600067ffffffffffffffff82111561277e5761277d612b24565b5b61278782612b53565b9050602081019050919050565b6000819050602082019050919050565b6000819050602082019050919050565b600081519050919050565b600081519050919050565b600081519050919050565b600081519050919050565b6000602082019050919050565b6000602082019050919050565b600082825260208201905092915050565b600082825260208201905092915050565b600082825260208201905092915050565b600082825260208201905092915050565b600081905092915050565b60006128548261296e565b915061285f8361296e565b9250827fffffffffffffffffffffffffffffffffffffffffffffffffffffffffffffffff0382111561289457612893612a97565b5b828201905092915050565b60006128aa8261296e565b91506128b58361296e565b9250826128c5576128c4612ac6565b5b828204905092915050565b60006128db8261296e565b91506128e68361296e565b9250828210156128f9576128f8612a97565b5b828203905092915050565b600061290f8261294e565b9050919050565b60008115159050919050565b60007fffffffff0000000000000000000000000000000000000000000000000000000082169050919050565b600073ffffffffffffffffffffffffffffffffffffffff82169050919050565b6000819050919050565b82818337600083830152505050565b60005b838110156129a557808201518184015260208101905061298a565b838111156129b4576000848401525b50505050565b600060028204905060018216806129d257607f821691505b602082108114156129e6576129e5612af5565b5b50919050565b6129f582612b53565b810181811067ffffffffffffffff82111715612a1457612a13612b24565b5b80604052505050565b6000612a288261296e565b91507fffffffffffffffffffffffffffffffffffffffffffffffffffffffffffffffff821415612a5b57612a5a612a97565b5b600182019050919050565b6000612a718261296e565b9150612a7c8361296e565b925082612a8c57612a8b612ac6565b5b828206905092915050565b7f4e487b7100000000000000000000000000000000000000000000000000000000600052601160045260246000fd5b7f4e487b7100000000000000000000000000000000000000000000000000000000600052601260045260246000fd5b7f4e487b7100000000000000000000000000000000000000000000000000000000600052602260045260246000fd5b7f4e487b7100000000000000000000000000000000000000000000000000000000600052604160045260246000fd5b6000601f19601f8301169050919050565b7f4552433732313a2063616c6c6572206973206e6f7420746f6b656e206f776e6560008201527f72206f7220617070726f76656400000000000000000000000000000000000000602082015250565b7f4552433732313a207472616e7366657220746f206e6f6e20455243373231526560008201527f63656976657220696d706c656d656e7465720000000000000000000000000000602082015250565b7f4552433732313a207472616e736665722066726f6d20696e636f72726563742060008201527f6f776e6572000000000000000000000000000000000000000000000000000000602082015250565b7f4552433732313a20746f6b656e20616c7265616479206d696e74656400000000600082015250565b7f4552433732313a207472616e7366657220746f20746865207a65726f2061646460008201527f7265737300000000000000000000000000000000000000000000000000000000602082015250565b7f4552433732313a20617070726f766520746f2063616c6c657200000000000000600082015250565b7f4552433732313a2061646472657373207a65726f206973206e6f74206120766160008201527f6c6964206f776e65720000000000000000000000000000000000000000000000602082015250565b7f4552433732313a206d696e7420746f20746865207a65726f2061646472657373600082015250565b7f4552433732313a20696e76616c696420746f6b656e2049440000000000000000600082015250565b7f4552433732313a20617070726f76616c20746f2063757272656e74206f776e6560008201527f7200000000000000000000000000000000000000000000000000000000000000602082015250565b7f4552433732313a20617070726f76652063616c6c6572206973206e6f7420746f60008201527f6b656e206f776e6572206f7220617070726f76656420666f7220616c6c000000602082015250565b612e3a81612904565b8114612e4557600080fd5b50565b612e5181612916565b8114612e5c57600080fd5b50565b612e6881612922565b8114612e7357600080fd5b50565b612e7f8161296e565b8114612e8a57600080fd5b5056fea26469706673582212204df4c9349530b9bb9d9bbeee6e451d0340e5be3f77bac75496deed7874b42fc564736f6c63430008040033",
					"opcodes": "PUSH1 0x80 PUSH1 0x40 MSTORE CALLVALUE DUP1 ISZERO PUSH3 0x11 JUMPI PUSH1 0x0 DUP1 REVERT JUMPDEST POP PUSH1 0x40 MLOAD PUSH3 0x3249 CODESIZE SUB DUP1 PUSH3 0x3249 DUP4 CODECOPY DUP2 DUP2 ADD PUSH1 0x40 MSTORE DUP2 ADD SWAP1 PUSH3 0x37 SWAP2 SWAP1 PUSH3 0x193 JUMP JUMPDEST DUP2 PUSH1 0x0 SWAP1 DUP1 MLOAD SWAP1 PUSH1 0x20 ADD SWAP1 PUSH3 0x4F SWAP3 SWAP2 SWAP1 PUSH3 0x71 JUMP JUMPDEST POP DUP1 PUSH1 0x1 SWAP1 DUP1 MLOAD SWAP1 PUSH1 0x20 ADD SWAP1 PUSH3 0x68 SWAP3 SWAP2 SWAP1 PUSH3 0x71 JUMP JUMPDEST POP POP POP PUSH3 0x376 JUMP JUMPDEST DUP3 DUP1 SLOAD PUSH3 0x7F SWAP1 PUSH3 0x29B JUMP JUMPDEST SWAP1 PUSH1 0x0 MSTORE PUSH1 0x20 PUSH1 0x0 KECCAK256 SWAP1 PUSH1 0x1F ADD PUSH1 0x20 SWAP1 DIV DUP2 ADD SWAP3 DUP3 PUSH3 0xA3 JUMPI PUSH1 0x0 DUP6 SSTORE PUSH3 0xEF JUMP JUMPDEST DUP3 PUSH1 0x1F LT PUSH3 0xBE JUMPI DUP1 MLOAD PUSH1 0xFF NOT AND DUP4 DUP1 ADD OR DUP6 SSTORE PUSH3 0xEF JUMP JUMPDEST DUP3 DUP1 ADD PUSH1 0x1 ADD DUP6 SSTORE DUP3 ISZERO PUSH3 0xEF JUMPI SWAP2 DUP3 ADD JUMPDEST DUP3 DUP2 GT ISZERO PUSH3 0xEE JUMPI DUP3 MLOAD DUP3 SSTORE SWAP2 PUSH1 0x20 ADD SWAP2 SWAP1 PUSH1 0x1 ADD SWAP1 PUSH3 0xD1 JUMP JUMPDEST JUMPDEST POP SWAP1 POP PUSH3 0xFE SWAP2 SWAP1 PUSH3 0x102 JUMP JUMPDEST POP SWAP1 JUMP JUMPDEST JUMPDEST DUP1 DUP3 GT ISZERO PUSH3 0x11D JUMPI PUSH1 0x0 DUP2 PUSH1 0x0 SWAP1 SSTORE POP PUSH1 0x1 ADD PUSH3 0x103 JUMP JUMPDEST POP SWAP1 JUMP JUMPDEST PUSH1 0x0 PUSH3 0x138 PUSH3 0x132 DUP5 PUSH3 0x22F JUMP JUMPDEST PUSH3 0x206 JUMP JUMPDEST SWAP1 POP DUP3 DUP2 MSTORE PUSH1 0x20 DUP2 ADD DUP5 DUP5 DUP5 ADD GT ISZERO PUSH3 0x151 JUMPI PUSH1 0x0 DUP1 REVERT JUMPDEST PUSH3 0x15E DUP5 DUP3 DUP6 PUSH3 0x265 JUMP JUMPDEST POP SWAP4 SWAP3 POP POP POP JUMP JUMPDEST PUSH1 0x0 DUP3 PUSH1 0x1F DUP4 ADD SLT PUSH3 0x178 JUMPI PUSH1 0x0 DUP1 REVERT JUMPDEST DUP2 MLOAD PUSH3 0x18A DUP5 DUP3 PUSH1 0x20 DUP7 ADD PUSH3 0x121 JUMP JUMPDEST SWAP2 POP POP SWAP3 SWAP2 POP POP JUMP JUMPDEST PUSH1 0x0 DUP1 PUSH1 0x40 DUP4 DUP6 SUB SLT ISZERO PUSH3 0x1A7 JUMPI PUSH1 0x0 DUP1 REVERT JUMPDEST PUSH1 0x0 DUP4 ADD MLOAD PUSH8 0xFFFFFFFFFFFFFFFF DUP2 GT ISZERO PUSH3 0x1C2 JUMPI PUSH1 0x0 DUP1 REVERT JUMPDEST PUSH3 0x1D0 DUP6 DUP3 DUP7 ADD PUSH3 0x166 JUMP JUMPDEST SWAP3 POP POP PUSH1 0x20 DUP4 ADD MLOAD PUSH8 0xFFFFFFFFFFFFFFFF DUP2 GT ISZERO PUSH3 0x1EE JUMPI PUSH1 0x0 DUP1 REVERT JUMPDEST PUSH3 0x1FC DUP6 DUP3 DUP7 ADD PUSH3 0x166 JUMP JUMPDEST SWAP2 POP POP SWAP3 POP SWAP3 SWAP1 POP JUMP JUMPDEST PUSH1 0x0 PUSH3 0x212 PUSH3 0x225 JUMP JUMPDEST SWAP1 POP PUSH3 0x220 DUP3 DUP3 PUSH3 0x2D1 JUMP JUMPDEST SWAP2 SWAP1 POP JUMP JUMPDEST PUSH1 0x0 PUSH1 0x40 MLOAD SWAP1 POP SWAP1 JUMP JUMPDEST PUSH1 0x0 PUSH8 0xFFFFFFFFFFFFFFFF DUP3 GT ISZERO PUSH3 0x24D JUMPI PUSH3 0x24C PUSH3 0x336 JUMP JUMPDEST JUMPDEST PUSH3 0x258 DUP3 PUSH3 0x365 JUMP JUMPDEST SWAP1 POP PUSH1 0x20 DUP2 ADD SWAP1 POP SWAP2 SWAP1 POP JUMP JUMPDEST PUSH1 0x0 JUMPDEST DUP4 DUP2 LT ISZERO PUSH3 0x285 JUMPI DUP1 DUP3 ADD MLOAD DUP2 DUP5 ADD MSTORE PUSH1 0x20 DUP2 ADD SWAP1 POP PUSH3 0x268 JUMP JUMPDEST DUP4 DUP2 GT ISZERO PUSH3 0x295 JUMPI PUSH1 0x0 DUP5 DUP5 ADD MSTORE JUMPDEST POP POP POP POP JUMP JUMPDEST PUSH1 0x0 PUSH1 0x2 DUP3 DIV SWAP1 POP PUSH1 0x1 DUP3 AND DUP1 PUSH3 0x2B4 JUMPI PUSH1 0x7F DUP3 AND SWAP2 POP JUMPDEST PUSH1 0x20 DUP3 LT DUP2 EQ ISZERO PUSH3 0x2CB JUMPI PUSH3 0x2CA PUSH3 0x307 JUMP JUMPDEST JUMPDEST POP SWAP2 SWAP1 POP JUMP JUMPDEST PUSH3 0x2DC DUP3 PUSH3 0x365 JUMP JUMPDEST DUP2 ADD DUP2 DUP2 LT PUSH8 0xFFFFFFFFFFFFFFFF DUP3 GT OR ISZERO PUSH3 0x2FE JUMPI PUSH3 0x2FD PUSH3 0x336 JUMP JUMPDEST JUMPDEST DUP1 PUSH1 0x40 MSTORE POP POP POP JUMP JUMPDEST PUSH32 0x4E487B7100000000000000000000000000000000000000000000000000000000 PUSH1 0x0 MSTORE PUSH1 0x22 PUSH1 0x4 MSTORE PUSH1 0x24 PUSH1 0x0 REVERT JUMPDEST PUSH32 0x4E487B7100000000000000000000000000000000000000000000000000000000 PUSH1 0x0 MSTORE PUSH1 0x41 PUSH1 0x4 MSTORE PUSH1 0x24 PUSH1 0x0 REVERT JUMPDEST PUSH1 0x0 PUSH1 0x1F NOT PUSH1 0x1F DUP4 ADD AND SWAP1 POP SWAP2 SWAP1 POP JUMP JUMPDEST PUSH2 0x2EC3 DUP1 PUSH3 0x386 PUSH1 0x0 CODECOPY PUSH1 0x0 RETURN INVALID PUSH1 0x80 PUSH1 0x40 MSTORE CALLVALUE DUP1 ISZERO PUSH2 0x10 JUMPI PUSH1 0x0 DUP1 REVERT JUMPDEST POP PUSH1 0x4 CALLDATASIZE LT PUSH2 0x100 JUMPI PUSH1 0x0 CALLDATALOAD PUSH1 0xE0 SHR DUP1 PUSH4 0x6352211E GT PUSH2 0x97 JUMPI DUP1 PUSH4 0xB88D4FDE GT PUSH2 0x66 JUMPI DUP1 PUSH4 0xB88D4FDE EQ PUSH2 0x2BD JUMPI DUP1 PUSH4 0xC87B56DD EQ PUSH2 0x2D9 JUMPI DUP1 PUSH4 0xE985E9C5 EQ PUSH2 0x309 JUMPI DUP1 PUSH4 0xEE48CDA2 EQ PUSH2 0x339 JUMPI PUSH2 0x100 JUMP JUMPDEST DUP1 PUSH4 0x6352211E EQ PUSH2 0x223 JUMPI DUP1 PUSH4 0x70A08231 EQ PUSH2 0x253 JUMPI DUP1 PUSH4 0x95D89B41 EQ PUSH2 0x283 JUMPI DUP1 PUSH4 0xA22CB465 EQ PUSH2 0x2A1 JUMPI PUSH2 0x100 JUMP JUMPDEST DUP1 PUSH4 0x23B872DD GT PUSH2 0xD3 JUMPI DUP1 PUSH4 0x23B872DD EQ PUSH2 0x19F JUMPI DUP1 PUSH4 0x3EF85390 EQ PUSH2 0x1BB JUMPI DUP1 PUSH4 0x42842E0E EQ PUSH2 0x1D7 JUMPI DUP1 PUSH4 0x52E04825 EQ PUSH2 0x1F3 JUMPI PUSH2 0x100 JUMP JUMPDEST DUP1 PUSH4 0x1FFC9A7 EQ PUSH2 0x105 JUMPI DUP1 PUSH4 0x6FDDE03 EQ PUSH2 0x135 JUMPI DUP1 PUSH4 0x81812FC EQ PUSH2 0x153 JUMPI DUP1 PUSH4 0x95EA7B3 EQ PUSH2 0x183 JUMPI JUMPDEST PUSH1 0x0 DUP1 REVERT JUMPDEST PUSH2 0x11F PUSH1 0x4 DUP1 CALLDATASIZE SUB DUP2 ADD SWAP1 PUSH2 0x11A SWAP2 SWAP1 PUSH2 0x2036 JUMP JUMPDEST PUSH2 0x369 JUMP JUMPDEST PUSH1 0x40 MLOAD PUSH2 0x12C SWAP2 SWAP1 PUSH2 0x24DB JUMP JUMPDEST PUSH1 0x40 MLOAD DUP1 SWAP2 SUB SWAP1 RETURN JUMPDEST PUSH2 0x13D PUSH2 0x44B JUMP JUMPDEST PUSH1 0x40 MLOAD PUSH2 0x14A SWAP2 SWAP1 PUSH2 0x24F6 JUMP JUMPDEST PUSH1 0x40 MLOAD DUP1 SWAP2 SUB SWAP1 RETURN JUMPDEST PUSH2 0x16D PUSH1 0x4 DUP1 CALLDATASIZE SUB DUP2 ADD SWAP1 PUSH2 0x168 SWAP2 SWAP1 PUSH2 0x2088 JUMP JUMPDEST PUSH2 0x4DD JUMP JUMPDEST PUSH1 0x40 MLOAD PUSH2 0x17A SWAP2 SWAP1 PUSH2 0x2474 JUMP JUMPDEST PUSH1 0x40 MLOAD DUP1 SWAP2 SUB SWAP1 RETURN JUMPDEST PUSH2 0x19D PUSH1 0x4 DUP1 CALLDATASIZE SUB DUP2 ADD SWAP1 PUSH2 0x198 SWAP2 SWAP1 PUSH2 0x1FFA JUMP JUMPDEST PUSH2 0x523 JUMP JUMPDEST STOP JUMPDEST PUSH2 0x1B9 PUSH1 0x4 DUP1 CALLDATASIZE SUB DUP2 ADD SWAP1 PUSH2 0x1B4 SWAP2 SWAP1 PUSH2 0x1E4D JUMP JUMPDEST PUSH2 0x63B JUMP JUMPDEST STOP JUMPDEST PUSH2 0x1D5 PUSH1 0x4 DUP1 CALLDATASIZE SUB DUP2 ADD SWAP1 PUSH2 0x1D0 SWAP2 SWAP1 PUSH2 0x1F53 JUMP JUMPDEST PUSH2 0x69B JUMP JUMPDEST STOP JUMPDEST PUSH2 0x1F1 PUSH1 0x4 DUP1 CALLDATASIZE SUB DUP2 ADD SWAP1 PUSH2 0x1EC SWAP2 SWAP1 PUSH2 0x1E4D JUMP JUMPDEST PUSH2 0x6B8 JUMP JUMPDEST STOP JUMPDEST PUSH2 0x20D PUSH1 0x4 DUP1 CALLDATASIZE SUB DUP2 ADD SWAP1 PUSH2 0x208 SWAP2 SWAP1 PUSH2 0x2088 JUMP JUMPDEST PUSH2 0x6D8 JUMP JUMPDEST PUSH1 0x40 MLOAD PUSH2 0x21A SWAP2 SWAP1 PUSH2 0x2678 JUMP JUMPDEST PUSH1 0x40 MLOAD DUP1 SWAP2 SUB SWAP1 RETURN JUMPDEST PUSH2 0x23D PUSH1 0x4 DUP1 CALLDATASIZE SUB DUP2 ADD SWAP1 PUSH2 0x238 SWAP2 SWAP1 PUSH2 0x2088 JUMP JUMPDEST PUSH2 0x7F1 JUMP JUMPDEST PUSH1 0x40 MLOAD PUSH2 0x24A SWAP2 SWAP1 PUSH2 0x2474 JUMP JUMPDEST PUSH1 0x40 MLOAD DUP1 SWAP2 SUB SWAP1 RETURN JUMPDEST PUSH2 0x26D PUSH1 0x4 DUP1 CALLDATASIZE SUB DUP2 ADD SWAP1 PUSH2 0x268 SWAP2 SWAP1 PUSH2 0x1DE8 JUMP JUMPDEST PUSH2 0x8A3 JUMP JUMPDEST PUSH1 0x40 MLOAD PUSH2 0x27A SWAP2 SWAP1 PUSH2 0x269A JUMP JUMPDEST PUSH1 0x40 MLOAD DUP1 SWAP2 SUB SWAP1 RETURN JUMPDEST PUSH2 0x28B PUSH2 0x95B JUMP JUMPDEST PUSH1 0x40 MLOAD PUSH2 0x298 SWAP2 SWAP1 PUSH2 0x24F6 JUMP JUMPDEST PUSH1 0x40 MLOAD DUP1 SWAP2 SUB SWAP1 RETURN JUMPDEST PUSH2 0x2BB PUSH1 0x4 DUP1 CALLDATASIZE SUB DUP2 ADD SWAP1 PUSH2 0x2B6 SWAP2 SWAP1 PUSH2 0x1F17 JUMP JUMPDEST PUSH2 0x9ED JUMP JUMPDEST STOP JUMPDEST PUSH2 0x2D7 PUSH1 0x4 DUP1 CALLDATASIZE SUB DUP2 ADD SWAP1 PUSH2 0x2D2 SWAP2 SWAP1 PUSH2 0x1E9C JUMP JUMPDEST PUSH2 0xA03 JUMP JUMPDEST STOP JUMPDEST PUSH2 0x2F3 PUSH1 0x4 DUP1 CALLDATASIZE SUB DUP2 ADD SWAP1 PUSH2 0x2EE SWAP2 SWAP1 PUSH2 0x2088 JUMP JUMPDEST PUSH2 0xA65 JUMP JUMPDEST PUSH1 0x40 MLOAD PUSH2 0x300 SWAP2 SWAP1 PUSH2 0x24F6 JUMP JUMPDEST PUSH1 0x40 MLOAD DUP1 SWAP2 SUB SWAP1 RETURN JUMPDEST PUSH2 0x323 PUSH1 0x4 DUP1 CALLDATASIZE SUB DUP2 ADD SWAP1 PUSH2 0x31E SWAP2 SWAP1 PUSH2 0x1E11 JUMP JUMPDEST PUSH2 0xACD JUMP JUMPDEST PUSH1 0x40 MLOAD PUSH2 0x330 SWAP2 SWAP1 PUSH2 0x24DB JUMP JUMPDEST PUSH1 0x40 MLOAD DUP1 SWAP2 SUB SWAP1 RETURN JUMPDEST PUSH2 0x353 PUSH1 0x4 DUP1 CALLDATASIZE SUB DUP2 ADD SWAP1 PUSH2 0x34E SWAP2 SWAP1 PUSH2 0x2088 JUMP JUMPDEST PUSH2 0xB61 JUMP JUMPDEST PUSH1 0x40 MLOAD PUSH2 0x360 SWAP2 SWAP1 PUSH2 0x269A JUMP JUMPDEST PUSH1 0x40 MLOAD DUP1 SWAP2 SUB SWAP1 RETURN JUMPDEST PUSH1 0x0 PUSH32 0x80AC58CD00000000000000000000000000000000000000000000000000000000 PUSH28 0xFFFFFFFFFFFFFFFFFFFFFFFFFFFFFFFFFFFFFFFFFFFFFFFFFFFFFFFF NOT AND DUP3 PUSH28 0xFFFFFFFFFFFFFFFFFFFFFFFFFFFFFFFFFFFFFFFFFFFFFFFFFFFFFFFF NOT AND EQ DUP1 PUSH2 0x434 JUMPI POP PUSH32 0x5B5E139F00000000000000000000000000000000000000000000000000000000 PUSH28 0xFFFFFFFFFFFFFFFFFFFFFFFFFFFFFFFFFFFFFFFFFFFFFFFFFFFFFFFF NOT AND DUP3 PUSH28 0xFFFFFFFFFFFFFFFFFFFFFFFFFFFFFFFFFFFFFFFFFFFFFFFFFFFFFFFF NOT AND EQ JUMPDEST DUP1 PUSH2 0x444 JUMPI POP PUSH2 0x443 DUP3 PUSH2 0xB83 JUMP JUMPDEST JUMPDEST SWAP1 POP SWAP2 SWAP1 POP JUMP JUMPDEST PUSH1 0x60 PUSH1 0x0 DUP1 SLOAD PUSH2 0x45A SWAP1 PUSH2 0x29BA JUMP JUMPDEST DUP1 PUSH1 0x1F ADD PUSH1 0x20 DUP1 SWAP2 DIV MUL PUSH1 0x20 ADD PUSH1 0x40 MLOAD SWAP1 DUP2 ADD PUSH1 0x40 MSTORE DUP1 SWAP3 SWAP2 SWAP1 DUP2 DUP2 MSTORE PUSH1 0x20 ADD DUP3 DUP1 SLOAD PUSH2 0x486 SWAP1 PUSH2 0x29BA JUMP JUMPDEST DUP1 ISZERO PUSH2 0x4D3 JUMPI DUP1 PUSH1 0x1F LT PUSH2 0x4A8 JUMPI PUSH2 0x100 DUP1 DUP4 SLOAD DIV MUL DUP4 MSTORE SWAP2 PUSH1 0x20 ADD SWAP2 PUSH2 0x4D3 JUMP JUMPDEST DUP3 ADD SWAP2 SWAP1 PUSH1 0x0 MSTORE PUSH1 0x20 PUSH1 0x0 KECCAK256 SWAP1 JUMPDEST DUP2 SLOAD DUP2 MSTORE SWAP1 PUSH1 0x1 ADD SWAP1 PUSH1 0x20 ADD DUP1 DUP4 GT PUSH2 0x4B6 JUMPI DUP3 SWAP1 SUB PUSH1 0x1F AND DUP3 ADD SWAP2 JUMPDEST POP POP POP POP POP SWAP1 POP SWAP1 JUMP JUMPDEST PUSH1 0x0 PUSH2 0x4E8 DUP3 PUSH2 0xBED JUMP JUMPDEST PUSH1 0x6 PUSH1 0x0 DUP4 DUP2 MSTORE PUSH1 0x20 ADD SWAP1 DUP2 MSTORE PUSH1 0x20 ADD PUSH1 0x0 KECCAK256 PUSH1 0x0 SWAP1 SLOAD SWAP1 PUSH2 0x100 EXP SWAP1 DIV PUSH20 0xFFFFFFFFFFFFFFFFFFFFFFFFFFFFFFFFFFFFFFFF AND SWAP1 POP SWAP2 SWAP1 POP JUMP JUMPDEST PUSH1 0x0 PUSH2 0x52E DUP3 PUSH2 0x7F1 JUMP JUMPDEST SWAP1 POP DUP1 PUSH20 0xFFFFFFFFFFFFFFFFFFFFFFFFFFFFFFFFFFFFFFFF AND DUP4 PUSH20 0xFFFFFFFFFFFFFFFFFFFFFFFFFFFFFFFFFFFFFFFF AND EQ ISZERO PUSH2 0x59F JUMPI PUSH1 0x40 MLOAD PUSH32 0x8C379A000000000000000000000000000000000000000000000000000000000 DUP2 MSTORE PUSH1 0x4 ADD PUSH2 0x596 SWAP1 PUSH2 0x2638 JUMP JUMPDEST PUSH1 0x40 MLOAD DUP1 SWAP2 SUB SWAP1 REVERT JUMPDEST DUP1 PUSH20 0xFFFFFFFFFFFFFFFFFFFFFFFFFFFFFFFFFFFFFFFF AND PUSH2 0x5BE PUSH2 0xC38 JUMP JUMPDEST PUSH20 0xFFFFFFFFFFFFFFFFFFFFFFFFFFFFFFFFFFFFFFFF AND EQ DUP1 PUSH2 0x5ED JUMPI POP PUSH2 0x5EC DUP2 PUSH2 0x5E7 PUSH2 0xC38 JUMP JUMPDEST PUSH2 0xACD JUMP JUMPDEST JUMPDEST PUSH2 0x62C JUMPI PUSH1 0x40 MLOAD PUSH32 0x8C379A000000000000000000000000000000000000000000000000000000000 DUP2 MSTORE PUSH1 0x4 ADD PUSH2 0x623 SWAP1 PUSH2 0x2658 JUMP JUMPDEST PUSH1 0x40 MLOAD DUP1 SWAP2 SUB SWAP1 REVERT JUMPDEST PUSH2 0x636 DUP4 DUP4 PUSH2 0xC40 JUMP JUMPDEST POP POP POP JUMP JUMPDEST PUSH2 0x64C PUSH2 0x646 PUSH2 0xC38 JUMP JUMPDEST DUP3 PUSH2 0xCF9 JUMP JUMPDEST PUSH2 0x68B JUMPI PUSH1 0x40 MLOAD PUSH32 0x8C379A000000000000000000000000000000000000000000000000000000000 DUP2 MSTORE PUSH1 0x4 ADD PUSH2 0x682 SWAP1 PUSH2 0x2518 JUMP JUMPDEST PUSH1 0x40 MLOAD DUP1 SWAP2 SUB SWAP1 REVERT JUMPDEST PUSH2 0x696 DUP4 DUP4 DUP4 PUSH2 0xD8E JUMP JUMPDEST POP POP POP JUMP JUMPDEST PUSH2 0x6A7 DUP6 DUP6 DUP6 DUP6 PUSH2 0x1084 JUMP JUMPDEST PUSH2 0x6B1 DUP3 DUP3 PUSH2 0x10A6 JUMP JUMPDEST POP POP POP POP POP JUMP JUMPDEST PUSH2 0x6D3 DUP4 DUP4 DUP4 PUSH1 0x40 MLOAD DUP1 PUSH1 0x20 ADD PUSH1 0x40 MSTORE DUP1 PUSH1 0x0 DUP2 MSTORE POP PUSH2 0xA03 JUMP JUMPDEST POP POP POP JUMP JUMPDEST PUSH2 0x6E0 PUSH2 0x1973 JUMP JUMPDEST PUSH1 0x0 PUSH1 0x3 PUSH1 0x0 DUP5 DUP2 MSTORE PUSH1 0x20 ADD SWAP1 DUP2 MSTORE PUSH1 0x20 ADD PUSH1 0x0 KECCAK256 PUSH1 0x40 MLOAD DUP1 PUSH1 0x40 ADD PUSH1 0x40 MSTORE SWAP1 DUP2 PUSH1 0x0 DUP3 ADD DUP1 SLOAD DUP1 PUSH1 0x20 MUL PUSH1 0x20 ADD PUSH1 0x40 MLOAD SWAP1 DUP2 ADD PUSH1 0x40 MSTORE DUP1 SWAP3 SWAP2 SWAP1 DUP2 DUP2 MSTORE PUSH1 0x20 ADD DUP3 DUP1 SLOAD DUP1 ISZERO PUSH2 0x785 JUMPI PUSH1 0x20 MUL DUP3 ADD SWAP2 SWAP1 PUSH1 0x0 MSTORE PUSH1 0x20 PUSH1 0x0 KECCAK256 SWAP1 JUMPDEST DUP2 PUSH1 0x0 SWAP1 SLOAD SWAP1 PUSH2 0x100 EXP SWAP1 DIV PUSH20 0xFFFFFFFFFFFFFFFFFFFFFFFFFFFFFFFFFFFFFFFF AND PUSH20 0xFFFFFFFFFFFFFFFFFFFFFFFFFFFFFFFFFFFFFFFF AND DUP2 MSTORE PUSH1 0x20 ADD SWAP1 PUSH1 0x1 ADD SWAP1 DUP1 DUP4 GT PUSH2 0x73B JUMPI JUMPDEST POP POP POP POP POP DUP2 MSTORE PUSH1 0x20 ADD PUSH1 0x1 DUP3 ADD DUP1 SLOAD DUP1 PUSH1 0x20 MUL PUSH1 0x20 ADD PUSH1 0x40 MLOAD SWAP1 DUP2 ADD PUSH1 0x40 MSTORE DUP1 SWAP3 SWAP2 SWAP1 DUP2 DUP2 MSTORE PUSH1 0x20 ADD DUP3 DUP1 SLOAD DUP1 ISZERO PUSH2 0x7DD JUMPI PUSH1 0x20 MUL DUP3 ADD SWAP2 SWAP1 PUSH1 0x0 MSTORE PUSH1 0x20 PUSH1 0x0 KECCAK256 SWAP1 JUMPDEST DUP2 SLOAD DUP2 MSTORE PUSH1 0x20 ADD SWAP1 PUSH1 0x1 ADD SWAP1 DUP1 DUP4 GT PUSH2 0x7C9 JUMPI JUMPDEST POP POP POP POP POP DUP2 MSTORE POP POP SWAP1 POP DUP1 SWAP2 POP POP SWAP2 SWAP1 POP JUMP JUMPDEST PUSH1 0x0 DUP1 PUSH1 0x2 PUSH1 0x0 DUP5 DUP2 MSTORE PUSH1 0x20 ADD SWAP1 DUP2 MSTORE PUSH1 0x20 ADD PUSH1 0x0 KECCAK256 PUSH1 0x0 SWAP1 SLOAD SWAP1 PUSH2 0x100 EXP SWAP1 DIV PUSH20 0xFFFFFFFFFFFFFFFFFFFFFFFFFFFFFFFFFFFFFFFF AND SWAP1 POP PUSH1 0x0 PUSH20 0xFFFFFFFFFFFFFFFFFFFFFFFFFFFFFFFFFFFFFFFF AND DUP2 PUSH20 0xFFFFFFFFFFFFFFFFFFFFFFFFFFFFFFFFFFFFFFFF AND EQ ISZERO PUSH2 0x89A JUMPI PUSH1 0x40 MLOAD PUSH32 0x8C379A000000000000000000000000000000000000000000000000000000000 DUP2 MSTORE PUSH1 0x4 ADD PUSH2 0x891 SWAP1 PUSH2 0x2618 JUMP JUMPDEST PUSH1 0x40 MLOAD DUP1 SWAP2 SUB SWAP1 REVERT JUMPDEST DUP1 SWAP2 POP POP SWAP2 SWAP1 POP JUMP JUMPDEST PUSH1 0x0 DUP1 PUSH20 0xFFFFFFFFFFFFFFFFFFFFFFFFFFFFFFFFFFFFFFFF AND DUP3 PUSH20 0xFFFFFFFFFFFFFFFFFFFFFFFFFFFFFFFFFFFFFFFF AND EQ ISZERO PUSH2 0x914 JUMPI PUSH1 0x40 MLOAD PUSH32 0x8C379A000000000000000000000000000000000000000000000000000000000 DUP2 MSTORE PUSH1 0x4 ADD PUSH2 0x90B SWAP1 PUSH2 0x25D8 JUMP JUMPDEST PUSH1 0x40 MLOAD DUP1 SWAP2 SUB SWAP1 REVERT JUMPDEST PUSH1 0x5 PUSH1 0x0 DUP4 PUSH20 0xFFFFFFFFFFFFFFFFFFFFFFFFFFFFFFFFFFFFFFFF AND PUSH20 0xFFFFFFFFFFFFFFFFFFFFFFFFFFFFFFFFFFFFFFFF AND DUP2 MSTORE PUSH1 0x20 ADD SWAP1 DUP2 MSTORE PUSH1 0x20 ADD PUSH1 0x0 KECCAK256 SLOAD SWAP1 POP SWAP2 SWAP1 POP JUMP JUMPDEST PUSH1 0x60 PUSH1 0x1 DUP1 SLOAD PUSH2 0x96A SWAP1 PUSH2 0x29BA JUMP JUMPDEST DUP1 PUSH1 0x1F ADD PUSH1 0x20 DUP1 SWAP2 DIV MUL PUSH1 0x20 ADD PUSH1 0x40 MLOAD SWAP1 DUP2 ADD PUSH1 0x40 MSTORE DUP1 SWAP3 SWAP2 SWAP1 DUP2 DUP2 MSTORE PUSH1 0x20 ADD DUP3 DUP1 SLOAD PUSH2 0x996 SWAP1 PUSH2 0x29BA JUMP JUMPDEST DUP1 ISZERO PUSH2 0x9E3 JUMPI DUP1 PUSH1 0x1F LT PUSH2 0x9B8 JUMPI PUSH2 0x100 DUP1 DUP4 SLOAD DIV MUL DUP4 MSTORE SWAP2 PUSH1 0x20 ADD SWAP2 PUSH2 0x9E3 JUMP JUMPDEST DUP3 ADD SWAP2 SWAP1 PUSH1 0x0 MSTORE PUSH1 0x20 PUSH1 0x0 KECCAK256 SWAP1 JUMPDEST DUP2 SLOAD DUP2 MSTORE SWAP1 PUSH1 0x1 ADD SWAP1 PUSH1 0x20 ADD DUP1 DUP4 GT PUSH2 0x9C6 JUMPI DUP3 SWAP1 SUB PUSH1 0x1F AND DUP3 ADD SWAP2 JUMPDEST POP POP POP POP POP SWAP1 POP SWAP1 JUMP JUMPDEST PUSH2 0x9FF PUSH2 0x9F8 PUSH2 0xC38 JUMP JUMPDEST DUP4 DUP4 PUSH2 0x10D2 JUMP JUMPDEST POP POP JUMP JUMPDEST PUSH2 0xA14 PUSH2 0xA0E PUSH2 0xC38 JUMP JUMPDEST DUP4 PUSH2 0xCF9 JUMP JUMPDEST PUSH2 0xA53 JUMPI PUSH1 0x40 MLOAD PUSH32 0x8C379A000000000000000000000000000000000000000000000000000000000 DUP2 MSTORE PUSH1 0x4 ADD PUSH2 0xA4A SWAP1 PUSH2 0x2518 JUMP JUMPDEST PUSH1 0x40 MLOAD DUP1 SWAP2 SUB SWAP1 REVERT JUMPDEST PUSH2 0xA5F DUP5 DUP5 DUP5 DUP5 PUSH2 0x123F JUMP JUMPDEST POP POP POP POP JUMP JUMPDEST PUSH1 0x60 PUSH2 0xA70 DUP3 PUSH2 0xBED JUMP JUMPDEST PUSH1 0x0 PUSH2 0xA7A PUSH2 0x129B JUMP JUMPDEST SWAP1 POP PUSH1 0x0 DUP2 MLOAD GT PUSH2 0xA9A JUMPI PUSH1 0x40 MLOAD DUP1 PUSH1 0x20 ADD PUSH1 0x40 MSTORE DUP1 PUSH1 0x0 DUP2 MSTORE POP PUSH2 0xAC5 JUMP JUMPDEST DUP1 PUSH2 0xAA4 DUP5 PUSH2 0x12B2 JUMP JUMPDEST PUSH1 0x40 MLOAD PUSH1 0x20 ADD PUSH2 0xAB5 SWAP3 SWAP2 SWAP1 PUSH2 0x2450 JUMP JUMPDEST PUSH1 0x40 MLOAD PUSH1 0x20 DUP2 DUP4 SUB SUB DUP2 MSTORE SWAP1 PUSH1 0x40 MSTORE JUMPDEST SWAP2 POP POP SWAP2 SWAP1 POP JUMP JUMPDEST PUSH1 0x0 PUSH1 0x7 PUSH1 0x0 DUP5 PUSH20 0xFFFFFFFFFFFFFFFFFFFFFFFFFFFFFFFFFFFFFFFF AND PUSH20 0xFFFFFFFFFFFFFFFFFFFFFFFFFFFFFFFFFFFFFFFF AND DUP2 MSTORE PUSH1 0x20 ADD SWAP1 DUP2 MSTORE PUSH1 0x20 ADD PUSH1 0x0 KECCAK256 PUSH1 0x0 DUP4 PUSH20 0xFFFFFFFFFFFFFFFFFFFFFFFFFFFFFFFFFFFFFFFF AND PUSH20 0xFFFFFFFFFFFFFFFFFFFFFFFFFFFFFFFFFFFFFFFF AND DUP2 MSTORE PUSH1 0x20 ADD SWAP1 DUP2 MSTORE PUSH1 0x20 ADD PUSH1 0x0 KECCAK256 PUSH1 0x0 SWAP1 SLOAD SWAP1 PUSH2 0x100 EXP SWAP1 DIV PUSH1 0xFF AND SWAP1 POP SWAP3 SWAP2 POP POP JUMP JUMPDEST PUSH1 0x0 DUP1 PUSH1 0x4 PUSH1 0x0 DUP5 DUP2 MSTORE PUSH1 0x20 ADD SWAP1 DUP2 MSTORE PUSH1 0x20 ADD PUSH1 0x0 KECCAK256 SLOAD SWAP1 POP DUP1 SWAP2 POP POP SWAP2 SWAP1 POP JUMP JUMPDEST PUSH1 0x0 PUSH32 0x1FFC9A700000000000000000000000000000000000000000000000000000000 PUSH28 0xFFFFFFFFFFFFFFFFFFFFFFFFFFFFFFFFFFFFFFFFFFFFFFFFFFFFFFFF NOT AND DUP3 PUSH28 0xFFFFFFFFFFFFFFFFFFFFFFFFFFFFFFFFFFFFFFFFFFFFFFFFFFFFFFFF NOT AND EQ SWAP1 POP SWAP2 SWAP1 POP JUMP JUMPDEST PUSH2 0xBF6 DUP2 PUSH2 0x145F JUMP JUMPDEST PUSH2 0xC35 JUMPI PUSH1 0x40 MLOAD PUSH32 0x8C379A000000000000000000000000000000000000000000000000000000000 DUP2 MSTORE PUSH1 0x4 ADD PUSH2 0xC2C SWAP1 PUSH2 0x2618 JUMP JUMPDEST PUSH1 0x40 MLOAD DUP1 SWAP2 SUB SWAP1 REVERT JUMPDEST POP JUMP JUMPDEST PUSH1 0x0 CALLER SWAP1 POP SWAP1 JUMP JUMPDEST DUP2 PUSH1 0x6 PUSH1 0x0 DUP4 DUP2 MSTORE PUSH1 0x20 ADD SWAP1 DUP2 MSTORE PUSH1 0x20 ADD PUSH1 0x0 KECCAK256 PUSH1 0x0 PUSH2 0x100 EXP DUP2 SLOAD DUP2 PUSH20 0xFFFFFFFFFFFFFFFFFFFFFFFFFFFFFFFFFFFFFFFF MUL NOT AND SWAP1 DUP4 PUSH20 0xFFFFFFFFFFFFFFFFFFFFFFFFFFFFFFFFFFFFFFFF AND MUL OR SWAP1 SSTORE POP DUP1 DUP3 PUSH20 0xFFFFFFFFFFFFFFFFFFFFFFFFFFFFFFFFFFFFFFFF AND PUSH2 0xCB3 DUP4 PUSH2 0x7F1 JUMP JUMPDEST PUSH20 0xFFFFFFFFFFFFFFFFFFFFFFFFFFFFFFFFFFFFFFFF AND PUSH32 0x8C5BE1E5EBEC7D5BD14F71427D1E84F3DD0314C0F7B2291E5B200AC8C7C3B925 PUSH1 0x40 MLOAD PUSH1 0x40 MLOAD DUP1 SWAP2 SUB SWAP1 LOG4 POP POP JUMP JUMPDEST PUSH1 0x0 DUP1 PUSH2 0xD05 DUP4 PUSH2 0x7F1 JUMP JUMPDEST SWAP1 POP DUP1 PUSH20 0xFFFFFFFFFFFFFFFFFFFFFFFFFFFFFFFFFFFFFFFF AND DUP5 PUSH20 0xFFFFFFFFFFFFFFFFFFFFFFFFFFFFFFFFFFFFFFFF AND EQ DUP1 PUSH2 0xD47 JUMPI POP PUSH2 0xD46 DUP2 DUP6 PUSH2 0xACD JUMP JUMPDEST JUMPDEST DUP1 PUSH2 0xD85 JUMPI POP DUP4 PUSH20 0xFFFFFFFFFFFFFFFFFFFFFFFFFFFFFFFFFFFFFFFF AND PUSH2 0xD6D DUP5 PUSH2 0x4DD JUMP JUMPDEST PUSH20 0xFFFFFFFFFFFFFFFFFFFFFFFFFFFFFFFFFFFFFFFF AND EQ JUMPDEST SWAP2 POP POP SWAP3 SWAP2 POP POP JUMP JUMPDEST DUP3 PUSH20 0xFFFFFFFFFFFFFFFFFFFFFFFFFFFFFFFFFFFFFFFF AND PUSH2 0xDAE DUP3 PUSH2 0x7F1 JUMP JUMPDEST PUSH20 0xFFFFFFFFFFFFFFFFFFFFFFFFFFFFFFFFFFFFFFFF AND EQ PUSH2 0xE04 JUMPI PUSH1 0x40 MLOAD PUSH32 0x8C379A000000000000000000000000000000000000000000000000000000000 DUP2 MSTORE PUSH1 0x4 ADD PUSH2 0xDFB SWAP1 PUSH2 0x2558 JUMP JUMPDEST PUSH1 0x40 MLOAD DUP1 SWAP2 SUB SWAP1 REVERT JUMPDEST PUSH1 0x0 PUSH20 0xFFFFFFFFFFFFFFFFFFFFFFFFFFFFFFFFFFFFFFFF AND DUP3 PUSH20 0xFFFFFFFFFFFFFFFFFFFFFFFFFFFFFFFFFFFFFFFF AND EQ ISZERO PUSH2 0xE74 JUMPI PUSH1 0x40 MLOAD PUSH32 0x8C379A000000000000000000000000000000000000000000000000000000000 DUP2 MSTORE PUSH1 0x4 ADD PUSH2 0xE6B SWAP1 PUSH2 0x2598 JUMP JUMPDEST PUSH1 0x40 MLOAD DUP1 SWAP2 SUB SWAP1 REVERT JUMPDEST PUSH2 0xE7F DUP4 DUP4 DUP4 PUSH2 0x14CB JUMP JUMPDEST DUP3 PUSH20 0xFFFFFFFFFFFFFFFFFFFFFFFFFFFFFFFFFFFFFFFF AND PUSH2 0xE9F DUP3 PUSH2 0x7F1 JUMP JUMPDEST PUSH20 0xFFFFFFFFFFFFFFFFFFFFFFFFFFFFFFFFFFFFFFFF AND EQ PUSH2 0xEF5 JUMPI PUSH1 0x40 MLOAD PUSH32 0x8C379A000000000000000000000000000000000000000000000000000000000 DUP2 MSTORE PUSH1 0x4 ADD PUSH2 0xEEC SWAP1 PUSH2 0x2558 JUMP JUMPDEST PUSH1 0x40 MLOAD DUP1 SWAP2 SUB SWAP1 REVERT JUMPDEST PUSH1 0x6 PUSH1 0x0 DUP3 DUP2 MSTORE PUSH1 0x20 ADD SWAP1 DUP2 MSTORE PUSH1 0x20 ADD PUSH1 0x0 KECCAK256 PUSH1 0x0 PUSH2 0x100 EXP DUP2 SLOAD SWAP1 PUSH20 0xFFFFFFFFFFFFFFFFFFFFFFFFFFFFFFFFFFFFFFFF MUL NOT AND SWAP1 SSTORE PUSH1 0x1 PUSH1 0x5 PUSH1 0x0 DUP6 PUSH20 0xFFFFFFFFFFFFFFFFFFFFFFFFFFFFFFFFFFFFFFFF AND PUSH20 0xFFFFFFFFFFFFFFFFFFFFFFFFFFFFFFFFFFFFFFFF AND DUP2 MSTORE PUSH1 0x20 ADD SWAP1 DUP2 MSTORE PUSH1 0x20 ADD PUSH1 0x0 KECCAK256 PUSH1 0x0 DUP3 DUP3 SLOAD SUB SWAP3 POP POP DUP2 SWAP1 SSTORE POP PUSH1 0x1 PUSH1 0x5 PUSH1 0x0 DUP5 PUSH20 0xFFFFFFFFFFFFFFFFFFFFFFFFFFFFFFFFFFFFFFFF AND PUSH20 0xFFFFFFFFFFFFFFFFFFFFFFFFFFFFFFFFFFFFFFFF AND DUP2 MSTORE PUSH1 0x20 ADD SWAP1 DUP2 MSTORE PUSH1 0x20 ADD PUSH1 0x0 KECCAK256 PUSH1 0x0 DUP3 DUP3 SLOAD ADD SWAP3 POP POP DUP2 SWAP1 SSTORE POP DUP2 PUSH1 0x2 PUSH1 0x0 DUP4 DUP2 MSTORE PUSH1 0x20 ADD SWAP1 DUP2 MSTORE PUSH1 0x20 ADD PUSH1 0x0 KECCAK256 PUSH1 0x0 PUSH2 0x100 EXP DUP2 SLOAD DUP2 PUSH20 0xFFFFFFFFFFFFFFFFFFFFFFFFFFFFFFFFFFFFFFFF MUL NOT AND SWAP1 DUP4 PUSH20 0xFFFFFFFFFFFFFFFFFFFFFFFFFFFFFFFFFFFFFFFF AND MUL OR SWAP1 SSTORE POP DUP1 DUP3 PUSH20 0xFFFFFFFFFFFFFFFFFFFFFFFFFFFFFFFFFFFFFFFF AND DUP5 PUSH20 0xFFFFFFFFFFFFFFFFFFFFFFFFFFFFFFFFFFFFFFFF AND PUSH32 0xDDF252AD1BE2C89B69C2B068FC378DAA952BA7F163C4A11628F55A4DF523B3EF PUSH1 0x40 MLOAD PUSH1 0x40 MLOAD DUP1 SWAP2 SUB SWAP1 LOG4 PUSH2 0x107F DUP4 DUP4 DUP4 PUSH2 0x14D0 JUMP JUMPDEST POP POP POP JUMP JUMPDEST PUSH2 0x10A0 DUP5 DUP5 DUP5 DUP5 PUSH1 0x40 MLOAD DUP1 PUSH1 0x20 ADD PUSH1 0x40 MSTORE DUP1 PUSH1 0x0 DUP2 MSTORE POP PUSH2 0x14D5 JUMP JUMPDEST POP POP POP POP JUMP JUMPDEST DUP1 PUSH1 0x8 PUSH1 0x0 DUP5 DUP2 MSTORE PUSH1 0x20 ADD SWAP1 DUP2 MSTORE PUSH1 0x20 ADD PUSH1 0x0 KECCAK256 SWAP1 DUP1 MLOAD SWAP1 PUSH1 0x20 ADD SWAP1 PUSH2 0x10CD SWAP3 SWAP2 SWAP1 PUSH2 0x198D JUMP JUMPDEST POP POP POP JUMP JUMPDEST DUP2 PUSH20 0xFFFFFFFFFFFFFFFFFFFFFFFFFFFFFFFFFFFFFFFF AND DUP4 PUSH20 0xFFFFFFFFFFFFFFFFFFFFFFFFFFFFFFFFFFFFFFFF AND EQ ISZERO PUSH2 0x1141 JUMPI PUSH1 0x40 MLOAD PUSH32 0x8C379A000000000000000000000000000000000000000000000000000000000 DUP2 MSTORE PUSH1 0x4 ADD PUSH2 0x1138 SWAP1 PUSH2 0x25B8 JUMP JUMPDEST PUSH1 0x40 MLOAD DUP1 SWAP2 SUB SWAP1 REVERT JUMPDEST DUP1 PUSH1 0x7 PUSH1 0x0 DUP6 PUSH20 0xFFFFFFFFFFFFFFFFFFFFFFFFFFFFFFFFFFFFFFFF AND PUSH20 0xFFFFFFFFFFFFFFFFFFFFFFFFFFFFFFFFFFFFFFFF AND DUP2 MSTORE PUSH1 0x20 ADD SWAP1 DUP2 MSTORE PUSH1 0x20 ADD PUSH1 0x0 KECCAK256 PUSH1 0x0 DUP5 PUSH20 0xFFFFFFFFFFFFFFFFFFFFFFFFFFFFFFFFFFFFFFFF AND PUSH20 0xFFFFFFFFFFFFFFFFFFFFFFFFFFFFFFFFFFFFFFFF AND DUP2 MSTORE PUSH1 0x20 ADD SWAP1 DUP2 MSTORE PUSH1 0x20 ADD PUSH1 0x0 KECCAK256 PUSH1 0x0 PUSH2 0x100 EXP DUP2 SLOAD DUP2 PUSH1 0xFF MUL NOT AND SWAP1 DUP4 ISZERO ISZERO MUL OR SWAP1 SSTORE POP DUP2 PUSH20 0xFFFFFFFFFFFFFFFFFFFFFFFFFFFFFFFFFFFFFFFF AND DUP4 PUSH20 0xFFFFFFFFFFFFFFFFFFFFFFFFFFFFFFFFFFFFFFFF AND PUSH32 0x17307EAB39AB6107E8899845AD3D59BD9653F200F220920489CA2B5937696C31 DUP4 PUSH1 0x40 MLOAD PUSH2 0x1232 SWAP2 SWAP1 PUSH2 0x24DB JUMP JUMPDEST PUSH1 0x40 MLOAD DUP1 SWAP2 SUB SWAP1 LOG3 POP POP POP JUMP JUMPDEST PUSH2 0x124A DUP5 DUP5 DUP5 PUSH2 0xD8E JUMP JUMPDEST PUSH2 0x1256 DUP5 DUP5 DUP5 DUP5 PUSH2 0x1534 JUMP JUMPDEST PUSH2 0x1295 JUMPI PUSH1 0x40 MLOAD PUSH32 0x8C379A000000000000000000000000000000000000000000000000000000000 DUP2 MSTORE PUSH1 0x4 ADD PUSH2 0x128C SWAP1 PUSH2 0x2538 JUMP JUMPDEST PUSH1 0x40 MLOAD DUP1 SWAP2 SUB SWAP1 REVERT JUMPDEST POP POP POP POP JUMP JUMPDEST PUSH1 0x60 PUSH1 0x40 MLOAD DUP1 PUSH1 0x20 ADD PUSH1 0x40 MSTORE DUP1 PUSH1 0x0 DUP2 MSTORE POP SWAP1 POP SWAP1 JUMP JUMPDEST PUSH1 0x60 PUSH1 0x0 DUP3 EQ ISZERO PUSH2 0x12FA JUMPI PUSH1 0x40 MLOAD DUP1 PUSH1 0x40 ADD PUSH1 0x40 MSTORE DUP1 PUSH1 0x1 DUP2 MSTORE PUSH1 0x20 ADD PUSH32 0x3000000000000000000000000000000000000000000000000000000000000000 DUP2 MSTORE POP SWAP1 POP PUSH2 0x145A JUMP JUMPDEST PUSH1 0x0 DUP3 SWAP1 POP PUSH1 0x0 JUMPDEST PUSH1 0x0 DUP3 EQ PUSH2 0x132C JUMPI DUP1 DUP1 PUSH2 0x1315 SWAP1 PUSH2 0x2A1D JUMP JUMPDEST SWAP2 POP POP PUSH1 0xA DUP3 PUSH2 0x1325 SWAP2 SWAP1 PUSH2 0x289F JUMP JUMPDEST SWAP2 POP PUSH2 0x1302 JUMP JUMPDEST PUSH1 0x0 DUP2 PUSH8 0xFFFFFFFFFFFFFFFF DUP2 GT ISZERO PUSH2 0x136E JUMPI PUSH32 0x4E487B7100000000000000000000000000000000000000000000000000000000 PUSH1 0x0 MSTORE PUSH1 0x41 PUSH1 0x4 MSTORE PUSH1 0x24 PUSH1 0x0 REVERT JUMPDEST PUSH1 0x40 MLOAD SWAP1 DUP1 DUP3 MSTORE DUP1 PUSH1 0x1F ADD PUSH1 0x1F NOT AND PUSH1 0x20 ADD DUP3 ADD PUSH1 0x40 MSTORE DUP1 ISZERO PUSH2 0x13A0 JUMPI DUP2 PUSH1 0x20 ADD PUSH1 0x1 DUP3 MUL DUP1 CALLDATASIZE DUP4 CALLDATACOPY DUP1 DUP3 ADD SWAP2 POP POP SWAP1 POP JUMPDEST POP SWAP1 POP JUMPDEST PUSH1 0x0 DUP6 EQ PUSH2 0x1453 JUMPI PUSH1 0x1 DUP3 PUSH2 0x13B9 SWAP2 SWAP1 PUSH2 0x28D0 JUMP JUMPDEST SWAP2 POP PUSH1 0xA DUP6 PUSH2 0x13C8 SWAP2 SWAP1 PUSH2 0x2A66 JUMP JUMPDEST PUSH1 0x30 PUSH2 0x13D4 SWAP2 SWAP1 PUSH2 0x2849 JUMP JUMPDEST PUSH1 0xF8 SHL DUP2 DUP4 DUP2 MLOAD DUP2 LT PUSH2 0x1410 JUMPI PUSH32 0x4E487B7100000000000000000000000000000000000000000000000000000000 PUSH1 0x0 MSTORE PUSH1 0x32 PUSH1 0x4 MSTORE PUSH1 0x24 PUSH1 0x0 REVERT JUMPDEST PUSH1 0x20 ADD ADD SWAP1 PUSH31 0xFFFFFFFFFFFFFFFFFFFFFFFFFFFFFFFFFFFFFFFFFFFFFFFFFFFFFFFFFFFFFF NOT AND SWAP1 DUP2 PUSH1 0x0 BYTE SWAP1 MSTORE8 POP PUSH1 0xA DUP6 PUSH2 0x144C SWAP2 SWAP1 PUSH2 0x289F JUMP JUMPDEST SWAP5 POP PUSH2 0x13A4 JUMP JUMPDEST DUP1 SWAP4 POP POP POP POP JUMPDEST SWAP2 SWAP1 POP JUMP JUMPDEST PUSH1 0x0 DUP1 PUSH20 0xFFFFFFFFFFFFFFFFFFFFFFFFFFFFFFFFFFFFFFFF AND PUSH1 0x2 PUSH1 0x0 DUP5 DUP2 MSTORE PUSH1 0x20 ADD SWAP1 DUP2 MSTORE PUSH1 0x20 ADD PUSH1 0x0 KECCAK256 PUSH1 0x0 SWAP1 SLOAD SWAP1 PUSH2 0x100 EXP SWAP1 DIV PUSH20 0xFFFFFFFFFFFFFFFFFFFFFFFFFFFFFFFFFFFFFFFF AND PUSH20 0xFFFFFFFFFFFFFFFFFFFFFFFFFFFFFFFFFFFFFFFF AND EQ ISZERO SWAP1 POP SWAP2 SWAP1 POP JUMP JUMPDEST POP POP POP JUMP JUMPDEST POP POP POP JUMP JUMPDEST PUSH2 0x14E1 DUP6 DUP6 DUP6 DUP6 PUSH2 0x16CB JUMP JUMPDEST PUSH2 0x14EE PUSH1 0x0 DUP7 DUP5 DUP5 PUSH2 0x1534 JUMP JUMPDEST PUSH2 0x152D JUMPI PUSH1 0x40 MLOAD PUSH32 0x8C379A000000000000000000000000000000000000000000000000000000000 DUP2 MSTORE PUSH1 0x4 ADD PUSH2 0x1524 SWAP1 PUSH2 0x2538 JUMP JUMPDEST PUSH1 0x40 MLOAD DUP1 SWAP2 SUB SWAP1 REVERT JUMPDEST POP POP POP POP POP JUMP JUMPDEST PUSH1 0x0 PUSH2 0x1555 DUP5 PUSH20 0xFFFFFFFFFFFFFFFFFFFFFFFFFFFFFFFFFFFFFFFF AND PUSH2 0x1950 JUMP JUMPDEST ISZERO PUSH2 0x16BE JUMPI DUP4 PUSH20 0xFFFFFFFFFFFFFFFFFFFFFFFFFFFFFFFFFFFFFFFF AND PUSH4 0x150B7A02 PUSH2 0x157E PUSH2 0xC38 JUMP JUMPDEST DUP8 DUP7 DUP7 PUSH1 0x40 MLOAD DUP6 PUSH4 0xFFFFFFFF AND PUSH1 0xE0 SHL DUP2 MSTORE PUSH1 0x4 ADD PUSH2 0x15A0 SWAP5 SWAP4 SWAP3 SWAP2 SWAP1 PUSH2 0x248F JUMP JUMPDEST PUSH1 0x20 PUSH1 0x40 MLOAD DUP1 DUP4 SUB DUP2 PUSH1 0x0 DUP8 DUP1 EXTCODESIZE ISZERO DUP1 ISZERO PUSH2 0x15BA JUMPI PUSH1 0x0 DUP1 REVERT JUMPDEST POP GAS CALL SWAP3 POP POP POP DUP1 ISZERO PUSH2 0x15EB JUMPI POP PUSH1 0x40 MLOAD RETURNDATASIZE PUSH1 0x1F NOT PUSH1 0x1F DUP3 ADD AND DUP3 ADD DUP1 PUSH1 0x40 MSTORE POP DUP2 ADD SWAP1 PUSH2 0x15E8 SWAP2 SWAP1 PUSH2 0x205F JUMP JUMPDEST PUSH1 0x1 JUMPDEST PUSH2 0x166E JUMPI RETURNDATASIZE DUP1 PUSH1 0x0 DUP2 EQ PUSH2 0x161B JUMPI PUSH1 0x40 MLOAD SWAP2 POP PUSH1 0x1F NOT PUSH1 0x3F RETURNDATASIZE ADD AND DUP3 ADD PUSH1 0x40 MSTORE RETURNDATASIZE DUP3 MSTORE RETURNDATASIZE PUSH1 0x0 PUSH1 0x20 DUP5 ADD RETURNDATACOPY PUSH2 0x1620 JUMP JUMPDEST PUSH1 0x60 SWAP2 POP JUMPDEST POP PUSH1 0x0 DUP2 MLOAD EQ ISZERO PUSH2 0x1666 JUMPI PUSH1 0x40 MLOAD PUSH32 0x8C379A000000000000000000000000000000000000000000000000000000000 DUP2 MSTORE PUSH1 0x4 ADD PUSH2 0x165D SWAP1 PUSH2 0x2538 JUMP JUMPDEST PUSH1 0x40 MLOAD DUP1 SWAP2 SUB SWAP1 REVERT JUMPDEST DUP1 MLOAD DUP2 PUSH1 0x20 ADD REVERT JUMPDEST PUSH4 0x150B7A02 PUSH1 0xE0 SHL PUSH28 0xFFFFFFFFFFFFFFFFFFFFFFFFFFFFFFFFFFFFFFFFFFFFFFFFFFFFFFFF NOT AND DUP2 PUSH28 0xFFFFFFFFFFFFFFFFFFFFFFFFFFFFFFFFFFFFFFFFFFFFFFFFFFFFFFFF NOT AND EQ SWAP2 POP POP PUSH2 0x16C3 JUMP JUMPDEST PUSH1 0x1 SWAP1 POP JUMPDEST SWAP5 SWAP4 POP POP POP POP JUMP JUMPDEST PUSH1 0x0 PUSH20 0xFFFFFFFFFFFFFFFFFFFFFFFFFFFFFFFFFFFFFFFF AND DUP5 PUSH20 0xFFFFFFFFFFFFFFFFFFFFFFFFFFFFFFFFFFFFFFFF AND EQ ISZERO PUSH2 0x173B JUMPI PUSH1 0x40 MLOAD PUSH32 0x8C379A000000000000000000000000000000000000000000000000000000000 DUP2 MSTORE PUSH1 0x4 ADD PUSH2 0x1732 SWAP1 PUSH2 0x25F8 JUMP JUMPDEST PUSH1 0x40 MLOAD DUP1 SWAP2 SUB SWAP1 REVERT JUMPDEST PUSH2 0x1744 DUP2 PUSH2 0x145F JUMP JUMPDEST ISZERO PUSH2 0x1784 JUMPI PUSH1 0x40 MLOAD PUSH32 0x8C379A000000000000000000000000000000000000000000000000000000000 DUP2 MSTORE PUSH1 0x4 ADD PUSH2 0x177B SWAP1 PUSH2 0x2578 JUMP JUMPDEST PUSH1 0x40 MLOAD DUP1 SWAP2 SUB SWAP1 REVERT JUMPDEST PUSH2 0x1790 PUSH1 0x0 DUP6 DUP4 PUSH2 0x14CB JUMP JUMPDEST PUSH2 0x1799 DUP2 PUSH2 0x145F JUMP JUMPDEST ISZERO PUSH2 0x17D9 JUMPI PUSH1 0x40 MLOAD PUSH32 0x8C379A000000000000000000000000000000000000000000000000000000000 DUP2 MSTORE PUSH1 0x4 ADD PUSH2 0x17D0 SWAP1 PUSH2 0x2578 JUMP JUMPDEST PUSH1 0x40 MLOAD DUP1 SWAP2 SUB SWAP1 REVERT JUMPDEST PUSH1 0x1 PUSH1 0x5 PUSH1 0x0 DUP7 PUSH20 0xFFFFFFFFFFFFFFFFFFFFFFFFFFFFFFFFFFFFFFFF AND PUSH20 0xFFFFFFFFFFFFFFFFFFFFFFFFFFFFFFFFFFFFFFFF AND DUP2 MSTORE PUSH1 0x20 ADD SWAP1 DUP2 MSTORE PUSH1 0x20 ADD PUSH1 0x0 KECCAK256 PUSH1 0x0 DUP3 DUP3 SLOAD ADD SWAP3 POP POP DUP2 SWAP1 SSTORE POP DUP4 PUSH1 0x2 PUSH1 0x0 DUP4 DUP2 MSTORE PUSH1 0x20 ADD SWAP1 DUP2 MSTORE PUSH1 0x20 ADD PUSH1 0x0 KECCAK256 PUSH1 0x0 PUSH2 0x100 EXP DUP2 SLOAD DUP2 PUSH20 0xFFFFFFFFFFFFFFFFFFFFFFFFFFFFFFFFFFFFFFFF MUL NOT AND SWAP1 DUP4 PUSH20 0xFFFFFFFFFFFFFFFFFFFFFFFFFFFFFFFFFFFFFFFF AND MUL OR SWAP1 SSTORE POP DUP3 PUSH1 0x3 PUSH1 0x0 DUP4 DUP2 MSTORE PUSH1 0x20 ADD SWAP1 DUP2 MSTORE PUSH1 0x20 ADD PUSH1 0x0 KECCAK256 PUSH1 0x0 DUP3 ADD MLOAD DUP2 PUSH1 0x0 ADD SWAP1 DUP1 MLOAD SWAP1 PUSH1 0x20 ADD SWAP1 PUSH2 0x18A9 SWAP3 SWAP2 SWAP1 PUSH2 0x1A13 JUMP JUMPDEST POP PUSH1 0x20 DUP3 ADD MLOAD DUP2 PUSH1 0x1 ADD SWAP1 DUP1 MLOAD SWAP1 PUSH1 0x20 ADD SWAP1 PUSH2 0x18C6 SWAP3 SWAP2 SWAP1 PUSH2 0x1A9D JUMP JUMPDEST POP SWAP1 POP POP DUP2 PUSH1 0x4 PUSH1 0x0 DUP4 DUP2 MSTORE PUSH1 0x20 ADD SWAP1 DUP2 MSTORE PUSH1 0x20 ADD PUSH1 0x0 KECCAK256 DUP2 SWAP1 SSTORE POP DUP1 DUP5 PUSH20 0xFFFFFFFFFFFFFFFFFFFFFFFFFFFFFFFFFFFFFFFF AND PUSH1 0x0 PUSH20 0xFFFFFFFFFFFFFFFFFFFFFFFFFFFFFFFFFFFFFFFF AND PUSH32 0xDDF252AD1BE2C89B69C2B068FC378DAA952BA7F163C4A11628F55A4DF523B3EF PUSH1 0x40 MLOAD PUSH1 0x40 MLOAD DUP1 SWAP2 SUB SWAP1 LOG4 PUSH2 0x194A PUSH1 0x0 DUP6 DUP4 PUSH2 0x14D0 JUMP JUMPDEST POP POP POP POP JUMP JUMPDEST PUSH1 0x0 DUP1 DUP3 PUSH20 0xFFFFFFFFFFFFFFFFFFFFFFFFFFFFFFFFFFFFFFFF AND EXTCODESIZE GT SWAP1 POP SWAP2 SWAP1 POP JUMP JUMPDEST PUSH1 0x40 MLOAD DUP1 PUSH1 0x40 ADD PUSH1 0x40 MSTORE DUP1 PUSH1 0x60 DUP2 MSTORE PUSH1 0x20 ADD PUSH1 0x60 DUP2 MSTORE POP SWAP1 JUMP JUMPDEST DUP3 DUP1 SLOAD PUSH2 0x1999 SWAP1 PUSH2 0x29BA JUMP JUMPDEST SWAP1 PUSH1 0x0 MSTORE PUSH1 0x20 PUSH1 0x0 KECCAK256 SWAP1 PUSH1 0x1F ADD PUSH1 0x20 SWAP1 DIV DUP2 ADD SWAP3 DUP3 PUSH2 0x19BB JUMPI PUSH1 0x0 DUP6 SSTORE PUSH2 0x1A02 JUMP JUMPDEST DUP3 PUSH1 0x1F LT PUSH2 0x19D4 JUMPI DUP1 MLOAD PUSH1 0xFF NOT AND DUP4 DUP1 ADD OR DUP6 SSTORE PUSH2 0x1A02 JUMP JUMPDEST DUP3 DUP1 ADD PUSH1 0x1 ADD DUP6 SSTORE DUP3 ISZERO PUSH2 0x1A02 JUMPI SWAP2 DUP3 ADD JUMPDEST DUP3 DUP2 GT ISZERO PUSH2 0x1A01 JUMPI DUP3 MLOAD DUP3 SSTORE SWAP2 PUSH1 0x20 ADD SWAP2 SWAP1 PUSH1 0x1 ADD SWAP1 PUSH2 0x19E6 JUMP JUMPDEST JUMPDEST POP SWAP1 POP PUSH2 0x1A0F SWAP2 SWAP1 PUSH2 0x1AEA JUMP JUMPDEST POP SWAP1 JUMP JUMPDEST DUP3 DUP1 SLOAD DUP3 DUP3 SSTORE SWAP1 PUSH1 0x0 MSTORE PUSH1 0x20 PUSH1 0x0 KECCAK256 SWAP1 DUP2 ADD SWAP3 DUP3 ISZERO PUSH2 0x1A8C JUMPI SWAP2 PUSH1 0x20 MUL DUP3 ADD JUMPDEST DUP3 DUP2 GT ISZERO PUSH2 0x1A8B JUMPI DUP3 MLOAD DUP3 PUSH1 0x0 PUSH2 0x100 EXP DUP2 SLOAD DUP2 PUSH20 0xFFFFFFFFFFFFFFFFFFFFFFFFFFFFFFFFFFFFFFFF MUL NOT AND SWAP1 DUP4 PUSH20 0xFFFFFFFFFFFFFFFFFFFFFFFFFFFFFFFFFFFFFFFF AND MUL OR SWAP1 SSTORE POP SWAP2 PUSH1 0x20 ADD SWAP2 SWAP1 PUSH1 0x1 ADD SWAP1 PUSH2 0x1A33 JUMP JUMPDEST JUMPDEST POP SWAP1 POP PUSH2 0x1A99 SWAP2 SWAP1 PUSH2 0x1AEA JUMP JUMPDEST POP SWAP1 JUMP JUMPDEST DUP3 DUP1 SLOAD DUP3 DUP3 SSTORE SWAP1 PUSH1 0x0 MSTORE PUSH1 0x20 PUSH1 0x0 KECCAK256 SWAP1 DUP2 ADD SWAP3 DUP3 ISZERO PUSH2 0x1AD9 JUMPI SWAP2 PUSH1 0x20 MUL DUP3 ADD JUMPDEST DUP3 DUP2 GT ISZERO PUSH2 0x1AD8 JUMPI DUP3 MLOAD DUP3 SSTORE SWAP2 PUSH1 0x20 ADD SWAP2 SWAP1 PUSH1 0x1 ADD SWAP1 PUSH2 0x1ABD JUMP JUMPDEST JUMPDEST POP SWAP1 POP PUSH2 0x1AE6 SWAP2 SWAP1 PUSH2 0x1AEA JUMP JUMPDEST POP SWAP1 JUMP JUMPDEST JUMPDEST DUP1 DUP3 GT ISZERO PUSH2 0x1B03 JUMPI PUSH1 0x0 DUP2 PUSH1 0x0 SWAP1 SSTORE POP PUSH1 0x1 ADD PUSH2 0x1AEB JUMP JUMPDEST POP SWAP1 JUMP JUMPDEST PUSH1 0x0 PUSH2 0x1B1A PUSH2 0x1B15 DUP5 PUSH2 0x26DA JUMP JUMPDEST PUSH2 0x26B5 JUMP JUMPDEST SWAP1 POP DUP1 DUP4 DUP3 MSTORE PUSH1 0x20 DUP3 ADD SWAP1 POP DUP3 DUP6 PUSH1 0x20 DUP7 MUL DUP3 ADD GT ISZERO PUSH2 0x1B39 JUMPI PUSH1 0x0 DUP1 REVERT JUMPDEST PUSH1 0x0 JUMPDEST DUP6 DUP2 LT ISZERO PUSH2 0x1B69 JUMPI DUP2 PUSH2 0x1B4F DUP9 DUP3 PUSH2 0x1C5B JUMP JUMPDEST DUP5 MSTORE PUSH1 0x20 DUP5 ADD SWAP4 POP PUSH1 0x20 DUP4 ADD SWAP3 POP POP PUSH1 0x1 DUP2 ADD SWAP1 POP PUSH2 0x1B3C JUMP JUMPDEST POP POP POP SWAP4 SWAP3 POP POP POP JUMP JUMPDEST PUSH1 0x0 PUSH2 0x1B86 PUSH2 0x1B81 DUP5 PUSH2 0x2706 JUMP JUMPDEST PUSH2 0x26B5 JUMP JUMPDEST SWAP1 POP DUP1 DUP4 DUP3 MSTORE PUSH1 0x20 DUP3 ADD SWAP1 POP DUP3 DUP6 PUSH1 0x20 DUP7 MUL DUP3 ADD GT ISZERO PUSH2 0x1BA5 JUMPI PUSH1 0x0 DUP1 REVERT JUMPDEST PUSH1 0x0 JUMPDEST DUP6 DUP2 LT ISZERO PUSH2 0x1BD5 JUMPI DUP2 PUSH2 0x1BBB DUP9 DUP3 PUSH2 0x1DD3 JUMP JUMPDEST DUP5 MSTORE PUSH1 0x20 DUP5 ADD SWAP4 POP PUSH1 0x20 DUP4 ADD SWAP3 POP POP PUSH1 0x1 DUP2 ADD SWAP1 POP PUSH2 0x1BA8 JUMP JUMPDEST POP POP POP SWAP4 SWAP3 POP POP POP JUMP JUMPDEST PUSH1 0x0 PUSH2 0x1BF2 PUSH2 0x1BED DUP5 PUSH2 0x2732 JUMP JUMPDEST PUSH2 0x26B5 JUMP JUMPDEST SWAP1 POP DUP3 DUP2 MSTORE PUSH1 0x20 DUP2 ADD DUP5 DUP5 DUP5 ADD GT ISZERO PUSH2 0x1C0A JUMPI PUSH1 0x0 DUP1 REVERT JUMPDEST PUSH2 0x1C15 DUP5 DUP3 DUP6 PUSH2 0x2978 JUMP JUMPDEST POP SWAP4 SWAP3 POP POP POP JUMP JUMPDEST PUSH1 0x0 PUSH2 0x1C30 PUSH2 0x1C2B DUP5 PUSH2 0x2763 JUMP JUMPDEST PUSH2 0x26B5 JUMP JUMPDEST SWAP1 POP DUP3 DUP2 MSTORE PUSH1 0x20 DUP2 ADD DUP5 DUP5 DUP5 ADD GT ISZERO PUSH2 0x1C48 JUMPI PUSH1 0x0 DUP1 REVERT JUMPDEST PUSH2 0x1C53 DUP5 DUP3 DUP6 PUSH2 0x2978 JUMP JUMPDEST POP SWAP4 SWAP3 POP POP POP JUMP JUMPDEST PUSH1 0x0 DUP2 CALLDATALOAD SWAP1 POP PUSH2 0x1C6A DUP2 PUSH2 0x2E31 JUMP JUMPDEST SWAP3 SWAP2 POP POP JUMP JUMPDEST PUSH1 0x0 DUP3 PUSH1 0x1F DUP4 ADD SLT PUSH2 0x1C81 JUMPI PUSH1 0x0 DUP1 REVERT JUMPDEST DUP2 CALLDATALOAD PUSH2 0x1C91 DUP5 DUP3 PUSH1 0x20 DUP7 ADD PUSH2 0x1B07 JUMP JUMPDEST SWAP2 POP POP SWAP3 SWAP2 POP POP JUMP JUMPDEST PUSH1 0x0 DUP3 PUSH1 0x1F DUP4 ADD SLT PUSH2 0x1CAB JUMPI PUSH1 0x0 DUP1 REVERT JUMPDEST DUP2 CALLDATALOAD PUSH2 0x1CBB DUP5 DUP3 PUSH1 0x20 DUP7 ADD PUSH2 0x1B73 JUMP JUMPDEST SWAP2 POP POP SWAP3 SWAP2 POP POP JUMP JUMPDEST PUSH1 0x0 DUP2 CALLDATALOAD SWAP1 POP PUSH2 0x1CD3 DUP2 PUSH2 0x2E48 JUMP JUMPDEST SWAP3 SWAP2 POP POP JUMP JUMPDEST PUSH1 0x0 DUP2 CALLDATALOAD SWAP1 POP PUSH2 0x1CE8 DUP2 PUSH2 0x2E5F JUMP JUMPDEST SWAP3 SWAP2 POP POP JUMP JUMPDEST PUSH1 0x0 DUP2 MLOAD SWAP1 POP PUSH2 0x1CFD DUP2 PUSH2 0x2E5F JUMP JUMPDEST SWAP3 SWAP2 POP POP JUMP JUMPDEST PUSH1 0x0 DUP3 PUSH1 0x1F DUP4 ADD SLT PUSH2 0x1D14 JUMPI PUSH1 0x0 DUP1 REVERT JUMPDEST DUP2 CALLDATALOAD PUSH2 0x1D24 DUP5 DUP3 PUSH1 0x20 DUP7 ADD PUSH2 0x1BDF JUMP JUMPDEST SWAP2 POP POP SWAP3 SWAP2 POP POP JUMP JUMPDEST PUSH1 0x0 DUP3 PUSH1 0x1F DUP4 ADD SLT PUSH2 0x1D3E JUMPI PUSH1 0x0 DUP1 REVERT JUMPDEST DUP2 CALLDATALOAD PUSH2 0x1D4E DUP5 DUP3 PUSH1 0x20 DUP7 ADD PUSH2 0x1C1D JUMP JUMPDEST SWAP2 POP POP SWAP3 SWAP2 POP POP JUMP JUMPDEST PUSH1 0x0 PUSH1 0x40 DUP3 DUP5 SUB SLT ISZERO PUSH2 0x1D69 JUMPI PUSH1 0x0 DUP1 REVERT JUMPDEST PUSH2 0x1D73 PUSH1 0x40 PUSH2 0x26B5 JUMP JUMPDEST SWAP1 POP PUSH1 0x0 DUP3 ADD CALLDATALOAD PUSH8 0xFFFFFFFFFFFFFFFF DUP2 GT ISZERO PUSH2 0x1D8F JUMPI PUSH1 0x0 DUP1 REVERT JUMPDEST PUSH2 0x1D9B DUP5 DUP3 DUP6 ADD PUSH2 0x1C70 JUMP JUMPDEST PUSH1 0x0 DUP4 ADD MSTORE POP PUSH1 0x20 DUP3 ADD CALLDATALOAD PUSH8 0xFFFFFFFFFFFFFFFF DUP2 GT ISZERO PUSH2 0x1DBB JUMPI PUSH1 0x0 DUP1 REVERT JUMPDEST PUSH2 0x1DC7 DUP5 DUP3 DUP6 ADD PUSH2 0x1C9A JUMP JUMPDEST PUSH1 0x20 DUP4 ADD MSTORE POP SWAP3 SWAP2 POP POP JUMP JUMPDEST PUSH1 0x0 DUP2 CALLDATALOAD SWAP1 POP PUSH2 0x1DE2 DUP2 PUSH2 0x2E76 JUMP JUMPDEST SWAP3 SWAP2 POP POP JUMP JUMPDEST PUSH1 0x0 PUSH1 0x20 DUP3 DUP5 SUB SLT ISZERO PUSH2 0x1DFA JUMPI PUSH1 0x0 DUP1 REVERT JUMPDEST PUSH1 0x0 PUSH2 0x1E08 DUP5 DUP3 DUP6 ADD PUSH2 0x1C5B JUMP JUMPDEST SWAP2 POP POP SWAP3 SWAP2 POP POP JUMP JUMPDEST PUSH1 0x0 DUP1 PUSH1 0x40 DUP4 DUP6 SUB SLT ISZERO PUSH2 0x1E24 JUMPI PUSH1 0x0 DUP1 REVERT JUMPDEST PUSH1 0x0 PUSH2 0x1E32 DUP6 DUP3 DUP7 ADD PUSH2 0x1C5B JUMP JUMPDEST SWAP3 POP POP PUSH1 0x20 PUSH2 0x1E43 DUP6 DUP3 DUP7 ADD PUSH2 0x1C5B JUMP JUMPDEST SWAP2 POP POP SWAP3 POP SWAP3 SWAP1 POP JUMP JUMPDEST PUSH1 0x0 DUP1 PUSH1 0x0 PUSH1 0x60 DUP5 DUP7 SUB SLT ISZERO PUSH2 0x1E62 JUMPI PUSH1 0x0 DUP1 REVERT JUMPDEST PUSH1 0x0 PUSH2 0x1E70 DUP7 DUP3 DUP8 ADD PUSH2 0x1C5B JUMP JUMPDEST SWAP4 POP POP PUSH1 0x20 PUSH2 0x1E81 DUP7 DUP3 DUP8 ADD PUSH2 0x1C5B JUMP JUMPDEST SWAP3 POP POP PUSH1 0x40 PUSH2 0x1E92 DUP7 DUP3 DUP8 ADD PUSH2 0x1DD3 JUMP JUMPDEST SWAP2 POP POP SWAP3 POP SWAP3 POP SWAP3 JUMP JUMPDEST PUSH1 0x0 DUP1 PUSH1 0x0 DUP1 PUSH1 0x80 DUP6 DUP8 SUB SLT ISZERO PUSH2 0x1EB2 JUMPI PUSH1 0x0 DUP1 REVERT JUMPDEST PUSH1 0x0 PUSH2 0x1EC0 DUP8 DUP3 DUP9 ADD PUSH2 0x1C5B JUMP JUMPDEST SWAP5 POP POP PUSH1 0x20 PUSH2 0x1ED1 DUP8 DUP3 DUP9 ADD PUSH2 0x1C5B JUMP JUMPDEST SWAP4 POP POP PUSH1 0x40 PUSH2 0x1EE2 DUP8 DUP3 DUP9 ADD PUSH2 0x1DD3 JUMP JUMPDEST SWAP3 POP POP PUSH1 0x60 DUP6 ADD CALLDATALOAD PUSH8 0xFFFFFFFFFFFFFFFF DUP2 GT ISZERO PUSH2 0x1EFF JUMPI PUSH1 0x0 DUP1 REVERT JUMPDEST PUSH2 0x1F0B DUP8 DUP3 DUP9 ADD PUSH2 0x1D03 JUMP JUMPDEST SWAP2 POP POP SWAP3 SWAP6 SWAP2 SWAP5 POP SWAP3 POP JUMP JUMPDEST PUSH1 0x0 DUP1 PUSH1 0x40 DUP4 DUP6 SUB SLT ISZERO PUSH2 0x1F2A JUMPI PUSH1 0x0 DUP1 REVERT JUMPDEST PUSH1 0x0 PUSH2 0x1F38 DUP6 DUP3 DUP7 ADD PUSH2 0x1C5B JUMP JUMPDEST SWAP3 POP POP PUSH1 0x20 PUSH2 0x1F49 DUP6 DUP3 DUP7 ADD PUSH2 0x1CC4 JUMP JUMPDEST SWAP2 POP POP SWAP3 POP SWAP3 SWAP1 POP JUMP JUMPDEST PUSH1 0x0 DUP1 PUSH1 0x0 DUP1 PUSH1 0x0 PUSH1 0xA0 DUP7 DUP9 SUB SLT ISZERO PUSH2 0x1F6B JUMPI PUSH1 0x0 DUP1 REVERT JUMPDEST PUSH1 0x0 PUSH2 0x1F79 DUP9 DUP3 DUP10 ADD PUSH2 0x1C5B JUMP JUMPDEST SWAP6 POP POP PUSH1 0x20 DUP7 ADD CALLDATALOAD PUSH8 0xFFFFFFFFFFFFFFFF DUP2 GT ISZERO PUSH2 0x1F96 JUMPI PUSH1 0x0 DUP1 REVERT JUMPDEST PUSH2 0x1FA2 DUP9 DUP3 DUP10 ADD PUSH2 0x1D57 JUMP JUMPDEST SWAP5 POP POP PUSH1 0x40 PUSH2 0x1FB3 DUP9 DUP3 DUP10 ADD PUSH2 0x1DD3 JUMP JUMPDEST SWAP4 POP POP PUSH1 0x60 PUSH2 0x1FC4 DUP9 DUP3 DUP10 ADD PUSH2 0x1DD3 JUMP JUMPDEST SWAP3 POP POP PUSH1 0x80 DUP7 ADD CALLDATALOAD PUSH8 0xFFFFFFFFFFFFFFFF DUP2 GT ISZERO PUSH2 0x1FE1 JUMPI PUSH1 0x0 DUP1 REVERT JUMPDEST PUSH2 0x1FED DUP9 DUP3 DUP10 ADD PUSH2 0x1D2D JUMP JUMPDEST SWAP2 POP POP SWAP3 SWAP6 POP SWAP3 SWAP6 SWAP1 SWAP4 POP JUMP JUMPDEST PUSH1 0x0 DUP1 PUSH1 0x40 DUP4 DUP6 SUB SLT ISZERO PUSH2 0x200D JUMPI PUSH1 0x0 DUP1 REVERT JUMPDEST PUSH1 0x0 PUSH2 0x201B DUP6 DUP3 DUP7 ADD PUSH2 0x1C5B JUMP JUMPDEST SWAP3 POP POP PUSH1 0x20 PUSH2 0x202C DUP6 DUP3 DUP7 ADD PUSH2 0x1DD3 JUMP JUMPDEST SWAP2 POP POP SWAP3 POP SWAP3 SWAP1 POP JUMP JUMPDEST PUSH1 0x0 PUSH1 0x20 DUP3 DUP5 SUB SLT ISZERO PUSH2 0x2048 JUMPI PUSH1 0x0 DUP1 REVERT JUMPDEST PUSH1 0x0 PUSH2 0x2056 DUP5 DUP3 DUP6 ADD PUSH2 0x1CD9 JUMP JUMPDEST SWAP2 POP POP SWAP3 SWAP2 POP POP JUMP JUMPDEST PUSH1 0x0 PUSH1 0x20 DUP3 DUP5 SUB SLT ISZERO PUSH2 0x2071 JUMPI PUSH1 0x0 DUP1 REVERT JUMPDEST PUSH1 0x0 PUSH2 0x207F DUP5 DUP3 DUP6 ADD PUSH2 0x1CEE JUMP JUMPDEST SWAP2 POP POP SWAP3 SWAP2 POP POP JUMP JUMPDEST PUSH1 0x0 PUSH1 0x20 DUP3 DUP5 SUB SLT ISZERO PUSH2 0x209A JUMPI PUSH1 0x0 DUP1 REVERT JUMPDEST PUSH1 0x0 PUSH2 0x20A8 DUP5 DUP3 DUP6 ADD PUSH2 0x1DD3 JUMP JUMPDEST SWAP2 POP POP SWAP3 SWAP2 POP POP JUMP JUMPDEST PUSH1 0x0 PUSH2 0x20BD DUP4 DUP4 PUSH2 0x20E1 JUMP JUMPDEST PUSH1 0x20 DUP4 ADD SWAP1 POP SWAP3 SWAP2 POP POP JUMP JUMPDEST PUSH1 0x0 PUSH2 0x20D5 DUP4 DUP4 PUSH2 0x2432 JUMP JUMPDEST PUSH1 0x20 DUP4 ADD SWAP1 POP SWAP3 SWAP2 POP POP JUMP JUMPDEST PUSH2 0x20EA DUP2 PUSH2 0x2904 JUMP JUMPDEST DUP3 MSTORE POP POP JUMP JUMPDEST PUSH2 0x20F9 DUP2 PUSH2 0x2904 JUMP JUMPDEST DUP3 MSTORE POP POP JUMP JUMPDEST PUSH1 0x0 PUSH2 0x210A DUP3 PUSH2 0x27B4 JUMP JUMPDEST PUSH2 0x2114 DUP2 DUP6 PUSH2 0x27FA JUMP JUMPDEST SWAP4 POP PUSH2 0x211F DUP4 PUSH2 0x2794 JUMP JUMPDEST DUP1 PUSH1 0x0 JUMPDEST DUP4 DUP2 LT ISZERO PUSH2 0x2150 JUMPI DUP2 MLOAD PUSH2 0x2137 DUP9 DUP3 PUSH2 0x20B1 JUMP JUMPDEST SWAP8 POP PUSH2 0x2142 DUP4 PUSH2 0x27E0 JUMP JUMPDEST SWAP3 POP POP PUSH1 0x1 DUP2 ADD SWAP1 POP PUSH2 0x2123 JUMP JUMPDEST POP DUP6 SWAP4 POP POP POP POP SWAP3 SWAP2 POP POP JUMP JUMPDEST PUSH1 0x0 PUSH2 0x2168 DUP3 PUSH2 0x27BF JUMP JUMPDEST PUSH2 0x2172 DUP2 DUP6 PUSH2 0x280B JUMP JUMPDEST SWAP4 POP PUSH2 0x217D DUP4 PUSH2 0x27A4 JUMP JUMPDEST DUP1 PUSH1 0x0 JUMPDEST DUP4 DUP2 LT ISZERO PUSH2 0x21AE JUMPI DUP2 MLOAD PUSH2 0x2195 DUP9 DUP3 PUSH2 0x20C9 JUMP JUMPDEST SWAP8 POP PUSH2 0x21A0 DUP4 PUSH2 0x27ED JUMP JUMPDEST SWAP3 POP POP PUSH1 0x1 DUP2 ADD SWAP1 POP PUSH2 0x2181 JUMP JUMPDEST POP DUP6 SWAP4 POP POP POP POP SWAP3 SWAP2 POP POP JUMP JUMPDEST PUSH2 0x21C4 DUP2 PUSH2 0x2916 JUMP JUMPDEST DUP3 MSTORE POP POP JUMP JUMPDEST PUSH1 0x0 PUSH2 0x21D5 DUP3 PUSH2 0x27CA JUMP JUMPDEST PUSH2 0x21DF DUP2 DUP6 PUSH2 0x281C JUMP JUMPDEST SWAP4 POP PUSH2 0x21EF DUP2 DUP6 PUSH1 0x20 DUP7 ADD PUSH2 0x2987 JUMP JUMPDEST PUSH2 0x21F8 DUP2 PUSH2 0x2B53 JUMP JUMPDEST DUP5 ADD SWAP2 POP POP SWAP3 SWAP2 POP POP JUMP JUMPDEST PUSH1 0x0 PUSH2 0x220E DUP3 PUSH2 0x27D5 JUMP JUMPDEST PUSH2 0x2218 DUP2 DUP6 PUSH2 0x282D JUMP JUMPDEST SWAP4 POP PUSH2 0x2228 DUP2 DUP6 PUSH1 0x20 DUP7 ADD PUSH2 0x2987 JUMP JUMPDEST PUSH2 0x2231 DUP2 PUSH2 0x2B53 JUMP JUMPDEST DUP5 ADD SWAP2 POP POP SWAP3 SWAP2 POP POP JUMP JUMPDEST PUSH1 0x0 PUSH2 0x2247 DUP3 PUSH2 0x27D5 JUMP JUMPDEST PUSH2 0x2251 DUP2 DUP6 PUSH2 0x283E JUMP JUMPDEST SWAP4 POP PUSH2 0x2261 DUP2 DUP6 PUSH1 0x20 DUP7 ADD PUSH2 0x2987 JUMP JUMPDEST DUP1 DUP5 ADD SWAP2 POP POP SWAP3 SWAP2 POP POP JUMP JUMPDEST PUSH1 0x0 PUSH2 0x227A PUSH1 0x2D DUP4 PUSH2 0x282D JUMP JUMPDEST SWAP2 POP PUSH2 0x2285 DUP3 PUSH2 0x2B64 JUMP JUMPDEST PUSH1 0x40 DUP3 ADD SWAP1 POP SWAP2 SWAP1 POP JUMP JUMPDEST PUSH1 0x0 PUSH2 0x229D PUSH1 0x32 DUP4 PUSH2 0x282D JUMP JUMPDEST SWAP2 POP PUSH2 0x22A8 DUP3 PUSH2 0x2BB3 JUMP JUMPDEST PUSH1 0x40 DUP3 ADD SWAP1 POP SWAP2 SWAP1 POP JUMP JUMPDEST PUSH1 0x0 PUSH2 0x22C0 PUSH1 0x25 DUP4 PUSH2 0x282D JUMP JUMPDEST SWAP2 POP PUSH2 0x22CB DUP3 PUSH2 0x2C02 JUMP JUMPDEST PUSH1 0x40 DUP3 ADD SWAP1 POP SWAP2 SWAP1 POP JUMP JUMPDEST PUSH1 0x0 PUSH2 0x22E3 PUSH1 0x1C DUP4 PUSH2 0x282D JUMP JUMPDEST SWAP2 POP PUSH2 0x22EE DUP3 PUSH2 0x2C51 JUMP JUMPDEST PUSH1 0x20 DUP3 ADD SWAP1 POP SWAP2 SWAP1 POP JUMP JUMPDEST PUSH1 0x0 PUSH2 0x2306 PUSH1 0x24 DUP4 PUSH2 0x282D JUMP JUMPDEST SWAP2 POP PUSH2 0x2311 DUP3 PUSH2 0x2C7A JUMP JUMPDEST PUSH1 0x40 DUP3 ADD SWAP1 POP SWAP2 SWAP1 POP JUMP JUMPDEST PUSH1 0x0 PUSH2 0x2329 PUSH1 0x19 DUP4 PUSH2 0x282D JUMP JUMPDEST SWAP2 POP PUSH2 0x2334 DUP3 PUSH2 0x2CC9 JUMP JUMPDEST PUSH1 0x20 DUP3 ADD SWAP1 POP SWAP2 SWAP1 POP JUMP JUMPDEST PUSH1 0x0 PUSH2 0x234C PUSH1 0x29 DUP4 PUSH2 0x282D JUMP JUMPDEST SWAP2 POP PUSH2 0x2357 DUP3 PUSH2 0x2CF2 JUMP JUMPDEST PUSH1 0x40 DUP3 ADD SWAP1 POP SWAP2 SWAP1 POP JUMP JUMPDEST PUSH1 0x0 PUSH2 0x236F PUSH1 0x20 DUP4 PUSH2 0x282D JUMP JUMPDEST SWAP2 POP PUSH2 0x237A DUP3 PUSH2 0x2D41 JUMP JUMPDEST PUSH1 0x20 DUP3 ADD SWAP1 POP SWAP2 SWAP1 POP JUMP JUMPDEST PUSH1 0x0 PUSH2 0x2392 PUSH1 0x18 DUP4 PUSH2 0x282D JUMP JUMPDEST SWAP2 POP PUSH2 0x239D DUP3 PUSH2 0x2D6A JUMP JUMPDEST PUSH1 0x20 DUP3 ADD SWAP1 POP SWAP2 SWAP1 POP JUMP JUMPDEST PUSH1 0x0 PUSH2 0x23B5 PUSH1 0x21 DUP4 PUSH2 0x282D JUMP JUMPDEST SWAP2 POP PUSH2 0x23C0 DUP3 PUSH2 0x2D93 JUMP JUMPDEST PUSH1 0x40 DUP3 ADD SWAP1 POP SWAP2 SWAP1 POP JUMP JUMPDEST PUSH1 0x0 PUSH2 0x23D8 PUSH1 0x3D DUP4 PUSH2 0x282D JUMP JUMPDEST SWAP2 POP PUSH2 0x23E3 DUP3 PUSH2 0x2DE2 JUMP JUMPDEST PUSH1 0x40 DUP3 ADD SWAP1 POP SWAP2 SWAP1 POP JUMP JUMPDEST PUSH1 0x0 PUSH1 0x40 DUP4 ADD PUSH1 0x0 DUP4 ADD MLOAD DUP5 DUP3 SUB PUSH1 0x0 DUP7 ADD MSTORE PUSH2 0x240B DUP3 DUP3 PUSH2 0x20FF JUMP JUMPDEST SWAP2 POP POP PUSH1 0x20 DUP4 ADD MLOAD DUP5 DUP3 SUB PUSH1 0x20 DUP7 ADD MSTORE PUSH2 0x2425 DUP3 DUP3 PUSH2 0x215D JUMP JUMPDEST SWAP2 POP POP DUP1 SWAP2 POP POP SWAP3 SWAP2 POP POP JUMP JUMPDEST PUSH2 0x243B DUP2 PUSH2 0x296E JUMP JUMPDEST DUP3 MSTORE POP POP JUMP JUMPDEST PUSH2 0x244A DUP2 PUSH2 0x296E JUMP JUMPDEST DUP3 MSTORE POP POP JUMP JUMPDEST PUSH1 0x0 PUSH2 0x245C DUP3 DUP6 PUSH2 0x223C JUMP JUMPDEST SWAP2 POP PUSH2 0x2468 DUP3 DUP5 PUSH2 0x223C JUMP JUMPDEST SWAP2 POP DUP2 SWAP1 POP SWAP4 SWAP3 POP POP POP JUMP JUMPDEST PUSH1 0x0 PUSH1 0x20 DUP3 ADD SWAP1 POP PUSH2 0x2489 PUSH1 0x0 DUP4 ADD DUP5 PUSH2 0x20F0 JUMP JUMPDEST SWAP3 SWAP2 POP POP JUMP JUMPDEST PUSH1 0x0 PUSH1 0x80 DUP3 ADD SWAP1 POP PUSH2 0x24A4 PUSH1 0x0 DUP4 ADD DUP8 PUSH2 0x20F0 JUMP JUMPDEST PUSH2 0x24B1 PUSH1 0x20 DUP4 ADD DUP7 PUSH2 0x20F0 JUMP JUMPDEST PUSH2 0x24BE PUSH1 0x40 DUP4 ADD DUP6 PUSH2 0x2441 JUMP JUMPDEST DUP2 DUP2 SUB PUSH1 0x60 DUP4 ADD MSTORE PUSH2 0x24D0 DUP2 DUP5 PUSH2 0x21CA JUMP JUMPDEST SWAP1 POP SWAP6 SWAP5 POP POP POP POP POP JUMP JUMPDEST PUSH1 0x0 PUSH1 0x20 DUP3 ADD SWAP1 POP PUSH2 0x24F0 PUSH1 0x0 DUP4 ADD DUP5 PUSH2 0x21BB JUMP JUMPDEST SWAP3 SWAP2 POP POP JUMP JUMPDEST PUSH1 0x0 PUSH1 0x20 DUP3 ADD SWAP1 POP DUP2 DUP2 SUB PUSH1 0x0 DUP4 ADD MSTORE PUSH2 0x2510 DUP2 DUP5 PUSH2 0x2203 JUMP JUMPDEST SWAP1 POP SWAP3 SWAP2 POP POP JUMP JUMPDEST PUSH1 0x0 PUSH1 0x20 DUP3 ADD SWAP1 POP DUP2 DUP2 SUB PUSH1 0x0 DUP4 ADD MSTORE PUSH2 0x2531 DUP2 PUSH2 0x226D JUMP JUMPDEST SWAP1 POP SWAP2 SWAP1 POP JUMP JUMPDEST PUSH1 0x0 PUSH1 0x20 DUP3 ADD SWAP1 POP DUP2 DUP2 SUB PUSH1 0x0 DUP4 ADD MSTORE PUSH2 0x2551 DUP2 PUSH2 0x2290 JUMP JUMPDEST SWAP1 POP SWAP2 SWAP1 POP JUMP JUMPDEST PUSH1 0x0 PUSH1 0x20 DUP3 ADD SWAP1 POP DUP2 DUP2 SUB PUSH1 0x0 DUP4 ADD MSTORE PUSH2 0x2571 DUP2 PUSH2 0x22B3 JUMP JUMPDEST SWAP1 POP SWAP2 SWAP1 POP JUMP JUMPDEST PUSH1 0x0 PUSH1 0x20 DUP3 ADD SWAP1 POP DUP2 DUP2 SUB PUSH1 0x0 DUP4 ADD MSTORE PUSH2 0x2591 DUP2 PUSH2 0x22D6 JUMP JUMPDEST SWAP1 POP SWAP2 SWAP1 POP JUMP JUMPDEST PUSH1 0x0 PUSH1 0x20 DUP3 ADD SWAP1 POP DUP2 DUP2 SUB PUSH1 0x0 DUP4 ADD MSTORE PUSH2 0x25B1 DUP2 PUSH2 0x22F9 JUMP JUMPDEST SWAP1 POP SWAP2 SWAP1 POP JUMP JUMPDEST PUSH1 0x0 PUSH1 0x20 DUP3 ADD SWAP1 POP DUP2 DUP2 SUB PUSH1 0x0 DUP4 ADD MSTORE PUSH2 0x25D1 DUP2 PUSH2 0x231C JUMP JUMPDEST SWAP1 POP SWAP2 SWAP1 POP JUMP JUMPDEST PUSH1 0x0 PUSH1 0x20 DUP3 ADD SWAP1 POP DUP2 DUP2 SUB PUSH1 0x0 DUP4 ADD MSTORE PUSH2 0x25F1 DUP2 PUSH2 0x233F JUMP JUMPDEST SWAP1 POP SWAP2 SWAP1 POP JUMP JUMPDEST PUSH1 0x0 PUSH1 0x20 DUP3 ADD SWAP1 POP DUP2 DUP2 SUB PUSH1 0x0 DUP4 ADD MSTORE PUSH2 0x2611 DUP2 PUSH2 0x2362 JUMP JUMPDEST SWAP1 POP SWAP2 SWAP1 POP JUMP JUMPDEST PUSH1 0x0 PUSH1 0x20 DUP3 ADD SWAP1 POP DUP2 DUP2 SUB PUSH1 0x0 DUP4 ADD MSTORE PUSH2 0x2631 DUP2 PUSH2 0x2385 JUMP JUMPDEST SWAP1 POP SWAP2 SWAP1 POP JUMP JUMPDEST PUSH1 0x0 PUSH1 0x20 DUP3 ADD SWAP1 POP DUP2 DUP2 SUB PUSH1 0x0 DUP4 ADD MSTORE PUSH2 0x2651 DUP2 PUSH2 0x23A8 JUMP JUMPDEST SWAP1 POP SWAP2 SWAP1 POP JUMP JUMPDEST PUSH1 0x0 PUSH1 0x20 DUP3 ADD SWAP1 POP DUP2 DUP2 SUB PUSH1 0x0 DUP4 ADD MSTORE PUSH2 0x2671 DUP2 PUSH2 0x23CB JUMP JUMPDEST SWAP1 POP SWAP2 SWAP1 POP JUMP JUMPDEST PUSH1 0x0 PUSH1 0x20 DUP3 ADD SWAP1 POP DUP2 DUP2 SUB PUSH1 0x0 DUP4 ADD MSTORE PUSH2 0x2692 DUP2 DUP5 PUSH2 0x23EE JUMP JUMPDEST SWAP1 POP SWAP3 SWAP2 POP POP JUMP JUMPDEST PUSH1 0x0 PUSH1 0x20 DUP3 ADD SWAP1 POP PUSH2 0x26AF PUSH1 0x0 DUP4 ADD DUP5 PUSH2 0x2441 JUMP JUMPDEST SWAP3 SWAP2 POP POP JUMP JUMPDEST PUSH1 0x0 PUSH2 0x26BF PUSH2 0x26D0 JUMP JUMPDEST SWAP1 POP PUSH2 0x26CB DUP3 DUP3 PUSH2 0x29EC JUMP JUMPDEST SWAP2 SWAP1 POP JUMP JUMPDEST PUSH1 0x0 PUSH1 0x40 MLOAD SWAP1 POP SWAP1 JUMP JUMPDEST PUSH1 0x0 PUSH8 0xFFFFFFFFFFFFFFFF DUP3 GT ISZERO PUSH2 0x26F5 JUMPI PUSH2 0x26F4 PUSH2 0x2B24 JUMP JUMPDEST JUMPDEST PUSH1 0x20 DUP3 MUL SWAP1 POP PUSH1 0x20 DUP2 ADD SWAP1 POP SWAP2 SWAP1 POP JUMP JUMPDEST PUSH1 0x0 PUSH8 0xFFFFFFFFFFFFFFFF DUP3 GT ISZERO PUSH2 0x2721 JUMPI PUSH2 0x2720 PUSH2 0x2B24 JUMP JUMPDEST JUMPDEST PUSH1 0x20 DUP3 MUL SWAP1 POP PUSH1 0x20 DUP2 ADD SWAP1 POP SWAP2 SWAP1 POP JUMP JUMPDEST PUSH1 0x0 PUSH8 0xFFFFFFFFFFFFFFFF DUP3 GT ISZERO PUSH2 0x274D JUMPI PUSH2 0x274C PUSH2 0x2B24 JUMP JUMPDEST JUMPDEST PUSH2 0x2756 DUP3 PUSH2 0x2B53 JUMP JUMPDEST SWAP1 POP PUSH1 0x20 DUP2 ADD SWAP1 POP SWAP2 SWAP1 POP JUMP JUMPDEST PUSH1 0x0 PUSH8 0xFFFFFFFFFFFFFFFF DUP3 GT ISZERO PUSH2 0x277E JUMPI PUSH2 0x277D PUSH2 0x2B24 JUMP JUMPDEST JUMPDEST PUSH2 0x2787 DUP3 PUSH2 0x2B53 JUMP JUMPDEST SWAP1 POP PUSH1 0x20 DUP2 ADD SWAP1 POP SWAP2 SWAP1 POP JUMP JUMPDEST PUSH1 0x0 DUP2 SWAP1 POP PUSH1 0x20 DUP3 ADD SWAP1 POP SWAP2 SWAP1 POP JUMP JUMPDEST PUSH1 0x0 DUP2 SWAP1 POP PUSH1 0x20 DUP3 ADD SWAP1 POP SWAP2 SWAP1 POP JUMP JUMPDEST PUSH1 0x0 DUP2 MLOAD SWAP1 POP SWAP2 SWAP1 POP JUMP JUMPDEST PUSH1 0x0 DUP2 MLOAD SWAP1 POP SWAP2 SWAP1 POP JUMP JUMPDEST PUSH1 0x0 DUP2 MLOAD SWAP1 POP SWAP2 SWAP1 POP JUMP JUMPDEST PUSH1 0x0 DUP2 MLOAD SWAP1 POP SWAP2 SWAP1 POP JUMP JUMPDEST PUSH1 0x0 PUSH1 0x20 DUP3 ADD SWAP1 POP SWAP2 SWAP1 POP JUMP JUMPDEST PUSH1 0x0 PUSH1 0x20 DUP3 ADD SWAP1 POP SWAP2 SWAP1 POP JUMP JUMPDEST PUSH1 0x0 DUP3 DUP3 MSTORE PUSH1 0x20 DUP3 ADD SWAP1 POP SWAP3 SWAP2 POP POP JUMP JUMPDEST PUSH1 0x0 DUP3 DUP3 MSTORE PUSH1 0x20 DUP3 ADD SWAP1 POP SWAP3 SWAP2 POP POP JUMP JUMPDEST PUSH1 0x0 DUP3 DUP3 MSTORE PUSH1 0x20 DUP3 ADD SWAP1 POP SWAP3 SWAP2 POP POP JUMP JUMPDEST PUSH1 0x0 DUP3 DUP3 MSTORE PUSH1 0x20 DUP3 ADD SWAP1 POP SWAP3 SWAP2 POP POP JUMP JUMPDEST PUSH1 0x0 DUP2 SWAP1 POP SWAP3 SWAP2 POP POP JUMP JUMPDEST PUSH1 0x0 PUSH2 0x2854 DUP3 PUSH2 0x296E JUMP JUMPDEST SWAP2 POP PUSH2 0x285F DUP4 PUSH2 0x296E JUMP JUMPDEST SWAP3 POP DUP3 PUSH32 0xFFFFFFFFFFFFFFFFFFFFFFFFFFFFFFFFFFFFFFFFFFFFFFFFFFFFFFFFFFFFFFFF SUB DUP3 GT ISZERO PUSH2 0x2894 JUMPI PUSH2 0x2893 PUSH2 0x2A97 JUMP JUMPDEST JUMPDEST DUP3 DUP3 ADD SWAP1 POP SWAP3 SWAP2 POP POP JUMP JUMPDEST PUSH1 0x0 PUSH2 0x28AA DUP3 PUSH2 0x296E JUMP JUMPDEST SWAP2 POP PUSH2 0x28B5 DUP4 PUSH2 0x296E JUMP JUMPDEST SWAP3 POP DUP3 PUSH2 0x28C5 JUMPI PUSH2 0x28C4 PUSH2 0x2AC6 JUMP JUMPDEST JUMPDEST DUP3 DUP3 DIV SWAP1 POP SWAP3 SWAP2 POP POP JUMP JUMPDEST PUSH1 0x0 PUSH2 0x28DB DUP3 PUSH2 0x296E JUMP JUMPDEST SWAP2 POP PUSH2 0x28E6 DUP4 PUSH2 0x296E JUMP JUMPDEST SWAP3 POP DUP3 DUP3 LT ISZERO PUSH2 0x28F9 JUMPI PUSH2 0x28F8 PUSH2 0x2A97 JUMP JUMPDEST JUMPDEST DUP3 DUP3 SUB SWAP1 POP SWAP3 SWAP2 POP POP JUMP JUMPDEST PUSH1 0x0 PUSH2 0x290F DUP3 PUSH2 0x294E JUMP JUMPDEST SWAP1 POP SWAP2 SWAP1 POP JUMP JUMPDEST PUSH1 0x0 DUP2 ISZERO ISZERO SWAP1 POP SWAP2 SWAP1 POP JUMP JUMPDEST PUSH1 0x0 PUSH32 0xFFFFFFFF00000000000000000000000000000000000000000000000000000000 DUP3 AND SWAP1 POP SWAP2 SWAP1 POP JUMP JUMPDEST PUSH1 0x0 PUSH20 0xFFFFFFFFFFFFFFFFFFFFFFFFFFFFFFFFFFFFFFFF DUP3 AND SWAP1 POP SWAP2 SWAP1 POP JUMP JUMPDEST PUSH1 0x0 DUP2 SWAP1 POP SWAP2 SWAP1 POP JUMP JUMPDEST DUP3 DUP2 DUP4 CALLDATACOPY PUSH1 0x0 DUP4 DUP4 ADD MSTORE POP POP POP JUMP JUMPDEST PUSH1 0x0 JUMPDEST DUP4 DUP2 LT ISZERO PUSH2 0x29A5 JUMPI DUP1 DUP3 ADD MLOAD DUP2 DUP5 ADD MSTORE PUSH1 0x20 DUP2 ADD SWAP1 POP PUSH2 0x298A JUMP JUMPDEST DUP4 DUP2 GT ISZERO PUSH2 0x29B4 JUMPI PUSH1 0x0 DUP5 DUP5 ADD MSTORE JUMPDEST POP POP POP POP JUMP JUMPDEST PUSH1 0x0 PUSH1 0x2 DUP3 DIV SWAP1 POP PUSH1 0x1 DUP3 AND DUP1 PUSH2 0x29D2 JUMPI PUSH1 0x7F DUP3 AND SWAP2 POP JUMPDEST PUSH1 0x20 DUP3 LT DUP2 EQ ISZERO PUSH2 0x29E6 JUMPI PUSH2 0x29E5 PUSH2 0x2AF5 JUMP JUMPDEST JUMPDEST POP SWAP2 SWAP1 POP JUMP JUMPDEST PUSH2 0x29F5 DUP3 PUSH2 0x2B53 JUMP JUMPDEST DUP2 ADD DUP2 DUP2 LT PUSH8 0xFFFFFFFFFFFFFFFF DUP3 GT OR ISZERO PUSH2 0x2A14 JUMPI PUSH2 0x2A13 PUSH2 0x2B24 JUMP JUMPDEST JUMPDEST DUP1 PUSH1 0x40 MSTORE POP POP POP JUMP JUMPDEST PUSH1 0x0 PUSH2 0x2A28 DUP3 PUSH2 0x296E JUMP JUMPDEST SWAP2 POP PUSH32 0xFFFFFFFFFFFFFFFFFFFFFFFFFFFFFFFFFFFFFFFFFFFFFFFFFFFFFFFFFFFFFFFF DUP3 EQ ISZERO PUSH2 0x2A5B JUMPI PUSH2 0x2A5A PUSH2 0x2A97 JUMP JUMPDEST JUMPDEST PUSH1 0x1 DUP3 ADD SWAP1 POP SWAP2 SWAP1 POP JUMP JUMPDEST PUSH1 0x0 PUSH2 0x2A71 DUP3 PUSH2 0x296E JUMP JUMPDEST SWAP2 POP PUSH2 0x2A7C DUP4 PUSH2 0x296E JUMP JUMPDEST SWAP3 POP DUP3 PUSH2 0x2A8C JUMPI PUSH2 0x2A8B PUSH2 0x2AC6 JUMP JUMPDEST JUMPDEST DUP3 DUP3 MOD SWAP1 POP SWAP3 SWAP2 POP POP JUMP JUMPDEST PUSH32 0x4E487B7100000000000000000000000000000000000000000000000000000000 PUSH1 0x0 MSTORE PUSH1 0x11 PUSH1 0x4 MSTORE PUSH1 0x24 PUSH1 0x0 REVERT JUMPDEST PUSH32 0x4E487B7100000000000000000000000000000000000000000000000000000000 PUSH1 0x0 MSTORE PUSH1 0x12 PUSH1 0x4 MSTORE PUSH1 0x24 PUSH1 0x0 REVERT JUMPDEST PUSH32 0x4E487B7100000000000000000000000000000000000000000000000000000000 PUSH1 0x0 MSTORE PUSH1 0x22 PUSH1 0x4 MSTORE PUSH1 0x24 PUSH1 0x0 REVERT JUMPDEST PUSH32 0x4E487B7100000000000000000000000000000000000000000000000000000000 PUSH1 0x0 MSTORE PUSH1 0x41 PUSH1 0x4 MSTORE PUSH1 0x24 PUSH1 0x0 REVERT JUMPDEST PUSH1 0x0 PUSH1 0x1F NOT PUSH1 0x1F DUP4 ADD AND SWAP1 POP SWAP2 SWAP1 POP JUMP JUMPDEST PUSH32 0x4552433732313A2063616C6C6572206973206E6F7420746F6B656E206F776E65 PUSH1 0x0 DUP3 ADD MSTORE PUSH32 0x72206F7220617070726F76656400000000000000000000000000000000000000 PUSH1 0x20 DUP3 ADD MSTORE POP JUMP JUMPDEST PUSH32 0x4552433732313A207472616E7366657220746F206E6F6E204552433732315265 PUSH1 0x0 DUP3 ADD MSTORE PUSH32 0x63656976657220696D706C656D656E7465720000000000000000000000000000 PUSH1 0x20 DUP3 ADD MSTORE POP JUMP JUMPDEST PUSH32 0x4552433732313A207472616E736665722066726F6D20696E636F727265637420 PUSH1 0x0 DUP3 ADD MSTORE PUSH32 0x6F776E6572000000000000000000000000000000000000000000000000000000 PUSH1 0x20 DUP3 ADD MSTORE POP JUMP JUMPDEST PUSH32 0x4552433732313A20746F6B656E20616C7265616479206D696E74656400000000 PUSH1 0x0 DUP3 ADD MSTORE POP JUMP JUMPDEST PUSH32 0x4552433732313A207472616E7366657220746F20746865207A65726F20616464 PUSH1 0x0 DUP3 ADD MSTORE PUSH32 0x7265737300000000000000000000000000000000000000000000000000000000 PUSH1 0x20 DUP3 ADD MSTORE POP JUMP JUMPDEST PUSH32 0x4552433732313A20617070726F766520746F2063616C6C657200000000000000 PUSH1 0x0 DUP3 ADD MSTORE POP JUMP JUMPDEST PUSH32 0x4552433732313A2061646472657373207A65726F206973206E6F742061207661 PUSH1 0x0 DUP3 ADD MSTORE PUSH32 0x6C6964206F776E65720000000000000000000000000000000000000000000000 PUSH1 0x20 DUP3 ADD MSTORE POP JUMP JUMPDEST PUSH32 0x4552433732313A206D696E7420746F20746865207A65726F2061646472657373 PUSH1 0x0 DUP3 ADD MSTORE POP JUMP JUMPDEST PUSH32 0x4552433732313A20696E76616C696420746F6B656E2049440000000000000000 PUSH1 0x0 DUP3 ADD MSTORE POP JUMP JUMPDEST PUSH32 0x4552433732313A20617070726F76616C20746F2063757272656E74206F776E65 PUSH1 0x0 DUP3 ADD MSTORE PUSH32 0x7200000000000000000000000000000000000000000000000000000000000000 PUSH1 0x20 DUP3 ADD MSTORE POP JUMP JUMPDEST PUSH32 0x4552433732313A20617070726F76652063616C6C6572206973206E6F7420746F PUSH1 0x0 DUP3 ADD MSTORE PUSH32 0x6B656E206F776E6572206F7220617070726F76656420666F7220616C6C000000 PUSH1 0x20 DUP3 ADD MSTORE POP JUMP JUMPDEST PUSH2 0x2E3A DUP2 PUSH2 0x2904 JUMP JUMPDEST DUP2 EQ PUSH2 0x2E45 JUMPI PUSH1 0x0 DUP1 REVERT JUMPDEST POP JUMP JUMPDEST PUSH2 0x2E51 DUP2 PUSH2 0x2916 JUMP JUMPDEST DUP2 EQ PUSH2 0x2E5C JUMPI PUSH1 0x0 DUP1 REVERT JUMPDEST POP JUMP JUMPDEST PUSH2 0x2E68 DUP2 PUSH2 0x2922 JUMP JUMPDEST DUP2 EQ PUSH2 0x2E73 JUMPI PUSH1 0x0 DUP1 REVERT JUMPDEST POP JUMP JUMPDEST PUSH2 0x2E7F DUP2 PUSH2 0x296E JUMP JUMPDEST DUP2 EQ PUSH2 0x2E8A JUMPI PUSH1 0x0 DUP1 REVERT JUMPDEST POP JUMP INVALID LOG2 PUSH5 0x6970667358 0x22 SLT KECCAK256 0x4D DELEGATECALL 0xC9 CALLVALUE SWAP6 ADDRESS 0xB9 0xBB SWAP14 SWAP12 0xBE 0xEE PUSH15 0x451D0340E5BE3F77BAC75496DEED78 PUSH21 0xB42FC564736F6C6343000804003300000000000000 "
				},
				"gasEstimates": {
					"creation": {
						"codeDepositCost": "2394200",
						"executionCost": "infinite",
						"totalCost": "infinite"
					},
					"external": {
						"approve(address,uint256)": "infinite",
						"balanceOf(address)": "1624",
						"collaboratotOf(uint256)": "infinite",
						"collaboratotPercentageOf(uint256)": "infinite",
						"getApproved(uint256)": "2657",
						"isApprovedForAll(address,address)": "infinite",
						"mint(address,(address[],uint256[]),uint256,uint256,string)": "infinite",
						"name()": "infinite",
						"ownerOf(uint256)": "1682",
						"safeTransferFrom(address,address,uint256)": "infinite",
						"safeTransferFrom(address,address,uint256,bytes)": "infinite",
						"setApprovalForAll(address,bool)": "infinite",
						"supportsInterface(bytes4)": "797",
						"symbol()": "infinite",
						"tokenURI(uint256)": "2102",
						"transferFrom(address,address,uint256)": "infinite"
					},
					"internal": {
						"_afterTokenTransfer(address,address,uint256)": "15",
						"_approve(address,uint256)": "infinite",
						"_baseURI()": "infinite",
						"_beforeTokenTransfer(address,address,uint256)": "15",
						"_burn(uint256)": "infinite",
						"_checkOnERC721Received(address,address,uint256,bytes memory)": "infinite",
						"_exists(uint256)": "969",
						"_isApprovedOrOwner(address,uint256)": "infinite",
						"_mint(address,struct nft.Collaborator memory,uint256,uint256)": "infinite",
						"_requireMinted(uint256)": "infinite",
						"_safeMint(address,struct nft.Collaborator memory,uint256,uint256)": "infinite",
						"_safeMint(address,struct nft.Collaborator memory,uint256,uint256,bytes memory)": "infinite",
						"_safeTransfer(address,address,uint256,bytes memory)": "infinite",
						"_setApprovalForAll(address,address,bool)": "infinite",
						"_setTokenURI(uint256,string memory)": "infinite",
						"_transfer(address,address,uint256)": "infinite"
					}
				},
				"methodIdentifiers": {
					"approve(address,uint256)": "095ea7b3",
					"balanceOf(address)": "70a08231",
					"collaboratotOf(uint256)": "52e04825",
					"collaboratotPercentageOf(uint256)": "ee48cda2",
					"getApproved(uint256)": "081812fc",
					"isApprovedForAll(address,address)": "e985e9c5",
					"mint(address,(address[],uint256[]),uint256,uint256,string)": "3ef85390",
					"name()": "06fdde03",
					"ownerOf(uint256)": "6352211e",
					"safeTransferFrom(address,address,uint256)": "42842e0e",
					"safeTransferFrom(address,address,uint256,bytes)": "b88d4fde",
					"setApprovalForAll(address,bool)": "a22cb465",
					"supportsInterface(bytes4)": "01ffc9a7",
					"symbol()": "95d89b41",
					"tokenURI(uint256)": "c87b56dd",
					"transferFrom(address,address,uint256)": "23b872dd"
				}
			},
			"storageLayout": {
				"storage": [
					{
						"astId": 816,
						"contract": "contracts/nft.sol:nft",
						"label": "_name",
						"offset": 0,
						"slot": "0",
						"type": "t_string_storage"
					},
					{
						"astId": 818,
						"contract": "contracts/nft.sol:nft",
						"label": "_symbol",
						"offset": 0,
						"slot": "1",
						"type": "t_string_storage"
					},
					{
						"astId": 829,
						"contract": "contracts/nft.sol:nft",
						"label": "_owners",
						"offset": 0,
						"slot": "2",
						"type": "t_mapping(t_uint256,t_address)"
					},
					{
						"astId": 834,
						"contract": "contracts/nft.sol:nft",
						"label": "_collaborators",
						"offset": 0,
						"slot": "3",
						"type": "t_mapping(t_uint256,t_struct(Collaborator)825_storage)"
					},
					{
						"astId": 838,
						"contract": "contracts/nft.sol:nft",
						"label": "_collaboratorsPercentage",
						"offset": 0,
						"slot": "4",
						"type": "t_mapping(t_uint256,t_uint256)"
					},
					{
						"astId": 842,
						"contract": "contracts/nft.sol:nft",
						"label": "_balances",
						"offset": 0,
						"slot": "5",
						"type": "t_mapping(t_address,t_uint256)"
					},
					{
						"astId": 846,
						"contract": "contracts/nft.sol:nft",
						"label": "_tokenApprovals",
						"offset": 0,
						"slot": "6",
						"type": "t_mapping(t_uint256,t_address)"
					},
					{
						"astId": 852,
						"contract": "contracts/nft.sol:nft",
						"label": "_operatorApprovals",
						"offset": 0,
						"slot": "7",
						"type": "t_mapping(t_address,t_mapping(t_address,t_bool))"
					},
					{
						"astId": 856,
						"contract": "contracts/nft.sol:nft",
						"label": "_tokenURIs",
						"offset": 0,
						"slot": "8",
						"type": "t_mapping(t_uint256,t_string_storage)"
					}
				],
				"types": {
					"t_address": {
						"encoding": "inplace",
						"label": "address",
						"numberOfBytes": "20"
					},
					"t_array(t_address)dyn_storage": {
						"base": "t_address",
						"encoding": "dynamic_array",
						"label": "address[]",
						"numberOfBytes": "32"
					},
					"t_array(t_uint256)dyn_storage": {
						"base": "t_uint256",
						"encoding": "dynamic_array",
						"label": "uint256[]",
						"numberOfBytes": "32"
					},
					"t_bool": {
						"encoding": "inplace",
						"label": "bool",
						"numberOfBytes": "1"
					},
					"t_mapping(t_address,t_bool)": {
						"encoding": "mapping",
						"key": "t_address",
						"label": "mapping(address => bool)",
						"numberOfBytes": "32",
						"value": "t_bool"
					},
					"t_mapping(t_address,t_mapping(t_address,t_bool))": {
						"encoding": "mapping",
						"key": "t_address",
						"label": "mapping(address => mapping(address => bool))",
						"numberOfBytes": "32",
						"value": "t_mapping(t_address,t_bool)"
					},
					"t_mapping(t_address,t_uint256)": {
						"encoding": "mapping",
						"key": "t_address",
						"label": "mapping(address => uint256)",
						"numberOfBytes": "32",
						"value": "t_uint256"
					},
					"t_mapping(t_uint256,t_address)": {
						"encoding": "mapping",
						"key": "t_uint256",
						"label": "mapping(uint256 => address)",
						"numberOfBytes": "32",
						"value": "t_address"
					},
					"t_mapping(t_uint256,t_string_storage)": {
						"encoding": "mapping",
						"key": "t_uint256",
						"label": "mapping(uint256 => string)",
						"numberOfBytes": "32",
						"value": "t_string_storage"
					},
					"t_mapping(t_uint256,t_struct(Collaborator)825_storage)": {
						"encoding": "mapping",
						"key": "t_uint256",
						"label": "mapping(uint256 => struct nft.Collaborator)",
						"numberOfBytes": "32",
						"value": "t_struct(Collaborator)825_storage"
					},
					"t_mapping(t_uint256,t_uint256)": {
						"encoding": "mapping",
						"key": "t_uint256",
						"label": "mapping(uint256 => uint256)",
						"numberOfBytes": "32",
						"value": "t_uint256"
					},
					"t_string_storage": {
						"encoding": "bytes",
						"label": "string",
						"numberOfBytes": "32"
					},
					"t_struct(Collaborator)825_storage": {
						"encoding": "inplace",
						"label": "struct nft.Collaborator",
						"members": [
							{
								"astId": 821,
								"contract": "contracts/nft.sol:nft",
								"label": "collabolator",
								"offset": 0,
								"slot": "0",
								"type": "t_array(t_address)dyn_storage"
							},
							{
								"astId": 824,
								"contract": "contracts/nft.sol:nft",
								"label": "percentage",
								"offset": 0,
								"slot": "1",
								"type": "t_array(t_uint256)dyn_storage"
							}
						],
						"numberOfBytes": "64"
					},
					"t_uint256": {
						"encoding": "inplace",
						"label": "uint256",
						"numberOfBytes": "32"
					}
				}
			},
			"userdoc": {
				"kind": "user",
				"methods": {},
				"version": 1
			}
		}
	}
}