{
	"contracts/nft.sol": {
		"nft": {
			"abi": [
				{
					"inputs": [
						{
							"internalType": "string",
							"name": "name_",
							"type": "string"
						},
						{
							"internalType": "string",
							"name": "symbol_",
							"type": "string"
						}
					],
					"stateMutability": "nonpayable",
					"type": "constructor"
				},
				{
					"anonymous": false,
					"inputs": [
						{
							"indexed": true,
							"internalType": "address",
							"name": "owner",
							"type": "address"
						},
						{
							"indexed": true,
							"internalType": "address",
							"name": "approved",
							"type": "address"
						},
						{
							"indexed": true,
							"internalType": "uint256",
							"name": "tokenId",
							"type": "uint256"
						}
					],
					"name": "Approval",
					"type": "event"
				},
				{
					"anonymous": false,
					"inputs": [
						{
							"indexed": true,
							"internalType": "address",
							"name": "owner",
							"type": "address"
						},
						{
							"indexed": true,
							"internalType": "address",
							"name": "operator",
							"type": "address"
						},
						{
							"indexed": false,
							"internalType": "bool",
							"name": "approved",
							"type": "bool"
						}
					],
					"name": "ApprovalForAll",
					"type": "event"
				},
				{
					"anonymous": false,
					"inputs": [
						{
							"indexed": true,
							"internalType": "address",
							"name": "from",
							"type": "address"
						},
						{
							"indexed": true,
							"internalType": "address",
							"name": "to",
							"type": "address"
						},
						{
							"indexed": true,
							"internalType": "uint256",
							"name": "tokenId",
							"type": "uint256"
						}
					],
					"name": "Transfer",
					"type": "event"
				},
				{
					"inputs": [
						{
							"internalType": "address",
							"name": "to",
							"type": "address"
						},
						{
							"internalType": "uint256",
							"name": "tokenId",
							"type": "uint256"
						}
					],
					"name": "approve",
					"outputs": [],
					"stateMutability": "nonpayable",
					"type": "function"
				},
				{
					"inputs": [
						{
							"internalType": "address",
							"name": "owner",
							"type": "address"
						}
					],
					"name": "balanceOf",
					"outputs": [
						{
							"internalType": "uint256",
							"name": "",
							"type": "uint256"
						}
					],
					"stateMutability": "view",
					"type": "function"
				},
				{
					"inputs": [
						{
							"internalType": "uint256",
							"name": "tokenId",
							"type": "uint256"
						}
					],
					"name": "collaboratotOf",
					"outputs": [
						{
							"internalType": "string[]",
							"name": "",
							"type": "string[]"
						}
					],
					"stateMutability": "view",
					"type": "function"
				},
				{
					"inputs": [
						{
							"internalType": "uint256",
							"name": "tokenId",
							"type": "uint256"
						}
					],
					"name": "collaboratotPercentageOf",
					"outputs": [
						{
							"internalType": "uint256",
							"name": "",
							"type": "uint256"
						}
					],
					"stateMutability": "view",
					"type": "function"
				},
				{
					"inputs": [
						{
							"internalType": "uint256",
							"name": "tokenId",
							"type": "uint256"
						}
					],
					"name": "getApproved",
					"outputs": [
						{
							"internalType": "address",
							"name": "",
							"type": "address"
						}
					],
					"stateMutability": "view",
					"type": "function"
				},
				{
					"inputs": [
						{
							"internalType": "address",
							"name": "owner",
							"type": "address"
						},
						{
							"internalType": "address",
							"name": "operator",
							"type": "address"
						}
					],
					"name": "isApprovedForAll",
					"outputs": [
						{
							"internalType": "bool",
							"name": "",
							"type": "bool"
						}
					],
					"stateMutability": "view",
					"type": "function"
				},
				{
					"inputs": [
						{
							"internalType": "address",
							"name": "to",
							"type": "address"
						},
						{
							"internalType": "string[]",
							"name": "collaborator",
							"type": "string[]"
						},
						{
							"internalType": "uint256",
							"name": "collaboratorPercent",
							"type": "uint256"
						},
						{
							"internalType": "uint256",
							"name": "tokenId",
							"type": "uint256"
						},
						{
							"internalType": "string",
							"name": "uri",
							"type": "string"
						}
					],
					"name": "mint",
					"outputs": [],
					"stateMutability": "nonpayable",
					"type": "function"
				},
				{
					"inputs": [],
					"name": "name",
					"outputs": [
						{
							"internalType": "string",
							"name": "",
							"type": "string"
						}
					],
					"stateMutability": "view",
					"type": "function"
				},
				{
					"inputs": [
						{
							"internalType": "uint256",
							"name": "tokenId",
							"type": "uint256"
						}
					],
					"name": "ownerOf",
					"outputs": [
						{
							"internalType": "address",
							"name": "",
							"type": "address"
						}
					],
					"stateMutability": "view",
					"type": "function"
				},
				{
					"inputs": [
						{
							"internalType": "address",
							"name": "from",
							"type": "address"
						},
						{
							"internalType": "address",
							"name": "to",
							"type": "address"
						},
						{
							"internalType": "uint256",
							"name": "tokenId",
							"type": "uint256"
						}
					],
					"name": "safeTransferFrom",
					"outputs": [],
					"stateMutability": "nonpayable",
					"type": "function"
				},
				{
					"inputs": [
						{
							"internalType": "address",
							"name": "from",
							"type": "address"
						},
						{
							"internalType": "address",
							"name": "to",
							"type": "address"
						},
						{
							"internalType": "uint256",
							"name": "tokenId",
							"type": "uint256"
						},
						{
							"internalType": "bytes",
							"name": "data",
							"type": "bytes"
						}
					],
					"name": "safeTransferFrom",
					"outputs": [],
					"stateMutability": "nonpayable",
					"type": "function"
				},
				{
					"inputs": [
						{
							"internalType": "address",
							"name": "operator",
							"type": "address"
						},
						{
							"internalType": "bool",
							"name": "approved",
							"type": "bool"
						}
					],
					"name": "setApprovalForAll",
					"outputs": [],
					"stateMutability": "nonpayable",
					"type": "function"
				},
				{
					"inputs": [
						{
							"internalType": "bytes4",
							"name": "interfaceId",
							"type": "bytes4"
						}
					],
					"name": "supportsInterface",
					"outputs": [
						{
							"internalType": "bool",
							"name": "",
							"type": "bool"
						}
					],
					"stateMutability": "view",
					"type": "function"
				},
				{
					"inputs": [],
					"name": "symbol",
					"outputs": [
						{
							"internalType": "string",
							"name": "",
							"type": "string"
						}
					],
					"stateMutability": "view",
					"type": "function"
				},
				{
					"inputs": [
						{
							"internalType": "uint256",
							"name": "tokenId",
							"type": "uint256"
						}
					],
					"name": "tokenURI",
					"outputs": [
						{
							"internalType": "string",
							"name": "",
							"type": "string"
						}
					],
					"stateMutability": "view",
					"type": "function"
				},
				{
					"inputs": [
						{
							"internalType": "address",
							"name": "from",
							"type": "address"
						},
						{
							"internalType": "address",
							"name": "to",
							"type": "address"
						},
						{
							"internalType": "uint256",
							"name": "tokenId",
							"type": "uint256"
						}
					],
					"name": "transferFrom",
					"outputs": [],
					"stateMutability": "nonpayable",
					"type": "function"
				}
			],
			"devdoc": {
				"kind": "dev",
				"methods": {
					"approve(address,uint256)": {
						"details": "Gives permission to `to` to transfer `tokenId` token to another account. The approval is cleared when the token is transferred. Only a single account can be approved at a time, so approving the zero address clears previous approvals. Requirements: - The caller must own the token or be an approved operator. - `tokenId` must exist. Emits an {Approval} event."
					},
					"balanceOf(address)": {
						"details": "Returns the number of tokens in ``owner``'s account."
					},
					"getApproved(uint256)": {
						"details": "Returns the account approved for `tokenId` token. Requirements: - `tokenId` must exist."
					},
					"isApprovedForAll(address,address)": {
						"details": "Returns if the `operator` is allowed to manage all of the assets of `owner`. See {setApprovalForAll}"
					},
					"name()": {
						"details": "Returns the token collection name."
					},
					"ownerOf(uint256)": {
						"details": "Returns the owner of the `tokenId` token. Requirements: - `tokenId` must exist."
					},
					"safeTransferFrom(address,address,uint256)": {
						"details": "Safely transfers `tokenId` token from `from` to `to`, checking first that contract recipients are aware of the ERC721 protocol to prevent tokens from being forever locked. Requirements: - `from` cannot be the zero address. - `to` cannot be the zero address. - `tokenId` token must exist and be owned by `from`. - If the caller is not `from`, it must be have been allowed to move this token by either {approve} or {setApprovalForAll}. - If `to` refers to a smart contract, it must implement {IERC721Receiver-onERC721Received}, which is called upon a safe transfer. Emits a {Transfer} event."
					},
					"safeTransferFrom(address,address,uint256,bytes)": {
						"details": "Safely transfers `tokenId` token from `from` to `to`. Requirements: - `from` cannot be the zero address. - `to` cannot be the zero address. - `tokenId` token must exist and be owned by `from`. - If the caller is not `from`, it must be approved to move this token by either {approve} or {setApprovalForAll}. - If `to` refers to a smart contract, it must implement {IERC721Receiver-onERC721Received}, which is called upon a safe transfer. Emits a {Transfer} event."
					},
					"symbol()": {
						"details": "Returns the token collection symbol."
					},
					"tokenURI(uint256)": {
						"details": "Returns the Uniform Resource Identifier (URI) for `tokenId` token."
					},
					"transferFrom(address,address,uint256)": {
						"details": "Transfers `tokenId` token from `from` to `to`. WARNING: Usage of this method is discouraged, use {safeTransferFrom} whenever possible. Requirements: - `from` cannot be the zero address. - `to` cannot be the zero address. - `tokenId` token must be owned by `from`. - If the caller is not `from`, it must be approved to move this token by either {approve} or {setApprovalForAll}. Emits a {Transfer} event."
					}
				},
				"version": 1
			},
			"evm": {
				"assembly": "    /* \"contracts/nft.sol\":677:10718  contract nft is Context, ERC165, IERC721, IERC721Metadata {\r... */\n  mstore(0x40, 0x80)\n    /* \"contracts/nft.sol\":1441:1557  constructor(string memory name_, string memory symbol_) {\r... */\n  callvalue\n  dup1\n  iszero\n  tag_1\n  jumpi\n  0x00\n  dup1\n  revert\ntag_1:\n  pop\n  mload(0x40)\n  sub(codesize, bytecodeSize)\n  dup1\n  bytecodeSize\n  dup4\n  codecopy\n  dup2\n  dup2\n  add\n  0x40\n  mstore\n  dup2\n  add\n  swap1\n  tag_2\n  swap2\n  swap1\n  tag_3\n  jump\t// in\ntag_2:\n    /* \"contracts/nft.sol\":1516:1521  name_ */\n  dup2\n    /* \"contracts/nft.sol\":1508:1513  _name */\n  0x00\n    /* \"contracts/nft.sol\":1508:1521  _name = name_ */\n  swap1\n  dup1\n  mload\n  swap1\n  0x20\n  add\n  swap1\n  tag_6\n  swap3\n  swap2\n  swap1\n  tag_7\n  jump\t// in\ntag_6:\n  pop\n    /* \"contracts/nft.sol\":1542:1549  symbol_ */\n  dup1\n    /* \"contracts/nft.sol\":1532:1539  _symbol */\n  0x01\n    /* \"contracts/nft.sol\":1532:1549  _symbol = symbol_ */\n  swap1\n  dup1\n  mload\n  swap1\n  0x20\n  add\n  swap1\n  tag_8\n  swap3\n  swap2\n  swap1\n  tag_7\n  jump\t// in\ntag_8:\n  pop\n    /* \"contracts/nft.sol\":1441:1557  constructor(string memory name_, string memory symbol_) {\r... */\n  pop\n  pop\n    /* \"contracts/nft.sol\":677:10718  contract nft is Context, ERC165, IERC721, IERC721Metadata {\r... */\n  jump(tag_9)\ntag_7:\n  dup3\n  dup1\n  sload\n  tag_10\n  swap1\n  tag_11\n  jump\t// in\ntag_10:\n  swap1\n  0x00\n  mstore\n  keccak256(0x00, 0x20)\n  swap1\n  0x1f\n  add\n  0x20\n  swap1\n  div\n  dup2\n  add\n  swap3\n  dup3\n  tag_13\n  jumpi\n  0x00\n  dup6\n  sstore\n  jump(tag_12)\ntag_13:\n  dup3\n  0x1f\n  lt\n  tag_14\n  jumpi\n  dup1\n  mload\n  not(0xff)\n  and\n  dup4\n  dup1\n  add\n  or\n  dup6\n  sstore\n  jump(tag_12)\ntag_14:\n  dup3\n  dup1\n  add\n  0x01\n  add\n  dup6\n  sstore\n  dup3\n  iszero\n  tag_12\n  jumpi\n  swap2\n  dup3\n  add\ntag_15:\n  dup3\n  dup2\n  gt\n  iszero\n  tag_16\n  jumpi\n  dup3\n  mload\n  dup3\n  sstore\n  swap2\n  0x20\n  add\n  swap2\n  swap1\n  0x01\n  add\n  swap1\n  jump(tag_15)\ntag_16:\ntag_12:\n  pop\n  swap1\n  pop\n  tag_17\n  swap2\n  swap1\n  tag_18\n  jump\t// in\ntag_17:\n  pop\n  swap1\n  jump\t// out\ntag_18:\ntag_19:\n  dup1\n  dup3\n  gt\n  iszero\n  tag_20\n  jumpi\n  0x00\n  dup2\n  0x00\n  swap1\n  sstore\n  pop\n  0x01\n  add\n  jump(tag_19)\ntag_20:\n  pop\n  swap1\n  jump\t// out\n    /* \"#utility.yul\":7:361   */\ntag_22:\n    /* \"#utility.yul\":96:101   */\n  0x00\n    /* \"#utility.yul\":121:187   */\n  tag_24\n    /* \"#utility.yul\":137:186   */\n  tag_25\n    /* \"#utility.yul\":179:185   */\n  dup5\n    /* \"#utility.yul\":137:186   */\n  tag_26\n  jump\t// in\ntag_25:\n    /* \"#utility.yul\":121:187   */\n  tag_27\n  jump\t// in\ntag_24:\n    /* \"#utility.yul\":112:187   */\n  swap1\n  pop\n    /* \"#utility.yul\":210:216   */\n  dup3\n    /* \"#utility.yul\":203:208   */\n  dup2\n    /* \"#utility.yul\":196:217   */\n  mstore\n    /* \"#utility.yul\":248:252   */\n  0x20\n    /* \"#utility.yul\":241:246   */\n  dup2\n    /* \"#utility.yul\":237:253   */\n  add\n    /* \"#utility.yul\":286:289   */\n  dup5\n    /* \"#utility.yul\":277:283   */\n  dup5\n    /* \"#utility.yul\":272:275   */\n  dup5\n    /* \"#utility.yul\":268:284   */\n  add\n    /* \"#utility.yul\":265:290   */\n  gt\n    /* \"#utility.yul\":262:264   */\n  iszero\n  tag_28\n  jumpi\n    /* \"#utility.yul\":303:304   */\n  0x00\n    /* \"#utility.yul\":300:301   */\n  dup1\n    /* \"#utility.yul\":293:305   */\n  revert\n    /* \"#utility.yul\":262:264   */\ntag_28:\n    /* \"#utility.yul\":316:355   */\n  tag_29\n    /* \"#utility.yul\":348:354   */\n  dup5\n    /* \"#utility.yul\":343:346   */\n  dup3\n    /* \"#utility.yul\":338:341   */\n  dup6\n    /* \"#utility.yul\":316:355   */\n  tag_30\n  jump\t// in\ntag_29:\n    /* \"#utility.yul\":102:361   */\n  pop\n  swap4\n  swap3\n  pop\n  pop\n  pop\n  jump\t// out\n    /* \"#utility.yul\":381:669   */\ntag_31:\n    /* \"#utility.yul\":448:453   */\n  0x00\n    /* \"#utility.yul\":497:500   */\n  dup3\n    /* \"#utility.yul\":490:494   */\n  0x1f\n    /* \"#utility.yul\":482:488   */\n  dup4\n    /* \"#utility.yul\":478:495   */\n  add\n    /* \"#utility.yul\":474:501   */\n  slt\n    /* \"#utility.yul\":464:466   */\n  tag_33\n  jumpi\n    /* \"#utility.yul\":515:516   */\n  0x00\n    /* \"#utility.yul\":512:513   */\n  dup1\n    /* \"#utility.yul\":505:517   */\n  revert\n    /* \"#utility.yul\":464:466   */\ntag_33:\n    /* \"#utility.yul\":548:554   */\n  dup2\n    /* \"#utility.yul\":542:555   */\n  mload\n    /* \"#utility.yul\":573:663   */\n  tag_34\n    /* \"#utility.yul\":659:662   */\n  dup5\n    /* \"#utility.yul\":651:657   */\n  dup3\n    /* \"#utility.yul\":644:648   */\n  0x20\n    /* \"#utility.yul\":636:642   */\n  dup7\n    /* \"#utility.yul\":632:649   */\n  add\n    /* \"#utility.yul\":573:663   */\n  tag_22\n  jump\t// in\ntag_34:\n    /* \"#utility.yul\":564:663   */\n  swap2\n  pop\n    /* \"#utility.yul\":454:669   */\n  pop\n  swap3\n  swap2\n  pop\n  pop\n  jump\t// out\n    /* \"#utility.yul\":675:1327   */\ntag_3:\n    /* \"#utility.yul\":774:780   */\n  0x00\n    /* \"#utility.yul\":782:788   */\n  dup1\n    /* \"#utility.yul\":831:833   */\n  0x40\n    /* \"#utility.yul\":819:828   */\n  dup4\n    /* \"#utility.yul\":810:817   */\n  dup6\n    /* \"#utility.yul\":806:829   */\n  sub\n    /* \"#utility.yul\":802:834   */\n  slt\n    /* \"#utility.yul\":799:801   */\n  iszero\n  tag_36\n  jumpi\n    /* \"#utility.yul\":847:848   */\n  0x00\n    /* \"#utility.yul\":844:845   */\n  dup1\n    /* \"#utility.yul\":837:849   */\n  revert\n    /* \"#utility.yul\":799:801   */\ntag_36:\n    /* \"#utility.yul\":911:912   */\n  0x00\n    /* \"#utility.yul\":900:909   */\n  dup4\n    /* \"#utility.yul\":896:913   */\n  add\n    /* \"#utility.yul\":890:914   */\n  mload\n    /* \"#utility.yul\":941:959   */\n  0xffffffffffffffff\n    /* \"#utility.yul\":933:939   */\n  dup2\n    /* \"#utility.yul\":930:960   */\n  gt\n    /* \"#utility.yul\":927:929   */\n  iszero\n  tag_37\n  jumpi\n    /* \"#utility.yul\":973:974   */\n  0x00\n    /* \"#utility.yul\":970:971   */\n  dup1\n    /* \"#utility.yul\":963:975   */\n  revert\n    /* \"#utility.yul\":927:929   */\ntag_37:\n    /* \"#utility.yul\":1001:1075   */\n  tag_38\n    /* \"#utility.yul\":1067:1074   */\n  dup6\n    /* \"#utility.yul\":1058:1064   */\n  dup3\n    /* \"#utility.yul\":1047:1056   */\n  dup7\n    /* \"#utility.yul\":1043:1065   */\n  add\n    /* \"#utility.yul\":1001:1075   */\n  tag_31\n  jump\t// in\ntag_38:\n    /* \"#utility.yul\":991:1075   */\n  swap3\n  pop\n    /* \"#utility.yul\":861:1085   */\n  pop\n    /* \"#utility.yul\":1145:1147   */\n  0x20\n    /* \"#utility.yul\":1134:1143   */\n  dup4\n    /* \"#utility.yul\":1130:1148   */\n  add\n    /* \"#utility.yul\":1124:1149   */\n  mload\n    /* \"#utility.yul\":1176:1194   */\n  0xffffffffffffffff\n    /* \"#utility.yul\":1168:1174   */\n  dup2\n    /* \"#utility.yul\":1165:1195   */\n  gt\n    /* \"#utility.yul\":1162:1164   */\n  iszero\n  tag_39\n  jumpi\n    /* \"#utility.yul\":1208:1209   */\n  0x00\n    /* \"#utility.yul\":1205:1206   */\n  dup1\n    /* \"#utility.yul\":1198:1210   */\n  revert\n    /* \"#utility.yul\":1162:1164   */\ntag_39:\n    /* \"#utility.yul\":1236:1310   */\n  tag_40\n    /* \"#utility.yul\":1302:1309   */\n  dup6\n    /* \"#utility.yul\":1293:1299   */\n  dup3\n    /* \"#utility.yul\":1282:1291   */\n  dup7\n    /* \"#utility.yul\":1278:1300   */\n  add\n    /* \"#utility.yul\":1236:1310   */\n  tag_31\n  jump\t// in\ntag_40:\n    /* \"#utility.yul\":1226:1310   */\n  swap2\n  pop\n    /* \"#utility.yul\":1095:1320   */\n  pop\n    /* \"#utility.yul\":789:1327   */\n  swap3\n  pop\n  swap3\n  swap1\n  pop\n  jump\t// out\n    /* \"#utility.yul\":1333:1462   */\ntag_27:\n    /* \"#utility.yul\":1367:1373   */\n  0x00\n    /* \"#utility.yul\":1394:1414   */\n  tag_42\n  tag_43\n  jump\t// in\ntag_42:\n    /* \"#utility.yul\":1384:1414   */\n  swap1\n  pop\n    /* \"#utility.yul\":1423:1456   */\n  tag_44\n    /* \"#utility.yul\":1451:1455   */\n  dup3\n    /* \"#utility.yul\":1443:1449   */\n  dup3\n    /* \"#utility.yul\":1423:1456   */\n  tag_45\n  jump\t// in\ntag_44:\n    /* \"#utility.yul\":1374:1462   */\n  swap2\n  swap1\n  pop\n  jump\t// out\n    /* \"#utility.yul\":1468:1543   */\ntag_43:\n    /* \"#utility.yul\":1501:1507   */\n  0x00\n    /* \"#utility.yul\":1534:1536   */\n  0x40\n    /* \"#utility.yul\":1528:1537   */\n  mload\n    /* \"#utility.yul\":1518:1537   */\n  swap1\n  pop\n    /* \"#utility.yul\":1508:1543   */\n  swap1\n  jump\t// out\n    /* \"#utility.yul\":1549:1857   */\ntag_26:\n    /* \"#utility.yul\":1611:1615   */\n  0x00\n    /* \"#utility.yul\":1701:1719   */\n  0xffffffffffffffff\n    /* \"#utility.yul\":1693:1699   */\n  dup3\n    /* \"#utility.yul\":1690:1720   */\n  gt\n    /* \"#utility.yul\":1687:1689   */\n  iszero\n  tag_48\n  jumpi\n    /* \"#utility.yul\":1723:1741   */\n  tag_49\n  tag_50\n  jump\t// in\ntag_49:\n    /* \"#utility.yul\":1687:1689   */\ntag_48:\n    /* \"#utility.yul\":1761:1790   */\n  tag_51\n    /* \"#utility.yul\":1783:1789   */\n  dup3\n    /* \"#utility.yul\":1761:1790   */\n  tag_52\n  jump\t// in\ntag_51:\n    /* \"#utility.yul\":1753:1790   */\n  swap1\n  pop\n    /* \"#utility.yul\":1845:1849   */\n  0x20\n    /* \"#utility.yul\":1839:1843   */\n  dup2\n    /* \"#utility.yul\":1835:1850   */\n  add\n    /* \"#utility.yul\":1827:1850   */\n  swap1\n  pop\n    /* \"#utility.yul\":1616:1857   */\n  swap2\n  swap1\n  pop\n  jump\t// out\n    /* \"#utility.yul\":1863:2170   */\ntag_30:\n    /* \"#utility.yul\":1931:1932   */\n  0x00\n    /* \"#utility.yul\":1941:2054   */\ntag_54:\n    /* \"#utility.yul\":1955:1961   */\n  dup4\n    /* \"#utility.yul\":1952:1953   */\n  dup2\n    /* \"#utility.yul\":1949:1962   */\n  lt\n    /* \"#utility.yul\":1941:2054   */\n  iszero\n  tag_56\n  jumpi\n    /* \"#utility.yul\":2040:2041   */\n  dup1\n    /* \"#utility.yul\":2035:2038   */\n  dup3\n    /* \"#utility.yul\":2031:2042   */\n  add\n    /* \"#utility.yul\":2025:2043   */\n  mload\n    /* \"#utility.yul\":2021:2022   */\n  dup2\n    /* \"#utility.yul\":2016:2019   */\n  dup5\n    /* \"#utility.yul\":2012:2023   */\n  add\n    /* \"#utility.yul\":2005:2044   */\n  mstore\n    /* \"#utility.yul\":1977:1979   */\n  0x20\n    /* \"#utility.yul\":1974:1975   */\n  dup2\n    /* \"#utility.yul\":1970:1980   */\n  add\n    /* \"#utility.yul\":1965:1980   */\n  swap1\n  pop\n    /* \"#utility.yul\":1941:2054   */\n  jump(tag_54)\ntag_56:\n    /* \"#utility.yul\":2072:2078   */\n  dup4\n    /* \"#utility.yul\":2069:2070   */\n  dup2\n    /* \"#utility.yul\":2066:2079   */\n  gt\n    /* \"#utility.yul\":2063:2065   */\n  iszero\n  tag_57\n  jumpi\n    /* \"#utility.yul\":2152:2153   */\n  0x00\n    /* \"#utility.yul\":2143:2149   */\n  dup5\n    /* \"#utility.yul\":2138:2141   */\n  dup5\n    /* \"#utility.yul\":2134:2150   */\n  add\n    /* \"#utility.yul\":2127:2154   */\n  mstore\n    /* \"#utility.yul\":2063:2065   */\ntag_57:\n    /* \"#utility.yul\":1912:2170   */\n  pop\n  pop\n  pop\n  pop\n  jump\t// out\n    /* \"#utility.yul\":2176:2496   */\ntag_11:\n    /* \"#utility.yul\":2220:2226   */\n  0x00\n    /* \"#utility.yul\":2257:2258   */\n  0x02\n    /* \"#utility.yul\":2251:2255   */\n  dup3\n    /* \"#utility.yul\":2247:2259   */\n  div\n    /* \"#utility.yul\":2237:2259   */\n  swap1\n  pop\n    /* \"#utility.yul\":2304:2305   */\n  0x01\n    /* \"#utility.yul\":2298:2302   */\n  dup3\n    /* \"#utility.yul\":2294:2306   */\n  and\n    /* \"#utility.yul\":2325:2343   */\n  dup1\n    /* \"#utility.yul\":2315:2317   */\n  tag_59\n  jumpi\n    /* \"#utility.yul\":2381:2385   */\n  0x7f\n    /* \"#utility.yul\":2373:2379   */\n  dup3\n    /* \"#utility.yul\":2369:2386   */\n  and\n    /* \"#utility.yul\":2359:2386   */\n  swap2\n  pop\n    /* \"#utility.yul\":2315:2317   */\ntag_59:\n    /* \"#utility.yul\":2443:2445   */\n  0x20\n    /* \"#utility.yul\":2435:2441   */\n  dup3\n    /* \"#utility.yul\":2432:2446   */\n  lt\n    /* \"#utility.yul\":2412:2430   */\n  dup2\n    /* \"#utility.yul\":2409:2447   */\n  eq\n    /* \"#utility.yul\":2406:2408   */\n  iszero\n  tag_60\n  jumpi\n    /* \"#utility.yul\":2462:2480   */\n  tag_61\n  tag_62\n  jump\t// in\ntag_61:\n    /* \"#utility.yul\":2406:2408   */\ntag_60:\n    /* \"#utility.yul\":2227:2496   */\n  pop\n  swap2\n  swap1\n  pop\n  jump\t// out\n    /* \"#utility.yul\":2502:2783   */\ntag_45:\n    /* \"#utility.yul\":2585:2612   */\n  tag_64\n    /* \"#utility.yul\":2607:2611   */\n  dup3\n    /* \"#utility.yul\":2585:2612   */\n  tag_52\n  jump\t// in\ntag_64:\n    /* \"#utility.yul\":2577:2583   */\n  dup2\n    /* \"#utility.yul\":2573:2613   */\n  add\n    /* \"#utility.yul\":2715:2721   */\n  dup2\n    /* \"#utility.yul\":2703:2713   */\n  dup2\n    /* \"#utility.yul\":2700:2722   */\n  lt\n    /* \"#utility.yul\":2679:2697   */\n  0xffffffffffffffff\n    /* \"#utility.yul\":2667:2677   */\n  dup3\n    /* \"#utility.yul\":2664:2698   */\n  gt\n    /* \"#utility.yul\":2661:2723   */\n  or\n    /* \"#utility.yul\":2658:2660   */\n  iszero\n  tag_65\n  jumpi\n    /* \"#utility.yul\":2726:2744   */\n  tag_66\n  tag_50\n  jump\t// in\ntag_66:\n    /* \"#utility.yul\":2658:2660   */\ntag_65:\n    /* \"#utility.yul\":2766:2776   */\n  dup1\n    /* \"#utility.yul\":2762:2764   */\n  0x40\n    /* \"#utility.yul\":2755:2777   */\n  mstore\n    /* \"#utility.yul\":2545:2783   */\n  pop\n  pop\n  pop\n  jump\t// out\n    /* \"#utility.yul\":2789:2969   */\ntag_62:\n    /* \"#utility.yul\":2837:2914   */\n  0x4e487b7100000000000000000000000000000000000000000000000000000000\n    /* \"#utility.yul\":2834:2835   */\n  0x00\n    /* \"#utility.yul\":2827:2915   */\n  mstore\n    /* \"#utility.yul\":2934:2938   */\n  0x22\n    /* \"#utility.yul\":2931:2932   */\n  0x04\n    /* \"#utility.yul\":2924:2939   */\n  mstore\n    /* \"#utility.yul\":2958:2962   */\n  0x24\n    /* \"#utility.yul\":2955:2956   */\n  0x00\n    /* \"#utility.yul\":2948:2963   */\n  revert\n    /* \"#utility.yul\":2975:3155   */\ntag_50:\n    /* \"#utility.yul\":3023:3100   */\n  0x4e487b7100000000000000000000000000000000000000000000000000000000\n    /* \"#utility.yul\":3020:3021   */\n  0x00\n    /* \"#utility.yul\":3013:3101   */\n  mstore\n    /* \"#utility.yul\":3120:3124   */\n  0x41\n    /* \"#utility.yul\":3117:3118   */\n  0x04\n    /* \"#utility.yul\":3110:3125   */\n  mstore\n    /* \"#utility.yul\":3144:3148   */\n  0x24\n    /* \"#utility.yul\":3141:3142   */\n  0x00\n    /* \"#utility.yul\":3134:3149   */\n  revert\n    /* \"#utility.yul\":3161:3263   */\ntag_52:\n    /* \"#utility.yul\":3202:3208   */\n  0x00\n    /* \"#utility.yul\":3253:3255   */\n  0x1f\n    /* \"#utility.yul\":3249:3256   */\n  not\n    /* \"#utility.yul\":3244:3246   */\n  0x1f\n    /* \"#utility.yul\":3237:3242   */\n  dup4\n    /* \"#utility.yul\":3233:3247   */\n  add\n    /* \"#utility.yul\":3229:3257   */\n  and\n    /* \"#utility.yul\":3219:3257   */\n  swap1\n  pop\n    /* \"#utility.yul\":3209:3263   */\n  swap2\n  swap1\n  pop\n  jump\t// out\n    /* \"contracts/nft.sol\":677:10718  contract nft is Context, ERC165, IERC721, IERC721Metadata {\r... */\ntag_9:\n  dataSize(sub_0)\n  dup1\n  dataOffset(sub_0)\n  0x00\n  codecopy\n  0x00\n  return\nstop\n\nsub_0: assembly {\n        /* \"contracts/nft.sol\":677:10718  contract nft is Context, ERC165, IERC721, IERC721Metadata {\r... */\n      mstore(0x40, 0x80)\n      callvalue\n      dup1\n      iszero\n      tag_1\n      jumpi\n      0x00\n      dup1\n      revert\n    tag_1:\n      pop\n      jumpi(tag_2, lt(calldatasize, 0x04))\n      shr(0xe0, calldataload(0x00))\n      dup1\n      0x6352211e\n      gt\n      tag_19\n      jumpi\n      dup1\n      0xb88d4fde\n      gt\n      tag_20\n      jumpi\n      dup1\n      0xb88d4fde\n      eq\n      tag_15\n      jumpi\n      dup1\n      0xc87b56dd\n      eq\n      tag_16\n      jumpi\n      dup1\n      0xe985e9c5\n      eq\n      tag_17\n      jumpi\n      dup1\n      0xee48cda2\n      eq\n      tag_18\n      jumpi\n      jump(tag_2)\n    tag_20:\n      dup1\n      0x6352211e\n      eq\n      tag_11\n      jumpi\n      dup1\n      0x70a08231\n      eq\n      tag_12\n      jumpi\n      dup1\n      0x95d89b41\n      eq\n      tag_13\n      jumpi\n      dup1\n      0xa22cb465\n      eq\n      tag_14\n      jumpi\n      jump(tag_2)\n    tag_19:\n      dup1\n      0x1fe29658\n      gt\n      tag_21\n      jumpi\n      dup1\n      0x1fe29658\n      eq\n      tag_7\n      jumpi\n      dup1\n      0x23b872dd\n      eq\n      tag_8\n      jumpi\n      dup1\n      0x42842e0e\n      eq\n      tag_9\n      jumpi\n      dup1\n      0x52e04825\n      eq\n      tag_10\n      jumpi\n      jump(tag_2)\n    tag_21:\n      dup1\n      0x01ffc9a7\n      eq\n      tag_3\n      jumpi\n      dup1\n      0x06fdde03\n      eq\n      tag_4\n      jumpi\n      dup1\n      0x081812fc\n      eq\n      tag_5\n      jumpi\n      dup1\n      0x095ea7b3\n      eq\n      tag_6\n      jumpi\n    tag_2:\n      0x00\n      dup1\n      revert\n        /* \"contracts/nft.sol\":1567:1872  function supportsInterface(bytes4 interfaceId) public view virtual override(ERC165, IERC165) returns (bool) {\r... */\n    tag_3:\n      tag_22\n      0x04\n      dup1\n      calldatasize\n      sub\n      dup2\n      add\n      swap1\n      tag_23\n      swap2\n      swap1\n      tag_24\n      jump\t// in\n    tag_23:\n      tag_25\n      jump\t// in\n    tag_22:\n      mload(0x40)\n      tag_26\n      swap2\n      swap1\n      tag_27\n      jump\t// in\n    tag_26:\n      mload(0x40)\n      dup1\n      swap2\n      sub\n      swap1\n      return\n        /* \"contracts/nft.sol\":2750:2850  function name() public view virtual override returns (string memory) {\r... */\n    tag_4:\n      tag_28\n      tag_29\n      jump\t// in\n    tag_28:\n      mload(0x40)\n      tag_30\n      swap2\n      swap1\n      tag_31\n      jump\t// in\n    tag_30:\n      mload(0x40)\n      dup1\n      swap2\n      sub\n      swap1\n      return\n        /* \"contracts/nft.sol\":3786:3957  function getApproved(uint256 tokenId) public view virtual override returns (address) {\r... */\n    tag_5:\n      tag_32\n      0x04\n      dup1\n      calldatasize\n      sub\n      dup2\n      add\n      swap1\n      tag_33\n      swap2\n      swap1\n      tag_34\n      jump\t// in\n    tag_33:\n      tag_35\n      jump\t// in\n    tag_32:\n      mload(0x40)\n      tag_36\n      swap2\n      swap1\n      tag_37\n      jump\t// in\n    tag_36:\n      mload(0x40)\n      dup1\n      swap2\n      sub\n      swap1\n      return\n        /* \"contracts/nft.sol\":3362:3775  function approve(address to, uint256 tokenId) public virtual override {\r... */\n    tag_6:\n      tag_38\n      0x04\n      dup1\n      calldatasize\n      sub\n      dup2\n      add\n      swap1\n      tag_39\n      swap2\n      swap1\n      tag_40\n      jump\t// in\n    tag_39:\n      tag_41\n      jump\t// in\n    tag_38:\n      stop\n        /* \"contracts/nft.sol\":5126:5358  function mint(address to,string[] memory collaborator,uint256  collaboratorPercent,uint tokenId,string memory uri) public{\r... */\n    tag_7:\n      tag_42\n      0x04\n      dup1\n      calldatasize\n      sub\n      dup2\n      add\n      swap1\n      tag_43\n      swap2\n      swap1\n      tag_44\n      jump\t// in\n    tag_43:\n      tag_45\n      jump\t// in\n    tag_42:\n      stop\n        /* \"contracts/nft.sol\":4308:4590  function transferFrom(\r... */\n    tag_8:\n      tag_46\n      0x04\n      dup1\n      calldatasize\n      sub\n      dup2\n      add\n      swap1\n      tag_47\n      swap2\n      swap1\n      tag_48\n      jump\t// in\n    tag_47:\n      tag_49\n      jump\t// in\n    tag_46:\n      stop\n        /* \"contracts/nft.sol\":4600:4785  function safeTransferFrom(\r... */\n    tag_9:\n      tag_50\n      0x04\n      dup1\n      calldatasize\n      sub\n      dup2\n      add\n      swap1\n      tag_51\n      swap2\n      swap1\n      tag_48\n      jump\t// in\n    tag_51:\n      tag_52\n      jump\t// in\n    tag_50:\n      stop\n        /* \"contracts/nft.sol\":2330:2520  function collaboratotOf(uint256 tokenId) public view virtual returns (string[] memory) {\r... */\n    tag_10:\n      tag_53\n      0x04\n      dup1\n      calldatasize\n      sub\n      dup2\n      add\n      swap1\n      tag_54\n      swap2\n      swap1\n      tag_34\n      jump\t// in\n    tag_54:\n      tag_55\n      jump\t// in\n    tag_53:\n      mload(0x40)\n      tag_56\n      swap2\n      swap1\n      tag_57\n      jump\t// in\n    tag_56:\n      mload(0x40)\n      dup1\n      swap2\n      sub\n      swap1\n      return\n        /* \"contracts/nft.sol\":2099:2321  function ownerOf(uint256 tokenId) public view virtual override returns (address) {\r... */\n    tag_11:\n      tag_58\n      0x04\n      dup1\n      calldatasize\n      sub\n      dup2\n      add\n      swap1\n      tag_59\n      swap2\n      swap1\n      tag_34\n      jump\t// in\n    tag_59:\n      tag_60\n      jump\t// in\n    tag_58:\n      mload(0x40)\n      tag_61\n      swap2\n      swap1\n      tag_37\n      jump\t// in\n    tag_61:\n      mload(0x40)\n      dup1\n      swap2\n      sub\n      swap1\n      return\n        /* \"contracts/nft.sol\":1882:2089  function balanceOf(address owner) public view virtual override returns (uint256) {\r... */\n    tag_12:\n      tag_62\n      0x04\n      dup1\n      calldatasize\n      sub\n      dup2\n      add\n      swap1\n      tag_63\n      swap2\n      swap1\n      tag_64\n      jump\t// in\n    tag_63:\n      tag_65\n      jump\t// in\n    tag_62:\n      mload(0x40)\n      tag_66\n      swap2\n      swap1\n      tag_67\n      jump\t// in\n    tag_66:\n      mload(0x40)\n      dup1\n      swap2\n      sub\n      swap1\n      return\n        /* \"contracts/nft.sol\":2859:2963  function symbol() public view virtual override returns (string memory) {\r... */\n    tag_13:\n      tag_68\n      tag_69\n      jump\t// in\n    tag_68:\n      mload(0x40)\n      tag_70\n      swap2\n      swap1\n      tag_31\n      jump\t// in\n    tag_70:\n      mload(0x40)\n      dup1\n      swap2\n      sub\n      swap1\n      return\n        /* \"contracts/nft.sol\":3969:4124  function setApprovalForAll(address operator, bool approved) public virtual override {\r... */\n    tag_14:\n      tag_71\n      0x04\n      dup1\n      calldatasize\n      sub\n      dup2\n      add\n      swap1\n      tag_72\n      swap2\n      swap1\n      tag_73\n      jump\t// in\n    tag_72:\n      tag_74\n      jump\t// in\n    tag_71:\n      stop\n        /* \"contracts/nft.sol\":4795:5117  function safeTransferFrom(\r... */\n    tag_15:\n      tag_75\n      0x04\n      dup1\n      calldatasize\n      sub\n      dup2\n      add\n      swap1\n      tag_76\n      swap2\n      swap1\n      tag_77\n      jump\t// in\n    tag_76:\n      tag_78\n      jump\t// in\n    tag_75:\n      stop\n        /* \"contracts/nft.sol\":2971:3252  function tokenURI(uint256 tokenId) public view virtual override returns (string memory) {\r... */\n    tag_16:\n      tag_79\n      0x04\n      dup1\n      calldatasize\n      sub\n      dup2\n      add\n      swap1\n      tag_80\n      swap2\n      swap1\n      tag_34\n      jump\t// in\n    tag_80:\n      tag_81\n      jump\t// in\n    tag_79:\n      mload(0x40)\n      tag_82\n      swap2\n      swap1\n      tag_31\n      jump\t// in\n    tag_82:\n      mload(0x40)\n      dup1\n      swap2\n      sub\n      swap1\n      return\n        /* \"contracts/nft.sol\":4134:4298  function isApprovedForAll(address owner, address operator) public view virtual override returns (bool) {\r... */\n    tag_17:\n      tag_83\n      0x04\n      dup1\n      calldatasize\n      sub\n      dup2\n      add\n      swap1\n      tag_84\n      swap2\n      swap1\n      tag_85\n      jump\t// in\n    tag_84:\n      tag_86\n      jump\t// in\n    tag_83:\n      mload(0x40)\n      tag_87\n      swap2\n      swap1\n      tag_27\n      jump\t// in\n    tag_87:\n      mload(0x40)\n      dup1\n      swap2\n      sub\n      swap1\n      return\n        /* \"contracts/nft.sol\":2528:2742  function collaboratotPercentageOf(uint256 tokenId) public view virtual returns (uint256) {\r... */\n    tag_18:\n      tag_88\n      0x04\n      dup1\n      calldatasize\n      sub\n      dup2\n      add\n      swap1\n      tag_89\n      swap2\n      swap1\n      tag_34\n      jump\t// in\n    tag_89:\n      tag_90\n      jump\t// in\n    tag_88:\n      mload(0x40)\n      tag_91\n      swap2\n      swap1\n      tag_67\n      jump\t// in\n    tag_91:\n      mload(0x40)\n      dup1\n      swap2\n      sub\n      swap1\n      return\n        /* \"contracts/nft.sol\":1567:1872  function supportsInterface(bytes4 interfaceId) public view virtual override(ERC165, IERC165) returns (bool) {\r... */\n    tag_25:\n        /* \"contracts/nft.sol\":1669:1673  bool */\n      0x00\n        /* \"contracts/nft.sol\":1721:1746  type(IERC721).interfaceId */\n      0x80ac58cd00000000000000000000000000000000000000000000000000000000\n        /* \"contracts/nft.sol\":1706:1746  interfaceId == type(IERC721).interfaceId */\n      not(0xffffffffffffffffffffffffffffffffffffffffffffffffffffffff)\n      and\n        /* \"contracts/nft.sol\":1706:1717  interfaceId */\n      dup3\n        /* \"contracts/nft.sol\":1706:1746  interfaceId == type(IERC721).interfaceId */\n      not(0xffffffffffffffffffffffffffffffffffffffffffffffffffffffff)\n      and\n      eq\n        /* \"contracts/nft.sol\":1706:1811  interfaceId == type(IERC721).interfaceId ||\r... */\n      dup1\n      tag_93\n      jumpi\n      pop\n        /* \"contracts/nft.sol\":1778:1811  type(IERC721Metadata).interfaceId */\n      0x5b5e139f00000000000000000000000000000000000000000000000000000000\n        /* \"contracts/nft.sol\":1763:1811  interfaceId == type(IERC721Metadata).interfaceId */\n      not(0xffffffffffffffffffffffffffffffffffffffffffffffffffffffff)\n      and\n        /* \"contracts/nft.sol\":1763:1774  interfaceId */\n      dup3\n        /* \"contracts/nft.sol\":1763:1811  interfaceId == type(IERC721Metadata).interfaceId */\n      not(0xffffffffffffffffffffffffffffffffffffffffffffffffffffffff)\n      and\n      eq\n        /* \"contracts/nft.sol\":1706:1811  interfaceId == type(IERC721).interfaceId ||\r... */\n    tag_93:\n        /* \"contracts/nft.sol\":1706:1864  interfaceId == type(IERC721).interfaceId ||\r... */\n      dup1\n      tag_94\n      jumpi\n      pop\n        /* \"contracts/nft.sol\":1828:1864  super.supportsInterface(interfaceId) */\n      tag_95\n        /* \"contracts/nft.sol\":1852:1863  interfaceId */\n      dup3\n        /* \"contracts/nft.sol\":1828:1851  super.supportsInterface */\n      tag_96\n        /* \"contracts/nft.sol\":1828:1864  super.supportsInterface(interfaceId) */\n      jump\t// in\n    tag_95:\n        /* \"contracts/nft.sol\":1706:1864  interfaceId == type(IERC721).interfaceId ||\r... */\n    tag_94:\n        /* \"contracts/nft.sol\":1686:1864  return\r... */\n      swap1\n      pop\n        /* \"contracts/nft.sol\":1567:1872  function supportsInterface(bytes4 interfaceId) public view virtual override(ERC165, IERC165) returns (bool) {\r... */\n      swap2\n      swap1\n      pop\n      jump\t// out\n        /* \"contracts/nft.sol\":2750:2850  function name() public view virtual override returns (string memory) {\r... */\n    tag_29:\n        /* \"contracts/nft.sol\":2804:2817  string memory */\n      0x60\n        /* \"contracts/nft.sol\":2837:2842  _name */\n      0x00\n        /* \"contracts/nft.sol\":2830:2842  return _name */\n      dup1\n      sload\n      tag_98\n      swap1\n      tag_99\n      jump\t// in\n    tag_98:\n      dup1\n      0x1f\n      add\n      0x20\n      dup1\n      swap2\n      div\n      mul\n      0x20\n      add\n      mload(0x40)\n      swap1\n      dup2\n      add\n      0x40\n      mstore\n      dup1\n      swap3\n      swap2\n      swap1\n      dup2\n      dup2\n      mstore\n      0x20\n      add\n      dup3\n      dup1\n      sload\n      tag_100\n      swap1\n      tag_99\n      jump\t// in\n    tag_100:\n      dup1\n      iszero\n      tag_101\n      jumpi\n      dup1\n      0x1f\n      lt\n      tag_102\n      jumpi\n      0x0100\n      dup1\n      dup4\n      sload\n      div\n      mul\n      dup4\n      mstore\n      swap2\n      0x20\n      add\n      swap2\n      jump(tag_101)\n    tag_102:\n      dup3\n      add\n      swap2\n      swap1\n      0x00\n      mstore\n      keccak256(0x00, 0x20)\n      swap1\n    tag_103:\n      dup2\n      sload\n      dup2\n      mstore\n      swap1\n      0x01\n      add\n      swap1\n      0x20\n      add\n      dup1\n      dup4\n      gt\n      tag_103\n      jumpi\n      dup3\n      swap1\n      sub\n      0x1f\n      and\n      dup3\n      add\n      swap2\n    tag_101:\n      pop\n      pop\n      pop\n      pop\n      pop\n      swap1\n      pop\n        /* \"contracts/nft.sol\":2750:2850  function name() public view virtual override returns (string memory) {\r... */\n      swap1\n      jump\t// out\n        /* \"contracts/nft.sol\":3786:3957  function getApproved(uint256 tokenId) public view virtual override returns (address) {\r... */\n    tag_35:\n        /* \"contracts/nft.sol\":3862:3869  address */\n      0x00\n        /* \"contracts/nft.sol\":3882:3905  _requireMinted(tokenId) */\n      tag_105\n        /* \"contracts/nft.sol\":3897:3904  tokenId */\n      dup3\n        /* \"contracts/nft.sol\":3882:3896  _requireMinted */\n      tag_106\n        /* \"contracts/nft.sol\":3882:3905  _requireMinted(tokenId) */\n      jump\t// in\n    tag_105:\n        /* \"contracts/nft.sol\":3925:3940  _tokenApprovals */\n      0x06\n        /* \"contracts/nft.sol\":3925:3949  _tokenApprovals[tokenId] */\n      0x00\n        /* \"contracts/nft.sol\":3941:3948  tokenId */\n      dup4\n        /* \"contracts/nft.sol\":3925:3949  _tokenApprovals[tokenId] */\n      dup2\n      mstore\n      0x20\n      add\n      swap1\n      dup2\n      mstore\n      0x20\n      add\n      0x00\n      keccak256\n      0x00\n      swap1\n      sload\n      swap1\n      0x0100\n      exp\n      swap1\n      div\n      0xffffffffffffffffffffffffffffffffffffffff\n      and\n        /* \"contracts/nft.sol\":3918:3949  return _tokenApprovals[tokenId] */\n      swap1\n      pop\n        /* \"contracts/nft.sol\":3786:3957  function getApproved(uint256 tokenId) public view virtual override returns (address) {\r... */\n      swap2\n      swap1\n      pop\n      jump\t// out\n        /* \"contracts/nft.sol\":3362:3775  function approve(address to, uint256 tokenId) public virtual override {\r... */\n    tag_41:\n        /* \"contracts/nft.sol\":3443:3456  address owner */\n      0x00\n        /* \"contracts/nft.sol\":3459:3479  nft.ownerOf(tokenId) */\n      tag_108\n        /* \"contracts/nft.sol\":3471:3478  tokenId */\n      dup3\n        /* \"contracts/nft.sol\":3459:3470  nft.ownerOf */\n      tag_60\n        /* \"contracts/nft.sol\":3459:3479  nft.ownerOf(tokenId) */\n      jump\t// in\n    tag_108:\n        /* \"contracts/nft.sol\":3443:3479  address owner = nft.ownerOf(tokenId) */\n      swap1\n      pop\n        /* \"contracts/nft.sol\":3504:3509  owner */\n      dup1\n        /* \"contracts/nft.sol\":3498:3509  to != owner */\n      0xffffffffffffffffffffffffffffffffffffffff\n      and\n        /* \"contracts/nft.sol\":3498:3500  to */\n      dup4\n        /* \"contracts/nft.sol\":3498:3509  to != owner */\n      0xffffffffffffffffffffffffffffffffffffffff\n      and\n      eq\n      iszero\n        /* \"contracts/nft.sol\":3490:3547  require(to != owner, \"ERC721: approval to current owner\") */\n      tag_109\n      jumpi\n      mload(0x40)\n      0x08c379a000000000000000000000000000000000000000000000000000000000\n      dup2\n      mstore\n      0x04\n      add\n      tag_110\n      swap1\n      tag_111\n      jump\t// in\n    tag_110:\n      mload(0x40)\n      dup1\n      swap2\n      sub\n      swap1\n      revert\n    tag_109:\n        /* \"contracts/nft.sol\":3598:3603  owner */\n      dup1\n        /* \"contracts/nft.sol\":3582:3603  _msgSender() == owner */\n      0xffffffffffffffffffffffffffffffffffffffff\n      and\n        /* \"contracts/nft.sol\":3582:3594  _msgSender() */\n      tag_112\n        /* \"contracts/nft.sol\":3582:3592  _msgSender */\n      tag_113\n        /* \"contracts/nft.sol\":3582:3594  _msgSender() */\n      jump\t// in\n    tag_112:\n        /* \"contracts/nft.sol\":3582:3603  _msgSender() == owner */\n      0xffffffffffffffffffffffffffffffffffffffff\n      and\n      eq\n        /* \"contracts/nft.sol\":3582:3644  _msgSender() == owner || isApprovedForAll(owner, _msgSender()) */\n      dup1\n      tag_114\n      jumpi\n      pop\n        /* \"contracts/nft.sol\":3607:3644  isApprovedForAll(owner, _msgSender()) */\n      tag_115\n        /* \"contracts/nft.sol\":3624:3629  owner */\n      dup2\n        /* \"contracts/nft.sol\":3631:3643  _msgSender() */\n      tag_116\n        /* \"contracts/nft.sol\":3631:3641  _msgSender */\n      tag_113\n        /* \"contracts/nft.sol\":3631:3643  _msgSender() */\n      jump\t// in\n    tag_116:\n        /* \"contracts/nft.sol\":3607:3623  isApprovedForAll */\n      tag_86\n        /* \"contracts/nft.sol\":3607:3644  isApprovedForAll(owner, _msgSender()) */\n      jump\t// in\n    tag_115:\n        /* \"contracts/nft.sol\":3582:3644  _msgSender() == owner || isApprovedForAll(owner, _msgSender()) */\n    tag_114:\n        /* \"contracts/nft.sol\":3560:3733  require(\r... */\n      tag_117\n      jumpi\n      mload(0x40)\n      0x08c379a000000000000000000000000000000000000000000000000000000000\n      dup2\n      mstore\n      0x04\n      add\n      tag_118\n      swap1\n      tag_119\n      jump\t// in\n    tag_118:\n      mload(0x40)\n      dup1\n      swap2\n      sub\n      swap1\n      revert\n    tag_117:\n        /* \"contracts/nft.sol\":3746:3767  _approve(to, tokenId) */\n      tag_120\n        /* \"contracts/nft.sol\":3755:3757  to */\n      dup4\n        /* \"contracts/nft.sol\":3759:3766  tokenId */\n      dup4\n        /* \"contracts/nft.sol\":3746:3754  _approve */\n      tag_121\n        /* \"contracts/nft.sol\":3746:3767  _approve(to, tokenId) */\n      jump\t// in\n    tag_120:\n        /* \"contracts/nft.sol\":3362:3775  function approve(address to, uint256 tokenId) public virtual override {\r... */\n      pop\n      pop\n      pop\n      jump\t// out\n        /* \"contracts/nft.sol\":5126:5358  function mint(address to,string[] memory collaborator,uint256  collaboratorPercent,uint tokenId,string memory uri) public{\r... */\n    tag_45:\n        /* \"contracts/nft.sol\":5258:5313  _safeMint(to, collaborator,collaboratorPercent,tokenId) */\n      tag_123\n        /* \"contracts/nft.sol\":5268:5270  to */\n      dup6\n        /* \"contracts/nft.sol\":5272:5284  collaborator */\n      dup6\n        /* \"contracts/nft.sol\":5285:5304  collaboratorPercent */\n      dup6\n        /* \"contracts/nft.sol\":5305:5312  tokenId */\n      dup6\n        /* \"contracts/nft.sol\":5258:5267  _safeMint */\n      tag_124\n        /* \"contracts/nft.sol\":5258:5313  _safeMint(to, collaborator,collaboratorPercent,tokenId) */\n      jump\t// in\n    tag_123:\n        /* \"contracts/nft.sol\":5324:5350  _setTokenURI(tokenId, uri) */\n      tag_125\n        /* \"contracts/nft.sol\":5337:5344  tokenId */\n      dup3\n        /* \"contracts/nft.sol\":5346:5349  uri */\n      dup3\n        /* \"contracts/nft.sol\":5324:5336  _setTokenURI */\n      tag_126\n        /* \"contracts/nft.sol\":5324:5350  _setTokenURI(tokenId, uri) */\n      jump\t// in\n    tag_125:\n        /* \"contracts/nft.sol\":5126:5358  function mint(address to,string[] memory collaborator,uint256  collaboratorPercent,uint tokenId,string memory uri) public{\r... */\n      pop\n      pop\n      pop\n      pop\n      pop\n      jump\t// out\n        /* \"contracts/nft.sol\":4308:4590  function transferFrom(\r... */\n    tag_49:\n        /* \"contracts/nft.sol\":4450:4491  _isApprovedOrOwner(_msgSender(), tokenId) */\n      tag_128\n        /* \"contracts/nft.sol\":4469:4481  _msgSender() */\n      tag_129\n        /* \"contracts/nft.sol\":4469:4479  _msgSender */\n      tag_113\n        /* \"contracts/nft.sol\":4469:4481  _msgSender() */\n      jump\t// in\n    tag_129:\n        /* \"contracts/nft.sol\":4483:4490  tokenId */\n      dup3\n        /* \"contracts/nft.sol\":4450:4468  _isApprovedOrOwner */\n      tag_130\n        /* \"contracts/nft.sol\":4450:4491  _isApprovedOrOwner(_msgSender(), tokenId) */\n      jump\t// in\n    tag_128:\n        /* \"contracts/nft.sol\":4442:4541  require(_isApprovedOrOwner(_msgSender(), tokenId), \"ERC721: caller is not token owner or approved\") */\n      tag_131\n      jumpi\n      mload(0x40)\n      0x08c379a000000000000000000000000000000000000000000000000000000000\n      dup2\n      mstore\n      0x04\n      add\n      tag_132\n      swap1\n      tag_133\n      jump\t// in\n    tag_132:\n      mload(0x40)\n      dup1\n      swap2\n      sub\n      swap1\n      revert\n    tag_131:\n        /* \"contracts/nft.sol\":4554:4582  _transfer(from, to, tokenId) */\n      tag_134\n        /* \"contracts/nft.sol\":4564:4568  from */\n      dup4\n        /* \"contracts/nft.sol\":4570:4572  to */\n      dup4\n        /* \"contracts/nft.sol\":4574:4581  tokenId */\n      dup4\n        /* \"contracts/nft.sol\":4554:4563  _transfer */\n      tag_135\n        /* \"contracts/nft.sol\":4554:4582  _transfer(from, to, tokenId) */\n      jump\t// in\n    tag_134:\n        /* \"contracts/nft.sol\":4308:4590  function transferFrom(\r... */\n      pop\n      pop\n      pop\n      jump\t// out\n        /* \"contracts/nft.sol\":4600:4785  function safeTransferFrom(\r... */\n    tag_52:\n        /* \"contracts/nft.sol\":4738:4777  safeTransferFrom(from, to, tokenId, \"\") */\n      tag_137\n        /* \"contracts/nft.sol\":4755:4759  from */\n      dup4\n        /* \"contracts/nft.sol\":4761:4763  to */\n      dup4\n        /* \"contracts/nft.sol\":4765:4772  tokenId */\n      dup4\n        /* \"contracts/nft.sol\":4738:4777  safeTransferFrom(from, to, tokenId, \"\") */\n      mload(0x40)\n      dup1\n      0x20\n      add\n      0x40\n      mstore\n      dup1\n      0x00\n      dup2\n      mstore\n      pop\n        /* \"contracts/nft.sol\":4738:4754  safeTransferFrom */\n      tag_78\n        /* \"contracts/nft.sol\":4738:4777  safeTransferFrom(from, to, tokenId, \"\") */\n      jump\t// in\n    tag_137:\n        /* \"contracts/nft.sol\":4600:4785  function safeTransferFrom(\r... */\n      pop\n      pop\n      pop\n      jump\t// out\n        /* \"contracts/nft.sol\":2330:2520  function collaboratotOf(uint256 tokenId) public view virtual returns (string[] memory) {\r... */\n    tag_55:\n        /* \"contracts/nft.sol\":2400:2415  string[] memory */\n      0x60\n        /* \"contracts/nft.sol\":2428:2456  string[] memory collaborator */\n      0x00\n        /* \"contracts/nft.sol\":2459:2473  _collaborators */\n      0x03\n        /* \"contracts/nft.sol\":2459:2482  _collaborators[tokenId] */\n      0x00\n        /* \"contracts/nft.sol\":2474:2481  tokenId */\n      dup5\n        /* \"contracts/nft.sol\":2459:2482  _collaborators[tokenId] */\n      dup2\n      mstore\n      0x20\n      add\n      swap1\n      dup2\n      mstore\n      0x20\n      add\n      0x00\n      keccak256\n        /* \"contracts/nft.sol\":2428:2482  string[] memory collaborator = _collaborators[tokenId] */\n      dup1\n      sload\n      dup1\n      0x20\n      mul\n      0x20\n      add\n      mload(0x40)\n      swap1\n      dup2\n      add\n      0x40\n      mstore\n      dup1\n      swap3\n      swap2\n      swap1\n      dup2\n      dup2\n      mstore\n      0x20\n      add\n      0x00\n      swap1\n    tag_139:\n      dup3\n      dup3\n      lt\n      iszero\n      tag_140\n      jumpi\n      dup4\n      dup3\n      swap1\n      0x00\n      mstore\n      keccak256(0x00, 0x20)\n      add\n      dup1\n      sload\n      tag_142\n      swap1\n      tag_99\n      jump\t// in\n    tag_142:\n      dup1\n      0x1f\n      add\n      0x20\n      dup1\n      swap2\n      div\n      mul\n      0x20\n      add\n      mload(0x40)\n      swap1\n      dup2\n      add\n      0x40\n      mstore\n      dup1\n      swap3\n      swap2\n      swap1\n      dup2\n      dup2\n      mstore\n      0x20\n      add\n      dup3\n      dup1\n      sload\n      tag_143\n      swap1\n      tag_99\n      jump\t// in\n    tag_143:\n      dup1\n      iszero\n      tag_144\n      jumpi\n      dup1\n      0x1f\n      lt\n      tag_145\n      jumpi\n      0x0100\n      dup1\n      dup4\n      sload\n      div\n      mul\n      dup4\n      mstore\n      swap2\n      0x20\n      add\n      swap2\n      jump(tag_144)\n    tag_145:\n      dup3\n      add\n      swap2\n      swap1\n      0x00\n      mstore\n      keccak256(0x00, 0x20)\n      swap1\n    tag_146:\n      dup2\n      sload\n      dup2\n      mstore\n      swap1\n      0x01\n      add\n      swap1\n      0x20\n      add\n      dup1\n      dup4\n      gt\n      tag_146\n      jumpi\n      dup3\n      swap1\n      sub\n      0x1f\n      and\n      dup3\n      add\n      swap2\n    tag_144:\n      pop\n      pop\n      pop\n      pop\n      pop\n      dup2\n      mstore\n      0x20\n      add\n      swap1\n      0x01\n      add\n      swap1\n      jump(tag_139)\n    tag_140:\n      pop\n      pop\n      pop\n      pop\n      swap1\n      pop\n        /* \"contracts/nft.sol\":2500:2512  collaborator */\n      dup1\n        /* \"contracts/nft.sol\":2493:2512  return collaborator */\n      swap2\n      pop\n      pop\n        /* \"contracts/nft.sol\":2330:2520  function collaboratotOf(uint256 tokenId) public view virtual returns (string[] memory) {\r... */\n      swap2\n      swap1\n      pop\n      jump\t// out\n        /* \"contracts/nft.sol\":2099:2321  function ownerOf(uint256 tokenId) public view virtual override returns (address) {\r... */\n    tag_60:\n        /* \"contracts/nft.sol\":2171:2178  address */\n      0x00\n        /* \"contracts/nft.sol\":2191:2204  address owner */\n      dup1\n        /* \"contracts/nft.sol\":2207:2214  _owners */\n      0x02\n        /* \"contracts/nft.sol\":2207:2223  _owners[tokenId] */\n      0x00\n        /* \"contracts/nft.sol\":2215:2222  tokenId */\n      dup5\n        /* \"contracts/nft.sol\":2207:2223  _owners[tokenId] */\n      dup2\n      mstore\n      0x20\n      add\n      swap1\n      dup2\n      mstore\n      0x20\n      add\n      0x00\n      keccak256\n      0x00\n      swap1\n      sload\n      swap1\n      0x0100\n      exp\n      swap1\n      div\n      0xffffffffffffffffffffffffffffffffffffffff\n      and\n        /* \"contracts/nft.sol\":2191:2223  address owner = _owners[tokenId] */\n      swap1\n      pop\n        /* \"contracts/nft.sol\":2259:2260  0 */\n      0x00\n        /* \"contracts/nft.sol\":2242:2261  owner != address(0) */\n      0xffffffffffffffffffffffffffffffffffffffff\n      and\n        /* \"contracts/nft.sol\":2242:2247  owner */\n      dup2\n        /* \"contracts/nft.sol\":2242:2261  owner != address(0) */\n      0xffffffffffffffffffffffffffffffffffffffff\n      and\n      eq\n      iszero\n        /* \"contracts/nft.sol\":2234:2290  require(owner != address(0), \"ERC721: invalid token ID\") */\n      tag_148\n      jumpi\n      mload(0x40)\n      0x08c379a000000000000000000000000000000000000000000000000000000000\n      dup2\n      mstore\n      0x04\n      add\n      tag_149\n      swap1\n      tag_150\n      jump\t// in\n    tag_149:\n      mload(0x40)\n      dup1\n      swap2\n      sub\n      swap1\n      revert\n    tag_148:\n        /* \"contracts/nft.sol\":2308:2313  owner */\n      dup1\n        /* \"contracts/nft.sol\":2301:2313  return owner */\n      swap2\n      pop\n      pop\n        /* \"contracts/nft.sol\":2099:2321  function ownerOf(uint256 tokenId) public view virtual override returns (address) {\r... */\n      swap2\n      swap1\n      pop\n      jump\t// out\n        /* \"contracts/nft.sol\":1882:2089  function balanceOf(address owner) public view virtual override returns (uint256) {\r... */\n    tag_65:\n        /* \"contracts/nft.sol\":1954:1961  uint256 */\n      0x00\n        /* \"contracts/nft.sol\":1999:2000  0 */\n      dup1\n        /* \"contracts/nft.sol\":1982:2001  owner != address(0) */\n      0xffffffffffffffffffffffffffffffffffffffff\n      and\n        /* \"contracts/nft.sol\":1982:1987  owner */\n      dup3\n        /* \"contracts/nft.sol\":1982:2001  owner != address(0) */\n      0xffffffffffffffffffffffffffffffffffffffff\n      and\n      eq\n      iszero\n        /* \"contracts/nft.sol\":1974:2047  require(owner != address(0), \"ERC721: address zero is not a valid owner\") */\n      tag_152\n      jumpi\n      mload(0x40)\n      0x08c379a000000000000000000000000000000000000000000000000000000000\n      dup2\n      mstore\n      0x04\n      add\n      tag_153\n      swap1\n      tag_154\n      jump\t// in\n    tag_153:\n      mload(0x40)\n      dup1\n      swap2\n      sub\n      swap1\n      revert\n    tag_152:\n        /* \"contracts/nft.sol\":2065:2074  _balances */\n      0x05\n        /* \"contracts/nft.sol\":2065:2081  _balances[owner] */\n      0x00\n        /* \"contracts/nft.sol\":2075:2080  owner */\n      dup4\n        /* \"contracts/nft.sol\":2065:2081  _balances[owner] */\n      0xffffffffffffffffffffffffffffffffffffffff\n      and\n      0xffffffffffffffffffffffffffffffffffffffff\n      and\n      dup2\n      mstore\n      0x20\n      add\n      swap1\n      dup2\n      mstore\n      0x20\n      add\n      0x00\n      keccak256\n      sload\n        /* \"contracts/nft.sol\":2058:2081  return _balances[owner] */\n      swap1\n      pop\n        /* \"contracts/nft.sol\":1882:2089  function balanceOf(address owner) public view virtual override returns (uint256) {\r... */\n      swap2\n      swap1\n      pop\n      jump\t// out\n        /* \"contracts/nft.sol\":2859:2963  function symbol() public view virtual override returns (string memory) {\r... */\n    tag_69:\n        /* \"contracts/nft.sol\":2915:2928  string memory */\n      0x60\n        /* \"contracts/nft.sol\":2948:2955  _symbol */\n      0x01\n        /* \"contracts/nft.sol\":2941:2955  return _symbol */\n      dup1\n      sload\n      tag_156\n      swap1\n      tag_99\n      jump\t// in\n    tag_156:\n      dup1\n      0x1f\n      add\n      0x20\n      dup1\n      swap2\n      div\n      mul\n      0x20\n      add\n      mload(0x40)\n      swap1\n      dup2\n      add\n      0x40\n      mstore\n      dup1\n      swap3\n      swap2\n      swap1\n      dup2\n      dup2\n      mstore\n      0x20\n      add\n      dup3\n      dup1\n      sload\n      tag_157\n      swap1\n      tag_99\n      jump\t// in\n    tag_157:\n      dup1\n      iszero\n      tag_158\n      jumpi\n      dup1\n      0x1f\n      lt\n      tag_159\n      jumpi\n      0x0100\n      dup1\n      dup4\n      sload\n      div\n      mul\n      dup4\n      mstore\n      swap2\n      0x20\n      add\n      swap2\n      jump(tag_158)\n    tag_159:\n      dup3\n      add\n      swap2\n      swap1\n      0x00\n      mstore\n      keccak256(0x00, 0x20)\n      swap1\n    tag_160:\n      dup2\n      sload\n      dup2\n      mstore\n      swap1\n      0x01\n      add\n      swap1\n      0x20\n      add\n      dup1\n      dup4\n      gt\n      tag_160\n      jumpi\n      dup3\n      swap1\n      sub\n      0x1f\n      and\n      dup3\n      add\n      swap2\n    tag_158:\n      pop\n      pop\n      pop\n      pop\n      pop\n      swap1\n      pop\n        /* \"contracts/nft.sol\":2859:2963  function symbol() public view virtual override returns (string memory) {\r... */\n      swap1\n      jump\t// out\n        /* \"contracts/nft.sol\":3969:4124  function setApprovalForAll(address operator, bool approved) public virtual override {\r... */\n    tag_74:\n        /* \"contracts/nft.sol\":4064:4116  _setApprovalForAll(_msgSender(), operator, approved) */\n      tag_162\n        /* \"contracts/nft.sol\":4083:4095  _msgSender() */\n      tag_163\n        /* \"contracts/nft.sol\":4083:4093  _msgSender */\n      tag_113\n        /* \"contracts/nft.sol\":4083:4095  _msgSender() */\n      jump\t// in\n    tag_163:\n        /* \"contracts/nft.sol\":4097:4105  operator */\n      dup4\n        /* \"contracts/nft.sol\":4107:4115  approved */\n      dup4\n        /* \"contracts/nft.sol\":4064:4082  _setApprovalForAll */\n      tag_164\n        /* \"contracts/nft.sol\":4064:4116  _setApprovalForAll(_msgSender(), operator, approved) */\n      jump\t// in\n    tag_162:\n        /* \"contracts/nft.sol\":3969:4124  function setApprovalForAll(address operator, bool approved) public virtual override {\r... */\n      pop\n      pop\n      jump\t// out\n        /* \"contracts/nft.sol\":4795:5117  function safeTransferFrom(\r... */\n    tag_78:\n        /* \"contracts/nft.sol\":4969:5010  _isApprovedOrOwner(_msgSender(), tokenId) */\n      tag_166\n        /* \"contracts/nft.sol\":4988:5000  _msgSender() */\n      tag_167\n        /* \"contracts/nft.sol\":4988:4998  _msgSender */\n      tag_113\n        /* \"contracts/nft.sol\":4988:5000  _msgSender() */\n      jump\t// in\n    tag_167:\n        /* \"contracts/nft.sol\":5002:5009  tokenId */\n      dup4\n        /* \"contracts/nft.sol\":4969:4987  _isApprovedOrOwner */\n      tag_130\n        /* \"contracts/nft.sol\":4969:5010  _isApprovedOrOwner(_msgSender(), tokenId) */\n      jump\t// in\n    tag_166:\n        /* \"contracts/nft.sol\":4961:5060  require(_isApprovedOrOwner(_msgSender(), tokenId), \"ERC721: caller is not token owner or approved\") */\n      tag_168\n      jumpi\n      mload(0x40)\n      0x08c379a000000000000000000000000000000000000000000000000000000000\n      dup2\n      mstore\n      0x04\n      add\n      tag_169\n      swap1\n      tag_133\n      jump\t// in\n    tag_169:\n      mload(0x40)\n      dup1\n      swap2\n      sub\n      swap1\n      revert\n    tag_168:\n        /* \"contracts/nft.sol\":5071:5109  _safeTransfer(from, to, tokenId, data) */\n      tag_170\n        /* \"contracts/nft.sol\":5085:5089  from */\n      dup5\n        /* \"contracts/nft.sol\":5091:5093  to */\n      dup5\n        /* \"contracts/nft.sol\":5095:5102  tokenId */\n      dup5\n        /* \"contracts/nft.sol\":5104:5108  data */\n      dup5\n        /* \"contracts/nft.sol\":5071:5084  _safeTransfer */\n      tag_171\n        /* \"contracts/nft.sol\":5071:5109  _safeTransfer(from, to, tokenId, data) */\n      jump\t// in\n    tag_170:\n        /* \"contracts/nft.sol\":4795:5117  function safeTransferFrom(\r... */\n      pop\n      pop\n      pop\n      pop\n      jump\t// out\n        /* \"contracts/nft.sol\":2971:3252  function tokenURI(uint256 tokenId) public view virtual override returns (string memory) {\r... */\n    tag_81:\n        /* \"contracts/nft.sol\":3044:3057  string memory */\n      0x60\n        /* \"contracts/nft.sol\":3070:3093  _requireMinted(tokenId) */\n      tag_173\n        /* \"contracts/nft.sol\":3085:3092  tokenId */\n      dup3\n        /* \"contracts/nft.sol\":3070:3084  _requireMinted */\n      tag_106\n        /* \"contracts/nft.sol\":3070:3093  _requireMinted(tokenId) */\n      jump\t// in\n    tag_173:\n        /* \"contracts/nft.sol\":3106:3127  string memory baseURI */\n      0x00\n        /* \"contracts/nft.sol\":3130:3140  _baseURI() */\n      tag_174\n        /* \"contracts/nft.sol\":3130:3138  _baseURI */\n      tag_175\n        /* \"contracts/nft.sol\":3130:3140  _baseURI() */\n      jump\t// in\n    tag_174:\n        /* \"contracts/nft.sol\":3106:3140  string memory baseURI = _baseURI() */\n      swap1\n      pop\n        /* \"contracts/nft.sol\":3182:3183  0 */\n      0x00\n        /* \"contracts/nft.sol\":3164:3171  baseURI */\n      dup2\n        /* \"contracts/nft.sol\":3158:3179  bytes(baseURI).length */\n      mload\n        /* \"contracts/nft.sol\":3158:3183  bytes(baseURI).length > 0 */\n      gt\n        /* \"contracts/nft.sol\":3158:3244  bytes(baseURI).length > 0 ? string(abi.encodePacked(baseURI, tokenId.toString())) : \"\" */\n      tag_176\n      jumpi\n      mload(0x40)\n      dup1\n      0x20\n      add\n      0x40\n      mstore\n      dup1\n      0x00\n      dup2\n      mstore\n      pop\n      jump(tag_177)\n    tag_176:\n        /* \"contracts/nft.sol\":3210:3217  baseURI */\n      dup1\n        /* \"contracts/nft.sol\":3219:3237  tokenId.toString() */\n      tag_178\n        /* \"contracts/nft.sol\":3219:3226  tokenId */\n      dup5\n        /* \"contracts/nft.sol\":3219:3235  tokenId.toString */\n      tag_179\n        /* \"contracts/nft.sol\":3219:3237  tokenId.toString() */\n      jump\t// in\n    tag_178:\n        /* \"contracts/nft.sol\":3193:3238  abi.encodePacked(baseURI, tokenId.toString()) */\n      add(0x20, mload(0x40))\n      tag_180\n      swap3\n      swap2\n      swap1\n      tag_181\n      jump\t// in\n    tag_180:\n      mload(0x40)\n      0x20\n      dup2\n      dup4\n      sub\n      sub\n      dup2\n      mstore\n      swap1\n      0x40\n      mstore\n        /* \"contracts/nft.sol\":3158:3244  bytes(baseURI).length > 0 ? string(abi.encodePacked(baseURI, tokenId.toString())) : \"\" */\n    tag_177:\n        /* \"contracts/nft.sol\":3151:3244  return bytes(baseURI).length > 0 ? string(abi.encodePacked(baseURI, tokenId.toString())) : \"\" */\n      swap2\n      pop\n      pop\n        /* \"contracts/nft.sol\":2971:3252  function tokenURI(uint256 tokenId) public view virtual override returns (string memory) {\r... */\n      swap2\n      swap1\n      pop\n      jump\t// out\n        /* \"contracts/nft.sol\":4134:4298  function isApprovedForAll(address owner, address operator) public view virtual override returns (bool) {\r... */\n    tag_86:\n        /* \"contracts/nft.sol\":4231:4235  bool */\n      0x00\n        /* \"contracts/nft.sol\":4255:4273  _operatorApprovals */\n      0x07\n        /* \"contracts/nft.sol\":4255:4280  _operatorApprovals[owner] */\n      0x00\n        /* \"contracts/nft.sol\":4274:4279  owner */\n      dup5\n        /* \"contracts/nft.sol\":4255:4280  _operatorApprovals[owner] */\n      0xffffffffffffffffffffffffffffffffffffffff\n      and\n      0xffffffffffffffffffffffffffffffffffffffff\n      and\n      dup2\n      mstore\n      0x20\n      add\n      swap1\n      dup2\n      mstore\n      0x20\n      add\n      0x00\n      keccak256\n        /* \"contracts/nft.sol\":4255:4290  _operatorApprovals[owner][operator] */\n      0x00\n        /* \"contracts/nft.sol\":4281:4289  operator */\n      dup4\n        /* \"contracts/nft.sol\":4255:4290  _operatorApprovals[owner][operator] */\n      0xffffffffffffffffffffffffffffffffffffffff\n      and\n      0xffffffffffffffffffffffffffffffffffffffff\n      and\n      dup2\n      mstore\n      0x20\n      add\n      swap1\n      dup2\n      mstore\n      0x20\n      add\n      0x00\n      keccak256\n      0x00\n      swap1\n      sload\n      swap1\n      0x0100\n      exp\n      swap1\n      div\n      0xff\n      and\n        /* \"contracts/nft.sol\":4248:4290  return _operatorApprovals[owner][operator] */\n      swap1\n      pop\n        /* \"contracts/nft.sol\":4134:4298  function isApprovedForAll(address owner, address operator) public view virtual override returns (bool) {\r... */\n      swap3\n      swap2\n      pop\n      pop\n      jump\t// out\n        /* \"contracts/nft.sol\":2528:2742  function collaboratotPercentageOf(uint256 tokenId) public view virtual returns (uint256) {\r... */\n    tag_90:\n        /* \"contracts/nft.sol\":2608:2615  uint256 */\n      0x00\n        /* \"contracts/nft.sol\":2628:2658  uint256 collaboratorPercentage */\n      dup1\n        /* \"contracts/nft.sol\":2661:2685  _collaboratorsPercentage */\n      0x04\n        /* \"contracts/nft.sol\":2661:2694  _collaboratorsPercentage[tokenId] */\n      0x00\n        /* \"contracts/nft.sol\":2686:2693  tokenId */\n      dup5\n        /* \"contracts/nft.sol\":2661:2694  _collaboratorsPercentage[tokenId] */\n      dup2\n      mstore\n      0x20\n      add\n      swap1\n      dup2\n      mstore\n      0x20\n      add\n      0x00\n      keccak256\n      sload\n        /* \"contracts/nft.sol\":2628:2694  uint256 collaboratorPercentage = _collaboratorsPercentage[tokenId] */\n      swap1\n      pop\n        /* \"contracts/nft.sol\":2712:2734  collaboratorPercentage */\n      dup1\n        /* \"contracts/nft.sol\":2705:2734  return collaboratorPercentage */\n      swap2\n      pop\n      pop\n        /* \"contracts/nft.sol\":2528:2742  function collaboratotPercentageOf(uint256 tokenId) public view virtual returns (uint256) {\r... */\n      swap2\n      swap1\n      pop\n      jump\t// out\n        /* \"@openzeppelin/contracts@4.6.0/utils/introspection/ERC165.sol\":829:984  function supportsInterface(bytes4 interfaceId) public view virtual override returns (bool) {... */\n    tag_96:\n        /* \"@openzeppelin/contracts@4.6.0/utils/introspection/ERC165.sol\":914:918  bool */\n      0x00\n        /* \"@openzeppelin/contracts@4.6.0/utils/introspection/ERC165.sol\":952:977  type(IERC165).interfaceId */\n      0x01ffc9a700000000000000000000000000000000000000000000000000000000\n        /* \"@openzeppelin/contracts@4.6.0/utils/introspection/ERC165.sol\":937:977  interfaceId == type(IERC165).interfaceId */\n      not(0xffffffffffffffffffffffffffffffffffffffffffffffffffffffff)\n      and\n        /* \"@openzeppelin/contracts@4.6.0/utils/introspection/ERC165.sol\":937:948  interfaceId */\n      dup3\n        /* \"@openzeppelin/contracts@4.6.0/utils/introspection/ERC165.sol\":937:977  interfaceId == type(IERC165).interfaceId */\n      not(0xffffffffffffffffffffffffffffffffffffffffffffffffffffffff)\n      and\n      eq\n        /* \"@openzeppelin/contracts@4.6.0/utils/introspection/ERC165.sol\":930:977  return interfaceId == type(IERC165).interfaceId */\n      swap1\n      pop\n        /* \"@openzeppelin/contracts@4.6.0/utils/introspection/ERC165.sol\":829:984  function supportsInterface(bytes4 interfaceId) public view virtual override returns (bool) {... */\n      swap2\n      swap1\n      pop\n      jump\t// out\n        /* \"contracts/nft.sol\":9446:9581  function _requireMinted(uint256 tokenId) internal view virtual {\r... */\n    tag_106:\n        /* \"contracts/nft.sol\":9528:9544  _exists(tokenId) */\n      tag_186\n        /* \"contracts/nft.sol\":9536:9543  tokenId */\n      dup2\n        /* \"contracts/nft.sol\":9528:9535  _exists */\n      tag_187\n        /* \"contracts/nft.sol\":9528:9544  _exists(tokenId) */\n      jump\t// in\n    tag_186:\n        /* \"contracts/nft.sol\":9520:9573  require(_exists(tokenId), \"ERC721: invalid token ID\") */\n      tag_188\n      jumpi\n      mload(0x40)\n      0x08c379a000000000000000000000000000000000000000000000000000000000\n      dup2\n      mstore\n      0x04\n      add\n      tag_189\n      swap1\n      tag_150\n      jump\t// in\n    tag_189:\n      mload(0x40)\n      dup1\n      swap2\n      sub\n      swap1\n      revert\n    tag_188:\n        /* \"contracts/nft.sol\":9446:9581  function _requireMinted(uint256 tokenId) internal view virtual {\r... */\n      pop\n      jump\t// out\n        /* \"@openzeppelin/contracts@4.6.0/utils/Context.sol\":640:736  function _msgSender() internal view virtual returns (address) {... */\n    tag_113:\n        /* \"@openzeppelin/contracts@4.6.0/utils/Context.sol\":693:700  address */\n      0x00\n        /* \"@openzeppelin/contracts@4.6.0/utils/Context.sol\":719:729  msg.sender */\n      caller\n        /* \"@openzeppelin/contracts@4.6.0/utils/Context.sol\":712:729  return msg.sender */\n      swap1\n      pop\n        /* \"@openzeppelin/contracts@4.6.0/utils/Context.sol\":640:736  function _msgSender() internal view virtual returns (address) {... */\n      swap1\n      jump\t// out\n        /* \"contracts/nft.sol\":8944:9115  function _approve(address to, uint256 tokenId) internal virtual {\r... */\n    tag_121:\n        /* \"contracts/nft.sol\":9046:9048  to */\n      dup2\n        /* \"contracts/nft.sol\":9019:9034  _tokenApprovals */\n      0x06\n        /* \"contracts/nft.sol\":9019:9043  _tokenApprovals[tokenId] */\n      0x00\n        /* \"contracts/nft.sol\":9035:9042  tokenId */\n      dup4\n        /* \"contracts/nft.sol\":9019:9043  _tokenApprovals[tokenId] */\n      dup2\n      mstore\n      0x20\n      add\n      swap1\n      dup2\n      mstore\n      0x20\n      add\n      0x00\n      keccak256\n      0x00\n        /* \"contracts/nft.sol\":9019:9048  _tokenApprovals[tokenId] = to */\n      0x0100\n      exp\n      dup2\n      sload\n      dup2\n      0xffffffffffffffffffffffffffffffffffffffff\n      mul\n      not\n      and\n      swap1\n      dup4\n      0xffffffffffffffffffffffffffffffffffffffff\n      and\n      mul\n      or\n      swap1\n      sstore\n      pop\n        /* \"contracts/nft.sol\":9099:9106  tokenId */\n      dup1\n        /* \"contracts/nft.sol\":9095:9097  to */\n      dup3\n        /* \"contracts/nft.sol\":9064:9107  Approval(nft.ownerOf(tokenId), to, tokenId) */\n      0xffffffffffffffffffffffffffffffffffffffff\n      and\n        /* \"contracts/nft.sol\":9073:9093  nft.ownerOf(tokenId) */\n      tag_192\n        /* \"contracts/nft.sol\":9085:9092  tokenId */\n      dup4\n        /* \"contracts/nft.sol\":9073:9084  nft.ownerOf */\n      tag_60\n        /* \"contracts/nft.sol\":9073:9093  nft.ownerOf(tokenId) */\n      jump\t// in\n    tag_192:\n        /* \"contracts/nft.sol\":9064:9107  Approval(nft.ownerOf(tokenId), to, tokenId) */\n      0xffffffffffffffffffffffffffffffffffffffff\n      and\n      0x8c5be1e5ebec7d5bd14f71427d1e84f3dd0314c0f7b2291e5b200ac8c7c3b925\n      mload(0x40)\n      mload(0x40)\n      dup1\n      swap2\n      sub\n      swap1\n      log4\n        /* \"contracts/nft.sol\":8944:9115  function _approve(address to, uint256 tokenId) internal virtual {\r... */\n      pop\n      pop\n      jump\t// out\n        /* \"contracts/nft.sol\":6093:6292  function _safeMint(address to,string[] memory collaborator,uint256 collaboratorPercent,uint256 tokenId) internal virtual {\r... */\n    tag_124:\n        /* \"contracts/nft.sol\":6225:6284  _safeMint(to, collaborator,collaboratorPercent,tokenId, \"\") */\n      tag_194\n        /* \"contracts/nft.sol\":6235:6237  to */\n      dup5\n        /* \"contracts/nft.sol\":6239:6251  collaborator */\n      dup5\n        /* \"contracts/nft.sol\":6252:6271  collaboratorPercent */\n      dup5\n        /* \"contracts/nft.sol\":6272:6279  tokenId */\n      dup5\n        /* \"contracts/nft.sol\":6225:6284  _safeMint(to, collaborator,collaboratorPercent,tokenId, \"\") */\n      mload(0x40)\n      dup1\n      0x20\n      add\n      0x40\n      mstore\n      dup1\n      0x00\n      dup2\n      mstore\n      pop\n        /* \"contracts/nft.sol\":6225:6234  _safeMint */\n      tag_195\n        /* \"contracts/nft.sol\":6225:6284  _safeMint(to, collaborator,collaboratorPercent,tokenId, \"\") */\n      jump\t// in\n    tag_194:\n        /* \"contracts/nft.sol\":6093:6292  function _safeMint(address to,string[] memory collaborator,uint256 collaboratorPercent,uint256 tokenId) internal virtual {\r... */\n      pop\n      pop\n      pop\n      pop\n      jump\t// out\n        /* \"contracts/nft.sol\":7947:8167  function _setTokenURI(uint256 tokenId, string memory _tokenURI) internal virtual {\r... */\n    tag_126:\n        /* \"contracts/nft.sol\":8150:8159  _tokenURI */\n      dup1\n        /* \"contracts/nft.sol\":8128:8138  _tokenURIs */\n      0x08\n        /* \"contracts/nft.sol\":8128:8147  _tokenURIs[tokenId] */\n      0x00\n        /* \"contracts/nft.sol\":8139:8146  tokenId */\n      dup5\n        /* \"contracts/nft.sol\":8128:8147  _tokenURIs[tokenId] */\n      dup2\n      mstore\n      0x20\n      add\n      swap1\n      dup2\n      mstore\n      0x20\n      add\n      0x00\n      keccak256\n        /* \"contracts/nft.sol\":8128:8159  _tokenURIs[tokenId] = _tokenURI */\n      swap1\n      dup1\n      mload\n      swap1\n      0x20\n      add\n      swap1\n      tag_197\n      swap3\n      swap2\n      swap1\n      tag_198\n      jump\t// in\n    tag_197:\n      pop\n        /* \"contracts/nft.sol\":7947:8167  function _setTokenURI(uint256 tokenId, string memory _tokenURI) internal virtual {\r... */\n      pop\n      pop\n      jump\t// out\n        /* \"contracts/nft.sol\":5824:6085  function _isApprovedOrOwner(address spender, uint256 tokenId) internal view virtual returns (bool) {\r... */\n    tag_130:\n        /* \"contracts/nft.sol\":5917:5921  bool */\n      0x00\n        /* \"contracts/nft.sol\":5934:5947  address owner */\n      dup1\n        /* \"contracts/nft.sol\":5950:5970  nft.ownerOf(tokenId) */\n      tag_200\n        /* \"contracts/nft.sol\":5962:5969  tokenId */\n      dup4\n        /* \"contracts/nft.sol\":5950:5961  nft.ownerOf */\n      tag_60\n        /* \"contracts/nft.sol\":5950:5970  nft.ownerOf(tokenId) */\n      jump\t// in\n    tag_200:\n        /* \"contracts/nft.sol\":5934:5970  address owner = nft.ownerOf(tokenId) */\n      swap1\n      pop\n        /* \"contracts/nft.sol\":6000:6005  owner */\n      dup1\n        /* \"contracts/nft.sol\":5989:6005  spender == owner */\n      0xffffffffffffffffffffffffffffffffffffffff\n      and\n        /* \"contracts/nft.sol\":5989:5996  spender */\n      dup5\n        /* \"contracts/nft.sol\":5989:6005  spender == owner */\n      0xffffffffffffffffffffffffffffffffffffffff\n      and\n      eq\n        /* \"contracts/nft.sol\":5989:6041  spender == owner || isApprovedForAll(owner, spender) */\n      dup1\n      tag_201\n      jumpi\n      pop\n        /* \"contracts/nft.sol\":6009:6041  isApprovedForAll(owner, spender) */\n      tag_202\n        /* \"contracts/nft.sol\":6026:6031  owner */\n      dup2\n        /* \"contracts/nft.sol\":6033:6040  spender */\n      dup6\n        /* \"contracts/nft.sol\":6009:6025  isApprovedForAll */\n      tag_86\n        /* \"contracts/nft.sol\":6009:6041  isApprovedForAll(owner, spender) */\n      jump\t// in\n    tag_202:\n        /* \"contracts/nft.sol\":5989:6041  spender == owner || isApprovedForAll(owner, spender) */\n    tag_201:\n        /* \"contracts/nft.sol\":5989:6076  spender == owner || isApprovedForAll(owner, spender) || getApproved(tokenId) == spender */\n      dup1\n      tag_203\n      jumpi\n      pop\n        /* \"contracts/nft.sol\":6069:6076  spender */\n      dup4\n        /* \"contracts/nft.sol\":6045:6076  getApproved(tokenId) == spender */\n      0xffffffffffffffffffffffffffffffffffffffff\n      and\n        /* \"contracts/nft.sol\":6045:6065  getApproved(tokenId) */\n      tag_204\n        /* \"contracts/nft.sol\":6057:6064  tokenId */\n      dup5\n        /* \"contracts/nft.sol\":6045:6056  getApproved */\n      tag_35\n        /* \"contracts/nft.sol\":6045:6065  getApproved(tokenId) */\n      jump\t// in\n    tag_204:\n        /* \"contracts/nft.sol\":6045:6076  getApproved(tokenId) == spender */\n      0xffffffffffffffffffffffffffffffffffffffff\n      and\n      eq\n        /* \"contracts/nft.sol\":5989:6076  spender == owner || isApprovedForAll(owner, spender) || getApproved(tokenId) == spender */\n    tag_203:\n        /* \"contracts/nft.sol\":5981:6077  return (spender == owner || isApprovedForAll(owner, spender) || getApproved(tokenId) == spender) */\n      swap2\n      pop\n      pop\n        /* \"contracts/nft.sol\":5824:6085  function _isApprovedOrOwner(address spender, uint256 tokenId) internal view virtual returns (bool) {\r... */\n      swap3\n      swap2\n      pop\n      pop\n      jump\t// out\n        /* \"contracts/nft.sol\":8177:8934  function _transfer(\r... */\n    tag_135:\n        /* \"contracts/nft.sol\":8333:8337  from */\n      dup3\n        /* \"contracts/nft.sol\":8309:8337  nft.ownerOf(tokenId) == from */\n      0xffffffffffffffffffffffffffffffffffffffff\n      and\n        /* \"contracts/nft.sol\":8309:8329  nft.ownerOf(tokenId) */\n      tag_206\n        /* \"contracts/nft.sol\":8321:8328  tokenId */\n      dup3\n        /* \"contracts/nft.sol\":8309:8320  nft.ownerOf */\n      tag_60\n        /* \"contracts/nft.sol\":8309:8329  nft.ownerOf(tokenId) */\n      jump\t// in\n    tag_206:\n        /* \"contracts/nft.sol\":8309:8337  nft.ownerOf(tokenId) == from */\n      0xffffffffffffffffffffffffffffffffffffffff\n      and\n      eq\n        /* \"contracts/nft.sol\":8301:8379  require(nft.ownerOf(tokenId) == from, \"ERC721: transfer from incorrect owner\") */\n      tag_207\n      jumpi\n      mload(0x40)\n      0x08c379a000000000000000000000000000000000000000000000000000000000\n      dup2\n      mstore\n      0x04\n      add\n      tag_208\n      swap1\n      tag_209\n      jump\t// in\n    tag_208:\n      mload(0x40)\n      dup1\n      swap2\n      sub\n      swap1\n      revert\n    tag_207:\n        /* \"contracts/nft.sol\":8412:8413  0 */\n      0x00\n        /* \"contracts/nft.sol\":8398:8414  to != address(0) */\n      0xffffffffffffffffffffffffffffffffffffffff\n      and\n        /* \"contracts/nft.sol\":8398:8400  to */\n      dup3\n        /* \"contracts/nft.sol\":8398:8414  to != address(0) */\n      0xffffffffffffffffffffffffffffffffffffffff\n      and\n      eq\n      iszero\n        /* \"contracts/nft.sol\":8390:8455  require(to != address(0), \"ERC721: transfer to the zero address\") */\n      tag_210\n      jumpi\n      mload(0x40)\n      0x08c379a000000000000000000000000000000000000000000000000000000000\n      dup2\n      mstore\n      0x04\n      add\n      tag_211\n      swap1\n      tag_212\n      jump\t// in\n    tag_211:\n      mload(0x40)\n      dup1\n      swap2\n      sub\n      swap1\n      revert\n    tag_210:\n        /* \"contracts/nft.sol\":8468:8507  _beforeTokenTransfer(from, to, tokenId) */\n      tag_213\n        /* \"contracts/nft.sol\":8489:8493  from */\n      dup4\n        /* \"contracts/nft.sol\":8495:8497  to */\n      dup4\n        /* \"contracts/nft.sol\":8499:8506  tokenId */\n      dup4\n        /* \"contracts/nft.sol\":8468:8488  _beforeTokenTransfer */\n      tag_214\n        /* \"contracts/nft.sol\":8468:8507  _beforeTokenTransfer(from, to, tokenId) */\n      jump\t// in\n    tag_213:\n        /* \"contracts/nft.sol\":8552:8556  from */\n      dup3\n        /* \"contracts/nft.sol\":8528:8556  nft.ownerOf(tokenId) == from */\n      0xffffffffffffffffffffffffffffffffffffffff\n      and\n        /* \"contracts/nft.sol\":8528:8548  nft.ownerOf(tokenId) */\n      tag_215\n        /* \"contracts/nft.sol\":8540:8547  tokenId */\n      dup3\n        /* \"contracts/nft.sol\":8528:8539  nft.ownerOf */\n      tag_60\n        /* \"contracts/nft.sol\":8528:8548  nft.ownerOf(tokenId) */\n      jump\t// in\n    tag_215:\n        /* \"contracts/nft.sol\":8528:8556  nft.ownerOf(tokenId) == from */\n      0xffffffffffffffffffffffffffffffffffffffff\n      and\n      eq\n        /* \"contracts/nft.sol\":8520:8598  require(nft.ownerOf(tokenId) == from, \"ERC721: transfer from incorrect owner\") */\n      tag_216\n      jumpi\n      mload(0x40)\n      0x08c379a000000000000000000000000000000000000000000000000000000000\n      dup2\n      mstore\n      0x04\n      add\n      tag_217\n      swap1\n      tag_209\n      jump\t// in\n    tag_217:\n      mload(0x40)\n      dup1\n      swap2\n      sub\n      swap1\n      revert\n    tag_216:\n        /* \"contracts/nft.sol\":8670:8685  _tokenApprovals */\n      0x06\n        /* \"contracts/nft.sol\":8670:8694  _tokenApprovals[tokenId] */\n      0x00\n        /* \"contracts/nft.sol\":8686:8693  tokenId */\n      dup3\n        /* \"contracts/nft.sol\":8670:8694  _tokenApprovals[tokenId] */\n      dup2\n      mstore\n      0x20\n      add\n      swap1\n      dup2\n      mstore\n      0x20\n      add\n      0x00\n      keccak256\n      0x00\n        /* \"contracts/nft.sol\":8663:8694  delete _tokenApprovals[tokenId] */\n      0x0100\n      exp\n      dup2\n      sload\n      swap1\n      0xffffffffffffffffffffffffffffffffffffffff\n      mul\n      not\n      and\n      swap1\n      sstore\n        /* \"contracts/nft.sol\":8753:8754  1 */\n      0x01\n        /* \"contracts/nft.sol\":8734:8743  _balances */\n      0x05\n        /* \"contracts/nft.sol\":8734:8749  _balances[from] */\n      0x00\n        /* \"contracts/nft.sol\":8744:8748  from */\n      dup6\n        /* \"contracts/nft.sol\":8734:8749  _balances[from] */\n      0xffffffffffffffffffffffffffffffffffffffff\n      and\n      0xffffffffffffffffffffffffffffffffffffffff\n      and\n      dup2\n      mstore\n      0x20\n      add\n      swap1\n      dup2\n      mstore\n      0x20\n      add\n      0x00\n      keccak256\n      0x00\n        /* \"contracts/nft.sol\":8734:8754  _balances[from] -= 1 */\n      dup3\n      dup3\n      sload\n      sub\n      swap3\n      pop\n      pop\n      dup2\n      swap1\n      sstore\n      pop\n        /* \"contracts/nft.sol\":8786:8787  1 */\n      0x01\n        /* \"contracts/nft.sol\":8769:8778  _balances */\n      0x05\n        /* \"contracts/nft.sol\":8769:8782  _balances[to] */\n      0x00\n        /* \"contracts/nft.sol\":8779:8781  to */\n      dup5\n        /* \"contracts/nft.sol\":8769:8782  _balances[to] */\n      0xffffffffffffffffffffffffffffffffffffffff\n      and\n      0xffffffffffffffffffffffffffffffffffffffff\n      and\n      dup2\n      mstore\n      0x20\n      add\n      swap1\n      dup2\n      mstore\n      0x20\n      add\n      0x00\n      keccak256\n      0x00\n        /* \"contracts/nft.sol\":8769:8787  _balances[to] += 1 */\n      dup3\n      dup3\n      sload\n      add\n      swap3\n      pop\n      pop\n      dup2\n      swap1\n      sstore\n      pop\n        /* \"contracts/nft.sol\":8828:8830  to */\n      dup2\n        /* \"contracts/nft.sol\":8809:8816  _owners */\n      0x02\n        /* \"contracts/nft.sol\":8809:8825  _owners[tokenId] */\n      0x00\n        /* \"contracts/nft.sol\":8817:8824  tokenId */\n      dup4\n        /* \"contracts/nft.sol\":8809:8825  _owners[tokenId] */\n      dup2\n      mstore\n      0x20\n      add\n      swap1\n      dup2\n      mstore\n      0x20\n      add\n      0x00\n      keccak256\n      0x00\n        /* \"contracts/nft.sol\":8809:8830  _owners[tokenId] = to */\n      0x0100\n      exp\n      dup2\n      sload\n      dup2\n      0xffffffffffffffffffffffffffffffffffffffff\n      mul\n      not\n      and\n      swap1\n      dup4\n      0xffffffffffffffffffffffffffffffffffffffff\n      and\n      mul\n      or\n      swap1\n      sstore\n      pop\n        /* \"contracts/nft.sol\":8867:8874  tokenId */\n      dup1\n        /* \"contracts/nft.sol\":8863:8865  to */\n      dup3\n        /* \"contracts/nft.sol\":8848:8875  Transfer(from, to, tokenId) */\n      0xffffffffffffffffffffffffffffffffffffffff\n      and\n        /* \"contracts/nft.sol\":8857:8861  from */\n      dup5\n        /* \"contracts/nft.sol\":8848:8875  Transfer(from, to, tokenId) */\n      0xffffffffffffffffffffffffffffffffffffffff\n      and\n      0xddf252ad1be2c89b69c2b068fc378daa952ba7f163c4a11628f55a4df523b3ef\n      mload(0x40)\n      mload(0x40)\n      dup1\n      swap2\n      sub\n      swap1\n      log4\n        /* \"contracts/nft.sol\":8888:8926  _afterTokenTransfer(from, to, tokenId) */\n      tag_218\n        /* \"contracts/nft.sol\":8908:8912  from */\n      dup4\n        /* \"contracts/nft.sol\":8914:8916  to */\n      dup4\n        /* \"contracts/nft.sol\":8918:8925  tokenId */\n      dup4\n        /* \"contracts/nft.sol\":8888:8907  _afterTokenTransfer */\n      tag_219\n        /* \"contracts/nft.sol\":8888:8926  _afterTokenTransfer(from, to, tokenId) */\n      jump\t// in\n    tag_218:\n        /* \"contracts/nft.sol\":8177:8934  function _transfer(\r... */\n      pop\n      pop\n      pop\n      jump\t// out\n        /* \"contracts/nft.sol\":9123:9438  function _setApprovalForAll(\r... */\n    tag_164:\n        /* \"contracts/nft.sol\":9278:9286  operator */\n      dup2\n        /* \"contracts/nft.sol\":9269:9286  owner != operator */\n      0xffffffffffffffffffffffffffffffffffffffff\n      and\n        /* \"contracts/nft.sol\":9269:9274  owner */\n      dup4\n        /* \"contracts/nft.sol\":9269:9286  owner != operator */\n      0xffffffffffffffffffffffffffffffffffffffff\n      and\n      eq\n      iszero\n        /* \"contracts/nft.sol\":9261:9316  require(owner != operator, \"ERC721: approve to caller\") */\n      tag_221\n      jumpi\n      mload(0x40)\n      0x08c379a000000000000000000000000000000000000000000000000000000000\n      dup2\n      mstore\n      0x04\n      add\n      tag_222\n      swap1\n      tag_223\n      jump\t// in\n    tag_222:\n      mload(0x40)\n      dup1\n      swap2\n      sub\n      swap1\n      revert\n    tag_221:\n        /* \"contracts/nft.sol\":9365:9373  approved */\n      dup1\n        /* \"contracts/nft.sol\":9327:9345  _operatorApprovals */\n      0x07\n        /* \"contracts/nft.sol\":9327:9352  _operatorApprovals[owner] */\n      0x00\n        /* \"contracts/nft.sol\":9346:9351  owner */\n      dup6\n        /* \"contracts/nft.sol\":9327:9352  _operatorApprovals[owner] */\n      0xffffffffffffffffffffffffffffffffffffffff\n      and\n      0xffffffffffffffffffffffffffffffffffffffff\n      and\n      dup2\n      mstore\n      0x20\n      add\n      swap1\n      dup2\n      mstore\n      0x20\n      add\n      0x00\n      keccak256\n        /* \"contracts/nft.sol\":9327:9362  _operatorApprovals[owner][operator] */\n      0x00\n        /* \"contracts/nft.sol\":9353:9361  operator */\n      dup5\n        /* \"contracts/nft.sol\":9327:9362  _operatorApprovals[owner][operator] */\n      0xffffffffffffffffffffffffffffffffffffffff\n      and\n      0xffffffffffffffffffffffffffffffffffffffff\n      and\n      dup2\n      mstore\n      0x20\n      add\n      swap1\n      dup2\n      mstore\n      0x20\n      add\n      0x00\n      keccak256\n      0x00\n        /* \"contracts/nft.sol\":9327:9373  _operatorApprovals[owner][operator] = approved */\n      0x0100\n      exp\n      dup2\n      sload\n      dup2\n      0xff\n      mul\n      not\n      and\n      swap1\n      dup4\n      iszero\n      iszero\n      mul\n      or\n      swap1\n      sstore\n      pop\n        /* \"contracts/nft.sol\":9411:9419  operator */\n      dup2\n        /* \"contracts/nft.sol\":9389:9430  ApprovalForAll(owner, operator, approved) */\n      0xffffffffffffffffffffffffffffffffffffffff\n      and\n        /* \"contracts/nft.sol\":9404:9409  owner */\n      dup4\n        /* \"contracts/nft.sol\":9389:9430  ApprovalForAll(owner, operator, approved) */\n      0xffffffffffffffffffffffffffffffffffffffff\n      and\n      0x17307eab39ab6107e8899845ad3d59bd9653f200f220920489ca2b5937696c31\n        /* \"contracts/nft.sol\":9421:9429  approved */\n      dup4\n        /* \"contracts/nft.sol\":9389:9430  ApprovalForAll(owner, operator, approved) */\n      mload(0x40)\n      tag_224\n      swap2\n      swap1\n      tag_27\n      jump\t// in\n    tag_224:\n      mload(0x40)\n      dup1\n      swap2\n      sub\n      swap1\n      log3\n        /* \"contracts/nft.sol\":9123:9438  function _setApprovalForAll(\r... */\n      pop\n      pop\n      pop\n      jump\t// out\n        /* \"contracts/nft.sol\":5366:5679  function _safeTransfer(\r... */\n    tag_171:\n        /* \"contracts/nft.sol\":5522:5550  _transfer(from, to, tokenId) */\n      tag_226\n        /* \"contracts/nft.sol\":5532:5536  from */\n      dup5\n        /* \"contracts/nft.sol\":5538:5540  to */\n      dup5\n        /* \"contracts/nft.sol\":5542:5549  tokenId */\n      dup5\n        /* \"contracts/nft.sol\":5522:5531  _transfer */\n      tag_135\n        /* \"contracts/nft.sol\":5522:5550  _transfer(from, to, tokenId) */\n      jump\t// in\n    tag_226:\n        /* \"contracts/nft.sol\":5569:5616  _checkOnERC721Received(from, to, tokenId, data) */\n      tag_227\n        /* \"contracts/nft.sol\":5592:5596  from */\n      dup5\n        /* \"contracts/nft.sol\":5598:5600  to */\n      dup5\n        /* \"contracts/nft.sol\":5602:5609  tokenId */\n      dup5\n        /* \"contracts/nft.sol\":5611:5615  data */\n      dup5\n        /* \"contracts/nft.sol\":5569:5591  _checkOnERC721Received */\n      tag_228\n        /* \"contracts/nft.sol\":5569:5616  _checkOnERC721Received(from, to, tokenId, data) */\n      jump\t// in\n    tag_227:\n        /* \"contracts/nft.sol\":5561:5671  require(_checkOnERC721Received(from, to, tokenId, data), \"ERC721: transfer to non ERC721Receiver implementer\") */\n      tag_229\n      jumpi\n      mload(0x40)\n      0x08c379a000000000000000000000000000000000000000000000000000000000\n      dup2\n      mstore\n      0x04\n      add\n      tag_230\n      swap1\n      tag_231\n      jump\t// in\n    tag_230:\n      mload(0x40)\n      dup1\n      swap2\n      sub\n      swap1\n      revert\n    tag_229:\n        /* \"contracts/nft.sol\":5366:5679  function _safeTransfer(\r... */\n      pop\n      pop\n      pop\n      pop\n      jump\t// out\n        /* \"contracts/nft.sol\":3260:3354  function _baseURI() internal view virtual returns (string memory) {\r... */\n    tag_175:\n        /* \"contracts/nft.sol\":3311:3324  string memory */\n      0x60\n        /* \"contracts/nft.sol\":3337:3346  return \"\" */\n      mload(0x40)\n      dup1\n      0x20\n      add\n      0x40\n      mstore\n      dup1\n      0x00\n      dup2\n      mstore\n      pop\n      swap1\n      pop\n        /* \"contracts/nft.sol\":3260:3354  function _baseURI() internal view virtual returns (string memory) {\r... */\n      swap1\n      jump\t// out\n        /* \"@openzeppelin/contracts@4.6.0/utils/Strings.sol\":328:1031  function toString(uint256 value) internal pure returns (string memory) {... */\n    tag_179:\n        /* \"@openzeppelin/contracts@4.6.0/utils/Strings.sol\":384:397  string memory */\n      0x60\n        /* \"@openzeppelin/contracts@4.6.0/utils/Strings.sol\":610:611  0 */\n      0x00\n        /* \"@openzeppelin/contracts@4.6.0/utils/Strings.sol\":601:606  value */\n      dup3\n        /* \"@openzeppelin/contracts@4.6.0/utils/Strings.sol\":601:611  value == 0 */\n      eq\n        /* \"@openzeppelin/contracts@4.6.0/utils/Strings.sol\":597:648  if (value == 0) {... */\n      iszero\n      tag_234\n      jumpi\n        /* \"@openzeppelin/contracts@4.6.0/utils/Strings.sol\":627:637  return \"0\" */\n      mload(0x40)\n      dup1\n      0x40\n      add\n      0x40\n      mstore\n      dup1\n      0x01\n      dup2\n      mstore\n      0x20\n      add\n      0x3000000000000000000000000000000000000000000000000000000000000000\n      dup2\n      mstore\n      pop\n      swap1\n      pop\n      jump(tag_233)\n        /* \"@openzeppelin/contracts@4.6.0/utils/Strings.sol\":597:648  if (value == 0) {... */\n    tag_234:\n        /* \"@openzeppelin/contracts@4.6.0/utils/Strings.sol\":657:669  uint256 temp */\n      0x00\n        /* \"@openzeppelin/contracts@4.6.0/utils/Strings.sol\":672:677  value */\n      dup3\n        /* \"@openzeppelin/contracts@4.6.0/utils/Strings.sol\":657:677  uint256 temp = value */\n      swap1\n      pop\n        /* \"@openzeppelin/contracts@4.6.0/utils/Strings.sol\":687:701  uint256 digits */\n      0x00\n        /* \"@openzeppelin/contracts@4.6.0/utils/Strings.sol\":711:786  while (temp != 0) {... */\n    tag_235:\n        /* \"@openzeppelin/contracts@4.6.0/utils/Strings.sol\":726:727  0 */\n      0x00\n        /* \"@openzeppelin/contracts@4.6.0/utils/Strings.sol\":718:722  temp */\n      dup3\n        /* \"@openzeppelin/contracts@4.6.0/utils/Strings.sol\":718:727  temp != 0 */\n      eq\n        /* \"@openzeppelin/contracts@4.6.0/utils/Strings.sol\":711:786  while (temp != 0) {... */\n      tag_236\n      jumpi\n        /* \"@openzeppelin/contracts@4.6.0/utils/Strings.sol\":743:751  digits++ */\n      dup1\n      dup1\n      tag_237\n      swap1\n      tag_238\n      jump\t// in\n    tag_237:\n      swap2\n      pop\n      pop\n        /* \"@openzeppelin/contracts@4.6.0/utils/Strings.sol\":773:775  10 */\n      0x0a\n        /* \"@openzeppelin/contracts@4.6.0/utils/Strings.sol\":765:775  temp /= 10 */\n      dup3\n      tag_239\n      swap2\n      swap1\n      tag_240\n      jump\t// in\n    tag_239:\n      swap2\n      pop\n        /* \"@openzeppelin/contracts@4.6.0/utils/Strings.sol\":711:786  while (temp != 0) {... */\n      jump(tag_235)\n    tag_236:\n        /* \"@openzeppelin/contracts@4.6.0/utils/Strings.sol\":795:814  bytes memory buffer */\n      0x00\n        /* \"@openzeppelin/contracts@4.6.0/utils/Strings.sol\":827:833  digits */\n      dup2\n        /* \"@openzeppelin/contracts@4.6.0/utils/Strings.sol\":817:834  new bytes(digits) */\n      0xffffffffffffffff\n      dup2\n      gt\n      iszero\n      tag_241\n      jumpi\n      mstore(0x00, 0x4e487b7100000000000000000000000000000000000000000000000000000000)\n      mstore(0x04, 0x41)\n      revert(0x00, 0x24)\n    tag_241:\n      mload(0x40)\n      swap1\n      dup1\n      dup3\n      mstore\n      dup1\n      0x1f\n      add\n      not(0x1f)\n      and\n      0x20\n      add\n      dup3\n      add\n      0x40\n      mstore\n      dup1\n      iszero\n      tag_242\n      jumpi\n      dup2\n      0x20\n      add\n      0x01\n      dup3\n      mul\n      dup1\n      calldatasize\n      dup4\n      calldatacopy\n      dup1\n      dup3\n      add\n      swap2\n      pop\n      pop\n      swap1\n      pop\n    tag_242:\n      pop\n        /* \"@openzeppelin/contracts@4.6.0/utils/Strings.sol\":795:834  bytes memory buffer = new bytes(digits) */\n      swap1\n      pop\n        /* \"@openzeppelin/contracts@4.6.0/utils/Strings.sol\":844:994  while (value != 0) {... */\n    tag_243:\n        /* \"@openzeppelin/contracts@4.6.0/utils/Strings.sol\":860:861  0 */\n      0x00\n        /* \"@openzeppelin/contracts@4.6.0/utils/Strings.sol\":851:856  value */\n      dup6\n        /* \"@openzeppelin/contracts@4.6.0/utils/Strings.sol\":851:861  value != 0 */\n      eq\n        /* \"@openzeppelin/contracts@4.6.0/utils/Strings.sol\":844:994  while (value != 0) {... */\n      tag_244\n      jumpi\n        /* \"@openzeppelin/contracts@4.6.0/utils/Strings.sol\":887:888  1 */\n      0x01\n        /* \"@openzeppelin/contracts@4.6.0/utils/Strings.sol\":877:888  digits -= 1 */\n      dup3\n      tag_245\n      swap2\n      swap1\n      tag_246\n      jump\t// in\n    tag_245:\n      swap2\n      pop\n        /* \"@openzeppelin/contracts@4.6.0/utils/Strings.sol\":953:955  10 */\n      0x0a\n        /* \"@openzeppelin/contracts@4.6.0/utils/Strings.sol\":945:950  value */\n      dup6\n        /* \"@openzeppelin/contracts@4.6.0/utils/Strings.sol\":945:955  value % 10 */\n      tag_247\n      swap2\n      swap1\n      tag_248\n      jump\t// in\n    tag_247:\n        /* \"@openzeppelin/contracts@4.6.0/utils/Strings.sol\":932:934  48 */\n      0x30\n        /* \"@openzeppelin/contracts@4.6.0/utils/Strings.sol\":932:956  48 + uint256(value % 10) */\n      tag_249\n      swap2\n      swap1\n      tag_250\n      jump\t// in\n    tag_249:\n        /* \"@openzeppelin/contracts@4.6.0/utils/Strings.sol\":919:958  bytes1(uint8(48 + uint256(value % 10))) */\n      0xf8\n      shl\n        /* \"@openzeppelin/contracts@4.6.0/utils/Strings.sol\":902:908  buffer */\n      dup2\n        /* \"@openzeppelin/contracts@4.6.0/utils/Strings.sol\":909:915  digits */\n      dup4\n        /* \"@openzeppelin/contracts@4.6.0/utils/Strings.sol\":902:916  buffer[digits] */\n      dup2\n      mload\n      dup2\n      lt\n      tag_251\n      jumpi\n      mstore(0x00, 0x4e487b7100000000000000000000000000000000000000000000000000000000)\n      mstore(0x04, 0x32)\n      revert(0x00, 0x24)\n    tag_251:\n      0x20\n      add\n      add\n        /* \"@openzeppelin/contracts@4.6.0/utils/Strings.sol\":902:958  buffer[digits] = bytes1(uint8(48 + uint256(value % 10))) */\n      swap1\n      not(0xffffffffffffffffffffffffffffffffffffffffffffffffffffffffffffff)\n      and\n      swap1\n      dup2\n      0x00\n      byte\n      swap1\n      mstore8\n      pop\n        /* \"@openzeppelin/contracts@4.6.0/utils/Strings.sol\":981:983  10 */\n      0x0a\n        /* \"@openzeppelin/contracts@4.6.0/utils/Strings.sol\":972:983  value /= 10 */\n      dup6\n      tag_252\n      swap2\n      swap1\n      tag_240\n      jump\t// in\n    tag_252:\n      swap5\n      pop\n        /* \"@openzeppelin/contracts@4.6.0/utils/Strings.sol\":844:994  while (value != 0) {... */\n      jump(tag_243)\n    tag_244:\n        /* \"@openzeppelin/contracts@4.6.0/utils/Strings.sol\":1017:1023  buffer */\n      dup1\n        /* \"@openzeppelin/contracts@4.6.0/utils/Strings.sol\":1003:1024  return string(buffer) */\n      swap4\n      pop\n      pop\n      pop\n      pop\n        /* \"@openzeppelin/contracts@4.6.0/utils/Strings.sol\":328:1031  function toString(uint256 value) internal pure returns (string memory) {... */\n    tag_233:\n      swap2\n      swap1\n      pop\n      jump\t// out\n        /* \"contracts/nft.sol\":5687:5814  function _exists(uint256 tokenId) internal view virtual returns (bool) {\r... */\n    tag_187:\n        /* \"contracts/nft.sol\":5752:5756  bool */\n      0x00\n        /* \"contracts/nft.sol\":5804:5805  0 */\n      dup1\n        /* \"contracts/nft.sol\":5776:5806  _owners[tokenId] != address(0) */\n      0xffffffffffffffffffffffffffffffffffffffff\n      and\n        /* \"contracts/nft.sol\":5776:5783  _owners */\n      0x02\n        /* \"contracts/nft.sol\":5776:5792  _owners[tokenId] */\n      0x00\n        /* \"contracts/nft.sol\":5784:5791  tokenId */\n      dup5\n        /* \"contracts/nft.sol\":5776:5792  _owners[tokenId] */\n      dup2\n      mstore\n      0x20\n      add\n      swap1\n      dup2\n      mstore\n      0x20\n      add\n      0x00\n      keccak256\n      0x00\n      swap1\n      sload\n      swap1\n      0x0100\n      exp\n      swap1\n      div\n      0xffffffffffffffffffffffffffffffffffffffff\n      and\n        /* \"contracts/nft.sol\":5776:5806  _owners[tokenId] != address(0) */\n      0xffffffffffffffffffffffffffffffffffffffff\n      and\n      eq\n      iszero\n        /* \"contracts/nft.sol\":5769:5806  return _owners[tokenId] != address(0) */\n      swap1\n      pop\n        /* \"contracts/nft.sol\":5687:5814  function _exists(uint256 tokenId) internal view virtual returns (bool) {\r... */\n      swap2\n      swap1\n      pop\n      jump\t// out\n        /* \"contracts/nft.sol\":6300:6731  function _safeMint(\r... */\n    tag_195:\n        /* \"contracts/nft.sol\":6507:6559  _mint(to, collaborator,collaboratorPercent, tokenId) */\n      tag_255\n        /* \"contracts/nft.sol\":6513:6515  to */\n      dup6\n        /* \"contracts/nft.sol\":6517:6529  collaborator */\n      dup6\n        /* \"contracts/nft.sol\":6530:6549  collaboratorPercent */\n      dup6\n        /* \"contracts/nft.sol\":6551:6558  tokenId */\n      dup6\n        /* \"contracts/nft.sol\":6507:6512  _mint */\n      tag_256\n        /* \"contracts/nft.sol\":6507:6559  _mint(to, collaborator,collaboratorPercent, tokenId) */\n      jump\t// in\n    tag_255:\n        /* \"contracts/nft.sol\":6592:6645  _checkOnERC721Received(address(0), to, tokenId, data) */\n      tag_257\n        /* \"contracts/nft.sol\":6623:6624  0 */\n      0x00\n        /* \"contracts/nft.sol\":6627:6629  to */\n      dup7\n        /* \"contracts/nft.sol\":6631:6638  tokenId */\n      dup5\n        /* \"contracts/nft.sol\":6640:6644  data */\n      dup5\n        /* \"contracts/nft.sol\":6592:6614  _checkOnERC721Received */\n      tag_228\n        /* \"contracts/nft.sol\":6592:6645  _checkOnERC721Received(address(0), to, tokenId, data) */\n      jump\t// in\n    tag_257:\n        /* \"contracts/nft.sol\":6570:6723  require(\r... */\n      tag_258\n      jumpi\n      mload(0x40)\n      0x08c379a000000000000000000000000000000000000000000000000000000000\n      dup2\n      mstore\n      0x04\n      add\n      tag_259\n      swap1\n      tag_231\n      jump\t// in\n    tag_259:\n      mload(0x40)\n      dup1\n      swap2\n      sub\n      swap1\n      revert\n    tag_258:\n        /* \"contracts/nft.sol\":6300:6731  function _safeMint(\r... */\n      pop\n      pop\n      pop\n      pop\n      pop\n      jump\t// out\n        /* \"contracts/nft.sol\":10454:10580  function _beforeTokenTransfer(\r... */\n    tag_214:\n      pop\n      pop\n      pop\n      jump\t// out\n        /* \"contracts/nft.sol\":10588:10713  function _afterTokenTransfer(\r... */\n    tag_219:\n      pop\n      pop\n      pop\n      jump\t// out\n        /* \"contracts/nft.sol\":9591:10444  function _checkOnERC721Received(\r... */\n    tag_228:\n        /* \"contracts/nft.sol\":9745:9749  bool */\n      0x00\n        /* \"contracts/nft.sol\":9766:9781  to.isContract() */\n      tag_263\n        /* \"contracts/nft.sol\":9766:9768  to */\n      dup5\n        /* \"contracts/nft.sol\":9766:9779  to.isContract */\n      0xffffffffffffffffffffffffffffffffffffffff\n      and\n      tag_264\n        /* \"contracts/nft.sol\":9766:9781  to.isContract() */\n      jump\t// in\n    tag_263:\n        /* \"contracts/nft.sol\":9762:10437  if (to.isContract()) {\r... */\n      iszero\n      tag_265\n      jumpi\n        /* \"contracts/nft.sol\":9818:9820  to */\n      dup4\n        /* \"contracts/nft.sol\":9802:9838  IERC721Receiver(to).onERC721Received */\n      0xffffffffffffffffffffffffffffffffffffffff\n      and\n      0x150b7a02\n        /* \"contracts/nft.sol\":9839:9851  _msgSender() */\n      tag_266\n        /* \"contracts/nft.sol\":9839:9849  _msgSender */\n      tag_113\n        /* \"contracts/nft.sol\":9839:9851  _msgSender() */\n      jump\t// in\n    tag_266:\n        /* \"contracts/nft.sol\":9853:9857  from */\n      dup8\n        /* \"contracts/nft.sol\":9859:9866  tokenId */\n      dup7\n        /* \"contracts/nft.sol\":9868:9872  data */\n      dup7\n        /* \"contracts/nft.sol\":9802:9873  IERC721Receiver(to).onERC721Received(_msgSender(), from, tokenId, data) */\n      mload(0x40)\n      dup6\n      0xffffffff\n      and\n      0xe0\n      shl\n      dup2\n      mstore\n      0x04\n      add\n      tag_267\n      swap5\n      swap4\n      swap3\n      swap2\n      swap1\n      tag_268\n      jump\t// in\n    tag_267:\n      0x20\n      mload(0x40)\n      dup1\n      dup4\n      sub\n      dup2\n      0x00\n      dup8\n      dup1\n      extcodesize\n      iszero\n      dup1\n      iszero\n      tag_269\n      jumpi\n      0x00\n      dup1\n      revert\n    tag_269:\n      pop\n      gas\n      call\n      swap3\n      pop\n      pop\n      pop\n      dup1\n      iszero\n      tag_270\n      jumpi\n      pop\n      mload(0x40)\n      returndatasize\n      not(0x1f)\n      0x1f\n      dup3\n      add\n      and\n      dup3\n      add\n      dup1\n      0x40\n      mstore\n      pop\n      dup2\n      add\n      swap1\n      tag_271\n      swap2\n      swap1\n      tag_272\n      jump\t// in\n    tag_271:\n      0x01\n    tag_270:\n        /* \"contracts/nft.sol\":9798:10382  try IERC721Receiver(to).onERC721Received(_msgSender(), from, tokenId, data) returns (bytes4 retval) {\r... */\n      tag_273\n      jumpi\n      returndatasize\n      dup1\n      0x00\n      dup2\n      eq\n      tag_278\n      jumpi\n      mload(0x40)\n      swap2\n      pop\n      and(add(returndatasize, 0x3f), not(0x1f))\n      dup3\n      add\n      0x40\n      mstore\n      returndatasize\n      dup3\n      mstore\n      returndatasize\n      0x00\n      0x20\n      dup5\n      add\n      returndatacopy\n      jump(tag_277)\n    tag_278:\n      0x60\n      swap2\n      pop\n    tag_277:\n      pop\n        /* \"contracts/nft.sol\":10060:10061  0 */\n      0x00\n        /* \"contracts/nft.sol\":10043:10049  reason */\n      dup2\n        /* \"contracts/nft.sol\":10043:10056  reason.length */\n      mload\n        /* \"contracts/nft.sol\":10043:10061  reason.length == 0 */\n      eq\n        /* \"contracts/nft.sol\":10039:10367  if (reason.length == 0) {\r... */\n      iszero\n      tag_279\n      jumpi\n        /* \"contracts/nft.sol\":10086:10146  revert(\"ERC721: transfer to non ERC721Receiver implementer\") */\n      mload(0x40)\n      0x08c379a000000000000000000000000000000000000000000000000000000000\n      dup2\n      mstore\n      0x04\n      add\n      tag_280\n      swap1\n      tag_231\n      jump\t// in\n    tag_280:\n      mload(0x40)\n      dup1\n      swap2\n      sub\n      swap1\n      revert\n        /* \"contracts/nft.sol\":10039:10367  if (reason.length == 0) {\r... */\n    tag_279:\n        /* \"contracts/nft.sol\":10317:10323  reason */\n      dup1\n        /* \"contracts/nft.sol\":10311:10324  mload(reason) */\n      mload\n        /* \"contracts/nft.sol\":10302:10308  reason */\n      dup2\n        /* \"contracts/nft.sol\":10298:10300  32 */\n      0x20\n        /* \"contracts/nft.sol\":10294:10309  add(32, reason) */\n      add\n        /* \"contracts/nft.sol\":10287:10325  revert(add(32, reason), mload(reason)) */\n      revert\n        /* \"contracts/nft.sol\":9798:10382  try IERC721Receiver(to).onERC721Received(_msgSender(), from, tokenId, data) returns (bytes4 retval) {\r... */\n    tag_273:\n        /* \"contracts/nft.sol\":9934:9975  IERC721Receiver.onERC721Received.selector */\n      shl(0xe0, 0x150b7a02)\n        /* \"contracts/nft.sol\":9924:9975  retval == IERC721Receiver.onERC721Received.selector */\n      not(0xffffffffffffffffffffffffffffffffffffffffffffffffffffffff)\n      and\n        /* \"contracts/nft.sol\":9924:9930  retval */\n      dup2\n        /* \"contracts/nft.sol\":9924:9975  retval == IERC721Receiver.onERC721Received.selector */\n      not(0xffffffffffffffffffffffffffffffffffffffffffffffffffffffff)\n      and\n      eq\n        /* \"contracts/nft.sol\":9917:9975  return retval == IERC721Receiver.onERC721Received.selector */\n      swap2\n      pop\n      pop\n      jump(tag_262)\n        /* \"contracts/nft.sol\":9762:10437  if (to.isContract()) {\r... */\n    tag_265:\n        /* \"contracts/nft.sol\":10421:10425  true */\n      0x01\n        /* \"contracts/nft.sol\":10414:10425  return true */\n      swap1\n      pop\n        /* \"contracts/nft.sol\":9591:10444  function _checkOnERC721Received(\r... */\n    tag_262:\n      swap5\n      swap4\n      pop\n      pop\n      pop\n      pop\n      jump\t// out\n        /* \"contracts/nft.sol\":6739:7458  function _mint(address to,string[] memory collaborator,uint256 collaboratorPercent,uint256 tokenId) internal virtual {\r... */\n    tag_256:\n        /* \"contracts/nft.sol\":6889:6890  0 */\n      0x00\n        /* \"contracts/nft.sol\":6875:6891  to != address(0) */\n      0xffffffffffffffffffffffffffffffffffffffff\n      and\n        /* \"contracts/nft.sol\":6875:6877  to */\n      dup5\n        /* \"contracts/nft.sol\":6875:6891  to != address(0) */\n      0xffffffffffffffffffffffffffffffffffffffff\n      and\n      eq\n      iszero\n        /* \"contracts/nft.sol\":6867:6928  require(to != address(0), \"ERC721: mint to the zero address\") */\n      tag_285\n      jumpi\n      mload(0x40)\n      0x08c379a000000000000000000000000000000000000000000000000000000000\n      dup2\n      mstore\n      0x04\n      add\n      tag_286\n      swap1\n      tag_287\n      jump\t// in\n    tag_286:\n      mload(0x40)\n      dup1\n      swap2\n      sub\n      swap1\n      revert\n    tag_285:\n        /* \"contracts/nft.sol\":6948:6964  _exists(tokenId) */\n      tag_288\n        /* \"contracts/nft.sol\":6956:6963  tokenId */\n      dup2\n        /* \"contracts/nft.sol\":6948:6955  _exists */\n      tag_187\n        /* \"contracts/nft.sol\":6948:6964  _exists(tokenId) */\n      jump\t// in\n    tag_288:\n        /* \"contracts/nft.sol\":6947:6964  !_exists(tokenId) */\n      iszero\n        /* \"contracts/nft.sol\":6939:6997  require(!_exists(tokenId), \"ERC721: token already minted\") */\n      tag_289\n      jumpi\n      mload(0x40)\n      0x08c379a000000000000000000000000000000000000000000000000000000000\n      dup2\n      mstore\n      0x04\n      add\n      tag_290\n      swap1\n      tag_291\n      jump\t// in\n    tag_290:\n      mload(0x40)\n      dup1\n      swap2\n      sub\n      swap1\n      revert\n    tag_289:\n        /* \"contracts/nft.sol\":7010:7055  _beforeTokenTransfer(address(0), to, tokenId) */\n      tag_292\n        /* \"contracts/nft.sol\":7039:7040  0 */\n      0x00\n        /* \"contracts/nft.sol\":7043:7045  to */\n      dup6\n        /* \"contracts/nft.sol\":7047:7054  tokenId */\n      dup4\n        /* \"contracts/nft.sol\":7010:7030  _beforeTokenTransfer */\n      tag_214\n        /* \"contracts/nft.sol\":7010:7055  _beforeTokenTransfer(address(0), to, tokenId) */\n      jump\t// in\n    tag_292:\n        /* \"contracts/nft.sol\":7077:7093  _exists(tokenId) */\n      tag_293\n        /* \"contracts/nft.sol\":7085:7092  tokenId */\n      dup2\n        /* \"contracts/nft.sol\":7077:7084  _exists */\n      tag_187\n        /* \"contracts/nft.sol\":7077:7093  _exists(tokenId) */\n      jump\t// in\n    tag_293:\n        /* \"contracts/nft.sol\":7076:7093  !_exists(tokenId) */\n      iszero\n        /* \"contracts/nft.sol\":7068:7126  require(!_exists(tokenId), \"ERC721: token already minted\") */\n      tag_294\n      jumpi\n      mload(0x40)\n      0x08c379a000000000000000000000000000000000000000000000000000000000\n      dup2\n      mstore\n      0x04\n      add\n      tag_295\n      swap1\n      tag_291\n      jump\t// in\n    tag_295:\n      mload(0x40)\n      dup1\n      swap2\n      sub\n      swap1\n      revert\n    tag_294:\n        /* \"contracts/nft.sol\":7181:7182  1 */\n      0x01\n        /* \"contracts/nft.sol\":7164:7173  _balances */\n      0x05\n        /* \"contracts/nft.sol\":7164:7177  _balances[to] */\n      0x00\n        /* \"contracts/nft.sol\":7174:7176  to */\n      dup7\n        /* \"contracts/nft.sol\":7164:7177  _balances[to] */\n      0xffffffffffffffffffffffffffffffffffffffff\n      and\n      0xffffffffffffffffffffffffffffffffffffffff\n      and\n      dup2\n      mstore\n      0x20\n      add\n      swap1\n      dup2\n      mstore\n      0x20\n      add\n      0x00\n      keccak256\n      0x00\n        /* \"contracts/nft.sol\":7164:7182  _balances[to] += 1 */\n      dup3\n      dup3\n      sload\n      add\n      swap3\n      pop\n      pop\n      dup2\n      swap1\n      sstore\n      pop\n        /* \"contracts/nft.sol\":7225:7227  to */\n      dup4\n        /* \"contracts/nft.sol\":7206:7213  _owners */\n      0x02\n        /* \"contracts/nft.sol\":7206:7222  _owners[tokenId] */\n      0x00\n        /* \"contracts/nft.sol\":7214:7221  tokenId */\n      dup4\n        /* \"contracts/nft.sol\":7206:7222  _owners[tokenId] */\n      dup2\n      mstore\n      0x20\n      add\n      swap1\n      dup2\n      mstore\n      0x20\n      add\n      0x00\n      keccak256\n      0x00\n        /* \"contracts/nft.sol\":7206:7227  _owners[tokenId] = to */\n      0x0100\n      exp\n      dup2\n      sload\n      dup2\n      0xffffffffffffffffffffffffffffffffffffffff\n      mul\n      not\n      and\n      swap1\n      dup4\n      0xffffffffffffffffffffffffffffffffffffffff\n      and\n      mul\n      or\n      swap1\n      sstore\n      pop\n        /* \"contracts/nft.sol\":7264:7276  collaborator */\n      dup3\n        /* \"contracts/nft.sol\":7238:7252  _collaborators */\n      0x03\n        /* \"contracts/nft.sol\":7238:7261  _collaborators[tokenId] */\n      0x00\n        /* \"contracts/nft.sol\":7253:7260  tokenId */\n      dup4\n        /* \"contracts/nft.sol\":7238:7261  _collaborators[tokenId] */\n      dup2\n      mstore\n      0x20\n      add\n      swap1\n      dup2\n      mstore\n      0x20\n      add\n      0x00\n      keccak256\n        /* \"contracts/nft.sol\":7238:7276  _collaborators[tokenId] = collaborator */\n      swap1\n      dup1\n      mload\n      swap1\n      0x20\n      add\n      swap1\n      tag_296\n      swap3\n      swap2\n      swap1\n      tag_297\n      jump\t// in\n    tag_296:\n      pop\n        /* \"contracts/nft.sol\":7323:7342  collaboratorPercent */\n      dup2\n        /* \"contracts/nft.sol\":7287:7311  _collaboratorsPercentage */\n      0x04\n        /* \"contracts/nft.sol\":7287:7320  _collaboratorsPercentage[tokenId] */\n      0x00\n        /* \"contracts/nft.sol\":7312:7319  tokenId */\n      dup4\n        /* \"contracts/nft.sol\":7287:7320  _collaboratorsPercentage[tokenId] */\n      dup2\n      mstore\n      0x20\n      add\n      swap1\n      dup2\n      mstore\n      0x20\n      add\n      0x00\n      keccak256\n        /* \"contracts/nft.sol\":7287:7342  _collaboratorsPercentage[tokenId] = collaboratorPercent */\n      dup2\n      swap1\n      sstore\n      pop\n        /* \"contracts/nft.sol\":7385:7392  tokenId */\n      dup1\n        /* \"contracts/nft.sol\":7381:7383  to */\n      dup5\n        /* \"contracts/nft.sol\":7360:7393  Transfer(address(0), to, tokenId) */\n      0xffffffffffffffffffffffffffffffffffffffff\n      and\n        /* \"contracts/nft.sol\":7377:7378  0 */\n      0x00\n        /* \"contracts/nft.sol\":7360:7393  Transfer(address(0), to, tokenId) */\n      0xffffffffffffffffffffffffffffffffffffffff\n      and\n      0xddf252ad1be2c89b69c2b068fc378daa952ba7f163c4a11628f55a4df523b3ef\n      mload(0x40)\n      mload(0x40)\n      dup1\n      swap2\n      sub\n      swap1\n      log4\n        /* \"contracts/nft.sol\":7406:7450  _afterTokenTransfer(address(0), to, tokenId) */\n      tag_298\n        /* \"contracts/nft.sol\":7434:7435  0 */\n      0x00\n        /* \"contracts/nft.sol\":7438:7440  to */\n      dup6\n        /* \"contracts/nft.sol\":7442:7449  tokenId */\n      dup4\n        /* \"contracts/nft.sol\":7406:7425  _afterTokenTransfer */\n      tag_219\n        /* \"contracts/nft.sol\":7406:7450  _afterTokenTransfer(address(0), to, tokenId) */\n      jump\t// in\n    tag_298:\n        /* \"contracts/nft.sol\":6739:7458  function _mint(address to,string[] memory collaborator,uint256 collaboratorPercent,uint256 tokenId) internal virtual {\r... */\n      pop\n      pop\n      pop\n      pop\n      jump\t// out\n        /* \"@openzeppelin/contracts@4.6.0/utils/Address.sol\":1175:1495  function isContract(address account) internal view returns (bool) {... */\n    tag_264:\n        /* \"@openzeppelin/contracts@4.6.0/utils/Address.sol\":1235:1239  bool */\n      0x00\n        /* \"@openzeppelin/contracts@4.6.0/utils/Address.sol\":1487:1488  0 */\n      dup1\n        /* \"@openzeppelin/contracts@4.6.0/utils/Address.sol\":1465:1472  account */\n      dup3\n        /* \"@openzeppelin/contracts@4.6.0/utils/Address.sol\":1465:1484  account.code.length */\n      0xffffffffffffffffffffffffffffffffffffffff\n      and\n      extcodesize\n        /* \"@openzeppelin/contracts@4.6.0/utils/Address.sol\":1465:1488  account.code.length > 0 */\n      gt\n        /* \"@openzeppelin/contracts@4.6.0/utils/Address.sol\":1458:1488  return account.code.length > 0 */\n      swap1\n      pop\n        /* \"@openzeppelin/contracts@4.6.0/utils/Address.sol\":1175:1495  function isContract(address account) internal view returns (bool) {... */\n      swap2\n      swap1\n      pop\n      jump\t// out\n    tag_198:\n      dup3\n      dup1\n      sload\n      tag_300\n      swap1\n      tag_99\n      jump\t// in\n    tag_300:\n      swap1\n      0x00\n      mstore\n      keccak256(0x00, 0x20)\n      swap1\n      0x1f\n      add\n      0x20\n      swap1\n      div\n      dup2\n      add\n      swap3\n      dup3\n      tag_302\n      jumpi\n      0x00\n      dup6\n      sstore\n      jump(tag_301)\n    tag_302:\n      dup3\n      0x1f\n      lt\n      tag_303\n      jumpi\n      dup1\n      mload\n      not(0xff)\n      and\n      dup4\n      dup1\n      add\n      or\n      dup6\n      sstore\n      jump(tag_301)\n    tag_303:\n      dup3\n      dup1\n      add\n      0x01\n      add\n      dup6\n      sstore\n      dup3\n      iszero\n      tag_301\n      jumpi\n      swap2\n      dup3\n      add\n    tag_304:\n      dup3\n      dup2\n      gt\n      iszero\n      tag_305\n      jumpi\n      dup3\n      mload\n      dup3\n      sstore\n      swap2\n      0x20\n      add\n      swap2\n      swap1\n      0x01\n      add\n      swap1\n      jump(tag_304)\n    tag_305:\n    tag_301:\n      pop\n      swap1\n      pop\n      tag_306\n      swap2\n      swap1\n      tag_307\n      jump\t// in\n    tag_306:\n      pop\n      swap1\n      jump\t// out\n    tag_297:\n      dup3\n      dup1\n      sload\n      dup3\n      dup3\n      sstore\n      swap1\n      0x00\n      mstore\n      keccak256(0x00, 0x20)\n      swap1\n      dup2\n      add\n      swap3\n      dup3\n      iszero\n      tag_308\n      jumpi\n      swap2\n      0x20\n      mul\n      dup3\n      add\n    tag_309:\n      dup3\n      dup2\n      gt\n      iszero\n      tag_310\n      jumpi\n      dup3\n      mload\n      dup3\n      swap1\n      dup1\n      mload\n      swap1\n      0x20\n      add\n      swap1\n      tag_311\n      swap3\n      swap2\n      swap1\n      tag_198\n      jump\t// in\n    tag_311:\n      pop\n      swap2\n      0x20\n      add\n      swap2\n      swap1\n      0x01\n      add\n      swap1\n      jump(tag_309)\n    tag_310:\n    tag_308:\n      pop\n      swap1\n      pop\n      tag_312\n      swap2\n      swap1\n      tag_313\n      jump\t// in\n    tag_312:\n      pop\n      swap1\n      jump\t// out\n    tag_307:\n    tag_314:\n      dup1\n      dup3\n      gt\n      iszero\n      tag_315\n      jumpi\n      0x00\n      dup2\n      0x00\n      swap1\n      sstore\n      pop\n      0x01\n      add\n      jump(tag_314)\n    tag_315:\n      pop\n      swap1\n      jump\t// out\n    tag_313:\n    tag_316:\n      dup1\n      dup3\n      gt\n      iszero\n      tag_317\n      jumpi\n      0x00\n      dup2\n      dup2\n      tag_318\n      swap2\n      swap1\n      tag_319\n      jump\t// in\n    tag_318:\n      pop\n      0x01\n      add\n      jump(tag_316)\n    tag_317:\n      pop\n      swap1\n      jump\t// out\n    tag_319:\n      pop\n      dup1\n      sload\n      tag_320\n      swap1\n      tag_99\n      jump\t// in\n    tag_320:\n      0x00\n      dup3\n      sstore\n      dup1\n      0x1f\n      lt\n      tag_322\n      jumpi\n      pop\n      jump(tag_321)\n    tag_322:\n      0x1f\n      add\n      0x20\n      swap1\n      div\n      swap1\n      0x00\n      mstore\n      keccak256(0x00, 0x20)\n      swap1\n      dup2\n      add\n      swap1\n      tag_323\n      swap2\n      swap1\n      tag_307\n      jump\t// in\n    tag_323:\n    tag_321:\n      pop\n      jump\t// out\n        /* \"#utility.yul\":23:846   */\n    tag_325:\n        /* \"#utility.yul\":129:134   */\n      0x00\n        /* \"#utility.yul\":154:245   */\n      tag_327\n        /* \"#utility.yul\":170:244   */\n      tag_328\n        /* \"#utility.yul\":237:243   */\n      dup5\n        /* \"#utility.yul\":170:244   */\n      tag_329\n      jump\t// in\n    tag_328:\n        /* \"#utility.yul\":154:245   */\n      tag_330\n      jump\t// in\n    tag_327:\n        /* \"#utility.yul\":145:245   */\n      swap1\n      pop\n        /* \"#utility.yul\":265:270   */\n      dup1\n        /* \"#utility.yul\":294:300   */\n      dup4\n        /* \"#utility.yul\":287:292   */\n      dup3\n        /* \"#utility.yul\":280:301   */\n      mstore\n        /* \"#utility.yul\":328:332   */\n      0x20\n        /* \"#utility.yul\":321:326   */\n      dup3\n        /* \"#utility.yul\":317:333   */\n      add\n        /* \"#utility.yul\":310:333   */\n      swap1\n      pop\n        /* \"#utility.yul\":354:360   */\n      dup3\n        /* \"#utility.yul\":404:407   */\n      dup6\n        /* \"#utility.yul\":396:400   */\n      0x20\n        /* \"#utility.yul\":388:394   */\n      dup7\n        /* \"#utility.yul\":384:401   */\n      mul\n        /* \"#utility.yul\":379:382   */\n      dup3\n        /* \"#utility.yul\":375:402   */\n      add\n        /* \"#utility.yul\":372:408   */\n      gt\n        /* \"#utility.yul\":369:371   */\n      iszero\n      tag_331\n      jumpi\n        /* \"#utility.yul\":433:434   */\n      0x00\n        /* \"#utility.yul\":430:431   */\n      dup1\n        /* \"#utility.yul\":423:435   */\n      revert\n        /* \"#utility.yul\":369:371   */\n    tag_331:\n        /* \"#utility.yul\":469:470   */\n      0x00\n        /* \"#utility.yul\":454:840   */\n    tag_332:\n        /* \"#utility.yul\":479:485   */\n      dup6\n        /* \"#utility.yul\":476:477   */\n      dup2\n        /* \"#utility.yul\":473:486   */\n      lt\n        /* \"#utility.yul\":454:840   */\n      iszero\n      tag_334\n      jumpi\n        /* \"#utility.yul\":561:564   */\n      dup2\n        /* \"#utility.yul\":548:565   */\n      calldataload\n        /* \"#utility.yul\":597:615   */\n      0xffffffffffffffff\n        /* \"#utility.yul\":584:595   */\n      dup2\n        /* \"#utility.yul\":581:616   */\n      gt\n        /* \"#utility.yul\":578:580   */\n      iszero\n      tag_335\n      jumpi\n        /* \"#utility.yul\":629:630   */\n      0x00\n        /* \"#utility.yul\":626:627   */\n      dup1\n        /* \"#utility.yul\":619:631   */\n      revert\n        /* \"#utility.yul\":578:580   */\n    tag_335:\n        /* \"#utility.yul\":676:687   */\n      dup1\n        /* \"#utility.yul\":668:674   */\n      dup7\n        /* \"#utility.yul\":664:688   */\n      add\n        /* \"#utility.yul\":714:761   */\n      tag_336\n        /* \"#utility.yul\":757:760   */\n      dup10\n        /* \"#utility.yul\":745:755   */\n      dup3\n        /* \"#utility.yul\":714:761   */\n      tag_337\n      jump\t// in\n    tag_336:\n        /* \"#utility.yul\":709:712   */\n      dup6\n        /* \"#utility.yul\":702:762   */\n      mstore\n        /* \"#utility.yul\":791:795   */\n      0x20\n        /* \"#utility.yul\":786:789   */\n      dup6\n        /* \"#utility.yul\":782:796   */\n      add\n        /* \"#utility.yul\":775:796   */\n      swap5\n      pop\n        /* \"#utility.yul\":825:829   */\n      0x20\n        /* \"#utility.yul\":820:823   */\n      dup5\n        /* \"#utility.yul\":816:830   */\n      add\n        /* \"#utility.yul\":809:830   */\n      swap4\n      pop\n        /* \"#utility.yul\":514:840   */\n      pop\n      pop\n        /* \"#utility.yul\":501:502   */\n      0x01\n        /* \"#utility.yul\":498:499   */\n      dup2\n        /* \"#utility.yul\":494:503   */\n      add\n        /* \"#utility.yul\":489:503   */\n      swap1\n      pop\n        /* \"#utility.yul\":454:840   */\n      jump(tag_332)\n    tag_334:\n        /* \"#utility.yul\":458:472   */\n      pop\n        /* \"#utility.yul\":135:846   */\n      pop\n      pop\n      swap4\n      swap3\n      pop\n      pop\n      pop\n      jump\t// out\n        /* \"#utility.yul\":852:1195   */\n    tag_338:\n        /* \"#utility.yul\":929:934   */\n      0x00\n        /* \"#utility.yul\":954:1019   */\n      tag_340\n        /* \"#utility.yul\":970:1018   */\n      tag_341\n        /* \"#utility.yul\":1011:1017   */\n      dup5\n        /* \"#utility.yul\":970:1018   */\n      tag_342\n      jump\t// in\n    tag_341:\n        /* \"#utility.yul\":954:1019   */\n      tag_330\n      jump\t// in\n    tag_340:\n        /* \"#utility.yul\":945:1019   */\n      swap1\n      pop\n        /* \"#utility.yul\":1042:1048   */\n      dup3\n        /* \"#utility.yul\":1035:1040   */\n      dup2\n        /* \"#utility.yul\":1028:1049   */\n      mstore\n        /* \"#utility.yul\":1080:1084   */\n      0x20\n        /* \"#utility.yul\":1073:1078   */\n      dup2\n        /* \"#utility.yul\":1069:1085   */\n      add\n        /* \"#utility.yul\":1118:1121   */\n      dup5\n        /* \"#utility.yul\":1109:1115   */\n      dup5\n        /* \"#utility.yul\":1104:1107   */\n      dup5\n        /* \"#utility.yul\":1100:1116   */\n      add\n        /* \"#utility.yul\":1097:1122   */\n      gt\n        /* \"#utility.yul\":1094:1096   */\n      iszero\n      tag_343\n      jumpi\n        /* \"#utility.yul\":1135:1136   */\n      0x00\n        /* \"#utility.yul\":1132:1133   */\n      dup1\n        /* \"#utility.yul\":1125:1137   */\n      revert\n        /* \"#utility.yul\":1094:1096   */\n    tag_343:\n        /* \"#utility.yul\":1148:1189   */\n      tag_344\n        /* \"#utility.yul\":1182:1188   */\n      dup5\n        /* \"#utility.yul\":1177:1180   */\n      dup3\n        /* \"#utility.yul\":1172:1175   */\n      dup6\n        /* \"#utility.yul\":1148:1189   */\n      tag_345\n      jump\t// in\n    tag_344:\n        /* \"#utility.yul\":935:1195   */\n      pop\n      swap4\n      swap3\n      pop\n      pop\n      pop\n      jump\t// out\n        /* \"#utility.yul\":1201:1546   */\n    tag_346:\n        /* \"#utility.yul\":1279:1284   */\n      0x00\n        /* \"#utility.yul\":1304:1370   */\n      tag_348\n        /* \"#utility.yul\":1320:1369   */\n      tag_349\n        /* \"#utility.yul\":1362:1368   */\n      dup5\n        /* \"#utility.yul\":1320:1369   */\n      tag_350\n      jump\t// in\n    tag_349:\n        /* \"#utility.yul\":1304:1370   */\n      tag_330\n      jump\t// in\n    tag_348:\n        /* \"#utility.yul\":1295:1370   */\n      swap1\n      pop\n        /* \"#utility.yul\":1393:1399   */\n      dup3\n        /* \"#utility.yul\":1386:1391   */\n      dup2\n        /* \"#utility.yul\":1379:1400   */\n      mstore\n        /* \"#utility.yul\":1431:1435   */\n      0x20\n        /* \"#utility.yul\":1424:1429   */\n      dup2\n        /* \"#utility.yul\":1420:1436   */\n      add\n        /* \"#utility.yul\":1469:1472   */\n      dup5\n        /* \"#utility.yul\":1460:1466   */\n      dup5\n        /* \"#utility.yul\":1455:1458   */\n      dup5\n        /* \"#utility.yul\":1451:1467   */\n      add\n        /* \"#utility.yul\":1448:1473   */\n      gt\n        /* \"#utility.yul\":1445:1447   */\n      iszero\n      tag_351\n      jumpi\n        /* \"#utility.yul\":1486:1487   */\n      0x00\n        /* \"#utility.yul\":1483:1484   */\n      dup1\n        /* \"#utility.yul\":1476:1488   */\n      revert\n        /* \"#utility.yul\":1445:1447   */\n    tag_351:\n        /* \"#utility.yul\":1499:1540   */\n      tag_352\n        /* \"#utility.yul\":1533:1539   */\n      dup5\n        /* \"#utility.yul\":1528:1531   */\n      dup3\n        /* \"#utility.yul\":1523:1526   */\n      dup6\n        /* \"#utility.yul\":1499:1540   */\n      tag_345\n      jump\t// in\n    tag_352:\n        /* \"#utility.yul\":1285:1546   */\n      pop\n      swap4\n      swap3\n      pop\n      pop\n      pop\n      jump\t// out\n        /* \"#utility.yul\":1552:1691   */\n    tag_353:\n        /* \"#utility.yul\":1598:1603   */\n      0x00\n        /* \"#utility.yul\":1636:1642   */\n      dup2\n        /* \"#utility.yul\":1623:1643   */\n      calldataload\n        /* \"#utility.yul\":1614:1643   */\n      swap1\n      pop\n        /* \"#utility.yul\":1652:1685   */\n      tag_355\n        /* \"#utility.yul\":1679:1684   */\n      dup2\n        /* \"#utility.yul\":1652:1685   */\n      tag_356\n      jump\t// in\n    tag_355:\n        /* \"#utility.yul\":1604:1691   */\n      swap3\n      swap2\n      pop\n      pop\n      jump\t// out\n        /* \"#utility.yul\":1713:2036   */\n    tag_357:\n        /* \"#utility.yul\":1794:1799   */\n      0x00\n        /* \"#utility.yul\":1843:1846   */\n      dup3\n        /* \"#utility.yul\":1836:1840   */\n      0x1f\n        /* \"#utility.yul\":1828:1834   */\n      dup4\n        /* \"#utility.yul\":1824:1841   */\n      add\n        /* \"#utility.yul\":1820:1847   */\n      slt\n        /* \"#utility.yul\":1810:1812   */\n      tag_359\n      jumpi\n        /* \"#utility.yul\":1861:1862   */\n      0x00\n        /* \"#utility.yul\":1858:1859   */\n      dup1\n        /* \"#utility.yul\":1851:1863   */\n      revert\n        /* \"#utility.yul\":1810:1812   */\n    tag_359:\n        /* \"#utility.yul\":1901:1907   */\n      dup2\n        /* \"#utility.yul\":1888:1908   */\n      calldataload\n        /* \"#utility.yul\":1926:2030   */\n      tag_360\n        /* \"#utility.yul\":2026:2029   */\n      dup5\n        /* \"#utility.yul\":2018:2024   */\n      dup3\n        /* \"#utility.yul\":2011:2015   */\n      0x20\n        /* \"#utility.yul\":2003:2009   */\n      dup7\n        /* \"#utility.yul\":1999:2016   */\n      add\n        /* \"#utility.yul\":1926:2030   */\n      tag_325\n      jump\t// in\n    tag_360:\n        /* \"#utility.yul\":1917:2030   */\n      swap2\n      pop\n        /* \"#utility.yul\":1800:2036   */\n      pop\n      swap3\n      swap2\n      pop\n      pop\n      jump\t// out\n        /* \"#utility.yul\":2042:2175   */\n    tag_361:\n        /* \"#utility.yul\":2085:2090   */\n      0x00\n        /* \"#utility.yul\":2123:2129   */\n      dup2\n        /* \"#utility.yul\":2110:2130   */\n      calldataload\n        /* \"#utility.yul\":2101:2130   */\n      swap1\n      pop\n        /* \"#utility.yul\":2139:2169   */\n      tag_363\n        /* \"#utility.yul\":2163:2168   */\n      dup2\n        /* \"#utility.yul\":2139:2169   */\n      tag_364\n      jump\t// in\n    tag_363:\n        /* \"#utility.yul\":2091:2175   */\n      swap3\n      swap2\n      pop\n      pop\n      jump\t// out\n        /* \"#utility.yul\":2181:2318   */\n    tag_365:\n        /* \"#utility.yul\":2226:2231   */\n      0x00\n        /* \"#utility.yul\":2264:2270   */\n      dup2\n        /* \"#utility.yul\":2251:2271   */\n      calldataload\n        /* \"#utility.yul\":2242:2271   */\n      swap1\n      pop\n        /* \"#utility.yul\":2280:2312   */\n      tag_367\n        /* \"#utility.yul\":2306:2311   */\n      dup2\n        /* \"#utility.yul\":2280:2312   */\n      tag_368\n      jump\t// in\n    tag_367:\n        /* \"#utility.yul\":2232:2318   */\n      swap3\n      swap2\n      pop\n      pop\n      jump\t// out\n        /* \"#utility.yul\":2324:2465   */\n    tag_369:\n        /* \"#utility.yul\":2380:2385   */\n      0x00\n        /* \"#utility.yul\":2411:2417   */\n      dup2\n        /* \"#utility.yul\":2405:2418   */\n      mload\n        /* \"#utility.yul\":2396:2418   */\n      swap1\n      pop\n        /* \"#utility.yul\":2427:2459   */\n      tag_371\n        /* \"#utility.yul\":2453:2458   */\n      dup2\n        /* \"#utility.yul\":2427:2459   */\n      tag_368\n      jump\t// in\n    tag_371:\n        /* \"#utility.yul\":2386:2465   */\n      swap3\n      swap2\n      pop\n      pop\n      jump\t// out\n        /* \"#utility.yul\":2484:2755   */\n    tag_372:\n        /* \"#utility.yul\":2539:2544   */\n      0x00\n        /* \"#utility.yul\":2588:2591   */\n      dup3\n        /* \"#utility.yul\":2581:2585   */\n      0x1f\n        /* \"#utility.yul\":2573:2579   */\n      dup4\n        /* \"#utility.yul\":2569:2586   */\n      add\n        /* \"#utility.yul\":2565:2592   */\n      slt\n        /* \"#utility.yul\":2555:2557   */\n      tag_374\n      jumpi\n        /* \"#utility.yul\":2606:2607   */\n      0x00\n        /* \"#utility.yul\":2603:2604   */\n      dup1\n        /* \"#utility.yul\":2596:2608   */\n      revert\n        /* \"#utility.yul\":2555:2557   */\n    tag_374:\n        /* \"#utility.yul\":2646:2652   */\n      dup2\n        /* \"#utility.yul\":2633:2653   */\n      calldataload\n        /* \"#utility.yul\":2671:2749   */\n      tag_375\n        /* \"#utility.yul\":2745:2748   */\n      dup5\n        /* \"#utility.yul\":2737:2743   */\n      dup3\n        /* \"#utility.yul\":2730:2734   */\n      0x20\n        /* \"#utility.yul\":2722:2728   */\n      dup7\n        /* \"#utility.yul\":2718:2735   */\n      add\n        /* \"#utility.yul\":2671:2749   */\n      tag_338\n      jump\t// in\n    tag_375:\n        /* \"#utility.yul\":2662:2749   */\n      swap2\n      pop\n        /* \"#utility.yul\":2545:2755   */\n      pop\n      swap3\n      swap2\n      pop\n      pop\n      jump\t// out\n        /* \"#utility.yul\":2775:3048   */\n    tag_337:\n        /* \"#utility.yul\":2831:2836   */\n      0x00\n        /* \"#utility.yul\":2880:2883   */\n      dup3\n        /* \"#utility.yul\":2873:2877   */\n      0x1f\n        /* \"#utility.yul\":2865:2871   */\n      dup4\n        /* \"#utility.yul\":2861:2878   */\n      add\n        /* \"#utility.yul\":2857:2884   */\n      slt\n        /* \"#utility.yul\":2847:2849   */\n      tag_377\n      jumpi\n        /* \"#utility.yul\":2898:2899   */\n      0x00\n        /* \"#utility.yul\":2895:2896   */\n      dup1\n        /* \"#utility.yul\":2888:2900   */\n      revert\n        /* \"#utility.yul\":2847:2849   */\n    tag_377:\n        /* \"#utility.yul\":2938:2944   */\n      dup2\n        /* \"#utility.yul\":2925:2945   */\n      calldataload\n        /* \"#utility.yul\":2963:3042   */\n      tag_378\n        /* \"#utility.yul\":3038:3041   */\n      dup5\n        /* \"#utility.yul\":3030:3036   */\n      dup3\n        /* \"#utility.yul\":3023:3027   */\n      0x20\n        /* \"#utility.yul\":3015:3021   */\n      dup7\n        /* \"#utility.yul\":3011:3028   */\n      add\n        /* \"#utility.yul\":2963:3042   */\n      tag_346\n      jump\t// in\n    tag_378:\n        /* \"#utility.yul\":2954:3042   */\n      swap2\n      pop\n        /* \"#utility.yul\":2837:3048   */\n      pop\n      swap3\n      swap2\n      pop\n      pop\n      jump\t// out\n        /* \"#utility.yul\":3054:3193   */\n    tag_379:\n        /* \"#utility.yul\":3100:3105   */\n      0x00\n        /* \"#utility.yul\":3138:3144   */\n      dup2\n        /* \"#utility.yul\":3125:3145   */\n      calldataload\n        /* \"#utility.yul\":3116:3145   */\n      swap1\n      pop\n        /* \"#utility.yul\":3154:3187   */\n      tag_381\n        /* \"#utility.yul\":3181:3186   */\n      dup2\n        /* \"#utility.yul\":3154:3187   */\n      tag_382\n      jump\t// in\n    tag_381:\n        /* \"#utility.yul\":3106:3193   */\n      swap3\n      swap2\n      pop\n      pop\n      jump\t// out\n        /* \"#utility.yul\":3199:3461   */\n    tag_64:\n        /* \"#utility.yul\":3258:3264   */\n      0x00\n        /* \"#utility.yul\":3307:3309   */\n      0x20\n        /* \"#utility.yul\":3295:3304   */\n      dup3\n        /* \"#utility.yul\":3286:3293   */\n      dup5\n        /* \"#utility.yul\":3282:3305   */\n      sub\n        /* \"#utility.yul\":3278:3310   */\n      slt\n        /* \"#utility.yul\":3275:3277   */\n      iszero\n      tag_384\n      jumpi\n        /* \"#utility.yul\":3323:3324   */\n      0x00\n        /* \"#utility.yul\":3320:3321   */\n      dup1\n        /* \"#utility.yul\":3313:3325   */\n      revert\n        /* \"#utility.yul\":3275:3277   */\n    tag_384:\n        /* \"#utility.yul\":3366:3367   */\n      0x00\n        /* \"#utility.yul\":3391:3444   */\n      tag_385\n        /* \"#utility.yul\":3436:3443   */\n      dup5\n        /* \"#utility.yul\":3427:3433   */\n      dup3\n        /* \"#utility.yul\":3416:3425   */\n      dup6\n        /* \"#utility.yul\":3412:3434   */\n      add\n        /* \"#utility.yul\":3391:3444   */\n      tag_353\n      jump\t// in\n    tag_385:\n        /* \"#utility.yul\":3381:3444   */\n      swap2\n      pop\n        /* \"#utility.yul\":3337:3454   */\n      pop\n        /* \"#utility.yul\":3265:3461   */\n      swap3\n      swap2\n      pop\n      pop\n      jump\t// out\n        /* \"#utility.yul\":3467:3874   */\n    tag_85:\n        /* \"#utility.yul\":3535:3541   */\n      0x00\n        /* \"#utility.yul\":3543:3549   */\n      dup1\n        /* \"#utility.yul\":3592:3594   */\n      0x40\n        /* \"#utility.yul\":3580:3589   */\n      dup4\n        /* \"#utility.yul\":3571:3578   */\n      dup6\n        /* \"#utility.yul\":3567:3590   */\n      sub\n        /* \"#utility.yul\":3563:3595   */\n      slt\n        /* \"#utility.yul\":3560:3562   */\n      iszero\n      tag_387\n      jumpi\n        /* \"#utility.yul\":3608:3609   */\n      0x00\n        /* \"#utility.yul\":3605:3606   */\n      dup1\n        /* \"#utility.yul\":3598:3610   */\n      revert\n        /* \"#utility.yul\":3560:3562   */\n    tag_387:\n        /* \"#utility.yul\":3651:3652   */\n      0x00\n        /* \"#utility.yul\":3676:3729   */\n      tag_388\n        /* \"#utility.yul\":3721:3728   */\n      dup6\n        /* \"#utility.yul\":3712:3718   */\n      dup3\n        /* \"#utility.yul\":3701:3710   */\n      dup7\n        /* \"#utility.yul\":3697:3719   */\n      add\n        /* \"#utility.yul\":3676:3729   */\n      tag_353\n      jump\t// in\n    tag_388:\n        /* \"#utility.yul\":3666:3729   */\n      swap3\n      pop\n        /* \"#utility.yul\":3622:3739   */\n      pop\n        /* \"#utility.yul\":3778:3780   */\n      0x20\n        /* \"#utility.yul\":3804:3857   */\n      tag_389\n        /* \"#utility.yul\":3849:3856   */\n      dup6\n        /* \"#utility.yul\":3840:3846   */\n      dup3\n        /* \"#utility.yul\":3829:3838   */\n      dup7\n        /* \"#utility.yul\":3825:3847   */\n      add\n        /* \"#utility.yul\":3804:3857   */\n      tag_353\n      jump\t// in\n    tag_389:\n        /* \"#utility.yul\":3794:3857   */\n      swap2\n      pop\n        /* \"#utility.yul\":3749:3867   */\n      pop\n        /* \"#utility.yul\":3550:3874   */\n      swap3\n      pop\n      swap3\n      swap1\n      pop\n      jump\t// out\n        /* \"#utility.yul\":3880:4432   */\n    tag_48:\n        /* \"#utility.yul\":3957:3963   */\n      0x00\n        /* \"#utility.yul\":3965:3971   */\n      dup1\n        /* \"#utility.yul\":3973:3979   */\n      0x00\n        /* \"#utility.yul\":4022:4024   */\n      0x60\n        /* \"#utility.yul\":4010:4019   */\n      dup5\n        /* \"#utility.yul\":4001:4008   */\n      dup7\n        /* \"#utility.yul\":3997:4020   */\n      sub\n        /* \"#utility.yul\":3993:4025   */\n      slt\n        /* \"#utility.yul\":3990:3992   */\n      iszero\n      tag_391\n      jumpi\n        /* \"#utility.yul\":4038:4039   */\n      0x00\n        /* \"#utility.yul\":4035:4036   */\n      dup1\n        /* \"#utility.yul\":4028:4040   */\n      revert\n        /* \"#utility.yul\":3990:3992   */\n    tag_391:\n        /* \"#utility.yul\":4081:4082   */\n      0x00\n        /* \"#utility.yul\":4106:4159   */\n      tag_392\n        /* \"#utility.yul\":4151:4158   */\n      dup7\n        /* \"#utility.yul\":4142:4148   */\n      dup3\n        /* \"#utility.yul\":4131:4140   */\n      dup8\n        /* \"#utility.yul\":4127:4149   */\n      add\n        /* \"#utility.yul\":4106:4159   */\n      tag_353\n      jump\t// in\n    tag_392:\n        /* \"#utility.yul\":4096:4159   */\n      swap4\n      pop\n        /* \"#utility.yul\":4052:4169   */\n      pop\n        /* \"#utility.yul\":4208:4210   */\n      0x20\n        /* \"#utility.yul\":4234:4287   */\n      tag_393\n        /* \"#utility.yul\":4279:4286   */\n      dup7\n        /* \"#utility.yul\":4270:4276   */\n      dup3\n        /* \"#utility.yul\":4259:4268   */\n      dup8\n        /* \"#utility.yul\":4255:4277   */\n      add\n        /* \"#utility.yul\":4234:4287   */\n      tag_353\n      jump\t// in\n    tag_393:\n        /* \"#utility.yul\":4224:4287   */\n      swap3\n      pop\n        /* \"#utility.yul\":4179:4297   */\n      pop\n        /* \"#utility.yul\":4336:4338   */\n      0x40\n        /* \"#utility.yul\":4362:4415   */\n      tag_394\n        /* \"#utility.yul\":4407:4414   */\n      dup7\n        /* \"#utility.yul\":4398:4404   */\n      dup3\n        /* \"#utility.yul\":4387:4396   */\n      dup8\n        /* \"#utility.yul\":4383:4405   */\n      add\n        /* \"#utility.yul\":4362:4415   */\n      tag_379\n      jump\t// in\n    tag_394:\n        /* \"#utility.yul\":4352:4415   */\n      swap2\n      pop\n        /* \"#utility.yul\":4307:4425   */\n      pop\n        /* \"#utility.yul\":3980:4432   */\n      swap3\n      pop\n      swap3\n      pop\n      swap3\n      jump\t// out\n        /* \"#utility.yul\":4438:5247   */\n    tag_77:\n        /* \"#utility.yul\":4533:4539   */\n      0x00\n        /* \"#utility.yul\":4541:4547   */\n      dup1\n        /* \"#utility.yul\":4549:4555   */\n      0x00\n        /* \"#utility.yul\":4557:4563   */\n      dup1\n        /* \"#utility.yul\":4606:4609   */\n      0x80\n        /* \"#utility.yul\":4594:4603   */\n      dup6\n        /* \"#utility.yul\":4585:4592   */\n      dup8\n        /* \"#utility.yul\":4581:4604   */\n      sub\n        /* \"#utility.yul\":4577:4610   */\n      slt\n        /* \"#utility.yul\":4574:4576   */\n      iszero\n      tag_396\n      jumpi\n        /* \"#utility.yul\":4623:4624   */\n      0x00\n        /* \"#utility.yul\":4620:4621   */\n      dup1\n        /* \"#utility.yul\":4613:4625   */\n      revert\n        /* \"#utility.yul\":4574:4576   */\n    tag_396:\n        /* \"#utility.yul\":4666:4667   */\n      0x00\n        /* \"#utility.yul\":4691:4744   */\n      tag_397\n        /* \"#utility.yul\":4736:4743   */\n      dup8\n        /* \"#utility.yul\":4727:4733   */\n      dup3\n        /* \"#utility.yul\":4716:4725   */\n      dup9\n        /* \"#utility.yul\":4712:4734   */\n      add\n        /* \"#utility.yul\":4691:4744   */\n      tag_353\n      jump\t// in\n    tag_397:\n        /* \"#utility.yul\":4681:4744   */\n      swap5\n      pop\n        /* \"#utility.yul\":4637:4754   */\n      pop\n        /* \"#utility.yul\":4793:4795   */\n      0x20\n        /* \"#utility.yul\":4819:4872   */\n      tag_398\n        /* \"#utility.yul\":4864:4871   */\n      dup8\n        /* \"#utility.yul\":4855:4861   */\n      dup3\n        /* \"#utility.yul\":4844:4853   */\n      dup9\n        /* \"#utility.yul\":4840:4862   */\n      add\n        /* \"#utility.yul\":4819:4872   */\n      tag_353\n      jump\t// in\n    tag_398:\n        /* \"#utility.yul\":4809:4872   */\n      swap4\n      pop\n        /* \"#utility.yul\":4764:4882   */\n      pop\n        /* \"#utility.yul\":4921:4923   */\n      0x40\n        /* \"#utility.yul\":4947:5000   */\n      tag_399\n        /* \"#utility.yul\":4992:4999   */\n      dup8\n        /* \"#utility.yul\":4983:4989   */\n      dup3\n        /* \"#utility.yul\":4972:4981   */\n      dup9\n        /* \"#utility.yul\":4968:4990   */\n      add\n        /* \"#utility.yul\":4947:5000   */\n      tag_379\n      jump\t// in\n    tag_399:\n        /* \"#utility.yul\":4937:5000   */\n      swap3\n      pop\n        /* \"#utility.yul\":4892:5010   */\n      pop\n        /* \"#utility.yul\":5077:5079   */\n      0x60\n        /* \"#utility.yul\":5066:5075   */\n      dup6\n        /* \"#utility.yul\":5062:5080   */\n      add\n        /* \"#utility.yul\":5049:5081   */\n      calldataload\n        /* \"#utility.yul\":5108:5126   */\n      0xffffffffffffffff\n        /* \"#utility.yul\":5100:5106   */\n      dup2\n        /* \"#utility.yul\":5097:5127   */\n      gt\n        /* \"#utility.yul\":5094:5096   */\n      iszero\n      tag_400\n      jumpi\n        /* \"#utility.yul\":5140:5141   */\n      0x00\n        /* \"#utility.yul\":5137:5138   */\n      dup1\n        /* \"#utility.yul\":5130:5142   */\n      revert\n        /* \"#utility.yul\":5094:5096   */\n    tag_400:\n        /* \"#utility.yul\":5168:5230   */\n      tag_401\n        /* \"#utility.yul\":5222:5229   */\n      dup8\n        /* \"#utility.yul\":5213:5219   */\n      dup3\n        /* \"#utility.yul\":5202:5211   */\n      dup9\n        /* \"#utility.yul\":5198:5220   */\n      add\n        /* \"#utility.yul\":5168:5230   */\n      tag_372\n      jump\t// in\n    tag_401:\n        /* \"#utility.yul\":5158:5230   */\n      swap2\n      pop\n        /* \"#utility.yul\":5020:5240   */\n      pop\n        /* \"#utility.yul\":4564:5247   */\n      swap3\n      swap6\n      swap2\n      swap5\n      pop\n      swap3\n      pop\n      jump\t// out\n        /* \"#utility.yul\":5253:6373   */\n    tag_44:\n        /* \"#utility.yul\":5393:5399   */\n      0x00\n        /* \"#utility.yul\":5401:5407   */\n      dup1\n        /* \"#utility.yul\":5409:5415   */\n      0x00\n        /* \"#utility.yul\":5417:5423   */\n      dup1\n        /* \"#utility.yul\":5425:5431   */\n      0x00\n        /* \"#utility.yul\":5474:5477   */\n      0xa0\n        /* \"#utility.yul\":5462:5471   */\n      dup7\n        /* \"#utility.yul\":5453:5460   */\n      dup9\n        /* \"#utility.yul\":5449:5472   */\n      sub\n        /* \"#utility.yul\":5445:5478   */\n      slt\n        /* \"#utility.yul\":5442:5444   */\n      iszero\n      tag_403\n      jumpi\n        /* \"#utility.yul\":5491:5492   */\n      0x00\n        /* \"#utility.yul\":5488:5489   */\n      dup1\n        /* \"#utility.yul\":5481:5493   */\n      revert\n        /* \"#utility.yul\":5442:5444   */\n    tag_403:\n        /* \"#utility.yul\":5534:5535   */\n      0x00\n        /* \"#utility.yul\":5559:5612   */\n      tag_404\n        /* \"#utility.yul\":5604:5611   */\n      dup9\n        /* \"#utility.yul\":5595:5601   */\n      dup3\n        /* \"#utility.yul\":5584:5593   */\n      dup10\n        /* \"#utility.yul\":5580:5602   */\n      add\n        /* \"#utility.yul\":5559:5612   */\n      tag_353\n      jump\t// in\n    tag_404:\n        /* \"#utility.yul\":5549:5612   */\n      swap6\n      pop\n        /* \"#utility.yul\":5505:5622   */\n      pop\n        /* \"#utility.yul\":5689:5691   */\n      0x20\n        /* \"#utility.yul\":5678:5687   */\n      dup7\n        /* \"#utility.yul\":5674:5692   */\n      add\n        /* \"#utility.yul\":5661:5693   */\n      calldataload\n        /* \"#utility.yul\":5720:5738   */\n      0xffffffffffffffff\n        /* \"#utility.yul\":5712:5718   */\n      dup2\n        /* \"#utility.yul\":5709:5739   */\n      gt\n        /* \"#utility.yul\":5706:5708   */\n      iszero\n      tag_405\n      jumpi\n        /* \"#utility.yul\":5752:5753   */\n      0x00\n        /* \"#utility.yul\":5749:5750   */\n      dup1\n        /* \"#utility.yul\":5742:5754   */\n      revert\n        /* \"#utility.yul\":5706:5708   */\n    tag_405:\n        /* \"#utility.yul\":5780:5868   */\n      tag_406\n        /* \"#utility.yul\":5860:5867   */\n      dup9\n        /* \"#utility.yul\":5851:5857   */\n      dup3\n        /* \"#utility.yul\":5840:5849   */\n      dup10\n        /* \"#utility.yul\":5836:5858   */\n      add\n        /* \"#utility.yul\":5780:5868   */\n      tag_357\n      jump\t// in\n    tag_406:\n        /* \"#utility.yul\":5770:5868   */\n      swap5\n      pop\n        /* \"#utility.yul\":5632:5878   */\n      pop\n        /* \"#utility.yul\":5917:5919   */\n      0x40\n        /* \"#utility.yul\":5943:5996   */\n      tag_407\n        /* \"#utility.yul\":5988:5995   */\n      dup9\n        /* \"#utility.yul\":5979:5985   */\n      dup3\n        /* \"#utility.yul\":5968:5977   */\n      dup10\n        /* \"#utility.yul\":5964:5986   */\n      add\n        /* \"#utility.yul\":5943:5996   */\n      tag_379\n      jump\t// in\n    tag_407:\n        /* \"#utility.yul\":5933:5996   */\n      swap4\n      pop\n        /* \"#utility.yul\":5888:6006   */\n      pop\n        /* \"#utility.yul\":6045:6047   */\n      0x60\n        /* \"#utility.yul\":6071:6124   */\n      tag_408\n        /* \"#utility.yul\":6116:6123   */\n      dup9\n        /* \"#utility.yul\":6107:6113   */\n      dup3\n        /* \"#utility.yul\":6096:6105   */\n      dup10\n        /* \"#utility.yul\":6092:6114   */\n      add\n        /* \"#utility.yul\":6071:6124   */\n      tag_379\n      jump\t// in\n    tag_408:\n        /* \"#utility.yul\":6061:6124   */\n      swap3\n      pop\n        /* \"#utility.yul\":6016:6134   */\n      pop\n        /* \"#utility.yul\":6201:6204   */\n      0x80\n        /* \"#utility.yul\":6190:6199   */\n      dup7\n        /* \"#utility.yul\":6186:6205   */\n      add\n        /* \"#utility.yul\":6173:6206   */\n      calldataload\n        /* \"#utility.yul\":6233:6251   */\n      0xffffffffffffffff\n        /* \"#utility.yul\":6225:6231   */\n      dup2\n        /* \"#utility.yul\":6222:6252   */\n      gt\n        /* \"#utility.yul\":6219:6221   */\n      iszero\n      tag_409\n      jumpi\n        /* \"#utility.yul\":6265:6266   */\n      0x00\n        /* \"#utility.yul\":6262:6263   */\n      dup1\n        /* \"#utility.yul\":6255:6267   */\n      revert\n        /* \"#utility.yul\":6219:6221   */\n    tag_409:\n        /* \"#utility.yul\":6293:6356   */\n      tag_410\n        /* \"#utility.yul\":6348:6355   */\n      dup9\n        /* \"#utility.yul\":6339:6345   */\n      dup3\n        /* \"#utility.yul\":6328:6337   */\n      dup10\n        /* \"#utility.yul\":6324:6346   */\n      add\n        /* \"#utility.yul\":6293:6356   */\n      tag_337\n      jump\t// in\n    tag_410:\n        /* \"#utility.yul\":6283:6356   */\n      swap2\n      pop\n        /* \"#utility.yul\":6144:6366   */\n      pop\n        /* \"#utility.yul\":5432:6373   */\n      swap3\n      swap6\n      pop\n      swap3\n      swap6\n      swap1\n      swap4\n      pop\n      jump\t// out\n        /* \"#utility.yul\":6379:6780   */\n    tag_73:\n        /* \"#utility.yul\":6444:6450   */\n      0x00\n        /* \"#utility.yul\":6452:6458   */\n      dup1\n        /* \"#utility.yul\":6501:6503   */\n      0x40\n        /* \"#utility.yul\":6489:6498   */\n      dup4\n        /* \"#utility.yul\":6480:6487   */\n      dup6\n        /* \"#utility.yul\":6476:6499   */\n      sub\n        /* \"#utility.yul\":6472:6504   */\n      slt\n        /* \"#utility.yul\":6469:6471   */\n      iszero\n      tag_412\n      jumpi\n        /* \"#utility.yul\":6517:6518   */\n      0x00\n        /* \"#utility.yul\":6514:6515   */\n      dup1\n        /* \"#utility.yul\":6507:6519   */\n      revert\n        /* \"#utility.yul\":6469:6471   */\n    tag_412:\n        /* \"#utility.yul\":6560:6561   */\n      0x00\n        /* \"#utility.yul\":6585:6638   */\n      tag_413\n        /* \"#utility.yul\":6630:6637   */\n      dup6\n        /* \"#utility.yul\":6621:6627   */\n      dup3\n        /* \"#utility.yul\":6610:6619   */\n      dup7\n        /* \"#utility.yul\":6606:6628   */\n      add\n        /* \"#utility.yul\":6585:6638   */\n      tag_353\n      jump\t// in\n    tag_413:\n        /* \"#utility.yul\":6575:6638   */\n      swap3\n      pop\n        /* \"#utility.yul\":6531:6648   */\n      pop\n        /* \"#utility.yul\":6687:6689   */\n      0x20\n        /* \"#utility.yul\":6713:6763   */\n      tag_414\n        /* \"#utility.yul\":6755:6762   */\n      dup6\n        /* \"#utility.yul\":6746:6752   */\n      dup3\n        /* \"#utility.yul\":6735:6744   */\n      dup7\n        /* \"#utility.yul\":6731:6753   */\n      add\n        /* \"#utility.yul\":6713:6763   */\n      tag_361\n      jump\t// in\n    tag_414:\n        /* \"#utility.yul\":6703:6763   */\n      swap2\n      pop\n        /* \"#utility.yul\":6658:6773   */\n      pop\n        /* \"#utility.yul\":6459:6780   */\n      swap3\n      pop\n      swap3\n      swap1\n      pop\n      jump\t// out\n        /* \"#utility.yul\":6786:7193   */\n    tag_40:\n        /* \"#utility.yul\":6854:6860   */\n      0x00\n        /* \"#utility.yul\":6862:6868   */\n      dup1\n        /* \"#utility.yul\":6911:6913   */\n      0x40\n        /* \"#utility.yul\":6899:6908   */\n      dup4\n        /* \"#utility.yul\":6890:6897   */\n      dup6\n        /* \"#utility.yul\":6886:6909   */\n      sub\n        /* \"#utility.yul\":6882:6914   */\n      slt\n        /* \"#utility.yul\":6879:6881   */\n      iszero\n      tag_416\n      jumpi\n        /* \"#utility.yul\":6927:6928   */\n      0x00\n        /* \"#utility.yul\":6924:6925   */\n      dup1\n        /* \"#utility.yul\":6917:6929   */\n      revert\n        /* \"#utility.yul\":6879:6881   */\n    tag_416:\n        /* \"#utility.yul\":6970:6971   */\n      0x00\n        /* \"#utility.yul\":6995:7048   */\n      tag_417\n        /* \"#utility.yul\":7040:7047   */\n      dup6\n        /* \"#utility.yul\":7031:7037   */\n      dup3\n        /* \"#utility.yul\":7020:7029   */\n      dup7\n        /* \"#utility.yul\":7016:7038   */\n      add\n        /* \"#utility.yul\":6995:7048   */\n      tag_353\n      jump\t// in\n    tag_417:\n        /* \"#utility.yul\":6985:7048   */\n      swap3\n      pop\n        /* \"#utility.yul\":6941:7058   */\n      pop\n        /* \"#utility.yul\":7097:7099   */\n      0x20\n        /* \"#utility.yul\":7123:7176   */\n      tag_418\n        /* \"#utility.yul\":7168:7175   */\n      dup6\n        /* \"#utility.yul\":7159:7165   */\n      dup3\n        /* \"#utility.yul\":7148:7157   */\n      dup7\n        /* \"#utility.yul\":7144:7166   */\n      add\n        /* \"#utility.yul\":7123:7176   */\n      tag_379\n      jump\t// in\n    tag_418:\n        /* \"#utility.yul\":7113:7176   */\n      swap2\n      pop\n        /* \"#utility.yul\":7068:7186   */\n      pop\n        /* \"#utility.yul\":6869:7193   */\n      swap3\n      pop\n      swap3\n      swap1\n      pop\n      jump\t// out\n        /* \"#utility.yul\":7199:7459   */\n    tag_24:\n        /* \"#utility.yul\":7257:7263   */\n      0x00\n        /* \"#utility.yul\":7306:7308   */\n      0x20\n        /* \"#utility.yul\":7294:7303   */\n      dup3\n        /* \"#utility.yul\":7285:7292   */\n      dup5\n        /* \"#utility.yul\":7281:7304   */\n      sub\n        /* \"#utility.yul\":7277:7309   */\n      slt\n        /* \"#utility.yul\":7274:7276   */\n      iszero\n      tag_420\n      jumpi\n        /* \"#utility.yul\":7322:7323   */\n      0x00\n        /* \"#utility.yul\":7319:7320   */\n      dup1\n        /* \"#utility.yul\":7312:7324   */\n      revert\n        /* \"#utility.yul\":7274:7276   */\n    tag_420:\n        /* \"#utility.yul\":7365:7366   */\n      0x00\n        /* \"#utility.yul\":7390:7442   */\n      tag_421\n        /* \"#utility.yul\":7434:7441   */\n      dup5\n        /* \"#utility.yul\":7425:7431   */\n      dup3\n        /* \"#utility.yul\":7414:7423   */\n      dup6\n        /* \"#utility.yul\":7410:7432   */\n      add\n        /* \"#utility.yul\":7390:7442   */\n      tag_365\n      jump\t// in\n    tag_421:\n        /* \"#utility.yul\":7380:7442   */\n      swap2\n      pop\n        /* \"#utility.yul\":7336:7452   */\n      pop\n        /* \"#utility.yul\":7264:7459   */\n      swap3\n      swap2\n      pop\n      pop\n      jump\t// out\n        /* \"#utility.yul\":7465:7747   */\n    tag_272:\n        /* \"#utility.yul\":7534:7540   */\n      0x00\n        /* \"#utility.yul\":7583:7585   */\n      0x20\n        /* \"#utility.yul\":7571:7580   */\n      dup3\n        /* \"#utility.yul\":7562:7569   */\n      dup5\n        /* \"#utility.yul\":7558:7581   */\n      sub\n        /* \"#utility.yul\":7554:7586   */\n      slt\n        /* \"#utility.yul\":7551:7553   */\n      iszero\n      tag_423\n      jumpi\n        /* \"#utility.yul\":7599:7600   */\n      0x00\n        /* \"#utility.yul\":7596:7597   */\n      dup1\n        /* \"#utility.yul\":7589:7601   */\n      revert\n        /* \"#utility.yul\":7551:7553   */\n    tag_423:\n        /* \"#utility.yul\":7642:7643   */\n      0x00\n        /* \"#utility.yul\":7667:7730   */\n      tag_424\n        /* \"#utility.yul\":7722:7729   */\n      dup5\n        /* \"#utility.yul\":7713:7719   */\n      dup3\n        /* \"#utility.yul\":7702:7711   */\n      dup6\n        /* \"#utility.yul\":7698:7720   */\n      add\n        /* \"#utility.yul\":7667:7730   */\n      tag_369\n      jump\t// in\n    tag_424:\n        /* \"#utility.yul\":7657:7730   */\n      swap2\n      pop\n        /* \"#utility.yul\":7613:7740   */\n      pop\n        /* \"#utility.yul\":7541:7747   */\n      swap3\n      swap2\n      pop\n      pop\n      jump\t// out\n        /* \"#utility.yul\":7753:8015   */\n    tag_34:\n        /* \"#utility.yul\":7812:7818   */\n      0x00\n        /* \"#utility.yul\":7861:7863   */\n      0x20\n        /* \"#utility.yul\":7849:7858   */\n      dup3\n        /* \"#utility.yul\":7840:7847   */\n      dup5\n        /* \"#utility.yul\":7836:7859   */\n      sub\n        /* \"#utility.yul\":7832:7864   */\n      slt\n        /* \"#utility.yul\":7829:7831   */\n      iszero\n      tag_426\n      jumpi\n        /* \"#utility.yul\":7877:7878   */\n      0x00\n        /* \"#utility.yul\":7874:7875   */\n      dup1\n        /* \"#utility.yul\":7867:7879   */\n      revert\n        /* \"#utility.yul\":7829:7831   */\n    tag_426:\n        /* \"#utility.yul\":7920:7921   */\n      0x00\n        /* \"#utility.yul\":7945:7998   */\n      tag_427\n        /* \"#utility.yul\":7990:7997   */\n      dup5\n        /* \"#utility.yul\":7981:7987   */\n      dup3\n        /* \"#utility.yul\":7970:7979   */\n      dup6\n        /* \"#utility.yul\":7966:7988   */\n      add\n        /* \"#utility.yul\":7945:7998   */\n      tag_379\n      jump\t// in\n    tag_427:\n        /* \"#utility.yul\":7935:7998   */\n      swap2\n      pop\n        /* \"#utility.yul\":7891:8008   */\n      pop\n        /* \"#utility.yul\":7819:8015   */\n      swap3\n      swap2\n      pop\n      pop\n      jump\t// out\n        /* \"#utility.yul\":8021:8217   */\n    tag_428:\n        /* \"#utility.yul\":8110:8120   */\n      0x00\n        /* \"#utility.yul\":8145:8211   */\n      tag_430\n        /* \"#utility.yul\":8207:8210   */\n      dup4\n        /* \"#utility.yul\":8199:8205   */\n      dup4\n        /* \"#utility.yul\":8145:8211   */\n      tag_431\n      jump\t// in\n    tag_430:\n        /* \"#utility.yul\":8131:8211   */\n      swap1\n      pop\n        /* \"#utility.yul\":8121:8217   */\n      swap3\n      swap2\n      pop\n      pop\n      jump\t// out\n        /* \"#utility.yul\":8223:8341   */\n    tag_432:\n        /* \"#utility.yul\":8310:8334   */\n      tag_434\n        /* \"#utility.yul\":8328:8333   */\n      dup2\n        /* \"#utility.yul\":8310:8334   */\n      tag_435\n      jump\t// in\n    tag_434:\n        /* \"#utility.yul\":8305:8308   */\n      dup3\n        /* \"#utility.yul\":8298:8335   */\n      mstore\n        /* \"#utility.yul\":8288:8341   */\n      pop\n      pop\n      jump\t// out\n        /* \"#utility.yul\":8375:9366   */\n    tag_436:\n        /* \"#utility.yul\":8514:8517   */\n      0x00\n        /* \"#utility.yul\":8543:8607   */\n      tag_438\n        /* \"#utility.yul\":8601:8606   */\n      dup3\n        /* \"#utility.yul\":8543:8607   */\n      tag_439\n      jump\t// in\n    tag_438:\n        /* \"#utility.yul\":8623:8719   */\n      tag_440\n        /* \"#utility.yul\":8712:8718   */\n      dup2\n        /* \"#utility.yul\":8707:8710   */\n      dup6\n        /* \"#utility.yul\":8623:8719   */\n      tag_441\n      jump\t// in\n    tag_440:\n        /* \"#utility.yul\":8616:8719   */\n      swap4\n      pop\n        /* \"#utility.yul\":8745:8748   */\n      dup4\n        /* \"#utility.yul\":8790:8794   */\n      0x20\n        /* \"#utility.yul\":8782:8788   */\n      dup3\n        /* \"#utility.yul\":8778:8795   */\n      mul\n        /* \"#utility.yul\":8773:8776   */\n      dup6\n        /* \"#utility.yul\":8769:8796   */\n      add\n        /* \"#utility.yul\":8820:8886   */\n      tag_442\n        /* \"#utility.yul\":8880:8885   */\n      dup6\n        /* \"#utility.yul\":8820:8886   */\n      tag_443\n      jump\t// in\n    tag_442:\n        /* \"#utility.yul\":8909:8916   */\n      dup1\n        /* \"#utility.yul\":8940:8941   */\n      0x00\n        /* \"#utility.yul\":8925:9321   */\n    tag_444:\n        /* \"#utility.yul\":8950:8956   */\n      dup6\n        /* \"#utility.yul\":8947:8948   */\n      dup2\n        /* \"#utility.yul\":8944:8957   */\n      lt\n        /* \"#utility.yul\":8925:9321   */\n      iszero\n      tag_446\n      jumpi\n        /* \"#utility.yul\":9021:9030   */\n      dup5\n        /* \"#utility.yul\":9015:9019   */\n      dup5\n        /* \"#utility.yul\":9011:9031   */\n      sub\n        /* \"#utility.yul\":9006:9009   */\n      dup10\n        /* \"#utility.yul\":8999:9032   */\n      mstore\n        /* \"#utility.yul\":9072:9078   */\n      dup2\n        /* \"#utility.yul\":9066:9079   */\n      mload\n        /* \"#utility.yul\":9100:9184   */\n      tag_447\n        /* \"#utility.yul\":9179:9183   */\n      dup6\n        /* \"#utility.yul\":9164:9177   */\n      dup3\n        /* \"#utility.yul\":9100:9184   */\n      tag_428\n      jump\t// in\n    tag_447:\n        /* \"#utility.yul\":9092:9184   */\n      swap5\n      pop\n        /* \"#utility.yul\":9207:9277   */\n      tag_448\n        /* \"#utility.yul\":9270:9276   */\n      dup4\n        /* \"#utility.yul\":9207:9277   */\n      tag_449\n      jump\t// in\n    tag_448:\n        /* \"#utility.yul\":9197:9277   */\n      swap3\n      pop\n        /* \"#utility.yul\":9306:9310   */\n      0x20\n        /* \"#utility.yul\":9301:9304   */\n      dup11\n        /* \"#utility.yul\":9297:9311   */\n      add\n        /* \"#utility.yul\":9290:9311   */\n      swap10\n      pop\n        /* \"#utility.yul\":8985:9321   */\n      pop\n        /* \"#utility.yul\":8972:8973   */\n      0x01\n        /* \"#utility.yul\":8969:8970   */\n      dup2\n        /* \"#utility.yul\":8965:8974   */\n      add\n        /* \"#utility.yul\":8960:8974   */\n      swap1\n      pop\n        /* \"#utility.yul\":8925:9321   */\n      jump(tag_444)\n    tag_446:\n        /* \"#utility.yul\":8929:8943   */\n      pop\n        /* \"#utility.yul\":9337:9341   */\n      dup3\n        /* \"#utility.yul\":9330:9341   */\n      swap8\n      pop\n        /* \"#utility.yul\":9357:9360   */\n      dup8\n        /* \"#utility.yul\":9350:9360   */\n      swap6\n      pop\n        /* \"#utility.yul\":8519:9366   */\n      pop\n      pop\n      pop\n      pop\n      pop\n      swap3\n      swap2\n      pop\n      pop\n      jump\t// out\n        /* \"#utility.yul\":9372:9481   */\n    tag_450:\n        /* \"#utility.yul\":9453:9474   */\n      tag_452\n        /* \"#utility.yul\":9468:9473   */\n      dup2\n        /* \"#utility.yul\":9453:9474   */\n      tag_453\n      jump\t// in\n    tag_452:\n        /* \"#utility.yul\":9448:9451   */\n      dup3\n        /* \"#utility.yul\":9441:9475   */\n      mstore\n        /* \"#utility.yul\":9431:9481   */\n      pop\n      pop\n      jump\t// out\n        /* \"#utility.yul\":9487:9847   */\n    tag_454:\n        /* \"#utility.yul\":9573:9576   */\n      0x00\n        /* \"#utility.yul\":9601:9639   */\n      tag_456\n        /* \"#utility.yul\":9633:9638   */\n      dup3\n        /* \"#utility.yul\":9601:9639   */\n      tag_457\n      jump\t// in\n    tag_456:\n        /* \"#utility.yul\":9655:9725   */\n      tag_458\n        /* \"#utility.yul\":9718:9724   */\n      dup2\n        /* \"#utility.yul\":9713:9716   */\n      dup6\n        /* \"#utility.yul\":9655:9725   */\n      tag_459\n      jump\t// in\n    tag_458:\n        /* \"#utility.yul\":9648:9725   */\n      swap4\n      pop\n        /* \"#utility.yul\":9734:9786   */\n      tag_460\n        /* \"#utility.yul\":9779:9785   */\n      dup2\n        /* \"#utility.yul\":9774:9777   */\n      dup6\n        /* \"#utility.yul\":9767:9771   */\n      0x20\n        /* \"#utility.yul\":9760:9765   */\n      dup7\n        /* \"#utility.yul\":9756:9772   */\n      add\n        /* \"#utility.yul\":9734:9786   */\n      tag_461\n      jump\t// in\n    tag_460:\n        /* \"#utility.yul\":9811:9840   */\n      tag_462\n        /* \"#utility.yul\":9833:9839   */\n      dup2\n        /* \"#utility.yul\":9811:9840   */\n      tag_463\n      jump\t// in\n    tag_462:\n        /* \"#utility.yul\":9806:9809   */\n      dup5\n        /* \"#utility.yul\":9802:9841   */\n      add\n        /* \"#utility.yul\":9795:9841   */\n      swap2\n      pop\n        /* \"#utility.yul\":9577:9847   */\n      pop\n      swap3\n      swap2\n      pop\n      pop\n      jump\t// out\n        /* \"#utility.yul\":9853:10197   */\n    tag_431:\n        /* \"#utility.yul\":9931:9934   */\n      0x00\n        /* \"#utility.yul\":9959:9998   */\n      tag_465\n        /* \"#utility.yul\":9992:9997   */\n      dup3\n        /* \"#utility.yul\":9959:9998   */\n      tag_466\n      jump\t// in\n    tag_465:\n        /* \"#utility.yul\":10014:10075   */\n      tag_467\n        /* \"#utility.yul\":10068:10074   */\n      dup2\n        /* \"#utility.yul\":10063:10066   */\n      dup6\n        /* \"#utility.yul\":10014:10075   */\n      tag_468\n      jump\t// in\n    tag_467:\n        /* \"#utility.yul\":10007:10075   */\n      swap4\n      pop\n        /* \"#utility.yul\":10084:10136   */\n      tag_469\n        /* \"#utility.yul\":10129:10135   */\n      dup2\n        /* \"#utility.yul\":10124:10127   */\n      dup6\n        /* \"#utility.yul\":10117:10121   */\n      0x20\n        /* \"#utility.yul\":10110:10115   */\n      dup7\n        /* \"#utility.yul\":10106:10122   */\n      add\n        /* \"#utility.yul\":10084:10136   */\n      tag_461\n      jump\t// in\n    tag_469:\n        /* \"#utility.yul\":10161:10190   */\n      tag_470\n        /* \"#utility.yul\":10183:10189   */\n      dup2\n        /* \"#utility.yul\":10161:10190   */\n      tag_463\n      jump\t// in\n    tag_470:\n        /* \"#utility.yul\":10156:10159   */\n      dup5\n        /* \"#utility.yul\":10152:10191   */\n      add\n        /* \"#utility.yul\":10145:10191   */\n      swap2\n      pop\n        /* \"#utility.yul\":9935:10197   */\n      pop\n      swap3\n      swap2\n      pop\n      pop\n      jump\t// out\n        /* \"#utility.yul\":10203:10567   */\n    tag_471:\n        /* \"#utility.yul\":10291:10294   */\n      0x00\n        /* \"#utility.yul\":10319:10358   */\n      tag_473\n        /* \"#utility.yul\":10352:10357   */\n      dup3\n        /* \"#utility.yul\":10319:10358   */\n      tag_466\n      jump\t// in\n    tag_473:\n        /* \"#utility.yul\":10374:10445   */\n      tag_474\n        /* \"#utility.yul\":10438:10444   */\n      dup2\n        /* \"#utility.yul\":10433:10436   */\n      dup6\n        /* \"#utility.yul\":10374:10445   */\n      tag_475\n      jump\t// in\n    tag_474:\n        /* \"#utility.yul\":10367:10445   */\n      swap4\n      pop\n        /* \"#utility.yul\":10454:10506   */\n      tag_476\n        /* \"#utility.yul\":10499:10505   */\n      dup2\n        /* \"#utility.yul\":10494:10497   */\n      dup6\n        /* \"#utility.yul\":10487:10491   */\n      0x20\n        /* \"#utility.yul\":10480:10485   */\n      dup7\n        /* \"#utility.yul\":10476:10492   */\n      add\n        /* \"#utility.yul\":10454:10506   */\n      tag_461\n      jump\t// in\n    tag_476:\n        /* \"#utility.yul\":10531:10560   */\n      tag_477\n        /* \"#utility.yul\":10553:10559   */\n      dup2\n        /* \"#utility.yul\":10531:10560   */\n      tag_463\n      jump\t// in\n    tag_477:\n        /* \"#utility.yul\":10526:10529   */\n      dup5\n        /* \"#utility.yul\":10522:10561   */\n      add\n        /* \"#utility.yul\":10515:10561   */\n      swap2\n      pop\n        /* \"#utility.yul\":10295:10567   */\n      pop\n      swap3\n      swap2\n      pop\n      pop\n      jump\t// out\n        /* \"#utility.yul\":10573:10950   */\n    tag_478:\n        /* \"#utility.yul\":10679:10682   */\n      0x00\n        /* \"#utility.yul\":10707:10746   */\n      tag_480\n        /* \"#utility.yul\":10740:10745   */\n      dup3\n        /* \"#utility.yul\":10707:10746   */\n      tag_466\n      jump\t// in\n    tag_480:\n        /* \"#utility.yul\":10762:10851   */\n      tag_481\n        /* \"#utility.yul\":10844:10850   */\n      dup2\n        /* \"#utility.yul\":10839:10842   */\n      dup6\n        /* \"#utility.yul\":10762:10851   */\n      tag_482\n      jump\t// in\n    tag_481:\n        /* \"#utility.yul\":10755:10851   */\n      swap4\n      pop\n        /* \"#utility.yul\":10860:10912   */\n      tag_483\n        /* \"#utility.yul\":10905:10911   */\n      dup2\n        /* \"#utility.yul\":10900:10903   */\n      dup6\n        /* \"#utility.yul\":10893:10897   */\n      0x20\n        /* \"#utility.yul\":10886:10891   */\n      dup7\n        /* \"#utility.yul\":10882:10898   */\n      add\n        /* \"#utility.yul\":10860:10912   */\n      tag_461\n      jump\t// in\n    tag_483:\n        /* \"#utility.yul\":10937:10943   */\n      dup1\n        /* \"#utility.yul\":10932:10935   */\n      dup5\n        /* \"#utility.yul\":10928:10944   */\n      add\n        /* \"#utility.yul\":10921:10944   */\n      swap2\n      pop\n        /* \"#utility.yul\":10683:10950   */\n      pop\n      swap3\n      swap2\n      pop\n      pop\n      jump\t// out\n        /* \"#utility.yul\":10956:11322   */\n    tag_484:\n        /* \"#utility.yul\":11098:11101   */\n      0x00\n        /* \"#utility.yul\":11119:11186   */\n      tag_486\n        /* \"#utility.yul\":11183:11185   */\n      0x2d\n        /* \"#utility.yul\":11178:11181   */\n      dup4\n        /* \"#utility.yul\":11119:11186   */\n      tag_475\n      jump\t// in\n    tag_486:\n        /* \"#utility.yul\":11112:11186   */\n      swap2\n      pop\n        /* \"#utility.yul\":11195:11288   */\n      tag_487\n        /* \"#utility.yul\":11284:11287   */\n      dup3\n        /* \"#utility.yul\":11195:11288   */\n      tag_488\n      jump\t// in\n    tag_487:\n        /* \"#utility.yul\":11313:11315   */\n      0x40\n        /* \"#utility.yul\":11308:11311   */\n      dup3\n        /* \"#utility.yul\":11304:11316   */\n      add\n        /* \"#utility.yul\":11297:11316   */\n      swap1\n      pop\n        /* \"#utility.yul\":11102:11322   */\n      swap2\n      swap1\n      pop\n      jump\t// out\n        /* \"#utility.yul\":11328:11694   */\n    tag_489:\n        /* \"#utility.yul\":11470:11473   */\n      0x00\n        /* \"#utility.yul\":11491:11558   */\n      tag_491\n        /* \"#utility.yul\":11555:11557   */\n      0x32\n        /* \"#utility.yul\":11550:11553   */\n      dup4\n        /* \"#utility.yul\":11491:11558   */\n      tag_475\n      jump\t// in\n    tag_491:\n        /* \"#utility.yul\":11484:11558   */\n      swap2\n      pop\n        /* \"#utility.yul\":11567:11660   */\n      tag_492\n        /* \"#utility.yul\":11656:11659   */\n      dup3\n        /* \"#utility.yul\":11567:11660   */\n      tag_493\n      jump\t// in\n    tag_492:\n        /* \"#utility.yul\":11685:11687   */\n      0x40\n        /* \"#utility.yul\":11680:11683   */\n      dup3\n        /* \"#utility.yul\":11676:11688   */\n      add\n        /* \"#utility.yul\":11669:11688   */\n      swap1\n      pop\n        /* \"#utility.yul\":11474:11694   */\n      swap2\n      swap1\n      pop\n      jump\t// out\n        /* \"#utility.yul\":11700:12066   */\n    tag_494:\n        /* \"#utility.yul\":11842:11845   */\n      0x00\n        /* \"#utility.yul\":11863:11930   */\n      tag_496\n        /* \"#utility.yul\":11927:11929   */\n      0x25\n        /* \"#utility.yul\":11922:11925   */\n      dup4\n        /* \"#utility.yul\":11863:11930   */\n      tag_475\n      jump\t// in\n    tag_496:\n        /* \"#utility.yul\":11856:11930   */\n      swap2\n      pop\n        /* \"#utility.yul\":11939:12032   */\n      tag_497\n        /* \"#utility.yul\":12028:12031   */\n      dup3\n        /* \"#utility.yul\":11939:12032   */\n      tag_498\n      jump\t// in\n    tag_497:\n        /* \"#utility.yul\":12057:12059   */\n      0x40\n        /* \"#utility.yul\":12052:12055   */\n      dup3\n        /* \"#utility.yul\":12048:12060   */\n      add\n        /* \"#utility.yul\":12041:12060   */\n      swap1\n      pop\n        /* \"#utility.yul\":11846:12066   */\n      swap2\n      swap1\n      pop\n      jump\t// out\n        /* \"#utility.yul\":12072:12438   */\n    tag_499:\n        /* \"#utility.yul\":12214:12217   */\n      0x00\n        /* \"#utility.yul\":12235:12302   */\n      tag_501\n        /* \"#utility.yul\":12299:12301   */\n      0x1c\n        /* \"#utility.yul\":12294:12297   */\n      dup4\n        /* \"#utility.yul\":12235:12302   */\n      tag_475\n      jump\t// in\n    tag_501:\n        /* \"#utility.yul\":12228:12302   */\n      swap2\n      pop\n        /* \"#utility.yul\":12311:12404   */\n      tag_502\n        /* \"#utility.yul\":12400:12403   */\n      dup3\n        /* \"#utility.yul\":12311:12404   */\n      tag_503\n      jump\t// in\n    tag_502:\n        /* \"#utility.yul\":12429:12431   */\n      0x20\n        /* \"#utility.yul\":12424:12427   */\n      dup3\n        /* \"#utility.yul\":12420:12432   */\n      add\n        /* \"#utility.yul\":12413:12432   */\n      swap1\n      pop\n        /* \"#utility.yul\":12218:12438   */\n      swap2\n      swap1\n      pop\n      jump\t// out\n        /* \"#utility.yul\":12444:12810   */\n    tag_504:\n        /* \"#utility.yul\":12586:12589   */\n      0x00\n        /* \"#utility.yul\":12607:12674   */\n      tag_506\n        /* \"#utility.yul\":12671:12673   */\n      0x24\n        /* \"#utility.yul\":12666:12669   */\n      dup4\n        /* \"#utility.yul\":12607:12674   */\n      tag_475\n      jump\t// in\n    tag_506:\n        /* \"#utility.yul\":12600:12674   */\n      swap2\n      pop\n        /* \"#utility.yul\":12683:12776   */\n      tag_507\n        /* \"#utility.yul\":12772:12775   */\n      dup3\n        /* \"#utility.yul\":12683:12776   */\n      tag_508\n      jump\t// in\n    tag_507:\n        /* \"#utility.yul\":12801:12803   */\n      0x40\n        /* \"#utility.yul\":12796:12799   */\n      dup3\n        /* \"#utility.yul\":12792:12804   */\n      add\n        /* \"#utility.yul\":12785:12804   */\n      swap1\n      pop\n        /* \"#utility.yul\":12590:12810   */\n      swap2\n      swap1\n      pop\n      jump\t// out\n        /* \"#utility.yul\":12816:13182   */\n    tag_509:\n        /* \"#utility.yul\":12958:12961   */\n      0x00\n        /* \"#utility.yul\":12979:13046   */\n      tag_511\n        /* \"#utility.yul\":13043:13045   */\n      0x19\n        /* \"#utility.yul\":13038:13041   */\n      dup4\n        /* \"#utility.yul\":12979:13046   */\n      tag_475\n      jump\t// in\n    tag_511:\n        /* \"#utility.yul\":12972:13046   */\n      swap2\n      pop\n        /* \"#utility.yul\":13055:13148   */\n      tag_512\n        /* \"#utility.yul\":13144:13147   */\n      dup3\n        /* \"#utility.yul\":13055:13148   */\n      tag_513\n      jump\t// in\n    tag_512:\n        /* \"#utility.yul\":13173:13175   */\n      0x20\n        /* \"#utility.yul\":13168:13171   */\n      dup3\n        /* \"#utility.yul\":13164:13176   */\n      add\n        /* \"#utility.yul\":13157:13176   */\n      swap1\n      pop\n        /* \"#utility.yul\":12962:13182   */\n      swap2\n      swap1\n      pop\n      jump\t// out\n        /* \"#utility.yul\":13188:13554   */\n    tag_514:\n        /* \"#utility.yul\":13330:13333   */\n      0x00\n        /* \"#utility.yul\":13351:13418   */\n      tag_516\n        /* \"#utility.yul\":13415:13417   */\n      0x29\n        /* \"#utility.yul\":13410:13413   */\n      dup4\n        /* \"#utility.yul\":13351:13418   */\n      tag_475\n      jump\t// in\n    tag_516:\n        /* \"#utility.yul\":13344:13418   */\n      swap2\n      pop\n        /* \"#utility.yul\":13427:13520   */\n      tag_517\n        /* \"#utility.yul\":13516:13519   */\n      dup3\n        /* \"#utility.yul\":13427:13520   */\n      tag_518\n      jump\t// in\n    tag_517:\n        /* \"#utility.yul\":13545:13547   */\n      0x40\n        /* \"#utility.yul\":13540:13543   */\n      dup3\n        /* \"#utility.yul\":13536:13548   */\n      add\n        /* \"#utility.yul\":13529:13548   */\n      swap1\n      pop\n        /* \"#utility.yul\":13334:13554   */\n      swap2\n      swap1\n      pop\n      jump\t// out\n        /* \"#utility.yul\":13560:13926   */\n    tag_519:\n        /* \"#utility.yul\":13702:13705   */\n      0x00\n        /* \"#utility.yul\":13723:13790   */\n      tag_521\n        /* \"#utility.yul\":13787:13789   */\n      0x20\n        /* \"#utility.yul\":13782:13785   */\n      dup4\n        /* \"#utility.yul\":13723:13790   */\n      tag_475\n      jump\t// in\n    tag_521:\n        /* \"#utility.yul\":13716:13790   */\n      swap2\n      pop\n        /* \"#utility.yul\":13799:13892   */\n      tag_522\n        /* \"#utility.yul\":13888:13891   */\n      dup3\n        /* \"#utility.yul\":13799:13892   */\n      tag_523\n      jump\t// in\n    tag_522:\n        /* \"#utility.yul\":13917:13919   */\n      0x20\n        /* \"#utility.yul\":13912:13915   */\n      dup3\n        /* \"#utility.yul\":13908:13920   */\n      add\n        /* \"#utility.yul\":13901:13920   */\n      swap1\n      pop\n        /* \"#utility.yul\":13706:13926   */\n      swap2\n      swap1\n      pop\n      jump\t// out\n        /* \"#utility.yul\":13932:14298   */\n    tag_524:\n        /* \"#utility.yul\":14074:14077   */\n      0x00\n        /* \"#utility.yul\":14095:14162   */\n      tag_526\n        /* \"#utility.yul\":14159:14161   */\n      0x18\n        /* \"#utility.yul\":14154:14157   */\n      dup4\n        /* \"#utility.yul\":14095:14162   */\n      tag_475\n      jump\t// in\n    tag_526:\n        /* \"#utility.yul\":14088:14162   */\n      swap2\n      pop\n        /* \"#utility.yul\":14171:14264   */\n      tag_527\n        /* \"#utility.yul\":14260:14263   */\n      dup3\n        /* \"#utility.yul\":14171:14264   */\n      tag_528\n      jump\t// in\n    tag_527:\n        /* \"#utility.yul\":14289:14291   */\n      0x20\n        /* \"#utility.yul\":14284:14287   */\n      dup3\n        /* \"#utility.yul\":14280:14292   */\n      add\n        /* \"#utility.yul\":14273:14292   */\n      swap1\n      pop\n        /* \"#utility.yul\":14078:14298   */\n      swap2\n      swap1\n      pop\n      jump\t// out\n        /* \"#utility.yul\":14304:14670   */\n    tag_529:\n        /* \"#utility.yul\":14446:14449   */\n      0x00\n        /* \"#utility.yul\":14467:14534   */\n      tag_531\n        /* \"#utility.yul\":14531:14533   */\n      0x21\n        /* \"#utility.yul\":14526:14529   */\n      dup4\n        /* \"#utility.yul\":14467:14534   */\n      tag_475\n      jump\t// in\n    tag_531:\n        /* \"#utility.yul\":14460:14534   */\n      swap2\n      pop\n        /* \"#utility.yul\":14543:14636   */\n      tag_532\n        /* \"#utility.yul\":14632:14635   */\n      dup3\n        /* \"#utility.yul\":14543:14636   */\n      tag_533\n      jump\t// in\n    tag_532:\n        /* \"#utility.yul\":14661:14663   */\n      0x40\n        /* \"#utility.yul\":14656:14659   */\n      dup3\n        /* \"#utility.yul\":14652:14664   */\n      add\n        /* \"#utility.yul\":14645:14664   */\n      swap1\n      pop\n        /* \"#utility.yul\":14450:14670   */\n      swap2\n      swap1\n      pop\n      jump\t// out\n        /* \"#utility.yul\":14676:15042   */\n    tag_534:\n        /* \"#utility.yul\":14818:14821   */\n      0x00\n        /* \"#utility.yul\":14839:14906   */\n      tag_536\n        /* \"#utility.yul\":14903:14905   */\n      0x3d\n        /* \"#utility.yul\":14898:14901   */\n      dup4\n        /* \"#utility.yul\":14839:14906   */\n      tag_475\n      jump\t// in\n    tag_536:\n        /* \"#utility.yul\":14832:14906   */\n      swap2\n      pop\n        /* \"#utility.yul\":14915:15008   */\n      tag_537\n        /* \"#utility.yul\":15004:15007   */\n      dup3\n        /* \"#utility.yul\":14915:15008   */\n      tag_538\n      jump\t// in\n    tag_537:\n        /* \"#utility.yul\":15033:15035   */\n      0x40\n        /* \"#utility.yul\":15028:15031   */\n      dup3\n        /* \"#utility.yul\":15024:15036   */\n      add\n        /* \"#utility.yul\":15017:15036   */\n      swap1\n      pop\n        /* \"#utility.yul\":14822:15042   */\n      swap2\n      swap1\n      pop\n      jump\t// out\n        /* \"#utility.yul\":15048:15166   */\n    tag_539:\n        /* \"#utility.yul\":15135:15159   */\n      tag_541\n        /* \"#utility.yul\":15153:15158   */\n      dup2\n        /* \"#utility.yul\":15135:15159   */\n      tag_542\n      jump\t// in\n    tag_541:\n        /* \"#utility.yul\":15130:15133   */\n      dup3\n        /* \"#utility.yul\":15123:15160   */\n      mstore\n        /* \"#utility.yul\":15113:15166   */\n      pop\n      pop\n      jump\t// out\n        /* \"#utility.yul\":15172:15607   */\n    tag_181:\n        /* \"#utility.yul\":15352:15355   */\n      0x00\n        /* \"#utility.yul\":15374:15469   */\n      tag_544\n        /* \"#utility.yul\":15465:15468   */\n      dup3\n        /* \"#utility.yul\":15456:15462   */\n      dup6\n        /* \"#utility.yul\":15374:15469   */\n      tag_478\n      jump\t// in\n    tag_544:\n        /* \"#utility.yul\":15367:15469   */\n      swap2\n      pop\n        /* \"#utility.yul\":15486:15581   */\n      tag_545\n        /* \"#utility.yul\":15577:15580   */\n      dup3\n        /* \"#utility.yul\":15568:15574   */\n      dup5\n        /* \"#utility.yul\":15486:15581   */\n      tag_478\n      jump\t// in\n    tag_545:\n        /* \"#utility.yul\":15479:15581   */\n      swap2\n      pop\n        /* \"#utility.yul\":15598:15601   */\n      dup2\n        /* \"#utility.yul\":15591:15601   */\n      swap1\n      pop\n        /* \"#utility.yul\":15356:15607   */\n      swap4\n      swap3\n      pop\n      pop\n      pop\n      jump\t// out\n        /* \"#utility.yul\":15613:15835   */\n    tag_37:\n        /* \"#utility.yul\":15706:15710   */\n      0x00\n        /* \"#utility.yul\":15744:15746   */\n      0x20\n        /* \"#utility.yul\":15733:15742   */\n      dup3\n        /* \"#utility.yul\":15729:15747   */\n      add\n        /* \"#utility.yul\":15721:15747   */\n      swap1\n      pop\n        /* \"#utility.yul\":15757:15828   */\n      tag_547\n        /* \"#utility.yul\":15825:15826   */\n      0x00\n        /* \"#utility.yul\":15814:15823   */\n      dup4\n        /* \"#utility.yul\":15810:15827   */\n      add\n        /* \"#utility.yul\":15801:15807   */\n      dup5\n        /* \"#utility.yul\":15757:15828   */\n      tag_432\n      jump\t// in\n    tag_547:\n        /* \"#utility.yul\":15711:15835   */\n      swap3\n      swap2\n      pop\n      pop\n      jump\t// out\n        /* \"#utility.yul\":15841:16481   */\n    tag_268:\n        /* \"#utility.yul\":16036:16040   */\n      0x00\n        /* \"#utility.yul\":16074:16077   */\n      0x80\n        /* \"#utility.yul\":16063:16072   */\n      dup3\n        /* \"#utility.yul\":16059:16078   */\n      add\n        /* \"#utility.yul\":16051:16078   */\n      swap1\n      pop\n        /* \"#utility.yul\":16088:16159   */\n      tag_549\n        /* \"#utility.yul\":16156:16157   */\n      0x00\n        /* \"#utility.yul\":16145:16154   */\n      dup4\n        /* \"#utility.yul\":16141:16158   */\n      add\n        /* \"#utility.yul\":16132:16138   */\n      dup8\n        /* \"#utility.yul\":16088:16159   */\n      tag_432\n      jump\t// in\n    tag_549:\n        /* \"#utility.yul\":16169:16241   */\n      tag_550\n        /* \"#utility.yul\":16237:16239   */\n      0x20\n        /* \"#utility.yul\":16226:16235   */\n      dup4\n        /* \"#utility.yul\":16222:16240   */\n      add\n        /* \"#utility.yul\":16213:16219   */\n      dup7\n        /* \"#utility.yul\":16169:16241   */\n      tag_432\n      jump\t// in\n    tag_550:\n        /* \"#utility.yul\":16251:16323   */\n      tag_551\n        /* \"#utility.yul\":16319:16321   */\n      0x40\n        /* \"#utility.yul\":16308:16317   */\n      dup4\n        /* \"#utility.yul\":16304:16322   */\n      add\n        /* \"#utility.yul\":16295:16301   */\n      dup6\n        /* \"#utility.yul\":16251:16323   */\n      tag_539\n      jump\t// in\n    tag_551:\n        /* \"#utility.yul\":16370:16379   */\n      dup2\n        /* \"#utility.yul\":16364:16368   */\n      dup2\n        /* \"#utility.yul\":16360:16380   */\n      sub\n        /* \"#utility.yul\":16355:16357   */\n      0x60\n        /* \"#utility.yul\":16344:16353   */\n      dup4\n        /* \"#utility.yul\":16340:16358   */\n      add\n        /* \"#utility.yul\":16333:16381   */\n      mstore\n        /* \"#utility.yul\":16398:16474   */\n      tag_552\n        /* \"#utility.yul\":16469:16473   */\n      dup2\n        /* \"#utility.yul\":16460:16466   */\n      dup5\n        /* \"#utility.yul\":16398:16474   */\n      tag_454\n      jump\t// in\n    tag_552:\n        /* \"#utility.yul\":16390:16474   */\n      swap1\n      pop\n        /* \"#utility.yul\":16041:16481   */\n      swap6\n      swap5\n      pop\n      pop\n      pop\n      pop\n      pop\n      jump\t// out\n        /* \"#utility.yul\":16487:16900   */\n    tag_57:\n        /* \"#utility.yul\":16650:16654   */\n      0x00\n        /* \"#utility.yul\":16688:16690   */\n      0x20\n        /* \"#utility.yul\":16677:16686   */\n      dup3\n        /* \"#utility.yul\":16673:16691   */\n      add\n        /* \"#utility.yul\":16665:16691   */\n      swap1\n      pop\n        /* \"#utility.yul\":16737:16746   */\n      dup2\n        /* \"#utility.yul\":16731:16735   */\n      dup2\n        /* \"#utility.yul\":16727:16747   */\n      sub\n        /* \"#utility.yul\":16723:16724   */\n      0x00\n        /* \"#utility.yul\":16712:16721   */\n      dup4\n        /* \"#utility.yul\":16708:16725   */\n      add\n        /* \"#utility.yul\":16701:16748   */\n      mstore\n        /* \"#utility.yul\":16765:16893   */\n      tag_554\n        /* \"#utility.yul\":16888:16892   */\n      dup2\n        /* \"#utility.yul\":16879:16885   */\n      dup5\n        /* \"#utility.yul\":16765:16893   */\n      tag_436\n      jump\t// in\n    tag_554:\n        /* \"#utility.yul\":16757:16893   */\n      swap1\n      pop\n        /* \"#utility.yul\":16655:16900   */\n      swap3\n      swap2\n      pop\n      pop\n      jump\t// out\n        /* \"#utility.yul\":16906:17116   */\n    tag_27:\n        /* \"#utility.yul\":16993:16997   */\n      0x00\n        /* \"#utility.yul\":17031:17033   */\n      0x20\n        /* \"#utility.yul\":17020:17029   */\n      dup3\n        /* \"#utility.yul\":17016:17034   */\n      add\n        /* \"#utility.yul\":17008:17034   */\n      swap1\n      pop\n        /* \"#utility.yul\":17044:17109   */\n      tag_556\n        /* \"#utility.yul\":17106:17107   */\n      0x00\n        /* \"#utility.yul\":17095:17104   */\n      dup4\n        /* \"#utility.yul\":17091:17108   */\n      add\n        /* \"#utility.yul\":17082:17088   */\n      dup5\n        /* \"#utility.yul\":17044:17109   */\n      tag_450\n      jump\t// in\n    tag_556:\n        /* \"#utility.yul\":16998:17116   */\n      swap3\n      swap2\n      pop\n      pop\n      jump\t// out\n        /* \"#utility.yul\":17122:17435   */\n    tag_31:\n        /* \"#utility.yul\":17235:17239   */\n      0x00\n        /* \"#utility.yul\":17273:17275   */\n      0x20\n        /* \"#utility.yul\":17262:17271   */\n      dup3\n        /* \"#utility.yul\":17258:17276   */\n      add\n        /* \"#utility.yul\":17250:17276   */\n      swap1\n      pop\n        /* \"#utility.yul\":17322:17331   */\n      dup2\n        /* \"#utility.yul\":17316:17320   */\n      dup2\n        /* \"#utility.yul\":17312:17332   */\n      sub\n        /* \"#utility.yul\":17308:17309   */\n      0x00\n        /* \"#utility.yul\":17297:17306   */\n      dup4\n        /* \"#utility.yul\":17293:17310   */\n      add\n        /* \"#utility.yul\":17286:17333   */\n      mstore\n        /* \"#utility.yul\":17350:17428   */\n      tag_558\n        /* \"#utility.yul\":17423:17427   */\n      dup2\n        /* \"#utility.yul\":17414:17420   */\n      dup5\n        /* \"#utility.yul\":17350:17428   */\n      tag_471\n      jump\t// in\n    tag_558:\n        /* \"#utility.yul\":17342:17428   */\n      swap1\n      pop\n        /* \"#utility.yul\":17240:17435   */\n      swap3\n      swap2\n      pop\n      pop\n      jump\t// out\n        /* \"#utility.yul\":17441:17860   */\n    tag_133:\n        /* \"#utility.yul\":17607:17611   */\n      0x00\n        /* \"#utility.yul\":17645:17647   */\n      0x20\n        /* \"#utility.yul\":17634:17643   */\n      dup3\n        /* \"#utility.yul\":17630:17648   */\n      add\n        /* \"#utility.yul\":17622:17648   */\n      swap1\n      pop\n        /* \"#utility.yul\":17694:17703   */\n      dup2\n        /* \"#utility.yul\":17688:17692   */\n      dup2\n        /* \"#utility.yul\":17684:17704   */\n      sub\n        /* \"#utility.yul\":17680:17681   */\n      0x00\n        /* \"#utility.yul\":17669:17678   */\n      dup4\n        /* \"#utility.yul\":17665:17682   */\n      add\n        /* \"#utility.yul\":17658:17705   */\n      mstore\n        /* \"#utility.yul\":17722:17853   */\n      tag_560\n        /* \"#utility.yul\":17848:17852   */\n      dup2\n        /* \"#utility.yul\":17722:17853   */\n      tag_484\n      jump\t// in\n    tag_560:\n        /* \"#utility.yul\":17714:17853   */\n      swap1\n      pop\n        /* \"#utility.yul\":17612:17860   */\n      swap2\n      swap1\n      pop\n      jump\t// out\n        /* \"#utility.yul\":17866:18285   */\n    tag_231:\n        /* \"#utility.yul\":18032:18036   */\n      0x00\n        /* \"#utility.yul\":18070:18072   */\n      0x20\n        /* \"#utility.yul\":18059:18068   */\n      dup3\n        /* \"#utility.yul\":18055:18073   */\n      add\n        /* \"#utility.yul\":18047:18073   */\n      swap1\n      pop\n        /* \"#utility.yul\":18119:18128   */\n      dup2\n        /* \"#utility.yul\":18113:18117   */\n      dup2\n        /* \"#utility.yul\":18109:18129   */\n      sub\n        /* \"#utility.yul\":18105:18106   */\n      0x00\n        /* \"#utility.yul\":18094:18103   */\n      dup4\n        /* \"#utility.yul\":18090:18107   */\n      add\n        /* \"#utility.yul\":18083:18130   */\n      mstore\n        /* \"#utility.yul\":18147:18278   */\n      tag_562\n        /* \"#utility.yul\":18273:18277   */\n      dup2\n        /* \"#utility.yul\":18147:18278   */\n      tag_489\n      jump\t// in\n    tag_562:\n        /* \"#utility.yul\":18139:18278   */\n      swap1\n      pop\n        /* \"#utility.yul\":18037:18285   */\n      swap2\n      swap1\n      pop\n      jump\t// out\n        /* \"#utility.yul\":18291:18710   */\n    tag_209:\n        /* \"#utility.yul\":18457:18461   */\n      0x00\n        /* \"#utility.yul\":18495:18497   */\n      0x20\n        /* \"#utility.yul\":18484:18493   */\n      dup3\n        /* \"#utility.yul\":18480:18498   */\n      add\n        /* \"#utility.yul\":18472:18498   */\n      swap1\n      pop\n        /* \"#utility.yul\":18544:18553   */\n      dup2\n        /* \"#utility.yul\":18538:18542   */\n      dup2\n        /* \"#utility.yul\":18534:18554   */\n      sub\n        /* \"#utility.yul\":18530:18531   */\n      0x00\n        /* \"#utility.yul\":18519:18528   */\n      dup4\n        /* \"#utility.yul\":18515:18532   */\n      add\n        /* \"#utility.yul\":18508:18555   */\n      mstore\n        /* \"#utility.yul\":18572:18703   */\n      tag_564\n        /* \"#utility.yul\":18698:18702   */\n      dup2\n        /* \"#utility.yul\":18572:18703   */\n      tag_494\n      jump\t// in\n    tag_564:\n        /* \"#utility.yul\":18564:18703   */\n      swap1\n      pop\n        /* \"#utility.yul\":18462:18710   */\n      swap2\n      swap1\n      pop\n      jump\t// out\n        /* \"#utility.yul\":18716:19135   */\n    tag_291:\n        /* \"#utility.yul\":18882:18886   */\n      0x00\n        /* \"#utility.yul\":18920:18922   */\n      0x20\n        /* \"#utility.yul\":18909:18918   */\n      dup3\n        /* \"#utility.yul\":18905:18923   */\n      add\n        /* \"#utility.yul\":18897:18923   */\n      swap1\n      pop\n        /* \"#utility.yul\":18969:18978   */\n      dup2\n        /* \"#utility.yul\":18963:18967   */\n      dup2\n        /* \"#utility.yul\":18959:18979   */\n      sub\n        /* \"#utility.yul\":18955:18956   */\n      0x00\n        /* \"#utility.yul\":18944:18953   */\n      dup4\n        /* \"#utility.yul\":18940:18957   */\n      add\n        /* \"#utility.yul\":18933:18980   */\n      mstore\n        /* \"#utility.yul\":18997:19128   */\n      tag_566\n        /* \"#utility.yul\":19123:19127   */\n      dup2\n        /* \"#utility.yul\":18997:19128   */\n      tag_499\n      jump\t// in\n    tag_566:\n        /* \"#utility.yul\":18989:19128   */\n      swap1\n      pop\n        /* \"#utility.yul\":18887:19135   */\n      swap2\n      swap1\n      pop\n      jump\t// out\n        /* \"#utility.yul\":19141:19560   */\n    tag_212:\n        /* \"#utility.yul\":19307:19311   */\n      0x00\n        /* \"#utility.yul\":19345:19347   */\n      0x20\n        /* \"#utility.yul\":19334:19343   */\n      dup3\n        /* \"#utility.yul\":19330:19348   */\n      add\n        /* \"#utility.yul\":19322:19348   */\n      swap1\n      pop\n        /* \"#utility.yul\":19394:19403   */\n      dup2\n        /* \"#utility.yul\":19388:19392   */\n      dup2\n        /* \"#utility.yul\":19384:19404   */\n      sub\n        /* \"#utility.yul\":19380:19381   */\n      0x00\n        /* \"#utility.yul\":19369:19378   */\n      dup4\n        /* \"#utility.yul\":19365:19382   */\n      add\n        /* \"#utility.yul\":19358:19405   */\n      mstore\n        /* \"#utility.yul\":19422:19553   */\n      tag_568\n        /* \"#utility.yul\":19548:19552   */\n      dup2\n        /* \"#utility.yul\":19422:19553   */\n      tag_504\n      jump\t// in\n    tag_568:\n        /* \"#utility.yul\":19414:19553   */\n      swap1\n      pop\n        /* \"#utility.yul\":19312:19560   */\n      swap2\n      swap1\n      pop\n      jump\t// out\n        /* \"#utility.yul\":19566:19985   */\n    tag_223:\n        /* \"#utility.yul\":19732:19736   */\n      0x00\n        /* \"#utility.yul\":19770:19772   */\n      0x20\n        /* \"#utility.yul\":19759:19768   */\n      dup3\n        /* \"#utility.yul\":19755:19773   */\n      add\n        /* \"#utility.yul\":19747:19773   */\n      swap1\n      pop\n        /* \"#utility.yul\":19819:19828   */\n      dup2\n        /* \"#utility.yul\":19813:19817   */\n      dup2\n        /* \"#utility.yul\":19809:19829   */\n      sub\n        /* \"#utility.yul\":19805:19806   */\n      0x00\n        /* \"#utility.yul\":19794:19803   */\n      dup4\n        /* \"#utility.yul\":19790:19807   */\n      add\n        /* \"#utility.yul\":19783:19830   */\n      mstore\n        /* \"#utility.yul\":19847:19978   */\n      tag_570\n        /* \"#utility.yul\":19973:19977   */\n      dup2\n        /* \"#utility.yul\":19847:19978   */\n      tag_509\n      jump\t// in\n    tag_570:\n        /* \"#utility.yul\":19839:19978   */\n      swap1\n      pop\n        /* \"#utility.yul\":19737:19985   */\n      swap2\n      swap1\n      pop\n      jump\t// out\n        /* \"#utility.yul\":19991:20410   */\n    tag_154:\n        /* \"#utility.yul\":20157:20161   */\n      0x00\n        /* \"#utility.yul\":20195:20197   */\n      0x20\n        /* \"#utility.yul\":20184:20193   */\n      dup3\n        /* \"#utility.yul\":20180:20198   */\n      add\n        /* \"#utility.yul\":20172:20198   */\n      swap1\n      pop\n        /* \"#utility.yul\":20244:20253   */\n      dup2\n        /* \"#utility.yul\":20238:20242   */\n      dup2\n        /* \"#utility.yul\":20234:20254   */\n      sub\n        /* \"#utility.yul\":20230:20231   */\n      0x00\n        /* \"#utility.yul\":20219:20228   */\n      dup4\n        /* \"#utility.yul\":20215:20232   */\n      add\n        /* \"#utility.yul\":20208:20255   */\n      mstore\n        /* \"#utility.yul\":20272:20403   */\n      tag_572\n        /* \"#utility.yul\":20398:20402   */\n      dup2\n        /* \"#utility.yul\":20272:20403   */\n      tag_514\n      jump\t// in\n    tag_572:\n        /* \"#utility.yul\":20264:20403   */\n      swap1\n      pop\n        /* \"#utility.yul\":20162:20410   */\n      swap2\n      swap1\n      pop\n      jump\t// out\n        /* \"#utility.yul\":20416:20835   */\n    tag_287:\n        /* \"#utility.yul\":20582:20586   */\n      0x00\n        /* \"#utility.yul\":20620:20622   */\n      0x20\n        /* \"#utility.yul\":20609:20618   */\n      dup3\n        /* \"#utility.yul\":20605:20623   */\n      add\n        /* \"#utility.yul\":20597:20623   */\n      swap1\n      pop\n        /* \"#utility.yul\":20669:20678   */\n      dup2\n        /* \"#utility.yul\":20663:20667   */\n      dup2\n        /* \"#utility.yul\":20659:20679   */\n      sub\n        /* \"#utility.yul\":20655:20656   */\n      0x00\n        /* \"#utility.yul\":20644:20653   */\n      dup4\n        /* \"#utility.yul\":20640:20657   */\n      add\n        /* \"#utility.yul\":20633:20680   */\n      mstore\n        /* \"#utility.yul\":20697:20828   */\n      tag_574\n        /* \"#utility.yul\":20823:20827   */\n      dup2\n        /* \"#utility.yul\":20697:20828   */\n      tag_519\n      jump\t// in\n    tag_574:\n        /* \"#utility.yul\":20689:20828   */\n      swap1\n      pop\n        /* \"#utility.yul\":20587:20835   */\n      swap2\n      swap1\n      pop\n      jump\t// out\n        /* \"#utility.yul\":20841:21260   */\n    tag_150:\n        /* \"#utility.yul\":21007:21011   */\n      0x00\n        /* \"#utility.yul\":21045:21047   */\n      0x20\n        /* \"#utility.yul\":21034:21043   */\n      dup3\n        /* \"#utility.yul\":21030:21048   */\n      add\n        /* \"#utility.yul\":21022:21048   */\n      swap1\n      pop\n        /* \"#utility.yul\":21094:21103   */\n      dup2\n        /* \"#utility.yul\":21088:21092   */\n      dup2\n        /* \"#utility.yul\":21084:21104   */\n      sub\n        /* \"#utility.yul\":21080:21081   */\n      0x00\n        /* \"#utility.yul\":21069:21078   */\n      dup4\n        /* \"#utility.yul\":21065:21082   */\n      add\n        /* \"#utility.yul\":21058:21105   */\n      mstore\n        /* \"#utility.yul\":21122:21253   */\n      tag_576\n        /* \"#utility.yul\":21248:21252   */\n      dup2\n        /* \"#utility.yul\":21122:21253   */\n      tag_524\n      jump\t// in\n    tag_576:\n        /* \"#utility.yul\":21114:21253   */\n      swap1\n      pop\n        /* \"#utility.yul\":21012:21260   */\n      swap2\n      swap1\n      pop\n      jump\t// out\n        /* \"#utility.yul\":21266:21685   */\n    tag_111:\n        /* \"#utility.yul\":21432:21436   */\n      0x00\n        /* \"#utility.yul\":21470:21472   */\n      0x20\n        /* \"#utility.yul\":21459:21468   */\n      dup3\n        /* \"#utility.yul\":21455:21473   */\n      add\n        /* \"#utility.yul\":21447:21473   */\n      swap1\n      pop\n        /* \"#utility.yul\":21519:21528   */\n      dup2\n        /* \"#utility.yul\":21513:21517   */\n      dup2\n        /* \"#utility.yul\":21509:21529   */\n      sub\n        /* \"#utility.yul\":21505:21506   */\n      0x00\n        /* \"#utility.yul\":21494:21503   */\n      dup4\n        /* \"#utility.yul\":21490:21507   */\n      add\n        /* \"#utility.yul\":21483:21530   */\n      mstore\n        /* \"#utility.yul\":21547:21678   */\n      tag_578\n        /* \"#utility.yul\":21673:21677   */\n      dup2\n        /* \"#utility.yul\":21547:21678   */\n      tag_529\n      jump\t// in\n    tag_578:\n        /* \"#utility.yul\":21539:21678   */\n      swap1\n      pop\n        /* \"#utility.yul\":21437:21685   */\n      swap2\n      swap1\n      pop\n      jump\t// out\n        /* \"#utility.yul\":21691:22110   */\n    tag_119:\n        /* \"#utility.yul\":21857:21861   */\n      0x00\n        /* \"#utility.yul\":21895:21897   */\n      0x20\n        /* \"#utility.yul\":21884:21893   */\n      dup3\n        /* \"#utility.yul\":21880:21898   */\n      add\n        /* \"#utility.yul\":21872:21898   */\n      swap1\n      pop\n        /* \"#utility.yul\":21944:21953   */\n      dup2\n        /* \"#utility.yul\":21938:21942   */\n      dup2\n        /* \"#utility.yul\":21934:21954   */\n      sub\n        /* \"#utility.yul\":21930:21931   */\n      0x00\n        /* \"#utility.yul\":21919:21928   */\n      dup4\n        /* \"#utility.yul\":21915:21932   */\n      add\n        /* \"#utility.yul\":21908:21955   */\n      mstore\n        /* \"#utility.yul\":21972:22103   */\n      tag_580\n        /* \"#utility.yul\":22098:22102   */\n      dup2\n        /* \"#utility.yul\":21972:22103   */\n      tag_534\n      jump\t// in\n    tag_580:\n        /* \"#utility.yul\":21964:22103   */\n      swap1\n      pop\n        /* \"#utility.yul\":21862:22110   */\n      swap2\n      swap1\n      pop\n      jump\t// out\n        /* \"#utility.yul\":22116:22338   */\n    tag_67:\n        /* \"#utility.yul\":22209:22213   */\n      0x00\n        /* \"#utility.yul\":22247:22249   */\n      0x20\n        /* \"#utility.yul\":22236:22245   */\n      dup3\n        /* \"#utility.yul\":22232:22250   */\n      add\n        /* \"#utility.yul\":22224:22250   */\n      swap1\n      pop\n        /* \"#utility.yul\":22260:22331   */\n      tag_582\n        /* \"#utility.yul\":22328:22329   */\n      0x00\n        /* \"#utility.yul\":22317:22326   */\n      dup4\n        /* \"#utility.yul\":22313:22330   */\n      add\n        /* \"#utility.yul\":22304:22310   */\n      dup5\n        /* \"#utility.yul\":22260:22331   */\n      tag_539\n      jump\t// in\n    tag_582:\n        /* \"#utility.yul\":22214:22338   */\n      swap3\n      swap2\n      pop\n      pop\n      jump\t// out\n        /* \"#utility.yul\":22344:22473   */\n    tag_330:\n        /* \"#utility.yul\":22378:22384   */\n      0x00\n        /* \"#utility.yul\":22405:22425   */\n      tag_584\n      tag_585\n      jump\t// in\n    tag_584:\n        /* \"#utility.yul\":22395:22425   */\n      swap1\n      pop\n        /* \"#utility.yul\":22434:22467   */\n      tag_586\n        /* \"#utility.yul\":22462:22466   */\n      dup3\n        /* \"#utility.yul\":22454:22460   */\n      dup3\n        /* \"#utility.yul\":22434:22467   */\n      tag_587\n      jump\t// in\n    tag_586:\n        /* \"#utility.yul\":22385:22473   */\n      swap2\n      swap1\n      pop\n      jump\t// out\n        /* \"#utility.yul\":22479:22554   */\n    tag_585:\n        /* \"#utility.yul\":22512:22518   */\n      0x00\n        /* \"#utility.yul\":22545:22547   */\n      0x40\n        /* \"#utility.yul\":22539:22548   */\n      mload\n        /* \"#utility.yul\":22529:22548   */\n      swap1\n      pop\n        /* \"#utility.yul\":22519:22554   */\n      swap1\n      jump\t// out\n        /* \"#utility.yul\":22560:22881   */\n    tag_329:\n        /* \"#utility.yul\":22647:22651   */\n      0x00\n        /* \"#utility.yul\":22737:22755   */\n      0xffffffffffffffff\n        /* \"#utility.yul\":22729:22735   */\n      dup3\n        /* \"#utility.yul\":22726:22756   */\n      gt\n        /* \"#utility.yul\":22723:22725   */\n      iszero\n      tag_590\n      jumpi\n        /* \"#utility.yul\":22759:22777   */\n      tag_591\n      tag_592\n      jump\t// in\n    tag_591:\n        /* \"#utility.yul\":22723:22725   */\n    tag_590:\n        /* \"#utility.yul\":22809:22813   */\n      0x20\n        /* \"#utility.yul\":22801:22807   */\n      dup3\n        /* \"#utility.yul\":22797:22814   */\n      mul\n        /* \"#utility.yul\":22789:22814   */\n      swap1\n      pop\n        /* \"#utility.yul\":22869:22873   */\n      0x20\n        /* \"#utility.yul\":22863:22867   */\n      dup2\n        /* \"#utility.yul\":22859:22874   */\n      add\n        /* \"#utility.yul\":22851:22874   */\n      swap1\n      pop\n        /* \"#utility.yul\":22652:22881   */\n      swap2\n      swap1\n      pop\n      jump\t// out\n        /* \"#utility.yul\":22887:23194   */\n    tag_342:\n        /* \"#utility.yul\":22948:22952   */\n      0x00\n        /* \"#utility.yul\":23038:23056   */\n      0xffffffffffffffff\n        /* \"#utility.yul\":23030:23036   */\n      dup3\n        /* \"#utility.yul\":23027:23057   */\n      gt\n        /* \"#utility.yul\":23024:23026   */\n      iszero\n      tag_594\n      jumpi\n        /* \"#utility.yul\":23060:23078   */\n      tag_595\n      tag_592\n      jump\t// in\n    tag_595:\n        /* \"#utility.yul\":23024:23026   */\n    tag_594:\n        /* \"#utility.yul\":23098:23127   */\n      tag_596\n        /* \"#utility.yul\":23120:23126   */\n      dup3\n        /* \"#utility.yul\":23098:23127   */\n      tag_463\n      jump\t// in\n    tag_596:\n        /* \"#utility.yul\":23090:23127   */\n      swap1\n      pop\n        /* \"#utility.yul\":23182:23186   */\n      0x20\n        /* \"#utility.yul\":23176:23180   */\n      dup2\n        /* \"#utility.yul\":23172:23187   */\n      add\n        /* \"#utility.yul\":23164:23187   */\n      swap1\n      pop\n        /* \"#utility.yul\":22953:23194   */\n      swap2\n      swap1\n      pop\n      jump\t// out\n        /* \"#utility.yul\":23200:23508   */\n    tag_350:\n        /* \"#utility.yul\":23262:23266   */\n      0x00\n        /* \"#utility.yul\":23352:23370   */\n      0xffffffffffffffff\n        /* \"#utility.yul\":23344:23350   */\n      dup3\n        /* \"#utility.yul\":23341:23371   */\n      gt\n        /* \"#utility.yul\":23338:23340   */\n      iszero\n      tag_598\n      jumpi\n        /* \"#utility.yul\":23374:23392   */\n      tag_599\n      tag_592\n      jump\t// in\n    tag_599:\n        /* \"#utility.yul\":23338:23340   */\n    tag_598:\n        /* \"#utility.yul\":23412:23441   */\n      tag_600\n        /* \"#utility.yul\":23434:23440   */\n      dup3\n        /* \"#utility.yul\":23412:23441   */\n      tag_463\n      jump\t// in\n    tag_600:\n        /* \"#utility.yul\":23404:23441   */\n      swap1\n      pop\n        /* \"#utility.yul\":23496:23500   */\n      0x20\n        /* \"#utility.yul\":23490:23494   */\n      dup2\n        /* \"#utility.yul\":23486:23501   */\n      add\n        /* \"#utility.yul\":23478:23501   */\n      swap1\n      pop\n        /* \"#utility.yul\":23267:23508   */\n      swap2\n      swap1\n      pop\n      jump\t// out\n        /* \"#utility.yul\":23514:23656   */\n    tag_443:\n        /* \"#utility.yul\":23591:23595   */\n      0x00\n        /* \"#utility.yul\":23614:23617   */\n      dup2\n        /* \"#utility.yul\":23606:23617   */\n      swap1\n      pop\n        /* \"#utility.yul\":23644:23648   */\n      0x20\n        /* \"#utility.yul\":23639:23642   */\n      dup3\n        /* \"#utility.yul\":23635:23649   */\n      add\n        /* \"#utility.yul\":23627:23649   */\n      swap1\n      pop\n        /* \"#utility.yul\":23596:23656   */\n      swap2\n      swap1\n      pop\n      jump\t// out\n        /* \"#utility.yul\":23662:23786   */\n    tag_439:\n        /* \"#utility.yul\":23739:23745   */\n      0x00\n        /* \"#utility.yul\":23773:23778   */\n      dup2\n        /* \"#utility.yul\":23767:23779   */\n      mload\n        /* \"#utility.yul\":23757:23779   */\n      swap1\n      pop\n        /* \"#utility.yul\":23746:23786   */\n      swap2\n      swap1\n      pop\n      jump\t// out\n        /* \"#utility.yul\":23792:23890   */\n    tag_457:\n        /* \"#utility.yul\":23843:23849   */\n      0x00\n        /* \"#utility.yul\":23877:23882   */\n      dup2\n        /* \"#utility.yul\":23871:23883   */\n      mload\n        /* \"#utility.yul\":23861:23883   */\n      swap1\n      pop\n        /* \"#utility.yul\":23850:23890   */\n      swap2\n      swap1\n      pop\n      jump\t// out\n        /* \"#utility.yul\":23896:23995   */\n    tag_466:\n        /* \"#utility.yul\":23948:23954   */\n      0x00\n        /* \"#utility.yul\":23982:23987   */\n      dup2\n        /* \"#utility.yul\":23976:23988   */\n      mload\n        /* \"#utility.yul\":23966:23988   */\n      swap1\n      pop\n        /* \"#utility.yul\":23955:23995   */\n      swap2\n      swap1\n      pop\n      jump\t// out\n        /* \"#utility.yul\":24001:24124   */\n    tag_449:\n        /* \"#utility.yul\":24081:24085   */\n      0x00\n        /* \"#utility.yul\":24113:24117   */\n      0x20\n        /* \"#utility.yul\":24108:24111   */\n      dup3\n        /* \"#utility.yul\":24104:24118   */\n      add\n        /* \"#utility.yul\":24096:24118   */\n      swap1\n      pop\n        /* \"#utility.yul\":24086:24124   */\n      swap2\n      swap1\n      pop\n      jump\t// out\n        /* \"#utility.yul\":24130:24324   */\n    tag_441:\n        /* \"#utility.yul\":24239:24250   */\n      0x00\n        /* \"#utility.yul\":24273:24279   */\n      dup3\n        /* \"#utility.yul\":24268:24271   */\n      dup3\n        /* \"#utility.yul\":24261:24280   */\n      mstore\n        /* \"#utility.yul\":24313:24317   */\n      0x20\n        /* \"#utility.yul\":24308:24311   */\n      dup3\n        /* \"#utility.yul\":24304:24318   */\n      add\n        /* \"#utility.yul\":24289:24318   */\n      swap1\n      pop\n        /* \"#utility.yul\":24251:24324   */\n      swap3\n      swap2\n      pop\n      pop\n      jump\t// out\n        /* \"#utility.yul\":24330:24498   */\n    tag_459:\n        /* \"#utility.yul\":24413:24424   */\n      0x00\n        /* \"#utility.yul\":24447:24453   */\n      dup3\n        /* \"#utility.yul\":24442:24445   */\n      dup3\n        /* \"#utility.yul\":24435:24454   */\n      mstore\n        /* \"#utility.yul\":24487:24491   */\n      0x20\n        /* \"#utility.yul\":24482:24485   */\n      dup3\n        /* \"#utility.yul\":24478:24492   */\n      add\n        /* \"#utility.yul\":24463:24492   */\n      swap1\n      pop\n        /* \"#utility.yul\":24425:24498   */\n      swap3\n      swap2\n      pop\n      pop\n      jump\t// out\n        /* \"#utility.yul\":24504:24663   */\n    tag_468:\n        /* \"#utility.yul\":24578:24589   */\n      0x00\n        /* \"#utility.yul\":24612:24618   */\n      dup3\n        /* \"#utility.yul\":24607:24610   */\n      dup3\n        /* \"#utility.yul\":24600:24619   */\n      mstore\n        /* \"#utility.yul\":24652:24656   */\n      0x20\n        /* \"#utility.yul\":24647:24650   */\n      dup3\n        /* \"#utility.yul\":24643:24657   */\n      add\n        /* \"#utility.yul\":24628:24657   */\n      swap1\n      pop\n        /* \"#utility.yul\":24590:24663   */\n      swap3\n      swap2\n      pop\n      pop\n      jump\t// out\n        /* \"#utility.yul\":24669:24838   */\n    tag_475:\n        /* \"#utility.yul\":24753:24764   */\n      0x00\n        /* \"#utility.yul\":24787:24793   */\n      dup3\n        /* \"#utility.yul\":24782:24785   */\n      dup3\n        /* \"#utility.yul\":24775:24794   */\n      mstore\n        /* \"#utility.yul\":24827:24831   */\n      0x20\n        /* \"#utility.yul\":24822:24825   */\n      dup3\n        /* \"#utility.yul\":24818:24832   */\n      add\n        /* \"#utility.yul\":24803:24832   */\n      swap1\n      pop\n        /* \"#utility.yul\":24765:24838   */\n      swap3\n      swap2\n      pop\n      pop\n      jump\t// out\n        /* \"#utility.yul\":24844:24992   */\n    tag_482:\n        /* \"#utility.yul\":24946:24957   */\n      0x00\n        /* \"#utility.yul\":24983:24986   */\n      dup2\n        /* \"#utility.yul\":24968:24986   */\n      swap1\n      pop\n        /* \"#utility.yul\":24958:24992   */\n      swap3\n      swap2\n      pop\n      pop\n      jump\t// out\n        /* \"#utility.yul\":24998:25303   */\n    tag_250:\n        /* \"#utility.yul\":25038:25041   */\n      0x00\n        /* \"#utility.yul\":25057:25077   */\n      tag_612\n        /* \"#utility.yul\":25075:25076   */\n      dup3\n        /* \"#utility.yul\":25057:25077   */\n      tag_542\n      jump\t// in\n    tag_612:\n        /* \"#utility.yul\":25052:25077   */\n      swap2\n      pop\n        /* \"#utility.yul\":25091:25111   */\n      tag_613\n        /* \"#utility.yul\":25109:25110   */\n      dup4\n        /* \"#utility.yul\":25091:25111   */\n      tag_542\n      jump\t// in\n    tag_613:\n        /* \"#utility.yul\":25086:25111   */\n      swap3\n      pop\n        /* \"#utility.yul\":25245:25246   */\n      dup3\n        /* \"#utility.yul\":25177:25243   */\n      0xffffffffffffffffffffffffffffffffffffffffffffffffffffffffffffffff\n        /* \"#utility.yul\":25173:25247   */\n      sub\n        /* \"#utility.yul\":25170:25171   */\n      dup3\n        /* \"#utility.yul\":25167:25248   */\n      gt\n        /* \"#utility.yul\":25164:25166   */\n      iszero\n      tag_614\n      jumpi\n        /* \"#utility.yul\":25251:25269   */\n      tag_615\n      tag_616\n      jump\t// in\n    tag_615:\n        /* \"#utility.yul\":25164:25166   */\n    tag_614:\n        /* \"#utility.yul\":25295:25296   */\n      dup3\n        /* \"#utility.yul\":25292:25293   */\n      dup3\n        /* \"#utility.yul\":25288:25297   */\n      add\n        /* \"#utility.yul\":25281:25297   */\n      swap1\n      pop\n        /* \"#utility.yul\":25042:25303   */\n      swap3\n      swap2\n      pop\n      pop\n      jump\t// out\n        /* \"#utility.yul\":25309:25494   */\n    tag_240:\n        /* \"#utility.yul\":25349:25350   */\n      0x00\n        /* \"#utility.yul\":25366:25386   */\n      tag_618\n        /* \"#utility.yul\":25384:25385   */\n      dup3\n        /* \"#utility.yul\":25366:25386   */\n      tag_542\n      jump\t// in\n    tag_618:\n        /* \"#utility.yul\":25361:25386   */\n      swap2\n      pop\n        /* \"#utility.yul\":25400:25420   */\n      tag_619\n        /* \"#utility.yul\":25418:25419   */\n      dup4\n        /* \"#utility.yul\":25400:25420   */\n      tag_542\n      jump\t// in\n    tag_619:\n        /* \"#utility.yul\":25395:25420   */\n      swap3\n      pop\n        /* \"#utility.yul\":25439:25440   */\n      dup3\n        /* \"#utility.yul\":25429:25431   */\n      tag_620\n      jumpi\n        /* \"#utility.yul\":25444:25462   */\n      tag_621\n      tag_622\n      jump\t// in\n    tag_621:\n        /* \"#utility.yul\":25429:25431   */\n    tag_620:\n        /* \"#utility.yul\":25486:25487   */\n      dup3\n        /* \"#utility.yul\":25483:25484   */\n      dup3\n        /* \"#utility.yul\":25479:25488   */\n      div\n        /* \"#utility.yul\":25474:25488   */\n      swap1\n      pop\n        /* \"#utility.yul\":25351:25494   */\n      swap3\n      swap2\n      pop\n      pop\n      jump\t// out\n        /* \"#utility.yul\":25500:25691   */\n    tag_246:\n        /* \"#utility.yul\":25540:25544   */\n      0x00\n        /* \"#utility.yul\":25560:25580   */\n      tag_624\n        /* \"#utility.yul\":25578:25579   */\n      dup3\n        /* \"#utility.yul\":25560:25580   */\n      tag_542\n      jump\t// in\n    tag_624:\n        /* \"#utility.yul\":25555:25580   */\n      swap2\n      pop\n        /* \"#utility.yul\":25594:25614   */\n      tag_625\n        /* \"#utility.yul\":25612:25613   */\n      dup4\n        /* \"#utility.yul\":25594:25614   */\n      tag_542\n      jump\t// in\n    tag_625:\n        /* \"#utility.yul\":25589:25614   */\n      swap3\n      pop\n        /* \"#utility.yul\":25633:25634   */\n      dup3\n        /* \"#utility.yul\":25630:25631   */\n      dup3\n        /* \"#utility.yul\":25627:25635   */\n      lt\n        /* \"#utility.yul\":25624:25626   */\n      iszero\n      tag_626\n      jumpi\n        /* \"#utility.yul\":25638:25656   */\n      tag_627\n      tag_616\n      jump\t// in\n    tag_627:\n        /* \"#utility.yul\":25624:25626   */\n    tag_626:\n        /* \"#utility.yul\":25683:25684   */\n      dup3\n        /* \"#utility.yul\":25680:25681   */\n      dup3\n        /* \"#utility.yul\":25676:25685   */\n      sub\n        /* \"#utility.yul\":25668:25685   */\n      swap1\n      pop\n        /* \"#utility.yul\":25545:25691   */\n      swap3\n      swap2\n      pop\n      pop\n      jump\t// out\n        /* \"#utility.yul\":25697:25793   */\n    tag_435:\n        /* \"#utility.yul\":25734:25741   */\n      0x00\n        /* \"#utility.yul\":25763:25787   */\n      tag_629\n        /* \"#utility.yul\":25781:25786   */\n      dup3\n        /* \"#utility.yul\":25763:25787   */\n      tag_630\n      jump\t// in\n    tag_629:\n        /* \"#utility.yul\":25752:25787   */\n      swap1\n      pop\n        /* \"#utility.yul\":25742:25793   */\n      swap2\n      swap1\n      pop\n      jump\t// out\n        /* \"#utility.yul\":25799:25889   */\n    tag_453:\n        /* \"#utility.yul\":25833:25840   */\n      0x00\n        /* \"#utility.yul\":25876:25881   */\n      dup2\n        /* \"#utility.yul\":25869:25882   */\n      iszero\n        /* \"#utility.yul\":25862:25883   */\n      iszero\n        /* \"#utility.yul\":25851:25883   */\n      swap1\n      pop\n        /* \"#utility.yul\":25841:25889   */\n      swap2\n      swap1\n      pop\n      jump\t// out\n        /* \"#utility.yul\":25895:26044   */\n    tag_632:\n        /* \"#utility.yul\":25931:25938   */\n      0x00\n        /* \"#utility.yul\":25971:26037   */\n      0xffffffff00000000000000000000000000000000000000000000000000000000\n        /* \"#utility.yul\":25964:25969   */\n      dup3\n        /* \"#utility.yul\":25960:26038   */\n      and\n        /* \"#utility.yul\":25949:26038   */\n      swap1\n      pop\n        /* \"#utility.yul\":25939:26044   */\n      swap2\n      swap1\n      pop\n      jump\t// out\n        /* \"#utility.yul\":26050:26176   */\n    tag_630:\n        /* \"#utility.yul\":26087:26094   */\n      0x00\n        /* \"#utility.yul\":26127:26169   */\n      0xffffffffffffffffffffffffffffffffffffffff\n        /* \"#utility.yul\":26120:26125   */\n      dup3\n        /* \"#utility.yul\":26116:26170   */\n      and\n        /* \"#utility.yul\":26105:26170   */\n      swap1\n      pop\n        /* \"#utility.yul\":26095:26176   */\n      swap2\n      swap1\n      pop\n      jump\t// out\n        /* \"#utility.yul\":26182:26259   */\n    tag_542:\n        /* \"#utility.yul\":26219:26226   */\n      0x00\n        /* \"#utility.yul\":26248:26253   */\n      dup2\n        /* \"#utility.yul\":26237:26253   */\n      swap1\n      pop\n        /* \"#utility.yul\":26227:26259   */\n      swap2\n      swap1\n      pop\n      jump\t// out\n        /* \"#utility.yul\":26265:26419   */\n    tag_345:\n        /* \"#utility.yul\":26349:26355   */\n      dup3\n        /* \"#utility.yul\":26344:26347   */\n      dup2\n        /* \"#utility.yul\":26339:26342   */\n      dup4\n        /* \"#utility.yul\":26326:26356   */\n      calldatacopy\n        /* \"#utility.yul\":26411:26412   */\n      0x00\n        /* \"#utility.yul\":26402:26408   */\n      dup4\n        /* \"#utility.yul\":26397:26400   */\n      dup4\n        /* \"#utility.yul\":26393:26409   */\n      add\n        /* \"#utility.yul\":26386:26413   */\n      mstore\n        /* \"#utility.yul\":26316:26419   */\n      pop\n      pop\n      pop\n      jump\t// out\n        /* \"#utility.yul\":26425:26732   */\n    tag_461:\n        /* \"#utility.yul\":26493:26494   */\n      0x00\n        /* \"#utility.yul\":26503:26616   */\n    tag_638:\n        /* \"#utility.yul\":26517:26523   */\n      dup4\n        /* \"#utility.yul\":26514:26515   */\n      dup2\n        /* \"#utility.yul\":26511:26524   */\n      lt\n        /* \"#utility.yul\":26503:26616   */\n      iszero\n      tag_640\n      jumpi\n        /* \"#utility.yul\":26602:26603   */\n      dup1\n        /* \"#utility.yul\":26597:26600   */\n      dup3\n        /* \"#utility.yul\":26593:26604   */\n      add\n        /* \"#utility.yul\":26587:26605   */\n      mload\n        /* \"#utility.yul\":26583:26584   */\n      dup2\n        /* \"#utility.yul\":26578:26581   */\n      dup5\n        /* \"#utility.yul\":26574:26585   */\n      add\n        /* \"#utility.yul\":26567:26606   */\n      mstore\n        /* \"#utility.yul\":26539:26541   */\n      0x20\n        /* \"#utility.yul\":26536:26537   */\n      dup2\n        /* \"#utility.yul\":26532:26542   */\n      add\n        /* \"#utility.yul\":26527:26542   */\n      swap1\n      pop\n        /* \"#utility.yul\":26503:26616   */\n      jump(tag_638)\n    tag_640:\n        /* \"#utility.yul\":26634:26640   */\n      dup4\n        /* \"#utility.yul\":26631:26632   */\n      dup2\n        /* \"#utility.yul\":26628:26641   */\n      gt\n        /* \"#utility.yul\":26625:26627   */\n      iszero\n      tag_641\n      jumpi\n        /* \"#utility.yul\":26714:26715   */\n      0x00\n        /* \"#utility.yul\":26705:26711   */\n      dup5\n        /* \"#utility.yul\":26700:26703   */\n      dup5\n        /* \"#utility.yul\":26696:26712   */\n      add\n        /* \"#utility.yul\":26689:26716   */\n      mstore\n        /* \"#utility.yul\":26625:26627   */\n    tag_641:\n        /* \"#utility.yul\":26474:26732   */\n      pop\n      pop\n      pop\n      pop\n      jump\t// out\n        /* \"#utility.yul\":26738:27058   */\n    tag_99:\n        /* \"#utility.yul\":26782:26788   */\n      0x00\n        /* \"#utility.yul\":26819:26820   */\n      0x02\n        /* \"#utility.yul\":26813:26817   */\n      dup3\n        /* \"#utility.yul\":26809:26821   */\n      div\n        /* \"#utility.yul\":26799:26821   */\n      swap1\n      pop\n        /* \"#utility.yul\":26866:26867   */\n      0x01\n        /* \"#utility.yul\":26860:26864   */\n      dup3\n        /* \"#utility.yul\":26856:26868   */\n      and\n        /* \"#utility.yul\":26887:26905   */\n      dup1\n        /* \"#utility.yul\":26877:26879   */\n      tag_643\n      jumpi\n        /* \"#utility.yul\":26943:26947   */\n      0x7f\n        /* \"#utility.yul\":26935:26941   */\n      dup3\n        /* \"#utility.yul\":26931:26948   */\n      and\n        /* \"#utility.yul\":26921:26948   */\n      swap2\n      pop\n        /* \"#utility.yul\":26877:26879   */\n    tag_643:\n        /* \"#utility.yul\":27005:27007   */\n      0x20\n        /* \"#utility.yul\":26997:27003   */\n      dup3\n        /* \"#utility.yul\":26994:27008   */\n      lt\n        /* \"#utility.yul\":26974:26992   */\n      dup2\n        /* \"#utility.yul\":26971:27009   */\n      eq\n        /* \"#utility.yul\":26968:26970   */\n      iszero\n      tag_644\n      jumpi\n        /* \"#utility.yul\":27024:27042   */\n      tag_645\n      tag_646\n      jump\t// in\n    tag_645:\n        /* \"#utility.yul\":26968:26970   */\n    tag_644:\n        /* \"#utility.yul\":26789:27058   */\n      pop\n      swap2\n      swap1\n      pop\n      jump\t// out\n        /* \"#utility.yul\":27064:27345   */\n    tag_587:\n        /* \"#utility.yul\":27147:27174   */\n      tag_648\n        /* \"#utility.yul\":27169:27173   */\n      dup3\n        /* \"#utility.yul\":27147:27174   */\n      tag_463\n      jump\t// in\n    tag_648:\n        /* \"#utility.yul\":27139:27145   */\n      dup2\n        /* \"#utility.yul\":27135:27175   */\n      add\n        /* \"#utility.yul\":27277:27283   */\n      dup2\n        /* \"#utility.yul\":27265:27275   */\n      dup2\n        /* \"#utility.yul\":27262:27284   */\n      lt\n        /* \"#utility.yul\":27241:27259   */\n      0xffffffffffffffff\n        /* \"#utility.yul\":27229:27239   */\n      dup3\n        /* \"#utility.yul\":27226:27260   */\n      gt\n        /* \"#utility.yul\":27223:27285   */\n      or\n        /* \"#utility.yul\":27220:27222   */\n      iszero\n      tag_649\n      jumpi\n        /* \"#utility.yul\":27288:27306   */\n      tag_650\n      tag_592\n      jump\t// in\n    tag_650:\n        /* \"#utility.yul\":27220:27222   */\n    tag_649:\n        /* \"#utility.yul\":27328:27338   */\n      dup1\n        /* \"#utility.yul\":27324:27326   */\n      0x40\n        /* \"#utility.yul\":27317:27339   */\n      mstore\n        /* \"#utility.yul\":27107:27345   */\n      pop\n      pop\n      pop\n      jump\t// out\n        /* \"#utility.yul\":27351:27584   */\n    tag_238:\n        /* \"#utility.yul\":27390:27393   */\n      0x00\n        /* \"#utility.yul\":27413:27437   */\n      tag_652\n        /* \"#utility.yul\":27431:27436   */\n      dup3\n        /* \"#utility.yul\":27413:27437   */\n      tag_542\n      jump\t// in\n    tag_652:\n        /* \"#utility.yul\":27404:27437   */\n      swap2\n      pop\n        /* \"#utility.yul\":27459:27525   */\n      0xffffffffffffffffffffffffffffffffffffffffffffffffffffffffffffffff\n        /* \"#utility.yul\":27452:27457   */\n      dup3\n        /* \"#utility.yul\":27449:27526   */\n      eq\n        /* \"#utility.yul\":27446:27448   */\n      iszero\n      tag_653\n      jumpi\n        /* \"#utility.yul\":27529:27547   */\n      tag_654\n      tag_616\n      jump\t// in\n    tag_654:\n        /* \"#utility.yul\":27446:27448   */\n    tag_653:\n        /* \"#utility.yul\":27576:27577   */\n      0x01\n        /* \"#utility.yul\":27569:27574   */\n      dup3\n        /* \"#utility.yul\":27565:27578   */\n      add\n        /* \"#utility.yul\":27558:27578   */\n      swap1\n      pop\n        /* \"#utility.yul\":27394:27584   */\n      swap2\n      swap1\n      pop\n      jump\t// out\n        /* \"#utility.yul\":27590:27766   */\n    tag_248:\n        /* \"#utility.yul\":27622:27623   */\n      0x00\n        /* \"#utility.yul\":27639:27659   */\n      tag_656\n        /* \"#utility.yul\":27657:27658   */\n      dup3\n        /* \"#utility.yul\":27639:27659   */\n      tag_542\n      jump\t// in\n    tag_656:\n        /* \"#utility.yul\":27634:27659   */\n      swap2\n      pop\n        /* \"#utility.yul\":27673:27693   */\n      tag_657\n        /* \"#utility.yul\":27691:27692   */\n      dup4\n        /* \"#utility.yul\":27673:27693   */\n      tag_542\n      jump\t// in\n    tag_657:\n        /* \"#utility.yul\":27668:27693   */\n      swap3\n      pop\n        /* \"#utility.yul\":27712:27713   */\n      dup3\n        /* \"#utility.yul\":27702:27704   */\n      tag_658\n      jumpi\n        /* \"#utility.yul\":27717:27735   */\n      tag_659\n      tag_622\n      jump\t// in\n    tag_659:\n        /* \"#utility.yul\":27702:27704   */\n    tag_658:\n        /* \"#utility.yul\":27758:27759   */\n      dup3\n        /* \"#utility.yul\":27755:27756   */\n      dup3\n        /* \"#utility.yul\":27751:27760   */\n      mod\n        /* \"#utility.yul\":27746:27760   */\n      swap1\n      pop\n        /* \"#utility.yul\":27624:27766   */\n      swap3\n      swap2\n      pop\n      pop\n      jump\t// out\n        /* \"#utility.yul\":27772:27952   */\n    tag_616:\n        /* \"#utility.yul\":27820:27897   */\n      0x4e487b7100000000000000000000000000000000000000000000000000000000\n        /* \"#utility.yul\":27817:27818   */\n      0x00\n        /* \"#utility.yul\":27810:27898   */\n      mstore\n        /* \"#utility.yul\":27917:27921   */\n      0x11\n        /* \"#utility.yul\":27914:27915   */\n      0x04\n        /* \"#utility.yul\":27907:27922   */\n      mstore\n        /* \"#utility.yul\":27941:27945   */\n      0x24\n        /* \"#utility.yul\":27938:27939   */\n      0x00\n        /* \"#utility.yul\":27931:27946   */\n      revert\n        /* \"#utility.yul\":27958:28138   */\n    tag_622:\n        /* \"#utility.yul\":28006:28083   */\n      0x4e487b7100000000000000000000000000000000000000000000000000000000\n        /* \"#utility.yul\":28003:28004   */\n      0x00\n        /* \"#utility.yul\":27996:28084   */\n      mstore\n        /* \"#utility.yul\":28103:28107   */\n      0x12\n        /* \"#utility.yul\":28100:28101   */\n      0x04\n        /* \"#utility.yul\":28093:28108   */\n      mstore\n        /* \"#utility.yul\":28127:28131   */\n      0x24\n        /* \"#utility.yul\":28124:28125   */\n      0x00\n        /* \"#utility.yul\":28117:28132   */\n      revert\n        /* \"#utility.yul\":28144:28324   */\n    tag_646:\n        /* \"#utility.yul\":28192:28269   */\n      0x4e487b7100000000000000000000000000000000000000000000000000000000\n        /* \"#utility.yul\":28189:28190   */\n      0x00\n        /* \"#utility.yul\":28182:28270   */\n      mstore\n        /* \"#utility.yul\":28289:28293   */\n      0x22\n        /* \"#utility.yul\":28286:28287   */\n      0x04\n        /* \"#utility.yul\":28279:28294   */\n      mstore\n        /* \"#utility.yul\":28313:28317   */\n      0x24\n        /* \"#utility.yul\":28310:28311   */\n      0x00\n        /* \"#utility.yul\":28303:28318   */\n      revert\n        /* \"#utility.yul\":28330:28510   */\n    tag_592:\n        /* \"#utility.yul\":28378:28455   */\n      0x4e487b7100000000000000000000000000000000000000000000000000000000\n        /* \"#utility.yul\":28375:28376   */\n      0x00\n        /* \"#utility.yul\":28368:28456   */\n      mstore\n        /* \"#utility.yul\":28475:28479   */\n      0x41\n        /* \"#utility.yul\":28472:28473   */\n      0x04\n        /* \"#utility.yul\":28465:28480   */\n      mstore\n        /* \"#utility.yul\":28499:28503   */\n      0x24\n        /* \"#utility.yul\":28496:28497   */\n      0x00\n        /* \"#utility.yul\":28489:28504   */\n      revert\n        /* \"#utility.yul\":28516:28618   */\n    tag_463:\n        /* \"#utility.yul\":28557:28563   */\n      0x00\n        /* \"#utility.yul\":28608:28610   */\n      0x1f\n        /* \"#utility.yul\":28604:28611   */\n      not\n        /* \"#utility.yul\":28599:28601   */\n      0x1f\n        /* \"#utility.yul\":28592:28597   */\n      dup4\n        /* \"#utility.yul\":28588:28602   */\n      add\n        /* \"#utility.yul\":28584:28612   */\n      and\n        /* \"#utility.yul\":28574:28612   */\n      swap1\n      pop\n        /* \"#utility.yul\":28564:28618   */\n      swap2\n      swap1\n      pop\n      jump\t// out\n        /* \"#utility.yul\":28624:28856   */\n    tag_488:\n        /* \"#utility.yul\":28764:28798   */\n      0x4552433732313a2063616c6c6572206973206e6f7420746f6b656e206f776e65\n        /* \"#utility.yul\":28760:28761   */\n      0x00\n        /* \"#utility.yul\":28752:28758   */\n      dup3\n        /* \"#utility.yul\":28748:28762   */\n      add\n        /* \"#utility.yul\":28741:28799   */\n      mstore\n        /* \"#utility.yul\":28833:28848   */\n      0x72206f7220617070726f76656400000000000000000000000000000000000000\n        /* \"#utility.yul\":28828:28830   */\n      0x20\n        /* \"#utility.yul\":28820:28826   */\n      dup3\n        /* \"#utility.yul\":28816:28831   */\n      add\n        /* \"#utility.yul\":28809:28849   */\n      mstore\n        /* \"#utility.yul\":28730:28856   */\n      pop\n      jump\t// out\n        /* \"#utility.yul\":28862:29099   */\n    tag_493:\n        /* \"#utility.yul\":29002:29036   */\n      0x4552433732313a207472616e7366657220746f206e6f6e204552433732315265\n        /* \"#utility.yul\":28998:28999   */\n      0x00\n        /* \"#utility.yul\":28990:28996   */\n      dup3\n        /* \"#utility.yul\":28986:29000   */\n      add\n        /* \"#utility.yul\":28979:29037   */\n      mstore\n        /* \"#utility.yul\":29071:29091   */\n      0x63656976657220696d706c656d656e7465720000000000000000000000000000\n        /* \"#utility.yul\":29066:29068   */\n      0x20\n        /* \"#utility.yul\":29058:29064   */\n      dup3\n        /* \"#utility.yul\":29054:29069   */\n      add\n        /* \"#utility.yul\":29047:29092   */\n      mstore\n        /* \"#utility.yul\":28968:29099   */\n      pop\n      jump\t// out\n        /* \"#utility.yul\":29105:29329   */\n    tag_498:\n        /* \"#utility.yul\":29245:29279   */\n      0x4552433732313a207472616e736665722066726f6d20696e636f727265637420\n        /* \"#utility.yul\":29241:29242   */\n      0x00\n        /* \"#utility.yul\":29233:29239   */\n      dup3\n        /* \"#utility.yul\":29229:29243   */\n      add\n        /* \"#utility.yul\":29222:29280   */\n      mstore\n        /* \"#utility.yul\":29314:29321   */\n      0x6f776e6572000000000000000000000000000000000000000000000000000000\n        /* \"#utility.yul\":29309:29311   */\n      0x20\n        /* \"#utility.yul\":29301:29307   */\n      dup3\n        /* \"#utility.yul\":29297:29312   */\n      add\n        /* \"#utility.yul\":29290:29322   */\n      mstore\n        /* \"#utility.yul\":29211:29329   */\n      pop\n      jump\t// out\n        /* \"#utility.yul\":29335:29513   */\n    tag_503:\n        /* \"#utility.yul\":29475:29505   */\n      0x4552433732313a20746f6b656e20616c7265616479206d696e74656400000000\n        /* \"#utility.yul\":29471:29472   */\n      0x00\n        /* \"#utility.yul\":29463:29469   */\n      dup3\n        /* \"#utility.yul\":29459:29473   */\n      add\n        /* \"#utility.yul\":29452:29506   */\n      mstore\n        /* \"#utility.yul\":29441:29513   */\n      pop\n      jump\t// out\n        /* \"#utility.yul\":29519:29742   */\n    tag_508:\n        /* \"#utility.yul\":29659:29693   */\n      0x4552433732313a207472616e7366657220746f20746865207a65726f20616464\n        /* \"#utility.yul\":29655:29656   */\n      0x00\n        /* \"#utility.yul\":29647:29653   */\n      dup3\n        /* \"#utility.yul\":29643:29657   */\n      add\n        /* \"#utility.yul\":29636:29694   */\n      mstore\n        /* \"#utility.yul\":29728:29734   */\n      0x7265737300000000000000000000000000000000000000000000000000000000\n        /* \"#utility.yul\":29723:29725   */\n      0x20\n        /* \"#utility.yul\":29715:29721   */\n      dup3\n        /* \"#utility.yul\":29711:29726   */\n      add\n        /* \"#utility.yul\":29704:29735   */\n      mstore\n        /* \"#utility.yul\":29625:29742   */\n      pop\n      jump\t// out\n        /* \"#utility.yul\":29748:29923   */\n    tag_513:\n        /* \"#utility.yul\":29888:29915   */\n      0x4552433732313a20617070726f766520746f2063616c6c657200000000000000\n        /* \"#utility.yul\":29884:29885   */\n      0x00\n        /* \"#utility.yul\":29876:29882   */\n      dup3\n        /* \"#utility.yul\":29872:29886   */\n      add\n        /* \"#utility.yul\":29865:29916   */\n      mstore\n        /* \"#utility.yul\":29854:29923   */\n      pop\n      jump\t// out\n        /* \"#utility.yul\":29929:30157   */\n    tag_518:\n        /* \"#utility.yul\":30069:30103   */\n      0x4552433732313a2061646472657373207a65726f206973206e6f742061207661\n        /* \"#utility.yul\":30065:30066   */\n      0x00\n        /* \"#utility.yul\":30057:30063   */\n      dup3\n        /* \"#utility.yul\":30053:30067   */\n      add\n        /* \"#utility.yul\":30046:30104   */\n      mstore\n        /* \"#utility.yul\":30138:30149   */\n      0x6c6964206f776e65720000000000000000000000000000000000000000000000\n        /* \"#utility.yul\":30133:30135   */\n      0x20\n        /* \"#utility.yul\":30125:30131   */\n      dup3\n        /* \"#utility.yul\":30121:30136   */\n      add\n        /* \"#utility.yul\":30114:30150   */\n      mstore\n        /* \"#utility.yul\":30035:30157   */\n      pop\n      jump\t// out\n        /* \"#utility.yul\":30163:30345   */\n    tag_523:\n        /* \"#utility.yul\":30303:30337   */\n      0x4552433732313a206d696e7420746f20746865207a65726f2061646472657373\n        /* \"#utility.yul\":30299:30300   */\n      0x00\n        /* \"#utility.yul\":30291:30297   */\n      dup3\n        /* \"#utility.yul\":30287:30301   */\n      add\n        /* \"#utility.yul\":30280:30338   */\n      mstore\n        /* \"#utility.yul\":30269:30345   */\n      pop\n      jump\t// out\n        /* \"#utility.yul\":30351:30525   */\n    tag_528:\n        /* \"#utility.yul\":30491:30517   */\n      0x4552433732313a20696e76616c696420746f6b656e2049440000000000000000\n        /* \"#utility.yul\":30487:30488   */\n      0x00\n        /* \"#utility.yul\":30479:30485   */\n      dup3\n        /* \"#utility.yul\":30475:30489   */\n      add\n        /* \"#utility.yul\":30468:30518   */\n      mstore\n        /* \"#utility.yul\":30457:30525   */\n      pop\n      jump\t// out\n        /* \"#utility.yul\":30531:30751   */\n    tag_533:\n        /* \"#utility.yul\":30671:30705   */\n      0x4552433732313a20617070726f76616c20746f2063757272656e74206f776e65\n        /* \"#utility.yul\":30667:30668   */\n      0x00\n        /* \"#utility.yul\":30659:30665   */\n      dup3\n        /* \"#utility.yul\":30655:30669   */\n      add\n        /* \"#utility.yul\":30648:30706   */\n      mstore\n        /* \"#utility.yul\":30740:30743   */\n      0x7200000000000000000000000000000000000000000000000000000000000000\n        /* \"#utility.yul\":30735:30737   */\n      0x20\n        /* \"#utility.yul\":30727:30733   */\n      dup3\n        /* \"#utility.yul\":30723:30738   */\n      add\n        /* \"#utility.yul\":30716:30744   */\n      mstore\n        /* \"#utility.yul\":30637:30751   */\n      pop\n      jump\t// out\n        /* \"#utility.yul\":30757:31005   */\n    tag_538:\n        /* \"#utility.yul\":30897:30931   */\n      0x4552433732313a20617070726f76652063616c6c6572206973206e6f7420746f\n        /* \"#utility.yul\":30893:30894   */\n      0x00\n        /* \"#utility.yul\":30885:30891   */\n      dup3\n        /* \"#utility.yul\":30881:30895   */\n      add\n        /* \"#utility.yul\":30874:30932   */\n      mstore\n        /* \"#utility.yul\":30966:30997   */\n      0x6b656e206f776e6572206f7220617070726f76656420666f7220616c6c000000\n        /* \"#utility.yul\":30961:30963   */\n      0x20\n        /* \"#utility.yul\":30953:30959   */\n      dup3\n        /* \"#utility.yul\":30949:30964   */\n      add\n        /* \"#utility.yul\":30942:30998   */\n      mstore\n        /* \"#utility.yul\":30863:31005   */\n      pop\n      jump\t// out\n        /* \"#utility.yul\":31011:31133   */\n    tag_356:\n        /* \"#utility.yul\":31084:31108   */\n      tag_677\n        /* \"#utility.yul\":31102:31107   */\n      dup2\n        /* \"#utility.yul\":31084:31108   */\n      tag_435\n      jump\t// in\n    tag_677:\n        /* \"#utility.yul\":31077:31082   */\n      dup2\n        /* \"#utility.yul\":31074:31109   */\n      eq\n        /* \"#utility.yul\":31064:31066   */\n      tag_678\n      jumpi\n        /* \"#utility.yul\":31123:31124   */\n      0x00\n        /* \"#utility.yul\":31120:31121   */\n      dup1\n        /* \"#utility.yul\":31113:31125   */\n      revert\n        /* \"#utility.yul\":31064:31066   */\n    tag_678:\n        /* \"#utility.yul\":31054:31133   */\n      pop\n      jump\t// out\n        /* \"#utility.yul\":31139:31255   */\n    tag_364:\n        /* \"#utility.yul\":31209:31230   */\n      tag_680\n        /* \"#utility.yul\":31224:31229   */\n      dup2\n        /* \"#utility.yul\":31209:31230   */\n      tag_453\n      jump\t// in\n    tag_680:\n        /* \"#utility.yul\":31202:31207   */\n      dup2\n        /* \"#utility.yul\":31199:31231   */\n      eq\n        /* \"#utility.yul\":31189:31191   */\n      tag_681\n      jumpi\n        /* \"#utility.yul\":31245:31246   */\n      0x00\n        /* \"#utility.yul\":31242:31243   */\n      dup1\n        /* \"#utility.yul\":31235:31247   */\n      revert\n        /* \"#utility.yul\":31189:31191   */\n    tag_681:\n        /* \"#utility.yul\":31179:31255   */\n      pop\n      jump\t// out\n        /* \"#utility.yul\":31261:31381   */\n    tag_368:\n        /* \"#utility.yul\":31333:31356   */\n      tag_683\n        /* \"#utility.yul\":31350:31355   */\n      dup2\n        /* \"#utility.yul\":31333:31356   */\n      tag_632\n      jump\t// in\n    tag_683:\n        /* \"#utility.yul\":31326:31331   */\n      dup2\n        /* \"#utility.yul\":31323:31357   */\n      eq\n        /* \"#utility.yul\":31313:31315   */\n      tag_684\n      jumpi\n        /* \"#utility.yul\":31371:31372   */\n      0x00\n        /* \"#utility.yul\":31368:31369   */\n      dup1\n        /* \"#utility.yul\":31361:31373   */\n      revert\n        /* \"#utility.yul\":31313:31315   */\n    tag_684:\n        /* \"#utility.yul\":31303:31381   */\n      pop\n      jump\t// out\n        /* \"#utility.yul\":31387:31509   */\n    tag_382:\n        /* \"#utility.yul\":31460:31484   */\n      tag_686\n        /* \"#utility.yul\":31478:31483   */\n      dup2\n        /* \"#utility.yul\":31460:31484   */\n      tag_542\n      jump\t// in\n    tag_686:\n        /* \"#utility.yul\":31453:31458   */\n      dup2\n        /* \"#utility.yul\":31450:31485   */\n      eq\n        /* \"#utility.yul\":31440:31442   */\n      tag_687\n      jumpi\n        /* \"#utility.yul\":31499:31500   */\n      0x00\n        /* \"#utility.yul\":31496:31497   */\n      dup1\n        /* \"#utility.yul\":31489:31501   */\n      revert\n        /* \"#utility.yul\":31440:31442   */\n    tag_687:\n        /* \"#utility.yul\":31430:31509   */\n      pop\n      jump\t// out\n\n    auxdata: 0xa2646970667358221220638ec6183515a225aaec7634ab2c7a5679d74fc804be861dc113ac84ce3d143364736f6c63430008040033\n}\n",
				"bytecode": {
					"linkReferences": {},
					"object": "60806040523480156200001157600080fd5b5060405162002ff438038062002ff4833981810160405281019062000037919062000193565b81600090805190602001906200004f92919062000071565b5080600190805190602001906200006892919062000071565b50505062000376565b8280546200007f906200029b565b90600052602060002090601f016020900481019282620000a35760008555620000ef565b82601f10620000be57805160ff1916838001178555620000ef565b82800160010185558215620000ef579182015b82811115620000ee578251825591602001919060010190620000d1565b5b509050620000fe919062000102565b5090565b5b808211156200011d57600081600090555060010162000103565b5090565b60006200013862000132846200022f565b62000206565b9050828152602081018484840111156200015157600080fd5b6200015e84828562000265565b509392505050565b600082601f8301126200017857600080fd5b81516200018a84826020860162000121565b91505092915050565b60008060408385031215620001a757600080fd5b600083015167ffffffffffffffff811115620001c257600080fd5b620001d08582860162000166565b925050602083015167ffffffffffffffff811115620001ee57600080fd5b620001fc8582860162000166565b9150509250929050565b60006200021262000225565b9050620002208282620002d1565b919050565b6000604051905090565b600067ffffffffffffffff8211156200024d576200024c62000336565b5b620002588262000365565b9050602081019050919050565b60005b838110156200028557808201518184015260208101905062000268565b8381111562000295576000848401525b50505050565b60006002820490506001821680620002b457607f821691505b60208210811415620002cb57620002ca62000307565b5b50919050565b620002dc8262000365565b810181811067ffffffffffffffff82111715620002fe57620002fd62000336565b5b80604052505050565b7f4e487b7100000000000000000000000000000000000000000000000000000000600052602260045260246000fd5b7f4e487b7100000000000000000000000000000000000000000000000000000000600052604160045260246000fd5b6000601f19601f8301169050919050565b612c6e80620003866000396000f3fe608060405234801561001057600080fd5b50600436106101005760003560e01c80636352211e11610097578063b88d4fde11610066578063b88d4fde146102bd578063c87b56dd146102d9578063e985e9c514610309578063ee48cda21461033957610100565b80636352211e1461022357806370a082311461025357806395d89b4114610283578063a22cb465146102a157610100565b80631fe29658116100d35780631fe296581461019f57806323b872dd146101bb57806342842e0e146101d757806352e04825146101f357610100565b806301ffc9a71461010557806306fdde0314610135578063081812fc14610153578063095ea7b314610183575b600080fd5b61011f600480360381019061011a9190611ec1565b610369565b60405161012c91906122fc565b60405180910390f35b61013d61044b565b60405161014a9190612317565b60405180910390f35b61016d60048036038101906101689190611f13565b6104dd565b60405161017a9190612273565b60405180910390f35b61019d60048036038101906101989190611e85565b610523565b005b6101b960048036038101906101b49190611da2565b61063b565b005b6101d560048036038101906101d09190611cd8565b610658565b005b6101f160048036038101906101ec9190611cd8565b6106b8565b005b61020d60048036038101906102089190611f13565b6106d8565b60405161021a91906122da565b60405180910390f35b61023d60048036038101906102389190611f13565b6107ca565b60405161024a9190612273565b60405180910390f35b61026d60048036038101906102689190611c73565b61087c565b60405161027a9190612499565b60405180910390f35b61028b610934565b6040516102989190612317565b60405180910390f35b6102bb60048036038101906102b69190611e49565b6109c6565b005b6102d760048036038101906102d29190611d27565b6109dc565b005b6102f360048036038101906102ee9190611f13565b610a3e565b6040516103009190612317565b60405180910390f35b610323600480360381019061031e9190611c9c565b610aa6565b60405161033091906122fc565b60405180910390f35b610353600480360381019061034e9190611f13565b610b3a565b6040516103609190612499565b60405180910390f35b60007f80ac58cd000000000000000000000000000000000000000000000000000000007bffffffffffffffffffffffffffffffffffffffffffffffffffffffff1916827bffffffffffffffffffffffffffffffffffffffffffffffffffffffff1916148061043457507f5b5e139f000000000000000000000000000000000000000000000000000000007bffffffffffffffffffffffffffffffffffffffffffffffffffffffff1916827bffffffffffffffffffffffffffffffffffffffffffffffffffffffff1916145b80610444575061044382610b5c565b5b9050919050565b60606000805461045a90612765565b80601f016020809104026020016040519081016040528092919081815260200182805461048690612765565b80156104d35780601f106104a8576101008083540402835291602001916104d3565b820191906000526020600020905b8154815290600101906020018083116104b657829003601f168201915b5050505050905090565b60006104e882610bc6565b6006600083815260200190815260200160002060009054906101000a900473ffffffffffffffffffffffffffffffffffffffff169050919050565b600061052e826107ca565b90508073ffffffffffffffffffffffffffffffffffffffff168373ffffffffffffffffffffffffffffffffffffffff16141561059f576040517f08c379a000000000000000000000000000000000000000000000000000000000815260040161059690612459565b60405180910390fd5b8073ffffffffffffffffffffffffffffffffffffffff166105be610c11565b73ffffffffffffffffffffffffffffffffffffffff1614806105ed57506105ec816105e7610c11565b610aa6565b5b61062c576040517f08c379a000000000000000000000000000000000000000000000000000000000815260040161062390612479565b60405180910390fd5b6106368383610c19565b505050565b61064785858585610cd2565b6106518282610cf4565b5050505050565b610669610663610c11565b82610d20565b6106a8576040517f08c379a000000000000000000000000000000000000000000000000000000000815260040161069f90612339565b60405180910390fd5b6106b3838383610db5565b505050565b6106d3838383604051806020016040528060008152506109dc565b505050565b6060600060036000848152602001908152602001600020805480602002602001604051908101604052809291908181526020016000905b828210156107bb57838290600052602060002001805461072e90612765565b80601f016020809104026020016040519081016040528092919081815260200182805461075a90612765565b80156107a75780601f1061077c576101008083540402835291602001916107a7565b820191906000526020600020905b81548152906001019060200180831161078a57829003601f168201915b50505050508152602001906001019061070f565b50505050905080915050919050565b6000806002600084815260200190815260200160002060009054906101000a900473ffffffffffffffffffffffffffffffffffffffff169050600073ffffffffffffffffffffffffffffffffffffffff168173ffffffffffffffffffffffffffffffffffffffff161415610873576040517f08c379a000000000000000000000000000000000000000000000000000000000815260040161086a90612439565b60405180910390fd5b80915050919050565b60008073ffffffffffffffffffffffffffffffffffffffff168273ffffffffffffffffffffffffffffffffffffffff1614156108ed576040517f08c379a00000000000000000000000000000000000000000000000000000000081526004016108e4906123f9565b60405180910390fd5b600560008373ffffffffffffffffffffffffffffffffffffffff1673ffffffffffffffffffffffffffffffffffffffff168152602001908152602001600020549050919050565b60606001805461094390612765565b80601f016020809104026020016040519081016040528092919081815260200182805461096f90612765565b80156109bc5780601f10610991576101008083540402835291602001916109bc565b820191906000526020600020905b81548152906001019060200180831161099f57829003601f168201915b5050505050905090565b6109d86109d1610c11565b83836110ab565b5050565b6109ed6109e7610c11565b83610d20565b610a2c576040517f08c379a0000000000000000000000000000000000000000000000000000000008152600401610a2390612339565b60405180910390fd5b610a3884848484611218565b50505050565b6060610a4982610bc6565b6000610a53611274565b90506000815111610a735760405180602001604052806000815250610a9e565b80610a7d8461128b565b604051602001610a8e92919061224f565b6040516020818303038152906040525b915050919050565b6000600760008473ffffffffffffffffffffffffffffffffffffffff1673ffffffffffffffffffffffffffffffffffffffff16815260200190815260200160002060008373ffffffffffffffffffffffffffffffffffffffff1673ffffffffffffffffffffffffffffffffffffffff16815260200190815260200160002060009054906101000a900460ff16905092915050565b6000806004600084815260200190815260200160002054905080915050919050565b60007f01ffc9a7000000000000000000000000000000000000000000000000000000007bffffffffffffffffffffffffffffffffffffffffffffffffffffffff1916827bffffffffffffffffffffffffffffffffffffffffffffffffffffffff1916149050919050565b610bcf81611438565b610c0e576040517f08c379a0000000000000000000000000000000000000000000000000000000008152600401610c0590612439565b60405180910390fd5b50565b600033905090565b816006600083815260200190815260200160002060006101000a81548173ffffffffffffffffffffffffffffffffffffffff021916908373ffffffffffffffffffffffffffffffffffffffff160217905550808273ffffffffffffffffffffffffffffffffffffffff16610c8c836107ca565b73ffffffffffffffffffffffffffffffffffffffff167f8c5be1e5ebec7d5bd14f71427d1e84f3dd0314c0f7b2291e5b200ac8c7c3b92560405160405180910390a45050565b610cee84848484604051806020016040528060008152506114a4565b50505050565b80600860008481526020019081526020016000209080519060200190610d1b929190611923565b505050565b600080610d2c836107ca565b90508073ffffffffffffffffffffffffffffffffffffffff168473ffffffffffffffffffffffffffffffffffffffff161480610d6e5750610d6d8185610aa6565b5b80610dac57508373ffffffffffffffffffffffffffffffffffffffff16610d94846104dd565b73ffffffffffffffffffffffffffffffffffffffff16145b91505092915050565b8273ffffffffffffffffffffffffffffffffffffffff16610dd5826107ca565b73ffffffffffffffffffffffffffffffffffffffff1614610e2b576040517f08c379a0000000000000000000000000000000000000000000000000000000008152600401610e2290612379565b60405180910390fd5b600073ffffffffffffffffffffffffffffffffffffffff168273ffffffffffffffffffffffffffffffffffffffff161415610e9b576040517f08c379a0000000000000000000000000000000000000000000000000000000008152600401610e92906123b9565b60405180910390fd5b610ea6838383611503565b8273ffffffffffffffffffffffffffffffffffffffff16610ec6826107ca565b73ffffffffffffffffffffffffffffffffffffffff1614610f1c576040517f08c379a0000000000000000000000000000000000000000000000000000000008152600401610f1390612379565b60405180910390fd5b6006600082815260200190815260200160002060006101000a81549073ffffffffffffffffffffffffffffffffffffffff02191690556001600560008573ffffffffffffffffffffffffffffffffffffffff1673ffffffffffffffffffffffffffffffffffffffff168152602001908152602001600020600082825403925050819055506001600560008473ffffffffffffffffffffffffffffffffffffffff1673ffffffffffffffffffffffffffffffffffffffff16815260200190815260200160002060008282540192505081905550816002600083815260200190815260200160002060006101000a81548173ffffffffffffffffffffffffffffffffffffffff021916908373ffffffffffffffffffffffffffffffffffffffff160217905550808273ffffffffffffffffffffffffffffffffffffffff168473ffffffffffffffffffffffffffffffffffffffff167fddf252ad1be2c89b69c2b068fc378daa952ba7f163c4a11628f55a4df523b3ef60405160405180910390a46110a6838383611508565b505050565b8173ffffffffffffffffffffffffffffffffffffffff168373ffffffffffffffffffffffffffffffffffffffff16141561111a576040517f08c379a0000000000000000000000000000000000000000000000000000000008152600401611111906123d9565b60405180910390fd5b80600760008573ffffffffffffffffffffffffffffffffffffffff1673ffffffffffffffffffffffffffffffffffffffff16815260200190815260200160002060008473ffffffffffffffffffffffffffffffffffffffff1673ffffffffffffffffffffffffffffffffffffffff16815260200190815260200160002060006101000a81548160ff0219169083151502179055508173ffffffffffffffffffffffffffffffffffffffff168373ffffffffffffffffffffffffffffffffffffffff167f17307eab39ab6107e8899845ad3d59bd9653f200f220920489ca2b5937696c318360405161120b91906122fc565b60405180910390a3505050565b611223848484610db5565b61122f8484848461150d565b61126e576040517f08c379a000000000000000000000000000000000000000000000000000000000815260040161126590612359565b60405180910390fd5b50505050565b606060405180602001604052806000815250905090565b606060008214156112d3576040518060400160405280600181526020017f30000000000000000000000000000000000000000000000000000000000000008152509050611433565b600082905060005b600082146113055780806112ee906127c8565b915050600a826112fe919061264a565b91506112db565b60008167ffffffffffffffff811115611347577f4e487b7100000000000000000000000000000000000000000000000000000000600052604160045260246000fd5b6040519080825280601f01601f1916602001820160405280156113795781602001600182028036833780820191505090505b5090505b6000851461142c57600182611392919061267b565b9150600a856113a19190612811565b60306113ad91906125f4565b60f81b8183815181106113e9577f4e487b7100000000000000000000000000000000000000000000000000000000600052603260045260246000fd5b60200101907effffffffffffffffffffffffffffffffffffffffffffffffffffffffffffff1916908160001a905350600a85611425919061264a565b945061137d565b8093505050505b919050565b60008073ffffffffffffffffffffffffffffffffffffffff166002600084815260200190815260200160002060009054906101000a900473ffffffffffffffffffffffffffffffffffffffff1673ffffffffffffffffffffffffffffffffffffffff1614159050919050565b6114b0858585856116a4565b6114bd600086848461150d565b6114fc576040517f08c379a00000000000000000000000000000000000000000000000000000000081526004016114f390612359565b60405180910390fd5b5050505050565b505050565b505050565b600061152e8473ffffffffffffffffffffffffffffffffffffffff16611900565b15611697578373ffffffffffffffffffffffffffffffffffffffff1663150b7a02611557610c11565b8786866040518563ffffffff1660e01b8152600401611579949392919061228e565b602060405180830381600087803b15801561159357600080fd5b505af19250505080156115c457506040513d601f19601f820116820180604052508101906115c19190611eea565b60015b611647573d80600081146115f4576040519150601f19603f3d011682016040523d82523d6000602084013e6115f9565b606091505b5060008151141561163f576040517f08c379a000000000000000000000000000000000000000000000000000000000815260040161163690612359565b60405180910390fd5b805181602001fd5b63150b7a0260e01b7bffffffffffffffffffffffffffffffffffffffffffffffffffffffff1916817bffffffffffffffffffffffffffffffffffffffffffffffffffffffff19161491505061169c565b600190505b949350505050565b600073ffffffffffffffffffffffffffffffffffffffff168473ffffffffffffffffffffffffffffffffffffffff161415611714576040517f08c379a000000000000000000000000000000000000000000000000000000000815260040161170b90612419565b60405180910390fd5b61171d81611438565b1561175d576040517f08c379a000000000000000000000000000000000000000000000000000000000815260040161175490612399565b60405180910390fd5b61176960008583611503565b61177281611438565b156117b2576040517f08c379a00000000000000000000000000000000000000000000000000000000081526004016117a990612399565b60405180910390fd5b6001600560008673ffffffffffffffffffffffffffffffffffffffff1673ffffffffffffffffffffffffffffffffffffffff16815260200190815260200160002060008282540192505081905550836002600083815260200190815260200160002060006101000a81548173ffffffffffffffffffffffffffffffffffffffff021916908373ffffffffffffffffffffffffffffffffffffffff160217905550826003600083815260200190815260200160002090805190602001906118799291906119a9565b50816004600083815260200190815260200160002081905550808473ffffffffffffffffffffffffffffffffffffffff16600073ffffffffffffffffffffffffffffffffffffffff167fddf252ad1be2c89b69c2b068fc378daa952ba7f163c4a11628f55a4df523b3ef60405160405180910390a46118fa60008583611508565b50505050565b6000808273ffffffffffffffffffffffffffffffffffffffff163b119050919050565b82805461192f90612765565b90600052602060002090601f0160209004810192826119515760008555611998565b82601f1061196a57805160ff1916838001178555611998565b82800160010185558215611998579182015b8281111561199757825182559160200191906001019061197c565b5b5090506119a59190611a09565b5090565b8280548282559060005260206000209081019282156119f8579160200282015b828111156119f75782518290805190602001906119e7929190611923565b50916020019190600101906119c9565b5b509050611a059190611a26565b5090565b5b80821115611a22576000816000905550600101611a0a565b5090565b5b80821115611a465760008181611a3d9190611a4a565b50600101611a27565b5090565b508054611a5690612765565b6000825580601f10611a685750611a87565b601f016020900490600052602060002090810190611a869190611a09565b5b50565b6000611a9d611a98846124d9565b6124b4565b90508083825260208201905082856020860282011115611abc57600080fd5b60005b85811015611b0657813567ffffffffffffffff811115611ade57600080fd5b808601611aeb8982611c34565b85526020850194506020840193505050600181019050611abf565b5050509392505050565b6000611b23611b1e84612505565b6124b4565b905082815260208101848484011115611b3b57600080fd5b611b46848285612723565b509392505050565b6000611b61611b5c84612536565b6124b4565b905082815260208101848484011115611b7957600080fd5b611b84848285612723565b509392505050565b600081359050611b9b81612bdc565b92915050565b600082601f830112611bb257600080fd5b8135611bc2848260208601611a8a565b91505092915050565b600081359050611bda81612bf3565b92915050565b600081359050611bef81612c0a565b92915050565b600081519050611c0481612c0a565b92915050565b600082601f830112611c1b57600080fd5b8135611c2b848260208601611b10565b91505092915050565b600082601f830112611c4557600080fd5b8135611c55848260208601611b4e565b91505092915050565b600081359050611c6d81612c21565b92915050565b600060208284031215611c8557600080fd5b6000611c9384828501611b8c565b91505092915050565b60008060408385031215611caf57600080fd5b6000611cbd85828601611b8c565b9250506020611cce85828601611b8c565b9150509250929050565b600080600060608486031215611ced57600080fd5b6000611cfb86828701611b8c565b9350506020611d0c86828701611b8c565b9250506040611d1d86828701611c5e565b9150509250925092565b60008060008060808587031215611d3d57600080fd5b6000611d4b87828801611b8c565b9450506020611d5c87828801611b8c565b9350506040611d6d87828801611c5e565b925050606085013567ffffffffffffffff811115611d8a57600080fd5b611d9687828801611c0a565b91505092959194509250565b600080600080600060a08688031215611dba57600080fd5b6000611dc888828901611b8c565b955050602086013567ffffffffffffffff811115611de557600080fd5b611df188828901611ba1565b9450506040611e0288828901611c5e565b9350506060611e1388828901611c5e565b925050608086013567ffffffffffffffff811115611e3057600080fd5b611e3c88828901611c34565b9150509295509295909350565b60008060408385031215611e5c57600080fd5b6000611e6a85828601611b8c565b9250506020611e7b85828601611bcb565b9150509250929050565b60008060408385031215611e9857600080fd5b6000611ea685828601611b8c565b9250506020611eb785828601611c5e565b9150509250929050565b600060208284031215611ed357600080fd5b6000611ee184828501611be0565b91505092915050565b600060208284031215611efc57600080fd5b6000611f0a84828501611bf5565b91505092915050565b600060208284031215611f2557600080fd5b6000611f3384828501611c5e565b91505092915050565b6000611f48838361201c565b905092915050565b611f59816126af565b82525050565b6000611f6a82612577565b611f7481856125a5565b935083602082028501611f8685612567565b8060005b85811015611fc25784840389528151611fa38582611f3c565b9450611fae83612598565b925060208a01995050600181019050611f8a565b50829750879550505050505092915050565b611fdd816126c1565b82525050565b6000611fee82612582565b611ff881856125b6565b9350612008818560208601612732565b612011816128fe565b840191505092915050565b60006120278261258d565b61203181856125c7565b9350612041818560208601612732565b61204a816128fe565b840191505092915050565b60006120608261258d565b61206a81856125d8565b935061207a818560208601612732565b612083816128fe565b840191505092915050565b60006120998261258d565b6120a381856125e9565b93506120b3818560208601612732565b80840191505092915050565b60006120cc602d836125d8565b91506120d78261290f565b604082019050919050565b60006120ef6032836125d8565b91506120fa8261295e565b604082019050919050565b60006121126025836125d8565b915061211d826129ad565b604082019050919050565b6000612135601c836125d8565b9150612140826129fc565b602082019050919050565b60006121586024836125d8565b915061216382612a25565b604082019050919050565b600061217b6019836125d8565b915061218682612a74565b602082019050919050565b600061219e6029836125d8565b91506121a982612a9d565b604082019050919050565b60006121c16020836125d8565b91506121cc82612aec565b602082019050919050565b60006121e46018836125d8565b91506121ef82612b15565b602082019050919050565b60006122076021836125d8565b915061221282612b3e565b604082019050919050565b600061222a603d836125d8565b915061223582612b8d565b604082019050919050565b61224981612719565b82525050565b600061225b828561208e565b9150612267828461208e565b91508190509392505050565b60006020820190506122886000830184611f50565b92915050565b60006080820190506122a36000830187611f50565b6122b06020830186611f50565b6122bd6040830185612240565b81810360608301526122cf8184611fe3565b905095945050505050565b600060208201905081810360008301526122f48184611f5f565b905092915050565b60006020820190506123116000830184611fd4565b92915050565b600060208201905081810360008301526123318184612055565b905092915050565b60006020820190508181036000830152612352816120bf565b9050919050565b60006020820190508181036000830152612372816120e2565b9050919050565b6000602082019050818103600083015261239281612105565b9050919050565b600060208201905081810360008301526123b281612128565b9050919050565b600060208201905081810360008301526123d28161214b565b9050919050565b600060208201905081810360008301526123f28161216e565b9050919050565b6000602082019050818103600083015261241281612191565b9050919050565b60006020820190508181036000830152612432816121b4565b9050919050565b60006020820190508181036000830152612452816121d7565b9050919050565b60006020820190508181036000830152612472816121fa565b9050919050565b600060208201905081810360008301526124928161221d565b9050919050565b60006020820190506124ae6000830184612240565b92915050565b60006124be6124cf565b90506124ca8282612797565b919050565b6000604051905090565b600067ffffffffffffffff8211156124f4576124f36128cf565b5b602082029050602081019050919050565b600067ffffffffffffffff8211156125205761251f6128cf565b5b612529826128fe565b9050602081019050919050565b600067ffffffffffffffff821115612551576125506128cf565b5b61255a826128fe565b9050602081019050919050565b6000819050602082019050919050565b600081519050919050565b600081519050919050565b600081519050919050565b6000602082019050919050565b600082825260208201905092915050565b600082825260208201905092915050565b600082825260208201905092915050565b600082825260208201905092915050565b600081905092915050565b60006125ff82612719565b915061260a83612719565b9250827fffffffffffffffffffffffffffffffffffffffffffffffffffffffffffffffff0382111561263f5761263e612842565b5b828201905092915050565b600061265582612719565b915061266083612719565b9250826126705761266f612871565b5b828204905092915050565b600061268682612719565b915061269183612719565b9250828210156126a4576126a3612842565b5b828203905092915050565b60006126ba826126f9565b9050919050565b60008115159050919050565b60007fffffffff0000000000000000000000000000000000000000000000000000000082169050919050565b600073ffffffffffffffffffffffffffffffffffffffff82169050919050565b6000819050919050565b82818337600083830152505050565b60005b83811015612750578082015181840152602081019050612735565b8381111561275f576000848401525b50505050565b6000600282049050600182168061277d57607f821691505b60208210811415612791576127906128a0565b5b50919050565b6127a0826128fe565b810181811067ffffffffffffffff821117156127bf576127be6128cf565b5b80604052505050565b60006127d382612719565b91507fffffffffffffffffffffffffffffffffffffffffffffffffffffffffffffffff82141561280657612805612842565b5b600182019050919050565b600061281c82612719565b915061282783612719565b92508261283757612836612871565b5b828206905092915050565b7f4e487b7100000000000000000000000000000000000000000000000000000000600052601160045260246000fd5b7f4e487b7100000000000000000000000000000000000000000000000000000000600052601260045260246000fd5b7f4e487b7100000000000000000000000000000000000000000000000000000000600052602260045260246000fd5b7f4e487b7100000000000000000000000000000000000000000000000000000000600052604160045260246000fd5b6000601f19601f8301169050919050565b7f4552433732313a2063616c6c6572206973206e6f7420746f6b656e206f776e6560008201527f72206f7220617070726f76656400000000000000000000000000000000000000602082015250565b7f4552433732313a207472616e7366657220746f206e6f6e20455243373231526560008201527f63656976657220696d706c656d656e7465720000000000000000000000000000602082015250565b7f4552433732313a207472616e736665722066726f6d20696e636f72726563742060008201527f6f776e6572000000000000000000000000000000000000000000000000000000602082015250565b7f4552433732313a20746f6b656e20616c7265616479206d696e74656400000000600082015250565b7f4552433732313a207472616e7366657220746f20746865207a65726f2061646460008201527f7265737300000000000000000000000000000000000000000000000000000000602082015250565b7f4552433732313a20617070726f766520746f2063616c6c657200000000000000600082015250565b7f4552433732313a2061646472657373207a65726f206973206e6f74206120766160008201527f6c6964206f776e65720000000000000000000000000000000000000000000000602082015250565b7f4552433732313a206d696e7420746f20746865207a65726f2061646472657373600082015250565b7f4552433732313a20696e76616c696420746f6b656e2049440000000000000000600082015250565b7f4552433732313a20617070726f76616c20746f2063757272656e74206f776e6560008201527f7200000000000000000000000000000000000000000000000000000000000000602082015250565b7f4552433732313a20617070726f76652063616c6c6572206973206e6f7420746f60008201527f6b656e206f776e6572206f7220617070726f76656420666f7220616c6c000000602082015250565b612be5816126af565b8114612bf057600080fd5b50565b612bfc816126c1565b8114612c0757600080fd5b50565b612c13816126cd565b8114612c1e57600080fd5b50565b612c2a81612719565b8114612c3557600080fd5b5056fea2646970667358221220638ec6183515a225aaec7634ab2c7a5679d74fc804be861dc113ac84ce3d143364736f6c63430008040033",
					"opcodes": "PUSH1 0x80 PUSH1 0x40 MSTORE CALLVALUE DUP1 ISZERO PUSH3 0x11 JUMPI PUSH1 0x0 DUP1 REVERT JUMPDEST POP PUSH1 0x40 MLOAD PUSH3 0x2FF4 CODESIZE SUB DUP1 PUSH3 0x2FF4 DUP4 CODECOPY DUP2 DUP2 ADD PUSH1 0x40 MSTORE DUP2 ADD SWAP1 PUSH3 0x37 SWAP2 SWAP1 PUSH3 0x193 JUMP JUMPDEST DUP2 PUSH1 0x0 SWAP1 DUP1 MLOAD SWAP1 PUSH1 0x20 ADD SWAP1 PUSH3 0x4F SWAP3 SWAP2 SWAP1 PUSH3 0x71 JUMP JUMPDEST POP DUP1 PUSH1 0x1 SWAP1 DUP1 MLOAD SWAP1 PUSH1 0x20 ADD SWAP1 PUSH3 0x68 SWAP3 SWAP2 SWAP1 PUSH3 0x71 JUMP JUMPDEST POP POP POP PUSH3 0x376 JUMP JUMPDEST DUP3 DUP1 SLOAD PUSH3 0x7F SWAP1 PUSH3 0x29B JUMP JUMPDEST SWAP1 PUSH1 0x0 MSTORE PUSH1 0x20 PUSH1 0x0 KECCAK256 SWAP1 PUSH1 0x1F ADD PUSH1 0x20 SWAP1 DIV DUP2 ADD SWAP3 DUP3 PUSH3 0xA3 JUMPI PUSH1 0x0 DUP6 SSTORE PUSH3 0xEF JUMP JUMPDEST DUP3 PUSH1 0x1F LT PUSH3 0xBE JUMPI DUP1 MLOAD PUSH1 0xFF NOT AND DUP4 DUP1 ADD OR DUP6 SSTORE PUSH3 0xEF JUMP JUMPDEST DUP3 DUP1 ADD PUSH1 0x1 ADD DUP6 SSTORE DUP3 ISZERO PUSH3 0xEF JUMPI SWAP2 DUP3 ADD JUMPDEST DUP3 DUP2 GT ISZERO PUSH3 0xEE JUMPI DUP3 MLOAD DUP3 SSTORE SWAP2 PUSH1 0x20 ADD SWAP2 SWAP1 PUSH1 0x1 ADD SWAP1 PUSH3 0xD1 JUMP JUMPDEST JUMPDEST POP SWAP1 POP PUSH3 0xFE SWAP2 SWAP1 PUSH3 0x102 JUMP JUMPDEST POP SWAP1 JUMP JUMPDEST JUMPDEST DUP1 DUP3 GT ISZERO PUSH3 0x11D JUMPI PUSH1 0x0 DUP2 PUSH1 0x0 SWAP1 SSTORE POP PUSH1 0x1 ADD PUSH3 0x103 JUMP JUMPDEST POP SWAP1 JUMP JUMPDEST PUSH1 0x0 PUSH3 0x138 PUSH3 0x132 DUP5 PUSH3 0x22F JUMP JUMPDEST PUSH3 0x206 JUMP JUMPDEST SWAP1 POP DUP3 DUP2 MSTORE PUSH1 0x20 DUP2 ADD DUP5 DUP5 DUP5 ADD GT ISZERO PUSH3 0x151 JUMPI PUSH1 0x0 DUP1 REVERT JUMPDEST PUSH3 0x15E DUP5 DUP3 DUP6 PUSH3 0x265 JUMP JUMPDEST POP SWAP4 SWAP3 POP POP POP JUMP JUMPDEST PUSH1 0x0 DUP3 PUSH1 0x1F DUP4 ADD SLT PUSH3 0x178 JUMPI PUSH1 0x0 DUP1 REVERT JUMPDEST DUP2 MLOAD PUSH3 0x18A DUP5 DUP3 PUSH1 0x20 DUP7 ADD PUSH3 0x121 JUMP JUMPDEST SWAP2 POP POP SWAP3 SWAP2 POP POP JUMP JUMPDEST PUSH1 0x0 DUP1 PUSH1 0x40 DUP4 DUP6 SUB SLT ISZERO PUSH3 0x1A7 JUMPI PUSH1 0x0 DUP1 REVERT JUMPDEST PUSH1 0x0 DUP4 ADD MLOAD PUSH8 0xFFFFFFFFFFFFFFFF DUP2 GT ISZERO PUSH3 0x1C2 JUMPI PUSH1 0x0 DUP1 REVERT JUMPDEST PUSH3 0x1D0 DUP6 DUP3 DUP7 ADD PUSH3 0x166 JUMP JUMPDEST SWAP3 POP POP PUSH1 0x20 DUP4 ADD MLOAD PUSH8 0xFFFFFFFFFFFFFFFF DUP2 GT ISZERO PUSH3 0x1EE JUMPI PUSH1 0x0 DUP1 REVERT JUMPDEST PUSH3 0x1FC DUP6 DUP3 DUP7 ADD PUSH3 0x166 JUMP JUMPDEST SWAP2 POP POP SWAP3 POP SWAP3 SWAP1 POP JUMP JUMPDEST PUSH1 0x0 PUSH3 0x212 PUSH3 0x225 JUMP JUMPDEST SWAP1 POP PUSH3 0x220 DUP3 DUP3 PUSH3 0x2D1 JUMP JUMPDEST SWAP2 SWAP1 POP JUMP JUMPDEST PUSH1 0x0 PUSH1 0x40 MLOAD SWAP1 POP SWAP1 JUMP JUMPDEST PUSH1 0x0 PUSH8 0xFFFFFFFFFFFFFFFF DUP3 GT ISZERO PUSH3 0x24D JUMPI PUSH3 0x24C PUSH3 0x336 JUMP JUMPDEST JUMPDEST PUSH3 0x258 DUP3 PUSH3 0x365 JUMP JUMPDEST SWAP1 POP PUSH1 0x20 DUP2 ADD SWAP1 POP SWAP2 SWAP1 POP JUMP JUMPDEST PUSH1 0x0 JUMPDEST DUP4 DUP2 LT ISZERO PUSH3 0x285 JUMPI DUP1 DUP3 ADD MLOAD DUP2 DUP5 ADD MSTORE PUSH1 0x20 DUP2 ADD SWAP1 POP PUSH3 0x268 JUMP JUMPDEST DUP4 DUP2 GT ISZERO PUSH3 0x295 JUMPI PUSH1 0x0 DUP5 DUP5 ADD MSTORE JUMPDEST POP POP POP POP JUMP JUMPDEST PUSH1 0x0 PUSH1 0x2 DUP3 DIV SWAP1 POP PUSH1 0x1 DUP3 AND DUP1 PUSH3 0x2B4 JUMPI PUSH1 0x7F DUP3 AND SWAP2 POP JUMPDEST PUSH1 0x20 DUP3 LT DUP2 EQ ISZERO PUSH3 0x2CB JUMPI PUSH3 0x2CA PUSH3 0x307 JUMP JUMPDEST JUMPDEST POP SWAP2 SWAP1 POP JUMP JUMPDEST PUSH3 0x2DC DUP3 PUSH3 0x365 JUMP JUMPDEST DUP2 ADD DUP2 DUP2 LT PUSH8 0xFFFFFFFFFFFFFFFF DUP3 GT OR ISZERO PUSH3 0x2FE JUMPI PUSH3 0x2FD PUSH3 0x336 JUMP JUMPDEST JUMPDEST DUP1 PUSH1 0x40 MSTORE POP POP POP JUMP JUMPDEST PUSH32 0x4E487B7100000000000000000000000000000000000000000000000000000000 PUSH1 0x0 MSTORE PUSH1 0x22 PUSH1 0x4 MSTORE PUSH1 0x24 PUSH1 0x0 REVERT JUMPDEST PUSH32 0x4E487B7100000000000000000000000000000000000000000000000000000000 PUSH1 0x0 MSTORE PUSH1 0x41 PUSH1 0x4 MSTORE PUSH1 0x24 PUSH1 0x0 REVERT JUMPDEST PUSH1 0x0 PUSH1 0x1F NOT PUSH1 0x1F DUP4 ADD AND SWAP1 POP SWAP2 SWAP1 POP JUMP JUMPDEST PUSH2 0x2C6E DUP1 PUSH3 0x386 PUSH1 0x0 CODECOPY PUSH1 0x0 RETURN INVALID PUSH1 0x80 PUSH1 0x40 MSTORE CALLVALUE DUP1 ISZERO PUSH2 0x10 JUMPI PUSH1 0x0 DUP1 REVERT JUMPDEST POP PUSH1 0x4 CALLDATASIZE LT PUSH2 0x100 JUMPI PUSH1 0x0 CALLDATALOAD PUSH1 0xE0 SHR DUP1 PUSH4 0x6352211E GT PUSH2 0x97 JUMPI DUP1 PUSH4 0xB88D4FDE GT PUSH2 0x66 JUMPI DUP1 PUSH4 0xB88D4FDE EQ PUSH2 0x2BD JUMPI DUP1 PUSH4 0xC87B56DD EQ PUSH2 0x2D9 JUMPI DUP1 PUSH4 0xE985E9C5 EQ PUSH2 0x309 JUMPI DUP1 PUSH4 0xEE48CDA2 EQ PUSH2 0x339 JUMPI PUSH2 0x100 JUMP JUMPDEST DUP1 PUSH4 0x6352211E EQ PUSH2 0x223 JUMPI DUP1 PUSH4 0x70A08231 EQ PUSH2 0x253 JUMPI DUP1 PUSH4 0x95D89B41 EQ PUSH2 0x283 JUMPI DUP1 PUSH4 0xA22CB465 EQ PUSH2 0x2A1 JUMPI PUSH2 0x100 JUMP JUMPDEST DUP1 PUSH4 0x1FE29658 GT PUSH2 0xD3 JUMPI DUP1 PUSH4 0x1FE29658 EQ PUSH2 0x19F JUMPI DUP1 PUSH4 0x23B872DD EQ PUSH2 0x1BB JUMPI DUP1 PUSH4 0x42842E0E EQ PUSH2 0x1D7 JUMPI DUP1 PUSH4 0x52E04825 EQ PUSH2 0x1F3 JUMPI PUSH2 0x100 JUMP JUMPDEST DUP1 PUSH4 0x1FFC9A7 EQ PUSH2 0x105 JUMPI DUP1 PUSH4 0x6FDDE03 EQ PUSH2 0x135 JUMPI DUP1 PUSH4 0x81812FC EQ PUSH2 0x153 JUMPI DUP1 PUSH4 0x95EA7B3 EQ PUSH2 0x183 JUMPI JUMPDEST PUSH1 0x0 DUP1 REVERT JUMPDEST PUSH2 0x11F PUSH1 0x4 DUP1 CALLDATASIZE SUB DUP2 ADD SWAP1 PUSH2 0x11A SWAP2 SWAP1 PUSH2 0x1EC1 JUMP JUMPDEST PUSH2 0x369 JUMP JUMPDEST PUSH1 0x40 MLOAD PUSH2 0x12C SWAP2 SWAP1 PUSH2 0x22FC JUMP JUMPDEST PUSH1 0x40 MLOAD DUP1 SWAP2 SUB SWAP1 RETURN JUMPDEST PUSH2 0x13D PUSH2 0x44B JUMP JUMPDEST PUSH1 0x40 MLOAD PUSH2 0x14A SWAP2 SWAP1 PUSH2 0x2317 JUMP JUMPDEST PUSH1 0x40 MLOAD DUP1 SWAP2 SUB SWAP1 RETURN JUMPDEST PUSH2 0x16D PUSH1 0x4 DUP1 CALLDATASIZE SUB DUP2 ADD SWAP1 PUSH2 0x168 SWAP2 SWAP1 PUSH2 0x1F13 JUMP JUMPDEST PUSH2 0x4DD JUMP JUMPDEST PUSH1 0x40 MLOAD PUSH2 0x17A SWAP2 SWAP1 PUSH2 0x2273 JUMP JUMPDEST PUSH1 0x40 MLOAD DUP1 SWAP2 SUB SWAP1 RETURN JUMPDEST PUSH2 0x19D PUSH1 0x4 DUP1 CALLDATASIZE SUB DUP2 ADD SWAP1 PUSH2 0x198 SWAP2 SWAP1 PUSH2 0x1E85 JUMP JUMPDEST PUSH2 0x523 JUMP JUMPDEST STOP JUMPDEST PUSH2 0x1B9 PUSH1 0x4 DUP1 CALLDATASIZE SUB DUP2 ADD SWAP1 PUSH2 0x1B4 SWAP2 SWAP1 PUSH2 0x1DA2 JUMP JUMPDEST PUSH2 0x63B JUMP JUMPDEST STOP JUMPDEST PUSH2 0x1D5 PUSH1 0x4 DUP1 CALLDATASIZE SUB DUP2 ADD SWAP1 PUSH2 0x1D0 SWAP2 SWAP1 PUSH2 0x1CD8 JUMP JUMPDEST PUSH2 0x658 JUMP JUMPDEST STOP JUMPDEST PUSH2 0x1F1 PUSH1 0x4 DUP1 CALLDATASIZE SUB DUP2 ADD SWAP1 PUSH2 0x1EC SWAP2 SWAP1 PUSH2 0x1CD8 JUMP JUMPDEST PUSH2 0x6B8 JUMP JUMPDEST STOP JUMPDEST PUSH2 0x20D PUSH1 0x4 DUP1 CALLDATASIZE SUB DUP2 ADD SWAP1 PUSH2 0x208 SWAP2 SWAP1 PUSH2 0x1F13 JUMP JUMPDEST PUSH2 0x6D8 JUMP JUMPDEST PUSH1 0x40 MLOAD PUSH2 0x21A SWAP2 SWAP1 PUSH2 0x22DA JUMP JUMPDEST PUSH1 0x40 MLOAD DUP1 SWAP2 SUB SWAP1 RETURN JUMPDEST PUSH2 0x23D PUSH1 0x4 DUP1 CALLDATASIZE SUB DUP2 ADD SWAP1 PUSH2 0x238 SWAP2 SWAP1 PUSH2 0x1F13 JUMP JUMPDEST PUSH2 0x7CA JUMP JUMPDEST PUSH1 0x40 MLOAD PUSH2 0x24A SWAP2 SWAP1 PUSH2 0x2273 JUMP JUMPDEST PUSH1 0x40 MLOAD DUP1 SWAP2 SUB SWAP1 RETURN JUMPDEST PUSH2 0x26D PUSH1 0x4 DUP1 CALLDATASIZE SUB DUP2 ADD SWAP1 PUSH2 0x268 SWAP2 SWAP1 PUSH2 0x1C73 JUMP JUMPDEST PUSH2 0x87C JUMP JUMPDEST PUSH1 0x40 MLOAD PUSH2 0x27A SWAP2 SWAP1 PUSH2 0x2499 JUMP JUMPDEST PUSH1 0x40 MLOAD DUP1 SWAP2 SUB SWAP1 RETURN JUMPDEST PUSH2 0x28B PUSH2 0x934 JUMP JUMPDEST PUSH1 0x40 MLOAD PUSH2 0x298 SWAP2 SWAP1 PUSH2 0x2317 JUMP JUMPDEST PUSH1 0x40 MLOAD DUP1 SWAP2 SUB SWAP1 RETURN JUMPDEST PUSH2 0x2BB PUSH1 0x4 DUP1 CALLDATASIZE SUB DUP2 ADD SWAP1 PUSH2 0x2B6 SWAP2 SWAP1 PUSH2 0x1E49 JUMP JUMPDEST PUSH2 0x9C6 JUMP JUMPDEST STOP JUMPDEST PUSH2 0x2D7 PUSH1 0x4 DUP1 CALLDATASIZE SUB DUP2 ADD SWAP1 PUSH2 0x2D2 SWAP2 SWAP1 PUSH2 0x1D27 JUMP JUMPDEST PUSH2 0x9DC JUMP JUMPDEST STOP JUMPDEST PUSH2 0x2F3 PUSH1 0x4 DUP1 CALLDATASIZE SUB DUP2 ADD SWAP1 PUSH2 0x2EE SWAP2 SWAP1 PUSH2 0x1F13 JUMP JUMPDEST PUSH2 0xA3E JUMP JUMPDEST PUSH1 0x40 MLOAD PUSH2 0x300 SWAP2 SWAP1 PUSH2 0x2317 JUMP JUMPDEST PUSH1 0x40 MLOAD DUP1 SWAP2 SUB SWAP1 RETURN JUMPDEST PUSH2 0x323 PUSH1 0x4 DUP1 CALLDATASIZE SUB DUP2 ADD SWAP1 PUSH2 0x31E SWAP2 SWAP1 PUSH2 0x1C9C JUMP JUMPDEST PUSH2 0xAA6 JUMP JUMPDEST PUSH1 0x40 MLOAD PUSH2 0x330 SWAP2 SWAP1 PUSH2 0x22FC JUMP JUMPDEST PUSH1 0x40 MLOAD DUP1 SWAP2 SUB SWAP1 RETURN JUMPDEST PUSH2 0x353 PUSH1 0x4 DUP1 CALLDATASIZE SUB DUP2 ADD SWAP1 PUSH2 0x34E SWAP2 SWAP1 PUSH2 0x1F13 JUMP JUMPDEST PUSH2 0xB3A JUMP JUMPDEST PUSH1 0x40 MLOAD PUSH2 0x360 SWAP2 SWAP1 PUSH2 0x2499 JUMP JUMPDEST PUSH1 0x40 MLOAD DUP1 SWAP2 SUB SWAP1 RETURN JUMPDEST PUSH1 0x0 PUSH32 0x80AC58CD00000000000000000000000000000000000000000000000000000000 PUSH28 0xFFFFFFFFFFFFFFFFFFFFFFFFFFFFFFFFFFFFFFFFFFFFFFFFFFFFFFFF NOT AND DUP3 PUSH28 0xFFFFFFFFFFFFFFFFFFFFFFFFFFFFFFFFFFFFFFFFFFFFFFFFFFFFFFFF NOT AND EQ DUP1 PUSH2 0x434 JUMPI POP PUSH32 0x5B5E139F00000000000000000000000000000000000000000000000000000000 PUSH28 0xFFFFFFFFFFFFFFFFFFFFFFFFFFFFFFFFFFFFFFFFFFFFFFFFFFFFFFFF NOT AND DUP3 PUSH28 0xFFFFFFFFFFFFFFFFFFFFFFFFFFFFFFFFFFFFFFFFFFFFFFFFFFFFFFFF NOT AND EQ JUMPDEST DUP1 PUSH2 0x444 JUMPI POP PUSH2 0x443 DUP3 PUSH2 0xB5C JUMP JUMPDEST JUMPDEST SWAP1 POP SWAP2 SWAP1 POP JUMP JUMPDEST PUSH1 0x60 PUSH1 0x0 DUP1 SLOAD PUSH2 0x45A SWAP1 PUSH2 0x2765 JUMP JUMPDEST DUP1 PUSH1 0x1F ADD PUSH1 0x20 DUP1 SWAP2 DIV MUL PUSH1 0x20 ADD PUSH1 0x40 MLOAD SWAP1 DUP2 ADD PUSH1 0x40 MSTORE DUP1 SWAP3 SWAP2 SWAP1 DUP2 DUP2 MSTORE PUSH1 0x20 ADD DUP3 DUP1 SLOAD PUSH2 0x486 SWAP1 PUSH2 0x2765 JUMP JUMPDEST DUP1 ISZERO PUSH2 0x4D3 JUMPI DUP1 PUSH1 0x1F LT PUSH2 0x4A8 JUMPI PUSH2 0x100 DUP1 DUP4 SLOAD DIV MUL DUP4 MSTORE SWAP2 PUSH1 0x20 ADD SWAP2 PUSH2 0x4D3 JUMP JUMPDEST DUP3 ADD SWAP2 SWAP1 PUSH1 0x0 MSTORE PUSH1 0x20 PUSH1 0x0 KECCAK256 SWAP1 JUMPDEST DUP2 SLOAD DUP2 MSTORE SWAP1 PUSH1 0x1 ADD SWAP1 PUSH1 0x20 ADD DUP1 DUP4 GT PUSH2 0x4B6 JUMPI DUP3 SWAP1 SUB PUSH1 0x1F AND DUP3 ADD SWAP2 JUMPDEST POP POP POP POP POP SWAP1 POP SWAP1 JUMP JUMPDEST PUSH1 0x0 PUSH2 0x4E8 DUP3 PUSH2 0xBC6 JUMP JUMPDEST PUSH1 0x6 PUSH1 0x0 DUP4 DUP2 MSTORE PUSH1 0x20 ADD SWAP1 DUP2 MSTORE PUSH1 0x20 ADD PUSH1 0x0 KECCAK256 PUSH1 0x0 SWAP1 SLOAD SWAP1 PUSH2 0x100 EXP SWAP1 DIV PUSH20 0xFFFFFFFFFFFFFFFFFFFFFFFFFFFFFFFFFFFFFFFF AND SWAP1 POP SWAP2 SWAP1 POP JUMP JUMPDEST PUSH1 0x0 PUSH2 0x52E DUP3 PUSH2 0x7CA JUMP JUMPDEST SWAP1 POP DUP1 PUSH20 0xFFFFFFFFFFFFFFFFFFFFFFFFFFFFFFFFFFFFFFFF AND DUP4 PUSH20 0xFFFFFFFFFFFFFFFFFFFFFFFFFFFFFFFFFFFFFFFF AND EQ ISZERO PUSH2 0x59F JUMPI PUSH1 0x40 MLOAD PUSH32 0x8C379A000000000000000000000000000000000000000000000000000000000 DUP2 MSTORE PUSH1 0x4 ADD PUSH2 0x596 SWAP1 PUSH2 0x2459 JUMP JUMPDEST PUSH1 0x40 MLOAD DUP1 SWAP2 SUB SWAP1 REVERT JUMPDEST DUP1 PUSH20 0xFFFFFFFFFFFFFFFFFFFFFFFFFFFFFFFFFFFFFFFF AND PUSH2 0x5BE PUSH2 0xC11 JUMP JUMPDEST PUSH20 0xFFFFFFFFFFFFFFFFFFFFFFFFFFFFFFFFFFFFFFFF AND EQ DUP1 PUSH2 0x5ED JUMPI POP PUSH2 0x5EC DUP2 PUSH2 0x5E7 PUSH2 0xC11 JUMP JUMPDEST PUSH2 0xAA6 JUMP JUMPDEST JUMPDEST PUSH2 0x62C JUMPI PUSH1 0x40 MLOAD PUSH32 0x8C379A000000000000000000000000000000000000000000000000000000000 DUP2 MSTORE PUSH1 0x4 ADD PUSH2 0x623 SWAP1 PUSH2 0x2479 JUMP JUMPDEST PUSH1 0x40 MLOAD DUP1 SWAP2 SUB SWAP1 REVERT JUMPDEST PUSH2 0x636 DUP4 DUP4 PUSH2 0xC19 JUMP JUMPDEST POP POP POP JUMP JUMPDEST PUSH2 0x647 DUP6 DUP6 DUP6 DUP6 PUSH2 0xCD2 JUMP JUMPDEST PUSH2 0x651 DUP3 DUP3 PUSH2 0xCF4 JUMP JUMPDEST POP POP POP POP POP JUMP JUMPDEST PUSH2 0x669 PUSH2 0x663 PUSH2 0xC11 JUMP JUMPDEST DUP3 PUSH2 0xD20 JUMP JUMPDEST PUSH2 0x6A8 JUMPI PUSH1 0x40 MLOAD PUSH32 0x8C379A000000000000000000000000000000000000000000000000000000000 DUP2 MSTORE PUSH1 0x4 ADD PUSH2 0x69F SWAP1 PUSH2 0x2339 JUMP JUMPDEST PUSH1 0x40 MLOAD DUP1 SWAP2 SUB SWAP1 REVERT JUMPDEST PUSH2 0x6B3 DUP4 DUP4 DUP4 PUSH2 0xDB5 JUMP JUMPDEST POP POP POP JUMP JUMPDEST PUSH2 0x6D3 DUP4 DUP4 DUP4 PUSH1 0x40 MLOAD DUP1 PUSH1 0x20 ADD PUSH1 0x40 MSTORE DUP1 PUSH1 0x0 DUP2 MSTORE POP PUSH2 0x9DC JUMP JUMPDEST POP POP POP JUMP JUMPDEST PUSH1 0x60 PUSH1 0x0 PUSH1 0x3 PUSH1 0x0 DUP5 DUP2 MSTORE PUSH1 0x20 ADD SWAP1 DUP2 MSTORE PUSH1 0x20 ADD PUSH1 0x0 KECCAK256 DUP1 SLOAD DUP1 PUSH1 0x20 MUL PUSH1 0x20 ADD PUSH1 0x40 MLOAD SWAP1 DUP2 ADD PUSH1 0x40 MSTORE DUP1 SWAP3 SWAP2 SWAP1 DUP2 DUP2 MSTORE PUSH1 0x20 ADD PUSH1 0x0 SWAP1 JUMPDEST DUP3 DUP3 LT ISZERO PUSH2 0x7BB JUMPI DUP4 DUP3 SWAP1 PUSH1 0x0 MSTORE PUSH1 0x20 PUSH1 0x0 KECCAK256 ADD DUP1 SLOAD PUSH2 0x72E SWAP1 PUSH2 0x2765 JUMP JUMPDEST DUP1 PUSH1 0x1F ADD PUSH1 0x20 DUP1 SWAP2 DIV MUL PUSH1 0x20 ADD PUSH1 0x40 MLOAD SWAP1 DUP2 ADD PUSH1 0x40 MSTORE DUP1 SWAP3 SWAP2 SWAP1 DUP2 DUP2 MSTORE PUSH1 0x20 ADD DUP3 DUP1 SLOAD PUSH2 0x75A SWAP1 PUSH2 0x2765 JUMP JUMPDEST DUP1 ISZERO PUSH2 0x7A7 JUMPI DUP1 PUSH1 0x1F LT PUSH2 0x77C JUMPI PUSH2 0x100 DUP1 DUP4 SLOAD DIV MUL DUP4 MSTORE SWAP2 PUSH1 0x20 ADD SWAP2 PUSH2 0x7A7 JUMP JUMPDEST DUP3 ADD SWAP2 SWAP1 PUSH1 0x0 MSTORE PUSH1 0x20 PUSH1 0x0 KECCAK256 SWAP1 JUMPDEST DUP2 SLOAD DUP2 MSTORE SWAP1 PUSH1 0x1 ADD SWAP1 PUSH1 0x20 ADD DUP1 DUP4 GT PUSH2 0x78A JUMPI DUP3 SWAP1 SUB PUSH1 0x1F AND DUP3 ADD SWAP2 JUMPDEST POP POP POP POP POP DUP2 MSTORE PUSH1 0x20 ADD SWAP1 PUSH1 0x1 ADD SWAP1 PUSH2 0x70F JUMP JUMPDEST POP POP POP POP SWAP1 POP DUP1 SWAP2 POP POP SWAP2 SWAP1 POP JUMP JUMPDEST PUSH1 0x0 DUP1 PUSH1 0x2 PUSH1 0x0 DUP5 DUP2 MSTORE PUSH1 0x20 ADD SWAP1 DUP2 MSTORE PUSH1 0x20 ADD PUSH1 0x0 KECCAK256 PUSH1 0x0 SWAP1 SLOAD SWAP1 PUSH2 0x100 EXP SWAP1 DIV PUSH20 0xFFFFFFFFFFFFFFFFFFFFFFFFFFFFFFFFFFFFFFFF AND SWAP1 POP PUSH1 0x0 PUSH20 0xFFFFFFFFFFFFFFFFFFFFFFFFFFFFFFFFFFFFFFFF AND DUP2 PUSH20 0xFFFFFFFFFFFFFFFFFFFFFFFFFFFFFFFFFFFFFFFF AND EQ ISZERO PUSH2 0x873 JUMPI PUSH1 0x40 MLOAD PUSH32 0x8C379A000000000000000000000000000000000000000000000000000000000 DUP2 MSTORE PUSH1 0x4 ADD PUSH2 0x86A SWAP1 PUSH2 0x2439 JUMP JUMPDEST PUSH1 0x40 MLOAD DUP1 SWAP2 SUB SWAP1 REVERT JUMPDEST DUP1 SWAP2 POP POP SWAP2 SWAP1 POP JUMP JUMPDEST PUSH1 0x0 DUP1 PUSH20 0xFFFFFFFFFFFFFFFFFFFFFFFFFFFFFFFFFFFFFFFF AND DUP3 PUSH20 0xFFFFFFFFFFFFFFFFFFFFFFFFFFFFFFFFFFFFFFFF AND EQ ISZERO PUSH2 0x8ED JUMPI PUSH1 0x40 MLOAD PUSH32 0x8C379A000000000000000000000000000000000000000000000000000000000 DUP2 MSTORE PUSH1 0x4 ADD PUSH2 0x8E4 SWAP1 PUSH2 0x23F9 JUMP JUMPDEST PUSH1 0x40 MLOAD DUP1 SWAP2 SUB SWAP1 REVERT JUMPDEST PUSH1 0x5 PUSH1 0x0 DUP4 PUSH20 0xFFFFFFFFFFFFFFFFFFFFFFFFFFFFFFFFFFFFFFFF AND PUSH20 0xFFFFFFFFFFFFFFFFFFFFFFFFFFFFFFFFFFFFFFFF AND DUP2 MSTORE PUSH1 0x20 ADD SWAP1 DUP2 MSTORE PUSH1 0x20 ADD PUSH1 0x0 KECCAK256 SLOAD SWAP1 POP SWAP2 SWAP1 POP JUMP JUMPDEST PUSH1 0x60 PUSH1 0x1 DUP1 SLOAD PUSH2 0x943 SWAP1 PUSH2 0x2765 JUMP JUMPDEST DUP1 PUSH1 0x1F ADD PUSH1 0x20 DUP1 SWAP2 DIV MUL PUSH1 0x20 ADD PUSH1 0x40 MLOAD SWAP1 DUP2 ADD PUSH1 0x40 MSTORE DUP1 SWAP3 SWAP2 SWAP1 DUP2 DUP2 MSTORE PUSH1 0x20 ADD DUP3 DUP1 SLOAD PUSH2 0x96F SWAP1 PUSH2 0x2765 JUMP JUMPDEST DUP1 ISZERO PUSH2 0x9BC JUMPI DUP1 PUSH1 0x1F LT PUSH2 0x991 JUMPI PUSH2 0x100 DUP1 DUP4 SLOAD DIV MUL DUP4 MSTORE SWAP2 PUSH1 0x20 ADD SWAP2 PUSH2 0x9BC JUMP JUMPDEST DUP3 ADD SWAP2 SWAP1 PUSH1 0x0 MSTORE PUSH1 0x20 PUSH1 0x0 KECCAK256 SWAP1 JUMPDEST DUP2 SLOAD DUP2 MSTORE SWAP1 PUSH1 0x1 ADD SWAP1 PUSH1 0x20 ADD DUP1 DUP4 GT PUSH2 0x99F JUMPI DUP3 SWAP1 SUB PUSH1 0x1F AND DUP3 ADD SWAP2 JUMPDEST POP POP POP POP POP SWAP1 POP SWAP1 JUMP JUMPDEST PUSH2 0x9D8 PUSH2 0x9D1 PUSH2 0xC11 JUMP JUMPDEST DUP4 DUP4 PUSH2 0x10AB JUMP JUMPDEST POP POP JUMP JUMPDEST PUSH2 0x9ED PUSH2 0x9E7 PUSH2 0xC11 JUMP JUMPDEST DUP4 PUSH2 0xD20 JUMP JUMPDEST PUSH2 0xA2C JUMPI PUSH1 0x40 MLOAD PUSH32 0x8C379A000000000000000000000000000000000000000000000000000000000 DUP2 MSTORE PUSH1 0x4 ADD PUSH2 0xA23 SWAP1 PUSH2 0x2339 JUMP JUMPDEST PUSH1 0x40 MLOAD DUP1 SWAP2 SUB SWAP1 REVERT JUMPDEST PUSH2 0xA38 DUP5 DUP5 DUP5 DUP5 PUSH2 0x1218 JUMP JUMPDEST POP POP POP POP JUMP JUMPDEST PUSH1 0x60 PUSH2 0xA49 DUP3 PUSH2 0xBC6 JUMP JUMPDEST PUSH1 0x0 PUSH2 0xA53 PUSH2 0x1274 JUMP JUMPDEST SWAP1 POP PUSH1 0x0 DUP2 MLOAD GT PUSH2 0xA73 JUMPI PUSH1 0x40 MLOAD DUP1 PUSH1 0x20 ADD PUSH1 0x40 MSTORE DUP1 PUSH1 0x0 DUP2 MSTORE POP PUSH2 0xA9E JUMP JUMPDEST DUP1 PUSH2 0xA7D DUP5 PUSH2 0x128B JUMP JUMPDEST PUSH1 0x40 MLOAD PUSH1 0x20 ADD PUSH2 0xA8E SWAP3 SWAP2 SWAP1 PUSH2 0x224F JUMP JUMPDEST PUSH1 0x40 MLOAD PUSH1 0x20 DUP2 DUP4 SUB SUB DUP2 MSTORE SWAP1 PUSH1 0x40 MSTORE JUMPDEST SWAP2 POP POP SWAP2 SWAP1 POP JUMP JUMPDEST PUSH1 0x0 PUSH1 0x7 PUSH1 0x0 DUP5 PUSH20 0xFFFFFFFFFFFFFFFFFFFFFFFFFFFFFFFFFFFFFFFF AND PUSH20 0xFFFFFFFFFFFFFFFFFFFFFFFFFFFFFFFFFFFFFFFF AND DUP2 MSTORE PUSH1 0x20 ADD SWAP1 DUP2 MSTORE PUSH1 0x20 ADD PUSH1 0x0 KECCAK256 PUSH1 0x0 DUP4 PUSH20 0xFFFFFFFFFFFFFFFFFFFFFFFFFFFFFFFFFFFFFFFF AND PUSH20 0xFFFFFFFFFFFFFFFFFFFFFFFFFFFFFFFFFFFFFFFF AND DUP2 MSTORE PUSH1 0x20 ADD SWAP1 DUP2 MSTORE PUSH1 0x20 ADD PUSH1 0x0 KECCAK256 PUSH1 0x0 SWAP1 SLOAD SWAP1 PUSH2 0x100 EXP SWAP1 DIV PUSH1 0xFF AND SWAP1 POP SWAP3 SWAP2 POP POP JUMP JUMPDEST PUSH1 0x0 DUP1 PUSH1 0x4 PUSH1 0x0 DUP5 DUP2 MSTORE PUSH1 0x20 ADD SWAP1 DUP2 MSTORE PUSH1 0x20 ADD PUSH1 0x0 KECCAK256 SLOAD SWAP1 POP DUP1 SWAP2 POP POP SWAP2 SWAP1 POP JUMP JUMPDEST PUSH1 0x0 PUSH32 0x1FFC9A700000000000000000000000000000000000000000000000000000000 PUSH28 0xFFFFFFFFFFFFFFFFFFFFFFFFFFFFFFFFFFFFFFFFFFFFFFFFFFFFFFFF NOT AND DUP3 PUSH28 0xFFFFFFFFFFFFFFFFFFFFFFFFFFFFFFFFFFFFFFFFFFFFFFFFFFFFFFFF NOT AND EQ SWAP1 POP SWAP2 SWAP1 POP JUMP JUMPDEST PUSH2 0xBCF DUP2 PUSH2 0x1438 JUMP JUMPDEST PUSH2 0xC0E JUMPI PUSH1 0x40 MLOAD PUSH32 0x8C379A000000000000000000000000000000000000000000000000000000000 DUP2 MSTORE PUSH1 0x4 ADD PUSH2 0xC05 SWAP1 PUSH2 0x2439 JUMP JUMPDEST PUSH1 0x40 MLOAD DUP1 SWAP2 SUB SWAP1 REVERT JUMPDEST POP JUMP JUMPDEST PUSH1 0x0 CALLER SWAP1 POP SWAP1 JUMP JUMPDEST DUP2 PUSH1 0x6 PUSH1 0x0 DUP4 DUP2 MSTORE PUSH1 0x20 ADD SWAP1 DUP2 MSTORE PUSH1 0x20 ADD PUSH1 0x0 KECCAK256 PUSH1 0x0 PUSH2 0x100 EXP DUP2 SLOAD DUP2 PUSH20 0xFFFFFFFFFFFFFFFFFFFFFFFFFFFFFFFFFFFFFFFF MUL NOT AND SWAP1 DUP4 PUSH20 0xFFFFFFFFFFFFFFFFFFFFFFFFFFFFFFFFFFFFFFFF AND MUL OR SWAP1 SSTORE POP DUP1 DUP3 PUSH20 0xFFFFFFFFFFFFFFFFFFFFFFFFFFFFFFFFFFFFFFFF AND PUSH2 0xC8C DUP4 PUSH2 0x7CA JUMP JUMPDEST PUSH20 0xFFFFFFFFFFFFFFFFFFFFFFFFFFFFFFFFFFFFFFFF AND PUSH32 0x8C5BE1E5EBEC7D5BD14F71427D1E84F3DD0314C0F7B2291E5B200AC8C7C3B925 PUSH1 0x40 MLOAD PUSH1 0x40 MLOAD DUP1 SWAP2 SUB SWAP1 LOG4 POP POP JUMP JUMPDEST PUSH2 0xCEE DUP5 DUP5 DUP5 DUP5 PUSH1 0x40 MLOAD DUP1 PUSH1 0x20 ADD PUSH1 0x40 MSTORE DUP1 PUSH1 0x0 DUP2 MSTORE POP PUSH2 0x14A4 JUMP JUMPDEST POP POP POP POP JUMP JUMPDEST DUP1 PUSH1 0x8 PUSH1 0x0 DUP5 DUP2 MSTORE PUSH1 0x20 ADD SWAP1 DUP2 MSTORE PUSH1 0x20 ADD PUSH1 0x0 KECCAK256 SWAP1 DUP1 MLOAD SWAP1 PUSH1 0x20 ADD SWAP1 PUSH2 0xD1B SWAP3 SWAP2 SWAP1 PUSH2 0x1923 JUMP JUMPDEST POP POP POP JUMP JUMPDEST PUSH1 0x0 DUP1 PUSH2 0xD2C DUP4 PUSH2 0x7CA JUMP JUMPDEST SWAP1 POP DUP1 PUSH20 0xFFFFFFFFFFFFFFFFFFFFFFFFFFFFFFFFFFFFFFFF AND DUP5 PUSH20 0xFFFFFFFFFFFFFFFFFFFFFFFFFFFFFFFFFFFFFFFF AND EQ DUP1 PUSH2 0xD6E JUMPI POP PUSH2 0xD6D DUP2 DUP6 PUSH2 0xAA6 JUMP JUMPDEST JUMPDEST DUP1 PUSH2 0xDAC JUMPI POP DUP4 PUSH20 0xFFFFFFFFFFFFFFFFFFFFFFFFFFFFFFFFFFFFFFFF AND PUSH2 0xD94 DUP5 PUSH2 0x4DD JUMP JUMPDEST PUSH20 0xFFFFFFFFFFFFFFFFFFFFFFFFFFFFFFFFFFFFFFFF AND EQ JUMPDEST SWAP2 POP POP SWAP3 SWAP2 POP POP JUMP JUMPDEST DUP3 PUSH20 0xFFFFFFFFFFFFFFFFFFFFFFFFFFFFFFFFFFFFFFFF AND PUSH2 0xDD5 DUP3 PUSH2 0x7CA JUMP JUMPDEST PUSH20 0xFFFFFFFFFFFFFFFFFFFFFFFFFFFFFFFFFFFFFFFF AND EQ PUSH2 0xE2B JUMPI PUSH1 0x40 MLOAD PUSH32 0x8C379A000000000000000000000000000000000000000000000000000000000 DUP2 MSTORE PUSH1 0x4 ADD PUSH2 0xE22 SWAP1 PUSH2 0x2379 JUMP JUMPDEST PUSH1 0x40 MLOAD DUP1 SWAP2 SUB SWAP1 REVERT JUMPDEST PUSH1 0x0 PUSH20 0xFFFFFFFFFFFFFFFFFFFFFFFFFFFFFFFFFFFFFFFF AND DUP3 PUSH20 0xFFFFFFFFFFFFFFFFFFFFFFFFFFFFFFFFFFFFFFFF AND EQ ISZERO PUSH2 0xE9B JUMPI PUSH1 0x40 MLOAD PUSH32 0x8C379A000000000000000000000000000000000000000000000000000000000 DUP2 MSTORE PUSH1 0x4 ADD PUSH2 0xE92 SWAP1 PUSH2 0x23B9 JUMP JUMPDEST PUSH1 0x40 MLOAD DUP1 SWAP2 SUB SWAP1 REVERT JUMPDEST PUSH2 0xEA6 DUP4 DUP4 DUP4 PUSH2 0x1503 JUMP JUMPDEST DUP3 PUSH20 0xFFFFFFFFFFFFFFFFFFFFFFFFFFFFFFFFFFFFFFFF AND PUSH2 0xEC6 DUP3 PUSH2 0x7CA JUMP JUMPDEST PUSH20 0xFFFFFFFFFFFFFFFFFFFFFFFFFFFFFFFFFFFFFFFF AND EQ PUSH2 0xF1C JUMPI PUSH1 0x40 MLOAD PUSH32 0x8C379A000000000000000000000000000000000000000000000000000000000 DUP2 MSTORE PUSH1 0x4 ADD PUSH2 0xF13 SWAP1 PUSH2 0x2379 JUMP JUMPDEST PUSH1 0x40 MLOAD DUP1 SWAP2 SUB SWAP1 REVERT JUMPDEST PUSH1 0x6 PUSH1 0x0 DUP3 DUP2 MSTORE PUSH1 0x20 ADD SWAP1 DUP2 MSTORE PUSH1 0x20 ADD PUSH1 0x0 KECCAK256 PUSH1 0x0 PUSH2 0x100 EXP DUP2 SLOAD SWAP1 PUSH20 0xFFFFFFFFFFFFFFFFFFFFFFFFFFFFFFFFFFFFFFFF MUL NOT AND SWAP1 SSTORE PUSH1 0x1 PUSH1 0x5 PUSH1 0x0 DUP6 PUSH20 0xFFFFFFFFFFFFFFFFFFFFFFFFFFFFFFFFFFFFFFFF AND PUSH20 0xFFFFFFFFFFFFFFFFFFFFFFFFFFFFFFFFFFFFFFFF AND DUP2 MSTORE PUSH1 0x20 ADD SWAP1 DUP2 MSTORE PUSH1 0x20 ADD PUSH1 0x0 KECCAK256 PUSH1 0x0 DUP3 DUP3 SLOAD SUB SWAP3 POP POP DUP2 SWAP1 SSTORE POP PUSH1 0x1 PUSH1 0x5 PUSH1 0x0 DUP5 PUSH20 0xFFFFFFFFFFFFFFFFFFFFFFFFFFFFFFFFFFFFFFFF AND PUSH20 0xFFFFFFFFFFFFFFFFFFFFFFFFFFFFFFFFFFFFFFFF AND DUP2 MSTORE PUSH1 0x20 ADD SWAP1 DUP2 MSTORE PUSH1 0x20 ADD PUSH1 0x0 KECCAK256 PUSH1 0x0 DUP3 DUP3 SLOAD ADD SWAP3 POP POP DUP2 SWAP1 SSTORE POP DUP2 PUSH1 0x2 PUSH1 0x0 DUP4 DUP2 MSTORE PUSH1 0x20 ADD SWAP1 DUP2 MSTORE PUSH1 0x20 ADD PUSH1 0x0 KECCAK256 PUSH1 0x0 PUSH2 0x100 EXP DUP2 SLOAD DUP2 PUSH20 0xFFFFFFFFFFFFFFFFFFFFFFFFFFFFFFFFFFFFFFFF MUL NOT AND SWAP1 DUP4 PUSH20 0xFFFFFFFFFFFFFFFFFFFFFFFFFFFFFFFFFFFFFFFF AND MUL OR SWAP1 SSTORE POP DUP1 DUP3 PUSH20 0xFFFFFFFFFFFFFFFFFFFFFFFFFFFFFFFFFFFFFFFF AND DUP5 PUSH20 0xFFFFFFFFFFFFFFFFFFFFFFFFFFFFFFFFFFFFFFFF AND PUSH32 0xDDF252AD1BE2C89B69C2B068FC378DAA952BA7F163C4A11628F55A4DF523B3EF PUSH1 0x40 MLOAD PUSH1 0x40 MLOAD DUP1 SWAP2 SUB SWAP1 LOG4 PUSH2 0x10A6 DUP4 DUP4 DUP4 PUSH2 0x1508 JUMP JUMPDEST POP POP POP JUMP JUMPDEST DUP2 PUSH20 0xFFFFFFFFFFFFFFFFFFFFFFFFFFFFFFFFFFFFFFFF AND DUP4 PUSH20 0xFFFFFFFFFFFFFFFFFFFFFFFFFFFFFFFFFFFFFFFF AND EQ ISZERO PUSH2 0x111A JUMPI PUSH1 0x40 MLOAD PUSH32 0x8C379A000000000000000000000000000000000000000000000000000000000 DUP2 MSTORE PUSH1 0x4 ADD PUSH2 0x1111 SWAP1 PUSH2 0x23D9 JUMP JUMPDEST PUSH1 0x40 MLOAD DUP1 SWAP2 SUB SWAP1 REVERT JUMPDEST DUP1 PUSH1 0x7 PUSH1 0x0 DUP6 PUSH20 0xFFFFFFFFFFFFFFFFFFFFFFFFFFFFFFFFFFFFFFFF AND PUSH20 0xFFFFFFFFFFFFFFFFFFFFFFFFFFFFFFFFFFFFFFFF AND DUP2 MSTORE PUSH1 0x20 ADD SWAP1 DUP2 MSTORE PUSH1 0x20 ADD PUSH1 0x0 KECCAK256 PUSH1 0x0 DUP5 PUSH20 0xFFFFFFFFFFFFFFFFFFFFFFFFFFFFFFFFFFFFFFFF AND PUSH20 0xFFFFFFFFFFFFFFFFFFFFFFFFFFFFFFFFFFFFFFFF AND DUP2 MSTORE PUSH1 0x20 ADD SWAP1 DUP2 MSTORE PUSH1 0x20 ADD PUSH1 0x0 KECCAK256 PUSH1 0x0 PUSH2 0x100 EXP DUP2 SLOAD DUP2 PUSH1 0xFF MUL NOT AND SWAP1 DUP4 ISZERO ISZERO MUL OR SWAP1 SSTORE POP DUP2 PUSH20 0xFFFFFFFFFFFFFFFFFFFFFFFFFFFFFFFFFFFFFFFF AND DUP4 PUSH20 0xFFFFFFFFFFFFFFFFFFFFFFFFFFFFFFFFFFFFFFFF AND PUSH32 0x17307EAB39AB6107E8899845AD3D59BD9653F200F220920489CA2B5937696C31 DUP4 PUSH1 0x40 MLOAD PUSH2 0x120B SWAP2 SWAP1 PUSH2 0x22FC JUMP JUMPDEST PUSH1 0x40 MLOAD DUP1 SWAP2 SUB SWAP1 LOG3 POP POP POP JUMP JUMPDEST PUSH2 0x1223 DUP5 DUP5 DUP5 PUSH2 0xDB5 JUMP JUMPDEST PUSH2 0x122F DUP5 DUP5 DUP5 DUP5 PUSH2 0x150D JUMP JUMPDEST PUSH2 0x126E JUMPI PUSH1 0x40 MLOAD PUSH32 0x8C379A000000000000000000000000000000000000000000000000000000000 DUP2 MSTORE PUSH1 0x4 ADD PUSH2 0x1265 SWAP1 PUSH2 0x2359 JUMP JUMPDEST PUSH1 0x40 MLOAD DUP1 SWAP2 SUB SWAP1 REVERT JUMPDEST POP POP POP POP JUMP JUMPDEST PUSH1 0x60 PUSH1 0x40 MLOAD DUP1 PUSH1 0x20 ADD PUSH1 0x40 MSTORE DUP1 PUSH1 0x0 DUP2 MSTORE POP SWAP1 POP SWAP1 JUMP JUMPDEST PUSH1 0x60 PUSH1 0x0 DUP3 EQ ISZERO PUSH2 0x12D3 JUMPI PUSH1 0x40 MLOAD DUP1 PUSH1 0x40 ADD PUSH1 0x40 MSTORE DUP1 PUSH1 0x1 DUP2 MSTORE PUSH1 0x20 ADD PUSH32 0x3000000000000000000000000000000000000000000000000000000000000000 DUP2 MSTORE POP SWAP1 POP PUSH2 0x1433 JUMP JUMPDEST PUSH1 0x0 DUP3 SWAP1 POP PUSH1 0x0 JUMPDEST PUSH1 0x0 DUP3 EQ PUSH2 0x1305 JUMPI DUP1 DUP1 PUSH2 0x12EE SWAP1 PUSH2 0x27C8 JUMP JUMPDEST SWAP2 POP POP PUSH1 0xA DUP3 PUSH2 0x12FE SWAP2 SWAP1 PUSH2 0x264A JUMP JUMPDEST SWAP2 POP PUSH2 0x12DB JUMP JUMPDEST PUSH1 0x0 DUP2 PUSH8 0xFFFFFFFFFFFFFFFF DUP2 GT ISZERO PUSH2 0x1347 JUMPI PUSH32 0x4E487B7100000000000000000000000000000000000000000000000000000000 PUSH1 0x0 MSTORE PUSH1 0x41 PUSH1 0x4 MSTORE PUSH1 0x24 PUSH1 0x0 REVERT JUMPDEST PUSH1 0x40 MLOAD SWAP1 DUP1 DUP3 MSTORE DUP1 PUSH1 0x1F ADD PUSH1 0x1F NOT AND PUSH1 0x20 ADD DUP3 ADD PUSH1 0x40 MSTORE DUP1 ISZERO PUSH2 0x1379 JUMPI DUP2 PUSH1 0x20 ADD PUSH1 0x1 DUP3 MUL DUP1 CALLDATASIZE DUP4 CALLDATACOPY DUP1 DUP3 ADD SWAP2 POP POP SWAP1 POP JUMPDEST POP SWAP1 POP JUMPDEST PUSH1 0x0 DUP6 EQ PUSH2 0x142C JUMPI PUSH1 0x1 DUP3 PUSH2 0x1392 SWAP2 SWAP1 PUSH2 0x267B JUMP JUMPDEST SWAP2 POP PUSH1 0xA DUP6 PUSH2 0x13A1 SWAP2 SWAP1 PUSH2 0x2811 JUMP JUMPDEST PUSH1 0x30 PUSH2 0x13AD SWAP2 SWAP1 PUSH2 0x25F4 JUMP JUMPDEST PUSH1 0xF8 SHL DUP2 DUP4 DUP2 MLOAD DUP2 LT PUSH2 0x13E9 JUMPI PUSH32 0x4E487B7100000000000000000000000000000000000000000000000000000000 PUSH1 0x0 MSTORE PUSH1 0x32 PUSH1 0x4 MSTORE PUSH1 0x24 PUSH1 0x0 REVERT JUMPDEST PUSH1 0x20 ADD ADD SWAP1 PUSH31 0xFFFFFFFFFFFFFFFFFFFFFFFFFFFFFFFFFFFFFFFFFFFFFFFFFFFFFFFFFFFFFF NOT AND SWAP1 DUP2 PUSH1 0x0 BYTE SWAP1 MSTORE8 POP PUSH1 0xA DUP6 PUSH2 0x1425 SWAP2 SWAP1 PUSH2 0x264A JUMP JUMPDEST SWAP5 POP PUSH2 0x137D JUMP JUMPDEST DUP1 SWAP4 POP POP POP POP JUMPDEST SWAP2 SWAP1 POP JUMP JUMPDEST PUSH1 0x0 DUP1 PUSH20 0xFFFFFFFFFFFFFFFFFFFFFFFFFFFFFFFFFFFFFFFF AND PUSH1 0x2 PUSH1 0x0 DUP5 DUP2 MSTORE PUSH1 0x20 ADD SWAP1 DUP2 MSTORE PUSH1 0x20 ADD PUSH1 0x0 KECCAK256 PUSH1 0x0 SWAP1 SLOAD SWAP1 PUSH2 0x100 EXP SWAP1 DIV PUSH20 0xFFFFFFFFFFFFFFFFFFFFFFFFFFFFFFFFFFFFFFFF AND PUSH20 0xFFFFFFFFFFFFFFFFFFFFFFFFFFFFFFFFFFFFFFFF AND EQ ISZERO SWAP1 POP SWAP2 SWAP1 POP JUMP JUMPDEST PUSH2 0x14B0 DUP6 DUP6 DUP6 DUP6 PUSH2 0x16A4 JUMP JUMPDEST PUSH2 0x14BD PUSH1 0x0 DUP7 DUP5 DUP5 PUSH2 0x150D JUMP JUMPDEST PUSH2 0x14FC JUMPI PUSH1 0x40 MLOAD PUSH32 0x8C379A000000000000000000000000000000000000000000000000000000000 DUP2 MSTORE PUSH1 0x4 ADD PUSH2 0x14F3 SWAP1 PUSH2 0x2359 JUMP JUMPDEST PUSH1 0x40 MLOAD DUP1 SWAP2 SUB SWAP1 REVERT JUMPDEST POP POP POP POP POP JUMP JUMPDEST POP POP POP JUMP JUMPDEST POP POP POP JUMP JUMPDEST PUSH1 0x0 PUSH2 0x152E DUP5 PUSH20 0xFFFFFFFFFFFFFFFFFFFFFFFFFFFFFFFFFFFFFFFF AND PUSH2 0x1900 JUMP JUMPDEST ISZERO PUSH2 0x1697 JUMPI DUP4 PUSH20 0xFFFFFFFFFFFFFFFFFFFFFFFFFFFFFFFFFFFFFFFF AND PUSH4 0x150B7A02 PUSH2 0x1557 PUSH2 0xC11 JUMP JUMPDEST DUP8 DUP7 DUP7 PUSH1 0x40 MLOAD DUP6 PUSH4 0xFFFFFFFF AND PUSH1 0xE0 SHL DUP2 MSTORE PUSH1 0x4 ADD PUSH2 0x1579 SWAP5 SWAP4 SWAP3 SWAP2 SWAP1 PUSH2 0x228E JUMP JUMPDEST PUSH1 0x20 PUSH1 0x40 MLOAD DUP1 DUP4 SUB DUP2 PUSH1 0x0 DUP8 DUP1 EXTCODESIZE ISZERO DUP1 ISZERO PUSH2 0x1593 JUMPI PUSH1 0x0 DUP1 REVERT JUMPDEST POP GAS CALL SWAP3 POP POP POP DUP1 ISZERO PUSH2 0x15C4 JUMPI POP PUSH1 0x40 MLOAD RETURNDATASIZE PUSH1 0x1F NOT PUSH1 0x1F DUP3 ADD AND DUP3 ADD DUP1 PUSH1 0x40 MSTORE POP DUP2 ADD SWAP1 PUSH2 0x15C1 SWAP2 SWAP1 PUSH2 0x1EEA JUMP JUMPDEST PUSH1 0x1 JUMPDEST PUSH2 0x1647 JUMPI RETURNDATASIZE DUP1 PUSH1 0x0 DUP2 EQ PUSH2 0x15F4 JUMPI PUSH1 0x40 MLOAD SWAP2 POP PUSH1 0x1F NOT PUSH1 0x3F RETURNDATASIZE ADD AND DUP3 ADD PUSH1 0x40 MSTORE RETURNDATASIZE DUP3 MSTORE RETURNDATASIZE PUSH1 0x0 PUSH1 0x20 DUP5 ADD RETURNDATACOPY PUSH2 0x15F9 JUMP JUMPDEST PUSH1 0x60 SWAP2 POP JUMPDEST POP PUSH1 0x0 DUP2 MLOAD EQ ISZERO PUSH2 0x163F JUMPI PUSH1 0x40 MLOAD PUSH32 0x8C379A000000000000000000000000000000000000000000000000000000000 DUP2 MSTORE PUSH1 0x4 ADD PUSH2 0x1636 SWAP1 PUSH2 0x2359 JUMP JUMPDEST PUSH1 0x40 MLOAD DUP1 SWAP2 SUB SWAP1 REVERT JUMPDEST DUP1 MLOAD DUP2 PUSH1 0x20 ADD REVERT JUMPDEST PUSH4 0x150B7A02 PUSH1 0xE0 SHL PUSH28 0xFFFFFFFFFFFFFFFFFFFFFFFFFFFFFFFFFFFFFFFFFFFFFFFFFFFFFFFF NOT AND DUP2 PUSH28 0xFFFFFFFFFFFFFFFFFFFFFFFFFFFFFFFFFFFFFFFFFFFFFFFFFFFFFFFF NOT AND EQ SWAP2 POP POP PUSH2 0x169C JUMP JUMPDEST PUSH1 0x1 SWAP1 POP JUMPDEST SWAP5 SWAP4 POP POP POP POP JUMP JUMPDEST PUSH1 0x0 PUSH20 0xFFFFFFFFFFFFFFFFFFFFFFFFFFFFFFFFFFFFFFFF AND DUP5 PUSH20 0xFFFFFFFFFFFFFFFFFFFFFFFFFFFFFFFFFFFFFFFF AND EQ ISZERO PUSH2 0x1714 JUMPI PUSH1 0x40 MLOAD PUSH32 0x8C379A000000000000000000000000000000000000000000000000000000000 DUP2 MSTORE PUSH1 0x4 ADD PUSH2 0x170B SWAP1 PUSH2 0x2419 JUMP JUMPDEST PUSH1 0x40 MLOAD DUP1 SWAP2 SUB SWAP1 REVERT JUMPDEST PUSH2 0x171D DUP2 PUSH2 0x1438 JUMP JUMPDEST ISZERO PUSH2 0x175D JUMPI PUSH1 0x40 MLOAD PUSH32 0x8C379A000000000000000000000000000000000000000000000000000000000 DUP2 MSTORE PUSH1 0x4 ADD PUSH2 0x1754 SWAP1 PUSH2 0x2399 JUMP JUMPDEST PUSH1 0x40 MLOAD DUP1 SWAP2 SUB SWAP1 REVERT JUMPDEST PUSH2 0x1769 PUSH1 0x0 DUP6 DUP4 PUSH2 0x1503 JUMP JUMPDEST PUSH2 0x1772 DUP2 PUSH2 0x1438 JUMP JUMPDEST ISZERO PUSH2 0x17B2 JUMPI PUSH1 0x40 MLOAD PUSH32 0x8C379A000000000000000000000000000000000000000000000000000000000 DUP2 MSTORE PUSH1 0x4 ADD PUSH2 0x17A9 SWAP1 PUSH2 0x2399 JUMP JUMPDEST PUSH1 0x40 MLOAD DUP1 SWAP2 SUB SWAP1 REVERT JUMPDEST PUSH1 0x1 PUSH1 0x5 PUSH1 0x0 DUP7 PUSH20 0xFFFFFFFFFFFFFFFFFFFFFFFFFFFFFFFFFFFFFFFF AND PUSH20 0xFFFFFFFFFFFFFFFFFFFFFFFFFFFFFFFFFFFFFFFF AND DUP2 MSTORE PUSH1 0x20 ADD SWAP1 DUP2 MSTORE PUSH1 0x20 ADD PUSH1 0x0 KECCAK256 PUSH1 0x0 DUP3 DUP3 SLOAD ADD SWAP3 POP POP DUP2 SWAP1 SSTORE POP DUP4 PUSH1 0x2 PUSH1 0x0 DUP4 DUP2 MSTORE PUSH1 0x20 ADD SWAP1 DUP2 MSTORE PUSH1 0x20 ADD PUSH1 0x0 KECCAK256 PUSH1 0x0 PUSH2 0x100 EXP DUP2 SLOAD DUP2 PUSH20 0xFFFFFFFFFFFFFFFFFFFFFFFFFFFFFFFFFFFFFFFF MUL NOT AND SWAP1 DUP4 PUSH20 0xFFFFFFFFFFFFFFFFFFFFFFFFFFFFFFFFFFFFFFFF AND MUL OR SWAP1 SSTORE POP DUP3 PUSH1 0x3 PUSH1 0x0 DUP4 DUP2 MSTORE PUSH1 0x20 ADD SWAP1 DUP2 MSTORE PUSH1 0x20 ADD PUSH1 0x0 KECCAK256 SWAP1 DUP1 MLOAD SWAP1 PUSH1 0x20 ADD SWAP1 PUSH2 0x1879 SWAP3 SWAP2 SWAP1 PUSH2 0x19A9 JUMP JUMPDEST POP DUP2 PUSH1 0x4 PUSH1 0x0 DUP4 DUP2 MSTORE PUSH1 0x20 ADD SWAP1 DUP2 MSTORE PUSH1 0x20 ADD PUSH1 0x0 KECCAK256 DUP2 SWAP1 SSTORE POP DUP1 DUP5 PUSH20 0xFFFFFFFFFFFFFFFFFFFFFFFFFFFFFFFFFFFFFFFF AND PUSH1 0x0 PUSH20 0xFFFFFFFFFFFFFFFFFFFFFFFFFFFFFFFFFFFFFFFF AND PUSH32 0xDDF252AD1BE2C89B69C2B068FC378DAA952BA7F163C4A11628F55A4DF523B3EF PUSH1 0x40 MLOAD PUSH1 0x40 MLOAD DUP1 SWAP2 SUB SWAP1 LOG4 PUSH2 0x18FA PUSH1 0x0 DUP6 DUP4 PUSH2 0x1508 JUMP JUMPDEST POP POP POP POP JUMP JUMPDEST PUSH1 0x0 DUP1 DUP3 PUSH20 0xFFFFFFFFFFFFFFFFFFFFFFFFFFFFFFFFFFFFFFFF AND EXTCODESIZE GT SWAP1 POP SWAP2 SWAP1 POP JUMP JUMPDEST DUP3 DUP1 SLOAD PUSH2 0x192F SWAP1 PUSH2 0x2765 JUMP JUMPDEST SWAP1 PUSH1 0x0 MSTORE PUSH1 0x20 PUSH1 0x0 KECCAK256 SWAP1 PUSH1 0x1F ADD PUSH1 0x20 SWAP1 DIV DUP2 ADD SWAP3 DUP3 PUSH2 0x1951 JUMPI PUSH1 0x0 DUP6 SSTORE PUSH2 0x1998 JUMP JUMPDEST DUP3 PUSH1 0x1F LT PUSH2 0x196A JUMPI DUP1 MLOAD PUSH1 0xFF NOT AND DUP4 DUP1 ADD OR DUP6 SSTORE PUSH2 0x1998 JUMP JUMPDEST DUP3 DUP1 ADD PUSH1 0x1 ADD DUP6 SSTORE DUP3 ISZERO PUSH2 0x1998 JUMPI SWAP2 DUP3 ADD JUMPDEST DUP3 DUP2 GT ISZERO PUSH2 0x1997 JUMPI DUP3 MLOAD DUP3 SSTORE SWAP2 PUSH1 0x20 ADD SWAP2 SWAP1 PUSH1 0x1 ADD SWAP1 PUSH2 0x197C JUMP JUMPDEST JUMPDEST POP SWAP1 POP PUSH2 0x19A5 SWAP2 SWAP1 PUSH2 0x1A09 JUMP JUMPDEST POP SWAP1 JUMP JUMPDEST DUP3 DUP1 SLOAD DUP3 DUP3 SSTORE SWAP1 PUSH1 0x0 MSTORE PUSH1 0x20 PUSH1 0x0 KECCAK256 SWAP1 DUP2 ADD SWAP3 DUP3 ISZERO PUSH2 0x19F8 JUMPI SWAP2 PUSH1 0x20 MUL DUP3 ADD JUMPDEST DUP3 DUP2 GT ISZERO PUSH2 0x19F7 JUMPI DUP3 MLOAD DUP3 SWAP1 DUP1 MLOAD SWAP1 PUSH1 0x20 ADD SWAP1 PUSH2 0x19E7 SWAP3 SWAP2 SWAP1 PUSH2 0x1923 JUMP JUMPDEST POP SWAP2 PUSH1 0x20 ADD SWAP2 SWAP1 PUSH1 0x1 ADD SWAP1 PUSH2 0x19C9 JUMP JUMPDEST JUMPDEST POP SWAP1 POP PUSH2 0x1A05 SWAP2 SWAP1 PUSH2 0x1A26 JUMP JUMPDEST POP SWAP1 JUMP JUMPDEST JUMPDEST DUP1 DUP3 GT ISZERO PUSH2 0x1A22 JUMPI PUSH1 0x0 DUP2 PUSH1 0x0 SWAP1 SSTORE POP PUSH1 0x1 ADD PUSH2 0x1A0A JUMP JUMPDEST POP SWAP1 JUMP JUMPDEST JUMPDEST DUP1 DUP3 GT ISZERO PUSH2 0x1A46 JUMPI PUSH1 0x0 DUP2 DUP2 PUSH2 0x1A3D SWAP2 SWAP1 PUSH2 0x1A4A JUMP JUMPDEST POP PUSH1 0x1 ADD PUSH2 0x1A27 JUMP JUMPDEST POP SWAP1 JUMP JUMPDEST POP DUP1 SLOAD PUSH2 0x1A56 SWAP1 PUSH2 0x2765 JUMP JUMPDEST PUSH1 0x0 DUP3 SSTORE DUP1 PUSH1 0x1F LT PUSH2 0x1A68 JUMPI POP PUSH2 0x1A87 JUMP JUMPDEST PUSH1 0x1F ADD PUSH1 0x20 SWAP1 DIV SWAP1 PUSH1 0x0 MSTORE PUSH1 0x20 PUSH1 0x0 KECCAK256 SWAP1 DUP2 ADD SWAP1 PUSH2 0x1A86 SWAP2 SWAP1 PUSH2 0x1A09 JUMP JUMPDEST JUMPDEST POP JUMP JUMPDEST PUSH1 0x0 PUSH2 0x1A9D PUSH2 0x1A98 DUP5 PUSH2 0x24D9 JUMP JUMPDEST PUSH2 0x24B4 JUMP JUMPDEST SWAP1 POP DUP1 DUP4 DUP3 MSTORE PUSH1 0x20 DUP3 ADD SWAP1 POP DUP3 DUP6 PUSH1 0x20 DUP7 MUL DUP3 ADD GT ISZERO PUSH2 0x1ABC JUMPI PUSH1 0x0 DUP1 REVERT JUMPDEST PUSH1 0x0 JUMPDEST DUP6 DUP2 LT ISZERO PUSH2 0x1B06 JUMPI DUP2 CALLDATALOAD PUSH8 0xFFFFFFFFFFFFFFFF DUP2 GT ISZERO PUSH2 0x1ADE JUMPI PUSH1 0x0 DUP1 REVERT JUMPDEST DUP1 DUP7 ADD PUSH2 0x1AEB DUP10 DUP3 PUSH2 0x1C34 JUMP JUMPDEST DUP6 MSTORE PUSH1 0x20 DUP6 ADD SWAP5 POP PUSH1 0x20 DUP5 ADD SWAP4 POP POP POP PUSH1 0x1 DUP2 ADD SWAP1 POP PUSH2 0x1ABF JUMP JUMPDEST POP POP POP SWAP4 SWAP3 POP POP POP JUMP JUMPDEST PUSH1 0x0 PUSH2 0x1B23 PUSH2 0x1B1E DUP5 PUSH2 0x2505 JUMP JUMPDEST PUSH2 0x24B4 JUMP JUMPDEST SWAP1 POP DUP3 DUP2 MSTORE PUSH1 0x20 DUP2 ADD DUP5 DUP5 DUP5 ADD GT ISZERO PUSH2 0x1B3B JUMPI PUSH1 0x0 DUP1 REVERT JUMPDEST PUSH2 0x1B46 DUP5 DUP3 DUP6 PUSH2 0x2723 JUMP JUMPDEST POP SWAP4 SWAP3 POP POP POP JUMP JUMPDEST PUSH1 0x0 PUSH2 0x1B61 PUSH2 0x1B5C DUP5 PUSH2 0x2536 JUMP JUMPDEST PUSH2 0x24B4 JUMP JUMPDEST SWAP1 POP DUP3 DUP2 MSTORE PUSH1 0x20 DUP2 ADD DUP5 DUP5 DUP5 ADD GT ISZERO PUSH2 0x1B79 JUMPI PUSH1 0x0 DUP1 REVERT JUMPDEST PUSH2 0x1B84 DUP5 DUP3 DUP6 PUSH2 0x2723 JUMP JUMPDEST POP SWAP4 SWAP3 POP POP POP JUMP JUMPDEST PUSH1 0x0 DUP2 CALLDATALOAD SWAP1 POP PUSH2 0x1B9B DUP2 PUSH2 0x2BDC JUMP JUMPDEST SWAP3 SWAP2 POP POP JUMP JUMPDEST PUSH1 0x0 DUP3 PUSH1 0x1F DUP4 ADD SLT PUSH2 0x1BB2 JUMPI PUSH1 0x0 DUP1 REVERT JUMPDEST DUP2 CALLDATALOAD PUSH2 0x1BC2 DUP5 DUP3 PUSH1 0x20 DUP7 ADD PUSH2 0x1A8A JUMP JUMPDEST SWAP2 POP POP SWAP3 SWAP2 POP POP JUMP JUMPDEST PUSH1 0x0 DUP2 CALLDATALOAD SWAP1 POP PUSH2 0x1BDA DUP2 PUSH2 0x2BF3 JUMP JUMPDEST SWAP3 SWAP2 POP POP JUMP JUMPDEST PUSH1 0x0 DUP2 CALLDATALOAD SWAP1 POP PUSH2 0x1BEF DUP2 PUSH2 0x2C0A JUMP JUMPDEST SWAP3 SWAP2 POP POP JUMP JUMPDEST PUSH1 0x0 DUP2 MLOAD SWAP1 POP PUSH2 0x1C04 DUP2 PUSH2 0x2C0A JUMP JUMPDEST SWAP3 SWAP2 POP POP JUMP JUMPDEST PUSH1 0x0 DUP3 PUSH1 0x1F DUP4 ADD SLT PUSH2 0x1C1B JUMPI PUSH1 0x0 DUP1 REVERT JUMPDEST DUP2 CALLDATALOAD PUSH2 0x1C2B DUP5 DUP3 PUSH1 0x20 DUP7 ADD PUSH2 0x1B10 JUMP JUMPDEST SWAP2 POP POP SWAP3 SWAP2 POP POP JUMP JUMPDEST PUSH1 0x0 DUP3 PUSH1 0x1F DUP4 ADD SLT PUSH2 0x1C45 JUMPI PUSH1 0x0 DUP1 REVERT JUMPDEST DUP2 CALLDATALOAD PUSH2 0x1C55 DUP5 DUP3 PUSH1 0x20 DUP7 ADD PUSH2 0x1B4E JUMP JUMPDEST SWAP2 POP POP SWAP3 SWAP2 POP POP JUMP JUMPDEST PUSH1 0x0 DUP2 CALLDATALOAD SWAP1 POP PUSH2 0x1C6D DUP2 PUSH2 0x2C21 JUMP JUMPDEST SWAP3 SWAP2 POP POP JUMP JUMPDEST PUSH1 0x0 PUSH1 0x20 DUP3 DUP5 SUB SLT ISZERO PUSH2 0x1C85 JUMPI PUSH1 0x0 DUP1 REVERT JUMPDEST PUSH1 0x0 PUSH2 0x1C93 DUP5 DUP3 DUP6 ADD PUSH2 0x1B8C JUMP JUMPDEST SWAP2 POP POP SWAP3 SWAP2 POP POP JUMP JUMPDEST PUSH1 0x0 DUP1 PUSH1 0x40 DUP4 DUP6 SUB SLT ISZERO PUSH2 0x1CAF JUMPI PUSH1 0x0 DUP1 REVERT JUMPDEST PUSH1 0x0 PUSH2 0x1CBD DUP6 DUP3 DUP7 ADD PUSH2 0x1B8C JUMP JUMPDEST SWAP3 POP POP PUSH1 0x20 PUSH2 0x1CCE DUP6 DUP3 DUP7 ADD PUSH2 0x1B8C JUMP JUMPDEST SWAP2 POP POP SWAP3 POP SWAP3 SWAP1 POP JUMP JUMPDEST PUSH1 0x0 DUP1 PUSH1 0x0 PUSH1 0x60 DUP5 DUP7 SUB SLT ISZERO PUSH2 0x1CED JUMPI PUSH1 0x0 DUP1 REVERT JUMPDEST PUSH1 0x0 PUSH2 0x1CFB DUP7 DUP3 DUP8 ADD PUSH2 0x1B8C JUMP JUMPDEST SWAP4 POP POP PUSH1 0x20 PUSH2 0x1D0C DUP7 DUP3 DUP8 ADD PUSH2 0x1B8C JUMP JUMPDEST SWAP3 POP POP PUSH1 0x40 PUSH2 0x1D1D DUP7 DUP3 DUP8 ADD PUSH2 0x1C5E JUMP JUMPDEST SWAP2 POP POP SWAP3 POP SWAP3 POP SWAP3 JUMP JUMPDEST PUSH1 0x0 DUP1 PUSH1 0x0 DUP1 PUSH1 0x80 DUP6 DUP8 SUB SLT ISZERO PUSH2 0x1D3D JUMPI PUSH1 0x0 DUP1 REVERT JUMPDEST PUSH1 0x0 PUSH2 0x1D4B DUP8 DUP3 DUP9 ADD PUSH2 0x1B8C JUMP JUMPDEST SWAP5 POP POP PUSH1 0x20 PUSH2 0x1D5C DUP8 DUP3 DUP9 ADD PUSH2 0x1B8C JUMP JUMPDEST SWAP4 POP POP PUSH1 0x40 PUSH2 0x1D6D DUP8 DUP3 DUP9 ADD PUSH2 0x1C5E JUMP JUMPDEST SWAP3 POP POP PUSH1 0x60 DUP6 ADD CALLDATALOAD PUSH8 0xFFFFFFFFFFFFFFFF DUP2 GT ISZERO PUSH2 0x1D8A JUMPI PUSH1 0x0 DUP1 REVERT JUMPDEST PUSH2 0x1D96 DUP8 DUP3 DUP9 ADD PUSH2 0x1C0A JUMP JUMPDEST SWAP2 POP POP SWAP3 SWAP6 SWAP2 SWAP5 POP SWAP3 POP JUMP JUMPDEST PUSH1 0x0 DUP1 PUSH1 0x0 DUP1 PUSH1 0x0 PUSH1 0xA0 DUP7 DUP9 SUB SLT ISZERO PUSH2 0x1DBA JUMPI PUSH1 0x0 DUP1 REVERT JUMPDEST PUSH1 0x0 PUSH2 0x1DC8 DUP9 DUP3 DUP10 ADD PUSH2 0x1B8C JUMP JUMPDEST SWAP6 POP POP PUSH1 0x20 DUP7 ADD CALLDATALOAD PUSH8 0xFFFFFFFFFFFFFFFF DUP2 GT ISZERO PUSH2 0x1DE5 JUMPI PUSH1 0x0 DUP1 REVERT JUMPDEST PUSH2 0x1DF1 DUP9 DUP3 DUP10 ADD PUSH2 0x1BA1 JUMP JUMPDEST SWAP5 POP POP PUSH1 0x40 PUSH2 0x1E02 DUP9 DUP3 DUP10 ADD PUSH2 0x1C5E JUMP JUMPDEST SWAP4 POP POP PUSH1 0x60 PUSH2 0x1E13 DUP9 DUP3 DUP10 ADD PUSH2 0x1C5E JUMP JUMPDEST SWAP3 POP POP PUSH1 0x80 DUP7 ADD CALLDATALOAD PUSH8 0xFFFFFFFFFFFFFFFF DUP2 GT ISZERO PUSH2 0x1E30 JUMPI PUSH1 0x0 DUP1 REVERT JUMPDEST PUSH2 0x1E3C DUP9 DUP3 DUP10 ADD PUSH2 0x1C34 JUMP JUMPDEST SWAP2 POP POP SWAP3 SWAP6 POP SWAP3 SWAP6 SWAP1 SWAP4 POP JUMP JUMPDEST PUSH1 0x0 DUP1 PUSH1 0x40 DUP4 DUP6 SUB SLT ISZERO PUSH2 0x1E5C JUMPI PUSH1 0x0 DUP1 REVERT JUMPDEST PUSH1 0x0 PUSH2 0x1E6A DUP6 DUP3 DUP7 ADD PUSH2 0x1B8C JUMP JUMPDEST SWAP3 POP POP PUSH1 0x20 PUSH2 0x1E7B DUP6 DUP3 DUP7 ADD PUSH2 0x1BCB JUMP JUMPDEST SWAP2 POP POP SWAP3 POP SWAP3 SWAP1 POP JUMP JUMPDEST PUSH1 0x0 DUP1 PUSH1 0x40 DUP4 DUP6 SUB SLT ISZERO PUSH2 0x1E98 JUMPI PUSH1 0x0 DUP1 REVERT JUMPDEST PUSH1 0x0 PUSH2 0x1EA6 DUP6 DUP3 DUP7 ADD PUSH2 0x1B8C JUMP JUMPDEST SWAP3 POP POP PUSH1 0x20 PUSH2 0x1EB7 DUP6 DUP3 DUP7 ADD PUSH2 0x1C5E JUMP JUMPDEST SWAP2 POP POP SWAP3 POP SWAP3 SWAP1 POP JUMP JUMPDEST PUSH1 0x0 PUSH1 0x20 DUP3 DUP5 SUB SLT ISZERO PUSH2 0x1ED3 JUMPI PUSH1 0x0 DUP1 REVERT JUMPDEST PUSH1 0x0 PUSH2 0x1EE1 DUP5 DUP3 DUP6 ADD PUSH2 0x1BE0 JUMP JUMPDEST SWAP2 POP POP SWAP3 SWAP2 POP POP JUMP JUMPDEST PUSH1 0x0 PUSH1 0x20 DUP3 DUP5 SUB SLT ISZERO PUSH2 0x1EFC JUMPI PUSH1 0x0 DUP1 REVERT JUMPDEST PUSH1 0x0 PUSH2 0x1F0A DUP5 DUP3 DUP6 ADD PUSH2 0x1BF5 JUMP JUMPDEST SWAP2 POP POP SWAP3 SWAP2 POP POP JUMP JUMPDEST PUSH1 0x0 PUSH1 0x20 DUP3 DUP5 SUB SLT ISZERO PUSH2 0x1F25 JUMPI PUSH1 0x0 DUP1 REVERT JUMPDEST PUSH1 0x0 PUSH2 0x1F33 DUP5 DUP3 DUP6 ADD PUSH2 0x1C5E JUMP JUMPDEST SWAP2 POP POP SWAP3 SWAP2 POP POP JUMP JUMPDEST PUSH1 0x0 PUSH2 0x1F48 DUP4 DUP4 PUSH2 0x201C JUMP JUMPDEST SWAP1 POP SWAP3 SWAP2 POP POP JUMP JUMPDEST PUSH2 0x1F59 DUP2 PUSH2 0x26AF JUMP JUMPDEST DUP3 MSTORE POP POP JUMP JUMPDEST PUSH1 0x0 PUSH2 0x1F6A DUP3 PUSH2 0x2577 JUMP JUMPDEST PUSH2 0x1F74 DUP2 DUP6 PUSH2 0x25A5 JUMP JUMPDEST SWAP4 POP DUP4 PUSH1 0x20 DUP3 MUL DUP6 ADD PUSH2 0x1F86 DUP6 PUSH2 0x2567 JUMP JUMPDEST DUP1 PUSH1 0x0 JUMPDEST DUP6 DUP2 LT ISZERO PUSH2 0x1FC2 JUMPI DUP5 DUP5 SUB DUP10 MSTORE DUP2 MLOAD PUSH2 0x1FA3 DUP6 DUP3 PUSH2 0x1F3C JUMP JUMPDEST SWAP5 POP PUSH2 0x1FAE DUP4 PUSH2 0x2598 JUMP JUMPDEST SWAP3 POP PUSH1 0x20 DUP11 ADD SWAP10 POP POP PUSH1 0x1 DUP2 ADD SWAP1 POP PUSH2 0x1F8A JUMP JUMPDEST POP DUP3 SWAP8 POP DUP8 SWAP6 POP POP POP POP POP POP SWAP3 SWAP2 POP POP JUMP JUMPDEST PUSH2 0x1FDD DUP2 PUSH2 0x26C1 JUMP JUMPDEST DUP3 MSTORE POP POP JUMP JUMPDEST PUSH1 0x0 PUSH2 0x1FEE DUP3 PUSH2 0x2582 JUMP JUMPDEST PUSH2 0x1FF8 DUP2 DUP6 PUSH2 0x25B6 JUMP JUMPDEST SWAP4 POP PUSH2 0x2008 DUP2 DUP6 PUSH1 0x20 DUP7 ADD PUSH2 0x2732 JUMP JUMPDEST PUSH2 0x2011 DUP2 PUSH2 0x28FE JUMP JUMPDEST DUP5 ADD SWAP2 POP POP SWAP3 SWAP2 POP POP JUMP JUMPDEST PUSH1 0x0 PUSH2 0x2027 DUP3 PUSH2 0x258D JUMP JUMPDEST PUSH2 0x2031 DUP2 DUP6 PUSH2 0x25C7 JUMP JUMPDEST SWAP4 POP PUSH2 0x2041 DUP2 DUP6 PUSH1 0x20 DUP7 ADD PUSH2 0x2732 JUMP JUMPDEST PUSH2 0x204A DUP2 PUSH2 0x28FE JUMP JUMPDEST DUP5 ADD SWAP2 POP POP SWAP3 SWAP2 POP POP JUMP JUMPDEST PUSH1 0x0 PUSH2 0x2060 DUP3 PUSH2 0x258D JUMP JUMPDEST PUSH2 0x206A DUP2 DUP6 PUSH2 0x25D8 JUMP JUMPDEST SWAP4 POP PUSH2 0x207A DUP2 DUP6 PUSH1 0x20 DUP7 ADD PUSH2 0x2732 JUMP JUMPDEST PUSH2 0x2083 DUP2 PUSH2 0x28FE JUMP JUMPDEST DUP5 ADD SWAP2 POP POP SWAP3 SWAP2 POP POP JUMP JUMPDEST PUSH1 0x0 PUSH2 0x2099 DUP3 PUSH2 0x258D JUMP JUMPDEST PUSH2 0x20A3 DUP2 DUP6 PUSH2 0x25E9 JUMP JUMPDEST SWAP4 POP PUSH2 0x20B3 DUP2 DUP6 PUSH1 0x20 DUP7 ADD PUSH2 0x2732 JUMP JUMPDEST DUP1 DUP5 ADD SWAP2 POP POP SWAP3 SWAP2 POP POP JUMP JUMPDEST PUSH1 0x0 PUSH2 0x20CC PUSH1 0x2D DUP4 PUSH2 0x25D8 JUMP JUMPDEST SWAP2 POP PUSH2 0x20D7 DUP3 PUSH2 0x290F JUMP JUMPDEST PUSH1 0x40 DUP3 ADD SWAP1 POP SWAP2 SWAP1 POP JUMP JUMPDEST PUSH1 0x0 PUSH2 0x20EF PUSH1 0x32 DUP4 PUSH2 0x25D8 JUMP JUMPDEST SWAP2 POP PUSH2 0x20FA DUP3 PUSH2 0x295E JUMP JUMPDEST PUSH1 0x40 DUP3 ADD SWAP1 POP SWAP2 SWAP1 POP JUMP JUMPDEST PUSH1 0x0 PUSH2 0x2112 PUSH1 0x25 DUP4 PUSH2 0x25D8 JUMP JUMPDEST SWAP2 POP PUSH2 0x211D DUP3 PUSH2 0x29AD JUMP JUMPDEST PUSH1 0x40 DUP3 ADD SWAP1 POP SWAP2 SWAP1 POP JUMP JUMPDEST PUSH1 0x0 PUSH2 0x2135 PUSH1 0x1C DUP4 PUSH2 0x25D8 JUMP JUMPDEST SWAP2 POP PUSH2 0x2140 DUP3 PUSH2 0x29FC JUMP JUMPDEST PUSH1 0x20 DUP3 ADD SWAP1 POP SWAP2 SWAP1 POP JUMP JUMPDEST PUSH1 0x0 PUSH2 0x2158 PUSH1 0x24 DUP4 PUSH2 0x25D8 JUMP JUMPDEST SWAP2 POP PUSH2 0x2163 DUP3 PUSH2 0x2A25 JUMP JUMPDEST PUSH1 0x40 DUP3 ADD SWAP1 POP SWAP2 SWAP1 POP JUMP JUMPDEST PUSH1 0x0 PUSH2 0x217B PUSH1 0x19 DUP4 PUSH2 0x25D8 JUMP JUMPDEST SWAP2 POP PUSH2 0x2186 DUP3 PUSH2 0x2A74 JUMP JUMPDEST PUSH1 0x20 DUP3 ADD SWAP1 POP SWAP2 SWAP1 POP JUMP JUMPDEST PUSH1 0x0 PUSH2 0x219E PUSH1 0x29 DUP4 PUSH2 0x25D8 JUMP JUMPDEST SWAP2 POP PUSH2 0x21A9 DUP3 PUSH2 0x2A9D JUMP JUMPDEST PUSH1 0x40 DUP3 ADD SWAP1 POP SWAP2 SWAP1 POP JUMP JUMPDEST PUSH1 0x0 PUSH2 0x21C1 PUSH1 0x20 DUP4 PUSH2 0x25D8 JUMP JUMPDEST SWAP2 POP PUSH2 0x21CC DUP3 PUSH2 0x2AEC JUMP JUMPDEST PUSH1 0x20 DUP3 ADD SWAP1 POP SWAP2 SWAP1 POP JUMP JUMPDEST PUSH1 0x0 PUSH2 0x21E4 PUSH1 0x18 DUP4 PUSH2 0x25D8 JUMP JUMPDEST SWAP2 POP PUSH2 0x21EF DUP3 PUSH2 0x2B15 JUMP JUMPDEST PUSH1 0x20 DUP3 ADD SWAP1 POP SWAP2 SWAP1 POP JUMP JUMPDEST PUSH1 0x0 PUSH2 0x2207 PUSH1 0x21 DUP4 PUSH2 0x25D8 JUMP JUMPDEST SWAP2 POP PUSH2 0x2212 DUP3 PUSH2 0x2B3E JUMP JUMPDEST PUSH1 0x40 DUP3 ADD SWAP1 POP SWAP2 SWAP1 POP JUMP JUMPDEST PUSH1 0x0 PUSH2 0x222A PUSH1 0x3D DUP4 PUSH2 0x25D8 JUMP JUMPDEST SWAP2 POP PUSH2 0x2235 DUP3 PUSH2 0x2B8D JUMP JUMPDEST PUSH1 0x40 DUP3 ADD SWAP1 POP SWAP2 SWAP1 POP JUMP JUMPDEST PUSH2 0x2249 DUP2 PUSH2 0x2719 JUMP JUMPDEST DUP3 MSTORE POP POP JUMP JUMPDEST PUSH1 0x0 PUSH2 0x225B DUP3 DUP6 PUSH2 0x208E JUMP JUMPDEST SWAP2 POP PUSH2 0x2267 DUP3 DUP5 PUSH2 0x208E JUMP JUMPDEST SWAP2 POP DUP2 SWAP1 POP SWAP4 SWAP3 POP POP POP JUMP JUMPDEST PUSH1 0x0 PUSH1 0x20 DUP3 ADD SWAP1 POP PUSH2 0x2288 PUSH1 0x0 DUP4 ADD DUP5 PUSH2 0x1F50 JUMP JUMPDEST SWAP3 SWAP2 POP POP JUMP JUMPDEST PUSH1 0x0 PUSH1 0x80 DUP3 ADD SWAP1 POP PUSH2 0x22A3 PUSH1 0x0 DUP4 ADD DUP8 PUSH2 0x1F50 JUMP JUMPDEST PUSH2 0x22B0 PUSH1 0x20 DUP4 ADD DUP7 PUSH2 0x1F50 JUMP JUMPDEST PUSH2 0x22BD PUSH1 0x40 DUP4 ADD DUP6 PUSH2 0x2240 JUMP JUMPDEST DUP2 DUP2 SUB PUSH1 0x60 DUP4 ADD MSTORE PUSH2 0x22CF DUP2 DUP5 PUSH2 0x1FE3 JUMP JUMPDEST SWAP1 POP SWAP6 SWAP5 POP POP POP POP POP JUMP JUMPDEST PUSH1 0x0 PUSH1 0x20 DUP3 ADD SWAP1 POP DUP2 DUP2 SUB PUSH1 0x0 DUP4 ADD MSTORE PUSH2 0x22F4 DUP2 DUP5 PUSH2 0x1F5F JUMP JUMPDEST SWAP1 POP SWAP3 SWAP2 POP POP JUMP JUMPDEST PUSH1 0x0 PUSH1 0x20 DUP3 ADD SWAP1 POP PUSH2 0x2311 PUSH1 0x0 DUP4 ADD DUP5 PUSH2 0x1FD4 JUMP JUMPDEST SWAP3 SWAP2 POP POP JUMP JUMPDEST PUSH1 0x0 PUSH1 0x20 DUP3 ADD SWAP1 POP DUP2 DUP2 SUB PUSH1 0x0 DUP4 ADD MSTORE PUSH2 0x2331 DUP2 DUP5 PUSH2 0x2055 JUMP JUMPDEST SWAP1 POP SWAP3 SWAP2 POP POP JUMP JUMPDEST PUSH1 0x0 PUSH1 0x20 DUP3 ADD SWAP1 POP DUP2 DUP2 SUB PUSH1 0x0 DUP4 ADD MSTORE PUSH2 0x2352 DUP2 PUSH2 0x20BF JUMP JUMPDEST SWAP1 POP SWAP2 SWAP1 POP JUMP JUMPDEST PUSH1 0x0 PUSH1 0x20 DUP3 ADD SWAP1 POP DUP2 DUP2 SUB PUSH1 0x0 DUP4 ADD MSTORE PUSH2 0x2372 DUP2 PUSH2 0x20E2 JUMP JUMPDEST SWAP1 POP SWAP2 SWAP1 POP JUMP JUMPDEST PUSH1 0x0 PUSH1 0x20 DUP3 ADD SWAP1 POP DUP2 DUP2 SUB PUSH1 0x0 DUP4 ADD MSTORE PUSH2 0x2392 DUP2 PUSH2 0x2105 JUMP JUMPDEST SWAP1 POP SWAP2 SWAP1 POP JUMP JUMPDEST PUSH1 0x0 PUSH1 0x20 DUP3 ADD SWAP1 POP DUP2 DUP2 SUB PUSH1 0x0 DUP4 ADD MSTORE PUSH2 0x23B2 DUP2 PUSH2 0x2128 JUMP JUMPDEST SWAP1 POP SWAP2 SWAP1 POP JUMP JUMPDEST PUSH1 0x0 PUSH1 0x20 DUP3 ADD SWAP1 POP DUP2 DUP2 SUB PUSH1 0x0 DUP4 ADD MSTORE PUSH2 0x23D2 DUP2 PUSH2 0x214B JUMP JUMPDEST SWAP1 POP SWAP2 SWAP1 POP JUMP JUMPDEST PUSH1 0x0 PUSH1 0x20 DUP3 ADD SWAP1 POP DUP2 DUP2 SUB PUSH1 0x0 DUP4 ADD MSTORE PUSH2 0x23F2 DUP2 PUSH2 0x216E JUMP JUMPDEST SWAP1 POP SWAP2 SWAP1 POP JUMP JUMPDEST PUSH1 0x0 PUSH1 0x20 DUP3 ADD SWAP1 POP DUP2 DUP2 SUB PUSH1 0x0 DUP4 ADD MSTORE PUSH2 0x2412 DUP2 PUSH2 0x2191 JUMP JUMPDEST SWAP1 POP SWAP2 SWAP1 POP JUMP JUMPDEST PUSH1 0x0 PUSH1 0x20 DUP3 ADD SWAP1 POP DUP2 DUP2 SUB PUSH1 0x0 DUP4 ADD MSTORE PUSH2 0x2432 DUP2 PUSH2 0x21B4 JUMP JUMPDEST SWAP1 POP SWAP2 SWAP1 POP JUMP JUMPDEST PUSH1 0x0 PUSH1 0x20 DUP3 ADD SWAP1 POP DUP2 DUP2 SUB PUSH1 0x0 DUP4 ADD MSTORE PUSH2 0x2452 DUP2 PUSH2 0x21D7 JUMP JUMPDEST SWAP1 POP SWAP2 SWAP1 POP JUMP JUMPDEST PUSH1 0x0 PUSH1 0x20 DUP3 ADD SWAP1 POP DUP2 DUP2 SUB PUSH1 0x0 DUP4 ADD MSTORE PUSH2 0x2472 DUP2 PUSH2 0x21FA JUMP JUMPDEST SWAP1 POP SWAP2 SWAP1 POP JUMP JUMPDEST PUSH1 0x0 PUSH1 0x20 DUP3 ADD SWAP1 POP DUP2 DUP2 SUB PUSH1 0x0 DUP4 ADD MSTORE PUSH2 0x2492 DUP2 PUSH2 0x221D JUMP JUMPDEST SWAP1 POP SWAP2 SWAP1 POP JUMP JUMPDEST PUSH1 0x0 PUSH1 0x20 DUP3 ADD SWAP1 POP PUSH2 0x24AE PUSH1 0x0 DUP4 ADD DUP5 PUSH2 0x2240 JUMP JUMPDEST SWAP3 SWAP2 POP POP JUMP JUMPDEST PUSH1 0x0 PUSH2 0x24BE PUSH2 0x24CF JUMP JUMPDEST SWAP1 POP PUSH2 0x24CA DUP3 DUP3 PUSH2 0x2797 JUMP JUMPDEST SWAP2 SWAP1 POP JUMP JUMPDEST PUSH1 0x0 PUSH1 0x40 MLOAD SWAP1 POP SWAP1 JUMP JUMPDEST PUSH1 0x0 PUSH8 0xFFFFFFFFFFFFFFFF DUP3 GT ISZERO PUSH2 0x24F4 JUMPI PUSH2 0x24F3 PUSH2 0x28CF JUMP JUMPDEST JUMPDEST PUSH1 0x20 DUP3 MUL SWAP1 POP PUSH1 0x20 DUP2 ADD SWAP1 POP SWAP2 SWAP1 POP JUMP JUMPDEST PUSH1 0x0 PUSH8 0xFFFFFFFFFFFFFFFF DUP3 GT ISZERO PUSH2 0x2520 JUMPI PUSH2 0x251F PUSH2 0x28CF JUMP JUMPDEST JUMPDEST PUSH2 0x2529 DUP3 PUSH2 0x28FE JUMP JUMPDEST SWAP1 POP PUSH1 0x20 DUP2 ADD SWAP1 POP SWAP2 SWAP1 POP JUMP JUMPDEST PUSH1 0x0 PUSH8 0xFFFFFFFFFFFFFFFF DUP3 GT ISZERO PUSH2 0x2551 JUMPI PUSH2 0x2550 PUSH2 0x28CF JUMP JUMPDEST JUMPDEST PUSH2 0x255A DUP3 PUSH2 0x28FE JUMP JUMPDEST SWAP1 POP PUSH1 0x20 DUP2 ADD SWAP1 POP SWAP2 SWAP1 POP JUMP JUMPDEST PUSH1 0x0 DUP2 SWAP1 POP PUSH1 0x20 DUP3 ADD SWAP1 POP SWAP2 SWAP1 POP JUMP JUMPDEST PUSH1 0x0 DUP2 MLOAD SWAP1 POP SWAP2 SWAP1 POP JUMP JUMPDEST PUSH1 0x0 DUP2 MLOAD SWAP1 POP SWAP2 SWAP1 POP JUMP JUMPDEST PUSH1 0x0 DUP2 MLOAD SWAP1 POP SWAP2 SWAP1 POP JUMP JUMPDEST PUSH1 0x0 PUSH1 0x20 DUP3 ADD SWAP1 POP SWAP2 SWAP1 POP JUMP JUMPDEST PUSH1 0x0 DUP3 DUP3 MSTORE PUSH1 0x20 DUP3 ADD SWAP1 POP SWAP3 SWAP2 POP POP JUMP JUMPDEST PUSH1 0x0 DUP3 DUP3 MSTORE PUSH1 0x20 DUP3 ADD SWAP1 POP SWAP3 SWAP2 POP POP JUMP JUMPDEST PUSH1 0x0 DUP3 DUP3 MSTORE PUSH1 0x20 DUP3 ADD SWAP1 POP SWAP3 SWAP2 POP POP JUMP JUMPDEST PUSH1 0x0 DUP3 DUP3 MSTORE PUSH1 0x20 DUP3 ADD SWAP1 POP SWAP3 SWAP2 POP POP JUMP JUMPDEST PUSH1 0x0 DUP2 SWAP1 POP SWAP3 SWAP2 POP POP JUMP JUMPDEST PUSH1 0x0 PUSH2 0x25FF DUP3 PUSH2 0x2719 JUMP JUMPDEST SWAP2 POP PUSH2 0x260A DUP4 PUSH2 0x2719 JUMP JUMPDEST SWAP3 POP DUP3 PUSH32 0xFFFFFFFFFFFFFFFFFFFFFFFFFFFFFFFFFFFFFFFFFFFFFFFFFFFFFFFFFFFFFFFF SUB DUP3 GT ISZERO PUSH2 0x263F JUMPI PUSH2 0x263E PUSH2 0x2842 JUMP JUMPDEST JUMPDEST DUP3 DUP3 ADD SWAP1 POP SWAP3 SWAP2 POP POP JUMP JUMPDEST PUSH1 0x0 PUSH2 0x2655 DUP3 PUSH2 0x2719 JUMP JUMPDEST SWAP2 POP PUSH2 0x2660 DUP4 PUSH2 0x2719 JUMP JUMPDEST SWAP3 POP DUP3 PUSH2 0x2670 JUMPI PUSH2 0x266F PUSH2 0x2871 JUMP JUMPDEST JUMPDEST DUP3 DUP3 DIV SWAP1 POP SWAP3 SWAP2 POP POP JUMP JUMPDEST PUSH1 0x0 PUSH2 0x2686 DUP3 PUSH2 0x2719 JUMP JUMPDEST SWAP2 POP PUSH2 0x2691 DUP4 PUSH2 0x2719 JUMP JUMPDEST SWAP3 POP DUP3 DUP3 LT ISZERO PUSH2 0x26A4 JUMPI PUSH2 0x26A3 PUSH2 0x2842 JUMP JUMPDEST JUMPDEST DUP3 DUP3 SUB SWAP1 POP SWAP3 SWAP2 POP POP JUMP JUMPDEST PUSH1 0x0 PUSH2 0x26BA DUP3 PUSH2 0x26F9 JUMP JUMPDEST SWAP1 POP SWAP2 SWAP1 POP JUMP JUMPDEST PUSH1 0x0 DUP2 ISZERO ISZERO SWAP1 POP SWAP2 SWAP1 POP JUMP JUMPDEST PUSH1 0x0 PUSH32 0xFFFFFFFF00000000000000000000000000000000000000000000000000000000 DUP3 AND SWAP1 POP SWAP2 SWAP1 POP JUMP JUMPDEST PUSH1 0x0 PUSH20 0xFFFFFFFFFFFFFFFFFFFFFFFFFFFFFFFFFFFFFFFF DUP3 AND SWAP1 POP SWAP2 SWAP1 POP JUMP JUMPDEST PUSH1 0x0 DUP2 SWAP1 POP SWAP2 SWAP1 POP JUMP JUMPDEST DUP3 DUP2 DUP4 CALLDATACOPY PUSH1 0x0 DUP4 DUP4 ADD MSTORE POP POP POP JUMP JUMPDEST PUSH1 0x0 JUMPDEST DUP4 DUP2 LT ISZERO PUSH2 0x2750 JUMPI DUP1 DUP3 ADD MLOAD DUP2 DUP5 ADD MSTORE PUSH1 0x20 DUP2 ADD SWAP1 POP PUSH2 0x2735 JUMP JUMPDEST DUP4 DUP2 GT ISZERO PUSH2 0x275F JUMPI PUSH1 0x0 DUP5 DUP5 ADD MSTORE JUMPDEST POP POP POP POP JUMP JUMPDEST PUSH1 0x0 PUSH1 0x2 DUP3 DIV SWAP1 POP PUSH1 0x1 DUP3 AND DUP1 PUSH2 0x277D JUMPI PUSH1 0x7F DUP3 AND SWAP2 POP JUMPDEST PUSH1 0x20 DUP3 LT DUP2 EQ ISZERO PUSH2 0x2791 JUMPI PUSH2 0x2790 PUSH2 0x28A0 JUMP JUMPDEST JUMPDEST POP SWAP2 SWAP1 POP JUMP JUMPDEST PUSH2 0x27A0 DUP3 PUSH2 0x28FE JUMP JUMPDEST DUP2 ADD DUP2 DUP2 LT PUSH8 0xFFFFFFFFFFFFFFFF DUP3 GT OR ISZERO PUSH2 0x27BF JUMPI PUSH2 0x27BE PUSH2 0x28CF JUMP JUMPDEST JUMPDEST DUP1 PUSH1 0x40 MSTORE POP POP POP JUMP JUMPDEST PUSH1 0x0 PUSH2 0x27D3 DUP3 PUSH2 0x2719 JUMP JUMPDEST SWAP2 POP PUSH32 0xFFFFFFFFFFFFFFFFFFFFFFFFFFFFFFFFFFFFFFFFFFFFFFFFFFFFFFFFFFFFFFFF DUP3 EQ ISZERO PUSH2 0x2806 JUMPI PUSH2 0x2805 PUSH2 0x2842 JUMP JUMPDEST JUMPDEST PUSH1 0x1 DUP3 ADD SWAP1 POP SWAP2 SWAP1 POP JUMP JUMPDEST PUSH1 0x0 PUSH2 0x281C DUP3 PUSH2 0x2719 JUMP JUMPDEST SWAP2 POP PUSH2 0x2827 DUP4 PUSH2 0x2719 JUMP JUMPDEST SWAP3 POP DUP3 PUSH2 0x2837 JUMPI PUSH2 0x2836 PUSH2 0x2871 JUMP JUMPDEST JUMPDEST DUP3 DUP3 MOD SWAP1 POP SWAP3 SWAP2 POP POP JUMP JUMPDEST PUSH32 0x4E487B7100000000000000000000000000000000000000000000000000000000 PUSH1 0x0 MSTORE PUSH1 0x11 PUSH1 0x4 MSTORE PUSH1 0x24 PUSH1 0x0 REVERT JUMPDEST PUSH32 0x4E487B7100000000000000000000000000000000000000000000000000000000 PUSH1 0x0 MSTORE PUSH1 0x12 PUSH1 0x4 MSTORE PUSH1 0x24 PUSH1 0x0 REVERT JUMPDEST PUSH32 0x4E487B7100000000000000000000000000000000000000000000000000000000 PUSH1 0x0 MSTORE PUSH1 0x22 PUSH1 0x4 MSTORE PUSH1 0x24 PUSH1 0x0 REVERT JUMPDEST PUSH32 0x4E487B7100000000000000000000000000000000000000000000000000000000 PUSH1 0x0 MSTORE PUSH1 0x41 PUSH1 0x4 MSTORE PUSH1 0x24 PUSH1 0x0 REVERT JUMPDEST PUSH1 0x0 PUSH1 0x1F NOT PUSH1 0x1F DUP4 ADD AND SWAP1 POP SWAP2 SWAP1 POP JUMP JUMPDEST PUSH32 0x4552433732313A2063616C6C6572206973206E6F7420746F6B656E206F776E65 PUSH1 0x0 DUP3 ADD MSTORE PUSH32 0x72206F7220617070726F76656400000000000000000000000000000000000000 PUSH1 0x20 DUP3 ADD MSTORE POP JUMP JUMPDEST PUSH32 0x4552433732313A207472616E7366657220746F206E6F6E204552433732315265 PUSH1 0x0 DUP3 ADD MSTORE PUSH32 0x63656976657220696D706C656D656E7465720000000000000000000000000000 PUSH1 0x20 DUP3 ADD MSTORE POP JUMP JUMPDEST PUSH32 0x4552433732313A207472616E736665722066726F6D20696E636F727265637420 PUSH1 0x0 DUP3 ADD MSTORE PUSH32 0x6F776E6572000000000000000000000000000000000000000000000000000000 PUSH1 0x20 DUP3 ADD MSTORE POP JUMP JUMPDEST PUSH32 0x4552433732313A20746F6B656E20616C7265616479206D696E74656400000000 PUSH1 0x0 DUP3 ADD MSTORE POP JUMP JUMPDEST PUSH32 0x4552433732313A207472616E7366657220746F20746865207A65726F20616464 PUSH1 0x0 DUP3 ADD MSTORE PUSH32 0x7265737300000000000000000000000000000000000000000000000000000000 PUSH1 0x20 DUP3 ADD MSTORE POP JUMP JUMPDEST PUSH32 0x4552433732313A20617070726F766520746F2063616C6C657200000000000000 PUSH1 0x0 DUP3 ADD MSTORE POP JUMP JUMPDEST PUSH32 0x4552433732313A2061646472657373207A65726F206973206E6F742061207661 PUSH1 0x0 DUP3 ADD MSTORE PUSH32 0x6C6964206F776E65720000000000000000000000000000000000000000000000 PUSH1 0x20 DUP3 ADD MSTORE POP JUMP JUMPDEST PUSH32 0x4552433732313A206D696E7420746F20746865207A65726F2061646472657373 PUSH1 0x0 DUP3 ADD MSTORE POP JUMP JUMPDEST PUSH32 0x4552433732313A20696E76616C696420746F6B656E2049440000000000000000 PUSH1 0x0 DUP3 ADD MSTORE POP JUMP JUMPDEST PUSH32 0x4552433732313A20617070726F76616C20746F2063757272656E74206F776E65 PUSH1 0x0 DUP3 ADD MSTORE PUSH32 0x7200000000000000000000000000000000000000000000000000000000000000 PUSH1 0x20 DUP3 ADD MSTORE POP JUMP JUMPDEST PUSH32 0x4552433732313A20617070726F76652063616C6C6572206973206E6F7420746F PUSH1 0x0 DUP3 ADD MSTORE PUSH32 0x6B656E206F776E6572206F7220617070726F76656420666F7220616C6C000000 PUSH1 0x20 DUP3 ADD MSTORE POP JUMP JUMPDEST PUSH2 0x2BE5 DUP2 PUSH2 0x26AF JUMP JUMPDEST DUP2 EQ PUSH2 0x2BF0 JUMPI PUSH1 0x0 DUP1 REVERT JUMPDEST POP JUMP JUMPDEST PUSH2 0x2BFC DUP2 PUSH2 0x26C1 JUMP JUMPDEST DUP2 EQ PUSH2 0x2C07 JUMPI PUSH1 0x0 DUP1 REVERT JUMPDEST POP JUMP JUMPDEST PUSH2 0x2C13 DUP2 PUSH2 0x26CD JUMP JUMPDEST DUP2 EQ PUSH2 0x2C1E JUMPI PUSH1 0x0 DUP1 REVERT JUMPDEST POP JUMP JUMPDEST PUSH2 0x2C2A DUP2 PUSH2 0x2719 JUMP JUMPDEST DUP2 EQ PUSH2 0x2C35 JUMPI PUSH1 0x0 DUP1 REVERT JUMPDEST POP JUMP INVALID LOG2 PUSH5 0x6970667358 0x22 SLT KECCAK256 PUSH4 0x8EC61835 ISZERO LOG2 0x25 0xAA 0xEC PUSH23 0x34AB2C7A5679D74FC804BE861DC113AC84CE3D14336473 PUSH16 0x6C634300080400330000000000000000 "
				},
				"gasEstimates": {
					"creation": {
						"codeDepositCost": "2274800",
						"executionCost": "infinite",
						"totalCost": "infinite"
					},
					"external": {
						"approve(address,uint256)": "infinite",
						"balanceOf(address)": "1624",
						"collaboratotOf(uint256)": "infinite",
						"collaboratotPercentageOf(uint256)": "infinite",
						"getApproved(uint256)": "2657",
						"isApprovedForAll(address,address)": "infinite",
						"mint(address,string[],uint256,uint256,string)": "infinite",
						"name()": "infinite",
						"ownerOf(uint256)": "1682",
						"safeTransferFrom(address,address,uint256)": "infinite",
						"safeTransferFrom(address,address,uint256,bytes)": "infinite",
						"setApprovalForAll(address,bool)": "infinite",
						"supportsInterface(bytes4)": "797",
						"symbol()": "infinite",
						"tokenURI(uint256)": "2102",
						"transferFrom(address,address,uint256)": "infinite"
					},
					"internal": {
						"_afterTokenTransfer(address,address,uint256)": "15",
						"_approve(address,uint256)": "infinite",
						"_baseURI()": "infinite",
						"_beforeTokenTransfer(address,address,uint256)": "15",
						"_burn(uint256)": "infinite",
						"_checkOnERC721Received(address,address,uint256,bytes memory)": "infinite",
						"_exists(uint256)": "969",
						"_isApprovedOrOwner(address,uint256)": "infinite",
						"_mint(address,string memory[] memory,uint256,uint256)": "infinite",
						"_requireMinted(uint256)": "infinite",
						"_safeMint(address,string memory[] memory,uint256,uint256)": "infinite",
						"_safeMint(address,string memory[] memory,uint256,uint256,bytes memory)": "infinite",
						"_safeTransfer(address,address,uint256,bytes memory)": "infinite",
						"_setApprovalForAll(address,address,bool)": "infinite",
						"_setTokenURI(uint256,string memory)": "infinite",
						"_transfer(address,address,uint256)": "infinite"
					}
				},
				"methodIdentifiers": {
					"approve(address,uint256)": "095ea7b3",
					"balanceOf(address)": "70a08231",
					"collaboratotOf(uint256)": "52e04825",
					"collaboratotPercentageOf(uint256)": "ee48cda2",
					"getApproved(uint256)": "081812fc",
					"isApprovedForAll(address,address)": "e985e9c5",
					"mint(address,string[],uint256,uint256,string)": "1fe29658",
					"name()": "06fdde03",
					"ownerOf(uint256)": "6352211e",
					"safeTransferFrom(address,address,uint256)": "42842e0e",
					"safeTransferFrom(address,address,uint256,bytes)": "b88d4fde",
					"setApprovalForAll(address,bool)": "a22cb465",
					"supportsInterface(bytes4)": "01ffc9a7",
					"symbol()": "95d89b41",
					"tokenURI(uint256)": "c87b56dd",
					"transferFrom(address,address,uint256)": "23b872dd"
				}
			},
			"storageLayout": {
				"storage": [
					{
						"astId": 816,
						"contract": "contracts/nft.sol:nft",
						"label": "_name",
						"offset": 0,
						"slot": "0",
						"type": "t_string_storage"
					},
					{
						"astId": 818,
						"contract": "contracts/nft.sol:nft",
						"label": "_symbol",
						"offset": 0,
						"slot": "1",
						"type": "t_string_storage"
					},
					{
						"astId": 827,
						"contract": "contracts/nft.sol:nft",
						"label": "_owners",
						"offset": 0,
						"slot": "2",
						"type": "t_mapping(t_uint256,t_address)"
					},
					{
						"astId": 832,
						"contract": "contracts/nft.sol:nft",
						"label": "_collaborators",
						"offset": 0,
						"slot": "3",
						"type": "t_mapping(t_uint256,t_array(t_string_storage)dyn_storage)"
					},
					{
						"astId": 836,
						"contract": "contracts/nft.sol:nft",
						"label": "_collaboratorsPercentage",
						"offset": 0,
						"slot": "4",
						"type": "t_mapping(t_uint256,t_uint256)"
					},
					{
						"astId": 840,
						"contract": "contracts/nft.sol:nft",
						"label": "_balances",
						"offset": 0,
						"slot": "5",
						"type": "t_mapping(t_address,t_uint256)"
					},
					{
						"astId": 844,
						"contract": "contracts/nft.sol:nft",
						"label": "_tokenApprovals",
						"offset": 0,
						"slot": "6",
						"type": "t_mapping(t_uint256,t_address)"
					},
					{
						"astId": 850,
						"contract": "contracts/nft.sol:nft",
						"label": "_operatorApprovals",
						"offset": 0,
						"slot": "7",
						"type": "t_mapping(t_address,t_mapping(t_address,t_bool))"
					},
					{
						"astId": 854,
						"contract": "contracts/nft.sol:nft",
						"label": "_tokenURIs",
						"offset": 0,
						"slot": "8",
						"type": "t_mapping(t_uint256,t_string_storage)"
					}
				],
				"types": {
					"t_address": {
						"encoding": "inplace",
						"label": "address",
						"numberOfBytes": "20"
					},
					"t_array(t_string_storage)dyn_storage": {
						"base": "t_string_storage",
						"encoding": "dynamic_array",
						"label": "string[]",
						"numberOfBytes": "32"
					},
					"t_bool": {
						"encoding": "inplace",
						"label": "bool",
						"numberOfBytes": "1"
					},
					"t_mapping(t_address,t_bool)": {
						"encoding": "mapping",
						"key": "t_address",
						"label": "mapping(address => bool)",
						"numberOfBytes": "32",
						"value": "t_bool"
					},
					"t_mapping(t_address,t_mapping(t_address,t_bool))": {
						"encoding": "mapping",
						"key": "t_address",
						"label": "mapping(address => mapping(address => bool))",
						"numberOfBytes": "32",
						"value": "t_mapping(t_address,t_bool)"
					},
					"t_mapping(t_address,t_uint256)": {
						"encoding": "mapping",
						"key": "t_address",
						"label": "mapping(address => uint256)",
						"numberOfBytes": "32",
						"value": "t_uint256"
					},
					"t_mapping(t_uint256,t_address)": {
						"encoding": "mapping",
						"key": "t_uint256",
						"label": "mapping(uint256 => address)",
						"numberOfBytes": "32",
						"value": "t_address"
					},
					"t_mapping(t_uint256,t_array(t_string_storage)dyn_storage)": {
						"encoding": "mapping",
						"key": "t_uint256",
						"label": "mapping(uint256 => string[])",
						"numberOfBytes": "32",
						"value": "t_array(t_string_storage)dyn_storage"
					},
					"t_mapping(t_uint256,t_string_storage)": {
						"encoding": "mapping",
						"key": "t_uint256",
						"label": "mapping(uint256 => string)",
						"numberOfBytes": "32",
						"value": "t_string_storage"
					},
					"t_mapping(t_uint256,t_uint256)": {
						"encoding": "mapping",
						"key": "t_uint256",
						"label": "mapping(uint256 => uint256)",
						"numberOfBytes": "32",
						"value": "t_uint256"
					},
					"t_string_storage": {
						"encoding": "bytes",
						"label": "string",
						"numberOfBytes": "32"
					},
					"t_uint256": {
						"encoding": "inplace",
						"label": "uint256",
						"numberOfBytes": "32"
					}
				}
			},
			"userdoc": {
				"kind": "user",
				"methods": {},
				"version": 1
			}
		}
	}
}