{
	"contracts/nft.sol": {
		"nft": {
			"abi": [
				{
					"inputs": [
						{
							"internalType": "string",
							"name": "name_",
							"type": "string"
						},
						{
							"internalType": "string",
							"name": "symbol_",
							"type": "string"
						}
					],
					"stateMutability": "nonpayable",
					"type": "constructor"
				},
				{
					"anonymous": false,
					"inputs": [
						{
							"indexed": true,
							"internalType": "address",
							"name": "owner",
							"type": "address"
						},
						{
							"indexed": true,
							"internalType": "address",
							"name": "approved",
							"type": "address"
						},
						{
							"indexed": true,
							"internalType": "uint256",
							"name": "tokenId",
							"type": "uint256"
						}
					],
					"name": "Approval",
					"type": "event"
				},
				{
					"anonymous": false,
					"inputs": [
						{
							"indexed": true,
							"internalType": "address",
							"name": "owner",
							"type": "address"
						},
						{
							"indexed": true,
							"internalType": "address",
							"name": "operator",
							"type": "address"
						},
						{
							"indexed": false,
							"internalType": "bool",
							"name": "approved",
							"type": "bool"
						}
					],
					"name": "ApprovalForAll",
					"type": "event"
				},
				{
					"anonymous": false,
					"inputs": [
						{
							"indexed": true,
							"internalType": "address",
							"name": "from",
							"type": "address"
						},
						{
							"indexed": true,
							"internalType": "address",
							"name": "to",
							"type": "address"
						},
						{
							"indexed": true,
							"internalType": "uint256",
							"name": "tokenId",
							"type": "uint256"
						}
					],
					"name": "Transfer",
					"type": "event"
				},
				{
					"inputs": [
						{
							"internalType": "address",
							"name": "to",
							"type": "address"
						},
						{
							"internalType": "uint256",
							"name": "tokenId",
							"type": "uint256"
						}
					],
					"name": "approve",
					"outputs": [],
					"stateMutability": "nonpayable",
					"type": "function"
				},
				{
					"inputs": [
						{
							"internalType": "address",
							"name": "owner",
							"type": "address"
						}
					],
					"name": "balanceOf",
					"outputs": [
						{
							"internalType": "uint256",
							"name": "",
							"type": "uint256"
						}
					],
					"stateMutability": "view",
					"type": "function"
				},
				{
					"inputs": [
						{
							"internalType": "uint256",
							"name": "tokenId",
							"type": "uint256"
						}
					],
					"name": "collaboratotOf",
					"outputs": [
						{
							"internalType": "address",
							"name": "",
							"type": "address"
						}
					],
					"stateMutability": "view",
					"type": "function"
				},
				{
					"inputs": [
						{
							"internalType": "uint256",
							"name": "tokenId",
							"type": "uint256"
						}
					],
					"name": "collaboratotPercentageOf",
					"outputs": [
						{
							"internalType": "uint256",
							"name": "",
							"type": "uint256"
						}
					],
					"stateMutability": "view",
					"type": "function"
				},
				{
					"inputs": [
						{
							"internalType": "uint256",
							"name": "tokenId",
							"type": "uint256"
						}
					],
					"name": "getApproved",
					"outputs": [
						{
							"internalType": "address",
							"name": "",
							"type": "address"
						}
					],
					"stateMutability": "view",
					"type": "function"
				},
				{
					"inputs": [
						{
							"internalType": "address",
							"name": "owner",
							"type": "address"
						},
						{
							"internalType": "address",
							"name": "operator",
							"type": "address"
						}
					],
					"name": "isApprovedForAll",
					"outputs": [
						{
							"internalType": "bool",
							"name": "",
							"type": "bool"
						}
					],
					"stateMutability": "view",
					"type": "function"
				},
				{
					"inputs": [
						{
							"internalType": "address",
							"name": "to",
							"type": "address"
						},
						{
							"internalType": "uint256",
							"name": "ownerPercent",
							"type": "uint256"
						},
						{
							"internalType": "address",
							"name": "collaborator",
							"type": "address"
						},
						{
							"internalType": "uint256",
							"name": "collaboratorPercent",
							"type": "uint256"
						},
						{
							"internalType": "uint256",
							"name": "tokenId",
							"type": "uint256"
						},
						{
							"internalType": "string",
							"name": "uri",
							"type": "string"
						}
					],
					"name": "mint",
					"outputs": [],
					"stateMutability": "nonpayable",
					"type": "function"
				},
				{
					"inputs": [],
					"name": "name",
					"outputs": [
						{
							"internalType": "string",
							"name": "",
							"type": "string"
						}
					],
					"stateMutability": "view",
					"type": "function"
				},
				{
					"inputs": [
						{
							"internalType": "uint256",
							"name": "tokenId",
							"type": "uint256"
						}
					],
					"name": "ownerOf",
					"outputs": [
						{
							"internalType": "address",
							"name": "",
							"type": "address"
						}
					],
					"stateMutability": "view",
					"type": "function"
				},
				{
					"inputs": [
						{
							"internalType": "uint256",
							"name": "tokenId",
							"type": "uint256"
						}
					],
					"name": "ownerPercentageOf",
					"outputs": [
						{
							"internalType": "uint256",
							"name": "",
							"type": "uint256"
						}
					],
					"stateMutability": "view",
					"type": "function"
				},
				{
					"inputs": [
						{
							"internalType": "address",
							"name": "from",
							"type": "address"
						},
						{
							"internalType": "address",
							"name": "to",
							"type": "address"
						},
						{
							"internalType": "uint256",
							"name": "tokenId",
							"type": "uint256"
						}
					],
					"name": "safeTransferFrom",
					"outputs": [],
					"stateMutability": "nonpayable",
					"type": "function"
				},
				{
					"inputs": [
						{
							"internalType": "address",
							"name": "from",
							"type": "address"
						},
						{
							"internalType": "address",
							"name": "to",
							"type": "address"
						},
						{
							"internalType": "uint256",
							"name": "tokenId",
							"type": "uint256"
						},
						{
							"internalType": "bytes",
							"name": "data",
							"type": "bytes"
						}
					],
					"name": "safeTransferFrom",
					"outputs": [],
					"stateMutability": "nonpayable",
					"type": "function"
				},
				{
					"inputs": [
						{
							"internalType": "address",
							"name": "operator",
							"type": "address"
						},
						{
							"internalType": "bool",
							"name": "approved",
							"type": "bool"
						}
					],
					"name": "setApprovalForAll",
					"outputs": [],
					"stateMutability": "nonpayable",
					"type": "function"
				},
				{
					"inputs": [
						{
							"internalType": "bytes4",
							"name": "interfaceId",
							"type": "bytes4"
						}
					],
					"name": "supportsInterface",
					"outputs": [
						{
							"internalType": "bool",
							"name": "",
							"type": "bool"
						}
					],
					"stateMutability": "view",
					"type": "function"
				},
				{
					"inputs": [],
					"name": "symbol",
					"outputs": [
						{
							"internalType": "string",
							"name": "",
							"type": "string"
						}
					],
					"stateMutability": "view",
					"type": "function"
				},
				{
					"inputs": [
						{
							"internalType": "uint256",
							"name": "tokenId",
							"type": "uint256"
						}
					],
					"name": "tokenURI",
					"outputs": [
						{
							"internalType": "string",
							"name": "",
							"type": "string"
						}
					],
					"stateMutability": "view",
					"type": "function"
				},
				{
					"inputs": [
						{
							"internalType": "address",
							"name": "from",
							"type": "address"
						},
						{
							"internalType": "address",
							"name": "to",
							"type": "address"
						},
						{
							"internalType": "uint256",
							"name": "tokenId",
							"type": "uint256"
						}
					],
					"name": "transferFrom",
					"outputs": [],
					"stateMutability": "nonpayable",
					"type": "function"
				}
			],
			"devdoc": {
				"kind": "dev",
				"methods": {
					"approve(address,uint256)": {
						"details": "Gives permission to `to` to transfer `tokenId` token to another account. The approval is cleared when the token is transferred. Only a single account can be approved at a time, so approving the zero address clears previous approvals. Requirements: - The caller must own the token or be an approved operator. - `tokenId` must exist. Emits an {Approval} event."
					},
					"balanceOf(address)": {
						"details": "Returns the number of tokens in ``owner``'s account."
					},
					"getApproved(uint256)": {
						"details": "Returns the account approved for `tokenId` token. Requirements: - `tokenId` must exist."
					},
					"isApprovedForAll(address,address)": {
						"details": "Returns if the `operator` is allowed to manage all of the assets of `owner`. See {setApprovalForAll}"
					},
					"name()": {
						"details": "Returns the token collection name."
					},
					"ownerOf(uint256)": {
						"details": "Returns the owner of the `tokenId` token. Requirements: - `tokenId` must exist."
					},
					"safeTransferFrom(address,address,uint256)": {
						"details": "Safely transfers `tokenId` token from `from` to `to`, checking first that contract recipients are aware of the ERC721 protocol to prevent tokens from being forever locked. Requirements: - `from` cannot be the zero address. - `to` cannot be the zero address. - `tokenId` token must exist and be owned by `from`. - If the caller is not `from`, it must be have been allowed to move this token by either {approve} or {setApprovalForAll}. - If `to` refers to a smart contract, it must implement {IERC721Receiver-onERC721Received}, which is called upon a safe transfer. Emits a {Transfer} event."
					},
					"safeTransferFrom(address,address,uint256,bytes)": {
						"details": "Safely transfers `tokenId` token from `from` to `to`. Requirements: - `from` cannot be the zero address. - `to` cannot be the zero address. - `tokenId` token must exist and be owned by `from`. - If the caller is not `from`, it must be approved to move this token by either {approve} or {setApprovalForAll}. - If `to` refers to a smart contract, it must implement {IERC721Receiver-onERC721Received}, which is called upon a safe transfer. Emits a {Transfer} event."
					},
					"symbol()": {
						"details": "Returns the token collection symbol."
					},
					"tokenURI(uint256)": {
						"details": "Returns the Uniform Resource Identifier (URI) for `tokenId` token."
					},
					"transferFrom(address,address,uint256)": {
						"details": "Transfers `tokenId` token from `from` to `to`. WARNING: Usage of this method is discouraged, use {safeTransferFrom} whenever possible. Requirements: - `from` cannot be the zero address. - `to` cannot be the zero address. - `tokenId` token must be owned by `from`. - If the caller is not `from`, it must be approved to move this token by either {approve} or {setApprovalForAll}. Emits a {Transfer} event."
					}
				},
				"version": 1
			},
			"evm": {
				"assembly": "    /* \"contracts/nft.sol\":677:10885  contract nft is Context, ERC165, IERC721, IERC721Metadata {\r... */\n  mstore(0x40, 0x80)\n    /* \"contracts/nft.sol\":1418:1534  constructor(string memory name_, string memory symbol_) {\r... */\n  callvalue\n  dup1\n  iszero\n  tag_1\n  jumpi\n  0x00\n  dup1\n  revert\ntag_1:\n  pop\n  mload(0x40)\n  sub(codesize, bytecodeSize)\n  dup1\n  bytecodeSize\n  dup4\n  codecopy\n  dup2\n  dup2\n  add\n  0x40\n  mstore\n  dup2\n  add\n  swap1\n  tag_2\n  swap2\n  swap1\n  tag_3\n  jump\t// in\ntag_2:\n    /* \"contracts/nft.sol\":1493:1498  name_ */\n  dup2\n    /* \"contracts/nft.sol\":1485:1490  _name */\n  0x00\n    /* \"contracts/nft.sol\":1485:1498  _name = name_ */\n  swap1\n  dup1\n  mload\n  swap1\n  0x20\n  add\n  swap1\n  tag_6\n  swap3\n  swap2\n  swap1\n  tag_7\n  jump\t// in\ntag_6:\n  pop\n    /* \"contracts/nft.sol\":1519:1526  symbol_ */\n  dup1\n    /* \"contracts/nft.sol\":1509:1516  _symbol */\n  0x01\n    /* \"contracts/nft.sol\":1509:1526  _symbol = symbol_ */\n  swap1\n  dup1\n  mload\n  swap1\n  0x20\n  add\n  swap1\n  tag_8\n  swap3\n  swap2\n  swap1\n  tag_7\n  jump\t// in\ntag_8:\n  pop\n    /* \"contracts/nft.sol\":1418:1534  constructor(string memory name_, string memory symbol_) {\r... */\n  pop\n  pop\n    /* \"contracts/nft.sol\":677:10885  contract nft is Context, ERC165, IERC721, IERC721Metadata {\r... */\n  jump(tag_9)\ntag_7:\n  dup3\n  dup1\n  sload\n  tag_10\n  swap1\n  tag_11\n  jump\t// in\ntag_10:\n  swap1\n  0x00\n  mstore\n  keccak256(0x00, 0x20)\n  swap1\n  0x1f\n  add\n  0x20\n  swap1\n  div\n  dup2\n  add\n  swap3\n  dup3\n  tag_13\n  jumpi\n  0x00\n  dup6\n  sstore\n  jump(tag_12)\ntag_13:\n  dup3\n  0x1f\n  lt\n  tag_14\n  jumpi\n  dup1\n  mload\n  not(0xff)\n  and\n  dup4\n  dup1\n  add\n  or\n  dup6\n  sstore\n  jump(tag_12)\ntag_14:\n  dup3\n  dup1\n  add\n  0x01\n  add\n  dup6\n  sstore\n  dup3\n  iszero\n  tag_12\n  jumpi\n  swap2\n  dup3\n  add\ntag_15:\n  dup3\n  dup2\n  gt\n  iszero\n  tag_16\n  jumpi\n  dup3\n  mload\n  dup3\n  sstore\n  swap2\n  0x20\n  add\n  swap2\n  swap1\n  0x01\n  add\n  swap1\n  jump(tag_15)\ntag_16:\ntag_12:\n  pop\n  swap1\n  pop\n  tag_17\n  swap2\n  swap1\n  tag_18\n  jump\t// in\ntag_17:\n  pop\n  swap1\n  jump\t// out\ntag_18:\ntag_19:\n  dup1\n  dup3\n  gt\n  iszero\n  tag_20\n  jumpi\n  0x00\n  dup2\n  0x00\n  swap1\n  sstore\n  pop\n  0x01\n  add\n  jump(tag_19)\ntag_20:\n  pop\n  swap1\n  jump\t// out\n    /* \"#utility.yul\":7:361   */\ntag_22:\n    /* \"#utility.yul\":96:101   */\n  0x00\n    /* \"#utility.yul\":121:187   */\n  tag_24\n    /* \"#utility.yul\":137:186   */\n  tag_25\n    /* \"#utility.yul\":179:185   */\n  dup5\n    /* \"#utility.yul\":137:186   */\n  tag_26\n  jump\t// in\ntag_25:\n    /* \"#utility.yul\":121:187   */\n  tag_27\n  jump\t// in\ntag_24:\n    /* \"#utility.yul\":112:187   */\n  swap1\n  pop\n    /* \"#utility.yul\":210:216   */\n  dup3\n    /* \"#utility.yul\":203:208   */\n  dup2\n    /* \"#utility.yul\":196:217   */\n  mstore\n    /* \"#utility.yul\":248:252   */\n  0x20\n    /* \"#utility.yul\":241:246   */\n  dup2\n    /* \"#utility.yul\":237:253   */\n  add\n    /* \"#utility.yul\":286:289   */\n  dup5\n    /* \"#utility.yul\":277:283   */\n  dup5\n    /* \"#utility.yul\":272:275   */\n  dup5\n    /* \"#utility.yul\":268:284   */\n  add\n    /* \"#utility.yul\":265:290   */\n  gt\n    /* \"#utility.yul\":262:264   */\n  iszero\n  tag_28\n  jumpi\n    /* \"#utility.yul\":303:304   */\n  0x00\n    /* \"#utility.yul\":300:301   */\n  dup1\n    /* \"#utility.yul\":293:305   */\n  revert\n    /* \"#utility.yul\":262:264   */\ntag_28:\n    /* \"#utility.yul\":316:355   */\n  tag_29\n    /* \"#utility.yul\":348:354   */\n  dup5\n    /* \"#utility.yul\":343:346   */\n  dup3\n    /* \"#utility.yul\":338:341   */\n  dup6\n    /* \"#utility.yul\":316:355   */\n  tag_30\n  jump\t// in\ntag_29:\n    /* \"#utility.yul\":102:361   */\n  pop\n  swap4\n  swap3\n  pop\n  pop\n  pop\n  jump\t// out\n    /* \"#utility.yul\":381:669   */\ntag_31:\n    /* \"#utility.yul\":448:453   */\n  0x00\n    /* \"#utility.yul\":497:500   */\n  dup3\n    /* \"#utility.yul\":490:494   */\n  0x1f\n    /* \"#utility.yul\":482:488   */\n  dup4\n    /* \"#utility.yul\":478:495   */\n  add\n    /* \"#utility.yul\":474:501   */\n  slt\n    /* \"#utility.yul\":464:466   */\n  tag_33\n  jumpi\n    /* \"#utility.yul\":515:516   */\n  0x00\n    /* \"#utility.yul\":512:513   */\n  dup1\n    /* \"#utility.yul\":505:517   */\n  revert\n    /* \"#utility.yul\":464:466   */\ntag_33:\n    /* \"#utility.yul\":548:554   */\n  dup2\n    /* \"#utility.yul\":542:555   */\n  mload\n    /* \"#utility.yul\":573:663   */\n  tag_34\n    /* \"#utility.yul\":659:662   */\n  dup5\n    /* \"#utility.yul\":651:657   */\n  dup3\n    /* \"#utility.yul\":644:648   */\n  0x20\n    /* \"#utility.yul\":636:642   */\n  dup7\n    /* \"#utility.yul\":632:649   */\n  add\n    /* \"#utility.yul\":573:663   */\n  tag_22\n  jump\t// in\ntag_34:\n    /* \"#utility.yul\":564:663   */\n  swap2\n  pop\n    /* \"#utility.yul\":454:669   */\n  pop\n  swap3\n  swap2\n  pop\n  pop\n  jump\t// out\n    /* \"#utility.yul\":675:1327   */\ntag_3:\n    /* \"#utility.yul\":774:780   */\n  0x00\n    /* \"#utility.yul\":782:788   */\n  dup1\n    /* \"#utility.yul\":831:833   */\n  0x40\n    /* \"#utility.yul\":819:828   */\n  dup4\n    /* \"#utility.yul\":810:817   */\n  dup6\n    /* \"#utility.yul\":806:829   */\n  sub\n    /* \"#utility.yul\":802:834   */\n  slt\n    /* \"#utility.yul\":799:801   */\n  iszero\n  tag_36\n  jumpi\n    /* \"#utility.yul\":847:848   */\n  0x00\n    /* \"#utility.yul\":844:845   */\n  dup1\n    /* \"#utility.yul\":837:849   */\n  revert\n    /* \"#utility.yul\":799:801   */\ntag_36:\n    /* \"#utility.yul\":911:912   */\n  0x00\n    /* \"#utility.yul\":900:909   */\n  dup4\n    /* \"#utility.yul\":896:913   */\n  add\n    /* \"#utility.yul\":890:914   */\n  mload\n    /* \"#utility.yul\":941:959   */\n  0xffffffffffffffff\n    /* \"#utility.yul\":933:939   */\n  dup2\n    /* \"#utility.yul\":930:960   */\n  gt\n    /* \"#utility.yul\":927:929   */\n  iszero\n  tag_37\n  jumpi\n    /* \"#utility.yul\":973:974   */\n  0x00\n    /* \"#utility.yul\":970:971   */\n  dup1\n    /* \"#utility.yul\":963:975   */\n  revert\n    /* \"#utility.yul\":927:929   */\ntag_37:\n    /* \"#utility.yul\":1001:1075   */\n  tag_38\n    /* \"#utility.yul\":1067:1074   */\n  dup6\n    /* \"#utility.yul\":1058:1064   */\n  dup3\n    /* \"#utility.yul\":1047:1056   */\n  dup7\n    /* \"#utility.yul\":1043:1065   */\n  add\n    /* \"#utility.yul\":1001:1075   */\n  tag_31\n  jump\t// in\ntag_38:\n    /* \"#utility.yul\":991:1075   */\n  swap3\n  pop\n    /* \"#utility.yul\":861:1085   */\n  pop\n    /* \"#utility.yul\":1145:1147   */\n  0x20\n    /* \"#utility.yul\":1134:1143   */\n  dup4\n    /* \"#utility.yul\":1130:1148   */\n  add\n    /* \"#utility.yul\":1124:1149   */\n  mload\n    /* \"#utility.yul\":1176:1194   */\n  0xffffffffffffffff\n    /* \"#utility.yul\":1168:1174   */\n  dup2\n    /* \"#utility.yul\":1165:1195   */\n  gt\n    /* \"#utility.yul\":1162:1164   */\n  iszero\n  tag_39\n  jumpi\n    /* \"#utility.yul\":1208:1209   */\n  0x00\n    /* \"#utility.yul\":1205:1206   */\n  dup1\n    /* \"#utility.yul\":1198:1210   */\n  revert\n    /* \"#utility.yul\":1162:1164   */\ntag_39:\n    /* \"#utility.yul\":1236:1310   */\n  tag_40\n    /* \"#utility.yul\":1302:1309   */\n  dup6\n    /* \"#utility.yul\":1293:1299   */\n  dup3\n    /* \"#utility.yul\":1282:1291   */\n  dup7\n    /* \"#utility.yul\":1278:1300   */\n  add\n    /* \"#utility.yul\":1236:1310   */\n  tag_31\n  jump\t// in\ntag_40:\n    /* \"#utility.yul\":1226:1310   */\n  swap2\n  pop\n    /* \"#utility.yul\":1095:1320   */\n  pop\n    /* \"#utility.yul\":789:1327   */\n  swap3\n  pop\n  swap3\n  swap1\n  pop\n  jump\t// out\n    /* \"#utility.yul\":1333:1462   */\ntag_27:\n    /* \"#utility.yul\":1367:1373   */\n  0x00\n    /* \"#utility.yul\":1394:1414   */\n  tag_42\n  tag_43\n  jump\t// in\ntag_42:\n    /* \"#utility.yul\":1384:1414   */\n  swap1\n  pop\n    /* \"#utility.yul\":1423:1456   */\n  tag_44\n    /* \"#utility.yul\":1451:1455   */\n  dup3\n    /* \"#utility.yul\":1443:1449   */\n  dup3\n    /* \"#utility.yul\":1423:1456   */\n  tag_45\n  jump\t// in\ntag_44:\n    /* \"#utility.yul\":1374:1462   */\n  swap2\n  swap1\n  pop\n  jump\t// out\n    /* \"#utility.yul\":1468:1543   */\ntag_43:\n    /* \"#utility.yul\":1501:1507   */\n  0x00\n    /* \"#utility.yul\":1534:1536   */\n  0x40\n    /* \"#utility.yul\":1528:1537   */\n  mload\n    /* \"#utility.yul\":1518:1537   */\n  swap1\n  pop\n    /* \"#utility.yul\":1508:1543   */\n  swap1\n  jump\t// out\n    /* \"#utility.yul\":1549:1857   */\ntag_26:\n    /* \"#utility.yul\":1611:1615   */\n  0x00\n    /* \"#utility.yul\":1701:1719   */\n  0xffffffffffffffff\n    /* \"#utility.yul\":1693:1699   */\n  dup3\n    /* \"#utility.yul\":1690:1720   */\n  gt\n    /* \"#utility.yul\":1687:1689   */\n  iszero\n  tag_48\n  jumpi\n    /* \"#utility.yul\":1723:1741   */\n  tag_49\n  tag_50\n  jump\t// in\ntag_49:\n    /* \"#utility.yul\":1687:1689   */\ntag_48:\n    /* \"#utility.yul\":1761:1790   */\n  tag_51\n    /* \"#utility.yul\":1783:1789   */\n  dup3\n    /* \"#utility.yul\":1761:1790   */\n  tag_52\n  jump\t// in\ntag_51:\n    /* \"#utility.yul\":1753:1790   */\n  swap1\n  pop\n    /* \"#utility.yul\":1845:1849   */\n  0x20\n    /* \"#utility.yul\":1839:1843   */\n  dup2\n    /* \"#utility.yul\":1835:1850   */\n  add\n    /* \"#utility.yul\":1827:1850   */\n  swap1\n  pop\n    /* \"#utility.yul\":1616:1857   */\n  swap2\n  swap1\n  pop\n  jump\t// out\n    /* \"#utility.yul\":1863:2170   */\ntag_30:\n    /* \"#utility.yul\":1931:1932   */\n  0x00\n    /* \"#utility.yul\":1941:2054   */\ntag_54:\n    /* \"#utility.yul\":1955:1961   */\n  dup4\n    /* \"#utility.yul\":1952:1953   */\n  dup2\n    /* \"#utility.yul\":1949:1962   */\n  lt\n    /* \"#utility.yul\":1941:2054   */\n  iszero\n  tag_56\n  jumpi\n    /* \"#utility.yul\":2040:2041   */\n  dup1\n    /* \"#utility.yul\":2035:2038   */\n  dup3\n    /* \"#utility.yul\":2031:2042   */\n  add\n    /* \"#utility.yul\":2025:2043   */\n  mload\n    /* \"#utility.yul\":2021:2022   */\n  dup2\n    /* \"#utility.yul\":2016:2019   */\n  dup5\n    /* \"#utility.yul\":2012:2023   */\n  add\n    /* \"#utility.yul\":2005:2044   */\n  mstore\n    /* \"#utility.yul\":1977:1979   */\n  0x20\n    /* \"#utility.yul\":1974:1975   */\n  dup2\n    /* \"#utility.yul\":1970:1980   */\n  add\n    /* \"#utility.yul\":1965:1980   */\n  swap1\n  pop\n    /* \"#utility.yul\":1941:2054   */\n  jump(tag_54)\ntag_56:\n    /* \"#utility.yul\":2072:2078   */\n  dup4\n    /* \"#utility.yul\":2069:2070   */\n  dup2\n    /* \"#utility.yul\":2066:2079   */\n  gt\n    /* \"#utility.yul\":2063:2065   */\n  iszero\n  tag_57\n  jumpi\n    /* \"#utility.yul\":2152:2153   */\n  0x00\n    /* \"#utility.yul\":2143:2149   */\n  dup5\n    /* \"#utility.yul\":2138:2141   */\n  dup5\n    /* \"#utility.yul\":2134:2150   */\n  add\n    /* \"#utility.yul\":2127:2154   */\n  mstore\n    /* \"#utility.yul\":2063:2065   */\ntag_57:\n    /* \"#utility.yul\":1912:2170   */\n  pop\n  pop\n  pop\n  pop\n  jump\t// out\n    /* \"#utility.yul\":2176:2496   */\ntag_11:\n    /* \"#utility.yul\":2220:2226   */\n  0x00\n    /* \"#utility.yul\":2257:2258   */\n  0x02\n    /* \"#utility.yul\":2251:2255   */\n  dup3\n    /* \"#utility.yul\":2247:2259   */\n  div\n    /* \"#utility.yul\":2237:2259   */\n  swap1\n  pop\n    /* \"#utility.yul\":2304:2305   */\n  0x01\n    /* \"#utility.yul\":2298:2302   */\n  dup3\n    /* \"#utility.yul\":2294:2306   */\n  and\n    /* \"#utility.yul\":2325:2343   */\n  dup1\n    /* \"#utility.yul\":2315:2317   */\n  tag_59\n  jumpi\n    /* \"#utility.yul\":2381:2385   */\n  0x7f\n    /* \"#utility.yul\":2373:2379   */\n  dup3\n    /* \"#utility.yul\":2369:2386   */\n  and\n    /* \"#utility.yul\":2359:2386   */\n  swap2\n  pop\n    /* \"#utility.yul\":2315:2317   */\ntag_59:\n    /* \"#utility.yul\":2443:2445   */\n  0x20\n    /* \"#utility.yul\":2435:2441   */\n  dup3\n    /* \"#utility.yul\":2432:2446   */\n  lt\n    /* \"#utility.yul\":2412:2430   */\n  dup2\n    /* \"#utility.yul\":2409:2447   */\n  eq\n    /* \"#utility.yul\":2406:2408   */\n  iszero\n  tag_60\n  jumpi\n    /* \"#utility.yul\":2462:2480   */\n  tag_61\n  tag_62\n  jump\t// in\ntag_61:\n    /* \"#utility.yul\":2406:2408   */\ntag_60:\n    /* \"#utility.yul\":2227:2496   */\n  pop\n  swap2\n  swap1\n  pop\n  jump\t// out\n    /* \"#utility.yul\":2502:2783   */\ntag_45:\n    /* \"#utility.yul\":2585:2612   */\n  tag_64\n    /* \"#utility.yul\":2607:2611   */\n  dup3\n    /* \"#utility.yul\":2585:2612   */\n  tag_52\n  jump\t// in\ntag_64:\n    /* \"#utility.yul\":2577:2583   */\n  dup2\n    /* \"#utility.yul\":2573:2613   */\n  add\n    /* \"#utility.yul\":2715:2721   */\n  dup2\n    /* \"#utility.yul\":2703:2713   */\n  dup2\n    /* \"#utility.yul\":2700:2722   */\n  lt\n    /* \"#utility.yul\":2679:2697   */\n  0xffffffffffffffff\n    /* \"#utility.yul\":2667:2677   */\n  dup3\n    /* \"#utility.yul\":2664:2698   */\n  gt\n    /* \"#utility.yul\":2661:2723   */\n  or\n    /* \"#utility.yul\":2658:2660   */\n  iszero\n  tag_65\n  jumpi\n    /* \"#utility.yul\":2726:2744   */\n  tag_66\n  tag_50\n  jump\t// in\ntag_66:\n    /* \"#utility.yul\":2658:2660   */\ntag_65:\n    /* \"#utility.yul\":2766:2776   */\n  dup1\n    /* \"#utility.yul\":2762:2764   */\n  0x40\n    /* \"#utility.yul\":2755:2777   */\n  mstore\n    /* \"#utility.yul\":2545:2783   */\n  pop\n  pop\n  pop\n  jump\t// out\n    /* \"#utility.yul\":2789:2969   */\ntag_62:\n    /* \"#utility.yul\":2837:2914   */\n  0x4e487b7100000000000000000000000000000000000000000000000000000000\n    /* \"#utility.yul\":2834:2835   */\n  0x00\n    /* \"#utility.yul\":2827:2915   */\n  mstore\n    /* \"#utility.yul\":2934:2938   */\n  0x22\n    /* \"#utility.yul\":2931:2932   */\n  0x04\n    /* \"#utility.yul\":2924:2939   */\n  mstore\n    /* \"#utility.yul\":2958:2962   */\n  0x24\n    /* \"#utility.yul\":2955:2956   */\n  0x00\n    /* \"#utility.yul\":2948:2963   */\n  revert\n    /* \"#utility.yul\":2975:3155   */\ntag_50:\n    /* \"#utility.yul\":3023:3100   */\n  0x4e487b7100000000000000000000000000000000000000000000000000000000\n    /* \"#utility.yul\":3020:3021   */\n  0x00\n    /* \"#utility.yul\":3013:3101   */\n  mstore\n    /* \"#utility.yul\":3120:3124   */\n  0x41\n    /* \"#utility.yul\":3117:3118   */\n  0x04\n    /* \"#utility.yul\":3110:3125   */\n  mstore\n    /* \"#utility.yul\":3144:3148   */\n  0x24\n    /* \"#utility.yul\":3141:3142   */\n  0x00\n    /* \"#utility.yul\":3134:3149   */\n  revert\n    /* \"#utility.yul\":3161:3263   */\ntag_52:\n    /* \"#utility.yul\":3202:3208   */\n  0x00\n    /* \"#utility.yul\":3253:3255   */\n  0x1f\n    /* \"#utility.yul\":3249:3256   */\n  not\n    /* \"#utility.yul\":3244:3246   */\n  0x1f\n    /* \"#utility.yul\":3237:3242   */\n  dup4\n    /* \"#utility.yul\":3233:3247   */\n  add\n    /* \"#utility.yul\":3229:3257   */\n  and\n    /* \"#utility.yul\":3219:3257   */\n  swap1\n  pop\n    /* \"#utility.yul\":3209:3263   */\n  swap2\n  swap1\n  pop\n  jump\t// out\n    /* \"contracts/nft.sol\":677:10885  contract nft is Context, ERC165, IERC721, IERC721Metadata {\r... */\ntag_9:\n  dataSize(sub_0)\n  dup1\n  dataOffset(sub_0)\n  0x00\n  codecopy\n  0x00\n  return\nstop\n\nsub_0: assembly {\n        /* \"contracts/nft.sol\":677:10885  contract nft is Context, ERC165, IERC721, IERC721Metadata {\r... */\n      mstore(0x40, 0x80)\n      callvalue\n      dup1\n      iszero\n      tag_1\n      jumpi\n      0x00\n      dup1\n      revert\n    tag_1:\n      pop\n      jumpi(tag_2, lt(calldatasize, 0x04))\n      shr(0xe0, calldataload(0x00))\n      dup1\n      0x64abe37b\n      gt\n      tag_20\n      jumpi\n      dup1\n      0xa22cb465\n      gt\n      tag_21\n      jumpi\n      dup1\n      0xa22cb465\n      eq\n      tag_15\n      jumpi\n      dup1\n      0xb88d4fde\n      eq\n      tag_16\n      jumpi\n      dup1\n      0xc87b56dd\n      eq\n      tag_17\n      jumpi\n      dup1\n      0xe985e9c5\n      eq\n      tag_18\n      jumpi\n      dup1\n      0xee48cda2\n      eq\n      tag_19\n      jumpi\n      jump(tag_2)\n    tag_21:\n      dup1\n      0x64abe37b\n      eq\n      tag_11\n      jumpi\n      dup1\n      0x70a08231\n      eq\n      tag_12\n      jumpi\n      dup1\n      0x95d89b41\n      eq\n      tag_13\n      jumpi\n      dup1\n      0x99eb80a9\n      eq\n      tag_14\n      jumpi\n      jump(tag_2)\n    tag_20:\n      dup1\n      0x23b872dd\n      gt\n      tag_22\n      jumpi\n      dup1\n      0x23b872dd\n      eq\n      tag_7\n      jumpi\n      dup1\n      0x42842e0e\n      eq\n      tag_8\n      jumpi\n      dup1\n      0x52e04825\n      eq\n      tag_9\n      jumpi\n      dup1\n      0x6352211e\n      eq\n      tag_10\n      jumpi\n      jump(tag_2)\n    tag_22:\n      dup1\n      0x01ffc9a7\n      eq\n      tag_3\n      jumpi\n      dup1\n      0x06fdde03\n      eq\n      tag_4\n      jumpi\n      dup1\n      0x081812fc\n      eq\n      tag_5\n      jumpi\n      dup1\n      0x095ea7b3\n      eq\n      tag_6\n      jumpi\n    tag_2:\n      0x00\n      dup1\n      revert\n        /* \"contracts/nft.sol\":1544:1849  function supportsInterface(bytes4 interfaceId) public view virtual override(ERC165, IERC165) returns (bool) {\r... */\n    tag_3:\n      tag_23\n      0x04\n      dup1\n      calldatasize\n      sub\n      dup2\n      add\n      swap1\n      tag_24\n      swap2\n      swap1\n      tag_25\n      jump\t// in\n    tag_24:\n      tag_26\n      jump\t// in\n    tag_23:\n      mload(0x40)\n      tag_27\n      swap2\n      swap1\n      tag_28\n      jump\t// in\n    tag_27:\n      mload(0x40)\n      dup1\n      swap2\n      sub\n      swap1\n      return\n        /* \"contracts/nft.sol\":2981:3081  function name() public view virtual override returns (string memory) {\r... */\n    tag_4:\n      tag_29\n      tag_30\n      jump\t// in\n    tag_29:\n      mload(0x40)\n      tag_31\n      swap2\n      swap1\n      tag_32\n      jump\t// in\n    tag_31:\n      mload(0x40)\n      dup1\n      swap2\n      sub\n      swap1\n      return\n        /* \"contracts/nft.sol\":4023:4194  function getApproved(uint256 tokenId) public view virtual override returns (address) {\r... */\n    tag_5:\n      tag_33\n      0x04\n      dup1\n      calldatasize\n      sub\n      dup2\n      add\n      swap1\n      tag_34\n      swap2\n      swap1\n      tag_35\n      jump\t// in\n    tag_34:\n      tag_36\n      jump\t// in\n    tag_33:\n      mload(0x40)\n      tag_37\n      swap2\n      swap1\n      tag_38\n      jump\t// in\n    tag_37:\n      mload(0x40)\n      dup1\n      swap2\n      sub\n      swap1\n      return\n        /* \"contracts/nft.sol\":3599:4012  function approve(address to, uint256 tokenId) public virtual override {\r... */\n    tag_6:\n      tag_39\n      0x04\n      dup1\n      calldatasize\n      sub\n      dup2\n      add\n      swap1\n      tag_40\n      swap2\n      swap1\n      tag_41\n      jump\t// in\n    tag_40:\n      tag_42\n      jump\t// in\n    tag_39:\n      stop\n        /* \"contracts/nft.sol\":4545:4827  function transferFrom(\r... */\n    tag_7:\n      tag_43\n      0x04\n      dup1\n      calldatasize\n      sub\n      dup2\n      add\n      swap1\n      tag_44\n      swap2\n      swap1\n      tag_45\n      jump\t// in\n    tag_44:\n      tag_46\n      jump\t// in\n    tag_43:\n      stop\n        /* \"contracts/nft.sol\":4837:5022  function safeTransferFrom(\r... */\n    tag_8:\n      tag_47\n      0x04\n      dup1\n      calldatasize\n      sub\n      dup2\n      add\n      swap1\n      tag_48\n      swap2\n      swap1\n      tag_45\n      jump\t// in\n    tag_48:\n      tag_49\n      jump\t// in\n    tag_47:\n      stop\n        /* \"contracts/nft.sol\":2307:2555  function collaboratotOf(uint256 tokenId) public view virtual returns (address) {\r... */\n    tag_9:\n      tag_50\n      0x04\n      dup1\n      calldatasize\n      sub\n      dup2\n      add\n      swap1\n      tag_51\n      swap2\n      swap1\n      tag_35\n      jump\t// in\n    tag_51:\n      tag_52\n      jump\t// in\n    tag_50:\n      mload(0x40)\n      tag_53\n      swap2\n      swap1\n      tag_38\n      jump\t// in\n    tag_53:\n      mload(0x40)\n      dup1\n      swap2\n      sub\n      swap1\n      return\n        /* \"contracts/nft.sol\":2076:2298  function ownerOf(uint256 tokenId) public view virtual override returns (address) {\r... */\n    tag_10:\n      tag_54\n      0x04\n      dup1\n      calldatasize\n      sub\n      dup2\n      add\n      swap1\n      tag_55\n      swap2\n      swap1\n      tag_35\n      jump\t// in\n    tag_55:\n      tag_56\n      jump\t// in\n    tag_54:\n      mload(0x40)\n      tag_57\n      swap2\n      swap1\n      tag_38\n      jump\t// in\n    tag_57:\n      mload(0x40)\n      dup1\n      swap2\n      sub\n      swap1\n      return\n        /* \"contracts/nft.sol\":2785:2971  function ownerPercentageOf(uint256 tokenId) public view virtual returns (uint256) {\r... */\n    tag_11:\n      tag_58\n      0x04\n      dup1\n      calldatasize\n      sub\n      dup2\n      add\n      swap1\n      tag_59\n      swap2\n      swap1\n      tag_35\n      jump\t// in\n    tag_59:\n      tag_60\n      jump\t// in\n    tag_58:\n      mload(0x40)\n      tag_61\n      swap2\n      swap1\n      tag_62\n      jump\t// in\n    tag_61:\n      mload(0x40)\n      dup1\n      swap2\n      sub\n      swap1\n      return\n        /* \"contracts/nft.sol\":1859:2066  function balanceOf(address owner) public view virtual override returns (uint256) {\r... */\n    tag_12:\n      tag_63\n      0x04\n      dup1\n      calldatasize\n      sub\n      dup2\n      add\n      swap1\n      tag_64\n      swap2\n      swap1\n      tag_65\n      jump\t// in\n    tag_64:\n      tag_66\n      jump\t// in\n    tag_63:\n      mload(0x40)\n      tag_67\n      swap2\n      swap1\n      tag_62\n      jump\t// in\n    tag_67:\n      mload(0x40)\n      dup1\n      swap2\n      sub\n      swap1\n      return\n        /* \"contracts/nft.sol\":3092:3196  function symbol() public view virtual override returns (string memory) {\r... */\n    tag_13:\n      tag_68\n      tag_69\n      jump\t// in\n    tag_68:\n      mload(0x40)\n      tag_70\n      swap2\n      swap1\n      tag_32\n      jump\t// in\n    tag_70:\n      mload(0x40)\n      dup1\n      swap2\n      sub\n      swap1\n      return\n        /* \"contracts/nft.sol\":5363:5621  function mint(address to,uint256 ownerPercent,address collaborator,uint256  collaboratorPercent,uint tokenId,string memory uri) public{\r... */\n    tag_14:\n      tag_71\n      0x04\n      dup1\n      calldatasize\n      sub\n      dup2\n      add\n      swap1\n      tag_72\n      swap2\n      swap1\n      tag_73\n      jump\t// in\n    tag_72:\n      tag_74\n      jump\t// in\n    tag_71:\n      stop\n        /* \"contracts/nft.sol\":4206:4361  function setApprovalForAll(address operator, bool approved) public virtual override {\r... */\n    tag_15:\n      tag_75\n      0x04\n      dup1\n      calldatasize\n      sub\n      dup2\n      add\n      swap1\n      tag_76\n      swap2\n      swap1\n      tag_77\n      jump\t// in\n    tag_76:\n      tag_78\n      jump\t// in\n    tag_75:\n      stop\n        /* \"contracts/nft.sol\":5032:5354  function safeTransferFrom(\r... */\n    tag_16:\n      tag_79\n      0x04\n      dup1\n      calldatasize\n      sub\n      dup2\n      add\n      swap1\n      tag_80\n      swap2\n      swap1\n      tag_81\n      jump\t// in\n    tag_80:\n      tag_82\n      jump\t// in\n    tag_79:\n      stop\n        /* \"contracts/nft.sol\":3204:3485  function tokenURI(uint256 tokenId) public view virtual override returns (string memory) {\r... */\n    tag_17:\n      tag_83\n      0x04\n      dup1\n      calldatasize\n      sub\n      dup2\n      add\n      swap1\n      tag_84\n      swap2\n      swap1\n      tag_35\n      jump\t// in\n    tag_84:\n      tag_85\n      jump\t// in\n    tag_83:\n      mload(0x40)\n      tag_86\n      swap2\n      swap1\n      tag_32\n      jump\t// in\n    tag_86:\n      mload(0x40)\n      dup1\n      swap2\n      sub\n      swap1\n      return\n        /* \"contracts/nft.sol\":4371:4535  function isApprovedForAll(address owner, address operator) public view virtual override returns (bool) {\r... */\n    tag_18:\n      tag_87\n      0x04\n      dup1\n      calldatasize\n      sub\n      dup2\n      add\n      swap1\n      tag_88\n      swap2\n      swap1\n      tag_89\n      jump\t// in\n    tag_88:\n      tag_90\n      jump\t// in\n    tag_87:\n      mload(0x40)\n      tag_91\n      swap2\n      swap1\n      tag_28\n      jump\t// in\n    tag_91:\n      mload(0x40)\n      dup1\n      swap2\n      sub\n      swap1\n      return\n        /* \"contracts/nft.sol\":2563:2777  function collaboratotPercentageOf(uint256 tokenId) public view virtual returns (uint256) {\r... */\n    tag_19:\n      tag_92\n      0x04\n      dup1\n      calldatasize\n      sub\n      dup2\n      add\n      swap1\n      tag_93\n      swap2\n      swap1\n      tag_35\n      jump\t// in\n    tag_93:\n      tag_94\n      jump\t// in\n    tag_92:\n      mload(0x40)\n      tag_95\n      swap2\n      swap1\n      tag_62\n      jump\t// in\n    tag_95:\n      mload(0x40)\n      dup1\n      swap2\n      sub\n      swap1\n      return\n        /* \"contracts/nft.sol\":1544:1849  function supportsInterface(bytes4 interfaceId) public view virtual override(ERC165, IERC165) returns (bool) {\r... */\n    tag_26:\n        /* \"contracts/nft.sol\":1646:1650  bool */\n      0x00\n        /* \"contracts/nft.sol\":1698:1723  type(IERC721).interfaceId */\n      0x80ac58cd00000000000000000000000000000000000000000000000000000000\n        /* \"contracts/nft.sol\":1683:1723  interfaceId == type(IERC721).interfaceId */\n      not(0xffffffffffffffffffffffffffffffffffffffffffffffffffffffff)\n      and\n        /* \"contracts/nft.sol\":1683:1694  interfaceId */\n      dup3\n        /* \"contracts/nft.sol\":1683:1723  interfaceId == type(IERC721).interfaceId */\n      not(0xffffffffffffffffffffffffffffffffffffffffffffffffffffffff)\n      and\n      eq\n        /* \"contracts/nft.sol\":1683:1788  interfaceId == type(IERC721).interfaceId ||\r... */\n      dup1\n      tag_97\n      jumpi\n      pop\n        /* \"contracts/nft.sol\":1755:1788  type(IERC721Metadata).interfaceId */\n      0x5b5e139f00000000000000000000000000000000000000000000000000000000\n        /* \"contracts/nft.sol\":1740:1788  interfaceId == type(IERC721Metadata).interfaceId */\n      not(0xffffffffffffffffffffffffffffffffffffffffffffffffffffffff)\n      and\n        /* \"contracts/nft.sol\":1740:1751  interfaceId */\n      dup3\n        /* \"contracts/nft.sol\":1740:1788  interfaceId == type(IERC721Metadata).interfaceId */\n      not(0xffffffffffffffffffffffffffffffffffffffffffffffffffffffff)\n      and\n      eq\n        /* \"contracts/nft.sol\":1683:1788  interfaceId == type(IERC721).interfaceId ||\r... */\n    tag_97:\n        /* \"contracts/nft.sol\":1683:1841  interfaceId == type(IERC721).interfaceId ||\r... */\n      dup1\n      tag_98\n      jumpi\n      pop\n        /* \"contracts/nft.sol\":1805:1841  super.supportsInterface(interfaceId) */\n      tag_99\n        /* \"contracts/nft.sol\":1829:1840  interfaceId */\n      dup3\n        /* \"contracts/nft.sol\":1805:1828  super.supportsInterface */\n      tag_100\n        /* \"contracts/nft.sol\":1805:1841  super.supportsInterface(interfaceId) */\n      jump\t// in\n    tag_99:\n        /* \"contracts/nft.sol\":1683:1841  interfaceId == type(IERC721).interfaceId ||\r... */\n    tag_98:\n        /* \"contracts/nft.sol\":1663:1841  return\r... */\n      swap1\n      pop\n        /* \"contracts/nft.sol\":1544:1849  function supportsInterface(bytes4 interfaceId) public view virtual override(ERC165, IERC165) returns (bool) {\r... */\n      swap2\n      swap1\n      pop\n      jump\t// out\n        /* \"contracts/nft.sol\":2981:3081  function name() public view virtual override returns (string memory) {\r... */\n    tag_30:\n        /* \"contracts/nft.sol\":3035:3048  string memory */\n      0x60\n        /* \"contracts/nft.sol\":3068:3073  _name */\n      0x00\n        /* \"contracts/nft.sol\":3061:3073  return _name */\n      dup1\n      sload\n      tag_102\n      swap1\n      tag_103\n      jump\t// in\n    tag_102:\n      dup1\n      0x1f\n      add\n      0x20\n      dup1\n      swap2\n      div\n      mul\n      0x20\n      add\n      mload(0x40)\n      swap1\n      dup2\n      add\n      0x40\n      mstore\n      dup1\n      swap3\n      swap2\n      swap1\n      dup2\n      dup2\n      mstore\n      0x20\n      add\n      dup3\n      dup1\n      sload\n      tag_104\n      swap1\n      tag_103\n      jump\t// in\n    tag_104:\n      dup1\n      iszero\n      tag_105\n      jumpi\n      dup1\n      0x1f\n      lt\n      tag_106\n      jumpi\n      0x0100\n      dup1\n      dup4\n      sload\n      div\n      mul\n      dup4\n      mstore\n      swap2\n      0x20\n      add\n      swap2\n      jump(tag_105)\n    tag_106:\n      dup3\n      add\n      swap2\n      swap1\n      0x00\n      mstore\n      keccak256(0x00, 0x20)\n      swap1\n    tag_107:\n      dup2\n      sload\n      dup2\n      mstore\n      swap1\n      0x01\n      add\n      swap1\n      0x20\n      add\n      dup1\n      dup4\n      gt\n      tag_107\n      jumpi\n      dup3\n      swap1\n      sub\n      0x1f\n      and\n      dup3\n      add\n      swap2\n    tag_105:\n      pop\n      pop\n      pop\n      pop\n      pop\n      swap1\n      pop\n        /* \"contracts/nft.sol\":2981:3081  function name() public view virtual override returns (string memory) {\r... */\n      swap1\n      jump\t// out\n        /* \"contracts/nft.sol\":4023:4194  function getApproved(uint256 tokenId) public view virtual override returns (address) {\r... */\n    tag_36:\n        /* \"contracts/nft.sol\":4099:4106  address */\n      0x00\n        /* \"contracts/nft.sol\":4119:4142  _requireMinted(tokenId) */\n      tag_109\n        /* \"contracts/nft.sol\":4134:4141  tokenId */\n      dup3\n        /* \"contracts/nft.sol\":4119:4133  _requireMinted */\n      tag_110\n        /* \"contracts/nft.sol\":4119:4142  _requireMinted(tokenId) */\n      jump\t// in\n    tag_109:\n        /* \"contracts/nft.sol\":4162:4177  _tokenApprovals */\n      0x07\n        /* \"contracts/nft.sol\":4162:4186  _tokenApprovals[tokenId] */\n      0x00\n        /* \"contracts/nft.sol\":4178:4185  tokenId */\n      dup4\n        /* \"contracts/nft.sol\":4162:4186  _tokenApprovals[tokenId] */\n      dup2\n      mstore\n      0x20\n      add\n      swap1\n      dup2\n      mstore\n      0x20\n      add\n      0x00\n      keccak256\n      0x00\n      swap1\n      sload\n      swap1\n      0x0100\n      exp\n      swap1\n      div\n      0xffffffffffffffffffffffffffffffffffffffff\n      and\n        /* \"contracts/nft.sol\":4155:4186  return _tokenApprovals[tokenId] */\n      swap1\n      pop\n        /* \"contracts/nft.sol\":4023:4194  function getApproved(uint256 tokenId) public view virtual override returns (address) {\r... */\n      swap2\n      swap1\n      pop\n      jump\t// out\n        /* \"contracts/nft.sol\":3599:4012  function approve(address to, uint256 tokenId) public virtual override {\r... */\n    tag_42:\n        /* \"contracts/nft.sol\":3680:3693  address owner */\n      0x00\n        /* \"contracts/nft.sol\":3696:3716  nft.ownerOf(tokenId) */\n      tag_112\n        /* \"contracts/nft.sol\":3708:3715  tokenId */\n      dup3\n        /* \"contracts/nft.sol\":3696:3707  nft.ownerOf */\n      tag_56\n        /* \"contracts/nft.sol\":3696:3716  nft.ownerOf(tokenId) */\n      jump\t// in\n    tag_112:\n        /* \"contracts/nft.sol\":3680:3716  address owner = nft.ownerOf(tokenId) */\n      swap1\n      pop\n        /* \"contracts/nft.sol\":3741:3746  owner */\n      dup1\n        /* \"contracts/nft.sol\":3735:3746  to != owner */\n      0xffffffffffffffffffffffffffffffffffffffff\n      and\n        /* \"contracts/nft.sol\":3735:3737  to */\n      dup4\n        /* \"contracts/nft.sol\":3735:3746  to != owner */\n      0xffffffffffffffffffffffffffffffffffffffff\n      and\n      eq\n      iszero\n        /* \"contracts/nft.sol\":3727:3784  require(to != owner, \"ERC721: approval to current owner\") */\n      tag_113\n      jumpi\n      mload(0x40)\n      0x08c379a000000000000000000000000000000000000000000000000000000000\n      dup2\n      mstore\n      0x04\n      add\n      tag_114\n      swap1\n      tag_115\n      jump\t// in\n    tag_114:\n      mload(0x40)\n      dup1\n      swap2\n      sub\n      swap1\n      revert\n    tag_113:\n        /* \"contracts/nft.sol\":3835:3840  owner */\n      dup1\n        /* \"contracts/nft.sol\":3819:3840  _msgSender() == owner */\n      0xffffffffffffffffffffffffffffffffffffffff\n      and\n        /* \"contracts/nft.sol\":3819:3831  _msgSender() */\n      tag_116\n        /* \"contracts/nft.sol\":3819:3829  _msgSender */\n      tag_117\n        /* \"contracts/nft.sol\":3819:3831  _msgSender() */\n      jump\t// in\n    tag_116:\n        /* \"contracts/nft.sol\":3819:3840  _msgSender() == owner */\n      0xffffffffffffffffffffffffffffffffffffffff\n      and\n      eq\n        /* \"contracts/nft.sol\":3819:3881  _msgSender() == owner || isApprovedForAll(owner, _msgSender()) */\n      dup1\n      tag_118\n      jumpi\n      pop\n        /* \"contracts/nft.sol\":3844:3881  isApprovedForAll(owner, _msgSender()) */\n      tag_119\n        /* \"contracts/nft.sol\":3861:3866  owner */\n      dup2\n        /* \"contracts/nft.sol\":3868:3880  _msgSender() */\n      tag_120\n        /* \"contracts/nft.sol\":3868:3878  _msgSender */\n      tag_117\n        /* \"contracts/nft.sol\":3868:3880  _msgSender() */\n      jump\t// in\n    tag_120:\n        /* \"contracts/nft.sol\":3844:3860  isApprovedForAll */\n      tag_90\n        /* \"contracts/nft.sol\":3844:3881  isApprovedForAll(owner, _msgSender()) */\n      jump\t// in\n    tag_119:\n        /* \"contracts/nft.sol\":3819:3881  _msgSender() == owner || isApprovedForAll(owner, _msgSender()) */\n    tag_118:\n        /* \"contracts/nft.sol\":3797:3970  require(\r... */\n      tag_121\n      jumpi\n      mload(0x40)\n      0x08c379a000000000000000000000000000000000000000000000000000000000\n      dup2\n      mstore\n      0x04\n      add\n      tag_122\n      swap1\n      tag_123\n      jump\t// in\n    tag_122:\n      mload(0x40)\n      dup1\n      swap2\n      sub\n      swap1\n      revert\n    tag_121:\n        /* \"contracts/nft.sol\":3983:4004  _approve(to, tokenId) */\n      tag_124\n        /* \"contracts/nft.sol\":3992:3994  to */\n      dup4\n        /* \"contracts/nft.sol\":3996:4003  tokenId */\n      dup4\n        /* \"contracts/nft.sol\":3983:3991  _approve */\n      tag_125\n        /* \"contracts/nft.sol\":3983:4004  _approve(to, tokenId) */\n      jump\t// in\n    tag_124:\n        /* \"contracts/nft.sol\":3599:4012  function approve(address to, uint256 tokenId) public virtual override {\r... */\n      pop\n      pop\n      pop\n      jump\t// out\n        /* \"contracts/nft.sol\":4545:4827  function transferFrom(\r... */\n    tag_46:\n        /* \"contracts/nft.sol\":4687:4728  _isApprovedOrOwner(_msgSender(), tokenId) */\n      tag_127\n        /* \"contracts/nft.sol\":4706:4718  _msgSender() */\n      tag_128\n        /* \"contracts/nft.sol\":4706:4716  _msgSender */\n      tag_117\n        /* \"contracts/nft.sol\":4706:4718  _msgSender() */\n      jump\t// in\n    tag_128:\n        /* \"contracts/nft.sol\":4720:4727  tokenId */\n      dup3\n        /* \"contracts/nft.sol\":4687:4705  _isApprovedOrOwner */\n      tag_129\n        /* \"contracts/nft.sol\":4687:4728  _isApprovedOrOwner(_msgSender(), tokenId) */\n      jump\t// in\n    tag_127:\n        /* \"contracts/nft.sol\":4679:4778  require(_isApprovedOrOwner(_msgSender(), tokenId), \"ERC721: caller is not token owner or approved\") */\n      tag_130\n      jumpi\n      mload(0x40)\n      0x08c379a000000000000000000000000000000000000000000000000000000000\n      dup2\n      mstore\n      0x04\n      add\n      tag_131\n      swap1\n      tag_132\n      jump\t// in\n    tag_131:\n      mload(0x40)\n      dup1\n      swap2\n      sub\n      swap1\n      revert\n    tag_130:\n        /* \"contracts/nft.sol\":4791:4819  _transfer(from, to, tokenId) */\n      tag_133\n        /* \"contracts/nft.sol\":4801:4805  from */\n      dup4\n        /* \"contracts/nft.sol\":4807:4809  to */\n      dup4\n        /* \"contracts/nft.sol\":4811:4818  tokenId */\n      dup4\n        /* \"contracts/nft.sol\":4791:4800  _transfer */\n      tag_134\n        /* \"contracts/nft.sol\":4791:4819  _transfer(from, to, tokenId) */\n      jump\t// in\n    tag_133:\n        /* \"contracts/nft.sol\":4545:4827  function transferFrom(\r... */\n      pop\n      pop\n      pop\n      jump\t// out\n        /* \"contracts/nft.sol\":4837:5022  function safeTransferFrom(\r... */\n    tag_49:\n        /* \"contracts/nft.sol\":4975:5014  safeTransferFrom(from, to, tokenId, \"\") */\n      tag_136\n        /* \"contracts/nft.sol\":4992:4996  from */\n      dup4\n        /* \"contracts/nft.sol\":4998:5000  to */\n      dup4\n        /* \"contracts/nft.sol\":5002:5009  tokenId */\n      dup4\n        /* \"contracts/nft.sol\":4975:5014  safeTransferFrom(from, to, tokenId, \"\") */\n      mload(0x40)\n      dup1\n      0x20\n      add\n      0x40\n      mstore\n      dup1\n      0x00\n      dup2\n      mstore\n      pop\n        /* \"contracts/nft.sol\":4975:4991  safeTransferFrom */\n      tag_82\n        /* \"contracts/nft.sol\":4975:5014  safeTransferFrom(from, to, tokenId, \"\") */\n      jump\t// in\n    tag_136:\n        /* \"contracts/nft.sol\":4837:5022  function safeTransferFrom(\r... */\n      pop\n      pop\n      pop\n      jump\t// out\n        /* \"contracts/nft.sol\":2307:2555  function collaboratotOf(uint256 tokenId) public view virtual returns (address) {\r... */\n    tag_52:\n        /* \"contracts/nft.sol\":2377:2384  address */\n      0x00\n        /* \"contracts/nft.sol\":2397:2417  address collaborator */\n      dup1\n        /* \"contracts/nft.sol\":2420:2434  _collaborators */\n      0x04\n        /* \"contracts/nft.sol\":2420:2443  _collaborators[tokenId] */\n      0x00\n        /* \"contracts/nft.sol\":2435:2442  tokenId */\n      dup5\n        /* \"contracts/nft.sol\":2420:2443  _collaborators[tokenId] */\n      dup2\n      mstore\n      0x20\n      add\n      swap1\n      dup2\n      mstore\n      0x20\n      add\n      0x00\n      keccak256\n      0x00\n      swap1\n      sload\n      swap1\n      0x0100\n      exp\n      swap1\n      div\n      0xffffffffffffffffffffffffffffffffffffffff\n      and\n        /* \"contracts/nft.sol\":2397:2443  address collaborator = _collaborators[tokenId] */\n      swap1\n      pop\n        /* \"contracts/nft.sol\":2486:2487  0 */\n      0x00\n        /* \"contracts/nft.sol\":2462:2488  collaborator != address(0) */\n      0xffffffffffffffffffffffffffffffffffffffff\n      and\n        /* \"contracts/nft.sol\":2462:2474  collaborator */\n      dup2\n        /* \"contracts/nft.sol\":2462:2488  collaborator != address(0) */\n      0xffffffffffffffffffffffffffffffffffffffff\n      and\n      eq\n      iszero\n        /* \"contracts/nft.sol\":2454:2517  require(collaborator != address(0), \"ERC721: invalid token ID\") */\n      tag_138\n      jumpi\n      mload(0x40)\n      0x08c379a000000000000000000000000000000000000000000000000000000000\n      dup2\n      mstore\n      0x04\n      add\n      tag_139\n      swap1\n      tag_140\n      jump\t// in\n    tag_139:\n      mload(0x40)\n      dup1\n      swap2\n      sub\n      swap1\n      revert\n    tag_138:\n        /* \"contracts/nft.sol\":2535:2547  collaborator */\n      dup1\n        /* \"contracts/nft.sol\":2528:2547  return collaborator */\n      swap2\n      pop\n      pop\n        /* \"contracts/nft.sol\":2307:2555  function collaboratotOf(uint256 tokenId) public view virtual returns (address) {\r... */\n      swap2\n      swap1\n      pop\n      jump\t// out\n        /* \"contracts/nft.sol\":2076:2298  function ownerOf(uint256 tokenId) public view virtual override returns (address) {\r... */\n    tag_56:\n        /* \"contracts/nft.sol\":2148:2155  address */\n      0x00\n        /* \"contracts/nft.sol\":2168:2181  address owner */\n      dup1\n        /* \"contracts/nft.sol\":2184:2191  _owners */\n      0x02\n        /* \"contracts/nft.sol\":2184:2200  _owners[tokenId] */\n      0x00\n        /* \"contracts/nft.sol\":2192:2199  tokenId */\n      dup5\n        /* \"contracts/nft.sol\":2184:2200  _owners[tokenId] */\n      dup2\n      mstore\n      0x20\n      add\n      swap1\n      dup2\n      mstore\n      0x20\n      add\n      0x00\n      keccak256\n      0x00\n      swap1\n      sload\n      swap1\n      0x0100\n      exp\n      swap1\n      div\n      0xffffffffffffffffffffffffffffffffffffffff\n      and\n        /* \"contracts/nft.sol\":2168:2200  address owner = _owners[tokenId] */\n      swap1\n      pop\n        /* \"contracts/nft.sol\":2236:2237  0 */\n      0x00\n        /* \"contracts/nft.sol\":2219:2238  owner != address(0) */\n      0xffffffffffffffffffffffffffffffffffffffff\n      and\n        /* \"contracts/nft.sol\":2219:2224  owner */\n      dup2\n        /* \"contracts/nft.sol\":2219:2238  owner != address(0) */\n      0xffffffffffffffffffffffffffffffffffffffff\n      and\n      eq\n      iszero\n        /* \"contracts/nft.sol\":2211:2267  require(owner != address(0), \"ERC721: invalid token ID\") */\n      tag_142\n      jumpi\n      mload(0x40)\n      0x08c379a000000000000000000000000000000000000000000000000000000000\n      dup2\n      mstore\n      0x04\n      add\n      tag_143\n      swap1\n      tag_140\n      jump\t// in\n    tag_143:\n      mload(0x40)\n      dup1\n      swap2\n      sub\n      swap1\n      revert\n    tag_142:\n        /* \"contracts/nft.sol\":2285:2290  owner */\n      dup1\n        /* \"contracts/nft.sol\":2278:2290  return owner */\n      swap2\n      pop\n      pop\n        /* \"contracts/nft.sol\":2076:2298  function ownerOf(uint256 tokenId) public view virtual override returns (address) {\r... */\n      swap2\n      swap1\n      pop\n      jump\t// out\n        /* \"contracts/nft.sol\":2785:2971  function ownerPercentageOf(uint256 tokenId) public view virtual returns (uint256) {\r... */\n    tag_60:\n        /* \"contracts/nft.sol\":2858:2865  uint256 */\n      0x00\n        /* \"contracts/nft.sol\":2878:2901  uint256 ownerPercentage */\n      dup1\n        /* \"contracts/nft.sol\":2904:2921  _ownersPercentage */\n      0x03\n        /* \"contracts/nft.sol\":2904:2930  _ownersPercentage[tokenId] */\n      0x00\n        /* \"contracts/nft.sol\":2922:2929  tokenId */\n      dup5\n        /* \"contracts/nft.sol\":2904:2930  _ownersPercentage[tokenId] */\n      dup2\n      mstore\n      0x20\n      add\n      swap1\n      dup2\n      mstore\n      0x20\n      add\n      0x00\n      keccak256\n      sload\n        /* \"contracts/nft.sol\":2878:2930  uint256 ownerPercentage = _ownersPercentage[tokenId] */\n      swap1\n      pop\n        /* \"contracts/nft.sol\":2948:2963  ownerPercentage */\n      dup1\n        /* \"contracts/nft.sol\":2941:2963  return ownerPercentage */\n      swap2\n      pop\n      pop\n        /* \"contracts/nft.sol\":2785:2971  function ownerPercentageOf(uint256 tokenId) public view virtual returns (uint256) {\r... */\n      swap2\n      swap1\n      pop\n      jump\t// out\n        /* \"contracts/nft.sol\":1859:2066  function balanceOf(address owner) public view virtual override returns (uint256) {\r... */\n    tag_66:\n        /* \"contracts/nft.sol\":1931:1938  uint256 */\n      0x00\n        /* \"contracts/nft.sol\":1976:1977  0 */\n      dup1\n        /* \"contracts/nft.sol\":1959:1978  owner != address(0) */\n      0xffffffffffffffffffffffffffffffffffffffff\n      and\n        /* \"contracts/nft.sol\":1959:1964  owner */\n      dup3\n        /* \"contracts/nft.sol\":1959:1978  owner != address(0) */\n      0xffffffffffffffffffffffffffffffffffffffff\n      and\n      eq\n      iszero\n        /* \"contracts/nft.sol\":1951:2024  require(owner != address(0), \"ERC721: address zero is not a valid owner\") */\n      tag_146\n      jumpi\n      mload(0x40)\n      0x08c379a000000000000000000000000000000000000000000000000000000000\n      dup2\n      mstore\n      0x04\n      add\n      tag_147\n      swap1\n      tag_148\n      jump\t// in\n    tag_147:\n      mload(0x40)\n      dup1\n      swap2\n      sub\n      swap1\n      revert\n    tag_146:\n        /* \"contracts/nft.sol\":2042:2051  _balances */\n      0x06\n        /* \"contracts/nft.sol\":2042:2058  _balances[owner] */\n      0x00\n        /* \"contracts/nft.sol\":2052:2057  owner */\n      dup4\n        /* \"contracts/nft.sol\":2042:2058  _balances[owner] */\n      0xffffffffffffffffffffffffffffffffffffffff\n      and\n      0xffffffffffffffffffffffffffffffffffffffff\n      and\n      dup2\n      mstore\n      0x20\n      add\n      swap1\n      dup2\n      mstore\n      0x20\n      add\n      0x00\n      keccak256\n      sload\n        /* \"contracts/nft.sol\":2035:2058  return _balances[owner] */\n      swap1\n      pop\n        /* \"contracts/nft.sol\":1859:2066  function balanceOf(address owner) public view virtual override returns (uint256) {\r... */\n      swap2\n      swap1\n      pop\n      jump\t// out\n        /* \"contracts/nft.sol\":3092:3196  function symbol() public view virtual override returns (string memory) {\r... */\n    tag_69:\n        /* \"contracts/nft.sol\":3148:3161  string memory */\n      0x60\n        /* \"contracts/nft.sol\":3181:3188  _symbol */\n      0x01\n        /* \"contracts/nft.sol\":3174:3188  return _symbol */\n      dup1\n      sload\n      tag_150\n      swap1\n      tag_103\n      jump\t// in\n    tag_150:\n      dup1\n      0x1f\n      add\n      0x20\n      dup1\n      swap2\n      div\n      mul\n      0x20\n      add\n      mload(0x40)\n      swap1\n      dup2\n      add\n      0x40\n      mstore\n      dup1\n      swap3\n      swap2\n      swap1\n      dup2\n      dup2\n      mstore\n      0x20\n      add\n      dup3\n      dup1\n      sload\n      tag_151\n      swap1\n      tag_103\n      jump\t// in\n    tag_151:\n      dup1\n      iszero\n      tag_152\n      jumpi\n      dup1\n      0x1f\n      lt\n      tag_153\n      jumpi\n      0x0100\n      dup1\n      dup4\n      sload\n      div\n      mul\n      dup4\n      mstore\n      swap2\n      0x20\n      add\n      swap2\n      jump(tag_152)\n    tag_153:\n      dup3\n      add\n      swap2\n      swap1\n      0x00\n      mstore\n      keccak256(0x00, 0x20)\n      swap1\n    tag_154:\n      dup2\n      sload\n      dup2\n      mstore\n      swap1\n      0x01\n      add\n      swap1\n      0x20\n      add\n      dup1\n      dup4\n      gt\n      tag_154\n      jumpi\n      dup3\n      swap1\n      sub\n      0x1f\n      and\n      dup3\n      add\n      swap2\n    tag_152:\n      pop\n      pop\n      pop\n      pop\n      pop\n      swap1\n      pop\n        /* \"contracts/nft.sol\":3092:3196  function symbol() public view virtual override returns (string memory) {\r... */\n      swap1\n      jump\t// out\n        /* \"contracts/nft.sol\":5363:5621  function mint(address to,uint256 ownerPercent,address collaborator,uint256  collaboratorPercent,uint tokenId,string memory uri) public{\r... */\n    tag_74:\n        /* \"contracts/nft.sol\":5508:5576  _safeMint(to,ownerPercent, collaborator,collaboratorPercent,tokenId) */\n      tag_156\n        /* \"contracts/nft.sol\":5518:5520  to */\n      dup7\n        /* \"contracts/nft.sol\":5521:5533  ownerPercent */\n      dup7\n        /* \"contracts/nft.sol\":5535:5547  collaborator */\n      dup7\n        /* \"contracts/nft.sol\":5548:5567  collaboratorPercent */\n      dup7\n        /* \"contracts/nft.sol\":5568:5575  tokenId */\n      dup7\n        /* \"contracts/nft.sol\":5508:5517  _safeMint */\n      tag_157\n        /* \"contracts/nft.sol\":5508:5576  _safeMint(to,ownerPercent, collaborator,collaboratorPercent,tokenId) */\n      jump\t// in\n    tag_156:\n        /* \"contracts/nft.sol\":5587:5613  _setTokenURI(tokenId, uri) */\n      tag_158\n        /* \"contracts/nft.sol\":5600:5607  tokenId */\n      dup3\n        /* \"contracts/nft.sol\":5609:5612  uri */\n      dup3\n        /* \"contracts/nft.sol\":5587:5599  _setTokenURI */\n      tag_159\n        /* \"contracts/nft.sol\":5587:5613  _setTokenURI(tokenId, uri) */\n      jump\t// in\n    tag_158:\n        /* \"contracts/nft.sol\":5363:5621  function mint(address to,uint256 ownerPercent,address collaborator,uint256  collaboratorPercent,uint tokenId,string memory uri) public{\r... */\n      pop\n      pop\n      pop\n      pop\n      pop\n      pop\n      jump\t// out\n        /* \"contracts/nft.sol\":4206:4361  function setApprovalForAll(address operator, bool approved) public virtual override {\r... */\n    tag_78:\n        /* \"contracts/nft.sol\":4301:4353  _setApprovalForAll(_msgSender(), operator, approved) */\n      tag_161\n        /* \"contracts/nft.sol\":4320:4332  _msgSender() */\n      tag_162\n        /* \"contracts/nft.sol\":4320:4330  _msgSender */\n      tag_117\n        /* \"contracts/nft.sol\":4320:4332  _msgSender() */\n      jump\t// in\n    tag_162:\n        /* \"contracts/nft.sol\":4334:4342  operator */\n      dup4\n        /* \"contracts/nft.sol\":4344:4352  approved */\n      dup4\n        /* \"contracts/nft.sol\":4301:4319  _setApprovalForAll */\n      tag_163\n        /* \"contracts/nft.sol\":4301:4353  _setApprovalForAll(_msgSender(), operator, approved) */\n      jump\t// in\n    tag_161:\n        /* \"contracts/nft.sol\":4206:4361  function setApprovalForAll(address operator, bool approved) public virtual override {\r... */\n      pop\n      pop\n      jump\t// out\n        /* \"contracts/nft.sol\":5032:5354  function safeTransferFrom(\r... */\n    tag_82:\n        /* \"contracts/nft.sol\":5206:5247  _isApprovedOrOwner(_msgSender(), tokenId) */\n      tag_165\n        /* \"contracts/nft.sol\":5225:5237  _msgSender() */\n      tag_166\n        /* \"contracts/nft.sol\":5225:5235  _msgSender */\n      tag_117\n        /* \"contracts/nft.sol\":5225:5237  _msgSender() */\n      jump\t// in\n    tag_166:\n        /* \"contracts/nft.sol\":5239:5246  tokenId */\n      dup4\n        /* \"contracts/nft.sol\":5206:5224  _isApprovedOrOwner */\n      tag_129\n        /* \"contracts/nft.sol\":5206:5247  _isApprovedOrOwner(_msgSender(), tokenId) */\n      jump\t// in\n    tag_165:\n        /* \"contracts/nft.sol\":5198:5297  require(_isApprovedOrOwner(_msgSender(), tokenId), \"ERC721: caller is not token owner or approved\") */\n      tag_167\n      jumpi\n      mload(0x40)\n      0x08c379a000000000000000000000000000000000000000000000000000000000\n      dup2\n      mstore\n      0x04\n      add\n      tag_168\n      swap1\n      tag_132\n      jump\t// in\n    tag_168:\n      mload(0x40)\n      dup1\n      swap2\n      sub\n      swap1\n      revert\n    tag_167:\n        /* \"contracts/nft.sol\":5308:5346  _safeTransfer(from, to, tokenId, data) */\n      tag_169\n        /* \"contracts/nft.sol\":5322:5326  from */\n      dup5\n        /* \"contracts/nft.sol\":5328:5330  to */\n      dup5\n        /* \"contracts/nft.sol\":5332:5339  tokenId */\n      dup5\n        /* \"contracts/nft.sol\":5341:5345  data */\n      dup5\n        /* \"contracts/nft.sol\":5308:5321  _safeTransfer */\n      tag_170\n        /* \"contracts/nft.sol\":5308:5346  _safeTransfer(from, to, tokenId, data) */\n      jump\t// in\n    tag_169:\n        /* \"contracts/nft.sol\":5032:5354  function safeTransferFrom(\r... */\n      pop\n      pop\n      pop\n      pop\n      jump\t// out\n        /* \"contracts/nft.sol\":3204:3485  function tokenURI(uint256 tokenId) public view virtual override returns (string memory) {\r... */\n    tag_85:\n        /* \"contracts/nft.sol\":3277:3290  string memory */\n      0x60\n        /* \"contracts/nft.sol\":3303:3326  _requireMinted(tokenId) */\n      tag_172\n        /* \"contracts/nft.sol\":3318:3325  tokenId */\n      dup3\n        /* \"contracts/nft.sol\":3303:3317  _requireMinted */\n      tag_110\n        /* \"contracts/nft.sol\":3303:3326  _requireMinted(tokenId) */\n      jump\t// in\n    tag_172:\n        /* \"contracts/nft.sol\":3339:3360  string memory baseURI */\n      0x00\n        /* \"contracts/nft.sol\":3363:3373  _baseURI() */\n      tag_173\n        /* \"contracts/nft.sol\":3363:3371  _baseURI */\n      tag_174\n        /* \"contracts/nft.sol\":3363:3373  _baseURI() */\n      jump\t// in\n    tag_173:\n        /* \"contracts/nft.sol\":3339:3373  string memory baseURI = _baseURI() */\n      swap1\n      pop\n        /* \"contracts/nft.sol\":3415:3416  0 */\n      0x00\n        /* \"contracts/nft.sol\":3397:3404  baseURI */\n      dup2\n        /* \"contracts/nft.sol\":3391:3412  bytes(baseURI).length */\n      mload\n        /* \"contracts/nft.sol\":3391:3416  bytes(baseURI).length > 0 */\n      gt\n        /* \"contracts/nft.sol\":3391:3477  bytes(baseURI).length > 0 ? string(abi.encodePacked(baseURI, tokenId.toString())) : \"\" */\n      tag_175\n      jumpi\n      mload(0x40)\n      dup1\n      0x20\n      add\n      0x40\n      mstore\n      dup1\n      0x00\n      dup2\n      mstore\n      pop\n      jump(tag_176)\n    tag_175:\n        /* \"contracts/nft.sol\":3443:3450  baseURI */\n      dup1\n        /* \"contracts/nft.sol\":3452:3470  tokenId.toString() */\n      tag_177\n        /* \"contracts/nft.sol\":3452:3459  tokenId */\n      dup5\n        /* \"contracts/nft.sol\":3452:3468  tokenId.toString */\n      tag_178\n        /* \"contracts/nft.sol\":3452:3470  tokenId.toString() */\n      jump\t// in\n    tag_177:\n        /* \"contracts/nft.sol\":3426:3471  abi.encodePacked(baseURI, tokenId.toString()) */\n      add(0x20, mload(0x40))\n      tag_179\n      swap3\n      swap2\n      swap1\n      tag_180\n      jump\t// in\n    tag_179:\n      mload(0x40)\n      0x20\n      dup2\n      dup4\n      sub\n      sub\n      dup2\n      mstore\n      swap1\n      0x40\n      mstore\n        /* \"contracts/nft.sol\":3391:3477  bytes(baseURI).length > 0 ? string(abi.encodePacked(baseURI, tokenId.toString())) : \"\" */\n    tag_176:\n        /* \"contracts/nft.sol\":3384:3477  return bytes(baseURI).length > 0 ? string(abi.encodePacked(baseURI, tokenId.toString())) : \"\" */\n      swap2\n      pop\n      pop\n        /* \"contracts/nft.sol\":3204:3485  function tokenURI(uint256 tokenId) public view virtual override returns (string memory) {\r... */\n      swap2\n      swap1\n      pop\n      jump\t// out\n        /* \"contracts/nft.sol\":4371:4535  function isApprovedForAll(address owner, address operator) public view virtual override returns (bool) {\r... */\n    tag_90:\n        /* \"contracts/nft.sol\":4468:4472  bool */\n      0x00\n        /* \"contracts/nft.sol\":4492:4510  _operatorApprovals */\n      0x08\n        /* \"contracts/nft.sol\":4492:4517  _operatorApprovals[owner] */\n      0x00\n        /* \"contracts/nft.sol\":4511:4516  owner */\n      dup5\n        /* \"contracts/nft.sol\":4492:4517  _operatorApprovals[owner] */\n      0xffffffffffffffffffffffffffffffffffffffff\n      and\n      0xffffffffffffffffffffffffffffffffffffffff\n      and\n      dup2\n      mstore\n      0x20\n      add\n      swap1\n      dup2\n      mstore\n      0x20\n      add\n      0x00\n      keccak256\n        /* \"contracts/nft.sol\":4492:4527  _operatorApprovals[owner][operator] */\n      0x00\n        /* \"contracts/nft.sol\":4518:4526  operator */\n      dup4\n        /* \"contracts/nft.sol\":4492:4527  _operatorApprovals[owner][operator] */\n      0xffffffffffffffffffffffffffffffffffffffff\n      and\n      0xffffffffffffffffffffffffffffffffffffffff\n      and\n      dup2\n      mstore\n      0x20\n      add\n      swap1\n      dup2\n      mstore\n      0x20\n      add\n      0x00\n      keccak256\n      0x00\n      swap1\n      sload\n      swap1\n      0x0100\n      exp\n      swap1\n      div\n      0xff\n      and\n        /* \"contracts/nft.sol\":4485:4527  return _operatorApprovals[owner][operator] */\n      swap1\n      pop\n        /* \"contracts/nft.sol\":4371:4535  function isApprovedForAll(address owner, address operator) public view virtual override returns (bool) {\r... */\n      swap3\n      swap2\n      pop\n      pop\n      jump\t// out\n        /* \"contracts/nft.sol\":2563:2777  function collaboratotPercentageOf(uint256 tokenId) public view virtual returns (uint256) {\r... */\n    tag_94:\n        /* \"contracts/nft.sol\":2643:2650  uint256 */\n      0x00\n        /* \"contracts/nft.sol\":2663:2693  uint256 collaboratorPercentage */\n      dup1\n        /* \"contracts/nft.sol\":2696:2720  _collaboratorsPercentage */\n      0x05\n        /* \"contracts/nft.sol\":2696:2729  _collaboratorsPercentage[tokenId] */\n      0x00\n        /* \"contracts/nft.sol\":2721:2728  tokenId */\n      dup5\n        /* \"contracts/nft.sol\":2696:2729  _collaboratorsPercentage[tokenId] */\n      dup2\n      mstore\n      0x20\n      add\n      swap1\n      dup2\n      mstore\n      0x20\n      add\n      0x00\n      keccak256\n      sload\n        /* \"contracts/nft.sol\":2663:2729  uint256 collaboratorPercentage = _collaboratorsPercentage[tokenId] */\n      swap1\n      pop\n        /* \"contracts/nft.sol\":2747:2769  collaboratorPercentage */\n      dup1\n        /* \"contracts/nft.sol\":2740:2769  return collaboratorPercentage */\n      swap2\n      pop\n      pop\n        /* \"contracts/nft.sol\":2563:2777  function collaboratotPercentageOf(uint256 tokenId) public view virtual returns (uint256) {\r... */\n      swap2\n      swap1\n      pop\n      jump\t// out\n        /* \"@openzeppelin/contracts@4.6.0/utils/introspection/ERC165.sol\":829:984  function supportsInterface(bytes4 interfaceId) public view virtual override returns (bool) {... */\n    tag_100:\n        /* \"@openzeppelin/contracts@4.6.0/utils/introspection/ERC165.sol\":914:918  bool */\n      0x00\n        /* \"@openzeppelin/contracts@4.6.0/utils/introspection/ERC165.sol\":952:977  type(IERC165).interfaceId */\n      0x01ffc9a700000000000000000000000000000000000000000000000000000000\n        /* \"@openzeppelin/contracts@4.6.0/utils/introspection/ERC165.sol\":937:977  interfaceId == type(IERC165).interfaceId */\n      not(0xffffffffffffffffffffffffffffffffffffffffffffffffffffffff)\n      and\n        /* \"@openzeppelin/contracts@4.6.0/utils/introspection/ERC165.sol\":937:948  interfaceId */\n      dup3\n        /* \"@openzeppelin/contracts@4.6.0/utils/introspection/ERC165.sol\":937:977  interfaceId == type(IERC165).interfaceId */\n      not(0xffffffffffffffffffffffffffffffffffffffffffffffffffffffff)\n      and\n      eq\n        /* \"@openzeppelin/contracts@4.6.0/utils/introspection/ERC165.sol\":930:977  return interfaceId == type(IERC165).interfaceId */\n      swap1\n      pop\n        /* \"@openzeppelin/contracts@4.6.0/utils/introspection/ERC165.sol\":829:984  function supportsInterface(bytes4 interfaceId) public view virtual override returns (bool) {... */\n      swap2\n      swap1\n      pop\n      jump\t// out\n        /* \"contracts/nft.sol\":9613:9748  function _requireMinted(uint256 tokenId) internal view virtual {\r... */\n    tag_110:\n        /* \"contracts/nft.sol\":9695:9711  _exists(tokenId) */\n      tag_185\n        /* \"contracts/nft.sol\":9703:9710  tokenId */\n      dup2\n        /* \"contracts/nft.sol\":9695:9702  _exists */\n      tag_186\n        /* \"contracts/nft.sol\":9695:9711  _exists(tokenId) */\n      jump\t// in\n    tag_185:\n        /* \"contracts/nft.sol\":9687:9740  require(_exists(tokenId), \"ERC721: invalid token ID\") */\n      tag_187\n      jumpi\n      mload(0x40)\n      0x08c379a000000000000000000000000000000000000000000000000000000000\n      dup2\n      mstore\n      0x04\n      add\n      tag_188\n      swap1\n      tag_140\n      jump\t// in\n    tag_188:\n      mload(0x40)\n      dup1\n      swap2\n      sub\n      swap1\n      revert\n    tag_187:\n        /* \"contracts/nft.sol\":9613:9748  function _requireMinted(uint256 tokenId) internal view virtual {\r... */\n      pop\n      jump\t// out\n        /* \"@openzeppelin/contracts@4.6.0/utils/Context.sol\":640:736  function _msgSender() internal view virtual returns (address) {... */\n    tag_117:\n        /* \"@openzeppelin/contracts@4.6.0/utils/Context.sol\":693:700  address */\n      0x00\n        /* \"@openzeppelin/contracts@4.6.0/utils/Context.sol\":719:729  msg.sender */\n      caller\n        /* \"@openzeppelin/contracts@4.6.0/utils/Context.sol\":712:729  return msg.sender */\n      swap1\n      pop\n        /* \"@openzeppelin/contracts@4.6.0/utils/Context.sol\":640:736  function _msgSender() internal view virtual returns (address) {... */\n      swap1\n      jump\t// out\n        /* \"contracts/nft.sol\":9111:9282  function _approve(address to, uint256 tokenId) internal virtual {\r... */\n    tag_125:\n        /* \"contracts/nft.sol\":9213:9215  to */\n      dup2\n        /* \"contracts/nft.sol\":9186:9201  _tokenApprovals */\n      0x07\n        /* \"contracts/nft.sol\":9186:9210  _tokenApprovals[tokenId] */\n      0x00\n        /* \"contracts/nft.sol\":9202:9209  tokenId */\n      dup4\n        /* \"contracts/nft.sol\":9186:9210  _tokenApprovals[tokenId] */\n      dup2\n      mstore\n      0x20\n      add\n      swap1\n      dup2\n      mstore\n      0x20\n      add\n      0x00\n      keccak256\n      0x00\n        /* \"contracts/nft.sol\":9186:9215  _tokenApprovals[tokenId] = to */\n      0x0100\n      exp\n      dup2\n      sload\n      dup2\n      0xffffffffffffffffffffffffffffffffffffffff\n      mul\n      not\n      and\n      swap1\n      dup4\n      0xffffffffffffffffffffffffffffffffffffffff\n      and\n      mul\n      or\n      swap1\n      sstore\n      pop\n        /* \"contracts/nft.sol\":9266:9273  tokenId */\n      dup1\n        /* \"contracts/nft.sol\":9262:9264  to */\n      dup3\n        /* \"contracts/nft.sol\":9231:9274  Approval(nft.ownerOf(tokenId), to, tokenId) */\n      0xffffffffffffffffffffffffffffffffffffffff\n      and\n        /* \"contracts/nft.sol\":9240:9260  nft.ownerOf(tokenId) */\n      tag_191\n        /* \"contracts/nft.sol\":9252:9259  tokenId */\n      dup4\n        /* \"contracts/nft.sol\":9240:9251  nft.ownerOf */\n      tag_56\n        /* \"contracts/nft.sol\":9240:9260  nft.ownerOf(tokenId) */\n      jump\t// in\n    tag_191:\n        /* \"contracts/nft.sol\":9231:9274  Approval(nft.ownerOf(tokenId), to, tokenId) */\n      0xffffffffffffffffffffffffffffffffffffffff\n      and\n      0x8c5be1e5ebec7d5bd14f71427d1e84f3dd0314c0f7b2291e5b200ac8c7c3b925\n      mload(0x40)\n      mload(0x40)\n      dup1\n      swap2\n      sub\n      swap1\n      log4\n        /* \"contracts/nft.sol\":9111:9282  function _approve(address to, uint256 tokenId) internal virtual {\r... */\n      pop\n      pop\n      jump\t// out\n        /* \"contracts/nft.sol\":6087:6348  function _isApprovedOrOwner(address spender, uint256 tokenId) internal view virtual returns (bool) {\r... */\n    tag_129:\n        /* \"contracts/nft.sol\":6180:6184  bool */\n      0x00\n        /* \"contracts/nft.sol\":6197:6210  address owner */\n      dup1\n        /* \"contracts/nft.sol\":6213:6233  nft.ownerOf(tokenId) */\n      tag_193\n        /* \"contracts/nft.sol\":6225:6232  tokenId */\n      dup4\n        /* \"contracts/nft.sol\":6213:6224  nft.ownerOf */\n      tag_56\n        /* \"contracts/nft.sol\":6213:6233  nft.ownerOf(tokenId) */\n      jump\t// in\n    tag_193:\n        /* \"contracts/nft.sol\":6197:6233  address owner = nft.ownerOf(tokenId) */\n      swap1\n      pop\n        /* \"contracts/nft.sol\":6263:6268  owner */\n      dup1\n        /* \"contracts/nft.sol\":6252:6268  spender == owner */\n      0xffffffffffffffffffffffffffffffffffffffff\n      and\n        /* \"contracts/nft.sol\":6252:6259  spender */\n      dup5\n        /* \"contracts/nft.sol\":6252:6268  spender == owner */\n      0xffffffffffffffffffffffffffffffffffffffff\n      and\n      eq\n        /* \"contracts/nft.sol\":6252:6304  spender == owner || isApprovedForAll(owner, spender) */\n      dup1\n      tag_194\n      jumpi\n      pop\n        /* \"contracts/nft.sol\":6272:6304  isApprovedForAll(owner, spender) */\n      tag_195\n        /* \"contracts/nft.sol\":6289:6294  owner */\n      dup2\n        /* \"contracts/nft.sol\":6296:6303  spender */\n      dup6\n        /* \"contracts/nft.sol\":6272:6288  isApprovedForAll */\n      tag_90\n        /* \"contracts/nft.sol\":6272:6304  isApprovedForAll(owner, spender) */\n      jump\t// in\n    tag_195:\n        /* \"contracts/nft.sol\":6252:6304  spender == owner || isApprovedForAll(owner, spender) */\n    tag_194:\n        /* \"contracts/nft.sol\":6252:6339  spender == owner || isApprovedForAll(owner, spender) || getApproved(tokenId) == spender */\n      dup1\n      tag_196\n      jumpi\n      pop\n        /* \"contracts/nft.sol\":6332:6339  spender */\n      dup4\n        /* \"contracts/nft.sol\":6308:6339  getApproved(tokenId) == spender */\n      0xffffffffffffffffffffffffffffffffffffffff\n      and\n        /* \"contracts/nft.sol\":6308:6328  getApproved(tokenId) */\n      tag_197\n        /* \"contracts/nft.sol\":6320:6327  tokenId */\n      dup5\n        /* \"contracts/nft.sol\":6308:6319  getApproved */\n      tag_36\n        /* \"contracts/nft.sol\":6308:6328  getApproved(tokenId) */\n      jump\t// in\n    tag_197:\n        /* \"contracts/nft.sol\":6308:6339  getApproved(tokenId) == spender */\n      0xffffffffffffffffffffffffffffffffffffffff\n      and\n      eq\n        /* \"contracts/nft.sol\":6252:6339  spender == owner || isApprovedForAll(owner, spender) || getApproved(tokenId) == spender */\n    tag_196:\n        /* \"contracts/nft.sol\":6244:6340  return (spender == owner || isApprovedForAll(owner, spender) || getApproved(tokenId) == spender) */\n      swap2\n      pop\n      pop\n        /* \"contracts/nft.sol\":6087:6348  function _isApprovedOrOwner(address spender, uint256 tokenId) internal view virtual returns (bool) {\r... */\n      swap3\n      swap2\n      pop\n      pop\n      jump\t// out\n        /* \"contracts/nft.sol\":8344:9101  function _transfer(\r... */\n    tag_134:\n        /* \"contracts/nft.sol\":8500:8504  from */\n      dup3\n        /* \"contracts/nft.sol\":8476:8504  nft.ownerOf(tokenId) == from */\n      0xffffffffffffffffffffffffffffffffffffffff\n      and\n        /* \"contracts/nft.sol\":8476:8496  nft.ownerOf(tokenId) */\n      tag_199\n        /* \"contracts/nft.sol\":8488:8495  tokenId */\n      dup3\n        /* \"contracts/nft.sol\":8476:8487  nft.ownerOf */\n      tag_56\n        /* \"contracts/nft.sol\":8476:8496  nft.ownerOf(tokenId) */\n      jump\t// in\n    tag_199:\n        /* \"contracts/nft.sol\":8476:8504  nft.ownerOf(tokenId) == from */\n      0xffffffffffffffffffffffffffffffffffffffff\n      and\n      eq\n        /* \"contracts/nft.sol\":8468:8546  require(nft.ownerOf(tokenId) == from, \"ERC721: transfer from incorrect owner\") */\n      tag_200\n      jumpi\n      mload(0x40)\n      0x08c379a000000000000000000000000000000000000000000000000000000000\n      dup2\n      mstore\n      0x04\n      add\n      tag_201\n      swap1\n      tag_202\n      jump\t// in\n    tag_201:\n      mload(0x40)\n      dup1\n      swap2\n      sub\n      swap1\n      revert\n    tag_200:\n        /* \"contracts/nft.sol\":8579:8580  0 */\n      0x00\n        /* \"contracts/nft.sol\":8565:8581  to != address(0) */\n      0xffffffffffffffffffffffffffffffffffffffff\n      and\n        /* \"contracts/nft.sol\":8565:8567  to */\n      dup3\n        /* \"contracts/nft.sol\":8565:8581  to != address(0) */\n      0xffffffffffffffffffffffffffffffffffffffff\n      and\n      eq\n      iszero\n        /* \"contracts/nft.sol\":8557:8622  require(to != address(0), \"ERC721: transfer to the zero address\") */\n      tag_203\n      jumpi\n      mload(0x40)\n      0x08c379a000000000000000000000000000000000000000000000000000000000\n      dup2\n      mstore\n      0x04\n      add\n      tag_204\n      swap1\n      tag_205\n      jump\t// in\n    tag_204:\n      mload(0x40)\n      dup1\n      swap2\n      sub\n      swap1\n      revert\n    tag_203:\n        /* \"contracts/nft.sol\":8635:8674  _beforeTokenTransfer(from, to, tokenId) */\n      tag_206\n        /* \"contracts/nft.sol\":8656:8660  from */\n      dup4\n        /* \"contracts/nft.sol\":8662:8664  to */\n      dup4\n        /* \"contracts/nft.sol\":8666:8673  tokenId */\n      dup4\n        /* \"contracts/nft.sol\":8635:8655  _beforeTokenTransfer */\n      tag_207\n        /* \"contracts/nft.sol\":8635:8674  _beforeTokenTransfer(from, to, tokenId) */\n      jump\t// in\n    tag_206:\n        /* \"contracts/nft.sol\":8719:8723  from */\n      dup3\n        /* \"contracts/nft.sol\":8695:8723  nft.ownerOf(tokenId) == from */\n      0xffffffffffffffffffffffffffffffffffffffff\n      and\n        /* \"contracts/nft.sol\":8695:8715  nft.ownerOf(tokenId) */\n      tag_208\n        /* \"contracts/nft.sol\":8707:8714  tokenId */\n      dup3\n        /* \"contracts/nft.sol\":8695:8706  nft.ownerOf */\n      tag_56\n        /* \"contracts/nft.sol\":8695:8715  nft.ownerOf(tokenId) */\n      jump\t// in\n    tag_208:\n        /* \"contracts/nft.sol\":8695:8723  nft.ownerOf(tokenId) == from */\n      0xffffffffffffffffffffffffffffffffffffffff\n      and\n      eq\n        /* \"contracts/nft.sol\":8687:8765  require(nft.ownerOf(tokenId) == from, \"ERC721: transfer from incorrect owner\") */\n      tag_209\n      jumpi\n      mload(0x40)\n      0x08c379a000000000000000000000000000000000000000000000000000000000\n      dup2\n      mstore\n      0x04\n      add\n      tag_210\n      swap1\n      tag_202\n      jump\t// in\n    tag_210:\n      mload(0x40)\n      dup1\n      swap2\n      sub\n      swap1\n      revert\n    tag_209:\n        /* \"contracts/nft.sol\":8837:8852  _tokenApprovals */\n      0x07\n        /* \"contracts/nft.sol\":8837:8861  _tokenApprovals[tokenId] */\n      0x00\n        /* \"contracts/nft.sol\":8853:8860  tokenId */\n      dup3\n        /* \"contracts/nft.sol\":8837:8861  _tokenApprovals[tokenId] */\n      dup2\n      mstore\n      0x20\n      add\n      swap1\n      dup2\n      mstore\n      0x20\n      add\n      0x00\n      keccak256\n      0x00\n        /* \"contracts/nft.sol\":8830:8861  delete _tokenApprovals[tokenId] */\n      0x0100\n      exp\n      dup2\n      sload\n      swap1\n      0xffffffffffffffffffffffffffffffffffffffff\n      mul\n      not\n      and\n      swap1\n      sstore\n        /* \"contracts/nft.sol\":8920:8921  1 */\n      0x01\n        /* \"contracts/nft.sol\":8901:8910  _balances */\n      0x06\n        /* \"contracts/nft.sol\":8901:8916  _balances[from] */\n      0x00\n        /* \"contracts/nft.sol\":8911:8915  from */\n      dup6\n        /* \"contracts/nft.sol\":8901:8916  _balances[from] */\n      0xffffffffffffffffffffffffffffffffffffffff\n      and\n      0xffffffffffffffffffffffffffffffffffffffff\n      and\n      dup2\n      mstore\n      0x20\n      add\n      swap1\n      dup2\n      mstore\n      0x20\n      add\n      0x00\n      keccak256\n      0x00\n        /* \"contracts/nft.sol\":8901:8921  _balances[from] -= 1 */\n      dup3\n      dup3\n      sload\n      sub\n      swap3\n      pop\n      pop\n      dup2\n      swap1\n      sstore\n      pop\n        /* \"contracts/nft.sol\":8953:8954  1 */\n      0x01\n        /* \"contracts/nft.sol\":8936:8945  _balances */\n      0x06\n        /* \"contracts/nft.sol\":8936:8949  _balances[to] */\n      0x00\n        /* \"contracts/nft.sol\":8946:8948  to */\n      dup5\n        /* \"contracts/nft.sol\":8936:8949  _balances[to] */\n      0xffffffffffffffffffffffffffffffffffffffff\n      and\n      0xffffffffffffffffffffffffffffffffffffffff\n      and\n      dup2\n      mstore\n      0x20\n      add\n      swap1\n      dup2\n      mstore\n      0x20\n      add\n      0x00\n      keccak256\n      0x00\n        /* \"contracts/nft.sol\":8936:8954  _balances[to] += 1 */\n      dup3\n      dup3\n      sload\n      add\n      swap3\n      pop\n      pop\n      dup2\n      swap1\n      sstore\n      pop\n        /* \"contracts/nft.sol\":8995:8997  to */\n      dup2\n        /* \"contracts/nft.sol\":8976:8983  _owners */\n      0x02\n        /* \"contracts/nft.sol\":8976:8992  _owners[tokenId] */\n      0x00\n        /* \"contracts/nft.sol\":8984:8991  tokenId */\n      dup4\n        /* \"contracts/nft.sol\":8976:8992  _owners[tokenId] */\n      dup2\n      mstore\n      0x20\n      add\n      swap1\n      dup2\n      mstore\n      0x20\n      add\n      0x00\n      keccak256\n      0x00\n        /* \"contracts/nft.sol\":8976:8997  _owners[tokenId] = to */\n      0x0100\n      exp\n      dup2\n      sload\n      dup2\n      0xffffffffffffffffffffffffffffffffffffffff\n      mul\n      not\n      and\n      swap1\n      dup4\n      0xffffffffffffffffffffffffffffffffffffffff\n      and\n      mul\n      or\n      swap1\n      sstore\n      pop\n        /* \"contracts/nft.sol\":9034:9041  tokenId */\n      dup1\n        /* \"contracts/nft.sol\":9030:9032  to */\n      dup3\n        /* \"contracts/nft.sol\":9015:9042  Transfer(from, to, tokenId) */\n      0xffffffffffffffffffffffffffffffffffffffff\n      and\n        /* \"contracts/nft.sol\":9024:9028  from */\n      dup5\n        /* \"contracts/nft.sol\":9015:9042  Transfer(from, to, tokenId) */\n      0xffffffffffffffffffffffffffffffffffffffff\n      and\n      0xddf252ad1be2c89b69c2b068fc378daa952ba7f163c4a11628f55a4df523b3ef\n      mload(0x40)\n      mload(0x40)\n      dup1\n      swap2\n      sub\n      swap1\n      log4\n        /* \"contracts/nft.sol\":9055:9093  _afterTokenTransfer(from, to, tokenId) */\n      tag_211\n        /* \"contracts/nft.sol\":9075:9079  from */\n      dup4\n        /* \"contracts/nft.sol\":9081:9083  to */\n      dup4\n        /* \"contracts/nft.sol\":9085:9092  tokenId */\n      dup4\n        /* \"contracts/nft.sol\":9055:9074  _afterTokenTransfer */\n      tag_212\n        /* \"contracts/nft.sol\":9055:9093  _afterTokenTransfer(from, to, tokenId) */\n      jump\t// in\n    tag_211:\n        /* \"contracts/nft.sol\":8344:9101  function _transfer(\r... */\n      pop\n      pop\n      pop\n      jump\t// out\n        /* \"contracts/nft.sol\":6356:6549  function _safeMint(address to,uint256 ownerPercent,address collaborator,uint256  collaboratorPercent,uint256 tokenId) internal virtual {\r... */\n    tag_157:\n        /* \"contracts/nft.sol\":6502:6541  _safeMint(to, collaborator,tokenId, \"\") */\n      tag_214\n        /* \"contracts/nft.sol\":6512:6514  to */\n      dup6\n        /* \"contracts/nft.sol\":6516:6528  collaborator */\n      dup5\n        /* \"contracts/nft.sol\":6529:6536  tokenId */\n      dup4\n        /* \"contracts/nft.sol\":6502:6541  _safeMint(to, collaborator,tokenId, \"\") */\n      mload(0x40)\n      dup1\n      0x20\n      add\n      0x40\n      mstore\n      dup1\n      0x00\n      dup2\n      mstore\n      pop\n        /* \"contracts/nft.sol\":6502:6511  _safeMint */\n      tag_215\n        /* \"contracts/nft.sol\":6502:6541  _safeMint(to, collaborator,tokenId, \"\") */\n      jump\t// in\n    tag_214:\n        /* \"contracts/nft.sol\":6356:6549  function _safeMint(address to,uint256 ownerPercent,address collaborator,uint256  collaboratorPercent,uint256 tokenId) internal virtual {\r... */\n      pop\n      pop\n      pop\n      pop\n      pop\n      jump\t// out\n        /* \"contracts/nft.sol\":8117:8334  function _setTokenURI(uint256 tokenId, string memory _tokenURI) internal virtual {\r... */\n    tag_159:\n        /* \"contracts/nft.sol\":8217:8233  _exists(tokenId) */\n      tag_217\n        /* \"contracts/nft.sol\":8225:8232  tokenId */\n      dup3\n        /* \"contracts/nft.sol\":8217:8224  _exists */\n      tag_186\n        /* \"contracts/nft.sol\":8217:8233  _exists(tokenId) */\n      jump\t// in\n    tag_217:\n        /* \"contracts/nft.sol\":8209:8284  require(_exists(tokenId), \"ERC721URIStorage: URI set of nonexistent token\") */\n      tag_218\n      jumpi\n      mload(0x40)\n      0x08c379a000000000000000000000000000000000000000000000000000000000\n      dup2\n      mstore\n      0x04\n      add\n      tag_219\n      swap1\n      tag_220\n      jump\t// in\n    tag_219:\n      mload(0x40)\n      dup1\n      swap2\n      sub\n      swap1\n      revert\n    tag_218:\n        /* \"contracts/nft.sol\":8317:8326  _tokenURI */\n      dup1\n        /* \"contracts/nft.sol\":8295:8305  _tokenURIs */\n      0x09\n        /* \"contracts/nft.sol\":8295:8314  _tokenURIs[tokenId] */\n      0x00\n        /* \"contracts/nft.sol\":8306:8313  tokenId */\n      dup5\n        /* \"contracts/nft.sol\":8295:8314  _tokenURIs[tokenId] */\n      dup2\n      mstore\n      0x20\n      add\n      swap1\n      dup2\n      mstore\n      0x20\n      add\n      0x00\n      keccak256\n        /* \"contracts/nft.sol\":8295:8326  _tokenURIs[tokenId] = _tokenURI */\n      swap1\n      dup1\n      mload\n      swap1\n      0x20\n      add\n      swap1\n      tag_221\n      swap3\n      swap2\n      swap1\n      tag_222\n      jump\t// in\n    tag_221:\n      pop\n        /* \"contracts/nft.sol\":8117:8334  function _setTokenURI(uint256 tokenId, string memory _tokenURI) internal virtual {\r... */\n      pop\n      pop\n      jump\t// out\n        /* \"contracts/nft.sol\":9290:9605  function _setApprovalForAll(\r... */\n    tag_163:\n        /* \"contracts/nft.sol\":9445:9453  operator */\n      dup2\n        /* \"contracts/nft.sol\":9436:9453  owner != operator */\n      0xffffffffffffffffffffffffffffffffffffffff\n      and\n        /* \"contracts/nft.sol\":9436:9441  owner */\n      dup4\n        /* \"contracts/nft.sol\":9436:9453  owner != operator */\n      0xffffffffffffffffffffffffffffffffffffffff\n      and\n      eq\n      iszero\n        /* \"contracts/nft.sol\":9428:9483  require(owner != operator, \"ERC721: approve to caller\") */\n      tag_224\n      jumpi\n      mload(0x40)\n      0x08c379a000000000000000000000000000000000000000000000000000000000\n      dup2\n      mstore\n      0x04\n      add\n      tag_225\n      swap1\n      tag_226\n      jump\t// in\n    tag_225:\n      mload(0x40)\n      dup1\n      swap2\n      sub\n      swap1\n      revert\n    tag_224:\n        /* \"contracts/nft.sol\":9532:9540  approved */\n      dup1\n        /* \"contracts/nft.sol\":9494:9512  _operatorApprovals */\n      0x08\n        /* \"contracts/nft.sol\":9494:9519  _operatorApprovals[owner] */\n      0x00\n        /* \"contracts/nft.sol\":9513:9518  owner */\n      dup6\n        /* \"contracts/nft.sol\":9494:9519  _operatorApprovals[owner] */\n      0xffffffffffffffffffffffffffffffffffffffff\n      and\n      0xffffffffffffffffffffffffffffffffffffffff\n      and\n      dup2\n      mstore\n      0x20\n      add\n      swap1\n      dup2\n      mstore\n      0x20\n      add\n      0x00\n      keccak256\n        /* \"contracts/nft.sol\":9494:9529  _operatorApprovals[owner][operator] */\n      0x00\n        /* \"contracts/nft.sol\":9520:9528  operator */\n      dup5\n        /* \"contracts/nft.sol\":9494:9529  _operatorApprovals[owner][operator] */\n      0xffffffffffffffffffffffffffffffffffffffff\n      and\n      0xffffffffffffffffffffffffffffffffffffffff\n      and\n      dup2\n      mstore\n      0x20\n      add\n      swap1\n      dup2\n      mstore\n      0x20\n      add\n      0x00\n      keccak256\n      0x00\n        /* \"contracts/nft.sol\":9494:9540  _operatorApprovals[owner][operator] = approved */\n      0x0100\n      exp\n      dup2\n      sload\n      dup2\n      0xff\n      mul\n      not\n      and\n      swap1\n      dup4\n      iszero\n      iszero\n      mul\n      or\n      swap1\n      sstore\n      pop\n        /* \"contracts/nft.sol\":9578:9586  operator */\n      dup2\n        /* \"contracts/nft.sol\":9556:9597  ApprovalForAll(owner, operator, approved) */\n      0xffffffffffffffffffffffffffffffffffffffff\n      and\n        /* \"contracts/nft.sol\":9571:9576  owner */\n      dup4\n        /* \"contracts/nft.sol\":9556:9597  ApprovalForAll(owner, operator, approved) */\n      0xffffffffffffffffffffffffffffffffffffffff\n      and\n      0x17307eab39ab6107e8899845ad3d59bd9653f200f220920489ca2b5937696c31\n        /* \"contracts/nft.sol\":9588:9596  approved */\n      dup4\n        /* \"contracts/nft.sol\":9556:9597  ApprovalForAll(owner, operator, approved) */\n      mload(0x40)\n      tag_227\n      swap2\n      swap1\n      tag_28\n      jump\t// in\n    tag_227:\n      mload(0x40)\n      dup1\n      swap2\n      sub\n      swap1\n      log3\n        /* \"contracts/nft.sol\":9290:9605  function _setApprovalForAll(\r... */\n      pop\n      pop\n      pop\n      jump\t// out\n        /* \"contracts/nft.sol\":5629:5942  function _safeTransfer(\r... */\n    tag_170:\n        /* \"contracts/nft.sol\":5785:5813  _transfer(from, to, tokenId) */\n      tag_229\n        /* \"contracts/nft.sol\":5795:5799  from */\n      dup5\n        /* \"contracts/nft.sol\":5801:5803  to */\n      dup5\n        /* \"contracts/nft.sol\":5805:5812  tokenId */\n      dup5\n        /* \"contracts/nft.sol\":5785:5794  _transfer */\n      tag_134\n        /* \"contracts/nft.sol\":5785:5813  _transfer(from, to, tokenId) */\n      jump\t// in\n    tag_229:\n        /* \"contracts/nft.sol\":5832:5879  _checkOnERC721Received(from, to, tokenId, data) */\n      tag_230\n        /* \"contracts/nft.sol\":5855:5859  from */\n      dup5\n        /* \"contracts/nft.sol\":5861:5863  to */\n      dup5\n        /* \"contracts/nft.sol\":5865:5872  tokenId */\n      dup5\n        /* \"contracts/nft.sol\":5874:5878  data */\n      dup5\n        /* \"contracts/nft.sol\":5832:5854  _checkOnERC721Received */\n      tag_231\n        /* \"contracts/nft.sol\":5832:5879  _checkOnERC721Received(from, to, tokenId, data) */\n      jump\t// in\n    tag_230:\n        /* \"contracts/nft.sol\":5824:5934  require(_checkOnERC721Received(from, to, tokenId, data), \"ERC721: transfer to non ERC721Receiver implementer\") */\n      tag_232\n      jumpi\n      mload(0x40)\n      0x08c379a000000000000000000000000000000000000000000000000000000000\n      dup2\n      mstore\n      0x04\n      add\n      tag_233\n      swap1\n      tag_234\n      jump\t// in\n    tag_233:\n      mload(0x40)\n      dup1\n      swap2\n      sub\n      swap1\n      revert\n    tag_232:\n        /* \"contracts/nft.sol\":5629:5942  function _safeTransfer(\r... */\n      pop\n      pop\n      pop\n      pop\n      jump\t// out\n        /* \"contracts/nft.sol\":3497:3591  function _baseURI() internal view virtual returns (string memory) {\r... */\n    tag_174:\n        /* \"contracts/nft.sol\":3548:3561  string memory */\n      0x60\n        /* \"contracts/nft.sol\":3574:3583  return \"\" */\n      mload(0x40)\n      dup1\n      0x20\n      add\n      0x40\n      mstore\n      dup1\n      0x00\n      dup2\n      mstore\n      pop\n      swap1\n      pop\n        /* \"contracts/nft.sol\":3497:3591  function _baseURI() internal view virtual returns (string memory) {\r... */\n      swap1\n      jump\t// out\n        /* \"@openzeppelin/contracts@4.6.0/utils/Strings.sol\":328:1031  function toString(uint256 value) internal pure returns (string memory) {... */\n    tag_178:\n        /* \"@openzeppelin/contracts@4.6.0/utils/Strings.sol\":384:397  string memory */\n      0x60\n        /* \"@openzeppelin/contracts@4.6.0/utils/Strings.sol\":610:611  0 */\n      0x00\n        /* \"@openzeppelin/contracts@4.6.0/utils/Strings.sol\":601:606  value */\n      dup3\n        /* \"@openzeppelin/contracts@4.6.0/utils/Strings.sol\":601:611  value == 0 */\n      eq\n        /* \"@openzeppelin/contracts@4.6.0/utils/Strings.sol\":597:648  if (value == 0) {... */\n      iszero\n      tag_237\n      jumpi\n        /* \"@openzeppelin/contracts@4.6.0/utils/Strings.sol\":627:637  return \"0\" */\n      mload(0x40)\n      dup1\n      0x40\n      add\n      0x40\n      mstore\n      dup1\n      0x01\n      dup2\n      mstore\n      0x20\n      add\n      0x3000000000000000000000000000000000000000000000000000000000000000\n      dup2\n      mstore\n      pop\n      swap1\n      pop\n      jump(tag_236)\n        /* \"@openzeppelin/contracts@4.6.0/utils/Strings.sol\":597:648  if (value == 0) {... */\n    tag_237:\n        /* \"@openzeppelin/contracts@4.6.0/utils/Strings.sol\":657:669  uint256 temp */\n      0x00\n        /* \"@openzeppelin/contracts@4.6.0/utils/Strings.sol\":672:677  value */\n      dup3\n        /* \"@openzeppelin/contracts@4.6.0/utils/Strings.sol\":657:677  uint256 temp = value */\n      swap1\n      pop\n        /* \"@openzeppelin/contracts@4.6.0/utils/Strings.sol\":687:701  uint256 digits */\n      0x00\n        /* \"@openzeppelin/contracts@4.6.0/utils/Strings.sol\":711:786  while (temp != 0) {... */\n    tag_238:\n        /* \"@openzeppelin/contracts@4.6.0/utils/Strings.sol\":726:727  0 */\n      0x00\n        /* \"@openzeppelin/contracts@4.6.0/utils/Strings.sol\":718:722  temp */\n      dup3\n        /* \"@openzeppelin/contracts@4.6.0/utils/Strings.sol\":718:727  temp != 0 */\n      eq\n        /* \"@openzeppelin/contracts@4.6.0/utils/Strings.sol\":711:786  while (temp != 0) {... */\n      tag_239\n      jumpi\n        /* \"@openzeppelin/contracts@4.6.0/utils/Strings.sol\":743:751  digits++ */\n      dup1\n      dup1\n      tag_240\n      swap1\n      tag_241\n      jump\t// in\n    tag_240:\n      swap2\n      pop\n      pop\n        /* \"@openzeppelin/contracts@4.6.0/utils/Strings.sol\":773:775  10 */\n      0x0a\n        /* \"@openzeppelin/contracts@4.6.0/utils/Strings.sol\":765:775  temp /= 10 */\n      dup3\n      tag_242\n      swap2\n      swap1\n      tag_243\n      jump\t// in\n    tag_242:\n      swap2\n      pop\n        /* \"@openzeppelin/contracts@4.6.0/utils/Strings.sol\":711:786  while (temp != 0) {... */\n      jump(tag_238)\n    tag_239:\n        /* \"@openzeppelin/contracts@4.6.0/utils/Strings.sol\":795:814  bytes memory buffer */\n      0x00\n        /* \"@openzeppelin/contracts@4.6.0/utils/Strings.sol\":827:833  digits */\n      dup2\n        /* \"@openzeppelin/contracts@4.6.0/utils/Strings.sol\":817:834  new bytes(digits) */\n      0xffffffffffffffff\n      dup2\n      gt\n      iszero\n      tag_244\n      jumpi\n      mstore(0x00, 0x4e487b7100000000000000000000000000000000000000000000000000000000)\n      mstore(0x04, 0x41)\n      revert(0x00, 0x24)\n    tag_244:\n      mload(0x40)\n      swap1\n      dup1\n      dup3\n      mstore\n      dup1\n      0x1f\n      add\n      not(0x1f)\n      and\n      0x20\n      add\n      dup3\n      add\n      0x40\n      mstore\n      dup1\n      iszero\n      tag_245\n      jumpi\n      dup2\n      0x20\n      add\n      0x01\n      dup3\n      mul\n      dup1\n      calldatasize\n      dup4\n      calldatacopy\n      dup1\n      dup3\n      add\n      swap2\n      pop\n      pop\n      swap1\n      pop\n    tag_245:\n      pop\n        /* \"@openzeppelin/contracts@4.6.0/utils/Strings.sol\":795:834  bytes memory buffer = new bytes(digits) */\n      swap1\n      pop\n        /* \"@openzeppelin/contracts@4.6.0/utils/Strings.sol\":844:994  while (value != 0) {... */\n    tag_246:\n        /* \"@openzeppelin/contracts@4.6.0/utils/Strings.sol\":860:861  0 */\n      0x00\n        /* \"@openzeppelin/contracts@4.6.0/utils/Strings.sol\":851:856  value */\n      dup6\n        /* \"@openzeppelin/contracts@4.6.0/utils/Strings.sol\":851:861  value != 0 */\n      eq\n        /* \"@openzeppelin/contracts@4.6.0/utils/Strings.sol\":844:994  while (value != 0) {... */\n      tag_247\n      jumpi\n        /* \"@openzeppelin/contracts@4.6.0/utils/Strings.sol\":887:888  1 */\n      0x01\n        /* \"@openzeppelin/contracts@4.6.0/utils/Strings.sol\":877:888  digits -= 1 */\n      dup3\n      tag_248\n      swap2\n      swap1\n      tag_249\n      jump\t// in\n    tag_248:\n      swap2\n      pop\n        /* \"@openzeppelin/contracts@4.6.0/utils/Strings.sol\":953:955  10 */\n      0x0a\n        /* \"@openzeppelin/contracts@4.6.0/utils/Strings.sol\":945:950  value */\n      dup6\n        /* \"@openzeppelin/contracts@4.6.0/utils/Strings.sol\":945:955  value % 10 */\n      tag_250\n      swap2\n      swap1\n      tag_251\n      jump\t// in\n    tag_250:\n        /* \"@openzeppelin/contracts@4.6.0/utils/Strings.sol\":932:934  48 */\n      0x30\n        /* \"@openzeppelin/contracts@4.6.0/utils/Strings.sol\":932:956  48 + uint256(value % 10) */\n      tag_252\n      swap2\n      swap1\n      tag_253\n      jump\t// in\n    tag_252:\n        /* \"@openzeppelin/contracts@4.6.0/utils/Strings.sol\":919:958  bytes1(uint8(48 + uint256(value % 10))) */\n      0xf8\n      shl\n        /* \"@openzeppelin/contracts@4.6.0/utils/Strings.sol\":902:908  buffer */\n      dup2\n        /* \"@openzeppelin/contracts@4.6.0/utils/Strings.sol\":909:915  digits */\n      dup4\n        /* \"@openzeppelin/contracts@4.6.0/utils/Strings.sol\":902:916  buffer[digits] */\n      dup2\n      mload\n      dup2\n      lt\n      tag_254\n      jumpi\n      mstore(0x00, 0x4e487b7100000000000000000000000000000000000000000000000000000000)\n      mstore(0x04, 0x32)\n      revert(0x00, 0x24)\n    tag_254:\n      0x20\n      add\n      add\n        /* \"@openzeppelin/contracts@4.6.0/utils/Strings.sol\":902:958  buffer[digits] = bytes1(uint8(48 + uint256(value % 10))) */\n      swap1\n      not(0xffffffffffffffffffffffffffffffffffffffffffffffffffffffffffffff)\n      and\n      swap1\n      dup2\n      0x00\n      byte\n      swap1\n      mstore8\n      pop\n        /* \"@openzeppelin/contracts@4.6.0/utils/Strings.sol\":981:983  10 */\n      0x0a\n        /* \"@openzeppelin/contracts@4.6.0/utils/Strings.sol\":972:983  value /= 10 */\n      dup6\n      tag_255\n      swap2\n      swap1\n      tag_243\n      jump\t// in\n    tag_255:\n      swap5\n      pop\n        /* \"@openzeppelin/contracts@4.6.0/utils/Strings.sol\":844:994  while (value != 0) {... */\n      jump(tag_246)\n    tag_247:\n        /* \"@openzeppelin/contracts@4.6.0/utils/Strings.sol\":1017:1023  buffer */\n      dup1\n        /* \"@openzeppelin/contracts@4.6.0/utils/Strings.sol\":1003:1024  return string(buffer) */\n      swap4\n      pop\n      pop\n      pop\n      pop\n        /* \"@openzeppelin/contracts@4.6.0/utils/Strings.sol\":328:1031  function toString(uint256 value) internal pure returns (string memory) {... */\n    tag_236:\n      swap2\n      swap1\n      pop\n      jump\t// out\n        /* \"contracts/nft.sol\":5950:6077  function _exists(uint256 tokenId) internal view virtual returns (bool) {\r... */\n    tag_186:\n        /* \"contracts/nft.sol\":6015:6019  bool */\n      0x00\n        /* \"contracts/nft.sol\":6067:6068  0 */\n      dup1\n        /* \"contracts/nft.sol\":6039:6069  _owners[tokenId] != address(0) */\n      0xffffffffffffffffffffffffffffffffffffffff\n      and\n        /* \"contracts/nft.sol\":6039:6046  _owners */\n      0x02\n        /* \"contracts/nft.sol\":6039:6055  _owners[tokenId] */\n      0x00\n        /* \"contracts/nft.sol\":6047:6054  tokenId */\n      dup5\n        /* \"contracts/nft.sol\":6039:6055  _owners[tokenId] */\n      dup2\n      mstore\n      0x20\n      add\n      swap1\n      dup2\n      mstore\n      0x20\n      add\n      0x00\n      keccak256\n      0x00\n      swap1\n      sload\n      swap1\n      0x0100\n      exp\n      swap1\n      div\n      0xffffffffffffffffffffffffffffffffffffffff\n      and\n        /* \"contracts/nft.sol\":6039:6069  _owners[tokenId] != address(0) */\n      0xffffffffffffffffffffffffffffffffffffffff\n      and\n      eq\n      iszero\n        /* \"contracts/nft.sol\":6032:6069  return _owners[tokenId] != address(0) */\n      swap1\n      pop\n        /* \"contracts/nft.sol\":5950:6077  function _exists(uint256 tokenId) internal view virtual returns (bool) {\r... */\n      swap2\n      swap1\n      pop\n      jump\t// out\n        /* \"contracts/nft.sol\":10621:10747  function _beforeTokenTransfer(\r... */\n    tag_207:\n      pop\n      pop\n      pop\n      jump\t// out\n        /* \"contracts/nft.sol\":10755:10880  function _afterTokenTransfer(\r... */\n    tag_212:\n      pop\n      pop\n      pop\n      jump\t// out\n        /* \"contracts/nft.sol\":6557:6921  function _safeMint(\r... */\n    tag_215:\n        /* \"contracts/nft.sol\":6717:6749  _mint(to, collaborator, tokenId) */\n      tag_260\n        /* \"contracts/nft.sol\":6723:6725  to */\n      dup5\n        /* \"contracts/nft.sol\":6727:6739  collaborator */\n      dup5\n        /* \"contracts/nft.sol\":6741:6748  tokenId */\n      dup5\n        /* \"contracts/nft.sol\":6717:6722  _mint */\n      tag_261\n        /* \"contracts/nft.sol\":6717:6749  _mint(to, collaborator, tokenId) */\n      jump\t// in\n    tag_260:\n        /* \"contracts/nft.sol\":6782:6835  _checkOnERC721Received(address(0), to, tokenId, data) */\n      tag_262\n        /* \"contracts/nft.sol\":6813:6814  0 */\n      0x00\n        /* \"contracts/nft.sol\":6817:6819  to */\n      dup6\n        /* \"contracts/nft.sol\":6821:6828  tokenId */\n      dup5\n        /* \"contracts/nft.sol\":6830:6834  data */\n      dup5\n        /* \"contracts/nft.sol\":6782:6804  _checkOnERC721Received */\n      tag_231\n        /* \"contracts/nft.sol\":6782:6835  _checkOnERC721Received(address(0), to, tokenId, data) */\n      jump\t// in\n    tag_262:\n        /* \"contracts/nft.sol\":6760:6913  require(\r... */\n      tag_263\n      jumpi\n      mload(0x40)\n      0x08c379a000000000000000000000000000000000000000000000000000000000\n      dup2\n      mstore\n      0x04\n      add\n      tag_264\n      swap1\n      tag_234\n      jump\t// in\n    tag_264:\n      mload(0x40)\n      dup1\n      swap2\n      sub\n      swap1\n      revert\n    tag_263:\n        /* \"contracts/nft.sol\":6557:6921  function _safeMint(\r... */\n      pop\n      pop\n      pop\n      pop\n      jump\t// out\n        /* \"contracts/nft.sol\":9758:10611  function _checkOnERC721Received(\r... */\n    tag_231:\n        /* \"contracts/nft.sol\":9912:9916  bool */\n      0x00\n        /* \"contracts/nft.sol\":9933:9948  to.isContract() */\n      tag_266\n        /* \"contracts/nft.sol\":9933:9935  to */\n      dup5\n        /* \"contracts/nft.sol\":9933:9946  to.isContract */\n      0xffffffffffffffffffffffffffffffffffffffff\n      and\n      tag_267\n        /* \"contracts/nft.sol\":9933:9948  to.isContract() */\n      jump\t// in\n    tag_266:\n        /* \"contracts/nft.sol\":9929:10604  if (to.isContract()) {\r... */\n      iszero\n      tag_268\n      jumpi\n        /* \"contracts/nft.sol\":9985:9987  to */\n      dup4\n        /* \"contracts/nft.sol\":9969:10005  IERC721Receiver(to).onERC721Received */\n      0xffffffffffffffffffffffffffffffffffffffff\n      and\n      0x150b7a02\n        /* \"contracts/nft.sol\":10006:10018  _msgSender() */\n      tag_269\n        /* \"contracts/nft.sol\":10006:10016  _msgSender */\n      tag_117\n        /* \"contracts/nft.sol\":10006:10018  _msgSender() */\n      jump\t// in\n    tag_269:\n        /* \"contracts/nft.sol\":10020:10024  from */\n      dup8\n        /* \"contracts/nft.sol\":10026:10033  tokenId */\n      dup7\n        /* \"contracts/nft.sol\":10035:10039  data */\n      dup7\n        /* \"contracts/nft.sol\":9969:10040  IERC721Receiver(to).onERC721Received(_msgSender(), from, tokenId, data) */\n      mload(0x40)\n      dup6\n      0xffffffff\n      and\n      0xe0\n      shl\n      dup2\n      mstore\n      0x04\n      add\n      tag_270\n      swap5\n      swap4\n      swap3\n      swap2\n      swap1\n      tag_271\n      jump\t// in\n    tag_270:\n      0x20\n      mload(0x40)\n      dup1\n      dup4\n      sub\n      dup2\n      0x00\n      dup8\n      dup1\n      extcodesize\n      iszero\n      dup1\n      iszero\n      tag_272\n      jumpi\n      0x00\n      dup1\n      revert\n    tag_272:\n      pop\n      gas\n      call\n      swap3\n      pop\n      pop\n      pop\n      dup1\n      iszero\n      tag_273\n      jumpi\n      pop\n      mload(0x40)\n      returndatasize\n      not(0x1f)\n      0x1f\n      dup3\n      add\n      and\n      dup3\n      add\n      dup1\n      0x40\n      mstore\n      pop\n      dup2\n      add\n      swap1\n      tag_274\n      swap2\n      swap1\n      tag_275\n      jump\t// in\n    tag_274:\n      0x01\n    tag_273:\n        /* \"contracts/nft.sol\":9965:10549  try IERC721Receiver(to).onERC721Received(_msgSender(), from, tokenId, data) returns (bytes4 retval) {\r... */\n      tag_276\n      jumpi\n      returndatasize\n      dup1\n      0x00\n      dup2\n      eq\n      tag_281\n      jumpi\n      mload(0x40)\n      swap2\n      pop\n      and(add(returndatasize, 0x3f), not(0x1f))\n      dup3\n      add\n      0x40\n      mstore\n      returndatasize\n      dup3\n      mstore\n      returndatasize\n      0x00\n      0x20\n      dup5\n      add\n      returndatacopy\n      jump(tag_280)\n    tag_281:\n      0x60\n      swap2\n      pop\n    tag_280:\n      pop\n        /* \"contracts/nft.sol\":10227:10228  0 */\n      0x00\n        /* \"contracts/nft.sol\":10210:10216  reason */\n      dup2\n        /* \"contracts/nft.sol\":10210:10223  reason.length */\n      mload\n        /* \"contracts/nft.sol\":10210:10228  reason.length == 0 */\n      eq\n        /* \"contracts/nft.sol\":10206:10534  if (reason.length == 0) {\r... */\n      iszero\n      tag_282\n      jumpi\n        /* \"contracts/nft.sol\":10253:10313  revert(\"ERC721: transfer to non ERC721Receiver implementer\") */\n      mload(0x40)\n      0x08c379a000000000000000000000000000000000000000000000000000000000\n      dup2\n      mstore\n      0x04\n      add\n      tag_283\n      swap1\n      tag_234\n      jump\t// in\n    tag_283:\n      mload(0x40)\n      dup1\n      swap2\n      sub\n      swap1\n      revert\n        /* \"contracts/nft.sol\":10206:10534  if (reason.length == 0) {\r... */\n    tag_282:\n        /* \"contracts/nft.sol\":10484:10490  reason */\n      dup1\n        /* \"contracts/nft.sol\":10478:10491  mload(reason) */\n      mload\n        /* \"contracts/nft.sol\":10469:10475  reason */\n      dup2\n        /* \"contracts/nft.sol\":10465:10467  32 */\n      0x20\n        /* \"contracts/nft.sol\":10461:10476  add(32, reason) */\n      add\n        /* \"contracts/nft.sol\":10454:10492  revert(add(32, reason), mload(reason)) */\n      revert\n        /* \"contracts/nft.sol\":9965:10549  try IERC721Receiver(to).onERC721Received(_msgSender(), from, tokenId, data) returns (bytes4 retval) {\r... */\n    tag_276:\n        /* \"contracts/nft.sol\":10101:10142  IERC721Receiver.onERC721Received.selector */\n      shl(0xe0, 0x150b7a02)\n        /* \"contracts/nft.sol\":10091:10142  retval == IERC721Receiver.onERC721Received.selector */\n      not(0xffffffffffffffffffffffffffffffffffffffffffffffffffffffff)\n      and\n        /* \"contracts/nft.sol\":10091:10097  retval */\n      dup2\n        /* \"contracts/nft.sol\":10091:10142  retval == IERC721Receiver.onERC721Received.selector */\n      not(0xffffffffffffffffffffffffffffffffffffffffffffffffffffffff)\n      and\n      eq\n        /* \"contracts/nft.sol\":10084:10142  return retval == IERC721Receiver.onERC721Received.selector */\n      swap2\n      pop\n      pop\n      jump(tag_265)\n        /* \"contracts/nft.sol\":9929:10604  if (to.isContract()) {\r... */\n    tag_268:\n        /* \"contracts/nft.sol\":10588:10592  true */\n      0x01\n        /* \"contracts/nft.sol\":10581:10592  return true */\n      swap1\n      pop\n        /* \"contracts/nft.sol\":9758:10611  function _checkOnERC721Received(\r... */\n    tag_265:\n      swap5\n      swap4\n      pop\n      pop\n      pop\n      pop\n      jump\t// out\n        /* \"contracts/nft.sol\":6929:7628  function _mint(address to,address collaborator,uint256 tokenId) internal virtual {\r... */\n    tag_261:\n        /* \"contracts/nft.sol\":7043:7044  0 */\n      0x00\n        /* \"contracts/nft.sol\":7029:7045  to != address(0) */\n      0xffffffffffffffffffffffffffffffffffffffff\n      and\n        /* \"contracts/nft.sol\":7029:7031  to */\n      dup4\n        /* \"contracts/nft.sol\":7029:7045  to != address(0) */\n      0xffffffffffffffffffffffffffffffffffffffff\n      and\n      eq\n      iszero\n        /* \"contracts/nft.sol\":7021:7082  require(to != address(0), \"ERC721: mint to the zero address\") */\n      tag_288\n      jumpi\n      mload(0x40)\n      0x08c379a000000000000000000000000000000000000000000000000000000000\n      dup2\n      mstore\n      0x04\n      add\n      tag_289\n      swap1\n      tag_290\n      jump\t// in\n    tag_289:\n      mload(0x40)\n      dup1\n      swap2\n      sub\n      swap1\n      revert\n    tag_288:\n        /* \"contracts/nft.sol\":7125:7126  0 */\n      0x00\n        /* \"contracts/nft.sol\":7101:7127  collaborator != address(0) */\n      0xffffffffffffffffffffffffffffffffffffffff\n      and\n        /* \"contracts/nft.sol\":7101:7113  collaborator */\n      dup3\n        /* \"contracts/nft.sol\":7101:7127  collaborator != address(0) */\n      0xffffffffffffffffffffffffffffffffffffffff\n      and\n      eq\n      iszero\n        /* \"contracts/nft.sol\":7093:7164  require(collaborator != address(0), \"ERC721: mint to the zero address\") */\n      tag_291\n      jumpi\n      mload(0x40)\n      0x08c379a000000000000000000000000000000000000000000000000000000000\n      dup2\n      mstore\n      0x04\n      add\n      tag_292\n      swap1\n      tag_290\n      jump\t// in\n    tag_292:\n      mload(0x40)\n      dup1\n      swap2\n      sub\n      swap1\n      revert\n    tag_291:\n        /* \"contracts/nft.sol\":7184:7200  _exists(tokenId) */\n      tag_293\n        /* \"contracts/nft.sol\":7192:7199  tokenId */\n      dup2\n        /* \"contracts/nft.sol\":7184:7191  _exists */\n      tag_186\n        /* \"contracts/nft.sol\":7184:7200  _exists(tokenId) */\n      jump\t// in\n    tag_293:\n        /* \"contracts/nft.sol\":7183:7200  !_exists(tokenId) */\n      iszero\n        /* \"contracts/nft.sol\":7175:7233  require(!_exists(tokenId), \"ERC721: token already minted\") */\n      tag_294\n      jumpi\n      mload(0x40)\n      0x08c379a000000000000000000000000000000000000000000000000000000000\n      dup2\n      mstore\n      0x04\n      add\n      tag_295\n      swap1\n      tag_296\n      jump\t// in\n    tag_295:\n      mload(0x40)\n      dup1\n      swap2\n      sub\n      swap1\n      revert\n    tag_294:\n        /* \"contracts/nft.sol\":7246:7291  _beforeTokenTransfer(address(0), to, tokenId) */\n      tag_297\n        /* \"contracts/nft.sol\":7275:7276  0 */\n      0x00\n        /* \"contracts/nft.sol\":7279:7281  to */\n      dup5\n        /* \"contracts/nft.sol\":7283:7290  tokenId */\n      dup4\n        /* \"contracts/nft.sol\":7246:7266  _beforeTokenTransfer */\n      tag_207\n        /* \"contracts/nft.sol\":7246:7291  _beforeTokenTransfer(address(0), to, tokenId) */\n      jump\t// in\n    tag_297:\n        /* \"contracts/nft.sol\":7313:7329  _exists(tokenId) */\n      tag_298\n        /* \"contracts/nft.sol\":7321:7328  tokenId */\n      dup2\n        /* \"contracts/nft.sol\":7313:7320  _exists */\n      tag_186\n        /* \"contracts/nft.sol\":7313:7329  _exists(tokenId) */\n      jump\t// in\n    tag_298:\n        /* \"contracts/nft.sol\":7312:7329  !_exists(tokenId) */\n      iszero\n        /* \"contracts/nft.sol\":7304:7362  require(!_exists(tokenId), \"ERC721: token already minted\") */\n      tag_299\n      jumpi\n      mload(0x40)\n      0x08c379a000000000000000000000000000000000000000000000000000000000\n      dup2\n      mstore\n      0x04\n      add\n      tag_300\n      swap1\n      tag_296\n      jump\t// in\n    tag_300:\n      mload(0x40)\n      dup1\n      swap2\n      sub\n      swap1\n      revert\n    tag_299:\n        /* \"contracts/nft.sol\":7417:7418  1 */\n      0x01\n        /* \"contracts/nft.sol\":7400:7409  _balances */\n      0x06\n        /* \"contracts/nft.sol\":7400:7413  _balances[to] */\n      0x00\n        /* \"contracts/nft.sol\":7410:7412  to */\n      dup6\n        /* \"contracts/nft.sol\":7400:7413  _balances[to] */\n      0xffffffffffffffffffffffffffffffffffffffff\n      and\n      0xffffffffffffffffffffffffffffffffffffffff\n      and\n      dup2\n      mstore\n      0x20\n      add\n      swap1\n      dup2\n      mstore\n      0x20\n      add\n      0x00\n      keccak256\n      0x00\n        /* \"contracts/nft.sol\":7400:7418  _balances[to] += 1 */\n      dup3\n      dup3\n      sload\n      add\n      swap3\n      pop\n      pop\n      dup2\n      swap1\n      sstore\n      pop\n        /* \"contracts/nft.sol\":7461:7463  to */\n      dup3\n        /* \"contracts/nft.sol\":7442:7449  _owners */\n      0x02\n        /* \"contracts/nft.sol\":7442:7458  _owners[tokenId] */\n      0x00\n        /* \"contracts/nft.sol\":7450:7457  tokenId */\n      dup4\n        /* \"contracts/nft.sol\":7442:7458  _owners[tokenId] */\n      dup2\n      mstore\n      0x20\n      add\n      swap1\n      dup2\n      mstore\n      0x20\n      add\n      0x00\n      keccak256\n      0x00\n        /* \"contracts/nft.sol\":7442:7463  _owners[tokenId] = to */\n      0x0100\n      exp\n      dup2\n      sload\n      dup2\n      0xffffffffffffffffffffffffffffffffffffffff\n      mul\n      not\n      and\n      swap1\n      dup4\n      0xffffffffffffffffffffffffffffffffffffffff\n      and\n      mul\n      or\n      swap1\n      sstore\n      pop\n        /* \"contracts/nft.sol\":7500:7512  collaborator */\n      dup2\n        /* \"contracts/nft.sol\":7474:7488  _collaborators */\n      0x04\n        /* \"contracts/nft.sol\":7474:7497  _collaborators[tokenId] */\n      0x00\n        /* \"contracts/nft.sol\":7489:7496  tokenId */\n      dup4\n        /* \"contracts/nft.sol\":7474:7497  _collaborators[tokenId] */\n      dup2\n      mstore\n      0x20\n      add\n      swap1\n      dup2\n      mstore\n      0x20\n      add\n      0x00\n      keccak256\n      0x00\n        /* \"contracts/nft.sol\":7474:7512  _collaborators[tokenId] = collaborator */\n      0x0100\n      exp\n      dup2\n      sload\n      dup2\n      0xffffffffffffffffffffffffffffffffffffffff\n      mul\n      not\n      and\n      swap1\n      dup4\n      0xffffffffffffffffffffffffffffffffffffffff\n      and\n      mul\n      or\n      swap1\n      sstore\n      pop\n        /* \"contracts/nft.sol\":7555:7562  tokenId */\n      dup1\n        /* \"contracts/nft.sol\":7551:7553  to */\n      dup4\n        /* \"contracts/nft.sol\":7530:7563  Transfer(address(0), to, tokenId) */\n      0xffffffffffffffffffffffffffffffffffffffff\n      and\n        /* \"contracts/nft.sol\":7547:7548  0 */\n      0x00\n        /* \"contracts/nft.sol\":7530:7563  Transfer(address(0), to, tokenId) */\n      0xffffffffffffffffffffffffffffffffffffffff\n      and\n      0xddf252ad1be2c89b69c2b068fc378daa952ba7f163c4a11628f55a4df523b3ef\n      mload(0x40)\n      mload(0x40)\n      dup1\n      swap2\n      sub\n      swap1\n      log4\n        /* \"contracts/nft.sol\":7576:7620  _afterTokenTransfer(address(0), to, tokenId) */\n      tag_301\n        /* \"contracts/nft.sol\":7604:7605  0 */\n      0x00\n        /* \"contracts/nft.sol\":7608:7610  to */\n      dup5\n        /* \"contracts/nft.sol\":7612:7619  tokenId */\n      dup4\n        /* \"contracts/nft.sol\":7576:7595  _afterTokenTransfer */\n      tag_212\n        /* \"contracts/nft.sol\":7576:7620  _afterTokenTransfer(address(0), to, tokenId) */\n      jump\t// in\n    tag_301:\n        /* \"contracts/nft.sol\":6929:7628  function _mint(address to,address collaborator,uint256 tokenId) internal virtual {\r... */\n      pop\n      pop\n      pop\n      jump\t// out\n        /* \"@openzeppelin/contracts@4.6.0/utils/Address.sol\":1175:1495  function isContract(address account) internal view returns (bool) {... */\n    tag_267:\n        /* \"@openzeppelin/contracts@4.6.0/utils/Address.sol\":1235:1239  bool */\n      0x00\n        /* \"@openzeppelin/contracts@4.6.0/utils/Address.sol\":1487:1488  0 */\n      dup1\n        /* \"@openzeppelin/contracts@4.6.0/utils/Address.sol\":1465:1472  account */\n      dup3\n        /* \"@openzeppelin/contracts@4.6.0/utils/Address.sol\":1465:1484  account.code.length */\n      0xffffffffffffffffffffffffffffffffffffffff\n      and\n      extcodesize\n        /* \"@openzeppelin/contracts@4.6.0/utils/Address.sol\":1465:1488  account.code.length > 0 */\n      gt\n        /* \"@openzeppelin/contracts@4.6.0/utils/Address.sol\":1458:1488  return account.code.length > 0 */\n      swap1\n      pop\n        /* \"@openzeppelin/contracts@4.6.0/utils/Address.sol\":1175:1495  function isContract(address account) internal view returns (bool) {... */\n      swap2\n      swap1\n      pop\n      jump\t// out\n    tag_222:\n      dup3\n      dup1\n      sload\n      tag_303\n      swap1\n      tag_103\n      jump\t// in\n    tag_303:\n      swap1\n      0x00\n      mstore\n      keccak256(0x00, 0x20)\n      swap1\n      0x1f\n      add\n      0x20\n      swap1\n      div\n      dup2\n      add\n      swap3\n      dup3\n      tag_305\n      jumpi\n      0x00\n      dup6\n      sstore\n      jump(tag_304)\n    tag_305:\n      dup3\n      0x1f\n      lt\n      tag_306\n      jumpi\n      dup1\n      mload\n      not(0xff)\n      and\n      dup4\n      dup1\n      add\n      or\n      dup6\n      sstore\n      jump(tag_304)\n    tag_306:\n      dup3\n      dup1\n      add\n      0x01\n      add\n      dup6\n      sstore\n      dup3\n      iszero\n      tag_304\n      jumpi\n      swap2\n      dup3\n      add\n    tag_307:\n      dup3\n      dup2\n      gt\n      iszero\n      tag_308\n      jumpi\n      dup3\n      mload\n      dup3\n      sstore\n      swap2\n      0x20\n      add\n      swap2\n      swap1\n      0x01\n      add\n      swap1\n      jump(tag_307)\n    tag_308:\n    tag_304:\n      pop\n      swap1\n      pop\n      tag_309\n      swap2\n      swap1\n      tag_310\n      jump\t// in\n    tag_309:\n      pop\n      swap1\n      jump\t// out\n    tag_310:\n    tag_311:\n      dup1\n      dup3\n      gt\n      iszero\n      tag_312\n      jumpi\n      0x00\n      dup2\n      0x00\n      swap1\n      sstore\n      pop\n      0x01\n      add\n      jump(tag_311)\n    tag_312:\n      pop\n      swap1\n      jump\t// out\n        /* \"#utility.yul\":7:350   */\n    tag_314:\n        /* \"#utility.yul\":84:89   */\n      0x00\n        /* \"#utility.yul\":109:174   */\n      tag_316\n        /* \"#utility.yul\":125:173   */\n      tag_317\n        /* \"#utility.yul\":166:172   */\n      dup5\n        /* \"#utility.yul\":125:173   */\n      tag_318\n      jump\t// in\n    tag_317:\n        /* \"#utility.yul\":109:174   */\n      tag_319\n      jump\t// in\n    tag_316:\n        /* \"#utility.yul\":100:174   */\n      swap1\n      pop\n        /* \"#utility.yul\":197:203   */\n      dup3\n        /* \"#utility.yul\":190:195   */\n      dup2\n        /* \"#utility.yul\":183:204   */\n      mstore\n        /* \"#utility.yul\":235:239   */\n      0x20\n        /* \"#utility.yul\":228:233   */\n      dup2\n        /* \"#utility.yul\":224:240   */\n      add\n        /* \"#utility.yul\":273:276   */\n      dup5\n        /* \"#utility.yul\":264:270   */\n      dup5\n        /* \"#utility.yul\":259:262   */\n      dup5\n        /* \"#utility.yul\":255:271   */\n      add\n        /* \"#utility.yul\":252:277   */\n      gt\n        /* \"#utility.yul\":249:251   */\n      iszero\n      tag_320\n      jumpi\n        /* \"#utility.yul\":290:291   */\n      0x00\n        /* \"#utility.yul\":287:288   */\n      dup1\n        /* \"#utility.yul\":280:292   */\n      revert\n        /* \"#utility.yul\":249:251   */\n    tag_320:\n        /* \"#utility.yul\":303:344   */\n      tag_321\n        /* \"#utility.yul\":337:343   */\n      dup5\n        /* \"#utility.yul\":332:335   */\n      dup3\n        /* \"#utility.yul\":327:330   */\n      dup6\n        /* \"#utility.yul\":303:344   */\n      tag_322\n      jump\t// in\n    tag_321:\n        /* \"#utility.yul\":90:350   */\n      pop\n      swap4\n      swap3\n      pop\n      pop\n      pop\n      jump\t// out\n        /* \"#utility.yul\":356:701   */\n    tag_323:\n        /* \"#utility.yul\":434:439   */\n      0x00\n        /* \"#utility.yul\":459:525   */\n      tag_325\n        /* \"#utility.yul\":475:524   */\n      tag_326\n        /* \"#utility.yul\":517:523   */\n      dup5\n        /* \"#utility.yul\":475:524   */\n      tag_327\n      jump\t// in\n    tag_326:\n        /* \"#utility.yul\":459:525   */\n      tag_319\n      jump\t// in\n    tag_325:\n        /* \"#utility.yul\":450:525   */\n      swap1\n      pop\n        /* \"#utility.yul\":548:554   */\n      dup3\n        /* \"#utility.yul\":541:546   */\n      dup2\n        /* \"#utility.yul\":534:555   */\n      mstore\n        /* \"#utility.yul\":586:590   */\n      0x20\n        /* \"#utility.yul\":579:584   */\n      dup2\n        /* \"#utility.yul\":575:591   */\n      add\n        /* \"#utility.yul\":624:627   */\n      dup5\n        /* \"#utility.yul\":615:621   */\n      dup5\n        /* \"#utility.yul\":610:613   */\n      dup5\n        /* \"#utility.yul\":606:622   */\n      add\n        /* \"#utility.yul\":603:628   */\n      gt\n        /* \"#utility.yul\":600:602   */\n      iszero\n      tag_328\n      jumpi\n        /* \"#utility.yul\":641:642   */\n      0x00\n        /* \"#utility.yul\":638:639   */\n      dup1\n        /* \"#utility.yul\":631:643   */\n      revert\n        /* \"#utility.yul\":600:602   */\n    tag_328:\n        /* \"#utility.yul\":654:695   */\n      tag_329\n        /* \"#utility.yul\":688:694   */\n      dup5\n        /* \"#utility.yul\":683:686   */\n      dup3\n        /* \"#utility.yul\":678:681   */\n      dup6\n        /* \"#utility.yul\":654:695   */\n      tag_322\n      jump\t// in\n    tag_329:\n        /* \"#utility.yul\":440:701   */\n      pop\n      swap4\n      swap3\n      pop\n      pop\n      pop\n      jump\t// out\n        /* \"#utility.yul\":707:846   */\n    tag_330:\n        /* \"#utility.yul\":753:758   */\n      0x00\n        /* \"#utility.yul\":791:797   */\n      dup2\n        /* \"#utility.yul\":778:798   */\n      calldataload\n        /* \"#utility.yul\":769:798   */\n      swap1\n      pop\n        /* \"#utility.yul\":807:840   */\n      tag_332\n        /* \"#utility.yul\":834:839   */\n      dup2\n        /* \"#utility.yul\":807:840   */\n      tag_333\n      jump\t// in\n    tag_332:\n        /* \"#utility.yul\":759:846   */\n      swap3\n      swap2\n      pop\n      pop\n      jump\t// out\n        /* \"#utility.yul\":852:985   */\n    tag_334:\n        /* \"#utility.yul\":895:900   */\n      0x00\n        /* \"#utility.yul\":933:939   */\n      dup2\n        /* \"#utility.yul\":920:940   */\n      calldataload\n        /* \"#utility.yul\":911:940   */\n      swap1\n      pop\n        /* \"#utility.yul\":949:979   */\n      tag_336\n        /* \"#utility.yul\":973:978   */\n      dup2\n        /* \"#utility.yul\":949:979   */\n      tag_337\n      jump\t// in\n    tag_336:\n        /* \"#utility.yul\":901:985   */\n      swap3\n      swap2\n      pop\n      pop\n      jump\t// out\n        /* \"#utility.yul\":991:1128   */\n    tag_338:\n        /* \"#utility.yul\":1036:1041   */\n      0x00\n        /* \"#utility.yul\":1074:1080   */\n      dup2\n        /* \"#utility.yul\":1061:1081   */\n      calldataload\n        /* \"#utility.yul\":1052:1081   */\n      swap1\n      pop\n        /* \"#utility.yul\":1090:1122   */\n      tag_340\n        /* \"#utility.yul\":1116:1121   */\n      dup2\n        /* \"#utility.yul\":1090:1122   */\n      tag_341\n      jump\t// in\n    tag_340:\n        /* \"#utility.yul\":1042:1128   */\n      swap3\n      swap2\n      pop\n      pop\n      jump\t// out\n        /* \"#utility.yul\":1134:1275   */\n    tag_342:\n        /* \"#utility.yul\":1190:1195   */\n      0x00\n        /* \"#utility.yul\":1221:1227   */\n      dup2\n        /* \"#utility.yul\":1215:1228   */\n      mload\n        /* \"#utility.yul\":1206:1228   */\n      swap1\n      pop\n        /* \"#utility.yul\":1237:1269   */\n      tag_344\n        /* \"#utility.yul\":1263:1268   */\n      dup2\n        /* \"#utility.yul\":1237:1269   */\n      tag_341\n      jump\t// in\n    tag_344:\n        /* \"#utility.yul\":1196:1275   */\n      swap3\n      swap2\n      pop\n      pop\n      jump\t// out\n        /* \"#utility.yul\":1294:1565   */\n    tag_345:\n        /* \"#utility.yul\":1349:1354   */\n      0x00\n        /* \"#utility.yul\":1398:1401   */\n      dup3\n        /* \"#utility.yul\":1391:1395   */\n      0x1f\n        /* \"#utility.yul\":1383:1389   */\n      dup4\n        /* \"#utility.yul\":1379:1396   */\n      add\n        /* \"#utility.yul\":1375:1402   */\n      slt\n        /* \"#utility.yul\":1365:1367   */\n      tag_347\n      jumpi\n        /* \"#utility.yul\":1416:1417   */\n      0x00\n        /* \"#utility.yul\":1413:1414   */\n      dup1\n        /* \"#utility.yul\":1406:1418   */\n      revert\n        /* \"#utility.yul\":1365:1367   */\n    tag_347:\n        /* \"#utility.yul\":1456:1462   */\n      dup2\n        /* \"#utility.yul\":1443:1463   */\n      calldataload\n        /* \"#utility.yul\":1481:1559   */\n      tag_348\n        /* \"#utility.yul\":1555:1558   */\n      dup5\n        /* \"#utility.yul\":1547:1553   */\n      dup3\n        /* \"#utility.yul\":1540:1544   */\n      0x20\n        /* \"#utility.yul\":1532:1538   */\n      dup7\n        /* \"#utility.yul\":1528:1545   */\n      add\n        /* \"#utility.yul\":1481:1559   */\n      tag_314\n      jump\t// in\n    tag_348:\n        /* \"#utility.yul\":1472:1559   */\n      swap2\n      pop\n        /* \"#utility.yul\":1355:1565   */\n      pop\n      swap3\n      swap2\n      pop\n      pop\n      jump\t// out\n        /* \"#utility.yul\":1585:1858   */\n    tag_349:\n        /* \"#utility.yul\":1641:1646   */\n      0x00\n        /* \"#utility.yul\":1690:1693   */\n      dup3\n        /* \"#utility.yul\":1683:1687   */\n      0x1f\n        /* \"#utility.yul\":1675:1681   */\n      dup4\n        /* \"#utility.yul\":1671:1688   */\n      add\n        /* \"#utility.yul\":1667:1694   */\n      slt\n        /* \"#utility.yul\":1657:1659   */\n      tag_351\n      jumpi\n        /* \"#utility.yul\":1708:1709   */\n      0x00\n        /* \"#utility.yul\":1705:1706   */\n      dup1\n        /* \"#utility.yul\":1698:1710   */\n      revert\n        /* \"#utility.yul\":1657:1659   */\n    tag_351:\n        /* \"#utility.yul\":1748:1754   */\n      dup2\n        /* \"#utility.yul\":1735:1755   */\n      calldataload\n        /* \"#utility.yul\":1773:1852   */\n      tag_352\n        /* \"#utility.yul\":1848:1851   */\n      dup5\n        /* \"#utility.yul\":1840:1846   */\n      dup3\n        /* \"#utility.yul\":1833:1837   */\n      0x20\n        /* \"#utility.yul\":1825:1831   */\n      dup7\n        /* \"#utility.yul\":1821:1838   */\n      add\n        /* \"#utility.yul\":1773:1852   */\n      tag_323\n      jump\t// in\n    tag_352:\n        /* \"#utility.yul\":1764:1852   */\n      swap2\n      pop\n        /* \"#utility.yul\":1647:1858   */\n      pop\n      swap3\n      swap2\n      pop\n      pop\n      jump\t// out\n        /* \"#utility.yul\":1864:2003   */\n    tag_353:\n        /* \"#utility.yul\":1910:1915   */\n      0x00\n        /* \"#utility.yul\":1948:1954   */\n      dup2\n        /* \"#utility.yul\":1935:1955   */\n      calldataload\n        /* \"#utility.yul\":1926:1955   */\n      swap1\n      pop\n        /* \"#utility.yul\":1964:1997   */\n      tag_355\n        /* \"#utility.yul\":1991:1996   */\n      dup2\n        /* \"#utility.yul\":1964:1997   */\n      tag_356\n      jump\t// in\n    tag_355:\n        /* \"#utility.yul\":1916:2003   */\n      swap3\n      swap2\n      pop\n      pop\n      jump\t// out\n        /* \"#utility.yul\":2009:2271   */\n    tag_65:\n        /* \"#utility.yul\":2068:2074   */\n      0x00\n        /* \"#utility.yul\":2117:2119   */\n      0x20\n        /* \"#utility.yul\":2105:2114   */\n      dup3\n        /* \"#utility.yul\":2096:2103   */\n      dup5\n        /* \"#utility.yul\":2092:2115   */\n      sub\n        /* \"#utility.yul\":2088:2120   */\n      slt\n        /* \"#utility.yul\":2085:2087   */\n      iszero\n      tag_358\n      jumpi\n        /* \"#utility.yul\":2133:2134   */\n      0x00\n        /* \"#utility.yul\":2130:2131   */\n      dup1\n        /* \"#utility.yul\":2123:2135   */\n      revert\n        /* \"#utility.yul\":2085:2087   */\n    tag_358:\n        /* \"#utility.yul\":2176:2177   */\n      0x00\n        /* \"#utility.yul\":2201:2254   */\n      tag_359\n        /* \"#utility.yul\":2246:2253   */\n      dup5\n        /* \"#utility.yul\":2237:2243   */\n      dup3\n        /* \"#utility.yul\":2226:2235   */\n      dup6\n        /* \"#utility.yul\":2222:2244   */\n      add\n        /* \"#utility.yul\":2201:2254   */\n      tag_330\n      jump\t// in\n    tag_359:\n        /* \"#utility.yul\":2191:2254   */\n      swap2\n      pop\n        /* \"#utility.yul\":2147:2264   */\n      pop\n        /* \"#utility.yul\":2075:2271   */\n      swap3\n      swap2\n      pop\n      pop\n      jump\t// out\n        /* \"#utility.yul\":2277:2684   */\n    tag_89:\n        /* \"#utility.yul\":2345:2351   */\n      0x00\n        /* \"#utility.yul\":2353:2359   */\n      dup1\n        /* \"#utility.yul\":2402:2404   */\n      0x40\n        /* \"#utility.yul\":2390:2399   */\n      dup4\n        /* \"#utility.yul\":2381:2388   */\n      dup6\n        /* \"#utility.yul\":2377:2400   */\n      sub\n        /* \"#utility.yul\":2373:2405   */\n      slt\n        /* \"#utility.yul\":2370:2372   */\n      iszero\n      tag_361\n      jumpi\n        /* \"#utility.yul\":2418:2419   */\n      0x00\n        /* \"#utility.yul\":2415:2416   */\n      dup1\n        /* \"#utility.yul\":2408:2420   */\n      revert\n        /* \"#utility.yul\":2370:2372   */\n    tag_361:\n        /* \"#utility.yul\":2461:2462   */\n      0x00\n        /* \"#utility.yul\":2486:2539   */\n      tag_362\n        /* \"#utility.yul\":2531:2538   */\n      dup6\n        /* \"#utility.yul\":2522:2528   */\n      dup3\n        /* \"#utility.yul\":2511:2520   */\n      dup7\n        /* \"#utility.yul\":2507:2529   */\n      add\n        /* \"#utility.yul\":2486:2539   */\n      tag_330\n      jump\t// in\n    tag_362:\n        /* \"#utility.yul\":2476:2539   */\n      swap3\n      pop\n        /* \"#utility.yul\":2432:2549   */\n      pop\n        /* \"#utility.yul\":2588:2590   */\n      0x20\n        /* \"#utility.yul\":2614:2667   */\n      tag_363\n        /* \"#utility.yul\":2659:2666   */\n      dup6\n        /* \"#utility.yul\":2650:2656   */\n      dup3\n        /* \"#utility.yul\":2639:2648   */\n      dup7\n        /* \"#utility.yul\":2635:2657   */\n      add\n        /* \"#utility.yul\":2614:2667   */\n      tag_330\n      jump\t// in\n    tag_363:\n        /* \"#utility.yul\":2604:2667   */\n      swap2\n      pop\n        /* \"#utility.yul\":2559:2677   */\n      pop\n        /* \"#utility.yul\":2360:2684   */\n      swap3\n      pop\n      swap3\n      swap1\n      pop\n      jump\t// out\n        /* \"#utility.yul\":2690:3242   */\n    tag_45:\n        /* \"#utility.yul\":2767:2773   */\n      0x00\n        /* \"#utility.yul\":2775:2781   */\n      dup1\n        /* \"#utility.yul\":2783:2789   */\n      0x00\n        /* \"#utility.yul\":2832:2834   */\n      0x60\n        /* \"#utility.yul\":2820:2829   */\n      dup5\n        /* \"#utility.yul\":2811:2818   */\n      dup7\n        /* \"#utility.yul\":2807:2830   */\n      sub\n        /* \"#utility.yul\":2803:2835   */\n      slt\n        /* \"#utility.yul\":2800:2802   */\n      iszero\n      tag_365\n      jumpi\n        /* \"#utility.yul\":2848:2849   */\n      0x00\n        /* \"#utility.yul\":2845:2846   */\n      dup1\n        /* \"#utility.yul\":2838:2850   */\n      revert\n        /* \"#utility.yul\":2800:2802   */\n    tag_365:\n        /* \"#utility.yul\":2891:2892   */\n      0x00\n        /* \"#utility.yul\":2916:2969   */\n      tag_366\n        /* \"#utility.yul\":2961:2968   */\n      dup7\n        /* \"#utility.yul\":2952:2958   */\n      dup3\n        /* \"#utility.yul\":2941:2950   */\n      dup8\n        /* \"#utility.yul\":2937:2959   */\n      add\n        /* \"#utility.yul\":2916:2969   */\n      tag_330\n      jump\t// in\n    tag_366:\n        /* \"#utility.yul\":2906:2969   */\n      swap4\n      pop\n        /* \"#utility.yul\":2862:2979   */\n      pop\n        /* \"#utility.yul\":3018:3020   */\n      0x20\n        /* \"#utility.yul\":3044:3097   */\n      tag_367\n        /* \"#utility.yul\":3089:3096   */\n      dup7\n        /* \"#utility.yul\":3080:3086   */\n      dup3\n        /* \"#utility.yul\":3069:3078   */\n      dup8\n        /* \"#utility.yul\":3065:3087   */\n      add\n        /* \"#utility.yul\":3044:3097   */\n      tag_330\n      jump\t// in\n    tag_367:\n        /* \"#utility.yul\":3034:3097   */\n      swap3\n      pop\n        /* \"#utility.yul\":2989:3107   */\n      pop\n        /* \"#utility.yul\":3146:3148   */\n      0x40\n        /* \"#utility.yul\":3172:3225   */\n      tag_368\n        /* \"#utility.yul\":3217:3224   */\n      dup7\n        /* \"#utility.yul\":3208:3214   */\n      dup3\n        /* \"#utility.yul\":3197:3206   */\n      dup8\n        /* \"#utility.yul\":3193:3215   */\n      add\n        /* \"#utility.yul\":3172:3225   */\n      tag_353\n      jump\t// in\n    tag_368:\n        /* \"#utility.yul\":3162:3225   */\n      swap2\n      pop\n        /* \"#utility.yul\":3117:3235   */\n      pop\n        /* \"#utility.yul\":2790:3242   */\n      swap3\n      pop\n      swap3\n      pop\n      swap3\n      jump\t// out\n        /* \"#utility.yul\":3248:4057   */\n    tag_81:\n        /* \"#utility.yul\":3343:3349   */\n      0x00\n        /* \"#utility.yul\":3351:3357   */\n      dup1\n        /* \"#utility.yul\":3359:3365   */\n      0x00\n        /* \"#utility.yul\":3367:3373   */\n      dup1\n        /* \"#utility.yul\":3416:3419   */\n      0x80\n        /* \"#utility.yul\":3404:3413   */\n      dup6\n        /* \"#utility.yul\":3395:3402   */\n      dup8\n        /* \"#utility.yul\":3391:3414   */\n      sub\n        /* \"#utility.yul\":3387:3420   */\n      slt\n        /* \"#utility.yul\":3384:3386   */\n      iszero\n      tag_370\n      jumpi\n        /* \"#utility.yul\":3433:3434   */\n      0x00\n        /* \"#utility.yul\":3430:3431   */\n      dup1\n        /* \"#utility.yul\":3423:3435   */\n      revert\n        /* \"#utility.yul\":3384:3386   */\n    tag_370:\n        /* \"#utility.yul\":3476:3477   */\n      0x00\n        /* \"#utility.yul\":3501:3554   */\n      tag_371\n        /* \"#utility.yul\":3546:3553   */\n      dup8\n        /* \"#utility.yul\":3537:3543   */\n      dup3\n        /* \"#utility.yul\":3526:3535   */\n      dup9\n        /* \"#utility.yul\":3522:3544   */\n      add\n        /* \"#utility.yul\":3501:3554   */\n      tag_330\n      jump\t// in\n    tag_371:\n        /* \"#utility.yul\":3491:3554   */\n      swap5\n      pop\n        /* \"#utility.yul\":3447:3564   */\n      pop\n        /* \"#utility.yul\":3603:3605   */\n      0x20\n        /* \"#utility.yul\":3629:3682   */\n      tag_372\n        /* \"#utility.yul\":3674:3681   */\n      dup8\n        /* \"#utility.yul\":3665:3671   */\n      dup3\n        /* \"#utility.yul\":3654:3663   */\n      dup9\n        /* \"#utility.yul\":3650:3672   */\n      add\n        /* \"#utility.yul\":3629:3682   */\n      tag_330\n      jump\t// in\n    tag_372:\n        /* \"#utility.yul\":3619:3682   */\n      swap4\n      pop\n        /* \"#utility.yul\":3574:3692   */\n      pop\n        /* \"#utility.yul\":3731:3733   */\n      0x40\n        /* \"#utility.yul\":3757:3810   */\n      tag_373\n        /* \"#utility.yul\":3802:3809   */\n      dup8\n        /* \"#utility.yul\":3793:3799   */\n      dup3\n        /* \"#utility.yul\":3782:3791   */\n      dup9\n        /* \"#utility.yul\":3778:3800   */\n      add\n        /* \"#utility.yul\":3757:3810   */\n      tag_353\n      jump\t// in\n    tag_373:\n        /* \"#utility.yul\":3747:3810   */\n      swap3\n      pop\n        /* \"#utility.yul\":3702:3820   */\n      pop\n        /* \"#utility.yul\":3887:3889   */\n      0x60\n        /* \"#utility.yul\":3876:3885   */\n      dup6\n        /* \"#utility.yul\":3872:3890   */\n      add\n        /* \"#utility.yul\":3859:3891   */\n      calldataload\n        /* \"#utility.yul\":3918:3936   */\n      0xffffffffffffffff\n        /* \"#utility.yul\":3910:3916   */\n      dup2\n        /* \"#utility.yul\":3907:3937   */\n      gt\n        /* \"#utility.yul\":3904:3906   */\n      iszero\n      tag_374\n      jumpi\n        /* \"#utility.yul\":3950:3951   */\n      0x00\n        /* \"#utility.yul\":3947:3948   */\n      dup1\n        /* \"#utility.yul\":3940:3952   */\n      revert\n        /* \"#utility.yul\":3904:3906   */\n    tag_374:\n        /* \"#utility.yul\":3978:4040   */\n      tag_375\n        /* \"#utility.yul\":4032:4039   */\n      dup8\n        /* \"#utility.yul\":4023:4029   */\n      dup3\n        /* \"#utility.yul\":4012:4021   */\n      dup9\n        /* \"#utility.yul\":4008:4030   */\n      add\n        /* \"#utility.yul\":3978:4040   */\n      tag_345\n      jump\t// in\n    tag_375:\n        /* \"#utility.yul\":3968:4040   */\n      swap2\n      pop\n        /* \"#utility.yul\":3830:4050   */\n      pop\n        /* \"#utility.yul\":3374:4057   */\n      swap3\n      swap6\n      swap2\n      swap5\n      pop\n      swap3\n      pop\n      jump\t// out\n        /* \"#utility.yul\":4063:4464   */\n    tag_77:\n        /* \"#utility.yul\":4128:4134   */\n      0x00\n        /* \"#utility.yul\":4136:4142   */\n      dup1\n        /* \"#utility.yul\":4185:4187   */\n      0x40\n        /* \"#utility.yul\":4173:4182   */\n      dup4\n        /* \"#utility.yul\":4164:4171   */\n      dup6\n        /* \"#utility.yul\":4160:4183   */\n      sub\n        /* \"#utility.yul\":4156:4188   */\n      slt\n        /* \"#utility.yul\":4153:4155   */\n      iszero\n      tag_377\n      jumpi\n        /* \"#utility.yul\":4201:4202   */\n      0x00\n        /* \"#utility.yul\":4198:4199   */\n      dup1\n        /* \"#utility.yul\":4191:4203   */\n      revert\n        /* \"#utility.yul\":4153:4155   */\n    tag_377:\n        /* \"#utility.yul\":4244:4245   */\n      0x00\n        /* \"#utility.yul\":4269:4322   */\n      tag_378\n        /* \"#utility.yul\":4314:4321   */\n      dup6\n        /* \"#utility.yul\":4305:4311   */\n      dup3\n        /* \"#utility.yul\":4294:4303   */\n      dup7\n        /* \"#utility.yul\":4290:4312   */\n      add\n        /* \"#utility.yul\":4269:4322   */\n      tag_330\n      jump\t// in\n    tag_378:\n        /* \"#utility.yul\":4259:4322   */\n      swap3\n      pop\n        /* \"#utility.yul\":4215:4332   */\n      pop\n        /* \"#utility.yul\":4371:4373   */\n      0x20\n        /* \"#utility.yul\":4397:4447   */\n      tag_379\n        /* \"#utility.yul\":4439:4446   */\n      dup6\n        /* \"#utility.yul\":4430:4436   */\n      dup3\n        /* \"#utility.yul\":4419:4428   */\n      dup7\n        /* \"#utility.yul\":4415:4437   */\n      add\n        /* \"#utility.yul\":4397:4447   */\n      tag_334\n      jump\t// in\n    tag_379:\n        /* \"#utility.yul\":4387:4447   */\n      swap2\n      pop\n        /* \"#utility.yul\":4342:4457   */\n      pop\n        /* \"#utility.yul\":4143:4464   */\n      swap3\n      pop\n      swap3\n      swap1\n      pop\n      jump\t// out\n        /* \"#utility.yul\":4470:4877   */\n    tag_41:\n        /* \"#utility.yul\":4538:4544   */\n      0x00\n        /* \"#utility.yul\":4546:4552   */\n      dup1\n        /* \"#utility.yul\":4595:4597   */\n      0x40\n        /* \"#utility.yul\":4583:4592   */\n      dup4\n        /* \"#utility.yul\":4574:4581   */\n      dup6\n        /* \"#utility.yul\":4570:4593   */\n      sub\n        /* \"#utility.yul\":4566:4598   */\n      slt\n        /* \"#utility.yul\":4563:4565   */\n      iszero\n      tag_381\n      jumpi\n        /* \"#utility.yul\":4611:4612   */\n      0x00\n        /* \"#utility.yul\":4608:4609   */\n      dup1\n        /* \"#utility.yul\":4601:4613   */\n      revert\n        /* \"#utility.yul\":4563:4565   */\n    tag_381:\n        /* \"#utility.yul\":4654:4655   */\n      0x00\n        /* \"#utility.yul\":4679:4732   */\n      tag_382\n        /* \"#utility.yul\":4724:4731   */\n      dup6\n        /* \"#utility.yul\":4715:4721   */\n      dup3\n        /* \"#utility.yul\":4704:4713   */\n      dup7\n        /* \"#utility.yul\":4700:4722   */\n      add\n        /* \"#utility.yul\":4679:4732   */\n      tag_330\n      jump\t// in\n    tag_382:\n        /* \"#utility.yul\":4669:4732   */\n      swap3\n      pop\n        /* \"#utility.yul\":4625:4742   */\n      pop\n        /* \"#utility.yul\":4781:4783   */\n      0x20\n        /* \"#utility.yul\":4807:4860   */\n      tag_383\n        /* \"#utility.yul\":4852:4859   */\n      dup6\n        /* \"#utility.yul\":4843:4849   */\n      dup3\n        /* \"#utility.yul\":4832:4841   */\n      dup7\n        /* \"#utility.yul\":4828:4850   */\n      add\n        /* \"#utility.yul\":4807:4860   */\n      tag_353\n      jump\t// in\n    tag_383:\n        /* \"#utility.yul\":4797:4860   */\n      swap2\n      pop\n        /* \"#utility.yul\":4752:4870   */\n      pop\n        /* \"#utility.yul\":4553:4877   */\n      swap3\n      pop\n      swap3\n      swap1\n      pop\n      jump\t// out\n        /* \"#utility.yul\":4883:5986   */\n    tag_73:\n        /* \"#utility.yul\":4997:5003   */\n      0x00\n        /* \"#utility.yul\":5005:5011   */\n      dup1\n        /* \"#utility.yul\":5013:5019   */\n      0x00\n        /* \"#utility.yul\":5021:5027   */\n      dup1\n        /* \"#utility.yul\":5029:5035   */\n      0x00\n        /* \"#utility.yul\":5037:5043   */\n      dup1\n        /* \"#utility.yul\":5086:5089   */\n      0xc0\n        /* \"#utility.yul\":5074:5083   */\n      dup8\n        /* \"#utility.yul\":5065:5072   */\n      dup10\n        /* \"#utility.yul\":5061:5084   */\n      sub\n        /* \"#utility.yul\":5057:5090   */\n      slt\n        /* \"#utility.yul\":5054:5056   */\n      iszero\n      tag_385\n      jumpi\n        /* \"#utility.yul\":5103:5104   */\n      0x00\n        /* \"#utility.yul\":5100:5101   */\n      dup1\n        /* \"#utility.yul\":5093:5105   */\n      revert\n        /* \"#utility.yul\":5054:5056   */\n    tag_385:\n        /* \"#utility.yul\":5146:5147   */\n      0x00\n        /* \"#utility.yul\":5171:5224   */\n      tag_386\n        /* \"#utility.yul\":5216:5223   */\n      dup10\n        /* \"#utility.yul\":5207:5213   */\n      dup3\n        /* \"#utility.yul\":5196:5205   */\n      dup11\n        /* \"#utility.yul\":5192:5214   */\n      add\n        /* \"#utility.yul\":5171:5224   */\n      tag_330\n      jump\t// in\n    tag_386:\n        /* \"#utility.yul\":5161:5224   */\n      swap7\n      pop\n        /* \"#utility.yul\":5117:5234   */\n      pop\n        /* \"#utility.yul\":5273:5275   */\n      0x20\n        /* \"#utility.yul\":5299:5352   */\n      tag_387\n        /* \"#utility.yul\":5344:5351   */\n      dup10\n        /* \"#utility.yul\":5335:5341   */\n      dup3\n        /* \"#utility.yul\":5324:5333   */\n      dup11\n        /* \"#utility.yul\":5320:5342   */\n      add\n        /* \"#utility.yul\":5299:5352   */\n      tag_353\n      jump\t// in\n    tag_387:\n        /* \"#utility.yul\":5289:5352   */\n      swap6\n      pop\n        /* \"#utility.yul\":5244:5362   */\n      pop\n        /* \"#utility.yul\":5401:5403   */\n      0x40\n        /* \"#utility.yul\":5427:5480   */\n      tag_388\n        /* \"#utility.yul\":5472:5479   */\n      dup10\n        /* \"#utility.yul\":5463:5469   */\n      dup3\n        /* \"#utility.yul\":5452:5461   */\n      dup11\n        /* \"#utility.yul\":5448:5470   */\n      add\n        /* \"#utility.yul\":5427:5480   */\n      tag_330\n      jump\t// in\n    tag_388:\n        /* \"#utility.yul\":5417:5480   */\n      swap5\n      pop\n        /* \"#utility.yul\":5372:5490   */\n      pop\n        /* \"#utility.yul\":5529:5531   */\n      0x60\n        /* \"#utility.yul\":5555:5608   */\n      tag_389\n        /* \"#utility.yul\":5600:5607   */\n      dup10\n        /* \"#utility.yul\":5591:5597   */\n      dup3\n        /* \"#utility.yul\":5580:5589   */\n      dup11\n        /* \"#utility.yul\":5576:5598   */\n      add\n        /* \"#utility.yul\":5555:5608   */\n      tag_353\n      jump\t// in\n    tag_389:\n        /* \"#utility.yul\":5545:5608   */\n      swap4\n      pop\n        /* \"#utility.yul\":5500:5618   */\n      pop\n        /* \"#utility.yul\":5657:5660   */\n      0x80\n        /* \"#utility.yul\":5684:5737   */\n      tag_390\n        /* \"#utility.yul\":5729:5736   */\n      dup10\n        /* \"#utility.yul\":5720:5726   */\n      dup3\n        /* \"#utility.yul\":5709:5718   */\n      dup11\n        /* \"#utility.yul\":5705:5727   */\n      add\n        /* \"#utility.yul\":5684:5737   */\n      tag_353\n      jump\t// in\n    tag_390:\n        /* \"#utility.yul\":5674:5737   */\n      swap3\n      pop\n        /* \"#utility.yul\":5628:5747   */\n      pop\n        /* \"#utility.yul\":5814:5817   */\n      0xa0\n        /* \"#utility.yul\":5803:5812   */\n      dup8\n        /* \"#utility.yul\":5799:5818   */\n      add\n        /* \"#utility.yul\":5786:5819   */\n      calldataload\n        /* \"#utility.yul\":5846:5864   */\n      0xffffffffffffffff\n        /* \"#utility.yul\":5838:5844   */\n      dup2\n        /* \"#utility.yul\":5835:5865   */\n      gt\n        /* \"#utility.yul\":5832:5834   */\n      iszero\n      tag_391\n      jumpi\n        /* \"#utility.yul\":5878:5879   */\n      0x00\n        /* \"#utility.yul\":5875:5876   */\n      dup1\n        /* \"#utility.yul\":5868:5880   */\n      revert\n        /* \"#utility.yul\":5832:5834   */\n    tag_391:\n        /* \"#utility.yul\":5906:5969   */\n      tag_392\n        /* \"#utility.yul\":5961:5968   */\n      dup10\n        /* \"#utility.yul\":5952:5958   */\n      dup3\n        /* \"#utility.yul\":5941:5950   */\n      dup11\n        /* \"#utility.yul\":5937:5959   */\n      add\n        /* \"#utility.yul\":5906:5969   */\n      tag_349\n      jump\t// in\n    tag_392:\n        /* \"#utility.yul\":5896:5969   */\n      swap2\n      pop\n        /* \"#utility.yul\":5757:5979   */\n      pop\n        /* \"#utility.yul\":5044:5986   */\n      swap3\n      swap6\n      pop\n      swap3\n      swap6\n      pop\n      swap3\n      swap6\n      jump\t// out\n        /* \"#utility.yul\":5992:6252   */\n    tag_25:\n        /* \"#utility.yul\":6050:6056   */\n      0x00\n        /* \"#utility.yul\":6099:6101   */\n      0x20\n        /* \"#utility.yul\":6087:6096   */\n      dup3\n        /* \"#utility.yul\":6078:6085   */\n      dup5\n        /* \"#utility.yul\":6074:6097   */\n      sub\n        /* \"#utility.yul\":6070:6102   */\n      slt\n        /* \"#utility.yul\":6067:6069   */\n      iszero\n      tag_394\n      jumpi\n        /* \"#utility.yul\":6115:6116   */\n      0x00\n        /* \"#utility.yul\":6112:6113   */\n      dup1\n        /* \"#utility.yul\":6105:6117   */\n      revert\n        /* \"#utility.yul\":6067:6069   */\n    tag_394:\n        /* \"#utility.yul\":6158:6159   */\n      0x00\n        /* \"#utility.yul\":6183:6235   */\n      tag_395\n        /* \"#utility.yul\":6227:6234   */\n      dup5\n        /* \"#utility.yul\":6218:6224   */\n      dup3\n        /* \"#utility.yul\":6207:6216   */\n      dup6\n        /* \"#utility.yul\":6203:6225   */\n      add\n        /* \"#utility.yul\":6183:6235   */\n      tag_338\n      jump\t// in\n    tag_395:\n        /* \"#utility.yul\":6173:6235   */\n      swap2\n      pop\n        /* \"#utility.yul\":6129:6245   */\n      pop\n        /* \"#utility.yul\":6057:6252   */\n      swap3\n      swap2\n      pop\n      pop\n      jump\t// out\n        /* \"#utility.yul\":6258:6540   */\n    tag_275:\n        /* \"#utility.yul\":6327:6333   */\n      0x00\n        /* \"#utility.yul\":6376:6378   */\n      0x20\n        /* \"#utility.yul\":6364:6373   */\n      dup3\n        /* \"#utility.yul\":6355:6362   */\n      dup5\n        /* \"#utility.yul\":6351:6374   */\n      sub\n        /* \"#utility.yul\":6347:6379   */\n      slt\n        /* \"#utility.yul\":6344:6346   */\n      iszero\n      tag_397\n      jumpi\n        /* \"#utility.yul\":6392:6393   */\n      0x00\n        /* \"#utility.yul\":6389:6390   */\n      dup1\n        /* \"#utility.yul\":6382:6394   */\n      revert\n        /* \"#utility.yul\":6344:6346   */\n    tag_397:\n        /* \"#utility.yul\":6435:6436   */\n      0x00\n        /* \"#utility.yul\":6460:6523   */\n      tag_398\n        /* \"#utility.yul\":6515:6522   */\n      dup5\n        /* \"#utility.yul\":6506:6512   */\n      dup3\n        /* \"#utility.yul\":6495:6504   */\n      dup6\n        /* \"#utility.yul\":6491:6513   */\n      add\n        /* \"#utility.yul\":6460:6523   */\n      tag_342\n      jump\t// in\n    tag_398:\n        /* \"#utility.yul\":6450:6523   */\n      swap2\n      pop\n        /* \"#utility.yul\":6406:6533   */\n      pop\n        /* \"#utility.yul\":6334:6540   */\n      swap3\n      swap2\n      pop\n      pop\n      jump\t// out\n        /* \"#utility.yul\":6546:6808   */\n    tag_35:\n        /* \"#utility.yul\":6605:6611   */\n      0x00\n        /* \"#utility.yul\":6654:6656   */\n      0x20\n        /* \"#utility.yul\":6642:6651   */\n      dup3\n        /* \"#utility.yul\":6633:6640   */\n      dup5\n        /* \"#utility.yul\":6629:6652   */\n      sub\n        /* \"#utility.yul\":6625:6657   */\n      slt\n        /* \"#utility.yul\":6622:6624   */\n      iszero\n      tag_400\n      jumpi\n        /* \"#utility.yul\":6670:6671   */\n      0x00\n        /* \"#utility.yul\":6667:6668   */\n      dup1\n        /* \"#utility.yul\":6660:6672   */\n      revert\n        /* \"#utility.yul\":6622:6624   */\n    tag_400:\n        /* \"#utility.yul\":6713:6714   */\n      0x00\n        /* \"#utility.yul\":6738:6791   */\n      tag_401\n        /* \"#utility.yul\":6783:6790   */\n      dup5\n        /* \"#utility.yul\":6774:6780   */\n      dup3\n        /* \"#utility.yul\":6763:6772   */\n      dup6\n        /* \"#utility.yul\":6759:6781   */\n      add\n        /* \"#utility.yul\":6738:6791   */\n      tag_353\n      jump\t// in\n    tag_401:\n        /* \"#utility.yul\":6728:6791   */\n      swap2\n      pop\n        /* \"#utility.yul\":6684:6801   */\n      pop\n        /* \"#utility.yul\":6612:6808   */\n      swap3\n      swap2\n      pop\n      pop\n      jump\t// out\n        /* \"#utility.yul\":6814:6932   */\n    tag_402:\n        /* \"#utility.yul\":6901:6925   */\n      tag_404\n        /* \"#utility.yul\":6919:6924   */\n      dup2\n        /* \"#utility.yul\":6901:6925   */\n      tag_405\n      jump\t// in\n    tag_404:\n        /* \"#utility.yul\":6896:6899   */\n      dup3\n        /* \"#utility.yul\":6889:6926   */\n      mstore\n        /* \"#utility.yul\":6879:6932   */\n      pop\n      pop\n      jump\t// out\n        /* \"#utility.yul\":6938:7047   */\n    tag_406:\n        /* \"#utility.yul\":7019:7040   */\n      tag_408\n        /* \"#utility.yul\":7034:7039   */\n      dup2\n        /* \"#utility.yul\":7019:7040   */\n      tag_409\n      jump\t// in\n    tag_408:\n        /* \"#utility.yul\":7014:7017   */\n      dup3\n        /* \"#utility.yul\":7007:7041   */\n      mstore\n        /* \"#utility.yul\":6997:7047   */\n      pop\n      pop\n      jump\t// out\n        /* \"#utility.yul\":7053:7413   */\n    tag_410:\n        /* \"#utility.yul\":7139:7142   */\n      0x00\n        /* \"#utility.yul\":7167:7205   */\n      tag_412\n        /* \"#utility.yul\":7199:7204   */\n      dup3\n        /* \"#utility.yul\":7167:7205   */\n      tag_413\n      jump\t// in\n    tag_412:\n        /* \"#utility.yul\":7221:7291   */\n      tag_414\n        /* \"#utility.yul\":7284:7290   */\n      dup2\n        /* \"#utility.yul\":7279:7282   */\n      dup6\n        /* \"#utility.yul\":7221:7291   */\n      tag_415\n      jump\t// in\n    tag_414:\n        /* \"#utility.yul\":7214:7291   */\n      swap4\n      pop\n        /* \"#utility.yul\":7300:7352   */\n      tag_416\n        /* \"#utility.yul\":7345:7351   */\n      dup2\n        /* \"#utility.yul\":7340:7343   */\n      dup6\n        /* \"#utility.yul\":7333:7337   */\n      0x20\n        /* \"#utility.yul\":7326:7331   */\n      dup7\n        /* \"#utility.yul\":7322:7338   */\n      add\n        /* \"#utility.yul\":7300:7352   */\n      tag_417\n      jump\t// in\n    tag_416:\n        /* \"#utility.yul\":7377:7406   */\n      tag_418\n        /* \"#utility.yul\":7399:7405   */\n      dup2\n        /* \"#utility.yul\":7377:7406   */\n      tag_419\n      jump\t// in\n    tag_418:\n        /* \"#utility.yul\":7372:7375   */\n      dup5\n        /* \"#utility.yul\":7368:7407   */\n      add\n        /* \"#utility.yul\":7361:7407   */\n      swap2\n      pop\n        /* \"#utility.yul\":7143:7413   */\n      pop\n      swap3\n      swap2\n      pop\n      pop\n      jump\t// out\n        /* \"#utility.yul\":7419:7783   */\n    tag_420:\n        /* \"#utility.yul\":7507:7510   */\n      0x00\n        /* \"#utility.yul\":7535:7574   */\n      tag_422\n        /* \"#utility.yul\":7568:7573   */\n      dup3\n        /* \"#utility.yul\":7535:7574   */\n      tag_423\n      jump\t// in\n    tag_422:\n        /* \"#utility.yul\":7590:7661   */\n      tag_424\n        /* \"#utility.yul\":7654:7660   */\n      dup2\n        /* \"#utility.yul\":7649:7652   */\n      dup6\n        /* \"#utility.yul\":7590:7661   */\n      tag_425\n      jump\t// in\n    tag_424:\n        /* \"#utility.yul\":7583:7661   */\n      swap4\n      pop\n        /* \"#utility.yul\":7670:7722   */\n      tag_426\n        /* \"#utility.yul\":7715:7721   */\n      dup2\n        /* \"#utility.yul\":7710:7713   */\n      dup6\n        /* \"#utility.yul\":7703:7707   */\n      0x20\n        /* \"#utility.yul\":7696:7701   */\n      dup7\n        /* \"#utility.yul\":7692:7708   */\n      add\n        /* \"#utility.yul\":7670:7722   */\n      tag_417\n      jump\t// in\n    tag_426:\n        /* \"#utility.yul\":7747:7776   */\n      tag_427\n        /* \"#utility.yul\":7769:7775   */\n      dup2\n        /* \"#utility.yul\":7747:7776   */\n      tag_419\n      jump\t// in\n    tag_427:\n        /* \"#utility.yul\":7742:7745   */\n      dup5\n        /* \"#utility.yul\":7738:7777   */\n      add\n        /* \"#utility.yul\":7731:7777   */\n      swap2\n      pop\n        /* \"#utility.yul\":7511:7783   */\n      pop\n      swap3\n      swap2\n      pop\n      pop\n      jump\t// out\n        /* \"#utility.yul\":7789:8166   */\n    tag_428:\n        /* \"#utility.yul\":7895:7898   */\n      0x00\n        /* \"#utility.yul\":7923:7962   */\n      tag_430\n        /* \"#utility.yul\":7956:7961   */\n      dup3\n        /* \"#utility.yul\":7923:7962   */\n      tag_423\n      jump\t// in\n    tag_430:\n        /* \"#utility.yul\":7978:8067   */\n      tag_431\n        /* \"#utility.yul\":8060:8066   */\n      dup2\n        /* \"#utility.yul\":8055:8058   */\n      dup6\n        /* \"#utility.yul\":7978:8067   */\n      tag_432\n      jump\t// in\n    tag_431:\n        /* \"#utility.yul\":7971:8067   */\n      swap4\n      pop\n        /* \"#utility.yul\":8076:8128   */\n      tag_433\n        /* \"#utility.yul\":8121:8127   */\n      dup2\n        /* \"#utility.yul\":8116:8119   */\n      dup6\n        /* \"#utility.yul\":8109:8113   */\n      0x20\n        /* \"#utility.yul\":8102:8107   */\n      dup7\n        /* \"#utility.yul\":8098:8114   */\n      add\n        /* \"#utility.yul\":8076:8128   */\n      tag_417\n      jump\t// in\n    tag_433:\n        /* \"#utility.yul\":8153:8159   */\n      dup1\n        /* \"#utility.yul\":8148:8151   */\n      dup5\n        /* \"#utility.yul\":8144:8160   */\n      add\n        /* \"#utility.yul\":8137:8160   */\n      swap2\n      pop\n        /* \"#utility.yul\":7899:8166   */\n      pop\n      swap3\n      swap2\n      pop\n      pop\n      jump\t// out\n        /* \"#utility.yul\":8172:8538   */\n    tag_434:\n        /* \"#utility.yul\":8314:8317   */\n      0x00\n        /* \"#utility.yul\":8335:8402   */\n      tag_436\n        /* \"#utility.yul\":8399:8401   */\n      0x2d\n        /* \"#utility.yul\":8394:8397   */\n      dup4\n        /* \"#utility.yul\":8335:8402   */\n      tag_425\n      jump\t// in\n    tag_436:\n        /* \"#utility.yul\":8328:8402   */\n      swap2\n      pop\n        /* \"#utility.yul\":8411:8504   */\n      tag_437\n        /* \"#utility.yul\":8500:8503   */\n      dup3\n        /* \"#utility.yul\":8411:8504   */\n      tag_438\n      jump\t// in\n    tag_437:\n        /* \"#utility.yul\":8529:8531   */\n      0x40\n        /* \"#utility.yul\":8524:8527   */\n      dup3\n        /* \"#utility.yul\":8520:8532   */\n      add\n        /* \"#utility.yul\":8513:8532   */\n      swap1\n      pop\n        /* \"#utility.yul\":8318:8538   */\n      swap2\n      swap1\n      pop\n      jump\t// out\n        /* \"#utility.yul\":8544:8910   */\n    tag_439:\n        /* \"#utility.yul\":8686:8689   */\n      0x00\n        /* \"#utility.yul\":8707:8774   */\n      tag_441\n        /* \"#utility.yul\":8771:8773   */\n      0x32\n        /* \"#utility.yul\":8766:8769   */\n      dup4\n        /* \"#utility.yul\":8707:8774   */\n      tag_425\n      jump\t// in\n    tag_441:\n        /* \"#utility.yul\":8700:8774   */\n      swap2\n      pop\n        /* \"#utility.yul\":8783:8876   */\n      tag_442\n        /* \"#utility.yul\":8872:8875   */\n      dup3\n        /* \"#utility.yul\":8783:8876   */\n      tag_443\n      jump\t// in\n    tag_442:\n        /* \"#utility.yul\":8901:8903   */\n      0x40\n        /* \"#utility.yul\":8896:8899   */\n      dup3\n        /* \"#utility.yul\":8892:8904   */\n      add\n        /* \"#utility.yul\":8885:8904   */\n      swap1\n      pop\n        /* \"#utility.yul\":8690:8910   */\n      swap2\n      swap1\n      pop\n      jump\t// out\n        /* \"#utility.yul\":8916:9282   */\n    tag_444:\n        /* \"#utility.yul\":9058:9061   */\n      0x00\n        /* \"#utility.yul\":9079:9146   */\n      tag_446\n        /* \"#utility.yul\":9143:9145   */\n      0x25\n        /* \"#utility.yul\":9138:9141   */\n      dup4\n        /* \"#utility.yul\":9079:9146   */\n      tag_425\n      jump\t// in\n    tag_446:\n        /* \"#utility.yul\":9072:9146   */\n      swap2\n      pop\n        /* \"#utility.yul\":9155:9248   */\n      tag_447\n        /* \"#utility.yul\":9244:9247   */\n      dup3\n        /* \"#utility.yul\":9155:9248   */\n      tag_448\n      jump\t// in\n    tag_447:\n        /* \"#utility.yul\":9273:9275   */\n      0x40\n        /* \"#utility.yul\":9268:9271   */\n      dup3\n        /* \"#utility.yul\":9264:9276   */\n      add\n        /* \"#utility.yul\":9257:9276   */\n      swap1\n      pop\n        /* \"#utility.yul\":9062:9282   */\n      swap2\n      swap1\n      pop\n      jump\t// out\n        /* \"#utility.yul\":9288:9654   */\n    tag_449:\n        /* \"#utility.yul\":9430:9433   */\n      0x00\n        /* \"#utility.yul\":9451:9518   */\n      tag_451\n        /* \"#utility.yul\":9515:9517   */\n      0x1c\n        /* \"#utility.yul\":9510:9513   */\n      dup4\n        /* \"#utility.yul\":9451:9518   */\n      tag_425\n      jump\t// in\n    tag_451:\n        /* \"#utility.yul\":9444:9518   */\n      swap2\n      pop\n        /* \"#utility.yul\":9527:9620   */\n      tag_452\n        /* \"#utility.yul\":9616:9619   */\n      dup3\n        /* \"#utility.yul\":9527:9620   */\n      tag_453\n      jump\t// in\n    tag_452:\n        /* \"#utility.yul\":9645:9647   */\n      0x20\n        /* \"#utility.yul\":9640:9643   */\n      dup3\n        /* \"#utility.yul\":9636:9648   */\n      add\n        /* \"#utility.yul\":9629:9648   */\n      swap1\n      pop\n        /* \"#utility.yul\":9434:9654   */\n      swap2\n      swap1\n      pop\n      jump\t// out\n        /* \"#utility.yul\":9660:10026   */\n    tag_454:\n        /* \"#utility.yul\":9802:9805   */\n      0x00\n        /* \"#utility.yul\":9823:9890   */\n      tag_456\n        /* \"#utility.yul\":9887:9889   */\n      0x24\n        /* \"#utility.yul\":9882:9885   */\n      dup4\n        /* \"#utility.yul\":9823:9890   */\n      tag_425\n      jump\t// in\n    tag_456:\n        /* \"#utility.yul\":9816:9890   */\n      swap2\n      pop\n        /* \"#utility.yul\":9899:9992   */\n      tag_457\n        /* \"#utility.yul\":9988:9991   */\n      dup3\n        /* \"#utility.yul\":9899:9992   */\n      tag_458\n      jump\t// in\n    tag_457:\n        /* \"#utility.yul\":10017:10019   */\n      0x40\n        /* \"#utility.yul\":10012:10015   */\n      dup3\n        /* \"#utility.yul\":10008:10020   */\n      add\n        /* \"#utility.yul\":10001:10020   */\n      swap1\n      pop\n        /* \"#utility.yul\":9806:10026   */\n      swap2\n      swap1\n      pop\n      jump\t// out\n        /* \"#utility.yul\":10032:10398   */\n    tag_459:\n        /* \"#utility.yul\":10174:10177   */\n      0x00\n        /* \"#utility.yul\":10195:10262   */\n      tag_461\n        /* \"#utility.yul\":10259:10261   */\n      0x19\n        /* \"#utility.yul\":10254:10257   */\n      dup4\n        /* \"#utility.yul\":10195:10262   */\n      tag_425\n      jump\t// in\n    tag_461:\n        /* \"#utility.yul\":10188:10262   */\n      swap2\n      pop\n        /* \"#utility.yul\":10271:10364   */\n      tag_462\n        /* \"#utility.yul\":10360:10363   */\n      dup3\n        /* \"#utility.yul\":10271:10364   */\n      tag_463\n      jump\t// in\n    tag_462:\n        /* \"#utility.yul\":10389:10391   */\n      0x20\n        /* \"#utility.yul\":10384:10387   */\n      dup3\n        /* \"#utility.yul\":10380:10392   */\n      add\n        /* \"#utility.yul\":10373:10392   */\n      swap1\n      pop\n        /* \"#utility.yul\":10178:10398   */\n      swap2\n      swap1\n      pop\n      jump\t// out\n        /* \"#utility.yul\":10404:10770   */\n    tag_464:\n        /* \"#utility.yul\":10546:10549   */\n      0x00\n        /* \"#utility.yul\":10567:10634   */\n      tag_466\n        /* \"#utility.yul\":10631:10633   */\n      0x29\n        /* \"#utility.yul\":10626:10629   */\n      dup4\n        /* \"#utility.yul\":10567:10634   */\n      tag_425\n      jump\t// in\n    tag_466:\n        /* \"#utility.yul\":10560:10634   */\n      swap2\n      pop\n        /* \"#utility.yul\":10643:10736   */\n      tag_467\n        /* \"#utility.yul\":10732:10735   */\n      dup3\n        /* \"#utility.yul\":10643:10736   */\n      tag_468\n      jump\t// in\n    tag_467:\n        /* \"#utility.yul\":10761:10763   */\n      0x40\n        /* \"#utility.yul\":10756:10759   */\n      dup3\n        /* \"#utility.yul\":10752:10764   */\n      add\n        /* \"#utility.yul\":10745:10764   */\n      swap1\n      pop\n        /* \"#utility.yul\":10550:10770   */\n      swap2\n      swap1\n      pop\n      jump\t// out\n        /* \"#utility.yul\":10776:11142   */\n    tag_469:\n        /* \"#utility.yul\":10918:10921   */\n      0x00\n        /* \"#utility.yul\":10939:11006   */\n      tag_471\n        /* \"#utility.yul\":11003:11005   */\n      0x2e\n        /* \"#utility.yul\":10998:11001   */\n      dup4\n        /* \"#utility.yul\":10939:11006   */\n      tag_425\n      jump\t// in\n    tag_471:\n        /* \"#utility.yul\":10932:11006   */\n      swap2\n      pop\n        /* \"#utility.yul\":11015:11108   */\n      tag_472\n        /* \"#utility.yul\":11104:11107   */\n      dup3\n        /* \"#utility.yul\":11015:11108   */\n      tag_473\n      jump\t// in\n    tag_472:\n        /* \"#utility.yul\":11133:11135   */\n      0x40\n        /* \"#utility.yul\":11128:11131   */\n      dup3\n        /* \"#utility.yul\":11124:11136   */\n      add\n        /* \"#utility.yul\":11117:11136   */\n      swap1\n      pop\n        /* \"#utility.yul\":10922:11142   */\n      swap2\n      swap1\n      pop\n      jump\t// out\n        /* \"#utility.yul\":11148:11514   */\n    tag_474:\n        /* \"#utility.yul\":11290:11293   */\n      0x00\n        /* \"#utility.yul\":11311:11378   */\n      tag_476\n        /* \"#utility.yul\":11375:11377   */\n      0x20\n        /* \"#utility.yul\":11370:11373   */\n      dup4\n        /* \"#utility.yul\":11311:11378   */\n      tag_425\n      jump\t// in\n    tag_476:\n        /* \"#utility.yul\":11304:11378   */\n      swap2\n      pop\n        /* \"#utility.yul\":11387:11480   */\n      tag_477\n        /* \"#utility.yul\":11476:11479   */\n      dup3\n        /* \"#utility.yul\":11387:11480   */\n      tag_478\n      jump\t// in\n    tag_477:\n        /* \"#utility.yul\":11505:11507   */\n      0x20\n        /* \"#utility.yul\":11500:11503   */\n      dup3\n        /* \"#utility.yul\":11496:11508   */\n      add\n        /* \"#utility.yul\":11489:11508   */\n      swap1\n      pop\n        /* \"#utility.yul\":11294:11514   */\n      swap2\n      swap1\n      pop\n      jump\t// out\n        /* \"#utility.yul\":11520:11886   */\n    tag_479:\n        /* \"#utility.yul\":11662:11665   */\n      0x00\n        /* \"#utility.yul\":11683:11750   */\n      tag_481\n        /* \"#utility.yul\":11747:11749   */\n      0x18\n        /* \"#utility.yul\":11742:11745   */\n      dup4\n        /* \"#utility.yul\":11683:11750   */\n      tag_425\n      jump\t// in\n    tag_481:\n        /* \"#utility.yul\":11676:11750   */\n      swap2\n      pop\n        /* \"#utility.yul\":11759:11852   */\n      tag_482\n        /* \"#utility.yul\":11848:11851   */\n      dup3\n        /* \"#utility.yul\":11759:11852   */\n      tag_483\n      jump\t// in\n    tag_482:\n        /* \"#utility.yul\":11877:11879   */\n      0x20\n        /* \"#utility.yul\":11872:11875   */\n      dup3\n        /* \"#utility.yul\":11868:11880   */\n      add\n        /* \"#utility.yul\":11861:11880   */\n      swap1\n      pop\n        /* \"#utility.yul\":11666:11886   */\n      swap2\n      swap1\n      pop\n      jump\t// out\n        /* \"#utility.yul\":11892:12258   */\n    tag_484:\n        /* \"#utility.yul\":12034:12037   */\n      0x00\n        /* \"#utility.yul\":12055:12122   */\n      tag_486\n        /* \"#utility.yul\":12119:12121   */\n      0x21\n        /* \"#utility.yul\":12114:12117   */\n      dup4\n        /* \"#utility.yul\":12055:12122   */\n      tag_425\n      jump\t// in\n    tag_486:\n        /* \"#utility.yul\":12048:12122   */\n      swap2\n      pop\n        /* \"#utility.yul\":12131:12224   */\n      tag_487\n        /* \"#utility.yul\":12220:12223   */\n      dup3\n        /* \"#utility.yul\":12131:12224   */\n      tag_488\n      jump\t// in\n    tag_487:\n        /* \"#utility.yul\":12249:12251   */\n      0x40\n        /* \"#utility.yul\":12244:12247   */\n      dup3\n        /* \"#utility.yul\":12240:12252   */\n      add\n        /* \"#utility.yul\":12233:12252   */\n      swap1\n      pop\n        /* \"#utility.yul\":12038:12258   */\n      swap2\n      swap1\n      pop\n      jump\t// out\n        /* \"#utility.yul\":12264:12630   */\n    tag_489:\n        /* \"#utility.yul\":12406:12409   */\n      0x00\n        /* \"#utility.yul\":12427:12494   */\n      tag_491\n        /* \"#utility.yul\":12491:12493   */\n      0x3d\n        /* \"#utility.yul\":12486:12489   */\n      dup4\n        /* \"#utility.yul\":12427:12494   */\n      tag_425\n      jump\t// in\n    tag_491:\n        /* \"#utility.yul\":12420:12494   */\n      swap2\n      pop\n        /* \"#utility.yul\":12503:12596   */\n      tag_492\n        /* \"#utility.yul\":12592:12595   */\n      dup3\n        /* \"#utility.yul\":12503:12596   */\n      tag_493\n      jump\t// in\n    tag_492:\n        /* \"#utility.yul\":12621:12623   */\n      0x40\n        /* \"#utility.yul\":12616:12619   */\n      dup3\n        /* \"#utility.yul\":12612:12624   */\n      add\n        /* \"#utility.yul\":12605:12624   */\n      swap1\n      pop\n        /* \"#utility.yul\":12410:12630   */\n      swap2\n      swap1\n      pop\n      jump\t// out\n        /* \"#utility.yul\":12636:12754   */\n    tag_494:\n        /* \"#utility.yul\":12723:12747   */\n      tag_496\n        /* \"#utility.yul\":12741:12746   */\n      dup2\n        /* \"#utility.yul\":12723:12747   */\n      tag_497\n      jump\t// in\n    tag_496:\n        /* \"#utility.yul\":12718:12721   */\n      dup3\n        /* \"#utility.yul\":12711:12748   */\n      mstore\n        /* \"#utility.yul\":12701:12754   */\n      pop\n      pop\n      jump\t// out\n        /* \"#utility.yul\":12760:13195   */\n    tag_180:\n        /* \"#utility.yul\":12940:12943   */\n      0x00\n        /* \"#utility.yul\":12962:13057   */\n      tag_499\n        /* \"#utility.yul\":13053:13056   */\n      dup3\n        /* \"#utility.yul\":13044:13050   */\n      dup6\n        /* \"#utility.yul\":12962:13057   */\n      tag_428\n      jump\t// in\n    tag_499:\n        /* \"#utility.yul\":12955:13057   */\n      swap2\n      pop\n        /* \"#utility.yul\":13074:13169   */\n      tag_500\n        /* \"#utility.yul\":13165:13168   */\n      dup3\n        /* \"#utility.yul\":13156:13162   */\n      dup5\n        /* \"#utility.yul\":13074:13169   */\n      tag_428\n      jump\t// in\n    tag_500:\n        /* \"#utility.yul\":13067:13169   */\n      swap2\n      pop\n        /* \"#utility.yul\":13186:13189   */\n      dup2\n        /* \"#utility.yul\":13179:13189   */\n      swap1\n      pop\n        /* \"#utility.yul\":12944:13195   */\n      swap4\n      swap3\n      pop\n      pop\n      pop\n      jump\t// out\n        /* \"#utility.yul\":13201:13423   */\n    tag_38:\n        /* \"#utility.yul\":13294:13298   */\n      0x00\n        /* \"#utility.yul\":13332:13334   */\n      0x20\n        /* \"#utility.yul\":13321:13330   */\n      dup3\n        /* \"#utility.yul\":13317:13335   */\n      add\n        /* \"#utility.yul\":13309:13335   */\n      swap1\n      pop\n        /* \"#utility.yul\":13345:13416   */\n      tag_502\n        /* \"#utility.yul\":13413:13414   */\n      0x00\n        /* \"#utility.yul\":13402:13411   */\n      dup4\n        /* \"#utility.yul\":13398:13415   */\n      add\n        /* \"#utility.yul\":13389:13395   */\n      dup5\n        /* \"#utility.yul\":13345:13416   */\n      tag_402\n      jump\t// in\n    tag_502:\n        /* \"#utility.yul\":13299:13423   */\n      swap3\n      swap2\n      pop\n      pop\n      jump\t// out\n        /* \"#utility.yul\":13429:14069   */\n    tag_271:\n        /* \"#utility.yul\":13624:13628   */\n      0x00\n        /* \"#utility.yul\":13662:13665   */\n      0x80\n        /* \"#utility.yul\":13651:13660   */\n      dup3\n        /* \"#utility.yul\":13647:13666   */\n      add\n        /* \"#utility.yul\":13639:13666   */\n      swap1\n      pop\n        /* \"#utility.yul\":13676:13747   */\n      tag_504\n        /* \"#utility.yul\":13744:13745   */\n      0x00\n        /* \"#utility.yul\":13733:13742   */\n      dup4\n        /* \"#utility.yul\":13729:13746   */\n      add\n        /* \"#utility.yul\":13720:13726   */\n      dup8\n        /* \"#utility.yul\":13676:13747   */\n      tag_402\n      jump\t// in\n    tag_504:\n        /* \"#utility.yul\":13757:13829   */\n      tag_505\n        /* \"#utility.yul\":13825:13827   */\n      0x20\n        /* \"#utility.yul\":13814:13823   */\n      dup4\n        /* \"#utility.yul\":13810:13828   */\n      add\n        /* \"#utility.yul\":13801:13807   */\n      dup7\n        /* \"#utility.yul\":13757:13829   */\n      tag_402\n      jump\t// in\n    tag_505:\n        /* \"#utility.yul\":13839:13911   */\n      tag_506\n        /* \"#utility.yul\":13907:13909   */\n      0x40\n        /* \"#utility.yul\":13896:13905   */\n      dup4\n        /* \"#utility.yul\":13892:13910   */\n      add\n        /* \"#utility.yul\":13883:13889   */\n      dup6\n        /* \"#utility.yul\":13839:13911   */\n      tag_494\n      jump\t// in\n    tag_506:\n        /* \"#utility.yul\":13958:13967   */\n      dup2\n        /* \"#utility.yul\":13952:13956   */\n      dup2\n        /* \"#utility.yul\":13948:13968   */\n      sub\n        /* \"#utility.yul\":13943:13945   */\n      0x60\n        /* \"#utility.yul\":13932:13941   */\n      dup4\n        /* \"#utility.yul\":13928:13946   */\n      add\n        /* \"#utility.yul\":13921:13969   */\n      mstore\n        /* \"#utility.yul\":13986:14062   */\n      tag_507\n        /* \"#utility.yul\":14057:14061   */\n      dup2\n        /* \"#utility.yul\":14048:14054   */\n      dup5\n        /* \"#utility.yul\":13986:14062   */\n      tag_410\n      jump\t// in\n    tag_507:\n        /* \"#utility.yul\":13978:14062   */\n      swap1\n      pop\n        /* \"#utility.yul\":13629:14069   */\n      swap6\n      swap5\n      pop\n      pop\n      pop\n      pop\n      pop\n      jump\t// out\n        /* \"#utility.yul\":14075:14285   */\n    tag_28:\n        /* \"#utility.yul\":14162:14166   */\n      0x00\n        /* \"#utility.yul\":14200:14202   */\n      0x20\n        /* \"#utility.yul\":14189:14198   */\n      dup3\n        /* \"#utility.yul\":14185:14203   */\n      add\n        /* \"#utility.yul\":14177:14203   */\n      swap1\n      pop\n        /* \"#utility.yul\":14213:14278   */\n      tag_509\n        /* \"#utility.yul\":14275:14276   */\n      0x00\n        /* \"#utility.yul\":14264:14273   */\n      dup4\n        /* \"#utility.yul\":14260:14277   */\n      add\n        /* \"#utility.yul\":14251:14257   */\n      dup5\n        /* \"#utility.yul\":14213:14278   */\n      tag_406\n      jump\t// in\n    tag_509:\n        /* \"#utility.yul\":14167:14285   */\n      swap3\n      swap2\n      pop\n      pop\n      jump\t// out\n        /* \"#utility.yul\":14291:14604   */\n    tag_32:\n        /* \"#utility.yul\":14404:14408   */\n      0x00\n        /* \"#utility.yul\":14442:14444   */\n      0x20\n        /* \"#utility.yul\":14431:14440   */\n      dup3\n        /* \"#utility.yul\":14427:14445   */\n      add\n        /* \"#utility.yul\":14419:14445   */\n      swap1\n      pop\n        /* \"#utility.yul\":14491:14500   */\n      dup2\n        /* \"#utility.yul\":14485:14489   */\n      dup2\n        /* \"#utility.yul\":14481:14501   */\n      sub\n        /* \"#utility.yul\":14477:14478   */\n      0x00\n        /* \"#utility.yul\":14466:14475   */\n      dup4\n        /* \"#utility.yul\":14462:14479   */\n      add\n        /* \"#utility.yul\":14455:14502   */\n      mstore\n        /* \"#utility.yul\":14519:14597   */\n      tag_511\n        /* \"#utility.yul\":14592:14596   */\n      dup2\n        /* \"#utility.yul\":14583:14589   */\n      dup5\n        /* \"#utility.yul\":14519:14597   */\n      tag_420\n      jump\t// in\n    tag_511:\n        /* \"#utility.yul\":14511:14597   */\n      swap1\n      pop\n        /* \"#utility.yul\":14409:14604   */\n      swap3\n      swap2\n      pop\n      pop\n      jump\t// out\n        /* \"#utility.yul\":14610:15029   */\n    tag_132:\n        /* \"#utility.yul\":14776:14780   */\n      0x00\n        /* \"#utility.yul\":14814:14816   */\n      0x20\n        /* \"#utility.yul\":14803:14812   */\n      dup3\n        /* \"#utility.yul\":14799:14817   */\n      add\n        /* \"#utility.yul\":14791:14817   */\n      swap1\n      pop\n        /* \"#utility.yul\":14863:14872   */\n      dup2\n        /* \"#utility.yul\":14857:14861   */\n      dup2\n        /* \"#utility.yul\":14853:14873   */\n      sub\n        /* \"#utility.yul\":14849:14850   */\n      0x00\n        /* \"#utility.yul\":14838:14847   */\n      dup4\n        /* \"#utility.yul\":14834:14851   */\n      add\n        /* \"#utility.yul\":14827:14874   */\n      mstore\n        /* \"#utility.yul\":14891:15022   */\n      tag_513\n        /* \"#utility.yul\":15017:15021   */\n      dup2\n        /* \"#utility.yul\":14891:15022   */\n      tag_434\n      jump\t// in\n    tag_513:\n        /* \"#utility.yul\":14883:15022   */\n      swap1\n      pop\n        /* \"#utility.yul\":14781:15029   */\n      swap2\n      swap1\n      pop\n      jump\t// out\n        /* \"#utility.yul\":15035:15454   */\n    tag_234:\n        /* \"#utility.yul\":15201:15205   */\n      0x00\n        /* \"#utility.yul\":15239:15241   */\n      0x20\n        /* \"#utility.yul\":15228:15237   */\n      dup3\n        /* \"#utility.yul\":15224:15242   */\n      add\n        /* \"#utility.yul\":15216:15242   */\n      swap1\n      pop\n        /* \"#utility.yul\":15288:15297   */\n      dup2\n        /* \"#utility.yul\":15282:15286   */\n      dup2\n        /* \"#utility.yul\":15278:15298   */\n      sub\n        /* \"#utility.yul\":15274:15275   */\n      0x00\n        /* \"#utility.yul\":15263:15272   */\n      dup4\n        /* \"#utility.yul\":15259:15276   */\n      add\n        /* \"#utility.yul\":15252:15299   */\n      mstore\n        /* \"#utility.yul\":15316:15447   */\n      tag_515\n        /* \"#utility.yul\":15442:15446   */\n      dup2\n        /* \"#utility.yul\":15316:15447   */\n      tag_439\n      jump\t// in\n    tag_515:\n        /* \"#utility.yul\":15308:15447   */\n      swap1\n      pop\n        /* \"#utility.yul\":15206:15454   */\n      swap2\n      swap1\n      pop\n      jump\t// out\n        /* \"#utility.yul\":15460:15879   */\n    tag_202:\n        /* \"#utility.yul\":15626:15630   */\n      0x00\n        /* \"#utility.yul\":15664:15666   */\n      0x20\n        /* \"#utility.yul\":15653:15662   */\n      dup3\n        /* \"#utility.yul\":15649:15667   */\n      add\n        /* \"#utility.yul\":15641:15667   */\n      swap1\n      pop\n        /* \"#utility.yul\":15713:15722   */\n      dup2\n        /* \"#utility.yul\":15707:15711   */\n      dup2\n        /* \"#utility.yul\":15703:15723   */\n      sub\n        /* \"#utility.yul\":15699:15700   */\n      0x00\n        /* \"#utility.yul\":15688:15697   */\n      dup4\n        /* \"#utility.yul\":15684:15701   */\n      add\n        /* \"#utility.yul\":15677:15724   */\n      mstore\n        /* \"#utility.yul\":15741:15872   */\n      tag_517\n        /* \"#utility.yul\":15867:15871   */\n      dup2\n        /* \"#utility.yul\":15741:15872   */\n      tag_444\n      jump\t// in\n    tag_517:\n        /* \"#utility.yul\":15733:15872   */\n      swap1\n      pop\n        /* \"#utility.yul\":15631:15879   */\n      swap2\n      swap1\n      pop\n      jump\t// out\n        /* \"#utility.yul\":15885:16304   */\n    tag_296:\n        /* \"#utility.yul\":16051:16055   */\n      0x00\n        /* \"#utility.yul\":16089:16091   */\n      0x20\n        /* \"#utility.yul\":16078:16087   */\n      dup3\n        /* \"#utility.yul\":16074:16092   */\n      add\n        /* \"#utility.yul\":16066:16092   */\n      swap1\n      pop\n        /* \"#utility.yul\":16138:16147   */\n      dup2\n        /* \"#utility.yul\":16132:16136   */\n      dup2\n        /* \"#utility.yul\":16128:16148   */\n      sub\n        /* \"#utility.yul\":16124:16125   */\n      0x00\n        /* \"#utility.yul\":16113:16122   */\n      dup4\n        /* \"#utility.yul\":16109:16126   */\n      add\n        /* \"#utility.yul\":16102:16149   */\n      mstore\n        /* \"#utility.yul\":16166:16297   */\n      tag_519\n        /* \"#utility.yul\":16292:16296   */\n      dup2\n        /* \"#utility.yul\":16166:16297   */\n      tag_449\n      jump\t// in\n    tag_519:\n        /* \"#utility.yul\":16158:16297   */\n      swap1\n      pop\n        /* \"#utility.yul\":16056:16304   */\n      swap2\n      swap1\n      pop\n      jump\t// out\n        /* \"#utility.yul\":16310:16729   */\n    tag_205:\n        /* \"#utility.yul\":16476:16480   */\n      0x00\n        /* \"#utility.yul\":16514:16516   */\n      0x20\n        /* \"#utility.yul\":16503:16512   */\n      dup3\n        /* \"#utility.yul\":16499:16517   */\n      add\n        /* \"#utility.yul\":16491:16517   */\n      swap1\n      pop\n        /* \"#utility.yul\":16563:16572   */\n      dup2\n        /* \"#utility.yul\":16557:16561   */\n      dup2\n        /* \"#utility.yul\":16553:16573   */\n      sub\n        /* \"#utility.yul\":16549:16550   */\n      0x00\n        /* \"#utility.yul\":16538:16547   */\n      dup4\n        /* \"#utility.yul\":16534:16551   */\n      add\n        /* \"#utility.yul\":16527:16574   */\n      mstore\n        /* \"#utility.yul\":16591:16722   */\n      tag_521\n        /* \"#utility.yul\":16717:16721   */\n      dup2\n        /* \"#utility.yul\":16591:16722   */\n      tag_454\n      jump\t// in\n    tag_521:\n        /* \"#utility.yul\":16583:16722   */\n      swap1\n      pop\n        /* \"#utility.yul\":16481:16729   */\n      swap2\n      swap1\n      pop\n      jump\t// out\n        /* \"#utility.yul\":16735:17154   */\n    tag_226:\n        /* \"#utility.yul\":16901:16905   */\n      0x00\n        /* \"#utility.yul\":16939:16941   */\n      0x20\n        /* \"#utility.yul\":16928:16937   */\n      dup3\n        /* \"#utility.yul\":16924:16942   */\n      add\n        /* \"#utility.yul\":16916:16942   */\n      swap1\n      pop\n        /* \"#utility.yul\":16988:16997   */\n      dup2\n        /* \"#utility.yul\":16982:16986   */\n      dup2\n        /* \"#utility.yul\":16978:16998   */\n      sub\n        /* \"#utility.yul\":16974:16975   */\n      0x00\n        /* \"#utility.yul\":16963:16972   */\n      dup4\n        /* \"#utility.yul\":16959:16976   */\n      add\n        /* \"#utility.yul\":16952:16999   */\n      mstore\n        /* \"#utility.yul\":17016:17147   */\n      tag_523\n        /* \"#utility.yul\":17142:17146   */\n      dup2\n        /* \"#utility.yul\":17016:17147   */\n      tag_459\n      jump\t// in\n    tag_523:\n        /* \"#utility.yul\":17008:17147   */\n      swap1\n      pop\n        /* \"#utility.yul\":16906:17154   */\n      swap2\n      swap1\n      pop\n      jump\t// out\n        /* \"#utility.yul\":17160:17579   */\n    tag_148:\n        /* \"#utility.yul\":17326:17330   */\n      0x00\n        /* \"#utility.yul\":17364:17366   */\n      0x20\n        /* \"#utility.yul\":17353:17362   */\n      dup3\n        /* \"#utility.yul\":17349:17367   */\n      add\n        /* \"#utility.yul\":17341:17367   */\n      swap1\n      pop\n        /* \"#utility.yul\":17413:17422   */\n      dup2\n        /* \"#utility.yul\":17407:17411   */\n      dup2\n        /* \"#utility.yul\":17403:17423   */\n      sub\n        /* \"#utility.yul\":17399:17400   */\n      0x00\n        /* \"#utility.yul\":17388:17397   */\n      dup4\n        /* \"#utility.yul\":17384:17401   */\n      add\n        /* \"#utility.yul\":17377:17424   */\n      mstore\n        /* \"#utility.yul\":17441:17572   */\n      tag_525\n        /* \"#utility.yul\":17567:17571   */\n      dup2\n        /* \"#utility.yul\":17441:17572   */\n      tag_464\n      jump\t// in\n    tag_525:\n        /* \"#utility.yul\":17433:17572   */\n      swap1\n      pop\n        /* \"#utility.yul\":17331:17579   */\n      swap2\n      swap1\n      pop\n      jump\t// out\n        /* \"#utility.yul\":17585:18004   */\n    tag_220:\n        /* \"#utility.yul\":17751:17755   */\n      0x00\n        /* \"#utility.yul\":17789:17791   */\n      0x20\n        /* \"#utility.yul\":17778:17787   */\n      dup3\n        /* \"#utility.yul\":17774:17792   */\n      add\n        /* \"#utility.yul\":17766:17792   */\n      swap1\n      pop\n        /* \"#utility.yul\":17838:17847   */\n      dup2\n        /* \"#utility.yul\":17832:17836   */\n      dup2\n        /* \"#utility.yul\":17828:17848   */\n      sub\n        /* \"#utility.yul\":17824:17825   */\n      0x00\n        /* \"#utility.yul\":17813:17822   */\n      dup4\n        /* \"#utility.yul\":17809:17826   */\n      add\n        /* \"#utility.yul\":17802:17849   */\n      mstore\n        /* \"#utility.yul\":17866:17997   */\n      tag_527\n        /* \"#utility.yul\":17992:17996   */\n      dup2\n        /* \"#utility.yul\":17866:17997   */\n      tag_469\n      jump\t// in\n    tag_527:\n        /* \"#utility.yul\":17858:17997   */\n      swap1\n      pop\n        /* \"#utility.yul\":17756:18004   */\n      swap2\n      swap1\n      pop\n      jump\t// out\n        /* \"#utility.yul\":18010:18429   */\n    tag_290:\n        /* \"#utility.yul\":18176:18180   */\n      0x00\n        /* \"#utility.yul\":18214:18216   */\n      0x20\n        /* \"#utility.yul\":18203:18212   */\n      dup3\n        /* \"#utility.yul\":18199:18217   */\n      add\n        /* \"#utility.yul\":18191:18217   */\n      swap1\n      pop\n        /* \"#utility.yul\":18263:18272   */\n      dup2\n        /* \"#utility.yul\":18257:18261   */\n      dup2\n        /* \"#utility.yul\":18253:18273   */\n      sub\n        /* \"#utility.yul\":18249:18250   */\n      0x00\n        /* \"#utility.yul\":18238:18247   */\n      dup4\n        /* \"#utility.yul\":18234:18251   */\n      add\n        /* \"#utility.yul\":18227:18274   */\n      mstore\n        /* \"#utility.yul\":18291:18422   */\n      tag_529\n        /* \"#utility.yul\":18417:18421   */\n      dup2\n        /* \"#utility.yul\":18291:18422   */\n      tag_474\n      jump\t// in\n    tag_529:\n        /* \"#utility.yul\":18283:18422   */\n      swap1\n      pop\n        /* \"#utility.yul\":18181:18429   */\n      swap2\n      swap1\n      pop\n      jump\t// out\n        /* \"#utility.yul\":18435:18854   */\n    tag_140:\n        /* \"#utility.yul\":18601:18605   */\n      0x00\n        /* \"#utility.yul\":18639:18641   */\n      0x20\n        /* \"#utility.yul\":18628:18637   */\n      dup3\n        /* \"#utility.yul\":18624:18642   */\n      add\n        /* \"#utility.yul\":18616:18642   */\n      swap1\n      pop\n        /* \"#utility.yul\":18688:18697   */\n      dup2\n        /* \"#utility.yul\":18682:18686   */\n      dup2\n        /* \"#utility.yul\":18678:18698   */\n      sub\n        /* \"#utility.yul\":18674:18675   */\n      0x00\n        /* \"#utility.yul\":18663:18672   */\n      dup4\n        /* \"#utility.yul\":18659:18676   */\n      add\n        /* \"#utility.yul\":18652:18699   */\n      mstore\n        /* \"#utility.yul\":18716:18847   */\n      tag_531\n        /* \"#utility.yul\":18842:18846   */\n      dup2\n        /* \"#utility.yul\":18716:18847   */\n      tag_479\n      jump\t// in\n    tag_531:\n        /* \"#utility.yul\":18708:18847   */\n      swap1\n      pop\n        /* \"#utility.yul\":18606:18854   */\n      swap2\n      swap1\n      pop\n      jump\t// out\n        /* \"#utility.yul\":18860:19279   */\n    tag_115:\n        /* \"#utility.yul\":19026:19030   */\n      0x00\n        /* \"#utility.yul\":19064:19066   */\n      0x20\n        /* \"#utility.yul\":19053:19062   */\n      dup3\n        /* \"#utility.yul\":19049:19067   */\n      add\n        /* \"#utility.yul\":19041:19067   */\n      swap1\n      pop\n        /* \"#utility.yul\":19113:19122   */\n      dup2\n        /* \"#utility.yul\":19107:19111   */\n      dup2\n        /* \"#utility.yul\":19103:19123   */\n      sub\n        /* \"#utility.yul\":19099:19100   */\n      0x00\n        /* \"#utility.yul\":19088:19097   */\n      dup4\n        /* \"#utility.yul\":19084:19101   */\n      add\n        /* \"#utility.yul\":19077:19124   */\n      mstore\n        /* \"#utility.yul\":19141:19272   */\n      tag_533\n        /* \"#utility.yul\":19267:19271   */\n      dup2\n        /* \"#utility.yul\":19141:19272   */\n      tag_484\n      jump\t// in\n    tag_533:\n        /* \"#utility.yul\":19133:19272   */\n      swap1\n      pop\n        /* \"#utility.yul\":19031:19279   */\n      swap2\n      swap1\n      pop\n      jump\t// out\n        /* \"#utility.yul\":19285:19704   */\n    tag_123:\n        /* \"#utility.yul\":19451:19455   */\n      0x00\n        /* \"#utility.yul\":19489:19491   */\n      0x20\n        /* \"#utility.yul\":19478:19487   */\n      dup3\n        /* \"#utility.yul\":19474:19492   */\n      add\n        /* \"#utility.yul\":19466:19492   */\n      swap1\n      pop\n        /* \"#utility.yul\":19538:19547   */\n      dup2\n        /* \"#utility.yul\":19532:19536   */\n      dup2\n        /* \"#utility.yul\":19528:19548   */\n      sub\n        /* \"#utility.yul\":19524:19525   */\n      0x00\n        /* \"#utility.yul\":19513:19522   */\n      dup4\n        /* \"#utility.yul\":19509:19526   */\n      add\n        /* \"#utility.yul\":19502:19549   */\n      mstore\n        /* \"#utility.yul\":19566:19697   */\n      tag_535\n        /* \"#utility.yul\":19692:19696   */\n      dup2\n        /* \"#utility.yul\":19566:19697   */\n      tag_489\n      jump\t// in\n    tag_535:\n        /* \"#utility.yul\":19558:19697   */\n      swap1\n      pop\n        /* \"#utility.yul\":19456:19704   */\n      swap2\n      swap1\n      pop\n      jump\t// out\n        /* \"#utility.yul\":19710:19932   */\n    tag_62:\n        /* \"#utility.yul\":19803:19807   */\n      0x00\n        /* \"#utility.yul\":19841:19843   */\n      0x20\n        /* \"#utility.yul\":19830:19839   */\n      dup3\n        /* \"#utility.yul\":19826:19844   */\n      add\n        /* \"#utility.yul\":19818:19844   */\n      swap1\n      pop\n        /* \"#utility.yul\":19854:19925   */\n      tag_537\n        /* \"#utility.yul\":19922:19923   */\n      0x00\n        /* \"#utility.yul\":19911:19920   */\n      dup4\n        /* \"#utility.yul\":19907:19924   */\n      add\n        /* \"#utility.yul\":19898:19904   */\n      dup5\n        /* \"#utility.yul\":19854:19925   */\n      tag_494\n      jump\t// in\n    tag_537:\n        /* \"#utility.yul\":19808:19932   */\n      swap3\n      swap2\n      pop\n      pop\n      jump\t// out\n        /* \"#utility.yul\":19938:20067   */\n    tag_319:\n        /* \"#utility.yul\":19972:19978   */\n      0x00\n        /* \"#utility.yul\":19999:20019   */\n      tag_539\n      tag_540\n      jump\t// in\n    tag_539:\n        /* \"#utility.yul\":19989:20019   */\n      swap1\n      pop\n        /* \"#utility.yul\":20028:20061   */\n      tag_541\n        /* \"#utility.yul\":20056:20060   */\n      dup3\n        /* \"#utility.yul\":20048:20054   */\n      dup3\n        /* \"#utility.yul\":20028:20061   */\n      tag_542\n      jump\t// in\n    tag_541:\n        /* \"#utility.yul\":19979:20067   */\n      swap2\n      swap1\n      pop\n      jump\t// out\n        /* \"#utility.yul\":20073:20148   */\n    tag_540:\n        /* \"#utility.yul\":20106:20112   */\n      0x00\n        /* \"#utility.yul\":20139:20141   */\n      0x40\n        /* \"#utility.yul\":20133:20142   */\n      mload\n        /* \"#utility.yul\":20123:20142   */\n      swap1\n      pop\n        /* \"#utility.yul\":20113:20148   */\n      swap1\n      jump\t// out\n        /* \"#utility.yul\":20154:20461   */\n    tag_318:\n        /* \"#utility.yul\":20215:20219   */\n      0x00\n        /* \"#utility.yul\":20305:20323   */\n      0xffffffffffffffff\n        /* \"#utility.yul\":20297:20303   */\n      dup3\n        /* \"#utility.yul\":20294:20324   */\n      gt\n        /* \"#utility.yul\":20291:20293   */\n      iszero\n      tag_545\n      jumpi\n        /* \"#utility.yul\":20327:20345   */\n      tag_546\n      tag_547\n      jump\t// in\n    tag_546:\n        /* \"#utility.yul\":20291:20293   */\n    tag_545:\n        /* \"#utility.yul\":20365:20394   */\n      tag_548\n        /* \"#utility.yul\":20387:20393   */\n      dup3\n        /* \"#utility.yul\":20365:20394   */\n      tag_419\n      jump\t// in\n    tag_548:\n        /* \"#utility.yul\":20357:20394   */\n      swap1\n      pop\n        /* \"#utility.yul\":20449:20453   */\n      0x20\n        /* \"#utility.yul\":20443:20447   */\n      dup2\n        /* \"#utility.yul\":20439:20454   */\n      add\n        /* \"#utility.yul\":20431:20454   */\n      swap1\n      pop\n        /* \"#utility.yul\":20220:20461   */\n      swap2\n      swap1\n      pop\n      jump\t// out\n        /* \"#utility.yul\":20467:20775   */\n    tag_327:\n        /* \"#utility.yul\":20529:20533   */\n      0x00\n        /* \"#utility.yul\":20619:20637   */\n      0xffffffffffffffff\n        /* \"#utility.yul\":20611:20617   */\n      dup3\n        /* \"#utility.yul\":20608:20638   */\n      gt\n        /* \"#utility.yul\":20605:20607   */\n      iszero\n      tag_550\n      jumpi\n        /* \"#utility.yul\":20641:20659   */\n      tag_551\n      tag_547\n      jump\t// in\n    tag_551:\n        /* \"#utility.yul\":20605:20607   */\n    tag_550:\n        /* \"#utility.yul\":20679:20708   */\n      tag_552\n        /* \"#utility.yul\":20701:20707   */\n      dup3\n        /* \"#utility.yul\":20679:20708   */\n      tag_419\n      jump\t// in\n    tag_552:\n        /* \"#utility.yul\":20671:20708   */\n      swap1\n      pop\n        /* \"#utility.yul\":20763:20767   */\n      0x20\n        /* \"#utility.yul\":20757:20761   */\n      dup2\n        /* \"#utility.yul\":20753:20768   */\n      add\n        /* \"#utility.yul\":20745:20768   */\n      swap1\n      pop\n        /* \"#utility.yul\":20534:20775   */\n      swap2\n      swap1\n      pop\n      jump\t// out\n        /* \"#utility.yul\":20781:20879   */\n    tag_413:\n        /* \"#utility.yul\":20832:20838   */\n      0x00\n        /* \"#utility.yul\":20866:20871   */\n      dup2\n        /* \"#utility.yul\":20860:20872   */\n      mload\n        /* \"#utility.yul\":20850:20872   */\n      swap1\n      pop\n        /* \"#utility.yul\":20839:20879   */\n      swap2\n      swap1\n      pop\n      jump\t// out\n        /* \"#utility.yul\":20885:20984   */\n    tag_423:\n        /* \"#utility.yul\":20937:20943   */\n      0x00\n        /* \"#utility.yul\":20971:20976   */\n      dup2\n        /* \"#utility.yul\":20965:20977   */\n      mload\n        /* \"#utility.yul\":20955:20977   */\n      swap1\n      pop\n        /* \"#utility.yul\":20944:20984   */\n      swap2\n      swap1\n      pop\n      jump\t// out\n        /* \"#utility.yul\":20990:21158   */\n    tag_415:\n        /* \"#utility.yul\":21073:21084   */\n      0x00\n        /* \"#utility.yul\":21107:21113   */\n      dup3\n        /* \"#utility.yul\":21102:21105   */\n      dup3\n        /* \"#utility.yul\":21095:21114   */\n      mstore\n        /* \"#utility.yul\":21147:21151   */\n      0x20\n        /* \"#utility.yul\":21142:21145   */\n      dup3\n        /* \"#utility.yul\":21138:21152   */\n      add\n        /* \"#utility.yul\":21123:21152   */\n      swap1\n      pop\n        /* \"#utility.yul\":21085:21158   */\n      swap3\n      swap2\n      pop\n      pop\n      jump\t// out\n        /* \"#utility.yul\":21164:21333   */\n    tag_425:\n        /* \"#utility.yul\":21248:21259   */\n      0x00\n        /* \"#utility.yul\":21282:21288   */\n      dup3\n        /* \"#utility.yul\":21277:21280   */\n      dup3\n        /* \"#utility.yul\":21270:21289   */\n      mstore\n        /* \"#utility.yul\":21322:21326   */\n      0x20\n        /* \"#utility.yul\":21317:21320   */\n      dup3\n        /* \"#utility.yul\":21313:21327   */\n      add\n        /* \"#utility.yul\":21298:21327   */\n      swap1\n      pop\n        /* \"#utility.yul\":21260:21333   */\n      swap3\n      swap2\n      pop\n      pop\n      jump\t// out\n        /* \"#utility.yul\":21339:21487   */\n    tag_432:\n        /* \"#utility.yul\":21441:21452   */\n      0x00\n        /* \"#utility.yul\":21478:21481   */\n      dup2\n        /* \"#utility.yul\":21463:21481   */\n      swap1\n      pop\n        /* \"#utility.yul\":21453:21487   */\n      swap3\n      swap2\n      pop\n      pop\n      jump\t// out\n        /* \"#utility.yul\":21493:21798   */\n    tag_253:\n        /* \"#utility.yul\":21533:21536   */\n      0x00\n        /* \"#utility.yul\":21552:21572   */\n      tag_559\n        /* \"#utility.yul\":21570:21571   */\n      dup3\n        /* \"#utility.yul\":21552:21572   */\n      tag_497\n      jump\t// in\n    tag_559:\n        /* \"#utility.yul\":21547:21572   */\n      swap2\n      pop\n        /* \"#utility.yul\":21586:21606   */\n      tag_560\n        /* \"#utility.yul\":21604:21605   */\n      dup4\n        /* \"#utility.yul\":21586:21606   */\n      tag_497\n      jump\t// in\n    tag_560:\n        /* \"#utility.yul\":21581:21606   */\n      swap3\n      pop\n        /* \"#utility.yul\":21740:21741   */\n      dup3\n        /* \"#utility.yul\":21672:21738   */\n      0xffffffffffffffffffffffffffffffffffffffffffffffffffffffffffffffff\n        /* \"#utility.yul\":21668:21742   */\n      sub\n        /* \"#utility.yul\":21665:21666   */\n      dup3\n        /* \"#utility.yul\":21662:21743   */\n      gt\n        /* \"#utility.yul\":21659:21661   */\n      iszero\n      tag_561\n      jumpi\n        /* \"#utility.yul\":21746:21764   */\n      tag_562\n      tag_563\n      jump\t// in\n    tag_562:\n        /* \"#utility.yul\":21659:21661   */\n    tag_561:\n        /* \"#utility.yul\":21790:21791   */\n      dup3\n        /* \"#utility.yul\":21787:21788   */\n      dup3\n        /* \"#utility.yul\":21783:21792   */\n      add\n        /* \"#utility.yul\":21776:21792   */\n      swap1\n      pop\n        /* \"#utility.yul\":21537:21798   */\n      swap3\n      swap2\n      pop\n      pop\n      jump\t// out\n        /* \"#utility.yul\":21804:21989   */\n    tag_243:\n        /* \"#utility.yul\":21844:21845   */\n      0x00\n        /* \"#utility.yul\":21861:21881   */\n      tag_565\n        /* \"#utility.yul\":21879:21880   */\n      dup3\n        /* \"#utility.yul\":21861:21881   */\n      tag_497\n      jump\t// in\n    tag_565:\n        /* \"#utility.yul\":21856:21881   */\n      swap2\n      pop\n        /* \"#utility.yul\":21895:21915   */\n      tag_566\n        /* \"#utility.yul\":21913:21914   */\n      dup4\n        /* \"#utility.yul\":21895:21915   */\n      tag_497\n      jump\t// in\n    tag_566:\n        /* \"#utility.yul\":21890:21915   */\n      swap3\n      pop\n        /* \"#utility.yul\":21934:21935   */\n      dup3\n        /* \"#utility.yul\":21924:21926   */\n      tag_567\n      jumpi\n        /* \"#utility.yul\":21939:21957   */\n      tag_568\n      tag_569\n      jump\t// in\n    tag_568:\n        /* \"#utility.yul\":21924:21926   */\n    tag_567:\n        /* \"#utility.yul\":21981:21982   */\n      dup3\n        /* \"#utility.yul\":21978:21979   */\n      dup3\n        /* \"#utility.yul\":21974:21983   */\n      div\n        /* \"#utility.yul\":21969:21983   */\n      swap1\n      pop\n        /* \"#utility.yul\":21846:21989   */\n      swap3\n      swap2\n      pop\n      pop\n      jump\t// out\n        /* \"#utility.yul\":21995:22186   */\n    tag_249:\n        /* \"#utility.yul\":22035:22039   */\n      0x00\n        /* \"#utility.yul\":22055:22075   */\n      tag_571\n        /* \"#utility.yul\":22073:22074   */\n      dup3\n        /* \"#utility.yul\":22055:22075   */\n      tag_497\n      jump\t// in\n    tag_571:\n        /* \"#utility.yul\":22050:22075   */\n      swap2\n      pop\n        /* \"#utility.yul\":22089:22109   */\n      tag_572\n        /* \"#utility.yul\":22107:22108   */\n      dup4\n        /* \"#utility.yul\":22089:22109   */\n      tag_497\n      jump\t// in\n    tag_572:\n        /* \"#utility.yul\":22084:22109   */\n      swap3\n      pop\n        /* \"#utility.yul\":22128:22129   */\n      dup3\n        /* \"#utility.yul\":22125:22126   */\n      dup3\n        /* \"#utility.yul\":22122:22130   */\n      lt\n        /* \"#utility.yul\":22119:22121   */\n      iszero\n      tag_573\n      jumpi\n        /* \"#utility.yul\":22133:22151   */\n      tag_574\n      tag_563\n      jump\t// in\n    tag_574:\n        /* \"#utility.yul\":22119:22121   */\n    tag_573:\n        /* \"#utility.yul\":22178:22179   */\n      dup3\n        /* \"#utility.yul\":22175:22176   */\n      dup3\n        /* \"#utility.yul\":22171:22180   */\n      sub\n        /* \"#utility.yul\":22163:22180   */\n      swap1\n      pop\n        /* \"#utility.yul\":22040:22186   */\n      swap3\n      swap2\n      pop\n      pop\n      jump\t// out\n        /* \"#utility.yul\":22192:22288   */\n    tag_405:\n        /* \"#utility.yul\":22229:22236   */\n      0x00\n        /* \"#utility.yul\":22258:22282   */\n      tag_576\n        /* \"#utility.yul\":22276:22281   */\n      dup3\n        /* \"#utility.yul\":22258:22282   */\n      tag_577\n      jump\t// in\n    tag_576:\n        /* \"#utility.yul\":22247:22282   */\n      swap1\n      pop\n        /* \"#utility.yul\":22237:22288   */\n      swap2\n      swap1\n      pop\n      jump\t// out\n        /* \"#utility.yul\":22294:22384   */\n    tag_409:\n        /* \"#utility.yul\":22328:22335   */\n      0x00\n        /* \"#utility.yul\":22371:22376   */\n      dup2\n        /* \"#utility.yul\":22364:22377   */\n      iszero\n        /* \"#utility.yul\":22357:22378   */\n      iszero\n        /* \"#utility.yul\":22346:22378   */\n      swap1\n      pop\n        /* \"#utility.yul\":22336:22384   */\n      swap2\n      swap1\n      pop\n      jump\t// out\n        /* \"#utility.yul\":22390:22539   */\n    tag_579:\n        /* \"#utility.yul\":22426:22433   */\n      0x00\n        /* \"#utility.yul\":22466:22532   */\n      0xffffffff00000000000000000000000000000000000000000000000000000000\n        /* \"#utility.yul\":22459:22464   */\n      dup3\n        /* \"#utility.yul\":22455:22533   */\n      and\n        /* \"#utility.yul\":22444:22533   */\n      swap1\n      pop\n        /* \"#utility.yul\":22434:22539   */\n      swap2\n      swap1\n      pop\n      jump\t// out\n        /* \"#utility.yul\":22545:22671   */\n    tag_577:\n        /* \"#utility.yul\":22582:22589   */\n      0x00\n        /* \"#utility.yul\":22622:22664   */\n      0xffffffffffffffffffffffffffffffffffffffff\n        /* \"#utility.yul\":22615:22620   */\n      dup3\n        /* \"#utility.yul\":22611:22665   */\n      and\n        /* \"#utility.yul\":22600:22665   */\n      swap1\n      pop\n        /* \"#utility.yul\":22590:22671   */\n      swap2\n      swap1\n      pop\n      jump\t// out\n        /* \"#utility.yul\":22677:22754   */\n    tag_497:\n        /* \"#utility.yul\":22714:22721   */\n      0x00\n        /* \"#utility.yul\":22743:22748   */\n      dup2\n        /* \"#utility.yul\":22732:22748   */\n      swap1\n      pop\n        /* \"#utility.yul\":22722:22754   */\n      swap2\n      swap1\n      pop\n      jump\t// out\n        /* \"#utility.yul\":22760:22914   */\n    tag_322:\n        /* \"#utility.yul\":22844:22850   */\n      dup3\n        /* \"#utility.yul\":22839:22842   */\n      dup2\n        /* \"#utility.yul\":22834:22837   */\n      dup4\n        /* \"#utility.yul\":22821:22851   */\n      calldatacopy\n        /* \"#utility.yul\":22906:22907   */\n      0x00\n        /* \"#utility.yul\":22897:22903   */\n      dup4\n        /* \"#utility.yul\":22892:22895   */\n      dup4\n        /* \"#utility.yul\":22888:22904   */\n      add\n        /* \"#utility.yul\":22881:22908   */\n      mstore\n        /* \"#utility.yul\":22811:22914   */\n      pop\n      pop\n      pop\n      jump\t// out\n        /* \"#utility.yul\":22920:23227   */\n    tag_417:\n        /* \"#utility.yul\":22988:22989   */\n      0x00\n        /* \"#utility.yul\":22998:23111   */\n    tag_585:\n        /* \"#utility.yul\":23012:23018   */\n      dup4\n        /* \"#utility.yul\":23009:23010   */\n      dup2\n        /* \"#utility.yul\":23006:23019   */\n      lt\n        /* \"#utility.yul\":22998:23111   */\n      iszero\n      tag_587\n      jumpi\n        /* \"#utility.yul\":23097:23098   */\n      dup1\n        /* \"#utility.yul\":23092:23095   */\n      dup3\n        /* \"#utility.yul\":23088:23099   */\n      add\n        /* \"#utility.yul\":23082:23100   */\n      mload\n        /* \"#utility.yul\":23078:23079   */\n      dup2\n        /* \"#utility.yul\":23073:23076   */\n      dup5\n        /* \"#utility.yul\":23069:23080   */\n      add\n        /* \"#utility.yul\":23062:23101   */\n      mstore\n        /* \"#utility.yul\":23034:23036   */\n      0x20\n        /* \"#utility.yul\":23031:23032   */\n      dup2\n        /* \"#utility.yul\":23027:23037   */\n      add\n        /* \"#utility.yul\":23022:23037   */\n      swap1\n      pop\n        /* \"#utility.yul\":22998:23111   */\n      jump(tag_585)\n    tag_587:\n        /* \"#utility.yul\":23129:23135   */\n      dup4\n        /* \"#utility.yul\":23126:23127   */\n      dup2\n        /* \"#utility.yul\":23123:23136   */\n      gt\n        /* \"#utility.yul\":23120:23122   */\n      iszero\n      tag_588\n      jumpi\n        /* \"#utility.yul\":23209:23210   */\n      0x00\n        /* \"#utility.yul\":23200:23206   */\n      dup5\n        /* \"#utility.yul\":23195:23198   */\n      dup5\n        /* \"#utility.yul\":23191:23207   */\n      add\n        /* \"#utility.yul\":23184:23211   */\n      mstore\n        /* \"#utility.yul\":23120:23122   */\n    tag_588:\n        /* \"#utility.yul\":22969:23227   */\n      pop\n      pop\n      pop\n      pop\n      jump\t// out\n        /* \"#utility.yul\":23233:23553   */\n    tag_103:\n        /* \"#utility.yul\":23277:23283   */\n      0x00\n        /* \"#utility.yul\":23314:23315   */\n      0x02\n        /* \"#utility.yul\":23308:23312   */\n      dup3\n        /* \"#utility.yul\":23304:23316   */\n      div\n        /* \"#utility.yul\":23294:23316   */\n      swap1\n      pop\n        /* \"#utility.yul\":23361:23362   */\n      0x01\n        /* \"#utility.yul\":23355:23359   */\n      dup3\n        /* \"#utility.yul\":23351:23363   */\n      and\n        /* \"#utility.yul\":23382:23400   */\n      dup1\n        /* \"#utility.yul\":23372:23374   */\n      tag_590\n      jumpi\n        /* \"#utility.yul\":23438:23442   */\n      0x7f\n        /* \"#utility.yul\":23430:23436   */\n      dup3\n        /* \"#utility.yul\":23426:23443   */\n      and\n        /* \"#utility.yul\":23416:23443   */\n      swap2\n      pop\n        /* \"#utility.yul\":23372:23374   */\n    tag_590:\n        /* \"#utility.yul\":23500:23502   */\n      0x20\n        /* \"#utility.yul\":23492:23498   */\n      dup3\n        /* \"#utility.yul\":23489:23503   */\n      lt\n        /* \"#utility.yul\":23469:23487   */\n      dup2\n        /* \"#utility.yul\":23466:23504   */\n      eq\n        /* \"#utility.yul\":23463:23465   */\n      iszero\n      tag_591\n      jumpi\n        /* \"#utility.yul\":23519:23537   */\n      tag_592\n      tag_593\n      jump\t// in\n    tag_592:\n        /* \"#utility.yul\":23463:23465   */\n    tag_591:\n        /* \"#utility.yul\":23284:23553   */\n      pop\n      swap2\n      swap1\n      pop\n      jump\t// out\n        /* \"#utility.yul\":23559:23840   */\n    tag_542:\n        /* \"#utility.yul\":23642:23669   */\n      tag_595\n        /* \"#utility.yul\":23664:23668   */\n      dup3\n        /* \"#utility.yul\":23642:23669   */\n      tag_419\n      jump\t// in\n    tag_595:\n        /* \"#utility.yul\":23634:23640   */\n      dup2\n        /* \"#utility.yul\":23630:23670   */\n      add\n        /* \"#utility.yul\":23772:23778   */\n      dup2\n        /* \"#utility.yul\":23760:23770   */\n      dup2\n        /* \"#utility.yul\":23757:23779   */\n      lt\n        /* \"#utility.yul\":23736:23754   */\n      0xffffffffffffffff\n        /* \"#utility.yul\":23724:23734   */\n      dup3\n        /* \"#utility.yul\":23721:23755   */\n      gt\n        /* \"#utility.yul\":23718:23780   */\n      or\n        /* \"#utility.yul\":23715:23717   */\n      iszero\n      tag_596\n      jumpi\n        /* \"#utility.yul\":23783:23801   */\n      tag_597\n      tag_547\n      jump\t// in\n    tag_597:\n        /* \"#utility.yul\":23715:23717   */\n    tag_596:\n        /* \"#utility.yul\":23823:23833   */\n      dup1\n        /* \"#utility.yul\":23819:23821   */\n      0x40\n        /* \"#utility.yul\":23812:23834   */\n      mstore\n        /* \"#utility.yul\":23602:23840   */\n      pop\n      pop\n      pop\n      jump\t// out\n        /* \"#utility.yul\":23846:24079   */\n    tag_241:\n        /* \"#utility.yul\":23885:23888   */\n      0x00\n        /* \"#utility.yul\":23908:23932   */\n      tag_599\n        /* \"#utility.yul\":23926:23931   */\n      dup3\n        /* \"#utility.yul\":23908:23932   */\n      tag_497\n      jump\t// in\n    tag_599:\n        /* \"#utility.yul\":23899:23932   */\n      swap2\n      pop\n        /* \"#utility.yul\":23954:24020   */\n      0xffffffffffffffffffffffffffffffffffffffffffffffffffffffffffffffff\n        /* \"#utility.yul\":23947:23952   */\n      dup3\n        /* \"#utility.yul\":23944:24021   */\n      eq\n        /* \"#utility.yul\":23941:23943   */\n      iszero\n      tag_600\n      jumpi\n        /* \"#utility.yul\":24024:24042   */\n      tag_601\n      tag_563\n      jump\t// in\n    tag_601:\n        /* \"#utility.yul\":23941:23943   */\n    tag_600:\n        /* \"#utility.yul\":24071:24072   */\n      0x01\n        /* \"#utility.yul\":24064:24069   */\n      dup3\n        /* \"#utility.yul\":24060:24073   */\n      add\n        /* \"#utility.yul\":24053:24073   */\n      swap1\n      pop\n        /* \"#utility.yul\":23889:24079   */\n      swap2\n      swap1\n      pop\n      jump\t// out\n        /* \"#utility.yul\":24085:24261   */\n    tag_251:\n        /* \"#utility.yul\":24117:24118   */\n      0x00\n        /* \"#utility.yul\":24134:24154   */\n      tag_603\n        /* \"#utility.yul\":24152:24153   */\n      dup3\n        /* \"#utility.yul\":24134:24154   */\n      tag_497\n      jump\t// in\n    tag_603:\n        /* \"#utility.yul\":24129:24154   */\n      swap2\n      pop\n        /* \"#utility.yul\":24168:24188   */\n      tag_604\n        /* \"#utility.yul\":24186:24187   */\n      dup4\n        /* \"#utility.yul\":24168:24188   */\n      tag_497\n      jump\t// in\n    tag_604:\n        /* \"#utility.yul\":24163:24188   */\n      swap3\n      pop\n        /* \"#utility.yul\":24207:24208   */\n      dup3\n        /* \"#utility.yul\":24197:24199   */\n      tag_605\n      jumpi\n        /* \"#utility.yul\":24212:24230   */\n      tag_606\n      tag_569\n      jump\t// in\n    tag_606:\n        /* \"#utility.yul\":24197:24199   */\n    tag_605:\n        /* \"#utility.yul\":24253:24254   */\n      dup3\n        /* \"#utility.yul\":24250:24251   */\n      dup3\n        /* \"#utility.yul\":24246:24255   */\n      mod\n        /* \"#utility.yul\":24241:24255   */\n      swap1\n      pop\n        /* \"#utility.yul\":24119:24261   */\n      swap3\n      swap2\n      pop\n      pop\n      jump\t// out\n        /* \"#utility.yul\":24267:24447   */\n    tag_563:\n        /* \"#utility.yul\":24315:24392   */\n      0x4e487b7100000000000000000000000000000000000000000000000000000000\n        /* \"#utility.yul\":24312:24313   */\n      0x00\n        /* \"#utility.yul\":24305:24393   */\n      mstore\n        /* \"#utility.yul\":24412:24416   */\n      0x11\n        /* \"#utility.yul\":24409:24410   */\n      0x04\n        /* \"#utility.yul\":24402:24417   */\n      mstore\n        /* \"#utility.yul\":24436:24440   */\n      0x24\n        /* \"#utility.yul\":24433:24434   */\n      0x00\n        /* \"#utility.yul\":24426:24441   */\n      revert\n        /* \"#utility.yul\":24453:24633   */\n    tag_569:\n        /* \"#utility.yul\":24501:24578   */\n      0x4e487b7100000000000000000000000000000000000000000000000000000000\n        /* \"#utility.yul\":24498:24499   */\n      0x00\n        /* \"#utility.yul\":24491:24579   */\n      mstore\n        /* \"#utility.yul\":24598:24602   */\n      0x12\n        /* \"#utility.yul\":24595:24596   */\n      0x04\n        /* \"#utility.yul\":24588:24603   */\n      mstore\n        /* \"#utility.yul\":24622:24626   */\n      0x24\n        /* \"#utility.yul\":24619:24620   */\n      0x00\n        /* \"#utility.yul\":24612:24627   */\n      revert\n        /* \"#utility.yul\":24639:24819   */\n    tag_593:\n        /* \"#utility.yul\":24687:24764   */\n      0x4e487b7100000000000000000000000000000000000000000000000000000000\n        /* \"#utility.yul\":24684:24685   */\n      0x00\n        /* \"#utility.yul\":24677:24765   */\n      mstore\n        /* \"#utility.yul\":24784:24788   */\n      0x22\n        /* \"#utility.yul\":24781:24782   */\n      0x04\n        /* \"#utility.yul\":24774:24789   */\n      mstore\n        /* \"#utility.yul\":24808:24812   */\n      0x24\n        /* \"#utility.yul\":24805:24806   */\n      0x00\n        /* \"#utility.yul\":24798:24813   */\n      revert\n        /* \"#utility.yul\":24825:25005   */\n    tag_547:\n        /* \"#utility.yul\":24873:24950   */\n      0x4e487b7100000000000000000000000000000000000000000000000000000000\n        /* \"#utility.yul\":24870:24871   */\n      0x00\n        /* \"#utility.yul\":24863:24951   */\n      mstore\n        /* \"#utility.yul\":24970:24974   */\n      0x41\n        /* \"#utility.yul\":24967:24968   */\n      0x04\n        /* \"#utility.yul\":24960:24975   */\n      mstore\n        /* \"#utility.yul\":24994:24998   */\n      0x24\n        /* \"#utility.yul\":24991:24992   */\n      0x00\n        /* \"#utility.yul\":24984:24999   */\n      revert\n        /* \"#utility.yul\":25011:25113   */\n    tag_419:\n        /* \"#utility.yul\":25052:25058   */\n      0x00\n        /* \"#utility.yul\":25103:25105   */\n      0x1f\n        /* \"#utility.yul\":25099:25106   */\n      not\n        /* \"#utility.yul\":25094:25096   */\n      0x1f\n        /* \"#utility.yul\":25087:25092   */\n      dup4\n        /* \"#utility.yul\":25083:25097   */\n      add\n        /* \"#utility.yul\":25079:25107   */\n      and\n        /* \"#utility.yul\":25069:25107   */\n      swap1\n      pop\n        /* \"#utility.yul\":25059:25113   */\n      swap2\n      swap1\n      pop\n      jump\t// out\n        /* \"#utility.yul\":25119:25351   */\n    tag_438:\n        /* \"#utility.yul\":25259:25293   */\n      0x4552433732313a2063616c6c6572206973206e6f7420746f6b656e206f776e65\n        /* \"#utility.yul\":25255:25256   */\n      0x00\n        /* \"#utility.yul\":25247:25253   */\n      dup3\n        /* \"#utility.yul\":25243:25257   */\n      add\n        /* \"#utility.yul\":25236:25294   */\n      mstore\n        /* \"#utility.yul\":25328:25343   */\n      0x72206f7220617070726f76656400000000000000000000000000000000000000\n        /* \"#utility.yul\":25323:25325   */\n      0x20\n        /* \"#utility.yul\":25315:25321   */\n      dup3\n        /* \"#utility.yul\":25311:25326   */\n      add\n        /* \"#utility.yul\":25304:25344   */\n      mstore\n        /* \"#utility.yul\":25225:25351   */\n      pop\n      jump\t// out\n        /* \"#utility.yul\":25357:25594   */\n    tag_443:\n        /* \"#utility.yul\":25497:25531   */\n      0x4552433732313a207472616e7366657220746f206e6f6e204552433732315265\n        /* \"#utility.yul\":25493:25494   */\n      0x00\n        /* \"#utility.yul\":25485:25491   */\n      dup3\n        /* \"#utility.yul\":25481:25495   */\n      add\n        /* \"#utility.yul\":25474:25532   */\n      mstore\n        /* \"#utility.yul\":25566:25586   */\n      0x63656976657220696d706c656d656e7465720000000000000000000000000000\n        /* \"#utility.yul\":25561:25563   */\n      0x20\n        /* \"#utility.yul\":25553:25559   */\n      dup3\n        /* \"#utility.yul\":25549:25564   */\n      add\n        /* \"#utility.yul\":25542:25587   */\n      mstore\n        /* \"#utility.yul\":25463:25594   */\n      pop\n      jump\t// out\n        /* \"#utility.yul\":25600:25824   */\n    tag_448:\n        /* \"#utility.yul\":25740:25774   */\n      0x4552433732313a207472616e736665722066726f6d20696e636f727265637420\n        /* \"#utility.yul\":25736:25737   */\n      0x00\n        /* \"#utility.yul\":25728:25734   */\n      dup3\n        /* \"#utility.yul\":25724:25738   */\n      add\n        /* \"#utility.yul\":25717:25775   */\n      mstore\n        /* \"#utility.yul\":25809:25816   */\n      0x6f776e6572000000000000000000000000000000000000000000000000000000\n        /* \"#utility.yul\":25804:25806   */\n      0x20\n        /* \"#utility.yul\":25796:25802   */\n      dup3\n        /* \"#utility.yul\":25792:25807   */\n      add\n        /* \"#utility.yul\":25785:25817   */\n      mstore\n        /* \"#utility.yul\":25706:25824   */\n      pop\n      jump\t// out\n        /* \"#utility.yul\":25830:26008   */\n    tag_453:\n        /* \"#utility.yul\":25970:26000   */\n      0x4552433732313a20746f6b656e20616c7265616479206d696e74656400000000\n        /* \"#utility.yul\":25966:25967   */\n      0x00\n        /* \"#utility.yul\":25958:25964   */\n      dup3\n        /* \"#utility.yul\":25954:25968   */\n      add\n        /* \"#utility.yul\":25947:26001   */\n      mstore\n        /* \"#utility.yul\":25936:26008   */\n      pop\n      jump\t// out\n        /* \"#utility.yul\":26014:26237   */\n    tag_458:\n        /* \"#utility.yul\":26154:26188   */\n      0x4552433732313a207472616e7366657220746f20746865207a65726f20616464\n        /* \"#utility.yul\":26150:26151   */\n      0x00\n        /* \"#utility.yul\":26142:26148   */\n      dup3\n        /* \"#utility.yul\":26138:26152   */\n      add\n        /* \"#utility.yul\":26131:26189   */\n      mstore\n        /* \"#utility.yul\":26223:26229   */\n      0x7265737300000000000000000000000000000000000000000000000000000000\n        /* \"#utility.yul\":26218:26220   */\n      0x20\n        /* \"#utility.yul\":26210:26216   */\n      dup3\n        /* \"#utility.yul\":26206:26221   */\n      add\n        /* \"#utility.yul\":26199:26230   */\n      mstore\n        /* \"#utility.yul\":26120:26237   */\n      pop\n      jump\t// out\n        /* \"#utility.yul\":26243:26418   */\n    tag_463:\n        /* \"#utility.yul\":26383:26410   */\n      0x4552433732313a20617070726f766520746f2063616c6c657200000000000000\n        /* \"#utility.yul\":26379:26380   */\n      0x00\n        /* \"#utility.yul\":26371:26377   */\n      dup3\n        /* \"#utility.yul\":26367:26381   */\n      add\n        /* \"#utility.yul\":26360:26411   */\n      mstore\n        /* \"#utility.yul\":26349:26418   */\n      pop\n      jump\t// out\n        /* \"#utility.yul\":26424:26652   */\n    tag_468:\n        /* \"#utility.yul\":26564:26598   */\n      0x4552433732313a2061646472657373207a65726f206973206e6f742061207661\n        /* \"#utility.yul\":26560:26561   */\n      0x00\n        /* \"#utility.yul\":26552:26558   */\n      dup3\n        /* \"#utility.yul\":26548:26562   */\n      add\n        /* \"#utility.yul\":26541:26599   */\n      mstore\n        /* \"#utility.yul\":26633:26644   */\n      0x6c6964206f776e65720000000000000000000000000000000000000000000000\n        /* \"#utility.yul\":26628:26630   */\n      0x20\n        /* \"#utility.yul\":26620:26626   */\n      dup3\n        /* \"#utility.yul\":26616:26631   */\n      add\n        /* \"#utility.yul\":26609:26645   */\n      mstore\n        /* \"#utility.yul\":26530:26652   */\n      pop\n      jump\t// out\n        /* \"#utility.yul\":26658:26891   */\n    tag_473:\n        /* \"#utility.yul\":26798:26832   */\n      0x45524337323155524953746f726167653a2055524920736574206f66206e6f6e\n        /* \"#utility.yul\":26794:26795   */\n      0x00\n        /* \"#utility.yul\":26786:26792   */\n      dup3\n        /* \"#utility.yul\":26782:26796   */\n      add\n        /* \"#utility.yul\":26775:26833   */\n      mstore\n        /* \"#utility.yul\":26867:26883   */\n      0x6578697374656e7420746f6b656e000000000000000000000000000000000000\n        /* \"#utility.yul\":26862:26864   */\n      0x20\n        /* \"#utility.yul\":26854:26860   */\n      dup3\n        /* \"#utility.yul\":26850:26865   */\n      add\n        /* \"#utility.yul\":26843:26884   */\n      mstore\n        /* \"#utility.yul\":26764:26891   */\n      pop\n      jump\t// out\n        /* \"#utility.yul\":26897:27079   */\n    tag_478:\n        /* \"#utility.yul\":27037:27071   */\n      0x4552433732313a206d696e7420746f20746865207a65726f2061646472657373\n        /* \"#utility.yul\":27033:27034   */\n      0x00\n        /* \"#utility.yul\":27025:27031   */\n      dup3\n        /* \"#utility.yul\":27021:27035   */\n      add\n        /* \"#utility.yul\":27014:27072   */\n      mstore\n        /* \"#utility.yul\":27003:27079   */\n      pop\n      jump\t// out\n        /* \"#utility.yul\":27085:27259   */\n    tag_483:\n        /* \"#utility.yul\":27225:27251   */\n      0x4552433732313a20696e76616c696420746f6b656e2049440000000000000000\n        /* \"#utility.yul\":27221:27222   */\n      0x00\n        /* \"#utility.yul\":27213:27219   */\n      dup3\n        /* \"#utility.yul\":27209:27223   */\n      add\n        /* \"#utility.yul\":27202:27252   */\n      mstore\n        /* \"#utility.yul\":27191:27259   */\n      pop\n      jump\t// out\n        /* \"#utility.yul\":27265:27485   */\n    tag_488:\n        /* \"#utility.yul\":27405:27439   */\n      0x4552433732313a20617070726f76616c20746f2063757272656e74206f776e65\n        /* \"#utility.yul\":27401:27402   */\n      0x00\n        /* \"#utility.yul\":27393:27399   */\n      dup3\n        /* \"#utility.yul\":27389:27403   */\n      add\n        /* \"#utility.yul\":27382:27440   */\n      mstore\n        /* \"#utility.yul\":27474:27477   */\n      0x7200000000000000000000000000000000000000000000000000000000000000\n        /* \"#utility.yul\":27469:27471   */\n      0x20\n        /* \"#utility.yul\":27461:27467   */\n      dup3\n        /* \"#utility.yul\":27457:27472   */\n      add\n        /* \"#utility.yul\":27450:27478   */\n      mstore\n        /* \"#utility.yul\":27371:27485   */\n      pop\n      jump\t// out\n        /* \"#utility.yul\":27491:27739   */\n    tag_493:\n        /* \"#utility.yul\":27631:27665   */\n      0x4552433732313a20617070726f76652063616c6c6572206973206e6f7420746f\n        /* \"#utility.yul\":27627:27628   */\n      0x00\n        /* \"#utility.yul\":27619:27625   */\n      dup3\n        /* \"#utility.yul\":27615:27629   */\n      add\n        /* \"#utility.yul\":27608:27666   */\n      mstore\n        /* \"#utility.yul\":27700:27731   */\n      0x6b656e206f776e6572206f7220617070726f76656420666f7220616c6c000000\n        /* \"#utility.yul\":27695:27697   */\n      0x20\n        /* \"#utility.yul\":27687:27693   */\n      dup3\n        /* \"#utility.yul\":27683:27698   */\n      add\n        /* \"#utility.yul\":27676:27732   */\n      mstore\n        /* \"#utility.yul\":27597:27739   */\n      pop\n      jump\t// out\n        /* \"#utility.yul\":27745:27867   */\n    tag_333:\n        /* \"#utility.yul\":27818:27842   */\n      tag_625\n        /* \"#utility.yul\":27836:27841   */\n      dup2\n        /* \"#utility.yul\":27818:27842   */\n      tag_405\n      jump\t// in\n    tag_625:\n        /* \"#utility.yul\":27811:27816   */\n      dup2\n        /* \"#utility.yul\":27808:27843   */\n      eq\n        /* \"#utility.yul\":27798:27800   */\n      tag_626\n      jumpi\n        /* \"#utility.yul\":27857:27858   */\n      0x00\n        /* \"#utility.yul\":27854:27855   */\n      dup1\n        /* \"#utility.yul\":27847:27859   */\n      revert\n        /* \"#utility.yul\":27798:27800   */\n    tag_626:\n        /* \"#utility.yul\":27788:27867   */\n      pop\n      jump\t// out\n        /* \"#utility.yul\":27873:27989   */\n    tag_337:\n        /* \"#utility.yul\":27943:27964   */\n      tag_628\n        /* \"#utility.yul\":27958:27963   */\n      dup2\n        /* \"#utility.yul\":27943:27964   */\n      tag_409\n      jump\t// in\n    tag_628:\n        /* \"#utility.yul\":27936:27941   */\n      dup2\n        /* \"#utility.yul\":27933:27965   */\n      eq\n        /* \"#utility.yul\":27923:27925   */\n      tag_629\n      jumpi\n        /* \"#utility.yul\":27979:27980   */\n      0x00\n        /* \"#utility.yul\":27976:27977   */\n      dup1\n        /* \"#utility.yul\":27969:27981   */\n      revert\n        /* \"#utility.yul\":27923:27925   */\n    tag_629:\n        /* \"#utility.yul\":27913:27989   */\n      pop\n      jump\t// out\n        /* \"#utility.yul\":27995:28115   */\n    tag_341:\n        /* \"#utility.yul\":28067:28090   */\n      tag_631\n        /* \"#utility.yul\":28084:28089   */\n      dup2\n        /* \"#utility.yul\":28067:28090   */\n      tag_579\n      jump\t// in\n    tag_631:\n        /* \"#utility.yul\":28060:28065   */\n      dup2\n        /* \"#utility.yul\":28057:28091   */\n      eq\n        /* \"#utility.yul\":28047:28049   */\n      tag_632\n      jumpi\n        /* \"#utility.yul\":28105:28106   */\n      0x00\n        /* \"#utility.yul\":28102:28103   */\n      dup1\n        /* \"#utility.yul\":28095:28107   */\n      revert\n        /* \"#utility.yul\":28047:28049   */\n    tag_632:\n        /* \"#utility.yul\":28037:28115   */\n      pop\n      jump\t// out\n        /* \"#utility.yul\":28121:28243   */\n    tag_356:\n        /* \"#utility.yul\":28194:28218   */\n      tag_634\n        /* \"#utility.yul\":28212:28217   */\n      dup2\n        /* \"#utility.yul\":28194:28218   */\n      tag_497\n      jump\t// in\n    tag_634:\n        /* \"#utility.yul\":28187:28192   */\n      dup2\n        /* \"#utility.yul\":28184:28219   */\n      eq\n        /* \"#utility.yul\":28174:28176   */\n      tag_635\n      jumpi\n        /* \"#utility.yul\":28233:28234   */\n      0x00\n        /* \"#utility.yul\":28230:28231   */\n      dup1\n        /* \"#utility.yul\":28223:28235   */\n      revert\n        /* \"#utility.yul\":28174:28176   */\n    tag_635:\n        /* \"#utility.yul\":28164:28243   */\n      pop\n      jump\t// out\n\n    auxdata: 0xa264697066735822122067d2d6710ef509565fcd9558064ad0a90f800cfac90788cebb4082d491bfd30064736f6c63430008040033\n}\n",
				"bytecode": {
					"linkReferences": {},
					"object": "60806040523480156200001157600080fd5b5060405162002e9838038062002e98833981810160405281019062000037919062000193565b81600090805190602001906200004f92919062000071565b5080600190805190602001906200006892919062000071565b50505062000376565b8280546200007f906200029b565b90600052602060002090601f016020900481019282620000a35760008555620000ef565b82601f10620000be57805160ff1916838001178555620000ef565b82800160010185558215620000ef579182015b82811115620000ee578251825591602001919060010190620000d1565b5b509050620000fe919062000102565b5090565b5b808211156200011d57600081600090555060010162000103565b5090565b60006200013862000132846200022f565b62000206565b9050828152602081018484840111156200015157600080fd5b6200015e84828562000265565b509392505050565b600082601f8301126200017857600080fd5b81516200018a84826020860162000121565b91505092915050565b60008060408385031215620001a757600080fd5b600083015167ffffffffffffffff811115620001c257600080fd5b620001d08582860162000166565b925050602083015167ffffffffffffffff811115620001ee57600080fd5b620001fc8582860162000166565b9150509250929050565b60006200021262000225565b9050620002208282620002d1565b919050565b6000604051905090565b600067ffffffffffffffff8211156200024d576200024c62000336565b5b620002588262000365565b9050602081019050919050565b60005b838110156200028557808201518184015260208101905062000268565b8381111562000295576000848401525b50505050565b60006002820490506001821680620002b457607f821691505b60208210811415620002cb57620002ca62000307565b5b50919050565b620002dc8262000365565b810181811067ffffffffffffffff82111715620002fe57620002fd62000336565b5b80604052505050565b7f4e487b7100000000000000000000000000000000000000000000000000000000600052602260045260246000fd5b7f4e487b7100000000000000000000000000000000000000000000000000000000600052604160045260246000fd5b6000601f19601f8301169050919050565b612b1280620003866000396000f3fe608060405234801561001057600080fd5b506004361061010b5760003560e01c806364abe37b116100a2578063a22cb46511610071578063a22cb465146102dc578063b88d4fde146102f8578063c87b56dd14610314578063e985e9c514610344578063ee48cda2146103745761010b565b806364abe37b1461024257806370a082311461027257806395d89b41146102a257806399eb80a9146102c05761010b565b806323b872dd116100de57806323b872dd146101aa57806342842e0e146101c657806352e04825146101e25780636352211e146102125761010b565b806301ffc9a71461011057806306fdde0314610140578063081812fc1461015e578063095ea7b31461018e575b600080fd5b61012a60048036038101906101259190611e2d565b6103a4565b60405161013791906121a7565b60405180910390f35b610148610486565b60405161015591906121c2565b60405180910390f35b61017860048036038101906101739190611e7f565b610518565b6040516101859190612140565b60405180910390f35b6101a860048036038101906101a39190611d50565b61055e565b005b6101c460048036038101906101bf9190611c4a565b610676565b005b6101e060048036038101906101db9190611c4a565b6106d6565b005b6101fc60048036038101906101f79190611e7f565b6106f6565b6040516102099190612140565b60405180910390f35b61022c60048036038101906102279190611e7f565b6107a8565b6040516102399190612140565b60405180910390f35b61025c60048036038101906102579190611e7f565b61085a565b6040516102699190612364565b60405180910390f35b61028c60048036038101906102879190611be5565b61087c565b6040516102999190612364565b60405180910390f35b6102aa610934565b6040516102b791906121c2565b60405180910390f35b6102da60048036038101906102d59190611d8c565b6109c6565b005b6102f660048036038101906102f19190611d14565b6109e5565b005b610312600480360381019061030d9190611c99565b6109fb565b005b61032e60048036038101906103299190611e7f565b610a5d565b60405161033b91906121c2565b60405180910390f35b61035e60048036038101906103599190611c0e565b610ac5565b60405161036b91906121a7565b60405180910390f35b61038e60048036038101906103899190611e7f565b610b59565b60405161039b9190612364565b60405180910390f35b60007f80ac58cd000000000000000000000000000000000000000000000000000000007bffffffffffffffffffffffffffffffffffffffffffffffffffffffff1916827bffffffffffffffffffffffffffffffffffffffffffffffffffffffff1916148061046f57507f5b5e139f000000000000000000000000000000000000000000000000000000007bffffffffffffffffffffffffffffffffffffffffffffffffffffffff1916827bffffffffffffffffffffffffffffffffffffffffffffffffffffffff1916145b8061047f575061047e82610b7b565b5b9050919050565b606060008054610495906125ba565b80601f01602080910402602001604051908101604052809291908181526020018280546104c1906125ba565b801561050e5780601f106104e35761010080835404028352916020019161050e565b820191906000526020600020905b8154815290600101906020018083116104f157829003601f168201915b5050505050905090565b600061052382610be5565b6007600083815260200190815260200160002060009054906101000a900473ffffffffffffffffffffffffffffffffffffffff169050919050565b6000610569826107a8565b90508073ffffffffffffffffffffffffffffffffffffffff168373ffffffffffffffffffffffffffffffffffffffff1614156105da576040517f08c379a00000000000000000000000000000000000000000000000000000000081526004016105d190612324565b60405180910390fd5b8073ffffffffffffffffffffffffffffffffffffffff166105f9610c30565b73ffffffffffffffffffffffffffffffffffffffff161480610628575061062781610622610c30565b610ac5565b5b610667576040517f08c379a000000000000000000000000000000000000000000000000000000000815260040161065e90612344565b60405180910390fd5b6106718383610c38565b505050565b610687610681610c30565b82610cf1565b6106c6576040517f08c379a00000000000000000000000000000000000000000000000000000000081526004016106bd906121e4565b60405180910390fd5b6106d1838383610d86565b505050565b6106f1838383604051806020016040528060008152506109fb565b505050565b6000806004600084815260200190815260200160002060009054906101000a900473ffffffffffffffffffffffffffffffffffffffff169050600073ffffffffffffffffffffffffffffffffffffffff168173ffffffffffffffffffffffffffffffffffffffff16141561079f576040517f08c379a000000000000000000000000000000000000000000000000000000000815260040161079690612304565b60405180910390fd5b80915050919050565b6000806002600084815260200190815260200160002060009054906101000a900473ffffffffffffffffffffffffffffffffffffffff169050600073ffffffffffffffffffffffffffffffffffffffff168173ffffffffffffffffffffffffffffffffffffffff161415610851576040517f08c379a000000000000000000000000000000000000000000000000000000000815260040161084890612304565b60405180910390fd5b80915050919050565b6000806003600084815260200190815260200160002054905080915050919050565b60008073ffffffffffffffffffffffffffffffffffffffff168273ffffffffffffffffffffffffffffffffffffffff1614156108ed576040517f08c379a00000000000000000000000000000000000000000000000000000000081526004016108e4906122a4565b60405180910390fd5b600660008373ffffffffffffffffffffffffffffffffffffffff1673ffffffffffffffffffffffffffffffffffffffff168152602001908152602001600020549050919050565b606060018054610943906125ba565b80601f016020809104026020016040519081016040528092919081815260200182805461096f906125ba565b80156109bc5780601f10610991576101008083540402835291602001916109bc565b820191906000526020600020905b81548152906001019060200180831161099f57829003601f168201915b5050505050905090565b6109d3868686868661107c565b6109dd828261109e565b505050505050565b6109f76109f0610c30565b8383611112565b5050565b610a0c610a06610c30565b83610cf1565b610a4b576040517f08c379a0000000000000000000000000000000000000000000000000000000008152600401610a42906121e4565b60405180910390fd5b610a578484848461127f565b50505050565b6060610a6882610be5565b6000610a726112db565b90506000815111610a925760405180602001604052806000815250610abd565b80610a9c846112f2565b604051602001610aad92919061211c565b6040516020818303038152906040525b915050919050565b6000600860008473ffffffffffffffffffffffffffffffffffffffff1673ffffffffffffffffffffffffffffffffffffffff16815260200190815260200160002060008373ffffffffffffffffffffffffffffffffffffffff1673ffffffffffffffffffffffffffffffffffffffff16815260200190815260200160002060009054906101000a900460ff16905092915050565b6000806005600084815260200190815260200160002054905080915050919050565b60007f01ffc9a7000000000000000000000000000000000000000000000000000000007bffffffffffffffffffffffffffffffffffffffffffffffffffffffff1916827bffffffffffffffffffffffffffffffffffffffffffffffffffffffff1916149050919050565b610bee8161149f565b610c2d576040517f08c379a0000000000000000000000000000000000000000000000000000000008152600401610c2490612304565b60405180910390fd5b50565b600033905090565b816007600083815260200190815260200160002060006101000a81548173ffffffffffffffffffffffffffffffffffffffff021916908373ffffffffffffffffffffffffffffffffffffffff160217905550808273ffffffffffffffffffffffffffffffffffffffff16610cab836107a8565b73ffffffffffffffffffffffffffffffffffffffff167f8c5be1e5ebec7d5bd14f71427d1e84f3dd0314c0f7b2291e5b200ac8c7c3b92560405160405180910390a45050565b600080610cfd836107a8565b90508073ffffffffffffffffffffffffffffffffffffffff168473ffffffffffffffffffffffffffffffffffffffff161480610d3f5750610d3e8185610ac5565b5b80610d7d57508373ffffffffffffffffffffffffffffffffffffffff16610d6584610518565b73ffffffffffffffffffffffffffffffffffffffff16145b91505092915050565b8273ffffffffffffffffffffffffffffffffffffffff16610da6826107a8565b73ffffffffffffffffffffffffffffffffffffffff1614610dfc576040517f08c379a0000000000000000000000000000000000000000000000000000000008152600401610df390612224565b60405180910390fd5b600073ffffffffffffffffffffffffffffffffffffffff168273ffffffffffffffffffffffffffffffffffffffff161415610e6c576040517f08c379a0000000000000000000000000000000000000000000000000000000008152600401610e6390612264565b60405180910390fd5b610e7783838361150b565b8273ffffffffffffffffffffffffffffffffffffffff16610e97826107a8565b73ffffffffffffffffffffffffffffffffffffffff1614610eed576040517f08c379a0000000000000000000000000000000000000000000000000000000008152600401610ee490612224565b60405180910390fd5b6007600082815260200190815260200160002060006101000a81549073ffffffffffffffffffffffffffffffffffffffff02191690556001600660008573ffffffffffffffffffffffffffffffffffffffff1673ffffffffffffffffffffffffffffffffffffffff168152602001908152602001600020600082825403925050819055506001600660008473ffffffffffffffffffffffffffffffffffffffff1673ffffffffffffffffffffffffffffffffffffffff16815260200190815260200160002060008282540192505081905550816002600083815260200190815260200160002060006101000a81548173ffffffffffffffffffffffffffffffffffffffff021916908373ffffffffffffffffffffffffffffffffffffffff160217905550808273ffffffffffffffffffffffffffffffffffffffff168473ffffffffffffffffffffffffffffffffffffffff167fddf252ad1be2c89b69c2b068fc378daa952ba7f163c4a11628f55a4df523b3ef60405160405180910390a4611077838383611510565b505050565b61109785848360405180602001604052806000815250611515565b5050505050565b6110a78261149f565b6110e6576040517f08c379a00000000000000000000000000000000000000000000000000000000081526004016110dd906122c4565b60405180910390fd5b8060096000848152602001908152602001600020908051906020019061110d929190611a09565b505050565b8173ffffffffffffffffffffffffffffffffffffffff168373ffffffffffffffffffffffffffffffffffffffff161415611181576040517f08c379a000000000000000000000000000000000000000000000000000000000815260040161117890612284565b60405180910390fd5b80600860008573ffffffffffffffffffffffffffffffffffffffff1673ffffffffffffffffffffffffffffffffffffffff16815260200190815260200160002060008473ffffffffffffffffffffffffffffffffffffffff1673ffffffffffffffffffffffffffffffffffffffff16815260200190815260200160002060006101000a81548160ff0219169083151502179055508173ffffffffffffffffffffffffffffffffffffffff168373ffffffffffffffffffffffffffffffffffffffff167f17307eab39ab6107e8899845ad3d59bd9653f200f220920489ca2b5937696c318360405161127291906121a7565b60405180910390a3505050565b61128a848484610d86565b61129684848484611572565b6112d5576040517f08c379a00000000000000000000000000000000000000000000000000000000081526004016112cc90612204565b60405180910390fd5b50505050565b606060405180602001604052806000815250905090565b6060600082141561133a576040518060400160405280600181526020017f3000000000000000000000000000000000000000000000000000000000000000815250905061149a565b600082905060005b6000821461136c5780806113559061261d565b915050600a82611365919061249f565b9150611342565b60008167ffffffffffffffff8111156113ae577f4e487b7100000000000000000000000000000000000000000000000000000000600052604160045260246000fd5b6040519080825280601f01601f1916602001820160405280156113e05781602001600182028036833780820191505090505b5090505b60008514611493576001826113f991906124d0565b9150600a856114089190612666565b60306114149190612449565b60f81b818381518110611450577f4e487b7100000000000000000000000000000000000000000000000000000000600052603260045260246000fd5b60200101907effffffffffffffffffffffffffffffffffffffffffffffffffffffffffffff1916908160001a905350600a8561148c919061249f565b94506113e4565b8093505050505b919050565b60008073ffffffffffffffffffffffffffffffffffffffff166002600084815260200190815260200160002060009054906101000a900473ffffffffffffffffffffffffffffffffffffffff1673ffffffffffffffffffffffffffffffffffffffff1614159050919050565b505050565b505050565b611520848484611709565b61152d6000858484611572565b61156c576040517f08c379a000000000000000000000000000000000000000000000000000000000815260040161156390612204565b60405180910390fd5b50505050565b60006115938473ffffffffffffffffffffffffffffffffffffffff166119e6565b156116fc578373ffffffffffffffffffffffffffffffffffffffff1663150b7a026115bc610c30565b8786866040518563ffffffff1660e01b81526004016115de949392919061215b565b602060405180830381600087803b1580156115f857600080fd5b505af192505050801561162957506040513d601f19601f820116820180604052508101906116269190611e56565b60015b6116ac573d8060008114611659576040519150601f19603f3d011682016040523d82523d6000602084013e61165e565b606091505b506000815114156116a4576040517f08c379a000000000000000000000000000000000000000000000000000000000815260040161169b90612204565b60405180910390fd5b805181602001fd5b63150b7a0260e01b7bffffffffffffffffffffffffffffffffffffffffffffffffffffffff1916817bffffffffffffffffffffffffffffffffffffffffffffffffffffffff191614915050611701565b600190505b949350505050565b600073ffffffffffffffffffffffffffffffffffffffff168373ffffffffffffffffffffffffffffffffffffffff161415611779576040517f08c379a0000000000000000000000000000000000000000000000000000000008152600401611770906122e4565b60405180910390fd5b600073ffffffffffffffffffffffffffffffffffffffff168273ffffffffffffffffffffffffffffffffffffffff1614156117e9576040517f08c379a00000000000000000000000000000000000000000000000000000000081526004016117e0906122e4565b60405180910390fd5b6117f28161149f565b15611832576040517f08c379a000000000000000000000000000000000000000000000000000000000815260040161182990612244565b60405180910390fd5b61183e6000848361150b565b6118478161149f565b15611887576040517f08c379a000000000000000000000000000000000000000000000000000000000815260040161187e90612244565b60405180910390fd5b6001600660008573ffffffffffffffffffffffffffffffffffffffff1673ffffffffffffffffffffffffffffffffffffffff16815260200190815260200160002060008282540192505081905550826002600083815260200190815260200160002060006101000a81548173ffffffffffffffffffffffffffffffffffffffff021916908373ffffffffffffffffffffffffffffffffffffffff160217905550816004600083815260200190815260200160002060006101000a81548173ffffffffffffffffffffffffffffffffffffffff021916908373ffffffffffffffffffffffffffffffffffffffff160217905550808373ffffffffffffffffffffffffffffffffffffffff16600073ffffffffffffffffffffffffffffffffffffffff167fddf252ad1be2c89b69c2b068fc378daa952ba7f163c4a11628f55a4df523b3ef60405160405180910390a46119e160008483611510565b505050565b6000808273ffffffffffffffffffffffffffffffffffffffff163b119050919050565b828054611a15906125ba565b90600052602060002090601f016020900481019282611a375760008555611a7e565b82601f10611a5057805160ff1916838001178555611a7e565b82800160010185558215611a7e579182015b82811115611a7d578251825591602001919060010190611a62565b5b509050611a8b9190611a8f565b5090565b5b80821115611aa8576000816000905550600101611a90565b5090565b6000611abf611aba846123a4565b61237f565b905082815260208101848484011115611ad757600080fd5b611ae2848285612578565b509392505050565b6000611afd611af8846123d5565b61237f565b905082815260208101848484011115611b1557600080fd5b611b20848285612578565b509392505050565b600081359050611b3781612a80565b92915050565b600081359050611b4c81612a97565b92915050565b600081359050611b6181612aae565b92915050565b600081519050611b7681612aae565b92915050565b600082601f830112611b8d57600080fd5b8135611b9d848260208601611aac565b91505092915050565b600082601f830112611bb757600080fd5b8135611bc7848260208601611aea565b91505092915050565b600081359050611bdf81612ac5565b92915050565b600060208284031215611bf757600080fd5b6000611c0584828501611b28565b91505092915050565b60008060408385031215611c2157600080fd5b6000611c2f85828601611b28565b9250506020611c4085828601611b28565b9150509250929050565b600080600060608486031215611c5f57600080fd5b6000611c6d86828701611b28565b9350506020611c7e86828701611b28565b9250506040611c8f86828701611bd0565b9150509250925092565b60008060008060808587031215611caf57600080fd5b6000611cbd87828801611b28565b9450506020611cce87828801611b28565b9350506040611cdf87828801611bd0565b925050606085013567ffffffffffffffff811115611cfc57600080fd5b611d0887828801611b7c565b91505092959194509250565b60008060408385031215611d2757600080fd5b6000611d3585828601611b28565b9250506020611d4685828601611b3d565b9150509250929050565b60008060408385031215611d6357600080fd5b6000611d7185828601611b28565b9250506020611d8285828601611bd0565b9150509250929050565b60008060008060008060c08789031215611da557600080fd5b6000611db389828a01611b28565b9650506020611dc489828a01611bd0565b9550506040611dd589828a01611b28565b9450506060611de689828a01611bd0565b9350506080611df789828a01611bd0565b92505060a087013567ffffffffffffffff811115611e1457600080fd5b611e2089828a01611ba6565b9150509295509295509295565b600060208284031215611e3f57600080fd5b6000611e4d84828501611b52565b91505092915050565b600060208284031215611e6857600080fd5b6000611e7684828501611b67565b91505092915050565b600060208284031215611e9157600080fd5b6000611e9f84828501611bd0565b91505092915050565b611eb181612504565b82525050565b611ec081612516565b82525050565b6000611ed182612406565b611edb818561241c565b9350611eeb818560208601612587565b611ef481612753565b840191505092915050565b6000611f0a82612411565b611f14818561242d565b9350611f24818560208601612587565b611f2d81612753565b840191505092915050565b6000611f4382612411565b611f4d818561243e565b9350611f5d818560208601612587565b80840191505092915050565b6000611f76602d8361242d565b9150611f8182612764565b604082019050919050565b6000611f9960328361242d565b9150611fa4826127b3565b604082019050919050565b6000611fbc60258361242d565b9150611fc782612802565b604082019050919050565b6000611fdf601c8361242d565b9150611fea82612851565b602082019050919050565b600061200260248361242d565b915061200d8261287a565b604082019050919050565b600061202560198361242d565b9150612030826128c9565b602082019050919050565b600061204860298361242d565b9150612053826128f2565b604082019050919050565b600061206b602e8361242d565b915061207682612941565b604082019050919050565b600061208e60208361242d565b915061209982612990565b602082019050919050565b60006120b160188361242d565b91506120bc826129b9565b602082019050919050565b60006120d460218361242d565b91506120df826129e2565b604082019050919050565b60006120f7603d8361242d565b915061210282612a31565b604082019050919050565b6121168161256e565b82525050565b60006121288285611f38565b91506121348284611f38565b91508190509392505050565b60006020820190506121556000830184611ea8565b92915050565b60006080820190506121706000830187611ea8565b61217d6020830186611ea8565b61218a604083018561210d565b818103606083015261219c8184611ec6565b905095945050505050565b60006020820190506121bc6000830184611eb7565b92915050565b600060208201905081810360008301526121dc8184611eff565b905092915050565b600060208201905081810360008301526121fd81611f69565b9050919050565b6000602082019050818103600083015261221d81611f8c565b9050919050565b6000602082019050818103600083015261223d81611faf565b9050919050565b6000602082019050818103600083015261225d81611fd2565b9050919050565b6000602082019050818103600083015261227d81611ff5565b9050919050565b6000602082019050818103600083015261229d81612018565b9050919050565b600060208201905081810360008301526122bd8161203b565b9050919050565b600060208201905081810360008301526122dd8161205e565b9050919050565b600060208201905081810360008301526122fd81612081565b9050919050565b6000602082019050818103600083015261231d816120a4565b9050919050565b6000602082019050818103600083015261233d816120c7565b9050919050565b6000602082019050818103600083015261235d816120ea565b9050919050565b6000602082019050612379600083018461210d565b92915050565b600061238961239a565b905061239582826125ec565b919050565b6000604051905090565b600067ffffffffffffffff8211156123bf576123be612724565b5b6123c882612753565b9050602081019050919050565b600067ffffffffffffffff8211156123f0576123ef612724565b5b6123f982612753565b9050602081019050919050565b600081519050919050565b600081519050919050565b600082825260208201905092915050565b600082825260208201905092915050565b600081905092915050565b60006124548261256e565b915061245f8361256e565b9250827fffffffffffffffffffffffffffffffffffffffffffffffffffffffffffffffff0382111561249457612493612697565b5b828201905092915050565b60006124aa8261256e565b91506124b58361256e565b9250826124c5576124c46126c6565b5b828204905092915050565b60006124db8261256e565b91506124e68361256e565b9250828210156124f9576124f8612697565b5b828203905092915050565b600061250f8261254e565b9050919050565b60008115159050919050565b60007fffffffff0000000000000000000000000000000000000000000000000000000082169050919050565b600073ffffffffffffffffffffffffffffffffffffffff82169050919050565b6000819050919050565b82818337600083830152505050565b60005b838110156125a557808201518184015260208101905061258a565b838111156125b4576000848401525b50505050565b600060028204905060018216806125d257607f821691505b602082108114156125e6576125e56126f5565b5b50919050565b6125f582612753565b810181811067ffffffffffffffff8211171561261457612613612724565b5b80604052505050565b60006126288261256e565b91507fffffffffffffffffffffffffffffffffffffffffffffffffffffffffffffffff82141561265b5761265a612697565b5b600182019050919050565b60006126718261256e565b915061267c8361256e565b92508261268c5761268b6126c6565b5b828206905092915050565b7f4e487b7100000000000000000000000000000000000000000000000000000000600052601160045260246000fd5b7f4e487b7100000000000000000000000000000000000000000000000000000000600052601260045260246000fd5b7f4e487b7100000000000000000000000000000000000000000000000000000000600052602260045260246000fd5b7f4e487b7100000000000000000000000000000000000000000000000000000000600052604160045260246000fd5b6000601f19601f8301169050919050565b7f4552433732313a2063616c6c6572206973206e6f7420746f6b656e206f776e6560008201527f72206f7220617070726f76656400000000000000000000000000000000000000602082015250565b7f4552433732313a207472616e7366657220746f206e6f6e20455243373231526560008201527f63656976657220696d706c656d656e7465720000000000000000000000000000602082015250565b7f4552433732313a207472616e736665722066726f6d20696e636f72726563742060008201527f6f776e6572000000000000000000000000000000000000000000000000000000602082015250565b7f4552433732313a20746f6b656e20616c7265616479206d696e74656400000000600082015250565b7f4552433732313a207472616e7366657220746f20746865207a65726f2061646460008201527f7265737300000000000000000000000000000000000000000000000000000000602082015250565b7f4552433732313a20617070726f766520746f2063616c6c657200000000000000600082015250565b7f4552433732313a2061646472657373207a65726f206973206e6f74206120766160008201527f6c6964206f776e65720000000000000000000000000000000000000000000000602082015250565b7f45524337323155524953746f726167653a2055524920736574206f66206e6f6e60008201527f6578697374656e7420746f6b656e000000000000000000000000000000000000602082015250565b7f4552433732313a206d696e7420746f20746865207a65726f2061646472657373600082015250565b7f4552433732313a20696e76616c696420746f6b656e2049440000000000000000600082015250565b7f4552433732313a20617070726f76616c20746f2063757272656e74206f776e6560008201527f7200000000000000000000000000000000000000000000000000000000000000602082015250565b7f4552433732313a20617070726f76652063616c6c6572206973206e6f7420746f60008201527f6b656e206f776e6572206f7220617070726f76656420666f7220616c6c000000602082015250565b612a8981612504565b8114612a9457600080fd5b50565b612aa081612516565b8114612aab57600080fd5b50565b612ab781612522565b8114612ac257600080fd5b50565b612ace8161256e565b8114612ad957600080fd5b5056fea264697066735822122067d2d6710ef509565fcd9558064ad0a90f800cfac90788cebb4082d491bfd30064736f6c63430008040033",
					"opcodes": "PUSH1 0x80 PUSH1 0x40 MSTORE CALLVALUE DUP1 ISZERO PUSH3 0x11 JUMPI PUSH1 0x0 DUP1 REVERT JUMPDEST POP PUSH1 0x40 MLOAD PUSH3 0x2E98 CODESIZE SUB DUP1 PUSH3 0x2E98 DUP4 CODECOPY DUP2 DUP2 ADD PUSH1 0x40 MSTORE DUP2 ADD SWAP1 PUSH3 0x37 SWAP2 SWAP1 PUSH3 0x193 JUMP JUMPDEST DUP2 PUSH1 0x0 SWAP1 DUP1 MLOAD SWAP1 PUSH1 0x20 ADD SWAP1 PUSH3 0x4F SWAP3 SWAP2 SWAP1 PUSH3 0x71 JUMP JUMPDEST POP DUP1 PUSH1 0x1 SWAP1 DUP1 MLOAD SWAP1 PUSH1 0x20 ADD SWAP1 PUSH3 0x68 SWAP3 SWAP2 SWAP1 PUSH3 0x71 JUMP JUMPDEST POP POP POP PUSH3 0x376 JUMP JUMPDEST DUP3 DUP1 SLOAD PUSH3 0x7F SWAP1 PUSH3 0x29B JUMP JUMPDEST SWAP1 PUSH1 0x0 MSTORE PUSH1 0x20 PUSH1 0x0 KECCAK256 SWAP1 PUSH1 0x1F ADD PUSH1 0x20 SWAP1 DIV DUP2 ADD SWAP3 DUP3 PUSH3 0xA3 JUMPI PUSH1 0x0 DUP6 SSTORE PUSH3 0xEF JUMP JUMPDEST DUP3 PUSH1 0x1F LT PUSH3 0xBE JUMPI DUP1 MLOAD PUSH1 0xFF NOT AND DUP4 DUP1 ADD OR DUP6 SSTORE PUSH3 0xEF JUMP JUMPDEST DUP3 DUP1 ADD PUSH1 0x1 ADD DUP6 SSTORE DUP3 ISZERO PUSH3 0xEF JUMPI SWAP2 DUP3 ADD JUMPDEST DUP3 DUP2 GT ISZERO PUSH3 0xEE JUMPI DUP3 MLOAD DUP3 SSTORE SWAP2 PUSH1 0x20 ADD SWAP2 SWAP1 PUSH1 0x1 ADD SWAP1 PUSH3 0xD1 JUMP JUMPDEST JUMPDEST POP SWAP1 POP PUSH3 0xFE SWAP2 SWAP1 PUSH3 0x102 JUMP JUMPDEST POP SWAP1 JUMP JUMPDEST JUMPDEST DUP1 DUP3 GT ISZERO PUSH3 0x11D JUMPI PUSH1 0x0 DUP2 PUSH1 0x0 SWAP1 SSTORE POP PUSH1 0x1 ADD PUSH3 0x103 JUMP JUMPDEST POP SWAP1 JUMP JUMPDEST PUSH1 0x0 PUSH3 0x138 PUSH3 0x132 DUP5 PUSH3 0x22F JUMP JUMPDEST PUSH3 0x206 JUMP JUMPDEST SWAP1 POP DUP3 DUP2 MSTORE PUSH1 0x20 DUP2 ADD DUP5 DUP5 DUP5 ADD GT ISZERO PUSH3 0x151 JUMPI PUSH1 0x0 DUP1 REVERT JUMPDEST PUSH3 0x15E DUP5 DUP3 DUP6 PUSH3 0x265 JUMP JUMPDEST POP SWAP4 SWAP3 POP POP POP JUMP JUMPDEST PUSH1 0x0 DUP3 PUSH1 0x1F DUP4 ADD SLT PUSH3 0x178 JUMPI PUSH1 0x0 DUP1 REVERT JUMPDEST DUP2 MLOAD PUSH3 0x18A DUP5 DUP3 PUSH1 0x20 DUP7 ADD PUSH3 0x121 JUMP JUMPDEST SWAP2 POP POP SWAP3 SWAP2 POP POP JUMP JUMPDEST PUSH1 0x0 DUP1 PUSH1 0x40 DUP4 DUP6 SUB SLT ISZERO PUSH3 0x1A7 JUMPI PUSH1 0x0 DUP1 REVERT JUMPDEST PUSH1 0x0 DUP4 ADD MLOAD PUSH8 0xFFFFFFFFFFFFFFFF DUP2 GT ISZERO PUSH3 0x1C2 JUMPI PUSH1 0x0 DUP1 REVERT JUMPDEST PUSH3 0x1D0 DUP6 DUP3 DUP7 ADD PUSH3 0x166 JUMP JUMPDEST SWAP3 POP POP PUSH1 0x20 DUP4 ADD MLOAD PUSH8 0xFFFFFFFFFFFFFFFF DUP2 GT ISZERO PUSH3 0x1EE JUMPI PUSH1 0x0 DUP1 REVERT JUMPDEST PUSH3 0x1FC DUP6 DUP3 DUP7 ADD PUSH3 0x166 JUMP JUMPDEST SWAP2 POP POP SWAP3 POP SWAP3 SWAP1 POP JUMP JUMPDEST PUSH1 0x0 PUSH3 0x212 PUSH3 0x225 JUMP JUMPDEST SWAP1 POP PUSH3 0x220 DUP3 DUP3 PUSH3 0x2D1 JUMP JUMPDEST SWAP2 SWAP1 POP JUMP JUMPDEST PUSH1 0x0 PUSH1 0x40 MLOAD SWAP1 POP SWAP1 JUMP JUMPDEST PUSH1 0x0 PUSH8 0xFFFFFFFFFFFFFFFF DUP3 GT ISZERO PUSH3 0x24D JUMPI PUSH3 0x24C PUSH3 0x336 JUMP JUMPDEST JUMPDEST PUSH3 0x258 DUP3 PUSH3 0x365 JUMP JUMPDEST SWAP1 POP PUSH1 0x20 DUP2 ADD SWAP1 POP SWAP2 SWAP1 POP JUMP JUMPDEST PUSH1 0x0 JUMPDEST DUP4 DUP2 LT ISZERO PUSH3 0x285 JUMPI DUP1 DUP3 ADD MLOAD DUP2 DUP5 ADD MSTORE PUSH1 0x20 DUP2 ADD SWAP1 POP PUSH3 0x268 JUMP JUMPDEST DUP4 DUP2 GT ISZERO PUSH3 0x295 JUMPI PUSH1 0x0 DUP5 DUP5 ADD MSTORE JUMPDEST POP POP POP POP JUMP JUMPDEST PUSH1 0x0 PUSH1 0x2 DUP3 DIV SWAP1 POP PUSH1 0x1 DUP3 AND DUP1 PUSH3 0x2B4 JUMPI PUSH1 0x7F DUP3 AND SWAP2 POP JUMPDEST PUSH1 0x20 DUP3 LT DUP2 EQ ISZERO PUSH3 0x2CB JUMPI PUSH3 0x2CA PUSH3 0x307 JUMP JUMPDEST JUMPDEST POP SWAP2 SWAP1 POP JUMP JUMPDEST PUSH3 0x2DC DUP3 PUSH3 0x365 JUMP JUMPDEST DUP2 ADD DUP2 DUP2 LT PUSH8 0xFFFFFFFFFFFFFFFF DUP3 GT OR ISZERO PUSH3 0x2FE JUMPI PUSH3 0x2FD PUSH3 0x336 JUMP JUMPDEST JUMPDEST DUP1 PUSH1 0x40 MSTORE POP POP POP JUMP JUMPDEST PUSH32 0x4E487B7100000000000000000000000000000000000000000000000000000000 PUSH1 0x0 MSTORE PUSH1 0x22 PUSH1 0x4 MSTORE PUSH1 0x24 PUSH1 0x0 REVERT JUMPDEST PUSH32 0x4E487B7100000000000000000000000000000000000000000000000000000000 PUSH1 0x0 MSTORE PUSH1 0x41 PUSH1 0x4 MSTORE PUSH1 0x24 PUSH1 0x0 REVERT JUMPDEST PUSH1 0x0 PUSH1 0x1F NOT PUSH1 0x1F DUP4 ADD AND SWAP1 POP SWAP2 SWAP1 POP JUMP JUMPDEST PUSH2 0x2B12 DUP1 PUSH3 0x386 PUSH1 0x0 CODECOPY PUSH1 0x0 RETURN INVALID PUSH1 0x80 PUSH1 0x40 MSTORE CALLVALUE DUP1 ISZERO PUSH2 0x10 JUMPI PUSH1 0x0 DUP1 REVERT JUMPDEST POP PUSH1 0x4 CALLDATASIZE LT PUSH2 0x10B JUMPI PUSH1 0x0 CALLDATALOAD PUSH1 0xE0 SHR DUP1 PUSH4 0x64ABE37B GT PUSH2 0xA2 JUMPI DUP1 PUSH4 0xA22CB465 GT PUSH2 0x71 JUMPI DUP1 PUSH4 0xA22CB465 EQ PUSH2 0x2DC JUMPI DUP1 PUSH4 0xB88D4FDE EQ PUSH2 0x2F8 JUMPI DUP1 PUSH4 0xC87B56DD EQ PUSH2 0x314 JUMPI DUP1 PUSH4 0xE985E9C5 EQ PUSH2 0x344 JUMPI DUP1 PUSH4 0xEE48CDA2 EQ PUSH2 0x374 JUMPI PUSH2 0x10B JUMP JUMPDEST DUP1 PUSH4 0x64ABE37B EQ PUSH2 0x242 JUMPI DUP1 PUSH4 0x70A08231 EQ PUSH2 0x272 JUMPI DUP1 PUSH4 0x95D89B41 EQ PUSH2 0x2A2 JUMPI DUP1 PUSH4 0x99EB80A9 EQ PUSH2 0x2C0 JUMPI PUSH2 0x10B JUMP JUMPDEST DUP1 PUSH4 0x23B872DD GT PUSH2 0xDE JUMPI DUP1 PUSH4 0x23B872DD EQ PUSH2 0x1AA JUMPI DUP1 PUSH4 0x42842E0E EQ PUSH2 0x1C6 JUMPI DUP1 PUSH4 0x52E04825 EQ PUSH2 0x1E2 JUMPI DUP1 PUSH4 0x6352211E EQ PUSH2 0x212 JUMPI PUSH2 0x10B JUMP JUMPDEST DUP1 PUSH4 0x1FFC9A7 EQ PUSH2 0x110 JUMPI DUP1 PUSH4 0x6FDDE03 EQ PUSH2 0x140 JUMPI DUP1 PUSH4 0x81812FC EQ PUSH2 0x15E JUMPI DUP1 PUSH4 0x95EA7B3 EQ PUSH2 0x18E JUMPI JUMPDEST PUSH1 0x0 DUP1 REVERT JUMPDEST PUSH2 0x12A PUSH1 0x4 DUP1 CALLDATASIZE SUB DUP2 ADD SWAP1 PUSH2 0x125 SWAP2 SWAP1 PUSH2 0x1E2D JUMP JUMPDEST PUSH2 0x3A4 JUMP JUMPDEST PUSH1 0x40 MLOAD PUSH2 0x137 SWAP2 SWAP1 PUSH2 0x21A7 JUMP JUMPDEST PUSH1 0x40 MLOAD DUP1 SWAP2 SUB SWAP1 RETURN JUMPDEST PUSH2 0x148 PUSH2 0x486 JUMP JUMPDEST PUSH1 0x40 MLOAD PUSH2 0x155 SWAP2 SWAP1 PUSH2 0x21C2 JUMP JUMPDEST PUSH1 0x40 MLOAD DUP1 SWAP2 SUB SWAP1 RETURN JUMPDEST PUSH2 0x178 PUSH1 0x4 DUP1 CALLDATASIZE SUB DUP2 ADD SWAP1 PUSH2 0x173 SWAP2 SWAP1 PUSH2 0x1E7F JUMP JUMPDEST PUSH2 0x518 JUMP JUMPDEST PUSH1 0x40 MLOAD PUSH2 0x185 SWAP2 SWAP1 PUSH2 0x2140 JUMP JUMPDEST PUSH1 0x40 MLOAD DUP1 SWAP2 SUB SWAP1 RETURN JUMPDEST PUSH2 0x1A8 PUSH1 0x4 DUP1 CALLDATASIZE SUB DUP2 ADD SWAP1 PUSH2 0x1A3 SWAP2 SWAP1 PUSH2 0x1D50 JUMP JUMPDEST PUSH2 0x55E JUMP JUMPDEST STOP JUMPDEST PUSH2 0x1C4 PUSH1 0x4 DUP1 CALLDATASIZE SUB DUP2 ADD SWAP1 PUSH2 0x1BF SWAP2 SWAP1 PUSH2 0x1C4A JUMP JUMPDEST PUSH2 0x676 JUMP JUMPDEST STOP JUMPDEST PUSH2 0x1E0 PUSH1 0x4 DUP1 CALLDATASIZE SUB DUP2 ADD SWAP1 PUSH2 0x1DB SWAP2 SWAP1 PUSH2 0x1C4A JUMP JUMPDEST PUSH2 0x6D6 JUMP JUMPDEST STOP JUMPDEST PUSH2 0x1FC PUSH1 0x4 DUP1 CALLDATASIZE SUB DUP2 ADD SWAP1 PUSH2 0x1F7 SWAP2 SWAP1 PUSH2 0x1E7F JUMP JUMPDEST PUSH2 0x6F6 JUMP JUMPDEST PUSH1 0x40 MLOAD PUSH2 0x209 SWAP2 SWAP1 PUSH2 0x2140 JUMP JUMPDEST PUSH1 0x40 MLOAD DUP1 SWAP2 SUB SWAP1 RETURN JUMPDEST PUSH2 0x22C PUSH1 0x4 DUP1 CALLDATASIZE SUB DUP2 ADD SWAP1 PUSH2 0x227 SWAP2 SWAP1 PUSH2 0x1E7F JUMP JUMPDEST PUSH2 0x7A8 JUMP JUMPDEST PUSH1 0x40 MLOAD PUSH2 0x239 SWAP2 SWAP1 PUSH2 0x2140 JUMP JUMPDEST PUSH1 0x40 MLOAD DUP1 SWAP2 SUB SWAP1 RETURN JUMPDEST PUSH2 0x25C PUSH1 0x4 DUP1 CALLDATASIZE SUB DUP2 ADD SWAP1 PUSH2 0x257 SWAP2 SWAP1 PUSH2 0x1E7F JUMP JUMPDEST PUSH2 0x85A JUMP JUMPDEST PUSH1 0x40 MLOAD PUSH2 0x269 SWAP2 SWAP1 PUSH2 0x2364 JUMP JUMPDEST PUSH1 0x40 MLOAD DUP1 SWAP2 SUB SWAP1 RETURN JUMPDEST PUSH2 0x28C PUSH1 0x4 DUP1 CALLDATASIZE SUB DUP2 ADD SWAP1 PUSH2 0x287 SWAP2 SWAP1 PUSH2 0x1BE5 JUMP JUMPDEST PUSH2 0x87C JUMP JUMPDEST PUSH1 0x40 MLOAD PUSH2 0x299 SWAP2 SWAP1 PUSH2 0x2364 JUMP JUMPDEST PUSH1 0x40 MLOAD DUP1 SWAP2 SUB SWAP1 RETURN JUMPDEST PUSH2 0x2AA PUSH2 0x934 JUMP JUMPDEST PUSH1 0x40 MLOAD PUSH2 0x2B7 SWAP2 SWAP1 PUSH2 0x21C2 JUMP JUMPDEST PUSH1 0x40 MLOAD DUP1 SWAP2 SUB SWAP1 RETURN JUMPDEST PUSH2 0x2DA PUSH1 0x4 DUP1 CALLDATASIZE SUB DUP2 ADD SWAP1 PUSH2 0x2D5 SWAP2 SWAP1 PUSH2 0x1D8C JUMP JUMPDEST PUSH2 0x9C6 JUMP JUMPDEST STOP JUMPDEST PUSH2 0x2F6 PUSH1 0x4 DUP1 CALLDATASIZE SUB DUP2 ADD SWAP1 PUSH2 0x2F1 SWAP2 SWAP1 PUSH2 0x1D14 JUMP JUMPDEST PUSH2 0x9E5 JUMP JUMPDEST STOP JUMPDEST PUSH2 0x312 PUSH1 0x4 DUP1 CALLDATASIZE SUB DUP2 ADD SWAP1 PUSH2 0x30D SWAP2 SWAP1 PUSH2 0x1C99 JUMP JUMPDEST PUSH2 0x9FB JUMP JUMPDEST STOP JUMPDEST PUSH2 0x32E PUSH1 0x4 DUP1 CALLDATASIZE SUB DUP2 ADD SWAP1 PUSH2 0x329 SWAP2 SWAP1 PUSH2 0x1E7F JUMP JUMPDEST PUSH2 0xA5D JUMP JUMPDEST PUSH1 0x40 MLOAD PUSH2 0x33B SWAP2 SWAP1 PUSH2 0x21C2 JUMP JUMPDEST PUSH1 0x40 MLOAD DUP1 SWAP2 SUB SWAP1 RETURN JUMPDEST PUSH2 0x35E PUSH1 0x4 DUP1 CALLDATASIZE SUB DUP2 ADD SWAP1 PUSH2 0x359 SWAP2 SWAP1 PUSH2 0x1C0E JUMP JUMPDEST PUSH2 0xAC5 JUMP JUMPDEST PUSH1 0x40 MLOAD PUSH2 0x36B SWAP2 SWAP1 PUSH2 0x21A7 JUMP JUMPDEST PUSH1 0x40 MLOAD DUP1 SWAP2 SUB SWAP1 RETURN JUMPDEST PUSH2 0x38E PUSH1 0x4 DUP1 CALLDATASIZE SUB DUP2 ADD SWAP1 PUSH2 0x389 SWAP2 SWAP1 PUSH2 0x1E7F JUMP JUMPDEST PUSH2 0xB59 JUMP JUMPDEST PUSH1 0x40 MLOAD PUSH2 0x39B SWAP2 SWAP1 PUSH2 0x2364 JUMP JUMPDEST PUSH1 0x40 MLOAD DUP1 SWAP2 SUB SWAP1 RETURN JUMPDEST PUSH1 0x0 PUSH32 0x80AC58CD00000000000000000000000000000000000000000000000000000000 PUSH28 0xFFFFFFFFFFFFFFFFFFFFFFFFFFFFFFFFFFFFFFFFFFFFFFFFFFFFFFFF NOT AND DUP3 PUSH28 0xFFFFFFFFFFFFFFFFFFFFFFFFFFFFFFFFFFFFFFFFFFFFFFFFFFFFFFFF NOT AND EQ DUP1 PUSH2 0x46F JUMPI POP PUSH32 0x5B5E139F00000000000000000000000000000000000000000000000000000000 PUSH28 0xFFFFFFFFFFFFFFFFFFFFFFFFFFFFFFFFFFFFFFFFFFFFFFFFFFFFFFFF NOT AND DUP3 PUSH28 0xFFFFFFFFFFFFFFFFFFFFFFFFFFFFFFFFFFFFFFFFFFFFFFFFFFFFFFFF NOT AND EQ JUMPDEST DUP1 PUSH2 0x47F JUMPI POP PUSH2 0x47E DUP3 PUSH2 0xB7B JUMP JUMPDEST JUMPDEST SWAP1 POP SWAP2 SWAP1 POP JUMP JUMPDEST PUSH1 0x60 PUSH1 0x0 DUP1 SLOAD PUSH2 0x495 SWAP1 PUSH2 0x25BA JUMP JUMPDEST DUP1 PUSH1 0x1F ADD PUSH1 0x20 DUP1 SWAP2 DIV MUL PUSH1 0x20 ADD PUSH1 0x40 MLOAD SWAP1 DUP2 ADD PUSH1 0x40 MSTORE DUP1 SWAP3 SWAP2 SWAP1 DUP2 DUP2 MSTORE PUSH1 0x20 ADD DUP3 DUP1 SLOAD PUSH2 0x4C1 SWAP1 PUSH2 0x25BA JUMP JUMPDEST DUP1 ISZERO PUSH2 0x50E JUMPI DUP1 PUSH1 0x1F LT PUSH2 0x4E3 JUMPI PUSH2 0x100 DUP1 DUP4 SLOAD DIV MUL DUP4 MSTORE SWAP2 PUSH1 0x20 ADD SWAP2 PUSH2 0x50E JUMP JUMPDEST DUP3 ADD SWAP2 SWAP1 PUSH1 0x0 MSTORE PUSH1 0x20 PUSH1 0x0 KECCAK256 SWAP1 JUMPDEST DUP2 SLOAD DUP2 MSTORE SWAP1 PUSH1 0x1 ADD SWAP1 PUSH1 0x20 ADD DUP1 DUP4 GT PUSH2 0x4F1 JUMPI DUP3 SWAP1 SUB PUSH1 0x1F AND DUP3 ADD SWAP2 JUMPDEST POP POP POP POP POP SWAP1 POP SWAP1 JUMP JUMPDEST PUSH1 0x0 PUSH2 0x523 DUP3 PUSH2 0xBE5 JUMP JUMPDEST PUSH1 0x7 PUSH1 0x0 DUP4 DUP2 MSTORE PUSH1 0x20 ADD SWAP1 DUP2 MSTORE PUSH1 0x20 ADD PUSH1 0x0 KECCAK256 PUSH1 0x0 SWAP1 SLOAD SWAP1 PUSH2 0x100 EXP SWAP1 DIV PUSH20 0xFFFFFFFFFFFFFFFFFFFFFFFFFFFFFFFFFFFFFFFF AND SWAP1 POP SWAP2 SWAP1 POP JUMP JUMPDEST PUSH1 0x0 PUSH2 0x569 DUP3 PUSH2 0x7A8 JUMP JUMPDEST SWAP1 POP DUP1 PUSH20 0xFFFFFFFFFFFFFFFFFFFFFFFFFFFFFFFFFFFFFFFF AND DUP4 PUSH20 0xFFFFFFFFFFFFFFFFFFFFFFFFFFFFFFFFFFFFFFFF AND EQ ISZERO PUSH2 0x5DA JUMPI PUSH1 0x40 MLOAD PUSH32 0x8C379A000000000000000000000000000000000000000000000000000000000 DUP2 MSTORE PUSH1 0x4 ADD PUSH2 0x5D1 SWAP1 PUSH2 0x2324 JUMP JUMPDEST PUSH1 0x40 MLOAD DUP1 SWAP2 SUB SWAP1 REVERT JUMPDEST DUP1 PUSH20 0xFFFFFFFFFFFFFFFFFFFFFFFFFFFFFFFFFFFFFFFF AND PUSH2 0x5F9 PUSH2 0xC30 JUMP JUMPDEST PUSH20 0xFFFFFFFFFFFFFFFFFFFFFFFFFFFFFFFFFFFFFFFF AND EQ DUP1 PUSH2 0x628 JUMPI POP PUSH2 0x627 DUP2 PUSH2 0x622 PUSH2 0xC30 JUMP JUMPDEST PUSH2 0xAC5 JUMP JUMPDEST JUMPDEST PUSH2 0x667 JUMPI PUSH1 0x40 MLOAD PUSH32 0x8C379A000000000000000000000000000000000000000000000000000000000 DUP2 MSTORE PUSH1 0x4 ADD PUSH2 0x65E SWAP1 PUSH2 0x2344 JUMP JUMPDEST PUSH1 0x40 MLOAD DUP1 SWAP2 SUB SWAP1 REVERT JUMPDEST PUSH2 0x671 DUP4 DUP4 PUSH2 0xC38 JUMP JUMPDEST POP POP POP JUMP JUMPDEST PUSH2 0x687 PUSH2 0x681 PUSH2 0xC30 JUMP JUMPDEST DUP3 PUSH2 0xCF1 JUMP JUMPDEST PUSH2 0x6C6 JUMPI PUSH1 0x40 MLOAD PUSH32 0x8C379A000000000000000000000000000000000000000000000000000000000 DUP2 MSTORE PUSH1 0x4 ADD PUSH2 0x6BD SWAP1 PUSH2 0x21E4 JUMP JUMPDEST PUSH1 0x40 MLOAD DUP1 SWAP2 SUB SWAP1 REVERT JUMPDEST PUSH2 0x6D1 DUP4 DUP4 DUP4 PUSH2 0xD86 JUMP JUMPDEST POP POP POP JUMP JUMPDEST PUSH2 0x6F1 DUP4 DUP4 DUP4 PUSH1 0x40 MLOAD DUP1 PUSH1 0x20 ADD PUSH1 0x40 MSTORE DUP1 PUSH1 0x0 DUP2 MSTORE POP PUSH2 0x9FB JUMP JUMPDEST POP POP POP JUMP JUMPDEST PUSH1 0x0 DUP1 PUSH1 0x4 PUSH1 0x0 DUP5 DUP2 MSTORE PUSH1 0x20 ADD SWAP1 DUP2 MSTORE PUSH1 0x20 ADD PUSH1 0x0 KECCAK256 PUSH1 0x0 SWAP1 SLOAD SWAP1 PUSH2 0x100 EXP SWAP1 DIV PUSH20 0xFFFFFFFFFFFFFFFFFFFFFFFFFFFFFFFFFFFFFFFF AND SWAP1 POP PUSH1 0x0 PUSH20 0xFFFFFFFFFFFFFFFFFFFFFFFFFFFFFFFFFFFFFFFF AND DUP2 PUSH20 0xFFFFFFFFFFFFFFFFFFFFFFFFFFFFFFFFFFFFFFFF AND EQ ISZERO PUSH2 0x79F JUMPI PUSH1 0x40 MLOAD PUSH32 0x8C379A000000000000000000000000000000000000000000000000000000000 DUP2 MSTORE PUSH1 0x4 ADD PUSH2 0x796 SWAP1 PUSH2 0x2304 JUMP JUMPDEST PUSH1 0x40 MLOAD DUP1 SWAP2 SUB SWAP1 REVERT JUMPDEST DUP1 SWAP2 POP POP SWAP2 SWAP1 POP JUMP JUMPDEST PUSH1 0x0 DUP1 PUSH1 0x2 PUSH1 0x0 DUP5 DUP2 MSTORE PUSH1 0x20 ADD SWAP1 DUP2 MSTORE PUSH1 0x20 ADD PUSH1 0x0 KECCAK256 PUSH1 0x0 SWAP1 SLOAD SWAP1 PUSH2 0x100 EXP SWAP1 DIV PUSH20 0xFFFFFFFFFFFFFFFFFFFFFFFFFFFFFFFFFFFFFFFF AND SWAP1 POP PUSH1 0x0 PUSH20 0xFFFFFFFFFFFFFFFFFFFFFFFFFFFFFFFFFFFFFFFF AND DUP2 PUSH20 0xFFFFFFFFFFFFFFFFFFFFFFFFFFFFFFFFFFFFFFFF AND EQ ISZERO PUSH2 0x851 JUMPI PUSH1 0x40 MLOAD PUSH32 0x8C379A000000000000000000000000000000000000000000000000000000000 DUP2 MSTORE PUSH1 0x4 ADD PUSH2 0x848 SWAP1 PUSH2 0x2304 JUMP JUMPDEST PUSH1 0x40 MLOAD DUP1 SWAP2 SUB SWAP1 REVERT JUMPDEST DUP1 SWAP2 POP POP SWAP2 SWAP1 POP JUMP JUMPDEST PUSH1 0x0 DUP1 PUSH1 0x3 PUSH1 0x0 DUP5 DUP2 MSTORE PUSH1 0x20 ADD SWAP1 DUP2 MSTORE PUSH1 0x20 ADD PUSH1 0x0 KECCAK256 SLOAD SWAP1 POP DUP1 SWAP2 POP POP SWAP2 SWAP1 POP JUMP JUMPDEST PUSH1 0x0 DUP1 PUSH20 0xFFFFFFFFFFFFFFFFFFFFFFFFFFFFFFFFFFFFFFFF AND DUP3 PUSH20 0xFFFFFFFFFFFFFFFFFFFFFFFFFFFFFFFFFFFFFFFF AND EQ ISZERO PUSH2 0x8ED JUMPI PUSH1 0x40 MLOAD PUSH32 0x8C379A000000000000000000000000000000000000000000000000000000000 DUP2 MSTORE PUSH1 0x4 ADD PUSH2 0x8E4 SWAP1 PUSH2 0x22A4 JUMP JUMPDEST PUSH1 0x40 MLOAD DUP1 SWAP2 SUB SWAP1 REVERT JUMPDEST PUSH1 0x6 PUSH1 0x0 DUP4 PUSH20 0xFFFFFFFFFFFFFFFFFFFFFFFFFFFFFFFFFFFFFFFF AND PUSH20 0xFFFFFFFFFFFFFFFFFFFFFFFFFFFFFFFFFFFFFFFF AND DUP2 MSTORE PUSH1 0x20 ADD SWAP1 DUP2 MSTORE PUSH1 0x20 ADD PUSH1 0x0 KECCAK256 SLOAD SWAP1 POP SWAP2 SWAP1 POP JUMP JUMPDEST PUSH1 0x60 PUSH1 0x1 DUP1 SLOAD PUSH2 0x943 SWAP1 PUSH2 0x25BA JUMP JUMPDEST DUP1 PUSH1 0x1F ADD PUSH1 0x20 DUP1 SWAP2 DIV MUL PUSH1 0x20 ADD PUSH1 0x40 MLOAD SWAP1 DUP2 ADD PUSH1 0x40 MSTORE DUP1 SWAP3 SWAP2 SWAP1 DUP2 DUP2 MSTORE PUSH1 0x20 ADD DUP3 DUP1 SLOAD PUSH2 0x96F SWAP1 PUSH2 0x25BA JUMP JUMPDEST DUP1 ISZERO PUSH2 0x9BC JUMPI DUP1 PUSH1 0x1F LT PUSH2 0x991 JUMPI PUSH2 0x100 DUP1 DUP4 SLOAD DIV MUL DUP4 MSTORE SWAP2 PUSH1 0x20 ADD SWAP2 PUSH2 0x9BC JUMP JUMPDEST DUP3 ADD SWAP2 SWAP1 PUSH1 0x0 MSTORE PUSH1 0x20 PUSH1 0x0 KECCAK256 SWAP1 JUMPDEST DUP2 SLOAD DUP2 MSTORE SWAP1 PUSH1 0x1 ADD SWAP1 PUSH1 0x20 ADD DUP1 DUP4 GT PUSH2 0x99F JUMPI DUP3 SWAP1 SUB PUSH1 0x1F AND DUP3 ADD SWAP2 JUMPDEST POP POP POP POP POP SWAP1 POP SWAP1 JUMP JUMPDEST PUSH2 0x9D3 DUP7 DUP7 DUP7 DUP7 DUP7 PUSH2 0x107C JUMP JUMPDEST PUSH2 0x9DD DUP3 DUP3 PUSH2 0x109E JUMP JUMPDEST POP POP POP POP POP POP JUMP JUMPDEST PUSH2 0x9F7 PUSH2 0x9F0 PUSH2 0xC30 JUMP JUMPDEST DUP4 DUP4 PUSH2 0x1112 JUMP JUMPDEST POP POP JUMP JUMPDEST PUSH2 0xA0C PUSH2 0xA06 PUSH2 0xC30 JUMP JUMPDEST DUP4 PUSH2 0xCF1 JUMP JUMPDEST PUSH2 0xA4B JUMPI PUSH1 0x40 MLOAD PUSH32 0x8C379A000000000000000000000000000000000000000000000000000000000 DUP2 MSTORE PUSH1 0x4 ADD PUSH2 0xA42 SWAP1 PUSH2 0x21E4 JUMP JUMPDEST PUSH1 0x40 MLOAD DUP1 SWAP2 SUB SWAP1 REVERT JUMPDEST PUSH2 0xA57 DUP5 DUP5 DUP5 DUP5 PUSH2 0x127F JUMP JUMPDEST POP POP POP POP JUMP JUMPDEST PUSH1 0x60 PUSH2 0xA68 DUP3 PUSH2 0xBE5 JUMP JUMPDEST PUSH1 0x0 PUSH2 0xA72 PUSH2 0x12DB JUMP JUMPDEST SWAP1 POP PUSH1 0x0 DUP2 MLOAD GT PUSH2 0xA92 JUMPI PUSH1 0x40 MLOAD DUP1 PUSH1 0x20 ADD PUSH1 0x40 MSTORE DUP1 PUSH1 0x0 DUP2 MSTORE POP PUSH2 0xABD JUMP JUMPDEST DUP1 PUSH2 0xA9C DUP5 PUSH2 0x12F2 JUMP JUMPDEST PUSH1 0x40 MLOAD PUSH1 0x20 ADD PUSH2 0xAAD SWAP3 SWAP2 SWAP1 PUSH2 0x211C JUMP JUMPDEST PUSH1 0x40 MLOAD PUSH1 0x20 DUP2 DUP4 SUB SUB DUP2 MSTORE SWAP1 PUSH1 0x40 MSTORE JUMPDEST SWAP2 POP POP SWAP2 SWAP1 POP JUMP JUMPDEST PUSH1 0x0 PUSH1 0x8 PUSH1 0x0 DUP5 PUSH20 0xFFFFFFFFFFFFFFFFFFFFFFFFFFFFFFFFFFFFFFFF AND PUSH20 0xFFFFFFFFFFFFFFFFFFFFFFFFFFFFFFFFFFFFFFFF AND DUP2 MSTORE PUSH1 0x20 ADD SWAP1 DUP2 MSTORE PUSH1 0x20 ADD PUSH1 0x0 KECCAK256 PUSH1 0x0 DUP4 PUSH20 0xFFFFFFFFFFFFFFFFFFFFFFFFFFFFFFFFFFFFFFFF AND PUSH20 0xFFFFFFFFFFFFFFFFFFFFFFFFFFFFFFFFFFFFFFFF AND DUP2 MSTORE PUSH1 0x20 ADD SWAP1 DUP2 MSTORE PUSH1 0x20 ADD PUSH1 0x0 KECCAK256 PUSH1 0x0 SWAP1 SLOAD SWAP1 PUSH2 0x100 EXP SWAP1 DIV PUSH1 0xFF AND SWAP1 POP SWAP3 SWAP2 POP POP JUMP JUMPDEST PUSH1 0x0 DUP1 PUSH1 0x5 PUSH1 0x0 DUP5 DUP2 MSTORE PUSH1 0x20 ADD SWAP1 DUP2 MSTORE PUSH1 0x20 ADD PUSH1 0x0 KECCAK256 SLOAD SWAP1 POP DUP1 SWAP2 POP POP SWAP2 SWAP1 POP JUMP JUMPDEST PUSH1 0x0 PUSH32 0x1FFC9A700000000000000000000000000000000000000000000000000000000 PUSH28 0xFFFFFFFFFFFFFFFFFFFFFFFFFFFFFFFFFFFFFFFFFFFFFFFFFFFFFFFF NOT AND DUP3 PUSH28 0xFFFFFFFFFFFFFFFFFFFFFFFFFFFFFFFFFFFFFFFFFFFFFFFFFFFFFFFF NOT AND EQ SWAP1 POP SWAP2 SWAP1 POP JUMP JUMPDEST PUSH2 0xBEE DUP2 PUSH2 0x149F JUMP JUMPDEST PUSH2 0xC2D JUMPI PUSH1 0x40 MLOAD PUSH32 0x8C379A000000000000000000000000000000000000000000000000000000000 DUP2 MSTORE PUSH1 0x4 ADD PUSH2 0xC24 SWAP1 PUSH2 0x2304 JUMP JUMPDEST PUSH1 0x40 MLOAD DUP1 SWAP2 SUB SWAP1 REVERT JUMPDEST POP JUMP JUMPDEST PUSH1 0x0 CALLER SWAP1 POP SWAP1 JUMP JUMPDEST DUP2 PUSH1 0x7 PUSH1 0x0 DUP4 DUP2 MSTORE PUSH1 0x20 ADD SWAP1 DUP2 MSTORE PUSH1 0x20 ADD PUSH1 0x0 KECCAK256 PUSH1 0x0 PUSH2 0x100 EXP DUP2 SLOAD DUP2 PUSH20 0xFFFFFFFFFFFFFFFFFFFFFFFFFFFFFFFFFFFFFFFF MUL NOT AND SWAP1 DUP4 PUSH20 0xFFFFFFFFFFFFFFFFFFFFFFFFFFFFFFFFFFFFFFFF AND MUL OR SWAP1 SSTORE POP DUP1 DUP3 PUSH20 0xFFFFFFFFFFFFFFFFFFFFFFFFFFFFFFFFFFFFFFFF AND PUSH2 0xCAB DUP4 PUSH2 0x7A8 JUMP JUMPDEST PUSH20 0xFFFFFFFFFFFFFFFFFFFFFFFFFFFFFFFFFFFFFFFF AND PUSH32 0x8C5BE1E5EBEC7D5BD14F71427D1E84F3DD0314C0F7B2291E5B200AC8C7C3B925 PUSH1 0x40 MLOAD PUSH1 0x40 MLOAD DUP1 SWAP2 SUB SWAP1 LOG4 POP POP JUMP JUMPDEST PUSH1 0x0 DUP1 PUSH2 0xCFD DUP4 PUSH2 0x7A8 JUMP JUMPDEST SWAP1 POP DUP1 PUSH20 0xFFFFFFFFFFFFFFFFFFFFFFFFFFFFFFFFFFFFFFFF AND DUP5 PUSH20 0xFFFFFFFFFFFFFFFFFFFFFFFFFFFFFFFFFFFFFFFF AND EQ DUP1 PUSH2 0xD3F JUMPI POP PUSH2 0xD3E DUP2 DUP6 PUSH2 0xAC5 JUMP JUMPDEST JUMPDEST DUP1 PUSH2 0xD7D JUMPI POP DUP4 PUSH20 0xFFFFFFFFFFFFFFFFFFFFFFFFFFFFFFFFFFFFFFFF AND PUSH2 0xD65 DUP5 PUSH2 0x518 JUMP JUMPDEST PUSH20 0xFFFFFFFFFFFFFFFFFFFFFFFFFFFFFFFFFFFFFFFF AND EQ JUMPDEST SWAP2 POP POP SWAP3 SWAP2 POP POP JUMP JUMPDEST DUP3 PUSH20 0xFFFFFFFFFFFFFFFFFFFFFFFFFFFFFFFFFFFFFFFF AND PUSH2 0xDA6 DUP3 PUSH2 0x7A8 JUMP JUMPDEST PUSH20 0xFFFFFFFFFFFFFFFFFFFFFFFFFFFFFFFFFFFFFFFF AND EQ PUSH2 0xDFC JUMPI PUSH1 0x40 MLOAD PUSH32 0x8C379A000000000000000000000000000000000000000000000000000000000 DUP2 MSTORE PUSH1 0x4 ADD PUSH2 0xDF3 SWAP1 PUSH2 0x2224 JUMP JUMPDEST PUSH1 0x40 MLOAD DUP1 SWAP2 SUB SWAP1 REVERT JUMPDEST PUSH1 0x0 PUSH20 0xFFFFFFFFFFFFFFFFFFFFFFFFFFFFFFFFFFFFFFFF AND DUP3 PUSH20 0xFFFFFFFFFFFFFFFFFFFFFFFFFFFFFFFFFFFFFFFF AND EQ ISZERO PUSH2 0xE6C JUMPI PUSH1 0x40 MLOAD PUSH32 0x8C379A000000000000000000000000000000000000000000000000000000000 DUP2 MSTORE PUSH1 0x4 ADD PUSH2 0xE63 SWAP1 PUSH2 0x2264 JUMP JUMPDEST PUSH1 0x40 MLOAD DUP1 SWAP2 SUB SWAP1 REVERT JUMPDEST PUSH2 0xE77 DUP4 DUP4 DUP4 PUSH2 0x150B JUMP JUMPDEST DUP3 PUSH20 0xFFFFFFFFFFFFFFFFFFFFFFFFFFFFFFFFFFFFFFFF AND PUSH2 0xE97 DUP3 PUSH2 0x7A8 JUMP JUMPDEST PUSH20 0xFFFFFFFFFFFFFFFFFFFFFFFFFFFFFFFFFFFFFFFF AND EQ PUSH2 0xEED JUMPI PUSH1 0x40 MLOAD PUSH32 0x8C379A000000000000000000000000000000000000000000000000000000000 DUP2 MSTORE PUSH1 0x4 ADD PUSH2 0xEE4 SWAP1 PUSH2 0x2224 JUMP JUMPDEST PUSH1 0x40 MLOAD DUP1 SWAP2 SUB SWAP1 REVERT JUMPDEST PUSH1 0x7 PUSH1 0x0 DUP3 DUP2 MSTORE PUSH1 0x20 ADD SWAP1 DUP2 MSTORE PUSH1 0x20 ADD PUSH1 0x0 KECCAK256 PUSH1 0x0 PUSH2 0x100 EXP DUP2 SLOAD SWAP1 PUSH20 0xFFFFFFFFFFFFFFFFFFFFFFFFFFFFFFFFFFFFFFFF MUL NOT AND SWAP1 SSTORE PUSH1 0x1 PUSH1 0x6 PUSH1 0x0 DUP6 PUSH20 0xFFFFFFFFFFFFFFFFFFFFFFFFFFFFFFFFFFFFFFFF AND PUSH20 0xFFFFFFFFFFFFFFFFFFFFFFFFFFFFFFFFFFFFFFFF AND DUP2 MSTORE PUSH1 0x20 ADD SWAP1 DUP2 MSTORE PUSH1 0x20 ADD PUSH1 0x0 KECCAK256 PUSH1 0x0 DUP3 DUP3 SLOAD SUB SWAP3 POP POP DUP2 SWAP1 SSTORE POP PUSH1 0x1 PUSH1 0x6 PUSH1 0x0 DUP5 PUSH20 0xFFFFFFFFFFFFFFFFFFFFFFFFFFFFFFFFFFFFFFFF AND PUSH20 0xFFFFFFFFFFFFFFFFFFFFFFFFFFFFFFFFFFFFFFFF AND DUP2 MSTORE PUSH1 0x20 ADD SWAP1 DUP2 MSTORE PUSH1 0x20 ADD PUSH1 0x0 KECCAK256 PUSH1 0x0 DUP3 DUP3 SLOAD ADD SWAP3 POP POP DUP2 SWAP1 SSTORE POP DUP2 PUSH1 0x2 PUSH1 0x0 DUP4 DUP2 MSTORE PUSH1 0x20 ADD SWAP1 DUP2 MSTORE PUSH1 0x20 ADD PUSH1 0x0 KECCAK256 PUSH1 0x0 PUSH2 0x100 EXP DUP2 SLOAD DUP2 PUSH20 0xFFFFFFFFFFFFFFFFFFFFFFFFFFFFFFFFFFFFFFFF MUL NOT AND SWAP1 DUP4 PUSH20 0xFFFFFFFFFFFFFFFFFFFFFFFFFFFFFFFFFFFFFFFF AND MUL OR SWAP1 SSTORE POP DUP1 DUP3 PUSH20 0xFFFFFFFFFFFFFFFFFFFFFFFFFFFFFFFFFFFFFFFF AND DUP5 PUSH20 0xFFFFFFFFFFFFFFFFFFFFFFFFFFFFFFFFFFFFFFFF AND PUSH32 0xDDF252AD1BE2C89B69C2B068FC378DAA952BA7F163C4A11628F55A4DF523B3EF PUSH1 0x40 MLOAD PUSH1 0x40 MLOAD DUP1 SWAP2 SUB SWAP1 LOG4 PUSH2 0x1077 DUP4 DUP4 DUP4 PUSH2 0x1510 JUMP JUMPDEST POP POP POP JUMP JUMPDEST PUSH2 0x1097 DUP6 DUP5 DUP4 PUSH1 0x40 MLOAD DUP1 PUSH1 0x20 ADD PUSH1 0x40 MSTORE DUP1 PUSH1 0x0 DUP2 MSTORE POP PUSH2 0x1515 JUMP JUMPDEST POP POP POP POP POP JUMP JUMPDEST PUSH2 0x10A7 DUP3 PUSH2 0x149F JUMP JUMPDEST PUSH2 0x10E6 JUMPI PUSH1 0x40 MLOAD PUSH32 0x8C379A000000000000000000000000000000000000000000000000000000000 DUP2 MSTORE PUSH1 0x4 ADD PUSH2 0x10DD SWAP1 PUSH2 0x22C4 JUMP JUMPDEST PUSH1 0x40 MLOAD DUP1 SWAP2 SUB SWAP1 REVERT JUMPDEST DUP1 PUSH1 0x9 PUSH1 0x0 DUP5 DUP2 MSTORE PUSH1 0x20 ADD SWAP1 DUP2 MSTORE PUSH1 0x20 ADD PUSH1 0x0 KECCAK256 SWAP1 DUP1 MLOAD SWAP1 PUSH1 0x20 ADD SWAP1 PUSH2 0x110D SWAP3 SWAP2 SWAP1 PUSH2 0x1A09 JUMP JUMPDEST POP POP POP JUMP JUMPDEST DUP2 PUSH20 0xFFFFFFFFFFFFFFFFFFFFFFFFFFFFFFFFFFFFFFFF AND DUP4 PUSH20 0xFFFFFFFFFFFFFFFFFFFFFFFFFFFFFFFFFFFFFFFF AND EQ ISZERO PUSH2 0x1181 JUMPI PUSH1 0x40 MLOAD PUSH32 0x8C379A000000000000000000000000000000000000000000000000000000000 DUP2 MSTORE PUSH1 0x4 ADD PUSH2 0x1178 SWAP1 PUSH2 0x2284 JUMP JUMPDEST PUSH1 0x40 MLOAD DUP1 SWAP2 SUB SWAP1 REVERT JUMPDEST DUP1 PUSH1 0x8 PUSH1 0x0 DUP6 PUSH20 0xFFFFFFFFFFFFFFFFFFFFFFFFFFFFFFFFFFFFFFFF AND PUSH20 0xFFFFFFFFFFFFFFFFFFFFFFFFFFFFFFFFFFFFFFFF AND DUP2 MSTORE PUSH1 0x20 ADD SWAP1 DUP2 MSTORE PUSH1 0x20 ADD PUSH1 0x0 KECCAK256 PUSH1 0x0 DUP5 PUSH20 0xFFFFFFFFFFFFFFFFFFFFFFFFFFFFFFFFFFFFFFFF AND PUSH20 0xFFFFFFFFFFFFFFFFFFFFFFFFFFFFFFFFFFFFFFFF AND DUP2 MSTORE PUSH1 0x20 ADD SWAP1 DUP2 MSTORE PUSH1 0x20 ADD PUSH1 0x0 KECCAK256 PUSH1 0x0 PUSH2 0x100 EXP DUP2 SLOAD DUP2 PUSH1 0xFF MUL NOT AND SWAP1 DUP4 ISZERO ISZERO MUL OR SWAP1 SSTORE POP DUP2 PUSH20 0xFFFFFFFFFFFFFFFFFFFFFFFFFFFFFFFFFFFFFFFF AND DUP4 PUSH20 0xFFFFFFFFFFFFFFFFFFFFFFFFFFFFFFFFFFFFFFFF AND PUSH32 0x17307EAB39AB6107E8899845AD3D59BD9653F200F220920489CA2B5937696C31 DUP4 PUSH1 0x40 MLOAD PUSH2 0x1272 SWAP2 SWAP1 PUSH2 0x21A7 JUMP JUMPDEST PUSH1 0x40 MLOAD DUP1 SWAP2 SUB SWAP1 LOG3 POP POP POP JUMP JUMPDEST PUSH2 0x128A DUP5 DUP5 DUP5 PUSH2 0xD86 JUMP JUMPDEST PUSH2 0x1296 DUP5 DUP5 DUP5 DUP5 PUSH2 0x1572 JUMP JUMPDEST PUSH2 0x12D5 JUMPI PUSH1 0x40 MLOAD PUSH32 0x8C379A000000000000000000000000000000000000000000000000000000000 DUP2 MSTORE PUSH1 0x4 ADD PUSH2 0x12CC SWAP1 PUSH2 0x2204 JUMP JUMPDEST PUSH1 0x40 MLOAD DUP1 SWAP2 SUB SWAP1 REVERT JUMPDEST POP POP POP POP JUMP JUMPDEST PUSH1 0x60 PUSH1 0x40 MLOAD DUP1 PUSH1 0x20 ADD PUSH1 0x40 MSTORE DUP1 PUSH1 0x0 DUP2 MSTORE POP SWAP1 POP SWAP1 JUMP JUMPDEST PUSH1 0x60 PUSH1 0x0 DUP3 EQ ISZERO PUSH2 0x133A JUMPI PUSH1 0x40 MLOAD DUP1 PUSH1 0x40 ADD PUSH1 0x40 MSTORE DUP1 PUSH1 0x1 DUP2 MSTORE PUSH1 0x20 ADD PUSH32 0x3000000000000000000000000000000000000000000000000000000000000000 DUP2 MSTORE POP SWAP1 POP PUSH2 0x149A JUMP JUMPDEST PUSH1 0x0 DUP3 SWAP1 POP PUSH1 0x0 JUMPDEST PUSH1 0x0 DUP3 EQ PUSH2 0x136C JUMPI DUP1 DUP1 PUSH2 0x1355 SWAP1 PUSH2 0x261D JUMP JUMPDEST SWAP2 POP POP PUSH1 0xA DUP3 PUSH2 0x1365 SWAP2 SWAP1 PUSH2 0x249F JUMP JUMPDEST SWAP2 POP PUSH2 0x1342 JUMP JUMPDEST PUSH1 0x0 DUP2 PUSH8 0xFFFFFFFFFFFFFFFF DUP2 GT ISZERO PUSH2 0x13AE JUMPI PUSH32 0x4E487B7100000000000000000000000000000000000000000000000000000000 PUSH1 0x0 MSTORE PUSH1 0x41 PUSH1 0x4 MSTORE PUSH1 0x24 PUSH1 0x0 REVERT JUMPDEST PUSH1 0x40 MLOAD SWAP1 DUP1 DUP3 MSTORE DUP1 PUSH1 0x1F ADD PUSH1 0x1F NOT AND PUSH1 0x20 ADD DUP3 ADD PUSH1 0x40 MSTORE DUP1 ISZERO PUSH2 0x13E0 JUMPI DUP2 PUSH1 0x20 ADD PUSH1 0x1 DUP3 MUL DUP1 CALLDATASIZE DUP4 CALLDATACOPY DUP1 DUP3 ADD SWAP2 POP POP SWAP1 POP JUMPDEST POP SWAP1 POP JUMPDEST PUSH1 0x0 DUP6 EQ PUSH2 0x1493 JUMPI PUSH1 0x1 DUP3 PUSH2 0x13F9 SWAP2 SWAP1 PUSH2 0x24D0 JUMP JUMPDEST SWAP2 POP PUSH1 0xA DUP6 PUSH2 0x1408 SWAP2 SWAP1 PUSH2 0x2666 JUMP JUMPDEST PUSH1 0x30 PUSH2 0x1414 SWAP2 SWAP1 PUSH2 0x2449 JUMP JUMPDEST PUSH1 0xF8 SHL DUP2 DUP4 DUP2 MLOAD DUP2 LT PUSH2 0x1450 JUMPI PUSH32 0x4E487B7100000000000000000000000000000000000000000000000000000000 PUSH1 0x0 MSTORE PUSH1 0x32 PUSH1 0x4 MSTORE PUSH1 0x24 PUSH1 0x0 REVERT JUMPDEST PUSH1 0x20 ADD ADD SWAP1 PUSH31 0xFFFFFFFFFFFFFFFFFFFFFFFFFFFFFFFFFFFFFFFFFFFFFFFFFFFFFFFFFFFFFF NOT AND SWAP1 DUP2 PUSH1 0x0 BYTE SWAP1 MSTORE8 POP PUSH1 0xA DUP6 PUSH2 0x148C SWAP2 SWAP1 PUSH2 0x249F JUMP JUMPDEST SWAP5 POP PUSH2 0x13E4 JUMP JUMPDEST DUP1 SWAP4 POP POP POP POP JUMPDEST SWAP2 SWAP1 POP JUMP JUMPDEST PUSH1 0x0 DUP1 PUSH20 0xFFFFFFFFFFFFFFFFFFFFFFFFFFFFFFFFFFFFFFFF AND PUSH1 0x2 PUSH1 0x0 DUP5 DUP2 MSTORE PUSH1 0x20 ADD SWAP1 DUP2 MSTORE PUSH1 0x20 ADD PUSH1 0x0 KECCAK256 PUSH1 0x0 SWAP1 SLOAD SWAP1 PUSH2 0x100 EXP SWAP1 DIV PUSH20 0xFFFFFFFFFFFFFFFFFFFFFFFFFFFFFFFFFFFFFFFF AND PUSH20 0xFFFFFFFFFFFFFFFFFFFFFFFFFFFFFFFFFFFFFFFF AND EQ ISZERO SWAP1 POP SWAP2 SWAP1 POP JUMP JUMPDEST POP POP POP JUMP JUMPDEST POP POP POP JUMP JUMPDEST PUSH2 0x1520 DUP5 DUP5 DUP5 PUSH2 0x1709 JUMP JUMPDEST PUSH2 0x152D PUSH1 0x0 DUP6 DUP5 DUP5 PUSH2 0x1572 JUMP JUMPDEST PUSH2 0x156C JUMPI PUSH1 0x40 MLOAD PUSH32 0x8C379A000000000000000000000000000000000000000000000000000000000 DUP2 MSTORE PUSH1 0x4 ADD PUSH2 0x1563 SWAP1 PUSH2 0x2204 JUMP JUMPDEST PUSH1 0x40 MLOAD DUP1 SWAP2 SUB SWAP1 REVERT JUMPDEST POP POP POP POP JUMP JUMPDEST PUSH1 0x0 PUSH2 0x1593 DUP5 PUSH20 0xFFFFFFFFFFFFFFFFFFFFFFFFFFFFFFFFFFFFFFFF AND PUSH2 0x19E6 JUMP JUMPDEST ISZERO PUSH2 0x16FC JUMPI DUP4 PUSH20 0xFFFFFFFFFFFFFFFFFFFFFFFFFFFFFFFFFFFFFFFF AND PUSH4 0x150B7A02 PUSH2 0x15BC PUSH2 0xC30 JUMP JUMPDEST DUP8 DUP7 DUP7 PUSH1 0x40 MLOAD DUP6 PUSH4 0xFFFFFFFF AND PUSH1 0xE0 SHL DUP2 MSTORE PUSH1 0x4 ADD PUSH2 0x15DE SWAP5 SWAP4 SWAP3 SWAP2 SWAP1 PUSH2 0x215B JUMP JUMPDEST PUSH1 0x20 PUSH1 0x40 MLOAD DUP1 DUP4 SUB DUP2 PUSH1 0x0 DUP8 DUP1 EXTCODESIZE ISZERO DUP1 ISZERO PUSH2 0x15F8 JUMPI PUSH1 0x0 DUP1 REVERT JUMPDEST POP GAS CALL SWAP3 POP POP POP DUP1 ISZERO PUSH2 0x1629 JUMPI POP PUSH1 0x40 MLOAD RETURNDATASIZE PUSH1 0x1F NOT PUSH1 0x1F DUP3 ADD AND DUP3 ADD DUP1 PUSH1 0x40 MSTORE POP DUP2 ADD SWAP1 PUSH2 0x1626 SWAP2 SWAP1 PUSH2 0x1E56 JUMP JUMPDEST PUSH1 0x1 JUMPDEST PUSH2 0x16AC JUMPI RETURNDATASIZE DUP1 PUSH1 0x0 DUP2 EQ PUSH2 0x1659 JUMPI PUSH1 0x40 MLOAD SWAP2 POP PUSH1 0x1F NOT PUSH1 0x3F RETURNDATASIZE ADD AND DUP3 ADD PUSH1 0x40 MSTORE RETURNDATASIZE DUP3 MSTORE RETURNDATASIZE PUSH1 0x0 PUSH1 0x20 DUP5 ADD RETURNDATACOPY PUSH2 0x165E JUMP JUMPDEST PUSH1 0x60 SWAP2 POP JUMPDEST POP PUSH1 0x0 DUP2 MLOAD EQ ISZERO PUSH2 0x16A4 JUMPI PUSH1 0x40 MLOAD PUSH32 0x8C379A000000000000000000000000000000000000000000000000000000000 DUP2 MSTORE PUSH1 0x4 ADD PUSH2 0x169B SWAP1 PUSH2 0x2204 JUMP JUMPDEST PUSH1 0x40 MLOAD DUP1 SWAP2 SUB SWAP1 REVERT JUMPDEST DUP1 MLOAD DUP2 PUSH1 0x20 ADD REVERT JUMPDEST PUSH4 0x150B7A02 PUSH1 0xE0 SHL PUSH28 0xFFFFFFFFFFFFFFFFFFFFFFFFFFFFFFFFFFFFFFFFFFFFFFFFFFFFFFFF NOT AND DUP2 PUSH28 0xFFFFFFFFFFFFFFFFFFFFFFFFFFFFFFFFFFFFFFFFFFFFFFFFFFFFFFFF NOT AND EQ SWAP2 POP POP PUSH2 0x1701 JUMP JUMPDEST PUSH1 0x1 SWAP1 POP JUMPDEST SWAP5 SWAP4 POP POP POP POP JUMP JUMPDEST PUSH1 0x0 PUSH20 0xFFFFFFFFFFFFFFFFFFFFFFFFFFFFFFFFFFFFFFFF AND DUP4 PUSH20 0xFFFFFFFFFFFFFFFFFFFFFFFFFFFFFFFFFFFFFFFF AND EQ ISZERO PUSH2 0x1779 JUMPI PUSH1 0x40 MLOAD PUSH32 0x8C379A000000000000000000000000000000000000000000000000000000000 DUP2 MSTORE PUSH1 0x4 ADD PUSH2 0x1770 SWAP1 PUSH2 0x22E4 JUMP JUMPDEST PUSH1 0x40 MLOAD DUP1 SWAP2 SUB SWAP1 REVERT JUMPDEST PUSH1 0x0 PUSH20 0xFFFFFFFFFFFFFFFFFFFFFFFFFFFFFFFFFFFFFFFF AND DUP3 PUSH20 0xFFFFFFFFFFFFFFFFFFFFFFFFFFFFFFFFFFFFFFFF AND EQ ISZERO PUSH2 0x17E9 JUMPI PUSH1 0x40 MLOAD PUSH32 0x8C379A000000000000000000000000000000000000000000000000000000000 DUP2 MSTORE PUSH1 0x4 ADD PUSH2 0x17E0 SWAP1 PUSH2 0x22E4 JUMP JUMPDEST PUSH1 0x40 MLOAD DUP1 SWAP2 SUB SWAP1 REVERT JUMPDEST PUSH2 0x17F2 DUP2 PUSH2 0x149F JUMP JUMPDEST ISZERO PUSH2 0x1832 JUMPI PUSH1 0x40 MLOAD PUSH32 0x8C379A000000000000000000000000000000000000000000000000000000000 DUP2 MSTORE PUSH1 0x4 ADD PUSH2 0x1829 SWAP1 PUSH2 0x2244 JUMP JUMPDEST PUSH1 0x40 MLOAD DUP1 SWAP2 SUB SWAP1 REVERT JUMPDEST PUSH2 0x183E PUSH1 0x0 DUP5 DUP4 PUSH2 0x150B JUMP JUMPDEST PUSH2 0x1847 DUP2 PUSH2 0x149F JUMP JUMPDEST ISZERO PUSH2 0x1887 JUMPI PUSH1 0x40 MLOAD PUSH32 0x8C379A000000000000000000000000000000000000000000000000000000000 DUP2 MSTORE PUSH1 0x4 ADD PUSH2 0x187E SWAP1 PUSH2 0x2244 JUMP JUMPDEST PUSH1 0x40 MLOAD DUP1 SWAP2 SUB SWAP1 REVERT JUMPDEST PUSH1 0x1 PUSH1 0x6 PUSH1 0x0 DUP6 PUSH20 0xFFFFFFFFFFFFFFFFFFFFFFFFFFFFFFFFFFFFFFFF AND PUSH20 0xFFFFFFFFFFFFFFFFFFFFFFFFFFFFFFFFFFFFFFFF AND DUP2 MSTORE PUSH1 0x20 ADD SWAP1 DUP2 MSTORE PUSH1 0x20 ADD PUSH1 0x0 KECCAK256 PUSH1 0x0 DUP3 DUP3 SLOAD ADD SWAP3 POP POP DUP2 SWAP1 SSTORE POP DUP3 PUSH1 0x2 PUSH1 0x0 DUP4 DUP2 MSTORE PUSH1 0x20 ADD SWAP1 DUP2 MSTORE PUSH1 0x20 ADD PUSH1 0x0 KECCAK256 PUSH1 0x0 PUSH2 0x100 EXP DUP2 SLOAD DUP2 PUSH20 0xFFFFFFFFFFFFFFFFFFFFFFFFFFFFFFFFFFFFFFFF MUL NOT AND SWAP1 DUP4 PUSH20 0xFFFFFFFFFFFFFFFFFFFFFFFFFFFFFFFFFFFFFFFF AND MUL OR SWAP1 SSTORE POP DUP2 PUSH1 0x4 PUSH1 0x0 DUP4 DUP2 MSTORE PUSH1 0x20 ADD SWAP1 DUP2 MSTORE PUSH1 0x20 ADD PUSH1 0x0 KECCAK256 PUSH1 0x0 PUSH2 0x100 EXP DUP2 SLOAD DUP2 PUSH20 0xFFFFFFFFFFFFFFFFFFFFFFFFFFFFFFFFFFFFFFFF MUL NOT AND SWAP1 DUP4 PUSH20 0xFFFFFFFFFFFFFFFFFFFFFFFFFFFFFFFFFFFFFFFF AND MUL OR SWAP1 SSTORE POP DUP1 DUP4 PUSH20 0xFFFFFFFFFFFFFFFFFFFFFFFFFFFFFFFFFFFFFFFF AND PUSH1 0x0 PUSH20 0xFFFFFFFFFFFFFFFFFFFFFFFFFFFFFFFFFFFFFFFF AND PUSH32 0xDDF252AD1BE2C89B69C2B068FC378DAA952BA7F163C4A11628F55A4DF523B3EF PUSH1 0x40 MLOAD PUSH1 0x40 MLOAD DUP1 SWAP2 SUB SWAP1 LOG4 PUSH2 0x19E1 PUSH1 0x0 DUP5 DUP4 PUSH2 0x1510 JUMP JUMPDEST POP POP POP JUMP JUMPDEST PUSH1 0x0 DUP1 DUP3 PUSH20 0xFFFFFFFFFFFFFFFFFFFFFFFFFFFFFFFFFFFFFFFF AND EXTCODESIZE GT SWAP1 POP SWAP2 SWAP1 POP JUMP JUMPDEST DUP3 DUP1 SLOAD PUSH2 0x1A15 SWAP1 PUSH2 0x25BA JUMP JUMPDEST SWAP1 PUSH1 0x0 MSTORE PUSH1 0x20 PUSH1 0x0 KECCAK256 SWAP1 PUSH1 0x1F ADD PUSH1 0x20 SWAP1 DIV DUP2 ADD SWAP3 DUP3 PUSH2 0x1A37 JUMPI PUSH1 0x0 DUP6 SSTORE PUSH2 0x1A7E JUMP JUMPDEST DUP3 PUSH1 0x1F LT PUSH2 0x1A50 JUMPI DUP1 MLOAD PUSH1 0xFF NOT AND DUP4 DUP1 ADD OR DUP6 SSTORE PUSH2 0x1A7E JUMP JUMPDEST DUP3 DUP1 ADD PUSH1 0x1 ADD DUP6 SSTORE DUP3 ISZERO PUSH2 0x1A7E JUMPI SWAP2 DUP3 ADD JUMPDEST DUP3 DUP2 GT ISZERO PUSH2 0x1A7D JUMPI DUP3 MLOAD DUP3 SSTORE SWAP2 PUSH1 0x20 ADD SWAP2 SWAP1 PUSH1 0x1 ADD SWAP1 PUSH2 0x1A62 JUMP JUMPDEST JUMPDEST POP SWAP1 POP PUSH2 0x1A8B SWAP2 SWAP1 PUSH2 0x1A8F JUMP JUMPDEST POP SWAP1 JUMP JUMPDEST JUMPDEST DUP1 DUP3 GT ISZERO PUSH2 0x1AA8 JUMPI PUSH1 0x0 DUP2 PUSH1 0x0 SWAP1 SSTORE POP PUSH1 0x1 ADD PUSH2 0x1A90 JUMP JUMPDEST POP SWAP1 JUMP JUMPDEST PUSH1 0x0 PUSH2 0x1ABF PUSH2 0x1ABA DUP5 PUSH2 0x23A4 JUMP JUMPDEST PUSH2 0x237F JUMP JUMPDEST SWAP1 POP DUP3 DUP2 MSTORE PUSH1 0x20 DUP2 ADD DUP5 DUP5 DUP5 ADD GT ISZERO PUSH2 0x1AD7 JUMPI PUSH1 0x0 DUP1 REVERT JUMPDEST PUSH2 0x1AE2 DUP5 DUP3 DUP6 PUSH2 0x2578 JUMP JUMPDEST POP SWAP4 SWAP3 POP POP POP JUMP JUMPDEST PUSH1 0x0 PUSH2 0x1AFD PUSH2 0x1AF8 DUP5 PUSH2 0x23D5 JUMP JUMPDEST PUSH2 0x237F JUMP JUMPDEST SWAP1 POP DUP3 DUP2 MSTORE PUSH1 0x20 DUP2 ADD DUP5 DUP5 DUP5 ADD GT ISZERO PUSH2 0x1B15 JUMPI PUSH1 0x0 DUP1 REVERT JUMPDEST PUSH2 0x1B20 DUP5 DUP3 DUP6 PUSH2 0x2578 JUMP JUMPDEST POP SWAP4 SWAP3 POP POP POP JUMP JUMPDEST PUSH1 0x0 DUP2 CALLDATALOAD SWAP1 POP PUSH2 0x1B37 DUP2 PUSH2 0x2A80 JUMP JUMPDEST SWAP3 SWAP2 POP POP JUMP JUMPDEST PUSH1 0x0 DUP2 CALLDATALOAD SWAP1 POP PUSH2 0x1B4C DUP2 PUSH2 0x2A97 JUMP JUMPDEST SWAP3 SWAP2 POP POP JUMP JUMPDEST PUSH1 0x0 DUP2 CALLDATALOAD SWAP1 POP PUSH2 0x1B61 DUP2 PUSH2 0x2AAE JUMP JUMPDEST SWAP3 SWAP2 POP POP JUMP JUMPDEST PUSH1 0x0 DUP2 MLOAD SWAP1 POP PUSH2 0x1B76 DUP2 PUSH2 0x2AAE JUMP JUMPDEST SWAP3 SWAP2 POP POP JUMP JUMPDEST PUSH1 0x0 DUP3 PUSH1 0x1F DUP4 ADD SLT PUSH2 0x1B8D JUMPI PUSH1 0x0 DUP1 REVERT JUMPDEST DUP2 CALLDATALOAD PUSH2 0x1B9D DUP5 DUP3 PUSH1 0x20 DUP7 ADD PUSH2 0x1AAC JUMP JUMPDEST SWAP2 POP POP SWAP3 SWAP2 POP POP JUMP JUMPDEST PUSH1 0x0 DUP3 PUSH1 0x1F DUP4 ADD SLT PUSH2 0x1BB7 JUMPI PUSH1 0x0 DUP1 REVERT JUMPDEST DUP2 CALLDATALOAD PUSH2 0x1BC7 DUP5 DUP3 PUSH1 0x20 DUP7 ADD PUSH2 0x1AEA JUMP JUMPDEST SWAP2 POP POP SWAP3 SWAP2 POP POP JUMP JUMPDEST PUSH1 0x0 DUP2 CALLDATALOAD SWAP1 POP PUSH2 0x1BDF DUP2 PUSH2 0x2AC5 JUMP JUMPDEST SWAP3 SWAP2 POP POP JUMP JUMPDEST PUSH1 0x0 PUSH1 0x20 DUP3 DUP5 SUB SLT ISZERO PUSH2 0x1BF7 JUMPI PUSH1 0x0 DUP1 REVERT JUMPDEST PUSH1 0x0 PUSH2 0x1C05 DUP5 DUP3 DUP6 ADD PUSH2 0x1B28 JUMP JUMPDEST SWAP2 POP POP SWAP3 SWAP2 POP POP JUMP JUMPDEST PUSH1 0x0 DUP1 PUSH1 0x40 DUP4 DUP6 SUB SLT ISZERO PUSH2 0x1C21 JUMPI PUSH1 0x0 DUP1 REVERT JUMPDEST PUSH1 0x0 PUSH2 0x1C2F DUP6 DUP3 DUP7 ADD PUSH2 0x1B28 JUMP JUMPDEST SWAP3 POP POP PUSH1 0x20 PUSH2 0x1C40 DUP6 DUP3 DUP7 ADD PUSH2 0x1B28 JUMP JUMPDEST SWAP2 POP POP SWAP3 POP SWAP3 SWAP1 POP JUMP JUMPDEST PUSH1 0x0 DUP1 PUSH1 0x0 PUSH1 0x60 DUP5 DUP7 SUB SLT ISZERO PUSH2 0x1C5F JUMPI PUSH1 0x0 DUP1 REVERT JUMPDEST PUSH1 0x0 PUSH2 0x1C6D DUP7 DUP3 DUP8 ADD PUSH2 0x1B28 JUMP JUMPDEST SWAP4 POP POP PUSH1 0x20 PUSH2 0x1C7E DUP7 DUP3 DUP8 ADD PUSH2 0x1B28 JUMP JUMPDEST SWAP3 POP POP PUSH1 0x40 PUSH2 0x1C8F DUP7 DUP3 DUP8 ADD PUSH2 0x1BD0 JUMP JUMPDEST SWAP2 POP POP SWAP3 POP SWAP3 POP SWAP3 JUMP JUMPDEST PUSH1 0x0 DUP1 PUSH1 0x0 DUP1 PUSH1 0x80 DUP6 DUP8 SUB SLT ISZERO PUSH2 0x1CAF JUMPI PUSH1 0x0 DUP1 REVERT JUMPDEST PUSH1 0x0 PUSH2 0x1CBD DUP8 DUP3 DUP9 ADD PUSH2 0x1B28 JUMP JUMPDEST SWAP5 POP POP PUSH1 0x20 PUSH2 0x1CCE DUP8 DUP3 DUP9 ADD PUSH2 0x1B28 JUMP JUMPDEST SWAP4 POP POP PUSH1 0x40 PUSH2 0x1CDF DUP8 DUP3 DUP9 ADD PUSH2 0x1BD0 JUMP JUMPDEST SWAP3 POP POP PUSH1 0x60 DUP6 ADD CALLDATALOAD PUSH8 0xFFFFFFFFFFFFFFFF DUP2 GT ISZERO PUSH2 0x1CFC JUMPI PUSH1 0x0 DUP1 REVERT JUMPDEST PUSH2 0x1D08 DUP8 DUP3 DUP9 ADD PUSH2 0x1B7C JUMP JUMPDEST SWAP2 POP POP SWAP3 SWAP6 SWAP2 SWAP5 POP SWAP3 POP JUMP JUMPDEST PUSH1 0x0 DUP1 PUSH1 0x40 DUP4 DUP6 SUB SLT ISZERO PUSH2 0x1D27 JUMPI PUSH1 0x0 DUP1 REVERT JUMPDEST PUSH1 0x0 PUSH2 0x1D35 DUP6 DUP3 DUP7 ADD PUSH2 0x1B28 JUMP JUMPDEST SWAP3 POP POP PUSH1 0x20 PUSH2 0x1D46 DUP6 DUP3 DUP7 ADD PUSH2 0x1B3D JUMP JUMPDEST SWAP2 POP POP SWAP3 POP SWAP3 SWAP1 POP JUMP JUMPDEST PUSH1 0x0 DUP1 PUSH1 0x40 DUP4 DUP6 SUB SLT ISZERO PUSH2 0x1D63 JUMPI PUSH1 0x0 DUP1 REVERT JUMPDEST PUSH1 0x0 PUSH2 0x1D71 DUP6 DUP3 DUP7 ADD PUSH2 0x1B28 JUMP JUMPDEST SWAP3 POP POP PUSH1 0x20 PUSH2 0x1D82 DUP6 DUP3 DUP7 ADD PUSH2 0x1BD0 JUMP JUMPDEST SWAP2 POP POP SWAP3 POP SWAP3 SWAP1 POP JUMP JUMPDEST PUSH1 0x0 DUP1 PUSH1 0x0 DUP1 PUSH1 0x0 DUP1 PUSH1 0xC0 DUP8 DUP10 SUB SLT ISZERO PUSH2 0x1DA5 JUMPI PUSH1 0x0 DUP1 REVERT JUMPDEST PUSH1 0x0 PUSH2 0x1DB3 DUP10 DUP3 DUP11 ADD PUSH2 0x1B28 JUMP JUMPDEST SWAP7 POP POP PUSH1 0x20 PUSH2 0x1DC4 DUP10 DUP3 DUP11 ADD PUSH2 0x1BD0 JUMP JUMPDEST SWAP6 POP POP PUSH1 0x40 PUSH2 0x1DD5 DUP10 DUP3 DUP11 ADD PUSH2 0x1B28 JUMP JUMPDEST SWAP5 POP POP PUSH1 0x60 PUSH2 0x1DE6 DUP10 DUP3 DUP11 ADD PUSH2 0x1BD0 JUMP JUMPDEST SWAP4 POP POP PUSH1 0x80 PUSH2 0x1DF7 DUP10 DUP3 DUP11 ADD PUSH2 0x1BD0 JUMP JUMPDEST SWAP3 POP POP PUSH1 0xA0 DUP8 ADD CALLDATALOAD PUSH8 0xFFFFFFFFFFFFFFFF DUP2 GT ISZERO PUSH2 0x1E14 JUMPI PUSH1 0x0 DUP1 REVERT JUMPDEST PUSH2 0x1E20 DUP10 DUP3 DUP11 ADD PUSH2 0x1BA6 JUMP JUMPDEST SWAP2 POP POP SWAP3 SWAP6 POP SWAP3 SWAP6 POP SWAP3 SWAP6 JUMP JUMPDEST PUSH1 0x0 PUSH1 0x20 DUP3 DUP5 SUB SLT ISZERO PUSH2 0x1E3F JUMPI PUSH1 0x0 DUP1 REVERT JUMPDEST PUSH1 0x0 PUSH2 0x1E4D DUP5 DUP3 DUP6 ADD PUSH2 0x1B52 JUMP JUMPDEST SWAP2 POP POP SWAP3 SWAP2 POP POP JUMP JUMPDEST PUSH1 0x0 PUSH1 0x20 DUP3 DUP5 SUB SLT ISZERO PUSH2 0x1E68 JUMPI PUSH1 0x0 DUP1 REVERT JUMPDEST PUSH1 0x0 PUSH2 0x1E76 DUP5 DUP3 DUP6 ADD PUSH2 0x1B67 JUMP JUMPDEST SWAP2 POP POP SWAP3 SWAP2 POP POP JUMP JUMPDEST PUSH1 0x0 PUSH1 0x20 DUP3 DUP5 SUB SLT ISZERO PUSH2 0x1E91 JUMPI PUSH1 0x0 DUP1 REVERT JUMPDEST PUSH1 0x0 PUSH2 0x1E9F DUP5 DUP3 DUP6 ADD PUSH2 0x1BD0 JUMP JUMPDEST SWAP2 POP POP SWAP3 SWAP2 POP POP JUMP JUMPDEST PUSH2 0x1EB1 DUP2 PUSH2 0x2504 JUMP JUMPDEST DUP3 MSTORE POP POP JUMP JUMPDEST PUSH2 0x1EC0 DUP2 PUSH2 0x2516 JUMP JUMPDEST DUP3 MSTORE POP POP JUMP JUMPDEST PUSH1 0x0 PUSH2 0x1ED1 DUP3 PUSH2 0x2406 JUMP JUMPDEST PUSH2 0x1EDB DUP2 DUP6 PUSH2 0x241C JUMP JUMPDEST SWAP4 POP PUSH2 0x1EEB DUP2 DUP6 PUSH1 0x20 DUP7 ADD PUSH2 0x2587 JUMP JUMPDEST PUSH2 0x1EF4 DUP2 PUSH2 0x2753 JUMP JUMPDEST DUP5 ADD SWAP2 POP POP SWAP3 SWAP2 POP POP JUMP JUMPDEST PUSH1 0x0 PUSH2 0x1F0A DUP3 PUSH2 0x2411 JUMP JUMPDEST PUSH2 0x1F14 DUP2 DUP6 PUSH2 0x242D JUMP JUMPDEST SWAP4 POP PUSH2 0x1F24 DUP2 DUP6 PUSH1 0x20 DUP7 ADD PUSH2 0x2587 JUMP JUMPDEST PUSH2 0x1F2D DUP2 PUSH2 0x2753 JUMP JUMPDEST DUP5 ADD SWAP2 POP POP SWAP3 SWAP2 POP POP JUMP JUMPDEST PUSH1 0x0 PUSH2 0x1F43 DUP3 PUSH2 0x2411 JUMP JUMPDEST PUSH2 0x1F4D DUP2 DUP6 PUSH2 0x243E JUMP JUMPDEST SWAP4 POP PUSH2 0x1F5D DUP2 DUP6 PUSH1 0x20 DUP7 ADD PUSH2 0x2587 JUMP JUMPDEST DUP1 DUP5 ADD SWAP2 POP POP SWAP3 SWAP2 POP POP JUMP JUMPDEST PUSH1 0x0 PUSH2 0x1F76 PUSH1 0x2D DUP4 PUSH2 0x242D JUMP JUMPDEST SWAP2 POP PUSH2 0x1F81 DUP3 PUSH2 0x2764 JUMP JUMPDEST PUSH1 0x40 DUP3 ADD SWAP1 POP SWAP2 SWAP1 POP JUMP JUMPDEST PUSH1 0x0 PUSH2 0x1F99 PUSH1 0x32 DUP4 PUSH2 0x242D JUMP JUMPDEST SWAP2 POP PUSH2 0x1FA4 DUP3 PUSH2 0x27B3 JUMP JUMPDEST PUSH1 0x40 DUP3 ADD SWAP1 POP SWAP2 SWAP1 POP JUMP JUMPDEST PUSH1 0x0 PUSH2 0x1FBC PUSH1 0x25 DUP4 PUSH2 0x242D JUMP JUMPDEST SWAP2 POP PUSH2 0x1FC7 DUP3 PUSH2 0x2802 JUMP JUMPDEST PUSH1 0x40 DUP3 ADD SWAP1 POP SWAP2 SWAP1 POP JUMP JUMPDEST PUSH1 0x0 PUSH2 0x1FDF PUSH1 0x1C DUP4 PUSH2 0x242D JUMP JUMPDEST SWAP2 POP PUSH2 0x1FEA DUP3 PUSH2 0x2851 JUMP JUMPDEST PUSH1 0x20 DUP3 ADD SWAP1 POP SWAP2 SWAP1 POP JUMP JUMPDEST PUSH1 0x0 PUSH2 0x2002 PUSH1 0x24 DUP4 PUSH2 0x242D JUMP JUMPDEST SWAP2 POP PUSH2 0x200D DUP3 PUSH2 0x287A JUMP JUMPDEST PUSH1 0x40 DUP3 ADD SWAP1 POP SWAP2 SWAP1 POP JUMP JUMPDEST PUSH1 0x0 PUSH2 0x2025 PUSH1 0x19 DUP4 PUSH2 0x242D JUMP JUMPDEST SWAP2 POP PUSH2 0x2030 DUP3 PUSH2 0x28C9 JUMP JUMPDEST PUSH1 0x20 DUP3 ADD SWAP1 POP SWAP2 SWAP1 POP JUMP JUMPDEST PUSH1 0x0 PUSH2 0x2048 PUSH1 0x29 DUP4 PUSH2 0x242D JUMP JUMPDEST SWAP2 POP PUSH2 0x2053 DUP3 PUSH2 0x28F2 JUMP JUMPDEST PUSH1 0x40 DUP3 ADD SWAP1 POP SWAP2 SWAP1 POP JUMP JUMPDEST PUSH1 0x0 PUSH2 0x206B PUSH1 0x2E DUP4 PUSH2 0x242D JUMP JUMPDEST SWAP2 POP PUSH2 0x2076 DUP3 PUSH2 0x2941 JUMP JUMPDEST PUSH1 0x40 DUP3 ADD SWAP1 POP SWAP2 SWAP1 POP JUMP JUMPDEST PUSH1 0x0 PUSH2 0x208E PUSH1 0x20 DUP4 PUSH2 0x242D JUMP JUMPDEST SWAP2 POP PUSH2 0x2099 DUP3 PUSH2 0x2990 JUMP JUMPDEST PUSH1 0x20 DUP3 ADD SWAP1 POP SWAP2 SWAP1 POP JUMP JUMPDEST PUSH1 0x0 PUSH2 0x20B1 PUSH1 0x18 DUP4 PUSH2 0x242D JUMP JUMPDEST SWAP2 POP PUSH2 0x20BC DUP3 PUSH2 0x29B9 JUMP JUMPDEST PUSH1 0x20 DUP3 ADD SWAP1 POP SWAP2 SWAP1 POP JUMP JUMPDEST PUSH1 0x0 PUSH2 0x20D4 PUSH1 0x21 DUP4 PUSH2 0x242D JUMP JUMPDEST SWAP2 POP PUSH2 0x20DF DUP3 PUSH2 0x29E2 JUMP JUMPDEST PUSH1 0x40 DUP3 ADD SWAP1 POP SWAP2 SWAP1 POP JUMP JUMPDEST PUSH1 0x0 PUSH2 0x20F7 PUSH1 0x3D DUP4 PUSH2 0x242D JUMP JUMPDEST SWAP2 POP PUSH2 0x2102 DUP3 PUSH2 0x2A31 JUMP JUMPDEST PUSH1 0x40 DUP3 ADD SWAP1 POP SWAP2 SWAP1 POP JUMP JUMPDEST PUSH2 0x2116 DUP2 PUSH2 0x256E JUMP JUMPDEST DUP3 MSTORE POP POP JUMP JUMPDEST PUSH1 0x0 PUSH2 0x2128 DUP3 DUP6 PUSH2 0x1F38 JUMP JUMPDEST SWAP2 POP PUSH2 0x2134 DUP3 DUP5 PUSH2 0x1F38 JUMP JUMPDEST SWAP2 POP DUP2 SWAP1 POP SWAP4 SWAP3 POP POP POP JUMP JUMPDEST PUSH1 0x0 PUSH1 0x20 DUP3 ADD SWAP1 POP PUSH2 0x2155 PUSH1 0x0 DUP4 ADD DUP5 PUSH2 0x1EA8 JUMP JUMPDEST SWAP3 SWAP2 POP POP JUMP JUMPDEST PUSH1 0x0 PUSH1 0x80 DUP3 ADD SWAP1 POP PUSH2 0x2170 PUSH1 0x0 DUP4 ADD DUP8 PUSH2 0x1EA8 JUMP JUMPDEST PUSH2 0x217D PUSH1 0x20 DUP4 ADD DUP7 PUSH2 0x1EA8 JUMP JUMPDEST PUSH2 0x218A PUSH1 0x40 DUP4 ADD DUP6 PUSH2 0x210D JUMP JUMPDEST DUP2 DUP2 SUB PUSH1 0x60 DUP4 ADD MSTORE PUSH2 0x219C DUP2 DUP5 PUSH2 0x1EC6 JUMP JUMPDEST SWAP1 POP SWAP6 SWAP5 POP POP POP POP POP JUMP JUMPDEST PUSH1 0x0 PUSH1 0x20 DUP3 ADD SWAP1 POP PUSH2 0x21BC PUSH1 0x0 DUP4 ADD DUP5 PUSH2 0x1EB7 JUMP JUMPDEST SWAP3 SWAP2 POP POP JUMP JUMPDEST PUSH1 0x0 PUSH1 0x20 DUP3 ADD SWAP1 POP DUP2 DUP2 SUB PUSH1 0x0 DUP4 ADD MSTORE PUSH2 0x21DC DUP2 DUP5 PUSH2 0x1EFF JUMP JUMPDEST SWAP1 POP SWAP3 SWAP2 POP POP JUMP JUMPDEST PUSH1 0x0 PUSH1 0x20 DUP3 ADD SWAP1 POP DUP2 DUP2 SUB PUSH1 0x0 DUP4 ADD MSTORE PUSH2 0x21FD DUP2 PUSH2 0x1F69 JUMP JUMPDEST SWAP1 POP SWAP2 SWAP1 POP JUMP JUMPDEST PUSH1 0x0 PUSH1 0x20 DUP3 ADD SWAP1 POP DUP2 DUP2 SUB PUSH1 0x0 DUP4 ADD MSTORE PUSH2 0x221D DUP2 PUSH2 0x1F8C JUMP JUMPDEST SWAP1 POP SWAP2 SWAP1 POP JUMP JUMPDEST PUSH1 0x0 PUSH1 0x20 DUP3 ADD SWAP1 POP DUP2 DUP2 SUB PUSH1 0x0 DUP4 ADD MSTORE PUSH2 0x223D DUP2 PUSH2 0x1FAF JUMP JUMPDEST SWAP1 POP SWAP2 SWAP1 POP JUMP JUMPDEST PUSH1 0x0 PUSH1 0x20 DUP3 ADD SWAP1 POP DUP2 DUP2 SUB PUSH1 0x0 DUP4 ADD MSTORE PUSH2 0x225D DUP2 PUSH2 0x1FD2 JUMP JUMPDEST SWAP1 POP SWAP2 SWAP1 POP JUMP JUMPDEST PUSH1 0x0 PUSH1 0x20 DUP3 ADD SWAP1 POP DUP2 DUP2 SUB PUSH1 0x0 DUP4 ADD MSTORE PUSH2 0x227D DUP2 PUSH2 0x1FF5 JUMP JUMPDEST SWAP1 POP SWAP2 SWAP1 POP JUMP JUMPDEST PUSH1 0x0 PUSH1 0x20 DUP3 ADD SWAP1 POP DUP2 DUP2 SUB PUSH1 0x0 DUP4 ADD MSTORE PUSH2 0x229D DUP2 PUSH2 0x2018 JUMP JUMPDEST SWAP1 POP SWAP2 SWAP1 POP JUMP JUMPDEST PUSH1 0x0 PUSH1 0x20 DUP3 ADD SWAP1 POP DUP2 DUP2 SUB PUSH1 0x0 DUP4 ADD MSTORE PUSH2 0x22BD DUP2 PUSH2 0x203B JUMP JUMPDEST SWAP1 POP SWAP2 SWAP1 POP JUMP JUMPDEST PUSH1 0x0 PUSH1 0x20 DUP3 ADD SWAP1 POP DUP2 DUP2 SUB PUSH1 0x0 DUP4 ADD MSTORE PUSH2 0x22DD DUP2 PUSH2 0x205E JUMP JUMPDEST SWAP1 POP SWAP2 SWAP1 POP JUMP JUMPDEST PUSH1 0x0 PUSH1 0x20 DUP3 ADD SWAP1 POP DUP2 DUP2 SUB PUSH1 0x0 DUP4 ADD MSTORE PUSH2 0x22FD DUP2 PUSH2 0x2081 JUMP JUMPDEST SWAP1 POP SWAP2 SWAP1 POP JUMP JUMPDEST PUSH1 0x0 PUSH1 0x20 DUP3 ADD SWAP1 POP DUP2 DUP2 SUB PUSH1 0x0 DUP4 ADD MSTORE PUSH2 0x231D DUP2 PUSH2 0x20A4 JUMP JUMPDEST SWAP1 POP SWAP2 SWAP1 POP JUMP JUMPDEST PUSH1 0x0 PUSH1 0x20 DUP3 ADD SWAP1 POP DUP2 DUP2 SUB PUSH1 0x0 DUP4 ADD MSTORE PUSH2 0x233D DUP2 PUSH2 0x20C7 JUMP JUMPDEST SWAP1 POP SWAP2 SWAP1 POP JUMP JUMPDEST PUSH1 0x0 PUSH1 0x20 DUP3 ADD SWAP1 POP DUP2 DUP2 SUB PUSH1 0x0 DUP4 ADD MSTORE PUSH2 0x235D DUP2 PUSH2 0x20EA JUMP JUMPDEST SWAP1 POP SWAP2 SWAP1 POP JUMP JUMPDEST PUSH1 0x0 PUSH1 0x20 DUP3 ADD SWAP1 POP PUSH2 0x2379 PUSH1 0x0 DUP4 ADD DUP5 PUSH2 0x210D JUMP JUMPDEST SWAP3 SWAP2 POP POP JUMP JUMPDEST PUSH1 0x0 PUSH2 0x2389 PUSH2 0x239A JUMP JUMPDEST SWAP1 POP PUSH2 0x2395 DUP3 DUP3 PUSH2 0x25EC JUMP JUMPDEST SWAP2 SWAP1 POP JUMP JUMPDEST PUSH1 0x0 PUSH1 0x40 MLOAD SWAP1 POP SWAP1 JUMP JUMPDEST PUSH1 0x0 PUSH8 0xFFFFFFFFFFFFFFFF DUP3 GT ISZERO PUSH2 0x23BF JUMPI PUSH2 0x23BE PUSH2 0x2724 JUMP JUMPDEST JUMPDEST PUSH2 0x23C8 DUP3 PUSH2 0x2753 JUMP JUMPDEST SWAP1 POP PUSH1 0x20 DUP2 ADD SWAP1 POP SWAP2 SWAP1 POP JUMP JUMPDEST PUSH1 0x0 PUSH8 0xFFFFFFFFFFFFFFFF DUP3 GT ISZERO PUSH2 0x23F0 JUMPI PUSH2 0x23EF PUSH2 0x2724 JUMP JUMPDEST JUMPDEST PUSH2 0x23F9 DUP3 PUSH2 0x2753 JUMP JUMPDEST SWAP1 POP PUSH1 0x20 DUP2 ADD SWAP1 POP SWAP2 SWAP1 POP JUMP JUMPDEST PUSH1 0x0 DUP2 MLOAD SWAP1 POP SWAP2 SWAP1 POP JUMP JUMPDEST PUSH1 0x0 DUP2 MLOAD SWAP1 POP SWAP2 SWAP1 POP JUMP JUMPDEST PUSH1 0x0 DUP3 DUP3 MSTORE PUSH1 0x20 DUP3 ADD SWAP1 POP SWAP3 SWAP2 POP POP JUMP JUMPDEST PUSH1 0x0 DUP3 DUP3 MSTORE PUSH1 0x20 DUP3 ADD SWAP1 POP SWAP3 SWAP2 POP POP JUMP JUMPDEST PUSH1 0x0 DUP2 SWAP1 POP SWAP3 SWAP2 POP POP JUMP JUMPDEST PUSH1 0x0 PUSH2 0x2454 DUP3 PUSH2 0x256E JUMP JUMPDEST SWAP2 POP PUSH2 0x245F DUP4 PUSH2 0x256E JUMP JUMPDEST SWAP3 POP DUP3 PUSH32 0xFFFFFFFFFFFFFFFFFFFFFFFFFFFFFFFFFFFFFFFFFFFFFFFFFFFFFFFFFFFFFFFF SUB DUP3 GT ISZERO PUSH2 0x2494 JUMPI PUSH2 0x2493 PUSH2 0x2697 JUMP JUMPDEST JUMPDEST DUP3 DUP3 ADD SWAP1 POP SWAP3 SWAP2 POP POP JUMP JUMPDEST PUSH1 0x0 PUSH2 0x24AA DUP3 PUSH2 0x256E JUMP JUMPDEST SWAP2 POP PUSH2 0x24B5 DUP4 PUSH2 0x256E JUMP JUMPDEST SWAP3 POP DUP3 PUSH2 0x24C5 JUMPI PUSH2 0x24C4 PUSH2 0x26C6 JUMP JUMPDEST JUMPDEST DUP3 DUP3 DIV SWAP1 POP SWAP3 SWAP2 POP POP JUMP JUMPDEST PUSH1 0x0 PUSH2 0x24DB DUP3 PUSH2 0x256E JUMP JUMPDEST SWAP2 POP PUSH2 0x24E6 DUP4 PUSH2 0x256E JUMP JUMPDEST SWAP3 POP DUP3 DUP3 LT ISZERO PUSH2 0x24F9 JUMPI PUSH2 0x24F8 PUSH2 0x2697 JUMP JUMPDEST JUMPDEST DUP3 DUP3 SUB SWAP1 POP SWAP3 SWAP2 POP POP JUMP JUMPDEST PUSH1 0x0 PUSH2 0x250F DUP3 PUSH2 0x254E JUMP JUMPDEST SWAP1 POP SWAP2 SWAP1 POP JUMP JUMPDEST PUSH1 0x0 DUP2 ISZERO ISZERO SWAP1 POP SWAP2 SWAP1 POP JUMP JUMPDEST PUSH1 0x0 PUSH32 0xFFFFFFFF00000000000000000000000000000000000000000000000000000000 DUP3 AND SWAP1 POP SWAP2 SWAP1 POP JUMP JUMPDEST PUSH1 0x0 PUSH20 0xFFFFFFFFFFFFFFFFFFFFFFFFFFFFFFFFFFFFFFFF DUP3 AND SWAP1 POP SWAP2 SWAP1 POP JUMP JUMPDEST PUSH1 0x0 DUP2 SWAP1 POP SWAP2 SWAP1 POP JUMP JUMPDEST DUP3 DUP2 DUP4 CALLDATACOPY PUSH1 0x0 DUP4 DUP4 ADD MSTORE POP POP POP JUMP JUMPDEST PUSH1 0x0 JUMPDEST DUP4 DUP2 LT ISZERO PUSH2 0x25A5 JUMPI DUP1 DUP3 ADD MLOAD DUP2 DUP5 ADD MSTORE PUSH1 0x20 DUP2 ADD SWAP1 POP PUSH2 0x258A JUMP JUMPDEST DUP4 DUP2 GT ISZERO PUSH2 0x25B4 JUMPI PUSH1 0x0 DUP5 DUP5 ADD MSTORE JUMPDEST POP POP POP POP JUMP JUMPDEST PUSH1 0x0 PUSH1 0x2 DUP3 DIV SWAP1 POP PUSH1 0x1 DUP3 AND DUP1 PUSH2 0x25D2 JUMPI PUSH1 0x7F DUP3 AND SWAP2 POP JUMPDEST PUSH1 0x20 DUP3 LT DUP2 EQ ISZERO PUSH2 0x25E6 JUMPI PUSH2 0x25E5 PUSH2 0x26F5 JUMP JUMPDEST JUMPDEST POP SWAP2 SWAP1 POP JUMP JUMPDEST PUSH2 0x25F5 DUP3 PUSH2 0x2753 JUMP JUMPDEST DUP2 ADD DUP2 DUP2 LT PUSH8 0xFFFFFFFFFFFFFFFF DUP3 GT OR ISZERO PUSH2 0x2614 JUMPI PUSH2 0x2613 PUSH2 0x2724 JUMP JUMPDEST JUMPDEST DUP1 PUSH1 0x40 MSTORE POP POP POP JUMP JUMPDEST PUSH1 0x0 PUSH2 0x2628 DUP3 PUSH2 0x256E JUMP JUMPDEST SWAP2 POP PUSH32 0xFFFFFFFFFFFFFFFFFFFFFFFFFFFFFFFFFFFFFFFFFFFFFFFFFFFFFFFFFFFFFFFF DUP3 EQ ISZERO PUSH2 0x265B JUMPI PUSH2 0x265A PUSH2 0x2697 JUMP JUMPDEST JUMPDEST PUSH1 0x1 DUP3 ADD SWAP1 POP SWAP2 SWAP1 POP JUMP JUMPDEST PUSH1 0x0 PUSH2 0x2671 DUP3 PUSH2 0x256E JUMP JUMPDEST SWAP2 POP PUSH2 0x267C DUP4 PUSH2 0x256E JUMP JUMPDEST SWAP3 POP DUP3 PUSH2 0x268C JUMPI PUSH2 0x268B PUSH2 0x26C6 JUMP JUMPDEST JUMPDEST DUP3 DUP3 MOD SWAP1 POP SWAP3 SWAP2 POP POP JUMP JUMPDEST PUSH32 0x4E487B7100000000000000000000000000000000000000000000000000000000 PUSH1 0x0 MSTORE PUSH1 0x11 PUSH1 0x4 MSTORE PUSH1 0x24 PUSH1 0x0 REVERT JUMPDEST PUSH32 0x4E487B7100000000000000000000000000000000000000000000000000000000 PUSH1 0x0 MSTORE PUSH1 0x12 PUSH1 0x4 MSTORE PUSH1 0x24 PUSH1 0x0 REVERT JUMPDEST PUSH32 0x4E487B7100000000000000000000000000000000000000000000000000000000 PUSH1 0x0 MSTORE PUSH1 0x22 PUSH1 0x4 MSTORE PUSH1 0x24 PUSH1 0x0 REVERT JUMPDEST PUSH32 0x4E487B7100000000000000000000000000000000000000000000000000000000 PUSH1 0x0 MSTORE PUSH1 0x41 PUSH1 0x4 MSTORE PUSH1 0x24 PUSH1 0x0 REVERT JUMPDEST PUSH1 0x0 PUSH1 0x1F NOT PUSH1 0x1F DUP4 ADD AND SWAP1 POP SWAP2 SWAP1 POP JUMP JUMPDEST PUSH32 0x4552433732313A2063616C6C6572206973206E6F7420746F6B656E206F776E65 PUSH1 0x0 DUP3 ADD MSTORE PUSH32 0x72206F7220617070726F76656400000000000000000000000000000000000000 PUSH1 0x20 DUP3 ADD MSTORE POP JUMP JUMPDEST PUSH32 0x4552433732313A207472616E7366657220746F206E6F6E204552433732315265 PUSH1 0x0 DUP3 ADD MSTORE PUSH32 0x63656976657220696D706C656D656E7465720000000000000000000000000000 PUSH1 0x20 DUP3 ADD MSTORE POP JUMP JUMPDEST PUSH32 0x4552433732313A207472616E736665722066726F6D20696E636F727265637420 PUSH1 0x0 DUP3 ADD MSTORE PUSH32 0x6F776E6572000000000000000000000000000000000000000000000000000000 PUSH1 0x20 DUP3 ADD MSTORE POP JUMP JUMPDEST PUSH32 0x4552433732313A20746F6B656E20616C7265616479206D696E74656400000000 PUSH1 0x0 DUP3 ADD MSTORE POP JUMP JUMPDEST PUSH32 0x4552433732313A207472616E7366657220746F20746865207A65726F20616464 PUSH1 0x0 DUP3 ADD MSTORE PUSH32 0x7265737300000000000000000000000000000000000000000000000000000000 PUSH1 0x20 DUP3 ADD MSTORE POP JUMP JUMPDEST PUSH32 0x4552433732313A20617070726F766520746F2063616C6C657200000000000000 PUSH1 0x0 DUP3 ADD MSTORE POP JUMP JUMPDEST PUSH32 0x4552433732313A2061646472657373207A65726F206973206E6F742061207661 PUSH1 0x0 DUP3 ADD MSTORE PUSH32 0x6C6964206F776E65720000000000000000000000000000000000000000000000 PUSH1 0x20 DUP3 ADD MSTORE POP JUMP JUMPDEST PUSH32 0x45524337323155524953746F726167653A2055524920736574206F66206E6F6E PUSH1 0x0 DUP3 ADD MSTORE PUSH32 0x6578697374656E7420746F6B656E000000000000000000000000000000000000 PUSH1 0x20 DUP3 ADD MSTORE POP JUMP JUMPDEST PUSH32 0x4552433732313A206D696E7420746F20746865207A65726F2061646472657373 PUSH1 0x0 DUP3 ADD MSTORE POP JUMP JUMPDEST PUSH32 0x4552433732313A20696E76616C696420746F6B656E2049440000000000000000 PUSH1 0x0 DUP3 ADD MSTORE POP JUMP JUMPDEST PUSH32 0x4552433732313A20617070726F76616C20746F2063757272656E74206F776E65 PUSH1 0x0 DUP3 ADD MSTORE PUSH32 0x7200000000000000000000000000000000000000000000000000000000000000 PUSH1 0x20 DUP3 ADD MSTORE POP JUMP JUMPDEST PUSH32 0x4552433732313A20617070726F76652063616C6C6572206973206E6F7420746F PUSH1 0x0 DUP3 ADD MSTORE PUSH32 0x6B656E206F776E6572206F7220617070726F76656420666F7220616C6C000000 PUSH1 0x20 DUP3 ADD MSTORE POP JUMP JUMPDEST PUSH2 0x2A89 DUP2 PUSH2 0x2504 JUMP JUMPDEST DUP2 EQ PUSH2 0x2A94 JUMPI PUSH1 0x0 DUP1 REVERT JUMPDEST POP JUMP JUMPDEST PUSH2 0x2AA0 DUP2 PUSH2 0x2516 JUMP JUMPDEST DUP2 EQ PUSH2 0x2AAB JUMPI PUSH1 0x0 DUP1 REVERT JUMPDEST POP JUMP JUMPDEST PUSH2 0x2AB7 DUP2 PUSH2 0x2522 JUMP JUMPDEST DUP2 EQ PUSH2 0x2AC2 JUMPI PUSH1 0x0 DUP1 REVERT JUMPDEST POP JUMP JUMPDEST PUSH2 0x2ACE DUP2 PUSH2 0x256E JUMP JUMPDEST DUP2 EQ PUSH2 0x2AD9 JUMPI PUSH1 0x0 DUP1 REVERT JUMPDEST POP JUMP INVALID LOG2 PUSH5 0x6970667358 0x22 SLT KECCAK256 PUSH8 0xD2D6710EF509565F 0xCD SWAP6 PC MOD 0x4A 0xD0 0xA9 0xF DUP1 0xC STATICCALL 0xC9 SMOD DUP9 0xCE 0xBB BLOCKHASH DUP3 0xD4 SWAP2 0xBF 0xD3 STOP PUSH5 0x736F6C6343 STOP ADDMOD DIV STOP CALLER "
				},
				"gasEstimates": {
					"creation": {
						"codeDepositCost": "2205200",
						"executionCost": "infinite",
						"totalCost": "infinite"
					},
					"external": {
						"approve(address,uint256)": "infinite",
						"balanceOf(address)": "1624",
						"collaboratotOf(uint256)": "1726",
						"collaboratotPercentageOf(uint256)": "infinite",
						"getApproved(uint256)": "2657",
						"isApprovedForAll(address,address)": "infinite",
						"mint(address,uint256,address,uint256,uint256,string)": "infinite",
						"name()": "infinite",
						"ownerOf(uint256)": "1748",
						"ownerPercentageOf(uint256)": "infinite",
						"safeTransferFrom(address,address,uint256)": "infinite",
						"safeTransferFrom(address,address,uint256,bytes)": "infinite",
						"setApprovalForAll(address,bool)": "infinite",
						"supportsInterface(bytes4)": "797",
						"symbol()": "infinite",
						"tokenURI(uint256)": "2124",
						"transferFrom(address,address,uint256)": "infinite"
					},
					"internal": {
						"_afterTokenTransfer(address,address,uint256)": "15",
						"_approve(address,uint256)": "infinite",
						"_baseURI()": "infinite",
						"_beforeTokenTransfer(address,address,uint256)": "15",
						"_burn(uint256)": "infinite",
						"_checkOnERC721Received(address,address,uint256,bytes memory)": "infinite",
						"_exists(uint256)": "969",
						"_isApprovedOrOwner(address,uint256)": "infinite",
						"_mint(address,address,uint256)": "infinite",
						"_requireMinted(uint256)": "infinite",
						"_safeMint(address,address,uint256,bytes memory)": "infinite",
						"_safeMint(address,uint256,address,uint256,uint256)": "infinite",
						"_safeTransfer(address,address,uint256,bytes memory)": "infinite",
						"_setApprovalForAll(address,address,bool)": "infinite",
						"_setTokenURI(uint256,string memory)": "infinite",
						"_transfer(address,address,uint256)": "infinite"
					}
				},
				"methodIdentifiers": {
					"approve(address,uint256)": "095ea7b3",
					"balanceOf(address)": "70a08231",
					"collaboratotOf(uint256)": "52e04825",
					"collaboratotPercentageOf(uint256)": "ee48cda2",
					"getApproved(uint256)": "081812fc",
					"isApprovedForAll(address,address)": "e985e9c5",
					"mint(address,uint256,address,uint256,uint256,string)": "99eb80a9",
					"name()": "06fdde03",
					"ownerOf(uint256)": "6352211e",
					"ownerPercentageOf(uint256)": "64abe37b",
					"safeTransferFrom(address,address,uint256)": "42842e0e",
					"safeTransferFrom(address,address,uint256,bytes)": "b88d4fde",
					"setApprovalForAll(address,bool)": "a22cb465",
					"supportsInterface(bytes4)": "01ffc9a7",
					"symbol()": "95d89b41",
					"tokenURI(uint256)": "c87b56dd",
					"transferFrom(address,address,uint256)": "23b872dd"
				}
			},
			"storageLayout": {
				"storage": [
					{
						"astId": 816,
						"contract": "contracts/nft.sol:nft",
						"label": "_name",
						"offset": 0,
						"slot": "0",
						"type": "t_string_storage"
					},
					{
						"astId": 818,
						"contract": "contracts/nft.sol:nft",
						"label": "_symbol",
						"offset": 0,
						"slot": "1",
						"type": "t_string_storage"
					},
					{
						"astId": 822,
						"contract": "contracts/nft.sol:nft",
						"label": "_owners",
						"offset": 0,
						"slot": "2",
						"type": "t_mapping(t_uint256,t_address)"
					},
					{
						"astId": 826,
						"contract": "contracts/nft.sol:nft",
						"label": "_ownersPercentage",
						"offset": 0,
						"slot": "3",
						"type": "t_mapping(t_uint256,t_uint256)"
					},
					{
						"astId": 830,
						"contract": "contracts/nft.sol:nft",
						"label": "_collaborators",
						"offset": 0,
						"slot": "4",
						"type": "t_mapping(t_uint256,t_address)"
					},
					{
						"astId": 834,
						"contract": "contracts/nft.sol:nft",
						"label": "_collaboratorsPercentage",
						"offset": 0,
						"slot": "5",
						"type": "t_mapping(t_uint256,t_uint256)"
					},
					{
						"astId": 838,
						"contract": "contracts/nft.sol:nft",
						"label": "_balances",
						"offset": 0,
						"slot": "6",
						"type": "t_mapping(t_address,t_uint256)"
					},
					{
						"astId": 842,
						"contract": "contracts/nft.sol:nft",
						"label": "_tokenApprovals",
						"offset": 0,
						"slot": "7",
						"type": "t_mapping(t_uint256,t_address)"
					},
					{
						"astId": 848,
						"contract": "contracts/nft.sol:nft",
						"label": "_operatorApprovals",
						"offset": 0,
						"slot": "8",
						"type": "t_mapping(t_address,t_mapping(t_address,t_bool))"
					},
					{
						"astId": 852,
						"contract": "contracts/nft.sol:nft",
						"label": "_tokenURIs",
						"offset": 0,
						"slot": "9",
						"type": "t_mapping(t_uint256,t_string_storage)"
					}
				],
				"types": {
					"t_address": {
						"encoding": "inplace",
						"label": "address",
						"numberOfBytes": "20"
					},
					"t_bool": {
						"encoding": "inplace",
						"label": "bool",
						"numberOfBytes": "1"
					},
					"t_mapping(t_address,t_bool)": {
						"encoding": "mapping",
						"key": "t_address",
						"label": "mapping(address => bool)",
						"numberOfBytes": "32",
						"value": "t_bool"
					},
					"t_mapping(t_address,t_mapping(t_address,t_bool))": {
						"encoding": "mapping",
						"key": "t_address",
						"label": "mapping(address => mapping(address => bool))",
						"numberOfBytes": "32",
						"value": "t_mapping(t_address,t_bool)"
					},
					"t_mapping(t_address,t_uint256)": {
						"encoding": "mapping",
						"key": "t_address",
						"label": "mapping(address => uint256)",
						"numberOfBytes": "32",
						"value": "t_uint256"
					},
					"t_mapping(t_uint256,t_address)": {
						"encoding": "mapping",
						"key": "t_uint256",
						"label": "mapping(uint256 => address)",
						"numberOfBytes": "32",
						"value": "t_address"
					},
					"t_mapping(t_uint256,t_string_storage)": {
						"encoding": "mapping",
						"key": "t_uint256",
						"label": "mapping(uint256 => string)",
						"numberOfBytes": "32",
						"value": "t_string_storage"
					},
					"t_mapping(t_uint256,t_uint256)": {
						"encoding": "mapping",
						"key": "t_uint256",
						"label": "mapping(uint256 => uint256)",
						"numberOfBytes": "32",
						"value": "t_uint256"
					},
					"t_string_storage": {
						"encoding": "bytes",
						"label": "string",
						"numberOfBytes": "32"
					},
					"t_uint256": {
						"encoding": "inplace",
						"label": "uint256",
						"numberOfBytes": "32"
					}
				}
			},
			"userdoc": {
				"kind": "user",
				"methods": {},
				"version": 1
			}
		}
	}
}