{
	"contracts/nft.sol": {
		"nft": {
			"abi": [
				{
					"inputs": [
						{
							"internalType": "string",
							"name": "name_",
							"type": "string"
						},
						{
							"internalType": "string",
							"name": "symbol_",
							"type": "string"
						}
					],
					"stateMutability": "nonpayable",
					"type": "constructor"
				},
				{
					"anonymous": false,
					"inputs": [
						{
							"indexed": true,
							"internalType": "address",
							"name": "owner",
							"type": "address"
						},
						{
							"indexed": true,
							"internalType": "address",
							"name": "approved",
							"type": "address"
						},
						{
							"indexed": true,
							"internalType": "uint256",
							"name": "tokenId",
							"type": "uint256"
						}
					],
					"name": "Approval",
					"type": "event"
				},
				{
					"anonymous": false,
					"inputs": [
						{
							"indexed": true,
							"internalType": "address",
							"name": "owner",
							"type": "address"
						},
						{
							"indexed": true,
							"internalType": "address",
							"name": "operator",
							"type": "address"
						},
						{
							"indexed": false,
							"internalType": "bool",
							"name": "approved",
							"type": "bool"
						}
					],
					"name": "ApprovalForAll",
					"type": "event"
				},
				{
					"anonymous": false,
					"inputs": [
						{
							"indexed": true,
							"internalType": "address",
							"name": "from",
							"type": "address"
						},
						{
							"indexed": true,
							"internalType": "address",
							"name": "to",
							"type": "address"
						},
						{
							"indexed": true,
							"internalType": "uint256",
							"name": "tokenId",
							"type": "uint256"
						}
					],
					"name": "Transfer",
					"type": "event"
				},
				{
					"inputs": [
						{
							"internalType": "address",
							"name": "to",
							"type": "address"
						},
						{
							"internalType": "uint256",
							"name": "tokenId",
							"type": "uint256"
						}
					],
					"name": "approve",
					"outputs": [],
					"stateMutability": "nonpayable",
					"type": "function"
				},
				{
					"inputs": [
						{
							"internalType": "address",
							"name": "owner",
							"type": "address"
						}
					],
					"name": "balanceOf",
					"outputs": [
						{
							"internalType": "uint256",
							"name": "",
							"type": "uint256"
						}
					],
					"stateMutability": "view",
					"type": "function"
				},
				{
					"inputs": [
						{
							"internalType": "uint256",
							"name": "tokenId",
							"type": "uint256"
						}
					],
					"name": "collaboratotOf",
					"outputs": [
						{
							"internalType": "address",
							"name": "",
							"type": "address"
						}
					],
					"stateMutability": "view",
					"type": "function"
				},
				{
					"inputs": [
						{
							"internalType": "uint256",
							"name": "tokenId",
							"type": "uint256"
						}
					],
					"name": "collaboratotPercentageOf",
					"outputs": [
						{
							"internalType": "address",
							"name": "",
							"type": "address"
						}
					],
					"stateMutability": "view",
					"type": "function"
				},
				{
					"inputs": [
						{
							"internalType": "uint256",
							"name": "tokenId",
							"type": "uint256"
						}
					],
					"name": "getApproved",
					"outputs": [
						{
							"internalType": "address",
							"name": "",
							"type": "address"
						}
					],
					"stateMutability": "view",
					"type": "function"
				},
				{
					"inputs": [
						{
							"internalType": "address",
							"name": "owner",
							"type": "address"
						},
						{
							"internalType": "address",
							"name": "operator",
							"type": "address"
						}
					],
					"name": "isApprovedForAll",
					"outputs": [
						{
							"internalType": "bool",
							"name": "",
							"type": "bool"
						}
					],
					"stateMutability": "view",
					"type": "function"
				},
				{
					"inputs": [
						{
							"internalType": "address",
							"name": "to",
							"type": "address"
						},
						{
							"internalType": "address",
							"name": "collaborator",
							"type": "address"
						},
						{
							"internalType": "uint256",
							"name": "tokenId",
							"type": "uint256"
						},
						{
							"internalType": "string",
							"name": "uri",
							"type": "string"
						}
					],
					"name": "mint",
					"outputs": [],
					"stateMutability": "nonpayable",
					"type": "function"
				},
				{
					"inputs": [],
					"name": "name",
					"outputs": [
						{
							"internalType": "string",
							"name": "",
							"type": "string"
						}
					],
					"stateMutability": "view",
					"type": "function"
				},
				{
					"inputs": [
						{
							"internalType": "uint256",
							"name": "tokenId",
							"type": "uint256"
						}
					],
					"name": "ownerOf",
					"outputs": [
						{
							"internalType": "address",
							"name": "",
							"type": "address"
						}
					],
					"stateMutability": "view",
					"type": "function"
				},
				{
					"inputs": [
						{
							"internalType": "address",
							"name": "from",
							"type": "address"
						},
						{
							"internalType": "address",
							"name": "to",
							"type": "address"
						},
						{
							"internalType": "uint256",
							"name": "tokenId",
							"type": "uint256"
						}
					],
					"name": "safeTransferFrom",
					"outputs": [],
					"stateMutability": "nonpayable",
					"type": "function"
				},
				{
					"inputs": [
						{
							"internalType": "address",
							"name": "from",
							"type": "address"
						},
						{
							"internalType": "address",
							"name": "to",
							"type": "address"
						},
						{
							"internalType": "uint256",
							"name": "tokenId",
							"type": "uint256"
						},
						{
							"internalType": "bytes",
							"name": "data",
							"type": "bytes"
						}
					],
					"name": "safeTransferFrom",
					"outputs": [],
					"stateMutability": "nonpayable",
					"type": "function"
				},
				{
					"inputs": [
						{
							"internalType": "address",
							"name": "operator",
							"type": "address"
						},
						{
							"internalType": "bool",
							"name": "approved",
							"type": "bool"
						}
					],
					"name": "setApprovalForAll",
					"outputs": [],
					"stateMutability": "nonpayable",
					"type": "function"
				},
				{
					"inputs": [
						{
							"internalType": "bytes4",
							"name": "interfaceId",
							"type": "bytes4"
						}
					],
					"name": "supportsInterface",
					"outputs": [
						{
							"internalType": "bool",
							"name": "",
							"type": "bool"
						}
					],
					"stateMutability": "view",
					"type": "function"
				},
				{
					"inputs": [],
					"name": "symbol",
					"outputs": [
						{
							"internalType": "string",
							"name": "",
							"type": "string"
						}
					],
					"stateMutability": "view",
					"type": "function"
				},
				{
					"inputs": [
						{
							"internalType": "uint256",
							"name": "tokenId",
							"type": "uint256"
						}
					],
					"name": "tokenURI",
					"outputs": [
						{
							"internalType": "string",
							"name": "",
							"type": "string"
						}
					],
					"stateMutability": "view",
					"type": "function"
				},
				{
					"inputs": [
						{
							"internalType": "address",
							"name": "from",
							"type": "address"
						},
						{
							"internalType": "address",
							"name": "to",
							"type": "address"
						},
						{
							"internalType": "uint256",
							"name": "tokenId",
							"type": "uint256"
						}
					],
					"name": "transferFrom",
					"outputs": [],
					"stateMutability": "nonpayable",
					"type": "function"
				}
			],
			"devdoc": {
				"kind": "dev",
				"methods": {
					"approve(address,uint256)": {
						"details": "Gives permission to `to` to transfer `tokenId` token to another account. The approval is cleared when the token is transferred. Only a single account can be approved at a time, so approving the zero address clears previous approvals. Requirements: - The caller must own the token or be an approved operator. - `tokenId` must exist. Emits an {Approval} event."
					},
					"balanceOf(address)": {
						"details": "Returns the number of tokens in ``owner``'s account."
					},
					"getApproved(uint256)": {
						"details": "Returns the account approved for `tokenId` token. Requirements: - `tokenId` must exist."
					},
					"isApprovedForAll(address,address)": {
						"details": "Returns if the `operator` is allowed to manage all of the assets of `owner`. See {setApprovalForAll}"
					},
					"name()": {
						"details": "Returns the token collection name."
					},
					"ownerOf(uint256)": {
						"details": "Returns the owner of the `tokenId` token. Requirements: - `tokenId` must exist."
					},
					"safeTransferFrom(address,address,uint256)": {
						"details": "Safely transfers `tokenId` token from `from` to `to`, checking first that contract recipients are aware of the ERC721 protocol to prevent tokens from being forever locked. Requirements: - `from` cannot be the zero address. - `to` cannot be the zero address. - `tokenId` token must exist and be owned by `from`. - If the caller is not `from`, it must be have been allowed to move this token by either {approve} or {setApprovalForAll}. - If `to` refers to a smart contract, it must implement {IERC721Receiver-onERC721Received}, which is called upon a safe transfer. Emits a {Transfer} event."
					},
					"safeTransferFrom(address,address,uint256,bytes)": {
						"details": "Safely transfers `tokenId` token from `from` to `to`. Requirements: - `from` cannot be the zero address. - `to` cannot be the zero address. - `tokenId` token must exist and be owned by `from`. - If the caller is not `from`, it must be approved to move this token by either {approve} or {setApprovalForAll}. - If `to` refers to a smart contract, it must implement {IERC721Receiver-onERC721Received}, which is called upon a safe transfer. Emits a {Transfer} event."
					},
					"symbol()": {
						"details": "Returns the token collection symbol."
					},
					"tokenURI(uint256)": {
						"details": "Returns the Uniform Resource Identifier (URI) for `tokenId` token."
					},
					"transferFrom(address,address,uint256)": {
						"details": "Transfers `tokenId` token from `from` to `to`. WARNING: Usage of this method is discouraged, use {safeTransferFrom} whenever possible. Requirements: - `from` cannot be the zero address. - `to` cannot be the zero address. - `tokenId` token must be owned by `from`. - If the caller is not `from`, it must be approved to move this token by either {approve} or {setApprovalForAll}. Emits a {Transfer} event."
					}
				},
				"version": 1
			},
			"evm": {
				"assembly": "    /* \"contracts/nft.sol\":677:10605  contract nft is Context, ERC165, IERC721, IERC721Metadata {\r... */\n  mstore(0x40, 0x80)\n    /* \"contracts/nft.sol\":1418:1534  constructor(string memory name_, string memory symbol_) {\r... */\n  callvalue\n  dup1\n  iszero\n  tag_1\n  jumpi\n  0x00\n  dup1\n  revert\ntag_1:\n  pop\n  mload(0x40)\n  sub(codesize, bytecodeSize)\n  dup1\n  bytecodeSize\n  dup4\n  codecopy\n  dup2\n  dup2\n  add\n  0x40\n  mstore\n  dup2\n  add\n  swap1\n  tag_2\n  swap2\n  swap1\n  tag_3\n  jump\t// in\ntag_2:\n    /* \"contracts/nft.sol\":1493:1498  name_ */\n  dup2\n    /* \"contracts/nft.sol\":1485:1490  _name */\n  0x00\n    /* \"contracts/nft.sol\":1485:1498  _name = name_ */\n  swap1\n  dup1\n  mload\n  swap1\n  0x20\n  add\n  swap1\n  tag_6\n  swap3\n  swap2\n  swap1\n  tag_7\n  jump\t// in\ntag_6:\n  pop\n    /* \"contracts/nft.sol\":1519:1526  symbol_ */\n  dup1\n    /* \"contracts/nft.sol\":1509:1516  _symbol */\n  0x01\n    /* \"contracts/nft.sol\":1509:1526  _symbol = symbol_ */\n  swap1\n  dup1\n  mload\n  swap1\n  0x20\n  add\n  swap1\n  tag_8\n  swap3\n  swap2\n  swap1\n  tag_7\n  jump\t// in\ntag_8:\n  pop\n    /* \"contracts/nft.sol\":1418:1534  constructor(string memory name_, string memory symbol_) {\r... */\n  pop\n  pop\n    /* \"contracts/nft.sol\":677:10605  contract nft is Context, ERC165, IERC721, IERC721Metadata {\r... */\n  jump(tag_9)\ntag_7:\n  dup3\n  dup1\n  sload\n  tag_10\n  swap1\n  tag_11\n  jump\t// in\ntag_10:\n  swap1\n  0x00\n  mstore\n  keccak256(0x00, 0x20)\n  swap1\n  0x1f\n  add\n  0x20\n  swap1\n  div\n  dup2\n  add\n  swap3\n  dup3\n  tag_13\n  jumpi\n  0x00\n  dup6\n  sstore\n  jump(tag_12)\ntag_13:\n  dup3\n  0x1f\n  lt\n  tag_14\n  jumpi\n  dup1\n  mload\n  not(0xff)\n  and\n  dup4\n  dup1\n  add\n  or\n  dup6\n  sstore\n  jump(tag_12)\ntag_14:\n  dup3\n  dup1\n  add\n  0x01\n  add\n  dup6\n  sstore\n  dup3\n  iszero\n  tag_12\n  jumpi\n  swap2\n  dup3\n  add\ntag_15:\n  dup3\n  dup2\n  gt\n  iszero\n  tag_16\n  jumpi\n  dup3\n  mload\n  dup3\n  sstore\n  swap2\n  0x20\n  add\n  swap2\n  swap1\n  0x01\n  add\n  swap1\n  jump(tag_15)\ntag_16:\ntag_12:\n  pop\n  swap1\n  pop\n  tag_17\n  swap2\n  swap1\n  tag_18\n  jump\t// in\ntag_17:\n  pop\n  swap1\n  jump\t// out\ntag_18:\ntag_19:\n  dup1\n  dup3\n  gt\n  iszero\n  tag_20\n  jumpi\n  0x00\n  dup2\n  0x00\n  swap1\n  sstore\n  pop\n  0x01\n  add\n  jump(tag_19)\ntag_20:\n  pop\n  swap1\n  jump\t// out\n    /* \"#utility.yul\":7:361   */\ntag_22:\n    /* \"#utility.yul\":96:101   */\n  0x00\n    /* \"#utility.yul\":121:187   */\n  tag_24\n    /* \"#utility.yul\":137:186   */\n  tag_25\n    /* \"#utility.yul\":179:185   */\n  dup5\n    /* \"#utility.yul\":137:186   */\n  tag_26\n  jump\t// in\ntag_25:\n    /* \"#utility.yul\":121:187   */\n  tag_27\n  jump\t// in\ntag_24:\n    /* \"#utility.yul\":112:187   */\n  swap1\n  pop\n    /* \"#utility.yul\":210:216   */\n  dup3\n    /* \"#utility.yul\":203:208   */\n  dup2\n    /* \"#utility.yul\":196:217   */\n  mstore\n    /* \"#utility.yul\":248:252   */\n  0x20\n    /* \"#utility.yul\":241:246   */\n  dup2\n    /* \"#utility.yul\":237:253   */\n  add\n    /* \"#utility.yul\":286:289   */\n  dup5\n    /* \"#utility.yul\":277:283   */\n  dup5\n    /* \"#utility.yul\":272:275   */\n  dup5\n    /* \"#utility.yul\":268:284   */\n  add\n    /* \"#utility.yul\":265:290   */\n  gt\n    /* \"#utility.yul\":262:264   */\n  iszero\n  tag_28\n  jumpi\n    /* \"#utility.yul\":303:304   */\n  0x00\n    /* \"#utility.yul\":300:301   */\n  dup1\n    /* \"#utility.yul\":293:305   */\n  revert\n    /* \"#utility.yul\":262:264   */\ntag_28:\n    /* \"#utility.yul\":316:355   */\n  tag_29\n    /* \"#utility.yul\":348:354   */\n  dup5\n    /* \"#utility.yul\":343:346   */\n  dup3\n    /* \"#utility.yul\":338:341   */\n  dup6\n    /* \"#utility.yul\":316:355   */\n  tag_30\n  jump\t// in\ntag_29:\n    /* \"#utility.yul\":102:361   */\n  pop\n  swap4\n  swap3\n  pop\n  pop\n  pop\n  jump\t// out\n    /* \"#utility.yul\":381:669   */\ntag_31:\n    /* \"#utility.yul\":448:453   */\n  0x00\n    /* \"#utility.yul\":497:500   */\n  dup3\n    /* \"#utility.yul\":490:494   */\n  0x1f\n    /* \"#utility.yul\":482:488   */\n  dup4\n    /* \"#utility.yul\":478:495   */\n  add\n    /* \"#utility.yul\":474:501   */\n  slt\n    /* \"#utility.yul\":464:466   */\n  tag_33\n  jumpi\n    /* \"#utility.yul\":515:516   */\n  0x00\n    /* \"#utility.yul\":512:513   */\n  dup1\n    /* \"#utility.yul\":505:517   */\n  revert\n    /* \"#utility.yul\":464:466   */\ntag_33:\n    /* \"#utility.yul\":548:554   */\n  dup2\n    /* \"#utility.yul\":542:555   */\n  mload\n    /* \"#utility.yul\":573:663   */\n  tag_34\n    /* \"#utility.yul\":659:662   */\n  dup5\n    /* \"#utility.yul\":651:657   */\n  dup3\n    /* \"#utility.yul\":644:648   */\n  0x20\n    /* \"#utility.yul\":636:642   */\n  dup7\n    /* \"#utility.yul\":632:649   */\n  add\n    /* \"#utility.yul\":573:663   */\n  tag_22\n  jump\t// in\ntag_34:\n    /* \"#utility.yul\":564:663   */\n  swap2\n  pop\n    /* \"#utility.yul\":454:669   */\n  pop\n  swap3\n  swap2\n  pop\n  pop\n  jump\t// out\n    /* \"#utility.yul\":675:1327   */\ntag_3:\n    /* \"#utility.yul\":774:780   */\n  0x00\n    /* \"#utility.yul\":782:788   */\n  dup1\n    /* \"#utility.yul\":831:833   */\n  0x40\n    /* \"#utility.yul\":819:828   */\n  dup4\n    /* \"#utility.yul\":810:817   */\n  dup6\n    /* \"#utility.yul\":806:829   */\n  sub\n    /* \"#utility.yul\":802:834   */\n  slt\n    /* \"#utility.yul\":799:801   */\n  iszero\n  tag_36\n  jumpi\n    /* \"#utility.yul\":847:848   */\n  0x00\n    /* \"#utility.yul\":844:845   */\n  dup1\n    /* \"#utility.yul\":837:849   */\n  revert\n    /* \"#utility.yul\":799:801   */\ntag_36:\n    /* \"#utility.yul\":911:912   */\n  0x00\n    /* \"#utility.yul\":900:909   */\n  dup4\n    /* \"#utility.yul\":896:913   */\n  add\n    /* \"#utility.yul\":890:914   */\n  mload\n    /* \"#utility.yul\":941:959   */\n  0xffffffffffffffff\n    /* \"#utility.yul\":933:939   */\n  dup2\n    /* \"#utility.yul\":930:960   */\n  gt\n    /* \"#utility.yul\":927:929   */\n  iszero\n  tag_37\n  jumpi\n    /* \"#utility.yul\":973:974   */\n  0x00\n    /* \"#utility.yul\":970:971   */\n  dup1\n    /* \"#utility.yul\":963:975   */\n  revert\n    /* \"#utility.yul\":927:929   */\ntag_37:\n    /* \"#utility.yul\":1001:1075   */\n  tag_38\n    /* \"#utility.yul\":1067:1074   */\n  dup6\n    /* \"#utility.yul\":1058:1064   */\n  dup3\n    /* \"#utility.yul\":1047:1056   */\n  dup7\n    /* \"#utility.yul\":1043:1065   */\n  add\n    /* \"#utility.yul\":1001:1075   */\n  tag_31\n  jump\t// in\ntag_38:\n    /* \"#utility.yul\":991:1075   */\n  swap3\n  pop\n    /* \"#utility.yul\":861:1085   */\n  pop\n    /* \"#utility.yul\":1145:1147   */\n  0x20\n    /* \"#utility.yul\":1134:1143   */\n  dup4\n    /* \"#utility.yul\":1130:1148   */\n  add\n    /* \"#utility.yul\":1124:1149   */\n  mload\n    /* \"#utility.yul\":1176:1194   */\n  0xffffffffffffffff\n    /* \"#utility.yul\":1168:1174   */\n  dup2\n    /* \"#utility.yul\":1165:1195   */\n  gt\n    /* \"#utility.yul\":1162:1164   */\n  iszero\n  tag_39\n  jumpi\n    /* \"#utility.yul\":1208:1209   */\n  0x00\n    /* \"#utility.yul\":1205:1206   */\n  dup1\n    /* \"#utility.yul\":1198:1210   */\n  revert\n    /* \"#utility.yul\":1162:1164   */\ntag_39:\n    /* \"#utility.yul\":1236:1310   */\n  tag_40\n    /* \"#utility.yul\":1302:1309   */\n  dup6\n    /* \"#utility.yul\":1293:1299   */\n  dup3\n    /* \"#utility.yul\":1282:1291   */\n  dup7\n    /* \"#utility.yul\":1278:1300   */\n  add\n    /* \"#utility.yul\":1236:1310   */\n  tag_31\n  jump\t// in\ntag_40:\n    /* \"#utility.yul\":1226:1310   */\n  swap2\n  pop\n    /* \"#utility.yul\":1095:1320   */\n  pop\n    /* \"#utility.yul\":789:1327   */\n  swap3\n  pop\n  swap3\n  swap1\n  pop\n  jump\t// out\n    /* \"#utility.yul\":1333:1462   */\ntag_27:\n    /* \"#utility.yul\":1367:1373   */\n  0x00\n    /* \"#utility.yul\":1394:1414   */\n  tag_42\n  tag_43\n  jump\t// in\ntag_42:\n    /* \"#utility.yul\":1384:1414   */\n  swap1\n  pop\n    /* \"#utility.yul\":1423:1456   */\n  tag_44\n    /* \"#utility.yul\":1451:1455   */\n  dup3\n    /* \"#utility.yul\":1443:1449   */\n  dup3\n    /* \"#utility.yul\":1423:1456   */\n  tag_45\n  jump\t// in\ntag_44:\n    /* \"#utility.yul\":1374:1462   */\n  swap2\n  swap1\n  pop\n  jump\t// out\n    /* \"#utility.yul\":1468:1543   */\ntag_43:\n    /* \"#utility.yul\":1501:1507   */\n  0x00\n    /* \"#utility.yul\":1534:1536   */\n  0x40\n    /* \"#utility.yul\":1528:1537   */\n  mload\n    /* \"#utility.yul\":1518:1537   */\n  swap1\n  pop\n    /* \"#utility.yul\":1508:1543   */\n  swap1\n  jump\t// out\n    /* \"#utility.yul\":1549:1857   */\ntag_26:\n    /* \"#utility.yul\":1611:1615   */\n  0x00\n    /* \"#utility.yul\":1701:1719   */\n  0xffffffffffffffff\n    /* \"#utility.yul\":1693:1699   */\n  dup3\n    /* \"#utility.yul\":1690:1720   */\n  gt\n    /* \"#utility.yul\":1687:1689   */\n  iszero\n  tag_48\n  jumpi\n    /* \"#utility.yul\":1723:1741   */\n  tag_49\n  tag_50\n  jump\t// in\ntag_49:\n    /* \"#utility.yul\":1687:1689   */\ntag_48:\n    /* \"#utility.yul\":1761:1790   */\n  tag_51\n    /* \"#utility.yul\":1783:1789   */\n  dup3\n    /* \"#utility.yul\":1761:1790   */\n  tag_52\n  jump\t// in\ntag_51:\n    /* \"#utility.yul\":1753:1790   */\n  swap1\n  pop\n    /* \"#utility.yul\":1845:1849   */\n  0x20\n    /* \"#utility.yul\":1839:1843   */\n  dup2\n    /* \"#utility.yul\":1835:1850   */\n  add\n    /* \"#utility.yul\":1827:1850   */\n  swap1\n  pop\n    /* \"#utility.yul\":1616:1857   */\n  swap2\n  swap1\n  pop\n  jump\t// out\n    /* \"#utility.yul\":1863:2170   */\ntag_30:\n    /* \"#utility.yul\":1931:1932   */\n  0x00\n    /* \"#utility.yul\":1941:2054   */\ntag_54:\n    /* \"#utility.yul\":1955:1961   */\n  dup4\n    /* \"#utility.yul\":1952:1953   */\n  dup2\n    /* \"#utility.yul\":1949:1962   */\n  lt\n    /* \"#utility.yul\":1941:2054   */\n  iszero\n  tag_56\n  jumpi\n    /* \"#utility.yul\":2040:2041   */\n  dup1\n    /* \"#utility.yul\":2035:2038   */\n  dup3\n    /* \"#utility.yul\":2031:2042   */\n  add\n    /* \"#utility.yul\":2025:2043   */\n  mload\n    /* \"#utility.yul\":2021:2022   */\n  dup2\n    /* \"#utility.yul\":2016:2019   */\n  dup5\n    /* \"#utility.yul\":2012:2023   */\n  add\n    /* \"#utility.yul\":2005:2044   */\n  mstore\n    /* \"#utility.yul\":1977:1979   */\n  0x20\n    /* \"#utility.yul\":1974:1975   */\n  dup2\n    /* \"#utility.yul\":1970:1980   */\n  add\n    /* \"#utility.yul\":1965:1980   */\n  swap1\n  pop\n    /* \"#utility.yul\":1941:2054   */\n  jump(tag_54)\ntag_56:\n    /* \"#utility.yul\":2072:2078   */\n  dup4\n    /* \"#utility.yul\":2069:2070   */\n  dup2\n    /* \"#utility.yul\":2066:2079   */\n  gt\n    /* \"#utility.yul\":2063:2065   */\n  iszero\n  tag_57\n  jumpi\n    /* \"#utility.yul\":2152:2153   */\n  0x00\n    /* \"#utility.yul\":2143:2149   */\n  dup5\n    /* \"#utility.yul\":2138:2141   */\n  dup5\n    /* \"#utility.yul\":2134:2150   */\n  add\n    /* \"#utility.yul\":2127:2154   */\n  mstore\n    /* \"#utility.yul\":2063:2065   */\ntag_57:\n    /* \"#utility.yul\":1912:2170   */\n  pop\n  pop\n  pop\n  pop\n  jump\t// out\n    /* \"#utility.yul\":2176:2496   */\ntag_11:\n    /* \"#utility.yul\":2220:2226   */\n  0x00\n    /* \"#utility.yul\":2257:2258   */\n  0x02\n    /* \"#utility.yul\":2251:2255   */\n  dup3\n    /* \"#utility.yul\":2247:2259   */\n  div\n    /* \"#utility.yul\":2237:2259   */\n  swap1\n  pop\n    /* \"#utility.yul\":2304:2305   */\n  0x01\n    /* \"#utility.yul\":2298:2302   */\n  dup3\n    /* \"#utility.yul\":2294:2306   */\n  and\n    /* \"#utility.yul\":2325:2343   */\n  dup1\n    /* \"#utility.yul\":2315:2317   */\n  tag_59\n  jumpi\n    /* \"#utility.yul\":2381:2385   */\n  0x7f\n    /* \"#utility.yul\":2373:2379   */\n  dup3\n    /* \"#utility.yul\":2369:2386   */\n  and\n    /* \"#utility.yul\":2359:2386   */\n  swap2\n  pop\n    /* \"#utility.yul\":2315:2317   */\ntag_59:\n    /* \"#utility.yul\":2443:2445   */\n  0x20\n    /* \"#utility.yul\":2435:2441   */\n  dup3\n    /* \"#utility.yul\":2432:2446   */\n  lt\n    /* \"#utility.yul\":2412:2430   */\n  dup2\n    /* \"#utility.yul\":2409:2447   */\n  eq\n    /* \"#utility.yul\":2406:2408   */\n  iszero\n  tag_60\n  jumpi\n    /* \"#utility.yul\":2462:2480   */\n  tag_61\n  tag_62\n  jump\t// in\ntag_61:\n    /* \"#utility.yul\":2406:2408   */\ntag_60:\n    /* \"#utility.yul\":2227:2496   */\n  pop\n  swap2\n  swap1\n  pop\n  jump\t// out\n    /* \"#utility.yul\":2502:2783   */\ntag_45:\n    /* \"#utility.yul\":2585:2612   */\n  tag_64\n    /* \"#utility.yul\":2607:2611   */\n  dup3\n    /* \"#utility.yul\":2585:2612   */\n  tag_52\n  jump\t// in\ntag_64:\n    /* \"#utility.yul\":2577:2583   */\n  dup2\n    /* \"#utility.yul\":2573:2613   */\n  add\n    /* \"#utility.yul\":2715:2721   */\n  dup2\n    /* \"#utility.yul\":2703:2713   */\n  dup2\n    /* \"#utility.yul\":2700:2722   */\n  lt\n    /* \"#utility.yul\":2679:2697   */\n  0xffffffffffffffff\n    /* \"#utility.yul\":2667:2677   */\n  dup3\n    /* \"#utility.yul\":2664:2698   */\n  gt\n    /* \"#utility.yul\":2661:2723   */\n  or\n    /* \"#utility.yul\":2658:2660   */\n  iszero\n  tag_65\n  jumpi\n    /* \"#utility.yul\":2726:2744   */\n  tag_66\n  tag_50\n  jump\t// in\ntag_66:\n    /* \"#utility.yul\":2658:2660   */\ntag_65:\n    /* \"#utility.yul\":2766:2776   */\n  dup1\n    /* \"#utility.yul\":2762:2764   */\n  0x40\n    /* \"#utility.yul\":2755:2777   */\n  mstore\n    /* \"#utility.yul\":2545:2783   */\n  pop\n  pop\n  pop\n  jump\t// out\n    /* \"#utility.yul\":2789:2969   */\ntag_62:\n    /* \"#utility.yul\":2837:2914   */\n  0x4e487b7100000000000000000000000000000000000000000000000000000000\n    /* \"#utility.yul\":2834:2835   */\n  0x00\n    /* \"#utility.yul\":2827:2915   */\n  mstore\n    /* \"#utility.yul\":2934:2938   */\n  0x22\n    /* \"#utility.yul\":2931:2932   */\n  0x04\n    /* \"#utility.yul\":2924:2939   */\n  mstore\n    /* \"#utility.yul\":2958:2962   */\n  0x24\n    /* \"#utility.yul\":2955:2956   */\n  0x00\n    /* \"#utility.yul\":2948:2963   */\n  revert\n    /* \"#utility.yul\":2975:3155   */\ntag_50:\n    /* \"#utility.yul\":3023:3100   */\n  0x4e487b7100000000000000000000000000000000000000000000000000000000\n    /* \"#utility.yul\":3020:3021   */\n  0x00\n    /* \"#utility.yul\":3013:3101   */\n  mstore\n    /* \"#utility.yul\":3120:3124   */\n  0x41\n    /* \"#utility.yul\":3117:3118   */\n  0x04\n    /* \"#utility.yul\":3110:3125   */\n  mstore\n    /* \"#utility.yul\":3144:3148   */\n  0x24\n    /* \"#utility.yul\":3141:3142   */\n  0x00\n    /* \"#utility.yul\":3134:3149   */\n  revert\n    /* \"#utility.yul\":3161:3263   */\ntag_52:\n    /* \"#utility.yul\":3202:3208   */\n  0x00\n    /* \"#utility.yul\":3253:3255   */\n  0x1f\n    /* \"#utility.yul\":3249:3256   */\n  not\n    /* \"#utility.yul\":3244:3246   */\n  0x1f\n    /* \"#utility.yul\":3237:3242   */\n  dup4\n    /* \"#utility.yul\":3233:3247   */\n  add\n    /* \"#utility.yul\":3229:3257   */\n  and\n    /* \"#utility.yul\":3219:3257   */\n  swap1\n  pop\n    /* \"#utility.yul\":3209:3263   */\n  swap2\n  swap1\n  pop\n  jump\t// out\n    /* \"contracts/nft.sol\":677:10605  contract nft is Context, ERC165, IERC721, IERC721Metadata {\r... */\ntag_9:\n  dataSize(sub_0)\n  dup1\n  dataOffset(sub_0)\n  0x00\n  codecopy\n  0x00\n  return\nstop\n\nsub_0: assembly {\n        /* \"contracts/nft.sol\":677:10605  contract nft is Context, ERC165, IERC721, IERC721Metadata {\r... */\n      mstore(0x40, 0x80)\n      callvalue\n      dup1\n      iszero\n      tag_1\n      jumpi\n      0x00\n      dup1\n      revert\n    tag_1:\n      pop\n      jumpi(tag_2, lt(calldatasize, 0x04))\n      shr(0xe0, calldataload(0x00))\n      dup1\n      0x70a08231\n      gt\n      tag_19\n      jumpi\n      dup1\n      0xb88d4fde\n      gt\n      tag_20\n      jumpi\n      dup1\n      0xb88d4fde\n      eq\n      tag_15\n      jumpi\n      dup1\n      0xc87b56dd\n      eq\n      tag_16\n      jumpi\n      dup1\n      0xe985e9c5\n      eq\n      tag_17\n      jumpi\n      dup1\n      0xee48cda2\n      eq\n      tag_18\n      jumpi\n      jump(tag_2)\n    tag_20:\n      dup1\n      0x70a08231\n      eq\n      tag_11\n      jumpi\n      dup1\n      0x95d89b41\n      eq\n      tag_12\n      jumpi\n      dup1\n      0xa22cb465\n      eq\n      tag_13\n      jumpi\n      dup1\n      0xb85cbc79\n      eq\n      tag_14\n      jumpi\n      jump(tag_2)\n    tag_19:\n      dup1\n      0x23b872dd\n      gt\n      tag_21\n      jumpi\n      dup1\n      0x23b872dd\n      eq\n      tag_7\n      jumpi\n      dup1\n      0x42842e0e\n      eq\n      tag_8\n      jumpi\n      dup1\n      0x52e04825\n      eq\n      tag_9\n      jumpi\n      dup1\n      0x6352211e\n      eq\n      tag_10\n      jumpi\n      jump(tag_2)\n    tag_21:\n      dup1\n      0x01ffc9a7\n      eq\n      tag_3\n      jumpi\n      dup1\n      0x06fdde03\n      eq\n      tag_4\n      jumpi\n      dup1\n      0x081812fc\n      eq\n      tag_5\n      jumpi\n      dup1\n      0x095ea7b3\n      eq\n      tag_6\n      jumpi\n    tag_2:\n      0x00\n      dup1\n      revert\n        /* \"contracts/nft.sol\":1544:1849  function supportsInterface(bytes4 interfaceId) public view virtual override(ERC165, IERC165) returns (bool) {\r... */\n    tag_3:\n      tag_22\n      0x04\n      dup1\n      calldatasize\n      sub\n      dup2\n      add\n      swap1\n      tag_23\n      swap2\n      swap1\n      tag_24\n      jump\t// in\n    tag_23:\n      tag_25\n      jump\t// in\n    tag_22:\n      mload(0x40)\n      tag_26\n      swap2\n      swap1\n      tag_27\n      jump\t// in\n    tag_26:\n      mload(0x40)\n      dup1\n      swap2\n      sub\n      swap1\n      return\n        /* \"contracts/nft.sol\":2831:2931  function name() public view virtual override returns (string memory) {\r... */\n    tag_4:\n      tag_28\n      tag_29\n      jump\t// in\n    tag_28:\n      mload(0x40)\n      tag_30\n      swap2\n      swap1\n      tag_31\n      jump\t// in\n    tag_30:\n      mload(0x40)\n      dup1\n      swap2\n      sub\n      swap1\n      return\n        /* \"contracts/nft.sol\":3873:4044  function getApproved(uint256 tokenId) public view virtual override returns (address) {\r... */\n    tag_5:\n      tag_32\n      0x04\n      dup1\n      calldatasize\n      sub\n      dup2\n      add\n      swap1\n      tag_33\n      swap2\n      swap1\n      tag_34\n      jump\t// in\n    tag_33:\n      tag_35\n      jump\t// in\n    tag_32:\n      mload(0x40)\n      tag_36\n      swap2\n      swap1\n      tag_37\n      jump\t// in\n    tag_36:\n      mload(0x40)\n      dup1\n      swap2\n      sub\n      swap1\n      return\n        /* \"contracts/nft.sol\":3449:3862  function approve(address to, uint256 tokenId) public virtual override {\r... */\n    tag_6:\n      tag_38\n      0x04\n      dup1\n      calldatasize\n      sub\n      dup2\n      add\n      swap1\n      tag_39\n      swap2\n      swap1\n      tag_40\n      jump\t// in\n    tag_39:\n      tag_41\n      jump\t// in\n    tag_38:\n      stop\n        /* \"contracts/nft.sol\":4395:4677  function transferFrom(\r... */\n    tag_7:\n      tag_42\n      0x04\n      dup1\n      calldatasize\n      sub\n      dup2\n      add\n      swap1\n      tag_43\n      swap2\n      swap1\n      tag_44\n      jump\t// in\n    tag_43:\n      tag_45\n      jump\t// in\n    tag_42:\n      stop\n        /* \"contracts/nft.sol\":4687:4872  function safeTransferFrom(\r... */\n    tag_8:\n      tag_46\n      0x04\n      dup1\n      calldatasize\n      sub\n      dup2\n      add\n      swap1\n      tag_47\n      swap2\n      swap1\n      tag_44\n      jump\t// in\n    tag_47:\n      tag_48\n      jump\t// in\n    tag_46:\n      stop\n        /* \"contracts/nft.sol\":2307:2555  function collaboratotOf(uint256 tokenId) public view virtual returns (address) {\r... */\n    tag_9:\n      tag_49\n      0x04\n      dup1\n      calldatasize\n      sub\n      dup2\n      add\n      swap1\n      tag_50\n      swap2\n      swap1\n      tag_34\n      jump\t// in\n    tag_50:\n      tag_51\n      jump\t// in\n    tag_49:\n      mload(0x40)\n      tag_52\n      swap2\n      swap1\n      tag_37\n      jump\t// in\n    tag_52:\n      mload(0x40)\n      dup1\n      swap2\n      sub\n      swap1\n      return\n        /* \"contracts/nft.sol\":2076:2298  function ownerOf(uint256 tokenId) public view virtual override returns (address) {\r... */\n    tag_10:\n      tag_53\n      0x04\n      dup1\n      calldatasize\n      sub\n      dup2\n      add\n      swap1\n      tag_54\n      swap2\n      swap1\n      tag_34\n      jump\t// in\n    tag_54:\n      tag_55\n      jump\t// in\n    tag_53:\n      mload(0x40)\n      tag_56\n      swap2\n      swap1\n      tag_37\n      jump\t// in\n    tag_56:\n      mload(0x40)\n      dup1\n      swap2\n      sub\n      swap1\n      return\n        /* \"contracts/nft.sol\":1859:2066  function balanceOf(address owner) public view virtual override returns (uint256) {\r... */\n    tag_11:\n      tag_57\n      0x04\n      dup1\n      calldatasize\n      sub\n      dup2\n      add\n      swap1\n      tag_58\n      swap2\n      swap1\n      tag_59\n      jump\t// in\n    tag_58:\n      tag_60\n      jump\t// in\n    tag_57:\n      mload(0x40)\n      tag_61\n      swap2\n      swap1\n      tag_62\n      jump\t// in\n    tag_61:\n      mload(0x40)\n      dup1\n      swap2\n      sub\n      swap1\n      return\n        /* \"contracts/nft.sol\":2942:3046  function symbol() public view virtual override returns (string memory) {\r... */\n    tag_12:\n      tag_63\n      tag_64\n      jump\t// in\n    tag_63:\n      mload(0x40)\n      tag_65\n      swap2\n      swap1\n      tag_31\n      jump\t// in\n    tag_65:\n      mload(0x40)\n      dup1\n      swap2\n      sub\n      swap1\n      return\n        /* \"contracts/nft.sol\":4056:4211  function setApprovalForAll(address operator, bool approved) public virtual override {\r... */\n    tag_13:\n      tag_66\n      0x04\n      dup1\n      calldatasize\n      sub\n      dup2\n      add\n      swap1\n      tag_67\n      swap2\n      swap1\n      tag_68\n      jump\t// in\n    tag_67:\n      tag_69\n      jump\t// in\n    tag_66:\n      stop\n        /* \"contracts/nft.sol\":5213:5390  function mint(address to,address collaborator,uint tokenId,string memory uri) public{\r... */\n    tag_14:\n      tag_70\n      0x04\n      dup1\n      calldatasize\n      sub\n      dup2\n      add\n      swap1\n      tag_71\n      swap2\n      swap1\n      tag_72\n      jump\t// in\n    tag_71:\n      tag_73\n      jump\t// in\n    tag_70:\n      stop\n        /* \"contracts/nft.sol\":4882:5204  function safeTransferFrom(\r... */\n    tag_15:\n      tag_74\n      0x04\n      dup1\n      calldatasize\n      sub\n      dup2\n      add\n      swap1\n      tag_75\n      swap2\n      swap1\n      tag_76\n      jump\t// in\n    tag_75:\n      tag_77\n      jump\t// in\n    tag_74:\n      stop\n        /* \"contracts/nft.sol\":3054:3335  function tokenURI(uint256 tokenId) public view virtual override returns (string memory) {\r... */\n    tag_16:\n      tag_78\n      0x04\n      dup1\n      calldatasize\n      sub\n      dup2\n      add\n      swap1\n      tag_79\n      swap2\n      swap1\n      tag_34\n      jump\t// in\n    tag_79:\n      tag_80\n      jump\t// in\n    tag_78:\n      mload(0x40)\n      tag_81\n      swap2\n      swap1\n      tag_31\n      jump\t// in\n    tag_81:\n      mload(0x40)\n      dup1\n      swap2\n      sub\n      swap1\n      return\n        /* \"contracts/nft.sol\":4221:4385  function isApprovedForAll(address owner, address operator) public view virtual override returns (bool) {\r... */\n    tag_17:\n      tag_82\n      0x04\n      dup1\n      calldatasize\n      sub\n      dup2\n      add\n      swap1\n      tag_83\n      swap2\n      swap1\n      tag_84\n      jump\t// in\n    tag_83:\n      tag_85\n      jump\t// in\n    tag_82:\n      mload(0x40)\n      tag_86\n      swap2\n      swap1\n      tag_27\n      jump\t// in\n    tag_86:\n      mload(0x40)\n      dup1\n      swap2\n      sub\n      swap1\n      return\n        /* \"contracts/nft.sol\":2563:2821  function collaboratotPercentageOf(uint256 tokenId) public view virtual returns (address) {\r... */\n    tag_18:\n      tag_87\n      0x04\n      dup1\n      calldatasize\n      sub\n      dup2\n      add\n      swap1\n      tag_88\n      swap2\n      swap1\n      tag_34\n      jump\t// in\n    tag_88:\n      tag_89\n      jump\t// in\n    tag_87:\n      mload(0x40)\n      tag_90\n      swap2\n      swap1\n      tag_37\n      jump\t// in\n    tag_90:\n      mload(0x40)\n      dup1\n      swap2\n      sub\n      swap1\n      return\n        /* \"contracts/nft.sol\":1544:1849  function supportsInterface(bytes4 interfaceId) public view virtual override(ERC165, IERC165) returns (bool) {\r... */\n    tag_25:\n        /* \"contracts/nft.sol\":1646:1650  bool */\n      0x00\n        /* \"contracts/nft.sol\":1698:1723  type(IERC721).interfaceId */\n      0x80ac58cd00000000000000000000000000000000000000000000000000000000\n        /* \"contracts/nft.sol\":1683:1723  interfaceId == type(IERC721).interfaceId */\n      not(0xffffffffffffffffffffffffffffffffffffffffffffffffffffffff)\n      and\n        /* \"contracts/nft.sol\":1683:1694  interfaceId */\n      dup3\n        /* \"contracts/nft.sol\":1683:1723  interfaceId == type(IERC721).interfaceId */\n      not(0xffffffffffffffffffffffffffffffffffffffffffffffffffffffff)\n      and\n      eq\n        /* \"contracts/nft.sol\":1683:1788  interfaceId == type(IERC721).interfaceId ||\r... */\n      dup1\n      tag_92\n      jumpi\n      pop\n        /* \"contracts/nft.sol\":1755:1788  type(IERC721Metadata).interfaceId */\n      0x5b5e139f00000000000000000000000000000000000000000000000000000000\n        /* \"contracts/nft.sol\":1740:1788  interfaceId == type(IERC721Metadata).interfaceId */\n      not(0xffffffffffffffffffffffffffffffffffffffffffffffffffffffff)\n      and\n        /* \"contracts/nft.sol\":1740:1751  interfaceId */\n      dup3\n        /* \"contracts/nft.sol\":1740:1788  interfaceId == type(IERC721Metadata).interfaceId */\n      not(0xffffffffffffffffffffffffffffffffffffffffffffffffffffffff)\n      and\n      eq\n        /* \"contracts/nft.sol\":1683:1788  interfaceId == type(IERC721).interfaceId ||\r... */\n    tag_92:\n        /* \"contracts/nft.sol\":1683:1841  interfaceId == type(IERC721).interfaceId ||\r... */\n      dup1\n      tag_93\n      jumpi\n      pop\n        /* \"contracts/nft.sol\":1805:1841  super.supportsInterface(interfaceId) */\n      tag_94\n        /* \"contracts/nft.sol\":1829:1840  interfaceId */\n      dup3\n        /* \"contracts/nft.sol\":1805:1828  super.supportsInterface */\n      tag_95\n        /* \"contracts/nft.sol\":1805:1841  super.supportsInterface(interfaceId) */\n      jump\t// in\n    tag_94:\n        /* \"contracts/nft.sol\":1683:1841  interfaceId == type(IERC721).interfaceId ||\r... */\n    tag_93:\n        /* \"contracts/nft.sol\":1663:1841  return\r... */\n      swap1\n      pop\n        /* \"contracts/nft.sol\":1544:1849  function supportsInterface(bytes4 interfaceId) public view virtual override(ERC165, IERC165) returns (bool) {\r... */\n      swap2\n      swap1\n      pop\n      jump\t// out\n        /* \"contracts/nft.sol\":2831:2931  function name() public view virtual override returns (string memory) {\r... */\n    tag_29:\n        /* \"contracts/nft.sol\":2885:2898  string memory */\n      0x60\n        /* \"contracts/nft.sol\":2918:2923  _name */\n      0x00\n        /* \"contracts/nft.sol\":2911:2923  return _name */\n      dup1\n      sload\n      tag_97\n      swap1\n      tag_98\n      jump\t// in\n    tag_97:\n      dup1\n      0x1f\n      add\n      0x20\n      dup1\n      swap2\n      div\n      mul\n      0x20\n      add\n      mload(0x40)\n      swap1\n      dup2\n      add\n      0x40\n      mstore\n      dup1\n      swap3\n      swap2\n      swap1\n      dup2\n      dup2\n      mstore\n      0x20\n      add\n      dup3\n      dup1\n      sload\n      tag_99\n      swap1\n      tag_98\n      jump\t// in\n    tag_99:\n      dup1\n      iszero\n      tag_100\n      jumpi\n      dup1\n      0x1f\n      lt\n      tag_101\n      jumpi\n      0x0100\n      dup1\n      dup4\n      sload\n      div\n      mul\n      dup4\n      mstore\n      swap2\n      0x20\n      add\n      swap2\n      jump(tag_100)\n    tag_101:\n      dup3\n      add\n      swap2\n      swap1\n      0x00\n      mstore\n      keccak256(0x00, 0x20)\n      swap1\n    tag_102:\n      dup2\n      sload\n      dup2\n      mstore\n      swap1\n      0x01\n      add\n      swap1\n      0x20\n      add\n      dup1\n      dup4\n      gt\n      tag_102\n      jumpi\n      dup3\n      swap1\n      sub\n      0x1f\n      and\n      dup3\n      add\n      swap2\n    tag_100:\n      pop\n      pop\n      pop\n      pop\n      pop\n      swap1\n      pop\n        /* \"contracts/nft.sol\":2831:2931  function name() public view virtual override returns (string memory) {\r... */\n      swap1\n      jump\t// out\n        /* \"contracts/nft.sol\":3873:4044  function getApproved(uint256 tokenId) public view virtual override returns (address) {\r... */\n    tag_35:\n        /* \"contracts/nft.sol\":3949:3956  address */\n      0x00\n        /* \"contracts/nft.sol\":3969:3992  _requireMinted(tokenId) */\n      tag_104\n        /* \"contracts/nft.sol\":3984:3991  tokenId */\n      dup3\n        /* \"contracts/nft.sol\":3969:3983  _requireMinted */\n      tag_105\n        /* \"contracts/nft.sol\":3969:3992  _requireMinted(tokenId) */\n      jump\t// in\n    tag_104:\n        /* \"contracts/nft.sol\":4012:4027  _tokenApprovals */\n      0x07\n        /* \"contracts/nft.sol\":4012:4036  _tokenApprovals[tokenId] */\n      0x00\n        /* \"contracts/nft.sol\":4028:4035  tokenId */\n      dup4\n        /* \"contracts/nft.sol\":4012:4036  _tokenApprovals[tokenId] */\n      dup2\n      mstore\n      0x20\n      add\n      swap1\n      dup2\n      mstore\n      0x20\n      add\n      0x00\n      keccak256\n      0x00\n      swap1\n      sload\n      swap1\n      0x0100\n      exp\n      swap1\n      div\n      0xffffffffffffffffffffffffffffffffffffffff\n      and\n        /* \"contracts/nft.sol\":4005:4036  return _tokenApprovals[tokenId] */\n      swap1\n      pop\n        /* \"contracts/nft.sol\":3873:4044  function getApproved(uint256 tokenId) public view virtual override returns (address) {\r... */\n      swap2\n      swap1\n      pop\n      jump\t// out\n        /* \"contracts/nft.sol\":3449:3862  function approve(address to, uint256 tokenId) public virtual override {\r... */\n    tag_41:\n        /* \"contracts/nft.sol\":3530:3543  address owner */\n      0x00\n        /* \"contracts/nft.sol\":3546:3566  nft.ownerOf(tokenId) */\n      tag_107\n        /* \"contracts/nft.sol\":3558:3565  tokenId */\n      dup3\n        /* \"contracts/nft.sol\":3546:3557  nft.ownerOf */\n      tag_55\n        /* \"contracts/nft.sol\":3546:3566  nft.ownerOf(tokenId) */\n      jump\t// in\n    tag_107:\n        /* \"contracts/nft.sol\":3530:3566  address owner = nft.ownerOf(tokenId) */\n      swap1\n      pop\n        /* \"contracts/nft.sol\":3591:3596  owner */\n      dup1\n        /* \"contracts/nft.sol\":3585:3596  to != owner */\n      0xffffffffffffffffffffffffffffffffffffffff\n      and\n        /* \"contracts/nft.sol\":3585:3587  to */\n      dup4\n        /* \"contracts/nft.sol\":3585:3596  to != owner */\n      0xffffffffffffffffffffffffffffffffffffffff\n      and\n      eq\n      iszero\n        /* \"contracts/nft.sol\":3577:3634  require(to != owner, \"ERC721: approval to current owner\") */\n      tag_108\n      jumpi\n      mload(0x40)\n      0x08c379a000000000000000000000000000000000000000000000000000000000\n      dup2\n      mstore\n      0x04\n      add\n      tag_109\n      swap1\n      tag_110\n      jump\t// in\n    tag_109:\n      mload(0x40)\n      dup1\n      swap2\n      sub\n      swap1\n      revert\n    tag_108:\n        /* \"contracts/nft.sol\":3685:3690  owner */\n      dup1\n        /* \"contracts/nft.sol\":3669:3690  _msgSender() == owner */\n      0xffffffffffffffffffffffffffffffffffffffff\n      and\n        /* \"contracts/nft.sol\":3669:3681  _msgSender() */\n      tag_111\n        /* \"contracts/nft.sol\":3669:3679  _msgSender */\n      tag_112\n        /* \"contracts/nft.sol\":3669:3681  _msgSender() */\n      jump\t// in\n    tag_111:\n        /* \"contracts/nft.sol\":3669:3690  _msgSender() == owner */\n      0xffffffffffffffffffffffffffffffffffffffff\n      and\n      eq\n        /* \"contracts/nft.sol\":3669:3731  _msgSender() == owner || isApprovedForAll(owner, _msgSender()) */\n      dup1\n      tag_113\n      jumpi\n      pop\n        /* \"contracts/nft.sol\":3694:3731  isApprovedForAll(owner, _msgSender()) */\n      tag_114\n        /* \"contracts/nft.sol\":3711:3716  owner */\n      dup2\n        /* \"contracts/nft.sol\":3718:3730  _msgSender() */\n      tag_115\n        /* \"contracts/nft.sol\":3718:3728  _msgSender */\n      tag_112\n        /* \"contracts/nft.sol\":3718:3730  _msgSender() */\n      jump\t// in\n    tag_115:\n        /* \"contracts/nft.sol\":3694:3710  isApprovedForAll */\n      tag_85\n        /* \"contracts/nft.sol\":3694:3731  isApprovedForAll(owner, _msgSender()) */\n      jump\t// in\n    tag_114:\n        /* \"contracts/nft.sol\":3669:3731  _msgSender() == owner || isApprovedForAll(owner, _msgSender()) */\n    tag_113:\n        /* \"contracts/nft.sol\":3647:3820  require(\r... */\n      tag_116\n      jumpi\n      mload(0x40)\n      0x08c379a000000000000000000000000000000000000000000000000000000000\n      dup2\n      mstore\n      0x04\n      add\n      tag_117\n      swap1\n      tag_118\n      jump\t// in\n    tag_117:\n      mload(0x40)\n      dup1\n      swap2\n      sub\n      swap1\n      revert\n    tag_116:\n        /* \"contracts/nft.sol\":3833:3854  _approve(to, tokenId) */\n      tag_119\n        /* \"contracts/nft.sol\":3842:3844  to */\n      dup4\n        /* \"contracts/nft.sol\":3846:3853  tokenId */\n      dup4\n        /* \"contracts/nft.sol\":3833:3841  _approve */\n      tag_120\n        /* \"contracts/nft.sol\":3833:3854  _approve(to, tokenId) */\n      jump\t// in\n    tag_119:\n        /* \"contracts/nft.sol\":3449:3862  function approve(address to, uint256 tokenId) public virtual override {\r... */\n      pop\n      pop\n      pop\n      jump\t// out\n        /* \"contracts/nft.sol\":4395:4677  function transferFrom(\r... */\n    tag_45:\n        /* \"contracts/nft.sol\":4537:4578  _isApprovedOrOwner(_msgSender(), tokenId) */\n      tag_122\n        /* \"contracts/nft.sol\":4556:4568  _msgSender() */\n      tag_123\n        /* \"contracts/nft.sol\":4556:4566  _msgSender */\n      tag_112\n        /* \"contracts/nft.sol\":4556:4568  _msgSender() */\n      jump\t// in\n    tag_123:\n        /* \"contracts/nft.sol\":4570:4577  tokenId */\n      dup3\n        /* \"contracts/nft.sol\":4537:4555  _isApprovedOrOwner */\n      tag_124\n        /* \"contracts/nft.sol\":4537:4578  _isApprovedOrOwner(_msgSender(), tokenId) */\n      jump\t// in\n    tag_122:\n        /* \"contracts/nft.sol\":4529:4628  require(_isApprovedOrOwner(_msgSender(), tokenId), \"ERC721: caller is not token owner or approved\") */\n      tag_125\n      jumpi\n      mload(0x40)\n      0x08c379a000000000000000000000000000000000000000000000000000000000\n      dup2\n      mstore\n      0x04\n      add\n      tag_126\n      swap1\n      tag_127\n      jump\t// in\n    tag_126:\n      mload(0x40)\n      dup1\n      swap2\n      sub\n      swap1\n      revert\n    tag_125:\n        /* \"contracts/nft.sol\":4641:4669  _transfer(from, to, tokenId) */\n      tag_128\n        /* \"contracts/nft.sol\":4651:4655  from */\n      dup4\n        /* \"contracts/nft.sol\":4657:4659  to */\n      dup4\n        /* \"contracts/nft.sol\":4661:4668  tokenId */\n      dup4\n        /* \"contracts/nft.sol\":4641:4650  _transfer */\n      tag_129\n        /* \"contracts/nft.sol\":4641:4669  _transfer(from, to, tokenId) */\n      jump\t// in\n    tag_128:\n        /* \"contracts/nft.sol\":4395:4677  function transferFrom(\r... */\n      pop\n      pop\n      pop\n      jump\t// out\n        /* \"contracts/nft.sol\":4687:4872  function safeTransferFrom(\r... */\n    tag_48:\n        /* \"contracts/nft.sol\":4825:4864  safeTransferFrom(from, to, tokenId, \"\") */\n      tag_131\n        /* \"contracts/nft.sol\":4842:4846  from */\n      dup4\n        /* \"contracts/nft.sol\":4848:4850  to */\n      dup4\n        /* \"contracts/nft.sol\":4852:4859  tokenId */\n      dup4\n        /* \"contracts/nft.sol\":4825:4864  safeTransferFrom(from, to, tokenId, \"\") */\n      mload(0x40)\n      dup1\n      0x20\n      add\n      0x40\n      mstore\n      dup1\n      0x00\n      dup2\n      mstore\n      pop\n        /* \"contracts/nft.sol\":4825:4841  safeTransferFrom */\n      tag_77\n        /* \"contracts/nft.sol\":4825:4864  safeTransferFrom(from, to, tokenId, \"\") */\n      jump\t// in\n    tag_131:\n        /* \"contracts/nft.sol\":4687:4872  function safeTransferFrom(\r... */\n      pop\n      pop\n      pop\n      jump\t// out\n        /* \"contracts/nft.sol\":2307:2555  function collaboratotOf(uint256 tokenId) public view virtual returns (address) {\r... */\n    tag_51:\n        /* \"contracts/nft.sol\":2377:2384  address */\n      0x00\n        /* \"contracts/nft.sol\":2397:2417  address collaborator */\n      dup1\n        /* \"contracts/nft.sol\":2420:2434  _collaborators */\n      0x04\n        /* \"contracts/nft.sol\":2420:2443  _collaborators[tokenId] */\n      0x00\n        /* \"contracts/nft.sol\":2435:2442  tokenId */\n      dup5\n        /* \"contracts/nft.sol\":2420:2443  _collaborators[tokenId] */\n      dup2\n      mstore\n      0x20\n      add\n      swap1\n      dup2\n      mstore\n      0x20\n      add\n      0x00\n      keccak256\n      0x00\n      swap1\n      sload\n      swap1\n      0x0100\n      exp\n      swap1\n      div\n      0xffffffffffffffffffffffffffffffffffffffff\n      and\n        /* \"contracts/nft.sol\":2397:2443  address collaborator = _collaborators[tokenId] */\n      swap1\n      pop\n        /* \"contracts/nft.sol\":2486:2487  0 */\n      0x00\n        /* \"contracts/nft.sol\":2462:2488  collaborator != address(0) */\n      0xffffffffffffffffffffffffffffffffffffffff\n      and\n        /* \"contracts/nft.sol\":2462:2474  collaborator */\n      dup2\n        /* \"contracts/nft.sol\":2462:2488  collaborator != address(0) */\n      0xffffffffffffffffffffffffffffffffffffffff\n      and\n      eq\n      iszero\n        /* \"contracts/nft.sol\":2454:2517  require(collaborator != address(0), \"ERC721: invalid token ID\") */\n      tag_133\n      jumpi\n      mload(0x40)\n      0x08c379a000000000000000000000000000000000000000000000000000000000\n      dup2\n      mstore\n      0x04\n      add\n      tag_134\n      swap1\n      tag_135\n      jump\t// in\n    tag_134:\n      mload(0x40)\n      dup1\n      swap2\n      sub\n      swap1\n      revert\n    tag_133:\n        /* \"contracts/nft.sol\":2535:2547  collaborator */\n      dup1\n        /* \"contracts/nft.sol\":2528:2547  return collaborator */\n      swap2\n      pop\n      pop\n        /* \"contracts/nft.sol\":2307:2555  function collaboratotOf(uint256 tokenId) public view virtual returns (address) {\r... */\n      swap2\n      swap1\n      pop\n      jump\t// out\n        /* \"contracts/nft.sol\":2076:2298  function ownerOf(uint256 tokenId) public view virtual override returns (address) {\r... */\n    tag_55:\n        /* \"contracts/nft.sol\":2148:2155  address */\n      0x00\n        /* \"contracts/nft.sol\":2168:2181  address owner */\n      dup1\n        /* \"contracts/nft.sol\":2184:2191  _owners */\n      0x02\n        /* \"contracts/nft.sol\":2184:2200  _owners[tokenId] */\n      0x00\n        /* \"contracts/nft.sol\":2192:2199  tokenId */\n      dup5\n        /* \"contracts/nft.sol\":2184:2200  _owners[tokenId] */\n      dup2\n      mstore\n      0x20\n      add\n      swap1\n      dup2\n      mstore\n      0x20\n      add\n      0x00\n      keccak256\n      0x00\n      swap1\n      sload\n      swap1\n      0x0100\n      exp\n      swap1\n      div\n      0xffffffffffffffffffffffffffffffffffffffff\n      and\n        /* \"contracts/nft.sol\":2168:2200  address owner = _owners[tokenId] */\n      swap1\n      pop\n        /* \"contracts/nft.sol\":2236:2237  0 */\n      0x00\n        /* \"contracts/nft.sol\":2219:2238  owner != address(0) */\n      0xffffffffffffffffffffffffffffffffffffffff\n      and\n        /* \"contracts/nft.sol\":2219:2224  owner */\n      dup2\n        /* \"contracts/nft.sol\":2219:2238  owner != address(0) */\n      0xffffffffffffffffffffffffffffffffffffffff\n      and\n      eq\n      iszero\n        /* \"contracts/nft.sol\":2211:2267  require(owner != address(0), \"ERC721: invalid token ID\") */\n      tag_137\n      jumpi\n      mload(0x40)\n      0x08c379a000000000000000000000000000000000000000000000000000000000\n      dup2\n      mstore\n      0x04\n      add\n      tag_138\n      swap1\n      tag_135\n      jump\t// in\n    tag_138:\n      mload(0x40)\n      dup1\n      swap2\n      sub\n      swap1\n      revert\n    tag_137:\n        /* \"contracts/nft.sol\":2285:2290  owner */\n      dup1\n        /* \"contracts/nft.sol\":2278:2290  return owner */\n      swap2\n      pop\n      pop\n        /* \"contracts/nft.sol\":2076:2298  function ownerOf(uint256 tokenId) public view virtual override returns (address) {\r... */\n      swap2\n      swap1\n      pop\n      jump\t// out\n        /* \"contracts/nft.sol\":1859:2066  function balanceOf(address owner) public view virtual override returns (uint256) {\r... */\n    tag_60:\n        /* \"contracts/nft.sol\":1931:1938  uint256 */\n      0x00\n        /* \"contracts/nft.sol\":1976:1977  0 */\n      dup1\n        /* \"contracts/nft.sol\":1959:1978  owner != address(0) */\n      0xffffffffffffffffffffffffffffffffffffffff\n      and\n        /* \"contracts/nft.sol\":1959:1964  owner */\n      dup3\n        /* \"contracts/nft.sol\":1959:1978  owner != address(0) */\n      0xffffffffffffffffffffffffffffffffffffffff\n      and\n      eq\n      iszero\n        /* \"contracts/nft.sol\":1951:2024  require(owner != address(0), \"ERC721: address zero is not a valid owner\") */\n      tag_140\n      jumpi\n      mload(0x40)\n      0x08c379a000000000000000000000000000000000000000000000000000000000\n      dup2\n      mstore\n      0x04\n      add\n      tag_141\n      swap1\n      tag_142\n      jump\t// in\n    tag_141:\n      mload(0x40)\n      dup1\n      swap2\n      sub\n      swap1\n      revert\n    tag_140:\n        /* \"contracts/nft.sol\":2042:2051  _balances */\n      0x06\n        /* \"contracts/nft.sol\":2042:2058  _balances[owner] */\n      0x00\n        /* \"contracts/nft.sol\":2052:2057  owner */\n      dup4\n        /* \"contracts/nft.sol\":2042:2058  _balances[owner] */\n      0xffffffffffffffffffffffffffffffffffffffff\n      and\n      0xffffffffffffffffffffffffffffffffffffffff\n      and\n      dup2\n      mstore\n      0x20\n      add\n      swap1\n      dup2\n      mstore\n      0x20\n      add\n      0x00\n      keccak256\n      sload\n        /* \"contracts/nft.sol\":2035:2058  return _balances[owner] */\n      swap1\n      pop\n        /* \"contracts/nft.sol\":1859:2066  function balanceOf(address owner) public view virtual override returns (uint256) {\r... */\n      swap2\n      swap1\n      pop\n      jump\t// out\n        /* \"contracts/nft.sol\":2942:3046  function symbol() public view virtual override returns (string memory) {\r... */\n    tag_64:\n        /* \"contracts/nft.sol\":2998:3011  string memory */\n      0x60\n        /* \"contracts/nft.sol\":3031:3038  _symbol */\n      0x01\n        /* \"contracts/nft.sol\":3024:3038  return _symbol */\n      dup1\n      sload\n      tag_144\n      swap1\n      tag_98\n      jump\t// in\n    tag_144:\n      dup1\n      0x1f\n      add\n      0x20\n      dup1\n      swap2\n      div\n      mul\n      0x20\n      add\n      mload(0x40)\n      swap1\n      dup2\n      add\n      0x40\n      mstore\n      dup1\n      swap3\n      swap2\n      swap1\n      dup2\n      dup2\n      mstore\n      0x20\n      add\n      dup3\n      dup1\n      sload\n      tag_145\n      swap1\n      tag_98\n      jump\t// in\n    tag_145:\n      dup1\n      iszero\n      tag_146\n      jumpi\n      dup1\n      0x1f\n      lt\n      tag_147\n      jumpi\n      0x0100\n      dup1\n      dup4\n      sload\n      div\n      mul\n      dup4\n      mstore\n      swap2\n      0x20\n      add\n      swap2\n      jump(tag_146)\n    tag_147:\n      dup3\n      add\n      swap2\n      swap1\n      0x00\n      mstore\n      keccak256(0x00, 0x20)\n      swap1\n    tag_148:\n      dup2\n      sload\n      dup2\n      mstore\n      swap1\n      0x01\n      add\n      swap1\n      0x20\n      add\n      dup1\n      dup4\n      gt\n      tag_148\n      jumpi\n      dup3\n      swap1\n      sub\n      0x1f\n      and\n      dup3\n      add\n      swap2\n    tag_146:\n      pop\n      pop\n      pop\n      pop\n      pop\n      swap1\n      pop\n        /* \"contracts/nft.sol\":2942:3046  function symbol() public view virtual override returns (string memory) {\r... */\n      swap1\n      jump\t// out\n        /* \"contracts/nft.sol\":4056:4211  function setApprovalForAll(address operator, bool approved) public virtual override {\r... */\n    tag_69:\n        /* \"contracts/nft.sol\":4151:4203  _setApprovalForAll(_msgSender(), operator, approved) */\n      tag_150\n        /* \"contracts/nft.sol\":4170:4182  _msgSender() */\n      tag_151\n        /* \"contracts/nft.sol\":4170:4180  _msgSender */\n      tag_112\n        /* \"contracts/nft.sol\":4170:4182  _msgSender() */\n      jump\t// in\n    tag_151:\n        /* \"contracts/nft.sol\":4184:4192  operator */\n      dup4\n        /* \"contracts/nft.sol\":4194:4202  approved */\n      dup4\n        /* \"contracts/nft.sol\":4151:4169  _setApprovalForAll */\n      tag_152\n        /* \"contracts/nft.sol\":4151:4203  _setApprovalForAll(_msgSender(), operator, approved) */\n      jump\t// in\n    tag_150:\n        /* \"contracts/nft.sol\":4056:4211  function setApprovalForAll(address operator, bool approved) public virtual override {\r... */\n      pop\n      pop\n      jump\t// out\n        /* \"contracts/nft.sol\":5213:5390  function mint(address to,address collaborator,uint tokenId,string memory uri) public{\r... */\n    tag_73:\n        /* \"contracts/nft.sol\":5310:5345  _safeMint(to, collaborator,tokenId) */\n      tag_154\n        /* \"contracts/nft.sol\":5320:5322  to */\n      dup5\n        /* \"contracts/nft.sol\":5324:5336  collaborator */\n      dup5\n        /* \"contracts/nft.sol\":5337:5344  tokenId */\n      dup5\n        /* \"contracts/nft.sol\":5310:5319  _safeMint */\n      tag_155\n        /* \"contracts/nft.sol\":5310:5345  _safeMint(to, collaborator,tokenId) */\n      jump\t// in\n    tag_154:\n        /* \"contracts/nft.sol\":5356:5382  _setTokenURI(tokenId, uri) */\n      tag_156\n        /* \"contracts/nft.sol\":5369:5376  tokenId */\n      dup3\n        /* \"contracts/nft.sol\":5378:5381  uri */\n      dup3\n        /* \"contracts/nft.sol\":5356:5368  _setTokenURI */\n      tag_157\n        /* \"contracts/nft.sol\":5356:5382  _setTokenURI(tokenId, uri) */\n      jump\t// in\n    tag_156:\n        /* \"contracts/nft.sol\":5213:5390  function mint(address to,address collaborator,uint tokenId,string memory uri) public{\r... */\n      pop\n      pop\n      pop\n      pop\n      jump\t// out\n        /* \"contracts/nft.sol\":4882:5204  function safeTransferFrom(\r... */\n    tag_77:\n        /* \"contracts/nft.sol\":5056:5097  _isApprovedOrOwner(_msgSender(), tokenId) */\n      tag_159\n        /* \"contracts/nft.sol\":5075:5087  _msgSender() */\n      tag_160\n        /* \"contracts/nft.sol\":5075:5085  _msgSender */\n      tag_112\n        /* \"contracts/nft.sol\":5075:5087  _msgSender() */\n      jump\t// in\n    tag_160:\n        /* \"contracts/nft.sol\":5089:5096  tokenId */\n      dup4\n        /* \"contracts/nft.sol\":5056:5074  _isApprovedOrOwner */\n      tag_124\n        /* \"contracts/nft.sol\":5056:5097  _isApprovedOrOwner(_msgSender(), tokenId) */\n      jump\t// in\n    tag_159:\n        /* \"contracts/nft.sol\":5048:5147  require(_isApprovedOrOwner(_msgSender(), tokenId), \"ERC721: caller is not token owner or approved\") */\n      tag_161\n      jumpi\n      mload(0x40)\n      0x08c379a000000000000000000000000000000000000000000000000000000000\n      dup2\n      mstore\n      0x04\n      add\n      tag_162\n      swap1\n      tag_127\n      jump\t// in\n    tag_162:\n      mload(0x40)\n      dup1\n      swap2\n      sub\n      swap1\n      revert\n    tag_161:\n        /* \"contracts/nft.sol\":5158:5196  _safeTransfer(from, to, tokenId, data) */\n      tag_163\n        /* \"contracts/nft.sol\":5172:5176  from */\n      dup5\n        /* \"contracts/nft.sol\":5178:5180  to */\n      dup5\n        /* \"contracts/nft.sol\":5182:5189  tokenId */\n      dup5\n        /* \"contracts/nft.sol\":5191:5195  data */\n      dup5\n        /* \"contracts/nft.sol\":5158:5171  _safeTransfer */\n      tag_164\n        /* \"contracts/nft.sol\":5158:5196  _safeTransfer(from, to, tokenId, data) */\n      jump\t// in\n    tag_163:\n        /* \"contracts/nft.sol\":4882:5204  function safeTransferFrom(\r... */\n      pop\n      pop\n      pop\n      pop\n      jump\t// out\n        /* \"contracts/nft.sol\":3054:3335  function tokenURI(uint256 tokenId) public view virtual override returns (string memory) {\r... */\n    tag_80:\n        /* \"contracts/nft.sol\":3127:3140  string memory */\n      0x60\n        /* \"contracts/nft.sol\":3153:3176  _requireMinted(tokenId) */\n      tag_166\n        /* \"contracts/nft.sol\":3168:3175  tokenId */\n      dup3\n        /* \"contracts/nft.sol\":3153:3167  _requireMinted */\n      tag_105\n        /* \"contracts/nft.sol\":3153:3176  _requireMinted(tokenId) */\n      jump\t// in\n    tag_166:\n        /* \"contracts/nft.sol\":3189:3210  string memory baseURI */\n      0x00\n        /* \"contracts/nft.sol\":3213:3223  _baseURI() */\n      tag_167\n        /* \"contracts/nft.sol\":3213:3221  _baseURI */\n      tag_168\n        /* \"contracts/nft.sol\":3213:3223  _baseURI() */\n      jump\t// in\n    tag_167:\n        /* \"contracts/nft.sol\":3189:3223  string memory baseURI = _baseURI() */\n      swap1\n      pop\n        /* \"contracts/nft.sol\":3265:3266  0 */\n      0x00\n        /* \"contracts/nft.sol\":3247:3254  baseURI */\n      dup2\n        /* \"contracts/nft.sol\":3241:3262  bytes(baseURI).length */\n      mload\n        /* \"contracts/nft.sol\":3241:3266  bytes(baseURI).length > 0 */\n      gt\n        /* \"contracts/nft.sol\":3241:3327  bytes(baseURI).length > 0 ? string(abi.encodePacked(baseURI, tokenId.toString())) : \"\" */\n      tag_169\n      jumpi\n      mload(0x40)\n      dup1\n      0x20\n      add\n      0x40\n      mstore\n      dup1\n      0x00\n      dup2\n      mstore\n      pop\n      jump(tag_170)\n    tag_169:\n        /* \"contracts/nft.sol\":3293:3300  baseURI */\n      dup1\n        /* \"contracts/nft.sol\":3302:3320  tokenId.toString() */\n      tag_171\n        /* \"contracts/nft.sol\":3302:3309  tokenId */\n      dup5\n        /* \"contracts/nft.sol\":3302:3318  tokenId.toString */\n      tag_172\n        /* \"contracts/nft.sol\":3302:3320  tokenId.toString() */\n      jump\t// in\n    tag_171:\n        /* \"contracts/nft.sol\":3276:3321  abi.encodePacked(baseURI, tokenId.toString()) */\n      add(0x20, mload(0x40))\n      tag_173\n      swap3\n      swap2\n      swap1\n      tag_174\n      jump\t// in\n    tag_173:\n      mload(0x40)\n      0x20\n      dup2\n      dup4\n      sub\n      sub\n      dup2\n      mstore\n      swap1\n      0x40\n      mstore\n        /* \"contracts/nft.sol\":3241:3327  bytes(baseURI).length > 0 ? string(abi.encodePacked(baseURI, tokenId.toString())) : \"\" */\n    tag_170:\n        /* \"contracts/nft.sol\":3234:3327  return bytes(baseURI).length > 0 ? string(abi.encodePacked(baseURI, tokenId.toString())) : \"\" */\n      swap2\n      pop\n      pop\n        /* \"contracts/nft.sol\":3054:3335  function tokenURI(uint256 tokenId) public view virtual override returns (string memory) {\r... */\n      swap2\n      swap1\n      pop\n      jump\t// out\n        /* \"contracts/nft.sol\":4221:4385  function isApprovedForAll(address owner, address operator) public view virtual override returns (bool) {\r... */\n    tag_85:\n        /* \"contracts/nft.sol\":4318:4322  bool */\n      0x00\n        /* \"contracts/nft.sol\":4342:4360  _operatorApprovals */\n      0x08\n        /* \"contracts/nft.sol\":4342:4367  _operatorApprovals[owner] */\n      0x00\n        /* \"contracts/nft.sol\":4361:4366  owner */\n      dup5\n        /* \"contracts/nft.sol\":4342:4367  _operatorApprovals[owner] */\n      0xffffffffffffffffffffffffffffffffffffffff\n      and\n      0xffffffffffffffffffffffffffffffffffffffff\n      and\n      dup2\n      mstore\n      0x20\n      add\n      swap1\n      dup2\n      mstore\n      0x20\n      add\n      0x00\n      keccak256\n        /* \"contracts/nft.sol\":4342:4377  _operatorApprovals[owner][operator] */\n      0x00\n        /* \"contracts/nft.sol\":4368:4376  operator */\n      dup4\n        /* \"contracts/nft.sol\":4342:4377  _operatorApprovals[owner][operator] */\n      0xffffffffffffffffffffffffffffffffffffffff\n      and\n      0xffffffffffffffffffffffffffffffffffffffff\n      and\n      dup2\n      mstore\n      0x20\n      add\n      swap1\n      dup2\n      mstore\n      0x20\n      add\n      0x00\n      keccak256\n      0x00\n      swap1\n      sload\n      swap1\n      0x0100\n      exp\n      swap1\n      div\n      0xff\n      and\n        /* \"contracts/nft.sol\":4335:4377  return _operatorApprovals[owner][operator] */\n      swap1\n      pop\n        /* \"contracts/nft.sol\":4221:4385  function isApprovedForAll(address owner, address operator) public view virtual override returns (bool) {\r... */\n      swap3\n      swap2\n      pop\n      pop\n      jump\t// out\n        /* \"contracts/nft.sol\":2563:2821  function collaboratotPercentageOf(uint256 tokenId) public view virtual returns (address) {\r... */\n    tag_89:\n        /* \"contracts/nft.sol\":2643:2650  address */\n      0x00\n        /* \"contracts/nft.sol\":2663:2683  address collaborator */\n      dup1\n        /* \"contracts/nft.sol\":2686:2700  _collaborators */\n      0x04\n        /* \"contracts/nft.sol\":2686:2709  _collaborators[tokenId] */\n      0x00\n        /* \"contracts/nft.sol\":2701:2708  tokenId */\n      dup5\n        /* \"contracts/nft.sol\":2686:2709  _collaborators[tokenId] */\n      dup2\n      mstore\n      0x20\n      add\n      swap1\n      dup2\n      mstore\n      0x20\n      add\n      0x00\n      keccak256\n      0x00\n      swap1\n      sload\n      swap1\n      0x0100\n      exp\n      swap1\n      div\n      0xffffffffffffffffffffffffffffffffffffffff\n      and\n        /* \"contracts/nft.sol\":2663:2709  address collaborator = _collaborators[tokenId] */\n      swap1\n      pop\n        /* \"contracts/nft.sol\":2752:2753  0 */\n      0x00\n        /* \"contracts/nft.sol\":2728:2754  collaborator != address(0) */\n      0xffffffffffffffffffffffffffffffffffffffff\n      and\n        /* \"contracts/nft.sol\":2728:2740  collaborator */\n      dup2\n        /* \"contracts/nft.sol\":2728:2754  collaborator != address(0) */\n      0xffffffffffffffffffffffffffffffffffffffff\n      and\n      eq\n      iszero\n        /* \"contracts/nft.sol\":2720:2783  require(collaborator != address(0), \"ERC721: invalid token ID\") */\n      tag_177\n      jumpi\n      mload(0x40)\n      0x08c379a000000000000000000000000000000000000000000000000000000000\n      dup2\n      mstore\n      0x04\n      add\n      tag_178\n      swap1\n      tag_135\n      jump\t// in\n    tag_178:\n      mload(0x40)\n      dup1\n      swap2\n      sub\n      swap1\n      revert\n    tag_177:\n        /* \"contracts/nft.sol\":2801:2813  collaborator */\n      dup1\n        /* \"contracts/nft.sol\":2794:2813  return collaborator */\n      swap2\n      pop\n      pop\n        /* \"contracts/nft.sol\":2563:2821  function collaboratotPercentageOf(uint256 tokenId) public view virtual returns (address) {\r... */\n      swap2\n      swap1\n      pop\n      jump\t// out\n        /* \"@openzeppelin/contracts@4.6.0/utils/introspection/ERC165.sol\":829:984  function supportsInterface(bytes4 interfaceId) public view virtual override returns (bool) {... */\n    tag_95:\n        /* \"@openzeppelin/contracts@4.6.0/utils/introspection/ERC165.sol\":914:918  bool */\n      0x00\n        /* \"@openzeppelin/contracts@4.6.0/utils/introspection/ERC165.sol\":952:977  type(IERC165).interfaceId */\n      0x01ffc9a700000000000000000000000000000000000000000000000000000000\n        /* \"@openzeppelin/contracts@4.6.0/utils/introspection/ERC165.sol\":937:977  interfaceId == type(IERC165).interfaceId */\n      not(0xffffffffffffffffffffffffffffffffffffffffffffffffffffffff)\n      and\n        /* \"@openzeppelin/contracts@4.6.0/utils/introspection/ERC165.sol\":937:948  interfaceId */\n      dup3\n        /* \"@openzeppelin/contracts@4.6.0/utils/introspection/ERC165.sol\":937:977  interfaceId == type(IERC165).interfaceId */\n      not(0xffffffffffffffffffffffffffffffffffffffffffffffffffffffff)\n      and\n      eq\n        /* \"@openzeppelin/contracts@4.6.0/utils/introspection/ERC165.sol\":930:977  return interfaceId == type(IERC165).interfaceId */\n      swap1\n      pop\n        /* \"@openzeppelin/contracts@4.6.0/utils/introspection/ERC165.sol\":829:984  function supportsInterface(bytes4 interfaceId) public view virtual override returns (bool) {... */\n      swap2\n      swap1\n      pop\n      jump\t// out\n        /* \"contracts/nft.sol\":9333:9468  function _requireMinted(uint256 tokenId) internal view virtual {\r... */\n    tag_105:\n        /* \"contracts/nft.sol\":9415:9431  _exists(tokenId) */\n      tag_181\n        /* \"contracts/nft.sol\":9423:9430  tokenId */\n      dup2\n        /* \"contracts/nft.sol\":9415:9422  _exists */\n      tag_182\n        /* \"contracts/nft.sol\":9415:9431  _exists(tokenId) */\n      jump\t// in\n    tag_181:\n        /* \"contracts/nft.sol\":9407:9460  require(_exists(tokenId), \"ERC721: invalid token ID\") */\n      tag_183\n      jumpi\n      mload(0x40)\n      0x08c379a000000000000000000000000000000000000000000000000000000000\n      dup2\n      mstore\n      0x04\n      add\n      tag_184\n      swap1\n      tag_135\n      jump\t// in\n    tag_184:\n      mload(0x40)\n      dup1\n      swap2\n      sub\n      swap1\n      revert\n    tag_183:\n        /* \"contracts/nft.sol\":9333:9468  function _requireMinted(uint256 tokenId) internal view virtual {\r... */\n      pop\n      jump\t// out\n        /* \"@openzeppelin/contracts@4.6.0/utils/Context.sol\":640:736  function _msgSender() internal view virtual returns (address) {... */\n    tag_112:\n        /* \"@openzeppelin/contracts@4.6.0/utils/Context.sol\":693:700  address */\n      0x00\n        /* \"@openzeppelin/contracts@4.6.0/utils/Context.sol\":719:729  msg.sender */\n      caller\n        /* \"@openzeppelin/contracts@4.6.0/utils/Context.sol\":712:729  return msg.sender */\n      swap1\n      pop\n        /* \"@openzeppelin/contracts@4.6.0/utils/Context.sol\":640:736  function _msgSender() internal view virtual returns (address) {... */\n      swap1\n      jump\t// out\n        /* \"contracts/nft.sol\":8831:9002  function _approve(address to, uint256 tokenId) internal virtual {\r... */\n    tag_120:\n        /* \"contracts/nft.sol\":8933:8935  to */\n      dup2\n        /* \"contracts/nft.sol\":8906:8921  _tokenApprovals */\n      0x07\n        /* \"contracts/nft.sol\":8906:8930  _tokenApprovals[tokenId] */\n      0x00\n        /* \"contracts/nft.sol\":8922:8929  tokenId */\n      dup4\n        /* \"contracts/nft.sol\":8906:8930  _tokenApprovals[tokenId] */\n      dup2\n      mstore\n      0x20\n      add\n      swap1\n      dup2\n      mstore\n      0x20\n      add\n      0x00\n      keccak256\n      0x00\n        /* \"contracts/nft.sol\":8906:8935  _tokenApprovals[tokenId] = to */\n      0x0100\n      exp\n      dup2\n      sload\n      dup2\n      0xffffffffffffffffffffffffffffffffffffffff\n      mul\n      not\n      and\n      swap1\n      dup4\n      0xffffffffffffffffffffffffffffffffffffffff\n      and\n      mul\n      or\n      swap1\n      sstore\n      pop\n        /* \"contracts/nft.sol\":8986:8993  tokenId */\n      dup1\n        /* \"contracts/nft.sol\":8982:8984  to */\n      dup3\n        /* \"contracts/nft.sol\":8951:8994  Approval(nft.ownerOf(tokenId), to, tokenId) */\n      0xffffffffffffffffffffffffffffffffffffffff\n      and\n        /* \"contracts/nft.sol\":8960:8980  nft.ownerOf(tokenId) */\n      tag_187\n        /* \"contracts/nft.sol\":8972:8979  tokenId */\n      dup4\n        /* \"contracts/nft.sol\":8960:8971  nft.ownerOf */\n      tag_55\n        /* \"contracts/nft.sol\":8960:8980  nft.ownerOf(tokenId) */\n      jump\t// in\n    tag_187:\n        /* \"contracts/nft.sol\":8951:8994  Approval(nft.ownerOf(tokenId), to, tokenId) */\n      0xffffffffffffffffffffffffffffffffffffffff\n      and\n      0x8c5be1e5ebec7d5bd14f71427d1e84f3dd0314c0f7b2291e5b200ac8c7c3b925\n      mload(0x40)\n      mload(0x40)\n      dup1\n      swap2\n      sub\n      swap1\n      log4\n        /* \"contracts/nft.sol\":8831:9002  function _approve(address to, uint256 tokenId) internal virtual {\r... */\n      pop\n      pop\n      jump\t// out\n        /* \"contracts/nft.sol\":5856:6117  function _isApprovedOrOwner(address spender, uint256 tokenId) internal view virtual returns (bool) {\r... */\n    tag_124:\n        /* \"contracts/nft.sol\":5949:5953  bool */\n      0x00\n        /* \"contracts/nft.sol\":5966:5979  address owner */\n      dup1\n        /* \"contracts/nft.sol\":5982:6002  nft.ownerOf(tokenId) */\n      tag_189\n        /* \"contracts/nft.sol\":5994:6001  tokenId */\n      dup4\n        /* \"contracts/nft.sol\":5982:5993  nft.ownerOf */\n      tag_55\n        /* \"contracts/nft.sol\":5982:6002  nft.ownerOf(tokenId) */\n      jump\t// in\n    tag_189:\n        /* \"contracts/nft.sol\":5966:6002  address owner = nft.ownerOf(tokenId) */\n      swap1\n      pop\n        /* \"contracts/nft.sol\":6032:6037  owner */\n      dup1\n        /* \"contracts/nft.sol\":6021:6037  spender == owner */\n      0xffffffffffffffffffffffffffffffffffffffff\n      and\n        /* \"contracts/nft.sol\":6021:6028  spender */\n      dup5\n        /* \"contracts/nft.sol\":6021:6037  spender == owner */\n      0xffffffffffffffffffffffffffffffffffffffff\n      and\n      eq\n        /* \"contracts/nft.sol\":6021:6073  spender == owner || isApprovedForAll(owner, spender) */\n      dup1\n      tag_190\n      jumpi\n      pop\n        /* \"contracts/nft.sol\":6041:6073  isApprovedForAll(owner, spender) */\n      tag_191\n        /* \"contracts/nft.sol\":6058:6063  owner */\n      dup2\n        /* \"contracts/nft.sol\":6065:6072  spender */\n      dup6\n        /* \"contracts/nft.sol\":6041:6057  isApprovedForAll */\n      tag_85\n        /* \"contracts/nft.sol\":6041:6073  isApprovedForAll(owner, spender) */\n      jump\t// in\n    tag_191:\n        /* \"contracts/nft.sol\":6021:6073  spender == owner || isApprovedForAll(owner, spender) */\n    tag_190:\n        /* \"contracts/nft.sol\":6021:6108  spender == owner || isApprovedForAll(owner, spender) || getApproved(tokenId) == spender */\n      dup1\n      tag_192\n      jumpi\n      pop\n        /* \"contracts/nft.sol\":6101:6108  spender */\n      dup4\n        /* \"contracts/nft.sol\":6077:6108  getApproved(tokenId) == spender */\n      0xffffffffffffffffffffffffffffffffffffffff\n      and\n        /* \"contracts/nft.sol\":6077:6097  getApproved(tokenId) */\n      tag_193\n        /* \"contracts/nft.sol\":6089:6096  tokenId */\n      dup5\n        /* \"contracts/nft.sol\":6077:6088  getApproved */\n      tag_35\n        /* \"contracts/nft.sol\":6077:6097  getApproved(tokenId) */\n      jump\t// in\n    tag_193:\n        /* \"contracts/nft.sol\":6077:6108  getApproved(tokenId) == spender */\n      0xffffffffffffffffffffffffffffffffffffffff\n      and\n      eq\n        /* \"contracts/nft.sol\":6021:6108  spender == owner || isApprovedForAll(owner, spender) || getApproved(tokenId) == spender */\n    tag_192:\n        /* \"contracts/nft.sol\":6013:6109  return (spender == owner || isApprovedForAll(owner, spender) || getApproved(tokenId) == spender) */\n      swap2\n      pop\n      pop\n        /* \"contracts/nft.sol\":5856:6117  function _isApprovedOrOwner(address spender, uint256 tokenId) internal view virtual returns (bool) {\r... */\n      swap3\n      swap2\n      pop\n      pop\n      jump\t// out\n        /* \"contracts/nft.sol\":8064:8821  function _transfer(\r... */\n    tag_129:\n        /* \"contracts/nft.sol\":8220:8224  from */\n      dup3\n        /* \"contracts/nft.sol\":8196:8224  nft.ownerOf(tokenId) == from */\n      0xffffffffffffffffffffffffffffffffffffffff\n      and\n        /* \"contracts/nft.sol\":8196:8216  nft.ownerOf(tokenId) */\n      tag_195\n        /* \"contracts/nft.sol\":8208:8215  tokenId */\n      dup3\n        /* \"contracts/nft.sol\":8196:8207  nft.ownerOf */\n      tag_55\n        /* \"contracts/nft.sol\":8196:8216  nft.ownerOf(tokenId) */\n      jump\t// in\n    tag_195:\n        /* \"contracts/nft.sol\":8196:8224  nft.ownerOf(tokenId) == from */\n      0xffffffffffffffffffffffffffffffffffffffff\n      and\n      eq\n        /* \"contracts/nft.sol\":8188:8266  require(nft.ownerOf(tokenId) == from, \"ERC721: transfer from incorrect owner\") */\n      tag_196\n      jumpi\n      mload(0x40)\n      0x08c379a000000000000000000000000000000000000000000000000000000000\n      dup2\n      mstore\n      0x04\n      add\n      tag_197\n      swap1\n      tag_198\n      jump\t// in\n    tag_197:\n      mload(0x40)\n      dup1\n      swap2\n      sub\n      swap1\n      revert\n    tag_196:\n        /* \"contracts/nft.sol\":8299:8300  0 */\n      0x00\n        /* \"contracts/nft.sol\":8285:8301  to != address(0) */\n      0xffffffffffffffffffffffffffffffffffffffff\n      and\n        /* \"contracts/nft.sol\":8285:8287  to */\n      dup3\n        /* \"contracts/nft.sol\":8285:8301  to != address(0) */\n      0xffffffffffffffffffffffffffffffffffffffff\n      and\n      eq\n      iszero\n        /* \"contracts/nft.sol\":8277:8342  require(to != address(0), \"ERC721: transfer to the zero address\") */\n      tag_199\n      jumpi\n      mload(0x40)\n      0x08c379a000000000000000000000000000000000000000000000000000000000\n      dup2\n      mstore\n      0x04\n      add\n      tag_200\n      swap1\n      tag_201\n      jump\t// in\n    tag_200:\n      mload(0x40)\n      dup1\n      swap2\n      sub\n      swap1\n      revert\n    tag_199:\n        /* \"contracts/nft.sol\":8355:8394  _beforeTokenTransfer(from, to, tokenId) */\n      tag_202\n        /* \"contracts/nft.sol\":8376:8380  from */\n      dup4\n        /* \"contracts/nft.sol\":8382:8384  to */\n      dup4\n        /* \"contracts/nft.sol\":8386:8393  tokenId */\n      dup4\n        /* \"contracts/nft.sol\":8355:8375  _beforeTokenTransfer */\n      tag_203\n        /* \"contracts/nft.sol\":8355:8394  _beforeTokenTransfer(from, to, tokenId) */\n      jump\t// in\n    tag_202:\n        /* \"contracts/nft.sol\":8439:8443  from */\n      dup3\n        /* \"contracts/nft.sol\":8415:8443  nft.ownerOf(tokenId) == from */\n      0xffffffffffffffffffffffffffffffffffffffff\n      and\n        /* \"contracts/nft.sol\":8415:8435  nft.ownerOf(tokenId) */\n      tag_204\n        /* \"contracts/nft.sol\":8427:8434  tokenId */\n      dup3\n        /* \"contracts/nft.sol\":8415:8426  nft.ownerOf */\n      tag_55\n        /* \"contracts/nft.sol\":8415:8435  nft.ownerOf(tokenId) */\n      jump\t// in\n    tag_204:\n        /* \"contracts/nft.sol\":8415:8443  nft.ownerOf(tokenId) == from */\n      0xffffffffffffffffffffffffffffffffffffffff\n      and\n      eq\n        /* \"contracts/nft.sol\":8407:8485  require(nft.ownerOf(tokenId) == from, \"ERC721: transfer from incorrect owner\") */\n      tag_205\n      jumpi\n      mload(0x40)\n      0x08c379a000000000000000000000000000000000000000000000000000000000\n      dup2\n      mstore\n      0x04\n      add\n      tag_206\n      swap1\n      tag_198\n      jump\t// in\n    tag_206:\n      mload(0x40)\n      dup1\n      swap2\n      sub\n      swap1\n      revert\n    tag_205:\n        /* \"contracts/nft.sol\":8557:8572  _tokenApprovals */\n      0x07\n        /* \"contracts/nft.sol\":8557:8581  _tokenApprovals[tokenId] */\n      0x00\n        /* \"contracts/nft.sol\":8573:8580  tokenId */\n      dup3\n        /* \"contracts/nft.sol\":8557:8581  _tokenApprovals[tokenId] */\n      dup2\n      mstore\n      0x20\n      add\n      swap1\n      dup2\n      mstore\n      0x20\n      add\n      0x00\n      keccak256\n      0x00\n        /* \"contracts/nft.sol\":8550:8581  delete _tokenApprovals[tokenId] */\n      0x0100\n      exp\n      dup2\n      sload\n      swap1\n      0xffffffffffffffffffffffffffffffffffffffff\n      mul\n      not\n      and\n      swap1\n      sstore\n        /* \"contracts/nft.sol\":8640:8641  1 */\n      0x01\n        /* \"contracts/nft.sol\":8621:8630  _balances */\n      0x06\n        /* \"contracts/nft.sol\":8621:8636  _balances[from] */\n      0x00\n        /* \"contracts/nft.sol\":8631:8635  from */\n      dup6\n        /* \"contracts/nft.sol\":8621:8636  _balances[from] */\n      0xffffffffffffffffffffffffffffffffffffffff\n      and\n      0xffffffffffffffffffffffffffffffffffffffff\n      and\n      dup2\n      mstore\n      0x20\n      add\n      swap1\n      dup2\n      mstore\n      0x20\n      add\n      0x00\n      keccak256\n      0x00\n        /* \"contracts/nft.sol\":8621:8641  _balances[from] -= 1 */\n      dup3\n      dup3\n      sload\n      sub\n      swap3\n      pop\n      pop\n      dup2\n      swap1\n      sstore\n      pop\n        /* \"contracts/nft.sol\":8673:8674  1 */\n      0x01\n        /* \"contracts/nft.sol\":8656:8665  _balances */\n      0x06\n        /* \"contracts/nft.sol\":8656:8669  _balances[to] */\n      0x00\n        /* \"contracts/nft.sol\":8666:8668  to */\n      dup5\n        /* \"contracts/nft.sol\":8656:8669  _balances[to] */\n      0xffffffffffffffffffffffffffffffffffffffff\n      and\n      0xffffffffffffffffffffffffffffffffffffffff\n      and\n      dup2\n      mstore\n      0x20\n      add\n      swap1\n      dup2\n      mstore\n      0x20\n      add\n      0x00\n      keccak256\n      0x00\n        /* \"contracts/nft.sol\":8656:8674  _balances[to] += 1 */\n      dup3\n      dup3\n      sload\n      add\n      swap3\n      pop\n      pop\n      dup2\n      swap1\n      sstore\n      pop\n        /* \"contracts/nft.sol\":8715:8717  to */\n      dup2\n        /* \"contracts/nft.sol\":8696:8703  _owners */\n      0x02\n        /* \"contracts/nft.sol\":8696:8712  _owners[tokenId] */\n      0x00\n        /* \"contracts/nft.sol\":8704:8711  tokenId */\n      dup4\n        /* \"contracts/nft.sol\":8696:8712  _owners[tokenId] */\n      dup2\n      mstore\n      0x20\n      add\n      swap1\n      dup2\n      mstore\n      0x20\n      add\n      0x00\n      keccak256\n      0x00\n        /* \"contracts/nft.sol\":8696:8717  _owners[tokenId] = to */\n      0x0100\n      exp\n      dup2\n      sload\n      dup2\n      0xffffffffffffffffffffffffffffffffffffffff\n      mul\n      not\n      and\n      swap1\n      dup4\n      0xffffffffffffffffffffffffffffffffffffffff\n      and\n      mul\n      or\n      swap1\n      sstore\n      pop\n        /* \"contracts/nft.sol\":8754:8761  tokenId */\n      dup1\n        /* \"contracts/nft.sol\":8750:8752  to */\n      dup3\n        /* \"contracts/nft.sol\":8735:8762  Transfer(from, to, tokenId) */\n      0xffffffffffffffffffffffffffffffffffffffff\n      and\n        /* \"contracts/nft.sol\":8744:8748  from */\n      dup5\n        /* \"contracts/nft.sol\":8735:8762  Transfer(from, to, tokenId) */\n      0xffffffffffffffffffffffffffffffffffffffff\n      and\n      0xddf252ad1be2c89b69c2b068fc378daa952ba7f163c4a11628f55a4df523b3ef\n      mload(0x40)\n      mload(0x40)\n      dup1\n      swap2\n      sub\n      swap1\n      log4\n        /* \"contracts/nft.sol\":8775:8813  _afterTokenTransfer(from, to, tokenId) */\n      tag_207\n        /* \"contracts/nft.sol\":8795:8799  from */\n      dup4\n        /* \"contracts/nft.sol\":8801:8803  to */\n      dup4\n        /* \"contracts/nft.sol\":8805:8812  tokenId */\n      dup4\n        /* \"contracts/nft.sol\":8775:8794  _afterTokenTransfer */\n      tag_208\n        /* \"contracts/nft.sol\":8775:8813  _afterTokenTransfer(from, to, tokenId) */\n      jump\t// in\n    tag_207:\n        /* \"contracts/nft.sol\":8064:8821  function _transfer(\r... */\n      pop\n      pop\n      pop\n      jump\t// out\n        /* \"contracts/nft.sol\":9010:9325  function _setApprovalForAll(\r... */\n    tag_152:\n        /* \"contracts/nft.sol\":9165:9173  operator */\n      dup2\n        /* \"contracts/nft.sol\":9156:9173  owner != operator */\n      0xffffffffffffffffffffffffffffffffffffffff\n      and\n        /* \"contracts/nft.sol\":9156:9161  owner */\n      dup4\n        /* \"contracts/nft.sol\":9156:9173  owner != operator */\n      0xffffffffffffffffffffffffffffffffffffffff\n      and\n      eq\n      iszero\n        /* \"contracts/nft.sol\":9148:9203  require(owner != operator, \"ERC721: approve to caller\") */\n      tag_210\n      jumpi\n      mload(0x40)\n      0x08c379a000000000000000000000000000000000000000000000000000000000\n      dup2\n      mstore\n      0x04\n      add\n      tag_211\n      swap1\n      tag_212\n      jump\t// in\n    tag_211:\n      mload(0x40)\n      dup1\n      swap2\n      sub\n      swap1\n      revert\n    tag_210:\n        /* \"contracts/nft.sol\":9252:9260  approved */\n      dup1\n        /* \"contracts/nft.sol\":9214:9232  _operatorApprovals */\n      0x08\n        /* \"contracts/nft.sol\":9214:9239  _operatorApprovals[owner] */\n      0x00\n        /* \"contracts/nft.sol\":9233:9238  owner */\n      dup6\n        /* \"contracts/nft.sol\":9214:9239  _operatorApprovals[owner] */\n      0xffffffffffffffffffffffffffffffffffffffff\n      and\n      0xffffffffffffffffffffffffffffffffffffffff\n      and\n      dup2\n      mstore\n      0x20\n      add\n      swap1\n      dup2\n      mstore\n      0x20\n      add\n      0x00\n      keccak256\n        /* \"contracts/nft.sol\":9214:9249  _operatorApprovals[owner][operator] */\n      0x00\n        /* \"contracts/nft.sol\":9240:9248  operator */\n      dup5\n        /* \"contracts/nft.sol\":9214:9249  _operatorApprovals[owner][operator] */\n      0xffffffffffffffffffffffffffffffffffffffff\n      and\n      0xffffffffffffffffffffffffffffffffffffffff\n      and\n      dup2\n      mstore\n      0x20\n      add\n      swap1\n      dup2\n      mstore\n      0x20\n      add\n      0x00\n      keccak256\n      0x00\n        /* \"contracts/nft.sol\":9214:9260  _operatorApprovals[owner][operator] = approved */\n      0x0100\n      exp\n      dup2\n      sload\n      dup2\n      0xff\n      mul\n      not\n      and\n      swap1\n      dup4\n      iszero\n      iszero\n      mul\n      or\n      swap1\n      sstore\n      pop\n        /* \"contracts/nft.sol\":9298:9306  operator */\n      dup2\n        /* \"contracts/nft.sol\":9276:9317  ApprovalForAll(owner, operator, approved) */\n      0xffffffffffffffffffffffffffffffffffffffff\n      and\n        /* \"contracts/nft.sol\":9291:9296  owner */\n      dup4\n        /* \"contracts/nft.sol\":9276:9317  ApprovalForAll(owner, operator, approved) */\n      0xffffffffffffffffffffffffffffffffffffffff\n      and\n      0x17307eab39ab6107e8899845ad3d59bd9653f200f220920489ca2b5937696c31\n        /* \"contracts/nft.sol\":9308:9316  approved */\n      dup4\n        /* \"contracts/nft.sol\":9276:9317  ApprovalForAll(owner, operator, approved) */\n      mload(0x40)\n      tag_213\n      swap2\n      swap1\n      tag_27\n      jump\t// in\n    tag_213:\n      mload(0x40)\n      dup1\n      swap2\n      sub\n      swap1\n      log3\n        /* \"contracts/nft.sol\":9010:9325  function _setApprovalForAll(\r... */\n      pop\n      pop\n      pop\n      jump\t// out\n        /* \"contracts/nft.sol\":6125:6269  function _safeMint(address to,address collaborator ,uint256 tokenId) internal virtual {\r... */\n    tag_155:\n        /* \"contracts/nft.sol\":6222:6261  _safeMint(to, collaborator,tokenId, \"\") */\n      tag_215\n        /* \"contracts/nft.sol\":6232:6234  to */\n      dup4\n        /* \"contracts/nft.sol\":6236:6248  collaborator */\n      dup4\n        /* \"contracts/nft.sol\":6249:6256  tokenId */\n      dup4\n        /* \"contracts/nft.sol\":6222:6261  _safeMint(to, collaborator,tokenId, \"\") */\n      mload(0x40)\n      dup1\n      0x20\n      add\n      0x40\n      mstore\n      dup1\n      0x00\n      dup2\n      mstore\n      pop\n        /* \"contracts/nft.sol\":6222:6231  _safeMint */\n      tag_216\n        /* \"contracts/nft.sol\":6222:6261  _safeMint(to, collaborator,tokenId, \"\") */\n      jump\t// in\n    tag_215:\n        /* \"contracts/nft.sol\":6125:6269  function _safeMint(address to,address collaborator ,uint256 tokenId) internal virtual {\r... */\n      pop\n      pop\n      pop\n      jump\t// out\n        /* \"contracts/nft.sol\":7837:8054  function _setTokenURI(uint256 tokenId, string memory _tokenURI) internal virtual {\r... */\n    tag_157:\n        /* \"contracts/nft.sol\":7937:7953  _exists(tokenId) */\n      tag_218\n        /* \"contracts/nft.sol\":7945:7952  tokenId */\n      dup3\n        /* \"contracts/nft.sol\":7937:7944  _exists */\n      tag_182\n        /* \"contracts/nft.sol\":7937:7953  _exists(tokenId) */\n      jump\t// in\n    tag_218:\n        /* \"contracts/nft.sol\":7929:8004  require(_exists(tokenId), \"ERC721URIStorage: URI set of nonexistent token\") */\n      tag_219\n      jumpi\n      mload(0x40)\n      0x08c379a000000000000000000000000000000000000000000000000000000000\n      dup2\n      mstore\n      0x04\n      add\n      tag_220\n      swap1\n      tag_221\n      jump\t// in\n    tag_220:\n      mload(0x40)\n      dup1\n      swap2\n      sub\n      swap1\n      revert\n    tag_219:\n        /* \"contracts/nft.sol\":8037:8046  _tokenURI */\n      dup1\n        /* \"contracts/nft.sol\":8015:8025  _tokenURIs */\n      0x09\n        /* \"contracts/nft.sol\":8015:8034  _tokenURIs[tokenId] */\n      0x00\n        /* \"contracts/nft.sol\":8026:8033  tokenId */\n      dup5\n        /* \"contracts/nft.sol\":8015:8034  _tokenURIs[tokenId] */\n      dup2\n      mstore\n      0x20\n      add\n      swap1\n      dup2\n      mstore\n      0x20\n      add\n      0x00\n      keccak256\n        /* \"contracts/nft.sol\":8015:8046  _tokenURIs[tokenId] = _tokenURI */\n      swap1\n      dup1\n      mload\n      swap1\n      0x20\n      add\n      swap1\n      tag_222\n      swap3\n      swap2\n      swap1\n      tag_223\n      jump\t// in\n    tag_222:\n      pop\n        /* \"contracts/nft.sol\":7837:8054  function _setTokenURI(uint256 tokenId, string memory _tokenURI) internal virtual {\r... */\n      pop\n      pop\n      jump\t// out\n        /* \"contracts/nft.sol\":5398:5711  function _safeTransfer(\r... */\n    tag_164:\n        /* \"contracts/nft.sol\":5554:5582  _transfer(from, to, tokenId) */\n      tag_225\n        /* \"contracts/nft.sol\":5564:5568  from */\n      dup5\n        /* \"contracts/nft.sol\":5570:5572  to */\n      dup5\n        /* \"contracts/nft.sol\":5574:5581  tokenId */\n      dup5\n        /* \"contracts/nft.sol\":5554:5563  _transfer */\n      tag_129\n        /* \"contracts/nft.sol\":5554:5582  _transfer(from, to, tokenId) */\n      jump\t// in\n    tag_225:\n        /* \"contracts/nft.sol\":5601:5648  _checkOnERC721Received(from, to, tokenId, data) */\n      tag_226\n        /* \"contracts/nft.sol\":5624:5628  from */\n      dup5\n        /* \"contracts/nft.sol\":5630:5632  to */\n      dup5\n        /* \"contracts/nft.sol\":5634:5641  tokenId */\n      dup5\n        /* \"contracts/nft.sol\":5643:5647  data */\n      dup5\n        /* \"contracts/nft.sol\":5601:5623  _checkOnERC721Received */\n      tag_227\n        /* \"contracts/nft.sol\":5601:5648  _checkOnERC721Received(from, to, tokenId, data) */\n      jump\t// in\n    tag_226:\n        /* \"contracts/nft.sol\":5593:5703  require(_checkOnERC721Received(from, to, tokenId, data), \"ERC721: transfer to non ERC721Receiver implementer\") */\n      tag_228\n      jumpi\n      mload(0x40)\n      0x08c379a000000000000000000000000000000000000000000000000000000000\n      dup2\n      mstore\n      0x04\n      add\n      tag_229\n      swap1\n      tag_230\n      jump\t// in\n    tag_229:\n      mload(0x40)\n      dup1\n      swap2\n      sub\n      swap1\n      revert\n    tag_228:\n        /* \"contracts/nft.sol\":5398:5711  function _safeTransfer(\r... */\n      pop\n      pop\n      pop\n      pop\n      jump\t// out\n        /* \"contracts/nft.sol\":3347:3441  function _baseURI() internal view virtual returns (string memory) {\r... */\n    tag_168:\n        /* \"contracts/nft.sol\":3398:3411  string memory */\n      0x60\n        /* \"contracts/nft.sol\":3424:3433  return \"\" */\n      mload(0x40)\n      dup1\n      0x20\n      add\n      0x40\n      mstore\n      dup1\n      0x00\n      dup2\n      mstore\n      pop\n      swap1\n      pop\n        /* \"contracts/nft.sol\":3347:3441  function _baseURI() internal view virtual returns (string memory) {\r... */\n      swap1\n      jump\t// out\n        /* \"@openzeppelin/contracts@4.6.0/utils/Strings.sol\":328:1031  function toString(uint256 value) internal pure returns (string memory) {... */\n    tag_172:\n        /* \"@openzeppelin/contracts@4.6.0/utils/Strings.sol\":384:397  string memory */\n      0x60\n        /* \"@openzeppelin/contracts@4.6.0/utils/Strings.sol\":610:611  0 */\n      0x00\n        /* \"@openzeppelin/contracts@4.6.0/utils/Strings.sol\":601:606  value */\n      dup3\n        /* \"@openzeppelin/contracts@4.6.0/utils/Strings.sol\":601:611  value == 0 */\n      eq\n        /* \"@openzeppelin/contracts@4.6.0/utils/Strings.sol\":597:648  if (value == 0) {... */\n      iszero\n      tag_233\n      jumpi\n        /* \"@openzeppelin/contracts@4.6.0/utils/Strings.sol\":627:637  return \"0\" */\n      mload(0x40)\n      dup1\n      0x40\n      add\n      0x40\n      mstore\n      dup1\n      0x01\n      dup2\n      mstore\n      0x20\n      add\n      0x3000000000000000000000000000000000000000000000000000000000000000\n      dup2\n      mstore\n      pop\n      swap1\n      pop\n      jump(tag_232)\n        /* \"@openzeppelin/contracts@4.6.0/utils/Strings.sol\":597:648  if (value == 0) {... */\n    tag_233:\n        /* \"@openzeppelin/contracts@4.6.0/utils/Strings.sol\":657:669  uint256 temp */\n      0x00\n        /* \"@openzeppelin/contracts@4.6.0/utils/Strings.sol\":672:677  value */\n      dup3\n        /* \"@openzeppelin/contracts@4.6.0/utils/Strings.sol\":657:677  uint256 temp = value */\n      swap1\n      pop\n        /* \"@openzeppelin/contracts@4.6.0/utils/Strings.sol\":687:701  uint256 digits */\n      0x00\n        /* \"@openzeppelin/contracts@4.6.0/utils/Strings.sol\":711:786  while (temp != 0) {... */\n    tag_234:\n        /* \"@openzeppelin/contracts@4.6.0/utils/Strings.sol\":726:727  0 */\n      0x00\n        /* \"@openzeppelin/contracts@4.6.0/utils/Strings.sol\":718:722  temp */\n      dup3\n        /* \"@openzeppelin/contracts@4.6.0/utils/Strings.sol\":718:727  temp != 0 */\n      eq\n        /* \"@openzeppelin/contracts@4.6.0/utils/Strings.sol\":711:786  while (temp != 0) {... */\n      tag_235\n      jumpi\n        /* \"@openzeppelin/contracts@4.6.0/utils/Strings.sol\":743:751  digits++ */\n      dup1\n      dup1\n      tag_236\n      swap1\n      tag_237\n      jump\t// in\n    tag_236:\n      swap2\n      pop\n      pop\n        /* \"@openzeppelin/contracts@4.6.0/utils/Strings.sol\":773:775  10 */\n      0x0a\n        /* \"@openzeppelin/contracts@4.6.0/utils/Strings.sol\":765:775  temp /= 10 */\n      dup3\n      tag_238\n      swap2\n      swap1\n      tag_239\n      jump\t// in\n    tag_238:\n      swap2\n      pop\n        /* \"@openzeppelin/contracts@4.6.0/utils/Strings.sol\":711:786  while (temp != 0) {... */\n      jump(tag_234)\n    tag_235:\n        /* \"@openzeppelin/contracts@4.6.0/utils/Strings.sol\":795:814  bytes memory buffer */\n      0x00\n        /* \"@openzeppelin/contracts@4.6.0/utils/Strings.sol\":827:833  digits */\n      dup2\n        /* \"@openzeppelin/contracts@4.6.0/utils/Strings.sol\":817:834  new bytes(digits) */\n      0xffffffffffffffff\n      dup2\n      gt\n      iszero\n      tag_240\n      jumpi\n      mstore(0x00, 0x4e487b7100000000000000000000000000000000000000000000000000000000)\n      mstore(0x04, 0x41)\n      revert(0x00, 0x24)\n    tag_240:\n      mload(0x40)\n      swap1\n      dup1\n      dup3\n      mstore\n      dup1\n      0x1f\n      add\n      not(0x1f)\n      and\n      0x20\n      add\n      dup3\n      add\n      0x40\n      mstore\n      dup1\n      iszero\n      tag_241\n      jumpi\n      dup2\n      0x20\n      add\n      0x01\n      dup3\n      mul\n      dup1\n      calldatasize\n      dup4\n      calldatacopy\n      dup1\n      dup3\n      add\n      swap2\n      pop\n      pop\n      swap1\n      pop\n    tag_241:\n      pop\n        /* \"@openzeppelin/contracts@4.6.0/utils/Strings.sol\":795:834  bytes memory buffer = new bytes(digits) */\n      swap1\n      pop\n        /* \"@openzeppelin/contracts@4.6.0/utils/Strings.sol\":844:994  while (value != 0) {... */\n    tag_242:\n        /* \"@openzeppelin/contracts@4.6.0/utils/Strings.sol\":860:861  0 */\n      0x00\n        /* \"@openzeppelin/contracts@4.6.0/utils/Strings.sol\":851:856  value */\n      dup6\n        /* \"@openzeppelin/contracts@4.6.0/utils/Strings.sol\":851:861  value != 0 */\n      eq\n        /* \"@openzeppelin/contracts@4.6.0/utils/Strings.sol\":844:994  while (value != 0) {... */\n      tag_243\n      jumpi\n        /* \"@openzeppelin/contracts@4.6.0/utils/Strings.sol\":887:888  1 */\n      0x01\n        /* \"@openzeppelin/contracts@4.6.0/utils/Strings.sol\":877:888  digits -= 1 */\n      dup3\n      tag_244\n      swap2\n      swap1\n      tag_245\n      jump\t// in\n    tag_244:\n      swap2\n      pop\n        /* \"@openzeppelin/contracts@4.6.0/utils/Strings.sol\":953:955  10 */\n      0x0a\n        /* \"@openzeppelin/contracts@4.6.0/utils/Strings.sol\":945:950  value */\n      dup6\n        /* \"@openzeppelin/contracts@4.6.0/utils/Strings.sol\":945:955  value % 10 */\n      tag_246\n      swap2\n      swap1\n      tag_247\n      jump\t// in\n    tag_246:\n        /* \"@openzeppelin/contracts@4.6.0/utils/Strings.sol\":932:934  48 */\n      0x30\n        /* \"@openzeppelin/contracts@4.6.0/utils/Strings.sol\":932:956  48 + uint256(value % 10) */\n      tag_248\n      swap2\n      swap1\n      tag_249\n      jump\t// in\n    tag_248:\n        /* \"@openzeppelin/contracts@4.6.0/utils/Strings.sol\":919:958  bytes1(uint8(48 + uint256(value % 10))) */\n      0xf8\n      shl\n        /* \"@openzeppelin/contracts@4.6.0/utils/Strings.sol\":902:908  buffer */\n      dup2\n        /* \"@openzeppelin/contracts@4.6.0/utils/Strings.sol\":909:915  digits */\n      dup4\n        /* \"@openzeppelin/contracts@4.6.0/utils/Strings.sol\":902:916  buffer[digits] */\n      dup2\n      mload\n      dup2\n      lt\n      tag_250\n      jumpi\n      mstore(0x00, 0x4e487b7100000000000000000000000000000000000000000000000000000000)\n      mstore(0x04, 0x32)\n      revert(0x00, 0x24)\n    tag_250:\n      0x20\n      add\n      add\n        /* \"@openzeppelin/contracts@4.6.0/utils/Strings.sol\":902:958  buffer[digits] = bytes1(uint8(48 + uint256(value % 10))) */\n      swap1\n      not(0xffffffffffffffffffffffffffffffffffffffffffffffffffffffffffffff)\n      and\n      swap1\n      dup2\n      0x00\n      byte\n      swap1\n      mstore8\n      pop\n        /* \"@openzeppelin/contracts@4.6.0/utils/Strings.sol\":981:983  10 */\n      0x0a\n        /* \"@openzeppelin/contracts@4.6.0/utils/Strings.sol\":972:983  value /= 10 */\n      dup6\n      tag_251\n      swap2\n      swap1\n      tag_239\n      jump\t// in\n    tag_251:\n      swap5\n      pop\n        /* \"@openzeppelin/contracts@4.6.0/utils/Strings.sol\":844:994  while (value != 0) {... */\n      jump(tag_242)\n    tag_243:\n        /* \"@openzeppelin/contracts@4.6.0/utils/Strings.sol\":1017:1023  buffer */\n      dup1\n        /* \"@openzeppelin/contracts@4.6.0/utils/Strings.sol\":1003:1024  return string(buffer) */\n      swap4\n      pop\n      pop\n      pop\n      pop\n        /* \"@openzeppelin/contracts@4.6.0/utils/Strings.sol\":328:1031  function toString(uint256 value) internal pure returns (string memory) {... */\n    tag_232:\n      swap2\n      swap1\n      pop\n      jump\t// out\n        /* \"contracts/nft.sol\":5719:5846  function _exists(uint256 tokenId) internal view virtual returns (bool) {\r... */\n    tag_182:\n        /* \"contracts/nft.sol\":5784:5788  bool */\n      0x00\n        /* \"contracts/nft.sol\":5836:5837  0 */\n      dup1\n        /* \"contracts/nft.sol\":5808:5838  _owners[tokenId] != address(0) */\n      0xffffffffffffffffffffffffffffffffffffffff\n      and\n        /* \"contracts/nft.sol\":5808:5815  _owners */\n      0x02\n        /* \"contracts/nft.sol\":5808:5824  _owners[tokenId] */\n      0x00\n        /* \"contracts/nft.sol\":5816:5823  tokenId */\n      dup5\n        /* \"contracts/nft.sol\":5808:5824  _owners[tokenId] */\n      dup2\n      mstore\n      0x20\n      add\n      swap1\n      dup2\n      mstore\n      0x20\n      add\n      0x00\n      keccak256\n      0x00\n      swap1\n      sload\n      swap1\n      0x0100\n      exp\n      swap1\n      div\n      0xffffffffffffffffffffffffffffffffffffffff\n      and\n        /* \"contracts/nft.sol\":5808:5838  _owners[tokenId] != address(0) */\n      0xffffffffffffffffffffffffffffffffffffffff\n      and\n      eq\n      iszero\n        /* \"contracts/nft.sol\":5801:5838  return _owners[tokenId] != address(0) */\n      swap1\n      pop\n        /* \"contracts/nft.sol\":5719:5846  function _exists(uint256 tokenId) internal view virtual returns (bool) {\r... */\n      swap2\n      swap1\n      pop\n      jump\t// out\n        /* \"contracts/nft.sol\":10341:10467  function _beforeTokenTransfer(\r... */\n    tag_203:\n      pop\n      pop\n      pop\n      jump\t// out\n        /* \"contracts/nft.sol\":10475:10600  function _afterTokenTransfer(\r... */\n    tag_208:\n      pop\n      pop\n      pop\n      jump\t// out\n        /* \"contracts/nft.sol\":6277:6641  function _safeMint(\r... */\n    tag_216:\n        /* \"contracts/nft.sol\":6437:6469  _mint(to, collaborator, tokenId) */\n      tag_256\n        /* \"contracts/nft.sol\":6443:6445  to */\n      dup5\n        /* \"contracts/nft.sol\":6447:6459  collaborator */\n      dup5\n        /* \"contracts/nft.sol\":6461:6468  tokenId */\n      dup5\n        /* \"contracts/nft.sol\":6437:6442  _mint */\n      tag_257\n        /* \"contracts/nft.sol\":6437:6469  _mint(to, collaborator, tokenId) */\n      jump\t// in\n    tag_256:\n        /* \"contracts/nft.sol\":6502:6555  _checkOnERC721Received(address(0), to, tokenId, data) */\n      tag_258\n        /* \"contracts/nft.sol\":6533:6534  0 */\n      0x00\n        /* \"contracts/nft.sol\":6537:6539  to */\n      dup6\n        /* \"contracts/nft.sol\":6541:6548  tokenId */\n      dup5\n        /* \"contracts/nft.sol\":6550:6554  data */\n      dup5\n        /* \"contracts/nft.sol\":6502:6524  _checkOnERC721Received */\n      tag_227\n        /* \"contracts/nft.sol\":6502:6555  _checkOnERC721Received(address(0), to, tokenId, data) */\n      jump\t// in\n    tag_258:\n        /* \"contracts/nft.sol\":6480:6633  require(\r... */\n      tag_259\n      jumpi\n      mload(0x40)\n      0x08c379a000000000000000000000000000000000000000000000000000000000\n      dup2\n      mstore\n      0x04\n      add\n      tag_260\n      swap1\n      tag_230\n      jump\t// in\n    tag_260:\n      mload(0x40)\n      dup1\n      swap2\n      sub\n      swap1\n      revert\n    tag_259:\n        /* \"contracts/nft.sol\":6277:6641  function _safeMint(\r... */\n      pop\n      pop\n      pop\n      pop\n      jump\t// out\n        /* \"contracts/nft.sol\":9478:10331  function _checkOnERC721Received(\r... */\n    tag_227:\n        /* \"contracts/nft.sol\":9632:9636  bool */\n      0x00\n        /* \"contracts/nft.sol\":9653:9668  to.isContract() */\n      tag_262\n        /* \"contracts/nft.sol\":9653:9655  to */\n      dup5\n        /* \"contracts/nft.sol\":9653:9666  to.isContract */\n      0xffffffffffffffffffffffffffffffffffffffff\n      and\n      tag_263\n        /* \"contracts/nft.sol\":9653:9668  to.isContract() */\n      jump\t// in\n    tag_262:\n        /* \"contracts/nft.sol\":9649:10324  if (to.isContract()) {\r... */\n      iszero\n      tag_264\n      jumpi\n        /* \"contracts/nft.sol\":9705:9707  to */\n      dup4\n        /* \"contracts/nft.sol\":9689:9725  IERC721Receiver(to).onERC721Received */\n      0xffffffffffffffffffffffffffffffffffffffff\n      and\n      0x150b7a02\n        /* \"contracts/nft.sol\":9726:9738  _msgSender() */\n      tag_265\n        /* \"contracts/nft.sol\":9726:9736  _msgSender */\n      tag_112\n        /* \"contracts/nft.sol\":9726:9738  _msgSender() */\n      jump\t// in\n    tag_265:\n        /* \"contracts/nft.sol\":9740:9744  from */\n      dup8\n        /* \"contracts/nft.sol\":9746:9753  tokenId */\n      dup7\n        /* \"contracts/nft.sol\":9755:9759  data */\n      dup7\n        /* \"contracts/nft.sol\":9689:9760  IERC721Receiver(to).onERC721Received(_msgSender(), from, tokenId, data) */\n      mload(0x40)\n      dup6\n      0xffffffff\n      and\n      0xe0\n      shl\n      dup2\n      mstore\n      0x04\n      add\n      tag_266\n      swap5\n      swap4\n      swap3\n      swap2\n      swap1\n      tag_267\n      jump\t// in\n    tag_266:\n      0x20\n      mload(0x40)\n      dup1\n      dup4\n      sub\n      dup2\n      0x00\n      dup8\n      dup1\n      extcodesize\n      iszero\n      dup1\n      iszero\n      tag_268\n      jumpi\n      0x00\n      dup1\n      revert\n    tag_268:\n      pop\n      gas\n      call\n      swap3\n      pop\n      pop\n      pop\n      dup1\n      iszero\n      tag_269\n      jumpi\n      pop\n      mload(0x40)\n      returndatasize\n      not(0x1f)\n      0x1f\n      dup3\n      add\n      and\n      dup3\n      add\n      dup1\n      0x40\n      mstore\n      pop\n      dup2\n      add\n      swap1\n      tag_270\n      swap2\n      swap1\n      tag_271\n      jump\t// in\n    tag_270:\n      0x01\n    tag_269:\n        /* \"contracts/nft.sol\":9685:10269  try IERC721Receiver(to).onERC721Received(_msgSender(), from, tokenId, data) returns (bytes4 retval) {\r... */\n      tag_272\n      jumpi\n      returndatasize\n      dup1\n      0x00\n      dup2\n      eq\n      tag_277\n      jumpi\n      mload(0x40)\n      swap2\n      pop\n      and(add(returndatasize, 0x3f), not(0x1f))\n      dup3\n      add\n      0x40\n      mstore\n      returndatasize\n      dup3\n      mstore\n      returndatasize\n      0x00\n      0x20\n      dup5\n      add\n      returndatacopy\n      jump(tag_276)\n    tag_277:\n      0x60\n      swap2\n      pop\n    tag_276:\n      pop\n        /* \"contracts/nft.sol\":9947:9948  0 */\n      0x00\n        /* \"contracts/nft.sol\":9930:9936  reason */\n      dup2\n        /* \"contracts/nft.sol\":9930:9943  reason.length */\n      mload\n        /* \"contracts/nft.sol\":9930:9948  reason.length == 0 */\n      eq\n        /* \"contracts/nft.sol\":9926:10254  if (reason.length == 0) {\r... */\n      iszero\n      tag_278\n      jumpi\n        /* \"contracts/nft.sol\":9973:10033  revert(\"ERC721: transfer to non ERC721Receiver implementer\") */\n      mload(0x40)\n      0x08c379a000000000000000000000000000000000000000000000000000000000\n      dup2\n      mstore\n      0x04\n      add\n      tag_279\n      swap1\n      tag_230\n      jump\t// in\n    tag_279:\n      mload(0x40)\n      dup1\n      swap2\n      sub\n      swap1\n      revert\n        /* \"contracts/nft.sol\":9926:10254  if (reason.length == 0) {\r... */\n    tag_278:\n        /* \"contracts/nft.sol\":10204:10210  reason */\n      dup1\n        /* \"contracts/nft.sol\":10198:10211  mload(reason) */\n      mload\n        /* \"contracts/nft.sol\":10189:10195  reason */\n      dup2\n        /* \"contracts/nft.sol\":10185:10187  32 */\n      0x20\n        /* \"contracts/nft.sol\":10181:10196  add(32, reason) */\n      add\n        /* \"contracts/nft.sol\":10174:10212  revert(add(32, reason), mload(reason)) */\n      revert\n        /* \"contracts/nft.sol\":9685:10269  try IERC721Receiver(to).onERC721Received(_msgSender(), from, tokenId, data) returns (bytes4 retval) {\r... */\n    tag_272:\n        /* \"contracts/nft.sol\":9821:9862  IERC721Receiver.onERC721Received.selector */\n      shl(0xe0, 0x150b7a02)\n        /* \"contracts/nft.sol\":9811:9862  retval == IERC721Receiver.onERC721Received.selector */\n      not(0xffffffffffffffffffffffffffffffffffffffffffffffffffffffff)\n      and\n        /* \"contracts/nft.sol\":9811:9817  retval */\n      dup2\n        /* \"contracts/nft.sol\":9811:9862  retval == IERC721Receiver.onERC721Received.selector */\n      not(0xffffffffffffffffffffffffffffffffffffffffffffffffffffffff)\n      and\n      eq\n        /* \"contracts/nft.sol\":9804:9862  return retval == IERC721Receiver.onERC721Received.selector */\n      swap2\n      pop\n      pop\n      jump(tag_261)\n        /* \"contracts/nft.sol\":9649:10324  if (to.isContract()) {\r... */\n    tag_264:\n        /* \"contracts/nft.sol\":10308:10312  true */\n      0x01\n        /* \"contracts/nft.sol\":10301:10312  return true */\n      swap1\n      pop\n        /* \"contracts/nft.sol\":9478:10331  function _checkOnERC721Received(\r... */\n    tag_261:\n      swap5\n      swap4\n      pop\n      pop\n      pop\n      pop\n      jump\t// out\n        /* \"contracts/nft.sol\":6649:7348  function _mint(address to,address collaborator,uint256 tokenId) internal virtual {\r... */\n    tag_257:\n        /* \"contracts/nft.sol\":6763:6764  0 */\n      0x00\n        /* \"contracts/nft.sol\":6749:6765  to != address(0) */\n      0xffffffffffffffffffffffffffffffffffffffff\n      and\n        /* \"contracts/nft.sol\":6749:6751  to */\n      dup4\n        /* \"contracts/nft.sol\":6749:6765  to != address(0) */\n      0xffffffffffffffffffffffffffffffffffffffff\n      and\n      eq\n      iszero\n        /* \"contracts/nft.sol\":6741:6802  require(to != address(0), \"ERC721: mint to the zero address\") */\n      tag_284\n      jumpi\n      mload(0x40)\n      0x08c379a000000000000000000000000000000000000000000000000000000000\n      dup2\n      mstore\n      0x04\n      add\n      tag_285\n      swap1\n      tag_286\n      jump\t// in\n    tag_285:\n      mload(0x40)\n      dup1\n      swap2\n      sub\n      swap1\n      revert\n    tag_284:\n        /* \"contracts/nft.sol\":6845:6846  0 */\n      0x00\n        /* \"contracts/nft.sol\":6821:6847  collaborator != address(0) */\n      0xffffffffffffffffffffffffffffffffffffffff\n      and\n        /* \"contracts/nft.sol\":6821:6833  collaborator */\n      dup3\n        /* \"contracts/nft.sol\":6821:6847  collaborator != address(0) */\n      0xffffffffffffffffffffffffffffffffffffffff\n      and\n      eq\n      iszero\n        /* \"contracts/nft.sol\":6813:6884  require(collaborator != address(0), \"ERC721: mint to the zero address\") */\n      tag_287\n      jumpi\n      mload(0x40)\n      0x08c379a000000000000000000000000000000000000000000000000000000000\n      dup2\n      mstore\n      0x04\n      add\n      tag_288\n      swap1\n      tag_286\n      jump\t// in\n    tag_288:\n      mload(0x40)\n      dup1\n      swap2\n      sub\n      swap1\n      revert\n    tag_287:\n        /* \"contracts/nft.sol\":6904:6920  _exists(tokenId) */\n      tag_289\n        /* \"contracts/nft.sol\":6912:6919  tokenId */\n      dup2\n        /* \"contracts/nft.sol\":6904:6911  _exists */\n      tag_182\n        /* \"contracts/nft.sol\":6904:6920  _exists(tokenId) */\n      jump\t// in\n    tag_289:\n        /* \"contracts/nft.sol\":6903:6920  !_exists(tokenId) */\n      iszero\n        /* \"contracts/nft.sol\":6895:6953  require(!_exists(tokenId), \"ERC721: token already minted\") */\n      tag_290\n      jumpi\n      mload(0x40)\n      0x08c379a000000000000000000000000000000000000000000000000000000000\n      dup2\n      mstore\n      0x04\n      add\n      tag_291\n      swap1\n      tag_292\n      jump\t// in\n    tag_291:\n      mload(0x40)\n      dup1\n      swap2\n      sub\n      swap1\n      revert\n    tag_290:\n        /* \"contracts/nft.sol\":6966:7011  _beforeTokenTransfer(address(0), to, tokenId) */\n      tag_293\n        /* \"contracts/nft.sol\":6995:6996  0 */\n      0x00\n        /* \"contracts/nft.sol\":6999:7001  to */\n      dup5\n        /* \"contracts/nft.sol\":7003:7010  tokenId */\n      dup4\n        /* \"contracts/nft.sol\":6966:6986  _beforeTokenTransfer */\n      tag_203\n        /* \"contracts/nft.sol\":6966:7011  _beforeTokenTransfer(address(0), to, tokenId) */\n      jump\t// in\n    tag_293:\n        /* \"contracts/nft.sol\":7033:7049  _exists(tokenId) */\n      tag_294\n        /* \"contracts/nft.sol\":7041:7048  tokenId */\n      dup2\n        /* \"contracts/nft.sol\":7033:7040  _exists */\n      tag_182\n        /* \"contracts/nft.sol\":7033:7049  _exists(tokenId) */\n      jump\t// in\n    tag_294:\n        /* \"contracts/nft.sol\":7032:7049  !_exists(tokenId) */\n      iszero\n        /* \"contracts/nft.sol\":7024:7082  require(!_exists(tokenId), \"ERC721: token already minted\") */\n      tag_295\n      jumpi\n      mload(0x40)\n      0x08c379a000000000000000000000000000000000000000000000000000000000\n      dup2\n      mstore\n      0x04\n      add\n      tag_296\n      swap1\n      tag_292\n      jump\t// in\n    tag_296:\n      mload(0x40)\n      dup1\n      swap2\n      sub\n      swap1\n      revert\n    tag_295:\n        /* \"contracts/nft.sol\":7137:7138  1 */\n      0x01\n        /* \"contracts/nft.sol\":7120:7129  _balances */\n      0x06\n        /* \"contracts/nft.sol\":7120:7133  _balances[to] */\n      0x00\n        /* \"contracts/nft.sol\":7130:7132  to */\n      dup6\n        /* \"contracts/nft.sol\":7120:7133  _balances[to] */\n      0xffffffffffffffffffffffffffffffffffffffff\n      and\n      0xffffffffffffffffffffffffffffffffffffffff\n      and\n      dup2\n      mstore\n      0x20\n      add\n      swap1\n      dup2\n      mstore\n      0x20\n      add\n      0x00\n      keccak256\n      0x00\n        /* \"contracts/nft.sol\":7120:7138  _balances[to] += 1 */\n      dup3\n      dup3\n      sload\n      add\n      swap3\n      pop\n      pop\n      dup2\n      swap1\n      sstore\n      pop\n        /* \"contracts/nft.sol\":7181:7183  to */\n      dup3\n        /* \"contracts/nft.sol\":7162:7169  _owners */\n      0x02\n        /* \"contracts/nft.sol\":7162:7178  _owners[tokenId] */\n      0x00\n        /* \"contracts/nft.sol\":7170:7177  tokenId */\n      dup4\n        /* \"contracts/nft.sol\":7162:7178  _owners[tokenId] */\n      dup2\n      mstore\n      0x20\n      add\n      swap1\n      dup2\n      mstore\n      0x20\n      add\n      0x00\n      keccak256\n      0x00\n        /* \"contracts/nft.sol\":7162:7183  _owners[tokenId] = to */\n      0x0100\n      exp\n      dup2\n      sload\n      dup2\n      0xffffffffffffffffffffffffffffffffffffffff\n      mul\n      not\n      and\n      swap1\n      dup4\n      0xffffffffffffffffffffffffffffffffffffffff\n      and\n      mul\n      or\n      swap1\n      sstore\n      pop\n        /* \"contracts/nft.sol\":7220:7232  collaborator */\n      dup2\n        /* \"contracts/nft.sol\":7194:7208  _collaborators */\n      0x04\n        /* \"contracts/nft.sol\":7194:7217  _collaborators[tokenId] */\n      0x00\n        /* \"contracts/nft.sol\":7209:7216  tokenId */\n      dup4\n        /* \"contracts/nft.sol\":7194:7217  _collaborators[tokenId] */\n      dup2\n      mstore\n      0x20\n      add\n      swap1\n      dup2\n      mstore\n      0x20\n      add\n      0x00\n      keccak256\n      0x00\n        /* \"contracts/nft.sol\":7194:7232  _collaborators[tokenId] = collaborator */\n      0x0100\n      exp\n      dup2\n      sload\n      dup2\n      0xffffffffffffffffffffffffffffffffffffffff\n      mul\n      not\n      and\n      swap1\n      dup4\n      0xffffffffffffffffffffffffffffffffffffffff\n      and\n      mul\n      or\n      swap1\n      sstore\n      pop\n        /* \"contracts/nft.sol\":7275:7282  tokenId */\n      dup1\n        /* \"contracts/nft.sol\":7271:7273  to */\n      dup4\n        /* \"contracts/nft.sol\":7250:7283  Transfer(address(0), to, tokenId) */\n      0xffffffffffffffffffffffffffffffffffffffff\n      and\n        /* \"contracts/nft.sol\":7267:7268  0 */\n      0x00\n        /* \"contracts/nft.sol\":7250:7283  Transfer(address(0), to, tokenId) */\n      0xffffffffffffffffffffffffffffffffffffffff\n      and\n      0xddf252ad1be2c89b69c2b068fc378daa952ba7f163c4a11628f55a4df523b3ef\n      mload(0x40)\n      mload(0x40)\n      dup1\n      swap2\n      sub\n      swap1\n      log4\n        /* \"contracts/nft.sol\":7296:7340  _afterTokenTransfer(address(0), to, tokenId) */\n      tag_297\n        /* \"contracts/nft.sol\":7324:7325  0 */\n      0x00\n        /* \"contracts/nft.sol\":7328:7330  to */\n      dup5\n        /* \"contracts/nft.sol\":7332:7339  tokenId */\n      dup4\n        /* \"contracts/nft.sol\":7296:7315  _afterTokenTransfer */\n      tag_208\n        /* \"contracts/nft.sol\":7296:7340  _afterTokenTransfer(address(0), to, tokenId) */\n      jump\t// in\n    tag_297:\n        /* \"contracts/nft.sol\":6649:7348  function _mint(address to,address collaborator,uint256 tokenId) internal virtual {\r... */\n      pop\n      pop\n      pop\n      jump\t// out\n        /* \"@openzeppelin/contracts@4.6.0/utils/Address.sol\":1175:1495  function isContract(address account) internal view returns (bool) {... */\n    tag_263:\n        /* \"@openzeppelin/contracts@4.6.0/utils/Address.sol\":1235:1239  bool */\n      0x00\n        /* \"@openzeppelin/contracts@4.6.0/utils/Address.sol\":1487:1488  0 */\n      dup1\n        /* \"@openzeppelin/contracts@4.6.0/utils/Address.sol\":1465:1472  account */\n      dup3\n        /* \"@openzeppelin/contracts@4.6.0/utils/Address.sol\":1465:1484  account.code.length */\n      0xffffffffffffffffffffffffffffffffffffffff\n      and\n      extcodesize\n        /* \"@openzeppelin/contracts@4.6.0/utils/Address.sol\":1465:1488  account.code.length > 0 */\n      gt\n        /* \"@openzeppelin/contracts@4.6.0/utils/Address.sol\":1458:1488  return account.code.length > 0 */\n      swap1\n      pop\n        /* \"@openzeppelin/contracts@4.6.0/utils/Address.sol\":1175:1495  function isContract(address account) internal view returns (bool) {... */\n      swap2\n      swap1\n      pop\n      jump\t// out\n    tag_223:\n      dup3\n      dup1\n      sload\n      tag_299\n      swap1\n      tag_98\n      jump\t// in\n    tag_299:\n      swap1\n      0x00\n      mstore\n      keccak256(0x00, 0x20)\n      swap1\n      0x1f\n      add\n      0x20\n      swap1\n      div\n      dup2\n      add\n      swap3\n      dup3\n      tag_301\n      jumpi\n      0x00\n      dup6\n      sstore\n      jump(tag_300)\n    tag_301:\n      dup3\n      0x1f\n      lt\n      tag_302\n      jumpi\n      dup1\n      mload\n      not(0xff)\n      and\n      dup4\n      dup1\n      add\n      or\n      dup6\n      sstore\n      jump(tag_300)\n    tag_302:\n      dup3\n      dup1\n      add\n      0x01\n      add\n      dup6\n      sstore\n      dup3\n      iszero\n      tag_300\n      jumpi\n      swap2\n      dup3\n      add\n    tag_303:\n      dup3\n      dup2\n      gt\n      iszero\n      tag_304\n      jumpi\n      dup3\n      mload\n      dup3\n      sstore\n      swap2\n      0x20\n      add\n      swap2\n      swap1\n      0x01\n      add\n      swap1\n      jump(tag_303)\n    tag_304:\n    tag_300:\n      pop\n      swap1\n      pop\n      tag_305\n      swap2\n      swap1\n      tag_306\n      jump\t// in\n    tag_305:\n      pop\n      swap1\n      jump\t// out\n    tag_306:\n    tag_307:\n      dup1\n      dup3\n      gt\n      iszero\n      tag_308\n      jumpi\n      0x00\n      dup2\n      0x00\n      swap1\n      sstore\n      pop\n      0x01\n      add\n      jump(tag_307)\n    tag_308:\n      pop\n      swap1\n      jump\t// out\n        /* \"#utility.yul\":7:350   */\n    tag_310:\n        /* \"#utility.yul\":84:89   */\n      0x00\n        /* \"#utility.yul\":109:174   */\n      tag_312\n        /* \"#utility.yul\":125:173   */\n      tag_313\n        /* \"#utility.yul\":166:172   */\n      dup5\n        /* \"#utility.yul\":125:173   */\n      tag_314\n      jump\t// in\n    tag_313:\n        /* \"#utility.yul\":109:174   */\n      tag_315\n      jump\t// in\n    tag_312:\n        /* \"#utility.yul\":100:174   */\n      swap1\n      pop\n        /* \"#utility.yul\":197:203   */\n      dup3\n        /* \"#utility.yul\":190:195   */\n      dup2\n        /* \"#utility.yul\":183:204   */\n      mstore\n        /* \"#utility.yul\":235:239   */\n      0x20\n        /* \"#utility.yul\":228:233   */\n      dup2\n        /* \"#utility.yul\":224:240   */\n      add\n        /* \"#utility.yul\":273:276   */\n      dup5\n        /* \"#utility.yul\":264:270   */\n      dup5\n        /* \"#utility.yul\":259:262   */\n      dup5\n        /* \"#utility.yul\":255:271   */\n      add\n        /* \"#utility.yul\":252:277   */\n      gt\n        /* \"#utility.yul\":249:251   */\n      iszero\n      tag_316\n      jumpi\n        /* \"#utility.yul\":290:291   */\n      0x00\n        /* \"#utility.yul\":287:288   */\n      dup1\n        /* \"#utility.yul\":280:292   */\n      revert\n        /* \"#utility.yul\":249:251   */\n    tag_316:\n        /* \"#utility.yul\":303:344   */\n      tag_317\n        /* \"#utility.yul\":337:343   */\n      dup5\n        /* \"#utility.yul\":332:335   */\n      dup3\n        /* \"#utility.yul\":327:330   */\n      dup6\n        /* \"#utility.yul\":303:344   */\n      tag_318\n      jump\t// in\n    tag_317:\n        /* \"#utility.yul\":90:350   */\n      pop\n      swap4\n      swap3\n      pop\n      pop\n      pop\n      jump\t// out\n        /* \"#utility.yul\":356:701   */\n    tag_319:\n        /* \"#utility.yul\":434:439   */\n      0x00\n        /* \"#utility.yul\":459:525   */\n      tag_321\n        /* \"#utility.yul\":475:524   */\n      tag_322\n        /* \"#utility.yul\":517:523   */\n      dup5\n        /* \"#utility.yul\":475:524   */\n      tag_323\n      jump\t// in\n    tag_322:\n        /* \"#utility.yul\":459:525   */\n      tag_315\n      jump\t// in\n    tag_321:\n        /* \"#utility.yul\":450:525   */\n      swap1\n      pop\n        /* \"#utility.yul\":548:554   */\n      dup3\n        /* \"#utility.yul\":541:546   */\n      dup2\n        /* \"#utility.yul\":534:555   */\n      mstore\n        /* \"#utility.yul\":586:590   */\n      0x20\n        /* \"#utility.yul\":579:584   */\n      dup2\n        /* \"#utility.yul\":575:591   */\n      add\n        /* \"#utility.yul\":624:627   */\n      dup5\n        /* \"#utility.yul\":615:621   */\n      dup5\n        /* \"#utility.yul\":610:613   */\n      dup5\n        /* \"#utility.yul\":606:622   */\n      add\n        /* \"#utility.yul\":603:628   */\n      gt\n        /* \"#utility.yul\":600:602   */\n      iszero\n      tag_324\n      jumpi\n        /* \"#utility.yul\":641:642   */\n      0x00\n        /* \"#utility.yul\":638:639   */\n      dup1\n        /* \"#utility.yul\":631:643   */\n      revert\n        /* \"#utility.yul\":600:602   */\n    tag_324:\n        /* \"#utility.yul\":654:695   */\n      tag_325\n        /* \"#utility.yul\":688:694   */\n      dup5\n        /* \"#utility.yul\":683:686   */\n      dup3\n        /* \"#utility.yul\":678:681   */\n      dup6\n        /* \"#utility.yul\":654:695   */\n      tag_318\n      jump\t// in\n    tag_325:\n        /* \"#utility.yul\":440:701   */\n      pop\n      swap4\n      swap3\n      pop\n      pop\n      pop\n      jump\t// out\n        /* \"#utility.yul\":707:846   */\n    tag_326:\n        /* \"#utility.yul\":753:758   */\n      0x00\n        /* \"#utility.yul\":791:797   */\n      dup2\n        /* \"#utility.yul\":778:798   */\n      calldataload\n        /* \"#utility.yul\":769:798   */\n      swap1\n      pop\n        /* \"#utility.yul\":807:840   */\n      tag_328\n        /* \"#utility.yul\":834:839   */\n      dup2\n        /* \"#utility.yul\":807:840   */\n      tag_329\n      jump\t// in\n    tag_328:\n        /* \"#utility.yul\":759:846   */\n      swap3\n      swap2\n      pop\n      pop\n      jump\t// out\n        /* \"#utility.yul\":852:985   */\n    tag_330:\n        /* \"#utility.yul\":895:900   */\n      0x00\n        /* \"#utility.yul\":933:939   */\n      dup2\n        /* \"#utility.yul\":920:940   */\n      calldataload\n        /* \"#utility.yul\":911:940   */\n      swap1\n      pop\n        /* \"#utility.yul\":949:979   */\n      tag_332\n        /* \"#utility.yul\":973:978   */\n      dup2\n        /* \"#utility.yul\":949:979   */\n      tag_333\n      jump\t// in\n    tag_332:\n        /* \"#utility.yul\":901:985   */\n      swap3\n      swap2\n      pop\n      pop\n      jump\t// out\n        /* \"#utility.yul\":991:1128   */\n    tag_334:\n        /* \"#utility.yul\":1036:1041   */\n      0x00\n        /* \"#utility.yul\":1074:1080   */\n      dup2\n        /* \"#utility.yul\":1061:1081   */\n      calldataload\n        /* \"#utility.yul\":1052:1081   */\n      swap1\n      pop\n        /* \"#utility.yul\":1090:1122   */\n      tag_336\n        /* \"#utility.yul\":1116:1121   */\n      dup2\n        /* \"#utility.yul\":1090:1122   */\n      tag_337\n      jump\t// in\n    tag_336:\n        /* \"#utility.yul\":1042:1128   */\n      swap3\n      swap2\n      pop\n      pop\n      jump\t// out\n        /* \"#utility.yul\":1134:1275   */\n    tag_338:\n        /* \"#utility.yul\":1190:1195   */\n      0x00\n        /* \"#utility.yul\":1221:1227   */\n      dup2\n        /* \"#utility.yul\":1215:1228   */\n      mload\n        /* \"#utility.yul\":1206:1228   */\n      swap1\n      pop\n        /* \"#utility.yul\":1237:1269   */\n      tag_340\n        /* \"#utility.yul\":1263:1268   */\n      dup2\n        /* \"#utility.yul\":1237:1269   */\n      tag_337\n      jump\t// in\n    tag_340:\n        /* \"#utility.yul\":1196:1275   */\n      swap3\n      swap2\n      pop\n      pop\n      jump\t// out\n        /* \"#utility.yul\":1294:1565   */\n    tag_341:\n        /* \"#utility.yul\":1349:1354   */\n      0x00\n        /* \"#utility.yul\":1398:1401   */\n      dup3\n        /* \"#utility.yul\":1391:1395   */\n      0x1f\n        /* \"#utility.yul\":1383:1389   */\n      dup4\n        /* \"#utility.yul\":1379:1396   */\n      add\n        /* \"#utility.yul\":1375:1402   */\n      slt\n        /* \"#utility.yul\":1365:1367   */\n      tag_343\n      jumpi\n        /* \"#utility.yul\":1416:1417   */\n      0x00\n        /* \"#utility.yul\":1413:1414   */\n      dup1\n        /* \"#utility.yul\":1406:1418   */\n      revert\n        /* \"#utility.yul\":1365:1367   */\n    tag_343:\n        /* \"#utility.yul\":1456:1462   */\n      dup2\n        /* \"#utility.yul\":1443:1463   */\n      calldataload\n        /* \"#utility.yul\":1481:1559   */\n      tag_344\n        /* \"#utility.yul\":1555:1558   */\n      dup5\n        /* \"#utility.yul\":1547:1553   */\n      dup3\n        /* \"#utility.yul\":1540:1544   */\n      0x20\n        /* \"#utility.yul\":1532:1538   */\n      dup7\n        /* \"#utility.yul\":1528:1545   */\n      add\n        /* \"#utility.yul\":1481:1559   */\n      tag_310\n      jump\t// in\n    tag_344:\n        /* \"#utility.yul\":1472:1559   */\n      swap2\n      pop\n        /* \"#utility.yul\":1355:1565   */\n      pop\n      swap3\n      swap2\n      pop\n      pop\n      jump\t// out\n        /* \"#utility.yul\":1585:1858   */\n    tag_345:\n        /* \"#utility.yul\":1641:1646   */\n      0x00\n        /* \"#utility.yul\":1690:1693   */\n      dup3\n        /* \"#utility.yul\":1683:1687   */\n      0x1f\n        /* \"#utility.yul\":1675:1681   */\n      dup4\n        /* \"#utility.yul\":1671:1688   */\n      add\n        /* \"#utility.yul\":1667:1694   */\n      slt\n        /* \"#utility.yul\":1657:1659   */\n      tag_347\n      jumpi\n        /* \"#utility.yul\":1708:1709   */\n      0x00\n        /* \"#utility.yul\":1705:1706   */\n      dup1\n        /* \"#utility.yul\":1698:1710   */\n      revert\n        /* \"#utility.yul\":1657:1659   */\n    tag_347:\n        /* \"#utility.yul\":1748:1754   */\n      dup2\n        /* \"#utility.yul\":1735:1755   */\n      calldataload\n        /* \"#utility.yul\":1773:1852   */\n      tag_348\n        /* \"#utility.yul\":1848:1851   */\n      dup5\n        /* \"#utility.yul\":1840:1846   */\n      dup3\n        /* \"#utility.yul\":1833:1837   */\n      0x20\n        /* \"#utility.yul\":1825:1831   */\n      dup7\n        /* \"#utility.yul\":1821:1838   */\n      add\n        /* \"#utility.yul\":1773:1852   */\n      tag_319\n      jump\t// in\n    tag_348:\n        /* \"#utility.yul\":1764:1852   */\n      swap2\n      pop\n        /* \"#utility.yul\":1647:1858   */\n      pop\n      swap3\n      swap2\n      pop\n      pop\n      jump\t// out\n        /* \"#utility.yul\":1864:2003   */\n    tag_349:\n        /* \"#utility.yul\":1910:1915   */\n      0x00\n        /* \"#utility.yul\":1948:1954   */\n      dup2\n        /* \"#utility.yul\":1935:1955   */\n      calldataload\n        /* \"#utility.yul\":1926:1955   */\n      swap1\n      pop\n        /* \"#utility.yul\":1964:1997   */\n      tag_351\n        /* \"#utility.yul\":1991:1996   */\n      dup2\n        /* \"#utility.yul\":1964:1997   */\n      tag_352\n      jump\t// in\n    tag_351:\n        /* \"#utility.yul\":1916:2003   */\n      swap3\n      swap2\n      pop\n      pop\n      jump\t// out\n        /* \"#utility.yul\":2009:2271   */\n    tag_59:\n        /* \"#utility.yul\":2068:2074   */\n      0x00\n        /* \"#utility.yul\":2117:2119   */\n      0x20\n        /* \"#utility.yul\":2105:2114   */\n      dup3\n        /* \"#utility.yul\":2096:2103   */\n      dup5\n        /* \"#utility.yul\":2092:2115   */\n      sub\n        /* \"#utility.yul\":2088:2120   */\n      slt\n        /* \"#utility.yul\":2085:2087   */\n      iszero\n      tag_354\n      jumpi\n        /* \"#utility.yul\":2133:2134   */\n      0x00\n        /* \"#utility.yul\":2130:2131   */\n      dup1\n        /* \"#utility.yul\":2123:2135   */\n      revert\n        /* \"#utility.yul\":2085:2087   */\n    tag_354:\n        /* \"#utility.yul\":2176:2177   */\n      0x00\n        /* \"#utility.yul\":2201:2254   */\n      tag_355\n        /* \"#utility.yul\":2246:2253   */\n      dup5\n        /* \"#utility.yul\":2237:2243   */\n      dup3\n        /* \"#utility.yul\":2226:2235   */\n      dup6\n        /* \"#utility.yul\":2222:2244   */\n      add\n        /* \"#utility.yul\":2201:2254   */\n      tag_326\n      jump\t// in\n    tag_355:\n        /* \"#utility.yul\":2191:2254   */\n      swap2\n      pop\n        /* \"#utility.yul\":2147:2264   */\n      pop\n        /* \"#utility.yul\":2075:2271   */\n      swap3\n      swap2\n      pop\n      pop\n      jump\t// out\n        /* \"#utility.yul\":2277:2684   */\n    tag_84:\n        /* \"#utility.yul\":2345:2351   */\n      0x00\n        /* \"#utility.yul\":2353:2359   */\n      dup1\n        /* \"#utility.yul\":2402:2404   */\n      0x40\n        /* \"#utility.yul\":2390:2399   */\n      dup4\n        /* \"#utility.yul\":2381:2388   */\n      dup6\n        /* \"#utility.yul\":2377:2400   */\n      sub\n        /* \"#utility.yul\":2373:2405   */\n      slt\n        /* \"#utility.yul\":2370:2372   */\n      iszero\n      tag_357\n      jumpi\n        /* \"#utility.yul\":2418:2419   */\n      0x00\n        /* \"#utility.yul\":2415:2416   */\n      dup1\n        /* \"#utility.yul\":2408:2420   */\n      revert\n        /* \"#utility.yul\":2370:2372   */\n    tag_357:\n        /* \"#utility.yul\":2461:2462   */\n      0x00\n        /* \"#utility.yul\":2486:2539   */\n      tag_358\n        /* \"#utility.yul\":2531:2538   */\n      dup6\n        /* \"#utility.yul\":2522:2528   */\n      dup3\n        /* \"#utility.yul\":2511:2520   */\n      dup7\n        /* \"#utility.yul\":2507:2529   */\n      add\n        /* \"#utility.yul\":2486:2539   */\n      tag_326\n      jump\t// in\n    tag_358:\n        /* \"#utility.yul\":2476:2539   */\n      swap3\n      pop\n        /* \"#utility.yul\":2432:2549   */\n      pop\n        /* \"#utility.yul\":2588:2590   */\n      0x20\n        /* \"#utility.yul\":2614:2667   */\n      tag_359\n        /* \"#utility.yul\":2659:2666   */\n      dup6\n        /* \"#utility.yul\":2650:2656   */\n      dup3\n        /* \"#utility.yul\":2639:2648   */\n      dup7\n        /* \"#utility.yul\":2635:2657   */\n      add\n        /* \"#utility.yul\":2614:2667   */\n      tag_326\n      jump\t// in\n    tag_359:\n        /* \"#utility.yul\":2604:2667   */\n      swap2\n      pop\n        /* \"#utility.yul\":2559:2677   */\n      pop\n        /* \"#utility.yul\":2360:2684   */\n      swap3\n      pop\n      swap3\n      swap1\n      pop\n      jump\t// out\n        /* \"#utility.yul\":2690:3242   */\n    tag_44:\n        /* \"#utility.yul\":2767:2773   */\n      0x00\n        /* \"#utility.yul\":2775:2781   */\n      dup1\n        /* \"#utility.yul\":2783:2789   */\n      0x00\n        /* \"#utility.yul\":2832:2834   */\n      0x60\n        /* \"#utility.yul\":2820:2829   */\n      dup5\n        /* \"#utility.yul\":2811:2818   */\n      dup7\n        /* \"#utility.yul\":2807:2830   */\n      sub\n        /* \"#utility.yul\":2803:2835   */\n      slt\n        /* \"#utility.yul\":2800:2802   */\n      iszero\n      tag_361\n      jumpi\n        /* \"#utility.yul\":2848:2849   */\n      0x00\n        /* \"#utility.yul\":2845:2846   */\n      dup1\n        /* \"#utility.yul\":2838:2850   */\n      revert\n        /* \"#utility.yul\":2800:2802   */\n    tag_361:\n        /* \"#utility.yul\":2891:2892   */\n      0x00\n        /* \"#utility.yul\":2916:2969   */\n      tag_362\n        /* \"#utility.yul\":2961:2968   */\n      dup7\n        /* \"#utility.yul\":2952:2958   */\n      dup3\n        /* \"#utility.yul\":2941:2950   */\n      dup8\n        /* \"#utility.yul\":2937:2959   */\n      add\n        /* \"#utility.yul\":2916:2969   */\n      tag_326\n      jump\t// in\n    tag_362:\n        /* \"#utility.yul\":2906:2969   */\n      swap4\n      pop\n        /* \"#utility.yul\":2862:2979   */\n      pop\n        /* \"#utility.yul\":3018:3020   */\n      0x20\n        /* \"#utility.yul\":3044:3097   */\n      tag_363\n        /* \"#utility.yul\":3089:3096   */\n      dup7\n        /* \"#utility.yul\":3080:3086   */\n      dup3\n        /* \"#utility.yul\":3069:3078   */\n      dup8\n        /* \"#utility.yul\":3065:3087   */\n      add\n        /* \"#utility.yul\":3044:3097   */\n      tag_326\n      jump\t// in\n    tag_363:\n        /* \"#utility.yul\":3034:3097   */\n      swap3\n      pop\n        /* \"#utility.yul\":2989:3107   */\n      pop\n        /* \"#utility.yul\":3146:3148   */\n      0x40\n        /* \"#utility.yul\":3172:3225   */\n      tag_364\n        /* \"#utility.yul\":3217:3224   */\n      dup7\n        /* \"#utility.yul\":3208:3214   */\n      dup3\n        /* \"#utility.yul\":3197:3206   */\n      dup8\n        /* \"#utility.yul\":3193:3215   */\n      add\n        /* \"#utility.yul\":3172:3225   */\n      tag_349\n      jump\t// in\n    tag_364:\n        /* \"#utility.yul\":3162:3225   */\n      swap2\n      pop\n        /* \"#utility.yul\":3117:3235   */\n      pop\n        /* \"#utility.yul\":2790:3242   */\n      swap3\n      pop\n      swap3\n      pop\n      swap3\n      jump\t// out\n        /* \"#utility.yul\":3248:4057   */\n    tag_76:\n        /* \"#utility.yul\":3343:3349   */\n      0x00\n        /* \"#utility.yul\":3351:3357   */\n      dup1\n        /* \"#utility.yul\":3359:3365   */\n      0x00\n        /* \"#utility.yul\":3367:3373   */\n      dup1\n        /* \"#utility.yul\":3416:3419   */\n      0x80\n        /* \"#utility.yul\":3404:3413   */\n      dup6\n        /* \"#utility.yul\":3395:3402   */\n      dup8\n        /* \"#utility.yul\":3391:3414   */\n      sub\n        /* \"#utility.yul\":3387:3420   */\n      slt\n        /* \"#utility.yul\":3384:3386   */\n      iszero\n      tag_366\n      jumpi\n        /* \"#utility.yul\":3433:3434   */\n      0x00\n        /* \"#utility.yul\":3430:3431   */\n      dup1\n        /* \"#utility.yul\":3423:3435   */\n      revert\n        /* \"#utility.yul\":3384:3386   */\n    tag_366:\n        /* \"#utility.yul\":3476:3477   */\n      0x00\n        /* \"#utility.yul\":3501:3554   */\n      tag_367\n        /* \"#utility.yul\":3546:3553   */\n      dup8\n        /* \"#utility.yul\":3537:3543   */\n      dup3\n        /* \"#utility.yul\":3526:3535   */\n      dup9\n        /* \"#utility.yul\":3522:3544   */\n      add\n        /* \"#utility.yul\":3501:3554   */\n      tag_326\n      jump\t// in\n    tag_367:\n        /* \"#utility.yul\":3491:3554   */\n      swap5\n      pop\n        /* \"#utility.yul\":3447:3564   */\n      pop\n        /* \"#utility.yul\":3603:3605   */\n      0x20\n        /* \"#utility.yul\":3629:3682   */\n      tag_368\n        /* \"#utility.yul\":3674:3681   */\n      dup8\n        /* \"#utility.yul\":3665:3671   */\n      dup3\n        /* \"#utility.yul\":3654:3663   */\n      dup9\n        /* \"#utility.yul\":3650:3672   */\n      add\n        /* \"#utility.yul\":3629:3682   */\n      tag_326\n      jump\t// in\n    tag_368:\n        /* \"#utility.yul\":3619:3682   */\n      swap4\n      pop\n        /* \"#utility.yul\":3574:3692   */\n      pop\n        /* \"#utility.yul\":3731:3733   */\n      0x40\n        /* \"#utility.yul\":3757:3810   */\n      tag_369\n        /* \"#utility.yul\":3802:3809   */\n      dup8\n        /* \"#utility.yul\":3793:3799   */\n      dup3\n        /* \"#utility.yul\":3782:3791   */\n      dup9\n        /* \"#utility.yul\":3778:3800   */\n      add\n        /* \"#utility.yul\":3757:3810   */\n      tag_349\n      jump\t// in\n    tag_369:\n        /* \"#utility.yul\":3747:3810   */\n      swap3\n      pop\n        /* \"#utility.yul\":3702:3820   */\n      pop\n        /* \"#utility.yul\":3887:3889   */\n      0x60\n        /* \"#utility.yul\":3876:3885   */\n      dup6\n        /* \"#utility.yul\":3872:3890   */\n      add\n        /* \"#utility.yul\":3859:3891   */\n      calldataload\n        /* \"#utility.yul\":3918:3936   */\n      0xffffffffffffffff\n        /* \"#utility.yul\":3910:3916   */\n      dup2\n        /* \"#utility.yul\":3907:3937   */\n      gt\n        /* \"#utility.yul\":3904:3906   */\n      iszero\n      tag_370\n      jumpi\n        /* \"#utility.yul\":3950:3951   */\n      0x00\n        /* \"#utility.yul\":3947:3948   */\n      dup1\n        /* \"#utility.yul\":3940:3952   */\n      revert\n        /* \"#utility.yul\":3904:3906   */\n    tag_370:\n        /* \"#utility.yul\":3978:4040   */\n      tag_371\n        /* \"#utility.yul\":4032:4039   */\n      dup8\n        /* \"#utility.yul\":4023:4029   */\n      dup3\n        /* \"#utility.yul\":4012:4021   */\n      dup9\n        /* \"#utility.yul\":4008:4030   */\n      add\n        /* \"#utility.yul\":3978:4040   */\n      tag_341\n      jump\t// in\n    tag_371:\n        /* \"#utility.yul\":3968:4040   */\n      swap2\n      pop\n        /* \"#utility.yul\":3830:4050   */\n      pop\n        /* \"#utility.yul\":3374:4057   */\n      swap3\n      swap6\n      swap2\n      swap5\n      pop\n      swap3\n      pop\n      jump\t// out\n        /* \"#utility.yul\":4063:4874   */\n    tag_72:\n        /* \"#utility.yul\":4159:4165   */\n      0x00\n        /* \"#utility.yul\":4167:4173   */\n      dup1\n        /* \"#utility.yul\":4175:4181   */\n      0x00\n        /* \"#utility.yul\":4183:4189   */\n      dup1\n        /* \"#utility.yul\":4232:4235   */\n      0x80\n        /* \"#utility.yul\":4220:4229   */\n      dup6\n        /* \"#utility.yul\":4211:4218   */\n      dup8\n        /* \"#utility.yul\":4207:4230   */\n      sub\n        /* \"#utility.yul\":4203:4236   */\n      slt\n        /* \"#utility.yul\":4200:4202   */\n      iszero\n      tag_373\n      jumpi\n        /* \"#utility.yul\":4249:4250   */\n      0x00\n        /* \"#utility.yul\":4246:4247   */\n      dup1\n        /* \"#utility.yul\":4239:4251   */\n      revert\n        /* \"#utility.yul\":4200:4202   */\n    tag_373:\n        /* \"#utility.yul\":4292:4293   */\n      0x00\n        /* \"#utility.yul\":4317:4370   */\n      tag_374\n        /* \"#utility.yul\":4362:4369   */\n      dup8\n        /* \"#utility.yul\":4353:4359   */\n      dup3\n        /* \"#utility.yul\":4342:4351   */\n      dup9\n        /* \"#utility.yul\":4338:4360   */\n      add\n        /* \"#utility.yul\":4317:4370   */\n      tag_326\n      jump\t// in\n    tag_374:\n        /* \"#utility.yul\":4307:4370   */\n      swap5\n      pop\n        /* \"#utility.yul\":4263:4380   */\n      pop\n        /* \"#utility.yul\":4419:4421   */\n      0x20\n        /* \"#utility.yul\":4445:4498   */\n      tag_375\n        /* \"#utility.yul\":4490:4497   */\n      dup8\n        /* \"#utility.yul\":4481:4487   */\n      dup3\n        /* \"#utility.yul\":4470:4479   */\n      dup9\n        /* \"#utility.yul\":4466:4488   */\n      add\n        /* \"#utility.yul\":4445:4498   */\n      tag_326\n      jump\t// in\n    tag_375:\n        /* \"#utility.yul\":4435:4498   */\n      swap4\n      pop\n        /* \"#utility.yul\":4390:4508   */\n      pop\n        /* \"#utility.yul\":4547:4549   */\n      0x40\n        /* \"#utility.yul\":4573:4626   */\n      tag_376\n        /* \"#utility.yul\":4618:4625   */\n      dup8\n        /* \"#utility.yul\":4609:4615   */\n      dup3\n        /* \"#utility.yul\":4598:4607   */\n      dup9\n        /* \"#utility.yul\":4594:4616   */\n      add\n        /* \"#utility.yul\":4573:4626   */\n      tag_349\n      jump\t// in\n    tag_376:\n        /* \"#utility.yul\":4563:4626   */\n      swap3\n      pop\n        /* \"#utility.yul\":4518:4636   */\n      pop\n        /* \"#utility.yul\":4703:4705   */\n      0x60\n        /* \"#utility.yul\":4692:4701   */\n      dup6\n        /* \"#utility.yul\":4688:4706   */\n      add\n        /* \"#utility.yul\":4675:4707   */\n      calldataload\n        /* \"#utility.yul\":4734:4752   */\n      0xffffffffffffffff\n        /* \"#utility.yul\":4726:4732   */\n      dup2\n        /* \"#utility.yul\":4723:4753   */\n      gt\n        /* \"#utility.yul\":4720:4722   */\n      iszero\n      tag_377\n      jumpi\n        /* \"#utility.yul\":4766:4767   */\n      0x00\n        /* \"#utility.yul\":4763:4764   */\n      dup1\n        /* \"#utility.yul\":4756:4768   */\n      revert\n        /* \"#utility.yul\":4720:4722   */\n    tag_377:\n        /* \"#utility.yul\":4794:4857   */\n      tag_378\n        /* \"#utility.yul\":4849:4856   */\n      dup8\n        /* \"#utility.yul\":4840:4846   */\n      dup3\n        /* \"#utility.yul\":4829:4838   */\n      dup9\n        /* \"#utility.yul\":4825:4847   */\n      add\n        /* \"#utility.yul\":4794:4857   */\n      tag_345\n      jump\t// in\n    tag_378:\n        /* \"#utility.yul\":4784:4857   */\n      swap2\n      pop\n        /* \"#utility.yul\":4646:4867   */\n      pop\n        /* \"#utility.yul\":4190:4874   */\n      swap3\n      swap6\n      swap2\n      swap5\n      pop\n      swap3\n      pop\n      jump\t// out\n        /* \"#utility.yul\":4880:5281   */\n    tag_68:\n        /* \"#utility.yul\":4945:4951   */\n      0x00\n        /* \"#utility.yul\":4953:4959   */\n      dup1\n        /* \"#utility.yul\":5002:5004   */\n      0x40\n        /* \"#utility.yul\":4990:4999   */\n      dup4\n        /* \"#utility.yul\":4981:4988   */\n      dup6\n        /* \"#utility.yul\":4977:5000   */\n      sub\n        /* \"#utility.yul\":4973:5005   */\n      slt\n        /* \"#utility.yul\":4970:4972   */\n      iszero\n      tag_380\n      jumpi\n        /* \"#utility.yul\":5018:5019   */\n      0x00\n        /* \"#utility.yul\":5015:5016   */\n      dup1\n        /* \"#utility.yul\":5008:5020   */\n      revert\n        /* \"#utility.yul\":4970:4972   */\n    tag_380:\n        /* \"#utility.yul\":5061:5062   */\n      0x00\n        /* \"#utility.yul\":5086:5139   */\n      tag_381\n        /* \"#utility.yul\":5131:5138   */\n      dup6\n        /* \"#utility.yul\":5122:5128   */\n      dup3\n        /* \"#utility.yul\":5111:5120   */\n      dup7\n        /* \"#utility.yul\":5107:5129   */\n      add\n        /* \"#utility.yul\":5086:5139   */\n      tag_326\n      jump\t// in\n    tag_381:\n        /* \"#utility.yul\":5076:5139   */\n      swap3\n      pop\n        /* \"#utility.yul\":5032:5149   */\n      pop\n        /* \"#utility.yul\":5188:5190   */\n      0x20\n        /* \"#utility.yul\":5214:5264   */\n      tag_382\n        /* \"#utility.yul\":5256:5263   */\n      dup6\n        /* \"#utility.yul\":5247:5253   */\n      dup3\n        /* \"#utility.yul\":5236:5245   */\n      dup7\n        /* \"#utility.yul\":5232:5254   */\n      add\n        /* \"#utility.yul\":5214:5264   */\n      tag_330\n      jump\t// in\n    tag_382:\n        /* \"#utility.yul\":5204:5264   */\n      swap2\n      pop\n        /* \"#utility.yul\":5159:5274   */\n      pop\n        /* \"#utility.yul\":4960:5281   */\n      swap3\n      pop\n      swap3\n      swap1\n      pop\n      jump\t// out\n        /* \"#utility.yul\":5287:5694   */\n    tag_40:\n        /* \"#utility.yul\":5355:5361   */\n      0x00\n        /* \"#utility.yul\":5363:5369   */\n      dup1\n        /* \"#utility.yul\":5412:5414   */\n      0x40\n        /* \"#utility.yul\":5400:5409   */\n      dup4\n        /* \"#utility.yul\":5391:5398   */\n      dup6\n        /* \"#utility.yul\":5387:5410   */\n      sub\n        /* \"#utility.yul\":5383:5415   */\n      slt\n        /* \"#utility.yul\":5380:5382   */\n      iszero\n      tag_384\n      jumpi\n        /* \"#utility.yul\":5428:5429   */\n      0x00\n        /* \"#utility.yul\":5425:5426   */\n      dup1\n        /* \"#utility.yul\":5418:5430   */\n      revert\n        /* \"#utility.yul\":5380:5382   */\n    tag_384:\n        /* \"#utility.yul\":5471:5472   */\n      0x00\n        /* \"#utility.yul\":5496:5549   */\n      tag_385\n        /* \"#utility.yul\":5541:5548   */\n      dup6\n        /* \"#utility.yul\":5532:5538   */\n      dup3\n        /* \"#utility.yul\":5521:5530   */\n      dup7\n        /* \"#utility.yul\":5517:5539   */\n      add\n        /* \"#utility.yul\":5496:5549   */\n      tag_326\n      jump\t// in\n    tag_385:\n        /* \"#utility.yul\":5486:5549   */\n      swap3\n      pop\n        /* \"#utility.yul\":5442:5559   */\n      pop\n        /* \"#utility.yul\":5598:5600   */\n      0x20\n        /* \"#utility.yul\":5624:5677   */\n      tag_386\n        /* \"#utility.yul\":5669:5676   */\n      dup6\n        /* \"#utility.yul\":5660:5666   */\n      dup3\n        /* \"#utility.yul\":5649:5658   */\n      dup7\n        /* \"#utility.yul\":5645:5667   */\n      add\n        /* \"#utility.yul\":5624:5677   */\n      tag_349\n      jump\t// in\n    tag_386:\n        /* \"#utility.yul\":5614:5677   */\n      swap2\n      pop\n        /* \"#utility.yul\":5569:5687   */\n      pop\n        /* \"#utility.yul\":5370:5694   */\n      swap3\n      pop\n      swap3\n      swap1\n      pop\n      jump\t// out\n        /* \"#utility.yul\":5700:5960   */\n    tag_24:\n        /* \"#utility.yul\":5758:5764   */\n      0x00\n        /* \"#utility.yul\":5807:5809   */\n      0x20\n        /* \"#utility.yul\":5795:5804   */\n      dup3\n        /* \"#utility.yul\":5786:5793   */\n      dup5\n        /* \"#utility.yul\":5782:5805   */\n      sub\n        /* \"#utility.yul\":5778:5810   */\n      slt\n        /* \"#utility.yul\":5775:5777   */\n      iszero\n      tag_388\n      jumpi\n        /* \"#utility.yul\":5823:5824   */\n      0x00\n        /* \"#utility.yul\":5820:5821   */\n      dup1\n        /* \"#utility.yul\":5813:5825   */\n      revert\n        /* \"#utility.yul\":5775:5777   */\n    tag_388:\n        /* \"#utility.yul\":5866:5867   */\n      0x00\n        /* \"#utility.yul\":5891:5943   */\n      tag_389\n        /* \"#utility.yul\":5935:5942   */\n      dup5\n        /* \"#utility.yul\":5926:5932   */\n      dup3\n        /* \"#utility.yul\":5915:5924   */\n      dup6\n        /* \"#utility.yul\":5911:5933   */\n      add\n        /* \"#utility.yul\":5891:5943   */\n      tag_334\n      jump\t// in\n    tag_389:\n        /* \"#utility.yul\":5881:5943   */\n      swap2\n      pop\n        /* \"#utility.yul\":5837:5953   */\n      pop\n        /* \"#utility.yul\":5765:5960   */\n      swap3\n      swap2\n      pop\n      pop\n      jump\t// out\n        /* \"#utility.yul\":5966:6248   */\n    tag_271:\n        /* \"#utility.yul\":6035:6041   */\n      0x00\n        /* \"#utility.yul\":6084:6086   */\n      0x20\n        /* \"#utility.yul\":6072:6081   */\n      dup3\n        /* \"#utility.yul\":6063:6070   */\n      dup5\n        /* \"#utility.yul\":6059:6082   */\n      sub\n        /* \"#utility.yul\":6055:6087   */\n      slt\n        /* \"#utility.yul\":6052:6054   */\n      iszero\n      tag_391\n      jumpi\n        /* \"#utility.yul\":6100:6101   */\n      0x00\n        /* \"#utility.yul\":6097:6098   */\n      dup1\n        /* \"#utility.yul\":6090:6102   */\n      revert\n        /* \"#utility.yul\":6052:6054   */\n    tag_391:\n        /* \"#utility.yul\":6143:6144   */\n      0x00\n        /* \"#utility.yul\":6168:6231   */\n      tag_392\n        /* \"#utility.yul\":6223:6230   */\n      dup5\n        /* \"#utility.yul\":6214:6220   */\n      dup3\n        /* \"#utility.yul\":6203:6212   */\n      dup6\n        /* \"#utility.yul\":6199:6221   */\n      add\n        /* \"#utility.yul\":6168:6231   */\n      tag_338\n      jump\t// in\n    tag_392:\n        /* \"#utility.yul\":6158:6231   */\n      swap2\n      pop\n        /* \"#utility.yul\":6114:6241   */\n      pop\n        /* \"#utility.yul\":6042:6248   */\n      swap3\n      swap2\n      pop\n      pop\n      jump\t// out\n        /* \"#utility.yul\":6254:6516   */\n    tag_34:\n        /* \"#utility.yul\":6313:6319   */\n      0x00\n        /* \"#utility.yul\":6362:6364   */\n      0x20\n        /* \"#utility.yul\":6350:6359   */\n      dup3\n        /* \"#utility.yul\":6341:6348   */\n      dup5\n        /* \"#utility.yul\":6337:6360   */\n      sub\n        /* \"#utility.yul\":6333:6365   */\n      slt\n        /* \"#utility.yul\":6330:6332   */\n      iszero\n      tag_394\n      jumpi\n        /* \"#utility.yul\":6378:6379   */\n      0x00\n        /* \"#utility.yul\":6375:6376   */\n      dup1\n        /* \"#utility.yul\":6368:6380   */\n      revert\n        /* \"#utility.yul\":6330:6332   */\n    tag_394:\n        /* \"#utility.yul\":6421:6422   */\n      0x00\n        /* \"#utility.yul\":6446:6499   */\n      tag_395\n        /* \"#utility.yul\":6491:6498   */\n      dup5\n        /* \"#utility.yul\":6482:6488   */\n      dup3\n        /* \"#utility.yul\":6471:6480   */\n      dup6\n        /* \"#utility.yul\":6467:6489   */\n      add\n        /* \"#utility.yul\":6446:6499   */\n      tag_349\n      jump\t// in\n    tag_395:\n        /* \"#utility.yul\":6436:6499   */\n      swap2\n      pop\n        /* \"#utility.yul\":6392:6509   */\n      pop\n        /* \"#utility.yul\":6320:6516   */\n      swap3\n      swap2\n      pop\n      pop\n      jump\t// out\n        /* \"#utility.yul\":6522:6640   */\n    tag_396:\n        /* \"#utility.yul\":6609:6633   */\n      tag_398\n        /* \"#utility.yul\":6627:6632   */\n      dup2\n        /* \"#utility.yul\":6609:6633   */\n      tag_399\n      jump\t// in\n    tag_398:\n        /* \"#utility.yul\":6604:6607   */\n      dup3\n        /* \"#utility.yul\":6597:6634   */\n      mstore\n        /* \"#utility.yul\":6587:6640   */\n      pop\n      pop\n      jump\t// out\n        /* \"#utility.yul\":6646:6755   */\n    tag_400:\n        /* \"#utility.yul\":6727:6748   */\n      tag_402\n        /* \"#utility.yul\":6742:6747   */\n      dup2\n        /* \"#utility.yul\":6727:6748   */\n      tag_403\n      jump\t// in\n    tag_402:\n        /* \"#utility.yul\":6722:6725   */\n      dup3\n        /* \"#utility.yul\":6715:6749   */\n      mstore\n        /* \"#utility.yul\":6705:6755   */\n      pop\n      pop\n      jump\t// out\n        /* \"#utility.yul\":6761:7121   */\n    tag_404:\n        /* \"#utility.yul\":6847:6850   */\n      0x00\n        /* \"#utility.yul\":6875:6913   */\n      tag_406\n        /* \"#utility.yul\":6907:6912   */\n      dup3\n        /* \"#utility.yul\":6875:6913   */\n      tag_407\n      jump\t// in\n    tag_406:\n        /* \"#utility.yul\":6929:6999   */\n      tag_408\n        /* \"#utility.yul\":6992:6998   */\n      dup2\n        /* \"#utility.yul\":6987:6990   */\n      dup6\n        /* \"#utility.yul\":6929:6999   */\n      tag_409\n      jump\t// in\n    tag_408:\n        /* \"#utility.yul\":6922:6999   */\n      swap4\n      pop\n        /* \"#utility.yul\":7008:7060   */\n      tag_410\n        /* \"#utility.yul\":7053:7059   */\n      dup2\n        /* \"#utility.yul\":7048:7051   */\n      dup6\n        /* \"#utility.yul\":7041:7045   */\n      0x20\n        /* \"#utility.yul\":7034:7039   */\n      dup7\n        /* \"#utility.yul\":7030:7046   */\n      add\n        /* \"#utility.yul\":7008:7060   */\n      tag_411\n      jump\t// in\n    tag_410:\n        /* \"#utility.yul\":7085:7114   */\n      tag_412\n        /* \"#utility.yul\":7107:7113   */\n      dup2\n        /* \"#utility.yul\":7085:7114   */\n      tag_413\n      jump\t// in\n    tag_412:\n        /* \"#utility.yul\":7080:7083   */\n      dup5\n        /* \"#utility.yul\":7076:7115   */\n      add\n        /* \"#utility.yul\":7069:7115   */\n      swap2\n      pop\n        /* \"#utility.yul\":6851:7121   */\n      pop\n      swap3\n      swap2\n      pop\n      pop\n      jump\t// out\n        /* \"#utility.yul\":7127:7491   */\n    tag_414:\n        /* \"#utility.yul\":7215:7218   */\n      0x00\n        /* \"#utility.yul\":7243:7282   */\n      tag_416\n        /* \"#utility.yul\":7276:7281   */\n      dup3\n        /* \"#utility.yul\":7243:7282   */\n      tag_417\n      jump\t// in\n    tag_416:\n        /* \"#utility.yul\":7298:7369   */\n      tag_418\n        /* \"#utility.yul\":7362:7368   */\n      dup2\n        /* \"#utility.yul\":7357:7360   */\n      dup6\n        /* \"#utility.yul\":7298:7369   */\n      tag_419\n      jump\t// in\n    tag_418:\n        /* \"#utility.yul\":7291:7369   */\n      swap4\n      pop\n        /* \"#utility.yul\":7378:7430   */\n      tag_420\n        /* \"#utility.yul\":7423:7429   */\n      dup2\n        /* \"#utility.yul\":7418:7421   */\n      dup6\n        /* \"#utility.yul\":7411:7415   */\n      0x20\n        /* \"#utility.yul\":7404:7409   */\n      dup7\n        /* \"#utility.yul\":7400:7416   */\n      add\n        /* \"#utility.yul\":7378:7430   */\n      tag_411\n      jump\t// in\n    tag_420:\n        /* \"#utility.yul\":7455:7484   */\n      tag_421\n        /* \"#utility.yul\":7477:7483   */\n      dup2\n        /* \"#utility.yul\":7455:7484   */\n      tag_413\n      jump\t// in\n    tag_421:\n        /* \"#utility.yul\":7450:7453   */\n      dup5\n        /* \"#utility.yul\":7446:7485   */\n      add\n        /* \"#utility.yul\":7439:7485   */\n      swap2\n      pop\n        /* \"#utility.yul\":7219:7491   */\n      pop\n      swap3\n      swap2\n      pop\n      pop\n      jump\t// out\n        /* \"#utility.yul\":7497:7874   */\n    tag_422:\n        /* \"#utility.yul\":7603:7606   */\n      0x00\n        /* \"#utility.yul\":7631:7670   */\n      tag_424\n        /* \"#utility.yul\":7664:7669   */\n      dup3\n        /* \"#utility.yul\":7631:7670   */\n      tag_417\n      jump\t// in\n    tag_424:\n        /* \"#utility.yul\":7686:7775   */\n      tag_425\n        /* \"#utility.yul\":7768:7774   */\n      dup2\n        /* \"#utility.yul\":7763:7766   */\n      dup6\n        /* \"#utility.yul\":7686:7775   */\n      tag_426\n      jump\t// in\n    tag_425:\n        /* \"#utility.yul\":7679:7775   */\n      swap4\n      pop\n        /* \"#utility.yul\":7784:7836   */\n      tag_427\n        /* \"#utility.yul\":7829:7835   */\n      dup2\n        /* \"#utility.yul\":7824:7827   */\n      dup6\n        /* \"#utility.yul\":7817:7821   */\n      0x20\n        /* \"#utility.yul\":7810:7815   */\n      dup7\n        /* \"#utility.yul\":7806:7822   */\n      add\n        /* \"#utility.yul\":7784:7836   */\n      tag_411\n      jump\t// in\n    tag_427:\n        /* \"#utility.yul\":7861:7867   */\n      dup1\n        /* \"#utility.yul\":7856:7859   */\n      dup5\n        /* \"#utility.yul\":7852:7868   */\n      add\n        /* \"#utility.yul\":7845:7868   */\n      swap2\n      pop\n        /* \"#utility.yul\":7607:7874   */\n      pop\n      swap3\n      swap2\n      pop\n      pop\n      jump\t// out\n        /* \"#utility.yul\":7880:8246   */\n    tag_428:\n        /* \"#utility.yul\":8022:8025   */\n      0x00\n        /* \"#utility.yul\":8043:8110   */\n      tag_430\n        /* \"#utility.yul\":8107:8109   */\n      0x2d\n        /* \"#utility.yul\":8102:8105   */\n      dup4\n        /* \"#utility.yul\":8043:8110   */\n      tag_419\n      jump\t// in\n    tag_430:\n        /* \"#utility.yul\":8036:8110   */\n      swap2\n      pop\n        /* \"#utility.yul\":8119:8212   */\n      tag_431\n        /* \"#utility.yul\":8208:8211   */\n      dup3\n        /* \"#utility.yul\":8119:8212   */\n      tag_432\n      jump\t// in\n    tag_431:\n        /* \"#utility.yul\":8237:8239   */\n      0x40\n        /* \"#utility.yul\":8232:8235   */\n      dup3\n        /* \"#utility.yul\":8228:8240   */\n      add\n        /* \"#utility.yul\":8221:8240   */\n      swap1\n      pop\n        /* \"#utility.yul\":8026:8246   */\n      swap2\n      swap1\n      pop\n      jump\t// out\n        /* \"#utility.yul\":8252:8618   */\n    tag_433:\n        /* \"#utility.yul\":8394:8397   */\n      0x00\n        /* \"#utility.yul\":8415:8482   */\n      tag_435\n        /* \"#utility.yul\":8479:8481   */\n      0x32\n        /* \"#utility.yul\":8474:8477   */\n      dup4\n        /* \"#utility.yul\":8415:8482   */\n      tag_419\n      jump\t// in\n    tag_435:\n        /* \"#utility.yul\":8408:8482   */\n      swap2\n      pop\n        /* \"#utility.yul\":8491:8584   */\n      tag_436\n        /* \"#utility.yul\":8580:8583   */\n      dup3\n        /* \"#utility.yul\":8491:8584   */\n      tag_437\n      jump\t// in\n    tag_436:\n        /* \"#utility.yul\":8609:8611   */\n      0x40\n        /* \"#utility.yul\":8604:8607   */\n      dup3\n        /* \"#utility.yul\":8600:8612   */\n      add\n        /* \"#utility.yul\":8593:8612   */\n      swap1\n      pop\n        /* \"#utility.yul\":8398:8618   */\n      swap2\n      swap1\n      pop\n      jump\t// out\n        /* \"#utility.yul\":8624:8990   */\n    tag_438:\n        /* \"#utility.yul\":8766:8769   */\n      0x00\n        /* \"#utility.yul\":8787:8854   */\n      tag_440\n        /* \"#utility.yul\":8851:8853   */\n      0x25\n        /* \"#utility.yul\":8846:8849   */\n      dup4\n        /* \"#utility.yul\":8787:8854   */\n      tag_419\n      jump\t// in\n    tag_440:\n        /* \"#utility.yul\":8780:8854   */\n      swap2\n      pop\n        /* \"#utility.yul\":8863:8956   */\n      tag_441\n        /* \"#utility.yul\":8952:8955   */\n      dup3\n        /* \"#utility.yul\":8863:8956   */\n      tag_442\n      jump\t// in\n    tag_441:\n        /* \"#utility.yul\":8981:8983   */\n      0x40\n        /* \"#utility.yul\":8976:8979   */\n      dup3\n        /* \"#utility.yul\":8972:8984   */\n      add\n        /* \"#utility.yul\":8965:8984   */\n      swap1\n      pop\n        /* \"#utility.yul\":8770:8990   */\n      swap2\n      swap1\n      pop\n      jump\t// out\n        /* \"#utility.yul\":8996:9362   */\n    tag_443:\n        /* \"#utility.yul\":9138:9141   */\n      0x00\n        /* \"#utility.yul\":9159:9226   */\n      tag_445\n        /* \"#utility.yul\":9223:9225   */\n      0x1c\n        /* \"#utility.yul\":9218:9221   */\n      dup4\n        /* \"#utility.yul\":9159:9226   */\n      tag_419\n      jump\t// in\n    tag_445:\n        /* \"#utility.yul\":9152:9226   */\n      swap2\n      pop\n        /* \"#utility.yul\":9235:9328   */\n      tag_446\n        /* \"#utility.yul\":9324:9327   */\n      dup3\n        /* \"#utility.yul\":9235:9328   */\n      tag_447\n      jump\t// in\n    tag_446:\n        /* \"#utility.yul\":9353:9355   */\n      0x20\n        /* \"#utility.yul\":9348:9351   */\n      dup3\n        /* \"#utility.yul\":9344:9356   */\n      add\n        /* \"#utility.yul\":9337:9356   */\n      swap1\n      pop\n        /* \"#utility.yul\":9142:9362   */\n      swap2\n      swap1\n      pop\n      jump\t// out\n        /* \"#utility.yul\":9368:9734   */\n    tag_448:\n        /* \"#utility.yul\":9510:9513   */\n      0x00\n        /* \"#utility.yul\":9531:9598   */\n      tag_450\n        /* \"#utility.yul\":9595:9597   */\n      0x24\n        /* \"#utility.yul\":9590:9593   */\n      dup4\n        /* \"#utility.yul\":9531:9598   */\n      tag_419\n      jump\t// in\n    tag_450:\n        /* \"#utility.yul\":9524:9598   */\n      swap2\n      pop\n        /* \"#utility.yul\":9607:9700   */\n      tag_451\n        /* \"#utility.yul\":9696:9699   */\n      dup3\n        /* \"#utility.yul\":9607:9700   */\n      tag_452\n      jump\t// in\n    tag_451:\n        /* \"#utility.yul\":9725:9727   */\n      0x40\n        /* \"#utility.yul\":9720:9723   */\n      dup3\n        /* \"#utility.yul\":9716:9728   */\n      add\n        /* \"#utility.yul\":9709:9728   */\n      swap1\n      pop\n        /* \"#utility.yul\":9514:9734   */\n      swap2\n      swap1\n      pop\n      jump\t// out\n        /* \"#utility.yul\":9740:10106   */\n    tag_453:\n        /* \"#utility.yul\":9882:9885   */\n      0x00\n        /* \"#utility.yul\":9903:9970   */\n      tag_455\n        /* \"#utility.yul\":9967:9969   */\n      0x19\n        /* \"#utility.yul\":9962:9965   */\n      dup4\n        /* \"#utility.yul\":9903:9970   */\n      tag_419\n      jump\t// in\n    tag_455:\n        /* \"#utility.yul\":9896:9970   */\n      swap2\n      pop\n        /* \"#utility.yul\":9979:10072   */\n      tag_456\n        /* \"#utility.yul\":10068:10071   */\n      dup3\n        /* \"#utility.yul\":9979:10072   */\n      tag_457\n      jump\t// in\n    tag_456:\n        /* \"#utility.yul\":10097:10099   */\n      0x20\n        /* \"#utility.yul\":10092:10095   */\n      dup3\n        /* \"#utility.yul\":10088:10100   */\n      add\n        /* \"#utility.yul\":10081:10100   */\n      swap1\n      pop\n        /* \"#utility.yul\":9886:10106   */\n      swap2\n      swap1\n      pop\n      jump\t// out\n        /* \"#utility.yul\":10112:10478   */\n    tag_458:\n        /* \"#utility.yul\":10254:10257   */\n      0x00\n        /* \"#utility.yul\":10275:10342   */\n      tag_460\n        /* \"#utility.yul\":10339:10341   */\n      0x29\n        /* \"#utility.yul\":10334:10337   */\n      dup4\n        /* \"#utility.yul\":10275:10342   */\n      tag_419\n      jump\t// in\n    tag_460:\n        /* \"#utility.yul\":10268:10342   */\n      swap2\n      pop\n        /* \"#utility.yul\":10351:10444   */\n      tag_461\n        /* \"#utility.yul\":10440:10443   */\n      dup3\n        /* \"#utility.yul\":10351:10444   */\n      tag_462\n      jump\t// in\n    tag_461:\n        /* \"#utility.yul\":10469:10471   */\n      0x40\n        /* \"#utility.yul\":10464:10467   */\n      dup3\n        /* \"#utility.yul\":10460:10472   */\n      add\n        /* \"#utility.yul\":10453:10472   */\n      swap1\n      pop\n        /* \"#utility.yul\":10258:10478   */\n      swap2\n      swap1\n      pop\n      jump\t// out\n        /* \"#utility.yul\":10484:10850   */\n    tag_463:\n        /* \"#utility.yul\":10626:10629   */\n      0x00\n        /* \"#utility.yul\":10647:10714   */\n      tag_465\n        /* \"#utility.yul\":10711:10713   */\n      0x2e\n        /* \"#utility.yul\":10706:10709   */\n      dup4\n        /* \"#utility.yul\":10647:10714   */\n      tag_419\n      jump\t// in\n    tag_465:\n        /* \"#utility.yul\":10640:10714   */\n      swap2\n      pop\n        /* \"#utility.yul\":10723:10816   */\n      tag_466\n        /* \"#utility.yul\":10812:10815   */\n      dup3\n        /* \"#utility.yul\":10723:10816   */\n      tag_467\n      jump\t// in\n    tag_466:\n        /* \"#utility.yul\":10841:10843   */\n      0x40\n        /* \"#utility.yul\":10836:10839   */\n      dup3\n        /* \"#utility.yul\":10832:10844   */\n      add\n        /* \"#utility.yul\":10825:10844   */\n      swap1\n      pop\n        /* \"#utility.yul\":10630:10850   */\n      swap2\n      swap1\n      pop\n      jump\t// out\n        /* \"#utility.yul\":10856:11222   */\n    tag_468:\n        /* \"#utility.yul\":10998:11001   */\n      0x00\n        /* \"#utility.yul\":11019:11086   */\n      tag_470\n        /* \"#utility.yul\":11083:11085   */\n      0x20\n        /* \"#utility.yul\":11078:11081   */\n      dup4\n        /* \"#utility.yul\":11019:11086   */\n      tag_419\n      jump\t// in\n    tag_470:\n        /* \"#utility.yul\":11012:11086   */\n      swap2\n      pop\n        /* \"#utility.yul\":11095:11188   */\n      tag_471\n        /* \"#utility.yul\":11184:11187   */\n      dup3\n        /* \"#utility.yul\":11095:11188   */\n      tag_472\n      jump\t// in\n    tag_471:\n        /* \"#utility.yul\":11213:11215   */\n      0x20\n        /* \"#utility.yul\":11208:11211   */\n      dup3\n        /* \"#utility.yul\":11204:11216   */\n      add\n        /* \"#utility.yul\":11197:11216   */\n      swap1\n      pop\n        /* \"#utility.yul\":11002:11222   */\n      swap2\n      swap1\n      pop\n      jump\t// out\n        /* \"#utility.yul\":11228:11594   */\n    tag_473:\n        /* \"#utility.yul\":11370:11373   */\n      0x00\n        /* \"#utility.yul\":11391:11458   */\n      tag_475\n        /* \"#utility.yul\":11455:11457   */\n      0x18\n        /* \"#utility.yul\":11450:11453   */\n      dup4\n        /* \"#utility.yul\":11391:11458   */\n      tag_419\n      jump\t// in\n    tag_475:\n        /* \"#utility.yul\":11384:11458   */\n      swap2\n      pop\n        /* \"#utility.yul\":11467:11560   */\n      tag_476\n        /* \"#utility.yul\":11556:11559   */\n      dup3\n        /* \"#utility.yul\":11467:11560   */\n      tag_477\n      jump\t// in\n    tag_476:\n        /* \"#utility.yul\":11585:11587   */\n      0x20\n        /* \"#utility.yul\":11580:11583   */\n      dup3\n        /* \"#utility.yul\":11576:11588   */\n      add\n        /* \"#utility.yul\":11569:11588   */\n      swap1\n      pop\n        /* \"#utility.yul\":11374:11594   */\n      swap2\n      swap1\n      pop\n      jump\t// out\n        /* \"#utility.yul\":11600:11966   */\n    tag_478:\n        /* \"#utility.yul\":11742:11745   */\n      0x00\n        /* \"#utility.yul\":11763:11830   */\n      tag_480\n        /* \"#utility.yul\":11827:11829   */\n      0x21\n        /* \"#utility.yul\":11822:11825   */\n      dup4\n        /* \"#utility.yul\":11763:11830   */\n      tag_419\n      jump\t// in\n    tag_480:\n        /* \"#utility.yul\":11756:11830   */\n      swap2\n      pop\n        /* \"#utility.yul\":11839:11932   */\n      tag_481\n        /* \"#utility.yul\":11928:11931   */\n      dup3\n        /* \"#utility.yul\":11839:11932   */\n      tag_482\n      jump\t// in\n    tag_481:\n        /* \"#utility.yul\":11957:11959   */\n      0x40\n        /* \"#utility.yul\":11952:11955   */\n      dup3\n        /* \"#utility.yul\":11948:11960   */\n      add\n        /* \"#utility.yul\":11941:11960   */\n      swap1\n      pop\n        /* \"#utility.yul\":11746:11966   */\n      swap2\n      swap1\n      pop\n      jump\t// out\n        /* \"#utility.yul\":11972:12338   */\n    tag_483:\n        /* \"#utility.yul\":12114:12117   */\n      0x00\n        /* \"#utility.yul\":12135:12202   */\n      tag_485\n        /* \"#utility.yul\":12199:12201   */\n      0x3d\n        /* \"#utility.yul\":12194:12197   */\n      dup4\n        /* \"#utility.yul\":12135:12202   */\n      tag_419\n      jump\t// in\n    tag_485:\n        /* \"#utility.yul\":12128:12202   */\n      swap2\n      pop\n        /* \"#utility.yul\":12211:12304   */\n      tag_486\n        /* \"#utility.yul\":12300:12303   */\n      dup3\n        /* \"#utility.yul\":12211:12304   */\n      tag_487\n      jump\t// in\n    tag_486:\n        /* \"#utility.yul\":12329:12331   */\n      0x40\n        /* \"#utility.yul\":12324:12327   */\n      dup3\n        /* \"#utility.yul\":12320:12332   */\n      add\n        /* \"#utility.yul\":12313:12332   */\n      swap1\n      pop\n        /* \"#utility.yul\":12118:12338   */\n      swap2\n      swap1\n      pop\n      jump\t// out\n        /* \"#utility.yul\":12344:12462   */\n    tag_488:\n        /* \"#utility.yul\":12431:12455   */\n      tag_490\n        /* \"#utility.yul\":12449:12454   */\n      dup2\n        /* \"#utility.yul\":12431:12455   */\n      tag_491\n      jump\t// in\n    tag_490:\n        /* \"#utility.yul\":12426:12429   */\n      dup3\n        /* \"#utility.yul\":12419:12456   */\n      mstore\n        /* \"#utility.yul\":12409:12462   */\n      pop\n      pop\n      jump\t// out\n        /* \"#utility.yul\":12468:12903   */\n    tag_174:\n        /* \"#utility.yul\":12648:12651   */\n      0x00\n        /* \"#utility.yul\":12670:12765   */\n      tag_493\n        /* \"#utility.yul\":12761:12764   */\n      dup3\n        /* \"#utility.yul\":12752:12758   */\n      dup6\n        /* \"#utility.yul\":12670:12765   */\n      tag_422\n      jump\t// in\n    tag_493:\n        /* \"#utility.yul\":12663:12765   */\n      swap2\n      pop\n        /* \"#utility.yul\":12782:12877   */\n      tag_494\n        /* \"#utility.yul\":12873:12876   */\n      dup3\n        /* \"#utility.yul\":12864:12870   */\n      dup5\n        /* \"#utility.yul\":12782:12877   */\n      tag_422\n      jump\t// in\n    tag_494:\n        /* \"#utility.yul\":12775:12877   */\n      swap2\n      pop\n        /* \"#utility.yul\":12894:12897   */\n      dup2\n        /* \"#utility.yul\":12887:12897   */\n      swap1\n      pop\n        /* \"#utility.yul\":12652:12903   */\n      swap4\n      swap3\n      pop\n      pop\n      pop\n      jump\t// out\n        /* \"#utility.yul\":12909:13131   */\n    tag_37:\n        /* \"#utility.yul\":13002:13006   */\n      0x00\n        /* \"#utility.yul\":13040:13042   */\n      0x20\n        /* \"#utility.yul\":13029:13038   */\n      dup3\n        /* \"#utility.yul\":13025:13043   */\n      add\n        /* \"#utility.yul\":13017:13043   */\n      swap1\n      pop\n        /* \"#utility.yul\":13053:13124   */\n      tag_496\n        /* \"#utility.yul\":13121:13122   */\n      0x00\n        /* \"#utility.yul\":13110:13119   */\n      dup4\n        /* \"#utility.yul\":13106:13123   */\n      add\n        /* \"#utility.yul\":13097:13103   */\n      dup5\n        /* \"#utility.yul\":13053:13124   */\n      tag_396\n      jump\t// in\n    tag_496:\n        /* \"#utility.yul\":13007:13131   */\n      swap3\n      swap2\n      pop\n      pop\n      jump\t// out\n        /* \"#utility.yul\":13137:13777   */\n    tag_267:\n        /* \"#utility.yul\":13332:13336   */\n      0x00\n        /* \"#utility.yul\":13370:13373   */\n      0x80\n        /* \"#utility.yul\":13359:13368   */\n      dup3\n        /* \"#utility.yul\":13355:13374   */\n      add\n        /* \"#utility.yul\":13347:13374   */\n      swap1\n      pop\n        /* \"#utility.yul\":13384:13455   */\n      tag_498\n        /* \"#utility.yul\":13452:13453   */\n      0x00\n        /* \"#utility.yul\":13441:13450   */\n      dup4\n        /* \"#utility.yul\":13437:13454   */\n      add\n        /* \"#utility.yul\":13428:13434   */\n      dup8\n        /* \"#utility.yul\":13384:13455   */\n      tag_396\n      jump\t// in\n    tag_498:\n        /* \"#utility.yul\":13465:13537   */\n      tag_499\n        /* \"#utility.yul\":13533:13535   */\n      0x20\n        /* \"#utility.yul\":13522:13531   */\n      dup4\n        /* \"#utility.yul\":13518:13536   */\n      add\n        /* \"#utility.yul\":13509:13515   */\n      dup7\n        /* \"#utility.yul\":13465:13537   */\n      tag_396\n      jump\t// in\n    tag_499:\n        /* \"#utility.yul\":13547:13619   */\n      tag_500\n        /* \"#utility.yul\":13615:13617   */\n      0x40\n        /* \"#utility.yul\":13604:13613   */\n      dup4\n        /* \"#utility.yul\":13600:13618   */\n      add\n        /* \"#utility.yul\":13591:13597   */\n      dup6\n        /* \"#utility.yul\":13547:13619   */\n      tag_488\n      jump\t// in\n    tag_500:\n        /* \"#utility.yul\":13666:13675   */\n      dup2\n        /* \"#utility.yul\":13660:13664   */\n      dup2\n        /* \"#utility.yul\":13656:13676   */\n      sub\n        /* \"#utility.yul\":13651:13653   */\n      0x60\n        /* \"#utility.yul\":13640:13649   */\n      dup4\n        /* \"#utility.yul\":13636:13654   */\n      add\n        /* \"#utility.yul\":13629:13677   */\n      mstore\n        /* \"#utility.yul\":13694:13770   */\n      tag_501\n        /* \"#utility.yul\":13765:13769   */\n      dup2\n        /* \"#utility.yul\":13756:13762   */\n      dup5\n        /* \"#utility.yul\":13694:13770   */\n      tag_404\n      jump\t// in\n    tag_501:\n        /* \"#utility.yul\":13686:13770   */\n      swap1\n      pop\n        /* \"#utility.yul\":13337:13777   */\n      swap6\n      swap5\n      pop\n      pop\n      pop\n      pop\n      pop\n      jump\t// out\n        /* \"#utility.yul\":13783:13993   */\n    tag_27:\n        /* \"#utility.yul\":13870:13874   */\n      0x00\n        /* \"#utility.yul\":13908:13910   */\n      0x20\n        /* \"#utility.yul\":13897:13906   */\n      dup3\n        /* \"#utility.yul\":13893:13911   */\n      add\n        /* \"#utility.yul\":13885:13911   */\n      swap1\n      pop\n        /* \"#utility.yul\":13921:13986   */\n      tag_503\n        /* \"#utility.yul\":13983:13984   */\n      0x00\n        /* \"#utility.yul\":13972:13981   */\n      dup4\n        /* \"#utility.yul\":13968:13985   */\n      add\n        /* \"#utility.yul\":13959:13965   */\n      dup5\n        /* \"#utility.yul\":13921:13986   */\n      tag_400\n      jump\t// in\n    tag_503:\n        /* \"#utility.yul\":13875:13993   */\n      swap3\n      swap2\n      pop\n      pop\n      jump\t// out\n        /* \"#utility.yul\":13999:14312   */\n    tag_31:\n        /* \"#utility.yul\":14112:14116   */\n      0x00\n        /* \"#utility.yul\":14150:14152   */\n      0x20\n        /* \"#utility.yul\":14139:14148   */\n      dup3\n        /* \"#utility.yul\":14135:14153   */\n      add\n        /* \"#utility.yul\":14127:14153   */\n      swap1\n      pop\n        /* \"#utility.yul\":14199:14208   */\n      dup2\n        /* \"#utility.yul\":14193:14197   */\n      dup2\n        /* \"#utility.yul\":14189:14209   */\n      sub\n        /* \"#utility.yul\":14185:14186   */\n      0x00\n        /* \"#utility.yul\":14174:14183   */\n      dup4\n        /* \"#utility.yul\":14170:14187   */\n      add\n        /* \"#utility.yul\":14163:14210   */\n      mstore\n        /* \"#utility.yul\":14227:14305   */\n      tag_505\n        /* \"#utility.yul\":14300:14304   */\n      dup2\n        /* \"#utility.yul\":14291:14297   */\n      dup5\n        /* \"#utility.yul\":14227:14305   */\n      tag_414\n      jump\t// in\n    tag_505:\n        /* \"#utility.yul\":14219:14305   */\n      swap1\n      pop\n        /* \"#utility.yul\":14117:14312   */\n      swap3\n      swap2\n      pop\n      pop\n      jump\t// out\n        /* \"#utility.yul\":14318:14737   */\n    tag_127:\n        /* \"#utility.yul\":14484:14488   */\n      0x00\n        /* \"#utility.yul\":14522:14524   */\n      0x20\n        /* \"#utility.yul\":14511:14520   */\n      dup3\n        /* \"#utility.yul\":14507:14525   */\n      add\n        /* \"#utility.yul\":14499:14525   */\n      swap1\n      pop\n        /* \"#utility.yul\":14571:14580   */\n      dup2\n        /* \"#utility.yul\":14565:14569   */\n      dup2\n        /* \"#utility.yul\":14561:14581   */\n      sub\n        /* \"#utility.yul\":14557:14558   */\n      0x00\n        /* \"#utility.yul\":14546:14555   */\n      dup4\n        /* \"#utility.yul\":14542:14559   */\n      add\n        /* \"#utility.yul\":14535:14582   */\n      mstore\n        /* \"#utility.yul\":14599:14730   */\n      tag_507\n        /* \"#utility.yul\":14725:14729   */\n      dup2\n        /* \"#utility.yul\":14599:14730   */\n      tag_428\n      jump\t// in\n    tag_507:\n        /* \"#utility.yul\":14591:14730   */\n      swap1\n      pop\n        /* \"#utility.yul\":14489:14737   */\n      swap2\n      swap1\n      pop\n      jump\t// out\n        /* \"#utility.yul\":14743:15162   */\n    tag_230:\n        /* \"#utility.yul\":14909:14913   */\n      0x00\n        /* \"#utility.yul\":14947:14949   */\n      0x20\n        /* \"#utility.yul\":14936:14945   */\n      dup3\n        /* \"#utility.yul\":14932:14950   */\n      add\n        /* \"#utility.yul\":14924:14950   */\n      swap1\n      pop\n        /* \"#utility.yul\":14996:15005   */\n      dup2\n        /* \"#utility.yul\":14990:14994   */\n      dup2\n        /* \"#utility.yul\":14986:15006   */\n      sub\n        /* \"#utility.yul\":14982:14983   */\n      0x00\n        /* \"#utility.yul\":14971:14980   */\n      dup4\n        /* \"#utility.yul\":14967:14984   */\n      add\n        /* \"#utility.yul\":14960:15007   */\n      mstore\n        /* \"#utility.yul\":15024:15155   */\n      tag_509\n        /* \"#utility.yul\":15150:15154   */\n      dup2\n        /* \"#utility.yul\":15024:15155   */\n      tag_433\n      jump\t// in\n    tag_509:\n        /* \"#utility.yul\":15016:15155   */\n      swap1\n      pop\n        /* \"#utility.yul\":14914:15162   */\n      swap2\n      swap1\n      pop\n      jump\t// out\n        /* \"#utility.yul\":15168:15587   */\n    tag_198:\n        /* \"#utility.yul\":15334:15338   */\n      0x00\n        /* \"#utility.yul\":15372:15374   */\n      0x20\n        /* \"#utility.yul\":15361:15370   */\n      dup3\n        /* \"#utility.yul\":15357:15375   */\n      add\n        /* \"#utility.yul\":15349:15375   */\n      swap1\n      pop\n        /* \"#utility.yul\":15421:15430   */\n      dup2\n        /* \"#utility.yul\":15415:15419   */\n      dup2\n        /* \"#utility.yul\":15411:15431   */\n      sub\n        /* \"#utility.yul\":15407:15408   */\n      0x00\n        /* \"#utility.yul\":15396:15405   */\n      dup4\n        /* \"#utility.yul\":15392:15409   */\n      add\n        /* \"#utility.yul\":15385:15432   */\n      mstore\n        /* \"#utility.yul\":15449:15580   */\n      tag_511\n        /* \"#utility.yul\":15575:15579   */\n      dup2\n        /* \"#utility.yul\":15449:15580   */\n      tag_438\n      jump\t// in\n    tag_511:\n        /* \"#utility.yul\":15441:15580   */\n      swap1\n      pop\n        /* \"#utility.yul\":15339:15587   */\n      swap2\n      swap1\n      pop\n      jump\t// out\n        /* \"#utility.yul\":15593:16012   */\n    tag_292:\n        /* \"#utility.yul\":15759:15763   */\n      0x00\n        /* \"#utility.yul\":15797:15799   */\n      0x20\n        /* \"#utility.yul\":15786:15795   */\n      dup3\n        /* \"#utility.yul\":15782:15800   */\n      add\n        /* \"#utility.yul\":15774:15800   */\n      swap1\n      pop\n        /* \"#utility.yul\":15846:15855   */\n      dup2\n        /* \"#utility.yul\":15840:15844   */\n      dup2\n        /* \"#utility.yul\":15836:15856   */\n      sub\n        /* \"#utility.yul\":15832:15833   */\n      0x00\n        /* \"#utility.yul\":15821:15830   */\n      dup4\n        /* \"#utility.yul\":15817:15834   */\n      add\n        /* \"#utility.yul\":15810:15857   */\n      mstore\n        /* \"#utility.yul\":15874:16005   */\n      tag_513\n        /* \"#utility.yul\":16000:16004   */\n      dup2\n        /* \"#utility.yul\":15874:16005   */\n      tag_443\n      jump\t// in\n    tag_513:\n        /* \"#utility.yul\":15866:16005   */\n      swap1\n      pop\n        /* \"#utility.yul\":15764:16012   */\n      swap2\n      swap1\n      pop\n      jump\t// out\n        /* \"#utility.yul\":16018:16437   */\n    tag_201:\n        /* \"#utility.yul\":16184:16188   */\n      0x00\n        /* \"#utility.yul\":16222:16224   */\n      0x20\n        /* \"#utility.yul\":16211:16220   */\n      dup3\n        /* \"#utility.yul\":16207:16225   */\n      add\n        /* \"#utility.yul\":16199:16225   */\n      swap1\n      pop\n        /* \"#utility.yul\":16271:16280   */\n      dup2\n        /* \"#utility.yul\":16265:16269   */\n      dup2\n        /* \"#utility.yul\":16261:16281   */\n      sub\n        /* \"#utility.yul\":16257:16258   */\n      0x00\n        /* \"#utility.yul\":16246:16255   */\n      dup4\n        /* \"#utility.yul\":16242:16259   */\n      add\n        /* \"#utility.yul\":16235:16282   */\n      mstore\n        /* \"#utility.yul\":16299:16430   */\n      tag_515\n        /* \"#utility.yul\":16425:16429   */\n      dup2\n        /* \"#utility.yul\":16299:16430   */\n      tag_448\n      jump\t// in\n    tag_515:\n        /* \"#utility.yul\":16291:16430   */\n      swap1\n      pop\n        /* \"#utility.yul\":16189:16437   */\n      swap2\n      swap1\n      pop\n      jump\t// out\n        /* \"#utility.yul\":16443:16862   */\n    tag_212:\n        /* \"#utility.yul\":16609:16613   */\n      0x00\n        /* \"#utility.yul\":16647:16649   */\n      0x20\n        /* \"#utility.yul\":16636:16645   */\n      dup3\n        /* \"#utility.yul\":16632:16650   */\n      add\n        /* \"#utility.yul\":16624:16650   */\n      swap1\n      pop\n        /* \"#utility.yul\":16696:16705   */\n      dup2\n        /* \"#utility.yul\":16690:16694   */\n      dup2\n        /* \"#utility.yul\":16686:16706   */\n      sub\n        /* \"#utility.yul\":16682:16683   */\n      0x00\n        /* \"#utility.yul\":16671:16680   */\n      dup4\n        /* \"#utility.yul\":16667:16684   */\n      add\n        /* \"#utility.yul\":16660:16707   */\n      mstore\n        /* \"#utility.yul\":16724:16855   */\n      tag_517\n        /* \"#utility.yul\":16850:16854   */\n      dup2\n        /* \"#utility.yul\":16724:16855   */\n      tag_453\n      jump\t// in\n    tag_517:\n        /* \"#utility.yul\":16716:16855   */\n      swap1\n      pop\n        /* \"#utility.yul\":16614:16862   */\n      swap2\n      swap1\n      pop\n      jump\t// out\n        /* \"#utility.yul\":16868:17287   */\n    tag_142:\n        /* \"#utility.yul\":17034:17038   */\n      0x00\n        /* \"#utility.yul\":17072:17074   */\n      0x20\n        /* \"#utility.yul\":17061:17070   */\n      dup3\n        /* \"#utility.yul\":17057:17075   */\n      add\n        /* \"#utility.yul\":17049:17075   */\n      swap1\n      pop\n        /* \"#utility.yul\":17121:17130   */\n      dup2\n        /* \"#utility.yul\":17115:17119   */\n      dup2\n        /* \"#utility.yul\":17111:17131   */\n      sub\n        /* \"#utility.yul\":17107:17108   */\n      0x00\n        /* \"#utility.yul\":17096:17105   */\n      dup4\n        /* \"#utility.yul\":17092:17109   */\n      add\n        /* \"#utility.yul\":17085:17132   */\n      mstore\n        /* \"#utility.yul\":17149:17280   */\n      tag_519\n        /* \"#utility.yul\":17275:17279   */\n      dup2\n        /* \"#utility.yul\":17149:17280   */\n      tag_458\n      jump\t// in\n    tag_519:\n        /* \"#utility.yul\":17141:17280   */\n      swap1\n      pop\n        /* \"#utility.yul\":17039:17287   */\n      swap2\n      swap1\n      pop\n      jump\t// out\n        /* \"#utility.yul\":17293:17712   */\n    tag_221:\n        /* \"#utility.yul\":17459:17463   */\n      0x00\n        /* \"#utility.yul\":17497:17499   */\n      0x20\n        /* \"#utility.yul\":17486:17495   */\n      dup3\n        /* \"#utility.yul\":17482:17500   */\n      add\n        /* \"#utility.yul\":17474:17500   */\n      swap1\n      pop\n        /* \"#utility.yul\":17546:17555   */\n      dup2\n        /* \"#utility.yul\":17540:17544   */\n      dup2\n        /* \"#utility.yul\":17536:17556   */\n      sub\n        /* \"#utility.yul\":17532:17533   */\n      0x00\n        /* \"#utility.yul\":17521:17530   */\n      dup4\n        /* \"#utility.yul\":17517:17534   */\n      add\n        /* \"#utility.yul\":17510:17557   */\n      mstore\n        /* \"#utility.yul\":17574:17705   */\n      tag_521\n        /* \"#utility.yul\":17700:17704   */\n      dup2\n        /* \"#utility.yul\":17574:17705   */\n      tag_463\n      jump\t// in\n    tag_521:\n        /* \"#utility.yul\":17566:17705   */\n      swap1\n      pop\n        /* \"#utility.yul\":17464:17712   */\n      swap2\n      swap1\n      pop\n      jump\t// out\n        /* \"#utility.yul\":17718:18137   */\n    tag_286:\n        /* \"#utility.yul\":17884:17888   */\n      0x00\n        /* \"#utility.yul\":17922:17924   */\n      0x20\n        /* \"#utility.yul\":17911:17920   */\n      dup3\n        /* \"#utility.yul\":17907:17925   */\n      add\n        /* \"#utility.yul\":17899:17925   */\n      swap1\n      pop\n        /* \"#utility.yul\":17971:17980   */\n      dup2\n        /* \"#utility.yul\":17965:17969   */\n      dup2\n        /* \"#utility.yul\":17961:17981   */\n      sub\n        /* \"#utility.yul\":17957:17958   */\n      0x00\n        /* \"#utility.yul\":17946:17955   */\n      dup4\n        /* \"#utility.yul\":17942:17959   */\n      add\n        /* \"#utility.yul\":17935:17982   */\n      mstore\n        /* \"#utility.yul\":17999:18130   */\n      tag_523\n        /* \"#utility.yul\":18125:18129   */\n      dup2\n        /* \"#utility.yul\":17999:18130   */\n      tag_468\n      jump\t// in\n    tag_523:\n        /* \"#utility.yul\":17991:18130   */\n      swap1\n      pop\n        /* \"#utility.yul\":17889:18137   */\n      swap2\n      swap1\n      pop\n      jump\t// out\n        /* \"#utility.yul\":18143:18562   */\n    tag_135:\n        /* \"#utility.yul\":18309:18313   */\n      0x00\n        /* \"#utility.yul\":18347:18349   */\n      0x20\n        /* \"#utility.yul\":18336:18345   */\n      dup3\n        /* \"#utility.yul\":18332:18350   */\n      add\n        /* \"#utility.yul\":18324:18350   */\n      swap1\n      pop\n        /* \"#utility.yul\":18396:18405   */\n      dup2\n        /* \"#utility.yul\":18390:18394   */\n      dup2\n        /* \"#utility.yul\":18386:18406   */\n      sub\n        /* \"#utility.yul\":18382:18383   */\n      0x00\n        /* \"#utility.yul\":18371:18380   */\n      dup4\n        /* \"#utility.yul\":18367:18384   */\n      add\n        /* \"#utility.yul\":18360:18407   */\n      mstore\n        /* \"#utility.yul\":18424:18555   */\n      tag_525\n        /* \"#utility.yul\":18550:18554   */\n      dup2\n        /* \"#utility.yul\":18424:18555   */\n      tag_473\n      jump\t// in\n    tag_525:\n        /* \"#utility.yul\":18416:18555   */\n      swap1\n      pop\n        /* \"#utility.yul\":18314:18562   */\n      swap2\n      swap1\n      pop\n      jump\t// out\n        /* \"#utility.yul\":18568:18987   */\n    tag_110:\n        /* \"#utility.yul\":18734:18738   */\n      0x00\n        /* \"#utility.yul\":18772:18774   */\n      0x20\n        /* \"#utility.yul\":18761:18770   */\n      dup3\n        /* \"#utility.yul\":18757:18775   */\n      add\n        /* \"#utility.yul\":18749:18775   */\n      swap1\n      pop\n        /* \"#utility.yul\":18821:18830   */\n      dup2\n        /* \"#utility.yul\":18815:18819   */\n      dup2\n        /* \"#utility.yul\":18811:18831   */\n      sub\n        /* \"#utility.yul\":18807:18808   */\n      0x00\n        /* \"#utility.yul\":18796:18805   */\n      dup4\n        /* \"#utility.yul\":18792:18809   */\n      add\n        /* \"#utility.yul\":18785:18832   */\n      mstore\n        /* \"#utility.yul\":18849:18980   */\n      tag_527\n        /* \"#utility.yul\":18975:18979   */\n      dup2\n        /* \"#utility.yul\":18849:18980   */\n      tag_478\n      jump\t// in\n    tag_527:\n        /* \"#utility.yul\":18841:18980   */\n      swap1\n      pop\n        /* \"#utility.yul\":18739:18987   */\n      swap2\n      swap1\n      pop\n      jump\t// out\n        /* \"#utility.yul\":18993:19412   */\n    tag_118:\n        /* \"#utility.yul\":19159:19163   */\n      0x00\n        /* \"#utility.yul\":19197:19199   */\n      0x20\n        /* \"#utility.yul\":19186:19195   */\n      dup3\n        /* \"#utility.yul\":19182:19200   */\n      add\n        /* \"#utility.yul\":19174:19200   */\n      swap1\n      pop\n        /* \"#utility.yul\":19246:19255   */\n      dup2\n        /* \"#utility.yul\":19240:19244   */\n      dup2\n        /* \"#utility.yul\":19236:19256   */\n      sub\n        /* \"#utility.yul\":19232:19233   */\n      0x00\n        /* \"#utility.yul\":19221:19230   */\n      dup4\n        /* \"#utility.yul\":19217:19234   */\n      add\n        /* \"#utility.yul\":19210:19257   */\n      mstore\n        /* \"#utility.yul\":19274:19405   */\n      tag_529\n        /* \"#utility.yul\":19400:19404   */\n      dup2\n        /* \"#utility.yul\":19274:19405   */\n      tag_483\n      jump\t// in\n    tag_529:\n        /* \"#utility.yul\":19266:19405   */\n      swap1\n      pop\n        /* \"#utility.yul\":19164:19412   */\n      swap2\n      swap1\n      pop\n      jump\t// out\n        /* \"#utility.yul\":19418:19640   */\n    tag_62:\n        /* \"#utility.yul\":19511:19515   */\n      0x00\n        /* \"#utility.yul\":19549:19551   */\n      0x20\n        /* \"#utility.yul\":19538:19547   */\n      dup3\n        /* \"#utility.yul\":19534:19552   */\n      add\n        /* \"#utility.yul\":19526:19552   */\n      swap1\n      pop\n        /* \"#utility.yul\":19562:19633   */\n      tag_531\n        /* \"#utility.yul\":19630:19631   */\n      0x00\n        /* \"#utility.yul\":19619:19628   */\n      dup4\n        /* \"#utility.yul\":19615:19632   */\n      add\n        /* \"#utility.yul\":19606:19612   */\n      dup5\n        /* \"#utility.yul\":19562:19633   */\n      tag_488\n      jump\t// in\n    tag_531:\n        /* \"#utility.yul\":19516:19640   */\n      swap3\n      swap2\n      pop\n      pop\n      jump\t// out\n        /* \"#utility.yul\":19646:19775   */\n    tag_315:\n        /* \"#utility.yul\":19680:19686   */\n      0x00\n        /* \"#utility.yul\":19707:19727   */\n      tag_533\n      tag_534\n      jump\t// in\n    tag_533:\n        /* \"#utility.yul\":19697:19727   */\n      swap1\n      pop\n        /* \"#utility.yul\":19736:19769   */\n      tag_535\n        /* \"#utility.yul\":19764:19768   */\n      dup3\n        /* \"#utility.yul\":19756:19762   */\n      dup3\n        /* \"#utility.yul\":19736:19769   */\n      tag_536\n      jump\t// in\n    tag_535:\n        /* \"#utility.yul\":19687:19775   */\n      swap2\n      swap1\n      pop\n      jump\t// out\n        /* \"#utility.yul\":19781:19856   */\n    tag_534:\n        /* \"#utility.yul\":19814:19820   */\n      0x00\n        /* \"#utility.yul\":19847:19849   */\n      0x40\n        /* \"#utility.yul\":19841:19850   */\n      mload\n        /* \"#utility.yul\":19831:19850   */\n      swap1\n      pop\n        /* \"#utility.yul\":19821:19856   */\n      swap1\n      jump\t// out\n        /* \"#utility.yul\":19862:20169   */\n    tag_314:\n        /* \"#utility.yul\":19923:19927   */\n      0x00\n        /* \"#utility.yul\":20013:20031   */\n      0xffffffffffffffff\n        /* \"#utility.yul\":20005:20011   */\n      dup3\n        /* \"#utility.yul\":20002:20032   */\n      gt\n        /* \"#utility.yul\":19999:20001   */\n      iszero\n      tag_539\n      jumpi\n        /* \"#utility.yul\":20035:20053   */\n      tag_540\n      tag_541\n      jump\t// in\n    tag_540:\n        /* \"#utility.yul\":19999:20001   */\n    tag_539:\n        /* \"#utility.yul\":20073:20102   */\n      tag_542\n        /* \"#utility.yul\":20095:20101   */\n      dup3\n        /* \"#utility.yul\":20073:20102   */\n      tag_413\n      jump\t// in\n    tag_542:\n        /* \"#utility.yul\":20065:20102   */\n      swap1\n      pop\n        /* \"#utility.yul\":20157:20161   */\n      0x20\n        /* \"#utility.yul\":20151:20155   */\n      dup2\n        /* \"#utility.yul\":20147:20162   */\n      add\n        /* \"#utility.yul\":20139:20162   */\n      swap1\n      pop\n        /* \"#utility.yul\":19928:20169   */\n      swap2\n      swap1\n      pop\n      jump\t// out\n        /* \"#utility.yul\":20175:20483   */\n    tag_323:\n        /* \"#utility.yul\":20237:20241   */\n      0x00\n        /* \"#utility.yul\":20327:20345   */\n      0xffffffffffffffff\n        /* \"#utility.yul\":20319:20325   */\n      dup3\n        /* \"#utility.yul\":20316:20346   */\n      gt\n        /* \"#utility.yul\":20313:20315   */\n      iszero\n      tag_544\n      jumpi\n        /* \"#utility.yul\":20349:20367   */\n      tag_545\n      tag_541\n      jump\t// in\n    tag_545:\n        /* \"#utility.yul\":20313:20315   */\n    tag_544:\n        /* \"#utility.yul\":20387:20416   */\n      tag_546\n        /* \"#utility.yul\":20409:20415   */\n      dup3\n        /* \"#utility.yul\":20387:20416   */\n      tag_413\n      jump\t// in\n    tag_546:\n        /* \"#utility.yul\":20379:20416   */\n      swap1\n      pop\n        /* \"#utility.yul\":20471:20475   */\n      0x20\n        /* \"#utility.yul\":20465:20469   */\n      dup2\n        /* \"#utility.yul\":20461:20476   */\n      add\n        /* \"#utility.yul\":20453:20476   */\n      swap1\n      pop\n        /* \"#utility.yul\":20242:20483   */\n      swap2\n      swap1\n      pop\n      jump\t// out\n        /* \"#utility.yul\":20489:20587   */\n    tag_407:\n        /* \"#utility.yul\":20540:20546   */\n      0x00\n        /* \"#utility.yul\":20574:20579   */\n      dup2\n        /* \"#utility.yul\":20568:20580   */\n      mload\n        /* \"#utility.yul\":20558:20580   */\n      swap1\n      pop\n        /* \"#utility.yul\":20547:20587   */\n      swap2\n      swap1\n      pop\n      jump\t// out\n        /* \"#utility.yul\":20593:20692   */\n    tag_417:\n        /* \"#utility.yul\":20645:20651   */\n      0x00\n        /* \"#utility.yul\":20679:20684   */\n      dup2\n        /* \"#utility.yul\":20673:20685   */\n      mload\n        /* \"#utility.yul\":20663:20685   */\n      swap1\n      pop\n        /* \"#utility.yul\":20652:20692   */\n      swap2\n      swap1\n      pop\n      jump\t// out\n        /* \"#utility.yul\":20698:20866   */\n    tag_409:\n        /* \"#utility.yul\":20781:20792   */\n      0x00\n        /* \"#utility.yul\":20815:20821   */\n      dup3\n        /* \"#utility.yul\":20810:20813   */\n      dup3\n        /* \"#utility.yul\":20803:20822   */\n      mstore\n        /* \"#utility.yul\":20855:20859   */\n      0x20\n        /* \"#utility.yul\":20850:20853   */\n      dup3\n        /* \"#utility.yul\":20846:20860   */\n      add\n        /* \"#utility.yul\":20831:20860   */\n      swap1\n      pop\n        /* \"#utility.yul\":20793:20866   */\n      swap3\n      swap2\n      pop\n      pop\n      jump\t// out\n        /* \"#utility.yul\":20872:21041   */\n    tag_419:\n        /* \"#utility.yul\":20956:20967   */\n      0x00\n        /* \"#utility.yul\":20990:20996   */\n      dup3\n        /* \"#utility.yul\":20985:20988   */\n      dup3\n        /* \"#utility.yul\":20978:20997   */\n      mstore\n        /* \"#utility.yul\":21030:21034   */\n      0x20\n        /* \"#utility.yul\":21025:21028   */\n      dup3\n        /* \"#utility.yul\":21021:21035   */\n      add\n        /* \"#utility.yul\":21006:21035   */\n      swap1\n      pop\n        /* \"#utility.yul\":20968:21041   */\n      swap3\n      swap2\n      pop\n      pop\n      jump\t// out\n        /* \"#utility.yul\":21047:21195   */\n    tag_426:\n        /* \"#utility.yul\":21149:21160   */\n      0x00\n        /* \"#utility.yul\":21186:21189   */\n      dup2\n        /* \"#utility.yul\":21171:21189   */\n      swap1\n      pop\n        /* \"#utility.yul\":21161:21195   */\n      swap3\n      swap2\n      pop\n      pop\n      jump\t// out\n        /* \"#utility.yul\":21201:21506   */\n    tag_249:\n        /* \"#utility.yul\":21241:21244   */\n      0x00\n        /* \"#utility.yul\":21260:21280   */\n      tag_553\n        /* \"#utility.yul\":21278:21279   */\n      dup3\n        /* \"#utility.yul\":21260:21280   */\n      tag_491\n      jump\t// in\n    tag_553:\n        /* \"#utility.yul\":21255:21280   */\n      swap2\n      pop\n        /* \"#utility.yul\":21294:21314   */\n      tag_554\n        /* \"#utility.yul\":21312:21313   */\n      dup4\n        /* \"#utility.yul\":21294:21314   */\n      tag_491\n      jump\t// in\n    tag_554:\n        /* \"#utility.yul\":21289:21314   */\n      swap3\n      pop\n        /* \"#utility.yul\":21448:21449   */\n      dup3\n        /* \"#utility.yul\":21380:21446   */\n      0xffffffffffffffffffffffffffffffffffffffffffffffffffffffffffffffff\n        /* \"#utility.yul\":21376:21450   */\n      sub\n        /* \"#utility.yul\":21373:21374   */\n      dup3\n        /* \"#utility.yul\":21370:21451   */\n      gt\n        /* \"#utility.yul\":21367:21369   */\n      iszero\n      tag_555\n      jumpi\n        /* \"#utility.yul\":21454:21472   */\n      tag_556\n      tag_557\n      jump\t// in\n    tag_556:\n        /* \"#utility.yul\":21367:21369   */\n    tag_555:\n        /* \"#utility.yul\":21498:21499   */\n      dup3\n        /* \"#utility.yul\":21495:21496   */\n      dup3\n        /* \"#utility.yul\":21491:21500   */\n      add\n        /* \"#utility.yul\":21484:21500   */\n      swap1\n      pop\n        /* \"#utility.yul\":21245:21506   */\n      swap3\n      swap2\n      pop\n      pop\n      jump\t// out\n        /* \"#utility.yul\":21512:21697   */\n    tag_239:\n        /* \"#utility.yul\":21552:21553   */\n      0x00\n        /* \"#utility.yul\":21569:21589   */\n      tag_559\n        /* \"#utility.yul\":21587:21588   */\n      dup3\n        /* \"#utility.yul\":21569:21589   */\n      tag_491\n      jump\t// in\n    tag_559:\n        /* \"#utility.yul\":21564:21589   */\n      swap2\n      pop\n        /* \"#utility.yul\":21603:21623   */\n      tag_560\n        /* \"#utility.yul\":21621:21622   */\n      dup4\n        /* \"#utility.yul\":21603:21623   */\n      tag_491\n      jump\t// in\n    tag_560:\n        /* \"#utility.yul\":21598:21623   */\n      swap3\n      pop\n        /* \"#utility.yul\":21642:21643   */\n      dup3\n        /* \"#utility.yul\":21632:21634   */\n      tag_561\n      jumpi\n        /* \"#utility.yul\":21647:21665   */\n      tag_562\n      tag_563\n      jump\t// in\n    tag_562:\n        /* \"#utility.yul\":21632:21634   */\n    tag_561:\n        /* \"#utility.yul\":21689:21690   */\n      dup3\n        /* \"#utility.yul\":21686:21687   */\n      dup3\n        /* \"#utility.yul\":21682:21691   */\n      div\n        /* \"#utility.yul\":21677:21691   */\n      swap1\n      pop\n        /* \"#utility.yul\":21554:21697   */\n      swap3\n      swap2\n      pop\n      pop\n      jump\t// out\n        /* \"#utility.yul\":21703:21894   */\n    tag_245:\n        /* \"#utility.yul\":21743:21747   */\n      0x00\n        /* \"#utility.yul\":21763:21783   */\n      tag_565\n        /* \"#utility.yul\":21781:21782   */\n      dup3\n        /* \"#utility.yul\":21763:21783   */\n      tag_491\n      jump\t// in\n    tag_565:\n        /* \"#utility.yul\":21758:21783   */\n      swap2\n      pop\n        /* \"#utility.yul\":21797:21817   */\n      tag_566\n        /* \"#utility.yul\":21815:21816   */\n      dup4\n        /* \"#utility.yul\":21797:21817   */\n      tag_491\n      jump\t// in\n    tag_566:\n        /* \"#utility.yul\":21792:21817   */\n      swap3\n      pop\n        /* \"#utility.yul\":21836:21837   */\n      dup3\n        /* \"#utility.yul\":21833:21834   */\n      dup3\n        /* \"#utility.yul\":21830:21838   */\n      lt\n        /* \"#utility.yul\":21827:21829   */\n      iszero\n      tag_567\n      jumpi\n        /* \"#utility.yul\":21841:21859   */\n      tag_568\n      tag_557\n      jump\t// in\n    tag_568:\n        /* \"#utility.yul\":21827:21829   */\n    tag_567:\n        /* \"#utility.yul\":21886:21887   */\n      dup3\n        /* \"#utility.yul\":21883:21884   */\n      dup3\n        /* \"#utility.yul\":21879:21888   */\n      sub\n        /* \"#utility.yul\":21871:21888   */\n      swap1\n      pop\n        /* \"#utility.yul\":21748:21894   */\n      swap3\n      swap2\n      pop\n      pop\n      jump\t// out\n        /* \"#utility.yul\":21900:21996   */\n    tag_399:\n        /* \"#utility.yul\":21937:21944   */\n      0x00\n        /* \"#utility.yul\":21966:21990   */\n      tag_570\n        /* \"#utility.yul\":21984:21989   */\n      dup3\n        /* \"#utility.yul\":21966:21990   */\n      tag_571\n      jump\t// in\n    tag_570:\n        /* \"#utility.yul\":21955:21990   */\n      swap1\n      pop\n        /* \"#utility.yul\":21945:21996   */\n      swap2\n      swap1\n      pop\n      jump\t// out\n        /* \"#utility.yul\":22002:22092   */\n    tag_403:\n        /* \"#utility.yul\":22036:22043   */\n      0x00\n        /* \"#utility.yul\":22079:22084   */\n      dup2\n        /* \"#utility.yul\":22072:22085   */\n      iszero\n        /* \"#utility.yul\":22065:22086   */\n      iszero\n        /* \"#utility.yul\":22054:22086   */\n      swap1\n      pop\n        /* \"#utility.yul\":22044:22092   */\n      swap2\n      swap1\n      pop\n      jump\t// out\n        /* \"#utility.yul\":22098:22247   */\n    tag_573:\n        /* \"#utility.yul\":22134:22141   */\n      0x00\n        /* \"#utility.yul\":22174:22240   */\n      0xffffffff00000000000000000000000000000000000000000000000000000000\n        /* \"#utility.yul\":22167:22172   */\n      dup3\n        /* \"#utility.yul\":22163:22241   */\n      and\n        /* \"#utility.yul\":22152:22241   */\n      swap1\n      pop\n        /* \"#utility.yul\":22142:22247   */\n      swap2\n      swap1\n      pop\n      jump\t// out\n        /* \"#utility.yul\":22253:22379   */\n    tag_571:\n        /* \"#utility.yul\":22290:22297   */\n      0x00\n        /* \"#utility.yul\":22330:22372   */\n      0xffffffffffffffffffffffffffffffffffffffff\n        /* \"#utility.yul\":22323:22328   */\n      dup3\n        /* \"#utility.yul\":22319:22373   */\n      and\n        /* \"#utility.yul\":22308:22373   */\n      swap1\n      pop\n        /* \"#utility.yul\":22298:22379   */\n      swap2\n      swap1\n      pop\n      jump\t// out\n        /* \"#utility.yul\":22385:22462   */\n    tag_491:\n        /* \"#utility.yul\":22422:22429   */\n      0x00\n        /* \"#utility.yul\":22451:22456   */\n      dup2\n        /* \"#utility.yul\":22440:22456   */\n      swap1\n      pop\n        /* \"#utility.yul\":22430:22462   */\n      swap2\n      swap1\n      pop\n      jump\t// out\n        /* \"#utility.yul\":22468:22622   */\n    tag_318:\n        /* \"#utility.yul\":22552:22558   */\n      dup3\n        /* \"#utility.yul\":22547:22550   */\n      dup2\n        /* \"#utility.yul\":22542:22545   */\n      dup4\n        /* \"#utility.yul\":22529:22559   */\n      calldatacopy\n        /* \"#utility.yul\":22614:22615   */\n      0x00\n        /* \"#utility.yul\":22605:22611   */\n      dup4\n        /* \"#utility.yul\":22600:22603   */\n      dup4\n        /* \"#utility.yul\":22596:22612   */\n      add\n        /* \"#utility.yul\":22589:22616   */\n      mstore\n        /* \"#utility.yul\":22519:22622   */\n      pop\n      pop\n      pop\n      jump\t// out\n        /* \"#utility.yul\":22628:22935   */\n    tag_411:\n        /* \"#utility.yul\":22696:22697   */\n      0x00\n        /* \"#utility.yul\":22706:22819   */\n    tag_579:\n        /* \"#utility.yul\":22720:22726   */\n      dup4\n        /* \"#utility.yul\":22717:22718   */\n      dup2\n        /* \"#utility.yul\":22714:22727   */\n      lt\n        /* \"#utility.yul\":22706:22819   */\n      iszero\n      tag_581\n      jumpi\n        /* \"#utility.yul\":22805:22806   */\n      dup1\n        /* \"#utility.yul\":22800:22803   */\n      dup3\n        /* \"#utility.yul\":22796:22807   */\n      add\n        /* \"#utility.yul\":22790:22808   */\n      mload\n        /* \"#utility.yul\":22786:22787   */\n      dup2\n        /* \"#utility.yul\":22781:22784   */\n      dup5\n        /* \"#utility.yul\":22777:22788   */\n      add\n        /* \"#utility.yul\":22770:22809   */\n      mstore\n        /* \"#utility.yul\":22742:22744   */\n      0x20\n        /* \"#utility.yul\":22739:22740   */\n      dup2\n        /* \"#utility.yul\":22735:22745   */\n      add\n        /* \"#utility.yul\":22730:22745   */\n      swap1\n      pop\n        /* \"#utility.yul\":22706:22819   */\n      jump(tag_579)\n    tag_581:\n        /* \"#utility.yul\":22837:22843   */\n      dup4\n        /* \"#utility.yul\":22834:22835   */\n      dup2\n        /* \"#utility.yul\":22831:22844   */\n      gt\n        /* \"#utility.yul\":22828:22830   */\n      iszero\n      tag_582\n      jumpi\n        /* \"#utility.yul\":22917:22918   */\n      0x00\n        /* \"#utility.yul\":22908:22914   */\n      dup5\n        /* \"#utility.yul\":22903:22906   */\n      dup5\n        /* \"#utility.yul\":22899:22915   */\n      add\n        /* \"#utility.yul\":22892:22919   */\n      mstore\n        /* \"#utility.yul\":22828:22830   */\n    tag_582:\n        /* \"#utility.yul\":22677:22935   */\n      pop\n      pop\n      pop\n      pop\n      jump\t// out\n        /* \"#utility.yul\":22941:23261   */\n    tag_98:\n        /* \"#utility.yul\":22985:22991   */\n      0x00\n        /* \"#utility.yul\":23022:23023   */\n      0x02\n        /* \"#utility.yul\":23016:23020   */\n      dup3\n        /* \"#utility.yul\":23012:23024   */\n      div\n        /* \"#utility.yul\":23002:23024   */\n      swap1\n      pop\n        /* \"#utility.yul\":23069:23070   */\n      0x01\n        /* \"#utility.yul\":23063:23067   */\n      dup3\n        /* \"#utility.yul\":23059:23071   */\n      and\n        /* \"#utility.yul\":23090:23108   */\n      dup1\n        /* \"#utility.yul\":23080:23082   */\n      tag_584\n      jumpi\n        /* \"#utility.yul\":23146:23150   */\n      0x7f\n        /* \"#utility.yul\":23138:23144   */\n      dup3\n        /* \"#utility.yul\":23134:23151   */\n      and\n        /* \"#utility.yul\":23124:23151   */\n      swap2\n      pop\n        /* \"#utility.yul\":23080:23082   */\n    tag_584:\n        /* \"#utility.yul\":23208:23210   */\n      0x20\n        /* \"#utility.yul\":23200:23206   */\n      dup3\n        /* \"#utility.yul\":23197:23211   */\n      lt\n        /* \"#utility.yul\":23177:23195   */\n      dup2\n        /* \"#utility.yul\":23174:23212   */\n      eq\n        /* \"#utility.yul\":23171:23173   */\n      iszero\n      tag_585\n      jumpi\n        /* \"#utility.yul\":23227:23245   */\n      tag_586\n      tag_587\n      jump\t// in\n    tag_586:\n        /* \"#utility.yul\":23171:23173   */\n    tag_585:\n        /* \"#utility.yul\":22992:23261   */\n      pop\n      swap2\n      swap1\n      pop\n      jump\t// out\n        /* \"#utility.yul\":23267:23548   */\n    tag_536:\n        /* \"#utility.yul\":23350:23377   */\n      tag_589\n        /* \"#utility.yul\":23372:23376   */\n      dup3\n        /* \"#utility.yul\":23350:23377   */\n      tag_413\n      jump\t// in\n    tag_589:\n        /* \"#utility.yul\":23342:23348   */\n      dup2\n        /* \"#utility.yul\":23338:23378   */\n      add\n        /* \"#utility.yul\":23480:23486   */\n      dup2\n        /* \"#utility.yul\":23468:23478   */\n      dup2\n        /* \"#utility.yul\":23465:23487   */\n      lt\n        /* \"#utility.yul\":23444:23462   */\n      0xffffffffffffffff\n        /* \"#utility.yul\":23432:23442   */\n      dup3\n        /* \"#utility.yul\":23429:23463   */\n      gt\n        /* \"#utility.yul\":23426:23488   */\n      or\n        /* \"#utility.yul\":23423:23425   */\n      iszero\n      tag_590\n      jumpi\n        /* \"#utility.yul\":23491:23509   */\n      tag_591\n      tag_541\n      jump\t// in\n    tag_591:\n        /* \"#utility.yul\":23423:23425   */\n    tag_590:\n        /* \"#utility.yul\":23531:23541   */\n      dup1\n        /* \"#utility.yul\":23527:23529   */\n      0x40\n        /* \"#utility.yul\":23520:23542   */\n      mstore\n        /* \"#utility.yul\":23310:23548   */\n      pop\n      pop\n      pop\n      jump\t// out\n        /* \"#utility.yul\":23554:23787   */\n    tag_237:\n        /* \"#utility.yul\":23593:23596   */\n      0x00\n        /* \"#utility.yul\":23616:23640   */\n      tag_593\n        /* \"#utility.yul\":23634:23639   */\n      dup3\n        /* \"#utility.yul\":23616:23640   */\n      tag_491\n      jump\t// in\n    tag_593:\n        /* \"#utility.yul\":23607:23640   */\n      swap2\n      pop\n        /* \"#utility.yul\":23662:23728   */\n      0xffffffffffffffffffffffffffffffffffffffffffffffffffffffffffffffff\n        /* \"#utility.yul\":23655:23660   */\n      dup3\n        /* \"#utility.yul\":23652:23729   */\n      eq\n        /* \"#utility.yul\":23649:23651   */\n      iszero\n      tag_594\n      jumpi\n        /* \"#utility.yul\":23732:23750   */\n      tag_595\n      tag_557\n      jump\t// in\n    tag_595:\n        /* \"#utility.yul\":23649:23651   */\n    tag_594:\n        /* \"#utility.yul\":23779:23780   */\n      0x01\n        /* \"#utility.yul\":23772:23777   */\n      dup3\n        /* \"#utility.yul\":23768:23781   */\n      add\n        /* \"#utility.yul\":23761:23781   */\n      swap1\n      pop\n        /* \"#utility.yul\":23597:23787   */\n      swap2\n      swap1\n      pop\n      jump\t// out\n        /* \"#utility.yul\":23793:23969   */\n    tag_247:\n        /* \"#utility.yul\":23825:23826   */\n      0x00\n        /* \"#utility.yul\":23842:23862   */\n      tag_597\n        /* \"#utility.yul\":23860:23861   */\n      dup3\n        /* \"#utility.yul\":23842:23862   */\n      tag_491\n      jump\t// in\n    tag_597:\n        /* \"#utility.yul\":23837:23862   */\n      swap2\n      pop\n        /* \"#utility.yul\":23876:23896   */\n      tag_598\n        /* \"#utility.yul\":23894:23895   */\n      dup4\n        /* \"#utility.yul\":23876:23896   */\n      tag_491\n      jump\t// in\n    tag_598:\n        /* \"#utility.yul\":23871:23896   */\n      swap3\n      pop\n        /* \"#utility.yul\":23915:23916   */\n      dup3\n        /* \"#utility.yul\":23905:23907   */\n      tag_599\n      jumpi\n        /* \"#utility.yul\":23920:23938   */\n      tag_600\n      tag_563\n      jump\t// in\n    tag_600:\n        /* \"#utility.yul\":23905:23907   */\n    tag_599:\n        /* \"#utility.yul\":23961:23962   */\n      dup3\n        /* \"#utility.yul\":23958:23959   */\n      dup3\n        /* \"#utility.yul\":23954:23963   */\n      mod\n        /* \"#utility.yul\":23949:23963   */\n      swap1\n      pop\n        /* \"#utility.yul\":23827:23969   */\n      swap3\n      swap2\n      pop\n      pop\n      jump\t// out\n        /* \"#utility.yul\":23975:24155   */\n    tag_557:\n        /* \"#utility.yul\":24023:24100   */\n      0x4e487b7100000000000000000000000000000000000000000000000000000000\n        /* \"#utility.yul\":24020:24021   */\n      0x00\n        /* \"#utility.yul\":24013:24101   */\n      mstore\n        /* \"#utility.yul\":24120:24124   */\n      0x11\n        /* \"#utility.yul\":24117:24118   */\n      0x04\n        /* \"#utility.yul\":24110:24125   */\n      mstore\n        /* \"#utility.yul\":24144:24148   */\n      0x24\n        /* \"#utility.yul\":24141:24142   */\n      0x00\n        /* \"#utility.yul\":24134:24149   */\n      revert\n        /* \"#utility.yul\":24161:24341   */\n    tag_563:\n        /* \"#utility.yul\":24209:24286   */\n      0x4e487b7100000000000000000000000000000000000000000000000000000000\n        /* \"#utility.yul\":24206:24207   */\n      0x00\n        /* \"#utility.yul\":24199:24287   */\n      mstore\n        /* \"#utility.yul\":24306:24310   */\n      0x12\n        /* \"#utility.yul\":24303:24304   */\n      0x04\n        /* \"#utility.yul\":24296:24311   */\n      mstore\n        /* \"#utility.yul\":24330:24334   */\n      0x24\n        /* \"#utility.yul\":24327:24328   */\n      0x00\n        /* \"#utility.yul\":24320:24335   */\n      revert\n        /* \"#utility.yul\":24347:24527   */\n    tag_587:\n        /* \"#utility.yul\":24395:24472   */\n      0x4e487b7100000000000000000000000000000000000000000000000000000000\n        /* \"#utility.yul\":24392:24393   */\n      0x00\n        /* \"#utility.yul\":24385:24473   */\n      mstore\n        /* \"#utility.yul\":24492:24496   */\n      0x22\n        /* \"#utility.yul\":24489:24490   */\n      0x04\n        /* \"#utility.yul\":24482:24497   */\n      mstore\n        /* \"#utility.yul\":24516:24520   */\n      0x24\n        /* \"#utility.yul\":24513:24514   */\n      0x00\n        /* \"#utility.yul\":24506:24521   */\n      revert\n        /* \"#utility.yul\":24533:24713   */\n    tag_541:\n        /* \"#utility.yul\":24581:24658   */\n      0x4e487b7100000000000000000000000000000000000000000000000000000000\n        /* \"#utility.yul\":24578:24579   */\n      0x00\n        /* \"#utility.yul\":24571:24659   */\n      mstore\n        /* \"#utility.yul\":24678:24682   */\n      0x41\n        /* \"#utility.yul\":24675:24676   */\n      0x04\n        /* \"#utility.yul\":24668:24683   */\n      mstore\n        /* \"#utility.yul\":24702:24706   */\n      0x24\n        /* \"#utility.yul\":24699:24700   */\n      0x00\n        /* \"#utility.yul\":24692:24707   */\n      revert\n        /* \"#utility.yul\":24719:24821   */\n    tag_413:\n        /* \"#utility.yul\":24760:24766   */\n      0x00\n        /* \"#utility.yul\":24811:24813   */\n      0x1f\n        /* \"#utility.yul\":24807:24814   */\n      not\n        /* \"#utility.yul\":24802:24804   */\n      0x1f\n        /* \"#utility.yul\":24795:24800   */\n      dup4\n        /* \"#utility.yul\":24791:24805   */\n      add\n        /* \"#utility.yul\":24787:24815   */\n      and\n        /* \"#utility.yul\":24777:24815   */\n      swap1\n      pop\n        /* \"#utility.yul\":24767:24821   */\n      swap2\n      swap1\n      pop\n      jump\t// out\n        /* \"#utility.yul\":24827:25059   */\n    tag_432:\n        /* \"#utility.yul\":24967:25001   */\n      0x4552433732313a2063616c6c6572206973206e6f7420746f6b656e206f776e65\n        /* \"#utility.yul\":24963:24964   */\n      0x00\n        /* \"#utility.yul\":24955:24961   */\n      dup3\n        /* \"#utility.yul\":24951:24965   */\n      add\n        /* \"#utility.yul\":24944:25002   */\n      mstore\n        /* \"#utility.yul\":25036:25051   */\n      0x72206f7220617070726f76656400000000000000000000000000000000000000\n        /* \"#utility.yul\":25031:25033   */\n      0x20\n        /* \"#utility.yul\":25023:25029   */\n      dup3\n        /* \"#utility.yul\":25019:25034   */\n      add\n        /* \"#utility.yul\":25012:25052   */\n      mstore\n        /* \"#utility.yul\":24933:25059   */\n      pop\n      jump\t// out\n        /* \"#utility.yul\":25065:25302   */\n    tag_437:\n        /* \"#utility.yul\":25205:25239   */\n      0x4552433732313a207472616e7366657220746f206e6f6e204552433732315265\n        /* \"#utility.yul\":25201:25202   */\n      0x00\n        /* \"#utility.yul\":25193:25199   */\n      dup3\n        /* \"#utility.yul\":25189:25203   */\n      add\n        /* \"#utility.yul\":25182:25240   */\n      mstore\n        /* \"#utility.yul\":25274:25294   */\n      0x63656976657220696d706c656d656e7465720000000000000000000000000000\n        /* \"#utility.yul\":25269:25271   */\n      0x20\n        /* \"#utility.yul\":25261:25267   */\n      dup3\n        /* \"#utility.yul\":25257:25272   */\n      add\n        /* \"#utility.yul\":25250:25295   */\n      mstore\n        /* \"#utility.yul\":25171:25302   */\n      pop\n      jump\t// out\n        /* \"#utility.yul\":25308:25532   */\n    tag_442:\n        /* \"#utility.yul\":25448:25482   */\n      0x4552433732313a207472616e736665722066726f6d20696e636f727265637420\n        /* \"#utility.yul\":25444:25445   */\n      0x00\n        /* \"#utility.yul\":25436:25442   */\n      dup3\n        /* \"#utility.yul\":25432:25446   */\n      add\n        /* \"#utility.yul\":25425:25483   */\n      mstore\n        /* \"#utility.yul\":25517:25524   */\n      0x6f776e6572000000000000000000000000000000000000000000000000000000\n        /* \"#utility.yul\":25512:25514   */\n      0x20\n        /* \"#utility.yul\":25504:25510   */\n      dup3\n        /* \"#utility.yul\":25500:25515   */\n      add\n        /* \"#utility.yul\":25493:25525   */\n      mstore\n        /* \"#utility.yul\":25414:25532   */\n      pop\n      jump\t// out\n        /* \"#utility.yul\":25538:25716   */\n    tag_447:\n        /* \"#utility.yul\":25678:25708   */\n      0x4552433732313a20746f6b656e20616c7265616479206d696e74656400000000\n        /* \"#utility.yul\":25674:25675   */\n      0x00\n        /* \"#utility.yul\":25666:25672   */\n      dup3\n        /* \"#utility.yul\":25662:25676   */\n      add\n        /* \"#utility.yul\":25655:25709   */\n      mstore\n        /* \"#utility.yul\":25644:25716   */\n      pop\n      jump\t// out\n        /* \"#utility.yul\":25722:25945   */\n    tag_452:\n        /* \"#utility.yul\":25862:25896   */\n      0x4552433732313a207472616e7366657220746f20746865207a65726f20616464\n        /* \"#utility.yul\":25858:25859   */\n      0x00\n        /* \"#utility.yul\":25850:25856   */\n      dup3\n        /* \"#utility.yul\":25846:25860   */\n      add\n        /* \"#utility.yul\":25839:25897   */\n      mstore\n        /* \"#utility.yul\":25931:25937   */\n      0x7265737300000000000000000000000000000000000000000000000000000000\n        /* \"#utility.yul\":25926:25928   */\n      0x20\n        /* \"#utility.yul\":25918:25924   */\n      dup3\n        /* \"#utility.yul\":25914:25929   */\n      add\n        /* \"#utility.yul\":25907:25938   */\n      mstore\n        /* \"#utility.yul\":25828:25945   */\n      pop\n      jump\t// out\n        /* \"#utility.yul\":25951:26126   */\n    tag_457:\n        /* \"#utility.yul\":26091:26118   */\n      0x4552433732313a20617070726f766520746f2063616c6c657200000000000000\n        /* \"#utility.yul\":26087:26088   */\n      0x00\n        /* \"#utility.yul\":26079:26085   */\n      dup3\n        /* \"#utility.yul\":26075:26089   */\n      add\n        /* \"#utility.yul\":26068:26119   */\n      mstore\n        /* \"#utility.yul\":26057:26126   */\n      pop\n      jump\t// out\n        /* \"#utility.yul\":26132:26360   */\n    tag_462:\n        /* \"#utility.yul\":26272:26306   */\n      0x4552433732313a2061646472657373207a65726f206973206e6f742061207661\n        /* \"#utility.yul\":26268:26269   */\n      0x00\n        /* \"#utility.yul\":26260:26266   */\n      dup3\n        /* \"#utility.yul\":26256:26270   */\n      add\n        /* \"#utility.yul\":26249:26307   */\n      mstore\n        /* \"#utility.yul\":26341:26352   */\n      0x6c6964206f776e65720000000000000000000000000000000000000000000000\n        /* \"#utility.yul\":26336:26338   */\n      0x20\n        /* \"#utility.yul\":26328:26334   */\n      dup3\n        /* \"#utility.yul\":26324:26339   */\n      add\n        /* \"#utility.yul\":26317:26353   */\n      mstore\n        /* \"#utility.yul\":26238:26360   */\n      pop\n      jump\t// out\n        /* \"#utility.yul\":26366:26599   */\n    tag_467:\n        /* \"#utility.yul\":26506:26540   */\n      0x45524337323155524953746f726167653a2055524920736574206f66206e6f6e\n        /* \"#utility.yul\":26502:26503   */\n      0x00\n        /* \"#utility.yul\":26494:26500   */\n      dup3\n        /* \"#utility.yul\":26490:26504   */\n      add\n        /* \"#utility.yul\":26483:26541   */\n      mstore\n        /* \"#utility.yul\":26575:26591   */\n      0x6578697374656e7420746f6b656e000000000000000000000000000000000000\n        /* \"#utility.yul\":26570:26572   */\n      0x20\n        /* \"#utility.yul\":26562:26568   */\n      dup3\n        /* \"#utility.yul\":26558:26573   */\n      add\n        /* \"#utility.yul\":26551:26592   */\n      mstore\n        /* \"#utility.yul\":26472:26599   */\n      pop\n      jump\t// out\n        /* \"#utility.yul\":26605:26787   */\n    tag_472:\n        /* \"#utility.yul\":26745:26779   */\n      0x4552433732313a206d696e7420746f20746865207a65726f2061646472657373\n        /* \"#utility.yul\":26741:26742   */\n      0x00\n        /* \"#utility.yul\":26733:26739   */\n      dup3\n        /* \"#utility.yul\":26729:26743   */\n      add\n        /* \"#utility.yul\":26722:26780   */\n      mstore\n        /* \"#utility.yul\":26711:26787   */\n      pop\n      jump\t// out\n        /* \"#utility.yul\":26793:26967   */\n    tag_477:\n        /* \"#utility.yul\":26933:26959   */\n      0x4552433732313a20696e76616c696420746f6b656e2049440000000000000000\n        /* \"#utility.yul\":26929:26930   */\n      0x00\n        /* \"#utility.yul\":26921:26927   */\n      dup3\n        /* \"#utility.yul\":26917:26931   */\n      add\n        /* \"#utility.yul\":26910:26960   */\n      mstore\n        /* \"#utility.yul\":26899:26967   */\n      pop\n      jump\t// out\n        /* \"#utility.yul\":26973:27193   */\n    tag_482:\n        /* \"#utility.yul\":27113:27147   */\n      0x4552433732313a20617070726f76616c20746f2063757272656e74206f776e65\n        /* \"#utility.yul\":27109:27110   */\n      0x00\n        /* \"#utility.yul\":27101:27107   */\n      dup3\n        /* \"#utility.yul\":27097:27111   */\n      add\n        /* \"#utility.yul\":27090:27148   */\n      mstore\n        /* \"#utility.yul\":27182:27185   */\n      0x7200000000000000000000000000000000000000000000000000000000000000\n        /* \"#utility.yul\":27177:27179   */\n      0x20\n        /* \"#utility.yul\":27169:27175   */\n      dup3\n        /* \"#utility.yul\":27165:27180   */\n      add\n        /* \"#utility.yul\":27158:27186   */\n      mstore\n        /* \"#utility.yul\":27079:27193   */\n      pop\n      jump\t// out\n        /* \"#utility.yul\":27199:27447   */\n    tag_487:\n        /* \"#utility.yul\":27339:27373   */\n      0x4552433732313a20617070726f76652063616c6c6572206973206e6f7420746f\n        /* \"#utility.yul\":27335:27336   */\n      0x00\n        /* \"#utility.yul\":27327:27333   */\n      dup3\n        /* \"#utility.yul\":27323:27337   */\n      add\n        /* \"#utility.yul\":27316:27374   */\n      mstore\n        /* \"#utility.yul\":27408:27439   */\n      0x6b656e206f776e6572206f7220617070726f76656420666f7220616c6c000000\n        /* \"#utility.yul\":27403:27405   */\n      0x20\n        /* \"#utility.yul\":27395:27401   */\n      dup3\n        /* \"#utility.yul\":27391:27406   */\n      add\n        /* \"#utility.yul\":27384:27440   */\n      mstore\n        /* \"#utility.yul\":27305:27447   */\n      pop\n      jump\t// out\n        /* \"#utility.yul\":27453:27575   */\n    tag_329:\n        /* \"#utility.yul\":27526:27550   */\n      tag_619\n        /* \"#utility.yul\":27544:27549   */\n      dup2\n        /* \"#utility.yul\":27526:27550   */\n      tag_399\n      jump\t// in\n    tag_619:\n        /* \"#utility.yul\":27519:27524   */\n      dup2\n        /* \"#utility.yul\":27516:27551   */\n      eq\n        /* \"#utility.yul\":27506:27508   */\n      tag_620\n      jumpi\n        /* \"#utility.yul\":27565:27566   */\n      0x00\n        /* \"#utility.yul\":27562:27563   */\n      dup1\n        /* \"#utility.yul\":27555:27567   */\n      revert\n        /* \"#utility.yul\":27506:27508   */\n    tag_620:\n        /* \"#utility.yul\":27496:27575   */\n      pop\n      jump\t// out\n        /* \"#utility.yul\":27581:27697   */\n    tag_333:\n        /* \"#utility.yul\":27651:27672   */\n      tag_622\n        /* \"#utility.yul\":27666:27671   */\n      dup2\n        /* \"#utility.yul\":27651:27672   */\n      tag_403\n      jump\t// in\n    tag_622:\n        /* \"#utility.yul\":27644:27649   */\n      dup2\n        /* \"#utility.yul\":27641:27673   */\n      eq\n        /* \"#utility.yul\":27631:27633   */\n      tag_623\n      jumpi\n        /* \"#utility.yul\":27687:27688   */\n      0x00\n        /* \"#utility.yul\":27684:27685   */\n      dup1\n        /* \"#utility.yul\":27677:27689   */\n      revert\n        /* \"#utility.yul\":27631:27633   */\n    tag_623:\n        /* \"#utility.yul\":27621:27697   */\n      pop\n      jump\t// out\n        /* \"#utility.yul\":27703:27823   */\n    tag_337:\n        /* \"#utility.yul\":27775:27798   */\n      tag_625\n        /* \"#utility.yul\":27792:27797   */\n      dup2\n        /* \"#utility.yul\":27775:27798   */\n      tag_573\n      jump\t// in\n    tag_625:\n        /* \"#utility.yul\":27768:27773   */\n      dup2\n        /* \"#utility.yul\":27765:27799   */\n      eq\n        /* \"#utility.yul\":27755:27757   */\n      tag_626\n      jumpi\n        /* \"#utility.yul\":27813:27814   */\n      0x00\n        /* \"#utility.yul\":27810:27811   */\n      dup1\n        /* \"#utility.yul\":27803:27815   */\n      revert\n        /* \"#utility.yul\":27755:27757   */\n    tag_626:\n        /* \"#utility.yul\":27745:27823   */\n      pop\n      jump\t// out\n        /* \"#utility.yul\":27829:27951   */\n    tag_352:\n        /* \"#utility.yul\":27902:27926   */\n      tag_628\n        /* \"#utility.yul\":27920:27925   */\n      dup2\n        /* \"#utility.yul\":27902:27926   */\n      tag_491\n      jump\t// in\n    tag_628:\n        /* \"#utility.yul\":27895:27900   */\n      dup2\n        /* \"#utility.yul\":27892:27927   */\n      eq\n        /* \"#utility.yul\":27882:27884   */\n      tag_629\n      jumpi\n        /* \"#utility.yul\":27941:27942   */\n      0x00\n        /* \"#utility.yul\":27938:27939   */\n      dup1\n        /* \"#utility.yul\":27931:27943   */\n      revert\n        /* \"#utility.yul\":27882:27884   */\n    tag_629:\n        /* \"#utility.yul\":27872:27951   */\n      pop\n      jump\t// out\n\n    auxdata: 0xa2646970667358221220d6d38373624a2ca3d37d26e6a41b3bb1166d947986847ad9928bf87fcc9d9eea64736f6c63430008040033\n}\n",
				"bytecode": {
					"linkReferences": {},
					"object": "60806040523480156200001157600080fd5b5060405162002e9f38038062002e9f833981810160405281019062000037919062000193565b81600090805190602001906200004f92919062000071565b5080600190805190602001906200006892919062000071565b50505062000376565b8280546200007f906200029b565b90600052602060002090601f016020900481019282620000a35760008555620000ef565b82601f10620000be57805160ff1916838001178555620000ef565b82800160010185558215620000ef579182015b82811115620000ee578251825591602001919060010190620000d1565b5b509050620000fe919062000102565b5090565b5b808211156200011d57600081600090555060010162000103565b5090565b60006200013862000132846200022f565b62000206565b9050828152602081018484840111156200015157600080fd5b6200015e84828562000265565b509392505050565b600082601f8301126200017857600080fd5b81516200018a84826020860162000121565b91505092915050565b60008060408385031215620001a757600080fd5b600083015167ffffffffffffffff811115620001c257600080fd5b620001d08582860162000166565b925050602083015167ffffffffffffffff811115620001ee57600080fd5b620001fc8582860162000166565b9150509250929050565b60006200021262000225565b9050620002208282620002d1565b919050565b6000604051905090565b600067ffffffffffffffff8211156200024d576200024c62000336565b5b620002588262000365565b9050602081019050919050565b60005b838110156200028557808201518184015260208101905062000268565b8381111562000295576000848401525b50505050565b60006002820490506001821680620002b457607f821691505b60208210811415620002cb57620002ca62000307565b5b50919050565b620002dc8262000365565b810181811067ffffffffffffffff82111715620002fe57620002fd62000336565b5b80604052505050565b7f4e487b7100000000000000000000000000000000000000000000000000000000600052602260045260246000fd5b7f4e487b7100000000000000000000000000000000000000000000000000000000600052604160045260246000fd5b6000601f19601f8301169050919050565b612b1980620003866000396000f3fe608060405234801561001057600080fd5b50600436106101005760003560e01c806370a0823111610097578063b88d4fde11610066578063b88d4fde146102bd578063c87b56dd146102d9578063e985e9c514610309578063ee48cda21461033957610100565b806370a082311461023757806395d89b4114610267578063a22cb46514610285578063b85cbc79146102a157610100565b806323b872dd116100d357806323b872dd1461019f57806342842e0e146101bb57806352e04825146101d75780636352211e1461020757610100565b806301ffc9a71461010557806306fdde0314610135578063081812fc14610153578063095ea7b314610183575b600080fd5b61011f600480360381019061011a9190611e34565b610369565b60405161012c91906121ae565b60405180910390f35b61013d61044b565b60405161014a91906121c9565b60405180910390f35b61016d60048036038101906101689190611e86565b6104dd565b60405161017a9190612147565b60405180910390f35b61019d60048036038101906101989190611df8565b610523565b005b6101b960048036038101906101b49190611c77565b61063b565b005b6101d560048036038101906101d09190611c77565b61069b565b005b6101f160048036038101906101ec9190611e86565b6106bb565b6040516101fe9190612147565b60405180910390f35b610221600480360381019061021c9190611e86565b61076d565b60405161022e9190612147565b60405180910390f35b610251600480360381019061024c9190611c12565b61081f565b60405161025e919061236b565b60405180910390f35b61026f6108d7565b60405161027c91906121c9565b60405180910390f35b61029f600480360381019061029a9190611dbc565b610969565b005b6102bb60048036038101906102b69190611d41565b61097f565b005b6102d760048036038101906102d29190611cc6565b61099a565b005b6102f360048036038101906102ee9190611e86565b6109fc565b60405161030091906121c9565b60405180910390f35b610323600480360381019061031e9190611c3b565b610a64565b60405161033091906121ae565b60405180910390f35b610353600480360381019061034e9190611e86565b610af8565b6040516103609190612147565b60405180910390f35b60007f80ac58cd000000000000000000000000000000000000000000000000000000007bffffffffffffffffffffffffffffffffffffffffffffffffffffffff1916827bffffffffffffffffffffffffffffffffffffffffffffffffffffffff1916148061043457507f5b5e139f000000000000000000000000000000000000000000000000000000007bffffffffffffffffffffffffffffffffffffffffffffffffffffffff1916827bffffffffffffffffffffffffffffffffffffffffffffffffffffffff1916145b80610444575061044382610baa565b5b9050919050565b60606000805461045a906125c1565b80601f0160208091040260200160405190810160405280929190818152602001828054610486906125c1565b80156104d35780601f106104a8576101008083540402835291602001916104d3565b820191906000526020600020905b8154815290600101906020018083116104b657829003601f168201915b5050505050905090565b60006104e882610c14565b6007600083815260200190815260200160002060009054906101000a900473ffffffffffffffffffffffffffffffffffffffff169050919050565b600061052e8261076d565b90508073ffffffffffffffffffffffffffffffffffffffff168373ffffffffffffffffffffffffffffffffffffffff16141561059f576040517f08c379a00000000000000000000000000000000000000000000000000000000081526004016105969061232b565b60405180910390fd5b8073ffffffffffffffffffffffffffffffffffffffff166105be610c5f565b73ffffffffffffffffffffffffffffffffffffffff1614806105ed57506105ec816105e7610c5f565b610a64565b5b61062c576040517f08c379a00000000000000000000000000000000000000000000000000000000081526004016106239061234b565b60405180910390fd5b6106368383610c67565b505050565b61064c610646610c5f565b82610d20565b61068b576040517f08c379a0000000000000000000000000000000000000000000000000000000008152600401610682906121eb565b60405180910390fd5b610696838383610db5565b505050565b6106b68383836040518060200160405280600081525061099a565b505050565b6000806004600084815260200190815260200160002060009054906101000a900473ffffffffffffffffffffffffffffffffffffffff169050600073ffffffffffffffffffffffffffffffffffffffff168173ffffffffffffffffffffffffffffffffffffffff161415610764576040517f08c379a000000000000000000000000000000000000000000000000000000000815260040161075b9061230b565b60405180910390fd5b80915050919050565b6000806002600084815260200190815260200160002060009054906101000a900473ffffffffffffffffffffffffffffffffffffffff169050600073ffffffffffffffffffffffffffffffffffffffff168173ffffffffffffffffffffffffffffffffffffffff161415610816576040517f08c379a000000000000000000000000000000000000000000000000000000000815260040161080d9061230b565b60405180910390fd5b80915050919050565b60008073ffffffffffffffffffffffffffffffffffffffff168273ffffffffffffffffffffffffffffffffffffffff161415610890576040517f08c379a0000000000000000000000000000000000000000000000000000000008152600401610887906122ab565b60405180910390fd5b600660008373ffffffffffffffffffffffffffffffffffffffff1673ffffffffffffffffffffffffffffffffffffffff168152602001908152602001600020549050919050565b6060600180546108e6906125c1565b80601f0160208091040260200160405190810160405280929190818152602001828054610912906125c1565b801561095f5780601f106109345761010080835404028352916020019161095f565b820191906000526020600020905b81548152906001019060200180831161094257829003601f168201915b5050505050905090565b61097b610974610c5f565b83836110ab565b5050565b61098a848484611218565b6109948282611238565b50505050565b6109ab6109a5610c5f565b83610d20565b6109ea576040517f08c379a00000000000000000000000000000000000000000000000000000000081526004016109e1906121eb565b60405180910390fd5b6109f6848484846112ac565b50505050565b6060610a0782610c14565b6000610a11611308565b90506000815111610a315760405180602001604052806000815250610a5c565b80610a3b8461131f565b604051602001610a4c929190612123565b6040516020818303038152906040525b915050919050565b6000600860008473ffffffffffffffffffffffffffffffffffffffff1673ffffffffffffffffffffffffffffffffffffffff16815260200190815260200160002060008373ffffffffffffffffffffffffffffffffffffffff1673ffffffffffffffffffffffffffffffffffffffff16815260200190815260200160002060009054906101000a900460ff16905092915050565b6000806004600084815260200190815260200160002060009054906101000a900473ffffffffffffffffffffffffffffffffffffffff169050600073ffffffffffffffffffffffffffffffffffffffff168173ffffffffffffffffffffffffffffffffffffffff161415610ba1576040517f08c379a0000000000000000000000000000000000000000000000000000000008152600401610b989061230b565b60405180910390fd5b80915050919050565b60007f01ffc9a7000000000000000000000000000000000000000000000000000000007bffffffffffffffffffffffffffffffffffffffffffffffffffffffff1916827bffffffffffffffffffffffffffffffffffffffffffffffffffffffff1916149050919050565b610c1d816114cc565b610c5c576040517f08c379a0000000000000000000000000000000000000000000000000000000008152600401610c539061230b565b60405180910390fd5b50565b600033905090565b816007600083815260200190815260200160002060006101000a81548173ffffffffffffffffffffffffffffffffffffffff021916908373ffffffffffffffffffffffffffffffffffffffff160217905550808273ffffffffffffffffffffffffffffffffffffffff16610cda8361076d565b73ffffffffffffffffffffffffffffffffffffffff167f8c5be1e5ebec7d5bd14f71427d1e84f3dd0314c0f7b2291e5b200ac8c7c3b92560405160405180910390a45050565b600080610d2c8361076d565b90508073ffffffffffffffffffffffffffffffffffffffff168473ffffffffffffffffffffffffffffffffffffffff161480610d6e5750610d6d8185610a64565b5b80610dac57508373ffffffffffffffffffffffffffffffffffffffff16610d94846104dd565b73ffffffffffffffffffffffffffffffffffffffff16145b91505092915050565b8273ffffffffffffffffffffffffffffffffffffffff16610dd58261076d565b73ffffffffffffffffffffffffffffffffffffffff1614610e2b576040517f08c379a0000000000000000000000000000000000000000000000000000000008152600401610e229061222b565b60405180910390fd5b600073ffffffffffffffffffffffffffffffffffffffff168273ffffffffffffffffffffffffffffffffffffffff161415610e9b576040517f08c379a0000000000000000000000000000000000000000000000000000000008152600401610e929061226b565b60405180910390fd5b610ea6838383611538565b8273ffffffffffffffffffffffffffffffffffffffff16610ec68261076d565b73ffffffffffffffffffffffffffffffffffffffff1614610f1c576040517f08c379a0000000000000000000000000000000000000000000000000000000008152600401610f139061222b565b60405180910390fd5b6007600082815260200190815260200160002060006101000a81549073ffffffffffffffffffffffffffffffffffffffff02191690556001600660008573ffffffffffffffffffffffffffffffffffffffff1673ffffffffffffffffffffffffffffffffffffffff168152602001908152602001600020600082825403925050819055506001600660008473ffffffffffffffffffffffffffffffffffffffff1673ffffffffffffffffffffffffffffffffffffffff16815260200190815260200160002060008282540192505081905550816002600083815260200190815260200160002060006101000a81548173ffffffffffffffffffffffffffffffffffffffff021916908373ffffffffffffffffffffffffffffffffffffffff160217905550808273ffffffffffffffffffffffffffffffffffffffff168473ffffffffffffffffffffffffffffffffffffffff167fddf252ad1be2c89b69c2b068fc378daa952ba7f163c4a11628f55a4df523b3ef60405160405180910390a46110a683838361153d565b505050565b8173ffffffffffffffffffffffffffffffffffffffff168373ffffffffffffffffffffffffffffffffffffffff16141561111a576040517f08c379a00000000000000000000000000000000000000000000000000000000081526004016111119061228b565b60405180910390fd5b80600860008573ffffffffffffffffffffffffffffffffffffffff1673ffffffffffffffffffffffffffffffffffffffff16815260200190815260200160002060008473ffffffffffffffffffffffffffffffffffffffff1673ffffffffffffffffffffffffffffffffffffffff16815260200190815260200160002060006101000a81548160ff0219169083151502179055508173ffffffffffffffffffffffffffffffffffffffff168373ffffffffffffffffffffffffffffffffffffffff167f17307eab39ab6107e8899845ad3d59bd9653f200f220920489ca2b5937696c318360405161120b91906121ae565b60405180910390a3505050565b61123383838360405180602001604052806000815250611542565b505050565b611241826114cc565b611280576040517f08c379a0000000000000000000000000000000000000000000000000000000008152600401611277906122cb565b60405180910390fd5b806009600084815260200190815260200160002090805190602001906112a7929190611a36565b505050565b6112b7848484610db5565b6112c38484848461159f565b611302576040517f08c379a00000000000000000000000000000000000000000000000000000000081526004016112f99061220b565b60405180910390fd5b50505050565b606060405180602001604052806000815250905090565b60606000821415611367576040518060400160405280600181526020017f300000000000000000000000000000000000000000000000000000000000000081525090506114c7565b600082905060005b6000821461139957808061138290612624565b915050600a8261139291906124a6565b915061136f565b60008167ffffffffffffffff8111156113db577f4e487b7100000000000000000000000000000000000000000000000000000000600052604160045260246000fd5b6040519080825280601f01601f19166020018201604052801561140d5781602001600182028036833780820191505090505b5090505b600085146114c05760018261142691906124d7565b9150600a85611435919061266d565b60306114419190612450565b60f81b81838151811061147d577f4e487b7100000000000000000000000000000000000000000000000000000000600052603260045260246000fd5b60200101907effffffffffffffffffffffffffffffffffffffffffffffffffffffffffffff1916908160001a905350600a856114b991906124a6565b9450611411565b8093505050505b919050565b60008073ffffffffffffffffffffffffffffffffffffffff166002600084815260200190815260200160002060009054906101000a900473ffffffffffffffffffffffffffffffffffffffff1673ffffffffffffffffffffffffffffffffffffffff1614159050919050565b505050565b505050565b61154d848484611736565b61155a600085848461159f565b611599576040517f08c379a00000000000000000000000000000000000000000000000000000000081526004016115909061220b565b60405180910390fd5b50505050565b60006115c08473ffffffffffffffffffffffffffffffffffffffff16611a13565b15611729578373ffffffffffffffffffffffffffffffffffffffff1663150b7a026115e9610c5f565b8786866040518563ffffffff1660e01b815260040161160b9493929190612162565b602060405180830381600087803b15801561162557600080fd5b505af192505050801561165657506040513d601f19601f820116820180604052508101906116539190611e5d565b60015b6116d9573d8060008114611686576040519150601f19603f3d011682016040523d82523d6000602084013e61168b565b606091505b506000815114156116d1576040517f08c379a00000000000000000000000000000000000000000000000000000000081526004016116c89061220b565b60405180910390fd5b805181602001fd5b63150b7a0260e01b7bffffffffffffffffffffffffffffffffffffffffffffffffffffffff1916817bffffffffffffffffffffffffffffffffffffffffffffffffffffffff19161491505061172e565b600190505b949350505050565b600073ffffffffffffffffffffffffffffffffffffffff168373ffffffffffffffffffffffffffffffffffffffff1614156117a6576040517f08c379a000000000000000000000000000000000000000000000000000000000815260040161179d906122eb565b60405180910390fd5b600073ffffffffffffffffffffffffffffffffffffffff168273ffffffffffffffffffffffffffffffffffffffff161415611816576040517f08c379a000000000000000000000000000000000000000000000000000000000815260040161180d906122eb565b60405180910390fd5b61181f816114cc565b1561185f576040517f08c379a00000000000000000000000000000000000000000000000000000000081526004016118569061224b565b60405180910390fd5b61186b60008483611538565b611874816114cc565b156118b4576040517f08c379a00000000000000000000000000000000000000000000000000000000081526004016118ab9061224b565b60405180910390fd5b6001600660008573ffffffffffffffffffffffffffffffffffffffff1673ffffffffffffffffffffffffffffffffffffffff16815260200190815260200160002060008282540192505081905550826002600083815260200190815260200160002060006101000a81548173ffffffffffffffffffffffffffffffffffffffff021916908373ffffffffffffffffffffffffffffffffffffffff160217905550816004600083815260200190815260200160002060006101000a81548173ffffffffffffffffffffffffffffffffffffffff021916908373ffffffffffffffffffffffffffffffffffffffff160217905550808373ffffffffffffffffffffffffffffffffffffffff16600073ffffffffffffffffffffffffffffffffffffffff167fddf252ad1be2c89b69c2b068fc378daa952ba7f163c4a11628f55a4df523b3ef60405160405180910390a4611a0e6000848361153d565b505050565b6000808273ffffffffffffffffffffffffffffffffffffffff163b119050919050565b828054611a42906125c1565b90600052602060002090601f016020900481019282611a645760008555611aab565b82601f10611a7d57805160ff1916838001178555611aab565b82800160010185558215611aab579182015b82811115611aaa578251825591602001919060010190611a8f565b5b509050611ab89190611abc565b5090565b5b80821115611ad5576000816000905550600101611abd565b5090565b6000611aec611ae7846123ab565b612386565b905082815260208101848484011115611b0457600080fd5b611b0f84828561257f565b509392505050565b6000611b2a611b25846123dc565b612386565b905082815260208101848484011115611b4257600080fd5b611b4d84828561257f565b509392505050565b600081359050611b6481612a87565b92915050565b600081359050611b7981612a9e565b92915050565b600081359050611b8e81612ab5565b92915050565b600081519050611ba381612ab5565b92915050565b600082601f830112611bba57600080fd5b8135611bca848260208601611ad9565b91505092915050565b600082601f830112611be457600080fd5b8135611bf4848260208601611b17565b91505092915050565b600081359050611c0c81612acc565b92915050565b600060208284031215611c2457600080fd5b6000611c3284828501611b55565b91505092915050565b60008060408385031215611c4e57600080fd5b6000611c5c85828601611b55565b9250506020611c6d85828601611b55565b9150509250929050565b600080600060608486031215611c8c57600080fd5b6000611c9a86828701611b55565b9350506020611cab86828701611b55565b9250506040611cbc86828701611bfd565b9150509250925092565b60008060008060808587031215611cdc57600080fd5b6000611cea87828801611b55565b9450506020611cfb87828801611b55565b9350506040611d0c87828801611bfd565b925050606085013567ffffffffffffffff811115611d2957600080fd5b611d3587828801611ba9565b91505092959194509250565b60008060008060808587031215611d5757600080fd5b6000611d6587828801611b55565b9450506020611d7687828801611b55565b9350506040611d8787828801611bfd565b925050606085013567ffffffffffffffff811115611da457600080fd5b611db087828801611bd3565b91505092959194509250565b60008060408385031215611dcf57600080fd5b6000611ddd85828601611b55565b9250506020611dee85828601611b6a565b9150509250929050565b60008060408385031215611e0b57600080fd5b6000611e1985828601611b55565b9250506020611e2a85828601611bfd565b9150509250929050565b600060208284031215611e4657600080fd5b6000611e5484828501611b7f565b91505092915050565b600060208284031215611e6f57600080fd5b6000611e7d84828501611b94565b91505092915050565b600060208284031215611e9857600080fd5b6000611ea684828501611bfd565b91505092915050565b611eb88161250b565b82525050565b611ec78161251d565b82525050565b6000611ed88261240d565b611ee28185612423565b9350611ef281856020860161258e565b611efb8161275a565b840191505092915050565b6000611f1182612418565b611f1b8185612434565b9350611f2b81856020860161258e565b611f348161275a565b840191505092915050565b6000611f4a82612418565b611f548185612445565b9350611f6481856020860161258e565b80840191505092915050565b6000611f7d602d83612434565b9150611f888261276b565b604082019050919050565b6000611fa0603283612434565b9150611fab826127ba565b604082019050919050565b6000611fc3602583612434565b9150611fce82612809565b604082019050919050565b6000611fe6601c83612434565b9150611ff182612858565b602082019050919050565b6000612009602483612434565b915061201482612881565b604082019050919050565b600061202c601983612434565b9150612037826128d0565b602082019050919050565b600061204f602983612434565b915061205a826128f9565b604082019050919050565b6000612072602e83612434565b915061207d82612948565b604082019050919050565b6000612095602083612434565b91506120a082612997565b602082019050919050565b60006120b8601883612434565b91506120c3826129c0565b602082019050919050565b60006120db602183612434565b91506120e6826129e9565b604082019050919050565b60006120fe603d83612434565b915061210982612a38565b604082019050919050565b61211d81612575565b82525050565b600061212f8285611f3f565b915061213b8284611f3f565b91508190509392505050565b600060208201905061215c6000830184611eaf565b92915050565b60006080820190506121776000830187611eaf565b6121846020830186611eaf565b6121916040830185612114565b81810360608301526121a38184611ecd565b905095945050505050565b60006020820190506121c36000830184611ebe565b92915050565b600060208201905081810360008301526121e38184611f06565b905092915050565b6000602082019050818103600083015261220481611f70565b9050919050565b6000602082019050818103600083015261222481611f93565b9050919050565b6000602082019050818103600083015261224481611fb6565b9050919050565b6000602082019050818103600083015261226481611fd9565b9050919050565b6000602082019050818103600083015261228481611ffc565b9050919050565b600060208201905081810360008301526122a48161201f565b9050919050565b600060208201905081810360008301526122c481612042565b9050919050565b600060208201905081810360008301526122e481612065565b9050919050565b6000602082019050818103600083015261230481612088565b9050919050565b60006020820190508181036000830152612324816120ab565b9050919050565b60006020820190508181036000830152612344816120ce565b9050919050565b60006020820190508181036000830152612364816120f1565b9050919050565b60006020820190506123806000830184612114565b92915050565b60006123906123a1565b905061239c82826125f3565b919050565b6000604051905090565b600067ffffffffffffffff8211156123c6576123c561272b565b5b6123cf8261275a565b9050602081019050919050565b600067ffffffffffffffff8211156123f7576123f661272b565b5b6124008261275a565b9050602081019050919050565b600081519050919050565b600081519050919050565b600082825260208201905092915050565b600082825260208201905092915050565b600081905092915050565b600061245b82612575565b915061246683612575565b9250827fffffffffffffffffffffffffffffffffffffffffffffffffffffffffffffffff0382111561249b5761249a61269e565b5b828201905092915050565b60006124b182612575565b91506124bc83612575565b9250826124cc576124cb6126cd565b5b828204905092915050565b60006124e282612575565b91506124ed83612575565b925082821015612500576124ff61269e565b5b828203905092915050565b600061251682612555565b9050919050565b60008115159050919050565b60007fffffffff0000000000000000000000000000000000000000000000000000000082169050919050565b600073ffffffffffffffffffffffffffffffffffffffff82169050919050565b6000819050919050565b82818337600083830152505050565b60005b838110156125ac578082015181840152602081019050612591565b838111156125bb576000848401525b50505050565b600060028204905060018216806125d957607f821691505b602082108114156125ed576125ec6126fc565b5b50919050565b6125fc8261275a565b810181811067ffffffffffffffff8211171561261b5761261a61272b565b5b80604052505050565b600061262f82612575565b91507fffffffffffffffffffffffffffffffffffffffffffffffffffffffffffffffff8214156126625761266161269e565b5b600182019050919050565b600061267882612575565b915061268383612575565b925082612693576126926126cd565b5b828206905092915050565b7f4e487b7100000000000000000000000000000000000000000000000000000000600052601160045260246000fd5b7f4e487b7100000000000000000000000000000000000000000000000000000000600052601260045260246000fd5b7f4e487b7100000000000000000000000000000000000000000000000000000000600052602260045260246000fd5b7f4e487b7100000000000000000000000000000000000000000000000000000000600052604160045260246000fd5b6000601f19601f8301169050919050565b7f4552433732313a2063616c6c6572206973206e6f7420746f6b656e206f776e6560008201527f72206f7220617070726f76656400000000000000000000000000000000000000602082015250565b7f4552433732313a207472616e7366657220746f206e6f6e20455243373231526560008201527f63656976657220696d706c656d656e7465720000000000000000000000000000602082015250565b7f4552433732313a207472616e736665722066726f6d20696e636f72726563742060008201527f6f776e6572000000000000000000000000000000000000000000000000000000602082015250565b7f4552433732313a20746f6b656e20616c7265616479206d696e74656400000000600082015250565b7f4552433732313a207472616e7366657220746f20746865207a65726f2061646460008201527f7265737300000000000000000000000000000000000000000000000000000000602082015250565b7f4552433732313a20617070726f766520746f2063616c6c657200000000000000600082015250565b7f4552433732313a2061646472657373207a65726f206973206e6f74206120766160008201527f6c6964206f776e65720000000000000000000000000000000000000000000000602082015250565b7f45524337323155524953746f726167653a2055524920736574206f66206e6f6e60008201527f6578697374656e7420746f6b656e000000000000000000000000000000000000602082015250565b7f4552433732313a206d696e7420746f20746865207a65726f2061646472657373600082015250565b7f4552433732313a20696e76616c696420746f6b656e2049440000000000000000600082015250565b7f4552433732313a20617070726f76616c20746f2063757272656e74206f776e6560008201527f7200000000000000000000000000000000000000000000000000000000000000602082015250565b7f4552433732313a20617070726f76652063616c6c6572206973206e6f7420746f60008201527f6b656e206f776e6572206f7220617070726f76656420666f7220616c6c000000602082015250565b612a908161250b565b8114612a9b57600080fd5b50565b612aa78161251d565b8114612ab257600080fd5b50565b612abe81612529565b8114612ac957600080fd5b50565b612ad581612575565b8114612ae057600080fd5b5056fea2646970667358221220d6d38373624a2ca3d37d26e6a41b3bb1166d947986847ad9928bf87fcc9d9eea64736f6c63430008040033",
					"opcodes": "PUSH1 0x80 PUSH1 0x40 MSTORE CALLVALUE DUP1 ISZERO PUSH3 0x11 JUMPI PUSH1 0x0 DUP1 REVERT JUMPDEST POP PUSH1 0x40 MLOAD PUSH3 0x2E9F CODESIZE SUB DUP1 PUSH3 0x2E9F DUP4 CODECOPY DUP2 DUP2 ADD PUSH1 0x40 MSTORE DUP2 ADD SWAP1 PUSH3 0x37 SWAP2 SWAP1 PUSH3 0x193 JUMP JUMPDEST DUP2 PUSH1 0x0 SWAP1 DUP1 MLOAD SWAP1 PUSH1 0x20 ADD SWAP1 PUSH3 0x4F SWAP3 SWAP2 SWAP1 PUSH3 0x71 JUMP JUMPDEST POP DUP1 PUSH1 0x1 SWAP1 DUP1 MLOAD SWAP1 PUSH1 0x20 ADD SWAP1 PUSH3 0x68 SWAP3 SWAP2 SWAP1 PUSH3 0x71 JUMP JUMPDEST POP POP POP PUSH3 0x376 JUMP JUMPDEST DUP3 DUP1 SLOAD PUSH3 0x7F SWAP1 PUSH3 0x29B JUMP JUMPDEST SWAP1 PUSH1 0x0 MSTORE PUSH1 0x20 PUSH1 0x0 KECCAK256 SWAP1 PUSH1 0x1F ADD PUSH1 0x20 SWAP1 DIV DUP2 ADD SWAP3 DUP3 PUSH3 0xA3 JUMPI PUSH1 0x0 DUP6 SSTORE PUSH3 0xEF JUMP JUMPDEST DUP3 PUSH1 0x1F LT PUSH3 0xBE JUMPI DUP1 MLOAD PUSH1 0xFF NOT AND DUP4 DUP1 ADD OR DUP6 SSTORE PUSH3 0xEF JUMP JUMPDEST DUP3 DUP1 ADD PUSH1 0x1 ADD DUP6 SSTORE DUP3 ISZERO PUSH3 0xEF JUMPI SWAP2 DUP3 ADD JUMPDEST DUP3 DUP2 GT ISZERO PUSH3 0xEE JUMPI DUP3 MLOAD DUP3 SSTORE SWAP2 PUSH1 0x20 ADD SWAP2 SWAP1 PUSH1 0x1 ADD SWAP1 PUSH3 0xD1 JUMP JUMPDEST JUMPDEST POP SWAP1 POP PUSH3 0xFE SWAP2 SWAP1 PUSH3 0x102 JUMP JUMPDEST POP SWAP1 JUMP JUMPDEST JUMPDEST DUP1 DUP3 GT ISZERO PUSH3 0x11D JUMPI PUSH1 0x0 DUP2 PUSH1 0x0 SWAP1 SSTORE POP PUSH1 0x1 ADD PUSH3 0x103 JUMP JUMPDEST POP SWAP1 JUMP JUMPDEST PUSH1 0x0 PUSH3 0x138 PUSH3 0x132 DUP5 PUSH3 0x22F JUMP JUMPDEST PUSH3 0x206 JUMP JUMPDEST SWAP1 POP DUP3 DUP2 MSTORE PUSH1 0x20 DUP2 ADD DUP5 DUP5 DUP5 ADD GT ISZERO PUSH3 0x151 JUMPI PUSH1 0x0 DUP1 REVERT JUMPDEST PUSH3 0x15E DUP5 DUP3 DUP6 PUSH3 0x265 JUMP JUMPDEST POP SWAP4 SWAP3 POP POP POP JUMP JUMPDEST PUSH1 0x0 DUP3 PUSH1 0x1F DUP4 ADD SLT PUSH3 0x178 JUMPI PUSH1 0x0 DUP1 REVERT JUMPDEST DUP2 MLOAD PUSH3 0x18A DUP5 DUP3 PUSH1 0x20 DUP7 ADD PUSH3 0x121 JUMP JUMPDEST SWAP2 POP POP SWAP3 SWAP2 POP POP JUMP JUMPDEST PUSH1 0x0 DUP1 PUSH1 0x40 DUP4 DUP6 SUB SLT ISZERO PUSH3 0x1A7 JUMPI PUSH1 0x0 DUP1 REVERT JUMPDEST PUSH1 0x0 DUP4 ADD MLOAD PUSH8 0xFFFFFFFFFFFFFFFF DUP2 GT ISZERO PUSH3 0x1C2 JUMPI PUSH1 0x0 DUP1 REVERT JUMPDEST PUSH3 0x1D0 DUP6 DUP3 DUP7 ADD PUSH3 0x166 JUMP JUMPDEST SWAP3 POP POP PUSH1 0x20 DUP4 ADD MLOAD PUSH8 0xFFFFFFFFFFFFFFFF DUP2 GT ISZERO PUSH3 0x1EE JUMPI PUSH1 0x0 DUP1 REVERT JUMPDEST PUSH3 0x1FC DUP6 DUP3 DUP7 ADD PUSH3 0x166 JUMP JUMPDEST SWAP2 POP POP SWAP3 POP SWAP3 SWAP1 POP JUMP JUMPDEST PUSH1 0x0 PUSH3 0x212 PUSH3 0x225 JUMP JUMPDEST SWAP1 POP PUSH3 0x220 DUP3 DUP3 PUSH3 0x2D1 JUMP JUMPDEST SWAP2 SWAP1 POP JUMP JUMPDEST PUSH1 0x0 PUSH1 0x40 MLOAD SWAP1 POP SWAP1 JUMP JUMPDEST PUSH1 0x0 PUSH8 0xFFFFFFFFFFFFFFFF DUP3 GT ISZERO PUSH3 0x24D JUMPI PUSH3 0x24C PUSH3 0x336 JUMP JUMPDEST JUMPDEST PUSH3 0x258 DUP3 PUSH3 0x365 JUMP JUMPDEST SWAP1 POP PUSH1 0x20 DUP2 ADD SWAP1 POP SWAP2 SWAP1 POP JUMP JUMPDEST PUSH1 0x0 JUMPDEST DUP4 DUP2 LT ISZERO PUSH3 0x285 JUMPI DUP1 DUP3 ADD MLOAD DUP2 DUP5 ADD MSTORE PUSH1 0x20 DUP2 ADD SWAP1 POP PUSH3 0x268 JUMP JUMPDEST DUP4 DUP2 GT ISZERO PUSH3 0x295 JUMPI PUSH1 0x0 DUP5 DUP5 ADD MSTORE JUMPDEST POP POP POP POP JUMP JUMPDEST PUSH1 0x0 PUSH1 0x2 DUP3 DIV SWAP1 POP PUSH1 0x1 DUP3 AND DUP1 PUSH3 0x2B4 JUMPI PUSH1 0x7F DUP3 AND SWAP2 POP JUMPDEST PUSH1 0x20 DUP3 LT DUP2 EQ ISZERO PUSH3 0x2CB JUMPI PUSH3 0x2CA PUSH3 0x307 JUMP JUMPDEST JUMPDEST POP SWAP2 SWAP1 POP JUMP JUMPDEST PUSH3 0x2DC DUP3 PUSH3 0x365 JUMP JUMPDEST DUP2 ADD DUP2 DUP2 LT PUSH8 0xFFFFFFFFFFFFFFFF DUP3 GT OR ISZERO PUSH3 0x2FE JUMPI PUSH3 0x2FD PUSH3 0x336 JUMP JUMPDEST JUMPDEST DUP1 PUSH1 0x40 MSTORE POP POP POP JUMP JUMPDEST PUSH32 0x4E487B7100000000000000000000000000000000000000000000000000000000 PUSH1 0x0 MSTORE PUSH1 0x22 PUSH1 0x4 MSTORE PUSH1 0x24 PUSH1 0x0 REVERT JUMPDEST PUSH32 0x4E487B7100000000000000000000000000000000000000000000000000000000 PUSH1 0x0 MSTORE PUSH1 0x41 PUSH1 0x4 MSTORE PUSH1 0x24 PUSH1 0x0 REVERT JUMPDEST PUSH1 0x0 PUSH1 0x1F NOT PUSH1 0x1F DUP4 ADD AND SWAP1 POP SWAP2 SWAP1 POP JUMP JUMPDEST PUSH2 0x2B19 DUP1 PUSH3 0x386 PUSH1 0x0 CODECOPY PUSH1 0x0 RETURN INVALID PUSH1 0x80 PUSH1 0x40 MSTORE CALLVALUE DUP1 ISZERO PUSH2 0x10 JUMPI PUSH1 0x0 DUP1 REVERT JUMPDEST POP PUSH1 0x4 CALLDATASIZE LT PUSH2 0x100 JUMPI PUSH1 0x0 CALLDATALOAD PUSH1 0xE0 SHR DUP1 PUSH4 0x70A08231 GT PUSH2 0x97 JUMPI DUP1 PUSH4 0xB88D4FDE GT PUSH2 0x66 JUMPI DUP1 PUSH4 0xB88D4FDE EQ PUSH2 0x2BD JUMPI DUP1 PUSH4 0xC87B56DD EQ PUSH2 0x2D9 JUMPI DUP1 PUSH4 0xE985E9C5 EQ PUSH2 0x309 JUMPI DUP1 PUSH4 0xEE48CDA2 EQ PUSH2 0x339 JUMPI PUSH2 0x100 JUMP JUMPDEST DUP1 PUSH4 0x70A08231 EQ PUSH2 0x237 JUMPI DUP1 PUSH4 0x95D89B41 EQ PUSH2 0x267 JUMPI DUP1 PUSH4 0xA22CB465 EQ PUSH2 0x285 JUMPI DUP1 PUSH4 0xB85CBC79 EQ PUSH2 0x2A1 JUMPI PUSH2 0x100 JUMP JUMPDEST DUP1 PUSH4 0x23B872DD GT PUSH2 0xD3 JUMPI DUP1 PUSH4 0x23B872DD EQ PUSH2 0x19F JUMPI DUP1 PUSH4 0x42842E0E EQ PUSH2 0x1BB JUMPI DUP1 PUSH4 0x52E04825 EQ PUSH2 0x1D7 JUMPI DUP1 PUSH4 0x6352211E EQ PUSH2 0x207 JUMPI PUSH2 0x100 JUMP JUMPDEST DUP1 PUSH4 0x1FFC9A7 EQ PUSH2 0x105 JUMPI DUP1 PUSH4 0x6FDDE03 EQ PUSH2 0x135 JUMPI DUP1 PUSH4 0x81812FC EQ PUSH2 0x153 JUMPI DUP1 PUSH4 0x95EA7B3 EQ PUSH2 0x183 JUMPI JUMPDEST PUSH1 0x0 DUP1 REVERT JUMPDEST PUSH2 0x11F PUSH1 0x4 DUP1 CALLDATASIZE SUB DUP2 ADD SWAP1 PUSH2 0x11A SWAP2 SWAP1 PUSH2 0x1E34 JUMP JUMPDEST PUSH2 0x369 JUMP JUMPDEST PUSH1 0x40 MLOAD PUSH2 0x12C SWAP2 SWAP1 PUSH2 0x21AE JUMP JUMPDEST PUSH1 0x40 MLOAD DUP1 SWAP2 SUB SWAP1 RETURN JUMPDEST PUSH2 0x13D PUSH2 0x44B JUMP JUMPDEST PUSH1 0x40 MLOAD PUSH2 0x14A SWAP2 SWAP1 PUSH2 0x21C9 JUMP JUMPDEST PUSH1 0x40 MLOAD DUP1 SWAP2 SUB SWAP1 RETURN JUMPDEST PUSH2 0x16D PUSH1 0x4 DUP1 CALLDATASIZE SUB DUP2 ADD SWAP1 PUSH2 0x168 SWAP2 SWAP1 PUSH2 0x1E86 JUMP JUMPDEST PUSH2 0x4DD JUMP JUMPDEST PUSH1 0x40 MLOAD PUSH2 0x17A SWAP2 SWAP1 PUSH2 0x2147 JUMP JUMPDEST PUSH1 0x40 MLOAD DUP1 SWAP2 SUB SWAP1 RETURN JUMPDEST PUSH2 0x19D PUSH1 0x4 DUP1 CALLDATASIZE SUB DUP2 ADD SWAP1 PUSH2 0x198 SWAP2 SWAP1 PUSH2 0x1DF8 JUMP JUMPDEST PUSH2 0x523 JUMP JUMPDEST STOP JUMPDEST PUSH2 0x1B9 PUSH1 0x4 DUP1 CALLDATASIZE SUB DUP2 ADD SWAP1 PUSH2 0x1B4 SWAP2 SWAP1 PUSH2 0x1C77 JUMP JUMPDEST PUSH2 0x63B JUMP JUMPDEST STOP JUMPDEST PUSH2 0x1D5 PUSH1 0x4 DUP1 CALLDATASIZE SUB DUP2 ADD SWAP1 PUSH2 0x1D0 SWAP2 SWAP1 PUSH2 0x1C77 JUMP JUMPDEST PUSH2 0x69B JUMP JUMPDEST STOP JUMPDEST PUSH2 0x1F1 PUSH1 0x4 DUP1 CALLDATASIZE SUB DUP2 ADD SWAP1 PUSH2 0x1EC SWAP2 SWAP1 PUSH2 0x1E86 JUMP JUMPDEST PUSH2 0x6BB JUMP JUMPDEST PUSH1 0x40 MLOAD PUSH2 0x1FE SWAP2 SWAP1 PUSH2 0x2147 JUMP JUMPDEST PUSH1 0x40 MLOAD DUP1 SWAP2 SUB SWAP1 RETURN JUMPDEST PUSH2 0x221 PUSH1 0x4 DUP1 CALLDATASIZE SUB DUP2 ADD SWAP1 PUSH2 0x21C SWAP2 SWAP1 PUSH2 0x1E86 JUMP JUMPDEST PUSH2 0x76D JUMP JUMPDEST PUSH1 0x40 MLOAD PUSH2 0x22E SWAP2 SWAP1 PUSH2 0x2147 JUMP JUMPDEST PUSH1 0x40 MLOAD DUP1 SWAP2 SUB SWAP1 RETURN JUMPDEST PUSH2 0x251 PUSH1 0x4 DUP1 CALLDATASIZE SUB DUP2 ADD SWAP1 PUSH2 0x24C SWAP2 SWAP1 PUSH2 0x1C12 JUMP JUMPDEST PUSH2 0x81F JUMP JUMPDEST PUSH1 0x40 MLOAD PUSH2 0x25E SWAP2 SWAP1 PUSH2 0x236B JUMP JUMPDEST PUSH1 0x40 MLOAD DUP1 SWAP2 SUB SWAP1 RETURN JUMPDEST PUSH2 0x26F PUSH2 0x8D7 JUMP JUMPDEST PUSH1 0x40 MLOAD PUSH2 0x27C SWAP2 SWAP1 PUSH2 0x21C9 JUMP JUMPDEST PUSH1 0x40 MLOAD DUP1 SWAP2 SUB SWAP1 RETURN JUMPDEST PUSH2 0x29F PUSH1 0x4 DUP1 CALLDATASIZE SUB DUP2 ADD SWAP1 PUSH2 0x29A SWAP2 SWAP1 PUSH2 0x1DBC JUMP JUMPDEST PUSH2 0x969 JUMP JUMPDEST STOP JUMPDEST PUSH2 0x2BB PUSH1 0x4 DUP1 CALLDATASIZE SUB DUP2 ADD SWAP1 PUSH2 0x2B6 SWAP2 SWAP1 PUSH2 0x1D41 JUMP JUMPDEST PUSH2 0x97F JUMP JUMPDEST STOP JUMPDEST PUSH2 0x2D7 PUSH1 0x4 DUP1 CALLDATASIZE SUB DUP2 ADD SWAP1 PUSH2 0x2D2 SWAP2 SWAP1 PUSH2 0x1CC6 JUMP JUMPDEST PUSH2 0x99A JUMP JUMPDEST STOP JUMPDEST PUSH2 0x2F3 PUSH1 0x4 DUP1 CALLDATASIZE SUB DUP2 ADD SWAP1 PUSH2 0x2EE SWAP2 SWAP1 PUSH2 0x1E86 JUMP JUMPDEST PUSH2 0x9FC JUMP JUMPDEST PUSH1 0x40 MLOAD PUSH2 0x300 SWAP2 SWAP1 PUSH2 0x21C9 JUMP JUMPDEST PUSH1 0x40 MLOAD DUP1 SWAP2 SUB SWAP1 RETURN JUMPDEST PUSH2 0x323 PUSH1 0x4 DUP1 CALLDATASIZE SUB DUP2 ADD SWAP1 PUSH2 0x31E SWAP2 SWAP1 PUSH2 0x1C3B JUMP JUMPDEST PUSH2 0xA64 JUMP JUMPDEST PUSH1 0x40 MLOAD PUSH2 0x330 SWAP2 SWAP1 PUSH2 0x21AE JUMP JUMPDEST PUSH1 0x40 MLOAD DUP1 SWAP2 SUB SWAP1 RETURN JUMPDEST PUSH2 0x353 PUSH1 0x4 DUP1 CALLDATASIZE SUB DUP2 ADD SWAP1 PUSH2 0x34E SWAP2 SWAP1 PUSH2 0x1E86 JUMP JUMPDEST PUSH2 0xAF8 JUMP JUMPDEST PUSH1 0x40 MLOAD PUSH2 0x360 SWAP2 SWAP1 PUSH2 0x2147 JUMP JUMPDEST PUSH1 0x40 MLOAD DUP1 SWAP2 SUB SWAP1 RETURN JUMPDEST PUSH1 0x0 PUSH32 0x80AC58CD00000000000000000000000000000000000000000000000000000000 PUSH28 0xFFFFFFFFFFFFFFFFFFFFFFFFFFFFFFFFFFFFFFFFFFFFFFFFFFFFFFFF NOT AND DUP3 PUSH28 0xFFFFFFFFFFFFFFFFFFFFFFFFFFFFFFFFFFFFFFFFFFFFFFFFFFFFFFFF NOT AND EQ DUP1 PUSH2 0x434 JUMPI POP PUSH32 0x5B5E139F00000000000000000000000000000000000000000000000000000000 PUSH28 0xFFFFFFFFFFFFFFFFFFFFFFFFFFFFFFFFFFFFFFFFFFFFFFFFFFFFFFFF NOT AND DUP3 PUSH28 0xFFFFFFFFFFFFFFFFFFFFFFFFFFFFFFFFFFFFFFFFFFFFFFFFFFFFFFFF NOT AND EQ JUMPDEST DUP1 PUSH2 0x444 JUMPI POP PUSH2 0x443 DUP3 PUSH2 0xBAA JUMP JUMPDEST JUMPDEST SWAP1 POP SWAP2 SWAP1 POP JUMP JUMPDEST PUSH1 0x60 PUSH1 0x0 DUP1 SLOAD PUSH2 0x45A SWAP1 PUSH2 0x25C1 JUMP JUMPDEST DUP1 PUSH1 0x1F ADD PUSH1 0x20 DUP1 SWAP2 DIV MUL PUSH1 0x20 ADD PUSH1 0x40 MLOAD SWAP1 DUP2 ADD PUSH1 0x40 MSTORE DUP1 SWAP3 SWAP2 SWAP1 DUP2 DUP2 MSTORE PUSH1 0x20 ADD DUP3 DUP1 SLOAD PUSH2 0x486 SWAP1 PUSH2 0x25C1 JUMP JUMPDEST DUP1 ISZERO PUSH2 0x4D3 JUMPI DUP1 PUSH1 0x1F LT PUSH2 0x4A8 JUMPI PUSH2 0x100 DUP1 DUP4 SLOAD DIV MUL DUP4 MSTORE SWAP2 PUSH1 0x20 ADD SWAP2 PUSH2 0x4D3 JUMP JUMPDEST DUP3 ADD SWAP2 SWAP1 PUSH1 0x0 MSTORE PUSH1 0x20 PUSH1 0x0 KECCAK256 SWAP1 JUMPDEST DUP2 SLOAD DUP2 MSTORE SWAP1 PUSH1 0x1 ADD SWAP1 PUSH1 0x20 ADD DUP1 DUP4 GT PUSH2 0x4B6 JUMPI DUP3 SWAP1 SUB PUSH1 0x1F AND DUP3 ADD SWAP2 JUMPDEST POP POP POP POP POP SWAP1 POP SWAP1 JUMP JUMPDEST PUSH1 0x0 PUSH2 0x4E8 DUP3 PUSH2 0xC14 JUMP JUMPDEST PUSH1 0x7 PUSH1 0x0 DUP4 DUP2 MSTORE PUSH1 0x20 ADD SWAP1 DUP2 MSTORE PUSH1 0x20 ADD PUSH1 0x0 KECCAK256 PUSH1 0x0 SWAP1 SLOAD SWAP1 PUSH2 0x100 EXP SWAP1 DIV PUSH20 0xFFFFFFFFFFFFFFFFFFFFFFFFFFFFFFFFFFFFFFFF AND SWAP1 POP SWAP2 SWAP1 POP JUMP JUMPDEST PUSH1 0x0 PUSH2 0x52E DUP3 PUSH2 0x76D JUMP JUMPDEST SWAP1 POP DUP1 PUSH20 0xFFFFFFFFFFFFFFFFFFFFFFFFFFFFFFFFFFFFFFFF AND DUP4 PUSH20 0xFFFFFFFFFFFFFFFFFFFFFFFFFFFFFFFFFFFFFFFF AND EQ ISZERO PUSH2 0x59F JUMPI PUSH1 0x40 MLOAD PUSH32 0x8C379A000000000000000000000000000000000000000000000000000000000 DUP2 MSTORE PUSH1 0x4 ADD PUSH2 0x596 SWAP1 PUSH2 0x232B JUMP JUMPDEST PUSH1 0x40 MLOAD DUP1 SWAP2 SUB SWAP1 REVERT JUMPDEST DUP1 PUSH20 0xFFFFFFFFFFFFFFFFFFFFFFFFFFFFFFFFFFFFFFFF AND PUSH2 0x5BE PUSH2 0xC5F JUMP JUMPDEST PUSH20 0xFFFFFFFFFFFFFFFFFFFFFFFFFFFFFFFFFFFFFFFF AND EQ DUP1 PUSH2 0x5ED JUMPI POP PUSH2 0x5EC DUP2 PUSH2 0x5E7 PUSH2 0xC5F JUMP JUMPDEST PUSH2 0xA64 JUMP JUMPDEST JUMPDEST PUSH2 0x62C JUMPI PUSH1 0x40 MLOAD PUSH32 0x8C379A000000000000000000000000000000000000000000000000000000000 DUP2 MSTORE PUSH1 0x4 ADD PUSH2 0x623 SWAP1 PUSH2 0x234B JUMP JUMPDEST PUSH1 0x40 MLOAD DUP1 SWAP2 SUB SWAP1 REVERT JUMPDEST PUSH2 0x636 DUP4 DUP4 PUSH2 0xC67 JUMP JUMPDEST POP POP POP JUMP JUMPDEST PUSH2 0x64C PUSH2 0x646 PUSH2 0xC5F JUMP JUMPDEST DUP3 PUSH2 0xD20 JUMP JUMPDEST PUSH2 0x68B JUMPI PUSH1 0x40 MLOAD PUSH32 0x8C379A000000000000000000000000000000000000000000000000000000000 DUP2 MSTORE PUSH1 0x4 ADD PUSH2 0x682 SWAP1 PUSH2 0x21EB JUMP JUMPDEST PUSH1 0x40 MLOAD DUP1 SWAP2 SUB SWAP1 REVERT JUMPDEST PUSH2 0x696 DUP4 DUP4 DUP4 PUSH2 0xDB5 JUMP JUMPDEST POP POP POP JUMP JUMPDEST PUSH2 0x6B6 DUP4 DUP4 DUP4 PUSH1 0x40 MLOAD DUP1 PUSH1 0x20 ADD PUSH1 0x40 MSTORE DUP1 PUSH1 0x0 DUP2 MSTORE POP PUSH2 0x99A JUMP JUMPDEST POP POP POP JUMP JUMPDEST PUSH1 0x0 DUP1 PUSH1 0x4 PUSH1 0x0 DUP5 DUP2 MSTORE PUSH1 0x20 ADD SWAP1 DUP2 MSTORE PUSH1 0x20 ADD PUSH1 0x0 KECCAK256 PUSH1 0x0 SWAP1 SLOAD SWAP1 PUSH2 0x100 EXP SWAP1 DIV PUSH20 0xFFFFFFFFFFFFFFFFFFFFFFFFFFFFFFFFFFFFFFFF AND SWAP1 POP PUSH1 0x0 PUSH20 0xFFFFFFFFFFFFFFFFFFFFFFFFFFFFFFFFFFFFFFFF AND DUP2 PUSH20 0xFFFFFFFFFFFFFFFFFFFFFFFFFFFFFFFFFFFFFFFF AND EQ ISZERO PUSH2 0x764 JUMPI PUSH1 0x40 MLOAD PUSH32 0x8C379A000000000000000000000000000000000000000000000000000000000 DUP2 MSTORE PUSH1 0x4 ADD PUSH2 0x75B SWAP1 PUSH2 0x230B JUMP JUMPDEST PUSH1 0x40 MLOAD DUP1 SWAP2 SUB SWAP1 REVERT JUMPDEST DUP1 SWAP2 POP POP SWAP2 SWAP1 POP JUMP JUMPDEST PUSH1 0x0 DUP1 PUSH1 0x2 PUSH1 0x0 DUP5 DUP2 MSTORE PUSH1 0x20 ADD SWAP1 DUP2 MSTORE PUSH1 0x20 ADD PUSH1 0x0 KECCAK256 PUSH1 0x0 SWAP1 SLOAD SWAP1 PUSH2 0x100 EXP SWAP1 DIV PUSH20 0xFFFFFFFFFFFFFFFFFFFFFFFFFFFFFFFFFFFFFFFF AND SWAP1 POP PUSH1 0x0 PUSH20 0xFFFFFFFFFFFFFFFFFFFFFFFFFFFFFFFFFFFFFFFF AND DUP2 PUSH20 0xFFFFFFFFFFFFFFFFFFFFFFFFFFFFFFFFFFFFFFFF AND EQ ISZERO PUSH2 0x816 JUMPI PUSH1 0x40 MLOAD PUSH32 0x8C379A000000000000000000000000000000000000000000000000000000000 DUP2 MSTORE PUSH1 0x4 ADD PUSH2 0x80D SWAP1 PUSH2 0x230B JUMP JUMPDEST PUSH1 0x40 MLOAD DUP1 SWAP2 SUB SWAP1 REVERT JUMPDEST DUP1 SWAP2 POP POP SWAP2 SWAP1 POP JUMP JUMPDEST PUSH1 0x0 DUP1 PUSH20 0xFFFFFFFFFFFFFFFFFFFFFFFFFFFFFFFFFFFFFFFF AND DUP3 PUSH20 0xFFFFFFFFFFFFFFFFFFFFFFFFFFFFFFFFFFFFFFFF AND EQ ISZERO PUSH2 0x890 JUMPI PUSH1 0x40 MLOAD PUSH32 0x8C379A000000000000000000000000000000000000000000000000000000000 DUP2 MSTORE PUSH1 0x4 ADD PUSH2 0x887 SWAP1 PUSH2 0x22AB JUMP JUMPDEST PUSH1 0x40 MLOAD DUP1 SWAP2 SUB SWAP1 REVERT JUMPDEST PUSH1 0x6 PUSH1 0x0 DUP4 PUSH20 0xFFFFFFFFFFFFFFFFFFFFFFFFFFFFFFFFFFFFFFFF AND PUSH20 0xFFFFFFFFFFFFFFFFFFFFFFFFFFFFFFFFFFFFFFFF AND DUP2 MSTORE PUSH1 0x20 ADD SWAP1 DUP2 MSTORE PUSH1 0x20 ADD PUSH1 0x0 KECCAK256 SLOAD SWAP1 POP SWAP2 SWAP1 POP JUMP JUMPDEST PUSH1 0x60 PUSH1 0x1 DUP1 SLOAD PUSH2 0x8E6 SWAP1 PUSH2 0x25C1 JUMP JUMPDEST DUP1 PUSH1 0x1F ADD PUSH1 0x20 DUP1 SWAP2 DIV MUL PUSH1 0x20 ADD PUSH1 0x40 MLOAD SWAP1 DUP2 ADD PUSH1 0x40 MSTORE DUP1 SWAP3 SWAP2 SWAP1 DUP2 DUP2 MSTORE PUSH1 0x20 ADD DUP3 DUP1 SLOAD PUSH2 0x912 SWAP1 PUSH2 0x25C1 JUMP JUMPDEST DUP1 ISZERO PUSH2 0x95F JUMPI DUP1 PUSH1 0x1F LT PUSH2 0x934 JUMPI PUSH2 0x100 DUP1 DUP4 SLOAD DIV MUL DUP4 MSTORE SWAP2 PUSH1 0x20 ADD SWAP2 PUSH2 0x95F JUMP JUMPDEST DUP3 ADD SWAP2 SWAP1 PUSH1 0x0 MSTORE PUSH1 0x20 PUSH1 0x0 KECCAK256 SWAP1 JUMPDEST DUP2 SLOAD DUP2 MSTORE SWAP1 PUSH1 0x1 ADD SWAP1 PUSH1 0x20 ADD DUP1 DUP4 GT PUSH2 0x942 JUMPI DUP3 SWAP1 SUB PUSH1 0x1F AND DUP3 ADD SWAP2 JUMPDEST POP POP POP POP POP SWAP1 POP SWAP1 JUMP JUMPDEST PUSH2 0x97B PUSH2 0x974 PUSH2 0xC5F JUMP JUMPDEST DUP4 DUP4 PUSH2 0x10AB JUMP JUMPDEST POP POP JUMP JUMPDEST PUSH2 0x98A DUP5 DUP5 DUP5 PUSH2 0x1218 JUMP JUMPDEST PUSH2 0x994 DUP3 DUP3 PUSH2 0x1238 JUMP JUMPDEST POP POP POP POP JUMP JUMPDEST PUSH2 0x9AB PUSH2 0x9A5 PUSH2 0xC5F JUMP JUMPDEST DUP4 PUSH2 0xD20 JUMP JUMPDEST PUSH2 0x9EA JUMPI PUSH1 0x40 MLOAD PUSH32 0x8C379A000000000000000000000000000000000000000000000000000000000 DUP2 MSTORE PUSH1 0x4 ADD PUSH2 0x9E1 SWAP1 PUSH2 0x21EB JUMP JUMPDEST PUSH1 0x40 MLOAD DUP1 SWAP2 SUB SWAP1 REVERT JUMPDEST PUSH2 0x9F6 DUP5 DUP5 DUP5 DUP5 PUSH2 0x12AC JUMP JUMPDEST POP POP POP POP JUMP JUMPDEST PUSH1 0x60 PUSH2 0xA07 DUP3 PUSH2 0xC14 JUMP JUMPDEST PUSH1 0x0 PUSH2 0xA11 PUSH2 0x1308 JUMP JUMPDEST SWAP1 POP PUSH1 0x0 DUP2 MLOAD GT PUSH2 0xA31 JUMPI PUSH1 0x40 MLOAD DUP1 PUSH1 0x20 ADD PUSH1 0x40 MSTORE DUP1 PUSH1 0x0 DUP2 MSTORE POP PUSH2 0xA5C JUMP JUMPDEST DUP1 PUSH2 0xA3B DUP5 PUSH2 0x131F JUMP JUMPDEST PUSH1 0x40 MLOAD PUSH1 0x20 ADD PUSH2 0xA4C SWAP3 SWAP2 SWAP1 PUSH2 0x2123 JUMP JUMPDEST PUSH1 0x40 MLOAD PUSH1 0x20 DUP2 DUP4 SUB SUB DUP2 MSTORE SWAP1 PUSH1 0x40 MSTORE JUMPDEST SWAP2 POP POP SWAP2 SWAP1 POP JUMP JUMPDEST PUSH1 0x0 PUSH1 0x8 PUSH1 0x0 DUP5 PUSH20 0xFFFFFFFFFFFFFFFFFFFFFFFFFFFFFFFFFFFFFFFF AND PUSH20 0xFFFFFFFFFFFFFFFFFFFFFFFFFFFFFFFFFFFFFFFF AND DUP2 MSTORE PUSH1 0x20 ADD SWAP1 DUP2 MSTORE PUSH1 0x20 ADD PUSH1 0x0 KECCAK256 PUSH1 0x0 DUP4 PUSH20 0xFFFFFFFFFFFFFFFFFFFFFFFFFFFFFFFFFFFFFFFF AND PUSH20 0xFFFFFFFFFFFFFFFFFFFFFFFFFFFFFFFFFFFFFFFF AND DUP2 MSTORE PUSH1 0x20 ADD SWAP1 DUP2 MSTORE PUSH1 0x20 ADD PUSH1 0x0 KECCAK256 PUSH1 0x0 SWAP1 SLOAD SWAP1 PUSH2 0x100 EXP SWAP1 DIV PUSH1 0xFF AND SWAP1 POP SWAP3 SWAP2 POP POP JUMP JUMPDEST PUSH1 0x0 DUP1 PUSH1 0x4 PUSH1 0x0 DUP5 DUP2 MSTORE PUSH1 0x20 ADD SWAP1 DUP2 MSTORE PUSH1 0x20 ADD PUSH1 0x0 KECCAK256 PUSH1 0x0 SWAP1 SLOAD SWAP1 PUSH2 0x100 EXP SWAP1 DIV PUSH20 0xFFFFFFFFFFFFFFFFFFFFFFFFFFFFFFFFFFFFFFFF AND SWAP1 POP PUSH1 0x0 PUSH20 0xFFFFFFFFFFFFFFFFFFFFFFFFFFFFFFFFFFFFFFFF AND DUP2 PUSH20 0xFFFFFFFFFFFFFFFFFFFFFFFFFFFFFFFFFFFFFFFF AND EQ ISZERO PUSH2 0xBA1 JUMPI PUSH1 0x40 MLOAD PUSH32 0x8C379A000000000000000000000000000000000000000000000000000000000 DUP2 MSTORE PUSH1 0x4 ADD PUSH2 0xB98 SWAP1 PUSH2 0x230B JUMP JUMPDEST PUSH1 0x40 MLOAD DUP1 SWAP2 SUB SWAP1 REVERT JUMPDEST DUP1 SWAP2 POP POP SWAP2 SWAP1 POP JUMP JUMPDEST PUSH1 0x0 PUSH32 0x1FFC9A700000000000000000000000000000000000000000000000000000000 PUSH28 0xFFFFFFFFFFFFFFFFFFFFFFFFFFFFFFFFFFFFFFFFFFFFFFFFFFFFFFFF NOT AND DUP3 PUSH28 0xFFFFFFFFFFFFFFFFFFFFFFFFFFFFFFFFFFFFFFFFFFFFFFFFFFFFFFFF NOT AND EQ SWAP1 POP SWAP2 SWAP1 POP JUMP JUMPDEST PUSH2 0xC1D DUP2 PUSH2 0x14CC JUMP JUMPDEST PUSH2 0xC5C JUMPI PUSH1 0x40 MLOAD PUSH32 0x8C379A000000000000000000000000000000000000000000000000000000000 DUP2 MSTORE PUSH1 0x4 ADD PUSH2 0xC53 SWAP1 PUSH2 0x230B JUMP JUMPDEST PUSH1 0x40 MLOAD DUP1 SWAP2 SUB SWAP1 REVERT JUMPDEST POP JUMP JUMPDEST PUSH1 0x0 CALLER SWAP1 POP SWAP1 JUMP JUMPDEST DUP2 PUSH1 0x7 PUSH1 0x0 DUP4 DUP2 MSTORE PUSH1 0x20 ADD SWAP1 DUP2 MSTORE PUSH1 0x20 ADD PUSH1 0x0 KECCAK256 PUSH1 0x0 PUSH2 0x100 EXP DUP2 SLOAD DUP2 PUSH20 0xFFFFFFFFFFFFFFFFFFFFFFFFFFFFFFFFFFFFFFFF MUL NOT AND SWAP1 DUP4 PUSH20 0xFFFFFFFFFFFFFFFFFFFFFFFFFFFFFFFFFFFFFFFF AND MUL OR SWAP1 SSTORE POP DUP1 DUP3 PUSH20 0xFFFFFFFFFFFFFFFFFFFFFFFFFFFFFFFFFFFFFFFF AND PUSH2 0xCDA DUP4 PUSH2 0x76D JUMP JUMPDEST PUSH20 0xFFFFFFFFFFFFFFFFFFFFFFFFFFFFFFFFFFFFFFFF AND PUSH32 0x8C5BE1E5EBEC7D5BD14F71427D1E84F3DD0314C0F7B2291E5B200AC8C7C3B925 PUSH1 0x40 MLOAD PUSH1 0x40 MLOAD DUP1 SWAP2 SUB SWAP1 LOG4 POP POP JUMP JUMPDEST PUSH1 0x0 DUP1 PUSH2 0xD2C DUP4 PUSH2 0x76D JUMP JUMPDEST SWAP1 POP DUP1 PUSH20 0xFFFFFFFFFFFFFFFFFFFFFFFFFFFFFFFFFFFFFFFF AND DUP5 PUSH20 0xFFFFFFFFFFFFFFFFFFFFFFFFFFFFFFFFFFFFFFFF AND EQ DUP1 PUSH2 0xD6E JUMPI POP PUSH2 0xD6D DUP2 DUP6 PUSH2 0xA64 JUMP JUMPDEST JUMPDEST DUP1 PUSH2 0xDAC JUMPI POP DUP4 PUSH20 0xFFFFFFFFFFFFFFFFFFFFFFFFFFFFFFFFFFFFFFFF AND PUSH2 0xD94 DUP5 PUSH2 0x4DD JUMP JUMPDEST PUSH20 0xFFFFFFFFFFFFFFFFFFFFFFFFFFFFFFFFFFFFFFFF AND EQ JUMPDEST SWAP2 POP POP SWAP3 SWAP2 POP POP JUMP JUMPDEST DUP3 PUSH20 0xFFFFFFFFFFFFFFFFFFFFFFFFFFFFFFFFFFFFFFFF AND PUSH2 0xDD5 DUP3 PUSH2 0x76D JUMP JUMPDEST PUSH20 0xFFFFFFFFFFFFFFFFFFFFFFFFFFFFFFFFFFFFFFFF AND EQ PUSH2 0xE2B JUMPI PUSH1 0x40 MLOAD PUSH32 0x8C379A000000000000000000000000000000000000000000000000000000000 DUP2 MSTORE PUSH1 0x4 ADD PUSH2 0xE22 SWAP1 PUSH2 0x222B JUMP JUMPDEST PUSH1 0x40 MLOAD DUP1 SWAP2 SUB SWAP1 REVERT JUMPDEST PUSH1 0x0 PUSH20 0xFFFFFFFFFFFFFFFFFFFFFFFFFFFFFFFFFFFFFFFF AND DUP3 PUSH20 0xFFFFFFFFFFFFFFFFFFFFFFFFFFFFFFFFFFFFFFFF AND EQ ISZERO PUSH2 0xE9B JUMPI PUSH1 0x40 MLOAD PUSH32 0x8C379A000000000000000000000000000000000000000000000000000000000 DUP2 MSTORE PUSH1 0x4 ADD PUSH2 0xE92 SWAP1 PUSH2 0x226B JUMP JUMPDEST PUSH1 0x40 MLOAD DUP1 SWAP2 SUB SWAP1 REVERT JUMPDEST PUSH2 0xEA6 DUP4 DUP4 DUP4 PUSH2 0x1538 JUMP JUMPDEST DUP3 PUSH20 0xFFFFFFFFFFFFFFFFFFFFFFFFFFFFFFFFFFFFFFFF AND PUSH2 0xEC6 DUP3 PUSH2 0x76D JUMP JUMPDEST PUSH20 0xFFFFFFFFFFFFFFFFFFFFFFFFFFFFFFFFFFFFFFFF AND EQ PUSH2 0xF1C JUMPI PUSH1 0x40 MLOAD PUSH32 0x8C379A000000000000000000000000000000000000000000000000000000000 DUP2 MSTORE PUSH1 0x4 ADD PUSH2 0xF13 SWAP1 PUSH2 0x222B JUMP JUMPDEST PUSH1 0x40 MLOAD DUP1 SWAP2 SUB SWAP1 REVERT JUMPDEST PUSH1 0x7 PUSH1 0x0 DUP3 DUP2 MSTORE PUSH1 0x20 ADD SWAP1 DUP2 MSTORE PUSH1 0x20 ADD PUSH1 0x0 KECCAK256 PUSH1 0x0 PUSH2 0x100 EXP DUP2 SLOAD SWAP1 PUSH20 0xFFFFFFFFFFFFFFFFFFFFFFFFFFFFFFFFFFFFFFFF MUL NOT AND SWAP1 SSTORE PUSH1 0x1 PUSH1 0x6 PUSH1 0x0 DUP6 PUSH20 0xFFFFFFFFFFFFFFFFFFFFFFFFFFFFFFFFFFFFFFFF AND PUSH20 0xFFFFFFFFFFFFFFFFFFFFFFFFFFFFFFFFFFFFFFFF AND DUP2 MSTORE PUSH1 0x20 ADD SWAP1 DUP2 MSTORE PUSH1 0x20 ADD PUSH1 0x0 KECCAK256 PUSH1 0x0 DUP3 DUP3 SLOAD SUB SWAP3 POP POP DUP2 SWAP1 SSTORE POP PUSH1 0x1 PUSH1 0x6 PUSH1 0x0 DUP5 PUSH20 0xFFFFFFFFFFFFFFFFFFFFFFFFFFFFFFFFFFFFFFFF AND PUSH20 0xFFFFFFFFFFFFFFFFFFFFFFFFFFFFFFFFFFFFFFFF AND DUP2 MSTORE PUSH1 0x20 ADD SWAP1 DUP2 MSTORE PUSH1 0x20 ADD PUSH1 0x0 KECCAK256 PUSH1 0x0 DUP3 DUP3 SLOAD ADD SWAP3 POP POP DUP2 SWAP1 SSTORE POP DUP2 PUSH1 0x2 PUSH1 0x0 DUP4 DUP2 MSTORE PUSH1 0x20 ADD SWAP1 DUP2 MSTORE PUSH1 0x20 ADD PUSH1 0x0 KECCAK256 PUSH1 0x0 PUSH2 0x100 EXP DUP2 SLOAD DUP2 PUSH20 0xFFFFFFFFFFFFFFFFFFFFFFFFFFFFFFFFFFFFFFFF MUL NOT AND SWAP1 DUP4 PUSH20 0xFFFFFFFFFFFFFFFFFFFFFFFFFFFFFFFFFFFFFFFF AND MUL OR SWAP1 SSTORE POP DUP1 DUP3 PUSH20 0xFFFFFFFFFFFFFFFFFFFFFFFFFFFFFFFFFFFFFFFF AND DUP5 PUSH20 0xFFFFFFFFFFFFFFFFFFFFFFFFFFFFFFFFFFFFFFFF AND PUSH32 0xDDF252AD1BE2C89B69C2B068FC378DAA952BA7F163C4A11628F55A4DF523B3EF PUSH1 0x40 MLOAD PUSH1 0x40 MLOAD DUP1 SWAP2 SUB SWAP1 LOG4 PUSH2 0x10A6 DUP4 DUP4 DUP4 PUSH2 0x153D JUMP JUMPDEST POP POP POP JUMP JUMPDEST DUP2 PUSH20 0xFFFFFFFFFFFFFFFFFFFFFFFFFFFFFFFFFFFFFFFF AND DUP4 PUSH20 0xFFFFFFFFFFFFFFFFFFFFFFFFFFFFFFFFFFFFFFFF AND EQ ISZERO PUSH2 0x111A JUMPI PUSH1 0x40 MLOAD PUSH32 0x8C379A000000000000000000000000000000000000000000000000000000000 DUP2 MSTORE PUSH1 0x4 ADD PUSH2 0x1111 SWAP1 PUSH2 0x228B JUMP JUMPDEST PUSH1 0x40 MLOAD DUP1 SWAP2 SUB SWAP1 REVERT JUMPDEST DUP1 PUSH1 0x8 PUSH1 0x0 DUP6 PUSH20 0xFFFFFFFFFFFFFFFFFFFFFFFFFFFFFFFFFFFFFFFF AND PUSH20 0xFFFFFFFFFFFFFFFFFFFFFFFFFFFFFFFFFFFFFFFF AND DUP2 MSTORE PUSH1 0x20 ADD SWAP1 DUP2 MSTORE PUSH1 0x20 ADD PUSH1 0x0 KECCAK256 PUSH1 0x0 DUP5 PUSH20 0xFFFFFFFFFFFFFFFFFFFFFFFFFFFFFFFFFFFFFFFF AND PUSH20 0xFFFFFFFFFFFFFFFFFFFFFFFFFFFFFFFFFFFFFFFF AND DUP2 MSTORE PUSH1 0x20 ADD SWAP1 DUP2 MSTORE PUSH1 0x20 ADD PUSH1 0x0 KECCAK256 PUSH1 0x0 PUSH2 0x100 EXP DUP2 SLOAD DUP2 PUSH1 0xFF MUL NOT AND SWAP1 DUP4 ISZERO ISZERO MUL OR SWAP1 SSTORE POP DUP2 PUSH20 0xFFFFFFFFFFFFFFFFFFFFFFFFFFFFFFFFFFFFFFFF AND DUP4 PUSH20 0xFFFFFFFFFFFFFFFFFFFFFFFFFFFFFFFFFFFFFFFF AND PUSH32 0x17307EAB39AB6107E8899845AD3D59BD9653F200F220920489CA2B5937696C31 DUP4 PUSH1 0x40 MLOAD PUSH2 0x120B SWAP2 SWAP1 PUSH2 0x21AE JUMP JUMPDEST PUSH1 0x40 MLOAD DUP1 SWAP2 SUB SWAP1 LOG3 POP POP POP JUMP JUMPDEST PUSH2 0x1233 DUP4 DUP4 DUP4 PUSH1 0x40 MLOAD DUP1 PUSH1 0x20 ADD PUSH1 0x40 MSTORE DUP1 PUSH1 0x0 DUP2 MSTORE POP PUSH2 0x1542 JUMP JUMPDEST POP POP POP JUMP JUMPDEST PUSH2 0x1241 DUP3 PUSH2 0x14CC JUMP JUMPDEST PUSH2 0x1280 JUMPI PUSH1 0x40 MLOAD PUSH32 0x8C379A000000000000000000000000000000000000000000000000000000000 DUP2 MSTORE PUSH1 0x4 ADD PUSH2 0x1277 SWAP1 PUSH2 0x22CB JUMP JUMPDEST PUSH1 0x40 MLOAD DUP1 SWAP2 SUB SWAP1 REVERT JUMPDEST DUP1 PUSH1 0x9 PUSH1 0x0 DUP5 DUP2 MSTORE PUSH1 0x20 ADD SWAP1 DUP2 MSTORE PUSH1 0x20 ADD PUSH1 0x0 KECCAK256 SWAP1 DUP1 MLOAD SWAP1 PUSH1 0x20 ADD SWAP1 PUSH2 0x12A7 SWAP3 SWAP2 SWAP1 PUSH2 0x1A36 JUMP JUMPDEST POP POP POP JUMP JUMPDEST PUSH2 0x12B7 DUP5 DUP5 DUP5 PUSH2 0xDB5 JUMP JUMPDEST PUSH2 0x12C3 DUP5 DUP5 DUP5 DUP5 PUSH2 0x159F JUMP JUMPDEST PUSH2 0x1302 JUMPI PUSH1 0x40 MLOAD PUSH32 0x8C379A000000000000000000000000000000000000000000000000000000000 DUP2 MSTORE PUSH1 0x4 ADD PUSH2 0x12F9 SWAP1 PUSH2 0x220B JUMP JUMPDEST PUSH1 0x40 MLOAD DUP1 SWAP2 SUB SWAP1 REVERT JUMPDEST POP POP POP POP JUMP JUMPDEST PUSH1 0x60 PUSH1 0x40 MLOAD DUP1 PUSH1 0x20 ADD PUSH1 0x40 MSTORE DUP1 PUSH1 0x0 DUP2 MSTORE POP SWAP1 POP SWAP1 JUMP JUMPDEST PUSH1 0x60 PUSH1 0x0 DUP3 EQ ISZERO PUSH2 0x1367 JUMPI PUSH1 0x40 MLOAD DUP1 PUSH1 0x40 ADD PUSH1 0x40 MSTORE DUP1 PUSH1 0x1 DUP2 MSTORE PUSH1 0x20 ADD PUSH32 0x3000000000000000000000000000000000000000000000000000000000000000 DUP2 MSTORE POP SWAP1 POP PUSH2 0x14C7 JUMP JUMPDEST PUSH1 0x0 DUP3 SWAP1 POP PUSH1 0x0 JUMPDEST PUSH1 0x0 DUP3 EQ PUSH2 0x1399 JUMPI DUP1 DUP1 PUSH2 0x1382 SWAP1 PUSH2 0x2624 JUMP JUMPDEST SWAP2 POP POP PUSH1 0xA DUP3 PUSH2 0x1392 SWAP2 SWAP1 PUSH2 0x24A6 JUMP JUMPDEST SWAP2 POP PUSH2 0x136F JUMP JUMPDEST PUSH1 0x0 DUP2 PUSH8 0xFFFFFFFFFFFFFFFF DUP2 GT ISZERO PUSH2 0x13DB JUMPI PUSH32 0x4E487B7100000000000000000000000000000000000000000000000000000000 PUSH1 0x0 MSTORE PUSH1 0x41 PUSH1 0x4 MSTORE PUSH1 0x24 PUSH1 0x0 REVERT JUMPDEST PUSH1 0x40 MLOAD SWAP1 DUP1 DUP3 MSTORE DUP1 PUSH1 0x1F ADD PUSH1 0x1F NOT AND PUSH1 0x20 ADD DUP3 ADD PUSH1 0x40 MSTORE DUP1 ISZERO PUSH2 0x140D JUMPI DUP2 PUSH1 0x20 ADD PUSH1 0x1 DUP3 MUL DUP1 CALLDATASIZE DUP4 CALLDATACOPY DUP1 DUP3 ADD SWAP2 POP POP SWAP1 POP JUMPDEST POP SWAP1 POP JUMPDEST PUSH1 0x0 DUP6 EQ PUSH2 0x14C0 JUMPI PUSH1 0x1 DUP3 PUSH2 0x1426 SWAP2 SWAP1 PUSH2 0x24D7 JUMP JUMPDEST SWAP2 POP PUSH1 0xA DUP6 PUSH2 0x1435 SWAP2 SWAP1 PUSH2 0x266D JUMP JUMPDEST PUSH1 0x30 PUSH2 0x1441 SWAP2 SWAP1 PUSH2 0x2450 JUMP JUMPDEST PUSH1 0xF8 SHL DUP2 DUP4 DUP2 MLOAD DUP2 LT PUSH2 0x147D JUMPI PUSH32 0x4E487B7100000000000000000000000000000000000000000000000000000000 PUSH1 0x0 MSTORE PUSH1 0x32 PUSH1 0x4 MSTORE PUSH1 0x24 PUSH1 0x0 REVERT JUMPDEST PUSH1 0x20 ADD ADD SWAP1 PUSH31 0xFFFFFFFFFFFFFFFFFFFFFFFFFFFFFFFFFFFFFFFFFFFFFFFFFFFFFFFFFFFFFF NOT AND SWAP1 DUP2 PUSH1 0x0 BYTE SWAP1 MSTORE8 POP PUSH1 0xA DUP6 PUSH2 0x14B9 SWAP2 SWAP1 PUSH2 0x24A6 JUMP JUMPDEST SWAP5 POP PUSH2 0x1411 JUMP JUMPDEST DUP1 SWAP4 POP POP POP POP JUMPDEST SWAP2 SWAP1 POP JUMP JUMPDEST PUSH1 0x0 DUP1 PUSH20 0xFFFFFFFFFFFFFFFFFFFFFFFFFFFFFFFFFFFFFFFF AND PUSH1 0x2 PUSH1 0x0 DUP5 DUP2 MSTORE PUSH1 0x20 ADD SWAP1 DUP2 MSTORE PUSH1 0x20 ADD PUSH1 0x0 KECCAK256 PUSH1 0x0 SWAP1 SLOAD SWAP1 PUSH2 0x100 EXP SWAP1 DIV PUSH20 0xFFFFFFFFFFFFFFFFFFFFFFFFFFFFFFFFFFFFFFFF AND PUSH20 0xFFFFFFFFFFFFFFFFFFFFFFFFFFFFFFFFFFFFFFFF AND EQ ISZERO SWAP1 POP SWAP2 SWAP1 POP JUMP JUMPDEST POP POP POP JUMP JUMPDEST POP POP POP JUMP JUMPDEST PUSH2 0x154D DUP5 DUP5 DUP5 PUSH2 0x1736 JUMP JUMPDEST PUSH2 0x155A PUSH1 0x0 DUP6 DUP5 DUP5 PUSH2 0x159F JUMP JUMPDEST PUSH2 0x1599 JUMPI PUSH1 0x40 MLOAD PUSH32 0x8C379A000000000000000000000000000000000000000000000000000000000 DUP2 MSTORE PUSH1 0x4 ADD PUSH2 0x1590 SWAP1 PUSH2 0x220B JUMP JUMPDEST PUSH1 0x40 MLOAD DUP1 SWAP2 SUB SWAP1 REVERT JUMPDEST POP POP POP POP JUMP JUMPDEST PUSH1 0x0 PUSH2 0x15C0 DUP5 PUSH20 0xFFFFFFFFFFFFFFFFFFFFFFFFFFFFFFFFFFFFFFFF AND PUSH2 0x1A13 JUMP JUMPDEST ISZERO PUSH2 0x1729 JUMPI DUP4 PUSH20 0xFFFFFFFFFFFFFFFFFFFFFFFFFFFFFFFFFFFFFFFF AND PUSH4 0x150B7A02 PUSH2 0x15E9 PUSH2 0xC5F JUMP JUMPDEST DUP8 DUP7 DUP7 PUSH1 0x40 MLOAD DUP6 PUSH4 0xFFFFFFFF AND PUSH1 0xE0 SHL DUP2 MSTORE PUSH1 0x4 ADD PUSH2 0x160B SWAP5 SWAP4 SWAP3 SWAP2 SWAP1 PUSH2 0x2162 JUMP JUMPDEST PUSH1 0x20 PUSH1 0x40 MLOAD DUP1 DUP4 SUB DUP2 PUSH1 0x0 DUP8 DUP1 EXTCODESIZE ISZERO DUP1 ISZERO PUSH2 0x1625 JUMPI PUSH1 0x0 DUP1 REVERT JUMPDEST POP GAS CALL SWAP3 POP POP POP DUP1 ISZERO PUSH2 0x1656 JUMPI POP PUSH1 0x40 MLOAD RETURNDATASIZE PUSH1 0x1F NOT PUSH1 0x1F DUP3 ADD AND DUP3 ADD DUP1 PUSH1 0x40 MSTORE POP DUP2 ADD SWAP1 PUSH2 0x1653 SWAP2 SWAP1 PUSH2 0x1E5D JUMP JUMPDEST PUSH1 0x1 JUMPDEST PUSH2 0x16D9 JUMPI RETURNDATASIZE DUP1 PUSH1 0x0 DUP2 EQ PUSH2 0x1686 JUMPI PUSH1 0x40 MLOAD SWAP2 POP PUSH1 0x1F NOT PUSH1 0x3F RETURNDATASIZE ADD AND DUP3 ADD PUSH1 0x40 MSTORE RETURNDATASIZE DUP3 MSTORE RETURNDATASIZE PUSH1 0x0 PUSH1 0x20 DUP5 ADD RETURNDATACOPY PUSH2 0x168B JUMP JUMPDEST PUSH1 0x60 SWAP2 POP JUMPDEST POP PUSH1 0x0 DUP2 MLOAD EQ ISZERO PUSH2 0x16D1 JUMPI PUSH1 0x40 MLOAD PUSH32 0x8C379A000000000000000000000000000000000000000000000000000000000 DUP2 MSTORE PUSH1 0x4 ADD PUSH2 0x16C8 SWAP1 PUSH2 0x220B JUMP JUMPDEST PUSH1 0x40 MLOAD DUP1 SWAP2 SUB SWAP1 REVERT JUMPDEST DUP1 MLOAD DUP2 PUSH1 0x20 ADD REVERT JUMPDEST PUSH4 0x150B7A02 PUSH1 0xE0 SHL PUSH28 0xFFFFFFFFFFFFFFFFFFFFFFFFFFFFFFFFFFFFFFFFFFFFFFFFFFFFFFFF NOT AND DUP2 PUSH28 0xFFFFFFFFFFFFFFFFFFFFFFFFFFFFFFFFFFFFFFFFFFFFFFFFFFFFFFFF NOT AND EQ SWAP2 POP POP PUSH2 0x172E JUMP JUMPDEST PUSH1 0x1 SWAP1 POP JUMPDEST SWAP5 SWAP4 POP POP POP POP JUMP JUMPDEST PUSH1 0x0 PUSH20 0xFFFFFFFFFFFFFFFFFFFFFFFFFFFFFFFFFFFFFFFF AND DUP4 PUSH20 0xFFFFFFFFFFFFFFFFFFFFFFFFFFFFFFFFFFFFFFFF AND EQ ISZERO PUSH2 0x17A6 JUMPI PUSH1 0x40 MLOAD PUSH32 0x8C379A000000000000000000000000000000000000000000000000000000000 DUP2 MSTORE PUSH1 0x4 ADD PUSH2 0x179D SWAP1 PUSH2 0x22EB JUMP JUMPDEST PUSH1 0x40 MLOAD DUP1 SWAP2 SUB SWAP1 REVERT JUMPDEST PUSH1 0x0 PUSH20 0xFFFFFFFFFFFFFFFFFFFFFFFFFFFFFFFFFFFFFFFF AND DUP3 PUSH20 0xFFFFFFFFFFFFFFFFFFFFFFFFFFFFFFFFFFFFFFFF AND EQ ISZERO PUSH2 0x1816 JUMPI PUSH1 0x40 MLOAD PUSH32 0x8C379A000000000000000000000000000000000000000000000000000000000 DUP2 MSTORE PUSH1 0x4 ADD PUSH2 0x180D SWAP1 PUSH2 0x22EB JUMP JUMPDEST PUSH1 0x40 MLOAD DUP1 SWAP2 SUB SWAP1 REVERT JUMPDEST PUSH2 0x181F DUP2 PUSH2 0x14CC JUMP JUMPDEST ISZERO PUSH2 0x185F JUMPI PUSH1 0x40 MLOAD PUSH32 0x8C379A000000000000000000000000000000000000000000000000000000000 DUP2 MSTORE PUSH1 0x4 ADD PUSH2 0x1856 SWAP1 PUSH2 0x224B JUMP JUMPDEST PUSH1 0x40 MLOAD DUP1 SWAP2 SUB SWAP1 REVERT JUMPDEST PUSH2 0x186B PUSH1 0x0 DUP5 DUP4 PUSH2 0x1538 JUMP JUMPDEST PUSH2 0x1874 DUP2 PUSH2 0x14CC JUMP JUMPDEST ISZERO PUSH2 0x18B4 JUMPI PUSH1 0x40 MLOAD PUSH32 0x8C379A000000000000000000000000000000000000000000000000000000000 DUP2 MSTORE PUSH1 0x4 ADD PUSH2 0x18AB SWAP1 PUSH2 0x224B JUMP JUMPDEST PUSH1 0x40 MLOAD DUP1 SWAP2 SUB SWAP1 REVERT JUMPDEST PUSH1 0x1 PUSH1 0x6 PUSH1 0x0 DUP6 PUSH20 0xFFFFFFFFFFFFFFFFFFFFFFFFFFFFFFFFFFFFFFFF AND PUSH20 0xFFFFFFFFFFFFFFFFFFFFFFFFFFFFFFFFFFFFFFFF AND DUP2 MSTORE PUSH1 0x20 ADD SWAP1 DUP2 MSTORE PUSH1 0x20 ADD PUSH1 0x0 KECCAK256 PUSH1 0x0 DUP3 DUP3 SLOAD ADD SWAP3 POP POP DUP2 SWAP1 SSTORE POP DUP3 PUSH1 0x2 PUSH1 0x0 DUP4 DUP2 MSTORE PUSH1 0x20 ADD SWAP1 DUP2 MSTORE PUSH1 0x20 ADD PUSH1 0x0 KECCAK256 PUSH1 0x0 PUSH2 0x100 EXP DUP2 SLOAD DUP2 PUSH20 0xFFFFFFFFFFFFFFFFFFFFFFFFFFFFFFFFFFFFFFFF MUL NOT AND SWAP1 DUP4 PUSH20 0xFFFFFFFFFFFFFFFFFFFFFFFFFFFFFFFFFFFFFFFF AND MUL OR SWAP1 SSTORE POP DUP2 PUSH1 0x4 PUSH1 0x0 DUP4 DUP2 MSTORE PUSH1 0x20 ADD SWAP1 DUP2 MSTORE PUSH1 0x20 ADD PUSH1 0x0 KECCAK256 PUSH1 0x0 PUSH2 0x100 EXP DUP2 SLOAD DUP2 PUSH20 0xFFFFFFFFFFFFFFFFFFFFFFFFFFFFFFFFFFFFFFFF MUL NOT AND SWAP1 DUP4 PUSH20 0xFFFFFFFFFFFFFFFFFFFFFFFFFFFFFFFFFFFFFFFF AND MUL OR SWAP1 SSTORE POP DUP1 DUP4 PUSH20 0xFFFFFFFFFFFFFFFFFFFFFFFFFFFFFFFFFFFFFFFF AND PUSH1 0x0 PUSH20 0xFFFFFFFFFFFFFFFFFFFFFFFFFFFFFFFFFFFFFFFF AND PUSH32 0xDDF252AD1BE2C89B69C2B068FC378DAA952BA7F163C4A11628F55A4DF523B3EF PUSH1 0x40 MLOAD PUSH1 0x40 MLOAD DUP1 SWAP2 SUB SWAP1 LOG4 PUSH2 0x1A0E PUSH1 0x0 DUP5 DUP4 PUSH2 0x153D JUMP JUMPDEST POP POP POP JUMP JUMPDEST PUSH1 0x0 DUP1 DUP3 PUSH20 0xFFFFFFFFFFFFFFFFFFFFFFFFFFFFFFFFFFFFFFFF AND EXTCODESIZE GT SWAP1 POP SWAP2 SWAP1 POP JUMP JUMPDEST DUP3 DUP1 SLOAD PUSH2 0x1A42 SWAP1 PUSH2 0x25C1 JUMP JUMPDEST SWAP1 PUSH1 0x0 MSTORE PUSH1 0x20 PUSH1 0x0 KECCAK256 SWAP1 PUSH1 0x1F ADD PUSH1 0x20 SWAP1 DIV DUP2 ADD SWAP3 DUP3 PUSH2 0x1A64 JUMPI PUSH1 0x0 DUP6 SSTORE PUSH2 0x1AAB JUMP JUMPDEST DUP3 PUSH1 0x1F LT PUSH2 0x1A7D JUMPI DUP1 MLOAD PUSH1 0xFF NOT AND DUP4 DUP1 ADD OR DUP6 SSTORE PUSH2 0x1AAB JUMP JUMPDEST DUP3 DUP1 ADD PUSH1 0x1 ADD DUP6 SSTORE DUP3 ISZERO PUSH2 0x1AAB JUMPI SWAP2 DUP3 ADD JUMPDEST DUP3 DUP2 GT ISZERO PUSH2 0x1AAA JUMPI DUP3 MLOAD DUP3 SSTORE SWAP2 PUSH1 0x20 ADD SWAP2 SWAP1 PUSH1 0x1 ADD SWAP1 PUSH2 0x1A8F JUMP JUMPDEST JUMPDEST POP SWAP1 POP PUSH2 0x1AB8 SWAP2 SWAP1 PUSH2 0x1ABC JUMP JUMPDEST POP SWAP1 JUMP JUMPDEST JUMPDEST DUP1 DUP3 GT ISZERO PUSH2 0x1AD5 JUMPI PUSH1 0x0 DUP2 PUSH1 0x0 SWAP1 SSTORE POP PUSH1 0x1 ADD PUSH2 0x1ABD JUMP JUMPDEST POP SWAP1 JUMP JUMPDEST PUSH1 0x0 PUSH2 0x1AEC PUSH2 0x1AE7 DUP5 PUSH2 0x23AB JUMP JUMPDEST PUSH2 0x2386 JUMP JUMPDEST SWAP1 POP DUP3 DUP2 MSTORE PUSH1 0x20 DUP2 ADD DUP5 DUP5 DUP5 ADD GT ISZERO PUSH2 0x1B04 JUMPI PUSH1 0x0 DUP1 REVERT JUMPDEST PUSH2 0x1B0F DUP5 DUP3 DUP6 PUSH2 0x257F JUMP JUMPDEST POP SWAP4 SWAP3 POP POP POP JUMP JUMPDEST PUSH1 0x0 PUSH2 0x1B2A PUSH2 0x1B25 DUP5 PUSH2 0x23DC JUMP JUMPDEST PUSH2 0x2386 JUMP JUMPDEST SWAP1 POP DUP3 DUP2 MSTORE PUSH1 0x20 DUP2 ADD DUP5 DUP5 DUP5 ADD GT ISZERO PUSH2 0x1B42 JUMPI PUSH1 0x0 DUP1 REVERT JUMPDEST PUSH2 0x1B4D DUP5 DUP3 DUP6 PUSH2 0x257F JUMP JUMPDEST POP SWAP4 SWAP3 POP POP POP JUMP JUMPDEST PUSH1 0x0 DUP2 CALLDATALOAD SWAP1 POP PUSH2 0x1B64 DUP2 PUSH2 0x2A87 JUMP JUMPDEST SWAP3 SWAP2 POP POP JUMP JUMPDEST PUSH1 0x0 DUP2 CALLDATALOAD SWAP1 POP PUSH2 0x1B79 DUP2 PUSH2 0x2A9E JUMP JUMPDEST SWAP3 SWAP2 POP POP JUMP JUMPDEST PUSH1 0x0 DUP2 CALLDATALOAD SWAP1 POP PUSH2 0x1B8E DUP2 PUSH2 0x2AB5 JUMP JUMPDEST SWAP3 SWAP2 POP POP JUMP JUMPDEST PUSH1 0x0 DUP2 MLOAD SWAP1 POP PUSH2 0x1BA3 DUP2 PUSH2 0x2AB5 JUMP JUMPDEST SWAP3 SWAP2 POP POP JUMP JUMPDEST PUSH1 0x0 DUP3 PUSH1 0x1F DUP4 ADD SLT PUSH2 0x1BBA JUMPI PUSH1 0x0 DUP1 REVERT JUMPDEST DUP2 CALLDATALOAD PUSH2 0x1BCA DUP5 DUP3 PUSH1 0x20 DUP7 ADD PUSH2 0x1AD9 JUMP JUMPDEST SWAP2 POP POP SWAP3 SWAP2 POP POP JUMP JUMPDEST PUSH1 0x0 DUP3 PUSH1 0x1F DUP4 ADD SLT PUSH2 0x1BE4 JUMPI PUSH1 0x0 DUP1 REVERT JUMPDEST DUP2 CALLDATALOAD PUSH2 0x1BF4 DUP5 DUP3 PUSH1 0x20 DUP7 ADD PUSH2 0x1B17 JUMP JUMPDEST SWAP2 POP POP SWAP3 SWAP2 POP POP JUMP JUMPDEST PUSH1 0x0 DUP2 CALLDATALOAD SWAP1 POP PUSH2 0x1C0C DUP2 PUSH2 0x2ACC JUMP JUMPDEST SWAP3 SWAP2 POP POP JUMP JUMPDEST PUSH1 0x0 PUSH1 0x20 DUP3 DUP5 SUB SLT ISZERO PUSH2 0x1C24 JUMPI PUSH1 0x0 DUP1 REVERT JUMPDEST PUSH1 0x0 PUSH2 0x1C32 DUP5 DUP3 DUP6 ADD PUSH2 0x1B55 JUMP JUMPDEST SWAP2 POP POP SWAP3 SWAP2 POP POP JUMP JUMPDEST PUSH1 0x0 DUP1 PUSH1 0x40 DUP4 DUP6 SUB SLT ISZERO PUSH2 0x1C4E JUMPI PUSH1 0x0 DUP1 REVERT JUMPDEST PUSH1 0x0 PUSH2 0x1C5C DUP6 DUP3 DUP7 ADD PUSH2 0x1B55 JUMP JUMPDEST SWAP3 POP POP PUSH1 0x20 PUSH2 0x1C6D DUP6 DUP3 DUP7 ADD PUSH2 0x1B55 JUMP JUMPDEST SWAP2 POP POP SWAP3 POP SWAP3 SWAP1 POP JUMP JUMPDEST PUSH1 0x0 DUP1 PUSH1 0x0 PUSH1 0x60 DUP5 DUP7 SUB SLT ISZERO PUSH2 0x1C8C JUMPI PUSH1 0x0 DUP1 REVERT JUMPDEST PUSH1 0x0 PUSH2 0x1C9A DUP7 DUP3 DUP8 ADD PUSH2 0x1B55 JUMP JUMPDEST SWAP4 POP POP PUSH1 0x20 PUSH2 0x1CAB DUP7 DUP3 DUP8 ADD PUSH2 0x1B55 JUMP JUMPDEST SWAP3 POP POP PUSH1 0x40 PUSH2 0x1CBC DUP7 DUP3 DUP8 ADD PUSH2 0x1BFD JUMP JUMPDEST SWAP2 POP POP SWAP3 POP SWAP3 POP SWAP3 JUMP JUMPDEST PUSH1 0x0 DUP1 PUSH1 0x0 DUP1 PUSH1 0x80 DUP6 DUP8 SUB SLT ISZERO PUSH2 0x1CDC JUMPI PUSH1 0x0 DUP1 REVERT JUMPDEST PUSH1 0x0 PUSH2 0x1CEA DUP8 DUP3 DUP9 ADD PUSH2 0x1B55 JUMP JUMPDEST SWAP5 POP POP PUSH1 0x20 PUSH2 0x1CFB DUP8 DUP3 DUP9 ADD PUSH2 0x1B55 JUMP JUMPDEST SWAP4 POP POP PUSH1 0x40 PUSH2 0x1D0C DUP8 DUP3 DUP9 ADD PUSH2 0x1BFD JUMP JUMPDEST SWAP3 POP POP PUSH1 0x60 DUP6 ADD CALLDATALOAD PUSH8 0xFFFFFFFFFFFFFFFF DUP2 GT ISZERO PUSH2 0x1D29 JUMPI PUSH1 0x0 DUP1 REVERT JUMPDEST PUSH2 0x1D35 DUP8 DUP3 DUP9 ADD PUSH2 0x1BA9 JUMP JUMPDEST SWAP2 POP POP SWAP3 SWAP6 SWAP2 SWAP5 POP SWAP3 POP JUMP JUMPDEST PUSH1 0x0 DUP1 PUSH1 0x0 DUP1 PUSH1 0x80 DUP6 DUP8 SUB SLT ISZERO PUSH2 0x1D57 JUMPI PUSH1 0x0 DUP1 REVERT JUMPDEST PUSH1 0x0 PUSH2 0x1D65 DUP8 DUP3 DUP9 ADD PUSH2 0x1B55 JUMP JUMPDEST SWAP5 POP POP PUSH1 0x20 PUSH2 0x1D76 DUP8 DUP3 DUP9 ADD PUSH2 0x1B55 JUMP JUMPDEST SWAP4 POP POP PUSH1 0x40 PUSH2 0x1D87 DUP8 DUP3 DUP9 ADD PUSH2 0x1BFD JUMP JUMPDEST SWAP3 POP POP PUSH1 0x60 DUP6 ADD CALLDATALOAD PUSH8 0xFFFFFFFFFFFFFFFF DUP2 GT ISZERO PUSH2 0x1DA4 JUMPI PUSH1 0x0 DUP1 REVERT JUMPDEST PUSH2 0x1DB0 DUP8 DUP3 DUP9 ADD PUSH2 0x1BD3 JUMP JUMPDEST SWAP2 POP POP SWAP3 SWAP6 SWAP2 SWAP5 POP SWAP3 POP JUMP JUMPDEST PUSH1 0x0 DUP1 PUSH1 0x40 DUP4 DUP6 SUB SLT ISZERO PUSH2 0x1DCF JUMPI PUSH1 0x0 DUP1 REVERT JUMPDEST PUSH1 0x0 PUSH2 0x1DDD DUP6 DUP3 DUP7 ADD PUSH2 0x1B55 JUMP JUMPDEST SWAP3 POP POP PUSH1 0x20 PUSH2 0x1DEE DUP6 DUP3 DUP7 ADD PUSH2 0x1B6A JUMP JUMPDEST SWAP2 POP POP SWAP3 POP SWAP3 SWAP1 POP JUMP JUMPDEST PUSH1 0x0 DUP1 PUSH1 0x40 DUP4 DUP6 SUB SLT ISZERO PUSH2 0x1E0B JUMPI PUSH1 0x0 DUP1 REVERT JUMPDEST PUSH1 0x0 PUSH2 0x1E19 DUP6 DUP3 DUP7 ADD PUSH2 0x1B55 JUMP JUMPDEST SWAP3 POP POP PUSH1 0x20 PUSH2 0x1E2A DUP6 DUP3 DUP7 ADD PUSH2 0x1BFD JUMP JUMPDEST SWAP2 POP POP SWAP3 POP SWAP3 SWAP1 POP JUMP JUMPDEST PUSH1 0x0 PUSH1 0x20 DUP3 DUP5 SUB SLT ISZERO PUSH2 0x1E46 JUMPI PUSH1 0x0 DUP1 REVERT JUMPDEST PUSH1 0x0 PUSH2 0x1E54 DUP5 DUP3 DUP6 ADD PUSH2 0x1B7F JUMP JUMPDEST SWAP2 POP POP SWAP3 SWAP2 POP POP JUMP JUMPDEST PUSH1 0x0 PUSH1 0x20 DUP3 DUP5 SUB SLT ISZERO PUSH2 0x1E6F JUMPI PUSH1 0x0 DUP1 REVERT JUMPDEST PUSH1 0x0 PUSH2 0x1E7D DUP5 DUP3 DUP6 ADD PUSH2 0x1B94 JUMP JUMPDEST SWAP2 POP POP SWAP3 SWAP2 POP POP JUMP JUMPDEST PUSH1 0x0 PUSH1 0x20 DUP3 DUP5 SUB SLT ISZERO PUSH2 0x1E98 JUMPI PUSH1 0x0 DUP1 REVERT JUMPDEST PUSH1 0x0 PUSH2 0x1EA6 DUP5 DUP3 DUP6 ADD PUSH2 0x1BFD JUMP JUMPDEST SWAP2 POP POP SWAP3 SWAP2 POP POP JUMP JUMPDEST PUSH2 0x1EB8 DUP2 PUSH2 0x250B JUMP JUMPDEST DUP3 MSTORE POP POP JUMP JUMPDEST PUSH2 0x1EC7 DUP2 PUSH2 0x251D JUMP JUMPDEST DUP3 MSTORE POP POP JUMP JUMPDEST PUSH1 0x0 PUSH2 0x1ED8 DUP3 PUSH2 0x240D JUMP JUMPDEST PUSH2 0x1EE2 DUP2 DUP6 PUSH2 0x2423 JUMP JUMPDEST SWAP4 POP PUSH2 0x1EF2 DUP2 DUP6 PUSH1 0x20 DUP7 ADD PUSH2 0x258E JUMP JUMPDEST PUSH2 0x1EFB DUP2 PUSH2 0x275A JUMP JUMPDEST DUP5 ADD SWAP2 POP POP SWAP3 SWAP2 POP POP JUMP JUMPDEST PUSH1 0x0 PUSH2 0x1F11 DUP3 PUSH2 0x2418 JUMP JUMPDEST PUSH2 0x1F1B DUP2 DUP6 PUSH2 0x2434 JUMP JUMPDEST SWAP4 POP PUSH2 0x1F2B DUP2 DUP6 PUSH1 0x20 DUP7 ADD PUSH2 0x258E JUMP JUMPDEST PUSH2 0x1F34 DUP2 PUSH2 0x275A JUMP JUMPDEST DUP5 ADD SWAP2 POP POP SWAP3 SWAP2 POP POP JUMP JUMPDEST PUSH1 0x0 PUSH2 0x1F4A DUP3 PUSH2 0x2418 JUMP JUMPDEST PUSH2 0x1F54 DUP2 DUP6 PUSH2 0x2445 JUMP JUMPDEST SWAP4 POP PUSH2 0x1F64 DUP2 DUP6 PUSH1 0x20 DUP7 ADD PUSH2 0x258E JUMP JUMPDEST DUP1 DUP5 ADD SWAP2 POP POP SWAP3 SWAP2 POP POP JUMP JUMPDEST PUSH1 0x0 PUSH2 0x1F7D PUSH1 0x2D DUP4 PUSH2 0x2434 JUMP JUMPDEST SWAP2 POP PUSH2 0x1F88 DUP3 PUSH2 0x276B JUMP JUMPDEST PUSH1 0x40 DUP3 ADD SWAP1 POP SWAP2 SWAP1 POP JUMP JUMPDEST PUSH1 0x0 PUSH2 0x1FA0 PUSH1 0x32 DUP4 PUSH2 0x2434 JUMP JUMPDEST SWAP2 POP PUSH2 0x1FAB DUP3 PUSH2 0x27BA JUMP JUMPDEST PUSH1 0x40 DUP3 ADD SWAP1 POP SWAP2 SWAP1 POP JUMP JUMPDEST PUSH1 0x0 PUSH2 0x1FC3 PUSH1 0x25 DUP4 PUSH2 0x2434 JUMP JUMPDEST SWAP2 POP PUSH2 0x1FCE DUP3 PUSH2 0x2809 JUMP JUMPDEST PUSH1 0x40 DUP3 ADD SWAP1 POP SWAP2 SWAP1 POP JUMP JUMPDEST PUSH1 0x0 PUSH2 0x1FE6 PUSH1 0x1C DUP4 PUSH2 0x2434 JUMP JUMPDEST SWAP2 POP PUSH2 0x1FF1 DUP3 PUSH2 0x2858 JUMP JUMPDEST PUSH1 0x20 DUP3 ADD SWAP1 POP SWAP2 SWAP1 POP JUMP JUMPDEST PUSH1 0x0 PUSH2 0x2009 PUSH1 0x24 DUP4 PUSH2 0x2434 JUMP JUMPDEST SWAP2 POP PUSH2 0x2014 DUP3 PUSH2 0x2881 JUMP JUMPDEST PUSH1 0x40 DUP3 ADD SWAP1 POP SWAP2 SWAP1 POP JUMP JUMPDEST PUSH1 0x0 PUSH2 0x202C PUSH1 0x19 DUP4 PUSH2 0x2434 JUMP JUMPDEST SWAP2 POP PUSH2 0x2037 DUP3 PUSH2 0x28D0 JUMP JUMPDEST PUSH1 0x20 DUP3 ADD SWAP1 POP SWAP2 SWAP1 POP JUMP JUMPDEST PUSH1 0x0 PUSH2 0x204F PUSH1 0x29 DUP4 PUSH2 0x2434 JUMP JUMPDEST SWAP2 POP PUSH2 0x205A DUP3 PUSH2 0x28F9 JUMP JUMPDEST PUSH1 0x40 DUP3 ADD SWAP1 POP SWAP2 SWAP1 POP JUMP JUMPDEST PUSH1 0x0 PUSH2 0x2072 PUSH1 0x2E DUP4 PUSH2 0x2434 JUMP JUMPDEST SWAP2 POP PUSH2 0x207D DUP3 PUSH2 0x2948 JUMP JUMPDEST PUSH1 0x40 DUP3 ADD SWAP1 POP SWAP2 SWAP1 POP JUMP JUMPDEST PUSH1 0x0 PUSH2 0x2095 PUSH1 0x20 DUP4 PUSH2 0x2434 JUMP JUMPDEST SWAP2 POP PUSH2 0x20A0 DUP3 PUSH2 0x2997 JUMP JUMPDEST PUSH1 0x20 DUP3 ADD SWAP1 POP SWAP2 SWAP1 POP JUMP JUMPDEST PUSH1 0x0 PUSH2 0x20B8 PUSH1 0x18 DUP4 PUSH2 0x2434 JUMP JUMPDEST SWAP2 POP PUSH2 0x20C3 DUP3 PUSH2 0x29C0 JUMP JUMPDEST PUSH1 0x20 DUP3 ADD SWAP1 POP SWAP2 SWAP1 POP JUMP JUMPDEST PUSH1 0x0 PUSH2 0x20DB PUSH1 0x21 DUP4 PUSH2 0x2434 JUMP JUMPDEST SWAP2 POP PUSH2 0x20E6 DUP3 PUSH2 0x29E9 JUMP JUMPDEST PUSH1 0x40 DUP3 ADD SWAP1 POP SWAP2 SWAP1 POP JUMP JUMPDEST PUSH1 0x0 PUSH2 0x20FE PUSH1 0x3D DUP4 PUSH2 0x2434 JUMP JUMPDEST SWAP2 POP PUSH2 0x2109 DUP3 PUSH2 0x2A38 JUMP JUMPDEST PUSH1 0x40 DUP3 ADD SWAP1 POP SWAP2 SWAP1 POP JUMP JUMPDEST PUSH2 0x211D DUP2 PUSH2 0x2575 JUMP JUMPDEST DUP3 MSTORE POP POP JUMP JUMPDEST PUSH1 0x0 PUSH2 0x212F DUP3 DUP6 PUSH2 0x1F3F JUMP JUMPDEST SWAP2 POP PUSH2 0x213B DUP3 DUP5 PUSH2 0x1F3F JUMP JUMPDEST SWAP2 POP DUP2 SWAP1 POP SWAP4 SWAP3 POP POP POP JUMP JUMPDEST PUSH1 0x0 PUSH1 0x20 DUP3 ADD SWAP1 POP PUSH2 0x215C PUSH1 0x0 DUP4 ADD DUP5 PUSH2 0x1EAF JUMP JUMPDEST SWAP3 SWAP2 POP POP JUMP JUMPDEST PUSH1 0x0 PUSH1 0x80 DUP3 ADD SWAP1 POP PUSH2 0x2177 PUSH1 0x0 DUP4 ADD DUP8 PUSH2 0x1EAF JUMP JUMPDEST PUSH2 0x2184 PUSH1 0x20 DUP4 ADD DUP7 PUSH2 0x1EAF JUMP JUMPDEST PUSH2 0x2191 PUSH1 0x40 DUP4 ADD DUP6 PUSH2 0x2114 JUMP JUMPDEST DUP2 DUP2 SUB PUSH1 0x60 DUP4 ADD MSTORE PUSH2 0x21A3 DUP2 DUP5 PUSH2 0x1ECD JUMP JUMPDEST SWAP1 POP SWAP6 SWAP5 POP POP POP POP POP JUMP JUMPDEST PUSH1 0x0 PUSH1 0x20 DUP3 ADD SWAP1 POP PUSH2 0x21C3 PUSH1 0x0 DUP4 ADD DUP5 PUSH2 0x1EBE JUMP JUMPDEST SWAP3 SWAP2 POP POP JUMP JUMPDEST PUSH1 0x0 PUSH1 0x20 DUP3 ADD SWAP1 POP DUP2 DUP2 SUB PUSH1 0x0 DUP4 ADD MSTORE PUSH2 0x21E3 DUP2 DUP5 PUSH2 0x1F06 JUMP JUMPDEST SWAP1 POP SWAP3 SWAP2 POP POP JUMP JUMPDEST PUSH1 0x0 PUSH1 0x20 DUP3 ADD SWAP1 POP DUP2 DUP2 SUB PUSH1 0x0 DUP4 ADD MSTORE PUSH2 0x2204 DUP2 PUSH2 0x1F70 JUMP JUMPDEST SWAP1 POP SWAP2 SWAP1 POP JUMP JUMPDEST PUSH1 0x0 PUSH1 0x20 DUP3 ADD SWAP1 POP DUP2 DUP2 SUB PUSH1 0x0 DUP4 ADD MSTORE PUSH2 0x2224 DUP2 PUSH2 0x1F93 JUMP JUMPDEST SWAP1 POP SWAP2 SWAP1 POP JUMP JUMPDEST PUSH1 0x0 PUSH1 0x20 DUP3 ADD SWAP1 POP DUP2 DUP2 SUB PUSH1 0x0 DUP4 ADD MSTORE PUSH2 0x2244 DUP2 PUSH2 0x1FB6 JUMP JUMPDEST SWAP1 POP SWAP2 SWAP1 POP JUMP JUMPDEST PUSH1 0x0 PUSH1 0x20 DUP3 ADD SWAP1 POP DUP2 DUP2 SUB PUSH1 0x0 DUP4 ADD MSTORE PUSH2 0x2264 DUP2 PUSH2 0x1FD9 JUMP JUMPDEST SWAP1 POP SWAP2 SWAP1 POP JUMP JUMPDEST PUSH1 0x0 PUSH1 0x20 DUP3 ADD SWAP1 POP DUP2 DUP2 SUB PUSH1 0x0 DUP4 ADD MSTORE PUSH2 0x2284 DUP2 PUSH2 0x1FFC JUMP JUMPDEST SWAP1 POP SWAP2 SWAP1 POP JUMP JUMPDEST PUSH1 0x0 PUSH1 0x20 DUP3 ADD SWAP1 POP DUP2 DUP2 SUB PUSH1 0x0 DUP4 ADD MSTORE PUSH2 0x22A4 DUP2 PUSH2 0x201F JUMP JUMPDEST SWAP1 POP SWAP2 SWAP1 POP JUMP JUMPDEST PUSH1 0x0 PUSH1 0x20 DUP3 ADD SWAP1 POP DUP2 DUP2 SUB PUSH1 0x0 DUP4 ADD MSTORE PUSH2 0x22C4 DUP2 PUSH2 0x2042 JUMP JUMPDEST SWAP1 POP SWAP2 SWAP1 POP JUMP JUMPDEST PUSH1 0x0 PUSH1 0x20 DUP3 ADD SWAP1 POP DUP2 DUP2 SUB PUSH1 0x0 DUP4 ADD MSTORE PUSH2 0x22E4 DUP2 PUSH2 0x2065 JUMP JUMPDEST SWAP1 POP SWAP2 SWAP1 POP JUMP JUMPDEST PUSH1 0x0 PUSH1 0x20 DUP3 ADD SWAP1 POP DUP2 DUP2 SUB PUSH1 0x0 DUP4 ADD MSTORE PUSH2 0x2304 DUP2 PUSH2 0x2088 JUMP JUMPDEST SWAP1 POP SWAP2 SWAP1 POP JUMP JUMPDEST PUSH1 0x0 PUSH1 0x20 DUP3 ADD SWAP1 POP DUP2 DUP2 SUB PUSH1 0x0 DUP4 ADD MSTORE PUSH2 0x2324 DUP2 PUSH2 0x20AB JUMP JUMPDEST SWAP1 POP SWAP2 SWAP1 POP JUMP JUMPDEST PUSH1 0x0 PUSH1 0x20 DUP3 ADD SWAP1 POP DUP2 DUP2 SUB PUSH1 0x0 DUP4 ADD MSTORE PUSH2 0x2344 DUP2 PUSH2 0x20CE JUMP JUMPDEST SWAP1 POP SWAP2 SWAP1 POP JUMP JUMPDEST PUSH1 0x0 PUSH1 0x20 DUP3 ADD SWAP1 POP DUP2 DUP2 SUB PUSH1 0x0 DUP4 ADD MSTORE PUSH2 0x2364 DUP2 PUSH2 0x20F1 JUMP JUMPDEST SWAP1 POP SWAP2 SWAP1 POP JUMP JUMPDEST PUSH1 0x0 PUSH1 0x20 DUP3 ADD SWAP1 POP PUSH2 0x2380 PUSH1 0x0 DUP4 ADD DUP5 PUSH2 0x2114 JUMP JUMPDEST SWAP3 SWAP2 POP POP JUMP JUMPDEST PUSH1 0x0 PUSH2 0x2390 PUSH2 0x23A1 JUMP JUMPDEST SWAP1 POP PUSH2 0x239C DUP3 DUP3 PUSH2 0x25F3 JUMP JUMPDEST SWAP2 SWAP1 POP JUMP JUMPDEST PUSH1 0x0 PUSH1 0x40 MLOAD SWAP1 POP SWAP1 JUMP JUMPDEST PUSH1 0x0 PUSH8 0xFFFFFFFFFFFFFFFF DUP3 GT ISZERO PUSH2 0x23C6 JUMPI PUSH2 0x23C5 PUSH2 0x272B JUMP JUMPDEST JUMPDEST PUSH2 0x23CF DUP3 PUSH2 0x275A JUMP JUMPDEST SWAP1 POP PUSH1 0x20 DUP2 ADD SWAP1 POP SWAP2 SWAP1 POP JUMP JUMPDEST PUSH1 0x0 PUSH8 0xFFFFFFFFFFFFFFFF DUP3 GT ISZERO PUSH2 0x23F7 JUMPI PUSH2 0x23F6 PUSH2 0x272B JUMP JUMPDEST JUMPDEST PUSH2 0x2400 DUP3 PUSH2 0x275A JUMP JUMPDEST SWAP1 POP PUSH1 0x20 DUP2 ADD SWAP1 POP SWAP2 SWAP1 POP JUMP JUMPDEST PUSH1 0x0 DUP2 MLOAD SWAP1 POP SWAP2 SWAP1 POP JUMP JUMPDEST PUSH1 0x0 DUP2 MLOAD SWAP1 POP SWAP2 SWAP1 POP JUMP JUMPDEST PUSH1 0x0 DUP3 DUP3 MSTORE PUSH1 0x20 DUP3 ADD SWAP1 POP SWAP3 SWAP2 POP POP JUMP JUMPDEST PUSH1 0x0 DUP3 DUP3 MSTORE PUSH1 0x20 DUP3 ADD SWAP1 POP SWAP3 SWAP2 POP POP JUMP JUMPDEST PUSH1 0x0 DUP2 SWAP1 POP SWAP3 SWAP2 POP POP JUMP JUMPDEST PUSH1 0x0 PUSH2 0x245B DUP3 PUSH2 0x2575 JUMP JUMPDEST SWAP2 POP PUSH2 0x2466 DUP4 PUSH2 0x2575 JUMP JUMPDEST SWAP3 POP DUP3 PUSH32 0xFFFFFFFFFFFFFFFFFFFFFFFFFFFFFFFFFFFFFFFFFFFFFFFFFFFFFFFFFFFFFFFF SUB DUP3 GT ISZERO PUSH2 0x249B JUMPI PUSH2 0x249A PUSH2 0x269E JUMP JUMPDEST JUMPDEST DUP3 DUP3 ADD SWAP1 POP SWAP3 SWAP2 POP POP JUMP JUMPDEST PUSH1 0x0 PUSH2 0x24B1 DUP3 PUSH2 0x2575 JUMP JUMPDEST SWAP2 POP PUSH2 0x24BC DUP4 PUSH2 0x2575 JUMP JUMPDEST SWAP3 POP DUP3 PUSH2 0x24CC JUMPI PUSH2 0x24CB PUSH2 0x26CD JUMP JUMPDEST JUMPDEST DUP3 DUP3 DIV SWAP1 POP SWAP3 SWAP2 POP POP JUMP JUMPDEST PUSH1 0x0 PUSH2 0x24E2 DUP3 PUSH2 0x2575 JUMP JUMPDEST SWAP2 POP PUSH2 0x24ED DUP4 PUSH2 0x2575 JUMP JUMPDEST SWAP3 POP DUP3 DUP3 LT ISZERO PUSH2 0x2500 JUMPI PUSH2 0x24FF PUSH2 0x269E JUMP JUMPDEST JUMPDEST DUP3 DUP3 SUB SWAP1 POP SWAP3 SWAP2 POP POP JUMP JUMPDEST PUSH1 0x0 PUSH2 0x2516 DUP3 PUSH2 0x2555 JUMP JUMPDEST SWAP1 POP SWAP2 SWAP1 POP JUMP JUMPDEST PUSH1 0x0 DUP2 ISZERO ISZERO SWAP1 POP SWAP2 SWAP1 POP JUMP JUMPDEST PUSH1 0x0 PUSH32 0xFFFFFFFF00000000000000000000000000000000000000000000000000000000 DUP3 AND SWAP1 POP SWAP2 SWAP1 POP JUMP JUMPDEST PUSH1 0x0 PUSH20 0xFFFFFFFFFFFFFFFFFFFFFFFFFFFFFFFFFFFFFFFF DUP3 AND SWAP1 POP SWAP2 SWAP1 POP JUMP JUMPDEST PUSH1 0x0 DUP2 SWAP1 POP SWAP2 SWAP1 POP JUMP JUMPDEST DUP3 DUP2 DUP4 CALLDATACOPY PUSH1 0x0 DUP4 DUP4 ADD MSTORE POP POP POP JUMP JUMPDEST PUSH1 0x0 JUMPDEST DUP4 DUP2 LT ISZERO PUSH2 0x25AC JUMPI DUP1 DUP3 ADD MLOAD DUP2 DUP5 ADD MSTORE PUSH1 0x20 DUP2 ADD SWAP1 POP PUSH2 0x2591 JUMP JUMPDEST DUP4 DUP2 GT ISZERO PUSH2 0x25BB JUMPI PUSH1 0x0 DUP5 DUP5 ADD MSTORE JUMPDEST POP POP POP POP JUMP JUMPDEST PUSH1 0x0 PUSH1 0x2 DUP3 DIV SWAP1 POP PUSH1 0x1 DUP3 AND DUP1 PUSH2 0x25D9 JUMPI PUSH1 0x7F DUP3 AND SWAP2 POP JUMPDEST PUSH1 0x20 DUP3 LT DUP2 EQ ISZERO PUSH2 0x25ED JUMPI PUSH2 0x25EC PUSH2 0x26FC JUMP JUMPDEST JUMPDEST POP SWAP2 SWAP1 POP JUMP JUMPDEST PUSH2 0x25FC DUP3 PUSH2 0x275A JUMP JUMPDEST DUP2 ADD DUP2 DUP2 LT PUSH8 0xFFFFFFFFFFFFFFFF DUP3 GT OR ISZERO PUSH2 0x261B JUMPI PUSH2 0x261A PUSH2 0x272B JUMP JUMPDEST JUMPDEST DUP1 PUSH1 0x40 MSTORE POP POP POP JUMP JUMPDEST PUSH1 0x0 PUSH2 0x262F DUP3 PUSH2 0x2575 JUMP JUMPDEST SWAP2 POP PUSH32 0xFFFFFFFFFFFFFFFFFFFFFFFFFFFFFFFFFFFFFFFFFFFFFFFFFFFFFFFFFFFFFFFF DUP3 EQ ISZERO PUSH2 0x2662 JUMPI PUSH2 0x2661 PUSH2 0x269E JUMP JUMPDEST JUMPDEST PUSH1 0x1 DUP3 ADD SWAP1 POP SWAP2 SWAP1 POP JUMP JUMPDEST PUSH1 0x0 PUSH2 0x2678 DUP3 PUSH2 0x2575 JUMP JUMPDEST SWAP2 POP PUSH2 0x2683 DUP4 PUSH2 0x2575 JUMP JUMPDEST SWAP3 POP DUP3 PUSH2 0x2693 JUMPI PUSH2 0x2692 PUSH2 0x26CD JUMP JUMPDEST JUMPDEST DUP3 DUP3 MOD SWAP1 POP SWAP3 SWAP2 POP POP JUMP JUMPDEST PUSH32 0x4E487B7100000000000000000000000000000000000000000000000000000000 PUSH1 0x0 MSTORE PUSH1 0x11 PUSH1 0x4 MSTORE PUSH1 0x24 PUSH1 0x0 REVERT JUMPDEST PUSH32 0x4E487B7100000000000000000000000000000000000000000000000000000000 PUSH1 0x0 MSTORE PUSH1 0x12 PUSH1 0x4 MSTORE PUSH1 0x24 PUSH1 0x0 REVERT JUMPDEST PUSH32 0x4E487B7100000000000000000000000000000000000000000000000000000000 PUSH1 0x0 MSTORE PUSH1 0x22 PUSH1 0x4 MSTORE PUSH1 0x24 PUSH1 0x0 REVERT JUMPDEST PUSH32 0x4E487B7100000000000000000000000000000000000000000000000000000000 PUSH1 0x0 MSTORE PUSH1 0x41 PUSH1 0x4 MSTORE PUSH1 0x24 PUSH1 0x0 REVERT JUMPDEST PUSH1 0x0 PUSH1 0x1F NOT PUSH1 0x1F DUP4 ADD AND SWAP1 POP SWAP2 SWAP1 POP JUMP JUMPDEST PUSH32 0x4552433732313A2063616C6C6572206973206E6F7420746F6B656E206F776E65 PUSH1 0x0 DUP3 ADD MSTORE PUSH32 0x72206F7220617070726F76656400000000000000000000000000000000000000 PUSH1 0x20 DUP3 ADD MSTORE POP JUMP JUMPDEST PUSH32 0x4552433732313A207472616E7366657220746F206E6F6E204552433732315265 PUSH1 0x0 DUP3 ADD MSTORE PUSH32 0x63656976657220696D706C656D656E7465720000000000000000000000000000 PUSH1 0x20 DUP3 ADD MSTORE POP JUMP JUMPDEST PUSH32 0x4552433732313A207472616E736665722066726F6D20696E636F727265637420 PUSH1 0x0 DUP3 ADD MSTORE PUSH32 0x6F776E6572000000000000000000000000000000000000000000000000000000 PUSH1 0x20 DUP3 ADD MSTORE POP JUMP JUMPDEST PUSH32 0x4552433732313A20746F6B656E20616C7265616479206D696E74656400000000 PUSH1 0x0 DUP3 ADD MSTORE POP JUMP JUMPDEST PUSH32 0x4552433732313A207472616E7366657220746F20746865207A65726F20616464 PUSH1 0x0 DUP3 ADD MSTORE PUSH32 0x7265737300000000000000000000000000000000000000000000000000000000 PUSH1 0x20 DUP3 ADD MSTORE POP JUMP JUMPDEST PUSH32 0x4552433732313A20617070726F766520746F2063616C6C657200000000000000 PUSH1 0x0 DUP3 ADD MSTORE POP JUMP JUMPDEST PUSH32 0x4552433732313A2061646472657373207A65726F206973206E6F742061207661 PUSH1 0x0 DUP3 ADD MSTORE PUSH32 0x6C6964206F776E65720000000000000000000000000000000000000000000000 PUSH1 0x20 DUP3 ADD MSTORE POP JUMP JUMPDEST PUSH32 0x45524337323155524953746F726167653A2055524920736574206F66206E6F6E PUSH1 0x0 DUP3 ADD MSTORE PUSH32 0x6578697374656E7420746F6B656E000000000000000000000000000000000000 PUSH1 0x20 DUP3 ADD MSTORE POP JUMP JUMPDEST PUSH32 0x4552433732313A206D696E7420746F20746865207A65726F2061646472657373 PUSH1 0x0 DUP3 ADD MSTORE POP JUMP JUMPDEST PUSH32 0x4552433732313A20696E76616C696420746F6B656E2049440000000000000000 PUSH1 0x0 DUP3 ADD MSTORE POP JUMP JUMPDEST PUSH32 0x4552433732313A20617070726F76616C20746F2063757272656E74206F776E65 PUSH1 0x0 DUP3 ADD MSTORE PUSH32 0x7200000000000000000000000000000000000000000000000000000000000000 PUSH1 0x20 DUP3 ADD MSTORE POP JUMP JUMPDEST PUSH32 0x4552433732313A20617070726F76652063616C6C6572206973206E6F7420746F PUSH1 0x0 DUP3 ADD MSTORE PUSH32 0x6B656E206F776E6572206F7220617070726F76656420666F7220616C6C000000 PUSH1 0x20 DUP3 ADD MSTORE POP JUMP JUMPDEST PUSH2 0x2A90 DUP2 PUSH2 0x250B JUMP JUMPDEST DUP2 EQ PUSH2 0x2A9B JUMPI PUSH1 0x0 DUP1 REVERT JUMPDEST POP JUMP JUMPDEST PUSH2 0x2AA7 DUP2 PUSH2 0x251D JUMP JUMPDEST DUP2 EQ PUSH2 0x2AB2 JUMPI PUSH1 0x0 DUP1 REVERT JUMPDEST POP JUMP JUMPDEST PUSH2 0x2ABE DUP2 PUSH2 0x2529 JUMP JUMPDEST DUP2 EQ PUSH2 0x2AC9 JUMPI PUSH1 0x0 DUP1 REVERT JUMPDEST POP JUMP JUMPDEST PUSH2 0x2AD5 DUP2 PUSH2 0x2575 JUMP JUMPDEST DUP2 EQ PUSH2 0x2AE0 JUMPI PUSH1 0x0 DUP1 REVERT JUMPDEST POP JUMP INVALID LOG2 PUSH5 0x6970667358 0x22 SLT KECCAK256 0xD6 0xD3 DUP4 PUSH20 0x624A2CA3D37D26E6A41B3BB1166D947986847AD9 SWAP3 DUP12 0xF8 PUSH32 0xCC9D9EEA64736F6C634300080400330000000000000000000000000000000000 "
				},
				"gasEstimates": {
					"creation": {
						"codeDepositCost": "2206600",
						"executionCost": "infinite",
						"totalCost": "infinite"
					},
					"external": {
						"approve(address,uint256)": "infinite",
						"balanceOf(address)": "1602",
						"collaboratotOf(uint256)": "1726",
						"collaboratotPercentageOf(uint256)": "1747",
						"getApproved(uint256)": "2657",
						"isApprovedForAll(address,address)": "infinite",
						"mint(address,address,uint256,string)": "infinite",
						"name()": "infinite",
						"ownerOf(uint256)": "1748",
						"safeTransferFrom(address,address,uint256)": "infinite",
						"safeTransferFrom(address,address,uint256,bytes)": "infinite",
						"setApprovalForAll(address,bool)": "infinite",
						"supportsInterface(bytes4)": "797",
						"symbol()": "infinite",
						"tokenURI(uint256)": "2102",
						"transferFrom(address,address,uint256)": "infinite"
					},
					"internal": {
						"_afterTokenTransfer(address,address,uint256)": "15",
						"_approve(address,uint256)": "infinite",
						"_baseURI()": "infinite",
						"_beforeTokenTransfer(address,address,uint256)": "15",
						"_burn(uint256)": "infinite",
						"_checkOnERC721Received(address,address,uint256,bytes memory)": "infinite",
						"_exists(uint256)": "969",
						"_isApprovedOrOwner(address,uint256)": "infinite",
						"_mint(address,address,uint256)": "infinite",
						"_requireMinted(uint256)": "infinite",
						"_safeMint(address,address,uint256)": "infinite",
						"_safeMint(address,address,uint256,bytes memory)": "infinite",
						"_safeTransfer(address,address,uint256,bytes memory)": "infinite",
						"_setApprovalForAll(address,address,bool)": "infinite",
						"_setTokenURI(uint256,string memory)": "infinite",
						"_transfer(address,address,uint256)": "infinite"
					}
				},
				"methodIdentifiers": {
					"approve(address,uint256)": "095ea7b3",
					"balanceOf(address)": "70a08231",
					"collaboratotOf(uint256)": "52e04825",
					"collaboratotPercentageOf(uint256)": "ee48cda2",
					"getApproved(uint256)": "081812fc",
					"isApprovedForAll(address,address)": "e985e9c5",
					"mint(address,address,uint256,string)": "b85cbc79",
					"name()": "06fdde03",
					"ownerOf(uint256)": "6352211e",
					"safeTransferFrom(address,address,uint256)": "42842e0e",
					"safeTransferFrom(address,address,uint256,bytes)": "b88d4fde",
					"setApprovalForAll(address,bool)": "a22cb465",
					"supportsInterface(bytes4)": "01ffc9a7",
					"symbol()": "95d89b41",
					"tokenURI(uint256)": "c87b56dd",
					"transferFrom(address,address,uint256)": "23b872dd"
				}
			},
			"storageLayout": {
				"storage": [
					{
						"astId": 816,
						"contract": "contracts/nft.sol:nft",
						"label": "_name",
						"offset": 0,
						"slot": "0",
						"type": "t_string_storage"
					},
					{
						"astId": 818,
						"contract": "contracts/nft.sol:nft",
						"label": "_symbol",
						"offset": 0,
						"slot": "1",
						"type": "t_string_storage"
					},
					{
						"astId": 822,
						"contract": "contracts/nft.sol:nft",
						"label": "_owners",
						"offset": 0,
						"slot": "2",
						"type": "t_mapping(t_uint256,t_address)"
					},
					{
						"astId": 826,
						"contract": "contracts/nft.sol:nft",
						"label": "_ownersPercentage",
						"offset": 0,
						"slot": "3",
						"type": "t_mapping(t_uint256,t_uint256)"
					},
					{
						"astId": 830,
						"contract": "contracts/nft.sol:nft",
						"label": "_collaborators",
						"offset": 0,
						"slot": "4",
						"type": "t_mapping(t_uint256,t_address)"
					},
					{
						"astId": 834,
						"contract": "contracts/nft.sol:nft",
						"label": "_collaboratorsPercentage",
						"offset": 0,
						"slot": "5",
						"type": "t_mapping(t_uint256,t_uint256)"
					},
					{
						"astId": 838,
						"contract": "contracts/nft.sol:nft",
						"label": "_balances",
						"offset": 0,
						"slot": "6",
						"type": "t_mapping(t_address,t_uint256)"
					},
					{
						"astId": 842,
						"contract": "contracts/nft.sol:nft",
						"label": "_tokenApprovals",
						"offset": 0,
						"slot": "7",
						"type": "t_mapping(t_uint256,t_address)"
					},
					{
						"astId": 848,
						"contract": "contracts/nft.sol:nft",
						"label": "_operatorApprovals",
						"offset": 0,
						"slot": "8",
						"type": "t_mapping(t_address,t_mapping(t_address,t_bool))"
					},
					{
						"astId": 852,
						"contract": "contracts/nft.sol:nft",
						"label": "_tokenURIs",
						"offset": 0,
						"slot": "9",
						"type": "t_mapping(t_uint256,t_string_storage)"
					}
				],
				"types": {
					"t_address": {
						"encoding": "inplace",
						"label": "address",
						"numberOfBytes": "20"
					},
					"t_bool": {
						"encoding": "inplace",
						"label": "bool",
						"numberOfBytes": "1"
					},
					"t_mapping(t_address,t_bool)": {
						"encoding": "mapping",
						"key": "t_address",
						"label": "mapping(address => bool)",
						"numberOfBytes": "32",
						"value": "t_bool"
					},
					"t_mapping(t_address,t_mapping(t_address,t_bool))": {
						"encoding": "mapping",
						"key": "t_address",
						"label": "mapping(address => mapping(address => bool))",
						"numberOfBytes": "32",
						"value": "t_mapping(t_address,t_bool)"
					},
					"t_mapping(t_address,t_uint256)": {
						"encoding": "mapping",
						"key": "t_address",
						"label": "mapping(address => uint256)",
						"numberOfBytes": "32",
						"value": "t_uint256"
					},
					"t_mapping(t_uint256,t_address)": {
						"encoding": "mapping",
						"key": "t_uint256",
						"label": "mapping(uint256 => address)",
						"numberOfBytes": "32",
						"value": "t_address"
					},
					"t_mapping(t_uint256,t_string_storage)": {
						"encoding": "mapping",
						"key": "t_uint256",
						"label": "mapping(uint256 => string)",
						"numberOfBytes": "32",
						"value": "t_string_storage"
					},
					"t_mapping(t_uint256,t_uint256)": {
						"encoding": "mapping",
						"key": "t_uint256",
						"label": "mapping(uint256 => uint256)",
						"numberOfBytes": "32",
						"value": "t_uint256"
					},
					"t_string_storage": {
						"encoding": "bytes",
						"label": "string",
						"numberOfBytes": "32"
					},
					"t_uint256": {
						"encoding": "inplace",
						"label": "uint256",
						"numberOfBytes": "32"
					}
				}
			},
			"userdoc": {
				"kind": "user",
				"methods": {},
				"version": 1
			}
		}
	}
}